{
  "contractName": "AmbushDeck",
  "abi": [
    {
      "inputs": [],
      "stateMutability": "nonpayable",
      "type": "constructor"
    },
    {
      "anonymous": false,
      "inputs": [
        {
          "indexed": true,
          "internalType": "bytes32",
          "name": "role",
          "type": "bytes32"
        },
        {
          "indexed": true,
          "internalType": "bytes32",
          "name": "previousAdminRole",
          "type": "bytes32"
        },
        {
          "indexed": true,
          "internalType": "bytes32",
          "name": "newAdminRole",
          "type": "bytes32"
        }
      ],
      "name": "RoleAdminChanged",
      "type": "event"
    },
    {
      "anonymous": false,
      "inputs": [
        {
          "indexed": true,
          "internalType": "bytes32",
          "name": "role",
          "type": "bytes32"
        },
        {
          "indexed": true,
          "internalType": "address",
          "name": "account",
          "type": "address"
        },
        {
          "indexed": true,
          "internalType": "address",
          "name": "sender",
          "type": "address"
        }
      ],
      "name": "RoleGranted",
      "type": "event"
    },
    {
      "anonymous": false,
      "inputs": [
        {
          "indexed": true,
          "internalType": "bytes32",
          "name": "role",
          "type": "bytes32"
        },
        {
          "indexed": true,
          "internalType": "address",
          "name": "account",
          "type": "address"
        },
        {
          "indexed": true,
          "internalType": "address",
          "name": "sender",
          "type": "address"
        }
      ],
      "name": "RoleRevoked",
      "type": "event"
    },
    {
      "inputs": [],
      "name": "CONTROLLER_ROLE",
      "outputs": [
        {
          "internalType": "bytes32",
          "name": "",
          "type": "bytes32"
        }
      ],
      "stateMutability": "view",
      "type": "function"
    },
    {
      "inputs": [],
      "name": "DEFAULT_ADMIN_ROLE",
      "outputs": [
        {
          "internalType": "bytes32",
          "name": "",
          "type": "bytes32"
        }
      ],
      "stateMutability": "view",
      "type": "function"
    },
    {
      "inputs": [
        {
          "internalType": "string[]",
          "name": "titles",
          "type": "string[]"
        },
        {
          "internalType": "string[]",
          "name": "descriptions",
          "type": "string[]"
        },
        {
          "internalType": "uint16[]",
          "name": "quantities",
          "type": "uint16[]"
        }
      ],
      "name": "addCards",
      "outputs": [],
      "stateMutability": "nonpayable",
      "type": "function"
    },
    {
      "inputs": [
        {
          "internalType": "string",
          "name": "",
          "type": "string"
        }
      ],
      "name": "agilityAdjust",
      "outputs": [
        {
          "internalType": "int8",
          "name": "",
          "type": "int8"
        }
      ],
      "stateMutability": "view",
      "type": "function"
    },
    {
      "inputs": [
        {
          "internalType": "string",
          "name": "",
          "type": "string"
        }
      ],
      "name": "description",
      "outputs": [
        {
          "internalType": "string",
          "name": "",
          "type": "string"
        }
      ],
      "stateMutability": "view",
      "type": "function"
    },
    {
      "inputs": [
        {
          "internalType": "string",
          "name": "",
          "type": "string"
        }
      ],
      "name": "dexterityAdjust",
      "outputs": [
        {
          "internalType": "int8",
          "name": "",
          "type": "int8"
        }
      ],
      "stateMutability": "view",
      "type": "function"
    },
    {
      "inputs": [
        {
          "internalType": "uint256",
          "name": "randomWord",
          "type": "uint256"
        }
      ],
      "name": "drawCard",
      "outputs": [
        {
          "internalType": "string",
          "name": "",
          "type": "string"
        },
        {
          "internalType": "int8",
          "name": "",
          "type": "int8"
        },
        {
          "internalType": "int8",
          "name": "",
          "type": "int8"
        },
        {
          "internalType": "int8",
          "name": "",
          "type": "int8"
        },
        {
          "internalType": "string",
          "name": "",
          "type": "string"
        },
        {
          "internalType": "string",
          "name": "",
          "type": "string"
        },
        {
          "internalType": "string",
          "name": "",
          "type": "string"
        },
        {
          "internalType": "int256",
          "name": "",
          "type": "int256"
        },
        {
          "internalType": "int256",
          "name": "",
          "type": "int256"
        }
      ],
      "stateMutability": "view",
      "type": "function"
    },
    {
      "inputs": [],
      "name": "getDeck",
      "outputs": [
        {
          "internalType": "string[]",
          "name": "",
          "type": "string[]"
        }
      ],
      "stateMutability": "view",
      "type": "function"
    },
    {
      "inputs": [
        {
          "internalType": "bytes32",
          "name": "role",
          "type": "bytes32"
        }
      ],
      "name": "getRoleAdmin",
      "outputs": [
        {
          "internalType": "bytes32",
          "name": "",
          "type": "bytes32"
        }
      ],
      "stateMutability": "view",
      "type": "function"
    },
    {
      "inputs": [
        {
          "internalType": "bytes32",
          "name": "role",
          "type": "bytes32"
        },
        {
          "internalType": "uint256",
          "name": "index",
          "type": "uint256"
        }
      ],
      "name": "getRoleMember",
      "outputs": [
        {
          "internalType": "address",
          "name": "",
          "type": "address"
        }
      ],
      "stateMutability": "view",
      "type": "function"
    },
    {
      "inputs": [
        {
          "internalType": "bytes32",
          "name": "role",
          "type": "bytes32"
        }
      ],
      "name": "getRoleMemberCount",
      "outputs": [
        {
          "internalType": "uint256",
          "name": "",
          "type": "uint256"
        }
      ],
      "stateMutability": "view",
      "type": "function"
    },
    {
      "inputs": [
        {
          "internalType": "bytes32",
          "name": "role",
          "type": "bytes32"
        },
        {
          "internalType": "address",
          "name": "account",
          "type": "address"
        }
      ],
      "name": "grantRole",
      "outputs": [],
      "stateMutability": "nonpayable",
      "type": "function"
    },
    {
      "inputs": [
        {
          "internalType": "string",
          "name": "",
          "type": "string"
        }
      ],
      "name": "handLoss",
      "outputs": [
        {
          "internalType": "string",
          "name": "",
          "type": "string"
        }
      ],
      "stateMutability": "view",
      "type": "function"
    },
    {
      "inputs": [
        {
          "internalType": "bytes32",
          "name": "role",
          "type": "bytes32"
        },
        {
          "internalType": "address",
          "name": "account",
          "type": "address"
        }
      ],
      "name": "hasRole",
      "outputs": [
        {
          "internalType": "bool",
          "name": "",
          "type": "bool"
        }
      ],
      "stateMutability": "view",
      "type": "function"
    },
    {
      "inputs": [
        {
          "internalType": "string",
          "name": "",
          "type": "string"
        }
      ],
      "name": "itemGain",
      "outputs": [
        {
          "internalType": "string",
          "name": "",
          "type": "string"
        }
      ],
      "stateMutability": "view",
      "type": "function"
    },
    {
      "inputs": [
        {
          "internalType": "string",
          "name": "",
          "type": "string"
        }
      ],
      "name": "itemLoss",
      "outputs": [
        {
          "internalType": "string",
          "name": "",
          "type": "string"
        }
      ],
      "stateMutability": "view",
      "type": "function"
    },
    {
      "inputs": [
        {
          "internalType": "string",
          "name": "",
          "type": "string"
        }
      ],
      "name": "movementAdjust",
      "outputs": [
        {
          "internalType": "int8",
          "name": "",
          "type": "int8"
        }
      ],
      "stateMutability": "view",
      "type": "function"
    },
    {
      "inputs": [
        {
          "internalType": "string",
          "name": "",
          "type": "string"
        }
      ],
      "name": "movementX",
      "outputs": [
        {
          "internalType": "int256",
          "name": "",
          "type": "int256"
        }
      ],
      "stateMutability": "view",
      "type": "function"
    },
    {
      "inputs": [
        {
          "internalType": "string",
          "name": "",
          "type": "string"
        }
      ],
      "name": "movementY",
      "outputs": [
        {
          "internalType": "int256",
          "name": "",
          "type": "int256"
        }
      ],
      "stateMutability": "view",
      "type": "function"
    },
    {
      "inputs": [
        {
          "internalType": "string",
          "name": "",
          "type": "string"
        }
      ],
      "name": "quantity",
      "outputs": [
        {
          "internalType": "uint16",
          "name": "",
          "type": "uint16"
        }
      ],
      "stateMutability": "view",
      "type": "function"
    },
    {
      "inputs": [
        {
          "internalType": "bytes32",
          "name": "role",
          "type": "bytes32"
        },
        {
          "internalType": "address",
          "name": "account",
          "type": "address"
        }
      ],
      "name": "renounceRole",
      "outputs": [],
      "stateMutability": "nonpayable",
      "type": "function"
    },
    {
      "inputs": [
        {
          "internalType": "bytes32",
          "name": "role",
          "type": "bytes32"
        },
        {
          "internalType": "address",
          "name": "account",
          "type": "address"
        }
      ],
      "name": "revokeRole",
      "outputs": [],
      "stateMutability": "nonpayable",
      "type": "function"
    },
    {
      "inputs": [
        {
          "internalType": "bytes4",
          "name": "interfaceId",
          "type": "bytes4"
        }
      ],
      "name": "supportsInterface",
      "outputs": [
        {
          "internalType": "bool",
          "name": "",
          "type": "bool"
        }
      ],
      "stateMutability": "view",
      "type": "function"
    }
  ],
  "bytecode": "0x60806040523480156200001157600080fd5b506200003a60006200002b640100000000620003db810204565b640100000000620003df810204565b60408051600480825260a08201909252600091816020015b60608152602001906001900390816200005257505060408051600480825260a0820190925291925060009190602082015b60608152602001906001900390816200008357505060408051600480825260a0820190925291925060009190602082016080803683370190505090506040518060400160405280600c81526020017f416e677279204c6f63616c730000000000000000000000000000000000000000815250836000815181106200010b576200010b62000baa565b60200260200101819052506040518060c00160405280608c8152602001620028d4608c91398260008151811062000146576200014662000baa565b602002602001018190525060018160008151811062000169576200016962000baa565b602002602001019061ffff16908161ffff16815250506040518060400160405280601081526020017f53687269656b696e67204265617374730000000000000000000000000000000081525083600181518110620001cb57620001cb62000baa565b60200260200101819052506040518060800160405280604b815260200162002960604b91398260018151811062000206576200020662000baa565b602002602001018190525060018160018151811062000229576200022962000baa565b602002602001019061ffff16908161ffff16815250506040518060400160405280600d81526020017f57696e6765642042656173747300000000000000000000000000000000000000815250836002815181106200028b576200028b62000baa565b60200260200101819052506040518060800160405280604981526020016200280f6049913982600281518110620002c657620002c662000baa565b6020026020010181905250600181600281518110620002e957620002e962000baa565b602002602001019061ffff16908161ffff16815250506040518060400160405280601081526020017f536861646f772043726561747572657300000000000000000000000000000000815250836003815181106200034b576200034b62000baa565b60200260200101819052506040518060a00160405280607c815260200162002858607c91398260038151811062000386576200038662000baa565b6020026020010181905250600181600381518110620003a957620003a962000baa565b61ffff90921660209283029190910190910152620003d2838383640100000000620003f8810204565b50505062000dde565b3390565b620003f4828264010000000062000621810204565b5050565b60006200040e8164010000000062000668810204565b8251845114801562000421575081518451145b6200048d576040517f08c379a000000000000000000000000000000000000000000000000000000000815260206004820152601760248201527f6172726179207175616e74697479206d69736d6174636800000000000000000060448201526064015b60405180910390fd5b60005b84518110156200061a576000858281518110620004b157620004b162000baa565b60200260200101519050600481604051620004cd919062000c0c565b9081526040519081900360200190205461ffff16158015620005105750838281518110620004ff57620004ff62000baa565b602002602001015161ffff16600014155b1562000604576002805460018101825560009190915281516200055b917f405787fa12a823e0f2b7631cc41b3ba8828b3321ca811111fa75cd3aa3bb5ace0190602084019062000ad5565b5084828151811062000571576200057162000baa565b60200260200101516003826040516200058b919062000c0c565b90815260200160405180910390209080519060200190620005ae92919062000ad5565b50838281518110620005c457620005c462000baa565b6020026020010151600482604051620005de919062000c0c565b908152604051908190036020019020805461ffff9290921661ffff199092169190911790555b5080620006118162000c59565b91505062000490565b5050505050565b6200063b828264010000000062000d476200069282021704565b600082815260016020526040902062000663908264010000000062000dcb6200072e82021704565b505050565b6200068f8162000680640100000000620003db810204565b64010000000062000757810204565b50565b620006a7828264010000000062000805810204565b620003f457600082815260208181526040808320600160a060020a03851684529091529020805460ff19166001179055620006ea640100000000620003db810204565b600160a060020a031681600160a060020a0316837f2f8788117e7eff1d82e926ec794901d17c78024a50270940304540a733656f0d60405160405180910390a45050565b60006200074e83600160a060020a0384166401000000006200082e810204565b90505b92915050565b6200076c828264010000000062000805810204565b620003f45762000795600160a060020a038216601464010000000062000de06200088682021704565b620007b083602064010000000062000de06200088682021704565b604051602001620007c392919062000c77565b60408051601f19818403018152908290527f08c379a0000000000000000000000000000000000000000000000000000000008252620004849160040162000cfc565b600091825260208281526040808420600160a060020a0393909316845291905290205460ff1690565b600062000845838364010000000062000abd810204565b6200087d5750815460018181018455600084815260208082209093018490558454848252828601909352604090209190915562000751565b50600062000751565b606060006200089783600262000d31565b620008a490600262000d53565b67ffffffffffffffff811115620008bf57620008bf62000b7b565b6040519080825280601f01601f191660200182016040528015620008ea576020820181803683370190505b5090507f30000000000000000000000000000000000000000000000000000000000000008160008151811062000924576200092462000baa565b6020010190600160f860020a031916908160001a9053507f78000000000000000000000000000000000000000000000000000000000000008160018151811062000972576200097262000baa565b6020010190600160f860020a031916908160001a90535060006200099884600262000d31565b620009a590600162000d53565b90505b600181111562000a52577f303132333435363738396162636465660000000000000000000000000000000085600f1660108110620009ea57620009ea62000baa565b1a7f01000000000000000000000000000000000000000000000000000000000000000282828151811062000a225762000a2262000baa565b6020010190600160f860020a031916908160001a90535060109094049362000a4a8162000d6e565b9050620009a8565b5083156200074e576040517f08c379a000000000000000000000000000000000000000000000000000000000815260206004820181905260248201527f537472696e67733a20686578206c656e67746820696e73756666696369656e74604482015260640162000484565b60009081526001919091016020526040902054151590565b82805462000ae39062000d88565b90600052602060002090601f01602090048101928262000b07576000855562000b52565b82601f1062000b2257805160ff191683800117855562000b52565b8280016001018555821562000b52579182015b8281111562000b5257825182559160200191906001019062000b35565b5062000b6092915062000b64565b5090565b5b8082111562000b60576000815560010162000b65565b7f4e487b7100000000000000000000000000000000000000000000000000000000600052604160045260246000fd5b7f4e487b7100000000000000000000000000000000000000000000000000000000600052603260045260246000fd5b60005b8381101562000bf657818101518382015260200162000bdc565b8381111562000c06576000848401525b50505050565b6000825162000c2081846020870162000bd9565b9190910192915050565b7f4e487b7100000000000000000000000000000000000000000000000000000000600052601160045260246000fd5b600060001982141562000c705762000c7062000c2a565b5060010190565b7f416363657373436f6e74726f6c3a206163636f756e742000000000000000000081526000835162000cb181601785016020880162000bd9565b7f206973206d697373696e6720726f6c6520000000000000000000000000000000601791840191820152835162000cf081602884016020880162000bd9565b01602801949350505050565b602081526000825180602084015262000d1d81604085016020870162000bd9565b601f01601f19169190910160400192915050565b600081600019048311821515161562000d4e5762000d4e62000c2a565b500290565b6000821982111562000d695762000d6962000c2a565b500190565b60008162000d805762000d8062000c2a565b506000190190565b60028104600182168062000d9d57607f821691505b6020821081141562000dd8577f4e487b7100000000000000000000000000000000000000000000000000000000600052602260045260246000fd5b50919050565b611a218062000dee6000396000f3fe608060405234801561001057600080fd5b506004361061016a576000357c01000000000000000000000000000000000000000000000000000000009004806388255199116100e0578063b6aa4ed611610099578063b6aa4ed6146103a4578063bcb71034146103cc578063ca15c873146103fa578063d547741f1461040d578063ea77ee7514610420578063ff38930d1461044e57600080fd5b8063882551991461030d5780639010d07c1461032057806391d148541461034b578063964a36101461035e578063a217fddf14610389578063a855d6f91461039157600080fd5b80632f2ff15d116101325780632f2ff15d1461023a578063339434741461024f57806336568abe146102645780633ee9c69f146102775780636d63ac19146102b857806381ecfce8146102cb57600080fd5b806301ffc9a71461016f57806305b527ed14610197578063092c5b3b146101d05780630ce7c972146101f7578063248a9ca314610217575b600080fd5b61018261017d366004611396565b610461565b60405190151581526020015b60405180910390f35b6101c26101a536600461147a565b8051602081830181018051600b8252928201919093012091525481565b60405190815260200161018e565b6101c27f7b765e0e932d348852a6f810bfa1ab891e259123f02db8cdcde614c57022335781565b61020a61020536600461147a565b6104a5565b60405161018e9190611513565b6101c2610225366004611526565b60009081526020819052604090206001015490565b61024d61024836600461153f565b61054a565b005b610257610574565b60405161018e919061157b565b61024d61027236600461153f565b61064d565b6102a561028536600461147a565b805160208183018101805160078252928201919093012091525460000b81565b60405160009190910b815260200161018e565b61020a6102c636600461147a565b6106e1565b6102fa6102d936600461147a565b805160208183018101805160048252928201919093012091525461ffff1681565b60405161ffff909116815260200161018e565b61020a61031b36600461147a565b610705565b61033361032e3660046115dc565b610729565b604051600160a060020a03909116815260200161018e565b61018261035936600461153f565b610748565b6101c261036c36600461147a565b8051602081830181018051600c8252928201919093012091525481565b6101c2600081565b61024d61039f3660046116af565b610771565b6103b76103b2366004611526565b610955565b60405161018e9998979695949392919061179b565b6102a56103da36600461147a565b805160208183018101805160068252928201919093012091525460000b81565b6101c2610408366004611526565b610ce7565b61024d61041b36600461153f565b610cfe565b6102a561042e36600461147a565b805160208183018101805160058252928201919093012091525460000b81565b61020a61045c36600461147a565b610d23565b6000600160e060020a031982167f5a05180f00000000000000000000000000000000000000000000000000000000148061049f575061049f82610fe2565b92915050565b8051602081830181018051600882529282019190930120915280546104c990611820565b80601f01602080910402602001604051908101604052809291908181526020018280546104f590611820565b80156105425780601f1061051757610100808354040283529160200191610542565b820191906000526020600020905b81548152906001019060200180831161052557829003601f168201915b505050505081565b60008281526020819052604090206001015461056581611049565b61056f8383611056565b505050565b60606002805480602002602001604051908101604052809291908181526020016000905b828210156106445783829060005260206000200180546105b790611820565b80601f01602080910402602001604051908101604052809291908181526020018280546105e390611820565b80156106305780601f1061060557610100808354040283529160200191610630565b820191906000526020600020905b81548152906001019060200180831161061357829003601f168201915b505050505081526020019060010190610598565b50505050905090565b600160a060020a03811633146106d35760405160e560020a62461bcd02815260206004820152602f60248201527f416363657373436f6e74726f6c3a2063616e206f6e6c792072656e6f756e636560448201527f20726f6c657320666f722073656c66000000000000000000000000000000000060648201526084015b60405180910390fd5b6106dd8282611078565b5050565b8051602081830181018051600a82529282019190930120915280546104c990611820565b8051602081830181018051600382529282019190930120915280546104c990611820565b6000828152600160205260408120610741908361109a565b9392505050565b600091825260208281526040808420600160a060020a0393909316845291905290205460ff1690565b600061077c81611049565b8251845114801561078e575081518451145b6107dd5760405160e560020a62461bcd02815260206004820152601760248201527f6172726179207175616e74697479206d69736d6174636800000000000000000060448201526064016106ca565b60005b845181101561094e5760008582815181106107fd576107fd61185e565b602002602001015190506004816040516108179190611877565b9081526040519081900360200190205461ffff1615801561085657508382815181106108455761084561185e565b602002602001015161ffff16600014155b1561093b5760028054600181018255600091909152815161089e917f405787fa12a823e0f2b7631cc41b3ba8828b3321ca811111fa75cd3aa3bb5ace019060208401906112fd565b508482815181106108b1576108b161185e565b60200260200101516003826040516108c99190611877565b908152602001604051809103902090805190602001906108ea9291906112fd565b508382815181106108fd576108fd61185e565b60200260200101516004826040516109159190611877565b908152604051908190036020019020805461ffff9290921661ffff199092169190911790555b5080610946816118ac565b9150506107e0565b5050505050565b60606000806000606080606060008060006002805490508b61097791906118c7565b905060006002828154811061098e5761098e61185e565b9060005260206000200180546109a390611820565b80601f01602080910402602001604051908101604052809291908181526020018280546109cf90611820565b8015610a1c5780601f106109f157610100808354040283529160200191610a1c565b820191906000526020600020905b8154815290600101906020018083116109ff57829003601f168201915b5050505050905080600582604051610a349190611877565b9081526040519081900360200181205460000b90600690610a56908590611877565b9081526040519081900360200181205460000b90600790610a78908690611877565b9081526040519081900360200181205460000b90600990610a9a908790611877565b9081526020016040518091039020600886604051610ab89190611877565b9081526020016040518091039020600a87604051610ad69190611877565b9081526020016040518091039020600b88604051610af49190611877565b908152602001604051809103902054600c89604051610b139190611877565b908152602001604051809103902054848054610b2e90611820565b80601f0160208091040260200160405190810160405280929190818152602001828054610b5a90611820565b8015610ba75780601f10610b7c57610100808354040283529160200191610ba7565b820191906000526020600020905b815481529060010190602001808311610b8a57829003601f168201915b50505050509450838054610bba90611820565b80601f0160208091040260200160405190810160405280929190818152602001828054610be690611820565b8015610c335780601f10610c0857610100808354040283529160200191610c33565b820191906000526020600020905b815481529060010190602001808311610c1657829003601f168201915b50505050509350828054610c4690611820565b80601f0160208091040260200160405190810160405280929190818152602001828054610c7290611820565b8015610cbf5780601f10610c9457610100808354040283529160200191610cbf565b820191906000526020600020905b815481529060010190602001808311610ca257829003601f168201915b505050505092509a509a509a509a509a509a509a509a509a5050509193959799909294969850565b600081815260016020526040812061049f906110a6565b600082815260208190526040902060010154610d1981611049565b61056f8383611078565b8051602081830181018051600982529282019190930120915280546104c990611820565b610d518282610748565b6106dd57600082815260208181526040808320600160a060020a03851684529091529020805460ff19166001179055610d873390565b600160a060020a031681600160a060020a0316837f2f8788117e7eff1d82e926ec794901d17c78024a50270940304540a733656f0d60405160405180910390a45050565b600061074183600160a060020a0384166110b0565b60606000610def8360026118ec565b610dfa90600261190b565b67ffffffffffffffff811115610e1257610e126113c0565b6040519080825280601f01601f191660200182016040528015610e3c576020820181803683370190505b5090507f300000000000000000000000000000000000000000000000000000000000000081600081518110610e7357610e7361185e565b6020010190600160f860020a031916908160001a9053507f780000000000000000000000000000000000000000000000000000000000000081600181518110610ebe57610ebe61185e565b6020010190600160f860020a031916908160001a9053506000610ee28460026118ec565b610eed90600161190b565b90505b6001811115610f90577f303132333435363738396162636465660000000000000000000000000000000085600f1660108110610f2e57610f2e61185e565b1a7f010000000000000000000000000000000000000000000000000000000000000002828281518110610f6357610f6361185e565b6020010190600160f860020a031916908160001a905350601090940493610f8981611923565b9050610ef0565b5083156107415760405160e560020a62461bcd02815260206004820181905260248201527f537472696e67733a20686578206c656e67746820696e73756666696369656e7460448201526064016106ca565b6000600160e060020a031982167f7965db0b00000000000000000000000000000000000000000000000000000000148061049f57507f01ffc9a700000000000000000000000000000000000000000000000000000000600160e060020a031983161461049f565b61105381336110ff565b50565b6110608282610d47565b600082815260016020526040902061056f9082610dcb565b6110828282611166565b600082815260016020526040902061056f90826111cb565b600061074183836111e0565b600061049f825490565b60008181526001830160205260408120546110f75750815460018181018455600084815260208082209093018490558454848252828601909352604090209190915561049f565b50600061049f565b6111098282610748565b6106dd5761112181600160a060020a03166014610de0565b61112c836020610de0565b60405160200161113d92919061193a565b60408051601f198184030181529082905260e560020a62461bcd0282526106ca91600401611513565b6111708282610748565b156106dd57600082815260208181526040808320600160a060020a0385168085529252808320805460ff1916905551339285917ff6391f5c32d9c69d2a47ea670b442974b53935d1edc7fd64eb21e047a839171b9190a45050565b600061074183600160a060020a03841661120a565b60008260000182815481106111f7576111f761185e565b9060005260206000200154905092915050565b600081815260018301602052604081205480156112f357600061122e6001836119bb565b8554909150600090611242906001906119bb565b90508181146112a75760008660000182815481106112625761126261185e565b90600052602060002001549050808760000184815481106112855761128561185e565b6000918252602080832090910192909255918252600188019052604090208390555b85548690806112b8576112b86119d2565b60019003818190600052602060002001600090559055856001016000868152602001908152602001600020600090556001935050505061049f565b600091505061049f565b82805461130990611820565b90600052602060002090601f01602090048101928261132b5760008555611371565b82601f1061134457805160ff1916838001178555611371565b82800160010185558215611371579182015b82811115611371578251825591602001919060010190611356565b5061137d929150611381565b5090565b5b8082111561137d5760008155600101611382565b6000602082840312156113a857600080fd5b8135600160e060020a03198116811461074157600080fd5b60e060020a634e487b7102600052604160045260246000fd5b604051601f8201601f1916810167ffffffffffffffff81118282101715611402576114026113c0565b604052919050565b600082601f83011261141b57600080fd5b813567ffffffffffffffff811115611435576114356113c0565b611448601f8201601f19166020016113d9565b81815284602083860101111561145d57600080fd5b816020850160208301376000918101602001919091529392505050565b60006020828403121561148c57600080fd5b813567ffffffffffffffff8111156114a357600080fd5b6114af8482850161140a565b949350505050565b60005b838110156114d25781810151838201526020016114ba565b838111156114e1576000848401525b50505050565b600081518084526114ff8160208601602086016114b7565b601f01601f19169290920160200192915050565b60208152600061074160208301846114e7565b60006020828403121561153857600080fd5b5035919050565b6000806040838503121561155257600080fd5b823591506020830135600160a060020a038116811461157057600080fd5b809150509250929050565b600060208083018184528085518083526040860191506040848202870101925083870160005b828110156115cf57603f198886030184526115bd8583516114e7565b945092850192908501906001016115a1565b5092979650505050505050565b600080604083850312156115ef57600080fd5b50508035926020909101359150565b600067ffffffffffffffff821115611618576116186113c0565b5060209081020190565b600082601f83011261163357600080fd5b81356020611648611643836115fe565b6113d9565b8281529181028401810191818101908684111561166457600080fd5b8286015b848110156116a457803567ffffffffffffffff8111156116885760008081fd5b6116968986838b010161140a565b845250918301918301611668565b509695505050505050565b6000806000606084860312156116c457600080fd5b833567ffffffffffffffff808211156116dc57600080fd5b6116e887838801611622565b94506020915081860135818111156116ff57600080fd5b61170b88828901611622565b94505060408601358181111561172057600080fd5b86019050601f8101871361173357600080fd5b8035611741611643826115fe565b8181529083028201830190838101908983111561175d57600080fd5b928401925b8284101561178c57833561ffff8116811461177d5760008081fd5b82529284019290840190611762565b80955050505050509250925092565b60006101208083526117af8184018d6114e7565b90508a60000b60208401528960000b60408401528860000b606084015282810360808401526117de81896114e7565b905082810360a08401526117f281886114e7565b905082810360c084015261180681876114e7565b60e084019590955250506101000152979650505050505050565b60028104600182168061183457607f821691505b602082108114156118585760e060020a634e487b7102600052602260045260246000fd5b50919050565b60e060020a634e487b7102600052603260045260246000fd5b600082516118898184602087016114b7565b9190910192915050565b60e060020a634e487b7102600052601160045260246000fd5b60006000198214156118c0576118c0611893565b5060010190565b6000826118e75760e060020a634e487b7102600052601260045260246000fd5b500690565b600081600019048311821515161561190657611906611893565b500290565b6000821982111561191e5761191e611893565b500190565b60008161193257611932611893565b506000190190565b7f416363657373436f6e74726f6c3a206163636f756e74200000000000000000008152600083516119728160178501602088016114b7565b7f206973206d697373696e6720726f6c652000000000000000000000000000000060179184019182015283516119af8160288401602088016114b7565b01602801949350505050565b6000828210156119cd576119cd611893565b500390565b60e060020a634e487b7102600052603160045260246000fdfea2646970667358221220551989d71dd72a2e755243907325e66ca1fc3f04ddb68fc579a5da1ed944a41964736f6c634300080b0033466c79696e672063726561747572657320736f61722061626f766520796f752e20546865792064697665206f7574206f662074686520736b7920616e642061747461636b20796f752e536861646f7773206d6f766520616e64206d6174657269616c697a652e205468697320636f6d6261742069732074726561746564206173206966206974206973206e696768742e20496620697420697320616c7265616479206e696768742c20696e637265617365206e696768742070656e616c747920627920312e5768696c65206578706c6f72696e6720796f75207363617265206177617920612068657264206f66206265617374732e205468652068756e7465727320746861742068617665206265656e20747261636b696e67207468656d20666f722064617973206973206e6f742068617070792061626f757420746869732e20546865792061747461636b20796f752e5769746820612063686f727573206f66207069657263696e672073687269656b732c2062656173747320646563656e642075706f6e20796f752e20546865792061747461636b20796f752e",
  "immutableReferences": {},
  "source": "// SPDX-License-Identifier: GPL-3.0\npragma solidity >=0.7.0 <0.9.0;\n\nimport \"./CardDeck.sol\";\n\ncontract AmbushDeck is CardDeck {\n    constructor() CardDeck() {\n        string[] memory cards = new string[](4);\n        string[] memory descriptions = new string[](4);\n        uint16[] memory quantities = new uint16[](4);\n\n        cards[0] = \"Angry Locals\";\n        descriptions[\n            0\n        ] = \"While exploring you scare away a herd of beasts. The hunters that have been tracking them for days is not happy about this. They attack you.\";\n        quantities[0] = 1;\n\n        cards[1] = \"Shrieking Beasts\";\n        descriptions[\n            1\n        ] = \"With a chorus of piercing shrieks, beasts decend upon you. They attack you.\";\n        quantities[1] = 1;\n\n        cards[2] = \"Winged Beasts\";\n        descriptions[\n            2\n        ] = \"Flying creatures soar above you. They dive out of the sky and attack you.\";\n        quantities[2] = 1;\n\n        cards[3] = \"Shadow Creatures\";\n        descriptions[\n            3\n        ] = \"Shadows move and materialize. This combat is treated as if it is night. If it is already night, increase night penalty by 1.\";\n        quantities[3] = 1;\n\n        // cards[4] = \"Ancient Guardian\";\n        // descriptions[\n        //     4\n        // ] = \"An ancient guardian awakens and attacks you. You cannot escape.\";\n        // quantities[4] = 1;\n\n        // cards[5] = \"Deathbot Activated\";\n        // descriptions[\n        //     5\n        // ] = \"The whirring of machinery. Death to organics. A deathbot attacks you.\";\n        // quantities[5] = 1;\n\n        // cards[6] = \"Clumsy Misstep\";\n        // descriptions[6] = \"You lose your footing and drop an item. \";\n        // quantities[6] = 1;\n\n        // cards[7] = \"Marooned Pirate\";\n        // descriptions[\n        //     7\n        // ] = \"You trip over what you thought was a dead body. Rather it is a Marauder comfortably sleeping off some space rum. He is not happy about that and attacks you.\";\n        // quantities[7] = 1;\n\n        // cards[8] = \"Flesh Eating Insects\";\n        // descriptions[8] = \"Ouch! You start to feel stings all over your body.\";\n        // quantities[8] = 1;\n\n        // cards[9] = \"Ghastly Apparition\";\n        // descriptions[\n        //     9\n        // ] = \"A terrifying feeling chills your bones. You don't take the time to find out what it is.\";\n        // quantities[9] = 1;\n\n        // cards[10] = \"Pit of Spikes\";\n        // descriptions[\n        //     10\n        // ] = \"Before you realize the ground is not solid, you fall into what appears to be an animal trap.\";\n        // quantities[10] = 1;\n\n        // cards[11] = \"Bubbling Ooze\";\n        // descriptions[11] = \"The ground is sticky, you are unable to move.\";\n        // quantities[11] = 1;\n\n        // cards[12] = \"Rock Slide\";\n        // descriptions[12] = \"You hear a rumble, a boulder tumbles toward you.\";\n        // quantities[12] = 1;\n\n        // cards[13] = \"Dark Clouds\";\n        // descriptions[13] = \"The sun is blotted from the sky.\";\n        // quantities[13] = 1;\n\n        // cards[14] = \"Madness\";\n        // descriptions[\n        //     14\n        // ] = \"You hear voices in your head beckoning you to follow them.\";\n        // quantities[14] = 1;\n\n        // cards[15] = \"Fear\";\n        // descriptions[15] = \"You are suddenly struck with inexplicable terror.\";\n        // quantities[15] = 1;\n\n        // cards[16] = \"Meteorite Strike\";\n        // descriptions[\n        //     16\n        // ] = \"A streak of fire smashes into the ground at your feet.\";\n        // quantities[16] = 1;\n\n        // cards[17] = \"Cryo Mine\";\n        // descriptions[\n        //     17\n        // ] = \"As you take a step you hear a click and a beep. Before you can react you hear an explosion.\";\n        // quantities[17] = 1;\n\n        // cards[18] = \"Creeping Vines\";\n        // descriptions[\n        //     18\n        // ] = \"The vegetation around you seems to come alive. It grasps you tightly.\";\n        // quantities[18] = 1;\n\n        // cards[19] = \"Evil Wizard\";\n        // descriptions[\n        //     19\n        // ] = \"A flash and a puff of smoke reveals a cackling mage. He casts a fireball at you before disappearing again.\";\n        // quantities[19] = 1;\n\n        // cards[20] = \"Stone Golem\";\n        // descriptions[\n        //     20\n        // ] = \"A monster made of stone rises from the ground and attacks you.\";\n        // quantities[20] = 1;\n\n        // cards[21] = \"Iron Golem\";\n        // descriptions[\n        //     21\n        // ] = \"A monster made of iron rises from the ground and attacks you.\";\n        // quantities[21] = 1;\n\n        // cards[22] = \"Tungsten Golem\";\n        // descriptions[\n        //     22\n        // ] = \"A monster made of tungsten rises from the ground and attacks you.\";\n        // quantities[22] = 1;\n\n        // cards[23] = \"Plasma Golem\";\n        // descriptions[\n        //     23\n        // ] = \"A monter made of plasma rises from the ground and attacks you.\";\n        // quantities[23] = 1;\n\n        addCards(cards, descriptions, quantities);\n    }\n}\n",
  "sourcePath": "/Users/maxmeier/Developer/Lucky Machines/hexploration/contracts/decks/AmbushDeck.sol",
  "compiler": {
    "name": "solc",
    "version": "0.8.11+commit.d7f03943.Emscripten.clang"
  },
  "schemaVersion": "3.4.4",
  "updatedAt": "2022-05-25T03:09:23.337Z",
  "devdoc": {
    "kind": "dev",
    "methods": {
      "getRoleAdmin(bytes32)": {
        "details": "Returns the admin role that controls `role`. See {grantRole} and {revokeRole}. To change a role's admin, use {_setRoleAdmin}."
      },
      "getRoleMember(bytes32,uint256)": {
        "details": "Returns one of the accounts that have `role`. `index` must be a value between 0 and {getRoleMemberCount}, non-inclusive. Role bearers are not sorted in any particular way, and their ordering may change at any point. WARNING: When using {getRoleMember} and {getRoleMemberCount}, make sure you perform all queries on the same block. See the following https://forum.openzeppelin.com/t/iterating-over-elements-on-enumerableset-in-openzeppelin-contracts/2296[forum post] for more information."
      },
      "getRoleMemberCount(bytes32)": {
        "details": "Returns the number of accounts that have `role`. Can be used together with {getRoleMember} to enumerate all bearers of a role."
      },
      "grantRole(bytes32,address)": {
        "details": "Grants `role` to `account`. If `account` had not been already granted `role`, emits a {RoleGranted} event. Requirements: - the caller must have ``role``'s admin role."
      },
      "hasRole(bytes32,address)": {
        "details": "Returns `true` if `account` has been granted `role`."
      },
      "renounceRole(bytes32,address)": {
        "details": "Revokes `role` from the calling account. Roles are often managed via {grantRole} and {revokeRole}: this function's purpose is to provide a mechanism for accounts to lose their privileges if they are compromised (such as when a trusted device is misplaced). If the calling account had been revoked `role`, emits a {RoleRevoked} event. Requirements: - the caller must be `account`."
      },
      "revokeRole(bytes32,address)": {
        "details": "Revokes `role` from `account`. If `account` had been granted `role`, emits a {RoleRevoked} event. Requirements: - the caller must have ``role``'s admin role."
      },
      "supportsInterface(bytes4)": {
        "details": "See {IERC165-supportsInterface}."
      }
    },
    "version": 1
  },
  "userdoc": {
    "kind": "user",
    "methods": {},
    "version": 1
  }
}