{
  "contractName": "AmbushDeck",
  "abi": [
    {
      "inputs": [],
      "stateMutability": "nonpayable",
      "type": "constructor"
    },
    {
      "anonymous": false,
      "inputs": [
        {
          "indexed": true,
          "internalType": "bytes32",
          "name": "role",
          "type": "bytes32"
        },
        {
          "indexed": true,
          "internalType": "bytes32",
          "name": "previousAdminRole",
          "type": "bytes32"
        },
        {
          "indexed": true,
          "internalType": "bytes32",
          "name": "newAdminRole",
          "type": "bytes32"
        }
      ],
      "name": "RoleAdminChanged",
      "type": "event"
    },
    {
      "anonymous": false,
      "inputs": [
        {
          "indexed": true,
          "internalType": "bytes32",
          "name": "role",
          "type": "bytes32"
        },
        {
          "indexed": true,
          "internalType": "address",
          "name": "account",
          "type": "address"
        },
        {
          "indexed": true,
          "internalType": "address",
          "name": "sender",
          "type": "address"
        }
      ],
      "name": "RoleGranted",
      "type": "event"
    },
    {
      "anonymous": false,
      "inputs": [
        {
          "indexed": true,
          "internalType": "bytes32",
          "name": "role",
          "type": "bytes32"
        },
        {
          "indexed": true,
          "internalType": "address",
          "name": "account",
          "type": "address"
        },
        {
          "indexed": true,
          "internalType": "address",
          "name": "sender",
          "type": "address"
        }
      ],
      "name": "RoleRevoked",
      "type": "event"
    },
    {
      "inputs": [],
      "name": "CONTROLLER_ROLE",
      "outputs": [
        {
          "internalType": "bytes32",
          "name": "",
          "type": "bytes32"
        }
      ],
      "stateMutability": "view",
      "type": "function"
    },
    {
      "inputs": [],
      "name": "DEFAULT_ADMIN_ROLE",
      "outputs": [
        {
          "internalType": "bytes32",
          "name": "",
          "type": "bytes32"
        }
      ],
      "stateMutability": "view",
      "type": "function"
    },
    {
      "inputs": [
        {
          "internalType": "string[]",
          "name": "titles",
          "type": "string[]"
        },
        {
          "internalType": "string[]",
          "name": "descriptions",
          "type": "string[]"
        },
        {
          "internalType": "uint16[]",
          "name": "quantities",
          "type": "uint16[]"
        }
      ],
      "name": "addCards",
      "outputs": [],
      "stateMutability": "nonpayable",
      "type": "function"
    },
    {
      "inputs": [
        {
          "internalType": "string",
          "name": "",
          "type": "string"
        }
      ],
      "name": "description",
      "outputs": [
        {
          "internalType": "string",
          "name": "",
          "type": "string"
        }
      ],
      "stateMutability": "view",
      "type": "function"
    },
    {
      "inputs": [
        {
          "internalType": "uint256",
          "name": "randomWord",
          "type": "uint256"
        }
      ],
      "name": "drawCard",
      "outputs": [
        {
          "internalType": "string",
          "name": "",
          "type": "string"
        }
      ],
      "stateMutability": "view",
      "type": "function"
    },
    {
      "inputs": [],
      "name": "getDeck",
      "outputs": [
        {
          "internalType": "string[]",
          "name": "",
          "type": "string[]"
        }
      ],
      "stateMutability": "view",
      "type": "function"
    },
    {
      "inputs": [
        {
          "internalType": "bytes32",
          "name": "role",
          "type": "bytes32"
        }
      ],
      "name": "getRoleAdmin",
      "outputs": [
        {
          "internalType": "bytes32",
          "name": "",
          "type": "bytes32"
        }
      ],
      "stateMutability": "view",
      "type": "function"
    },
    {
      "inputs": [
        {
          "internalType": "bytes32",
          "name": "role",
          "type": "bytes32"
        },
        {
          "internalType": "uint256",
          "name": "index",
          "type": "uint256"
        }
      ],
      "name": "getRoleMember",
      "outputs": [
        {
          "internalType": "address",
          "name": "",
          "type": "address"
        }
      ],
      "stateMutability": "view",
      "type": "function"
    },
    {
      "inputs": [
        {
          "internalType": "bytes32",
          "name": "role",
          "type": "bytes32"
        }
      ],
      "name": "getRoleMemberCount",
      "outputs": [
        {
          "internalType": "uint256",
          "name": "",
          "type": "uint256"
        }
      ],
      "stateMutability": "view",
      "type": "function"
    },
    {
      "inputs": [
        {
          "internalType": "bytes32",
          "name": "role",
          "type": "bytes32"
        },
        {
          "internalType": "address",
          "name": "account",
          "type": "address"
        }
      ],
      "name": "grantRole",
      "outputs": [],
      "stateMutability": "nonpayable",
      "type": "function"
    },
    {
      "inputs": [
        {
          "internalType": "bytes32",
          "name": "role",
          "type": "bytes32"
        },
        {
          "internalType": "address",
          "name": "account",
          "type": "address"
        }
      ],
      "name": "hasRole",
      "outputs": [
        {
          "internalType": "bool",
          "name": "",
          "type": "bool"
        }
      ],
      "stateMutability": "view",
      "type": "function"
    },
    {
      "inputs": [
        {
          "internalType": "string",
          "name": "",
          "type": "string"
        }
      ],
      "name": "quantity",
      "outputs": [
        {
          "internalType": "uint16",
          "name": "",
          "type": "uint16"
        }
      ],
      "stateMutability": "view",
      "type": "function"
    },
    {
      "inputs": [
        {
          "internalType": "bytes32",
          "name": "role",
          "type": "bytes32"
        },
        {
          "internalType": "address",
          "name": "account",
          "type": "address"
        }
      ],
      "name": "renounceRole",
      "outputs": [],
      "stateMutability": "nonpayable",
      "type": "function"
    },
    {
      "inputs": [
        {
          "internalType": "bytes32",
          "name": "role",
          "type": "bytes32"
        },
        {
          "internalType": "address",
          "name": "account",
          "type": "address"
        }
      ],
      "name": "revokeRole",
      "outputs": [],
      "stateMutability": "nonpayable",
      "type": "function"
    },
    {
      "inputs": [
        {
          "internalType": "bytes4",
          "name": "interfaceId",
          "type": "bytes4"
        }
      ],
      "name": "supportsInterface",
      "outputs": [
        {
          "internalType": "bool",
          "name": "",
          "type": "bool"
        }
      ],
      "stateMutability": "view",
      "type": "function"
    }
  ],
  "bytecode": "0x60806040523480156200001157600080fd5b506200003a60006200002b640100000000620012fb810204565b640100000000620012ff810204565b6040805160188082526103208201909252600091816020015b606081526020019060019003908162000053575050604080516018808252610320820190925291925060009190602082015b60608152602001906001900390816200008557505060408051601880825261032082019092529192506000919060208201610300803683370190505090506040518060400160405280600c81526020017f416e677279204c6f63616c730000000000000000000000000000000000000000815250836000815181106200010f576200010f62001aca565b60200260200101819052506040518060c00160405280608c815260200162003599608c9139826000815181106200014a576200014a62001aca565b60200260200101819052506001816000815181106200016d576200016d62001aca565b602002602001019061ffff16908161ffff16815250506040518060400160405280601081526020017f53687269656b696e67204265617374730000000000000000000000000000000081525083600181518110620001cf57620001cf62001aca565b60200260200101819052506040518060800160405280604b8152602001620037aa604b9139826001815181106200020a576200020a62001aca565b60200260200101819052506001816001815181106200022d576200022d62001aca565b602002602001019061ffff16908161ffff16815250506040518060400160405280600d81526020017f57696e6765642042656173747300000000000000000000000000000000000000815250836002815181106200028f576200028f62001aca565b6020026020010181905250604051806080016040528060498152602001620032ec6049913982600281518110620002ca57620002ca62001aca565b6020026020010181905250600181600281518110620002ed57620002ed62001aca565b602002602001019061ffff16908161ffff16815250506040518060400160405280601081526020017f536861646f772043726561747572657300000000000000000000000000000000815250836003815181106200034f576200034f62001aca565b60200260200101819052506040518060a00160405280607c815260200162003488607c9139826003815181106200038a576200038a62001aca565b6020026020010181905250600181600381518110620003ad57620003ad62001aca565b602002602001019061ffff16908161ffff16815250506040518060400160405280601081526020017f416e6369656e7420477561726469616e00000000000000000000000000000000815250836004815181106200040f576200040f62001aca565b60200260200101819052506040518060600160405280603f8152602001620033a9603f9139826004815181106200044a576200044a62001aca565b60200260200101819052506001816004815181106200046d576200046d62001aca565b602002602001019061ffff16908161ffff16815250506040518060400160405280601281526020017f4465617468626f7420416374697661746564000000000000000000000000000081525083600581518110620004cf57620004cf62001aca565b60200260200101819052506040518060800160405280604581526020016200376560459139826005815181106200050a576200050a62001aca565b60200260200101819052506001816005815181106200052d576200052d62001aca565b602002602001019061ffff16908161ffff16815250506040518060400160405280600e81526020017f436c756d7379204d697373746570000000000000000000000000000000000000815250836006815181106200058f576200058f62001aca565b6020026020010181905250604051806060016040528060288152602001620032c46028913982600681518110620005ca57620005ca62001aca565b6020026020010181905250600181600681518110620005ed57620005ed62001aca565b602002602001019061ffff16908161ffff16815250506040518060400160405280600f81526020017f4d61726f6f6e6564205069726174650000000000000000000000000000000000815250836007815181106200064f576200064f62001aca565b60200260200101819052506040518060c00160405280609c815260200162003652609c9139826007815181106200068a576200068a62001aca565b6020026020010181905250600181600781518110620006ad57620006ad62001aca565b602002602001019061ffff16908161ffff16815250506040518060400160405280601481526020017f466c65736820456174696e6720496e7365637473000000000000000000000000815250836008815181106200070f576200070f62001aca565b60200260200101819052506040518060600160405280603281526020016200329260329139826008815181106200074a576200074a62001aca565b60200260200101819052506001816008815181106200076d576200076d62001aca565b602002602001019061ffff16908161ffff16815250506040518060400160405280601281526020017f47686173746c792041707061726974696f6e000000000000000000000000000081525083600981518110620007cf57620007cf62001aca565b60200260200101819052506040518060800160405280605781526020016200354260579139826009815181106200080a576200080a62001aca565b60200260200101819052506001816009815181106200082d576200082d62001aca565b602002602001019061ffff16908161ffff16815250506040518060400160405280600d81526020017f506974206f66205370696b65730000000000000000000000000000000000000081525083600a815181106200088f576200088f62001aca565b60200260200101819052506040518060800160405280605c815260200162003825605c913982600a81518110620008ca57620008ca62001aca565b6020026020010181905250600181600a81518110620008ed57620008ed62001aca565b602002602001019061ffff16908161ffff16815250506040518060400160405280600d81526020017f427562626c696e67204f6f7a650000000000000000000000000000000000000081525083600b815181106200094f576200094f62001aca565b60200260200101819052506040518060600160405280602d815260200162003625602d913982600b815181106200098a576200098a62001aca565b6020026020010181905250600181600b81518110620009ad57620009ad62001aca565b602002602001019061ffff16908161ffff16815250506040518060400160405280600a81526020017f526f636b20536c6964650000000000000000000000000000000000000000000081525083600c8151811062000a0f5762000a0f62001aca565b6020026020010181905250604051806060016040528060308152602001620037f56030913982600c8151811062000a4a5762000a4a62001aca565b6020026020010181905250600181600c8151811062000a6d5762000a6d62001aca565b602002602001019061ffff16908161ffff16815250506040518060400160405280600b81526020017f4461726b20436c6f75647300000000000000000000000000000000000000000081525083600d8151811062000acf5762000acf62001aca565b60200260200101819052506040518060400160405280602081526020017f5468652073756e20697320626c6f747465642066726f6d2074686520736b792e81525082600d8151811062000b265762000b2662001aca565b6020026020010181905250600181600d8151811062000b495762000b4962001aca565b602002602001019061ffff16908161ffff16815250506040518060400160405280600781526020017f4d61646e6573730000000000000000000000000000000000000000000000000081525083600e8151811062000bab5762000bab62001aca565b60200260200101819052506040518060600160405280603a81526020016200372b603a913982600e8151811062000be65762000be662001aca565b6020026020010181905250600181600e8151811062000c095762000c0962001aca565b602002602001019061ffff16908161ffff16815250506040518060400160405280600481526020017f466561720000000000000000000000000000000000000000000000000000000081525083600f8151811062000c6b5762000c6b62001aca565b6020026020010181905250604051806060016040528060318152602001620032616031913982600f8151811062000ca65762000ca662001aca565b6020026020010181905250600181600f8151811062000cc95762000cc962001aca565b602002602001019061ffff16908161ffff16815250506040518060400160405280601081526020017f4d6574656f7269746520537472696b65000000000000000000000000000000008152508360108151811062000d2b5762000d2b62001aca565b602002602001018190525060405180606001604052806036815260200162003335603691398260108151811062000d665762000d6662001aca565b602002602001018190525060018160108151811062000d895762000d8962001aca565b602002602001019061ffff16908161ffff16815250506040518060400160405280600981526020017f4372796f204d696e6500000000000000000000000000000000000000000000008152508360118151811062000deb5762000deb62001aca565b60200260200101819052506040518060800160405280605b81526020016200342d605b91398260118151811062000e265762000e2662001aca565b602002602001018190525060018160118151811062000e495762000e4962001aca565b602002602001019061ffff16908161ffff16815250506040518060400160405280600e81526020017f4372656570696e672056696e65730000000000000000000000000000000000008152508360128151811062000eab5762000eab62001aca565b6020026020010181905250604051806080016040528060458152602001620033e8604591398260128151811062000ee65762000ee662001aca565b602002602001018190525060018160128151811062000f095762000f0962001aca565b602002602001019061ffff16908161ffff16815250506040518060400160405280600b81526020017f4576696c2057697a6172640000000000000000000000000000000000000000008152508360138151811062000f6b5762000f6b62001aca565b60200260200101819052506040518060a00160405280606a8152602001620031b6606a91398260138151811062000fa65762000fa662001aca565b602002602001018190525060018160138151811062000fc95762000fc962001aca565b602002602001019061ffff16908161ffff16815250506040518060400160405280600b81526020017f53746f6e6520476f6c656d000000000000000000000000000000000000000000815250836014815181106200102b576200102b62001aca565b60200260200101819052506040518060600160405280603e815260200162003504603e91398260148151811062001066576200106662001aca565b602002602001018190525060018160148151811062001089576200108962001aca565b602002602001019061ffff16908161ffff16815250506040518060400160405280600a81526020017f49726f6e20476f6c656d0000000000000000000000000000000000000000000081525083601581518110620010eb57620010eb62001aca565b60200260200101819052506040518060600160405280603d8152602001620036ee603d91398260158151811062001126576200112662001aca565b602002602001018190525060018160158151811062001149576200114962001aca565b602002602001019061ffff16908161ffff16815250506040518060400160405280600e81526020017f54756e677374656e20476f6c656d00000000000000000000000000000000000081525083601681518110620011ab57620011ab62001aca565b6020026020010181905250604051806080016040528060418152602001620032206041913982601681518110620011e657620011e662001aca565b602002602001018190525060018160168151811062001209576200120962001aca565b602002602001019061ffff16908161ffff16815250506040518060400160405280600c81526020017f506c61736d6120476f6c656d0000000000000000000000000000000000000000815250836017815181106200126b576200126b62001aca565b60200260200101819052506040518060600160405280603e81526020016200336b603e913982601781518110620012a657620012a662001aca565b6020026020010181905250600181601781518110620012c957620012c962001aca565b61ffff90921660209283029190910190910152620012f283838364010000000062001318810204565b50505062001cfe565b3390565b62001314828264010000000062001541810204565b5050565b60006200132e8164010000000062001588810204565b8251845114801562001341575081518451145b620013ad576040517f08c379a000000000000000000000000000000000000000000000000000000000815260206004820152601760248201527f6172726179207175616e74697479206d69736d6174636800000000000000000060448201526064015b60405180910390fd5b60005b84518110156200153a576000858281518110620013d157620013d162001aca565b60200260200101519050600481604051620013ed919062001b2c565b9081526040519081900360200190205461ffff161580156200143057508382815181106200141f576200141f62001aca565b602002602001015161ffff16600014155b1562001524576002805460018101825560009190915281516200147b917f405787fa12a823e0f2b7631cc41b3ba8828b3321ca811111fa75cd3aa3bb5ace01906020840190620019f5565b5084828151811062001491576200149162001aca565b6020026020010151600382604051620014ab919062001b2c565b90815260200160405180910390209080519060200190620014ce929190620019f5565b50838281518110620014e457620014e462001aca565b6020026020010151600482604051620014fe919062001b2c565b908152604051908190036020019020805461ffff9290921661ffff199092169190911790555b5080620015318162001b79565b915050620013b0565b5050505050565b6200155b828264010000000062000853620015b282021704565b6000828152600160205260409020620015839082640100000000620008d76200164e82021704565b505050565b620015af81620015a0640100000000620012fb810204565b64010000000062001677810204565b50565b620015c7828264010000000062001725810204565b6200131457600082815260208181526040808320600160a060020a03851684529091529020805460ff191660011790556200160a640100000000620012fb810204565b600160a060020a031681600160a060020a0316837f2f8788117e7eff1d82e926ec794901d17c78024a50270940304540a733656f0d60405160405180910390a45050565b60006200166e83600160a060020a0384166401000000006200174e810204565b90505b92915050565b6200168c828264010000000062001725810204565b6200131457620016b5600160a060020a0382166014640100000000620008ec620017a682021704565b620016d0836020640100000000620008ec620017a682021704565b604051602001620016e392919062001b97565b60408051601f19818403018152908290527f08c379a0000000000000000000000000000000000000000000000000000000008252620013a49160040162001c1c565b600091825260208281526040808420600160a060020a0393909316845291905290205460ff1690565b6000620017658383640100000000620019dd810204565b6200179d5750815460018181018455600084815260208082209093018490558454848252828601909352604090209190915562001671565b50600062001671565b60606000620017b783600262001c51565b620017c490600262001c73565b67ffffffffffffffff811115620017df57620017df62001a9b565b6040519080825280601f01601f1916602001820160405280156200180a576020820181803683370190505b5090507f30000000000000000000000000000000000000000000000000000000000000008160008151811062001844576200184462001aca565b6020010190600160f860020a031916908160001a9053507f78000000000000000000000000000000000000000000000000000000000000008160018151811062001892576200189262001aca565b6020010190600160f860020a031916908160001a9053506000620018b884600262001c51565b620018c590600162001c73565b90505b600181111562001972577f303132333435363738396162636465660000000000000000000000000000000085600f16601081106200190a576200190a62001aca565b1a7f01000000000000000000000000000000000000000000000000000000000000000282828151811062001942576200194262001aca565b6020010190600160f860020a031916908160001a9053506010909404936200196a8162001c8e565b9050620018c8565b5083156200166e576040517f08c379a000000000000000000000000000000000000000000000000000000000815260206004820181905260248201527f537472696e67733a20686578206c656e67746820696e73756666696369656e746044820152606401620013a4565b60009081526001919091016020526040902054151590565b82805462001a039062001ca8565b90600052602060002090601f01602090048101928262001a27576000855562001a72565b82601f1062001a4257805160ff191683800117855562001a72565b8280016001018555821562001a72579182015b8281111562001a7257825182559160200191906001019062001a55565b5062001a8092915062001a84565b5090565b5b8082111562001a80576000815560010162001a85565b7f4e487b7100000000000000000000000000000000000000000000000000000000600052604160045260246000fd5b7f4e487b7100000000000000000000000000000000000000000000000000000000600052603260045260246000fd5b60005b8381101562001b1657818101518382015260200162001afc565b8381111562001b26576000848401525b50505050565b6000825162001b4081846020870162001af9565b9190910192915050565b7f4e487b7100000000000000000000000000000000000000000000000000000000600052601160045260246000fd5b600060001982141562001b905762001b9062001b4a565b5060010190565b7f416363657373436f6e74726f6c3a206163636f756e742000000000000000000081526000835162001bd181601785016020880162001af9565b7f206973206d697373696e6720726f6c6520000000000000000000000000000000601791840191820152835162001c1081602884016020880162001af9565b01602801949350505050565b602081526000825180602084015262001c3d81604085016020870162001af9565b601f01601f19169190910160400192915050565b600081600019048311821515161562001c6e5762001c6e62001b4a565b500290565b6000821982111562001c895762001c8962001b4a565b500190565b60008162001ca05762001ca062001b4a565b506000190190565b60028104600182168062001cbd57607f821691505b6020821081141562001cf8577f4e487b7100000000000000000000000000000000000000000000000000000000600052602260045260246000fd5b50919050565b6114a88062001d0e6000396000f3fe608060405234801561001057600080fd5b50600436106100f2576000357c01000000000000000000000000000000000000000000000000000000009004806388255199116100a457806388255199146101f65780639010d07c1461021657806391d1485414610241578063a217fddf14610254578063a855d6f91461025c578063b6aa4ed61461026f578063ca15c87314610282578063d547741f1461029557600080fd5b806301ffc9a7146100f7578063092c5b3b1461011f578063248a9ca3146101545780632f2ff15d14610177578063339434741461018c57806336568abe146101a157806381ecfce8146101b4575b600080fd5b61010a610105366004610ea2565b6102a8565b60405190151581526020015b60405180910390f35b6101467f7b765e0e932d348852a6f810bfa1ab891e259123f02db8cdcde614c57022335781565b604051908152602001610116565b610146610162366004610ecc565b60009081526020819052604090206001015490565b61018a610185366004610ee5565b6102ec565b005b610194610316565b6040516101169190610f7d565b61018a6101af366004610ee5565b6103ef565b6101e36101c2366004611098565b805160208183018101805160048252928201919093012091525461ffff1681565b60405161ffff9091168152602001610116565b610209610204366004611098565b610483565b60405161011691906110d5565b6102296102243660046110e8565b610528565b604051600160a060020a039091168152602001610116565b61010a61024f366004610ee5565b610547565b610146600081565b61018a61026a3660046111bb565b610570565b61020961027d366004610ecc565b610754565b610146610290366004610ecc565b610817565b61018a6102a3366004610ee5565b61082e565b6000600160e060020a031982167f5a05180f0000000000000000000000000000000000000000000000000000000014806102e657506102e682610aee565b92915050565b60008281526020819052604090206001015461030781610b55565b6103118383610b62565b505050565b60606002805480602002602001604051908101604052809291908181526020016000905b828210156103e6578382906000526020600020018054610359906112a7565b80601f0160208091040260200160405190810160405280929190818152602001828054610385906112a7565b80156103d25780601f106103a7576101008083540402835291602001916103d2565b820191906000526020600020905b8154815290600101906020018083116103b557829003601f168201915b50505050508152602001906001019061033a565b50505050905090565b600160a060020a03811633146104755760405160e560020a62461bcd02815260206004820152602f60248201527f416363657373436f6e74726f6c3a2063616e206f6e6c792072656e6f756e636560448201527f20726f6c657320666f722073656c66000000000000000000000000000000000060648201526084015b60405180910390fd5b61047f8282610b84565b5050565b8051602081830181018051600382529282019190930120915280546104a7906112a7565b80601f01602080910402602001604051908101604052809291908181526020018280546104d3906112a7565b80156105205780601f106104f557610100808354040283529160200191610520565b820191906000526020600020905b81548152906001019060200180831161050357829003601f168201915b505050505081565b60008281526001602052604081206105409083610ba6565b9392505050565b600091825260208281526040808420600160a060020a0393909316845291905290205460ff1690565b600061057b81610b55565b8251845114801561058d575081518451145b6105dc5760405160e560020a62461bcd02815260206004820152601760248201527f6172726179207175616e74697479206d69736d61746368000000000000000000604482015260640161046c565b60005b845181101561074d5760008582815181106105fc576105fc6112e5565b6020026020010151905060048160405161061691906112fe565b9081526040519081900360200190205461ffff161580156106555750838281518110610644576106446112e5565b602002602001015161ffff16600014155b1561073a5760028054600181018255600091909152815161069d917f405787fa12a823e0f2b7631cc41b3ba8828b3321ca811111fa75cd3aa3bb5ace01906020840190610e09565b508482815181106106b0576106b06112e5565b60200260200101516003826040516106c891906112fe565b908152602001604051809103902090805190602001906106e9929190610e09565b508382815181106106fc576106fc6112e5565b602002602001015160048260405161071491906112fe565b908152604051908190036020019020805461ffff9290921661ffff199092169190911790555b508061074581611333565b9150506105df565b5050505050565b600254606090600090610767908461134e565b90506002818154811061077c5761077c6112e5565b906000526020600020018054610791906112a7565b80601f01602080910402602001604051908101604052809291908181526020018280546107bd906112a7565b801561080a5780601f106107df5761010080835404028352916020019161080a565b820191906000526020600020905b8154815290600101906020018083116107ed57829003601f168201915b5050505050915050919050565b60008181526001602052604081206102e690610bb2565b60008281526020819052604090206001015461084981610b55565b6103118383610b84565b61085d8282610547565b61047f57600082815260208181526040808320600160a060020a03851684529091529020805460ff191660011790556108933390565b600160a060020a031681600160a060020a0316837f2f8788117e7eff1d82e926ec794901d17c78024a50270940304540a733656f0d60405160405180910390a45050565b600061054083600160a060020a038416610bbc565b606060006108fb836002611373565b610906906002611392565b67ffffffffffffffff81111561091e5761091e610fde565b6040519080825280601f01601f191660200182016040528015610948576020820181803683370190505b5090507f30000000000000000000000000000000000000000000000000000000000000008160008151811061097f5761097f6112e5565b6020010190600160f860020a031916908160001a9053507f7800000000000000000000000000000000000000000000000000000000000000816001815181106109ca576109ca6112e5565b6020010190600160f860020a031916908160001a90535060006109ee846002611373565b6109f9906001611392565b90505b6001811115610a9c577f303132333435363738396162636465660000000000000000000000000000000085600f1660108110610a3a57610a3a6112e5565b1a7f010000000000000000000000000000000000000000000000000000000000000002828281518110610a6f57610a6f6112e5565b6020010190600160f860020a031916908160001a905350601090940493610a95816113aa565b90506109fc565b5083156105405760405160e560020a62461bcd02815260206004820181905260248201527f537472696e67733a20686578206c656e67746820696e73756666696369656e74604482015260640161046c565b6000600160e060020a031982167f7965db0b0000000000000000000000000000000000000000000000000000000014806102e657507f01ffc9a700000000000000000000000000000000000000000000000000000000600160e060020a03198316146102e6565b610b5f8133610c0b565b50565b610b6c8282610853565b600082815260016020526040902061031190826108d7565b610b8e8282610c72565b60008281526001602052604090206103119082610cd7565b60006105408383610cec565b60006102e6825490565b6000818152600183016020526040812054610c03575081546001818101845560008481526020808220909301849055845484825282860190935260409020919091556102e6565b5060006102e6565b610c158282610547565b61047f57610c2d81600160a060020a031660146108ec565b610c388360206108ec565b604051602001610c499291906113c1565b60408051601f198184030181529082905260e560020a62461bcd02825261046c916004016110d5565b610c7c8282610547565b1561047f57600082815260208181526040808320600160a060020a0385168085529252808320805460ff1916905551339285917ff6391f5c32d9c69d2a47ea670b442974b53935d1edc7fd64eb21e047a839171b9190a45050565b600061054083600160a060020a038416610d16565b6000826000018281548110610d0357610d036112e5565b9060005260206000200154905092915050565b60008181526001830160205260408120548015610dff576000610d3a600183611442565b8554909150600090610d4e90600190611442565b9050818114610db3576000866000018281548110610d6e57610d6e6112e5565b9060005260206000200154905080876000018481548110610d9157610d916112e5565b6000918252602080832090910192909255918252600188019052604090208390555b8554869080610dc457610dc4611459565b6001900381819060005260206000200160009055905585600101600086815260200190815260200160002060009055600193505050506102e6565b60009150506102e6565b828054610e15906112a7565b90600052602060002090601f016020900481019282610e375760008555610e7d565b82601f10610e5057805160ff1916838001178555610e7d565b82800160010185558215610e7d579182015b82811115610e7d578251825591602001919060010190610e62565b50610e89929150610e8d565b5090565b5b80821115610e895760008155600101610e8e565b600060208284031215610eb457600080fd5b8135600160e060020a03198116811461054057600080fd5b600060208284031215610ede57600080fd5b5035919050565b60008060408385031215610ef857600080fd5b823591506020830135600160a060020a0381168114610f1657600080fd5b809150509250929050565b60005b83811015610f3c578181015183820152602001610f24565b83811115610f4b576000848401525b50505050565b60008151808452610f69816020860160208601610f21565b601f01601f19169290920160200192915050565b600060208083018184528085518083526040860191506040848202870101925083870160005b82811015610fd157603f19888603018452610fbf858351610f51565b94509285019290850190600101610fa3565b5092979650505050505050565b60e060020a634e487b7102600052604160045260246000fd5b604051601f8201601f1916810167ffffffffffffffff8111828210171561102057611020610fde565b604052919050565b600082601f83011261103957600080fd5b813567ffffffffffffffff81111561105357611053610fde565b611066601f8201601f1916602001610ff7565b81815284602083860101111561107b57600080fd5b816020850160208301376000918101602001919091529392505050565b6000602082840312156110aa57600080fd5b813567ffffffffffffffff8111156110c157600080fd5b6110cd84828501611028565b949350505050565b6020815260006105406020830184610f51565b600080604083850312156110fb57600080fd5b50508035926020909101359150565b600067ffffffffffffffff82111561112457611124610fde565b5060209081020190565b600082601f83011261113f57600080fd5b8135602061115461114f8361110a565b610ff7565b8281529181028401810191818101908684111561117057600080fd5b8286015b848110156111b057803567ffffffffffffffff8111156111945760008081fd5b6111a28986838b0101611028565b845250918301918301611174565b509695505050505050565b6000806000606084860312156111d057600080fd5b833567ffffffffffffffff808211156111e857600080fd5b6111f48783880161112e565b945060209150818601358181111561120b57600080fd5b6112178882890161112e565b94505060408601358181111561122c57600080fd5b86019050601f8101871361123f57600080fd5b803561124d61114f8261110a565b8181529083028201830190838101908983111561126957600080fd5b928401925b8284101561129857833561ffff811681146112895760008081fd5b8252928401929084019061126e565b80955050505050509250925092565b6002810460018216806112bb57607f821691505b602082108114156112df5760e060020a634e487b7102600052602260045260246000fd5b50919050565b60e060020a634e487b7102600052603260045260246000fd5b60008251611310818460208701610f21565b9190910192915050565b60e060020a634e487b7102600052601160045260246000fd5b60006000198214156113475761134761131a565b5060010190565b60008261136e5760e060020a634e487b7102600052601260045260246000fd5b500690565b600081600019048311821515161561138d5761138d61131a565b500290565b600082198211156113a5576113a561131a565b500190565b6000816113b9576113b961131a565b506000190190565b7f416363657373436f6e74726f6c3a206163636f756e74200000000000000000008152600083516113f9816017850160208801610f21565b7f206973206d697373696e6720726f6c65200000000000000000000000000000006017918401918201528351611436816028840160208801610f21565b01602801949350505050565b6000828210156114545761145461131a565b500390565b60e060020a634e487b7102600052603160045260246000fdfea26469706673582212206748e1efb497a92b7090982ef2975d7996d87a442a86b044fc87d6357f3ea7fe64736f6c634300080b00334120666c61736820616e6420612070756666206f6620736d6f6b652072657665616c732061206361636b6c696e67206d6167652e2048652063617374732061206669726562616c6c20617420796f75206265666f726520646973617070656172696e6720616761696e2e41206d6f6e73746572206d616465206f662074756e677374656e2072697365732066726f6d207468652067726f756e6420616e642061747461636b7320796f752e596f75206172652073756464656e6c792073747275636b207769746820696e6578706c696361626c6520746572726f722e4f7563682120596f7520737461727420746f206665656c207374696e677320616c6c206f76657220796f757220626f64792e596f75206c6f736520796f757220666f6f74696e6720616e642064726f7020616e206974656d2e20466c79696e672063726561747572657320736f61722061626f766520796f752e20546865792064697665206f7574206f662074686520736b7920616e642061747461636b20796f752e412073747265616b206f66206669726520736d617368657320696e746f207468652067726f756e6420617420796f757220666565742e41206d6f6e746572206d616465206f6620706c61736d612072697365732066726f6d207468652067726f756e6420616e642061747461636b7320796f752e416e20616e6369656e7420677561726469616e206177616b656e7320616e642061747461636b7320796f752e20596f752063616e6e6f74206573636170652e5468652076656765746174696f6e2061726f756e6420796f75207365656d7320746f20636f6d6520616c6976652e2049742067726173707320796f752074696768746c792e417320796f752074616b652061207374657020796f752068656172206120636c69636b20616e64206120626565702e204265666f726520796f752063616e20726561637420796f75206865617220616e206578706c6f73696f6e2e536861646f7773206d6f766520616e64206d6174657269616c697a652e205468697320636f6d6261742069732074726561746564206173206966206974206973206e696768742e20496620697420697320616c7265616479206e696768742c20696e637265617365206e696768742070656e616c747920627920312e41206d6f6e73746572206d616465206f662073746f6e652072697365732066726f6d207468652067726f756e6420616e642061747461636b7320796f752e412074657272696679696e67206665656c696e67206368696c6c7320796f757220626f6e65732e20596f7520646f6e27742074616b65207468652074696d6520746f2066696e64206f757420776861742069742069732e5768696c65206578706c6f72696e6720796f75207363617265206177617920612068657264206f66206265617374732e205468652068756e7465727320746861742068617665206265656e20747261636b696e67207468656d20666f722064617973206973206e6f742068617070792061626f757420746869732e20546865792061747461636b20796f752e5468652067726f756e6420697320737469636b792c20796f752061726520756e61626c6520746f206d6f76652e596f752074726970206f766572207768617420796f752074686f75676874207761732061206465616420626f64792e205261746865722069742069732061204d6172617564657220636f6d666f727461626c7920736c656570696e67206f666620736f6d652073706163652072756d2e204865206973206e6f742068617070792061626f7574207468617420616e642061747461636b7320796f752e41206d6f6e73746572206d616465206f662069726f6e2072697365732066726f6d207468652067726f756e6420616e642061747461636b7320796f752e596f75206865617220766f6963657320696e20796f75722068656164206265636b6f6e696e6720796f7520746f20666f6c6c6f77207468656d2e546865207768697272696e67206f66206d616368696e6572792e20446561746820746f206f7267616e6963732e2041206465617468626f742061747461636b7320796f752e5769746820612063686f727573206f66207069657263696e672073687269656b732c2062656173747320646563656e642075706f6e20796f752e20546865792061747461636b20796f752e596f75206865617220612072756d626c652c206120626f756c6465722074756d626c657320746f7761726420796f752e4265666f726520796f75207265616c697a65207468652067726f756e64206973206e6f7420736f6c69642c20796f752066616c6c20696e746f2077686174206170706561727320746f20626520616e20616e696d616c20747261702e",
  "immutableReferences": {},
  "source": "// SPDX-License-Identifier: GPL-3.0\npragma solidity >=0.7.0 <0.9.0;\n\nimport \"./CardDeck.sol\";\n\ncontract AmbushDeck is CardDeck {\n    constructor() CardDeck() {\n        string[] memory cards = new string[](24);\n        string[] memory descriptions = new string[](24);\n        uint16[] memory quantities = new uint16[](24);\n\n        cards[0] = \"Angry Locals\";\n        descriptions[\n            0\n        ] = \"While exploring you scare away a herd of beasts. The hunters that have been tracking them for days is not happy about this. They attack you.\";\n        quantities[0] = 1;\n\n        cards[1] = \"Shrieking Beasts\";\n        descriptions[\n            1\n        ] = \"With a chorus of piercing shrieks, beasts decend upon you. They attack you.\";\n        quantities[1] = 1;\n\n        cards[2] = \"Winged Beasts\";\n        descriptions[\n            2\n        ] = \"Flying creatures soar above you. They dive out of the sky and attack you.\";\n        quantities[2] = 1;\n\n        cards[3] = \"Shadow Creatures\";\n        descriptions[\n            3\n        ] = \"Shadows move and materialize. This combat is treated as if it is night. If it is already night, increase night penalty by 1.\";\n        quantities[3] = 1;\n\n        cards[4] = \"Ancient Guardian\";\n        descriptions[\n            4\n        ] = \"An ancient guardian awakens and attacks you. You cannot escape.\";\n        quantities[4] = 1;\n\n        cards[5] = \"Deathbot Activated\";\n        descriptions[\n            5\n        ] = \"The whirring of machinery. Death to organics. A deathbot attacks you.\";\n        quantities[5] = 1;\n\n        cards[6] = \"Clumsy Misstep\";\n        descriptions[6] = \"You lose your footing and drop an item. \";\n        quantities[6] = 1;\n\n        cards[7] = \"Marooned Pirate\";\n        descriptions[\n            7\n        ] = \"You trip over what you thought was a dead body. Rather it is a Marauder comfortably sleeping off some space rum. He is not happy about that and attacks you.\";\n        quantities[7] = 1;\n\n        cards[8] = \"Flesh Eating Insects\";\n        descriptions[8] = \"Ouch! You start to feel stings all over your body.\";\n        quantities[8] = 1;\n\n        cards[9] = \"Ghastly Apparition\";\n        descriptions[\n            9\n        ] = \"A terrifying feeling chills your bones. You don't take the time to find out what it is.\";\n        quantities[9] = 1;\n\n        cards[10] = \"Pit of Spikes\";\n        descriptions[\n            10\n        ] = \"Before you realize the ground is not solid, you fall into what appears to be an animal trap.\";\n        quantities[10] = 1;\n\n        cards[11] = \"Bubbling Ooze\";\n        descriptions[11] = \"The ground is sticky, you are unable to move.\";\n        quantities[11] = 1;\n\n        cards[12] = \"Rock Slide\";\n        descriptions[12] = \"You hear a rumble, a boulder tumbles toward you.\";\n        quantities[12] = 1;\n\n        cards[13] = \"Dark Clouds\";\n        descriptions[13] = \"The sun is blotted from the sky.\";\n        quantities[13] = 1;\n\n        cards[14] = \"Madness\";\n        descriptions[\n            14\n        ] = \"You hear voices in your head beckoning you to follow them.\";\n        quantities[14] = 1;\n\n        cards[15] = \"Fear\";\n        descriptions[15] = \"You are suddenly struck with inexplicable terror.\";\n        quantities[15] = 1;\n\n        cards[16] = \"Meteorite Strike\";\n        descriptions[\n            16\n        ] = \"A streak of fire smashes into the ground at your feet.\";\n        quantities[16] = 1;\n\n        cards[17] = \"Cryo Mine\";\n        descriptions[\n            17\n        ] = \"As you take a step you hear a click and a beep. Before you can react you hear an explosion.\";\n        quantities[17] = 1;\n\n        cards[18] = \"Creeping Vines\";\n        descriptions[\n            18\n        ] = \"The vegetation around you seems to come alive. It grasps you tightly.\";\n        quantities[18] = 1;\n\n        cards[19] = \"Evil Wizard\";\n        descriptions[\n            19\n        ] = \"A flash and a puff of smoke reveals a cackling mage. He casts a fireball at you before disappearing again.\";\n        quantities[19] = 1;\n\n        cards[20] = \"Stone Golem\";\n        descriptions[\n            20\n        ] = \"A monster made of stone rises from the ground and attacks you.\";\n        quantities[20] = 1;\n\n        cards[21] = \"Iron Golem\";\n        descriptions[\n            21\n        ] = \"A monster made of iron rises from the ground and attacks you.\";\n        quantities[21] = 1;\n\n        cards[22] = \"Tungsten Golem\";\n        descriptions[\n            22\n        ] = \"A monster made of tungsten rises from the ground and attacks you.\";\n        quantities[22] = 1;\n\n        cards[23] = \"Plasma Golem\";\n        descriptions[\n            23\n        ] = \"A monter made of plasma rises from the ground and attacks you.\";\n        quantities[23] = 1;\n\n        addCards(cards, descriptions, quantities);\n    }\n}\n",
  "sourcePath": "/Users/maxmeier/Developer/Lucky Machines/hexploration/contracts/decks/AmbushDeck.sol",
  "compiler": {
    "name": "solc",
    "version": "0.8.11+commit.d7f03943.Emscripten.clang"
  },
  "schemaVersion": "3.4.4",
  "updatedAt": "2022-05-24T19:11:42.812Z",
  "devdoc": {
    "kind": "dev",
    "methods": {
      "getRoleAdmin(bytes32)": {
        "details": "Returns the admin role that controls `role`. See {grantRole} and {revokeRole}. To change a role's admin, use {_setRoleAdmin}."
      },
      "getRoleMember(bytes32,uint256)": {
        "details": "Returns one of the accounts that have `role`. `index` must be a value between 0 and {getRoleMemberCount}, non-inclusive. Role bearers are not sorted in any particular way, and their ordering may change at any point. WARNING: When using {getRoleMember} and {getRoleMemberCount}, make sure you perform all queries on the same block. See the following https://forum.openzeppelin.com/t/iterating-over-elements-on-enumerableset-in-openzeppelin-contracts/2296[forum post] for more information."
      },
      "getRoleMemberCount(bytes32)": {
        "details": "Returns the number of accounts that have `role`. Can be used together with {getRoleMember} to enumerate all bearers of a role."
      },
      "grantRole(bytes32,address)": {
        "details": "Grants `role` to `account`. If `account` had not been already granted `role`, emits a {RoleGranted} event. Requirements: - the caller must have ``role``'s admin role."
      },
      "hasRole(bytes32,address)": {
        "details": "Returns `true` if `account` has been granted `role`."
      },
      "renounceRole(bytes32,address)": {
        "details": "Revokes `role` from the calling account. Roles are often managed via {grantRole} and {revokeRole}: this function's purpose is to provide a mechanism for accounts to lose their privileges if they are compromised (such as when a trusted device is misplaced). If the calling account had been revoked `role`, emits a {RoleRevoked} event. Requirements: - the caller must be `account`."
      },
      "revokeRole(bytes32,address)": {
        "details": "Revokes `role` from `account`. If `account` had been granted `role`, emits a {RoleRevoked} event. Requirements: - the caller must have ``role``'s admin role."
      },
      "supportsInterface(bytes4)": {
        "details": "See {IERC165-supportsInterface}."
      }
    },
    "version": 1
  },
  "userdoc": {
    "kind": "user",
    "methods": {},
    "version": 1
  }
}