{
  "contractName": "AmbushDeck",
  "abi": [
    {
      "inputs": [],
      "stateMutability": "nonpayable",
      "type": "constructor"
    },
    {
      "anonymous": false,
      "inputs": [
        {
          "indexed": true,
          "internalType": "bytes32",
          "name": "role",
          "type": "bytes32"
        },
        {
          "indexed": true,
          "internalType": "bytes32",
          "name": "previousAdminRole",
          "type": "bytes32"
        },
        {
          "indexed": true,
          "internalType": "bytes32",
          "name": "newAdminRole",
          "type": "bytes32"
        }
      ],
      "name": "RoleAdminChanged",
      "type": "event"
    },
    {
      "anonymous": false,
      "inputs": [
        {
          "indexed": true,
          "internalType": "bytes32",
          "name": "role",
          "type": "bytes32"
        },
        {
          "indexed": true,
          "internalType": "address",
          "name": "account",
          "type": "address"
        },
        {
          "indexed": true,
          "internalType": "address",
          "name": "sender",
          "type": "address"
        }
      ],
      "name": "RoleGranted",
      "type": "event"
    },
    {
      "anonymous": false,
      "inputs": [
        {
          "indexed": true,
          "internalType": "bytes32",
          "name": "role",
          "type": "bytes32"
        },
        {
          "indexed": true,
          "internalType": "address",
          "name": "account",
          "type": "address"
        },
        {
          "indexed": true,
          "internalType": "address",
          "name": "sender",
          "type": "address"
        }
      ],
      "name": "RoleRevoked",
      "type": "event"
    },
    {
      "inputs": [],
      "name": "CONTROLLER_ROLE",
      "outputs": [
        {
          "internalType": "bytes32",
          "name": "",
          "type": "bytes32"
        }
      ],
      "stateMutability": "view",
      "type": "function",
      "constant": true
    },
    {
      "inputs": [],
      "name": "DEFAULT_ADMIN_ROLE",
      "outputs": [
        {
          "internalType": "bytes32",
          "name": "",
          "type": "bytes32"
        }
      ],
      "stateMutability": "view",
      "type": "function",
      "constant": true
    },
    {
      "inputs": [
        {
          "internalType": "string[]",
          "name": "titles",
          "type": "string[]"
        },
        {
          "internalType": "string[]",
          "name": "descriptions",
          "type": "string[]"
        },
        {
          "internalType": "uint16[]",
          "name": "quantities",
          "type": "uint16[]"
        }
      ],
      "name": "addCards",
      "outputs": [],
      "stateMutability": "nonpayable",
      "type": "function"
    },
    {
      "inputs": [
        {
          "internalType": "string",
          "name": "",
          "type": "string"
        },
        {
          "internalType": "uint256",
          "name": "",
          "type": "uint256"
        }
      ],
      "name": "agilityAdjust",
      "outputs": [
        {
          "internalType": "int8",
          "name": "",
          "type": "int8"
        }
      ],
      "stateMutability": "view",
      "type": "function",
      "constant": true
    },
    {
      "inputs": [
        {
          "internalType": "string",
          "name": "",
          "type": "string"
        }
      ],
      "name": "description",
      "outputs": [
        {
          "internalType": "string",
          "name": "",
          "type": "string"
        }
      ],
      "stateMutability": "view",
      "type": "function",
      "constant": true
    },
    {
      "inputs": [
        {
          "internalType": "string",
          "name": "",
          "type": "string"
        },
        {
          "internalType": "uint256",
          "name": "",
          "type": "uint256"
        }
      ],
      "name": "dexterityAdjust",
      "outputs": [
        {
          "internalType": "int8",
          "name": "",
          "type": "int8"
        }
      ],
      "stateMutability": "view",
      "type": "function",
      "constant": true
    },
    {
      "inputs": [
        {
          "internalType": "uint256",
          "name": "randomWord",
          "type": "uint256"
        },
        {
          "internalType": "uint256[3]",
          "name": "rollValues",
          "type": "uint256[3]"
        }
      ],
      "name": "drawCard",
      "outputs": [
        {
          "internalType": "string",
          "name": "",
          "type": "string"
        },
        {
          "internalType": "int8",
          "name": "",
          "type": "int8"
        },
        {
          "internalType": "int8",
          "name": "",
          "type": "int8"
        },
        {
          "internalType": "int8",
          "name": "",
          "type": "int8"
        },
        {
          "internalType": "string",
          "name": "",
          "type": "string"
        },
        {
          "internalType": "string",
          "name": "",
          "type": "string"
        },
        {
          "internalType": "string",
          "name": "",
          "type": "string"
        },
        {
          "internalType": "int256",
          "name": "",
          "type": "int256"
        },
        {
          "internalType": "int256",
          "name": "",
          "type": "int256"
        }
      ],
      "stateMutability": "view",
      "type": "function",
      "constant": true
    },
    {
      "inputs": [],
      "name": "getDeck",
      "outputs": [
        {
          "internalType": "string[]",
          "name": "",
          "type": "string[]"
        }
      ],
      "stateMutability": "view",
      "type": "function",
      "constant": true
    },
    {
      "inputs": [
        {
          "internalType": "bytes32",
          "name": "role",
          "type": "bytes32"
        }
      ],
      "name": "getRoleAdmin",
      "outputs": [
        {
          "internalType": "bytes32",
          "name": "",
          "type": "bytes32"
        }
      ],
      "stateMutability": "view",
      "type": "function",
      "constant": true
    },
    {
      "inputs": [
        {
          "internalType": "bytes32",
          "name": "role",
          "type": "bytes32"
        },
        {
          "internalType": "uint256",
          "name": "index",
          "type": "uint256"
        }
      ],
      "name": "getRoleMember",
      "outputs": [
        {
          "internalType": "address",
          "name": "",
          "type": "address"
        }
      ],
      "stateMutability": "view",
      "type": "function",
      "constant": true
    },
    {
      "inputs": [
        {
          "internalType": "bytes32",
          "name": "role",
          "type": "bytes32"
        }
      ],
      "name": "getRoleMemberCount",
      "outputs": [
        {
          "internalType": "uint256",
          "name": "",
          "type": "uint256"
        }
      ],
      "stateMutability": "view",
      "type": "function",
      "constant": true
    },
    {
      "inputs": [
        {
          "internalType": "bytes32",
          "name": "role",
          "type": "bytes32"
        },
        {
          "internalType": "address",
          "name": "account",
          "type": "address"
        }
      ],
      "name": "grantRole",
      "outputs": [],
      "stateMutability": "nonpayable",
      "type": "function"
    },
    {
      "inputs": [
        {
          "internalType": "string",
          "name": "",
          "type": "string"
        },
        {
          "internalType": "uint256",
          "name": "",
          "type": "uint256"
        }
      ],
      "name": "handLoss",
      "outputs": [
        {
          "internalType": "string",
          "name": "",
          "type": "string"
        }
      ],
      "stateMutability": "view",
      "type": "function",
      "constant": true
    },
    {
      "inputs": [
        {
          "internalType": "bytes32",
          "name": "role",
          "type": "bytes32"
        },
        {
          "internalType": "address",
          "name": "account",
          "type": "address"
        }
      ],
      "name": "hasRole",
      "outputs": [
        {
          "internalType": "bool",
          "name": "",
          "type": "bool"
        }
      ],
      "stateMutability": "view",
      "type": "function",
      "constant": true
    },
    {
      "inputs": [
        {
          "internalType": "string",
          "name": "",
          "type": "string"
        },
        {
          "internalType": "uint256",
          "name": "",
          "type": "uint256"
        }
      ],
      "name": "itemGain",
      "outputs": [
        {
          "internalType": "string",
          "name": "",
          "type": "string"
        }
      ],
      "stateMutability": "view",
      "type": "function",
      "constant": true
    },
    {
      "inputs": [
        {
          "internalType": "string",
          "name": "",
          "type": "string"
        },
        {
          "internalType": "uint256",
          "name": "",
          "type": "uint256"
        }
      ],
      "name": "itemLoss",
      "outputs": [
        {
          "internalType": "string",
          "name": "",
          "type": "string"
        }
      ],
      "stateMutability": "view",
      "type": "function",
      "constant": true
    },
    {
      "inputs": [
        {
          "internalType": "string",
          "name": "",
          "type": "string"
        },
        {
          "internalType": "uint256",
          "name": "",
          "type": "uint256"
        }
      ],
      "name": "movementAdjust",
      "outputs": [
        {
          "internalType": "int8",
          "name": "",
          "type": "int8"
        }
      ],
      "stateMutability": "view",
      "type": "function",
      "constant": true
    },
    {
      "inputs": [
        {
          "internalType": "string",
          "name": "",
          "type": "string"
        },
        {
          "internalType": "uint256",
          "name": "",
          "type": "uint256"
        }
      ],
      "name": "movementX",
      "outputs": [
        {
          "internalType": "int256",
          "name": "",
          "type": "int256"
        }
      ],
      "stateMutability": "view",
      "type": "function",
      "constant": true
    },
    {
      "inputs": [
        {
          "internalType": "string",
          "name": "",
          "type": "string"
        },
        {
          "internalType": "uint256",
          "name": "",
          "type": "uint256"
        }
      ],
      "name": "movementY",
      "outputs": [
        {
          "internalType": "int256",
          "name": "",
          "type": "int256"
        }
      ],
      "stateMutability": "view",
      "type": "function",
      "constant": true
    },
    {
      "inputs": [
        {
          "internalType": "string",
          "name": "",
          "type": "string"
        },
        {
          "internalType": "uint256",
          "name": "",
          "type": "uint256"
        }
      ],
      "name": "outcomeDescription",
      "outputs": [
        {
          "internalType": "string",
          "name": "",
          "type": "string"
        }
      ],
      "stateMutability": "view",
      "type": "function",
      "constant": true
    },
    {
      "inputs": [
        {
          "internalType": "string",
          "name": "",
          "type": "string"
        }
      ],
      "name": "quantity",
      "outputs": [
        {
          "internalType": "uint16",
          "name": "",
          "type": "uint16"
        }
      ],
      "stateMutability": "view",
      "type": "function",
      "constant": true
    },
    {
      "inputs": [
        {
          "internalType": "bytes32",
          "name": "role",
          "type": "bytes32"
        },
        {
          "internalType": "address",
          "name": "account",
          "type": "address"
        }
      ],
      "name": "renounceRole",
      "outputs": [],
      "stateMutability": "nonpayable",
      "type": "function"
    },
    {
      "inputs": [
        {
          "internalType": "bytes32",
          "name": "role",
          "type": "bytes32"
        },
        {
          "internalType": "address",
          "name": "account",
          "type": "address"
        }
      ],
      "name": "revokeRole",
      "outputs": [],
      "stateMutability": "nonpayable",
      "type": "function"
    },
    {
      "inputs": [
        {
          "internalType": "string",
          "name": "",
          "type": "string"
        },
        {
          "internalType": "uint256",
          "name": "",
          "type": "uint256"
        }
      ],
      "name": "rollThresholds",
      "outputs": [
        {
          "internalType": "uint256",
          "name": "",
          "type": "uint256"
        }
      ],
      "stateMutability": "view",
      "type": "function",
      "constant": true
    },
    {
      "inputs": [
        {
          "internalType": "string",
          "name": "",
          "type": "string"
        }
      ],
      "name": "rollTypeRequired",
      "outputs": [
        {
          "internalType": "uint256",
          "name": "",
          "type": "uint256"
        }
      ],
      "stateMutability": "view",
      "type": "function",
      "constant": true
    },
    {
      "inputs": [
        {
          "internalType": "bytes4",
          "name": "interfaceId",
          "type": "bytes4"
        }
      ],
      "name": "supportsInterface",
      "outputs": [
        {
          "internalType": "bool",
          "name": "",
          "type": "bool"
        }
      ],
      "stateMutability": "view",
      "type": "function",
      "constant": true
    }
  ],
  "bytecode": "0x60806040523480156200001157600080fd5b506200003a60006200002b64010000000062000bf8810204565b64010000000062000bfc810204565b60408051600480825260a08201909252600091816020015b60608152602001906001900390816200005257505060408051600480825260a0820190925291925060009190602082015b60608152602001906001900390816200008357505060408051600480825260a0820190925291925060009190602082016080803683370190505090506040518060400160405280600c81526020017f416e677279204c6f63616c730000000000000000000000000000000000000000815250836000815181106200010b576200010b620014b0565b60200260200101819052506040518060c00160405280608c8152602001620035b2608c913982600081518110620001465762000146620014b0565b6020026020010181905250600181600081518110620001695762000169620014b0565b602002602001019061ffff16908161ffff16815250506040518060600160405280600060ff168152602001600360ff168152602001600560ff16815250600d84600081518110620001be57620001be620014b0565b6020026020010151604051620001d5919062001512565b908152604051908190036020019020620001f1916003620012f2565b5060405180606001604052806040518060400160405280600881526020017f446566656174656400000000000000000000000000000000000000000000000081525081526020016040518060400160405280600681526020017f457363617065000000000000000000000000000000000000000000000000000081525081526020016040518060400160405280600781526020017f566963746f727900000000000000000000000000000000000000000000000000815250815250600e84600081518110620002c457620002c4620014b0565b6020026020010151604051620002db919062001512565b908152604051908190036020019020620002f79160036200133a565b50600019600584600081518110620003135762000313620014b0565b60200260200101516040516200032a919062001512565b908152604051908190036020019020805460ff191660ff929092169190911790558251600119906006908590600090620003685762000368620014b0565b60200260200101516040516200037f919062001512565b9081526040805160209281900383018120805460ff9590951660ff19909516949094179093558281019052601082527f53687269656b696e67204265617374730000000000000000000000000000000090820152835184906001908110620003eb57620003eb620014b0565b60200260200101819052506040518060800160405280604b81526020016200363e604b913982600181518110620004265762000426620014b0565b6020026020010181905250600181600181518110620004495762000449620014b0565b61ffff90921660209283029190910182015260408051606081018252600081526003928101929092526005908201528351600d9085906001908110620004935762000493620014b0565b6020026020010151604051620004aa919062001512565b908152604051908190036020019020620004c6916003620012f2565b5060405180606001604052806040518060400160405280600881526020017f446566656174656400000000000000000000000000000000000000000000000081525081526020016040518060400160405280600681526020017f457363617065000000000000000000000000000000000000000000000000000081525081526020016040518060400160405280600781526020017f566963746f727900000000000000000000000000000000000000000000000000815250815250600e84600181518110620005995762000599620014b0565b6020026020010151604051620005b0919062001512565b908152604051908190036020019020620005cc9160036200133a565b50600119600784600181518110620005e857620005e8620014b0565b6020026020010151604051620005ff919062001512565b908152604051908190036020019020805460ff191660ff92909216919091179055825160001990600690859060019081106200063f576200063f620014b0565b602002602001015160405162000656919062001512565b9081526040805160209281900383018120805460ff9590951660ff19909516949094179093558281019052600d82527f57696e676564204265617374730000000000000000000000000000000000000090820152835184906002908110620006c257620006c2620014b0565b6020026020010181905250604051806080016040528060498152602001620034ed6049913982600281518110620006fd57620006fd620014b0565b6020026020010181905250600181600281518110620007205762000720620014b0565b61ffff90921660209283029190910182015260408051606081018252600081526004928101929092526006908201528351600d90859060029081106200076a576200076a620014b0565b602002602001015160405162000781919062001512565b9081526040519081900360200190206200079d916003620012f2565b5060405180606001604052806040518060400160405280600881526020017f446566656174656400000000000000000000000000000000000000000000000081525081526020016040518060400160405280600681526020017f457363617065000000000000000000000000000000000000000000000000000081525081526020016040518060400160405280600781526020017f566963746f727900000000000000000000000000000000000000000000000000815250815250600e84600281518110620008705762000870620014b0565b602002602001015160405162000887919062001512565b908152604051908190036020019020620008a39160036200133a565b50600119600784600281518110620008bf57620008bf620014b0565b6020026020010151604051620008d6919062001512565b908152604051908190036020019020805460ff191660ff9290921691909117905582516000199060059085906002908110620009165762000916620014b0565b60200260200101516040516200092d919062001512565b9081526040805160209281900383018120805460ff9590951660ff19909516949094179093558281019052601082527f536861646f77204372656174757265730000000000000000000000000000000090820152835184906003908110620009995762000999620014b0565b60200260200101819052506040518060a00160405280607c815260200162003536607c913982600381518110620009d457620009d4620014b0565b6020026020010181905250600181600381518110620009f757620009f7620014b0565b602002602001019061ffff16908161ffff16815250506040518060600160405280600060ff168152602001600360ff168152602001600560ff16815250600d8460038151811062000a4c5762000a4c620014b0565b602002602001015160405162000a63919062001512565b90815260405190819003602001902062000a7f916003620012f2565b5060405180606001604052806040518060400160405280600881526020017f446566656174656400000000000000000000000000000000000000000000000081525081526020016040518060400160405280600681526020017f457363617065000000000000000000000000000000000000000000000000000081525081526020016040518060400160405280600781526020017f566963746f727900000000000000000000000000000000000000000000000000815250815250600e8460038151811062000b525762000b52620014b0565b602002602001015160405162000b69919062001512565b90815260405190819003602001902062000b859160036200133a565b5060021960058460038151811062000ba15762000ba1620014b0565b602002602001015160405162000bb8919062001512565b908152604051908190036020019020805460ff191660ff9290921691909117905562000bef83838364010000000062000c15810204565b505050620016e4565b3390565b62000c11828264010000000062000e3e810204565b5050565b600062000c2b8164010000000062000e85810204565b8251845114801562000c3e575081518451145b62000caa576040517f08c379a000000000000000000000000000000000000000000000000000000000815260206004820152601760248201527f6172726179207175616e74697479206d69736d6174636800000000000000000060448201526064015b60405180910390fd5b60005b845181101562000e3757600085828151811062000cce5762000cce620014b0565b6020026020010151905060048160405162000cea919062001512565b9081526040519081900360200190205461ffff1615801562000d2d575083828151811062000d1c5762000d1c620014b0565b602002602001015161ffff16600014155b1562000e215760028054600181018255600091909152815162000d78917f405787fa12a823e0f2b7631cc41b3ba8828b3321ca811111fa75cd3aa3bb5ace019060208401906200138d565b5084828151811062000d8e5762000d8e620014b0565b602002602001015160038260405162000da8919062001512565b9081526020016040518091039020908051906020019062000dcb9291906200138d565b5083828151811062000de15762000de1620014b0565b602002602001015160048260405162000dfb919062001512565b908152604051908190036020019020805461ffff9290921661ffff199092169190911790555b508062000e2e816200155f565b91505062000cad565b5050505050565b62000e5882826401000000006200105062000eaf82021704565b600082815260016020526040902062000e809082640100000000620010d462000f4b82021704565b505050565b62000eac8162000e9d64010000000062000bf8810204565b64010000000062000f74810204565b50565b62000ec4828264010000000062001022810204565b62000c1157600082815260208181526040808320600160a060020a03851684529091529020805460ff1916600117905562000f0764010000000062000bf8810204565b600160a060020a031681600160a060020a0316837f2f8788117e7eff1d82e926ec794901d17c78024a50270940304540a733656f0d60405160405180910390a45050565b600062000f6b83600160a060020a0384166401000000006200104b810204565b90505b92915050565b62000f89828264010000000062001022810204565b62000c115762000fb2600160a060020a0382166014640100000000620010e9620010a382021704565b62000fcd836020640100000000620010e9620010a382021704565b60405160200162000fe09291906200157d565b60408051601f19818403018152908290527f08c379a000000000000000000000000000000000000000000000000000000000825262000ca19160040162001602565b600091825260208281526040808420600160a060020a0393909316845291905290205460ff1690565b6000620010628383640100000000620012da810204565b6200109a5750815460018181018455600084815260208082209093018490558454848252828601909352604090209190915562000f6e565b50600062000f6e565b60606000620010b483600262001637565b620010c190600262001659565b67ffffffffffffffff811115620010dc57620010dc62001481565b6040519080825280601f01601f19166020018201604052801562001107576020820181803683370190505b5090507f300000000000000000000000000000000000000000000000000000000000000081600081518110620011415762001141620014b0565b6020010190600160f860020a031916908160001a9053507f7800000000000000000000000000000000000000000000000000000000000000816001815181106200118f576200118f620014b0565b6020010190600160f860020a031916908160001a9053506000620011b584600262001637565b620011c290600162001659565b90505b60018111156200126f577f303132333435363738396162636465660000000000000000000000000000000085600f1660108110620012075762001207620014b0565b1a7f0100000000000000000000000000000000000000000000000000000000000000028282815181106200123f576200123f620014b0565b6020010190600160f860020a031916908160001a905350601090940493620012678162001674565b9050620011c5565b50831562000f6b576040517f08c379a000000000000000000000000000000000000000000000000000000000815260206004820181905260248201527f537472696e67733a20686578206c656e67746820696e73756666696369656e74604482015260640162000ca1565b60009081526001919091016020526040902054151590565b826003810192821562001328579160200282015b8281111562001328578251829060ff1690559160200191906001019062001306565b50620013369291506200140a565b5090565b82600381019282156200137f579160200282015b828111156200137f57825180516200136e9184916020909101906200138d565b50916020019190600101906200134e565b506200133692915062001421565b8280546200139b906200168e565b90600052602060002090601f016020900481019282620013bf576000855562001328565b82601f10620013da57805160ff191683800117855562001328565b8280016001018555821562001328579182015b8281111562001328578251825591602001919060010190620013ed565b5b808211156200133657600081556001016200140b565b808211156200133657600062001438828262001442565b5060010162001421565b50805462001450906200168e565b6000825580601f1062001461575050565b601f01602090049060005260206000209081019062000eac91906200140a565b7f4e487b7100000000000000000000000000000000000000000000000000000000600052604160045260246000fd5b7f4e487b7100000000000000000000000000000000000000000000000000000000600052603260045260246000fd5b60005b83811015620014fc578181015183820152602001620014e2565b838111156200150c576000848401525b50505050565b6000825162001526818460208701620014df565b9190910192915050565b7f4e487b7100000000000000000000000000000000000000000000000000000000600052601160045260246000fd5b600060001982141562001576576200157662001530565b5060010190565b7f416363657373436f6e74726f6c3a206163636f756e7420000000000000000000815260008351620015b7816017850160208801620014df565b7f206973206d697373696e6720726f6c65200000000000000000000000000000006017918401918201528351620015f6816028840160208801620014df565b01602801949350505050565b602081526000825180602084015262001623816040850160208701620014df565b601f01601f19169190910160400192915050565b600081600019048311821515161562001654576200165462001530565b500290565b600082198211156200166f576200166f62001530565b500190565b60008162001686576200168662001530565b506000190190565b600281046001821680620016a357607f821691505b60208210811415620016de577f4e487b7100000000000000000000000000000000000000000000000000000000600052602260045260246000fd5b50919050565b611df980620016f46000396000f3fe608060405234801561001057600080fd5b506004361061018b576000357c0100000000000000000000000000000000000000000000000000000000900480637b7841ce116100eb578063a217fddf116100a4578063a217fddf146103c0578063a855d6f9146103c8578063ca15c873146103db578063ce8b5978146103ee578063d547741f14610401578063d7f9601b14610414578063ef6fe0fa1461042757600080fd5b80637b7841ce1461030757806381ecfce81461031a578063882551991461035c5780639010d07c1461036f57806391d148541461039a578063a17ee4d8146103ad57600080fd5b806336568abe1161014857806336568abe1461025a5780634ad8b0661461026d578063512e23bf146102805780636e84897014610293578063750211b9146102b957806376796db8146102e157806378064381146102f457600080fd5b806301ffc9a714610190578063092c5b3b146101b85780630ab68f52146101ed578063248a9ca31461020d5780632f2ff15d146102305780633394347414610245575b600080fd5b6101a361019e36600461169f565b610452565b60405190151581526020015b60405180910390f35b6101df7f7b765e0e932d348852a6f810bfa1ab891e259123f02db8cdcde614c57022335781565b6040519081526020016101af565b6102006101fb366004611783565b610496565b6040516101af9190611824565b6101df61021b366004611837565b60009081526020819052604090206001015490565b61024361023e366004611850565b610551565b005b61024d61057b565b6040516101af919061188c565b610243610268366004611850565b610654565b6101df61027b366004611783565b6106e8565b61020061028e366004611783565b61071b565b6102a66102a1366004611783565b610745565b60405160009190910b81526020016101af565b6102cc6102c73660046118ed565b61078c565b6040516101af99989796959493929190611977565b6102006102ef366004611783565b610cc8565b6101df610302366004611783565b610cf2565b6102a6610315366004611783565b610d1c565b6103496103283660046119fc565b805160208183018101805160048252928201919093012091525461ffff1681565b60405161ffff90911681526020016101af565b61020061036a3660046119fc565b610d46565b61038261037d366004611a39565b610d6a565b604051600160a060020a0390911681526020016101af565b6101a36103a8366004611850565b610d89565b6102a66103bb366004611783565b610db2565b6101df600081565b6102436103d6366004611b0c565b610ddc565b6101df6103e9366004611837565b610fc0565b6101df6103fc366004611783565b610fd7565b61024361040f366004611850565b611001565b610200610422366004611783565b611026565b6101df6104353660046119fc565b8051602081830181018051600f8252928201919093012091525481565b6000600160e060020a031982167f5a05180f0000000000000000000000000000000000000000000000000000000014806104905750610490826112eb565b92915050565b8151602081840181018051600882529282019185019190912091905281600381106104c057600080fd5b0180549092506104d09150611bf8565b80601f01602080910402602001604051908101604052809291908181526020018280546104fc90611bf8565b80156105495780601f1061051e57610100808354040283529160200191610549565b820191906000526020600020905b81548152906001019060200180831161052c57829003601f168201915b505050505081565b60008281526020819052604090206001015461056c81611352565b610576838361135f565b505050565b60606002805480602002602001604051908101604052809291908181526020016000905b8282101561064b5783829060005260206000200180546105be90611bf8565b80601f01602080910402602001604051908101604052809291908181526020018280546105ea90611bf8565b80156106375780601f1061060c57610100808354040283529160200191610637565b820191906000526020600020905b81548152906001019060200180831161061a57829003601f168201915b50505050508152602001906001019061059f565b50505050905090565b600160a060020a03811633146106da5760405160e560020a62461bcd02815260206004820152602f60248201527f416363657373436f6e74726f6c3a2063616e206f6e6c792072656e6f756e636560448201527f20726f6c657320666f722073656c66000000000000000000000000000000000060648201526084015b60405180910390fd5b6106e48282611381565b5050565b8151602081840181018051600d825292820191850191909120919052816003811061071257600080fd5b01549150829050565b8151602081840181018051600982529282019185019190912091905281600381106104c057600080fd5b81516020818401810180516006825292820191850191909120919052816003811061076f57600080fd5b6020810490910154601f9091166101000a900460000b9150829050565b60606000806000606080606060008060006002805490508c6107ae9190611c36565b90506000600282815481106107c5576107c5611c5b565b9060005260206000200180546107da90611bf8565b80601f016020809104026020016040519081016040528092919081815260200182805461080690611bf8565b80156108535780601f1061082857610100808354040283529160200191610853565b820191906000526020600020905b81548152906001019060200180831161083657829003601f168201915b50505050509050600080600f8360405161086d9190611c74565b908152602001604051809103902054905060008e826003811061089257610892611c5b565b602002015190506000600d856040516108ab9190611c74565b908152604080519182900360200182206060830190915260038282826020028201915b8154815260200190600101908083116108ce57505050505090506000600160036108f89190611ca9565b90505b81816003811061090d5761090d611c5b565b602002015183106109205780945061093c565b8061092a5761093c565b8061093481611cc0565b9150506108fb565b508460058660405161094e9190611c74565b9081526020016040518091039020856003811061096d5761096d611c5b565b602091828204019190069054906101000a900460000b6006876040516109939190611c74565b908152602001604051809103902086600381106109b2576109b2611c5b565b602091828204019190069054906101000a900460000b6007886040516109d89190611c74565b908152602001604051809103902087600381106109f7576109f7611c5b565b602091828204019190069054906101000a900460000b600989604051610a1d9190611c74565b90815260200160405180910390208860038110610a3c57610a3c611c5b565b0160088a604051610a4d9190611c74565b90815260200160405180910390208960038110610a6c57610a6c611c5b565b01600a8b604051610a7d9190611c74565b90815260200160405180910390208a60038110610a9c57610a9c611c5b565b01600b8c604051610aad9190611c74565b90815260200160405180910390208b60038110610acc57610acc611c5b565b0154600c8d604051610ade9190611c74565b90815260200160405180910390208c60038110610afd57610afd611c5b565b0154848054610b0b90611bf8565b80601f0160208091040260200160405190810160405280929190818152602001828054610b3790611bf8565b8015610b845780601f10610b5957610100808354040283529160200191610b84565b820191906000526020600020905b815481529060010190602001808311610b6757829003601f168201915b50505050509450838054610b9790611bf8565b80601f0160208091040260200160405190810160405280929190818152602001828054610bc390611bf8565b8015610c105780601f10610be557610100808354040283529160200191610c10565b820191906000526020600020905b815481529060010190602001808311610bf357829003601f168201915b50505050509350828054610c2390611bf8565b80601f0160208091040260200160405190810160405280929190818152602001828054610c4f90611bf8565b8015610c9c5780601f10610c7157610100808354040283529160200191610c9c565b820191906000526020600020905b815481529060010190602001808311610c7f57829003601f168201915b505050505092509e509e509e509e509e509e509e509e509e505050505050509295985092959850929598565b8151602081840181018051600e82529282019185019190912091905281600381106104c057600080fd5b8151602081840181018051600b825292820191850191909120919052816003811061071257600080fd5b81516020818401810180516007825292820191850191909120919052816003811061076f57600080fd5b8051602081830181018051600382529282019190930120915280546104d090611bf8565b6000828152600160205260408120610d8290836113a3565b9392505050565b600091825260208281526040808420600160a060020a0393909316845291905290205460ff1690565b81516020818401810180516005825292820191850191909120919052816003811061076f57600080fd5b6000610de781611352565b82518451148015610df9575081518451145b610e485760405160e560020a62461bcd02815260206004820152601760248201527f6172726179207175616e74697479206d69736d6174636800000000000000000060448201526064016106d1565b60005b8451811015610fb9576000858281518110610e6857610e68611c5b565b60200260200101519050600481604051610e829190611c74565b9081526040519081900360200190205461ffff16158015610ec15750838281518110610eb057610eb0611c5b565b602002602001015161ffff16600014155b15610fa657600280546001810182556000919091528151610f09917f405787fa12a823e0f2b7631cc41b3ba8828b3321ca811111fa75cd3aa3bb5ace01906020840190611606565b50848281518110610f1c57610f1c611c5b565b6020026020010151600382604051610f349190611c74565b90815260200160405180910390209080519060200190610f55929190611606565b50838281518110610f6857610f68611c5b565b6020026020010151600482604051610f809190611c74565b908152604051908190036020019020805461ffff9290921661ffff199092169190911790555b5080610fb181611cd7565b915050610e4b565b5050505050565b6000818152600160205260408120610490906113af565b8151602081840181018051600c825292820191850191909120919052816003811061071257600080fd5b60008281526020819052604090206001015461101c81611352565b6105768383611381565b8151602081840181018051600a82529282019185019190912091905281600381106104c057600080fd5b61105a8282610d89565b6106e457600082815260208181526040808320600160a060020a03851684529091529020805460ff191660011790556110903390565b600160a060020a031681600160a060020a0316837f2f8788117e7eff1d82e926ec794901d17c78024a50270940304540a733656f0d60405160405180910390a45050565b6000610d8283600160a060020a0384166113b9565b606060006110f8836002611cf2565b611103906002611d11565b67ffffffffffffffff81111561111b5761111b6116c9565b6040519080825280601f01601f191660200182016040528015611145576020820181803683370190505b5090507f30000000000000000000000000000000000000000000000000000000000000008160008151811061117c5761117c611c5b565b6020010190600160f860020a031916908160001a9053507f7800000000000000000000000000000000000000000000000000000000000000816001815181106111c7576111c7611c5b565b6020010190600160f860020a031916908160001a90535060006111eb846002611cf2565b6111f6906001611d11565b90505b6001811115611299577f303132333435363738396162636465660000000000000000000000000000000085600f166010811061123757611237611c5b565b1a7f01000000000000000000000000000000000000000000000000000000000000000282828151811061126c5761126c611c5b565b6020010190600160f860020a031916908160001a90535060109094049361129281611cc0565b90506111f9565b508315610d825760405160e560020a62461bcd02815260206004820181905260248201527f537472696e67733a20686578206c656e67746820696e73756666696369656e7460448201526064016106d1565b6000600160e060020a031982167f7965db0b00000000000000000000000000000000000000000000000000000000148061049057507f01ffc9a700000000000000000000000000000000000000000000000000000000600160e060020a0319831614610490565b61135c8133611408565b50565b6113698282611050565b600082815260016020526040902061057690826110d4565b61138b828261146f565b600082815260016020526040902061057690826114d4565b6000610d8283836114e9565b6000610490825490565b600081815260018301602052604081205461140057508154600181810184556000848152602080822090930184905584548482528286019093526040902091909155610490565b506000610490565b6114128282610d89565b6106e45761142a81600160a060020a031660146110e9565b6114358360206110e9565b604051602001611446929190611d29565b60408051601f198184030181529082905260e560020a62461bcd0282526106d191600401611824565b6114798282610d89565b156106e457600082815260208181526040808320600160a060020a0385168085529252808320805460ff1916905551339285917ff6391f5c32d9c69d2a47ea670b442974b53935d1edc7fd64eb21e047a839171b9190a45050565b6000610d8283600160a060020a038416611513565b600082600001828154811061150057611500611c5b565b9060005260206000200154905092915050565b600081815260018301602052604081205480156115fc576000611537600183611ca9565b855490915060009061154b90600190611ca9565b90508181146115b057600086600001828154811061156b5761156b611c5b565b906000526020600020015490508087600001848154811061158e5761158e611c5b565b6000918252602080832090910192909255918252600188019052604090208390555b85548690806115c1576115c1611daa565b600190038181906000526020600020016000905590558560010160008681526020019081526020016000206000905560019350505050610490565b6000915050610490565b82805461161290611bf8565b90600052602060002090601f016020900481019282611634576000855561167a565b82601f1061164d57805160ff191683800117855561167a565b8280016001018555821561167a579182015b8281111561167a57825182559160200191906001019061165f565b5061168692915061168a565b5090565b5b80821115611686576000815560010161168b565b6000602082840312156116b157600080fd5b8135600160e060020a031981168114610d8257600080fd5b60e060020a634e487b7102600052604160045260246000fd5b604051601f8201601f1916810167ffffffffffffffff8111828210171561170b5761170b6116c9565b604052919050565b600082601f83011261172457600080fd5b813567ffffffffffffffff81111561173e5761173e6116c9565b611751601f8201601f19166020016116e2565b81815284602083860101111561176657600080fd5b816020850160208301376000918101602001919091529392505050565b6000806040838503121561179657600080fd5b823567ffffffffffffffff8111156117ad57600080fd5b6117b985828601611713565b95602094909401359450505050565b60005b838110156117e35781810151838201526020016117cb565b838111156117f2576000848401525b50505050565b600081518084526118108160208601602086016117c8565b601f01601f19169290920160200192915050565b602081526000610d8260208301846117f8565b60006020828403121561184957600080fd5b5035919050565b6000806040838503121561186357600080fd5b823591506020830135600160a060020a038116811461188157600080fd5b809150509250929050565b600060208083018184528085518083526040860191506040848202870101925083870160005b828110156118e057603f198886030184526118ce8583516117f8565b945092850192908501906001016118b2565b5092979650505050505050565b6000806080838503121561190057600080fd5b82359150602084603f85011261191557600080fd5b6040516060810181811067ffffffffffffffff82111715611938576119386116c9565b60405280608086018781111561194d57600080fd5b8387015b818110156119685780358352918401918401611951565b50505080925050509250929050565b600061012080835261198b8184018d6117f8565b90508a60000b60208401528960000b60408401528860000b606084015282810360808401526119ba81896117f8565b905082810360a08401526119ce81886117f8565b905082810360c08401526119e281876117f8565b60e084019590955250506101000152979650505050505050565b600060208284031215611a0e57600080fd5b813567ffffffffffffffff811115611a2557600080fd5b611a3184828501611713565b949350505050565b60008060408385031215611a4c57600080fd5b50508035926020909101359150565b600067ffffffffffffffff821115611a7557611a756116c9565b5060209081020190565b600082601f830112611a9057600080fd5b81356020611aa5611aa083611a5b565b6116e2565b82815291810284018101918181019086841115611ac157600080fd5b8286015b84811015611b0157803567ffffffffffffffff811115611ae55760008081fd5b611af38986838b0101611713565b845250918301918301611ac5565b509695505050505050565b600080600060608486031215611b2157600080fd5b833567ffffffffffffffff80821115611b3957600080fd5b611b4587838801611a7f565b9450602091508186013581811115611b5c57600080fd5b611b6888828901611a7f565b945050604086013581811115611b7d57600080fd5b86019050601f81018713611b9057600080fd5b8035611b9e611aa082611a5b565b81815290830282018301908381019089831115611bba57600080fd5b928401925b82841015611be957833561ffff81168114611bda5760008081fd5b82529284019290840190611bbf565b80955050505050509250925092565b600281046001821680611c0c57607f821691505b60208210811415611c305760e060020a634e487b7102600052602260045260246000fd5b50919050565b600082611c565760e060020a634e487b7102600052601260045260246000fd5b500690565b60e060020a634e487b7102600052603260045260246000fd5b60008251611c868184602087016117c8565b9190910192915050565b60e060020a634e487b7102600052601160045260246000fd5b600082821015611cbb57611cbb611c90565b500390565b600081611ccf57611ccf611c90565b506000190190565b6000600019821415611ceb57611ceb611c90565b5060010190565b6000816000190483118215151615611d0c57611d0c611c90565b500290565b60008219821115611d2457611d24611c90565b500190565b7f416363657373436f6e74726f6c3a206163636f756e7420000000000000000000815260008351611d618160178501602088016117c8565b7f206973206d697373696e6720726f6c65200000000000000000000000000000006017918401918201528351611d9e8160288401602088016117c8565b01602801949350505050565b60e060020a634e487b7102600052603160045260246000fdfea2646970667358221220ffd4c7d57d85455857e876221e5ba4dbbcf6a8d488c9c799e01d49cc6393b96d64736f6c634300080b0033466c79696e672063726561747572657320736f61722061626f766520796f752e20546865792064697665206f7574206f662074686520736b7920616e642061747461636b20796f752e536861646f7773206d6f766520616e64206d6174657269616c697a652e205468697320636f6d6261742069732074726561746564206173206966206974206973206e696768742e20496620697420697320616c7265616479206e696768742c20696e637265617365206e696768742070656e616c747920627920312e5768696c65206578706c6f72696e6720796f75207363617265206177617920612068657264206f66206265617374732e205468652068756e7465727320746861742068617665206265656e20747261636b696e67207468656d20666f722064617973206973206e6f742068617070792061626f757420746869732e20546865792061747461636b20796f752e5769746820612063686f727573206f66207069657263696e672073687269656b732c2062656173747320646563656e642075706f6e20796f752e20546865792061747461636b20796f752e",
  "immutableReferences": {},
  "source": "// SPDX-License-Identifier: GPL-3.0\npragma solidity >=0.7.0 <0.9.0;\n\nimport \"./CardDeck.sol\";\n\ncontract AmbushDeck is CardDeck {\n    constructor() CardDeck() {\n        string[] memory cards = new string[](4);\n        string[] memory descriptions = new string[](4);\n        uint16[] memory quantities = new uint16[](4);\n\n        // TODO:\n        // set movement x + movement y for \"escape\" outcomes\n        cards[0] = \"Angry Locals\";\n        descriptions[\n            0\n        ] = \"While exploring you scare away a herd of beasts. The hunters that have been tracking them for days is not happy about this. They attack you.\";\n        quantities[0] = 1;\n        rollThresholds[cards[0]] = [0, 3, 5];\n        outcomeDescription[cards[0]] = [\"Defeated\", \"Escape\", \"Victory\"];\n        movementAdjust[cards[0]][0] = -1;\n        agilityAdjust[cards[0]][0] = -2;\n\n        cards[1] = \"Shrieking Beasts\";\n        descriptions[\n            1\n        ] = \"With a chorus of piercing shrieks, beasts decend upon you. They attack you.\";\n        quantities[1] = 1;\n        rollThresholds[cards[1]] = [0, 3, 5];\n        outcomeDescription[cards[1]] = [\"Defeated\", \"Escape\", \"Victory\"];\n        dexterityAdjust[cards[1]][0] = -2;\n        agilityAdjust[cards[1]][0] = -1;\n\n        cards[2] = \"Winged Beasts\";\n        descriptions[\n            2\n        ] = \"Flying creatures soar above you. They dive out of the sky and attack you.\";\n        quantities[2] = 1;\n        rollThresholds[cards[2]] = [0, 4, 6];\n        outcomeDescription[cards[2]] = [\"Defeated\", \"Escape\", \"Victory\"];\n        dexterityAdjust[cards[2]][0] = -2;\n        movementAdjust[cards[2]][0] = -1;\n\n        cards[3] = \"Shadow Creatures\";\n        descriptions[\n            3\n        ] = \"Shadows move and materialize. This combat is treated as if it is night. If it is already night, increase night penalty by 1.\";\n        quantities[3] = 1;\n        rollThresholds[cards[3]] = [0, 3, 5];\n        outcomeDescription[cards[3]] = [\"Defeated\", \"Escape\", \"Victory\"];\n        movementAdjust[cards[3]][0] = -3;\n\n        // cards[4] = \"Ancient Guardian\";\n        // descriptions[\n        //     4\n        // ] = \"An ancient guardian awakens and attacks you. You cannot escape.\";\n        // quantities[4] = 1;\n\n        // cards[5] = \"Deathbot Activated\";\n        // descriptions[\n        //     5\n        // ] = \"The whirring of machinery. Death to organics. A deathbot attacks you.\";\n        // quantities[5] = 1;\n\n        // cards[6] = \"Clumsy Misstep\";\n        // descriptions[6] = \"You lose your footing and drop an item. \";\n        // quantities[6] = 1;\n\n        // cards[7] = \"Marooned Pirate\";\n        // descriptions[\n        //     7\n        // ] = \"You trip over what you thought was a dead body. Rather it is a Marauder comfortably sleeping off some space rum. He is not happy about that and attacks you.\";\n        // quantities[7] = 1;\n\n        // cards[8] = \"Flesh Eating Insects\";\n        // descriptions[8] = \"Ouch! You start to feel stings all over your body.\";\n        // quantities[8] = 1;\n\n        // cards[9] = \"Ghastly Apparition\";\n        // descriptions[\n        //     9\n        // ] = \"A terrifying feeling chills your bones. You don't take the time to find out what it is.\";\n        // quantities[9] = 1;\n\n        // cards[10] = \"Pit of Spikes\";\n        // descriptions[\n        //     10\n        // ] = \"Before you realize the ground is not solid, you fall into what appears to be an animal trap.\";\n        // quantities[10] = 1;\n\n        // cards[11] = \"Bubbling Ooze\";\n        // descriptions[11] = \"The ground is sticky, you are unable to move.\";\n        // quantities[11] = 1;\n\n        // cards[12] = \"Rock Slide\";\n        // descriptions[12] = \"You hear a rumble, a boulder tumbles toward you.\";\n        // quantities[12] = 1;\n\n        // cards[13] = \"Dark Clouds\";\n        // descriptions[13] = \"The sun is blotted from the sky.\";\n        // quantities[13] = 1;\n\n        // cards[14] = \"Madness\";\n        // descriptions[\n        //     14\n        // ] = \"You hear voices in your head beckoning you to follow them.\";\n        // quantities[14] = 1;\n\n        // cards[15] = \"Fear\";\n        // descriptions[15] = \"You are suddenly struck with inexplicable terror.\";\n        // quantities[15] = 1;\n\n        // cards[16] = \"Meteorite Strike\";\n        // descriptions[\n        //     16\n        // ] = \"A streak of fire smashes into the ground at your feet.\";\n        // quantities[16] = 1;\n\n        // cards[17] = \"Cryo Mine\";\n        // descriptions[\n        //     17\n        // ] = \"As you take a step you hear a click and a beep. Before you can react you hear an explosion.\";\n        // quantities[17] = 1;\n\n        // cards[18] = \"Creeping Vines\";\n        // descriptions[\n        //     18\n        // ] = \"The vegetation around you seems to come alive. It grasps you tightly.\";\n        // quantities[18] = 1;\n\n        // cards[19] = \"Evil Wizard\";\n        // descriptions[\n        //     19\n        // ] = \"A flash and a puff of smoke reveals a cackling mage. He casts a fireball at you before disappearing again.\";\n        // quantities[19] = 1;\n\n        // cards[20] = \"Stone Golem\";\n        // descriptions[\n        //     20\n        // ] = \"A monster made of stone rises from the ground and attacks you.\";\n        // quantities[20] = 1;\n\n        // cards[21] = \"Iron Golem\";\n        // descriptions[\n        //     21\n        // ] = \"A monster made of iron rises from the ground and attacks you.\";\n        // quantities[21] = 1;\n\n        // cards[22] = \"Tungsten Golem\";\n        // descriptions[\n        //     22\n        // ] = \"A monster made of tungsten rises from the ground and attacks you.\";\n        // quantities[22] = 1;\n\n        // cards[23] = \"Plasma Golem\";\n        // descriptions[\n        //     23\n        // ] = \"A monter made of plasma rises from the ground and attacks you.\";\n        // quantities[23] = 1;\n\n        addCards(cards, descriptions, quantities);\n    }\n}\n",
  "sourcePath": "/Users/maxmeier/Developer/Lucky Machines/hexploration/contracts/decks/AmbushDeck.sol",
  "compiler": {
    "name": "solc",
    "version": "0.8.11+commit.d7f03943.Emscripten.clang"
  },
  "schemaVersion": "3.4.4",
  "updatedAt": "2022-05-25T19:10:58.105Z",
  "networkType": "ethereum",
  "devdoc": {
    "kind": "dev",
    "methods": {
      "getRoleAdmin(bytes32)": {
        "details": "Returns the admin role that controls `role`. See {grantRole} and {revokeRole}. To change a role's admin, use {_setRoleAdmin}."
      },
      "getRoleMember(bytes32,uint256)": {
        "details": "Returns one of the accounts that have `role`. `index` must be a value between 0 and {getRoleMemberCount}, non-inclusive. Role bearers are not sorted in any particular way, and their ordering may change at any point. WARNING: When using {getRoleMember} and {getRoleMemberCount}, make sure you perform all queries on the same block. See the following https://forum.openzeppelin.com/t/iterating-over-elements-on-enumerableset-in-openzeppelin-contracts/2296[forum post] for more information."
      },
      "getRoleMemberCount(bytes32)": {
        "details": "Returns the number of accounts that have `role`. Can be used together with {getRoleMember} to enumerate all bearers of a role."
      },
      "grantRole(bytes32,address)": {
        "details": "Grants `role` to `account`. If `account` had not been already granted `role`, emits a {RoleGranted} event. Requirements: - the caller must have ``role``'s admin role."
      },
      "hasRole(bytes32,address)": {
        "details": "Returns `true` if `account` has been granted `role`."
      },
      "renounceRole(bytes32,address)": {
        "details": "Revokes `role` from the calling account. Roles are often managed via {grantRole} and {revokeRole}: this function's purpose is to provide a mechanism for accounts to lose their privileges if they are compromised (such as when a trusted device is misplaced). If the calling account had been revoked `role`, emits a {RoleRevoked} event. Requirements: - the caller must be `account`."
      },
      "revokeRole(bytes32,address)": {
        "details": "Revokes `role` from `account`. If `account` had been granted `role`, emits a {RoleRevoked} event. Requirements: - the caller must have ``role``'s admin role."
      },
      "supportsInterface(bytes4)": {
        "details": "See {IERC165-supportsInterface}."
      }
    },
    "version": 1
  },
  "userdoc": {
    "kind": "user",
    "methods": {},
    "version": 1
  }
}