{
  "contractName": "CardDeck",
  "abi": [
    {
      "inputs": [],
      "stateMutability": "nonpayable",
      "type": "constructor"
    },
    {
      "anonymous": false,
      "inputs": [
        {
          "indexed": true,
          "internalType": "bytes32",
          "name": "role",
          "type": "bytes32"
        },
        {
          "indexed": true,
          "internalType": "bytes32",
          "name": "previousAdminRole",
          "type": "bytes32"
        },
        {
          "indexed": true,
          "internalType": "bytes32",
          "name": "newAdminRole",
          "type": "bytes32"
        }
      ],
      "name": "RoleAdminChanged",
      "type": "event"
    },
    {
      "anonymous": false,
      "inputs": [
        {
          "indexed": true,
          "internalType": "bytes32",
          "name": "role",
          "type": "bytes32"
        },
        {
          "indexed": true,
          "internalType": "address",
          "name": "account",
          "type": "address"
        },
        {
          "indexed": true,
          "internalType": "address",
          "name": "sender",
          "type": "address"
        }
      ],
      "name": "RoleGranted",
      "type": "event"
    },
    {
      "anonymous": false,
      "inputs": [
        {
          "indexed": true,
          "internalType": "bytes32",
          "name": "role",
          "type": "bytes32"
        },
        {
          "indexed": true,
          "internalType": "address",
          "name": "account",
          "type": "address"
        },
        {
          "indexed": true,
          "internalType": "address",
          "name": "sender",
          "type": "address"
        }
      ],
      "name": "RoleRevoked",
      "type": "event"
    },
    {
      "inputs": [],
      "name": "CONTROLLER_ROLE",
      "outputs": [
        {
          "internalType": "bytes32",
          "name": "",
          "type": "bytes32"
        }
      ],
      "stateMutability": "view",
      "type": "function"
    },
    {
      "inputs": [],
      "name": "DEFAULT_ADMIN_ROLE",
      "outputs": [
        {
          "internalType": "bytes32",
          "name": "",
          "type": "bytes32"
        }
      ],
      "stateMutability": "view",
      "type": "function"
    },
    {
      "inputs": [
        {
          "internalType": "string",
          "name": "",
          "type": "string"
        },
        {
          "internalType": "uint256",
          "name": "",
          "type": "uint256"
        }
      ],
      "name": "agilityAdjust",
      "outputs": [
        {
          "internalType": "int8",
          "name": "",
          "type": "int8"
        }
      ],
      "stateMutability": "view",
      "type": "function"
    },
    {
      "inputs": [
        {
          "internalType": "string",
          "name": "",
          "type": "string"
        }
      ],
      "name": "description",
      "outputs": [
        {
          "internalType": "string",
          "name": "",
          "type": "string"
        }
      ],
      "stateMutability": "view",
      "type": "function"
    },
    {
      "inputs": [
        {
          "internalType": "string",
          "name": "",
          "type": "string"
        },
        {
          "internalType": "uint256",
          "name": "",
          "type": "uint256"
        }
      ],
      "name": "dexterityAdjust",
      "outputs": [
        {
          "internalType": "int8",
          "name": "",
          "type": "int8"
        }
      ],
      "stateMutability": "view",
      "type": "function"
    },
    {
      "inputs": [
        {
          "internalType": "bytes32",
          "name": "role",
          "type": "bytes32"
        }
      ],
      "name": "getRoleAdmin",
      "outputs": [
        {
          "internalType": "bytes32",
          "name": "",
          "type": "bytes32"
        }
      ],
      "stateMutability": "view",
      "type": "function"
    },
    {
      "inputs": [
        {
          "internalType": "bytes32",
          "name": "role",
          "type": "bytes32"
        },
        {
          "internalType": "uint256",
          "name": "index",
          "type": "uint256"
        }
      ],
      "name": "getRoleMember",
      "outputs": [
        {
          "internalType": "address",
          "name": "",
          "type": "address"
        }
      ],
      "stateMutability": "view",
      "type": "function"
    },
    {
      "inputs": [
        {
          "internalType": "bytes32",
          "name": "role",
          "type": "bytes32"
        }
      ],
      "name": "getRoleMemberCount",
      "outputs": [
        {
          "internalType": "uint256",
          "name": "",
          "type": "uint256"
        }
      ],
      "stateMutability": "view",
      "type": "function"
    },
    {
      "inputs": [
        {
          "internalType": "bytes32",
          "name": "role",
          "type": "bytes32"
        },
        {
          "internalType": "address",
          "name": "account",
          "type": "address"
        }
      ],
      "name": "grantRole",
      "outputs": [],
      "stateMutability": "nonpayable",
      "type": "function"
    },
    {
      "inputs": [
        {
          "internalType": "string",
          "name": "",
          "type": "string"
        },
        {
          "internalType": "uint256",
          "name": "",
          "type": "uint256"
        }
      ],
      "name": "handLoss",
      "outputs": [
        {
          "internalType": "string",
          "name": "",
          "type": "string"
        }
      ],
      "stateMutability": "view",
      "type": "function"
    },
    {
      "inputs": [
        {
          "internalType": "bytes32",
          "name": "role",
          "type": "bytes32"
        },
        {
          "internalType": "address",
          "name": "account",
          "type": "address"
        }
      ],
      "name": "hasRole",
      "outputs": [
        {
          "internalType": "bool",
          "name": "",
          "type": "bool"
        }
      ],
      "stateMutability": "view",
      "type": "function"
    },
    {
      "inputs": [
        {
          "internalType": "string",
          "name": "",
          "type": "string"
        },
        {
          "internalType": "uint256",
          "name": "",
          "type": "uint256"
        }
      ],
      "name": "itemGain",
      "outputs": [
        {
          "internalType": "string",
          "name": "",
          "type": "string"
        }
      ],
      "stateMutability": "view",
      "type": "function"
    },
    {
      "inputs": [
        {
          "internalType": "string",
          "name": "",
          "type": "string"
        },
        {
          "internalType": "uint256",
          "name": "",
          "type": "uint256"
        }
      ],
      "name": "itemLoss",
      "outputs": [
        {
          "internalType": "string",
          "name": "",
          "type": "string"
        }
      ],
      "stateMutability": "view",
      "type": "function"
    },
    {
      "inputs": [
        {
          "internalType": "string",
          "name": "",
          "type": "string"
        },
        {
          "internalType": "uint256",
          "name": "",
          "type": "uint256"
        }
      ],
      "name": "movementAdjust",
      "outputs": [
        {
          "internalType": "int8",
          "name": "",
          "type": "int8"
        }
      ],
      "stateMutability": "view",
      "type": "function"
    },
    {
      "inputs": [
        {
          "internalType": "string",
          "name": "",
          "type": "string"
        },
        {
          "internalType": "uint256",
          "name": "",
          "type": "uint256"
        }
      ],
      "name": "movementX",
      "outputs": [
        {
          "internalType": "int256",
          "name": "",
          "type": "int256"
        }
      ],
      "stateMutability": "view",
      "type": "function"
    },
    {
      "inputs": [
        {
          "internalType": "string",
          "name": "",
          "type": "string"
        },
        {
          "internalType": "uint256",
          "name": "",
          "type": "uint256"
        }
      ],
      "name": "movementY",
      "outputs": [
        {
          "internalType": "int256",
          "name": "",
          "type": "int256"
        }
      ],
      "stateMutability": "view",
      "type": "function"
    },
    {
      "inputs": [
        {
          "internalType": "string",
          "name": "",
          "type": "string"
        },
        {
          "internalType": "uint256",
          "name": "",
          "type": "uint256"
        }
      ],
      "name": "outcomeDescription",
      "outputs": [
        {
          "internalType": "string",
          "name": "",
          "type": "string"
        }
      ],
      "stateMutability": "view",
      "type": "function"
    },
    {
      "inputs": [
        {
          "internalType": "string",
          "name": "",
          "type": "string"
        }
      ],
      "name": "quantity",
      "outputs": [
        {
          "internalType": "uint16",
          "name": "",
          "type": "uint16"
        }
      ],
      "stateMutability": "view",
      "type": "function"
    },
    {
      "inputs": [
        {
          "internalType": "bytes32",
          "name": "role",
          "type": "bytes32"
        },
        {
          "internalType": "address",
          "name": "account",
          "type": "address"
        }
      ],
      "name": "renounceRole",
      "outputs": [],
      "stateMutability": "nonpayable",
      "type": "function"
    },
    {
      "inputs": [
        {
          "internalType": "bytes32",
          "name": "role",
          "type": "bytes32"
        },
        {
          "internalType": "address",
          "name": "account",
          "type": "address"
        }
      ],
      "name": "revokeRole",
      "outputs": [],
      "stateMutability": "nonpayable",
      "type": "function"
    },
    {
      "inputs": [
        {
          "internalType": "string",
          "name": "",
          "type": "string"
        },
        {
          "internalType": "uint256",
          "name": "",
          "type": "uint256"
        }
      ],
      "name": "rollThresholds",
      "outputs": [
        {
          "internalType": "uint256",
          "name": "",
          "type": "uint256"
        }
      ],
      "stateMutability": "view",
      "type": "function"
    },
    {
      "inputs": [
        {
          "internalType": "bytes4",
          "name": "interfaceId",
          "type": "bytes4"
        }
      ],
      "name": "supportsInterface",
      "outputs": [
        {
          "internalType": "bool",
          "name": "",
          "type": "bool"
        }
      ],
      "stateMutability": "view",
      "type": "function"
    },
    {
      "inputs": [
        {
          "internalType": "string[]",
          "name": "titles",
          "type": "string[]"
        },
        {
          "internalType": "string[]",
          "name": "descriptions",
          "type": "string[]"
        },
        {
          "internalType": "uint16[]",
          "name": "quantities",
          "type": "uint16[]"
        }
      ],
      "name": "addCards",
      "outputs": [],
      "stateMutability": "nonpayable",
      "type": "function"
    },
    {
      "inputs": [
        {
          "internalType": "uint256",
          "name": "randomWord",
          "type": "uint256"
        },
        {
          "internalType": "uint256",
          "name": "rollValue",
          "type": "uint256"
        }
      ],
      "name": "drawCard",
      "outputs": [
        {
          "internalType": "string",
          "name": "",
          "type": "string"
        },
        {
          "internalType": "int8",
          "name": "",
          "type": "int8"
        },
        {
          "internalType": "int8",
          "name": "",
          "type": "int8"
        },
        {
          "internalType": "int8",
          "name": "",
          "type": "int8"
        },
        {
          "internalType": "string",
          "name": "",
          "type": "string"
        },
        {
          "internalType": "string",
          "name": "",
          "type": "string"
        },
        {
          "internalType": "string",
          "name": "",
          "type": "string"
        },
        {
          "internalType": "int256",
          "name": "",
          "type": "int256"
        },
        {
          "internalType": "int256",
          "name": "",
          "type": "int256"
        }
      ],
      "stateMutability": "view",
      "type": "function"
    },
    {
      "inputs": [],
      "name": "getDeck",
      "outputs": [
        {
          "internalType": "string[]",
          "name": "",
          "type": "string[]"
        }
      ],
      "stateMutability": "view",
      "type": "function"
    }
  ],
  "bytecode": "0x60806040523480156200001157600080fd5b506200003a60006200002b64010000000062000040810204565b64010000000062000044810204565b62000202565b3390565b6200005982826401000000006200005d810204565b5050565b62000077828264010000000062000fda620000a482021704565b60008281526001602052604090206200009f90826401000000006200105e6200014082021704565b505050565b620000b9828264010000000062000169810204565b6200005957600082815260208181526040808320600160a060020a03851684529091529020805460ff19166001179055620000fc64010000000062000040810204565b600160a060020a031681600160a060020a0316837f2f8788117e7eff1d82e926ec794901d17c78024a50270940304540a733656f0d60405160405180910390a45050565b60006200016083600160a060020a03841664010000000062000192810204565b90505b92915050565b600091825260208281526040808420600160a060020a0393909316845291905290205460ff1690565b6000620001a98383640100000000620001ea810204565b620001e15750815460018181018455600084815260208082209093018490558454848252828601909352604090209190915562000163565b50600062000163565b60009081526001919091016020526040902054151590565b611cf980620002126000396000f3fe608060405234801561001057600080fd5b5060043610610180576000357c01000000000000000000000000000000000000000000000000000000009004806378064381116100eb578063a17ee4d8116100a4578063a17ee4d8146103a2578063a217fddf146103b5578063a855d6f9146103bd578063ca15c873146103d0578063ce8b5978146103e3578063d547741f146103f6578063d7f9601b1461040957600080fd5b806378064381146102e95780637b7841ce146102fc57806381ecfce81461030f57806388255199146103515780639010d07c1461036457806391d148541461038f57600080fd5b806336568abe1161013d57806336568abe1461024f5780634ad8b06614610262578063507ff42614610275578063512e23bf1461029d5780636e848970146102b057806376796db8146102d657600080fd5b806301ffc9a714610185578063092c5b3b146101ad5780630ab68f52146101e2578063248a9ca3146102025780632f2ff15d14610225578063339434741461023a575b600080fd5b610198610193366004611629565b61041c565b60405190151581526020015b60405180910390f35b6101d47f7b765e0e932d348852a6f810bfa1ab891e259123f02db8cdcde614c57022335781565b6040519081526020016101a4565b6101f56101f036600461170d565b610460565b6040516101a491906117ae565b6101d46102103660046117c1565b60009081526020819052604090206001015490565b6102386102333660046117da565b61051b565b005b610242610545565b6040516101a49190611816565b61023861025d3660046117da565b61061e565b6101d461027036600461170d565b6106b2565b610288610283366004611877565b6106e5565b6040516101a499989796959493929190611899565b6101f56102ab36600461170d565b610be1565b6102c36102be36600461170d565b610c0b565b60405160009190910b81526020016101a4565b6101f56102e436600461170d565b610c52565b6101d46102f736600461170d565b610c7c565b6102c361030a36600461170d565b610ca6565b61033e61031d36600461191e565b805160208183018101805160048252928201919093012091525461ffff1681565b60405161ffff90911681526020016101a4565b6101f561035f36600461191e565b610cd0565b610377610372366004611877565b610cf4565b604051600160a060020a0390911681526020016101a4565b61019861039d3660046117da565b610d13565b6102c36103b036600461170d565b610d3c565b6101d4600081565b6102386103cb366004611a0c565b610d66565b6101d46103de3660046117c1565b610f4a565b6101d46103f136600461170d565b610f61565b6102386104043660046117da565b610f8b565b6101f561041736600461170d565b610fb0565b6000600160e060020a031982167f5a05180f00000000000000000000000000000000000000000000000000000000148061045a575061045a82611073565b92915050565b81516020818401810180516008825292820191850191909120919052816003811061048a57600080fd5b01805490925061049a9150611af8565b80601f01602080910402602001604051908101604052809291908181526020018280546104c690611af8565b80156105135780601f106104e857610100808354040283529160200191610513565b820191906000526020600020905b8154815290600101906020018083116104f657829003601f168201915b505050505081565b600082815260208190526040902060010154610536816110da565b61054083836110e7565b505050565b60606002805480602002602001604051908101604052809291908181526020016000905b8282101561061557838290600052602060002001805461058890611af8565b80601f01602080910402602001604051908101604052809291908181526020018280546105b490611af8565b80156106015780601f106105d657610100808354040283529160200191610601565b820191906000526020600020905b8154815290600101906020018083116105e457829003601f168201915b505050505081526020019060010190610569565b50505050905090565b600160a060020a03811633146106a45760405160e560020a62461bcd02815260206004820152602f60248201527f416363657373436f6e74726f6c3a2063616e206f6e6c792072656e6f756e636560448201527f20726f6c657320666f722073656c66000000000000000000000000000000000060648201526084015b60405180910390fd5b6106ae8282611109565b5050565b8151602081840181018051600d82529282019185019190912091905281600381106106dc57600080fd5b01549150829050565b60606000806000606080606060008060006002805490508c6107079190611b36565b905060006002828154811061071e5761071e611b5b565b90600052602060002001805461073390611af8565b80601f016020809104026020016040519081016040528092919081815260200182805461075f90611af8565b80156107ac5780601f10610781576101008083540402835291602001916107ac565b820191906000526020600020905b81548152906001019060200180831161078f57829003601f168201915b50505050509050600080600d836040516107c69190611b74565b908152604080519182900360200182206060830190915260038282826020028201915b8154815260200190600101908083116107e957505050505090506000600160036108139190611ba9565b90505b81816003811061082857610828611b5b565b60200201518f1061083b57809250610857565b8061084557610857565b8061084f81611bc0565b915050610816565b50826005846040516108699190611b74565b9081526020016040518091039020836003811061088857610888611b5b565b602091828204019190069054906101000a900460000b6006856040516108ae9190611b74565b908152602001604051809103902084600381106108cd576108cd611b5b565b602091828204019190069054906101000a900460000b6007866040516108f39190611b74565b9081526020016040518091039020856003811061091257610912611b5b565b602091828204019190069054906101000a900460000b6009876040516109389190611b74565b9081526020016040518091039020866003811061095757610957611b5b565b016008886040516109689190611b74565b9081526020016040518091039020876003811061098757610987611b5b565b01600a896040516109989190611b74565b908152602001604051809103902088600381106109b7576109b7611b5b565b01600b8a6040516109c89190611b74565b908152602001604051809103902089600381106109e7576109e7611b5b565b0154600c8b6040516109f99190611b74565b90815260200160405180910390208a60038110610a1857610a18611b5b565b0154848054610a2690611af8565b80601f0160208091040260200160405190810160405280929190818152602001828054610a5290611af8565b8015610a9f5780601f10610a7457610100808354040283529160200191610a9f565b820191906000526020600020905b815481529060010190602001808311610a8257829003601f168201915b50505050509450838054610ab290611af8565b80601f0160208091040260200160405190810160405280929190818152602001828054610ade90611af8565b8015610b2b5780601f10610b0057610100808354040283529160200191610b2b565b820191906000526020600020905b815481529060010190602001808311610b0e57829003601f168201915b50505050509350828054610b3e90611af8565b80601f0160208091040260200160405190810160405280929190818152602001828054610b6a90611af8565b8015610bb75780601f10610b8c57610100808354040283529160200191610bb7565b820191906000526020600020905b815481529060010190602001808311610b9a57829003601f168201915b505050505092509c509c509c509c509c509c509c509c509c50505050509295985092959850929598565b81516020818401810180516009825292820191850191909120919052816003811061048a57600080fd5b815160208184018101805160068252928201918501919091209190528160038110610c3557600080fd5b6020810490910154601f9091166101000a900460000b9150829050565b8151602081840181018051600e825292820191850191909120919052816003811061048a57600080fd5b8151602081840181018051600b82529282019185019190912091905281600381106106dc57600080fd5b815160208184018101805160078252928201918501919091209190528160038110610c3557600080fd5b80516020818301810180516003825292820191909301209152805461049a90611af8565b6000828152600160205260408120610d0c908361112b565b9392505050565b600091825260208281526040808420600160a060020a0393909316845291905290205460ff1690565b815160208184018101805160058252928201918501919091209190528160038110610c3557600080fd5b6000610d71816110da565b82518451148015610d83575081518451145b610dd25760405160e560020a62461bcd02815260206004820152601760248201527f6172726179207175616e74697479206d69736d61746368000000000000000000604482015260640161069b565b60005b8451811015610f43576000858281518110610df257610df2611b5b565b60200260200101519050600481604051610e0c9190611b74565b9081526040519081900360200190205461ffff16158015610e4b5750838281518110610e3a57610e3a611b5b565b602002602001015161ffff16600014155b15610f3057600280546001810182556000919091528151610e93917f405787fa12a823e0f2b7631cc41b3ba8828b3321ca811111fa75cd3aa3bb5ace01906020840190611590565b50848281518110610ea657610ea6611b5b565b6020026020010151600382604051610ebe9190611b74565b90815260200160405180910390209080519060200190610edf929190611590565b50838281518110610ef257610ef2611b5b565b6020026020010151600482604051610f0a9190611b74565b908152604051908190036020019020805461ffff9290921661ffff199092169190911790555b5080610f3b81611bd7565b915050610dd5565b5050505050565b600081815260016020526040812061045a90611137565b8151602081840181018051600c82529282019185019190912091905281600381106106dc57600080fd5b600082815260208190526040902060010154610fa6816110da565b6105408383611109565b8151602081840181018051600a825292820191850191909120919052816003811061048a57600080fd5b610fe48282610d13565b6106ae57600082815260208181526040808320600160a060020a03851684529091529020805460ff1916600117905561101a3390565b600160a060020a031681600160a060020a0316837f2f8788117e7eff1d82e926ec794901d17c78024a50270940304540a733656f0d60405160405180910390a45050565b6000610d0c83600160a060020a038416611141565b6000600160e060020a031982167f7965db0b00000000000000000000000000000000000000000000000000000000148061045a57507f01ffc9a700000000000000000000000000000000000000000000000000000000600160e060020a031983161461045a565b6110e48133611190565b50565b6110f18282610fda565b6000828152600160205260409020610540908261105e565b61111382826111f7565b6000828152600160205260409020610540908261125c565b6000610d0c8383611271565b600061045a825490565b60008181526001830160205260408120546111885750815460018181018455600084815260208082209093018490558454848252828601909352604090209190915561045a565b50600061045a565b61119a8282610d13565b6106ae576111b281600160a060020a0316601461129b565b6111bd83602061129b565b6040516020016111ce929190611bf2565b60408051601f198184030181529082905260e560020a62461bcd02825261069b916004016117ae565b6112018282610d13565b156106ae57600082815260208181526040808320600160a060020a0385168085529252808320805460ff1916905551339285917ff6391f5c32d9c69d2a47ea670b442974b53935d1edc7fd64eb21e047a839171b9190a45050565b6000610d0c83600160a060020a03841661149d565b600082600001828154811061128857611288611b5b565b9060005260206000200154905092915050565b606060006112aa836002611c73565b6112b5906002611c92565b67ffffffffffffffff8111156112cd576112cd611653565b6040519080825280601f01601f1916602001820160405280156112f7576020820181803683370190505b5090507f30000000000000000000000000000000000000000000000000000000000000008160008151811061132e5761132e611b5b565b6020010190600160f860020a031916908160001a9053507f78000000000000000000000000000000000000000000000000000000000000008160018151811061137957611379611b5b565b6020010190600160f860020a031916908160001a905350600061139d846002611c73565b6113a8906001611c92565b90505b600181111561144b577f303132333435363738396162636465660000000000000000000000000000000085600f16601081106113e9576113e9611b5b565b1a7f01000000000000000000000000000000000000000000000000000000000000000282828151811061141e5761141e611b5b565b6020010190600160f860020a031916908160001a90535060109094049361144481611bc0565b90506113ab565b508315610d0c5760405160e560020a62461bcd02815260206004820181905260248201527f537472696e67733a20686578206c656e67746820696e73756666696369656e74604482015260640161069b565b600081815260018301602052604081205480156115865760006114c1600183611ba9565b85549091506000906114d590600190611ba9565b905081811461153a5760008660000182815481106114f5576114f5611b5b565b906000526020600020015490508087600001848154811061151857611518611b5b565b6000918252602080832090910192909255918252600188019052604090208390555b855486908061154b5761154b611caa565b60019003818190600052602060002001600090559055856001016000868152602001908152602001600020600090556001935050505061045a565b600091505061045a565b82805461159c90611af8565b90600052602060002090601f0160209004810192826115be5760008555611604565b82601f106115d757805160ff1916838001178555611604565b82800160010185558215611604579182015b828111156116045782518255916020019190600101906115e9565b50611610929150611614565b5090565b5b808211156116105760008155600101611615565b60006020828403121561163b57600080fd5b8135600160e060020a031981168114610d0c57600080fd5b60e060020a634e487b7102600052604160045260246000fd5b604051601f8201601f1916810167ffffffffffffffff8111828210171561169557611695611653565b604052919050565b600082601f8301126116ae57600080fd5b813567ffffffffffffffff8111156116c8576116c8611653565b6116db601f8201601f191660200161166c565b8181528460208386010111156116f057600080fd5b816020850160208301376000918101602001919091529392505050565b6000806040838503121561172057600080fd5b823567ffffffffffffffff81111561173757600080fd5b6117438582860161169d565b95602094909401359450505050565b60005b8381101561176d578181015183820152602001611755565b8381111561177c576000848401525b50505050565b6000815180845261179a816020860160208601611752565b601f01601f19169290920160200192915050565b602081526000610d0c6020830184611782565b6000602082840312156117d357600080fd5b5035919050565b600080604083850312156117ed57600080fd5b823591506020830135600160a060020a038116811461180b57600080fd5b809150509250929050565b600060208083018184528085518083526040860191506040848202870101925083870160005b8281101561186a57603f19888603018452611858858351611782565b9450928501929085019060010161183c565b5092979650505050505050565b6000806040838503121561188a57600080fd5b50508035926020909101359150565b60006101208083526118ad8184018d611782565b90508a60000b60208401528960000b60408401528860000b606084015282810360808401526118dc8189611782565b905082810360a08401526118f08188611782565b905082810360c08401526119048187611782565b60e084019590955250506101000152979650505050505050565b60006020828403121561193057600080fd5b813567ffffffffffffffff81111561194757600080fd5b6119538482850161169d565b949350505050565b600067ffffffffffffffff82111561197557611975611653565b5060209081020190565b600082601f83011261199057600080fd5b813560206119a56119a08361195b565b61166c565b828152918102840181019181810190868411156119c157600080fd5b8286015b84811015611a0157803567ffffffffffffffff8111156119e55760008081fd5b6119f38986838b010161169d565b8452509183019183016119c5565b509695505050505050565b600080600060608486031215611a2157600080fd5b833567ffffffffffffffff80821115611a3957600080fd5b611a458783880161197f565b9450602091508186013581811115611a5c57600080fd5b611a688882890161197f565b945050604086013581811115611a7d57600080fd5b86019050601f81018713611a9057600080fd5b8035611a9e6119a08261195b565b81815290830282018301908381019089831115611aba57600080fd5b928401925b82841015611ae957833561ffff81168114611ada5760008081fd5b82529284019290840190611abf565b80955050505050509250925092565b600281046001821680611b0c57607f821691505b60208210811415611b305760e060020a634e487b7102600052602260045260246000fd5b50919050565b600082611b565760e060020a634e487b7102600052601260045260246000fd5b500690565b60e060020a634e487b7102600052603260045260246000fd5b60008251611b86818460208701611752565b9190910192915050565b60e060020a634e487b7102600052601160045260246000fd5b600082821015611bbb57611bbb611b90565b500390565b600081611bcf57611bcf611b90565b506000190190565b6000600019821415611beb57611beb611b90565b5060010190565b7f416363657373436f6e74726f6c3a206163636f756e7420000000000000000000815260008351611c2a816017850160208801611752565b7f206973206d697373696e6720726f6c65200000000000000000000000000000006017918401918201528351611c67816028840160208801611752565b01602801949350505050565b6000816000190483118215151615611c8d57611c8d611b90565b500290565b60008219821115611ca557611ca5611b90565b500190565b60e060020a634e487b7102600052603160045260246000fdfea264697066735822122017ded5e6cfb3e6b9a544d909ee4c5573b68a628825a9d027892bf8d10559fd8364736f6c634300080b0033",
  "immutableReferences": {},
  "source": "// SPDX-License-Identifier: GPL-3.0\npragma solidity >=0.7.0 <0.9.0;\n\nimport \"@openzeppelin/contracts/access/AccessControlEnumerable.sol\";\n\ncontract CardDeck is AccessControlEnumerable {\n    // This is an infinite deck, cards drawn are not removed from deck\n    // We can set card \"quantities\" for desireable probability\n\n    // controller role should be set to a controller contract\n    // not used by default, provided if going to make custom deck with limited access\n    bytes32 public constant CONTROLLER_ROLE = keccak256(\"CONTROLLER_ROLE\");\n\n    string[] private _cards;\n\n    // mappings from card name\n    // should all store same size array of values, even if empty\n    mapping(string => string) public description;\n    mapping(string => uint16) public quantity;\n    mapping(string => int8[3]) public movementAdjust;\n    mapping(string => int8[3]) public agilityAdjust;\n    mapping(string => int8[3]) public dexterityAdjust;\n    mapping(string => string[3]) public itemGain;\n    mapping(string => string[3]) public itemLoss;\n    mapping(string => string[3]) public handLoss;\n    mapping(string => int256[3]) public movementX;\n    mapping(string => int256[3]) public movementY;\n    mapping(string => uint256[3]) public rollThresholds; // [0, 3, 4] what to roll to receive matching index of mapping\n    mapping(string => string[3]) public outcomeDescription;\n\n    constructor() {\n        _setupRole(DEFAULT_ADMIN_ROLE, _msgSender());\n    }\n\n    function addCards(\n        string[] memory titles,\n        string[] memory descriptions,\n        uint16[] memory quantities\n    ) public onlyRole(DEFAULT_ADMIN_ROLE) {\n        require(\n            titles.length == descriptions.length &&\n                titles.length == quantities.length,\n            \"array quantity mismatch\"\n        );\n        for (uint256 i = 0; i < titles.length; i++) {\n            // only add if not already added and set quantity is not 0\n            string memory title = titles[i];\n            if (quantity[title] == 0 && quantities[i] != 0) {\n                _cards.push(title);\n                description[title] = descriptions[i];\n                quantity[title] = quantities[i];\n            }\n        }\n    }\n\n    // this function does not provide randomness,\n    // passing the same random word will yield the same draw.\n    // randomness should come from controller\n    function drawCard(uint256 randomWord, uint256 rollValue)\n        public\n        view\n        virtual\n        returns (\n            string memory,\n            int8,\n            int8,\n            int8,\n            string memory,\n            string memory,\n            string memory,\n            int256,\n            int256\n        )\n    {\n        uint256 cardIndex = randomWord % _cards.length;\n        string memory card = _cards[cardIndex];\n        // TODO:\n        // find index of roll ()\n        uint256 rollIndex = 0;\n        uint256[3] memory thresholds = rollThresholds[card];\n        for (uint256 i = thresholds.length - 1; i >= 0; i--) {\n            if (rollValue >= thresholds[i]) {\n                rollIndex = i;\n                break;\n            }\n            if (i == 0) {\n                break;\n            }\n        }\n        // match index with all attributes\n        return (\n            card,\n            movementAdjust[card][rollIndex],\n            agilityAdjust[card][rollIndex],\n            dexterityAdjust[card][rollIndex],\n            itemLoss[card][rollIndex],\n            itemGain[card][rollIndex],\n            handLoss[card][rollIndex],\n            movementX[card][rollIndex],\n            movementY[card][rollIndex]\n        );\n    }\n\n    function getDeck() public view returns (string[] memory) {\n        return _cards;\n    }\n}\n",
  "sourcePath": "/Users/maxmeier/Developer/Lucky Machines/hexploration/contracts/decks/CardDeck.sol",
  "compiler": {
    "name": "solc",
    "version": "0.8.11+commit.d7f03943.Emscripten.clang"
  },
  "schemaVersion": "3.4.4",
  "updatedAt": "2022-05-25T17:09:14.983Z",
  "devdoc": {
    "kind": "dev",
    "methods": {
      "getRoleAdmin(bytes32)": {
        "details": "Returns the admin role that controls `role`. See {grantRole} and {revokeRole}. To change a role's admin, use {_setRoleAdmin}."
      },
      "getRoleMember(bytes32,uint256)": {
        "details": "Returns one of the accounts that have `role`. `index` must be a value between 0 and {getRoleMemberCount}, non-inclusive. Role bearers are not sorted in any particular way, and their ordering may change at any point. WARNING: When using {getRoleMember} and {getRoleMemberCount}, make sure you perform all queries on the same block. See the following https://forum.openzeppelin.com/t/iterating-over-elements-on-enumerableset-in-openzeppelin-contracts/2296[forum post] for more information."
      },
      "getRoleMemberCount(bytes32)": {
        "details": "Returns the number of accounts that have `role`. Can be used together with {getRoleMember} to enumerate all bearers of a role."
      },
      "grantRole(bytes32,address)": {
        "details": "Grants `role` to `account`. If `account` had not been already granted `role`, emits a {RoleGranted} event. Requirements: - the caller must have ``role``'s admin role."
      },
      "hasRole(bytes32,address)": {
        "details": "Returns `true` if `account` has been granted `role`."
      },
      "renounceRole(bytes32,address)": {
        "details": "Revokes `role` from the calling account. Roles are often managed via {grantRole} and {revokeRole}: this function's purpose is to provide a mechanism for accounts to lose their privileges if they are compromised (such as when a trusted device is misplaced). If the calling account had been revoked `role`, emits a {RoleRevoked} event. Requirements: - the caller must be `account`."
      },
      "revokeRole(bytes32,address)": {
        "details": "Revokes `role` from `account`. If `account` had been granted `role`, emits a {RoleRevoked} event. Requirements: - the caller must have ``role``'s admin role."
      },
      "supportsInterface(bytes4)": {
        "details": "See {IERC165-supportsInterface}."
      }
    },
    "version": 1
  },
  "userdoc": {
    "kind": "user",
    "methods": {},
    "version": 1
  }
}