{
  "contractName": "CardDeck",
  "abi": [
    {
      "inputs": [],
      "stateMutability": "nonpayable",
      "type": "constructor"
    },
    {
      "anonymous": false,
      "inputs": [
        {
          "indexed": true,
          "internalType": "bytes32",
          "name": "role",
          "type": "bytes32"
        },
        {
          "indexed": true,
          "internalType": "bytes32",
          "name": "previousAdminRole",
          "type": "bytes32"
        },
        {
          "indexed": true,
          "internalType": "bytes32",
          "name": "newAdminRole",
          "type": "bytes32"
        }
      ],
      "name": "RoleAdminChanged",
      "type": "event"
    },
    {
      "anonymous": false,
      "inputs": [
        {
          "indexed": true,
          "internalType": "bytes32",
          "name": "role",
          "type": "bytes32"
        },
        {
          "indexed": true,
          "internalType": "address",
          "name": "account",
          "type": "address"
        },
        {
          "indexed": true,
          "internalType": "address",
          "name": "sender",
          "type": "address"
        }
      ],
      "name": "RoleGranted",
      "type": "event"
    },
    {
      "anonymous": false,
      "inputs": [
        {
          "indexed": true,
          "internalType": "bytes32",
          "name": "role",
          "type": "bytes32"
        },
        {
          "indexed": true,
          "internalType": "address",
          "name": "account",
          "type": "address"
        },
        {
          "indexed": true,
          "internalType": "address",
          "name": "sender",
          "type": "address"
        }
      ],
      "name": "RoleRevoked",
      "type": "event"
    },
    {
      "inputs": [],
      "name": "CONTROLLER_ROLE",
      "outputs": [
        {
          "internalType": "bytes32",
          "name": "",
          "type": "bytes32"
        }
      ],
      "stateMutability": "view",
      "type": "function"
    },
    {
      "inputs": [],
      "name": "DEFAULT_ADMIN_ROLE",
      "outputs": [
        {
          "internalType": "bytes32",
          "name": "",
          "type": "bytes32"
        }
      ],
      "stateMutability": "view",
      "type": "function"
    },
    {
      "inputs": [
        {
          "internalType": "string",
          "name": "",
          "type": "string"
        },
        {
          "internalType": "uint256",
          "name": "",
          "type": "uint256"
        }
      ],
      "name": "agilityAdjust",
      "outputs": [
        {
          "internalType": "int8",
          "name": "",
          "type": "int8"
        }
      ],
      "stateMutability": "view",
      "type": "function"
    },
    {
      "inputs": [
        {
          "internalType": "string",
          "name": "",
          "type": "string"
        }
      ],
      "name": "description",
      "outputs": [
        {
          "internalType": "string",
          "name": "",
          "type": "string"
        }
      ],
      "stateMutability": "view",
      "type": "function"
    },
    {
      "inputs": [
        {
          "internalType": "string",
          "name": "",
          "type": "string"
        },
        {
          "internalType": "uint256",
          "name": "",
          "type": "uint256"
        }
      ],
      "name": "dexterityAdjust",
      "outputs": [
        {
          "internalType": "int8",
          "name": "",
          "type": "int8"
        }
      ],
      "stateMutability": "view",
      "type": "function"
    },
    {
      "inputs": [
        {
          "internalType": "bytes32",
          "name": "role",
          "type": "bytes32"
        }
      ],
      "name": "getRoleAdmin",
      "outputs": [
        {
          "internalType": "bytes32",
          "name": "",
          "type": "bytes32"
        }
      ],
      "stateMutability": "view",
      "type": "function"
    },
    {
      "inputs": [
        {
          "internalType": "bytes32",
          "name": "role",
          "type": "bytes32"
        },
        {
          "internalType": "uint256",
          "name": "index",
          "type": "uint256"
        }
      ],
      "name": "getRoleMember",
      "outputs": [
        {
          "internalType": "address",
          "name": "",
          "type": "address"
        }
      ],
      "stateMutability": "view",
      "type": "function"
    },
    {
      "inputs": [
        {
          "internalType": "bytes32",
          "name": "role",
          "type": "bytes32"
        }
      ],
      "name": "getRoleMemberCount",
      "outputs": [
        {
          "internalType": "uint256",
          "name": "",
          "type": "uint256"
        }
      ],
      "stateMutability": "view",
      "type": "function"
    },
    {
      "inputs": [
        {
          "internalType": "bytes32",
          "name": "role",
          "type": "bytes32"
        },
        {
          "internalType": "address",
          "name": "account",
          "type": "address"
        }
      ],
      "name": "grantRole",
      "outputs": [],
      "stateMutability": "nonpayable",
      "type": "function"
    },
    {
      "inputs": [
        {
          "internalType": "string",
          "name": "",
          "type": "string"
        },
        {
          "internalType": "uint256",
          "name": "",
          "type": "uint256"
        }
      ],
      "name": "handLoss",
      "outputs": [
        {
          "internalType": "string",
          "name": "",
          "type": "string"
        }
      ],
      "stateMutability": "view",
      "type": "function"
    },
    {
      "inputs": [
        {
          "internalType": "bytes32",
          "name": "role",
          "type": "bytes32"
        },
        {
          "internalType": "address",
          "name": "account",
          "type": "address"
        }
      ],
      "name": "hasRole",
      "outputs": [
        {
          "internalType": "bool",
          "name": "",
          "type": "bool"
        }
      ],
      "stateMutability": "view",
      "type": "function"
    },
    {
      "inputs": [
        {
          "internalType": "string",
          "name": "",
          "type": "string"
        },
        {
          "internalType": "uint256",
          "name": "",
          "type": "uint256"
        }
      ],
      "name": "itemGain",
      "outputs": [
        {
          "internalType": "string",
          "name": "",
          "type": "string"
        }
      ],
      "stateMutability": "view",
      "type": "function"
    },
    {
      "inputs": [
        {
          "internalType": "string",
          "name": "",
          "type": "string"
        },
        {
          "internalType": "uint256",
          "name": "",
          "type": "uint256"
        }
      ],
      "name": "itemLoss",
      "outputs": [
        {
          "internalType": "string",
          "name": "",
          "type": "string"
        }
      ],
      "stateMutability": "view",
      "type": "function"
    },
    {
      "inputs": [
        {
          "internalType": "string",
          "name": "",
          "type": "string"
        },
        {
          "internalType": "uint256",
          "name": "",
          "type": "uint256"
        }
      ],
      "name": "movementAdjust",
      "outputs": [
        {
          "internalType": "int8",
          "name": "",
          "type": "int8"
        }
      ],
      "stateMutability": "view",
      "type": "function"
    },
    {
      "inputs": [
        {
          "internalType": "string",
          "name": "",
          "type": "string"
        },
        {
          "internalType": "uint256",
          "name": "",
          "type": "uint256"
        }
      ],
      "name": "movementX",
      "outputs": [
        {
          "internalType": "int256",
          "name": "",
          "type": "int256"
        }
      ],
      "stateMutability": "view",
      "type": "function"
    },
    {
      "inputs": [
        {
          "internalType": "string",
          "name": "",
          "type": "string"
        },
        {
          "internalType": "uint256",
          "name": "",
          "type": "uint256"
        }
      ],
      "name": "movementY",
      "outputs": [
        {
          "internalType": "int256",
          "name": "",
          "type": "int256"
        }
      ],
      "stateMutability": "view",
      "type": "function"
    },
    {
      "inputs": [
        {
          "internalType": "string",
          "name": "",
          "type": "string"
        },
        {
          "internalType": "uint256",
          "name": "",
          "type": "uint256"
        }
      ],
      "name": "outcomeDescription",
      "outputs": [
        {
          "internalType": "string",
          "name": "",
          "type": "string"
        }
      ],
      "stateMutability": "view",
      "type": "function"
    },
    {
      "inputs": [
        {
          "internalType": "string",
          "name": "",
          "type": "string"
        }
      ],
      "name": "quantity",
      "outputs": [
        {
          "internalType": "uint16",
          "name": "",
          "type": "uint16"
        }
      ],
      "stateMutability": "view",
      "type": "function"
    },
    {
      "inputs": [
        {
          "internalType": "bytes32",
          "name": "role",
          "type": "bytes32"
        },
        {
          "internalType": "address",
          "name": "account",
          "type": "address"
        }
      ],
      "name": "renounceRole",
      "outputs": [],
      "stateMutability": "nonpayable",
      "type": "function"
    },
    {
      "inputs": [
        {
          "internalType": "bytes32",
          "name": "role",
          "type": "bytes32"
        },
        {
          "internalType": "address",
          "name": "account",
          "type": "address"
        }
      ],
      "name": "revokeRole",
      "outputs": [],
      "stateMutability": "nonpayable",
      "type": "function"
    },
    {
      "inputs": [
        {
          "internalType": "string",
          "name": "",
          "type": "string"
        },
        {
          "internalType": "uint256",
          "name": "",
          "type": "uint256"
        }
      ],
      "name": "rollThresholds",
      "outputs": [
        {
          "internalType": "uint256",
          "name": "",
          "type": "uint256"
        }
      ],
      "stateMutability": "view",
      "type": "function"
    },
    {
      "inputs": [
        {
          "internalType": "string",
          "name": "",
          "type": "string"
        }
      ],
      "name": "rollTypeRequired",
      "outputs": [
        {
          "internalType": "uint256",
          "name": "",
          "type": "uint256"
        }
      ],
      "stateMutability": "view",
      "type": "function"
    },
    {
      "inputs": [
        {
          "internalType": "bytes4",
          "name": "interfaceId",
          "type": "bytes4"
        }
      ],
      "name": "supportsInterface",
      "outputs": [
        {
          "internalType": "bool",
          "name": "",
          "type": "bool"
        }
      ],
      "stateMutability": "view",
      "type": "function"
    },
    {
      "inputs": [
        {
          "internalType": "string[]",
          "name": "titles",
          "type": "string[]"
        },
        {
          "internalType": "string[]",
          "name": "descriptions",
          "type": "string[]"
        },
        {
          "internalType": "uint16[]",
          "name": "quantities",
          "type": "uint16[]"
        }
      ],
      "name": "addCards",
      "outputs": [],
      "stateMutability": "nonpayable",
      "type": "function"
    },
    {
      "inputs": [
        {
          "internalType": "uint256",
          "name": "randomWord",
          "type": "uint256"
        },
        {
          "internalType": "uint256[3]",
          "name": "rollValues",
          "type": "uint256[3]"
        }
      ],
      "name": "drawCard",
      "outputs": [
        {
          "internalType": "string",
          "name": "",
          "type": "string"
        },
        {
          "internalType": "int8",
          "name": "",
          "type": "int8"
        },
        {
          "internalType": "int8",
          "name": "",
          "type": "int8"
        },
        {
          "internalType": "int8",
          "name": "",
          "type": "int8"
        },
        {
          "internalType": "string",
          "name": "",
          "type": "string"
        },
        {
          "internalType": "string",
          "name": "",
          "type": "string"
        },
        {
          "internalType": "string",
          "name": "",
          "type": "string"
        },
        {
          "internalType": "int256",
          "name": "",
          "type": "int256"
        },
        {
          "internalType": "int256",
          "name": "",
          "type": "int256"
        }
      ],
      "stateMutability": "view",
      "type": "function"
    },
    {
      "inputs": [],
      "name": "getDeck",
      "outputs": [
        {
          "internalType": "string[]",
          "name": "",
          "type": "string[]"
        }
      ],
      "stateMutability": "view",
      "type": "function"
    }
  ],
  "bytecode": "0x60806040523480156200001157600080fd5b506200003a60006200002b64010000000062000040810204565b64010000000062000044810204565b62000202565b3390565b6200005982826401000000006200005d810204565b5050565b62000077828264010000000062001050620000a482021704565b60008281526001602052604090206200009f9082640100000000620010d46200014082021704565b505050565b620000b9828264010000000062000169810204565b6200005957600082815260208181526040808320600160a060020a03851684529091529020805460ff19166001179055620000fc64010000000062000040810204565b600160a060020a031681600160a060020a0316837f2f8788117e7eff1d82e926ec794901d17c78024a50270940304540a733656f0d60405160405180910390a45050565b60006200016083600160a060020a03841664010000000062000192810204565b90505b92915050565b600091825260208281526040808420600160a060020a0393909316845291905290205460ff1690565b6000620001a98383640100000000620001ea810204565b620001e15750815460018181018455600084815260208082209093018490558454848252828601909352604090209190915562000163565b50600062000163565b60009081526001919091016020526040902054151590565b611df980620002126000396000f3fe608060405234801561001057600080fd5b506004361061018b576000357c0100000000000000000000000000000000000000000000000000000000900480637b7841ce116100eb578063a217fddf116100a4578063a217fddf146103c0578063a855d6f9146103c8578063ca15c873146103db578063ce8b5978146103ee578063d547741f14610401578063d7f9601b14610414578063ef6fe0fa1461042757600080fd5b80637b7841ce1461030757806381ecfce81461031a578063882551991461035c5780639010d07c1461036f57806391d148541461039a578063a17ee4d8146103ad57600080fd5b806336568abe1161014857806336568abe1461025a5780634ad8b0661461026d578063512e23bf146102805780636e84897014610293578063750211b9146102b957806376796db8146102e157806378064381146102f457600080fd5b806301ffc9a714610190578063092c5b3b146101b85780630ab68f52146101ed578063248a9ca31461020d5780632f2ff15d146102305780633394347414610245575b600080fd5b6101a361019e36600461169f565b610452565b60405190151581526020015b60405180910390f35b6101df7f7b765e0e932d348852a6f810bfa1ab891e259123f02db8cdcde614c57022335781565b6040519081526020016101af565b6102006101fb366004611783565b610496565b6040516101af9190611824565b6101df61021b366004611837565b60009081526020819052604090206001015490565b61024361023e366004611850565b610551565b005b61024d61057b565b6040516101af919061188c565b610243610268366004611850565b610654565b6101df61027b366004611783565b6106e8565b61020061028e366004611783565b61071b565b6102a66102a1366004611783565b610745565b60405160009190910b81526020016101af565b6102cc6102c73660046118ed565b61078c565b6040516101af99989796959493929190611977565b6102006102ef366004611783565b610cc8565b6101df610302366004611783565b610cf2565b6102a6610315366004611783565b610d1c565b6103496103283660046119fc565b805160208183018101805160048252928201919093012091525461ffff1681565b60405161ffff90911681526020016101af565b61020061036a3660046119fc565b610d46565b61038261037d366004611a39565b610d6a565b604051600160a060020a0390911681526020016101af565b6101a36103a8366004611850565b610d89565b6102a66103bb366004611783565b610db2565b6101df600081565b6102436103d6366004611b0c565b610ddc565b6101df6103e9366004611837565b610fc0565b6101df6103fc366004611783565b610fd7565b61024361040f366004611850565b611001565b610200610422366004611783565b611026565b6101df6104353660046119fc565b8051602081830181018051600f8252928201919093012091525481565b6000600160e060020a031982167f5a05180f0000000000000000000000000000000000000000000000000000000014806104905750610490826110e9565b92915050565b8151602081840181018051600882529282019185019190912091905281600381106104c057600080fd5b0180549092506104d09150611bf8565b80601f01602080910402602001604051908101604052809291908181526020018280546104fc90611bf8565b80156105495780601f1061051e57610100808354040283529160200191610549565b820191906000526020600020905b81548152906001019060200180831161052c57829003601f168201915b505050505081565b60008281526020819052604090206001015461056c81611150565b610576838361115d565b505050565b60606002805480602002602001604051908101604052809291908181526020016000905b8282101561064b5783829060005260206000200180546105be90611bf8565b80601f01602080910402602001604051908101604052809291908181526020018280546105ea90611bf8565b80156106375780601f1061060c57610100808354040283529160200191610637565b820191906000526020600020905b81548152906001019060200180831161061a57829003601f168201915b50505050508152602001906001019061059f565b50505050905090565b600160a060020a03811633146106da5760405160e560020a62461bcd02815260206004820152602f60248201527f416363657373436f6e74726f6c3a2063616e206f6e6c792072656e6f756e636560448201527f20726f6c657320666f722073656c66000000000000000000000000000000000060648201526084015b60405180910390fd5b6106e4828261117f565b5050565b8151602081840181018051600d825292820191850191909120919052816003811061071257600080fd5b01549150829050565b8151602081840181018051600982529282019185019190912091905281600381106104c057600080fd5b81516020818401810180516006825292820191850191909120919052816003811061076f57600080fd5b6020810490910154601f9091166101000a900460000b9150829050565b60606000806000606080606060008060006002805490508c6107ae9190611c36565b90506000600282815481106107c5576107c5611c5b565b9060005260206000200180546107da90611bf8565b80601f016020809104026020016040519081016040528092919081815260200182805461080690611bf8565b80156108535780601f1061082857610100808354040283529160200191610853565b820191906000526020600020905b81548152906001019060200180831161083657829003601f168201915b50505050509050600080600f8360405161086d9190611c74565b908152602001604051809103902054905060008e826003811061089257610892611c5b565b602002015190506000600d856040516108ab9190611c74565b908152604080519182900360200182206060830190915260038282826020028201915b8154815260200190600101908083116108ce57505050505090506000600160036108f89190611ca9565b90505b81816003811061090d5761090d611c5b565b602002015183106109205780945061093c565b8061092a5761093c565b8061093481611cc0565b9150506108fb565b508460058660405161094e9190611c74565b9081526020016040518091039020856003811061096d5761096d611c5b565b602091828204019190069054906101000a900460000b6006876040516109939190611c74565b908152602001604051809103902086600381106109b2576109b2611c5b565b602091828204019190069054906101000a900460000b6007886040516109d89190611c74565b908152602001604051809103902087600381106109f7576109f7611c5b565b602091828204019190069054906101000a900460000b600989604051610a1d9190611c74565b90815260200160405180910390208860038110610a3c57610a3c611c5b565b0160088a604051610a4d9190611c74565b90815260200160405180910390208960038110610a6c57610a6c611c5b565b01600a8b604051610a7d9190611c74565b90815260200160405180910390208a60038110610a9c57610a9c611c5b565b01600b8c604051610aad9190611c74565b90815260200160405180910390208b60038110610acc57610acc611c5b565b0154600c8d604051610ade9190611c74565b90815260200160405180910390208c60038110610afd57610afd611c5b565b0154848054610b0b90611bf8565b80601f0160208091040260200160405190810160405280929190818152602001828054610b3790611bf8565b8015610b845780601f10610b5957610100808354040283529160200191610b84565b820191906000526020600020905b815481529060010190602001808311610b6757829003601f168201915b50505050509450838054610b9790611bf8565b80601f0160208091040260200160405190810160405280929190818152602001828054610bc390611bf8565b8015610c105780601f10610be557610100808354040283529160200191610c10565b820191906000526020600020905b815481529060010190602001808311610bf357829003601f168201915b50505050509350828054610c2390611bf8565b80601f0160208091040260200160405190810160405280929190818152602001828054610c4f90611bf8565b8015610c9c5780601f10610c7157610100808354040283529160200191610c9c565b820191906000526020600020905b815481529060010190602001808311610c7f57829003601f168201915b505050505092509e509e509e509e509e509e509e509e509e505050505050509295985092959850929598565b8151602081840181018051600e82529282019185019190912091905281600381106104c057600080fd5b8151602081840181018051600b825292820191850191909120919052816003811061071257600080fd5b81516020818401810180516007825292820191850191909120919052816003811061076f57600080fd5b8051602081830181018051600382529282019190930120915280546104d090611bf8565b6000828152600160205260408120610d8290836111a1565b9392505050565b600091825260208281526040808420600160a060020a0393909316845291905290205460ff1690565b81516020818401810180516005825292820191850191909120919052816003811061076f57600080fd5b6000610de781611150565b82518451148015610df9575081518451145b610e485760405160e560020a62461bcd02815260206004820152601760248201527f6172726179207175616e74697479206d69736d6174636800000000000000000060448201526064016106d1565b60005b8451811015610fb9576000858281518110610e6857610e68611c5b565b60200260200101519050600481604051610e829190611c74565b9081526040519081900360200190205461ffff16158015610ec15750838281518110610eb057610eb0611c5b565b602002602001015161ffff16600014155b15610fa657600280546001810182556000919091528151610f09917f405787fa12a823e0f2b7631cc41b3ba8828b3321ca811111fa75cd3aa3bb5ace01906020840190611606565b50848281518110610f1c57610f1c611c5b565b6020026020010151600382604051610f349190611c74565b90815260200160405180910390209080519060200190610f55929190611606565b50838281518110610f6857610f68611c5b565b6020026020010151600482604051610f809190611c74565b908152604051908190036020019020805461ffff9290921661ffff199092169190911790555b5080610fb181611cd7565b915050610e4b565b5050505050565b6000818152600160205260408120610490906111ad565b8151602081840181018051600c825292820191850191909120919052816003811061071257600080fd5b60008281526020819052604090206001015461101c81611150565b610576838361117f565b8151602081840181018051600a82529282019185019190912091905281600381106104c057600080fd5b61105a8282610d89565b6106e457600082815260208181526040808320600160a060020a03851684529091529020805460ff191660011790556110903390565b600160a060020a031681600160a060020a0316837f2f8788117e7eff1d82e926ec794901d17c78024a50270940304540a733656f0d60405160405180910390a45050565b6000610d8283600160a060020a0384166111b7565b6000600160e060020a031982167f7965db0b00000000000000000000000000000000000000000000000000000000148061049057507f01ffc9a700000000000000000000000000000000000000000000000000000000600160e060020a0319831614610490565b61115a8133611206565b50565b6111678282611050565b600082815260016020526040902061057690826110d4565b611189828261126d565b600082815260016020526040902061057690826112d2565b6000610d8283836112e7565b6000610490825490565b60008181526001830160205260408120546111fe57508154600181810184556000848152602080822090930184905584548482528286019093526040902091909155610490565b506000610490565b6112108282610d89565b6106e45761122881600160a060020a03166014611311565b611233836020611311565b604051602001611244929190611cf2565b60408051601f198184030181529082905260e560020a62461bcd0282526106d191600401611824565b6112778282610d89565b156106e457600082815260208181526040808320600160a060020a0385168085529252808320805460ff1916905551339285917ff6391f5c32d9c69d2a47ea670b442974b53935d1edc7fd64eb21e047a839171b9190a45050565b6000610d8283600160a060020a038416611513565b60008260000182815481106112fe576112fe611c5b565b9060005260206000200154905092915050565b60606000611320836002611d73565b61132b906002611d92565b67ffffffffffffffff811115611343576113436116c9565b6040519080825280601f01601f19166020018201604052801561136d576020820181803683370190505b5090507f3000000000000000000000000000000000000000000000000000000000000000816000815181106113a4576113a4611c5b565b6020010190600160f860020a031916908160001a9053507f7800000000000000000000000000000000000000000000000000000000000000816001815181106113ef576113ef611c5b565b6020010190600160f860020a031916908160001a9053506000611413846002611d73565b61141e906001611d92565b90505b60018111156114c1577f303132333435363738396162636465660000000000000000000000000000000085600f166010811061145f5761145f611c5b565b1a7f01000000000000000000000000000000000000000000000000000000000000000282828151811061149457611494611c5b565b6020010190600160f860020a031916908160001a9053506010909404936114ba81611cc0565b9050611421565b508315610d825760405160e560020a62461bcd02815260206004820181905260248201527f537472696e67733a20686578206c656e67746820696e73756666696369656e7460448201526064016106d1565b600081815260018301602052604081205480156115fc576000611537600183611ca9565b855490915060009061154b90600190611ca9565b90508181146115b057600086600001828154811061156b5761156b611c5b565b906000526020600020015490508087600001848154811061158e5761158e611c5b565b6000918252602080832090910192909255918252600188019052604090208390555b85548690806115c1576115c1611daa565b600190038181906000526020600020016000905590558560010160008681526020019081526020016000206000905560019350505050610490565b6000915050610490565b82805461161290611bf8565b90600052602060002090601f016020900481019282611634576000855561167a565b82601f1061164d57805160ff191683800117855561167a565b8280016001018555821561167a579182015b8281111561167a57825182559160200191906001019061165f565b5061168692915061168a565b5090565b5b80821115611686576000815560010161168b565b6000602082840312156116b157600080fd5b8135600160e060020a031981168114610d8257600080fd5b60e060020a634e487b7102600052604160045260246000fd5b604051601f8201601f1916810167ffffffffffffffff8111828210171561170b5761170b6116c9565b604052919050565b600082601f83011261172457600080fd5b813567ffffffffffffffff81111561173e5761173e6116c9565b611751601f8201601f19166020016116e2565b81815284602083860101111561176657600080fd5b816020850160208301376000918101602001919091529392505050565b6000806040838503121561179657600080fd5b823567ffffffffffffffff8111156117ad57600080fd5b6117b985828601611713565b95602094909401359450505050565b60005b838110156117e35781810151838201526020016117cb565b838111156117f2576000848401525b50505050565b600081518084526118108160208601602086016117c8565b601f01601f19169290920160200192915050565b602081526000610d8260208301846117f8565b60006020828403121561184957600080fd5b5035919050565b6000806040838503121561186357600080fd5b823591506020830135600160a060020a038116811461188157600080fd5b809150509250929050565b600060208083018184528085518083526040860191506040848202870101925083870160005b828110156118e057603f198886030184526118ce8583516117f8565b945092850192908501906001016118b2565b5092979650505050505050565b6000806080838503121561190057600080fd5b82359150602084603f85011261191557600080fd5b6040516060810181811067ffffffffffffffff82111715611938576119386116c9565b60405280608086018781111561194d57600080fd5b8387015b818110156119685780358352918401918401611951565b50505080925050509250929050565b600061012080835261198b8184018d6117f8565b90508a60000b60208401528960000b60408401528860000b606084015282810360808401526119ba81896117f8565b905082810360a08401526119ce81886117f8565b905082810360c08401526119e281876117f8565b60e084019590955250506101000152979650505050505050565b600060208284031215611a0e57600080fd5b813567ffffffffffffffff811115611a2557600080fd5b611a3184828501611713565b949350505050565b60008060408385031215611a4c57600080fd5b50508035926020909101359150565b600067ffffffffffffffff821115611a7557611a756116c9565b5060209081020190565b600082601f830112611a9057600080fd5b81356020611aa5611aa083611a5b565b6116e2565b82815291810284018101918181019086841115611ac157600080fd5b8286015b84811015611b0157803567ffffffffffffffff811115611ae55760008081fd5b611af38986838b0101611713565b845250918301918301611ac5565b509695505050505050565b600080600060608486031215611b2157600080fd5b833567ffffffffffffffff80821115611b3957600080fd5b611b4587838801611a7f565b9450602091508186013581811115611b5c57600080fd5b611b6888828901611a7f565b945050604086013581811115611b7d57600080fd5b86019050601f81018713611b9057600080fd5b8035611b9e611aa082611a5b565b81815290830282018301908381019089831115611bba57600080fd5b928401925b82841015611be957833561ffff81168114611bda5760008081fd5b82529284019290840190611bbf565b80955050505050509250925092565b600281046001821680611c0c57607f821691505b60208210811415611c305760e060020a634e487b7102600052602260045260246000fd5b50919050565b600082611c565760e060020a634e487b7102600052601260045260246000fd5b500690565b60e060020a634e487b7102600052603260045260246000fd5b60008251611c868184602087016117c8565b9190910192915050565b60e060020a634e487b7102600052601160045260246000fd5b600082821015611cbb57611cbb611c90565b500390565b600081611ccf57611ccf611c90565b506000190190565b6000600019821415611ceb57611ceb611c90565b5060010190565b7f416363657373436f6e74726f6c3a206163636f756e7420000000000000000000815260008351611d2a8160178501602088016117c8565b7f206973206d697373696e6720726f6c65200000000000000000000000000000006017918401918201528351611d678160288401602088016117c8565b01602801949350505050565b6000816000190483118215151615611d8d57611d8d611c90565b500290565b60008219821115611da557611da5611c90565b500190565b60e060020a634e487b7102600052603160045260246000fdfea2646970667358221220c25610ee9713f989fe06a29f3e5e0346a615a9c28af0d74e52f3a708f9d460da64736f6c634300080b0033",
  "immutableReferences": {},
  "source": "// SPDX-License-Identifier: GPL-3.0\npragma solidity >=0.7.0 <0.9.0;\n\nimport \"@openzeppelin/contracts/access/AccessControlEnumerable.sol\";\n\ncontract CardDeck is AccessControlEnumerable {\n    // This is an infinite deck, cards drawn are not removed from deck\n    // We can set card \"quantities\" for desireable probability\n\n    // controller role should be set to a controller contract\n    // not used by default, provided if going to make custom deck with limited access\n    bytes32 public constant CONTROLLER_ROLE = keccak256(\"CONTROLLER_ROLE\");\n\n    string[] private _cards;\n\n    // mappings from card name\n    // should all store same size array of values, even if empty\n    mapping(string => string) public description;\n    mapping(string => uint16) public quantity;\n    mapping(string => int8[3]) public movementAdjust;\n    mapping(string => int8[3]) public agilityAdjust;\n    mapping(string => int8[3]) public dexterityAdjust;\n    mapping(string => string[3]) public itemGain;\n    mapping(string => string[3]) public itemLoss;\n    mapping(string => string[3]) public handLoss;\n    mapping(string => int256[3]) public movementX;\n    mapping(string => int256[3]) public movementY;\n    mapping(string => uint256[3]) public rollThresholds; // [0, 3, 4] what to roll to receive matching index of mapping\n    mapping(string => string[3]) public outcomeDescription;\n    mapping(string => uint256) public rollTypeRequired; // 0 = movement, 1 = agility, 2 = dexterity\n\n    constructor() {\n        _setupRole(DEFAULT_ADMIN_ROLE, _msgSender());\n    }\n\n    function addCards(\n        string[] memory titles,\n        string[] memory descriptions,\n        uint16[] memory quantities\n    ) public onlyRole(DEFAULT_ADMIN_ROLE) {\n        require(\n            titles.length == descriptions.length &&\n                titles.length == quantities.length,\n            \"array quantity mismatch\"\n        );\n        for (uint256 i = 0; i < titles.length; i++) {\n            // only add if not already added and set quantity is not 0\n            string memory title = titles[i];\n            if (quantity[title] == 0 && quantities[i] != 0) {\n                _cards.push(title);\n                description[title] = descriptions[i];\n                quantity[title] = quantities[i];\n            }\n        }\n    }\n\n    // this function does not provide randomness,\n    // passing the same random word will yield the same draw.\n    // randomness should come from controller\n\n    // pass along movement, agility, dexterity rolls - will use whatever is appropriate\n    function drawCard(uint256 randomWord, uint256[3] memory rollValues)\n        public\n        view\n        virtual\n        returns (\n            string memory,\n            int8,\n            int8,\n            int8,\n            string memory,\n            string memory,\n            string memory,\n            int256,\n            int256\n        )\n    {\n        uint256 cardIndex = randomWord % _cards.length;\n        string memory card = _cards[cardIndex];\n        // TODO:\n        // find index of roll ()\n        uint256 rollIndex = 0;\n        uint256 rollType = rollTypeRequired[card];\n        uint256 rollValue = rollValues[rollType];\n        uint256[3] memory thresholds = rollThresholds[card];\n        for (uint256 i = thresholds.length - 1; i >= 0; i--) {\n            if (rollValue >= thresholds[i]) {\n                rollIndex = i;\n                break;\n            }\n            if (i == 0) {\n                break;\n            }\n        }\n        // match index with all attributes\n        return (\n            card,\n            movementAdjust[card][rollIndex],\n            agilityAdjust[card][rollIndex],\n            dexterityAdjust[card][rollIndex],\n            itemLoss[card][rollIndex],\n            itemGain[card][rollIndex],\n            handLoss[card][rollIndex],\n            movementX[card][rollIndex],\n            movementY[card][rollIndex]\n        );\n    }\n\n    function getDeck() public view returns (string[] memory) {\n        return _cards;\n    }\n}\n",
  "sourcePath": "/Users/maxmeier/Developer/Lucky Machines/hexploration/contracts/decks/CardDeck.sol",
  "compiler": {
    "name": "solc",
    "version": "0.8.11+commit.d7f03943.Emscripten.clang"
  },
  "schemaVersion": "3.4.4",
  "updatedAt": "2022-05-25T19:10:49.675Z",
  "devdoc": {
    "kind": "dev",
    "methods": {
      "getRoleAdmin(bytes32)": {
        "details": "Returns the admin role that controls `role`. See {grantRole} and {revokeRole}. To change a role's admin, use {_setRoleAdmin}."
      },
      "getRoleMember(bytes32,uint256)": {
        "details": "Returns one of the accounts that have `role`. `index` must be a value between 0 and {getRoleMemberCount}, non-inclusive. Role bearers are not sorted in any particular way, and their ordering may change at any point. WARNING: When using {getRoleMember} and {getRoleMemberCount}, make sure you perform all queries on the same block. See the following https://forum.openzeppelin.com/t/iterating-over-elements-on-enumerableset-in-openzeppelin-contracts/2296[forum post] for more information."
      },
      "getRoleMemberCount(bytes32)": {
        "details": "Returns the number of accounts that have `role`. Can be used together with {getRoleMember} to enumerate all bearers of a role."
      },
      "grantRole(bytes32,address)": {
        "details": "Grants `role` to `account`. If `account` had not been already granted `role`, emits a {RoleGranted} event. Requirements: - the caller must have ``role``'s admin role."
      },
      "hasRole(bytes32,address)": {
        "details": "Returns `true` if `account` has been granted `role`."
      },
      "renounceRole(bytes32,address)": {
        "details": "Revokes `role` from the calling account. Roles are often managed via {grantRole} and {revokeRole}: this function's purpose is to provide a mechanism for accounts to lose their privileges if they are compromised (such as when a trusted device is misplaced). If the calling account had been revoked `role`, emits a {RoleRevoked} event. Requirements: - the caller must be `account`."
      },
      "revokeRole(bytes32,address)": {
        "details": "Revokes `role` from `account`. If `account` had been granted `role`, emits a {RoleRevoked} event. Requirements: - the caller must have ``role``'s admin role."
      },
      "supportsInterface(bytes4)": {
        "details": "See {IERC165-supportsInterface}."
      }
    },
    "version": 1
  },
  "userdoc": {
    "kind": "user",
    "methods": {},
    "version": 1
  }
}