{
  "contractName": "CharacterCard",
  "abi": [
    {
      "inputs": [
        {
          "internalType": "address",
          "name": "itemTokenAddress",
          "type": "address"
        },
        {
          "internalType": "address",
          "name": "artifactTokenAddress",
          "type": "address"
        },
        {
          "internalType": "address",
          "name": "relicTokenAddress",
          "type": "address"
        }
      ],
      "stateMutability": "nonpayable",
      "type": "constructor"
    },
    {
      "anonymous": false,
      "inputs": [
        {
          "indexed": true,
          "internalType": "bytes32",
          "name": "role",
          "type": "bytes32"
        },
        {
          "indexed": true,
          "internalType": "bytes32",
          "name": "previousAdminRole",
          "type": "bytes32"
        },
        {
          "indexed": true,
          "internalType": "bytes32",
          "name": "newAdminRole",
          "type": "bytes32"
        }
      ],
      "name": "RoleAdminChanged",
      "type": "event"
    },
    {
      "anonymous": false,
      "inputs": [
        {
          "indexed": true,
          "internalType": "bytes32",
          "name": "role",
          "type": "bytes32"
        },
        {
          "indexed": true,
          "internalType": "address",
          "name": "account",
          "type": "address"
        },
        {
          "indexed": true,
          "internalType": "address",
          "name": "sender",
          "type": "address"
        }
      ],
      "name": "RoleGranted",
      "type": "event"
    },
    {
      "anonymous": false,
      "inputs": [
        {
          "indexed": true,
          "internalType": "bytes32",
          "name": "role",
          "type": "bytes32"
        },
        {
          "indexed": true,
          "internalType": "address",
          "name": "account",
          "type": "address"
        },
        {
          "indexed": true,
          "internalType": "address",
          "name": "sender",
          "type": "address"
        }
      ],
      "name": "RoleRevoked",
      "type": "event"
    },
    {
      "inputs": [],
      "name": "DEFAULT_ADMIN_ROLE",
      "outputs": [
        {
          "internalType": "bytes32",
          "name": "",
          "type": "bytes32"
        }
      ],
      "stateMutability": "view",
      "type": "function",
      "constant": true
    },
    {
      "inputs": [],
      "name": "VERIFIED_CONTROLLER_ROLE",
      "outputs": [
        {
          "internalType": "bytes32",
          "name": "",
          "type": "bytes32"
        }
      ],
      "stateMutability": "view",
      "type": "function",
      "constant": true
    },
    {
      "inputs": [
        {
          "internalType": "uint256",
          "name": "",
          "type": "uint256"
        },
        {
          "internalType": "address",
          "name": "",
          "type": "address"
        }
      ],
      "name": "agility",
      "outputs": [
        {
          "internalType": "uint8",
          "name": "",
          "type": "uint8"
        }
      ],
      "stateMutability": "view",
      "type": "function",
      "constant": true
    },
    {
      "inputs": [
        {
          "internalType": "uint256",
          "name": "",
          "type": "uint256"
        },
        {
          "internalType": "address",
          "name": "",
          "type": "address"
        }
      ],
      "name": "artifact",
      "outputs": [
        {
          "internalType": "string",
          "name": "",
          "type": "string"
        }
      ],
      "stateMutability": "view",
      "type": "function",
      "constant": true
    },
    {
      "inputs": [],
      "name": "artifactToken",
      "outputs": [
        {
          "internalType": "address",
          "name": "",
          "type": "address"
        }
      ],
      "stateMutability": "view",
      "type": "function",
      "constant": true
    },
    {
      "inputs": [
        {
          "internalType": "uint256",
          "name": "",
          "type": "uint256"
        },
        {
          "internalType": "address",
          "name": "",
          "type": "address"
        }
      ],
      "name": "dexterity",
      "outputs": [
        {
          "internalType": "uint8",
          "name": "",
          "type": "uint8"
        }
      ],
      "stateMutability": "view",
      "type": "function",
      "constant": true
    },
    {
      "inputs": [
        {
          "internalType": "bytes32",
          "name": "role",
          "type": "bytes32"
        }
      ],
      "name": "getRoleAdmin",
      "outputs": [
        {
          "internalType": "bytes32",
          "name": "",
          "type": "bytes32"
        }
      ],
      "stateMutability": "view",
      "type": "function",
      "constant": true
    },
    {
      "inputs": [
        {
          "internalType": "bytes32",
          "name": "role",
          "type": "bytes32"
        },
        {
          "internalType": "uint256",
          "name": "index",
          "type": "uint256"
        }
      ],
      "name": "getRoleMember",
      "outputs": [
        {
          "internalType": "address",
          "name": "",
          "type": "address"
        }
      ],
      "stateMutability": "view",
      "type": "function",
      "constant": true
    },
    {
      "inputs": [
        {
          "internalType": "bytes32",
          "name": "role",
          "type": "bytes32"
        }
      ],
      "name": "getRoleMemberCount",
      "outputs": [
        {
          "internalType": "uint256",
          "name": "",
          "type": "uint256"
        }
      ],
      "stateMutability": "view",
      "type": "function",
      "constant": true
    },
    {
      "inputs": [
        {
          "internalType": "bytes32",
          "name": "role",
          "type": "bytes32"
        },
        {
          "internalType": "address",
          "name": "account",
          "type": "address"
        }
      ],
      "name": "grantRole",
      "outputs": [],
      "stateMutability": "nonpayable",
      "type": "function"
    },
    {
      "inputs": [
        {
          "internalType": "bytes32",
          "name": "role",
          "type": "bytes32"
        },
        {
          "internalType": "address",
          "name": "account",
          "type": "address"
        }
      ],
      "name": "hasRole",
      "outputs": [
        {
          "internalType": "bool",
          "name": "",
          "type": "bool"
        }
      ],
      "stateMutability": "view",
      "type": "function",
      "constant": true
    },
    {
      "inputs": [],
      "name": "itemToken",
      "outputs": [
        {
          "internalType": "address",
          "name": "",
          "type": "address"
        }
      ],
      "stateMutability": "view",
      "type": "function",
      "constant": true
    },
    {
      "inputs": [
        {
          "internalType": "uint256",
          "name": "",
          "type": "uint256"
        },
        {
          "internalType": "address",
          "name": "",
          "type": "address"
        }
      ],
      "name": "leftHandItem",
      "outputs": [
        {
          "internalType": "string",
          "name": "",
          "type": "string"
        }
      ],
      "stateMutability": "view",
      "type": "function",
      "constant": true
    },
    {
      "inputs": [
        {
          "internalType": "uint256",
          "name": "",
          "type": "uint256"
        },
        {
          "internalType": "address",
          "name": "",
          "type": "address"
        }
      ],
      "name": "movement",
      "outputs": [
        {
          "internalType": "uint8",
          "name": "",
          "type": "uint8"
        }
      ],
      "stateMutability": "view",
      "type": "function",
      "constant": true
    },
    {
      "inputs": [
        {
          "internalType": "uint256",
          "name": "",
          "type": "uint256"
        },
        {
          "internalType": "address",
          "name": "",
          "type": "address"
        }
      ],
      "name": "relic",
      "outputs": [
        {
          "internalType": "string",
          "name": "",
          "type": "string"
        }
      ],
      "stateMutability": "view",
      "type": "function",
      "constant": true
    },
    {
      "inputs": [],
      "name": "relicToken",
      "outputs": [
        {
          "internalType": "address",
          "name": "",
          "type": "address"
        }
      ],
      "stateMutability": "view",
      "type": "function",
      "constant": true
    },
    {
      "inputs": [
        {
          "internalType": "bytes32",
          "name": "role",
          "type": "bytes32"
        },
        {
          "internalType": "address",
          "name": "account",
          "type": "address"
        }
      ],
      "name": "renounceRole",
      "outputs": [],
      "stateMutability": "nonpayable",
      "type": "function"
    },
    {
      "inputs": [
        {
          "internalType": "bytes32",
          "name": "role",
          "type": "bytes32"
        },
        {
          "internalType": "address",
          "name": "account",
          "type": "address"
        }
      ],
      "name": "revokeRole",
      "outputs": [],
      "stateMutability": "nonpayable",
      "type": "function"
    },
    {
      "inputs": [
        {
          "internalType": "uint256",
          "name": "",
          "type": "uint256"
        },
        {
          "internalType": "address",
          "name": "",
          "type": "address"
        }
      ],
      "name": "rightHandItem",
      "outputs": [
        {
          "internalType": "string",
          "name": "",
          "type": "string"
        }
      ],
      "stateMutability": "view",
      "type": "function",
      "constant": true
    },
    {
      "inputs": [
        {
          "internalType": "uint256",
          "name": "",
          "type": "uint256"
        },
        {
          "internalType": "address",
          "name": "",
          "type": "address"
        }
      ],
      "name": "status",
      "outputs": [
        {
          "internalType": "string",
          "name": "",
          "type": "string"
        }
      ],
      "stateMutability": "view",
      "type": "function",
      "constant": true
    },
    {
      "inputs": [
        {
          "internalType": "bytes4",
          "name": "interfaceId",
          "type": "bytes4"
        }
      ],
      "name": "supportsInterface",
      "outputs": [
        {
          "internalType": "bool",
          "name": "",
          "type": "bool"
        }
      ],
      "stateMutability": "view",
      "type": "function",
      "constant": true
    },
    {
      "inputs": [
        {
          "internalType": "address",
          "name": "controllerAddress",
          "type": "address"
        }
      ],
      "name": "addVerifiedController",
      "outputs": [],
      "stateMutability": "nonpayable",
      "type": "function"
    },
    {
      "inputs": [
        {
          "internalType": "uint8[3]",
          "name": "stats",
          "type": "uint8[3]"
        },
        {
          "internalType": "uint256",
          "name": "gameID",
          "type": "uint256"
        },
        {
          "internalType": "address",
          "name": "playerAddress",
          "type": "address"
        }
      ],
      "name": "setStats",
      "outputs": [],
      "stateMutability": "nonpayable",
      "type": "function"
    },
    {
      "inputs": [
        {
          "internalType": "uint8",
          "name": "movementValue",
          "type": "uint8"
        },
        {
          "internalType": "uint256",
          "name": "gameID",
          "type": "uint256"
        },
        {
          "internalType": "address",
          "name": "playerAddress",
          "type": "address"
        }
      ],
      "name": "setMovement",
      "outputs": [],
      "stateMutability": "nonpayable",
      "type": "function"
    },
    {
      "inputs": [
        {
          "internalType": "uint8",
          "name": "agilityValue",
          "type": "uint8"
        },
        {
          "internalType": "uint256",
          "name": "gameID",
          "type": "uint256"
        },
        {
          "internalType": "address",
          "name": "playerAddress",
          "type": "address"
        }
      ],
      "name": "setAgility",
      "outputs": [],
      "stateMutability": "nonpayable",
      "type": "function"
    },
    {
      "inputs": [
        {
          "internalType": "uint8",
          "name": "dexterityValue",
          "type": "uint8"
        },
        {
          "internalType": "uint256",
          "name": "gameID",
          "type": "uint256"
        },
        {
          "internalType": "address",
          "name": "playerAddress",
          "type": "address"
        }
      ],
      "name": "setDexterity",
      "outputs": [],
      "stateMutability": "nonpayable",
      "type": "function"
    },
    {
      "inputs": [
        {
          "internalType": "string",
          "name": "itemTokenType",
          "type": "string"
        },
        {
          "internalType": "uint256",
          "name": "gameID",
          "type": "uint256"
        },
        {
          "internalType": "address",
          "name": "playerAddress",
          "type": "address"
        }
      ],
      "name": "setLeftHandItem",
      "outputs": [],
      "stateMutability": "nonpayable",
      "type": "function"
    },
    {
      "inputs": [
        {
          "internalType": "string",
          "name": "itemTokenType",
          "type": "string"
        },
        {
          "internalType": "uint256",
          "name": "gameID",
          "type": "uint256"
        },
        {
          "internalType": "address",
          "name": "playerAddress",
          "type": "address"
        }
      ],
      "name": "setRightHandItem",
      "outputs": [],
      "stateMutability": "nonpayable",
      "type": "function"
    },
    {
      "inputs": [
        {
          "internalType": "string",
          "name": "itemTokenType",
          "type": "string"
        },
        {
          "internalType": "uint256",
          "name": "gameID",
          "type": "uint256"
        },
        {
          "internalType": "address",
          "name": "playerAddress",
          "type": "address"
        }
      ],
      "name": "setArtifact",
      "outputs": [],
      "stateMutability": "nonpayable",
      "type": "function"
    },
    {
      "inputs": [
        {
          "internalType": "string",
          "name": "itemTokenType",
          "type": "string"
        },
        {
          "internalType": "uint256",
          "name": "gameID",
          "type": "uint256"
        },
        {
          "internalType": "address",
          "name": "playerAddress",
          "type": "address"
        }
      ],
      "name": "setStatus",
      "outputs": [],
      "stateMutability": "nonpayable",
      "type": "function"
    },
    {
      "inputs": [
        {
          "internalType": "string",
          "name": "itemTokenType",
          "type": "string"
        },
        {
          "internalType": "uint256",
          "name": "gameID",
          "type": "uint256"
        },
        {
          "internalType": "address",
          "name": "playerAddress",
          "type": "address"
        }
      ],
      "name": "setRelic",
      "outputs": [],
      "stateMutability": "nonpayable",
      "type": "function"
    }
  ],
  "bytecode": "0x60806040523480156200001157600080fd5b50604051620018423803806200184283398101604081905262000034916200027e565b6200005c60006200004d6401000000006200009f810204565b640100000000620000a3810204565b60028054600160a060020a03948516600160a060020a031991821617909155600380549385169382169390931790925560048054919093169116179055620002c8565b3390565b620000b88282640100000000620000bc810204565b5050565b620000d68282640100000000620009e76200010382021704565b6000828152600160205260409020620000fe908264010000000062000a6b6200019f82021704565b505050565b620001188282640100000000620001c8810204565b620000b857600082815260208181526040808320600160a060020a03851684529091529020805460ff191660011790556200015b6401000000006200009f810204565b600160a060020a031681600160a060020a0316837f2f8788117e7eff1d82e926ec794901d17c78024a50270940304540a733656f0d60405160405180910390a45050565b6000620001bf83600160a060020a038416640100000000620001f1810204565b90505b92915050565b600091825260208281526040808420600160a060020a0393909316845291905290205460ff1690565b600062000208838364010000000062000249810204565b6200024057508154600181810184556000848152602080822090930184905584548482528286019093526040902091909155620001c2565b506000620001c2565b60009081526001919091016020526040902054151590565b8051600160a060020a03811681146200027957600080fd5b919050565b6000806000606084860312156200029457600080fd5b6200029f8462000261565b9250620002af6020850162000261565b9150620002bf6040850162000261565b90509250925092565b61156a80620002d86000396000f3fe608060405234801561001057600080fd5b5060043610610202576000357c01000000000000000000000000000000000000000000000000000000009004806397be41a61161012c578063c5e19b76116100bf578063d547741f1161008e578063d547741f14610468578063db1698b21461047b578063f5386d701461048e578063fdf5a31c146104a157600080fd5b8063c5e19b76146102ee578063ca15c87314610414578063ca31896714610427578063d4f5b1521461045557600080fd5b8063a217fddf116100fb578063a217fddf146103e6578063a2e8a891146103ee578063c072f666146102ee578063c242b6b41461040157600080fd5b806397be41a614610380578063989c11a9146103935780639d0e9ac3146102ee578063a082936d146103d357600080fd5b806354560234116101a457806385c4f91d1161017357806385c4f91d14610334578063876d01cb146103475780639010d07c1461035a57806391d148541461036d57600080fd5b806354560234146102db57806361cf4c80146102ee5780636662537014610301578063777f54401461032157600080fd5b8063248a9ca3116101e0578063248a9ca31461027d5780632f2ff15d146102a057806336568abe146102b55780634d23b2e6146102c857600080fd5b806301ffc9a71461020757806303936d461461022f5780631c834a7f1461025a575b600080fd5b61021a6102153660046110ac565b6104cf565b60405190151581526020015b60405180910390f35b60035461024290600160a060020a031681565b604051600160a060020a039091168152602001610226565b61026f60008051602061151583398151915281565b604051908152602001610226565b61026f61028b3660046110d6565b60009081526020819052604090206001015490565b6102b36102ae36600461110b565b610513565b005b6102b36102c336600461110b565b61053d565b6102b36102d6366004611148565b6105e8565b6102b36102e93660046111ce565b610639565b6102b36102fc3660046111ce565b610688565b61031461030f36600461110b565b6106d0565b60405161022691906112a4565b60025461024290600160a060020a031681565b61031461034236600461110b565b610775565b60045461024290600160a060020a031681565b6102426103683660046112d7565b610799565b61021a61037b36600461110b565b6107b8565b6102b361038e366004611148565b6107e1565b6103c16103a136600461110b565b600760209081526000928352604080842090915290825290205460ff1681565b60405160ff9091168152602001610226565b6103146103e136600461110b565b610832565b61026f600081565b6103146103fc36600461110b565b610856565b6102b361040f366004611148565b61087a565b61026f6104223660046110d6565b6108cb565b6103c161043536600461110b565b600660209081526000928352604080842090915290825290205460ff1681565b6102b36104633660046112f9565b6108e2565b6102b361047636600461110b565b610905565b61031461048936600461110b565b61092a565b6102b361049c366004611314565b61094e565b6103c16104af36600461110b565b600560209081526000928352604080842090915290825290205460ff1681565b6000600160e060020a031982167f5a05180f00000000000000000000000000000000000000000000000000000000148061050d575061050d82610a80565b92915050565b60008281526020819052604090206001015461052e81610ae7565b6105388383610af4565b505050565b600160a060020a03811633146105da576040517f08c379a000000000000000000000000000000000000000000000000000000000815260206004820152602f60248201527f416363657373436f6e74726f6c3a2063616e206f6e6c792072656e6f756e636560448201527f20726f6c657320666f722073656c66000000000000000000000000000000000060648201526084015b60405180910390fd5b6105e48282610b16565b5050565b60008051602061151583398151915261060081610ae7565b506000918252600560209081526040808420600160a060020a0390931684529190529020805460ff90921660ff19909216919091179055565b60008051602061151583398151915261065181610ae7565b6000838152600860209081526040808320600160a060020a03861684528252909120855161068192870190611013565b5050505050565b6000805160206115158339815191526106a081610ae7565b6000838152600960209081526040808320600160a060020a03861684528252909120855161068192870190611013565b6009602090815260009283526040808420909152908252902080546106f4906113a5565b80601f0160208091040260200160405190810160405280929190818152602001828054610720906113a5565b801561076d5780601f106107425761010080835404028352916020019161076d565b820191906000526020600020905b81548152906001019060200180831161075057829003601f168201915b505050505081565b600c602090815260009283526040808420909152908252902080546106f4906113a5565b60008281526001602052604081206107b19083610b38565b9392505050565b600091825260208281526040808420600160a060020a0393909316845291905290205460ff1690565b6000805160206115158339815191526107f981610ae7565b506000918252600660209081526040808420600160a060020a0390931684529190529020805460ff90921660ff19909216919091179055565b6008602090815260009283526040808420909152908252902080546106f4906113a5565b600a602090815260009283526040808420909152908252902080546106f4906113a5565b60008051602061151583398151915261089281610ae7565b506000918252600760209081526040808420600160a060020a0390931684529190529020805460ff90921660ff19909216919091179055565b600081815260016020526040812061050d90610b44565b60006108ed81610ae7565b6105e460008051602061151583398151915283610513565b60008281526020819052604090206001015461092081610ae7565b6105388383610b16565b600b602090815260009283526040808420909152908252902080546106f4906113a5565b60008051602061151583398151915261096681610ae7565b5082516000838152600560209081526040808320600160a060020a0395909516808452948252808320805460ff1990811660ff96871617909155828801518785526006845282852087865284528285208054831691871691909117905596810151958352600782528083209483529390529190912080549093169116179055565b6109f182826107b8565b6105e457600082815260208181526040808320600160a060020a03851684529091529020805460ff19166001179055610a273390565b600160a060020a031681600160a060020a0316837f2f8788117e7eff1d82e926ec794901d17c78024a50270940304540a733656f0d60405160405180910390a45050565b60006107b183600160a060020a038416610b4e565b6000600160e060020a031982167f7965db0b00000000000000000000000000000000000000000000000000000000148061050d57507f01ffc9a700000000000000000000000000000000000000000000000000000000600160e060020a031983161461050d565b610af18133610b9d565b50565b610afe82826109e7565b60008281526001602052604090206105389082610a6b565b610b208282610c1b565b60008281526001602052604090206105389082610c80565b60006107b18383610c95565b600061050d825490565b6000818152600183016020526040812054610b955750815460018181018455600084815260208082209093018490558454848252828601909352604090209190915561050d565b50600061050d565b610ba782826107b8565b6105e457610bbf81600160a060020a03166014610cbf565b610bca836020610cbf565b604051602001610bdb9291906113fc565b60408051601f19818403018152908290527f08c379a00000000000000000000000000000000000000000000000000000000082526105d1916004016112a4565b610c2582826107b8565b156105e457600082815260208181526040808320600160a060020a0385168085529252808320805460ff1916905551339285917ff6391f5c32d9c69d2a47ea670b442974b53935d1edc7fd64eb21e047a839171b9190a45050565b60006107b183600160a060020a038416610f20565b6000826000018281548110610cac57610cac6113e3565b9060005260206000200154905092915050565b60606000610cce836002611496565b610cd99060026114b5565b67ffffffffffffffff811115610cf157610cf1611184565b6040519080825280601f01601f191660200182016040528015610d1b576020820181803683370190505b5090507f300000000000000000000000000000000000000000000000000000000000000081600081518110610d5257610d526113e3565b60200101907effffffffffffffffffffffffffffffffffffffffffffffffffffffffffffff1916908160001a9053507f780000000000000000000000000000000000000000000000000000000000000081600181518110610db557610db56113e3565b60200101907effffffffffffffffffffffffffffffffffffffffffffffffffffffffffffff1916908160001a9053506000610df1846002611496565b610dfc9060016114b5565b90505b6001811115610eb7577f303132333435363738396162636465660000000000000000000000000000000085600f1660108110610e3d57610e3d6113e3565b1a7f010000000000000000000000000000000000000000000000000000000000000002828281518110610e7257610e726113e3565b60200101907effffffffffffffffffffffffffffffffffffffffffffffffffffffffffffff1916908160001a905350601090940493610eb0816114cd565b9050610dff565b5083156107b1576040517f08c379a000000000000000000000000000000000000000000000000000000000815260206004820181905260248201527f537472696e67733a20686578206c656e67746820696e73756666696369656e7460448201526064016105d1565b60008181526001830160205260408120548015611009576000610f446001836114e4565b8554909150600090610f58906001906114e4565b9050818114610fbd576000866000018281548110610f7857610f786113e3565b9060005260206000200154905080876000018481548110610f9b57610f9b6113e3565b6000918252602080832090910192909255918252600188019052604090208390555b8554869080610fce57610fce6114fb565b60019003818190600052602060002001600090559055856001016000868152602001908152602001600020600090556001935050505061050d565b600091505061050d565b82805461101f906113a5565b90600052602060002090601f0160209004810192826110415760008555611087565b82601f1061105a57805160ff1916838001178555611087565b82800160010185558215611087579182015b8281111561108757825182559160200191906001019061106c565b50611093929150611097565b5090565b5b808211156110935760008155600101611098565b6000602082840312156110be57600080fd5b8135600160e060020a0319811681146107b157600080fd5b6000602082840312156110e857600080fd5b5035919050565b8035600160a060020a038116811461110657600080fd5b919050565b6000806040838503121561111e57600080fd5b8235915061112e602084016110ef565b90509250929050565b803560ff8116811461110657600080fd5b60008060006060848603121561115d57600080fd5b61116684611137565b92506020840135915061117b604085016110ef565b90509250925092565b60e060020a634e487b7102600052604160045260246000fd5b604051601f8201601f1916810167ffffffffffffffff811182821017156111c6576111c6611184565b604052919050565b6000806000606084860312156111e357600080fd5b833567ffffffffffffffff808211156111fb57600080fd5b818601915086601f83011261120f57600080fd5b813560208282111561122357611223611184565b611235601f8301601f1916820161119d565b9250818352888183860101111561124b57600080fd5b818185018285013760008183850101528296508088013595505050505061117b604085016110ef565b60005b8381101561128f578181015183820152602001611277565b8381111561129e576000848401525b50505050565b60208152600082518060208401526112c3816040850160208701611274565b601f01601f19169190910160400192915050565b600080604083850312156112ea57600080fd5b50508035926020909101359150565b60006020828403121561130b57600080fd5b6107b1826110ef565b600080600060a0848603121561132957600080fd5b84601f85011261133857600080fd5b6040516060810181811067ffffffffffffffff8211171561135b5761135b611184565b60405280606086018781111561137057600080fd5b865b818110156113915761138381611137565b835260209283019201611372565b509194505035915061117b608085016110ef565b6002810460018216806113b957607f821691505b602082108114156113dd5760e060020a634e487b7102600052602260045260246000fd5b50919050565b60e060020a634e487b7102600052603260045260246000fd5b7f416363657373436f6e74726f6c3a206163636f756e7420000000000000000000815260008351611434816017850160208801611274565b7f206973206d697373696e6720726f6c65200000000000000000000000000000006017918401918201528351611471816028840160208801611274565b01602801949350505050565b60e060020a634e487b7102600052601160045260246000fd5b60008160001904831182151516156114b0576114b061147d565b500290565b600082198211156114c8576114c861147d565b500190565b6000816114dc576114dc61147d565b506000190190565b6000828210156114f6576114f661147d565b500390565b60e060020a634e487b7102600052603160045260246000fdfe80e2196015fc06a9d891759f8e4f51eb314ef5e9ea068528a8ed0063b87759f0a264697066735822122030ec54152a0cd3e639bb83a49a757934f5d8cfaaf5fbb0a68a6f7387251c6b2c64736f6c634300080b0033",
  "immutableReferences": {},
  "source": "// SPDX-License-Identifier: GPL-3.0\npragma solidity >=0.7.0 <0.9.0;\n\nimport \"@openzeppelin/contracts/access/AccessControlEnumerable.sol\";\n\ncontract CharacterCard is AccessControlEnumerable {\n    bytes32 public constant VERIFIED_CONTROLLER_ROLE =\n        keccak256(\"VERIFIED_CONTROLLER_ROLE\");\n\n    address public itemToken;\n    address public artifactToken;\n    address public relicToken;\n    // game id => player address\n    mapping(uint256 => mapping(address => uint8)) public movement;\n    mapping(uint256 => mapping(address => uint8)) public agility;\n    mapping(uint256 => mapping(address => uint8)) public dexterity;\n    //// the following assign a token type, player must still hold balance to use item\n    mapping(uint256 => mapping(address => string)) public leftHandItem;\n    mapping(uint256 => mapping(address => string)) public rightHandItem;\n    mapping(uint256 => mapping(address => string)) public artifact;\n    mapping(uint256 => mapping(address => string)) public status;\n    mapping(uint256 => mapping(address => string)) public relic;\n\n    constructor(\n        address itemTokenAddress,\n        address artifactTokenAddress,\n        address relicTokenAddress\n    ) {\n        _setupRole(DEFAULT_ADMIN_ROLE, _msgSender());\n        itemToken = itemTokenAddress;\n        artifactToken = artifactTokenAddress;\n        relicToken = relicTokenAddress;\n    }\n\n    function addVerifiedController(address controllerAddress)\n        public\n        onlyRole(DEFAULT_ADMIN_ROLE)\n    {\n        grantRole(VERIFIED_CONTROLLER_ROLE, controllerAddress);\n    }\n\n    function setStats(\n        uint8[3] memory stats,\n        uint256 gameID,\n        address playerAddress\n    ) external onlyRole(VERIFIED_CONTROLLER_ROLE) {\n        // set all stats at once [movement, agility, dexterity]\n        movement[gameID][playerAddress] = stats[0];\n        agility[gameID][playerAddress] = stats[1];\n        dexterity[gameID][playerAddress] = stats[2];\n    }\n\n    function setMovement(\n        uint8 movementValue,\n        uint256 gameID,\n        address playerAddress\n    ) external onlyRole(VERIFIED_CONTROLLER_ROLE) {\n        movement[gameID][playerAddress] = movementValue;\n    }\n\n    function setAgility(\n        uint8 agilityValue,\n        uint256 gameID,\n        address playerAddress\n    ) external onlyRole(VERIFIED_CONTROLLER_ROLE) {\n        agility[gameID][playerAddress] = agilityValue;\n    }\n\n    function setDexterity(\n        uint8 dexterityValue,\n        uint256 gameID,\n        address playerAddress\n    ) external onlyRole(VERIFIED_CONTROLLER_ROLE) {\n        dexterity[gameID][playerAddress] = dexterityValue;\n    }\n\n    function setLeftHandItem(\n        string memory itemTokenType,\n        uint256 gameID,\n        address playerAddress\n    ) external onlyRole(VERIFIED_CONTROLLER_ROLE) {\n        leftHandItem[gameID][playerAddress] = itemTokenType;\n    }\n\n    function setRightHandItem(\n        string memory itemTokenType,\n        uint256 gameID,\n        address playerAddress\n    ) external onlyRole(VERIFIED_CONTROLLER_ROLE) {\n        rightHandItem[gameID][playerAddress] = itemTokenType;\n    }\n\n    function setArtifact(\n        string memory itemTokenType,\n        uint256 gameID,\n        address playerAddress\n    ) external onlyRole(VERIFIED_CONTROLLER_ROLE) {\n        rightHandItem[gameID][playerAddress] = itemTokenType;\n    }\n\n    function setStatus(\n        string memory itemTokenType,\n        uint256 gameID,\n        address playerAddress\n    ) external onlyRole(VERIFIED_CONTROLLER_ROLE) {\n        rightHandItem[gameID][playerAddress] = itemTokenType;\n    }\n\n    function setRelic(\n        string memory itemTokenType,\n        uint256 gameID,\n        address playerAddress\n    ) external onlyRole(VERIFIED_CONTROLLER_ROLE) {\n        rightHandItem[gameID][playerAddress] = itemTokenType;\n    }\n}\n",
  "sourcePath": "/Users/maxmeier/Developer/Lucky Machines/hexploration/contracts/state/CharacterCard.sol",
  "compiler": {
    "name": "solc",
    "version": "0.8.11+commit.d7f03943.Emscripten.clang"
  },
  "schemaVersion": "3.4.4",
  "updatedAt": "2022-05-16T00:16:32.240Z",
  "networkType": "ethereum",
  "devdoc": {
    "kind": "dev",
    "methods": {
      "getRoleAdmin(bytes32)": {
        "details": "Returns the admin role that controls `role`. See {grantRole} and {revokeRole}. To change a role's admin, use {_setRoleAdmin}."
      },
      "getRoleMember(bytes32,uint256)": {
        "details": "Returns one of the accounts that have `role`. `index` must be a value between 0 and {getRoleMemberCount}, non-inclusive. Role bearers are not sorted in any particular way, and their ordering may change at any point. WARNING: When using {getRoleMember} and {getRoleMemberCount}, make sure you perform all queries on the same block. See the following https://forum.openzeppelin.com/t/iterating-over-elements-on-enumerableset-in-openzeppelin-contracts/2296[forum post] for more information."
      },
      "getRoleMemberCount(bytes32)": {
        "details": "Returns the number of accounts that have `role`. Can be used together with {getRoleMember} to enumerate all bearers of a role."
      },
      "grantRole(bytes32,address)": {
        "details": "Grants `role` to `account`. If `account` had not been already granted `role`, emits a {RoleGranted} event. Requirements: - the caller must have ``role``'s admin role."
      },
      "hasRole(bytes32,address)": {
        "details": "Returns `true` if `account` has been granted `role`."
      },
      "renounceRole(bytes32,address)": {
        "details": "Revokes `role` from the calling account. Roles are often managed via {grantRole} and {revokeRole}: this function's purpose is to provide a mechanism for accounts to lose their privileges if they are compromised (such as when a trusted device is misplaced). If the calling account had been revoked `role`, emits a {RoleRevoked} event. Requirements: - the caller must be `account`."
      },
      "revokeRole(bytes32,address)": {
        "details": "Revokes `role` from `account`. If `account` had been granted `role`, emits a {RoleRevoked} event. Requirements: - the caller must have ``role``'s admin role."
      },
      "supportsInterface(bytes4)": {
        "details": "See {IERC165-supportsInterface}."
      }
    },
    "version": 1
  },
  "userdoc": {
    "kind": "user",
    "methods": {},
    "version": 1
  }
}