{
  "contractName": "CharacterCard",
  "abi": [
    {
      "inputs": [
        {
          "internalType": "address",
          "name": "itemTokenAddress",
          "type": "address"
        }
      ],
      "stateMutability": "nonpayable",
      "type": "constructor"
    },
    {
      "anonymous": false,
      "inputs": [
        {
          "indexed": true,
          "internalType": "bytes32",
          "name": "role",
          "type": "bytes32"
        },
        {
          "indexed": true,
          "internalType": "bytes32",
          "name": "previousAdminRole",
          "type": "bytes32"
        },
        {
          "indexed": true,
          "internalType": "bytes32",
          "name": "newAdminRole",
          "type": "bytes32"
        }
      ],
      "name": "RoleAdminChanged",
      "type": "event"
    },
    {
      "anonymous": false,
      "inputs": [
        {
          "indexed": true,
          "internalType": "bytes32",
          "name": "role",
          "type": "bytes32"
        },
        {
          "indexed": true,
          "internalType": "address",
          "name": "account",
          "type": "address"
        },
        {
          "indexed": true,
          "internalType": "address",
          "name": "sender",
          "type": "address"
        }
      ],
      "name": "RoleGranted",
      "type": "event"
    },
    {
      "anonymous": false,
      "inputs": [
        {
          "indexed": true,
          "internalType": "bytes32",
          "name": "role",
          "type": "bytes32"
        },
        {
          "indexed": true,
          "internalType": "address",
          "name": "account",
          "type": "address"
        },
        {
          "indexed": true,
          "internalType": "address",
          "name": "sender",
          "type": "address"
        }
      ],
      "name": "RoleRevoked",
      "type": "event"
    },
    {
      "inputs": [],
      "name": "DEFAULT_ADMIN_ROLE",
      "outputs": [
        {
          "internalType": "bytes32",
          "name": "",
          "type": "bytes32"
        }
      ],
      "stateMutability": "view",
      "type": "function"
    },
    {
      "inputs": [],
      "name": "VERIFIED_CONTROLLER_ROLE",
      "outputs": [
        {
          "internalType": "bytes32",
          "name": "",
          "type": "bytes32"
        }
      ],
      "stateMutability": "view",
      "type": "function"
    },
    {
      "inputs": [
        {
          "internalType": "bytes32",
          "name": "role",
          "type": "bytes32"
        }
      ],
      "name": "getRoleAdmin",
      "outputs": [
        {
          "internalType": "bytes32",
          "name": "",
          "type": "bytes32"
        }
      ],
      "stateMutability": "view",
      "type": "function"
    },
    {
      "inputs": [
        {
          "internalType": "bytes32",
          "name": "role",
          "type": "bytes32"
        },
        {
          "internalType": "uint256",
          "name": "index",
          "type": "uint256"
        }
      ],
      "name": "getRoleMember",
      "outputs": [
        {
          "internalType": "address",
          "name": "",
          "type": "address"
        }
      ],
      "stateMutability": "view",
      "type": "function"
    },
    {
      "inputs": [
        {
          "internalType": "bytes32",
          "name": "role",
          "type": "bytes32"
        }
      ],
      "name": "getRoleMemberCount",
      "outputs": [
        {
          "internalType": "uint256",
          "name": "",
          "type": "uint256"
        }
      ],
      "stateMutability": "view",
      "type": "function"
    },
    {
      "inputs": [
        {
          "internalType": "bytes32",
          "name": "role",
          "type": "bytes32"
        },
        {
          "internalType": "address",
          "name": "account",
          "type": "address"
        }
      ],
      "name": "grantRole",
      "outputs": [],
      "stateMutability": "nonpayable",
      "type": "function"
    },
    {
      "inputs": [
        {
          "internalType": "bytes32",
          "name": "role",
          "type": "bytes32"
        },
        {
          "internalType": "address",
          "name": "account",
          "type": "address"
        }
      ],
      "name": "hasRole",
      "outputs": [
        {
          "internalType": "bool",
          "name": "",
          "type": "bool"
        }
      ],
      "stateMutability": "view",
      "type": "function"
    },
    {
      "inputs": [],
      "name": "itemToken",
      "outputs": [
        {
          "internalType": "address",
          "name": "",
          "type": "address"
        }
      ],
      "stateMutability": "view",
      "type": "function"
    },
    {
      "inputs": [
        {
          "internalType": "bytes32",
          "name": "role",
          "type": "bytes32"
        },
        {
          "internalType": "address",
          "name": "account",
          "type": "address"
        }
      ],
      "name": "renounceRole",
      "outputs": [],
      "stateMutability": "nonpayable",
      "type": "function"
    },
    {
      "inputs": [
        {
          "internalType": "bytes32",
          "name": "role",
          "type": "bytes32"
        },
        {
          "internalType": "address",
          "name": "account",
          "type": "address"
        }
      ],
      "name": "revokeRole",
      "outputs": [],
      "stateMutability": "nonpayable",
      "type": "function"
    },
    {
      "inputs": [
        {
          "internalType": "bytes4",
          "name": "interfaceId",
          "type": "bytes4"
        }
      ],
      "name": "supportsInterface",
      "outputs": [
        {
          "internalType": "bool",
          "name": "",
          "type": "bool"
        }
      ],
      "stateMutability": "view",
      "type": "function"
    },
    {
      "inputs": [
        {
          "internalType": "address",
          "name": "controllerAddress",
          "type": "address"
        }
      ],
      "name": "addVerifiedController",
      "outputs": [],
      "stateMutability": "nonpayable",
      "type": "function"
    },
    {
      "inputs": [
        {
          "internalType": "uint16[]",
          "name": "stats",
          "type": "uint16[]"
        },
        {
          "internalType": "uint256",
          "name": "gameID",
          "type": "uint256"
        },
        {
          "internalType": "address",
          "name": "playerAddress",
          "type": "address"
        }
      ],
      "name": "setStats",
      "outputs": [],
      "stateMutability": "nonpayable",
      "type": "function"
    },
    {
      "inputs": [
        {
          "internalType": "uint16",
          "name": "movementValue",
          "type": "uint16"
        },
        {
          "internalType": "uint256",
          "name": "gameID",
          "type": "uint256"
        },
        {
          "internalType": "address",
          "name": "playerAddress",
          "type": "address"
        }
      ],
      "name": "setMovement",
      "outputs": [],
      "stateMutability": "nonpayable",
      "type": "function"
    },
    {
      "inputs": [
        {
          "internalType": "uint16",
          "name": "agilityValue",
          "type": "uint16"
        },
        {
          "internalType": "uint256",
          "name": "gameID",
          "type": "uint256"
        },
        {
          "internalType": "address",
          "name": "playerAddress",
          "type": "address"
        }
      ],
      "name": "setAgility",
      "outputs": [],
      "stateMutability": "nonpayable",
      "type": "function"
    },
    {
      "inputs": [
        {
          "internalType": "uint16",
          "name": "dexterityValue",
          "type": "uint16"
        },
        {
          "internalType": "uint256",
          "name": "gameID",
          "type": "uint256"
        },
        {
          "internalType": "address",
          "name": "playerAddress",
          "type": "address"
        }
      ],
      "name": "setDexterity",
      "outputs": [],
      "stateMutability": "nonpayable",
      "type": "function"
    },
    {
      "inputs": [
        {
          "internalType": "string",
          "name": "itemTokenType",
          "type": "string"
        },
        {
          "internalType": "uint256",
          "name": "gameID",
          "type": "uint256"
        },
        {
          "internalType": "address",
          "name": "playerAddress",
          "type": "address"
        }
      ],
      "name": "setLeftHandItem",
      "outputs": [],
      "stateMutability": "nonpayable",
      "type": "function"
    },
    {
      "inputs": [
        {
          "internalType": "string",
          "name": "itemTokenType",
          "type": "string"
        },
        {
          "internalType": "uint256",
          "name": "gameID",
          "type": "uint256"
        },
        {
          "internalType": "address",
          "name": "playerAddress",
          "type": "address"
        }
      ],
      "name": "setRightHandItem",
      "outputs": [],
      "stateMutability": "nonpayable",
      "type": "function"
    }
  ],
  "bytecode": "0x60806040523480156200001157600080fd5b506040516200157438038062001574833981016040819052620000349162000244565b6200005c60006200004d64010000000062000082810204565b64010000000062000086810204565b60028054600160a060020a031916600160a060020a039290921691909117905562000276565b3390565b6200009b82826401000000006200009f810204565b5050565b620000b982826401000000006200073e620000e682021704565b6000828152600160205260409020620000e19082640100000000620007c26200018282021704565b505050565b620000fb8282640100000000620001ab810204565b6200009b57600082815260208181526040808320600160a060020a03851684529091529020805460ff191660011790556200013e64010000000062000082810204565b600160a060020a031681600160a060020a0316837f2f8788117e7eff1d82e926ec794901d17c78024a50270940304540a733656f0d60405160405180910390a45050565b6000620001a283600160a060020a038416640100000000620001d4810204565b90505b92915050565b600091825260208281526040808420600160a060020a0393909316845291905290205460ff1690565b6000620001eb83836401000000006200022c810204565b6200022357508154600181810184556000848152602080822090930184905584548482528286019093526040902091909155620001a5565b506000620001a5565b60009081526001919091016020526040902054151590565b6000602082840312156200025757600080fd5b8151600160a060020a03811681146200026f57600080fd5b9392505050565b6112ee80620002866000396000f3fe608060405234801561001057600080fd5b5060043610610133576000357c0100000000000000000000000000000000000000000000000000000000900480638f73e716116100bf578063a217fddf1161008e578063a217fddf1461027e578063c072f66614610286578063ca15c87314610299578063d4f5b152146102ac578063d547741f146102bf57600080fd5b80638f73e716146102325780639010d07c1461024557806391d1485414610258578063999b71d11461026b57600080fd5b806336568abe1161010657806336568abe146101bb5780633ea3cb81146101ce57806343699f62146101e157806354560234146101f4578063777f54401461020757600080fd5b806301ffc9a7146101385780631c834a7f14610160578063248a9ca3146101835780632f2ff15d146101a6575b600080fd5b61014b610146366004610e03565b6102d2565b60405190151581526020015b60405180910390f35b61017560008051602061129983398151915281565b604051908152602001610157565b610175610191366004610e2d565b60009081526020819052604090206001015490565b6101b96101b4366004610e62565b610316565b005b6101b96101c9366004610e62565b610340565b6101b96101dc366004610ea0565b6103eb565b6101b96101ef366004610f26565b61043e565b6101b9610202366004610fe3565b61055a565b60025461021a90600160a060020a031681565b604051600160a060020a039091168152602001610157565b6101b9610240366004610ea0565b6105a9565b61021a610253366004611089565b6105fc565b61014b610266366004610e62565b61061b565b6101b9610279366004610ea0565b610644565b610175600081565b6101b9610294366004610fe3565b610697565b6101756102a7366004610e2d565b6106df565b6101b96102ba3660046110ab565b6106f6565b6101b96102cd366004610e62565b610719565b6000600160e060020a031982167f5a05180f0000000000000000000000000000000000000000000000000000000014806103105750610310826107d7565b92915050565b6000828152602081905260409020600101546103318161083e565b61033b838361084b565b505050565b600160a060020a03811633146103dd576040517f08c379a000000000000000000000000000000000000000000000000000000000815260206004820152602f60248201527f416363657373436f6e74726f6c3a2063616e206f6e6c792072656e6f756e636560448201527f20726f6c657320666f722073656c66000000000000000000000000000000000060648201526084015b60405180910390fd5b6103e7828261086d565b5050565b6000805160206112998339815191526104038161083e565b506000918252600360209081526040808420600160a060020a0390931684529190529020805461ffff90921661ffff19909216919091179055565b6000805160206112998339815191526104568161083e565b83600081518110610469576104696110c6565b6020908102919091018101516000858152600383526040808220600160a060020a038716835290935291909120805461ffff191661ffff9092169190911790558351849060019081106104be576104be6110c6565b6020908102919091018101516000858152600483526040808220600160a060020a038716835290935291909120805461ffff191661ffff909216919091179055835184906002908110610513576105136110c6565b6020908102919091018101516000948552600582526040808620600160a060020a039590951686529390915291909220805461ffff191661ffff9092169190911790555050565b6000805160206112998339815191526105728161083e565b6000838152600660209081526040808320600160a060020a0386168452825290912085516105a292870190610d6a565b5050505050565b6000805160206112998339815191526105c18161083e565b506000918252600560209081526040808420600160a060020a0390931684529190529020805461ffff90921661ffff19909216919091179055565b6000828152600160205260408120610614908361088f565b9392505050565b600091825260208281526040808420600160a060020a0393909316845291905290205460ff1690565b60008051602061129983398151915261065c8161083e565b506000918252600460209081526040808420600160a060020a0390931684529190529020805461ffff90921661ffff19909216919091179055565b6000805160206112998339815191526106af8161083e565b6000838152600760209081526040808320600160a060020a0386168452825290912085516105a292870190610d6a565b60008181526001602052604081206103109061089b565b60006107018161083e565b6103e760008051602061129983398151915283610316565b6000828152602081905260409020600101546107348161083e565b61033b838361086d565b610748828261061b565b6103e757600082815260208181526040808320600160a060020a03851684529091529020805460ff1916600117905561077e3390565b600160a060020a031681600160a060020a0316837f2f8788117e7eff1d82e926ec794901d17c78024a50270940304540a733656f0d60405160405180910390a45050565b600061061483600160a060020a0384166108a5565b6000600160e060020a031982167f7965db0b00000000000000000000000000000000000000000000000000000000148061031057507f01ffc9a700000000000000000000000000000000000000000000000000000000600160e060020a0319831614610310565b61084881336108f4565b50565b610855828261073e565b600082815260016020526040902061033b90826107c2565b6108778282610972565b600082815260016020526040902061033b90826109d7565b600061061483836109ec565b6000610310825490565b60008181526001830160205260408120546108ec57508154600181810184556000848152602080822090930184905584548482528286019093526040902091909155610310565b506000610310565b6108fe828261061b565b6103e75761091681600160a060020a03166014610a16565b610921836020610a16565b60405160200161093292919061110f565b60408051601f19818403018152908290527f08c379a00000000000000000000000000000000000000000000000000000000082526103d491600401611190565b61097c828261061b565b156103e757600082815260208181526040808320600160a060020a0385168085529252808320805460ff1916905551339285917ff6391f5c32d9c69d2a47ea670b442974b53935d1edc7fd64eb21e047a839171b9190a45050565b600061061483600160a060020a038416610c77565b6000826000018281548110610a0357610a036110c6565b9060005260206000200154905092915050565b60606000610a258360026111dc565b610a309060026111fb565b67ffffffffffffffff811115610a4857610a48610edc565b6040519080825280601f01601f191660200182016040528015610a72576020820181803683370190505b5090507f300000000000000000000000000000000000000000000000000000000000000081600081518110610aa957610aa96110c6565b60200101907effffffffffffffffffffffffffffffffffffffffffffffffffffffffffffff1916908160001a9053507f780000000000000000000000000000000000000000000000000000000000000081600181518110610b0c57610b0c6110c6565b60200101907effffffffffffffffffffffffffffffffffffffffffffffffffffffffffffff1916908160001a9053506000610b488460026111dc565b610b539060016111fb565b90505b6001811115610c0e577f303132333435363738396162636465660000000000000000000000000000000085600f1660108110610b9457610b946110c6565b1a7f010000000000000000000000000000000000000000000000000000000000000002828281518110610bc957610bc96110c6565b60200101907effffffffffffffffffffffffffffffffffffffffffffffffffffffffffffff1916908160001a905350601090940493610c0781611213565b9050610b56565b508315610614576040517f08c379a000000000000000000000000000000000000000000000000000000000815260206004820181905260248201527f537472696e67733a20686578206c656e67746820696e73756666696369656e7460448201526064016103d4565b60008181526001830160205260408120548015610d60576000610c9b60018361122a565b8554909150600090610caf9060019061122a565b9050818114610d14576000866000018281548110610ccf57610ccf6110c6565b9060005260206000200154905080876000018481548110610cf257610cf26110c6565b6000918252602080832090910192909255918252600188019052604090208390555b8554869080610d2557610d25611241565b600190038181906000526020600020016000905590558560010160008681526020019081526020016000206000905560019350505050610310565b6000915050610310565b828054610d769061125a565b90600052602060002090601f016020900481019282610d985760008555610dde565b82601f10610db157805160ff1916838001178555610dde565b82800160010185558215610dde579182015b82811115610dde578251825591602001919060010190610dc3565b50610dea929150610dee565b5090565b5b80821115610dea5760008155600101610def565b600060208284031215610e1557600080fd5b8135600160e060020a03198116811461061457600080fd5b600060208284031215610e3f57600080fd5b5035919050565b8035600160a060020a0381168114610e5d57600080fd5b919050565b60008060408385031215610e7557600080fd5b82359150610e8560208401610e46565b90509250929050565b803561ffff81168114610e5d57600080fd5b600080600060608486031215610eb557600080fd5b610ebe84610e8e565b925060208401359150610ed360408501610e46565b90509250925092565b60e060020a634e487b7102600052604160045260246000fd5b604051601f8201601f1916810167ffffffffffffffff81118282101715610f1e57610f1e610edc565b604052919050565b600080600060608486031215610f3b57600080fd5b833567ffffffffffffffff80821115610f5357600080fd5b818601915086601f830112610f6757600080fd5b8135602082821115610f7b57610f7b610edc565b8082029250610f8b818401610ef5565b828152928401810192818101908a851115610fa557600080fd5b948201945b84861015610fca57610fbb86610e8e565b82529482019490820190610faa565b9750508701359450610ed3925050604086019050610e46565b600080600060608486031215610ff857600080fd5b833567ffffffffffffffff8082111561101057600080fd5b818601915086601f83011261102457600080fd5b813560208282111561103857611038610edc565b61104a601f8301601f19168201610ef5565b9250818352888183860101111561106057600080fd5b8181850182850137600081838501015282965080880135955050505050610ed360408501610e46565b6000806040838503121561109c57600080fd5b50508035926020909101359150565b6000602082840312156110bd57600080fd5b61061482610e46565b60e060020a634e487b7102600052603260045260246000fd5b60005b838110156110fa5781810151838201526020016110e2565b83811115611109576000848401525b50505050565b7f416363657373436f6e74726f6c3a206163636f756e74200000000000000000008152600083516111478160178501602088016110df565b7f206973206d697373696e6720726f6c652000000000000000000000000000000060179184019182015283516111848160288401602088016110df565b01602801949350505050565b60208152600082518060208401526111af8160408501602087016110df565b601f01601f19169190910160400192915050565b60e060020a634e487b7102600052601160045260246000fd5b60008160001904831182151516156111f6576111f66111c3565b500290565b6000821982111561120e5761120e6111c3565b500190565b600081611222576112226111c3565b506000190190565b60008282101561123c5761123c6111c3565b500390565b60e060020a634e487b7102600052603160045260246000fd5b60028104600182168061126e57607f821691505b602082108114156112925760e060020a634e487b7102600052602260045260246000fd5b5091905056fe80e2196015fc06a9d891759f8e4f51eb314ef5e9ea068528a8ed0063b87759f0a264697066735822122082adf974aefcb75dc27c5f5a083d78b8c2819a39394e27d9b0e5bd3467a6619964736f6c634300080b0033",
  "immutableReferences": {},
  "source": "// SPDX-License-Identifier: GPL-3.0\npragma solidity >=0.7.0 <0.9.0;\n\nimport \"@openzeppelin/contracts/access/AccessControlEnumerable.sol\";\n\ncontract CharacterCard is AccessControlEnumerable {\n    bytes32 public constant VERIFIED_CONTROLLER_ROLE =\n        keccak256(\"VERIFIED_CONTROLLER_ROLE\");\n\n    address public itemToken;\n    // game id => player address\n    mapping(uint256 => mapping(address => uint16)) movement;\n    mapping(uint256 => mapping(address => uint16)) agility;\n    mapping(uint256 => mapping(address => uint16)) dexterity;\n    //// the following assign a token type, player must still hold balance to use item\n    mapping(uint256 => mapping(address => string)) leftHandItem;\n    mapping(uint256 => mapping(address => string)) rightHandItem;\n\n    constructor(address itemTokenAddress) {\n        _setupRole(DEFAULT_ADMIN_ROLE, _msgSender());\n        itemToken = itemTokenAddress;\n    }\n\n    function addVerifiedController(address controllerAddress)\n        public\n        onlyRole(DEFAULT_ADMIN_ROLE)\n    {\n        grantRole(VERIFIED_CONTROLLER_ROLE, controllerAddress);\n    }\n\n    function setStats(\n        uint16[] memory stats,\n        uint256 gameID,\n        address playerAddress\n    ) external onlyRole(VERIFIED_CONTROLLER_ROLE) {\n        // set all stats at once [movement, agility, dexterity]\n        movement[gameID][playerAddress] = stats[0];\n        agility[gameID][playerAddress] = stats[1];\n        dexterity[gameID][playerAddress] = stats[2];\n    }\n\n    function setMovement(\n        uint16 movementValue,\n        uint256 gameID,\n        address playerAddress\n    ) external onlyRole(VERIFIED_CONTROLLER_ROLE) {\n        movement[gameID][playerAddress] = movementValue;\n    }\n\n    function setAgility(\n        uint16 agilityValue,\n        uint256 gameID,\n        address playerAddress\n    ) external onlyRole(VERIFIED_CONTROLLER_ROLE) {\n        agility[gameID][playerAddress] = agilityValue;\n    }\n\n    function setDexterity(\n        uint16 dexterityValue,\n        uint256 gameID,\n        address playerAddress\n    ) external onlyRole(VERIFIED_CONTROLLER_ROLE) {\n        dexterity[gameID][playerAddress] = dexterityValue;\n    }\n\n    function setLeftHandItem(\n        string memory itemTokenType,\n        uint256 gameID,\n        address playerAddress\n    ) external onlyRole(VERIFIED_CONTROLLER_ROLE) {\n        leftHandItem[gameID][playerAddress] = itemTokenType;\n    }\n\n    function setRightHandItem(\n        string memory itemTokenType,\n        uint256 gameID,\n        address playerAddress\n    ) external onlyRole(VERIFIED_CONTROLLER_ROLE) {\n        rightHandItem[gameID][playerAddress] = itemTokenType;\n    }\n}\n",
  "sourcePath": "/Users/maxmeier/Developer/Lucky Machines/hexploration/contracts/state/CharacterCard.sol",
  "compiler": {
    "name": "solc",
    "version": "0.8.11+commit.d7f03943.Emscripten.clang"
  },
  "schemaVersion": "3.4.4",
  "updatedAt": "2022-05-15T04:28:41.494Z",
  "devdoc": {
    "kind": "dev",
    "methods": {
      "getRoleAdmin(bytes32)": {
        "details": "Returns the admin role that controls `role`. See {grantRole} and {revokeRole}. To change a role's admin, use {_setRoleAdmin}."
      },
      "getRoleMember(bytes32,uint256)": {
        "details": "Returns one of the accounts that have `role`. `index` must be a value between 0 and {getRoleMemberCount}, non-inclusive. Role bearers are not sorted in any particular way, and their ordering may change at any point. WARNING: When using {getRoleMember} and {getRoleMemberCount}, make sure you perform all queries on the same block. See the following https://forum.openzeppelin.com/t/iterating-over-elements-on-enumerableset-in-openzeppelin-contracts/2296[forum post] for more information."
      },
      "getRoleMemberCount(bytes32)": {
        "details": "Returns the number of accounts that have `role`. Can be used together with {getRoleMember} to enumerate all bearers of a role."
      },
      "grantRole(bytes32,address)": {
        "details": "Grants `role` to `account`. If `account` had not been already granted `role`, emits a {RoleGranted} event. Requirements: - the caller must have ``role``'s admin role."
      },
      "hasRole(bytes32,address)": {
        "details": "Returns `true` if `account` has been granted `role`."
      },
      "renounceRole(bytes32,address)": {
        "details": "Revokes `role` from the calling account. Roles are often managed via {grantRole} and {revokeRole}: this function's purpose is to provide a mechanism for accounts to lose their privileges if they are compromised (such as when a trusted device is misplaced). If the calling account had been revoked `role`, emits a {RoleRevoked} event. Requirements: - the caller must be `account`."
      },
      "revokeRole(bytes32,address)": {
        "details": "Revokes `role` from `account`. If `account` had been granted `role`, emits a {RoleRevoked} event. Requirements: - the caller must have ``role``'s admin role."
      },
      "supportsInterface(bytes4)": {
        "details": "See {IERC165-supportsInterface}."
      }
    },
    "version": 1
  },
  "userdoc": {
    "kind": "user",
    "methods": {},
    "version": 1
  }
}