{
  "contractName": "CharacterCard",
  "abi": [
    {
      "inputs": [
        {
          "internalType": "address",
          "name": "itemTokenAddress",
          "type": "address"
        },
        {
          "internalType": "address",
          "name": "artifactTokenAddress",
          "type": "address"
        },
        {
          "internalType": "address",
          "name": "relicTokenAddress",
          "type": "address"
        }
      ],
      "stateMutability": "nonpayable",
      "type": "constructor"
    },
    {
      "anonymous": false,
      "inputs": [
        {
          "indexed": true,
          "internalType": "bytes32",
          "name": "role",
          "type": "bytes32"
        },
        {
          "indexed": true,
          "internalType": "bytes32",
          "name": "previousAdminRole",
          "type": "bytes32"
        },
        {
          "indexed": true,
          "internalType": "bytes32",
          "name": "newAdminRole",
          "type": "bytes32"
        }
      ],
      "name": "RoleAdminChanged",
      "type": "event"
    },
    {
      "anonymous": false,
      "inputs": [
        {
          "indexed": true,
          "internalType": "bytes32",
          "name": "role",
          "type": "bytes32"
        },
        {
          "indexed": true,
          "internalType": "address",
          "name": "account",
          "type": "address"
        },
        {
          "indexed": true,
          "internalType": "address",
          "name": "sender",
          "type": "address"
        }
      ],
      "name": "RoleGranted",
      "type": "event"
    },
    {
      "anonymous": false,
      "inputs": [
        {
          "indexed": true,
          "internalType": "bytes32",
          "name": "role",
          "type": "bytes32"
        },
        {
          "indexed": true,
          "internalType": "address",
          "name": "account",
          "type": "address"
        },
        {
          "indexed": true,
          "internalType": "address",
          "name": "sender",
          "type": "address"
        }
      ],
      "name": "RoleRevoked",
      "type": "event"
    },
    {
      "inputs": [],
      "name": "DEFAULT_ADMIN_ROLE",
      "outputs": [
        {
          "internalType": "bytes32",
          "name": "",
          "type": "bytes32"
        }
      ],
      "stateMutability": "view",
      "type": "function"
    },
    {
      "inputs": [],
      "name": "VERIFIED_CONTROLLER_ROLE",
      "outputs": [
        {
          "internalType": "bytes32",
          "name": "",
          "type": "bytes32"
        }
      ],
      "stateMutability": "view",
      "type": "function"
    },
    {
      "inputs": [
        {
          "internalType": "uint256",
          "name": "",
          "type": "uint256"
        },
        {
          "internalType": "uint256",
          "name": "",
          "type": "uint256"
        }
      ],
      "name": "action",
      "outputs": [
        {
          "internalType": "enum CharacterCard.Action",
          "name": "",
          "type": "uint8"
        }
      ],
      "stateMutability": "view",
      "type": "function"
    },
    {
      "inputs": [
        {
          "internalType": "uint256",
          "name": "",
          "type": "uint256"
        },
        {
          "internalType": "uint256",
          "name": "",
          "type": "uint256"
        }
      ],
      "name": "activeActionCardDrawn",
      "outputs": [
        {
          "internalType": "string",
          "name": "",
          "type": "string"
        }
      ],
      "stateMutability": "view",
      "type": "function"
    },
    {
      "inputs": [
        {
          "internalType": "uint256",
          "name": "",
          "type": "uint256"
        },
        {
          "internalType": "uint256",
          "name": "",
          "type": "uint256"
        },
        {
          "internalType": "uint256",
          "name": "",
          "type": "uint256"
        }
      ],
      "name": "activeActionCardInventoryChanges",
      "outputs": [
        {
          "internalType": "string",
          "name": "",
          "type": "string"
        }
      ],
      "stateMutability": "view",
      "type": "function"
    },
    {
      "inputs": [
        {
          "internalType": "uint256",
          "name": "",
          "type": "uint256"
        },
        {
          "internalType": "uint256",
          "name": "",
          "type": "uint256"
        }
      ],
      "name": "activeActionCardResult",
      "outputs": [
        {
          "internalType": "string",
          "name": "",
          "type": "string"
        }
      ],
      "stateMutability": "view",
      "type": "function"
    },
    {
      "inputs": [
        {
          "internalType": "uint256",
          "name": "",
          "type": "uint256"
        },
        {
          "internalType": "uint256",
          "name": "",
          "type": "uint256"
        }
      ],
      "name": "activeActionCardType",
      "outputs": [
        {
          "internalType": "string",
          "name": "",
          "type": "string"
        }
      ],
      "stateMutability": "view",
      "type": "function"
    },
    {
      "inputs": [
        {
          "internalType": "uint256",
          "name": "",
          "type": "uint256"
        },
        {
          "internalType": "uint256",
          "name": "",
          "type": "uint256"
        }
      ],
      "name": "agility",
      "outputs": [
        {
          "internalType": "uint8",
          "name": "",
          "type": "uint8"
        }
      ],
      "stateMutability": "view",
      "type": "function"
    },
    {
      "inputs": [
        {
          "internalType": "uint256",
          "name": "",
          "type": "uint256"
        },
        {
          "internalType": "uint256",
          "name": "",
          "type": "uint256"
        }
      ],
      "name": "artifact",
      "outputs": [
        {
          "internalType": "string",
          "name": "",
          "type": "string"
        }
      ],
      "stateMutability": "view",
      "type": "function"
    },
    {
      "inputs": [],
      "name": "artifactToken",
      "outputs": [
        {
          "internalType": "address",
          "name": "",
          "type": "address"
        }
      ],
      "stateMutability": "view",
      "type": "function"
    },
    {
      "inputs": [
        {
          "internalType": "uint256",
          "name": "",
          "type": "uint256"
        },
        {
          "internalType": "uint256",
          "name": "",
          "type": "uint256"
        }
      ],
      "name": "dexterity",
      "outputs": [
        {
          "internalType": "uint8",
          "name": "",
          "type": "uint8"
        }
      ],
      "stateMutability": "view",
      "type": "function"
    },
    {
      "inputs": [
        {
          "internalType": "bytes32",
          "name": "role",
          "type": "bytes32"
        }
      ],
      "name": "getRoleAdmin",
      "outputs": [
        {
          "internalType": "bytes32",
          "name": "",
          "type": "bytes32"
        }
      ],
      "stateMutability": "view",
      "type": "function"
    },
    {
      "inputs": [
        {
          "internalType": "bytes32",
          "name": "role",
          "type": "bytes32"
        },
        {
          "internalType": "uint256",
          "name": "index",
          "type": "uint256"
        }
      ],
      "name": "getRoleMember",
      "outputs": [
        {
          "internalType": "address",
          "name": "",
          "type": "address"
        }
      ],
      "stateMutability": "view",
      "type": "function"
    },
    {
      "inputs": [
        {
          "internalType": "bytes32",
          "name": "role",
          "type": "bytes32"
        }
      ],
      "name": "getRoleMemberCount",
      "outputs": [
        {
          "internalType": "uint256",
          "name": "",
          "type": "uint256"
        }
      ],
      "stateMutability": "view",
      "type": "function"
    },
    {
      "inputs": [
        {
          "internalType": "bytes32",
          "name": "role",
          "type": "bytes32"
        },
        {
          "internalType": "address",
          "name": "account",
          "type": "address"
        }
      ],
      "name": "grantRole",
      "outputs": [],
      "stateMutability": "nonpayable",
      "type": "function"
    },
    {
      "inputs": [
        {
          "internalType": "bytes32",
          "name": "role",
          "type": "bytes32"
        },
        {
          "internalType": "address",
          "name": "account",
          "type": "address"
        }
      ],
      "name": "hasRole",
      "outputs": [
        {
          "internalType": "bool",
          "name": "",
          "type": "bool"
        }
      ],
      "stateMutability": "view",
      "type": "function"
    },
    {
      "inputs": [],
      "name": "itemToken",
      "outputs": [
        {
          "internalType": "address",
          "name": "",
          "type": "address"
        }
      ],
      "stateMutability": "view",
      "type": "function"
    },
    {
      "inputs": [
        {
          "internalType": "uint256",
          "name": "",
          "type": "uint256"
        },
        {
          "internalType": "uint256",
          "name": "",
          "type": "uint256"
        }
      ],
      "name": "leftHandItem",
      "outputs": [
        {
          "internalType": "string",
          "name": "",
          "type": "string"
        }
      ],
      "stateMutability": "view",
      "type": "function"
    },
    {
      "inputs": [
        {
          "internalType": "uint256",
          "name": "",
          "type": "uint256"
        },
        {
          "internalType": "uint256",
          "name": "",
          "type": "uint256"
        }
      ],
      "name": "movement",
      "outputs": [
        {
          "internalType": "uint8",
          "name": "",
          "type": "uint8"
        }
      ],
      "stateMutability": "view",
      "type": "function"
    },
    {
      "inputs": [
        {
          "internalType": "uint256",
          "name": "",
          "type": "uint256"
        },
        {
          "internalType": "uint256",
          "name": "",
          "type": "uint256"
        }
      ],
      "name": "relic",
      "outputs": [
        {
          "internalType": "string",
          "name": "",
          "type": "string"
        }
      ],
      "stateMutability": "view",
      "type": "function"
    },
    {
      "inputs": [],
      "name": "relicToken",
      "outputs": [
        {
          "internalType": "address",
          "name": "",
          "type": "address"
        }
      ],
      "stateMutability": "view",
      "type": "function"
    },
    {
      "inputs": [
        {
          "internalType": "bytes32",
          "name": "role",
          "type": "bytes32"
        },
        {
          "internalType": "address",
          "name": "account",
          "type": "address"
        }
      ],
      "name": "renounceRole",
      "outputs": [],
      "stateMutability": "nonpayable",
      "type": "function"
    },
    {
      "inputs": [
        {
          "internalType": "bytes32",
          "name": "role",
          "type": "bytes32"
        },
        {
          "internalType": "address",
          "name": "account",
          "type": "address"
        }
      ],
      "name": "revokeRole",
      "outputs": [],
      "stateMutability": "nonpayable",
      "type": "function"
    },
    {
      "inputs": [
        {
          "internalType": "uint256",
          "name": "",
          "type": "uint256"
        },
        {
          "internalType": "uint256",
          "name": "",
          "type": "uint256"
        }
      ],
      "name": "rightHandItem",
      "outputs": [
        {
          "internalType": "string",
          "name": "",
          "type": "string"
        }
      ],
      "stateMutability": "view",
      "type": "function"
    },
    {
      "inputs": [
        {
          "internalType": "uint256",
          "name": "",
          "type": "uint256"
        },
        {
          "internalType": "uint256",
          "name": "",
          "type": "uint256"
        }
      ],
      "name": "status",
      "outputs": [
        {
          "internalType": "string",
          "name": "",
          "type": "string"
        }
      ],
      "stateMutability": "view",
      "type": "function"
    },
    {
      "inputs": [
        {
          "internalType": "bytes4",
          "name": "interfaceId",
          "type": "bytes4"
        }
      ],
      "name": "supportsInterface",
      "outputs": [
        {
          "internalType": "bool",
          "name": "",
          "type": "bool"
        }
      ],
      "stateMutability": "view",
      "type": "function"
    },
    {
      "inputs": [
        {
          "internalType": "address",
          "name": "controllerAddress",
          "type": "address"
        }
      ],
      "name": "addVerifiedController",
      "outputs": [],
      "stateMutability": "nonpayable",
      "type": "function"
    },
    {
      "inputs": [
        {
          "internalType": "uint256",
          "name": "gameID",
          "type": "uint256"
        },
        {
          "internalType": "uint256",
          "name": "playerID",
          "type": "uint256"
        }
      ],
      "name": "getStats",
      "outputs": [
        {
          "internalType": "uint8[3]",
          "name": "stats",
          "type": "uint8[3]"
        }
      ],
      "stateMutability": "view",
      "type": "function"
    },
    {
      "inputs": [
        {
          "internalType": "uint256",
          "name": "gameID",
          "type": "uint256"
        },
        {
          "internalType": "uint256",
          "name": "playerID",
          "type": "uint256"
        }
      ],
      "name": "getInventoryChanges",
      "outputs": [
        {
          "internalType": "string[3]",
          "name": "",
          "type": "string[3]"
        }
      ],
      "stateMutability": "view",
      "type": "function"
    },
    {
      "inputs": [
        {
          "internalType": "uint8[3]",
          "name": "stats",
          "type": "uint8[3]"
        },
        {
          "internalType": "uint256",
          "name": "gameID",
          "type": "uint256"
        },
        {
          "internalType": "uint256",
          "name": "playerID",
          "type": "uint256"
        }
      ],
      "name": "setStats",
      "outputs": [],
      "stateMutability": "nonpayable",
      "type": "function"
    },
    {
      "inputs": [
        {
          "internalType": "uint8",
          "name": "movementValue",
          "type": "uint8"
        },
        {
          "internalType": "uint256",
          "name": "gameID",
          "type": "uint256"
        },
        {
          "internalType": "uint256",
          "name": "playerID",
          "type": "uint256"
        }
      ],
      "name": "setMovement",
      "outputs": [],
      "stateMutability": "nonpayable",
      "type": "function"
    },
    {
      "inputs": [
        {
          "internalType": "uint8",
          "name": "agilityValue",
          "type": "uint8"
        },
        {
          "internalType": "uint256",
          "name": "gameID",
          "type": "uint256"
        },
        {
          "internalType": "uint256",
          "name": "playerID",
          "type": "uint256"
        }
      ],
      "name": "setAgility",
      "outputs": [],
      "stateMutability": "nonpayable",
      "type": "function"
    },
    {
      "inputs": [
        {
          "internalType": "uint8",
          "name": "dexterityValue",
          "type": "uint8"
        },
        {
          "internalType": "uint256",
          "name": "gameID",
          "type": "uint256"
        },
        {
          "internalType": "uint256",
          "name": "playerID",
          "type": "uint256"
        }
      ],
      "name": "setDexterity",
      "outputs": [],
      "stateMutability": "nonpayable",
      "type": "function"
    },
    {
      "inputs": [
        {
          "internalType": "string",
          "name": "itemTokenType",
          "type": "string"
        },
        {
          "internalType": "uint256",
          "name": "gameID",
          "type": "uint256"
        },
        {
          "internalType": "uint256",
          "name": "playerID",
          "type": "uint256"
        }
      ],
      "name": "setLeftHandItem",
      "outputs": [],
      "stateMutability": "nonpayable",
      "type": "function"
    },
    {
      "inputs": [
        {
          "internalType": "string",
          "name": "itemTokenType",
          "type": "string"
        },
        {
          "internalType": "uint256",
          "name": "gameID",
          "type": "uint256"
        },
        {
          "internalType": "uint256",
          "name": "playerID",
          "type": "uint256"
        }
      ],
      "name": "setRightHandItem",
      "outputs": [],
      "stateMutability": "nonpayable",
      "type": "function"
    },
    {
      "inputs": [
        {
          "internalType": "string",
          "name": "itemTokenType",
          "type": "string"
        },
        {
          "internalType": "uint256",
          "name": "gameID",
          "type": "uint256"
        },
        {
          "internalType": "uint256",
          "name": "playerID",
          "type": "uint256"
        }
      ],
      "name": "setArtifact",
      "outputs": [],
      "stateMutability": "nonpayable",
      "type": "function"
    },
    {
      "inputs": [
        {
          "internalType": "string",
          "name": "itemTokenType",
          "type": "string"
        },
        {
          "internalType": "uint256",
          "name": "gameID",
          "type": "uint256"
        },
        {
          "internalType": "uint256",
          "name": "playerID",
          "type": "uint256"
        }
      ],
      "name": "setStatus",
      "outputs": [],
      "stateMutability": "nonpayable",
      "type": "function"
    },
    {
      "inputs": [
        {
          "internalType": "string",
          "name": "itemTokenType",
          "type": "string"
        },
        {
          "internalType": "uint256",
          "name": "gameID",
          "type": "uint256"
        },
        {
          "internalType": "uint256",
          "name": "playerID",
          "type": "uint256"
        }
      ],
      "name": "setRelic",
      "outputs": [],
      "stateMutability": "nonpayable",
      "type": "function"
    },
    {
      "inputs": [
        {
          "internalType": "enum CharacterCard.Action",
          "name": "_action",
          "type": "uint8"
        },
        {
          "internalType": "uint256",
          "name": "gameID",
          "type": "uint256"
        },
        {
          "internalType": "uint256",
          "name": "playerID",
          "type": "uint256"
        }
      ],
      "name": "setAction",
      "outputs": [],
      "stateMutability": "nonpayable",
      "type": "function"
    },
    {
      "inputs": [
        {
          "internalType": "string",
          "name": "actionCardType",
          "type": "string"
        },
        {
          "internalType": "string",
          "name": "actionCardDrawn",
          "type": "string"
        },
        {
          "internalType": "string",
          "name": "actionCardResult",
          "type": "string"
        },
        {
          "internalType": "string[3]",
          "name": "actionCardInventoryChanges",
          "type": "string[3]"
        },
        {
          "internalType": "uint256",
          "name": "gameID",
          "type": "uint256"
        },
        {
          "internalType": "uint256",
          "name": "playerID",
          "type": "uint256"
        }
      ],
      "name": "setActionResults",
      "outputs": [],
      "stateMutability": "nonpayable",
      "type": "function"
    }
  ],
  "bytecode": "0x60806040523480156200001157600080fd5b5060405162001f5d38038062001f5d83398101604081905262000034916200027e565b6200005c60006200004d6401000000006200009f810204565b640100000000620000a3810204565b60028054600160a060020a03948516600160a060020a031991821617909155600380549385169382169390931790925560048054919093169116179055620002c8565b3390565b620000b88282640100000000620000bc810204565b5050565b620000d6828264010000000062000e356200010382021704565b6000828152600160205260409020620000fe908264010000000062000eb96200019f82021704565b505050565b620001188282640100000000620001c8810204565b620000b857600082815260208181526040808320600160a060020a03851684529091529020805460ff191660011790556200015b6401000000006200009f810204565b600160a060020a031681600160a060020a0316837f2f8788117e7eff1d82e926ec794901d17c78024a50270940304540a733656f0d60405160405180910390a45050565b6000620001bf83600160a060020a038416640100000000620001f1810204565b90505b92915050565b600091825260208281526040808420600160a060020a0393909316845291905290205460ff1690565b600062000208838364010000000062000249810204565b6200024057508154600181810184556000848152602080822090930184905584548482528286019093526040902091909155620001c2565b506000620001c2565b60009081526001919091016020526040902054151590565b8051600160a060020a03811681146200027957600080fd5b919050565b6000806000606084860312156200029457600080fd5b6200029f8462000261565b9250620002af6020850162000261565b9150620002bf6040850162000261565b90509250925092565b611c8580620002d86000396000f3fe608060405234801561001057600080fd5b5060043610610265576000357c0100000000000000000000000000000000000000000000000000000000900480639010d07c11610158578063c28122a3116100d5578063d4f5b15211610099578063d4f5b152146105b8578063d547741f146105cb578063dd51a3ac146105de578063e0e0a24b146103f7578063e8216595146105f157600080fd5b8063c28122a314610516578063ca15c87314610529578063d104563e1461053c578063d1eb50531461056a578063d27ffd0d146105a557600080fd5b8063a867ef781161011c578063a867ef78146104aa578063a8953434146104bd578063b3dd803a146104d0578063bb47c9b3146104e3578063bba11b871461050357600080fd5b80639010d07c1461045657806391d14854146104695780639c2206471461047c578063a217fddf1461048f578063a4a458fe1461049757600080fd5b806336568abe116101e65780636f02e57b116101aa5780636f02e57b146103f7578063777f54401461041d5780637ad19589146103f75780637dcfa29114610430578063876d01cb1461044357600080fd5b806336568abe146103be57806345b8ace5146103d15780635381ee17146103e45780635f2caa5e146103f75780636011943c1461040a57600080fd5b80631c834a7f1161022d5780631c834a7f14610305578063209ce26614610328578063248a9ca3146103485780632af37e1d1461036b5780632f2ff15d146103ab57600080fd5b806301ffc9a71461026a57806303936d461461029257806307afb2a0146102bd578063108a038c146102dd578063134f10b4146102f2575b600080fd5b61027d61027836600461156c565b61061f565b60405190151581526020015b60405180910390f35b6003546102a590600160a060020a031681565b604051600160a060020a039091168152602001610289565b6102d06102cb366004611596565b610663565b6040516102899190611614565b6102f06102eb36600461163d565b610708565b005b6102f061030036600461163d565b61074e565b61031a600080516020611c3083398151915281565b604051908152602001610289565b61033b610336366004611596565b610794565b6040516102899190611670565b61031a6103563660046116bd565b60009081526020819052604090206001015490565b610399610379366004611596565b600760209081526000928352604080842090915290825290205460ff1681565b60405160ff9091168152602001610289565b6102f06103b93660046116ed565b610875565b6102f06103cc3660046116ed565b61089f565b6102f06103df36600461175b565b610933565b6102f06103f236600461163d565b610a15565b6102f061040536600461185d565b610a5b565b6102d06104183660046118ab565b610aa1565b6002546102a590600160a060020a031681565b6102d061043e366004611596565b610adb565b6004546102a590600160a060020a031681565b6102a5610464366004611596565b610aff565b61027d6104773660046116ed565b610b1e565b6102d061048a366004611596565b610b47565b61031a600081565b6102d06104a5366004611596565b610b6b565b6102d06104b8366004611596565b610b8f565b6102f06104cb36600461185d565b610bb3565b6102d06104de366004611596565b610bf2565b6104f66104f1366004611596565b610c16565b60405161028991906118d7565b6102f061051136600461197e565b610c76565b6102d0610524366004611596565b610d35565b61031a6105373660046116bd565b610d59565b61039961054a366004611596565b600660209081526000928352604080842090915290825290205460ff1681565b610598610578366004611596565b600860209081526000928352604080842090915290825290205460ff1681565b6040516102899190611a56565b6102d06105b3366004611596565b610d70565b6102f06105c6366004611a81565b610d94565b6102f06105d93660046116ed565b610db7565b6102f06105ec366004611a9c565b610ddc565b6103996105ff366004611596565b600560209081526000928352604080842090915290825290205460ff1681565b6000600160e060020a031982167f5a05180f00000000000000000000000000000000000000000000000000000000148061065d575061065d82610ece565b92915050565b600f6020908152600092835260408084209091529082529020805461068790611ac0565b80601f01602080910402602001604051908101604052809291908181526020018280546106b390611ac0565b80156107005780601f106106d557610100808354040283529160200191610700565b820191906000526020600020905b8154815290600101906020018083116106e357829003601f168201915b505050505081565b600080516020611c3083398151915261072081610f35565b5060009182526007602090815260408084209284529190529020805460ff191660ff92909216919091179055565b600080516020611c3083398151915261076681610f35565b5060009182526006602090815260408084209284529190529020805460ff191660ff92909216919091179055565b61079c6113eb565b60008381526011602090815260408083208584529091528082208151606081019092529091600390835b828210156108695783820180546107dc90611ac0565b80601f016020809104026020016040519081016040528092919081815260200182805461080890611ac0565b80156108555780601f1061082a57610100808354040283529160200191610855565b820191906000526020600020905b81548152906001019060200180831161083857829003601f168201915b5050505050815260200190600101906107c6565b50505050905092915050565b60008281526020819052604090206001015461089081610f35565b61089a8383610f42565b505050565b600160a060020a03811633146109255760405160e560020a62461bcd02815260206004820152602f60248201527f416363657373436f6e74726f6c3a2063616e206f6e6c792072656e6f756e636560448201527f20726f6c657320666f722073656c66000000000000000000000000000000000060648201526084015b60405180910390fd5b61092f8282610f64565b5050565b600080516020611c3083398151915261094b81610f35565b8351600460ff90911611610960578351610963565b60045b60008481526005602090815260408083208684528252909120805460ff191660ff93841617905585015160049116116109a05760208401516109a3565b60045b600084815260066020908152604080832086845290915290819020805460ff191660ff93841617905585015160049116116109e25760408401516109e5565b60045b600093845260076020908152604080862094865293905291909220805460ff191660ff9092169190911790555050565b600080516020611c30833981519152610a2d81610f35565b5060009182526005602090815260408084209284529190529020805460ff191660ff92909216919091179055565b600080516020611c30833981519152610a7381610f35565b6000838152600a6020908152604080832085845282529091208551610a9a92870190611412565b5050505050565b60116020528260005260406000206020528160005260406000208160038110610ac957600080fd5b01805490935061068792509050611ac0565b60096020908152600092835260408084209091529082529020805461068790611ac0565b6000828152600160205260408120610b179083610f86565b9392505050565b600091825260208281526040808420600160a060020a0393909316845291905290205460ff1690565b600a6020908152600092835260408084209091529082529020805461068790611ac0565b600e6020908152600092835260408084209091529082529020805461068790611ac0565b600d6020908152600092835260408084209091529082529020805461068790611ac0565b600080516020611c30833981519152610bcb81610f35565b600083815260096020908152604080832085845282529091208551610a9a92870190611412565b600c6020908152600092835260408084209091529082529020805461068790611ac0565b610c1e611496565b600083815260056020908152604080832085845282528083205460ff90811685528684526006835281842086855283528184205481168584015295835260078252808320948352939052829020549092169082015290565b600080516020611c30833981519152610c8e81610f35565b6000838152600e6020908152604080832085845282529091208851610cb5928a0190611412565b506000838152600f6020908152604080832085845282529091208751610cdd92890190611412565b50600083815260106020908152604080832085845282529091208651610d0592880190611412565b5060008381526011602090815260408083208584529091529020610d2b908560036114b4565b5050505050505050565b60106020908152600092835260408084209091529082529020805461068790611ac0565b600081815260016020526040812061065d90610f92565b600b6020908152600092835260408084209091529082529020805461068790611ac0565b6000610d9f81610f35565b61092f600080516020611c3083398151915283610875565b600082815260208190526040902060010154610dd281610f35565b61089a8383610f64565b600080516020611c30833981519152610df481610f35565b60008381526008602090815260408083208584529091529020805485919060ff19166001836006811115610e2a57610e2a611a3d565b021790555050505050565b610e3f8282610b1e565b61092f57600082815260208181526040808320600160a060020a03851684529091529020805460ff19166001179055610e753390565b600160a060020a031681600160a060020a0316837f2f8788117e7eff1d82e926ec794901d17c78024a50270940304540a733656f0d60405160405180910390a45050565b6000610b1783600160a060020a038416610f9c565b6000600160e060020a031982167f7965db0b00000000000000000000000000000000000000000000000000000000148061065d57507f01ffc9a700000000000000000000000000000000000000000000000000000000600160e060020a031983161461065d565b610f3f8133610feb565b50565b610f4c8282610e35565b600082815260016020526040902061089a9082610eb9565b610f6e8282611052565b600082815260016020526040902061089a90826110b7565b6000610b1783836110cc565b600061065d825490565b6000818152600183016020526040812054610fe35750815460018181018455600084815260208082209093018490558454848252828601909352604090209190915561065d565b50600061065d565b610ff58282610b1e565b61092f5761100d81600160a060020a031660146110f6565b6110188360206110f6565b604051602001611029929190611b17565b60408051601f198184030181529082905260e560020a62461bcd02825261091c91600401611614565b61105c8282610b1e565b1561092f57600082815260208181526040808320600160a060020a0385168085529252808320805460ff1916905551339285917ff6391f5c32d9c69d2a47ea670b442974b53935d1edc7fd64eb21e047a839171b9190a45050565b6000610b1783600160a060020a0384166112f8565b60008260000182815481106110e3576110e3611afe565b9060005260206000200154905092915050565b60606000611105836002611bb1565b611110906002611bd0565b67ffffffffffffffff81111561112857611128611719565b6040519080825280601f01601f191660200182016040528015611152576020820181803683370190505b5090507f30000000000000000000000000000000000000000000000000000000000000008160008151811061118957611189611afe565b6020010190600160f860020a031916908160001a9053507f7800000000000000000000000000000000000000000000000000000000000000816001815181106111d4576111d4611afe565b6020010190600160f860020a031916908160001a90535060006111f8846002611bb1565b611203906001611bd0565b90505b60018111156112a6577f303132333435363738396162636465660000000000000000000000000000000085600f166010811061124457611244611afe565b1a7f01000000000000000000000000000000000000000000000000000000000000000282828151811061127957611279611afe565b6020010190600160f860020a031916908160001a90535060109094049361129f81611be8565b9050611206565b508315610b175760405160e560020a62461bcd02815260206004820181905260248201527f537472696e67733a20686578206c656e67746820696e73756666696369656e74604482015260640161091c565b600081815260018301602052604081205480156113e157600061131c600183611bff565b855490915060009061133090600190611bff565b905081811461139557600086600001828154811061135057611350611afe565b906000526020600020015490508087600001848154811061137357611373611afe565b6000918252602080832090910192909255918252600188019052604090208390555b85548690806113a6576113a6611c16565b60019003818190600052602060002001600090559055856001016000868152602001908152602001600020600090556001935050505061065d565b600091505061065d565b60405180606001604052806003905b60608152602001906001900390816113fa5790505090565b82805461141e90611ac0565b90600052602060002090601f0160209004810192826114405760008555611486565b82601f1061145957805160ff1916838001178555611486565b82800160010185558215611486579182015b8281111561148657825182559160200191906001019061146b565b50611492929150611500565b5090565b60405180606001604052806003906020820280368337509192915050565b82600381019282156114f4579160200282015b828111156114f457825180516114e4918491602090910190611412565b50916020019190600101906114c7565b50611492929150611515565b5b808211156114925760008155600101611501565b808211156114925760006115298282611532565b50600101611515565b50805461153e90611ac0565b6000825580601f1061154e575050565b601f016020900490600052602060002090810190610f3f9190611500565b60006020828403121561157e57600080fd5b8135600160e060020a031981168114610b1757600080fd5b600080604083850312156115a957600080fd5b50508035926020909101359150565b60005b838110156115d35781810151838201526020016115bb565b838111156115e2576000848401525b50505050565b600081518084526116008160208601602086016115b8565b601f01601f19169290920160200192915050565b602081526000610b1760208301846115e8565b803560ff8116811461163857600080fd5b919050565b60008060006060848603121561165257600080fd5b61165b84611627565b95602085013595506040909401359392505050565b60208082526000906080830183820185845b60038110156116b157601f1987850301835261169f8483516115e8565b93509184019190840190600101611682565b50919695505050505050565b6000602082840312156116cf57600080fd5b5035919050565b8035600160a060020a038116811461163857600080fd5b6000806040838503121561170057600080fd5b82359150611710602084016116d6565b90509250929050565b60e060020a634e487b7102600052604160045260246000fd5b6040516060810167ffffffffffffffff8111828210171561175557611755611719565b60405290565b600080600060a0848603121561177057600080fd5b84601f85011261177f57600080fd5b611787611732565b80606086018781111561179957600080fd5b865b818110156117ba576117ac81611627565b84526020938401930161179b565b5090979035965060809590950135949350505050565b600082601f8301126117e157600080fd5b813567ffffffffffffffff808211156117fc576117fc611719565b604051601f8301601f19908116603f0116810190828211818310171561182457611824611719565b8160405283815286602085880101111561183d57600080fd5b836020870160208301376000602085830101528094505050505092915050565b60008060006060848603121561187257600080fd5b833567ffffffffffffffff81111561188957600080fd5b611895868287016117d0565b9660208601359650604090950135949350505050565b6000806000606084860312156118c057600080fd5b505081359360208301359350604090920135919050565b60608101818360005b600381101561190257815160ff168352602092830192909101906001016118e0565b50505092915050565b600082601f83011261191c57600080fd5b611924611732565b80606084018581111561193657600080fd5b845b8181101561197357803567ffffffffffffffff8111156119585760008081fd5b611964888289016117d0565b85525060209384019301611938565b509095945050505050565b60008060008060008060c0878903121561199757600080fd5b863567ffffffffffffffff808211156119af57600080fd5b6119bb8a838b016117d0565b975060208901359150808211156119d157600080fd5b6119dd8a838b016117d0565b965060408901359150808211156119f357600080fd5b6119ff8a838b016117d0565b95506060890135915080821115611a1557600080fd5b50611a2289828a0161190b565b9350506080870135915060a087013590509295509295509295565b60e060020a634e487b7102600052602160045260246000fd5b6020810160078310611a7b5760e060020a634e487b7102600052602160045260246000fd5b91905290565b600060208284031215611a9357600080fd5b610b17826116d6565b600080600060608486031215611ab157600080fd5b83356007811061165b57600080fd5b600281046001821680611ad457607f821691505b60208210811415611af85760e060020a634e487b7102600052602260045260246000fd5b50919050565b60e060020a634e487b7102600052603260045260246000fd5b7f416363657373436f6e74726f6c3a206163636f756e7420000000000000000000815260008351611b4f8160178501602088016115b8565b7f206973206d697373696e6720726f6c65200000000000000000000000000000006017918401918201528351611b8c8160288401602088016115b8565b01602801949350505050565b60e060020a634e487b7102600052601160045260246000fd5b6000816000190483118215151615611bcb57611bcb611b98565b500290565b60008219821115611be357611be3611b98565b500190565b600081611bf757611bf7611b98565b506000190190565b600082821015611c1157611c11611b98565b500390565b60e060020a634e487b7102600052603160045260246000fdfe80e2196015fc06a9d891759f8e4f51eb314ef5e9ea068528a8ed0063b87759f0a2646970667358221220b77091dc2d1461bba726c844a716b97e9275bc728e6c09f3adc248cc4ef875e364736f6c634300080b0033",
  "immutableReferences": {},
  "source": "// SPDX-License-Identifier: GPL-3.0\npragma solidity >=0.7.0 <0.9.0;\n\nimport \"@openzeppelin/contracts/access/AccessControlEnumerable.sol\";\n\ncontract CharacterCard is AccessControlEnumerable {\n    enum Action {\n        Idle,\n        Move,\n        SetupCamp,\n        BreakDownCamp,\n        Dig,\n        Rest,\n        Help\n    }\n\n    bytes32 public constant VERIFIED_CONTROLLER_ROLE =\n        keccak256(\"VERIFIED_CONTROLLER_ROLE\");\n    uint8 constant MAX_MOVEMENT = 4;\n    uint8 constant MAX_AGILITY = 4;\n    uint8 constant MAX_DEXTERITY = 4;\n\n    address public itemToken;\n    address public artifactToken;\n    address public relicToken;\n    // game id => player ID\n    mapping(uint256 => mapping(uint256 => uint8)) public movement;\n    mapping(uint256 => mapping(uint256 => uint8)) public agility;\n    mapping(uint256 => mapping(uint256 => uint8)) public dexterity;\n    mapping(uint256 => mapping(uint256 => Action)) public action; // set to enumerated list\n    //// the following assign a token type, player must still hold balance to use item\n    mapping(uint256 => mapping(uint256 => string)) public leftHandItem;\n    mapping(uint256 => mapping(uint256 => string)) public rightHandItem;\n    mapping(uint256 => mapping(uint256 => string)) public artifact;\n    mapping(uint256 => mapping(uint256 => string)) public status;\n    mapping(uint256 => mapping(uint256 => string)) public relic;\n    // results of current action\n    mapping(uint256 => mapping(uint256 => string)) public activeActionCardType;\n    mapping(uint256 => mapping(uint256 => string)) public activeActionCardDrawn;\n    mapping(uint256 => mapping(uint256 => string))\n        public activeActionCardResult;\n    mapping(uint256 => mapping(uint256 => string[3]))\n        public activeActionCardInventoryChanges;\n\n    constructor(\n        address itemTokenAddress,\n        address artifactTokenAddress,\n        address relicTokenAddress\n    ) {\n        _setupRole(DEFAULT_ADMIN_ROLE, _msgSender());\n        itemToken = itemTokenAddress;\n        artifactToken = artifactTokenAddress;\n        relicToken = relicTokenAddress;\n    }\n\n    function addVerifiedController(address controllerAddress)\n        public\n        onlyRole(DEFAULT_ADMIN_ROLE)\n    {\n        grantRole(VERIFIED_CONTROLLER_ROLE, controllerAddress);\n    }\n\n    function getStats(uint256 gameID, uint256 playerID)\n        public\n        view\n        returns (uint8[3] memory stats)\n    {\n        stats[0] = movement[gameID][playerID];\n        stats[1] = agility[gameID][playerID];\n        stats[2] = dexterity[gameID][playerID];\n    }\n\n    function getInventoryChanges(uint256 gameID, uint256 playerID)\n        public\n        view\n        returns (string[3] memory)\n    {\n        return activeActionCardInventoryChanges[gameID][playerID];\n    }\n\n    function setStats(\n        uint8[3] memory stats,\n        uint256 gameID,\n        uint256 playerID\n    ) external onlyRole(VERIFIED_CONTROLLER_ROLE) {\n        // set all stats at once [movement, agility, dexterity]\n        movement[gameID][playerID] = stats[0] > MAX_MOVEMENT\n            ? MAX_MOVEMENT\n            : stats[0];\n        agility[gameID][playerID] = stats[1] > MAX_AGILITY\n            ? MAX_AGILITY\n            : stats[1];\n        dexterity[gameID][playerID] = stats[2] > MAX_DEXTERITY\n            ? MAX_DEXTERITY\n            : stats[2];\n    }\n\n    function setMovement(\n        uint8 movementValue,\n        uint256 gameID,\n        uint256 playerID\n    ) external onlyRole(VERIFIED_CONTROLLER_ROLE) {\n        movement[gameID][playerID] = movementValue;\n    }\n\n    function setAgility(\n        uint8 agilityValue,\n        uint256 gameID,\n        uint256 playerID\n    ) external onlyRole(VERIFIED_CONTROLLER_ROLE) {\n        agility[gameID][playerID] = agilityValue;\n    }\n\n    function setDexterity(\n        uint8 dexterityValue,\n        uint256 gameID,\n        uint256 playerID\n    ) external onlyRole(VERIFIED_CONTROLLER_ROLE) {\n        dexterity[gameID][playerID] = dexterityValue;\n    }\n\n    function setLeftHandItem(\n        string memory itemTokenType,\n        uint256 gameID,\n        uint256 playerID\n    ) external onlyRole(VERIFIED_CONTROLLER_ROLE) {\n        leftHandItem[gameID][playerID] = itemTokenType;\n    }\n\n    function setRightHandItem(\n        string memory itemTokenType,\n        uint256 gameID,\n        uint256 playerID\n    ) external onlyRole(VERIFIED_CONTROLLER_ROLE) {\n        rightHandItem[gameID][playerID] = itemTokenType;\n    }\n\n    function setArtifact(\n        string memory itemTokenType,\n        uint256 gameID,\n        uint256 playerID\n    ) external onlyRole(VERIFIED_CONTROLLER_ROLE) {\n        rightHandItem[gameID][playerID] = itemTokenType;\n    }\n\n    function setStatus(\n        string memory itemTokenType,\n        uint256 gameID,\n        uint256 playerID\n    ) external onlyRole(VERIFIED_CONTROLLER_ROLE) {\n        rightHandItem[gameID][playerID] = itemTokenType;\n    }\n\n    function setRelic(\n        string memory itemTokenType,\n        uint256 gameID,\n        uint256 playerID\n    ) external onlyRole(VERIFIED_CONTROLLER_ROLE) {\n        rightHandItem[gameID][playerID] = itemTokenType;\n    }\n\n    function setAction(\n        Action _action,\n        uint256 gameID,\n        uint256 playerID\n    ) external onlyRole(VERIFIED_CONTROLLER_ROLE) {\n        action[gameID][playerID] = _action;\n    }\n\n    function setActionResults(\n        string memory actionCardType,\n        string memory actionCardDrawn,\n        string memory actionCardResult,\n        string[3] memory actionCardInventoryChanges,\n        uint256 gameID,\n        uint256 playerID\n    ) external onlyRole(VERIFIED_CONTROLLER_ROLE) {\n        activeActionCardType[gameID][playerID] = actionCardType;\n        activeActionCardDrawn[gameID][playerID] = actionCardDrawn;\n        activeActionCardResult[gameID][playerID] = actionCardResult;\n        activeActionCardInventoryChanges[gameID][\n            playerID\n        ] = actionCardInventoryChanges;\n    }\n}\n",
  "sourcePath": "/Users/maxmeier/Developer/Lucky Machines/hexploration/contracts/state/CharacterCard.sol",
  "compiler": {
    "name": "solc",
    "version": "0.8.11+commit.d7f03943.Emscripten.clang"
  },
  "schemaVersion": "3.4.4",
  "updatedAt": "2022-06-16T23:24:45.379Z",
  "devdoc": {
    "kind": "dev",
    "methods": {
      "getRoleAdmin(bytes32)": {
        "details": "Returns the admin role that controls `role`. See {grantRole} and {revokeRole}. To change a role's admin, use {_setRoleAdmin}."
      },
      "getRoleMember(bytes32,uint256)": {
        "details": "Returns one of the accounts that have `role`. `index` must be a value between 0 and {getRoleMemberCount}, non-inclusive. Role bearers are not sorted in any particular way, and their ordering may change at any point. WARNING: When using {getRoleMember} and {getRoleMemberCount}, make sure you perform all queries on the same block. See the following https://forum.openzeppelin.com/t/iterating-over-elements-on-enumerableset-in-openzeppelin-contracts/2296[forum post] for more information."
      },
      "getRoleMemberCount(bytes32)": {
        "details": "Returns the number of accounts that have `role`. Can be used together with {getRoleMember} to enumerate all bearers of a role."
      },
      "grantRole(bytes32,address)": {
        "details": "Grants `role` to `account`. If `account` had not been already granted `role`, emits a {RoleGranted} event. Requirements: - the caller must have ``role``'s admin role."
      },
      "hasRole(bytes32,address)": {
        "details": "Returns `true` if `account` has been granted `role`."
      },
      "renounceRole(bytes32,address)": {
        "details": "Revokes `role` from the calling account. Roles are often managed via {grantRole} and {revokeRole}: this function's purpose is to provide a mechanism for accounts to lose their privileges if they are compromised (such as when a trusted device is misplaced). If the calling account had been revoked `role`, emits a {RoleRevoked} event. Requirements: - the caller must be `account`."
      },
      "revokeRole(bytes32,address)": {
        "details": "Revokes `role` from `account`. If `account` had been granted `role`, emits a {RoleRevoked} event. Requirements: - the caller must have ``role``'s admin role."
      },
      "supportsInterface(bytes4)": {
        "details": "See {IERC165-supportsInterface}."
      }
    },
    "version": 1
  },
  "userdoc": {
    "kind": "user",
    "methods": {},
    "version": 1
  }
}