{
  "contractName": "CharacterCard",
  "abi": [
    {
      "inputs": [
        {
          "internalType": "address",
          "name": "itemTokenAddress",
          "type": "address"
        }
      ],
      "stateMutability": "nonpayable",
      "type": "constructor"
    },
    {
      "anonymous": false,
      "inputs": [
        {
          "indexed": true,
          "internalType": "bytes32",
          "name": "role",
          "type": "bytes32"
        },
        {
          "indexed": true,
          "internalType": "bytes32",
          "name": "previousAdminRole",
          "type": "bytes32"
        },
        {
          "indexed": true,
          "internalType": "bytes32",
          "name": "newAdminRole",
          "type": "bytes32"
        }
      ],
      "name": "RoleAdminChanged",
      "type": "event"
    },
    {
      "anonymous": false,
      "inputs": [
        {
          "indexed": true,
          "internalType": "bytes32",
          "name": "role",
          "type": "bytes32"
        },
        {
          "indexed": true,
          "internalType": "address",
          "name": "account",
          "type": "address"
        },
        {
          "indexed": true,
          "internalType": "address",
          "name": "sender",
          "type": "address"
        }
      ],
      "name": "RoleGranted",
      "type": "event"
    },
    {
      "anonymous": false,
      "inputs": [
        {
          "indexed": true,
          "internalType": "bytes32",
          "name": "role",
          "type": "bytes32"
        },
        {
          "indexed": true,
          "internalType": "address",
          "name": "account",
          "type": "address"
        },
        {
          "indexed": true,
          "internalType": "address",
          "name": "sender",
          "type": "address"
        }
      ],
      "name": "RoleRevoked",
      "type": "event"
    },
    {
      "inputs": [],
      "name": "DEFAULT_ADMIN_ROLE",
      "outputs": [
        {
          "internalType": "bytes32",
          "name": "",
          "type": "bytes32"
        }
      ],
      "stateMutability": "view",
      "type": "function"
    },
    {
      "inputs": [],
      "name": "VERIFIED_CONTROLLER_ROLE",
      "outputs": [
        {
          "internalType": "bytes32",
          "name": "",
          "type": "bytes32"
        }
      ],
      "stateMutability": "view",
      "type": "function"
    },
    {
      "inputs": [
        {
          "internalType": "bytes32",
          "name": "role",
          "type": "bytes32"
        }
      ],
      "name": "getRoleAdmin",
      "outputs": [
        {
          "internalType": "bytes32",
          "name": "",
          "type": "bytes32"
        }
      ],
      "stateMutability": "view",
      "type": "function"
    },
    {
      "inputs": [
        {
          "internalType": "bytes32",
          "name": "role",
          "type": "bytes32"
        },
        {
          "internalType": "uint256",
          "name": "index",
          "type": "uint256"
        }
      ],
      "name": "getRoleMember",
      "outputs": [
        {
          "internalType": "address",
          "name": "",
          "type": "address"
        }
      ],
      "stateMutability": "view",
      "type": "function"
    },
    {
      "inputs": [
        {
          "internalType": "bytes32",
          "name": "role",
          "type": "bytes32"
        }
      ],
      "name": "getRoleMemberCount",
      "outputs": [
        {
          "internalType": "uint256",
          "name": "",
          "type": "uint256"
        }
      ],
      "stateMutability": "view",
      "type": "function"
    },
    {
      "inputs": [
        {
          "internalType": "bytes32",
          "name": "role",
          "type": "bytes32"
        },
        {
          "internalType": "address",
          "name": "account",
          "type": "address"
        }
      ],
      "name": "grantRole",
      "outputs": [],
      "stateMutability": "nonpayable",
      "type": "function"
    },
    {
      "inputs": [
        {
          "internalType": "bytes32",
          "name": "role",
          "type": "bytes32"
        },
        {
          "internalType": "address",
          "name": "account",
          "type": "address"
        }
      ],
      "name": "hasRole",
      "outputs": [
        {
          "internalType": "bool",
          "name": "",
          "type": "bool"
        }
      ],
      "stateMutability": "view",
      "type": "function"
    },
    {
      "inputs": [],
      "name": "itemToken",
      "outputs": [
        {
          "internalType": "address",
          "name": "",
          "type": "address"
        }
      ],
      "stateMutability": "view",
      "type": "function"
    },
    {
      "inputs": [
        {
          "internalType": "bytes32",
          "name": "role",
          "type": "bytes32"
        },
        {
          "internalType": "address",
          "name": "account",
          "type": "address"
        }
      ],
      "name": "renounceRole",
      "outputs": [],
      "stateMutability": "nonpayable",
      "type": "function"
    },
    {
      "inputs": [
        {
          "internalType": "bytes32",
          "name": "role",
          "type": "bytes32"
        },
        {
          "internalType": "address",
          "name": "account",
          "type": "address"
        }
      ],
      "name": "revokeRole",
      "outputs": [],
      "stateMutability": "nonpayable",
      "type": "function"
    },
    {
      "inputs": [
        {
          "internalType": "bytes4",
          "name": "interfaceId",
          "type": "bytes4"
        }
      ],
      "name": "supportsInterface",
      "outputs": [
        {
          "internalType": "bool",
          "name": "",
          "type": "bool"
        }
      ],
      "stateMutability": "view",
      "type": "function"
    },
    {
      "inputs": [
        {
          "internalType": "address",
          "name": "controllerAddress",
          "type": "address"
        }
      ],
      "name": "addVerifiedController",
      "outputs": [],
      "stateMutability": "nonpayable",
      "type": "function"
    },
    {
      "inputs": [
        {
          "internalType": "uint8[3]",
          "name": "stats",
          "type": "uint8[3]"
        },
        {
          "internalType": "uint256",
          "name": "gameID",
          "type": "uint256"
        },
        {
          "internalType": "address",
          "name": "playerAddress",
          "type": "address"
        }
      ],
      "name": "setStats",
      "outputs": [],
      "stateMutability": "nonpayable",
      "type": "function"
    },
    {
      "inputs": [
        {
          "internalType": "uint8",
          "name": "movementValue",
          "type": "uint8"
        },
        {
          "internalType": "uint256",
          "name": "gameID",
          "type": "uint256"
        },
        {
          "internalType": "address",
          "name": "playerAddress",
          "type": "address"
        }
      ],
      "name": "setMovement",
      "outputs": [],
      "stateMutability": "nonpayable",
      "type": "function"
    },
    {
      "inputs": [
        {
          "internalType": "uint8",
          "name": "agilityValue",
          "type": "uint8"
        },
        {
          "internalType": "uint256",
          "name": "gameID",
          "type": "uint256"
        },
        {
          "internalType": "address",
          "name": "playerAddress",
          "type": "address"
        }
      ],
      "name": "setAgility",
      "outputs": [],
      "stateMutability": "nonpayable",
      "type": "function"
    },
    {
      "inputs": [
        {
          "internalType": "uint8",
          "name": "dexterityValue",
          "type": "uint8"
        },
        {
          "internalType": "uint256",
          "name": "gameID",
          "type": "uint256"
        },
        {
          "internalType": "address",
          "name": "playerAddress",
          "type": "address"
        }
      ],
      "name": "setDexterity",
      "outputs": [],
      "stateMutability": "nonpayable",
      "type": "function"
    },
    {
      "inputs": [
        {
          "internalType": "string",
          "name": "itemTokenType",
          "type": "string"
        },
        {
          "internalType": "uint256",
          "name": "gameID",
          "type": "uint256"
        },
        {
          "internalType": "address",
          "name": "playerAddress",
          "type": "address"
        }
      ],
      "name": "setLeftHandItem",
      "outputs": [],
      "stateMutability": "nonpayable",
      "type": "function"
    },
    {
      "inputs": [
        {
          "internalType": "string",
          "name": "itemTokenType",
          "type": "string"
        },
        {
          "internalType": "uint256",
          "name": "gameID",
          "type": "uint256"
        },
        {
          "internalType": "address",
          "name": "playerAddress",
          "type": "address"
        }
      ],
      "name": "setRightHandItem",
      "outputs": [],
      "stateMutability": "nonpayable",
      "type": "function"
    }
  ],
  "bytecode": "0x60806040523480156200001157600080fd5b50604051620014be380380620014be833981016040819052620000349162000244565b6200005c60006200004d64010000000062000082810204565b64010000000062000086810204565b60028054600160a060020a031916600160a060020a039290921691909117905562000276565b3390565b6200009b82826401000000006200009f810204565b5050565b620000b98282640100000000620006b5620000e682021704565b6000828152600160205260409020620000e19082640100000000620007396200018282021704565b505050565b620000fb8282640100000000620001ab810204565b6200009b57600082815260208181526040808320600160a060020a03851684529091529020805460ff191660011790556200013e64010000000062000082810204565b600160a060020a031681600160a060020a0316837f2f8788117e7eff1d82e926ec794901d17c78024a50270940304540a733656f0d60405160405180910390a45050565b6000620001a283600160a060020a038416640100000000620001d4810204565b90505b92915050565b600091825260208281526040808420600160a060020a0393909316845291905290205460ff1690565b6000620001eb83836401000000006200022c810204565b6200022357508154600181810184556000848152602080822090930184905584548482528286019093526040902091909155620001a5565b506000620001a5565b60009081526001919091016020526040902054151590565b6000602082840312156200025757600080fd5b8151600160a060020a03811681146200026f57600080fd5b9392505050565b61123880620002866000396000f3fe608060405234801561001057600080fd5b5060043610610133576000357c01000000000000000000000000000000000000000000000000000000009004806391d14854116100bf578063c242b6b41161008e578063c242b6b414610273578063ca15c87314610286578063d4f5b15214610299578063d547741f146102ac578063f5386d70146102bf57600080fd5b806391d148541461023257806397be41a614610245578063a217fddf14610258578063c072f6661461026057600080fd5b806336568abe1161010657806336568abe146101bb5780634d23b2e6146101ce57806354560234146101e1578063777f5440146101f45780639010d07c1461021f57600080fd5b806301ffc9a7146101385780631c834a7f14610160578063248a9ca3146101835780632f2ff15d146101a6575b600080fd5b61014b610146366004610d7a565b6102d2565b60405190151581526020015b60405180910390f35b6101756000805160206111e383398151915281565b604051908152602001610157565b610175610191366004610da4565b60009081526020819052604090206001015490565b6101b96101b4366004610dd9565b610316565b005b6101b96101c9366004610dd9565b610340565b6101b96101dc366004610e16565b6103eb565b6101b96101ef366004610e9c565b61043c565b60025461020790600160a060020a031681565b604051600160a060020a039091168152602001610157565b61020761022d366004610f42565b61048b565b61014b610240366004610dd9565b6104aa565b6101b9610253366004610e16565b6104d3565b610175600081565b6101b961026e366004610e9c565b610524565b6101b9610281366004610e16565b61056c565b610175610294366004610da4565b6105bd565b6101b96102a7366004610f64565b6105d4565b6101b96102ba366004610dd9565b6105f7565b6101b96102cd366004610f7f565b61061c565b6000600160e060020a031982167f5a05180f00000000000000000000000000000000000000000000000000000000148061031057506103108261074e565b92915050565b600082815260208190526040902060010154610331816107b5565b61033b83836107c2565b505050565b600160a060020a03811633146103dd576040517f08c379a000000000000000000000000000000000000000000000000000000000815260206004820152602f60248201527f416363657373436f6e74726f6c3a2063616e206f6e6c792072656e6f756e636560448201527f20726f6c657320666f722073656c66000000000000000000000000000000000060648201526084015b60405180910390fd5b6103e782826107e4565b5050565b6000805160206111e3833981519152610403816107b5565b506000918252600360209081526040808420600160a060020a0390931684529190529020805460ff90921660ff19909216919091179055565b6000805160206111e3833981519152610454816107b5565b6000838152600660209081526040808320600160a060020a03861684528252909120855161048492870190610ce1565b5050505050565b60008281526001602052604081206104a39083610806565b9392505050565b600091825260208281526040808420600160a060020a0393909316845291905290205460ff1690565b6000805160206111e38339815191526104eb816107b5565b506000918252600460209081526040808420600160a060020a0390931684529190529020805460ff90921660ff19909216919091179055565b6000805160206111e383398151915261053c816107b5565b6000838152600760209081526040808320600160a060020a03861684528252909120855161048492870190610ce1565b6000805160206111e3833981519152610584816107b5565b506000918252600560209081526040808420600160a060020a0390931684529190529020805460ff90921660ff19909216919091179055565b600081815260016020526040812061031090610812565b60006105df816107b5565b6103e76000805160206111e383398151915283610316565b600082815260208190526040902060010154610612816107b5565b61033b83836107e4565b6000805160206111e3833981519152610634816107b5565b5082516000838152600360209081526040808320600160a060020a0395909516808452948252808320805460ff1990811660ff96871617909155828801518785526004845282852087865284528285208054831691871691909117905596810151958352600582528083209483529390529190912080549093169116179055565b6106bf82826104aa565b6103e757600082815260208181526040808320600160a060020a03851684529091529020805460ff191660011790556106f53390565b600160a060020a031681600160a060020a0316837f2f8788117e7eff1d82e926ec794901d17c78024a50270940304540a733656f0d60405160405180910390a45050565b60006104a383600160a060020a03841661081c565b6000600160e060020a031982167f7965db0b00000000000000000000000000000000000000000000000000000000148061031057507f01ffc9a700000000000000000000000000000000000000000000000000000000600160e060020a0319831614610310565b6107bf813361086b565b50565b6107cc82826106b5565b600082815260016020526040902061033b9082610739565b6107ee82826108e9565b600082815260016020526040902061033b908261094e565b60006104a38383610963565b6000610310825490565b600081815260018301602052604081205461086357508154600181810184556000848152602080822090930184905584548482528286019093526040902091909155610310565b506000610310565b61087582826104aa565b6103e75761088d81600160a060020a0316601461098d565b61089883602061098d565b6040516020016108a9929190611059565b60408051601f19818403018152908290527f08c379a00000000000000000000000000000000000000000000000000000000082526103d4916004016110da565b6108f382826104aa565b156103e757600082815260208181526040808320600160a060020a0385168085529252808320805460ff1916905551339285917ff6391f5c32d9c69d2a47ea670b442974b53935d1edc7fd64eb21e047a839171b9190a45050565b60006104a383600160a060020a038416610bee565b600082600001828154811061097a5761097a611010565b9060005260206000200154905092915050565b6060600061099c836002611126565b6109a7906002611145565b67ffffffffffffffff8111156109bf576109bf610e52565b6040519080825280601f01601f1916602001820160405280156109e9576020820181803683370190505b5090507f300000000000000000000000000000000000000000000000000000000000000081600081518110610a2057610a20611010565b60200101907effffffffffffffffffffffffffffffffffffffffffffffffffffffffffffff1916908160001a9053507f780000000000000000000000000000000000000000000000000000000000000081600181518110610a8357610a83611010565b60200101907effffffffffffffffffffffffffffffffffffffffffffffffffffffffffffff1916908160001a9053506000610abf846002611126565b610aca906001611145565b90505b6001811115610b85577f303132333435363738396162636465660000000000000000000000000000000085600f1660108110610b0b57610b0b611010565b1a7f010000000000000000000000000000000000000000000000000000000000000002828281518110610b4057610b40611010565b60200101907effffffffffffffffffffffffffffffffffffffffffffffffffffffffffffff1916908160001a905350601090940493610b7e8161115d565b9050610acd565b5083156104a3576040517f08c379a000000000000000000000000000000000000000000000000000000000815260206004820181905260248201527f537472696e67733a20686578206c656e67746820696e73756666696369656e7460448201526064016103d4565b60008181526001830160205260408120548015610cd7576000610c12600183611174565b8554909150600090610c2690600190611174565b9050818114610c8b576000866000018281548110610c4657610c46611010565b9060005260206000200154905080876000018481548110610c6957610c69611010565b6000918252602080832090910192909255918252600188019052604090208390555b8554869080610c9c57610c9c61118b565b600190038181906000526020600020016000905590558560010160008681526020019081526020016000206000905560019350505050610310565b6000915050610310565b828054610ced906111a4565b90600052602060002090601f016020900481019282610d0f5760008555610d55565b82601f10610d2857805160ff1916838001178555610d55565b82800160010185558215610d55579182015b82811115610d55578251825591602001919060010190610d3a565b50610d61929150610d65565b5090565b5b80821115610d615760008155600101610d66565b600060208284031215610d8c57600080fd5b8135600160e060020a0319811681146104a357600080fd5b600060208284031215610db657600080fd5b5035919050565b8035600160a060020a0381168114610dd457600080fd5b919050565b60008060408385031215610dec57600080fd5b82359150610dfc60208401610dbd565b90509250929050565b803560ff81168114610dd457600080fd5b600080600060608486031215610e2b57600080fd5b610e3484610e05565b925060208401359150610e4960408501610dbd565b90509250925092565b60e060020a634e487b7102600052604160045260246000fd5b604051601f8201601f1916810167ffffffffffffffff81118282101715610e9457610e94610e52565b604052919050565b600080600060608486031215610eb157600080fd5b833567ffffffffffffffff80821115610ec957600080fd5b818601915086601f830112610edd57600080fd5b8135602082821115610ef157610ef1610e52565b610f03601f8301601f19168201610e6b565b92508183528881838601011115610f1957600080fd5b8181850182850137600081838501015282965080880135955050505050610e4960408501610dbd565b60008060408385031215610f5557600080fd5b50508035926020909101359150565b600060208284031215610f7657600080fd5b6104a382610dbd565b600080600060a08486031215610f9457600080fd5b84601f850112610fa357600080fd5b6040516060810181811067ffffffffffffffff82111715610fc657610fc6610e52565b604052806060860187811115610fdb57600080fd5b865b81811015610ffc57610fee81610e05565b835260209283019201610fdd565b5091945050359150610e4960808501610dbd565b60e060020a634e487b7102600052603260045260246000fd5b60005b8381101561104457818101518382015260200161102c565b83811115611053576000848401525b50505050565b7f416363657373436f6e74726f6c3a206163636f756e7420000000000000000000815260008351611091816017850160208801611029565b7f206973206d697373696e6720726f6c652000000000000000000000000000000060179184019182015283516110ce816028840160208801611029565b01602801949350505050565b60208152600082518060208401526110f9816040850160208701611029565b601f01601f19169190910160400192915050565b60e060020a634e487b7102600052601160045260246000fd5b60008160001904831182151516156111405761114061110d565b500290565b600082198211156111585761115861110d565b500190565b60008161116c5761116c61110d565b506000190190565b6000828210156111865761118661110d565b500390565b60e060020a634e487b7102600052603160045260246000fd5b6002810460018216806111b857607f821691505b602082108114156111dc5760e060020a634e487b7102600052602260045260246000fd5b5091905056fe80e2196015fc06a9d891759f8e4f51eb314ef5e9ea068528a8ed0063b87759f0a264697066735822122055ff273f8c6c9312ce045fba2be31fb348b7a4e036a1b03392adee15e97b005e64736f6c634300080b0033",
  "immutableReferences": {},
  "source": "// SPDX-License-Identifier: GPL-3.0\npragma solidity >=0.7.0 <0.9.0;\n\nimport \"@openzeppelin/contracts/access/AccessControlEnumerable.sol\";\n\ncontract CharacterCard is AccessControlEnumerable {\n    bytes32 public constant VERIFIED_CONTROLLER_ROLE =\n        keccak256(\"VERIFIED_CONTROLLER_ROLE\");\n\n    address public itemToken;\n    // game id => player address\n    mapping(uint256 => mapping(address => uint8)) movement;\n    mapping(uint256 => mapping(address => uint8)) agility;\n    mapping(uint256 => mapping(address => uint8)) dexterity;\n    //// the following assign a token type, player must still hold balance to use item\n    mapping(uint256 => mapping(address => string)) leftHandItem;\n    mapping(uint256 => mapping(address => string)) rightHandItem;\n\n    constructor(address itemTokenAddress) {\n        _setupRole(DEFAULT_ADMIN_ROLE, _msgSender());\n        itemToken = itemTokenAddress;\n        // TODO: set default stats here\n    }\n\n    function addVerifiedController(address controllerAddress)\n        public\n        onlyRole(DEFAULT_ADMIN_ROLE)\n    {\n        grantRole(VERIFIED_CONTROLLER_ROLE, controllerAddress);\n    }\n\n    function setStats(\n        uint8[3] memory stats,\n        uint256 gameID,\n        address playerAddress\n    ) external onlyRole(VERIFIED_CONTROLLER_ROLE) {\n        // set all stats at once [movement, agility, dexterity]\n        movement[gameID][playerAddress] = stats[0];\n        agility[gameID][playerAddress] = stats[1];\n        dexterity[gameID][playerAddress] = stats[2];\n    }\n\n    function setMovement(\n        uint8 movementValue,\n        uint256 gameID,\n        address playerAddress\n    ) external onlyRole(VERIFIED_CONTROLLER_ROLE) {\n        movement[gameID][playerAddress] = movementValue;\n    }\n\n    function setAgility(\n        uint8 agilityValue,\n        uint256 gameID,\n        address playerAddress\n    ) external onlyRole(VERIFIED_CONTROLLER_ROLE) {\n        agility[gameID][playerAddress] = agilityValue;\n    }\n\n    function setDexterity(\n        uint8 dexterityValue,\n        uint256 gameID,\n        address playerAddress\n    ) external onlyRole(VERIFIED_CONTROLLER_ROLE) {\n        dexterity[gameID][playerAddress] = dexterityValue;\n    }\n\n    function setLeftHandItem(\n        string memory itemTokenType,\n        uint256 gameID,\n        address playerAddress\n    ) external onlyRole(VERIFIED_CONTROLLER_ROLE) {\n        leftHandItem[gameID][playerAddress] = itemTokenType;\n    }\n\n    function setRightHandItem(\n        string memory itemTokenType,\n        uint256 gameID,\n        address playerAddress\n    ) external onlyRole(VERIFIED_CONTROLLER_ROLE) {\n        rightHandItem[gameID][playerAddress] = itemTokenType;\n    }\n}\n",
  "sourcePath": "/Users/maxmeier/Developer/Lucky Machines/hexploration/contracts/state/CharacterCard.sol",
  "compiler": {
    "name": "solc",
    "version": "0.8.11+commit.d7f03943.Emscripten.clang"
  },
  "schemaVersion": "3.4.4",
  "updatedAt": "2022-05-15T21:58:58.685Z",
  "devdoc": {
    "kind": "dev",
    "methods": {
      "getRoleAdmin(bytes32)": {
        "details": "Returns the admin role that controls `role`. See {grantRole} and {revokeRole}. To change a role's admin, use {_setRoleAdmin}."
      },
      "getRoleMember(bytes32,uint256)": {
        "details": "Returns one of the accounts that have `role`. `index` must be a value between 0 and {getRoleMemberCount}, non-inclusive. Role bearers are not sorted in any particular way, and their ordering may change at any point. WARNING: When using {getRoleMember} and {getRoleMemberCount}, make sure you perform all queries on the same block. See the following https://forum.openzeppelin.com/t/iterating-over-elements-on-enumerableset-in-openzeppelin-contracts/2296[forum post] for more information."
      },
      "getRoleMemberCount(bytes32)": {
        "details": "Returns the number of accounts that have `role`. Can be used together with {getRoleMember} to enumerate all bearers of a role."
      },
      "grantRole(bytes32,address)": {
        "details": "Grants `role` to `account`. If `account` had not been already granted `role`, emits a {RoleGranted} event. Requirements: - the caller must have ``role``'s admin role."
      },
      "hasRole(bytes32,address)": {
        "details": "Returns `true` if `account` has been granted `role`."
      },
      "renounceRole(bytes32,address)": {
        "details": "Revokes `role` from the calling account. Roles are often managed via {grantRole} and {revokeRole}: this function's purpose is to provide a mechanism for accounts to lose their privileges if they are compromised (such as when a trusted device is misplaced). If the calling account had been revoked `role`, emits a {RoleRevoked} event. Requirements: - the caller must be `account`."
      },
      "revokeRole(bytes32,address)": {
        "details": "Revokes `role` from `account`. If `account` had been granted `role`, emits a {RoleRevoked} event. Requirements: - the caller must have ``role``'s admin role."
      },
      "supportsInterface(bytes4)": {
        "details": "See {IERC165-supportsInterface}."
      }
    },
    "version": 1
  },
  "userdoc": {
    "kind": "user",
    "methods": {},
    "version": 1
  }
}