{
  "contractName": "CharacterCard",
  "abi": [
    {
      "inputs": [
        {
          "internalType": "address",
          "name": "itemTokenAddress",
          "type": "address"
        },
        {
          "internalType": "address",
          "name": "artifactTokenAddress",
          "type": "address"
        },
        {
          "internalType": "address",
          "name": "relicTokenAddress",
          "type": "address"
        }
      ],
      "stateMutability": "nonpayable",
      "type": "constructor"
    },
    {
      "anonymous": false,
      "inputs": [
        {
          "indexed": true,
          "internalType": "bytes32",
          "name": "role",
          "type": "bytes32"
        },
        {
          "indexed": true,
          "internalType": "bytes32",
          "name": "previousAdminRole",
          "type": "bytes32"
        },
        {
          "indexed": true,
          "internalType": "bytes32",
          "name": "newAdminRole",
          "type": "bytes32"
        }
      ],
      "name": "RoleAdminChanged",
      "type": "event"
    },
    {
      "anonymous": false,
      "inputs": [
        {
          "indexed": true,
          "internalType": "bytes32",
          "name": "role",
          "type": "bytes32"
        },
        {
          "indexed": true,
          "internalType": "address",
          "name": "account",
          "type": "address"
        },
        {
          "indexed": true,
          "internalType": "address",
          "name": "sender",
          "type": "address"
        }
      ],
      "name": "RoleGranted",
      "type": "event"
    },
    {
      "anonymous": false,
      "inputs": [
        {
          "indexed": true,
          "internalType": "bytes32",
          "name": "role",
          "type": "bytes32"
        },
        {
          "indexed": true,
          "internalType": "address",
          "name": "account",
          "type": "address"
        },
        {
          "indexed": true,
          "internalType": "address",
          "name": "sender",
          "type": "address"
        }
      ],
      "name": "RoleRevoked",
      "type": "event"
    },
    {
      "inputs": [],
      "name": "DEFAULT_ADMIN_ROLE",
      "outputs": [
        {
          "internalType": "bytes32",
          "name": "",
          "type": "bytes32"
        }
      ],
      "stateMutability": "view",
      "type": "function",
      "constant": true
    },
    {
      "inputs": [],
      "name": "VERIFIED_CONTROLLER_ROLE",
      "outputs": [
        {
          "internalType": "bytes32",
          "name": "",
          "type": "bytes32"
        }
      ],
      "stateMutability": "view",
      "type": "function",
      "constant": true
    },
    {
      "inputs": [
        {
          "internalType": "uint256",
          "name": "",
          "type": "uint256"
        },
        {
          "internalType": "uint256",
          "name": "",
          "type": "uint256"
        }
      ],
      "name": "action",
      "outputs": [
        {
          "internalType": "enum CharacterCard.Action",
          "name": "",
          "type": "uint8"
        }
      ],
      "stateMutability": "view",
      "type": "function",
      "constant": true
    },
    {
      "inputs": [
        {
          "internalType": "uint256",
          "name": "",
          "type": "uint256"
        },
        {
          "internalType": "uint256",
          "name": "",
          "type": "uint256"
        }
      ],
      "name": "agility",
      "outputs": [
        {
          "internalType": "uint8",
          "name": "",
          "type": "uint8"
        }
      ],
      "stateMutability": "view",
      "type": "function",
      "constant": true
    },
    {
      "inputs": [
        {
          "internalType": "uint256",
          "name": "",
          "type": "uint256"
        },
        {
          "internalType": "uint256",
          "name": "",
          "type": "uint256"
        }
      ],
      "name": "artifact",
      "outputs": [
        {
          "internalType": "string",
          "name": "",
          "type": "string"
        }
      ],
      "stateMutability": "view",
      "type": "function",
      "constant": true
    },
    {
      "inputs": [],
      "name": "artifactToken",
      "outputs": [
        {
          "internalType": "address",
          "name": "",
          "type": "address"
        }
      ],
      "stateMutability": "view",
      "type": "function",
      "constant": true
    },
    {
      "inputs": [
        {
          "internalType": "uint256",
          "name": "",
          "type": "uint256"
        },
        {
          "internalType": "uint256",
          "name": "",
          "type": "uint256"
        }
      ],
      "name": "dexterity",
      "outputs": [
        {
          "internalType": "uint8",
          "name": "",
          "type": "uint8"
        }
      ],
      "stateMutability": "view",
      "type": "function",
      "constant": true
    },
    {
      "inputs": [
        {
          "internalType": "bytes32",
          "name": "role",
          "type": "bytes32"
        }
      ],
      "name": "getRoleAdmin",
      "outputs": [
        {
          "internalType": "bytes32",
          "name": "",
          "type": "bytes32"
        }
      ],
      "stateMutability": "view",
      "type": "function",
      "constant": true
    },
    {
      "inputs": [
        {
          "internalType": "bytes32",
          "name": "role",
          "type": "bytes32"
        },
        {
          "internalType": "uint256",
          "name": "index",
          "type": "uint256"
        }
      ],
      "name": "getRoleMember",
      "outputs": [
        {
          "internalType": "address",
          "name": "",
          "type": "address"
        }
      ],
      "stateMutability": "view",
      "type": "function",
      "constant": true
    },
    {
      "inputs": [
        {
          "internalType": "bytes32",
          "name": "role",
          "type": "bytes32"
        }
      ],
      "name": "getRoleMemberCount",
      "outputs": [
        {
          "internalType": "uint256",
          "name": "",
          "type": "uint256"
        }
      ],
      "stateMutability": "view",
      "type": "function",
      "constant": true
    },
    {
      "inputs": [
        {
          "internalType": "bytes32",
          "name": "role",
          "type": "bytes32"
        },
        {
          "internalType": "address",
          "name": "account",
          "type": "address"
        }
      ],
      "name": "grantRole",
      "outputs": [],
      "stateMutability": "nonpayable",
      "type": "function"
    },
    {
      "inputs": [
        {
          "internalType": "bytes32",
          "name": "role",
          "type": "bytes32"
        },
        {
          "internalType": "address",
          "name": "account",
          "type": "address"
        }
      ],
      "name": "hasRole",
      "outputs": [
        {
          "internalType": "bool",
          "name": "",
          "type": "bool"
        }
      ],
      "stateMutability": "view",
      "type": "function",
      "constant": true
    },
    {
      "inputs": [],
      "name": "itemToken",
      "outputs": [
        {
          "internalType": "address",
          "name": "",
          "type": "address"
        }
      ],
      "stateMutability": "view",
      "type": "function",
      "constant": true
    },
    {
      "inputs": [
        {
          "internalType": "uint256",
          "name": "",
          "type": "uint256"
        },
        {
          "internalType": "uint256",
          "name": "",
          "type": "uint256"
        }
      ],
      "name": "leftHandItem",
      "outputs": [
        {
          "internalType": "string",
          "name": "",
          "type": "string"
        }
      ],
      "stateMutability": "view",
      "type": "function",
      "constant": true
    },
    {
      "inputs": [
        {
          "internalType": "uint256",
          "name": "",
          "type": "uint256"
        },
        {
          "internalType": "uint256",
          "name": "",
          "type": "uint256"
        }
      ],
      "name": "movement",
      "outputs": [
        {
          "internalType": "uint8",
          "name": "",
          "type": "uint8"
        }
      ],
      "stateMutability": "view",
      "type": "function",
      "constant": true
    },
    {
      "inputs": [
        {
          "internalType": "uint256",
          "name": "",
          "type": "uint256"
        },
        {
          "internalType": "uint256",
          "name": "",
          "type": "uint256"
        }
      ],
      "name": "relic",
      "outputs": [
        {
          "internalType": "string",
          "name": "",
          "type": "string"
        }
      ],
      "stateMutability": "view",
      "type": "function",
      "constant": true
    },
    {
      "inputs": [],
      "name": "relicToken",
      "outputs": [
        {
          "internalType": "address",
          "name": "",
          "type": "address"
        }
      ],
      "stateMutability": "view",
      "type": "function",
      "constant": true
    },
    {
      "inputs": [
        {
          "internalType": "bytes32",
          "name": "role",
          "type": "bytes32"
        },
        {
          "internalType": "address",
          "name": "account",
          "type": "address"
        }
      ],
      "name": "renounceRole",
      "outputs": [],
      "stateMutability": "nonpayable",
      "type": "function"
    },
    {
      "inputs": [
        {
          "internalType": "bytes32",
          "name": "role",
          "type": "bytes32"
        },
        {
          "internalType": "address",
          "name": "account",
          "type": "address"
        }
      ],
      "name": "revokeRole",
      "outputs": [],
      "stateMutability": "nonpayable",
      "type": "function"
    },
    {
      "inputs": [
        {
          "internalType": "uint256",
          "name": "",
          "type": "uint256"
        },
        {
          "internalType": "uint256",
          "name": "",
          "type": "uint256"
        }
      ],
      "name": "rightHandItem",
      "outputs": [
        {
          "internalType": "string",
          "name": "",
          "type": "string"
        }
      ],
      "stateMutability": "view",
      "type": "function",
      "constant": true
    },
    {
      "inputs": [
        {
          "internalType": "uint256",
          "name": "",
          "type": "uint256"
        },
        {
          "internalType": "uint256",
          "name": "",
          "type": "uint256"
        }
      ],
      "name": "status",
      "outputs": [
        {
          "internalType": "string",
          "name": "",
          "type": "string"
        }
      ],
      "stateMutability": "view",
      "type": "function",
      "constant": true
    },
    {
      "inputs": [
        {
          "internalType": "bytes4",
          "name": "interfaceId",
          "type": "bytes4"
        }
      ],
      "name": "supportsInterface",
      "outputs": [
        {
          "internalType": "bool",
          "name": "",
          "type": "bool"
        }
      ],
      "stateMutability": "view",
      "type": "function",
      "constant": true
    },
    {
      "inputs": [
        {
          "internalType": "address",
          "name": "controllerAddress",
          "type": "address"
        }
      ],
      "name": "addVerifiedController",
      "outputs": [],
      "stateMutability": "nonpayable",
      "type": "function"
    },
    {
      "inputs": [
        {
          "internalType": "uint256",
          "name": "gameID",
          "type": "uint256"
        },
        {
          "internalType": "uint256",
          "name": "playerID",
          "type": "uint256"
        }
      ],
      "name": "getStats",
      "outputs": [
        {
          "internalType": "uint8[3]",
          "name": "stats",
          "type": "uint8[3]"
        }
      ],
      "stateMutability": "view",
      "type": "function",
      "constant": true
    },
    {
      "inputs": [
        {
          "internalType": "uint8[3]",
          "name": "stats",
          "type": "uint8[3]"
        },
        {
          "internalType": "uint256",
          "name": "gameID",
          "type": "uint256"
        },
        {
          "internalType": "uint256",
          "name": "playerID",
          "type": "uint256"
        }
      ],
      "name": "setStats",
      "outputs": [],
      "stateMutability": "nonpayable",
      "type": "function"
    },
    {
      "inputs": [
        {
          "internalType": "uint8",
          "name": "movementValue",
          "type": "uint8"
        },
        {
          "internalType": "uint256",
          "name": "gameID",
          "type": "uint256"
        },
        {
          "internalType": "uint256",
          "name": "playerID",
          "type": "uint256"
        }
      ],
      "name": "setMovement",
      "outputs": [],
      "stateMutability": "nonpayable",
      "type": "function"
    },
    {
      "inputs": [
        {
          "internalType": "uint8",
          "name": "agilityValue",
          "type": "uint8"
        },
        {
          "internalType": "uint256",
          "name": "gameID",
          "type": "uint256"
        },
        {
          "internalType": "uint256",
          "name": "playerID",
          "type": "uint256"
        }
      ],
      "name": "setAgility",
      "outputs": [],
      "stateMutability": "nonpayable",
      "type": "function"
    },
    {
      "inputs": [
        {
          "internalType": "uint8",
          "name": "dexterityValue",
          "type": "uint8"
        },
        {
          "internalType": "uint256",
          "name": "gameID",
          "type": "uint256"
        },
        {
          "internalType": "uint256",
          "name": "playerID",
          "type": "uint256"
        }
      ],
      "name": "setDexterity",
      "outputs": [],
      "stateMutability": "nonpayable",
      "type": "function"
    },
    {
      "inputs": [
        {
          "internalType": "string",
          "name": "itemTokenType",
          "type": "string"
        },
        {
          "internalType": "uint256",
          "name": "gameID",
          "type": "uint256"
        },
        {
          "internalType": "uint256",
          "name": "playerID",
          "type": "uint256"
        }
      ],
      "name": "setLeftHandItem",
      "outputs": [],
      "stateMutability": "nonpayable",
      "type": "function"
    },
    {
      "inputs": [
        {
          "internalType": "string",
          "name": "itemTokenType",
          "type": "string"
        },
        {
          "internalType": "uint256",
          "name": "gameID",
          "type": "uint256"
        },
        {
          "internalType": "uint256",
          "name": "playerID",
          "type": "uint256"
        }
      ],
      "name": "setRightHandItem",
      "outputs": [],
      "stateMutability": "nonpayable",
      "type": "function"
    },
    {
      "inputs": [
        {
          "internalType": "string",
          "name": "itemTokenType",
          "type": "string"
        },
        {
          "internalType": "uint256",
          "name": "gameID",
          "type": "uint256"
        },
        {
          "internalType": "uint256",
          "name": "playerID",
          "type": "uint256"
        }
      ],
      "name": "setArtifact",
      "outputs": [],
      "stateMutability": "nonpayable",
      "type": "function"
    },
    {
      "inputs": [
        {
          "internalType": "string",
          "name": "itemTokenType",
          "type": "string"
        },
        {
          "internalType": "uint256",
          "name": "gameID",
          "type": "uint256"
        },
        {
          "internalType": "uint256",
          "name": "playerID",
          "type": "uint256"
        }
      ],
      "name": "setStatus",
      "outputs": [],
      "stateMutability": "nonpayable",
      "type": "function"
    },
    {
      "inputs": [
        {
          "internalType": "string",
          "name": "itemTokenType",
          "type": "string"
        },
        {
          "internalType": "uint256",
          "name": "gameID",
          "type": "uint256"
        },
        {
          "internalType": "uint256",
          "name": "playerID",
          "type": "uint256"
        }
      ],
      "name": "setRelic",
      "outputs": [],
      "stateMutability": "nonpayable",
      "type": "function"
    },
    {
      "inputs": [
        {
          "internalType": "enum CharacterCard.Action",
          "name": "_action",
          "type": "uint8"
        },
        {
          "internalType": "uint256",
          "name": "gameID",
          "type": "uint256"
        },
        {
          "internalType": "uint256",
          "name": "playerID",
          "type": "uint256"
        }
      ],
      "name": "setAction",
      "outputs": [],
      "stateMutability": "nonpayable",
      "type": "function"
    }
  ],
  "bytecode": "0x60806040523480156200001157600080fd5b50604051620019303803806200193083398101604081905262000034916200027e565b6200005c60006200004d6401000000006200009f810204565b640100000000620000a3810204565b60028054600160a060020a03948516600160a060020a031991821617909155600380549385169382169390931790925560048054919093169116179055620002c8565b3390565b620000b88282640100000000620000bc810204565b5050565b620000d6828264010000000062000a986200010382021704565b6000828152600160205260409020620000fe908264010000000062000b1c6200019f82021704565b505050565b620001188282640100000000620001c8810204565b620000b857600082815260208181526040808320600160a060020a03851684529091529020805460ff191660011790556200015b6401000000006200009f810204565b600160a060020a031681600160a060020a0316837f2f8788117e7eff1d82e926ec794901d17c78024a50270940304540a733656f0d60405160405180910390a45050565b6000620001bf83600160a060020a038416640100000000620001f1810204565b90505b92915050565b600091825260208281526040808420600160a060020a0393909316845291905290205460ff1690565b600062000208838364010000000062000249810204565b6200024057508154600181810184556000848152602080822090930184905584548482528286019093526040902091909155620001c2565b506000620001c2565b60009081526001919091016020526040902054151590565b8051600160a060020a03811681146200027957600080fd5b919050565b6000806000606084860312156200029457600080fd5b6200029f8462000261565b9250620002af6020850162000261565b9150620002bf6040850162000261565b90509250925092565b61165880620002d86000396000f3fe608060405234801561001057600080fd5b50600436106101e3576000357c0100000000000000000000000000000000000000000000000000000000900480639010d07c11610117578063ca15c873116100ba578063ca15c87314610428578063d104563e1461043b578063d1eb505314610469578063d27ffd0d146104a4578063d4f5b152146104b7578063d547741f146104ca578063dd51a3ac146104dd578063e0e0a24b14610335578063e8216595146104f057600080fd5b80639010d07c1461038e57806391d14854146103a15780639c220647146103b4578063a217fddf146103c7578063a867ef78146103cf578063a8953434146103e2578063b3dd803a146103f5578063bb47c9b31461040857600080fd5b806336568abe1161018a57806336568abe146102fc57806345b8ace51461030f5780635381ee17146103225780635f2caa5e146103355780636f02e57b14610335578063777f5440146103485780637ad19589146103355780637dcfa2911461035b578063876d01cb1461037b57600080fd5b806301ffc9a7146101e857806303936d4614610210578063108a038c1461023b578063134f10b4146102505780631c834a7f14610263578063248a9ca3146102865780632af37e1d146102a95780632f2ff15d146102e9575b600080fd5b6101fb6101f6366004611105565b61051e565b60405190151581526020015b60405180910390f35b60035461022390600160a060020a031681565b604051600160a060020a039091168152602001610207565b61024e610249366004611145565b610562565b005b61024e61025e366004611145565b6105a8565b61027860008051602061160383398151915281565b604051908152602001610207565b610278610294366004611178565b60009081526020819052604090206001015490565b6102d76102b7366004611191565b600760209081526000928352604080842090915290825290205460ff1681565b60405160ff9091168152602001610207565b61024e6102f73660046111ca565b6105ee565b61024e61030a3660046111ca565b610618565b61024e61031d366004611240565b6106ac565b61024e610330366004611145565b610738565b61024e6103433660046112d3565b61077e565b60025461022390600160a060020a031681565b61036e610369366004611191565b6107c4565b60405161020791906113a9565b60045461022390600160a060020a031681565b61022361039c366004611191565b610869565b6101fb6103af3660046111ca565b610888565b61036e6103c2366004611191565b6108b1565b610278600081565b61036e6103dd366004611191565b6108d5565b61024e6103f03660046112d3565b6108f9565b61036e610403366004611191565b610938565b61041b610416366004611191565b61095c565b60405161020791906113dc565b610278610436366004611178565b6109bc565b6102d7610449366004611191565b600660209081526000928352604080842090915290825290205460ff1681565b610497610477366004611191565b600860209081526000928352604080842090915290825290205460ff1681565b6040516102079190611429565b61036e6104b2366004611191565b6109d3565b61024e6104c5366004611454565b6109f7565b61024e6104d83660046111ca565b610a1a565b61024e6104eb36600461146f565b610a3f565b6102d76104fe366004611191565b600560209081526000928352604080842090915290825290205460ff1681565b6000600160e060020a031982167f5a05180f00000000000000000000000000000000000000000000000000000000148061055c575061055c82610b31565b92915050565b60008051602061160383398151915261057a81610b98565b5060009182526007602090815260408084209284529190529020805460ff191660ff92909216919091179055565b6000805160206116038339815191526105c081610b98565b5060009182526006602090815260408084209284529190529020805460ff191660ff92909216919091179055565b60008281526020819052604090206001015461060981610b98565b6106138383610ba5565b505050565b600160a060020a038116331461069e5760405160e560020a62461bcd02815260206004820152602f60248201527f416363657373436f6e74726f6c3a2063616e206f6e6c792072656e6f756e636560448201527f20726f6c657320666f722073656c66000000000000000000000000000000000060648201526084015b60405180910390fd5b6106a88282610bc7565b5050565b6000805160206116038339815191526106c481610b98565b50825160008381526005602090815260408083208584528252808320805460ff1990811660ff96871617909155828801518785526006845282852087865284528285208054831691871691909117905596810151958352600782528083209483529390529190912080549093169116179055565b60008051602061160383398151915261075081610b98565b5060009182526005602090815260408084209284529190529020805460ff191660ff92909216919091179055565b60008051602061160383398151915261079681610b98565b6000838152600a60209081526040808320858452825290912085516107bd9287019061104e565b5050505050565b6009602090815260009283526040808420909152908252902080546107e8906114ac565b80601f0160208091040260200160405190810160405280929190818152602001828054610814906114ac565b80156108615780601f1061083657610100808354040283529160200191610861565b820191906000526020600020905b81548152906001019060200180831161084457829003601f168201915b505050505081565b60008281526001602052604081206108819083610be9565b9392505050565b600091825260208281526040808420600160a060020a0393909316845291905290205460ff1690565b600a602090815260009283526040808420909152908252902080546107e8906114ac565b600d602090815260009283526040808420909152908252902080546107e8906114ac565b60008051602061160383398151915261091181610b98565b6000838152600960209081526040808320858452825290912085516107bd9287019061104e565b600c602090815260009283526040808420909152908252902080546107e8906114ac565b6109646110d2565b600083815260056020908152604080832085845282528083205460ff90811685528684526006835281842086855283528184205481168584015295835260078252808320948352939052829020549092169082015290565b600081815260016020526040812061055c90610bf5565b600b602090815260009283526040808420909152908252902080546107e8906114ac565b6000610a0281610b98565b6106a8600080516020611603833981519152836105ee565b600082815260208190526040902060010154610a3581610b98565b6106138383610bc7565b600080516020611603833981519152610a5781610b98565b60008381526008602090815260408083208584529091529020805485919060ff19166001836006811115610a8d57610a8d611410565b021790555050505050565b610aa28282610888565b6106a857600082815260208181526040808320600160a060020a03851684529091529020805460ff19166001179055610ad83390565b600160a060020a031681600160a060020a0316837f2f8788117e7eff1d82e926ec794901d17c78024a50270940304540a733656f0d60405160405180910390a45050565b600061088183600160a060020a038416610bff565b6000600160e060020a031982167f7965db0b00000000000000000000000000000000000000000000000000000000148061055c57507f01ffc9a700000000000000000000000000000000000000000000000000000000600160e060020a031983161461055c565b610ba28133610c4e565b50565b610baf8282610a98565b60008281526001602052604090206106139082610b1c565b610bd18282610cb5565b60008281526001602052604090206106139082610d1a565b60006108818383610d2f565b600061055c825490565b6000818152600183016020526040812054610c465750815460018181018455600084815260208082209093018490558454848252828601909352604090209190915561055c565b50600061055c565b610c588282610888565b6106a857610c7081600160a060020a03166014610d59565b610c7b836020610d59565b604051602001610c8c9291906114ea565b60408051601f198184030181529082905260e560020a62461bcd028252610695916004016113a9565b610cbf8282610888565b156106a857600082815260208181526040808320600160a060020a0385168085529252808320805460ff1916905551339285917ff6391f5c32d9c69d2a47ea670b442974b53935d1edc7fd64eb21e047a839171b9190a45050565b600061088183600160a060020a038416610f5b565b6000826000018281548110610d4657610d46611493565b9060005260206000200154905092915050565b60606000610d68836002611584565b610d739060026115a3565b67ffffffffffffffff811115610d8b57610d8b6111f6565b6040519080825280601f01601f191660200182016040528015610db5576020820181803683370190505b5090507f300000000000000000000000000000000000000000000000000000000000000081600081518110610dec57610dec611493565b6020010190600160f860020a031916908160001a9053507f780000000000000000000000000000000000000000000000000000000000000081600181518110610e3757610e37611493565b6020010190600160f860020a031916908160001a9053506000610e5b846002611584565b610e669060016115a3565b90505b6001811115610f09577f303132333435363738396162636465660000000000000000000000000000000085600f1660108110610ea757610ea7611493565b1a7f010000000000000000000000000000000000000000000000000000000000000002828281518110610edc57610edc611493565b6020010190600160f860020a031916908160001a905350601090940493610f02816115bb565b9050610e69565b5083156108815760405160e560020a62461bcd02815260206004820181905260248201527f537472696e67733a20686578206c656e67746820696e73756666696369656e746044820152606401610695565b60008181526001830160205260408120548015611044576000610f7f6001836115d2565b8554909150600090610f93906001906115d2565b9050818114610ff8576000866000018281548110610fb357610fb3611493565b9060005260206000200154905080876000018481548110610fd657610fd6611493565b6000918252602080832090910192909255918252600188019052604090208390555b8554869080611009576110096115e9565b60019003818190600052602060002001600090559055856001016000868152602001908152602001600020600090556001935050505061055c565b600091505061055c565b82805461105a906114ac565b90600052602060002090601f01602090048101928261107c57600085556110c2565b82601f1061109557805160ff19168380011785556110c2565b828001600101855582156110c2579182015b828111156110c25782518255916020019190600101906110a7565b506110ce9291506110f0565b5090565b60405180606001604052806003906020820280368337509192915050565b5b808211156110ce57600081556001016110f1565b60006020828403121561111757600080fd5b8135600160e060020a03198116811461088157600080fd5b803560ff8116811461114057600080fd5b919050565b60008060006060848603121561115a57600080fd5b6111638461112f565b95602085013595506040909401359392505050565b60006020828403121561118a57600080fd5b5035919050565b600080604083850312156111a457600080fd5b50508035926020909101359150565b8035600160a060020a038116811461114057600080fd5b600080604083850312156111dd57600080fd5b823591506111ed602084016111b3565b90509250929050565b60e060020a634e487b7102600052604160045260246000fd5b604051601f8201601f1916810167ffffffffffffffff81118282101715611238576112386111f6565b604052919050565b600080600060a0848603121561125557600080fd5b84601f85011261126457600080fd5b6040516060810181811067ffffffffffffffff82111715611287576112876111f6565b60405280606086018781111561129c57600080fd5b865b818110156112bd576112af8161112f565b83526020928301920161129e565b5091979135965050608094909401359392505050565b6000806000606084860312156112e857600080fd5b833567ffffffffffffffff8082111561130057600080fd5b818601915086601f83011261131457600080fd5b8135602082821115611328576113286111f6565b61133a601f8301601f1916820161120f565b9250818352888183860101111561135057600080fd5b818185018285013760009183018101919091529097908601359650604090950135949350505050565b60005b8381101561139457818101518382015260200161137c565b838111156113a3576000848401525b50505050565b60208152600082518060208401526113c8816040850160208701611379565b601f01601f19169190910160400192915050565b60608101818360005b600381101561140757815160ff168352602092830192909101906001016113e5565b50505092915050565b60e060020a634e487b7102600052602160045260246000fd5b602081016007831061144e5760e060020a634e487b7102600052602160045260246000fd5b91905290565b60006020828403121561146657600080fd5b610881826111b3565b60008060006060848603121561148457600080fd5b83356007811061116357600080fd5b60e060020a634e487b7102600052603260045260246000fd5b6002810460018216806114c057607f821691505b602082108114156114e45760e060020a634e487b7102600052602260045260246000fd5b50919050565b7f416363657373436f6e74726f6c3a206163636f756e7420000000000000000000815260008351611522816017850160208801611379565b7f206973206d697373696e6720726f6c6520000000000000000000000000000000601791840191820152835161155f816028840160208801611379565b01602801949350505050565b60e060020a634e487b7102600052601160045260246000fd5b600081600019048311821515161561159e5761159e61156b565b500290565b600082198211156115b6576115b661156b565b500190565b6000816115ca576115ca61156b565b506000190190565b6000828210156115e4576115e461156b565b500390565b60e060020a634e487b7102600052603160045260246000fdfe80e2196015fc06a9d891759f8e4f51eb314ef5e9ea068528a8ed0063b87759f0a264697066735822122010184326ee39b832a61910f8d0cb1c92398a8516db1a112aadb374d1521031e164736f6c634300080b0033",
  "immutableReferences": {},
  "source": "// SPDX-License-Identifier: GPL-3.0\npragma solidity >=0.7.0 <0.9.0;\n\nimport \"@openzeppelin/contracts/access/AccessControlEnumerable.sol\";\n\ncontract CharacterCard is AccessControlEnumerable {\n    enum Action {\n        Idle,\n        Move,\n        SetupCamp,\n        BreakDownCamp,\n        Dig,\n        Rest,\n        Help\n    }\n\n    bytes32 public constant VERIFIED_CONTROLLER_ROLE =\n        keccak256(\"VERIFIED_CONTROLLER_ROLE\");\n    uint8 constant MAX_MOVEMENT = 4;\n    uint8 constant MAX_AGILITY = 4;\n    uint8 constant MAX_DEXTERITY = 4;\n\n    address public itemToken;\n    address public artifactToken;\n    address public relicToken;\n    // game id => player ID\n    mapping(uint256 => mapping(uint256 => uint8)) public movement;\n    mapping(uint256 => mapping(uint256 => uint8)) public agility;\n    mapping(uint256 => mapping(uint256 => uint8)) public dexterity;\n    mapping(uint256 => mapping(uint256 => Action)) public action; // set to enumerated list\n    //// the following assign a token type, player must still hold balance to use item\n    mapping(uint256 => mapping(uint256 => string)) public leftHandItem;\n    mapping(uint256 => mapping(uint256 => string)) public rightHandItem;\n    mapping(uint256 => mapping(uint256 => string)) public artifact;\n    mapping(uint256 => mapping(uint256 => string)) public status;\n    mapping(uint256 => mapping(uint256 => string)) public relic;\n\n    constructor(\n        address itemTokenAddress,\n        address artifactTokenAddress,\n        address relicTokenAddress\n    ) {\n        _setupRole(DEFAULT_ADMIN_ROLE, _msgSender());\n        itemToken = itemTokenAddress;\n        artifactToken = artifactTokenAddress;\n        relicToken = relicTokenAddress;\n    }\n\n    function addVerifiedController(address controllerAddress)\n        public\n        onlyRole(DEFAULT_ADMIN_ROLE)\n    {\n        grantRole(VERIFIED_CONTROLLER_ROLE, controllerAddress);\n    }\n\n    function getStats(uint256 gameID, uint256 playerID)\n        public\n        view\n        returns (uint8[3] memory stats)\n    {\n        stats[0] = movement[gameID][playerID];\n        stats[1] = agility[gameID][playerID];\n        stats[2] = dexterity[gameID][playerID];\n    }\n\n    function setStats(\n        uint8[3] memory stats,\n        uint256 gameID,\n        uint256 playerID\n    ) external onlyRole(VERIFIED_CONTROLLER_ROLE) {\n        // set all stats at once [movement, agility, dexterity]\n        movement[gameID][playerID] = stats[0];\n        agility[gameID][playerID] = stats[1];\n        dexterity[gameID][playerID] = stats[2];\n    }\n\n    function setMovement(\n        uint8 movementValue,\n        uint256 gameID,\n        uint256 playerID\n    ) external onlyRole(VERIFIED_CONTROLLER_ROLE) {\n        movement[gameID][playerID] = movementValue;\n    }\n\n    function setAgility(\n        uint8 agilityValue,\n        uint256 gameID,\n        uint256 playerID\n    ) external onlyRole(VERIFIED_CONTROLLER_ROLE) {\n        agility[gameID][playerID] = agilityValue;\n    }\n\n    function setDexterity(\n        uint8 dexterityValue,\n        uint256 gameID,\n        uint256 playerID\n    ) external onlyRole(VERIFIED_CONTROLLER_ROLE) {\n        dexterity[gameID][playerID] = dexterityValue;\n    }\n\n    function setLeftHandItem(\n        string memory itemTokenType,\n        uint256 gameID,\n        uint256 playerID\n    ) external onlyRole(VERIFIED_CONTROLLER_ROLE) {\n        leftHandItem[gameID][playerID] = itemTokenType;\n    }\n\n    function setRightHandItem(\n        string memory itemTokenType,\n        uint256 gameID,\n        uint256 playerID\n    ) external onlyRole(VERIFIED_CONTROLLER_ROLE) {\n        rightHandItem[gameID][playerID] = itemTokenType;\n    }\n\n    function setArtifact(\n        string memory itemTokenType,\n        uint256 gameID,\n        uint256 playerID\n    ) external onlyRole(VERIFIED_CONTROLLER_ROLE) {\n        rightHandItem[gameID][playerID] = itemTokenType;\n    }\n\n    function setStatus(\n        string memory itemTokenType,\n        uint256 gameID,\n        uint256 playerID\n    ) external onlyRole(VERIFIED_CONTROLLER_ROLE) {\n        rightHandItem[gameID][playerID] = itemTokenType;\n    }\n\n    function setRelic(\n        string memory itemTokenType,\n        uint256 gameID,\n        uint256 playerID\n    ) external onlyRole(VERIFIED_CONTROLLER_ROLE) {\n        rightHandItem[gameID][playerID] = itemTokenType;\n    }\n\n    function setAction(\n        Action _action,\n        uint256 gameID,\n        uint256 playerID\n    ) external onlyRole(VERIFIED_CONTROLLER_ROLE) {\n        action[gameID][playerID] = _action;\n    }\n}\n",
  "sourcePath": "/Users/max/demo/hexploration/contracts/state/CharacterCard.sol",
  "compiler": {
    "name": "solc",
    "version": "0.8.11+commit.d7f03943.Emscripten.clang"
  },
  "schemaVersion": "3.4.2",
  "updatedAt": "2022-05-26T21:20:48.494Z",
  "networkType": "ethereum",
  "devdoc": {
    "kind": "dev",
    "methods": {
      "getRoleAdmin(bytes32)": {
        "details": "Returns the admin role that controls `role`. See {grantRole} and {revokeRole}. To change a role's admin, use {_setRoleAdmin}."
      },
      "getRoleMember(bytes32,uint256)": {
        "details": "Returns one of the accounts that have `role`. `index` must be a value between 0 and {getRoleMemberCount}, non-inclusive. Role bearers are not sorted in any particular way, and their ordering may change at any point. WARNING: When using {getRoleMember} and {getRoleMemberCount}, make sure you perform all queries on the same block. See the following https://forum.openzeppelin.com/t/iterating-over-elements-on-enumerableset-in-openzeppelin-contracts/2296[forum post] for more information."
      },
      "getRoleMemberCount(bytes32)": {
        "details": "Returns the number of accounts that have `role`. Can be used together with {getRoleMember} to enumerate all bearers of a role."
      },
      "grantRole(bytes32,address)": {
        "details": "Grants `role` to `account`. If `account` had not been already granted `role`, emits a {RoleGranted} event. Requirements: - the caller must have ``role``'s admin role."
      },
      "hasRole(bytes32,address)": {
        "details": "Returns `true` if `account` has been granted `role`."
      },
      "renounceRole(bytes32,address)": {
        "details": "Revokes `role` from the calling account. Roles are often managed via {grantRole} and {revokeRole}: this function's purpose is to provide a mechanism for accounts to lose their privileges if they are compromised (such as when a trusted device is misplaced). If the calling account had been revoked `role`, emits a {RoleRevoked} event. Requirements: - the caller must be `account`."
      },
      "revokeRole(bytes32,address)": {
        "details": "Revokes `role` from `account`. If `account` had been granted `role`, emits a {RoleRevoked} event. Requirements: - the caller must have ``role``'s admin role."
      },
      "supportsInterface(bytes4)": {
        "details": "See {IERC165-supportsInterface}."
      }
    },
    "version": 1
  },
  "userdoc": {
    "kind": "user",
    "methods": {},
    "version": 1
  }
}