{
  "contractName": "CharacterCard",
  "abi": [
    {
      "inputs": [
        {
          "internalType": "address",
          "name": "itemTokenAddress",
          "type": "address"
        }
      ],
      "stateMutability": "nonpayable",
      "type": "constructor"
    },
    {
      "anonymous": false,
      "inputs": [
        {
          "indexed": true,
          "internalType": "bytes32",
          "name": "role",
          "type": "bytes32"
        },
        {
          "indexed": true,
          "internalType": "bytes32",
          "name": "previousAdminRole",
          "type": "bytes32"
        },
        {
          "indexed": true,
          "internalType": "bytes32",
          "name": "newAdminRole",
          "type": "bytes32"
        }
      ],
      "name": "RoleAdminChanged",
      "type": "event"
    },
    {
      "anonymous": false,
      "inputs": [
        {
          "indexed": true,
          "internalType": "bytes32",
          "name": "role",
          "type": "bytes32"
        },
        {
          "indexed": true,
          "internalType": "address",
          "name": "account",
          "type": "address"
        },
        {
          "indexed": true,
          "internalType": "address",
          "name": "sender",
          "type": "address"
        }
      ],
      "name": "RoleGranted",
      "type": "event"
    },
    {
      "anonymous": false,
      "inputs": [
        {
          "indexed": true,
          "internalType": "bytes32",
          "name": "role",
          "type": "bytes32"
        },
        {
          "indexed": true,
          "internalType": "address",
          "name": "account",
          "type": "address"
        },
        {
          "indexed": true,
          "internalType": "address",
          "name": "sender",
          "type": "address"
        }
      ],
      "name": "RoleRevoked",
      "type": "event"
    },
    {
      "inputs": [],
      "name": "DEFAULT_ADMIN_ROLE",
      "outputs": [
        {
          "internalType": "bytes32",
          "name": "",
          "type": "bytes32"
        }
      ],
      "stateMutability": "view",
      "type": "function"
    },
    {
      "inputs": [],
      "name": "VERIFIED_CONTROLLER_ROLE",
      "outputs": [
        {
          "internalType": "bytes32",
          "name": "",
          "type": "bytes32"
        }
      ],
      "stateMutability": "view",
      "type": "function"
    },
    {
      "inputs": [
        {
          "internalType": "uint256",
          "name": "",
          "type": "uint256"
        },
        {
          "internalType": "address",
          "name": "",
          "type": "address"
        }
      ],
      "name": "agility",
      "outputs": [
        {
          "internalType": "uint8",
          "name": "",
          "type": "uint8"
        }
      ],
      "stateMutability": "view",
      "type": "function"
    },
    {
      "inputs": [
        {
          "internalType": "uint256",
          "name": "",
          "type": "uint256"
        },
        {
          "internalType": "address",
          "name": "",
          "type": "address"
        }
      ],
      "name": "dexterity",
      "outputs": [
        {
          "internalType": "uint8",
          "name": "",
          "type": "uint8"
        }
      ],
      "stateMutability": "view",
      "type": "function"
    },
    {
      "inputs": [
        {
          "internalType": "bytes32",
          "name": "role",
          "type": "bytes32"
        }
      ],
      "name": "getRoleAdmin",
      "outputs": [
        {
          "internalType": "bytes32",
          "name": "",
          "type": "bytes32"
        }
      ],
      "stateMutability": "view",
      "type": "function"
    },
    {
      "inputs": [
        {
          "internalType": "bytes32",
          "name": "role",
          "type": "bytes32"
        },
        {
          "internalType": "uint256",
          "name": "index",
          "type": "uint256"
        }
      ],
      "name": "getRoleMember",
      "outputs": [
        {
          "internalType": "address",
          "name": "",
          "type": "address"
        }
      ],
      "stateMutability": "view",
      "type": "function"
    },
    {
      "inputs": [
        {
          "internalType": "bytes32",
          "name": "role",
          "type": "bytes32"
        }
      ],
      "name": "getRoleMemberCount",
      "outputs": [
        {
          "internalType": "uint256",
          "name": "",
          "type": "uint256"
        }
      ],
      "stateMutability": "view",
      "type": "function"
    },
    {
      "inputs": [
        {
          "internalType": "bytes32",
          "name": "role",
          "type": "bytes32"
        },
        {
          "internalType": "address",
          "name": "account",
          "type": "address"
        }
      ],
      "name": "grantRole",
      "outputs": [],
      "stateMutability": "nonpayable",
      "type": "function"
    },
    {
      "inputs": [
        {
          "internalType": "bytes32",
          "name": "role",
          "type": "bytes32"
        },
        {
          "internalType": "address",
          "name": "account",
          "type": "address"
        }
      ],
      "name": "hasRole",
      "outputs": [
        {
          "internalType": "bool",
          "name": "",
          "type": "bool"
        }
      ],
      "stateMutability": "view",
      "type": "function"
    },
    {
      "inputs": [],
      "name": "itemToken",
      "outputs": [
        {
          "internalType": "address",
          "name": "",
          "type": "address"
        }
      ],
      "stateMutability": "view",
      "type": "function"
    },
    {
      "inputs": [
        {
          "internalType": "uint256",
          "name": "",
          "type": "uint256"
        },
        {
          "internalType": "address",
          "name": "",
          "type": "address"
        }
      ],
      "name": "leftHandItem",
      "outputs": [
        {
          "internalType": "string",
          "name": "",
          "type": "string"
        }
      ],
      "stateMutability": "view",
      "type": "function"
    },
    {
      "inputs": [
        {
          "internalType": "uint256",
          "name": "",
          "type": "uint256"
        },
        {
          "internalType": "address",
          "name": "",
          "type": "address"
        }
      ],
      "name": "movement",
      "outputs": [
        {
          "internalType": "uint8",
          "name": "",
          "type": "uint8"
        }
      ],
      "stateMutability": "view",
      "type": "function"
    },
    {
      "inputs": [
        {
          "internalType": "bytes32",
          "name": "role",
          "type": "bytes32"
        },
        {
          "internalType": "address",
          "name": "account",
          "type": "address"
        }
      ],
      "name": "renounceRole",
      "outputs": [],
      "stateMutability": "nonpayable",
      "type": "function"
    },
    {
      "inputs": [
        {
          "internalType": "bytes32",
          "name": "role",
          "type": "bytes32"
        },
        {
          "internalType": "address",
          "name": "account",
          "type": "address"
        }
      ],
      "name": "revokeRole",
      "outputs": [],
      "stateMutability": "nonpayable",
      "type": "function"
    },
    {
      "inputs": [
        {
          "internalType": "uint256",
          "name": "",
          "type": "uint256"
        },
        {
          "internalType": "address",
          "name": "",
          "type": "address"
        }
      ],
      "name": "rightHandItem",
      "outputs": [
        {
          "internalType": "string",
          "name": "",
          "type": "string"
        }
      ],
      "stateMutability": "view",
      "type": "function"
    },
    {
      "inputs": [
        {
          "internalType": "bytes4",
          "name": "interfaceId",
          "type": "bytes4"
        }
      ],
      "name": "supportsInterface",
      "outputs": [
        {
          "internalType": "bool",
          "name": "",
          "type": "bool"
        }
      ],
      "stateMutability": "view",
      "type": "function"
    },
    {
      "inputs": [
        {
          "internalType": "address",
          "name": "controllerAddress",
          "type": "address"
        }
      ],
      "name": "addVerifiedController",
      "outputs": [],
      "stateMutability": "nonpayable",
      "type": "function"
    },
    {
      "inputs": [
        {
          "internalType": "uint8[3]",
          "name": "stats",
          "type": "uint8[3]"
        },
        {
          "internalType": "uint256",
          "name": "gameID",
          "type": "uint256"
        },
        {
          "internalType": "address",
          "name": "playerAddress",
          "type": "address"
        }
      ],
      "name": "setStats",
      "outputs": [],
      "stateMutability": "nonpayable",
      "type": "function"
    },
    {
      "inputs": [
        {
          "internalType": "uint8",
          "name": "movementValue",
          "type": "uint8"
        },
        {
          "internalType": "uint256",
          "name": "gameID",
          "type": "uint256"
        },
        {
          "internalType": "address",
          "name": "playerAddress",
          "type": "address"
        }
      ],
      "name": "setMovement",
      "outputs": [],
      "stateMutability": "nonpayable",
      "type": "function"
    },
    {
      "inputs": [
        {
          "internalType": "uint8",
          "name": "agilityValue",
          "type": "uint8"
        },
        {
          "internalType": "uint256",
          "name": "gameID",
          "type": "uint256"
        },
        {
          "internalType": "address",
          "name": "playerAddress",
          "type": "address"
        }
      ],
      "name": "setAgility",
      "outputs": [],
      "stateMutability": "nonpayable",
      "type": "function"
    },
    {
      "inputs": [
        {
          "internalType": "uint8",
          "name": "dexterityValue",
          "type": "uint8"
        },
        {
          "internalType": "uint256",
          "name": "gameID",
          "type": "uint256"
        },
        {
          "internalType": "address",
          "name": "playerAddress",
          "type": "address"
        }
      ],
      "name": "setDexterity",
      "outputs": [],
      "stateMutability": "nonpayable",
      "type": "function"
    },
    {
      "inputs": [
        {
          "internalType": "string",
          "name": "itemTokenType",
          "type": "string"
        },
        {
          "internalType": "uint256",
          "name": "gameID",
          "type": "uint256"
        },
        {
          "internalType": "address",
          "name": "playerAddress",
          "type": "address"
        }
      ],
      "name": "setLeftHandItem",
      "outputs": [],
      "stateMutability": "nonpayable",
      "type": "function"
    },
    {
      "inputs": [
        {
          "internalType": "string",
          "name": "itemTokenType",
          "type": "string"
        },
        {
          "internalType": "uint256",
          "name": "gameID",
          "type": "uint256"
        },
        {
          "internalType": "address",
          "name": "playerAddress",
          "type": "address"
        }
      ],
      "name": "setRightHandItem",
      "outputs": [],
      "stateMutability": "nonpayable",
      "type": "function"
    }
  ],
  "bytecode": "0x60806040523480156200001157600080fd5b506040516200168d3803806200168d833981016040819052620000349162000244565b6200005c60006200004d64010000000062000082810204565b64010000000062000086810204565b60028054600160a060020a031916600160a060020a039290921691909117905562000276565b3390565b6200009b82826401000000006200009f810204565b5050565b620000b9828264010000000062000884620000e682021704565b6000828152600160205260409020620000e19082640100000000620009086200018282021704565b505050565b620000fb8282640100000000620001ab810204565b6200009b57600082815260208181526040808320600160a060020a03851684529091529020805460ff191660011790556200013e64010000000062000082810204565b600160a060020a031681600160a060020a0316837f2f8788117e7eff1d82e926ec794901d17c78024a50270940304540a733656f0d60405160405180910390a45050565b6000620001a283600160a060020a038416640100000000620001d4810204565b90505b92915050565b600091825260208281526040808420600160a060020a0393909316845291905290205460ff1690565b6000620001eb83836401000000006200022c810204565b6200022357508154600181810184556000848152602080822090930184905584548482528286019093526040902091909155620001a5565b506000620001a5565b60009081526001919091016020526040902054151590565b6000602082840312156200025757600080fd5b8151600160a060020a03811681146200026f57600080fd5b9392505050565b61140780620002866000396000f3fe608060405234801561001057600080fd5b506004361061016a576000357c01000000000000000000000000000000000000000000000000000000009004806397be41a6116100e0578063ca15c87311610099578063ca15c87314610330578063ca31896714610343578063d4f5b15214610371578063d547741f14610384578063f5386d7014610397578063fdf5a31c146103aa57600080fd5b806397be41a61461029c578063989c11a9146102af578063a082936d146102ef578063a217fddf14610302578063c072f6661461030a578063c242b6b41461031d57600080fd5b80634d23b2e6116101325780634d23b2e6146102055780635456023414610218578063666253701461022b578063777f54401461024b5780639010d07c1461027657806391d148541461028957600080fd5b806301ffc9a71461016f5780631c834a7f14610197578063248a9ca3146101ba5780632f2ff15d146101dd57806336568abe146101f2575b600080fd5b61018261017d366004610f49565b6103d8565b60405190151581526020015b60405180910390f35b6101ac6000805160206113b283398151915281565b60405190815260200161018e565b6101ac6101c8366004610f73565b60009081526020819052604090206001015490565b6101f06101eb366004610fa8565b61041c565b005b6101f0610200366004610fa8565b610446565b6101f0610213366004610fe5565b6104f1565b6101f061022636600461106b565b610542565b61023e610239366004610fa8565b610591565b60405161018e9190611141565b60025461025e90600160a060020a031681565b604051600160a060020a03909116815260200161018e565b61025e610284366004611174565b610636565b610182610297366004610fa8565b610655565b6101f06102aa366004610fe5565b61067e565b6102dd6102bd366004610fa8565b600560209081526000928352604080842090915290825290205460ff1681565b60405160ff909116815260200161018e565b61023e6102fd366004610fa8565b6106cf565b6101ac600081565b6101f061031836600461106b565b6106f3565b6101f061032b366004610fe5565b61073b565b6101ac61033e366004610f73565b61078c565b6102dd610351366004610fa8565b600460209081526000928352604080842090915290825290205460ff1681565b6101f061037f366004611196565b6107a3565b6101f0610392366004610fa8565b6107c6565b6101f06103a53660046111b1565b6107eb565b6102dd6103b8366004610fa8565b600360209081526000928352604080842090915290825290205460ff1681565b6000600160e060020a031982167f5a05180f00000000000000000000000000000000000000000000000000000000148061041657506104168261091d565b92915050565b60008281526020819052604090206001015461043781610984565b6104418383610991565b505050565b600160a060020a03811633146104e3576040517f08c379a000000000000000000000000000000000000000000000000000000000815260206004820152602f60248201527f416363657373436f6e74726f6c3a2063616e206f6e6c792072656e6f756e636560448201527f20726f6c657320666f722073656c66000000000000000000000000000000000060648201526084015b60405180910390fd5b6104ed82826109b3565b5050565b6000805160206113b283398151915261050981610984565b506000918252600360209081526040808420600160a060020a0390931684529190529020805460ff90921660ff19909216919091179055565b6000805160206113b283398151915261055a81610984565b6000838152600660209081526040808320600160a060020a03861684528252909120855161058a92870190610eb0565b5050505050565b6007602090815260009283526040808420909152908252902080546105b590611242565b80601f01602080910402602001604051908101604052809291908181526020018280546105e190611242565b801561062e5780601f106106035761010080835404028352916020019161062e565b820191906000526020600020905b81548152906001019060200180831161061157829003601f168201915b505050505081565b600082815260016020526040812061064e90836109d5565b9392505050565b600091825260208281526040808420600160a060020a0393909316845291905290205460ff1690565b6000805160206113b283398151915261069681610984565b506000918252600460209081526040808420600160a060020a0390931684529190529020805460ff90921660ff19909216919091179055565b6006602090815260009283526040808420909152908252902080546105b590611242565b6000805160206113b283398151915261070b81610984565b6000838152600760209081526040808320600160a060020a03861684528252909120855161058a92870190610eb0565b6000805160206113b283398151915261075381610984565b506000918252600560209081526040808420600160a060020a0390931684529190529020805460ff90921660ff19909216919091179055565b6000818152600160205260408120610416906109e1565b60006107ae81610984565b6104ed6000805160206113b28339815191528361041c565b6000828152602081905260409020600101546107e181610984565b61044183836109b3565b6000805160206113b283398151915261080381610984565b5082516000838152600360209081526040808320600160a060020a0395909516808452948252808320805460ff1990811660ff96871617909155828801518785526004845282852087865284528285208054831691871691909117905596810151958352600582528083209483529390529190912080549093169116179055565b61088e8282610655565b6104ed57600082815260208181526040808320600160a060020a03851684529091529020805460ff191660011790556108c43390565b600160a060020a031681600160a060020a0316837f2f8788117e7eff1d82e926ec794901d17c78024a50270940304540a733656f0d60405160405180910390a45050565b600061064e83600160a060020a0384166109eb565b6000600160e060020a031982167f7965db0b00000000000000000000000000000000000000000000000000000000148061041657507f01ffc9a700000000000000000000000000000000000000000000000000000000600160e060020a0319831614610416565b61098e8133610a3a565b50565b61099b8282610884565b60008281526001602052604090206104419082610908565b6109bd8282610ab8565b60008281526001602052604090206104419082610b1d565b600061064e8383610b32565b6000610416825490565b6000818152600183016020526040812054610a3257508154600181810184556000848152602080822090930184905584548482528286019093526040902091909155610416565b506000610416565b610a448282610655565b6104ed57610a5c81600160a060020a03166014610b5c565b610a67836020610b5c565b604051602001610a78929190611299565b60408051601f19818403018152908290527f08c379a00000000000000000000000000000000000000000000000000000000082526104da91600401611141565b610ac28282610655565b156104ed57600082815260208181526040808320600160a060020a0385168085529252808320805460ff1916905551339285917ff6391f5c32d9c69d2a47ea670b442974b53935d1edc7fd64eb21e047a839171b9190a45050565b600061064e83600160a060020a038416610dbd565b6000826000018281548110610b4957610b49611280565b9060005260206000200154905092915050565b60606000610b6b836002611333565b610b76906002611352565b67ffffffffffffffff811115610b8e57610b8e611021565b6040519080825280601f01601f191660200182016040528015610bb8576020820181803683370190505b5090507f300000000000000000000000000000000000000000000000000000000000000081600081518110610bef57610bef611280565b60200101907effffffffffffffffffffffffffffffffffffffffffffffffffffffffffffff1916908160001a9053507f780000000000000000000000000000000000000000000000000000000000000081600181518110610c5257610c52611280565b60200101907effffffffffffffffffffffffffffffffffffffffffffffffffffffffffffff1916908160001a9053506000610c8e846002611333565b610c99906001611352565b90505b6001811115610d54577f303132333435363738396162636465660000000000000000000000000000000085600f1660108110610cda57610cda611280565b1a7f010000000000000000000000000000000000000000000000000000000000000002828281518110610d0f57610d0f611280565b60200101907effffffffffffffffffffffffffffffffffffffffffffffffffffffffffffff1916908160001a905350601090940493610d4d8161136a565b9050610c9c565b50831561064e576040517f08c379a000000000000000000000000000000000000000000000000000000000815260206004820181905260248201527f537472696e67733a20686578206c656e67746820696e73756666696369656e7460448201526064016104da565b60008181526001830160205260408120548015610ea6576000610de1600183611381565b8554909150600090610df590600190611381565b9050818114610e5a576000866000018281548110610e1557610e15611280565b9060005260206000200154905080876000018481548110610e3857610e38611280565b6000918252602080832090910192909255918252600188019052604090208390555b8554869080610e6b57610e6b611398565b600190038181906000526020600020016000905590558560010160008681526020019081526020016000206000905560019350505050610416565b6000915050610416565b828054610ebc90611242565b90600052602060002090601f016020900481019282610ede5760008555610f24565b82601f10610ef757805160ff1916838001178555610f24565b82800160010185558215610f24579182015b82811115610f24578251825591602001919060010190610f09565b50610f30929150610f34565b5090565b5b80821115610f305760008155600101610f35565b600060208284031215610f5b57600080fd5b8135600160e060020a03198116811461064e57600080fd5b600060208284031215610f8557600080fd5b5035919050565b8035600160a060020a0381168114610fa357600080fd5b919050565b60008060408385031215610fbb57600080fd5b82359150610fcb60208401610f8c565b90509250929050565b803560ff81168114610fa357600080fd5b600080600060608486031215610ffa57600080fd5b61100384610fd4565b92506020840135915061101860408501610f8c565b90509250925092565b60e060020a634e487b7102600052604160045260246000fd5b604051601f8201601f1916810167ffffffffffffffff8111828210171561106357611063611021565b604052919050565b60008060006060848603121561108057600080fd5b833567ffffffffffffffff8082111561109857600080fd5b818601915086601f8301126110ac57600080fd5b81356020828211156110c0576110c0611021565b6110d2601f8301601f1916820161103a565b925081835288818386010111156110e857600080fd5b818185018285013760008183850101528296508088013595505050505061101860408501610f8c565b60005b8381101561112c578181015183820152602001611114565b8381111561113b576000848401525b50505050565b6020815260008251806020840152611160816040850160208701611111565b601f01601f19169190910160400192915050565b6000806040838503121561118757600080fd5b50508035926020909101359150565b6000602082840312156111a857600080fd5b61064e82610f8c565b600080600060a084860312156111c657600080fd5b84601f8501126111d557600080fd5b6040516060810181811067ffffffffffffffff821117156111f8576111f8611021565b60405280606086018781111561120d57600080fd5b865b8181101561122e5761122081610fd4565b83526020928301920161120f565b509194505035915061101860808501610f8c565b60028104600182168061125657607f821691505b6020821081141561127a5760e060020a634e487b7102600052602260045260246000fd5b50919050565b60e060020a634e487b7102600052603260045260246000fd5b7f416363657373436f6e74726f6c3a206163636f756e74200000000000000000008152600083516112d1816017850160208801611111565b7f206973206d697373696e6720726f6c6520000000000000000000000000000000601791840191820152835161130e816028840160208801611111565b01602801949350505050565b60e060020a634e487b7102600052601160045260246000fd5b600081600019048311821515161561134d5761134d61131a565b500290565b600082198211156113655761136561131a565b500190565b6000816113795761137961131a565b506000190190565b6000828210156113935761139361131a565b500390565b60e060020a634e487b7102600052603160045260246000fdfe80e2196015fc06a9d891759f8e4f51eb314ef5e9ea068528a8ed0063b87759f0a26469706673582212209a33f6addf442ee2dd84cf1c1e1205eb4a58bd0a110907448b640dae32ad38af64736f6c634300080b0033",
  "immutableReferences": {},
  "source": "// SPDX-License-Identifier: GPL-3.0\npragma solidity >=0.7.0 <0.9.0;\n\nimport \"@openzeppelin/contracts/access/AccessControlEnumerable.sol\";\n\ncontract CharacterCard is AccessControlEnumerable {\n    bytes32 public constant VERIFIED_CONTROLLER_ROLE =\n        keccak256(\"VERIFIED_CONTROLLER_ROLE\");\n\n    address public itemToken;\n    // game id => player address\n    mapping(uint256 => mapping(address => uint8)) public movement;\n    mapping(uint256 => mapping(address => uint8)) public agility;\n    mapping(uint256 => mapping(address => uint8)) public dexterity;\n    //// the following assign a token type, player must still hold balance to use item\n    mapping(uint256 => mapping(address => string)) public leftHandItem;\n    mapping(uint256 => mapping(address => string)) public rightHandItem;\n\n    constructor(address itemTokenAddress) {\n        _setupRole(DEFAULT_ADMIN_ROLE, _msgSender());\n        itemToken = itemTokenAddress;\n        // TODO: set default stats here\n    }\n\n    function addVerifiedController(address controllerAddress)\n        public\n        onlyRole(DEFAULT_ADMIN_ROLE)\n    {\n        grantRole(VERIFIED_CONTROLLER_ROLE, controllerAddress);\n    }\n\n    function setStats(\n        uint8[3] memory stats,\n        uint256 gameID,\n        address playerAddress\n    ) external onlyRole(VERIFIED_CONTROLLER_ROLE) {\n        // set all stats at once [movement, agility, dexterity]\n        movement[gameID][playerAddress] = stats[0];\n        agility[gameID][playerAddress] = stats[1];\n        dexterity[gameID][playerAddress] = stats[2];\n    }\n\n    function setMovement(\n        uint8 movementValue,\n        uint256 gameID,\n        address playerAddress\n    ) external onlyRole(VERIFIED_CONTROLLER_ROLE) {\n        movement[gameID][playerAddress] = movementValue;\n    }\n\n    function setAgility(\n        uint8 agilityValue,\n        uint256 gameID,\n        address playerAddress\n    ) external onlyRole(VERIFIED_CONTROLLER_ROLE) {\n        agility[gameID][playerAddress] = agilityValue;\n    }\n\n    function setDexterity(\n        uint8 dexterityValue,\n        uint256 gameID,\n        address playerAddress\n    ) external onlyRole(VERIFIED_CONTROLLER_ROLE) {\n        dexterity[gameID][playerAddress] = dexterityValue;\n    }\n\n    function setLeftHandItem(\n        string memory itemTokenType,\n        uint256 gameID,\n        address playerAddress\n    ) external onlyRole(VERIFIED_CONTROLLER_ROLE) {\n        leftHandItem[gameID][playerAddress] = itemTokenType;\n    }\n\n    function setRightHandItem(\n        string memory itemTokenType,\n        uint256 gameID,\n        address playerAddress\n    ) external onlyRole(VERIFIED_CONTROLLER_ROLE) {\n        rightHandItem[gameID][playerAddress] = itemTokenType;\n    }\n}\n",
  "sourcePath": "/Users/maxmeier/Developer/Lucky Machines/hexploration/contracts/state/CharacterCard.sol",
  "compiler": {
    "name": "solc",
    "version": "0.8.11+commit.d7f03943.Emscripten.clang"
  },
  "schemaVersion": "3.4.4",
  "updatedAt": "2022-05-15T22:13:20.614Z",
  "devdoc": {
    "kind": "dev",
    "methods": {
      "getRoleAdmin(bytes32)": {
        "details": "Returns the admin role that controls `role`. See {grantRole} and {revokeRole}. To change a role's admin, use {_setRoleAdmin}."
      },
      "getRoleMember(bytes32,uint256)": {
        "details": "Returns one of the accounts that have `role`. `index` must be a value between 0 and {getRoleMemberCount}, non-inclusive. Role bearers are not sorted in any particular way, and their ordering may change at any point. WARNING: When using {getRoleMember} and {getRoleMemberCount}, make sure you perform all queries on the same block. See the following https://forum.openzeppelin.com/t/iterating-over-elements-on-enumerableset-in-openzeppelin-contracts/2296[forum post] for more information."
      },
      "getRoleMemberCount(bytes32)": {
        "details": "Returns the number of accounts that have `role`. Can be used together with {getRoleMember} to enumerate all bearers of a role."
      },
      "grantRole(bytes32,address)": {
        "details": "Grants `role` to `account`. If `account` had not been already granted `role`, emits a {RoleGranted} event. Requirements: - the caller must have ``role``'s admin role."
      },
      "hasRole(bytes32,address)": {
        "details": "Returns `true` if `account` has been granted `role`."
      },
      "renounceRole(bytes32,address)": {
        "details": "Revokes `role` from the calling account. Roles are often managed via {grantRole} and {revokeRole}: this function's purpose is to provide a mechanism for accounts to lose their privileges if they are compromised (such as when a trusted device is misplaced). If the calling account had been revoked `role`, emits a {RoleRevoked} event. Requirements: - the caller must be `account`."
      },
      "revokeRole(bytes32,address)": {
        "details": "Revokes `role` from `account`. If `account` had been granted `role`, emits a {RoleRevoked} event. Requirements: - the caller must have ``role``'s admin role."
      },
      "supportsInterface(bytes4)": {
        "details": "See {IERC165-supportsInterface}."
      }
    },
    "version": 1
  },
  "userdoc": {
    "kind": "user",
    "methods": {},
    "version": 1
  }
}