{
  "contractName": "CharacterCard",
  "abi": [
    {
      "inputs": [
        {
          "internalType": "address",
          "name": "itemTokenAddress",
          "type": "address"
        },
        {
          "internalType": "address",
          "name": "artifactTokenAddress",
          "type": "address"
        },
        {
          "internalType": "address",
          "name": "relicTokenAddress",
          "type": "address"
        }
      ],
      "stateMutability": "nonpayable",
      "type": "constructor"
    },
    {
      "anonymous": false,
      "inputs": [
        {
          "indexed": true,
          "internalType": "bytes32",
          "name": "role",
          "type": "bytes32"
        },
        {
          "indexed": true,
          "internalType": "bytes32",
          "name": "previousAdminRole",
          "type": "bytes32"
        },
        {
          "indexed": true,
          "internalType": "bytes32",
          "name": "newAdminRole",
          "type": "bytes32"
        }
      ],
      "name": "RoleAdminChanged",
      "type": "event"
    },
    {
      "anonymous": false,
      "inputs": [
        {
          "indexed": true,
          "internalType": "bytes32",
          "name": "role",
          "type": "bytes32"
        },
        {
          "indexed": true,
          "internalType": "address",
          "name": "account",
          "type": "address"
        },
        {
          "indexed": true,
          "internalType": "address",
          "name": "sender",
          "type": "address"
        }
      ],
      "name": "RoleGranted",
      "type": "event"
    },
    {
      "anonymous": false,
      "inputs": [
        {
          "indexed": true,
          "internalType": "bytes32",
          "name": "role",
          "type": "bytes32"
        },
        {
          "indexed": true,
          "internalType": "address",
          "name": "account",
          "type": "address"
        },
        {
          "indexed": true,
          "internalType": "address",
          "name": "sender",
          "type": "address"
        }
      ],
      "name": "RoleRevoked",
      "type": "event"
    },
    {
      "inputs": [],
      "name": "DEFAULT_ADMIN_ROLE",
      "outputs": [
        {
          "internalType": "bytes32",
          "name": "",
          "type": "bytes32"
        }
      ],
      "stateMutability": "view",
      "type": "function"
    },
    {
      "inputs": [],
      "name": "VERIFIED_CONTROLLER_ROLE",
      "outputs": [
        {
          "internalType": "bytes32",
          "name": "",
          "type": "bytes32"
        }
      ],
      "stateMutability": "view",
      "type": "function"
    },
    {
      "inputs": [
        {
          "internalType": "uint256",
          "name": "",
          "type": "uint256"
        },
        {
          "internalType": "uint256",
          "name": "",
          "type": "uint256"
        }
      ],
      "name": "action",
      "outputs": [
        {
          "internalType": "enum CharacterCard.Action",
          "name": "",
          "type": "uint8"
        }
      ],
      "stateMutability": "view",
      "type": "function"
    },
    {
      "inputs": [
        {
          "internalType": "uint256",
          "name": "",
          "type": "uint256"
        },
        {
          "internalType": "uint256",
          "name": "",
          "type": "uint256"
        }
      ],
      "name": "agility",
      "outputs": [
        {
          "internalType": "uint8",
          "name": "",
          "type": "uint8"
        }
      ],
      "stateMutability": "view",
      "type": "function"
    },
    {
      "inputs": [
        {
          "internalType": "uint256",
          "name": "",
          "type": "uint256"
        },
        {
          "internalType": "uint256",
          "name": "",
          "type": "uint256"
        }
      ],
      "name": "artifact",
      "outputs": [
        {
          "internalType": "string",
          "name": "",
          "type": "string"
        }
      ],
      "stateMutability": "view",
      "type": "function"
    },
    {
      "inputs": [],
      "name": "artifactToken",
      "outputs": [
        {
          "internalType": "address",
          "name": "",
          "type": "address"
        }
      ],
      "stateMutability": "view",
      "type": "function"
    },
    {
      "inputs": [
        {
          "internalType": "uint256",
          "name": "",
          "type": "uint256"
        },
        {
          "internalType": "uint256",
          "name": "",
          "type": "uint256"
        }
      ],
      "name": "dexterity",
      "outputs": [
        {
          "internalType": "uint8",
          "name": "",
          "type": "uint8"
        }
      ],
      "stateMutability": "view",
      "type": "function"
    },
    {
      "inputs": [
        {
          "internalType": "bytes32",
          "name": "role",
          "type": "bytes32"
        }
      ],
      "name": "getRoleAdmin",
      "outputs": [
        {
          "internalType": "bytes32",
          "name": "",
          "type": "bytes32"
        }
      ],
      "stateMutability": "view",
      "type": "function"
    },
    {
      "inputs": [
        {
          "internalType": "bytes32",
          "name": "role",
          "type": "bytes32"
        },
        {
          "internalType": "uint256",
          "name": "index",
          "type": "uint256"
        }
      ],
      "name": "getRoleMember",
      "outputs": [
        {
          "internalType": "address",
          "name": "",
          "type": "address"
        }
      ],
      "stateMutability": "view",
      "type": "function"
    },
    {
      "inputs": [
        {
          "internalType": "bytes32",
          "name": "role",
          "type": "bytes32"
        }
      ],
      "name": "getRoleMemberCount",
      "outputs": [
        {
          "internalType": "uint256",
          "name": "",
          "type": "uint256"
        }
      ],
      "stateMutability": "view",
      "type": "function"
    },
    {
      "inputs": [
        {
          "internalType": "bytes32",
          "name": "role",
          "type": "bytes32"
        },
        {
          "internalType": "address",
          "name": "account",
          "type": "address"
        }
      ],
      "name": "grantRole",
      "outputs": [],
      "stateMutability": "nonpayable",
      "type": "function"
    },
    {
      "inputs": [
        {
          "internalType": "bytes32",
          "name": "role",
          "type": "bytes32"
        },
        {
          "internalType": "address",
          "name": "account",
          "type": "address"
        }
      ],
      "name": "hasRole",
      "outputs": [
        {
          "internalType": "bool",
          "name": "",
          "type": "bool"
        }
      ],
      "stateMutability": "view",
      "type": "function"
    },
    {
      "inputs": [],
      "name": "itemToken",
      "outputs": [
        {
          "internalType": "address",
          "name": "",
          "type": "address"
        }
      ],
      "stateMutability": "view",
      "type": "function"
    },
    {
      "inputs": [
        {
          "internalType": "uint256",
          "name": "",
          "type": "uint256"
        },
        {
          "internalType": "uint256",
          "name": "",
          "type": "uint256"
        }
      ],
      "name": "leftHandItem",
      "outputs": [
        {
          "internalType": "string",
          "name": "",
          "type": "string"
        }
      ],
      "stateMutability": "view",
      "type": "function"
    },
    {
      "inputs": [
        {
          "internalType": "uint256",
          "name": "",
          "type": "uint256"
        },
        {
          "internalType": "uint256",
          "name": "",
          "type": "uint256"
        }
      ],
      "name": "movement",
      "outputs": [
        {
          "internalType": "uint8",
          "name": "",
          "type": "uint8"
        }
      ],
      "stateMutability": "view",
      "type": "function"
    },
    {
      "inputs": [
        {
          "internalType": "uint256",
          "name": "",
          "type": "uint256"
        },
        {
          "internalType": "uint256",
          "name": "",
          "type": "uint256"
        }
      ],
      "name": "relic",
      "outputs": [
        {
          "internalType": "string",
          "name": "",
          "type": "string"
        }
      ],
      "stateMutability": "view",
      "type": "function"
    },
    {
      "inputs": [],
      "name": "relicToken",
      "outputs": [
        {
          "internalType": "address",
          "name": "",
          "type": "address"
        }
      ],
      "stateMutability": "view",
      "type": "function"
    },
    {
      "inputs": [
        {
          "internalType": "bytes32",
          "name": "role",
          "type": "bytes32"
        },
        {
          "internalType": "address",
          "name": "account",
          "type": "address"
        }
      ],
      "name": "renounceRole",
      "outputs": [],
      "stateMutability": "nonpayable",
      "type": "function"
    },
    {
      "inputs": [
        {
          "internalType": "bytes32",
          "name": "role",
          "type": "bytes32"
        },
        {
          "internalType": "address",
          "name": "account",
          "type": "address"
        }
      ],
      "name": "revokeRole",
      "outputs": [],
      "stateMutability": "nonpayable",
      "type": "function"
    },
    {
      "inputs": [
        {
          "internalType": "uint256",
          "name": "",
          "type": "uint256"
        },
        {
          "internalType": "uint256",
          "name": "",
          "type": "uint256"
        }
      ],
      "name": "rightHandItem",
      "outputs": [
        {
          "internalType": "string",
          "name": "",
          "type": "string"
        }
      ],
      "stateMutability": "view",
      "type": "function"
    },
    {
      "inputs": [
        {
          "internalType": "uint256",
          "name": "",
          "type": "uint256"
        },
        {
          "internalType": "uint256",
          "name": "",
          "type": "uint256"
        }
      ],
      "name": "status",
      "outputs": [
        {
          "internalType": "string",
          "name": "",
          "type": "string"
        }
      ],
      "stateMutability": "view",
      "type": "function"
    },
    {
      "inputs": [
        {
          "internalType": "bytes4",
          "name": "interfaceId",
          "type": "bytes4"
        }
      ],
      "name": "supportsInterface",
      "outputs": [
        {
          "internalType": "bool",
          "name": "",
          "type": "bool"
        }
      ],
      "stateMutability": "view",
      "type": "function"
    },
    {
      "inputs": [
        {
          "internalType": "address",
          "name": "controllerAddress",
          "type": "address"
        }
      ],
      "name": "addVerifiedController",
      "outputs": [],
      "stateMutability": "nonpayable",
      "type": "function"
    },
    {
      "inputs": [
        {
          "internalType": "uint8[3]",
          "name": "stats",
          "type": "uint8[3]"
        },
        {
          "internalType": "uint256",
          "name": "gameID",
          "type": "uint256"
        },
        {
          "internalType": "uint256",
          "name": "playerID",
          "type": "uint256"
        }
      ],
      "name": "setStats",
      "outputs": [],
      "stateMutability": "nonpayable",
      "type": "function"
    },
    {
      "inputs": [
        {
          "internalType": "uint8",
          "name": "movementValue",
          "type": "uint8"
        },
        {
          "internalType": "uint256",
          "name": "gameID",
          "type": "uint256"
        },
        {
          "internalType": "uint256",
          "name": "playerID",
          "type": "uint256"
        }
      ],
      "name": "setMovement",
      "outputs": [],
      "stateMutability": "nonpayable",
      "type": "function"
    },
    {
      "inputs": [
        {
          "internalType": "uint8",
          "name": "agilityValue",
          "type": "uint8"
        },
        {
          "internalType": "uint256",
          "name": "gameID",
          "type": "uint256"
        },
        {
          "internalType": "uint256",
          "name": "playerID",
          "type": "uint256"
        }
      ],
      "name": "setAgility",
      "outputs": [],
      "stateMutability": "nonpayable",
      "type": "function"
    },
    {
      "inputs": [
        {
          "internalType": "uint8",
          "name": "dexterityValue",
          "type": "uint8"
        },
        {
          "internalType": "uint256",
          "name": "gameID",
          "type": "uint256"
        },
        {
          "internalType": "uint256",
          "name": "playerID",
          "type": "uint256"
        }
      ],
      "name": "setDexterity",
      "outputs": [],
      "stateMutability": "nonpayable",
      "type": "function"
    },
    {
      "inputs": [
        {
          "internalType": "string",
          "name": "itemTokenType",
          "type": "string"
        },
        {
          "internalType": "uint256",
          "name": "gameID",
          "type": "uint256"
        },
        {
          "internalType": "uint256",
          "name": "playerID",
          "type": "uint256"
        }
      ],
      "name": "setLeftHandItem",
      "outputs": [],
      "stateMutability": "nonpayable",
      "type": "function"
    },
    {
      "inputs": [
        {
          "internalType": "string",
          "name": "itemTokenType",
          "type": "string"
        },
        {
          "internalType": "uint256",
          "name": "gameID",
          "type": "uint256"
        },
        {
          "internalType": "uint256",
          "name": "playerID",
          "type": "uint256"
        }
      ],
      "name": "setRightHandItem",
      "outputs": [],
      "stateMutability": "nonpayable",
      "type": "function"
    },
    {
      "inputs": [
        {
          "internalType": "string",
          "name": "itemTokenType",
          "type": "string"
        },
        {
          "internalType": "uint256",
          "name": "gameID",
          "type": "uint256"
        },
        {
          "internalType": "uint256",
          "name": "playerID",
          "type": "uint256"
        }
      ],
      "name": "setArtifact",
      "outputs": [],
      "stateMutability": "nonpayable",
      "type": "function"
    },
    {
      "inputs": [
        {
          "internalType": "string",
          "name": "itemTokenType",
          "type": "string"
        },
        {
          "internalType": "uint256",
          "name": "gameID",
          "type": "uint256"
        },
        {
          "internalType": "uint256",
          "name": "playerID",
          "type": "uint256"
        }
      ],
      "name": "setStatus",
      "outputs": [],
      "stateMutability": "nonpayable",
      "type": "function"
    },
    {
      "inputs": [
        {
          "internalType": "string",
          "name": "itemTokenType",
          "type": "string"
        },
        {
          "internalType": "uint256",
          "name": "gameID",
          "type": "uint256"
        },
        {
          "internalType": "uint256",
          "name": "playerID",
          "type": "uint256"
        }
      ],
      "name": "setRelic",
      "outputs": [],
      "stateMutability": "nonpayable",
      "type": "function"
    },
    {
      "inputs": [
        {
          "internalType": "enum CharacterCard.Action",
          "name": "_action",
          "type": "uint8"
        },
        {
          "internalType": "uint256",
          "name": "gameID",
          "type": "uint256"
        },
        {
          "internalType": "uint256",
          "name": "playerID",
          "type": "uint256"
        }
      ],
      "name": "setAction",
      "outputs": [],
      "stateMutability": "nonpayable",
      "type": "function"
    }
  ],
  "bytecode": "0x60806040523480156200001157600080fd5b50604051620018533803806200185383398101604081905262000034916200027e565b6200005c60006200004d6401000000006200009f810204565b640100000000620000a3810204565b60028054600160a060020a03948516600160a060020a031991821617909155600380549385169382169390931790925560048054919093169116179055620002c8565b3390565b620000b88282640100000000620000bc810204565b5050565b620000d6828264010000000062000a0d6200010382021704565b6000828152600160205260409020620000fe908264010000000062000a916200019f82021704565b505050565b620001188282640100000000620001c8810204565b620000b857600082815260208181526040808320600160a060020a03851684529091529020805460ff191660011790556200015b6401000000006200009f810204565b600160a060020a031681600160a060020a0316837f2f8788117e7eff1d82e926ec794901d17c78024a50270940304540a733656f0d60405160405180910390a45050565b6000620001bf83600160a060020a038416640100000000620001f1810204565b90505b92915050565b600091825260208281526040808420600160a060020a0393909316845291905290205460ff1690565b600062000208838364010000000062000249810204565b6200024057508154600181810184556000848152602080822090930184905584548482528286019093526040902091909155620001c2565b506000620001c2565b60009081526001919091016020526040902054151590565b8051600160a060020a03811681146200027957600080fd5b919050565b6000806000606084860312156200029457600080fd5b6200029f8462000261565b9250620002af6020850162000261565b9150620002bf6040850162000261565b90509250925092565b61157b80620002d86000396000f3fe608060405234801561001057600080fd5b50600436106101d8576000357c010000000000000000000000000000000000000000000000000000000090048063876d01cb11610117578063ca15c873116100ba578063ca15c873146103fd578063d104563e14610410578063d1eb50531461043e578063d27ffd0d14610479578063d4f5b1521461048c578063d547741f1461049f578063dd51a3ac146104b2578063e0e0a24b1461032a578063e8216595146104c557600080fd5b8063876d01cb146103705780639010d07c1461038357806391d14854146103965780639c220647146103a9578063a217fddf146103bc578063a867ef78146103c4578063a8953434146103d7578063b3dd803a146103ea57600080fd5b806336568abe1161017f57806336568abe146102f157806345b8ace5146103045780635381ee17146103175780635f2caa5e1461032a5780636f02e57b1461032a578063777f54401461033d5780637ad195891461032a5780637dcfa2911461035057600080fd5b806301ffc9a7146101dd57806303936d4614610205578063108a038c14610230578063134f10b4146102455780631c834a7f14610258578063248a9ca31461027b5780632af37e1d1461029e5780632f2ff15d146102de575b600080fd5b6101f06101eb36600461105c565b6104f3565b60405190151581526020015b60405180910390f35b60035461021890600160a060020a031681565b604051600160a060020a0390911681526020016101fc565b61024361023e36600461109c565b610537565b005b61024361025336600461109c565b61057d565b61026d60008051602061152683398151915281565b6040519081526020016101fc565b61026d6102893660046110cf565b60009081526020819052604090206001015490565b6102cc6102ac3660046110e8565b600760209081526000928352604080842090915290825290205460ff1681565b60405160ff90911681526020016101fc565b6102436102ec366004611121565b6105c3565b6102436102ff366004611121565b6105ed565b610243610312366004611197565b610681565b61024361032536600461109c565b61070d565b61024361033836600461122a565b610753565b60025461021890600160a060020a031681565b61036361035e3660046110e8565b610799565b6040516101fc9190611300565b60045461021890600160a060020a031681565b6102186103913660046110e8565b61083e565b6101f06103a4366004611121565b61085d565b6103636103b73660046110e8565b610886565b61026d600081565b6103636103d23660046110e8565b6108aa565b6102436103e536600461122a565b6108ce565b6103636103f83660046110e8565b61090d565b61026d61040b3660046110cf565b610931565b6102cc61041e3660046110e8565b600660209081526000928352604080842090915290825290205460ff1681565b61046c61044c3660046110e8565b600860209081526000928352604080842090915290825290205460ff1681565b6040516101fc919061134c565b6103636104873660046110e8565b610948565b61024361049a366004611377565b61096c565b6102436104ad366004611121565b61098f565b6102436104c0366004611392565b6109b4565b6102cc6104d33660046110e8565b600560209081526000928352604080842090915290825290205460ff1681565b6000600160e060020a031982167f5a05180f000000000000000000000000000000000000000000000000000000001480610531575061053182610aa6565b92915050565b60008051602061152683398151915261054f81610b0d565b5060009182526007602090815260408084209284529190529020805460ff191660ff92909216919091179055565b60008051602061152683398151915261059581610b0d565b5060009182526006602090815260408084209284529190529020805460ff191660ff92909216919091179055565b6000828152602081905260409020600101546105de81610b0d565b6105e88383610b1a565b505050565b600160a060020a03811633146106735760405160e560020a62461bcd02815260206004820152602f60248201527f416363657373436f6e74726f6c3a2063616e206f6e6c792072656e6f756e636560448201527f20726f6c657320666f722073656c66000000000000000000000000000000000060648201526084015b60405180910390fd5b61067d8282610b3c565b5050565b60008051602061152683398151915261069981610b0d565b50825160008381526005602090815260408083208584528252808320805460ff1990811660ff96871617909155828801518785526006845282852087865284528285208054831691871691909117905596810151958352600782528083209483529390529190912080549093169116179055565b60008051602061152683398151915261072581610b0d565b5060009182526005602090815260408084209284529190529020805460ff191660ff92909216919091179055565b60008051602061152683398151915261076b81610b0d565b6000838152600a602090815260408083208584528252909120855161079292870190610fc3565b5050505050565b6009602090815260009283526040808420909152908252902080546107bd906113cf565b80601f01602080910402602001604051908101604052809291908181526020018280546107e9906113cf565b80156108365780601f1061080b57610100808354040283529160200191610836565b820191906000526020600020905b81548152906001019060200180831161081957829003601f168201915b505050505081565b60008281526001602052604081206108569083610b5e565b9392505050565b600091825260208281526040808420600160a060020a0393909316845291905290205460ff1690565b600a602090815260009283526040808420909152908252902080546107bd906113cf565b600d602090815260009283526040808420909152908252902080546107bd906113cf565b6000805160206115268339815191526108e681610b0d565b60008381526009602090815260408083208584528252909120855161079292870190610fc3565b600c602090815260009283526040808420909152908252902080546107bd906113cf565b600081815260016020526040812061053190610b6a565b600b602090815260009283526040808420909152908252902080546107bd906113cf565b600061097781610b0d565b61067d600080516020611526833981519152836105c3565b6000828152602081905260409020600101546109aa81610b0d565b6105e88383610b3c565b6000805160206115268339815191526109cc81610b0d565b60008381526008602090815260408083208584529091529020805485919060ff19166001836006811115610a0257610a02611333565b021790555050505050565b610a17828261085d565b61067d57600082815260208181526040808320600160a060020a03851684529091529020805460ff19166001179055610a4d3390565b600160a060020a031681600160a060020a0316837f2f8788117e7eff1d82e926ec794901d17c78024a50270940304540a733656f0d60405160405180910390a45050565b600061085683600160a060020a038416610b74565b6000600160e060020a031982167f7965db0b00000000000000000000000000000000000000000000000000000000148061053157507f01ffc9a700000000000000000000000000000000000000000000000000000000600160e060020a0319831614610531565b610b178133610bc3565b50565b610b248282610a0d565b60008281526001602052604090206105e89082610a91565b610b468282610c2a565b60008281526001602052604090206105e89082610c8f565b60006108568383610ca4565b6000610531825490565b6000818152600183016020526040812054610bbb57508154600181810184556000848152602080822090930184905584548482528286019093526040902091909155610531565b506000610531565b610bcd828261085d565b61067d57610be581600160a060020a03166014610cce565b610bf0836020610cce565b604051602001610c0192919061140d565b60408051601f198184030181529082905260e560020a62461bcd02825261066a91600401611300565b610c34828261085d565b1561067d57600082815260208181526040808320600160a060020a0385168085529252808320805460ff1916905551339285917ff6391f5c32d9c69d2a47ea670b442974b53935d1edc7fd64eb21e047a839171b9190a45050565b600061085683600160a060020a038416610ed0565b6000826000018281548110610cbb57610cbb6113b6565b9060005260206000200154905092915050565b60606000610cdd8360026114a7565b610ce89060026114c6565b67ffffffffffffffff811115610d0057610d0061114d565b6040519080825280601f01601f191660200182016040528015610d2a576020820181803683370190505b5090507f300000000000000000000000000000000000000000000000000000000000000081600081518110610d6157610d616113b6565b6020010190600160f860020a031916908160001a9053507f780000000000000000000000000000000000000000000000000000000000000081600181518110610dac57610dac6113b6565b6020010190600160f860020a031916908160001a9053506000610dd08460026114a7565b610ddb9060016114c6565b90505b6001811115610e7e577f303132333435363738396162636465660000000000000000000000000000000085600f1660108110610e1c57610e1c6113b6565b1a7f010000000000000000000000000000000000000000000000000000000000000002828281518110610e5157610e516113b6565b6020010190600160f860020a031916908160001a905350601090940493610e77816114de565b9050610dde565b5083156108565760405160e560020a62461bcd02815260206004820181905260248201527f537472696e67733a20686578206c656e67746820696e73756666696369656e74604482015260640161066a565b60008181526001830160205260408120548015610fb9576000610ef46001836114f5565b8554909150600090610f08906001906114f5565b9050818114610f6d576000866000018281548110610f2857610f286113b6565b9060005260206000200154905080876000018481548110610f4b57610f4b6113b6565b6000918252602080832090910192909255918252600188019052604090208390555b8554869080610f7e57610f7e61150c565b600190038181906000526020600020016000905590558560010160008681526020019081526020016000206000905560019350505050610531565b6000915050610531565b828054610fcf906113cf565b90600052602060002090601f016020900481019282610ff15760008555611037565b82601f1061100a57805160ff1916838001178555611037565b82800160010185558215611037579182015b8281111561103757825182559160200191906001019061101c565b50611043929150611047565b5090565b5b808211156110435760008155600101611048565b60006020828403121561106e57600080fd5b8135600160e060020a03198116811461085657600080fd5b803560ff8116811461109757600080fd5b919050565b6000806000606084860312156110b157600080fd5b6110ba84611086565b95602085013595506040909401359392505050565b6000602082840312156110e157600080fd5b5035919050565b600080604083850312156110fb57600080fd5b50508035926020909101359150565b8035600160a060020a038116811461109757600080fd5b6000806040838503121561113457600080fd5b823591506111446020840161110a565b90509250929050565b60e060020a634e487b7102600052604160045260246000fd5b604051601f8201601f1916810167ffffffffffffffff8111828210171561118f5761118f61114d565b604052919050565b600080600060a084860312156111ac57600080fd5b84601f8501126111bb57600080fd5b6040516060810181811067ffffffffffffffff821117156111de576111de61114d565b6040528060608601878111156111f357600080fd5b865b818110156112145761120681611086565b8352602092830192016111f5565b5091979135965050608094909401359392505050565b60008060006060848603121561123f57600080fd5b833567ffffffffffffffff8082111561125757600080fd5b818601915086601f83011261126b57600080fd5b813560208282111561127f5761127f61114d565b611291601f8301601f19168201611166565b925081835288818386010111156112a757600080fd5b818185018285013760009183018101919091529097908601359650604090950135949350505050565b60005b838110156112eb5781810151838201526020016112d3565b838111156112fa576000848401525b50505050565b602081526000825180602084015261131f8160408501602087016112d0565b601f01601f19169190910160400192915050565b60e060020a634e487b7102600052602160045260246000fd5b60208101600783106113715760e060020a634e487b7102600052602160045260246000fd5b91905290565b60006020828403121561138957600080fd5b6108568261110a565b6000806000606084860312156113a757600080fd5b8335600781106110ba57600080fd5b60e060020a634e487b7102600052603260045260246000fd5b6002810460018216806113e357607f821691505b602082108114156114075760e060020a634e487b7102600052602260045260246000fd5b50919050565b7f416363657373436f6e74726f6c3a206163636f756e74200000000000000000008152600083516114458160178501602088016112d0565b7f206973206d697373696e6720726f6c652000000000000000000000000000000060179184019182015283516114828160288401602088016112d0565b01602801949350505050565b60e060020a634e487b7102600052601160045260246000fd5b60008160001904831182151516156114c1576114c161148e565b500290565b600082198211156114d9576114d961148e565b500190565b6000816114ed576114ed61148e565b506000190190565b6000828210156115075761150761148e565b500390565b60e060020a634e487b7102600052603160045260246000fdfe80e2196015fc06a9d891759f8e4f51eb314ef5e9ea068528a8ed0063b87759f0a26469706673582212206b1b386a72a68f9753adad49d43a4b64659859627831f0e39ec5b36cbbff346a64736f6c634300080b0033",
  "immutableReferences": {},
  "source": "// SPDX-License-Identifier: GPL-3.0\npragma solidity >=0.7.0 <0.9.0;\n\nimport \"@openzeppelin/contracts/access/AccessControlEnumerable.sol\";\n\ncontract CharacterCard is AccessControlEnumerable {\n    enum Action {\n        Idle,\n        Move,\n        SetupCamp,\n        BreakDownCamp,\n        Dig,\n        Rest,\n        Help\n    }\n\n    bytes32 public constant VERIFIED_CONTROLLER_ROLE =\n        keccak256(\"VERIFIED_CONTROLLER_ROLE\");\n    uint8 constant MAX_MOVEMENT = 4;\n    uint8 constant MAX_AGILITY = 4;\n    uint8 constant MAX_DEXTERITY = 4;\n\n    address public itemToken;\n    address public artifactToken;\n    address public relicToken;\n    // game id => player ID\n    mapping(uint256 => mapping(uint256 => uint8)) public movement;\n    mapping(uint256 => mapping(uint256 => uint8)) public agility;\n    mapping(uint256 => mapping(uint256 => uint8)) public dexterity;\n    mapping(uint256 => mapping(uint256 => Action)) public action; // set to enumerated list\n    //// the following assign a token type, player must still hold balance to use item\n    mapping(uint256 => mapping(uint256 => string)) public leftHandItem;\n    mapping(uint256 => mapping(uint256 => string)) public rightHandItem;\n    mapping(uint256 => mapping(uint256 => string)) public artifact;\n    mapping(uint256 => mapping(uint256 => string)) public status;\n    mapping(uint256 => mapping(uint256 => string)) public relic;\n\n    constructor(\n        address itemTokenAddress,\n        address artifactTokenAddress,\n        address relicTokenAddress\n    ) {\n        _setupRole(DEFAULT_ADMIN_ROLE, _msgSender());\n        itemToken = itemTokenAddress;\n        artifactToken = artifactTokenAddress;\n        relicToken = relicTokenAddress;\n    }\n\n    function addVerifiedController(address controllerAddress)\n        public\n        onlyRole(DEFAULT_ADMIN_ROLE)\n    {\n        grantRole(VERIFIED_CONTROLLER_ROLE, controllerAddress);\n    }\n\n    function setStats(\n        uint8[3] memory stats,\n        uint256 gameID,\n        uint256 playerID\n    ) external onlyRole(VERIFIED_CONTROLLER_ROLE) {\n        // set all stats at once [movement, agility, dexterity]\n        movement[gameID][playerID] = stats[0];\n        agility[gameID][playerID] = stats[1];\n        dexterity[gameID][playerID] = stats[2];\n    }\n\n    function setMovement(\n        uint8 movementValue,\n        uint256 gameID,\n        uint256 playerID\n    ) external onlyRole(VERIFIED_CONTROLLER_ROLE) {\n        movement[gameID][playerID] = movementValue;\n    }\n\n    function setAgility(\n        uint8 agilityValue,\n        uint256 gameID,\n        uint256 playerID\n    ) external onlyRole(VERIFIED_CONTROLLER_ROLE) {\n        agility[gameID][playerID] = agilityValue;\n    }\n\n    function setDexterity(\n        uint8 dexterityValue,\n        uint256 gameID,\n        uint256 playerID\n    ) external onlyRole(VERIFIED_CONTROLLER_ROLE) {\n        dexterity[gameID][playerID] = dexterityValue;\n    }\n\n    function setLeftHandItem(\n        string memory itemTokenType,\n        uint256 gameID,\n        uint256 playerID\n    ) external onlyRole(VERIFIED_CONTROLLER_ROLE) {\n        leftHandItem[gameID][playerID] = itemTokenType;\n    }\n\n    function setRightHandItem(\n        string memory itemTokenType,\n        uint256 gameID,\n        uint256 playerID\n    ) external onlyRole(VERIFIED_CONTROLLER_ROLE) {\n        rightHandItem[gameID][playerID] = itemTokenType;\n    }\n\n    function setArtifact(\n        string memory itemTokenType,\n        uint256 gameID,\n        uint256 playerID\n    ) external onlyRole(VERIFIED_CONTROLLER_ROLE) {\n        rightHandItem[gameID][playerID] = itemTokenType;\n    }\n\n    function setStatus(\n        string memory itemTokenType,\n        uint256 gameID,\n        uint256 playerID\n    ) external onlyRole(VERIFIED_CONTROLLER_ROLE) {\n        rightHandItem[gameID][playerID] = itemTokenType;\n    }\n\n    function setRelic(\n        string memory itemTokenType,\n        uint256 gameID,\n        uint256 playerID\n    ) external onlyRole(VERIFIED_CONTROLLER_ROLE) {\n        rightHandItem[gameID][playerID] = itemTokenType;\n    }\n\n    function setAction(\n        Action _action,\n        uint256 gameID,\n        uint256 playerID\n    ) external onlyRole(VERIFIED_CONTROLLER_ROLE) {\n        action[gameID][playerID] = _action;\n    }\n}\n",
  "sourcePath": "/Users/maxmeier/Developer/Lucky Machines/hexploration/contracts/state/CharacterCard.sol",
  "compiler": {
    "name": "solc",
    "version": "0.8.11+commit.d7f03943.Emscripten.clang"
  },
  "schemaVersion": "3.4.4",
  "updatedAt": "2022-05-24T22:52:07.320Z",
  "devdoc": {
    "kind": "dev",
    "methods": {
      "getRoleAdmin(bytes32)": {
        "details": "Returns the admin role that controls `role`. See {grantRole} and {revokeRole}. To change a role's admin, use {_setRoleAdmin}."
      },
      "getRoleMember(bytes32,uint256)": {
        "details": "Returns one of the accounts that have `role`. `index` must be a value between 0 and {getRoleMemberCount}, non-inclusive. Role bearers are not sorted in any particular way, and their ordering may change at any point. WARNING: When using {getRoleMember} and {getRoleMemberCount}, make sure you perform all queries on the same block. See the following https://forum.openzeppelin.com/t/iterating-over-elements-on-enumerableset-in-openzeppelin-contracts/2296[forum post] for more information."
      },
      "getRoleMemberCount(bytes32)": {
        "details": "Returns the number of accounts that have `role`. Can be used together with {getRoleMember} to enumerate all bearers of a role."
      },
      "grantRole(bytes32,address)": {
        "details": "Grants `role` to `account`. If `account` had not been already granted `role`, emits a {RoleGranted} event. Requirements: - the caller must have ``role``'s admin role."
      },
      "hasRole(bytes32,address)": {
        "details": "Returns `true` if `account` has been granted `role`."
      },
      "renounceRole(bytes32,address)": {
        "details": "Revokes `role` from the calling account. Roles are often managed via {grantRole} and {revokeRole}: this function's purpose is to provide a mechanism for accounts to lose their privileges if they are compromised (such as when a trusted device is misplaced). If the calling account had been revoked `role`, emits a {RoleRevoked} event. Requirements: - the caller must be `account`."
      },
      "revokeRole(bytes32,address)": {
        "details": "Revokes `role` from `account`. If `account` had been granted `role`, emits a {RoleRevoked} event. Requirements: - the caller must have ``role``'s admin role."
      },
      "supportsInterface(bytes4)": {
        "details": "See {IERC165-supportsInterface}."
      }
    },
    "version": 1
  },
  "userdoc": {
    "kind": "user",
    "methods": {},
    "version": 1
  }
}