{
  "contractName": "CharacterCard",
  "abi": [
    {
      "inputs": [
        {
          "internalType": "address",
          "name": "itemTokenAddress",
          "type": "address"
        },
        {
          "internalType": "address",
          "name": "artifactTokenAddress",
          "type": "address"
        },
        {
          "internalType": "address",
          "name": "relicTokenAddress",
          "type": "address"
        }
      ],
      "stateMutability": "nonpayable",
      "type": "constructor"
    },
    {
      "anonymous": false,
      "inputs": [
        {
          "indexed": true,
          "internalType": "bytes32",
          "name": "role",
          "type": "bytes32"
        },
        {
          "indexed": true,
          "internalType": "bytes32",
          "name": "previousAdminRole",
          "type": "bytes32"
        },
        {
          "indexed": true,
          "internalType": "bytes32",
          "name": "newAdminRole",
          "type": "bytes32"
        }
      ],
      "name": "RoleAdminChanged",
      "type": "event"
    },
    {
      "anonymous": false,
      "inputs": [
        {
          "indexed": true,
          "internalType": "bytes32",
          "name": "role",
          "type": "bytes32"
        },
        {
          "indexed": true,
          "internalType": "address",
          "name": "account",
          "type": "address"
        },
        {
          "indexed": true,
          "internalType": "address",
          "name": "sender",
          "type": "address"
        }
      ],
      "name": "RoleGranted",
      "type": "event"
    },
    {
      "anonymous": false,
      "inputs": [
        {
          "indexed": true,
          "internalType": "bytes32",
          "name": "role",
          "type": "bytes32"
        },
        {
          "indexed": true,
          "internalType": "address",
          "name": "account",
          "type": "address"
        },
        {
          "indexed": true,
          "internalType": "address",
          "name": "sender",
          "type": "address"
        }
      ],
      "name": "RoleRevoked",
      "type": "event"
    },
    {
      "inputs": [],
      "name": "DEFAULT_ADMIN_ROLE",
      "outputs": [
        {
          "internalType": "bytes32",
          "name": "",
          "type": "bytes32"
        }
      ],
      "stateMutability": "view",
      "type": "function",
      "constant": true
    },
    {
      "inputs": [],
      "name": "VERIFIED_CONTROLLER_ROLE",
      "outputs": [
        {
          "internalType": "bytes32",
          "name": "",
          "type": "bytes32"
        }
      ],
      "stateMutability": "view",
      "type": "function",
      "constant": true
    },
    {
      "inputs": [
        {
          "internalType": "uint256",
          "name": "",
          "type": "uint256"
        },
        {
          "internalType": "uint256",
          "name": "",
          "type": "uint256"
        }
      ],
      "name": "action",
      "outputs": [
        {
          "internalType": "enum CharacterCard.Action",
          "name": "",
          "type": "uint8"
        }
      ],
      "stateMutability": "view",
      "type": "function",
      "constant": true
    },
    {
      "inputs": [
        {
          "internalType": "uint256",
          "name": "",
          "type": "uint256"
        },
        {
          "internalType": "uint256",
          "name": "",
          "type": "uint256"
        }
      ],
      "name": "activeActionCardDrawn",
      "outputs": [
        {
          "internalType": "string",
          "name": "",
          "type": "string"
        }
      ],
      "stateMutability": "view",
      "type": "function",
      "constant": true
    },
    {
      "inputs": [
        {
          "internalType": "uint256",
          "name": "",
          "type": "uint256"
        },
        {
          "internalType": "uint256",
          "name": "",
          "type": "uint256"
        },
        {
          "internalType": "uint256",
          "name": "",
          "type": "uint256"
        }
      ],
      "name": "activeActionCardInventoryChanges",
      "outputs": [
        {
          "internalType": "string",
          "name": "",
          "type": "string"
        }
      ],
      "stateMutability": "view",
      "type": "function",
      "constant": true
    },
    {
      "inputs": [
        {
          "internalType": "uint256",
          "name": "",
          "type": "uint256"
        },
        {
          "internalType": "uint256",
          "name": "",
          "type": "uint256"
        }
      ],
      "name": "activeActionCardResult",
      "outputs": [
        {
          "internalType": "string",
          "name": "",
          "type": "string"
        }
      ],
      "stateMutability": "view",
      "type": "function",
      "constant": true
    },
    {
      "inputs": [
        {
          "internalType": "uint256",
          "name": "",
          "type": "uint256"
        },
        {
          "internalType": "uint256",
          "name": "",
          "type": "uint256"
        }
      ],
      "name": "activeActionCardType",
      "outputs": [
        {
          "internalType": "string",
          "name": "",
          "type": "string"
        }
      ],
      "stateMutability": "view",
      "type": "function",
      "constant": true
    },
    {
      "inputs": [
        {
          "internalType": "uint256",
          "name": "",
          "type": "uint256"
        },
        {
          "internalType": "uint256",
          "name": "",
          "type": "uint256"
        }
      ],
      "name": "agility",
      "outputs": [
        {
          "internalType": "uint8",
          "name": "",
          "type": "uint8"
        }
      ],
      "stateMutability": "view",
      "type": "function",
      "constant": true
    },
    {
      "inputs": [
        {
          "internalType": "uint256",
          "name": "",
          "type": "uint256"
        },
        {
          "internalType": "uint256",
          "name": "",
          "type": "uint256"
        }
      ],
      "name": "artifact",
      "outputs": [
        {
          "internalType": "string",
          "name": "",
          "type": "string"
        }
      ],
      "stateMutability": "view",
      "type": "function",
      "constant": true
    },
    {
      "inputs": [],
      "name": "artifactToken",
      "outputs": [
        {
          "internalType": "address",
          "name": "",
          "type": "address"
        }
      ],
      "stateMutability": "view",
      "type": "function",
      "constant": true
    },
    {
      "inputs": [
        {
          "internalType": "uint256",
          "name": "",
          "type": "uint256"
        },
        {
          "internalType": "uint256",
          "name": "",
          "type": "uint256"
        }
      ],
      "name": "dexterity",
      "outputs": [
        {
          "internalType": "uint8",
          "name": "",
          "type": "uint8"
        }
      ],
      "stateMutability": "view",
      "type": "function",
      "constant": true
    },
    {
      "inputs": [
        {
          "internalType": "bytes32",
          "name": "role",
          "type": "bytes32"
        }
      ],
      "name": "getRoleAdmin",
      "outputs": [
        {
          "internalType": "bytes32",
          "name": "",
          "type": "bytes32"
        }
      ],
      "stateMutability": "view",
      "type": "function",
      "constant": true
    },
    {
      "inputs": [
        {
          "internalType": "bytes32",
          "name": "role",
          "type": "bytes32"
        },
        {
          "internalType": "uint256",
          "name": "index",
          "type": "uint256"
        }
      ],
      "name": "getRoleMember",
      "outputs": [
        {
          "internalType": "address",
          "name": "",
          "type": "address"
        }
      ],
      "stateMutability": "view",
      "type": "function",
      "constant": true
    },
    {
      "inputs": [
        {
          "internalType": "bytes32",
          "name": "role",
          "type": "bytes32"
        }
      ],
      "name": "getRoleMemberCount",
      "outputs": [
        {
          "internalType": "uint256",
          "name": "",
          "type": "uint256"
        }
      ],
      "stateMutability": "view",
      "type": "function",
      "constant": true
    },
    {
      "inputs": [
        {
          "internalType": "bytes32",
          "name": "role",
          "type": "bytes32"
        },
        {
          "internalType": "address",
          "name": "account",
          "type": "address"
        }
      ],
      "name": "grantRole",
      "outputs": [],
      "stateMutability": "nonpayable",
      "type": "function"
    },
    {
      "inputs": [
        {
          "internalType": "bytes32",
          "name": "role",
          "type": "bytes32"
        },
        {
          "internalType": "address",
          "name": "account",
          "type": "address"
        }
      ],
      "name": "hasRole",
      "outputs": [
        {
          "internalType": "bool",
          "name": "",
          "type": "bool"
        }
      ],
      "stateMutability": "view",
      "type": "function",
      "constant": true
    },
    {
      "inputs": [],
      "name": "itemToken",
      "outputs": [
        {
          "internalType": "address",
          "name": "",
          "type": "address"
        }
      ],
      "stateMutability": "view",
      "type": "function",
      "constant": true
    },
    {
      "inputs": [
        {
          "internalType": "uint256",
          "name": "",
          "type": "uint256"
        },
        {
          "internalType": "uint256",
          "name": "",
          "type": "uint256"
        }
      ],
      "name": "leftHandItem",
      "outputs": [
        {
          "internalType": "string",
          "name": "",
          "type": "string"
        }
      ],
      "stateMutability": "view",
      "type": "function",
      "constant": true
    },
    {
      "inputs": [
        {
          "internalType": "uint256",
          "name": "",
          "type": "uint256"
        },
        {
          "internalType": "uint256",
          "name": "",
          "type": "uint256"
        }
      ],
      "name": "movement",
      "outputs": [
        {
          "internalType": "uint8",
          "name": "",
          "type": "uint8"
        }
      ],
      "stateMutability": "view",
      "type": "function",
      "constant": true
    },
    {
      "inputs": [
        {
          "internalType": "uint256",
          "name": "",
          "type": "uint256"
        },
        {
          "internalType": "uint256",
          "name": "",
          "type": "uint256"
        }
      ],
      "name": "relic",
      "outputs": [
        {
          "internalType": "string",
          "name": "",
          "type": "string"
        }
      ],
      "stateMutability": "view",
      "type": "function",
      "constant": true
    },
    {
      "inputs": [],
      "name": "relicToken",
      "outputs": [
        {
          "internalType": "address",
          "name": "",
          "type": "address"
        }
      ],
      "stateMutability": "view",
      "type": "function",
      "constant": true
    },
    {
      "inputs": [
        {
          "internalType": "bytes32",
          "name": "role",
          "type": "bytes32"
        },
        {
          "internalType": "address",
          "name": "account",
          "type": "address"
        }
      ],
      "name": "renounceRole",
      "outputs": [],
      "stateMutability": "nonpayable",
      "type": "function"
    },
    {
      "inputs": [
        {
          "internalType": "bytes32",
          "name": "role",
          "type": "bytes32"
        },
        {
          "internalType": "address",
          "name": "account",
          "type": "address"
        }
      ],
      "name": "revokeRole",
      "outputs": [],
      "stateMutability": "nonpayable",
      "type": "function"
    },
    {
      "inputs": [
        {
          "internalType": "uint256",
          "name": "",
          "type": "uint256"
        },
        {
          "internalType": "uint256",
          "name": "",
          "type": "uint256"
        }
      ],
      "name": "rightHandItem",
      "outputs": [
        {
          "internalType": "string",
          "name": "",
          "type": "string"
        }
      ],
      "stateMutability": "view",
      "type": "function",
      "constant": true
    },
    {
      "inputs": [
        {
          "internalType": "uint256",
          "name": "",
          "type": "uint256"
        },
        {
          "internalType": "uint256",
          "name": "",
          "type": "uint256"
        }
      ],
      "name": "status",
      "outputs": [
        {
          "internalType": "string",
          "name": "",
          "type": "string"
        }
      ],
      "stateMutability": "view",
      "type": "function",
      "constant": true
    },
    {
      "inputs": [
        {
          "internalType": "bytes4",
          "name": "interfaceId",
          "type": "bytes4"
        }
      ],
      "name": "supportsInterface",
      "outputs": [
        {
          "internalType": "bool",
          "name": "",
          "type": "bool"
        }
      ],
      "stateMutability": "view",
      "type": "function",
      "constant": true
    },
    {
      "inputs": [
        {
          "internalType": "address",
          "name": "controllerAddress",
          "type": "address"
        }
      ],
      "name": "addVerifiedController",
      "outputs": [],
      "stateMutability": "nonpayable",
      "type": "function"
    },
    {
      "inputs": [
        {
          "internalType": "uint256",
          "name": "gameID",
          "type": "uint256"
        },
        {
          "internalType": "uint256",
          "name": "playerID",
          "type": "uint256"
        }
      ],
      "name": "getStats",
      "outputs": [
        {
          "internalType": "uint8[3]",
          "name": "stats",
          "type": "uint8[3]"
        }
      ],
      "stateMutability": "view",
      "type": "function",
      "constant": true
    },
    {
      "inputs": [
        {
          "internalType": "uint8[3]",
          "name": "stats",
          "type": "uint8[3]"
        },
        {
          "internalType": "uint256",
          "name": "gameID",
          "type": "uint256"
        },
        {
          "internalType": "uint256",
          "name": "playerID",
          "type": "uint256"
        }
      ],
      "name": "setStats",
      "outputs": [],
      "stateMutability": "nonpayable",
      "type": "function"
    },
    {
      "inputs": [
        {
          "internalType": "uint8",
          "name": "movementValue",
          "type": "uint8"
        },
        {
          "internalType": "uint256",
          "name": "gameID",
          "type": "uint256"
        },
        {
          "internalType": "uint256",
          "name": "playerID",
          "type": "uint256"
        }
      ],
      "name": "setMovement",
      "outputs": [],
      "stateMutability": "nonpayable",
      "type": "function"
    },
    {
      "inputs": [
        {
          "internalType": "uint8",
          "name": "agilityValue",
          "type": "uint8"
        },
        {
          "internalType": "uint256",
          "name": "gameID",
          "type": "uint256"
        },
        {
          "internalType": "uint256",
          "name": "playerID",
          "type": "uint256"
        }
      ],
      "name": "setAgility",
      "outputs": [],
      "stateMutability": "nonpayable",
      "type": "function"
    },
    {
      "inputs": [
        {
          "internalType": "uint8",
          "name": "dexterityValue",
          "type": "uint8"
        },
        {
          "internalType": "uint256",
          "name": "gameID",
          "type": "uint256"
        },
        {
          "internalType": "uint256",
          "name": "playerID",
          "type": "uint256"
        }
      ],
      "name": "setDexterity",
      "outputs": [],
      "stateMutability": "nonpayable",
      "type": "function"
    },
    {
      "inputs": [
        {
          "internalType": "string",
          "name": "itemTokenType",
          "type": "string"
        },
        {
          "internalType": "uint256",
          "name": "gameID",
          "type": "uint256"
        },
        {
          "internalType": "uint256",
          "name": "playerID",
          "type": "uint256"
        }
      ],
      "name": "setLeftHandItem",
      "outputs": [],
      "stateMutability": "nonpayable",
      "type": "function"
    },
    {
      "inputs": [
        {
          "internalType": "string",
          "name": "itemTokenType",
          "type": "string"
        },
        {
          "internalType": "uint256",
          "name": "gameID",
          "type": "uint256"
        },
        {
          "internalType": "uint256",
          "name": "playerID",
          "type": "uint256"
        }
      ],
      "name": "setRightHandItem",
      "outputs": [],
      "stateMutability": "nonpayable",
      "type": "function"
    },
    {
      "inputs": [
        {
          "internalType": "string",
          "name": "itemTokenType",
          "type": "string"
        },
        {
          "internalType": "uint256",
          "name": "gameID",
          "type": "uint256"
        },
        {
          "internalType": "uint256",
          "name": "playerID",
          "type": "uint256"
        }
      ],
      "name": "setArtifact",
      "outputs": [],
      "stateMutability": "nonpayable",
      "type": "function"
    },
    {
      "inputs": [
        {
          "internalType": "string",
          "name": "itemTokenType",
          "type": "string"
        },
        {
          "internalType": "uint256",
          "name": "gameID",
          "type": "uint256"
        },
        {
          "internalType": "uint256",
          "name": "playerID",
          "type": "uint256"
        }
      ],
      "name": "setStatus",
      "outputs": [],
      "stateMutability": "nonpayable",
      "type": "function"
    },
    {
      "inputs": [
        {
          "internalType": "string",
          "name": "itemTokenType",
          "type": "string"
        },
        {
          "internalType": "uint256",
          "name": "gameID",
          "type": "uint256"
        },
        {
          "internalType": "uint256",
          "name": "playerID",
          "type": "uint256"
        }
      ],
      "name": "setRelic",
      "outputs": [],
      "stateMutability": "nonpayable",
      "type": "function"
    },
    {
      "inputs": [
        {
          "internalType": "enum CharacterCard.Action",
          "name": "_action",
          "type": "uint8"
        },
        {
          "internalType": "uint256",
          "name": "gameID",
          "type": "uint256"
        },
        {
          "internalType": "uint256",
          "name": "playerID",
          "type": "uint256"
        }
      ],
      "name": "setAction",
      "outputs": [],
      "stateMutability": "nonpayable",
      "type": "function"
    },
    {
      "inputs": [
        {
          "internalType": "string",
          "name": "actionCardType",
          "type": "string"
        },
        {
          "internalType": "string",
          "name": "actionCardDrawn",
          "type": "string"
        },
        {
          "internalType": "string",
          "name": "actionCardResult",
          "type": "string"
        },
        {
          "internalType": "string[3]",
          "name": "actionCardInventoryChanges",
          "type": "string[3]"
        },
        {
          "internalType": "uint256",
          "name": "gameID",
          "type": "uint256"
        },
        {
          "internalType": "uint256",
          "name": "playerID",
          "type": "uint256"
        }
      ],
      "name": "setActionResults",
      "outputs": [],
      "stateMutability": "nonpayable",
      "type": "function"
    }
  ],
  "bytecode": "0x60806040523480156200001157600080fd5b5060405162001dc138038062001dc183398101604081905262000034916200027e565b6200005c60006200004d6401000000006200009f810204565b640100000000620000a3810204565b60028054600160a060020a03948516600160a060020a031991821617909155600380549385169382169390931790925560048054919093169116179055620002c8565b3390565b620000b88282640100000000620000bc810204565b5050565b620000d6828264010000000062000d196200010382021704565b6000828152600160205260409020620000fe908264010000000062000d9d6200019f82021704565b505050565b620001188282640100000000620001c8810204565b620000b857600082815260208181526040808320600160a060020a03851684529091529020805460ff191660011790556200015b6401000000006200009f810204565b600160a060020a031681600160a060020a0316837f2f8788117e7eff1d82e926ec794901d17c78024a50270940304540a733656f0d60405160405180910390a45050565b6000620001bf83600160a060020a038416640100000000620001f1810204565b90505b92915050565b600091825260208281526040808420600160a060020a0393909316845291905290205460ff1690565b600062000208838364010000000062000249810204565b6200024057508154600181810184556000848152602080822090930184905584548482528286019093526040902091909155620001c2565b506000620001c2565b60009081526001919091016020526040902054151590565b8051600160a060020a03811681146200027957600080fd5b919050565b6000806000606084860312156200029457600080fd5b6200029f8462000261565b9250620002af6020850162000261565b9150620002bf6040850162000261565b90509250925092565b611ae980620002d86000396000f3fe608060405234801561001057600080fd5b506004361061024a576000357c0100000000000000000000000000000000000000000000000000000000900480639010d07c11610158578063c28122a3116100d5578063d4f5b15211610099578063d4f5b1521461057d578063d547741f14610590578063dd51a3ac146105a3578063e0e0a24b146103bc578063e8216595146105b657600080fd5b8063c28122a3146104db578063ca15c873146104ee578063d104563e14610501578063d1eb50531461052f578063d27ffd0d1461056a57600080fd5b8063a867ef781161011c578063a867ef781461046f578063a895343414610482578063b3dd803a14610495578063bb47c9b3146104a8578063bba11b87146104c857600080fd5b80639010d07c1461041b57806391d148541461042e5780639c22064714610441578063a217fddf14610454578063a4a458fe1461045c57600080fd5b806336568abe116101e65780636f02e57b116101aa5780636f02e57b146103bc578063777f5440146103e25780637ad19589146103bc5780637dcfa291146103f5578063876d01cb1461040857600080fd5b806336568abe1461038357806345b8ace5146103965780635381ee17146103a95780635f2caa5e146103bc5780636011943c146103cf57600080fd5b806301ffc9a71461024f57806303936d461461027757806307afb2a0146102a2578063108a038c146102c2578063134f10b4146102d75780631c834a7f146102ea578063248a9ca31461030d5780632af37e1d146103305780632f2ff15d14610370575b600080fd5b61026261025d366004611429565b6105e4565b60405190151581526020015b60405180910390f35b60035461028a90600160a060020a031681565b604051600160a060020a03909116815260200161026e565b6102b56102b0366004611453565b610628565b60405161026e91906114a5565b6102d56102d03660046114ee565b6106cd565b005b6102d56102e53660046114ee565b610713565b6102ff600080516020611a9483398151915281565b60405190815260200161026e565b6102ff61031b366004611521565b60009081526020819052604090206001015490565b61035e61033e366004611453565b600760209081526000928352604080842090915290825290205460ff1681565b60405160ff909116815260200161026e565b6102d561037e366004611551565b610759565b6102d5610391366004611551565b610783565b6102d56103a43660046115bf565b610817565b6102d56103b73660046114ee565b6108f9565b6102d56103ca3660046116c1565b61093f565b6102b56103dd36600461170f565b610985565b60025461028a90600160a060020a031681565b6102b5610403366004611453565b6109bf565b60045461028a90600160a060020a031681565b61028a610429366004611453565b6109e3565b61026261043c366004611551565b610a02565b6102b561044f366004611453565b610a2b565b6102ff600081565b6102b561046a366004611453565b610a4f565b6102b561047d366004611453565b610a73565b6102d56104903660046116c1565b610a97565b6102b56104a3366004611453565b610ad6565b6104bb6104b6366004611453565b610afa565b60405161026e919061173b565b6102d56104d63660046117e2565b610b5a565b6102b56104e9366004611453565b610c19565b6102ff6104fc366004611521565b610c3d565b61035e61050f366004611453565b600660209081526000928352604080842090915290825290205460ff1681565b61055d61053d366004611453565b600860209081526000928352604080842090915290825290205460ff1681565b60405161026e91906118ba565b6102b5610578366004611453565b610c54565b6102d561058b3660046118e5565b610c78565b6102d561059e366004611551565b610c9b565b6102d56105b1366004611900565b610cc0565b61035e6105c4366004611453565b600560209081526000928352604080842090915290825290205460ff1681565b6000600160e060020a031982167f5a05180f000000000000000000000000000000000000000000000000000000001480610622575061062282610db2565b92915050565b600f6020908152600092835260408084209091529082529020805461064c90611924565b80601f016020809104026020016040519081016040528092919081815260200182805461067890611924565b80156106c55780601f1061069a576101008083540402835291602001916106c5565b820191906000526020600020905b8154815290600101906020018083116106a857829003601f168201915b505050505081565b600080516020611a948339815191526106e581610e19565b5060009182526007602090815260408084209284529190529020805460ff191660ff92909216919091179055565b600080516020611a9483398151915261072b81610e19565b5060009182526006602090815260408084209284529190529020805460ff191660ff92909216919091179055565b60008281526020819052604090206001015461077481610e19565b61077e8383610e26565b505050565b600160a060020a03811633146108095760405160e560020a62461bcd02815260206004820152602f60248201527f416363657373436f6e74726f6c3a2063616e206f6e6c792072656e6f756e636560448201527f20726f6c657320666f722073656c66000000000000000000000000000000000060648201526084015b60405180910390fd5b6108138282610e48565b5050565b600080516020611a9483398151915261082f81610e19565b8351600460ff90911611610844578351610847565b60045b60008481526005602090815260408083208684528252909120805460ff191660ff9384161790558501516004911611610884576020840151610887565b60045b600084815260066020908152604080832086845290915290819020805460ff191660ff93841617905585015160049116116108c65760408401516108c9565b60045b600093845260076020908152604080862094865293905291909220805460ff191660ff9092169190911790555050565b600080516020611a9483398151915261091181610e19565b5060009182526005602090815260408084209284529190529020805460ff191660ff92909216919091179055565b600080516020611a9483398151915261095781610e19565b6000838152600a602090815260408083208584528252909120855161097e928701906112cf565b5050505050565b601160205282600052604060002060205281600052604060002081600381106109ad57600080fd5b01805490935061064c92509050611924565b60096020908152600092835260408084209091529082529020805461064c90611924565b60008281526001602052604081206109fb9083610e6a565b9392505050565b600091825260208281526040808420600160a060020a0393909316845291905290205460ff1690565b600a6020908152600092835260408084209091529082529020805461064c90611924565b600e6020908152600092835260408084209091529082529020805461064c90611924565b600d6020908152600092835260408084209091529082529020805461064c90611924565b600080516020611a94833981519152610aaf81610e19565b60008381526009602090815260408083208584528252909120855161097e928701906112cf565b600c6020908152600092835260408084209091529082529020805461064c90611924565b610b02611353565b600083815260056020908152604080832085845282528083205460ff90811685528684526006835281842086855283528184205481168584015295835260078252808320948352939052829020549092169082015290565b600080516020611a94833981519152610b7281610e19565b6000838152600e6020908152604080832085845282529091208851610b99928a01906112cf565b506000838152600f6020908152604080832085845282529091208751610bc1928901906112cf565b50600083815260106020908152604080832085845282529091208651610be9928801906112cf565b5060008381526011602090815260408083208584529091529020610c0f90856003611371565b5050505050505050565b60106020908152600092835260408084209091529082529020805461064c90611924565b600081815260016020526040812061062290610e76565b600b6020908152600092835260408084209091529082529020805461064c90611924565b6000610c8381610e19565b610813600080516020611a9483398151915283610759565b600082815260208190526040902060010154610cb681610e19565b61077e8383610e48565b600080516020611a94833981519152610cd881610e19565b60008381526008602090815260408083208584529091529020805485919060ff19166001836006811115610d0e57610d0e6118a1565b021790555050505050565b610d238282610a02565b61081357600082815260208181526040808320600160a060020a03851684529091529020805460ff19166001179055610d593390565b600160a060020a031681600160a060020a0316837f2f8788117e7eff1d82e926ec794901d17c78024a50270940304540a733656f0d60405160405180910390a45050565b60006109fb83600160a060020a038416610e80565b6000600160e060020a031982167f7965db0b00000000000000000000000000000000000000000000000000000000148061062257507f01ffc9a700000000000000000000000000000000000000000000000000000000600160e060020a0319831614610622565b610e238133610ecf565b50565b610e308282610d19565b600082815260016020526040902061077e9082610d9d565b610e528282610f36565b600082815260016020526040902061077e9082610f9b565b60006109fb8383610fb0565b6000610622825490565b6000818152600183016020526040812054610ec757508154600181810184556000848152602080822090930184905584548482528286019093526040902091909155610622565b506000610622565b610ed98282610a02565b61081357610ef181600160a060020a03166014610fda565b610efc836020610fda565b604051602001610f0d92919061197b565b60408051601f198184030181529082905260e560020a62461bcd028252610800916004016114a5565b610f408282610a02565b1561081357600082815260208181526040808320600160a060020a0385168085529252808320805460ff1916905551339285917ff6391f5c32d9c69d2a47ea670b442974b53935d1edc7fd64eb21e047a839171b9190a45050565b60006109fb83600160a060020a0384166111dc565b6000826000018281548110610fc757610fc7611962565b9060005260206000200154905092915050565b60606000610fe9836002611a15565b610ff4906002611a34565b67ffffffffffffffff81111561100c5761100c61157d565b6040519080825280601f01601f191660200182016040528015611036576020820181803683370190505b5090507f30000000000000000000000000000000000000000000000000000000000000008160008151811061106d5761106d611962565b6020010190600160f860020a031916908160001a9053507f7800000000000000000000000000000000000000000000000000000000000000816001815181106110b8576110b8611962565b6020010190600160f860020a031916908160001a90535060006110dc846002611a15565b6110e7906001611a34565b90505b600181111561118a577f303132333435363738396162636465660000000000000000000000000000000085600f166010811061112857611128611962565b1a7f01000000000000000000000000000000000000000000000000000000000000000282828151811061115d5761115d611962565b6020010190600160f860020a031916908160001a90535060109094049361118381611a4c565b90506110ea565b5083156109fb5760405160e560020a62461bcd02815260206004820181905260248201527f537472696e67733a20686578206c656e67746820696e73756666696369656e746044820152606401610800565b600081815260018301602052604081205480156112c5576000611200600183611a63565b855490915060009061121490600190611a63565b905081811461127957600086600001828154811061123457611234611962565b906000526020600020015490508087600001848154811061125757611257611962565b6000918252602080832090910192909255918252600188019052604090208390555b855486908061128a5761128a611a7a565b600190038181906000526020600020016000905590558560010160008681526020019081526020016000206000905560019350505050610622565b6000915050610622565b8280546112db90611924565b90600052602060002090601f0160209004810192826112fd5760008555611343565b82601f1061131657805160ff1916838001178555611343565b82800160010185558215611343579182015b82811115611343578251825591602001919060010190611328565b5061134f9291506113bd565b5090565b60405180606001604052806003906020820280368337509192915050565b82600381019282156113b1579160200282015b828111156113b157825180516113a19184916020909101906112cf565b5091602001919060010190611384565b5061134f9291506113d2565b5b8082111561134f57600081556001016113be565b8082111561134f5760006113e682826113ef565b506001016113d2565b5080546113fb90611924565b6000825580601f1061140b575050565b601f016020900490600052602060002090810190610e2391906113bd565b60006020828403121561143b57600080fd5b8135600160e060020a0319811681146109fb57600080fd5b6000806040838503121561146657600080fd5b50508035926020909101359150565b60005b83811015611490578181015183820152602001611478565b8381111561149f576000848401525b50505050565b60208152600082518060208401526114c4816040850160208701611475565b601f01601f19169190910160400192915050565b803560ff811681146114e957600080fd5b919050565b60008060006060848603121561150357600080fd5b61150c846114d8565b95602085013595506040909401359392505050565b60006020828403121561153357600080fd5b5035919050565b8035600160a060020a03811681146114e957600080fd5b6000806040838503121561156457600080fd5b823591506115746020840161153a565b90509250929050565b60e060020a634e487b7102600052604160045260246000fd5b6040516060810167ffffffffffffffff811182821017156115b9576115b961157d565b60405290565b600080600060a084860312156115d457600080fd5b84601f8501126115e357600080fd5b6115eb611596565b8060608601878111156115fd57600080fd5b865b8181101561161e57611610816114d8565b8452602093840193016115ff565b5090979035965060809590950135949350505050565b600082601f83011261164557600080fd5b813567ffffffffffffffff808211156116605761166061157d565b604051601f8301601f19908116603f011681019082821181831017156116885761168861157d565b816040528381528660208588010111156116a157600080fd5b836020870160208301376000602085830101528094505050505092915050565b6000806000606084860312156116d657600080fd5b833567ffffffffffffffff8111156116ed57600080fd5b6116f986828701611634565b9660208601359650604090950135949350505050565b60008060006060848603121561172457600080fd5b505081359360208301359350604090920135919050565b60608101818360005b600381101561176657815160ff16835260209283019290910190600101611744565b50505092915050565b600082601f83011261178057600080fd5b611788611596565b80606084018581111561179a57600080fd5b845b818110156117d757803567ffffffffffffffff8111156117bc5760008081fd5b6117c888828901611634565b8552506020938401930161179c565b509095945050505050565b60008060008060008060c087890312156117fb57600080fd5b863567ffffffffffffffff8082111561181357600080fd5b61181f8a838b01611634565b9750602089013591508082111561183557600080fd5b6118418a838b01611634565b9650604089013591508082111561185757600080fd5b6118638a838b01611634565b9550606089013591508082111561187957600080fd5b5061188689828a0161176f565b9350506080870135915060a087013590509295509295509295565b60e060020a634e487b7102600052602160045260246000fd5b60208101600783106118df5760e060020a634e487b7102600052602160045260246000fd5b91905290565b6000602082840312156118f757600080fd5b6109fb8261153a565b60008060006060848603121561191557600080fd5b83356007811061150c57600080fd5b60028104600182168061193857607f821691505b6020821081141561195c5760e060020a634e487b7102600052602260045260246000fd5b50919050565b60e060020a634e487b7102600052603260045260246000fd5b7f416363657373436f6e74726f6c3a206163636f756e74200000000000000000008152600083516119b3816017850160208801611475565b7f206973206d697373696e6720726f6c652000000000000000000000000000000060179184019182015283516119f0816028840160208801611475565b01602801949350505050565b60e060020a634e487b7102600052601160045260246000fd5b6000816000190483118215151615611a2f57611a2f6119fc565b500290565b60008219821115611a4757611a476119fc565b500190565b600081611a5b57611a5b6119fc565b506000190190565b600082821015611a7557611a756119fc565b500390565b60e060020a634e487b7102600052603160045260246000fdfe80e2196015fc06a9d891759f8e4f51eb314ef5e9ea068528a8ed0063b87759f0a264697066735822122035cb8e5932f866bd1ba9a9045c37b6a7f404944dd63b4ef5e12925085559ce3f64736f6c634300080b0033",
  "immutableReferences": {},
  "source": "// SPDX-License-Identifier: GPL-3.0\npragma solidity >=0.7.0 <0.9.0;\n\nimport \"@openzeppelin/contracts/access/AccessControlEnumerable.sol\";\n\ncontract CharacterCard is AccessControlEnumerable {\n    enum Action {\n        Idle,\n        Move,\n        SetupCamp,\n        BreakDownCamp,\n        Dig,\n        Rest,\n        Help\n    }\n\n    bytes32 public constant VERIFIED_CONTROLLER_ROLE =\n        keccak256(\"VERIFIED_CONTROLLER_ROLE\");\n    uint8 constant MAX_MOVEMENT = 4;\n    uint8 constant MAX_AGILITY = 4;\n    uint8 constant MAX_DEXTERITY = 4;\n\n    address public itemToken;\n    address public artifactToken;\n    address public relicToken;\n    // game id => player ID\n    mapping(uint256 => mapping(uint256 => uint8)) public movement;\n    mapping(uint256 => mapping(uint256 => uint8)) public agility;\n    mapping(uint256 => mapping(uint256 => uint8)) public dexterity;\n    mapping(uint256 => mapping(uint256 => Action)) public action; // set to enumerated list\n    //// the following assign a token type, player must still hold balance to use item\n    mapping(uint256 => mapping(uint256 => string)) public leftHandItem;\n    mapping(uint256 => mapping(uint256 => string)) public rightHandItem;\n    mapping(uint256 => mapping(uint256 => string)) public artifact;\n    mapping(uint256 => mapping(uint256 => string)) public status;\n    mapping(uint256 => mapping(uint256 => string)) public relic;\n    // results of current action\n    mapping(uint256 => mapping(uint256 => string)) public activeActionCardType;\n    mapping(uint256 => mapping(uint256 => string)) public activeActionCardDrawn;\n    mapping(uint256 => mapping(uint256 => string))\n        public activeActionCardResult;\n    mapping(uint256 => mapping(uint256 => string[3]))\n        public activeActionCardInventoryChanges;\n\n    constructor(\n        address itemTokenAddress,\n        address artifactTokenAddress,\n        address relicTokenAddress\n    ) {\n        _setupRole(DEFAULT_ADMIN_ROLE, _msgSender());\n        itemToken = itemTokenAddress;\n        artifactToken = artifactTokenAddress;\n        relicToken = relicTokenAddress;\n    }\n\n    function addVerifiedController(address controllerAddress)\n        public\n        onlyRole(DEFAULT_ADMIN_ROLE)\n    {\n        grantRole(VERIFIED_CONTROLLER_ROLE, controllerAddress);\n    }\n\n    function getStats(uint256 gameID, uint256 playerID)\n        public\n        view\n        returns (uint8[3] memory stats)\n    {\n        stats[0] = movement[gameID][playerID];\n        stats[1] = agility[gameID][playerID];\n        stats[2] = dexterity[gameID][playerID];\n    }\n\n    function setStats(\n        uint8[3] memory stats,\n        uint256 gameID,\n        uint256 playerID\n    ) external onlyRole(VERIFIED_CONTROLLER_ROLE) {\n        // set all stats at once [movement, agility, dexterity]\n        movement[gameID][playerID] = stats[0] > MAX_MOVEMENT\n            ? MAX_MOVEMENT\n            : stats[0];\n        agility[gameID][playerID] = stats[1] > MAX_AGILITY\n            ? MAX_AGILITY\n            : stats[1];\n        dexterity[gameID][playerID] = stats[2] > MAX_DEXTERITY\n            ? MAX_DEXTERITY\n            : stats[2];\n    }\n\n    function setMovement(\n        uint8 movementValue,\n        uint256 gameID,\n        uint256 playerID\n    ) external onlyRole(VERIFIED_CONTROLLER_ROLE) {\n        movement[gameID][playerID] = movementValue;\n    }\n\n    function setAgility(\n        uint8 agilityValue,\n        uint256 gameID,\n        uint256 playerID\n    ) external onlyRole(VERIFIED_CONTROLLER_ROLE) {\n        agility[gameID][playerID] = agilityValue;\n    }\n\n    function setDexterity(\n        uint8 dexterityValue,\n        uint256 gameID,\n        uint256 playerID\n    ) external onlyRole(VERIFIED_CONTROLLER_ROLE) {\n        dexterity[gameID][playerID] = dexterityValue;\n    }\n\n    function setLeftHandItem(\n        string memory itemTokenType,\n        uint256 gameID,\n        uint256 playerID\n    ) external onlyRole(VERIFIED_CONTROLLER_ROLE) {\n        leftHandItem[gameID][playerID] = itemTokenType;\n    }\n\n    function setRightHandItem(\n        string memory itemTokenType,\n        uint256 gameID,\n        uint256 playerID\n    ) external onlyRole(VERIFIED_CONTROLLER_ROLE) {\n        rightHandItem[gameID][playerID] = itemTokenType;\n    }\n\n    function setArtifact(\n        string memory itemTokenType,\n        uint256 gameID,\n        uint256 playerID\n    ) external onlyRole(VERIFIED_CONTROLLER_ROLE) {\n        rightHandItem[gameID][playerID] = itemTokenType;\n    }\n\n    function setStatus(\n        string memory itemTokenType,\n        uint256 gameID,\n        uint256 playerID\n    ) external onlyRole(VERIFIED_CONTROLLER_ROLE) {\n        rightHandItem[gameID][playerID] = itemTokenType;\n    }\n\n    function setRelic(\n        string memory itemTokenType,\n        uint256 gameID,\n        uint256 playerID\n    ) external onlyRole(VERIFIED_CONTROLLER_ROLE) {\n        rightHandItem[gameID][playerID] = itemTokenType;\n    }\n\n    function setAction(\n        Action _action,\n        uint256 gameID,\n        uint256 playerID\n    ) external onlyRole(VERIFIED_CONTROLLER_ROLE) {\n        action[gameID][playerID] = _action;\n    }\n\n    function setActionResults(\n        string memory actionCardType,\n        string memory actionCardDrawn,\n        string memory actionCardResult,\n        string[3] memory actionCardInventoryChanges,\n        uint256 gameID,\n        uint256 playerID\n    ) external onlyRole(VERIFIED_CONTROLLER_ROLE) {\n        activeActionCardType[gameID][playerID] = actionCardType;\n        activeActionCardDrawn[gameID][playerID] = actionCardDrawn;\n        activeActionCardResult[gameID][playerID] = actionCardResult;\n        activeActionCardInventoryChanges[gameID][\n            playerID\n        ] = actionCardInventoryChanges;\n    }\n}\n",
  "sourcePath": "/Users/maxmeier/Developer/Lucky Machines/hexploration/contracts/state/CharacterCard.sol",
  "compiler": {
    "name": "solc",
    "version": "0.8.11+commit.d7f03943.Emscripten.clang"
  },
  "schemaVersion": "3.4.4",
  "updatedAt": "2022-06-16T19:26:05.809Z",
  "networkType": "ethereum",
  "devdoc": {
    "kind": "dev",
    "methods": {
      "getRoleAdmin(bytes32)": {
        "details": "Returns the admin role that controls `role`. See {grantRole} and {revokeRole}. To change a role's admin, use {_setRoleAdmin}."
      },
      "getRoleMember(bytes32,uint256)": {
        "details": "Returns one of the accounts that have `role`. `index` must be a value between 0 and {getRoleMemberCount}, non-inclusive. Role bearers are not sorted in any particular way, and their ordering may change at any point. WARNING: When using {getRoleMember} and {getRoleMemberCount}, make sure you perform all queries on the same block. See the following https://forum.openzeppelin.com/t/iterating-over-elements-on-enumerableset-in-openzeppelin-contracts/2296[forum post] for more information."
      },
      "getRoleMemberCount(bytes32)": {
        "details": "Returns the number of accounts that have `role`. Can be used together with {getRoleMember} to enumerate all bearers of a role."
      },
      "grantRole(bytes32,address)": {
        "details": "Grants `role` to `account`. If `account` had not been already granted `role`, emits a {RoleGranted} event. Requirements: - the caller must have ``role``'s admin role."
      },
      "hasRole(bytes32,address)": {
        "details": "Returns `true` if `account` has been granted `role`."
      },
      "renounceRole(bytes32,address)": {
        "details": "Revokes `role` from the calling account. Roles are often managed via {grantRole} and {revokeRole}: this function's purpose is to provide a mechanism for accounts to lose their privileges if they are compromised (such as when a trusted device is misplaced). If the calling account had been revoked `role`, emits a {RoleRevoked} event. Requirements: - the caller must be `account`."
      },
      "revokeRole(bytes32,address)": {
        "details": "Revokes `role` from `account`. If `account` had been granted `role`, emits a {RoleRevoked} event. Requirements: - the caller must have ``role``'s admin role."
      },
      "supportsInterface(bytes4)": {
        "details": "See {IERC165-supportsInterface}."
      }
    },
    "version": 1
  },
  "userdoc": {
    "kind": "user",
    "methods": {},
    "version": 1
  }
}