{
  "contractName": "CharacterCard",
  "abi": [
    {
      "inputs": [
        {
          "internalType": "address",
          "name": "itemTokenAddress",
          "type": "address"
        },
        {
          "internalType": "address",
          "name": "artifactTokenAddress",
          "type": "address"
        },
        {
          "internalType": "address",
          "name": "relicTokenAddress",
          "type": "address"
        }
      ],
      "stateMutability": "nonpayable",
      "type": "constructor"
    },
    {
      "anonymous": false,
      "inputs": [
        {
          "indexed": true,
          "internalType": "bytes32",
          "name": "role",
          "type": "bytes32"
        },
        {
          "indexed": true,
          "internalType": "bytes32",
          "name": "previousAdminRole",
          "type": "bytes32"
        },
        {
          "indexed": true,
          "internalType": "bytes32",
          "name": "newAdminRole",
          "type": "bytes32"
        }
      ],
      "name": "RoleAdminChanged",
      "type": "event"
    },
    {
      "anonymous": false,
      "inputs": [
        {
          "indexed": true,
          "internalType": "bytes32",
          "name": "role",
          "type": "bytes32"
        },
        {
          "indexed": true,
          "internalType": "address",
          "name": "account",
          "type": "address"
        },
        {
          "indexed": true,
          "internalType": "address",
          "name": "sender",
          "type": "address"
        }
      ],
      "name": "RoleGranted",
      "type": "event"
    },
    {
      "anonymous": false,
      "inputs": [
        {
          "indexed": true,
          "internalType": "bytes32",
          "name": "role",
          "type": "bytes32"
        },
        {
          "indexed": true,
          "internalType": "address",
          "name": "account",
          "type": "address"
        },
        {
          "indexed": true,
          "internalType": "address",
          "name": "sender",
          "type": "address"
        }
      ],
      "name": "RoleRevoked",
      "type": "event"
    },
    {
      "inputs": [],
      "name": "DEFAULT_ADMIN_ROLE",
      "outputs": [
        {
          "internalType": "bytes32",
          "name": "",
          "type": "bytes32"
        }
      ],
      "stateMutability": "view",
      "type": "function",
      "constant": true
    },
    {
      "inputs": [],
      "name": "VERIFIED_CONTROLLER_ROLE",
      "outputs": [
        {
          "internalType": "bytes32",
          "name": "",
          "type": "bytes32"
        }
      ],
      "stateMutability": "view",
      "type": "function",
      "constant": true
    },
    {
      "inputs": [
        {
          "internalType": "uint256",
          "name": "",
          "type": "uint256"
        },
        {
          "internalType": "address",
          "name": "",
          "type": "address"
        }
      ],
      "name": "action",
      "outputs": [
        {
          "internalType": "enum CharacterCard.Action",
          "name": "",
          "type": "uint8"
        }
      ],
      "stateMutability": "view",
      "type": "function",
      "constant": true
    },
    {
      "inputs": [
        {
          "internalType": "uint256",
          "name": "",
          "type": "uint256"
        },
        {
          "internalType": "address",
          "name": "",
          "type": "address"
        }
      ],
      "name": "agility",
      "outputs": [
        {
          "internalType": "uint8",
          "name": "",
          "type": "uint8"
        }
      ],
      "stateMutability": "view",
      "type": "function",
      "constant": true
    },
    {
      "inputs": [
        {
          "internalType": "uint256",
          "name": "",
          "type": "uint256"
        },
        {
          "internalType": "address",
          "name": "",
          "type": "address"
        }
      ],
      "name": "artifact",
      "outputs": [
        {
          "internalType": "string",
          "name": "",
          "type": "string"
        }
      ],
      "stateMutability": "view",
      "type": "function",
      "constant": true
    },
    {
      "inputs": [],
      "name": "artifactToken",
      "outputs": [
        {
          "internalType": "address",
          "name": "",
          "type": "address"
        }
      ],
      "stateMutability": "view",
      "type": "function",
      "constant": true
    },
    {
      "inputs": [
        {
          "internalType": "uint256",
          "name": "",
          "type": "uint256"
        },
        {
          "internalType": "address",
          "name": "",
          "type": "address"
        }
      ],
      "name": "dexterity",
      "outputs": [
        {
          "internalType": "uint8",
          "name": "",
          "type": "uint8"
        }
      ],
      "stateMutability": "view",
      "type": "function",
      "constant": true
    },
    {
      "inputs": [
        {
          "internalType": "bytes32",
          "name": "role",
          "type": "bytes32"
        }
      ],
      "name": "getRoleAdmin",
      "outputs": [
        {
          "internalType": "bytes32",
          "name": "",
          "type": "bytes32"
        }
      ],
      "stateMutability": "view",
      "type": "function",
      "constant": true
    },
    {
      "inputs": [
        {
          "internalType": "bytes32",
          "name": "role",
          "type": "bytes32"
        },
        {
          "internalType": "uint256",
          "name": "index",
          "type": "uint256"
        }
      ],
      "name": "getRoleMember",
      "outputs": [
        {
          "internalType": "address",
          "name": "",
          "type": "address"
        }
      ],
      "stateMutability": "view",
      "type": "function",
      "constant": true
    },
    {
      "inputs": [
        {
          "internalType": "bytes32",
          "name": "role",
          "type": "bytes32"
        }
      ],
      "name": "getRoleMemberCount",
      "outputs": [
        {
          "internalType": "uint256",
          "name": "",
          "type": "uint256"
        }
      ],
      "stateMutability": "view",
      "type": "function",
      "constant": true
    },
    {
      "inputs": [
        {
          "internalType": "bytes32",
          "name": "role",
          "type": "bytes32"
        },
        {
          "internalType": "address",
          "name": "account",
          "type": "address"
        }
      ],
      "name": "grantRole",
      "outputs": [],
      "stateMutability": "nonpayable",
      "type": "function"
    },
    {
      "inputs": [
        {
          "internalType": "bytes32",
          "name": "role",
          "type": "bytes32"
        },
        {
          "internalType": "address",
          "name": "account",
          "type": "address"
        }
      ],
      "name": "hasRole",
      "outputs": [
        {
          "internalType": "bool",
          "name": "",
          "type": "bool"
        }
      ],
      "stateMutability": "view",
      "type": "function",
      "constant": true
    },
    {
      "inputs": [],
      "name": "itemToken",
      "outputs": [
        {
          "internalType": "address",
          "name": "",
          "type": "address"
        }
      ],
      "stateMutability": "view",
      "type": "function",
      "constant": true
    },
    {
      "inputs": [
        {
          "internalType": "uint256",
          "name": "",
          "type": "uint256"
        },
        {
          "internalType": "address",
          "name": "",
          "type": "address"
        }
      ],
      "name": "leftHandItem",
      "outputs": [
        {
          "internalType": "string",
          "name": "",
          "type": "string"
        }
      ],
      "stateMutability": "view",
      "type": "function",
      "constant": true
    },
    {
      "inputs": [
        {
          "internalType": "uint256",
          "name": "",
          "type": "uint256"
        },
        {
          "internalType": "address",
          "name": "",
          "type": "address"
        }
      ],
      "name": "movement",
      "outputs": [
        {
          "internalType": "uint8",
          "name": "",
          "type": "uint8"
        }
      ],
      "stateMutability": "view",
      "type": "function",
      "constant": true
    },
    {
      "inputs": [
        {
          "internalType": "uint256",
          "name": "",
          "type": "uint256"
        },
        {
          "internalType": "address",
          "name": "",
          "type": "address"
        }
      ],
      "name": "relic",
      "outputs": [
        {
          "internalType": "string",
          "name": "",
          "type": "string"
        }
      ],
      "stateMutability": "view",
      "type": "function",
      "constant": true
    },
    {
      "inputs": [],
      "name": "relicToken",
      "outputs": [
        {
          "internalType": "address",
          "name": "",
          "type": "address"
        }
      ],
      "stateMutability": "view",
      "type": "function",
      "constant": true
    },
    {
      "inputs": [
        {
          "internalType": "bytes32",
          "name": "role",
          "type": "bytes32"
        },
        {
          "internalType": "address",
          "name": "account",
          "type": "address"
        }
      ],
      "name": "renounceRole",
      "outputs": [],
      "stateMutability": "nonpayable",
      "type": "function"
    },
    {
      "inputs": [
        {
          "internalType": "bytes32",
          "name": "role",
          "type": "bytes32"
        },
        {
          "internalType": "address",
          "name": "account",
          "type": "address"
        }
      ],
      "name": "revokeRole",
      "outputs": [],
      "stateMutability": "nonpayable",
      "type": "function"
    },
    {
      "inputs": [
        {
          "internalType": "uint256",
          "name": "",
          "type": "uint256"
        },
        {
          "internalType": "address",
          "name": "",
          "type": "address"
        }
      ],
      "name": "rightHandItem",
      "outputs": [
        {
          "internalType": "string",
          "name": "",
          "type": "string"
        }
      ],
      "stateMutability": "view",
      "type": "function",
      "constant": true
    },
    {
      "inputs": [
        {
          "internalType": "uint256",
          "name": "",
          "type": "uint256"
        },
        {
          "internalType": "address",
          "name": "",
          "type": "address"
        }
      ],
      "name": "status",
      "outputs": [
        {
          "internalType": "string",
          "name": "",
          "type": "string"
        }
      ],
      "stateMutability": "view",
      "type": "function",
      "constant": true
    },
    {
      "inputs": [
        {
          "internalType": "bytes4",
          "name": "interfaceId",
          "type": "bytes4"
        }
      ],
      "name": "supportsInterface",
      "outputs": [
        {
          "internalType": "bool",
          "name": "",
          "type": "bool"
        }
      ],
      "stateMutability": "view",
      "type": "function",
      "constant": true
    },
    {
      "inputs": [
        {
          "internalType": "address",
          "name": "controllerAddress",
          "type": "address"
        }
      ],
      "name": "addVerifiedController",
      "outputs": [],
      "stateMutability": "nonpayable",
      "type": "function"
    },
    {
      "inputs": [
        {
          "internalType": "uint8[3]",
          "name": "stats",
          "type": "uint8[3]"
        },
        {
          "internalType": "uint256",
          "name": "gameID",
          "type": "uint256"
        },
        {
          "internalType": "address",
          "name": "playerAddress",
          "type": "address"
        }
      ],
      "name": "setStats",
      "outputs": [],
      "stateMutability": "nonpayable",
      "type": "function"
    },
    {
      "inputs": [
        {
          "internalType": "uint8",
          "name": "movementValue",
          "type": "uint8"
        },
        {
          "internalType": "uint256",
          "name": "gameID",
          "type": "uint256"
        },
        {
          "internalType": "address",
          "name": "playerAddress",
          "type": "address"
        }
      ],
      "name": "setMovement",
      "outputs": [],
      "stateMutability": "nonpayable",
      "type": "function"
    },
    {
      "inputs": [
        {
          "internalType": "uint8",
          "name": "agilityValue",
          "type": "uint8"
        },
        {
          "internalType": "uint256",
          "name": "gameID",
          "type": "uint256"
        },
        {
          "internalType": "address",
          "name": "playerAddress",
          "type": "address"
        }
      ],
      "name": "setAgility",
      "outputs": [],
      "stateMutability": "nonpayable",
      "type": "function"
    },
    {
      "inputs": [
        {
          "internalType": "uint8",
          "name": "dexterityValue",
          "type": "uint8"
        },
        {
          "internalType": "uint256",
          "name": "gameID",
          "type": "uint256"
        },
        {
          "internalType": "address",
          "name": "playerAddress",
          "type": "address"
        }
      ],
      "name": "setDexterity",
      "outputs": [],
      "stateMutability": "nonpayable",
      "type": "function"
    },
    {
      "inputs": [
        {
          "internalType": "string",
          "name": "itemTokenType",
          "type": "string"
        },
        {
          "internalType": "uint256",
          "name": "gameID",
          "type": "uint256"
        },
        {
          "internalType": "address",
          "name": "playerAddress",
          "type": "address"
        }
      ],
      "name": "setLeftHandItem",
      "outputs": [],
      "stateMutability": "nonpayable",
      "type": "function"
    },
    {
      "inputs": [
        {
          "internalType": "string",
          "name": "itemTokenType",
          "type": "string"
        },
        {
          "internalType": "uint256",
          "name": "gameID",
          "type": "uint256"
        },
        {
          "internalType": "address",
          "name": "playerAddress",
          "type": "address"
        }
      ],
      "name": "setRightHandItem",
      "outputs": [],
      "stateMutability": "nonpayable",
      "type": "function"
    },
    {
      "inputs": [
        {
          "internalType": "string",
          "name": "itemTokenType",
          "type": "string"
        },
        {
          "internalType": "uint256",
          "name": "gameID",
          "type": "uint256"
        },
        {
          "internalType": "address",
          "name": "playerAddress",
          "type": "address"
        }
      ],
      "name": "setArtifact",
      "outputs": [],
      "stateMutability": "nonpayable",
      "type": "function"
    },
    {
      "inputs": [
        {
          "internalType": "string",
          "name": "itemTokenType",
          "type": "string"
        },
        {
          "internalType": "uint256",
          "name": "gameID",
          "type": "uint256"
        },
        {
          "internalType": "address",
          "name": "playerAddress",
          "type": "address"
        }
      ],
      "name": "setStatus",
      "outputs": [],
      "stateMutability": "nonpayable",
      "type": "function"
    },
    {
      "inputs": [
        {
          "internalType": "string",
          "name": "itemTokenType",
          "type": "string"
        },
        {
          "internalType": "uint256",
          "name": "gameID",
          "type": "uint256"
        },
        {
          "internalType": "address",
          "name": "playerAddress",
          "type": "address"
        }
      ],
      "name": "setRelic",
      "outputs": [],
      "stateMutability": "nonpayable",
      "type": "function"
    },
    {
      "inputs": [
        {
          "internalType": "enum CharacterCard.Action",
          "name": "_action",
          "type": "uint8"
        },
        {
          "internalType": "uint256",
          "name": "gameID",
          "type": "uint256"
        },
        {
          "internalType": "address",
          "name": "playerAddress",
          "type": "address"
        }
      ],
      "name": "setAction",
      "outputs": [],
      "stateMutability": "nonpayable",
      "type": "function"
    }
  ],
  "bytecode": "0x60806040523480156200001157600080fd5b50604051620019703803806200197083398101604081905262000034916200027e565b6200005c60006200004d6401000000006200009f810204565b640100000000620000a3810204565b60028054600160a060020a03948516600160a060020a031991821617909155600380549385169382169390931790925560048054919093169116179055620002c8565b3390565b620000b88282640100000000620000bc810204565b5050565b620000d6828264010000000062000aad6200010382021704565b6000828152600160205260409020620000fe908264010000000062000b316200019f82021704565b505050565b620001188282640100000000620001c8810204565b620000b857600082815260208181526040808320600160a060020a03851684529091529020805460ff191660011790556200015b6401000000006200009f810204565b600160a060020a031681600160a060020a0316837f2f8788117e7eff1d82e926ec794901d17c78024a50270940304540a733656f0d60405160405180910390a45050565b6000620001bf83600160a060020a038416640100000000620001f1810204565b90505b92915050565b600091825260208281526040808420600160a060020a0393909316845291905290205460ff1690565b600062000208838364010000000062000249810204565b6200024057508154600181810184556000848152602080822090930184905584548482528286019093526040902091909155620001c2565b506000620001c2565b60009081526001919091016020526040902054151590565b8051600160a060020a03811681146200027957600080fd5b919050565b6000806000606084860312156200029457600080fd5b6200029f8462000261565b9250620002af6020850162000261565b9150620002bf6040850162000261565b90509250925092565b61169880620002d86000396000f3fe608060405234801561001057600080fd5b5060043610610218576000357c01000000000000000000000000000000000000000000000000000000009004806393e78d6211610137578063c242b6b4116100ca578063d4f5b15211610099578063d4f5b152146104b9578063d547741f146104cc578063db1698b2146104df578063f5386d70146104f2578063fdf5a31c1461050557600080fd5b8063c242b6b414610465578063c5e19b761461033f578063ca15c87314610478578063ca3189671461048b57600080fd5b8063a082936d11610106578063a082936d14610437578063a217fddf1461044a578063a2e8a89114610452578063c072f6661461033f57600080fd5b806393e78d62146103d157806397be41a6146103e4578063989c11a9146103f75780639d0e9ac31461033f57600080fd5b806354560234116101af57806385c4f91d1161017e57806385c4f91d14610385578063876d01cb146103985780639010d07c146103ab57806391d14854146103be57600080fd5b8063545602341461032c57806361cf4c801461033f5780636662537014610352578063777f54401461037257600080fd5b80632f2ff15d116101eb5780632f2ff15d146102b657806336568abe146102cb5780634af8ff27146102de5780634d23b2e61461031957600080fd5b806301ffc9a71461021d57806303936d46146102455780631c834a7f14610270578063248a9ca314610293575b600080fd5b61023061022b366004611172565b610533565b60405190151581526020015b60405180910390f35b60035461025890600160a060020a031681565b604051600160a060020a03909116815260200161023c565b61028560008051602061164383398151915281565b60405190815260200161023c565b6102856102a136600461119c565b60009081526020819052604090206001015490565b6102c96102c43660046111d1565b610577565b005b6102c96102d93660046111d1565b6105a1565b61030c6102ec3660046111d1565b600860209081526000928352604080842090915290825290205460ff1681565b60405161023c9190611216565b6102c9610327366004611252565b61064c565b6102c961033a3660046112d8565b61069d565b6102c961034d3660046112d8565b6106ec565b6103656103603660046111d1565b610734565b60405161023c91906113ae565b60025461025890600160a060020a031681565b6103656103933660046111d1565b6107d9565b60045461025890600160a060020a031681565b6102586103b93660046113e1565b6107fd565b6102306103cc3660046111d1565b61081c565b6102c96103df366004611403565b610845565b6102c96103f2366004611252565b6108a7565b6104256104053660046111d1565b600760209081526000928352604080842090915290825290205460ff1681565b60405160ff909116815260200161023c565b6103656104453660046111d1565b6108f8565b610285600081565b6103656104603660046111d1565b61091c565b6102c9610473366004611252565b610940565b61028561048636600461119c565b610991565b6104256104993660046111d1565b600660209081526000928352604080842090915290825290205460ff1681565b6102c96104c7366004611427565b6109a8565b6102c96104da3660046111d1565b6109cb565b6103656104ed3660046111d1565b6109f0565b6102c9610500366004611442565b610a14565b6104256105133660046111d1565b600560209081526000928352604080842090915290825290205460ff1681565b6000600160e060020a031982167f5a05180f000000000000000000000000000000000000000000000000000000001480610571575061057182610b46565b92915050565b60008281526020819052604090206001015461059281610bad565b61059c8383610bba565b505050565b600160a060020a038116331461063e576040517f08c379a000000000000000000000000000000000000000000000000000000000815260206004820152602f60248201527f416363657373436f6e74726f6c3a2063616e206f6e6c792072656e6f756e636560448201527f20726f6c657320666f722073656c66000000000000000000000000000000000060648201526084015b60405180910390fd5b6106488282610bdc565b5050565b60008051602061164383398151915261066481610bad565b506000918252600560209081526040808420600160a060020a0390931684529190529020805460ff90921660ff19909216919091179055565b6000805160206116438339815191526106b581610bad565b6000838152600960209081526040808320600160a060020a0386168452825290912085516106e5928701906110d9565b5050505050565b60008051602061164383398151915261070481610bad565b6000838152600a60209081526040808320600160a060020a0386168452825290912085516106e5928701906110d9565b600a60209081526000928352604080842090915290825290208054610758906114d3565b80601f0160208091040260200160405190810160405280929190818152602001828054610784906114d3565b80156107d15780601f106107a6576101008083540402835291602001916107d1565b820191906000526020600020905b8154815290600101906020018083116107b457829003601f168201915b505050505081565b600d60209081526000928352604080842090915290825290208054610758906114d3565b60008281526001602052604081206108159083610bfe565b9392505050565b600091825260208281526040808420600160a060020a0393909316845291905290205460ff1690565b60008051602061164383398151915261085d81610bad565b6000838152600860209081526040808320600160a060020a03861684529091529020805485919060ff1916600183600681111561089c5761089c6111fd565b021790555050505050565b6000805160206116438339815191526108bf81610bad565b506000918252600660209081526040808420600160a060020a0390931684529190529020805460ff90921660ff19909216919091179055565b600960209081526000928352604080842090915290825290208054610758906114d3565b600b60209081526000928352604080842090915290825290208054610758906114d3565b60008051602061164383398151915261095881610bad565b506000918252600760209081526040808420600160a060020a0390931684529190529020805460ff90921660ff19909216919091179055565b600081815260016020526040812061057190610c0a565b60006109b381610bad565b61064860008051602061164383398151915283610577565b6000828152602081905260409020600101546109e681610bad565b61059c8383610bdc565b600c60209081526000928352604080842090915290825290208054610758906114d3565b600080516020611643833981519152610a2c81610bad565b5082516000838152600560209081526040808320600160a060020a0395909516808452948252808320805460ff1990811660ff96871617909155828801518785526006845282852087865284528285208054831691871691909117905596810151958352600782528083209483529390529190912080549093169116179055565b610ab7828261081c565b61064857600082815260208181526040808320600160a060020a03851684529091529020805460ff19166001179055610aed3390565b600160a060020a031681600160a060020a0316837f2f8788117e7eff1d82e926ec794901d17c78024a50270940304540a733656f0d60405160405180910390a45050565b600061081583600160a060020a038416610c14565b6000600160e060020a031982167f7965db0b00000000000000000000000000000000000000000000000000000000148061057157507f01ffc9a700000000000000000000000000000000000000000000000000000000600160e060020a0319831614610571565b610bb78133610c63565b50565b610bc48282610aad565b600082815260016020526040902061059c9082610b31565b610be68282610ce1565b600082815260016020526040902061059c9082610d46565b60006108158383610d5b565b6000610571825490565b6000818152600183016020526040812054610c5b57508154600181810184556000848152602080822090930184905584548482528286019093526040902091909155610571565b506000610571565b610c6d828261081c565b61064857610c8581600160a060020a03166014610d85565b610c90836020610d85565b604051602001610ca192919061152a565b60408051601f19818403018152908290527f08c379a0000000000000000000000000000000000000000000000000000000008252610635916004016113ae565b610ceb828261081c565b1561064857600082815260208181526040808320600160a060020a0385168085529252808320805460ff1916905551339285917ff6391f5c32d9c69d2a47ea670b442974b53935d1edc7fd64eb21e047a839171b9190a45050565b600061081583600160a060020a038416610fe6565b6000826000018281548110610d7257610d72611511565b9060005260206000200154905092915050565b60606000610d948360026115c4565b610d9f9060026115e3565b67ffffffffffffffff811115610db757610db761128e565b6040519080825280601f01601f191660200182016040528015610de1576020820181803683370190505b5090507f300000000000000000000000000000000000000000000000000000000000000081600081518110610e1857610e18611511565b60200101907effffffffffffffffffffffffffffffffffffffffffffffffffffffffffffff1916908160001a9053507f780000000000000000000000000000000000000000000000000000000000000081600181518110610e7b57610e7b611511565b60200101907effffffffffffffffffffffffffffffffffffffffffffffffffffffffffffff1916908160001a9053506000610eb78460026115c4565b610ec29060016115e3565b90505b6001811115610f7d577f303132333435363738396162636465660000000000000000000000000000000085600f1660108110610f0357610f03611511565b1a7f010000000000000000000000000000000000000000000000000000000000000002828281518110610f3857610f38611511565b60200101907effffffffffffffffffffffffffffffffffffffffffffffffffffffffffffff1916908160001a905350601090940493610f76816115fb565b9050610ec5565b508315610815576040517f08c379a000000000000000000000000000000000000000000000000000000000815260206004820181905260248201527f537472696e67733a20686578206c656e67746820696e73756666696369656e746044820152606401610635565b600081815260018301602052604081205480156110cf57600061100a600183611612565b855490915060009061101e90600190611612565b905081811461108357600086600001828154811061103e5761103e611511565b906000526020600020015490508087600001848154811061106157611061611511565b6000918252602080832090910192909255918252600188019052604090208390555b855486908061109457611094611629565b600190038181906000526020600020016000905590558560010160008681526020019081526020016000206000905560019350505050610571565b6000915050610571565b8280546110e5906114d3565b90600052602060002090601f016020900481019282611107576000855561114d565b82601f1061112057805160ff191683800117855561114d565b8280016001018555821561114d579182015b8281111561114d578251825591602001919060010190611132565b5061115992915061115d565b5090565b5b80821115611159576000815560010161115e565b60006020828403121561118457600080fd5b8135600160e060020a03198116811461081557600080fd5b6000602082840312156111ae57600080fd5b5035919050565b8035600160a060020a03811681146111cc57600080fd5b919050565b600080604083850312156111e457600080fd5b823591506111f4602084016111b5565b90509250929050565b60e060020a634e487b7102600052602160045260246000fd5b602081016007831061123b5760e060020a634e487b7102600052602160045260246000fd5b91905290565b803560ff811681146111cc57600080fd5b60008060006060848603121561126757600080fd5b61127084611241565b925060208401359150611285604085016111b5565b90509250925092565b60e060020a634e487b7102600052604160045260246000fd5b604051601f8201601f1916810167ffffffffffffffff811182821017156112d0576112d061128e565b604052919050565b6000806000606084860312156112ed57600080fd5b833567ffffffffffffffff8082111561130557600080fd5b818601915086601f83011261131957600080fd5b813560208282111561132d5761132d61128e565b61133f601f8301601f191682016112a7565b9250818352888183860101111561135557600080fd5b8181850182850137600081838501015282965080880135955050505050611285604085016111b5565b60005b83811015611399578181015183820152602001611381565b838111156113a8576000848401525b50505050565b60208152600082518060208401526113cd81604085016020870161137e565b601f01601f19169190910160400192915050565b600080604083850312156113f457600080fd5b50508035926020909101359150565b60008060006060848603121561141857600080fd5b83356007811061127057600080fd5b60006020828403121561143957600080fd5b610815826111b5565b600080600060a0848603121561145757600080fd5b84601f85011261146657600080fd5b6040516060810181811067ffffffffffffffff821117156114895761148961128e565b60405280606086018781111561149e57600080fd5b865b818110156114bf576114b181611241565b8352602092830192016114a0565b5091945050359150611285608085016111b5565b6002810460018216806114e757607f821691505b6020821081141561150b5760e060020a634e487b7102600052602260045260246000fd5b50919050565b60e060020a634e487b7102600052603260045260246000fd5b7f416363657373436f6e74726f6c3a206163636f756e742000000000000000000081526000835161156281601785016020880161137e565b7f206973206d697373696e6720726f6c6520000000000000000000000000000000601791840191820152835161159f81602884016020880161137e565b01602801949350505050565b60e060020a634e487b7102600052601160045260246000fd5b60008160001904831182151516156115de576115de6115ab565b500290565b600082198211156115f6576115f66115ab565b500190565b60008161160a5761160a6115ab565b506000190190565b600082821015611624576116246115ab565b500390565b60e060020a634e487b7102600052603160045260246000fdfe80e2196015fc06a9d891759f8e4f51eb314ef5e9ea068528a8ed0063b87759f0a2646970667358221220bbca66fab346fecaecb7f65a722d6e31bd42b55234568ef6fd36e65f5865c09664736f6c634300080b0033",
  "immutableReferences": {},
  "source": "// SPDX-License-Identifier: GPL-3.0\npragma solidity >=0.7.0 <0.9.0;\n\nimport \"@openzeppelin/contracts/access/AccessControlEnumerable.sol\";\n\ncontract CharacterCard is AccessControlEnumerable {\n    enum Action {\n        Idle,\n        Move,\n        SetupCamp,\n        BreakDownCamp,\n        Dig,\n        Rest,\n        Help\n    }\n\n    bytes32 public constant VERIFIED_CONTROLLER_ROLE =\n        keccak256(\"VERIFIED_CONTROLLER_ROLE\");\n    uint8 constant MAX_MOVEMENT = 4;\n    uint8 constant MAX_AGILITY = 4;\n    uint8 constant MAX_DEXTERITY = 4;\n\n    address public itemToken;\n    address public artifactToken;\n    address public relicToken;\n    // game id => player address\n    mapping(uint256 => mapping(address => uint8)) public movement;\n    mapping(uint256 => mapping(address => uint8)) public agility;\n    mapping(uint256 => mapping(address => uint8)) public dexterity;\n    mapping(uint256 => mapping(address => Action)) public action; // set to enumerated list\n    //// the following assign a token type, player must still hold balance to use item\n    mapping(uint256 => mapping(address => string)) public leftHandItem;\n    mapping(uint256 => mapping(address => string)) public rightHandItem;\n    mapping(uint256 => mapping(address => string)) public artifact;\n    mapping(uint256 => mapping(address => string)) public status;\n    mapping(uint256 => mapping(address => string)) public relic;\n\n    constructor(\n        address itemTokenAddress,\n        address artifactTokenAddress,\n        address relicTokenAddress\n    ) {\n        _setupRole(DEFAULT_ADMIN_ROLE, _msgSender());\n        itemToken = itemTokenAddress;\n        artifactToken = artifactTokenAddress;\n        relicToken = relicTokenAddress;\n    }\n\n    function addVerifiedController(address controllerAddress)\n        public\n        onlyRole(DEFAULT_ADMIN_ROLE)\n    {\n        grantRole(VERIFIED_CONTROLLER_ROLE, controllerAddress);\n    }\n\n    function setStats(\n        uint8[3] memory stats,\n        uint256 gameID,\n        address playerAddress\n    ) external onlyRole(VERIFIED_CONTROLLER_ROLE) {\n        // set all stats at once [movement, agility, dexterity]\n        movement[gameID][playerAddress] = stats[0];\n        agility[gameID][playerAddress] = stats[1];\n        dexterity[gameID][playerAddress] = stats[2];\n    }\n\n    function setMovement(\n        uint8 movementValue,\n        uint256 gameID,\n        address playerAddress\n    ) external onlyRole(VERIFIED_CONTROLLER_ROLE) {\n        movement[gameID][playerAddress] = movementValue;\n    }\n\n    function setAgility(\n        uint8 agilityValue,\n        uint256 gameID,\n        address playerAddress\n    ) external onlyRole(VERIFIED_CONTROLLER_ROLE) {\n        agility[gameID][playerAddress] = agilityValue;\n    }\n\n    function setDexterity(\n        uint8 dexterityValue,\n        uint256 gameID,\n        address playerAddress\n    ) external onlyRole(VERIFIED_CONTROLLER_ROLE) {\n        dexterity[gameID][playerAddress] = dexterityValue;\n    }\n\n    function setLeftHandItem(\n        string memory itemTokenType,\n        uint256 gameID,\n        address playerAddress\n    ) external onlyRole(VERIFIED_CONTROLLER_ROLE) {\n        leftHandItem[gameID][playerAddress] = itemTokenType;\n    }\n\n    function setRightHandItem(\n        string memory itemTokenType,\n        uint256 gameID,\n        address playerAddress\n    ) external onlyRole(VERIFIED_CONTROLLER_ROLE) {\n        rightHandItem[gameID][playerAddress] = itemTokenType;\n    }\n\n    function setArtifact(\n        string memory itemTokenType,\n        uint256 gameID,\n        address playerAddress\n    ) external onlyRole(VERIFIED_CONTROLLER_ROLE) {\n        rightHandItem[gameID][playerAddress] = itemTokenType;\n    }\n\n    function setStatus(\n        string memory itemTokenType,\n        uint256 gameID,\n        address playerAddress\n    ) external onlyRole(VERIFIED_CONTROLLER_ROLE) {\n        rightHandItem[gameID][playerAddress] = itemTokenType;\n    }\n\n    function setRelic(\n        string memory itemTokenType,\n        uint256 gameID,\n        address playerAddress\n    ) external onlyRole(VERIFIED_CONTROLLER_ROLE) {\n        rightHandItem[gameID][playerAddress] = itemTokenType;\n    }\n\n    function setAction(\n        Action _action,\n        uint256 gameID,\n        address playerAddress\n    ) external onlyRole(VERIFIED_CONTROLLER_ROLE) {\n        action[gameID][playerAddress] = _action;\n    }\n}\n",
  "sourcePath": "/Users/maxmeier/Developer/Lucky Machines/hexploration/contracts/state/CharacterCard.sol",
  "compiler": {
    "name": "solc",
    "version": "0.8.11+commit.d7f03943.Emscripten.clang"
  },
  "schemaVersion": "3.4.4",
  "updatedAt": "2022-05-18T04:40:53.980Z",
  "networkType": "ethereum",
  "devdoc": {
    "kind": "dev",
    "methods": {
      "getRoleAdmin(bytes32)": {
        "details": "Returns the admin role that controls `role`. See {grantRole} and {revokeRole}. To change a role's admin, use {_setRoleAdmin}."
      },
      "getRoleMember(bytes32,uint256)": {
        "details": "Returns one of the accounts that have `role`. `index` must be a value between 0 and {getRoleMemberCount}, non-inclusive. Role bearers are not sorted in any particular way, and their ordering may change at any point. WARNING: When using {getRoleMember} and {getRoleMemberCount}, make sure you perform all queries on the same block. See the following https://forum.openzeppelin.com/t/iterating-over-elements-on-enumerableset-in-openzeppelin-contracts/2296[forum post] for more information."
      },
      "getRoleMemberCount(bytes32)": {
        "details": "Returns the number of accounts that have `role`. Can be used together with {getRoleMember} to enumerate all bearers of a role."
      },
      "grantRole(bytes32,address)": {
        "details": "Grants `role` to `account`. If `account` had not been already granted `role`, emits a {RoleGranted} event. Requirements: - the caller must have ``role``'s admin role."
      },
      "hasRole(bytes32,address)": {
        "details": "Returns `true` if `account` has been granted `role`."
      },
      "renounceRole(bytes32,address)": {
        "details": "Revokes `role` from the calling account. Roles are often managed via {grantRole} and {revokeRole}: this function's purpose is to provide a mechanism for accounts to lose their privileges if they are compromised (such as when a trusted device is misplaced). If the calling account had been revoked `role`, emits a {RoleRevoked} event. Requirements: - the caller must be `account`."
      },
      "revokeRole(bytes32,address)": {
        "details": "Revokes `role` from `account`. If `account` had been granted `role`, emits a {RoleRevoked} event. Requirements: - the caller must have ``role``'s admin role."
      },
      "supportsInterface(bytes4)": {
        "details": "See {IERC165-supportsInterface}."
      }
    },
    "version": 1
  },
  "userdoc": {
    "kind": "user",
    "methods": {},
    "version": 1
  }
}