{
  "contractName": "CharacterCard",
  "abi": [
    {
      "inputs": [
        {
          "internalType": "address",
          "name": "itemTokenAddress",
          "type": "address"
        },
        {
          "internalType": "address",
          "name": "artifactTokenAddress",
          "type": "address"
        },
        {
          "internalType": "address",
          "name": "relicTokenAddress",
          "type": "address"
        }
      ],
      "stateMutability": "nonpayable",
      "type": "constructor"
    },
    {
      "anonymous": false,
      "inputs": [
        {
          "indexed": true,
          "internalType": "bytes32",
          "name": "role",
          "type": "bytes32"
        },
        {
          "indexed": true,
          "internalType": "bytes32",
          "name": "previousAdminRole",
          "type": "bytes32"
        },
        {
          "indexed": true,
          "internalType": "bytes32",
          "name": "newAdminRole",
          "type": "bytes32"
        }
      ],
      "name": "RoleAdminChanged",
      "type": "event"
    },
    {
      "anonymous": false,
      "inputs": [
        {
          "indexed": true,
          "internalType": "bytes32",
          "name": "role",
          "type": "bytes32"
        },
        {
          "indexed": true,
          "internalType": "address",
          "name": "account",
          "type": "address"
        },
        {
          "indexed": true,
          "internalType": "address",
          "name": "sender",
          "type": "address"
        }
      ],
      "name": "RoleGranted",
      "type": "event"
    },
    {
      "anonymous": false,
      "inputs": [
        {
          "indexed": true,
          "internalType": "bytes32",
          "name": "role",
          "type": "bytes32"
        },
        {
          "indexed": true,
          "internalType": "address",
          "name": "account",
          "type": "address"
        },
        {
          "indexed": true,
          "internalType": "address",
          "name": "sender",
          "type": "address"
        }
      ],
      "name": "RoleRevoked",
      "type": "event"
    },
    {
      "inputs": [],
      "name": "DEFAULT_ADMIN_ROLE",
      "outputs": [
        {
          "internalType": "bytes32",
          "name": "",
          "type": "bytes32"
        }
      ],
      "stateMutability": "view",
      "type": "function",
      "constant": true
    },
    {
      "inputs": [],
      "name": "VERIFIED_CONTROLLER_ROLE",
      "outputs": [
        {
          "internalType": "bytes32",
          "name": "",
          "type": "bytes32"
        }
      ],
      "stateMutability": "view",
      "type": "function",
      "constant": true
    },
    {
      "inputs": [
        {
          "internalType": "uint256",
          "name": "",
          "type": "uint256"
        },
        {
          "internalType": "uint256",
          "name": "",
          "type": "uint256"
        }
      ],
      "name": "action",
      "outputs": [
        {
          "internalType": "enum CharacterCard.Action",
          "name": "",
          "type": "uint8"
        }
      ],
      "stateMutability": "view",
      "type": "function",
      "constant": true
    },
    {
      "inputs": [
        {
          "internalType": "uint256",
          "name": "",
          "type": "uint256"
        },
        {
          "internalType": "uint256",
          "name": "",
          "type": "uint256"
        }
      ],
      "name": "activeActionCardDrawn",
      "outputs": [
        {
          "internalType": "string",
          "name": "",
          "type": "string"
        }
      ],
      "stateMutability": "view",
      "type": "function",
      "constant": true
    },
    {
      "inputs": [
        {
          "internalType": "uint256",
          "name": "",
          "type": "uint256"
        },
        {
          "internalType": "uint256",
          "name": "",
          "type": "uint256"
        },
        {
          "internalType": "uint256",
          "name": "",
          "type": "uint256"
        }
      ],
      "name": "activeActionCardInventoryChanges",
      "outputs": [
        {
          "internalType": "string",
          "name": "",
          "type": "string"
        }
      ],
      "stateMutability": "view",
      "type": "function",
      "constant": true
    },
    {
      "inputs": [
        {
          "internalType": "uint256",
          "name": "",
          "type": "uint256"
        },
        {
          "internalType": "uint256",
          "name": "",
          "type": "uint256"
        }
      ],
      "name": "activeActionCardResult",
      "outputs": [
        {
          "internalType": "string",
          "name": "",
          "type": "string"
        }
      ],
      "stateMutability": "view",
      "type": "function",
      "constant": true
    },
    {
      "inputs": [
        {
          "internalType": "uint256",
          "name": "",
          "type": "uint256"
        },
        {
          "internalType": "uint256",
          "name": "",
          "type": "uint256"
        }
      ],
      "name": "activeActionCardType",
      "outputs": [
        {
          "internalType": "string",
          "name": "",
          "type": "string"
        }
      ],
      "stateMutability": "view",
      "type": "function",
      "constant": true
    },
    {
      "inputs": [
        {
          "internalType": "uint256",
          "name": "",
          "type": "uint256"
        },
        {
          "internalType": "uint256",
          "name": "",
          "type": "uint256"
        }
      ],
      "name": "agility",
      "outputs": [
        {
          "internalType": "uint8",
          "name": "",
          "type": "uint8"
        }
      ],
      "stateMutability": "view",
      "type": "function",
      "constant": true
    },
    {
      "inputs": [
        {
          "internalType": "uint256",
          "name": "",
          "type": "uint256"
        },
        {
          "internalType": "uint256",
          "name": "",
          "type": "uint256"
        }
      ],
      "name": "artifact",
      "outputs": [
        {
          "internalType": "string",
          "name": "",
          "type": "string"
        }
      ],
      "stateMutability": "view",
      "type": "function",
      "constant": true
    },
    {
      "inputs": [],
      "name": "artifactToken",
      "outputs": [
        {
          "internalType": "address",
          "name": "",
          "type": "address"
        }
      ],
      "stateMutability": "view",
      "type": "function",
      "constant": true
    },
    {
      "inputs": [
        {
          "internalType": "uint256",
          "name": "",
          "type": "uint256"
        },
        {
          "internalType": "uint256",
          "name": "",
          "type": "uint256"
        }
      ],
      "name": "dexterity",
      "outputs": [
        {
          "internalType": "uint8",
          "name": "",
          "type": "uint8"
        }
      ],
      "stateMutability": "view",
      "type": "function",
      "constant": true
    },
    {
      "inputs": [
        {
          "internalType": "bytes32",
          "name": "role",
          "type": "bytes32"
        }
      ],
      "name": "getRoleAdmin",
      "outputs": [
        {
          "internalType": "bytes32",
          "name": "",
          "type": "bytes32"
        }
      ],
      "stateMutability": "view",
      "type": "function",
      "constant": true
    },
    {
      "inputs": [
        {
          "internalType": "bytes32",
          "name": "role",
          "type": "bytes32"
        },
        {
          "internalType": "uint256",
          "name": "index",
          "type": "uint256"
        }
      ],
      "name": "getRoleMember",
      "outputs": [
        {
          "internalType": "address",
          "name": "",
          "type": "address"
        }
      ],
      "stateMutability": "view",
      "type": "function",
      "constant": true
    },
    {
      "inputs": [
        {
          "internalType": "bytes32",
          "name": "role",
          "type": "bytes32"
        }
      ],
      "name": "getRoleMemberCount",
      "outputs": [
        {
          "internalType": "uint256",
          "name": "",
          "type": "uint256"
        }
      ],
      "stateMutability": "view",
      "type": "function",
      "constant": true
    },
    {
      "inputs": [
        {
          "internalType": "bytes32",
          "name": "role",
          "type": "bytes32"
        },
        {
          "internalType": "address",
          "name": "account",
          "type": "address"
        }
      ],
      "name": "grantRole",
      "outputs": [],
      "stateMutability": "nonpayable",
      "type": "function"
    },
    {
      "inputs": [
        {
          "internalType": "bytes32",
          "name": "role",
          "type": "bytes32"
        },
        {
          "internalType": "address",
          "name": "account",
          "type": "address"
        }
      ],
      "name": "hasRole",
      "outputs": [
        {
          "internalType": "bool",
          "name": "",
          "type": "bool"
        }
      ],
      "stateMutability": "view",
      "type": "function",
      "constant": true
    },
    {
      "inputs": [],
      "name": "itemToken",
      "outputs": [
        {
          "internalType": "address",
          "name": "",
          "type": "address"
        }
      ],
      "stateMutability": "view",
      "type": "function",
      "constant": true
    },
    {
      "inputs": [
        {
          "internalType": "uint256",
          "name": "",
          "type": "uint256"
        },
        {
          "internalType": "uint256",
          "name": "",
          "type": "uint256"
        }
      ],
      "name": "leftHandItem",
      "outputs": [
        {
          "internalType": "string",
          "name": "",
          "type": "string"
        }
      ],
      "stateMutability": "view",
      "type": "function",
      "constant": true
    },
    {
      "inputs": [
        {
          "internalType": "uint256",
          "name": "",
          "type": "uint256"
        },
        {
          "internalType": "uint256",
          "name": "",
          "type": "uint256"
        }
      ],
      "name": "movement",
      "outputs": [
        {
          "internalType": "uint8",
          "name": "",
          "type": "uint8"
        }
      ],
      "stateMutability": "view",
      "type": "function",
      "constant": true
    },
    {
      "inputs": [
        {
          "internalType": "uint256",
          "name": "",
          "type": "uint256"
        },
        {
          "internalType": "uint256",
          "name": "",
          "type": "uint256"
        }
      ],
      "name": "relic",
      "outputs": [
        {
          "internalType": "string",
          "name": "",
          "type": "string"
        }
      ],
      "stateMutability": "view",
      "type": "function",
      "constant": true
    },
    {
      "inputs": [],
      "name": "relicToken",
      "outputs": [
        {
          "internalType": "address",
          "name": "",
          "type": "address"
        }
      ],
      "stateMutability": "view",
      "type": "function",
      "constant": true
    },
    {
      "inputs": [
        {
          "internalType": "bytes32",
          "name": "role",
          "type": "bytes32"
        },
        {
          "internalType": "address",
          "name": "account",
          "type": "address"
        }
      ],
      "name": "renounceRole",
      "outputs": [],
      "stateMutability": "nonpayable",
      "type": "function"
    },
    {
      "inputs": [
        {
          "internalType": "bytes32",
          "name": "role",
          "type": "bytes32"
        },
        {
          "internalType": "address",
          "name": "account",
          "type": "address"
        }
      ],
      "name": "revokeRole",
      "outputs": [],
      "stateMutability": "nonpayable",
      "type": "function"
    },
    {
      "inputs": [
        {
          "internalType": "uint256",
          "name": "",
          "type": "uint256"
        },
        {
          "internalType": "uint256",
          "name": "",
          "type": "uint256"
        }
      ],
      "name": "rightHandItem",
      "outputs": [
        {
          "internalType": "string",
          "name": "",
          "type": "string"
        }
      ],
      "stateMutability": "view",
      "type": "function",
      "constant": true
    },
    {
      "inputs": [
        {
          "internalType": "uint256",
          "name": "",
          "type": "uint256"
        },
        {
          "internalType": "uint256",
          "name": "",
          "type": "uint256"
        }
      ],
      "name": "status",
      "outputs": [
        {
          "internalType": "string",
          "name": "",
          "type": "string"
        }
      ],
      "stateMutability": "view",
      "type": "function",
      "constant": true
    },
    {
      "inputs": [
        {
          "internalType": "bytes4",
          "name": "interfaceId",
          "type": "bytes4"
        }
      ],
      "name": "supportsInterface",
      "outputs": [
        {
          "internalType": "bool",
          "name": "",
          "type": "bool"
        }
      ],
      "stateMutability": "view",
      "type": "function",
      "constant": true
    },
    {
      "inputs": [
        {
          "internalType": "address",
          "name": "controllerAddress",
          "type": "address"
        }
      ],
      "name": "addVerifiedController",
      "outputs": [],
      "stateMutability": "nonpayable",
      "type": "function"
    },
    {
      "inputs": [
        {
          "internalType": "uint256",
          "name": "gameID",
          "type": "uint256"
        },
        {
          "internalType": "uint256",
          "name": "playerID",
          "type": "uint256"
        }
      ],
      "name": "getStats",
      "outputs": [
        {
          "internalType": "uint8[3]",
          "name": "stats",
          "type": "uint8[3]"
        }
      ],
      "stateMutability": "view",
      "type": "function",
      "constant": true
    },
    {
      "inputs": [
        {
          "internalType": "uint8[3]",
          "name": "stats",
          "type": "uint8[3]"
        },
        {
          "internalType": "uint256",
          "name": "gameID",
          "type": "uint256"
        },
        {
          "internalType": "uint256",
          "name": "playerID",
          "type": "uint256"
        }
      ],
      "name": "setStats",
      "outputs": [],
      "stateMutability": "nonpayable",
      "type": "function"
    },
    {
      "inputs": [
        {
          "internalType": "uint8",
          "name": "movementValue",
          "type": "uint8"
        },
        {
          "internalType": "uint256",
          "name": "gameID",
          "type": "uint256"
        },
        {
          "internalType": "uint256",
          "name": "playerID",
          "type": "uint256"
        }
      ],
      "name": "setMovement",
      "outputs": [],
      "stateMutability": "nonpayable",
      "type": "function"
    },
    {
      "inputs": [
        {
          "internalType": "uint8",
          "name": "agilityValue",
          "type": "uint8"
        },
        {
          "internalType": "uint256",
          "name": "gameID",
          "type": "uint256"
        },
        {
          "internalType": "uint256",
          "name": "playerID",
          "type": "uint256"
        }
      ],
      "name": "setAgility",
      "outputs": [],
      "stateMutability": "nonpayable",
      "type": "function"
    },
    {
      "inputs": [
        {
          "internalType": "uint8",
          "name": "dexterityValue",
          "type": "uint8"
        },
        {
          "internalType": "uint256",
          "name": "gameID",
          "type": "uint256"
        },
        {
          "internalType": "uint256",
          "name": "playerID",
          "type": "uint256"
        }
      ],
      "name": "setDexterity",
      "outputs": [],
      "stateMutability": "nonpayable",
      "type": "function"
    },
    {
      "inputs": [
        {
          "internalType": "string",
          "name": "itemTokenType",
          "type": "string"
        },
        {
          "internalType": "uint256",
          "name": "gameID",
          "type": "uint256"
        },
        {
          "internalType": "uint256",
          "name": "playerID",
          "type": "uint256"
        }
      ],
      "name": "setLeftHandItem",
      "outputs": [],
      "stateMutability": "nonpayable",
      "type": "function"
    },
    {
      "inputs": [
        {
          "internalType": "string",
          "name": "itemTokenType",
          "type": "string"
        },
        {
          "internalType": "uint256",
          "name": "gameID",
          "type": "uint256"
        },
        {
          "internalType": "uint256",
          "name": "playerID",
          "type": "uint256"
        }
      ],
      "name": "setRightHandItem",
      "outputs": [],
      "stateMutability": "nonpayable",
      "type": "function"
    },
    {
      "inputs": [
        {
          "internalType": "string",
          "name": "itemTokenType",
          "type": "string"
        },
        {
          "internalType": "uint256",
          "name": "gameID",
          "type": "uint256"
        },
        {
          "internalType": "uint256",
          "name": "playerID",
          "type": "uint256"
        }
      ],
      "name": "setArtifact",
      "outputs": [],
      "stateMutability": "nonpayable",
      "type": "function"
    },
    {
      "inputs": [
        {
          "internalType": "string",
          "name": "itemTokenType",
          "type": "string"
        },
        {
          "internalType": "uint256",
          "name": "gameID",
          "type": "uint256"
        },
        {
          "internalType": "uint256",
          "name": "playerID",
          "type": "uint256"
        }
      ],
      "name": "setStatus",
      "outputs": [],
      "stateMutability": "nonpayable",
      "type": "function"
    },
    {
      "inputs": [
        {
          "internalType": "string",
          "name": "itemTokenType",
          "type": "string"
        },
        {
          "internalType": "uint256",
          "name": "gameID",
          "type": "uint256"
        },
        {
          "internalType": "uint256",
          "name": "playerID",
          "type": "uint256"
        }
      ],
      "name": "setRelic",
      "outputs": [],
      "stateMutability": "nonpayable",
      "type": "function"
    },
    {
      "inputs": [
        {
          "internalType": "enum CharacterCard.Action",
          "name": "_action",
          "type": "uint8"
        },
        {
          "internalType": "uint256",
          "name": "gameID",
          "type": "uint256"
        },
        {
          "internalType": "uint256",
          "name": "playerID",
          "type": "uint256"
        }
      ],
      "name": "setAction",
      "outputs": [],
      "stateMutability": "nonpayable",
      "type": "function"
    }
  ],
  "bytecode": "0x60806040523480156200001157600080fd5b5060405162001a9a38038062001a9a83398101604081905262000034916200027e565b6200005c60006200004d6401000000006200009f810204565b640100000000620000a3810204565b60028054600160a060020a03948516600160a060020a031991821617909155600380549385169382169390931790925560048054919093169116179055620002c8565b3390565b620000b88282640100000000620000bc810204565b5050565b620000d6828264010000000062000bd66200010382021704565b6000828152600160205260409020620000fe908264010000000062000c5a6200019f82021704565b505050565b620001188282640100000000620001c8810204565b620000b857600082815260208181526040808320600160a060020a03851684529091529020805460ff191660011790556200015b6401000000006200009f810204565b600160a060020a031681600160a060020a0316837f2f8788117e7eff1d82e926ec794901d17c78024a50270940304540a733656f0d60405160405180910390a45050565b6000620001bf83600160a060020a038416640100000000620001f1810204565b90505b92915050565b600091825260208281526040808420600160a060020a0393909316845291905290205460ff1690565b600062000208838364010000000062000249810204565b6200024057508154600181810184556000848152602080822090930184905584548482528286019093526040902091909155620001c2565b506000620001c2565b60009081526001919091016020526040902054151590565b8051600160a060020a03811681146200027957600080fd5b919050565b6000806000606084860312156200029457600080fd5b6200029f8462000261565b9250620002af6020850162000261565b9150620002bf6040850162000261565b90509250925092565b6117c280620002d86000396000f3fe608060405234801561001057600080fd5b506004361061022f576000357c0100000000000000000000000000000000000000000000000000000000900480639010d07c1161013d578063c28122a3116100d5578063d4f5b15211610099578063d4f5b1521461054f578063d547741f14610562578063dd51a3ac14610575578063e0e0a24b146103a1578063e82165951461058857600080fd5b8063c28122a3146104ad578063ca15c873146104c0578063d104563e146104d3578063d1eb505314610501578063d27ffd0d1461053c57600080fd5b80639010d07c1461040057806391d14854146104135780639c22064714610426578063a217fddf14610439578063a4a458fe14610441578063a867ef7814610454578063a895343414610467578063b3dd803a1461047a578063bb47c9b31461048d57600080fd5b806336568abe116101cb5780636f02e57b1161018f5780636f02e57b146103a1578063777f5440146103c75780637ad19589146103a15780637dcfa291146103da578063876d01cb146103ed57600080fd5b806336568abe1461036857806345b8ace51461037b5780635381ee171461038e5780635f2caa5e146103a15780636011943c146103b457600080fd5b806301ffc9a71461023457806303936d461461025c57806307afb2a014610287578063108a038c146102a7578063134f10b4146102bc5780631c834a7f146102cf578063248a9ca3146102f25780632af37e1d146103155780632f2ff15d14610355575b600080fd5b610247610242366004611243565b6105b6565b60405190151581526020015b60405180910390f35b60035461026f90600160a060020a031681565b604051600160a060020a039091168152602001610253565b61029a61029536600461126d565b6105fa565b60405161025391906112bf565b6102ba6102b5366004611308565b61069f565b005b6102ba6102ca366004611308565b6106e5565b6102e460008051602061176d83398151915281565b604051908152602001610253565b6102e461030036600461133b565b60009081526020819052604090206001015490565b61034361032336600461126d565b600760209081526000928352604080842090915290825290205460ff1681565b60405160ff9091168152602001610253565b6102ba61036336600461136b565b61072b565b6102ba61037636600461136b565b610755565b6102ba6103893660046113e1565b6107e9565b6102ba61039c366004611308565b610875565b6102ba6103af366004611474565b6108bb565b61029a6103c236600461151a565b610901565b60025461026f90600160a060020a031681565b61029a6103e836600461126d565b61093b565b60045461026f90600160a060020a031681565b61026f61040e36600461126d565b61095f565b61024761042136600461136b565b61097e565b61029a61043436600461126d565b6109a7565b6102e4600081565b61029a61044f36600461126d565b6109cb565b61029a61046236600461126d565b6109ef565b6102ba610475366004611474565b610a13565b61029a61048836600461126d565b610a52565b6104a061049b36600461126d565b610a76565b6040516102539190611546565b61029a6104bb36600461126d565b610ad6565b6102e46104ce36600461133b565b610afa565b6103436104e136600461126d565b600660209081526000928352604080842090915290825290205460ff1681565b61052f61050f36600461126d565b600860209081526000928352604080842090915290825290205460ff1681565b6040516102539190611593565b61029a61054a36600461126d565b610b11565b6102ba61055d3660046115be565b610b35565b6102ba61057036600461136b565b610b58565b6102ba6105833660046115d9565b610b7d565b61034361059636600461126d565b600560209081526000928352604080842090915290825290205460ff1681565b6000600160e060020a031982167f5a05180f0000000000000000000000000000000000000000000000000000000014806105f457506105f482610c6f565b92915050565b600f6020908152600092835260408084209091529082529020805461061e906115fd565b80601f016020809104026020016040519081016040528092919081815260200182805461064a906115fd565b80156106975780601f1061066c57610100808354040283529160200191610697565b820191906000526020600020905b81548152906001019060200180831161067a57829003601f168201915b505050505081565b60008051602061176d8339815191526106b781610cd6565b5060009182526007602090815260408084209284529190529020805460ff191660ff92909216919091179055565b60008051602061176d8339815191526106fd81610cd6565b5060009182526006602090815260408084209284529190529020805460ff191660ff92909216919091179055565b60008281526020819052604090206001015461074681610cd6565b6107508383610ce3565b505050565b600160a060020a03811633146107db5760405160e560020a62461bcd02815260206004820152602f60248201527f416363657373436f6e74726f6c3a2063616e206f6e6c792072656e6f756e636560448201527f20726f6c657320666f722073656c66000000000000000000000000000000000060648201526084015b60405180910390fd5b6107e58282610d05565b5050565b60008051602061176d83398151915261080181610cd6565b50825160008381526005602090815260408083208584528252808320805460ff1990811660ff96871617909155828801518785526006845282852087865284528285208054831691871691909117905596810151958352600782528083209483529390529190912080549093169116179055565b60008051602061176d83398151915261088d81610cd6565b5060009182526005602090815260408084209284529190529020805460ff191660ff92909216919091179055565b60008051602061176d8339815191526108d381610cd6565b6000838152600a60209081526040808320858452825290912085516108fa9287019061118c565b5050505050565b6011602052826000526040600020602052816000526040600020816003811061092957600080fd5b01805490935061061e925090506115fd565b60096020908152600092835260408084209091529082529020805461061e906115fd565b60008281526001602052604081206109779083610d27565b9392505050565b600091825260208281526040808420600160a060020a0393909316845291905290205460ff1690565b600a6020908152600092835260408084209091529082529020805461061e906115fd565b600e6020908152600092835260408084209091529082529020805461061e906115fd565b600d6020908152600092835260408084209091529082529020805461061e906115fd565b60008051602061176d833981519152610a2b81610cd6565b6000838152600960209081526040808320858452825290912085516108fa9287019061118c565b600c6020908152600092835260408084209091529082529020805461061e906115fd565b610a7e611210565b600083815260056020908152604080832085845282528083205460ff90811685528684526006835281842086855283528184205481168584015295835260078252808320948352939052829020549092169082015290565b60106020908152600092835260408084209091529082529020805461061e906115fd565b60008181526001602052604081206105f490610d33565b600b6020908152600092835260408084209091529082529020805461061e906115fd565b6000610b4081610cd6565b6107e560008051602061176d8339815191528361072b565b600082815260208190526040902060010154610b7381610cd6565b6107508383610d05565b60008051602061176d833981519152610b9581610cd6565b60008381526008602090815260408083208584529091529020805485919060ff19166001836006811115610bcb57610bcb61157a565b021790555050505050565b610be0828261097e565b6107e557600082815260208181526040808320600160a060020a03851684529091529020805460ff19166001179055610c163390565b600160a060020a031681600160a060020a0316837f2f8788117e7eff1d82e926ec794901d17c78024a50270940304540a733656f0d60405160405180910390a45050565b600061097783600160a060020a038416610d3d565b6000600160e060020a031982167f7965db0b0000000000000000000000000000000000000000000000000000000014806105f457507f01ffc9a700000000000000000000000000000000000000000000000000000000600160e060020a03198316146105f4565b610ce08133610d8c565b50565b610ced8282610bd6565b60008281526001602052604090206107509082610c5a565b610d0f8282610df3565b60008281526001602052604090206107509082610e58565b60006109778383610e6d565b60006105f4825490565b6000818152600183016020526040812054610d84575081546001818101845560008481526020808220909301849055845484825282860190935260409020919091556105f4565b5060006105f4565b610d96828261097e565b6107e557610dae81600160a060020a03166014610e97565b610db9836020610e97565b604051602001610dca929190611654565b60408051601f198184030181529082905260e560020a62461bcd0282526107d2916004016112bf565b610dfd828261097e565b156107e557600082815260208181526040808320600160a060020a0385168085529252808320805460ff1916905551339285917ff6391f5c32d9c69d2a47ea670b442974b53935d1edc7fd64eb21e047a839171b9190a45050565b600061097783600160a060020a038416611099565b6000826000018281548110610e8457610e8461163b565b9060005260206000200154905092915050565b60606000610ea68360026116ee565b610eb190600261170d565b67ffffffffffffffff811115610ec957610ec9611397565b6040519080825280601f01601f191660200182016040528015610ef3576020820181803683370190505b5090507f300000000000000000000000000000000000000000000000000000000000000081600081518110610f2a57610f2a61163b565b6020010190600160f860020a031916908160001a9053507f780000000000000000000000000000000000000000000000000000000000000081600181518110610f7557610f7561163b565b6020010190600160f860020a031916908160001a9053506000610f998460026116ee565b610fa490600161170d565b90505b6001811115611047577f303132333435363738396162636465660000000000000000000000000000000085600f1660108110610fe557610fe561163b565b1a7f01000000000000000000000000000000000000000000000000000000000000000282828151811061101a5761101a61163b565b6020010190600160f860020a031916908160001a90535060109094049361104081611725565b9050610fa7565b5083156109775760405160e560020a62461bcd02815260206004820181905260248201527f537472696e67733a20686578206c656e67746820696e73756666696369656e7460448201526064016107d2565b600081815260018301602052604081205480156111825760006110bd60018361173c565b85549091506000906110d19060019061173c565b90508181146111365760008660000182815481106110f1576110f161163b565b90600052602060002001549050808760000184815481106111145761111461163b565b6000918252602080832090910192909255918252600188019052604090208390555b855486908061114757611147611753565b6001900381819060005260206000200160009055905585600101600086815260200190815260200160002060009055600193505050506105f4565b60009150506105f4565b828054611198906115fd565b90600052602060002090601f0160209004810192826111ba5760008555611200565b82601f106111d357805160ff1916838001178555611200565b82800160010185558215611200579182015b828111156112005782518255916020019190600101906111e5565b5061120c92915061122e565b5090565b60405180606001604052806003906020820280368337509192915050565b5b8082111561120c576000815560010161122f565b60006020828403121561125557600080fd5b8135600160e060020a03198116811461097757600080fd5b6000806040838503121561128057600080fd5b50508035926020909101359150565b60005b838110156112aa578181015183820152602001611292565b838111156112b9576000848401525b50505050565b60208152600082518060208401526112de81604085016020870161128f565b601f01601f19169190910160400192915050565b803560ff8116811461130357600080fd5b919050565b60008060006060848603121561131d57600080fd5b611326846112f2565b95602085013595506040909401359392505050565b60006020828403121561134d57600080fd5b5035919050565b8035600160a060020a038116811461130357600080fd5b6000806040838503121561137e57600080fd5b8235915061138e60208401611354565b90509250929050565b60e060020a634e487b7102600052604160045260246000fd5b604051601f8201601f1916810167ffffffffffffffff811182821017156113d9576113d9611397565b604052919050565b600080600060a084860312156113f657600080fd5b84601f85011261140557600080fd5b6040516060810181811067ffffffffffffffff8211171561142857611428611397565b60405280606086018781111561143d57600080fd5b865b8181101561145e57611450816112f2565b83526020928301920161143f565b5091979135965050608094909401359392505050565b60008060006060848603121561148957600080fd5b833567ffffffffffffffff808211156114a157600080fd5b818601915086601f8301126114b557600080fd5b81356020828211156114c9576114c9611397565b6114db601f8301601f191682016113b0565b925081835288818386010111156114f157600080fd5b818185018285013760009183018101919091529097908601359650604090950135949350505050565b60008060006060848603121561152f57600080fd5b505081359360208301359350604090920135919050565b60608101818360005b600381101561157157815160ff1683526020928301929091019060010161154f565b50505092915050565b60e060020a634e487b7102600052602160045260246000fd5b60208101600783106115b85760e060020a634e487b7102600052602160045260246000fd5b91905290565b6000602082840312156115d057600080fd5b61097782611354565b6000806000606084860312156115ee57600080fd5b83356007811061132657600080fd5b60028104600182168061161157607f821691505b602082108114156116355760e060020a634e487b7102600052602260045260246000fd5b50919050565b60e060020a634e487b7102600052603260045260246000fd5b7f416363657373436f6e74726f6c3a206163636f756e742000000000000000000081526000835161168c81601785016020880161128f565b7f206973206d697373696e6720726f6c652000000000000000000000000000000060179184019182015283516116c981602884016020880161128f565b01602801949350505050565b60e060020a634e487b7102600052601160045260246000fd5b6000816000190483118215151615611708576117086116d5565b500290565b60008219821115611720576117206116d5565b500190565b600081611734576117346116d5565b506000190190565b60008282101561174e5761174e6116d5565b500390565b60e060020a634e487b7102600052603160045260246000fdfe80e2196015fc06a9d891759f8e4f51eb314ef5e9ea068528a8ed0063b87759f0a26469706673582212206287b0bae5abf74021d3bb475d36db52ea861ca0410b9f543422665889bd09c264736f6c634300080b0033",
  "immutableReferences": {},
  "source": "// SPDX-License-Identifier: GPL-3.0\npragma solidity >=0.7.0 <0.9.0;\n\nimport \"@openzeppelin/contracts/access/AccessControlEnumerable.sol\";\n\ncontract CharacterCard is AccessControlEnumerable {\n    enum Action {\n        Idle,\n        Move,\n        SetupCamp,\n        BreakDownCamp,\n        Dig,\n        Rest,\n        Help\n    }\n\n    bytes32 public constant VERIFIED_CONTROLLER_ROLE =\n        keccak256(\"VERIFIED_CONTROLLER_ROLE\");\n    uint8 constant MAX_MOVEMENT = 4;\n    uint8 constant MAX_AGILITY = 4;\n    uint8 constant MAX_DEXTERITY = 4;\n\n    address public itemToken;\n    address public artifactToken;\n    address public relicToken;\n    // game id => player ID\n    mapping(uint256 => mapping(uint256 => uint8)) public movement;\n    mapping(uint256 => mapping(uint256 => uint8)) public agility;\n    mapping(uint256 => mapping(uint256 => uint8)) public dexterity;\n    mapping(uint256 => mapping(uint256 => Action)) public action; // set to enumerated list\n    //// the following assign a token type, player must still hold balance to use item\n    mapping(uint256 => mapping(uint256 => string)) public leftHandItem;\n    mapping(uint256 => mapping(uint256 => string)) public rightHandItem;\n    mapping(uint256 => mapping(uint256 => string)) public artifact;\n    mapping(uint256 => mapping(uint256 => string)) public status;\n    mapping(uint256 => mapping(uint256 => string)) public relic;\n    // results of current action\n    mapping(uint256 => mapping(uint256 => string)) public activeActionCardType;\n    mapping(uint256 => mapping(uint256 => string)) public activeActionCardDrawn;\n    mapping(uint256 => mapping(uint256 => string))\n        public activeActionCardResult;\n    mapping(uint256 => mapping(uint256 => string[3]))\n        public activeActionCardInventoryChanges;\n\n    constructor(\n        address itemTokenAddress,\n        address artifactTokenAddress,\n        address relicTokenAddress\n    ) {\n        _setupRole(DEFAULT_ADMIN_ROLE, _msgSender());\n        itemToken = itemTokenAddress;\n        artifactToken = artifactTokenAddress;\n        relicToken = relicTokenAddress;\n    }\n\n    function addVerifiedController(address controllerAddress)\n        public\n        onlyRole(DEFAULT_ADMIN_ROLE)\n    {\n        grantRole(VERIFIED_CONTROLLER_ROLE, controllerAddress);\n    }\n\n    function getStats(uint256 gameID, uint256 playerID)\n        public\n        view\n        returns (uint8[3] memory stats)\n    {\n        stats[0] = movement[gameID][playerID];\n        stats[1] = agility[gameID][playerID];\n        stats[2] = dexterity[gameID][playerID];\n    }\n\n    function setStats(\n        uint8[3] memory stats,\n        uint256 gameID,\n        uint256 playerID\n    ) external onlyRole(VERIFIED_CONTROLLER_ROLE) {\n        // set all stats at once [movement, agility, dexterity]\n        movement[gameID][playerID] = stats[0];\n        agility[gameID][playerID] = stats[1];\n        dexterity[gameID][playerID] = stats[2];\n    }\n\n    function setMovement(\n        uint8 movementValue,\n        uint256 gameID,\n        uint256 playerID\n    ) external onlyRole(VERIFIED_CONTROLLER_ROLE) {\n        movement[gameID][playerID] = movementValue;\n    }\n\n    function setAgility(\n        uint8 agilityValue,\n        uint256 gameID,\n        uint256 playerID\n    ) external onlyRole(VERIFIED_CONTROLLER_ROLE) {\n        agility[gameID][playerID] = agilityValue;\n    }\n\n    function setDexterity(\n        uint8 dexterityValue,\n        uint256 gameID,\n        uint256 playerID\n    ) external onlyRole(VERIFIED_CONTROLLER_ROLE) {\n        dexterity[gameID][playerID] = dexterityValue;\n    }\n\n    function setLeftHandItem(\n        string memory itemTokenType,\n        uint256 gameID,\n        uint256 playerID\n    ) external onlyRole(VERIFIED_CONTROLLER_ROLE) {\n        leftHandItem[gameID][playerID] = itemTokenType;\n    }\n\n    function setRightHandItem(\n        string memory itemTokenType,\n        uint256 gameID,\n        uint256 playerID\n    ) external onlyRole(VERIFIED_CONTROLLER_ROLE) {\n        rightHandItem[gameID][playerID] = itemTokenType;\n    }\n\n    function setArtifact(\n        string memory itemTokenType,\n        uint256 gameID,\n        uint256 playerID\n    ) external onlyRole(VERIFIED_CONTROLLER_ROLE) {\n        rightHandItem[gameID][playerID] = itemTokenType;\n    }\n\n    function setStatus(\n        string memory itemTokenType,\n        uint256 gameID,\n        uint256 playerID\n    ) external onlyRole(VERIFIED_CONTROLLER_ROLE) {\n        rightHandItem[gameID][playerID] = itemTokenType;\n    }\n\n    function setRelic(\n        string memory itemTokenType,\n        uint256 gameID,\n        uint256 playerID\n    ) external onlyRole(VERIFIED_CONTROLLER_ROLE) {\n        rightHandItem[gameID][playerID] = itemTokenType;\n    }\n\n    function setAction(\n        Action _action,\n        uint256 gameID,\n        uint256 playerID\n    ) external onlyRole(VERIFIED_CONTROLLER_ROLE) {\n        action[gameID][playerID] = _action;\n    }\n}\n",
  "sourcePath": "/Users/max/demo/hexploration/contracts/state/CharacterCard.sol",
  "compiler": {
    "name": "solc",
    "version": "0.8.11+commit.d7f03943.Emscripten.clang"
  },
  "schemaVersion": "3.4.2",
  "updatedAt": "2022-05-27T00:04:08.993Z",
  "networkType": "ethereum",
  "devdoc": {
    "kind": "dev",
    "methods": {
      "getRoleAdmin(bytes32)": {
        "details": "Returns the admin role that controls `role`. See {grantRole} and {revokeRole}. To change a role's admin, use {_setRoleAdmin}."
      },
      "getRoleMember(bytes32,uint256)": {
        "details": "Returns one of the accounts that have `role`. `index` must be a value between 0 and {getRoleMemberCount}, non-inclusive. Role bearers are not sorted in any particular way, and their ordering may change at any point. WARNING: When using {getRoleMember} and {getRoleMemberCount}, make sure you perform all queries on the same block. See the following https://forum.openzeppelin.com/t/iterating-over-elements-on-enumerableset-in-openzeppelin-contracts/2296[forum post] for more information."
      },
      "getRoleMemberCount(bytes32)": {
        "details": "Returns the number of accounts that have `role`. Can be used together with {getRoleMember} to enumerate all bearers of a role."
      },
      "grantRole(bytes32,address)": {
        "details": "Grants `role` to `account`. If `account` had not been already granted `role`, emits a {RoleGranted} event. Requirements: - the caller must have ``role``'s admin role."
      },
      "hasRole(bytes32,address)": {
        "details": "Returns `true` if `account` has been granted `role`."
      },
      "renounceRole(bytes32,address)": {
        "details": "Revokes `role` from the calling account. Roles are often managed via {grantRole} and {revokeRole}: this function's purpose is to provide a mechanism for accounts to lose their privileges if they are compromised (such as when a trusted device is misplaced). If the calling account had been revoked `role`, emits a {RoleRevoked} event. Requirements: - the caller must be `account`."
      },
      "revokeRole(bytes32,address)": {
        "details": "Revokes `role` from `account`. If `account` had been granted `role`, emits a {RoleRevoked} event. Requirements: - the caller must have ``role``'s admin role."
      },
      "supportsInterface(bytes4)": {
        "details": "See {IERC165-supportsInterface}."
      }
    },
    "version": 1
  },
  "userdoc": {
    "kind": "user",
    "methods": {},
    "version": 1
  }
}