{
  "contractName": "DayNight",
  "abi": [
    {
      "inputs": [
        {
          "internalType": "address",
          "name": "controllerAddress",
          "type": "address"
        }
      ],
      "stateMutability": "nonpayable",
      "type": "constructor"
    },
    {
      "anonymous": false,
      "inputs": [
        {
          "indexed": true,
          "internalType": "bytes32",
          "name": "role",
          "type": "bytes32"
        },
        {
          "indexed": true,
          "internalType": "bytes32",
          "name": "previousAdminRole",
          "type": "bytes32"
        },
        {
          "indexed": true,
          "internalType": "bytes32",
          "name": "newAdminRole",
          "type": "bytes32"
        }
      ],
      "name": "RoleAdminChanged",
      "type": "event"
    },
    {
      "anonymous": false,
      "inputs": [
        {
          "indexed": true,
          "internalType": "bytes32",
          "name": "role",
          "type": "bytes32"
        },
        {
          "indexed": true,
          "internalType": "address",
          "name": "account",
          "type": "address"
        },
        {
          "indexed": true,
          "internalType": "address",
          "name": "sender",
          "type": "address"
        }
      ],
      "name": "RoleGranted",
      "type": "event"
    },
    {
      "anonymous": false,
      "inputs": [
        {
          "indexed": true,
          "internalType": "bytes32",
          "name": "role",
          "type": "bytes32"
        },
        {
          "indexed": true,
          "internalType": "address",
          "name": "account",
          "type": "address"
        },
        {
          "indexed": true,
          "internalType": "address",
          "name": "sender",
          "type": "address"
        }
      ],
      "name": "RoleRevoked",
      "type": "event"
    },
    {
      "anonymous": false,
      "inputs": [
        {
          "indexed": true,
          "internalType": "uint256",
          "name": "gameID",
          "type": "uint256"
        },
        {
          "indexed": true,
          "internalType": "uint256",
          "name": "fromID",
          "type": "uint256"
        },
        {
          "indexed": true,
          "internalType": "uint256",
          "name": "toID",
          "type": "uint256"
        },
        {
          "indexed": false,
          "internalType": "address",
          "name": "controller",
          "type": "address"
        },
        {
          "indexed": false,
          "internalType": "string",
          "name": "tokenType",
          "type": "string"
        },
        {
          "indexed": false,
          "internalType": "uint256",
          "name": "value",
          "type": "uint256"
        }
      ],
      "name": "Transfer",
      "type": "event"
    },
    {
      "anonymous": false,
      "inputs": [
        {
          "indexed": true,
          "internalType": "uint256",
          "name": "gameID",
          "type": "uint256"
        },
        {
          "indexed": true,
          "internalType": "uint256",
          "name": "fromZoneIndex",
          "type": "uint256"
        },
        {
          "indexed": true,
          "internalType": "uint256",
          "name": "toID",
          "type": "uint256"
        },
        {
          "indexed": false,
          "internalType": "address",
          "name": "controller",
          "type": "address"
        },
        {
          "indexed": false,
          "internalType": "string",
          "name": "tokenType",
          "type": "string"
        },
        {
          "indexed": false,
          "internalType": "uint256",
          "name": "value",
          "type": "uint256"
        }
      ],
      "name": "TransferFromZone",
      "type": "event"
    },
    {
      "anonymous": false,
      "inputs": [
        {
          "indexed": true,
          "internalType": "uint256",
          "name": "gameID",
          "type": "uint256"
        },
        {
          "indexed": true,
          "internalType": "uint256",
          "name": "fromID",
          "type": "uint256"
        },
        {
          "indexed": true,
          "internalType": "uint256",
          "name": "toZoneIndex",
          "type": "uint256"
        },
        {
          "indexed": false,
          "internalType": "address",
          "name": "controller",
          "type": "address"
        },
        {
          "indexed": false,
          "internalType": "string",
          "name": "tokenType",
          "type": "string"
        },
        {
          "indexed": false,
          "internalType": "uint256",
          "name": "value",
          "type": "uint256"
        }
      ],
      "name": "TransferToZone",
      "type": "event"
    },
    {
      "anonymous": false,
      "inputs": [
        {
          "indexed": true,
          "internalType": "uint256",
          "name": "gameID",
          "type": "uint256"
        },
        {
          "indexed": true,
          "internalType": "uint256",
          "name": "fromZoneIndex",
          "type": "uint256"
        },
        {
          "indexed": true,
          "internalType": "uint256",
          "name": "toZoneIndex",
          "type": "uint256"
        },
        {
          "indexed": false,
          "internalType": "address",
          "name": "controller",
          "type": "address"
        },
        {
          "indexed": false,
          "internalType": "string",
          "name": "tokenType",
          "type": "string"
        },
        {
          "indexed": false,
          "internalType": "uint256",
          "name": "value",
          "type": "uint256"
        }
      ],
      "name": "TransferZoneToZone",
      "type": "event"
    },
    {
      "inputs": [],
      "name": "CONTROLLER_ROLE",
      "outputs": [
        {
          "internalType": "bytes32",
          "name": "",
          "type": "bytes32"
        }
      ],
      "stateMutability": "view",
      "type": "function",
      "constant": true
    },
    {
      "inputs": [],
      "name": "DEFAULT_ADMIN_ROLE",
      "outputs": [
        {
          "internalType": "bytes32",
          "name": "",
          "type": "bytes32"
        }
      ],
      "stateMutability": "view",
      "type": "function",
      "constant": true
    },
    {
      "inputs": [
        {
          "internalType": "string[]",
          "name": "_tokenTypes",
          "type": "string[]"
        }
      ],
      "name": "addTokenTypes",
      "outputs": [],
      "stateMutability": "nonpayable",
      "type": "function"
    },
    {
      "inputs": [
        {
          "internalType": "string",
          "name": "",
          "type": "string"
        },
        {
          "internalType": "uint256",
          "name": "",
          "type": "uint256"
        },
        {
          "internalType": "uint256",
          "name": "",
          "type": "uint256"
        }
      ],
      "name": "balance",
      "outputs": [
        {
          "internalType": "uint256",
          "name": "",
          "type": "uint256"
        }
      ],
      "stateMutability": "view",
      "type": "function",
      "constant": true
    },
    {
      "inputs": [
        {
          "internalType": "bytes32",
          "name": "role",
          "type": "bytes32"
        }
      ],
      "name": "getRoleAdmin",
      "outputs": [
        {
          "internalType": "bytes32",
          "name": "",
          "type": "bytes32"
        }
      ],
      "stateMutability": "view",
      "type": "function",
      "constant": true
    },
    {
      "inputs": [
        {
          "internalType": "bytes32",
          "name": "role",
          "type": "bytes32"
        },
        {
          "internalType": "uint256",
          "name": "index",
          "type": "uint256"
        }
      ],
      "name": "getRoleMember",
      "outputs": [
        {
          "internalType": "address",
          "name": "",
          "type": "address"
        }
      ],
      "stateMutability": "view",
      "type": "function",
      "constant": true
    },
    {
      "inputs": [
        {
          "internalType": "bytes32",
          "name": "role",
          "type": "bytes32"
        }
      ],
      "name": "getRoleMemberCount",
      "outputs": [
        {
          "internalType": "uint256",
          "name": "",
          "type": "uint256"
        }
      ],
      "stateMutability": "view",
      "type": "function",
      "constant": true
    },
    {
      "inputs": [],
      "name": "getTokenTypes",
      "outputs": [
        {
          "internalType": "string[]",
          "name": "",
          "type": "string[]"
        }
      ],
      "stateMutability": "view",
      "type": "function",
      "constant": true
    },
    {
      "inputs": [
        {
          "internalType": "bytes32",
          "name": "role",
          "type": "bytes32"
        },
        {
          "internalType": "address",
          "name": "account",
          "type": "address"
        }
      ],
      "name": "grantRole",
      "outputs": [],
      "stateMutability": "nonpayable",
      "type": "function"
    },
    {
      "inputs": [
        {
          "internalType": "bytes32",
          "name": "role",
          "type": "bytes32"
        },
        {
          "internalType": "address",
          "name": "account",
          "type": "address"
        }
      ],
      "name": "hasRole",
      "outputs": [
        {
          "internalType": "bool",
          "name": "",
          "type": "bool"
        }
      ],
      "stateMutability": "view",
      "type": "function",
      "constant": true
    },
    {
      "inputs": [
        {
          "internalType": "string",
          "name": "tokenType",
          "type": "string"
        },
        {
          "internalType": "uint256",
          "name": "gameID",
          "type": "uint256"
        },
        {
          "internalType": "uint256",
          "name": "quantity",
          "type": "uint256"
        }
      ],
      "name": "mint",
      "outputs": [],
      "stateMutability": "nonpayable",
      "type": "function"
    },
    {
      "inputs": [
        {
          "internalType": "bytes32",
          "name": "role",
          "type": "bytes32"
        },
        {
          "internalType": "address",
          "name": "account",
          "type": "address"
        }
      ],
      "name": "renounceRole",
      "outputs": [],
      "stateMutability": "nonpayable",
      "type": "function"
    },
    {
      "inputs": [
        {
          "internalType": "bytes32",
          "name": "role",
          "type": "bytes32"
        },
        {
          "internalType": "address",
          "name": "account",
          "type": "address"
        }
      ],
      "name": "revokeRole",
      "outputs": [],
      "stateMutability": "nonpayable",
      "type": "function"
    },
    {
      "inputs": [
        {
          "internalType": "bytes4",
          "name": "interfaceId",
          "type": "bytes4"
        }
      ],
      "name": "supportsInterface",
      "outputs": [
        {
          "internalType": "bool",
          "name": "",
          "type": "bool"
        }
      ],
      "stateMutability": "view",
      "type": "function",
      "constant": true
    },
    {
      "inputs": [
        {
          "internalType": "uint256",
          "name": "",
          "type": "uint256"
        }
      ],
      "name": "tokenTypes",
      "outputs": [
        {
          "internalType": "string",
          "name": "",
          "type": "string"
        }
      ],
      "stateMutability": "view",
      "type": "function",
      "constant": true
    },
    {
      "inputs": [
        {
          "internalType": "string",
          "name": "tokenType",
          "type": "string"
        },
        {
          "internalType": "uint256",
          "name": "gameID",
          "type": "uint256"
        },
        {
          "internalType": "uint256",
          "name": "fromID",
          "type": "uint256"
        },
        {
          "internalType": "uint256",
          "name": "toID",
          "type": "uint256"
        },
        {
          "internalType": "uint256",
          "name": "quantity",
          "type": "uint256"
        }
      ],
      "name": "transfer",
      "outputs": [],
      "stateMutability": "nonpayable",
      "type": "function"
    },
    {
      "inputs": [
        {
          "internalType": "string",
          "name": "tokenType",
          "type": "string"
        },
        {
          "internalType": "uint256",
          "name": "gameID",
          "type": "uint256"
        },
        {
          "internalType": "uint256",
          "name": "fromZoneIndex",
          "type": "uint256"
        },
        {
          "internalType": "uint256",
          "name": "toID",
          "type": "uint256"
        },
        {
          "internalType": "uint256",
          "name": "quantity",
          "type": "uint256"
        }
      ],
      "name": "transferFromZone",
      "outputs": [],
      "stateMutability": "nonpayable",
      "type": "function"
    },
    {
      "inputs": [
        {
          "internalType": "string",
          "name": "tokenType",
          "type": "string"
        },
        {
          "internalType": "uint256",
          "name": "gameID",
          "type": "uint256"
        },
        {
          "internalType": "uint256",
          "name": "fromID",
          "type": "uint256"
        },
        {
          "internalType": "uint256",
          "name": "toZoneIndex",
          "type": "uint256"
        },
        {
          "internalType": "uint256",
          "name": "quantity",
          "type": "uint256"
        }
      ],
      "name": "transferToZone",
      "outputs": [],
      "stateMutability": "nonpayable",
      "type": "function"
    },
    {
      "inputs": [
        {
          "internalType": "string",
          "name": "tokenType",
          "type": "string"
        },
        {
          "internalType": "uint256",
          "name": "gameID",
          "type": "uint256"
        },
        {
          "internalType": "uint256",
          "name": "fromZoneIndex",
          "type": "uint256"
        },
        {
          "internalType": "uint256",
          "name": "toZoneIndex",
          "type": "uint256"
        },
        {
          "internalType": "uint256",
          "name": "quantity",
          "type": "uint256"
        }
      ],
      "name": "transferZoneToZone",
      "outputs": [],
      "stateMutability": "nonpayable",
      "type": "function"
    },
    {
      "inputs": [
        {
          "internalType": "string",
          "name": "",
          "type": "string"
        },
        {
          "internalType": "uint256",
          "name": "",
          "type": "uint256"
        },
        {
          "internalType": "uint256",
          "name": "",
          "type": "uint256"
        }
      ],
      "name": "zoneBalance",
      "outputs": [
        {
          "internalType": "uint256",
          "name": "",
          "type": "uint256"
        }
      ],
      "stateMutability": "view",
      "type": "function",
      "constant": true
    }
  ],
  "bytecode": "0x60806040523480156200001157600080fd5b506040516200237d3803806200237d8339810160408190526200003491620007fd565b806200005d60006200004e64010000000062000193810204565b64010000000062000197810204565b620000927f7b765e0e932d348852a6f810bfa1ab891e259123f02db8cdcde614c5702233578264010000000062000197810204565b5060408051600280825260608201909252600091816020015b6060815260200190600190039081620000ab5790505090506040518060400160405280600381526020017f4461790000000000000000000000000000000000000000000000000000000000815250816000815181106200010f576200010f62000857565b60200260200101819052506040518060400160405280600581526020017f4e696768740000000000000000000000000000000000000000000000000000008152508160018151811062000166576200016662000857565b60200260200101819052506200018b81620001b0640100000000026401000000009004565b505062000a8b565b3390565b620001ac82826401000000006200029f810204565b5050565b6000620001c681640100000000620002e1810204565b60005b82518110156200029a576000838281518110620001ea57620001ea62000857565b602002602001015190506000600590506004826040516200020c9190620008b9565b9081526040519081900360200190205460ff1662000282578054600181018255600082815260209081902084516200024c93919091019185019062000757565b506001600483604051620002619190620008b9565b908152604051908190036020019020805491151560ff199092169190911790555b50508080620002919062000906565b915050620001c9565b505050565b620002b9828264010000000062000c966200030b82021704565b60008281526001602052604090206200029a908264010000000062000d1a620003a782021704565b6200030881620002f964010000000062000193810204565b640100000000620003d0810204565b50565b62000320828264010000000062000487810204565b620001ac57600082815260208181526040808320600160a060020a03851684529091529020805460ff191660011790556200036364010000000062000193810204565b600160a060020a031681600160a060020a0316837f2f8788117e7eff1d82e926ec794901d17c78024a50270940304540a733656f0d60405160405180910390a45050565b6000620003c783600160a060020a038416640100000000620004b0810204565b90505b92915050565b620003e5828264010000000062000487810204565b620001ac576200040e600160a060020a038216601464010000000062000d2f6200050882021704565b6200042983602064010000000062000d2f6200050882021704565b6040516020016200043c92919062000924565b60408051601f19818403018152908290527f08c379a00000000000000000000000000000000000000000000000000000000082526200047e91600401620009a9565b60405180910390fd5b600091825260208281526040808420600160a060020a0393909316845291905290205460ff1690565b6000620004c783836401000000006200073f810204565b620004ff57508154600181810184556000848152602080822090930184905584548482528286019093526040902091909155620003ca565b506000620003ca565b6060600062000519836002620009de565b6200052690600262000a00565b67ffffffffffffffff81111562000541576200054162000828565b6040519080825280601f01601f1916602001820160405280156200056c576020820181803683370190505b5090507f300000000000000000000000000000000000000000000000000000000000000081600081518110620005a657620005a662000857565b6020010190600160f860020a031916908160001a9053507f780000000000000000000000000000000000000000000000000000000000000081600181518110620005f457620005f462000857565b6020010190600160f860020a031916908160001a90535060006200061a846002620009de565b6200062790600162000a00565b90505b6001811115620006d4577f303132333435363738396162636465660000000000000000000000000000000085600f16601081106200066c576200066c62000857565b1a7f010000000000000000000000000000000000000000000000000000000000000002828281518110620006a457620006a462000857565b6020010190600160f860020a031916908160001a905350601090940493620006cc8162000a1b565b90506200062a565b508315620003c7576040517f08c379a000000000000000000000000000000000000000000000000000000000815260206004820181905260248201527f537472696e67733a20686578206c656e67746820696e73756666696369656e7460448201526064016200047e565b60009081526001919091016020526040902054151590565b828054620007659062000a35565b90600052602060002090601f016020900481019282620007895760008555620007d4565b82601f10620007a457805160ff1916838001178555620007d4565b82800160010185558215620007d4579182015b82811115620007d4578251825591602001919060010190620007b7565b50620007e2929150620007e6565b5090565b5b80821115620007e25760008155600101620007e7565b6000602082840312156200081057600080fd5b8151600160a060020a0381168114620003c757600080fd5b7f4e487b7100000000000000000000000000000000000000000000000000000000600052604160045260246000fd5b7f4e487b7100000000000000000000000000000000000000000000000000000000600052603260045260246000fd5b60005b83811015620008a357818101518382015260200162000889565b83811115620008b3576000848401525b50505050565b60008251620008cd81846020870162000886565b9190910192915050565b7f4e487b7100000000000000000000000000000000000000000000000000000000600052601160045260246000fd5b60006000198214156200091d576200091d620008d7565b5060010190565b7f416363657373436f6e74726f6c3a206163636f756e74200000000000000000008152600083516200095e81601785016020880162000886565b7f206973206d697373696e6720726f6c652000000000000000000000000000000060179184019182015283516200099d81602884016020880162000886565b01602801949350505050565b6020815260008251806020840152620009ca81604085016020870162000886565b601f01601f19169190910160400192915050565b6000816000190483118215151615620009fb57620009fb620008d7565b500290565b6000821982111562000a165762000a16620008d7565b500190565b60008162000a2d5762000a2d620008d7565b506000190190565b60028104600182168062000a4a57607f821691505b6020821081141562000a85577f4e487b7100000000000000000000000000000000000000000000000000000000600052602260045260246000fd5b50919050565b6118e28062000a9b6000396000f3fe608060405234801561001057600080fd5b5060043610610149576000357c01000000000000000000000000000000000000000000000000000000009004806365a3c078116100ca578063bae8c2071161008e578063bae8c20714610318578063c853a1d01461032b578063ca15c87314610340578063d547741f14610353578063d82910471461036657600080fd5b806365a3c0781461027e5780638f9925f8146102bf5780639010d07c146102d257806391d14854146102fd578063a217fddf1461031057600080fd5b80632f2ff15d116101115780632f2ff15d146101e457806333f6832a146101f757806336568abe14610217578063379306ee1461022a5780634db157d01461023d57600080fd5b806301ffc9a71461014e578063092c5b3b146101765780631c635ded14610199578063248a9ca3146101ae5780632ed36791146101d1575b600080fd5b61016161015c3660046112e5565b610379565b60405190151581526020015b60405180910390f35b61018b60008051602061188d83398151915281565b60405190815260200161016d565b6101ac6101a73660046113c9565b6103bd565b005b61018b6101bc366004611417565b60009081526020819052604090206001015490565b6101ac6101df366004611430565b61048a565b6101ac6101f236600461148d565b6105d7565b61020a610205366004611417565b610601565b60405161016d9190611525565b6101ac61022536600461148d565b6106ad565b6101ac610238366004611430565b61073c565b61018b61024b3660046113c9565b82516020818501810180516002825292820195820195909520919094528352600091825260408083209093528152205481565b61018b61028c3660046113c9565b82516020818501810180516003825292820195820195909520919094528352600091825260408083209093528152205481565b6101ac6102cd366004611538565b61086c565b6102e56102e03660046115fa565b61093d565b604051600160a060020a03909116815260200161016d565b61016161030b36600461148d565b61095c565b61018b600081565b6101ac610326366004611430565b610985565b610333610ab5565b60405161016d919061161c565b61018b61034e366004611417565b610b8e565b6101ac61036136600461148d565b610ba5565b6101ac610374366004611430565b610bca565b6000600160e060020a031982167f5a05180f0000000000000000000000000000000000000000000000000000000014806103b757506103b782610f31565b92915050565b60008051602061188d8339815191526103d581610f98565b6004846040516103e5919061167d565b9081526040519081900360200190205460ff1661044c5760405160e560020a62461bcd02815260206004820152601260248201527f546f6b656e2074797065206e6f7420736574000000000000000000000000000060448201526064015b60405180910390fd5b8160028560405161045d919061167d565b90815260408051602092819003830190206000968752825280862086805290915290932092909255505050565b60008051602061188d8339815191526104a281610f98565b816003876040516104b3919061167d565b9081526040805160209281900383019020600089815290835281812088825290925290205410156104f95760405160e560020a62461bcd02815260040161044390611699565b8160028760405161050a919061167d565b908152604080516020928190038301902060008981529083528181208782529092528120805490919061053e9084906116e9565b9250508190555081600387604051610556919061167d565b908152604080516020928190038301902060008981529083528181208882529092528120805490919061058a908490611701565b9091555083905084867f6fa4dc3bc7c111db7ae7922175d10ef398b7ed0322e78123e284c4f6a733e635335b8a876040516105c793929190611718565b60405180910390a4505050505050565b6000828152602081905260409020600101546105f281610f98565b6105fc8383610fa5565b505050565b6005818154811061061157600080fd5b90600052602060002001600091509050805461062c9061174a565b80601f01602080910402602001604051908101604052809291908181526020018280546106589061174a565b80156106a55780601f1061067a576101008083540402835291602001916106a5565b820191906000526020600020905b81548152906001019060200180831161068857829003601f168201915b505050505081565b600160a060020a038116331461072e5760405160e560020a62461bcd02815260206004820152602f60248201527f416363657373436f6e74726f6c3a2063616e206f6e6c792072656e6f756e636560448201527f20726f6c657320666f722073656c6600000000000000000000000000000000006064820152608401610443565b6107388282610fc7565b5050565b60008051602061188d83398151915261075481610f98565b81600387604051610765919061167d565b9081526040805160209281900383019020600089815290835281812088825290925290205410156107ab5760405160e560020a62461bcd02815260040161044390611699565b816003876040516107bc919061167d565b90815260408051602092819003830190206000898152908352818120878252909252812080549091906107f09084906116e9565b9250508190555081600387604051610808919061167d565b908152604080516020928190038301902060008981529083528181208882529092528120805490919061083c908490611701565b9091555083905084867fceca1129300a57e05eff40843f1869becc8df18339f4ddad0de80ecd7116ce6b336105b6565b600061087781610f98565b60005b82518110156105fc57600083828151811061089757610897611788565b602002602001015190506000600590506004826040516108b7919061167d565b9081526040519081900360200190205460ff16610928578054600181018255600082815260209081902084516108f493919091019185019061124c565b506001600483604051610907919061167d565b908152604051908190036020019020805491151560ff199092169190911790555b50508080610935906117a1565b91505061087a565b60008281526001602052604081206109559083610fe9565b9392505050565b600091825260208281526040808420600160a060020a0393909316845291905290205460ff1690565b60008051602061188d83398151915261099d81610f98565b816002876040516109ae919061167d565b9081526040805160209281900383019020600089815290835281812088825290925290205410156109f45760405160e560020a62461bcd02815260040161044390611699565b81600387604051610a05919061167d565b9081526040805160209281900383019020600089815290835281812087825290925281208054909190610a399084906116e9565b9250508190555081600287604051610a51919061167d565b9081526040805160209281900383019020600089815290835281812088825290925281208054909190610a85908490611701565b9091555083905084867f544cd106f706f69ee9188abf5eab5b03f6162e0225adba30e00ca371b993dcdd336105b6565b60606005805480602002602001604051908101604052809291908181526020016000905b82821015610b85578382906000526020600020018054610af89061174a565b80601f0160208091040260200160405190810160405280929190818152602001828054610b249061174a565b8015610b715780601f10610b4657610100808354040283529160200191610b71565b820191906000526020600020905b815481529060010190602001808311610b5457829003601f168201915b505050505081526020019060010190610ad9565b50505050905090565b60008181526001602052604081206103b790610ff5565b600082815260208190526040902060010154610bc081610f98565b6105fc8383610fc7565b60008051602061188d833981519152610be281610f98565b81600287604051610bf3919061167d565b908152604080516020928190038301902060008981529083528181208882529092529020541015610c395760405160e560020a62461bcd02815260040161044390611699565b81600287604051610c4a919061167d565b9081526040805160209281900383019020600089815290835281812087825290925281208054909190610c7e9084906116e9565b9250508190555081600287604051610808919061167d565b610ca0828261095c565b61073857600082815260208181526040808320600160a060020a03851684529091529020805460ff19166001179055610cd63390565b600160a060020a031681600160a060020a0316837f2f8788117e7eff1d82e926ec794901d17c78024a50270940304540a733656f0d60405160405180910390a45050565b600061095583600160a060020a038416610fff565b60606000610d3e8360026117bc565b610d499060026116e9565b67ffffffffffffffff811115610d6157610d6161130f565b6040519080825280601f01601f191660200182016040528015610d8b576020820181803683370190505b5090507f300000000000000000000000000000000000000000000000000000000000000081600081518110610dc257610dc2611788565b6020010190600160f860020a031916908160001a9053507f780000000000000000000000000000000000000000000000000000000000000081600181518110610e0d57610e0d611788565b6020010190600160f860020a031916908160001a9053506000610e318460026117bc565b610e3c9060016116e9565b90505b6001811115610edf577f303132333435363738396162636465660000000000000000000000000000000085600f1660108110610e7d57610e7d611788565b1a7f010000000000000000000000000000000000000000000000000000000000000002828281518110610eb257610eb2611788565b6020010190600160f860020a031916908160001a905350601090940493610ed8816117db565b9050610e3f565b5083156109555760405160e560020a62461bcd02815260206004820181905260248201527f537472696e67733a20686578206c656e67746820696e73756666696369656e746044820152606401610443565b6000600160e060020a031982167f7965db0b0000000000000000000000000000000000000000000000000000000014806103b757507f01ffc9a700000000000000000000000000000000000000000000000000000000600160e060020a03198316146103b7565b610fa2813361104e565b50565b610faf8282610c96565b60008281526001602052604090206105fc9082610d1a565b610fd182826110b5565b60008281526001602052604090206105fc908261111a565b6000610955838361112f565b60006103b7825490565b6000818152600183016020526040812054611046575081546001818101845560008481526020808220909301849055845484825282860190935260409020919091556103b7565b5060006103b7565b611058828261095c565b6107385761107081600160a060020a03166014610d2f565b61107b836020610d2f565b60405160200161108c9291906117f2565b60408051601f198184030181529082905260e560020a62461bcd02825261044391600401611525565b6110bf828261095c565b1561073857600082815260208181526040808320600160a060020a0385168085529252808320805460ff1916905551339285917ff6391f5c32d9c69d2a47ea670b442974b53935d1edc7fd64eb21e047a839171b9190a45050565b600061095583600160a060020a038416611159565b600082600001828154811061114657611146611788565b9060005260206000200154905092915050565b6000818152600183016020526040812054801561124257600061117d600183611701565b855490915060009061119190600190611701565b90508181146111f65760008660000182815481106111b1576111b1611788565b90600052602060002001549050808760000184815481106111d4576111d4611788565b6000918252602080832090910192909255918252600188019052604090208390555b855486908061120757611207611873565b6001900381819060005260206000200160009055905585600101600086815260200190815260200160002060009055600193505050506103b7565b60009150506103b7565b8280546112589061174a565b90600052602060002090601f01602090048101928261127a57600085556112c0565b82601f1061129357805160ff19168380011785556112c0565b828001600101855582156112c0579182015b828111156112c05782518255916020019190600101906112a5565b506112cc9291506112d0565b5090565b5b808211156112cc57600081556001016112d1565b6000602082840312156112f757600080fd5b8135600160e060020a03198116811461095557600080fd5b60e060020a634e487b7102600052604160045260246000fd5b604051601f8201601f1916810167ffffffffffffffff811182821017156113515761135161130f565b604052919050565b600082601f83011261136a57600080fd5b813567ffffffffffffffff8111156113845761138461130f565b611397601f8201601f1916602001611328565b8181528460208386010111156113ac57600080fd5b816020850160208301376000918101602001919091529392505050565b6000806000606084860312156113de57600080fd5b833567ffffffffffffffff8111156113f557600080fd5b61140186828701611359565b9660208601359650604090950135949350505050565b60006020828403121561142957600080fd5b5035919050565b600080600080600060a0868803121561144857600080fd5b853567ffffffffffffffff81111561145f57600080fd5b61146b88828901611359565b9860208801359850604088013597606081013597506080013595509350505050565b600080604083850312156114a057600080fd5b823591506020830135600160a060020a03811681146114be57600080fd5b809150509250929050565b60005b838110156114e45781810151838201526020016114cc565b838111156114f3576000848401525b50505050565b600081518084526115118160208601602086016114c9565b601f01601f19169290920160200192915050565b60208152600061095560208301846114f9565b6000602080838503121561154b57600080fd5b823567ffffffffffffffff8082111561156357600080fd5b818501915085601f83011261157757600080fd5b8135818111156115895761158961130f565b838102611597858201611328565b91825283810185019185810190898411156115b157600080fd5b86860192505b838310156115ed578235858111156115cf5760008081fd5b6115dd8b89838a0101611359565b83525091860191908601906115b7565b9998505050505050505050565b6000806040838503121561160d57600080fd5b50508035926020909101359150565b600060208083018184528085518083526040860191506040848202870101925083870160005b8281101561167057603f1988860301845261165e8583516114f9565b94509285019290850190600101611642565b5092979650505050505050565b6000825161168f8184602087016114c9565b9190910192915050565b60208082526014908201527f66726f6d2062616c616e636520746f6f206c6f77000000000000000000000000604082015260600190565b60e060020a634e487b7102600052601160045260246000fd5b600082198211156116fc576116fc6116d0565b500190565b600082821015611713576117136116d0565b500390565b600160a060020a038416815260606020820152600061173a60608301856114f9565b9050826040830152949350505050565b60028104600182168061175e57607f821691505b602082108114156117825760e060020a634e487b7102600052602260045260246000fd5b50919050565b60e060020a634e487b7102600052603260045260246000fd5b60006000198214156117b5576117b56116d0565b5060010190565b60008160001904831182151516156117d6576117d66116d0565b500290565b6000816117ea576117ea6116d0565b506000190190565b7f416363657373436f6e74726f6c3a206163636f756e742000000000000000000081526000835161182a8160178501602088016114c9565b7f206973206d697373696e6720726f6c652000000000000000000000000000000060179184019182015283516118678160288401602088016114c9565b01602801949350505050565b60e060020a634e487b7102600052603160045260246000fdfe7b765e0e932d348852a6f810bfa1ab891e259123f02db8cdcde614c570223357a2646970667358221220f64a7d859f1d390d5eb3009d63e7177bb8b7783be6d84dea899e44c0a3b6219664736f6c634300080b0033",
  "immutableReferences": {},
  "source": "// SPDX-License-Identifier: GPL-3.0\npragma solidity >=0.7.0 <0.9.0;\n\nimport \"./GameToken.sol\";\n\ncontract DayNight is GameToken {\n    constructor(address controllerAddress) GameToken(controllerAddress) {\n        string[] memory tokenTypes = new string[](2);\n        tokenTypes[0] = \"Day\";\n        tokenTypes[1] = \"Night\";\n        addTokenTypes(tokenTypes);\n    }\n}\n",
  "sourcePath": "/Users/max/demo/hexploration/contracts/tokens/DayNight.sol",
  "compiler": {
    "name": "solc",
    "version": "0.8.11+commit.d7f03943.Emscripten.clang"
  },
  "schemaVersion": "3.4.2",
  "updatedAt": "2022-05-27T05:49:18.370Z",
  "networkType": "ethereum",
  "devdoc": {
    "kind": "dev",
    "methods": {
      "getRoleAdmin(bytes32)": {
        "details": "Returns the admin role that controls `role`. See {grantRole} and {revokeRole}. To change a role's admin, use {_setRoleAdmin}."
      },
      "getRoleMember(bytes32,uint256)": {
        "details": "Returns one of the accounts that have `role`. `index` must be a value between 0 and {getRoleMemberCount}, non-inclusive. Role bearers are not sorted in any particular way, and their ordering may change at any point. WARNING: When using {getRoleMember} and {getRoleMemberCount}, make sure you perform all queries on the same block. See the following https://forum.openzeppelin.com/t/iterating-over-elements-on-enumerableset-in-openzeppelin-contracts/2296[forum post] for more information."
      },
      "getRoleMemberCount(bytes32)": {
        "details": "Returns the number of accounts that have `role`. Can be used together with {getRoleMember} to enumerate all bearers of a role."
      },
      "grantRole(bytes32,address)": {
        "details": "Grants `role` to `account`. If `account` had not been already granted `role`, emits a {RoleGranted} event. Requirements: - the caller must have ``role``'s admin role."
      },
      "hasRole(bytes32,address)": {
        "details": "Returns `true` if `account` has been granted `role`."
      },
      "renounceRole(bytes32,address)": {
        "details": "Revokes `role` from the calling account. Roles are often managed via {grantRole} and {revokeRole}: this function's purpose is to provide a mechanism for accounts to lose their privileges if they are compromised (such as when a trusted device is misplaced). If the calling account had been revoked `role`, emits a {RoleRevoked} event. Requirements: - the caller must be `account`."
      },
      "revokeRole(bytes32,address)": {
        "details": "Revokes `role` from `account`. If `account` had been granted `role`, emits a {RoleRevoked} event. Requirements: - the caller must have ``role``'s admin role."
      },
      "supportsInterface(bytes4)": {
        "details": "See {IERC165-supportsInterface}."
      }
    },
    "version": 1
  },
  "userdoc": {
    "kind": "user",
    "methods": {},
    "version": 1
  }
}