{
  "contractName": "EventDeck",
  "abi": [
    {
      "inputs": [],
      "stateMutability": "nonpayable",
      "type": "constructor"
    },
    {
      "anonymous": false,
      "inputs": [
        {
          "indexed": true,
          "internalType": "bytes32",
          "name": "role",
          "type": "bytes32"
        },
        {
          "indexed": true,
          "internalType": "bytes32",
          "name": "previousAdminRole",
          "type": "bytes32"
        },
        {
          "indexed": true,
          "internalType": "bytes32",
          "name": "newAdminRole",
          "type": "bytes32"
        }
      ],
      "name": "RoleAdminChanged",
      "type": "event"
    },
    {
      "anonymous": false,
      "inputs": [
        {
          "indexed": true,
          "internalType": "bytes32",
          "name": "role",
          "type": "bytes32"
        },
        {
          "indexed": true,
          "internalType": "address",
          "name": "account",
          "type": "address"
        },
        {
          "indexed": true,
          "internalType": "address",
          "name": "sender",
          "type": "address"
        }
      ],
      "name": "RoleGranted",
      "type": "event"
    },
    {
      "anonymous": false,
      "inputs": [
        {
          "indexed": true,
          "internalType": "bytes32",
          "name": "role",
          "type": "bytes32"
        },
        {
          "indexed": true,
          "internalType": "address",
          "name": "account",
          "type": "address"
        },
        {
          "indexed": true,
          "internalType": "address",
          "name": "sender",
          "type": "address"
        }
      ],
      "name": "RoleRevoked",
      "type": "event"
    },
    {
      "inputs": [],
      "name": "CONTROLLER_ROLE",
      "outputs": [
        {
          "internalType": "bytes32",
          "name": "",
          "type": "bytes32"
        }
      ],
      "stateMutability": "view",
      "type": "function"
    },
    {
      "inputs": [],
      "name": "DEFAULT_ADMIN_ROLE",
      "outputs": [
        {
          "internalType": "bytes32",
          "name": "",
          "type": "bytes32"
        }
      ],
      "stateMutability": "view",
      "type": "function"
    },
    {
      "inputs": [
        {
          "internalType": "string[]",
          "name": "titles",
          "type": "string[]"
        },
        {
          "internalType": "string[]",
          "name": "descriptions",
          "type": "string[]"
        },
        {
          "internalType": "uint16[]",
          "name": "quantities",
          "type": "uint16[]"
        }
      ],
      "name": "addCards",
      "outputs": [],
      "stateMutability": "nonpayable",
      "type": "function"
    },
    {
      "inputs": [
        {
          "internalType": "string",
          "name": "",
          "type": "string"
        }
      ],
      "name": "description",
      "outputs": [
        {
          "internalType": "string",
          "name": "",
          "type": "string"
        }
      ],
      "stateMutability": "view",
      "type": "function"
    },
    {
      "inputs": [
        {
          "internalType": "uint256",
          "name": "randomWord",
          "type": "uint256"
        }
      ],
      "name": "drawCard",
      "outputs": [
        {
          "internalType": "string",
          "name": "",
          "type": "string"
        }
      ],
      "stateMutability": "view",
      "type": "function"
    },
    {
      "inputs": [],
      "name": "getDeck",
      "outputs": [
        {
          "internalType": "string[]",
          "name": "",
          "type": "string[]"
        }
      ],
      "stateMutability": "view",
      "type": "function"
    },
    {
      "inputs": [
        {
          "internalType": "bytes32",
          "name": "role",
          "type": "bytes32"
        }
      ],
      "name": "getRoleAdmin",
      "outputs": [
        {
          "internalType": "bytes32",
          "name": "",
          "type": "bytes32"
        }
      ],
      "stateMutability": "view",
      "type": "function"
    },
    {
      "inputs": [
        {
          "internalType": "bytes32",
          "name": "role",
          "type": "bytes32"
        },
        {
          "internalType": "uint256",
          "name": "index",
          "type": "uint256"
        }
      ],
      "name": "getRoleMember",
      "outputs": [
        {
          "internalType": "address",
          "name": "",
          "type": "address"
        }
      ],
      "stateMutability": "view",
      "type": "function"
    },
    {
      "inputs": [
        {
          "internalType": "bytes32",
          "name": "role",
          "type": "bytes32"
        }
      ],
      "name": "getRoleMemberCount",
      "outputs": [
        {
          "internalType": "uint256",
          "name": "",
          "type": "uint256"
        }
      ],
      "stateMutability": "view",
      "type": "function"
    },
    {
      "inputs": [
        {
          "internalType": "bytes32",
          "name": "role",
          "type": "bytes32"
        },
        {
          "internalType": "address",
          "name": "account",
          "type": "address"
        }
      ],
      "name": "grantRole",
      "outputs": [],
      "stateMutability": "nonpayable",
      "type": "function"
    },
    {
      "inputs": [
        {
          "internalType": "bytes32",
          "name": "role",
          "type": "bytes32"
        },
        {
          "internalType": "address",
          "name": "account",
          "type": "address"
        }
      ],
      "name": "hasRole",
      "outputs": [
        {
          "internalType": "bool",
          "name": "",
          "type": "bool"
        }
      ],
      "stateMutability": "view",
      "type": "function"
    },
    {
      "inputs": [
        {
          "internalType": "string",
          "name": "",
          "type": "string"
        }
      ],
      "name": "quantity",
      "outputs": [
        {
          "internalType": "uint16",
          "name": "",
          "type": "uint16"
        }
      ],
      "stateMutability": "view",
      "type": "function"
    },
    {
      "inputs": [
        {
          "internalType": "bytes32",
          "name": "role",
          "type": "bytes32"
        },
        {
          "internalType": "address",
          "name": "account",
          "type": "address"
        }
      ],
      "name": "renounceRole",
      "outputs": [],
      "stateMutability": "nonpayable",
      "type": "function"
    },
    {
      "inputs": [
        {
          "internalType": "bytes32",
          "name": "role",
          "type": "bytes32"
        },
        {
          "internalType": "address",
          "name": "account",
          "type": "address"
        }
      ],
      "name": "revokeRole",
      "outputs": [],
      "stateMutability": "nonpayable",
      "type": "function"
    },
    {
      "inputs": [
        {
          "internalType": "bytes4",
          "name": "interfaceId",
          "type": "bytes4"
        }
      ],
      "name": "supportsInterface",
      "outputs": [
        {
          "internalType": "bool",
          "name": "",
          "type": "bool"
        }
      ],
      "stateMutability": "view",
      "type": "function"
    }
  ],
  "bytecode": "0x60806040523480156200001157600080fd5b506200003a60006200002b640100000000620012df810204565b640100000000620012e3810204565b6040805160188082526103208201909252600091816020015b606081526020019060019003908162000053575050604080516018808252610320820190925291925060009190602082015b60608152602001906001900390816200008557505060408051601880825261032082019092529192506000919060208201610300803683370190505090506040518060400160405280601581526020017f44616e6365204f66662057697468204c6f63616c730000000000000000000000815250836000815181106200010f576200010f62001aae565b60200260200101819052506040518060800160405280604b815260200162003606604b9139826000815181106200014a576200014a62001aae565b60200260200101819052506001816000815181106200016d576200016d62001aae565b602002602001019061ffff16908161ffff16815250506040518060400160405280601081526020017f4c6f63616c204d6170204d616b6572730000000000000000000000000000000081525083600181518110620001cf57620001cf62001aae565b60200260200101819052506040518060600160405280603781526020016200319a60379139826001815181106200020a576200020a62001aae565b60200260200101819052506001816001815181106200022d576200022d62001aae565b602002602001019061ffff16908161ffff16815250506040518060400160405280601581526020017f4c6f63616c204d61727469616c20436f6e746573740000000000000000000000815250836002815181106200028f576200028f62001aae565b6020026020010181905250604051806060016040528060308152602001620034c86030913982600281518110620002ca57620002ca62001aae565b6020026020010181905250600181600281518110620002ed57620002ed62001aae565b602002602001019061ffff16908161ffff16815250506040518060400160405280601081526020017f446f776e65642046726569676874657200000000000000000000000000000000815250836003815181106200034f576200034f62001aae565b60200260200101819052506040518060600160405280603881526020016200358160389139826003815181106200038a576200038a62001aae565b6020026020010181905250600181600381518110620003ad57620003ad62001aae565b602002602001019061ffff16908161ffff16815250506040518060400160405280601181526020017f446f776e65642053636f75742053686970000000000000000000000000000000815250836004815181106200040f576200040f62001aae565b60200260200101819052506040518060800160405280604d8152602001620035b9604d9139826004815181106200044a576200044a62001aae565b60200260200101819052506001816004815181106200046d576200046d62001aae565b602002602001019061ffff16908161ffff16815250506040518060400160405280601381526020017f446f776e65642041737361756c7420536869700000000000000000000000000081525083600581518110620004cf57620004cf62001aae565b6020026020010181905250604051806080016040528060578152602001620032e460579139826005815181106200050a576200050a62001aae565b60200260200101819052506001816005815181106200052d576200052d62001aae565b602002602001019061ffff16908161ffff16815250506040518060400160405280600d81526020017f446976696e6520566973696f6e00000000000000000000000000000000000000815250836006815181106200058f576200058f62001aae565b60200260200101819052506040518060a0016040528060628152602001620032516062913982600681518110620005ca57620005ca62001aae565b6020026020010181905250600181600681518110620005ed57620005ed62001aae565b602002602001019061ffff16908161ffff16815250506040518060400160405280600d81526020017f4a75696379204265727269657300000000000000000000000000000000000000815250836007815181106200064f576200064f62001aae565b60200260200101819052506040518060600160405280602181526020016200376060219139826007815181106200068a576200068a62001aae565b6020026020010181905250600181600781518110620006ad57620006ad62001aae565b602002602001019061ffff16908161ffff16815250506040518060400160405280601581526020017f4162616e646f6e6564204d696e696e672043616d700000000000000000000000815250836008815181106200070f576200070f62001aae565b6020026020010181905250604051806080016040528060598152602001620031d160599139826008815181106200074a576200074a62001aae565b60200260200101819052506001816008815181106200076d576200076d62001aae565b602002602001019061ffff16908161ffff16815250506040518060400160405280601681526020017f547261696e696e67204d6f64756c653a2053706565640000000000000000000081525083600981518110620007cf57620007cf62001aae565b6020026020010181905250604051806060016040528060318152602001620032b360319139826009815181106200080a576200080a62001aae565b60200260200101819052506001816009815181106200082d576200082d62001aae565b602002602001019061ffff16908161ffff16815250506040518060400160405280601d81526020017f547261696e696e67204d6f64756c653a20416363656c65726174696f6e00000081525083600a815181106200088f576200088f62001aae565b6020026020010181905250604051806060016040528060318152602001620032b36031913982600a81518110620008ca57620008ca62001aae565b6020026020010181905250600181600a81518110620008ed57620008ed62001aae565b602002602001019061ffff16908161ffff16815250506040518060400160405280601981526020017f547261696e696e67204d6f64756c653a2048616e646c696e670000000000000081525083600b815181106200094f576200094f62001aae565b6020026020010181905250604051806060016040528060318152602001620032b36031913982600b815181106200098a576200098a62001aae565b6020026020010181905250600181600b81518110620009ad57620009ad62001aae565b602002602001019061ffff16908161ffff16815250506040518060400160405280601081526020017f467269656e646c792056696c6c6167650000000000000000000000000000000081525083600c8151811062000a0f5762000a0f62001aae565b60200260200101819052506040518060c0016040528060948152602001620036cc6094913982600c8151811062000a4a5762000a4a62001aae565b6020026020010181905250600181600c8151811062000a6d5762000a6d62001aae565b602002602001019061ffff16908161ffff16815250506040518060400160405280600e81526020017f416e6369656e742051756172727900000000000000000000000000000000000081525083600d8151811062000acf5762000acf62001aae565b6020026020010181905250604051806080016040528060438152602001620033c66043913982600d8151811062000b0a5762000b0a62001aae565b6020026020010181905250600181600d8151811062000b2d5762000b2d62001aae565b602002602001019061ffff16908161ffff16815250506040518060400160405280601281526020017f416e6369656e74205761746368746f776572000000000000000000000000000081525083600e8151811062000b8f5762000b8f62001aae565b60200260200101819052506040518060800160405280604581526020016200353c6045913982600e8151811062000bca5762000bca62001aae565b6020026020010181905250600181600e8151811062000bed5762000bed62001aae565b602002602001019061ffff16908161ffff16815250506040518060400160405280601081526020017f416e6369656e7420466f7274726573730000000000000000000000000000000081525083600f8151811062000c4f5762000c4f62001aae565b6020026020010181905250604051806080016040528060518152602001620034776051913982600f8151811062000c8a5762000c8a62001aae565b6020026020010181905250600181600f8151811062000cad5762000cad62001aae565b602002602001019061ffff16908161ffff16815250506040518060400160405280600d81526020017f576561706f6e73204361636865000000000000000000000000000000000000008152508360108151811062000d0f5762000d0f62001aae565b60200260200101819052506040518060600160405280603a815260200162003651603a91398260108151811062000d4a5762000d4a62001aae565b602002602001018190525060018160108151811062000d6d5762000d6d62001aae565b602002602001019061ffff16908161ffff16815250506040518060400160405280600881526020017f4d75746167656e730000000000000000000000000000000000000000000000008152508360118151811062000dcf5762000dcf62001aae565b60200260200101819052506040518060600160405280602d815260200162003409602d91398260118151811062000e0a5762000e0a62001aae565b602002602001018190525060018160118151811062000e2d5762000e2d62001aae565b602002602001019061ffff16908161ffff16815250506040518060400160405280600b81526020017f486f7420537072696e67730000000000000000000000000000000000000000008152508360128151811062000e8f5762000e8f62001aae565b60200260200101819052506040518060800160405280604a81526020016200337c604a91398260128151811062000eca5762000eca62001aae565b602002602001018190525060018160128151811062000eed5762000eed62001aae565b602002602001019061ffff16908161ffff16815250506040518060400160405280600e81526020017f44657365727420476174657761790000000000000000000000000000000000008152508360138151811062000f4f5762000f4f62001aae565b60200260200101819052506040518060800160405280604181526020016200333b604191398260138151811062000f8a5762000f8a62001aae565b602002602001018190525060018160138151811062000fad5762000fad62001aae565b602002602001019061ffff16908161ffff16815250506040518060400160405280600e81526020017f4a756e676c652047617465776179000000000000000000000000000000000000815250836014815181106200100f576200100f62001aae565b60200260200101819052506040518060800160405280604181526020016200368b60419139826014815181106200104a576200104a62001aae565b60200260200101819052506001816014815181106200106d576200106d62001aae565b602002602001019061ffff16908161ffff16815250506040518060400160405280601081526020017f4d6f756e7461696e20476174657761790000000000000000000000000000000081525083601581518110620010cf57620010cf62001aae565b6020026020010181905250604051806080016040528060448152602001620034f860449139826015815181106200110a576200110a62001aae565b60200260200101819052506001816015815181106200112d576200112d62001aae565b602002602001019061ffff16908161ffff16815250506040518060400160405280600e81526020017f506c61696e732047617465776179000000000000000000000000000000000000815250836016815181106200118f576200118f62001aae565b6020026020010181905250604051806080016040528060418152602001620034366041913982601681518110620011ca57620011ca62001aae565b6020026020010181905250600181601681518110620011ed57620011ed62001aae565b602002602001019061ffff16908161ffff16815250506040518060400160405280600c81526020017f537570706c792043616368650000000000000000000000000000000000000000815250836017815181106200124f576200124f62001aae565b60200260200101819052506040518060600160405280602781526020016200322a60279139826017815181106200128a576200128a62001aae565b6020026020010181905250600181601781518110620012ad57620012ad62001aae565b61ffff90921660209283029190910190910152620012d6838383640100000000620012fc810204565b50505062001ce2565b3390565b620012f8828264010000000062001525810204565b5050565b600062001312816401000000006200156c810204565b8251845114801562001325575081518451145b62001391576040517f08c379a000000000000000000000000000000000000000000000000000000000815260206004820152601760248201527f6172726179207175616e74697479206d69736d6174636800000000000000000060448201526064015b60405180910390fd5b60005b84518110156200151e576000858281518110620013b557620013b562001aae565b60200260200101519050600481604051620013d1919062001b10565b9081526040519081900360200190205461ffff1615801562001414575083828151811062001403576200140362001aae565b602002602001015161ffff16600014155b1562001508576002805460018101825560009190915281516200145f917f405787fa12a823e0f2b7631cc41b3ba8828b3321ca811111fa75cd3aa3bb5ace01906020840190620019d9565b5084828151811062001475576200147562001aae565b60200260200101516003826040516200148f919062001b10565b90815260200160405180910390209080519060200190620014b2929190620019d9565b50838281518110620014c857620014c862001aae565b6020026020010151600482604051620014e2919062001b10565b908152604051908190036020019020805461ffff9290921661ffff199092169190911790555b5080620015158162001b5d565b91505062001394565b5050505050565b6200153f8282640100000000620008536200159682021704565b6000828152600160205260409020620015679082640100000000620008d76200163282021704565b505050565b620015938162001584640100000000620012df810204565b6401000000006200165b810204565b50565b620015ab828264010000000062001709810204565b620012f857600082815260208181526040808320600160a060020a03851684529091529020805460ff19166001179055620015ee640100000000620012df810204565b600160a060020a031681600160a060020a0316837f2f8788117e7eff1d82e926ec794901d17c78024a50270940304540a733656f0d60405160405180910390a45050565b60006200165283600160a060020a03841664010000000062001732810204565b90505b92915050565b62001670828264010000000062001709810204565b620012f85762001699600160a060020a0382166014640100000000620008ec6200178a82021704565b620016b4836020640100000000620008ec6200178a82021704565b604051602001620016c792919062001b7b565b60408051601f19818403018152908290527f08c379a0000000000000000000000000000000000000000000000000000000008252620013889160040162001c00565b600091825260208281526040808420600160a060020a0393909316845291905290205460ff1690565b6000620017498383640100000000620019c1810204565b620017815750815460018181018455600084815260208082209093018490558454848252828601909352604090209190915562001655565b50600062001655565b606060006200179b83600262001c35565b620017a890600262001c57565b67ffffffffffffffff811115620017c357620017c362001a7f565b6040519080825280601f01601f191660200182016040528015620017ee576020820181803683370190505b5090507f30000000000000000000000000000000000000000000000000000000000000008160008151811062001828576200182862001aae565b6020010190600160f860020a031916908160001a9053507f78000000000000000000000000000000000000000000000000000000000000008160018151811062001876576200187662001aae565b6020010190600160f860020a031916908160001a90535060006200189c84600262001c35565b620018a990600162001c57565b90505b600181111562001956577f303132333435363738396162636465660000000000000000000000000000000085600f1660108110620018ee57620018ee62001aae565b1a7f01000000000000000000000000000000000000000000000000000000000000000282828151811062001926576200192662001aae565b6020010190600160f860020a031916908160001a9053506010909404936200194e8162001c72565b9050620018ac565b50831562001652576040517f08c379a000000000000000000000000000000000000000000000000000000000815260206004820181905260248201527f537472696e67733a20686578206c656e67746820696e73756666696369656e74604482015260640162001388565b60009081526001919091016020526040902054151590565b828054620019e79062001c8c565b90600052602060002090601f01602090048101928262001a0b576000855562001a56565b82601f1062001a2657805160ff191683800117855562001a56565b8280016001018555821562001a56579182015b8281111562001a5657825182559160200191906001019062001a39565b5062001a6492915062001a68565b5090565b5b8082111562001a64576000815560010162001a69565b7f4e487b7100000000000000000000000000000000000000000000000000000000600052604160045260246000fd5b7f4e487b7100000000000000000000000000000000000000000000000000000000600052603260045260246000fd5b60005b8381101562001afa57818101518382015260200162001ae0565b8381111562001b0a576000848401525b50505050565b6000825162001b2481846020870162001add565b9190910192915050565b7f4e487b7100000000000000000000000000000000000000000000000000000000600052601160045260246000fd5b600060001982141562001b745762001b7462001b2e565b5060010190565b7f416363657373436f6e74726f6c3a206163636f756e742000000000000000000081526000835162001bb581601785016020880162001add565b7f206973206d697373696e6720726f6c6520000000000000000000000000000000601791840191820152835162001bf481602884016020880162001add565b01602801949350505050565b602081526000825180602084015262001c2181604085016020870162001add565b601f01601f19169190910160400192915050565b600081600019048311821515161562001c525762001c5262001b2e565b500290565b6000821982111562001c6d5762001c6d62001b2e565b500190565b60008162001c845762001c8462001b2e565b506000190190565b60028104600182168062001ca157607f821691505b6020821081141562001cdc577f4e487b7100000000000000000000000000000000000000000000000000000000600052602260045260246000fd5b50919050565b6114a88062001cf26000396000f3fe608060405234801561001057600080fd5b50600436106100f2576000357c01000000000000000000000000000000000000000000000000000000009004806388255199116100a457806388255199146101f65780639010d07c1461021657806391d1485414610241578063a217fddf14610254578063a855d6f91461025c578063b6aa4ed61461026f578063ca15c87314610282578063d547741f1461029557600080fd5b806301ffc9a7146100f7578063092c5b3b1461011f578063248a9ca3146101545780632f2ff15d14610177578063339434741461018c57806336568abe146101a157806381ecfce8146101b4575b600080fd5b61010a610105366004610ea2565b6102a8565b60405190151581526020015b60405180910390f35b6101467f7b765e0e932d348852a6f810bfa1ab891e259123f02db8cdcde614c57022335781565b604051908152602001610116565b610146610162366004610ecc565b60009081526020819052604090206001015490565b61018a610185366004610ee5565b6102ec565b005b610194610316565b6040516101169190610f7d565b61018a6101af366004610ee5565b6103ef565b6101e36101c2366004611098565b805160208183018101805160048252928201919093012091525461ffff1681565b60405161ffff9091168152602001610116565b610209610204366004611098565b610483565b60405161011691906110d5565b6102296102243660046110e8565b610528565b604051600160a060020a039091168152602001610116565b61010a61024f366004610ee5565b610547565b610146600081565b61018a61026a3660046111bb565b610570565b61020961027d366004610ecc565b610754565b610146610290366004610ecc565b610817565b61018a6102a3366004610ee5565b61082e565b6000600160e060020a031982167f5a05180f0000000000000000000000000000000000000000000000000000000014806102e657506102e682610aee565b92915050565b60008281526020819052604090206001015461030781610b55565b6103118383610b62565b505050565b60606002805480602002602001604051908101604052809291908181526020016000905b828210156103e6578382906000526020600020018054610359906112a7565b80601f0160208091040260200160405190810160405280929190818152602001828054610385906112a7565b80156103d25780601f106103a7576101008083540402835291602001916103d2565b820191906000526020600020905b8154815290600101906020018083116103b557829003601f168201915b50505050508152602001906001019061033a565b50505050905090565b600160a060020a03811633146104755760405160e560020a62461bcd02815260206004820152602f60248201527f416363657373436f6e74726f6c3a2063616e206f6e6c792072656e6f756e636560448201527f20726f6c657320666f722073656c66000000000000000000000000000000000060648201526084015b60405180910390fd5b61047f8282610b84565b5050565b8051602081830181018051600382529282019190930120915280546104a7906112a7565b80601f01602080910402602001604051908101604052809291908181526020018280546104d3906112a7565b80156105205780601f106104f557610100808354040283529160200191610520565b820191906000526020600020905b81548152906001019060200180831161050357829003601f168201915b505050505081565b60008281526001602052604081206105409083610ba6565b9392505050565b600091825260208281526040808420600160a060020a0393909316845291905290205460ff1690565b600061057b81610b55565b8251845114801561058d575081518451145b6105dc5760405160e560020a62461bcd02815260206004820152601760248201527f6172726179207175616e74697479206d69736d61746368000000000000000000604482015260640161046c565b60005b845181101561074d5760008582815181106105fc576105fc6112e5565b6020026020010151905060048160405161061691906112fe565b9081526040519081900360200190205461ffff161580156106555750838281518110610644576106446112e5565b602002602001015161ffff16600014155b1561073a5760028054600181018255600091909152815161069d917f405787fa12a823e0f2b7631cc41b3ba8828b3321ca811111fa75cd3aa3bb5ace01906020840190610e09565b508482815181106106b0576106b06112e5565b60200260200101516003826040516106c891906112fe565b908152602001604051809103902090805190602001906106e9929190610e09565b508382815181106106fc576106fc6112e5565b602002602001015160048260405161071491906112fe565b908152604051908190036020019020805461ffff9290921661ffff199092169190911790555b508061074581611333565b9150506105df565b5050505050565b600254606090600090610767908461134e565b90506002818154811061077c5761077c6112e5565b906000526020600020018054610791906112a7565b80601f01602080910402602001604051908101604052809291908181526020018280546107bd906112a7565b801561080a5780601f106107df5761010080835404028352916020019161080a565b820191906000526020600020905b8154815290600101906020018083116107ed57829003601f168201915b5050505050915050919050565b60008181526001602052604081206102e690610bb2565b60008281526020819052604090206001015461084981610b55565b6103118383610b84565b61085d8282610547565b61047f57600082815260208181526040808320600160a060020a03851684529091529020805460ff191660011790556108933390565b600160a060020a031681600160a060020a0316837f2f8788117e7eff1d82e926ec794901d17c78024a50270940304540a733656f0d60405160405180910390a45050565b600061054083600160a060020a038416610bbc565b606060006108fb836002611373565b610906906002611392565b67ffffffffffffffff81111561091e5761091e610fde565b6040519080825280601f01601f191660200182016040528015610948576020820181803683370190505b5090507f30000000000000000000000000000000000000000000000000000000000000008160008151811061097f5761097f6112e5565b6020010190600160f860020a031916908160001a9053507f7800000000000000000000000000000000000000000000000000000000000000816001815181106109ca576109ca6112e5565b6020010190600160f860020a031916908160001a90535060006109ee846002611373565b6109f9906001611392565b90505b6001811115610a9c577f303132333435363738396162636465660000000000000000000000000000000085600f1660108110610a3a57610a3a6112e5565b1a7f010000000000000000000000000000000000000000000000000000000000000002828281518110610a6f57610a6f6112e5565b6020010190600160f860020a031916908160001a905350601090940493610a95816113aa565b90506109fc565b5083156105405760405160e560020a62461bcd02815260206004820181905260248201527f537472696e67733a20686578206c656e67746820696e73756666696369656e74604482015260640161046c565b6000600160e060020a031982167f7965db0b0000000000000000000000000000000000000000000000000000000014806102e657507f01ffc9a700000000000000000000000000000000000000000000000000000000600160e060020a03198316146102e6565b610b5f8133610c0b565b50565b610b6c8282610853565b600082815260016020526040902061031190826108d7565b610b8e8282610c72565b60008281526001602052604090206103119082610cd7565b60006105408383610cec565b60006102e6825490565b6000818152600183016020526040812054610c03575081546001818101845560008481526020808220909301849055845484825282860190935260409020919091556102e6565b5060006102e6565b610c158282610547565b61047f57610c2d81600160a060020a031660146108ec565b610c388360206108ec565b604051602001610c499291906113c1565b60408051601f198184030181529082905260e560020a62461bcd02825261046c916004016110d5565b610c7c8282610547565b1561047f57600082815260208181526040808320600160a060020a0385168085529252808320805460ff1916905551339285917ff6391f5c32d9c69d2a47ea670b442974b53935d1edc7fd64eb21e047a839171b9190a45050565b600061054083600160a060020a038416610d16565b6000826000018281548110610d0357610d036112e5565b9060005260206000200154905092915050565b60008181526001830160205260408120548015610dff576000610d3a600183611442565b8554909150600090610d4e90600190611442565b9050818114610db3576000866000018281548110610d6e57610d6e6112e5565b9060005260206000200154905080876000018481548110610d9157610d916112e5565b6000918252602080832090910192909255918252600188019052604090208390555b8554869080610dc457610dc4611459565b6001900381819060005260206000200160009055905585600101600086815260200190815260200160002060009055600193505050506102e6565b60009150506102e6565b828054610e15906112a7565b90600052602060002090601f016020900481019282610e375760008555610e7d565b82601f10610e5057805160ff1916838001178555610e7d565b82800160010185558215610e7d579182015b82811115610e7d578251825591602001919060010190610e62565b50610e89929150610e8d565b5090565b5b80821115610e895760008155600101610e8e565b600060208284031215610eb457600080fd5b8135600160e060020a03198116811461054057600080fd5b600060208284031215610ede57600080fd5b5035919050565b60008060408385031215610ef857600080fd5b823591506020830135600160a060020a0381168114610f1657600080fd5b809150509250929050565b60005b83811015610f3c578181015183820152602001610f24565b83811115610f4b576000848401525b50505050565b60008151808452610f69816020860160208601610f21565b601f01601f19169290920160200192915050565b600060208083018184528085518083526040860191506040848202870101925083870160005b82811015610fd157603f19888603018452610fbf858351610f51565b94509285019290850190600101610fa3565b5092979650505050505050565b60e060020a634e487b7102600052604160045260246000fd5b604051601f8201601f1916810167ffffffffffffffff8111828210171561102057611020610fde565b604052919050565b600082601f83011261103957600080fd5b813567ffffffffffffffff81111561105357611053610fde565b611066601f8201601f1916602001610ff7565b81815284602083860101111561107b57600080fd5b816020850160208301376000918101602001919091529392505050565b6000602082840312156110aa57600080fd5b813567ffffffffffffffff8111156110c157600080fd5b6110cd84828501611028565b949350505050565b6020815260006105406020830184610f51565b600080604083850312156110fb57600080fd5b50508035926020909101359150565b600067ffffffffffffffff82111561112457611124610fde565b5060209081020190565b600082601f83011261113f57600080fd5b8135602061115461114f8361110a565b610ff7565b8281529181028401810191818101908684111561117057600080fd5b8286015b848110156111b057803567ffffffffffffffff8111156111945760008081fd5b6111a28986838b0101611028565b845250918301918301611174565b509695505050505050565b6000806000606084860312156111d057600080fd5b833567ffffffffffffffff808211156111e857600080fd5b6111f48783880161112e565b945060209150818601358181111561120b57600080fd5b6112178882890161112e565b94505060408601358181111561122c57600080fd5b86019050601f8101871361123f57600080fd5b803561124d61114f8261110a565b8181529083028201830190838101908983111561126957600080fd5b928401925b8284101561129857833561ffff811681146112895760008081fd5b8252928401929084019061126e565b80955050505050509250925092565b6002810460018216806112bb57607f821691505b602082108114156112df5760e060020a634e487b7102600052602260045260246000fd5b50919050565b60e060020a634e487b7102600052603260045260246000fd5b60008251611310818460208701610f21565b9190910192915050565b60e060020a634e487b7102600052601160045260246000fd5b60006000198214156113475761134761131a565b5060010190565b60008261136e5760e060020a634e487b7102600052601260045260246000fd5b500690565b600081600019048311821515161561138d5761138d61131a565b500290565b600082198211156113a5576113a561131a565b500190565b6000816113b9576113b961131a565b506000190190565b7f416363657373436f6e74726f6c3a206163636f756e74200000000000000000008152600083516113f9816017850160208801610f21565b7f206973206d697373696e6720726f6c65200000000000000000000000000000006017918401918201528351611436816028840160208801610f21565b01602801949350505050565b6000828210156114545761145461131a565b500390565b60e060020a634e487b7102600052603160045260246000fdfea2646970667358221220af93bc343c081ba352b493a3d95830d3eb64e86f29989e286d417d6ee7c9f8be64736f6c634300080b00334120667269656e646c792067726f7570206f66206c6f63616c7320676976657320796f752061206d6170206f662074686520617265612e596f7520646973636f76657220616e206162616e646f6e6564206d696e696e672063616d7020616e642064656369646520746f206c6f6f6b2061726f756e6420746f20736565207768617420796f752063616e2066696e642e596f7520666f756e6420736f6d65206372617465732066756c6c206f6620737570706c6965732e596f752066616c6c20746f20796f7572206b6e65657320616e64206120766973696f6e20727573686573207468726f75676820796f7572206d696e642e20596f752061726520736f6172696e672061626f766520746865206c616e6473636170652e596f752066696e6420612064617461206469736b20636f6e7461696e696e6720747261696e696e67206d6f64756c65732e536d6f6b652072697365732066726f6d206120637261736865642061737361756c7420736869702e20596f752073656172636820746865207368697020616e642066696e6420747261696e696e67206d6f64756c65732e4120737472616e676520706f7274616c206f70656e732e20596f752063616e207365652074686520646573657274206f6e20746865206f7468657220736964652e537465616d2072697365732066726f6d20612068696464656e2067726f74746f2e2054686520686f7420737072696e6773206172652063616c6d696e6720616e64206865616c696e672e416e6369656e742065717569706d656e74207363617474657273206120726176696e652e20496e7369646520796f752066696e6420736f6d6520737570706c6965732e596f752066696e6420612068616e6466756c206f6620736d616c6c20676c6f77696e6720737972696e6765732e4120737472616e676520706f7274616c206f70656e732e20596f752063616e207365652074686520706c61696e73206f6e20746865206f7468657220736964652e5468652072656d61696e73206f662061206261747465726564207374726f6e67686f6c6420636f756c64207374696c6c2062652075736564206173206120646566656e7369766520706f736974696f6e2e4120667269656e646c79206c6f63616c2077617272696f72206368616c6c656e67657320796f7520746f20737061722e4120737472616e676520706f7274616c206f70656e732e20596f752063616e2073656520746865206d6f756e7461696e73206f6e20746865206f7468657220736964652e412073706972652073747265746368657320746f776172642074686520736b792e20596f7520636c696d6220697420616e642063616e2073656520666f72206d696c65732e596f7520646973636f766572206120646f776e65642066726569676874657220616e642073656172636820666f7220737570706c6965732e596f752066696e64206120637261736865642073636f7574207368697020616e64207365617263682074686520666c69676874206c6f677320666f72206d617020696e666f726d6174696f6e2e596f7520646973636f766572206120667269656e646c792067726f7570206f66206c6f63616c732e2054686579206368616c6c656e676520796f7520746f20612064616e6365206f66662e596f7520646973636f76657220616e2061726d6f7265642062756e6b65722c20616e6420617474656d707420746f2067657420696e736964652e4120737472616e676520706f7274616c206f70656e732e20596f752063616e2073656520746865206a756e676c65206f6e20746865206f7468657220736964652e596f75206865617220746865206c61756768746572206f66206368696c6472656e20706c6179696e672e20417320796f75206372657374206120736d616c6c2068696c6c20796f752066696e6420612076696c6c696167652e205468652076696c6c61676572732077656c636f6d6520796f7520616e64206f666665722074686569722074726962616c206d65646963696e652e596f75207374756d626c65206163726f737320612062657272792070617463682e",
  "immutableReferences": {},
  "source": "// SPDX-License-Identifier: GPL-3.0\npragma solidity >=0.7.0 <0.9.0;\n\nimport \"./CardDeck.sol\";\n\ncontract EventDeck is CardDeck {\n    constructor() CardDeck() {\n        string[] memory cards = new string[](24);\n        string[] memory descriptions = new string[](24);\n        uint16[] memory quantities = new uint16[](24);\n\n        cards[0] = \"Dance Off With Locals\";\n        descriptions[\n            0\n        ] = \"You discover a friendly group of locals. They challenge you to a dance off.\";\n        quantities[0] = 1;\n\n        cards[1] = \"Local Map Makers\";\n        descriptions[\n            1\n        ] = \"A friendly group of locals gives you a map of the area.\";\n        quantities[1] = 1;\n\n        cards[2] = \"Local Martial Contest\";\n        descriptions[2] = \"A friendly local warrior challenges you to spar.\";\n        quantities[2] = 1;\n\n        cards[3] = \"Downed Freighter\";\n        descriptions[\n            3\n        ] = \"You discover a downed freighter and search for supplies.\";\n        quantities[3] = 1;\n\n        cards[4] = \"Downed Scout Ship\";\n        descriptions[\n            4\n        ] = \"You find a crashed scout ship and search the flight logs for map information.\";\n        quantities[4] = 1;\n\n        cards[5] = \"Downed Assault Ship\";\n        descriptions[\n            5\n        ] = \"Smoke rises from a crashed assault ship. You search the ship and find training modules.\";\n        quantities[5] = 1;\n\n        cards[6] = \"Divine Vision\";\n        descriptions[\n            6\n        ] = \"You fall to your knees and a vision rushes through your mind. You are soaring above the landscape.\";\n        quantities[6] = 1;\n\n        cards[7] = \"Juicy Berries\";\n        descriptions[7] = \"You stumble across a berry patch.\";\n        quantities[7] = 1;\n\n        cards[8] = \"Abandoned Mining Camp\";\n        descriptions[\n            8\n        ] = \"You discover an abandoned mining camp and decide to look around to see what you can find.\";\n        quantities[8] = 1;\n\n        cards[9] = \"Training Module: Speed\";\n        descriptions[9] = \"You find a data disk containing training modules.\";\n        quantities[9] = 1;\n\n        cards[10] = \"Training Module: Acceleration\";\n        descriptions[10] = \"You find a data disk containing training modules.\";\n        quantities[10] = 1;\n\n        cards[11] = \"Training Module: Handling\";\n        descriptions[11] = \"You find a data disk containing training modules.\";\n        quantities[11] = 1;\n\n        cards[12] = \"Friendly Village\";\n        descriptions[\n            12\n        ] = \"You hear the laughter of children playing. As you crest a small hill you find a villiage. The villagers welcome you and offer their tribal medicine.\";\n        quantities[12] = 1;\n\n        cards[13] = \"Ancient Quarry\";\n        descriptions[\n            13\n        ] = \"Ancient equipment scatters a ravine. Inside you find some supplies.\";\n        quantities[13] = 1;\n\n        cards[14] = \"Ancient Watchtower\";\n        descriptions[\n            14\n        ] = \"A spire stretches toward the sky. You climb it and can see for miles.\";\n        quantities[14] = 1;\n\n        cards[15] = \"Ancient Fortress\";\n        descriptions[\n            15\n        ] = \"The remains of a battered stronghold could still be used as a defensive position.\";\n        quantities[15] = 1;\n\n        cards[16] = \"Weapons Cache\";\n        descriptions[\n            16\n        ] = \"You discover an armored bunker, and attempt to get inside.\";\n        quantities[16] = 1;\n\n        cards[17] = \"Mutagens\";\n        descriptions[17] = \"You find a handful of small glowing syringes.\";\n        quantities[17] = 1;\n\n        cards[18] = \"Hot Springs\";\n        descriptions[\n            18\n        ] = \"Steam rises from a hidden grotto. The hot springs are calming and healing.\";\n        quantities[18] = 1;\n\n        cards[19] = \"Desert Gateway\";\n        descriptions[\n            19\n        ] = \"A strange portal opens. You can see the desert on the other side.\";\n        quantities[19] = 1;\n\n        cards[20] = \"Jungle Gateway\";\n        descriptions[\n            20\n        ] = \"A strange portal opens. You can see the jungle on the other side.\";\n        quantities[20] = 1;\n\n        cards[21] = \"Mountain Gateway\";\n        descriptions[\n            21\n        ] = \"A strange portal opens. You can see the mountains on the other side.\";\n        quantities[21] = 1;\n\n        cards[22] = \"Plains Gateway\";\n        descriptions[\n            22\n        ] = \"A strange portal opens. You can see the plains on the other side.\";\n        quantities[22] = 1;\n\n        cards[23] = \"Supply Cache\";\n        descriptions[23] = \"You found some crates full of supplies.\";\n        quantities[23] = 1;\n\n        addCards(cards, descriptions, quantities);\n    }\n}\n",
  "sourcePath": "/Users/maxmeier/Developer/Lucky Machines/hexploration/contracts/decks/EventDeck.sol",
  "compiler": {
    "name": "solc",
    "version": "0.8.11+commit.d7f03943.Emscripten.clang"
  },
  "schemaVersion": "3.4.4",
  "updatedAt": "2022-05-24T19:11:42.825Z",
  "devdoc": {
    "kind": "dev",
    "methods": {
      "getRoleAdmin(bytes32)": {
        "details": "Returns the admin role that controls `role`. See {grantRole} and {revokeRole}. To change a role's admin, use {_setRoleAdmin}."
      },
      "getRoleMember(bytes32,uint256)": {
        "details": "Returns one of the accounts that have `role`. `index` must be a value between 0 and {getRoleMemberCount}, non-inclusive. Role bearers are not sorted in any particular way, and their ordering may change at any point. WARNING: When using {getRoleMember} and {getRoleMemberCount}, make sure you perform all queries on the same block. See the following https://forum.openzeppelin.com/t/iterating-over-elements-on-enumerableset-in-openzeppelin-contracts/2296[forum post] for more information."
      },
      "getRoleMemberCount(bytes32)": {
        "details": "Returns the number of accounts that have `role`. Can be used together with {getRoleMember} to enumerate all bearers of a role."
      },
      "grantRole(bytes32,address)": {
        "details": "Grants `role` to `account`. If `account` had not been already granted `role`, emits a {RoleGranted} event. Requirements: - the caller must have ``role``'s admin role."
      },
      "hasRole(bytes32,address)": {
        "details": "Returns `true` if `account` has been granted `role`."
      },
      "renounceRole(bytes32,address)": {
        "details": "Revokes `role` from the calling account. Roles are often managed via {grantRole} and {revokeRole}: this function's purpose is to provide a mechanism for accounts to lose their privileges if they are compromised (such as when a trusted device is misplaced). If the calling account had been revoked `role`, emits a {RoleRevoked} event. Requirements: - the caller must be `account`."
      },
      "revokeRole(bytes32,address)": {
        "details": "Revokes `role` from `account`. If `account` had been granted `role`, emits a {RoleRevoked} event. Requirements: - the caller must have ``role``'s admin role."
      },
      "supportsInterface(bytes4)": {
        "details": "See {IERC165-supportsInterface}."
      }
    },
    "version": 1
  },
  "userdoc": {
    "kind": "user",
    "methods": {},
    "version": 1
  }
}