{
  "contractName": "GameSummary",
  "abi": [
    {
      "inputs": [
        {
          "internalType": "address",
          "name": "gameBoardAddress",
          "type": "address"
        }
      ],
      "name": "boardSize",
      "outputs": [
        {
          "internalType": "uint256",
          "name": "rows",
          "type": "uint256"
        },
        {
          "internalType": "uint256",
          "name": "columns",
          "type": "uint256"
        }
      ],
      "stateMutability": "view",
      "type": "function"
    },
    {
      "inputs": [
        {
          "internalType": "address",
          "name": "gameBoardAddress",
          "type": "address"
        },
        {
          "internalType": "uint256",
          "name": "gameID",
          "type": "uint256"
        },
        {
          "internalType": "address",
          "name": "playerAddress",
          "type": "address"
        }
      ],
      "name": "isRegistered",
      "outputs": [
        {
          "internalType": "bool",
          "name": "",
          "type": "bool"
        }
      ],
      "stateMutability": "view",
      "type": "function"
    },
    {
      "inputs": [
        {
          "internalType": "address",
          "name": "gameBoardAddress",
          "type": "address"
        },
        {
          "internalType": "uint256",
          "name": "gameID",
          "type": "uint256"
        },
        {
          "internalType": "address",
          "name": "playerAddress",
          "type": "address"
        }
      ],
      "name": "getPlayerID",
      "outputs": [
        {
          "internalType": "uint256",
          "name": "playerID",
          "type": "uint256"
        }
      ],
      "stateMutability": "view",
      "type": "function"
    },
    {
      "inputs": [],
      "name": "getAvailableGameIDs",
      "outputs": [
        {
          "internalType": "uint256[]",
          "name": "",
          "type": "uint256[]"
        }
      ],
      "stateMutability": "view",
      "type": "function"
    },
    {
      "inputs": [
        {
          "internalType": "address",
          "name": "gameBoardAddress",
          "type": "address"
        },
        {
          "internalType": "uint256",
          "name": "gameID",
          "type": "uint256"
        }
      ],
      "name": "currentGameplayQueue",
      "outputs": [
        {
          "internalType": "uint256",
          "name": "",
          "type": "uint256"
        }
      ],
      "stateMutability": "view",
      "type": "function"
    },
    {
      "inputs": [
        {
          "internalType": "address",
          "name": "gameBoardAddress",
          "type": "address"
        },
        {
          "internalType": "uint256",
          "name": "gameID",
          "type": "uint256"
        }
      ],
      "name": "currentPhase",
      "outputs": [
        {
          "internalType": "string",
          "name": "phase",
          "type": "string"
        }
      ],
      "stateMutability": "view",
      "type": "function"
    },
    {
      "inputs": [
        {
          "internalType": "address",
          "name": "gameBoardAddress",
          "type": "address"
        },
        {
          "internalType": "uint256",
          "name": "gameID",
          "type": "uint256"
        }
      ],
      "name": "activeZones",
      "outputs": [
        {
          "internalType": "string[]",
          "name": "zones",
          "type": "string[]"
        },
        {
          "internalType": "uint16[]",
          "name": "tiles",
          "type": "uint16[]"
        }
      ],
      "stateMutability": "view",
      "type": "function"
    },
    {
      "inputs": [
        {
          "internalType": "address",
          "name": "gameBoardAddress",
          "type": "address"
        },
        {
          "internalType": "uint256",
          "name": "gameID",
          "type": "uint256"
        }
      ],
      "name": "landingSite",
      "outputs": [
        {
          "internalType": "string",
          "name": "",
          "type": "string"
        }
      ],
      "stateMutability": "view",
      "type": "function"
    },
    {
      "inputs": [
        {
          "internalType": "address",
          "name": "gameBoardAddress",
          "type": "address"
        },
        {
          "internalType": "uint256",
          "name": "gameID",
          "type": "uint256"
        }
      ],
      "name": "currentLocation",
      "outputs": [
        {
          "internalType": "string",
          "name": "",
          "type": "string"
        }
      ],
      "stateMutability": "view",
      "type": "function"
    },
    {
      "inputs": [
        {
          "internalType": "address",
          "name": "gameBoardAddress",
          "type": "address"
        },
        {
          "internalType": "uint256",
          "name": "gameID",
          "type": "uint256"
        }
      ],
      "name": "allPlayerLocations",
      "outputs": [
        {
          "internalType": "uint256[]",
          "name": "",
          "type": "uint256[]"
        },
        {
          "internalType": "string[]",
          "name": "",
          "type": "string[]"
        }
      ],
      "stateMutability": "view",
      "type": "function"
    },
    {
      "inputs": [
        {
          "internalType": "address",
          "name": "gameBoardAddress",
          "type": "address"
        },
        {
          "internalType": "uint256",
          "name": "gameID",
          "type": "uint256"
        }
      ],
      "name": "currentPlayerStats",
      "outputs": [
        {
          "internalType": "uint8",
          "name": "movement",
          "type": "uint8"
        },
        {
          "internalType": "uint8",
          "name": "agility",
          "type": "uint8"
        },
        {
          "internalType": "uint8",
          "name": "dexterity",
          "type": "uint8"
        }
      ],
      "stateMutability": "view",
      "type": "function"
    },
    {
      "inputs": [
        {
          "internalType": "address",
          "name": "gameBoardAddress",
          "type": "address"
        },
        {
          "internalType": "uint256",
          "name": "gameID",
          "type": "uint256"
        }
      ],
      "name": "currentHandInventory",
      "outputs": [
        {
          "internalType": "string",
          "name": "leftHandItem",
          "type": "string"
        },
        {
          "internalType": "string",
          "name": "rightHandItem",
          "type": "string"
        }
      ],
      "stateMutability": "view",
      "type": "function"
    },
    {
      "inputs": [
        {
          "internalType": "address",
          "name": "gameBoardAddress",
          "type": "address"
        },
        {
          "internalType": "uint256",
          "name": "gameID",
          "type": "uint256"
        }
      ],
      "name": "activeInventory",
      "outputs": [
        {
          "internalType": "string",
          "name": "artifact",
          "type": "string"
        },
        {
          "internalType": "string",
          "name": "status",
          "type": "string"
        },
        {
          "internalType": "string",
          "name": "relic",
          "type": "string"
        },
        {
          "internalType": "bool",
          "name": "shield",
          "type": "bool"
        },
        {
          "internalType": "bool",
          "name": "campsite",
          "type": "bool"
        }
      ],
      "stateMutability": "view",
      "type": "function"
    },
    {
      "inputs": [
        {
          "internalType": "address",
          "name": "gameBoardAddress",
          "type": "address"
        },
        {
          "internalType": "uint256",
          "name": "gameID",
          "type": "uint256"
        }
      ],
      "name": "inactiveInventory",
      "outputs": [
        {
          "internalType": "string[]",
          "name": "itemTypes",
          "type": "string[]"
        },
        {
          "internalType": "uint256[]",
          "name": "itemBalances",
          "type": "uint256[]"
        }
      ],
      "stateMutability": "view",
      "type": "function"
    }
  ],
  "bytecode": "0x613676610053600b82828239805160001a607314610046577f4e487b7100000000000000000000000000000000000000000000000000000000600052600060045260246000fd5b30600052607381538281f3fe73000000000000000000000000000000000000000030146080604052600436106100d85760003560e060020a90048063ab00df6c1161008a578063ab00df6c146101be578063b0be1afa146101d1578063cabd6fda146101f2578063e569d33a14610215578063ee203a8e14610236578063f59bf9031461025e578063f8ffdfcc1461028257600080fd5b80632f874fe0146100dd57806330f7337a146101195780636ee1173e1461013a5780638191e06214610149578063821ba3a11461016a57806386599da81461018a578063a75d3f87146101ab575b600080fd5b6100f06100eb366004612ff9565b610295565b6040805160ff948516815292841660208401529216918101919091526060015b60405180910390f35b61012c610127366004613025565b6104b1565b604051908152602001610110565b606060405161011091906130a2565b61015c610157366004612ff9565b6105b3565b604051610110929190613168565b61017d610178366004612ff9565b610838565b604051610110919061318d565b61019d610198366004612ff9565b6108c8565b6040516101109291906131a0565b61017d6101b9366004612ff9565b61183d565b61012c6101cc366004612ff9565b611a2a565b6101e46101df366004612ff9565b611b25565b6040516101109291906131c5565b610205610200366004613025565b611edb565b6040519015158152602001610110565b610228610223366004612ff9565b611fd3565b6040516101109291906131ea565b610249610244366004613238565b6123cc565b60408051928352602083019190915201610110565b61027161026c366004612ff9565b6124a8565b604051610110959493929190613255565b61017d610290366004612ff9565b612d1b565b600080600080859050600081600160a060020a031663a0ed600d6040518163ffffffff1660e060020a028152600401602060405180830381865afa1580156102e1573d6000803e3d6000fd5b505050506040513d601f19601f8201168201806040525081019061030591906132a8565b6040517ffdf5a31c000000000000000000000000000000000000000000000000000000008152909150600160a060020a0382169063fdf5a31c9061034f90899033906004016132c5565b602060405180830381865afa15801561036c573d6000803e3d6000fd5b505050506040513d601f19601f8201168201806040525081019061039091906132dc565b6040517fca318967000000000000000000000000000000000000000000000000000000008152909550600160a060020a0382169063ca318967906103da90899033906004016132c5565b602060405180830381865afa1580156103f7573d6000803e3d6000fd5b505050506040513d601f19601f8201168201806040525081019061041b91906132dc565b6040517f989c11a9000000000000000000000000000000000000000000000000000000008152909450600160a060020a0382169063989c11a99061046590899033906004016132c5565b602060405180830381865afa158015610482573d6000803e3d6000fd5b505050506040513d601f19601f820116820180604052508101906104a691906132dc565b925050509250925092565b600080849050600081600160a060020a031663c06dea4e6040518163ffffffff1660e060020a028152600401602060405180830381865afa1580156104fa573d6000803e3d6000fd5b505050506040513d601f19601f8201168201806040525081019061051e91906132a8565b6040517fbca7caa0000000000000000000000000000000000000000000000000000000008152909150600160a060020a0382169063bca7caa09061056890889088906004016132c5565b602060405180830381865afa158015610585573d6000803e3d6000fd5b505050506040513d601f19601f820116820180604052508101906105a991906132ff565b9695505050505050565b6060806000849050600081600160a060020a031663c06dea4e6040518163ffffffff1660e060020a028152600401602060405180830381865afa1580156105fe573d6000803e3d6000fd5b505050506040513d601f19601f8201168201806040525081019061062291906132a8565b6040517fb77ff41100000000000000000000000000000000000000000000000000000000815260048101879052909150600090600160a060020a0383169063b77ff41190602401602060405180830381865afa158015610686573d6000803e3d6000fd5b505050506040513d601f19601f820116820180604052508101906106aa91906132ff565b905060008167ffffffffffffffff8111156106c7576106c7613318565b6040519080825280602002602001820160405280156106f0578160200160208202803683370190505b50905060008267ffffffffffffffff81111561070e5761070e613318565b60405190808252806020026020018201604052801561074157816020015b606081526020019060019003908161072c5790505b50905060005b838110156108295761075a81600161334a565b83828151811061076c5761076c613362565b6020908102919091010152600160a060020a03861663d75e79808a61079284600161334a565b60405160e060020a63ffffffff851602815260048101929092526024820152604401600060405180830381865afa1580156107d1573d6000803e3d6000fd5b505050506040513d6000823e601f3d908101601f191682016040526107f99190810190613418565b82828151811061080b5761080b613362565b602002602001018190525080806108219061344d565b915050610747565b50909890975095505050505050565b6040517feb33983d00000000000000000000000000000000000000000000000000000000815260048101829052606090600160a060020a0384169063eb33983d90602401600060405180830381865afa158015610899573d6000803e3d6000fd5b505050506040513d6000823e601f3d908101601f191682016040526108c19190810190613418565b9392505050565b6060806000849050600081600160a060020a031663c06dea4e6040518163ffffffff1660e060020a028152600401602060405180830381865afa158015610913573d6000803e3d6000fd5b505050506040513d601f19601f8201168201806040525081019061093791906132a8565b9050600082600160a060020a031663cca369966040518163ffffffff1660e060020a028152600401602060405180830381865afa15801561097c573d6000803e3d6000fd5b505050506040513d601f19601f820116820180604052508101906109a091906132a8565b60408051602380825261048082019092529192506020820161046080368337019050506040805160238082526104808201909252919550816020015b60608152602001906001900390816109dc5790505094506040518060400160405280600a81526020017f536d616c6c20416d6d6f0000000000000000000000000000000000000000000081525085600081518110610a3c57610a3c613362565b60200260200101819052506040518060400160405280600a81526020017f4c6172676520416d6d6f0000000000000000000000000000000000000000000081525085600181518110610a9057610a90613362565b60200260200101819052506040518060400160405280600981526020017f426174746572696573000000000000000000000000000000000000000000000081525085600281518110610ae457610ae4613362565b60200260200101819052506040518060400160405280600681526020017f536869656c64000000000000000000000000000000000000000000000000000081525085600381518110610b3857610b38613362565b60200260200101819052506040518060400160405280600681526020017f506f7274616c000000000000000000000000000000000000000000000000000081525085600481518110610b8c57610b8c613362565b60200260200101819052506040518060400160405280600281526020017f4f6e00000000000000000000000000000000000000000000000000000000000081525085600581518110610be057610be0613362565b60200260200101819052506040518060400160405280600381526020017f4f6666000000000000000000000000000000000000000000000000000000000081525085600681518110610c3457610c34613362565b60200260200101819052506040518060400160405280600c81526020017f527573747920446167676572000000000000000000000000000000000000000081525085600781518110610c8857610c88613362565b60200260200101819052506040518060400160405280600b81526020017f52757374792053776f726400000000000000000000000000000000000000000081525085600881518110610cdc57610cdc613362565b60200260200101819052506040518060400160405280600c81526020017f527573747920506973746f6c000000000000000000000000000000000000000081525085600981518110610d3057610d30613362565b60200260200101819052506040518060400160405280600b81526020017f5275737479205269666c6500000000000000000000000000000000000000000081525085600a81518110610d8457610d84613362565b60200260200101819052506040518060400160405280600c81526020017f5368696e7920446167676572000000000000000000000000000000000000000081525085600b81518110610dd857610dd8613362565b60200260200101819052506040518060400160405280600b81526020017f5368696e792053776f726400000000000000000000000000000000000000000081525085600c81518110610e2c57610e2c613362565b60200260200101819052506040518060400160405280600c81526020017f5368696e7920506973746f6c000000000000000000000000000000000000000081525085600d81518110610e8057610e80613362565b60200260200101819052506040518060400160405280600b81526020017f5368696e79205269666c6500000000000000000000000000000000000000000081525085600e81518110610ed457610ed4613362565b60200260200101819052506040518060400160405280600c81526020017f4c6173657220446167676572000000000000000000000000000000000000000081525085600f81518110610f2857610f28613362565b60200260200101819052506040518060400160405280600b81526020017f4c617365722053776f726400000000000000000000000000000000000000000081525085601081518110610f7c57610f7c613362565b60200260200101819052506040518060400160405280600c81526020017f4c6173657220506973746f6c000000000000000000000000000000000000000081525085601181518110610fd057610fd0613362565b60200260200101819052506040518060400160405280600b81526020017f4c61736572205269666c650000000000000000000000000000000000000000008152508560128151811061102457611024613362565b60200260200101819052506040518060400160405280600a81526020017f476c6f7720737469636b000000000000000000000000000000000000000000008152508560138151811061107857611078613362565b60200260200101819052506040518060400160405280600a81526020017f466c6173686c6967687400000000000000000000000000000000000000000000815250856014815181106110cc576110cc613362565b60200260200101819052506040518060400160405280600b81526020017f466c6f6f64206c696768740000000000000000000000000000000000000000008152508560158151811061112057611120613362565b60200260200101819052506040518060400160405280601381526020017f4e69676874766973696f6e20476f67676c6573000000000000000000000000008152508560168151811061117457611174613362565b60200260200101819052506040518060400160405280600f81526020017f506572736f6e616c20536869656c640000000000000000000000000000000000815250856017815181106111c8576111c8613362565b60200260200101819052506040518060400160405280600d81526020017f427562626c6520536869656c64000000000000000000000000000000000000008152508560188151811061121c5761121c613362565b60200260200101819052506040518060400160405280600c81526020017f46726167204772656e61646500000000000000000000000000000000000000008152508560198151811061127057611270613362565b60200260200101819052506040518060400160405280600c81526020017f46697265204772656e616465000000000000000000000000000000000000000081525085601a815181106112c4576112c4613362565b60200260200101819052506040518060400160405280600d81526020017f53686f636b204772656e6164650000000000000000000000000000000000000081525085601b8151811061131857611318613362565b60200260200101819052506040518060400160405280600981526020017f4845204d6f72746172000000000000000000000000000000000000000000000081525085601c8151811061136c5761136c613362565b60200260200101819052506040518060400160405280601181526020017f496e63656e6469617279204d6f7274617200000000000000000000000000000081525085601d815181106113c0576113c0613362565b60200260200101819052506040518060400160405280600a81526020017f454d50204d6f727461720000000000000000000000000000000000000000000081525085601e8151811061141457611414613362565b60200260200101819052506040518060400160405280600b81526020017f506f77657220476c6f766500000000000000000000000000000000000000000081525085601f8151811061146857611468613362565b6020026020010181905250604051806060016040528060218152602001613620602191398560208151811061149f5761149f613362565b60200260200101819052506040518060400160405280600f81526020017f54656c65706f72746572205061636b0000000000000000000000000000000000815250856021815181106114f3576114f3613362565b60200260200101819052506040518060400160405280600881526020017f43616d70736974650000000000000000000000000000000000000000000000008152508560228151811061154757611547613362565b6020026020010181905250600082600160a060020a031663bca7caa088336040518363ffffffff1660e060020a0281526004016115859291906132c5565b602060405180830381865afa1580156115a2573d6000803e3d6000fd5b505050506040513d601f19601f820116820180604052508101906115c691906132ff565b6040517f01d37be4000000000000000000000000000000000000000000000000000000008152909150600160a060020a038316906301d37be4906116139084906003908c90600401613481565b602060405180830381865afa158015611630573d6000803e3d6000fd5b505050506040513d601f19601f8201168201806040525081019061165491906134ba565b1561183257600082600160a060020a031663a318d45c6040518163ffffffff1660e060020a028152600401602060405180830381865afa15801561169c573d6000803e3d6000fd5b505050506040513d601f19601f820116820180604052508101906116c091906132a8565b9050600081600160a060020a031663c853a1d06040518163ffffffff1660e060020a028152600401600060405180830381865afa158015611705573d6000803e3d6000fd5b505050506040513d6000823e601f3d908101601f1916820160405261172d91908101906134dc565b905060005b875181101561182e5781818151811061174d5761174d613362565b602002602001015189828151811061176757611767613362565b602002602001018190525082600160a060020a0316634db157d083838151811061179357611793613362565b60200260200101518c876040518463ffffffff1660e060020a0281526004016117be9392919061359e565b602060405180830381865afa1580156117db573d6000803e3d6000fd5b505050506040513d601f19601f820116820180604052508101906117ff91906132ff565b88828151811061181157611811613362565b6020908102919091010152806118268161344d565b915050611732565b5050505b505050509250929050565b60606000839050600081600160a060020a031663cca369966040518163ffffffff1660e060020a028152600401602060405180830381865afa158015611887573d6000803e3d6000fd5b505050506040513d601f19601f820116820180604052508101906118ab91906132a8565b9050600081600160a060020a031663a906dfd16040518163ffffffff1660e060020a028152600401602060405180830381865afa1580156118f0573d6000803e3d6000fd5b505050506040513d601f19601f8201168201806040525081019061191491906132a8565b6040517f4db157d0000000000000000000000000000000000000000000000000000000008152606060048201526003606482015260e860020a624461790260848201526024810187905260016044820152600160a060020a039190911690634db157d09060a401602060405180830381865afa158015611998573d6000803e3d6000fd5b505050506040513d601f19601f820116820180604052508101906119bc91906132ff565b905060008111611a01576040518060400160405280600581526020017f4e696768740000000000000000000000000000000000000000000000000000008152506105a9565b60405180604001604052806003815260200160e860020a62446179028152509695505050505050565b600080839050600081600160a060020a031663cefe23296040518163ffffffff1660e060020a028152600401602060405180830381865afa158015611a73573d6000803e3d6000fd5b505050506040513d601f19601f82011682018060405250810190611a9791906132a8565b6040517f861814e200000000000000000000000000000000000000000000000000000000815260048101869052909150600160a060020a0382169063861814e290602401602060405180830381865afa158015611af8573d6000803e3d6000fd5b505050506040513d601f19601f82011682018060405250810190611b1c91906132ff565b95945050505050565b6060806000849050600081600160a060020a031663a0ed600d6040518163ffffffff1660e060020a028152600401602060405180830381865afa158015611b70573d6000803e3d6000fd5b505050506040513d601f19601f82011682018060405250810190611b9491906132a8565b9050611d5081600160a060020a031663a082936d87336040518363ffffffff1660e060020a028152600401611bca9291906132c5565b600060405180830381865afa158015611be7573d6000803e3d6000fd5b505050506040513d6000823e601f3d908101601f19168201604052611c0f9190810190613418565b83600160a060020a031663cca369966040518163ffffffff1660e060020a028152600401602060405180830381865afa158015611c50573d6000803e3d6000fd5b505050506040513d601f19601f82011682018060405250810190611c7491906132a8565b8785600160a060020a031663c06dea4e6040518163ffffffff1660e060020a028152600401602060405180830381865afa158015611cb6573d6000803e3d6000fd5b505050506040513d601f19601f82011682018060405250810190611cda91906132a8565b600160a060020a031663bca7caa08a336040518363ffffffff1660e060020a028152600401611d0a9291906132c5565b602060405180830381865afa158015611d27573d6000803e3d6000fd5b505050506040513d601f19601f82011682018060405250810190611d4b91906132ff565b612e74565b611d695760405180602001604052806000815250611df5565b6040517fa082936d000000000000000000000000000000000000000000000000000000008152600160a060020a0382169063a082936d90611db090889033906004016132c5565b600060405180830381865afa158015611dcd573d6000803e3d6000fd5b505050506040513d6000823e601f3d908101601f19168201604052611df59190810190613418565b9350611e2b81600160a060020a0316636662537087336040518363ffffffff1660e060020a028152600401611bca9291906132c5565b611e445760405180602001604052806000815250611ed0565b6040517f66625370000000000000000000000000000000000000000000000000000000008152600160a060020a03821690636662537090611e8b90889033906004016132c5565b600060405180830381865afa158015611ea8573d6000803e3d6000fd5b505050506040513d6000823e601f3d908101601f19168201604052611ed09190810190613418565b925050509250929050565b600080849050600081600160a060020a031663c06dea4e6040518163ffffffff1660e060020a028152600401602060405180830381865afa158015611f24573d6000803e3d6000fd5b505050506040513d601f19601f82011682018060405250810190611f4891906132a8565b6040517fb81f6e18000000000000000000000000000000000000000000000000000000008152909150600160a060020a0382169063b81f6e1890611f9290889088906004016132c5565b602060405180830381865afa158015611faf573d6000803e3d6000fd5b505050506040513d601f19601f820116820180604052508101906105a991906134ba565b6060806000849050600081600160a060020a0316633ca61a586040518163ffffffff1660e060020a028152600401600060405180830381865afa15801561201e573d6000803e3d6000fd5b505050506040513d6000823e601f3d908101601f1916820160405261204691908101906134dc565b90506000805b82518110156121055783600160a060020a031663ed3719a58885848151811061207757612077613362565b60200260200101516040518363ffffffff1660e060020a02815260040161209f9291906135c3565b602060405180830381865afa1580156120bc573d6000803e3d6000fd5b505050506040513d601f19601f820116820180604052508101906120e091906134ba565b156120f357816120ef816135dc565b9250505b806120fd8161344d565b91505061204c565b508061ffff1667ffffffffffffffff81111561212357612123613318565b60405190808252806020026020018201604052801561215657816020015b60608152602001906001900390816121415790505b5094508061ffff1667ffffffffffffffff81111561217657612176613318565b60405190808252806020026020018201604052801561219f578160200160208202803683370190505b5093506000905060005b82518110156118325783600160a060020a031663ed3719a5888584815181106121d4576121d4613362565b60200260200101516040518363ffffffff1660e060020a0281526004016121fc9291906135c3565b602060405180830381865afa158015612219573d6000803e3d6000fd5b505050506040513d601f19601f8201168201806040525081019061223d91906134ba565b156123ba5782818151811061225457612254613362565b6020026020010151868361ffff168151811061227257612272613362565b6020026020010181905250600084600160a060020a03166335e333e46040518163ffffffff1660e060020a028152600401602060405180830381865afa1580156122c0573d6000803e3d6000fd5b505050506040513d601f19601f820116820180604052508101906122e491906132a8565b905080600160a060020a03166330821b9c8986858151811061230857612308613362565b60200260200101516040518363ffffffff1660e060020a0281526004016123309291906135c3565b602060405180830381865afa15801561234d573d6000803e3d6000fd5b505050506040513d601f19601f8201168201806040525081019061237191906135fe565b600b81111561238257612382613468565b868461ffff168151811061239857612398613362565b61ffff90921660209283029190910190910152826123b5816135dc565b935050505b806123c48161344d565b9150506121a9565b600080600083905080600160a060020a031663108c5e146040518163ffffffff1660e060020a028152600401602060405180830381865afa158015612415573d6000803e3d6000fd5b505050506040513d601f19601f8201168201806040525081019061243991906132ff565b925080600160a060020a03166338b145df6040518163ffffffff1660e060020a028152600401602060405180830381865afa15801561247c573d6000803e3d6000fd5b505050506040513d601f19601f820116820180604052508101906124a091906132ff565b915050915091565b60608060606000806000879050600081600160a060020a031663a0ed600d6040518163ffffffff1660e060020a028152600401602060405180830381865afa1580156124f8573d6000803e3d6000fd5b505050506040513d601f19601f8201168201806040525081019061251c91906132a8565b90506126d881600160a060020a031663a2e8a8918a336040518363ffffffff1660e060020a0281526004016125529291906132c5565b600060405180830381865afa15801561256f573d6000803e3d6000fd5b505050506040513d6000823e601f3d908101601f191682016040526125979190810190613418565b83600160a060020a031663cca369966040518163ffffffff1660e060020a028152600401602060405180830381865afa1580156125d8573d6000803e3d6000fd5b505050506040513d601f19601f820116820180604052508101906125fc91906132a8565b8a85600160a060020a031663c06dea4e6040518163ffffffff1660e060020a028152600401602060405180830381865afa15801561263e573d6000803e3d6000fd5b505050506040513d601f19601f8201168201806040525081019061266291906132a8565b600160a060020a031663bca7caa08d336040518363ffffffff1660e060020a0281526004016126929291906132c5565b602060405180830381865afa1580156126af573d6000803e3d6000fd5b505050506040513d601f19601f820116820180604052508101906126d391906132ff565b612f59565b6126f1576040518060200160405280600081525061277d565b6040517fa2e8a891000000000000000000000000000000000000000000000000000000008152600160a060020a0382169063a2e8a89190612738908b9033906004016132c5565b600060405180830381865afa158015612755573d6000803e3d6000fd5b505050506040513d6000823e601f3d908101601f1916820160405261277d9190810190613418565b965061293981600160a060020a031663db1698b28a336040518363ffffffff1660e060020a0281526004016127b39291906132c5565b600060405180830381865afa1580156127d0573d6000803e3d6000fd5b505050506040513d6000823e601f3d908101601f191682016040526127f89190810190613418565b83600160a060020a031663cca369966040518163ffffffff1660e060020a028152600401602060405180830381865afa158015612839573d6000803e3d6000fd5b505050506040513d601f19601f8201168201806040525081019061285d91906132a8565b8a85600160a060020a031663c06dea4e6040518163ffffffff1660e060020a028152600401602060405180830381865afa15801561289f573d6000803e3d6000fd5b505050506040513d601f19601f820116820180604052508101906128c391906132a8565b600160a060020a031663bca7caa08d336040518363ffffffff1660e060020a0281526004016128f39291906132c5565b602060405180830381865afa158015612910573d6000803e3d6000fd5b505050506040513d601f19601f8201168201806040525081019061293491906132ff565b612f9d565b61295257604051806020016040528060008152506129de565b6040517fdb1698b2000000000000000000000000000000000000000000000000000000008152600160a060020a0382169063db1698b290612999908b9033906004016132c5565b600060405180830381865afa1580156129b6573d6000803e3d6000fd5b505050506040513d6000823e601f3d908101601f191682016040526129de9190810190613418565b9550612b5481600160a060020a03166385c4f91d8a336040518363ffffffff1660e060020a028152600401612a149291906132c5565b600060405180830381865afa158015612a31573d6000803e3d6000fd5b505050506040513d6000823e601f3d908101601f19168201604052612a599190810190613418565b83600160a060020a031663cca369966040518163ffffffff1660e060020a028152600401602060405180830381865afa158015612a9a573d6000803e3d6000fd5b505050506040513d601f19601f82011682018060405250810190612abe91906132a8565b8a85600160a060020a031663c06dea4e6040518163ffffffff1660e060020a028152600401602060405180830381865afa158015612b00573d6000803e3d6000fd5b505050506040513d601f19601f82011682018060405250810190612b2491906132a8565b600160a060020a031663bca7caa08d336040518363ffffffff1660e060020a028152600401611d0a9291906132c5565b612b6d5760405180602001604052806000815250612bf9565b6040517f85c4f91d000000000000000000000000000000000000000000000000000000008152600160a060020a038216906385c4f91d90612bb4908b9033906004016132c5565b600060405180830381865afa158015612bd1573d6000803e3d6000fd5b505050506040513d6000823e601f3d908101601f19168201604052612bf99190810190613418565b9450612c756040518060400160405280600681526020017f536869656c64000000000000000000000000000000000000000000000000000081525083600160a060020a031663cca369966040518163ffffffff1660e060020a028152600401602060405180830381865afa158015612a9a573d6000803e3d6000fd5b612c80576000612c83565b60015b9350612cff6040518060400160405280600881526020017f43616d707369746500000000000000000000000000000000000000000000000081525083600160a060020a031663cca369966040518163ffffffff1660e060020a028152600401602060405180830381865afa158015612a9a573d6000803e3d6000fd5b612d0a576000612d0d565b60015b925050509295509295909350565b60606000839050600081600160a060020a031663c06dea4e6040518163ffffffff1660e060020a028152600401602060405180830381865afa158015612d65573d6000803e3d6000fd5b505050506040513d601f19601f82011682018060405250810190612d8991906132a8565b905081600160a060020a031663d75e79808583600160a060020a031663bca7caa088336040518363ffffffff1660e060020a028152600401612dcc9291906132c5565b602060405180830381865afa158015612de9573d6000803e3d6000fd5b505050506040513d601f19601f82011682018060405250810190612e0d91906132ff565b60405160e060020a63ffffffff851602815260048101929092526024820152604401600060405180830381865afa158015612e4c573d6000803e3d6000fd5b505050506040513d6000823e601f3d908101601f19168201604052611b1c9190810190613418565b60008084600160a060020a031663a318d45c6040518163ffffffff1660e060020a028152600401602060405180830381865afa158015612eb8573d6000803e3d6000fd5b505050506040513d601f19601f82011682018060405250810190612edc91906132a8565b600160a060020a0316634db157d08786866040518463ffffffff1660e060020a028152600401612f0e9392919061359e565b602060405180830381865afa158015612f2b573d6000803e3d6000fd5b505050506040513d601f19601f82011682018060405250810190612f4f91906132ff565b1195945050505050565b60008084600160a060020a03166345d339d96040518163ffffffff1660e060020a028152600401602060405180830381865afa158015612eb8573d6000803e3d6000fd5b60008084600160a060020a031663c1cdbb3c6040518163ffffffff1660e060020a028152600401602060405180830381865afa158015612eb8573d6000803e3d6000fd5b600160a060020a0381168114612ff657600080fd5b50565b6000806040838503121561300c57600080fd5b823561301781612fe1565b946020939093013593505050565b60008060006060848603121561303a57600080fd5b833561304581612fe1565b925060208401359150604084013561305c81612fe1565b809150509250925092565b600081518084526020808501945080840160005b838110156130975781518752958201959082019060010161307b565b509495945050505050565b6020815260006108c16020830184613067565b60005b838110156130d05781810151838201526020016130b8565b838111156130df576000848401525b50505050565b600081518084526130fd8160208601602086016130b5565b601f01601f19169290920160200192915050565b6000828251808552602080860195508081830284010181860160005b8481101561315b57601f198684030189526131498383516130e5565b9884019892509083019060010161312d565b5090979650505050505050565b60408152600061317b6040830185613067565b8281036020840152611b1c8185613111565b6020815260006108c160208301846130e5565b6040815260006131b36040830185613111565b8281036020840152611b1c8185613067565b6040815260006131d860408301856130e5565b8281036020840152611b1c81856130e5565b6040815260006131fd6040830185613111565b82810360208481019190915284518083528582019282019060005b8181101561315b57845161ffff1683529383019391830191600101613218565b60006020828403121561324a57600080fd5b81356108c181612fe1565b60a08152600061326860a08301886130e5565b828103602084015261327a81886130e5565b9050828103604084015261328e81876130e5565b941515606084015250509015156080909101529392505050565b6000602082840312156132ba57600080fd5b81516108c181612fe1565b918252600160a060020a0316602082015260400190565b6000602082840312156132ee57600080fd5b815160ff811681146108c157600080fd5b60006020828403121561331157600080fd5b5051919050565b60e060020a634e487b7102600052604160045260246000fd5b60e060020a634e487b7102600052601160045260246000fd5b6000821982111561335d5761335d613331565b500190565b60e060020a634e487b7102600052603260045260246000fd5b604051601f8201601f1916810167ffffffffffffffff811182821017156133a4576133a4613318565b604052919050565b600082601f8301126133bd57600080fd5b815167ffffffffffffffff8111156133d7576133d7613318565b6133ea601f8201601f191660200161337b565b8181528460208386010111156133ff57600080fd5b6134108260208301602087016130b5565b949350505050565b60006020828403121561342a57600080fd5b815167ffffffffffffffff81111561344157600080fd5b613410848285016133ac565b600060001982141561346157613461613331565b5060010190565b60e060020a634e487b7102600052602160045260246000fd5b83815260608101600784106134a95760e060020a634e487b7102600052602160045260246000fd5b602082019390935260400152919050565b6000602082840312156134cc57600080fd5b815180151581146108c157600080fd5b600060208083850312156134ef57600080fd5b825167ffffffffffffffff8082111561350757600080fd5b818501915085601f83011261351b57600080fd5b81518181111561352d5761352d613318565b83810261353b85820161337b565b918252838101850191858101908984111561355557600080fd5b86860192505b83831015613591578251858111156135735760008081fd5b6135818b89838a01016133ac565b835250918601919086019061355b565b9998505050505050505050565b6060815260006135b160608301866130e5565b60208301949094525060400152919050565b82815260406020820152600061341060408301846130e5565b600061ffff808316818114156135f4576135f4613331565b6001019392505050565b60006020828403121561361057600080fd5b8151600c81106108c157600080fdfe52656d6f7465204c61756e636820616e642047756964616e63652053797374656da264697066735822122082ac6fa6be6f64e3bff33cb000df27d6912349727b97aae46cf00f57b5a03cc164736f6c634300080b0033",
  "immutableReferences": {},
  "source": "// SPDX-License-Identifier: GPL-3.0\npragma solidity >=0.8.0;\n\nimport \"../HexplorationBoard.sol\";\nimport \"../HexplorationZone.sol\";\nimport \"@luckymachines/game-core/contracts/src/v0.0/PlayerRegistry.sol\";\nimport \"./CharacterCard.sol\";\nimport \"../tokens/TokenInventory.sol\";\nimport \"../HexplorationQueue.sol\";\n\nlibrary GameSummary {\n    // enemies\n    // tokens\n    function boardSize(address gameBoardAddress)\n        public\n        view\n        returns (uint256 rows, uint256 columns)\n    {\n        HexplorationBoard board = HexplorationBoard(gameBoardAddress);\n        rows = board.gridHeight();\n        columns = board.gridWidth();\n    }\n\n    function isRegistered(\n        address gameBoardAddress,\n        uint256 gameID,\n        address playerAddress\n    ) public view returns (bool) {\n        HexplorationBoard board = HexplorationBoard(gameBoardAddress);\n        PlayerRegistry pr = PlayerRegistry(board.prAddress());\n        return pr.isRegistered(gameID, playerAddress);\n    }\n\n    function getPlayerID(\n        address gameBoardAddress,\n        uint256 gameID,\n        address playerAddress\n    ) public view returns (uint256 playerID) {\n        HexplorationBoard board = HexplorationBoard(gameBoardAddress);\n        PlayerRegistry pr = PlayerRegistry(board.prAddress());\n        playerID = pr.playerID(gameID, playerAddress);\n    }\n\n    function getAvailableGameIDs() public view returns (uint256[] memory) {\n        // TODO: return available game IDs\n    }\n\n    function currentGameplayQueue(address gameBoardAddress, uint256 gameID)\n        public\n        view\n        returns (uint256)\n    {\n        HexplorationBoard board = HexplorationBoard(gameBoardAddress);\n        HexplorationQueue q = HexplorationQueue(board.gameplayQueue());\n        return q.queueID(gameID);\n    }\n\n    function currentPhase(address gameBoardAddress, uint256 gameID)\n        public\n        view\n        returns (string memory phase)\n    {\n        HexplorationBoard board = HexplorationBoard(gameBoardAddress);\n        TokenInventory tokens = TokenInventory(board.tokenInventory());\n\n        uint256 dayBalance = tokens.DAY_NIGHT_TOKEN().balance(\"Day\", gameID, 1);\n        phase = dayBalance > 0 ? \"Day\" : \"Night\";\n    }\n\n    function activeZones(address gameBoardAddress, uint256 gameID)\n        public\n        view\n        returns (string[] memory zones, uint16[] memory tiles)\n    {\n        HexplorationBoard board = HexplorationBoard(gameBoardAddress);\n        string[] memory allZones = board.getZoneAliases();\n\n        uint16 activeZoneCount = 0;\n        for (uint256 i = 0; i < allZones.length; i++) {\n            if (board.zoneEnabled(gameID, allZones[i])) {\n                activeZoneCount++;\n            }\n        }\n        zones = new string[](activeZoneCount);\n        tiles = new uint16[](activeZoneCount);\n\n        activeZoneCount = 0;\n        for (uint256 i = 0; i < allZones.length; i++) {\n            if (board.zoneEnabled(gameID, allZones[i])) {\n                zones[activeZoneCount] = allZones[i];\n                HexplorationZone hexZone = HexplorationZone(\n                    board.hexZoneAddress()\n                );\n                tiles[activeZoneCount] = uint16(\n                    hexZone.tile(gameID, allZones[i])\n                );\n                activeZoneCount++;\n            }\n        }\n    }\n\n    function landingSite(address gameBoardAddress, uint256 gameID)\n        public\n        view\n        returns (string memory)\n    {\n        return HexplorationBoard(gameBoardAddress).initialPlayZone(gameID);\n    }\n\n    function currentLocation(address gameBoardAddress, uint256 gameID)\n        public\n        view\n        returns (string memory)\n    {\n        HexplorationBoard board = HexplorationBoard(gameBoardAddress);\n        PlayerRegistry pr = PlayerRegistry(board.prAddress());\n        return board.currentPlayZone(gameID, pr.playerID(gameID, msg.sender));\n    }\n\n    function allPlayerLocations(address gameBoardAddress, uint256 gameID)\n        public\n        view\n        returns (uint256[] memory, string[] memory)\n    {\n        HexplorationBoard board = HexplorationBoard(gameBoardAddress);\n        PlayerRegistry pr = PlayerRegistry(board.prAddress());\n        uint256 totalRegistrations = pr.totalRegistrations(gameID);\n        uint256[] memory playerIDs = new uint256[](totalRegistrations);\n        string[] memory playerZones = new string[](totalRegistrations);\n        for (uint256 i = 0; i < totalRegistrations; i++) {\n            playerIDs[i] = i + 1;\n            playerZones[i] = board.currentPlayZone(gameID, i + 1);\n        }\n        return (playerIDs, playerZones);\n    }\n\n    function inventoryItemExists(\n        string memory tokenType,\n        address inventoryAddress,\n        uint256 gameID,\n        uint256 holderID\n    ) internal view returns (bool) {\n        return\n            TokenInventory(inventoryAddress).ITEM_TOKEN().balance(\n                tokenType,\n                gameID,\n                holderID\n            ) > 0;\n    }\n\n    function inventoryArtifactExists(\n        string memory tokenType,\n        address inventoryAddress,\n        uint256 gameID,\n        uint256 holderID\n    ) internal view returns (bool) {\n        return\n            TokenInventory(inventoryAddress).ARTIFACT_TOKEN().balance(\n                tokenType,\n                gameID,\n                holderID\n            ) > 0;\n    }\n\n    function inventoryStatusExists(\n        string memory tokenType,\n        address inventoryAddress,\n        uint256 gameID,\n        uint256 holderID\n    ) internal view returns (bool) {\n        return\n            TokenInventory(inventoryAddress).PLAYER_STATUS_TOKEN().balance(\n                tokenType,\n                gameID,\n                holderID\n            ) > 0;\n    }\n\n    function currentPlayerStats(address gameBoardAddress, uint256 gameID)\n        public\n        view\n        returns (\n            uint8 movement,\n            uint8 agility,\n            uint8 dexterity\n        )\n    {\n        HexplorationBoard board = HexplorationBoard(gameBoardAddress);\n        CharacterCard cc = CharacterCard(board.characterCard());\n        movement = cc.movement(gameID, msg.sender);\n        agility = cc.agility(gameID, msg.sender);\n        dexterity = cc.dexterity(gameID, msg.sender);\n    }\n\n    function currentHandInventory(address gameBoardAddress, uint256 gameID)\n        public\n        view\n        returns (string memory leftHandItem, string memory rightHandItem)\n    {\n        HexplorationBoard board = HexplorationBoard(gameBoardAddress);\n        CharacterCard cc = CharacterCard(board.characterCard());\n        leftHandItem = inventoryItemExists(\n            cc.leftHandItem(gameID, msg.sender),\n            board.tokenInventory(),\n            gameID,\n            PlayerRegistry(board.prAddress()).playerID(gameID, msg.sender)\n        )\n            ? cc.leftHandItem(gameID, msg.sender)\n            : \"\";\n\n        rightHandItem = inventoryItemExists(\n            cc.rightHandItem(gameID, msg.sender),\n            board.tokenInventory(),\n            gameID,\n            PlayerRegistry(board.prAddress()).playerID(gameID, msg.sender)\n        )\n            ? cc.rightHandItem(gameID, msg.sender)\n            : \"\";\n    }\n\n    function activeInventory(address gameBoardAddress, uint256 gameID)\n        public\n        view\n        returns (\n            string memory artifact,\n            string memory status,\n            string memory relic,\n            bool shield,\n            bool campsite\n        )\n    {\n        HexplorationBoard board = HexplorationBoard(gameBoardAddress);\n        CharacterCard cc = CharacterCard(board.characterCard());\n        artifact = inventoryArtifactExists(\n            cc.artifact(gameID, msg.sender),\n            board.tokenInventory(),\n            gameID,\n            PlayerRegistry(board.prAddress()).playerID(gameID, msg.sender)\n        )\n            ? cc.artifact(gameID, msg.sender)\n            : \"\";\n\n        status = inventoryStatusExists(\n            cc.status(gameID, msg.sender),\n            board.tokenInventory(),\n            gameID,\n            PlayerRegistry(board.prAddress()).playerID(gameID, msg.sender)\n        )\n            ? cc.status(gameID, msg.sender)\n            : \"\";\n\n        relic = inventoryItemExists(\n            cc.relic(gameID, msg.sender),\n            board.tokenInventory(),\n            gameID,\n            PlayerRegistry(board.prAddress()).playerID(gameID, msg.sender)\n        )\n            ? cc.relic(gameID, msg.sender)\n            : \"\";\n\n        shield = inventoryItemExists(\n            \"Shield\",\n            board.tokenInventory(),\n            gameID,\n            PlayerRegistry(board.prAddress()).playerID(gameID, msg.sender)\n        )\n            ? true\n            : false;\n\n        campsite = inventoryItemExists(\n            \"Campsite\",\n            board.tokenInventory(),\n            gameID,\n            PlayerRegistry(board.prAddress()).playerID(gameID, msg.sender)\n        )\n            ? true\n            : false;\n    }\n\n    function inactiveInventory(address gameBoardAddress, uint256 gameID)\n        public\n        view\n        returns (string[] memory itemTypes, uint256[] memory itemBalances)\n    {\n        HexplorationBoard board = HexplorationBoard(gameBoardAddress);\n        PlayerRegistry pr = PlayerRegistry(board.prAddress());\n        TokenInventory ti = TokenInventory(board.tokenInventory());\n        itemBalances = new uint256[](35);\n        itemTypes = new string[](35);\n        itemTypes[0] = \"Small Ammo\";\n        itemTypes[1] = \"Large Ammo\";\n        itemTypes[2] = \"Batteries\";\n        itemTypes[3] = \"Shield\";\n        itemTypes[4] = \"Portal\";\n        itemTypes[5] = \"On\";\n        itemTypes[6] = \"Off\";\n        itemTypes[7] = \"Rusty Dagger\";\n        itemTypes[8] = \"Rusty Sword\";\n        itemTypes[9] = \"Rusty Pistol\";\n        itemTypes[10] = \"Rusty Rifle\";\n        itemTypes[11] = \"Shiny Dagger\";\n        itemTypes[12] = \"Shiny Sword\";\n        itemTypes[13] = \"Shiny Pistol\";\n        itemTypes[14] = \"Shiny Rifle\";\n        itemTypes[15] = \"Laser Dagger\";\n        itemTypes[16] = \"Laser Sword\";\n        itemTypes[17] = \"Laser Pistol\";\n        itemTypes[18] = \"Laser Rifle\";\n        itemTypes[19] = \"Glow stick\";\n        itemTypes[20] = \"Flashlight\";\n        itemTypes[21] = \"Flood light\";\n        itemTypes[22] = \"Nightvision Goggles\";\n        itemTypes[23] = \"Personal Shield\";\n        itemTypes[24] = \"Bubble Shield\";\n        itemTypes[25] = \"Frag Grenade\";\n        itemTypes[26] = \"Fire Grenade\";\n        itemTypes[27] = \"Shock Grenade\";\n        itemTypes[28] = \"HE Mortar\";\n        itemTypes[29] = \"Incendiary Mortar\";\n        itemTypes[30] = \"EMP Mortar\";\n        itemTypes[31] = \"Power Glove\";\n        itemTypes[32] = \"Remote Launch and Guidance System\";\n        itemTypes[33] = \"Teleporter Pack\";\n        itemTypes[34] = \"Campsite\";\n        uint256 playerID = pr.playerID(gameID, msg.sender);\n        if (ti.holdsToken(playerID, TokenInventory.Token.Item, gameID)) {\n            Item itemToken = ti.ITEM_TOKEN();\n            string[] memory types = itemToken.getTokenTypes();\n            for (uint256 i = 0; i < itemBalances.length; i++) {\n                itemTypes[i] = types[i];\n                itemBalances[i] = itemToken.balance(types[i], gameID, playerID);\n            }\n        }\n        // uint256 campsiteBalance = ti.ITEM_TOKEN().balance(\n        //     \"Campsite\",\n        //     gameID,\n        //     playerID\n        // );\n        // itemBalances[34] = campsiteBalance;\n    }\n}\n",
  "sourcePath": "/Users/maxmeier/Developer/Lucky Machines/hexploration/contracts/state/GameSummary.sol",
  "compiler": {
    "name": "solc",
    "version": "0.8.11+commit.d7f03943.Emscripten.clang"
  },
  "schemaVersion": "3.4.4",
  "updatedAt": "2022-05-23T21:20:50.082Z",
  "devdoc": {
    "kind": "dev",
    "methods": {},
    "version": 1
  },
  "userdoc": {
    "kind": "user",
    "methods": {},
    "version": 1
  }
}