{
  "contractName": "GameSummary",
  "abi": [
    {
      "inputs": [
        {
          "internalType": "address",
          "name": "gameBoardAddress",
          "type": "address"
        }
      ],
      "name": "boardSize",
      "outputs": [
        {
          "internalType": "uint256",
          "name": "rows",
          "type": "uint256"
        },
        {
          "internalType": "uint256",
          "name": "columns",
          "type": "uint256"
        }
      ],
      "stateMutability": "view",
      "type": "function"
    },
    {
      "inputs": [
        {
          "internalType": "address",
          "name": "gameBoardAddress",
          "type": "address"
        },
        {
          "internalType": "uint256",
          "name": "gameID",
          "type": "uint256"
        },
        {
          "internalType": "address",
          "name": "playerAddress",
          "type": "address"
        }
      ],
      "name": "isRegistered",
      "outputs": [
        {
          "internalType": "bool",
          "name": "",
          "type": "bool"
        }
      ],
      "stateMutability": "view",
      "type": "function"
    },
    {
      "inputs": [
        {
          "internalType": "address",
          "name": "gameBoardAddress",
          "type": "address"
        },
        {
          "internalType": "uint256",
          "name": "gameID",
          "type": "uint256"
        },
        {
          "internalType": "address",
          "name": "playerAddress",
          "type": "address"
        }
      ],
      "name": "getPlayerID",
      "outputs": [
        {
          "internalType": "uint256",
          "name": "playerID",
          "type": "uint256"
        }
      ],
      "stateMutability": "view",
      "type": "function"
    },
    {
      "inputs": [
        {
          "internalType": "address",
          "name": "gameBoardAddress",
          "type": "address"
        },
        {
          "internalType": "uint256",
          "name": "gameID",
          "type": "uint256"
        }
      ],
      "name": "currentGameplayQueue",
      "outputs": [
        {
          "internalType": "uint256",
          "name": "",
          "type": "uint256"
        }
      ],
      "stateMutability": "view",
      "type": "function"
    },
    {
      "inputs": [
        {
          "internalType": "address",
          "name": "gameBoardAddress",
          "type": "address"
        },
        {
          "internalType": "uint256",
          "name": "gameID",
          "type": "uint256"
        }
      ],
      "name": "currentPhase",
      "outputs": [
        {
          "internalType": "string",
          "name": "phase",
          "type": "string"
        }
      ],
      "stateMutability": "view",
      "type": "function"
    },
    {
      "inputs": [
        {
          "internalType": "address",
          "name": "gameBoardAddress",
          "type": "address"
        },
        {
          "internalType": "uint256",
          "name": "gameID",
          "type": "uint256"
        }
      ],
      "name": "activeZones",
      "outputs": [
        {
          "internalType": "string[]",
          "name": "zones",
          "type": "string[]"
        },
        {
          "internalType": "uint16[]",
          "name": "tiles",
          "type": "uint16[]"
        }
      ],
      "stateMutability": "view",
      "type": "function"
    },
    {
      "inputs": [
        {
          "internalType": "address",
          "name": "gameBoardAddress",
          "type": "address"
        },
        {
          "internalType": "uint256",
          "name": "gameID",
          "type": "uint256"
        }
      ],
      "name": "landingSite",
      "outputs": [
        {
          "internalType": "string",
          "name": "",
          "type": "string"
        }
      ],
      "stateMutability": "view",
      "type": "function"
    },
    {
      "inputs": [
        {
          "internalType": "address",
          "name": "gameBoardAddress",
          "type": "address"
        },
        {
          "internalType": "uint256",
          "name": "gameID",
          "type": "uint256"
        }
      ],
      "name": "allPlayerLocations",
      "outputs": [
        {
          "internalType": "uint256[]",
          "name": "",
          "type": "uint256[]"
        },
        {
          "internalType": "string[]",
          "name": "",
          "type": "string[]"
        }
      ],
      "stateMutability": "view",
      "type": "function"
    },
    {
      "inputs": [
        {
          "internalType": "address",
          "name": "gameBoardAddress",
          "type": "address"
        },
        {
          "internalType": "uint256",
          "name": "gameID",
          "type": "uint256"
        }
      ],
      "name": "currentLocation",
      "outputs": [
        {
          "internalType": "string",
          "name": "",
          "type": "string"
        }
      ],
      "stateMutability": "view",
      "type": "function"
    },
    {
      "inputs": [
        {
          "internalType": "address",
          "name": "gameBoardAddress",
          "type": "address"
        },
        {
          "internalType": "uint256",
          "name": "gameID",
          "type": "uint256"
        }
      ],
      "name": "currentPlayerStats",
      "outputs": [
        {
          "internalType": "uint8",
          "name": "movement",
          "type": "uint8"
        },
        {
          "internalType": "uint8",
          "name": "agility",
          "type": "uint8"
        },
        {
          "internalType": "uint8",
          "name": "dexterity",
          "type": "uint8"
        }
      ],
      "stateMutability": "view",
      "type": "function"
    },
    {
      "inputs": [
        {
          "internalType": "address",
          "name": "gameBoardAddress",
          "type": "address"
        },
        {
          "internalType": "uint256",
          "name": "gameID",
          "type": "uint256"
        }
      ],
      "name": "currentHandInventory",
      "outputs": [
        {
          "internalType": "string",
          "name": "leftHandItem",
          "type": "string"
        },
        {
          "internalType": "string",
          "name": "rightHandItem",
          "type": "string"
        }
      ],
      "stateMutability": "view",
      "type": "function"
    },
    {
      "inputs": [
        {
          "internalType": "address",
          "name": "gameBoardAddress",
          "type": "address"
        },
        {
          "internalType": "uint256",
          "name": "gameID",
          "type": "uint256"
        }
      ],
      "name": "activeInventory",
      "outputs": [
        {
          "internalType": "string",
          "name": "artifact",
          "type": "string"
        },
        {
          "internalType": "string",
          "name": "status",
          "type": "string"
        },
        {
          "internalType": "string",
          "name": "relic",
          "type": "string"
        },
        {
          "internalType": "bool",
          "name": "shield",
          "type": "bool"
        },
        {
          "internalType": "bool",
          "name": "campsite",
          "type": "bool"
        }
      ],
      "stateMutability": "view",
      "type": "function"
    },
    {
      "inputs": [
        {
          "internalType": "address",
          "name": "gameBoardAddress",
          "type": "address"
        },
        {
          "internalType": "uint256",
          "name": "gameID",
          "type": "uint256"
        }
      ],
      "name": "inactiveInventory",
      "outputs": [
        {
          "internalType": "string[]",
          "name": "itemTypes",
          "type": "string[]"
        },
        {
          "internalType": "uint256[]",
          "name": "itemBalances",
          "type": "uint256[]"
        }
      ],
      "stateMutability": "view",
      "type": "function"
    },
    {
      "inputs": [
        {
          "internalType": "address",
          "name": "gameBoardAddress",
          "type": "address"
        },
        {
          "internalType": "uint256",
          "name": "gameID",
          "type": "uint256"
        }
      ],
      "name": "activeAction",
      "outputs": [
        {
          "internalType": "string",
          "name": "action",
          "type": "string"
        }
      ],
      "stateMutability": "view",
      "type": "function"
    },
    {
      "inputs": [
        {
          "internalType": "address",
          "name": "gameBoardAddress",
          "type": "address"
        },
        {
          "internalType": "address",
          "name": "gameRegistryAddress",
          "type": "address"
        }
      ],
      "name": "getAvailableGameIDs",
      "outputs": [
        {
          "internalType": "uint256[]",
          "name": "",
          "type": "uint256[]"
        }
      ],
      "stateMutability": "view",
      "type": "function"
    },
    {
      "inputs": [
        {
          "internalType": "address",
          "name": "gameBoardAddress",
          "type": "address"
        },
        {
          "internalType": "uint256",
          "name": "gameID",
          "type": "uint256"
        }
      ],
      "name": "isAtCampsite",
      "outputs": [
        {
          "internalType": "bool",
          "name": "atCampsite",
          "type": "bool"
        }
      ],
      "stateMutability": "view",
      "type": "function"
    }
  ],
  "bytecode": "0x613d8e610053600b82828239805160001a607314610046577f4e487b7100000000000000000000000000000000000000000000000000000000600052600060045260246000fd5b30600052607381538281f3fe73000000000000000000000000000000000000000030146080604052600436106101045760003560e060020a90048063ad7bac41116100a0578063ad7bac411461024e578063b0be1afa14610264578063bb8553fc14610285578063c449f580146101e8578063cabd6fda146102a8578063e569d33a146102bb578063ee203a8e146102dc578063f59bf90314610304578063f8ffdfcc1461032857600080fd5b80632f874fe01461010957806330f7337a146101455780635d824c22146101665780638191e06214610186578063821ba3a1146101a757806386599da8146101c75780639f8159cc146101e8578063a75d3f8714610228578063ab00df6c1461023b575b600080fd5b61011c610117366004613526565b61033b565b6040805160ff948516815292841660208401529216918101919091526060015b60405180910390f35b610158610153366004613552565b61063b565b60405190815260200161013c565b610179610174366004613594565b61073d565b60405161013c9190613608565b610199610194366004613526565b6107cf565b60405161013c9291906136ce565b6101ba6101b5366004613526565b610a54565b60405161013c91906136f3565b6101da6101d5366004613526565b610add565b60405161013c929190613706565b8180156101f457600080fd5b50610216610203366004613526565b6060806060806060809295509295509295565b60405161013c9695949392919061372b565b6101ba610236366004613526565b611a40565b610158610249366004613526565b611c2d565b6101ba61025c366004613526565b606092915050565b610277610272366004613526565b611d28565b60405161013c92919061381e565b610298610293366004613526565b6121a1565b604051901515815260200161013c565b6102986102b6366004613552565b61248f565b6102ce6102c9366004613526565b612587565b60405161013c929190613843565b6102ef6102ea366004613891565b612980565b6040805192835260208301919091520161013c565b610317610312366004613526565b612a5c565b60405161013c9594939291906138ae565b6101ba610336366004613526565b61312f565b600080600080859050600081600160a060020a031663a0ed600d6040518163ffffffff1660e060020a028152600401602060405180830381865afa158015610387573d6000803e3d6000fd5b505050506040513d601f19601f820116820180604052508101906103ab9190613901565b9050600082600160a060020a031663c06dea4e6040518163ffffffff1660e060020a028152600401602060405180830381865afa1580156103f0573d6000803e3d6000fd5b505050506040513d601f19601f820116820180604052508101906104149190613901565b9050600081600160a060020a031663bca7caa089336040518363ffffffff1660e060020a02815260040161044992919061391e565b602060405180830381865afa158015610466573d6000803e3d6000fd5b505050506040513d601f19601f8201168201806040525081019061048a9190613935565b6040517fe8216595000000000000000000000000000000000000000000000000000000008152600481018a905260248101829052909150600160a060020a0384169063e821659590604401602060405180830381865afa1580156104f2573d6000803e3d6000fd5b505050506040513d601f19601f82011682018060405250810190610516919061394e565b6040517fd104563e000000000000000000000000000000000000000000000000000000008152600481018a905260248101839052909750600160a060020a0384169063d104563e90604401602060405180830381865afa15801561057e573d6000803e3d6000fd5b505050506040513d601f19601f820116820180604052508101906105a2919061394e565b6040517f2af37e1d000000000000000000000000000000000000000000000000000000008152600481018a905260248101839052909650600160a060020a03841690632af37e1d90604401602060405180830381865afa15801561060a573d6000803e3d6000fd5b505050506040513d601f19601f8201168201806040525081019061062e919061394e565b9450505050509250925092565b600080849050600081600160a060020a031663c06dea4e6040518163ffffffff1660e060020a028152600401602060405180830381865afa158015610684573d6000803e3d6000fd5b505050506040513d601f19601f820116820180604052508101906106a89190613901565b6040517fbca7caa0000000000000000000000000000000000000000000000000000000008152909150600160a060020a0382169063bca7caa0906106f2908890889060040161391e565b602060405180830381865afa15801561070f573d6000803e3d6000fd5b505050506040513d601f19601f820116820180604052508101906107339190613935565b9695505050505050565b6040517fdef34582000000000000000000000000000000000000000000000000000000008152600160a060020a0382811660048301526060919084169063def3458290602401600060405180830381865afa1580156107a0573d6000803e3d6000fd5b505050506040513d6000823e601f3d908101601f191682016040526107c891908101906139df565b9392505050565b6060806000849050600081600160a060020a031663c06dea4e6040518163ffffffff1660e060020a028152600401602060405180830381865afa15801561081a573d6000803e3d6000fd5b505050506040513d601f19601f8201168201806040525081019061083e9190613901565b6040517fb77ff41100000000000000000000000000000000000000000000000000000000815260048101879052909150600090600160a060020a0383169063b77ff41190602401602060405180830381865afa1580156108a2573d6000803e3d6000fd5b505050506040513d601f19601f820116820180604052508101906108c69190613935565b905060008167ffffffffffffffff8111156108e3576108e3613971565b60405190808252806020026020018201604052801561090c578160200160208202803683370190505b50905060008267ffffffffffffffff81111561092a5761092a613971565b60405190808252806020026020018201604052801561095d57816020015b60608152602001906001900390816109485790505b50905060005b83811015610a4557610976816001613a8b565b83828151811061098857610988613aa3565b6020908102919091010152600160a060020a03861663d75e79808a6109ae846001613a8b565b60405160e060020a63ffffffff851602815260048101929092526024820152604401600060405180830381865afa1580156109ed573d6000803e3d6000fd5b505050506040513d6000823e601f3d908101601f19168201604052610a159190810190613b28565b828281518110610a2757610a27613aa3565b60200260200101819052508080610a3d90613b5d565b915050610963565b50909890975095505050505050565b6040517feb33983d00000000000000000000000000000000000000000000000000000000815260048101829052606090600160a060020a0384169063eb33983d90602401600060405180830381865afa158015610ab5573d6000803e3d6000fd5b505050506040513d6000823e601f3d908101601f191682016040526107c89190810190613b28565b6060806000849050600081600160a060020a031663c06dea4e6040518163ffffffff1660e060020a028152600401602060405180830381865afa158015610b28573d6000803e3d6000fd5b505050506040513d601f19601f82011682018060405250810190610b4c9190613901565b9050600082600160a060020a031663cca369966040518163ffffffff1660e060020a028152600401602060405180830381865afa158015610b91573d6000803e3d6000fd5b505050506040513d601f19601f82011682018060405250810190610bb59190613901565b60408051602380825261048082019092529192506020820161046080368337019050506040805160238082526104808201909252919550816020015b6060815260200190600190039081610bf15790505094506040518060400160405280600a81526020017f536d616c6c20416d6d6f0000000000000000000000000000000000000000000081525085600081518110610c5157610c51613aa3565b60200260200101819052506040518060400160405280600a81526020017f4c6172676520416d6d6f0000000000000000000000000000000000000000000081525085600181518110610ca557610ca5613aa3565b60200260200101819052506040518060400160405280600981526020017f426174746572696573000000000000000000000000000000000000000000000081525085600281518110610cf957610cf9613aa3565b60200260200101819052506040518060400160405280600681526020017f536869656c64000000000000000000000000000000000000000000000000000081525085600381518110610d4d57610d4d613aa3565b60200260200101819052506040518060400160405280600681526020017f506f7274616c000000000000000000000000000000000000000000000000000081525085600481518110610da157610da1613aa3565b60200260200101819052506040518060400160405280600281526020017f4f6e00000000000000000000000000000000000000000000000000000000000081525085600581518110610df557610df5613aa3565b60200260200101819052506040518060400160405280600381526020017f4f6666000000000000000000000000000000000000000000000000000000000081525085600681518110610e4957610e49613aa3565b60200260200101819052506040518060400160405280600c81526020017f527573747920446167676572000000000000000000000000000000000000000081525085600781518110610e9d57610e9d613aa3565b60200260200101819052506040518060400160405280600b81526020017f52757374792053776f726400000000000000000000000000000000000000000081525085600881518110610ef157610ef1613aa3565b60200260200101819052506040518060400160405280600c81526020017f527573747920506973746f6c000000000000000000000000000000000000000081525085600981518110610f4557610f45613aa3565b60200260200101819052506040518060400160405280600b81526020017f5275737479205269666c6500000000000000000000000000000000000000000081525085600a81518110610f9957610f99613aa3565b60200260200101819052506040518060400160405280600c81526020017f5368696e7920446167676572000000000000000000000000000000000000000081525085600b81518110610fed57610fed613aa3565b60200260200101819052506040518060400160405280600b81526020017f5368696e792053776f726400000000000000000000000000000000000000000081525085600c8151811061104157611041613aa3565b60200260200101819052506040518060400160405280600c81526020017f5368696e7920506973746f6c000000000000000000000000000000000000000081525085600d8151811061109557611095613aa3565b60200260200101819052506040518060400160405280600b81526020017f5368696e79205269666c6500000000000000000000000000000000000000000081525085600e815181106110e9576110e9613aa3565b60200260200101819052506040518060400160405280600c81526020017f4c6173657220446167676572000000000000000000000000000000000000000081525085600f8151811061113d5761113d613aa3565b60200260200101819052506040518060400160405280600b81526020017f4c617365722053776f72640000000000000000000000000000000000000000008152508560108151811061119157611191613aa3565b60200260200101819052506040518060400160405280600c81526020017f4c6173657220506973746f6c0000000000000000000000000000000000000000815250856011815181106111e5576111e5613aa3565b60200260200101819052506040518060400160405280600b81526020017f4c61736572205269666c650000000000000000000000000000000000000000008152508560128151811061123957611239613aa3565b60200260200101819052506040518060400160405280600a81526020017f476c6f7720737469636b000000000000000000000000000000000000000000008152508560138151811061128d5761128d613aa3565b60200260200101819052506040518060400160405280600a81526020017f466c6173686c6967687400000000000000000000000000000000000000000000815250856014815181106112e1576112e1613aa3565b60200260200101819052506040518060400160405280600b81526020017f466c6f6f64206c696768740000000000000000000000000000000000000000008152508560158151811061133557611335613aa3565b60200260200101819052506040518060400160405280601381526020017f4e69676874766973696f6e20476f67676c6573000000000000000000000000008152508560168151811061138957611389613aa3565b60200260200101819052506040518060400160405280600f81526020017f506572736f6e616c20536869656c640000000000000000000000000000000000815250856017815181106113dd576113dd613aa3565b60200260200101819052506040518060400160405280600d81526020017f427562626c6520536869656c64000000000000000000000000000000000000008152508560188151811061143157611431613aa3565b60200260200101819052506040518060400160405280600c81526020017f46726167204772656e61646500000000000000000000000000000000000000008152508560198151811061148557611485613aa3565b60200260200101819052506040518060400160405280600c81526020017f46697265204772656e616465000000000000000000000000000000000000000081525085601a815181106114d9576114d9613aa3565b60200260200101819052506040518060400160405280600d81526020017f53686f636b204772656e6164650000000000000000000000000000000000000081525085601b8151811061152d5761152d613aa3565b60200260200101819052506040518060400160405280600981526020017f4845204d6f72746172000000000000000000000000000000000000000000000081525085601c8151811061158157611581613aa3565b60200260200101819052506040518060400160405280601181526020017f496e63656e6469617279204d6f7274617200000000000000000000000000000081525085601d815181106115d5576115d5613aa3565b60200260200101819052506040518060400160405280600a81526020017f454d50204d6f727461720000000000000000000000000000000000000000000081525085601e8151811061162957611629613aa3565b60200260200101819052506040518060400160405280600b81526020017f506f77657220476c6f766500000000000000000000000000000000000000000081525085601f8151811061167d5761167d613aa3565b6020026020010181905250604051806060016040528060218152602001613d3860219139856020815181106116b4576116b4613aa3565b60200260200101819052506040518060400160405280600f81526020017f54656c65706f72746572205061636b00000000000000000000000000000000008152508560218151811061170857611708613aa3565b602002602001018190525060405180604001604052806008815260200160c060020a6743616d7073697465028152508560228151811061174a5761174a613aa3565b6020026020010181905250600082600160a060020a031663bca7caa088336040518363ffffffff1660e060020a02815260040161178892919061391e565b602060405180830381865afa1580156117a5573d6000803e3d6000fd5b505050506040513d601f19601f820116820180604052508101906117c99190613935565b6040517f01d37be4000000000000000000000000000000000000000000000000000000008152909150600160a060020a038316906301d37be4906118169084906003908c90600401613b91565b602060405180830381865afa158015611833573d6000803e3d6000fd5b505050506040513d601f19601f820116820180604052508101906118579190613bca565b15611a3557600082600160a060020a031663a318d45c6040518163ffffffff1660e060020a028152600401602060405180830381865afa15801561189f573d6000803e3d6000fd5b505050506040513d601f19601f820116820180604052508101906118c39190613901565b9050600081600160a060020a031663c853a1d06040518163ffffffff1660e060020a028152600401600060405180830381865afa158015611908573d6000803e3d6000fd5b505050506040513d6000823e601f3d908101601f191682016040526119309190810190613bec565b905060005b8751811015611a315781818151811061195057611950613aa3565b602002602001015189828151811061196a5761196a613aa3565b602002602001018190525082600160a060020a0316634db157d083838151811061199657611996613aa3565b60200260200101518c876040518463ffffffff1660e060020a0281526004016119c193929190613c9a565b602060405180830381865afa1580156119de573d6000803e3d6000fd5b505050506040513d601f19601f82011682018060405250810190611a029190613935565b888281518110611a1457611a14613aa3565b602090810291909101015280611a2981613b5d565b915050611935565b5050505b505050509250929050565b60606000839050600081600160a060020a031663cca369966040518163ffffffff1660e060020a028152600401602060405180830381865afa158015611a8a573d6000803e3d6000fd5b505050506040513d601f19601f82011682018060405250810190611aae9190613901565b9050600081600160a060020a031663a906dfd16040518163ffffffff1660e060020a028152600401602060405180830381865afa158015611af3573d6000803e3d6000fd5b505050506040513d601f19601f82011682018060405250810190611b179190613901565b6040517f4db157d0000000000000000000000000000000000000000000000000000000008152606060048201526003606482015260e860020a624461790260848201526024810187905260016044820152600160a060020a039190911690634db157d09060a401602060405180830381865afa158015611b9b573d6000803e3d6000fd5b505050506040513d601f19601f82011682018060405250810190611bbf9190613935565b905060008111611c04576040518060400160405280600581526020017f4e69676874000000000000000000000000000000000000000000000000000000815250610733565b60405180604001604052806003815260200160e860020a62446179028152509695505050505050565b600080839050600081600160a060020a031663cefe23296040518163ffffffff1660e060020a028152600401602060405180830381865afa158015611c76573d6000803e3d6000fd5b505050506040513d601f19601f82011682018060405250810190611c9a9190613901565b6040517f861814e200000000000000000000000000000000000000000000000000000000815260048101869052909150600160a060020a0382169063861814e290602401602060405180830381865afa158015611cfb573d6000803e3d6000fd5b505050506040513d601f19601f82011682018060405250810190611d1f9190613935565b95945050505050565b6060806000849050600081600160a060020a031663a0ed600d6040518163ffffffff1660e060020a028152600401602060405180830381865afa158015611d73573d6000803e3d6000fd5b505050506040513d601f19601f82011682018060405250810190611d979190613901565b9050600082600160a060020a031663c06dea4e6040518163ffffffff1660e060020a028152600401602060405180830381865afa158015611ddc573d6000803e3d6000fd5b505050506040513d601f19601f82011682018060405250810190611e009190613901565b9050600081600160a060020a031663bca7caa088336040518363ffffffff1660e060020a028152600401611e3592919061391e565b602060405180830381865afa158015611e52573d6000803e3d6000fd5b505050506040513d601f19601f82011682018060405250810190611e769190613935565b60405160e060020a637dcfa291028152600481018990526024810182905290915061203690600160a060020a03851690637dcfa291906044015b600060405180830381865afa158015611ecd573d6000803e3d6000fd5b505050506040513d6000823e601f3d908101601f19168201604052611ef59190810190613b28565b85600160a060020a031663cca369966040518163ffffffff1660e060020a028152600401602060405180830381865afa158015611f36573d6000803e3d6000fd5b505050506040513d601f19601f82011682018060405250810190611f5a9190613901565b8987600160a060020a031663c06dea4e6040518163ffffffff1660e060020a028152600401602060405180830381865afa158015611f9c573d6000803e3d6000fd5b505050506040513d601f19601f82011682018060405250810190611fc09190613901565b600160a060020a031663bca7caa08c336040518363ffffffff1660e060020a028152600401611ff092919061391e565b602060405180830381865afa15801561200d573d6000803e3d6000fd5b505050506040513d601f19601f820116820180604052508101906120319190613935565b613288565b61204f57604051806020016040528060008152506120c6565b60405160e060020a637dcfa2910281526004810188905260248101829052600160a060020a03841690637dcfa29190604401600060405180830381865afa15801561209e573d6000803e3d6000fd5b505050506040513d6000823e601f3d908101601f191682016040526120c69190810190613b28565b60405160e060020a639c220647028152600481018990526024810183905290965061210490600160a060020a03851690639c22064790604401611eb0565b61211d5760405180602001604052806000815250612194565b60405160e060020a639c2206470281526004810188905260248101829052600160a060020a03841690639c22064790604401600060405180830381865afa15801561216c573d6000803e3d6000fd5b505050506040513d6000823e601f3d908101601f191682016040526121949190810190613b28565b9450505050509250929050565b600080839050600081600160a060020a031663c06dea4e6040518163ffffffff1660e060020a028152600401602060405180830381865afa1580156121ea573d6000803e3d6000fd5b505050506040513d601f19601f8201168201806040525081019061220e9190613901565b9050600082600160a060020a031663d75e79808684600160a060020a031663bca7caa089336040518363ffffffff1660e060020a02815260040161225392919061391e565b602060405180830381865afa158015612270573d6000803e3d6000fd5b505050506040513d601f19601f820116820180604052508101906122949190613935565b60405160e060020a63ffffffff851602815260048101929092526024820152604401600060405180830381865afa1580156122d3573d6000803e3d6000fd5b505050506040513d6000823e601f3d908101601f191682016040526122fb9190810190613b28565b90506000612309878361336d565b9050600084600160a060020a031663cca369966040518163ffffffff1660e060020a028152600401602060405180830381865afa15801561234e573d6000803e3d6000fd5b505050506040513d601f19601f820116820180604052508101906123729190613901565b600160a060020a031663a318d45c6040518163ffffffff1660e060020a028152600401602060405180830381865afa1580156123b2573d6000803e3d6000fd5b505050506040513d601f19601f820116820180604052508101906123d69190613901565b6040517f65a3c078000000000000000000000000000000000000000000000000000000008152606060048201526008606482015260c060020a6743616d70736974650260848201526024810189905260448101849052600160a060020a0391909116906365a3c0789060a401602060405180830381865afa15801561245f573d6000803e3d6000fd5b505050506040513d601f19601f820116820180604052508101906124839190613935565b11979650505050505050565b600080849050600081600160a060020a031663c06dea4e6040518163ffffffff1660e060020a028152600401602060405180830381865afa1580156124d8573d6000803e3d6000fd5b505050506040513d601f19601f820116820180604052508101906124fc9190613901565b6040517fb81f6e18000000000000000000000000000000000000000000000000000000008152909150600160a060020a0382169063b81f6e1890612546908890889060040161391e565b602060405180830381865afa158015612563573d6000803e3d6000fd5b505050506040513d601f19601f820116820180604052508101906107339190613bca565b6060806000849050600081600160a060020a0316633ca61a586040518163ffffffff1660e060020a028152600401600060405180830381865afa1580156125d2573d6000803e3d6000fd5b505050506040513d6000823e601f3d908101601f191682016040526125fa9190810190613bec565b90506000805b82518110156126b95783600160a060020a031663ed3719a58885848151811061262b5761262b613aa3565b60200260200101516040518363ffffffff1660e060020a028152600401612653929190613cbf565b602060405180830381865afa158015612670573d6000803e3d6000fd5b505050506040513d601f19601f820116820180604052508101906126949190613bca565b156126a757816126a381613cd8565b9250505b806126b181613b5d565b915050612600565b508061ffff1667ffffffffffffffff8111156126d7576126d7613971565b60405190808252806020026020018201604052801561270a57816020015b60608152602001906001900390816126f55790505b5094508061ffff1667ffffffffffffffff81111561272a5761272a613971565b604051908082528060200260200182016040528015612753578160200160208202803683370190505b5093506000905060005b8251811015611a355783600160a060020a031663ed3719a58885848151811061278857612788613aa3565b60200260200101516040518363ffffffff1660e060020a0281526004016127b0929190613cbf565b602060405180830381865afa1580156127cd573d6000803e3d6000fd5b505050506040513d601f19601f820116820180604052508101906127f19190613bca565b1561296e5782818151811061280857612808613aa3565b6020026020010151868361ffff168151811061282657612826613aa3565b6020026020010181905250600084600160a060020a03166335e333e46040518163ffffffff1660e060020a028152600401602060405180830381865afa158015612874573d6000803e3d6000fd5b505050506040513d601f19601f820116820180604052508101906128989190613901565b905080600160a060020a03166330821b9c898685815181106128bc576128bc613aa3565b60200260200101516040518363ffffffff1660e060020a0281526004016128e4929190613cbf565b602060405180830381865afa158015612901573d6000803e3d6000fd5b505050506040513d601f19601f820116820180604052508101906129259190613cfa565b600b81111561293657612936613b78565b868461ffff168151811061294c5761294c613aa3565b61ffff909216602092830291909101909101528261296981613cd8565b935050505b8061297881613b5d565b91505061275d565b600080600083905080600160a060020a031663108c5e146040518163ffffffff1660e060020a028152600401602060405180830381865afa1580156129c9573d6000803e3d6000fd5b505050506040513d601f19601f820116820180604052508101906129ed9190613935565b925080600160a060020a03166338b145df6040518163ffffffff1660e060020a028152600401602060405180830381865afa158015612a30573d6000803e3d6000fd5b505050506040513d601f19601f82011682018060405250810190612a549190613935565b915050915091565b60608060606000806000879050600081600160a060020a031663a0ed600d6040518163ffffffff1660e060020a028152600401602060405180830381865afa158015612aac573d6000803e3d6000fd5b505050506040513d601f19601f82011682018060405250810190612ad09190613901565b9050600082600160a060020a031663c06dea4e6040518163ffffffff1660e060020a028152600401602060405180830381865afa158015612b15573d6000803e3d6000fd5b505050506040513d601f19601f82011682018060405250810190612b399190613901565b9050600081600160a060020a031663bca7caa08b336040518363ffffffff1660e060020a028152600401612b6e92919061391e565b602060405180830381865afa158015612b8b573d6000803e3d6000fd5b505050506040513d601f19601f82011682018060405250810190612baf9190613935565b60405160e060020a63d27ffd0d028152600481018c905260248101829052909150612c9990600160a060020a0385169063d27ffd0d90604401600060405180830381865afa158015612c05573d6000803e3d6000fd5b505050506040513d6000823e601f3d908101601f19168201604052612c2d9190810190613b28565b85600160a060020a031663cca369966040518163ffffffff1660e060020a028152600401602060405180830381865afa158015612c6e573d6000803e3d6000fd5b505050506040513d601f19601f82011682018060405250810190612c929190613901565b8c84613486565b612cb25760405180602001604052806000815250612d29565b60405160e060020a63d27ffd0d028152600481018b905260248101829052600160a060020a0384169063d27ffd0d90604401600060405180830381865afa158015612d01573d6000803e3d6000fd5b505050506040513d6000823e601f3d908101601f19168201604052612d299190810190613b28565b60405160e160020a6359eec01d028152600481018c905260248101839052909950612e1390600160a060020a0385169063b3dd803a90604401600060405180830381865afa158015612d7f573d6000803e3d6000fd5b505050506040513d6000823e601f3d908101601f19168201604052612da79190810190613b28565b85600160a060020a031663cca369966040518163ffffffff1660e060020a028152600401602060405180830381865afa158015612de8573d6000803e3d6000fd5b505050506040513d601f19601f82011682018060405250810190612e0c9190613901565b8c846134ca565b612e2c5760405180602001604052806000815250612ea3565b60405160e160020a6359eec01d028152600481018b905260248101829052600160a060020a0384169063b3dd803a90604401600060405180830381865afa158015612e7b573d6000803e3d6000fd5b505050506040513d6000823e601f3d908101601f19168201604052612ea39190810190613b28565b60405160e360020a63150cfdef028152600481018c905260248101839052909850612f8d90600160a060020a0385169063a867ef7890604401600060405180830381865afa158015612ef9573d6000803e3d6000fd5b505050506040513d6000823e601f3d908101601f19168201604052612f219190810190613b28565b85600160a060020a031663cca369966040518163ffffffff1660e060020a028152600401602060405180830381865afa158015612f62573d6000803e3d6000fd5b505050506040513d601f19601f82011682018060405250810190612f869190613901565b8c84613288565b612fa6576040518060200160405280600081525061301d565b60405160e360020a63150cfdef028152600481018b905260248101829052600160a060020a0384169063a867ef7890604401600060405180830381865afa158015612ff5573d6000803e3d6000fd5b505050506040513d6000823e601f3d908101601f1916820160405261301d9190810190613b28565b96506130996040518060400160405280600681526020017f536869656c64000000000000000000000000000000000000000000000000000081525085600160a060020a031663cca369966040518163ffffffff1660e060020a028152600401602060405180830381865afa158015612f62573d6000803e3d6000fd5b6130a45760006130a7565b60015b955061311160405180604001604052806008815260200160c060020a6743616d70736974650281525085600160a060020a031663cca369966040518163ffffffff1660e060020a028152600401602060405180830381865afa158015612f62573d6000803e3d6000fd5b61311c57600061311f565b60015b9450505050509295509295909350565b60606000839050600081600160a060020a031663c06dea4e6040518163ffffffff1660e060020a028152600401602060405180830381865afa158015613179573d6000803e3d6000fd5b505050506040513d601f19601f8201168201806040525081019061319d9190613901565b905081600160a060020a031663d75e79808583600160a060020a031663bca7caa088336040518363ffffffff1660e060020a0281526004016131e092919061391e565b602060405180830381865afa1580156131fd573d6000803e3d6000fd5b505050506040513d601f19601f820116820180604052508101906132219190613935565b60405160e060020a63ffffffff851602815260048101929092526024820152604401600060405180830381865afa158015613260573d6000803e3d6000fd5b505050506040513d6000823e601f3d908101601f19168201604052611d1f9190810190613b28565b60008084600160a060020a031663a318d45c6040518163ffffffff1660e060020a028152600401602060405180830381865afa1580156132cc573d6000803e3d6000fd5b505050506040513d601f19601f820116820180604052508101906132f09190613901565b600160a060020a0316634db157d08786866040518463ffffffff1660e060020a02815260040161332293929190613c9a565b602060405180830381865afa15801561333f573d6000803e3d6000fd5b505050506040513d601f19601f820116820180604052508101906133639190613935565b1195945050505050565b6000650102b36211c790506000839050600081600160a060020a0316633ca61a586040518163ffffffff1660e060020a028152600401600060405180830381865afa1580156133c0573d6000803e3d6000fd5b505050506040513d6000823e601f3d908101601f191682016040526133e89190810190613bec565b905060005b815181101561347d5781818151811061340857613408613aa3565b60200260200101516040516020016134209190613d1b565b60405160208183030381529060405280519060200120856040516020016134479190613d1b565b60405160208183030381529060405280519060200120141561346b5780935061347d565b8061347581613b5d565b9150506133ed565b50505092915050565b60008084600160a060020a03166345d339d96040518163ffffffff1660e060020a028152600401602060405180830381865afa1580156132cc573d6000803e3d6000fd5b60008084600160a060020a031663c1cdbb3c6040518163ffffffff1660e060020a028152600401602060405180830381865afa1580156132cc573d6000803e3d6000fd5b600160a060020a038116811461352357600080fd5b50565b6000806040838503121561353957600080fd5b82356135448161350e565b946020939093013593505050565b60008060006060848603121561356757600080fd5b83356135728161350e565b92506020840135915060408401356135898161350e565b809150509250925092565b600080604083850312156135a757600080fd5b82356135b28161350e565b915060208301356135c28161350e565b809150509250929050565b600081518084526020808501945080840160005b838110156135fd578151875295820195908201906001016135e1565b509495945050505050565b6020815260006107c860208301846135cd565b60005b8381101561363657818101518382015260200161361e565b83811115613645576000848401525b50505050565b6000815180845261366381602086016020860161361b565b601f01601f19169290920160200192915050565b6000828251808552602080860195508081830284010181860160005b848110156136c157601f198684030189526136af83835161364b565b98840198925090830190600101613693565b5090979650505050505050565b6040815260006136e160408301856135cd565b8281036020840152611d1f8185613677565b6020815260006107c8602083018461364b565b6040815260006137196040830185613677565b8281036020840152611d1f81856135cd565b60c08152600061373e60c08301896135cd565b602083820381850152613751828a613677565b915083820360408501526137658289613677565b915060608483038186015261377a8389613677565b9250848303608086015261378e8388613677565b85810360a0870152865180825290935082840190838102850184018489016000805b8481101561380957888403601f19018652825184888101845b60038110156137f45787820383526137e282855161364b565b938c0193928c019291506001016137c9565b50978a019795505050918701916001016137b0565b50919f9e505050505050505050505050505050565b604081526000613831604083018561364b565b8281036020840152611d1f818561364b565b6040815260006138566040830185613677565b82810360208481019190915284518083528582019282019060005b818110156136c157845161ffff1683529383019391830191600101613871565b6000602082840312156138a357600080fd5b81356107c88161350e565b60a0815260006138c160a083018861364b565b82810360208401526138d3818861364b565b905082810360408401526138e7818761364b565b941515606084015250509015156080909101529392505050565b60006020828403121561391357600080fd5b81516107c88161350e565b918252600160a060020a0316602082015260400190565b60006020828403121561394757600080fd5b5051919050565b60006020828403121561396057600080fd5b815160ff811681146107c857600080fd5b60e060020a634e487b7102600052604160045260246000fd5b604051601f8201601f1916810167ffffffffffffffff811182821017156139b3576139b3613971565b604052919050565b600067ffffffffffffffff8211156139d5576139d5613971565b5060209081020190565b600060208083850312156139f257600080fd5b825167ffffffffffffffff811115613a0957600080fd5b8301601f81018513613a1a57600080fd5b8051613a2d613a28826139bb565b61398a565b81815290830282018301908381019087831115613a4957600080fd5b928401925b82841015613a6757835182529284019290840190613a4e565b979650505050505050565b60e060020a634e487b7102600052601160045260246000fd5b60008219821115613a9e57613a9e613a72565b500190565b60e060020a634e487b7102600052603260045260246000fd5b600082601f830112613acd57600080fd5b815167ffffffffffffffff811115613ae757613ae7613971565b613afa601f8201601f191660200161398a565b818152846020838601011115613b0f57600080fd5b613b2082602083016020870161361b565b949350505050565b600060208284031215613b3a57600080fd5b815167ffffffffffffffff811115613b5157600080fd5b613b2084828501613abc565b6000600019821415613b7157613b71613a72565b5060010190565b60e060020a634e487b7102600052602160045260246000fd5b8381526060810160078410613bb95760e060020a634e487b7102600052602160045260246000fd5b602082019390935260400152919050565b600060208284031215613bdc57600080fd5b815180151581146107c857600080fd5b60006020808385031215613bff57600080fd5b825167ffffffffffffffff80821115613c1757600080fd5b818501915085601f830112613c2b57600080fd5b8151613c39613a28826139bb565b81815290840283018401908481019088831115613c5557600080fd5b8585015b83811015613c8d57805185811115613c715760008081fd5b613c7f8b89838a0101613abc565b845250918601918601613c59565b5098975050505050505050565b606081526000613cad606083018661364b565b60208301949094525060400152919050565b828152604060208201526000613b20604083018461364b565b600061ffff80831681811415613cf057613cf0613a72565b6001019392505050565b600060208284031215613d0c57600080fd5b8151600c81106107c857600080fd5b60008251613d2d81846020870161361b565b919091019291505056fe52656d6f7465204c61756e636820616e642047756964616e63652053797374656da2646970667358221220359a634fc42cc9c2a0d7e337dd6b3769602ceeecf1375ff62a8f9a89d2cc276364736f6c634300080b0033",
  "immutableReferences": {},
  "source": "// SPDX-License-Identifier: GPL-3.0\npragma solidity >=0.8.0;\n\nimport \"../HexplorationBoard.sol\";\nimport \"../HexplorationZone.sol\";\nimport \"@luckymachines/game-core/contracts/src/v0.0/PlayerRegistry.sol\";\nimport \"./CharacterCard.sol\";\nimport \"../tokens/TokenInventory.sol\";\nimport \"../HexplorationQueue.sol\";\n\nlibrary GameSummary {\n    // Function called by frontent for game info\n    function boardSize(address gameBoardAddress)\n        public\n        view\n        returns (uint256 rows, uint256 columns)\n    {\n        HexplorationBoard board = HexplorationBoard(gameBoardAddress);\n        rows = board.gridHeight();\n        columns = board.gridWidth();\n    }\n\n    function isRegistered(\n        address gameBoardAddress,\n        uint256 gameID,\n        address playerAddress\n    ) public view returns (bool) {\n        HexplorationBoard board = HexplorationBoard(gameBoardAddress);\n        PlayerRegistry pr = PlayerRegistry(board.prAddress());\n        return pr.isRegistered(gameID, playerAddress);\n    }\n\n    function getPlayerID(\n        address gameBoardAddress,\n        uint256 gameID,\n        address playerAddress\n    ) public view returns (uint256 playerID) {\n        HexplorationBoard board = HexplorationBoard(gameBoardAddress);\n        PlayerRegistry pr = PlayerRegistry(board.prAddress());\n        playerID = pr.playerID(gameID, playerAddress);\n    }\n\n    function currentGameplayQueue(address gameBoardAddress, uint256 gameID)\n        public\n        view\n        returns (uint256)\n    {\n        HexplorationBoard board = HexplorationBoard(gameBoardAddress);\n        HexplorationQueue q = HexplorationQueue(board.gameplayQueue());\n        return q.queueID(gameID);\n    }\n\n    function currentPhase(address gameBoardAddress, uint256 gameID)\n        public\n        view\n        returns (string memory phase)\n    {\n        HexplorationBoard board = HexplorationBoard(gameBoardAddress);\n        TokenInventory tokens = TokenInventory(board.tokenInventory());\n\n        uint256 dayBalance = tokens.DAY_NIGHT_TOKEN().balance(\"Day\", gameID, 1);\n        phase = dayBalance > 0 ? \"Day\" : \"Night\";\n    }\n\n    function activeZones(address gameBoardAddress, uint256 gameID)\n        public\n        view\n        returns (string[] memory zones, uint16[] memory tiles)\n    {\n        HexplorationBoard board = HexplorationBoard(gameBoardAddress);\n        string[] memory allZones = board.getZoneAliases();\n\n        uint16 activeZoneCount = 0;\n        for (uint256 i = 0; i < allZones.length; i++) {\n            if (board.zoneEnabled(gameID, allZones[i])) {\n                activeZoneCount++;\n            }\n        }\n        zones = new string[](activeZoneCount);\n        tiles = new uint16[](activeZoneCount);\n\n        activeZoneCount = 0;\n        for (uint256 i = 0; i < allZones.length; i++) {\n            if (board.zoneEnabled(gameID, allZones[i])) {\n                zones[activeZoneCount] = allZones[i];\n                HexplorationZone hexZone = HexplorationZone(\n                    board.hexZoneAddress()\n                );\n                tiles[activeZoneCount] = uint16(\n                    hexZone.tile(gameID, allZones[i])\n                );\n                activeZoneCount++;\n            }\n        }\n    }\n\n    function landingSite(address gameBoardAddress, uint256 gameID)\n        public\n        view\n        returns (string memory)\n    {\n        return HexplorationBoard(gameBoardAddress).initialPlayZone(gameID);\n    }\n\n    // Functions called directly by players\n\n    function allPlayerLocations(address gameBoardAddress, uint256 gameID)\n        public\n        view\n        returns (uint256[] memory, string[] memory)\n    {\n        HexplorationBoard board = HexplorationBoard(gameBoardAddress);\n        PlayerRegistry pr = PlayerRegistry(board.prAddress());\n        uint256 totalRegistrations = pr.totalRegistrations(gameID);\n        uint256[] memory playerIDs = new uint256[](totalRegistrations);\n        string[] memory playerZones = new string[](totalRegistrations);\n        for (uint256 i = 0; i < totalRegistrations; i++) {\n            playerIDs[i] = i + 1;\n            playerZones[i] = board.currentPlayZone(gameID, i + 1);\n        }\n        return (playerIDs, playerZones);\n    }\n\n    function currentLocation(address gameBoardAddress, uint256 gameID)\n        public\n        view\n        returns (string memory)\n    {\n        HexplorationBoard board = HexplorationBoard(gameBoardAddress);\n        PlayerRegistry pr = PlayerRegistry(board.prAddress());\n        return board.currentPlayZone(gameID, pr.playerID(gameID, msg.sender));\n    }\n\n    function currentPlayerStats(address gameBoardAddress, uint256 gameID)\n        public\n        view\n        returns (\n            uint8 movement,\n            uint8 agility,\n            uint8 dexterity\n        )\n    {\n        HexplorationBoard board = HexplorationBoard(gameBoardAddress);\n        CharacterCard cc = CharacterCard(board.characterCard());\n        PlayerRegistry pr = PlayerRegistry(board.prAddress());\n        uint256 playerID = pr.playerID(gameID, msg.sender);\n        movement = cc.movement(gameID, playerID);\n        agility = cc.agility(gameID, playerID);\n        dexterity = cc.dexterity(gameID, playerID);\n    }\n\n    function currentHandInventory(address gameBoardAddress, uint256 gameID)\n        public\n        view\n        returns (string memory leftHandItem, string memory rightHandItem)\n    {\n        HexplorationBoard board = HexplorationBoard(gameBoardAddress);\n        CharacterCard cc = CharacterCard(board.characterCard());\n        PlayerRegistry pr = PlayerRegistry(board.prAddress());\n        uint256 playerID = pr.playerID(gameID, msg.sender);\n        leftHandItem = inventoryItemExists(\n            cc.leftHandItem(gameID, playerID),\n            board.tokenInventory(),\n            gameID,\n            PlayerRegistry(board.prAddress()).playerID(gameID, msg.sender)\n        )\n            ? cc.leftHandItem(gameID, playerID)\n            : \"\";\n\n        rightHandItem = inventoryItemExists(\n            cc.rightHandItem(gameID, playerID),\n            board.tokenInventory(),\n            gameID,\n            PlayerRegistry(board.prAddress()).playerID(gameID, msg.sender)\n        )\n            ? cc.rightHandItem(gameID, playerID)\n            : \"\";\n    }\n\n    function activeInventory(address gameBoardAddress, uint256 gameID)\n        public\n        view\n        returns (\n            string memory artifact,\n            string memory status,\n            string memory relic,\n            bool shield,\n            bool campsite\n        )\n    {\n        HexplorationBoard board = HexplorationBoard(gameBoardAddress);\n        CharacterCard cc = CharacterCard(board.characterCard());\n        PlayerRegistry pr = PlayerRegistry(board.prAddress());\n        uint256 playerID = pr.playerID(gameID, msg.sender);\n        artifact = inventoryArtifactExists(\n            cc.artifact(gameID, playerID),\n            board.tokenInventory(),\n            gameID,\n            playerID\n        )\n            ? cc.artifact(gameID, playerID)\n            : \"\";\n\n        status = inventoryStatusExists(\n            cc.status(gameID, playerID),\n            board.tokenInventory(),\n            gameID,\n            playerID\n        )\n            ? cc.status(gameID, playerID)\n            : \"\";\n\n        relic = inventoryItemExists(\n            cc.relic(gameID, playerID),\n            board.tokenInventory(),\n            gameID,\n            playerID\n        )\n            ? cc.relic(gameID, playerID)\n            : \"\";\n\n        shield = inventoryItemExists(\n            \"Shield\",\n            board.tokenInventory(),\n            gameID,\n            playerID\n        )\n            ? true\n            : false;\n\n        campsite = inventoryItemExists(\n            \"Campsite\",\n            board.tokenInventory(),\n            gameID,\n            playerID\n        )\n            ? true\n            : false;\n    }\n\n    function inactiveInventory(address gameBoardAddress, uint256 gameID)\n        public\n        view\n        returns (string[] memory itemTypes, uint256[] memory itemBalances)\n    {\n        HexplorationBoard board = HexplorationBoard(gameBoardAddress);\n        PlayerRegistry pr = PlayerRegistry(board.prAddress());\n        TokenInventory ti = TokenInventory(board.tokenInventory());\n        itemBalances = new uint256[](35);\n        itemTypes = new string[](35);\n        itemTypes[0] = \"Small Ammo\";\n        itemTypes[1] = \"Large Ammo\";\n        itemTypes[2] = \"Batteries\";\n        itemTypes[3] = \"Shield\";\n        itemTypes[4] = \"Portal\";\n        itemTypes[5] = \"On\";\n        itemTypes[6] = \"Off\";\n        itemTypes[7] = \"Rusty Dagger\";\n        itemTypes[8] = \"Rusty Sword\";\n        itemTypes[9] = \"Rusty Pistol\";\n        itemTypes[10] = \"Rusty Rifle\";\n        itemTypes[11] = \"Shiny Dagger\";\n        itemTypes[12] = \"Shiny Sword\";\n        itemTypes[13] = \"Shiny Pistol\";\n        itemTypes[14] = \"Shiny Rifle\";\n        itemTypes[15] = \"Laser Dagger\";\n        itemTypes[16] = \"Laser Sword\";\n        itemTypes[17] = \"Laser Pistol\";\n        itemTypes[18] = \"Laser Rifle\";\n        itemTypes[19] = \"Glow stick\";\n        itemTypes[20] = \"Flashlight\";\n        itemTypes[21] = \"Flood light\";\n        itemTypes[22] = \"Nightvision Goggles\";\n        itemTypes[23] = \"Personal Shield\";\n        itemTypes[24] = \"Bubble Shield\";\n        itemTypes[25] = \"Frag Grenade\";\n        itemTypes[26] = \"Fire Grenade\";\n        itemTypes[27] = \"Shock Grenade\";\n        itemTypes[28] = \"HE Mortar\";\n        itemTypes[29] = \"Incendiary Mortar\";\n        itemTypes[30] = \"EMP Mortar\";\n        itemTypes[31] = \"Power Glove\";\n        itemTypes[32] = \"Remote Launch and Guidance System\";\n        itemTypes[33] = \"Teleporter Pack\";\n        itemTypes[34] = \"Campsite\";\n        uint256 playerID = pr.playerID(gameID, msg.sender);\n        if (ti.holdsToken(playerID, TokenInventory.Token.Item, gameID)) {\n            Item itemToken = ti.ITEM_TOKEN();\n            string[] memory types = itemToken.getTokenTypes();\n            for (uint256 i = 0; i < itemBalances.length; i++) {\n                itemTypes[i] = types[i];\n                itemBalances[i] = itemToken.balance(types[i], gameID, playerID);\n            }\n        }\n        // uint256 campsiteBalance = ti.ITEM_TOKEN().balance(\n        //     \"Campsite\",\n        //     gameID,\n        //     playerID\n        // );\n        // itemBalances[34] = campsiteBalance;\n    }\n\n    // Internal Stuff\n    function inventoryItemExists(\n        string memory tokenType,\n        address inventoryAddress,\n        uint256 gameID,\n        uint256 holderID\n    ) internal view returns (bool) {\n        return\n            TokenInventory(inventoryAddress).ITEM_TOKEN().balance(\n                tokenType,\n                gameID,\n                holderID\n            ) > 0;\n    }\n\n    function inventoryArtifactExists(\n        string memory tokenType,\n        address inventoryAddress,\n        uint256 gameID,\n        uint256 holderID\n    ) internal view returns (bool) {\n        return\n            TokenInventory(inventoryAddress).ARTIFACT_TOKEN().balance(\n                tokenType,\n                gameID,\n                holderID\n            ) > 0;\n    }\n\n    function inventoryStatusExists(\n        string memory tokenType,\n        address inventoryAddress,\n        uint256 gameID,\n        uint256 holderID\n    ) internal view returns (bool) {\n        return\n            TokenInventory(inventoryAddress).PLAYER_STATUS_TOKEN().balance(\n                tokenType,\n                gameID,\n                holderID\n            ) > 0;\n    }\n\n    function zoneIndex(address gameBoardAddress, string memory zoneAlias)\n        internal\n        view\n        returns (uint256 index)\n    {\n        index = 1111111111111;\n        HexplorationBoard board = HexplorationBoard(gameBoardAddress);\n        string[] memory allZones = board.getZoneAliases();\n        for (uint256 i = 0; i < allZones.length; i++) {\n            if (\n                keccak256(abi.encodePacked(zoneAlias)) ==\n                keccak256(abi.encodePacked(allZones[i]))\n            ) {\n                index = i;\n                break;\n            }\n        }\n    }\n\n    // TODO:\n    // Functions to complete\n\n    function activeAction(address gameBoardAddress, uint256 gameID)\n        public\n        view\n        returns (string memory action)\n    {}\n\n    function lastDayPhaseEvents(address gameBoardAddress, uint256 gameID)\n        public\n        returns (\n            uint256[] memory playerIDs,\n            string[] memory activeActionCardTypes,\n            string[] memory activeActionCardsDrawn,\n            string[] memory currentActiveActions,\n            string[] memory activeActionCardResults,\n            string[3][] memory activeActionCardInventoryChanges\n        )\n    {}\n\n    function lastPlayerActions(address gameBoardAddress, uint256 gameID)\n        public\n        returns (\n            uint256[] memory playerIDs,\n            string[] memory activeActionCardTypes,\n            string[] memory activeActionCardsDrawn,\n            string[] memory currentActiveActions,\n            string[] memory activeActionCardResults,\n            string[3][] memory activeActionCardInventoryChanges\n        )\n    {\n        // returns\n        // playerIDs\n        // activeActionCardType - // \"Event\",\"Ambush\",\"Treasure\"\n        // activationActionCardsDrawn = card title of card drawn\n        // currentActveActions - action doing that led to card draw\n        // activeActionCardResults - outcomes of cards\n        // activeActionCardInventoryChangs - item loss, item gain, hand loss (left/right)\n    }\n\n    // SHINY NEW FUNCTIONS!!!\n    function getAvailableGameIDs(\n        address gameBoardAddress,\n        address gameRegistryAddress\n    ) public view returns (uint256[] memory) {\n        // TODO: return available game IDs\n        // GameRegistry(gameRegistryAddress)\n        return\n            HexplorationBoard(gameBoardAddress).openGames(gameRegistryAddress);\n    }\n\n    function isAtCampsite(address gameBoardAddress, uint256 gameID)\n        public\n        view\n        returns (bool atCampsite)\n    {\n        HexplorationBoard board = HexplorationBoard(gameBoardAddress);\n        PlayerRegistry pr = PlayerRegistry(board.prAddress());\n        string memory currentZone = board.currentPlayZone(\n            gameID,\n            pr.playerID(gameID, msg.sender)\n        );\n        uint256 index = zoneIndex(gameBoardAddress, currentZone);\n        // zone balance...\n        //mapping(string => mapping(uint256 => mapping(uint256 => uint256)))\n\n        atCampsite =\n            TokenInventory(board.tokenInventory()).ITEM_TOKEN().zoneBalance(\n                \"Campsite\",\n                gameID,\n                index\n            ) >\n            0;\n    }\n}\n",
  "sourcePath": "/Users/max/demo/hexploration/contracts/state/GameSummary.sol",
  "compiler": {
    "name": "solc",
    "version": "0.8.11+commit.d7f03943.Emscripten.clang"
  },
  "schemaVersion": "3.4.2",
  "updatedAt": "2022-05-26T22:29:40.310Z",
  "devdoc": {
    "kind": "dev",
    "methods": {},
    "version": 1
  },
  "userdoc": {
    "kind": "user",
    "methods": {},
    "version": 1
  }
}