{
  "contractName": "GameSummary",
  "abi": [
    {
      "inputs": [
        {
          "internalType": "address",
          "name": "gameBoardAddress",
          "type": "address"
        }
      ],
      "name": "boardSize",
      "outputs": [
        {
          "internalType": "uint256",
          "name": "rows",
          "type": "uint256"
        },
        {
          "internalType": "uint256",
          "name": "columns",
          "type": "uint256"
        }
      ],
      "stateMutability": "view",
      "type": "function"
    },
    {
      "inputs": [
        {
          "internalType": "address",
          "name": "gameBoardAddress",
          "type": "address"
        },
        {
          "internalType": "uint256",
          "name": "gameID",
          "type": "uint256"
        }
      ],
      "name": "activeZones",
      "outputs": [
        {
          "internalType": "string[]",
          "name": "zones",
          "type": "string[]"
        },
        {
          "internalType": "uint16[]",
          "name": "tiles",
          "type": "uint16[]"
        }
      ],
      "stateMutability": "view",
      "type": "function"
    },
    {
      "inputs": [
        {
          "internalType": "address",
          "name": "gameBoardAddress",
          "type": "address"
        },
        {
          "internalType": "uint256",
          "name": "gameID",
          "type": "uint256"
        }
      ],
      "name": "landingSite",
      "outputs": [
        {
          "internalType": "string",
          "name": "",
          "type": "string"
        }
      ],
      "stateMutability": "view",
      "type": "function"
    },
    {
      "inputs": [
        {
          "internalType": "address",
          "name": "gameBoardAddress",
          "type": "address"
        },
        {
          "internalType": "uint256",
          "name": "gameID",
          "type": "uint256"
        }
      ],
      "name": "currentLocation",
      "outputs": [
        {
          "internalType": "string",
          "name": "",
          "type": "string"
        }
      ],
      "stateMutability": "view",
      "type": "function"
    },
    {
      "inputs": [
        {
          "internalType": "address",
          "name": "gameBoardAddress",
          "type": "address"
        },
        {
          "internalType": "uint256",
          "name": "gameID",
          "type": "uint256"
        }
      ],
      "name": "allPlayerLocations",
      "outputs": [
        {
          "internalType": "uint256[]",
          "name": "",
          "type": "uint256[]"
        },
        {
          "internalType": "string[]",
          "name": "",
          "type": "string[]"
        }
      ],
      "stateMutability": "view",
      "type": "function"
    },
    {
      "inputs": [
        {
          "internalType": "address",
          "name": "gameBoardAddress",
          "type": "address"
        },
        {
          "internalType": "uint256",
          "name": "gameID",
          "type": "uint256"
        }
      ],
      "name": "currentPlayerStats",
      "outputs": [
        {
          "internalType": "uint8",
          "name": "movement",
          "type": "uint8"
        },
        {
          "internalType": "uint8",
          "name": "agility",
          "type": "uint8"
        },
        {
          "internalType": "uint8",
          "name": "dexterity",
          "type": "uint8"
        },
        {
          "internalType": "string",
          "name": "leftHandItem",
          "type": "string"
        },
        {
          "internalType": "string",
          "name": "rightHandItem",
          "type": "string"
        },
        {
          "internalType": "string",
          "name": "artifact",
          "type": "string"
        },
        {
          "internalType": "string",
          "name": "status",
          "type": "string"
        },
        {
          "internalType": "string",
          "name": "relic",
          "type": "string"
        },
        {
          "internalType": "bool",
          "name": "shield",
          "type": "bool"
        },
        {
          "internalType": "bool",
          "name": "campsite",
          "type": "bool"
        }
      ],
      "stateMutability": "view",
      "type": "function"
    }
  ],
  "bytecode": "0x6113e8610053600b82828239805160001a607314610046577f4e487b7100000000000000000000000000000000000000000000000000000000600052600060045260246000fd5b30600052607381538281f3fe730000000000000000000000000000000000000000301460806040526004361061006f5760e060020a60003504632f874fe081146100745780638191e062146100a6578063821ba3a1146100c7578063e569d33a146100e7578063ee203a8e14610108578063f8ffdfcc14610130575b600080fd5b610087610082366004610e52565b610143565b60405161009d9a99989796959493929190610eda565b60405180910390f35b6100b96100b4366004610e52565b6104cf565b60405161009d929190610fce565b6100da6100d5366004610e52565b610754565b60405161009d9190611025565b6100fa6100f5366004610e52565b6107e4565b60405161009d929190611038565b61011b610116366004611093565b610be8565b6040805192835260208301919091520161009d565b6100da61013e366004610e52565b610cc4565b6000806000606080606080606060008060008c9050600081600160a060020a03166324a5f50e6040518163ffffffff1660e060020a028152600401602060405180830381865afa15801561019b573d6000803e3d6000fd5b505050506040513d601f19601f820116820180604052508101906101bf91906110b0565b6040517ffdf5a31c000000000000000000000000000000000000000000000000000000008152600481018f9052336024820152909150600160a060020a0382169063fdf5a31c90604401602060405180830381865afa158015610226573d6000803e3d6000fd5b505050506040513d601f19601f8201168201806040525081019061024a91906110cd565b6040517fca318967000000000000000000000000000000000000000000000000000000008152600481018f9052336024820152909c50600160a060020a0382169063ca31896790604401602060405180830381865afa1580156102b1573d6000803e3d6000fd5b505050506040513d601f19601f820116820180604052508101906102d591906110cd565b6040517f989c11a9000000000000000000000000000000000000000000000000000000008152600481018f9052336024820152909b50600160a060020a0382169063989c11a990604401602060405180830381865afa15801561033c573d6000803e3d6000fd5b505050506040513d601f19601f8201168201806040525081019061036091906110cd565b6040517fa082936d000000000000000000000000000000000000000000000000000000008152600481018f9052336024820152909a50600160a060020a0382169063a082936d90604401600060405180830381865afa1580156103c7573d6000803e3d6000fd5b505050506040513d6000823e601f3d908101601f191682016040526103ef91908101906111a6565b6040517f66625370000000000000000000000000000000000000000000000000000000008152600481018f9052336024820152909950600160a060020a03821690636662537090604401600060405180830381865afa158015610456573d6000803e3d6000fd5b505050506040513d6000823e601f3d908101601f1916820160405261047e91908101906111a6565b9750604051806020016040528060008152509650604051806020016040528060008152509550604051806020016040528060008152509450600093506000925050509295989b9194979a5092959850565b6060806000849050600081600160a060020a031663c06dea4e6040518163ffffffff1660e060020a028152600401602060405180830381865afa15801561051a573d6000803e3d6000fd5b505050506040513d601f19601f8201168201806040525081019061053e91906110b0565b6040517fb77ff41100000000000000000000000000000000000000000000000000000000815260048101879052909150600090600160a060020a0383169063b77ff41190602401602060405180830381865afa1580156105a2573d6000803e3d6000fd5b505050506040513d601f19601f820116820180604052508101906105c691906111db565b905060008167ffffffffffffffff8111156105e3576105e36110f0565b60405190808252806020026020018201604052801561060c578160200160208202803683370190505b50905060008267ffffffffffffffff81111561062a5761062a6110f0565b60405190808252806020026020018201604052801561065d57816020015b60608152602001906001900390816106485790505b50905060005b838110156107455761067681600161120d565b83828151811061068857610688611225565b6020908102919091010152600160a060020a03861663d75e79808a6106ae84600161120d565b60405160e060020a63ffffffff851602815260048101929092526024820152604401600060405180830381865afa1580156106ed573d6000803e3d6000fd5b505050506040513d6000823e601f3d908101601f1916820160405261071591908101906111a6565b82828151811061072757610727611225565b6020026020010181905250808061073d9061123e565b915050610663565b50909890975095505050505050565b6040517feb33983d00000000000000000000000000000000000000000000000000000000815260048101829052606090600160a060020a0384169063eb33983d90602401600060405180830381865afa1580156107b5573d6000803e3d6000fd5b505050506040513d6000823e601f3d908101601f191682016040526107dd91908101906111a6565b9392505050565b6060806000849050600081600160a060020a0316633ca61a586040518163ffffffff1660e060020a028152600401600060405180830381865afa15801561082f573d6000803e3d6000fd5b505050506040513d6000823e601f3d908101601f191682016040526108579190810190611259565b90506000805b82518110156109165783600160a060020a031663ed3719a58885848151811061088857610888611225565b60200260200101516040518363ffffffff1660e060020a0281526004016108b092919061131b565b602060405180830381865afa1580156108cd573d6000803e3d6000fd5b505050506040513d601f19601f820116820180604052508101906108f19190611334565b15610904578161090081611356565b9250505b8061090e8161123e565b91505061085d565b508061ffff1667ffffffffffffffff811115610934576109346110f0565b60405190808252806020026020018201604052801561096757816020015b60608152602001906001900390816109525790505b5094508061ffff1667ffffffffffffffff811115610987576109876110f0565b6040519080825280602002602001820160405280156109b0578160200160208202803683370190505b5093506000905060005b8251811015610bdd5783600160a060020a031663ed3719a5888584815181106109e5576109e5611225565b60200260200101516040518363ffffffff1660e060020a028152600401610a0d92919061131b565b602060405180830381865afa158015610a2a573d6000803e3d6000fd5b505050506040513d601f19601f82011682018060405250810190610a4e9190611334565b15610bcb57828181518110610a6557610a65611225565b6020026020010151868361ffff1681518110610a8357610a83611225565b6020026020010181905250600084600160a060020a03166335e333e46040518163ffffffff1660e060020a028152600401602060405180830381865afa158015610ad1573d6000803e3d6000fd5b505050506040513d601f19601f82011682018060405250810190610af591906110b0565b905080600160a060020a03166330821b9c89868581518110610b1957610b19611225565b60200260200101516040518363ffffffff1660e060020a028152600401610b4192919061131b565b602060405180830381865afa158015610b5e573d6000803e3d6000fd5b505050506040513d601f19601f82011682018060405250810190610b829190611378565b600b811115610b9357610b93611399565b868461ffff1681518110610ba957610ba9611225565b61ffff9092166020928302919091019091015282610bc681611356565b935050505b80610bd58161123e565b9150506109ba565b505050509250929050565b600080600083905080600160a060020a031663108c5e146040518163ffffffff1660e060020a028152600401602060405180830381865afa158015610c31573d6000803e3d6000fd5b505050506040513d601f19601f82011682018060405250810190610c5591906111db565b925080600160a060020a03166338b145df6040518163ffffffff1660e060020a028152600401602060405180830381865afa158015610c98573d6000803e3d6000fd5b505050506040513d601f19601f82011682018060405250810190610cbc91906111db565b915050915091565b60606000839050600081600160a060020a031663c06dea4e6040518163ffffffff1660e060020a028152600401602060405180830381865afa158015610d0e573d6000803e3d6000fd5b505050506040513d601f19601f82011682018060405250810190610d3291906110b0565b6040517fbca7caa000000000000000000000000000000000000000000000000000000000815260048101869052336024820152909150600160a060020a038084169163d75e79809187919085169063bca7caa090604401602060405180830381865afa158015610da6573d6000803e3d6000fd5b505050506040513d601f19601f82011682018060405250810190610dca91906111db565b60405160e060020a63ffffffff851602815260048101929092526024820152604401600060405180830381865afa158015610e09573d6000803e3d6000fd5b505050506040513d6000823e601f3d908101601f19168201604052610e3191908101906111a6565b95945050505050565b600160a060020a0381168114610e4f57600080fd5b50565b60008060408385031215610e6557600080fd5b8235610e7081610e3a565b946020939093013593505050565b60005b83811015610e99578181015183820152602001610e81565b83811115610ea8576000848401525b50505050565b60008151808452610ec6816020860160208601610e7e565b601f01601f19169290920160200192915050565b600061014060ff8d16835260ff8c16602084015260ff8b166040840152806060840152610f098184018b610eae565b90508281036080840152610f1d818a610eae565b905082810360a0840152610f318189610eae565b905082810360c0840152610f458188610eae565b905082810360e0840152610f598187610eae565b94151561010084015250509015156101209091015298975050505050505050565b600081518084526020808501808196508284028101915082860160005b85811015610fc1578284038952610faf848351610eae565b98850198935090840190600101610f97565b5091979650505050505050565b604080825283519082018190526000906020906060840190828701845b8281101561100757815184529284019290840190600101610feb565b5050508381038285015261101b8186610f7a565b9695505050505050565b6020815260006107dd6020830184610eae565b60408152600061104b6040830185610f7a565b82810360208481019190915284518083528582019282019060005b8181101561108657845161ffff1683529383019391830191600101611066565b5090979650505050505050565b6000602082840312156110a557600080fd5b81356107dd81610e3a565b6000602082840312156110c257600080fd5b81516107dd81610e3a565b6000602082840312156110df57600080fd5b815160ff811681146107dd57600080fd5b60e060020a634e487b7102600052604160045260246000fd5b604051601f8201601f1916810167ffffffffffffffff81118282101715611132576111326110f0565b604052919050565b600082601f83011261114b57600080fd5b815167ffffffffffffffff811115611165576111656110f0565b611178601f8201601f1916602001611109565b81815284602083860101111561118d57600080fd5b61119e826020830160208701610e7e565b949350505050565b6000602082840312156111b857600080fd5b815167ffffffffffffffff8111156111cf57600080fd5b61119e8482850161113a565b6000602082840312156111ed57600080fd5b5051919050565b60e060020a634e487b7102600052601160045260246000fd5b60008219821115611220576112206111f4565b500190565b60e060020a634e487b7102600052603260045260246000fd5b6000600019821415611252576112526111f4565b5060010190565b6000602080838503121561126c57600080fd5b825167ffffffffffffffff8082111561128457600080fd5b818501915085601f83011261129857600080fd5b8151818111156112aa576112aa6110f0565b8381026112b8858201611109565b91825283810185019185810190898411156112d257600080fd5b86860192505b8383101561130e578251858111156112f05760008081fd5b6112fe8b89838a010161113a565b83525091860191908601906112d8565b9998505050505050505050565b82815260406020820152600061119e6040830184610eae565b60006020828403121561134657600080fd5b815180151581146107dd57600080fd5b600061ffff8083168181141561136e5761136e6111f4565b6001019392505050565b60006020828403121561138a57600080fd5b8151600c81106107dd57600080fd5b60e060020a634e487b7102600052602160045260246000fdfea26469706673582212207ea2af9e515905b538b359bdf986f44f1bbcd1cd3f1d4002ca3150a342815aab64736f6c634300080b0033",
  "immutableReferences": {},
  "source": "// SPDX-License-Identifier: GPL-3.0\npragma solidity >=0.8.0;\n\nimport \"../HexplorationBoard.sol\";\nimport \"../HexplorationZone.sol\";\nimport \"@luckymachines/game-core/contracts/src/v0.0/PlayerRegistry.sol\";\nimport \"./CharacterCard.sol\";\n// Game Wallets\nimport \"./GameWallet.sol\";\n\nlibrary GameSummary {\n    // enemies\n    // tokens\n    function boardSize(address gameBoardAddress)\n        public\n        view\n        returns (uint256 rows, uint256 columns)\n    {\n        HexplorationBoard board = HexplorationBoard(gameBoardAddress);\n        rows = board.gridHeight();\n        columns = board.gridWidth();\n    }\n\n    function activeZones(address gameBoardAddress, uint256 gameID)\n        public\n        view\n        returns (string[] memory zones, uint16[] memory tiles)\n    {\n        HexplorationBoard board = HexplorationBoard(gameBoardAddress);\n        string[] memory allZones = board.getZoneAliases();\n\n        uint16 activeZoneCount = 0;\n        for (uint256 i = 0; i < allZones.length; i++) {\n            if (board.zoneEnabled(gameID, allZones[i])) {\n                activeZoneCount++;\n            }\n        }\n        zones = new string[](activeZoneCount);\n        tiles = new uint16[](activeZoneCount);\n\n        activeZoneCount = 0;\n        for (uint256 i = 0; i < allZones.length; i++) {\n            if (board.zoneEnabled(gameID, allZones[i])) {\n                zones[activeZoneCount] = allZones[i];\n                HexplorationZone hexZone = HexplorationZone(\n                    board.hexZoneAddress()\n                );\n                tiles[activeZoneCount] = uint16(\n                    hexZone.tile(gameID, allZones[i])\n                );\n                activeZoneCount++;\n            }\n        }\n    }\n\n    function landingSite(address gameBoardAddress, uint256 gameID)\n        public\n        view\n        returns (string memory)\n    {\n        return HexplorationBoard(gameBoardAddress).initialPlayZone(gameID);\n    }\n\n    function currentLocation(address gameBoardAddress, uint256 gameID)\n        public\n        view\n        returns (string memory)\n    {\n        HexplorationBoard board = HexplorationBoard(gameBoardAddress);\n        PlayerRegistry pr = PlayerRegistry(board.prAddress());\n        return board.currentPlayZone(gameID, pr.playerID(gameID, msg.sender));\n    }\n\n    function allPlayerLocations(address gameBoardAddress, uint256 gameID)\n        public\n        view\n        returns (uint256[] memory, string[] memory)\n    {\n        HexplorationBoard board = HexplorationBoard(gameBoardAddress);\n        PlayerRegistry pr = PlayerRegistry(board.prAddress());\n        uint256 totalRegistrations = pr.totalRegistrations(gameID);\n        uint256[] memory playerIDs = new uint256[](totalRegistrations);\n        string[] memory playerZones = new string[](totalRegistrations);\n        for (uint256 i = 0; i < totalRegistrations; i++) {\n            playerIDs[i] = i + 1;\n            playerZones[i] = board.currentPlayZone(gameID, i + 1);\n        }\n        return (playerIDs, playerZones);\n    }\n\n    function currentPlayerStats(address gameBoardAddress, uint256 gameID)\n        public\n        view\n        returns (\n            uint8 movement,\n            uint8 agility,\n            uint8 dexterity,\n            string memory leftHandItem,\n            string memory rightHandItem,\n            string memory artifact,\n            string memory status,\n            string memory relic,\n            bool shield,\n            bool campsite\n        )\n    {\n        HexplorationBoard board = HexplorationBoard(gameBoardAddress);\n        CharacterCard cc = CharacterCard(board.characterCardAddress());\n        movement = cc.movement(gameID, msg.sender);\n        agility = cc.agility(gameID, msg.sender);\n        dexterity = cc.dexterity(gameID, msg.sender);\n        leftHandItem = cc.leftHandItem(gameID, msg.sender);\n        rightHandItem = cc.rightHandItem(gameID, msg.sender);\n        artifact = \"\";\n        status = \"\";\n        relic = \"\";\n        shield = false;\n        campsite = false;\n    }\n}\n",
  "sourcePath": "/Users/maxmeier/Developer/Lucky Machines/hexploration/contracts/state/GameSummary.sol",
  "compiler": {
    "name": "solc",
    "version": "0.8.11+commit.d7f03943.Emscripten.clang"
  },
  "schemaVersion": "3.4.4",
  "updatedAt": "2022-05-15T22:47:51.707Z",
  "devdoc": {
    "kind": "dev",
    "methods": {},
    "version": 1
  },
  "userdoc": {
    "kind": "user",
    "methods": {},
    "version": 1
  }
}