{
  "contractName": "GameToken",
  "abi": [
    {
      "inputs": [
        {
          "internalType": "address",
          "name": "controllerAddress",
          "type": "address"
        }
      ],
      "stateMutability": "nonpayable",
      "type": "constructor"
    },
    {
      "anonymous": false,
      "inputs": [
        {
          "indexed": true,
          "internalType": "bytes32",
          "name": "role",
          "type": "bytes32"
        },
        {
          "indexed": true,
          "internalType": "bytes32",
          "name": "previousAdminRole",
          "type": "bytes32"
        },
        {
          "indexed": true,
          "internalType": "bytes32",
          "name": "newAdminRole",
          "type": "bytes32"
        }
      ],
      "name": "RoleAdminChanged",
      "type": "event"
    },
    {
      "anonymous": false,
      "inputs": [
        {
          "indexed": true,
          "internalType": "bytes32",
          "name": "role",
          "type": "bytes32"
        },
        {
          "indexed": true,
          "internalType": "address",
          "name": "account",
          "type": "address"
        },
        {
          "indexed": true,
          "internalType": "address",
          "name": "sender",
          "type": "address"
        }
      ],
      "name": "RoleGranted",
      "type": "event"
    },
    {
      "anonymous": false,
      "inputs": [
        {
          "indexed": true,
          "internalType": "bytes32",
          "name": "role",
          "type": "bytes32"
        },
        {
          "indexed": true,
          "internalType": "address",
          "name": "account",
          "type": "address"
        },
        {
          "indexed": true,
          "internalType": "address",
          "name": "sender",
          "type": "address"
        }
      ],
      "name": "RoleRevoked",
      "type": "event"
    },
    {
      "anonymous": false,
      "inputs": [
        {
          "indexed": true,
          "internalType": "uint256",
          "name": "gameID",
          "type": "uint256"
        },
        {
          "indexed": true,
          "internalType": "uint256",
          "name": "fromID",
          "type": "uint256"
        },
        {
          "indexed": true,
          "internalType": "uint256",
          "name": "toID",
          "type": "uint256"
        },
        {
          "indexed": false,
          "internalType": "address",
          "name": "controller",
          "type": "address"
        },
        {
          "indexed": false,
          "internalType": "string",
          "name": "tokenType",
          "type": "string"
        },
        {
          "indexed": false,
          "internalType": "uint256",
          "name": "value",
          "type": "uint256"
        }
      ],
      "name": "Transfer",
      "type": "event"
    },
    {
      "inputs": [],
      "name": "CONTROLLER_ROLE",
      "outputs": [
        {
          "internalType": "bytes32",
          "name": "",
          "type": "bytes32"
        }
      ],
      "stateMutability": "view",
      "type": "function"
    },
    {
      "inputs": [],
      "name": "DEFAULT_ADMIN_ROLE",
      "outputs": [
        {
          "internalType": "bytes32",
          "name": "",
          "type": "bytes32"
        }
      ],
      "stateMutability": "view",
      "type": "function"
    },
    {
      "inputs": [
        {
          "internalType": "string",
          "name": "",
          "type": "string"
        },
        {
          "internalType": "uint256",
          "name": "",
          "type": "uint256"
        },
        {
          "internalType": "uint256",
          "name": "",
          "type": "uint256"
        }
      ],
      "name": "balance",
      "outputs": [
        {
          "internalType": "uint256",
          "name": "",
          "type": "uint256"
        }
      ],
      "stateMutability": "view",
      "type": "function"
    },
    {
      "inputs": [
        {
          "internalType": "bytes32",
          "name": "role",
          "type": "bytes32"
        }
      ],
      "name": "getRoleAdmin",
      "outputs": [
        {
          "internalType": "bytes32",
          "name": "",
          "type": "bytes32"
        }
      ],
      "stateMutability": "view",
      "type": "function"
    },
    {
      "inputs": [
        {
          "internalType": "bytes32",
          "name": "role",
          "type": "bytes32"
        },
        {
          "internalType": "uint256",
          "name": "index",
          "type": "uint256"
        }
      ],
      "name": "getRoleMember",
      "outputs": [
        {
          "internalType": "address",
          "name": "",
          "type": "address"
        }
      ],
      "stateMutability": "view",
      "type": "function"
    },
    {
      "inputs": [
        {
          "internalType": "bytes32",
          "name": "role",
          "type": "bytes32"
        }
      ],
      "name": "getRoleMemberCount",
      "outputs": [
        {
          "internalType": "uint256",
          "name": "",
          "type": "uint256"
        }
      ],
      "stateMutability": "view",
      "type": "function"
    },
    {
      "inputs": [
        {
          "internalType": "bytes32",
          "name": "role",
          "type": "bytes32"
        },
        {
          "internalType": "address",
          "name": "account",
          "type": "address"
        }
      ],
      "name": "grantRole",
      "outputs": [],
      "stateMutability": "nonpayable",
      "type": "function"
    },
    {
      "inputs": [
        {
          "internalType": "bytes32",
          "name": "role",
          "type": "bytes32"
        },
        {
          "internalType": "address",
          "name": "account",
          "type": "address"
        }
      ],
      "name": "hasRole",
      "outputs": [
        {
          "internalType": "bool",
          "name": "",
          "type": "bool"
        }
      ],
      "stateMutability": "view",
      "type": "function"
    },
    {
      "inputs": [
        {
          "internalType": "bytes32",
          "name": "role",
          "type": "bytes32"
        },
        {
          "internalType": "address",
          "name": "account",
          "type": "address"
        }
      ],
      "name": "renounceRole",
      "outputs": [],
      "stateMutability": "nonpayable",
      "type": "function"
    },
    {
      "inputs": [
        {
          "internalType": "bytes32",
          "name": "role",
          "type": "bytes32"
        },
        {
          "internalType": "address",
          "name": "account",
          "type": "address"
        }
      ],
      "name": "revokeRole",
      "outputs": [],
      "stateMutability": "nonpayable",
      "type": "function"
    },
    {
      "inputs": [
        {
          "internalType": "bytes4",
          "name": "interfaceId",
          "type": "bytes4"
        }
      ],
      "name": "supportsInterface",
      "outputs": [
        {
          "internalType": "bool",
          "name": "",
          "type": "bool"
        }
      ],
      "stateMutability": "view",
      "type": "function"
    },
    {
      "inputs": [
        {
          "internalType": "uint256",
          "name": "",
          "type": "uint256"
        }
      ],
      "name": "tokenTypes",
      "outputs": [
        {
          "internalType": "string",
          "name": "",
          "type": "string"
        }
      ],
      "stateMutability": "view",
      "type": "function"
    },
    {
      "inputs": [
        {
          "internalType": "string[]",
          "name": "_tokenTypes",
          "type": "string[]"
        }
      ],
      "name": "addTokenTypes",
      "outputs": [],
      "stateMutability": "nonpayable",
      "type": "function"
    },
    {
      "inputs": [
        {
          "internalType": "string",
          "name": "tokenType",
          "type": "string"
        },
        {
          "internalType": "uint256",
          "name": "gameID",
          "type": "uint256"
        },
        {
          "internalType": "uint256",
          "name": "quantity",
          "type": "uint256"
        }
      ],
      "name": "mint",
      "outputs": [],
      "stateMutability": "nonpayable",
      "type": "function"
    },
    {
      "inputs": [
        {
          "internalType": "string",
          "name": "tokenType",
          "type": "string"
        },
        {
          "internalType": "uint256",
          "name": "gameID",
          "type": "uint256"
        },
        {
          "internalType": "uint256",
          "name": "fromID",
          "type": "uint256"
        },
        {
          "internalType": "uint256",
          "name": "toID",
          "type": "uint256"
        },
        {
          "internalType": "uint256",
          "name": "quantity",
          "type": "uint256"
        }
      ],
      "name": "transfer",
      "outputs": [],
      "stateMutability": "nonpayable",
      "type": "function"
    },
    {
      "inputs": [],
      "name": "getTokenTypes",
      "outputs": [
        {
          "internalType": "string[]",
          "name": "",
          "type": "string[]"
        }
      ],
      "stateMutability": "view",
      "type": "function"
    }
  ],
  "bytecode": "0x60806040523480156200001157600080fd5b50604051620018023803806200180283398101604081905262000034916200025a565b6200005c60006200004d64010000000062000098810204565b6401000000006200009c810204565b620000917f7b765e0e932d348852a6f810bfa1ab891e259123f02db8cdcde614c570223357826401000000006200009c810204565b506200028c565b3390565b620000b18282640100000000620000b5810204565b5050565b620000cf828264010000000062000929620000fc82021704565b6000828152600160205260409020620000f79082640100000000620009ad6200019882021704565b505050565b620001118282640100000000620001c1810204565b620000b157600082815260208181526040808320600160a060020a03851684529091529020805460ff191660011790556200015464010000000062000098810204565b600160a060020a031681600160a060020a0316837f2f8788117e7eff1d82e926ec794901d17c78024a50270940304540a733656f0d60405160405180910390a45050565b6000620001b883600160a060020a038416640100000000620001ea810204565b90505b92915050565b600091825260208281526040808420600160a060020a0393909316845291905290205460ff1690565b600062000201838364010000000062000242810204565b6200023957508154600181810184556000848152602080822090930184905584548482528286019093526040902091909155620001bb565b506000620001bb565b60009081526001919091016020526040902054151590565b6000602082840312156200026d57600080fd5b8151600160a060020a03811681146200028557600080fd5b9392505050565b611566806200029c6000396000f3fe608060405234801561001057600080fd5b506004361061011d576000357c0100000000000000000000000000000000000000000000000000000000900480638f9925f8116100b4578063c853a1d011610083578063c853a1d014610297578063ca15c873146102ac578063d547741f146102bf578063d8291047146102d257600080fd5b80638f9925f81461023e5780639010d07c1461025157806391d148541461027c578063a217fddf1461028f57600080fd5b80632f2ff15d116100f05780632f2ff15d146101b757806333f6832a146101ca57806336568abe146101ea5780634db157d0146101fd57600080fd5b806301ffc9a714610122578063092c5b3b1461014a5780631c635ded1461017f578063248a9ca314610194575b600080fd5b610135610130366004610fc0565b6102e5565b60405190151581526020015b60405180910390f35b6101717f7b765e0e932d348852a6f810bfa1ab891e259123f02db8cdcde614c57022335781565b604051908152602001610141565b61019261018d3660046110a4565b610329565b005b6101716101a23660046110f2565b60009081526020819052604090206001015490565b6101926101c536600461110b565b610408565b6101dd6101d83660046110f2565b610432565b60405161014191906111a3565b6101926101f836600461110b565b6104de565b61017161020b3660046110a4565b82516020818501810180516002825292820195820195909520919094528352600091825260408083209093528152205481565b61019261024c3660046111b6565b61056d565b61026461025f366004611278565b61063e565b604051600160a060020a039091168152602001610141565b61013561028a36600461110b565b61065d565b610171600081565b61029f610686565b604051610141919061129a565b6101716102ba3660046110f2565b61075f565b6101926102cd36600461110b565b610776565b6101926102e03660046112fb565b61079b565b6000600160e060020a031982167f5a05180f0000000000000000000000000000000000000000000000000000000014806103235750610323826109c2565b92915050565b7f7b765e0e932d348852a6f810bfa1ab891e259123f02db8cdcde614c57022335761035381610a29565b6003846040516103639190611358565b9081526040519081900360200190205460ff166103ca5760405160e560020a62461bcd02815260206004820152601260248201527f546f6b656e2074797065206e6f7420736574000000000000000000000000000060448201526064015b60405180910390fd5b816002856040516103db9190611358565b90815260408051602092819003830190206000968752825280862086805290915290932092909255505050565b60008281526020819052604090206001015461042381610a29565b61042d8383610a36565b505050565b6004818154811061044257600080fd5b90600052602060002001600091509050805461045d90611374565b80601f016020809104026020016040519081016040528092919081815260200182805461048990611374565b80156104d65780601f106104ab576101008083540402835291602001916104d6565b820191906000526020600020905b8154815290600101906020018083116104b957829003601f168201915b505050505081565b600160a060020a038116331461055f5760405160e560020a62461bcd02815260206004820152602f60248201527f416363657373436f6e74726f6c3a2063616e206f6e6c792072656e6f756e636560448201527f20726f6c657320666f722073656c66000000000000000000000000000000000060648201526084016103c1565b6105698282610a58565b5050565b600061057881610a29565b60005b825181101561042d576000838281518110610598576105986113b2565b602002602001015190506000600490506003826040516105b89190611358565b9081526040519081900360200190205460ff16610629578054600181018255600082815260209081902084516105f5939190910191850190610f27565b5060016003836040516106089190611358565b908152604051908190036020019020805491151560ff199092169190911790555b50508080610636906113e4565b91505061057b565b60008281526001602052604081206106569083610a7a565b9392505050565b600091825260208281526040808420600160a060020a0393909316845291905290205460ff1690565b60606004805480602002602001604051908101604052809291908181526020016000905b828210156107565783829060005260206000200180546106c990611374565b80601f01602080910402602001604051908101604052809291908181526020018280546106f590611374565b80156107425780601f1061071757610100808354040283529160200191610742565b820191906000526020600020905b81548152906001019060200180831161072557829003601f168201915b5050505050815260200190600101906106aa565b50505050905090565b600081815260016020526040812061032390610a86565b60008281526020819052604090206001015461079181610a29565b61042d8383610a58565b7f7b765e0e932d348852a6f810bfa1ab891e259123f02db8cdcde614c5702233576107c581610a29565b816002876040516107d69190611358565b90815260408051602092819003830190206000898152908352818120888252909252902054101561084c5760405160e560020a62461bcd02815260206004820152601460248201527f66726f6d2062616c616e636520746f6f206c6f7700000000000000000000000060448201526064016103c1565b8160028760405161085d9190611358565b90815260408051602092819003830190206000898152908352818120878252909252812080549091906108919084906113ff565b92505081905550816002876040516108a99190611358565b90815260408051602092819003830190206000898152908352818120888252909252812080549091906108dd908490611417565b9091555083905084867fceca1129300a57e05eff40843f1869becc8df18339f4ddad0de80ecd7116ce6b338a876040516109199392919061142e565b60405180910390a4505050505050565b610933828261065d565b61056957600082815260208181526040808320600160a060020a03851684529091529020805460ff191660011790556109693390565b600160a060020a031681600160a060020a0316837f2f8788117e7eff1d82e926ec794901d17c78024a50270940304540a733656f0d60405160405180910390a45050565b600061065683600160a060020a038416610a90565b6000600160e060020a031982167f7965db0b00000000000000000000000000000000000000000000000000000000148061032357507f01ffc9a700000000000000000000000000000000000000000000000000000000600160e060020a0319831614610323565b610a338133610adf565b50565b610a408282610929565b600082815260016020526040902061042d90826109ad565b610a628282610b46565b600082815260016020526040902061042d9082610bab565b60006106568383610bc0565b6000610323825490565b6000818152600183016020526040812054610ad757508154600181810184556000848152602080822090930184905584548482528286019093526040902091909155610323565b506000610323565b610ae9828261065d565b61056957610b0181600160a060020a03166014610bea565b610b0c836020610bea565b604051602001610b1d929190611460565b60408051601f198184030181529082905260e560020a62461bcd0282526103c1916004016111a3565b610b50828261065d565b1561056957600082815260208181526040808320600160a060020a0385168085529252808320805460ff1916905551339285917ff6391f5c32d9c69d2a47ea670b442974b53935d1edc7fd64eb21e047a839171b9190a45050565b600061065683600160a060020a038416610e34565b6000826000018281548110610bd757610bd76113b2565b9060005260206000200154905092915050565b60606000610bf98360026114e1565b610c049060026113ff565b67ffffffffffffffff811115610c1c57610c1c610fea565b6040519080825280601f01601f191660200182016040528015610c46576020820181803683370190505b5090507f300000000000000000000000000000000000000000000000000000000000000081600081518110610c7d57610c7d6113b2565b60200101907effffffffffffffffffffffffffffffffffffffffffffffffffffffffffffff1916908160001a9053507f780000000000000000000000000000000000000000000000000000000000000081600181518110610ce057610ce06113b2565b60200101907effffffffffffffffffffffffffffffffffffffffffffffffffffffffffffff1916908160001a9053506000610d1c8460026114e1565b610d279060016113ff565b90505b6001811115610de2577f303132333435363738396162636465660000000000000000000000000000000085600f1660108110610d6857610d686113b2565b1a7f010000000000000000000000000000000000000000000000000000000000000002828281518110610d9d57610d9d6113b2565b60200101907effffffffffffffffffffffffffffffffffffffffffffffffffffffffffffff1916908160001a905350601090940493610ddb81611500565b9050610d2a565b5083156106565760405160e560020a62461bcd02815260206004820181905260248201527f537472696e67733a20686578206c656e67746820696e73756666696369656e7460448201526064016103c1565b60008181526001830160205260408120548015610f1d576000610e58600183611417565b8554909150600090610e6c90600190611417565b9050818114610ed1576000866000018281548110610e8c57610e8c6113b2565b9060005260206000200154905080876000018481548110610eaf57610eaf6113b2565b6000918252602080832090910192909255918252600188019052604090208390555b8554869080610ee257610ee2611517565b600190038181906000526020600020016000905590558560010160008681526020019081526020016000206000905560019350505050610323565b6000915050610323565b828054610f3390611374565b90600052602060002090601f016020900481019282610f555760008555610f9b565b82601f10610f6e57805160ff1916838001178555610f9b565b82800160010185558215610f9b579182015b82811115610f9b578251825591602001919060010190610f80565b50610fa7929150610fab565b5090565b5b80821115610fa75760008155600101610fac565b600060208284031215610fd257600080fd5b8135600160e060020a03198116811461065657600080fd5b60e060020a634e487b7102600052604160045260246000fd5b604051601f8201601f1916810167ffffffffffffffff8111828210171561102c5761102c610fea565b604052919050565b600082601f83011261104557600080fd5b813567ffffffffffffffff81111561105f5761105f610fea565b611072601f8201601f1916602001611003565b81815284602083860101111561108757600080fd5b816020850160208301376000918101602001919091529392505050565b6000806000606084860312156110b957600080fd5b833567ffffffffffffffff8111156110d057600080fd5b6110dc86828701611034565b9660208601359650604090950135949350505050565b60006020828403121561110457600080fd5b5035919050565b6000806040838503121561111e57600080fd5b823591506020830135600160a060020a038116811461113c57600080fd5b809150509250929050565b60005b8381101561116257818101518382015260200161114a565b83811115611171576000848401525b50505050565b6000815180845261118f816020860160208601611147565b601f01601f19169290920160200192915050565b6020815260006106566020830184611177565b600060208083850312156111c957600080fd5b823567ffffffffffffffff808211156111e157600080fd5b818501915085601f8301126111f557600080fd5b81358181111561120757611207610fea565b838102611215858201611003565b918252838101850191858101908984111561122f57600080fd5b86860192505b8383101561126b5782358581111561124d5760008081fd5b61125b8b89838a0101611034565b8352509186019190860190611235565b9998505050505050505050565b6000806040838503121561128b57600080fd5b50508035926020909101359150565b600060208083018184528085518083526040860191506040848202870101925083870160005b828110156112ee57603f198886030184526112dc858351611177565b945092850192908501906001016112c0565b5092979650505050505050565b600080600080600060a0868803121561131357600080fd5b853567ffffffffffffffff81111561132a57600080fd5b61133688828901611034565b9860208801359850604088013597606081013597506080013595509350505050565b6000825161136a818460208701611147565b9190910192915050565b60028104600182168061138857607f821691505b602082108114156113ac5760e060020a634e487b7102600052602260045260246000fd5b50919050565b60e060020a634e487b7102600052603260045260246000fd5b60e060020a634e487b7102600052601160045260246000fd5b60006000198214156113f8576113f86113cb565b5060010190565b60008219821115611412576114126113cb565b500190565b600082821015611429576114296113cb565b500390565b600160a060020a03841681526060602082015260006114506060830185611177565b9050826040830152949350505050565b7f416363657373436f6e74726f6c3a206163636f756e7420000000000000000000815260008351611498816017850160208801611147565b7f206973206d697373696e6720726f6c652000000000000000000000000000000060179184019182015283516114d5816028840160208801611147565b01602801949350505050565b60008160001904831182151516156114fb576114fb6113cb565b500290565b60008161150f5761150f6113cb565b506000190190565b60e060020a634e487b7102600052603160045260246000fdfea26469706673582212200ef99102e740a7a2a96c1bb9f2dfbe2829b0aad7d8a162ddbe312872475b71b864736f6c634300080b0033",
  "immutableReferences": {},
  "source": "// SPDX-License-Identifier: GPL-3.0\npragma solidity >=0.7.0 <0.9.0;\n\nimport \"@openzeppelin/contracts/access/AccessControlEnumerable.sol\";\n\n// Allows a collection of tokens to be created within a token group or contract\n// these tokens exclusively for in game use and by default only controllable by\n// a game controller\ncontract GameToken is AccessControlEnumerable {\n    event Transfer(\n        uint256 indexed gameID,\n        uint256 indexed fromID,\n        uint256 indexed toID,\n        address controller,\n        string tokenType,\n        uint256 value\n    );\n\n    bytes32 public constant CONTROLLER_ROLE = keccak256(\"CONTROLLER_ROLE\");\n    // tokenType => game ID => id =>\n    // (0 is bank, player ID or 1 is active wallet)\n    mapping(string => mapping(uint256 => mapping(uint256 => uint256)))\n        public balance;\n    mapping(string => bool) internal tokenTypeSet;\n    string[] public tokenTypes;\n\n    constructor(address controllerAddress) {\n        _setupRole(DEFAULT_ADMIN_ROLE, _msgSender());\n        // controller is only one who can send tokens around\n        _setupRole(CONTROLLER_ROLE, controllerAddress);\n    }\n\n    function addTokenTypes(string[] memory _tokenTypes)\n        public\n        onlyRole(DEFAULT_ADMIN_ROLE)\n    {\n        for (uint256 i = 0; i < _tokenTypes.length; i++) {\n            string memory tokenType = _tokenTypes[i];\n            string[] storage tTypes = tokenTypes;\n            if (!tokenTypeSet[tokenType]) {\n                tTypes.push(tokenType);\n                tokenTypeSet[tokenType] = true;\n            }\n        }\n    }\n\n    function mint(\n        string memory tokenType,\n        uint256 gameID,\n        uint256 quantity\n    ) public onlyRole(CONTROLLER_ROLE) {\n        require(tokenTypeSet[tokenType], \"Token type not set\");\n        balance[tokenType][gameID][0] = quantity;\n    }\n\n    // from ID + to ID can be player IDs or any other ID used in game.\n    function transfer(\n        string memory tokenType,\n        uint256 gameID,\n        uint256 fromID,\n        uint256 toID,\n        uint256 quantity\n    ) public onlyRole(CONTROLLER_ROLE) {\n        require(\n            balance[tokenType][gameID][fromID] >= quantity,\n            \"from balance too low\"\n        );\n        balance[tokenType][gameID][toID] += quantity;\n        balance[tokenType][gameID][fromID] -= quantity;\n        emit Transfer(gameID, fromID, toID, _msgSender(), tokenType, quantity);\n    }\n\n    function getTokenTypes() public view returns (string[] memory) {\n        return tokenTypes;\n    }\n}\n",
  "sourcePath": "/Users/maxmeier/Developer/Lucky Machines/hexploration/contracts/tokens/GameToken.sol",
  "compiler": {
    "name": "solc",
    "version": "0.8.11+commit.d7f03943.Emscripten.clang"
  },
  "schemaVersion": "3.4.4",
  "updatedAt": "2022-05-17T04:44:25.594Z",
  "devdoc": {
    "kind": "dev",
    "methods": {
      "getRoleAdmin(bytes32)": {
        "details": "Returns the admin role that controls `role`. See {grantRole} and {revokeRole}. To change a role's admin, use {_setRoleAdmin}."
      },
      "getRoleMember(bytes32,uint256)": {
        "details": "Returns one of the accounts that have `role`. `index` must be a value between 0 and {getRoleMemberCount}, non-inclusive. Role bearers are not sorted in any particular way, and their ordering may change at any point. WARNING: When using {getRoleMember} and {getRoleMemberCount}, make sure you perform all queries on the same block. See the following https://forum.openzeppelin.com/t/iterating-over-elements-on-enumerableset-in-openzeppelin-contracts/2296[forum post] for more information."
      },
      "getRoleMemberCount(bytes32)": {
        "details": "Returns the number of accounts that have `role`. Can be used together with {getRoleMember} to enumerate all bearers of a role."
      },
      "grantRole(bytes32,address)": {
        "details": "Grants `role` to `account`. If `account` had not been already granted `role`, emits a {RoleGranted} event. Requirements: - the caller must have ``role``'s admin role."
      },
      "hasRole(bytes32,address)": {
        "details": "Returns `true` if `account` has been granted `role`."
      },
      "renounceRole(bytes32,address)": {
        "details": "Revokes `role` from the calling account. Roles are often managed via {grantRole} and {revokeRole}: this function's purpose is to provide a mechanism for accounts to lose their privileges if they are compromised (such as when a trusted device is misplaced). If the calling account had been revoked `role`, emits a {RoleRevoked} event. Requirements: - the caller must be `account`."
      },
      "revokeRole(bytes32,address)": {
        "details": "Revokes `role` from `account`. If `account` had been granted `role`, emits a {RoleRevoked} event. Requirements: - the caller must have ``role``'s admin role."
      },
      "supportsInterface(bytes4)": {
        "details": "See {IERC165-supportsInterface}."
      }
    },
    "version": 1
  },
  "userdoc": {
    "kind": "user",
    "methods": {},
    "version": 1
  }
}