{
  "contractName": "GameSummary",
  "abi": [
    {
      "inputs": [
        {
          "internalType": "address",
          "name": "gameBoardAddress",
          "type": "address"
        }
      ],
      "name": "boardSize",
      "outputs": [
        {
          "internalType": "uint256",
          "name": "rows",
          "type": "uint256"
        },
        {
          "internalType": "uint256",
          "name": "columns",
          "type": "uint256"
        }
      ],
      "stateMutability": "view",
      "type": "function",
      "constant": true
    },
    {
      "inputs": [
        {
          "internalType": "address",
          "name": "gameBoardAddress",
          "type": "address"
        },
        {
          "internalType": "uint256",
          "name": "gameID",
          "type": "uint256"
        },
        {
          "internalType": "address",
          "name": "playerAddress",
          "type": "address"
        }
      ],
      "name": "isRegistered",
      "outputs": [
        {
          "internalType": "bool",
          "name": "",
          "type": "bool"
        }
      ],
      "stateMutability": "view",
      "type": "function",
      "constant": true
    },
    {
      "inputs": [
        {
          "internalType": "address",
          "name": "gameBoardAddress",
          "type": "address"
        },
        {
          "internalType": "uint256",
          "name": "gameID",
          "type": "uint256"
        },
        {
          "internalType": "address",
          "name": "playerAddress",
          "type": "address"
        }
      ],
      "name": "getPlayerID",
      "outputs": [
        {
          "internalType": "uint256",
          "name": "playerID",
          "type": "uint256"
        }
      ],
      "stateMutability": "view",
      "type": "function",
      "constant": true
    },
    {
      "inputs": [],
      "name": "getAvailableGameIDs",
      "outputs": [
        {
          "internalType": "uint256[]",
          "name": "",
          "type": "uint256[]"
        }
      ],
      "stateMutability": "view",
      "type": "function",
      "constant": true
    },
    {
      "inputs": [
        {
          "internalType": "address",
          "name": "gameBoardAddress",
          "type": "address"
        },
        {
          "internalType": "uint256",
          "name": "gameID",
          "type": "uint256"
        }
      ],
      "name": "currentGameplayQueue",
      "outputs": [
        {
          "internalType": "uint256",
          "name": "",
          "type": "uint256"
        }
      ],
      "stateMutability": "view",
      "type": "function",
      "constant": true
    },
    {
      "inputs": [
        {
          "internalType": "address",
          "name": "gameBoardAddress",
          "type": "address"
        },
        {
          "internalType": "uint256",
          "name": "gameID",
          "type": "uint256"
        }
      ],
      "name": "currentPhase",
      "outputs": [
        {
          "internalType": "string",
          "name": "phase",
          "type": "string"
        }
      ],
      "stateMutability": "view",
      "type": "function",
      "constant": true
    },
    {
      "inputs": [
        {
          "internalType": "address",
          "name": "gameBoardAddress",
          "type": "address"
        },
        {
          "internalType": "uint256",
          "name": "gameID",
          "type": "uint256"
        }
      ],
      "name": "activeZones",
      "outputs": [
        {
          "internalType": "string[]",
          "name": "zones",
          "type": "string[]"
        },
        {
          "internalType": "uint16[]",
          "name": "tiles",
          "type": "uint16[]"
        }
      ],
      "stateMutability": "view",
      "type": "function",
      "constant": true
    },
    {
      "inputs": [
        {
          "internalType": "address",
          "name": "gameBoardAddress",
          "type": "address"
        },
        {
          "internalType": "uint256",
          "name": "gameID",
          "type": "uint256"
        }
      ],
      "name": "landingSite",
      "outputs": [
        {
          "internalType": "string",
          "name": "",
          "type": "string"
        }
      ],
      "stateMutability": "view",
      "type": "function",
      "constant": true
    },
    {
      "inputs": [
        {
          "internalType": "address",
          "name": "gameBoardAddress",
          "type": "address"
        },
        {
          "internalType": "uint256",
          "name": "gameID",
          "type": "uint256"
        }
      ],
      "name": "currentLocation",
      "outputs": [
        {
          "internalType": "string",
          "name": "",
          "type": "string"
        }
      ],
      "stateMutability": "view",
      "type": "function",
      "constant": true
    },
    {
      "inputs": [
        {
          "internalType": "address",
          "name": "gameBoardAddress",
          "type": "address"
        },
        {
          "internalType": "uint256",
          "name": "gameID",
          "type": "uint256"
        }
      ],
      "name": "allPlayerLocations",
      "outputs": [
        {
          "internalType": "uint256[]",
          "name": "",
          "type": "uint256[]"
        },
        {
          "internalType": "string[]",
          "name": "",
          "type": "string[]"
        }
      ],
      "stateMutability": "view",
      "type": "function",
      "constant": true
    },
    {
      "inputs": [
        {
          "internalType": "address",
          "name": "gameBoardAddress",
          "type": "address"
        },
        {
          "internalType": "uint256",
          "name": "gameID",
          "type": "uint256"
        }
      ],
      "name": "currentPlayerStats",
      "outputs": [
        {
          "internalType": "uint8",
          "name": "movement",
          "type": "uint8"
        },
        {
          "internalType": "uint8",
          "name": "agility",
          "type": "uint8"
        },
        {
          "internalType": "uint8",
          "name": "dexterity",
          "type": "uint8"
        }
      ],
      "stateMutability": "view",
      "type": "function",
      "constant": true
    },
    {
      "inputs": [
        {
          "internalType": "address",
          "name": "gameBoardAddress",
          "type": "address"
        },
        {
          "internalType": "uint256",
          "name": "gameID",
          "type": "uint256"
        }
      ],
      "name": "currentHandInventory",
      "outputs": [
        {
          "internalType": "string",
          "name": "leftHandItem",
          "type": "string"
        },
        {
          "internalType": "string",
          "name": "rightHandItem",
          "type": "string"
        }
      ],
      "stateMutability": "view",
      "type": "function",
      "constant": true
    },
    {
      "inputs": [
        {
          "internalType": "address",
          "name": "gameBoardAddress",
          "type": "address"
        },
        {
          "internalType": "uint256",
          "name": "gameID",
          "type": "uint256"
        }
      ],
      "name": "activeInventory",
      "outputs": [
        {
          "internalType": "string",
          "name": "artifact",
          "type": "string"
        },
        {
          "internalType": "string",
          "name": "status",
          "type": "string"
        },
        {
          "internalType": "string",
          "name": "relic",
          "type": "string"
        },
        {
          "internalType": "bool",
          "name": "shield",
          "type": "bool"
        },
        {
          "internalType": "bool",
          "name": "campsite",
          "type": "bool"
        }
      ],
      "stateMutability": "view",
      "type": "function",
      "constant": true
    },
    {
      "inputs": [
        {
          "internalType": "address",
          "name": "gameBoardAddress",
          "type": "address"
        },
        {
          "internalType": "uint256",
          "name": "gameID",
          "type": "uint256"
        }
      ],
      "name": "inactiveInventory",
      "outputs": [
        {
          "internalType": "string[]",
          "name": "itemTypes",
          "type": "string[]"
        },
        {
          "internalType": "uint256[]",
          "name": "itemBalances",
          "type": "uint256[]"
        }
      ],
      "stateMutability": "view",
      "type": "function",
      "constant": true
    }
  ],
  "bytecode": "0x6136c4610053600b82828239805160001a607314610046577f4e487b7100000000000000000000000000000000000000000000000000000000600052600060045260246000fd5b30600052607381538281f3fe73000000000000000000000000000000000000000030146080604052600436106100f85760003560e060020a90048063ab00df6c1161009a578063e569d33a11610074578063e569d33a14610235578063ee203a8e14610256578063f59bf9031461027e578063f8ffdfcc146102a257600080fd5b8063ab00df6c146101de578063b0be1afa146101f1578063cabd6fda1461021257600080fd5b80638191e062116100d65780638191e06214610169578063821ba3a11461018a57806386599da8146101aa578063a75d3f87146101cb57600080fd5b80632f874fe0146100fd57806330f7337a146101395780636ee1173e1461015a575b600080fd5b61011061010b366004613047565b6102b5565b6040805160ff948516815292841660208401529216918101919091526060015b60405180910390f35b61014c610147366004613073565b6104d1565b604051908152602001610130565b606060405161013091906130f0565b61017c610177366004613047565b6105d3565b6040516101309291906131b6565b61019d610198366004613047565b610858565b60405161013091906131db565b6101bd6101b8366004613047565b6108e8565b6040516101309291906131ee565b61019d6101d9366004613047565b61185d565b61014c6101ec366004613047565b611a78565b6102046101ff366004613047565b611b73565b604051610130929190613213565b610225610220366004613073565b611f29565b6040519015158152602001610130565b610248610243366004613047565b612021565b604051610130929190613238565b610269610264366004613286565b61241a565b60408051928352602083019190915201610130565b61029161028c366004613047565b6124f6565b6040516101309594939291906132a3565b61019d6102b0366004613047565b612d69565b600080600080859050600081600160a060020a031663a0ed600d6040518163ffffffff1660e060020a028152600401602060405180830381865afa158015610301573d6000803e3d6000fd5b505050506040513d601f19601f8201168201806040525081019061032591906132f6565b6040517ffdf5a31c000000000000000000000000000000000000000000000000000000008152909150600160a060020a0382169063fdf5a31c9061036f9089903390600401613313565b602060405180830381865afa15801561038c573d6000803e3d6000fd5b505050506040513d601f19601f820116820180604052508101906103b0919061332a565b6040517fca318967000000000000000000000000000000000000000000000000000000008152909550600160a060020a0382169063ca318967906103fa9089903390600401613313565b602060405180830381865afa158015610417573d6000803e3d6000fd5b505050506040513d601f19601f8201168201806040525081019061043b919061332a565b6040517f989c11a9000000000000000000000000000000000000000000000000000000008152909450600160a060020a0382169063989c11a9906104859089903390600401613313565b602060405180830381865afa1580156104a2573d6000803e3d6000fd5b505050506040513d601f19601f820116820180604052508101906104c6919061332a565b925050509250925092565b600080849050600081600160a060020a031663c06dea4e6040518163ffffffff1660e060020a028152600401602060405180830381865afa15801561051a573d6000803e3d6000fd5b505050506040513d601f19601f8201168201806040525081019061053e91906132f6565b6040517fbca7caa0000000000000000000000000000000000000000000000000000000008152909150600160a060020a0382169063bca7caa0906105889088908890600401613313565b602060405180830381865afa1580156105a5573d6000803e3d6000fd5b505050506040513d601f19601f820116820180604052508101906105c9919061334d565b9695505050505050565b6060806000849050600081600160a060020a031663c06dea4e6040518163ffffffff1660e060020a028152600401602060405180830381865afa15801561061e573d6000803e3d6000fd5b505050506040513d601f19601f8201168201806040525081019061064291906132f6565b6040517fb77ff41100000000000000000000000000000000000000000000000000000000815260048101879052909150600090600160a060020a0383169063b77ff41190602401602060405180830381865afa1580156106a6573d6000803e3d6000fd5b505050506040513d601f19601f820116820180604052508101906106ca919061334d565b905060008167ffffffffffffffff8111156106e7576106e7613366565b604051908082528060200260200182016040528015610710578160200160208202803683370190505b50905060008267ffffffffffffffff81111561072e5761072e613366565b60405190808252806020026020018201604052801561076157816020015b606081526020019060019003908161074c5790505b50905060005b838110156108495761077a816001613398565b83828151811061078c5761078c6133b0565b6020908102919091010152600160a060020a03861663d75e79808a6107b2846001613398565b60405160e060020a63ffffffff851602815260048101929092526024820152604401600060405180830381865afa1580156107f1573d6000803e3d6000fd5b505050506040513d6000823e601f3d908101601f191682016040526108199190810190613466565b82828151811061082b5761082b6133b0565b602002602001018190525080806108419061349b565b915050610767565b50909890975095505050505050565b6040517feb33983d00000000000000000000000000000000000000000000000000000000815260048101829052606090600160a060020a0384169063eb33983d90602401600060405180830381865afa1580156108b9573d6000803e3d6000fd5b505050506040513d6000823e601f3d908101601f191682016040526108e19190810190613466565b9392505050565b6060806000849050600081600160a060020a031663c06dea4e6040518163ffffffff1660e060020a028152600401602060405180830381865afa158015610933573d6000803e3d6000fd5b505050506040513d601f19601f8201168201806040525081019061095791906132f6565b9050600082600160a060020a031663cca369966040518163ffffffff1660e060020a028152600401602060405180830381865afa15801561099c573d6000803e3d6000fd5b505050506040513d601f19601f820116820180604052508101906109c091906132f6565b60408051602380825261048082019092529192506020820161046080368337019050506040805160238082526104808201909252919550816020015b60608152602001906001900390816109fc5790505094506040518060400160405280600a81526020017f536d616c6c20416d6d6f0000000000000000000000000000000000000000000081525085600081518110610a5c57610a5c6133b0565b60200260200101819052506040518060400160405280600a81526020017f4c6172676520416d6d6f0000000000000000000000000000000000000000000081525085600181518110610ab057610ab06133b0565b60200260200101819052506040518060400160405280600981526020017f426174746572696573000000000000000000000000000000000000000000000081525085600281518110610b0457610b046133b0565b60200260200101819052506040518060400160405280600681526020017f536869656c64000000000000000000000000000000000000000000000000000081525085600381518110610b5857610b586133b0565b60200260200101819052506040518060400160405280600681526020017f506f7274616c000000000000000000000000000000000000000000000000000081525085600481518110610bac57610bac6133b0565b60200260200101819052506040518060400160405280600281526020017f4f6e00000000000000000000000000000000000000000000000000000000000081525085600581518110610c0057610c006133b0565b60200260200101819052506040518060400160405280600381526020017f4f6666000000000000000000000000000000000000000000000000000000000081525085600681518110610c5457610c546133b0565b60200260200101819052506040518060400160405280600c81526020017f527573747920446167676572000000000000000000000000000000000000000081525085600781518110610ca857610ca86133b0565b60200260200101819052506040518060400160405280600b81526020017f52757374792053776f726400000000000000000000000000000000000000000081525085600881518110610cfc57610cfc6133b0565b60200260200101819052506040518060400160405280600c81526020017f527573747920506973746f6c000000000000000000000000000000000000000081525085600981518110610d5057610d506133b0565b60200260200101819052506040518060400160405280600b81526020017f5275737479205269666c6500000000000000000000000000000000000000000081525085600a81518110610da457610da46133b0565b60200260200101819052506040518060400160405280600c81526020017f5368696e7920446167676572000000000000000000000000000000000000000081525085600b81518110610df857610df86133b0565b60200260200101819052506040518060400160405280600b81526020017f5368696e792053776f726400000000000000000000000000000000000000000081525085600c81518110610e4c57610e4c6133b0565b60200260200101819052506040518060400160405280600c81526020017f5368696e7920506973746f6c000000000000000000000000000000000000000081525085600d81518110610ea057610ea06133b0565b60200260200101819052506040518060400160405280600b81526020017f5368696e79205269666c6500000000000000000000000000000000000000000081525085600e81518110610ef457610ef46133b0565b60200260200101819052506040518060400160405280600c81526020017f4c6173657220446167676572000000000000000000000000000000000000000081525085600f81518110610f4857610f486133b0565b60200260200101819052506040518060400160405280600b81526020017f4c617365722053776f726400000000000000000000000000000000000000000081525085601081518110610f9c57610f9c6133b0565b60200260200101819052506040518060400160405280600c81526020017f4c6173657220506973746f6c000000000000000000000000000000000000000081525085601181518110610ff057610ff06133b0565b60200260200101819052506040518060400160405280600b81526020017f4c61736572205269666c6500000000000000000000000000000000000000000081525085601281518110611044576110446133b0565b60200260200101819052506040518060400160405280600a81526020017f476c6f7720737469636b0000000000000000000000000000000000000000000081525085601381518110611098576110986133b0565b60200260200101819052506040518060400160405280600a81526020017f466c6173686c6967687400000000000000000000000000000000000000000000815250856014815181106110ec576110ec6133b0565b60200260200101819052506040518060400160405280600b81526020017f466c6f6f64206c6967687400000000000000000000000000000000000000000081525085601581518110611140576111406133b0565b60200260200101819052506040518060400160405280601381526020017f4e69676874766973696f6e20476f67676c65730000000000000000000000000081525085601681518110611194576111946133b0565b60200260200101819052506040518060400160405280600f81526020017f506572736f6e616c20536869656c640000000000000000000000000000000000815250856017815181106111e8576111e86133b0565b60200260200101819052506040518060400160405280600d81526020017f427562626c6520536869656c64000000000000000000000000000000000000008152508560188151811061123c5761123c6133b0565b60200260200101819052506040518060400160405280600c81526020017f46726167204772656e616465000000000000000000000000000000000000000081525085601981518110611290576112906133b0565b60200260200101819052506040518060400160405280600c81526020017f46697265204772656e616465000000000000000000000000000000000000000081525085601a815181106112e4576112e46133b0565b60200260200101819052506040518060400160405280600d81526020017f53686f636b204772656e6164650000000000000000000000000000000000000081525085601b81518110611338576113386133b0565b60200260200101819052506040518060400160405280600981526020017f4845204d6f72746172000000000000000000000000000000000000000000000081525085601c8151811061138c5761138c6133b0565b60200260200101819052506040518060400160405280601181526020017f496e63656e6469617279204d6f7274617200000000000000000000000000000081525085601d815181106113e0576113e06133b0565b60200260200101819052506040518060400160405280600a81526020017f454d50204d6f727461720000000000000000000000000000000000000000000081525085601e81518110611434576114346133b0565b60200260200101819052506040518060400160405280600b81526020017f506f77657220476c6f766500000000000000000000000000000000000000000081525085601f81518110611488576114886133b0565b602002602001018190525060405180606001604052806021815260200161366e60219139856020815181106114bf576114bf6133b0565b60200260200101819052506040518060400160405280600f81526020017f54656c65706f72746572205061636b000000000000000000000000000000000081525085602181518110611513576115136133b0565b60200260200101819052506040518060400160405280600881526020017f43616d707369746500000000000000000000000000000000000000000000000081525085602281518110611567576115676133b0565b6020026020010181905250600082600160a060020a031663bca7caa088336040518363ffffffff1660e060020a0281526004016115a5929190613313565b602060405180830381865afa1580156115c2573d6000803e3d6000fd5b505050506040513d601f19601f820116820180604052508101906115e6919061334d565b6040517f01d37be4000000000000000000000000000000000000000000000000000000008152909150600160a060020a038316906301d37be4906116339084906003908c906004016134cf565b602060405180830381865afa158015611650573d6000803e3d6000fd5b505050506040513d601f19601f820116820180604052508101906116749190613508565b1561185257600082600160a060020a031663a318d45c6040518163ffffffff1660e060020a028152600401602060405180830381865afa1580156116bc573d6000803e3d6000fd5b505050506040513d601f19601f820116820180604052508101906116e091906132f6565b9050600081600160a060020a031663c853a1d06040518163ffffffff1660e060020a028152600401600060405180830381865afa158015611725573d6000803e3d6000fd5b505050506040513d6000823e601f3d908101601f1916820160405261174d919081019061352a565b905060005b875181101561184e5781818151811061176d5761176d6133b0565b6020026020010151898281518110611787576117876133b0565b602002602001018190525082600160a060020a0316634db157d08383815181106117b3576117b36133b0565b60200260200101518c876040518463ffffffff1660e060020a0281526004016117de939291906135ec565b602060405180830381865afa1580156117fb573d6000803e3d6000fd5b505050506040513d601f19601f8201168201806040525081019061181f919061334d565b888281518110611831576118316133b0565b6020908102919091010152806118468161349b565b915050611752565b5050505b505050509250929050565b60606000839050600081600160a060020a031663cca369966040518163ffffffff1660e060020a028152600401602060405180830381865afa1580156118a7573d6000803e3d6000fd5b505050506040513d601f19601f820116820180604052508101906118cb91906132f6565b9050600081600160a060020a031663a906dfd16040518163ffffffff1660e060020a028152600401602060405180830381865afa158015611910573d6000803e3d6000fd5b505050506040513d601f19601f8201168201806040525081019061193491906132f6565b6040517f4db157d000000000000000000000000000000000000000000000000000000000815260606004820152600360648201527f446179000000000000000000000000000000000000000000000000000000000060848201526024810187905260016044820152600160a060020a039190911690634db157d09060a401602060405180830381865afa1580156119cf573d6000803e3d6000fd5b505050506040513d601f19601f820116820180604052508101906119f3919061334d565b905060008111611a38576040518060400160405280600581526020017f4e696768740000000000000000000000000000000000000000000000000000008152506105c9565b6040518060400160405280600381526020017f44617900000000000000000000000000000000000000000000000000000000008152509695505050505050565b600080839050600081600160a060020a031663cefe23296040518163ffffffff1660e060020a028152600401602060405180830381865afa158015611ac1573d6000803e3d6000fd5b505050506040513d601f19601f82011682018060405250810190611ae591906132f6565b6040517f861814e200000000000000000000000000000000000000000000000000000000815260048101869052909150600160a060020a0382169063861814e290602401602060405180830381865afa158015611b46573d6000803e3d6000fd5b505050506040513d601f19601f82011682018060405250810190611b6a919061334d565b95945050505050565b6060806000849050600081600160a060020a031663a0ed600d6040518163ffffffff1660e060020a028152600401602060405180830381865afa158015611bbe573d6000803e3d6000fd5b505050506040513d601f19601f82011682018060405250810190611be291906132f6565b9050611d9e81600160a060020a031663a082936d87336040518363ffffffff1660e060020a028152600401611c18929190613313565b600060405180830381865afa158015611c35573d6000803e3d6000fd5b505050506040513d6000823e601f3d908101601f19168201604052611c5d9190810190613466565b83600160a060020a031663cca369966040518163ffffffff1660e060020a028152600401602060405180830381865afa158015611c9e573d6000803e3d6000fd5b505050506040513d601f19601f82011682018060405250810190611cc291906132f6565b8785600160a060020a031663c06dea4e6040518163ffffffff1660e060020a028152600401602060405180830381865afa158015611d04573d6000803e3d6000fd5b505050506040513d601f19601f82011682018060405250810190611d2891906132f6565b600160a060020a031663bca7caa08a336040518363ffffffff1660e060020a028152600401611d58929190613313565b602060405180830381865afa158015611d75573d6000803e3d6000fd5b505050506040513d601f19601f82011682018060405250810190611d99919061334d565b612ec2565b611db75760405180602001604052806000815250611e43565b6040517fa082936d000000000000000000000000000000000000000000000000000000008152600160a060020a0382169063a082936d90611dfe9088903390600401613313565b600060405180830381865afa158015611e1b573d6000803e3d6000fd5b505050506040513d6000823e601f3d908101601f19168201604052611e439190810190613466565b9350611e7981600160a060020a0316636662537087336040518363ffffffff1660e060020a028152600401611c18929190613313565b611e925760405180602001604052806000815250611f1e565b6040517f66625370000000000000000000000000000000000000000000000000000000008152600160a060020a03821690636662537090611ed99088903390600401613313565b600060405180830381865afa158015611ef6573d6000803e3d6000fd5b505050506040513d6000823e601f3d908101601f19168201604052611f1e9190810190613466565b925050509250929050565b600080849050600081600160a060020a031663c06dea4e6040518163ffffffff1660e060020a028152600401602060405180830381865afa158015611f72573d6000803e3d6000fd5b505050506040513d601f19601f82011682018060405250810190611f9691906132f6565b6040517fb81f6e18000000000000000000000000000000000000000000000000000000008152909150600160a060020a0382169063b81f6e1890611fe09088908890600401613313565b602060405180830381865afa158015611ffd573d6000803e3d6000fd5b505050506040513d601f19601f820116820180604052508101906105c99190613508565b6060806000849050600081600160a060020a0316633ca61a586040518163ffffffff1660e060020a028152600401600060405180830381865afa15801561206c573d6000803e3d6000fd5b505050506040513d6000823e601f3d908101601f19168201604052612094919081019061352a565b90506000805b82518110156121535783600160a060020a031663ed3719a5888584815181106120c5576120c56133b0565b60200260200101516040518363ffffffff1660e060020a0281526004016120ed929190613611565b602060405180830381865afa15801561210a573d6000803e3d6000fd5b505050506040513d601f19601f8201168201806040525081019061212e9190613508565b15612141578161213d8161362a565b9250505b8061214b8161349b565b91505061209a565b508061ffff1667ffffffffffffffff81111561217157612171613366565b6040519080825280602002602001820160405280156121a457816020015b606081526020019060019003908161218f5790505b5094508061ffff1667ffffffffffffffff8111156121c4576121c4613366565b6040519080825280602002602001820160405280156121ed578160200160208202803683370190505b5093506000905060005b82518110156118525783600160a060020a031663ed3719a588858481518110612222576122226133b0565b60200260200101516040518363ffffffff1660e060020a02815260040161224a929190613611565b602060405180830381865afa158015612267573d6000803e3d6000fd5b505050506040513d601f19601f8201168201806040525081019061228b9190613508565b15612408578281815181106122a2576122a26133b0565b6020026020010151868361ffff16815181106122c0576122c06133b0565b6020026020010181905250600084600160a060020a03166335e333e46040518163ffffffff1660e060020a028152600401602060405180830381865afa15801561230e573d6000803e3d6000fd5b505050506040513d601f19601f8201168201806040525081019061233291906132f6565b905080600160a060020a03166330821b9c89868581518110612356576123566133b0565b60200260200101516040518363ffffffff1660e060020a02815260040161237e929190613611565b602060405180830381865afa15801561239b573d6000803e3d6000fd5b505050506040513d601f19601f820116820180604052508101906123bf919061364c565b600b8111156123d0576123d06134b6565b868461ffff16815181106123e6576123e66133b0565b61ffff90921660209283029190910190910152826124038161362a565b935050505b806124128161349b565b9150506121f7565b600080600083905080600160a060020a031663108c5e146040518163ffffffff1660e060020a028152600401602060405180830381865afa158015612463573d6000803e3d6000fd5b505050506040513d601f19601f82011682018060405250810190612487919061334d565b925080600160a060020a03166338b145df6040518163ffffffff1660e060020a028152600401602060405180830381865afa1580156124ca573d6000803e3d6000fd5b505050506040513d601f19601f820116820180604052508101906124ee919061334d565b915050915091565b60608060606000806000879050600081600160a060020a031663a0ed600d6040518163ffffffff1660e060020a028152600401602060405180830381865afa158015612546573d6000803e3d6000fd5b505050506040513d601f19601f8201168201806040525081019061256a91906132f6565b905061272681600160a060020a031663a2e8a8918a336040518363ffffffff1660e060020a0281526004016125a0929190613313565b600060405180830381865afa1580156125bd573d6000803e3d6000fd5b505050506040513d6000823e601f3d908101601f191682016040526125e59190810190613466565b83600160a060020a031663cca369966040518163ffffffff1660e060020a028152600401602060405180830381865afa158015612626573d6000803e3d6000fd5b505050506040513d601f19601f8201168201806040525081019061264a91906132f6565b8a85600160a060020a031663c06dea4e6040518163ffffffff1660e060020a028152600401602060405180830381865afa15801561268c573d6000803e3d6000fd5b505050506040513d601f19601f820116820180604052508101906126b091906132f6565b600160a060020a031663bca7caa08d336040518363ffffffff1660e060020a0281526004016126e0929190613313565b602060405180830381865afa1580156126fd573d6000803e3d6000fd5b505050506040513d601f19601f82011682018060405250810190612721919061334d565b612fa7565b61273f57604051806020016040528060008152506127cb565b6040517fa2e8a891000000000000000000000000000000000000000000000000000000008152600160a060020a0382169063a2e8a89190612786908b903390600401613313565b600060405180830381865afa1580156127a3573d6000803e3d6000fd5b505050506040513d6000823e601f3d908101601f191682016040526127cb9190810190613466565b965061298781600160a060020a031663db1698b28a336040518363ffffffff1660e060020a028152600401612801929190613313565b600060405180830381865afa15801561281e573d6000803e3d6000fd5b505050506040513d6000823e601f3d908101601f191682016040526128469190810190613466565b83600160a060020a031663cca369966040518163ffffffff1660e060020a028152600401602060405180830381865afa158015612887573d6000803e3d6000fd5b505050506040513d601f19601f820116820180604052508101906128ab91906132f6565b8a85600160a060020a031663c06dea4e6040518163ffffffff1660e060020a028152600401602060405180830381865afa1580156128ed573d6000803e3d6000fd5b505050506040513d601f19601f8201168201806040525081019061291191906132f6565b600160a060020a031663bca7caa08d336040518363ffffffff1660e060020a028152600401612941929190613313565b602060405180830381865afa15801561295e573d6000803e3d6000fd5b505050506040513d601f19601f82011682018060405250810190612982919061334d565b612feb565b6129a05760405180602001604052806000815250612a2c565b6040517fdb1698b2000000000000000000000000000000000000000000000000000000008152600160a060020a0382169063db1698b2906129e7908b903390600401613313565b600060405180830381865afa158015612a04573d6000803e3d6000fd5b505050506040513d6000823e601f3d908101601f19168201604052612a2c9190810190613466565b9550612ba281600160a060020a03166385c4f91d8a336040518363ffffffff1660e060020a028152600401612a62929190613313565b600060405180830381865afa158015612a7f573d6000803e3d6000fd5b505050506040513d6000823e601f3d908101601f19168201604052612aa79190810190613466565b83600160a060020a031663cca369966040518163ffffffff1660e060020a028152600401602060405180830381865afa158015612ae8573d6000803e3d6000fd5b505050506040513d601f19601f82011682018060405250810190612b0c91906132f6565b8a85600160a060020a031663c06dea4e6040518163ffffffff1660e060020a028152600401602060405180830381865afa158015612b4e573d6000803e3d6000fd5b505050506040513d601f19601f82011682018060405250810190612b7291906132f6565b600160a060020a031663bca7caa08d336040518363ffffffff1660e060020a028152600401611d58929190613313565b612bbb5760405180602001604052806000815250612c47565b6040517f85c4f91d000000000000000000000000000000000000000000000000000000008152600160a060020a038216906385c4f91d90612c02908b903390600401613313565b600060405180830381865afa158015612c1f573d6000803e3d6000fd5b505050506040513d6000823e601f3d908101601f19168201604052612c479190810190613466565b9450612cc36040518060400160405280600681526020017f536869656c64000000000000000000000000000000000000000000000000000081525083600160a060020a031663cca369966040518163ffffffff1660e060020a028152600401602060405180830381865afa158015612ae8573d6000803e3d6000fd5b612cce576000612cd1565b60015b9350612d4d6040518060400160405280600881526020017f43616d707369746500000000000000000000000000000000000000000000000081525083600160a060020a031663cca369966040518163ffffffff1660e060020a028152600401602060405180830381865afa158015612ae8573d6000803e3d6000fd5b612d58576000612d5b565b60015b925050509295509295909350565b60606000839050600081600160a060020a031663c06dea4e6040518163ffffffff1660e060020a028152600401602060405180830381865afa158015612db3573d6000803e3d6000fd5b505050506040513d601f19601f82011682018060405250810190612dd791906132f6565b905081600160a060020a031663d75e79808583600160a060020a031663bca7caa088336040518363ffffffff1660e060020a028152600401612e1a929190613313565b602060405180830381865afa158015612e37573d6000803e3d6000fd5b505050506040513d601f19601f82011682018060405250810190612e5b919061334d565b60405160e060020a63ffffffff851602815260048101929092526024820152604401600060405180830381865afa158015612e9a573d6000803e3d6000fd5b505050506040513d6000823e601f3d908101601f19168201604052611b6a9190810190613466565b60008084600160a060020a031663a318d45c6040518163ffffffff1660e060020a028152600401602060405180830381865afa158015612f06573d6000803e3d6000fd5b505050506040513d601f19601f82011682018060405250810190612f2a91906132f6565b600160a060020a0316634db157d08786866040518463ffffffff1660e060020a028152600401612f5c939291906135ec565b602060405180830381865afa158015612f79573d6000803e3d6000fd5b505050506040513d601f19601f82011682018060405250810190612f9d919061334d565b1195945050505050565b60008084600160a060020a03166345d339d96040518163ffffffff1660e060020a028152600401602060405180830381865afa158015612f06573d6000803e3d6000fd5b60008084600160a060020a031663c1cdbb3c6040518163ffffffff1660e060020a028152600401602060405180830381865afa158015612f06573d6000803e3d6000fd5b600160a060020a038116811461304457600080fd5b50565b6000806040838503121561305a57600080fd5b82356130658161302f565b946020939093013593505050565b60008060006060848603121561308857600080fd5b83356130938161302f565b92506020840135915060408401356130aa8161302f565b809150509250925092565b600081518084526020808501945080840160005b838110156130e5578151875295820195908201906001016130c9565b509495945050505050565b6020815260006108e160208301846130b5565b60005b8381101561311e578181015183820152602001613106565b8381111561312d576000848401525b50505050565b6000815180845261314b816020860160208601613103565b601f01601f19169290920160200192915050565b6000828251808552602080860195508081830284010181860160005b848110156131a957601f19868403018952613197838351613133565b9884019892509083019060010161317b565b5090979650505050505050565b6040815260006131c960408301856130b5565b8281036020840152611b6a818561315f565b6020815260006108e16020830184613133565b604081526000613201604083018561315f565b8281036020840152611b6a81856130b5565b6040815260006132266040830185613133565b8281036020840152611b6a8185613133565b60408152600061324b604083018561315f565b82810360208481019190915284518083528582019282019060005b818110156131a957845161ffff1683529383019391830191600101613266565b60006020828403121561329857600080fd5b81356108e18161302f565b60a0815260006132b660a0830188613133565b82810360208401526132c88188613133565b905082810360408401526132dc8187613133565b941515606084015250509015156080909101529392505050565b60006020828403121561330857600080fd5b81516108e18161302f565b918252600160a060020a0316602082015260400190565b60006020828403121561333c57600080fd5b815160ff811681146108e157600080fd5b60006020828403121561335f57600080fd5b5051919050565b60e060020a634e487b7102600052604160045260246000fd5b60e060020a634e487b7102600052601160045260246000fd5b600082198211156133ab576133ab61337f565b500190565b60e060020a634e487b7102600052603260045260246000fd5b604051601f8201601f1916810167ffffffffffffffff811182821017156133f2576133f2613366565b604052919050565b600082601f83011261340b57600080fd5b815167ffffffffffffffff81111561342557613425613366565b613438601f8201601f19166020016133c9565b81815284602083860101111561344d57600080fd5b61345e826020830160208701613103565b949350505050565b60006020828403121561347857600080fd5b815167ffffffffffffffff81111561348f57600080fd5b61345e848285016133fa565b60006000198214156134af576134af61337f565b5060010190565b60e060020a634e487b7102600052602160045260246000fd5b83815260608101600784106134f75760e060020a634e487b7102600052602160045260246000fd5b602082019390935260400152919050565b60006020828403121561351a57600080fd5b815180151581146108e157600080fd5b6000602080838503121561353d57600080fd5b825167ffffffffffffffff8082111561355557600080fd5b818501915085601f83011261356957600080fd5b81518181111561357b5761357b613366565b8381026135898582016133c9565b91825283810185019185810190898411156135a357600080fd5b86860192505b838310156135df578251858111156135c15760008081fd5b6135cf8b89838a01016133fa565b83525091860191908601906135a9565b9998505050505050505050565b6060815260006135ff6060830186613133565b60208301949094525060400152919050565b82815260406020820152600061345e6040830184613133565b600061ffff808316818114156136425761364261337f565b6001019392505050565b60006020828403121561365e57600080fd5b8151600c81106108e157600080fdfe52656d6f7465204c61756e636820616e642047756964616e63652053797374656da2646970667358221220d40d5a0be05feaa0bd95a72f694fcfdcf8d8aa1c9f1d371daee13c19f49528e964736f6c634300080b0033",
  "immutableReferences": {},
  "source": "// SPDX-License-Identifier: GPL-3.0\npragma solidity >=0.8.0;\n\nimport \"../HexplorationBoard.sol\";\nimport \"../HexplorationZone.sol\";\nimport \"@luckymachines/game-core/contracts/src/v0.0/PlayerRegistry.sol\";\nimport \"./CharacterCard.sol\";\nimport \"../tokens/TokenInventory.sol\";\nimport \"../HexplorationQueue.sol\";\n\nlibrary GameSummary {\n    // enemies\n    // tokens\n    function boardSize(address gameBoardAddress)\n        public\n        view\n        returns (uint256 rows, uint256 columns)\n    {\n        HexplorationBoard board = HexplorationBoard(gameBoardAddress);\n        rows = board.gridHeight();\n        columns = board.gridWidth();\n    }\n\n    function isRegistered(\n        address gameBoardAddress,\n        uint256 gameID,\n        address playerAddress\n    ) public view returns (bool) {\n        HexplorationBoard board = HexplorationBoard(gameBoardAddress);\n        PlayerRegistry pr = PlayerRegistry(board.prAddress());\n        return pr.isRegistered(gameID, playerAddress);\n    }\n\n    function getPlayerID(\n        address gameBoardAddress,\n        uint256 gameID,\n        address playerAddress\n    ) public view returns (uint256 playerID) {\n        HexplorationBoard board = HexplorationBoard(gameBoardAddress);\n        PlayerRegistry pr = PlayerRegistry(board.prAddress());\n        playerID = pr.playerID(gameID, playerAddress);\n    }\n\n    function getAvailableGameIDs() public view returns (uint256[] memory) {\n        // TODO: return available game IDs\n    }\n\n    function currentGameplayQueue(address gameBoardAddress, uint256 gameID)\n        public\n        view\n        returns (uint256)\n    {\n        HexplorationBoard board = HexplorationBoard(gameBoardAddress);\n        HexplorationQueue q = HexplorationQueue(board.gameplayQueue());\n        return q.queueID(gameID);\n    }\n\n    function currentPhase(address gameBoardAddress, uint256 gameID)\n        public\n        view\n        returns (string memory phase)\n    {\n        HexplorationBoard board = HexplorationBoard(gameBoardAddress);\n        TokenInventory tokens = TokenInventory(board.tokenInventory());\n\n        uint256 dayBalance = tokens.DAY_NIGHT_TOKEN().balance(\"Day\", gameID, 1);\n        phase = dayBalance > 0 ? \"Day\" : \"Night\";\n    }\n\n    function activeZones(address gameBoardAddress, uint256 gameID)\n        public\n        view\n        returns (string[] memory zones, uint16[] memory tiles)\n    {\n        HexplorationBoard board = HexplorationBoard(gameBoardAddress);\n        string[] memory allZones = board.getZoneAliases();\n\n        uint16 activeZoneCount = 0;\n        for (uint256 i = 0; i < allZones.length; i++) {\n            if (board.zoneEnabled(gameID, allZones[i])) {\n                activeZoneCount++;\n            }\n        }\n        zones = new string[](activeZoneCount);\n        tiles = new uint16[](activeZoneCount);\n\n        activeZoneCount = 0;\n        for (uint256 i = 0; i < allZones.length; i++) {\n            if (board.zoneEnabled(gameID, allZones[i])) {\n                zones[activeZoneCount] = allZones[i];\n                HexplorationZone hexZone = HexplorationZone(\n                    board.hexZoneAddress()\n                );\n                tiles[activeZoneCount] = uint16(\n                    hexZone.tile(gameID, allZones[i])\n                );\n                activeZoneCount++;\n            }\n        }\n    }\n\n    function landingSite(address gameBoardAddress, uint256 gameID)\n        public\n        view\n        returns (string memory)\n    {\n        return HexplorationBoard(gameBoardAddress).initialPlayZone(gameID);\n    }\n\n    function currentLocation(address gameBoardAddress, uint256 gameID)\n        public\n        view\n        returns (string memory)\n    {\n        HexplorationBoard board = HexplorationBoard(gameBoardAddress);\n        PlayerRegistry pr = PlayerRegistry(board.prAddress());\n        return board.currentPlayZone(gameID, pr.playerID(gameID, msg.sender));\n    }\n\n    function allPlayerLocations(address gameBoardAddress, uint256 gameID)\n        public\n        view\n        returns (uint256[] memory, string[] memory)\n    {\n        HexplorationBoard board = HexplorationBoard(gameBoardAddress);\n        PlayerRegistry pr = PlayerRegistry(board.prAddress());\n        uint256 totalRegistrations = pr.totalRegistrations(gameID);\n        uint256[] memory playerIDs = new uint256[](totalRegistrations);\n        string[] memory playerZones = new string[](totalRegistrations);\n        for (uint256 i = 0; i < totalRegistrations; i++) {\n            playerIDs[i] = i + 1;\n            playerZones[i] = board.currentPlayZone(gameID, i + 1);\n        }\n        return (playerIDs, playerZones);\n    }\n\n    function inventoryItemExists(\n        string memory tokenType,\n        address inventoryAddress,\n        uint256 gameID,\n        uint256 holderID\n    ) internal view returns (bool) {\n        return\n            TokenInventory(inventoryAddress).ITEM_TOKEN().balance(\n                tokenType,\n                gameID,\n                holderID\n            ) > 0;\n    }\n\n    function inventoryArtifactExists(\n        string memory tokenType,\n        address inventoryAddress,\n        uint256 gameID,\n        uint256 holderID\n    ) internal view returns (bool) {\n        return\n            TokenInventory(inventoryAddress).ARTIFACT_TOKEN().balance(\n                tokenType,\n                gameID,\n                holderID\n            ) > 0;\n    }\n\n    function inventoryStatusExists(\n        string memory tokenType,\n        address inventoryAddress,\n        uint256 gameID,\n        uint256 holderID\n    ) internal view returns (bool) {\n        return\n            TokenInventory(inventoryAddress).PLAYER_STATUS_TOKEN().balance(\n                tokenType,\n                gameID,\n                holderID\n            ) > 0;\n    }\n\n    function currentPlayerStats(address gameBoardAddress, uint256 gameID)\n        public\n        view\n        returns (\n            uint8 movement,\n            uint8 agility,\n            uint8 dexterity\n        )\n    {\n        HexplorationBoard board = HexplorationBoard(gameBoardAddress);\n        CharacterCard cc = CharacterCard(board.characterCard());\n        movement = cc.movement(gameID, msg.sender);\n        agility = cc.agility(gameID, msg.sender);\n        dexterity = cc.dexterity(gameID, msg.sender);\n    }\n\n    function currentHandInventory(address gameBoardAddress, uint256 gameID)\n        public\n        view\n        returns (string memory leftHandItem, string memory rightHandItem)\n    {\n        HexplorationBoard board = HexplorationBoard(gameBoardAddress);\n        CharacterCard cc = CharacterCard(board.characterCard());\n        leftHandItem = inventoryItemExists(\n            cc.leftHandItem(gameID, msg.sender),\n            board.tokenInventory(),\n            gameID,\n            PlayerRegistry(board.prAddress()).playerID(gameID, msg.sender)\n        )\n            ? cc.leftHandItem(gameID, msg.sender)\n            : \"\";\n\n        rightHandItem = inventoryItemExists(\n            cc.rightHandItem(gameID, msg.sender),\n            board.tokenInventory(),\n            gameID,\n            PlayerRegistry(board.prAddress()).playerID(gameID, msg.sender)\n        )\n            ? cc.rightHandItem(gameID, msg.sender)\n            : \"\";\n    }\n\n    function activeInventory(address gameBoardAddress, uint256 gameID)\n        public\n        view\n        returns (\n            string memory artifact,\n            string memory status,\n            string memory relic,\n            bool shield,\n            bool campsite\n        )\n    {\n        HexplorationBoard board = HexplorationBoard(gameBoardAddress);\n        CharacterCard cc = CharacterCard(board.characterCard());\n        artifact = inventoryArtifactExists(\n            cc.artifact(gameID, msg.sender),\n            board.tokenInventory(),\n            gameID,\n            PlayerRegistry(board.prAddress()).playerID(gameID, msg.sender)\n        )\n            ? cc.artifact(gameID, msg.sender)\n            : \"\";\n\n        status = inventoryStatusExists(\n            cc.status(gameID, msg.sender),\n            board.tokenInventory(),\n            gameID,\n            PlayerRegistry(board.prAddress()).playerID(gameID, msg.sender)\n        )\n            ? cc.status(gameID, msg.sender)\n            : \"\";\n\n        relic = inventoryItemExists(\n            cc.relic(gameID, msg.sender),\n            board.tokenInventory(),\n            gameID,\n            PlayerRegistry(board.prAddress()).playerID(gameID, msg.sender)\n        )\n            ? cc.relic(gameID, msg.sender)\n            : \"\";\n\n        shield = inventoryItemExists(\n            \"Shield\",\n            board.tokenInventory(),\n            gameID,\n            PlayerRegistry(board.prAddress()).playerID(gameID, msg.sender)\n        )\n            ? true\n            : false;\n\n        campsite = inventoryItemExists(\n            \"Campsite\",\n            board.tokenInventory(),\n            gameID,\n            PlayerRegistry(board.prAddress()).playerID(gameID, msg.sender)\n        )\n            ? true\n            : false;\n    }\n\n    function inactiveInventory(address gameBoardAddress, uint256 gameID)\n        public\n        view\n        returns (string[] memory itemTypes, uint256[] memory itemBalances)\n    {\n        HexplorationBoard board = HexplorationBoard(gameBoardAddress);\n        PlayerRegistry pr = PlayerRegistry(board.prAddress());\n        TokenInventory ti = TokenInventory(board.tokenInventory());\n        itemBalances = new uint256[](35);\n        itemTypes = new string[](35);\n        itemTypes[0] = \"Small Ammo\";\n        itemTypes[1] = \"Large Ammo\";\n        itemTypes[2] = \"Batteries\";\n        itemTypes[3] = \"Shield\";\n        itemTypes[4] = \"Portal\";\n        itemTypes[5] = \"On\";\n        itemTypes[6] = \"Off\";\n        itemTypes[7] = \"Rusty Dagger\";\n        itemTypes[8] = \"Rusty Sword\";\n        itemTypes[9] = \"Rusty Pistol\";\n        itemTypes[10] = \"Rusty Rifle\";\n        itemTypes[11] = \"Shiny Dagger\";\n        itemTypes[12] = \"Shiny Sword\";\n        itemTypes[13] = \"Shiny Pistol\";\n        itemTypes[14] = \"Shiny Rifle\";\n        itemTypes[15] = \"Laser Dagger\";\n        itemTypes[16] = \"Laser Sword\";\n        itemTypes[17] = \"Laser Pistol\";\n        itemTypes[18] = \"Laser Rifle\";\n        itemTypes[19] = \"Glow stick\";\n        itemTypes[20] = \"Flashlight\";\n        itemTypes[21] = \"Flood light\";\n        itemTypes[22] = \"Nightvision Goggles\";\n        itemTypes[23] = \"Personal Shield\";\n        itemTypes[24] = \"Bubble Shield\";\n        itemTypes[25] = \"Frag Grenade\";\n        itemTypes[26] = \"Fire Grenade\";\n        itemTypes[27] = \"Shock Grenade\";\n        itemTypes[28] = \"HE Mortar\";\n        itemTypes[29] = \"Incendiary Mortar\";\n        itemTypes[30] = \"EMP Mortar\";\n        itemTypes[31] = \"Power Glove\";\n        itemTypes[32] = \"Remote Launch and Guidance System\";\n        itemTypes[33] = \"Teleporter Pack\";\n        itemTypes[34] = \"Campsite\";\n        uint256 playerID = pr.playerID(gameID, msg.sender);\n        if (ti.holdsToken(playerID, TokenInventory.Token.Item, gameID)) {\n            Item itemToken = ti.ITEM_TOKEN();\n            string[] memory types = itemToken.getTokenTypes();\n            for (uint256 i = 0; i < itemBalances.length; i++) {\n                itemTypes[i] = types[i];\n                itemBalances[i] = itemToken.balance(types[i], gameID, playerID);\n            }\n        }\n        // uint256 campsiteBalance = ti.ITEM_TOKEN().balance(\n        //     \"Campsite\",\n        //     gameID,\n        //     playerID\n        // );\n        // itemBalances[34] = campsiteBalance;\n    }\n}\n",
  "sourcePath": "/Users/maxmeier/Developer/Lucky Machines/hexploration/contracts/state/GameSummary.sol",
  "compiler": {
    "name": "solc",
    "version": "0.8.11+commit.d7f03943.Emscripten.clang"
  },
  "schemaVersion": "3.4.4",
  "updatedAt": "2022-05-19T00:51:27.170Z",
  "networkType": "ethereum",
  "devdoc": {
    "kind": "dev",
    "methods": {},
    "version": 1
  },
  "userdoc": {
    "kind": "user",
    "methods": {},
    "version": 1
  }
}