{
  "contractName": "GameSummary",
  "abi": [
    {
      "inputs": [
        {
          "internalType": "address",
          "name": "gameBoardAddress",
          "type": "address"
        }
      ],
      "name": "boardSize",
      "outputs": [
        {
          "internalType": "uint256",
          "name": "rows",
          "type": "uint256"
        },
        {
          "internalType": "uint256",
          "name": "columns",
          "type": "uint256"
        }
      ],
      "stateMutability": "view",
      "type": "function",
      "constant": true
    },
    {
      "inputs": [
        {
          "internalType": "address",
          "name": "gameBoardAddress",
          "type": "address"
        },
        {
          "internalType": "uint256",
          "name": "gameID",
          "type": "uint256"
        },
        {
          "internalType": "address",
          "name": "playerAddress",
          "type": "address"
        }
      ],
      "name": "isRegistered",
      "outputs": [
        {
          "internalType": "bool",
          "name": "",
          "type": "bool"
        }
      ],
      "stateMutability": "view",
      "type": "function",
      "constant": true
    },
    {
      "inputs": [
        {
          "internalType": "address",
          "name": "gameBoardAddress",
          "type": "address"
        },
        {
          "internalType": "uint256",
          "name": "gameID",
          "type": "uint256"
        },
        {
          "internalType": "address",
          "name": "playerAddress",
          "type": "address"
        }
      ],
      "name": "getPlayerID",
      "outputs": [
        {
          "internalType": "uint256",
          "name": "playerID",
          "type": "uint256"
        }
      ],
      "stateMutability": "view",
      "type": "function",
      "constant": true
    },
    {
      "inputs": [],
      "name": "getAvailableGameIDs",
      "outputs": [
        {
          "internalType": "uint256[]",
          "name": "",
          "type": "uint256[]"
        }
      ],
      "stateMutability": "view",
      "type": "function",
      "constant": true
    },
    {
      "inputs": [
        {
          "internalType": "address",
          "name": "gameBoardAddress",
          "type": "address"
        },
        {
          "internalType": "uint256",
          "name": "gameID",
          "type": "uint256"
        }
      ],
      "name": "currentPhase",
      "outputs": [
        {
          "internalType": "string",
          "name": "phase",
          "type": "string"
        }
      ],
      "stateMutability": "view",
      "type": "function",
      "constant": true
    },
    {
      "inputs": [
        {
          "internalType": "address",
          "name": "gameBoardAddress",
          "type": "address"
        },
        {
          "internalType": "uint256",
          "name": "gameID",
          "type": "uint256"
        }
      ],
      "name": "activeZones",
      "outputs": [
        {
          "internalType": "string[]",
          "name": "zones",
          "type": "string[]"
        },
        {
          "internalType": "uint16[]",
          "name": "tiles",
          "type": "uint16[]"
        }
      ],
      "stateMutability": "view",
      "type": "function",
      "constant": true
    },
    {
      "inputs": [
        {
          "internalType": "address",
          "name": "gameBoardAddress",
          "type": "address"
        },
        {
          "internalType": "uint256",
          "name": "gameID",
          "type": "uint256"
        }
      ],
      "name": "landingSite",
      "outputs": [
        {
          "internalType": "string",
          "name": "",
          "type": "string"
        }
      ],
      "stateMutability": "view",
      "type": "function",
      "constant": true
    },
    {
      "inputs": [
        {
          "internalType": "address",
          "name": "gameBoardAddress",
          "type": "address"
        },
        {
          "internalType": "uint256",
          "name": "gameID",
          "type": "uint256"
        }
      ],
      "name": "currentLocation",
      "outputs": [
        {
          "internalType": "string",
          "name": "",
          "type": "string"
        }
      ],
      "stateMutability": "view",
      "type": "function",
      "constant": true
    },
    {
      "inputs": [
        {
          "internalType": "address",
          "name": "gameBoardAddress",
          "type": "address"
        },
        {
          "internalType": "uint256",
          "name": "gameID",
          "type": "uint256"
        }
      ],
      "name": "allPlayerLocations",
      "outputs": [
        {
          "internalType": "uint256[]",
          "name": "",
          "type": "uint256[]"
        },
        {
          "internalType": "string[]",
          "name": "",
          "type": "string[]"
        }
      ],
      "stateMutability": "view",
      "type": "function",
      "constant": true
    },
    {
      "inputs": [
        {
          "internalType": "address",
          "name": "gameBoardAddress",
          "type": "address"
        },
        {
          "internalType": "uint256",
          "name": "gameID",
          "type": "uint256"
        }
      ],
      "name": "currentPlayerStats",
      "outputs": [
        {
          "internalType": "uint8",
          "name": "movement",
          "type": "uint8"
        },
        {
          "internalType": "uint8",
          "name": "agility",
          "type": "uint8"
        },
        {
          "internalType": "uint8",
          "name": "dexterity",
          "type": "uint8"
        }
      ],
      "stateMutability": "view",
      "type": "function",
      "constant": true
    },
    {
      "inputs": [
        {
          "internalType": "address",
          "name": "gameBoardAddress",
          "type": "address"
        },
        {
          "internalType": "uint256",
          "name": "gameID",
          "type": "uint256"
        }
      ],
      "name": "currentHandInventory",
      "outputs": [
        {
          "internalType": "string",
          "name": "leftHandItem",
          "type": "string"
        },
        {
          "internalType": "string",
          "name": "rightHandItem",
          "type": "string"
        }
      ],
      "stateMutability": "view",
      "type": "function",
      "constant": true
    },
    {
      "inputs": [
        {
          "internalType": "address",
          "name": "gameBoardAddress",
          "type": "address"
        },
        {
          "internalType": "uint256",
          "name": "gameID",
          "type": "uint256"
        }
      ],
      "name": "activeInventory",
      "outputs": [
        {
          "internalType": "string",
          "name": "artifact",
          "type": "string"
        },
        {
          "internalType": "string",
          "name": "status",
          "type": "string"
        },
        {
          "internalType": "string",
          "name": "relic",
          "type": "string"
        },
        {
          "internalType": "bool",
          "name": "shield",
          "type": "bool"
        },
        {
          "internalType": "bool",
          "name": "campsite",
          "type": "bool"
        }
      ],
      "stateMutability": "view",
      "type": "function",
      "constant": true
    },
    {
      "inputs": [
        {
          "internalType": "address",
          "name": "gameBoardAddress",
          "type": "address"
        },
        {
          "internalType": "uint256",
          "name": "gameID",
          "type": "uint256"
        }
      ],
      "name": "inactiveInventory",
      "outputs": [
        {
          "internalType": "string[]",
          "name": "itemTypes",
          "type": "string[]"
        },
        {
          "internalType": "uint256[]",
          "name": "itemBalances",
          "type": "uint256[]"
        }
      ],
      "stateMutability": "view",
      "type": "function",
      "constant": true
    }
  ],
  "bytecode": "0x6136f8610053600b82828239805160001a607314610046577f4e487b7100000000000000000000000000000000000000000000000000000000600052600060045260246000fd5b30600052607381538281f3fe73000000000000000000000000000000000000000030146080604052600436106100dd5760003560e060020a90048063a75d3f871161009a578063e569d33a11610074578063e569d33a14610207578063ee203a8e14610228578063f59bf90314610250578063f8ffdfcc1461027457600080fd5b8063a75d3f87146101b0578063b0be1afa146101c3578063cabd6fda146101e457600080fd5b80632f874fe0146100e257806330f7337a1461011e5780636ee1173e1461013f5780638191e0621461014e578063821ba3a11461016f57806386599da81461018f575b600080fd5b6100f56100f036600461307b565b610287565b6040805160ff948516815292841660208401529216918101919091526060015b60405180910390f35b61013161012c3660046130a7565b6104a3565b604051908152602001610115565b60606040516101159190613124565b61016161015c36600461307b565b6105a5565b6040516101159291906131ea565b61018261017d36600461307b565b61082a565b604051610115919061320f565b6101a261019d36600461307b565b6108ba565b604051610115929190613222565b6101826101be36600461307b565b611978565b6101d66101d136600461307b565b611b93565b604051610115929190613247565b6101f76101f23660046130a7565b611f49565b6040519015158152602001610115565b61021a61021536600461307b565b612041565b60405161011592919061326c565b61023b6102363660046132ba565b612445565b60408051928352602083019190915201610115565b61026361025e36600461307b565b612521565b6040516101159594939291906132d7565b61018261028236600461307b565b612d94565b600080600080859050600081600160a060020a031663a0ed600d6040518163ffffffff1660e060020a028152600401602060405180830381865afa1580156102d3573d6000803e3d6000fd5b505050506040513d601f19601f820116820180604052508101906102f7919061332a565b6040517ffdf5a31c000000000000000000000000000000000000000000000000000000008152909150600160a060020a0382169063fdf5a31c906103419089903390600401613347565b602060405180830381865afa15801561035e573d6000803e3d6000fd5b505050506040513d601f19601f82011682018060405250810190610382919061335e565b6040517fca318967000000000000000000000000000000000000000000000000000000008152909550600160a060020a0382169063ca318967906103cc9089903390600401613347565b602060405180830381865afa1580156103e9573d6000803e3d6000fd5b505050506040513d601f19601f8201168201806040525081019061040d919061335e565b6040517f989c11a9000000000000000000000000000000000000000000000000000000008152909450600160a060020a0382169063989c11a9906104579089903390600401613347565b602060405180830381865afa158015610474573d6000803e3d6000fd5b505050506040513d601f19601f82011682018060405250810190610498919061335e565b925050509250925092565b600080849050600081600160a060020a031663c06dea4e6040518163ffffffff1660e060020a028152600401602060405180830381865afa1580156104ec573d6000803e3d6000fd5b505050506040513d601f19601f82011682018060405250810190610510919061332a565b6040517fbca7caa0000000000000000000000000000000000000000000000000000000008152909150600160a060020a0382169063bca7caa09061055a9088908890600401613347565b602060405180830381865afa158015610577573d6000803e3d6000fd5b505050506040513d601f19601f8201168201806040525081019061059b9190613381565b9695505050505050565b6060806000849050600081600160a060020a031663c06dea4e6040518163ffffffff1660e060020a028152600401602060405180830381865afa1580156105f0573d6000803e3d6000fd5b505050506040513d601f19601f82011682018060405250810190610614919061332a565b6040517fb77ff41100000000000000000000000000000000000000000000000000000000815260048101879052909150600090600160a060020a0383169063b77ff41190602401602060405180830381865afa158015610678573d6000803e3d6000fd5b505050506040513d601f19601f8201168201806040525081019061069c9190613381565b905060008167ffffffffffffffff8111156106b9576106b961339a565b6040519080825280602002602001820160405280156106e2578160200160208202803683370190505b50905060008267ffffffffffffffff8111156107005761070061339a565b60405190808252806020026020018201604052801561073357816020015b606081526020019060019003908161071e5790505b50905060005b8381101561081b5761074c8160016133cc565b83828151811061075e5761075e6133e4565b6020908102919091010152600160a060020a03861663d75e79808a6107848460016133cc565b60405160e060020a63ffffffff851602815260048101929092526024820152604401600060405180830381865afa1580156107c3573d6000803e3d6000fd5b505050506040513d6000823e601f3d908101601f191682016040526107eb919081019061349a565b8282815181106107fd576107fd6133e4565b60200260200101819052508080610813906134cf565b915050610739565b50909890975095505050505050565b6040517feb33983d00000000000000000000000000000000000000000000000000000000815260048101829052606090600160a060020a0384169063eb33983d90602401600060405180830381865afa15801561088b573d6000803e3d6000fd5b505050506040513d6000823e601f3d908101601f191682016040526108b3919081019061349a565b9392505050565b6060806000849050600081600160a060020a031663c06dea4e6040518163ffffffff1660e060020a028152600401602060405180830381865afa158015610905573d6000803e3d6000fd5b505050506040513d601f19601f82011682018060405250810190610929919061332a565b9050600082600160a060020a031663cca369966040518163ffffffff1660e060020a028152600401602060405180830381865afa15801561096e573d6000803e3d6000fd5b505050506040513d601f19601f82011682018060405250810190610992919061332a565b60408051602380825261048082019092529192506020820161046080368337019050506040805160238082526104808201909252919550816020015b60608152602001906001900390816109ce5790505094506040518060400160405280600a81526020017f536d616c6c20416d6d6f0000000000000000000000000000000000000000000081525085600081518110610a2e57610a2e6133e4565b60200260200101819052506040518060400160405280600a81526020017f4c6172676520416d6d6f0000000000000000000000000000000000000000000081525085600181518110610a8257610a826133e4565b60200260200101819052506040518060400160405280600981526020017f426174746572696573000000000000000000000000000000000000000000000081525085600281518110610ad657610ad66133e4565b60200260200101819052506040518060400160405280600681526020017f536869656c64000000000000000000000000000000000000000000000000000081525085600381518110610b2a57610b2a6133e4565b60200260200101819052506040518060400160405280600681526020017f506f7274616c000000000000000000000000000000000000000000000000000081525085600481518110610b7e57610b7e6133e4565b60200260200101819052506040518060400160405280600281526020017f4f6e00000000000000000000000000000000000000000000000000000000000081525085600581518110610bd257610bd26133e4565b60200260200101819052506040518060400160405280600381526020017f4f6666000000000000000000000000000000000000000000000000000000000081525085600681518110610c2657610c266133e4565b60200260200101819052506040518060400160405280600c81526020017f527573747920446167676572000000000000000000000000000000000000000081525085600781518110610c7a57610c7a6133e4565b60200260200101819052506040518060400160405280600b81526020017f52757374792053776f726400000000000000000000000000000000000000000081525085600881518110610cce57610cce6133e4565b60200260200101819052506040518060400160405280600c81526020017f527573747920506973746f6c000000000000000000000000000000000000000081525085600981518110610d2257610d226133e4565b60200260200101819052506040518060400160405280600b81526020017f5275737479205269666c6500000000000000000000000000000000000000000081525085600a81518110610d7657610d766133e4565b60200260200101819052506040518060400160405280600c81526020017f5368696e7920446167676572000000000000000000000000000000000000000081525085600b81518110610dca57610dca6133e4565b60200260200101819052506040518060400160405280600b81526020017f5368696e792053776f726400000000000000000000000000000000000000000081525085600c81518110610e1e57610e1e6133e4565b60200260200101819052506040518060400160405280600c81526020017f5368696e7920506973746f6c000000000000000000000000000000000000000081525085600d81518110610e7257610e726133e4565b60200260200101819052506040518060400160405280600b81526020017f5368696e79205269666c6500000000000000000000000000000000000000000081525085600e81518110610ec657610ec66133e4565b60200260200101819052506040518060400160405280600c81526020017f4c6173657220446167676572000000000000000000000000000000000000000081525085600f81518110610f1a57610f1a6133e4565b60200260200101819052506040518060400160405280600b81526020017f4c617365722053776f726400000000000000000000000000000000000000000081525085601081518110610f6e57610f6e6133e4565b60200260200101819052506040518060400160405280600c81526020017f4c6173657220506973746f6c000000000000000000000000000000000000000081525085601181518110610fc257610fc26133e4565b60200260200101819052506040518060400160405280600b81526020017f4c61736572205269666c6500000000000000000000000000000000000000000081525085601281518110611016576110166133e4565b60200260200101819052506040518060400160405280600a81526020017f476c6f7720737469636b000000000000000000000000000000000000000000008152508560138151811061106a5761106a6133e4565b60200260200101819052506040518060400160405280600a81526020017f466c6173686c6967687400000000000000000000000000000000000000000000815250856014815181106110be576110be6133e4565b60200260200101819052506040518060400160405280600b81526020017f466c6f6f64206c6967687400000000000000000000000000000000000000000081525085601581518110611112576111126133e4565b60200260200101819052506040518060400160405280601381526020017f4e69676874766973696f6e20476f67676c65730000000000000000000000000081525085601681518110611166576111666133e4565b60200260200101819052506040518060400160405280600f81526020017f506572736f6e616c20536869656c640000000000000000000000000000000000815250856017815181106111ba576111ba6133e4565b60200260200101819052506040518060400160405280600d81526020017f427562626c6520536869656c64000000000000000000000000000000000000008152508560188151811061120e5761120e6133e4565b60200260200101819052506040518060400160405280600c81526020017f46726167204772656e616465000000000000000000000000000000000000000081525085601981518110611262576112626133e4565b60200260200101819052506040518060400160405280600c81526020017f46697265204772656e616465000000000000000000000000000000000000000081525085601a815181106112b6576112b66133e4565b60200260200101819052506040518060400160405280600d81526020017f53686f636b204772656e6164650000000000000000000000000000000000000081525085601b8151811061130a5761130a6133e4565b60200260200101819052506040518060400160405280600981526020017f4845204d6f72746172000000000000000000000000000000000000000000000081525085601c8151811061135e5761135e6133e4565b60200260200101819052506040518060400160405280601181526020017f496e63656e6469617279204d6f7274617200000000000000000000000000000081525085601d815181106113b2576113b26133e4565b60200260200101819052506040518060400160405280600a81526020017f454d50204d6f727461720000000000000000000000000000000000000000000081525085601e81518110611406576114066133e4565b60200260200101819052506040518060400160405280600b81526020017f506f77657220476c6f766500000000000000000000000000000000000000000081525085601f8151811061145a5761145a6133e4565b60200260200101819052506040518060600160405280602181526020016136a26021913985602081518110611491576114916133e4565b60200260200101819052506040518060400160405280600f81526020017f54656c65706f72746572205061636b0000000000000000000000000000000000815250856021815181106114e5576114e56133e4565b60200260200101819052506040518060400160405280600881526020017f43616d707369746500000000000000000000000000000000000000000000000081525085602281518110611539576115396133e4565b6020026020010181905250600082600160a060020a031663bca7caa088336040518363ffffffff1660e060020a028152600401611577929190613347565b602060405180830381865afa158015611594573d6000803e3d6000fd5b505050506040513d601f19601f820116820180604052508101906115b89190613381565b6040517f01d37be4000000000000000000000000000000000000000000000000000000008152909150600160a060020a038316906301d37be4906116059084906003908c90600401613503565b602060405180830381865afa158015611622573d6000803e3d6000fd5b505050506040513d601f19601f82011682018060405250810190611646919061353c565b1561182457600082600160a060020a031663a318d45c6040518163ffffffff1660e060020a028152600401602060405180830381865afa15801561168e573d6000803e3d6000fd5b505050506040513d601f19601f820116820180604052508101906116b2919061332a565b9050600081600160a060020a031663c853a1d06040518163ffffffff1660e060020a028152600401600060405180830381865afa1580156116f7573d6000803e3d6000fd5b505050506040513d6000823e601f3d908101601f1916820160405261171f919081019061355e565b905060005b87518110156118205781818151811061173f5761173f6133e4565b6020026020010151898281518110611759576117596133e4565b602002602001018190525082600160a060020a0316634db157d0838381518110611785576117856133e4565b60200260200101518c876040518463ffffffff1660e060020a0281526004016117b093929190613620565b602060405180830381865afa1580156117cd573d6000803e3d6000fd5b505050506040513d601f19601f820116820180604052508101906117f19190613381565b888281518110611803576118036133e4565b602090810291909101015280611818816134cf565b915050611724565b5050505b600082600160a060020a031663a318d45c6040518163ffffffff1660e060020a028152600401602060405180830381865afa158015611867573d6000803e3d6000fd5b505050506040513d601f19601f8201168201806040525081019061188b919061332a565b6040517f4db157d000000000000000000000000000000000000000000000000000000000815260606004820152600860648201527f43616d70736974650000000000000000000000000000000000000000000000006084820152602481018a905260448101849052600160a060020a039190911690634db157d09060a401602060405180830381865afa158015611926573d6000803e3d6000fd5b505050506040513d601f19601f8201168201806040525081019061194a9190613381565b90508086602281518110611960576119606133e4565b60200260200101818152505050505050509250929050565b60606000839050600081600160a060020a031663cca369966040518163ffffffff1660e060020a028152600401602060405180830381865afa1580156119c2573d6000803e3d6000fd5b505050506040513d601f19601f820116820180604052508101906119e6919061332a565b9050600081600160a060020a031663a906dfd16040518163ffffffff1660e060020a028152600401602060405180830381865afa158015611a2b573d6000803e3d6000fd5b505050506040513d601f19601f82011682018060405250810190611a4f919061332a565b6040517f4db157d000000000000000000000000000000000000000000000000000000000815260606004820152600360648201527f446179000000000000000000000000000000000000000000000000000000000060848201526024810187905260016044820152600160a060020a039190911690634db157d09060a401602060405180830381865afa158015611aea573d6000803e3d6000fd5b505050506040513d601f19601f82011682018060405250810190611b0e9190613381565b905060008111611b53576040518060400160405280600581526020017f4e6967687400000000000000000000000000000000000000000000000000000081525061059b565b6040518060400160405280600381526020017f44617900000000000000000000000000000000000000000000000000000000008152509695505050505050565b6060806000849050600081600160a060020a031663a0ed600d6040518163ffffffff1660e060020a028152600401602060405180830381865afa158015611bde573d6000803e3d6000fd5b505050506040513d601f19601f82011682018060405250810190611c02919061332a565b9050611dbe81600160a060020a031663a082936d87336040518363ffffffff1660e060020a028152600401611c38929190613347565b600060405180830381865afa158015611c55573d6000803e3d6000fd5b505050506040513d6000823e601f3d908101601f19168201604052611c7d919081019061349a565b83600160a060020a031663cca369966040518163ffffffff1660e060020a028152600401602060405180830381865afa158015611cbe573d6000803e3d6000fd5b505050506040513d601f19601f82011682018060405250810190611ce2919061332a565b8785600160a060020a031663c06dea4e6040518163ffffffff1660e060020a028152600401602060405180830381865afa158015611d24573d6000803e3d6000fd5b505050506040513d601f19601f82011682018060405250810190611d48919061332a565b600160a060020a031663bca7caa08a336040518363ffffffff1660e060020a028152600401611d78929190613347565b602060405180830381865afa158015611d95573d6000803e3d6000fd5b505050506040513d601f19601f82011682018060405250810190611db99190613381565b612ef6565b611dd75760405180602001604052806000815250611e63565b6040517fa082936d000000000000000000000000000000000000000000000000000000008152600160a060020a0382169063a082936d90611e1e9088903390600401613347565b600060405180830381865afa158015611e3b573d6000803e3d6000fd5b505050506040513d6000823e601f3d908101601f19168201604052611e63919081019061349a565b9350611e9981600160a060020a0316636662537087336040518363ffffffff1660e060020a028152600401611c38929190613347565b611eb25760405180602001604052806000815250611f3e565b6040517f66625370000000000000000000000000000000000000000000000000000000008152600160a060020a03821690636662537090611ef99088903390600401613347565b600060405180830381865afa158015611f16573d6000803e3d6000fd5b505050506040513d6000823e601f3d908101601f19168201604052611f3e919081019061349a565b925050509250929050565b600080849050600081600160a060020a031663c06dea4e6040518163ffffffff1660e060020a028152600401602060405180830381865afa158015611f92573d6000803e3d6000fd5b505050506040513d601f19601f82011682018060405250810190611fb6919061332a565b6040517fb81f6e18000000000000000000000000000000000000000000000000000000008152909150600160a060020a0382169063b81f6e18906120009088908890600401613347565b602060405180830381865afa15801561201d573d6000803e3d6000fd5b505050506040513d601f19601f8201168201806040525081019061059b919061353c565b6060806000849050600081600160a060020a0316633ca61a586040518163ffffffff1660e060020a028152600401600060405180830381865afa15801561208c573d6000803e3d6000fd5b505050506040513d6000823e601f3d908101601f191682016040526120b4919081019061355e565b90506000805b82518110156121735783600160a060020a031663ed3719a5888584815181106120e5576120e56133e4565b60200260200101516040518363ffffffff1660e060020a02815260040161210d929190613645565b602060405180830381865afa15801561212a573d6000803e3d6000fd5b505050506040513d601f19601f8201168201806040525081019061214e919061353c565b15612161578161215d8161365e565b9250505b8061216b816134cf565b9150506120ba565b508061ffff1667ffffffffffffffff8111156121915761219161339a565b6040519080825280602002602001820160405280156121c457816020015b60608152602001906001900390816121af5790505b5094508061ffff1667ffffffffffffffff8111156121e4576121e461339a565b60405190808252806020026020018201604052801561220d578160200160208202803683370190505b5093506000905060005b825181101561243a5783600160a060020a031663ed3719a588858481518110612242576122426133e4565b60200260200101516040518363ffffffff1660e060020a02815260040161226a929190613645565b602060405180830381865afa158015612287573d6000803e3d6000fd5b505050506040513d601f19601f820116820180604052508101906122ab919061353c565b15612428578281815181106122c2576122c26133e4565b6020026020010151868361ffff16815181106122e0576122e06133e4565b6020026020010181905250600084600160a060020a03166335e333e46040518163ffffffff1660e060020a028152600401602060405180830381865afa15801561232e573d6000803e3d6000fd5b505050506040513d601f19601f82011682018060405250810190612352919061332a565b905080600160a060020a03166330821b9c89868581518110612376576123766133e4565b60200260200101516040518363ffffffff1660e060020a02815260040161239e929190613645565b602060405180830381865afa1580156123bb573d6000803e3d6000fd5b505050506040513d601f19601f820116820180604052508101906123df9190613680565b600b8111156123f0576123f06134ea565b868461ffff1681518110612406576124066133e4565b61ffff90921660209283029190910190910152826124238161365e565b935050505b80612432816134cf565b915050612217565b505050509250929050565b600080600083905080600160a060020a031663108c5e146040518163ffffffff1660e060020a028152600401602060405180830381865afa15801561248e573d6000803e3d6000fd5b505050506040513d601f19601f820116820180604052508101906124b29190613381565b925080600160a060020a03166338b145df6040518163ffffffff1660e060020a028152600401602060405180830381865afa1580156124f5573d6000803e3d6000fd5b505050506040513d601f19601f820116820180604052508101906125199190613381565b915050915091565b60608060606000806000879050600081600160a060020a031663a0ed600d6040518163ffffffff1660e060020a028152600401602060405180830381865afa158015612571573d6000803e3d6000fd5b505050506040513d601f19601f82011682018060405250810190612595919061332a565b905061275181600160a060020a031663a2e8a8918a336040518363ffffffff1660e060020a0281526004016125cb929190613347565b600060405180830381865afa1580156125e8573d6000803e3d6000fd5b505050506040513d6000823e601f3d908101601f19168201604052612610919081019061349a565b83600160a060020a031663cca369966040518163ffffffff1660e060020a028152600401602060405180830381865afa158015612651573d6000803e3d6000fd5b505050506040513d601f19601f82011682018060405250810190612675919061332a565b8a85600160a060020a031663c06dea4e6040518163ffffffff1660e060020a028152600401602060405180830381865afa1580156126b7573d6000803e3d6000fd5b505050506040513d601f19601f820116820180604052508101906126db919061332a565b600160a060020a031663bca7caa08d336040518363ffffffff1660e060020a02815260040161270b929190613347565b602060405180830381865afa158015612728573d6000803e3d6000fd5b505050506040513d601f19601f8201168201806040525081019061274c9190613381565b612fdb565b61276a57604051806020016040528060008152506127f6565b6040517fa2e8a891000000000000000000000000000000000000000000000000000000008152600160a060020a0382169063a2e8a891906127b1908b903390600401613347565b600060405180830381865afa1580156127ce573d6000803e3d6000fd5b505050506040513d6000823e601f3d908101601f191682016040526127f6919081019061349a565b96506129b281600160a060020a031663db1698b28a336040518363ffffffff1660e060020a02815260040161282c929190613347565b600060405180830381865afa158015612849573d6000803e3d6000fd5b505050506040513d6000823e601f3d908101601f19168201604052612871919081019061349a565b83600160a060020a031663cca369966040518163ffffffff1660e060020a028152600401602060405180830381865afa1580156128b2573d6000803e3d6000fd5b505050506040513d601f19601f820116820180604052508101906128d6919061332a565b8a85600160a060020a031663c06dea4e6040518163ffffffff1660e060020a028152600401602060405180830381865afa158015612918573d6000803e3d6000fd5b505050506040513d601f19601f8201168201806040525081019061293c919061332a565b600160a060020a031663bca7caa08d336040518363ffffffff1660e060020a02815260040161296c929190613347565b602060405180830381865afa158015612989573d6000803e3d6000fd5b505050506040513d601f19601f820116820180604052508101906129ad9190613381565b61301f565b6129cb5760405180602001604052806000815250612a57565b6040517fdb1698b2000000000000000000000000000000000000000000000000000000008152600160a060020a0382169063db1698b290612a12908b903390600401613347565b600060405180830381865afa158015612a2f573d6000803e3d6000fd5b505050506040513d6000823e601f3d908101601f19168201604052612a57919081019061349a565b9550612bcd81600160a060020a03166385c4f91d8a336040518363ffffffff1660e060020a028152600401612a8d929190613347565b600060405180830381865afa158015612aaa573d6000803e3d6000fd5b505050506040513d6000823e601f3d908101601f19168201604052612ad2919081019061349a565b83600160a060020a031663cca369966040518163ffffffff1660e060020a028152600401602060405180830381865afa158015612b13573d6000803e3d6000fd5b505050506040513d601f19601f82011682018060405250810190612b37919061332a565b8a85600160a060020a031663c06dea4e6040518163ffffffff1660e060020a028152600401602060405180830381865afa158015612b79573d6000803e3d6000fd5b505050506040513d601f19601f82011682018060405250810190612b9d919061332a565b600160a060020a031663bca7caa08d336040518363ffffffff1660e060020a028152600401611d78929190613347565b612be65760405180602001604052806000815250612c72565b6040517f85c4f91d000000000000000000000000000000000000000000000000000000008152600160a060020a038216906385c4f91d90612c2d908b903390600401613347565b600060405180830381865afa158015612c4a573d6000803e3d6000fd5b505050506040513d6000823e601f3d908101601f19168201604052612c72919081019061349a565b9450612cee6040518060400160405280600681526020017f536869656c64000000000000000000000000000000000000000000000000000081525083600160a060020a031663cca369966040518163ffffffff1660e060020a028152600401602060405180830381865afa158015612b13573d6000803e3d6000fd5b612cf9576000612cfc565b60015b9350612d786040518060400160405280600881526020017f43616d707369746500000000000000000000000000000000000000000000000081525083600160a060020a031663cca369966040518163ffffffff1660e060020a028152600401602060405180830381865afa158015612b13573d6000803e3d6000fd5b612d83576000612d86565b60015b925050509295509295909350565b60606000839050600081600160a060020a031663c06dea4e6040518163ffffffff1660e060020a028152600401602060405180830381865afa158015612dde573d6000803e3d6000fd5b505050506040513d601f19601f82011682018060405250810190612e02919061332a565b905081600160a060020a031663d75e79808583600160a060020a031663bca7caa088336040518363ffffffff1660e060020a028152600401612e45929190613347565b602060405180830381865afa158015612e62573d6000803e3d6000fd5b505050506040513d601f19601f82011682018060405250810190612e869190613381565b60405160e060020a63ffffffff851602815260048101929092526024820152604401600060405180830381865afa158015612ec5573d6000803e3d6000fd5b505050506040513d6000823e601f3d908101601f19168201604052612eed919081019061349a565b95945050505050565b60008084600160a060020a031663a318d45c6040518163ffffffff1660e060020a028152600401602060405180830381865afa158015612f3a573d6000803e3d6000fd5b505050506040513d601f19601f82011682018060405250810190612f5e919061332a565b600160a060020a0316634db157d08786866040518463ffffffff1660e060020a028152600401612f9093929190613620565b602060405180830381865afa158015612fad573d6000803e3d6000fd5b505050506040513d601f19601f82011682018060405250810190612fd19190613381565b1195945050505050565b60008084600160a060020a03166345d339d96040518163ffffffff1660e060020a028152600401602060405180830381865afa158015612f3a573d6000803e3d6000fd5b60008084600160a060020a031663c1cdbb3c6040518163ffffffff1660e060020a028152600401602060405180830381865afa158015612f3a573d6000803e3d6000fd5b600160a060020a038116811461307857600080fd5b50565b6000806040838503121561308e57600080fd5b823561309981613063565b946020939093013593505050565b6000806000606084860312156130bc57600080fd5b83356130c781613063565b92506020840135915060408401356130de81613063565b809150509250925092565b600081518084526020808501945080840160005b83811015613119578151875295820195908201906001016130fd565b509495945050505050565b6020815260006108b360208301846130e9565b60005b8381101561315257818101518382015260200161313a565b83811115613161576000848401525b50505050565b6000815180845261317f816020860160208601613137565b601f01601f19169290920160200192915050565b6000828251808552602080860195508081830284010181860160005b848110156131dd57601f198684030189526131cb838351613167565b988401989250908301906001016131af565b5090979650505050505050565b6040815260006131fd60408301856130e9565b8281036020840152612eed8185613193565b6020815260006108b36020830184613167565b6040815260006132356040830185613193565b8281036020840152612eed81856130e9565b60408152600061325a6040830185613167565b8281036020840152612eed8185613167565b60408152600061327f6040830185613193565b82810360208481019190915284518083528582019282019060005b818110156131dd57845161ffff168352938301939183019160010161329a565b6000602082840312156132cc57600080fd5b81356108b381613063565b60a0815260006132ea60a0830188613167565b82810360208401526132fc8188613167565b905082810360408401526133108187613167565b941515606084015250509015156080909101529392505050565b60006020828403121561333c57600080fd5b81516108b381613063565b918252600160a060020a0316602082015260400190565b60006020828403121561337057600080fd5b815160ff811681146108b357600080fd5b60006020828403121561339357600080fd5b5051919050565b60e060020a634e487b7102600052604160045260246000fd5b60e060020a634e487b7102600052601160045260246000fd5b600082198211156133df576133df6133b3565b500190565b60e060020a634e487b7102600052603260045260246000fd5b604051601f8201601f1916810167ffffffffffffffff811182821017156134265761342661339a565b604052919050565b600082601f83011261343f57600080fd5b815167ffffffffffffffff8111156134595761345961339a565b61346c601f8201601f19166020016133fd565b81815284602083860101111561348157600080fd5b613492826020830160208701613137565b949350505050565b6000602082840312156134ac57600080fd5b815167ffffffffffffffff8111156134c357600080fd5b6134928482850161342e565b60006000198214156134e3576134e36133b3565b5060010190565b60e060020a634e487b7102600052602160045260246000fd5b838152606081016007841061352b5760e060020a634e487b7102600052602160045260246000fd5b602082019390935260400152919050565b60006020828403121561354e57600080fd5b815180151581146108b357600080fd5b6000602080838503121561357157600080fd5b825167ffffffffffffffff8082111561358957600080fd5b818501915085601f83011261359d57600080fd5b8151818111156135af576135af61339a565b8381026135bd8582016133fd565b91825283810185019185810190898411156135d757600080fd5b86860192505b83831015613613578251858111156135f55760008081fd5b6136038b89838a010161342e565b83525091860191908601906135dd565b9998505050505050505050565b6060815260006136336060830186613167565b60208301949094525060400152919050565b8281526040602082015260006134926040830184613167565b600061ffff80831681811415613676576136766133b3565b6001019392505050565b60006020828403121561369257600080fd5b8151600c81106108b357600080fdfe52656d6f7465204c61756e636820616e642047756964616e63652053797374656da26469706673582212206619491947a1838d9791d60d7a554521ac79730d948a9a6975af65fdc601016564736f6c634300080b0033",
  "immutableReferences": {},
  "source": "// SPDX-License-Identifier: GPL-3.0\npragma solidity >=0.8.0;\n\nimport \"../HexplorationBoard.sol\";\nimport \"../HexplorationZone.sol\";\nimport \"@luckymachines/game-core/contracts/src/v0.0/PlayerRegistry.sol\";\nimport \"./CharacterCard.sol\";\nimport \"../tokens/TokenInventory.sol\";\n\nlibrary GameSummary {\n    // enemies\n    // tokens\n    function boardSize(address gameBoardAddress)\n        public\n        view\n        returns (uint256 rows, uint256 columns)\n    {\n        HexplorationBoard board = HexplorationBoard(gameBoardAddress);\n        rows = board.gridHeight();\n        columns = board.gridWidth();\n    }\n\n    function isRegistered(\n        address gameBoardAddress,\n        uint256 gameID,\n        address playerAddress\n    ) public view returns (bool) {\n        HexplorationBoard board = HexplorationBoard(gameBoardAddress);\n        PlayerRegistry pr = PlayerRegistry(board.prAddress());\n        return pr.isRegistered(gameID, playerAddress);\n    }\n\n    function getPlayerID(\n        address gameBoardAddress,\n        uint256 gameID,\n        address playerAddress\n    ) public view returns (uint256 playerID) {\n        HexplorationBoard board = HexplorationBoard(gameBoardAddress);\n        PlayerRegistry pr = PlayerRegistry(board.prAddress());\n        playerID = pr.playerID(gameID, playerAddress);\n    }\n\n    function getAvailableGameIDs() public view returns (uint256[] memory) {\n        // TODO: return available game IDs\n    }\n\n    function currentPhase(address gameBoardAddress, uint256 gameID)\n        public\n        view\n        returns (string memory phase)\n    {\n        HexplorationBoard board = HexplorationBoard(gameBoardAddress);\n        TokenInventory tokens = TokenInventory(board.tokenInventory());\n\n        uint256 dayBalance = tokens.DAY_NIGHT_TOKEN().balance(\"Day\", gameID, 1);\n        phase = dayBalance > 0 ? \"Day\" : \"Night\";\n    }\n\n    function activeZones(address gameBoardAddress, uint256 gameID)\n        public\n        view\n        returns (string[] memory zones, uint16[] memory tiles)\n    {\n        HexplorationBoard board = HexplorationBoard(gameBoardAddress);\n        string[] memory allZones = board.getZoneAliases();\n\n        uint16 activeZoneCount = 0;\n        for (uint256 i = 0; i < allZones.length; i++) {\n            if (board.zoneEnabled(gameID, allZones[i])) {\n                activeZoneCount++;\n            }\n        }\n        zones = new string[](activeZoneCount);\n        tiles = new uint16[](activeZoneCount);\n\n        activeZoneCount = 0;\n        for (uint256 i = 0; i < allZones.length; i++) {\n            if (board.zoneEnabled(gameID, allZones[i])) {\n                zones[activeZoneCount] = allZones[i];\n                HexplorationZone hexZone = HexplorationZone(\n                    board.hexZoneAddress()\n                );\n                tiles[activeZoneCount] = uint16(\n                    hexZone.tile(gameID, allZones[i])\n                );\n                activeZoneCount++;\n            }\n        }\n    }\n\n    function landingSite(address gameBoardAddress, uint256 gameID)\n        public\n        view\n        returns (string memory)\n    {\n        return HexplorationBoard(gameBoardAddress).initialPlayZone(gameID);\n    }\n\n    function currentLocation(address gameBoardAddress, uint256 gameID)\n        public\n        view\n        returns (string memory)\n    {\n        HexplorationBoard board = HexplorationBoard(gameBoardAddress);\n        PlayerRegistry pr = PlayerRegistry(board.prAddress());\n        return board.currentPlayZone(gameID, pr.playerID(gameID, msg.sender));\n    }\n\n    function allPlayerLocations(address gameBoardAddress, uint256 gameID)\n        public\n        view\n        returns (uint256[] memory, string[] memory)\n    {\n        HexplorationBoard board = HexplorationBoard(gameBoardAddress);\n        PlayerRegistry pr = PlayerRegistry(board.prAddress());\n        uint256 totalRegistrations = pr.totalRegistrations(gameID);\n        uint256[] memory playerIDs = new uint256[](totalRegistrations);\n        string[] memory playerZones = new string[](totalRegistrations);\n        for (uint256 i = 0; i < totalRegistrations; i++) {\n            playerIDs[i] = i + 1;\n            playerZones[i] = board.currentPlayZone(gameID, i + 1);\n        }\n        return (playerIDs, playerZones);\n    }\n\n    function inventoryItemExists(\n        string memory tokenType,\n        address inventoryAddress,\n        uint256 gameID,\n        uint256 holderID\n    ) internal view returns (bool) {\n        return\n            TokenInventory(inventoryAddress).ITEM_TOKEN().balance(\n                tokenType,\n                gameID,\n                holderID\n            ) > 0;\n    }\n\n    function inventoryArtifactExists(\n        string memory tokenType,\n        address inventoryAddress,\n        uint256 gameID,\n        uint256 holderID\n    ) internal view returns (bool) {\n        return\n            TokenInventory(inventoryAddress).ARTIFACT_TOKEN().balance(\n                tokenType,\n                gameID,\n                holderID\n            ) > 0;\n    }\n\n    function inventoryStatusExists(\n        string memory tokenType,\n        address inventoryAddress,\n        uint256 gameID,\n        uint256 holderID\n    ) internal view returns (bool) {\n        return\n            TokenInventory(inventoryAddress).PLAYER_STATUS_TOKEN().balance(\n                tokenType,\n                gameID,\n                holderID\n            ) > 0;\n    }\n\n    function currentPlayerStats(address gameBoardAddress, uint256 gameID)\n        public\n        view\n        returns (\n            uint8 movement,\n            uint8 agility,\n            uint8 dexterity\n        )\n    {\n        HexplorationBoard board = HexplorationBoard(gameBoardAddress);\n        CharacterCard cc = CharacterCard(board.characterCard());\n        movement = cc.movement(gameID, msg.sender);\n        agility = cc.agility(gameID, msg.sender);\n        dexterity = cc.dexterity(gameID, msg.sender);\n    }\n\n    function currentHandInventory(address gameBoardAddress, uint256 gameID)\n        public\n        view\n        returns (string memory leftHandItem, string memory rightHandItem)\n    {\n        HexplorationBoard board = HexplorationBoard(gameBoardAddress);\n        CharacterCard cc = CharacterCard(board.characterCard());\n        leftHandItem = inventoryItemExists(\n            cc.leftHandItem(gameID, msg.sender),\n            board.tokenInventory(),\n            gameID,\n            PlayerRegistry(board.prAddress()).playerID(gameID, msg.sender)\n        )\n            ? cc.leftHandItem(gameID, msg.sender)\n            : \"\";\n\n        rightHandItem = inventoryItemExists(\n            cc.rightHandItem(gameID, msg.sender),\n            board.tokenInventory(),\n            gameID,\n            PlayerRegistry(board.prAddress()).playerID(gameID, msg.sender)\n        )\n            ? cc.rightHandItem(gameID, msg.sender)\n            : \"\";\n    }\n\n    function activeInventory(address gameBoardAddress, uint256 gameID)\n        public\n        view\n        returns (\n            string memory artifact,\n            string memory status,\n            string memory relic,\n            bool shield,\n            bool campsite\n        )\n    {\n        HexplorationBoard board = HexplorationBoard(gameBoardAddress);\n        CharacterCard cc = CharacterCard(board.characterCard());\n        artifact = inventoryArtifactExists(\n            cc.artifact(gameID, msg.sender),\n            board.tokenInventory(),\n            gameID,\n            PlayerRegistry(board.prAddress()).playerID(gameID, msg.sender)\n        )\n            ? cc.artifact(gameID, msg.sender)\n            : \"\";\n\n        status = inventoryStatusExists(\n            cc.status(gameID, msg.sender),\n            board.tokenInventory(),\n            gameID,\n            PlayerRegistry(board.prAddress()).playerID(gameID, msg.sender)\n        )\n            ? cc.status(gameID, msg.sender)\n            : \"\";\n\n        relic = inventoryItemExists(\n            cc.relic(gameID, msg.sender),\n            board.tokenInventory(),\n            gameID,\n            PlayerRegistry(board.prAddress()).playerID(gameID, msg.sender)\n        )\n            ? cc.relic(gameID, msg.sender)\n            : \"\";\n\n        shield = inventoryItemExists(\n            \"Shield\",\n            board.tokenInventory(),\n            gameID,\n            PlayerRegistry(board.prAddress()).playerID(gameID, msg.sender)\n        )\n            ? true\n            : false;\n\n        campsite = inventoryItemExists(\n            \"Campsite\",\n            board.tokenInventory(),\n            gameID,\n            PlayerRegistry(board.prAddress()).playerID(gameID, msg.sender)\n        )\n            ? true\n            : false;\n    }\n\n    function inactiveInventory(address gameBoardAddress, uint256 gameID)\n        public\n        view\n        returns (string[] memory itemTypes, uint256[] memory itemBalances)\n    {\n        HexplorationBoard board = HexplorationBoard(gameBoardAddress);\n        PlayerRegistry pr = PlayerRegistry(board.prAddress());\n        TokenInventory ti = TokenInventory(board.tokenInventory());\n        itemBalances = new uint256[](35);\n        itemTypes = new string[](35);\n        itemTypes[0] = \"Small Ammo\";\n        itemTypes[1] = \"Large Ammo\";\n        itemTypes[2] = \"Batteries\";\n        itemTypes[3] = \"Shield\";\n        itemTypes[4] = \"Portal\";\n        itemTypes[5] = \"On\";\n        itemTypes[6] = \"Off\";\n        itemTypes[7] = \"Rusty Dagger\";\n        itemTypes[8] = \"Rusty Sword\";\n        itemTypes[9] = \"Rusty Pistol\";\n        itemTypes[10] = \"Rusty Rifle\";\n        itemTypes[11] = \"Shiny Dagger\";\n        itemTypes[12] = \"Shiny Sword\";\n        itemTypes[13] = \"Shiny Pistol\";\n        itemTypes[14] = \"Shiny Rifle\";\n        itemTypes[15] = \"Laser Dagger\";\n        itemTypes[16] = \"Laser Sword\";\n        itemTypes[17] = \"Laser Pistol\";\n        itemTypes[18] = \"Laser Rifle\";\n        itemTypes[19] = \"Glow stick\";\n        itemTypes[20] = \"Flashlight\";\n        itemTypes[21] = \"Flood light\";\n        itemTypes[22] = \"Nightvision Goggles\";\n        itemTypes[23] = \"Personal Shield\";\n        itemTypes[24] = \"Bubble Shield\";\n        itemTypes[25] = \"Frag Grenade\";\n        itemTypes[26] = \"Fire Grenade\";\n        itemTypes[27] = \"Shock Grenade\";\n        itemTypes[28] = \"HE Mortar\";\n        itemTypes[29] = \"Incendiary Mortar\";\n        itemTypes[30] = \"EMP Mortar\";\n        itemTypes[31] = \"Power Glove\";\n        itemTypes[32] = \"Remote Launch and Guidance System\";\n        itemTypes[33] = \"Teleporter Pack\";\n        itemTypes[34] = \"Campsite\";\n        uint256 playerID = pr.playerID(gameID, msg.sender);\n        if (ti.holdsToken(playerID, TokenInventory.Token.Item, gameID)) {\n            Item itemToken = ti.ITEM_TOKEN();\n            string[] memory types = itemToken.getTokenTypes();\n            for (uint256 i = 0; i < itemBalances.length; i++) {\n                itemTypes[i] = types[i];\n                itemBalances[i] = itemToken.balance(types[i], gameID, playerID);\n            }\n        }\n        uint256 campsiteBalance = ti.ITEM_TOKEN().balance(\n            \"Campsite\",\n            gameID,\n            playerID\n        );\n        itemBalances[34] = campsiteBalance;\n    }\n}\n",
  "sourcePath": "/Users/maxmeier/Developer/Lucky Machines/hexploration/contracts/state/GameSummary.sol",
  "compiler": {
    "name": "solc",
    "version": "0.8.11+commit.d7f03943.Emscripten.clang"
  },
  "schemaVersion": "3.4.4",
  "updatedAt": "2022-05-17T04:56:09.413Z",
  "networkType": "ethereum",
  "devdoc": {
    "kind": "dev",
    "methods": {},
    "version": 1
  },
  "userdoc": {
    "kind": "user",
    "methods": {},
    "version": 1
  }
}