{
  "contractName": "GameBoard",
  "abi": [
    {
      "inputs": [
        {
          "internalType": "address",
          "name": "adminAddress",
          "type": "address"
        }
      ],
      "stateMutability": "nonpayable",
      "type": "constructor"
    },
    {
      "anonymous": false,
      "inputs": [
        {
          "indexed": true,
          "internalType": "bytes32",
          "name": "role",
          "type": "bytes32"
        },
        {
          "indexed": true,
          "internalType": "bytes32",
          "name": "previousAdminRole",
          "type": "bytes32"
        },
        {
          "indexed": true,
          "internalType": "bytes32",
          "name": "newAdminRole",
          "type": "bytes32"
        }
      ],
      "name": "RoleAdminChanged",
      "type": "event"
    },
    {
      "anonymous": false,
      "inputs": [
        {
          "indexed": true,
          "internalType": "bytes32",
          "name": "role",
          "type": "bytes32"
        },
        {
          "indexed": true,
          "internalType": "address",
          "name": "account",
          "type": "address"
        },
        {
          "indexed": true,
          "internalType": "address",
          "name": "sender",
          "type": "address"
        }
      ],
      "name": "RoleGranted",
      "type": "event"
    },
    {
      "anonymous": false,
      "inputs": [
        {
          "indexed": true,
          "internalType": "bytes32",
          "name": "role",
          "type": "bytes32"
        },
        {
          "indexed": true,
          "internalType": "address",
          "name": "account",
          "type": "address"
        },
        {
          "indexed": true,
          "internalType": "address",
          "name": "sender",
          "type": "address"
        }
      ],
      "name": "RoleRevoked",
      "type": "event"
    },
    {
      "inputs": [],
      "name": "DEFAULT_ADMIN_ROLE",
      "outputs": [
        {
          "internalType": "bytes32",
          "name": "",
          "type": "bytes32"
        }
      ],
      "stateMutability": "view",
      "type": "function"
    },
    {
      "inputs": [],
      "name": "FACTORY_ROLE",
      "outputs": [
        {
          "internalType": "bytes32",
          "name": "",
          "type": "bytes32"
        }
      ],
      "stateMutability": "view",
      "type": "function"
    },
    {
      "inputs": [],
      "name": "GAME_KEEPER_ROLE",
      "outputs": [
        {
          "internalType": "bytes32",
          "name": "",
          "type": "bytes32"
        }
      ],
      "stateMutability": "view",
      "type": "function"
    },
    {
      "inputs": [],
      "name": "GAME_MASTER_ROLE",
      "outputs": [
        {
          "internalType": "bytes32",
          "name": "",
          "type": "bytes32"
        }
      ],
      "stateMutability": "view",
      "type": "function"
    },
    {
      "inputs": [],
      "name": "MAX_BATCH_SIZE",
      "outputs": [
        {
          "internalType": "uint256",
          "name": "",
          "type": "uint256"
        }
      ],
      "stateMutability": "view",
      "type": "function"
    },
    {
      "inputs": [],
      "name": "PLAY_ZONE_ROLE",
      "outputs": [
        {
          "internalType": "bytes32",
          "name": "",
          "type": "bytes32"
        }
      ],
      "stateMutability": "view",
      "type": "function"
    },
    {
      "inputs": [
        {
          "internalType": "uint256",
          "name": "",
          "type": "uint256"
        },
        {
          "internalType": "uint256",
          "name": "",
          "type": "uint256"
        }
      ],
      "name": "currentPlayZone",
      "outputs": [
        {
          "internalType": "string",
          "name": "",
          "type": "string"
        }
      ],
      "stateMutability": "view",
      "type": "function"
    },
    {
      "inputs": [
        {
          "internalType": "uint256",
          "name": "",
          "type": "uint256"
        },
        {
          "internalType": "uint256",
          "name": "",
          "type": "uint256"
        }
      ],
      "name": "entryQueue",
      "outputs": [
        {
          "internalType": "uint256",
          "name": "",
          "type": "uint256"
        }
      ],
      "stateMutability": "view",
      "type": "function"
    },
    {
      "inputs": [
        {
          "internalType": "uint256",
          "name": "",
          "type": "uint256"
        }
      ],
      "name": "gameState",
      "outputs": [
        {
          "internalType": "uint256",
          "name": "",
          "type": "uint256"
        }
      ],
      "stateMutability": "view",
      "type": "function"
    },
    {
      "inputs": [
        {
          "internalType": "bytes32",
          "name": "role",
          "type": "bytes32"
        }
      ],
      "name": "getRoleAdmin",
      "outputs": [
        {
          "internalType": "bytes32",
          "name": "",
          "type": "bytes32"
        }
      ],
      "stateMutability": "view",
      "type": "function"
    },
    {
      "inputs": [
        {
          "internalType": "bytes32",
          "name": "role",
          "type": "bytes32"
        },
        {
          "internalType": "uint256",
          "name": "index",
          "type": "uint256"
        }
      ],
      "name": "getRoleMember",
      "outputs": [
        {
          "internalType": "address",
          "name": "",
          "type": "address"
        }
      ],
      "stateMutability": "view",
      "type": "function"
    },
    {
      "inputs": [
        {
          "internalType": "bytes32",
          "name": "role",
          "type": "bytes32"
        }
      ],
      "name": "getRoleMemberCount",
      "outputs": [
        {
          "internalType": "uint256",
          "name": "",
          "type": "uint256"
        }
      ],
      "stateMutability": "view",
      "type": "function"
    },
    {
      "inputs": [
        {
          "internalType": "bytes32",
          "name": "role",
          "type": "bytes32"
        },
        {
          "internalType": "address",
          "name": "account",
          "type": "address"
        }
      ],
      "name": "grantRole",
      "outputs": [],
      "stateMutability": "nonpayable",
      "type": "function"
    },
    {
      "inputs": [
        {
          "internalType": "bytes32",
          "name": "role",
          "type": "bytes32"
        },
        {
          "internalType": "address",
          "name": "account",
          "type": "address"
        }
      ],
      "name": "hasRole",
      "outputs": [
        {
          "internalType": "bool",
          "name": "",
          "type": "bool"
        }
      ],
      "stateMutability": "view",
      "type": "function"
    },
    {
      "inputs": [
        {
          "internalType": "uint256",
          "name": "",
          "type": "uint256"
        }
      ],
      "name": "lastEntryPlayerID",
      "outputs": [
        {
          "internalType": "uint256",
          "name": "",
          "type": "uint256"
        }
      ],
      "stateMutability": "view",
      "type": "function"
    },
    {
      "inputs": [
        {
          "internalType": "uint256",
          "name": "",
          "type": "uint256"
        },
        {
          "internalType": "string",
          "name": "",
          "type": "string"
        },
        {
          "internalType": "uint256",
          "name": "",
          "type": "uint256"
        }
      ],
      "name": "playZoneInputs",
      "outputs": [
        {
          "internalType": "string",
          "name": "",
          "type": "string"
        }
      ],
      "stateMutability": "view",
      "type": "function"
    },
    {
      "inputs": [
        {
          "internalType": "uint256",
          "name": "",
          "type": "uint256"
        },
        {
          "internalType": "string",
          "name": "",
          "type": "string"
        },
        {
          "internalType": "uint256",
          "name": "",
          "type": "uint256"
        }
      ],
      "name": "playZoneOutputs",
      "outputs": [
        {
          "internalType": "string",
          "name": "",
          "type": "string"
        }
      ],
      "stateMutability": "view",
      "type": "function"
    },
    {
      "inputs": [
        {
          "internalType": "uint256",
          "name": "",
          "type": "uint256"
        },
        {
          "internalType": "uint256",
          "name": "",
          "type": "uint256"
        }
      ],
      "name": "playZones",
      "outputs": [
        {
          "internalType": "string",
          "name": "",
          "type": "string"
        }
      ],
      "stateMutability": "view",
      "type": "function"
    },
    {
      "inputs": [
        {
          "internalType": "uint256",
          "name": "",
          "type": "uint256"
        }
      ],
      "name": "playerRegistry",
      "outputs": [
        {
          "internalType": "uint256",
          "name": "",
          "type": "uint256"
        }
      ],
      "stateMutability": "view",
      "type": "function"
    },
    {
      "inputs": [
        {
          "internalType": "bytes32",
          "name": "role",
          "type": "bytes32"
        },
        {
          "internalType": "address",
          "name": "account",
          "type": "address"
        }
      ],
      "name": "renounceRole",
      "outputs": [],
      "stateMutability": "nonpayable",
      "type": "function"
    },
    {
      "inputs": [
        {
          "internalType": "bytes32",
          "name": "role",
          "type": "bytes32"
        },
        {
          "internalType": "address",
          "name": "account",
          "type": "address"
        }
      ],
      "name": "revokeRole",
      "outputs": [],
      "stateMutability": "nonpayable",
      "type": "function"
    },
    {
      "inputs": [
        {
          "internalType": "bytes4",
          "name": "interfaceId",
          "type": "bytes4"
        }
      ],
      "name": "supportsInterface",
      "outputs": [
        {
          "internalType": "bool",
          "name": "",
          "type": "bool"
        }
      ],
      "stateMutability": "view",
      "type": "function"
    },
    {
      "inputs": [
        {
          "internalType": "uint256",
          "name": "",
          "type": "uint256"
        },
        {
          "internalType": "string",
          "name": "",
          "type": "string"
        }
      ],
      "name": "zoneAlias",
      "outputs": [
        {
          "internalType": "address",
          "name": "",
          "type": "address"
        }
      ],
      "stateMutability": "view",
      "type": "function"
    },
    {
      "inputs": [],
      "name": "prAddress",
      "outputs": [
        {
          "internalType": "address",
          "name": "",
          "type": "address"
        }
      ],
      "stateMutability": "view",
      "type": "function"
    },
    {
      "inputs": [
        {
          "internalType": "address",
          "name": "_playerRegistry",
          "type": "address"
        },
        {
          "internalType": "address",
          "name": "_gameRegistry",
          "type": "address"
        }
      ],
      "name": "createGame",
      "outputs": [
        {
          "internalType": "uint256",
          "name": "gameID",
          "type": "uint256"
        }
      ],
      "stateMutability": "nonpayable",
      "type": "function"
    },
    {
      "inputs": [
        {
          "internalType": "address",
          "name": "_playerRegistry",
          "type": "address"
        },
        {
          "internalType": "address",
          "name": "_gameRegistry",
          "type": "address"
        },
        {
          "internalType": "address[]",
          "name": "playZoneAddresses",
          "type": "address[]"
        },
        {
          "internalType": "string[]",
          "name": "zoneAliases",
          "type": "string[]"
        }
      ],
      "name": "createGame",
      "outputs": [
        {
          "internalType": "uint256",
          "name": "gameID",
          "type": "uint256"
        }
      ],
      "stateMutability": "nonpayable",
      "type": "function"
    },
    {
      "inputs": [
        {
          "internalType": "address",
          "name": "factoryAddress",
          "type": "address"
        }
      ],
      "name": "addFactory",
      "outputs": [],
      "stateMutability": "nonpayable",
      "type": "function"
    },
    {
      "inputs": [
        {
          "internalType": "address",
          "name": "factoryAddress",
          "type": "address"
        }
      ],
      "name": "isFactory",
      "outputs": [
        {
          "internalType": "bool",
          "name": "factoryIsAuthorized",
          "type": "bool"
        }
      ],
      "stateMutability": "view",
      "type": "function"
    },
    {
      "inputs": [
        {
          "internalType": "address[]",
          "name": "playZoneAddresses",
          "type": "address[]"
        },
        {
          "internalType": "string[]",
          "name": "zoneAliases",
          "type": "string[]"
        },
        {
          "internalType": "uint256",
          "name": "gameID",
          "type": "uint256"
        }
      ],
      "name": "addZones",
      "outputs": [],
      "stateMutability": "nonpayable",
      "type": "function"
    },
    {
      "inputs": [
        {
          "internalType": "address",
          "name": "keeperAddress",
          "type": "address"
        }
      ],
      "name": "addKeeper",
      "outputs": [],
      "stateMutability": "nonpayable",
      "type": "function"
    },
    {
      "inputs": [
        {
          "internalType": "uint256",
          "name": "gameID",
          "type": "uint256"
        }
      ],
      "name": "startGame",
      "outputs": [],
      "stateMutability": "nonpayable",
      "type": "function"
    },
    {
      "inputs": [],
      "name": "needsUpdate",
      "outputs": [
        {
          "internalType": "bool",
          "name": "doesNeedUpdate",
          "type": "bool"
        }
      ],
      "stateMutability": "view",
      "type": "function"
    },
    {
      "inputs": [],
      "name": "runUpdate",
      "outputs": [],
      "stateMutability": "nonpayable",
      "type": "function"
    },
    {
      "inputs": [],
      "name": "cleanQueue",
      "outputs": [],
      "stateMutability": "nonpayable",
      "type": "function"
    },
    {
      "inputs": [
        {
          "internalType": "uint256",
          "name": "gameID",
          "type": "uint256"
        }
      ],
      "name": "getOverflowQueue",
      "outputs": [
        {
          "internalType": "uint256[]",
          "name": "",
          "type": "uint256[]"
        }
      ],
      "stateMutability": "view",
      "type": "function"
    },
    {
      "inputs": [
        {
          "internalType": "uint256",
          "name": "gameID",
          "type": "uint256"
        }
      ],
      "name": "getPlayZones",
      "outputs": [
        {
          "internalType": "string[]",
          "name": "",
          "type": "string[]"
        }
      ],
      "stateMutability": "view",
      "type": "function"
    },
    {
      "inputs": [
        {
          "internalType": "uint256",
          "name": "gameID",
          "type": "uint256"
        },
        {
          "internalType": "string",
          "name": "_zoneAlias",
          "type": "string"
        }
      ],
      "name": "getInputs",
      "outputs": [
        {
          "internalType": "string[]",
          "name": "zoneInputs",
          "type": "string[]"
        }
      ],
      "stateMutability": "view",
      "type": "function"
    },
    {
      "inputs": [
        {
          "internalType": "uint256",
          "name": "gameID",
          "type": "uint256"
        },
        {
          "internalType": "string",
          "name": "_zoneAlias",
          "type": "string"
        }
      ],
      "name": "getOutputs",
      "outputs": [
        {
          "internalType": "string[]",
          "name": "zoneOutputs",
          "type": "string[]"
        }
      ],
      "stateMutability": "view",
      "type": "function"
    },
    {
      "inputs": [
        {
          "internalType": "uint256",
          "name": "gameID",
          "type": "uint256"
        },
        {
          "internalType": "string[2][]",
          "name": "connections",
          "type": "string[2][]"
        }
      ],
      "name": "addZoneConnections",
      "outputs": [],
      "stateMutability": "nonpayable",
      "type": "function"
    },
    {
      "inputs": [
        {
          "internalType": "uint256",
          "name": "gameID",
          "type": "uint256"
        },
        {
          "internalType": "string[]",
          "name": "inputAliases",
          "type": "string[]"
        },
        {
          "internalType": "uint256[]",
          "name": "inputs",
          "type": "uint256[]"
        },
        {
          "internalType": "string[]",
          "name": "outputAliases",
          "type": "string[]"
        },
        {
          "internalType": "uint256[]",
          "name": "outputs",
          "type": "uint256[]"
        }
      ],
      "name": "removeZoneConnections",
      "outputs": [],
      "stateMutability": "nonpayable",
      "type": "function"
    },
    {
      "inputs": [
        {
          "internalType": "uint256",
          "name": "gameID",
          "type": "uint256"
        },
        {
          "internalType": "address",
          "name": "playerAddress",
          "type": "address"
        },
        {
          "internalType": "uint256",
          "name": "pathIndex",
          "type": "uint256"
        }
      ],
      "name": "exitToPath",
      "outputs": [
        {
          "internalType": "bool",
          "name": "exitSuccess",
          "type": "bool"
        }
      ],
      "stateMutability": "nonpayable",
      "type": "function"
    },
    {
      "inputs": [
        {
          "internalType": "uint256",
          "name": "gameID",
          "type": "uint256"
        },
        {
          "internalType": "address",
          "name": "playerAddress",
          "type": "address"
        },
        {
          "internalType": "string",
          "name": "_zoneAlias",
          "type": "string"
        }
      ],
      "name": "playerEnteredZone",
      "outputs": [],
      "stateMutability": "nonpayable",
      "type": "function"
    },
    {
      "inputs": [
        {
          "internalType": "uint256",
          "name": "gameID",
          "type": "uint256"
        },
        {
          "internalType": "address[]",
          "name": "playerAddresses",
          "type": "address[]"
        },
        {
          "internalType": "uint256[]",
          "name": "pathIndices",
          "type": "uint256[]"
        },
        {
          "internalType": "uint256",
          "name": "transitID",
          "type": "uint256"
        }
      ],
      "name": "queueExitToPaths",
      "outputs": [],
      "stateMutability": "nonpayable",
      "type": "function"
    },
    {
      "inputs": [
        {
          "internalType": "uint256",
          "name": "transitID",
          "type": "uint256"
        }
      ],
      "name": "startTransit",
      "outputs": [],
      "stateMutability": "nonpayable",
      "type": "function"
    },
    {
      "inputs": [
        {
          "internalType": "uint256",
          "name": "transitID",
          "type": "uint256"
        }
      ],
      "name": "_progressTransit",
      "outputs": [],
      "stateMutability": "nonpayable",
      "type": "function"
    }
  ],
  "bytecode": "0x60806040523480156200001157600080fd5b506040516200552d3803806200552d833981810160405281019062000037919062000385565b6200004c6000801b826200008560201b60201c565b6200007e7f1d93c87416ca7b54f0fb8323167b72760e8e2ec93d48660953897a150f97a8b4826200008560201b60201c565b50620003b7565b6200009782826200009b60201b60201c565b5050565b620000b28282620000e360201b6200242b1760201c565b620000de8160016000858152602001908152602001600020620001d460201b6200250b1790919060201c565b505050565b620000f582826200020c60201b60201c565b620001d057600160008084815260200190815260200160002060000160008373ffffffffffffffffffffffffffffffffffffffff1673ffffffffffffffffffffffffffffffffffffffff16815260200190815260200160002060006101000a81548160ff021916908315150217905550620001756200027660201b60201c565b73ffffffffffffffffffffffffffffffffffffffff168173ffffffffffffffffffffffffffffffffffffffff16837f2f8788117e7eff1d82e926ec794901d17c78024a50270940304540a733656f0d60405160405180910390a45b5050565b600062000204836000018373ffffffffffffffffffffffffffffffffffffffff1660001b6200027e60201b60201c565b905092915050565b600080600084815260200190815260200160002060000160008373ffffffffffffffffffffffffffffffffffffffff1673ffffffffffffffffffffffffffffffffffffffff16815260200190815260200160002060009054906101000a900460ff16905092915050565b600033905090565b6000620002928383620002f860201b60201c565b620002ed578260000182908060018154018082558091505060019003906000526020600020016000909190919091505582600001805490508360010160008481526020019081526020016000208190555060019050620002f2565b600090505b92915050565b600080836001016000848152602001908152602001600020541415905092915050565b600080fd5b600073ffffffffffffffffffffffffffffffffffffffff82169050919050565b60006200034d8262000320565b9050919050565b6200035f8162000340565b81146200036b57600080fd5b50565b6000815190506200037f8162000354565b92915050565b6000602082840312156200039e576200039d6200031b565b5b6000620003ae848285016200036e565b91505092915050565b61516680620003c76000396000f3fe608060405234801561001057600080fd5b506004361061027f5760003560e01c80639f6c40171161015c578063cd1ec7f2116100ce578063d75e798011610087578063d75e798014610842578063d91413ba14610872578063e309203f146108a2578063e5ed1d59146108c0578063f643b8fd146108dc578063fa9f3438146108f85761027f565b8063cd1ec7f214610780578063cfdbf2541461079e578063d1e18d26146107bc578063d2d6756b146107c6578063d3fb7289146107f6578063d547741f146108265761027f565b8063ad1def1e11610120578063ad1def1e146106aa578063b2df0ca2146106c8578063b40c89df146106d2578063babdeefa14610702578063c06dea4e14610732578063ca15c873146107505761027f565b80639f6c4017146105f4578063a217fddf14610610578063a4f9c9df1461062e578063a6f979ff1461064a578063aab2aeb81461067a5761027f565b80632f2ff15d116101f557806351709a73116101b957806351709a73146104d45780636b6ec869146105045780637cc75d1c146105345780639010d07c1461056457806391d14854146105945780639eb356cb146105c45761027f565b80632f2ff15d14610432578063346c94091461044e57806336568abe1461046c5780634032b72b146104885780634e0e1a3e146104a45761027f565b806319006018116102475780631900601814610362578063194f2a361461037e578063248a9ca3146103ae57806329678756146103de57806329ce1ec5146103fa5780632c47669a146104165761027f565b806301ffc9a71461028457806304a0fb17146102b45780630f04ba67146102d2578063153a75901461030257806317d7e83314610332575b600080fd5b61029e600480360381019061029991906136c9565b610914565b6040516102ab9190613711565b60405180910390f35b6102bc61098e565b6040516102c99190613745565b60405180910390f35b6102ec60048036038101906102e791906137be565b6109b2565b6040516102f99190613711565b60405180910390f35b61031c60048036038101906103179190613967565b6109e5565b60405161032991906139d2565b60405180910390f35b61034c600480360381019061034791906139ed565b610a3d565b6040516103599190613ab5565b60405180910390f35b61037c60048036038101906103779190613c80565b610af6565b005b61039860048036038101906103939190613967565b610c20565b6040516103a59190613e77565b60405180910390f35b6103c860048036038101906103c39190613ec5565b610d29565b6040516103d59190613745565b60405180910390f35b6103f860048036038101906103f39190613fb5565b610d48565b005b610414600480360381019061040f91906137be565b610d79565b005b610430600480360381019061042b9190614054565b610db4565b005b61044c600480360381019061044791906140df565b610e33565b005b610456610e54565b6040516104639190613711565b60405180910390f35b610486600480360381019061048191906140df565b610eab565b005b6104a2600480360381019061049d91906137be565b610f2e565b005b6104be60048036038101906104b9919061411f565b610f86565b6040516104cb919061415b565b60405180910390f35b6104ee60048036038101906104e99190614176565b610f9e565b6040516104fb9190613ab5565b60405180910390f35b61051e60048036038101906105199190613967565b61107a565b60405161052b9190613e77565b60405180910390f35b61054e600480360381019061054991906139ed565b611183565b60405161055b919061415b565b60405180910390f35b61057e600480360381019061057991906141e5565b6111b4565b60405161058b91906139d2565b60405180910390f35b6105ae60048036038101906105a991906140df565b6111e3565b6040516105bb9190613711565b60405180910390f35b6105de60048036038101906105d99190614225565b61124d565b6040516105eb9190613711565b60405180910390f35b61060e6004803603810190610609919061411f565b6117e6565b005b610618611814565b6040516106259190613745565b60405180910390f35b6106486004803603810190610643919061411f565b61181b565b005b610664600480360381019061065f9190614278565b611849565b604051610671919061415b565b60405180910390f35b610694600480360381019061068f919061411f565b6119ad565b6040516106a1919061415b565b60405180910390f35b6106b26119c5565b6040516106bf9190613745565b60405180910390f35b6106d06119e9565b005b6106ec60048036038101906106e79190614176565b6119eb565b6040516106f99190613ab5565b60405180910390f35b61071c6004803603810190610717919061411f565b611ac7565b6040516107299190613e77565b60405180910390f35b61073a611bb3565b60405161074791906139d2565b60405180910390f35b61076a60048036038101906107659190613ec5565b611bdd565b604051610777919061415b565b60405180910390f35b610788611c01565b6040516107959190613745565b60405180910390f35b6107a6611c25565b6040516107b3919061415b565b60405180910390f35b6107c4611c2a565b005b6107e060048036038101906107db919061411f565b611d61565b6040516107ed919061415b565b60405180910390f35b610810600480360381019061080b919061411f565b611d79565b60405161081d9190614376565b60405180910390f35b610840600480360381019061083b91906140df565b611de4565b005b61085c600480360381019061085791906139ed565b611e05565b6040516108699190613ab5565b60405180910390f35b61088c60048036038101906108879190614398565b611eb2565b604051610899919061415b565b60405180910390f35b6108aa612072565b6040516108b79190613745565b60405180910390f35b6108da60048036038101906108d5919061411f565b612096565b005b6108f660048036038101906108f191906145e7565b6120ed565b005b610912600480360381019061090d9190614643565b61231f565b005b60007f5a05180f000000000000000000000000000000000000000000000000000000007bffffffffffffffffffffffffffffffffffffffffffffffffffffffff1916827bffffffffffffffffffffffffffffffffffffffffffffffffffffffff1916148061098757506109868261253b565b5b9050919050565b7fdfbefbf47cfe66b701d8cfdbce1de81c821590819cb07e71cb01b6602fb0ee2781565b60006109de7fdfbefbf47cfe66b701d8cfdbce1de81c821590819cb07e71cb01b6602fb0ee27836111e3565b9050919050565b6007602052816000526040600020818051602081018201805184825260208301602085012081835280955050505050506000915091509054906101000a900473ffffffffffffffffffffffffffffffffffffffff1681565b60066020528160005260406000208181548110610a5957600080fd5b90600052602060002001600091509150508054610a75906146e1565b80601f0160208091040260200160405190810160405280929190818152602001828054610aa1906146e1565b8015610aee5780601f10610ac357610100808354040283529160200191610aee565b820191906000526020600020905b815481529060010190602001808311610ad157829003601f168201915b505050505081565b7f1d93c87416ca7b54f0fb8323167b72760e8e2ec93d48660953897a150f97a8b4610b20816125b5565b8151845114610b64576040517f08c379a0000000000000000000000000000000000000000000000000000000008152600401610b5b9061475f565b60405180910390fd5b610b6f8686866125c9565b610bae576040517f08c379a0000000000000000000000000000000000000000000000000000000008152600401610ba5906147cb565b60405180910390fd5b610bb9868484612678565b610bf8576040517f08c379a0000000000000000000000000000000000000000000000000000000008152600401610bef90614837565b60405180910390fd5b60005b8451811015610c17578080610c0f90614886565b915050610bfb565b50505050505050565b60606008600084815260200190815260200160002082604051610c43919061490b565b9081526020016040518091039020805480602002602001604051908101604052809291908181526020016000905b82821015610d1d578382906000526020600020018054610c90906146e1565b80601f0160208091040260200160405190810160405280929190818152602001828054610cbc906146e1565b8015610d095780601f10610cde57610100808354040283529160200191610d09565b820191906000526020600020905b815481529060010190602001808311610cec57829003601f168201915b505050505081526020019060010190610c71565b50505050905092915050565b6000806000838152602001908152602001600020600101549050919050565b7f72b06b67826def9fabb513b23f7e5eb74f7ece26d25dad4006546ecf4a13763d610d72816125b5565b5050505050565b6000801b610d86816125b5565b610db07fdfbefbf47cfe66b701d8cfdbce1de81c821590819cb07e71cb01b6602fb0ee2783612727565b5050565b7f1d93c87416ca7b54f0fb8323167b72760e8e2ec93d48660953897a150f97a8b4610dde816125b5565b8251845114610e22576040517f08c379a0000000000000000000000000000000000000000000000000000000008152600401610e1990614994565b60405180910390fd5b610e2d848484612735565b50505050565b610e3c82610d29565b610e45816125b5565b610e4f83836128f0565b505050565b6000805b600380549050811015610ea757600060038281548110610e7b57610e7a6149b4565b5b906000526020600020015414610e945760019150610ea7565b8080610e9f90614886565b915050610e58565b5090565b610eb3612924565b73ffffffffffffffffffffffffffffffffffffffff168173ffffffffffffffffffffffffffffffffffffffff1614610f20576040517f08c379a0000000000000000000000000000000000000000000000000000000008152600401610f1790614a55565b60405180910390fd5b610f2a828261292c565b5050565b7f1d93c87416ca7b54f0fb8323167b72760e8e2ec93d48660953897a150f97a8b4610f58816125b5565b610f827fd017b644efdbb8827e313d7971462ef180dad8aa174c6fb8427f18caad304df783612727565b5050565b60046020528060005260406000206000915090505481565b6008602052826000526040600020828051602081018201805184825260208301602085012081835280955050505050508181548110610fdc57600080fd5b9060005260206000200160009250925050508054610ff9906146e1565b80601f0160208091040260200160405190810160405280929190818152602001828054611025906146e1565b80156110725780601f1061104757610100808354040283529160200191611072565b820191906000526020600020905b81548152906001019060200180831161105557829003601f168201915b505050505081565b6060600960008481526020019081526020016000208260405161109d919061490b565b9081526020016040518091039020805480602002602001604051908101604052809291908181526020016000905b828210156111775783829060005260206000200180546110ea906146e1565b80601f0160208091040260200160405190810160405280929190818152602001828054611116906146e1565b80156111635780601f1061113857610100808354040283529160200191611163565b820191906000526020600020905b81548152906001019060200180831161114657829003601f168201915b5050505050815260200190600101906110cb565b50505050905092915050565b600c602052816000526040600020818154811061119f57600080fd5b90600052602060002001600091509150505481565b60006111db826001600086815260200190815260200160002061296090919063ffffffff16565b905092915050565b600080600084815260200190815260200160002060000160008373ffffffffffffffffffffffffffffffffffffffff1673ffffffffffffffffffffffffffffffffffffffff16815260200190815260200160002060009054906101000a900460ff16905092915050565b600080600260009054906101000a900473ffffffffffffffffffffffffffffffffffffffff1673ffffffffffffffffffffffffffffffffffffffff1663bca7caa086866040518363ffffffff1660e01b81526004016112ad929190614a75565b602060405180830381865afa1580156112ca573d6000803e3d6000fd5b505050506040513d601f19601f820116820180604052508101906112ee9190614ab3565b90506000600b600087815260200190815260200160002060008381526020019081526020016000208054611321906146e1565b80601f016020809104026020016040519081016040528092919081815260200182805461134d906146e1565b801561139a5780601f1061136f5761010080835404028352916020019161139a565b820191906000526020600020905b81548152906001019060200180831161137d57829003601f168201915b50505050509050600060096000888152602001908152602001600020826040516113c4919061490b565b90815260200160405180910390208054905090506000811161141b576040517f08c379a000000000000000000000000000000000000000000000000000000000815260040161141290614b2c565b60405180910390fd5b6000935060006007600089815260200190815260200160002083604051611442919061490b565b908152602001604051809103902060009054906101000a900473ffffffffffffffffffffffffffffffffffffffff16905060008287116114825786611485565b60005b90506000600960008b8152602001908152602001600020856040516114aa919061490b565b908152602001604051809103902082815481106114ca576114c96149b4565b5b9060005260206000200180546114df906146e1565b80601f016020809104026020016040519081016040528092919081815260200182805461150b906146e1565b80156115585780601f1061152d57610100808354040283529160200191611558565b820191906000526020600020905b81548152906001019060200180831161153b57829003601f168201915b505050505090506000600760008c815260200190815260200160002082604051611582919061490b565b908152602001604051809103902060009054906101000a900473ffffffffffffffffffffffffffffffffffffffff1690508373ffffffffffffffffffffffffffffffffffffffff16637caf12808b8d896040518463ffffffff1660e01b81526004016115f093929190614b4c565b602060405180830381865afa15801561160d573d6000803e3d6000fd5b505050506040513d601f19601f820116820180604052508101906116319190614bb6565b80156116b757508073ffffffffffffffffffffffffffffffffffffffff1663e15b3ad08b8d856040518463ffffffff1660e01b815260040161167593929190614b4c565b602060405180830381865afa158015611692573d6000803e3d6000fd5b505050506040513d601f19601f820116820180604052508101906116b69190614bb6565b5b156117d8578373ffffffffffffffffffffffffffffffffffffffff166328d7e11a8b8d896040518463ffffffff1660e01b81526004016116f993929190614b4c565b600060405180830381600087803b15801561171357600080fd5b505af1158015611727573d6000803e3d6000fd5b505050508073ffffffffffffffffffffffffffffffffffffffff166398bd75728b8d856040518463ffffffff1660e01b815260040161176893929190614b4c565b600060405180830381600087803b15801561178257600080fd5b505af1158015611796573d6000803e3d6000fd5b5050505081600b60008d8152602001908152602001600020600089815260200190815260200160002090805190602001906117d29291906135ba565b50600197505b505050505050509392505050565b7fd017b644efdbb8827e313d7971462ef180dad8aa174c6fb8427f18caad304df7611810816125b5565b5050565b6000801b81565b7f72b06b67826def9fabb513b23f7e5eb74f7ece26d25dad4006546ecf4a13763d611845816125b5565b5050565b600061187c7fdfbefbf47cfe66b701d8cfdbce1de81c821590819cb07e71cb01b6602fb0ee27611877612924565b6111e3565b806118b457506118b37f1d93c87416ca7b54f0fb8323167b72760e8e2ec93d48660953897a150f97a8b46118ae612924565b6111e3565b5b6118f3576040517f08c379a00000000000000000000000000000000000000000000000000000000081526004016118ea90614c55565b60405180910390fd5b82600260006101000a81548173ffffffffffffffffffffffffffffffffffffffff021916908373ffffffffffffffffffffffffffffffffffffffff1602179055508173ffffffffffffffffffffffffffffffffffffffff16630a75806e6040518163ffffffff1660e01b81526004016020604051808303816000875af1158015611981573d6000803e3d6000fd5b505050506040513d601f19601f820116820180604052508101906119a59190614ab3565b905092915050565b600a6020528060005260406000206000915090505481565b7f1d93c87416ca7b54f0fb8323167b72760e8e2ec93d48660953897a150f97a8b481565b565b6009602052826000526040600020828051602081018201805184825260208301602085012081835280955050505050508181548110611a2957600080fd5b9060005260206000200160009250925050508054611a46906146e1565b80601f0160208091040260200160405190810160405280929190818152602001828054611a72906146e1565b8015611abf5780601f10611a9457610100808354040283529160200191611abf565b820191906000526020600020905b815481529060010190602001808311611aa257829003601f168201915b505050505081565b606060066000838152602001908152602001600020805480602002602001604051908101604052809291908181526020016000905b82821015611ba8578382906000526020600020018054611b1b906146e1565b80601f0160208091040260200160405190810160405280929190818152602001828054611b47906146e1565b8015611b945780601f10611b6957610100808354040283529160200191611b94565b820191906000526020600020905b815481529060010190602001808311611b7757829003601f168201915b505050505081526020019060010190611afc565b505050509050919050565b6000600260009054906101000a900473ffffffffffffffffffffffffffffffffffffffff16905090565b6000611bfa6001600084815260200190815260200160002061297a565b9050919050565b7f72b06b67826def9fabb513b23f7e5eb74f7ece26d25dad4006546ecf4a13763d81565b60c881565b7fd017b644efdbb8827e313d7971462ef180dad8aa174c6fb8427f18caad304df7611c54816125b5565b60008060005b600380549050811015611cc957600060038281548110611c7d57611c7c6149b4565b5b906000526020600020015414611cb65760038181548110611ca157611ca06149b4565b5b90600052602060002001549250809150611cc9565b8080611cc190614886565b915050611c5a565b50600060046000848152602001908152602001600020541415611cf457611cef8261298f565b611d1b565b600160046000848152602001908152602001600020541415611d1a57611d1982612a38565b5b5b600160046000848152602001908152602001600020541115611d5c57600060038281548110611d4d57611d4c6149b4565b5b90600052602060002001819055505b505050565b60056020528060005260406000206000915090505481565b6060600c6000838152602001908152602001600020805480602002602001604051908101604052809291908181526020018280548015611dd857602002820191906000526020600020905b815481526020019060010190808311611dc4575b50505050509050919050565b611ded82610d29565b611df6816125b5565b611e00838361292c565b505050565b600b602052816000526040600020602052806000526040600020600091509150508054611e31906146e1565b80601f0160208091040260200160405190810160405280929190818152602001828054611e5d906146e1565b8015611eaa5780601f10611e7f57610100808354040283529160200191611eaa565b820191906000526020600020905b815481529060010190602001808311611e8d57829003601f168201915b505050505081565b6000611ee57fdfbefbf47cfe66b701d8cfdbce1de81c821590819cb07e71cb01b6602fb0ee27611ee0612924565b6111e3565b80611f1d5750611f1c7f1d93c87416ca7b54f0fb8323167b72760e8e2ec93d48660953897a150f97a8b4611f17612924565b6111e3565b5b611f5c576040517f08c379a0000000000000000000000000000000000000000000000000000000008152600401611f5390614c55565b60405180910390fd5b8151835114611fa0576040517f08c379a0000000000000000000000000000000000000000000000000000000008152600401611f9790614994565b60405180910390fd5b600083511115611fb657611fb5838383612735565b5b84600260006101000a81548173ffffffffffffffffffffffffffffffffffffffff021916908373ffffffffffffffffffffffffffffffffffffffff1602179055508373ffffffffffffffffffffffffffffffffffffffff16630a75806e6040518163ffffffff1660e01b81526004016020604051808303816000875af1158015612044573d6000803e3d6000fd5b505050506040513d601f19601f820116820180604052508101906120689190614ab3565b9050949350505050565b7fd017b644efdbb8827e313d7971462ef180dad8aa174c6fb8427f18caad304df781565b7f1d93c87416ca7b54f0fb8323167b72760e8e2ec93d48660953897a150f97a8b46120c0816125b5565b60038290806001815401808255809150506001900390600052602060002001600090919091909150555050565b7f1d93c87416ca7b54f0fb8323167b72760e8e2ec93d48660953897a150f97a8b4612117816125b5565b6121218383612ddd565b612160576040517f08c379a000000000000000000000000000000000000000000000000000000000815260040161215790614cc1565b60405180910390fd5b60005b82518110156123195760096000858152602001908152602001600020838281518110612192576121916149b4565b5b60200260200101516000600281106121ad576121ac6149b4565b5b60200201516040516121bf919061490b565b90815260200160405180910390208382815181106121e0576121df6149b4565b5b60200260200101516001600281106121fb576121fa6149b4565b5b60200201519080600181540180825580915050600190039060005260206000200160009091909190915090805190602001906122389291906135ba565b506008600085815260200190815260200160002083828151811061225f5761225e6149b4565b5b602002602001015160016002811061227a576122796149b4565b5b602002015160405161228c919061490b565b90815260200160405180910390208382815181106122ad576122ac6149b4565b5b60200260200101516000600281106122c8576122c76149b4565b5b60200201519080600181540180825580915050600190039060005260206000200160009091909190915090805190602001906123059291906135ba565b50808061231190614886565b915050612163565b50505050565b7f72b06b67826def9fabb513b23f7e5eb74f7ece26d25dad4006546ecf4a13763d612349816125b5565b6000600260009054906101000a900473ffffffffffffffffffffffffffffffffffffffff1673ffffffffffffffffffffffffffffffffffffffff1663bca7caa086866040518363ffffffff1660e01b81526004016123a8929190614a75565b602060405180830381865afa1580156123c5573d6000803e3d6000fd5b505050506040513d601f19601f820116820180604052508101906123e99190614ab3565b905082600b6000878152602001908152602001600020600083815260200190815260200160002090805190602001906124239291906135ba565b505050505050565b61243582826111e3565b61250757600160008084815260200190815260200160002060000160008373ffffffffffffffffffffffffffffffffffffffff1673ffffffffffffffffffffffffffffffffffffffff16815260200190815260200160002060006101000a81548160ff0219169083151502179055506124ac612924565b73ffffffffffffffffffffffffffffffffffffffff168173ffffffffffffffffffffffffffffffffffffffff16837f2f8788117e7eff1d82e926ec794901d17c78024a50270940304540a733656f0d60405160405180910390a45b5050565b6000612533836000018373ffffffffffffffffffffffffffffffffffffffff1660001b612f83565b905092915050565b60007f7965db0b000000000000000000000000000000000000000000000000000000007bffffffffffffffffffffffffffffffffffffffffffffffffffffffff1916827bffffffffffffffffffffffffffffffffffffffffffffffffffffffff191614806125ae57506125ad82612ff3565b5b9050919050565b6125c6816125c1612924565b61305d565b50565b60006001905060005b82518110156126705760018382815181106125f0576125ef6149b4565b5b60200260200101516126029190614ce1565b60086000878152602001908152602001600020858381518110612628576126276149b4565b5b602002602001015160405161263d919061490b565b9081526020016040518091039020805490501061265d5760009150612670565b808061266890614886565b9150506125d2565b509392505050565b60006001905060005b825181101561271f57600183828151811061269f5761269e6149b4565b5b60200260200101516126b19190614ce1565b600960008781526020019081526020016000208583815181106126d7576126d66149b4565b5b60200260200101516040516126ec919061490b565b9081526020016040518091039020805490501061270c576000915061271f565b808061271790614886565b915050612681565b509392505050565b61273182826128f0565b5050565b60005b83518110156128ea5760066000838152602001908152602001600020838281518110612767576127666149b4565b5b60200260200101519080600181540180825580915050600190039060005260206000200160009091909190915090805190602001906127a79291906135ba565b508381815181106127bb576127ba6149b4565b5b6020026020010151600760008481526020019081526020016000208483815181106127e9576127e86149b4565b5b60200260200101516040516127fe919061490b565b908152602001604051809103902060006101000a81548173ffffffffffffffffffffffffffffffffffffffff021916908373ffffffffffffffffffffffffffffffffffffffff16021790555061288e7f72b06b67826def9fabb513b23f7e5eb74f7ece26d25dad4006546ecf4a13763d858381518110612881576128806149b4565b5b60200260200101516111e3565b6128d7576128d67f72b06b67826def9fabb513b23f7e5eb74f7ece26d25dad4006546ecf4a13763d8583815181106128c9576128c86149b4565b5b6020026020010151612727565b5b80806128e290614886565b915050612738565b50505050565b6128fa828261242b565b61291f816001600085815260200190815260200160002061250b90919063ffffffff16565b505050565b600033905090565b61293682826130fa565b61295b81600160008581526020019081526020016000206131db90919063ffffffff16565b505050565b600061296f836000018361320b565b60001c905092915050565b600061298882600001613236565b9050919050565b600260009054906101000a900473ffffffffffffffffffffffffffffffffffffffff1673ffffffffffffffffffffffffffffffffffffffff166360c20500826040518263ffffffff1660e01b81526004016129ea919061415b565b600060405180830381600087803b158015612a0457600080fd5b505af1158015612a18573d6000803e3d6000fd5b505050506001600460008381526020019081526020016000208190555050565b60006007600083815260200190815260200160002060066000848152602001908152602001600020600081548110612a7357612a726149b4565b5b90600052602060002001604051612a8a9190614dcb565b908152602001604051809103902060009054906101000a900473ffffffffffffffffffffffffffffffffffffffff169050600081905060005b600260009054906101000a900473ffffffffffffffffffffffffffffffffffffffff1673ffffffffffffffffffffffffffffffffffffffff1663b77ff411856040518263ffffffff1660e01b8152600401612b1e919061415b565b602060405180830381865afa158015612b3b573d6000803e3d6000fd5b505050506040513d601f19601f82011682018060405250810190612b5f9190614ab3565b811015612dbe576000600182612b759190614ce1565b90506000600260009054906101000a900473ffffffffffffffffffffffffffffffffffffffff1673ffffffffffffffffffffffffffffffffffffffff1663f504325487846040518363ffffffff1660e01b8152600401612bd6929190614de2565b602060405180830381865afa158015612bf3573d6000803e3d6000fd5b505050506040513d601f19601f82011682018060405250810190612c179190614e20565b90508373ffffffffffffffffffffffffffffffffffffffff1663e15b3ad08288600660008b8152602001908152602001600020600081548110612c5d57612c5c6149b4565b5b906000526020600020016040518463ffffffff1660e01b8152600401612c8593929190614ecd565b602060405180830381865afa158015612ca2573d6000803e3d6000fd5b505050506040513d601f19601f82011682018060405250810190612cc69190614bb6565b15612d6e578373ffffffffffffffffffffffffffffffffffffffff166398bd75728288600660008b8152602001908152602001600020600081548110612d0f57612d0e6149b4565b5b906000526020600020016040518463ffffffff1660e01b8152600401612d3793929190614ecd565b600060405180830381600087803b158015612d5157600080fd5b505af1158015612d65573d6000803e3d6000fd5b50505050612da9565b600c60008781526020019081526020016000208290806001815401808255809150506001900390600052602060002001600090919091909150555b50508080612db690614886565b915050612ac3565b5060026004600085815260200190815260200160002081905550505050565b600080600090505b8251811015612f7c5760019150600073ffffffffffffffffffffffffffffffffffffffff1660076000868152602001908152602001600020848381518110612e3057612e2f6149b4565b5b6020026020010151600060028110612e4b57612e4a6149b4565b5b6020020151604051612e5d919061490b565b908152602001604051809103902060009054906101000a900473ffffffffffffffffffffffffffffffffffffffff1673ffffffffffffffffffffffffffffffffffffffff161480612f5b5750600073ffffffffffffffffffffffffffffffffffffffff1660076000868152602001908152602001600020848381518110612ee757612ee66149b4565b5b6020026020010151600160028110612f0257612f016149b4565b5b6020020151604051612f14919061490b565b908152602001604051809103902060009054906101000a900473ffffffffffffffffffffffffffffffffffffffff1673ffffffffffffffffffffffffffffffffffffffff16145b15612f695760009150612f7c565b8080612f7490614886565b915050612de5565b5092915050565b6000612f8f8383613247565b612fe8578260000182908060018154018082558091505060019003906000526020600020016000909190919091505582600001805490508360010160008481526020019081526020016000208190555060019050612fed565b600090505b92915050565b60007f01ffc9a7000000000000000000000000000000000000000000000000000000007bffffffffffffffffffffffffffffffffffffffffffffffffffffffff1916827bffffffffffffffffffffffffffffffffffffffffffffffffffffffff1916149050919050565b61306782826111e3565b6130f65761308c8173ffffffffffffffffffffffffffffffffffffffff16601461326a565b61309a8360001c602061326a565b6040516020016130ab929190614fa3565b6040516020818303038152906040526040517f08c379a00000000000000000000000000000000000000000000000000000000081526004016130ed9190613ab5565b60405180910390fd5b5050565b61310482826111e3565b156131d757600080600084815260200190815260200160002060000160008373ffffffffffffffffffffffffffffffffffffffff1673ffffffffffffffffffffffffffffffffffffffff16815260200190815260200160002060006101000a81548160ff02191690831515021790555061317c612924565b73ffffffffffffffffffffffffffffffffffffffff168173ffffffffffffffffffffffffffffffffffffffff16837ff6391f5c32d9c69d2a47ea670b442974b53935d1edc7fd64eb21e047a839171b60405160405180910390a45b5050565b6000613203836000018373ffffffffffffffffffffffffffffffffffffffff1660001b6134a6565b905092915050565b6000826000018281548110613223576132226149b4565b5b9060005260206000200154905092915050565b600081600001805490509050919050565b600080836001016000848152602001908152602001600020541415905092915050565b60606000600283600261327d9190614fdd565b6132879190614ce1565b67ffffffffffffffff8111156132a05761329f61383c565b5b6040519080825280601f01601f1916602001820160405280156132d25781602001600182028036833780820191505090505b5090507f30000000000000000000000000000000000000000000000000000000000000008160008151811061330a576133096149b4565b5b60200101907effffffffffffffffffffffffffffffffffffffffffffffffffffffffffffff1916908160001a9053507f78000000000000000000000000000000000000000000000000000000000000008160018151811061336e5761336d6149b4565b5b60200101907effffffffffffffffffffffffffffffffffffffffffffffffffffffffffffff1916908160001a905350600060018460026133ae9190614fdd565b6133b89190614ce1565b90505b6001811115613458577f3031323334353637383961626364656600000000000000000000000000000000600f8616601081106133fa576133f96149b4565b5b1a60f81b828281518110613411576134106149b4565b5b60200101907effffffffffffffffffffffffffffffffffffffffffffffffffffffffffffff1916908160001a905350600485901c94508061345190615037565b90506133bb565b506000841461349c576040517f08c379a0000000000000000000000000000000000000000000000000000000008152600401613493906150ad565b60405180910390fd5b8091505092915050565b600080836001016000848152602001908152602001600020549050600081146135ae5760006001826134d891906150cd565b90506000600186600001805490506134f091906150cd565b905081811461355f576000866000018281548110613511576135106149b4565b5b9060005260206000200154905080876000018481548110613535576135346149b4565b5b90600052602060002001819055508387600101600083815260200190815260200160002081905550505b8560000180548061357357613572615101565b5b6001900381819060005260206000200160009055905585600101600086815260200190815260200160002060009055600193505050506135b4565b60009150505b92915050565b8280546135c6906146e1565b90600052602060002090601f0160209004810192826135e8576000855561362f565b82601f1061360157805160ff191683800117855561362f565b8280016001018555821561362f579182015b8281111561362e578251825591602001919060010190613613565b5b50905061363c9190613640565b5090565b5b80821115613659576000816000905550600101613641565b5090565b6000604051905090565b600080fd5b600080fd5b60007fffffffff0000000000000000000000000000000000000000000000000000000082169050919050565b6136a681613671565b81146136b157600080fd5b50565b6000813590506136c38161369d565b92915050565b6000602082840312156136df576136de613667565b5b60006136ed848285016136b4565b91505092915050565b60008115159050919050565b61370b816136f6565b82525050565b60006020820190506137266000830184613702565b92915050565b6000819050919050565b61373f8161372c565b82525050565b600060208201905061375a6000830184613736565b92915050565b600073ffffffffffffffffffffffffffffffffffffffff82169050919050565b600061378b82613760565b9050919050565b61379b81613780565b81146137a657600080fd5b50565b6000813590506137b881613792565b92915050565b6000602082840312156137d4576137d3613667565b5b60006137e2848285016137a9565b91505092915050565b6000819050919050565b6137fe816137eb565b811461380957600080fd5b50565b60008135905061381b816137f5565b92915050565b600080fd5b600080fd5b6000601f19601f8301169050919050565b7f4e487b7100000000000000000000000000000000000000000000000000000000600052604160045260246000fd5b6138748261382b565b810181811067ffffffffffffffff821117156138935761389261383c565b5b80604052505050565b60006138a661365d565b90506138b2828261386b565b919050565b600067ffffffffffffffff8211156138d2576138d161383c565b5b6138db8261382b565b9050602081019050919050565b82818337600083830152505050565b600061390a613905846138b7565b61389c565b90508281526020810184848401111561392657613925613826565b5b6139318482856138e8565b509392505050565b600082601f83011261394e5761394d613821565b5b813561395e8482602086016138f7565b91505092915050565b6000806040838503121561397e5761397d613667565b5b600061398c8582860161380c565b925050602083013567ffffffffffffffff8111156139ad576139ac61366c565b5b6139b985828601613939565b9150509250929050565b6139cc81613780565b82525050565b60006020820190506139e760008301846139c3565b92915050565b60008060408385031215613a0457613a03613667565b5b6000613a128582860161380c565b9250506020613a238582860161380c565b9150509250929050565b600081519050919050565b600082825260208201905092915050565b60005b83811015613a67578082015181840152602081019050613a4c565b83811115613a76576000848401525b50505050565b6000613a8782613a2d565b613a918185613a38565b9350613aa1818560208601613a49565b613aaa8161382b565b840191505092915050565b60006020820190508181036000830152613acf8184613a7c565b905092915050565b600067ffffffffffffffff821115613af257613af161383c565b5b602082029050602081019050919050565b600080fd5b6000613b1b613b1684613ad7565b61389c565b90508083825260208201905060208402830185811115613b3e57613b3d613b03565b5b835b81811015613b8557803567ffffffffffffffff811115613b6357613b62613821565b5b808601613b708982613939565b85526020850194505050602081019050613b40565b5050509392505050565b600082601f830112613ba457613ba3613821565b5b8135613bb4848260208601613b08565b91505092915050565b600067ffffffffffffffff821115613bd857613bd761383c565b5b602082029050602081019050919050565b6000613bfc613bf784613bbd565b61389c565b90508083825260208201905060208402830185811115613c1f57613c1e613b03565b5b835b81811015613c485780613c34888261380c565b845260208401935050602081019050613c21565b5050509392505050565b600082601f830112613c6757613c66613821565b5b8135613c77848260208601613be9565b91505092915050565b600080600080600060a08688031215613c9c57613c9b613667565b5b6000613caa8882890161380c565b955050602086013567ffffffffffffffff811115613ccb57613cca61366c565b5b613cd788828901613b8f565b945050604086013567ffffffffffffffff811115613cf857613cf761366c565b5b613d0488828901613c52565b935050606086013567ffffffffffffffff811115613d2557613d2461366c565b5b613d3188828901613b8f565b925050608086013567ffffffffffffffff811115613d5257613d5161366c565b5b613d5e88828901613c52565b9150509295509295909350565b600081519050919050565b600082825260208201905092915050565b6000819050602082019050919050565b600082825260208201905092915050565b6000613db382613a2d565b613dbd8185613d97565b9350613dcd818560208601613a49565b613dd68161382b565b840191505092915050565b6000613ded8383613da8565b905092915050565b6000602082019050919050565b6000613e0d82613d6b565b613e178185613d76565b935083602082028501613e2985613d87565b8060005b85811015613e655784840389528151613e468582613de1565b9450613e5183613df5565b925060208a01995050600181019050613e2d565b50829750879550505050505092915050565b60006020820190508181036000830152613e918184613e02565b905092915050565b613ea28161372c565b8114613ead57600080fd5b50565b600081359050613ebf81613e99565b92915050565b600060208284031215613edb57613eda613667565b5b6000613ee984828501613eb0565b91505092915050565b600067ffffffffffffffff821115613f0d57613f0c61383c565b5b602082029050602081019050919050565b6000613f31613f2c84613ef2565b61389c565b90508083825260208201905060208402830185811115613f5457613f53613b03565b5b835b81811015613f7d5780613f6988826137a9565b845260208401935050602081019050613f56565b5050509392505050565b600082601f830112613f9c57613f9b613821565b5b8135613fac848260208601613f1e565b91505092915050565b60008060008060808587031215613fcf57613fce613667565b5b6000613fdd8782880161380c565b945050602085013567ffffffffffffffff811115613ffe57613ffd61366c565b5b61400a87828801613f87565b935050604085013567ffffffffffffffff81111561402b5761402a61366c565b5b61403787828801613c52565b92505060606140488782880161380c565b91505092959194509250565b60008060006060848603121561406d5761406c613667565b5b600084013567ffffffffffffffff81111561408b5761408a61366c565b5b61409786828701613f87565b935050602084013567ffffffffffffffff8111156140b8576140b761366c565b5b6140c486828701613b8f565b92505060406140d58682870161380c565b9150509250925092565b600080604083850312156140f6576140f5613667565b5b600061410485828601613eb0565b9250506020614115858286016137a9565b9150509250929050565b60006020828403121561413557614134613667565b5b60006141438482850161380c565b91505092915050565b614155816137eb565b82525050565b6000602082019050614170600083018461414c565b92915050565b60008060006060848603121561418f5761418e613667565b5b600061419d8682870161380c565b935050602084013567ffffffffffffffff8111156141be576141bd61366c565b5b6141ca86828701613939565b92505060406141db8682870161380c565b9150509250925092565b600080604083850312156141fc576141fb613667565b5b600061420a85828601613eb0565b925050602061421b8582860161380c565b9150509250929050565b60008060006060848603121561423e5761423d613667565b5b600061424c8682870161380c565b935050602061425d868287016137a9565b925050604061426e8682870161380c565b9150509250925092565b6000806040838503121561428f5761428e613667565b5b600061429d858286016137a9565b92505060206142ae858286016137a9565b9150509250929050565b600081519050919050565b600082825260208201905092915050565b6000819050602082019050919050565b6142ed816137eb565b82525050565b60006142ff83836142e4565b60208301905092915050565b6000602082019050919050565b6000614323826142b8565b61432d81856142c3565b9350614338836142d4565b8060005b8381101561436957815161435088826142f3565b975061435b8361430b565b92505060018101905061433c565b5085935050505092915050565b600060208201905081810360008301526143908184614318565b905092915050565b600080600080608085870312156143b2576143b1613667565b5b60006143c0878288016137a9565b94505060206143d1878288016137a9565b935050604085013567ffffffffffffffff8111156143f2576143f161366c565b5b6143fe87828801613f87565b925050606085013567ffffffffffffffff81111561441f5761441e61366c565b5b61442b87828801613b8f565b91505092959194509250565b600067ffffffffffffffff8211156144525761445161383c565b5b602082029050602081019050919050565b600067ffffffffffffffff82111561447e5761447d61383c565b5b602082029050919050565b600061449c61449784614463565b61389c565b905080602084028301858111156144b6576144b5613b03565b5b835b818110156144fd57803567ffffffffffffffff8111156144db576144da613821565b5b8086016144e88982613939565b855260208501945050506020810190506144b8565b5050509392505050565b600082601f83011261451c5761451b613821565b5b6002614529848285614489565b91505092915050565b600061454561454084614437565b61389c565b9050808382526020820190506020840283018581111561456857614567613b03565b5b835b818110156145af57803567ffffffffffffffff81111561458d5761458c613821565b5b80860161459a8982614507565b8552602085019450505060208101905061456a565b5050509392505050565b600082601f8301126145ce576145cd613821565b5b81356145de848260208601614532565b91505092915050565b600080604083850312156145fe576145fd613667565b5b600061460c8582860161380c565b925050602083013567ffffffffffffffff81111561462d5761462c61366c565b5b614639858286016145b9565b9150509250929050565b60008060006060848603121561465c5761465b613667565b5b600061466a8682870161380c565b935050602061467b868287016137a9565b925050604084013567ffffffffffffffff81111561469c5761469b61366c565b5b6146a886828701613939565b9150509250925092565b7f4e487b7100000000000000000000000000000000000000000000000000000000600052602260045260246000fd5b600060028204905060018216806146f957607f821691505b6020821081141561470d5761470c6146b2565b5b50919050565b7f696e70757473202f206f757470757473206c656e677468206d69736d61746368600082015250565b6000614749602083613a38565b915061475482614713565b602082019050919050565b600060208201905081810360008301526147788161473c565b9050919050565b7f696e7075747320696e76616c6964000000000000000000000000000000000000600082015250565b60006147b5600e83613a38565b91506147c08261477f565b602082019050919050565b600060208201905081810360008301526147e4816147a8565b9050919050565b7f6f75747075747320696e76616c69640000000000000000000000000000000000600082015250565b6000614821600f83613a38565b915061482c826147eb565b602082019050919050565b6000602082019050818103600083015261485081614814565b9050919050565b7f4e487b7100000000000000000000000000000000000000000000000000000000600052601160045260246000fd5b6000614891826137eb565b91507fffffffffffffffffffffffffffffffffffffffffffffffffffffffffffffffff8214156148c4576148c3614857565b5b600182019050919050565b600081905092915050565b60006148e582613a2d565b6148ef81856148cf565b93506148ff818560208601613a49565b80840191505092915050565b600061491782846148da565b915081905092915050565b7f616464726573736573202620616c696173657320646966666572656e74206c6560008201527f6e67746873000000000000000000000000000000000000000000000000000000602082015250565b600061497e602583613a38565b915061498982614922565b604082019050919050565b600060208201905081810360008301526149ad81614971565b9050919050565b7f4e487b7100000000000000000000000000000000000000000000000000000000600052603260045260246000fd5b7f416363657373436f6e74726f6c3a2063616e206f6e6c792072656e6f756e636560008201527f20726f6c657320666f722073656c660000000000000000000000000000000000602082015250565b6000614a3f602f83613a38565b9150614a4a826149e3565b604082019050919050565b60006020820190508181036000830152614a6e81614a32565b9050919050565b6000604082019050614a8a600083018561414c565b614a9760208301846139c3565b9392505050565b600081519050614aad816137f5565b92915050565b600060208284031215614ac957614ac8613667565b5b6000614ad784828501614a9e565b91505092915050565b7f4e6f206578697420706174687320617661696c61626c65000000000000000000600082015250565b6000614b16601783613a38565b9150614b2182614ae0565b602082019050919050565b60006020820190508181036000830152614b4581614b09565b9050919050565b6000606082019050614b6160008301866139c3565b614b6e602083018561414c565b8181036040830152614b808184613a7c565b9050949350505050565b614b93816136f6565b8114614b9e57600080fd5b50565b600081519050614bb081614b8a565b92915050565b600060208284031215614bcc57614bcb613667565b5b6000614bda84828501614ba1565b91505092915050565b7f47616d65204d6173746572206f7220466163746f727920726f6c65207265717560008201527f6972656400000000000000000000000000000000000000000000000000000000602082015250565b6000614c3f602483613a38565b9150614c4a82614be3565b604082019050919050565b60006020820190508181036000830152614c6e81614c32565b9050919050565b7f6e6f7420616c6c207a6f6e6520696e64656365732076616c6964000000000000600082015250565b6000614cab601a83613a38565b9150614cb682614c75565b602082019050919050565b60006020820190508181036000830152614cda81614c9e565b9050919050565b6000614cec826137eb565b9150614cf7836137eb565b9250827fffffffffffffffffffffffffffffffffffffffffffffffffffffffffffffffff03821115614d2c57614d2b614857565b5b828201905092915050565b60008190508160005260206000209050919050565b60008154614d59816146e1565b614d6381866148cf565b94506001821660008114614d7e5760018114614d8f57614dc2565b60ff19831686528186019350614dc2565b614d9885614d37565b60005b83811015614dba57815481890152600182019150602081019050614d9b565b838801955050505b50505092915050565b6000614dd78284614d4c565b915081905092915050565b6000604082019050614df7600083018561414c565b614e04602083018461414c565b9392505050565b600081519050614e1a81613792565b92915050565b600060208284031215614e3657614e35613667565b5b6000614e4484828501614e0b565b91505092915050565b60008154614e5a816146e1565b614e648186613a38565b94506001821660008114614e7f5760018114614e9157614ec4565b60ff1983168652602086019350614ec4565b614e9a85614d37565b60005b83811015614ebc57815481890152600182019150602081019050614e9d565b808801955050505b50505092915050565b6000606082019050614ee260008301866139c3565b614eef602083018561414c565b8181036040830152614f018184614e4d565b9050949350505050565b7f416363657373436f6e74726f6c3a206163636f756e7420000000000000000000600082015250565b6000614f416017836148cf565b9150614f4c82614f0b565b601782019050919050565b7f206973206d697373696e6720726f6c6520000000000000000000000000000000600082015250565b6000614f8d6011836148cf565b9150614f9882614f57565b601182019050919050565b6000614fae82614f34565b9150614fba82856148da565b9150614fc582614f80565b9150614fd182846148da565b91508190509392505050565b6000614fe8826137eb565b9150614ff3836137eb565b9250817fffffffffffffffffffffffffffffffffffffffffffffffffffffffffffffffff048311821515161561502c5761502b614857565b5b828202905092915050565b6000615042826137eb565b9150600082141561505657615055614857565b5b600182039050919050565b7f537472696e67733a20686578206c656e67746820696e73756666696369656e74600082015250565b6000615097602083613a38565b91506150a282615061565b602082019050919050565b600060208201905081810360008301526150c68161508a565b9050919050565b60006150d8826137eb565b91506150e3836137eb565b9250828210156150f6576150f5614857565b5b828203905092915050565b7f4e487b7100000000000000000000000000000000000000000000000000000000600052603160045260246000fdfea264697066735822122081e608ab53bff23694904e2d15d5382c0d6d99ac2fba146797ba127e96c8edd864736f6c634300080b0033",
  "immutableReferences": {},
  "source": "// SPDX-License-Identifier: GPL-3.0\n\npragma solidity >=0.7.0 <0.9.0;\n\nimport \"@openzeppelin/contracts/access/AccessControlEnumerable.sol\";\nimport \"@openzeppelin/contracts/utils/Counters.sol\";\nimport \"./PlayerRegistry.sol\";\nimport \"./GameRegistry.sol\";\nimport \"./PlayZone.sol\";\n\ncontract GameBoard is AccessControlEnumerable {\n    using Counters for Counters.Counter;\n    bytes32 public constant GAME_MASTER_ROLE = keccak256(\"GAME_MASTER_ROLE\");\n    bytes32 public constant GAME_KEEPER_ROLE = keccak256(\"GAME_KEEPER_ROLE\");\n    bytes32 public constant FACTORY_ROLE = keccak256(\"FACTORY_ROLE\");\n    bytes32 public constant PLAY_ZONE_ROLE = keccak256(\"PLAY_ZONE_ROLE\");\n    PlayerRegistry internal PLAYER_REGISTRY;\n\n    uint256 public constant MAX_BATCH_SIZE = 200;\n\n    uint256[] private _gamesNeedUpdates;\n\n    // Mappings from GameID\n    mapping(uint256 => uint256) public gameState; // 0 = start, 1=continue initializing, 2=initialized\n    mapping(uint256 => uint256) public lastEntryPlayerID;\n    // Play zones + connections\n    // playZones[gameID] = array of play zone addresses\n    // TODO:\n    // make sure these aliases work instead of addresses\n    mapping(uint256 => string[]) public playZones;\n    mapping(uint256 => mapping(string => address)) public zoneAlias; // returns address of zone alias\n    // playZoneInputs[gameID][zone alias] = array of inputs for given zone\n    mapping(uint256 => mapping(string => string[])) public playZoneInputs;\n    // playZoneOutputs[gameID][zone alias] = array of outputs for given zone\n    mapping(uint256 => mapping(string => string[])) public playZoneOutputs;\n\n    // Player Registry\n    // playerRegistry[gameID] = player registry ID for game\n    mapping(uint256 => uint256) public playerRegistry;\n\n    // Player positions\n    // currentPlayZone[gameID][playerID] = alias of zone (playZones[gameID]) player is in\n    mapping(uint256 => mapping(uint256 => string)) public currentPlayZone;\n    mapping(uint256 => uint256[]) public entryQueue; //overflow if playzone 0 cannot be entered\n\n    modifier onlyFactoryGM() {\n        require(\n            hasRole(FACTORY_ROLE, _msgSender()) ||\n                hasRole(GAME_MASTER_ROLE, _msgSender()),\n            \"Game Master or Factory role required\"\n        );\n        _;\n    }\n\n    constructor(address adminAddress) {\n        // Admin set as game master\n        // Can revoke role if desired\n        _setupRole(DEFAULT_ADMIN_ROLE, adminAddress);\n        _setupRole(GAME_MASTER_ROLE, adminAddress);\n    }\n\n    function prAddress() public view returns (address) {\n        return address(PLAYER_REGISTRY);\n    }\n\n    function createGame(\n        address _playerRegistry,\n        address _gameRegistry,\n        address[] memory playZoneAddresses,\n        string[] memory zoneAliases\n    ) public onlyFactoryGM returns (uint256 gameID) {\n        require(\n            playZoneAddresses.length == zoneAliases.length,\n            \"addresses & aliases different lengths\"\n        );\n        // first play zone is default / entry point\n        if (playZoneAddresses.length > 0) {\n            _addZones(playZoneAddresses, zoneAliases, gameID);\n        }\n        PLAYER_REGISTRY = PlayerRegistry(_playerRegistry);\n        gameID = GameRegistry(_gameRegistry).registerGame();\n    }\n\n    function createGame(address _playerRegistry, address _gameRegistry)\n        public\n        onlyFactoryGM\n        returns (uint256 gameID)\n    {\n        PLAYER_REGISTRY = PlayerRegistry(_playerRegistry);\n        gameID = GameRegistry(_gameRegistry).registerGame();\n    }\n\n    function addFactory(address factoryAddress)\n        public\n        onlyRole(DEFAULT_ADMIN_ROLE)\n    {\n        _setupRole(FACTORY_ROLE, factoryAddress);\n    }\n\n    function isFactory(address factoryAddress)\n        public\n        view\n        returns (bool factoryIsAuthorized)\n    {\n        factoryIsAuthorized = hasRole(FACTORY_ROLE, factoryAddress);\n    }\n\n    // adds zones to be used in game, only add 1 per address, use aliases for zone variations\n    function addZones(\n        address[] memory playZoneAddresses,\n        string[] memory zoneAliases,\n        uint256 gameID\n    ) public onlyRole(GAME_MASTER_ROLE) {\n        require(\n            playZoneAddresses.length == zoneAliases.length,\n            \"addresses & aliases different lengths\"\n        );\n        _addZones(playZoneAddresses, zoneAliases, gameID);\n    }\n\n    function _addZones(\n        address[] memory playZoneAddresses,\n        string[] memory zoneAliases,\n        uint256 gameID\n    ) internal {\n        for (uint256 i = 0; i < playZoneAddresses.length; i++) {\n            playZones[gameID].push(zoneAliases[i]);\n            zoneAlias[gameID][zoneAliases[i]] = playZoneAddresses[i];\n            if (!hasRole(PLAY_ZONE_ROLE, playZoneAddresses[i])) {\n                _setupRole(PLAY_ZONE_ROLE, playZoneAddresses[i]);\n            }\n        }\n    }\n\n    function addKeeper(address keeperAddress)\n        public\n        onlyRole(GAME_MASTER_ROLE)\n    {\n        _setupRole(GAME_KEEPER_ROLE, keeperAddress);\n    }\n\n    function startGame(uint256 gameID) public onlyRole(GAME_MASTER_ROLE) {\n        // lock registration\n        //_startGameInit(gameID);\n        // set needs loop\n        _gamesNeedUpdates.push(gameID);\n    }\n\n    function needsUpdate() public view returns (bool doesNeedUpdate) {\n        doesNeedUpdate = false;\n        for (uint256 i = 0; i < _gamesNeedUpdates.length; i++) {\n            if (_gamesNeedUpdates[i] != 0) {\n                doesNeedUpdate = true;\n                break;\n            }\n        }\n    }\n\n    function runUpdate() public onlyRole(GAME_KEEPER_ROLE) {\n        uint256 gameToUpdate;\n        uint256 gameIndex;\n        for (uint256 i = 0; i < _gamesNeedUpdates.length; i++) {\n            if (_gamesNeedUpdates[i] != 0) {\n                gameToUpdate = _gamesNeedUpdates[i];\n                gameIndex = i;\n                break;\n            }\n        }\n        // get state of game\n        if (gameState[gameToUpdate] == 0) {\n            _startGameInit(gameToUpdate);\n        } else if (gameState[gameToUpdate] == 1) {\n            _continueGameInit(gameToUpdate);\n        }\n        // state might be updated now\n        if (gameState[gameToUpdate] > 1) {\n            _gamesNeedUpdates[gameIndex] = 0;\n        }\n        // otherwise everything is set and should be okay...\n        // TODO:\n        // check transit groups once those are enabled\n    }\n\n    function cleanQueue() public {\n        // remove 0s from queue\n    }\n\n    // game state // 0 start game, 1 continue init, 2 initialized\n    function _startGameInit(uint256 gameID) internal {\n        PLAYER_REGISTRY.lockRegistration(gameID);\n        gameState[gameID] = 1;\n    }\n\n    function _continueGameInit(uint256 gameID) internal {\n        address zoneAddress = zoneAlias[gameID][playZones[gameID][0]];\n        PlayZone pz = PlayZone(zoneAddress);\n\n        for (\n            uint256 i = 0;\n            i < PLAYER_REGISTRY.totalRegistrations(gameID);\n            i++\n        ) {\n            uint256 playerID = i + 1;\n            address playerAddress = PLAYER_REGISTRY.playerAddress(\n                gameID,\n                playerID\n            );\n            if (\n                pz.playerCanEnter(playerAddress, gameID, playZones[gameID][0])\n            ) {\n                pz.enterPlayer(playerAddress, gameID, playZones[gameID][0]);\n            } else {\n                entryQueue[gameID].push(playerID);\n            }\n        }\n\n        gameState[gameID] = 2;\n    }\n\n    function getOverflowQueue(uint256 gameID)\n        public\n        view\n        returns (uint256[] memory)\n    {\n        return entryQueue[gameID];\n    }\n\n    function getPlayZones(uint256 gameID)\n        public\n        view\n        returns (string[] memory)\n    {\n        return playZones[gameID];\n    }\n\n    function getInputs(uint256 gameID, string memory _zoneAlias)\n        public\n        view\n        returns (string[] memory zoneInputs)\n    {\n        zoneInputs = playZoneInputs[gameID][_zoneAlias];\n    }\n\n    function getOutputs(uint256 gameID, string memory _zoneAlias)\n        public\n        view\n        returns (string[] memory zoneOutputs)\n    {\n        zoneOutputs = playZoneOutputs[gameID][_zoneAlias];\n    }\n\n    function addZoneConnections(uint256 gameID, string[2][] memory connections)\n        public\n        onlyRole(GAME_MASTER_ROLE)\n    {\n        // connections = [from zone alias, to zone alias]\n        require(\n            connectionZonesValid(gameID, connections),\n            \"not all zone indeces valid\"\n        );\n        for (uint256 i = 0; i < connections.length; i++) {\n            playZoneOutputs[gameID][connections[i][0]].push(connections[i][1]);\n            playZoneInputs[gameID][connections[i][1]].push(connections[i][0]);\n        }\n    }\n\n    function removeZoneConnections(\n        uint256 gameID,\n        string[] memory inputAliases,\n        uint256[] memory inputs,\n        string[] memory outputAliases,\n        uint256[] memory outputs\n    ) public onlyRole(GAME_MASTER_ROLE) {\n        /* This is done differently from adding zones and can break connections\n\n        Use with caution!\n\n        inputs = [zone index, input index]\n        outputs = [zone index, output index]\n        */\n        require(\n            inputs.length == outputs.length,\n            \"inputs / outputs length mismatch\"\n        );\n        require(\n            connectionInputsValid(gameID, inputAliases, inputs),\n            \"inputs invalid\"\n        );\n        require(\n            connectionOutputsValid(gameID, outputAliases, outputs),\n            \"outputs invalid\"\n        );\n        for (uint256 i = 0; i < inputs.length; i++) {\n            //TODO:\n            // remove input from zone inputs[i][0] at index inputs[i][1]\n            // remove output from zone outputs[i][0] at index outputs[i][1]\n        }\n    }\n\n    function exitToPath(\n        uint256 gameID,\n        address playerAddress,\n        uint256 pathIndex\n    ) external returns (bool exitSuccess) {\n        // TODO: make sure zone calling is same as zone player is trying to exit\n        uint256 playerID = PLAYER_REGISTRY.playerID(gameID, playerAddress);\n        string memory originZoneAlias = currentPlayZone[gameID][playerID];\n        uint256 availablePaths = playZoneOutputs[gameID][originZoneAlias]\n            .length;\n        require(availablePaths > 0, \"No exit paths available\");\n\n        exitSuccess = false;\n\n        PlayZone originPlayZone = PlayZone(zoneAlias[gameID][originZoneAlias]);\n\n        uint256 path = pathIndex > availablePaths ? 0 : pathIndex;\n        string memory destinationZoneAlias = playZoneOutputs[gameID][\n            originZoneAlias\n        ][path];\n        PlayZone destinationPlayZone = PlayZone(\n            zoneAlias[gameID][destinationZoneAlias]\n        );\n\n        if (\n            originPlayZone.playerCanExit(\n                playerAddress,\n                gameID,\n                originZoneAlias\n            ) &&\n            destinationPlayZone.playerCanEnter(\n                playerAddress,\n                gameID,\n                destinationZoneAlias\n            )\n        ) {\n            originPlayZone.exitPlayer(playerAddress, gameID, originZoneAlias);\n            destinationPlayZone.enterPlayer(\n                playerAddress,\n                gameID,\n                destinationZoneAlias\n            );\n            currentPlayZone[gameID][playerID] = destinationZoneAlias;\n            exitSuccess = true;\n        }\n    }\n\n    function playerEnteredZone(\n        uint256 gameID,\n        address playerAddress,\n        string memory _zoneAlias\n    ) external onlyRole(PLAY_ZONE_ROLE) {\n        uint256 playerID = PLAYER_REGISTRY.playerID(gameID, playerAddress);\n        currentPlayZone[gameID][playerID] = _zoneAlias;\n    }\n\n    // TODO: implement mass transit\n    // can set as many of these up as needed for mass transit\n    function queueExitToPaths(\n        uint256 gameID,\n        address[] memory playerAddresses,\n        uint256[] memory pathIndices,\n        uint256 transitID\n    ) public onlyRole(PLAY_ZONE_ROLE) {}\n\n    function startTransit(uint256 transitID) public onlyRole(PLAY_ZONE_ROLE) {}\n\n    function _progressTransit(uint256 transitID)\n        public\n        onlyRole(GAME_KEEPER_ROLE)\n    {\n        // moves group transit along, marks as complete at finish\n    }\n\n    function connectionZonesValid(\n        uint256 gameID,\n        string[2][] memory connections\n    ) internal view returns (bool isValid) {\n        // checks that all aliases passed exist\n        for (uint256 i = 0; i < connections.length; i++) {\n            isValid = true;\n            if (\n                zoneAlias[gameID][connections[i][0]] == address(0) ||\n                zoneAlias[gameID][connections[i][1]] == address(0)\n            ) {\n                isValid = false;\n                break;\n            }\n        }\n    }\n\n    function connectionInputsValid(\n        uint256 gameID,\n        string[] memory aliases,\n        uint256[] memory inputs\n    ) internal view returns (bool isValid) {\n        // checks that inputs exist\n        // inputs = [zone alias, input index]\n\n        isValid = true;\n        for (uint256 i = 0; i < inputs.length; i++) {\n            if (\n                //playZoneInputs[gameID][zone alias] = array of input aliases for given zone\n                playZoneInputs[gameID][aliases[i]].length >= inputs[i] + 1\n            ) {\n                isValid = false;\n                break;\n            }\n        }\n    }\n\n    function connectionOutputsValid(\n        uint256 gameID,\n        string[] memory aliases,\n        uint256[] memory outputs\n    ) internal view returns (bool isValid) {\n        // outputs = [zone alias, output index]\n        isValid = true;\n        for (uint256 i = 0; i < outputs.length; i++) {\n            if (playZoneOutputs[gameID][aliases[i]].length >= outputs[i] + 1) {\n                isValid = false;\n                break;\n            }\n        }\n    }\n}\n",
  "sourcePath": "@luckymachines/game-core/contracts/src/v0.0/GameBoard.sol",
  "compiler": {
    "name": "solc",
    "version": "0.8.11+commit.d7f03943.Emscripten.clang"
  },
  "schemaVersion": "3.4.2",
  "updatedAt": "2022-05-06T16:56:07.113Z",
  "devdoc": {
    "kind": "dev",
    "methods": {
      "getRoleAdmin(bytes32)": {
        "details": "Returns the admin role that controls `role`. See {grantRole} and {revokeRole}. To change a role's admin, use {_setRoleAdmin}."
      },
      "getRoleMember(bytes32,uint256)": {
        "details": "Returns one of the accounts that have `role`. `index` must be a value between 0 and {getRoleMemberCount}, non-inclusive. Role bearers are not sorted in any particular way, and their ordering may change at any point. WARNING: When using {getRoleMember} and {getRoleMemberCount}, make sure you perform all queries on the same block. See the following https://forum.openzeppelin.com/t/iterating-over-elements-on-enumerableset-in-openzeppelin-contracts/2296[forum post] for more information."
      },
      "getRoleMemberCount(bytes32)": {
        "details": "Returns the number of accounts that have `role`. Can be used together with {getRoleMember} to enumerate all bearers of a role."
      },
      "grantRole(bytes32,address)": {
        "details": "Grants `role` to `account`. If `account` had not been already granted `role`, emits a {RoleGranted} event. Requirements: - the caller must have ``role``'s admin role."
      },
      "hasRole(bytes32,address)": {
        "details": "Returns `true` if `account` has been granted `role`."
      },
      "renounceRole(bytes32,address)": {
        "details": "Revokes `role` from the calling account. Roles are often managed via {grantRole} and {revokeRole}: this function's purpose is to provide a mechanism for accounts to lose their privileges if they are compromised (such as when a trusted device is misplaced). If the calling account had been revoked `role`, emits a {RoleRevoked} event. Requirements: - the caller must be `account`."
      },
      "revokeRole(bytes32,address)": {
        "details": "Revokes `role` from `account`. If `account` had been granted `role`, emits a {RoleRevoked} event. Requirements: - the caller must have ``role``'s admin role."
      },
      "supportsInterface(bytes4)": {
        "details": "See {IERC165-supportsInterface}."
      }
    },
    "version": 1
  },
  "userdoc": {
    "kind": "user",
    "methods": {},
    "version": 1
  }
}