{
  "contractName": "GameSummary",
  "abi": [
    {
      "inputs": [
        {
          "internalType": "address",
          "name": "gameBoardAddress",
          "type": "address"
        }
      ],
      "name": "boardSize",
      "outputs": [
        {
          "internalType": "uint256",
          "name": "rows",
          "type": "uint256"
        },
        {
          "internalType": "uint256",
          "name": "columns",
          "type": "uint256"
        }
      ],
      "stateMutability": "view",
      "type": "function"
    },
    {
      "inputs": [
        {
          "internalType": "address",
          "name": "gameBoardAddress",
          "type": "address"
        },
        {
          "internalType": "uint256",
          "name": "gameID",
          "type": "uint256"
        },
        {
          "internalType": "address",
          "name": "playerAddress",
          "type": "address"
        }
      ],
      "name": "isRegistered",
      "outputs": [
        {
          "internalType": "bool",
          "name": "",
          "type": "bool"
        }
      ],
      "stateMutability": "view",
      "type": "function"
    },
    {
      "inputs": [
        {
          "internalType": "address",
          "name": "gameBoardAddress",
          "type": "address"
        },
        {
          "internalType": "uint256",
          "name": "gameID",
          "type": "uint256"
        },
        {
          "internalType": "address",
          "name": "playerAddress",
          "type": "address"
        }
      ],
      "name": "getPlayerID",
      "outputs": [
        {
          "internalType": "uint256",
          "name": "playerID",
          "type": "uint256"
        }
      ],
      "stateMutability": "view",
      "type": "function"
    },
    {
      "inputs": [
        {
          "internalType": "address",
          "name": "gameBoardAddress",
          "type": "address"
        },
        {
          "internalType": "uint256",
          "name": "gameID",
          "type": "uint256"
        }
      ],
      "name": "currentGameplayQueue",
      "outputs": [
        {
          "internalType": "uint256",
          "name": "",
          "type": "uint256"
        }
      ],
      "stateMutability": "view",
      "type": "function"
    },
    {
      "inputs": [
        {
          "internalType": "address",
          "name": "gameBoardAddress",
          "type": "address"
        },
        {
          "internalType": "uint256",
          "name": "gameID",
          "type": "uint256"
        }
      ],
      "name": "currentPhase",
      "outputs": [
        {
          "internalType": "string",
          "name": "phase",
          "type": "string"
        }
      ],
      "stateMutability": "view",
      "type": "function"
    },
    {
      "inputs": [
        {
          "internalType": "address",
          "name": "gameBoardAddress",
          "type": "address"
        },
        {
          "internalType": "uint256",
          "name": "gameID",
          "type": "uint256"
        }
      ],
      "name": "activeZones",
      "outputs": [
        {
          "internalType": "string[]",
          "name": "zones",
          "type": "string[]"
        },
        {
          "internalType": "uint16[]",
          "name": "tiles",
          "type": "uint16[]"
        }
      ],
      "stateMutability": "view",
      "type": "function"
    },
    {
      "inputs": [
        {
          "internalType": "address",
          "name": "gameBoardAddress",
          "type": "address"
        },
        {
          "internalType": "uint256",
          "name": "gameID",
          "type": "uint256"
        }
      ],
      "name": "landingSite",
      "outputs": [
        {
          "internalType": "string",
          "name": "",
          "type": "string"
        }
      ],
      "stateMutability": "view",
      "type": "function"
    },
    {
      "inputs": [
        {
          "internalType": "address",
          "name": "gameBoardAddress",
          "type": "address"
        },
        {
          "internalType": "uint256",
          "name": "gameID",
          "type": "uint256"
        }
      ],
      "name": "allPlayerLocations",
      "outputs": [
        {
          "internalType": "uint256[]",
          "name": "",
          "type": "uint256[]"
        },
        {
          "internalType": "string[]",
          "name": "",
          "type": "string[]"
        }
      ],
      "stateMutability": "view",
      "type": "function"
    },
    {
      "inputs": [
        {
          "internalType": "address",
          "name": "gameBoardAddress",
          "type": "address"
        },
        {
          "internalType": "uint256",
          "name": "gameID",
          "type": "uint256"
        }
      ],
      "name": "currentLocation",
      "outputs": [
        {
          "internalType": "string",
          "name": "",
          "type": "string"
        }
      ],
      "stateMutability": "view",
      "type": "function"
    },
    {
      "inputs": [
        {
          "internalType": "address",
          "name": "gameBoardAddress",
          "type": "address"
        },
        {
          "internalType": "uint256",
          "name": "gameID",
          "type": "uint256"
        }
      ],
      "name": "currentPlayerStats",
      "outputs": [
        {
          "internalType": "uint8",
          "name": "movement",
          "type": "uint8"
        },
        {
          "internalType": "uint8",
          "name": "agility",
          "type": "uint8"
        },
        {
          "internalType": "uint8",
          "name": "dexterity",
          "type": "uint8"
        }
      ],
      "stateMutability": "view",
      "type": "function"
    },
    {
      "inputs": [
        {
          "internalType": "address",
          "name": "gameBoardAddress",
          "type": "address"
        },
        {
          "internalType": "uint256",
          "name": "gameID",
          "type": "uint256"
        }
      ],
      "name": "currentHandInventory",
      "outputs": [
        {
          "internalType": "string",
          "name": "leftHandItem",
          "type": "string"
        },
        {
          "internalType": "string",
          "name": "rightHandItem",
          "type": "string"
        }
      ],
      "stateMutability": "view",
      "type": "function"
    },
    {
      "inputs": [
        {
          "internalType": "address",
          "name": "gameBoardAddress",
          "type": "address"
        },
        {
          "internalType": "uint256",
          "name": "gameID",
          "type": "uint256"
        }
      ],
      "name": "activeInventory",
      "outputs": [
        {
          "internalType": "string",
          "name": "artifact",
          "type": "string"
        },
        {
          "internalType": "string",
          "name": "status",
          "type": "string"
        },
        {
          "internalType": "string",
          "name": "relic",
          "type": "string"
        },
        {
          "internalType": "bool",
          "name": "shield",
          "type": "bool"
        },
        {
          "internalType": "bool",
          "name": "campsite",
          "type": "bool"
        }
      ],
      "stateMutability": "view",
      "type": "function"
    },
    {
      "inputs": [
        {
          "internalType": "address",
          "name": "gameBoardAddress",
          "type": "address"
        },
        {
          "internalType": "uint256",
          "name": "gameID",
          "type": "uint256"
        }
      ],
      "name": "inactiveInventory",
      "outputs": [
        {
          "internalType": "string[]",
          "name": "itemTypes",
          "type": "string[]"
        },
        {
          "internalType": "uint256[]",
          "name": "itemBalances",
          "type": "uint256[]"
        }
      ],
      "stateMutability": "view",
      "type": "function"
    },
    {
      "inputs": [
        {
          "internalType": "address",
          "name": "gameBoardAddress",
          "type": "address"
        },
        {
          "internalType": "uint256",
          "name": "gameID",
          "type": "uint256"
        }
      ],
      "name": "lastPlayerActions",
      "outputs": [
        {
          "internalType": "uint256[]",
          "name": "playerIDs",
          "type": "uint256[]"
        },
        {
          "internalType": "string[]",
          "name": "activeActionCardTypes",
          "type": "string[]"
        },
        {
          "internalType": "string[]",
          "name": "activeActionCardsDrawn",
          "type": "string[]"
        },
        {
          "internalType": "uint8[]",
          "name": "currentActiveActions",
          "type": "uint8[]"
        },
        {
          "internalType": "string[]",
          "name": "activeActionCardResults",
          "type": "string[]"
        },
        {
          "internalType": "string[3][]",
          "name": "activeActionCardInventoryChanges",
          "type": "string[3][]"
        }
      ],
      "stateMutability": "view",
      "type": "function"
    },
    {
      "inputs": [
        {
          "internalType": "address",
          "name": "gameBoardAddress",
          "type": "address"
        },
        {
          "internalType": "address",
          "name": "gameRegistryAddress",
          "type": "address"
        }
      ],
      "name": "getAvailableGameIDs",
      "outputs": [
        {
          "internalType": "uint256[]",
          "name": "",
          "type": "uint256[]"
        }
      ],
      "stateMutability": "view",
      "type": "function"
    },
    {
      "inputs": [
        {
          "internalType": "address",
          "name": "gameBoardAddress",
          "type": "address"
        },
        {
          "internalType": "uint256",
          "name": "gameID",
          "type": "uint256"
        }
      ],
      "name": "isAtCampsite",
      "outputs": [
        {
          "internalType": "bool",
          "name": "atCampsite",
          "type": "bool"
        }
      ],
      "stateMutability": "view",
      "type": "function"
    },
    {
      "inputs": [
        {
          "internalType": "address",
          "name": "gameBoardAddress",
          "type": "address"
        },
        {
          "internalType": "uint256",
          "name": "gameID",
          "type": "uint256"
        }
      ],
      "name": "activeAction",
      "outputs": [
        {
          "internalType": "string",
          "name": "action",
          "type": "string"
        }
      ],
      "stateMutability": "view",
      "type": "function"
    }
  ],
  "bytecode": "0x614a2f610053600b82828239805160001a607314610046577f4e487b7100000000000000000000000000000000000000000000000000000000600052600060045260246000fd5b30600052607381538281f3fe73000000000000000000000000000000000000000030146080604052600436106101045760003560e060020a90048063ad7bac41116100a0578063ad7bac411461024e578063b0be1afa14610261578063bb8553fc14610282578063c449f580146102a5578063cabd6fda146102ca578063e569d33a146102dd578063ee203a8e146102fe578063f59bf90314610326578063f8ffdfcc1461034a57600080fd5b80632f874fe01461010957806330f7337a146101455780635d824c22146101665780638191e06214610186578063821ba3a1146101a757806386599da8146101c75780639f8159cc146101e8578063a75d3f8714610228578063ab00df6c1461023b575b600080fd5b61011c61011736600461402b565b61035d565b6040805160ff948516815292841660208401529216918101919091526060015b60405180910390f35b610158610153366004614057565b61065d565b60405190815260200161013c565b610179610174366004614099565b61075f565b60405161013c919061410d565b61019961019436600461402b565b6107f1565b60405161013c9291906141d0565b6101ba6101b536600461402b565b610a60565b60405161013c91906141f5565b6101da6101d536600461402b565b610ae9565b60405161013c929190614208565b8180156101f457600080fd5b5061021661020336600461402b565b6060806060806060809295509295509295565b60405161013c969594939291906142af565b6101ba61023636600461402b565b611a4c565b61015861024936600461402b565b611c39565b6101ba61025c36600461402b565b611d34565b61027461026f36600461402b565b61213d565b60405161013c929190614331565b61029561029036600461402b565b6125b6565b604051901515815260200161013c565b6102b86102b336600461402b565b6128a4565b60405161013c96959493929190614356565b6102956102d8366004614057565b612f6d565b6102f06102eb36600461402b565b613065565b60405161013c9291906143f2565b61031161030c36600461444d565b61345e565b6040805192835260208301919091520161013c565b61033961033436600461402b565b61353a565b60405161013c95949392919061446a565b6101ba61035836600461402b565b613c0d565b600080600080859050600081600160a060020a031663a0ed600d6040518163ffffffff1660e060020a028152600401602060405180830381865afa1580156103a9573d6000803e3d6000fd5b505050506040513d601f19601f820116820180604052508101906103cd91906144bd565b9050600082600160a060020a031663c06dea4e6040518163ffffffff1660e060020a028152600401602060405180830381865afa158015610412573d6000803e3d6000fd5b505050506040513d601f19601f8201168201806040525081019061043691906144bd565b9050600081600160a060020a031663bca7caa089336040518363ffffffff1660e060020a02815260040161046b9291906144da565b602060405180830381865afa158015610488573d6000803e3d6000fd5b505050506040513d601f19601f820116820180604052508101906104ac91906144f1565b6040517fe8216595000000000000000000000000000000000000000000000000000000008152600481018a905260248101829052909150600160a060020a0384169063e821659590604401602060405180830381865afa158015610514573d6000803e3d6000fd5b505050506040513d601f19601f82011682018060405250810190610538919061450a565b6040517fd104563e000000000000000000000000000000000000000000000000000000008152600481018a905260248101839052909750600160a060020a0384169063d104563e90604401602060405180830381865afa1580156105a0573d6000803e3d6000fd5b505050506040513d601f19601f820116820180604052508101906105c4919061450a565b6040517f2af37e1d000000000000000000000000000000000000000000000000000000008152600481018a905260248101839052909650600160a060020a03841690632af37e1d90604401602060405180830381865afa15801561062c573d6000803e3d6000fd5b505050506040513d601f19601f82011682018060405250810190610650919061450a565b9450505050509250925092565b600080849050600081600160a060020a031663c06dea4e6040518163ffffffff1660e060020a028152600401602060405180830381865afa1580156106a6573d6000803e3d6000fd5b505050506040513d601f19601f820116820180604052508101906106ca91906144bd565b6040517fbca7caa0000000000000000000000000000000000000000000000000000000008152909150600160a060020a0382169063bca7caa09061071490889088906004016144da565b602060405180830381865afa158015610731573d6000803e3d6000fd5b505050506040513d601f19601f8201168201806040525081019061075591906144f1565b9695505050505050565b6040517fdef34582000000000000000000000000000000000000000000000000000000008152600160a060020a0382811660048301526060919084169063def3458290602401600060405180830381865afa1580156107c2573d6000803e3d6000fd5b505050506040513d6000823e601f3d908101601f191682016040526107ea91908101906145c4565b9392505050565b6060806000849050600081600160a060020a031663c06dea4e6040518163ffffffff1660e060020a028152600401602060405180830381865afa15801561083c573d6000803e3d6000fd5b505050506040513d601f19601f8201168201806040525081019061086091906144bd565b60405160e060020a63b77ff41102815260048101879052909150600090600160a060020a0383169063b77ff41190602401602060405180830381865afa1580156108ae573d6000803e3d6000fd5b505050506040513d601f19601f820116820180604052508101906108d291906144f1565b905060008167ffffffffffffffff8111156108ef576108ef61452d565b604051908082528060200260200182016040528015610918578160200160208202803683370190505b50905060008267ffffffffffffffff8111156109365761093661452d565b60405190808252806020026020018201604052801561096957816020015b60608152602001906001900390816109545790505b50905060005b83811015610a5157610982816001614670565b83828151811061099457610994614688565b6020908102919091010152600160a060020a03861663d75e79808a6109ba846001614670565b60405160e060020a63ffffffff851602815260048101929092526024820152604401600060405180830381865afa1580156109f9573d6000803e3d6000fd5b505050506040513d6000823e601f3d908101601f19168201604052610a21919081019061470d565b828281518110610a3357610a33614688565b60200260200101819052508080610a4990614742565b91505061096f565b50909890975095505050505050565b6040517feb33983d00000000000000000000000000000000000000000000000000000000815260048101829052606090600160a060020a0384169063eb33983d90602401600060405180830381865afa158015610ac1573d6000803e3d6000fd5b505050506040513d6000823e601f3d908101601f191682016040526107ea919081019061470d565b6060806000849050600081600160a060020a031663c06dea4e6040518163ffffffff1660e060020a028152600401602060405180830381865afa158015610b34573d6000803e3d6000fd5b505050506040513d601f19601f82011682018060405250810190610b5891906144bd565b9050600082600160a060020a031663cca369966040518163ffffffff1660e060020a028152600401602060405180830381865afa158015610b9d573d6000803e3d6000fd5b505050506040513d601f19601f82011682018060405250810190610bc191906144bd565b60408051602380825261048082019092529192506020820161046080368337019050506040805160238082526104808201909252919550816020015b6060815260200190600190039081610bfd5790505094506040518060400160405280600a81526020017f536d616c6c20416d6d6f0000000000000000000000000000000000000000000081525085600081518110610c5d57610c5d614688565b60200260200101819052506040518060400160405280600a81526020017f4c6172676520416d6d6f0000000000000000000000000000000000000000000081525085600181518110610cb157610cb1614688565b60200260200101819052506040518060400160405280600981526020017f426174746572696573000000000000000000000000000000000000000000000081525085600281518110610d0557610d05614688565b60200260200101819052506040518060400160405280600681526020017f536869656c64000000000000000000000000000000000000000000000000000081525085600381518110610d5957610d59614688565b60200260200101819052506040518060400160405280600681526020017f506f7274616c000000000000000000000000000000000000000000000000000081525085600481518110610dad57610dad614688565b60200260200101819052506040518060400160405280600281526020017f4f6e00000000000000000000000000000000000000000000000000000000000081525085600581518110610e0157610e01614688565b60200260200101819052506040518060400160405280600381526020017f4f6666000000000000000000000000000000000000000000000000000000000081525085600681518110610e5557610e55614688565b60200260200101819052506040518060400160405280600c81526020017f527573747920446167676572000000000000000000000000000000000000000081525085600781518110610ea957610ea9614688565b60200260200101819052506040518060400160405280600b81526020017f52757374792053776f726400000000000000000000000000000000000000000081525085600881518110610efd57610efd614688565b60200260200101819052506040518060400160405280600c81526020017f527573747920506973746f6c000000000000000000000000000000000000000081525085600981518110610f5157610f51614688565b60200260200101819052506040518060400160405280600b81526020017f5275737479205269666c6500000000000000000000000000000000000000000081525085600a81518110610fa557610fa5614688565b60200260200101819052506040518060400160405280600c81526020017f5368696e7920446167676572000000000000000000000000000000000000000081525085600b81518110610ff957610ff9614688565b60200260200101819052506040518060400160405280600b81526020017f5368696e792053776f726400000000000000000000000000000000000000000081525085600c8151811061104d5761104d614688565b60200260200101819052506040518060400160405280600c81526020017f5368696e7920506973746f6c000000000000000000000000000000000000000081525085600d815181106110a1576110a1614688565b60200260200101819052506040518060400160405280600b81526020017f5368696e79205269666c6500000000000000000000000000000000000000000081525085600e815181106110f5576110f5614688565b60200260200101819052506040518060400160405280600c81526020017f4c6173657220446167676572000000000000000000000000000000000000000081525085600f8151811061114957611149614688565b60200260200101819052506040518060400160405280600b81526020017f4c617365722053776f72640000000000000000000000000000000000000000008152508560108151811061119d5761119d614688565b60200260200101819052506040518060400160405280600c81526020017f4c6173657220506973746f6c0000000000000000000000000000000000000000815250856011815181106111f1576111f1614688565b60200260200101819052506040518060400160405280600b81526020017f4c61736572205269666c650000000000000000000000000000000000000000008152508560128151811061124557611245614688565b60200260200101819052506040518060400160405280600a81526020017f476c6f7720737469636b000000000000000000000000000000000000000000008152508560138151811061129957611299614688565b60200260200101819052506040518060400160405280600a81526020017f466c6173686c6967687400000000000000000000000000000000000000000000815250856014815181106112ed576112ed614688565b60200260200101819052506040518060400160405280600b81526020017f466c6f6f64206c696768740000000000000000000000000000000000000000008152508560158151811061134157611341614688565b60200260200101819052506040518060400160405280601381526020017f4e69676874766973696f6e20476f67676c6573000000000000000000000000008152508560168151811061139557611395614688565b60200260200101819052506040518060400160405280600f81526020017f506572736f6e616c20536869656c640000000000000000000000000000000000815250856017815181106113e9576113e9614688565b60200260200101819052506040518060400160405280600d81526020017f427562626c6520536869656c64000000000000000000000000000000000000008152508560188151811061143d5761143d614688565b60200260200101819052506040518060400160405280600c81526020017f46726167204772656e61646500000000000000000000000000000000000000008152508560198151811061149157611491614688565b60200260200101819052506040518060400160405280600c81526020017f46697265204772656e616465000000000000000000000000000000000000000081525085601a815181106114e5576114e5614688565b60200260200101819052506040518060400160405280600d81526020017f53686f636b204772656e6164650000000000000000000000000000000000000081525085601b8151811061153957611539614688565b60200260200101819052506040518060400160405280600981526020017f4845204d6f72746172000000000000000000000000000000000000000000000081525085601c8151811061158d5761158d614688565b60200260200101819052506040518060400160405280601181526020017f496e63656e6469617279204d6f7274617200000000000000000000000000000081525085601d815181106115e1576115e1614688565b60200260200101819052506040518060400160405280600a81526020017f454d50204d6f727461720000000000000000000000000000000000000000000081525085601e8151811061163557611635614688565b60200260200101819052506040518060400160405280600b81526020017f506f77657220476c6f766500000000000000000000000000000000000000000081525085601f8151811061168957611689614688565b60200260200101819052506040518060600160405280602181526020016149d960219139856020815181106116c0576116c0614688565b60200260200101819052506040518060400160405280600f81526020017f54656c65706f72746572205061636b00000000000000000000000000000000008152508560218151811061171457611714614688565b602002602001018190525060405180604001604052806008815260200160c060020a6743616d7073697465028152508560228151811061175657611756614688565b6020026020010181905250600082600160a060020a031663bca7caa088336040518363ffffffff1660e060020a0281526004016117949291906144da565b602060405180830381865afa1580156117b1573d6000803e3d6000fd5b505050506040513d601f19601f820116820180604052508101906117d591906144f1565b6040517f01d37be4000000000000000000000000000000000000000000000000000000008152909150600160a060020a038316906301d37be4906118229084906003908c90600401614776565b602060405180830381865afa15801561183f573d6000803e3d6000fd5b505050506040513d601f19601f8201168201806040525081019061186391906147af565b15611a4157600082600160a060020a031663a318d45c6040518163ffffffff1660e060020a028152600401602060405180830381865afa1580156118ab573d6000803e3d6000fd5b505050506040513d601f19601f820116820180604052508101906118cf91906144bd565b9050600081600160a060020a031663c853a1d06040518163ffffffff1660e060020a028152600401600060405180830381865afa158015611914573d6000803e3d6000fd5b505050506040513d6000823e601f3d908101601f1916820160405261193c91908101906147d1565b905060005b8751811015611a3d5781818151811061195c5761195c614688565b602002602001015189828151811061197657611976614688565b602002602001018190525082600160a060020a0316634db157d08383815181106119a2576119a2614688565b60200260200101518c876040518463ffffffff1660e060020a0281526004016119cd9392919061487f565b602060405180830381865afa1580156119ea573d6000803e3d6000fd5b505050506040513d601f19601f82011682018060405250810190611a0e91906144f1565b888281518110611a2057611a20614688565b602090810291909101015280611a3581614742565b915050611941565b5050505b505050509250929050565b60606000839050600081600160a060020a031663cca369966040518163ffffffff1660e060020a028152600401602060405180830381865afa158015611a96573d6000803e3d6000fd5b505050506040513d601f19601f82011682018060405250810190611aba91906144bd565b9050600081600160a060020a031663a906dfd16040518163ffffffff1660e060020a028152600401602060405180830381865afa158015611aff573d6000803e3d6000fd5b505050506040513d601f19601f82011682018060405250810190611b2391906144bd565b6040517f4db157d0000000000000000000000000000000000000000000000000000000008152606060048201526003606482015260e860020a624461790260848201526024810187905260016044820152600160a060020a039190911690634db157d09060a401602060405180830381865afa158015611ba7573d6000803e3d6000fd5b505050506040513d601f19601f82011682018060405250810190611bcb91906144f1565b905060008111611c10576040518060400160405280600581526020017f4e69676874000000000000000000000000000000000000000000000000000000815250610755565b60405180604001604052806003815260200160e860020a62446179028152509695505050505050565b600080839050600081600160a060020a031663cefe23296040518163ffffffff1660e060020a028152600401602060405180830381865afa158015611c82573d6000803e3d6000fd5b505050506040513d601f19601f82011682018060405250810190611ca691906144bd565b6040517f861814e200000000000000000000000000000000000000000000000000000000815260048101869052909150600160a060020a0382169063861814e290602401602060405180830381865afa158015611d07573d6000803e3d6000fd5b505050506040513d601f19601f82011682018060405250810190611d2b91906144f1565b95945050505050565b60606000839050600081600160a060020a031663a0ed600d6040518163ffffffff1660e060020a028152600401602060405180830381865afa158015611d7e573d6000803e3d6000fd5b505050506040513d601f19601f82011682018060405250810190611da291906144bd565b9050600082600160a060020a031663c06dea4e6040518163ffffffff1660e060020a028152600401602060405180830381865afa158015611de7573d6000803e3d6000fd5b505050506040513d601f19601f82011682018060405250810190611e0b91906144bd565b600160a060020a031663bca7caa086336040518363ffffffff1660e060020a028152600401611e3b9291906144da565b602060405180830381865afa158015611e58573d6000803e3d6000fd5b505050506040513d601f19601f82011682018060405250810190611e7c91906144f1565b60405160e060020a63d1eb50530281526004810187905260248101829052909150600090600160a060020a0384169063d1eb505390604401602060405180830381865afa158015611ed1573d6000803e3d6000fd5b505050506040513d601f19601f82011682018060405250810190611ef591906148a4565b60408051808201909152600481527f49646c65000000000000000000000000000000000000000000000000000000006020820152955090506001816006811115611f4157611f4161475d565b1415611f84576040518060400160405280600481526020017f4d6f7665000000000000000000000000000000000000000000000000000000008152509450612133565b6002816006811115611f9857611f9861475d565b1415611fdb576040518060400160405280600a81526020017f53657475702063616d70000000000000000000000000000000000000000000008152509450612133565b6003816006811115611fef57611fef61475d565b1415612032576040518060400160405280600f81526020017f427265616b20646f776e2063616d7000000000000000000000000000000000008152509450612133565b60048160068111156120465761204661475d565b1415612089576040518060400160405280600381526020017f44696700000000000000000000000000000000000000000000000000000000008152509450612133565b600581600681111561209d5761209d61475d565b14156120e0576040518060400160405280600481526020017f52657374000000000000000000000000000000000000000000000000000000008152509450612133565b60068160068111156120f4576120f461475d565b1415612133576040518060400160405280600481526020017f48656c700000000000000000000000000000000000000000000000000000000081525094505b5050505092915050565b6060806000849050600081600160a060020a031663a0ed600d6040518163ffffffff1660e060020a028152600401602060405180830381865afa158015612188573d6000803e3d6000fd5b505050506040513d601f19601f820116820180604052508101906121ac91906144bd565b9050600082600160a060020a031663c06dea4e6040518163ffffffff1660e060020a028152600401602060405180830381865afa1580156121f1573d6000803e3d6000fd5b505050506040513d601f19601f8201168201806040525081019061221591906144bd565b9050600081600160a060020a031663bca7caa088336040518363ffffffff1660e060020a02815260040161224a9291906144da565b602060405180830381865afa158015612267573d6000803e3d6000fd5b505050506040513d601f19601f8201168201806040525081019061228b91906144f1565b60405160e060020a637dcfa291028152600481018990526024810182905290915061244b90600160a060020a03851690637dcfa291906044015b600060405180830381865afa1580156122e2573d6000803e3d6000fd5b505050506040513d6000823e601f3d908101601f1916820160405261230a919081019061470d565b85600160a060020a031663cca369966040518163ffffffff1660e060020a028152600401602060405180830381865afa15801561234b573d6000803e3d6000fd5b505050506040513d601f19601f8201168201806040525081019061236f91906144bd565b8987600160a060020a031663c06dea4e6040518163ffffffff1660e060020a028152600401602060405180830381865afa1580156123b1573d6000803e3d6000fd5b505050506040513d601f19601f820116820180604052508101906123d591906144bd565b600160a060020a031663bca7caa08c336040518363ffffffff1660e060020a0281526004016124059291906144da565b602060405180830381865afa158015612422573d6000803e3d6000fd5b505050506040513d601f19601f8201168201806040525081019061244691906144f1565b613d66565b61246457604051806020016040528060008152506124db565b60405160e060020a637dcfa2910281526004810188905260248101829052600160a060020a03841690637dcfa29190604401600060405180830381865afa1580156124b3573d6000803e3d6000fd5b505050506040513d6000823e601f3d908101601f191682016040526124db919081019061470d565b60405160e060020a639c220647028152600481018990526024810183905290965061251990600160a060020a03851690639c220647906044016122c5565b61253257604051806020016040528060008152506125a9565b60405160e060020a639c2206470281526004810188905260248101829052600160a060020a03841690639c22064790604401600060405180830381865afa158015612581573d6000803e3d6000fd5b505050506040513d6000823e601f3d908101601f191682016040526125a9919081019061470d565b9450505050509250929050565b600080839050600081600160a060020a031663c06dea4e6040518163ffffffff1660e060020a028152600401602060405180830381865afa1580156125ff573d6000803e3d6000fd5b505050506040513d601f19601f8201168201806040525081019061262391906144bd565b9050600082600160a060020a031663d75e79808684600160a060020a031663bca7caa089336040518363ffffffff1660e060020a0281526004016126689291906144da565b602060405180830381865afa158015612685573d6000803e3d6000fd5b505050506040513d601f19601f820116820180604052508101906126a991906144f1565b60405160e060020a63ffffffff851602815260048101929092526024820152604401600060405180830381865afa1580156126e8573d6000803e3d6000fd5b505050506040513d6000823e601f3d908101601f19168201604052612710919081019061470d565b9050600061271e8783613e4b565b9050600084600160a060020a031663cca369966040518163ffffffff1660e060020a028152600401602060405180830381865afa158015612763573d6000803e3d6000fd5b505050506040513d601f19601f8201168201806040525081019061278791906144bd565b600160a060020a031663a318d45c6040518163ffffffff1660e060020a028152600401602060405180830381865afa1580156127c7573d6000803e3d6000fd5b505050506040513d601f19601f820116820180604052508101906127eb91906144bd565b6040517f65a3c078000000000000000000000000000000000000000000000000000000008152606060048201526008606482015260c060020a6743616d70736974650260848201526024810189905260448101849052600160a060020a0391909116906365a3c0789060a401602060405180830381865afa158015612874573d6000803e3d6000fd5b505050506040513d601f19601f8201168201806040525081019061289891906144f1565b11979650505050505050565b6060806060806060806000889050600081600160a060020a031663a0ed600d6040518163ffffffff1660e060020a028152600401602060405180830381865afa1580156128f5573d6000803e3d6000fd5b505050506040513d601f19601f8201168201806040525081019061291991906144bd565b9050600082600160a060020a031663c06dea4e6040518163ffffffff1660e060020a028152600401602060405180830381865afa15801561295e573d6000803e3d6000fd5b505050506040513d601f19601f8201168201806040525081019061298291906144bd565b60405160e060020a63b77ff411028152600481018c9052909150600090600160a060020a0383169063b77ff41190602401602060405180830381865afa1580156129d0573d6000803e3d6000fd5b505050506040513d601f19601f820116820180604052508101906129f491906144f1565b90508067ffffffffffffffff811115612a0f57612a0f61452d565b604051908082528060200260200182016040528015612a38578160200160208202803683370190505b5099508067ffffffffffffffff811115612a5457612a5461452d565b604051908082528060200260200182016040528015612a8757816020015b6060815260200190600190039081612a725790505b5098508067ffffffffffffffff811115612aa357612aa361452d565b604051908082528060200260200182016040528015612ad657816020015b6060815260200190600190039081612ac15790505b5097508067ffffffffffffffff811115612af257612af261452d565b604051908082528060200260200182016040528015612b1b578160200160208202803683370190505b5096508067ffffffffffffffff811115612b3757612b3761452d565b604051908082528060200260200182016040528015612b6a57816020015b6060815260200190600190039081612b555790505b5095508067ffffffffffffffff811115612b8657612b8661452d565b604051908082528060200260200182016040528015612bbf57816020015b612bac613fec565b815260200190600190039081612ba45790505b50945060005b81811015612f5e576000612bda826001614670565b9050808c8381518110612bef57612bef614688565b60209081029190910101526040517fa4a458fe000000000000000000000000000000000000000000000000000000008152600481018e905260248101829052600160a060020a0386169063a4a458fe90604401600060405180830381865afa158015612c5f573d6000803e3d6000fd5b505050506040513d6000823e601f3d908101601f19168201604052612c87919081019061470d565b8b8381518110612c9957612c99614688565b60209081029190910101526040517f07afb2a0000000000000000000000000000000000000000000000000000000008152600481018e905260248101829052600160a060020a038616906307afb2a090604401600060405180830381865afa158015612d09573d6000803e3d6000fd5b505050506040513d6000823e601f3d908101601f19168201604052612d31919081019061470d565b8a8381518110612d4357612d43614688565b602090810291909101015260405160e060020a63d1eb5053028152600481018e905260248101829052600160a060020a0386169063d1eb505390604401602060405180830381865afa158015612d9d573d6000803e3d6000fd5b505050506040513d601f19601f82011682018060405250810190612dc191906148a4565b6006811115612dd257612dd261475d565b898381518110612de457612de4614688565b60ff909216602092830291909101909101526040517fc28122a3000000000000000000000000000000000000000000000000000000008152600481018e905260248101829052600160a060020a0386169063c28122a390604401600060405180830381865afa158015612e5b573d6000803e3d6000fd5b505050506040513d6000823e601f3d908101601f19168201604052612e83919081019061470d565b888381518110612e9557612e95614688565b60209081029190910101526040517f209ce266000000000000000000000000000000000000000000000000000000008152600481018e905260248101829052600160a060020a0386169063209ce26690604401600060405180830381865afa158015612f05573d6000803e3d6000fd5b505050506040513d6000823e601f3d908101601f19168201604052612f2d91908101906148c5565b878381518110612f3f57612f3f614688565b6020026020010181905250508080612f5690614742565b915050612bc5565b50505050509295509295509295565b600080849050600081600160a060020a031663c06dea4e6040518163ffffffff1660e060020a028152600401602060405180830381865afa158015612fb6573d6000803e3d6000fd5b505050506040513d601f19601f82011682018060405250810190612fda91906144bd565b6040517fb81f6e18000000000000000000000000000000000000000000000000000000008152909150600160a060020a0382169063b81f6e189061302490889088906004016144da565b602060405180830381865afa158015613041573d6000803e3d6000fd5b505050506040513d601f19601f8201168201806040525081019061075591906147af565b6060806000849050600081600160a060020a0316633ca61a586040518163ffffffff1660e060020a028152600401600060405180830381865afa1580156130b0573d6000803e3d6000fd5b505050506040513d6000823e601f3d908101601f191682016040526130d891908101906147d1565b90506000805b82518110156131975783600160a060020a031663ed3719a58885848151811061310957613109614688565b60200260200101516040518363ffffffff1660e060020a028152600401613131929190614960565b602060405180830381865afa15801561314e573d6000803e3d6000fd5b505050506040513d601f19601f8201168201806040525081019061317291906147af565b15613185578161318181614979565b9250505b8061318f81614742565b9150506130de565b508061ffff1667ffffffffffffffff8111156131b5576131b561452d565b6040519080825280602002602001820160405280156131e857816020015b60608152602001906001900390816131d35790505b5094508061ffff1667ffffffffffffffff8111156132085761320861452d565b604051908082528060200260200182016040528015613231578160200160208202803683370190505b5093506000905060005b8251811015611a415783600160a060020a031663ed3719a58885848151811061326657613266614688565b60200260200101516040518363ffffffff1660e060020a02815260040161328e929190614960565b602060405180830381865afa1580156132ab573d6000803e3d6000fd5b505050506040513d601f19601f820116820180604052508101906132cf91906147af565b1561344c578281815181106132e6576132e6614688565b6020026020010151868361ffff168151811061330457613304614688565b6020026020010181905250600084600160a060020a03166335e333e46040518163ffffffff1660e060020a028152600401602060405180830381865afa158015613352573d6000803e3d6000fd5b505050506040513d601f19601f8201168201806040525081019061337691906144bd565b905080600160a060020a03166330821b9c8986858151811061339a5761339a614688565b60200260200101516040518363ffffffff1660e060020a0281526004016133c2929190614960565b602060405180830381865afa1580156133df573d6000803e3d6000fd5b505050506040513d601f19601f82011682018060405250810190613403919061499b565b600b8111156134145761341461475d565b868461ffff168151811061342a5761342a614688565b61ffff909216602092830291909101909101528261344781614979565b935050505b8061345681614742565b91505061323b565b600080600083905080600160a060020a031663108c5e146040518163ffffffff1660e060020a028152600401602060405180830381865afa1580156134a7573d6000803e3d6000fd5b505050506040513d601f19601f820116820180604052508101906134cb91906144f1565b925080600160a060020a03166338b145df6040518163ffffffff1660e060020a028152600401602060405180830381865afa15801561350e573d6000803e3d6000fd5b505050506040513d601f19601f8201168201806040525081019061353291906144f1565b915050915091565b60608060606000806000879050600081600160a060020a031663a0ed600d6040518163ffffffff1660e060020a028152600401602060405180830381865afa15801561358a573d6000803e3d6000fd5b505050506040513d601f19601f820116820180604052508101906135ae91906144bd565b9050600082600160a060020a031663c06dea4e6040518163ffffffff1660e060020a028152600401602060405180830381865afa1580156135f3573d6000803e3d6000fd5b505050506040513d601f19601f8201168201806040525081019061361791906144bd565b9050600081600160a060020a031663bca7caa08b336040518363ffffffff1660e060020a02815260040161364c9291906144da565b602060405180830381865afa158015613669573d6000803e3d6000fd5b505050506040513d601f19601f8201168201806040525081019061368d91906144f1565b60405160e060020a63d27ffd0d028152600481018c90526024810182905290915061377790600160a060020a0385169063d27ffd0d90604401600060405180830381865afa1580156136e3573d6000803e3d6000fd5b505050506040513d6000823e601f3d908101601f1916820160405261370b919081019061470d565b85600160a060020a031663cca369966040518163ffffffff1660e060020a028152600401602060405180830381865afa15801561374c573d6000803e3d6000fd5b505050506040513d601f19601f8201168201806040525081019061377091906144bd565b8c84613f64565b6137905760405180602001604052806000815250613807565b60405160e060020a63d27ffd0d028152600481018b905260248101829052600160a060020a0384169063d27ffd0d90604401600060405180830381865afa1580156137df573d6000803e3d6000fd5b505050506040513d6000823e601f3d908101601f19168201604052613807919081019061470d565b60405160e160020a6359eec01d028152600481018c9052602481018390529099506138f190600160a060020a0385169063b3dd803a90604401600060405180830381865afa15801561385d573d6000803e3d6000fd5b505050506040513d6000823e601f3d908101601f19168201604052613885919081019061470d565b85600160a060020a031663cca369966040518163ffffffff1660e060020a028152600401602060405180830381865afa1580156138c6573d6000803e3d6000fd5b505050506040513d601f19601f820116820180604052508101906138ea91906144bd565b8c84613fa8565b61390a5760405180602001604052806000815250613981565b60405160e160020a6359eec01d028152600481018b905260248101829052600160a060020a0384169063b3dd803a90604401600060405180830381865afa158015613959573d6000803e3d6000fd5b505050506040513d6000823e601f3d908101601f19168201604052613981919081019061470d565b60405160e360020a63150cfdef028152600481018c905260248101839052909850613a6b90600160a060020a0385169063a867ef7890604401600060405180830381865afa1580156139d7573d6000803e3d6000fd5b505050506040513d6000823e601f3d908101601f191682016040526139ff919081019061470d565b85600160a060020a031663cca369966040518163ffffffff1660e060020a028152600401602060405180830381865afa158015613a40573d6000803e3d6000fd5b505050506040513d601f19601f82011682018060405250810190613a6491906144bd565b8c84613d66565b613a845760405180602001604052806000815250613afb565b60405160e360020a63150cfdef028152600481018b905260248101829052600160a060020a0384169063a867ef7890604401600060405180830381865afa158015613ad3573d6000803e3d6000fd5b505050506040513d6000823e601f3d908101601f19168201604052613afb919081019061470d565b9650613b776040518060400160405280600681526020017f536869656c64000000000000000000000000000000000000000000000000000081525085600160a060020a031663cca369966040518163ffffffff1660e060020a028152600401602060405180830381865afa158015613a40573d6000803e3d6000fd5b613b82576000613b85565b60015b9550613bef60405180604001604052806008815260200160c060020a6743616d70736974650281525085600160a060020a031663cca369966040518163ffffffff1660e060020a028152600401602060405180830381865afa158015613a40573d6000803e3d6000fd5b613bfa576000613bfd565b60015b9450505050509295509295909350565b60606000839050600081600160a060020a031663c06dea4e6040518163ffffffff1660e060020a028152600401602060405180830381865afa158015613c57573d6000803e3d6000fd5b505050506040513d601f19601f82011682018060405250810190613c7b91906144bd565b905081600160a060020a031663d75e79808583600160a060020a031663bca7caa088336040518363ffffffff1660e060020a028152600401613cbe9291906144da565b602060405180830381865afa158015613cdb573d6000803e3d6000fd5b505050506040513d601f19601f82011682018060405250810190613cff91906144f1565b60405160e060020a63ffffffff851602815260048101929092526024820152604401600060405180830381865afa158015613d3e573d6000803e3d6000fd5b505050506040513d6000823e601f3d908101601f19168201604052611d2b919081019061470d565b60008084600160a060020a031663a318d45c6040518163ffffffff1660e060020a028152600401602060405180830381865afa158015613daa573d6000803e3d6000fd5b505050506040513d601f19601f82011682018060405250810190613dce91906144bd565b600160a060020a0316634db157d08786866040518463ffffffff1660e060020a028152600401613e009392919061487f565b602060405180830381865afa158015613e1d573d6000803e3d6000fd5b505050506040513d601f19601f82011682018060405250810190613e4191906144f1565b1195945050505050565b6000650102b36211c790506000839050600081600160a060020a0316633ca61a586040518163ffffffff1660e060020a028152600401600060405180830381865afa158015613e9e573d6000803e3d6000fd5b505050506040513d6000823e601f3d908101601f19168201604052613ec691908101906147d1565b905060005b8151811015613f5b57818181518110613ee657613ee6614688565b6020026020010151604051602001613efe91906149bc565b6040516020818303038152906040528051906020012085604051602001613f2591906149bc565b604051602081830303815290604052805190602001201415613f4957809350613f5b565b80613f5381614742565b915050613ecb565b50505092915050565b60008084600160a060020a03166345d339d96040518163ffffffff1660e060020a028152600401602060405180830381865afa158015613daa573d6000803e3d6000fd5b60008084600160a060020a031663c1cdbb3c6040518163ffffffff1660e060020a028152600401602060405180830381865afa158015613daa573d6000803e3d6000fd5b60405180606001604052806003905b6060815260200190600190039081613ffb5790505090565b600160a060020a038116811461402857600080fd5b50565b6000806040838503121561403e57600080fd5b823561404981614013565b946020939093013593505050565b60008060006060848603121561406c57600080fd5b833561407781614013565b925060208401359150604084013561408e81614013565b809150509250925092565b600080604083850312156140ac57600080fd5b82356140b781614013565b915060208301356140c781614013565b809150509250929050565b600081518084526020808501945080840160005b83811015614102578151875295820195908201906001016140e6565b509495945050505050565b6020815260006107ea60208301846140d2565b60005b8381101561413b578181015183820152602001614123565b8381111561414a576000848401525b50505050565b60008151808452614168816020860160208601614120565b601f01601f19169290920160200192915050565b600081518084526020808501808196508284028101915082860160005b858110156141c35782840389526141b1848351614150565b98850198935090840190600101614199565b5091979650505050505050565b6040815260006141e360408301856140d2565b8281036020840152611d2b818561417c565b6020815260006107ea6020830184614150565b60408152600061421b604083018561417c565b8281036020840152611d2b81856140d2565b60008151808452602080850180819650828402810191508286016000805b868110156142a1578385038a5282518560608101845b600381101561428c57888203835261427a828551614150565b938a0193928a01929150600101614261565b509b88019b965050509185019160010161424b565b509298975050505050505050565b60c0815260006142c260c08301896140d2565b82810360208401526142d4818961417c565b905082810360408401526142e8818861417c565b905082810360608401526142fc818761417c565b90508281036080840152614310818661417c565b905082810360a0840152614324818561422d565b9998505050505050505050565b6040815260006143446040830185614150565b8281036020840152611d2b8185614150565b60c08152600061436960c08301896140d2565b60208382038185015261437c828a61417c565b91508382036040850152614390828961417c565b8481036060860152875180825282890193509082019060005b818110156143c857845160ff16835293830193918301916001016143a9565b505084810360808601526143dc818861417c565b9250505082810360a0840152614324818561422d565b604081526000614405604083018561417c565b82810360208481019190915284518083528582019282019060005b8181101561444057845161ffff1683529383019391830191600101614420565b5090979650505050505050565b60006020828403121561445f57600080fd5b81356107ea81614013565b60a08152600061447d60a0830188614150565b828103602084015261448f8188614150565b905082810360408401526144a38187614150565b941515606084015250509015156080909101529392505050565b6000602082840312156144cf57600080fd5b81516107ea81614013565b918252600160a060020a0316602082015260400190565b60006020828403121561450357600080fd5b5051919050565b60006020828403121561451c57600080fd5b815160ff811681146107ea57600080fd5b60e060020a634e487b7102600052604160045260246000fd5b6040516060810167ffffffffffffffff811182821017156145695761456961452d565b60405290565b604051601f8201601f1916810167ffffffffffffffff811182821017156145985761459861452d565b604052919050565b600067ffffffffffffffff8211156145ba576145ba61452d565b5060209081020190565b600060208083850312156145d757600080fd5b825167ffffffffffffffff8111156145ee57600080fd5b8301601f810185136145ff57600080fd5b805161461261460d826145a0565b61456f565b8181529083028201830190838101908783111561462e57600080fd5b928401925b8284101561464c57835182529284019290840190614633565b979650505050505050565b60e060020a634e487b7102600052601160045260246000fd5b6000821982111561468357614683614657565b500190565b60e060020a634e487b7102600052603260045260246000fd5b600082601f8301126146b257600080fd5b815167ffffffffffffffff8111156146cc576146cc61452d565b6146df601f8201601f191660200161456f565b8181528460208386010111156146f457600080fd5b614705826020830160208701614120565b949350505050565b60006020828403121561471f57600080fd5b815167ffffffffffffffff81111561473657600080fd5b614705848285016146a1565b600060001982141561475657614756614657565b5060010190565b60e060020a634e487b7102600052602160045260246000fd5b838152606081016007841061479e5760e060020a634e487b7102600052602160045260246000fd5b602082019390935260400152919050565b6000602082840312156147c157600080fd5b815180151581146107ea57600080fd5b600060208083850312156147e457600080fd5b825167ffffffffffffffff808211156147fc57600080fd5b818501915085601f83011261481057600080fd5b815161481e61460d826145a0565b8181529084028301840190848101908883111561483a57600080fd5b8585015b83811015614872578051858111156148565760008081fd5b6148648b89838a01016146a1565b84525091860191860161483e565b5098975050505050505050565b6060815260006148926060830186614150565b60208301949094525060400152919050565b6000602082840312156148b657600080fd5b8151600781106107ea57600080fd5b600060208083850312156148d857600080fd5b825167ffffffffffffffff808211156148f057600080fd5b818501915085601f83011261490457600080fd5b61490c614546565b80606084018881111561491e57600080fd5b845b81811015614952578051858111156149385760008081fd5b6149448b8289016146a1565b855250928601928601614920565b509098975050505050505050565b8281526040602082015260006147056040830184614150565b600061ffff8083168181141561499157614991614657565b6001019392505050565b6000602082840312156149ad57600080fd5b8151600c81106107ea57600080fd5b600082516149ce818460208701614120565b919091019291505056fe52656d6f7465204c61756e636820616e642047756964616e63652053797374656da264697066735822122069164db761cf4068b41bbcec44e4d449b8a4347247efa5165003be16ad3db9be64736f6c634300080b0033",
  "immutableReferences": {},
  "source": "// SPDX-License-Identifier: GPL-3.0\npragma solidity >=0.8.0;\n\nimport \"../HexplorationBoard.sol\";\nimport \"../HexplorationZone.sol\";\nimport \"@luckymachines/game-core/contracts/src/v0.0/PlayerRegistry.sol\";\nimport \"./CharacterCard.sol\";\nimport \"../tokens/TokenInventory.sol\";\nimport \"../HexplorationQueue.sol\";\n\nlibrary GameSummary {\n    // Function called by frontent for game info\n    function boardSize(address gameBoardAddress)\n        public\n        view\n        returns (uint256 rows, uint256 columns)\n    {\n        HexplorationBoard board = HexplorationBoard(gameBoardAddress);\n        rows = board.gridHeight();\n        columns = board.gridWidth();\n    }\n\n    function isRegistered(\n        address gameBoardAddress,\n        uint256 gameID,\n        address playerAddress\n    ) public view returns (bool) {\n        HexplorationBoard board = HexplorationBoard(gameBoardAddress);\n        PlayerRegistry pr = PlayerRegistry(board.prAddress());\n        return pr.isRegistered(gameID, playerAddress);\n    }\n\n    function getPlayerID(\n        address gameBoardAddress,\n        uint256 gameID,\n        address playerAddress\n    ) public view returns (uint256 playerID) {\n        HexplorationBoard board = HexplorationBoard(gameBoardAddress);\n        PlayerRegistry pr = PlayerRegistry(board.prAddress());\n        playerID = pr.playerID(gameID, playerAddress);\n    }\n\n    function currentGameplayQueue(address gameBoardAddress, uint256 gameID)\n        public\n        view\n        returns (uint256)\n    {\n        HexplorationBoard board = HexplorationBoard(gameBoardAddress);\n        HexplorationQueue q = HexplorationQueue(board.gameplayQueue());\n        return q.queueID(gameID);\n    }\n\n    function currentPhase(address gameBoardAddress, uint256 gameID)\n        public\n        view\n        returns (string memory phase)\n    {\n        HexplorationBoard board = HexplorationBoard(gameBoardAddress);\n        TokenInventory tokens = TokenInventory(board.tokenInventory());\n\n        uint256 dayBalance = tokens.DAY_NIGHT_TOKEN().balance(\"Day\", gameID, 1);\n        phase = dayBalance > 0 ? \"Day\" : \"Night\";\n    }\n\n    function activeZones(address gameBoardAddress, uint256 gameID)\n        public\n        view\n        returns (string[] memory zones, uint16[] memory tiles)\n    {\n        HexplorationBoard board = HexplorationBoard(gameBoardAddress);\n        string[] memory allZones = board.getZoneAliases();\n\n        uint16 activeZoneCount = 0;\n        for (uint256 i = 0; i < allZones.length; i++) {\n            if (board.zoneEnabled(gameID, allZones[i])) {\n                activeZoneCount++;\n            }\n        }\n        zones = new string[](activeZoneCount);\n        tiles = new uint16[](activeZoneCount);\n\n        activeZoneCount = 0;\n        for (uint256 i = 0; i < allZones.length; i++) {\n            if (board.zoneEnabled(gameID, allZones[i])) {\n                zones[activeZoneCount] = allZones[i];\n                HexplorationZone hexZone = HexplorationZone(\n                    board.hexZoneAddress()\n                );\n                tiles[activeZoneCount] = uint16(\n                    hexZone.tile(gameID, allZones[i])\n                );\n                activeZoneCount++;\n            }\n        }\n    }\n\n    function landingSite(address gameBoardAddress, uint256 gameID)\n        public\n        view\n        returns (string memory)\n    {\n        return HexplorationBoard(gameBoardAddress).initialPlayZone(gameID);\n    }\n\n    function allPlayerLocations(address gameBoardAddress, uint256 gameID)\n        public\n        view\n        returns (uint256[] memory, string[] memory)\n    {\n        HexplorationBoard board = HexplorationBoard(gameBoardAddress);\n        PlayerRegistry pr = PlayerRegistry(board.prAddress());\n        uint256 totalRegistrations = pr.totalRegistrations(gameID);\n        uint256[] memory playerIDs = new uint256[](totalRegistrations);\n        string[] memory playerZones = new string[](totalRegistrations);\n        for (uint256 i = 0; i < totalRegistrations; i++) {\n            playerIDs[i] = i + 1;\n            playerZones[i] = board.currentPlayZone(gameID, i + 1);\n        }\n        return (playerIDs, playerZones);\n    }\n\n    // Functions called directly by players\n    function currentLocation(address gameBoardAddress, uint256 gameID)\n        public\n        view\n        returns (string memory)\n    {\n        HexplorationBoard board = HexplorationBoard(gameBoardAddress);\n        PlayerRegistry pr = PlayerRegistry(board.prAddress());\n        return board.currentPlayZone(gameID, pr.playerID(gameID, msg.sender));\n    }\n\n    function currentPlayerStats(address gameBoardAddress, uint256 gameID)\n        public\n        view\n        returns (\n            uint8 movement,\n            uint8 agility,\n            uint8 dexterity\n        )\n    {\n        HexplorationBoard board = HexplorationBoard(gameBoardAddress);\n        CharacterCard cc = CharacterCard(board.characterCard());\n        PlayerRegistry pr = PlayerRegistry(board.prAddress());\n        uint256 playerID = pr.playerID(gameID, msg.sender);\n        movement = cc.movement(gameID, playerID);\n        agility = cc.agility(gameID, playerID);\n        dexterity = cc.dexterity(gameID, playerID);\n    }\n\n    function currentHandInventory(address gameBoardAddress, uint256 gameID)\n        public\n        view\n        returns (string memory leftHandItem, string memory rightHandItem)\n    {\n        HexplorationBoard board = HexplorationBoard(gameBoardAddress);\n        CharacterCard cc = CharacterCard(board.characterCard());\n        PlayerRegistry pr = PlayerRegistry(board.prAddress());\n        uint256 playerID = pr.playerID(gameID, msg.sender);\n        leftHandItem = inventoryItemExists(\n            cc.leftHandItem(gameID, playerID),\n            board.tokenInventory(),\n            gameID,\n            PlayerRegistry(board.prAddress()).playerID(gameID, msg.sender)\n        )\n            ? cc.leftHandItem(gameID, playerID)\n            : \"\";\n\n        rightHandItem = inventoryItemExists(\n            cc.rightHandItem(gameID, playerID),\n            board.tokenInventory(),\n            gameID,\n            PlayerRegistry(board.prAddress()).playerID(gameID, msg.sender)\n        )\n            ? cc.rightHandItem(gameID, playerID)\n            : \"\";\n    }\n\n    function activeInventory(address gameBoardAddress, uint256 gameID)\n        public\n        view\n        returns (\n            string memory artifact,\n            string memory status,\n            string memory relic,\n            bool shield,\n            bool campsite\n        )\n    {\n        HexplorationBoard board = HexplorationBoard(gameBoardAddress);\n        CharacterCard cc = CharacterCard(board.characterCard());\n        PlayerRegistry pr = PlayerRegistry(board.prAddress());\n        uint256 playerID = pr.playerID(gameID, msg.sender);\n        artifact = inventoryArtifactExists(\n            cc.artifact(gameID, playerID),\n            board.tokenInventory(),\n            gameID,\n            playerID\n        )\n            ? cc.artifact(gameID, playerID)\n            : \"\";\n\n        status = inventoryStatusExists(\n            cc.status(gameID, playerID),\n            board.tokenInventory(),\n            gameID,\n            playerID\n        )\n            ? cc.status(gameID, playerID)\n            : \"\";\n\n        relic = inventoryItemExists(\n            cc.relic(gameID, playerID),\n            board.tokenInventory(),\n            gameID,\n            playerID\n        )\n            ? cc.relic(gameID, playerID)\n            : \"\";\n\n        shield = inventoryItemExists(\n            \"Shield\",\n            board.tokenInventory(),\n            gameID,\n            playerID\n        )\n            ? true\n            : false;\n\n        campsite = inventoryItemExists(\n            \"Campsite\",\n            board.tokenInventory(),\n            gameID,\n            playerID\n        )\n            ? true\n            : false;\n    }\n\n    function inactiveInventory(address gameBoardAddress, uint256 gameID)\n        public\n        view\n        returns (string[] memory itemTypes, uint256[] memory itemBalances)\n    {\n        HexplorationBoard board = HexplorationBoard(gameBoardAddress);\n        PlayerRegistry pr = PlayerRegistry(board.prAddress());\n        TokenInventory ti = TokenInventory(board.tokenInventory());\n        itemBalances = new uint256[](35);\n        itemTypes = new string[](35);\n        itemTypes[0] = \"Small Ammo\";\n        itemTypes[1] = \"Large Ammo\";\n        itemTypes[2] = \"Batteries\";\n        itemTypes[3] = \"Shield\";\n        itemTypes[4] = \"Portal\";\n        itemTypes[5] = \"On\";\n        itemTypes[6] = \"Off\";\n        itemTypes[7] = \"Rusty Dagger\";\n        itemTypes[8] = \"Rusty Sword\";\n        itemTypes[9] = \"Rusty Pistol\";\n        itemTypes[10] = \"Rusty Rifle\";\n        itemTypes[11] = \"Shiny Dagger\";\n        itemTypes[12] = \"Shiny Sword\";\n        itemTypes[13] = \"Shiny Pistol\";\n        itemTypes[14] = \"Shiny Rifle\";\n        itemTypes[15] = \"Laser Dagger\";\n        itemTypes[16] = \"Laser Sword\";\n        itemTypes[17] = \"Laser Pistol\";\n        itemTypes[18] = \"Laser Rifle\";\n        itemTypes[19] = \"Glow stick\";\n        itemTypes[20] = \"Flashlight\";\n        itemTypes[21] = \"Flood light\";\n        itemTypes[22] = \"Nightvision Goggles\";\n        itemTypes[23] = \"Personal Shield\";\n        itemTypes[24] = \"Bubble Shield\";\n        itemTypes[25] = \"Frag Grenade\";\n        itemTypes[26] = \"Fire Grenade\";\n        itemTypes[27] = \"Shock Grenade\";\n        itemTypes[28] = \"HE Mortar\";\n        itemTypes[29] = \"Incendiary Mortar\";\n        itemTypes[30] = \"EMP Mortar\";\n        itemTypes[31] = \"Power Glove\";\n        itemTypes[32] = \"Remote Launch and Guidance System\";\n        itemTypes[33] = \"Teleporter Pack\";\n        itemTypes[34] = \"Campsite\";\n        uint256 playerID = pr.playerID(gameID, msg.sender);\n        if (ti.holdsToken(playerID, TokenInventory.Token.Item, gameID)) {\n            Item itemToken = ti.ITEM_TOKEN();\n            string[] memory types = itemToken.getTokenTypes();\n            for (uint256 i = 0; i < itemBalances.length; i++) {\n                itemTypes[i] = types[i];\n                itemBalances[i] = itemToken.balance(types[i], gameID, playerID);\n            }\n        }\n        // uint256 campsiteBalance = ti.ITEM_TOKEN().balance(\n        //     \"Campsite\",\n        //     gameID,\n        //     playerID\n        // );\n        // itemBalances[34] = campsiteBalance;\n    }\n\n    // Internal Stuff\n    function inventoryItemExists(\n        string memory tokenType,\n        address inventoryAddress,\n        uint256 gameID,\n        uint256 holderID\n    ) internal view returns (bool) {\n        return\n            TokenInventory(inventoryAddress).ITEM_TOKEN().balance(\n                tokenType,\n                gameID,\n                holderID\n            ) > 0;\n    }\n\n    function inventoryArtifactExists(\n        string memory tokenType,\n        address inventoryAddress,\n        uint256 gameID,\n        uint256 holderID\n    ) internal view returns (bool) {\n        return\n            TokenInventory(inventoryAddress).ARTIFACT_TOKEN().balance(\n                tokenType,\n                gameID,\n                holderID\n            ) > 0;\n    }\n\n    function inventoryStatusExists(\n        string memory tokenType,\n        address inventoryAddress,\n        uint256 gameID,\n        uint256 holderID\n    ) internal view returns (bool) {\n        return\n            TokenInventory(inventoryAddress).PLAYER_STATUS_TOKEN().balance(\n                tokenType,\n                gameID,\n                holderID\n            ) > 0;\n    }\n\n    function zoneIndex(address gameBoardAddress, string memory zoneAlias)\n        internal\n        view\n        returns (uint256 index)\n    {\n        index = 1111111111111;\n        HexplorationBoard board = HexplorationBoard(gameBoardAddress);\n        string[] memory allZones = board.getZoneAliases();\n        for (uint256 i = 0; i < allZones.length; i++) {\n            if (\n                keccak256(abi.encodePacked(zoneAlias)) ==\n                keccak256(abi.encodePacked(allZones[i]))\n            ) {\n                index = i;\n                break;\n            }\n        }\n    }\n\n    // TODO:\n    // Functions to complete\n\n    function lastDayPhaseEvents(address gameBoardAddress, uint256 gameID)\n        public\n        returns (\n            uint256[] memory playerIDs,\n            string[] memory activeActionCardTypes,\n            string[] memory activeActionCardsDrawn,\n            string[] memory currentActiveActions,\n            string[] memory activeActionCardResults,\n            string[3][] memory activeActionCardInventoryChanges\n        )\n    {}\n\n    // SHINY NEW FUNCTIONS!!!\n\n    function lastPlayerActions(address gameBoardAddress, uint256 gameID)\n        public\n        view\n        returns (\n            uint256[] memory playerIDs,\n            string[] memory activeActionCardTypes,\n            string[] memory activeActionCardsDrawn,\n            uint8[] memory currentActiveActions,\n            string[] memory activeActionCardResults,\n            string[3][] memory activeActionCardInventoryChanges\n        )\n    {\n        HexplorationBoard board = HexplorationBoard(gameBoardAddress);\n        CharacterCard cc = CharacterCard(board.characterCard());\n        PlayerRegistry pr = PlayerRegistry(board.prAddress());\n        uint256 totalRegistrations = pr.totalRegistrations(gameID);\n        playerIDs = new uint256[](totalRegistrations);\n        activeActionCardTypes = new string[](totalRegistrations);\n        activeActionCardsDrawn = new string[](totalRegistrations);\n        currentActiveActions = new uint8[](totalRegistrations);\n        activeActionCardResults = new string[](totalRegistrations);\n        activeActionCardInventoryChanges = new string[3][](totalRegistrations);\n\n        for (uint256 i = 0; i < totalRegistrations; i++) {\n            uint256 pID = i + 1;\n            playerIDs[i] = pID;\n            activeActionCardTypes[i] = cc.activeActionCardType(gameID, pID);\n            activeActionCardsDrawn[i] = cc.activeActionCardDrawn(gameID, pID);\n            currentActiveActions[i] = uint8(cc.action(gameID, pID));\n            activeActionCardResults[i] = cc.activeActionCardResult(gameID, pID);\n            activeActionCardInventoryChanges[i] = cc.getInventoryChanges(\n                gameID,\n                pID\n            );\n        }\n        // returns\n        // playerIDs\n        // activeActionCardType - // \"Event\",\"Ambush\",\"Treasure\"\n        // activationActionCardsDrawn = card title of card drawn\n        // currentActveActions - action doing that led to card draw\n        // activeActionCardResults - outcomes of cards\n        // activeActionCardInventoryChangs - item loss, item gain, hand loss (left/right)\n    }\n\n    function getAvailableGameIDs(\n        address gameBoardAddress,\n        address gameRegistryAddress\n    ) public view returns (uint256[] memory) {\n        return\n            HexplorationBoard(gameBoardAddress).openGames(gameRegistryAddress);\n    }\n\n    function isAtCampsite(address gameBoardAddress, uint256 gameID)\n        public\n        view\n        returns (bool atCampsite)\n    {\n        HexplorationBoard board = HexplorationBoard(gameBoardAddress);\n        PlayerRegistry pr = PlayerRegistry(board.prAddress());\n        string memory currentZone = board.currentPlayZone(\n            gameID,\n            pr.playerID(gameID, msg.sender)\n        );\n        uint256 index = zoneIndex(gameBoardAddress, currentZone);\n        // zone balance...\n        //mapping(string => mapping(uint256 => mapping(uint256 => uint256)))\n\n        atCampsite =\n            TokenInventory(board.tokenInventory()).ITEM_TOKEN().zoneBalance(\n                \"Campsite\",\n                gameID,\n                index\n            ) >\n            0;\n    }\n\n    function activeAction(address gameBoardAddress, uint256 gameID)\n        public\n        view\n        returns (string memory action)\n    {\n        HexplorationBoard board = HexplorationBoard(gameBoardAddress);\n        CharacterCard cc = CharacterCard(board.characterCard());\n        uint256 playerID = PlayerRegistry(board.prAddress()).playerID(\n            gameID,\n            msg.sender\n        );\n        CharacterCard.Action a = cc.action(gameID, playerID);\n\n        action = \"Idle\";\n        if (a == CharacterCard.Action.Move) {\n            action = \"Move\";\n        } else if (a == CharacterCard.Action.SetupCamp) {\n            action = \"Setup camp\";\n        } else if (a == CharacterCard.Action.BreakDownCamp) {\n            action = \"Break down camp\";\n        } else if (a == CharacterCard.Action.Dig) {\n            action = \"Dig\";\n        } else if (a == CharacterCard.Action.Rest) {\n            action = \"Rest\";\n        } else if (a == CharacterCard.Action.Help) {\n            action = \"Help\";\n        }\n    }\n}\n",
  "sourcePath": "/Users/maxmeier/Developer/Lucky Machines/hexploration/contracts/state/GameSummary.sol",
  "compiler": {
    "name": "solc",
    "version": "0.8.11+commit.d7f03943.Emscripten.clang"
  },
  "schemaVersion": "3.4.4",
  "updatedAt": "2022-06-16T23:24:45.389Z",
  "devdoc": {
    "kind": "dev",
    "methods": {},
    "version": 1
  },
  "userdoc": {
    "kind": "user",
    "methods": {},
    "version": 1
  }
}