{
  "contractName": "GameSummary",
  "abi": [
    {
      "inputs": [
        {
          "internalType": "address",
          "name": "gameBoardAddress",
          "type": "address"
        }
      ],
      "name": "boardSize",
      "outputs": [
        {
          "internalType": "uint256",
          "name": "rows",
          "type": "uint256"
        },
        {
          "internalType": "uint256",
          "name": "columns",
          "type": "uint256"
        }
      ],
      "stateMutability": "view",
      "type": "function",
      "constant": true
    },
    {
      "inputs": [
        {
          "internalType": "address",
          "name": "gameBoardAddress",
          "type": "address"
        },
        {
          "internalType": "uint256",
          "name": "gameID",
          "type": "uint256"
        },
        {
          "internalType": "address",
          "name": "playerAddress",
          "type": "address"
        }
      ],
      "name": "isRegistered",
      "outputs": [
        {
          "internalType": "bool",
          "name": "",
          "type": "bool"
        }
      ],
      "stateMutability": "view",
      "type": "function",
      "constant": true
    },
    {
      "inputs": [
        {
          "internalType": "address",
          "name": "gameBoardAddress",
          "type": "address"
        },
        {
          "internalType": "uint256",
          "name": "gameID",
          "type": "uint256"
        }
      ],
      "name": "activeZones",
      "outputs": [
        {
          "internalType": "string[]",
          "name": "zones",
          "type": "string[]"
        },
        {
          "internalType": "uint16[]",
          "name": "tiles",
          "type": "uint16[]"
        }
      ],
      "stateMutability": "view",
      "type": "function",
      "constant": true
    },
    {
      "inputs": [
        {
          "internalType": "address",
          "name": "gameBoardAddress",
          "type": "address"
        },
        {
          "internalType": "uint256",
          "name": "gameID",
          "type": "uint256"
        }
      ],
      "name": "landingSite",
      "outputs": [
        {
          "internalType": "string",
          "name": "",
          "type": "string"
        }
      ],
      "stateMutability": "view",
      "type": "function",
      "constant": true
    },
    {
      "inputs": [
        {
          "internalType": "address",
          "name": "gameBoardAddress",
          "type": "address"
        },
        {
          "internalType": "uint256",
          "name": "gameID",
          "type": "uint256"
        }
      ],
      "name": "currentLocation",
      "outputs": [
        {
          "internalType": "string",
          "name": "",
          "type": "string"
        }
      ],
      "stateMutability": "view",
      "type": "function",
      "constant": true
    },
    {
      "inputs": [
        {
          "internalType": "address",
          "name": "gameBoardAddress",
          "type": "address"
        },
        {
          "internalType": "uint256",
          "name": "gameID",
          "type": "uint256"
        }
      ],
      "name": "allPlayerLocations",
      "outputs": [
        {
          "internalType": "uint256[]",
          "name": "",
          "type": "uint256[]"
        },
        {
          "internalType": "string[]",
          "name": "",
          "type": "string[]"
        }
      ],
      "stateMutability": "view",
      "type": "function",
      "constant": true
    },
    {
      "inputs": [
        {
          "internalType": "address",
          "name": "gameBoardAddress",
          "type": "address"
        },
        {
          "internalType": "uint256",
          "name": "gameID",
          "type": "uint256"
        }
      ],
      "name": "currentPlayerStats",
      "outputs": [
        {
          "internalType": "uint8",
          "name": "movement",
          "type": "uint8"
        },
        {
          "internalType": "uint8",
          "name": "agility",
          "type": "uint8"
        },
        {
          "internalType": "uint8",
          "name": "dexterity",
          "type": "uint8"
        },
        {
          "internalType": "string",
          "name": "leftHandItem",
          "type": "string"
        },
        {
          "internalType": "string",
          "name": "rightHandItem",
          "type": "string"
        },
        {
          "internalType": "string",
          "name": "artifact",
          "type": "string"
        },
        {
          "internalType": "string",
          "name": "status",
          "type": "string"
        },
        {
          "internalType": "string",
          "name": "relic",
          "type": "string"
        },
        {
          "internalType": "bool",
          "name": "shield",
          "type": "bool"
        },
        {
          "internalType": "bool",
          "name": "campsite",
          "type": "bool"
        }
      ],
      "stateMutability": "view",
      "type": "function",
      "constant": true
    }
  ],
  "bytecode": "0x61155a610053600b82828239805160001a607314610046577f4e487b7100000000000000000000000000000000000000000000000000000000600052600060045260246000fd5b30600052607381538281f3fe730000000000000000000000000000000000000000301460806040526004361061008b5760003560e060020a90048063cabd6fda11610069578063cabd6fda14610103578063e569d33a14610126578063ee203a8e14610147578063f8ffdfcc1461016f57600080fd5b80632f874fe0146100905780638191e062146100c2578063821ba3a1146100e3575b600080fd5b6100a361009e366004610f96565b610182565b6040516100b99a9998979695949392919061101e565b60405180910390f35b6100d56100d0366004610f96565b61050e565b6040516100b9929190611115565b6100f66100f1366004610f96565b610793565b6040516100b99190611162565b610116610111366004611175565b610823565b60405190151581526020016100b9565b610139610134366004610f96565b610928565b6040516100b99291906111b7565b61015a610155366004611205565b610d2c565b604080519283526020830191909152016100b9565b6100f661017d366004610f96565b610e08565b6000806000606080606080606060008060008c9050600081600160a060020a03166324a5f50e6040518163ffffffff1660e060020a028152600401602060405180830381865afa1580156101da573d6000803e3d6000fd5b505050506040513d601f19601f820116820180604052508101906101fe9190611222565b6040517ffdf5a31c000000000000000000000000000000000000000000000000000000008152600481018f9052336024820152909150600160a060020a0382169063fdf5a31c90604401602060405180830381865afa158015610265573d6000803e3d6000fd5b505050506040513d601f19601f82011682018060405250810190610289919061123f565b6040517fca318967000000000000000000000000000000000000000000000000000000008152600481018f9052336024820152909c50600160a060020a0382169063ca31896790604401602060405180830381865afa1580156102f0573d6000803e3d6000fd5b505050506040513d601f19601f82011682018060405250810190610314919061123f565b6040517f989c11a9000000000000000000000000000000000000000000000000000000008152600481018f9052336024820152909b50600160a060020a0382169063989c11a990604401602060405180830381865afa15801561037b573d6000803e3d6000fd5b505050506040513d601f19601f8201168201806040525081019061039f919061123f565b6040517fa082936d000000000000000000000000000000000000000000000000000000008152600481018f9052336024820152909a50600160a060020a0382169063a082936d90604401600060405180830381865afa158015610406573d6000803e3d6000fd5b505050506040513d6000823e601f3d908101601f1916820160405261042e9190810190611318565b6040517f66625370000000000000000000000000000000000000000000000000000000008152600481018f9052336024820152909950600160a060020a03821690636662537090604401600060405180830381865afa158015610495573d6000803e3d6000fd5b505050506040513d6000823e601f3d908101601f191682016040526104bd9190810190611318565b9750604051806020016040528060008152509650604051806020016040528060008152509550604051806020016040528060008152509450600093506000925050509295989b9194979a5092959850565b6060806000849050600081600160a060020a031663c06dea4e6040518163ffffffff1660e060020a028152600401602060405180830381865afa158015610559573d6000803e3d6000fd5b505050506040513d601f19601f8201168201806040525081019061057d9190611222565b6040517fb77ff41100000000000000000000000000000000000000000000000000000000815260048101879052909150600090600160a060020a0383169063b77ff41190602401602060405180830381865afa1580156105e1573d6000803e3d6000fd5b505050506040513d601f19601f82011682018060405250810190610605919061134d565b905060008167ffffffffffffffff81111561062257610622611262565b60405190808252806020026020018201604052801561064b578160200160208202803683370190505b50905060008267ffffffffffffffff81111561066957610669611262565b60405190808252806020026020018201604052801561069c57816020015b60608152602001906001900390816106875790505b50905060005b83811015610784576106b581600161137f565b8382815181106106c7576106c7611397565b6020908102919091010152600160a060020a03861663d75e79808a6106ed84600161137f565b60405160e060020a63ffffffff851602815260048101929092526024820152604401600060405180830381865afa15801561072c573d6000803e3d6000fd5b505050506040513d6000823e601f3d908101601f191682016040526107549190810190611318565b82828151811061076657610766611397565b6020026020010181905250808061077c906113b0565b9150506106a2565b50909890975095505050505050565b6040517feb33983d00000000000000000000000000000000000000000000000000000000815260048101829052606090600160a060020a0384169063eb33983d90602401600060405180830381865afa1580156107f4573d6000803e3d6000fd5b505050506040513d6000823e601f3d908101601f1916820160405261081c9190810190611318565b9392505050565b600080849050600081600160a060020a031663c06dea4e6040518163ffffffff1660e060020a028152600401602060405180830381865afa15801561086c573d6000803e3d6000fd5b505050506040513d601f19601f820116820180604052508101906108909190611222565b6040517fb81f6e1800000000000000000000000000000000000000000000000000000000815260048101879052600160a060020a0386811660248301529192509082169063b81f6e1890604401602060405180830381865afa1580156108fa573d6000803e3d6000fd5b505050506040513d601f19601f8201168201806040525081019061091e91906113cb565b9695505050505050565b6060806000849050600081600160a060020a0316633ca61a586040518163ffffffff1660e060020a028152600401600060405180830381865afa158015610973573d6000803e3d6000fd5b505050506040513d6000823e601f3d908101601f1916820160405261099b91908101906113ed565b90506000805b8251811015610a5a5783600160a060020a031663ed3719a5888584815181106109cc576109cc611397565b60200260200101516040518363ffffffff1660e060020a0281526004016109f49291906114af565b602060405180830381865afa158015610a11573d6000803e3d6000fd5b505050506040513d601f19601f82011682018060405250810190610a3591906113cb565b15610a485781610a44816114c8565b9250505b80610a52816113b0565b9150506109a1565b508061ffff1667ffffffffffffffff811115610a7857610a78611262565b604051908082528060200260200182016040528015610aab57816020015b6060815260200190600190039081610a965790505b5094508061ffff1667ffffffffffffffff811115610acb57610acb611262565b604051908082528060200260200182016040528015610af4578160200160208202803683370190505b5093506000905060005b8251811015610d215783600160a060020a031663ed3719a588858481518110610b2957610b29611397565b60200260200101516040518363ffffffff1660e060020a028152600401610b519291906114af565b602060405180830381865afa158015610b6e573d6000803e3d6000fd5b505050506040513d601f19601f82011682018060405250810190610b9291906113cb565b15610d0f57828181518110610ba957610ba9611397565b6020026020010151868361ffff1681518110610bc757610bc7611397565b6020026020010181905250600084600160a060020a03166335e333e46040518163ffffffff1660e060020a028152600401602060405180830381865afa158015610c15573d6000803e3d6000fd5b505050506040513d601f19601f82011682018060405250810190610c399190611222565b905080600160a060020a03166330821b9c89868581518110610c5d57610c5d611397565b60200260200101516040518363ffffffff1660e060020a028152600401610c859291906114af565b602060405180830381865afa158015610ca2573d6000803e3d6000fd5b505050506040513d601f19601f82011682018060405250810190610cc691906114ea565b600b811115610cd757610cd761150b565b868461ffff1681518110610ced57610ced611397565b61ffff9092166020928302919091019091015282610d0a816114c8565b935050505b80610d19816113b0565b915050610afe565b505050509250929050565b600080600083905080600160a060020a031663108c5e146040518163ffffffff1660e060020a028152600401602060405180830381865afa158015610d75573d6000803e3d6000fd5b505050506040513d601f19601f82011682018060405250810190610d99919061134d565b925080600160a060020a03166338b145df6040518163ffffffff1660e060020a028152600401602060405180830381865afa158015610ddc573d6000803e3d6000fd5b505050506040513d601f19601f82011682018060405250810190610e00919061134d565b915050915091565b60606000839050600081600160a060020a031663c06dea4e6040518163ffffffff1660e060020a028152600401602060405180830381865afa158015610e52573d6000803e3d6000fd5b505050506040513d601f19601f82011682018060405250810190610e769190611222565b6040517fbca7caa000000000000000000000000000000000000000000000000000000000815260048101869052336024820152909150600160a060020a038084169163d75e79809187919085169063bca7caa090604401602060405180830381865afa158015610eea573d6000803e3d6000fd5b505050506040513d601f19601f82011682018060405250810190610f0e919061134d565b60405160e060020a63ffffffff851602815260048101929092526024820152604401600060405180830381865afa158015610f4d573d6000803e3d6000fd5b505050506040513d6000823e601f3d908101601f19168201604052610f759190810190611318565b95945050505050565b600160a060020a0381168114610f9357600080fd5b50565b60008060408385031215610fa957600080fd5b8235610fb481610f7e565b946020939093013593505050565b60005b83811015610fdd578181015183820152602001610fc5565b83811115610fec576000848401525b50505050565b6000815180845261100a816020860160208601610fc2565b601f01601f19169290920160200192915050565b600061014060ff8d16835260ff8c16602084015260ff8b16604084015280606084015261104d8184018b610ff2565b90508281036080840152611061818a610ff2565b905082810360a08401526110758189610ff2565b905082810360c08401526110898188610ff2565b905082810360e084015261109d8187610ff2565b94151561010084015250509015156101209091015298975050505050505050565b6000828251808552602080860195508081830284010181860160005b8481101561110857601f198684030189526110f6838351610ff2565b988401989250908301906001016110da565b5090979650505050505050565b604080825283519082018190526000906020906060840190828701845b8281101561114e57815184529284019290840190600101611132565b5050508381038285015261091e81866110be565b60208152600061081c6020830184610ff2565b60008060006060848603121561118a57600080fd5b833561119581610f7e565b92506020840135915060408401356111ac81610f7e565b809150509250925092565b6040815260006111ca60408301856110be565b82810360208481019190915284518083528582019282019060005b8181101561110857845161ffff16835293830193918301916001016111e5565b60006020828403121561121757600080fd5b813561081c81610f7e565b60006020828403121561123457600080fd5b815161081c81610f7e565b60006020828403121561125157600080fd5b815160ff8116811461081c57600080fd5b60e060020a634e487b7102600052604160045260246000fd5b604051601f8201601f1916810167ffffffffffffffff811182821017156112a4576112a4611262565b604052919050565b600082601f8301126112bd57600080fd5b815167ffffffffffffffff8111156112d7576112d7611262565b6112ea601f8201601f191660200161127b565b8181528460208386010111156112ff57600080fd5b611310826020830160208701610fc2565b949350505050565b60006020828403121561132a57600080fd5b815167ffffffffffffffff81111561134157600080fd5b611310848285016112ac565b60006020828403121561135f57600080fd5b5051919050565b60e060020a634e487b7102600052601160045260246000fd5b6000821982111561139257611392611366565b500190565b60e060020a634e487b7102600052603260045260246000fd5b60006000198214156113c4576113c4611366565b5060010190565b6000602082840312156113dd57600080fd5b8151801515811461081c57600080fd5b6000602080838503121561140057600080fd5b825167ffffffffffffffff8082111561141857600080fd5b818501915085601f83011261142c57600080fd5b81518181111561143e5761143e611262565b83810261144c85820161127b565b918252838101850191858101908984111561146657600080fd5b86860192505b838310156114a2578251858111156114845760008081fd5b6114928b89838a01016112ac565b835250918601919086019061146c565b9998505050505050505050565b8281526040602082015260006113106040830184610ff2565b600061ffff808316818114156114e0576114e0611366565b6001019392505050565b6000602082840312156114fc57600080fd5b8151600c811061081c57600080fd5b60e060020a634e487b7102600052602160045260246000fdfea2646970667358221220ea9e7f0861e51697cf19dba3a59a6d0370eadd230c232720e7850dd2399f042664736f6c634300080b0033",
  "immutableReferences": {},
  "source": "// SPDX-License-Identifier: GPL-3.0\npragma solidity >=0.8.0;\n\nimport \"../HexplorationBoard.sol\";\nimport \"../HexplorationZone.sol\";\nimport \"@luckymachines/game-core/contracts/src/v0.0/PlayerRegistry.sol\";\nimport \"./CharacterCard.sol\";\n// Game Wallets\nimport \"./GameWallet.sol\";\n\nlibrary GameSummary {\n    // enemies\n    // tokens\n    function boardSize(address gameBoardAddress)\n        public\n        view\n        returns (uint256 rows, uint256 columns)\n    {\n        HexplorationBoard board = HexplorationBoard(gameBoardAddress);\n        rows = board.gridHeight();\n        columns = board.gridWidth();\n    }\n\n    function isRegistered(\n        address gameBoardAddress,\n        uint256 gameID,\n        address playerAddress\n    ) public view returns (bool) {\n        HexplorationBoard board = HexplorationBoard(gameBoardAddress);\n        PlayerRegistry pr = PlayerRegistry(board.prAddress());\n        return pr.isRegistered(gameID, playerAddress);\n    }\n\n    function activeZones(address gameBoardAddress, uint256 gameID)\n        public\n        view\n        returns (string[] memory zones, uint16[] memory tiles)\n    {\n        HexplorationBoard board = HexplorationBoard(gameBoardAddress);\n        string[] memory allZones = board.getZoneAliases();\n\n        uint16 activeZoneCount = 0;\n        for (uint256 i = 0; i < allZones.length; i++) {\n            if (board.zoneEnabled(gameID, allZones[i])) {\n                activeZoneCount++;\n            }\n        }\n        zones = new string[](activeZoneCount);\n        tiles = new uint16[](activeZoneCount);\n\n        activeZoneCount = 0;\n        for (uint256 i = 0; i < allZones.length; i++) {\n            if (board.zoneEnabled(gameID, allZones[i])) {\n                zones[activeZoneCount] = allZones[i];\n                HexplorationZone hexZone = HexplorationZone(\n                    board.hexZoneAddress()\n                );\n                tiles[activeZoneCount] = uint16(\n                    hexZone.tile(gameID, allZones[i])\n                );\n                activeZoneCount++;\n            }\n        }\n    }\n\n    function landingSite(address gameBoardAddress, uint256 gameID)\n        public\n        view\n        returns (string memory)\n    {\n        return HexplorationBoard(gameBoardAddress).initialPlayZone(gameID);\n    }\n\n    function currentLocation(address gameBoardAddress, uint256 gameID)\n        public\n        view\n        returns (string memory)\n    {\n        HexplorationBoard board = HexplorationBoard(gameBoardAddress);\n        PlayerRegistry pr = PlayerRegistry(board.prAddress());\n        return board.currentPlayZone(gameID, pr.playerID(gameID, msg.sender));\n    }\n\n    function allPlayerLocations(address gameBoardAddress, uint256 gameID)\n        public\n        view\n        returns (uint256[] memory, string[] memory)\n    {\n        HexplorationBoard board = HexplorationBoard(gameBoardAddress);\n        PlayerRegistry pr = PlayerRegistry(board.prAddress());\n        uint256 totalRegistrations = pr.totalRegistrations(gameID);\n        uint256[] memory playerIDs = new uint256[](totalRegistrations);\n        string[] memory playerZones = new string[](totalRegistrations);\n        for (uint256 i = 0; i < totalRegistrations; i++) {\n            playerIDs[i] = i + 1;\n            playerZones[i] = board.currentPlayZone(gameID, i + 1);\n        }\n        return (playerIDs, playerZones);\n    }\n\n    function currentPlayerStats(address gameBoardAddress, uint256 gameID)\n        public\n        view\n        returns (\n            uint8 movement,\n            uint8 agility,\n            uint8 dexterity,\n            string memory leftHandItem,\n            string memory rightHandItem,\n            string memory artifact,\n            string memory status,\n            string memory relic,\n            bool shield,\n            bool campsite\n        )\n    {\n        HexplorationBoard board = HexplorationBoard(gameBoardAddress);\n        CharacterCard cc = CharacterCard(board.characterCardAddress());\n        movement = cc.movement(gameID, msg.sender);\n        agility = cc.agility(gameID, msg.sender);\n        dexterity = cc.dexterity(gameID, msg.sender);\n        leftHandItem = cc.leftHandItem(gameID, msg.sender);\n        rightHandItem = cc.rightHandItem(gameID, msg.sender);\n        artifact = \"\";\n        status = \"\";\n        relic = \"\";\n        shield = false;\n        campsite = false;\n    }\n}\n",
  "sourcePath": "/Users/maxmeier/Developer/Lucky Machines/hexploration/contracts/state/GameSummary.sol",
  "compiler": {
    "name": "solc",
    "version": "0.8.11+commit.d7f03943.Emscripten.clang"
  },
  "schemaVersion": "3.4.4",
  "updatedAt": "2022-05-16T00:05:24.148Z",
  "networkType": "ethereum",
  "devdoc": {
    "kind": "dev",
    "methods": {},
    "version": 1
  },
  "userdoc": {
    "kind": "user",
    "methods": {},
    "version": 1
  }
}