{
  "contractName": "GameSummary",
  "abi": [
    {
      "inputs": [
        {
          "internalType": "address",
          "name": "gameBoardAddress",
          "type": "address"
        }
      ],
      "name": "boardSize",
      "outputs": [
        {
          "internalType": "uint256",
          "name": "rows",
          "type": "uint256"
        },
        {
          "internalType": "uint256",
          "name": "columns",
          "type": "uint256"
        }
      ],
      "stateMutability": "view",
      "type": "function"
    },
    {
      "inputs": [
        {
          "internalType": "address",
          "name": "gameBoardAddress",
          "type": "address"
        },
        {
          "internalType": "uint256",
          "name": "gameID",
          "type": "uint256"
        }
      ],
      "name": "activeZones",
      "outputs": [
        {
          "internalType": "string[]",
          "name": "zones",
          "type": "string[]"
        },
        {
          "internalType": "uint16[]",
          "name": "tiles",
          "type": "uint16[]"
        }
      ],
      "stateMutability": "view",
      "type": "function"
    },
    {
      "inputs": [
        {
          "internalType": "address",
          "name": "gameBoardAddress",
          "type": "address"
        },
        {
          "internalType": "uint256",
          "name": "gameID",
          "type": "uint256"
        }
      ],
      "name": "landingSite",
      "outputs": [
        {
          "internalType": "string",
          "name": "",
          "type": "string"
        }
      ],
      "stateMutability": "view",
      "type": "function"
    },
    {
      "inputs": [
        {
          "internalType": "address",
          "name": "gameBoardAddress",
          "type": "address"
        },
        {
          "internalType": "uint256",
          "name": "gameID",
          "type": "uint256"
        }
      ],
      "name": "currentLocation",
      "outputs": [
        {
          "internalType": "string",
          "name": "",
          "type": "string"
        }
      ],
      "stateMutability": "view",
      "type": "function"
    },
    {
      "inputs": [
        {
          "internalType": "address",
          "name": "gameBoardAddress",
          "type": "address"
        },
        {
          "internalType": "uint256",
          "name": "gameID",
          "type": "uint256"
        }
      ],
      "name": "allPlayerLocations",
      "outputs": [
        {
          "internalType": "uint256[]",
          "name": "",
          "type": "uint256[]"
        },
        {
          "internalType": "string[]",
          "name": "",
          "type": "string[]"
        }
      ],
      "stateMutability": "view",
      "type": "function"
    }
  ],
  "bytecode": "0x610f65610053600b82828239805160001a607314610046577f4e487b7100000000000000000000000000000000000000000000000000000000600052600060045260246000fd5b30600052607381538281f3fe73000000000000000000000000000000000000000030146080604052600436106100645760e060020a60003504638191e0628114610069578063821ba3a114610093578063e569d33a146100b3578063ee203a8e146100d4578063f8ffdfcc146100fc575b600080fd5b61007c610077366004610a92565b61010f565b60405161008a929190610b6e565b60405180910390f35b6100a66100a1366004610a92565b610394565b60405161008a9190610bc5565b6100c66100c1366004610a92565b610424565b60405161008a929190610bd8565b6100e76100e2366004610c33565b610828565b6040805192835260208301919091520161008a565b6100a661010a366004610a92565b610904565b6060806000849050600081600160a060020a031663c06dea4e6040518163ffffffff1660e060020a028152600401602060405180830381865afa15801561015a573d6000803e3d6000fd5b505050506040513d601f19601f8201168201806040525081019061017e9190610c50565b6040517fb77ff41100000000000000000000000000000000000000000000000000000000815260048101879052909150600090600160a060020a0383169063b77ff41190602401602060405180830381865afa1580156101e2573d6000803e3d6000fd5b505050506040513d601f19601f820116820180604052508101906102069190610c6d565b905060008167ffffffffffffffff81111561022357610223610c86565b60405190808252806020026020018201604052801561024c578160200160208202803683370190505b50905060008267ffffffffffffffff81111561026a5761026a610c86565b60405190808252806020026020018201604052801561029d57816020015b60608152602001906001900390816102885790505b50905060005b83811015610385576102b6816001610cb8565b8382815181106102c8576102c8610cd0565b6020908102919091010152600160a060020a03861663d75e79808a6102ee846001610cb8565b60405160e060020a63ffffffff851602815260048101929092526024820152604401600060405180830381865afa15801561032d573d6000803e3d6000fd5b505050506040513d6000823e601f3d908101601f191682016040526103559190810190610d86565b82828151811061036757610367610cd0565b6020026020010181905250808061037d90610dbb565b9150506102a3565b50909890975095505050505050565b6040517feb33983d00000000000000000000000000000000000000000000000000000000815260048101829052606090600160a060020a0384169063eb33983d90602401600060405180830381865afa1580156103f5573d6000803e3d6000fd5b505050506040513d6000823e601f3d908101601f1916820160405261041d9190810190610d86565b9392505050565b6060806000849050600081600160a060020a0316633ca61a586040518163ffffffff1660e060020a028152600401600060405180830381865afa15801561046f573d6000803e3d6000fd5b505050506040513d6000823e601f3d908101601f191682016040526104979190810190610dd6565b90506000805b82518110156105565783600160a060020a031663ed3719a5888584815181106104c8576104c8610cd0565b60200260200101516040518363ffffffff1660e060020a0281526004016104f0929190610e98565b602060405180830381865afa15801561050d573d6000803e3d6000fd5b505050506040513d601f19601f820116820180604052508101906105319190610eb1565b15610544578161054081610ed3565b9250505b8061054e81610dbb565b91505061049d565b508061ffff1667ffffffffffffffff81111561057457610574610c86565b6040519080825280602002602001820160405280156105a757816020015b60608152602001906001900390816105925790505b5094508061ffff1667ffffffffffffffff8111156105c7576105c7610c86565b6040519080825280602002602001820160405280156105f0578160200160208202803683370190505b5093506000905060005b825181101561081d5783600160a060020a031663ed3719a58885848151811061062557610625610cd0565b60200260200101516040518363ffffffff1660e060020a02815260040161064d929190610e98565b602060405180830381865afa15801561066a573d6000803e3d6000fd5b505050506040513d601f19601f8201168201806040525081019061068e9190610eb1565b1561080b578281815181106106a5576106a5610cd0565b6020026020010151868361ffff16815181106106c3576106c3610cd0565b6020026020010181905250600084600160a060020a03166335e333e46040518163ffffffff1660e060020a028152600401602060405180830381865afa158015610711573d6000803e3d6000fd5b505050506040513d601f19601f820116820180604052508101906107359190610c50565b905080600160a060020a03166330821b9c8986858151811061075957610759610cd0565b60200260200101516040518363ffffffff1660e060020a028152600401610781929190610e98565b602060405180830381865afa15801561079e573d6000803e3d6000fd5b505050506040513d601f19601f820116820180604052508101906107c29190610ef5565b600b8111156107d3576107d3610f16565b868461ffff16815181106107e9576107e9610cd0565b61ffff909216602092830291909101909101528261080681610ed3565b935050505b8061081581610dbb565b9150506105fa565b505050509250929050565b600080600083905080600160a060020a031663108c5e146040518163ffffffff1660e060020a028152600401602060405180830381865afa158015610871573d6000803e3d6000fd5b505050506040513d601f19601f820116820180604052508101906108959190610c6d565b925080600160a060020a03166338b145df6040518163ffffffff1660e060020a028152600401602060405180830381865afa1580156108d8573d6000803e3d6000fd5b505050506040513d601f19601f820116820180604052508101906108fc9190610c6d565b915050915091565b60606000839050600081600160a060020a031663c06dea4e6040518163ffffffff1660e060020a028152600401602060405180830381865afa15801561094e573d6000803e3d6000fd5b505050506040513d601f19601f820116820180604052508101906109729190610c50565b6040517fbca7caa000000000000000000000000000000000000000000000000000000000815260048101869052336024820152909150600160a060020a038084169163d75e79809187919085169063bca7caa090604401602060405180830381865afa1580156109e6573d6000803e3d6000fd5b505050506040513d601f19601f82011682018060405250810190610a0a9190610c6d565b60405160e060020a63ffffffff851602815260048101929092526024820152604401600060405180830381865afa158015610a49573d6000803e3d6000fd5b505050506040513d6000823e601f3d908101601f19168201604052610a719190810190610d86565b95945050505050565b600160a060020a0381168114610a8f57600080fd5b50565b60008060408385031215610aa557600080fd5b8235610ab081610a7a565b946020939093013593505050565b60005b83811015610ad9578181015183820152602001610ac1565b83811115610ae8576000848401525b50505050565b60008151808452610b06816020860160208601610abe565b601f01601f19169290920160200192915050565b600081518084526020808501808196508284028101915082860160005b85811015610b61578284038952610b4f848351610aee565b98850198935090840190600101610b37565b5091979650505050505050565b604080825283519082018190526000906020906060840190828701845b82811015610ba757815184529284019290840190600101610b8b565b50505083810382850152610bbb8186610b1a565b9695505050505050565b60208152600061041d6020830184610aee565b604081526000610beb6040830185610b1a565b82810360208481019190915284518083528582019282019060005b81811015610c2657845161ffff1683529383019391830191600101610c06565b5090979650505050505050565b600060208284031215610c4557600080fd5b813561041d81610a7a565b600060208284031215610c6257600080fd5b815161041d81610a7a565b600060208284031215610c7f57600080fd5b5051919050565b60e060020a634e487b7102600052604160045260246000fd5b60e060020a634e487b7102600052601160045260246000fd5b60008219821115610ccb57610ccb610c9f565b500190565b60e060020a634e487b7102600052603260045260246000fd5b604051601f8201601f1916810167ffffffffffffffff81118282101715610d1257610d12610c86565b604052919050565b600082601f830112610d2b57600080fd5b815167ffffffffffffffff811115610d4557610d45610c86565b610d58601f8201601f1916602001610ce9565b818152846020838601011115610d6d57600080fd5b610d7e826020830160208701610abe565b949350505050565b600060208284031215610d9857600080fd5b815167ffffffffffffffff811115610daf57600080fd5b610d7e84828501610d1a565b6000600019821415610dcf57610dcf610c9f565b5060010190565b60006020808385031215610de957600080fd5b825167ffffffffffffffff80821115610e0157600080fd5b818501915085601f830112610e1557600080fd5b815181811115610e2757610e27610c86565b838102610e35858201610ce9565b9182528381018501918581019089841115610e4f57600080fd5b86860192505b83831015610e8b57825185811115610e6d5760008081fd5b610e7b8b89838a0101610d1a565b8352509186019190860190610e55565b9998505050505050505050565b828152604060208201526000610d7e6040830184610aee565b600060208284031215610ec357600080fd5b8151801515811461041d57600080fd5b600061ffff80831681811415610eeb57610eeb610c9f565b6001019392505050565b600060208284031215610f0757600080fd5b8151600c811061041d57600080fd5b60e060020a634e487b7102600052602160045260246000fdfea2646970667358221220a57ff8dbd1a35a9256dc159f17999f619a2d981787fc97fac416edae22defa6864736f6c634300080b0033",
  "immutableReferences": {},
  "source": "// SPDX-License-Identifier: GPL-3.0\npragma solidity >=0.8.0;\n\nimport \"../HexplorationBoard.sol\";\nimport \"../HexplorationZone.sol\";\nimport \"@luckymachines/game-core/contracts/src/v0.0/PlayerRegistry.sol\";\n// Game Wallets\nimport \"./BoardWallet.sol\";\nimport \"./PlayerWallet.sol\";\nimport \"./ZoneWallet.sol\";\n\nlibrary GameSummary {\n    // enemies\n    // tokens\n    function boardSize(address gameBoardAddress)\n        public\n        view\n        returns (uint256 rows, uint256 columns)\n    {\n        HexplorationBoard board = HexplorationBoard(gameBoardAddress);\n        rows = board.gridHeight();\n        columns = board.gridWidth();\n    }\n\n    function activeZones(address gameBoardAddress, uint256 gameID)\n        public\n        view\n        returns (string[] memory zones, uint16[] memory tiles)\n    {\n        HexplorationBoard board = HexplorationBoard(gameBoardAddress);\n        string[] memory allZones = board.getZoneAliases();\n\n        uint16 activeZoneCount = 0;\n        for (uint256 i = 0; i < allZones.length; i++) {\n            if (board.zoneEnabled(gameID, allZones[i])) {\n                activeZoneCount++;\n            }\n        }\n        zones = new string[](activeZoneCount);\n        tiles = new uint16[](activeZoneCount);\n\n        activeZoneCount = 0;\n        for (uint256 i = 0; i < allZones.length; i++) {\n            if (board.zoneEnabled(gameID, allZones[i])) {\n                zones[activeZoneCount] = allZones[i];\n                HexplorationZone hexZone = HexplorationZone(\n                    board.hexZoneAddress()\n                );\n                tiles[activeZoneCount] = uint16(\n                    hexZone.tile(gameID, allZones[i])\n                );\n                activeZoneCount++;\n            }\n        }\n    }\n\n    function landingSite(address gameBoardAddress, uint256 gameID)\n        public\n        view\n        returns (string memory)\n    {\n        return HexplorationBoard(gameBoardAddress).initialPlayZone(gameID);\n    }\n\n    function currentLocation(address gameBoardAddress, uint256 gameID)\n        public\n        view\n        returns (string memory)\n    {\n        HexplorationBoard board = HexplorationBoard(gameBoardAddress);\n        PlayerRegistry pr = PlayerRegistry(board.prAddress());\n        return board.currentPlayZone(gameID, pr.playerID(gameID, msg.sender));\n    }\n\n    function allPlayerLocations(address gameBoardAddress, uint256 gameID)\n        public\n        view\n        returns (uint256[] memory, string[] memory)\n    {\n        HexplorationBoard board = HexplorationBoard(gameBoardAddress);\n        PlayerRegistry pr = PlayerRegistry(board.prAddress());\n        uint256 totalRegistrations = pr.totalRegistrations(gameID);\n        uint256[] memory playerIDs = new uint256[](totalRegistrations);\n        string[] memory playerZones = new string[](totalRegistrations);\n        for (uint256 i = 0; i < totalRegistrations; i++) {\n            playerIDs[i] = i + 1;\n            playerZones[i] = board.currentPlayZone(gameID, i + 1);\n        }\n        return (playerIDs, playerZones);\n    }\n}\n",
  "sourcePath": "/Users/maxmeier/Developer/Lucky Machines/hexploration/contracts/state/GameSummary.sol",
  "compiler": {
    "name": "solc",
    "version": "0.8.11+commit.d7f03943.Emscripten.clang"
  },
  "schemaVersion": "3.4.4",
  "updatedAt": "2022-05-15T21:58:58.694Z",
  "devdoc": {
    "kind": "dev",
    "methods": {},
    "version": 1
  },
  "userdoc": {
    "kind": "user",
    "methods": {},
    "version": 1
  }
}