{
  "contractName": "GameSummary",
  "abi": [
    {
      "inputs": [
        {
          "internalType": "address",
          "name": "gameBoardAddress",
          "type": "address"
        }
      ],
      "name": "boardSize",
      "outputs": [
        {
          "internalType": "uint256",
          "name": "rows",
          "type": "uint256"
        },
        {
          "internalType": "uint256",
          "name": "columns",
          "type": "uint256"
        }
      ],
      "stateMutability": "view",
      "type": "function",
      "constant": true
    },
    {
      "inputs": [
        {
          "internalType": "address",
          "name": "gameBoardAddress",
          "type": "address"
        },
        {
          "internalType": "uint256",
          "name": "gameID",
          "type": "uint256"
        },
        {
          "internalType": "address",
          "name": "playerAddress",
          "type": "address"
        }
      ],
      "name": "isRegistered",
      "outputs": [
        {
          "internalType": "bool",
          "name": "",
          "type": "bool"
        }
      ],
      "stateMutability": "view",
      "type": "function",
      "constant": true
    },
    {
      "inputs": [
        {
          "internalType": "address",
          "name": "gameBoardAddress",
          "type": "address"
        },
        {
          "internalType": "uint256",
          "name": "gameID",
          "type": "uint256"
        }
      ],
      "name": "currentPhase",
      "outputs": [
        {
          "internalType": "string",
          "name": "phase",
          "type": "string"
        }
      ],
      "stateMutability": "view",
      "type": "function",
      "constant": true
    },
    {
      "inputs": [
        {
          "internalType": "address",
          "name": "gameBoardAddress",
          "type": "address"
        },
        {
          "internalType": "uint256",
          "name": "gameID",
          "type": "uint256"
        }
      ],
      "name": "activeZones",
      "outputs": [
        {
          "internalType": "string[]",
          "name": "zones",
          "type": "string[]"
        },
        {
          "internalType": "uint16[]",
          "name": "tiles",
          "type": "uint16[]"
        }
      ],
      "stateMutability": "view",
      "type": "function",
      "constant": true
    },
    {
      "inputs": [
        {
          "internalType": "address",
          "name": "gameBoardAddress",
          "type": "address"
        },
        {
          "internalType": "uint256",
          "name": "gameID",
          "type": "uint256"
        }
      ],
      "name": "landingSite",
      "outputs": [
        {
          "internalType": "string",
          "name": "",
          "type": "string"
        }
      ],
      "stateMutability": "view",
      "type": "function",
      "constant": true
    },
    {
      "inputs": [
        {
          "internalType": "address",
          "name": "gameBoardAddress",
          "type": "address"
        },
        {
          "internalType": "uint256",
          "name": "gameID",
          "type": "uint256"
        }
      ],
      "name": "currentLocation",
      "outputs": [
        {
          "internalType": "string",
          "name": "",
          "type": "string"
        }
      ],
      "stateMutability": "view",
      "type": "function",
      "constant": true
    },
    {
      "inputs": [
        {
          "internalType": "address",
          "name": "gameBoardAddress",
          "type": "address"
        },
        {
          "internalType": "uint256",
          "name": "gameID",
          "type": "uint256"
        }
      ],
      "name": "allPlayerLocations",
      "outputs": [
        {
          "internalType": "uint256[]",
          "name": "",
          "type": "uint256[]"
        },
        {
          "internalType": "string[]",
          "name": "",
          "type": "string[]"
        }
      ],
      "stateMutability": "view",
      "type": "function",
      "constant": true
    },
    {
      "inputs": [
        {
          "internalType": "address",
          "name": "gameBoardAddress",
          "type": "address"
        },
        {
          "internalType": "uint256",
          "name": "gameID",
          "type": "uint256"
        }
      ],
      "name": "currentPlayerStats",
      "outputs": [
        {
          "internalType": "uint8",
          "name": "movement",
          "type": "uint8"
        },
        {
          "internalType": "uint8",
          "name": "agility",
          "type": "uint8"
        },
        {
          "internalType": "uint8",
          "name": "dexterity",
          "type": "uint8"
        }
      ],
      "stateMutability": "view",
      "type": "function",
      "constant": true
    },
    {
      "inputs": [
        {
          "internalType": "address",
          "name": "gameBoardAddress",
          "type": "address"
        },
        {
          "internalType": "uint256",
          "name": "gameID",
          "type": "uint256"
        }
      ],
      "name": "currentHandInventory",
      "outputs": [
        {
          "internalType": "string",
          "name": "leftHandItem",
          "type": "string"
        },
        {
          "internalType": "string",
          "name": "rightHandItem",
          "type": "string"
        }
      ],
      "stateMutability": "view",
      "type": "function",
      "constant": true
    },
    {
      "inputs": [
        {
          "internalType": "address",
          "name": "gameBoardAddress",
          "type": "address"
        },
        {
          "internalType": "uint256",
          "name": "gameID",
          "type": "uint256"
        }
      ],
      "name": "activeInventory",
      "outputs": [
        {
          "internalType": "string",
          "name": "artifact",
          "type": "string"
        },
        {
          "internalType": "string",
          "name": "status",
          "type": "string"
        },
        {
          "internalType": "string",
          "name": "relic",
          "type": "string"
        },
        {
          "internalType": "bool",
          "name": "shield",
          "type": "bool"
        },
        {
          "internalType": "bool",
          "name": "campsite",
          "type": "bool"
        }
      ],
      "stateMutability": "view",
      "type": "function",
      "constant": true
    }
  ],
  "bytecode": "0x612412610053600b82828239805160001a607314610046577f4e487b7100000000000000000000000000000000000000000000000000000000600052600060045260246000fd5b30600052607381538281f3fe73000000000000000000000000000000000000000030146080604052600436106100ac5760003560e060020a90048063cabd6fda11610074578063cabd6fda14610162578063e569d33a14610185578063ee203a8e146101a6578063f59bf903146101ce578063f8ffdfcc146101f257600080fd5b80632f874fe0146100b15780638191e062146100ed578063821ba3a11461010e578063a75d3f871461012e578063b0be1afa14610141575b600080fd5b6100c46100bf366004611e3a565b610205565b6040805160ff948516815292841660208401529216918101919091526060015b60405180910390f35b6101006100fb366004611e3a565b610421565b6040516100e4929190611f19565b61012161011c366004611e3a565b6106a6565b6040516100e49190611f66565b61012161013c366004611e3a565b610736565b61015461014f366004611e3a565b610952565b6040516100e4929190611f79565b610175610170366004611f9e565b610d08565b60405190151581526020016100e4565b610198610193366004611e3a565b610e00565b6040516100e4929190611fe0565b6101b96101b436600461202e565b611204565b604080519283526020830191909152016100e4565b6101e16101dc366004611e3a565b6112e0565b6040516100e495949392919061204b565b610121610200366004611e3a565b611b53565b600080600080859050600081600160a060020a031663a0ed600d6040518163ffffffff1660e060020a028152600401602060405180830381865afa158015610251573d6000803e3d6000fd5b505050506040513d601f19601f82011682018060405250810190610275919061209e565b6040517ffdf5a31c000000000000000000000000000000000000000000000000000000008152909150600160a060020a0382169063fdf5a31c906102bf90899033906004016120bb565b602060405180830381865afa1580156102dc573d6000803e3d6000fd5b505050506040513d601f19601f8201168201806040525081019061030091906120d2565b6040517fca318967000000000000000000000000000000000000000000000000000000008152909550600160a060020a0382169063ca3189679061034a90899033906004016120bb565b602060405180830381865afa158015610367573d6000803e3d6000fd5b505050506040513d601f19601f8201168201806040525081019061038b91906120d2565b6040517f989c11a9000000000000000000000000000000000000000000000000000000008152909450600160a060020a0382169063989c11a9906103d590899033906004016120bb565b602060405180830381865afa1580156103f2573d6000803e3d6000fd5b505050506040513d601f19601f8201168201806040525081019061041691906120d2565b925050509250925092565b6060806000849050600081600160a060020a031663c06dea4e6040518163ffffffff1660e060020a028152600401602060405180830381865afa15801561046c573d6000803e3d6000fd5b505050506040513d601f19601f82011682018060405250810190610490919061209e565b6040517fb77ff41100000000000000000000000000000000000000000000000000000000815260048101879052909150600090600160a060020a0383169063b77ff41190602401602060405180830381865afa1580156104f4573d6000803e3d6000fd5b505050506040513d601f19601f8201168201806040525081019061051891906120f5565b905060008167ffffffffffffffff8111156105355761053561210e565b60405190808252806020026020018201604052801561055e578160200160208202803683370190505b50905060008267ffffffffffffffff81111561057c5761057c61210e565b6040519080825280602002602001820160405280156105af57816020015b606081526020019060019003908161059a5790505b50905060005b83811015610697576105c8816001612140565b8382815181106105da576105da612158565b6020908102919091010152600160a060020a03861663d75e79808a610600846001612140565b60405160e060020a63ffffffff851602815260048101929092526024820152604401600060405180830381865afa15801561063f573d6000803e3d6000fd5b505050506040513d6000823e601f3d908101601f19168201604052610667919081019061220e565b82828151811061067957610679612158565b6020026020010181905250808061068f90612243565b9150506105b5565b50909890975095505050505050565b6040517feb33983d00000000000000000000000000000000000000000000000000000000815260048101829052606090600160a060020a0384169063eb33983d90602401600060405180830381865afa158015610707573d6000803e3d6000fd5b505050506040513d6000823e601f3d908101601f1916820160405261072f919081019061220e565b9392505050565b60606000839050600081600160a060020a031663cca369966040518163ffffffff1660e060020a028152600401602060405180830381865afa158015610780573d6000803e3d6000fd5b505050506040513d601f19601f820116820180604052508101906107a4919061209e565b9050600081600160a060020a031663a906dfd16040518163ffffffff1660e060020a028152600401602060405180830381865afa1580156107e9573d6000803e3d6000fd5b505050506040513d601f19601f8201168201806040525081019061080d919061209e565b6040517f4db157d000000000000000000000000000000000000000000000000000000000815260606004820152600360648201527f446179000000000000000000000000000000000000000000000000000000000060848201526024810187905260016044820152600160a060020a039190911690634db157d09060a401602060405180830381865afa1580156108a8573d6000803e3d6000fd5b505050506040513d601f19601f820116820180604052508101906108cc91906120f5565b905060008111610911576040518060400160405280600581526020017f4e69676874000000000000000000000000000000000000000000000000000000815250610948565b6040518060400160405280600381526020017f44617900000000000000000000000000000000000000000000000000000000008152505b9695505050505050565b6060806000849050600081600160a060020a031663a0ed600d6040518163ffffffff1660e060020a028152600401602060405180830381865afa15801561099d573d6000803e3d6000fd5b505050506040513d601f19601f820116820180604052508101906109c1919061209e565b9050610b7d81600160a060020a031663a082936d87336040518363ffffffff1660e060020a0281526004016109f79291906120bb565b600060405180830381865afa158015610a14573d6000803e3d6000fd5b505050506040513d6000823e601f3d908101601f19168201604052610a3c919081019061220e565b83600160a060020a031663cca369966040518163ffffffff1660e060020a028152600401602060405180830381865afa158015610a7d573d6000803e3d6000fd5b505050506040513d601f19601f82011682018060405250810190610aa1919061209e565b8785600160a060020a031663c06dea4e6040518163ffffffff1660e060020a028152600401602060405180830381865afa158015610ae3573d6000803e3d6000fd5b505050506040513d601f19601f82011682018060405250810190610b07919061209e565b600160a060020a031663bca7caa08a336040518363ffffffff1660e060020a028152600401610b379291906120bb565b602060405180830381865afa158015610b54573d6000803e3d6000fd5b505050506040513d601f19601f82011682018060405250810190610b7891906120f5565b611cb5565b610b965760405180602001604052806000815250610c22565b6040517fa082936d000000000000000000000000000000000000000000000000000000008152600160a060020a0382169063a082936d90610bdd90889033906004016120bb565b600060405180830381865afa158015610bfa573d6000803e3d6000fd5b505050506040513d6000823e601f3d908101601f19168201604052610c22919081019061220e565b9350610c5881600160a060020a0316636662537087336040518363ffffffff1660e060020a0281526004016109f79291906120bb565b610c715760405180602001604052806000815250610cfd565b6040517f66625370000000000000000000000000000000000000000000000000000000008152600160a060020a03821690636662537090610cb890889033906004016120bb565b600060405180830381865afa158015610cd5573d6000803e3d6000fd5b505050506040513d6000823e601f3d908101601f19168201604052610cfd919081019061220e565b925050509250929050565b600080849050600081600160a060020a031663c06dea4e6040518163ffffffff1660e060020a028152600401602060405180830381865afa158015610d51573d6000803e3d6000fd5b505050506040513d601f19601f82011682018060405250810190610d75919061209e565b6040517fb81f6e18000000000000000000000000000000000000000000000000000000008152909150600160a060020a0382169063b81f6e1890610dbf90889088906004016120bb565b602060405180830381865afa158015610ddc573d6000803e3d6000fd5b505050506040513d601f19601f82011682018060405250810190610948919061225e565b6060806000849050600081600160a060020a0316633ca61a586040518163ffffffff1660e060020a028152600401600060405180830381865afa158015610e4b573d6000803e3d6000fd5b505050506040513d6000823e601f3d908101601f19168201604052610e739190810190612280565b90506000805b8251811015610f325783600160a060020a031663ed3719a588858481518110610ea457610ea4612158565b60200260200101516040518363ffffffff1660e060020a028152600401610ecc929190612342565b602060405180830381865afa158015610ee9573d6000803e3d6000fd5b505050506040513d601f19601f82011682018060405250810190610f0d919061225e565b15610f205781610f1c8161235b565b9250505b80610f2a81612243565b915050610e79565b508061ffff1667ffffffffffffffff811115610f5057610f5061210e565b604051908082528060200260200182016040528015610f8357816020015b6060815260200190600190039081610f6e5790505b5094508061ffff1667ffffffffffffffff811115610fa357610fa361210e565b604051908082528060200260200182016040528015610fcc578160200160208202803683370190505b5093506000905060005b82518110156111f95783600160a060020a031663ed3719a58885848151811061100157611001612158565b60200260200101516040518363ffffffff1660e060020a028152600401611029929190612342565b602060405180830381865afa158015611046573d6000803e3d6000fd5b505050506040513d601f19601f8201168201806040525081019061106a919061225e565b156111e75782818151811061108157611081612158565b6020026020010151868361ffff168151811061109f5761109f612158565b6020026020010181905250600084600160a060020a03166335e333e46040518163ffffffff1660e060020a028152600401602060405180830381865afa1580156110ed573d6000803e3d6000fd5b505050506040513d601f19601f82011682018060405250810190611111919061209e565b905080600160a060020a03166330821b9c8986858151811061113557611135612158565b60200260200101516040518363ffffffff1660e060020a02815260040161115d929190612342565b602060405180830381865afa15801561117a573d6000803e3d6000fd5b505050506040513d601f19601f8201168201806040525081019061119e919061237d565b600b8111156111af576111af61239e565b868461ffff16815181106111c5576111c5612158565b61ffff90921660209283029190910190910152826111e28161235b565b935050505b806111f181612243565b915050610fd6565b505050509250929050565b600080600083905080600160a060020a031663108c5e146040518163ffffffff1660e060020a028152600401602060405180830381865afa15801561124d573d6000803e3d6000fd5b505050506040513d601f19601f8201168201806040525081019061127191906120f5565b925080600160a060020a03166338b145df6040518163ffffffff1660e060020a028152600401602060405180830381865afa1580156112b4573d6000803e3d6000fd5b505050506040513d601f19601f820116820180604052508101906112d891906120f5565b915050915091565b60608060606000806000879050600081600160a060020a031663a0ed600d6040518163ffffffff1660e060020a028152600401602060405180830381865afa158015611330573d6000803e3d6000fd5b505050506040513d601f19601f82011682018060405250810190611354919061209e565b905061151081600160a060020a031663a2e8a8918a336040518363ffffffff1660e060020a02815260040161138a9291906120bb565b600060405180830381865afa1580156113a7573d6000803e3d6000fd5b505050506040513d6000823e601f3d908101601f191682016040526113cf919081019061220e565b83600160a060020a031663cca369966040518163ffffffff1660e060020a028152600401602060405180830381865afa158015611410573d6000803e3d6000fd5b505050506040513d601f19601f82011682018060405250810190611434919061209e565b8a85600160a060020a031663c06dea4e6040518163ffffffff1660e060020a028152600401602060405180830381865afa158015611476573d6000803e3d6000fd5b505050506040513d601f19601f8201168201806040525081019061149a919061209e565b600160a060020a031663bca7caa08d336040518363ffffffff1660e060020a0281526004016114ca9291906120bb565b602060405180830381865afa1580156114e7573d6000803e3d6000fd5b505050506040513d601f19601f8201168201806040525081019061150b91906120f5565b611d9a565b61152957604051806020016040528060008152506115b5565b6040517fa2e8a891000000000000000000000000000000000000000000000000000000008152600160a060020a0382169063a2e8a89190611570908b9033906004016120bb565b600060405180830381865afa15801561158d573d6000803e3d6000fd5b505050506040513d6000823e601f3d908101601f191682016040526115b5919081019061220e565b965061177181600160a060020a031663db1698b28a336040518363ffffffff1660e060020a0281526004016115eb9291906120bb565b600060405180830381865afa158015611608573d6000803e3d6000fd5b505050506040513d6000823e601f3d908101601f19168201604052611630919081019061220e565b83600160a060020a031663cca369966040518163ffffffff1660e060020a028152600401602060405180830381865afa158015611671573d6000803e3d6000fd5b505050506040513d601f19601f82011682018060405250810190611695919061209e565b8a85600160a060020a031663c06dea4e6040518163ffffffff1660e060020a028152600401602060405180830381865afa1580156116d7573d6000803e3d6000fd5b505050506040513d601f19601f820116820180604052508101906116fb919061209e565b600160a060020a031663bca7caa08d336040518363ffffffff1660e060020a02815260040161172b9291906120bb565b602060405180830381865afa158015611748573d6000803e3d6000fd5b505050506040513d601f19601f8201168201806040525081019061176c91906120f5565b611dde565b61178a5760405180602001604052806000815250611816565b6040517fdb1698b2000000000000000000000000000000000000000000000000000000008152600160a060020a0382169063db1698b2906117d1908b9033906004016120bb565b600060405180830381865afa1580156117ee573d6000803e3d6000fd5b505050506040513d6000823e601f3d908101601f19168201604052611816919081019061220e565b955061198c81600160a060020a03166385c4f91d8a336040518363ffffffff1660e060020a02815260040161184c9291906120bb565b600060405180830381865afa158015611869573d6000803e3d6000fd5b505050506040513d6000823e601f3d908101601f19168201604052611891919081019061220e565b83600160a060020a031663cca369966040518163ffffffff1660e060020a028152600401602060405180830381865afa1580156118d2573d6000803e3d6000fd5b505050506040513d601f19601f820116820180604052508101906118f6919061209e565b8a85600160a060020a031663c06dea4e6040518163ffffffff1660e060020a028152600401602060405180830381865afa158015611938573d6000803e3d6000fd5b505050506040513d601f19601f8201168201806040525081019061195c919061209e565b600160a060020a031663bca7caa08d336040518363ffffffff1660e060020a028152600401610b379291906120bb565b6119a55760405180602001604052806000815250611a31565b6040517f85c4f91d000000000000000000000000000000000000000000000000000000008152600160a060020a038216906385c4f91d906119ec908b9033906004016120bb565b600060405180830381865afa158015611a09573d6000803e3d6000fd5b505050506040513d6000823e601f3d908101601f19168201604052611a31919081019061220e565b9450611aad6040518060400160405280600681526020017f536869656c64000000000000000000000000000000000000000000000000000081525083600160a060020a031663cca369966040518163ffffffff1660e060020a028152600401602060405180830381865afa1580156118d2573d6000803e3d6000fd5b611ab8576000611abb565b60015b9350611b376040518060400160405280600881526020017f43616d707369746500000000000000000000000000000000000000000000000081525083600160a060020a031663cca369966040518163ffffffff1660e060020a028152600401602060405180830381865afa1580156118d2573d6000803e3d6000fd5b611b42576000611b45565b60015b925050509295509295909350565b60606000839050600081600160a060020a031663c06dea4e6040518163ffffffff1660e060020a028152600401602060405180830381865afa158015611b9d573d6000803e3d6000fd5b505050506040513d601f19601f82011682018060405250810190611bc1919061209e565b905081600160a060020a031663d75e79808583600160a060020a031663bca7caa088336040518363ffffffff1660e060020a028152600401611c049291906120bb565b602060405180830381865afa158015611c21573d6000803e3d6000fd5b505050506040513d601f19601f82011682018060405250810190611c4591906120f5565b60405160e060020a63ffffffff851602815260048101929092526024820152604401600060405180830381865afa158015611c84573d6000803e3d6000fd5b505050506040513d6000823e601f3d908101601f19168201604052611cac919081019061220e565b95945050505050565b60008084600160a060020a031663a318d45c6040518163ffffffff1660e060020a028152600401602060405180830381865afa158015611cf9573d6000803e3d6000fd5b505050506040513d601f19601f82011682018060405250810190611d1d919061209e565b600160a060020a0316634db157d08786866040518463ffffffff1660e060020a028152600401611d4f939291906123b7565b602060405180830381865afa158015611d6c573d6000803e3d6000fd5b505050506040513d601f19601f82011682018060405250810190611d9091906120f5565b1195945050505050565b60008084600160a060020a03166345d339d96040518163ffffffff1660e060020a028152600401602060405180830381865afa158015611cf9573d6000803e3d6000fd5b60008084600160a060020a031663c1cdbb3c6040518163ffffffff1660e060020a028152600401602060405180830381865afa158015611cf9573d6000803e3d6000fd5b600160a060020a0381168114611e3757600080fd5b50565b60008060408385031215611e4d57600080fd5b8235611e5881611e22565b946020939093013593505050565b60005b83811015611e81578181015183820152602001611e69565b83811115611e90576000848401525b50505050565b60008151808452611eae816020860160208601611e66565b601f01601f19169290920160200192915050565b6000828251808552602080860195508081830284010181860160005b84811015611f0c57601f19868403018952611efa838351611e96565b98840198925090830190600101611ede565b5090979650505050505050565b604080825283519082018190526000906020906060840190828701845b82811015611f5257815184529284019290840190600101611f36565b505050838103828501526109488186611ec2565b60208152600061072f6020830184611e96565b604081526000611f8c6040830185611e96565b8281036020840152611cac8185611e96565b600080600060608486031215611fb357600080fd5b8335611fbe81611e22565b9250602084013591506040840135611fd581611e22565b809150509250925092565b604081526000611ff36040830185611ec2565b82810360208481019190915284518083528582019282019060005b81811015611f0c57845161ffff168352938301939183019160010161200e565b60006020828403121561204057600080fd5b813561072f81611e22565b60a08152600061205e60a0830188611e96565b82810360208401526120708188611e96565b905082810360408401526120848187611e96565b941515606084015250509015156080909101529392505050565b6000602082840312156120b057600080fd5b815161072f81611e22565b918252600160a060020a0316602082015260400190565b6000602082840312156120e457600080fd5b815160ff8116811461072f57600080fd5b60006020828403121561210757600080fd5b5051919050565b60e060020a634e487b7102600052604160045260246000fd5b60e060020a634e487b7102600052601160045260246000fd5b6000821982111561215357612153612127565b500190565b60e060020a634e487b7102600052603260045260246000fd5b604051601f8201601f1916810167ffffffffffffffff8111828210171561219a5761219a61210e565b604052919050565b600082601f8301126121b357600080fd5b815167ffffffffffffffff8111156121cd576121cd61210e565b6121e0601f8201601f1916602001612171565b8181528460208386010111156121f557600080fd5b612206826020830160208701611e66565b949350505050565b60006020828403121561222057600080fd5b815167ffffffffffffffff81111561223757600080fd5b612206848285016121a2565b600060001982141561225757612257612127565b5060010190565b60006020828403121561227057600080fd5b8151801515811461072f57600080fd5b6000602080838503121561229357600080fd5b825167ffffffffffffffff808211156122ab57600080fd5b818501915085601f8301126122bf57600080fd5b8151818111156122d1576122d161210e565b8381026122df858201612171565b91825283810185019185810190898411156122f957600080fd5b86860192505b83831015612335578251858111156123175760008081fd5b6123258b89838a01016121a2565b83525091860191908601906122ff565b9998505050505050505050565b8281526040602082015260006122066040830184611e96565b600061ffff8083168181141561237357612373612127565b6001019392505050565b60006020828403121561238f57600080fd5b8151600c811061072f57600080fd5b60e060020a634e487b7102600052602160045260246000fd5b6060815260006123ca6060830186611e96565b6020830194909452506040015291905056fea2646970667358221220e9b75c7ede5cfa91e2d141bdf50ede80adb12c737bad312dced1095915bcade664736f6c634300080b0033",
  "immutableReferences": {},
  "source": "// SPDX-License-Identifier: GPL-3.0\npragma solidity >=0.8.0;\n\nimport \"../HexplorationBoard.sol\";\nimport \"../HexplorationZone.sol\";\nimport \"@luckymachines/game-core/contracts/src/v0.0/PlayerRegistry.sol\";\nimport \"./CharacterCard.sol\";\nimport \"../tokens/TokenInventory.sol\";\n\nlibrary GameSummary {\n    // enemies\n    // tokens\n    function boardSize(address gameBoardAddress)\n        public\n        view\n        returns (uint256 rows, uint256 columns)\n    {\n        HexplorationBoard board = HexplorationBoard(gameBoardAddress);\n        rows = board.gridHeight();\n        columns = board.gridWidth();\n    }\n\n    function isRegistered(\n        address gameBoardAddress,\n        uint256 gameID,\n        address playerAddress\n    ) public view returns (bool) {\n        HexplorationBoard board = HexplorationBoard(gameBoardAddress);\n        PlayerRegistry pr = PlayerRegistry(board.prAddress());\n        return pr.isRegistered(gameID, playerAddress);\n    }\n\n    function currentPhase(address gameBoardAddress, uint256 gameID)\n        public\n        view\n        returns (string memory phase)\n    {\n        HexplorationBoard board = HexplorationBoard(gameBoardAddress);\n        TokenInventory tokens = TokenInventory(board.tokenInventory());\n\n        uint256 dayBalance = tokens.DAY_NIGHT_TOKEN().balance(\"Day\", gameID, 1);\n        phase = dayBalance > 0 ? \"Day\" : \"Night\";\n    }\n\n    function activeZones(address gameBoardAddress, uint256 gameID)\n        public\n        view\n        returns (string[] memory zones, uint16[] memory tiles)\n    {\n        HexplorationBoard board = HexplorationBoard(gameBoardAddress);\n        string[] memory allZones = board.getZoneAliases();\n\n        uint16 activeZoneCount = 0;\n        for (uint256 i = 0; i < allZones.length; i++) {\n            if (board.zoneEnabled(gameID, allZones[i])) {\n                activeZoneCount++;\n            }\n        }\n        zones = new string[](activeZoneCount);\n        tiles = new uint16[](activeZoneCount);\n\n        activeZoneCount = 0;\n        for (uint256 i = 0; i < allZones.length; i++) {\n            if (board.zoneEnabled(gameID, allZones[i])) {\n                zones[activeZoneCount] = allZones[i];\n                HexplorationZone hexZone = HexplorationZone(\n                    board.hexZoneAddress()\n                );\n                tiles[activeZoneCount] = uint16(\n                    hexZone.tile(gameID, allZones[i])\n                );\n                activeZoneCount++;\n            }\n        }\n    }\n\n    function landingSite(address gameBoardAddress, uint256 gameID)\n        public\n        view\n        returns (string memory)\n    {\n        return HexplorationBoard(gameBoardAddress).initialPlayZone(gameID);\n    }\n\n    function currentLocation(address gameBoardAddress, uint256 gameID)\n        public\n        view\n        returns (string memory)\n    {\n        HexplorationBoard board = HexplorationBoard(gameBoardAddress);\n        PlayerRegistry pr = PlayerRegistry(board.prAddress());\n        return board.currentPlayZone(gameID, pr.playerID(gameID, msg.sender));\n    }\n\n    function allPlayerLocations(address gameBoardAddress, uint256 gameID)\n        public\n        view\n        returns (uint256[] memory, string[] memory)\n    {\n        HexplorationBoard board = HexplorationBoard(gameBoardAddress);\n        PlayerRegistry pr = PlayerRegistry(board.prAddress());\n        uint256 totalRegistrations = pr.totalRegistrations(gameID);\n        uint256[] memory playerIDs = new uint256[](totalRegistrations);\n        string[] memory playerZones = new string[](totalRegistrations);\n        for (uint256 i = 0; i < totalRegistrations; i++) {\n            playerIDs[i] = i + 1;\n            playerZones[i] = board.currentPlayZone(gameID, i + 1);\n        }\n        return (playerIDs, playerZones);\n    }\n\n    function inventoryItemExists(\n        string memory tokenType,\n        address inventoryAddress,\n        uint256 gameID,\n        uint256 holderID\n    ) internal view returns (bool) {\n        return\n            TokenInventory(inventoryAddress).ITEM_TOKEN().balance(\n                tokenType,\n                gameID,\n                holderID\n            ) > 0;\n    }\n\n    function inventoryArtifactExists(\n        string memory tokenType,\n        address inventoryAddress,\n        uint256 gameID,\n        uint256 holderID\n    ) internal view returns (bool) {\n        return\n            TokenInventory(inventoryAddress).ARTIFACT_TOKEN().balance(\n                tokenType,\n                gameID,\n                holderID\n            ) > 0;\n    }\n\n    function inventoryStatusExists(\n        string memory tokenType,\n        address inventoryAddress,\n        uint256 gameID,\n        uint256 holderID\n    ) internal view returns (bool) {\n        return\n            TokenInventory(inventoryAddress).PLAYER_STATUS_TOKEN().balance(\n                tokenType,\n                gameID,\n                holderID\n            ) > 0;\n    }\n\n    function currentPlayerStats(address gameBoardAddress, uint256 gameID)\n        public\n        view\n        returns (\n            uint8 movement,\n            uint8 agility,\n            uint8 dexterity\n        )\n    {\n        HexplorationBoard board = HexplorationBoard(gameBoardAddress);\n        CharacterCard cc = CharacterCard(board.characterCard());\n        movement = cc.movement(gameID, msg.sender);\n        agility = cc.agility(gameID, msg.sender);\n        dexterity = cc.dexterity(gameID, msg.sender);\n    }\n\n    function currentHandInventory(address gameBoardAddress, uint256 gameID)\n        public\n        view\n        returns (string memory leftHandItem, string memory rightHandItem)\n    {\n        HexplorationBoard board = HexplorationBoard(gameBoardAddress);\n        CharacterCard cc = CharacterCard(board.characterCard());\n        leftHandItem = inventoryItemExists(\n            cc.leftHandItem(gameID, msg.sender),\n            board.tokenInventory(),\n            gameID,\n            PlayerRegistry(board.prAddress()).playerID(gameID, msg.sender)\n        )\n            ? cc.leftHandItem(gameID, msg.sender)\n            : \"\";\n\n        rightHandItem = inventoryItemExists(\n            cc.rightHandItem(gameID, msg.sender),\n            board.tokenInventory(),\n            gameID,\n            PlayerRegistry(board.prAddress()).playerID(gameID, msg.sender)\n        )\n            ? cc.rightHandItem(gameID, msg.sender)\n            : \"\";\n    }\n\n    function activeInventory(address gameBoardAddress, uint256 gameID)\n        public\n        view\n        returns (\n            string memory artifact,\n            string memory status,\n            string memory relic,\n            bool shield,\n            bool campsite\n        )\n    {\n        HexplorationBoard board = HexplorationBoard(gameBoardAddress);\n        CharacterCard cc = CharacterCard(board.characterCard());\n        artifact = inventoryArtifactExists(\n            cc.artifact(gameID, msg.sender),\n            board.tokenInventory(),\n            gameID,\n            PlayerRegistry(board.prAddress()).playerID(gameID, msg.sender)\n        )\n            ? cc.artifact(gameID, msg.sender)\n            : \"\";\n\n        status = inventoryStatusExists(\n            cc.status(gameID, msg.sender),\n            board.tokenInventory(),\n            gameID,\n            PlayerRegistry(board.prAddress()).playerID(gameID, msg.sender)\n        )\n            ? cc.status(gameID, msg.sender)\n            : \"\";\n\n        relic = inventoryItemExists(\n            cc.relic(gameID, msg.sender),\n            board.tokenInventory(),\n            gameID,\n            PlayerRegistry(board.prAddress()).playerID(gameID, msg.sender)\n        )\n            ? cc.relic(gameID, msg.sender)\n            : \"\";\n\n        shield = inventoryItemExists(\n            \"Shield\",\n            board.tokenInventory(),\n            gameID,\n            PlayerRegistry(board.prAddress()).playerID(gameID, msg.sender)\n        )\n            ? true\n            : false;\n\n        campsite = inventoryItemExists(\n            \"Campsite\",\n            board.tokenInventory(),\n            gameID,\n            PlayerRegistry(board.prAddress()).playerID(gameID, msg.sender)\n        )\n            ? true\n            : false;\n    }\n}\n",
  "sourcePath": "/Users/maxmeier/Developer/Lucky Machines/hexploration/contracts/state/GameSummary.sol",
  "compiler": {
    "name": "solc",
    "version": "0.8.11+commit.d7f03943.Emscripten.clang"
  },
  "schemaVersion": "3.4.4",
  "updatedAt": "2022-05-16T03:30:34.460Z",
  "networkType": "ethereum",
  "devdoc": {
    "kind": "dev",
    "methods": {},
    "version": 1
  },
  "userdoc": {
    "kind": "user",
    "methods": {},
    "version": 1
  }
}