{
  "contractName": "GameSummary",
  "abi": [
    {
      "inputs": [
        {
          "internalType": "address",
          "name": "gameBoardAddress",
          "type": "address"
        }
      ],
      "name": "boardSize",
      "outputs": [
        {
          "internalType": "uint256",
          "name": "rows",
          "type": "uint256"
        },
        {
          "internalType": "uint256",
          "name": "columns",
          "type": "uint256"
        }
      ],
      "stateMutability": "view",
      "type": "function"
    },
    {
      "inputs": [
        {
          "internalType": "address",
          "name": "gameBoardAddress",
          "type": "address"
        },
        {
          "internalType": "uint256",
          "name": "gameID",
          "type": "uint256"
        }
      ],
      "name": "activeZones",
      "outputs": [
        {
          "internalType": "string[]",
          "name": "zones",
          "type": "string[]"
        },
        {
          "internalType": "uint16[]",
          "name": "tiles",
          "type": "uint16[]"
        }
      ],
      "stateMutability": "view",
      "type": "function"
    },
    {
      "inputs": [
        {
          "internalType": "address",
          "name": "gameBoardAddress",
          "type": "address"
        },
        {
          "internalType": "uint256",
          "name": "gameID",
          "type": "uint256"
        }
      ],
      "name": "landingSite",
      "outputs": [
        {
          "internalType": "string",
          "name": "",
          "type": "string"
        }
      ],
      "stateMutability": "view",
      "type": "function"
    },
    {
      "inputs": [
        {
          "internalType": "address",
          "name": "gameBoardAddress",
          "type": "address"
        },
        {
          "internalType": "uint256",
          "name": "gameID",
          "type": "uint256"
        }
      ],
      "name": "currentLocation",
      "outputs": [
        {
          "internalType": "string",
          "name": "",
          "type": "string"
        }
      ],
      "stateMutability": "view",
      "type": "function"
    },
    {
      "inputs": [
        {
          "internalType": "address",
          "name": "gameBoardAddress",
          "type": "address"
        },
        {
          "internalType": "uint256",
          "name": "gameID",
          "type": "uint256"
        }
      ],
      "name": "allPlayerLocations",
      "outputs": [
        {
          "internalType": "uint256[]",
          "name": "",
          "type": "uint256[]"
        },
        {
          "internalType": "string[]",
          "name": "",
          "type": "string[]"
        }
      ],
      "stateMutability": "view",
      "type": "function"
    },
    {
      "inputs": [
        {
          "internalType": "address",
          "name": "gameBoardAddress",
          "type": "address"
        },
        {
          "internalType": "uint256",
          "name": "gameID",
          "type": "uint256"
        }
      ],
      "name": "currentPlayerStats",
      "outputs": [
        {
          "internalType": "uint8[3]",
          "name": "stats",
          "type": "uint8[3]"
        }
      ],
      "stateMutability": "view",
      "type": "function"
    }
  ],
  "bytecode": "0x611228610053600b82828239805160001a607314610046577f4e487b7100000000000000000000000000000000000000000000000000000000600052600060045260246000fd5b30600052607381538281f3fe730000000000000000000000000000000000000000301460806040526004361061006f5760e060020a60003504632f874fe081146100745780638191e0621461009d578063821ba3a1146100be578063e569d33a146100de578063ee203a8e146100ff578063f8ffdfcc14610127575b600080fd5b610087610082366004610d08565b61013a565b6040516100949190610d34565b60405180910390f35b6100b06100ab366004610d08565b610367565b604051610094929190610e1b565b6100d16100cc366004610d08565b6105ec565b6040516100949190610e72565b6100f16100ec366004610d08565b61067c565b604051610094929190610e85565b61011261010d366004610ed3565b610a80565b60408051928352602083019190915201610094565b6100d1610135366004610d08565b610b5c565b610142610cd2565b6000839050600081600160a060020a03166324a5f50e6040518163ffffffff1660e060020a028152600401602060405180830381865afa15801561018a573d6000803e3d6000fd5b505050506040513d601f19601f820116820180604052508101906101ae9190610ef0565b6040517ffdf5a31c00000000000000000000000000000000000000000000000000000000815260048101869052336024820152909150600160a060020a0382169063fdf5a31c90604401602060405180830381865afa158015610215573d6000803e3d6000fd5b505050506040513d601f19601f820116820180604052508101906102399190610f0d565b60ff1683526040517fca31896700000000000000000000000000000000000000000000000000000000815260048101859052336024820152600160a060020a0382169063ca31896790604401602060405180830381865afa1580156102a2573d6000803e3d6000fd5b505050506040513d601f19601f820116820180604052508101906102c69190610f0d565b60ff1660208401526040517f989c11a900000000000000000000000000000000000000000000000000000000815260048101859052336024820152600160a060020a0382169063989c11a990604401602060405180830381865afa158015610332573d6000803e3d6000fd5b505050506040513d601f19601f820116820180604052508101906103569190610f0d565b60ff16604084015250909392505050565b6060806000849050600081600160a060020a031663c06dea4e6040518163ffffffff1660e060020a028152600401602060405180830381865afa1580156103b2573d6000803e3d6000fd5b505050506040513d601f19601f820116820180604052508101906103d69190610ef0565b6040517fb77ff41100000000000000000000000000000000000000000000000000000000815260048101879052909150600090600160a060020a0383169063b77ff41190602401602060405180830381865afa15801561043a573d6000803e3d6000fd5b505050506040513d601f19601f8201168201806040525081019061045e9190610f49565b905060008167ffffffffffffffff81111561047b5761047b610f62565b6040519080825280602002602001820160405280156104a4578160200160208202803683370190505b50905060008267ffffffffffffffff8111156104c2576104c2610f62565b6040519080825280602002602001820160405280156104f557816020015b60608152602001906001900390816104e05790505b50905060005b838110156105dd5761050e816001610f94565b83828151811061052057610520610f30565b6020908102919091010152600160a060020a03861663d75e79808a610546846001610f94565b60405160e060020a63ffffffff851602815260048101929092526024820152604401600060405180830381865afa158015610585573d6000803e3d6000fd5b505050506040513d6000823e601f3d908101601f191682016040526105ad9190810190611049565b8282815181106105bf576105bf610f30565b602002602001018190525080806105d59061107e565b9150506104fb565b50909890975095505050505050565b6040517feb33983d00000000000000000000000000000000000000000000000000000000815260048101829052606090600160a060020a0384169063eb33983d90602401600060405180830381865afa15801561064d573d6000803e3d6000fd5b505050506040513d6000823e601f3d908101601f191682016040526106759190810190611049565b9392505050565b6060806000849050600081600160a060020a0316633ca61a586040518163ffffffff1660e060020a028152600401600060405180830381865afa1580156106c7573d6000803e3d6000fd5b505050506040513d6000823e601f3d908101601f191682016040526106ef9190810190611099565b90506000805b82518110156107ae5783600160a060020a031663ed3719a58885848151811061072057610720610f30565b60200260200101516040518363ffffffff1660e060020a02815260040161074892919061115b565b602060405180830381865afa158015610765573d6000803e3d6000fd5b505050506040513d601f19601f820116820180604052508101906107899190611174565b1561079c578161079881611196565b9250505b806107a68161107e565b9150506106f5565b508061ffff1667ffffffffffffffff8111156107cc576107cc610f62565b6040519080825280602002602001820160405280156107ff57816020015b60608152602001906001900390816107ea5790505b5094508061ffff1667ffffffffffffffff81111561081f5761081f610f62565b604051908082528060200260200182016040528015610848578160200160208202803683370190505b5093506000905060005b8251811015610a755783600160a060020a031663ed3719a58885848151811061087d5761087d610f30565b60200260200101516040518363ffffffff1660e060020a0281526004016108a592919061115b565b602060405180830381865afa1580156108c2573d6000803e3d6000fd5b505050506040513d601f19601f820116820180604052508101906108e69190611174565b15610a63578281815181106108fd576108fd610f30565b6020026020010151868361ffff168151811061091b5761091b610f30565b6020026020010181905250600084600160a060020a03166335e333e46040518163ffffffff1660e060020a028152600401602060405180830381865afa158015610969573d6000803e3d6000fd5b505050506040513d601f19601f8201168201806040525081019061098d9190610ef0565b905080600160a060020a03166330821b9c898685815181106109b1576109b1610f30565b60200260200101516040518363ffffffff1660e060020a0281526004016109d992919061115b565b602060405180830381865afa1580156109f6573d6000803e3d6000fd5b505050506040513d601f19601f82011682018060405250810190610a1a91906111b8565b600b811115610a2b57610a2b6111d9565b868461ffff1681518110610a4157610a41610f30565b61ffff9092166020928302919091019091015282610a5e81611196565b935050505b80610a6d8161107e565b915050610852565b505050509250929050565b600080600083905080600160a060020a031663108c5e146040518163ffffffff1660e060020a028152600401602060405180830381865afa158015610ac9573d6000803e3d6000fd5b505050506040513d601f19601f82011682018060405250810190610aed9190610f49565b925080600160a060020a03166338b145df6040518163ffffffff1660e060020a028152600401602060405180830381865afa158015610b30573d6000803e3d6000fd5b505050506040513d601f19601f82011682018060405250810190610b549190610f49565b915050915091565b60606000839050600081600160a060020a031663c06dea4e6040518163ffffffff1660e060020a028152600401602060405180830381865afa158015610ba6573d6000803e3d6000fd5b505050506040513d601f19601f82011682018060405250810190610bca9190610ef0565b6040517fbca7caa000000000000000000000000000000000000000000000000000000000815260048101869052336024820152909150600160a060020a038084169163d75e79809187919085169063bca7caa090604401602060405180830381865afa158015610c3e573d6000803e3d6000fd5b505050506040513d601f19601f82011682018060405250810190610c629190610f49565b60405160e060020a63ffffffff851602815260048101929092526024820152604401600060405180830381865afa158015610ca1573d6000803e3d6000fd5b505050506040513d6000823e601f3d908101601f19168201604052610cc99190810190611049565b95945050505050565b60405180606001604052806003906020820280368337509192915050565b600160a060020a0381168114610d0557600080fd5b50565b60008060408385031215610d1b57600080fd5b8235610d2681610cf0565b946020939093013593505050565b60608101818360005b6003811015610d5f57815160ff16835260209283019290910190600101610d3d565b50505092915050565b60005b83811015610d83578181015183820152602001610d6b565b83811115610d92576000848401525b50505050565b60008151808452610db0816020860160208601610d68565b601f01601f19169290920160200192915050565b6000828251808552602080860195508081830284010181860160005b84811015610e0e57601f19868403018952610dfc838351610d98565b98840198925090830190600101610de0565b5090979650505050505050565b604080825283519082018190526000906020906060840190828701845b82811015610e5457815184529284019290840190600101610e38565b50505083810382850152610e688186610dc4565b9695505050505050565b6020815260006106756020830184610d98565b604081526000610e986040830185610dc4565b82810360208481019190915284518083528582019282019060005b81811015610e0e57845161ffff1683529383019391830191600101610eb3565b600060208284031215610ee557600080fd5b813561067581610cf0565b600060208284031215610f0257600080fd5b815161067581610cf0565b600060208284031215610f1f57600080fd5b815160ff8116811461067557600080fd5b60e060020a634e487b7102600052603260045260246000fd5b600060208284031215610f5b57600080fd5b5051919050565b60e060020a634e487b7102600052604160045260246000fd5b60e060020a634e487b7102600052601160045260246000fd5b60008219821115610fa757610fa7610f7b565b500190565b604051601f8201601f1916810167ffffffffffffffff81118282101715610fd557610fd5610f62565b604052919050565b600082601f830112610fee57600080fd5b815167ffffffffffffffff81111561100857611008610f62565b61101b601f8201601f1916602001610fac565b81815284602083860101111561103057600080fd5b611041826020830160208701610d68565b949350505050565b60006020828403121561105b57600080fd5b815167ffffffffffffffff81111561107257600080fd5b61104184828501610fdd565b600060001982141561109257611092610f7b565b5060010190565b600060208083850312156110ac57600080fd5b825167ffffffffffffffff808211156110c457600080fd5b818501915085601f8301126110d857600080fd5b8151818111156110ea576110ea610f62565b8381026110f8858201610fac565b918252838101850191858101908984111561111257600080fd5b86860192505b8383101561114e578251858111156111305760008081fd5b61113e8b89838a0101610fdd565b8352509186019190860190611118565b9998505050505050505050565b8281526040602082015260006110416040830184610d98565b60006020828403121561118657600080fd5b8151801515811461067557600080fd5b600061ffff808316818114156111ae576111ae610f7b565b6001019392505050565b6000602082840312156111ca57600080fd5b8151600c811061067557600080fd5b60e060020a634e487b7102600052602160045260246000fdfea26469706673582212205bd9f806c40afbc6b5e28cef1187962bfc6bceb0d8113e77a1c0015dcd4e934b64736f6c634300080b0033",
  "immutableReferences": {},
  "source": "// SPDX-License-Identifier: GPL-3.0\npragma solidity >=0.8.0;\n\nimport \"../HexplorationBoard.sol\";\nimport \"../HexplorationZone.sol\";\nimport \"@luckymachines/game-core/contracts/src/v0.0/PlayerRegistry.sol\";\nimport \"./CharacterCard.sol\";\n// Game Wallets\nimport \"./BoardWallet.sol\";\nimport \"./PlayerWallet.sol\";\nimport \"./ZoneWallet.sol\";\n\nlibrary GameSummary {\n    // enemies\n    // tokens\n    function boardSize(address gameBoardAddress)\n        public\n        view\n        returns (uint256 rows, uint256 columns)\n    {\n        HexplorationBoard board = HexplorationBoard(gameBoardAddress);\n        rows = board.gridHeight();\n        columns = board.gridWidth();\n    }\n\n    function activeZones(address gameBoardAddress, uint256 gameID)\n        public\n        view\n        returns (string[] memory zones, uint16[] memory tiles)\n    {\n        HexplorationBoard board = HexplorationBoard(gameBoardAddress);\n        string[] memory allZones = board.getZoneAliases();\n\n        uint16 activeZoneCount = 0;\n        for (uint256 i = 0; i < allZones.length; i++) {\n            if (board.zoneEnabled(gameID, allZones[i])) {\n                activeZoneCount++;\n            }\n        }\n        zones = new string[](activeZoneCount);\n        tiles = new uint16[](activeZoneCount);\n\n        activeZoneCount = 0;\n        for (uint256 i = 0; i < allZones.length; i++) {\n            if (board.zoneEnabled(gameID, allZones[i])) {\n                zones[activeZoneCount] = allZones[i];\n                HexplorationZone hexZone = HexplorationZone(\n                    board.hexZoneAddress()\n                );\n                tiles[activeZoneCount] = uint16(\n                    hexZone.tile(gameID, allZones[i])\n                );\n                activeZoneCount++;\n            }\n        }\n    }\n\n    function landingSite(address gameBoardAddress, uint256 gameID)\n        public\n        view\n        returns (string memory)\n    {\n        return HexplorationBoard(gameBoardAddress).initialPlayZone(gameID);\n    }\n\n    function currentLocation(address gameBoardAddress, uint256 gameID)\n        public\n        view\n        returns (string memory)\n    {\n        HexplorationBoard board = HexplorationBoard(gameBoardAddress);\n        PlayerRegistry pr = PlayerRegistry(board.prAddress());\n        return board.currentPlayZone(gameID, pr.playerID(gameID, msg.sender));\n    }\n\n    function allPlayerLocations(address gameBoardAddress, uint256 gameID)\n        public\n        view\n        returns (uint256[] memory, string[] memory)\n    {\n        HexplorationBoard board = HexplorationBoard(gameBoardAddress);\n        PlayerRegistry pr = PlayerRegistry(board.prAddress());\n        uint256 totalRegistrations = pr.totalRegistrations(gameID);\n        uint256[] memory playerIDs = new uint256[](totalRegistrations);\n        string[] memory playerZones = new string[](totalRegistrations);\n        for (uint256 i = 0; i < totalRegistrations; i++) {\n            playerIDs[i] = i + 1;\n            playerZones[i] = board.currentPlayZone(gameID, i + 1);\n        }\n        return (playerIDs, playerZones);\n    }\n\n    function currentPlayerStats(address gameBoardAddress, uint256 gameID)\n        public\n        view\n        returns (uint8[3] memory stats)\n    {\n        HexplorationBoard board = HexplorationBoard(gameBoardAddress);\n        CharacterCard cc = CharacterCard(board.characterCardAddress());\n        stats[0] = cc.movement(gameID, msg.sender);\n        stats[1] = cc.agility(gameID, msg.sender);\n        stats[2] = cc.dexterity(gameID, msg.sender);\n    }\n}\n",
  "sourcePath": "/Users/maxmeier/Developer/Lucky Machines/hexploration/contracts/state/GameSummary.sol",
  "compiler": {
    "name": "solc",
    "version": "0.8.11+commit.d7f03943.Emscripten.clang"
  },
  "schemaVersion": "3.4.4",
  "updatedAt": "2022-05-15T22:13:20.618Z",
  "devdoc": {
    "kind": "dev",
    "methods": {},
    "version": 1
  },
  "userdoc": {
    "kind": "user",
    "methods": {},
    "version": 1
  }
}