{
  "contractName": "GameSummary",
  "abi": [
    {
      "inputs": [
        {
          "internalType": "address",
          "name": "gameBoardAddress",
          "type": "address"
        },
        {
          "internalType": "uint256",
          "name": "gameID",
          "type": "uint256"
        }
      ],
      "name": "activeZones",
      "outputs": [
        {
          "internalType": "string[]",
          "name": "zones",
          "type": "string[]"
        },
        {
          "internalType": "enum HexplorationZone.Tile[]",
          "name": "tiles",
          "type": "HexplorationZone.Tile[]"
        }
      ],
      "stateMutability": "view",
      "type": "function"
    },
    {
      "inputs": [
        {
          "internalType": "address",
          "name": "gameBoardAddress",
          "type": "address"
        },
        {
          "internalType": "uint256",
          "name": "gameID",
          "type": "uint256"
        }
      ],
      "name": "landingSite",
      "outputs": [
        {
          "internalType": "string",
          "name": "",
          "type": "string"
        }
      ],
      "stateMutability": "view",
      "type": "function"
    },
    {
      "inputs": [
        {
          "internalType": "address",
          "name": "gameBoardAddress",
          "type": "address"
        },
        {
          "internalType": "uint256",
          "name": "gameID",
          "type": "uint256"
        }
      ],
      "name": "currentLocation",
      "outputs": [
        {
          "internalType": "string",
          "name": "",
          "type": "string"
        }
      ],
      "stateMutability": "view",
      "type": "function"
    },
    {
      "inputs": [
        {
          "internalType": "address",
          "name": "gameBoardAddress",
          "type": "address"
        },
        {
          "internalType": "uint256",
          "name": "gameID",
          "type": "uint256"
        }
      ],
      "name": "allPlayerLocations",
      "outputs": [
        {
          "internalType": "uint256[]",
          "name": "",
          "type": "uint256[]"
        },
        {
          "internalType": "string[]",
          "name": "",
          "type": "string[]"
        }
      ],
      "stateMutability": "view",
      "type": "function"
    }
  ],
  "bytecode": "0x610e64610053600b82828239805160001a607314610046577f4e487b7100000000000000000000000000000000000000000000000000000000600052600060045260246000fd5b30600052607381538281f3fe73000000000000000000000000000000000000000030146080604052600436106100595760e060020a60003504638191e062811461005e578063821ba3a114610088578063e569d33a146100a8578063f8ffdfcc146100c9575b600080fd5b61007161006c36600461098e565b6100dc565b60405161007f929190610a6d565b60405180910390f35b61009b61009636600461098e565b610361565b60405161007f9190610ac4565b6100bb6100b636600461098e565b6103f1565b60405161007f929190610af0565b61009b6100d736600461098e565b610800565b6060806000849050600081600160a060020a031663c06dea4e6040518163ffffffff1660e060020a028152600401602060405180830381865afa158015610127573d6000803e3d6000fd5b505050506040513d601f19601f8201168201806040525081019061014b9190610b68565b6040517fb77ff41100000000000000000000000000000000000000000000000000000000815260048101879052909150600090600160a060020a0383169063b77ff41190602401602060405180830381865afa1580156101af573d6000803e3d6000fd5b505050506040513d601f19601f820116820180604052508101906101d39190610b85565b905060008167ffffffffffffffff8111156101f0576101f0610b9e565b604051908082528060200260200182016040528015610219578160200160208202803683370190505b50905060008267ffffffffffffffff81111561023757610237610b9e565b60405190808252806020026020018201604052801561026a57816020015b60608152602001906001900390816102555790505b50905060005b8381101561035257610283816001610bd0565b83828151811061029557610295610be8565b6020908102919091010152600160a060020a03861663d75e79808a6102bb846001610bd0565b60405160e060020a63ffffffff851602815260048101929092526024820152604401600060405180830381865afa1580156102fa573d6000803e3d6000fd5b505050506040513d6000823e601f3d908101601f191682016040526103229190810190610c9e565b82828151811061033457610334610be8565b6020026020010181905250808061034a90610cd3565b915050610270565b50909890975095505050505050565b6040517feb33983d00000000000000000000000000000000000000000000000000000000815260048101829052606090600160a060020a0384169063eb33983d90602401600060405180830381865afa1580156103c2573d6000803e3d6000fd5b505050506040513d6000823e601f3d908101601f191682016040526103ea9190810190610c9e565b9392505050565b6060806000849050600081600160a060020a0316633ca61a586040518163ffffffff1660e060020a028152600401600060405180830381865afa15801561043c573d6000803e3d6000fd5b505050506040513d6000823e601f3d908101601f191682016040526104649190810190610cee565b90506000805b82518110156105235783600160a060020a031663ed3719a58885848151811061049557610495610be8565b60200260200101516040518363ffffffff1660e060020a0281526004016104bd929190610db0565b602060405180830381865afa1580156104da573d6000803e3d6000fd5b505050506040513d601f19601f820116820180604052508101906104fe9190610dc9565b15610511578161050d81610deb565b9250505b8061051b81610cd3565b91505061046a565b508061ffff1667ffffffffffffffff81111561054157610541610b9e565b60405190808252806020026020018201604052801561057457816020015b606081526020019060019003908161055f5790505b5094508061ffff1667ffffffffffffffff81111561059457610594610b9e565b6040519080825280602002602001820160405280156105bd578160200160208202803683370190505b5093506000905060005b82518110156107f55783600160a060020a031663ed3719a5888584815181106105f2576105f2610be8565b60200260200101516040518363ffffffff1660e060020a02815260040161061a929190610db0565b602060405180830381865afa158015610637573d6000803e3d6000fd5b505050506040513d601f19601f8201168201806040525081019061065b9190610dc9565b156107e35782818151811061067257610672610be8565b6020026020010151868361ffff168151811061069057610690610be8565b6020026020010181905250600084600160a060020a03166335e333e46040518163ffffffff1660e060020a028152600401602060405180830381865afa1580156106de573d6000803e3d6000fd5b505050506040513d601f19601f820116820180604052508101906107029190610b68565b905080600160a060020a03166330821b9c8986858151811061072657610726610be8565b60200260200101516040518363ffffffff1660e060020a02815260040161074e929190610db0565b602060405180830381865afa15801561076b573d6000803e3d6000fd5b505050506040513d601f19601f8201168201806040525081019061078f9190610e0d565b868461ffff16815181106107a5576107a5610be8565b6020026020010190600a8111156107be576107be610ad7565b9081600a8111156107d1576107d1610ad7565b905250826107de81610deb565b935050505b806107ed81610cd3565b9150506105c7565b505050509250929050565b60606000839050600081600160a060020a031663c06dea4e6040518163ffffffff1660e060020a028152600401602060405180830381865afa15801561084a573d6000803e3d6000fd5b505050506040513d601f19601f8201168201806040525081019061086e9190610b68565b6040517fbca7caa000000000000000000000000000000000000000000000000000000000815260048101869052336024820152909150600160a060020a038084169163d75e79809187919085169063bca7caa090604401602060405180830381865afa1580156108e2573d6000803e3d6000fd5b505050506040513d601f19601f820116820180604052508101906109069190610b85565b60405160e060020a63ffffffff851602815260048101929092526024820152604401600060405180830381865afa158015610945573d6000803e3d6000fd5b505050506040513d6000823e601f3d908101601f1916820160405261096d9190810190610c9e565b95945050505050565b600160a060020a038116811461098b57600080fd5b50565b600080604083850312156109a157600080fd5b82356109ac81610976565b946020939093013593505050565b60005b838110156109d55781810151838201526020016109bd565b838111156109e4576000848401525b50505050565b60008151808452610a028160208601602086016109ba565b601f01601f19169290920160200192915050565b6000828251808552602080860195508081830284010181860160005b84811015610a6057601f19868403018952610a4e8383516109ea565b98840198925090830190600101610a32565b5090979650505050505050565b604080825283519082018190526000906020906060840190828701845b82811015610aa657815184529284019290840190600101610a8a565b50505083810382850152610aba8186610a16565b9695505050505050565b6020815260006103ea60208301846109ea565b60e060020a634e487b7102600052602160045260246000fd5b604081526000610b036040830185610a16565b8281036020848101919091528451808352858201928201906000805b82811015610b5a578551600b8110610b485760e060020a634e487b710283526021600452602483fd5b84529484019492840192600101610b1f565b509198975050505050505050565b600060208284031215610b7a57600080fd5b81516103ea81610976565b600060208284031215610b9757600080fd5b5051919050565b60e060020a634e487b7102600052604160045260246000fd5b60e060020a634e487b7102600052601160045260246000fd5b60008219821115610be357610be3610bb7565b500190565b60e060020a634e487b7102600052603260045260246000fd5b604051601f8201601f1916810167ffffffffffffffff81118282101715610c2a57610c2a610b9e565b604052919050565b600082601f830112610c4357600080fd5b815167ffffffffffffffff811115610c5d57610c5d610b9e565b610c70601f8201601f1916602001610c01565b818152846020838601011115610c8557600080fd5b610c968260208301602087016109ba565b949350505050565b600060208284031215610cb057600080fd5b815167ffffffffffffffff811115610cc757600080fd5b610c9684828501610c32565b6000600019821415610ce757610ce7610bb7565b5060010190565b60006020808385031215610d0157600080fd5b825167ffffffffffffffff80821115610d1957600080fd5b818501915085601f830112610d2d57600080fd5b815181811115610d3f57610d3f610b9e565b838102610d4d858201610c01565b9182528381018501918581019089841115610d6757600080fd5b86860192505b83831015610da357825185811115610d855760008081fd5b610d938b89838a0101610c32565b8352509186019190860190610d6d565b9998505050505050505050565b828152604060208201526000610c9660408301846109ea565b600060208284031215610ddb57600080fd5b815180151581146103ea57600080fd5b600061ffff80831681811415610e0357610e03610bb7565b6001019392505050565b600060208284031215610e1f57600080fd5b8151600b81106103ea57600080fdfea2646970667358221220bd4f6112b0662113ac8652f80cc854940a985b1d1b3b0bf5f20ebc115d542d4064736f6c634300080b0033",
  "immutableReferences": {},
  "source": "// SPDX-License-Identifier: GPL-3.0\npragma solidity >=0.8.0;\n\nimport \"../HexplorationBoard.sol\";\nimport \"../HexplorationZone.sol\";\nimport \"@luckymachines/game-core/contracts/src/v0.0/PlayerRegistry.sol\";\n\nlibrary GameSummary {\n    // enemies\n    // tokens\n    function activeZones(address gameBoardAddress, uint256 gameID)\n        public\n        view\n        returns (string[] memory zones, HexplorationZone.Tile[] memory tiles)\n    {\n        HexplorationBoard board = HexplorationBoard(gameBoardAddress);\n        string[] memory allZones = board.getZoneAliases();\n\n        uint16 activeZoneCount = 0;\n        for (uint256 i = 0; i < allZones.length; i++) {\n            if (board.zoneEnabled(gameID, allZones[i])) {\n                activeZoneCount++;\n            }\n        }\n        zones = new string[](activeZoneCount);\n        tiles = new HexplorationZone.Tile[](activeZoneCount);\n\n        activeZoneCount = 0;\n        for (uint256 i = 0; i < allZones.length; i++) {\n            if (board.zoneEnabled(gameID, allZones[i])) {\n                zones[activeZoneCount] = allZones[i];\n                HexplorationZone hexZone = HexplorationZone(\n                    board.hexZoneAddress()\n                );\n                tiles[activeZoneCount] = hexZone.tile(gameID, allZones[i]);\n                activeZoneCount++;\n            }\n        }\n    }\n\n    function landingSite(address gameBoardAddress, uint256 gameID)\n        public\n        view\n        returns (string memory)\n    {\n        return HexplorationBoard(gameBoardAddress).initialPlayZone(gameID);\n    }\n\n    function currentLocation(address gameBoardAddress, uint256 gameID)\n        public\n        view\n        returns (string memory)\n    {\n        HexplorationBoard board = HexplorationBoard(gameBoardAddress);\n        PlayerRegistry pr = PlayerRegistry(board.prAddress());\n        return board.currentPlayZone(gameID, pr.playerID(gameID, msg.sender));\n    }\n\n    function allPlayerLocations(address gameBoardAddress, uint256 gameID)\n        public\n        view\n        returns (uint256[] memory, string[] memory)\n    {\n        HexplorationBoard board = HexplorationBoard(gameBoardAddress);\n        PlayerRegistry pr = PlayerRegistry(board.prAddress());\n        uint256 totalRegistrations = pr.totalRegistrations(gameID);\n        uint256[] memory playerIDs = new uint256[](totalRegistrations);\n        string[] memory playerZones = new string[](totalRegistrations);\n        for (uint256 i = 0; i < totalRegistrations; i++) {\n            playerIDs[i] = i + 1;\n            playerZones[i] = board.currentPlayZone(gameID, i + 1);\n        }\n        return (playerIDs, playerZones);\n    }\n}\n",
  "sourcePath": "/Users/maxmeier/Developer/Lucky Machines/hexploration/contracts/state/GameSummary.sol",
  "compiler": {
    "name": "solc",
    "version": "0.8.11+commit.d7f03943.Emscripten.clang"
  },
  "schemaVersion": "3.4.4",
  "updatedAt": "2022-05-13T23:00:09.387Z",
  "devdoc": {
    "kind": "dev",
    "methods": {},
    "version": 1
  },
  "userdoc": {
    "kind": "user",
    "methods": {},
    "version": 1
  }
}