{
  "contractName": "GameController",
  "abi": [
    {
      "inputs": [
        {
          "internalType": "uint256",
          "name": "pathIndex",
          "type": "uint256"
        },
        {
          "internalType": "uint256",
          "name": "gameID",
          "type": "uint256"
        },
        {
          "internalType": "address",
          "name": "gameBoardAddress",
          "type": "address"
        }
      ],
      "name": "exitToPath",
      "outputs": [],
      "stateMutability": "nonpayable",
      "type": "function"
    }
  ],
  "bytecode": "0x608060405234801561001057600080fd5b506101b6806100206000396000f3fe608060405234801561001057600080fd5b5060043610610047577c010000000000000000000000000000000000000000000000000000000060003504637479c8fe811461004c575b600080fd5b61005f61005a366004610105565b610061565b005b6040517f9eb356cb000000000000000000000000000000000000000000000000000000008152600481018390523360248201526044810184905273ffffffffffffffffffffffffffffffffffffffff821690639eb356cb906064016020604051808303816000875af11580156100db573d6000803e3d6000fd5b505050506040513d601f19601f820116820180604052508101906100ff9190610157565b50505050565b60008060006060848603121561011a57600080fd5b8335925060208401359150604084013573ffffffffffffffffffffffffffffffffffffffff8116811461014c57600080fd5b809150509250925092565b60006020828403121561016957600080fd5b8151801515811461017957600080fd5b939250505056fea264697066735822122071da968a799c2c1e5552eef9896dbe9bc462a27b959322914d62616fd5ad41d764736f6c634300080b0033",
  "immutableReferences": {},
  "source": "// SPDX-License-Identifier: GPL-3.0\npragma solidity >=0.7.0 <0.9.0;\n\nimport \"./PlayZone.sol\";\nimport \"./GameBoard.sol\";\n\ncontract GameController {\n    function exitToPath(\n        uint256 pathIndex,\n        uint256 gameID,\n        address gameBoardAddress\n    ) public {\n        // called directly by player\n        GameBoard(gameBoardAddress).exitToPath(gameID, msg.sender, pathIndex);\n    }\n}\n",
  "sourcePath": "@luckymachines/game-core/contracts/src/v0.0/GameController.sol",
  "compiler": {
    "name": "solc",
    "version": "0.8.11+commit.d7f03943.Emscripten.clang"
  },
  "schemaVersion": "3.4.4",
  "updatedAt": "2022-05-10T22:43:52.429Z",
  "devdoc": {
    "kind": "dev",
    "methods": {},
    "version": 1
  },
  "userdoc": {
    "kind": "user",
    "methods": {},
    "version": 1
  }
}