{
  "contractName": "GameSummary",
  "abi": [
    {
      "inputs": [
        {
          "internalType": "address",
          "name": "gameBoardAddress",
          "type": "address"
        }
      ],
      "name": "boardSize",
      "outputs": [
        {
          "internalType": "uint256",
          "name": "rows",
          "type": "uint256"
        },
        {
          "internalType": "uint256",
          "name": "columns",
          "type": "uint256"
        }
      ],
      "stateMutability": "view",
      "type": "function",
      "constant": true
    },
    {
      "inputs": [
        {
          "internalType": "address",
          "name": "gameBoardAddress",
          "type": "address"
        },
        {
          "internalType": "uint256",
          "name": "gameID",
          "type": "uint256"
        },
        {
          "internalType": "address",
          "name": "playerAddress",
          "type": "address"
        }
      ],
      "name": "isRegistered",
      "outputs": [
        {
          "internalType": "bool",
          "name": "",
          "type": "bool"
        }
      ],
      "stateMutability": "view",
      "type": "function",
      "constant": true
    },
    {
      "inputs": [
        {
          "internalType": "address",
          "name": "gameBoardAddress",
          "type": "address"
        },
        {
          "internalType": "uint256",
          "name": "gameID",
          "type": "uint256"
        },
        {
          "internalType": "address",
          "name": "playerAddress",
          "type": "address"
        }
      ],
      "name": "getPlayerID",
      "outputs": [
        {
          "internalType": "uint256",
          "name": "playerID",
          "type": "uint256"
        }
      ],
      "stateMutability": "view",
      "type": "function",
      "constant": true
    },
    {
      "inputs": [],
      "name": "getAvailableGameIDs",
      "outputs": [
        {
          "internalType": "uint256[]",
          "name": "",
          "type": "uint256[]"
        }
      ],
      "stateMutability": "view",
      "type": "function",
      "constant": true
    },
    {
      "inputs": [
        {
          "internalType": "address",
          "name": "gameBoardAddress",
          "type": "address"
        },
        {
          "internalType": "uint256",
          "name": "gameID",
          "type": "uint256"
        }
      ],
      "name": "currentPhase",
      "outputs": [
        {
          "internalType": "string",
          "name": "phase",
          "type": "string"
        }
      ],
      "stateMutability": "view",
      "type": "function",
      "constant": true
    },
    {
      "inputs": [
        {
          "internalType": "address",
          "name": "gameBoardAddress",
          "type": "address"
        },
        {
          "internalType": "uint256",
          "name": "gameID",
          "type": "uint256"
        }
      ],
      "name": "activeZones",
      "outputs": [
        {
          "internalType": "string[]",
          "name": "zones",
          "type": "string[]"
        },
        {
          "internalType": "uint16[]",
          "name": "tiles",
          "type": "uint16[]"
        }
      ],
      "stateMutability": "view",
      "type": "function",
      "constant": true
    },
    {
      "inputs": [
        {
          "internalType": "address",
          "name": "gameBoardAddress",
          "type": "address"
        },
        {
          "internalType": "uint256",
          "name": "gameID",
          "type": "uint256"
        }
      ],
      "name": "landingSite",
      "outputs": [
        {
          "internalType": "string",
          "name": "",
          "type": "string"
        }
      ],
      "stateMutability": "view",
      "type": "function",
      "constant": true
    },
    {
      "inputs": [
        {
          "internalType": "address",
          "name": "gameBoardAddress",
          "type": "address"
        },
        {
          "internalType": "uint256",
          "name": "gameID",
          "type": "uint256"
        }
      ],
      "name": "currentLocation",
      "outputs": [
        {
          "internalType": "string",
          "name": "",
          "type": "string"
        }
      ],
      "stateMutability": "view",
      "type": "function",
      "constant": true
    },
    {
      "inputs": [
        {
          "internalType": "address",
          "name": "gameBoardAddress",
          "type": "address"
        },
        {
          "internalType": "uint256",
          "name": "gameID",
          "type": "uint256"
        }
      ],
      "name": "allPlayerLocations",
      "outputs": [
        {
          "internalType": "uint256[]",
          "name": "",
          "type": "uint256[]"
        },
        {
          "internalType": "string[]",
          "name": "",
          "type": "string[]"
        }
      ],
      "stateMutability": "view",
      "type": "function",
      "constant": true
    },
    {
      "inputs": [
        {
          "internalType": "address",
          "name": "gameBoardAddress",
          "type": "address"
        },
        {
          "internalType": "uint256",
          "name": "gameID",
          "type": "uint256"
        }
      ],
      "name": "currentPlayerStats",
      "outputs": [
        {
          "internalType": "uint8",
          "name": "movement",
          "type": "uint8"
        },
        {
          "internalType": "uint8",
          "name": "agility",
          "type": "uint8"
        },
        {
          "internalType": "uint8",
          "name": "dexterity",
          "type": "uint8"
        }
      ],
      "stateMutability": "view",
      "type": "function",
      "constant": true
    },
    {
      "inputs": [
        {
          "internalType": "address",
          "name": "gameBoardAddress",
          "type": "address"
        },
        {
          "internalType": "uint256",
          "name": "gameID",
          "type": "uint256"
        }
      ],
      "name": "currentHandInventory",
      "outputs": [
        {
          "internalType": "string",
          "name": "leftHandItem",
          "type": "string"
        },
        {
          "internalType": "string",
          "name": "rightHandItem",
          "type": "string"
        }
      ],
      "stateMutability": "view",
      "type": "function",
      "constant": true
    },
    {
      "inputs": [
        {
          "internalType": "address",
          "name": "gameBoardAddress",
          "type": "address"
        },
        {
          "internalType": "uint256",
          "name": "gameID",
          "type": "uint256"
        }
      ],
      "name": "activeInventory",
      "outputs": [
        {
          "internalType": "string",
          "name": "artifact",
          "type": "string"
        },
        {
          "internalType": "string",
          "name": "status",
          "type": "string"
        },
        {
          "internalType": "string",
          "name": "relic",
          "type": "string"
        },
        {
          "internalType": "bool",
          "name": "shield",
          "type": "bool"
        },
        {
          "internalType": "bool",
          "name": "campsite",
          "type": "bool"
        }
      ],
      "stateMutability": "view",
      "type": "function",
      "constant": true
    },
    {
      "inputs": [
        {
          "internalType": "address",
          "name": "gameBoardAddress",
          "type": "address"
        },
        {
          "internalType": "uint256",
          "name": "gameID",
          "type": "uint256"
        }
      ],
      "name": "inactiveInventory",
      "outputs": [
        {
          "internalType": "string[]",
          "name": "itemTypes",
          "type": "string[]"
        },
        {
          "internalType": "uint256[]",
          "name": "itemBalances",
          "type": "uint256[]"
        }
      ],
      "stateMutability": "view",
      "type": "function",
      "constant": true
    }
  ],
  "bytecode": "0x6135a4610053600b82828239805160001a607314610046577f4e487b7100000000000000000000000000000000000000000000000000000000600052600060045260246000fd5b30600052607381538281f3fe73000000000000000000000000000000000000000030146080604052600436106100dd5760003560e060020a90048063a75d3f871161009a578063e569d33a11610074578063e569d33a14610207578063ee203a8e14610228578063f59bf90314610250578063f8ffdfcc1461027457600080fd5b8063a75d3f87146101b0578063b0be1afa146101c3578063cabd6fda146101e457600080fd5b80632f874fe0146100e257806330f7337a1461011e5780636ee1173e1461013f5780638191e0621461014e578063821ba3a11461016f57806386599da81461018f575b600080fd5b6100f56100f0366004612f27565b610287565b6040805160ff948516815292841660208401529216918101919091526060015b60405180910390f35b61013161012c366004612f53565b6104a3565b604051908152602001610115565b60606040516101159190612fd0565b61016161015c366004612f27565b6105a5565b604051610115929190613096565b61018261017d366004612f27565b61082a565b60405161011591906130bb565b6101a261019d366004612f27565b6108ba565b6040516101159291906130ce565b6101826101be366004612f27565b61182f565b6101d66101d1366004612f27565b611a4a565b6040516101159291906130f3565b6101f76101f2366004612f53565b611e00565b6040519015158152602001610115565b61021a610215366004612f27565b611ef8565b604051610115929190613118565b61023b610236366004613166565b6122f1565b60408051928352602083019190915201610115565b61026361025e366004612f27565b6123cd565b604051610115959493929190613183565b610182610282366004612f27565b612c40565b600080600080859050600081600160a060020a031663a0ed600d6040518163ffffffff1660e060020a028152600401602060405180830381865afa1580156102d3573d6000803e3d6000fd5b505050506040513d601f19601f820116820180604052508101906102f791906131d6565b6040517ffdf5a31c000000000000000000000000000000000000000000000000000000008152909150600160a060020a0382169063fdf5a31c9061034190899033906004016131f3565b602060405180830381865afa15801561035e573d6000803e3d6000fd5b505050506040513d601f19601f82011682018060405250810190610382919061320a565b6040517fca318967000000000000000000000000000000000000000000000000000000008152909550600160a060020a0382169063ca318967906103cc90899033906004016131f3565b602060405180830381865afa1580156103e9573d6000803e3d6000fd5b505050506040513d601f19601f8201168201806040525081019061040d919061320a565b6040517f989c11a9000000000000000000000000000000000000000000000000000000008152909450600160a060020a0382169063989c11a99061045790899033906004016131f3565b602060405180830381865afa158015610474573d6000803e3d6000fd5b505050506040513d601f19601f82011682018060405250810190610498919061320a565b925050509250925092565b600080849050600081600160a060020a031663c06dea4e6040518163ffffffff1660e060020a028152600401602060405180830381865afa1580156104ec573d6000803e3d6000fd5b505050506040513d601f19601f8201168201806040525081019061051091906131d6565b6040517fbca7caa0000000000000000000000000000000000000000000000000000000008152909150600160a060020a0382169063bca7caa09061055a90889088906004016131f3565b602060405180830381865afa158015610577573d6000803e3d6000fd5b505050506040513d601f19601f8201168201806040525081019061059b919061322d565b9695505050505050565b6060806000849050600081600160a060020a031663c06dea4e6040518163ffffffff1660e060020a028152600401602060405180830381865afa1580156105f0573d6000803e3d6000fd5b505050506040513d601f19601f8201168201806040525081019061061491906131d6565b6040517fb77ff41100000000000000000000000000000000000000000000000000000000815260048101879052909150600090600160a060020a0383169063b77ff41190602401602060405180830381865afa158015610678573d6000803e3d6000fd5b505050506040513d601f19601f8201168201806040525081019061069c919061322d565b905060008167ffffffffffffffff8111156106b9576106b9613246565b6040519080825280602002602001820160405280156106e2578160200160208202803683370190505b50905060008267ffffffffffffffff81111561070057610700613246565b60405190808252806020026020018201604052801561073357816020015b606081526020019060019003908161071e5790505b50905060005b8381101561081b5761074c816001613278565b83828151811061075e5761075e613290565b6020908102919091010152600160a060020a03861663d75e79808a610784846001613278565b60405160e060020a63ffffffff851602815260048101929092526024820152604401600060405180830381865afa1580156107c3573d6000803e3d6000fd5b505050506040513d6000823e601f3d908101601f191682016040526107eb9190810190613346565b8282815181106107fd576107fd613290565b602002602001018190525080806108139061337b565b915050610739565b50909890975095505050505050565b6040517feb33983d00000000000000000000000000000000000000000000000000000000815260048101829052606090600160a060020a0384169063eb33983d90602401600060405180830381865afa15801561088b573d6000803e3d6000fd5b505050506040513d6000823e601f3d908101601f191682016040526108b39190810190613346565b9392505050565b6060806000849050600081600160a060020a031663c06dea4e6040518163ffffffff1660e060020a028152600401602060405180830381865afa158015610905573d6000803e3d6000fd5b505050506040513d601f19601f8201168201806040525081019061092991906131d6565b9050600082600160a060020a031663cca369966040518163ffffffff1660e060020a028152600401602060405180830381865afa15801561096e573d6000803e3d6000fd5b505050506040513d601f19601f8201168201806040525081019061099291906131d6565b60408051602380825261048082019092529192506020820161046080368337019050506040805160238082526104808201909252919550816020015b60608152602001906001900390816109ce5790505094506040518060400160405280600a81526020017f536d616c6c20416d6d6f0000000000000000000000000000000000000000000081525085600081518110610a2e57610a2e613290565b60200260200101819052506040518060400160405280600a81526020017f4c6172676520416d6d6f0000000000000000000000000000000000000000000081525085600181518110610a8257610a82613290565b60200260200101819052506040518060400160405280600981526020017f426174746572696573000000000000000000000000000000000000000000000081525085600281518110610ad657610ad6613290565b60200260200101819052506040518060400160405280600681526020017f536869656c64000000000000000000000000000000000000000000000000000081525085600381518110610b2a57610b2a613290565b60200260200101819052506040518060400160405280600681526020017f506f7274616c000000000000000000000000000000000000000000000000000081525085600481518110610b7e57610b7e613290565b60200260200101819052506040518060400160405280600281526020017f4f6e00000000000000000000000000000000000000000000000000000000000081525085600581518110610bd257610bd2613290565b60200260200101819052506040518060400160405280600381526020017f4f6666000000000000000000000000000000000000000000000000000000000081525085600681518110610c2657610c26613290565b60200260200101819052506040518060400160405280600c81526020017f527573747920446167676572000000000000000000000000000000000000000081525085600781518110610c7a57610c7a613290565b60200260200101819052506040518060400160405280600b81526020017f52757374792053776f726400000000000000000000000000000000000000000081525085600881518110610cce57610cce613290565b60200260200101819052506040518060400160405280600c81526020017f527573747920506973746f6c000000000000000000000000000000000000000081525085600981518110610d2257610d22613290565b60200260200101819052506040518060400160405280600b81526020017f5275737479205269666c6500000000000000000000000000000000000000000081525085600a81518110610d7657610d76613290565b60200260200101819052506040518060400160405280600c81526020017f5368696e7920446167676572000000000000000000000000000000000000000081525085600b81518110610dca57610dca613290565b60200260200101819052506040518060400160405280600b81526020017f5368696e792053776f726400000000000000000000000000000000000000000081525085600c81518110610e1e57610e1e613290565b60200260200101819052506040518060400160405280600c81526020017f5368696e7920506973746f6c000000000000000000000000000000000000000081525085600d81518110610e7257610e72613290565b60200260200101819052506040518060400160405280600b81526020017f5368696e79205269666c6500000000000000000000000000000000000000000081525085600e81518110610ec657610ec6613290565b60200260200101819052506040518060400160405280600c81526020017f4c6173657220446167676572000000000000000000000000000000000000000081525085600f81518110610f1a57610f1a613290565b60200260200101819052506040518060400160405280600b81526020017f4c617365722053776f726400000000000000000000000000000000000000000081525085601081518110610f6e57610f6e613290565b60200260200101819052506040518060400160405280600c81526020017f4c6173657220506973746f6c000000000000000000000000000000000000000081525085601181518110610fc257610fc2613290565b60200260200101819052506040518060400160405280600b81526020017f4c61736572205269666c650000000000000000000000000000000000000000008152508560128151811061101657611016613290565b60200260200101819052506040518060400160405280600a81526020017f476c6f7720737469636b000000000000000000000000000000000000000000008152508560138151811061106a5761106a613290565b60200260200101819052506040518060400160405280600a81526020017f466c6173686c6967687400000000000000000000000000000000000000000000815250856014815181106110be576110be613290565b60200260200101819052506040518060400160405280600b81526020017f466c6f6f64206c696768740000000000000000000000000000000000000000008152508560158151811061111257611112613290565b60200260200101819052506040518060400160405280601381526020017f4e69676874766973696f6e20476f67676c6573000000000000000000000000008152508560168151811061116657611166613290565b60200260200101819052506040518060400160405280600f81526020017f506572736f6e616c20536869656c640000000000000000000000000000000000815250856017815181106111ba576111ba613290565b60200260200101819052506040518060400160405280600d81526020017f427562626c6520536869656c64000000000000000000000000000000000000008152508560188151811061120e5761120e613290565b60200260200101819052506040518060400160405280600c81526020017f46726167204772656e61646500000000000000000000000000000000000000008152508560198151811061126257611262613290565b60200260200101819052506040518060400160405280600c81526020017f46697265204772656e616465000000000000000000000000000000000000000081525085601a815181106112b6576112b6613290565b60200260200101819052506040518060400160405280600d81526020017f53686f636b204772656e6164650000000000000000000000000000000000000081525085601b8151811061130a5761130a613290565b60200260200101819052506040518060400160405280600981526020017f4845204d6f72746172000000000000000000000000000000000000000000000081525085601c8151811061135e5761135e613290565b60200260200101819052506040518060400160405280601181526020017f496e63656e6469617279204d6f7274617200000000000000000000000000000081525085601d815181106113b2576113b2613290565b60200260200101819052506040518060400160405280600a81526020017f454d50204d6f727461720000000000000000000000000000000000000000000081525085601e8151811061140657611406613290565b60200260200101819052506040518060400160405280600b81526020017f506f77657220476c6f766500000000000000000000000000000000000000000081525085601f8151811061145a5761145a613290565b602002602001018190525060405180606001604052806021815260200161354e602191398560208151811061149157611491613290565b60200260200101819052506040518060400160405280600f81526020017f54656c65706f72746572205061636b0000000000000000000000000000000000815250856021815181106114e5576114e5613290565b60200260200101819052506040518060400160405280600881526020017f43616d70736974650000000000000000000000000000000000000000000000008152508560228151811061153957611539613290565b6020026020010181905250600082600160a060020a031663bca7caa088336040518363ffffffff1660e060020a0281526004016115779291906131f3565b602060405180830381865afa158015611594573d6000803e3d6000fd5b505050506040513d601f19601f820116820180604052508101906115b8919061322d565b6040517f01d37be4000000000000000000000000000000000000000000000000000000008152909150600160a060020a038316906301d37be4906116059084906003908c906004016133af565b602060405180830381865afa158015611622573d6000803e3d6000fd5b505050506040513d601f19601f8201168201806040525081019061164691906133e8565b1561182457600082600160a060020a031663a318d45c6040518163ffffffff1660e060020a028152600401602060405180830381865afa15801561168e573d6000803e3d6000fd5b505050506040513d601f19601f820116820180604052508101906116b291906131d6565b9050600081600160a060020a031663c853a1d06040518163ffffffff1660e060020a028152600401600060405180830381865afa1580156116f7573d6000803e3d6000fd5b505050506040513d6000823e601f3d908101601f1916820160405261171f919081019061340a565b905060005b87518110156118205781818151811061173f5761173f613290565b602002602001015189828151811061175957611759613290565b602002602001018190525082600160a060020a0316634db157d083838151811061178557611785613290565b60200260200101518c876040518463ffffffff1660e060020a0281526004016117b0939291906134cc565b602060405180830381865afa1580156117cd573d6000803e3d6000fd5b505050506040513d601f19601f820116820180604052508101906117f1919061322d565b88828151811061180357611803613290565b6020908102919091010152806118188161337b565b915050611724565b5050505b505050509250929050565b60606000839050600081600160a060020a031663cca369966040518163ffffffff1660e060020a028152600401602060405180830381865afa158015611879573d6000803e3d6000fd5b505050506040513d601f19601f8201168201806040525081019061189d91906131d6565b9050600081600160a060020a031663a906dfd16040518163ffffffff1660e060020a028152600401602060405180830381865afa1580156118e2573d6000803e3d6000fd5b505050506040513d601f19601f8201168201806040525081019061190691906131d6565b6040517f4db157d000000000000000000000000000000000000000000000000000000000815260606004820152600360648201527f446179000000000000000000000000000000000000000000000000000000000060848201526024810187905260016044820152600160a060020a039190911690634db157d09060a401602060405180830381865afa1580156119a1573d6000803e3d6000fd5b505050506040513d601f19601f820116820180604052508101906119c5919061322d565b905060008111611a0a576040518060400160405280600581526020017f4e6967687400000000000000000000000000000000000000000000000000000081525061059b565b6040518060400160405280600381526020017f44617900000000000000000000000000000000000000000000000000000000008152509695505050505050565b6060806000849050600081600160a060020a031663a0ed600d6040518163ffffffff1660e060020a028152600401602060405180830381865afa158015611a95573d6000803e3d6000fd5b505050506040513d601f19601f82011682018060405250810190611ab991906131d6565b9050611c7581600160a060020a031663a082936d87336040518363ffffffff1660e060020a028152600401611aef9291906131f3565b600060405180830381865afa158015611b0c573d6000803e3d6000fd5b505050506040513d6000823e601f3d908101601f19168201604052611b349190810190613346565b83600160a060020a031663cca369966040518163ffffffff1660e060020a028152600401602060405180830381865afa158015611b75573d6000803e3d6000fd5b505050506040513d601f19601f82011682018060405250810190611b9991906131d6565b8785600160a060020a031663c06dea4e6040518163ffffffff1660e060020a028152600401602060405180830381865afa158015611bdb573d6000803e3d6000fd5b505050506040513d601f19601f82011682018060405250810190611bff91906131d6565b600160a060020a031663bca7caa08a336040518363ffffffff1660e060020a028152600401611c2f9291906131f3565b602060405180830381865afa158015611c4c573d6000803e3d6000fd5b505050506040513d601f19601f82011682018060405250810190611c70919061322d565b612da2565b611c8e5760405180602001604052806000815250611d1a565b6040517fa082936d000000000000000000000000000000000000000000000000000000008152600160a060020a0382169063a082936d90611cd590889033906004016131f3565b600060405180830381865afa158015611cf2573d6000803e3d6000fd5b505050506040513d6000823e601f3d908101601f19168201604052611d1a9190810190613346565b9350611d5081600160a060020a0316636662537087336040518363ffffffff1660e060020a028152600401611aef9291906131f3565b611d695760405180602001604052806000815250611df5565b6040517f66625370000000000000000000000000000000000000000000000000000000008152600160a060020a03821690636662537090611db090889033906004016131f3565b600060405180830381865afa158015611dcd573d6000803e3d6000fd5b505050506040513d6000823e601f3d908101601f19168201604052611df59190810190613346565b925050509250929050565b600080849050600081600160a060020a031663c06dea4e6040518163ffffffff1660e060020a028152600401602060405180830381865afa158015611e49573d6000803e3d6000fd5b505050506040513d601f19601f82011682018060405250810190611e6d91906131d6565b6040517fb81f6e18000000000000000000000000000000000000000000000000000000008152909150600160a060020a0382169063b81f6e1890611eb790889088906004016131f3565b602060405180830381865afa158015611ed4573d6000803e3d6000fd5b505050506040513d601f19601f8201168201806040525081019061059b91906133e8565b6060806000849050600081600160a060020a0316633ca61a586040518163ffffffff1660e060020a028152600401600060405180830381865afa158015611f43573d6000803e3d6000fd5b505050506040513d6000823e601f3d908101601f19168201604052611f6b919081019061340a565b90506000805b825181101561202a5783600160a060020a031663ed3719a588858481518110611f9c57611f9c613290565b60200260200101516040518363ffffffff1660e060020a028152600401611fc49291906134f1565b602060405180830381865afa158015611fe1573d6000803e3d6000fd5b505050506040513d601f19601f8201168201806040525081019061200591906133e8565b1561201857816120148161350a565b9250505b806120228161337b565b915050611f71565b508061ffff1667ffffffffffffffff81111561204857612048613246565b60405190808252806020026020018201604052801561207b57816020015b60608152602001906001900390816120665790505b5094508061ffff1667ffffffffffffffff81111561209b5761209b613246565b6040519080825280602002602001820160405280156120c4578160200160208202803683370190505b5093506000905060005b82518110156118245783600160a060020a031663ed3719a5888584815181106120f9576120f9613290565b60200260200101516040518363ffffffff1660e060020a0281526004016121219291906134f1565b602060405180830381865afa15801561213e573d6000803e3d6000fd5b505050506040513d601f19601f8201168201806040525081019061216291906133e8565b156122df5782818151811061217957612179613290565b6020026020010151868361ffff168151811061219757612197613290565b6020026020010181905250600084600160a060020a03166335e333e46040518163ffffffff1660e060020a028152600401602060405180830381865afa1580156121e5573d6000803e3d6000fd5b505050506040513d601f19601f8201168201806040525081019061220991906131d6565b905080600160a060020a03166330821b9c8986858151811061222d5761222d613290565b60200260200101516040518363ffffffff1660e060020a0281526004016122559291906134f1565b602060405180830381865afa158015612272573d6000803e3d6000fd5b505050506040513d601f19601f82011682018060405250810190612296919061352c565b600b8111156122a7576122a7613396565b868461ffff16815181106122bd576122bd613290565b61ffff90921660209283029190910190910152826122da8161350a565b935050505b806122e98161337b565b9150506120ce565b600080600083905080600160a060020a031663108c5e146040518163ffffffff1660e060020a028152600401602060405180830381865afa15801561233a573d6000803e3d6000fd5b505050506040513d601f19601f8201168201806040525081019061235e919061322d565b925080600160a060020a03166338b145df6040518163ffffffff1660e060020a028152600401602060405180830381865afa1580156123a1573d6000803e3d6000fd5b505050506040513d601f19601f820116820180604052508101906123c5919061322d565b915050915091565b60608060606000806000879050600081600160a060020a031663a0ed600d6040518163ffffffff1660e060020a028152600401602060405180830381865afa15801561241d573d6000803e3d6000fd5b505050506040513d601f19601f8201168201806040525081019061244191906131d6565b90506125fd81600160a060020a031663a2e8a8918a336040518363ffffffff1660e060020a0281526004016124779291906131f3565b600060405180830381865afa158015612494573d6000803e3d6000fd5b505050506040513d6000823e601f3d908101601f191682016040526124bc9190810190613346565b83600160a060020a031663cca369966040518163ffffffff1660e060020a028152600401602060405180830381865afa1580156124fd573d6000803e3d6000fd5b505050506040513d601f19601f8201168201806040525081019061252191906131d6565b8a85600160a060020a031663c06dea4e6040518163ffffffff1660e060020a028152600401602060405180830381865afa158015612563573d6000803e3d6000fd5b505050506040513d601f19601f8201168201806040525081019061258791906131d6565b600160a060020a031663bca7caa08d336040518363ffffffff1660e060020a0281526004016125b79291906131f3565b602060405180830381865afa1580156125d4573d6000803e3d6000fd5b505050506040513d601f19601f820116820180604052508101906125f8919061322d565b612e87565b61261657604051806020016040528060008152506126a2565b6040517fa2e8a891000000000000000000000000000000000000000000000000000000008152600160a060020a0382169063a2e8a8919061265d908b9033906004016131f3565b600060405180830381865afa15801561267a573d6000803e3d6000fd5b505050506040513d6000823e601f3d908101601f191682016040526126a29190810190613346565b965061285e81600160a060020a031663db1698b28a336040518363ffffffff1660e060020a0281526004016126d89291906131f3565b600060405180830381865afa1580156126f5573d6000803e3d6000fd5b505050506040513d6000823e601f3d908101601f1916820160405261271d9190810190613346565b83600160a060020a031663cca369966040518163ffffffff1660e060020a028152600401602060405180830381865afa15801561275e573d6000803e3d6000fd5b505050506040513d601f19601f8201168201806040525081019061278291906131d6565b8a85600160a060020a031663c06dea4e6040518163ffffffff1660e060020a028152600401602060405180830381865afa1580156127c4573d6000803e3d6000fd5b505050506040513d601f19601f820116820180604052508101906127e891906131d6565b600160a060020a031663bca7caa08d336040518363ffffffff1660e060020a0281526004016128189291906131f3565b602060405180830381865afa158015612835573d6000803e3d6000fd5b505050506040513d601f19601f82011682018060405250810190612859919061322d565b612ecb565b6128775760405180602001604052806000815250612903565b6040517fdb1698b2000000000000000000000000000000000000000000000000000000008152600160a060020a0382169063db1698b2906128be908b9033906004016131f3565b600060405180830381865afa1580156128db573d6000803e3d6000fd5b505050506040513d6000823e601f3d908101601f191682016040526129039190810190613346565b9550612a7981600160a060020a03166385c4f91d8a336040518363ffffffff1660e060020a0281526004016129399291906131f3565b600060405180830381865afa158015612956573d6000803e3d6000fd5b505050506040513d6000823e601f3d908101601f1916820160405261297e9190810190613346565b83600160a060020a031663cca369966040518163ffffffff1660e060020a028152600401602060405180830381865afa1580156129bf573d6000803e3d6000fd5b505050506040513d601f19601f820116820180604052508101906129e391906131d6565b8a85600160a060020a031663c06dea4e6040518163ffffffff1660e060020a028152600401602060405180830381865afa158015612a25573d6000803e3d6000fd5b505050506040513d601f19601f82011682018060405250810190612a4991906131d6565b600160a060020a031663bca7caa08d336040518363ffffffff1660e060020a028152600401611c2f9291906131f3565b612a925760405180602001604052806000815250612b1e565b6040517f85c4f91d000000000000000000000000000000000000000000000000000000008152600160a060020a038216906385c4f91d90612ad9908b9033906004016131f3565b600060405180830381865afa158015612af6573d6000803e3d6000fd5b505050506040513d6000823e601f3d908101601f19168201604052612b1e9190810190613346565b9450612b9a6040518060400160405280600681526020017f536869656c64000000000000000000000000000000000000000000000000000081525083600160a060020a031663cca369966040518163ffffffff1660e060020a028152600401602060405180830381865afa1580156129bf573d6000803e3d6000fd5b612ba5576000612ba8565b60015b9350612c246040518060400160405280600881526020017f43616d707369746500000000000000000000000000000000000000000000000081525083600160a060020a031663cca369966040518163ffffffff1660e060020a028152600401602060405180830381865afa1580156129bf573d6000803e3d6000fd5b612c2f576000612c32565b60015b925050509295509295909350565b60606000839050600081600160a060020a031663c06dea4e6040518163ffffffff1660e060020a028152600401602060405180830381865afa158015612c8a573d6000803e3d6000fd5b505050506040513d601f19601f82011682018060405250810190612cae91906131d6565b905081600160a060020a031663d75e79808583600160a060020a031663bca7caa088336040518363ffffffff1660e060020a028152600401612cf19291906131f3565b602060405180830381865afa158015612d0e573d6000803e3d6000fd5b505050506040513d601f19601f82011682018060405250810190612d32919061322d565b60405160e060020a63ffffffff851602815260048101929092526024820152604401600060405180830381865afa158015612d71573d6000803e3d6000fd5b505050506040513d6000823e601f3d908101601f19168201604052612d999190810190613346565b95945050505050565b60008084600160a060020a031663a318d45c6040518163ffffffff1660e060020a028152600401602060405180830381865afa158015612de6573d6000803e3d6000fd5b505050506040513d601f19601f82011682018060405250810190612e0a91906131d6565b600160a060020a0316634db157d08786866040518463ffffffff1660e060020a028152600401612e3c939291906134cc565b602060405180830381865afa158015612e59573d6000803e3d6000fd5b505050506040513d601f19601f82011682018060405250810190612e7d919061322d565b1195945050505050565b60008084600160a060020a03166345d339d96040518163ffffffff1660e060020a028152600401602060405180830381865afa158015612de6573d6000803e3d6000fd5b60008084600160a060020a031663c1cdbb3c6040518163ffffffff1660e060020a028152600401602060405180830381865afa158015612de6573d6000803e3d6000fd5b600160a060020a0381168114612f2457600080fd5b50565b60008060408385031215612f3a57600080fd5b8235612f4581612f0f565b946020939093013593505050565b600080600060608486031215612f6857600080fd5b8335612f7381612f0f565b9250602084013591506040840135612f8a81612f0f565b809150509250925092565b600081518084526020808501945080840160005b83811015612fc557815187529582019590820190600101612fa9565b509495945050505050565b6020815260006108b36020830184612f95565b60005b83811015612ffe578181015183820152602001612fe6565b8381111561300d576000848401525b50505050565b6000815180845261302b816020860160208601612fe3565b601f01601f19169290920160200192915050565b6000828251808552602080860195508081830284010181860160005b8481101561308957601f19868403018952613077838351613013565b9884019892509083019060010161305b565b5090979650505050505050565b6040815260006130a96040830185612f95565b8281036020840152612d99818561303f565b6020815260006108b36020830184613013565b6040815260006130e1604083018561303f565b8281036020840152612d998185612f95565b6040815260006131066040830185613013565b8281036020840152612d998185613013565b60408152600061312b604083018561303f565b82810360208481019190915284518083528582019282019060005b8181101561308957845161ffff1683529383019391830191600101613146565b60006020828403121561317857600080fd5b81356108b381612f0f565b60a08152600061319660a0830188613013565b82810360208401526131a88188613013565b905082810360408401526131bc8187613013565b941515606084015250509015156080909101529392505050565b6000602082840312156131e857600080fd5b81516108b381612f0f565b918252600160a060020a0316602082015260400190565b60006020828403121561321c57600080fd5b815160ff811681146108b357600080fd5b60006020828403121561323f57600080fd5b5051919050565b60e060020a634e487b7102600052604160045260246000fd5b60e060020a634e487b7102600052601160045260246000fd5b6000821982111561328b5761328b61325f565b500190565b60e060020a634e487b7102600052603260045260246000fd5b604051601f8201601f1916810167ffffffffffffffff811182821017156132d2576132d2613246565b604052919050565b600082601f8301126132eb57600080fd5b815167ffffffffffffffff81111561330557613305613246565b613318601f8201601f19166020016132a9565b81815284602083860101111561332d57600080fd5b61333e826020830160208701612fe3565b949350505050565b60006020828403121561335857600080fd5b815167ffffffffffffffff81111561336f57600080fd5b61333e848285016132da565b600060001982141561338f5761338f61325f565b5060010190565b60e060020a634e487b7102600052602160045260246000fd5b83815260608101600784106133d75760e060020a634e487b7102600052602160045260246000fd5b602082019390935260400152919050565b6000602082840312156133fa57600080fd5b815180151581146108b357600080fd5b6000602080838503121561341d57600080fd5b825167ffffffffffffffff8082111561343557600080fd5b818501915085601f83011261344957600080fd5b81518181111561345b5761345b613246565b8381026134698582016132a9565b918252838101850191858101908984111561348357600080fd5b86860192505b838310156134bf578251858111156134a15760008081fd5b6134af8b89838a01016132da565b8352509186019190860190613489565b9998505050505050505050565b6060815260006134df6060830186613013565b60208301949094525060400152919050565b82815260406020820152600061333e6040830184613013565b600061ffff808316818114156135225761352261325f565b6001019392505050565b60006020828403121561353e57600080fd5b8151600c81106108b357600080fdfe52656d6f7465204c61756e636820616e642047756964616e63652053797374656da2646970667358221220a0780ef21124b2386a0a7027d4de9d0ec77b4d24fac2ce996b9681cf54d61d6164736f6c634300080b0033",
  "immutableReferences": {},
  "source": "// SPDX-License-Identifier: GPL-3.0\npragma solidity >=0.8.0;\n\nimport \"../HexplorationBoard.sol\";\nimport \"../HexplorationZone.sol\";\nimport \"@luckymachines/game-core/contracts/src/v0.0/PlayerRegistry.sol\";\nimport \"./CharacterCard.sol\";\nimport \"../tokens/TokenInventory.sol\";\n\nlibrary GameSummary {\n    // enemies\n    // tokens\n    function boardSize(address gameBoardAddress)\n        public\n        view\n        returns (uint256 rows, uint256 columns)\n    {\n        HexplorationBoard board = HexplorationBoard(gameBoardAddress);\n        rows = board.gridHeight();\n        columns = board.gridWidth();\n    }\n\n    function isRegistered(\n        address gameBoardAddress,\n        uint256 gameID,\n        address playerAddress\n    ) public view returns (bool) {\n        HexplorationBoard board = HexplorationBoard(gameBoardAddress);\n        PlayerRegistry pr = PlayerRegistry(board.prAddress());\n        return pr.isRegistered(gameID, playerAddress);\n    }\n\n    function getPlayerID(\n        address gameBoardAddress,\n        uint256 gameID,\n        address playerAddress\n    ) public view returns (uint256 playerID) {\n        HexplorationBoard board = HexplorationBoard(gameBoardAddress);\n        PlayerRegistry pr = PlayerRegistry(board.prAddress());\n        playerID = pr.playerID(gameID, playerAddress);\n    }\n\n    function getAvailableGameIDs() public view returns (uint256[] memory) {\n        // TODO: return available game IDs\n    }\n\n    function currentPhase(address gameBoardAddress, uint256 gameID)\n        public\n        view\n        returns (string memory phase)\n    {\n        HexplorationBoard board = HexplorationBoard(gameBoardAddress);\n        TokenInventory tokens = TokenInventory(board.tokenInventory());\n\n        uint256 dayBalance = tokens.DAY_NIGHT_TOKEN().balance(\"Day\", gameID, 1);\n        phase = dayBalance > 0 ? \"Day\" : \"Night\";\n    }\n\n    function activeZones(address gameBoardAddress, uint256 gameID)\n        public\n        view\n        returns (string[] memory zones, uint16[] memory tiles)\n    {\n        HexplorationBoard board = HexplorationBoard(gameBoardAddress);\n        string[] memory allZones = board.getZoneAliases();\n\n        uint16 activeZoneCount = 0;\n        for (uint256 i = 0; i < allZones.length; i++) {\n            if (board.zoneEnabled(gameID, allZones[i])) {\n                activeZoneCount++;\n            }\n        }\n        zones = new string[](activeZoneCount);\n        tiles = new uint16[](activeZoneCount);\n\n        activeZoneCount = 0;\n        for (uint256 i = 0; i < allZones.length; i++) {\n            if (board.zoneEnabled(gameID, allZones[i])) {\n                zones[activeZoneCount] = allZones[i];\n                HexplorationZone hexZone = HexplorationZone(\n                    board.hexZoneAddress()\n                );\n                tiles[activeZoneCount] = uint16(\n                    hexZone.tile(gameID, allZones[i])\n                );\n                activeZoneCount++;\n            }\n        }\n    }\n\n    function landingSite(address gameBoardAddress, uint256 gameID)\n        public\n        view\n        returns (string memory)\n    {\n        return HexplorationBoard(gameBoardAddress).initialPlayZone(gameID);\n    }\n\n    function currentLocation(address gameBoardAddress, uint256 gameID)\n        public\n        view\n        returns (string memory)\n    {\n        HexplorationBoard board = HexplorationBoard(gameBoardAddress);\n        PlayerRegistry pr = PlayerRegistry(board.prAddress());\n        return board.currentPlayZone(gameID, pr.playerID(gameID, msg.sender));\n    }\n\n    function allPlayerLocations(address gameBoardAddress, uint256 gameID)\n        public\n        view\n        returns (uint256[] memory, string[] memory)\n    {\n        HexplorationBoard board = HexplorationBoard(gameBoardAddress);\n        PlayerRegistry pr = PlayerRegistry(board.prAddress());\n        uint256 totalRegistrations = pr.totalRegistrations(gameID);\n        uint256[] memory playerIDs = new uint256[](totalRegistrations);\n        string[] memory playerZones = new string[](totalRegistrations);\n        for (uint256 i = 0; i < totalRegistrations; i++) {\n            playerIDs[i] = i + 1;\n            playerZones[i] = board.currentPlayZone(gameID, i + 1);\n        }\n        return (playerIDs, playerZones);\n    }\n\n    function inventoryItemExists(\n        string memory tokenType,\n        address inventoryAddress,\n        uint256 gameID,\n        uint256 holderID\n    ) internal view returns (bool) {\n        return\n            TokenInventory(inventoryAddress).ITEM_TOKEN().balance(\n                tokenType,\n                gameID,\n                holderID\n            ) > 0;\n    }\n\n    function inventoryArtifactExists(\n        string memory tokenType,\n        address inventoryAddress,\n        uint256 gameID,\n        uint256 holderID\n    ) internal view returns (bool) {\n        return\n            TokenInventory(inventoryAddress).ARTIFACT_TOKEN().balance(\n                tokenType,\n                gameID,\n                holderID\n            ) > 0;\n    }\n\n    function inventoryStatusExists(\n        string memory tokenType,\n        address inventoryAddress,\n        uint256 gameID,\n        uint256 holderID\n    ) internal view returns (bool) {\n        return\n            TokenInventory(inventoryAddress).PLAYER_STATUS_TOKEN().balance(\n                tokenType,\n                gameID,\n                holderID\n            ) > 0;\n    }\n\n    function currentPlayerStats(address gameBoardAddress, uint256 gameID)\n        public\n        view\n        returns (\n            uint8 movement,\n            uint8 agility,\n            uint8 dexterity\n        )\n    {\n        HexplorationBoard board = HexplorationBoard(gameBoardAddress);\n        CharacterCard cc = CharacterCard(board.characterCard());\n        movement = cc.movement(gameID, msg.sender);\n        agility = cc.agility(gameID, msg.sender);\n        dexterity = cc.dexterity(gameID, msg.sender);\n    }\n\n    function currentHandInventory(address gameBoardAddress, uint256 gameID)\n        public\n        view\n        returns (string memory leftHandItem, string memory rightHandItem)\n    {\n        HexplorationBoard board = HexplorationBoard(gameBoardAddress);\n        CharacterCard cc = CharacterCard(board.characterCard());\n        leftHandItem = inventoryItemExists(\n            cc.leftHandItem(gameID, msg.sender),\n            board.tokenInventory(),\n            gameID,\n            PlayerRegistry(board.prAddress()).playerID(gameID, msg.sender)\n        )\n            ? cc.leftHandItem(gameID, msg.sender)\n            : \"\";\n\n        rightHandItem = inventoryItemExists(\n            cc.rightHandItem(gameID, msg.sender),\n            board.tokenInventory(),\n            gameID,\n            PlayerRegistry(board.prAddress()).playerID(gameID, msg.sender)\n        )\n            ? cc.rightHandItem(gameID, msg.sender)\n            : \"\";\n    }\n\n    function activeInventory(address gameBoardAddress, uint256 gameID)\n        public\n        view\n        returns (\n            string memory artifact,\n            string memory status,\n            string memory relic,\n            bool shield,\n            bool campsite\n        )\n    {\n        HexplorationBoard board = HexplorationBoard(gameBoardAddress);\n        CharacterCard cc = CharacterCard(board.characterCard());\n        artifact = inventoryArtifactExists(\n            cc.artifact(gameID, msg.sender),\n            board.tokenInventory(),\n            gameID,\n            PlayerRegistry(board.prAddress()).playerID(gameID, msg.sender)\n        )\n            ? cc.artifact(gameID, msg.sender)\n            : \"\";\n\n        status = inventoryStatusExists(\n            cc.status(gameID, msg.sender),\n            board.tokenInventory(),\n            gameID,\n            PlayerRegistry(board.prAddress()).playerID(gameID, msg.sender)\n        )\n            ? cc.status(gameID, msg.sender)\n            : \"\";\n\n        relic = inventoryItemExists(\n            cc.relic(gameID, msg.sender),\n            board.tokenInventory(),\n            gameID,\n            PlayerRegistry(board.prAddress()).playerID(gameID, msg.sender)\n        )\n            ? cc.relic(gameID, msg.sender)\n            : \"\";\n\n        shield = inventoryItemExists(\n            \"Shield\",\n            board.tokenInventory(),\n            gameID,\n            PlayerRegistry(board.prAddress()).playerID(gameID, msg.sender)\n        )\n            ? true\n            : false;\n\n        campsite = inventoryItemExists(\n            \"Campsite\",\n            board.tokenInventory(),\n            gameID,\n            PlayerRegistry(board.prAddress()).playerID(gameID, msg.sender)\n        )\n            ? true\n            : false;\n    }\n\n    function inactiveInventory(address gameBoardAddress, uint256 gameID)\n        public\n        view\n        returns (string[] memory itemTypes, uint256[] memory itemBalances)\n    {\n        HexplorationBoard board = HexplorationBoard(gameBoardAddress);\n        PlayerRegistry pr = PlayerRegistry(board.prAddress());\n        TokenInventory ti = TokenInventory(board.tokenInventory());\n        /*\n        DayNight,\n        Disaster,\n        Enemy,\n        Item,\n        PlayerStatus,\n        Artifact,\n        Relic\n        */\n\n        itemBalances = new uint256[](35);\n        itemTypes = new string[](35);\n        itemTypes[0] = \"Small Ammo\";\n        itemTypes[1] = \"Large Ammo\";\n        itemTypes[2] = \"Batteries\";\n        itemTypes[3] = \"Shield\";\n        itemTypes[4] = \"Portal\";\n        itemTypes[5] = \"On\";\n        itemTypes[6] = \"Off\";\n        itemTypes[7] = \"Rusty Dagger\";\n        itemTypes[8] = \"Rusty Sword\";\n        itemTypes[9] = \"Rusty Pistol\";\n        itemTypes[10] = \"Rusty Rifle\";\n        itemTypes[11] = \"Shiny Dagger\";\n        itemTypes[12] = \"Shiny Sword\";\n        itemTypes[13] = \"Shiny Pistol\";\n        itemTypes[14] = \"Shiny Rifle\";\n        itemTypes[15] = \"Laser Dagger\";\n        itemTypes[16] = \"Laser Sword\";\n        itemTypes[17] = \"Laser Pistol\";\n        itemTypes[18] = \"Laser Rifle\";\n        itemTypes[19] = \"Glow stick\";\n        itemTypes[20] = \"Flashlight\";\n        itemTypes[21] = \"Flood light\";\n        itemTypes[22] = \"Nightvision Goggles\";\n        itemTypes[23] = \"Personal Shield\";\n        itemTypes[24] = \"Bubble Shield\";\n        itemTypes[25] = \"Frag Grenade\";\n        itemTypes[26] = \"Fire Grenade\";\n        itemTypes[27] = \"Shock Grenade\";\n        itemTypes[28] = \"HE Mortar\";\n        itemTypes[29] = \"Incendiary Mortar\";\n        itemTypes[30] = \"EMP Mortar\";\n        itemTypes[31] = \"Power Glove\";\n        itemTypes[32] = \"Remote Launch and Guidance System\";\n        itemTypes[33] = \"Teleporter Pack\";\n        itemTypes[34] = \"Campsite\";\n        uint256 playerID = pr.playerID(gameID, msg.sender);\n        if (ti.holdsToken(playerID, TokenInventory.Token.Item, gameID)) {\n            Item itemToken = ti.ITEM_TOKEN();\n            string[] memory types = itemToken.getTokenTypes();\n            for (uint256 i = 0; i < itemBalances.length; i++) {\n                itemTypes[i] = types[i];\n                itemBalances[i] = itemToken.balance(types[i], gameID, playerID);\n            }\n        }\n    }\n}\n",
  "sourcePath": "/Users/maxmeier/Developer/Lucky Machines/hexploration/contracts/state/GameSummary.sol",
  "compiler": {
    "name": "solc",
    "version": "0.8.11+commit.d7f03943.Emscripten.clang"
  },
  "schemaVersion": "3.4.4",
  "updatedAt": "2022-05-17T04:31:29.614Z",
  "networkType": "ethereum",
  "devdoc": {
    "kind": "dev",
    "methods": {},
    "version": 1
  },
  "userdoc": {
    "kind": "user",
    "methods": {},
    "version": 1
  }
}