{
  "contractName": "GameBoard",
  "abi": [
    {
      "inputs": [
        {
          "internalType": "address",
          "name": "adminAddress",
          "type": "address"
        }
      ],
      "stateMutability": "nonpayable",
      "type": "constructor"
    },
    {
      "anonymous": false,
      "inputs": [
        {
          "indexed": true,
          "internalType": "bytes32",
          "name": "role",
          "type": "bytes32"
        },
        {
          "indexed": true,
          "internalType": "bytes32",
          "name": "previousAdminRole",
          "type": "bytes32"
        },
        {
          "indexed": true,
          "internalType": "bytes32",
          "name": "newAdminRole",
          "type": "bytes32"
        }
      ],
      "name": "RoleAdminChanged",
      "type": "event"
    },
    {
      "anonymous": false,
      "inputs": [
        {
          "indexed": true,
          "internalType": "bytes32",
          "name": "role",
          "type": "bytes32"
        },
        {
          "indexed": true,
          "internalType": "address",
          "name": "account",
          "type": "address"
        },
        {
          "indexed": true,
          "internalType": "address",
          "name": "sender",
          "type": "address"
        }
      ],
      "name": "RoleGranted",
      "type": "event"
    },
    {
      "anonymous": false,
      "inputs": [
        {
          "indexed": true,
          "internalType": "bytes32",
          "name": "role",
          "type": "bytes32"
        },
        {
          "indexed": true,
          "internalType": "address",
          "name": "account",
          "type": "address"
        },
        {
          "indexed": true,
          "internalType": "address",
          "name": "sender",
          "type": "address"
        }
      ],
      "name": "RoleRevoked",
      "type": "event"
    },
    {
      "inputs": [],
      "name": "DEFAULT_ADMIN_ROLE",
      "outputs": [
        {
          "internalType": "bytes32",
          "name": "",
          "type": "bytes32"
        }
      ],
      "stateMutability": "view",
      "type": "function"
    },
    {
      "inputs": [],
      "name": "FACTORY_ROLE",
      "outputs": [
        {
          "internalType": "bytes32",
          "name": "",
          "type": "bytes32"
        }
      ],
      "stateMutability": "view",
      "type": "function"
    },
    {
      "inputs": [],
      "name": "GAME_MASTER_ROLE",
      "outputs": [
        {
          "internalType": "bytes32",
          "name": "",
          "type": "bytes32"
        }
      ],
      "stateMutability": "view",
      "type": "function"
    },
    {
      "inputs": [],
      "name": "MAX_BATCH_SIZE",
      "outputs": [
        {
          "internalType": "uint256",
          "name": "",
          "type": "uint256"
        }
      ],
      "stateMutability": "view",
      "type": "function"
    },
    {
      "inputs": [],
      "name": "PLAY_ZONE_ROLE",
      "outputs": [
        {
          "internalType": "bytes32",
          "name": "",
          "type": "bytes32"
        }
      ],
      "stateMutability": "view",
      "type": "function"
    },
    {
      "inputs": [],
      "name": "VERIFIED_CONTROLLER_ROLE",
      "outputs": [
        {
          "internalType": "bytes32",
          "name": "",
          "type": "bytes32"
        }
      ],
      "stateMutability": "view",
      "type": "function"
    },
    {
      "inputs": [
        {
          "internalType": "uint256",
          "name": "",
          "type": "uint256"
        },
        {
          "internalType": "uint256",
          "name": "",
          "type": "uint256"
        }
      ],
      "name": "currentPlayZone",
      "outputs": [
        {
          "internalType": "string",
          "name": "",
          "type": "string"
        }
      ],
      "stateMutability": "view",
      "type": "function"
    },
    {
      "inputs": [
        {
          "internalType": "uint256",
          "name": "",
          "type": "uint256"
        },
        {
          "internalType": "uint256",
          "name": "",
          "type": "uint256"
        }
      ],
      "name": "entryQueue",
      "outputs": [
        {
          "internalType": "uint256",
          "name": "",
          "type": "uint256"
        }
      ],
      "stateMutability": "view",
      "type": "function"
    },
    {
      "inputs": [
        {
          "internalType": "uint256",
          "name": "",
          "type": "uint256"
        }
      ],
      "name": "gameState",
      "outputs": [
        {
          "internalType": "uint256",
          "name": "",
          "type": "uint256"
        }
      ],
      "stateMutability": "view",
      "type": "function"
    },
    {
      "inputs": [
        {
          "internalType": "bytes32",
          "name": "role",
          "type": "bytes32"
        }
      ],
      "name": "getRoleAdmin",
      "outputs": [
        {
          "internalType": "bytes32",
          "name": "",
          "type": "bytes32"
        }
      ],
      "stateMutability": "view",
      "type": "function"
    },
    {
      "inputs": [
        {
          "internalType": "bytes32",
          "name": "role",
          "type": "bytes32"
        },
        {
          "internalType": "uint256",
          "name": "index",
          "type": "uint256"
        }
      ],
      "name": "getRoleMember",
      "outputs": [
        {
          "internalType": "address",
          "name": "",
          "type": "address"
        }
      ],
      "stateMutability": "view",
      "type": "function"
    },
    {
      "inputs": [
        {
          "internalType": "bytes32",
          "name": "role",
          "type": "bytes32"
        }
      ],
      "name": "getRoleMemberCount",
      "outputs": [
        {
          "internalType": "uint256",
          "name": "",
          "type": "uint256"
        }
      ],
      "stateMutability": "view",
      "type": "function"
    },
    {
      "inputs": [
        {
          "internalType": "bytes32",
          "name": "role",
          "type": "bytes32"
        },
        {
          "internalType": "address",
          "name": "account",
          "type": "address"
        }
      ],
      "name": "grantRole",
      "outputs": [],
      "stateMutability": "nonpayable",
      "type": "function"
    },
    {
      "inputs": [
        {
          "internalType": "bytes32",
          "name": "role",
          "type": "bytes32"
        },
        {
          "internalType": "address",
          "name": "account",
          "type": "address"
        }
      ],
      "name": "hasRole",
      "outputs": [
        {
          "internalType": "bool",
          "name": "",
          "type": "bool"
        }
      ],
      "stateMutability": "view",
      "type": "function"
    },
    {
      "inputs": [
        {
          "internalType": "uint256",
          "name": "",
          "type": "uint256"
        }
      ],
      "name": "initialPlayZone",
      "outputs": [
        {
          "internalType": "string",
          "name": "",
          "type": "string"
        }
      ],
      "stateMutability": "view",
      "type": "function"
    },
    {
      "inputs": [
        {
          "internalType": "uint256",
          "name": "",
          "type": "uint256"
        }
      ],
      "name": "lastEntryPlayerID",
      "outputs": [
        {
          "internalType": "uint256",
          "name": "",
          "type": "uint256"
        }
      ],
      "stateMutability": "view",
      "type": "function"
    },
    {
      "inputs": [
        {
          "internalType": "uint256",
          "name": "",
          "type": "uint256"
        },
        {
          "internalType": "string",
          "name": "",
          "type": "string"
        },
        {
          "internalType": "uint256",
          "name": "",
          "type": "uint256"
        }
      ],
      "name": "playZoneInputs",
      "outputs": [
        {
          "internalType": "string",
          "name": "",
          "type": "string"
        }
      ],
      "stateMutability": "view",
      "type": "function"
    },
    {
      "inputs": [
        {
          "internalType": "uint256",
          "name": "",
          "type": "uint256"
        },
        {
          "internalType": "string",
          "name": "",
          "type": "string"
        },
        {
          "internalType": "uint256",
          "name": "",
          "type": "uint256"
        }
      ],
      "name": "playZoneOutputs",
      "outputs": [
        {
          "internalType": "string",
          "name": "",
          "type": "string"
        }
      ],
      "stateMutability": "view",
      "type": "function"
    },
    {
      "inputs": [
        {
          "internalType": "uint256",
          "name": "",
          "type": "uint256"
        },
        {
          "internalType": "uint256",
          "name": "",
          "type": "uint256"
        }
      ],
      "name": "playZones",
      "outputs": [
        {
          "internalType": "string",
          "name": "",
          "type": "string"
        }
      ],
      "stateMutability": "view",
      "type": "function"
    },
    {
      "inputs": [
        {
          "internalType": "uint256",
          "name": "",
          "type": "uint256"
        }
      ],
      "name": "playerRegistry",
      "outputs": [
        {
          "internalType": "uint256",
          "name": "",
          "type": "uint256"
        }
      ],
      "stateMutability": "view",
      "type": "function"
    },
    {
      "inputs": [
        {
          "internalType": "bytes32",
          "name": "role",
          "type": "bytes32"
        },
        {
          "internalType": "address",
          "name": "account",
          "type": "address"
        }
      ],
      "name": "renounceRole",
      "outputs": [],
      "stateMutability": "nonpayable",
      "type": "function"
    },
    {
      "inputs": [
        {
          "internalType": "bytes32",
          "name": "role",
          "type": "bytes32"
        },
        {
          "internalType": "address",
          "name": "account",
          "type": "address"
        }
      ],
      "name": "revokeRole",
      "outputs": [],
      "stateMutability": "nonpayable",
      "type": "function"
    },
    {
      "inputs": [
        {
          "internalType": "bytes4",
          "name": "interfaceId",
          "type": "bytes4"
        }
      ],
      "name": "supportsInterface",
      "outputs": [
        {
          "internalType": "bool",
          "name": "",
          "type": "bool"
        }
      ],
      "stateMutability": "view",
      "type": "function"
    },
    {
      "inputs": [
        {
          "internalType": "uint256",
          "name": "",
          "type": "uint256"
        },
        {
          "internalType": "string",
          "name": "",
          "type": "string"
        }
      ],
      "name": "zoneAlias",
      "outputs": [
        {
          "internalType": "address",
          "name": "",
          "type": "address"
        }
      ],
      "stateMutability": "view",
      "type": "function"
    },
    {
      "inputs": [],
      "name": "prAddress",
      "outputs": [
        {
          "internalType": "address",
          "name": "",
          "type": "address"
        }
      ],
      "stateMutability": "view",
      "type": "function"
    },
    {
      "inputs": [
        {
          "internalType": "address",
          "name": "_playerRegistry",
          "type": "address"
        },
        {
          "internalType": "address",
          "name": "_gameRegistry",
          "type": "address"
        }
      ],
      "name": "createGame",
      "outputs": [
        {
          "internalType": "uint256",
          "name": "gameID",
          "type": "uint256"
        }
      ],
      "stateMutability": "nonpayable",
      "type": "function"
    },
    {
      "inputs": [
        {
          "internalType": "address",
          "name": "_playerRegistry",
          "type": "address"
        },
        {
          "internalType": "address",
          "name": "_gameRegistry",
          "type": "address"
        },
        {
          "internalType": "address[]",
          "name": "playZoneAddresses",
          "type": "address[]"
        },
        {
          "internalType": "string[]",
          "name": "zoneAliases",
          "type": "string[]"
        }
      ],
      "name": "createGame",
      "outputs": [
        {
          "internalType": "uint256",
          "name": "gameID",
          "type": "uint256"
        }
      ],
      "stateMutability": "nonpayable",
      "type": "function"
    },
    {
      "inputs": [
        {
          "internalType": "address",
          "name": "factoryAddress",
          "type": "address"
        }
      ],
      "name": "addFactory",
      "outputs": [],
      "stateMutability": "nonpayable",
      "type": "function"
    },
    {
      "inputs": [
        {
          "internalType": "address",
          "name": "factoryAddress",
          "type": "address"
        }
      ],
      "name": "isFactory",
      "outputs": [
        {
          "internalType": "bool",
          "name": "factoryIsAuthorized",
          "type": "bool"
        }
      ],
      "stateMutability": "view",
      "type": "function"
    },
    {
      "inputs": [
        {
          "internalType": "address[]",
          "name": "playZoneAddresses",
          "type": "address[]"
        },
        {
          "internalType": "string[]",
          "name": "zoneAliases",
          "type": "string[]"
        },
        {
          "internalType": "uint256",
          "name": "gameID",
          "type": "uint256"
        }
      ],
      "name": "addZones",
      "outputs": [],
      "stateMutability": "nonpayable",
      "type": "function"
    },
    {
      "inputs": [
        {
          "internalType": "address",
          "name": "keeperAddress",
          "type": "address"
        }
      ],
      "name": "addKeeper",
      "outputs": [],
      "stateMutability": "nonpayable",
      "type": "function"
    },
    {
      "inputs": [
        {
          "internalType": "address",
          "name": "vcAddress",
          "type": "address"
        }
      ],
      "name": "addVerifiedController",
      "outputs": [],
      "stateMutability": "nonpayable",
      "type": "function"
    },
    {
      "inputs": [
        {
          "internalType": "string",
          "name": "initialZone",
          "type": "string"
        },
        {
          "internalType": "uint256",
          "name": "gameID",
          "type": "uint256"
        }
      ],
      "name": "setInitialPlayZone",
      "outputs": [],
      "stateMutability": "nonpayable",
      "type": "function"
    },
    {
      "inputs": [
        {
          "internalType": "uint256",
          "name": "gameID",
          "type": "uint256"
        }
      ],
      "name": "startGame",
      "outputs": [],
      "stateMutability": "nonpayable",
      "type": "function"
    },
    {
      "inputs": [],
      "name": "needsUpdate",
      "outputs": [
        {
          "internalType": "bool",
          "name": "doesNeedUpdate",
          "type": "bool"
        }
      ],
      "stateMutability": "view",
      "type": "function"
    },
    {
      "inputs": [],
      "name": "runUpdate",
      "outputs": [],
      "stateMutability": "nonpayable",
      "type": "function"
    },
    {
      "inputs": [],
      "name": "cleanQueue",
      "outputs": [],
      "stateMutability": "nonpayable",
      "type": "function"
    },
    {
      "inputs": [
        {
          "internalType": "uint256",
          "name": "gameID",
          "type": "uint256"
        }
      ],
      "name": "getOverflowQueue",
      "outputs": [
        {
          "internalType": "uint256[]",
          "name": "",
          "type": "uint256[]"
        }
      ],
      "stateMutability": "view",
      "type": "function"
    },
    {
      "inputs": [
        {
          "internalType": "uint256",
          "name": "gameID",
          "type": "uint256"
        }
      ],
      "name": "getPlayZones",
      "outputs": [
        {
          "internalType": "string[]",
          "name": "",
          "type": "string[]"
        }
      ],
      "stateMutability": "view",
      "type": "function"
    },
    {
      "inputs": [
        {
          "internalType": "uint256",
          "name": "gameID",
          "type": "uint256"
        },
        {
          "internalType": "string",
          "name": "_zoneAlias",
          "type": "string"
        }
      ],
      "name": "getInputs",
      "outputs": [
        {
          "internalType": "string[]",
          "name": "zoneInputs",
          "type": "string[]"
        }
      ],
      "stateMutability": "view",
      "type": "function"
    },
    {
      "inputs": [
        {
          "internalType": "uint256",
          "name": "gameID",
          "type": "uint256"
        },
        {
          "internalType": "string",
          "name": "_zoneAlias",
          "type": "string"
        }
      ],
      "name": "getOutputs",
      "outputs": [
        {
          "internalType": "string[]",
          "name": "zoneOutputs",
          "type": "string[]"
        }
      ],
      "stateMutability": "view",
      "type": "function"
    },
    {
      "inputs": [
        {
          "internalType": "uint256",
          "name": "gameID",
          "type": "uint256"
        },
        {
          "internalType": "string[2][]",
          "name": "connections",
          "type": "string[2][]"
        }
      ],
      "name": "addZoneConnections",
      "outputs": [],
      "stateMutability": "nonpayable",
      "type": "function"
    },
    {
      "inputs": [
        {
          "internalType": "uint256",
          "name": "gameID",
          "type": "uint256"
        },
        {
          "internalType": "string[]",
          "name": "inputAliases",
          "type": "string[]"
        },
        {
          "internalType": "uint256[]",
          "name": "inputs",
          "type": "uint256[]"
        },
        {
          "internalType": "string[]",
          "name": "outputAliases",
          "type": "string[]"
        },
        {
          "internalType": "uint256[]",
          "name": "outputs",
          "type": "uint256[]"
        }
      ],
      "name": "removeZoneConnections",
      "outputs": [],
      "stateMutability": "nonpayable",
      "type": "function"
    },
    {
      "inputs": [
        {
          "internalType": "uint256",
          "name": "gameID",
          "type": "uint256"
        },
        {
          "internalType": "address",
          "name": "playerAddress",
          "type": "address"
        },
        {
          "internalType": "uint256",
          "name": "pathIndex",
          "type": "uint256"
        }
      ],
      "name": "exitToPath",
      "outputs": [
        {
          "internalType": "bool",
          "name": "exitSuccess",
          "type": "bool"
        }
      ],
      "stateMutability": "nonpayable",
      "type": "function"
    },
    {
      "inputs": [
        {
          "internalType": "uint256",
          "name": "gameID",
          "type": "uint256"
        },
        {
          "internalType": "address",
          "name": "playerAddress",
          "type": "address"
        },
        {
          "internalType": "string",
          "name": "_zoneAlias",
          "type": "string"
        }
      ],
      "name": "playerEnteredZone",
      "outputs": [],
      "stateMutability": "nonpayable",
      "type": "function"
    },
    {
      "inputs": [
        {
          "internalType": "uint256",
          "name": "gameID",
          "type": "uint256"
        },
        {
          "internalType": "address[]",
          "name": "playerAddresses",
          "type": "address[]"
        },
        {
          "internalType": "uint256[]",
          "name": "pathIndices",
          "type": "uint256[]"
        },
        {
          "internalType": "uint256",
          "name": "transitID",
          "type": "uint256"
        }
      ],
      "name": "queueExitToPaths",
      "outputs": [],
      "stateMutability": "nonpayable",
      "type": "function"
    },
    {
      "inputs": [
        {
          "internalType": "uint256",
          "name": "transitID",
          "type": "uint256"
        }
      ],
      "name": "startTransit",
      "outputs": [],
      "stateMutability": "nonpayable",
      "type": "function"
    },
    {
      "inputs": [
        {
          "internalType": "uint256",
          "name": "transitID",
          "type": "uint256"
        }
      ],
      "name": "_progressTransit",
      "outputs": [],
      "stateMutability": "nonpayable",
      "type": "function"
    }
  ],
  "bytecode": "0x60806040523480156200001157600080fd5b506040516200387438038062003874833981016040819052620000349162000248565b6200004a60008264010000000062000086810204565b6200007f7f1d93c87416ca7b54f0fb8323167b72760e8e2ec93d48660953897a150f97a8b48264010000000062000086810204565b506200027a565b6200009b82826401000000006200009f810204565b5050565b620000b9828264010000000062001b33620000e682021704565b6000828152600160205260409020620000e1908264010000000062001bb76200018282021704565b505050565b620000fb8282640100000000620001ab810204565b6200009b57600082815260208181526040808320600160a060020a03851684529091529020805460ff191660011790556200013e640100000000620001d4810204565b600160a060020a031681600160a060020a0316837f2f8788117e7eff1d82e926ec794901d17c78024a50270940304540a733656f0d60405160405180910390a45050565b6000620001a283600160a060020a038416640100000000620001d8810204565b90505b92915050565b600091825260208281526040808420600160a060020a0393909316845291905290205460ff1690565b3390565b6000620001ef838364010000000062000230810204565b6200022757508154600181810184556000848152602080822090930184905584548482528286019093526040902091909155620001a5565b506000620001a5565b60009081526001919091016020526040902054151590565b6000602082840312156200025b57600080fd5b8151600160a060020a03811681146200027357600080fd5b9392505050565b6135ea806200028a6000396000f3fe608060405234801561001057600080fd5b50600436106102a45760003560e060020a900480639f82bcc01161016b578063cfdbf254116100d2578063d75e79801161008b578063d75e79801461065b578063d91413ba1461066e578063e5ed1d5914610681578063eb33983d14610694578063f643b8fd146106a7578063fa9f3438146106ba57600080fd5b8063cfdbf254146105e5578063d1e18d26146105ed578063d2d6756b146105f5578063d3fb728914610615578063d4f5b15214610635578063d547741f1461064857600080fd5b8063b2df0ca211610124578063b2df0ca214610397578063b40c89df14610586578063babdeefa14610599578063c06dea4e146105ac578063ca15c873146105bd578063cd1ec7f2146105d057600080fd5b80639f82bcc014610510578063a217fddf14610523578063a4f9c9df1461052b578063a6f979ff1461053e578063aab2aeb814610551578063ad1def1e1461057157600080fd5b80632f2ff15d1161020f5780636b6ec869116101c85780636b6ec8691461049e5780637cc75d1c146104b15780639010d07c146104c457806391d14854146104d75780639eb356cb146104ea5780639f6c4017146104fd57600080fd5b80632f2ff15d1461042a578063346c94091461043d57806336568abe146104455780634032b72b146104585780634e0e1a3e1461046b57806351709a731461048b57600080fd5b8063194f2a3611610261578063194f2a36146103995780631c834a7f146103b9578063248a9ca3146103ce57806329678756146103f157806329ce1ec5146104045780632c47669a1461041757600080fd5b806301ffc9a7146102a957806304a0fb17146102d15780630f04ba67146102f4578063153a75901461030757806317d7e833146103645780631900601814610384575b600080fd5b6102bc6102b7366004612973565b6106cd565b60405190151581526020015b60405180910390f35b6102e660008051602061357583398151915281565b6040519081526020016102c8565b6102bc6103023660046129b2565b610711565b61034c610315366004612ab2565b60086020908152600092835260409092208151808301840180519281529084019290930191909120915254600160a060020a031681565b604051600160a060020a0390911681526020016102c8565b610377610372366004612af9565b61072b565b6040516102c89190612b73565b610397610392366004612c8f565b6107e4565b005b6103ac6103a7366004612ab2565b610930565b6040516102c89190612d46565b6102e660008051602061359583398151915281565b6102e66103dc366004612da7565b60009081526020819052604090206001015490565b6103976103ff366004612e21565b610a39565b6103976104123660046129b2565b610a58565b610397610425366004612e96565b610a7f565b610397610438366004612f03565b610acc565b6102bc610af6565b610397610453366004612f03565b610b47565b6103976104663660046129b2565b610bd2565b6102e6610479366004612da7565b60046020526000908152604090205481565b610377610499366004612f33565b610c02565b6103ac6104ac366004612ab2565b610c56565b6102e66104bf366004612af9565b610d53565b61034c6104d2366004612af9565b610d84565b6102bc6104e5366004612f03565b610da3565b6102bc6104f8366004612f72565b610dcc565b61039761050b366004612da7565b611203565b61039761051e366004612faa565b61121b565b6102e6600081565b610397610539366004612da7565b6112d7565b6102e661054c366004612fef565b6112ef565b6102e661055f366004612da7565b600b6020526000908152604090205481565b6102e660008051602061355583398151915281565b610377610594366004612f33565b6113d4565b6103ac6105a7366004612da7565b61140b565b600254600160a060020a031661034c565b6102e66105cb366004612da7565b6114f7565b6102e660008051602061353583398151915281565b6102e660c881565b61039761150e565b6102e6610603366004612da7565b60056020526000908152604090205481565b610628610623366004612da7565b611614565b6040516102c8919061301d565b6103976106433660046129b2565b611676565b610397610656366004612f03565b611699565b610377610669366004612af9565b6116be565b6102e661067c366004613061565b6116e2565b61039761068f366004612da7565b611806565b6103776106a2366004612da7565b611854565b6103976106b53660046130ea565b61186d565b6103976106c83660046131fb565b611a6e565b6000600160e060020a031982167f5a05180f00000000000000000000000000000000000000000000000000000000148061070b575061070b82611bcc565b92915050565b600061070b60008051602061357583398151915283610da3565b6006602052816000526040600020818154811061074757600080fd5b9060005260206000200160009150915050805461076390613254565b80601f016020809104026020016040519081016040528092919081815260200182805461078f90613254565b80156107dc5780601f106107b1576101008083540402835291602001916107dc565b820191906000526020600020905b8154815290600101906020018083116107bf57829003601f168201915b505050505081565b6000805160206135558339815191526107fc81611c33565b81518451146108555760405160e560020a62461bcd02815260206004820181905260248201527f696e70757473202f206f757470757473206c656e677468206d69736d6174636860448201526064015b60405180910390fd5b610860868686611c40565b6108af5760405160e560020a62461bcd02815260206004820152600e60248201527f696e7075747320696e76616c6964000000000000000000000000000000000000604482015260640161084c565b6108ba868484611ce3565b6109095760405160e560020a62461bcd02815260206004820152600f60248201527f6f75747075747320696e76616c69640000000000000000000000000000000000604482015260640161084c565b60005b8451811015610927578061091f816132ab565b91505061090c565b50505050505050565b6060600960008481526020019081526020016000208260405161095391906132c6565b9081526020016040518091039020805480602002602001604051908101604052809291908181526020016000905b82821015610a2d5783829060005260206000200180546109a090613254565b80601f01602080910402602001604051908101604052809291908181526020018280546109cc90613254565b8015610a195780601f106109ee57610100808354040283529160200191610a19565b820191906000526020600020905b8154815290600101906020018083116109fc57829003601f168201915b505050505081526020019060010190610981565b50505050905092915050565b600080516020613535833981519152610a5181611c33565b5050505050565b6000610a6381611c33565b610a7b60008051602061357583398151915283611d7e565b5050565b600080516020613555833981519152610a9781611c33565b8251845114610abb5760405160e560020a62461bcd02815260040161084c906132e2565b610ac6848484611d88565b50505050565b600082815260208190526040902060010154610ae781611c33565b610af18383611ee7565b505050565b6000805b600354811015610b435760038181548110610b1757610b1761333f565b9060005260206000200154600014610b3157600191505090565b80610b3b816132ab565b915050610afa565b5090565b600160a060020a0381163314610bc85760405160e560020a62461bcd02815260206004820152602f60248201527f416363657373436f6e74726f6c3a2063616e206f6e6c792072656e6f756e636560448201527f20726f6c657320666f722073656c660000000000000000000000000000000000606482015260840161084c565b610a7b8282611f09565b600080516020613555833981519152610bea81611c33565b610a7b60008051602061359583398151915283611d7e565b60096020908152600084815260409020835180850183018051928152908301928501929092209152805482908110610c3957600080fd5b906000526020600020016000925092505050805461076390613254565b6060600a600084815260200190815260200160002082604051610c7991906132c6565b9081526020016040518091039020805480602002602001604051908101604052809291908181526020016000905b82821015610a2d578382906000526020600020018054610cc690613254565b80601f0160208091040260200160405190810160405280929190818152602001828054610cf290613254565b8015610d3f5780601f10610d1457610100808354040283529160200191610d3f565b820191906000526020600020905b815481529060010190602001808311610d2257829003601f168201915b505050505081526020019060010190610ca7565b600d6020528160005260406000208181548110610d6f57600080fd5b90600052602060002001600091509150505481565b6000828152600160205260408120610d9c9083611f2b565b9392505050565b600091825260208281526040808420600160a060020a0393909316845291905290205460ff1690565b60025460405160e560020a6305e53e5502815260048101859052600160a060020a038481166024830152600092839291169063bca7caa090604401602060405180830381865afa158015610e24573d6000803e3d6000fd5b505050506040513d601f19601f82011682018060405250810190610e489190613358565b6000868152600c60209081526040808320848452909152812080549293509091610e7190613254565b80601f0160208091040260200160405190810160405280929190818152602001828054610e9d90613254565b8015610eea5780601f10610ebf57610100808354040283529160200191610eea565b820191906000526020600020905b815481529060010190602001808311610ecd57829003601f168201915b505050505090506000610efd8783610c56565b805190915080610f525760405160e560020a62461bcd02815260206004820152601760248201527f4e6f206578697420706174687320617661696c61626c65000000000000000000604482015260640161084c565b60008881526008602052604080822090519196508691610f739086906132c6565b90815260405190819003602001902054600160a060020a031690506000828811610f9d5787610fa0565b60005b90506000848281518110610fb657610fb661333f565b602002602001015190506000600860008d815260200190815260200160002082604051610fe391906132c6565b908152602001604051809103902060009054906101000a9004600160a060020a0316905083600160a060020a0316637caf12808c8e8a6040518463ffffffff1660e060020a02815260040161103a93929190613371565b602060405180830381865afa158015611057573d6000803e3d6000fd5b505050506040513d601f19601f8201168201806040525081019061107b9190613399565b80156110f6575080600160a060020a031663e15b3ad08c8e856040518463ffffffff1660e060020a0281526004016110b593929190613371565b602060405180830381865afa1580156110d2573d6000803e3d6000fd5b505050506040513d601f19601f820116820180604052508101906110f69190613399565b156111f45783600160a060020a03166328d7e11a8c8e8a6040518463ffffffff1660e060020a02815260040161112e93929190613371565b600060405180830381600087803b15801561114857600080fd5b505af115801561115c573d6000803e3d6000fd5b5050505080600160a060020a03166398bd75728c8e856040518463ffffffff1660e060020a02815260040161119393929190613371565b600060405180830381600087803b1580156111ad57600080fd5b505af11580156111c1573d6000803e3d6000fd5b50505060008d8152600c602090815260408083208c8452825290912084516111ee935090918501906128e3565b50600198505b50505050505050509392505050565b600080516020613595833981519152610a7b81611c33565b60008051602061359583398151915261123381611c33565b600082815260046020526040902054156112b85760405160e560020a62461bcd02815260206004820152602c60248201527f63616e27742073657420696e697469616c207a6f6e652c2067616d6520616c7260448201527f6561647920737461727465640000000000000000000000000000000000000000606482015260840161084c565b60008281526007602090815260409091208451610ac6928601906128e3565b600080516020613535833981519152610a7b81611c33565b600061130960008051602061357583398151915233610da3565b80611327575061132760008051602061355583398151915233610da3565b6113465760405160e560020a62461bcd02815260040161084c906133bb565b82600260006101000a815481600160a060020a030219169083600160a060020a0316021790555081600160a060020a0316630a75806e6040518163ffffffff1660e060020a0281526004016020604051808303816000875af11580156113b0573d6000803e3d6000fd5b505050506040513d601f19601f82011682018060405250810190610d9c9190613358565b600a6020908152600084815260409020835180850183018051928152908301928501929092209152805482908110610c3957600080fd5b606060066000838152602001908152602001600020805480602002602001604051908101604052809291908181526020016000905b828210156114ec57838290600052602060002001805461145f90613254565b80601f016020809104026020016040519081016040528092919081815260200182805461148b90613254565b80156114d85780601f106114ad576101008083540402835291602001916114d8565b820191906000526020600020905b8154815290600101906020018083116114bb57829003601f168201915b505050505081526020019060010190611440565b505050509050919050565b600081815260016020526040812061070b90611f37565b60008051602061359583398151915261152681611c33565b60008060005b60035481101561159557600381815481106115495761154961333f565b9060005260206000200154600014611583576003818154811061156e5761156e61333f565b90600052602060002001549250809150611595565b8061158d816132ab565b91505061152c565b506000828152600460205260409020546115b7576115b282611f41565b6115d7565b600082815260046020526040902054600114156115d7576115d782611fcc565b60008281526004602052604090205460011015610af1576000600382815481106116035761160361333f565b600091825260209091200155505050565b6000818152600d602090815260409182902080548351818402810184019094528084526060939283018282801561166a57602002820191906000526020600020905b815481526020019060010190808311611656575b50505050509050919050565b600061168181611c33565b610a7b60008051602061359583398151915283610acc565b6000828152602081905260409020600101546116b481611c33565b610af18383611f09565b600c6020908152600092835260408084209091529082529020805461076390613254565b60006116fc60008051602061357583398151915233610da3565b8061171a575061171a60008051602061355583398151915233610da3565b6117395760405160e560020a62461bcd02815260040161084c906133bb565b815183511461175d5760405160e560020a62461bcd02815260040161084c906132e2565b82511561176f5761176f838383611d88565b84600260006101000a815481600160a060020a030219169083600160a060020a0316021790555083600160a060020a0316630a75806e6040518163ffffffff1660e060020a0281526004016020604051808303816000875af11580156117d9573d6000803e3d6000fd5b505050506040513d601f19601f820116820180604052508101906117fd9190613358565b95945050505050565b60008051602061355583398151915261181e81611c33565b50600380546001810182556000919091527fc2575a0e9e593c00f959f8c92f12db2869c3395a3b0502d05e2516446f71f85b0155565b6007602052600090815260409020805461076390613254565b60008051602061355583398151915261188581611c33565b61188f8383612385565b6118de5760405160e560020a62461bcd02815260206004820152601a60248201527f6e6f7420616c6c207a6f6e6520696e64656365732076616c6964000000000000604482015260640161084c565b60005b8251811015610ac6576000848152600a60205260409020835184908390811061190c5761190c61333f565b60200260200101516000600281106119265761192661333f565b602002015160405161193891906132c6565b90815260200160405180910390208382815181106119585761195861333f565b60200260200101516001600281106119725761197261333f565b60209081029190910151825460018101845560009384529282902081516119a294919091019291909101906128e3565b50600084815260096020526040902083518490839081106119c5576119c561333f565b60200260200101516001600281106119df576119df61333f565b60200201516040516119f191906132c6565b9081526020016040518091039020838281518110611a1157611a1161333f565b6020026020010151600060028110611a2b57611a2b61333f565b6020908102919091015182546001810184556000938452928290208151611a5b94919091019291909101906128e3565b5080611a66816132ab565b9150506118e1565b600080516020613535833981519152611a8681611c33565b60025460405160e560020a6305e53e5502815260048101869052600160a060020a038581166024830152600092169063bca7caa090604401602060405180830381865afa158015611adb573d6000803e3d6000fd5b505050506040513d601f19601f82011682018060405250810190611aff9190613358565b6000868152600c6020908152604080832084845282529091208551929350611b2b9290918601906128e3565b505050505050565b611b3d8282610da3565b610a7b57600082815260208181526040808320600160a060020a03851684529091529020805460ff19166001179055611b733390565b600160a060020a031681600160a060020a0316837f2f8788117e7eff1d82e926ec794901d17c78024a50270940304540a733656f0d60405160405180910390a45050565b6000610d9c83600160a060020a038416612494565b6000600160e060020a031982167f7965db0b00000000000000000000000000000000000000000000000000000000148061070b57507f01ffc9a700000000000000000000000000000000000000000000000000000000600160e060020a031983161461070b565b611c3d81336124e3565b50565b600160005b8251811015611cdb57828181518110611c6057611c6061333f565b60200260200101516001611c749190613418565b60008681526009602052604090208551869084908110611c9657611c9661333f565b6020026020010151604051611cab91906132c6565b9081526040519081900360200190205410611cc95760009150611cdb565b80611cd3816132ab565b915050611c45565b509392505050565b600160005b8251811015611cdb57828181518110611d0357611d0361333f565b60200260200101516001611d179190613418565b6000868152600a602052604090208551869084908110611d3957611d3961333f565b6020026020010151604051611d4e91906132c6565b9081526040519081900360200190205410611d6c5760009150611cdb565b80611d76816132ab565b915050611ce8565b610a7b8282611ee7565b60005b8351811015610ac65760008281526006602052604090208351849083908110611db657611db661333f565b60209081029190910181015182546001810184556000938452928290208151611de894919091019291909101906128e3565b50838181518110611dfb57611dfb61333f565b602002602001015160086000848152602001908152602001600020848381518110611e2857611e2861333f565b6020026020010151604051611e3d91906132c6565b908152602001604051809103902060006101000a815481600160a060020a030219169083600160a060020a03160217905550611ea0600080516020613535833981519152858381518110611e9357611e9361333f565b6020026020010151610da3565b611ed557611ed5600080516020613535833981519152858381518110611ec857611ec861333f565b6020026020010151611d7e565b80611edf816132ab565b915050611d8b565b611ef18282611b33565b6000828152600160205260409020610af19082611bb7565b611f13828261254a565b6000828152600160205260409020610af190826125af565b6000610d9c83836125c4565b600061070b825490565b6002546040517f60c2050000000000000000000000000000000000000000000000000000000000815260048101839052600160a060020a03909116906360c2050090602401600060405180830381600087803b158015611fa057600080fd5b505af1158015611fb4573d6000803e3d6000fd5b50505060009182525060046020526040902060019055565b60008181526007602052604081208054611fe590613254565b1515905061201b576000828152600660205260408120805490919061200c5761200c61333f565b9060005260206000200161202a565b60008281526007602052604090205b805461203590613254565b80601f016020809104026020016040519081016040528092919081815260200182805461206190613254565b80156120ae5780601f10612083576101008083540402835291602001916120ae565b820191906000526020600020905b81548152906001019060200180831161209157829003601f168201915b50505050509050600060086000848152602001908152602001600020826040516120d891906132c6565b90815260405190819003602001902054600160a060020a031690508060005b6002546040517fb77ff41100000000000000000000000000000000000000000000000000000000815260048101879052600160a060020a039091169063b77ff41190602401602060405180830381865afa158015612159573d6000803e3d6000fd5b505050506040513d601f19601f8201168201806040525081019061217d9190613358565b81101561236d576000612191826001613418565b6002546040517ff50432540000000000000000000000000000000000000000000000000000000081526004810189905260248101839052919250600091600160a060020a039091169063f504325490604401602060405180830381865afa158015612200573d6000803e3d6000fd5b505050506040513d601f19601f820116820180604052508101906122249190613430565b6040517fe15b3ad0000000000000000000000000000000000000000000000000000000008152909150600160a060020a0385169063e15b3ad0906122709084908b908b90600401613371565b602060405180830381865afa15801561228d573d6000803e3d6000fd5b505050506040513d601f19601f820116820180604052508101906122b19190613399565b15612336576040517f98bd7572000000000000000000000000000000000000000000000000000000008152600160a060020a038516906398bd7572906122ff9084908b908b90600401613371565b600060405180830381600087803b15801561231957600080fd5b505af115801561232d573d6000803e3d6000fd5b50505050612358565b6000878152600d60209081526040822080546001810182559083529120018290555b50508080612365906132ab565b9150506120f7565b50505060009182525060046020526040902060029055565b6000805b825181101561248d5760008481526008602052604081208451600194508590849081106123b8576123b861333f565b60200260200101516000600281106123d2576123d261333f565b60200201516040516123e491906132c6565b90815260405190819003602001902054600160a060020a0316148061246d5750600084815260086020526040812084518590849081106124265761242661333f565b60200260200101516001600281106124405761244061333f565b602002015160405161245291906132c6565b90815260405190819003602001902054600160a060020a0316145b1561247b576000915061248d565b80612485816132ab565b915050612389565b5092915050565b60008181526001830160205260408120546124db5750815460018181018455600084815260208082209093018490558454848252828601909352604090209190915561070b565b50600061070b565b6124ed8282610da3565b610a7b5761250581600160a060020a031660146125ee565b6125108360206125ee565b60405160200161252192919061344d565b60408051601f198184030181529082905260e560020a62461bcd02825261084c91600401612b73565b6125548282610da3565b15610a7b57600082815260208181526040808320600160a060020a0385168085529252808320805460ff1916905551339285917ff6391f5c32d9c69d2a47ea670b442974b53935d1edc7fd64eb21e047a839171b9190a45050565b6000610d9c83600160a060020a0384166127f0565b60008260000182815481106125db576125db61333f565b9060005260206000200154905092915050565b606060006125fd8360026134ce565b612608906002613418565b67ffffffffffffffff811115612620576126206129cf565b6040519080825280601f01601f19166020018201604052801561264a576020820181803683370190505b5090507f3000000000000000000000000000000000000000000000000000000000000000816000815181106126815761268161333f565b6020010190600160f860020a031916908160001a9053507f7800000000000000000000000000000000000000000000000000000000000000816001815181106126cc576126cc61333f565b6020010190600160f860020a031916908160001a90535060006126f08460026134ce565b6126fb906001613418565b90505b600181111561279e577f303132333435363738396162636465660000000000000000000000000000000085600f166010811061273c5761273c61333f565b1a7f0100000000000000000000000000000000000000000000000000000000000000028282815181106127715761277161333f565b6020010190600160f860020a031916908160001a905350601090940493612797816134ed565b90506126fe565b508315610d9c5760405160e560020a62461bcd02815260206004820181905260248201527f537472696e67733a20686578206c656e67746820696e73756666696369656e74604482015260640161084c565b600081815260018301602052604081205480156128d9576000612814600183613504565b855490915060009061282890600190613504565b905081811461288d5760008660000182815481106128485761284861333f565b906000526020600020015490508087600001848154811061286b5761286b61333f565b6000918252602080832090910192909255918252600188019052604090208390555b855486908061289e5761289e61351b565b60019003818190600052602060002001600090559055856001016000868152602001908152602001600020600090556001935050505061070b565b600091505061070b565b8280546128ef90613254565b90600052602060002090601f0160209004810192826129115760008555612957565b82601f1061292a57805160ff1916838001178555612957565b82800160010185558215612957579182015b8281111561295757825182559160200191906001019061293c565b50610b439291505b80821115610b43576000815560010161295f565b60006020828403121561298557600080fd5b8135600160e060020a031981168114610d9c57600080fd5b600160a060020a0381168114611c3d57600080fd5b6000602082840312156129c457600080fd5b8135610d9c8161299d565b60e060020a634e487b7102600052604160045260246000fd5b6040805190810167ffffffffffffffff81118282101715612a0b57612a0b6129cf565b60405290565b604051601f8201601f1916810167ffffffffffffffff81118282101715612a3a57612a3a6129cf565b604052919050565b600082601f830112612a5357600080fd5b813567ffffffffffffffff811115612a6d57612a6d6129cf565b612a80601f8201601f1916602001612a11565b818152846020838601011115612a9557600080fd5b816020850160208301376000918101602001919091529392505050565b60008060408385031215612ac557600080fd5b82359150602083013567ffffffffffffffff811115612ae357600080fd5b612aef85828601612a42565b9150509250929050565b60008060408385031215612b0c57600080fd5b50508035926020909101359150565b60005b83811015612b36578181015183820152602001612b1e565b83811115610ac65750506000910152565b60008151808452612b5f816020860160208601612b1b565b601f01601f19169290920160200192915050565b602081526000610d9c6020830184612b47565b600067ffffffffffffffff821115612ba057612ba06129cf565b5060209081020190565b600082601f830112612bbb57600080fd5b81356020612bd0612bcb83612b86565b612a11565b82815291810284018101918181019086841115612bec57600080fd5b8286015b84811015612c2c57803567ffffffffffffffff811115612c105760008081fd5b612c1e8986838b0101612a42565b845250918301918301612bf0565b509695505050505050565b600082601f830112612c4857600080fd5b81356020612c58612bcb83612b86565b82815291810284018101918181019086841115612c7457600080fd5b8286015b84811015612c2c5780358352918301918301612c78565b600080600080600060a08688031215612ca757600080fd5b85359450602086013567ffffffffffffffff80821115612cc657600080fd5b612cd289838a01612baa565b95506040880135915080821115612ce857600080fd5b612cf489838a01612c37565b94506060880135915080821115612d0a57600080fd5b612d1689838a01612baa565b93506080880135915080821115612d2c57600080fd5b50612d3988828901612c37565b9150509295509295909350565b600060208083018184528085518083526040860191506040848202870101925083870160005b82811015612d9a57603f19888603018452612d88858351612b47565b94509285019290850190600101612d6c565b5092979650505050505050565b600060208284031215612db957600080fd5b5035919050565b600082601f830112612dd157600080fd5b81356020612de1612bcb83612b86565b82815291810284018101918181019086841115612dfd57600080fd5b8286015b84811015612c2c578035612e148161299d565b8352918301918301612e01565b60008060008060808587031215612e3757600080fd5b84359350602085013567ffffffffffffffff80821115612e5657600080fd5b612e6288838901612dc0565b94506040870135915080821115612e7857600080fd5b50612e8587828801612c37565b949793965093946060013593505050565b600080600060608486031215612eab57600080fd5b833567ffffffffffffffff80821115612ec357600080fd5b612ecf87838801612dc0565b94506020860135915080821115612ee557600080fd5b50612ef286828701612baa565b925050604084013590509250925092565b60008060408385031215612f1657600080fd5b823591506020830135612f288161299d565b809150509250929050565b600080600060608486031215612f4857600080fd5b83359250602084013567ffffffffffffffff811115612f6657600080fd5b612ef286828701612a42565b600080600060608486031215612f8757600080fd5b833592506020840135612f998161299d565b929592945050506040919091013590565b60008060408385031215612fbd57600080fd5b823567ffffffffffffffff811115612fd457600080fd5b612fe085828601612a42565b95602094909401359450505050565b6000806040838503121561300257600080fd5b823561300d8161299d565b91506020830135612f288161299d565b6020808252825182820181905260009190848201906040850190845b8181101561305557835183529284019291840191600101613039565b50909695505050505050565b6000806000806080858703121561307757600080fd5b84356130828161299d565b935060208501356130928161299d565b9250604085013567ffffffffffffffff808211156130af57600080fd5b6130bb88838901612dc0565b935060608701359150808211156130d157600080fd5b506130de87828801612baa565b91505092959194509250565b600080604083850312156130fd57600080fd5b8235915060208084013567ffffffffffffffff8082111561311d57600080fd5b818601915086601f83011261313157600080fd5b813561313f612bcb82612b86565b8181529084028301840190848101908983111561315b57600080fd5b8585015b838110156131ea57848135111561317557600080fd5b803586018b603f82011261318857600080fd5b6131906129e8565b808d6060840111156131a157600080fd5b8983015b606084018110156131da5788813511156131be57600080fd5b6131cd8f8c8335870101612a42565b8352918a01918a016131a5565b508552505091860191860161315f565b508096505050505050509250929050565b60008060006060848603121561321057600080fd5b8335925060208401356132228161299d565b9150604084013567ffffffffffffffff81111561323e57600080fd5b61324a86828701612a42565b9150509250925092565b60028104600182168061326857607f821691505b6020821081141561328c5760e060020a634e487b7102600052602260045260246000fd5b50919050565b60e060020a634e487b7102600052601160045260246000fd5b60006000198214156132bf576132bf613292565b5060010190565b600082516132d8818460208701612b1b565b9190910192915050565b60208082526025908201527f616464726573736573202620616c696173657320646966666572656e74206c6560408201527f6e67746873000000000000000000000000000000000000000000000000000000606082015260800190565b60e060020a634e487b7102600052603260045260246000fd5b60006020828403121561336a57600080fd5b5051919050565b600160a060020a03841681528260208201526060604082015260006117fd6060830184612b47565b6000602082840312156133ab57600080fd5b81518015158114610d9c57600080fd5b60208082526024908201527f47616d65204d6173746572206f7220466163746f727920726f6c65207265717560408201527f6972656400000000000000000000000000000000000000000000000000000000606082015260800190565b6000821982111561342b5761342b613292565b500190565b60006020828403121561344257600080fd5b8151610d9c8161299d565b7f416363657373436f6e74726f6c3a206163636f756e7420000000000000000000815260008351613485816017850160208801612b1b565b7f206973206d697373696e6720726f6c652000000000000000000000000000000060179184019182015283516134c2816028840160208801612b1b565b01602801949350505050565b60008160001904831182151516156134e8576134e8613292565b500290565b6000816134fc576134fc613292565b506000190190565b60008282101561351657613516613292565b500390565b60e060020a634e487b7102600052603160045260246000fdfe72b06b67826def9fabb513b23f7e5eb74f7ece26d25dad4006546ecf4a13763d1d93c87416ca7b54f0fb8323167b72760e8e2ec93d48660953897a150f97a8b4dfbefbf47cfe66b701d8cfdbce1de81c821590819cb07e71cb01b6602fb0ee2780e2196015fc06a9d891759f8e4f51eb314ef5e9ea068528a8ed0063b87759f0a26469706673582212207165d146ecfc142940236486d33f262a51d951adbdf46a7397ff59b99fd4bf4464736f6c634300080b0033",
  "immutableReferences": {},
  "source": "// SPDX-License-Identifier: GPL-3.0\n\npragma solidity >=0.7.0 <0.9.0;\n\nimport \"@openzeppelin/contracts/access/AccessControlEnumerable.sol\";\nimport \"@openzeppelin/contracts/utils/Counters.sol\";\nimport \"./PlayerRegistry.sol\";\nimport \"./GameRegistry.sol\";\nimport \"./PlayZone.sol\";\n\ncontract GameBoard is AccessControlEnumerable {\n    using Counters for Counters.Counter;\n    bytes32 public constant VERIFIED_CONTROLLER_ROLE =\n        keccak256(\"VERIFIED_CONTROLLER_ROLE\");\n    bytes32 public constant GAME_MASTER_ROLE = keccak256(\"GAME_MASTER_ROLE\");\n    bytes32 public constant FACTORY_ROLE = keccak256(\"FACTORY_ROLE\");\n    bytes32 public constant PLAY_ZONE_ROLE = keccak256(\"PLAY_ZONE_ROLE\");\n    PlayerRegistry internal PLAYER_REGISTRY;\n\n    uint256 public constant MAX_BATCH_SIZE = 200;\n\n    uint256[] internal _gamesNeedUpdates;\n\n    // Mappings from GameID\n    mapping(uint256 => uint256) public gameState; // 0 = start, 1=continue initializing, 2=initialized\n    mapping(uint256 => uint256) public lastEntryPlayerID;\n    // Play zones + connections\n    // playZones[gameID] = array of play zone addresses\n    // TODO:\n    // make sure these aliases work instead of addresses\n    mapping(uint256 => string[]) public playZones;\n    mapping(uint256 => string) public initialPlayZone;\n    mapping(uint256 => mapping(string => address)) public zoneAlias; // returns address of zone alias\n    // playZoneInputs[gameID][zone alias] = array of inputs for given zone\n    mapping(uint256 => mapping(string => string[])) public playZoneInputs;\n    // playZoneOutputs[gameID][zone alias] = array of outputs for given zone\n    mapping(uint256 => mapping(string => string[])) public playZoneOutputs;\n\n    // Player Registry\n    // playerRegistry[gameID] = player registry ID for game\n    mapping(uint256 => uint256) public playerRegistry;\n\n    // Player positions\n    // currentPlayZone[gameID][playerID] = alias of zone (playZones[gameID]) player is in\n    mapping(uint256 => mapping(uint256 => string)) public currentPlayZone;\n    mapping(uint256 => uint256[]) public entryQueue; //overflow if playzone 0 cannot be entered\n\n    modifier onlyFactoryGM() {\n        require(\n            hasRole(FACTORY_ROLE, _msgSender()) ||\n                hasRole(GAME_MASTER_ROLE, _msgSender()),\n            \"Game Master or Factory role required\"\n        );\n        _;\n    }\n\n    constructor(address adminAddress) {\n        // Admin set as game master\n        // Can revoke role if desired\n        _setupRole(DEFAULT_ADMIN_ROLE, adminAddress);\n        _setupRole(GAME_MASTER_ROLE, adminAddress);\n    }\n\n    function prAddress() public view returns (address) {\n        return address(PLAYER_REGISTRY);\n    }\n\n    function createGame(\n        address _playerRegistry,\n        address _gameRegistry,\n        address[] memory playZoneAddresses,\n        string[] memory zoneAliases\n    ) public onlyFactoryGM returns (uint256 gameID) {\n        require(\n            playZoneAddresses.length == zoneAliases.length,\n            \"addresses & aliases different lengths\"\n        );\n        // first play zone is default / entry point\n        if (playZoneAddresses.length > 0) {\n            _addZones(playZoneAddresses, zoneAliases, gameID);\n        }\n        PLAYER_REGISTRY = PlayerRegistry(_playerRegistry);\n        gameID = GameRegistry(_gameRegistry).registerGame();\n    }\n\n    function createGame(address _playerRegistry, address _gameRegistry)\n        public\n        onlyFactoryGM\n        returns (uint256 gameID)\n    {\n        PLAYER_REGISTRY = PlayerRegistry(_playerRegistry);\n        gameID = GameRegistry(_gameRegistry).registerGame();\n    }\n\n    function addFactory(address factoryAddress)\n        public\n        onlyRole(DEFAULT_ADMIN_ROLE)\n    {\n        _setupRole(FACTORY_ROLE, factoryAddress);\n    }\n\n    function isFactory(address factoryAddress)\n        public\n        view\n        returns (bool factoryIsAuthorized)\n    {\n        factoryIsAuthorized = hasRole(FACTORY_ROLE, factoryAddress);\n    }\n\n    // adds zones to be used in game, only add 1 per address, use aliases for zone variations\n    function addZones(\n        address[] memory playZoneAddresses,\n        string[] memory zoneAliases,\n        uint256 gameID\n    ) public onlyRole(GAME_MASTER_ROLE) {\n        require(\n            playZoneAddresses.length == zoneAliases.length,\n            \"addresses & aliases different lengths\"\n        );\n        _addZones(playZoneAddresses, zoneAliases, gameID);\n    }\n\n    function _addZones(\n        address[] memory playZoneAddresses,\n        string[] memory zoneAliases,\n        uint256 gameID\n    ) internal {\n        for (uint256 i = 0; i < playZoneAddresses.length; i++) {\n            playZones[gameID].push(zoneAliases[i]);\n            zoneAlias[gameID][zoneAliases[i]] = playZoneAddresses[i];\n            if (!hasRole(PLAY_ZONE_ROLE, playZoneAddresses[i])) {\n                _setupRole(PLAY_ZONE_ROLE, playZoneAddresses[i]);\n            }\n        }\n    }\n\n    function addKeeper(address keeperAddress)\n        public\n        onlyRole(GAME_MASTER_ROLE)\n    {\n        _setupRole(VERIFIED_CONTROLLER_ROLE, keeperAddress);\n    }\n\n    function addVerifiedController(address vcAddress)\n        public\n        onlyRole(DEFAULT_ADMIN_ROLE)\n    {\n        grantRole(VERIFIED_CONTROLLER_ROLE, vcAddress);\n    }\n\n    function setInitialPlayZone(string memory initialZone, uint256 gameID)\n        public\n        onlyRole(VERIFIED_CONTROLLER_ROLE)\n    {\n        require(\n            gameState[gameID] == 0,\n            \"can't set initial zone, game already started\"\n        );\n        initialPlayZone[gameID] = initialZone;\n    }\n\n    function startGame(uint256 gameID) public onlyRole(GAME_MASTER_ROLE) {\n        // lock registration\n        //_startGameInit(gameID);\n        // set needs loop\n        _gamesNeedUpdates.push(gameID);\n    }\n\n    function needsUpdate() public view returns (bool doesNeedUpdate) {\n        doesNeedUpdate = false;\n        for (uint256 i = 0; i < _gamesNeedUpdates.length; i++) {\n            if (_gamesNeedUpdates[i] != 0) {\n                doesNeedUpdate = true;\n                break;\n            }\n        }\n    }\n\n    function runUpdate() public onlyRole(VERIFIED_CONTROLLER_ROLE) {\n        uint256 gameToUpdate;\n        uint256 gameIndex;\n        for (uint256 i = 0; i < _gamesNeedUpdates.length; i++) {\n            if (_gamesNeedUpdates[i] != 0) {\n                gameToUpdate = _gamesNeedUpdates[i];\n                gameIndex = i;\n                break;\n            }\n        }\n        // get state of game\n        if (gameState[gameToUpdate] == 0) {\n            _startGameInit(gameToUpdate);\n        } else if (gameState[gameToUpdate] == 1) {\n            _continueGameInit(gameToUpdate);\n        }\n        // state might be updated now\n        if (gameState[gameToUpdate] > 1) {\n            _gamesNeedUpdates[gameIndex] = 0;\n        }\n        // otherwise everything is set and should be okay...\n        // TODO:\n        // check transit groups once those are enabled\n    }\n\n    function cleanQueue() public {\n        // remove 0s from queue\n    }\n\n    // game state // 0 start game, 1 continue init, 2 initialized\n    function _startGameInit(uint256 gameID) internal {\n        PLAYER_REGISTRY.lockRegistration(gameID);\n        gameState[gameID] = 1;\n    }\n\n    function _continueGameInit(uint256 gameID) internal {\n        string memory za = bytes(initialPlayZone[gameID]).length != 0\n            ? initialPlayZone[gameID]\n            : playZones[gameID][0];\n        address zoneAddress = zoneAlias[gameID][za];\n        PlayZone pz = PlayZone(zoneAddress);\n\n        for (\n            uint256 i = 0;\n            i < PLAYER_REGISTRY.totalRegistrations(gameID);\n            i++\n        ) {\n            uint256 playerID = i + 1;\n            address playerAddress = PLAYER_REGISTRY.playerAddress(\n                gameID,\n                playerID\n            );\n            if (pz.playerCanEnter(playerAddress, gameID, za)) {\n                pz.enterPlayer(playerAddress, gameID, za);\n            } else {\n                entryQueue[gameID].push(playerID);\n            }\n        }\n\n        gameState[gameID] = 2;\n    }\n\n    function getOverflowQueue(uint256 gameID)\n        public\n        view\n        virtual\n        returns (uint256[] memory)\n    {\n        return entryQueue[gameID];\n    }\n\n    function getPlayZones(uint256 gameID)\n        public\n        view\n        virtual\n        returns (string[] memory)\n    {\n        return playZones[gameID];\n    }\n\n    function getInputs(uint256 gameID, string memory _zoneAlias)\n        public\n        view\n        virtual\n        returns (string[] memory zoneInputs)\n    {\n        zoneInputs = playZoneInputs[gameID][_zoneAlias];\n    }\n\n    function getOutputs(uint256 gameID, string memory _zoneAlias)\n        public\n        view\n        virtual\n        returns (string[] memory zoneOutputs)\n    {\n        zoneOutputs = playZoneOutputs[gameID][_zoneAlias];\n    }\n\n    function addZoneConnections(uint256 gameID, string[2][] memory connections)\n        public\n        onlyRole(GAME_MASTER_ROLE)\n    {\n        // connections = [from zone alias, to zone alias]\n        require(\n            connectionZonesValid(gameID, connections),\n            \"not all zone indeces valid\"\n        );\n        for (uint256 i = 0; i < connections.length; i++) {\n            playZoneOutputs[gameID][connections[i][0]].push(connections[i][1]);\n            playZoneInputs[gameID][connections[i][1]].push(connections[i][0]);\n        }\n    }\n\n    function removeZoneConnections(\n        uint256 gameID,\n        string[] memory inputAliases,\n        uint256[] memory inputs,\n        string[] memory outputAliases,\n        uint256[] memory outputs\n    ) public onlyRole(GAME_MASTER_ROLE) {\n        /* This is done differently from adding zones and can break connections\n\n        Use with caution!\n\n        inputs = [zone index, input index]\n        outputs = [zone index, output index]\n        */\n        require(\n            inputs.length == outputs.length,\n            \"inputs / outputs length mismatch\"\n        );\n        require(\n            connectionInputsValid(gameID, inputAliases, inputs),\n            \"inputs invalid\"\n        );\n        require(\n            connectionOutputsValid(gameID, outputAliases, outputs),\n            \"outputs invalid\"\n        );\n        for (uint256 i = 0; i < inputs.length; i++) {\n            //TODO:\n            // remove input from zone inputs[i][0] at index inputs[i][1]\n            // remove output from zone outputs[i][0] at index outputs[i][1]\n        }\n    }\n\n    function exitToPath(\n        uint256 gameID,\n        address playerAddress,\n        uint256 pathIndex\n    ) external virtual returns (bool exitSuccess) {\n        // TODO: make sure zone calling is same as zone player is trying to exit\n        uint256 playerID = PLAYER_REGISTRY.playerID(gameID, playerAddress);\n        string memory originZoneAlias = currentPlayZone[gameID][playerID];\n        string[] memory outputs = getOutputs(gameID, originZoneAlias);\n        uint256 availablePaths = outputs.length;\n        require(availablePaths > 0, \"No exit paths available\");\n\n        exitSuccess = false;\n\n        PlayZone originPlayZone = PlayZone(zoneAlias[gameID][originZoneAlias]);\n\n        uint256 path = pathIndex > availablePaths ? 0 : pathIndex;\n        string memory destinationZoneAlias = outputs[path];\n        PlayZone destinationPlayZone = PlayZone(\n            zoneAlias[gameID][destinationZoneAlias]\n        );\n\n        if (\n            originPlayZone.playerCanExit(\n                playerAddress,\n                gameID,\n                originZoneAlias\n            ) &&\n            destinationPlayZone.playerCanEnter(\n                playerAddress,\n                gameID,\n                destinationZoneAlias\n            )\n        ) {\n            originPlayZone.exitPlayer(playerAddress, gameID, originZoneAlias);\n            destinationPlayZone.enterPlayer(\n                playerAddress,\n                gameID,\n                destinationZoneAlias\n            );\n            currentPlayZone[gameID][playerID] = destinationZoneAlias;\n            exitSuccess = true;\n        }\n    }\n\n    function playerEnteredZone(\n        uint256 gameID,\n        address playerAddress,\n        string memory _zoneAlias\n    ) external onlyRole(PLAY_ZONE_ROLE) {\n        uint256 playerID = PLAYER_REGISTRY.playerID(gameID, playerAddress);\n        currentPlayZone[gameID][playerID] = _zoneAlias;\n    }\n\n    // TODO: implement mass transit\n    // can set as many of these up as needed for mass transit\n    function queueExitToPaths(\n        uint256 gameID,\n        address[] memory playerAddresses,\n        uint256[] memory pathIndices,\n        uint256 transitID\n    ) public onlyRole(PLAY_ZONE_ROLE) {}\n\n    function startTransit(uint256 transitID) public onlyRole(PLAY_ZONE_ROLE) {}\n\n    function _progressTransit(uint256 transitID)\n        public\n        onlyRole(VERIFIED_CONTROLLER_ROLE)\n    {\n        // moves group transit along, marks as complete at finish\n    }\n\n    function connectionZonesValid(\n        uint256 gameID,\n        string[2][] memory connections\n    ) internal view returns (bool isValid) {\n        // checks that all aliases passed exist\n        for (uint256 i = 0; i < connections.length; i++) {\n            isValid = true;\n            if (\n                zoneAlias[gameID][connections[i][0]] == address(0) ||\n                zoneAlias[gameID][connections[i][1]] == address(0)\n            ) {\n                isValid = false;\n                break;\n            }\n        }\n    }\n\n    function connectionInputsValid(\n        uint256 gameID,\n        string[] memory aliases,\n        uint256[] memory inputs\n    ) internal view returns (bool isValid) {\n        // checks that inputs exist\n        // inputs = [zone alias, input index]\n\n        isValid = true;\n        for (uint256 i = 0; i < inputs.length; i++) {\n            if (\n                //playZoneInputs[gameID][zone alias] = array of input aliases for given zone\n                playZoneInputs[gameID][aliases[i]].length >= inputs[i] + 1\n            ) {\n                isValid = false;\n                break;\n            }\n        }\n    }\n\n    function connectionOutputsValid(\n        uint256 gameID,\n        string[] memory aliases,\n        uint256[] memory outputs\n    ) internal view returns (bool isValid) {\n        // outputs = [zone alias, output index]\n        isValid = true;\n        for (uint256 i = 0; i < outputs.length; i++) {\n            if (playZoneOutputs[gameID][aliases[i]].length >= outputs[i] + 1) {\n                isValid = false;\n                break;\n            }\n        }\n    }\n}\n",
  "sourcePath": "@luckymachines/game-core/contracts/src/v0.0/GameBoard.sol",
  "compiler": {
    "name": "solc",
    "version": "0.8.11+commit.d7f03943.Emscripten.clang"
  },
  "schemaVersion": "3.4.2",
  "updatedAt": "2022-05-26T21:13:33.301Z",
  "devdoc": {
    "kind": "dev",
    "methods": {
      "getRoleAdmin(bytes32)": {
        "details": "Returns the admin role that controls `role`. See {grantRole} and {revokeRole}. To change a role's admin, use {_setRoleAdmin}."
      },
      "getRoleMember(bytes32,uint256)": {
        "details": "Returns one of the accounts that have `role`. `index` must be a value between 0 and {getRoleMemberCount}, non-inclusive. Role bearers are not sorted in any particular way, and their ordering may change at any point. WARNING: When using {getRoleMember} and {getRoleMemberCount}, make sure you perform all queries on the same block. See the following https://forum.openzeppelin.com/t/iterating-over-elements-on-enumerableset-in-openzeppelin-contracts/2296[forum post] for more information."
      },
      "getRoleMemberCount(bytes32)": {
        "details": "Returns the number of accounts that have `role`. Can be used together with {getRoleMember} to enumerate all bearers of a role."
      },
      "grantRole(bytes32,address)": {
        "details": "Grants `role` to `account`. If `account` had not been already granted `role`, emits a {RoleGranted} event. Requirements: - the caller must have ``role``'s admin role."
      },
      "hasRole(bytes32,address)": {
        "details": "Returns `true` if `account` has been granted `role`."
      },
      "renounceRole(bytes32,address)": {
        "details": "Revokes `role` from the calling account. Roles are often managed via {grantRole} and {revokeRole}: this function's purpose is to provide a mechanism for accounts to lose their privileges if they are compromised (such as when a trusted device is misplaced). If the calling account had been revoked `role`, emits a {RoleRevoked} event. Requirements: - the caller must be `account`."
      },
      "revokeRole(bytes32,address)": {
        "details": "Revokes `role` from `account`. If `account` had been granted `role`, emits a {RoleRevoked} event. Requirements: - the caller must have ``role``'s admin role."
      },
      "supportsInterface(bytes4)": {
        "details": "See {IERC165-supportsInterface}."
      }
    },
    "version": 1
  },
  "userdoc": {
    "kind": "user",
    "methods": {},
    "version": 1
  }
}