{
  "contractName": "GameController",
  "abi": [
    {
      "inputs": [
        {
          "internalType": "address",
          "name": "adminAddress",
          "type": "address"
        }
      ],
      "stateMutability": "nonpayable",
      "type": "constructor"
    },
    {
      "anonymous": false,
      "inputs": [
        {
          "indexed": true,
          "internalType": "bytes32",
          "name": "role",
          "type": "bytes32"
        },
        {
          "indexed": true,
          "internalType": "bytes32",
          "name": "previousAdminRole",
          "type": "bytes32"
        },
        {
          "indexed": true,
          "internalType": "bytes32",
          "name": "newAdminRole",
          "type": "bytes32"
        }
      ],
      "name": "RoleAdminChanged",
      "type": "event"
    },
    {
      "anonymous": false,
      "inputs": [
        {
          "indexed": true,
          "internalType": "bytes32",
          "name": "role",
          "type": "bytes32"
        },
        {
          "indexed": true,
          "internalType": "address",
          "name": "account",
          "type": "address"
        },
        {
          "indexed": true,
          "internalType": "address",
          "name": "sender",
          "type": "address"
        }
      ],
      "name": "RoleGranted",
      "type": "event"
    },
    {
      "anonymous": false,
      "inputs": [
        {
          "indexed": true,
          "internalType": "bytes32",
          "name": "role",
          "type": "bytes32"
        },
        {
          "indexed": true,
          "internalType": "address",
          "name": "account",
          "type": "address"
        },
        {
          "indexed": true,
          "internalType": "address",
          "name": "sender",
          "type": "address"
        }
      ],
      "name": "RoleRevoked",
      "type": "event"
    },
    {
      "inputs": [],
      "name": "DEFAULT_ADMIN_ROLE",
      "outputs": [
        {
          "internalType": "bytes32",
          "name": "",
          "type": "bytes32"
        }
      ],
      "stateMutability": "view",
      "type": "function"
    },
    {
      "inputs": [
        {
          "internalType": "bytes32",
          "name": "role",
          "type": "bytes32"
        }
      ],
      "name": "getRoleAdmin",
      "outputs": [
        {
          "internalType": "bytes32",
          "name": "",
          "type": "bytes32"
        }
      ],
      "stateMutability": "view",
      "type": "function"
    },
    {
      "inputs": [
        {
          "internalType": "bytes32",
          "name": "role",
          "type": "bytes32"
        },
        {
          "internalType": "uint256",
          "name": "index",
          "type": "uint256"
        }
      ],
      "name": "getRoleMember",
      "outputs": [
        {
          "internalType": "address",
          "name": "",
          "type": "address"
        }
      ],
      "stateMutability": "view",
      "type": "function"
    },
    {
      "inputs": [
        {
          "internalType": "bytes32",
          "name": "role",
          "type": "bytes32"
        }
      ],
      "name": "getRoleMemberCount",
      "outputs": [
        {
          "internalType": "uint256",
          "name": "",
          "type": "uint256"
        }
      ],
      "stateMutability": "view",
      "type": "function"
    },
    {
      "inputs": [
        {
          "internalType": "bytes32",
          "name": "role",
          "type": "bytes32"
        },
        {
          "internalType": "address",
          "name": "account",
          "type": "address"
        }
      ],
      "name": "grantRole",
      "outputs": [],
      "stateMutability": "nonpayable",
      "type": "function"
    },
    {
      "inputs": [
        {
          "internalType": "bytes32",
          "name": "role",
          "type": "bytes32"
        },
        {
          "internalType": "address",
          "name": "account",
          "type": "address"
        }
      ],
      "name": "hasRole",
      "outputs": [
        {
          "internalType": "bool",
          "name": "",
          "type": "bool"
        }
      ],
      "stateMutability": "view",
      "type": "function"
    },
    {
      "inputs": [
        {
          "internalType": "bytes32",
          "name": "role",
          "type": "bytes32"
        },
        {
          "internalType": "address",
          "name": "account",
          "type": "address"
        }
      ],
      "name": "renounceRole",
      "outputs": [],
      "stateMutability": "nonpayable",
      "type": "function"
    },
    {
      "inputs": [
        {
          "internalType": "bytes32",
          "name": "role",
          "type": "bytes32"
        },
        {
          "internalType": "address",
          "name": "account",
          "type": "address"
        }
      ],
      "name": "revokeRole",
      "outputs": [],
      "stateMutability": "nonpayable",
      "type": "function"
    },
    {
      "inputs": [
        {
          "internalType": "bytes4",
          "name": "interfaceId",
          "type": "bytes4"
        }
      ],
      "name": "supportsInterface",
      "outputs": [
        {
          "internalType": "bool",
          "name": "",
          "type": "bool"
        }
      ],
      "stateMutability": "view",
      "type": "function"
    },
    {
      "inputs": [
        {
          "internalType": "uint256",
          "name": "pathIndex",
          "type": "uint256"
        },
        {
          "internalType": "uint256",
          "name": "gameID",
          "type": "uint256"
        },
        {
          "internalType": "address",
          "name": "gameBoardAddress",
          "type": "address"
        }
      ],
      "name": "exitToPath",
      "outputs": [],
      "stateMutability": "nonpayable",
      "type": "function"
    }
  ],
  "bytecode": "0x60806040523480156200001157600080fd5b5060405162000ecb38038062000ecb833981016040819052620000349162000213565b6200004a60008264010000000062000051810204565b5062000245565b6200006682826401000000006200006a810204565b5050565b620000848282640100000000620003dd620000b182021704565b6000828152600160205260409020620000ac9082640100000000620004616200014d82021704565b505050565b620000c6828264010000000062000176810204565b6200006657600082815260208181526040808320600160a060020a03851684529091529020805460ff19166001179055620001096401000000006200019f810204565b600160a060020a031681600160a060020a0316837f2f8788117e7eff1d82e926ec794901d17c78024a50270940304540a733656f0d60405160405180910390a45050565b60006200016d83600160a060020a038416640100000000620001a3810204565b90505b92915050565b600091825260208281526040808420600160a060020a0393909316845291905290205460ff1690565b3390565b6000620001ba8383640100000000620001fb810204565b620001f25750815460018181018455600084815260208082209093018490558454848252828601909352604090209190915562000170565b50600062000170565b60009081526001919091016020526040902054151590565b6000602082840312156200022657600080fd5b8151600160a060020a03811681146200023e57600080fd5b9392505050565b610c7680620002556000396000f3fe608060405234801561001057600080fd5b50600436106100bb576000357c0100000000000000000000000000000000000000000000000000000000900480639010d07c116100835780639010d07c1461015457806391d148541461017f578063a217fddf14610192578063ca15c8731461019a578063d547741f146101ad57600080fd5b806301ffc9a7146100c0578063248a9ca3146100e85780632f2ff15d1461011957806336568abe1461012e5780637479c8fe14610141575b600080fd5b6100d36100ce366004610993565b6101c0565b60405190151581526020015b60405180910390f35b61010b6100f63660046109bd565b60009081526020819052604090206001015490565b6040519081526020016100df565b61012c6101273660046109f2565b610204565b005b61012c61013c3660046109f2565b61022e565b61012c61014f366004610a1e565b6102c2565b610167610162366004610a53565b610359565b604051600160a060020a0390911681526020016100df565b6100d361018d3660046109f2565b610378565b61010b600081565b61010b6101a83660046109bd565b6103a1565b61012c6101bb3660046109f2565b6103b8565b6000600160e060020a031982167f5a05180f0000000000000000000000000000000000000000000000000000000014806101fe57506101fe82610476565b92915050565b60008281526020819052604090206001015461021f816104dd565b61022983836104ea565b505050565b600160a060020a03811633146102b45760405160e560020a62461bcd02815260206004820152602f60248201527f416363657373436f6e74726f6c3a2063616e206f6e6c792072656e6f756e636560448201527f20726f6c657320666f722073656c66000000000000000000000000000000000060648201526084015b60405180910390fd5b6102be828261050c565b5050565b6040517f9eb356cb0000000000000000000000000000000000000000000000000000000081526004810183905233602482015260448101849052600160a060020a03821690639eb356cb906064016020604051808303816000875af115801561032f573d6000803e3d6000fd5b505050506040513d601f19601f820116820180604052508101906103539190610a75565b50505050565b6000828152600160205260408120610371908361052e565b9392505050565b600091825260208281526040808420600160a060020a0393909316845291905290205460ff1690565b60008181526001602052604081206101fe9061053a565b6000828152602081905260409020600101546103d3816104dd565b610229838361050c565b6103e78282610378565b6102be57600082815260208181526040808320600160a060020a03851684529091529020805460ff1916600117905561041d3390565b600160a060020a031681600160a060020a0316837f2f8788117e7eff1d82e926ec794901d17c78024a50270940304540a733656f0d60405160405180910390a45050565b600061037183600160a060020a038416610544565b6000600160e060020a031982167f7965db0b0000000000000000000000000000000000000000000000000000000014806101fe57507f01ffc9a700000000000000000000000000000000000000000000000000000000600160e060020a03198316146101fe565b6104e78133610593565b50565b6104f482826103dd565b60008281526001602052604090206102299082610461565b61051682826105fa565b6000828152600160205260409020610229908261065f565b60006103718383610674565b60006101fe825490565b600081815260018301602052604081205461058b575081546001818101845560008481526020808220909301849055845484825282860190935260409020919091556101fe565b5060006101fe565b61059d8282610378565b6102be576105b581600160a060020a0316601461069e565b6105c083602061069e565b6040516020016105d1929190610ac3565b60408051601f198184030181529082905260e560020a62461bcd0282526102ab91600401610b44565b6106048282610378565b156102be57600082815260208181526040808320600160a060020a0385168085529252808320805460ff1916905551339285917ff6391f5c32d9c69d2a47ea670b442974b53935d1edc7fd64eb21e047a839171b9190a45050565b600061037183600160a060020a0384166108a0565b600082600001828154811061068b5761068b610b77565b9060005260206000200154905092915050565b606060006106ad836002610ba9565b6106b8906002610bc8565b67ffffffffffffffff8111156106d0576106d0610be0565b6040519080825280601f01601f1916602001820160405280156106fa576020820181803683370190505b5090507f30000000000000000000000000000000000000000000000000000000000000008160008151811061073157610731610b77565b6020010190600160f860020a031916908160001a9053507f78000000000000000000000000000000000000000000000000000000000000008160018151811061077c5761077c610b77565b6020010190600160f860020a031916908160001a90535060006107a0846002610ba9565b6107ab906001610bc8565b90505b600181111561084e577f303132333435363738396162636465660000000000000000000000000000000085600f16601081106107ec576107ec610b77565b1a7f01000000000000000000000000000000000000000000000000000000000000000282828151811061082157610821610b77565b6020010190600160f860020a031916908160001a90535060109094049361084781610bf9565b90506107ae565b5083156103715760405160e560020a62461bcd02815260206004820181905260248201527f537472696e67733a20686578206c656e67746820696e73756666696369656e7460448201526064016102ab565b600081815260018301602052604081205480156109895760006108c4600183610c10565b85549091506000906108d890600190610c10565b905081811461093d5760008660000182815481106108f8576108f8610b77565b906000526020600020015490508087600001848154811061091b5761091b610b77565b6000918252602080832090910192909255918252600188019052604090208390555b855486908061094e5761094e610c27565b6001900381819060005260206000200160009055905585600101600086815260200190815260200160002060009055600193505050506101fe565b60009150506101fe565b6000602082840312156109a557600080fd5b8135600160e060020a03198116811461037157600080fd5b6000602082840312156109cf57600080fd5b5035919050565b8035600160a060020a03811681146109ed57600080fd5b919050565b60008060408385031215610a0557600080fd5b82359150610a15602084016109d6565b90509250929050565b600080600060608486031215610a3357600080fd5b8335925060208401359150610a4a604085016109d6565b90509250925092565b60008060408385031215610a6657600080fd5b50508035926020909101359150565b600060208284031215610a8757600080fd5b8151801515811461037157600080fd5b60005b83811015610ab2578181015183820152602001610a9a565b838111156103535750506000910152565b7f416363657373436f6e74726f6c3a206163636f756e7420000000000000000000815260008351610afb816017850160208801610a97565b7f206973206d697373696e6720726f6c65200000000000000000000000000000006017918401918201528351610b38816028840160208801610a97565b01602801949350505050565b6020815260008251806020840152610b63816040850160208701610a97565b601f01601f19169190910160400192915050565b60e060020a634e487b7102600052603260045260246000fd5b60e060020a634e487b7102600052601160045260246000fd5b6000816000190483118215151615610bc357610bc3610b90565b500290565b60008219821115610bdb57610bdb610b90565b500190565b60e060020a634e487b7102600052604160045260246000fd5b600081610c0857610c08610b90565b506000190190565b600082821015610c2257610c22610b90565b500390565b60e060020a634e487b7102600052603160045260246000fdfea264697066735822122064dcaf5d9ba56749c6cb5a9f574978db6ddcf0df9c1a1de60d7dac38ebafc04e64736f6c634300080b0033",
  "immutableReferences": {},
  "source": "// SPDX-License-Identifier: GPL-3.0\npragma solidity >=0.7.0 <0.9.0;\n\nimport \"./PlayZone.sol\";\nimport \"./GameBoard.sol\";\n\ncontract GameController is AccessControlEnumerable {\n    constructor(address adminAddress) {\n        _setupRole(DEFAULT_ADMIN_ROLE, adminAddress);\n    }\n\n    function exitToPath(\n        uint256 pathIndex,\n        uint256 gameID,\n        address gameBoardAddress\n    ) public {\n        // called directly by player\n        GameBoard(gameBoardAddress).exitToPath(gameID, msg.sender, pathIndex);\n    }\n}\n",
  "sourcePath": "@luckymachines/game-core/contracts/src/v0.0/GameController.sol",
  "compiler": {
    "name": "solc",
    "version": "0.8.11+commit.d7f03943.Emscripten.clang"
  },
  "schemaVersion": "3.4.2",
  "updatedAt": "2022-05-26T21:13:33.349Z",
  "devdoc": {
    "kind": "dev",
    "methods": {
      "getRoleAdmin(bytes32)": {
        "details": "Returns the admin role that controls `role`. See {grantRole} and {revokeRole}. To change a role's admin, use {_setRoleAdmin}."
      },
      "getRoleMember(bytes32,uint256)": {
        "details": "Returns one of the accounts that have `role`. `index` must be a value between 0 and {getRoleMemberCount}, non-inclusive. Role bearers are not sorted in any particular way, and their ordering may change at any point. WARNING: When using {getRoleMember} and {getRoleMemberCount}, make sure you perform all queries on the same block. See the following https://forum.openzeppelin.com/t/iterating-over-elements-on-enumerableset-in-openzeppelin-contracts/2296[forum post] for more information."
      },
      "getRoleMemberCount(bytes32)": {
        "details": "Returns the number of accounts that have `role`. Can be used together with {getRoleMember} to enumerate all bearers of a role."
      },
      "grantRole(bytes32,address)": {
        "details": "Grants `role` to `account`. If `account` had not been already granted `role`, emits a {RoleGranted} event. Requirements: - the caller must have ``role``'s admin role."
      },
      "hasRole(bytes32,address)": {
        "details": "Returns `true` if `account` has been granted `role`."
      },
      "renounceRole(bytes32,address)": {
        "details": "Revokes `role` from the calling account. Roles are often managed via {grantRole} and {revokeRole}: this function's purpose is to provide a mechanism for accounts to lose their privileges if they are compromised (such as when a trusted device is misplaced). If the calling account had been revoked `role`, emits a {RoleRevoked} event. Requirements: - the caller must be `account`."
      },
      "revokeRole(bytes32,address)": {
        "details": "Revokes `role` from `account`. If `account` had been granted `role`, emits a {RoleRevoked} event. Requirements: - the caller must have ``role``'s admin role."
      },
      "supportsInterface(bytes4)": {
        "details": "See {IERC165-supportsInterface}."
      }
    },
    "version": 1
  },
  "userdoc": {
    "kind": "user",
    "methods": {},
    "version": 1
  }
}