{
  "contractName": "GameSummary",
  "abi": [
    {
      "inputs": [
        {
          "internalType": "address",
          "name": "gameBoardAddress",
          "type": "address"
        }
      ],
      "name": "boardSize",
      "outputs": [
        {
          "internalType": "uint256",
          "name": "rows",
          "type": "uint256"
        },
        {
          "internalType": "uint256",
          "name": "columns",
          "type": "uint256"
        }
      ],
      "stateMutability": "view",
      "type": "function",
      "constant": true
    },
    {
      "inputs": [
        {
          "internalType": "address",
          "name": "gameBoardAddress",
          "type": "address"
        },
        {
          "internalType": "uint256",
          "name": "gameID",
          "type": "uint256"
        },
        {
          "internalType": "address",
          "name": "playerAddress",
          "type": "address"
        }
      ],
      "name": "isRegistered",
      "outputs": [
        {
          "internalType": "bool",
          "name": "",
          "type": "bool"
        }
      ],
      "stateMutability": "view",
      "type": "function",
      "constant": true
    },
    {
      "inputs": [
        {
          "internalType": "address",
          "name": "gameBoardAddress",
          "type": "address"
        },
        {
          "internalType": "uint256",
          "name": "gameID",
          "type": "uint256"
        },
        {
          "internalType": "address",
          "name": "playerAddress",
          "type": "address"
        }
      ],
      "name": "getPlayerID",
      "outputs": [
        {
          "internalType": "uint256",
          "name": "playerID",
          "type": "uint256"
        }
      ],
      "stateMutability": "view",
      "type": "function",
      "constant": true
    },
    {
      "inputs": [
        {
          "internalType": "address",
          "name": "gameBoardAddress",
          "type": "address"
        },
        {
          "internalType": "uint256",
          "name": "gameID",
          "type": "uint256"
        }
      ],
      "name": "currentGameplayQueue",
      "outputs": [
        {
          "internalType": "uint256",
          "name": "",
          "type": "uint256"
        }
      ],
      "stateMutability": "view",
      "type": "function",
      "constant": true
    },
    {
      "inputs": [
        {
          "internalType": "address",
          "name": "gameBoardAddress",
          "type": "address"
        },
        {
          "internalType": "uint256",
          "name": "gameID",
          "type": "uint256"
        }
      ],
      "name": "currentPhase",
      "outputs": [
        {
          "internalType": "string",
          "name": "phase",
          "type": "string"
        }
      ],
      "stateMutability": "view",
      "type": "function",
      "constant": true
    },
    {
      "inputs": [
        {
          "internalType": "address",
          "name": "gameBoardAddress",
          "type": "address"
        },
        {
          "internalType": "uint256",
          "name": "gameID",
          "type": "uint256"
        }
      ],
      "name": "activeZones",
      "outputs": [
        {
          "internalType": "string[]",
          "name": "zones",
          "type": "string[]"
        },
        {
          "internalType": "uint16[]",
          "name": "tiles",
          "type": "uint16[]"
        }
      ],
      "stateMutability": "view",
      "type": "function",
      "constant": true
    },
    {
      "inputs": [
        {
          "internalType": "address",
          "name": "gameBoardAddress",
          "type": "address"
        },
        {
          "internalType": "uint256",
          "name": "gameID",
          "type": "uint256"
        }
      ],
      "name": "landingSite",
      "outputs": [
        {
          "internalType": "string",
          "name": "",
          "type": "string"
        }
      ],
      "stateMutability": "view",
      "type": "function",
      "constant": true
    },
    {
      "inputs": [
        {
          "internalType": "address",
          "name": "gameBoardAddress",
          "type": "address"
        },
        {
          "internalType": "uint256",
          "name": "gameID",
          "type": "uint256"
        }
      ],
      "name": "allPlayerLocations",
      "outputs": [
        {
          "internalType": "uint256[]",
          "name": "",
          "type": "uint256[]"
        },
        {
          "internalType": "string[]",
          "name": "",
          "type": "string[]"
        }
      ],
      "stateMutability": "view",
      "type": "function",
      "constant": true
    },
    {
      "inputs": [
        {
          "internalType": "address",
          "name": "gameBoardAddress",
          "type": "address"
        },
        {
          "internalType": "uint256",
          "name": "gameID",
          "type": "uint256"
        }
      ],
      "name": "currentLocation",
      "outputs": [
        {
          "internalType": "string",
          "name": "",
          "type": "string"
        }
      ],
      "stateMutability": "view",
      "type": "function",
      "constant": true
    },
    {
      "inputs": [
        {
          "internalType": "address",
          "name": "gameBoardAddress",
          "type": "address"
        },
        {
          "internalType": "uint256",
          "name": "gameID",
          "type": "uint256"
        }
      ],
      "name": "currentPlayerStats",
      "outputs": [
        {
          "internalType": "uint8",
          "name": "movement",
          "type": "uint8"
        },
        {
          "internalType": "uint8",
          "name": "agility",
          "type": "uint8"
        },
        {
          "internalType": "uint8",
          "name": "dexterity",
          "type": "uint8"
        }
      ],
      "stateMutability": "view",
      "type": "function",
      "constant": true
    },
    {
      "inputs": [
        {
          "internalType": "address",
          "name": "gameBoardAddress",
          "type": "address"
        },
        {
          "internalType": "uint256",
          "name": "gameID",
          "type": "uint256"
        }
      ],
      "name": "currentHandInventory",
      "outputs": [
        {
          "internalType": "string",
          "name": "leftHandItem",
          "type": "string"
        },
        {
          "internalType": "string",
          "name": "rightHandItem",
          "type": "string"
        }
      ],
      "stateMutability": "view",
      "type": "function",
      "constant": true
    },
    {
      "inputs": [
        {
          "internalType": "address",
          "name": "gameBoardAddress",
          "type": "address"
        },
        {
          "internalType": "uint256",
          "name": "gameID",
          "type": "uint256"
        }
      ],
      "name": "activeInventory",
      "outputs": [
        {
          "internalType": "string",
          "name": "artifact",
          "type": "string"
        },
        {
          "internalType": "string",
          "name": "status",
          "type": "string"
        },
        {
          "internalType": "string",
          "name": "relic",
          "type": "string"
        },
        {
          "internalType": "bool",
          "name": "shield",
          "type": "bool"
        },
        {
          "internalType": "bool",
          "name": "campsite",
          "type": "bool"
        }
      ],
      "stateMutability": "view",
      "type": "function",
      "constant": true
    },
    {
      "inputs": [
        {
          "internalType": "address",
          "name": "gameBoardAddress",
          "type": "address"
        },
        {
          "internalType": "uint256",
          "name": "gameID",
          "type": "uint256"
        }
      ],
      "name": "inactiveInventory",
      "outputs": [
        {
          "internalType": "string[]",
          "name": "itemTypes",
          "type": "string[]"
        },
        {
          "internalType": "uint256[]",
          "name": "itemBalances",
          "type": "uint256[]"
        }
      ],
      "stateMutability": "view",
      "type": "function",
      "constant": true
    },
    {
      "inputs": [
        {
          "internalType": "address",
          "name": "gameBoardAddress",
          "type": "address"
        },
        {
          "internalType": "uint256",
          "name": "gameID",
          "type": "uint256"
        }
      ],
      "name": "isAtCampsite",
      "outputs": [
        {
          "internalType": "bool",
          "name": "",
          "type": "bool"
        }
      ],
      "stateMutability": "view",
      "type": "function",
      "constant": true
    },
    {
      "inputs": [
        {
          "internalType": "address",
          "name": "gameBoardAddress",
          "type": "address"
        },
        {
          "internalType": "uint256",
          "name": "gameID",
          "type": "uint256"
        }
      ],
      "name": "activeAction",
      "outputs": [
        {
          "internalType": "string",
          "name": "action",
          "type": "string"
        }
      ],
      "stateMutability": "view",
      "type": "function",
      "constant": true
    },
    {
      "inputs": [],
      "name": "getAvailableGameIDs",
      "outputs": [
        {
          "internalType": "uint256[]",
          "name": "",
          "type": "uint256[]"
        }
      ],
      "stateMutability": "view",
      "type": "function",
      "constant": true
    }
  ],
  "bytecode": "0x61376c610053600b82828239805160001a607314610046577f4e487b7100000000000000000000000000000000000000000000000000000000600052600060045260246000fd5b30600052607381538281f3fe73000000000000000000000000000000000000000030146080604052600436106100f95760003560e060020a90048063ad7bac41116100a0578063ad7bac41146101f2578063b0be1afa14610208578063bb8553fc14610229578063c449f5801461024f578063cabd6fda14610287578063e569d33a1461029a578063ee203a8e146102bb578063f59bf903146102e3578063f8ffdfcc1461030757600080fd5b80632f874fe0146100fe57806330f7337a1461013a5780636ee1173e1461015b5780638191e0621461016a578063821ba3a11461018b57806386599da8146101ab578063a75d3f87146101cc578063ab00df6c146101df575b600080fd5b61011161010c366004613097565b61031a565b6040805160ff948516815292841660208401529216918101919091526060015b60405180910390f35b61014d6101483660046130c3565b61061a565b604051908152602001610131565b60606040516101319190613140565b61017d610178366004613097565b61071c565b604051610131929190613206565b61019e610199366004613097565b6109a1565b604051610131919061322b565b6101be6101b9366004613097565b610a31565b60405161013192919061323e565b61019e6101da366004613097565b6119a6565b61014d6101ed366004613097565b611b93565b61019e610200366004613097565b606092915050565b61021b610216366004613097565b611c8e565b604051610131929190613263565b61023f610237366004613097565b600092915050565b6040519015158152602001610131565b81801561025b57600080fd5b5061027761026a366004613097565b5060609182915081908190565b6040516101319493929190613288565b61023f6102953660046130c3565b612107565b6102ad6102a8366004613097565b6121ff565b6040516101319291906132e0565b6102ce6102c936600461332e565b6125f8565b60408051928352602083019190915201610131565b6102f66102f1366004613097565b6126d4565b60405161013195949392919061334b565b61019e610315366004613097565b612db9565b600080600080859050600081600160a060020a031663a0ed600d6040518163ffffffff1660e060020a028152600401602060405180830381865afa158015610366573d6000803e3d6000fd5b505050506040513d601f19601f8201168201806040525081019061038a919061339e565b9050600082600160a060020a031663c06dea4e6040518163ffffffff1660e060020a028152600401602060405180830381865afa1580156103cf573d6000803e3d6000fd5b505050506040513d601f19601f820116820180604052508101906103f3919061339e565b9050600081600160a060020a031663bca7caa089336040518363ffffffff1660e060020a0281526004016104289291906133bb565b602060405180830381865afa158015610445573d6000803e3d6000fd5b505050506040513d601f19601f8201168201806040525081019061046991906133d2565b6040517fe8216595000000000000000000000000000000000000000000000000000000008152600481018a905260248101829052909150600160a060020a0384169063e821659590604401602060405180830381865afa1580156104d1573d6000803e3d6000fd5b505050506040513d601f19601f820116820180604052508101906104f591906133eb565b6040517fd104563e000000000000000000000000000000000000000000000000000000008152600481018a905260248101839052909750600160a060020a0384169063d104563e90604401602060405180830381865afa15801561055d573d6000803e3d6000fd5b505050506040513d601f19601f8201168201806040525081019061058191906133eb565b6040517f2af37e1d000000000000000000000000000000000000000000000000000000008152600481018a905260248101839052909650600160a060020a03841690632af37e1d90604401602060405180830381865afa1580156105e9573d6000803e3d6000fd5b505050506040513d601f19601f8201168201806040525081019061060d91906133eb565b9450505050509250925092565b600080849050600081600160a060020a031663c06dea4e6040518163ffffffff1660e060020a028152600401602060405180830381865afa158015610663573d6000803e3d6000fd5b505050506040513d601f19601f82011682018060405250810190610687919061339e565b6040517fbca7caa0000000000000000000000000000000000000000000000000000000008152909150600160a060020a0382169063bca7caa0906106d190889088906004016133bb565b602060405180830381865afa1580156106ee573d6000803e3d6000fd5b505050506040513d601f19601f8201168201806040525081019061071291906133d2565b9695505050505050565b6060806000849050600081600160a060020a031663c06dea4e6040518163ffffffff1660e060020a028152600401602060405180830381865afa158015610767573d6000803e3d6000fd5b505050506040513d601f19601f8201168201806040525081019061078b919061339e565b6040517fb77ff41100000000000000000000000000000000000000000000000000000000815260048101879052909150600090600160a060020a0383169063b77ff41190602401602060405180830381865afa1580156107ef573d6000803e3d6000fd5b505050506040513d601f19601f8201168201806040525081019061081391906133d2565b905060008167ffffffffffffffff8111156108305761083061340e565b604051908082528060200260200182016040528015610859578160200160208202803683370190505b50905060008267ffffffffffffffff8111156108775761087761340e565b6040519080825280602002602001820160405280156108aa57816020015b60608152602001906001900390816108955790505b50905060005b83811015610992576108c3816001613440565b8382815181106108d5576108d5613458565b6020908102919091010152600160a060020a03861663d75e79808a6108fb846001613440565b60405160e060020a63ffffffff851602815260048101929092526024820152604401600060405180830381865afa15801561093a573d6000803e3d6000fd5b505050506040513d6000823e601f3d908101601f19168201604052610962919081019061350e565b82828151811061097457610974613458565b6020026020010181905250808061098a90613543565b9150506108b0565b50909890975095505050505050565b6040517feb33983d00000000000000000000000000000000000000000000000000000000815260048101829052606090600160a060020a0384169063eb33983d90602401600060405180830381865afa158015610a02573d6000803e3d6000fd5b505050506040513d6000823e601f3d908101601f19168201604052610a2a919081019061350e565b9392505050565b6060806000849050600081600160a060020a031663c06dea4e6040518163ffffffff1660e060020a028152600401602060405180830381865afa158015610a7c573d6000803e3d6000fd5b505050506040513d601f19601f82011682018060405250810190610aa0919061339e565b9050600082600160a060020a031663cca369966040518163ffffffff1660e060020a028152600401602060405180830381865afa158015610ae5573d6000803e3d6000fd5b505050506040513d601f19601f82011682018060405250810190610b09919061339e565b60408051602380825261048082019092529192506020820161046080368337019050506040805160238082526104808201909252919550816020015b6060815260200190600190039081610b455790505094506040518060400160405280600a81526020017f536d616c6c20416d6d6f0000000000000000000000000000000000000000000081525085600081518110610ba557610ba5613458565b60200260200101819052506040518060400160405280600a81526020017f4c6172676520416d6d6f0000000000000000000000000000000000000000000081525085600181518110610bf957610bf9613458565b60200260200101819052506040518060400160405280600981526020017f426174746572696573000000000000000000000000000000000000000000000081525085600281518110610c4d57610c4d613458565b60200260200101819052506040518060400160405280600681526020017f536869656c64000000000000000000000000000000000000000000000000000081525085600381518110610ca157610ca1613458565b60200260200101819052506040518060400160405280600681526020017f506f7274616c000000000000000000000000000000000000000000000000000081525085600481518110610cf557610cf5613458565b60200260200101819052506040518060400160405280600281526020017f4f6e00000000000000000000000000000000000000000000000000000000000081525085600581518110610d4957610d49613458565b60200260200101819052506040518060400160405280600381526020017f4f6666000000000000000000000000000000000000000000000000000000000081525085600681518110610d9d57610d9d613458565b60200260200101819052506040518060400160405280600c81526020017f527573747920446167676572000000000000000000000000000000000000000081525085600781518110610df157610df1613458565b60200260200101819052506040518060400160405280600b81526020017f52757374792053776f726400000000000000000000000000000000000000000081525085600881518110610e4557610e45613458565b60200260200101819052506040518060400160405280600c81526020017f527573747920506973746f6c000000000000000000000000000000000000000081525085600981518110610e9957610e99613458565b60200260200101819052506040518060400160405280600b81526020017f5275737479205269666c6500000000000000000000000000000000000000000081525085600a81518110610eed57610eed613458565b60200260200101819052506040518060400160405280600c81526020017f5368696e7920446167676572000000000000000000000000000000000000000081525085600b81518110610f4157610f41613458565b60200260200101819052506040518060400160405280600b81526020017f5368696e792053776f726400000000000000000000000000000000000000000081525085600c81518110610f9557610f95613458565b60200260200101819052506040518060400160405280600c81526020017f5368696e7920506973746f6c000000000000000000000000000000000000000081525085600d81518110610fe957610fe9613458565b60200260200101819052506040518060400160405280600b81526020017f5368696e79205269666c6500000000000000000000000000000000000000000081525085600e8151811061103d5761103d613458565b60200260200101819052506040518060400160405280600c81526020017f4c6173657220446167676572000000000000000000000000000000000000000081525085600f8151811061109157611091613458565b60200260200101819052506040518060400160405280600b81526020017f4c617365722053776f7264000000000000000000000000000000000000000000815250856010815181106110e5576110e5613458565b60200260200101819052506040518060400160405280600c81526020017f4c6173657220506973746f6c00000000000000000000000000000000000000008152508560118151811061113957611139613458565b60200260200101819052506040518060400160405280600b81526020017f4c61736572205269666c650000000000000000000000000000000000000000008152508560128151811061118d5761118d613458565b60200260200101819052506040518060400160405280600a81526020017f476c6f7720737469636b00000000000000000000000000000000000000000000815250856013815181106111e1576111e1613458565b60200260200101819052506040518060400160405280600a81526020017f466c6173686c69676874000000000000000000000000000000000000000000008152508560148151811061123557611235613458565b60200260200101819052506040518060400160405280600b81526020017f466c6f6f64206c696768740000000000000000000000000000000000000000008152508560158151811061128957611289613458565b60200260200101819052506040518060400160405280601381526020017f4e69676874766973696f6e20476f67676c657300000000000000000000000000815250856016815181106112dd576112dd613458565b60200260200101819052506040518060400160405280600f81526020017f506572736f6e616c20536869656c6400000000000000000000000000000000008152508560178151811061133157611331613458565b60200260200101819052506040518060400160405280600d81526020017f427562626c6520536869656c64000000000000000000000000000000000000008152508560188151811061138557611385613458565b60200260200101819052506040518060400160405280600c81526020017f46726167204772656e6164650000000000000000000000000000000000000000815250856019815181106113d9576113d9613458565b60200260200101819052506040518060400160405280600c81526020017f46697265204772656e616465000000000000000000000000000000000000000081525085601a8151811061142d5761142d613458565b60200260200101819052506040518060400160405280600d81526020017f53686f636b204772656e6164650000000000000000000000000000000000000081525085601b8151811061148157611481613458565b60200260200101819052506040518060400160405280600981526020017f4845204d6f72746172000000000000000000000000000000000000000000000081525085601c815181106114d5576114d5613458565b60200260200101819052506040518060400160405280601181526020017f496e63656e6469617279204d6f7274617200000000000000000000000000000081525085601d8151811061152957611529613458565b60200260200101819052506040518060400160405280600a81526020017f454d50204d6f727461720000000000000000000000000000000000000000000081525085601e8151811061157d5761157d613458565b60200260200101819052506040518060400160405280600b81526020017f506f77657220476c6f766500000000000000000000000000000000000000000081525085601f815181106115d1576115d1613458565b6020026020010181905250604051806060016040528060218152602001613716602191398560208151811061160857611608613458565b60200260200101819052506040518060400160405280600f81526020017f54656c65706f72746572205061636b00000000000000000000000000000000008152508560218151811061165c5761165c613458565b60200260200101819052506040518060400160405280600881526020017f43616d7073697465000000000000000000000000000000000000000000000000815250856022815181106116b0576116b0613458565b6020026020010181905250600082600160a060020a031663bca7caa088336040518363ffffffff1660e060020a0281526004016116ee9291906133bb565b602060405180830381865afa15801561170b573d6000803e3d6000fd5b505050506040513d601f19601f8201168201806040525081019061172f91906133d2565b6040517f01d37be4000000000000000000000000000000000000000000000000000000008152909150600160a060020a038316906301d37be49061177c9084906003908c90600401613577565b602060405180830381865afa158015611799573d6000803e3d6000fd5b505050506040513d601f19601f820116820180604052508101906117bd91906135b0565b1561199b57600082600160a060020a031663a318d45c6040518163ffffffff1660e060020a028152600401602060405180830381865afa158015611805573d6000803e3d6000fd5b505050506040513d601f19601f82011682018060405250810190611829919061339e565b9050600081600160a060020a031663c853a1d06040518163ffffffff1660e060020a028152600401600060405180830381865afa15801561186e573d6000803e3d6000fd5b505050506040513d6000823e601f3d908101601f1916820160405261189691908101906135d2565b905060005b8751811015611997578181815181106118b6576118b6613458565b60200260200101518982815181106118d0576118d0613458565b602002602001018190525082600160a060020a0316634db157d08383815181106118fc576118fc613458565b60200260200101518c876040518463ffffffff1660e060020a02815260040161192793929190613694565b602060405180830381865afa158015611944573d6000803e3d6000fd5b505050506040513d601f19601f8201168201806040525081019061196891906133d2565b88828151811061197a5761197a613458565b60209081029190910101528061198f81613543565b91505061189b565b5050505b505050509250929050565b60606000839050600081600160a060020a031663cca369966040518163ffffffff1660e060020a028152600401602060405180830381865afa1580156119f0573d6000803e3d6000fd5b505050506040513d601f19601f82011682018060405250810190611a14919061339e565b9050600081600160a060020a031663a906dfd16040518163ffffffff1660e060020a028152600401602060405180830381865afa158015611a59573d6000803e3d6000fd5b505050506040513d601f19601f82011682018060405250810190611a7d919061339e565b6040517f4db157d0000000000000000000000000000000000000000000000000000000008152606060048201526003606482015260e860020a624461790260848201526024810187905260016044820152600160a060020a039190911690634db157d09060a401602060405180830381865afa158015611b01573d6000803e3d6000fd5b505050506040513d601f19601f82011682018060405250810190611b2591906133d2565b905060008111611b6a576040518060400160405280600581526020017f4e69676874000000000000000000000000000000000000000000000000000000815250610712565b60405180604001604052806003815260200160e860020a62446179028152509695505050505050565b600080839050600081600160a060020a031663cefe23296040518163ffffffff1660e060020a028152600401602060405180830381865afa158015611bdc573d6000803e3d6000fd5b505050506040513d601f19601f82011682018060405250810190611c00919061339e565b6040517f861814e200000000000000000000000000000000000000000000000000000000815260048101869052909150600160a060020a0382169063861814e290602401602060405180830381865afa158015611c61573d6000803e3d6000fd5b505050506040513d601f19601f82011682018060405250810190611c8591906133d2565b95945050505050565b6060806000849050600081600160a060020a031663a0ed600d6040518163ffffffff1660e060020a028152600401602060405180830381865afa158015611cd9573d6000803e3d6000fd5b505050506040513d601f19601f82011682018060405250810190611cfd919061339e565b9050600082600160a060020a031663c06dea4e6040518163ffffffff1660e060020a028152600401602060405180830381865afa158015611d42573d6000803e3d6000fd5b505050506040513d601f19601f82011682018060405250810190611d66919061339e565b9050600081600160a060020a031663bca7caa088336040518363ffffffff1660e060020a028152600401611d9b9291906133bb565b602060405180830381865afa158015611db8573d6000803e3d6000fd5b505050506040513d601f19601f82011682018060405250810190611ddc91906133d2565b60405160e060020a637dcfa2910281526004810189905260248101829052909150611f9c90600160a060020a03851690637dcfa291906044015b600060405180830381865afa158015611e33573d6000803e3d6000fd5b505050506040513d6000823e601f3d908101601f19168201604052611e5b919081019061350e565b85600160a060020a031663cca369966040518163ffffffff1660e060020a028152600401602060405180830381865afa158015611e9c573d6000803e3d6000fd5b505050506040513d601f19601f82011682018060405250810190611ec0919061339e565b8987600160a060020a031663c06dea4e6040518163ffffffff1660e060020a028152600401602060405180830381865afa158015611f02573d6000803e3d6000fd5b505050506040513d601f19601f82011682018060405250810190611f26919061339e565b600160a060020a031663bca7caa08c336040518363ffffffff1660e060020a028152600401611f569291906133bb565b602060405180830381865afa158015611f73573d6000803e3d6000fd5b505050506040513d601f19601f82011682018060405250810190611f9791906133d2565b612f12565b611fb5576040518060200160405280600081525061202c565b60405160e060020a637dcfa2910281526004810188905260248101829052600160a060020a03841690637dcfa29190604401600060405180830381865afa158015612004573d6000803e3d6000fd5b505050506040513d6000823e601f3d908101601f1916820160405261202c919081019061350e565b60405160e060020a639c220647028152600481018990526024810183905290965061206a90600160a060020a03851690639c22064790604401611e16565b61208357604051806020016040528060008152506120fa565b60405160e060020a639c2206470281526004810188905260248101829052600160a060020a03841690639c22064790604401600060405180830381865afa1580156120d2573d6000803e3d6000fd5b505050506040513d6000823e601f3d908101601f191682016040526120fa919081019061350e565b9450505050509250929050565b600080849050600081600160a060020a031663c06dea4e6040518163ffffffff1660e060020a028152600401602060405180830381865afa158015612150573d6000803e3d6000fd5b505050506040513d601f19601f82011682018060405250810190612174919061339e565b6040517fb81f6e18000000000000000000000000000000000000000000000000000000008152909150600160a060020a0382169063b81f6e18906121be90889088906004016133bb565b602060405180830381865afa1580156121db573d6000803e3d6000fd5b505050506040513d601f19601f8201168201806040525081019061071291906135b0565b6060806000849050600081600160a060020a0316633ca61a586040518163ffffffff1660e060020a028152600401600060405180830381865afa15801561224a573d6000803e3d6000fd5b505050506040513d6000823e601f3d908101601f1916820160405261227291908101906135d2565b90506000805b82518110156123315783600160a060020a031663ed3719a5888584815181106122a3576122a3613458565b60200260200101516040518363ffffffff1660e060020a0281526004016122cb9291906136b9565b602060405180830381865afa1580156122e8573d6000803e3d6000fd5b505050506040513d601f19601f8201168201806040525081019061230c91906135b0565b1561231f578161231b816136d2565b9250505b8061232981613543565b915050612278565b508061ffff1667ffffffffffffffff81111561234f5761234f61340e565b60405190808252806020026020018201604052801561238257816020015b606081526020019060019003908161236d5790505b5094508061ffff1667ffffffffffffffff8111156123a2576123a261340e565b6040519080825280602002602001820160405280156123cb578160200160208202803683370190505b5093506000905060005b825181101561199b5783600160a060020a031663ed3719a58885848151811061240057612400613458565b60200260200101516040518363ffffffff1660e060020a0281526004016124289291906136b9565b602060405180830381865afa158015612445573d6000803e3d6000fd5b505050506040513d601f19601f8201168201806040525081019061246991906135b0565b156125e65782818151811061248057612480613458565b6020026020010151868361ffff168151811061249e5761249e613458565b6020026020010181905250600084600160a060020a03166335e333e46040518163ffffffff1660e060020a028152600401602060405180830381865afa1580156124ec573d6000803e3d6000fd5b505050506040513d601f19601f82011682018060405250810190612510919061339e565b905080600160a060020a03166330821b9c8986858151811061253457612534613458565b60200260200101516040518363ffffffff1660e060020a02815260040161255c9291906136b9565b602060405180830381865afa158015612579573d6000803e3d6000fd5b505050506040513d601f19601f8201168201806040525081019061259d91906136f4565b600b8111156125ae576125ae61355e565b868461ffff16815181106125c4576125c4613458565b61ffff90921660209283029190910190910152826125e1816136d2565b935050505b806125f081613543565b9150506123d5565b600080600083905080600160a060020a031663108c5e146040518163ffffffff1660e060020a028152600401602060405180830381865afa158015612641573d6000803e3d6000fd5b505050506040513d601f19601f8201168201806040525081019061266591906133d2565b925080600160a060020a03166338b145df6040518163ffffffff1660e060020a028152600401602060405180830381865afa1580156126a8573d6000803e3d6000fd5b505050506040513d601f19601f820116820180604052508101906126cc91906133d2565b915050915091565b60608060606000806000879050600081600160a060020a031663a0ed600d6040518163ffffffff1660e060020a028152600401602060405180830381865afa158015612724573d6000803e3d6000fd5b505050506040513d601f19601f82011682018060405250810190612748919061339e565b9050600082600160a060020a031663c06dea4e6040518163ffffffff1660e060020a028152600401602060405180830381865afa15801561278d573d6000803e3d6000fd5b505050506040513d601f19601f820116820180604052508101906127b1919061339e565b9050600081600160a060020a031663bca7caa08b336040518363ffffffff1660e060020a0281526004016127e69291906133bb565b602060405180830381865afa158015612803573d6000803e3d6000fd5b505050506040513d601f19601f8201168201806040525081019061282791906133d2565b60405160e060020a63d27ffd0d028152600481018c90526024810182905290915061291190600160a060020a0385169063d27ffd0d90604401600060405180830381865afa15801561287d573d6000803e3d6000fd5b505050506040513d6000823e601f3d908101601f191682016040526128a5919081019061350e565b85600160a060020a031663cca369966040518163ffffffff1660e060020a028152600401602060405180830381865afa1580156128e6573d6000803e3d6000fd5b505050506040513d601f19601f8201168201806040525081019061290a919061339e565b8c84612ff7565b61292a57604051806020016040528060008152506129a1565b60405160e060020a63d27ffd0d028152600481018b905260248101829052600160a060020a0384169063d27ffd0d90604401600060405180830381865afa158015612979573d6000803e3d6000fd5b505050506040513d6000823e601f3d908101601f191682016040526129a1919081019061350e565b60405160e160020a6359eec01d028152600481018c905260248101839052909950612a8b90600160a060020a0385169063b3dd803a90604401600060405180830381865afa1580156129f7573d6000803e3d6000fd5b505050506040513d6000823e601f3d908101601f19168201604052612a1f919081019061350e565b85600160a060020a031663cca369966040518163ffffffff1660e060020a028152600401602060405180830381865afa158015612a60573d6000803e3d6000fd5b505050506040513d601f19601f82011682018060405250810190612a84919061339e565b8c8461303b565b612aa45760405180602001604052806000815250612b1b565b60405160e160020a6359eec01d028152600481018b905260248101829052600160a060020a0384169063b3dd803a90604401600060405180830381865afa158015612af3573d6000803e3d6000fd5b505050506040513d6000823e601f3d908101601f19168201604052612b1b919081019061350e565b60405160e360020a63150cfdef028152600481018c905260248101839052909850612c0590600160a060020a0385169063a867ef7890604401600060405180830381865afa158015612b71573d6000803e3d6000fd5b505050506040513d6000823e601f3d908101601f19168201604052612b99919081019061350e565b85600160a060020a031663cca369966040518163ffffffff1660e060020a028152600401602060405180830381865afa158015612bda573d6000803e3d6000fd5b505050506040513d601f19601f82011682018060405250810190612bfe919061339e565b8c84612f12565b612c1e5760405180602001604052806000815250612c95565b60405160e360020a63150cfdef028152600481018b905260248101829052600160a060020a0384169063a867ef7890604401600060405180830381865afa158015612c6d573d6000803e3d6000fd5b505050506040513d6000823e601f3d908101601f19168201604052612c95919081019061350e565b9650612d116040518060400160405280600681526020017f536869656c64000000000000000000000000000000000000000000000000000081525085600160a060020a031663cca369966040518163ffffffff1660e060020a028152600401602060405180830381865afa158015612bda573d6000803e3d6000fd5b612d1c576000612d1f565b60015b9550612d9b6040518060400160405280600881526020017f43616d707369746500000000000000000000000000000000000000000000000081525085600160a060020a031663cca369966040518163ffffffff1660e060020a028152600401602060405180830381865afa158015612bda573d6000803e3d6000fd5b612da6576000612da9565b60015b9450505050509295509295909350565b60606000839050600081600160a060020a031663c06dea4e6040518163ffffffff1660e060020a028152600401602060405180830381865afa158015612e03573d6000803e3d6000fd5b505050506040513d601f19601f82011682018060405250810190612e27919061339e565b905081600160a060020a031663d75e79808583600160a060020a031663bca7caa088336040518363ffffffff1660e060020a028152600401612e6a9291906133bb565b602060405180830381865afa158015612e87573d6000803e3d6000fd5b505050506040513d601f19601f82011682018060405250810190612eab91906133d2565b60405160e060020a63ffffffff851602815260048101929092526024820152604401600060405180830381865afa158015612eea573d6000803e3d6000fd5b505050506040513d6000823e601f3d908101601f19168201604052611c85919081019061350e565b60008084600160a060020a031663a318d45c6040518163ffffffff1660e060020a028152600401602060405180830381865afa158015612f56573d6000803e3d6000fd5b505050506040513d601f19601f82011682018060405250810190612f7a919061339e565b600160a060020a0316634db157d08786866040518463ffffffff1660e060020a028152600401612fac93929190613694565b602060405180830381865afa158015612fc9573d6000803e3d6000fd5b505050506040513d601f19601f82011682018060405250810190612fed91906133d2565b1195945050505050565b60008084600160a060020a03166345d339d96040518163ffffffff1660e060020a028152600401602060405180830381865afa158015612f56573d6000803e3d6000fd5b60008084600160a060020a031663c1cdbb3c6040518163ffffffff1660e060020a028152600401602060405180830381865afa158015612f56573d6000803e3d6000fd5b600160a060020a038116811461309457600080fd5b50565b600080604083850312156130aa57600080fd5b82356130b58161307f565b946020939093013593505050565b6000806000606084860312156130d857600080fd5b83356130e38161307f565b92506020840135915060408401356130fa8161307f565b809150509250925092565b600081518084526020808501945080840160005b8381101561313557815187529582019590820190600101613119565b509495945050505050565b602081526000610a2a6020830184613105565b60005b8381101561316e578181015183820152602001613156565b8381111561317d576000848401525b50505050565b6000815180845261319b816020860160208601613153565b601f01601f19169290920160200192915050565b6000828251808552602080860195508081830284010181860160005b848110156131f957601f198684030189526131e7838351613183565b988401989250908301906001016131cb565b5090979650505050505050565b6040815260006132196040830185613105565b8281036020840152611c8581856131af565b602081526000610a2a6020830184613183565b60408152600061325160408301856131af565b8281036020840152611c858185613105565b6040815260006132766040830185613183565b8281036020840152611c858185613183565b60808152600061329b6080830187613105565b82810360208401526132ad81876131af565b905082810360408401526132c181866131af565b905082810360608401526132d581856131af565b979650505050505050565b6040815260006132f360408301856131af565b82810360208481019190915284518083528582019282019060005b818110156131f957845161ffff168352938301939183019160010161330e565b60006020828403121561334057600080fd5b8135610a2a8161307f565b60a08152600061335e60a0830188613183565b82810360208401526133708188613183565b905082810360408401526133848187613183565b941515606084015250509015156080909101529392505050565b6000602082840312156133b057600080fd5b8151610a2a8161307f565b918252600160a060020a0316602082015260400190565b6000602082840312156133e457600080fd5b5051919050565b6000602082840312156133fd57600080fd5b815160ff81168114610a2a57600080fd5b60e060020a634e487b7102600052604160045260246000fd5b60e060020a634e487b7102600052601160045260246000fd5b6000821982111561345357613453613427565b500190565b60e060020a634e487b7102600052603260045260246000fd5b604051601f8201601f1916810167ffffffffffffffff8111828210171561349a5761349a61340e565b604052919050565b600082601f8301126134b357600080fd5b815167ffffffffffffffff8111156134cd576134cd61340e565b6134e0601f8201601f1916602001613471565b8181528460208386010111156134f557600080fd5b613506826020830160208701613153565b949350505050565b60006020828403121561352057600080fd5b815167ffffffffffffffff81111561353757600080fd5b613506848285016134a2565b600060001982141561355757613557613427565b5060010190565b60e060020a634e487b7102600052602160045260246000fd5b838152606081016007841061359f5760e060020a634e487b7102600052602160045260246000fd5b602082019390935260400152919050565b6000602082840312156135c257600080fd5b81518015158114610a2a57600080fd5b600060208083850312156135e557600080fd5b825167ffffffffffffffff808211156135fd57600080fd5b818501915085601f83011261361157600080fd5b8151818111156136235761362361340e565b838102613631858201613471565b918252838101850191858101908984111561364b57600080fd5b86860192505b83831015613687578251858111156136695760008081fd5b6136778b89838a01016134a2565b8352509186019190860190613651565b9998505050505050505050565b6060815260006136a76060830186613183565b60208301949094525060400152919050565b8281526040602082015260006135066040830184613183565b600061ffff808316818114156136ea576136ea613427565b6001019392505050565b60006020828403121561370657600080fd5b8151600c8110610a2a57600080fdfe52656d6f7465204c61756e636820616e642047756964616e63652053797374656da2646970667358221220d8894f6bd5427d798fd0d9c3dee11e718c004f1da4cc136a11e27d4cf7b9285564736f6c634300080b0033",
  "immutableReferences": {},
  "source": "// SPDX-License-Identifier: GPL-3.0\npragma solidity >=0.8.0;\n\nimport \"../HexplorationBoard.sol\";\nimport \"../HexplorationZone.sol\";\nimport \"@luckymachines/game-core/contracts/src/v0.0/PlayerRegistry.sol\";\nimport \"./CharacterCard.sol\";\nimport \"../tokens/TokenInventory.sol\";\nimport \"../HexplorationQueue.sol\";\n\nlibrary GameSummary {\n    // Function called by frontent for game info\n    function boardSize(address gameBoardAddress)\n        public\n        view\n        returns (uint256 rows, uint256 columns)\n    {\n        HexplorationBoard board = HexplorationBoard(gameBoardAddress);\n        rows = board.gridHeight();\n        columns = board.gridWidth();\n    }\n\n    function isRegistered(\n        address gameBoardAddress,\n        uint256 gameID,\n        address playerAddress\n    ) public view returns (bool) {\n        HexplorationBoard board = HexplorationBoard(gameBoardAddress);\n        PlayerRegistry pr = PlayerRegistry(board.prAddress());\n        return pr.isRegistered(gameID, playerAddress);\n    }\n\n    function getPlayerID(\n        address gameBoardAddress,\n        uint256 gameID,\n        address playerAddress\n    ) public view returns (uint256 playerID) {\n        HexplorationBoard board = HexplorationBoard(gameBoardAddress);\n        PlayerRegistry pr = PlayerRegistry(board.prAddress());\n        playerID = pr.playerID(gameID, playerAddress);\n    }\n\n    function currentGameplayQueue(address gameBoardAddress, uint256 gameID)\n        public\n        view\n        returns (uint256)\n    {\n        HexplorationBoard board = HexplorationBoard(gameBoardAddress);\n        HexplorationQueue q = HexplorationQueue(board.gameplayQueue());\n        return q.queueID(gameID);\n    }\n\n    function currentPhase(address gameBoardAddress, uint256 gameID)\n        public\n        view\n        returns (string memory phase)\n    {\n        HexplorationBoard board = HexplorationBoard(gameBoardAddress);\n        TokenInventory tokens = TokenInventory(board.tokenInventory());\n\n        uint256 dayBalance = tokens.DAY_NIGHT_TOKEN().balance(\"Day\", gameID, 1);\n        phase = dayBalance > 0 ? \"Day\" : \"Night\";\n    }\n\n    function activeZones(address gameBoardAddress, uint256 gameID)\n        public\n        view\n        returns (string[] memory zones, uint16[] memory tiles)\n    {\n        HexplorationBoard board = HexplorationBoard(gameBoardAddress);\n        string[] memory allZones = board.getZoneAliases();\n\n        uint16 activeZoneCount = 0;\n        for (uint256 i = 0; i < allZones.length; i++) {\n            if (board.zoneEnabled(gameID, allZones[i])) {\n                activeZoneCount++;\n            }\n        }\n        zones = new string[](activeZoneCount);\n        tiles = new uint16[](activeZoneCount);\n\n        activeZoneCount = 0;\n        for (uint256 i = 0; i < allZones.length; i++) {\n            if (board.zoneEnabled(gameID, allZones[i])) {\n                zones[activeZoneCount] = allZones[i];\n                HexplorationZone hexZone = HexplorationZone(\n                    board.hexZoneAddress()\n                );\n                tiles[activeZoneCount] = uint16(\n                    hexZone.tile(gameID, allZones[i])\n                );\n                activeZoneCount++;\n            }\n        }\n    }\n\n    function landingSite(address gameBoardAddress, uint256 gameID)\n        public\n        view\n        returns (string memory)\n    {\n        return HexplorationBoard(gameBoardAddress).initialPlayZone(gameID);\n    }\n\n    // Functions called directly by players\n\n    function allPlayerLocations(address gameBoardAddress, uint256 gameID)\n        public\n        view\n        returns (uint256[] memory, string[] memory)\n    {\n        HexplorationBoard board = HexplorationBoard(gameBoardAddress);\n        PlayerRegistry pr = PlayerRegistry(board.prAddress());\n        uint256 totalRegistrations = pr.totalRegistrations(gameID);\n        uint256[] memory playerIDs = new uint256[](totalRegistrations);\n        string[] memory playerZones = new string[](totalRegistrations);\n        for (uint256 i = 0; i < totalRegistrations; i++) {\n            playerIDs[i] = i + 1;\n            playerZones[i] = board.currentPlayZone(gameID, i + 1);\n        }\n        return (playerIDs, playerZones);\n    }\n\n    function currentLocation(address gameBoardAddress, uint256 gameID)\n        public\n        view\n        returns (string memory)\n    {\n        HexplorationBoard board = HexplorationBoard(gameBoardAddress);\n        PlayerRegistry pr = PlayerRegistry(board.prAddress());\n        return board.currentPlayZone(gameID, pr.playerID(gameID, msg.sender));\n    }\n\n    function currentPlayerStats(address gameBoardAddress, uint256 gameID)\n        public\n        view\n        returns (\n            uint8 movement,\n            uint8 agility,\n            uint8 dexterity\n        )\n    {\n        HexplorationBoard board = HexplorationBoard(gameBoardAddress);\n        CharacterCard cc = CharacterCard(board.characterCard());\n        PlayerRegistry pr = PlayerRegistry(board.prAddress());\n        uint256 playerID = pr.playerID(gameID, msg.sender);\n        movement = cc.movement(gameID, playerID);\n        agility = cc.agility(gameID, playerID);\n        dexterity = cc.dexterity(gameID, playerID);\n    }\n\n    function currentHandInventory(address gameBoardAddress, uint256 gameID)\n        public\n        view\n        returns (string memory leftHandItem, string memory rightHandItem)\n    {\n        HexplorationBoard board = HexplorationBoard(gameBoardAddress);\n        CharacterCard cc = CharacterCard(board.characterCard());\n        PlayerRegistry pr = PlayerRegistry(board.prAddress());\n        uint256 playerID = pr.playerID(gameID, msg.sender);\n        leftHandItem = inventoryItemExists(\n            cc.leftHandItem(gameID, playerID),\n            board.tokenInventory(),\n            gameID,\n            PlayerRegistry(board.prAddress()).playerID(gameID, msg.sender)\n        )\n            ? cc.leftHandItem(gameID, playerID)\n            : \"\";\n\n        rightHandItem = inventoryItemExists(\n            cc.rightHandItem(gameID, playerID),\n            board.tokenInventory(),\n            gameID,\n            PlayerRegistry(board.prAddress()).playerID(gameID, msg.sender)\n        )\n            ? cc.rightHandItem(gameID, playerID)\n            : \"\";\n    }\n\n    function activeInventory(address gameBoardAddress, uint256 gameID)\n        public\n        view\n        returns (\n            string memory artifact,\n            string memory status,\n            string memory relic,\n            bool shield,\n            bool campsite\n        )\n    {\n        HexplorationBoard board = HexplorationBoard(gameBoardAddress);\n        CharacterCard cc = CharacterCard(board.characterCard());\n        PlayerRegistry pr = PlayerRegistry(board.prAddress());\n        uint256 playerID = pr.playerID(gameID, msg.sender);\n        artifact = inventoryArtifactExists(\n            cc.artifact(gameID, playerID),\n            board.tokenInventory(),\n            gameID,\n            playerID\n        )\n            ? cc.artifact(gameID, playerID)\n            : \"\";\n\n        status = inventoryStatusExists(\n            cc.status(gameID, playerID),\n            board.tokenInventory(),\n            gameID,\n            playerID\n        )\n            ? cc.status(gameID, playerID)\n            : \"\";\n\n        relic = inventoryItemExists(\n            cc.relic(gameID, playerID),\n            board.tokenInventory(),\n            gameID,\n            playerID\n        )\n            ? cc.relic(gameID, playerID)\n            : \"\";\n\n        shield = inventoryItemExists(\n            \"Shield\",\n            board.tokenInventory(),\n            gameID,\n            playerID\n        )\n            ? true\n            : false;\n\n        campsite = inventoryItemExists(\n            \"Campsite\",\n            board.tokenInventory(),\n            gameID,\n            playerID\n        )\n            ? true\n            : false;\n    }\n\n    function inactiveInventory(address gameBoardAddress, uint256 gameID)\n        public\n        view\n        returns (string[] memory itemTypes, uint256[] memory itemBalances)\n    {\n        HexplorationBoard board = HexplorationBoard(gameBoardAddress);\n        PlayerRegistry pr = PlayerRegistry(board.prAddress());\n        TokenInventory ti = TokenInventory(board.tokenInventory());\n        itemBalances = new uint256[](35);\n        itemTypes = new string[](35);\n        itemTypes[0] = \"Small Ammo\";\n        itemTypes[1] = \"Large Ammo\";\n        itemTypes[2] = \"Batteries\";\n        itemTypes[3] = \"Shield\";\n        itemTypes[4] = \"Portal\";\n        itemTypes[5] = \"On\";\n        itemTypes[6] = \"Off\";\n        itemTypes[7] = \"Rusty Dagger\";\n        itemTypes[8] = \"Rusty Sword\";\n        itemTypes[9] = \"Rusty Pistol\";\n        itemTypes[10] = \"Rusty Rifle\";\n        itemTypes[11] = \"Shiny Dagger\";\n        itemTypes[12] = \"Shiny Sword\";\n        itemTypes[13] = \"Shiny Pistol\";\n        itemTypes[14] = \"Shiny Rifle\";\n        itemTypes[15] = \"Laser Dagger\";\n        itemTypes[16] = \"Laser Sword\";\n        itemTypes[17] = \"Laser Pistol\";\n        itemTypes[18] = \"Laser Rifle\";\n        itemTypes[19] = \"Glow stick\";\n        itemTypes[20] = \"Flashlight\";\n        itemTypes[21] = \"Flood light\";\n        itemTypes[22] = \"Nightvision Goggles\";\n        itemTypes[23] = \"Personal Shield\";\n        itemTypes[24] = \"Bubble Shield\";\n        itemTypes[25] = \"Frag Grenade\";\n        itemTypes[26] = \"Fire Grenade\";\n        itemTypes[27] = \"Shock Grenade\";\n        itemTypes[28] = \"HE Mortar\";\n        itemTypes[29] = \"Incendiary Mortar\";\n        itemTypes[30] = \"EMP Mortar\";\n        itemTypes[31] = \"Power Glove\";\n        itemTypes[32] = \"Remote Launch and Guidance System\";\n        itemTypes[33] = \"Teleporter Pack\";\n        itemTypes[34] = \"Campsite\";\n        uint256 playerID = pr.playerID(gameID, msg.sender);\n        if (ti.holdsToken(playerID, TokenInventory.Token.Item, gameID)) {\n            Item itemToken = ti.ITEM_TOKEN();\n            string[] memory types = itemToken.getTokenTypes();\n            for (uint256 i = 0; i < itemBalances.length; i++) {\n                itemTypes[i] = types[i];\n                itemBalances[i] = itemToken.balance(types[i], gameID, playerID);\n            }\n        }\n        // uint256 campsiteBalance = ti.ITEM_TOKEN().balance(\n        //     \"Campsite\",\n        //     gameID,\n        //     playerID\n        // );\n        // itemBalances[34] = campsiteBalance;\n    }\n\n    // Internal Stuff\n    function inventoryItemExists(\n        string memory tokenType,\n        address inventoryAddress,\n        uint256 gameID,\n        uint256 holderID\n    ) internal view returns (bool) {\n        return\n            TokenInventory(inventoryAddress).ITEM_TOKEN().balance(\n                tokenType,\n                gameID,\n                holderID\n            ) > 0;\n    }\n\n    function inventoryArtifactExists(\n        string memory tokenType,\n        address inventoryAddress,\n        uint256 gameID,\n        uint256 holderID\n    ) internal view returns (bool) {\n        return\n            TokenInventory(inventoryAddress).ARTIFACT_TOKEN().balance(\n                tokenType,\n                gameID,\n                holderID\n            ) > 0;\n    }\n\n    function inventoryStatusExists(\n        string memory tokenType,\n        address inventoryAddress,\n        uint256 gameID,\n        uint256 holderID\n    ) internal view returns (bool) {\n        return\n            TokenInventory(inventoryAddress).PLAYER_STATUS_TOKEN().balance(\n                tokenType,\n                gameID,\n                holderID\n            ) > 0;\n    }\n\n    // TODO:\n    // Functions to complete\n\n    function isAtCampsite(address gameBoardAddress, uint256 gameID)\n        public\n        view\n        returns (bool)\n    {}\n\n    function activeAction(address gameBoardAddress, uint256 gameID)\n        public\n        view\n        returns (string memory action)\n    {}\n\n    function lastPlayerActions(address gameBoardAddress, uint256 gameID)\n        public\n        returns (\n            uint256[] memory playerIDs,\n            string[] memory dayTimeActionEffect,\n            string[] memory activeActionEffect,\n            string[] memory currentActiveAction\n        )\n    {\n        // returns\n        // playerIDs\n        // dayTimeActionEffect\n        // activeActionEffect\n        // currentActiveAction\n    }\n\n    function getAvailableGameIDs() public view returns (uint256[] memory) {\n        // TODO: return available game IDs\n    }\n}\n",
  "sourcePath": "/Users/max/demo/hexploration/contracts/state/GameSummary.sol",
  "compiler": {
    "name": "solc",
    "version": "0.8.11+commit.d7f03943.Emscripten.clang"
  },
  "schemaVersion": "3.4.2",
  "updatedAt": "2022-05-26T21:20:41.080Z",
  "networkType": "ethereum",
  "devdoc": {
    "kind": "dev",
    "methods": {},
    "version": 1
  },
  "userdoc": {
    "kind": "user",
    "methods": {},
    "version": 1
  }
}