{
  "contractName": "GameBoard",
  "abi": [
    {
      "inputs": [
        {
          "internalType": "address",
          "name": "adminAddress",
          "type": "address"
        }
      ],
      "stateMutability": "nonpayable",
      "type": "constructor"
    },
    {
      "anonymous": false,
      "inputs": [
        {
          "indexed": true,
          "internalType": "bytes32",
          "name": "role",
          "type": "bytes32"
        },
        {
          "indexed": true,
          "internalType": "bytes32",
          "name": "previousAdminRole",
          "type": "bytes32"
        },
        {
          "indexed": true,
          "internalType": "bytes32",
          "name": "newAdminRole",
          "type": "bytes32"
        }
      ],
      "name": "RoleAdminChanged",
      "type": "event"
    },
    {
      "anonymous": false,
      "inputs": [
        {
          "indexed": true,
          "internalType": "bytes32",
          "name": "role",
          "type": "bytes32"
        },
        {
          "indexed": true,
          "internalType": "address",
          "name": "account",
          "type": "address"
        },
        {
          "indexed": true,
          "internalType": "address",
          "name": "sender",
          "type": "address"
        }
      ],
      "name": "RoleGranted",
      "type": "event"
    },
    {
      "anonymous": false,
      "inputs": [
        {
          "indexed": true,
          "internalType": "bytes32",
          "name": "role",
          "type": "bytes32"
        },
        {
          "indexed": true,
          "internalType": "address",
          "name": "account",
          "type": "address"
        },
        {
          "indexed": true,
          "internalType": "address",
          "name": "sender",
          "type": "address"
        }
      ],
      "name": "RoleRevoked",
      "type": "event"
    },
    {
      "inputs": [],
      "name": "DEFAULT_ADMIN_ROLE",
      "outputs": [
        {
          "internalType": "bytes32",
          "name": "",
          "type": "bytes32"
        }
      ],
      "stateMutability": "view",
      "type": "function"
    },
    {
      "inputs": [],
      "name": "FACTORY_ROLE",
      "outputs": [
        {
          "internalType": "bytes32",
          "name": "",
          "type": "bytes32"
        }
      ],
      "stateMutability": "view",
      "type": "function"
    },
    {
      "inputs": [],
      "name": "GAME_KEEPER_ROLE",
      "outputs": [
        {
          "internalType": "bytes32",
          "name": "",
          "type": "bytes32"
        }
      ],
      "stateMutability": "view",
      "type": "function"
    },
    {
      "inputs": [],
      "name": "GAME_MASTER_ROLE",
      "outputs": [
        {
          "internalType": "bytes32",
          "name": "",
          "type": "bytes32"
        }
      ],
      "stateMutability": "view",
      "type": "function"
    },
    {
      "inputs": [],
      "name": "MAX_BATCH_SIZE",
      "outputs": [
        {
          "internalType": "uint256",
          "name": "",
          "type": "uint256"
        }
      ],
      "stateMutability": "view",
      "type": "function"
    },
    {
      "inputs": [],
      "name": "PLAY_ZONE_ROLE",
      "outputs": [
        {
          "internalType": "bytes32",
          "name": "",
          "type": "bytes32"
        }
      ],
      "stateMutability": "view",
      "type": "function"
    },
    {
      "inputs": [
        {
          "internalType": "uint256",
          "name": "",
          "type": "uint256"
        },
        {
          "internalType": "uint256",
          "name": "",
          "type": "uint256"
        }
      ],
      "name": "currentPlayZone",
      "outputs": [
        {
          "internalType": "string",
          "name": "",
          "type": "string"
        }
      ],
      "stateMutability": "view",
      "type": "function"
    },
    {
      "inputs": [
        {
          "internalType": "uint256",
          "name": "",
          "type": "uint256"
        },
        {
          "internalType": "uint256",
          "name": "",
          "type": "uint256"
        }
      ],
      "name": "entryQueue",
      "outputs": [
        {
          "internalType": "uint256",
          "name": "",
          "type": "uint256"
        }
      ],
      "stateMutability": "view",
      "type": "function"
    },
    {
      "inputs": [
        {
          "internalType": "uint256",
          "name": "",
          "type": "uint256"
        }
      ],
      "name": "gameState",
      "outputs": [
        {
          "internalType": "uint256",
          "name": "",
          "type": "uint256"
        }
      ],
      "stateMutability": "view",
      "type": "function"
    },
    {
      "inputs": [
        {
          "internalType": "bytes32",
          "name": "role",
          "type": "bytes32"
        }
      ],
      "name": "getRoleAdmin",
      "outputs": [
        {
          "internalType": "bytes32",
          "name": "",
          "type": "bytes32"
        }
      ],
      "stateMutability": "view",
      "type": "function"
    },
    {
      "inputs": [
        {
          "internalType": "bytes32",
          "name": "role",
          "type": "bytes32"
        },
        {
          "internalType": "uint256",
          "name": "index",
          "type": "uint256"
        }
      ],
      "name": "getRoleMember",
      "outputs": [
        {
          "internalType": "address",
          "name": "",
          "type": "address"
        }
      ],
      "stateMutability": "view",
      "type": "function"
    },
    {
      "inputs": [
        {
          "internalType": "bytes32",
          "name": "role",
          "type": "bytes32"
        }
      ],
      "name": "getRoleMemberCount",
      "outputs": [
        {
          "internalType": "uint256",
          "name": "",
          "type": "uint256"
        }
      ],
      "stateMutability": "view",
      "type": "function"
    },
    {
      "inputs": [
        {
          "internalType": "bytes32",
          "name": "role",
          "type": "bytes32"
        },
        {
          "internalType": "address",
          "name": "account",
          "type": "address"
        }
      ],
      "name": "grantRole",
      "outputs": [],
      "stateMutability": "nonpayable",
      "type": "function"
    },
    {
      "inputs": [
        {
          "internalType": "bytes32",
          "name": "role",
          "type": "bytes32"
        },
        {
          "internalType": "address",
          "name": "account",
          "type": "address"
        }
      ],
      "name": "hasRole",
      "outputs": [
        {
          "internalType": "bool",
          "name": "",
          "type": "bool"
        }
      ],
      "stateMutability": "view",
      "type": "function"
    },
    {
      "inputs": [
        {
          "internalType": "uint256",
          "name": "",
          "type": "uint256"
        }
      ],
      "name": "lastEntryPlayerID",
      "outputs": [
        {
          "internalType": "uint256",
          "name": "",
          "type": "uint256"
        }
      ],
      "stateMutability": "view",
      "type": "function"
    },
    {
      "inputs": [
        {
          "internalType": "uint256",
          "name": "",
          "type": "uint256"
        },
        {
          "internalType": "string",
          "name": "",
          "type": "string"
        },
        {
          "internalType": "uint256",
          "name": "",
          "type": "uint256"
        }
      ],
      "name": "playZoneInputs",
      "outputs": [
        {
          "internalType": "string",
          "name": "",
          "type": "string"
        }
      ],
      "stateMutability": "view",
      "type": "function"
    },
    {
      "inputs": [
        {
          "internalType": "uint256",
          "name": "",
          "type": "uint256"
        },
        {
          "internalType": "string",
          "name": "",
          "type": "string"
        },
        {
          "internalType": "uint256",
          "name": "",
          "type": "uint256"
        }
      ],
      "name": "playZoneOutputs",
      "outputs": [
        {
          "internalType": "string",
          "name": "",
          "type": "string"
        }
      ],
      "stateMutability": "view",
      "type": "function"
    },
    {
      "inputs": [
        {
          "internalType": "uint256",
          "name": "",
          "type": "uint256"
        },
        {
          "internalType": "uint256",
          "name": "",
          "type": "uint256"
        }
      ],
      "name": "playZones",
      "outputs": [
        {
          "internalType": "string",
          "name": "",
          "type": "string"
        }
      ],
      "stateMutability": "view",
      "type": "function"
    },
    {
      "inputs": [
        {
          "internalType": "uint256",
          "name": "",
          "type": "uint256"
        }
      ],
      "name": "playerRegistry",
      "outputs": [
        {
          "internalType": "uint256",
          "name": "",
          "type": "uint256"
        }
      ],
      "stateMutability": "view",
      "type": "function"
    },
    {
      "inputs": [
        {
          "internalType": "bytes32",
          "name": "role",
          "type": "bytes32"
        },
        {
          "internalType": "address",
          "name": "account",
          "type": "address"
        }
      ],
      "name": "renounceRole",
      "outputs": [],
      "stateMutability": "nonpayable",
      "type": "function"
    },
    {
      "inputs": [
        {
          "internalType": "bytes32",
          "name": "role",
          "type": "bytes32"
        },
        {
          "internalType": "address",
          "name": "account",
          "type": "address"
        }
      ],
      "name": "revokeRole",
      "outputs": [],
      "stateMutability": "nonpayable",
      "type": "function"
    },
    {
      "inputs": [
        {
          "internalType": "bytes4",
          "name": "interfaceId",
          "type": "bytes4"
        }
      ],
      "name": "supportsInterface",
      "outputs": [
        {
          "internalType": "bool",
          "name": "",
          "type": "bool"
        }
      ],
      "stateMutability": "view",
      "type": "function"
    },
    {
      "inputs": [
        {
          "internalType": "uint256",
          "name": "",
          "type": "uint256"
        },
        {
          "internalType": "string",
          "name": "",
          "type": "string"
        }
      ],
      "name": "zoneAlias",
      "outputs": [
        {
          "internalType": "address",
          "name": "",
          "type": "address"
        }
      ],
      "stateMutability": "view",
      "type": "function"
    },
    {
      "inputs": [],
      "name": "prAddress",
      "outputs": [
        {
          "internalType": "address",
          "name": "",
          "type": "address"
        }
      ],
      "stateMutability": "view",
      "type": "function"
    },
    {
      "inputs": [
        {
          "internalType": "address",
          "name": "_playerRegistry",
          "type": "address"
        },
        {
          "internalType": "address",
          "name": "_gameRegistry",
          "type": "address"
        }
      ],
      "name": "createGame",
      "outputs": [
        {
          "internalType": "uint256",
          "name": "gameID",
          "type": "uint256"
        }
      ],
      "stateMutability": "nonpayable",
      "type": "function"
    },
    {
      "inputs": [
        {
          "internalType": "address",
          "name": "_playerRegistry",
          "type": "address"
        },
        {
          "internalType": "address",
          "name": "_gameRegistry",
          "type": "address"
        },
        {
          "internalType": "address[]",
          "name": "playZoneAddresses",
          "type": "address[]"
        },
        {
          "internalType": "string[]",
          "name": "zoneAliases",
          "type": "string[]"
        }
      ],
      "name": "createGame",
      "outputs": [
        {
          "internalType": "uint256",
          "name": "gameID",
          "type": "uint256"
        }
      ],
      "stateMutability": "nonpayable",
      "type": "function"
    },
    {
      "inputs": [
        {
          "internalType": "address",
          "name": "factoryAddress",
          "type": "address"
        }
      ],
      "name": "addFactory",
      "outputs": [],
      "stateMutability": "nonpayable",
      "type": "function"
    },
    {
      "inputs": [
        {
          "internalType": "address",
          "name": "factoryAddress",
          "type": "address"
        }
      ],
      "name": "isFactory",
      "outputs": [
        {
          "internalType": "bool",
          "name": "factoryIsAuthorized",
          "type": "bool"
        }
      ],
      "stateMutability": "view",
      "type": "function"
    },
    {
      "inputs": [
        {
          "internalType": "address[]",
          "name": "playZoneAddresses",
          "type": "address[]"
        },
        {
          "internalType": "string[]",
          "name": "zoneAliases",
          "type": "string[]"
        },
        {
          "internalType": "uint256",
          "name": "gameID",
          "type": "uint256"
        }
      ],
      "name": "addZones",
      "outputs": [],
      "stateMutability": "nonpayable",
      "type": "function"
    },
    {
      "inputs": [
        {
          "internalType": "address",
          "name": "keeperAddress",
          "type": "address"
        }
      ],
      "name": "addKeeper",
      "outputs": [],
      "stateMutability": "nonpayable",
      "type": "function"
    },
    {
      "inputs": [
        {
          "internalType": "uint256",
          "name": "gameID",
          "type": "uint256"
        }
      ],
      "name": "startGame",
      "outputs": [],
      "stateMutability": "nonpayable",
      "type": "function"
    },
    {
      "inputs": [],
      "name": "needsUpdate",
      "outputs": [
        {
          "internalType": "bool",
          "name": "doesNeedUpdate",
          "type": "bool"
        }
      ],
      "stateMutability": "view",
      "type": "function"
    },
    {
      "inputs": [],
      "name": "runUpdate",
      "outputs": [],
      "stateMutability": "nonpayable",
      "type": "function"
    },
    {
      "inputs": [],
      "name": "cleanQueue",
      "outputs": [],
      "stateMutability": "nonpayable",
      "type": "function"
    },
    {
      "inputs": [
        {
          "internalType": "uint256",
          "name": "gameID",
          "type": "uint256"
        }
      ],
      "name": "getOverflowQueue",
      "outputs": [
        {
          "internalType": "uint256[]",
          "name": "",
          "type": "uint256[]"
        }
      ],
      "stateMutability": "view",
      "type": "function"
    },
    {
      "inputs": [
        {
          "internalType": "uint256",
          "name": "gameID",
          "type": "uint256"
        }
      ],
      "name": "getPlayZones",
      "outputs": [
        {
          "internalType": "string[]",
          "name": "",
          "type": "string[]"
        }
      ],
      "stateMutability": "view",
      "type": "function"
    },
    {
      "inputs": [
        {
          "internalType": "uint256",
          "name": "gameID",
          "type": "uint256"
        },
        {
          "internalType": "string",
          "name": "_zoneAlias",
          "type": "string"
        }
      ],
      "name": "getInputs",
      "outputs": [
        {
          "internalType": "string[]",
          "name": "zoneInputs",
          "type": "string[]"
        }
      ],
      "stateMutability": "view",
      "type": "function"
    },
    {
      "inputs": [
        {
          "internalType": "uint256",
          "name": "gameID",
          "type": "uint256"
        },
        {
          "internalType": "string",
          "name": "_zoneAlias",
          "type": "string"
        }
      ],
      "name": "getOutputs",
      "outputs": [
        {
          "internalType": "string[]",
          "name": "zoneOutputs",
          "type": "string[]"
        }
      ],
      "stateMutability": "view",
      "type": "function"
    },
    {
      "inputs": [
        {
          "internalType": "uint256",
          "name": "gameID",
          "type": "uint256"
        },
        {
          "internalType": "string[2][]",
          "name": "connections",
          "type": "string[2][]"
        }
      ],
      "name": "addZoneConnections",
      "outputs": [],
      "stateMutability": "nonpayable",
      "type": "function"
    },
    {
      "inputs": [
        {
          "internalType": "uint256",
          "name": "gameID",
          "type": "uint256"
        },
        {
          "internalType": "string[]",
          "name": "inputAliases",
          "type": "string[]"
        },
        {
          "internalType": "uint256[]",
          "name": "inputs",
          "type": "uint256[]"
        },
        {
          "internalType": "string[]",
          "name": "outputAliases",
          "type": "string[]"
        },
        {
          "internalType": "uint256[]",
          "name": "outputs",
          "type": "uint256[]"
        }
      ],
      "name": "removeZoneConnections",
      "outputs": [],
      "stateMutability": "nonpayable",
      "type": "function"
    },
    {
      "inputs": [
        {
          "internalType": "uint256",
          "name": "gameID",
          "type": "uint256"
        },
        {
          "internalType": "address",
          "name": "playerAddress",
          "type": "address"
        },
        {
          "internalType": "uint256",
          "name": "pathIndex",
          "type": "uint256"
        }
      ],
      "name": "exitToPath",
      "outputs": [
        {
          "internalType": "bool",
          "name": "exitSuccess",
          "type": "bool"
        }
      ],
      "stateMutability": "nonpayable",
      "type": "function"
    },
    {
      "inputs": [
        {
          "internalType": "uint256",
          "name": "gameID",
          "type": "uint256"
        },
        {
          "internalType": "address",
          "name": "playerAddress",
          "type": "address"
        },
        {
          "internalType": "string",
          "name": "_zoneAlias",
          "type": "string"
        }
      ],
      "name": "playerEnteredZone",
      "outputs": [],
      "stateMutability": "nonpayable",
      "type": "function"
    },
    {
      "inputs": [
        {
          "internalType": "uint256",
          "name": "gameID",
          "type": "uint256"
        },
        {
          "internalType": "address[]",
          "name": "playerAddresses",
          "type": "address[]"
        },
        {
          "internalType": "uint256[]",
          "name": "pathIndices",
          "type": "uint256[]"
        },
        {
          "internalType": "uint256",
          "name": "transitID",
          "type": "uint256"
        }
      ],
      "name": "queueExitToPaths",
      "outputs": [],
      "stateMutability": "nonpayable",
      "type": "function"
    },
    {
      "inputs": [
        {
          "internalType": "uint256",
          "name": "transitID",
          "type": "uint256"
        }
      ],
      "name": "startTransit",
      "outputs": [],
      "stateMutability": "nonpayable",
      "type": "function"
    },
    {
      "inputs": [
        {
          "internalType": "uint256",
          "name": "transitID",
          "type": "uint256"
        }
      ],
      "name": "_progressTransit",
      "outputs": [],
      "stateMutability": "nonpayable",
      "type": "function"
    }
  ],
  "bytecode": "0x60806040523480156200001157600080fd5b50604051620037c1380380620037c1833981016040819052620000349162000248565b6200004a60008264010000000062000086810204565b6200007f7f1d93c87416ca7b54f0fb8323167b72760e8e2ec93d48660953897a150f97a8b48264010000000062000086810204565b506200027a565b6200009b82826401000000006200009f810204565b5050565b620000b9828264010000000062001a0d620000e682021704565b6000828152600160205260409020620000e1908264010000000062001a916200018282021704565b505050565b620000fb8282640100000000620001ab810204565b6200009b57600082815260208181526040808320600160a060020a03851684529091529020805460ff191660011790556200013e640100000000620001d4810204565b600160a060020a031681600160a060020a0316837f2f8788117e7eff1d82e926ec794901d17c78024a50270940304540a733656f0d60405160405180910390a45050565b6000620001a283600160a060020a038416640100000000620001d8810204565b90505b92915050565b600091825260208281526040808420600160a060020a0393909316845291905290205460ff1690565b3390565b6000620001ef838364010000000062000230810204565b6200022757508154600181810184556000848152602080822090930184905584548482528286019093526040902091909155620001a5565b506000620001a5565b60009081526001919091016020526040902054151590565b6000602082840312156200025b57600080fd5b8151600160a060020a03811681146200027357600080fd5b9392505050565b613537806200028a6000396000f3fe608060405234801561001057600080fd5b50600436106102835760003560e060020a900480639f6c401711610160578063cd1ec7f2116100d2578063d75e79801161008b578063d75e7980146105ff578063d91413ba14610612578063e309203f14610625578063e5ed1d591461063a578063f643b8fd1461064d578063fa9f34381461066057600080fd5b8063cd1ec7f214610587578063cfdbf2541461059c578063d1e18d26146105a4578063d2d6756b146105ac578063d3fb7289146105cc578063d547741f146105ec57600080fd5b8063ad1def1e11610124578063ad1def1e14610528578063b2df0ca214610376578063b40c89df1461053d578063babdeefa14610550578063c06dea4e14610563578063ca15c8731461057457600080fd5b80639f6c4017146104c7578063a217fddf146104da578063a4f9c9df146104e2578063a6f979ff146104f5578063aab2aeb81461050857600080fd5b80632f2ff15d116101f957806351709a73116101bd57806351709a73146104555780636b6ec869146104685780637cc75d1c1461047b5780639010d07c1461048e57806391d14854146104a15780639eb356cb146104b457600080fd5b80632f2ff15d146103f4578063346c94091461040757806336568abe1461040f5780634032b72b146104225780634e0e1a3e1461043557600080fd5b8063190060181161024b5780631900601814610363578063194f2a3614610378578063248a9ca31461039857806329678756146103bb57806329ce1ec5146103ce5780632c47669a146103e157600080fd5b806301ffc9a71461028857806304a0fb17146102b05780630f04ba67146102d3578063153a7590146102e657806317d7e83314610343575b600080fd5b61029b6102963660046127f6565b610673565b60405190151581526020015b60405180910390f35b6102c56000805160206134c283398151915281565b6040519081526020016102a7565b61029b6102e1366004612835565b6106b7565b61032b6102f4366004612935565b60076020908152600092835260409092208151808301840180519281529084019290930191909120915254600160a060020a031681565b604051600160a060020a0390911681526020016102a7565b61035661035136600461297c565b6106d1565b6040516102a791906129f6565b610376610371366004612b12565b61078a565b005b61038b610386366004612935565b6108d6565b6040516102a79190612bc9565b6102c56103a6366004612c2a565b60009081526020819052604090206001015490565b6103766103c9366004612ca4565b6109df565b6103766103dc366004612835565b6109fe565b6103766103ef366004612d19565b610a25565b610376610402366004612d86565b610a72565b61029b610a9c565b61037661041d366004612d86565b610aed565b610376610430366004612835565b610b78565b6102c5610443366004612c2a565b60046020526000908152604090205481565b610356610463366004612db6565b610ba8565b61038b610476366004612935565b610bfc565b6102c561048936600461297c565b610cf9565b61032b61049c36600461297c565b610d2a565b61029b6104af366004612d86565b610d49565b61029b6104c2366004612df5565b610d72565b6103766104d5366004612c2a565b6111bf565b6102c5600081565b6103766104f0366004612c2a565b6111d7565b6102c5610503366004612e2d565b6111ef565b6102c5610516366004612c2a565b600a6020526000908152604090205481565b6102c56000805160206134a283398151915281565b61035661054b366004612db6565b6112d4565b61038b61055e366004612c2a565b61130b565b600254600160a060020a031661032b565b6102c5610582366004612c2a565b6113f7565b6102c560008051602061348283398151915281565b6102c560c881565b61037661140e565b6102c56105ba366004612c2a565b60056020526000908152604090205481565b6105df6105da366004612c2a565b611514565b6040516102a79190612e5b565b6103766105fa366004612d86565b611576565b61035661060d36600461297c565b61159b565b6102c5610620366004612e9f565b6115bf565b6102c56000805160206134e283398151915281565b610376610648366004612c2a565b6116e3565b61037661065b366004612f28565b611731565b61037661066e366004613039565b611932565b6000600160e060020a031982167f5a05180f0000000000000000000000000000000000000000000000000000000014806106b157506106b182611aa6565b92915050565b60006106b16000805160206134c283398151915283610d49565b600660205281600052604060002081815481106106ed57600080fd5b9060005260206000200160009150915050805461070990613092565b80601f016020809104026020016040519081016040528092919081815260200182805461073590613092565b80156107825780601f1061075757610100808354040283529160200191610782565b820191906000526020600020905b81548152906001019060200180831161076557829003601f168201915b505050505081565b6000805160206134a28339815191526107a281611b0d565b81518451146107fb5760405160e560020a62461bcd02815260206004820181905260248201527f696e70757473202f206f757470757473206c656e677468206d69736d6174636860448201526064015b60405180910390fd5b610806868686611b1a565b6108555760405160e560020a62461bcd02815260206004820152600e60248201527f696e7075747320696e76616c696400000000000000000000000000000000000060448201526064016107f2565b610860868484611bbd565b6108af5760405160e560020a62461bcd02815260206004820152600f60248201527f6f75747075747320696e76616c6964000000000000000000000000000000000060448201526064016107f2565b60005b84518110156108cd57806108c5816130e9565b9150506108b2565b50505050505050565b606060086000848152602001908152602001600020826040516108f99190613104565b9081526020016040518091039020805480602002602001604051908101604052809291908181526020016000905b828210156109d357838290600052602060002001805461094690613092565b80601f016020809104026020016040519081016040528092919081815260200182805461097290613092565b80156109bf5780601f10610994576101008083540402835291602001916109bf565b820191906000526020600020905b8154815290600101906020018083116109a257829003601f168201915b505050505081526020019060010190610927565b50505050905092915050565b6000805160206134828339815191526109f781611b0d565b5050505050565b6000610a0981611b0d565b610a216000805160206134c283398151915283611c58565b5050565b6000805160206134a2833981519152610a3d81611b0d565b8251845114610a615760405160e560020a62461bcd0281526004016107f290613120565b610a6c848484611c62565b50505050565b600082815260208190526040902060010154610a8d81611b0d565b610a978383611dc1565b505050565b6000805b600354811015610ae95760038181548110610abd57610abd61317d565b9060005260206000200154600014610ad757600191505090565b80610ae1816130e9565b915050610aa0565b5090565b600160a060020a0381163314610b6e5760405160e560020a62461bcd02815260206004820152602f60248201527f416363657373436f6e74726f6c3a2063616e206f6e6c792072656e6f756e636560448201527f20726f6c657320666f722073656c66000000000000000000000000000000000060648201526084016107f2565b610a218282611de3565b6000805160206134a2833981519152610b9081611b0d565b610a216000805160206134e283398151915283611c58565b60086020908152600084815260409020835180850183018051928152908301928501929092209152805482908110610bdf57600080fd5b906000526020600020016000925092505050805461070990613092565b60606009600084815260200190815260200160002082604051610c1f9190613104565b9081526020016040518091039020805480602002602001604051908101604052809291908181526020016000905b828210156109d3578382906000526020600020018054610c6c90613092565b80601f0160208091040260200160405190810160405280929190818152602001828054610c9890613092565b8015610ce55780601f10610cba57610100808354040283529160200191610ce5565b820191906000526020600020905b815481529060010190602001808311610cc857829003601f168201915b505050505081526020019060010190610c4d565b600c6020528160005260406000208181548110610d1557600080fd5b90600052602060002001600091509150505481565b6000828152600160205260408120610d429083611e05565b9392505050565b600091825260208281526040808420600160a060020a0393909316845291905290205460ff1690565b6002546040517fbca7caa000000000000000000000000000000000000000000000000000000000815260048101859052600160a060020a038481166024830152600092839291169063bca7caa090604401602060405180830381865afa158015610de0573d6000803e3d6000fd5b505050506040513d601f19601f82011682018060405250810190610e049190613196565b6000868152600b60209081526040808320848452909152812080549293509091610e2d90613092565b80601f0160208091040260200160405190810160405280929190818152602001828054610e5990613092565b8015610ea65780601f10610e7b57610100808354040283529160200191610ea6565b820191906000526020600020905b815481529060010190602001808311610e8957829003601f168201915b505050505090506000610eb98783610bfc565b805190915080610f0e5760405160e560020a62461bcd02815260206004820152601760248201527f4e6f206578697420706174687320617661696c61626c6500000000000000000060448201526064016107f2565b60008881526007602052604080822090519196508691610f2f908690613104565b90815260405190819003602001902054600160a060020a031690506000828811610f595787610f5c565b60005b90506000848281518110610f7257610f7261317d565b602002602001015190506000600760008d815260200190815260200160002082604051610f9f9190613104565b908152602001604051809103902060009054906101000a9004600160a060020a0316905083600160a060020a0316637caf12808c8e8a6040518463ffffffff1660e060020a028152600401610ff6939291906131af565b602060405180830381865afa158015611013573d6000803e3d6000fd5b505050506040513d601f19601f8201168201806040525081019061103791906131d7565b80156110b2575080600160a060020a031663e15b3ad08c8e856040518463ffffffff1660e060020a028152600401611071939291906131af565b602060405180830381865afa15801561108e573d6000803e3d6000fd5b505050506040513d601f19601f820116820180604052508101906110b291906131d7565b156111b05783600160a060020a03166328d7e11a8c8e8a6040518463ffffffff1660e060020a0281526004016110ea939291906131af565b600060405180830381600087803b15801561110457600080fd5b505af1158015611118573d6000803e3d6000fd5b5050505080600160a060020a03166398bd75728c8e856040518463ffffffff1660e060020a02815260040161114f939291906131af565b600060405180830381600087803b15801561116957600080fd5b505af115801561117d573d6000803e3d6000fd5b50505060008d8152600b602090815260408083208c8452825290912084516111aa93509091850190612766565b50600198505b50505050505050509392505050565b6000805160206134e2833981519152610a2181611b0d565b600080516020613482833981519152610a2181611b0d565b60006112096000805160206134c283398151915233610d49565b8061122757506112276000805160206134a283398151915233610d49565b6112465760405160e560020a62461bcd0281526004016107f2906131f9565b82600260006101000a815481600160a060020a030219169083600160a060020a0316021790555081600160a060020a0316630a75806e6040518163ffffffff1660e060020a0281526004016020604051808303816000875af11580156112b0573d6000803e3d6000fd5b505050506040513d601f19601f82011682018060405250810190610d429190613196565b60096020908152600084815260409020835180850183018051928152908301928501929092209152805482908110610bdf57600080fd5b606060066000838152602001908152602001600020805480602002602001604051908101604052809291908181526020016000905b828210156113ec57838290600052602060002001805461135f90613092565b80601f016020809104026020016040519081016040528092919081815260200182805461138b90613092565b80156113d85780601f106113ad576101008083540402835291602001916113d8565b820191906000526020600020905b8154815290600101906020018083116113bb57829003601f168201915b505050505081526020019060010190611340565b505050509050919050565b60008181526001602052604081206106b190611e11565b6000805160206134e283398151915261142681611b0d565b60008060005b60035481101561149557600381815481106114495761144961317d565b9060005260206000200154600014611483576003818154811061146e5761146e61317d565b90600052602060002001549250809150611495565b8061148d816130e9565b91505061142c565b506000828152600460205260409020546114b7576114b282611e1b565b6114d7565b600082815260046020526040902054600114156114d7576114d782611ea6565b60008281526004602052604090205460011015610a97576000600382815481106115035761150361317d565b600091825260209091200155505050565b6000818152600c602090815260409182902080548351818402810184019094528084526060939283018282801561156a57602002820191906000526020600020905b815481526020019060010190808311611556575b50505050509050919050565b60008281526020819052604090206001015461159181611b0d565b610a978383611de3565b600b6020908152600092835260408084209091529082529020805461070990613092565b60006115d96000805160206134c283398151915233610d49565b806115f757506115f76000805160206134a283398151915233610d49565b6116165760405160e560020a62461bcd0281526004016107f2906131f9565b815183511461163a5760405160e560020a62461bcd0281526004016107f290613120565b82511561164c5761164c838383611c62565b84600260006101000a815481600160a060020a030219169083600160a060020a0316021790555083600160a060020a0316630a75806e6040518163ffffffff1660e060020a0281526004016020604051808303816000875af11580156116b6573d6000803e3d6000fd5b505050506040513d601f19601f820116820180604052508101906116da9190613196565b95945050505050565b6000805160206134a28339815191526116fb81611b0d565b50600380546001810182556000919091527fc2575a0e9e593c00f959f8c92f12db2869c3395a3b0502d05e2516446f71f85b0155565b6000805160206134a283398151915261174981611b0d565b61175383836121c0565b6117a25760405160e560020a62461bcd02815260206004820152601a60248201527f6e6f7420616c6c207a6f6e6520696e64656365732076616c696400000000000060448201526064016107f2565b60005b8251811015610a6c57600084815260096020526040902083518490839081106117d0576117d061317d565b60200260200101516000600281106117ea576117ea61317d565b60200201516040516117fc9190613104565b908152602001604051809103902083828151811061181c5761181c61317d565b60200260200101516001600281106118365761183661317d565b60209081029190910151825460018101845560009384529282902081516118669491909101929190910190612766565b50600084815260086020526040902083518490839081106118895761188961317d565b60200260200101516001600281106118a3576118a361317d565b60200201516040516118b59190613104565b90815260200160405180910390208382815181106118d5576118d561317d565b60200260200101516000600281106118ef576118ef61317d565b602090810291909101518254600181018455600093845292829020815161191f9491909101929190910190612766565b508061192a816130e9565b9150506117a5565b60008051602061348283398151915261194a81611b0d565b6002546040517fbca7caa000000000000000000000000000000000000000000000000000000000815260048101869052600160a060020a038581166024830152600092169063bca7caa090604401602060405180830381865afa1580156119b5573d6000803e3d6000fd5b505050506040513d601f19601f820116820180604052508101906119d99190613196565b6000868152600b6020908152604080832084845282529091208551929350611a05929091860190612766565b505050505050565b611a178282610d49565b610a2157600082815260208181526040808320600160a060020a03851684529091529020805460ff19166001179055611a4d3390565b600160a060020a031681600160a060020a0316837f2f8788117e7eff1d82e926ec794901d17c78024a50270940304540a733656f0d60405160405180910390a45050565b6000610d4283600160a060020a0384166122cf565b6000600160e060020a031982167f7965db0b0000000000000000000000000000000000000000000000000000000014806106b157507f01ffc9a700000000000000000000000000000000000000000000000000000000600160e060020a03198316146106b1565b611b17813361231e565b50565b600160005b8251811015611bb557828181518110611b3a57611b3a61317d565b60200260200101516001611b4e9190613256565b60008681526008602052604090208551869084908110611b7057611b7061317d565b6020026020010151604051611b859190613104565b9081526040519081900360200190205410611ba35760009150611bb5565b80611bad816130e9565b915050611b1f565b509392505050565b600160005b8251811015611bb557828181518110611bdd57611bdd61317d565b60200260200101516001611bf19190613256565b60008681526009602052604090208551869084908110611c1357611c1361317d565b6020026020010151604051611c289190613104565b9081526040519081900360200190205410611c465760009150611bb5565b80611c50816130e9565b915050611bc2565b610a218282611dc1565b60005b8351811015610a6c5760008281526006602052604090208351849083908110611c9057611c9061317d565b60209081029190910181015182546001810184556000938452928290208151611cc29491909101929190910190612766565b50838181518110611cd557611cd561317d565b602002602001015160076000848152602001908152602001600020848381518110611d0257611d0261317d565b6020026020010151604051611d179190613104565b908152602001604051809103902060006101000a815481600160a060020a030219169083600160a060020a03160217905550611d7a600080516020613482833981519152858381518110611d6d57611d6d61317d565b6020026020010151610d49565b611daf57611daf600080516020613482833981519152858381518110611da257611da261317d565b6020026020010151611c58565b80611db9816130e9565b915050611c65565b611dcb8282611a0d565b6000828152600160205260409020610a979082611a91565b611ded8282612385565b6000828152600160205260409020610a9790826123ea565b6000610d4283836123ff565b60006106b1825490565b6002546040517f60c2050000000000000000000000000000000000000000000000000000000000815260048101839052600160a060020a03909116906360c2050090602401600060405180830381600087803b158015611e7a57600080fd5b505af1158015611e8e573d6000803e3d6000fd5b50505060009182525060046020526040902060019055565b60008181526007602090815260408083206006909252822080548390611ece57611ece61317d565b90600052602060002001604051611ee5919061326e565b90815260405190819003602001902054600160a060020a031690508060005b6002546040517fb77ff41100000000000000000000000000000000000000000000000000000000815260048101869052600160a060020a039091169063b77ff41190602401602060405180830381865afa158015611f66573d6000803e3d6000fd5b505050506040513d601f19601f82011682018060405250810190611f8a9190613196565b8110156121a9576000611f9e826001613256565b6002546040517ff50432540000000000000000000000000000000000000000000000000000000081526004810188905260248101839052919250600091600160a060020a039091169063f504325490604401602060405180830381865afa15801561200d573d6000803e3d6000fd5b505050506040513d601f19601f8201168201806040525081019061203191906132e0565b905083600160a060020a031663e15b3ad08288600660008b81526020019081526020016000206000815481106120695761206961317d565b906000526020600020016040518463ffffffff1660e060020a028152600401612094939291906132fd565b602060405180830381865afa1580156120b1573d6000803e3d6000fd5b505050506040513d601f19601f820116820180604052508101906120d591906131d7565b156121725783600160a060020a03166398bd75728288600660008b81526020019081526020016000206000815481106121105761211061317d565b906000526020600020016040518463ffffffff1660e060020a02815260040161213b939291906132fd565b600060405180830381600087803b15801561215557600080fd5b505af1158015612169573d6000803e3d6000fd5b50505050612194565b6000868152600c60209081526040822080546001810182559083529120018290555b505080806121a1906130e9565b915050611f04565b505050600090815260046020526040902060029055565b6000805b82518110156122c85760008481526007602052604081208451600194508590849081106121f3576121f361317d565b602002602001015160006002811061220d5761220d61317d565b602002015160405161221f9190613104565b90815260405190819003602001902054600160a060020a031614806122a85750600084815260076020526040812084518590849081106122615761226161317d565b602002602001015160016002811061227b5761227b61317d565b602002015160405161228d9190613104565b90815260405190819003602001902054600160a060020a0316145b156122b657600091506122c8565b806122c0816130e9565b9150506121c4565b5092915050565b6000818152600183016020526040812054612316575081546001818101845560008481526020808220909301849055845484825282860190935260409020919091556106b1565b5060006106b1565b6123288282610d49565b610a215761234081600160a060020a03166014612429565b61234b836020612429565b60405160200161235c92919061339a565b60408051601f198184030181529082905260e560020a62461bcd0282526107f2916004016129f6565b61238f8282610d49565b15610a2157600082815260208181526040808320600160a060020a0385168085529252808320805460ff1916905551339285917ff6391f5c32d9c69d2a47ea670b442974b53935d1edc7fd64eb21e047a839171b9190a45050565b6000610d4283600160a060020a038416612673565b60008260000182815481106124165761241661317d565b9060005260206000200154905092915050565b6060600061243883600261341b565b612443906002613256565b67ffffffffffffffff81111561245b5761245b612852565b6040519080825280601f01601f191660200182016040528015612485576020820181803683370190505b5090507f3000000000000000000000000000000000000000000000000000000000000000816000815181106124bc576124bc61317d565b60200101907effffffffffffffffffffffffffffffffffffffffffffffffffffffffffffff1916908160001a9053507f78000000000000000000000000000000000000000000000000000000000000008160018151811061251f5761251f61317d565b60200101907effffffffffffffffffffffffffffffffffffffffffffffffffffffffffffff1916908160001a905350600061255b84600261341b565b612566906001613256565b90505b6001811115612621577f303132333435363738396162636465660000000000000000000000000000000085600f16601081106125a7576125a761317d565b1a7f0100000000000000000000000000000000000000000000000000000000000000028282815181106125dc576125dc61317d565b60200101907effffffffffffffffffffffffffffffffffffffffffffffffffffffffffffff1916908160001a90535060109094049361261a8161343a565b9050612569565b508315610d425760405160e560020a62461bcd02815260206004820181905260248201527f537472696e67733a20686578206c656e67746820696e73756666696369656e7460448201526064016107f2565b6000818152600183016020526040812054801561275c576000612697600183613451565b85549091506000906126ab90600190613451565b90508181146127105760008660000182815481106126cb576126cb61317d565b90600052602060002001549050808760000184815481106126ee576126ee61317d565b6000918252602080832090910192909255918252600188019052604090208390555b855486908061272157612721613468565b6001900381819060005260206000200160009055905585600101600086815260200190815260200160002060009055600193505050506106b1565b60009150506106b1565b82805461277290613092565b90600052602060002090601f01602090048101928261279457600085556127da565b82601f106127ad57805160ff19168380011785556127da565b828001600101855582156127da579182015b828111156127da5782518255916020019190600101906127bf565b50610ae99291505b80821115610ae957600081556001016127e2565b60006020828403121561280857600080fd5b8135600160e060020a031981168114610d4257600080fd5b600160a060020a0381168114611b1757600080fd5b60006020828403121561284757600080fd5b8135610d4281612820565b60e060020a634e487b7102600052604160045260246000fd5b6040805190810167ffffffffffffffff8111828210171561288e5761288e612852565b60405290565b604051601f8201601f1916810167ffffffffffffffff811182821017156128bd576128bd612852565b604052919050565b600082601f8301126128d657600080fd5b813567ffffffffffffffff8111156128f0576128f0612852565b612903601f8201601f1916602001612894565b81815284602083860101111561291857600080fd5b816020850160208301376000918101602001919091529392505050565b6000806040838503121561294857600080fd5b82359150602083013567ffffffffffffffff81111561296657600080fd5b612972858286016128c5565b9150509250929050565b6000806040838503121561298f57600080fd5b50508035926020909101359150565b60005b838110156129b95781810151838201526020016129a1565b83811115610a6c5750506000910152565b600081518084526129e281602086016020860161299e565b601f01601f19169290920160200192915050565b602081526000610d4260208301846129ca565b600067ffffffffffffffff821115612a2357612a23612852565b5060209081020190565b600082601f830112612a3e57600080fd5b81356020612a53612a4e83612a09565b612894565b82815291810284018101918181019086841115612a6f57600080fd5b8286015b84811015612aaf57803567ffffffffffffffff811115612a935760008081fd5b612aa18986838b01016128c5565b845250918301918301612a73565b509695505050505050565b600082601f830112612acb57600080fd5b81356020612adb612a4e83612a09565b82815291810284018101918181019086841115612af757600080fd5b8286015b84811015612aaf5780358352918301918301612afb565b600080600080600060a08688031215612b2a57600080fd5b85359450602086013567ffffffffffffffff80821115612b4957600080fd5b612b5589838a01612a2d565b95506040880135915080821115612b6b57600080fd5b612b7789838a01612aba565b94506060880135915080821115612b8d57600080fd5b612b9989838a01612a2d565b93506080880135915080821115612baf57600080fd5b50612bbc88828901612aba565b9150509295509295909350565b600060208083018184528085518083526040860191506040848202870101925083870160005b82811015612c1d57603f19888603018452612c0b8583516129ca565b94509285019290850190600101612bef565b5092979650505050505050565b600060208284031215612c3c57600080fd5b5035919050565b600082601f830112612c5457600080fd5b81356020612c64612a4e83612a09565b82815291810284018101918181019086841115612c8057600080fd5b8286015b84811015612aaf578035612c9781612820565b8352918301918301612c84565b60008060008060808587031215612cba57600080fd5b84359350602085013567ffffffffffffffff80821115612cd957600080fd5b612ce588838901612c43565b94506040870135915080821115612cfb57600080fd5b50612d0887828801612aba565b949793965093946060013593505050565b600080600060608486031215612d2e57600080fd5b833567ffffffffffffffff80821115612d4657600080fd5b612d5287838801612c43565b94506020860135915080821115612d6857600080fd5b50612d7586828701612a2d565b925050604084013590509250925092565b60008060408385031215612d9957600080fd5b823591506020830135612dab81612820565b809150509250929050565b600080600060608486031215612dcb57600080fd5b83359250602084013567ffffffffffffffff811115612de957600080fd5b612d75868287016128c5565b600080600060608486031215612e0a57600080fd5b833592506020840135612e1c81612820565b929592945050506040919091013590565b60008060408385031215612e4057600080fd5b8235612e4b81612820565b91506020830135612dab81612820565b6020808252825182820181905260009190848201906040850190845b81811015612e9357835183529284019291840191600101612e77565b50909695505050505050565b60008060008060808587031215612eb557600080fd5b8435612ec081612820565b93506020850135612ed081612820565b9250604085013567ffffffffffffffff80821115612eed57600080fd5b612ef988838901612c43565b93506060870135915080821115612f0f57600080fd5b50612f1c87828801612a2d565b91505092959194509250565b60008060408385031215612f3b57600080fd5b8235915060208084013567ffffffffffffffff80821115612f5b57600080fd5b818601915086601f830112612f6f57600080fd5b8135612f7d612a4e82612a09565b81815290840283018401908481019089831115612f9957600080fd5b8585015b83811015613028578481351115612fb357600080fd5b803586018b603f820112612fc657600080fd5b612fce61286b565b808d606084011115612fdf57600080fd5b8983015b60608401811015613018578881351115612ffc57600080fd5b61300b8f8c83358701016128c5565b8352918a01918a01612fe3565b5085525050918601918601612f9d565b508096505050505050509250929050565b60008060006060848603121561304e57600080fd5b83359250602084013561306081612820565b9150604084013567ffffffffffffffff81111561307c57600080fd5b613088868287016128c5565b9150509250925092565b6002810460018216806130a657607f821691505b602082108114156130ca5760e060020a634e487b7102600052602260045260246000fd5b50919050565b60e060020a634e487b7102600052601160045260246000fd5b60006000198214156130fd576130fd6130d0565b5060010190565b6000825161311681846020870161299e565b9190910192915050565b60208082526025908201527f616464726573736573202620616c696173657320646966666572656e74206c6560408201527f6e67746873000000000000000000000000000000000000000000000000000000606082015260800190565b60e060020a634e487b7102600052603260045260246000fd5b6000602082840312156131a857600080fd5b5051919050565b600160a060020a03841681528260208201526060604082015260006116da60608301846129ca565b6000602082840312156131e957600080fd5b81518015158114610d4257600080fd5b60208082526024908201527f47616d65204d6173746572206f7220466163746f727920726f6c65207265717560408201527f6972656400000000000000000000000000000000000000000000000000000000606082015260800190565b60008219821115613269576132696130d0565b500190565b600080835461327c81613092565b6001828116801561329457600181146132a5576132d4565b60ff198416875282870194506132d4565b8760005260208060002060005b858110156132cb5781548a8201529084019082016132b2565b50505082870194505b50929695505050505050565b6000602082840312156132f257600080fd5b8151610d4281612820565b600160a060020a0384168152600060208481840152606060408401526000845461332681613092565b8060608701526080600180841660008114613348576001811461335c5761338a565b60ff1985168984015260a08901955061338a565b896000528660002060005b858110156133825781548b8201860152908301908801613367565b8a0184019650505b50939a9950505050505050505050565b7f416363657373436f6e74726f6c3a206163636f756e74200000000000000000008152600083516133d281601785016020880161299e565b7f206973206d697373696e6720726f6c6520000000000000000000000000000000601791840191820152835161340f81602884016020880161299e565b01602801949350505050565b6000816000190483118215151615613435576134356130d0565b500290565b600081613449576134496130d0565b506000190190565b600082821015613463576134636130d0565b500390565b60e060020a634e487b7102600052603160045260246000fdfe72b06b67826def9fabb513b23f7e5eb74f7ece26d25dad4006546ecf4a13763d1d93c87416ca7b54f0fb8323167b72760e8e2ec93d48660953897a150f97a8b4dfbefbf47cfe66b701d8cfdbce1de81c821590819cb07e71cb01b6602fb0ee27d017b644efdbb8827e313d7971462ef180dad8aa174c6fb8427f18caad304df7a264697066735822122013bcf37c840b1a84ccdf0fcb3c113f9d285912fcfa4e5273c19dd2a63f7fc69c64736f6c634300080b0033",
  "immutableReferences": {},
  "source": "// SPDX-License-Identifier: GPL-3.0\n\npragma solidity >=0.7.0 <0.9.0;\n\nimport \"@openzeppelin/contracts/access/AccessControlEnumerable.sol\";\nimport \"@openzeppelin/contracts/utils/Counters.sol\"; \nimport \"./PlayerRegistry.sol\";\nimport \"./GameRegistry.sol\";\nimport \"./PlayZone.sol\";\n\ncontract GameBoard is AccessControlEnumerable {\n    using Counters for Counters.Counter;\n    bytes32 public constant GAME_MASTER_ROLE = keccak256(\"GAME_MASTER_ROLE\");\n    bytes32 public constant GAME_KEEPER_ROLE = keccak256(\"GAME_KEEPER_ROLE\");\n    bytes32 public constant FACTORY_ROLE = keccak256(\"FACTORY_ROLE\");\n    bytes32 public constant PLAY_ZONE_ROLE = keccak256(\"PLAY_ZONE_ROLE\");\n    PlayerRegistry internal PLAYER_REGISTRY;\n\n    uint256 public constant MAX_BATCH_SIZE = 200;\n\n    uint256[] private _gamesNeedUpdates;\n\n    // Mappings from GameID\n    mapping(uint256 => uint256) public gameState; // 0 = start, 1=continue initializing, 2=initialized\n    mapping(uint256 => uint256) public lastEntryPlayerID;\n    // Play zones + connections\n    // playZones[gameID] = array of play zone addresses\n    // TODO:\n    // make sure these aliases work instead of addresses\n    mapping(uint256 => string[]) public playZones;\n    mapping(uint256 => mapping(string => address)) public zoneAlias; // returns address of zone alias\n    // playZoneInputs[gameID][zone alias] = array of inputs for given zone\n    mapping(uint256 => mapping(string => string[])) public playZoneInputs;\n    // playZoneOutputs[gameID][zone alias] = array of outputs for given zone\n    mapping(uint256 => mapping(string => string[])) public playZoneOutputs;\n\n    // Player Registry\n    // playerRegistry[gameID] = player registry ID for game\n    mapping(uint256 => uint256) public playerRegistry;\n\n    // Player positions\n    // currentPlayZone[gameID][playerID] = alias of zone (playZones[gameID]) player is in\n    mapping(uint256 => mapping(uint256 => string)) public currentPlayZone;\n    mapping(uint256 => uint256[]) public entryQueue; //overflow if playzone 0 cannot be entered\n\n    modifier onlyFactoryGM() {\n        require(\n            hasRole(FACTORY_ROLE, _msgSender()) ||\n                hasRole(GAME_MASTER_ROLE, _msgSender()),\n            \"Game Master or Factory role required\"\n        );\n        _;\n    }\n\n    constructor(address adminAddress) {\n        // Admin set as game master\n        // Can revoke role if desired\n        _setupRole(DEFAULT_ADMIN_ROLE, adminAddress);\n        _setupRole(GAME_MASTER_ROLE, adminAddress);\n    }\n\n    function prAddress() public view returns (address) {\n        return address(PLAYER_REGISTRY);\n    }\n\n    function createGame(\n        address _playerRegistry,\n        address _gameRegistry,\n        address[] memory playZoneAddresses,\n        string[] memory zoneAliases\n    ) public onlyFactoryGM returns (uint256 gameID) {\n        require(\n            playZoneAddresses.length == zoneAliases.length,\n            \"addresses & aliases different lengths\"\n        );\n        // first play zone is default / entry point\n        if (playZoneAddresses.length > 0) {\n            _addZones(playZoneAddresses, zoneAliases, gameID);\n        }\n        PLAYER_REGISTRY = PlayerRegistry(_playerRegistry);\n        gameID = GameRegistry(_gameRegistry).registerGame();\n    }\n\n    function createGame(address _playerRegistry, address _gameRegistry)\n        public\n        onlyFactoryGM\n        returns (uint256 gameID)\n    {\n        PLAYER_REGISTRY = PlayerRegistry(_playerRegistry);\n        gameID = GameRegistry(_gameRegistry).registerGame();\n    }\n\n    function addFactory(address factoryAddress)\n        public\n        onlyRole(DEFAULT_ADMIN_ROLE)\n    {\n        _setupRole(FACTORY_ROLE, factoryAddress);\n    }\n\n    function isFactory(address factoryAddress)\n        public\n        view\n        returns (bool factoryIsAuthorized)\n    {\n        factoryIsAuthorized = hasRole(FACTORY_ROLE, factoryAddress);\n    }\n\n    // adds zones to be used in game, only add 1 per address, use aliases for zone variations\n    function addZones(\n        address[] memory playZoneAddresses,\n        string[] memory zoneAliases,\n        uint256 gameID\n    ) public onlyRole(GAME_MASTER_ROLE) {\n        require(\n            playZoneAddresses.length == zoneAliases.length,\n            \"addresses & aliases different lengths\"\n        );\n        _addZones(playZoneAddresses, zoneAliases, gameID);\n    }\n\n    function _addZones(\n        address[] memory playZoneAddresses,\n        string[] memory zoneAliases,\n        uint256 gameID\n    ) internal {\n        for (uint256 i = 0; i < playZoneAddresses.length; i++) {\n            playZones[gameID].push(zoneAliases[i]);\n            zoneAlias[gameID][zoneAliases[i]] = playZoneAddresses[i];\n            if (!hasRole(PLAY_ZONE_ROLE, playZoneAddresses[i])) {\n                _setupRole(PLAY_ZONE_ROLE, playZoneAddresses[i]);\n            }\n        }\n    }\n\n    function addKeeper(address keeperAddress)\n        public\n        onlyRole(GAME_MASTER_ROLE)\n    {\n        _setupRole(GAME_KEEPER_ROLE, keeperAddress);\n    }\n\n    function startGame(uint256 gameID) public onlyRole(GAME_MASTER_ROLE) {\n        // lock registration\n        //_startGameInit(gameID);\n        // set needs loop\n        _gamesNeedUpdates.push(gameID);\n    }\n\n    function needsUpdate() public view returns (bool doesNeedUpdate) {\n        doesNeedUpdate = false;\n        for (uint256 i = 0; i < _gamesNeedUpdates.length; i++) {\n            if (_gamesNeedUpdates[i] != 0) {\n                doesNeedUpdate = true;\n                break;\n            }\n        }\n    }\n\n    function runUpdate() public onlyRole(GAME_KEEPER_ROLE) {\n        uint256 gameToUpdate;\n        uint256 gameIndex;\n        for (uint256 i = 0; i < _gamesNeedUpdates.length; i++) {\n            if (_gamesNeedUpdates[i] != 0) {\n                gameToUpdate = _gamesNeedUpdates[i];\n                gameIndex = i;\n                break;\n            }\n        }\n        // get state of game\n        if (gameState[gameToUpdate] == 0) {\n            _startGameInit(gameToUpdate);\n        } else if (gameState[gameToUpdate] == 1) {\n            _continueGameInit(gameToUpdate);\n        }\n        // state might be updated now\n        if (gameState[gameToUpdate] > 1) {\n            _gamesNeedUpdates[gameIndex] = 0;\n        }\n        // otherwise everything is set and should be okay...\n        // TODO:\n        // check transit groups once those are enabled\n    }\n\n    function cleanQueue() public {\n        // remove 0s from queue\n    }\n\n    // game state // 0 start game, 1 continue init, 2 initialized\n    function _startGameInit(uint256 gameID) internal {\n        PLAYER_REGISTRY.lockRegistration(gameID);\n        gameState[gameID] = 1;\n    }\n\n    function _continueGameInit(uint256 gameID) internal {\n        address zoneAddress = zoneAlias[gameID][playZones[gameID][0]];\n        PlayZone pz = PlayZone(zoneAddress);\n\n        for (\n            uint256 i = 0;\n            i < PLAYER_REGISTRY.totalRegistrations(gameID);\n            i++\n        ) {\n            uint256 playerID = i + 1;\n            address playerAddress = PLAYER_REGISTRY.playerAddress(\n                gameID,\n                playerID\n            );\n            if (\n                pz.playerCanEnter(playerAddress, gameID, playZones[gameID][0])\n            ) {\n                pz.enterPlayer(playerAddress, gameID, playZones[gameID][0]);\n            } else {\n                entryQueue[gameID].push(playerID);\n            }\n        }\n\n        gameState[gameID] = 2;\n    }\n\n    function getOverflowQueue(uint256 gameID)\n        public\n        virtual\n        view\n        returns (uint256[] memory)\n    {\n        return entryQueue[gameID];\n    }\n\n    function getPlayZones(uint256 gameID)\n        public\n        virtual\n        view\n        returns (string[] memory)\n    {\n        return playZones[gameID];\n    }\n\n    function getInputs(uint256 gameID, string memory _zoneAlias)\n        public\n        virtual\n        view\n        returns (string[] memory zoneInputs)\n    {\n        zoneInputs = playZoneInputs[gameID][_zoneAlias];\n    }\n\n    function getOutputs(uint256 gameID, string memory _zoneAlias)\n        public\n        virtual\n        view\n        returns (string[] memory zoneOutputs)\n    {\n        zoneOutputs = playZoneOutputs[gameID][_zoneAlias];\n    }\n\n    function addZoneConnections(uint256 gameID, string[2][] memory connections)\n        public\n        onlyRole(GAME_MASTER_ROLE)\n    {\n        // connections = [from zone alias, to zone alias]\n        require(\n            connectionZonesValid(gameID, connections),\n            \"not all zone indeces valid\"\n        );\n        for (uint256 i = 0; i < connections.length; i++) {\n            playZoneOutputs[gameID][connections[i][0]].push(connections[i][1]);\n            playZoneInputs[gameID][connections[i][1]].push(connections[i][0]);\n        }\n    }\n\n    function removeZoneConnections(\n        uint256 gameID,\n        string[] memory inputAliases,\n        uint256[] memory inputs,\n        string[] memory outputAliases,\n        uint256[] memory outputs\n    ) public onlyRole(GAME_MASTER_ROLE) {\n        /* This is done differently from adding zones and can break connections\n\n        Use with caution!\n\n        inputs = [zone index, input index]\n        outputs = [zone index, output index]\n        */\n        require(\n            inputs.length == outputs.length,\n            \"inputs / outputs length mismatch\"\n        );\n        require(\n            connectionInputsValid(gameID, inputAliases, inputs),\n            \"inputs invalid\"\n        );\n        require(\n            connectionOutputsValid(gameID, outputAliases, outputs),\n            \"outputs invalid\"\n        );\n        for (uint256 i = 0; i < inputs.length; i++) {\n            //TODO:\n            // remove input from zone inputs[i][0] at index inputs[i][1]\n            // remove output from zone outputs[i][0] at index outputs[i][1]\n        }\n    }\n\n    function exitToPath(\n        uint256 gameID,\n        address playerAddress,\n        uint256 pathIndex\n    ) external virtual returns (bool exitSuccess) {\n        // TODO: make sure zone calling is same as zone player is trying to exit\n        uint256 playerID = PLAYER_REGISTRY.playerID(gameID, playerAddress);\n        string memory originZoneAlias = currentPlayZone[gameID][playerID];\n        string[] memory outputs = getOutputs(gameID, originZoneAlias);\n        uint256 availablePaths = outputs.length;\n        require(availablePaths > 0, \"No exit paths available\");\n\n        exitSuccess = false;\n\n        PlayZone originPlayZone = PlayZone(zoneAlias[gameID][originZoneAlias]);\n\n        uint256 path = pathIndex > availablePaths ? 0 : pathIndex;\n        string memory destinationZoneAlias = outputs[path];\n        PlayZone destinationPlayZone = PlayZone(\n            zoneAlias[gameID][destinationZoneAlias]\n        );\n\n        if (\n            originPlayZone.playerCanExit(\n                playerAddress,\n                gameID,\n                originZoneAlias\n            ) &&\n            destinationPlayZone.playerCanEnter(\n                playerAddress,\n                gameID,\n                destinationZoneAlias\n            )\n        ) {\n            originPlayZone.exitPlayer(playerAddress, gameID, originZoneAlias);\n            destinationPlayZone.enterPlayer(\n                playerAddress,\n                gameID,\n                destinationZoneAlias\n            );\n            currentPlayZone[gameID][playerID] = destinationZoneAlias;\n            exitSuccess = true;\n        }\n    }\n\n    function playerEnteredZone(\n        uint256 gameID,\n        address playerAddress,\n        string memory _zoneAlias\n    ) external onlyRole(PLAY_ZONE_ROLE) {\n        uint256 playerID = PLAYER_REGISTRY.playerID(gameID, playerAddress);\n        currentPlayZone[gameID][playerID] = _zoneAlias;\n    }\n\n    // TODO: implement mass transit\n    // can set as many of these up as needed for mass transit\n    function queueExitToPaths(\n        uint256 gameID,\n        address[] memory playerAddresses,\n        uint256[] memory pathIndices,\n        uint256 transitID\n    ) public onlyRole(PLAY_ZONE_ROLE) {}\n\n    function startTransit(uint256 transitID) public onlyRole(PLAY_ZONE_ROLE) {}\n\n    function _progressTransit(uint256 transitID)\n        public\n        onlyRole(GAME_KEEPER_ROLE)\n    {\n        // moves group transit along, marks as complete at finish\n    }\n\n    function connectionZonesValid(\n        uint256 gameID,\n        string[2][] memory connections\n    ) internal view returns (bool isValid) {\n        // checks that all aliases passed exist\n        for (uint256 i = 0; i < connections.length; i++) {\n            isValid = true;\n            if (\n                zoneAlias[gameID][connections[i][0]] == address(0) ||\n                zoneAlias[gameID][connections[i][1]] == address(0)\n            ) {\n                isValid = false;\n                break;\n            }\n        }\n    }\n\n    function connectionInputsValid(\n        uint256 gameID,\n        string[] memory aliases,\n        uint256[] memory inputs\n    ) internal view returns (bool isValid) {\n        // checks that inputs exist\n        // inputs = [zone alias, input index]\n\n        isValid = true;\n        for (uint256 i = 0; i < inputs.length; i++) {\n            if (\n                //playZoneInputs[gameID][zone alias] = array of input aliases for given zone\n                playZoneInputs[gameID][aliases[i]].length >= inputs[i] + 1\n            ) {\n                isValid = false;\n                break;\n            }\n        }\n    }\n\n    function connectionOutputsValid(\n        uint256 gameID,\n        string[] memory aliases,\n        uint256[] memory outputs\n    ) internal view returns (bool isValid) {\n        // outputs = [zone alias, output index]\n        isValid = true;\n        for (uint256 i = 0; i < outputs.length; i++) {\n            if (playZoneOutputs[gameID][aliases[i]].length >= outputs[i] + 1) {\n                isValid = false;\n                break;\n            }\n        }\n    }\n}\n",
  "sourcePath": "@luckymachines/game-core/contracts/src/v0.0/GameBoard.sol",
  "compiler": {
    "name": "solc",
    "version": "0.8.11+commit.d7f03943.Emscripten.clang"
  },
  "schemaVersion": "3.4.4",
  "updatedAt": "2022-05-10T22:43:52.418Z",
  "devdoc": {
    "kind": "dev",
    "methods": {
      "getRoleAdmin(bytes32)": {
        "details": "Returns the admin role that controls `role`. See {grantRole} and {revokeRole}. To change a role's admin, use {_setRoleAdmin}."
      },
      "getRoleMember(bytes32,uint256)": {
        "details": "Returns one of the accounts that have `role`. `index` must be a value between 0 and {getRoleMemberCount}, non-inclusive. Role bearers are not sorted in any particular way, and their ordering may change at any point. WARNING: When using {getRoleMember} and {getRoleMemberCount}, make sure you perform all queries on the same block. See the following https://forum.openzeppelin.com/t/iterating-over-elements-on-enumerableset-in-openzeppelin-contracts/2296[forum post] for more information."
      },
      "getRoleMemberCount(bytes32)": {
        "details": "Returns the number of accounts that have `role`. Can be used together with {getRoleMember} to enumerate all bearers of a role."
      },
      "grantRole(bytes32,address)": {
        "details": "Grants `role` to `account`. If `account` had not been already granted `role`, emits a {RoleGranted} event. Requirements: - the caller must have ``role``'s admin role."
      },
      "hasRole(bytes32,address)": {
        "details": "Returns `true` if `account` has been granted `role`."
      },
      "renounceRole(bytes32,address)": {
        "details": "Revokes `role` from the calling account. Roles are often managed via {grantRole} and {revokeRole}: this function's purpose is to provide a mechanism for accounts to lose their privileges if they are compromised (such as when a trusted device is misplaced). If the calling account had been revoked `role`, emits a {RoleRevoked} event. Requirements: - the caller must be `account`."
      },
      "revokeRole(bytes32,address)": {
        "details": "Revokes `role` from `account`. If `account` had been granted `role`, emits a {RoleRevoked} event. Requirements: - the caller must have ``role``'s admin role."
      },
      "supportsInterface(bytes4)": {
        "details": "See {IERC165-supportsInterface}."
      }
    },
    "version": 1
  },
  "userdoc": {
    "kind": "user",
    "methods": {},
    "version": 1
  }
}