{
  "contractName": "GameRegistry",
  "abi": [
    {
      "inputs": [
        {
          "internalType": "address",
          "name": "adminAddress",
          "type": "address"
        }
      ],
      "stateMutability": "nonpayable",
      "type": "constructor"
    },
    {
      "anonymous": false,
      "inputs": [
        {
          "indexed": true,
          "internalType": "bytes32",
          "name": "role",
          "type": "bytes32"
        },
        {
          "indexed": true,
          "internalType": "bytes32",
          "name": "previousAdminRole",
          "type": "bytes32"
        },
        {
          "indexed": true,
          "internalType": "bytes32",
          "name": "newAdminRole",
          "type": "bytes32"
        }
      ],
      "name": "RoleAdminChanged",
      "type": "event"
    },
    {
      "anonymous": false,
      "inputs": [
        {
          "indexed": true,
          "internalType": "bytes32",
          "name": "role",
          "type": "bytes32"
        },
        {
          "indexed": true,
          "internalType": "address",
          "name": "account",
          "type": "address"
        },
        {
          "indexed": true,
          "internalType": "address",
          "name": "sender",
          "type": "address"
        }
      ],
      "name": "RoleGranted",
      "type": "event"
    },
    {
      "anonymous": false,
      "inputs": [
        {
          "indexed": true,
          "internalType": "bytes32",
          "name": "role",
          "type": "bytes32"
        },
        {
          "indexed": true,
          "internalType": "address",
          "name": "account",
          "type": "address"
        },
        {
          "indexed": true,
          "internalType": "address",
          "name": "sender",
          "type": "address"
        }
      ],
      "name": "RoleRevoked",
      "type": "event"
    },
    {
      "inputs": [],
      "name": "DEFAULT_ADMIN_ROLE",
      "outputs": [
        {
          "internalType": "bytes32",
          "name": "",
          "type": "bytes32"
        }
      ],
      "stateMutability": "view",
      "type": "function"
    },
    {
      "inputs": [],
      "name": "GAME_BOARD_ROLE",
      "outputs": [
        {
          "internalType": "bytes32",
          "name": "",
          "type": "bytes32"
        }
      ],
      "stateMutability": "view",
      "type": "function"
    },
    {
      "inputs": [
        {
          "internalType": "uint256",
          "name": "",
          "type": "uint256"
        }
      ],
      "name": "gameBoard",
      "outputs": [
        {
          "internalType": "address",
          "name": "",
          "type": "address"
        }
      ],
      "stateMutability": "view",
      "type": "function"
    },
    {
      "inputs": [
        {
          "internalType": "address",
          "name": "",
          "type": "address"
        },
        {
          "internalType": "uint256",
          "name": "",
          "type": "uint256"
        }
      ],
      "name": "gameIDs",
      "outputs": [
        {
          "internalType": "uint256",
          "name": "",
          "type": "uint256"
        }
      ],
      "stateMutability": "view",
      "type": "function"
    },
    {
      "inputs": [
        {
          "internalType": "bytes32",
          "name": "role",
          "type": "bytes32"
        }
      ],
      "name": "getRoleAdmin",
      "outputs": [
        {
          "internalType": "bytes32",
          "name": "",
          "type": "bytes32"
        }
      ],
      "stateMutability": "view",
      "type": "function"
    },
    {
      "inputs": [
        {
          "internalType": "bytes32",
          "name": "role",
          "type": "bytes32"
        },
        {
          "internalType": "uint256",
          "name": "index",
          "type": "uint256"
        }
      ],
      "name": "getRoleMember",
      "outputs": [
        {
          "internalType": "address",
          "name": "",
          "type": "address"
        }
      ],
      "stateMutability": "view",
      "type": "function"
    },
    {
      "inputs": [
        {
          "internalType": "bytes32",
          "name": "role",
          "type": "bytes32"
        }
      ],
      "name": "getRoleMemberCount",
      "outputs": [
        {
          "internalType": "uint256",
          "name": "",
          "type": "uint256"
        }
      ],
      "stateMutability": "view",
      "type": "function"
    },
    {
      "inputs": [
        {
          "internalType": "bytes32",
          "name": "role",
          "type": "bytes32"
        },
        {
          "internalType": "address",
          "name": "account",
          "type": "address"
        }
      ],
      "name": "grantRole",
      "outputs": [],
      "stateMutability": "nonpayable",
      "type": "function"
    },
    {
      "inputs": [
        {
          "internalType": "bytes32",
          "name": "role",
          "type": "bytes32"
        },
        {
          "internalType": "address",
          "name": "account",
          "type": "address"
        }
      ],
      "name": "hasRole",
      "outputs": [
        {
          "internalType": "bool",
          "name": "",
          "type": "bool"
        }
      ],
      "stateMutability": "view",
      "type": "function"
    },
    {
      "inputs": [
        {
          "internalType": "bytes32",
          "name": "role",
          "type": "bytes32"
        },
        {
          "internalType": "address",
          "name": "account",
          "type": "address"
        }
      ],
      "name": "renounceRole",
      "outputs": [],
      "stateMutability": "nonpayable",
      "type": "function"
    },
    {
      "inputs": [
        {
          "internalType": "bytes32",
          "name": "role",
          "type": "bytes32"
        },
        {
          "internalType": "address",
          "name": "account",
          "type": "address"
        }
      ],
      "name": "revokeRole",
      "outputs": [],
      "stateMutability": "nonpayable",
      "type": "function"
    },
    {
      "inputs": [
        {
          "internalType": "bytes4",
          "name": "interfaceId",
          "type": "bytes4"
        }
      ],
      "name": "supportsInterface",
      "outputs": [
        {
          "internalType": "bool",
          "name": "",
          "type": "bool"
        }
      ],
      "stateMutability": "view",
      "type": "function"
    },
    {
      "inputs": [
        {
          "internalType": "address",
          "name": "gameBoardAddress",
          "type": "address"
        }
      ],
      "name": "addGameBoard",
      "outputs": [],
      "stateMutability": "nonpayable",
      "type": "function"
    },
    {
      "inputs": [],
      "name": "registerGame",
      "outputs": [
        {
          "internalType": "uint256",
          "name": "gameID",
          "type": "uint256"
        }
      ],
      "stateMutability": "nonpayable",
      "type": "function"
    },
    {
      "inputs": [],
      "name": "allGames",
      "outputs": [
        {
          "internalType": "uint256[]",
          "name": "",
          "type": "uint256[]"
        }
      ],
      "stateMutability": "view",
      "type": "function"
    },
    {
      "inputs": [
        {
          "internalType": "address",
          "name": "gameBoardAddress",
          "type": "address"
        }
      ],
      "name": "latestGame",
      "outputs": [
        {
          "internalType": "uint256",
          "name": "gameID",
          "type": "uint256"
        }
      ],
      "stateMutability": "view",
      "type": "function"
    }
  ],
  "bytecode": "0x60806040523480156200001157600080fd5b506040516200117e3803806200117e833981016040819052620000349162000236565b6200004a6000826401000000006200006b810204565b620000646002640100000000620006046200008482021704565b5062000268565b6200008082826401000000006200008d810204565b5050565b80546001019055565b620000a782826401000000006200060d620000d482021704565b6000828152600160205260409020620000cf9082640100000000620006916200017082021704565b505050565b620000e9828264010000000062000199810204565b6200008057600082815260208181526040808320600160a060020a03851684529091529020805460ff191660011790556200012c640100000000620001c2810204565b600160a060020a031681600160a060020a0316837f2f8788117e7eff1d82e926ec794901d17c78024a50270940304540a733656f0d60405160405180910390a45050565b60006200019083600160a060020a038416640100000000620001c6810204565b90505b92915050565b600091825260208281526040808420600160a060020a0393909316845291905290205460ff1690565b3390565b6000620001dd83836401000000006200021e810204565b620002155750815460018181018455600084815260208082209093018490558454848252828601909352604090209190915562000193565b50600062000193565b60009081526001919091016020526040902054151590565b6000602082840312156200024957600080fd5b8151600160a060020a03811681146200026157600080fd5b9392505050565b610f0680620002786000396000f3fe608060405234801561001057600080fd5b50600436106100fd576000357c01000000000000000000000000000000000000000000000000000000009004806365edc5d2116100a457806365edc5d2146101f65780639010d07c1461020957806391d148541461021c578063a217fddf1461022f578063b553910d14610237578063ca15c8731461024a578063d547741f1461025d578063de4526411461027057600080fd5b806301ffc9a7146101025780630a75806e1461012a578063248a9ca3146101405780632f2ff15d1461016357806336568abe14610178578063465542f01461018b5780634a58dc11146101a05780635d248301146101b5575b600080fd5b610115610110366004610bcd565b610283565b60405190151581526020015b60405180910390f35b6101326102c7565b604051908152602001610121565b61013261014e366004610bf7565b60009081526020819052604090206001015490565b610176610171366004610c2c565b61033e565b005b610176610186366004610c2c565b610368565b6101936103fc565b6040516101219190610c58565b610132600080516020610eb183398151915281565b6101de6101c3366004610bf7565b600460205260009081526040902054600160a060020a031681565b604051600160a060020a039091168152602001610121565b610132610204366004610c9c565b610476565b6101de610217366004610cc6565b6104a7565b61011561022a366004610c2c565b6104c6565b610132600081565b610132610245366004610ce8565b6104ef565b610132610258366004610bf7565b6105a5565b61017661026b366004610c2c565b6105bc565b61017661027e366004610ce8565b6105e1565b6000600160e060020a031982167f5a05180f0000000000000000000000000000000000000000000000000000000014806102c157506102c1826106a6565b92915050565b6000600080516020610eb18339815191526102e18161070d565b600280546000818152600460209081526040808320805473ffffffffffffffffffffffffffffffffffffffff1916339081179091558352600382528220805460018181018355918452919092200182905582540190915591505090565b6000828152602081905260409020600101546103598161070d565b610363838361071a565b505050565b600160a060020a03811633146103ee5760405160e560020a62461bcd02815260206004820152602f60248201527f416363657373436f6e74726f6c3a2063616e206f6e6c792072656e6f756e636560448201527f20726f6c657320666f722073656c66000000000000000000000000000000000060648201526084015b60405180910390fd5b6103f8828261073c565b5050565b6060600080516020610eb18339815191526104168161070d565b336000908152600360209081526040918290208054835181840281018401909452808452909183018282801561046b57602002820191906000526020600020905b815481526020019060010190808311610457575b505050505091505090565b6003602052816000526040600020818154811061049257600080fd5b90600052602060002001600091509150505481565b60008281526001602052604081206104bf908361075e565b9392505050565b600091825260208281526040808420600160a060020a0393909316845291905290205460ff1690565b600160a060020a038116600090815260036020526040812054801561059f57600160a060020a03831660009081526003602090815260408083208054825181850281018501909352808352919290919083018282801561056e57602002820191906000526020600020905b81548152602001906001019080831161055a575b50505050509050806001836105839190610d1c565b8151811061059357610593610d33565b60200260200101519250505b50919050565b60008181526001602052604081206102c19061076a565b6000828152602081905260409020600101546105d78161070d565b610363838361073c565b60006105ec8161070d565b6103f8600080516020610eb183398151915283610774565b80546001019055565b61061782826104c6565b6103f857600082815260208181526040808320600160a060020a03851684529091529020805460ff1916600117905561064d3390565b600160a060020a031681600160a060020a0316837f2f8788117e7eff1d82e926ec794901d17c78024a50270940304540a733656f0d60405160405180910390a45050565b60006104bf83600160a060020a03841661077e565b6000600160e060020a031982167f7965db0b0000000000000000000000000000000000000000000000000000000014806102c157507f01ffc9a700000000000000000000000000000000000000000000000000000000600160e060020a03198316146102c1565b61071781336107cd565b50565b610724828261060d565b60008281526001602052604090206103639082610691565b6107468282610834565b60008281526001602052604090206103639082610899565b60006104bf83836108ae565b60006102c1825490565b6103f8828261071a565b60008181526001830160205260408120546107c5575081546001818101845560008481526020808220909301849055845484825282860190935260409020919091556102c1565b5060006102c1565b6107d782826104c6565b6103f8576107ef81600160a060020a031660146108d8565b6107fa8360206108d8565b60405160200161080b929190610d7c565b60408051601f198184030181529082905260e560020a62461bcd0282526103e591600401610dfd565b61083e82826104c6565b156103f857600082815260208181526040808320600160a060020a0385168085529252808320805460ff1916905551339285917ff6391f5c32d9c69d2a47ea670b442974b53935d1edc7fd64eb21e047a839171b9190a45050565b60006104bf83600160a060020a038416610ada565b60008260000182815481106108c5576108c5610d33565b9060005260206000200154905092915050565b606060006108e7836002610e30565b6108f2906002610e4f565b67ffffffffffffffff81111561090a5761090a610e67565b6040519080825280601f01601f191660200182016040528015610934576020820181803683370190505b5090507f30000000000000000000000000000000000000000000000000000000000000008160008151811061096b5761096b610d33565b6020010190600160f860020a031916908160001a9053507f7800000000000000000000000000000000000000000000000000000000000000816001815181106109b6576109b6610d33565b6020010190600160f860020a031916908160001a90535060006109da846002610e30565b6109e5906001610e4f565b90505b6001811115610a88577f303132333435363738396162636465660000000000000000000000000000000085600f1660108110610a2657610a26610d33565b1a7f010000000000000000000000000000000000000000000000000000000000000002828281518110610a5b57610a5b610d33565b6020010190600160f860020a031916908160001a905350601090940493610a8181610e80565b90506109e8565b5083156104bf5760405160e560020a62461bcd02815260206004820181905260248201527f537472696e67733a20686578206c656e67746820696e73756666696369656e7460448201526064016103e5565b60008181526001830160205260408120548015610bc3576000610afe600183610d1c565b8554909150600090610b1290600190610d1c565b9050818114610b77576000866000018281548110610b3257610b32610d33565b9060005260206000200154905080876000018481548110610b5557610b55610d33565b6000918252602080832090910192909255918252600188019052604090208390555b8554869080610b8857610b88610e97565b6001900381819060005260206000200160009055905585600101600086815260200190815260200160002060009055600193505050506102c1565b60009150506102c1565b600060208284031215610bdf57600080fd5b8135600160e060020a0319811681146104bf57600080fd5b600060208284031215610c0957600080fd5b5035919050565b8035600160a060020a0381168114610c2757600080fd5b919050565b60008060408385031215610c3f57600080fd5b82359150610c4f60208401610c10565b90509250929050565b6020808252825182820181905260009190848201906040850190845b81811015610c9057835183529284019291840191600101610c74565b50909695505050505050565b60008060408385031215610caf57600080fd5b610cb883610c10565b946020939093013593505050565b60008060408385031215610cd957600080fd5b50508035926020909101359150565b600060208284031215610cfa57600080fd5b6104bf82610c10565b60e060020a634e487b7102600052601160045260246000fd5b600082821015610d2e57610d2e610d03565b500390565b60e060020a634e487b7102600052603260045260246000fd5b60005b83811015610d67578181015183820152602001610d4f565b83811115610d76576000848401525b50505050565b7f416363657373436f6e74726f6c3a206163636f756e7420000000000000000000815260008351610db4816017850160208801610d4c565b7f206973206d697373696e6720726f6c65200000000000000000000000000000006017918401918201528351610df1816028840160208801610d4c565b01602801949350505050565b6020815260008251806020840152610e1c816040850160208701610d4c565b601f01601f19169190910160400192915050565b6000816000190483118215151615610e4a57610e4a610d03565b500290565b60008219821115610e6257610e62610d03565b500190565b60e060020a634e487b7102600052604160045260246000fd5b600081610e8f57610e8f610d03565b506000190190565b60e060020a634e487b7102600052603160045260246000fdfea535732178231314b57938e75e1be42a0d0fac039993e1fa0eb22dcb94bce107a264697066735822122076e8b6a27a12544e1f2b3751a2198df8268a55e1e76ca360124cbb013b59989564736f6c634300080b0033",
  "immutableReferences": {},
  "source": "// SPDX-License-Identifier: GPL-3.0\npragma solidity >=0.7.0 <0.9.0;\n\nimport \"@openzeppelin/contracts/access/AccessControlEnumerable.sol\";\nimport \"@openzeppelin/contracts/utils/Counters.sol\";\n\n// universal registry, for all games across boards\n\ncontract GameRegistry is AccessControlEnumerable {\n    using Counters for Counters.Counter;\n    Counters.Counter internal _gameIdTracker;\n    bytes32 public constant GAME_BOARD_ROLE = keccak256(\"GAME_BOARD_ROLE\");\n    // mapping from game board address to all game IDs\n    mapping(address => uint256[]) public gameIDs;\n    // mappings from Game ID\n    mapping(uint256 => address) public gameBoard;\n\n    constructor(address adminAddress) {\n        _setupRole(DEFAULT_ADMIN_ROLE, adminAddress);\n        _gameIdTracker.increment();\n    }\n\n    function addGameBoard(address gameBoardAddress)\n        public\n        onlyRole(DEFAULT_ADMIN_ROLE)\n    {\n        _setupRole(GAME_BOARD_ROLE, gameBoardAddress);\n    }\n\n    function registerGame()\n        external\n        onlyRole(GAME_BOARD_ROLE)\n        returns (uint256 gameID)\n    {\n        gameID = _gameIdTracker.current();\n        gameBoard[gameID] = _msgSender();\n        gameIDs[_msgSender()].push(gameID);\n\n        _gameIdTracker.increment();\n    }\n\n    function allGames()\n        external\n        view\n        onlyRole(GAME_BOARD_ROLE)\n        returns (uint256[] memory)\n    {\n        return gameIDs[_msgSender()];\n    }\n\n    function latestGame(address gameBoardAddress)\n        public\n        view\n        returns (uint256 gameID)\n    {\n        gameID = 0;\n        uint256 l = gameIDs[gameBoardAddress].length;\n        if (l > 0) {\n            uint256[] memory ids = gameIDs[gameBoardAddress];\n            gameID = ids[l - 1];\n        }\n    }\n}\n",
  "sourcePath": "@luckymachines/game-core/contracts/src/v0.0/GameRegistry.sol",
  "compiler": {
    "name": "solc",
    "version": "0.8.11+commit.d7f03943.Emscripten.clang"
  },
  "schemaVersion": "3.4.2",
  "updatedAt": "2022-05-26T21:13:33.383Z",
  "devdoc": {
    "kind": "dev",
    "methods": {
      "getRoleAdmin(bytes32)": {
        "details": "Returns the admin role that controls `role`. See {grantRole} and {revokeRole}. To change a role's admin, use {_setRoleAdmin}."
      },
      "getRoleMember(bytes32,uint256)": {
        "details": "Returns one of the accounts that have `role`. `index` must be a value between 0 and {getRoleMemberCount}, non-inclusive. Role bearers are not sorted in any particular way, and their ordering may change at any point. WARNING: When using {getRoleMember} and {getRoleMemberCount}, make sure you perform all queries on the same block. See the following https://forum.openzeppelin.com/t/iterating-over-elements-on-enumerableset-in-openzeppelin-contracts/2296[forum post] for more information."
      },
      "getRoleMemberCount(bytes32)": {
        "details": "Returns the number of accounts that have `role`. Can be used together with {getRoleMember} to enumerate all bearers of a role."
      },
      "grantRole(bytes32,address)": {
        "details": "Grants `role` to `account`. If `account` had not been already granted `role`, emits a {RoleGranted} event. Requirements: - the caller must have ``role``'s admin role."
      },
      "hasRole(bytes32,address)": {
        "details": "Returns `true` if `account` has been granted `role`."
      },
      "renounceRole(bytes32,address)": {
        "details": "Revokes `role` from the calling account. Roles are often managed via {grantRole} and {revokeRole}: this function's purpose is to provide a mechanism for accounts to lose their privileges if they are compromised (such as when a trusted device is misplaced). If the calling account had been revoked `role`, emits a {RoleRevoked} event. Requirements: - the caller must be `account`."
      },
      "revokeRole(bytes32,address)": {
        "details": "Revokes `role` from `account`. If `account` had been granted `role`, emits a {RoleRevoked} event. Requirements: - the caller must have ``role``'s admin role."
      },
      "supportsInterface(bytes4)": {
        "details": "See {IERC165-supportsInterface}."
      }
    },
    "version": 1
  },
  "userdoc": {
    "kind": "user",
    "methods": {},
    "version": 1
  }
}