{
  "contractName": "GameRegistry",
  "abi": [
    {
      "inputs": [
        {
          "internalType": "address",
          "name": "adminAddress",
          "type": "address"
        }
      ],
      "stateMutability": "nonpayable",
      "type": "constructor"
    },
    {
      "anonymous": false,
      "inputs": [
        {
          "indexed": true,
          "internalType": "bytes32",
          "name": "role",
          "type": "bytes32"
        },
        {
          "indexed": true,
          "internalType": "bytes32",
          "name": "previousAdminRole",
          "type": "bytes32"
        },
        {
          "indexed": true,
          "internalType": "bytes32",
          "name": "newAdminRole",
          "type": "bytes32"
        }
      ],
      "name": "RoleAdminChanged",
      "type": "event"
    },
    {
      "anonymous": false,
      "inputs": [
        {
          "indexed": true,
          "internalType": "bytes32",
          "name": "role",
          "type": "bytes32"
        },
        {
          "indexed": true,
          "internalType": "address",
          "name": "account",
          "type": "address"
        },
        {
          "indexed": true,
          "internalType": "address",
          "name": "sender",
          "type": "address"
        }
      ],
      "name": "RoleGranted",
      "type": "event"
    },
    {
      "anonymous": false,
      "inputs": [
        {
          "indexed": true,
          "internalType": "bytes32",
          "name": "role",
          "type": "bytes32"
        },
        {
          "indexed": true,
          "internalType": "address",
          "name": "account",
          "type": "address"
        },
        {
          "indexed": true,
          "internalType": "address",
          "name": "sender",
          "type": "address"
        }
      ],
      "name": "RoleRevoked",
      "type": "event"
    },
    {
      "inputs": [],
      "name": "DEFAULT_ADMIN_ROLE",
      "outputs": [
        {
          "internalType": "bytes32",
          "name": "",
          "type": "bytes32"
        }
      ],
      "stateMutability": "view",
      "type": "function"
    },
    {
      "inputs": [],
      "name": "GAME_BOARD_ROLE",
      "outputs": [
        {
          "internalType": "bytes32",
          "name": "",
          "type": "bytes32"
        }
      ],
      "stateMutability": "view",
      "type": "function"
    },
    {
      "inputs": [
        {
          "internalType": "uint256",
          "name": "",
          "type": "uint256"
        }
      ],
      "name": "gameBoard",
      "outputs": [
        {
          "internalType": "address",
          "name": "",
          "type": "address"
        }
      ],
      "stateMutability": "view",
      "type": "function"
    },
    {
      "inputs": [
        {
          "internalType": "address",
          "name": "",
          "type": "address"
        },
        {
          "internalType": "uint256",
          "name": "",
          "type": "uint256"
        }
      ],
      "name": "gameIDs",
      "outputs": [
        {
          "internalType": "uint256",
          "name": "",
          "type": "uint256"
        }
      ],
      "stateMutability": "view",
      "type": "function"
    },
    {
      "inputs": [
        {
          "internalType": "bytes32",
          "name": "role",
          "type": "bytes32"
        }
      ],
      "name": "getRoleAdmin",
      "outputs": [
        {
          "internalType": "bytes32",
          "name": "",
          "type": "bytes32"
        }
      ],
      "stateMutability": "view",
      "type": "function"
    },
    {
      "inputs": [
        {
          "internalType": "bytes32",
          "name": "role",
          "type": "bytes32"
        },
        {
          "internalType": "uint256",
          "name": "index",
          "type": "uint256"
        }
      ],
      "name": "getRoleMember",
      "outputs": [
        {
          "internalType": "address",
          "name": "",
          "type": "address"
        }
      ],
      "stateMutability": "view",
      "type": "function"
    },
    {
      "inputs": [
        {
          "internalType": "bytes32",
          "name": "role",
          "type": "bytes32"
        }
      ],
      "name": "getRoleMemberCount",
      "outputs": [
        {
          "internalType": "uint256",
          "name": "",
          "type": "uint256"
        }
      ],
      "stateMutability": "view",
      "type": "function"
    },
    {
      "inputs": [
        {
          "internalType": "bytes32",
          "name": "role",
          "type": "bytes32"
        },
        {
          "internalType": "address",
          "name": "account",
          "type": "address"
        }
      ],
      "name": "grantRole",
      "outputs": [],
      "stateMutability": "nonpayable",
      "type": "function"
    },
    {
      "inputs": [
        {
          "internalType": "bytes32",
          "name": "role",
          "type": "bytes32"
        },
        {
          "internalType": "address",
          "name": "account",
          "type": "address"
        }
      ],
      "name": "hasRole",
      "outputs": [
        {
          "internalType": "bool",
          "name": "",
          "type": "bool"
        }
      ],
      "stateMutability": "view",
      "type": "function"
    },
    {
      "inputs": [
        {
          "internalType": "bytes32",
          "name": "role",
          "type": "bytes32"
        },
        {
          "internalType": "address",
          "name": "account",
          "type": "address"
        }
      ],
      "name": "renounceRole",
      "outputs": [],
      "stateMutability": "nonpayable",
      "type": "function"
    },
    {
      "inputs": [
        {
          "internalType": "bytes32",
          "name": "role",
          "type": "bytes32"
        },
        {
          "internalType": "address",
          "name": "account",
          "type": "address"
        }
      ],
      "name": "revokeRole",
      "outputs": [],
      "stateMutability": "nonpayable",
      "type": "function"
    },
    {
      "inputs": [
        {
          "internalType": "bytes4",
          "name": "interfaceId",
          "type": "bytes4"
        }
      ],
      "name": "supportsInterface",
      "outputs": [
        {
          "internalType": "bool",
          "name": "",
          "type": "bool"
        }
      ],
      "stateMutability": "view",
      "type": "function"
    },
    {
      "inputs": [
        {
          "internalType": "address",
          "name": "gameBoardAddress",
          "type": "address"
        }
      ],
      "name": "addGameBoard",
      "outputs": [],
      "stateMutability": "nonpayable",
      "type": "function"
    },
    {
      "inputs": [],
      "name": "registerGame",
      "outputs": [
        {
          "internalType": "uint256",
          "name": "gameID",
          "type": "uint256"
        }
      ],
      "stateMutability": "nonpayable",
      "type": "function"
    },
    {
      "inputs": [],
      "name": "allGames",
      "outputs": [
        {
          "internalType": "uint256[]",
          "name": "",
          "type": "uint256[]"
        }
      ],
      "stateMutability": "view",
      "type": "function"
    }
  ],
  "bytecode": "0x60806040523480156200001157600080fd5b506040516200115738038062001157833981016040819052620000349162000236565b6200004a6000826401000000006200006b810204565b620000646002640100000000620005676200008482021704565b5062000268565b6200008082826401000000006200008d810204565b5050565b80546001019055565b620000a7828264010000000062000570620000d482021704565b6000828152600160205260409020620000cf9082640100000000620005f46200017082021704565b505050565b620000e9828264010000000062000199810204565b6200008057600082815260208181526040808320600160a060020a03851684529091529020805460ff191660011790556200012c640100000000620001c2810204565b600160a060020a031681600160a060020a0316837f2f8788117e7eff1d82e926ec794901d17c78024a50270940304540a733656f0d60405160405180910390a45050565b60006200019083600160a060020a038416640100000000620001c6810204565b90505b92915050565b600091825260208281526040808420600160a060020a0393909316845291905290205460ff1690565b3390565b6000620001dd83836401000000006200021e810204565b620002155750815460018181018455600084815260208082209093018490558454848252828601909352604090209190915562000193565b50600062000193565b60009081526001919091016020526040902054151590565b6000602082840312156200024957600080fd5b8151600160a060020a03811681146200026157600080fd5b9392505050565b610edf80620002786000396000f3fe608060405234801561001057600080fd5b5060043610610112576000357c0100000000000000000000000000000000000000000000000000000000900480635d248301116100b4578063a217fddf11610083578063a217fddf14610244578063ca15c8731461024c578063d547741f1461025f578063de4526411461027257600080fd5b80635d248301146101ca57806365edc5d21461020b5780639010d07c1461021e57806391d148541461023157600080fd5b80632f2ff15d116100f05780632f2ff15d1461017857806336568abe1461018d578063465542f0146101a05780634a58dc11146101b557600080fd5b806301ffc9a7146101175780630a75806e1461013f578063248a9ca314610155575b600080fd5b61012a610125366004610ba6565b610285565b60405190151581526020015b60405180910390f35b6101476102c9565b604051908152602001610136565b610147610163366004610bd0565b60009081526020819052604090206001015490565b61018b610186366004610c05565b610340565b005b61018b61019b366004610c05565b61036a565b6101a8610415565b6040516101369190610c31565b610147600080516020610e8a83398151915281565b6101f36101d8366004610bd0565b600460205260009081526040902054600160a060020a031681565b604051600160a060020a039091168152602001610136565b610147610219366004610c75565b61048f565b6101f361022c366004610c9f565b6104c0565b61012a61023f366004610c05565b6104df565b610147600081565b61014761025a366004610bd0565b610508565b61018b61026d366004610c05565b61051f565b61018b610280366004610cc1565b610544565b6000600160e060020a031982167f5a05180f0000000000000000000000000000000000000000000000000000000014806102c357506102c382610609565b92915050565b6000600080516020610e8a8339815191526102e381610670565b600280546000818152600460209081526040808320805473ffffffffffffffffffffffffffffffffffffffff1916339081179091558352600382528220805460018181018355918452919092200182905582540190915591505090565b60008281526020819052604090206001015461035b81610670565b610365838361067d565b505050565b600160a060020a0381163314610407576040517f08c379a000000000000000000000000000000000000000000000000000000000815260206004820152602f60248201527f416363657373436f6e74726f6c3a2063616e206f6e6c792072656e6f756e636560448201527f20726f6c657320666f722073656c66000000000000000000000000000000000060648201526084015b60405180910390fd5b610411828261069f565b5050565b6060600080516020610e8a83398151915261042f81610670565b336000908152600360209081526040918290208054835181840281018401909452808452909183018282801561048457602002820191906000526020600020905b815481526020019060010190808311610470575b505050505091505090565b600360205281600052604060002081815481106104ab57600080fd5b90600052602060002001600091509150505481565b60008281526001602052604081206104d890836106c1565b9392505050565b600091825260208281526040808420600160a060020a0393909316845291905290205460ff1690565b60008181526001602052604081206102c3906106cd565b60008281526020819052604090206001015461053a81610670565b610365838361069f565b600061054f81610670565b610411600080516020610e8a833981519152836106d7565b80546001019055565b61057a82826104df565b61041157600082815260208181526040808320600160a060020a03851684529091529020805460ff191660011790556105b03390565b600160a060020a031681600160a060020a0316837f2f8788117e7eff1d82e926ec794901d17c78024a50270940304540a733656f0d60405160405180910390a45050565b60006104d883600160a060020a0384166106e1565b6000600160e060020a031982167f7965db0b0000000000000000000000000000000000000000000000000000000014806102c357507f01ffc9a700000000000000000000000000000000000000000000000000000000600160e060020a03198316146102c3565b61067a8133610730565b50565b6106878282610570565b600082815260016020526040902061036590826105f4565b6106a982826107ae565b60008281526001602052604090206103659082610813565b60006104d88383610828565b60006102c3825490565b610411828261067d565b6000818152600183016020526040812054610728575081546001818101845560008481526020808220909301849055845484825282860190935260409020919091556102c3565b5060006102c3565b61073a82826104df565b6104115761075281600160a060020a03166014610852565b61075d836020610852565b60405160200161076e929190610d0c565b60408051601f19818403018152908290527f08c379a00000000000000000000000000000000000000000000000000000000082526103fe91600401610d8d565b6107b882826104df565b1561041157600082815260208181526040808320600160a060020a0385168085529252808320805460ff1916905551339285917ff6391f5c32d9c69d2a47ea670b442974b53935d1edc7fd64eb21e047a839171b9190a45050565b60006104d883600160a060020a038416610ab3565b600082600001828154811061083f5761083f610dc0565b9060005260206000200154905092915050565b60606000610861836002610df2565b61086c906002610e11565b67ffffffffffffffff81111561088457610884610e29565b6040519080825280601f01601f1916602001820160405280156108ae576020820181803683370190505b5090507f3000000000000000000000000000000000000000000000000000000000000000816000815181106108e5576108e5610dc0565b60200101907effffffffffffffffffffffffffffffffffffffffffffffffffffffffffffff1916908160001a9053507f78000000000000000000000000000000000000000000000000000000000000008160018151811061094857610948610dc0565b60200101907effffffffffffffffffffffffffffffffffffffffffffffffffffffffffffff1916908160001a9053506000610984846002610df2565b61098f906001610e11565b90505b6001811115610a4a577f303132333435363738396162636465660000000000000000000000000000000085600f16601081106109d0576109d0610dc0565b1a7f010000000000000000000000000000000000000000000000000000000000000002828281518110610a0557610a05610dc0565b60200101907effffffffffffffffffffffffffffffffffffffffffffffffffffffffffffff1916908160001a905350601090940493610a4381610e42565b9050610992565b5083156104d8576040517f08c379a000000000000000000000000000000000000000000000000000000000815260206004820181905260248201527f537472696e67733a20686578206c656e67746820696e73756666696369656e7460448201526064016103fe565b60008181526001830160205260408120548015610b9c576000610ad7600183610e59565b8554909150600090610aeb90600190610e59565b9050818114610b50576000866000018281548110610b0b57610b0b610dc0565b9060005260206000200154905080876000018481548110610b2e57610b2e610dc0565b6000918252602080832090910192909255918252600188019052604090208390555b8554869080610b6157610b61610e70565b6001900381819060005260206000200160009055905585600101600086815260200190815260200160002060009055600193505050506102c3565b60009150506102c3565b600060208284031215610bb857600080fd5b8135600160e060020a0319811681146104d857600080fd5b600060208284031215610be257600080fd5b5035919050565b8035600160a060020a0381168114610c0057600080fd5b919050565b60008060408385031215610c1857600080fd5b82359150610c2860208401610be9565b90509250929050565b6020808252825182820181905260009190848201906040850190845b81811015610c6957835183529284019291840191600101610c4d565b50909695505050505050565b60008060408385031215610c8857600080fd5b610c9183610be9565b946020939093013593505050565b60008060408385031215610cb257600080fd5b50508035926020909101359150565b600060208284031215610cd357600080fd5b6104d882610be9565b60005b83811015610cf7578181015183820152602001610cdf565b83811115610d06576000848401525b50505050565b7f416363657373436f6e74726f6c3a206163636f756e7420000000000000000000815260008351610d44816017850160208801610cdc565b7f206973206d697373696e6720726f6c65200000000000000000000000000000006017918401918201528351610d81816028840160208801610cdc565b01602801949350505050565b6020815260008251806020840152610dac816040850160208701610cdc565b601f01601f19169190910160400192915050565b60e060020a634e487b7102600052603260045260246000fd5b60e060020a634e487b7102600052601160045260246000fd5b6000816000190483118215151615610e0c57610e0c610dd9565b500290565b60008219821115610e2457610e24610dd9565b500190565b60e060020a634e487b7102600052604160045260246000fd5b600081610e5157610e51610dd9565b506000190190565b600082821015610e6b57610e6b610dd9565b500390565b60e060020a634e487b7102600052603160045260246000fdfea535732178231314b57938e75e1be42a0d0fac039993e1fa0eb22dcb94bce107a264697066735822122003de0a75f0cab22326d3264402d1abb4c42e1ced251d07bf528cdc6d794cdaae64736f6c634300080b0033",
  "immutableReferences": {},
  "source": "// SPDX-License-Identifier: GPL-3.0\npragma solidity >=0.7.0 <0.9.0;\n\nimport \"@openzeppelin/contracts/access/AccessControlEnumerable.sol\";\nimport \"@openzeppelin/contracts/utils/Counters.sol\";\n\n// universal registry, for all games across boards\n\ncontract GameRegistry is AccessControlEnumerable {\n    using Counters for Counters.Counter;\n    Counters.Counter internal _gameIdTracker;\n    bytes32 public constant GAME_BOARD_ROLE = keccak256(\"GAME_BOARD_ROLE\");\n    // mapping from game board address to all game IDs\n    mapping(address => uint256[]) public gameIDs;\n    // mappings from Game ID\n    mapping(uint256 => address) public gameBoard;\n\n    constructor(address adminAddress) {\n        _setupRole(DEFAULT_ADMIN_ROLE, adminAddress);\n        _gameIdTracker.increment();\n    }\n\n    function addGameBoard(address gameBoardAddress)\n        public\n        onlyRole(DEFAULT_ADMIN_ROLE)\n    {\n        _setupRole(GAME_BOARD_ROLE, gameBoardAddress);\n    }\n\n    function registerGame()\n        external\n        onlyRole(GAME_BOARD_ROLE)\n        returns (uint256 gameID)\n    {\n        gameID = _gameIdTracker.current();\n        gameBoard[gameID] = _msgSender();\n        gameIDs[_msgSender()].push(gameID);\n\n        _gameIdTracker.increment();\n    }\n\n    function allGames()\n        external\n        view\n        onlyRole(GAME_BOARD_ROLE)\n        returns (uint256[] memory)\n    {\n        return gameIDs[_msgSender()];\n    }\n}\n",
  "sourcePath": "@luckymachines/game-core/contracts/src/v0.0/GameRegistry.sol",
  "compiler": {
    "name": "solc",
    "version": "0.8.11+commit.d7f03943.Emscripten.clang"
  },
  "schemaVersion": "3.4.4",
  "updatedAt": "2022-05-10T22:43:52.431Z",
  "devdoc": {
    "kind": "dev",
    "methods": {
      "getRoleAdmin(bytes32)": {
        "details": "Returns the admin role that controls `role`. See {grantRole} and {revokeRole}. To change a role's admin, use {_setRoleAdmin}."
      },
      "getRoleMember(bytes32,uint256)": {
        "details": "Returns one of the accounts that have `role`. `index` must be a value between 0 and {getRoleMemberCount}, non-inclusive. Role bearers are not sorted in any particular way, and their ordering may change at any point. WARNING: When using {getRoleMember} and {getRoleMemberCount}, make sure you perform all queries on the same block. See the following https://forum.openzeppelin.com/t/iterating-over-elements-on-enumerableset-in-openzeppelin-contracts/2296[forum post] for more information."
      },
      "getRoleMemberCount(bytes32)": {
        "details": "Returns the number of accounts that have `role`. Can be used together with {getRoleMember} to enumerate all bearers of a role."
      },
      "grantRole(bytes32,address)": {
        "details": "Grants `role` to `account`. If `account` had not been already granted `role`, emits a {RoleGranted} event. Requirements: - the caller must have ``role``'s admin role."
      },
      "hasRole(bytes32,address)": {
        "details": "Returns `true` if `account` has been granted `role`."
      },
      "renounceRole(bytes32,address)": {
        "details": "Revokes `role` from the calling account. Roles are often managed via {grantRole} and {revokeRole}: this function's purpose is to provide a mechanism for accounts to lose their privileges if they are compromised (such as when a trusted device is misplaced). If the calling account had been revoked `role`, emits a {RoleRevoked} event. Requirements: - the caller must be `account`."
      },
      "revokeRole(bytes32,address)": {
        "details": "Revokes `role` from `account`. If `account` had been granted `role`, emits a {RoleRevoked} event. Requirements: - the caller must have ``role``'s admin role."
      },
      "supportsInterface(bytes4)": {
        "details": "See {IERC165-supportsInterface}."
      }
    },
    "version": 1
  },
  "userdoc": {
    "kind": "user",
    "methods": {},
    "version": 1
  }
}