{
  "contractName": "GameSummary",
  "abi": [
    {
      "inputs": [
        {
          "internalType": "address",
          "name": "gameBoardAddress",
          "type": "address"
        }
      ],
      "name": "boardSize",
      "outputs": [
        {
          "internalType": "uint256",
          "name": "rows",
          "type": "uint256"
        },
        {
          "internalType": "uint256",
          "name": "columns",
          "type": "uint256"
        }
      ],
      "stateMutability": "view",
      "type": "function"
    },
    {
      "inputs": [
        {
          "internalType": "address",
          "name": "gameBoardAddress",
          "type": "address"
        },
        {
          "internalType": "uint256",
          "name": "gameID",
          "type": "uint256"
        },
        {
          "internalType": "address",
          "name": "playerAddress",
          "type": "address"
        }
      ],
      "name": "isRegistered",
      "outputs": [
        {
          "internalType": "bool",
          "name": "",
          "type": "bool"
        }
      ],
      "stateMutability": "view",
      "type": "function"
    },
    {
      "inputs": [
        {
          "internalType": "address",
          "name": "gameBoardAddress",
          "type": "address"
        },
        {
          "internalType": "uint256",
          "name": "gameID",
          "type": "uint256"
        },
        {
          "internalType": "address",
          "name": "playerAddress",
          "type": "address"
        }
      ],
      "name": "getPlayerID",
      "outputs": [
        {
          "internalType": "uint256",
          "name": "playerID",
          "type": "uint256"
        }
      ],
      "stateMutability": "view",
      "type": "function"
    },
    {
      "inputs": [],
      "name": "getAvailableGameIDs",
      "outputs": [
        {
          "internalType": "uint256[]",
          "name": "",
          "type": "uint256[]"
        }
      ],
      "stateMutability": "view",
      "type": "function"
    },
    {
      "inputs": [
        {
          "internalType": "address",
          "name": "gameBoardAddress",
          "type": "address"
        },
        {
          "internalType": "uint256",
          "name": "gameID",
          "type": "uint256"
        }
      ],
      "name": "currentGameplayQueue",
      "outputs": [
        {
          "internalType": "uint256",
          "name": "",
          "type": "uint256"
        }
      ],
      "stateMutability": "view",
      "type": "function"
    },
    {
      "inputs": [
        {
          "internalType": "address",
          "name": "gameBoardAddress",
          "type": "address"
        },
        {
          "internalType": "uint256",
          "name": "gameID",
          "type": "uint256"
        }
      ],
      "name": "currentPhase",
      "outputs": [
        {
          "internalType": "string",
          "name": "phase",
          "type": "string"
        }
      ],
      "stateMutability": "view",
      "type": "function"
    },
    {
      "inputs": [
        {
          "internalType": "address",
          "name": "gameBoardAddress",
          "type": "address"
        },
        {
          "internalType": "uint256",
          "name": "gameID",
          "type": "uint256"
        }
      ],
      "name": "activeZones",
      "outputs": [
        {
          "internalType": "string[]",
          "name": "zones",
          "type": "string[]"
        },
        {
          "internalType": "uint16[]",
          "name": "tiles",
          "type": "uint16[]"
        }
      ],
      "stateMutability": "view",
      "type": "function"
    },
    {
      "inputs": [
        {
          "internalType": "address",
          "name": "gameBoardAddress",
          "type": "address"
        },
        {
          "internalType": "uint256",
          "name": "gameID",
          "type": "uint256"
        }
      ],
      "name": "landingSite",
      "outputs": [
        {
          "internalType": "string",
          "name": "",
          "type": "string"
        }
      ],
      "stateMutability": "view",
      "type": "function"
    },
    {
      "inputs": [
        {
          "internalType": "address",
          "name": "gameBoardAddress",
          "type": "address"
        },
        {
          "internalType": "uint256",
          "name": "gameID",
          "type": "uint256"
        }
      ],
      "name": "currentLocation",
      "outputs": [
        {
          "internalType": "string",
          "name": "",
          "type": "string"
        }
      ],
      "stateMutability": "view",
      "type": "function"
    },
    {
      "inputs": [
        {
          "internalType": "address",
          "name": "gameBoardAddress",
          "type": "address"
        },
        {
          "internalType": "uint256",
          "name": "gameID",
          "type": "uint256"
        }
      ],
      "name": "allPlayerLocations",
      "outputs": [
        {
          "internalType": "uint256[]",
          "name": "",
          "type": "uint256[]"
        },
        {
          "internalType": "string[]",
          "name": "",
          "type": "string[]"
        }
      ],
      "stateMutability": "view",
      "type": "function"
    },
    {
      "inputs": [
        {
          "internalType": "address",
          "name": "gameBoardAddress",
          "type": "address"
        },
        {
          "internalType": "uint256",
          "name": "gameID",
          "type": "uint256"
        }
      ],
      "name": "currentPlayerStats",
      "outputs": [
        {
          "internalType": "uint8",
          "name": "movement",
          "type": "uint8"
        },
        {
          "internalType": "uint8",
          "name": "agility",
          "type": "uint8"
        },
        {
          "internalType": "uint8",
          "name": "dexterity",
          "type": "uint8"
        }
      ],
      "stateMutability": "view",
      "type": "function"
    },
    {
      "inputs": [
        {
          "internalType": "address",
          "name": "gameBoardAddress",
          "type": "address"
        },
        {
          "internalType": "uint256",
          "name": "gameID",
          "type": "uint256"
        }
      ],
      "name": "currentHandInventory",
      "outputs": [
        {
          "internalType": "string",
          "name": "leftHandItem",
          "type": "string"
        },
        {
          "internalType": "string",
          "name": "rightHandItem",
          "type": "string"
        }
      ],
      "stateMutability": "view",
      "type": "function"
    },
    {
      "inputs": [
        {
          "internalType": "address",
          "name": "gameBoardAddress",
          "type": "address"
        },
        {
          "internalType": "uint256",
          "name": "gameID",
          "type": "uint256"
        }
      ],
      "name": "activeInventory",
      "outputs": [
        {
          "internalType": "string",
          "name": "artifact",
          "type": "string"
        },
        {
          "internalType": "string",
          "name": "status",
          "type": "string"
        },
        {
          "internalType": "string",
          "name": "relic",
          "type": "string"
        },
        {
          "internalType": "bool",
          "name": "shield",
          "type": "bool"
        },
        {
          "internalType": "bool",
          "name": "campsite",
          "type": "bool"
        }
      ],
      "stateMutability": "view",
      "type": "function"
    },
    {
      "inputs": [
        {
          "internalType": "address",
          "name": "gameBoardAddress",
          "type": "address"
        },
        {
          "internalType": "uint256",
          "name": "gameID",
          "type": "uint256"
        }
      ],
      "name": "inactiveInventory",
      "outputs": [
        {
          "internalType": "string[]",
          "name": "itemTypes",
          "type": "string[]"
        },
        {
          "internalType": "uint256[]",
          "name": "itemBalances",
          "type": "uint256[]"
        }
      ],
      "stateMutability": "view",
      "type": "function"
    },
    {
      "inputs": [
        {
          "internalType": "address",
          "name": "gameBoardAddress",
          "type": "address"
        },
        {
          "internalType": "uint256",
          "name": "gameID",
          "type": "uint256"
        }
      ],
      "name": "activeAction",
      "outputs": [
        {
          "internalType": "string",
          "name": "action",
          "type": "string"
        }
      ],
      "stateMutability": "view",
      "type": "function"
    }
  ],
  "bytecode": "0x6136b0610053600b82828239805160001a607314610046577f4e487b7100000000000000000000000000000000000000000000000000000000600052600060045260246000fd5b30600052607381538281f3fe73000000000000000000000000000000000000000030146080604052600436106100e35760003560e060020a90048063ab00df6c11610095578063ab00df6c146101c9578063ad7bac41146101dc578063b0be1afa146101f2578063cabd6fda14610213578063e569d33a14610236578063ee203a8e14610257578063f59bf9031461027f578063f8ffdfcc146102a357600080fd5b80632f874fe0146100e857806330f7337a146101245780636ee1173e146101455780638191e06214610154578063821ba3a11461017557806386599da814610195578063a75d3f87146101b6575b600080fd5b6100fb6100f6366004613033565b6102b6565b6040805160ff948516815292841660208401529216918101919091526060015b60405180910390f35b61013761013236600461305f565b6105b6565b60405190815260200161011b565b606060405161011b91906130dc565b610167610162366004613033565b6106b8565b60405161011b9291906131a2565b610188610183366004613033565b61093d565b60405161011b91906131c7565b6101a86101a3366004613033565b6109cd565b60405161011b9291906131da565b6101886101c4366004613033565b611942565b6101376101d7366004613033565b611b2f565b6101886101ea366004613033565b606092915050565b610205610200366004613033565b611c2a565b60405161011b9291906131ff565b61022661022136600461305f565b6120a3565b604051901515815260200161011b565b610249610244366004613033565b61219b565b60405161011b929190613224565b61026a610265366004613272565b612594565b6040805192835260208301919091520161011b565b61029261028d366004613033565b612670565b60405161011b95949392919061328f565b6101886102b1366004613033565b612d55565b600080600080859050600081600160a060020a031663a0ed600d6040518163ffffffff1660e060020a028152600401602060405180830381865afa158015610302573d6000803e3d6000fd5b505050506040513d601f19601f8201168201806040525081019061032691906132e2565b9050600082600160a060020a031663c06dea4e6040518163ffffffff1660e060020a028152600401602060405180830381865afa15801561036b573d6000803e3d6000fd5b505050506040513d601f19601f8201168201806040525081019061038f91906132e2565b9050600081600160a060020a031663bca7caa089336040518363ffffffff1660e060020a0281526004016103c49291906132ff565b602060405180830381865afa1580156103e1573d6000803e3d6000fd5b505050506040513d601f19601f820116820180604052508101906104059190613316565b6040517fe8216595000000000000000000000000000000000000000000000000000000008152600481018a905260248101829052909150600160a060020a0384169063e821659590604401602060405180830381865afa15801561046d573d6000803e3d6000fd5b505050506040513d601f19601f82011682018060405250810190610491919061332f565b6040517fd104563e000000000000000000000000000000000000000000000000000000008152600481018a905260248101839052909750600160a060020a0384169063d104563e90604401602060405180830381865afa1580156104f9573d6000803e3d6000fd5b505050506040513d601f19601f8201168201806040525081019061051d919061332f565b6040517f2af37e1d000000000000000000000000000000000000000000000000000000008152600481018a905260248101839052909650600160a060020a03841690632af37e1d90604401602060405180830381865afa158015610585573d6000803e3d6000fd5b505050506040513d601f19601f820116820180604052508101906105a9919061332f565b9450505050509250925092565b600080849050600081600160a060020a031663c06dea4e6040518163ffffffff1660e060020a028152600401602060405180830381865afa1580156105ff573d6000803e3d6000fd5b505050506040513d601f19601f8201168201806040525081019061062391906132e2565b6040517fbca7caa0000000000000000000000000000000000000000000000000000000008152909150600160a060020a0382169063bca7caa09061066d90889088906004016132ff565b602060405180830381865afa15801561068a573d6000803e3d6000fd5b505050506040513d601f19601f820116820180604052508101906106ae9190613316565b9695505050505050565b6060806000849050600081600160a060020a031663c06dea4e6040518163ffffffff1660e060020a028152600401602060405180830381865afa158015610703573d6000803e3d6000fd5b505050506040513d601f19601f8201168201806040525081019061072791906132e2565b6040517fb77ff41100000000000000000000000000000000000000000000000000000000815260048101879052909150600090600160a060020a0383169063b77ff41190602401602060405180830381865afa15801561078b573d6000803e3d6000fd5b505050506040513d601f19601f820116820180604052508101906107af9190613316565b905060008167ffffffffffffffff8111156107cc576107cc613352565b6040519080825280602002602001820160405280156107f5578160200160208202803683370190505b50905060008267ffffffffffffffff81111561081357610813613352565b60405190808252806020026020018201604052801561084657816020015b60608152602001906001900390816108315790505b50905060005b8381101561092e5761085f816001613384565b8382815181106108715761087161339c565b6020908102919091010152600160a060020a03861663d75e79808a610897846001613384565b60405160e060020a63ffffffff851602815260048101929092526024820152604401600060405180830381865afa1580156108d6573d6000803e3d6000fd5b505050506040513d6000823e601f3d908101601f191682016040526108fe9190810190613452565b8282815181106109105761091061339c565b6020026020010181905250808061092690613487565b91505061084c565b50909890975095505050505050565b6040517feb33983d00000000000000000000000000000000000000000000000000000000815260048101829052606090600160a060020a0384169063eb33983d90602401600060405180830381865afa15801561099e573d6000803e3d6000fd5b505050506040513d6000823e601f3d908101601f191682016040526109c69190810190613452565b9392505050565b6060806000849050600081600160a060020a031663c06dea4e6040518163ffffffff1660e060020a028152600401602060405180830381865afa158015610a18573d6000803e3d6000fd5b505050506040513d601f19601f82011682018060405250810190610a3c91906132e2565b9050600082600160a060020a031663cca369966040518163ffffffff1660e060020a028152600401602060405180830381865afa158015610a81573d6000803e3d6000fd5b505050506040513d601f19601f82011682018060405250810190610aa591906132e2565b60408051602380825261048082019092529192506020820161046080368337019050506040805160238082526104808201909252919550816020015b6060815260200190600190039081610ae15790505094506040518060400160405280600a81526020017f536d616c6c20416d6d6f0000000000000000000000000000000000000000000081525085600081518110610b4157610b4161339c565b60200260200101819052506040518060400160405280600a81526020017f4c6172676520416d6d6f0000000000000000000000000000000000000000000081525085600181518110610b9557610b9561339c565b60200260200101819052506040518060400160405280600981526020017f426174746572696573000000000000000000000000000000000000000000000081525085600281518110610be957610be961339c565b60200260200101819052506040518060400160405280600681526020017f536869656c64000000000000000000000000000000000000000000000000000081525085600381518110610c3d57610c3d61339c565b60200260200101819052506040518060400160405280600681526020017f506f7274616c000000000000000000000000000000000000000000000000000081525085600481518110610c9157610c9161339c565b60200260200101819052506040518060400160405280600281526020017f4f6e00000000000000000000000000000000000000000000000000000000000081525085600581518110610ce557610ce561339c565b60200260200101819052506040518060400160405280600381526020017f4f6666000000000000000000000000000000000000000000000000000000000081525085600681518110610d3957610d3961339c565b60200260200101819052506040518060400160405280600c81526020017f527573747920446167676572000000000000000000000000000000000000000081525085600781518110610d8d57610d8d61339c565b60200260200101819052506040518060400160405280600b81526020017f52757374792053776f726400000000000000000000000000000000000000000081525085600881518110610de157610de161339c565b60200260200101819052506040518060400160405280600c81526020017f527573747920506973746f6c000000000000000000000000000000000000000081525085600981518110610e3557610e3561339c565b60200260200101819052506040518060400160405280600b81526020017f5275737479205269666c6500000000000000000000000000000000000000000081525085600a81518110610e8957610e8961339c565b60200260200101819052506040518060400160405280600c81526020017f5368696e7920446167676572000000000000000000000000000000000000000081525085600b81518110610edd57610edd61339c565b60200260200101819052506040518060400160405280600b81526020017f5368696e792053776f726400000000000000000000000000000000000000000081525085600c81518110610f3157610f3161339c565b60200260200101819052506040518060400160405280600c81526020017f5368696e7920506973746f6c000000000000000000000000000000000000000081525085600d81518110610f8557610f8561339c565b60200260200101819052506040518060400160405280600b81526020017f5368696e79205269666c6500000000000000000000000000000000000000000081525085600e81518110610fd957610fd961339c565b60200260200101819052506040518060400160405280600c81526020017f4c6173657220446167676572000000000000000000000000000000000000000081525085600f8151811061102d5761102d61339c565b60200260200101819052506040518060400160405280600b81526020017f4c617365722053776f7264000000000000000000000000000000000000000000815250856010815181106110815761108161339c565b60200260200101819052506040518060400160405280600c81526020017f4c6173657220506973746f6c0000000000000000000000000000000000000000815250856011815181106110d5576110d561339c565b60200260200101819052506040518060400160405280600b81526020017f4c61736572205269666c65000000000000000000000000000000000000000000815250856012815181106111295761112961339c565b60200260200101819052506040518060400160405280600a81526020017f476c6f7720737469636b000000000000000000000000000000000000000000008152508560138151811061117d5761117d61339c565b60200260200101819052506040518060400160405280600a81526020017f466c6173686c6967687400000000000000000000000000000000000000000000815250856014815181106111d1576111d161339c565b60200260200101819052506040518060400160405280600b81526020017f466c6f6f64206c69676874000000000000000000000000000000000000000000815250856015815181106112255761122561339c565b60200260200101819052506040518060400160405280601381526020017f4e69676874766973696f6e20476f67676c657300000000000000000000000000815250856016815181106112795761127961339c565b60200260200101819052506040518060400160405280600f81526020017f506572736f6e616c20536869656c640000000000000000000000000000000000815250856017815181106112cd576112cd61339c565b60200260200101819052506040518060400160405280600d81526020017f427562626c6520536869656c6400000000000000000000000000000000000000815250856018815181106113215761132161339c565b60200260200101819052506040518060400160405280600c81526020017f46726167204772656e6164650000000000000000000000000000000000000000815250856019815181106113755761137561339c565b60200260200101819052506040518060400160405280600c81526020017f46697265204772656e616465000000000000000000000000000000000000000081525085601a815181106113c9576113c961339c565b60200260200101819052506040518060400160405280600d81526020017f53686f636b204772656e6164650000000000000000000000000000000000000081525085601b8151811061141d5761141d61339c565b60200260200101819052506040518060400160405280600981526020017f4845204d6f72746172000000000000000000000000000000000000000000000081525085601c815181106114715761147161339c565b60200260200101819052506040518060400160405280601181526020017f496e63656e6469617279204d6f7274617200000000000000000000000000000081525085601d815181106114c5576114c561339c565b60200260200101819052506040518060400160405280600a81526020017f454d50204d6f727461720000000000000000000000000000000000000000000081525085601e815181106115195761151961339c565b60200260200101819052506040518060400160405280600b81526020017f506f77657220476c6f766500000000000000000000000000000000000000000081525085601f8151811061156d5761156d61339c565b602002602001018190525060405180606001604052806021815260200161365a60219139856020815181106115a4576115a461339c565b60200260200101819052506040518060400160405280600f81526020017f54656c65706f72746572205061636b0000000000000000000000000000000000815250856021815181106115f8576115f861339c565b60200260200101819052506040518060400160405280600881526020017f43616d70736974650000000000000000000000000000000000000000000000008152508560228151811061164c5761164c61339c565b6020026020010181905250600082600160a060020a031663bca7caa088336040518363ffffffff1660e060020a02815260040161168a9291906132ff565b602060405180830381865afa1580156116a7573d6000803e3d6000fd5b505050506040513d601f19601f820116820180604052508101906116cb9190613316565b6040517f01d37be4000000000000000000000000000000000000000000000000000000008152909150600160a060020a038316906301d37be4906117189084906003908c906004016134bb565b602060405180830381865afa158015611735573d6000803e3d6000fd5b505050506040513d601f19601f8201168201806040525081019061175991906134f4565b1561193757600082600160a060020a031663a318d45c6040518163ffffffff1660e060020a028152600401602060405180830381865afa1580156117a1573d6000803e3d6000fd5b505050506040513d601f19601f820116820180604052508101906117c591906132e2565b9050600081600160a060020a031663c853a1d06040518163ffffffff1660e060020a028152600401600060405180830381865afa15801561180a573d6000803e3d6000fd5b505050506040513d6000823e601f3d908101601f191682016040526118329190810190613516565b905060005b8751811015611933578181815181106118525761185261339c565b602002602001015189828151811061186c5761186c61339c565b602002602001018190525082600160a060020a0316634db157d08383815181106118985761189861339c565b60200260200101518c876040518463ffffffff1660e060020a0281526004016118c3939291906135d8565b602060405180830381865afa1580156118e0573d6000803e3d6000fd5b505050506040513d601f19601f820116820180604052508101906119049190613316565b8882815181106119165761191661339c565b60209081029190910101528061192b81613487565b915050611837565b5050505b505050509250929050565b60606000839050600081600160a060020a031663cca369966040518163ffffffff1660e060020a028152600401602060405180830381865afa15801561198c573d6000803e3d6000fd5b505050506040513d601f19601f820116820180604052508101906119b091906132e2565b9050600081600160a060020a031663a906dfd16040518163ffffffff1660e060020a028152600401602060405180830381865afa1580156119f5573d6000803e3d6000fd5b505050506040513d601f19601f82011682018060405250810190611a1991906132e2565b6040517f4db157d0000000000000000000000000000000000000000000000000000000008152606060048201526003606482015260e860020a624461790260848201526024810187905260016044820152600160a060020a039190911690634db157d09060a401602060405180830381865afa158015611a9d573d6000803e3d6000fd5b505050506040513d601f19601f82011682018060405250810190611ac19190613316565b905060008111611b06576040518060400160405280600581526020017f4e696768740000000000000000000000000000000000000000000000000000008152506106ae565b60405180604001604052806003815260200160e860020a62446179028152509695505050505050565b600080839050600081600160a060020a031663cefe23296040518163ffffffff1660e060020a028152600401602060405180830381865afa158015611b78573d6000803e3d6000fd5b505050506040513d601f19601f82011682018060405250810190611b9c91906132e2565b6040517f861814e200000000000000000000000000000000000000000000000000000000815260048101869052909150600160a060020a0382169063861814e290602401602060405180830381865afa158015611bfd573d6000803e3d6000fd5b505050506040513d601f19601f82011682018060405250810190611c219190613316565b95945050505050565b6060806000849050600081600160a060020a031663a0ed600d6040518163ffffffff1660e060020a028152600401602060405180830381865afa158015611c75573d6000803e3d6000fd5b505050506040513d601f19601f82011682018060405250810190611c9991906132e2565b9050600082600160a060020a031663c06dea4e6040518163ffffffff1660e060020a028152600401602060405180830381865afa158015611cde573d6000803e3d6000fd5b505050506040513d601f19601f82011682018060405250810190611d0291906132e2565b9050600081600160a060020a031663bca7caa088336040518363ffffffff1660e060020a028152600401611d379291906132ff565b602060405180830381865afa158015611d54573d6000803e3d6000fd5b505050506040513d601f19601f82011682018060405250810190611d789190613316565b60405160e060020a637dcfa2910281526004810189905260248101829052909150611f3890600160a060020a03851690637dcfa291906044015b600060405180830381865afa158015611dcf573d6000803e3d6000fd5b505050506040513d6000823e601f3d908101601f19168201604052611df79190810190613452565b85600160a060020a031663cca369966040518163ffffffff1660e060020a028152600401602060405180830381865afa158015611e38573d6000803e3d6000fd5b505050506040513d601f19601f82011682018060405250810190611e5c91906132e2565b8987600160a060020a031663c06dea4e6040518163ffffffff1660e060020a028152600401602060405180830381865afa158015611e9e573d6000803e3d6000fd5b505050506040513d601f19601f82011682018060405250810190611ec291906132e2565b600160a060020a031663bca7caa08c336040518363ffffffff1660e060020a028152600401611ef29291906132ff565b602060405180830381865afa158015611f0f573d6000803e3d6000fd5b505050506040513d601f19601f82011682018060405250810190611f339190613316565b612eae565b611f515760405180602001604052806000815250611fc8565b60405160e060020a637dcfa2910281526004810188905260248101829052600160a060020a03841690637dcfa29190604401600060405180830381865afa158015611fa0573d6000803e3d6000fd5b505050506040513d6000823e601f3d908101601f19168201604052611fc89190810190613452565b60405160e060020a639c220647028152600481018990526024810183905290965061200690600160a060020a03851690639c22064790604401611db2565b61201f5760405180602001604052806000815250612096565b60405160e060020a639c2206470281526004810188905260248101829052600160a060020a03841690639c22064790604401600060405180830381865afa15801561206e573d6000803e3d6000fd5b505050506040513d6000823e601f3d908101601f191682016040526120969190810190613452565b9450505050509250929050565b600080849050600081600160a060020a031663c06dea4e6040518163ffffffff1660e060020a028152600401602060405180830381865afa1580156120ec573d6000803e3d6000fd5b505050506040513d601f19601f8201168201806040525081019061211091906132e2565b6040517fb81f6e18000000000000000000000000000000000000000000000000000000008152909150600160a060020a0382169063b81f6e189061215a90889088906004016132ff565b602060405180830381865afa158015612177573d6000803e3d6000fd5b505050506040513d601f19601f820116820180604052508101906106ae91906134f4565b6060806000849050600081600160a060020a0316633ca61a586040518163ffffffff1660e060020a028152600401600060405180830381865afa1580156121e6573d6000803e3d6000fd5b505050506040513d6000823e601f3d908101601f1916820160405261220e9190810190613516565b90506000805b82518110156122cd5783600160a060020a031663ed3719a58885848151811061223f5761223f61339c565b60200260200101516040518363ffffffff1660e060020a0281526004016122679291906135fd565b602060405180830381865afa158015612284573d6000803e3d6000fd5b505050506040513d601f19601f820116820180604052508101906122a891906134f4565b156122bb57816122b781613616565b9250505b806122c581613487565b915050612214565b508061ffff1667ffffffffffffffff8111156122eb576122eb613352565b60405190808252806020026020018201604052801561231e57816020015b60608152602001906001900390816123095790505b5094508061ffff1667ffffffffffffffff81111561233e5761233e613352565b604051908082528060200260200182016040528015612367578160200160208202803683370190505b5093506000905060005b82518110156119375783600160a060020a031663ed3719a58885848151811061239c5761239c61339c565b60200260200101516040518363ffffffff1660e060020a0281526004016123c49291906135fd565b602060405180830381865afa1580156123e1573d6000803e3d6000fd5b505050506040513d601f19601f8201168201806040525081019061240591906134f4565b156125825782818151811061241c5761241c61339c565b6020026020010151868361ffff168151811061243a5761243a61339c565b6020026020010181905250600084600160a060020a03166335e333e46040518163ffffffff1660e060020a028152600401602060405180830381865afa158015612488573d6000803e3d6000fd5b505050506040513d601f19601f820116820180604052508101906124ac91906132e2565b905080600160a060020a03166330821b9c898685815181106124d0576124d061339c565b60200260200101516040518363ffffffff1660e060020a0281526004016124f89291906135fd565b602060405180830381865afa158015612515573d6000803e3d6000fd5b505050506040513d601f19601f820116820180604052508101906125399190613638565b600b81111561254a5761254a6134a2565b868461ffff16815181106125605761256061339c565b61ffff909216602092830291909101909101528261257d81613616565b935050505b8061258c81613487565b915050612371565b600080600083905080600160a060020a031663108c5e146040518163ffffffff1660e060020a028152600401602060405180830381865afa1580156125dd573d6000803e3d6000fd5b505050506040513d601f19601f820116820180604052508101906126019190613316565b925080600160a060020a03166338b145df6040518163ffffffff1660e060020a028152600401602060405180830381865afa158015612644573d6000803e3d6000fd5b505050506040513d601f19601f820116820180604052508101906126689190613316565b915050915091565b60608060606000806000879050600081600160a060020a031663a0ed600d6040518163ffffffff1660e060020a028152600401602060405180830381865afa1580156126c0573d6000803e3d6000fd5b505050506040513d601f19601f820116820180604052508101906126e491906132e2565b9050600082600160a060020a031663c06dea4e6040518163ffffffff1660e060020a028152600401602060405180830381865afa158015612729573d6000803e3d6000fd5b505050506040513d601f19601f8201168201806040525081019061274d91906132e2565b9050600081600160a060020a031663bca7caa08b336040518363ffffffff1660e060020a0281526004016127829291906132ff565b602060405180830381865afa15801561279f573d6000803e3d6000fd5b505050506040513d601f19601f820116820180604052508101906127c39190613316565b60405160e060020a63d27ffd0d028152600481018c9052602481018290529091506128ad90600160a060020a0385169063d27ffd0d90604401600060405180830381865afa158015612819573d6000803e3d6000fd5b505050506040513d6000823e601f3d908101601f191682016040526128419190810190613452565b85600160a060020a031663cca369966040518163ffffffff1660e060020a028152600401602060405180830381865afa158015612882573d6000803e3d6000fd5b505050506040513d601f19601f820116820180604052508101906128a691906132e2565b8c84612f93565b6128c6576040518060200160405280600081525061293d565b60405160e060020a63d27ffd0d028152600481018b905260248101829052600160a060020a0384169063d27ffd0d90604401600060405180830381865afa158015612915573d6000803e3d6000fd5b505050506040513d6000823e601f3d908101601f1916820160405261293d9190810190613452565b60405160e160020a6359eec01d028152600481018c905260248101839052909950612a2790600160a060020a0385169063b3dd803a90604401600060405180830381865afa158015612993573d6000803e3d6000fd5b505050506040513d6000823e601f3d908101601f191682016040526129bb9190810190613452565b85600160a060020a031663cca369966040518163ffffffff1660e060020a028152600401602060405180830381865afa1580156129fc573d6000803e3d6000fd5b505050506040513d601f19601f82011682018060405250810190612a2091906132e2565b8c84612fd7565b612a405760405180602001604052806000815250612ab7565b60405160e160020a6359eec01d028152600481018b905260248101829052600160a060020a0384169063b3dd803a90604401600060405180830381865afa158015612a8f573d6000803e3d6000fd5b505050506040513d6000823e601f3d908101601f19168201604052612ab79190810190613452565b60405160e360020a63150cfdef028152600481018c905260248101839052909850612ba190600160a060020a0385169063a867ef7890604401600060405180830381865afa158015612b0d573d6000803e3d6000fd5b505050506040513d6000823e601f3d908101601f19168201604052612b359190810190613452565b85600160a060020a031663cca369966040518163ffffffff1660e060020a028152600401602060405180830381865afa158015612b76573d6000803e3d6000fd5b505050506040513d601f19601f82011682018060405250810190612b9a91906132e2565b8c84612eae565b612bba5760405180602001604052806000815250612c31565b60405160e360020a63150cfdef028152600481018b905260248101829052600160a060020a0384169063a867ef7890604401600060405180830381865afa158015612c09573d6000803e3d6000fd5b505050506040513d6000823e601f3d908101601f19168201604052612c319190810190613452565b9650612cad6040518060400160405280600681526020017f536869656c64000000000000000000000000000000000000000000000000000081525085600160a060020a031663cca369966040518163ffffffff1660e060020a028152600401602060405180830381865afa158015612b76573d6000803e3d6000fd5b612cb8576000612cbb565b60015b9550612d376040518060400160405280600881526020017f43616d707369746500000000000000000000000000000000000000000000000081525085600160a060020a031663cca369966040518163ffffffff1660e060020a028152600401602060405180830381865afa158015612b76573d6000803e3d6000fd5b612d42576000612d45565b60015b9450505050509295509295909350565b60606000839050600081600160a060020a031663c06dea4e6040518163ffffffff1660e060020a028152600401602060405180830381865afa158015612d9f573d6000803e3d6000fd5b505050506040513d601f19601f82011682018060405250810190612dc391906132e2565b905081600160a060020a031663d75e79808583600160a060020a031663bca7caa088336040518363ffffffff1660e060020a028152600401612e069291906132ff565b602060405180830381865afa158015612e23573d6000803e3d6000fd5b505050506040513d601f19601f82011682018060405250810190612e479190613316565b60405160e060020a63ffffffff851602815260048101929092526024820152604401600060405180830381865afa158015612e86573d6000803e3d6000fd5b505050506040513d6000823e601f3d908101601f19168201604052611c219190810190613452565b60008084600160a060020a031663a318d45c6040518163ffffffff1660e060020a028152600401602060405180830381865afa158015612ef2573d6000803e3d6000fd5b505050506040513d601f19601f82011682018060405250810190612f1691906132e2565b600160a060020a0316634db157d08786866040518463ffffffff1660e060020a028152600401612f48939291906135d8565b602060405180830381865afa158015612f65573d6000803e3d6000fd5b505050506040513d601f19601f82011682018060405250810190612f899190613316565b1195945050505050565b60008084600160a060020a03166345d339d96040518163ffffffff1660e060020a028152600401602060405180830381865afa158015612ef2573d6000803e3d6000fd5b60008084600160a060020a031663c1cdbb3c6040518163ffffffff1660e060020a028152600401602060405180830381865afa158015612ef2573d6000803e3d6000fd5b600160a060020a038116811461303057600080fd5b50565b6000806040838503121561304657600080fd5b82356130518161301b565b946020939093013593505050565b60008060006060848603121561307457600080fd5b833561307f8161301b565b92506020840135915060408401356130968161301b565b809150509250925092565b600081518084526020808501945080840160005b838110156130d1578151875295820195908201906001016130b5565b509495945050505050565b6020815260006109c660208301846130a1565b60005b8381101561310a5781810151838201526020016130f2565b83811115613119576000848401525b50505050565b600081518084526131378160208601602086016130ef565b601f01601f19169290920160200192915050565b6000828251808552602080860195508081830284010181860160005b8481101561319557601f1986840301895261318383835161311f565b98840198925090830190600101613167565b5090979650505050505050565b6040815260006131b560408301856130a1565b8281036020840152611c21818561314b565b6020815260006109c6602083018461311f565b6040815260006131ed604083018561314b565b8281036020840152611c2181856130a1565b604081526000613212604083018561311f565b8281036020840152611c21818561311f565b604081526000613237604083018561314b565b82810360208481019190915284518083528582019282019060005b8181101561319557845161ffff1683529383019391830191600101613252565b60006020828403121561328457600080fd5b81356109c68161301b565b60a0815260006132a260a083018861311f565b82810360208401526132b4818861311f565b905082810360408401526132c8818761311f565b941515606084015250509015156080909101529392505050565b6000602082840312156132f457600080fd5b81516109c68161301b565b918252600160a060020a0316602082015260400190565b60006020828403121561332857600080fd5b5051919050565b60006020828403121561334157600080fd5b815160ff811681146109c657600080fd5b60e060020a634e487b7102600052604160045260246000fd5b60e060020a634e487b7102600052601160045260246000fd5b600082198211156133975761339761336b565b500190565b60e060020a634e487b7102600052603260045260246000fd5b604051601f8201601f1916810167ffffffffffffffff811182821017156133de576133de613352565b604052919050565b600082601f8301126133f757600080fd5b815167ffffffffffffffff81111561341157613411613352565b613424601f8201601f19166020016133b5565b81815284602083860101111561343957600080fd5b61344a8260208301602087016130ef565b949350505050565b60006020828403121561346457600080fd5b815167ffffffffffffffff81111561347b57600080fd5b61344a848285016133e6565b600060001982141561349b5761349b61336b565b5060010190565b60e060020a634e487b7102600052602160045260246000fd5b83815260608101600784106134e35760e060020a634e487b7102600052602160045260246000fd5b602082019390935260400152919050565b60006020828403121561350657600080fd5b815180151581146109c657600080fd5b6000602080838503121561352957600080fd5b825167ffffffffffffffff8082111561354157600080fd5b818501915085601f83011261355557600080fd5b81518181111561356757613567613352565b8381026135758582016133b5565b918252838101850191858101908984111561358f57600080fd5b86860192505b838310156135cb578251858111156135ad5760008081fd5b6135bb8b89838a01016133e6565b8352509186019190860190613595565b9998505050505050505050565b6060815260006135eb606083018661311f565b60208301949094525060400152919050565b82815260406020820152600061344a604083018461311f565b600061ffff8083168181141561362e5761362e61336b565b6001019392505050565b60006020828403121561364a57600080fd5b8151600c81106109c657600080fdfe52656d6f7465204c61756e636820616e642047756964616e63652053797374656da2646970667358221220312906f087c8eaada403482a742932048804a805f7f927f8734658ddfc05bb2f64736f6c634300080b0033",
  "immutableReferences": {},
  "source": "// SPDX-License-Identifier: GPL-3.0\npragma solidity >=0.8.0;\n\nimport \"../HexplorationBoard.sol\";\nimport \"../HexplorationZone.sol\";\nimport \"@luckymachines/game-core/contracts/src/v0.0/PlayerRegistry.sol\";\nimport \"./CharacterCard.sol\";\nimport \"../tokens/TokenInventory.sol\";\nimport \"../HexplorationQueue.sol\";\n\nlibrary GameSummary {\n    // enemies\n    // tokens\n    function boardSize(address gameBoardAddress)\n        public\n        view\n        returns (uint256 rows, uint256 columns)\n    {\n        HexplorationBoard board = HexplorationBoard(gameBoardAddress);\n        rows = board.gridHeight();\n        columns = board.gridWidth();\n    }\n\n    function isRegistered(\n        address gameBoardAddress,\n        uint256 gameID,\n        address playerAddress\n    ) public view returns (bool) {\n        HexplorationBoard board = HexplorationBoard(gameBoardAddress);\n        PlayerRegistry pr = PlayerRegistry(board.prAddress());\n        return pr.isRegistered(gameID, playerAddress);\n    }\n\n    function getPlayerID(\n        address gameBoardAddress,\n        uint256 gameID,\n        address playerAddress\n    ) public view returns (uint256 playerID) {\n        HexplorationBoard board = HexplorationBoard(gameBoardAddress);\n        PlayerRegistry pr = PlayerRegistry(board.prAddress());\n        playerID = pr.playerID(gameID, playerAddress);\n    }\n\n    function getAvailableGameIDs() public view returns (uint256[] memory) {\n        // TODO: return available game IDs\n    }\n\n    function currentGameplayQueue(address gameBoardAddress, uint256 gameID)\n        public\n        view\n        returns (uint256)\n    {\n        HexplorationBoard board = HexplorationBoard(gameBoardAddress);\n        HexplorationQueue q = HexplorationQueue(board.gameplayQueue());\n        return q.queueID(gameID);\n    }\n\n    function currentPhase(address gameBoardAddress, uint256 gameID)\n        public\n        view\n        returns (string memory phase)\n    {\n        HexplorationBoard board = HexplorationBoard(gameBoardAddress);\n        TokenInventory tokens = TokenInventory(board.tokenInventory());\n\n        uint256 dayBalance = tokens.DAY_NIGHT_TOKEN().balance(\"Day\", gameID, 1);\n        phase = dayBalance > 0 ? \"Day\" : \"Night\";\n    }\n\n    function activeZones(address gameBoardAddress, uint256 gameID)\n        public\n        view\n        returns (string[] memory zones, uint16[] memory tiles)\n    {\n        HexplorationBoard board = HexplorationBoard(gameBoardAddress);\n        string[] memory allZones = board.getZoneAliases();\n\n        uint16 activeZoneCount = 0;\n        for (uint256 i = 0; i < allZones.length; i++) {\n            if (board.zoneEnabled(gameID, allZones[i])) {\n                activeZoneCount++;\n            }\n        }\n        zones = new string[](activeZoneCount);\n        tiles = new uint16[](activeZoneCount);\n\n        activeZoneCount = 0;\n        for (uint256 i = 0; i < allZones.length; i++) {\n            if (board.zoneEnabled(gameID, allZones[i])) {\n                zones[activeZoneCount] = allZones[i];\n                HexplorationZone hexZone = HexplorationZone(\n                    board.hexZoneAddress()\n                );\n                tiles[activeZoneCount] = uint16(\n                    hexZone.tile(gameID, allZones[i])\n                );\n                activeZoneCount++;\n            }\n        }\n    }\n\n    function landingSite(address gameBoardAddress, uint256 gameID)\n        public\n        view\n        returns (string memory)\n    {\n        return HexplorationBoard(gameBoardAddress).initialPlayZone(gameID);\n    }\n\n    function currentLocation(address gameBoardAddress, uint256 gameID)\n        public\n        view\n        returns (string memory)\n    {\n        HexplorationBoard board = HexplorationBoard(gameBoardAddress);\n        PlayerRegistry pr = PlayerRegistry(board.prAddress());\n        return board.currentPlayZone(gameID, pr.playerID(gameID, msg.sender));\n    }\n\n    function allPlayerLocations(address gameBoardAddress, uint256 gameID)\n        public\n        view\n        returns (uint256[] memory, string[] memory)\n    {\n        HexplorationBoard board = HexplorationBoard(gameBoardAddress);\n        PlayerRegistry pr = PlayerRegistry(board.prAddress());\n        uint256 totalRegistrations = pr.totalRegistrations(gameID);\n        uint256[] memory playerIDs = new uint256[](totalRegistrations);\n        string[] memory playerZones = new string[](totalRegistrations);\n        for (uint256 i = 0; i < totalRegistrations; i++) {\n            playerIDs[i] = i + 1;\n            playerZones[i] = board.currentPlayZone(gameID, i + 1);\n        }\n        return (playerIDs, playerZones);\n    }\n\n    function inventoryItemExists(\n        string memory tokenType,\n        address inventoryAddress,\n        uint256 gameID,\n        uint256 holderID\n    ) internal view returns (bool) {\n        return\n            TokenInventory(inventoryAddress).ITEM_TOKEN().balance(\n                tokenType,\n                gameID,\n                holderID\n            ) > 0;\n    }\n\n    function inventoryArtifactExists(\n        string memory tokenType,\n        address inventoryAddress,\n        uint256 gameID,\n        uint256 holderID\n    ) internal view returns (bool) {\n        return\n            TokenInventory(inventoryAddress).ARTIFACT_TOKEN().balance(\n                tokenType,\n                gameID,\n                holderID\n            ) > 0;\n    }\n\n    function inventoryStatusExists(\n        string memory tokenType,\n        address inventoryAddress,\n        uint256 gameID,\n        uint256 holderID\n    ) internal view returns (bool) {\n        return\n            TokenInventory(inventoryAddress).PLAYER_STATUS_TOKEN().balance(\n                tokenType,\n                gameID,\n                holderID\n            ) > 0;\n    }\n\n    function currentPlayerStats(address gameBoardAddress, uint256 gameID)\n        public\n        view\n        returns (\n            uint8 movement,\n            uint8 agility,\n            uint8 dexterity\n        )\n    {\n        HexplorationBoard board = HexplorationBoard(gameBoardAddress);\n        CharacterCard cc = CharacterCard(board.characterCard());\n        PlayerRegistry pr = PlayerRegistry(board.prAddress());\n        uint256 playerID = pr.playerID(gameID, msg.sender);\n        movement = cc.movement(gameID, playerID);\n        agility = cc.agility(gameID, playerID);\n        dexterity = cc.dexterity(gameID, playerID);\n    }\n\n    function currentHandInventory(address gameBoardAddress, uint256 gameID)\n        public\n        view\n        returns (string memory leftHandItem, string memory rightHandItem)\n    {\n        HexplorationBoard board = HexplorationBoard(gameBoardAddress);\n        CharacterCard cc = CharacterCard(board.characterCard());\n        PlayerRegistry pr = PlayerRegistry(board.prAddress());\n        uint256 playerID = pr.playerID(gameID, msg.sender);\n        leftHandItem = inventoryItemExists(\n            cc.leftHandItem(gameID, playerID),\n            board.tokenInventory(),\n            gameID,\n            PlayerRegistry(board.prAddress()).playerID(gameID, msg.sender)\n        )\n            ? cc.leftHandItem(gameID, playerID)\n            : \"\";\n\n        rightHandItem = inventoryItemExists(\n            cc.rightHandItem(gameID, playerID),\n            board.tokenInventory(),\n            gameID,\n            PlayerRegistry(board.prAddress()).playerID(gameID, msg.sender)\n        )\n            ? cc.rightHandItem(gameID, playerID)\n            : \"\";\n    }\n\n    function activeInventory(address gameBoardAddress, uint256 gameID)\n        public\n        view\n        returns (\n            string memory artifact,\n            string memory status,\n            string memory relic,\n            bool shield,\n            bool campsite\n        )\n    {\n        HexplorationBoard board = HexplorationBoard(gameBoardAddress);\n        CharacterCard cc = CharacterCard(board.characterCard());\n        PlayerRegistry pr = PlayerRegistry(board.prAddress());\n        uint256 playerID = pr.playerID(gameID, msg.sender);\n        artifact = inventoryArtifactExists(\n            cc.artifact(gameID, playerID),\n            board.tokenInventory(),\n            gameID,\n            playerID\n        )\n            ? cc.artifact(gameID, playerID)\n            : \"\";\n\n        status = inventoryStatusExists(\n            cc.status(gameID, playerID),\n            board.tokenInventory(),\n            gameID,\n            playerID\n        )\n            ? cc.status(gameID, playerID)\n            : \"\";\n\n        relic = inventoryItemExists(\n            cc.relic(gameID, playerID),\n            board.tokenInventory(),\n            gameID,\n            playerID\n        )\n            ? cc.relic(gameID, playerID)\n            : \"\";\n\n        shield = inventoryItemExists(\n            \"Shield\",\n            board.tokenInventory(),\n            gameID,\n            playerID\n        )\n            ? true\n            : false;\n\n        campsite = inventoryItemExists(\n            \"Campsite\",\n            board.tokenInventory(),\n            gameID,\n            playerID\n        )\n            ? true\n            : false;\n    }\n\n    function inactiveInventory(address gameBoardAddress, uint256 gameID)\n        public\n        view\n        returns (string[] memory itemTypes, uint256[] memory itemBalances)\n    {\n        HexplorationBoard board = HexplorationBoard(gameBoardAddress);\n        PlayerRegistry pr = PlayerRegistry(board.prAddress());\n        TokenInventory ti = TokenInventory(board.tokenInventory());\n        itemBalances = new uint256[](35);\n        itemTypes = new string[](35);\n        itemTypes[0] = \"Small Ammo\";\n        itemTypes[1] = \"Large Ammo\";\n        itemTypes[2] = \"Batteries\";\n        itemTypes[3] = \"Shield\";\n        itemTypes[4] = \"Portal\";\n        itemTypes[5] = \"On\";\n        itemTypes[6] = \"Off\";\n        itemTypes[7] = \"Rusty Dagger\";\n        itemTypes[8] = \"Rusty Sword\";\n        itemTypes[9] = \"Rusty Pistol\";\n        itemTypes[10] = \"Rusty Rifle\";\n        itemTypes[11] = \"Shiny Dagger\";\n        itemTypes[12] = \"Shiny Sword\";\n        itemTypes[13] = \"Shiny Pistol\";\n        itemTypes[14] = \"Shiny Rifle\";\n        itemTypes[15] = \"Laser Dagger\";\n        itemTypes[16] = \"Laser Sword\";\n        itemTypes[17] = \"Laser Pistol\";\n        itemTypes[18] = \"Laser Rifle\";\n        itemTypes[19] = \"Glow stick\";\n        itemTypes[20] = \"Flashlight\";\n        itemTypes[21] = \"Flood light\";\n        itemTypes[22] = \"Nightvision Goggles\";\n        itemTypes[23] = \"Personal Shield\";\n        itemTypes[24] = \"Bubble Shield\";\n        itemTypes[25] = \"Frag Grenade\";\n        itemTypes[26] = \"Fire Grenade\";\n        itemTypes[27] = \"Shock Grenade\";\n        itemTypes[28] = \"HE Mortar\";\n        itemTypes[29] = \"Incendiary Mortar\";\n        itemTypes[30] = \"EMP Mortar\";\n        itemTypes[31] = \"Power Glove\";\n        itemTypes[32] = \"Remote Launch and Guidance System\";\n        itemTypes[33] = \"Teleporter Pack\";\n        itemTypes[34] = \"Campsite\";\n        uint256 playerID = pr.playerID(gameID, msg.sender);\n        if (ti.holdsToken(playerID, TokenInventory.Token.Item, gameID)) {\n            Item itemToken = ti.ITEM_TOKEN();\n            string[] memory types = itemToken.getTokenTypes();\n            for (uint256 i = 0; i < itemBalances.length; i++) {\n                itemTypes[i] = types[i];\n                itemBalances[i] = itemToken.balance(types[i], gameID, playerID);\n            }\n        }\n        // uint256 campsiteBalance = ti.ITEM_TOKEN().balance(\n        //     \"Campsite\",\n        //     gameID,\n        //     playerID\n        // );\n        // itemBalances[34] = campsiteBalance;\n    }\n\n    function activeAction(address gameBoardAddress, uint256 gameID)\n        public\n        view\n        returns (string memory action)\n    {}\n}\n",
  "sourcePath": "/Users/maxmeier/Developer/Lucky Machines/hexploration/contracts/state/GameSummary.sol",
  "compiler": {
    "name": "solc",
    "version": "0.8.11+commit.d7f03943.Emscripten.clang"
  },
  "schemaVersion": "3.4.4",
  "updatedAt": "2022-05-25T03:09:23.401Z",
  "devdoc": {
    "kind": "dev",
    "methods": {},
    "version": 1
  },
  "userdoc": {
    "kind": "user",
    "methods": {},
    "version": 1
  }
}