{
  "contractName": "GameRegistry",
  "abi": [
    {
      "inputs": [
        {
          "internalType": "address",
          "name": "adminAddress",
          "type": "address"
        }
      ],
      "stateMutability": "nonpayable",
      "type": "constructor"
    },
    {
      "anonymous": false,
      "inputs": [
        {
          "indexed": true,
          "internalType": "bytes32",
          "name": "role",
          "type": "bytes32"
        },
        {
          "indexed": true,
          "internalType": "bytes32",
          "name": "previousAdminRole",
          "type": "bytes32"
        },
        {
          "indexed": true,
          "internalType": "bytes32",
          "name": "newAdminRole",
          "type": "bytes32"
        }
      ],
      "name": "RoleAdminChanged",
      "type": "event"
    },
    {
      "anonymous": false,
      "inputs": [
        {
          "indexed": true,
          "internalType": "bytes32",
          "name": "role",
          "type": "bytes32"
        },
        {
          "indexed": true,
          "internalType": "address",
          "name": "account",
          "type": "address"
        },
        {
          "indexed": true,
          "internalType": "address",
          "name": "sender",
          "type": "address"
        }
      ],
      "name": "RoleGranted",
      "type": "event"
    },
    {
      "anonymous": false,
      "inputs": [
        {
          "indexed": true,
          "internalType": "bytes32",
          "name": "role",
          "type": "bytes32"
        },
        {
          "indexed": true,
          "internalType": "address",
          "name": "account",
          "type": "address"
        },
        {
          "indexed": true,
          "internalType": "address",
          "name": "sender",
          "type": "address"
        }
      ],
      "name": "RoleRevoked",
      "type": "event"
    },
    {
      "inputs": [],
      "name": "DEFAULT_ADMIN_ROLE",
      "outputs": [
        {
          "internalType": "bytes32",
          "name": "",
          "type": "bytes32"
        }
      ],
      "stateMutability": "view",
      "type": "function"
    },
    {
      "inputs": [],
      "name": "GAME_BOARD_ROLE",
      "outputs": [
        {
          "internalType": "bytes32",
          "name": "",
          "type": "bytes32"
        }
      ],
      "stateMutability": "view",
      "type": "function"
    },
    {
      "inputs": [
        {
          "internalType": "uint256",
          "name": "",
          "type": "uint256"
        }
      ],
      "name": "gameBoard",
      "outputs": [
        {
          "internalType": "address",
          "name": "",
          "type": "address"
        }
      ],
      "stateMutability": "view",
      "type": "function"
    },
    {
      "inputs": [
        {
          "internalType": "address",
          "name": "",
          "type": "address"
        },
        {
          "internalType": "uint256",
          "name": "",
          "type": "uint256"
        }
      ],
      "name": "gameIDs",
      "outputs": [
        {
          "internalType": "uint256",
          "name": "",
          "type": "uint256"
        }
      ],
      "stateMutability": "view",
      "type": "function"
    },
    {
      "inputs": [
        {
          "internalType": "bytes32",
          "name": "role",
          "type": "bytes32"
        }
      ],
      "name": "getRoleAdmin",
      "outputs": [
        {
          "internalType": "bytes32",
          "name": "",
          "type": "bytes32"
        }
      ],
      "stateMutability": "view",
      "type": "function"
    },
    {
      "inputs": [
        {
          "internalType": "bytes32",
          "name": "role",
          "type": "bytes32"
        },
        {
          "internalType": "uint256",
          "name": "index",
          "type": "uint256"
        }
      ],
      "name": "getRoleMember",
      "outputs": [
        {
          "internalType": "address",
          "name": "",
          "type": "address"
        }
      ],
      "stateMutability": "view",
      "type": "function"
    },
    {
      "inputs": [
        {
          "internalType": "bytes32",
          "name": "role",
          "type": "bytes32"
        }
      ],
      "name": "getRoleMemberCount",
      "outputs": [
        {
          "internalType": "uint256",
          "name": "",
          "type": "uint256"
        }
      ],
      "stateMutability": "view",
      "type": "function"
    },
    {
      "inputs": [
        {
          "internalType": "bytes32",
          "name": "role",
          "type": "bytes32"
        },
        {
          "internalType": "address",
          "name": "account",
          "type": "address"
        }
      ],
      "name": "grantRole",
      "outputs": [],
      "stateMutability": "nonpayable",
      "type": "function"
    },
    {
      "inputs": [
        {
          "internalType": "bytes32",
          "name": "role",
          "type": "bytes32"
        },
        {
          "internalType": "address",
          "name": "account",
          "type": "address"
        }
      ],
      "name": "hasRole",
      "outputs": [
        {
          "internalType": "bool",
          "name": "",
          "type": "bool"
        }
      ],
      "stateMutability": "view",
      "type": "function"
    },
    {
      "inputs": [
        {
          "internalType": "bytes32",
          "name": "role",
          "type": "bytes32"
        },
        {
          "internalType": "address",
          "name": "account",
          "type": "address"
        }
      ],
      "name": "renounceRole",
      "outputs": [],
      "stateMutability": "nonpayable",
      "type": "function"
    },
    {
      "inputs": [
        {
          "internalType": "bytes32",
          "name": "role",
          "type": "bytes32"
        },
        {
          "internalType": "address",
          "name": "account",
          "type": "address"
        }
      ],
      "name": "revokeRole",
      "outputs": [],
      "stateMutability": "nonpayable",
      "type": "function"
    },
    {
      "inputs": [
        {
          "internalType": "bytes4",
          "name": "interfaceId",
          "type": "bytes4"
        }
      ],
      "name": "supportsInterface",
      "outputs": [
        {
          "internalType": "bool",
          "name": "",
          "type": "bool"
        }
      ],
      "stateMutability": "view",
      "type": "function"
    },
    {
      "inputs": [
        {
          "internalType": "address",
          "name": "gameBoardAddress",
          "type": "address"
        }
      ],
      "name": "addGameBoard",
      "outputs": [],
      "stateMutability": "nonpayable",
      "type": "function"
    },
    {
      "inputs": [],
      "name": "registerGame",
      "outputs": [
        {
          "internalType": "uint256",
          "name": "gameID",
          "type": "uint256"
        }
      ],
      "stateMutability": "nonpayable",
      "type": "function"
    },
    {
      "inputs": [],
      "name": "allGames",
      "outputs": [
        {
          "internalType": "uint256[]",
          "name": "",
          "type": "uint256[]"
        }
      ],
      "stateMutability": "view",
      "type": "function"
    }
  ],
  "bytecode": "0x60806040523480156200001157600080fd5b5060405162001d4838038062001d48833981810160405281019062000037919062000380565b6200004c6000801b826200006a60201b60201c565b6200006360026200008060201b620007ea1760201c565b50620003b2565b6200007c82826200009660201b60201c565b5050565b6001816000016000828254019250508190555050565b620000ad8282620000de60201b620008001760201c565b620000d98160016000858152602001908152602001600020620001cf60201b620008e01790919060201c565b505050565b620000f082826200020760201b60201c565b620001cb57600160008084815260200190815260200160002060000160008373ffffffffffffffffffffffffffffffffffffffff1673ffffffffffffffffffffffffffffffffffffffff16815260200190815260200160002060006101000a81548160ff021916908315150217905550620001706200027160201b60201c565b73ffffffffffffffffffffffffffffffffffffffff168173ffffffffffffffffffffffffffffffffffffffff16837f2f8788117e7eff1d82e926ec794901d17c78024a50270940304540a733656f0d60405160405180910390a45b5050565b6000620001ff836000018373ffffffffffffffffffffffffffffffffffffffff1660001b6200027960201b60201c565b905092915050565b600080600084815260200190815260200160002060000160008373ffffffffffffffffffffffffffffffffffffffff1673ffffffffffffffffffffffffffffffffffffffff16815260200190815260200160002060009054906101000a900460ff16905092915050565b600033905090565b60006200028d8383620002f360201b60201c565b620002e8578260000182908060018154018082558091505060019003906000526020600020016000909190919091505582600001805490508360010160008481526020019081526020016000208190555060019050620002ed565b600090505b92915050565b600080836001016000848152602001908152602001600020541415905092915050565b600080fd5b600073ffffffffffffffffffffffffffffffffffffffff82169050919050565b600062000348826200031b565b9050919050565b6200035a816200033b565b81146200036657600080fd5b50565b6000815190506200037a816200034f565b92915050565b60006020828403121562000399576200039862000316565b5b6000620003a98482850162000369565b91505092915050565b61198680620003c26000396000f3fe608060405234801561001057600080fd5b50600436106100f55760003560e01c80635d24830111610097578063a217fddf11610066578063a217fddf146102ac578063ca15c873146102ca578063d547741f146102fa578063de45264114610316576100f5565b80635d248301146101ec57806365edc5d21461021c5780639010d07c1461024c57806391d148541461027c576100f5565b80632f2ff15d116100d35780632f2ff15d1461017857806336568abe14610194578063465542f0146101b05780634a58dc11146101ce576100f5565b806301ffc9a7146100fa5780630a75806e1461012a578063248a9ca314610148575b600080fd5b610114600480360381019061010f91906110ed565b610332565b6040516101219190611135565b60405180910390f35b6101326103ac565b60405161013f9190611169565b60405180910390f35b610162600480360381019061015d91906111ba565b6104b8565b60405161016f91906111f6565b60405180910390f35b610192600480360381019061018d919061126f565b6104d7565b005b6101ae60048036038101906101a9919061126f565b6104f8565b005b6101b861057b565b6040516101c5919061136d565b60405180910390f35b6101d6610642565b6040516101e391906111f6565b60405180910390f35b610206600480360381019061020191906113bb565b610666565b60405161021391906113f7565b60405180910390f35b61023660048036038101906102319190611412565b610699565b6040516102439190611169565b60405180910390f35b61026660048036038101906102619190611452565b6106ca565b60405161027391906113f7565b60405180910390f35b6102966004803603810190610291919061126f565b6106f9565b6040516102a39190611135565b60405180910390f35b6102b4610763565b6040516102c191906111f6565b60405180910390f35b6102e460048036038101906102df91906111ba565b61076a565b6040516102f19190611169565b60405180910390f35b610314600480360381019061030f919061126f565b61078e565b005b610330600480360381019061032b9190611492565b6107af565b005b60007f5a05180f000000000000000000000000000000000000000000000000000000007bffffffffffffffffffffffffffffffffffffffffffffffffffffffff1916827bffffffffffffffffffffffffffffffffffffffffffffffffffffffff191614806103a557506103a482610910565b5b9050919050565b60007fa535732178231314b57938e75e1be42a0d0fac039993e1fa0eb22dcb94bce1076103d88161098a565b6103e2600261099e565b91506103ec6109ac565b6004600084815260200190815260200160002060006101000a81548173ffffffffffffffffffffffffffffffffffffffff021916908373ffffffffffffffffffffffffffffffffffffffff160217905550600360006104496109ac565b73ffffffffffffffffffffffffffffffffffffffff1673ffffffffffffffffffffffffffffffffffffffff1681526020019081526020016000208290806001815401808255809150506001900390600052602060002001600090919091909150556104b460026107ea565b5090565b6000806000838152602001908152602001600020600101549050919050565b6104e0826104b8565b6104e98161098a565b6104f383836109b4565b505050565b6105006109ac565b73ffffffffffffffffffffffffffffffffffffffff168173ffffffffffffffffffffffffffffffffffffffff161461056d576040517f08c379a000000000000000000000000000000000000000000000000000000000815260040161056490611542565b60405180910390fd5b61057782826109e8565b5050565b60607fa535732178231314b57938e75e1be42a0d0fac039993e1fa0eb22dcb94bce1076105a78161098a565b600360006105b36109ac565b73ffffffffffffffffffffffffffffffffffffffff1673ffffffffffffffffffffffffffffffffffffffff16815260200190815260200160002080548060200260200160405190810160405280929190818152602001828054801561063757602002820191906000526020600020905b815481526020019060010190808311610623575b505050505091505090565b7fa535732178231314b57938e75e1be42a0d0fac039993e1fa0eb22dcb94bce10781565b60046020528060005260406000206000915054906101000a900473ffffffffffffffffffffffffffffffffffffffff1681565b600360205281600052604060002081815481106106b557600080fd5b90600052602060002001600091509150505481565b60006106f18260016000868152602001908152602001600020610a1c90919063ffffffff16565b905092915050565b600080600084815260200190815260200160002060000160008373ffffffffffffffffffffffffffffffffffffffff1673ffffffffffffffffffffffffffffffffffffffff16815260200190815260200160002060009054906101000a900460ff16905092915050565b6000801b81565b600061078760016000848152602001908152602001600020610a36565b9050919050565b610797826104b8565b6107a08161098a565b6107aa83836109e8565b505050565b6000801b6107bc8161098a565b6107e67fa535732178231314b57938e75e1be42a0d0fac039993e1fa0eb22dcb94bce10783610a4b565b5050565b6001816000016000828254019250508190555050565b61080a82826106f9565b6108dc57600160008084815260200190815260200160002060000160008373ffffffffffffffffffffffffffffffffffffffff1673ffffffffffffffffffffffffffffffffffffffff16815260200190815260200160002060006101000a81548160ff0219169083151502179055506108816109ac565b73ffffffffffffffffffffffffffffffffffffffff168173ffffffffffffffffffffffffffffffffffffffff16837f2f8788117e7eff1d82e926ec794901d17c78024a50270940304540a733656f0d60405160405180910390a45b5050565b6000610908836000018373ffffffffffffffffffffffffffffffffffffffff1660001b610a59565b905092915050565b60007f7965db0b000000000000000000000000000000000000000000000000000000007bffffffffffffffffffffffffffffffffffffffffffffffffffffffff1916827bffffffffffffffffffffffffffffffffffffffffffffffffffffffff19161480610983575061098282610ac9565b5b9050919050565b61099b816109966109ac565b610b33565b50565b600081600001549050919050565b600033905090565b6109be8282610800565b6109e381600160008581526020019081526020016000206108e090919063ffffffff16565b505050565b6109f28282610bd0565b610a178160016000858152602001908152602001600020610cb190919063ffffffff16565b505050565b6000610a2b8360000183610ce1565b60001c905092915050565b6000610a4482600001610d0c565b9050919050565b610a5582826109b4565b5050565b6000610a658383610d1d565b610abe578260000182908060018154018082558091505060019003906000526020600020016000909190919091505582600001805490508360010160008481526020019081526020016000208190555060019050610ac3565b600090505b92915050565b60007f01ffc9a7000000000000000000000000000000000000000000000000000000007bffffffffffffffffffffffffffffffffffffffffffffffffffffffff1916827bffffffffffffffffffffffffffffffffffffffffffffffffffffffff1916149050919050565b610b3d82826106f9565b610bcc57610b628173ffffffffffffffffffffffffffffffffffffffff166014610d40565b610b708360001c6020610d40565b604051602001610b81929190611674565b6040516020818303038152906040526040517f08c379a0000000000000000000000000000000000000000000000000000000008152600401610bc391906116f8565b60405180910390fd5b5050565b610bda82826106f9565b15610cad57600080600084815260200190815260200160002060000160008373ffffffffffffffffffffffffffffffffffffffff1673ffffffffffffffffffffffffffffffffffffffff16815260200190815260200160002060006101000a81548160ff021916908315150217905550610c526109ac565b73ffffffffffffffffffffffffffffffffffffffff168173ffffffffffffffffffffffffffffffffffffffff16837ff6391f5c32d9c69d2a47ea670b442974b53935d1edc7fd64eb21e047a839171b60405160405180910390a45b5050565b6000610cd9836000018373ffffffffffffffffffffffffffffffffffffffff1660001b610f7c565b905092915050565b6000826000018281548110610cf957610cf861171a565b5b9060005260206000200154905092915050565b600081600001805490509050919050565b600080836001016000848152602001908152602001600020541415905092915050565b606060006002836002610d539190611778565b610d5d91906117d2565b67ffffffffffffffff811115610d7657610d75611828565b5b6040519080825280601f01601f191660200182016040528015610da85781602001600182028036833780820191505090505b5090507f300000000000000000000000000000000000000000000000000000000000000081600081518110610de057610ddf61171a565b5b60200101907effffffffffffffffffffffffffffffffffffffffffffffffffffffffffffff1916908160001a9053507f780000000000000000000000000000000000000000000000000000000000000081600181518110610e4457610e4361171a565b5b60200101907effffffffffffffffffffffffffffffffffffffffffffffffffffffffffffff1916908160001a90535060006001846002610e849190611778565b610e8e91906117d2565b90505b6001811115610f2e577f3031323334353637383961626364656600000000000000000000000000000000600f861660108110610ed057610ecf61171a565b5b1a60f81b828281518110610ee757610ee661171a565b5b60200101907effffffffffffffffffffffffffffffffffffffffffffffffffffffffffffff1916908160001a905350600485901c945080610f2790611857565b9050610e91565b5060008414610f72576040517f08c379a0000000000000000000000000000000000000000000000000000000008152600401610f69906118cd565b60405180910390fd5b8091505092915050565b60008083600101600084815260200190815260200160002054905060008114611084576000600182610fae91906118ed565b9050600060018660000180549050610fc691906118ed565b9050818114611035576000866000018281548110610fe757610fe661171a565b5b906000526020600020015490508087600001848154811061100b5761100a61171a565b5b90600052602060002001819055508387600101600083815260200190815260200160002081905550505b8560000180548061104957611048611921565b5b60019003818190600052602060002001600090559055856001016000868152602001908152602001600020600090556001935050505061108a565b60009150505b92915050565b600080fd5b60007fffffffff0000000000000000000000000000000000000000000000000000000082169050919050565b6110ca81611095565b81146110d557600080fd5b50565b6000813590506110e7816110c1565b92915050565b60006020828403121561110357611102611090565b5b6000611111848285016110d8565b91505092915050565b60008115159050919050565b61112f8161111a565b82525050565b600060208201905061114a6000830184611126565b92915050565b6000819050919050565b61116381611150565b82525050565b600060208201905061117e600083018461115a565b92915050565b6000819050919050565b61119781611184565b81146111a257600080fd5b50565b6000813590506111b48161118e565b92915050565b6000602082840312156111d0576111cf611090565b5b60006111de848285016111a5565b91505092915050565b6111f081611184565b82525050565b600060208201905061120b60008301846111e7565b92915050565b600073ffffffffffffffffffffffffffffffffffffffff82169050919050565b600061123c82611211565b9050919050565b61124c81611231565b811461125757600080fd5b50565b60008135905061126981611243565b92915050565b6000806040838503121561128657611285611090565b5b6000611294858286016111a5565b92505060206112a58582860161125a565b9150509250929050565b600081519050919050565b600082825260208201905092915050565b6000819050602082019050919050565b6112e481611150565b82525050565b60006112f683836112db565b60208301905092915050565b6000602082019050919050565b600061131a826112af565b61132481856112ba565b935061132f836112cb565b8060005b8381101561136057815161134788826112ea565b975061135283611302565b925050600181019050611333565b5085935050505092915050565b60006020820190508181036000830152611387818461130f565b905092915050565b61139881611150565b81146113a357600080fd5b50565b6000813590506113b58161138f565b92915050565b6000602082840312156113d1576113d0611090565b5b60006113df848285016113a6565b91505092915050565b6113f181611231565b82525050565b600060208201905061140c60008301846113e8565b92915050565b6000806040838503121561142957611428611090565b5b60006114378582860161125a565b9250506020611448858286016113a6565b9150509250929050565b6000806040838503121561146957611468611090565b5b6000611477858286016111a5565b9250506020611488858286016113a6565b9150509250929050565b6000602082840312156114a8576114a7611090565b5b60006114b68482850161125a565b91505092915050565b600082825260208201905092915050565b7f416363657373436f6e74726f6c3a2063616e206f6e6c792072656e6f756e636560008201527f20726f6c657320666f722073656c660000000000000000000000000000000000602082015250565b600061152c602f836114bf565b9150611537826114d0565b604082019050919050565b6000602082019050818103600083015261155b8161151f565b9050919050565b600081905092915050565b7f416363657373436f6e74726f6c3a206163636f756e7420000000000000000000600082015250565b60006115a3601783611562565b91506115ae8261156d565b601782019050919050565b600081519050919050565b60005b838110156115e25780820151818401526020810190506115c7565b838111156115f1576000848401525b50505050565b6000611602826115b9565b61160c8185611562565b935061161c8185602086016115c4565b80840191505092915050565b7f206973206d697373696e6720726f6c6520000000000000000000000000000000600082015250565b600061165e601183611562565b915061166982611628565b601182019050919050565b600061167f82611596565b915061168b82856115f7565b915061169682611651565b91506116a282846115f7565b91508190509392505050565b6000601f19601f8301169050919050565b60006116ca826115b9565b6116d481856114bf565b93506116e48185602086016115c4565b6116ed816116ae565b840191505092915050565b6000602082019050818103600083015261171281846116bf565b905092915050565b7f4e487b7100000000000000000000000000000000000000000000000000000000600052603260045260246000fd5b7f4e487b7100000000000000000000000000000000000000000000000000000000600052601160045260246000fd5b600061178382611150565b915061178e83611150565b9250817fffffffffffffffffffffffffffffffffffffffffffffffffffffffffffffffff04831182151516156117c7576117c6611749565b5b828202905092915050565b60006117dd82611150565b91506117e883611150565b9250827fffffffffffffffffffffffffffffffffffffffffffffffffffffffffffffffff0382111561181d5761181c611749565b5b828201905092915050565b7f4e487b7100000000000000000000000000000000000000000000000000000000600052604160045260246000fd5b600061186282611150565b9150600082141561187657611875611749565b5b600182039050919050565b7f537472696e67733a20686578206c656e67746820696e73756666696369656e74600082015250565b60006118b76020836114bf565b91506118c282611881565b602082019050919050565b600060208201905081810360008301526118e6816118aa565b9050919050565b60006118f882611150565b915061190383611150565b92508282101561191657611915611749565b5b828203905092915050565b7f4e487b7100000000000000000000000000000000000000000000000000000000600052603160045260246000fdfea2646970667358221220a9d2e3fa59c4ad2531a35ae601651b8907c199f49c8ce6ae652a947d3d92953f64736f6c634300080b0033",
  "immutableReferences": {},
  "source": "// SPDX-License-Identifier: GPL-3.0\npragma solidity >=0.7.0 <0.9.0;\n\nimport \"@openzeppelin/contracts/access/AccessControlEnumerable.sol\";\nimport \"@openzeppelin/contracts/utils/Counters.sol\";\n\n// universal registry, for all games across boards\n\ncontract GameRegistry is AccessControlEnumerable {\n    using Counters for Counters.Counter;\n    Counters.Counter internal _gameIdTracker;\n    bytes32 public constant GAME_BOARD_ROLE = keccak256(\"GAME_BOARD_ROLE\");\n    // mapping from game board address to all game IDs\n    mapping(address => uint256[]) public gameIDs;\n    // mappings from Game ID\n    mapping(uint256 => address) public gameBoard;\n\n    constructor(address adminAddress) {\n        _setupRole(DEFAULT_ADMIN_ROLE, adminAddress);\n        _gameIdTracker.increment();\n    }\n\n    function addGameBoard(address gameBoardAddress)\n        public\n        onlyRole(DEFAULT_ADMIN_ROLE)\n    {\n        _setupRole(GAME_BOARD_ROLE, gameBoardAddress);\n    }\n\n    function registerGame()\n        external\n        onlyRole(GAME_BOARD_ROLE)\n        returns (uint256 gameID)\n    {\n        gameID = _gameIdTracker.current();\n        gameBoard[gameID] = _msgSender();\n        gameIDs[_msgSender()].push(gameID);\n\n        _gameIdTracker.increment();\n    }\n\n    function allGames()\n        external\n        view\n        onlyRole(GAME_BOARD_ROLE)\n        returns (uint256[] memory)\n    {\n        return gameIDs[_msgSender()];\n    }\n}\n",
  "sourcePath": "@luckymachines/game-core/contracts/src/v0.0/GameRegistry.sol",
  "compiler": {
    "name": "solc",
    "version": "0.8.11+commit.d7f03943.Emscripten.clang"
  },
  "schemaVersion": "3.4.2",
  "updatedAt": "2022-05-06T16:56:07.166Z",
  "devdoc": {
    "kind": "dev",
    "methods": {
      "getRoleAdmin(bytes32)": {
        "details": "Returns the admin role that controls `role`. See {grantRole} and {revokeRole}. To change a role's admin, use {_setRoleAdmin}."
      },
      "getRoleMember(bytes32,uint256)": {
        "details": "Returns one of the accounts that have `role`. `index` must be a value between 0 and {getRoleMemberCount}, non-inclusive. Role bearers are not sorted in any particular way, and their ordering may change at any point. WARNING: When using {getRoleMember} and {getRoleMemberCount}, make sure you perform all queries on the same block. See the following https://forum.openzeppelin.com/t/iterating-over-elements-on-enumerableset-in-openzeppelin-contracts/2296[forum post] for more information."
      },
      "getRoleMemberCount(bytes32)": {
        "details": "Returns the number of accounts that have `role`. Can be used together with {getRoleMember} to enumerate all bearers of a role."
      },
      "grantRole(bytes32,address)": {
        "details": "Grants `role` to `account`. If `account` had not been already granted `role`, emits a {RoleGranted} event. Requirements: - the caller must have ``role``'s admin role."
      },
      "hasRole(bytes32,address)": {
        "details": "Returns `true` if `account` has been granted `role`."
      },
      "renounceRole(bytes32,address)": {
        "details": "Revokes `role` from the calling account. Roles are often managed via {grantRole} and {revokeRole}: this function's purpose is to provide a mechanism for accounts to lose their privileges if they are compromised (such as when a trusted device is misplaced). If the calling account had been revoked `role`, emits a {RoleRevoked} event. Requirements: - the caller must be `account`."
      },
      "revokeRole(bytes32,address)": {
        "details": "Revokes `role` from `account`. If `account` had been granted `role`, emits a {RoleRevoked} event. Requirements: - the caller must have ``role``'s admin role."
      },
      "supportsInterface(bytes4)": {
        "details": "See {IERC165-supportsInterface}."
      }
    },
    "version": 1
  },
  "userdoc": {
    "kind": "user",
    "methods": {},
    "version": 1
  }
}