{
  "contractName": "GameSummary",
  "abi": [
    {
      "inputs": [
        {
          "internalType": "address",
          "name": "gameBoardAddress",
          "type": "address"
        }
      ],
      "name": "boardSize",
      "outputs": [
        {
          "internalType": "uint256",
          "name": "rows",
          "type": "uint256"
        },
        {
          "internalType": "uint256",
          "name": "columns",
          "type": "uint256"
        }
      ],
      "stateMutability": "view",
      "type": "function",
      "constant": true
    },
    {
      "inputs": [
        {
          "internalType": "address",
          "name": "gameBoardAddress",
          "type": "address"
        },
        {
          "internalType": "uint256",
          "name": "gameID",
          "type": "uint256"
        },
        {
          "internalType": "address",
          "name": "playerAddress",
          "type": "address"
        }
      ],
      "name": "isRegistered",
      "outputs": [
        {
          "internalType": "bool",
          "name": "",
          "type": "bool"
        }
      ],
      "stateMutability": "view",
      "type": "function",
      "constant": true
    },
    {
      "inputs": [
        {
          "internalType": "address",
          "name": "gameBoardAddress",
          "type": "address"
        },
        {
          "internalType": "uint256",
          "name": "gameID",
          "type": "uint256"
        },
        {
          "internalType": "address",
          "name": "playerAddress",
          "type": "address"
        }
      ],
      "name": "getPlayerID",
      "outputs": [
        {
          "internalType": "uint256",
          "name": "playerID",
          "type": "uint256"
        }
      ],
      "stateMutability": "view",
      "type": "function",
      "constant": true
    },
    {
      "inputs": [
        {
          "internalType": "address",
          "name": "gameBoardAddress",
          "type": "address"
        },
        {
          "internalType": "uint256",
          "name": "gameID",
          "type": "uint256"
        }
      ],
      "name": "currentGameplayQueue",
      "outputs": [
        {
          "internalType": "uint256",
          "name": "",
          "type": "uint256"
        }
      ],
      "stateMutability": "view",
      "type": "function",
      "constant": true
    },
    {
      "inputs": [
        {
          "internalType": "address",
          "name": "gameBoardAddress",
          "type": "address"
        },
        {
          "internalType": "uint256",
          "name": "gameID",
          "type": "uint256"
        }
      ],
      "name": "currentPhase",
      "outputs": [
        {
          "internalType": "string",
          "name": "phase",
          "type": "string"
        }
      ],
      "stateMutability": "view",
      "type": "function",
      "constant": true
    },
    {
      "inputs": [
        {
          "internalType": "address",
          "name": "gameBoardAddress",
          "type": "address"
        },
        {
          "internalType": "uint256",
          "name": "gameID",
          "type": "uint256"
        }
      ],
      "name": "activeZones",
      "outputs": [
        {
          "internalType": "string[]",
          "name": "zones",
          "type": "string[]"
        },
        {
          "internalType": "uint16[]",
          "name": "tiles",
          "type": "uint16[]"
        }
      ],
      "stateMutability": "view",
      "type": "function",
      "constant": true
    },
    {
      "inputs": [
        {
          "internalType": "address",
          "name": "gameBoardAddress",
          "type": "address"
        },
        {
          "internalType": "uint256",
          "name": "gameID",
          "type": "uint256"
        }
      ],
      "name": "landingSite",
      "outputs": [
        {
          "internalType": "string",
          "name": "",
          "type": "string"
        }
      ],
      "stateMutability": "view",
      "type": "function",
      "constant": true
    },
    {
      "inputs": [
        {
          "internalType": "address",
          "name": "gameBoardAddress",
          "type": "address"
        },
        {
          "internalType": "uint256",
          "name": "gameID",
          "type": "uint256"
        }
      ],
      "name": "allPlayerLocations",
      "outputs": [
        {
          "internalType": "uint256[]",
          "name": "",
          "type": "uint256[]"
        },
        {
          "internalType": "string[]",
          "name": "",
          "type": "string[]"
        }
      ],
      "stateMutability": "view",
      "type": "function",
      "constant": true
    },
    {
      "inputs": [
        {
          "internalType": "address",
          "name": "gameBoardAddress",
          "type": "address"
        },
        {
          "internalType": "uint256",
          "name": "gameID",
          "type": "uint256"
        }
      ],
      "name": "currentLocation",
      "outputs": [
        {
          "internalType": "string",
          "name": "",
          "type": "string"
        }
      ],
      "stateMutability": "view",
      "type": "function",
      "constant": true
    },
    {
      "inputs": [
        {
          "internalType": "address",
          "name": "gameBoardAddress",
          "type": "address"
        },
        {
          "internalType": "uint256",
          "name": "gameID",
          "type": "uint256"
        }
      ],
      "name": "currentPlayerStats",
      "outputs": [
        {
          "internalType": "uint8",
          "name": "movement",
          "type": "uint8"
        },
        {
          "internalType": "uint8",
          "name": "agility",
          "type": "uint8"
        },
        {
          "internalType": "uint8",
          "name": "dexterity",
          "type": "uint8"
        }
      ],
      "stateMutability": "view",
      "type": "function",
      "constant": true
    },
    {
      "inputs": [
        {
          "internalType": "address",
          "name": "gameBoardAddress",
          "type": "address"
        },
        {
          "internalType": "uint256",
          "name": "gameID",
          "type": "uint256"
        }
      ],
      "name": "currentHandInventory",
      "outputs": [
        {
          "internalType": "string",
          "name": "leftHandItem",
          "type": "string"
        },
        {
          "internalType": "string",
          "name": "rightHandItem",
          "type": "string"
        }
      ],
      "stateMutability": "view",
      "type": "function",
      "constant": true
    },
    {
      "inputs": [
        {
          "internalType": "address",
          "name": "gameBoardAddress",
          "type": "address"
        },
        {
          "internalType": "uint256",
          "name": "gameID",
          "type": "uint256"
        }
      ],
      "name": "activeInventory",
      "outputs": [
        {
          "internalType": "string",
          "name": "artifact",
          "type": "string"
        },
        {
          "internalType": "string",
          "name": "status",
          "type": "string"
        },
        {
          "internalType": "string",
          "name": "relic",
          "type": "string"
        },
        {
          "internalType": "bool",
          "name": "shield",
          "type": "bool"
        },
        {
          "internalType": "bool",
          "name": "campsite",
          "type": "bool"
        }
      ],
      "stateMutability": "view",
      "type": "function",
      "constant": true
    },
    {
      "inputs": [
        {
          "internalType": "address",
          "name": "gameBoardAddress",
          "type": "address"
        },
        {
          "internalType": "uint256",
          "name": "gameID",
          "type": "uint256"
        }
      ],
      "name": "inactiveInventory",
      "outputs": [
        {
          "internalType": "string[]",
          "name": "itemTypes",
          "type": "string[]"
        },
        {
          "internalType": "uint256[]",
          "name": "itemBalances",
          "type": "uint256[]"
        }
      ],
      "stateMutability": "view",
      "type": "function",
      "constant": true
    },
    {
      "inputs": [
        {
          "internalType": "address",
          "name": "gameBoardAddress",
          "type": "address"
        },
        {
          "internalType": "address",
          "name": "gameRegistryAddress",
          "type": "address"
        }
      ],
      "name": "getAvailableGameIDs",
      "outputs": [
        {
          "internalType": "uint256[]",
          "name": "",
          "type": "uint256[]"
        }
      ],
      "stateMutability": "view",
      "type": "function",
      "constant": true
    },
    {
      "inputs": [
        {
          "internalType": "address",
          "name": "gameBoardAddress",
          "type": "address"
        },
        {
          "internalType": "uint256",
          "name": "gameID",
          "type": "uint256"
        }
      ],
      "name": "isAtCampsite",
      "outputs": [
        {
          "internalType": "bool",
          "name": "atCampsite",
          "type": "bool"
        }
      ],
      "stateMutability": "view",
      "type": "function",
      "constant": true
    },
    {
      "inputs": [
        {
          "internalType": "address",
          "name": "gameBoardAddress",
          "type": "address"
        },
        {
          "internalType": "uint256",
          "name": "gameID",
          "type": "uint256"
        }
      ],
      "name": "activeAction",
      "outputs": [
        {
          "internalType": "string",
          "name": "action",
          "type": "string"
        }
      ],
      "stateMutability": "view",
      "type": "function",
      "constant": true
    }
  ],
  "bytecode": "0x6141cb610053600b82828239805160001a607314610046577f4e487b7100000000000000000000000000000000000000000000000000000000600052600060045260246000fd5b30600052607381538281f3fe73000000000000000000000000000000000000000030146080604052600436106101045760003560e060020a90048063ad7bac41116100a0578063ad7bac411461024e578063b0be1afa14610261578063bb8553fc14610282578063c449f580146101e8578063cabd6fda146102a5578063e569d33a146102b8578063ee203a8e146102d9578063f59bf90314610301578063f8ffdfcc1461032557600080fd5b80632f874fe01461010957806330f7337a146101455780635d824c22146101665780638191e06214610186578063821ba3a1146101a757806386599da8146101c75780639f8159cc146101e8578063a75d3f8714610228578063ab00df6c1461023b575b600080fd5b61011c610117366004613942565b610338565b6040805160ff948516815292841660208401529216918101919091526060015b60405180910390f35b61015861015336600461396e565b610638565b60405190815260200161013c565b6101796101743660046139b0565b61073a565b60405161013c9190613a24565b610199610194366004613942565b6107cc565b60405161013c929190613aea565b6101ba6101b5366004613942565b610a51565b60405161013c9190613b0f565b6101da6101d5366004613942565b610ada565b60405161013c929190613b22565b8180156101f457600080fd5b50610216610203366004613942565b6060806060806060809295509295509295565b60405161013c96959493929190613b47565b6101ba610236366004613942565b611a3d565b610158610249366004613942565b611c2a565b6101ba61025c366004613942565b611d25565b61027461026f366004613942565b612144565b60405161013c929190613c3a565b610295610290366004613942565b6125bd565b604051901515815260200161013c565b6102956102b336600461396e565b6128ab565b6102cb6102c6366004613942565b6129a3565b60405161013c929190613c5f565b6102ec6102e7366004613cad565b612d9c565b6040805192835260208301919091520161013c565b61031461030f366004613942565b612e78565b60405161013c959493929190613cca565b6101ba610333366004613942565b61354b565b600080600080859050600081600160a060020a031663a0ed600d6040518163ffffffff1660e060020a028152600401602060405180830381865afa158015610384573d6000803e3d6000fd5b505050506040513d601f19601f820116820180604052508101906103a89190613d1d565b9050600082600160a060020a031663c06dea4e6040518163ffffffff1660e060020a028152600401602060405180830381865afa1580156103ed573d6000803e3d6000fd5b505050506040513d601f19601f820116820180604052508101906104119190613d1d565b9050600081600160a060020a031663bca7caa089336040518363ffffffff1660e060020a028152600401610446929190613d3a565b602060405180830381865afa158015610463573d6000803e3d6000fd5b505050506040513d601f19601f820116820180604052508101906104879190613d51565b6040517fe8216595000000000000000000000000000000000000000000000000000000008152600481018a905260248101829052909150600160a060020a0384169063e821659590604401602060405180830381865afa1580156104ef573d6000803e3d6000fd5b505050506040513d601f19601f820116820180604052508101906105139190613d6a565b6040517fd104563e000000000000000000000000000000000000000000000000000000008152600481018a905260248101839052909750600160a060020a0384169063d104563e90604401602060405180830381865afa15801561057b573d6000803e3d6000fd5b505050506040513d601f19601f8201168201806040525081019061059f9190613d6a565b6040517f2af37e1d000000000000000000000000000000000000000000000000000000008152600481018a905260248101839052909650600160a060020a03841690632af37e1d90604401602060405180830381865afa158015610607573d6000803e3d6000fd5b505050506040513d601f19601f8201168201806040525081019061062b9190613d6a565b9450505050509250925092565b600080849050600081600160a060020a031663c06dea4e6040518163ffffffff1660e060020a028152600401602060405180830381865afa158015610681573d6000803e3d6000fd5b505050506040513d601f19601f820116820180604052508101906106a59190613d1d565b6040517fbca7caa0000000000000000000000000000000000000000000000000000000008152909150600160a060020a0382169063bca7caa0906106ef9088908890600401613d3a565b602060405180830381865afa15801561070c573d6000803e3d6000fd5b505050506040513d601f19601f820116820180604052508101906107309190613d51565b9695505050505050565b6040517fdef34582000000000000000000000000000000000000000000000000000000008152600160a060020a0382811660048301526060919084169063def3458290602401600060405180830381865afa15801561079d573d6000803e3d6000fd5b505050506040513d6000823e601f3d908101601f191682016040526107c59190810190613dfb565b9392505050565b6060806000849050600081600160a060020a031663c06dea4e6040518163ffffffff1660e060020a028152600401602060405180830381865afa158015610817573d6000803e3d6000fd5b505050506040513d601f19601f8201168201806040525081019061083b9190613d1d565b6040517fb77ff41100000000000000000000000000000000000000000000000000000000815260048101879052909150600090600160a060020a0383169063b77ff41190602401602060405180830381865afa15801561089f573d6000803e3d6000fd5b505050506040513d601f19601f820116820180604052508101906108c39190613d51565b905060008167ffffffffffffffff8111156108e0576108e0613d8d565b604051908082528060200260200182016040528015610909578160200160208202803683370190505b50905060008267ffffffffffffffff81111561092757610927613d8d565b60405190808252806020026020018201604052801561095a57816020015b60608152602001906001900390816109455790505b50905060005b83811015610a4257610973816001613ea7565b83828151811061098557610985613ebf565b6020908102919091010152600160a060020a03861663d75e79808a6109ab846001613ea7565b60405160e060020a63ffffffff851602815260048101929092526024820152604401600060405180830381865afa1580156109ea573d6000803e3d6000fd5b505050506040513d6000823e601f3d908101601f19168201604052610a129190810190613f44565b828281518110610a2457610a24613ebf565b60200260200101819052508080610a3a90613f79565b915050610960565b50909890975095505050505050565b6040517feb33983d00000000000000000000000000000000000000000000000000000000815260048101829052606090600160a060020a0384169063eb33983d90602401600060405180830381865afa158015610ab2573d6000803e3d6000fd5b505050506040513d6000823e601f3d908101601f191682016040526107c59190810190613f44565b6060806000849050600081600160a060020a031663c06dea4e6040518163ffffffff1660e060020a028152600401602060405180830381865afa158015610b25573d6000803e3d6000fd5b505050506040513d601f19601f82011682018060405250810190610b499190613d1d565b9050600082600160a060020a031663cca369966040518163ffffffff1660e060020a028152600401602060405180830381865afa158015610b8e573d6000803e3d6000fd5b505050506040513d601f19601f82011682018060405250810190610bb29190613d1d565b60408051602380825261048082019092529192506020820161046080368337019050506040805160238082526104808201909252919550816020015b6060815260200190600190039081610bee5790505094506040518060400160405280600a81526020017f536d616c6c20416d6d6f0000000000000000000000000000000000000000000081525085600081518110610c4e57610c4e613ebf565b60200260200101819052506040518060400160405280600a81526020017f4c6172676520416d6d6f0000000000000000000000000000000000000000000081525085600181518110610ca257610ca2613ebf565b60200260200101819052506040518060400160405280600981526020017f426174746572696573000000000000000000000000000000000000000000000081525085600281518110610cf657610cf6613ebf565b60200260200101819052506040518060400160405280600681526020017f536869656c64000000000000000000000000000000000000000000000000000081525085600381518110610d4a57610d4a613ebf565b60200260200101819052506040518060400160405280600681526020017f506f7274616c000000000000000000000000000000000000000000000000000081525085600481518110610d9e57610d9e613ebf565b60200260200101819052506040518060400160405280600281526020017f4f6e00000000000000000000000000000000000000000000000000000000000081525085600581518110610df257610df2613ebf565b60200260200101819052506040518060400160405280600381526020017f4f6666000000000000000000000000000000000000000000000000000000000081525085600681518110610e4657610e46613ebf565b60200260200101819052506040518060400160405280600c81526020017f527573747920446167676572000000000000000000000000000000000000000081525085600781518110610e9a57610e9a613ebf565b60200260200101819052506040518060400160405280600b81526020017f52757374792053776f726400000000000000000000000000000000000000000081525085600881518110610eee57610eee613ebf565b60200260200101819052506040518060400160405280600c81526020017f527573747920506973746f6c000000000000000000000000000000000000000081525085600981518110610f4257610f42613ebf565b60200260200101819052506040518060400160405280600b81526020017f5275737479205269666c6500000000000000000000000000000000000000000081525085600a81518110610f9657610f96613ebf565b60200260200101819052506040518060400160405280600c81526020017f5368696e7920446167676572000000000000000000000000000000000000000081525085600b81518110610fea57610fea613ebf565b60200260200101819052506040518060400160405280600b81526020017f5368696e792053776f726400000000000000000000000000000000000000000081525085600c8151811061103e5761103e613ebf565b60200260200101819052506040518060400160405280600c81526020017f5368696e7920506973746f6c000000000000000000000000000000000000000081525085600d8151811061109257611092613ebf565b60200260200101819052506040518060400160405280600b81526020017f5368696e79205269666c6500000000000000000000000000000000000000000081525085600e815181106110e6576110e6613ebf565b60200260200101819052506040518060400160405280600c81526020017f4c6173657220446167676572000000000000000000000000000000000000000081525085600f8151811061113a5761113a613ebf565b60200260200101819052506040518060400160405280600b81526020017f4c617365722053776f72640000000000000000000000000000000000000000008152508560108151811061118e5761118e613ebf565b60200260200101819052506040518060400160405280600c81526020017f4c6173657220506973746f6c0000000000000000000000000000000000000000815250856011815181106111e2576111e2613ebf565b60200260200101819052506040518060400160405280600b81526020017f4c61736572205269666c650000000000000000000000000000000000000000008152508560128151811061123657611236613ebf565b60200260200101819052506040518060400160405280600a81526020017f476c6f7720737469636b000000000000000000000000000000000000000000008152508560138151811061128a5761128a613ebf565b60200260200101819052506040518060400160405280600a81526020017f466c6173686c6967687400000000000000000000000000000000000000000000815250856014815181106112de576112de613ebf565b60200260200101819052506040518060400160405280600b81526020017f466c6f6f64206c696768740000000000000000000000000000000000000000008152508560158151811061133257611332613ebf565b60200260200101819052506040518060400160405280601381526020017f4e69676874766973696f6e20476f67676c6573000000000000000000000000008152508560168151811061138657611386613ebf565b60200260200101819052506040518060400160405280600f81526020017f506572736f6e616c20536869656c640000000000000000000000000000000000815250856017815181106113da576113da613ebf565b60200260200101819052506040518060400160405280600d81526020017f427562626c6520536869656c64000000000000000000000000000000000000008152508560188151811061142e5761142e613ebf565b60200260200101819052506040518060400160405280600c81526020017f46726167204772656e61646500000000000000000000000000000000000000008152508560198151811061148257611482613ebf565b60200260200101819052506040518060400160405280600c81526020017f46697265204772656e616465000000000000000000000000000000000000000081525085601a815181106114d6576114d6613ebf565b60200260200101819052506040518060400160405280600d81526020017f53686f636b204772656e6164650000000000000000000000000000000000000081525085601b8151811061152a5761152a613ebf565b60200260200101819052506040518060400160405280600981526020017f4845204d6f72746172000000000000000000000000000000000000000000000081525085601c8151811061157e5761157e613ebf565b60200260200101819052506040518060400160405280601181526020017f496e63656e6469617279204d6f7274617200000000000000000000000000000081525085601d815181106115d2576115d2613ebf565b60200260200101819052506040518060400160405280600a81526020017f454d50204d6f727461720000000000000000000000000000000000000000000081525085601e8151811061162657611626613ebf565b60200260200101819052506040518060400160405280600b81526020017f506f77657220476c6f766500000000000000000000000000000000000000000081525085601f8151811061167a5761167a613ebf565b602002602001018190525060405180606001604052806021815260200161417560219139856020815181106116b1576116b1613ebf565b60200260200101819052506040518060400160405280600f81526020017f54656c65706f72746572205061636b00000000000000000000000000000000008152508560218151811061170557611705613ebf565b602002602001018190525060405180604001604052806008815260200160c060020a6743616d7073697465028152508560228151811061174757611747613ebf565b6020026020010181905250600082600160a060020a031663bca7caa088336040518363ffffffff1660e060020a028152600401611785929190613d3a565b602060405180830381865afa1580156117a2573d6000803e3d6000fd5b505050506040513d601f19601f820116820180604052508101906117c69190613d51565b6040517f01d37be4000000000000000000000000000000000000000000000000000000008152909150600160a060020a038316906301d37be4906118139084906003908c90600401613fad565b602060405180830381865afa158015611830573d6000803e3d6000fd5b505050506040513d601f19601f820116820180604052508101906118549190613fe6565b15611a3257600082600160a060020a031663a318d45c6040518163ffffffff1660e060020a028152600401602060405180830381865afa15801561189c573d6000803e3d6000fd5b505050506040513d601f19601f820116820180604052508101906118c09190613d1d565b9050600081600160a060020a031663c853a1d06040518163ffffffff1660e060020a028152600401600060405180830381865afa158015611905573d6000803e3d6000fd5b505050506040513d6000823e601f3d908101601f1916820160405261192d9190810190614008565b905060005b8751811015611a2e5781818151811061194d5761194d613ebf565b602002602001015189828151811061196757611967613ebf565b602002602001018190525082600160a060020a0316634db157d083838151811061199357611993613ebf565b60200260200101518c876040518463ffffffff1660e060020a0281526004016119be939291906140b6565b602060405180830381865afa1580156119db573d6000803e3d6000fd5b505050506040513d601f19601f820116820180604052508101906119ff9190613d51565b888281518110611a1157611a11613ebf565b602090810291909101015280611a2681613f79565b915050611932565b5050505b505050509250929050565b60606000839050600081600160a060020a031663cca369966040518163ffffffff1660e060020a028152600401602060405180830381865afa158015611a87573d6000803e3d6000fd5b505050506040513d601f19601f82011682018060405250810190611aab9190613d1d565b9050600081600160a060020a031663a906dfd16040518163ffffffff1660e060020a028152600401602060405180830381865afa158015611af0573d6000803e3d6000fd5b505050506040513d601f19601f82011682018060405250810190611b149190613d1d565b6040517f4db157d0000000000000000000000000000000000000000000000000000000008152606060048201526003606482015260e860020a624461790260848201526024810187905260016044820152600160a060020a039190911690634db157d09060a401602060405180830381865afa158015611b98573d6000803e3d6000fd5b505050506040513d601f19601f82011682018060405250810190611bbc9190613d51565b905060008111611c01576040518060400160405280600581526020017f4e69676874000000000000000000000000000000000000000000000000000000815250610730565b60405180604001604052806003815260200160e860020a62446179028152509695505050505050565b600080839050600081600160a060020a031663cefe23296040518163ffffffff1660e060020a028152600401602060405180830381865afa158015611c73573d6000803e3d6000fd5b505050506040513d601f19601f82011682018060405250810190611c979190613d1d565b6040517f861814e200000000000000000000000000000000000000000000000000000000815260048101869052909150600160a060020a0382169063861814e290602401602060405180830381865afa158015611cf8573d6000803e3d6000fd5b505050506040513d601f19601f82011682018060405250810190611d1c9190613d51565b95945050505050565b60606000839050600081600160a060020a031663a0ed600d6040518163ffffffff1660e060020a028152600401602060405180830381865afa158015611d6f573d6000803e3d6000fd5b505050506040513d601f19601f82011682018060405250810190611d939190613d1d565b9050600082600160a060020a031663c06dea4e6040518163ffffffff1660e060020a028152600401602060405180830381865afa158015611dd8573d6000803e3d6000fd5b505050506040513d601f19601f82011682018060405250810190611dfc9190613d1d565b600160a060020a031663bca7caa086336040518363ffffffff1660e060020a028152600401611e2c929190613d3a565b602060405180830381865afa158015611e49573d6000803e3d6000fd5b505050506040513d601f19601f82011682018060405250810190611e6d9190613d51565b6040517fd1eb50530000000000000000000000000000000000000000000000000000000081526004810187905260248101829052909150600090600160a060020a0384169063d1eb505390604401602060405180830381865afa158015611ed8573d6000803e3d6000fd5b505050506040513d601f19601f82011682018060405250810190611efc91906140db565b60408051808201909152600481527f49646c65000000000000000000000000000000000000000000000000000000006020820152955090506001816006811115611f4857611f48613f94565b1415611f8b576040518060400160405280600481526020017f4d6f766500000000000000000000000000000000000000000000000000000000815250945061213a565b6002816006811115611f9f57611f9f613f94565b1415611fe2576040518060400160405280600a81526020017f53657475702063616d7000000000000000000000000000000000000000000000815250945061213a565b6003816006811115611ff657611ff6613f94565b1415612039576040518060400160405280600f81526020017f427265616b20646f776e2063616d700000000000000000000000000000000000815250945061213a565b600481600681111561204d5761204d613f94565b1415612090576040518060400160405280600381526020017f4469670000000000000000000000000000000000000000000000000000000000815250945061213a565b60058160068111156120a4576120a4613f94565b14156120e7576040518060400160405280600481526020017f5265737400000000000000000000000000000000000000000000000000000000815250945061213a565b60068160068111156120fb576120fb613f94565b141561213a576040518060400160405280600481526020017f48656c700000000000000000000000000000000000000000000000000000000081525094505b5050505092915050565b6060806000849050600081600160a060020a031663a0ed600d6040518163ffffffff1660e060020a028152600401602060405180830381865afa15801561218f573d6000803e3d6000fd5b505050506040513d601f19601f820116820180604052508101906121b39190613d1d565b9050600082600160a060020a031663c06dea4e6040518163ffffffff1660e060020a028152600401602060405180830381865afa1580156121f8573d6000803e3d6000fd5b505050506040513d601f19601f8201168201806040525081019061221c9190613d1d565b9050600081600160a060020a031663bca7caa088336040518363ffffffff1660e060020a028152600401612251929190613d3a565b602060405180830381865afa15801561226e573d6000803e3d6000fd5b505050506040513d601f19601f820116820180604052508101906122929190613d51565b60405160e060020a637dcfa291028152600481018990526024810182905290915061245290600160a060020a03851690637dcfa291906044015b600060405180830381865afa1580156122e9573d6000803e3d6000fd5b505050506040513d6000823e601f3d908101601f191682016040526123119190810190613f44565b85600160a060020a031663cca369966040518163ffffffff1660e060020a028152600401602060405180830381865afa158015612352573d6000803e3d6000fd5b505050506040513d601f19601f820116820180604052508101906123769190613d1d565b8987600160a060020a031663c06dea4e6040518163ffffffff1660e060020a028152600401602060405180830381865afa1580156123b8573d6000803e3d6000fd5b505050506040513d601f19601f820116820180604052508101906123dc9190613d1d565b600160a060020a031663bca7caa08c336040518363ffffffff1660e060020a02815260040161240c929190613d3a565b602060405180830381865afa158015612429573d6000803e3d6000fd5b505050506040513d601f19601f8201168201806040525081019061244d9190613d51565b6136a4565b61246b57604051806020016040528060008152506124e2565b60405160e060020a637dcfa2910281526004810188905260248101829052600160a060020a03841690637dcfa29190604401600060405180830381865afa1580156124ba573d6000803e3d6000fd5b505050506040513d6000823e601f3d908101601f191682016040526124e29190810190613f44565b60405160e060020a639c220647028152600481018990526024810183905290965061252090600160a060020a03851690639c220647906044016122cc565b61253957604051806020016040528060008152506125b0565b60405160e060020a639c2206470281526004810188905260248101829052600160a060020a03841690639c22064790604401600060405180830381865afa158015612588573d6000803e3d6000fd5b505050506040513d6000823e601f3d908101601f191682016040526125b09190810190613f44565b9450505050509250929050565b600080839050600081600160a060020a031663c06dea4e6040518163ffffffff1660e060020a028152600401602060405180830381865afa158015612606573d6000803e3d6000fd5b505050506040513d601f19601f8201168201806040525081019061262a9190613d1d565b9050600082600160a060020a031663d75e79808684600160a060020a031663bca7caa089336040518363ffffffff1660e060020a02815260040161266f929190613d3a565b602060405180830381865afa15801561268c573d6000803e3d6000fd5b505050506040513d601f19601f820116820180604052508101906126b09190613d51565b60405160e060020a63ffffffff851602815260048101929092526024820152604401600060405180830381865afa1580156126ef573d6000803e3d6000fd5b505050506040513d6000823e601f3d908101601f191682016040526127179190810190613f44565b905060006127258783613789565b9050600084600160a060020a031663cca369966040518163ffffffff1660e060020a028152600401602060405180830381865afa15801561276a573d6000803e3d6000fd5b505050506040513d601f19601f8201168201806040525081019061278e9190613d1d565b600160a060020a031663a318d45c6040518163ffffffff1660e060020a028152600401602060405180830381865afa1580156127ce573d6000803e3d6000fd5b505050506040513d601f19601f820116820180604052508101906127f29190613d1d565b6040517f65a3c078000000000000000000000000000000000000000000000000000000008152606060048201526008606482015260c060020a6743616d70736974650260848201526024810189905260448101849052600160a060020a0391909116906365a3c0789060a401602060405180830381865afa15801561287b573d6000803e3d6000fd5b505050506040513d601f19601f8201168201806040525081019061289f9190613d51565b11979650505050505050565b600080849050600081600160a060020a031663c06dea4e6040518163ffffffff1660e060020a028152600401602060405180830381865afa1580156128f4573d6000803e3d6000fd5b505050506040513d601f19601f820116820180604052508101906129189190613d1d565b6040517fb81f6e18000000000000000000000000000000000000000000000000000000008152909150600160a060020a0382169063b81f6e18906129629088908890600401613d3a565b602060405180830381865afa15801561297f573d6000803e3d6000fd5b505050506040513d601f19601f820116820180604052508101906107309190613fe6565b6060806000849050600081600160a060020a0316633ca61a586040518163ffffffff1660e060020a028152600401600060405180830381865afa1580156129ee573d6000803e3d6000fd5b505050506040513d6000823e601f3d908101601f19168201604052612a169190810190614008565b90506000805b8251811015612ad55783600160a060020a031663ed3719a588858481518110612a4757612a47613ebf565b60200260200101516040518363ffffffff1660e060020a028152600401612a6f9291906140fc565b602060405180830381865afa158015612a8c573d6000803e3d6000fd5b505050506040513d601f19601f82011682018060405250810190612ab09190613fe6565b15612ac35781612abf81614115565b9250505b80612acd81613f79565b915050612a1c565b508061ffff1667ffffffffffffffff811115612af357612af3613d8d565b604051908082528060200260200182016040528015612b2657816020015b6060815260200190600190039081612b115790505b5094508061ffff1667ffffffffffffffff811115612b4657612b46613d8d565b604051908082528060200260200182016040528015612b6f578160200160208202803683370190505b5093506000905060005b8251811015611a325783600160a060020a031663ed3719a588858481518110612ba457612ba4613ebf565b60200260200101516040518363ffffffff1660e060020a028152600401612bcc9291906140fc565b602060405180830381865afa158015612be9573d6000803e3d6000fd5b505050506040513d601f19601f82011682018060405250810190612c0d9190613fe6565b15612d8a57828181518110612c2457612c24613ebf565b6020026020010151868361ffff1681518110612c4257612c42613ebf565b6020026020010181905250600084600160a060020a03166335e333e46040518163ffffffff1660e060020a028152600401602060405180830381865afa158015612c90573d6000803e3d6000fd5b505050506040513d601f19601f82011682018060405250810190612cb49190613d1d565b905080600160a060020a03166330821b9c89868581518110612cd857612cd8613ebf565b60200260200101516040518363ffffffff1660e060020a028152600401612d009291906140fc565b602060405180830381865afa158015612d1d573d6000803e3d6000fd5b505050506040513d601f19601f82011682018060405250810190612d419190614137565b600b811115612d5257612d52613f94565b868461ffff1681518110612d6857612d68613ebf565b61ffff9092166020928302919091019091015282612d8581614115565b935050505b80612d9481613f79565b915050612b79565b600080600083905080600160a060020a031663108c5e146040518163ffffffff1660e060020a028152600401602060405180830381865afa158015612de5573d6000803e3d6000fd5b505050506040513d601f19601f82011682018060405250810190612e099190613d51565b925080600160a060020a03166338b145df6040518163ffffffff1660e060020a028152600401602060405180830381865afa158015612e4c573d6000803e3d6000fd5b505050506040513d601f19601f82011682018060405250810190612e709190613d51565b915050915091565b60608060606000806000879050600081600160a060020a031663a0ed600d6040518163ffffffff1660e060020a028152600401602060405180830381865afa158015612ec8573d6000803e3d6000fd5b505050506040513d601f19601f82011682018060405250810190612eec9190613d1d565b9050600082600160a060020a031663c06dea4e6040518163ffffffff1660e060020a028152600401602060405180830381865afa158015612f31573d6000803e3d6000fd5b505050506040513d601f19601f82011682018060405250810190612f559190613d1d565b9050600081600160a060020a031663bca7caa08b336040518363ffffffff1660e060020a028152600401612f8a929190613d3a565b602060405180830381865afa158015612fa7573d6000803e3d6000fd5b505050506040513d601f19601f82011682018060405250810190612fcb9190613d51565b60405160e060020a63d27ffd0d028152600481018c9052602481018290529091506130b590600160a060020a0385169063d27ffd0d90604401600060405180830381865afa158015613021573d6000803e3d6000fd5b505050506040513d6000823e601f3d908101601f191682016040526130499190810190613f44565b85600160a060020a031663cca369966040518163ffffffff1660e060020a028152600401602060405180830381865afa15801561308a573d6000803e3d6000fd5b505050506040513d601f19601f820116820180604052508101906130ae9190613d1d565b8c846138a2565b6130ce5760405180602001604052806000815250613145565b60405160e060020a63d27ffd0d028152600481018b905260248101829052600160a060020a0384169063d27ffd0d90604401600060405180830381865afa15801561311d573d6000803e3d6000fd5b505050506040513d6000823e601f3d908101601f191682016040526131459190810190613f44565b60405160e160020a6359eec01d028152600481018c90526024810183905290995061322f90600160a060020a0385169063b3dd803a90604401600060405180830381865afa15801561319b573d6000803e3d6000fd5b505050506040513d6000823e601f3d908101601f191682016040526131c39190810190613f44565b85600160a060020a031663cca369966040518163ffffffff1660e060020a028152600401602060405180830381865afa158015613204573d6000803e3d6000fd5b505050506040513d601f19601f820116820180604052508101906132289190613d1d565b8c846138e6565b61324857604051806020016040528060008152506132bf565b60405160e160020a6359eec01d028152600481018b905260248101829052600160a060020a0384169063b3dd803a90604401600060405180830381865afa158015613297573d6000803e3d6000fd5b505050506040513d6000823e601f3d908101601f191682016040526132bf9190810190613f44565b60405160e360020a63150cfdef028152600481018c9052602481018390529098506133a990600160a060020a0385169063a867ef7890604401600060405180830381865afa158015613315573d6000803e3d6000fd5b505050506040513d6000823e601f3d908101601f1916820160405261333d9190810190613f44565b85600160a060020a031663cca369966040518163ffffffff1660e060020a028152600401602060405180830381865afa15801561337e573d6000803e3d6000fd5b505050506040513d601f19601f820116820180604052508101906133a29190613d1d565b8c846136a4565b6133c25760405180602001604052806000815250613439565b60405160e360020a63150cfdef028152600481018b905260248101829052600160a060020a0384169063a867ef7890604401600060405180830381865afa158015613411573d6000803e3d6000fd5b505050506040513d6000823e601f3d908101601f191682016040526134399190810190613f44565b96506134b56040518060400160405280600681526020017f536869656c64000000000000000000000000000000000000000000000000000081525085600160a060020a031663cca369966040518163ffffffff1660e060020a028152600401602060405180830381865afa15801561337e573d6000803e3d6000fd5b6134c05760006134c3565b60015b955061352d60405180604001604052806008815260200160c060020a6743616d70736974650281525085600160a060020a031663cca369966040518163ffffffff1660e060020a028152600401602060405180830381865afa15801561337e573d6000803e3d6000fd5b61353857600061353b565b60015b9450505050509295509295909350565b60606000839050600081600160a060020a031663c06dea4e6040518163ffffffff1660e060020a028152600401602060405180830381865afa158015613595573d6000803e3d6000fd5b505050506040513d601f19601f820116820180604052508101906135b99190613d1d565b905081600160a060020a031663d75e79808583600160a060020a031663bca7caa088336040518363ffffffff1660e060020a0281526004016135fc929190613d3a565b602060405180830381865afa158015613619573d6000803e3d6000fd5b505050506040513d601f19601f8201168201806040525081019061363d9190613d51565b60405160e060020a63ffffffff851602815260048101929092526024820152604401600060405180830381865afa15801561367c573d6000803e3d6000fd5b505050506040513d6000823e601f3d908101601f19168201604052611d1c9190810190613f44565b60008084600160a060020a031663a318d45c6040518163ffffffff1660e060020a028152600401602060405180830381865afa1580156136e8573d6000803e3d6000fd5b505050506040513d601f19601f8201168201806040525081019061370c9190613d1d565b600160a060020a0316634db157d08786866040518463ffffffff1660e060020a02815260040161373e939291906140b6565b602060405180830381865afa15801561375b573d6000803e3d6000fd5b505050506040513d601f19601f8201168201806040525081019061377f9190613d51565b1195945050505050565b6000650102b36211c790506000839050600081600160a060020a0316633ca61a586040518163ffffffff1660e060020a028152600401600060405180830381865afa1580156137dc573d6000803e3d6000fd5b505050506040513d6000823e601f3d908101601f191682016040526138049190810190614008565b905060005b81518110156138995781818151811061382457613824613ebf565b602002602001015160405160200161383c9190614158565b60405160208183030381529060405280519060200120856040516020016138639190614158565b60405160208183030381529060405280519060200120141561388757809350613899565b8061389181613f79565b915050613809565b50505092915050565b60008084600160a060020a03166345d339d96040518163ffffffff1660e060020a028152600401602060405180830381865afa1580156136e8573d6000803e3d6000fd5b60008084600160a060020a031663c1cdbb3c6040518163ffffffff1660e060020a028152600401602060405180830381865afa1580156136e8573d6000803e3d6000fd5b600160a060020a038116811461393f57600080fd5b50565b6000806040838503121561395557600080fd5b82356139608161392a565b946020939093013593505050565b60008060006060848603121561398357600080fd5b833561398e8161392a565b92506020840135915060408401356139a58161392a565b809150509250925092565b600080604083850312156139c357600080fd5b82356139ce8161392a565b915060208301356139de8161392a565b809150509250929050565b600081518084526020808501945080840160005b83811015613a19578151875295820195908201906001016139fd565b509495945050505050565b6020815260006107c560208301846139e9565b60005b83811015613a52578181015183820152602001613a3a565b83811115613a61576000848401525b50505050565b60008151808452613a7f816020860160208601613a37565b601f01601f19169290920160200192915050565b6000828251808552602080860195508081830284010181860160005b84811015613add57601f19868403018952613acb838351613a67565b98840198925090830190600101613aaf565b5090979650505050505050565b604081526000613afd60408301856139e9565b8281036020840152611d1c8185613a93565b6020815260006107c56020830184613a67565b604081526000613b356040830185613a93565b8281036020840152611d1c81856139e9565b60c081526000613b5a60c08301896139e9565b602083820381850152613b6d828a613a93565b91508382036040850152613b818289613a93565b9150606084830381860152613b968389613a93565b92508483036080860152613baa8388613a93565b85810360a0870152865180825290935082840190838102850184018489016000805b84811015613c2557888403601f19018652825184888101845b6003811015613c10578782038352613bfe828551613a67565b938c0193928c01929150600101613be5565b50978a01979550505091870191600101613bcc565b50919f9e505050505050505050505050505050565b604081526000613c4d6040830185613a67565b8281036020840152611d1c8185613a67565b604081526000613c726040830185613a93565b82810360208481019190915284518083528582019282019060005b81811015613add57845161ffff1683529383019391830191600101613c8d565b600060208284031215613cbf57600080fd5b81356107c58161392a565b60a081526000613cdd60a0830188613a67565b8281036020840152613cef8188613a67565b90508281036040840152613d038187613a67565b941515606084015250509015156080909101529392505050565b600060208284031215613d2f57600080fd5b81516107c58161392a565b918252600160a060020a0316602082015260400190565b600060208284031215613d6357600080fd5b5051919050565b600060208284031215613d7c57600080fd5b815160ff811681146107c557600080fd5b60e060020a634e487b7102600052604160045260246000fd5b604051601f8201601f1916810167ffffffffffffffff81118282101715613dcf57613dcf613d8d565b604052919050565b600067ffffffffffffffff821115613df157613df1613d8d565b5060209081020190565b60006020808385031215613e0e57600080fd5b825167ffffffffffffffff811115613e2557600080fd5b8301601f81018513613e3657600080fd5b8051613e49613e4482613dd7565b613da6565b81815290830282018301908381019087831115613e6557600080fd5b928401925b82841015613e8357835182529284019290840190613e6a565b979650505050505050565b60e060020a634e487b7102600052601160045260246000fd5b60008219821115613eba57613eba613e8e565b500190565b60e060020a634e487b7102600052603260045260246000fd5b600082601f830112613ee957600080fd5b815167ffffffffffffffff811115613f0357613f03613d8d565b613f16601f8201601f1916602001613da6565b818152846020838601011115613f2b57600080fd5b613f3c826020830160208701613a37565b949350505050565b600060208284031215613f5657600080fd5b815167ffffffffffffffff811115613f6d57600080fd5b613f3c84828501613ed8565b6000600019821415613f8d57613f8d613e8e565b5060010190565b60e060020a634e487b7102600052602160045260246000fd5b8381526060810160078410613fd55760e060020a634e487b7102600052602160045260246000fd5b602082019390935260400152919050565b600060208284031215613ff857600080fd5b815180151581146107c557600080fd5b6000602080838503121561401b57600080fd5b825167ffffffffffffffff8082111561403357600080fd5b818501915085601f83011261404757600080fd5b8151614055613e4482613dd7565b8181529084028301840190848101908883111561407157600080fd5b8585015b838110156140a95780518581111561408d5760008081fd5b61409b8b89838a0101613ed8565b845250918601918601614075565b5098975050505050505050565b6060815260006140c96060830186613a67565b60208301949094525060400152919050565b6000602082840312156140ed57600080fd5b8151600781106107c557600080fd5b828152604060208201526000613f3c6040830184613a67565b600061ffff8083168181141561412d5761412d613e8e565b6001019392505050565b60006020828403121561414957600080fd5b8151600c81106107c557600080fd5b6000825161416a818460208701613a37565b919091019291505056fe52656d6f7465204c61756e636820616e642047756964616e63652053797374656da26469706673582212202a338fa7e7823d2c11118fb825583b5b6885000e0bbfe014bb3b22d1947f0f2964736f6c634300080b0033",
  "immutableReferences": {},
  "source": "// SPDX-License-Identifier: GPL-3.0\npragma solidity >=0.8.0;\n\nimport \"../HexplorationBoard.sol\";\nimport \"../HexplorationZone.sol\";\nimport \"@luckymachines/game-core/contracts/src/v0.0/PlayerRegistry.sol\";\nimport \"./CharacterCard.sol\";\nimport \"../tokens/TokenInventory.sol\";\nimport \"../HexplorationQueue.sol\";\n\nlibrary GameSummary {\n    // Function called by frontent for game info\n    function boardSize(address gameBoardAddress)\n        public\n        view\n        returns (uint256 rows, uint256 columns)\n    {\n        HexplorationBoard board = HexplorationBoard(gameBoardAddress);\n        rows = board.gridHeight();\n        columns = board.gridWidth();\n    }\n\n    function isRegistered(\n        address gameBoardAddress,\n        uint256 gameID,\n        address playerAddress\n    ) public view returns (bool) {\n        HexplorationBoard board = HexplorationBoard(gameBoardAddress);\n        PlayerRegistry pr = PlayerRegistry(board.prAddress());\n        return pr.isRegistered(gameID, playerAddress);\n    }\n\n    function getPlayerID(\n        address gameBoardAddress,\n        uint256 gameID,\n        address playerAddress\n    ) public view returns (uint256 playerID) {\n        HexplorationBoard board = HexplorationBoard(gameBoardAddress);\n        PlayerRegistry pr = PlayerRegistry(board.prAddress());\n        playerID = pr.playerID(gameID, playerAddress);\n    }\n\n    function currentGameplayQueue(address gameBoardAddress, uint256 gameID)\n        public\n        view\n        returns (uint256)\n    {\n        HexplorationBoard board = HexplorationBoard(gameBoardAddress);\n        HexplorationQueue q = HexplorationQueue(board.gameplayQueue());\n        return q.queueID(gameID);\n    }\n\n    function currentPhase(address gameBoardAddress, uint256 gameID)\n        public\n        view\n        returns (string memory phase)\n    {\n        HexplorationBoard board = HexplorationBoard(gameBoardAddress);\n        TokenInventory tokens = TokenInventory(board.tokenInventory());\n\n        uint256 dayBalance = tokens.DAY_NIGHT_TOKEN().balance(\"Day\", gameID, 1);\n        phase = dayBalance > 0 ? \"Day\" : \"Night\";\n    }\n\n    function activeZones(address gameBoardAddress, uint256 gameID)\n        public\n        view\n        returns (string[] memory zones, uint16[] memory tiles)\n    {\n        HexplorationBoard board = HexplorationBoard(gameBoardAddress);\n        string[] memory allZones = board.getZoneAliases();\n\n        uint16 activeZoneCount = 0;\n        for (uint256 i = 0; i < allZones.length; i++) {\n            if (board.zoneEnabled(gameID, allZones[i])) {\n                activeZoneCount++;\n            }\n        }\n        zones = new string[](activeZoneCount);\n        tiles = new uint16[](activeZoneCount);\n\n        activeZoneCount = 0;\n        for (uint256 i = 0; i < allZones.length; i++) {\n            if (board.zoneEnabled(gameID, allZones[i])) {\n                zones[activeZoneCount] = allZones[i];\n                HexplorationZone hexZone = HexplorationZone(\n                    board.hexZoneAddress()\n                );\n                tiles[activeZoneCount] = uint16(\n                    hexZone.tile(gameID, allZones[i])\n                );\n                activeZoneCount++;\n            }\n        }\n    }\n\n    function landingSite(address gameBoardAddress, uint256 gameID)\n        public\n        view\n        returns (string memory)\n    {\n        return HexplorationBoard(gameBoardAddress).initialPlayZone(gameID);\n    }\n\n    // Functions called directly by players\n\n    function allPlayerLocations(address gameBoardAddress, uint256 gameID)\n        public\n        view\n        returns (uint256[] memory, string[] memory)\n    {\n        HexplorationBoard board = HexplorationBoard(gameBoardAddress);\n        PlayerRegistry pr = PlayerRegistry(board.prAddress());\n        uint256 totalRegistrations = pr.totalRegistrations(gameID);\n        uint256[] memory playerIDs = new uint256[](totalRegistrations);\n        string[] memory playerZones = new string[](totalRegistrations);\n        for (uint256 i = 0; i < totalRegistrations; i++) {\n            playerIDs[i] = i + 1;\n            playerZones[i] = board.currentPlayZone(gameID, i + 1);\n        }\n        return (playerIDs, playerZones);\n    }\n\n    function currentLocation(address gameBoardAddress, uint256 gameID)\n        public\n        view\n        returns (string memory)\n    {\n        HexplorationBoard board = HexplorationBoard(gameBoardAddress);\n        PlayerRegistry pr = PlayerRegistry(board.prAddress());\n        return board.currentPlayZone(gameID, pr.playerID(gameID, msg.sender));\n    }\n\n    function currentPlayerStats(address gameBoardAddress, uint256 gameID)\n        public\n        view\n        returns (\n            uint8 movement,\n            uint8 agility,\n            uint8 dexterity\n        )\n    {\n        HexplorationBoard board = HexplorationBoard(gameBoardAddress);\n        CharacterCard cc = CharacterCard(board.characterCard());\n        PlayerRegistry pr = PlayerRegistry(board.prAddress());\n        uint256 playerID = pr.playerID(gameID, msg.sender);\n        movement = cc.movement(gameID, playerID);\n        agility = cc.agility(gameID, playerID);\n        dexterity = cc.dexterity(gameID, playerID);\n    }\n\n    function currentHandInventory(address gameBoardAddress, uint256 gameID)\n        public\n        view\n        returns (string memory leftHandItem, string memory rightHandItem)\n    {\n        HexplorationBoard board = HexplorationBoard(gameBoardAddress);\n        CharacterCard cc = CharacterCard(board.characterCard());\n        PlayerRegistry pr = PlayerRegistry(board.prAddress());\n        uint256 playerID = pr.playerID(gameID, msg.sender);\n        leftHandItem = inventoryItemExists(\n            cc.leftHandItem(gameID, playerID),\n            board.tokenInventory(),\n            gameID,\n            PlayerRegistry(board.prAddress()).playerID(gameID, msg.sender)\n        )\n            ? cc.leftHandItem(gameID, playerID)\n            : \"\";\n\n        rightHandItem = inventoryItemExists(\n            cc.rightHandItem(gameID, playerID),\n            board.tokenInventory(),\n            gameID,\n            PlayerRegistry(board.prAddress()).playerID(gameID, msg.sender)\n        )\n            ? cc.rightHandItem(gameID, playerID)\n            : \"\";\n    }\n\n    function activeInventory(address gameBoardAddress, uint256 gameID)\n        public\n        view\n        returns (\n            string memory artifact,\n            string memory status,\n            string memory relic,\n            bool shield,\n            bool campsite\n        )\n    {\n        HexplorationBoard board = HexplorationBoard(gameBoardAddress);\n        CharacterCard cc = CharacterCard(board.characterCard());\n        PlayerRegistry pr = PlayerRegistry(board.prAddress());\n        uint256 playerID = pr.playerID(gameID, msg.sender);\n        artifact = inventoryArtifactExists(\n            cc.artifact(gameID, playerID),\n            board.tokenInventory(),\n            gameID,\n            playerID\n        )\n            ? cc.artifact(gameID, playerID)\n            : \"\";\n\n        status = inventoryStatusExists(\n            cc.status(gameID, playerID),\n            board.tokenInventory(),\n            gameID,\n            playerID\n        )\n            ? cc.status(gameID, playerID)\n            : \"\";\n\n        relic = inventoryItemExists(\n            cc.relic(gameID, playerID),\n            board.tokenInventory(),\n            gameID,\n            playerID\n        )\n            ? cc.relic(gameID, playerID)\n            : \"\";\n\n        shield = inventoryItemExists(\n            \"Shield\",\n            board.tokenInventory(),\n            gameID,\n            playerID\n        )\n            ? true\n            : false;\n\n        campsite = inventoryItemExists(\n            \"Campsite\",\n            board.tokenInventory(),\n            gameID,\n            playerID\n        )\n            ? true\n            : false;\n    }\n\n    function inactiveInventory(address gameBoardAddress, uint256 gameID)\n        public\n        view\n        returns (string[] memory itemTypes, uint256[] memory itemBalances)\n    {\n        HexplorationBoard board = HexplorationBoard(gameBoardAddress);\n        PlayerRegistry pr = PlayerRegistry(board.prAddress());\n        TokenInventory ti = TokenInventory(board.tokenInventory());\n        itemBalances = new uint256[](35);\n        itemTypes = new string[](35);\n        itemTypes[0] = \"Small Ammo\";\n        itemTypes[1] = \"Large Ammo\";\n        itemTypes[2] = \"Batteries\";\n        itemTypes[3] = \"Shield\";\n        itemTypes[4] = \"Portal\";\n        itemTypes[5] = \"On\";\n        itemTypes[6] = \"Off\";\n        itemTypes[7] = \"Rusty Dagger\";\n        itemTypes[8] = \"Rusty Sword\";\n        itemTypes[9] = \"Rusty Pistol\";\n        itemTypes[10] = \"Rusty Rifle\";\n        itemTypes[11] = \"Shiny Dagger\";\n        itemTypes[12] = \"Shiny Sword\";\n        itemTypes[13] = \"Shiny Pistol\";\n        itemTypes[14] = \"Shiny Rifle\";\n        itemTypes[15] = \"Laser Dagger\";\n        itemTypes[16] = \"Laser Sword\";\n        itemTypes[17] = \"Laser Pistol\";\n        itemTypes[18] = \"Laser Rifle\";\n        itemTypes[19] = \"Glow stick\";\n        itemTypes[20] = \"Flashlight\";\n        itemTypes[21] = \"Flood light\";\n        itemTypes[22] = \"Nightvision Goggles\";\n        itemTypes[23] = \"Personal Shield\";\n        itemTypes[24] = \"Bubble Shield\";\n        itemTypes[25] = \"Frag Grenade\";\n        itemTypes[26] = \"Fire Grenade\";\n        itemTypes[27] = \"Shock Grenade\";\n        itemTypes[28] = \"HE Mortar\";\n        itemTypes[29] = \"Incendiary Mortar\";\n        itemTypes[30] = \"EMP Mortar\";\n        itemTypes[31] = \"Power Glove\";\n        itemTypes[32] = \"Remote Launch and Guidance System\";\n        itemTypes[33] = \"Teleporter Pack\";\n        itemTypes[34] = \"Campsite\";\n        uint256 playerID = pr.playerID(gameID, msg.sender);\n        if (ti.holdsToken(playerID, TokenInventory.Token.Item, gameID)) {\n            Item itemToken = ti.ITEM_TOKEN();\n            string[] memory types = itemToken.getTokenTypes();\n            for (uint256 i = 0; i < itemBalances.length; i++) {\n                itemTypes[i] = types[i];\n                itemBalances[i] = itemToken.balance(types[i], gameID, playerID);\n            }\n        }\n        // uint256 campsiteBalance = ti.ITEM_TOKEN().balance(\n        //     \"Campsite\",\n        //     gameID,\n        //     playerID\n        // );\n        // itemBalances[34] = campsiteBalance;\n    }\n\n    // Internal Stuff\n    function inventoryItemExists(\n        string memory tokenType,\n        address inventoryAddress,\n        uint256 gameID,\n        uint256 holderID\n    ) internal view returns (bool) {\n        return\n            TokenInventory(inventoryAddress).ITEM_TOKEN().balance(\n                tokenType,\n                gameID,\n                holderID\n            ) > 0;\n    }\n\n    function inventoryArtifactExists(\n        string memory tokenType,\n        address inventoryAddress,\n        uint256 gameID,\n        uint256 holderID\n    ) internal view returns (bool) {\n        return\n            TokenInventory(inventoryAddress).ARTIFACT_TOKEN().balance(\n                tokenType,\n                gameID,\n                holderID\n            ) > 0;\n    }\n\n    function inventoryStatusExists(\n        string memory tokenType,\n        address inventoryAddress,\n        uint256 gameID,\n        uint256 holderID\n    ) internal view returns (bool) {\n        return\n            TokenInventory(inventoryAddress).PLAYER_STATUS_TOKEN().balance(\n                tokenType,\n                gameID,\n                holderID\n            ) > 0;\n    }\n\n    function zoneIndex(address gameBoardAddress, string memory zoneAlias)\n        internal\n        view\n        returns (uint256 index)\n    {\n        index = 1111111111111;\n        HexplorationBoard board = HexplorationBoard(gameBoardAddress);\n        string[] memory allZones = board.getZoneAliases();\n        for (uint256 i = 0; i < allZones.length; i++) {\n            if (\n                keccak256(abi.encodePacked(zoneAlias)) ==\n                keccak256(abi.encodePacked(allZones[i]))\n            ) {\n                index = i;\n                break;\n            }\n        }\n    }\n\n    // TODO:\n    // Functions to complete\n\n    function lastDayPhaseEvents(address gameBoardAddress, uint256 gameID)\n        public\n        returns (\n            uint256[] memory playerIDs,\n            string[] memory activeActionCardTypes,\n            string[] memory activeActionCardsDrawn,\n            string[] memory currentActiveActions,\n            string[] memory activeActionCardResults,\n            string[3][] memory activeActionCardInventoryChanges\n        )\n    {}\n\n    function lastPlayerActions(address gameBoardAddress, uint256 gameID)\n        public\n        returns (\n            uint256[] memory playerIDs,\n            string[] memory activeActionCardTypes,\n            string[] memory activeActionCardsDrawn,\n            string[] memory currentActiveActions,\n            string[] memory activeActionCardResults,\n            string[3][] memory activeActionCardInventoryChanges\n        )\n    {\n        // returns\n        // playerIDs\n        // activeActionCardType - // \"Event\",\"Ambush\",\"Treasure\"\n        // activationActionCardsDrawn = card title of card drawn\n        // currentActveActions - action doing that led to card draw\n        // activeActionCardResults - outcomes of cards\n        // activeActionCardInventoryChangs - item loss, item gain, hand loss (left/right)\n    }\n\n    // SHINY NEW FUNCTIONS!!!\n    function getAvailableGameIDs(\n        address gameBoardAddress,\n        address gameRegistryAddress\n    ) public view returns (uint256[] memory) {\n        return\n            HexplorationBoard(gameBoardAddress).openGames(gameRegistryAddress);\n    }\n\n    function isAtCampsite(address gameBoardAddress, uint256 gameID)\n        public\n        view\n        returns (bool atCampsite)\n    {\n        HexplorationBoard board = HexplorationBoard(gameBoardAddress);\n        PlayerRegistry pr = PlayerRegistry(board.prAddress());\n        string memory currentZone = board.currentPlayZone(\n            gameID,\n            pr.playerID(gameID, msg.sender)\n        );\n        uint256 index = zoneIndex(gameBoardAddress, currentZone);\n        // zone balance...\n        //mapping(string => mapping(uint256 => mapping(uint256 => uint256)))\n\n        atCampsite =\n            TokenInventory(board.tokenInventory()).ITEM_TOKEN().zoneBalance(\n                \"Campsite\",\n                gameID,\n                index\n            ) >\n            0;\n    }\n\n    function activeAction(address gameBoardAddress, uint256 gameID)\n        public\n        view\n        returns (string memory action)\n    {\n        HexplorationBoard board = HexplorationBoard(gameBoardAddress);\n        CharacterCard cc = CharacterCard(board.characterCard());\n        uint256 playerID = PlayerRegistry(board.prAddress()).playerID(\n            gameID,\n            msg.sender\n        );\n        CharacterCard.Action a = cc.action(gameID, playerID);\n\n        action = \"Idle\";\n        if (a == CharacterCard.Action.Move) {\n            action = \"Move\";\n        } else if (a == CharacterCard.Action.SetupCamp) {\n            action = \"Setup camp\";\n        } else if (a == CharacterCard.Action.BreakDownCamp) {\n            action = \"Break down camp\";\n        } else if (a == CharacterCard.Action.Dig) {\n            action = \"Dig\";\n        } else if (a == CharacterCard.Action.Rest) {\n            action = \"Rest\";\n        } else if (a == CharacterCard.Action.Help) {\n            action = \"Help\";\n        }\n    }\n}\n",
  "sourcePath": "/Users/max/demo/hexploration/contracts/state/GameSummary.sol",
  "compiler": {
    "name": "solc",
    "version": "0.8.11+commit.d7f03943.Emscripten.clang"
  },
  "schemaVersion": "3.4.2",
  "updatedAt": "2022-05-27T05:49:26.020Z",
  "networkType": "ethereum",
  "devdoc": {
    "kind": "dev",
    "methods": {},
    "version": 1
  },
  "userdoc": {
    "kind": "user",
    "methods": {},
    "version": 1
  }
}