{
  "contractName": "GameSummary",
  "abi": [
    {
      "inputs": [
        {
          "internalType": "address",
          "name": "gameBoardAddress",
          "type": "address"
        },
        {
          "internalType": "uint256",
          "name": "gameID",
          "type": "uint256"
        }
      ],
      "name": "activeZones",
      "outputs": [
        {
          "internalType": "string[]",
          "name": "zones",
          "type": "string[]"
        },
        {
          "internalType": "uint16[]",
          "name": "tiles",
          "type": "uint16[]"
        }
      ],
      "stateMutability": "view",
      "type": "function"
    },
    {
      "inputs": [
        {
          "internalType": "address",
          "name": "gameBoardAddress",
          "type": "address"
        },
        {
          "internalType": "uint256",
          "name": "gameID",
          "type": "uint256"
        }
      ],
      "name": "landingSite",
      "outputs": [
        {
          "internalType": "string",
          "name": "",
          "type": "string"
        }
      ],
      "stateMutability": "view",
      "type": "function"
    },
    {
      "inputs": [
        {
          "internalType": "address",
          "name": "gameBoardAddress",
          "type": "address"
        },
        {
          "internalType": "uint256",
          "name": "gameID",
          "type": "uint256"
        }
      ],
      "name": "currentLocation",
      "outputs": [
        {
          "internalType": "string",
          "name": "",
          "type": "string"
        }
      ],
      "stateMutability": "view",
      "type": "function"
    },
    {
      "inputs": [
        {
          "internalType": "address",
          "name": "gameBoardAddress",
          "type": "address"
        },
        {
          "internalType": "uint256",
          "name": "gameID",
          "type": "uint256"
        }
      ],
      "name": "allPlayerLocations",
      "outputs": [
        {
          "internalType": "uint256[]",
          "name": "",
          "type": "uint256[]"
        },
        {
          "internalType": "string[]",
          "name": "",
          "type": "string[]"
        }
      ],
      "stateMutability": "view",
      "type": "function"
    }
  ],
  "bytecode": "0x610e39610053600b82828239805160001a607314610046577f4e487b7100000000000000000000000000000000000000000000000000000000600052600060045260246000fd5b30600052607381538281f3fe73000000000000000000000000000000000000000030146080604052600436106100595760e060020a60003504638191e062811461005e578063821ba3a114610088578063e569d33a146100a8578063f8ffdfcc146100c9575b600080fd5b61007161006c366004610983565b6100dc565b60405161007f929190610a5f565b60405180910390f35b61009b610096366004610983565b610361565b60405161007f9190610ab6565b6100bb6100b6366004610983565b6103f1565b60405161007f929190610ac9565b61009b6100d7366004610983565b6107f5565b6060806000849050600081600160a060020a031663c06dea4e6040518163ffffffff1660e060020a028152600401602060405180830381865afa158015610127573d6000803e3d6000fd5b505050506040513d601f19601f8201168201806040525081019061014b9190610b24565b6040517fb77ff41100000000000000000000000000000000000000000000000000000000815260048101879052909150600090600160a060020a0383169063b77ff41190602401602060405180830381865afa1580156101af573d6000803e3d6000fd5b505050506040513d601f19601f820116820180604052508101906101d39190610b41565b905060008167ffffffffffffffff8111156101f0576101f0610b5a565b604051908082528060200260200182016040528015610219578160200160208202803683370190505b50905060008267ffffffffffffffff81111561023757610237610b5a565b60405190808252806020026020018201604052801561026a57816020015b60608152602001906001900390816102555790505b50905060005b8381101561035257610283816001610b8c565b83828151811061029557610295610ba4565b6020908102919091010152600160a060020a03861663d75e79808a6102bb846001610b8c565b60405160e060020a63ffffffff851602815260048101929092526024820152604401600060405180830381865afa1580156102fa573d6000803e3d6000fd5b505050506040513d6000823e601f3d908101601f191682016040526103229190810190610c5a565b82828151811061033457610334610ba4565b6020026020010181905250808061034a90610c8f565b915050610270565b50909890975095505050505050565b6040517feb33983d00000000000000000000000000000000000000000000000000000000815260048101829052606090600160a060020a0384169063eb33983d90602401600060405180830381865afa1580156103c2573d6000803e3d6000fd5b505050506040513d6000823e601f3d908101601f191682016040526103ea9190810190610c5a565b9392505050565b6060806000849050600081600160a060020a0316633ca61a586040518163ffffffff1660e060020a028152600401600060405180830381865afa15801561043c573d6000803e3d6000fd5b505050506040513d6000823e601f3d908101601f191682016040526104649190810190610caa565b90506000805b82518110156105235783600160a060020a031663ed3719a58885848151811061049557610495610ba4565b60200260200101516040518363ffffffff1660e060020a0281526004016104bd929190610d6c565b602060405180830381865afa1580156104da573d6000803e3d6000fd5b505050506040513d601f19601f820116820180604052508101906104fe9190610d85565b15610511578161050d81610da7565b9250505b8061051b81610c8f565b91505061046a565b508061ffff1667ffffffffffffffff81111561054157610541610b5a565b60405190808252806020026020018201604052801561057457816020015b606081526020019060019003908161055f5790505b5094508061ffff1667ffffffffffffffff81111561059457610594610b5a565b6040519080825280602002602001820160405280156105bd578160200160208202803683370190505b5093506000905060005b82518110156107ea5783600160a060020a031663ed3719a5888584815181106105f2576105f2610ba4565b60200260200101516040518363ffffffff1660e060020a02815260040161061a929190610d6c565b602060405180830381865afa158015610637573d6000803e3d6000fd5b505050506040513d601f19601f8201168201806040525081019061065b9190610d85565b156107d85782818151811061067257610672610ba4565b6020026020010151868361ffff168151811061069057610690610ba4565b6020026020010181905250600084600160a060020a03166335e333e46040518163ffffffff1660e060020a028152600401602060405180830381865afa1580156106de573d6000803e3d6000fd5b505050506040513d601f19601f820116820180604052508101906107029190610b24565b905080600160a060020a03166330821b9c8986858151811061072657610726610ba4565b60200260200101516040518363ffffffff1660e060020a02815260040161074e929190610d6c565b602060405180830381865afa15801561076b573d6000803e3d6000fd5b505050506040513d601f19601f8201168201806040525081019061078f9190610dc9565b600a8111156107a0576107a0610dea565b868461ffff16815181106107b6576107b6610ba4565b61ffff90921660209283029190910190910152826107d381610da7565b935050505b806107e281610c8f565b9150506105c7565b505050509250929050565b60606000839050600081600160a060020a031663c06dea4e6040518163ffffffff1660e060020a028152600401602060405180830381865afa15801561083f573d6000803e3d6000fd5b505050506040513d601f19601f820116820180604052508101906108639190610b24565b6040517fbca7caa000000000000000000000000000000000000000000000000000000000815260048101869052336024820152909150600160a060020a038084169163d75e79809187919085169063bca7caa090604401602060405180830381865afa1580156108d7573d6000803e3d6000fd5b505050506040513d601f19601f820116820180604052508101906108fb9190610b41565b60405160e060020a63ffffffff851602815260048101929092526024820152604401600060405180830381865afa15801561093a573d6000803e3d6000fd5b505050506040513d6000823e601f3d908101601f191682016040526109629190810190610c5a565b95945050505050565b600160a060020a038116811461098057600080fd5b50565b6000806040838503121561099657600080fd5b82356109a18161096b565b946020939093013593505050565b60005b838110156109ca5781810151838201526020016109b2565b838111156109d9576000848401525b50505050565b600081518084526109f78160208601602086016109af565b601f01601f19169290920160200192915050565b600081518084526020808501808196508284028101915082860160005b85811015610a52578284038952610a408483516109df565b98850198935090840190600101610a28565b5091979650505050505050565b604080825283519082018190526000906020906060840190828701845b82811015610a9857815184529284019290840190600101610a7c565b50505083810382850152610aac8186610a0b565b9695505050505050565b6020815260006103ea60208301846109df565b604081526000610adc6040830185610a0b565b82810360208481019190915284518083528582019282019060005b81811015610b1757845161ffff1683529383019391830191600101610af7565b5090979650505050505050565b600060208284031215610b3657600080fd5b81516103ea8161096b565b600060208284031215610b5357600080fd5b5051919050565b60e060020a634e487b7102600052604160045260246000fd5b60e060020a634e487b7102600052601160045260246000fd5b60008219821115610b9f57610b9f610b73565b500190565b60e060020a634e487b7102600052603260045260246000fd5b604051601f8201601f1916810167ffffffffffffffff81118282101715610be657610be6610b5a565b604052919050565b600082601f830112610bff57600080fd5b815167ffffffffffffffff811115610c1957610c19610b5a565b610c2c601f8201601f1916602001610bbd565b818152846020838601011115610c4157600080fd5b610c528260208301602087016109af565b949350505050565b600060208284031215610c6c57600080fd5b815167ffffffffffffffff811115610c8357600080fd5b610c5284828501610bee565b6000600019821415610ca357610ca3610b73565b5060010190565b60006020808385031215610cbd57600080fd5b825167ffffffffffffffff80821115610cd557600080fd5b818501915085601f830112610ce957600080fd5b815181811115610cfb57610cfb610b5a565b838102610d09858201610bbd565b9182528381018501918581019089841115610d2357600080fd5b86860192505b83831015610d5f57825185811115610d415760008081fd5b610d4f8b89838a0101610bee565b8352509186019190860190610d29565b9998505050505050505050565b828152604060208201526000610c5260408301846109df565b600060208284031215610d9757600080fd5b815180151581146103ea57600080fd5b600061ffff80831681811415610dbf57610dbf610b73565b6001019392505050565b600060208284031215610ddb57600080fd5b8151600b81106103ea57600080fd5b60e060020a634e487b7102600052602160045260246000fdfea26469706673582212209aae005799a143fb711f5d080f338ffd225737ecb3eacb435218249b7f2cc9bf64736f6c634300080b0033",
  "immutableReferences": {},
  "source": "// SPDX-License-Identifier: GPL-3.0\npragma solidity >=0.8.0;\n\nimport \"../HexplorationBoard.sol\";\nimport \"../HexplorationZone.sol\";\nimport \"@luckymachines/game-core/contracts/src/v0.0/PlayerRegistry.sol\";\n\nlibrary GameSummary {\n    // enemies\n    // tokens\n    function activeZones(address gameBoardAddress, uint256 gameID)\n        public\n        view\n        returns (string[] memory zones, uint16[] memory tiles)\n    {\n        HexplorationBoard board = HexplorationBoard(gameBoardAddress);\n        string[] memory allZones = board.getZoneAliases();\n\n        uint16 activeZoneCount = 0;\n        for (uint256 i = 0; i < allZones.length; i++) {\n            if (board.zoneEnabled(gameID, allZones[i])) {\n                activeZoneCount++;\n            }\n        }\n        zones = new string[](activeZoneCount);\n        tiles = new uint16[](activeZoneCount);\n\n        activeZoneCount = 0;\n        for (uint256 i = 0; i < allZones.length; i++) {\n            if (board.zoneEnabled(gameID, allZones[i])) {\n                zones[activeZoneCount] = allZones[i];\n                HexplorationZone hexZone = HexplorationZone(\n                    board.hexZoneAddress()\n                );\n                tiles[activeZoneCount] = uint16(\n                    hexZone.tile(gameID, allZones[i])\n                );\n                activeZoneCount++;\n            }\n        }\n    }\n\n    function landingSite(address gameBoardAddress, uint256 gameID)\n        public\n        view\n        returns (string memory)\n    {\n        return HexplorationBoard(gameBoardAddress).initialPlayZone(gameID);\n    }\n\n    function currentLocation(address gameBoardAddress, uint256 gameID)\n        public\n        view\n        returns (string memory)\n    {\n        HexplorationBoard board = HexplorationBoard(gameBoardAddress);\n        PlayerRegistry pr = PlayerRegistry(board.prAddress());\n        return board.currentPlayZone(gameID, pr.playerID(gameID, msg.sender));\n    }\n\n    function allPlayerLocations(address gameBoardAddress, uint256 gameID)\n        public\n        view\n        returns (uint256[] memory, string[] memory)\n    {\n        HexplorationBoard board = HexplorationBoard(gameBoardAddress);\n        PlayerRegistry pr = PlayerRegistry(board.prAddress());\n        uint256 totalRegistrations = pr.totalRegistrations(gameID);\n        uint256[] memory playerIDs = new uint256[](totalRegistrations);\n        string[] memory playerZones = new string[](totalRegistrations);\n        for (uint256 i = 0; i < totalRegistrations; i++) {\n            playerIDs[i] = i + 1;\n            playerZones[i] = board.currentPlayZone(gameID, i + 1);\n        }\n        return (playerIDs, playerZones);\n    }\n}\n",
  "sourcePath": "/Users/maxmeier/Developer/Lucky Machines/hexploration/contracts/state/GameSummary.sol",
  "compiler": {
    "name": "solc",
    "version": "0.8.11+commit.d7f03943.Emscripten.clang"
  },
  "schemaVersion": "3.4.4",
  "updatedAt": "2022-05-14T00:01:34.337Z",
  "devdoc": {
    "kind": "dev",
    "methods": {},
    "version": 1
  },
  "userdoc": {
    "kind": "user",
    "methods": {},
    "version": 1
  }
}