{
  "contractName": "GameSummary",
  "abi": [
    {
      "inputs": [
        {
          "internalType": "address",
          "name": "gameBoardAddress",
          "type": "address"
        }
      ],
      "name": "boardSize",
      "outputs": [
        {
          "internalType": "uint256",
          "name": "rows",
          "type": "uint256"
        },
        {
          "internalType": "uint256",
          "name": "columns",
          "type": "uint256"
        }
      ],
      "stateMutability": "view",
      "type": "function",
      "constant": true
    },
    {
      "inputs": [
        {
          "internalType": "address",
          "name": "gameBoardAddress",
          "type": "address"
        },
        {
          "internalType": "uint256",
          "name": "gameID",
          "type": "uint256"
        },
        {
          "internalType": "address",
          "name": "playerAddress",
          "type": "address"
        }
      ],
      "name": "isRegistered",
      "outputs": [
        {
          "internalType": "bool",
          "name": "",
          "type": "bool"
        }
      ],
      "stateMutability": "view",
      "type": "function",
      "constant": true
    },
    {
      "inputs": [
        {
          "internalType": "address",
          "name": "gameBoardAddress",
          "type": "address"
        },
        {
          "internalType": "uint256",
          "name": "gameID",
          "type": "uint256"
        }
      ],
      "name": "currentPhase",
      "outputs": [
        {
          "internalType": "string",
          "name": "phase",
          "type": "string"
        }
      ],
      "stateMutability": "view",
      "type": "function",
      "constant": true
    },
    {
      "inputs": [
        {
          "internalType": "address",
          "name": "gameBoardAddress",
          "type": "address"
        },
        {
          "internalType": "uint256",
          "name": "gameID",
          "type": "uint256"
        }
      ],
      "name": "activeZones",
      "outputs": [
        {
          "internalType": "string[]",
          "name": "zones",
          "type": "string[]"
        },
        {
          "internalType": "uint16[]",
          "name": "tiles",
          "type": "uint16[]"
        }
      ],
      "stateMutability": "view",
      "type": "function",
      "constant": true
    },
    {
      "inputs": [
        {
          "internalType": "address",
          "name": "gameBoardAddress",
          "type": "address"
        },
        {
          "internalType": "uint256",
          "name": "gameID",
          "type": "uint256"
        }
      ],
      "name": "landingSite",
      "outputs": [
        {
          "internalType": "string",
          "name": "",
          "type": "string"
        }
      ],
      "stateMutability": "view",
      "type": "function",
      "constant": true
    },
    {
      "inputs": [
        {
          "internalType": "address",
          "name": "gameBoardAddress",
          "type": "address"
        },
        {
          "internalType": "uint256",
          "name": "gameID",
          "type": "uint256"
        }
      ],
      "name": "currentLocation",
      "outputs": [
        {
          "internalType": "string",
          "name": "",
          "type": "string"
        }
      ],
      "stateMutability": "view",
      "type": "function",
      "constant": true
    },
    {
      "inputs": [
        {
          "internalType": "address",
          "name": "gameBoardAddress",
          "type": "address"
        },
        {
          "internalType": "uint256",
          "name": "gameID",
          "type": "uint256"
        }
      ],
      "name": "allPlayerLocations",
      "outputs": [
        {
          "internalType": "uint256[]",
          "name": "",
          "type": "uint256[]"
        },
        {
          "internalType": "string[]",
          "name": "",
          "type": "string[]"
        }
      ],
      "stateMutability": "view",
      "type": "function",
      "constant": true
    },
    {
      "inputs": [
        {
          "internalType": "address",
          "name": "gameBoardAddress",
          "type": "address"
        },
        {
          "internalType": "uint256",
          "name": "gameID",
          "type": "uint256"
        }
      ],
      "name": "currentPlayerStats",
      "outputs": [
        {
          "internalType": "uint8",
          "name": "movement",
          "type": "uint8"
        },
        {
          "internalType": "uint8",
          "name": "agility",
          "type": "uint8"
        },
        {
          "internalType": "uint8",
          "name": "dexterity",
          "type": "uint8"
        },
        {
          "internalType": "string",
          "name": "leftHandItem",
          "type": "string"
        },
        {
          "internalType": "string",
          "name": "rightHandItem",
          "type": "string"
        },
        {
          "internalType": "string",
          "name": "artifact",
          "type": "string"
        },
        {
          "internalType": "string",
          "name": "status",
          "type": "string"
        },
        {
          "internalType": "string",
          "name": "relic",
          "type": "string"
        },
        {
          "internalType": "bool",
          "name": "shield",
          "type": "bool"
        },
        {
          "internalType": "bool",
          "name": "campsite",
          "type": "bool"
        }
      ],
      "stateMutability": "view",
      "type": "function",
      "constant": true
    }
  ],
  "bytecode": "0x61178a610053600b82828239805160001a607314610046577f4e487b7100000000000000000000000000000000000000000000000000000000600052600060045260246000fd5b30600052607381538281f3fe73000000000000000000000000000000000000000030146080604052600436106100965760003560e060020a90048063cabd6fda11610069578063cabd6fda14610121578063e569d33a14610144578063ee203a8e14610165578063f8ffdfcc1461018d57600080fd5b80632f874fe01461009b5780638191e062146100cd578063821ba3a1146100ee578063a75d3f871461010e575b600080fd5b6100ae6100a93660046111c6565b6101a0565b6040516100c49a9998979695949392919061124e565b60405180910390f35b6100e06100db3660046111c6565b61052c565b6040516100c4929190611345565b6101016100fc3660046111c6565b6107b1565b6040516100c49190611392565b61010161011c3660046111c6565b610841565b61013461012f3660046113a5565b610a5d565b60405190151581526020016100c4565b6101576101523660046111c6565b610b58565b6040516100c49291906113e7565b610178610173366004611435565b610f5c565b604080519283526020830191909152016100c4565b61010161019b3660046111c6565b611038565b6000806000606080606080606060008060008c9050600081600160a060020a031663a0ed600d6040518163ffffffff1660e060020a028152600401602060405180830381865afa1580156101f8573d6000803e3d6000fd5b505050506040513d601f19601f8201168201806040525081019061021c9190611452565b6040517ffdf5a31c000000000000000000000000000000000000000000000000000000008152600481018f9052336024820152909150600160a060020a0382169063fdf5a31c90604401602060405180830381865afa158015610283573d6000803e3d6000fd5b505050506040513d601f19601f820116820180604052508101906102a7919061146f565b6040517fca318967000000000000000000000000000000000000000000000000000000008152600481018f9052336024820152909c50600160a060020a0382169063ca31896790604401602060405180830381865afa15801561030e573d6000803e3d6000fd5b505050506040513d601f19601f82011682018060405250810190610332919061146f565b6040517f989c11a9000000000000000000000000000000000000000000000000000000008152600481018f9052336024820152909b50600160a060020a0382169063989c11a990604401602060405180830381865afa158015610399573d6000803e3d6000fd5b505050506040513d601f19601f820116820180604052508101906103bd919061146f565b6040517fa082936d000000000000000000000000000000000000000000000000000000008152600481018f9052336024820152909a50600160a060020a0382169063a082936d90604401600060405180830381865afa158015610424573d6000803e3d6000fd5b505050506040513d6000823e601f3d908101601f1916820160405261044c9190810190611548565b6040517f66625370000000000000000000000000000000000000000000000000000000008152600481018f9052336024820152909950600160a060020a03821690636662537090604401600060405180830381865afa1580156104b3573d6000803e3d6000fd5b505050506040513d6000823e601f3d908101601f191682016040526104db9190810190611548565b9750604051806020016040528060008152509650604051806020016040528060008152509550604051806020016040528060008152509450600093506000925050509295989b9194979a5092959850565b6060806000849050600081600160a060020a031663c06dea4e6040518163ffffffff1660e060020a028152600401602060405180830381865afa158015610577573d6000803e3d6000fd5b505050506040513d601f19601f8201168201806040525081019061059b9190611452565b6040517fb77ff41100000000000000000000000000000000000000000000000000000000815260048101879052909150600090600160a060020a0383169063b77ff41190602401602060405180830381865afa1580156105ff573d6000803e3d6000fd5b505050506040513d601f19601f82011682018060405250810190610623919061157d565b905060008167ffffffffffffffff81111561064057610640611492565b604051908082528060200260200182016040528015610669578160200160208202803683370190505b50905060008267ffffffffffffffff81111561068757610687611492565b6040519080825280602002602001820160405280156106ba57816020015b60608152602001906001900390816106a55790505b50905060005b838110156107a2576106d38160016115af565b8382815181106106e5576106e56115c7565b6020908102919091010152600160a060020a03861663d75e79808a61070b8460016115af565b60405160e060020a63ffffffff851602815260048101929092526024820152604401600060405180830381865afa15801561074a573d6000803e3d6000fd5b505050506040513d6000823e601f3d908101601f191682016040526107729190810190611548565b828281518110610784576107846115c7565b6020026020010181905250808061079a906115e0565b9150506106c0565b50909890975095505050505050565b6040517feb33983d00000000000000000000000000000000000000000000000000000000815260048101829052606090600160a060020a0384169063eb33983d90602401600060405180830381865afa158015610812573d6000803e3d6000fd5b505050506040513d6000823e601f3d908101601f1916820160405261083a9190810190611548565b9392505050565b60606000839050600081600160a060020a031663cca369966040518163ffffffff1660e060020a028152600401602060405180830381865afa15801561088b573d6000803e3d6000fd5b505050506040513d601f19601f820116820180604052508101906108af9190611452565b9050600081600160a060020a031663a906dfd16040518163ffffffff1660e060020a028152600401602060405180830381865afa1580156108f4573d6000803e3d6000fd5b505050506040513d601f19601f820116820180604052508101906109189190611452565b6040517f4db157d000000000000000000000000000000000000000000000000000000000815260606004820152600360648201527f446179000000000000000000000000000000000000000000000000000000000060848201526024810187905260016044820152600160a060020a039190911690634db157d09060a401602060405180830381865afa1580156109b3573d6000803e3d6000fd5b505050506040513d601f19601f820116820180604052508101906109d7919061157d565b905060008111610a1c576040518060400160405280600581526020017f4e69676874000000000000000000000000000000000000000000000000000000815250610a53565b6040518060400160405280600381526020017f44617900000000000000000000000000000000000000000000000000000000008152505b9695505050505050565b600080849050600081600160a060020a031663c06dea4e6040518163ffffffff1660e060020a028152600401602060405180830381865afa158015610aa6573d6000803e3d6000fd5b505050506040513d601f19601f82011682018060405250810190610aca9190611452565b6040517fb81f6e1800000000000000000000000000000000000000000000000000000000815260048101879052600160a060020a0386811660248301529192509082169063b81f6e1890604401602060405180830381865afa158015610b34573d6000803e3d6000fd5b505050506040513d601f19601f82011682018060405250810190610a5391906115fb565b6060806000849050600081600160a060020a0316633ca61a586040518163ffffffff1660e060020a028152600401600060405180830381865afa158015610ba3573d6000803e3d6000fd5b505050506040513d6000823e601f3d908101601f19168201604052610bcb919081019061161d565b90506000805b8251811015610c8a5783600160a060020a031663ed3719a588858481518110610bfc57610bfc6115c7565b60200260200101516040518363ffffffff1660e060020a028152600401610c249291906116df565b602060405180830381865afa158015610c41573d6000803e3d6000fd5b505050506040513d601f19601f82011682018060405250810190610c6591906115fb565b15610c785781610c74816116f8565b9250505b80610c82816115e0565b915050610bd1565b508061ffff1667ffffffffffffffff811115610ca857610ca8611492565b604051908082528060200260200182016040528015610cdb57816020015b6060815260200190600190039081610cc65790505b5094508061ffff1667ffffffffffffffff811115610cfb57610cfb611492565b604051908082528060200260200182016040528015610d24578160200160208202803683370190505b5093506000905060005b8251811015610f515783600160a060020a031663ed3719a588858481518110610d5957610d596115c7565b60200260200101516040518363ffffffff1660e060020a028152600401610d819291906116df565b602060405180830381865afa158015610d9e573d6000803e3d6000fd5b505050506040513d601f19601f82011682018060405250810190610dc291906115fb565b15610f3f57828181518110610dd957610dd96115c7565b6020026020010151868361ffff1681518110610df757610df76115c7565b6020026020010181905250600084600160a060020a03166335e333e46040518163ffffffff1660e060020a028152600401602060405180830381865afa158015610e45573d6000803e3d6000fd5b505050506040513d601f19601f82011682018060405250810190610e699190611452565b905080600160a060020a03166330821b9c89868581518110610e8d57610e8d6115c7565b60200260200101516040518363ffffffff1660e060020a028152600401610eb59291906116df565b602060405180830381865afa158015610ed2573d6000803e3d6000fd5b505050506040513d601f19601f82011682018060405250810190610ef6919061171a565b600b811115610f0757610f0761173b565b868461ffff1681518110610f1d57610f1d6115c7565b61ffff9092166020928302919091019091015282610f3a816116f8565b935050505b80610f49816115e0565b915050610d2e565b505050509250929050565b600080600083905080600160a060020a031663108c5e146040518163ffffffff1660e060020a028152600401602060405180830381865afa158015610fa5573d6000803e3d6000fd5b505050506040513d601f19601f82011682018060405250810190610fc9919061157d565b925080600160a060020a03166338b145df6040518163ffffffff1660e060020a028152600401602060405180830381865afa15801561100c573d6000803e3d6000fd5b505050506040513d601f19601f82011682018060405250810190611030919061157d565b915050915091565b60606000839050600081600160a060020a031663c06dea4e6040518163ffffffff1660e060020a028152600401602060405180830381865afa158015611082573d6000803e3d6000fd5b505050506040513d601f19601f820116820180604052508101906110a69190611452565b6040517fbca7caa000000000000000000000000000000000000000000000000000000000815260048101869052336024820152909150600160a060020a038084169163d75e79809187919085169063bca7caa090604401602060405180830381865afa15801561111a573d6000803e3d6000fd5b505050506040513d601f19601f8201168201806040525081019061113e919061157d565b60405160e060020a63ffffffff851602815260048101929092526024820152604401600060405180830381865afa15801561117d573d6000803e3d6000fd5b505050506040513d6000823e601f3d908101601f191682016040526111a59190810190611548565b95945050505050565b600160a060020a03811681146111c357600080fd5b50565b600080604083850312156111d957600080fd5b82356111e4816111ae565b946020939093013593505050565b60005b8381101561120d5781810151838201526020016111f5565b8381111561121c576000848401525b50505050565b6000815180845261123a8160208601602086016111f2565b601f01601f19169290920160200192915050565b600061014060ff8d16835260ff8c16602084015260ff8b16604084015280606084015261127d8184018b611222565b90508281036080840152611291818a611222565b905082810360a08401526112a58189611222565b905082810360c08401526112b98188611222565b905082810360e08401526112cd8187611222565b94151561010084015250509015156101209091015298975050505050505050565b6000828251808552602080860195508081830284010181860160005b8481101561133857601f19868403018952611326838351611222565b9884019892509083019060010161130a565b5090979650505050505050565b604080825283519082018190526000906020906060840190828701845b8281101561137e57815184529284019290840190600101611362565b50505083810382850152610a5381866112ee565b60208152600061083a6020830184611222565b6000806000606084860312156113ba57600080fd5b83356113c5816111ae565b92506020840135915060408401356113dc816111ae565b809150509250925092565b6040815260006113fa60408301856112ee565b82810360208481019190915284518083528582019282019060005b8181101561133857845161ffff1683529383019391830191600101611415565b60006020828403121561144757600080fd5b813561083a816111ae565b60006020828403121561146457600080fd5b815161083a816111ae565b60006020828403121561148157600080fd5b815160ff8116811461083a57600080fd5b60e060020a634e487b7102600052604160045260246000fd5b604051601f8201601f1916810167ffffffffffffffff811182821017156114d4576114d4611492565b604052919050565b600082601f8301126114ed57600080fd5b815167ffffffffffffffff81111561150757611507611492565b61151a601f8201601f19166020016114ab565b81815284602083860101111561152f57600080fd5b6115408260208301602087016111f2565b949350505050565b60006020828403121561155a57600080fd5b815167ffffffffffffffff81111561157157600080fd5b611540848285016114dc565b60006020828403121561158f57600080fd5b5051919050565b60e060020a634e487b7102600052601160045260246000fd5b600082198211156115c2576115c2611596565b500190565b60e060020a634e487b7102600052603260045260246000fd5b60006000198214156115f4576115f4611596565b5060010190565b60006020828403121561160d57600080fd5b8151801515811461083a57600080fd5b6000602080838503121561163057600080fd5b825167ffffffffffffffff8082111561164857600080fd5b818501915085601f83011261165c57600080fd5b81518181111561166e5761166e611492565b83810261167c8582016114ab565b918252838101850191858101908984111561169657600080fd5b86860192505b838310156116d2578251858111156116b45760008081fd5b6116c28b89838a01016114dc565b835250918601919086019061169c565b9998505050505050505050565b8281526040602082015260006115406040830184611222565b600061ffff8083168181141561171057611710611596565b6001019392505050565b60006020828403121561172c57600080fd5b8151600c811061083a57600080fd5b60e060020a634e487b7102600052602160045260246000fdfea26469706673582212205d329ac52f6f110c8cb42229952624e9065fc8dab2afb9c41d581de92557612864736f6c634300080b0033",
  "immutableReferences": {},
  "source": "// SPDX-License-Identifier: GPL-3.0\npragma solidity >=0.8.0;\n\nimport \"../HexplorationBoard.sol\";\nimport \"../HexplorationZone.sol\";\nimport \"@luckymachines/game-core/contracts/src/v0.0/PlayerRegistry.sol\";\nimport \"./CharacterCard.sol\";\nimport \"../tokens/TokenInventory.sol\";\n\nlibrary GameSummary {\n    // enemies\n    // tokens\n    function boardSize(address gameBoardAddress)\n        public\n        view\n        returns (uint256 rows, uint256 columns)\n    {\n        HexplorationBoard board = HexplorationBoard(gameBoardAddress);\n        rows = board.gridHeight();\n        columns = board.gridWidth();\n    }\n\n    function isRegistered(\n        address gameBoardAddress,\n        uint256 gameID,\n        address playerAddress\n    ) public view returns (bool) {\n        HexplorationBoard board = HexplorationBoard(gameBoardAddress);\n        PlayerRegistry pr = PlayerRegistry(board.prAddress());\n        return pr.isRegistered(gameID, playerAddress);\n    }\n\n    function currentPhase(address gameBoardAddress, uint256 gameID)\n        public\n        view\n        returns (string memory phase)\n    {\n        HexplorationBoard board = HexplorationBoard(gameBoardAddress);\n        TokenInventory tokens = TokenInventory(board.tokenInventory());\n\n        uint256 dayBalance = tokens.DAY_NIGHT_TOKEN().balance(\"Day\", gameID, 1);\n        phase = dayBalance > 0 ? \"Day\" : \"Night\";\n    }\n\n    function activeZones(address gameBoardAddress, uint256 gameID)\n        public\n        view\n        returns (string[] memory zones, uint16[] memory tiles)\n    {\n        HexplorationBoard board = HexplorationBoard(gameBoardAddress);\n        string[] memory allZones = board.getZoneAliases();\n\n        uint16 activeZoneCount = 0;\n        for (uint256 i = 0; i < allZones.length; i++) {\n            if (board.zoneEnabled(gameID, allZones[i])) {\n                activeZoneCount++;\n            }\n        }\n        zones = new string[](activeZoneCount);\n        tiles = new uint16[](activeZoneCount);\n\n        activeZoneCount = 0;\n        for (uint256 i = 0; i < allZones.length; i++) {\n            if (board.zoneEnabled(gameID, allZones[i])) {\n                zones[activeZoneCount] = allZones[i];\n                HexplorationZone hexZone = HexplorationZone(\n                    board.hexZoneAddress()\n                );\n                tiles[activeZoneCount] = uint16(\n                    hexZone.tile(gameID, allZones[i])\n                );\n                activeZoneCount++;\n            }\n        }\n    }\n\n    function landingSite(address gameBoardAddress, uint256 gameID)\n        public\n        view\n        returns (string memory)\n    {\n        return HexplorationBoard(gameBoardAddress).initialPlayZone(gameID);\n    }\n\n    function currentLocation(address gameBoardAddress, uint256 gameID)\n        public\n        view\n        returns (string memory)\n    {\n        HexplorationBoard board = HexplorationBoard(gameBoardAddress);\n        PlayerRegistry pr = PlayerRegistry(board.prAddress());\n        return board.currentPlayZone(gameID, pr.playerID(gameID, msg.sender));\n    }\n\n    function allPlayerLocations(address gameBoardAddress, uint256 gameID)\n        public\n        view\n        returns (uint256[] memory, string[] memory)\n    {\n        HexplorationBoard board = HexplorationBoard(gameBoardAddress);\n        PlayerRegistry pr = PlayerRegistry(board.prAddress());\n        uint256 totalRegistrations = pr.totalRegistrations(gameID);\n        uint256[] memory playerIDs = new uint256[](totalRegistrations);\n        string[] memory playerZones = new string[](totalRegistrations);\n        for (uint256 i = 0; i < totalRegistrations; i++) {\n            playerIDs[i] = i + 1;\n            playerZones[i] = board.currentPlayZone(gameID, i + 1);\n        }\n        return (playerIDs, playerZones);\n    }\n\n    function currentPlayerStats(address gameBoardAddress, uint256 gameID)\n        public\n        view\n        returns (\n            uint8 movement,\n            uint8 agility,\n            uint8 dexterity,\n            string memory leftHandItem,\n            string memory rightHandItem,\n            string memory artifact,\n            string memory status,\n            string memory relic,\n            bool shield,\n            bool campsite\n        )\n    {\n        HexplorationBoard board = HexplorationBoard(gameBoardAddress);\n        CharacterCard cc = CharacterCard(board.characterCard());\n        movement = cc.movement(gameID, msg.sender);\n        agility = cc.agility(gameID, msg.sender);\n        dexterity = cc.dexterity(gameID, msg.sender);\n        leftHandItem = cc.leftHandItem(gameID, msg.sender);\n        rightHandItem = cc.rightHandItem(gameID, msg.sender);\n        artifact = \"\";\n        status = \"\";\n        relic = \"\";\n        shield = false;\n        campsite = false;\n    }\n}\n",
  "sourcePath": "/Users/maxmeier/Developer/Lucky Machines/hexploration/contracts/state/GameSummary.sol",
  "compiler": {
    "name": "solc",
    "version": "0.8.11+commit.d7f03943.Emscripten.clang"
  },
  "schemaVersion": "3.4.4",
  "updatedAt": "2022-05-16T02:35:32.014Z",
  "networkType": "ethereum",
  "devdoc": {
    "kind": "dev",
    "methods": {},
    "version": 1
  },
  "userdoc": {
    "kind": "user",
    "methods": {},
    "version": 1
  }
}