{
  "contractName": "HexGrid",
  "abi": [
    {
      "inputs": [
        {
          "internalType": "address",
          "name": "adminAddress",
          "type": "address"
        },
        {
          "internalType": "uint256",
          "name": "_gridWidth",
          "type": "uint256"
        },
        {
          "internalType": "uint256",
          "name": "_gridHeight",
          "type": "uint256"
        },
        {
          "internalType": "address",
          "name": "_zoneAddress",
          "type": "address"
        }
      ],
      "stateMutability": "nonpayable",
      "type": "constructor"
    },
    {
      "anonymous": false,
      "inputs": [
        {
          "indexed": true,
          "internalType": "bytes32",
          "name": "role",
          "type": "bytes32"
        },
        {
          "indexed": true,
          "internalType": "bytes32",
          "name": "previousAdminRole",
          "type": "bytes32"
        },
        {
          "indexed": true,
          "internalType": "bytes32",
          "name": "newAdminRole",
          "type": "bytes32"
        }
      ],
      "name": "RoleAdminChanged",
      "type": "event"
    },
    {
      "anonymous": false,
      "inputs": [
        {
          "indexed": true,
          "internalType": "bytes32",
          "name": "role",
          "type": "bytes32"
        },
        {
          "indexed": true,
          "internalType": "address",
          "name": "account",
          "type": "address"
        },
        {
          "indexed": true,
          "internalType": "address",
          "name": "sender",
          "type": "address"
        }
      ],
      "name": "RoleGranted",
      "type": "event"
    },
    {
      "anonymous": false,
      "inputs": [
        {
          "indexed": true,
          "internalType": "bytes32",
          "name": "role",
          "type": "bytes32"
        },
        {
          "indexed": true,
          "internalType": "address",
          "name": "account",
          "type": "address"
        },
        {
          "indexed": true,
          "internalType": "address",
          "name": "sender",
          "type": "address"
        }
      ],
      "name": "RoleRevoked",
      "type": "event"
    },
    {
      "inputs": [],
      "name": "DEFAULT_ADMIN_ROLE",
      "outputs": [
        {
          "internalType": "bytes32",
          "name": "",
          "type": "bytes32"
        }
      ],
      "stateMutability": "view",
      "type": "function"
    },
    {
      "inputs": [],
      "name": "FACTORY_ROLE",
      "outputs": [
        {
          "internalType": "bytes32",
          "name": "",
          "type": "bytes32"
        }
      ],
      "stateMutability": "view",
      "type": "function"
    },
    {
      "inputs": [],
      "name": "GAME_KEEPER_ROLE",
      "outputs": [
        {
          "internalType": "bytes32",
          "name": "",
          "type": "bytes32"
        }
      ],
      "stateMutability": "view",
      "type": "function"
    },
    {
      "inputs": [],
      "name": "GAME_MASTER_ROLE",
      "outputs": [
        {
          "internalType": "bytes32",
          "name": "",
          "type": "bytes32"
        }
      ],
      "stateMutability": "view",
      "type": "function"
    },
    {
      "inputs": [],
      "name": "MAX_BATCH_SIZE",
      "outputs": [
        {
          "internalType": "uint256",
          "name": "",
          "type": "uint256"
        }
      ],
      "stateMutability": "view",
      "type": "function"
    },
    {
      "inputs": [],
      "name": "PLAY_ZONE_ROLE",
      "outputs": [
        {
          "internalType": "bytes32",
          "name": "",
          "type": "bytes32"
        }
      ],
      "stateMutability": "view",
      "type": "function"
    },
    {
      "inputs": [
        {
          "internalType": "uint256",
          "name": "transitID",
          "type": "uint256"
        }
      ],
      "name": "_progressTransit",
      "outputs": [],
      "stateMutability": "nonpayable",
      "type": "function"
    },
    {
      "inputs": [
        {
          "internalType": "address",
          "name": "factoryAddress",
          "type": "address"
        }
      ],
      "name": "addFactory",
      "outputs": [],
      "stateMutability": "nonpayable",
      "type": "function"
    },
    {
      "inputs": [
        {
          "internalType": "address",
          "name": "keeperAddress",
          "type": "address"
        }
      ],
      "name": "addKeeper",
      "outputs": [],
      "stateMutability": "nonpayable",
      "type": "function"
    },
    {
      "inputs": [
        {
          "internalType": "uint256",
          "name": "gameID",
          "type": "uint256"
        },
        {
          "internalType": "string[2][]",
          "name": "connections",
          "type": "string[2][]"
        }
      ],
      "name": "addZoneConnections",
      "outputs": [],
      "stateMutability": "nonpayable",
      "type": "function"
    },
    {
      "inputs": [
        {
          "internalType": "address[]",
          "name": "playZoneAddresses",
          "type": "address[]"
        },
        {
          "internalType": "string[]",
          "name": "zoneAliases",
          "type": "string[]"
        },
        {
          "internalType": "uint256",
          "name": "gameID",
          "type": "uint256"
        }
      ],
      "name": "addZones",
      "outputs": [],
      "stateMutability": "nonpayable",
      "type": "function"
    },
    {
      "inputs": [],
      "name": "cleanQueue",
      "outputs": [],
      "stateMutability": "nonpayable",
      "type": "function"
    },
    {
      "inputs": [
        {
          "internalType": "address",
          "name": "_playerRegistry",
          "type": "address"
        },
        {
          "internalType": "address",
          "name": "_gameRegistry",
          "type": "address"
        }
      ],
      "name": "createGame",
      "outputs": [
        {
          "internalType": "uint256",
          "name": "gameID",
          "type": "uint256"
        }
      ],
      "stateMutability": "nonpayable",
      "type": "function"
    },
    {
      "inputs": [
        {
          "internalType": "address",
          "name": "_playerRegistry",
          "type": "address"
        },
        {
          "internalType": "address",
          "name": "_gameRegistry",
          "type": "address"
        },
        {
          "internalType": "address[]",
          "name": "playZoneAddresses",
          "type": "address[]"
        },
        {
          "internalType": "string[]",
          "name": "zoneAliases",
          "type": "string[]"
        }
      ],
      "name": "createGame",
      "outputs": [
        {
          "internalType": "uint256",
          "name": "gameID",
          "type": "uint256"
        }
      ],
      "stateMutability": "nonpayable",
      "type": "function"
    },
    {
      "inputs": [
        {
          "internalType": "uint256",
          "name": "",
          "type": "uint256"
        },
        {
          "internalType": "uint256",
          "name": "",
          "type": "uint256"
        }
      ],
      "name": "currentPlayZone",
      "outputs": [
        {
          "internalType": "string",
          "name": "",
          "type": "string"
        }
      ],
      "stateMutability": "view",
      "type": "function"
    },
    {
      "inputs": [
        {
          "internalType": "uint256",
          "name": "",
          "type": "uint256"
        },
        {
          "internalType": "uint256",
          "name": "",
          "type": "uint256"
        }
      ],
      "name": "entryQueue",
      "outputs": [
        {
          "internalType": "uint256",
          "name": "",
          "type": "uint256"
        }
      ],
      "stateMutability": "view",
      "type": "function"
    },
    {
      "inputs": [
        {
          "internalType": "uint256",
          "name": "gameID",
          "type": "uint256"
        },
        {
          "internalType": "address",
          "name": "playerAddress",
          "type": "address"
        },
        {
          "internalType": "uint256",
          "name": "pathIndex",
          "type": "uint256"
        }
      ],
      "name": "exitToPath",
      "outputs": [
        {
          "internalType": "bool",
          "name": "exitSuccess",
          "type": "bool"
        }
      ],
      "stateMutability": "nonpayable",
      "type": "function"
    },
    {
      "inputs": [
        {
          "internalType": "uint256",
          "name": "",
          "type": "uint256"
        }
      ],
      "name": "gameState",
      "outputs": [
        {
          "internalType": "uint256",
          "name": "",
          "type": "uint256"
        }
      ],
      "stateMutability": "view",
      "type": "function"
    },
    {
      "inputs": [
        {
          "internalType": "uint256",
          "name": "gameID",
          "type": "uint256"
        }
      ],
      "name": "getOverflowQueue",
      "outputs": [
        {
          "internalType": "uint256[]",
          "name": "",
          "type": "uint256[]"
        }
      ],
      "stateMutability": "view",
      "type": "function"
    },
    {
      "inputs": [
        {
          "internalType": "uint256",
          "name": "gameID",
          "type": "uint256"
        }
      ],
      "name": "getPlayZones",
      "outputs": [
        {
          "internalType": "string[]",
          "name": "",
          "type": "string[]"
        }
      ],
      "stateMutability": "view",
      "type": "function"
    },
    {
      "inputs": [
        {
          "internalType": "bytes32",
          "name": "role",
          "type": "bytes32"
        }
      ],
      "name": "getRoleAdmin",
      "outputs": [
        {
          "internalType": "bytes32",
          "name": "",
          "type": "bytes32"
        }
      ],
      "stateMutability": "view",
      "type": "function"
    },
    {
      "inputs": [
        {
          "internalType": "bytes32",
          "name": "role",
          "type": "bytes32"
        },
        {
          "internalType": "uint256",
          "name": "index",
          "type": "uint256"
        }
      ],
      "name": "getRoleMember",
      "outputs": [
        {
          "internalType": "address",
          "name": "",
          "type": "address"
        }
      ],
      "stateMutability": "view",
      "type": "function"
    },
    {
      "inputs": [
        {
          "internalType": "bytes32",
          "name": "role",
          "type": "bytes32"
        }
      ],
      "name": "getRoleMemberCount",
      "outputs": [
        {
          "internalType": "uint256",
          "name": "",
          "type": "uint256"
        }
      ],
      "stateMutability": "view",
      "type": "function"
    },
    {
      "inputs": [
        {
          "internalType": "bytes32",
          "name": "role",
          "type": "bytes32"
        },
        {
          "internalType": "address",
          "name": "account",
          "type": "address"
        }
      ],
      "name": "grantRole",
      "outputs": [],
      "stateMutability": "nonpayable",
      "type": "function"
    },
    {
      "inputs": [],
      "name": "gridHeight",
      "outputs": [
        {
          "internalType": "uint256",
          "name": "",
          "type": "uint256"
        }
      ],
      "stateMutability": "view",
      "type": "function"
    },
    {
      "inputs": [],
      "name": "gridWidth",
      "outputs": [
        {
          "internalType": "uint256",
          "name": "",
          "type": "uint256"
        }
      ],
      "stateMutability": "view",
      "type": "function"
    },
    {
      "inputs": [
        {
          "internalType": "bytes32",
          "name": "role",
          "type": "bytes32"
        },
        {
          "internalType": "address",
          "name": "account",
          "type": "address"
        }
      ],
      "name": "hasRole",
      "outputs": [
        {
          "internalType": "bool",
          "name": "",
          "type": "bool"
        }
      ],
      "stateMutability": "view",
      "type": "function"
    },
    {
      "inputs": [
        {
          "internalType": "address",
          "name": "factoryAddress",
          "type": "address"
        }
      ],
      "name": "isFactory",
      "outputs": [
        {
          "internalType": "bool",
          "name": "factoryIsAuthorized",
          "type": "bool"
        }
      ],
      "stateMutability": "view",
      "type": "function"
    },
    {
      "inputs": [
        {
          "internalType": "uint256",
          "name": "",
          "type": "uint256"
        }
      ],
      "name": "lastEntryPlayerID",
      "outputs": [
        {
          "internalType": "uint256",
          "name": "",
          "type": "uint256"
        }
      ],
      "stateMutability": "view",
      "type": "function"
    },
    {
      "inputs": [],
      "name": "needsUpdate",
      "outputs": [
        {
          "internalType": "bool",
          "name": "doesNeedUpdate",
          "type": "bool"
        }
      ],
      "stateMutability": "view",
      "type": "function"
    },
    {
      "inputs": [
        {
          "internalType": "uint256",
          "name": "",
          "type": "uint256"
        },
        {
          "internalType": "string",
          "name": "",
          "type": "string"
        },
        {
          "internalType": "uint256",
          "name": "",
          "type": "uint256"
        }
      ],
      "name": "playZoneInputs",
      "outputs": [
        {
          "internalType": "string",
          "name": "",
          "type": "string"
        }
      ],
      "stateMutability": "view",
      "type": "function"
    },
    {
      "inputs": [
        {
          "internalType": "uint256",
          "name": "",
          "type": "uint256"
        },
        {
          "internalType": "string",
          "name": "",
          "type": "string"
        },
        {
          "internalType": "uint256",
          "name": "",
          "type": "uint256"
        }
      ],
      "name": "playZoneOutputs",
      "outputs": [
        {
          "internalType": "string",
          "name": "",
          "type": "string"
        }
      ],
      "stateMutability": "view",
      "type": "function"
    },
    {
      "inputs": [
        {
          "internalType": "uint256",
          "name": "",
          "type": "uint256"
        },
        {
          "internalType": "uint256",
          "name": "",
          "type": "uint256"
        }
      ],
      "name": "playZones",
      "outputs": [
        {
          "internalType": "string",
          "name": "",
          "type": "string"
        }
      ],
      "stateMutability": "view",
      "type": "function"
    },
    {
      "inputs": [
        {
          "internalType": "uint256",
          "name": "gameID",
          "type": "uint256"
        },
        {
          "internalType": "address",
          "name": "playerAddress",
          "type": "address"
        },
        {
          "internalType": "string",
          "name": "_zoneAlias",
          "type": "string"
        }
      ],
      "name": "playerEnteredZone",
      "outputs": [],
      "stateMutability": "nonpayable",
      "type": "function"
    },
    {
      "inputs": [
        {
          "internalType": "uint256",
          "name": "",
          "type": "uint256"
        }
      ],
      "name": "playerRegistry",
      "outputs": [
        {
          "internalType": "uint256",
          "name": "",
          "type": "uint256"
        }
      ],
      "stateMutability": "view",
      "type": "function"
    },
    {
      "inputs": [],
      "name": "prAddress",
      "outputs": [
        {
          "internalType": "address",
          "name": "",
          "type": "address"
        }
      ],
      "stateMutability": "view",
      "type": "function"
    },
    {
      "inputs": [
        {
          "internalType": "uint256",
          "name": "gameID",
          "type": "uint256"
        },
        {
          "internalType": "address[]",
          "name": "playerAddresses",
          "type": "address[]"
        },
        {
          "internalType": "uint256[]",
          "name": "pathIndices",
          "type": "uint256[]"
        },
        {
          "internalType": "uint256",
          "name": "transitID",
          "type": "uint256"
        }
      ],
      "name": "queueExitToPaths",
      "outputs": [],
      "stateMutability": "nonpayable",
      "type": "function"
    },
    {
      "inputs": [
        {
          "internalType": "uint256",
          "name": "gameID",
          "type": "uint256"
        },
        {
          "internalType": "string[]",
          "name": "inputAliases",
          "type": "string[]"
        },
        {
          "internalType": "uint256[]",
          "name": "inputs",
          "type": "uint256[]"
        },
        {
          "internalType": "string[]",
          "name": "outputAliases",
          "type": "string[]"
        },
        {
          "internalType": "uint256[]",
          "name": "outputs",
          "type": "uint256[]"
        }
      ],
      "name": "removeZoneConnections",
      "outputs": [],
      "stateMutability": "nonpayable",
      "type": "function"
    },
    {
      "inputs": [
        {
          "internalType": "bytes32",
          "name": "role",
          "type": "bytes32"
        },
        {
          "internalType": "address",
          "name": "account",
          "type": "address"
        }
      ],
      "name": "renounceRole",
      "outputs": [],
      "stateMutability": "nonpayable",
      "type": "function"
    },
    {
      "inputs": [
        {
          "internalType": "bytes32",
          "name": "role",
          "type": "bytes32"
        },
        {
          "internalType": "address",
          "name": "account",
          "type": "address"
        }
      ],
      "name": "revokeRole",
      "outputs": [],
      "stateMutability": "nonpayable",
      "type": "function"
    },
    {
      "inputs": [],
      "name": "runUpdate",
      "outputs": [],
      "stateMutability": "nonpayable",
      "type": "function"
    },
    {
      "inputs": [
        {
          "internalType": "uint256",
          "name": "gameID",
          "type": "uint256"
        }
      ],
      "name": "startGame",
      "outputs": [],
      "stateMutability": "nonpayable",
      "type": "function"
    },
    {
      "inputs": [
        {
          "internalType": "uint256",
          "name": "transitID",
          "type": "uint256"
        }
      ],
      "name": "startTransit",
      "outputs": [],
      "stateMutability": "nonpayable",
      "type": "function"
    },
    {
      "inputs": [
        {
          "internalType": "bytes4",
          "name": "interfaceId",
          "type": "bytes4"
        }
      ],
      "name": "supportsInterface",
      "outputs": [
        {
          "internalType": "bool",
          "name": "",
          "type": "bool"
        }
      ],
      "stateMutability": "view",
      "type": "function"
    },
    {
      "inputs": [],
      "name": "zoneAddress",
      "outputs": [
        {
          "internalType": "address",
          "name": "",
          "type": "address"
        }
      ],
      "stateMutability": "view",
      "type": "function"
    },
    {
      "inputs": [
        {
          "internalType": "uint256",
          "name": "",
          "type": "uint256"
        },
        {
          "internalType": "string",
          "name": "",
          "type": "string"
        }
      ],
      "name": "zoneAlias",
      "outputs": [
        {
          "internalType": "address",
          "name": "",
          "type": "address"
        }
      ],
      "stateMutability": "view",
      "type": "function"
    },
    {
      "inputs": [
        {
          "internalType": "uint256",
          "name": "",
          "type": "uint256"
        }
      ],
      "name": "zoneAliases",
      "outputs": [
        {
          "internalType": "string",
          "name": "",
          "type": "string"
        }
      ],
      "stateMutability": "view",
      "type": "function"
    },
    {
      "inputs": [],
      "name": "createGrid",
      "outputs": [],
      "stateMutability": "nonpayable",
      "type": "function"
    },
    {
      "inputs": [],
      "name": "getZoneAliases",
      "outputs": [
        {
          "internalType": "string[]",
          "name": "",
          "type": "string[]"
        }
      ],
      "stateMutability": "view",
      "type": "function"
    },
    {
      "inputs": [
        {
          "internalType": "uint256",
          "name": "gameID",
          "type": "uint256"
        },
        {
          "internalType": "string",
          "name": "_zoneAlias",
          "type": "string"
        }
      ],
      "name": "getInputs",
      "outputs": [
        {
          "internalType": "string[]",
          "name": "zoneInputs",
          "type": "string[]"
        }
      ],
      "stateMutability": "view",
      "type": "function"
    },
    {
      "inputs": [
        {
          "internalType": "uint256",
          "name": "gameID",
          "type": "uint256"
        },
        {
          "internalType": "string",
          "name": "_zoneAlias",
          "type": "string"
        }
      ],
      "name": "getOutputs",
      "outputs": [
        {
          "internalType": "string[]",
          "name": "zoneOutputs",
          "type": "string[]"
        }
      ],
      "stateMutability": "view",
      "type": "function"
    }
  ],
  "bytecode": "0x60806040523480156200001157600080fd5b50604051620042963803806200429683398101604081905262000034916200028f565b836200004b600082640100000000620000b0810204565b620000807f1d93c87416ca7b54f0fb8323167b72760e8e2ec93d48660953897a150f97a8b482640100000000620000b0810204565b50600d92909255600e55600f8054600160a060020a031916600160a060020a0390921691909117905550620002da565b620000c58282640100000000620000c9810204565b5050565b620000e38282640100000000620022dd6200011082021704565b60008281526001602052604090206200010b908264010000000062002361620001ac82021704565b505050565b620001258282640100000000620001d5810204565b620000c557600082815260208181526040808320600160a060020a03851684529091529020805460ff1916600117905562000168640100000000620001fe810204565b600160a060020a031681600160a060020a0316837f2f8788117e7eff1d82e926ec794901d17c78024a50270940304540a733656f0d60405160405180910390a45050565b6000620001cc83600160a060020a03841664010000000062000202810204565b90505b92915050565b600091825260208281526040808420600160a060020a0393909316845291905290205460ff1690565b3390565b60006200021983836401000000006200025a810204565b6200025157508154600181810184556000848152602080822090930184905584548482528286019093526040902091909155620001cf565b506000620001cf565b60009081526001919091016020526040902054151590565b8051600160a060020a03811681146200028a57600080fd5b919050565b60008060008060808587031215620002a657600080fd5b620002b18562000272565b93506020850151925060408501519150620002cf6060860162000272565b905092959194509250565b613fac80620002ea6000396000f3fe608060405234801561001057600080fd5b50600436106102f55760003560e060020a900480639010d07c116101a1578063ca15c873116100ed578063d547741f116100a6578063e309203f11610080578063e309203f146106df578063e5ed1d59146106f4578063f643b8fd14610707578063fa9f34381461071a57600080fd5b8063d547741f146106a6578063d75e7980146106b9578063d91413ba146106cc57600080fd5b8063ca15c8731461062e578063cd1ec7f214610641578063cfdbf25414610656578063d1e18d261461065e578063d2d6756b14610666578063d3fb72891461068657600080fd5b8063a6f979ff1161015a578063b2df0ca211610134578063b2df0ca214610404578063b40c89df146105f7578063babdeefa1461060a578063c06dea4e1461061d57600080fd5b8063a6f979ff146105af578063aab2aeb8146105c2578063ad1def1e146105e257600080fd5b80639010d07c1461054857806391d148541461055b5780639eb356cb1461056e5780639f6c401714610581578063a217fddf14610594578063a4f9c9df1461059c57600080fd5b80632c47669a116102605780633ca61a581161021957806351709a73116101f357806351709a73146105075780636b6ec8691461051a5780637cc75d1c1461052d57806384bf09b61461054057600080fd5b80633ca61a58146104cc5780634032b72b146104d45780634e0e1a3e146104e757600080fd5b80632c47669a1461046f5780632f2ff15d14610482578063346c94091461049557806336568abe1461049d578063374f1d35146104b057806338b145df146104c357600080fd5b806317d7e833116102b257806317d7e833146103d157806319006018146103f1578063194f2a3614610406578063248a9ca314610426578063296787561461044957806329ce1ec51461045c57600080fd5b806301ffc9a7146102fa57806304a0fb17146103225780630b197f2e146103455780630f04ba6714610370578063108c5e1414610383578063153a75901461038c575b600080fd5b61030d610308366004613178565b61072d565b60405190151581526020015b60405180910390f35b610337600080516020613f3783398151915281565b604051908152602001610319565b600f5461035890600160a060020a031681565b604051600160a060020a039091168152602001610319565b61030d61037e3660046131b7565b610771565b610337600e5481565b61035861039a3660046132c5565b60076020908152600092835260409092208151808301840180519281529084019290930191909120915254600160a060020a031681565b6103e46103df36600461330c565b61078b565b6040516103199190613386565b6104046103ff36600461349d565b610844565b005b6104196104143660046132c5565b610990565b6040516103199190613554565b6103376104343660046135b5565b60009081526020819052604090206001015490565b61040461045736600461362f565b610cd3565b61040461046a3660046131b7565b610cf2565b61040461047d3660046136a4565b610d19565b610404610490366004613711565b610d66565b61030d610d90565b6104046104ab366004613711565b610de1565b6103e46104be3660046135b5565b610e6c565b610337600d5481565b610419610e97565b6104046104e23660046131b7565b610f70565b6103376104f53660046135b5565b60046020526000908152604090205481565b6103e4610515366004613741565b610fa0565b6104196105283660046132c5565b610ff4565b61033761053b36600461330c565b611324565b610404611355565b61035861055636600461330c565b6115fa565b61030d610569366004613711565b611619565b61030d61057c366004613780565b611642565b61040461058f3660046135b5565b611a8f565b610337600081565b6104046105aa3660046135b5565b611aa7565b6103376105bd3660046137b8565b611abf565b6103376105d03660046135b5565b600a6020526000908152604090205481565b610337600080516020613f1783398151915281565b6103e4610605366004613741565b611ba4565b6104196106183660046135b5565b611bdb565b600254600160a060020a0316610358565b61033761063c3660046135b5565b611cc7565b610337600080516020613ef783398151915281565b61033760c881565b610404611cde565b6103376106743660046135b5565b60056020526000908152604090205481565b6106996106943660046135b5565b611de4565b60405161031991906137e6565b6104046106b4366004613711565b611e46565b6103e46106c736600461330c565b611e6b565b6103376106da36600461382a565b611e8f565b610337600080516020613f5783398151915281565b6104046107023660046135b5565b611fb3565b6104046107153660046138b3565b612001565b6104046107283660046139c4565b612202565b6000600160e060020a031982167f5a05180f00000000000000000000000000000000000000000000000000000000148061076b575061076b82612376565b92915050565b600061076b600080516020613f3783398151915283611619565b600660205281600052604060002081815481106107a757600080fd5b906000526020600020016000915091505080546107c390613a1d565b80601f01602080910402602001604051908101604052809291908181526020018280546107ef90613a1d565b801561083c5780601f106108115761010080835404028352916020019161083c565b820191906000526020600020905b81548152906001019060200180831161081f57829003601f168201915b505050505081565b600080516020613f1783398151915261085c816123dd565b81518451146108b55760405160e560020a62461bcd02815260206004820181905260248201527f696e70757473202f206f757470757473206c656e677468206d69736d6174636860448201526064015b60405180910390fd5b6108c08686866123e7565b61090f5760405160e560020a62461bcd02815260206004820152600e60248201527f696e7075747320696e76616c696400000000000000000000000000000000000060448201526064016108ac565b61091a86848461248a565b6109695760405160e560020a62461bcd02815260206004820152600f60248201527f6f75747075747320696e76616c6964000000000000000000000000000000000060448201526064016108ac565b60005b8451811015610987578061097f81613a74565b91505061096c565b50505050505050565b600082815260086020526040808220905160609291906109b1908590613a8f565b9081526020016040518091039020805480602002602001604051908101604052809291908181526020016000905b82821015610a8b5783829060005260206000200180546109fe90613a1d565b80601f0160208091040260200160405190810160405280929190818152602001828054610a2a90613a1d565b8015610a775780601f10610a4c57610100808354040283529160200191610a77565b820191906000526020600020905b815481529060010190602001808311610a5a57829003601f168201915b5050505050815260200190600101906109df565b505060008080526008602052604051939450927f5eff886ea0ce6ca488a3d6e336d6c0f75f46d19b42c06ce5ee98e42c96d256c79250610acd91508690613a8f565b9081526020016040518091039020805480602002602001604051908101604052809291908181526020016000905b82821015610ba7578382906000526020600020018054610b1a90613a1d565b80601f0160208091040260200160405190810160405280929190818152602001828054610b4690613a1d565b8015610b935780601f10610b6857610100808354040283529160200191610b93565b820191906000526020600020905b815481529060010190602001808311610b7657829003601f168201915b505050505081526020019060010190610afb565b505050509050600082511115610cc757600081518351610bc79190613aab565b67ffffffffffffffff811115610bdf57610bdf6131d4565b604051908082528060200260200182016040528015610c1257816020015b6060815260200190600190039081610bfd5790505b50905060005b8151811015610cc0578251811015610c6657828181518110610c3c57610c3c613ac3565b6020026020010151828281518110610c5657610c56613ac3565b6020026020010181905250610caa565b83835182610c749190613adc565b81518110610c8457610c84613ac3565b6020026020010151828281518110610c9e57610c9e613ac3565b60200260200101819052505b8194508080610cb890613a74565b915050610c18565b5050610ccb565b8092505b505092915050565b600080516020613ef7833981519152610ceb816123dd565b5050505050565b6000610cfd816123dd565b610d15600080516020613f3783398151915283612525565b5050565b600080516020613f17833981519152610d31816123dd565b8251845114610d555760405160e560020a62461bcd0281526004016108ac90613af3565b610d6084848461252f565b50505050565b600082815260208190526040902060010154610d81816123dd565b610d8b838361268e565b505050565b6000805b600354811015610ddd5760038181548110610db157610db1613ac3565b9060005260206000200154600014610dcb57600191505090565b80610dd581613a74565b915050610d94565b5090565b600160a060020a0381163314610e625760405160e560020a62461bcd02815260206004820152602f60248201527f416363657373436f6e74726f6c3a2063616e206f6e6c792072656e6f756e636560448201527f20726f6c657320666f722073656c66000000000000000000000000000000000060648201526084016108ac565b610d1582826126b0565b60108181548110610e7c57600080fd5b9060005260206000200160009150905080546107c390613a1d565b60606010805480602002602001604051908101604052809291908181526020016000905b82821015610f67578382906000526020600020018054610eda90613a1d565b80601f0160208091040260200160405190810160405280929190818152602001828054610f0690613a1d565b8015610f535780601f10610f2857610100808354040283529160200191610f53565b820191906000526020600020905b815481529060010190602001808311610f3657829003601f168201915b505050505081526020019060010190610ebb565b50505050905090565b600080516020613f17833981519152610f88816123dd565b610d15600080516020613f5783398151915283612525565b60086020908152600084815260409020835180850183018051928152908301928501929092209152805482908110610fd757600080fd5b90600052602060002001600092509250505080546107c390613a1d565b60008281526009602052604080822090516060929190611015908590613a8f565b9081526020016040518091039020805480602002602001604051908101604052809291908181526020016000905b828210156110ef57838290600052602060002001805461106290613a1d565b80601f016020809104026020016040519081016040528092919081815260200182805461108e90613a1d565b80156110db5780601f106110b0576101008083540402835291602001916110db565b820191906000526020600020905b8154815290600101906020018083116110be57829003601f168201915b505050505081526020019060010190611043565b505060008080526009602052604051939450927fec8156718a8372b1db44bb411437d0870f3e3790d4a08526d024ce1b0b668f6b925061113191508690613a8f565b9081526020016040518091039020805480602002602001604051908101604052809291908181526020016000905b8282101561120b57838290600052602060002001805461117e90613a1d565b80601f01602080910402602001604051908101604052809291908181526020018280546111aa90613a1d565b80156111f75780601f106111cc576101008083540402835291602001916111f7565b820191906000526020600020905b8154815290600101906020018083116111da57829003601f168201915b50505050508152602001906001019061115f565b505050509050600082511115610cc75760008151835161122b9190613aab565b67ffffffffffffffff811115611243576112436131d4565b60405190808252806020026020018201604052801561127657816020015b60608152602001906001900390816112615790505b50905060005b8151811015610cc05782518110156112ca578281815181106112a0576112a0613ac3565b60200260200101518282815181106112ba576112ba613ac3565b602002602001018190525061130e565b838351826112d89190613adc565b815181106112e8576112e8613ac3565b602002602001015182828151811061130257611302613ac3565b60200260200101819052505b819450808061131c90613a74565b91505061127c565b600c602052816000526040600020818154811061134057600080fd5b90600052602060002001600091509150505481565b61136d600080516020613f3783398151915233611619565b8061138b575061138b600080516020613f1783398151915233611619565b6113aa5760405160e560020a62461bcd0281526004016108ac90613b50565b6000600e54600d546113bc9190613bad565b67ffffffffffffffff8111156113d4576113d46131d4565b6040519080825280602002602001820160405280156113fd578160200160208202803683370190505b506010549091506114c057600e54600d546040517f9f6b564900000000000000000000000000000000000000000000000000000000815273__XYCoordinates_________________________92639f6b56499261146592600401918252602082015260400190565b600060405180830381865af4158015611482573d6000803e3d6000fd5b505050506040513d6000823e601f3d908101601f191682016040526114aa9190810190613bcc565b80516114be91601091602090910190613033565b505b60005b815181101561151957600f548251600160a060020a03909116908390839081106114ef576114ef613ac3565b600160a060020a03909216602092830291909101909101528061151181613a74565b9150506114c3565b506115f7816010805480602002602001604051908101604052809291908181526020016000905b828210156115ec57838290600052602060002001805461155f90613a1d565b80601f016020809104026020016040519081016040528092919081815260200182805461158b90613a1d565b80156115d85780601f106115ad576101008083540402835291602001916115d8565b820191906000526020600020905b8154815290600101906020018083116115bb57829003601f168201915b505050505081526020019060010190611540565b50505050600061252f565b50565b600082815260016020526040812061161290836126d2565b9392505050565b600091825260208281526040808420600160a060020a0393909316845291905290205460ff1690565b6002546040517fbca7caa000000000000000000000000000000000000000000000000000000000815260048101859052600160a060020a038481166024830152600092839291169063bca7caa090604401602060405180830381865afa1580156116b0573d6000803e3d6000fd5b505050506040513d601f19601f820116820180604052508101906116d49190613cb6565b6000868152600b602090815260408083208484529091528120805492935090916116fd90613a1d565b80601f016020809104026020016040519081016040528092919081815260200182805461172990613a1d565b80156117765780601f1061174b57610100808354040283529160200191611776565b820191906000526020600020905b81548152906001019060200180831161175957829003601f168201915b5050505050905060006117898783610ff4565b8051909150806117de5760405160e560020a62461bcd02815260206004820152601760248201527f4e6f206578697420706174687320617661696c61626c6500000000000000000060448201526064016108ac565b600088815260076020526040808220905191965086916117ff908690613a8f565b90815260405190819003602001902054600160a060020a031690506000828811611829578761182c565b60005b9050600084828151811061184257611842613ac3565b602002602001015190506000600760008d81526020019081526020016000208260405161186f9190613a8f565b908152602001604051809103902060009054906101000a9004600160a060020a0316905083600160a060020a0316637caf12808c8e8a6040518463ffffffff1660e060020a0281526004016118c693929190613ccf565b602060405180830381865afa1580156118e3573d6000803e3d6000fd5b505050506040513d601f19601f820116820180604052508101906119079190613cf7565b8015611982575080600160a060020a031663e15b3ad08c8e856040518463ffffffff1660e060020a02815260040161194193929190613ccf565b602060405180830381865afa15801561195e573d6000803e3d6000fd5b505050506040513d601f19601f820116820180604052508101906119829190613cf7565b15611a805783600160a060020a03166328d7e11a8c8e8a6040518463ffffffff1660e060020a0281526004016119ba93929190613ccf565b600060405180830381600087803b1580156119d457600080fd5b505af11580156119e8573d6000803e3d6000fd5b5050505080600160a060020a03166398bd75728c8e856040518463ffffffff1660e060020a028152600401611a1f93929190613ccf565b600060405180830381600087803b158015611a3957600080fd5b505af1158015611a4d573d6000803e3d6000fd5b50505060008d8152600b602090815260408083208c845282529091208451611a7a9350909185019061308c565b50600198505b50505050505050509392505050565b600080516020613f57833981519152610d15816123dd565b600080516020613ef7833981519152610d15816123dd565b6000611ad9600080516020613f3783398151915233611619565b80611af75750611af7600080516020613f1783398151915233611619565b611b165760405160e560020a62461bcd0281526004016108ac90613b50565b82600260006101000a815481600160a060020a030219169083600160a060020a0316021790555081600160a060020a0316630a75806e6040518163ffffffff1660e060020a0281526004016020604051808303816000875af1158015611b80573d6000803e3d6000fd5b505050506040513d601f19601f820116820180604052508101906116129190613cb6565b60096020908152600084815260409020835180850183018051928152908301928501929092209152805482908110610fd757600080fd5b606060066000838152602001908152602001600020805480602002602001604051908101604052809291908181526020016000905b82821015611cbc578382906000526020600020018054611c2f90613a1d565b80601f0160208091040260200160405190810160405280929190818152602001828054611c5b90613a1d565b8015611ca85780601f10611c7d57610100808354040283529160200191611ca8565b820191906000526020600020905b815481529060010190602001808311611c8b57829003601f168201915b505050505081526020019060010190611c10565b505050509050919050565b600081815260016020526040812061076b906126de565b600080516020613f57833981519152611cf6816123dd565b60008060005b600354811015611d655760038181548110611d1957611d19613ac3565b9060005260206000200154600014611d535760038181548110611d3e57611d3e613ac3565b90600052602060002001549250809150611d65565b80611d5d81613a74565b915050611cfc565b50600082815260046020526040902054611d8757611d82826126e8565b611da7565b60008281526004602052604090205460011415611da757611da782612773565b60008281526004602052604090205460011015610d8b57600060038281548110611dd357611dd3613ac3565b600091825260209091200155505050565b6000818152600c6020908152604091829020805483518184028101840190945280845260609392830182828015611e3a57602002820191906000526020600020905b815481526020019060010190808311611e26575b50505050509050919050565b600082815260208190526040902060010154611e61816123dd565b610d8b83836126b0565b600b602090815260009283526040808420909152908252902080546107c390613a1d565b6000611ea9600080516020613f3783398151915233611619565b80611ec75750611ec7600080516020613f1783398151915233611619565b611ee65760405160e560020a62461bcd0281526004016108ac90613b50565b8151835114611f0a5760405160e560020a62461bcd0281526004016108ac90613af3565b825115611f1c57611f1c83838361252f565b84600260006101000a815481600160a060020a030219169083600160a060020a0316021790555083600160a060020a0316630a75806e6040518163ffffffff1660e060020a0281526004016020604051808303816000875af1158015611f86573d6000803e3d6000fd5b505050506040513d601f19601f82011682018060405250810190611faa9190613cb6565b95945050505050565b600080516020613f17833981519152611fcb816123dd565b50600380546001810182556000919091527fc2575a0e9e593c00f959f8c92f12db2869c3395a3b0502d05e2516446f71f85b0155565b600080516020613f17833981519152612019816123dd565b6120238383612a8d565b6120725760405160e560020a62461bcd02815260206004820152601a60248201527f6e6f7420616c6c207a6f6e6520696e64656365732076616c696400000000000060448201526064016108ac565b60005b8251811015610d6057600084815260096020526040902083518490839081106120a0576120a0613ac3565b60200260200101516000600281106120ba576120ba613ac3565b60200201516040516120cc9190613a8f565b90815260200160405180910390208382815181106120ec576120ec613ac3565b602002602001015160016002811061210657612106613ac3565b6020908102919091015182546001810184556000938452928290208151612136949190910192919091019061308c565b506000848152600860205260409020835184908390811061215957612159613ac3565b602002602001015160016002811061217357612173613ac3565b60200201516040516121859190613a8f565b90815260200160405180910390208382815181106121a5576121a5613ac3565b60200260200101516000600281106121bf576121bf613ac3565b60209081029190910151825460018101845560009384529282902081516121ef949190910192919091019061308c565b50806121fa81613a74565b915050612075565b600080516020613ef783398151915261221a816123dd565b6002546040517fbca7caa000000000000000000000000000000000000000000000000000000000815260048101869052600160a060020a038581166024830152600092169063bca7caa090604401602060405180830381865afa158015612285573d6000803e3d6000fd5b505050506040513d601f19601f820116820180604052508101906122a99190613cb6565b6000868152600b60209081526040808320848452825290912085519293506122d592909186019061308c565b505050505050565b6122e78282611619565b610d1557600082815260208181526040808320600160a060020a03851684529091529020805460ff1916600117905561231d3390565b600160a060020a031681600160a060020a0316837f2f8788117e7eff1d82e926ec794901d17c78024a50270940304540a733656f0d60405160405180910390a45050565b600061161283600160a060020a038416612b9c565b6000600160e060020a031982167f7965db0b00000000000000000000000000000000000000000000000000000000148061076b57507f01ffc9a700000000000000000000000000000000000000000000000000000000600160e060020a031983161461076b565b6115f78133612beb565b600160005b82518110156124825782818151811061240757612407613ac3565b6020026020010151600161241b9190613aab565b6000868152600860205260409020855186908490811061243d5761243d613ac3565b60200260200101516040516124529190613a8f565b90815260405190819003602001902054106124705760009150612482565b8061247a81613a74565b9150506123ec565b509392505050565b600160005b8251811015612482578281815181106124aa576124aa613ac3565b602002602001015160016124be9190613aab565b600086815260096020526040902085518690849081106124e0576124e0613ac3565b60200260200101516040516124f59190613a8f565b90815260405190819003602001902054106125135760009150612482565b8061251d81613a74565b91505061248f565b610d15828261268e565b60005b8351811015610d60576000828152600660205260409020835184908390811061255d5761255d613ac3565b6020908102919091018101518254600181018455600093845292829020815161258f949190910192919091019061308c565b508381815181106125a2576125a2613ac3565b6020026020010151600760008481526020019081526020016000208483815181106125cf576125cf613ac3565b60200260200101516040516125e49190613a8f565b908152602001604051809103902060006101000a815481600160a060020a030219169083600160a060020a03160217905550612647600080516020613ef783398151915285838151811061263a5761263a613ac3565b6020026020010151611619565b61267c5761267c600080516020613ef783398151915285838151811061266f5761266f613ac3565b6020026020010151612525565b8061268681613a74565b915050612532565b61269882826122dd565b6000828152600160205260409020610d8b9082612361565b6126ba8282612c52565b6000828152600160205260409020610d8b9082612cb7565b60006116128383612ccc565b600061076b825490565b6002546040517f60c2050000000000000000000000000000000000000000000000000000000000815260048101839052600160a060020a03909116906360c2050090602401600060405180830381600087803b15801561274757600080fd5b505af115801561275b573d6000803e3d6000fd5b50505060009182525060046020526040902060019055565b6000818152600760209081526040808320600690925282208054839061279b5761279b613ac3565b906000526020600020016040516127b29190613d19565b90815260405190819003602001902054600160a060020a031690508060005b6002546040517fb77ff41100000000000000000000000000000000000000000000000000000000815260048101869052600160a060020a039091169063b77ff41190602401602060405180830381865afa158015612833573d6000803e3d6000fd5b505050506040513d601f19601f820116820180604052508101906128579190613cb6565b811015612a7657600061286b826001613aab565b6002546040517ff50432540000000000000000000000000000000000000000000000000000000081526004810188905260248101839052919250600091600160a060020a039091169063f504325490604401602060405180830381865afa1580156128da573d6000803e3d6000fd5b505050506040513d601f19601f820116820180604052508101906128fe9190613d8b565b905083600160a060020a031663e15b3ad08288600660008b815260200190815260200160002060008154811061293657612936613ac3565b906000526020600020016040518463ffffffff1660e060020a02815260040161296193929190613da8565b602060405180830381865afa15801561297e573d6000803e3d6000fd5b505050506040513d601f19601f820116820180604052508101906129a29190613cf7565b15612a3f5783600160a060020a03166398bd75728288600660008b81526020019081526020016000206000815481106129dd576129dd613ac3565b906000526020600020016040518463ffffffff1660e060020a028152600401612a0893929190613da8565b600060405180830381600087803b158015612a2257600080fd5b505af1158015612a36573d6000803e3d6000fd5b50505050612a61565b6000868152600c60209081526040822080546001810182559083529120018290555b50508080612a6e90613a74565b9150506127d1565b505050600090815260046020526040902060029055565b6000805b8251811015612b95576000848152600760205260408120845160019450859084908110612ac057612ac0613ac3565b6020026020010151600060028110612ada57612ada613ac3565b6020020151604051612aec9190613a8f565b90815260405190819003602001902054600160a060020a03161480612b75575060008481526007602052604081208451859084908110612b2e57612b2e613ac3565b6020026020010151600160028110612b4857612b48613ac3565b6020020151604051612b5a9190613a8f565b90815260405190819003602001902054600160a060020a0316145b15612b835760009150612b95565b80612b8d81613a74565b915050612a91565b5092915050565b6000818152600183016020526040812054612be35750815460018181018455600084815260208082209093018490558454848252828601909352604090209190915561076b565b50600061076b565b612bf58282611619565b610d1557612c0d81600160a060020a03166014612cf6565b612c18836020612cf6565b604051602001612c29929190613e45565b60408051601f198184030181529082905260e560020a62461bcd0282526108ac91600401613386565b612c5c8282611619565b15610d1557600082815260208181526040808320600160a060020a0385168085529252808320805460ff1916905551339285917ff6391f5c32d9c69d2a47ea670b442974b53935d1edc7fd64eb21e047a839171b9190a45050565b600061161283600160a060020a038416612f40565b6000826000018281548110612ce357612ce3613ac3565b9060005260206000200154905092915050565b60606000612d05836002613bad565b612d10906002613aab565b67ffffffffffffffff811115612d2857612d286131d4565b6040519080825280601f01601f191660200182016040528015612d52576020820181803683370190505b5090507f300000000000000000000000000000000000000000000000000000000000000081600081518110612d8957612d89613ac3565b60200101907effffffffffffffffffffffffffffffffffffffffffffffffffffffffffffff1916908160001a9053507f780000000000000000000000000000000000000000000000000000000000000081600181518110612dec57612dec613ac3565b60200101907effffffffffffffffffffffffffffffffffffffffffffffffffffffffffffff1916908160001a9053506000612e28846002613bad565b612e33906001613aab565b90505b6001811115612eee577f303132333435363738396162636465660000000000000000000000000000000085600f1660108110612e7457612e74613ac3565b1a7f010000000000000000000000000000000000000000000000000000000000000002828281518110612ea957612ea9613ac3565b60200101907effffffffffffffffffffffffffffffffffffffffffffffffffffffffffffff1916908160001a905350601090940493612ee781613ec6565b9050612e36565b5083156116125760405160e560020a62461bcd02815260206004820181905260248201527f537472696e67733a20686578206c656e67746820696e73756666696369656e7460448201526064016108ac565b60008181526001830160205260408120548015613029576000612f64600183613adc565b8554909150600090612f7890600190613adc565b9050818114612fdd576000866000018281548110612f9857612f98613ac3565b9060005260206000200154905080876000018481548110612fbb57612fbb613ac3565b6000918252602080832090910192909255918252600188019052604090208390555b8554869080612fee57612fee613edd565b60019003818190600052602060002001600090559055856001016000868152602001908152602001600020600090556001935050505061076b565b600091505061076b565b828054828255906000526020600020908101928215613080579160200282015b82811115613080578251805161307091849160209091019061308c565b5091602001919060010190613053565b50610ddd92915061310c565b82805461309890613a1d565b90600052602060002090601f0160209004810192826130ba5760008555613100565b82601f106130d357805160ff1916838001178555613100565b82800160010185558215613100579182015b828111156131005782518255916020019190600101906130e5565b50610ddd929150613129565b80821115610ddd576000613120828261313e565b5060010161310c565b5b80821115610ddd576000815560010161312a565b50805461314a90613a1d565b6000825580601f1061315a575050565b601f0160209004906000526020600020908101906115f79190613129565b60006020828403121561318a57600080fd5b8135600160e060020a03198116811461161257600080fd5b600160a060020a03811681146115f757600080fd5b6000602082840312156131c957600080fd5b8135611612816131a2565b60e060020a634e487b7102600052604160045260246000fd5b6040805190810167ffffffffffffffff81118282101715613210576132106131d4565b60405290565b604051601f8201601f1916810167ffffffffffffffff8111828210171561323f5761323f6131d4565b604052919050565b600067ffffffffffffffff821115613261576132616131d4565b50601f01601f191660200190565b600082601f83011261328057600080fd5b813561329361328e82613247565b613216565b8181528460208386010111156132a857600080fd5b816020850160208301376000918101602001919091529392505050565b600080604083850312156132d857600080fd5b82359150602083013567ffffffffffffffff8111156132f657600080fd5b6133028582860161326f565b9150509250929050565b6000806040838503121561331f57600080fd5b50508035926020909101359150565b60005b83811015613349578181015183820152602001613331565b83811115610d605750506000910152565b6000815180845261337281602086016020860161332e565b601f01601f19169290920160200192915050565b602081526000611612602083018461335a565b600067ffffffffffffffff8211156133b3576133b36131d4565b5060209081020190565b600082601f8301126133ce57600080fd5b813560206133de61328e83613399565b828152918102840181019181810190868411156133fa57600080fd5b8286015b8481101561343a57803567ffffffffffffffff81111561341e5760008081fd5b61342c8986838b010161326f565b8452509183019183016133fe565b509695505050505050565b600082601f83011261345657600080fd5b8135602061346661328e83613399565b8281529181028401810191818101908684111561348257600080fd5b8286015b8481101561343a5780358352918301918301613486565b600080600080600060a086880312156134b557600080fd5b85359450602086013567ffffffffffffffff808211156134d457600080fd5b6134e089838a016133bd565b955060408801359150808211156134f657600080fd5b61350289838a01613445565b9450606088013591508082111561351857600080fd5b61352489838a016133bd565b9350608088013591508082111561353a57600080fd5b5061354788828901613445565b9150509295509295909350565b600060208083018184528085518083526040860191506040848202870101925083870160005b828110156135a857603f1988860301845261359685835161335a565b9450928501929085019060010161357a565b5092979650505050505050565b6000602082840312156135c757600080fd5b5035919050565b600082601f8301126135df57600080fd5b813560206135ef61328e83613399565b8281529181028401810191818101908684111561360b57600080fd5b8286015b8481101561343a578035613622816131a2565b835291830191830161360f565b6000806000806080858703121561364557600080fd5b84359350602085013567ffffffffffffffff8082111561366457600080fd5b613670888389016135ce565b9450604087013591508082111561368657600080fd5b5061369387828801613445565b949793965093946060013593505050565b6000806000606084860312156136b957600080fd5b833567ffffffffffffffff808211156136d157600080fd5b6136dd878388016135ce565b945060208601359150808211156136f357600080fd5b50613700868287016133bd565b925050604084013590509250925092565b6000806040838503121561372457600080fd5b823591506020830135613736816131a2565b809150509250929050565b60008060006060848603121561375657600080fd5b83359250602084013567ffffffffffffffff81111561377457600080fd5b6137008682870161326f565b60008060006060848603121561379557600080fd5b8335925060208401356137a7816131a2565b929592945050506040919091013590565b600080604083850312156137cb57600080fd5b82356137d6816131a2565b91506020830135613736816131a2565b6020808252825182820181905260009190848201906040850190845b8181101561381e57835183529284019291840191600101613802565b50909695505050505050565b6000806000806080858703121561384057600080fd5b843561384b816131a2565b9350602085013561385b816131a2565b9250604085013567ffffffffffffffff8082111561387857600080fd5b613884888389016135ce565b9350606087013591508082111561389a57600080fd5b506138a7878288016133bd565b91505092959194509250565b600080604083850312156138c657600080fd5b8235915060208084013567ffffffffffffffff808211156138e657600080fd5b818601915086601f8301126138fa57600080fd5b813561390861328e82613399565b8181529084028301840190848101908983111561392457600080fd5b8585015b838110156139b357848135111561393e57600080fd5b803586018b603f82011261395157600080fd5b6139596131ed565b808d60608401111561396a57600080fd5b8983015b606084018110156139a357888135111561398757600080fd5b6139968f8c833587010161326f565b8352918a01918a0161396e565b5085525050918601918601613928565b508096505050505050509250929050565b6000806000606084860312156139d957600080fd5b8335925060208401356139eb816131a2565b9150604084013567ffffffffffffffff811115613a0757600080fd5b613a138682870161326f565b9150509250925092565b600281046001821680613a3157607f821691505b60208210811415613a555760e060020a634e487b7102600052602260045260246000fd5b50919050565b60e060020a634e487b7102600052601160045260246000fd5b6000600019821415613a8857613a88613a5b565b5060010190565b60008251613aa181846020870161332e565b9190910192915050565b60008219821115613abe57613abe613a5b565b500190565b60e060020a634e487b7102600052603260045260246000fd5b600082821015613aee57613aee613a5b565b500390565b60208082526025908201527f616464726573736573202620616c696173657320646966666572656e74206c6560408201527f6e67746873000000000000000000000000000000000000000000000000000000606082015260800190565b60208082526024908201527f47616d65204d6173746572206f7220466163746f727920726f6c65207265717560408201527f6972656400000000000000000000000000000000000000000000000000000000606082015260800190565b6000816000190483118215151615613bc757613bc7613a5b565b500290565b60006020808385031215613bdf57600080fd5b825167ffffffffffffffff80821115613bf757600080fd5b818501915085601f830112613c0b57600080fd5b8151613c1961328e82613399565b81815290840283018401908481019088831115613c3557600080fd5b8585015b83811015613ca957805185811115613c515760008081fd5b8601603f81018b13613c635760008081fd5b878101516040613c7561328e83613247565b8281528d82848601011115613c8a5760008081fd5b613c99838c830184870161332e565b8652505050918601918601613c39565b5098975050505050505050565b600060208284031215613cc857600080fd5b5051919050565b600160a060020a0384168152826020820152606060408201526000611faa606083018461335a565b600060208284031215613d0957600080fd5b8151801515811461161257600080fd5b6000808354613d2781613a1d565b60018281168015613d3f5760018114613d5057613d7f565b60ff19841687528287019450613d7f565b8760005260208060002060005b85811015613d765781548a820152908401908201613d5d565b50505082870194505b50929695505050505050565b600060208284031215613d9d57600080fd5b8151611612816131a2565b600160a060020a03841681526000602084818401526060604084015260008454613dd181613a1d565b8060608701526080600180841660008114613df35760018114613e0757613e35565b60ff1985168984015260a089019550613e35565b896000528660002060005b85811015613e2d5781548b8201860152908301908801613e12565b8a0184019650505b50939a9950505050505050505050565b7f416363657373436f6e74726f6c3a206163636f756e7420000000000000000000815260008351613e7d81601785016020880161332e565b7f206973206d697373696e6720726f6c65200000000000000000000000000000006017918401918201528351613eba81602884016020880161332e565b01602801949350505050565b600081613ed557613ed5613a5b565b506000190190565b60e060020a634e487b7102600052603160045260246000fdfe72b06b67826def9fabb513b23f7e5eb74f7ece26d25dad4006546ecf4a13763d1d93c87416ca7b54f0fb8323167b72760e8e2ec93d48660953897a150f97a8b4dfbefbf47cfe66b701d8cfdbce1de81c821590819cb07e71cb01b6602fb0ee27d017b644efdbb8827e313d7971462ef180dad8aa174c6fb8427f18caad304df7a2646970667358221220db1c5815d32817f13b9d9ee518843a12b816764c3ed77c0092c4b6b2773c7c2564736f6c634300080b0033",
  "immutableReferences": {},
  "source": "// SPDX-License-Identifier: GPL-3.0\npragma solidity >=0.7.0 <0.9.0;\n\nimport \"../GameBoard.sol\";\nimport \"../libraries/XYCoords.sol\";\n\ncontract HexGrid is GameBoard {\n    uint256 public gridWidth;\n    uint256 public gridHeight;\n    address public zoneAddress;\n\n    string[] public zoneAliases;\n\n    constructor(\n        address adminAddress,\n        uint256 _gridWidth,\n        uint256 _gridHeight,\n        address _zoneAddress\n    ) GameBoard(adminAddress) {\n        gridWidth = _gridWidth;\n        gridHeight = _gridHeight;\n        zoneAddress = _zoneAddress;\n    }\n\n    function createGrid() public virtual onlyFactoryGM {\n        address[] memory addresses = new address[](gridWidth * gridHeight);\n        if (zoneAliases.length == 0) {\n            zoneAliases = XYCoordinates.coordinates(gridHeight, gridWidth);\n        }\n        for (uint256 i = 0; i < addresses.length; i++) {\n            addresses[i] = zoneAddress;\n        }\n        // game ID 0 will be prototype for rest of games\n        _addZones(addresses, zoneAliases, 0);\n    }\n\n    function getZoneAliases() public view returns (string[] memory) {\n        return zoneAliases;\n    }\n\n    function getInputs(uint256 gameID, string memory _zoneAlias)\n        public\n        view\n        override\n        returns (string[] memory zoneInputs)\n    {\n        string[] memory gameInputs = playZoneInputs[gameID][_zoneAlias];\n        string[] memory defaultInputs = playZoneInputs[0][_zoneAlias];\n        if (gameInputs.length > 0) {\n            string[] memory aliases = new string[](\n                gameInputs.length + defaultInputs.length\n            );\n            for (uint256 i = 0; i < aliases.length; i++) {\n                if (i < defaultInputs.length) {\n                    aliases[i] = defaultInputs[i];\n                } else {\n                    aliases[i] = gameInputs[i - defaultInputs.length];\n                }\n                zoneInputs = aliases;\n            }\n        } else {\n            zoneInputs = defaultInputs;\n        }\n    }\n\n    function getOutputs(uint256 gameID, string memory _zoneAlias)\n        public\n        view\n        override\n        returns (string[] memory zoneOutputs)\n    {\n        string[] memory gameOutputs = playZoneOutputs[gameID][_zoneAlias];\n        string[] memory defaultOutputs = playZoneOutputs[0][_zoneAlias];\n        if (gameOutputs.length > 0) {\n            string[] memory aliases = new string[](\n                gameOutputs.length + defaultOutputs.length\n            );\n            for (uint256 i = 0; i < aliases.length; i++) {\n                if (i < defaultOutputs.length) {\n                    aliases[i] = defaultOutputs[i];\n                } else {\n                    aliases[i] = gameOutputs[i - defaultOutputs.length];\n                }\n                zoneOutputs = aliases;\n            }\n        } else {\n            zoneOutputs = defaultOutputs;\n        }\n    }\n}\n",
  "sourcePath": "@luckymachines/game-core/contracts/src/v0.0/custom_boards/HexGrid.sol",
  "compiler": {
    "name": "solc",
    "version": "0.8.11+commit.d7f03943.Emscripten.clang"
  },
  "schemaVersion": "3.4.4",
  "updatedAt": "2022-05-10T22:43:52.462Z",
  "devdoc": {
    "kind": "dev",
    "methods": {
      "getRoleAdmin(bytes32)": {
        "details": "Returns the admin role that controls `role`. See {grantRole} and {revokeRole}. To change a role's admin, use {_setRoleAdmin}."
      },
      "getRoleMember(bytes32,uint256)": {
        "details": "Returns one of the accounts that have `role`. `index` must be a value between 0 and {getRoleMemberCount}, non-inclusive. Role bearers are not sorted in any particular way, and their ordering may change at any point. WARNING: When using {getRoleMember} and {getRoleMemberCount}, make sure you perform all queries on the same block. See the following https://forum.openzeppelin.com/t/iterating-over-elements-on-enumerableset-in-openzeppelin-contracts/2296[forum post] for more information."
      },
      "getRoleMemberCount(bytes32)": {
        "details": "Returns the number of accounts that have `role`. Can be used together with {getRoleMember} to enumerate all bearers of a role."
      },
      "grantRole(bytes32,address)": {
        "details": "Grants `role` to `account`. If `account` had not been already granted `role`, emits a {RoleGranted} event. Requirements: - the caller must have ``role``'s admin role."
      },
      "hasRole(bytes32,address)": {
        "details": "Returns `true` if `account` has been granted `role`."
      },
      "renounceRole(bytes32,address)": {
        "details": "Revokes `role` from the calling account. Roles are often managed via {grantRole} and {revokeRole}: this function's purpose is to provide a mechanism for accounts to lose their privileges if they are compromised (such as when a trusted device is misplaced). If the calling account had been revoked `role`, emits a {RoleRevoked} event. Requirements: - the caller must be `account`."
      },
      "revokeRole(bytes32,address)": {
        "details": "Revokes `role` from `account`. If `account` had been granted `role`, emits a {RoleRevoked} event. Requirements: - the caller must have ``role``'s admin role."
      },
      "supportsInterface(bytes4)": {
        "details": "See {IERC165-supportsInterface}."
      }
    },
    "version": 1
  },
  "userdoc": {
    "kind": "user",
    "methods": {},
    "version": 1
  }
}