{
  "contractName": "HexGrid",
  "abi": [
    {
      "inputs": [
        {
          "internalType": "address",
          "name": "adminAddress",
          "type": "address"
        },
        {
          "internalType": "uint256",
          "name": "_gridWidth",
          "type": "uint256"
        },
        {
          "internalType": "uint256",
          "name": "_gridHeight",
          "type": "uint256"
        },
        {
          "internalType": "address",
          "name": "_zoneAddress",
          "type": "address"
        }
      ],
      "stateMutability": "nonpayable",
      "type": "constructor"
    },
    {
      "anonymous": false,
      "inputs": [
        {
          "indexed": true,
          "internalType": "bytes32",
          "name": "role",
          "type": "bytes32"
        },
        {
          "indexed": true,
          "internalType": "bytes32",
          "name": "previousAdminRole",
          "type": "bytes32"
        },
        {
          "indexed": true,
          "internalType": "bytes32",
          "name": "newAdminRole",
          "type": "bytes32"
        }
      ],
      "name": "RoleAdminChanged",
      "type": "event"
    },
    {
      "anonymous": false,
      "inputs": [
        {
          "indexed": true,
          "internalType": "bytes32",
          "name": "role",
          "type": "bytes32"
        },
        {
          "indexed": true,
          "internalType": "address",
          "name": "account",
          "type": "address"
        },
        {
          "indexed": true,
          "internalType": "address",
          "name": "sender",
          "type": "address"
        }
      ],
      "name": "RoleGranted",
      "type": "event"
    },
    {
      "anonymous": false,
      "inputs": [
        {
          "indexed": true,
          "internalType": "bytes32",
          "name": "role",
          "type": "bytes32"
        },
        {
          "indexed": true,
          "internalType": "address",
          "name": "account",
          "type": "address"
        },
        {
          "indexed": true,
          "internalType": "address",
          "name": "sender",
          "type": "address"
        }
      ],
      "name": "RoleRevoked",
      "type": "event"
    },
    {
      "inputs": [],
      "name": "DEFAULT_ADMIN_ROLE",
      "outputs": [
        {
          "internalType": "bytes32",
          "name": "",
          "type": "bytes32"
        }
      ],
      "stateMutability": "view",
      "type": "function"
    },
    {
      "inputs": [],
      "name": "FACTORY_ROLE",
      "outputs": [
        {
          "internalType": "bytes32",
          "name": "",
          "type": "bytes32"
        }
      ],
      "stateMutability": "view",
      "type": "function"
    },
    {
      "inputs": [],
      "name": "GAME_MASTER_ROLE",
      "outputs": [
        {
          "internalType": "bytes32",
          "name": "",
          "type": "bytes32"
        }
      ],
      "stateMutability": "view",
      "type": "function"
    },
    {
      "inputs": [],
      "name": "MAX_BATCH_SIZE",
      "outputs": [
        {
          "internalType": "uint256",
          "name": "",
          "type": "uint256"
        }
      ],
      "stateMutability": "view",
      "type": "function"
    },
    {
      "inputs": [],
      "name": "PLAY_ZONE_ROLE",
      "outputs": [
        {
          "internalType": "bytes32",
          "name": "",
          "type": "bytes32"
        }
      ],
      "stateMutability": "view",
      "type": "function"
    },
    {
      "inputs": [],
      "name": "VERIFIED_CONTROLLER_ROLE",
      "outputs": [
        {
          "internalType": "bytes32",
          "name": "",
          "type": "bytes32"
        }
      ],
      "stateMutability": "view",
      "type": "function"
    },
    {
      "inputs": [
        {
          "internalType": "uint256",
          "name": "transitID",
          "type": "uint256"
        }
      ],
      "name": "_progressTransit",
      "outputs": [],
      "stateMutability": "nonpayable",
      "type": "function"
    },
    {
      "inputs": [
        {
          "internalType": "address",
          "name": "factoryAddress",
          "type": "address"
        }
      ],
      "name": "addFactory",
      "outputs": [],
      "stateMutability": "nonpayable",
      "type": "function"
    },
    {
      "inputs": [
        {
          "internalType": "address",
          "name": "keeperAddress",
          "type": "address"
        }
      ],
      "name": "addKeeper",
      "outputs": [],
      "stateMutability": "nonpayable",
      "type": "function"
    },
    {
      "inputs": [
        {
          "internalType": "address",
          "name": "vcAddress",
          "type": "address"
        }
      ],
      "name": "addVerifiedController",
      "outputs": [],
      "stateMutability": "nonpayable",
      "type": "function"
    },
    {
      "inputs": [
        {
          "internalType": "uint256",
          "name": "gameID",
          "type": "uint256"
        },
        {
          "internalType": "string[2][]",
          "name": "connections",
          "type": "string[2][]"
        }
      ],
      "name": "addZoneConnections",
      "outputs": [],
      "stateMutability": "nonpayable",
      "type": "function"
    },
    {
      "inputs": [
        {
          "internalType": "address[]",
          "name": "playZoneAddresses",
          "type": "address[]"
        },
        {
          "internalType": "string[]",
          "name": "zoneAliases",
          "type": "string[]"
        },
        {
          "internalType": "uint256",
          "name": "gameID",
          "type": "uint256"
        }
      ],
      "name": "addZones",
      "outputs": [],
      "stateMutability": "nonpayable",
      "type": "function"
    },
    {
      "inputs": [],
      "name": "cleanQueue",
      "outputs": [],
      "stateMutability": "nonpayable",
      "type": "function"
    },
    {
      "inputs": [
        {
          "internalType": "address",
          "name": "_playerRegistry",
          "type": "address"
        },
        {
          "internalType": "address",
          "name": "_gameRegistry",
          "type": "address"
        }
      ],
      "name": "createGame",
      "outputs": [
        {
          "internalType": "uint256",
          "name": "gameID",
          "type": "uint256"
        }
      ],
      "stateMutability": "nonpayable",
      "type": "function"
    },
    {
      "inputs": [
        {
          "internalType": "address",
          "name": "_playerRegistry",
          "type": "address"
        },
        {
          "internalType": "address",
          "name": "_gameRegistry",
          "type": "address"
        },
        {
          "internalType": "address[]",
          "name": "playZoneAddresses",
          "type": "address[]"
        },
        {
          "internalType": "string[]",
          "name": "zoneAliases",
          "type": "string[]"
        }
      ],
      "name": "createGame",
      "outputs": [
        {
          "internalType": "uint256",
          "name": "gameID",
          "type": "uint256"
        }
      ],
      "stateMutability": "nonpayable",
      "type": "function"
    },
    {
      "inputs": [
        {
          "internalType": "uint256",
          "name": "",
          "type": "uint256"
        },
        {
          "internalType": "uint256",
          "name": "",
          "type": "uint256"
        }
      ],
      "name": "currentPlayZone",
      "outputs": [
        {
          "internalType": "string",
          "name": "",
          "type": "string"
        }
      ],
      "stateMutability": "view",
      "type": "function"
    },
    {
      "inputs": [
        {
          "internalType": "uint256",
          "name": "",
          "type": "uint256"
        },
        {
          "internalType": "uint256",
          "name": "",
          "type": "uint256"
        }
      ],
      "name": "entryQueue",
      "outputs": [
        {
          "internalType": "uint256",
          "name": "",
          "type": "uint256"
        }
      ],
      "stateMutability": "view",
      "type": "function"
    },
    {
      "inputs": [
        {
          "internalType": "uint256",
          "name": "gameID",
          "type": "uint256"
        },
        {
          "internalType": "address",
          "name": "playerAddress",
          "type": "address"
        },
        {
          "internalType": "uint256",
          "name": "pathIndex",
          "type": "uint256"
        }
      ],
      "name": "exitToPath",
      "outputs": [
        {
          "internalType": "bool",
          "name": "exitSuccess",
          "type": "bool"
        }
      ],
      "stateMutability": "nonpayable",
      "type": "function"
    },
    {
      "inputs": [
        {
          "internalType": "uint256",
          "name": "",
          "type": "uint256"
        }
      ],
      "name": "gameState",
      "outputs": [
        {
          "internalType": "uint256",
          "name": "",
          "type": "uint256"
        }
      ],
      "stateMutability": "view",
      "type": "function"
    },
    {
      "inputs": [
        {
          "internalType": "uint256",
          "name": "gameID",
          "type": "uint256"
        }
      ],
      "name": "getOverflowQueue",
      "outputs": [
        {
          "internalType": "uint256[]",
          "name": "",
          "type": "uint256[]"
        }
      ],
      "stateMutability": "view",
      "type": "function"
    },
    {
      "inputs": [
        {
          "internalType": "uint256",
          "name": "gameID",
          "type": "uint256"
        }
      ],
      "name": "getPlayZones",
      "outputs": [
        {
          "internalType": "string[]",
          "name": "",
          "type": "string[]"
        }
      ],
      "stateMutability": "view",
      "type": "function"
    },
    {
      "inputs": [
        {
          "internalType": "bytes32",
          "name": "role",
          "type": "bytes32"
        }
      ],
      "name": "getRoleAdmin",
      "outputs": [
        {
          "internalType": "bytes32",
          "name": "",
          "type": "bytes32"
        }
      ],
      "stateMutability": "view",
      "type": "function"
    },
    {
      "inputs": [
        {
          "internalType": "bytes32",
          "name": "role",
          "type": "bytes32"
        },
        {
          "internalType": "uint256",
          "name": "index",
          "type": "uint256"
        }
      ],
      "name": "getRoleMember",
      "outputs": [
        {
          "internalType": "address",
          "name": "",
          "type": "address"
        }
      ],
      "stateMutability": "view",
      "type": "function"
    },
    {
      "inputs": [
        {
          "internalType": "bytes32",
          "name": "role",
          "type": "bytes32"
        }
      ],
      "name": "getRoleMemberCount",
      "outputs": [
        {
          "internalType": "uint256",
          "name": "",
          "type": "uint256"
        }
      ],
      "stateMutability": "view",
      "type": "function"
    },
    {
      "inputs": [
        {
          "internalType": "bytes32",
          "name": "role",
          "type": "bytes32"
        },
        {
          "internalType": "address",
          "name": "account",
          "type": "address"
        }
      ],
      "name": "grantRole",
      "outputs": [],
      "stateMutability": "nonpayable",
      "type": "function"
    },
    {
      "inputs": [],
      "name": "gridHeight",
      "outputs": [
        {
          "internalType": "uint256",
          "name": "",
          "type": "uint256"
        }
      ],
      "stateMutability": "view",
      "type": "function"
    },
    {
      "inputs": [],
      "name": "gridWidth",
      "outputs": [
        {
          "internalType": "uint256",
          "name": "",
          "type": "uint256"
        }
      ],
      "stateMutability": "view",
      "type": "function"
    },
    {
      "inputs": [
        {
          "internalType": "bytes32",
          "name": "role",
          "type": "bytes32"
        },
        {
          "internalType": "address",
          "name": "account",
          "type": "address"
        }
      ],
      "name": "hasRole",
      "outputs": [
        {
          "internalType": "bool",
          "name": "",
          "type": "bool"
        }
      ],
      "stateMutability": "view",
      "type": "function"
    },
    {
      "inputs": [
        {
          "internalType": "uint256",
          "name": "",
          "type": "uint256"
        }
      ],
      "name": "initialPlayZone",
      "outputs": [
        {
          "internalType": "string",
          "name": "",
          "type": "string"
        }
      ],
      "stateMutability": "view",
      "type": "function"
    },
    {
      "inputs": [
        {
          "internalType": "address",
          "name": "factoryAddress",
          "type": "address"
        }
      ],
      "name": "isFactory",
      "outputs": [
        {
          "internalType": "bool",
          "name": "factoryIsAuthorized",
          "type": "bool"
        }
      ],
      "stateMutability": "view",
      "type": "function"
    },
    {
      "inputs": [
        {
          "internalType": "uint256",
          "name": "",
          "type": "uint256"
        }
      ],
      "name": "lastEntryPlayerID",
      "outputs": [
        {
          "internalType": "uint256",
          "name": "",
          "type": "uint256"
        }
      ],
      "stateMutability": "view",
      "type": "function"
    },
    {
      "inputs": [],
      "name": "needsUpdate",
      "outputs": [
        {
          "internalType": "bool",
          "name": "doesNeedUpdate",
          "type": "bool"
        }
      ],
      "stateMutability": "view",
      "type": "function"
    },
    {
      "inputs": [
        {
          "internalType": "uint256",
          "name": "",
          "type": "uint256"
        },
        {
          "internalType": "string",
          "name": "",
          "type": "string"
        },
        {
          "internalType": "uint256",
          "name": "",
          "type": "uint256"
        }
      ],
      "name": "playZoneInputs",
      "outputs": [
        {
          "internalType": "string",
          "name": "",
          "type": "string"
        }
      ],
      "stateMutability": "view",
      "type": "function"
    },
    {
      "inputs": [
        {
          "internalType": "uint256",
          "name": "",
          "type": "uint256"
        },
        {
          "internalType": "string",
          "name": "",
          "type": "string"
        },
        {
          "internalType": "uint256",
          "name": "",
          "type": "uint256"
        }
      ],
      "name": "playZoneOutputs",
      "outputs": [
        {
          "internalType": "string",
          "name": "",
          "type": "string"
        }
      ],
      "stateMutability": "view",
      "type": "function"
    },
    {
      "inputs": [
        {
          "internalType": "uint256",
          "name": "",
          "type": "uint256"
        },
        {
          "internalType": "uint256",
          "name": "",
          "type": "uint256"
        }
      ],
      "name": "playZones",
      "outputs": [
        {
          "internalType": "string",
          "name": "",
          "type": "string"
        }
      ],
      "stateMutability": "view",
      "type": "function"
    },
    {
      "inputs": [
        {
          "internalType": "uint256",
          "name": "gameID",
          "type": "uint256"
        },
        {
          "internalType": "address",
          "name": "playerAddress",
          "type": "address"
        },
        {
          "internalType": "string",
          "name": "_zoneAlias",
          "type": "string"
        }
      ],
      "name": "playerEnteredZone",
      "outputs": [],
      "stateMutability": "nonpayable",
      "type": "function"
    },
    {
      "inputs": [
        {
          "internalType": "uint256",
          "name": "",
          "type": "uint256"
        }
      ],
      "name": "playerRegistry",
      "outputs": [
        {
          "internalType": "uint256",
          "name": "",
          "type": "uint256"
        }
      ],
      "stateMutability": "view",
      "type": "function"
    },
    {
      "inputs": [],
      "name": "prAddress",
      "outputs": [
        {
          "internalType": "address",
          "name": "",
          "type": "address"
        }
      ],
      "stateMutability": "view",
      "type": "function"
    },
    {
      "inputs": [
        {
          "internalType": "uint256",
          "name": "gameID",
          "type": "uint256"
        },
        {
          "internalType": "address[]",
          "name": "playerAddresses",
          "type": "address[]"
        },
        {
          "internalType": "uint256[]",
          "name": "pathIndices",
          "type": "uint256[]"
        },
        {
          "internalType": "uint256",
          "name": "transitID",
          "type": "uint256"
        }
      ],
      "name": "queueExitToPaths",
      "outputs": [],
      "stateMutability": "nonpayable",
      "type": "function"
    },
    {
      "inputs": [
        {
          "internalType": "uint256",
          "name": "gameID",
          "type": "uint256"
        },
        {
          "internalType": "string[]",
          "name": "inputAliases",
          "type": "string[]"
        },
        {
          "internalType": "uint256[]",
          "name": "inputs",
          "type": "uint256[]"
        },
        {
          "internalType": "string[]",
          "name": "outputAliases",
          "type": "string[]"
        },
        {
          "internalType": "uint256[]",
          "name": "outputs",
          "type": "uint256[]"
        }
      ],
      "name": "removeZoneConnections",
      "outputs": [],
      "stateMutability": "nonpayable",
      "type": "function"
    },
    {
      "inputs": [
        {
          "internalType": "bytes32",
          "name": "role",
          "type": "bytes32"
        },
        {
          "internalType": "address",
          "name": "account",
          "type": "address"
        }
      ],
      "name": "renounceRole",
      "outputs": [],
      "stateMutability": "nonpayable",
      "type": "function"
    },
    {
      "inputs": [
        {
          "internalType": "bytes32",
          "name": "role",
          "type": "bytes32"
        },
        {
          "internalType": "address",
          "name": "account",
          "type": "address"
        }
      ],
      "name": "revokeRole",
      "outputs": [],
      "stateMutability": "nonpayable",
      "type": "function"
    },
    {
      "inputs": [],
      "name": "runUpdate",
      "outputs": [],
      "stateMutability": "nonpayable",
      "type": "function"
    },
    {
      "inputs": [
        {
          "internalType": "string",
          "name": "initialZone",
          "type": "string"
        },
        {
          "internalType": "uint256",
          "name": "gameID",
          "type": "uint256"
        }
      ],
      "name": "setInitialPlayZone",
      "outputs": [],
      "stateMutability": "nonpayable",
      "type": "function"
    },
    {
      "inputs": [
        {
          "internalType": "uint256",
          "name": "gameID",
          "type": "uint256"
        }
      ],
      "name": "startGame",
      "outputs": [],
      "stateMutability": "nonpayable",
      "type": "function"
    },
    {
      "inputs": [
        {
          "internalType": "uint256",
          "name": "transitID",
          "type": "uint256"
        }
      ],
      "name": "startTransit",
      "outputs": [],
      "stateMutability": "nonpayable",
      "type": "function"
    },
    {
      "inputs": [
        {
          "internalType": "bytes4",
          "name": "interfaceId",
          "type": "bytes4"
        }
      ],
      "name": "supportsInterface",
      "outputs": [
        {
          "internalType": "bool",
          "name": "",
          "type": "bool"
        }
      ],
      "stateMutability": "view",
      "type": "function"
    },
    {
      "inputs": [],
      "name": "zoneAddress",
      "outputs": [
        {
          "internalType": "address",
          "name": "",
          "type": "address"
        }
      ],
      "stateMutability": "view",
      "type": "function"
    },
    {
      "inputs": [
        {
          "internalType": "uint256",
          "name": "",
          "type": "uint256"
        },
        {
          "internalType": "string",
          "name": "",
          "type": "string"
        }
      ],
      "name": "zoneAlias",
      "outputs": [
        {
          "internalType": "address",
          "name": "",
          "type": "address"
        }
      ],
      "stateMutability": "view",
      "type": "function"
    },
    {
      "inputs": [
        {
          "internalType": "uint256",
          "name": "",
          "type": "uint256"
        }
      ],
      "name": "zoneAliases",
      "outputs": [
        {
          "internalType": "string",
          "name": "",
          "type": "string"
        }
      ],
      "stateMutability": "view",
      "type": "function"
    },
    {
      "inputs": [],
      "name": "createGrid",
      "outputs": [],
      "stateMutability": "nonpayable",
      "type": "function"
    },
    {
      "inputs": [],
      "name": "getZoneAliases",
      "outputs": [
        {
          "internalType": "string[]",
          "name": "",
          "type": "string[]"
        }
      ],
      "stateMutability": "view",
      "type": "function"
    },
    {
      "inputs": [
        {
          "internalType": "uint256",
          "name": "gameID",
          "type": "uint256"
        },
        {
          "internalType": "string",
          "name": "_zoneAlias",
          "type": "string"
        }
      ],
      "name": "getInputs",
      "outputs": [
        {
          "internalType": "string[]",
          "name": "zoneInputs",
          "type": "string[]"
        }
      ],
      "stateMutability": "view",
      "type": "function"
    },
    {
      "inputs": [
        {
          "internalType": "uint256",
          "name": "gameID",
          "type": "uint256"
        },
        {
          "internalType": "string",
          "name": "_zoneAlias",
          "type": "string"
        }
      ],
      "name": "getOutputs",
      "outputs": [
        {
          "internalType": "string[]",
          "name": "zoneOutputs",
          "type": "string[]"
        }
      ],
      "stateMutability": "view",
      "type": "function"
    }
  ],
  "bytecode": "0x60806040523480156200001157600080fd5b50604051620043143803806200431483398101604081905262000034916200028f565b836200004b600082640100000000620000b0810204565b620000807f1d93c87416ca7b54f0fb8323167b72760e8e2ec93d48660953897a150f97a8b482640100000000620000b0810204565b50600e92909255600f5560108054600160a060020a031916600160a060020a0390921691909117905550620002da565b620000c58282640100000000620000c9810204565b5050565b620000e38282640100000000620023ce6200011082021704565b60008281526001602052604090206200010b908264010000000062002452620001ac82021704565b505050565b620001258282640100000000620001d5810204565b620000c557600082815260208181526040808320600160a060020a03851684529091529020805460ff1916600117905562000168640100000000620001fe810204565b600160a060020a031681600160a060020a0316837f2f8788117e7eff1d82e926ec794901d17c78024a50270940304540a733656f0d60405160405180910390a45050565b6000620001cc83600160a060020a03841664010000000062000202810204565b90505b92915050565b600091825260208281526040808420600160a060020a0393909316845291905290205460ff1690565b3390565b60006200021983836401000000006200025a810204565b6200025157508154600181810184556000848152602080822090930184905584548482528286019093526040902091909155620001cf565b506000620001cf565b60009081526001919091016020526040902054151590565b8051600160a060020a03811681146200028a57600080fd5b919050565b60008060008060808587031215620002a657600080fd5b620002b18562000272565b93506020850151925060408501519150620002cf6060860162000272565b905092959194509250565b61402a80620002ea6000396000f3fe608060405234801561001057600080fd5b50600436106102e65760003560e060020a9004806391d148541161018c578063ca15c873116100e8578063d547741f11610096578063d547741f146106d2578063d75e7980146106e5578063d91413ba146106f8578063e5ed1d591461070b578063eb33983d1461071e578063f643b8fd14610731578063fa9f34381461074457600080fd5b8063ca15c87314610647578063cd1ec7f21461065a578063cfdbf2541461066f578063d1e18d2614610677578063d2d6756b1461067f578063d3fb72891461069f578063d4f5b152146106bf57600080fd5b8063a6f979ff11610145578063a6f979ff146105c8578063aab2aeb8146105db578063ad1def1e146105fb578063b2df0ca2146103f5578063b40c89df14610610578063babdeefa14610623578063c06dea4e1461063657600080fd5b806391d14854146105615780639eb356cb146105745780639f6c4017146105875780639f82bcc01461059a578063a217fddf146105ad578063a4f9c9df146105b557600080fd5b80632c47669a116102465780634032b72b116101f45780634032b72b146104da5780634e0e1a3e146104ed57806351709a731461050d5780636b6ec869146105205780637cc75d1c1461053357806384bf09b6146105465780639010d07c1461054e57600080fd5b80632c47669a146104755780632f2ff15d14610488578063346c94091461049b57806336568abe146104a3578063374f1d35146104b657806338b145df146104c95780633ca61a58146104d257600080fd5b806317d7e833116102a357806317d7e833146103c257806319006018146103e2578063194f2a36146103f75780631c834a7f14610417578063248a9ca31461042c578063296787561461044f57806329ce1ec51461046257600080fd5b806301ffc9a7146102eb57806304a0fb17146103135780630b197f2e146103365780630f04ba6714610361578063108c5e1414610374578063153a75901461037d575b600080fd5b6102fe6102f93660046132c0565b610757565b60405190151581526020015b60405180910390f35b610328600080516020613fb583398151915281565b60405190815260200161030a565b60105461034990600160a060020a031681565b604051600160a060020a03909116815260200161030a565b6102fe61036f3660046132ff565b61079b565b610328600f5481565b61034961038b36600461340d565b60086020908152600092835260409092208151808301840180519281529084019290930191909120915254600160a060020a031681565b6103d56103d0366004613454565b6107b5565b60405161030a91906134ce565b6103f56103f03660046135e5565b61086e565b005b61040a61040536600461340d565b6109ba565b60405161030a919061369c565b610328600080516020613fd583398151915281565b61032861043a3660046136fd565b60009081526020819052604090206001015490565b6103f561045d366004613777565b610cfd565b6103f56104703660046132ff565b610d1c565b6103f56104833660046137ec565b610d43565b6103f5610496366004613859565b610d90565b6102fe610dba565b6103f56104b1366004613859565b610e0b565b6103d56104c43660046136fd565b610e96565b610328600e5481565b61040a610ec1565b6103f56104e83660046132ff565b610f9a565b6103286104fb3660046136fd565b60046020526000908152604090205481565b6103d561051b366004613889565b610fca565b61040a61052e36600461340d565b61101e565b610328610541366004613454565b61134e565b6103f561137f565b61034961055c366004613454565b61161f565b6102fe61056f366004613859565b61163e565b6102fe6105823660046138c8565b611667565b6103f56105953660046136fd565b611a9e565b6103f56105a8366004613900565b611ab6565b610328600081565b6103f56105c33660046136fd565b611b72565b6103286105d6366004613945565b611b8a565b6103286105e93660046136fd565b600b6020526000908152604090205481565b610328600080516020613f9583398151915281565b6103d561061e366004613889565b611c6f565b61040a6106313660046136fd565b611ca6565b600254600160a060020a0316610349565b6103286106553660046136fd565b611d92565b610328600080516020613f7583398151915281565b61032860c881565b6103f5611da9565b61032861068d3660046136fd565b60056020526000908152604090205481565b6106b26106ad3660046136fd565b611eaf565b60405161030a9190613973565b6103f56106cd3660046132ff565b611f11565b6103f56106e0366004613859565b611f34565b6103d56106f3366004613454565b611f59565b6103286107063660046139b7565b611f7d565b6103f56107193660046136fd565b6120a1565b6103d561072c3660046136fd565b6120ef565b6103f561073f366004613a40565b612108565b6103f5610752366004613b51565b612309565b6000600160e060020a031982167f5a05180f000000000000000000000000000000000000000000000000000000001480610795575061079582612467565b92915050565b6000610795600080516020613fb58339815191528361163e565b600660205281600052604060002081815481106107d157600080fd5b906000526020600020016000915091505080546107ed90613baa565b80601f016020809104026020016040519081016040528092919081815260200182805461081990613baa565b80156108665780601f1061083b57610100808354040283529160200191610866565b820191906000526020600020905b81548152906001019060200180831161084957829003601f168201915b505050505081565b600080516020613f95833981519152610886816124ce565b81518451146108df5760405160e560020a62461bcd02815260206004820181905260248201527f696e70757473202f206f757470757473206c656e677468206d69736d6174636860448201526064015b60405180910390fd5b6108ea8686866124d8565b6109395760405160e560020a62461bcd02815260206004820152600e60248201527f696e7075747320696e76616c696400000000000000000000000000000000000060448201526064016108d6565b61094486848461257b565b6109935760405160e560020a62461bcd02815260206004820152600f60248201527f6f75747075747320696e76616c6964000000000000000000000000000000000060448201526064016108d6565b60005b84518110156109b157806109a981613c01565b915050610996565b50505050505050565b600082815260096020526040808220905160609291906109db908590613c1c565b9081526020016040518091039020805480602002602001604051908101604052809291908181526020016000905b82821015610ab5578382906000526020600020018054610a2890613baa565b80601f0160208091040260200160405190810160405280929190818152602001828054610a5490613baa565b8015610aa15780601f10610a7657610100808354040283529160200191610aa1565b820191906000526020600020905b815481529060010190602001808311610a8457829003601f168201915b505050505081526020019060010190610a09565b505060008080526009602052604051939450927fec8156718a8372b1db44bb411437d0870f3e3790d4a08526d024ce1b0b668f6b9250610af791508690613c1c565b9081526020016040518091039020805480602002602001604051908101604052809291908181526020016000905b82821015610bd1578382906000526020600020018054610b4490613baa565b80601f0160208091040260200160405190810160405280929190818152602001828054610b7090613baa565b8015610bbd5780601f10610b9257610100808354040283529160200191610bbd565b820191906000526020600020905b815481529060010190602001808311610ba057829003601f168201915b505050505081526020019060010190610b25565b505050509050600082511115610cf157600081518351610bf19190613c38565b67ffffffffffffffff811115610c0957610c0961331c565b604051908082528060200260200182016040528015610c3c57816020015b6060815260200190600190039081610c275790505b50905060005b8151811015610cea578251811015610c9057828181518110610c6657610c66613c50565b6020026020010151828281518110610c8057610c80613c50565b6020026020010181905250610cd4565b83835182610c9e9190613c69565b81518110610cae57610cae613c50565b6020026020010151828281518110610cc857610cc8613c50565b60200260200101819052505b8194508080610ce290613c01565b915050610c42565b5050610cf5565b8092505b505092915050565b600080516020613f75833981519152610d15816124ce565b5050505050565b6000610d27816124ce565b610d3f600080516020613fb583398151915283612616565b5050565b600080516020613f95833981519152610d5b816124ce565b8251845114610d7f5760405160e560020a62461bcd0281526004016108d690613c80565b610d8a848484612620565b50505050565b600082815260208190526040902060010154610dab816124ce565b610db5838361277f565b505050565b6000805b600354811015610e075760038181548110610ddb57610ddb613c50565b9060005260206000200154600014610df557600191505090565b80610dff81613c01565b915050610dbe565b5090565b600160a060020a0381163314610e8c5760405160e560020a62461bcd02815260206004820152602f60248201527f416363657373436f6e74726f6c3a2063616e206f6e6c792072656e6f756e636560448201527f20726f6c657320666f722073656c66000000000000000000000000000000000060648201526084016108d6565b610d3f82826127a1565b60118181548110610ea657600080fd5b9060005260206000200160009150905080546107ed90613baa565b60606011805480602002602001604051908101604052809291908181526020016000905b82821015610f91578382906000526020600020018054610f0490613baa565b80601f0160208091040260200160405190810160405280929190818152602001828054610f3090613baa565b8015610f7d5780601f10610f5257610100808354040283529160200191610f7d565b820191906000526020600020905b815481529060010190602001808311610f6057829003601f168201915b505050505081526020019060010190610ee5565b50505050905090565b600080516020613f95833981519152610fb2816124ce565b610d3f600080516020613fd583398151915283612616565b6009602090815260008481526040902083518085018301805192815290830192850192909220915280548290811061100157600080fd5b90600052602060002001600092509250505080546107ed90613baa565b6000828152600a60205260408082209051606092919061103f908590613c1c565b9081526020016040518091039020805480602002602001604051908101604052809291908181526020016000905b8282101561111957838290600052602060002001805461108c90613baa565b80601f01602080910402602001604051908101604052809291908181526020018280546110b890613baa565b80156111055780601f106110da57610100808354040283529160200191611105565b820191906000526020600020905b8154815290600101906020018083116110e857829003601f168201915b50505050508152602001906001019061106d565b50506000808052600a602052604051939450927f13da86008ba1c6922daee3e07db95305ef49ebced9f5467a0b8613fcc6b343e3925061115b91508690613c1c565b9081526020016040518091039020805480602002602001604051908101604052809291908181526020016000905b828210156112355783829060005260206000200180546111a890613baa565b80601f01602080910402602001604051908101604052809291908181526020018280546111d490613baa565b80156112215780601f106111f657610100808354040283529160200191611221565b820191906000526020600020905b81548152906001019060200180831161120457829003601f168201915b505050505081526020019060010190611189565b505050509050600082511115610cf1576000815183516112559190613c38565b67ffffffffffffffff81111561126d5761126d61331c565b6040519080825280602002602001820160405280156112a057816020015b606081526020019060019003908161128b5790505b50905060005b8151811015610cea5782518110156112f4578281815181106112ca576112ca613c50565b60200260200101518282815181106112e4576112e4613c50565b6020026020010181905250611338565b838351826113029190613c69565b8151811061131257611312613c50565b602002602001015182828151811061132c5761132c613c50565b60200260200101819052505b819450808061134690613c01565b9150506112a6565b600d602052816000526040600020818154811061136a57600080fd5b90600052602060002001600091509150505481565b611397600080516020613fb58339815191523361163e565b806113b557506113b5600080516020613f958339815191523361163e565b6113d45760405160e560020a62461bcd0281526004016108d690613cdd565b60115461161d576000600f54600e546113ed9190613d3a565b67ffffffffffffffff8111156114055761140561331c565b60405190808252806020026020018201604052801561142e578160200160208202803683370190505b50600f54600e546040517f9f6b56490000000000000000000000000000000000000000000000000000000081526004810192909252602482015290915073__XYCoordinates_________________________90639f6b564990604401600060405180830381865af41580156114a7573d6000803e3d6000fd5b505050506040513d6000823e601f3d908101601f191682016040526114cf9190810190613d59565b80516114e39160119160209091019061317b565b5060005b815181101561153d576010548251600160a060020a039091169083908390811061151357611513613c50565b600160a060020a03909216602092830291909101909101528061153581613c01565b9150506114e7565b5061161b816011805480602002602001604051908101604052809291908181526020016000905b8282101561161057838290600052602060002001805461158390613baa565b80601f01602080910402602001604051908101604052809291908181526020018280546115af90613baa565b80156115fc5780601f106115d1576101008083540402835291602001916115fc565b820191906000526020600020905b8154815290600101906020018083116115df57829003601f168201915b505050505081526020019060010190611564565b505050506000612620565b505b565b600082815260016020526040812061163790836127c3565b9392505050565b600091825260208281526040808420600160a060020a0393909316845291905290205460ff1690565b60025460405160e560020a6305e53e5502815260048101859052600160a060020a038481166024830152600092839291169063bca7caa090604401602060405180830381865afa1580156116bf573d6000803e3d6000fd5b505050506040513d601f19601f820116820180604052508101906116e39190613e43565b6000868152600c6020908152604080832084845290915281208054929350909161170c90613baa565b80601f016020809104026020016040519081016040528092919081815260200182805461173890613baa565b80156117855780601f1061175a57610100808354040283529160200191611785565b820191906000526020600020905b81548152906001019060200180831161176857829003601f168201915b505050505090506000611798878361101e565b8051909150806117ed5760405160e560020a62461bcd02815260206004820152601760248201527f4e6f206578697420706174687320617661696c61626c6500000000000000000060448201526064016108d6565b6000888152600860205260408082209051919650869161180e908690613c1c565b90815260405190819003602001902054600160a060020a031690506000828811611838578761183b565b60005b9050600084828151811061185157611851613c50565b602002602001015190506000600860008d81526020019081526020016000208260405161187e9190613c1c565b908152602001604051809103902060009054906101000a9004600160a060020a0316905083600160a060020a0316637caf12808c8e8a6040518463ffffffff1660e060020a0281526004016118d593929190613e5c565b602060405180830381865afa1580156118f2573d6000803e3d6000fd5b505050506040513d601f19601f820116820180604052508101906119169190613e84565b8015611991575080600160a060020a031663e15b3ad08c8e856040518463ffffffff1660e060020a02815260040161195093929190613e5c565b602060405180830381865afa15801561196d573d6000803e3d6000fd5b505050506040513d601f19601f820116820180604052508101906119919190613e84565b15611a8f5783600160a060020a03166328d7e11a8c8e8a6040518463ffffffff1660e060020a0281526004016119c993929190613e5c565b600060405180830381600087803b1580156119e357600080fd5b505af11580156119f7573d6000803e3d6000fd5b5050505080600160a060020a03166398bd75728c8e856040518463ffffffff1660e060020a028152600401611a2e93929190613e5c565b600060405180830381600087803b158015611a4857600080fd5b505af1158015611a5c573d6000803e3d6000fd5b50505060008d8152600c602090815260408083208c845282529091208451611a89935090918501906131d4565b50600198505b50505050505050509392505050565b600080516020613fd5833981519152610d3f816124ce565b600080516020613fd5833981519152611ace816124ce565b60008281526004602052604090205415611b535760405160e560020a62461bcd02815260206004820152602c60248201527f63616e27742073657420696e697469616c207a6f6e652c2067616d6520616c7260448201527f656164792073746172746564000000000000000000000000000000000000000060648201526084016108d6565b60008281526007602090815260409091208451610d8a928601906131d4565b600080516020613f75833981519152610d3f816124ce565b6000611ba4600080516020613fb58339815191523361163e565b80611bc25750611bc2600080516020613f958339815191523361163e565b611be15760405160e560020a62461bcd0281526004016108d690613cdd565b82600260006101000a815481600160a060020a030219169083600160a060020a0316021790555081600160a060020a0316630a75806e6040518163ffffffff1660e060020a0281526004016020604051808303816000875af1158015611c4b573d6000803e3d6000fd5b505050506040513d601f19601f820116820180604052508101906116379190613e43565b600a602090815260008481526040902083518085018301805192815290830192850192909220915280548290811061100157600080fd5b606060066000838152602001908152602001600020805480602002602001604051908101604052809291908181526020016000905b82821015611d87578382906000526020600020018054611cfa90613baa565b80601f0160208091040260200160405190810160405280929190818152602001828054611d2690613baa565b8015611d735780601f10611d4857610100808354040283529160200191611d73565b820191906000526020600020905b815481529060010190602001808311611d5657829003601f168201915b505050505081526020019060010190611cdb565b505050509050919050565b6000818152600160205260408120610795906127cf565b600080516020613fd5833981519152611dc1816124ce565b60008060005b600354811015611e305760038181548110611de457611de4613c50565b9060005260206000200154600014611e1e5760038181548110611e0957611e09613c50565b90600052602060002001549250809150611e30565b80611e2881613c01565b915050611dc7565b50600082815260046020526040902054611e5257611e4d826127d9565b611e72565b60008281526004602052604090205460011415611e7257611e7282612864565b60008281526004602052604090205460011015610db557600060038281548110611e9e57611e9e613c50565b600091825260209091200155505050565b6000818152600d6020908152604091829020805483518184028101840190945280845260609392830182828015611f0557602002820191906000526020600020905b815481526020019060010190808311611ef1575b50505050509050919050565b6000611f1c816124ce565b610d3f600080516020613fd583398151915283610d90565b600082815260208190526040902060010154611f4f816124ce565b610db583836127a1565b600c602090815260009283526040808420909152908252902080546107ed90613baa565b6000611f97600080516020613fb58339815191523361163e565b80611fb55750611fb5600080516020613f958339815191523361163e565b611fd45760405160e560020a62461bcd0281526004016108d690613cdd565b8151835114611ff85760405160e560020a62461bcd0281526004016108d690613c80565b82511561200a5761200a838383612620565b84600260006101000a815481600160a060020a030219169083600160a060020a0316021790555083600160a060020a0316630a75806e6040518163ffffffff1660e060020a0281526004016020604051808303816000875af1158015612074573d6000803e3d6000fd5b505050506040513d601f19601f820116820180604052508101906120989190613e43565b95945050505050565b600080516020613f958339815191526120b9816124ce565b50600380546001810182556000919091527fc2575a0e9e593c00f959f8c92f12db2869c3395a3b0502d05e2516446f71f85b0155565b600760205260009081526040902080546107ed90613baa565b600080516020613f95833981519152612120816124ce565b61212a8383612c1d565b6121795760405160e560020a62461bcd02815260206004820152601a60248201527f6e6f7420616c6c207a6f6e6520696e64656365732076616c696400000000000060448201526064016108d6565b60005b8251811015610d8a576000848152600a6020526040902083518490839081106121a7576121a7613c50565b60200260200101516000600281106121c1576121c1613c50565b60200201516040516121d39190613c1c565b90815260200160405180910390208382815181106121f3576121f3613c50565b602002602001015160016002811061220d5761220d613c50565b602090810291909101518254600181018455600093845292829020815161223d94919091019291909101906131d4565b506000848152600960205260409020835184908390811061226057612260613c50565b602002602001015160016002811061227a5761227a613c50565b602002015160405161228c9190613c1c565b90815260200160405180910390208382815181106122ac576122ac613c50565b60200260200101516000600281106122c6576122c6613c50565b60209081029190910151825460018101845560009384529282902081516122f694919091019291909101906131d4565b508061230181613c01565b91505061217c565b600080516020613f75833981519152612321816124ce565b60025460405160e560020a6305e53e5502815260048101869052600160a060020a038581166024830152600092169063bca7caa090604401602060405180830381865afa158015612376573d6000803e3d6000fd5b505050506040513d601f19601f8201168201806040525081019061239a9190613e43565b6000868152600c60209081526040808320848452825290912085519293506123c69290918601906131d4565b505050505050565b6123d8828261163e565b610d3f57600082815260208181526040808320600160a060020a03851684529091529020805460ff1916600117905561240e3390565b600160a060020a031681600160a060020a0316837f2f8788117e7eff1d82e926ec794901d17c78024a50270940304540a733656f0d60405160405180910390a45050565b600061163783600160a060020a038416612d2c565b6000600160e060020a031982167f7965db0b00000000000000000000000000000000000000000000000000000000148061079557507f01ffc9a700000000000000000000000000000000000000000000000000000000600160e060020a0319831614610795565b61161b8133612d7b565b600160005b8251811015612573578281815181106124f8576124f8613c50565b6020026020010151600161250c9190613c38565b6000868152600960205260409020855186908490811061252e5761252e613c50565b60200260200101516040516125439190613c1c565b90815260405190819003602001902054106125615760009150612573565b8061256b81613c01565b9150506124dd565b509392505050565b600160005b82518110156125735782818151811061259b5761259b613c50565b602002602001015160016125af9190613c38565b6000868152600a6020526040902085518690849081106125d1576125d1613c50565b60200260200101516040516125e69190613c1c565b90815260405190819003602001902054106126045760009150612573565b8061260e81613c01565b915050612580565b610d3f828261277f565b60005b8351811015610d8a576000828152600660205260409020835184908390811061264e5761264e613c50565b6020908102919091018101518254600181018455600093845292829020815161268094919091019291909101906131d4565b5083818151811061269357612693613c50565b6020026020010151600860008481526020019081526020016000208483815181106126c0576126c0613c50565b60200260200101516040516126d59190613c1c565b908152602001604051809103902060006101000a815481600160a060020a030219169083600160a060020a03160217905550612738600080516020613f7583398151915285838151811061272b5761272b613c50565b602002602001015161163e565b61276d5761276d600080516020613f7583398151915285838151811061276057612760613c50565b6020026020010151612616565b8061277781613c01565b915050612623565b61278982826123ce565b6000828152600160205260409020610db59082612452565b6127ab8282612de2565b6000828152600160205260409020610db59082612e47565b60006116378383612e5c565b6000610795825490565b6002546040517f60c2050000000000000000000000000000000000000000000000000000000000815260048101839052600160a060020a03909116906360c2050090602401600060405180830381600087803b15801561283857600080fd5b505af115801561284c573d6000803e3d6000fd5b50505060009182525060046020526040902060019055565b6000818152600760205260408120805461287d90613baa565b151590506128b357600082815260066020526040812080549091906128a4576128a4613c50565b906000526020600020016128c2565b60008281526007602052604090205b80546128cd90613baa565b80601f01602080910402602001604051908101604052809291908181526020018280546128f990613baa565b80156129465780601f1061291b57610100808354040283529160200191612946565b820191906000526020600020905b81548152906001019060200180831161292957829003601f168201915b50505050509050600060086000848152602001908152602001600020826040516129709190613c1c565b90815260405190819003602001902054600160a060020a031690508060005b6002546040517fb77ff41100000000000000000000000000000000000000000000000000000000815260048101879052600160a060020a039091169063b77ff41190602401602060405180830381865afa1580156129f1573d6000803e3d6000fd5b505050506040513d601f19601f82011682018060405250810190612a159190613e43565b811015612c05576000612a29826001613c38565b6002546040517ff50432540000000000000000000000000000000000000000000000000000000081526004810189905260248101839052919250600091600160a060020a039091169063f504325490604401602060405180830381865afa158015612a98573d6000803e3d6000fd5b505050506040513d601f19601f82011682018060405250810190612abc9190613ea6565b6040517fe15b3ad0000000000000000000000000000000000000000000000000000000008152909150600160a060020a0385169063e15b3ad090612b089084908b908b90600401613e5c565b602060405180830381865afa158015612b25573d6000803e3d6000fd5b505050506040513d601f19601f82011682018060405250810190612b499190613e84565b15612bce576040517f98bd7572000000000000000000000000000000000000000000000000000000008152600160a060020a038516906398bd757290612b979084908b908b90600401613e5c565b600060405180830381600087803b158015612bb157600080fd5b505af1158015612bc5573d6000803e3d6000fd5b50505050612bf0565b6000878152600d60209081526040822080546001810182559083529120018290555b50508080612bfd90613c01565b91505061298f565b50505060009182525060046020526040902060029055565b6000805b8251811015612d25576000848152600860205260408120845160019450859084908110612c5057612c50613c50565b6020026020010151600060028110612c6a57612c6a613c50565b6020020151604051612c7c9190613c1c565b90815260405190819003602001902054600160a060020a03161480612d05575060008481526008602052604081208451859084908110612cbe57612cbe613c50565b6020026020010151600160028110612cd857612cd8613c50565b6020020151604051612cea9190613c1c565b90815260405190819003602001902054600160a060020a0316145b15612d135760009150612d25565b80612d1d81613c01565b915050612c21565b5092915050565b6000818152600183016020526040812054612d7357508154600181810184556000848152602080822090930184905584548482528286019093526040902091909155610795565b506000610795565b612d85828261163e565b610d3f57612d9d81600160a060020a03166014612e86565b612da8836020612e86565b604051602001612db9929190613ec3565b60408051601f198184030181529082905260e560020a62461bcd0282526108d6916004016134ce565b612dec828261163e565b15610d3f57600082815260208181526040808320600160a060020a0385168085529252808320805460ff1916905551339285917ff6391f5c32d9c69d2a47ea670b442974b53935d1edc7fd64eb21e047a839171b9190a45050565b600061163783600160a060020a038416613088565b6000826000018281548110612e7357612e73613c50565b9060005260206000200154905092915050565b60606000612e95836002613d3a565b612ea0906002613c38565b67ffffffffffffffff811115612eb857612eb861331c565b6040519080825280601f01601f191660200182016040528015612ee2576020820181803683370190505b5090507f300000000000000000000000000000000000000000000000000000000000000081600081518110612f1957612f19613c50565b6020010190600160f860020a031916908160001a9053507f780000000000000000000000000000000000000000000000000000000000000081600181518110612f6457612f64613c50565b6020010190600160f860020a031916908160001a9053506000612f88846002613d3a565b612f93906001613c38565b90505b6001811115613036577f303132333435363738396162636465660000000000000000000000000000000085600f1660108110612fd457612fd4613c50565b1a7f01000000000000000000000000000000000000000000000000000000000000000282828151811061300957613009613c50565b6020010190600160f860020a031916908160001a90535060109094049361302f81613f44565b9050612f96565b5083156116375760405160e560020a62461bcd02815260206004820181905260248201527f537472696e67733a20686578206c656e67746820696e73756666696369656e7460448201526064016108d6565b600081815260018301602052604081205480156131715760006130ac600183613c69565b85549091506000906130c090600190613c69565b90508181146131255760008660000182815481106130e0576130e0613c50565b906000526020600020015490508087600001848154811061310357613103613c50565b6000918252602080832090910192909255918252600188019052604090208390555b855486908061313657613136613f5b565b600190038181906000526020600020016000905590558560010160008681526020019081526020016000206000905560019350505050610795565b6000915050610795565b8280548282559060005260206000209081019282156131c8579160200282015b828111156131c857825180516131b89184916020909101906131d4565b509160200191906001019061319b565b50610e07929150613254565b8280546131e090613baa565b90600052602060002090601f0160209004810192826132025760008555613248565b82601f1061321b57805160ff1916838001178555613248565b82800160010185558215613248579182015b8281111561324857825182559160200191906001019061322d565b50610e07929150613271565b80821115610e075760006132688282613286565b50600101613254565b5b80821115610e075760008155600101613272565b50805461329290613baa565b6000825580601f106132a2575050565b601f01602090049060005260206000209081019061161b9190613271565b6000602082840312156132d257600080fd5b8135600160e060020a03198116811461163757600080fd5b600160a060020a038116811461161b57600080fd5b60006020828403121561331157600080fd5b8135611637816132ea565b60e060020a634e487b7102600052604160045260246000fd5b6040805190810167ffffffffffffffff811182821017156133585761335861331c565b60405290565b604051601f8201601f1916810167ffffffffffffffff811182821017156133875761338761331c565b604052919050565b600067ffffffffffffffff8211156133a9576133a961331c565b50601f01601f191660200190565b600082601f8301126133c857600080fd5b81356133db6133d68261338f565b61335e565b8181528460208386010111156133f057600080fd5b816020850160208301376000918101602001919091529392505050565b6000806040838503121561342057600080fd5b82359150602083013567ffffffffffffffff81111561343e57600080fd5b61344a858286016133b7565b9150509250929050565b6000806040838503121561346757600080fd5b50508035926020909101359150565b60005b83811015613491578181015183820152602001613479565b83811115610d8a5750506000910152565b600081518084526134ba816020860160208601613476565b601f01601f19169290920160200192915050565b60208152600061163760208301846134a2565b600067ffffffffffffffff8211156134fb576134fb61331c565b5060209081020190565b600082601f83011261351657600080fd5b813560206135266133d6836134e1565b8281529181028401810191818101908684111561354257600080fd5b8286015b8481101561358257803567ffffffffffffffff8111156135665760008081fd5b6135748986838b01016133b7565b845250918301918301613546565b509695505050505050565b600082601f83011261359e57600080fd5b813560206135ae6133d6836134e1565b828152918102840181019181810190868411156135ca57600080fd5b8286015b8481101561358257803583529183019183016135ce565b600080600080600060a086880312156135fd57600080fd5b85359450602086013567ffffffffffffffff8082111561361c57600080fd5b61362889838a01613505565b9550604088013591508082111561363e57600080fd5b61364a89838a0161358d565b9450606088013591508082111561366057600080fd5b61366c89838a01613505565b9350608088013591508082111561368257600080fd5b5061368f8882890161358d565b9150509295509295909350565b600060208083018184528085518083526040860191506040848202870101925083870160005b828110156136f057603f198886030184526136de8583516134a2565b945092850192908501906001016136c2565b5092979650505050505050565b60006020828403121561370f57600080fd5b5035919050565b600082601f83011261372757600080fd5b813560206137376133d6836134e1565b8281529181028401810191818101908684111561375357600080fd5b8286015b8481101561358257803561376a816132ea565b8352918301918301613757565b6000806000806080858703121561378d57600080fd5b84359350602085013567ffffffffffffffff808211156137ac57600080fd5b6137b888838901613716565b945060408701359150808211156137ce57600080fd5b506137db8782880161358d565b949793965093946060013593505050565b60008060006060848603121561380157600080fd5b833567ffffffffffffffff8082111561381957600080fd5b61382587838801613716565b9450602086013591508082111561383b57600080fd5b5061384886828701613505565b925050604084013590509250925092565b6000806040838503121561386c57600080fd5b82359150602083013561387e816132ea565b809150509250929050565b60008060006060848603121561389e57600080fd5b83359250602084013567ffffffffffffffff8111156138bc57600080fd5b613848868287016133b7565b6000806000606084860312156138dd57600080fd5b8335925060208401356138ef816132ea565b929592945050506040919091013590565b6000806040838503121561391357600080fd5b823567ffffffffffffffff81111561392a57600080fd5b613936858286016133b7565b95602094909401359450505050565b6000806040838503121561395857600080fd5b8235613963816132ea565b9150602083013561387e816132ea565b6020808252825182820181905260009190848201906040850190845b818110156139ab5783518352928401929184019160010161398f565b50909695505050505050565b600080600080608085870312156139cd57600080fd5b84356139d8816132ea565b935060208501356139e8816132ea565b9250604085013567ffffffffffffffff80821115613a0557600080fd5b613a1188838901613716565b93506060870135915080821115613a2757600080fd5b50613a3487828801613505565b91505092959194509250565b60008060408385031215613a5357600080fd5b8235915060208084013567ffffffffffffffff80821115613a7357600080fd5b818601915086601f830112613a8757600080fd5b8135613a956133d6826134e1565b81815290840283018401908481019089831115613ab157600080fd5b8585015b83811015613b40578481351115613acb57600080fd5b803586018b603f820112613ade57600080fd5b613ae6613335565b808d606084011115613af757600080fd5b8983015b60608401811015613b30578881351115613b1457600080fd5b613b238f8c83358701016133b7565b8352918a01918a01613afb565b5085525050918601918601613ab5565b508096505050505050509250929050565b600080600060608486031215613b6657600080fd5b833592506020840135613b78816132ea565b9150604084013567ffffffffffffffff811115613b9457600080fd5b613ba0868287016133b7565b9150509250925092565b600281046001821680613bbe57607f821691505b60208210811415613be25760e060020a634e487b7102600052602260045260246000fd5b50919050565b60e060020a634e487b7102600052601160045260246000fd5b6000600019821415613c1557613c15613be8565b5060010190565b60008251613c2e818460208701613476565b9190910192915050565b60008219821115613c4b57613c4b613be8565b500190565b60e060020a634e487b7102600052603260045260246000fd5b600082821015613c7b57613c7b613be8565b500390565b60208082526025908201527f616464726573736573202620616c696173657320646966666572656e74206c6560408201527f6e67746873000000000000000000000000000000000000000000000000000000606082015260800190565b60208082526024908201527f47616d65204d6173746572206f7220466163746f727920726f6c65207265717560408201527f6972656400000000000000000000000000000000000000000000000000000000606082015260800190565b6000816000190483118215151615613d5457613d54613be8565b500290565b60006020808385031215613d6c57600080fd5b825167ffffffffffffffff80821115613d8457600080fd5b818501915085601f830112613d9857600080fd5b8151613da66133d6826134e1565b81815290840283018401908481019088831115613dc257600080fd5b8585015b83811015613e3657805185811115613dde5760008081fd5b8601603f81018b13613df05760008081fd5b878101516040613e026133d68361338f565b8281528d82848601011115613e175760008081fd5b613e26838c8301848701613476565b8652505050918601918601613dc6565b5098975050505050505050565b600060208284031215613e5557600080fd5b5051919050565b600160a060020a038416815282602082015260606040820152600061209860608301846134a2565b600060208284031215613e9657600080fd5b8151801515811461163757600080fd5b600060208284031215613eb857600080fd5b8151611637816132ea565b7f416363657373436f6e74726f6c3a206163636f756e7420000000000000000000815260008351613efb816017850160208801613476565b7f206973206d697373696e6720726f6c65200000000000000000000000000000006017918401918201528351613f38816028840160208801613476565b01602801949350505050565b600081613f5357613f53613be8565b506000190190565b60e060020a634e487b7102600052603160045260246000fdfe72b06b67826def9fabb513b23f7e5eb74f7ece26d25dad4006546ecf4a13763d1d93c87416ca7b54f0fb8323167b72760e8e2ec93d48660953897a150f97a8b4dfbefbf47cfe66b701d8cfdbce1de81c821590819cb07e71cb01b6602fb0ee2780e2196015fc06a9d891759f8e4f51eb314ef5e9ea068528a8ed0063b87759f0a2646970667358221220ff23e5b0e3ee033556e907e70aec076672c022bd2ddf19bc8273509d2d2ddf0764736f6c634300080b0033",
  "immutableReferences": {},
  "source": "// SPDX-License-Identifier: GPL-3.0\npragma solidity >=0.7.0 <0.9.0;\n\nimport \"../GameBoard.sol\";\nimport \"../libraries/XYCoords.sol\";\n\ncontract HexGrid is GameBoard {\n    uint256 public gridWidth;\n    uint256 public gridHeight;\n    address public zoneAddress;\n\n    string[] public zoneAliases;\n\n    constructor(\n        address adminAddress,\n        uint256 _gridWidth,\n        uint256 _gridHeight,\n        address _zoneAddress\n    ) GameBoard(adminAddress) {\n        gridWidth = _gridWidth;\n        gridHeight = _gridHeight;\n        zoneAddress = _zoneAddress;\n    }\n\n    function createGrid() public virtual onlyFactoryGM {\n        if (zoneAliases.length == 0) {\n            address[] memory addresses = new address[](gridWidth * gridHeight);\n\n            zoneAliases = XYCoordinates.coordinates(gridHeight, gridWidth);\n\n            for (uint256 i = 0; i < addresses.length; i++) {\n                addresses[i] = zoneAddress;\n            }\n            // game ID 0 will be prototype for rest of games\n            _addZones(addresses, zoneAliases, 0);\n        }\n    }\n\n    function getZoneAliases() public view returns (string[] memory) {\n        return zoneAliases;\n    }\n\n    function getInputs(uint256 gameID, string memory _zoneAlias)\n        public\n        view\n        override\n        returns (string[] memory zoneInputs)\n    {\n        string[] memory gameInputs = playZoneInputs[gameID][_zoneAlias];\n        string[] memory defaultInputs = playZoneInputs[0][_zoneAlias];\n        if (gameInputs.length > 0) {\n            string[] memory aliases = new string[](\n                gameInputs.length + defaultInputs.length\n            );\n            for (uint256 i = 0; i < aliases.length; i++) {\n                if (i < defaultInputs.length) {\n                    aliases[i] = defaultInputs[i];\n                } else {\n                    aliases[i] = gameInputs[i - defaultInputs.length];\n                }\n                zoneInputs = aliases;\n            }\n        } else {\n            zoneInputs = defaultInputs;\n        }\n    }\n\n    function getOutputs(uint256 gameID, string memory _zoneAlias)\n        public\n        view\n        override\n        returns (string[] memory zoneOutputs)\n    {\n        string[] memory gameOutputs = playZoneOutputs[gameID][_zoneAlias];\n        string[] memory defaultOutputs = playZoneOutputs[0][_zoneAlias];\n        if (gameOutputs.length > 0) {\n            string[] memory aliases = new string[](\n                gameOutputs.length + defaultOutputs.length\n            );\n            for (uint256 i = 0; i < aliases.length; i++) {\n                if (i < defaultOutputs.length) {\n                    aliases[i] = defaultOutputs[i];\n                } else {\n                    aliases[i] = gameOutputs[i - defaultOutputs.length];\n                }\n                zoneOutputs = aliases;\n            }\n        } else {\n            zoneOutputs = defaultOutputs;\n        }\n    }\n}\n",
  "sourcePath": "@luckymachines/game-core/contracts/src/v0.0/custom_boards/HexGrid.sol",
  "compiler": {
    "name": "solc",
    "version": "0.8.11+commit.d7f03943.Emscripten.clang"
  },
  "schemaVersion": "3.4.2",
  "updatedAt": "2022-05-26T21:13:33.976Z",
  "devdoc": {
    "kind": "dev",
    "methods": {
      "getRoleAdmin(bytes32)": {
        "details": "Returns the admin role that controls `role`. See {grantRole} and {revokeRole}. To change a role's admin, use {_setRoleAdmin}."
      },
      "getRoleMember(bytes32,uint256)": {
        "details": "Returns one of the accounts that have `role`. `index` must be a value between 0 and {getRoleMemberCount}, non-inclusive. Role bearers are not sorted in any particular way, and their ordering may change at any point. WARNING: When using {getRoleMember} and {getRoleMemberCount}, make sure you perform all queries on the same block. See the following https://forum.openzeppelin.com/t/iterating-over-elements-on-enumerableset-in-openzeppelin-contracts/2296[forum post] for more information."
      },
      "getRoleMemberCount(bytes32)": {
        "details": "Returns the number of accounts that have `role`. Can be used together with {getRoleMember} to enumerate all bearers of a role."
      },
      "grantRole(bytes32,address)": {
        "details": "Grants `role` to `account`. If `account` had not been already granted `role`, emits a {RoleGranted} event. Requirements: - the caller must have ``role``'s admin role."
      },
      "hasRole(bytes32,address)": {
        "details": "Returns `true` if `account` has been granted `role`."
      },
      "renounceRole(bytes32,address)": {
        "details": "Revokes `role` from the calling account. Roles are often managed via {grantRole} and {revokeRole}: this function's purpose is to provide a mechanism for accounts to lose their privileges if they are compromised (such as when a trusted device is misplaced). If the calling account had been revoked `role`, emits a {RoleRevoked} event. Requirements: - the caller must be `account`."
      },
      "revokeRole(bytes32,address)": {
        "details": "Revokes `role` from `account`. If `account` had been granted `role`, emits a {RoleRevoked} event. Requirements: - the caller must have ``role``'s admin role."
      },
      "supportsInterface(bytes4)": {
        "details": "See {IERC165-supportsInterface}."
      }
    },
    "version": 1
  },
  "userdoc": {
    "kind": "user",
    "methods": {},
    "version": 1
  }
}