{
  "contractName": "HexGrid",
  "abi": [
    {
      "inputs": [
        {
          "internalType": "address",
          "name": "adminAddress",
          "type": "address"
        },
        {
          "internalType": "uint256",
          "name": "_gridWidth",
          "type": "uint256"
        },
        {
          "internalType": "uint256",
          "name": "_gridHeight",
          "type": "uint256"
        },
        {
          "internalType": "address",
          "name": "_zoneAddress",
          "type": "address"
        }
      ],
      "stateMutability": "nonpayable",
      "type": "constructor"
    },
    {
      "anonymous": false,
      "inputs": [
        {
          "indexed": true,
          "internalType": "bytes32",
          "name": "role",
          "type": "bytes32"
        },
        {
          "indexed": true,
          "internalType": "bytes32",
          "name": "previousAdminRole",
          "type": "bytes32"
        },
        {
          "indexed": true,
          "internalType": "bytes32",
          "name": "newAdminRole",
          "type": "bytes32"
        }
      ],
      "name": "RoleAdminChanged",
      "type": "event"
    },
    {
      "anonymous": false,
      "inputs": [
        {
          "indexed": true,
          "internalType": "bytes32",
          "name": "role",
          "type": "bytes32"
        },
        {
          "indexed": true,
          "internalType": "address",
          "name": "account",
          "type": "address"
        },
        {
          "indexed": true,
          "internalType": "address",
          "name": "sender",
          "type": "address"
        }
      ],
      "name": "RoleGranted",
      "type": "event"
    },
    {
      "anonymous": false,
      "inputs": [
        {
          "indexed": true,
          "internalType": "bytes32",
          "name": "role",
          "type": "bytes32"
        },
        {
          "indexed": true,
          "internalType": "address",
          "name": "account",
          "type": "address"
        },
        {
          "indexed": true,
          "internalType": "address",
          "name": "sender",
          "type": "address"
        }
      ],
      "name": "RoleRevoked",
      "type": "event"
    },
    {
      "inputs": [],
      "name": "DEFAULT_ADMIN_ROLE",
      "outputs": [
        {
          "internalType": "bytes32",
          "name": "",
          "type": "bytes32"
        }
      ],
      "stateMutability": "view",
      "type": "function"
    },
    {
      "inputs": [],
      "name": "FACTORY_ROLE",
      "outputs": [
        {
          "internalType": "bytes32",
          "name": "",
          "type": "bytes32"
        }
      ],
      "stateMutability": "view",
      "type": "function"
    },
    {
      "inputs": [],
      "name": "GAME_KEEPER_ROLE",
      "outputs": [
        {
          "internalType": "bytes32",
          "name": "",
          "type": "bytes32"
        }
      ],
      "stateMutability": "view",
      "type": "function"
    },
    {
      "inputs": [],
      "name": "GAME_MASTER_ROLE",
      "outputs": [
        {
          "internalType": "bytes32",
          "name": "",
          "type": "bytes32"
        }
      ],
      "stateMutability": "view",
      "type": "function"
    },
    {
      "inputs": [],
      "name": "MAX_BATCH_SIZE",
      "outputs": [
        {
          "internalType": "uint256",
          "name": "",
          "type": "uint256"
        }
      ],
      "stateMutability": "view",
      "type": "function"
    },
    {
      "inputs": [],
      "name": "PLAY_ZONE_ROLE",
      "outputs": [
        {
          "internalType": "bytes32",
          "name": "",
          "type": "bytes32"
        }
      ],
      "stateMutability": "view",
      "type": "function"
    },
    {
      "inputs": [
        {
          "internalType": "uint256",
          "name": "transitID",
          "type": "uint256"
        }
      ],
      "name": "_progressTransit",
      "outputs": [],
      "stateMutability": "nonpayable",
      "type": "function"
    },
    {
      "inputs": [
        {
          "internalType": "address",
          "name": "factoryAddress",
          "type": "address"
        }
      ],
      "name": "addFactory",
      "outputs": [],
      "stateMutability": "nonpayable",
      "type": "function"
    },
    {
      "inputs": [
        {
          "internalType": "address",
          "name": "keeperAddress",
          "type": "address"
        }
      ],
      "name": "addKeeper",
      "outputs": [],
      "stateMutability": "nonpayable",
      "type": "function"
    },
    {
      "inputs": [
        {
          "internalType": "uint256",
          "name": "gameID",
          "type": "uint256"
        },
        {
          "internalType": "string[2][]",
          "name": "connections",
          "type": "string[2][]"
        }
      ],
      "name": "addZoneConnections",
      "outputs": [],
      "stateMutability": "nonpayable",
      "type": "function"
    },
    {
      "inputs": [
        {
          "internalType": "address[]",
          "name": "playZoneAddresses",
          "type": "address[]"
        },
        {
          "internalType": "string[]",
          "name": "zoneAliases",
          "type": "string[]"
        },
        {
          "internalType": "uint256",
          "name": "gameID",
          "type": "uint256"
        }
      ],
      "name": "addZones",
      "outputs": [],
      "stateMutability": "nonpayable",
      "type": "function"
    },
    {
      "inputs": [],
      "name": "cleanQueue",
      "outputs": [],
      "stateMutability": "nonpayable",
      "type": "function"
    },
    {
      "inputs": [
        {
          "internalType": "address",
          "name": "_playerRegistry",
          "type": "address"
        },
        {
          "internalType": "address",
          "name": "_gameRegistry",
          "type": "address"
        }
      ],
      "name": "createGame",
      "outputs": [
        {
          "internalType": "uint256",
          "name": "gameID",
          "type": "uint256"
        }
      ],
      "stateMutability": "nonpayable",
      "type": "function"
    },
    {
      "inputs": [
        {
          "internalType": "address",
          "name": "_playerRegistry",
          "type": "address"
        },
        {
          "internalType": "address",
          "name": "_gameRegistry",
          "type": "address"
        },
        {
          "internalType": "address[]",
          "name": "playZoneAddresses",
          "type": "address[]"
        },
        {
          "internalType": "string[]",
          "name": "zoneAliases",
          "type": "string[]"
        }
      ],
      "name": "createGame",
      "outputs": [
        {
          "internalType": "uint256",
          "name": "gameID",
          "type": "uint256"
        }
      ],
      "stateMutability": "nonpayable",
      "type": "function"
    },
    {
      "inputs": [
        {
          "internalType": "uint256",
          "name": "",
          "type": "uint256"
        },
        {
          "internalType": "uint256",
          "name": "",
          "type": "uint256"
        }
      ],
      "name": "currentPlayZone",
      "outputs": [
        {
          "internalType": "string",
          "name": "",
          "type": "string"
        }
      ],
      "stateMutability": "view",
      "type": "function"
    },
    {
      "inputs": [
        {
          "internalType": "uint256",
          "name": "",
          "type": "uint256"
        },
        {
          "internalType": "uint256",
          "name": "",
          "type": "uint256"
        }
      ],
      "name": "entryQueue",
      "outputs": [
        {
          "internalType": "uint256",
          "name": "",
          "type": "uint256"
        }
      ],
      "stateMutability": "view",
      "type": "function"
    },
    {
      "inputs": [
        {
          "internalType": "uint256",
          "name": "gameID",
          "type": "uint256"
        },
        {
          "internalType": "address",
          "name": "playerAddress",
          "type": "address"
        },
        {
          "internalType": "uint256",
          "name": "pathIndex",
          "type": "uint256"
        }
      ],
      "name": "exitToPath",
      "outputs": [
        {
          "internalType": "bool",
          "name": "exitSuccess",
          "type": "bool"
        }
      ],
      "stateMutability": "nonpayable",
      "type": "function"
    },
    {
      "inputs": [
        {
          "internalType": "uint256",
          "name": "",
          "type": "uint256"
        }
      ],
      "name": "gameState",
      "outputs": [
        {
          "internalType": "uint256",
          "name": "",
          "type": "uint256"
        }
      ],
      "stateMutability": "view",
      "type": "function"
    },
    {
      "inputs": [
        {
          "internalType": "uint256",
          "name": "gameID",
          "type": "uint256"
        },
        {
          "internalType": "string",
          "name": "_zoneAlias",
          "type": "string"
        }
      ],
      "name": "getInputs",
      "outputs": [
        {
          "internalType": "string[]",
          "name": "zoneInputs",
          "type": "string[]"
        }
      ],
      "stateMutability": "view",
      "type": "function"
    },
    {
      "inputs": [
        {
          "internalType": "uint256",
          "name": "gameID",
          "type": "uint256"
        },
        {
          "internalType": "string",
          "name": "_zoneAlias",
          "type": "string"
        }
      ],
      "name": "getOutputs",
      "outputs": [
        {
          "internalType": "string[]",
          "name": "zoneOutputs",
          "type": "string[]"
        }
      ],
      "stateMutability": "view",
      "type": "function"
    },
    {
      "inputs": [
        {
          "internalType": "uint256",
          "name": "gameID",
          "type": "uint256"
        }
      ],
      "name": "getOverflowQueue",
      "outputs": [
        {
          "internalType": "uint256[]",
          "name": "",
          "type": "uint256[]"
        }
      ],
      "stateMutability": "view",
      "type": "function"
    },
    {
      "inputs": [
        {
          "internalType": "uint256",
          "name": "gameID",
          "type": "uint256"
        }
      ],
      "name": "getPlayZones",
      "outputs": [
        {
          "internalType": "string[]",
          "name": "",
          "type": "string[]"
        }
      ],
      "stateMutability": "view",
      "type": "function"
    },
    {
      "inputs": [
        {
          "internalType": "bytes32",
          "name": "role",
          "type": "bytes32"
        }
      ],
      "name": "getRoleAdmin",
      "outputs": [
        {
          "internalType": "bytes32",
          "name": "",
          "type": "bytes32"
        }
      ],
      "stateMutability": "view",
      "type": "function"
    },
    {
      "inputs": [
        {
          "internalType": "bytes32",
          "name": "role",
          "type": "bytes32"
        },
        {
          "internalType": "uint256",
          "name": "index",
          "type": "uint256"
        }
      ],
      "name": "getRoleMember",
      "outputs": [
        {
          "internalType": "address",
          "name": "",
          "type": "address"
        }
      ],
      "stateMutability": "view",
      "type": "function"
    },
    {
      "inputs": [
        {
          "internalType": "bytes32",
          "name": "role",
          "type": "bytes32"
        }
      ],
      "name": "getRoleMemberCount",
      "outputs": [
        {
          "internalType": "uint256",
          "name": "",
          "type": "uint256"
        }
      ],
      "stateMutability": "view",
      "type": "function"
    },
    {
      "inputs": [
        {
          "internalType": "bytes32",
          "name": "role",
          "type": "bytes32"
        },
        {
          "internalType": "address",
          "name": "account",
          "type": "address"
        }
      ],
      "name": "grantRole",
      "outputs": [],
      "stateMutability": "nonpayable",
      "type": "function"
    },
    {
      "inputs": [],
      "name": "gridHeight",
      "outputs": [
        {
          "internalType": "uint256",
          "name": "",
          "type": "uint256"
        }
      ],
      "stateMutability": "view",
      "type": "function"
    },
    {
      "inputs": [],
      "name": "gridWidth",
      "outputs": [
        {
          "internalType": "uint256",
          "name": "",
          "type": "uint256"
        }
      ],
      "stateMutability": "view",
      "type": "function"
    },
    {
      "inputs": [
        {
          "internalType": "bytes32",
          "name": "role",
          "type": "bytes32"
        },
        {
          "internalType": "address",
          "name": "account",
          "type": "address"
        }
      ],
      "name": "hasRole",
      "outputs": [
        {
          "internalType": "bool",
          "name": "",
          "type": "bool"
        }
      ],
      "stateMutability": "view",
      "type": "function"
    },
    {
      "inputs": [
        {
          "internalType": "address",
          "name": "factoryAddress",
          "type": "address"
        }
      ],
      "name": "isFactory",
      "outputs": [
        {
          "internalType": "bool",
          "name": "factoryIsAuthorized",
          "type": "bool"
        }
      ],
      "stateMutability": "view",
      "type": "function"
    },
    {
      "inputs": [
        {
          "internalType": "uint256",
          "name": "",
          "type": "uint256"
        }
      ],
      "name": "lastEntryPlayerID",
      "outputs": [
        {
          "internalType": "uint256",
          "name": "",
          "type": "uint256"
        }
      ],
      "stateMutability": "view",
      "type": "function"
    },
    {
      "inputs": [],
      "name": "needsUpdate",
      "outputs": [
        {
          "internalType": "bool",
          "name": "doesNeedUpdate",
          "type": "bool"
        }
      ],
      "stateMutability": "view",
      "type": "function"
    },
    {
      "inputs": [
        {
          "internalType": "uint256",
          "name": "",
          "type": "uint256"
        },
        {
          "internalType": "string",
          "name": "",
          "type": "string"
        },
        {
          "internalType": "uint256",
          "name": "",
          "type": "uint256"
        }
      ],
      "name": "playZoneInputs",
      "outputs": [
        {
          "internalType": "string",
          "name": "",
          "type": "string"
        }
      ],
      "stateMutability": "view",
      "type": "function"
    },
    {
      "inputs": [
        {
          "internalType": "uint256",
          "name": "",
          "type": "uint256"
        },
        {
          "internalType": "string",
          "name": "",
          "type": "string"
        },
        {
          "internalType": "uint256",
          "name": "",
          "type": "uint256"
        }
      ],
      "name": "playZoneOutputs",
      "outputs": [
        {
          "internalType": "string",
          "name": "",
          "type": "string"
        }
      ],
      "stateMutability": "view",
      "type": "function"
    },
    {
      "inputs": [
        {
          "internalType": "uint256",
          "name": "",
          "type": "uint256"
        },
        {
          "internalType": "uint256",
          "name": "",
          "type": "uint256"
        }
      ],
      "name": "playZones",
      "outputs": [
        {
          "internalType": "string",
          "name": "",
          "type": "string"
        }
      ],
      "stateMutability": "view",
      "type": "function"
    },
    {
      "inputs": [
        {
          "internalType": "uint256",
          "name": "gameID",
          "type": "uint256"
        },
        {
          "internalType": "address",
          "name": "playerAddress",
          "type": "address"
        },
        {
          "internalType": "string",
          "name": "_zoneAlias",
          "type": "string"
        }
      ],
      "name": "playerEnteredZone",
      "outputs": [],
      "stateMutability": "nonpayable",
      "type": "function"
    },
    {
      "inputs": [
        {
          "internalType": "uint256",
          "name": "",
          "type": "uint256"
        }
      ],
      "name": "playerRegistry",
      "outputs": [
        {
          "internalType": "uint256",
          "name": "",
          "type": "uint256"
        }
      ],
      "stateMutability": "view",
      "type": "function"
    },
    {
      "inputs": [],
      "name": "prAddress",
      "outputs": [
        {
          "internalType": "address",
          "name": "",
          "type": "address"
        }
      ],
      "stateMutability": "view",
      "type": "function"
    },
    {
      "inputs": [
        {
          "internalType": "uint256",
          "name": "gameID",
          "type": "uint256"
        },
        {
          "internalType": "address[]",
          "name": "playerAddresses",
          "type": "address[]"
        },
        {
          "internalType": "uint256[]",
          "name": "pathIndices",
          "type": "uint256[]"
        },
        {
          "internalType": "uint256",
          "name": "transitID",
          "type": "uint256"
        }
      ],
      "name": "queueExitToPaths",
      "outputs": [],
      "stateMutability": "nonpayable",
      "type": "function"
    },
    {
      "inputs": [
        {
          "internalType": "uint256",
          "name": "gameID",
          "type": "uint256"
        },
        {
          "internalType": "string[]",
          "name": "inputAliases",
          "type": "string[]"
        },
        {
          "internalType": "uint256[]",
          "name": "inputs",
          "type": "uint256[]"
        },
        {
          "internalType": "string[]",
          "name": "outputAliases",
          "type": "string[]"
        },
        {
          "internalType": "uint256[]",
          "name": "outputs",
          "type": "uint256[]"
        }
      ],
      "name": "removeZoneConnections",
      "outputs": [],
      "stateMutability": "nonpayable",
      "type": "function"
    },
    {
      "inputs": [
        {
          "internalType": "bytes32",
          "name": "role",
          "type": "bytes32"
        },
        {
          "internalType": "address",
          "name": "account",
          "type": "address"
        }
      ],
      "name": "renounceRole",
      "outputs": [],
      "stateMutability": "nonpayable",
      "type": "function"
    },
    {
      "inputs": [
        {
          "internalType": "bytes32",
          "name": "role",
          "type": "bytes32"
        },
        {
          "internalType": "address",
          "name": "account",
          "type": "address"
        }
      ],
      "name": "revokeRole",
      "outputs": [],
      "stateMutability": "nonpayable",
      "type": "function"
    },
    {
      "inputs": [],
      "name": "runUpdate",
      "outputs": [],
      "stateMutability": "nonpayable",
      "type": "function"
    },
    {
      "inputs": [
        {
          "internalType": "uint256",
          "name": "gameID",
          "type": "uint256"
        }
      ],
      "name": "startGame",
      "outputs": [],
      "stateMutability": "nonpayable",
      "type": "function"
    },
    {
      "inputs": [
        {
          "internalType": "uint256",
          "name": "transitID",
          "type": "uint256"
        }
      ],
      "name": "startTransit",
      "outputs": [],
      "stateMutability": "nonpayable",
      "type": "function"
    },
    {
      "inputs": [
        {
          "internalType": "bytes4",
          "name": "interfaceId",
          "type": "bytes4"
        }
      ],
      "name": "supportsInterface",
      "outputs": [
        {
          "internalType": "bool",
          "name": "",
          "type": "bool"
        }
      ],
      "stateMutability": "view",
      "type": "function"
    },
    {
      "inputs": [],
      "name": "zoneAddress",
      "outputs": [
        {
          "internalType": "address",
          "name": "",
          "type": "address"
        }
      ],
      "stateMutability": "view",
      "type": "function"
    },
    {
      "inputs": [
        {
          "internalType": "uint256",
          "name": "",
          "type": "uint256"
        },
        {
          "internalType": "string",
          "name": "",
          "type": "string"
        }
      ],
      "name": "zoneAlias",
      "outputs": [
        {
          "internalType": "address",
          "name": "",
          "type": "address"
        }
      ],
      "stateMutability": "view",
      "type": "function"
    },
    {
      "inputs": [
        {
          "internalType": "uint256",
          "name": "gameID",
          "type": "uint256"
        }
      ],
      "name": "createGrid",
      "outputs": [],
      "stateMutability": "nonpayable",
      "type": "function"
    },
    {
      "inputs": [
        {
          "internalType": "uint256",
          "name": "gameID",
          "type": "uint256"
        }
      ],
      "name": "connectZones",
      "outputs": [],
      "stateMutability": "nonpayable",
      "type": "function"
    }
  ],
  "bytecode": "0x60806040523480156200001157600080fd5b5060405162005b4438038062005b448339818101604052810190620000379190620003c5565b836200004d6000801b826200008a60201b60201c565b6200007f7f1d93c87416ca7b54f0fb8323167b72760e8e2ec93d48660953897a150f97a8b4826200008a60201b60201c565b505050505062000437565b6200009c8282620000a060201b60201c565b5050565b620000b78282620000e860201b6200281c1760201c565b620000e38160016000858152602001908152602001600020620001d960201b620028fc1790919060201c565b505050565b620000fa82826200021160201b60201c565b620001d557600160008084815260200190815260200160002060000160008373ffffffffffffffffffffffffffffffffffffffff1673ffffffffffffffffffffffffffffffffffffffff16815260200190815260200160002060006101000a81548160ff0219169083151502179055506200017a6200027b60201b60201c565b73ffffffffffffffffffffffffffffffffffffffff168173ffffffffffffffffffffffffffffffffffffffff16837f2f8788117e7eff1d82e926ec794901d17c78024a50270940304540a733656f0d60405160405180910390a45b5050565b600062000209836000018373ffffffffffffffffffffffffffffffffffffffff1660001b6200028360201b60201c565b905092915050565b600080600084815260200190815260200160002060000160008373ffffffffffffffffffffffffffffffffffffffff1673ffffffffffffffffffffffffffffffffffffffff16815260200190815260200160002060009054906101000a900460ff16905092915050565b600033905090565b6000620002978383620002fd60201b60201c565b620002f2578260000182908060018154018082558091505060019003906000526020600020016000909190919091505582600001805490508360010160008481526020019081526020016000208190555060019050620002f7565b600090505b92915050565b600080836001016000848152602001908152602001600020541415905092915050565b600080fd5b600073ffffffffffffffffffffffffffffffffffffffff82169050919050565b6000620003528262000325565b9050919050565b620003648162000345565b81146200037057600080fd5b50565b600081519050620003848162000359565b92915050565b6000819050919050565b6200039f816200038a565b8114620003ab57600080fd5b50565b600081519050620003bf8162000394565b92915050565b60008060008060808587031215620003e257620003e162000320565b5b6000620003f28782880162000373565b94505060206200040587828801620003ae565b93505060406200041887828801620003ae565b92505060606200042b8782880162000373565b91505092959194509250565b6156fd80620004476000396000f3fe608060405234801561001057600080fd5b50600436106102d65760003560e01c806391d1485411610182578063ca15c873116100e9578063d547741f116100a2578063e309203f1161007c578063e309203f1461098b578063e5ed1d59146109a9578063f643b8fd146109c5578063fa9f3438146109e1576102d6565b8063d547741f1461090f578063d75e79801461092b578063d91413ba1461095b576102d6565b8063ca15c87314610839578063cd1ec7f214610869578063cfdbf25414610887578063d1e18d26146108a5578063d2d6756b146108af578063d3fb7289146108df576102d6565b8063aab2aeb81161013b578063aab2aeb814610763578063ad1def1e14610793578063b2df0ca2146107b1578063b40c89df146107bb578063babdeefa146107eb578063c06dea4e1461081b576102d6565b806391d148541461067d5780639eb356cb146106ad5780639f6c4017146106dd578063a217fddf146106f9578063a4f9c9df14610717578063a6f979ff14610733576102d6565b806329ce1ec5116102415780634032b72b116101fa578063555c621e116101d4578063555c621e146105d15780636b6ec869146105ed5780637cc75d1c1461061d5780639010d07c1461064d576102d6565b80634032b72b146105555780634e0e1a3e1461057157806351709a73146105a1576102d6565b806329ce1ec5146104a95780632c47669a146104c55780632f2ff15d146104e1578063346c9409146104fd57806336568abe1461051b57806338b145df14610537576102d6565b8063153a759011610293578063153a7590146103b157806317d7e833146103e15780631900601814610411578063194f2a361461042d578063248a9ca31461045d578063296787561461048d576102d6565b806301ffc9a7146102db57806304a0fb171461030b5780630b197f2e146103295780630f04ba6714610347578063108c5e141461037757806314e9d90d14610395575b600080fd5b6102f560048036038101906102f09190613aba565b6109fd565b6040516103029190613b02565b60405180910390f35b610313610a77565b6040516103209190613b36565b60405180910390f35b610331610a9b565b60405161033e9190613b92565b60405180910390f35b610361600480360381019061035c9190613bd9565b610ac1565b60405161036e9190613b02565b60405180910390f35b61037f610af4565b60405161038c9190613c1f565b60405180910390f35b6103af60048036038101906103aa9190613c66565b610afa565b005b6103cb60048036038101906103c69190613dd9565b610ba5565b6040516103d89190613b92565b60405180910390f35b6103fb60048036038101906103f69190613e35565b610bfd565b6040516104089190613efd565b60405180910390f35b61042b600480360381019061042691906140c8565b610cb6565b005b61044760048036038101906104429190613dd9565b610de0565b60405161045491906142bf565b60405180910390f35b6104776004803603810190610472919061430d565b610ee9565b6040516104849190613b36565b60405180910390f35b6104a760048036038101906104a291906143fd565b610f08565b005b6104c360048036038101906104be9190613bd9565b610f39565b005b6104df60048036038101906104da919061449c565b610f74565b005b6104fb60048036038101906104f69190614527565b610ff3565b005b610505611014565b6040516105129190613b02565b60405180910390f35b61053560048036038101906105309190614527565b61106b565b005b61053f6110ee565b60405161054c9190613c1f565b60405180910390f35b61056f600480360381019061056a9190613bd9565b6110f4565b005b61058b60048036038101906105869190613c66565b61114c565b6040516105989190613c1f565b60405180910390f35b6105bb60048036038101906105b69190614567565b611164565b6040516105c89190613efd565b60405180910390f35b6105eb60048036038101906105e69190613c66565b611240565b005b61060760048036038101906106029190613dd9565b61146b565b60405161061491906142bf565b60405180910390f35b61063760048036038101906106329190613e35565b611574565b6040516106449190613c1f565b60405180910390f35b610667600480360381019061066291906145d6565b6115a5565b6040516106749190613b92565b60405180910390f35b61069760048036038101906106929190614527565b6115d4565b6040516106a49190613b02565b60405180910390f35b6106c760048036038101906106c29190614616565b61163e565b6040516106d49190613b02565b60405180910390f35b6106f760048036038101906106f29190613c66565b611bd7565b005b610701611c05565b60405161070e9190613b36565b60405180910390f35b610731600480360381019061072c9190613c66565b611c0c565b005b61074d60048036038101906107489190614669565b611c3a565b60405161075a9190613c1f565b60405180910390f35b61077d60048036038101906107789190613c66565b611d9e565b60405161078a9190613c1f565b60405180910390f35b61079b611db6565b6040516107a89190613b36565b60405180910390f35b6107b9611dda565b005b6107d560048036038101906107d09190614567565b611ddc565b6040516107e29190613efd565b60405180910390f35b61080560048036038101906108009190613c66565b611eb8565b60405161081291906142bf565b60405180910390f35b610823611fa4565b6040516108309190613b92565b60405180910390f35b610853600480360381019061084e919061430d565b611fce565b6040516108609190613c1f565b60405180910390f35b610871611ff2565b60405161087e9190613b36565b60405180910390f35b61088f612016565b60405161089c9190613c1f565b60405180910390f35b6108ad61201b565b005b6108c960048036038101906108c49190613c66565b612152565b6040516108d69190613c1f565b60405180910390f35b6108f960048036038101906108f49190613c66565b61216a565b6040516109069190614767565b60405180910390f35b61092960048036038101906109249190614527565b6121d5565b005b61094560048036038101906109409190613e35565b6121f6565b6040516109529190613efd565b60405180910390f35b61097560048036038101906109709190614789565b6122a3565b6040516109829190613c1f565b60405180910390f35b610993612463565b6040516109a09190613b36565b60405180910390f35b6109c360048036038101906109be9190613c66565b612487565b005b6109df60048036038101906109da91906149d8565b6124de565b005b6109fb60048036038101906109f69190614a34565b612710565b005b60007f5a05180f000000000000000000000000000000000000000000000000000000007bffffffffffffffffffffffffffffffffffffffffffffffffffffffff1916827bffffffffffffffffffffffffffffffffffffffffffffffffffffffff19161480610a705750610a6f8261292c565b5b9050919050565b7fdfbefbf47cfe66b701d8cfdbce1de81c821590819cb07e71cb01b6602fb0ee2781565b600f60009054906101000a900473ffffffffffffffffffffffffffffffffffffffff1681565b6000610aed7fdfbefbf47cfe66b701d8cfdbce1de81c821590819cb07e71cb01b6602fb0ee27836115d4565b9050919050565b600e5481565b610b2b7fdfbefbf47cfe66b701d8cfdbce1de81c821590819cb07e71cb01b6602fb0ee27610b266129a6565b6115d4565b80610b635750610b627f1d93c87416ca7b54f0fb8323167b72760e8e2ec93d48660953897a150f97a8b4610b5d6129a6565b6115d4565b5b610ba2576040517f08c379a0000000000000000000000000000000000000000000000000000000008152600401610b9990614b15565b60405180910390fd5b50565b6007602052816000526040600020818051602081018201805184825260208301602085012081835280955050505050506000915091509054906101000a900473ffffffffffffffffffffffffffffffffffffffff1681565b60066020528160005260406000208181548110610c1957600080fd5b90600052602060002001600091509150508054610c3590614b64565b80601f0160208091040260200160405190810160405280929190818152602001828054610c6190614b64565b8015610cae5780601f10610c8357610100808354040283529160200191610cae565b820191906000526020600020905b815481529060010190602001808311610c9157829003601f168201915b505050505081565b7f1d93c87416ca7b54f0fb8323167b72760e8e2ec93d48660953897a150f97a8b4610ce0816129ae565b8151845114610d24576040517f08c379a0000000000000000000000000000000000000000000000000000000008152600401610d1b90614be2565b60405180910390fd5b610d2f8686866129c2565b610d6e576040517f08c379a0000000000000000000000000000000000000000000000000000000008152600401610d6590614c4e565b60405180910390fd5b610d79868484612a71565b610db8576040517f08c379a0000000000000000000000000000000000000000000000000000000008152600401610daf90614cba565b60405180910390fd5b60005b8451811015610dd7578080610dcf90614d09565b915050610dbb565b50505050505050565b60606008600084815260200190815260200160002082604051610e039190614d8e565b9081526020016040518091039020805480602002602001604051908101604052809291908181526020016000905b82821015610edd578382906000526020600020018054610e5090614b64565b80601f0160208091040260200160405190810160405280929190818152602001828054610e7c90614b64565b8015610ec95780601f10610e9e57610100808354040283529160200191610ec9565b820191906000526020600020905b815481529060010190602001808311610eac57829003601f168201915b505050505081526020019060010190610e31565b50505050905092915050565b6000806000838152602001908152602001600020600101549050919050565b7f72b06b67826def9fabb513b23f7e5eb74f7ece26d25dad4006546ecf4a13763d610f32816129ae565b5050505050565b6000801b610f46816129ae565b610f707fdfbefbf47cfe66b701d8cfdbce1de81c821590819cb07e71cb01b6602fb0ee2783612b20565b5050565b7f1d93c87416ca7b54f0fb8323167b72760e8e2ec93d48660953897a150f97a8b4610f9e816129ae565b8251845114610fe2576040517f08c379a0000000000000000000000000000000000000000000000000000000008152600401610fd990614e17565b60405180910390fd5b610fed848484612b2e565b50505050565b610ffc82610ee9565b611005816129ae565b61100f8383612ce9565b505050565b6000805b6003805490508110156110675760006003828154811061103b5761103a614e37565b5b9060005260206000200154146110545760019150611067565b808061105f90614d09565b915050611018565b5090565b6110736129a6565b73ffffffffffffffffffffffffffffffffffffffff168173ffffffffffffffffffffffffffffffffffffffff16146110e0576040517f08c379a00000000000000000000000000000000000000000000000000000000081526004016110d790614ed8565b60405180910390fd5b6110ea8282612d1d565b5050565b600d5481565b7f1d93c87416ca7b54f0fb8323167b72760e8e2ec93d48660953897a150f97a8b461111e816129ae565b6111487fd017b644efdbb8827e313d7971462ef180dad8aa174c6fb8427f18caad304df783612b20565b5050565b60046020528060005260406000206000915090505481565b60086020528260005260406000208280516020810182018051848252602083016020850120818352809550505050505081815481106111a257600080fd5b90600052602060002001600092509250505080546111bf90614b64565b80601f01602080910402602001604051908101604052809291908181526020018280546111eb90614b64565b80156112385780601f1061120d57610100808354040283529160200191611238565b820191906000526020600020905b81548152906001019060200180831161121b57829003601f168201915b505050505081565b6112717fdfbefbf47cfe66b701d8cfdbce1de81c821590819cb07e71cb01b6602fb0ee2761126c6129a6565b6115d4565b806112a957506112a87f1d93c87416ca7b54f0fb8323167b72760e8e2ec93d48660953897a150f97a8b46112a36129a6565b6115d4565b5b6112e8576040517f08c379a00000000000000000000000000000000000000000000000000000000081526004016112df90614b15565b60405180910390fd5b6000600e54600d546112fa9190614ef8565b67ffffffffffffffff81111561131357611312613cae565b5b6040519080825280602002602001820160405280156113415781602001602082028036833780820191505090505b509050600073__XYCoordinates_________________________639f6b5649600e54600d546040518363ffffffff1660e01b8152600401611383929190614f61565b600060405180830381865af41580156113a0573d6000803e3d6000fd5b505050506040513d6000823e3d601f19601f820116820180604052508101906113c991906150af565b905060005b825181101561145a57600f60009054906101000a900473ffffffffffffffffffffffffffffffffffffffff1683828151811061140d5761140c614e37565b5b602002602001019073ffffffffffffffffffffffffffffffffffffffff16908173ffffffffffffffffffffffffffffffffffffffff1681525050808061145290614d09565b9150506113ce565b50611466828285612b2e565b505050565b6060600960008481526020019081526020016000208260405161148e9190614d8e565b9081526020016040518091039020805480602002602001604051908101604052809291908181526020016000905b828210156115685783829060005260206000200180546114db90614b64565b80601f016020809104026020016040519081016040528092919081815260200182805461150790614b64565b80156115545780601f1061152957610100808354040283529160200191611554565b820191906000526020600020905b81548152906001019060200180831161153757829003601f168201915b5050505050815260200190600101906114bc565b50505050905092915050565b600c602052816000526040600020818154811061159057600080fd5b90600052602060002001600091509150505481565b60006115cc8260016000868152602001908152602001600020612d5190919063ffffffff16565b905092915050565b600080600084815260200190815260200160002060000160008373ffffffffffffffffffffffffffffffffffffffff1673ffffffffffffffffffffffffffffffffffffffff16815260200190815260200160002060009054906101000a900460ff16905092915050565b600080600260009054906101000a900473ffffffffffffffffffffffffffffffffffffffff1673ffffffffffffffffffffffffffffffffffffffff1663bca7caa086866040518363ffffffff1660e01b815260040161169e9291906150f8565b602060405180830381865afa1580156116bb573d6000803e3d6000fd5b505050506040513d601f19601f820116820180604052508101906116df9190615136565b90506000600b60008781526020019081526020016000206000838152602001908152602001600020805461171290614b64565b80601f016020809104026020016040519081016040528092919081815260200182805461173e90614b64565b801561178b5780601f106117605761010080835404028352916020019161178b565b820191906000526020600020905b81548152906001019060200180831161176e57829003601f168201915b50505050509050600060096000888152602001908152602001600020826040516117b59190614d8e565b90815260200160405180910390208054905090506000811161180c576040517f08c379a0000000000000000000000000000000000000000000000000000000008152600401611803906151af565b60405180910390fd5b60009350600060076000898152602001908152602001600020836040516118339190614d8e565b908152602001604051809103902060009054906101000a900473ffffffffffffffffffffffffffffffffffffffff16905060008287116118735786611876565b60005b90506000600960008b81526020019081526020016000208560405161189b9190614d8e565b908152602001604051809103902082815481106118bb576118ba614e37565b5b9060005260206000200180546118d090614b64565b80601f01602080910402602001604051908101604052809291908181526020018280546118fc90614b64565b80156119495780601f1061191e57610100808354040283529160200191611949565b820191906000526020600020905b81548152906001019060200180831161192c57829003601f168201915b505050505090506000600760008c8152602001908152602001600020826040516119739190614d8e565b908152602001604051809103902060009054906101000a900473ffffffffffffffffffffffffffffffffffffffff1690508373ffffffffffffffffffffffffffffffffffffffff16637caf12808b8d896040518463ffffffff1660e01b81526004016119e1939291906151cf565b602060405180830381865afa1580156119fe573d6000803e3d6000fd5b505050506040513d601f19601f82011682018060405250810190611a229190615239565b8015611aa857508073ffffffffffffffffffffffffffffffffffffffff1663e15b3ad08b8d856040518463ffffffff1660e01b8152600401611a66939291906151cf565b602060405180830381865afa158015611a83573d6000803e3d6000fd5b505050506040513d601f19601f82011682018060405250810190611aa79190615239565b5b15611bc9578373ffffffffffffffffffffffffffffffffffffffff166328d7e11a8b8d896040518463ffffffff1660e01b8152600401611aea939291906151cf565b600060405180830381600087803b158015611b0457600080fd5b505af1158015611b18573d6000803e3d6000fd5b505050508073ffffffffffffffffffffffffffffffffffffffff166398bd75728b8d856040518463ffffffff1660e01b8152600401611b59939291906151cf565b600060405180830381600087803b158015611b7357600080fd5b505af1158015611b87573d6000803e3d6000fd5b5050505081600b60008d815260200190815260200160002060008981526020019081526020016000209080519060200190611bc39291906139ab565b50600197505b505050505050509392505050565b7fd017b644efdbb8827e313d7971462ef180dad8aa174c6fb8427f18caad304df7611c01816129ae565b5050565b6000801b81565b7f72b06b67826def9fabb513b23f7e5eb74f7ece26d25dad4006546ecf4a13763d611c36816129ae565b5050565b6000611c6d7fdfbefbf47cfe66b701d8cfdbce1de81c821590819cb07e71cb01b6602fb0ee27611c686129a6565b6115d4565b80611ca55750611ca47f1d93c87416ca7b54f0fb8323167b72760e8e2ec93d48660953897a150f97a8b4611c9f6129a6565b6115d4565b5b611ce4576040517f08c379a0000000000000000000000000000000000000000000000000000000008152600401611cdb90614b15565b60405180910390fd5b82600260006101000a81548173ffffffffffffffffffffffffffffffffffffffff021916908373ffffffffffffffffffffffffffffffffffffffff1602179055508173ffffffffffffffffffffffffffffffffffffffff16630a75806e6040518163ffffffff1660e01b81526004016020604051808303816000875af1158015611d72573d6000803e3d6000fd5b505050506040513d601f19601f82011682018060405250810190611d969190615136565b905092915050565b600a6020528060005260406000206000915090505481565b7f1d93c87416ca7b54f0fb8323167b72760e8e2ec93d48660953897a150f97a8b481565b565b6009602052826000526040600020828051602081018201805184825260208301602085012081835280955050505050508181548110611e1a57600080fd5b9060005260206000200160009250925050508054611e3790614b64565b80601f0160208091040260200160405190810160405280929190818152602001828054611e6390614b64565b8015611eb05780601f10611e8557610100808354040283529160200191611eb0565b820191906000526020600020905b815481529060010190602001808311611e9357829003601f168201915b505050505081565b606060066000838152602001908152602001600020805480602002602001604051908101604052809291908181526020016000905b82821015611f99578382906000526020600020018054611f0c90614b64565b80601f0160208091040260200160405190810160405280929190818152602001828054611f3890614b64565b8015611f855780601f10611f5a57610100808354040283529160200191611f85565b820191906000526020600020905b815481529060010190602001808311611f6857829003601f168201915b505050505081526020019060010190611eed565b505050509050919050565b6000600260009054906101000a900473ffffffffffffffffffffffffffffffffffffffff16905090565b6000611feb60016000848152602001908152602001600020612d6b565b9050919050565b7f72b06b67826def9fabb513b23f7e5eb74f7ece26d25dad4006546ecf4a13763d81565b60c881565b7fd017b644efdbb8827e313d7971462ef180dad8aa174c6fb8427f18caad304df7612045816129ae565b60008060005b6003805490508110156120ba5760006003828154811061206e5761206d614e37565b5b9060005260206000200154146120a7576003818154811061209257612091614e37565b5b906000526020600020015492508091506120ba565b80806120b290614d09565b91505061204b565b506000600460008481526020019081526020016000205414156120e5576120e082612d80565b61210c565b60016004600084815260200190815260200160002054141561210b5761210a82612e29565b5b5b60016004600084815260200190815260200160002054111561214d5760006003828154811061213e5761213d614e37565b5b90600052602060002001819055505b505050565b60056020528060005260406000206000915090505481565b6060600c60008381526020019081526020016000208054806020026020016040519081016040528092919081815260200182805480156121c957602002820191906000526020600020905b8154815260200190600101908083116121b5575b50505050509050919050565b6121de82610ee9565b6121e7816129ae565b6121f18383612d1d565b505050565b600b60205281600052604060002060205280600052604060002060009150915050805461222290614b64565b80601f016020809104026020016040519081016040528092919081815260200182805461224e90614b64565b801561229b5780601f106122705761010080835404028352916020019161229b565b820191906000526020600020905b81548152906001019060200180831161227e57829003601f168201915b505050505081565b60006122d67fdfbefbf47cfe66b701d8cfdbce1de81c821590819cb07e71cb01b6602fb0ee276122d16129a6565b6115d4565b8061230e575061230d7f1d93c87416ca7b54f0fb8323167b72760e8e2ec93d48660953897a150f97a8b46123086129a6565b6115d4565b5b61234d576040517f08c379a000000000000000000000000000000000000000000000000000000000815260040161234490614b15565b60405180910390fd5b8151835114612391576040517f08c379a000000000000000000000000000000000000000000000000000000000815260040161238890614e17565b60405180910390fd5b6000835111156123a7576123a6838383612b2e565b5b84600260006101000a81548173ffffffffffffffffffffffffffffffffffffffff021916908373ffffffffffffffffffffffffffffffffffffffff1602179055508373ffffffffffffffffffffffffffffffffffffffff16630a75806e6040518163ffffffff1660e01b81526004016020604051808303816000875af1158015612435573d6000803e3d6000fd5b505050506040513d601f19601f820116820180604052508101906124599190615136565b9050949350505050565b7fd017b644efdbb8827e313d7971462ef180dad8aa174c6fb8427f18caad304df781565b7f1d93c87416ca7b54f0fb8323167b72760e8e2ec93d48660953897a150f97a8b46124b1816129ae565b60038290806001815401808255809150506001900390600052602060002001600090919091909150555050565b7f1d93c87416ca7b54f0fb8323167b72760e8e2ec93d48660953897a150f97a8b4612508816129ae565b61251283836131ce565b612551576040517f08c379a0000000000000000000000000000000000000000000000000000000008152600401612548906152b2565b60405180910390fd5b60005b825181101561270a576009600085815260200190815260200160002083828151811061258357612582614e37565b5b602002602001015160006002811061259e5761259d614e37565b5b60200201516040516125b09190614d8e565b90815260200160405180910390208382815181106125d1576125d0614e37565b5b60200260200101516001600281106125ec576125eb614e37565b5b60200201519080600181540180825580915050600190039060005260206000200160009091909190915090805190602001906126299291906139ab565b50600860008581526020019081526020016000208382815181106126505761264f614e37565b5b602002602001015160016002811061266b5761266a614e37565b5b602002015160405161267d9190614d8e565b908152602001604051809103902083828151811061269e5761269d614e37565b5b60200260200101516000600281106126b9576126b8614e37565b5b60200201519080600181540180825580915050600190039060005260206000200160009091909190915090805190602001906126f69291906139ab565b50808061270290614d09565b915050612554565b50505050565b7f72b06b67826def9fabb513b23f7e5eb74f7ece26d25dad4006546ecf4a13763d61273a816129ae565b6000600260009054906101000a900473ffffffffffffffffffffffffffffffffffffffff1673ffffffffffffffffffffffffffffffffffffffff1663bca7caa086866040518363ffffffff1660e01b81526004016127999291906150f8565b602060405180830381865afa1580156127b6573d6000803e3d6000fd5b505050506040513d601f19601f820116820180604052508101906127da9190615136565b905082600b6000878152602001908152602001600020600083815260200190815260200160002090805190602001906128149291906139ab565b505050505050565b61282682826115d4565b6128f857600160008084815260200190815260200160002060000160008373ffffffffffffffffffffffffffffffffffffffff1673ffffffffffffffffffffffffffffffffffffffff16815260200190815260200160002060006101000a81548160ff02191690831515021790555061289d6129a6565b73ffffffffffffffffffffffffffffffffffffffff168173ffffffffffffffffffffffffffffffffffffffff16837f2f8788117e7eff1d82e926ec794901d17c78024a50270940304540a733656f0d60405160405180910390a45b5050565b6000612924836000018373ffffffffffffffffffffffffffffffffffffffff1660001b613374565b905092915050565b60007f7965db0b000000000000000000000000000000000000000000000000000000007bffffffffffffffffffffffffffffffffffffffffffffffffffffffff1916827bffffffffffffffffffffffffffffffffffffffffffffffffffffffff1916148061299f575061299e826133e4565b5b9050919050565b600033905090565b6129bf816129ba6129a6565b61344e565b50565b60006001905060005b8251811015612a695760018382815181106129e9576129e8614e37565b5b60200260200101516129fb91906152d2565b60086000878152602001908152602001600020858381518110612a2157612a20614e37565b5b6020026020010151604051612a369190614d8e565b90815260200160405180910390208054905010612a565760009150612a69565b8080612a6190614d09565b9150506129cb565b509392505050565b60006001905060005b8251811015612b18576001838281518110612a9857612a97614e37565b5b6020026020010151612aaa91906152d2565b60096000878152602001908152602001600020858381518110612ad057612acf614e37565b5b6020026020010151604051612ae59190614d8e565b90815260200160405180910390208054905010612b055760009150612b18565b8080612b1090614d09565b915050612a7a565b509392505050565b612b2a8282612ce9565b5050565b60005b8351811015612ce35760066000838152602001908152602001600020838281518110612b6057612b5f614e37565b5b6020026020010151908060018154018082558091505060019003906000526020600020016000909190919091509080519060200190612ba09291906139ab565b50838181518110612bb457612bb3614e37565b5b602002602001015160076000848152602001908152602001600020848381518110612be257612be1614e37565b5b6020026020010151604051612bf79190614d8e565b908152602001604051809103902060006101000a81548173ffffffffffffffffffffffffffffffffffffffff021916908373ffffffffffffffffffffffffffffffffffffffff160217905550612c877f72b06b67826def9fabb513b23f7e5eb74f7ece26d25dad4006546ecf4a13763d858381518110612c7a57612c79614e37565b5b60200260200101516115d4565b612cd057612ccf7f72b06b67826def9fabb513b23f7e5eb74f7ece26d25dad4006546ecf4a13763d858381518110612cc257612cc1614e37565b5b6020026020010151612b20565b5b8080612cdb90614d09565b915050612b31565b50505050565b612cf3828261281c565b612d1881600160008581526020019081526020016000206128fc90919063ffffffff16565b505050565b612d2782826134eb565b612d4c81600160008581526020019081526020016000206135cc90919063ffffffff16565b505050565b6000612d6083600001836135fc565b60001c905092915050565b6000612d7982600001613627565b9050919050565b600260009054906101000a900473ffffffffffffffffffffffffffffffffffffffff1673ffffffffffffffffffffffffffffffffffffffff166360c20500826040518263ffffffff1660e01b8152600401612ddb9190613c1f565b600060405180830381600087803b158015612df557600080fd5b505af1158015612e09573d6000803e3d6000fd5b505050506001600460008381526020019081526020016000208190555050565b60006007600083815260200190815260200160002060066000848152602001908152602001600020600081548110612e6457612e63614e37565b5b90600052602060002001604051612e7b91906153bc565b908152602001604051809103902060009054906101000a900473ffffffffffffffffffffffffffffffffffffffff169050600081905060005b600260009054906101000a900473ffffffffffffffffffffffffffffffffffffffff1673ffffffffffffffffffffffffffffffffffffffff1663b77ff411856040518263ffffffff1660e01b8152600401612f0f9190613c1f565b602060405180830381865afa158015612f2c573d6000803e3d6000fd5b505050506040513d601f19601f82011682018060405250810190612f509190615136565b8110156131af576000600182612f6691906152d2565b90506000600260009054906101000a900473ffffffffffffffffffffffffffffffffffffffff1673ffffffffffffffffffffffffffffffffffffffff1663f504325487846040518363ffffffff1660e01b8152600401612fc79291906153d3565b602060405180830381865afa158015612fe4573d6000803e3d6000fd5b505050506040513d601f19601f820116820180604052508101906130089190615411565b90508373ffffffffffffffffffffffffffffffffffffffff1663e15b3ad08288600660008b815260200190815260200160002060008154811061304e5761304d614e37565b5b906000526020600020016040518463ffffffff1660e01b8152600401613076939291906154be565b602060405180830381865afa158015613093573d6000803e3d6000fd5b505050506040513d601f19601f820116820180604052508101906130b79190615239565b1561315f578373ffffffffffffffffffffffffffffffffffffffff166398bd75728288600660008b8152602001908152602001600020600081548110613100576130ff614e37565b5b906000526020600020016040518463ffffffff1660e01b8152600401613128939291906154be565b600060405180830381600087803b15801561314257600080fd5b505af1158015613156573d6000803e3d6000fd5b5050505061319a565b600c60008781526020019081526020016000208290806001815401808255809150506001900390600052602060002001600090919091909150555b505080806131a790614d09565b915050612eb4565b5060026004600085815260200190815260200160002081905550505050565b600080600090505b825181101561336d5760019150600073ffffffffffffffffffffffffffffffffffffffff166007600086815260200190815260200160002084838151811061322157613220614e37565b5b602002602001015160006002811061323c5761323b614e37565b5b602002015160405161324e9190614d8e565b908152602001604051809103902060009054906101000a900473ffffffffffffffffffffffffffffffffffffffff1673ffffffffffffffffffffffffffffffffffffffff16148061334c5750600073ffffffffffffffffffffffffffffffffffffffff16600760008681526020019081526020016000208483815181106132d8576132d7614e37565b5b60200260200101516001600281106132f3576132f2614e37565b5b60200201516040516133059190614d8e565b908152602001604051809103902060009054906101000a900473ffffffffffffffffffffffffffffffffffffffff1673ffffffffffffffffffffffffffffffffffffffff16145b1561335a576000915061336d565b808061336590614d09565b9150506131d6565b5092915050565b60006133808383613638565b6133d95782600001829080600181540180825580915050600190039060005260206000200160009091909190915055826000018054905083600101600084815260200190815260200160002081905550600190506133de565b600090505b92915050565b60007f01ffc9a7000000000000000000000000000000000000000000000000000000007bffffffffffffffffffffffffffffffffffffffffffffffffffffffff1916827bffffffffffffffffffffffffffffffffffffffffffffffffffffffff1916149050919050565b61345882826115d4565b6134e75761347d8173ffffffffffffffffffffffffffffffffffffffff16601461365b565b61348b8360001c602061365b565b60405160200161349c929190615594565b6040516020818303038152906040526040517f08c379a00000000000000000000000000000000000000000000000000000000081526004016134de9190613efd565b60405180910390fd5b5050565b6134f582826115d4565b156135c857600080600084815260200190815260200160002060000160008373ffffffffffffffffffffffffffffffffffffffff1673ffffffffffffffffffffffffffffffffffffffff16815260200190815260200160002060006101000a81548160ff02191690831515021790555061356d6129a6565b73ffffffffffffffffffffffffffffffffffffffff168173ffffffffffffffffffffffffffffffffffffffff16837ff6391f5c32d9c69d2a47ea670b442974b53935d1edc7fd64eb21e047a839171b60405160405180910390a45b5050565b60006135f4836000018373ffffffffffffffffffffffffffffffffffffffff1660001b613897565b905092915050565b600082600001828154811061361457613613614e37565b5b9060005260206000200154905092915050565b600081600001805490509050919050565b600080836001016000848152602001908152602001600020541415905092915050565b60606000600283600261366e9190614ef8565b61367891906152d2565b67ffffffffffffffff81111561369157613690613cae565b5b6040519080825280601f01601f1916602001820160405280156136c35781602001600182028036833780820191505090505b5090507f3000000000000000000000000000000000000000000000000000000000000000816000815181106136fb576136fa614e37565b5b60200101907effffffffffffffffffffffffffffffffffffffffffffffffffffffffffffff1916908160001a9053507f78000000000000000000000000000000000000000000000000000000000000008160018151811061375f5761375e614e37565b5b60200101907effffffffffffffffffffffffffffffffffffffffffffffffffffffffffffff1916908160001a9053506000600184600261379f9190614ef8565b6137a991906152d2565b90505b6001811115613849577f3031323334353637383961626364656600000000000000000000000000000000600f8616601081106137eb576137ea614e37565b5b1a60f81b82828151811061380257613801614e37565b5b60200101907effffffffffffffffffffffffffffffffffffffffffffffffffffffffffffff1916908160001a905350600485901c945080613842906155ce565b90506137ac565b506000841461388d576040517f08c379a000000000000000000000000000000000000000000000000000000000815260040161388490615644565b60405180910390fd5b8091505092915050565b6000808360010160008481526020019081526020016000205490506000811461399f5760006001826138c99190615664565b90506000600186600001805490506138e19190615664565b905081811461395057600086600001828154811061390257613901614e37565b5b906000526020600020015490508087600001848154811061392657613925614e37565b5b90600052602060002001819055508387600101600083815260200190815260200160002081905550505b8560000180548061396457613963615698565b5b6001900381819060005260206000200160009055905585600101600086815260200190815260200160002060009055600193505050506139a5565b60009150505b92915050565b8280546139b790614b64565b90600052602060002090601f0160209004810192826139d95760008555613a20565b82601f106139f257805160ff1916838001178555613a20565b82800160010185558215613a20579182015b82811115613a1f578251825591602001919060010190613a04565b5b509050613a2d9190613a31565b5090565b5b80821115613a4a576000816000905550600101613a32565b5090565b6000604051905090565b600080fd5b600080fd5b60007fffffffff0000000000000000000000000000000000000000000000000000000082169050919050565b613a9781613a62565b8114613aa257600080fd5b50565b600081359050613ab481613a8e565b92915050565b600060208284031215613ad057613acf613a58565b5b6000613ade84828501613aa5565b91505092915050565b60008115159050919050565b613afc81613ae7565b82525050565b6000602082019050613b176000830184613af3565b92915050565b6000819050919050565b613b3081613b1d565b82525050565b6000602082019050613b4b6000830184613b27565b92915050565b600073ffffffffffffffffffffffffffffffffffffffff82169050919050565b6000613b7c82613b51565b9050919050565b613b8c81613b71565b82525050565b6000602082019050613ba76000830184613b83565b92915050565b613bb681613b71565b8114613bc157600080fd5b50565b600081359050613bd381613bad565b92915050565b600060208284031215613bef57613bee613a58565b5b6000613bfd84828501613bc4565b91505092915050565b6000819050919050565b613c1981613c06565b82525050565b6000602082019050613c346000830184613c10565b92915050565b613c4381613c06565b8114613c4e57600080fd5b50565b600081359050613c6081613c3a565b92915050565b600060208284031215613c7c57613c7b613a58565b5b6000613c8a84828501613c51565b91505092915050565b600080fd5b600080fd5b6000601f19601f8301169050919050565b7f4e487b7100000000000000000000000000000000000000000000000000000000600052604160045260246000fd5b613ce682613c9d565b810181811067ffffffffffffffff82111715613d0557613d04613cae565b5b80604052505050565b6000613d18613a4e565b9050613d248282613cdd565b919050565b600067ffffffffffffffff821115613d4457613d43613cae565b5b613d4d82613c9d565b9050602081019050919050565b82818337600083830152505050565b6000613d7c613d7784613d29565b613d0e565b905082815260208101848484011115613d9857613d97613c98565b5b613da3848285613d5a565b509392505050565b600082601f830112613dc057613dbf613c93565b5b8135613dd0848260208601613d69565b91505092915050565b60008060408385031215613df057613def613a58565b5b6000613dfe85828601613c51565b925050602083013567ffffffffffffffff811115613e1f57613e1e613a5d565b5b613e2b85828601613dab565b9150509250929050565b60008060408385031215613e4c57613e4b613a58565b5b6000613e5a85828601613c51565b9250506020613e6b85828601613c51565b9150509250929050565b600081519050919050565b600082825260208201905092915050565b60005b83811015613eaf578082015181840152602081019050613e94565b83811115613ebe576000848401525b50505050565b6000613ecf82613e75565b613ed98185613e80565b9350613ee9818560208601613e91565b613ef281613c9d565b840191505092915050565b60006020820190508181036000830152613f178184613ec4565b905092915050565b600067ffffffffffffffff821115613f3a57613f39613cae565b5b602082029050602081019050919050565b600080fd5b6000613f63613f5e84613f1f565b613d0e565b90508083825260208201905060208402830185811115613f8657613f85613f4b565b5b835b81811015613fcd57803567ffffffffffffffff811115613fab57613faa613c93565b5b808601613fb88982613dab565b85526020850194505050602081019050613f88565b5050509392505050565b600082601f830112613fec57613feb613c93565b5b8135613ffc848260208601613f50565b91505092915050565b600067ffffffffffffffff8211156140205761401f613cae565b5b602082029050602081019050919050565b600061404461403f84614005565b613d0e565b9050808382526020820190506020840283018581111561406757614066613f4b565b5b835b81811015614090578061407c8882613c51565b845260208401935050602081019050614069565b5050509392505050565b600082601f8301126140af576140ae613c93565b5b81356140bf848260208601614031565b91505092915050565b600080600080600060a086880312156140e4576140e3613a58565b5b60006140f288828901613c51565b955050602086013567ffffffffffffffff81111561411357614112613a5d565b5b61411f88828901613fd7565b945050604086013567ffffffffffffffff8111156141405761413f613a5d565b5b61414c8882890161409a565b935050606086013567ffffffffffffffff81111561416d5761416c613a5d565b5b61417988828901613fd7565b925050608086013567ffffffffffffffff81111561419a57614199613a5d565b5b6141a68882890161409a565b9150509295509295909350565b600081519050919050565b600082825260208201905092915050565b6000819050602082019050919050565b600082825260208201905092915050565b60006141fb82613e75565b61420581856141df565b9350614215818560208601613e91565b61421e81613c9d565b840191505092915050565b600061423583836141f0565b905092915050565b6000602082019050919050565b6000614255826141b3565b61425f81856141be565b935083602082028501614271856141cf565b8060005b858110156142ad578484038952815161428e8582614229565b94506142998361423d565b925060208a01995050600181019050614275565b50829750879550505050505092915050565b600060208201905081810360008301526142d9818461424a565b905092915050565b6142ea81613b1d565b81146142f557600080fd5b50565b600081359050614307816142e1565b92915050565b60006020828403121561432357614322613a58565b5b6000614331848285016142f8565b91505092915050565b600067ffffffffffffffff82111561435557614354613cae565b5b602082029050602081019050919050565b60006143796143748461433a565b613d0e565b9050808382526020820190506020840283018581111561439c5761439b613f4b565b5b835b818110156143c557806143b18882613bc4565b84526020840193505060208101905061439e565b5050509392505050565b600082601f8301126143e4576143e3613c93565b5b81356143f4848260208601614366565b91505092915050565b6000806000806080858703121561441757614416613a58565b5b600061442587828801613c51565b945050602085013567ffffffffffffffff81111561444657614445613a5d565b5b614452878288016143cf565b935050604085013567ffffffffffffffff81111561447357614472613a5d565b5b61447f8782880161409a565b925050606061449087828801613c51565b91505092959194509250565b6000806000606084860312156144b5576144b4613a58565b5b600084013567ffffffffffffffff8111156144d3576144d2613a5d565b5b6144df868287016143cf565b935050602084013567ffffffffffffffff811115614500576144ff613a5d565b5b61450c86828701613fd7565b925050604061451d86828701613c51565b9150509250925092565b6000806040838503121561453e5761453d613a58565b5b600061454c858286016142f8565b925050602061455d85828601613bc4565b9150509250929050565b6000806000606084860312156145805761457f613a58565b5b600061458e86828701613c51565b935050602084013567ffffffffffffffff8111156145af576145ae613a5d565b5b6145bb86828701613dab565b92505060406145cc86828701613c51565b9150509250925092565b600080604083850312156145ed576145ec613a58565b5b60006145fb858286016142f8565b925050602061460c85828601613c51565b9150509250929050565b60008060006060848603121561462f5761462e613a58565b5b600061463d86828701613c51565b935050602061464e86828701613bc4565b925050604061465f86828701613c51565b9150509250925092565b600080604083850312156146805761467f613a58565b5b600061468e85828601613bc4565b925050602061469f85828601613bc4565b9150509250929050565b600081519050919050565b600082825260208201905092915050565b6000819050602082019050919050565b6146de81613c06565b82525050565b60006146f083836146d5565b60208301905092915050565b6000602082019050919050565b6000614714826146a9565b61471e81856146b4565b9350614729836146c5565b8060005b8381101561475a57815161474188826146e4565b975061474c836146fc565b92505060018101905061472d565b5085935050505092915050565b600060208201905081810360008301526147818184614709565b905092915050565b600080600080608085870312156147a3576147a2613a58565b5b60006147b187828801613bc4565b94505060206147c287828801613bc4565b935050604085013567ffffffffffffffff8111156147e3576147e2613a5d565b5b6147ef878288016143cf565b925050606085013567ffffffffffffffff8111156148105761480f613a5d565b5b61481c87828801613fd7565b91505092959194509250565b600067ffffffffffffffff82111561484357614842613cae565b5b602082029050602081019050919050565b600067ffffffffffffffff82111561486f5761486e613cae565b5b602082029050919050565b600061488d61488884614854565b613d0e565b905080602084028301858111156148a7576148a6613f4b565b5b835b818110156148ee57803567ffffffffffffffff8111156148cc576148cb613c93565b5b8086016148d98982613dab565b855260208501945050506020810190506148a9565b5050509392505050565b600082601f83011261490d5761490c613c93565b5b600261491a84828561487a565b91505092915050565b600061493661493184614828565b613d0e565b9050808382526020820190506020840283018581111561495957614958613f4b565b5b835b818110156149a057803567ffffffffffffffff81111561497e5761497d613c93565b5b80860161498b89826148f8565b8552602085019450505060208101905061495b565b5050509392505050565b600082601f8301126149bf576149be613c93565b5b81356149cf848260208601614923565b91505092915050565b600080604083850312156149ef576149ee613a58565b5b60006149fd85828601613c51565b925050602083013567ffffffffffffffff811115614a1e57614a1d613a5d565b5b614a2a858286016149aa565b9150509250929050565b600080600060608486031215614a4d57614a4c613a58565b5b6000614a5b86828701613c51565b9350506020614a6c86828701613bc4565b925050604084013567ffffffffffffffff811115614a8d57614a8c613a5d565b5b614a9986828701613dab565b9150509250925092565b7f47616d65204d6173746572206f7220466163746f727920726f6c65207265717560008201527f6972656400000000000000000000000000000000000000000000000000000000602082015250565b6000614aff602483613e80565b9150614b0a82614aa3565b604082019050919050565b60006020820190508181036000830152614b2e81614af2565b9050919050565b7f4e487b7100000000000000000000000000000000000000000000000000000000600052602260045260246000fd5b60006002820490506001821680614b7c57607f821691505b60208210811415614b9057614b8f614b35565b5b50919050565b7f696e70757473202f206f757470757473206c656e677468206d69736d61746368600082015250565b6000614bcc602083613e80565b9150614bd782614b96565b602082019050919050565b60006020820190508181036000830152614bfb81614bbf565b9050919050565b7f696e7075747320696e76616c6964000000000000000000000000000000000000600082015250565b6000614c38600e83613e80565b9150614c4382614c02565b602082019050919050565b60006020820190508181036000830152614c6781614c2b565b9050919050565b7f6f75747075747320696e76616c69640000000000000000000000000000000000600082015250565b6000614ca4600f83613e80565b9150614caf82614c6e565b602082019050919050565b60006020820190508181036000830152614cd381614c97565b9050919050565b7f4e487b7100000000000000000000000000000000000000000000000000000000600052601160045260246000fd5b6000614d1482613c06565b91507fffffffffffffffffffffffffffffffffffffffffffffffffffffffffffffffff821415614d4757614d46614cda565b5b600182019050919050565b600081905092915050565b6000614d6882613e75565b614d728185614d52565b9350614d82818560208601613e91565b80840191505092915050565b6000614d9a8284614d5d565b915081905092915050565b7f616464726573736573202620616c696173657320646966666572656e74206c6560008201527f6e67746873000000000000000000000000000000000000000000000000000000602082015250565b6000614e01602583613e80565b9150614e0c82614da5565b604082019050919050565b60006020820190508181036000830152614e3081614df4565b9050919050565b7f4e487b7100000000000000000000000000000000000000000000000000000000600052603260045260246000fd5b7f416363657373436f6e74726f6c3a2063616e206f6e6c792072656e6f756e636560008201527f20726f6c657320666f722073656c660000000000000000000000000000000000602082015250565b6000614ec2602f83613e80565b9150614ecd82614e66565b604082019050919050565b60006020820190508181036000830152614ef181614eb5565b9050919050565b6000614f0382613c06565b9150614f0e83613c06565b9250817fffffffffffffffffffffffffffffffffffffffffffffffffffffffffffffffff0483118215151615614f4757614f46614cda565b5b828202905092915050565b614f5b81613c06565b82525050565b6000604082019050614f766000830185614f52565b614f836020830184614f52565b9392505050565b6000614f9d614f9884613d29565b613d0e565b905082815260208101848484011115614fb957614fb8613c98565b5b614fc4848285613e91565b509392505050565b600082601f830112614fe157614fe0613c93565b5b8151614ff1848260208601614f8a565b91505092915050565b600061500d61500884613f1f565b613d0e565b905080838252602082019050602084028301858111156150305761502f613f4b565b5b835b8181101561507757805167ffffffffffffffff81111561505557615054613c93565b5b8086016150628982614fcc565b85526020850194505050602081019050615032565b5050509392505050565b600082601f83011261509657615095613c93565b5b81516150a6848260208601614ffa565b91505092915050565b6000602082840312156150c5576150c4613a58565b5b600082015167ffffffffffffffff8111156150e3576150e2613a5d565b5b6150ef84828501615081565b91505092915050565b600060408201905061510d6000830185613c10565b61511a6020830184613b83565b9392505050565b60008151905061513081613c3a565b92915050565b60006020828403121561514c5761514b613a58565b5b600061515a84828501615121565b91505092915050565b7f4e6f206578697420706174687320617661696c61626c65000000000000000000600082015250565b6000615199601783613e80565b91506151a482615163565b602082019050919050565b600060208201905081810360008301526151c88161518c565b9050919050565b60006060820190506151e46000830186613b83565b6151f16020830185613c10565b81810360408301526152038184613ec4565b9050949350505050565b61521681613ae7565b811461522157600080fd5b50565b6000815190506152338161520d565b92915050565b60006020828403121561524f5761524e613a58565b5b600061525d84828501615224565b91505092915050565b7f6e6f7420616c6c207a6f6e6520696e64656365732076616c6964000000000000600082015250565b600061529c601a83613e80565b91506152a782615266565b602082019050919050565b600060208201905081810360008301526152cb8161528f565b9050919050565b60006152dd82613c06565b91506152e883613c06565b9250827fffffffffffffffffffffffffffffffffffffffffffffffffffffffffffffffff0382111561531d5761531c614cda565b5b828201905092915050565b60008190508160005260206000209050919050565b6000815461534a81614b64565b6153548186614d52565b9450600182166000811461536f5760018114615380576153b3565b60ff198316865281860193506153b3565b61538985615328565b60005b838110156153ab5781548189015260018201915060208101905061538c565b838801955050505b50505092915050565b60006153c8828461533d565b915081905092915050565b60006040820190506153e86000830185613c10565b6153f56020830184613c10565b9392505050565b60008151905061540b81613bad565b92915050565b60006020828403121561542757615426613a58565b5b6000615435848285016153fc565b91505092915050565b6000815461544b81614b64565b6154558186613e80565b945060018216600081146154705760018114615482576154b5565b60ff19831686526020860193506154b5565b61548b85615328565b60005b838110156154ad5781548189015260018201915060208101905061548e565b808801955050505b50505092915050565b60006060820190506154d36000830186613b83565b6154e06020830185613c10565b81810360408301526154f2818461543e565b9050949350505050565b7f416363657373436f6e74726f6c3a206163636f756e7420000000000000000000600082015250565b6000615532601783614d52565b915061553d826154fc565b601782019050919050565b7f206973206d697373696e6720726f6c6520000000000000000000000000000000600082015250565b600061557e601183614d52565b915061558982615548565b601182019050919050565b600061559f82615525565b91506155ab8285614d5d565b91506155b682615571565b91506155c28284614d5d565b91508190509392505050565b60006155d982613c06565b915060008214156155ed576155ec614cda565b5b600182039050919050565b7f537472696e67733a20686578206c656e67746820696e73756666696369656e74600082015250565b600061562e602083613e80565b9150615639826155f8565b602082019050919050565b6000602082019050818103600083015261565d81615621565b9050919050565b600061566f82613c06565b915061567a83613c06565b92508282101561568d5761568c614cda565b5b828203905092915050565b7f4e487b7100000000000000000000000000000000000000000000000000000000600052603160045260246000fdfea26469706673582212203cae04a0f74c6447ba5c508c1d1583f9c52ad63acb6cfcae4e60282730993f0c64736f6c634300080b0033",
  "immutableReferences": {},
  "source": "// SPDX-License-Identifier: GPL-3.0\npragma solidity >=0.7.0 <0.9.0;\n\nimport \"../GameBoard.sol\";\nimport \"../libraries/XYCoords.sol\";\n\ncontract HexGrid is GameBoard {\n    uint256 public gridWidth;\n    uint256 public gridHeight;\n    address public zoneAddress;\n\n    constructor(\n        address adminAddress,\n        uint256 _gridWidth,\n        uint256 _gridHeight,\n        address _zoneAddress\n    ) GameBoard(adminAddress) {}\n\n    function createGrid(uint256 gameID) public virtual onlyFactoryGM {\n        address[] memory addresses = new address[](gridWidth * gridHeight);\n        string[] memory aliases = XYCoordinates.coordinates(\n            gridHeight,\n            gridWidth\n        );\n        for (uint256 i = 0; i < addresses.length; i++) {\n            addresses[i] = zoneAddress;\n        }\n        _addZones(addresses, aliases, gameID);\n    }\n\n    function connectZones(uint256 gameID) public virtual onlyFactoryGM {\n        // connect all zones where appropriate\n        // clockwise from top of hex: 0,1,2,3,4,5\n    }\n}\n",
  "sourcePath": "@luckymachines/game-core/contracts/src/v0.0/custom_boards/HexGrid.sol",
  "compiler": {
    "name": "solc",
    "version": "0.8.11+commit.d7f03943.Emscripten.clang"
  },
  "schemaVersion": "3.4.4",
  "updatedAt": "2022-05-02T05:10:56.318Z",
  "devdoc": {
    "kind": "dev",
    "methods": {
      "getRoleAdmin(bytes32)": {
        "details": "Returns the admin role that controls `role`. See {grantRole} and {revokeRole}. To change a role's admin, use {_setRoleAdmin}."
      },
      "getRoleMember(bytes32,uint256)": {
        "details": "Returns one of the accounts that have `role`. `index` must be a value between 0 and {getRoleMemberCount}, non-inclusive. Role bearers are not sorted in any particular way, and their ordering may change at any point. WARNING: When using {getRoleMember} and {getRoleMemberCount}, make sure you perform all queries on the same block. See the following https://forum.openzeppelin.com/t/iterating-over-elements-on-enumerableset-in-openzeppelin-contracts/2296[forum post] for more information."
      },
      "getRoleMemberCount(bytes32)": {
        "details": "Returns the number of accounts that have `role`. Can be used together with {getRoleMember} to enumerate all bearers of a role."
      },
      "grantRole(bytes32,address)": {
        "details": "Grants `role` to `account`. If `account` had not been already granted `role`, emits a {RoleGranted} event. Requirements: - the caller must have ``role``'s admin role."
      },
      "hasRole(bytes32,address)": {
        "details": "Returns `true` if `account` has been granted `role`."
      },
      "renounceRole(bytes32,address)": {
        "details": "Revokes `role` from the calling account. Roles are often managed via {grantRole} and {revokeRole}: this function's purpose is to provide a mechanism for accounts to lose their privileges if they are compromised (such as when a trusted device is misplaced). If the calling account had been revoked `role`, emits a {RoleRevoked} event. Requirements: - the caller must be `account`."
      },
      "revokeRole(bytes32,address)": {
        "details": "Revokes `role` from `account`. If `account` had been granted `role`, emits a {RoleRevoked} event. Requirements: - the caller must have ``role``'s admin role."
      },
      "supportsInterface(bytes4)": {
        "details": "See {IERC165-supportsInterface}."
      }
    },
    "version": 1
  },
  "userdoc": {
    "kind": "user",
    "methods": {},
    "version": 1
  }
}