{
  "contractName": "HexplorationGameplay",
  "abi": [
    {
      "inputs": [
        {
          "internalType": "address",
          "name": "_gameSummaryAddress",
          "type": "address"
        },
        {
          "internalType": "address",
          "name": "gameBoardAddress",
          "type": "address"
        },
        {
          "internalType": "address",
          "name": "eventDeck",
          "type": "address"
        },
        {
          "internalType": "address",
          "name": "treasureDeck",
          "type": "address"
        },
        {
          "internalType": "address",
          "name": "ambushDeck",
          "type": "address"
        }
      ],
      "stateMutability": "nonpayable",
      "type": "constructor"
    },
    {
      "anonymous": false,
      "inputs": [
        {
          "indexed": true,
          "internalType": "bytes32",
          "name": "role",
          "type": "bytes32"
        },
        {
          "indexed": true,
          "internalType": "bytes32",
          "name": "previousAdminRole",
          "type": "bytes32"
        },
        {
          "indexed": true,
          "internalType": "bytes32",
          "name": "newAdminRole",
          "type": "bytes32"
        }
      ],
      "name": "RoleAdminChanged",
      "type": "event"
    },
    {
      "anonymous": false,
      "inputs": [
        {
          "indexed": true,
          "internalType": "bytes32",
          "name": "role",
          "type": "bytes32"
        },
        {
          "indexed": true,
          "internalType": "address",
          "name": "account",
          "type": "address"
        },
        {
          "indexed": true,
          "internalType": "address",
          "name": "sender",
          "type": "address"
        }
      ],
      "name": "RoleGranted",
      "type": "event"
    },
    {
      "anonymous": false,
      "inputs": [
        {
          "indexed": true,
          "internalType": "bytes32",
          "name": "role",
          "type": "bytes32"
        },
        {
          "indexed": true,
          "internalType": "address",
          "name": "account",
          "type": "address"
        },
        {
          "indexed": true,
          "internalType": "address",
          "name": "sender",
          "type": "address"
        }
      ],
      "name": "RoleRevoked",
      "type": "event"
    },
    {
      "inputs": [],
      "name": "DEFAULT_ADMIN_ROLE",
      "outputs": [
        {
          "internalType": "bytes32",
          "name": "",
          "type": "bytes32"
        }
      ],
      "stateMutability": "view",
      "type": "function"
    },
    {
      "inputs": [],
      "name": "VERIFIED_CONTROLLER_ROLE",
      "outputs": [
        {
          "internalType": "bytes32",
          "name": "",
          "type": "bytes32"
        }
      ],
      "stateMutability": "view",
      "type": "function"
    },
    {
      "inputs": [
        {
          "internalType": "bytes32",
          "name": "role",
          "type": "bytes32"
        }
      ],
      "name": "getRoleAdmin",
      "outputs": [
        {
          "internalType": "bytes32",
          "name": "",
          "type": "bytes32"
        }
      ],
      "stateMutability": "view",
      "type": "function"
    },
    {
      "inputs": [
        {
          "internalType": "bytes32",
          "name": "role",
          "type": "bytes32"
        },
        {
          "internalType": "uint256",
          "name": "index",
          "type": "uint256"
        }
      ],
      "name": "getRoleMember",
      "outputs": [
        {
          "internalType": "address",
          "name": "",
          "type": "address"
        }
      ],
      "stateMutability": "view",
      "type": "function"
    },
    {
      "inputs": [
        {
          "internalType": "bytes32",
          "name": "role",
          "type": "bytes32"
        }
      ],
      "name": "getRoleMemberCount",
      "outputs": [
        {
          "internalType": "uint256",
          "name": "",
          "type": "uint256"
        }
      ],
      "stateMutability": "view",
      "type": "function"
    },
    {
      "inputs": [
        {
          "internalType": "bytes32",
          "name": "role",
          "type": "bytes32"
        },
        {
          "internalType": "address",
          "name": "account",
          "type": "address"
        }
      ],
      "name": "grantRole",
      "outputs": [],
      "stateMutability": "nonpayable",
      "type": "function"
    },
    {
      "inputs": [
        {
          "internalType": "bytes32",
          "name": "role",
          "type": "bytes32"
        },
        {
          "internalType": "address",
          "name": "account",
          "type": "address"
        }
      ],
      "name": "hasRole",
      "outputs": [
        {
          "internalType": "bool",
          "name": "",
          "type": "bool"
        }
      ],
      "stateMutability": "view",
      "type": "function"
    },
    {
      "inputs": [
        {
          "internalType": "bytes32",
          "name": "role",
          "type": "bytes32"
        },
        {
          "internalType": "address",
          "name": "account",
          "type": "address"
        }
      ],
      "name": "renounceRole",
      "outputs": [],
      "stateMutability": "nonpayable",
      "type": "function"
    },
    {
      "inputs": [
        {
          "internalType": "bytes32",
          "name": "role",
          "type": "bytes32"
        },
        {
          "internalType": "address",
          "name": "account",
          "type": "address"
        }
      ],
      "name": "revokeRole",
      "outputs": [],
      "stateMutability": "nonpayable",
      "type": "function"
    },
    {
      "inputs": [
        {
          "internalType": "bytes4",
          "name": "interfaceId",
          "type": "bytes4"
        }
      ],
      "name": "supportsInterface",
      "outputs": [
        {
          "internalType": "bool",
          "name": "",
          "type": "bool"
        }
      ],
      "stateMutability": "view",
      "type": "function"
    },
    {
      "inputs": [
        {
          "internalType": "uint256",
          "name": "",
          "type": "uint256"
        }
      ],
      "name": "updatesComplete",
      "outputs": [
        {
          "internalType": "bool",
          "name": "",
          "type": "bool"
        }
      ],
      "stateMutability": "view",
      "type": "function"
    },
    {
      "inputs": [
        {
          "internalType": "address",
          "name": "vcAddress",
          "type": "address"
        }
      ],
      "name": "addVerifiedController",
      "outputs": [],
      "stateMutability": "nonpayable",
      "type": "function"
    },
    {
      "inputs": [
        {
          "internalType": "address",
          "name": "queueContract",
          "type": "address"
        }
      ],
      "name": "setQueue",
      "outputs": [],
      "stateMutability": "nonpayable",
      "type": "function"
    },
    {
      "inputs": [
        {
          "internalType": "address",
          "name": "gsuAddress",
          "type": "address"
        }
      ],
      "name": "setGameStateUpdate",
      "outputs": [],
      "stateMutability": "nonpayable",
      "type": "function"
    },
    {
      "inputs": [],
      "name": "needsUpkeep",
      "outputs": [
        {
          "internalType": "bool",
          "name": "upkeepNeeded",
          "type": "bool"
        },
        {
          "internalType": "bytes",
          "name": "performData",
          "type": "bytes"
        }
      ],
      "stateMutability": "view",
      "type": "function"
    },
    {
      "inputs": [
        {
          "internalType": "bytes",
          "name": "performData",
          "type": "bytes"
        }
      ],
      "name": "doUpkeep",
      "outputs": [],
      "stateMutability": "nonpayable",
      "type": "function"
    },
    {
      "inputs": [
        {
          "internalType": "bytes",
          "name": "performData",
          "type": "bytes"
        }
      ],
      "name": "performUpkeep",
      "outputs": [],
      "stateMutability": "nonpayable",
      "type": "function"
    },
    {
      "inputs": [
        {
          "internalType": "bytes",
          "name": "",
          "type": "bytes"
        }
      ],
      "name": "checkUpkeep",
      "outputs": [
        {
          "internalType": "bool",
          "name": "upkeepNeeded",
          "type": "bool"
        },
        {
          "internalType": "bytes",
          "name": "performData",
          "type": "bytes"
        }
      ],
      "stateMutability": "view",
      "type": "function"
    },
    {
      "inputs": [
        {
          "internalType": "uint256",
          "name": "queueID",
          "type": "uint256"
        },
        {
          "internalType": "uint256",
          "name": "playerID",
          "type": "uint256"
        }
      ],
      "name": "dig",
      "outputs": [
        {
          "internalType": "uint256",
          "name": "resultType",
          "type": "uint256"
        }
      ],
      "stateMutability": "view",
      "type": "function"
    },
    {
      "inputs": [
        {
          "internalType": "uint256",
          "name": "numDice",
          "type": "uint256"
        },
        {
          "internalType": "uint256",
          "name": "queueID",
          "type": "uint256"
        },
        {
          "internalType": "uint256",
          "name": "rollSeed",
          "type": "uint256"
        }
      ],
      "name": "attributeRoll",
      "outputs": [
        {
          "internalType": "uint256",
          "name": "rollTotal",
          "type": "uint256"
        }
      ],
      "stateMutability": "view",
      "type": "function"
    },
    {
      "inputs": [
        {
          "internalType": "uint256",
          "name": "numDice",
          "type": "uint256"
        },
        {
          "internalType": "uint256",
          "name": "queueID",
          "type": "uint256"
        },
        {
          "internalType": "uint256",
          "name": "rollSeed",
          "type": "uint256"
        }
      ],
      "name": "d6Roll",
      "outputs": [
        {
          "internalType": "uint256",
          "name": "rollTotal",
          "type": "uint256"
        }
      ],
      "stateMutability": "view",
      "type": "function"
    }
  ],
  "bytecode": "0x60806040523480156200001157600080fd5b50604051620052103803806200521083398101604081905262000034916200029b565b6200005c60006200004d640100000000620000bc810204565b640100000000620000c0810204565b60048054600160a060020a0319908116600160a060020a039687161790915560058054821696861696909617909555600680548616938516939093179092556007805485169184169190911790556008805490931691161790556200030b565b3390565b620000d58282640100000000620000d9810204565b5050565b620000f3828264010000000062000e106200012082021704565b60008281526001602052604090206200011b908264010000000062000e94620001bc82021704565b505050565b620001358282640100000000620001e5810204565b620000d557600082815260208181526040808320600160a060020a03851684529091529020805460ff1916600117905562000178640100000000620000bc810204565b600160a060020a031681600160a060020a0316837f2f8788117e7eff1d82e926ec794901d17c78024a50270940304540a733656f0d60405160405180910390a45050565b6000620001dc83600160a060020a0384166401000000006200020e810204565b90505b92915050565b600091825260208281526040808420600160a060020a0393909316845291905290205460ff1690565b600062000225838364010000000062000266810204565b6200025d57508154600181810184556000848152602080822090930184905584548482528286019093526040902091909155620001df565b506000620001df565b60009081526001919091016020526040902054151590565b8051600160a060020a03811681146200029657600080fd5b919050565b600080600080600060a08688031215620002b457600080fd5b620002bf866200027e565b9450620002cf602087016200027e565b9350620002df604087016200027e565b9250620002ef606087016200027e565b9150620002ff608087016200027e565b90509295509295909350565b614ef5806200031b6000396000f3fe608060405234801561001057600080fd5b506004361061013b5760003560e060020a9004806391d14854116100bc578063d4f5b15211610080578063d4f5b152146102af578063d547741f146102c2578063e4546e43146102d5578063ec9e275e146102e8578063f3ee7e2c1461030b578063f80ddc471461031e57600080fd5b806391d148541461025b578063a217fddf1461026e578063a605e7ae14610276578063c53f678114610289578063ca15c8731461029c57600080fd5b806330e047f41161010357806330e047f4146101d657806336568abe146101e95780634585e33b146101fc5780636e04ff0d1461020f5780639010d07c1461023057600080fd5b806301ffc9a7146101405780631c834a7f14610168578063248a9ca31461018b578063293dff3e146101ae5780632f2ff15d146101c1575b600080fd5b61015361014e3660046140c2565b610326565b60405190151581526020015b60405180910390f35b61017d600080516020614ea083398151915281565b60405190815260200161015f565b61017d6101993660046140ec565b60009081526020819052604090206001015490565b61017d6101bc366004614105565b61036a565b6101d46101cf366004614143565b61051b565b005b6101d46101e436600461416f565b610545565b6101d46101f7366004614143565b6105ba565b6101d461020a36600461416f565b61064e565b61022261021d36600461416f565b6106b7565b60405161015f92919061423d565b61024361023e366004614105565b6108f1565b604051600160a060020a03909116815260200161015f565b610153610269366004614143565b610910565b61017d600081565b6101d4610284366004614260565b610939565b61017d61029736600461427b565b610974565b61017d6102aa3660046140ec565b610a2a565b6101d46102bd366004614260565b610a41565b6101d46102d0366004614143565b610a64565b61017d6102e336600461427b565b610a89565b6101536102f63660046140ec565b60096020526000908152604090205460ff1681565b6101d4610319366004614260565b610b91565b610222610bdc565b6000600160e060020a031982167f5a05180f000000000000000000000000000000000000000000000000000000001480610364575061036482610ea9565b92915050565b60025460405160e560020a630516e2c302815260048101849052602481018390526000918291600191600160a060020a03169063a2dc586090604401600060405180830381865afa1580156103c3573d6000803e3d6000fd5b505050506040513d6000823e601f3d908101601f191682016040526103eb9190810190614379565b516103f69190614445565b60025460405160e560020a630516e2c30281526004810187905260248101869052919250600091600160a060020a039091169063a2dc586090604401600060405180830381865afa15801561044f573d6000803e3d6000fd5b505050506040513d6000823e601f3d908101601f191682016040526104779190810190614379565b6000815181106104895761048961445c565b6020026020010151905060006104a6838742886102e39190614475565b905060006104e9836040518060400160405280600381526020017f4461790000000000000000000000000000000000000000000000000000000000815250610f10565b6104f45760056104f7565b60045b60ff16905080821061050a57600361050d565b60025b60ff16979650505050505050565b60008281526020819052604090206001015461053681610f69565b6105408383610f76565b505050565b600061055081610f69565b610558613f5f565b60008061056785870187614494565b60608b015260808a01526040890152602088015260a087015285529092509050600281141561059f5761059a8284610f98565b6105b2565b80600314156105b2576105b28284611103565b505050505050565b600160a060020a03811633146106405760405160e560020a62461bcd02815260206004820152602f60248201527f416363657373436f6e74726f6c3a2063616e206f6e6c792072656e6f756e636560448201527f20726f6c657320666f722073656c66000000000000000000000000000000000060648201526084015b60405180910390fd5b61064a8282611377565b5050565b610656613f5f565b60008061066584860186614494565b60608b015260808a01526040890152602088015260a087015285529092509050600281141561069d576106988284610f98565b6106b0565b80600314156106b0576106b08284611103565b5050505050565b6002546040805160e060020a631a897239028152905160009260609284928392600160a060020a031691631a89723991600480830192869291908290030181865afa15801561070a573d6000803e3d6000fd5b505050506040513d6000823e601f3d908101601f1916820160405261073291908101906144e9565b905060005b8151811015610814578181815181106107525761075261445c565b60200260200101516000141580156107d8575060025460405160e060020a631b1d5b2702815260048101859052600091600160a060020a031690631b1d5b2790602401602060405180830381865afa1580156107b2573d6000803e3d6000fd5b505050506040513d601f19601f820116820180604052508101906107d69190614577565b115b15610802578181815181106107ef576107ef61445c565b6020026020010151925060019450610814565b8061080c81614590565b915050610737565b5060025460405160e060020a63b1fb640502815260048101849052600091600160a060020a03169063b1fb640590602401602060405180830381865afa158015610862573d6000803e3d6000fd5b505050506040513d601f19601f8201168201806040525081019061088691906145ab565b9050600281600581111561089c5761089c6145cc565b14156108b4576108ad836002611399565b93506108e7565b60038160058111156108c8576108c86145cc565b14156108d9576108ad836003611399565b6108e4836004611399565b93505b5050509250929050565b60008281526001602052604081206109099083611863565b9392505050565b600091825260208281526040808420600160a060020a0393909316845291905290205460ff1690565b600061094481610f69565b506003805473ffffffffffffffffffffffffffffffffffffffff1916600160a060020a0392909216919091179055565b60408051600380825260808201909252600091829190602082016060803683370190505090506000816000815181106109af576109af61445c565b602002602001019060ff16908160ff16815250506001816001815181106109d8576109d861445c565b602002602001019060ff16908160ff1681525050600281600281518110610a0157610a0161445c565b602002602001019060ff16908160ff1681525050610a218482878661186f565b95945050505050565b60008181526001602052604081206103649061197f565b6000610a4c81610f69565b61064a600080516020614ea08339815191528361051b565b600082815260208190526040902060010154610a7f81610f69565b6105408383611377565b60408051600680825260e082019092526000918291906020820160c080368337019050509050600181600081518110610ac457610ac461445c565b602002602001019060ff16908160ff1681525050600281600181518110610aed57610aed61445c565b602002602001019060ff16908160ff1681525050600381600281518110610b1657610b1661445c565b602002602001019060ff16908160ff1681525050600481600381518110610b3f57610b3f61445c565b602002602001019060ff16908160ff1681525050600581600481518110610b6857610b6861445c565b602002602001019060ff16908160ff1681525050600681600581518110610a0157610a0161445c565b6000610b9c81610f69565b6002805473ffffffffffffffffffffffffffffffffffffffff1916600160a060020a03841617905561064a600080516020614ea083398151915283611989565b6002546040805160e060020a631a897239028152905160009260609284928392600160a060020a031691631a89723991600480830192869291908290030181865afa158015610c2f573d6000803e3d6000fd5b505050506040513d6000823e601f3d908101601f19168201604052610c5791908101906144e9565b905060005b8151811015610cbd57818181518110610c7757610c7761445c565b6020026020010151600014610cab57818181518110610c9857610c9861445c565b6020026020010151925060019450610cbd565b80610cb581614590565b915050610c5c565b5060025460405160e060020a631b1d5b2702815260048101849052600160a060020a0390911690631b1d5b2790602401602060405180830381865afa158015610d0a573d6000803e3d6000fd5b505050506040513d601f19601f82011682018060405250810190610d2e9190614577565b610d3757600093505b60025460405160e060020a63b1fb640502815260048101849052600091600160a060020a03169063b1fb640590602401602060405180830381865afa158015610d84573d6000803e3d6000fd5b505050506040513d601f19601f82011682018060405250810190610da891906145ab565b90506002816005811115610dbe57610dbe6145cc565b1415610dd657610dcf836002611399565b9350610e09565b6003816005811115610dea57610dea6145cc565b1415610dfb57610dcf836003611399565b610e06836004611399565b93505b5050509091565b610e1a8282610910565b61064a57600082815260208181526040808320600160a060020a03851684529091529020805460ff19166001179055610e503390565b600160a060020a031681600160a060020a0316837f2f8788117e7eff1d82e926ec794901d17c78024a50270940304540a733656f0d60405160405180910390a45050565b600061090983600160a060020a038416611993565b6000600160e060020a031982167f7965db0b00000000000000000000000000000000000000000000000000000000148061036457507f01ffc9a700000000000000000000000000000000000000000000000000000000600160e060020a0319831614610364565b600081604051602001610f2391906145e5565b6040516020818303038152906040528051906020012083604051602001610f4a91906145e5565b6040516020818303038152906040528051906020012014905092915050565b610f7381336119e2565b50565b610f808282610e10565b60008281526001602052604090206105409082610e94565b60025460405160e060020a63cddbe72902815260048101849052600091600160a060020a03169063cddbe72990602401602060405180830381865afa158015610fe5573d6000803e3d6000fd5b505050506040513d601f19601f820116820180604052508101906110099190614577565b905060006110178484611a49565b60035460405160e060020a63fc96c533028152919250600160a060020a03169063fc96c5339061104d908490869060040161485d565b600060405180830381600087803b15801561106757600080fd5b505af115801561107b573d6000803e3d6000fd5b50506002546040517f04ac8fee000000000000000000000000000000000000000000000000000000008152600160a060020a0390911692506304ac8fee91506110cb906003908890600401614b3d565b600060405180830381600087803b1580156110e557600080fd5b505af11580156110f9573d6000803e3d6000fd5b5050505050505050565b60025460405160e060020a63b1fb640502815260048101849052600091600160a060020a03169063b1fb640590602401602060405180830381865afa158015611150573d6000803e3d6000fd5b505050506040513d601f19601f8201168201806040525081019061117491906145ab565b60025460405160e060020a631b1d5b2702815260048101869052919250600160a060020a031690631b1d5b2790602401602060405180830381865afa1580156111c1573d6000803e3d6000fd5b505050506040513d601f19601f820116820180604052508101906111e59190614577565b156105405760038160058111156111fe576111fe6145cc565b14156105405760025460405160e060020a63cddbe72902815260048101859052600091600160a060020a03169063cddbe72990602401602060405180830381865afa158015611251573d6000803e3d6000fd5b505050506040513d601f19601f820116820180604052508101906112759190614577565b9050600061128385856136ad565b60035460405160e060020a63fc96c533028152919250600091600160a060020a039091169063fc96c533906112be908590879060040161485d565b600060405180830381600087803b1580156112d857600080fd5b505af11580156112ec573d6000803e3d6000fd5b50506002546040517f8e6e1d89000000000000000000000000000000000000000000000000000000008152600481018a90528415156024820152600160a060020a039091169250638e6e1d899150604401600060405180830381600087803b15801561135757600080fd5b505af115801561136b573d6000803e3d6000fd5b50505050505050505050565b61138182826136bd565b60008281526001602052604090206105409082613722565b6040805160c08101825260008082526020820181905281830181905260608083018290526080830182905260a08301829052600254935160e060020a63ac01b83d028152600481018790529093600160a060020a03169063ac01b83d90602401600060405180830381865afa158015611416573d6000803e3d6000fd5b505050506040513d6000823e601f3d908101601f1916820160405261143e91908101906144e9565b905060005b81518110156117e15760008282815181106114605761146061445c565b60209081029190910101516002546040517f7f041591000000000000000000000000000000000000000000000000000000008152600481018a905260248101839052919250600091600160a060020a0390911690637f04159190604401602060405180830381865afa1580156114da573d6000803e3d6000fd5b505050506040513d601f19601f820116820180604052508101906114fe9190614b6c565b90506001816006811115611514576115146145cc565b14156115315760018560000181815161152d9190614b8d565b9052505b6002546040517ffd82e21f000000000000000000000000000000000000000000000000000000008152600481018a905260248101849052600091600160a060020a03169063fd82e21f90604401600060405180830381865afa15801561159b573d6000803e3d6000fd5b505050506040513d6000823e601f3d908101601f191682016040526115c39190810190614ba5565b5111156115e1576001856020018181516115dd9190614b8d565b9052505b6002546040517f9b8e6819000000000000000000000000000000000000000000000000000000008152600481018a905260248101849052600091600160a060020a031690639b8e681990604401600060405180830381865afa15801561164b573d6000803e3d6000fd5b505050506040513d6000823e601f3d908101601f191682016040526116739190810190614ba5565b5111156116915760018560200181815161168d9190614b8d565b9052505b60028160068111156116a5576116a56145cc565b14806116c2575060038160068111156116c0576116c06145cc565b145b156116de576001856040018181516116da9190614b8d565b9052505b60048160068111156116f2576116f26145cc565b148061170f5750600581600681111561170d5761170d6145cc565b145b8061172b57506006816006811115611729576117296145cc565b145b8061174757506002816006811115611745576117456145cc565b145b8061176357506003816006811115611761576117616145cc565b145b1561177f5760018560600181815161177b9190614b8d565b9052505b6004816006811115611793576117936145cc565b14806117b0575060058160068111156117ae576117ae6145cc565b145b156117cc5760018560a0018181516117c89190614b8d565b9052505b505080806117d990614590565b915050611443565b50848483600001518460a00151856020015186604001518760800151886060015160405160200161184a989796959493929190978852602088019690965260408701949094526060860192909252608085015260a084015260c083015260e08201526101000190565b6040516020818303038152906040529250505092915050565b60006109098383613737565b60025460405160e060020a631b1d5b27028152600481018690526000918291600160a060020a0390911690631b1d5b2790602401602060405180830381865afa1580156118c0573d6000803e3d6000fd5b505050506040513d601f19601f820116820180604052508101906118e49190614577565b905060005b848110156119755785518690836119008685614475565b6040805160208101939093528201526060810187905260800160408051601f19818403018152919052805160209091012061193b9190614bda565b8151811061194b5761194b61445c565b602002602001015160ff16836119619190614b8d565b92508061196d81614590565b9150506118e9565b5050949350505050565b6000610364825490565b61064a8282610f76565b60008181526001830160205260408120546119da57508154600181810184556000848152602080822090930184905584548482528286019093526040902091909155610364565b506000610364565b6119ec8282610910565b61064a57611a0481600160a060020a03166014613761565b611a0f836020613761565b604051602001611a20929190614bff565b60408051601f198184030181529082905260e560020a62461bcd02825261063791600401614c80565b611a51613f95565b611a59613f95565b60025460405160e060020a63ac01b83d02815260048101869052600091600160a060020a03169063ac01b83d90602401600060405180830381865afa158015611aa6573d6000803e3d6000fd5b505050506040513d6000823e601f3d908101601f19168201604052611ace91908101906144e9565b90506000846000015167ffffffffffffffff811115611aef57611aef6142a7565b604051908082528060200260200182016040528015611b18578160200160208202803683370190505b508352845167ffffffffffffffff811115611b3557611b356142a7565b604051908082528060200260200182016040528015611b5e578160200160208202803683370190505b506020840152845167ffffffffffffffff811115611b7e57611b7e6142a7565b604051908082528060200260200182016040528015611bb757816020015b611ba461404a565b815260200190600190039081611b9c5790505b506101c0840152506000805b8251811015611ed0576002548351600191600160a060020a031690637f041591908a90879086908110611bf857611bf861445c565b60200260200101516040518363ffffffff1660e060020a028152600401611c29929190918252602082015260400190565b602060405180830381865afa158015611c46573d6000803e3d6000fd5b505050506040513d601f19601f82011682018060405250810190611c6a9190614b6c565b6006811115611c7b57611c7b6145cc565b1415611ebe57828181518110611c9357611c9361445c565b602002602001015184600001518381518110611cb157611cb161445c565b60209081029190910101526002548351600160a060020a039091169063a2dc5860908990869085908110611ce757611ce761445c565b60200260200101516040518363ffffffff1660e060020a028152600401611d18929190918252602082015260400190565b600060405180830381865afa158015611d35573d6000803e3d6000fd5b505050506040513d6000823e601f3d908101601f19168201604052611d5d9190810190614379565b5184602001518381518110611d7457611d7461445c565b60209081029190910101526002548351600091600160a060020a03169063a2dc5860908a90879086908110611dab57611dab61445c565b60200260200101516040518363ffffffff1660e060020a028152600401611ddc929190918252602082015260400190565b600060405180830381865afa158015611df9573d6000803e3d6000fd5b505050506040513d6000823e601f3d908101601f19168201604052611e219190810190614379565b905060005b6007811015611eae5781518110611e4c5760405180602001604052806000815250611e67565b818181518110611e5e57611e5e61445c565b60200260200101515b866101c001518581518110611e7e57611e7e61445c565b60200260200101518260078110611e9757611e9761445c565b602002015280611ea681614590565b915050611e26565b5082611eb981614590565b935050505b80611ec881614590565b915050611bc3565b50846020015167ffffffffffffffff811115611eee57611eee6142a7565b604051908082528060200260200182016040528015611f17578160200160208202803683370190505b506040840152602085015167ffffffffffffffff811115611f3a57611f3a6142a7565b604051908082528060200260200182016040528015611f63578160200160208202803683370190505b506060840152602085015167ffffffffffffffff811115611f8657611f866142a7565b604051908082528060200260200182016040528015611fb957816020015b6060815260200190600190039081611fa45790505b506101e0840152506000805b82518110156121ba576002548351600091600160a060020a03169063fd82e21f908a90879086908110611ffa57611ffa61445c565b60200260200101516040518363ffffffff1660e060020a02815260040161202b929190918252602082015260400190565b600060405180830381865afa158015612048573d6000803e3d6000fd5b505050506040513d6000823e601f3d908101601f191682016040526120709190810190614ba5565b5111156121a8578281815181106120895761208961445c565b6020026020010151846040015183815181106120a7576120a761445c565b6020026020010181815250506000846060015183815181106120cb576120cb61445c565b60209081029190910101526002548351600160a060020a039091169063fd82e21f9089908690859081106121015761210161445c565b60200260200101516040518363ffffffff1660e060020a028152600401612132929190918252602082015260400190565b600060405180830381865afa15801561214f573d6000803e3d6000fd5b505050506040513d6000823e601f3d908101601f191682016040526121779190810190614ba5565b846101e00151838151811061218e5761218e61445c565b602002602001018190525081806121a490614590565b9250505b806121b281614590565b915050611fc5565b5060005b82518110156123b3576002548351600091600160a060020a031690639b8e6819908a908790869081106121f3576121f361445c565b60200260200101516040518363ffffffff1660e060020a028152600401612224929190918252602082015260400190565b600060405180830381865afa158015612241573d6000803e3d6000fd5b505050506040513d6000823e601f3d908101601f191682016040526122699190810190614ba5565b5111156123a1578281815181106122825761228261445c565b6020026020010151846040015183815181106122a0576122a061445c565b6020026020010181815250506001846060015183815181106122c4576122c461445c565b60209081029190910101526002548351600160a060020a0390911690639b8e68199089908690859081106122fa576122fa61445c565b60200260200101516040518363ffffffff1660e060020a02815260040161232b929190918252602082015260400190565b600060405180830381865afa158015612348573d6000803e3d6000fd5b505050506040513d6000823e601f3d908101601f191682016040526123709190810190614ba5565b846101e0015183815181106123875761238761445c565b6020026020010181905250818061239d90614590565b9250505b806123ab81614590565b9150506121be565b50846040015167ffffffffffffffff8111156123d1576123d16142a7565b6040519080825280602002602001820160405280156123fa578160200160208202803683370190505b506080840152604085015167ffffffffffffffff81111561241d5761241d6142a7565b604051908082528060200260200182016040528015612446578160200160208202803683370190505b5060a0840152604085015167ffffffffffffffff811115612469576124696142a7565b604051908082528060200260200182016040528015612492578160200160208202803683370190505b5060c0840152604085015167ffffffffffffffff8111156124b5576124b56142a7565b6040519080825280602002602001820160405280156124e857816020015b60608152602001906001900390816124d35790505b50610200840152506000805b82518110156126b357600280548451600160a060020a0390911690637f041591908a908790869081106125295761252961445c565b60200260200101516040518363ffffffff1660e060020a02815260040161255a929190918252602082015260400190565b602060405180830381865afa158015612577573d6000803e3d6000fd5b505050506040513d601f19601f8201168201806040525081019061259b9190614b6c565b60068111156125ac576125ac6145cc565b14156126a1576402540be400846080015183815181106125ce576125ce61445c565b6020026020010181815250508281815181106125ec576125ec61445c565b60200260200101518460a00151838151811061260a5761260a61445c565b60200260200101818152505060018460c00151838151811061262e5761262e61445c565b6020026020010181815250506040518060400160405280600881526020017f43616d707369746500000000000000000000000000000000000000000000000081525084610200015183815181106126875761268761445c565b6020026020010181905250818061269d90614590565b9250505b806126ab81614590565b9150506124f4565b5060005b8251811015612876576002548351600391600160a060020a031690637f041591908a908790869081106126ec576126ec61445c565b60200260200101516040518363ffffffff1660e060020a02815260040161271d929190918252602082015260400190565b602060405180830381865afa15801561273a573d6000803e3d6000fd5b505050506040513d601f19601f8201168201806040525081019061275e9190614b6c565b600681111561276f5761276f6145cc565b1415612864578281815181106127875761278761445c565b6020026020010151846080015183815181106127a5576127a561445c565b6020026020010181815250506402540be4008460a0015183815181106127cd576127cd61445c565b60200260200101818152505060018460c0015183815181106127f1576127f161445c565b6020026020010181815250506040518060400160405280600881526020017f43616d7073697465000000000000000000000000000000000000000000000000815250846102000151838151811061284a5761284a61445c565b6020026020010181905250818061286090614590565b9250505b8061286e81614590565b9150506126b7565b50846060015167ffffffffffffffff811115612894576128946142a7565b6040519080825280602002602001820160405280156128bd578160200160208202803683370190505b50610180840152606085015167ffffffffffffffff8111156128e1576128e16142a7565b60405190808252806020026020018201604052801561291457816020015b60608152602001906001900390816128ff5790505b50610240840152606085015167ffffffffffffffff811115612938576129386142a7565b60405190808252806020026020018201604052801561296b57816020015b60608152602001906001900390816129565790505b50610260840152606085015167ffffffffffffffff81111561298f5761298f6142a7565b6040519080825280602002602001820160405280156129b8578160200160208202803683370190505b50610280840152606085015167ffffffffffffffff8111156129dc576129dc6142a7565b604051908082528060200260200182016040528015612a1557816020015b612a02614071565b8152602001906001900390816129fa5790505b506102a0840152606085015167ffffffffffffffff811115612a3957612a396142a7565b604051908082528060200260200182016040528015612a7257816020015b612a5f61408a565b815260200190600190039081612a575790505b506102c084015260a085015167ffffffffffffffff811115612a9657612a966142a7565b604051908082528060200260200182016040528015612acf57816020015b612abc6140a4565b815260200190600190039081612ab45790505b50610160840152608085015167ffffffffffffffff811115612af357612af36142a7565b604051908082528060200260200182016040528015612b1c578160200160208202803683370190505b5060e0840152608085015167ffffffffffffffff811115612b3f57612b3f6142a7565b604051908082528060200260200182016040528015612b68578160200160208202803683370190505b50610100840152608085015167ffffffffffffffff811115612b8c57612b8c6142a7565b604051908082528060200260200182016040528015612bb5578160200160208202803683370190505b50610120840152608085015167ffffffffffffffff811115612bd957612bd96142a7565b604051908082528060200260200182016040528015612c0c57816020015b6060815260200190600190039081612bf75790505b5061022084015250600080805b835181101561362b57600280548551600160a060020a0390911690637f041591908b90889086908110612c4e57612c4e61445c565b60200260200101516040518363ffffffff1660e060020a028152600401612c7f929190918252602082015260400190565b602060405180830381865afa158015612c9c573d6000803e3d6000fd5b505050506040513d601f19601f82011682018060405250810190612cc09190614b6c565b6006811115612cd157612cd16145cc565b1415612daf576040518060400160405280600a81526020017f53657475702063616d70000000000000000000000000000000000000000000008152508561024001518481518110612d2457612d2461445c565b6020026020010181905250604051806020016040528060008152508561026001518481518110612d5657612d5661445c565b6020026020010181905250838181518110612d7357612d7361445c565b60200260200101518561018001518481518110612d9257612d9261445c565b602090810291909101015282612da781614590565b935050613619565b6002548451600391600160a060020a031690637f041591908b90889086908110612ddb57612ddb61445c565b60200260200101516040518363ffffffff1660e060020a028152600401612e0c929190918252602082015260400190565b602060405180830381865afa158015612e29573d6000803e3d6000fd5b505050506040513d601f19601f82011682018060405250810190612e4d9190614b6c565b6006811115612e5e57612e5e6145cc565b1415612ef9576040518060400160405280600f81526020017f427265616b20646f776e2063616d7000000000000000000000000000000000008152508561024001518481518110612eb157612eb161445c565b6020026020010181905250604051806020016040528060008152508561026001518481518110612ee357612ee361445c565b60200260200101819052508280612da790614590565b6002548451600491600160a060020a031690637f041591908b90889086908110612f2557612f2561445c565b60200260200101516040518363ffffffff1660e060020a028152600401612f56929190918252602082015260400190565b602060405180830381865afa158015612f73573d6000803e3d6000fd5b505050506040513d601f19601f82011682018060405250810190612f979190614b6c565b6006811115612fa857612fa86145cc565b1415613214576040518060400160405280600381526020017f44696700000000000000000000000000000000000000000000000000000000008152508561024001518481518110612ffb57612ffb61445c565b602002602001018190525060405180602001604052806000815250856102600151848151811061302d5761302d61445c565b602002602001018190525061305b8885838151811061304e5761304e61445c565b602002602001015161036a565b85610280015184815181106130725761307261445c565b6020026020010181815250506130c085610280015184815181106130985761309861445c565b6020026020010151898684815181106130b3576130b361445c565b6020026020010151613963565b8a6102a0015189815181106130d7576130d761445c565b60200260200101516000600281106130f1576130f161445c565b602002018b6101600151898151811061310c5761310c61445c565b602002602001018c6102c001518b8151811061312a5761312a61445c565b60200260200101516000600381106131445761314461445c565b602002018d6102c001518c8151811061315f5761315f61445c565b60200260200101516001600381106131795761317961445c565b602002018e6102c001518d815181106131945761319461445c565b60200260200101516002600381106131ae576131ae61445c565b602002018f6102a001518e815181106131c9576131c961445c565b60200260200101516001600281106131e3576131e361445c565b602002019590955294909352939092529290925291909152528161320681614590565b9250508280612da790614590565b6002548451600591600160a060020a031690637f041591908b908890869081106132405761324061445c565b60200260200101516040518363ffffffff1660e060020a028152600401613271929190918252602082015260400190565b602060405180830381865afa15801561328e573d6000803e3d6000fd5b505050506040513d601f19601f820116820180604052508101906132b29190614b6c565b60068111156132c3576132c36145cc565b1415613437576040518060400160405280600481526020017f526573740000000000000000000000000000000000000000000000000000000081525085610240015184815181106133165761331661445c565b60209081029190910101526002548451600160a060020a0390911690631b341b3e908a9087908590811061334c5761334c61445c565b602090810291909101015160405160e060020a63ffffffff85160281526004810192909252602482015260006044820152606401600060405180830381865afa15801561339d573d6000803e3d6000fd5b505050506040513d6000823e601f3d908101601f191682016040526133c59190810190614ba5565b85610260015184815181106133dc576133dc61445c565b602002602001018190525061340a888583815181106133fd576133fd61445c565b6020026020010151613bf5565b85610160015183815181106134215761342161445c565b6020026020010181905250818061320690614590565b6002548451600691600160a060020a031690637f041591908b908890869081106134635761346361445c565b60200260200101516040518363ffffffff1660e060020a028152600401613494929190918252602082015260400190565b602060405180830381865afa1580156134b1573d6000803e3d6000fd5b505050506040513d601f19601f820116820180604052508101906134d59190614b6c565b60068111156134e6576134e66145cc565b1415613619576040518060400160405280600481526020017f48656c700000000000000000000000000000000000000000000000000000000081525085610240015184815181106135395761353961445c565b60209081029190910101526002548451600160a060020a0390911690631b341b3e908a9087908590811061356f5761356f61445c565b602090810291909101015160405160e060020a63ffffffff85160281526004810192909252602482015260006044820152606401600060405180830381865afa1580156135c0573d6000803e3d6000fd5b505050506040513d6000823e601f3d908101601f191682016040526135e89190810190614ba5565b85610260015184815181106135ff576135ff61445c565b6020026020010181905250828061361590614590565b9350505b8061362381614590565b915050612c19565b5060025460405160e060020a631b1d5b2702815260048101899052600160a060020a0390911690631b1d5b2790602401602060405180830381865afa158015613678573d6000803e3d6000fd5b505050506040513d601f19601f8201168201806040525081019061369c9190614577565b6102e0850152509195945050505050565b6136b5613f95565b610909613f95565b6136c78282610910565b1561064a57600082815260208181526040808320600160a060020a0385168085529252808320805460ff1916905551339285917ff6391f5c32d9c69d2a47ea670b442974b53935d1edc7fd64eb21e047a839171b9190a45050565b600061090983600160a060020a038416613d91565b600082600001828154811061374e5761374e61445c565b9060005260206000200154905092915050565b60606000613770836002614475565b61377b906002614b8d565b67ffffffffffffffff811115613793576137936142a7565b6040519080825280601f01601f1916602001820160405280156137bd576020820181803683370190505b5090507f3000000000000000000000000000000000000000000000000000000000000000816000815181106137f4576137f461445c565b6020010190600160f860020a031916908160001a9053507f78000000000000000000000000000000000000000000000000000000000000008160018151811061383f5761383f61445c565b6020010190600160f860020a031916908160001a9053506000613863846002614475565b61386e906001614b8d565b90505b6001811115613911577f303132333435363738396162636465660000000000000000000000000000000085600f16601081106138af576138af61445c565b1a7f0100000000000000000000000000000000000000000000000000000000000000028282815181106138e4576138e461445c565b6020010190600160f860020a031916908160001a90535060109094049361390a81614c93565b9050613871565b5083156109095760405160e560020a62461bcd02815260206004820181905260248201527f537472696e67733a20686578206c656e67746820696e73756666696369656e746044820152606401610637565b606061396d6140a4565b6060806060808860011415613a915760065460025460405160e060020a631b1d5b27028152600481018b9052600160a060020a039283169263750211b9921690631b1d5b27906024015b602060405180830381865afa1580156139d4573d6000803e3d6000fd5b505050506040513d601f19601f820116820180604052508101906139f89190614577565b613a028b8b613e84565b6040518363ffffffff1660e060020a028152600401613a22929190614caa565b600060405180830381865afa158015613a3f573d6000803e3d6000fd5b505050506040513d6000823e601f3d908101601f19168201604052613a679190810190614cf4565b600094850b60408e015294840b60208d01529490920b8a5293995092965091945092509050613be9565b8860021415613ad95760085460025460405160e060020a631b1d5b27028152600481018b9052600160a060020a039283169263750211b9921690631b1d5b27906024016139b7565b60075460025460405160e060020a631b1d5b27028152600481018b9052600160a060020a039283169263750211b9921690631b1d5b2790602401602060405180830381865afa158015613b30573d6000803e3d6000fd5b505050506040513d601f19601f82011682018060405250810190613b549190614577565b613b5e8b8b613e84565b6040518363ffffffff1660e060020a028152600401613b7e929190614caa565b600060405180830381865afa158015613b9b573d6000803e3d6000fd5b505050506040513d6000823e601f3d908101601f19168201604052613bc39190810190614cf4565b600094850b60408e015294840b60208d01529490920b8a52939950929650919450925090505b93975093979195509350565b613bfd6140a4565b60025460405160e560020a630516e2c30281526004810185905260248101849052600091600160a060020a03169063a2dc586090604401600060405180830381865afa158015613c51573d6000803e3d6000fd5b505050506040513d6000823e601f3d908101601f19168201604052613c799190810190614379565b600081518110613c8b57613c8b61445c565b60200260200101519050613cd4816040518060400160405280600881526020017f4d6f76656d656e74000000000000000000000000000000000000000000000000815250610f10565b15613cf15760018260005b60009290920b60209092020152613d8a565b613d30816040518060400160405280600781526020017f4167696c69747900000000000000000000000000000000000000000000000000815250610f10565b15613d3e5760018281613cdf565b613d7d816040518060400160405280600981526020017f4465787465726974790000000000000000000000000000000000000000000000815250610f10565b15613d8a57600160408301525b5092915050565b60008181526001830160205260408120548015613e7a576000613db5600183614445565b8554909150600090613dc990600190614445565b9050818114613e2e576000866000018281548110613de957613de961445c565b9060005260206000200154905080876000018481548110613e0c57613e0c61445c565b6000918252602080832090910192909255918252600188019052604090208390555b8554869080613e3f57613e3f614df8565b600190038181906000526020600020016000905590558560010160008681526020019081526020016000206000905560019350505050610364565b6000915050610364565b613e8c6140a4565b6002546040517fae1305dd0000000000000000000000000000000000000000000000000000000081526004810185905260248101849052600091600160a060020a03169063ae1305dd90604401606060405180830381865afa158015613ef6573d6000803e3d6000fd5b505050506040513d601f19601f82011682018060405250810190613f1a9190614e11565b9050613f368160005b602002015160ff16856102974287614475565b8252613f43816001613f23565b6020830152613f53816002613f23565b60408301525092915050565b6040518060c001604052806000815260200160008152602001600081526020016000815260200160008152602001600081525090565b6040518061030001604052806060815260200160608152602001606081526020016060815260200160608152602001606081526020016060815260200160608152602001606081526020016060815260200160608152602001606081526020016060815260200160608152602001606081526020016060815260200160608152602001606081526020016060815260200160608152602001606081526020016060815260200160608152602001600081525090565b6040518060e001604052806007905b60608152602001906001900390816140595790505090565b6040805180820190915260608152600160208201614059565b604080516060808201909252908152600260208201614059565b60405180606001604052806003906020820280368337509192915050565b6000602082840312156140d457600080fd5b8135600160e060020a03198116811461090957600080fd5b6000602082840312156140fe57600080fd5b5035919050565b6000806040838503121561411857600080fd5b50508035926020909101359150565b8035600160a060020a038116811461413e57600080fd5b919050565b6000806040838503121561415657600080fd5b8235915061416660208401614127565b90509250929050565b6000806020838503121561418257600080fd5b823567ffffffffffffffff8082111561419a57600080fd5b818501915085601f8301126141ae57600080fd5b8135818111156141bd57600080fd5b8660208285010111156141cf57600080fd5b60209290920196919550909350505050565b60005b838110156141fc5781810151838201526020016141e4565b8381111561420b576000848401525b50505050565b600081518084526142298160208601602086016141e1565b601f01601f19169290920160200192915050565b82151581526040602082015260006142586040830184614211565b949350505050565b60006020828403121561427257600080fd5b61090982614127565b60008060006060848603121561429057600080fd5b505081359360208301359350604090920135919050565b60e060020a634e487b7102600052604160045260246000fd5b604051601f8201601f1916810167ffffffffffffffff811182821017156142e9576142e96142a7565b604052919050565b600067ffffffffffffffff82111561430b5761430b6142a7565b5060209081020190565b600082601f83011261432657600080fd5b815167ffffffffffffffff811115614340576143406142a7565b614353601f8201601f19166020016142c0565b81815284602083860101111561436857600080fd5b6142588260208301602087016141e1565b6000602080838503121561438c57600080fd5b825167ffffffffffffffff808211156143a457600080fd5b818501915085601f8301126143b857600080fd5b81516143cb6143c6826142f1565b6142c0565b818152908402830184019084810190888311156143e757600080fd5b8585015b8381101561441f578051858111156144035760008081fd5b6144118b89838a0101614315565b8452509186019186016143eb565b5098975050505050505050565b60e060020a634e487b7102600052601160045260246000fd5b6000828210156144575761445761442c565b500390565b60e060020a634e487b7102600052603260045260246000fd5b600081600019048311821515161561448f5761448f61442c565b500290565b600080600080600080600080610100898b0312156144b157600080fd5b505086359860208801359850604088013597606081013597506080810135965060a0810135955060c0810135945060e0013592509050565b600060208083850312156144fc57600080fd5b825167ffffffffffffffff81111561451357600080fd5b8301601f8101851361452457600080fd5b80516145326143c6826142f1565b8181529083028201830190838101908783111561454e57600080fd5b928401925b8284101561456c57835182529284019290840190614553565b979650505050505050565b60006020828403121561458957600080fd5b5051919050565b60006000198214156145a4576145a461442c565b5060010190565b6000602082840312156145bd57600080fd5b81516006811061090957600080fd5b60e060020a634e487b7102600052602160045260246000fd5b600082516145f78184602087016141e1565b9190910192915050565b600081518084526020808501945080840160005b8381101561463157815187529582019590820190600101614615565b509495945050505050565b60008151808452602080850194508084016000805b8481101561469357825188835b600381101561467d578251850b8252918601919086019060010161465e565b5050506060979097019691830191600101614651565b50959695505050505050565b60008151808452602080850180819650828402810191508286016000805b86811015614713578385038a5282518560e08101845b60078110156146fe5788820383526146ec828551614211565b938a0193928a019291506001016146d3565b509b88019b96505050918501916001016146bd565b509298975050505050505050565b600081518084526020808501808196508284028101915082860160005b85811015614768578284038952614756848351614211565b9885019893509084019060010161473e565b5091979650505050505050565b60008151808452602080850180819650828402810191508286016000805b86811015614713578385038a5282518560408101845b60028110156147d45788820383526147c2828551614211565b938a0193928a019291506001016147a9565b509b88019b9650505091850191600101614793565b60008151808452602080850180819650828402810191508286016000805b86811015614713578385038a5282518560608101845b6003811015614848578882038352614836828551614211565b938a0193928a0192915060010161481d565b509b88019b9650505091850191600101614807565b604081526000835161030080604085015261487c610340850183614601565b91506020860151603f198086850301606087015261489a8483614601565b935060408801519150808685030160808701526148b78483614601565b935060608801519150808685030160a08701526148d48483614601565b935060808801519150808685030160c08701526148f18483614601565b935060a08801519150808685030160e087015261490e8483614601565b935060c0880151915061010081878603018188015261492d8584614601565b945060e0890151925061012082888703018189015261494c8685614601565b9550818a01519350610140915082888703018289015261496c8685614601565b9550808a015193505061016082888703018189015261498b8685614601565b9550818a0151935061018091508288870301828901526149ab8685614601565b9550808a01519350506101a08288870301818901526149ca868561463c565b9550818a015193506101c091508288870301828901526149ea8685614601565b9550808a01519350506101e0828887030181890152614a098685614211565b9550818a015193506102009150828887030182890152614a29868561469f565b9550808a0151935050610220828887030181890152614a488685614721565b9550818a015193506102409150828887030182890152614a688685614721565b9550808a0151935050610260828887030181890152614a878685614721565b9550818a015193506102809150828887030182890152614aa78685614721565b9550808a01519350506102a0828887030181890152614ac68685614721565b9550818a015193506102c09150828887030182890152614ae68685614601565b9550808a01519350506102e0828887030181890152614b058685614775565b9550818a01519350828887030185890152614b2086856147e9565b990151610320880152505050506020909201929092525090919050565b6040810160068410614b625760e060020a634e487b7102600052602160045260246000fd5b9281526020015290565b600060208284031215614b7e57600080fd5b81516007811061090957600080fd5b60008219821115614ba057614ba061442c565b500190565b600060208284031215614bb757600080fd5b815167ffffffffffffffff811115614bce57600080fd5b61425884828501614315565b600082614bfa5760e060020a634e487b7102600052601260045260246000fd5b500690565b7f416363657373436f6e74726f6c3a206163636f756e7420000000000000000000815260008351614c378160178501602088016141e1565b7f206973206d697373696e6720726f6c65200000000000000000000000000000006017918401918201528351614c748160288401602088016141e1565b01602801949350505050565b6020815260006109096020830184614211565b600081614ca257614ca261442c565b506000190190565b8281526080810160208083018460005b6003811015614cd757815183529183019190830190600101614cba565b505050509392505050565b8051600081900b811461413e57600080fd5b600080600080600080600080610100898b031215614d1157600080fd5b885167ffffffffffffffff80821115614d2957600080fd5b614d358c838d01614315565b9950614d4360208c01614ce2565b9850614d5160408c01614ce2565b9750614d5f60608c01614ce2565b965060808b0151915080821115614d7557600080fd5b614d818c838d01614315565b955060a08b0151915080821115614d9757600080fd5b614da38c838d01614315565b945060c08b0151915080821115614db957600080fd5b614dc58c838d01614315565b935060e08b0151915080821115614ddb57600080fd5b50614de88b828c01614315565b9150509295985092959890939650565b60e060020a634e487b7102600052603160045260246000fd5b600060608284031215614e2357600080fd5b82601f830112614e3257600080fd5b6040516060810181811067ffffffffffffffff82111715614e5557614e556142a7565b604052806060840185811115614e6a57600080fd5b845b81811015614e9457805160ff81168114614e865760008081fd5b835260209283019201614e6c565b50919594505050505056fe80e2196015fc06a9d891759f8e4f51eb314ef5e9ea068528a8ed0063b87759f0a2646970667358221220212e807a2ba42763fffce3e2c70ec3e1b081ba3787cbcd0ff77762129b0a994964736f6c634300080b0033",
  "immutableReferences": {},
  "source": "// SPDX-License-Identifier: GPL-3.0\npragma solidity >=0.7.0 <0.9.0;\n\nimport \"./HexplorationQueue.sol\";\nimport \"./HexplorationStateUpdate.sol\";\nimport \"./state/GameSummary.sol\";\nimport \"./HexplorationBoard.sol\";\nimport \"@openzeppelin/contracts/access/AccessControlEnumerable.sol\";\nimport \"@chainlink/contracts/src/v0.8/KeeperCompatible.sol\";\nimport \"./decks/CardDeck.sol\";\n\ncontract HexplorationGameplay is\n    AccessControlEnumerable,\n    KeeperCompatibleInterface\n{\n    bytes32 public constant VERIFIED_CONTROLLER_ROLE =\n        keccak256(\"VERIFIED_CONTROLLER_ROLE\");\n\n    HexplorationQueue QUEUE;\n    HexplorationStateUpdate GAME_STATE;\n    HexplorationBoard GAME_BOARD;\n    address gameSummaryAddress;\n    CardDeck EVENT_DECK;\n    CardDeck TREASURE_DECK;\n    CardDeck AMBUSH_DECK;\n\n    // Mapping from QueueID to updates needed to run\n    //mapping(uint256 => bool) public readyForKeeper;\n    mapping(uint256 => bool) public updatesComplete;\n\n    struct DataSummary {\n        uint256 playerPositionUpdates;\n        uint256 playerEquips;\n        uint256 zoneTransfers;\n        uint256 activeActions;\n        uint256 playerTransfers;\n        uint256 playerStatUpdates;\n    }\n\n    struct PlayUpdates {\n        uint256[] playerPositionIDs;\n        uint256[] spacesToMove;\n        uint256[] playerEquipIDs;\n        uint256[] playerEquipHands;\n        uint256[] zoneTransfersTo;\n        uint256[] zoneTransfersFrom;\n        uint256[] zoneTransferQtys;\n        uint256[] playerTransfersTo;\n        uint256[] playerTransfersFrom;\n        uint256[] playerTransferQtys;\n        uint256[] playerStatUpdateIDs;\n        int8[3][] playerStatUpdates; // amount to adjust, not final value\n        uint256[] playerActiveActionIDs;\n        string gamePhase;\n        string[7][] playerMovementOptions; // TODO: set this to max # of spaces possible\n        string[] playerEquips;\n        string[] zoneTransferItemTypes;\n        string[] playerTransferItemTypes;\n        string[] activeActions;\n        string[] activeActionOptions;\n        uint256[] activeActionResults; // 0 = None, 1 = Event, 2 = Ambush, 3 = Treasure\n        string[2][] activeActionResultCard; // Card for Event / ambush / treasure , outcome e.g. [\"Dance with locals\", \"You're amazing!\"]\n        string[3][] activeActionInventoryChanges; // [item loss, item gain, hand loss]\n        uint256 randomness;\n    }\n\n    constructor(\n        address _gameSummaryAddress,\n        address gameBoardAddress,\n        address eventDeck,\n        address treasureDeck,\n        address ambushDeck\n    ) {\n        _setupRole(DEFAULT_ADMIN_ROLE, _msgSender());\n        GAME_BOARD = HexplorationBoard(gameBoardAddress);\n        gameSummaryAddress = _gameSummaryAddress;\n        EVENT_DECK = CardDeck(eventDeck);\n        TREASURE_DECK = CardDeck(treasureDeck);\n        AMBUSH_DECK = CardDeck(ambushDeck);\n    }\n\n    function addVerifiedController(address vcAddress)\n        public\n        onlyRole(DEFAULT_ADMIN_ROLE)\n    {\n        grantRole(VERIFIED_CONTROLLER_ROLE, vcAddress);\n    }\n\n    function setQueue(address queueContract)\n        public\n        onlyRole(DEFAULT_ADMIN_ROLE)\n    {\n        QUEUE = HexplorationQueue(queueContract);\n        _setupRole(VERIFIED_CONTROLLER_ROLE, queueContract);\n    }\n\n    function setGameStateUpdate(address gsuAddress)\n        public\n        onlyRole(DEFAULT_ADMIN_ROLE)\n    {\n        GAME_STATE = HexplorationStateUpdate(gsuAddress);\n    }\n\n    // Test keeper functions\n    function needsUpkeep()\n        public\n        view\n        returns (bool upkeepNeeded, bytes memory performData)\n    {\n        upkeepNeeded = false;\n        uint256 queueIDToUpdate = 0;\n        uint256[] memory pq = QUEUE.getProcessingQueue();\n        for (uint256 i = 0; i < pq.length; i++) {\n            if (pq[i] != 0) {\n                queueIDToUpdate = pq[i];\n                upkeepNeeded = true;\n                break;\n            }\n        }\n        if (QUEUE.randomness(queueIDToUpdate) == 0) {\n            upkeepNeeded = false;\n        }\n\n        HexplorationQueue.ProcessingPhase phase = QUEUE.currentPhase(\n            queueIDToUpdate\n        );\n        // 2 = processing, 3 = play through, 4 = processed\n        if (phase == HexplorationQueue.ProcessingPhase.Processing) {\n            performData = getUpdateInfo(queueIDToUpdate, 2);\n        } else if (phase == HexplorationQueue.ProcessingPhase.PlayThrough) {\n            performData = getUpdateInfo(queueIDToUpdate, 3);\n        } else {\n            performData = getUpdateInfo(queueIDToUpdate, 4);\n        }\n    }\n\n    function doUpkeep(bytes calldata performData)\n        public\n        onlyRole(DEFAULT_ADMIN_ROLE)\n    {\n        DataSummary memory summary;\n        uint256 queueID;\n        uint256 processingPhase;\n        (\n            queueID,\n            processingPhase,\n            summary.playerPositionUpdates,\n            summary.playerStatUpdates,\n            summary.playerEquips,\n            summary.zoneTransfers,\n            summary.playerTransfers,\n            summary.activeActions\n        ) = abi.decode(\n            performData,\n            (\n                uint256,\n                uint256,\n                uint256,\n                uint256,\n                uint256,\n                uint256,\n                uint256,\n                uint256\n            )\n        );\n        if (processingPhase == 2) {\n            processPlayerActions(queueID, summary);\n        } else if (processingPhase == 3) {\n            processPlayThrough(queueID, summary);\n        }\n    }\n\n    // Keeper functions\n    function performUpkeep(bytes calldata performData) external override {\n        DataSummary memory summary;\n        uint256 queueID;\n        uint256 processingPhase;\n        (\n            queueID,\n            processingPhase,\n            summary.playerPositionUpdates,\n            summary.playerStatUpdates,\n            summary.playerEquips,\n            summary.zoneTransfers,\n            summary.playerTransfers,\n            summary.activeActions\n        ) = abi.decode(\n            performData,\n            (\n                uint256,\n                uint256,\n                uint256,\n                uint256,\n                uint256,\n                uint256,\n                uint256,\n                uint256\n            )\n        );\n        if (processingPhase == 2) {\n            processPlayerActions(queueID, summary);\n        } else if (processingPhase == 3) {\n            processPlayThrough(queueID, summary);\n        }\n    }\n\n    function checkUpkeep(\n        bytes calldata /* checkData */\n    )\n        external\n        view\n        override\n        returns (bool upkeepNeeded, bytes memory performData)\n    {\n        // check for list of queues that need updates...\n        upkeepNeeded = false;\n        uint256 queueIDToUpdate = 0;\n        uint256[] memory pq = QUEUE.getProcessingQueue();\n        for (uint256 i = 0; i < pq.length; i++) {\n            if (pq[i] != 0 && QUEUE.randomness(queueIDToUpdate) > 0) {\n                queueIDToUpdate = pq[i];\n                upkeepNeeded = true;\n                break;\n            }\n        }\n        HexplorationQueue.ProcessingPhase phase = QUEUE.currentPhase(\n            queueIDToUpdate\n        );\n        // 2 = processing, 3 = play through, 4 = processed\n        if (phase == HexplorationQueue.ProcessingPhase.Processing) {\n            performData = getUpdateInfo(queueIDToUpdate, 2);\n        } else if (phase == HexplorationQueue.ProcessingPhase.PlayThrough) {\n            performData = getUpdateInfo(queueIDToUpdate, 3);\n        } else {\n            performData = getUpdateInfo(queueIDToUpdate, 4);\n        }\n    }\n\n    function getUpdateInfo(uint256 queueID, uint256 processingPhase)\n        internal\n        view\n        returns (bytes memory)\n    {\n        DataSummary memory data = DataSummary(0, 0, 0, 0, 0, 0);\n        uint256[] memory playersInQueue = QUEUE.getAllPlayers(queueID);\n        for (uint256 i = 0; i < playersInQueue.length; i++) {\n            uint256 playerID = playersInQueue[i];\n            HexplorationQueue.Action action = QUEUE.submissionAction(\n                queueID,\n                playerID\n            );\n            if (action == HexplorationQueue.Action.Move) {\n                data.playerPositionUpdates += 1;\n            }\n            if (bytes(QUEUE.submissionLeftHand(queueID, playerID)).length > 0) {\n                data.playerEquips += 1;\n            }\n            if (\n                bytes(QUEUE.submissionRightHand(queueID, playerID)).length > 0\n            ) {\n                data.playerEquips += 1;\n            }\n            if (\n                action == HexplorationQueue.Action.SetupCamp ||\n                action == HexplorationQueue.Action.BreakDownCamp\n            ) {\n                data.zoneTransfers += 1;\n            }\n\n            if (\n                action == HexplorationQueue.Action.Dig ||\n                action == HexplorationQueue.Action.Rest ||\n                action == HexplorationQueue.Action.Help ||\n                action == HexplorationQueue.Action.SetupCamp ||\n                action == HexplorationQueue.Action.BreakDownCamp\n            ) {\n                data.activeActions += 1;\n            }\n\n            if (\n                action == HexplorationQueue.Action.Dig ||\n                action == HexplorationQueue.Action.Rest\n            ) {\n                data.playerStatUpdates += 1;\n            }\n        }\n        return (\n            abi.encode(\n                queueID,\n                processingPhase,\n                data.playerPositionUpdates,\n                data.playerStatUpdates,\n                data.playerEquips,\n                data.zoneTransfers,\n                data.playerTransfers,\n                data.activeActions\n            )\n        );\n    }\n\n    // Called by keeper\n    function processPlayerActions(uint256 queueID, DataSummary memory summary)\n        internal\n    {\n        uint256 gameID = QUEUE.game(queueID);\n        // TODO: save update struct with all the actions from queue (what was originally the ints array)\n        PlayUpdates memory playUpdates = playUpdatesForPlayerActionPhase(\n            queueID,\n            summary\n        );\n        GAME_STATE.postUpdates(playUpdates, gameID);\n        QUEUE.setPhase(HexplorationQueue.ProcessingPhase.PlayThrough, queueID);\n    }\n\n    function processPlayThrough(uint256 queueID, DataSummary memory summary)\n        internal\n    {\n        HexplorationQueue.ProcessingPhase phase = QUEUE.currentPhase(queueID);\n\n        if (QUEUE.randomness(queueID) != 0) {\n            if (phase == HexplorationQueue.ProcessingPhase.PlayThrough) {\n                uint256 gameID = QUEUE.game(queueID);\n                PlayUpdates memory playUpdates = playUpdatesForPlayThroughPhase(\n                    queueID,\n                    summary\n                );\n                // TODO: set this to true when game is finished\n                bool gameComplete = false;\n                GAME_STATE.postUpdates(playUpdates, gameID);\n                QUEUE.finishProcessing(queueID, gameComplete);\n            }\n        }\n    }\n\n    function playUpdatesForPlayerActionPhase(\n        uint256 queueID,\n        DataSummary memory summary\n    ) internal view returns (PlayUpdates memory) {\n        PlayUpdates memory playUpdates;\n\n        uint256[] memory playersInQueue = QUEUE.getAllPlayers(queueID);\n        uint256 position;\n        // uint256 maxMovementPerPlayer = 7;\n        // Movement\n        playUpdates.playerPositionIDs = new uint256[](\n            summary.playerPositionUpdates\n        );\n        playUpdates.spacesToMove = new uint256[](summary.playerPositionUpdates);\n        playUpdates.playerMovementOptions = new string[7][](\n            summary.playerPositionUpdates\n        );\n        position = 0;\n        for (uint256 i = 0; i < playersInQueue.length; i++) {\n            if (\n                QUEUE.submissionAction(queueID, playersInQueue[i]) ==\n                HexplorationQueue.Action.Move\n            ) {\n                // return [player id, # spaces to move]\n\n                playUpdates.playerPositionIDs[position] = playersInQueue[i];\n                playUpdates.spacesToMove[position] = QUEUE\n                    .getSubmissionOptions(queueID, playersInQueue[i])\n                    .length;\n                string[] memory options = QUEUE.getSubmissionOptions(\n                    queueID,\n                    playersInQueue[i]\n                );\n                for (uint256 j = 0; j < 7; j++) {\n                    playUpdates.playerMovementOptions[position][j] = j <\n                        options.length\n                        ? options[j]\n                        : \"\";\n                }\n                position++;\n            }\n        }\n\n        // LH equip\n        playUpdates.playerEquipIDs = new uint256[](summary.playerEquips);\n        playUpdates.playerEquipHands = new uint256[](summary.playerEquips);\n        playUpdates.playerEquips = new string[](summary.playerEquips);\n        position = 0;\n        for (uint256 i = 0; i < playersInQueue.length; i++) {\n            if (\n                bytes(QUEUE.submissionLeftHand(queueID, playersInQueue[i]))\n                    .length > 0\n            ) {\n                // return [player id, r/l hand (0/1)]\n\n                playUpdates.playerEquipIDs[position] = playersInQueue[i];\n                playUpdates.playerEquipHands[position] = 0;\n                playUpdates.playerEquips[position] = QUEUE.submissionLeftHand(\n                    queueID,\n                    playersInQueue[i]\n                );\n                position++;\n            }\n        }\n\n        // RH equip\n        for (uint256 i = 0; i < playersInQueue.length; i++) {\n            if (\n                bytes(QUEUE.submissionRightHand(queueID, playersInQueue[i]))\n                    .length > 0\n            ) {\n                // return [player id, r/l hand (0/1)]\n\n                playUpdates.playerEquipIDs[position] = playersInQueue[i];\n                playUpdates.playerEquipHands[position] = 1;\n                playUpdates.playerEquips[position] = QUEUE.submissionRightHand(\n                    queueID,\n                    playersInQueue[i]\n                );\n                position++;\n            }\n        }\n\n        // Camp actions\n        playUpdates.zoneTransfersTo = new uint256[](summary.zoneTransfers);\n        playUpdates.zoneTransfersFrom = new uint256[](summary.zoneTransfers);\n        playUpdates.zoneTransferQtys = new uint256[](summary.zoneTransfers);\n        playUpdates.zoneTransferItemTypes = new string[](summary.zoneTransfers);\n        position = 0;\n        for (uint256 i = 0; i < playersInQueue.length; i++) {\n            if (\n                QUEUE.submissionAction(queueID, playersInQueue[i]) ==\n                HexplorationQueue.Action.SetupCamp\n            ) {\n                // setup camp\n                // transfer from player to zone\n                // return [to ID, from ID, quantity]\n                // Transfer 1 campsite from player to current zone\n\n                playUpdates.zoneTransfersTo[position] = 10000000000; //10000000000 represents current play zone of player\n                playUpdates.zoneTransfersFrom[position] = playersInQueue[i];\n                playUpdates.zoneTransferQtys[position] = 1;\n                playUpdates.zoneTransferItemTypes[position] = \"Campsite\";\n                position++;\n            }\n        }\n\n        for (uint256 i = 0; i < playersInQueue.length; i++) {\n            if (\n                QUEUE.submissionAction(queueID, playersInQueue[i]) ==\n                HexplorationQueue.Action.BreakDownCamp\n            ) {\n                // break down camp\n                // transfer from zone to player\n                playUpdates.zoneTransfersTo[position] = playersInQueue[i];\n                playUpdates.zoneTransfersFrom[position] = 10000000000;\n                playUpdates.zoneTransferQtys[position] = 1;\n                playUpdates.zoneTransferItemTypes[position] = \"Campsite\";\n                position++;\n            }\n        }\n\n        playUpdates.playerActiveActionIDs = new uint256[](\n            summary.activeActions\n        );\n        playUpdates.activeActions = new string[](summary.activeActions);\n        playUpdates.activeActionOptions = new string[](summary.activeActions);\n        playUpdates.activeActionResults = new uint256[](summary.activeActions);\n        playUpdates.activeActionResultCard = new string[2][](\n            summary.activeActions\n        );\n        playUpdates.activeActionInventoryChanges = new string[3][](\n            summary.activeActions\n        );\n\n        playUpdates.playerStatUpdates = new int8[3][](\n            summary.playerStatUpdates\n        );\n        playUpdates.playerTransfersTo = new uint256[](summary.playerTransfers);\n        playUpdates.playerTransfersFrom = new uint256[](\n            summary.playerTransfers\n        );\n        playUpdates.playerTransferQtys = new uint256[](summary.playerTransfers);\n        playUpdates.playerTransferItemTypes = new string[](\n            summary.playerTransfers\n        );\n\n        position = 0;\n        // increase with each one added...\n        uint256 playerStatPosition = 0;\n        // Draw cards for dig this phase\n        for (uint256 i = 0; i < playersInQueue.length; i++) {\n            if (\n                QUEUE.submissionAction(queueID, playersInQueue[i]) ==\n                HexplorationQueue.Action.SetupCamp\n            ) {\n                playUpdates.activeActions[position] = \"Setup camp\";\n                playUpdates.activeActionOptions[position] = \"\";\n                playUpdates.playerActiveActionIDs[position] = playersInQueue[i];\n                position++;\n            } else if (\n                QUEUE.submissionAction(queueID, playersInQueue[i]) ==\n                HexplorationQueue.Action.BreakDownCamp\n            ) {\n                playUpdates.activeActions[position] = \"Break down camp\";\n                playUpdates.activeActionOptions[position] = \"\";\n                position++;\n            } else if (\n                QUEUE.submissionAction(queueID, playersInQueue[i]) ==\n                HexplorationQueue.Action.Dig\n            ) {\n                playUpdates.activeActions[position] = \"Dig\";\n                playUpdates.activeActionOptions[position] = \"\";\n                playUpdates.activeActionResults[position] = dig(\n                    queueID,\n                    playersInQueue[i]\n                );\n                (\n                    playUpdates.activeActionResultCard[position][0],\n                    playUpdates.playerStatUpdates[playerStatPosition],\n                    playUpdates.activeActionInventoryChanges[position][0],\n                    playUpdates.activeActionInventoryChanges[position][1],\n                    playUpdates.activeActionInventoryChanges[position][2],\n                    playUpdates.activeActionResultCard[position][1]\n                ) = drawCard(\n                    playUpdates.activeActionResults[position],\n                    queueID,\n                    playersInQueue[i]\n                );\n\n                playerStatPosition++;\n                position++;\n            } else if (\n                QUEUE.submissionAction(queueID, playersInQueue[i]) ==\n                HexplorationQueue.Action.Rest\n            ) {\n                playUpdates.activeActions[position] = \"Rest\";\n                playUpdates.activeActionOptions[position] = QUEUE\n                    .submissionOptions(queueID, playersInQueue[i], 0);\n\n                playUpdates.playerStatUpdates[playerStatPosition] = rest(\n                    queueID,\n                    playersInQueue[i]\n                );\n                playerStatPosition++;\n                position++;\n            } else if (\n                QUEUE.submissionAction(queueID, playersInQueue[i]) ==\n                HexplorationQueue.Action.Help\n            ) {\n                // TODO: use this...\n                playUpdates.activeActions[position] = \"Help\";\n                playUpdates.activeActionOptions[position] = QUEUE\n                    .submissionOptions(queueID, playersInQueue[i], 0);\n                position++;\n            }\n        }\n        playUpdates.randomness = QUEUE.randomness(queueID);\n\n        // only need to store current action as digging, resting, and play out during play phase\n\n        return playUpdates;\n    }\n\n    function playUpdatesForPlayThroughPhase(\n        uint256 queueID,\n        DataSummary memory summary\n    ) internal view returns (PlayUpdates memory) {\n        PlayUpdates memory playUpdates;\n        /*\n        // TODO: update to actual game phase at appropriate time...\n        HexplorationQueue.ProcessingPhase phase = QUEUE.currentPhase(queueID);\n\n        // TODO: set this to true when game is finished\n        bool gameComplete = false;\n\n        uint256 gameID = QUEUE.game(queueID);\n        //uint256 gameID = QUEUE.game(queueID);\n        // uint256 totalPlayers = PlayerRegistry(GAME_BOARD.prAddress())\n        //     .totalRegistrations(QUEUE.game(queueID));\n        CharacterCard cc = CharacterCard(GAME_BOARD.characterCard());\n\n        // setup endgame\n\n        //TODO:\n        // check current phase (day / night)\n        string memory currentPhase = \"Day\";\n        bool isDay = stringsMatch(currentPhase, \"Day\");\n        bool setupEndGame = false;\n        for (\n            uint256 i = 0;\n            i <\n            PlayerRegistry(GAME_BOARD.prAddress()).totalRegistrations(\n                QUEUE.game(queueID)\n            );\n            i++\n        ) {\n            uint256 playerID = i + 1;\n            uint256 activeAction = uint256(\n                QUEUE.activeAction(queueID, playerID)\n            );\n            if (activeAction == 4) {\n                // dig\n                if (stringsMatch(dig(queueID, playerID), \"Treasure\")) {\n                    // dug treasure! pick treasure card\n                    // if final artifact is found, setupEndGame = true;\n                } else {\n                    // dug ambush...\n                    // play out consequences\n                }\n            } else if (activeAction == 5) {\n                // rest\n                string memory restChoice = QUEUE.submissionOptions(\n                    queueID,\n                    playerID,\n                    0\n                );\n                if (stringsMatch(restChoice, \"Movement\")) {\n                    // add 1 to movement\n                } else if (stringsMatch(restChoice, \"Agility\")) {\n                    // add 1 to agility\n                } else if (stringsMatch(restChoice, \"Dexterity\")) {\n                    // add 1 to dexterity\n                }\n            } else if (activeAction == 6) {\n                //help\n                // set player ID to help (options) as string choice\n            }\n\n            // to get current player stats...\n            // cc.movement(gameID, playerID) => returns uint8\n            // cc.agility(gameID, playerID) => returns uint8\n            // cc.dexterity(gameID, playerID) => returns uint8\n\n            //to subtract from player stats...\n            //subToZero(uint256(playerStat), reductionAmount);\n            // can submit numbers higher than max here, but won't actually get set to those\n            // will get set to max if max exceeded\n        }\n\n        if (setupEndGame) {\n            // setup end game...\n        }\n        // update Phase (Day / Night);\n        playUpdates.gamePhase = isDay ? \"Night\" : \"Day\";\n\n        if (isDay) {\n            for (\n                uint256 i = 0;\n                i <\n                PlayerRegistry(GAME_BOARD.prAddress()).totalRegistrations(\n                    QUEUE.game(queueID)\n                );\n                i++\n            ) {\n                uint256 playerID = i + 1;\n                // if Day,\n                // roll D6\n                // if EVEN - Choose Event Card + calculate results + save to data\n                // if ODD - Choose Ambush Card + calculate results + save to data\n            }\n        }\n        */\n        return playUpdates;\n    }\n\n    function dig(uint256 queueID, uint256 playerID)\n        public\n        view\n        returns (uint256 resultType)\n    {\n        // if digging available... (should be pre-checked)\n        // roll dice (d6) for each player on space not resting\n\n        uint256 playersOnSpace = QUEUE\n            .getSubmissionOptions(queueID, playerID)\n            .length - 1;\n        string memory phase = QUEUE.getSubmissionOptions(queueID, playerID)[0];\n        uint256 rollOutcome = d6Roll(\n            playersOnSpace,\n            queueID,\n            playerID * block.timestamp\n        );\n        uint256 rollRequired = stringsMatch(phase, \"Day\") ? 4 : 5;\n        resultType = rollOutcome < rollRequired ? 2 : 3;\n\n        // if sum of rolls is greater than 5 during night win treasure\n        // if sum of rolls is greater than 4 during day win treasure\n        // return \"Treasure\" or \"Ambush\"\n        // Result types: 0 = None, 1 = Event, 2 = Ambush, 3 = Treasure\n    }\n\n    function playerRolls(uint256 queueID, uint256 playerID)\n        internal\n        view\n        returns (uint256[3] memory rolls)\n    {\n        uint8[3] memory playerStats = QUEUE.getStatsAtSubmission(\n            queueID,\n            playerID\n        );\n        rolls[0] = attributeRoll(\n            playerStats[0],\n            queueID,\n            playerID * block.timestamp\n        );\n        rolls[1] = attributeRoll(\n            playerStats[1],\n            queueID,\n            playerID * block.timestamp\n        );\n        rolls[2] = attributeRoll(\n            playerStats[2],\n            queueID,\n            playerID * block.timestamp\n        );\n    }\n\n    function rest(uint256 queueID, uint256 playerID)\n        internal\n        view\n        returns (int8[3] memory stats)\n    {\n        string memory statToRest = QUEUE.getSubmissionOptions(\n            queueID,\n            playerID\n        )[0];\n        if (stringsMatch(statToRest, \"Movement\")) {\n            stats[0] = 1;\n        } else if (stringsMatch(statToRest, \"Agility\")) {\n            stats[1] = 1;\n        } else if (stringsMatch(statToRest, \"Dexterity\")) {\n            stats[2] = 1;\n        }\n    }\n\n    function drawCard(\n        uint256 cardType,\n        uint256 queueID,\n        uint256 playerID\n    )\n        internal\n        view\n        returns (\n            string memory card,\n            int8[3] memory stats,\n            string memory itemTypeLoss,\n            string memory itemTypeGain,\n            string memory handLoss,\n            string memory outcome\n        )\n    {\n        // get randomness from queue  QUEUE.randomness(queueID)\n        // outputs should match up with what's returned from deck draw\n\n        if (cardType == 1) {\n            // draw from event deck\n            (\n                card,\n                stats[0],\n                stats[1],\n                stats[2],\n                itemTypeLoss,\n                itemTypeGain,\n                handLoss,\n                outcome\n            ) = EVENT_DECK.drawCard(\n                QUEUE.randomness(queueID),\n                playerRolls(queueID, playerID)\n            );\n        } else if (cardType == 2) {\n            // draw from ambush deck\n            (\n                card,\n                stats[0],\n                stats[1],\n                stats[2],\n                itemTypeLoss,\n                itemTypeGain,\n                handLoss,\n                outcome\n            ) = AMBUSH_DECK.drawCard(\n                QUEUE.randomness(queueID),\n                playerRolls(queueID, playerID)\n            );\n        } else {\n            // draw from treasure deck\n            (\n                card,\n                stats[0],\n                stats[1],\n                stats[2],\n                itemTypeLoss,\n                itemTypeGain,\n                handLoss,\n                outcome\n            ) = TREASURE_DECK.drawCard(\n                QUEUE.randomness(queueID),\n                playerRolls(queueID, playerID)\n            );\n        }\n    }\n\n    function attributeRoll(\n        uint256 numDice,\n        uint256 queueID,\n        uint256 rollSeed\n    ) public view returns (uint256 rollTotal) {\n        uint8[] memory die = new uint8[](3);\n        die[0] = 0;\n        die[1] = 1;\n        die[2] = 2;\n        rollTotal = rollDice(queueID, die, numDice, rollSeed);\n    }\n\n    function d6Roll(\n        uint256 numDice,\n        uint256 queueID,\n        uint256 rollSeed\n    ) public view returns (uint256 rollTotal) {\n        uint8[] memory die = new uint8[](6);\n        die[0] = 1;\n        die[1] = 2;\n        die[2] = 3;\n        die[3] = 4;\n        die[4] = 5;\n        die[5] = 6;\n        rollTotal = rollDice(queueID, die, numDice, rollSeed);\n    }\n\n    function rollDice(\n        uint256 queueID,\n        uint8[] memory diceValues,\n        uint256 diceQty,\n        uint256 rollSeed\n    ) internal view returns (uint256 rollTotal) {\n        rollTotal = 0;\n        uint256 randomness = QUEUE.randomness(queueID);\n        for (uint256 i = 0; i < diceQty; i++) {\n            rollTotal += diceValues[\n                uint256(\n                    keccak256(abi.encode(randomness, i * rollTotal, rollSeed))\n                ) % diceValues.length\n            ];\n        }\n    }\n\n    // Utilities\n    function stringsMatch(string memory s1, string memory s2)\n        internal\n        pure\n        returns (bool)\n    {\n        return\n            keccak256(abi.encodePacked(s1)) == keccak256(abi.encodePacked(s2));\n    }\n}\n\n/*\n\n        for (uint256 i = 0; i < playersInQueue.length; i++) {\n            if (\n                QUEUE.submissionAction(queueID, playersInQueue[i]) ==\n                HexplorationQueue.Action.SetupCamp\n            ) {\n                stringReturn[currentArrayPosition] = \"Setup camp\";\n                stringReturn[currentArrayPosition + 1] = \"\";\n                currentArrayPosition += 2;\n            } else if (\n                QUEUE.submissionAction(queueID, playersInQueue[i]) ==\n                HexplorationQueue.Action.BreakDownCamp\n            ) {\n                stringReturn[currentArrayPosition] = \"Break down camp\";\n                stringReturn[currentArrayPosition + 1] = \"\";\n                currentArrayPosition += 2;\n            } else if (\n                QUEUE.submissionAction(queueID, playersInQueue[i]) ==\n                HexplorationQueue.Action.Dig\n            ) {\n                stringReturn[currentArrayPosition] = \"Dig\";\n                stringReturn[currentArrayPosition + 1] = \"\";\n                currentArrayPosition += 2;\n            } else if (\n                QUEUE.submissionAction(queueID, playersInQueue[i]) ==\n                HexplorationQueue.Action.Rest\n            ) {\n                stringReturn[currentArrayPosition] = \"Rest\";\n                stringReturn[currentArrayPosition + 1] = QUEUE\n                    .submissionOptions(queueID, playersInQueue[i], 0);\n                currentArrayPosition += 2;\n            } else if (\n                QUEUE.submissionAction(queueID, playersInQueue[i]) ==\n                HexplorationQueue.Action.Help\n            ) {\n                stringReturn[currentArrayPosition] = \"Help\";\n                stringReturn[currentArrayPosition + 1] = QUEUE\n                    .submissionOptions(queueID, playersInQueue[i], 0);\n                currentArrayPosition += 2;\n            }\n        }\n\n        // Dig\n        for (uint256 i = 0; i < playersInQueue.length; i++) {\n            if (\n                QUEUE.submissionAction(queueID, playersInQueue[i]) ==\n                HexplorationQueue.Action.Dig\n            ) {\n                stringReturn[currentArrayPosition] = \"Dig\";\n                stringReturn[currentArrayPosition + 1] = \"\";\n                currentArrayPosition += 2;\n            }\n        }\n\n        //Rest\n        for (uint256 i = 0; i < playersInQueue.length; i++) {\n            if (\n                QUEUE.submissionAction(queueID, playersInQueue[i]) ==\n                HexplorationQueue.Action.Rest\n            ) {\n                stringReturn[currentArrayPosition] = \"Rest\";\n                stringReturn[currentArrayPosition + 1] = QUEUE\n                    .submissionOptions(queueID, playersInQueue[i], 0);\n                currentArrayPosition += 2;\n            }\n        }\n\n        // Help\n        for (uint256 i = 0; i < playersInQueue.length; i++) {\n            if (\n                QUEUE.submissionAction(queueID, playersInQueue[i]) ==\n                HexplorationQueue.Action.Help\n            ) {\n                stringReturn[currentArrayPosition] = \"Help\";\n                stringReturn[currentArrayPosition + 1] = QUEUE\n                    .submissionOptions(queueID, playersInQueue[i], 0);\n                currentArrayPosition += 2;\n            }\n        }\n        // set movement zones\n        return stringReturn;\n*/\n\n// What is processing?\n// take all moves from batch, verify are valid moves, and\n// return list of final moves to process\n// keeper will post list of final moves to contract,\n//// *shouldn't be able to fail if it got this far\n// moves that failed pre-check will be returned as another list that will get logged in an event\n\n// Initial thoughts for scaling...\n// figure out most expensive move and only do as many as can be safely completed\n// in one transaction\n// start at currentQueuePosition\n// after each move is processed currentQueuePosition++\n// on after final batch, switch day / night and\n// set QUEUE.setPhase(HexplorationQueue.ProcessingPhase.PlayThrough, queueID);\n",
  "sourcePath": "/Users/max/demo/hexploration/contracts/HexplorationGameplay.sol",
  "compiler": {
    "name": "solc",
    "version": "0.8.11+commit.d7f03943.Emscripten.clang"
  },
  "schemaVersion": "3.4.2",
  "updatedAt": "2022-05-27T05:04:34.029Z",
  "devdoc": {
    "kind": "dev",
    "methods": {
      "getRoleAdmin(bytes32)": {
        "details": "Returns the admin role that controls `role`. See {grantRole} and {revokeRole}. To change a role's admin, use {_setRoleAdmin}."
      },
      "getRoleMember(bytes32,uint256)": {
        "details": "Returns one of the accounts that have `role`. `index` must be a value between 0 and {getRoleMemberCount}, non-inclusive. Role bearers are not sorted in any particular way, and their ordering may change at any point. WARNING: When using {getRoleMember} and {getRoleMemberCount}, make sure you perform all queries on the same block. See the following https://forum.openzeppelin.com/t/iterating-over-elements-on-enumerableset-in-openzeppelin-contracts/2296[forum post] for more information."
      },
      "getRoleMemberCount(bytes32)": {
        "details": "Returns the number of accounts that have `role`. Can be used together with {getRoleMember} to enumerate all bearers of a role."
      },
      "grantRole(bytes32,address)": {
        "details": "Grants `role` to `account`. If `account` had not been already granted `role`, emits a {RoleGranted} event. Requirements: - the caller must have ``role``'s admin role."
      },
      "hasRole(bytes32,address)": {
        "details": "Returns `true` if `account` has been granted `role`."
      },
      "performUpkeep(bytes)": {
        "details": "The input to this method should not be trusted, and the caller of the method should not even be restricted to any single registry. Anyone should be able call it, and the input should be validated, there is no guarantee that the data passed in is the performData returned from checkUpkeep. This could happen due to malicious keepers, racing keepers, or simply a state change while the performUpkeep transaction is waiting for confirmation. Always validate the data passed in.",
        "params": {
          "performData": "is the data which was passed back from the checkData simulation. If it is encoded, it can easily be decoded into other types by calling `abi.decode`. This data should not be trusted, and should be validated against the contract's current state."
        }
      },
      "renounceRole(bytes32,address)": {
        "details": "Revokes `role` from the calling account. Roles are often managed via {grantRole} and {revokeRole}: this function's purpose is to provide a mechanism for accounts to lose their privileges if they are compromised (such as when a trusted device is misplaced). If the calling account had been revoked `role`, emits a {RoleRevoked} event. Requirements: - the caller must be `account`."
      },
      "revokeRole(bytes32,address)": {
        "details": "Revokes `role` from `account`. If `account` had been granted `role`, emits a {RoleRevoked} event. Requirements: - the caller must have ``role``'s admin role."
      },
      "supportsInterface(bytes4)": {
        "details": "See {IERC165-supportsInterface}."
      }
    },
    "version": 1
  },
  "userdoc": {
    "kind": "user",
    "methods": {
      "performUpkeep(bytes)": {
        "notice": "method that is actually executed by the keepers, via the registry. The data returned by the checkUpkeep simulation will be passed into this method to actually be executed."
      }
    },
    "version": 1
  }
}