{
  "contractName": "HexplorationZone",
  "abi": [
    {
      "inputs": [
        {
          "internalType": "address",
          "name": "_rulesetAddress",
          "type": "address"
        },
        {
          "internalType": "address",
          "name": "_gameRegistryAddress",
          "type": "address"
        },
        {
          "internalType": "address",
          "name": "adminAddress",
          "type": "address"
        },
        {
          "internalType": "address",
          "name": "factoryAddress",
          "type": "address"
        }
      ],
      "stateMutability": "nonpayable",
      "type": "constructor"
    },
    {
      "anonymous": false,
      "inputs": [
        {
          "indexed": true,
          "internalType": "bytes32",
          "name": "role",
          "type": "bytes32"
        },
        {
          "indexed": true,
          "internalType": "bytes32",
          "name": "previousAdminRole",
          "type": "bytes32"
        },
        {
          "indexed": true,
          "internalType": "bytes32",
          "name": "newAdminRole",
          "type": "bytes32"
        }
      ],
      "name": "RoleAdminChanged",
      "type": "event"
    },
    {
      "anonymous": false,
      "inputs": [
        {
          "indexed": true,
          "internalType": "bytes32",
          "name": "role",
          "type": "bytes32"
        },
        {
          "indexed": true,
          "internalType": "address",
          "name": "account",
          "type": "address"
        },
        {
          "indexed": true,
          "internalType": "address",
          "name": "sender",
          "type": "address"
        }
      ],
      "name": "RoleGranted",
      "type": "event"
    },
    {
      "anonymous": false,
      "inputs": [
        {
          "indexed": true,
          "internalType": "bytes32",
          "name": "role",
          "type": "bytes32"
        },
        {
          "indexed": true,
          "internalType": "address",
          "name": "account",
          "type": "address"
        },
        {
          "indexed": true,
          "internalType": "address",
          "name": "sender",
          "type": "address"
        }
      ],
      "name": "RoleRevoked",
      "type": "event"
    },
    {
      "inputs": [],
      "name": "CONTROLLER_ROLE",
      "outputs": [
        {
          "internalType": "bytes32",
          "name": "",
          "type": "bytes32"
        }
      ],
      "stateMutability": "view",
      "type": "function"
    },
    {
      "inputs": [],
      "name": "DEFAULT_ADMIN_ROLE",
      "outputs": [
        {
          "internalType": "bytes32",
          "name": "",
          "type": "bytes32"
        }
      ],
      "stateMutability": "view",
      "type": "function"
    },
    {
      "inputs": [],
      "name": "FACTORY_ROLE",
      "outputs": [
        {
          "internalType": "bytes32",
          "name": "",
          "type": "bytes32"
        }
      ],
      "stateMutability": "view",
      "type": "function"
    },
    {
      "inputs": [],
      "name": "GAME_BOARD_ROLE",
      "outputs": [
        {
          "internalType": "bytes32",
          "name": "",
          "type": "bytes32"
        }
      ],
      "stateMutability": "view",
      "type": "function"
    },
    {
      "inputs": [
        {
          "internalType": "address",
          "name": "controllerAddress",
          "type": "address"
        }
      ],
      "name": "addController",
      "outputs": [],
      "stateMutability": "nonpayable",
      "type": "function"
    },
    {
      "inputs": [
        {
          "internalType": "address",
          "name": "gameBoardAddress",
          "type": "address"
        }
      ],
      "name": "addGameBoard",
      "outputs": [],
      "stateMutability": "nonpayable",
      "type": "function"
    },
    {
      "inputs": [
        {
          "internalType": "uint256",
          "name": "exitPathIndex",
          "type": "uint256"
        },
        {
          "internalType": "uint256",
          "name": "gameID",
          "type": "uint256"
        },
        {
          "internalType": "address",
          "name": "gameBoardAddress",
          "type": "address"
        }
      ],
      "name": "attemptExit",
      "outputs": [],
      "stateMutability": "nonpayable",
      "type": "function"
    },
    {
      "inputs": [
        {
          "internalType": "address",
          "name": "playerAddress",
          "type": "address"
        },
        {
          "internalType": "uint256",
          "name": "exitPathIndex",
          "type": "uint256"
        },
        {
          "internalType": "uint256",
          "name": "gameID",
          "type": "uint256"
        },
        {
          "internalType": "string",
          "name": "zoneAlias",
          "type": "string"
        },
        {
          "internalType": "address",
          "name": "gameBoardAddress",
          "type": "address"
        }
      ],
      "name": "attemptExitFor",
      "outputs": [],
      "stateMutability": "nonpayable",
      "type": "function"
    },
    {
      "inputs": [
        {
          "internalType": "address",
          "name": "playerAddress",
          "type": "address"
        },
        {
          "internalType": "uint256",
          "name": "gameID",
          "type": "uint256"
        },
        {
          "internalType": "string",
          "name": "zoneAlias",
          "type": "string"
        }
      ],
      "name": "enterPlayer",
      "outputs": [],
      "stateMutability": "nonpayable",
      "type": "function"
    },
    {
      "inputs": [
        {
          "internalType": "uint256",
          "name": "",
          "type": "uint256"
        },
        {
          "internalType": "string",
          "name": "",
          "type": "string"
        }
      ],
      "name": "entryCount",
      "outputs": [
        {
          "internalType": "uint256",
          "name": "",
          "type": "uint256"
        }
      ],
      "stateMutability": "view",
      "type": "function"
    },
    {
      "inputs": [
        {
          "internalType": "uint256",
          "name": "",
          "type": "uint256"
        },
        {
          "internalType": "string",
          "name": "",
          "type": "string"
        }
      ],
      "name": "exitCount",
      "outputs": [
        {
          "internalType": "uint256",
          "name": "",
          "type": "uint256"
        }
      ],
      "stateMutability": "view",
      "type": "function"
    },
    {
      "inputs": [
        {
          "internalType": "address",
          "name": "playerAddress",
          "type": "address"
        },
        {
          "internalType": "uint256",
          "name": "gameID",
          "type": "uint256"
        },
        {
          "internalType": "string",
          "name": "zoneAlias",
          "type": "string"
        }
      ],
      "name": "exitPlayer",
      "outputs": [],
      "stateMutability": "nonpayable",
      "type": "function"
    },
    {
      "inputs": [],
      "name": "gameRegistryAddress",
      "outputs": [
        {
          "internalType": "address",
          "name": "",
          "type": "address"
        }
      ],
      "stateMutability": "view",
      "type": "function"
    },
    {
      "inputs": [
        {
          "internalType": "bytes32",
          "name": "role",
          "type": "bytes32"
        }
      ],
      "name": "getRoleAdmin",
      "outputs": [
        {
          "internalType": "bytes32",
          "name": "",
          "type": "bytes32"
        }
      ],
      "stateMutability": "view",
      "type": "function"
    },
    {
      "inputs": [
        {
          "internalType": "bytes32",
          "name": "role",
          "type": "bytes32"
        },
        {
          "internalType": "uint256",
          "name": "index",
          "type": "uint256"
        }
      ],
      "name": "getRoleMember",
      "outputs": [
        {
          "internalType": "address",
          "name": "",
          "type": "address"
        }
      ],
      "stateMutability": "view",
      "type": "function"
    },
    {
      "inputs": [
        {
          "internalType": "bytes32",
          "name": "role",
          "type": "bytes32"
        }
      ],
      "name": "getRoleMemberCount",
      "outputs": [
        {
          "internalType": "uint256",
          "name": "",
          "type": "uint256"
        }
      ],
      "stateMutability": "view",
      "type": "function"
    },
    {
      "inputs": [
        {
          "internalType": "bytes32",
          "name": "role",
          "type": "bytes32"
        },
        {
          "internalType": "address",
          "name": "account",
          "type": "address"
        }
      ],
      "name": "grantRole",
      "outputs": [],
      "stateMutability": "nonpayable",
      "type": "function"
    },
    {
      "inputs": [
        {
          "internalType": "bytes32",
          "name": "role",
          "type": "bytes32"
        },
        {
          "internalType": "address",
          "name": "account",
          "type": "address"
        }
      ],
      "name": "hasRole",
      "outputs": [
        {
          "internalType": "bool",
          "name": "",
          "type": "bool"
        }
      ],
      "stateMutability": "view",
      "type": "function"
    },
    {
      "inputs": [
        {
          "internalType": "string[]",
          "name": "stringParams",
          "type": "string[]"
        },
        {
          "internalType": "address[]",
          "name": "addressParams",
          "type": "address[]"
        },
        {
          "internalType": "uint256[]",
          "name": "uintParams",
          "type": "uint256[]"
        }
      ],
      "name": "performCustomAction",
      "outputs": [],
      "stateMutability": "nonpayable",
      "type": "function"
    },
    {
      "inputs": [
        {
          "internalType": "uint256",
          "name": "",
          "type": "uint256"
        },
        {
          "internalType": "string",
          "name": "",
          "type": "string"
        }
      ],
      "name": "playerCount",
      "outputs": [
        {
          "internalType": "uint256",
          "name": "",
          "type": "uint256"
        }
      ],
      "stateMutability": "view",
      "type": "function"
    },
    {
      "inputs": [],
      "name": "playersInZone",
      "outputs": [
        {
          "internalType": "uint256[]",
          "name": "",
          "type": "uint256[]"
        }
      ],
      "stateMutability": "view",
      "type": "function"
    },
    {
      "inputs": [
        {
          "internalType": "address",
          "name": "controllerAddress",
          "type": "address"
        }
      ],
      "name": "removeController",
      "outputs": [],
      "stateMutability": "nonpayable",
      "type": "function"
    },
    {
      "inputs": [
        {
          "internalType": "address",
          "name": "gameBoardAddress",
          "type": "address"
        }
      ],
      "name": "removeGameBoard",
      "outputs": [],
      "stateMutability": "nonpayable",
      "type": "function"
    },
    {
      "inputs": [
        {
          "internalType": "address",
          "name": "playerAddress",
          "type": "address"
        },
        {
          "internalType": "uint256",
          "name": "gameID",
          "type": "uint256"
        },
        {
          "internalType": "string",
          "name": "zoneAlias",
          "type": "string"
        }
      ],
      "name": "removePlayer",
      "outputs": [],
      "stateMutability": "nonpayable",
      "type": "function"
    },
    {
      "inputs": [
        {
          "internalType": "bytes32",
          "name": "role",
          "type": "bytes32"
        },
        {
          "internalType": "address",
          "name": "account",
          "type": "address"
        }
      ],
      "name": "renounceRole",
      "outputs": [],
      "stateMutability": "nonpayable",
      "type": "function"
    },
    {
      "inputs": [
        {
          "internalType": "bytes32",
          "name": "role",
          "type": "bytes32"
        },
        {
          "internalType": "address",
          "name": "account",
          "type": "address"
        }
      ],
      "name": "revokeRole",
      "outputs": [],
      "stateMutability": "nonpayable",
      "type": "function"
    },
    {
      "inputs": [
        {
          "internalType": "uint256",
          "name": "",
          "type": "uint256"
        },
        {
          "internalType": "string",
          "name": "",
          "type": "string"
        }
      ],
      "name": "ruleset",
      "outputs": [
        {
          "internalType": "uint256",
          "name": "",
          "type": "uint256"
        }
      ],
      "stateMutability": "view",
      "type": "function"
    },
    {
      "inputs": [],
      "name": "rulesetAddress",
      "outputs": [
        {
          "internalType": "address",
          "name": "",
          "type": "address"
        }
      ],
      "stateMutability": "view",
      "type": "function"
    },
    {
      "inputs": [],
      "name": "rulesetVersion",
      "outputs": [
        {
          "internalType": "uint256",
          "name": "",
          "type": "uint256"
        }
      ],
      "stateMutability": "view",
      "type": "function"
    },
    {
      "inputs": [
        {
          "internalType": "uint256",
          "name": "rulesetID",
          "type": "uint256"
        },
        {
          "internalType": "uint256",
          "name": "gameID",
          "type": "uint256"
        },
        {
          "internalType": "string",
          "name": "zoneAlias",
          "type": "string"
        }
      ],
      "name": "setRules",
      "outputs": [],
      "stateMutability": "nonpayable",
      "type": "function"
    },
    {
      "inputs": [
        {
          "internalType": "bytes4",
          "name": "interfaceId",
          "type": "bytes4"
        }
      ],
      "name": "supportsInterface",
      "outputs": [
        {
          "internalType": "bool",
          "name": "",
          "type": "bool"
        }
      ],
      "stateMutability": "view",
      "type": "function"
    },
    {
      "inputs": [
        {
          "internalType": "uint256",
          "name": "",
          "type": "uint256"
        },
        {
          "internalType": "string",
          "name": "",
          "type": "string"
        }
      ],
      "name": "tile",
      "outputs": [
        {
          "internalType": "enum HexplorationZone.Tile",
          "name": "",
          "type": "uint8"
        }
      ],
      "stateMutability": "view",
      "type": "function"
    },
    {
      "inputs": [
        {
          "internalType": "uint256",
          "name": "",
          "type": "uint256"
        },
        {
          "internalType": "string",
          "name": "",
          "type": "string"
        }
      ],
      "name": "tileIsSet",
      "outputs": [
        {
          "internalType": "bool",
          "name": "",
          "type": "bool"
        }
      ],
      "stateMutability": "view",
      "type": "function"
    },
    {
      "inputs": [
        {
          "internalType": "enum HexplorationZone.Tile",
          "name": "_tile",
          "type": "uint8"
        },
        {
          "internalType": "uint256",
          "name": "gameID",
          "type": "uint256"
        },
        {
          "internalType": "string",
          "name": "zoneAlias",
          "type": "string"
        }
      ],
      "name": "setTile",
      "outputs": [],
      "stateMutability": "nonpayable",
      "type": "function"
    },
    {
      "inputs": [
        {
          "internalType": "address",
          "name": "playerAddress",
          "type": "address"
        },
        {
          "internalType": "uint256",
          "name": "gameID",
          "type": "uint256"
        },
        {
          "internalType": "string",
          "name": "zoneAlias",
          "type": "string"
        }
      ],
      "name": "playerCanEnter",
      "outputs": [
        {
          "internalType": "bool",
          "name": "canEnter",
          "type": "bool"
        }
      ],
      "stateMutability": "view",
      "type": "function"
    },
    {
      "inputs": [
        {
          "internalType": "address",
          "name": "playerAddress",
          "type": "address"
        },
        {
          "internalType": "uint256",
          "name": "gameID",
          "type": "uint256"
        },
        {
          "internalType": "string",
          "name": "zoneAlias",
          "type": "string"
        }
      ],
      "name": "playerCanExit",
      "outputs": [
        {
          "internalType": "bool",
          "name": "canExit",
          "type": "bool"
        }
      ],
      "stateMutability": "view",
      "type": "function"
    }
  ],
  "bytecode": "0x60806040523480156200001157600080fd5b506040516200275c3803806200275c83398101604081905262000034916200033a565b60028054600160a060020a03808716600160a060020a03199283168117909355600380549187169183169190911790556004805490911682178155604080517f54fd4d50000000000000000000000000000000000000000000000000000000008152905187938793879387936354fd4d50928281019260209291908290030181865afa158015620000c9573d6000803e3d6000fd5b505050506040513d601f19601f82011682018060405250810190620000ef919062000397565b600555620001086000836401000000006200015b810204565b600160a060020a038116156200014d576200014d7fdfbefbf47cfe66b701d8cfdbce1de81c821590819cb07e71cb01b6602fb0ee27826401000000006200015b810204565b5050505050505050620003b1565b62000170828264010000000062000174810204565b5050565b6200018e828264010000000062000c33620001bb82021704565b6000828152600160205260409020620001b6908264010000000062000cb76200025782021704565b505050565b620001d0828264010000000062000280810204565b6200017057600082815260208181526040808320600160a060020a03851684529091529020805460ff1916600117905562000213640100000000620002a9810204565b600160a060020a031681600160a060020a0316837f2f8788117e7eff1d82e926ec794901d17c78024a50270940304540a733656f0d60405160405180910390a45050565b60006200027783600160a060020a038416640100000000620002ad810204565b90505b92915050565b600091825260208281526040808420600160a060020a0393909316845291905290205460ff1690565b3390565b6000620002c4838364010000000062000305810204565b620002fc575081546001818101845560008481526020808220909301849055845484825282860190935260409020919091556200027a565b5060006200027a565b60009081526001919091016020526040902054151590565b8051600160a060020a03811681146200033557600080fd5b919050565b600080600080608085870312156200035157600080fd5b6200035c856200031d565b93506200036c602086016200031d565b92506200037c604086016200031d565b91506200038c606086016200031d565b905092959194509250565b600060208284031215620003aa57600080fd5b5051919050565b61239b80620003c16000396000f3fe608060405234801561001057600080fd5b50600436106101f9576000357c010000000000000000000000000000000000000000000000000000000090048063a217fddf11610122578063d4939609116100ba578063d493960914610520578063d547741f14610533578063de45264114610546578063e15b3ad014610559578063e70542a81461056c578063f14f4bbe14610575578063f6a74ed714610588578063f6fdbf7e1461059b578063f91649f0146105da57600080fd5b8063a217fddf14610409578063a331e60814610411578063a7fc7a071461044d578063abea5a6e14610460578063ac407d021461049c578063bc590f2a146104d8578063c57893c2146104eb578063c8fae5e8146104fa578063ca15c8731461050d57600080fd5b806331b8a8541161019557806331b8a8541461035c57806336568abe1461036f578063474dfcd7146103825780634a58dc11146103955780636516dd45146103aa5780637caf1280146103bd5780639010d07c146103d057806391d14854146103e357806398bd7572146103f657600080fd5b806301ffc9a7146101fe57806304a0fb1714610226578063092c5b3b1461024957806310e0d51e1461025e578063248a9ca31461029a57806328d7e11a146102bd5780632e08793d146102d25780632f2ff15d146102fd57806330821b9c14610310575b600080fd5b61021161020c366004611a66565b6105ed565b60405190151581526020015b60405180910390f35b61023b60008051602061232683398151915281565b60405190815260200161021d565b61023b60008051602061230683398151915281565b61023b61026c366004611b4a565b6008602090815260009283526040909220815180830184018051928152908401929093019190912091525481565b61023b6102a8366004611b91565b60009081526020819052604090206001015490565b6102d06102cb366004611bbf565b610631565b005b6003546102e590600160a060020a031681565b604051600160a060020a03909116815260200161021d565b6102d061030b366004611c18565b61068d565b61034f61031e366004611b4a565b600b602090815260009283526040909220815180830184018051928152908401929093019190912091525460ff1681565b60405161021d9190611c61565b6102d061036a366004611c8c565b6106b2565b6102d061037d366004611c18565b610731565b6102d0610390366004611db3565b505050565b61023b60008051602061234683398151915281565b6102d06103b8366004611e9e565b6107c0565b6102116103cb366004611bbf565b610836565b6102e56103de366004611ed7565b61084b565b6102116103f1366004611c18565b61086a565b6102d0610404366004611bbf565b610893565b61023b600081565b61023b61041f366004611b4a565b6007602090815260009283526040909220815180830184018051928152908401929093019190912091525481565b6102d061045b366004611ef9565b610910565b61023b61046e366004611b4a565b6006602090815260009283526040909220815180830184018051928152908401929093019190912091525481565b61023b6104aa366004611b4a565b6009602090815260009283526040909220815180830184018051928152908401929093019190912091525481565b6004546102e590600160a060020a031681565b606060405161021d9190611f16565b6102d0610508366004611ef9565b610973565b61023b61051b366004611b91565b610996565b6102d061052e366004611f5a565b6109ad565b6102d0610541366004611c18565b610a5e565b6102d0610554366004611ef9565b610a83565b610211610567366004611bbf565b610ae3565b61023b60055481565b6102d0610583366004611f7e565b610af0565b6102d0610596366004611ef9565b610bed565b6102116105a9366004611b4a565b600c602090815260009283526040909220815180830184018051928152908401929093019190912091525460ff1681565b6102d06105e8366004611bbf565b610c10565b6000600160e060020a031982167f5a05180f00000000000000000000000000000000000000000000000000000000148061062b575061062b82610ccc565b92915050565b60008051602061234683398151915261064981610d33565b610654848484610836565b61067c5760405160e560020a62461bcd02815260040161067390611ff6565b60405180910390fd5b610687848484610d3d565b50505050565b6000828152602081905260409020600101546106a881610d33565b6103908383610e73565b6106ca6000805160206123268339815191523361086a565b806106db57506106db60003361086a565b6106fa5760405160e560020a62461bcd0281526004016106739061202d565b82600660008481526020019081526020016000208260405161071c91906120b6565b90815260405190819003602001902055505050565b600160a060020a03811633146107b25760405160e560020a62461bcd02815260206004820152602f60248201527f416363657373436f6e74726f6c3a2063616e206f6e6c792072656e6f756e636560448201527f20726f6c657320666f722073656c6600000000000000000000000000000000006064820152608401610673565b6107bc8282610e95565b5050565b60405160e060020a639eb356cb028152600160a060020a03821690639eb356cb906107f3908590339088906004016120d2565b6020604051808303816000875af1158015610812573d6000803e3d6000fd5b505050506040513d601f19601f8201168201806040525081019061068791906120f1565b6000610843848484610eb7565b949350505050565b60008281526001602052604081206108639083611086565b9392505050565b600091825260208281526040808420600160a060020a0393909316845291905290205460ff1690565b6000805160206123468339815191526108ab81610d33565b6108b6848484610ae3565b6109055760405160e560020a62461bcd02815260206004820152601860248201527f706c617965722063616e6e6f7420656e746572207a6f6e6500000000000000006044820152606401610673565b610687848484611092565b6109286000805160206123268339815191523361086a565b80610939575061093960003361086a565b6109585760405160e560020a62461bcd0281526004016106739061202d565b6109706000805160206123068339815191528261126d565b50565b600061097e81610d33565b6107bc60008051602061234683398151915283610e95565b600081815260016020526040812061062b90611277565b6000805160206123468339815191526109c581610d33565b83600b6000858152602001908152602001600020836040516109e791906120b6565b908152604051908190036020019020805460ff1916600183600b811115610a1057610a10611c48565b02179055506001600c600085815260200190815260200160002083604051610a3891906120b6565b908152604051908190036020019020805491151560ff1990921691909117905550505050565b600082815260208190526040902060010154610a7981610d33565b6103908383610e95565b610a9b6000805160206123268339815191523361086a565b80610aac5750610aac60003361086a565b610acb5760405160e560020a62461bcd0281526004016106739061202d565b6109706000805160206123468339815191528261126d565b6000610843848484611281565b610afb858484610836565b610b1a5760405160e560020a62461bcd02815260040161067390611ff6565b60405160e060020a639eb356cb028152600090600160a060020a03831690639eb356cb90610b509087908a908a906004016120d2565b6020604051808303816000875af1158015610b6f573d6000803e3d6000fd5b505050506040513d601f19601f82011682018060405250810190610b9391906120f1565b905080610be55760405160e560020a62461bcd02815260206004820152601e60248201527f706c6179657220756e61626c6520746f20656e746572206f6e206578697400006044820152606401610673565b505050505050565b6000610bf881610d33565b6107bc60008051602061230683398151915283610e95565b600080516020612346833981519152610c2881610d33565b61068784848461156e565b610c3d828261086a565b6107bc57600082815260208181526040808320600160a060020a03851684529091529020805460ff19166001179055610c733390565b600160a060020a031681600160a060020a0316837f2f8788117e7eff1d82e926ec794901d17c78024a50270940304540a733656f0d60405160405180910390a45050565b600061086383600160a060020a038416611617565b6000600160e060020a031982167f7965db0b00000000000000000000000000000000000000000000000000000000148061062b57507f01ffc9a700000000000000000000000000000000000000000000000000000000600160e060020a031983161461062b565b6109708133611666565b6000828152600a60205260408082209051610d599084906120b6565b9081526040805160209281900383018120600160a060020a0388166000908152908452828120805460ff1916951515959095179094558584526008909252822090610da59084906120b6565b90815260200160405180910390205411610dc0576000610dfc565b60016008600084815260200190815260200160002082604051610de391906120b6565b908152602001604051809103902054610dfc919061212c565b600083815260086020526040908190209051610e199084906120b6565b9081526020016040518091039020819055506009600083815260200190815260200160002081604051610e4c91906120b6565b9081526040519081900360200190208054906000610e6983612143565b9190505550505050565b610e7d8282610c33565b60008281526001602052604090206103909082610cb7565b610e9f82826116cd565b60008281526001602052604090206103909082611732565b6000828152600a602052604090819020905160019190610ed89084906120b6565b9081526040805160209281900383019020600160a060020a0387166000908152925290205460ff16610f0c57506000610863565b6000838152600660205260408082209051610f289085906120b6565b90815260200160405180910390205490508060001461107e576002805460405160e060020a638323406d028152600481018490526024810192909252600160a060020a031690638323406d90604401602060405180830381865afa158015610f94573d6000803e3d6000fd5b505050506040513d601f19601f82011682018060405250810190610fb891906120f1565b801561107457506002546040517f548dbc7a00000000000000000000000000000000000000000000000000000000815260048101839052600160a060020a039091169063548dbc7a90602401602060405180830381865afa158015611021573d6000803e3d6000fd5b505050506040513d601f19601f82011682018060405250810190611045919061215e565b6000858152600960205260409081902090516110629086906120b6565b90815260200160405180910390205410155b1561107e57600091505b509392505050565b60006108638383611747565b6001600a6000848152602001908152602001600020826040516110b591906120b6565b9081526040805160209281900383018120600160a060020a0388166000908152908452828120805460ff1916951515959095179094558584526008909252909120906111029083906120b6565b908152604051908190036020019020805490600061111f83612143565b90915550506000828152600760205260409081902090516111419083906120b6565b908152604051908190036020019020805490600061115e83612143565b90915550506003546040517f5d24830100000000000000000000000000000000000000000000000000000000815260048101849052600091600160a060020a031690635d24830190602401602060405180830381865afa1580156111c6573d6000803e3d6000fd5b505050506040513d601f19601f820116820180604052508101906111ea9190612177565b6040517ffa9f3438000000000000000000000000000000000000000000000000000000008152909150600160a060020a0382169063fa9f343890611236908690889087906004016121c0565b600060405180830381600087803b15801561125057600080fd5b505af1158015611264573d6000803e3d6000fd5b50505050610687565b6107bc8282610e73565b600061062b825490565b6000828152600a6020526040908190209051600191906112a29084906120b6565b9081526040805160209281900383019020600160a060020a0387166000908152925290205460ff16156112d757506000610863565b60008381526006602052604080822090516112f39085906120b6565b90815260200160405180910390205490508060001461107e5760025460405160e060020a638323406d0281526004810183905260006024820152600160a060020a0390911690638323406d90604401602060405180830381865afa15801561135f573d6000803e3d6000fd5b505050506040513d601f19601f8201168201806040525081019061138391906120f1565b801561143f57506002546040517fc0eac88600000000000000000000000000000000000000000000000000000000815260048101839052600160a060020a039091169063c0eac88690602401602060405180830381865afa1580156113ec573d6000803e3d6000fd5b505050506040513d601f19601f82011682018060405250810190611410919061215e565b60008581526008602052604090819020905161142d9086906120b6565b90815260200160405180910390205410155b1561144d576000915061107e565b60025460405160e060020a638323406d0281526004810183905260016024820152600160a060020a0390911690638323406d90604401602060405180830381865afa1580156114a0573d6000803e3d6000fd5b505050506040513d601f19601f820116820180604052508101906114c491906120f1565b801561107457506002546040517f0b4adfcf00000000000000000000000000000000000000000000000000000000815260048101839052600160a060020a0390911690630b4adfcf90602401602060405180830381865afa15801561152d573d6000803e3d6000fd5b505050506040513d601f19601f82011682018060405250810190611551919061215e565b6000858152600760205260409081902090516110629086906120b6565b600082815260086020526040808220905161158a9084906120b6565b908152602001604051809103902054116115a55760006115e1565b600160086000848152602001908152602001600020826040516115c891906120b6565b9081526020016040518091039020546115e1919061212c565b6000838152600860205260409081902090516115fe9084906120b6565b9081526040519081900360200190205561039083838383565b600081815260018301602052604081205461165e5750815460018181018455600084815260208082209093018490558454848252828601909352604090209190915561062b565b50600061062b565b611670828261086a565b6107bc5761168881600160a060020a03166014611771565b611693836020611771565b6040516020016116a49291906121f1565b60408051601f198184030181529082905260e560020a62461bcd02825261067391600401612272565b6116d7828261086a565b156107bc57600082815260208181526040808320600160a060020a0385168085529252808320805460ff1916905551339285917ff6391f5c32d9c69d2a47ea670b442974b53935d1edc7fd64eb21e047a839171b9190a45050565b600061086383600160a060020a038416611973565b600082600001828154811061175e5761175e612285565b9060005260206000200154905092915050565b6060600061178083600261229e565b61178b9060026122bd565b67ffffffffffffffff8111156117a3576117a3611a90565b6040519080825280601f01601f1916602001820160405280156117cd576020820181803683370190505b5090507f30000000000000000000000000000000000000000000000000000000000000008160008151811061180457611804612285565b6020010190600160f860020a031916908160001a9053507f78000000000000000000000000000000000000000000000000000000000000008160018151811061184f5761184f612285565b6020010190600160f860020a031916908160001a905350600061187384600261229e565b61187e9060016122bd565b90505b6001811115611921577f303132333435363738396162636465660000000000000000000000000000000085600f16601081106118bf576118bf612285565b1a7f0100000000000000000000000000000000000000000000000000000000000000028282815181106118f4576118f4612285565b6020010190600160f860020a031916908160001a90535060109094049361191a816122d5565b9050611881565b5083156108635760405160e560020a62461bcd02815260206004820181905260248201527f537472696e67733a20686578206c656e67746820696e73756666696369656e746044820152606401610673565b60008181526001830160205260408120548015611a5c57600061199760018361212c565b85549091506000906119ab9060019061212c565b9050818114611a105760008660000182815481106119cb576119cb612285565b90600052602060002001549050808760000184815481106119ee576119ee612285565b6000918252602080832090910192909255918252600188019052604090208390555b8554869080611a2157611a216122ec565b60019003818190600052602060002001600090559055856001016000868152602001908152602001600020600090556001935050505061062b565b600091505061062b565b600060208284031215611a7857600080fd5b8135600160e060020a03198116811461086357600080fd5b60e060020a634e487b7102600052604160045260246000fd5b604051601f8201601f1916810167ffffffffffffffff81118282101715611ad257611ad2611a90565b604052919050565b600082601f830112611aeb57600080fd5b813567ffffffffffffffff811115611b0557611b05611a90565b611b18601f8201601f1916602001611aa9565b818152846020838601011115611b2d57600080fd5b816020850160208301376000918101602001919091529392505050565b60008060408385031215611b5d57600080fd5b82359150602083013567ffffffffffffffff811115611b7b57600080fd5b611b8785828601611ada565b9150509250929050565b600060208284031215611ba357600080fd5b5035919050565b600160a060020a038116811461097057600080fd5b600080600060608486031215611bd457600080fd5b8335611bdf81611baa565b925060208401359150604084013567ffffffffffffffff811115611c0257600080fd5b611c0e86828701611ada565b9150509250925092565b60008060408385031215611c2b57600080fd5b823591506020830135611c3d81611baa565b809150509250929050565b60e060020a634e487b7102600052602160045260246000fd5b60208101600c8310611c865760e060020a634e487b7102600052602160045260246000fd5b91905290565b600080600060608486031215611ca157600080fd5b8335925060208401359150604084013567ffffffffffffffff811115611c0257600080fd5b600067ffffffffffffffff821115611ce057611ce0611a90565b5060209081020190565b600082601f830112611cfb57600080fd5b81356020611d10611d0b83611cc6565b611aa9565b82815291810284018101918181019086841115611d2c57600080fd5b8286015b84811015611d50578035611d4381611baa565b8352918301918301611d30565b509695505050505050565b600082601f830112611d6c57600080fd5b81356020611d7c611d0b83611cc6565b82815291810284018101918181019086841115611d9857600080fd5b8286015b84811015611d505780358352918301918301611d9c565b600080600060608486031215611dc857600080fd5b833567ffffffffffffffff80821115611de057600080fd5b818601915086601f830112611df457600080fd5b81356020611e04611d0b83611cc6565b8281529181028401810191818101908a841115611e2057600080fd5b8286015b84811015611e5857803586811115611e3c5760008081fd5b611e4a8d86838b0101611ada565b845250918301918301611e24565b5097505087013592505080821115611e6f57600080fd5b611e7b87838801611cea565b93506040860135915080821115611e9157600080fd5b50611c0e86828701611d5b565b600080600060608486031215611eb357600080fd5b83359250602084013591506040840135611ecc81611baa565b809150509250925092565b60008060408385031215611eea57600080fd5b50508035926020909101359150565b600060208284031215611f0b57600080fd5b813561086381611baa565b6020808252825182820181905260009190848201906040850190845b81811015611f4e57835183529284019291840191600101611f32565b50909695505050505050565b600080600060608486031215611f6f57600080fd5b8335600c8110611bdf57600080fd5b600080600080600060a08688031215611f9657600080fd5b8535611fa181611baa565b94506020860135935060408601359250606086013567ffffffffffffffff811115611fcb57600080fd5b611fd788828901611ada565b9250506080860135611fe881611baa565b809150509295509295909350565b60208082526017908201527f706c617965722063616e6e6f742065786974207a6f6e65000000000000000000604082015260600190565b60208082526024908201527f47616d65204d6173746572206f7220466163746f727920726f6c65207265717560408201527f6972656400000000000000000000000000000000000000000000000000000000606082015260800190565b60005b838110156120a557818101518382015260200161208d565b838111156106875750506000910152565b600082516120c881846020870161208a565b9190910192915050565b928352600160a060020a03919091166020830152604082015260600190565b60006020828403121561210357600080fd5b8151801515811461086357600080fd5b60e060020a634e487b7102600052601160045260246000fd5b60008282101561213e5761213e612113565b500390565b600060001982141561215757612157612113565b5060010190565b60006020828403121561217057600080fd5b5051919050565b60006020828403121561218957600080fd5b815161086381611baa565b600081518084526121ac81602086016020860161208a565b601f01601f19169290920160200192915050565b838152600160a060020a03831660208201526060604082015260006121e86060830184612194565b95945050505050565b7f416363657373436f6e74726f6c3a206163636f756e742000000000000000000081526000835161222981601785016020880161208a565b7f206973206d697373696e6720726f6c6520000000000000000000000000000000601791840191820152835161226681602884016020880161208a565b01602801949350505050565b6020815260006108636020830184612194565b60e060020a634e487b7102600052603260045260246000fd5b60008160001904831182151516156122b8576122b8612113565b500290565b600082198211156122d0576122d0612113565b500190565b6000816122e4576122e4612113565b506000190190565b60e060020a634e487b7102600052603160045260246000fdfe7b765e0e932d348852a6f810bfa1ab891e259123f02db8cdcde614c570223357dfbefbf47cfe66b701d8cfdbce1de81c821590819cb07e71cb01b6602fb0ee27a535732178231314b57938e75e1be42a0d0fac039993e1fa0eb22dcb94bce107a26469706673582212201f8e73292903f13c7ae01297179c256cc52f770fcae3880c1c3e5a5eba60217d64736f6c634300080b0033",
  "immutableReferences": {},
  "source": "// SPDX-License-Identifier: GPL-3.0\npragma solidity >=0.7.0 <0.9.0;\n\nimport \"@luckymachines/game-core/contracts/src/v0.0/PlayZone.sol\";\n\ncontract HexplorationZone is PlayZone {\n    enum Tile {\n        Default,\n        Jungle,\n        Plains,\n        Desert,\n        Mountain,\n        LandingSite,\n        RelicMystery,\n        Relic1,\n        Relic2,\n        Relic3,\n        Relic4,\n        Relic5\n    }\n\n    // Mappings from game ID => zone alias\n    mapping(uint256 => mapping(string => Tile)) public tile;\n    mapping(uint256 => mapping(string => bool)) public tileIsSet;\n\n    constructor(\n        address _rulesetAddress,\n        address _gameRegistryAddress,\n        address adminAddress,\n        address factoryAddress\n    )\n        PlayZone(\n            _rulesetAddress,\n            _gameRegistryAddress,\n            adminAddress,\n            factoryAddress\n        )\n    {}\n\n    function setTile(\n        Tile _tile,\n        uint256 gameID,\n        string memory zoneAlias\n    ) public onlyRole(GAME_BOARD_ROLE) {\n        tile[gameID][zoneAlias] = _tile;\n        tileIsSet[gameID][zoneAlias] = true;\n    }\n\n    function playerCanEnter(\n        address playerAddress,\n        uint256 gameID,\n        string memory zoneAlias\n    ) public view override returns (bool canEnter) {\n        canEnter = super.playerCanEnter(playerAddress, gameID, zoneAlias);\n    }\n\n    function playerCanExit(\n        address playerAddress,\n        uint256 gameID,\n        string memory zoneAlias\n    ) public view override returns (bool canExit) {\n        canExit = super.playerCanExit(playerAddress, gameID, zoneAlias);\n    }\n\n    // Override for custom game\n    // function _playerWillEnter(\n    //     address playerAddress,\n    //     uint256 gameID,\n    //     string memory zoneAlias\n    // ) internal virtual {}\n\n    // function _playerDidEnter(\n    //     address playerAddress,\n    //     uint256 gameID,\n    //     string memory zoneAlias\n    // ) internal virtual {}\n\n    // function _playerWillExit(\n    //     address playerAddress,\n    //     uint256 gameID,\n    //     string memory zoneAlias\n    // ) internal virtual {}\n\n    // function _playerDidExit(\n    //     address playerAddress,\n    //     uint256 gameID,\n    //     string memory zoneAlias\n    // ) internal virtual {}\n\n    // function _playersWillEnter(\n    //     uint256 gameID,\n    //     uint256 groupID,\n    //     string memory zoneAlias\n    // ) internal virtual {\n    //     // called when batch of players are being entered from lobby or previous zone\n    //     // individual player entries are called from _playerDidEnter\n    // }\n\n    // function _allPlayersEntered(\n    //     uint256 gameID,\n    //     uint256 groupID,\n    //     string memory zoneAlias\n    // ) internal virtual {\n    //     // called after player group has all been entered\n    // }\n\n    // function _playerWillBeRemoved(\n    //     address playerAddress,\n    //     uint256 gameID,\n    //     string memory zoneAlias\n    // ) internal virtual {}\n\n    // function _playerWasRemoved(\n    //     address playerAddress,\n    //     uint256 gameID,\n    //     string memory zoneAlias\n    // ) internal virtual {}\n\n    // function _customAction(\n    //     string[] memory stringParams,\n    //     address[] memory addressParams,\n    //     uint256[] memory uintParams\n    // ) internal virtual {\n    //     // should definitiely do some checks when implementing this function\n    //     // make sure the sender is correct and nothing malicious is going on\n    // }\n}\n",
  "sourcePath": "/Users/maxmeier/Developer/Lucky Machines/hexploration/contracts/HexplorationZone.sol",
  "compiler": {
    "name": "solc",
    "version": "0.8.11+commit.d7f03943.Emscripten.clang"
  },
  "schemaVersion": "3.4.4",
  "updatedAt": "2022-05-27T21:02:43.158Z",
  "devdoc": {
    "kind": "dev",
    "methods": {
      "getRoleAdmin(bytes32)": {
        "details": "Returns the admin role that controls `role`. See {grantRole} and {revokeRole}. To change a role's admin, use {_setRoleAdmin}."
      },
      "getRoleMember(bytes32,uint256)": {
        "details": "Returns one of the accounts that have `role`. `index` must be a value between 0 and {getRoleMemberCount}, non-inclusive. Role bearers are not sorted in any particular way, and their ordering may change at any point. WARNING: When using {getRoleMember} and {getRoleMemberCount}, make sure you perform all queries on the same block. See the following https://forum.openzeppelin.com/t/iterating-over-elements-on-enumerableset-in-openzeppelin-contracts/2296[forum post] for more information."
      },
      "getRoleMemberCount(bytes32)": {
        "details": "Returns the number of accounts that have `role`. Can be used together with {getRoleMember} to enumerate all bearers of a role."
      },
      "grantRole(bytes32,address)": {
        "details": "Grants `role` to `account`. If `account` had not been already granted `role`, emits a {RoleGranted} event. Requirements: - the caller must have ``role``'s admin role."
      },
      "hasRole(bytes32,address)": {
        "details": "Returns `true` if `account` has been granted `role`."
      },
      "renounceRole(bytes32,address)": {
        "details": "Revokes `role` from the calling account. Roles are often managed via {grantRole} and {revokeRole}: this function's purpose is to provide a mechanism for accounts to lose their privileges if they are compromised (such as when a trusted device is misplaced). If the calling account had been revoked `role`, emits a {RoleRevoked} event. Requirements: - the caller must be `account`."
      },
      "revokeRole(bytes32,address)": {
        "details": "Revokes `role` from `account`. If `account` had been granted `role`, emits a {RoleRevoked} event. Requirements: - the caller must have ``role``'s admin role."
      },
      "supportsInterface(bytes4)": {
        "details": "See {IERC165-supportsInterface}."
      }
    },
    "version": 1
  },
  "userdoc": {
    "kind": "user",
    "methods": {},
    "version": 1
  }
}