{
  "contractName": "HexplorationGameplay",
  "abi": [
    {
      "inputs": [
        {
          "internalType": "address",
          "name": "_gameSummaryAddress",
          "type": "address"
        },
        {
          "internalType": "address",
          "name": "gameBoardAddress",
          "type": "address"
        }
      ],
      "stateMutability": "nonpayable",
      "type": "constructor"
    },
    {
      "anonymous": false,
      "inputs": [
        {
          "indexed": true,
          "internalType": "bytes32",
          "name": "role",
          "type": "bytes32"
        },
        {
          "indexed": true,
          "internalType": "bytes32",
          "name": "previousAdminRole",
          "type": "bytes32"
        },
        {
          "indexed": true,
          "internalType": "bytes32",
          "name": "newAdminRole",
          "type": "bytes32"
        }
      ],
      "name": "RoleAdminChanged",
      "type": "event"
    },
    {
      "anonymous": false,
      "inputs": [
        {
          "indexed": true,
          "internalType": "bytes32",
          "name": "role",
          "type": "bytes32"
        },
        {
          "indexed": true,
          "internalType": "address",
          "name": "account",
          "type": "address"
        },
        {
          "indexed": true,
          "internalType": "address",
          "name": "sender",
          "type": "address"
        }
      ],
      "name": "RoleGranted",
      "type": "event"
    },
    {
      "anonymous": false,
      "inputs": [
        {
          "indexed": true,
          "internalType": "bytes32",
          "name": "role",
          "type": "bytes32"
        },
        {
          "indexed": true,
          "internalType": "address",
          "name": "account",
          "type": "address"
        },
        {
          "indexed": true,
          "internalType": "address",
          "name": "sender",
          "type": "address"
        }
      ],
      "name": "RoleRevoked",
      "type": "event"
    },
    {
      "inputs": [],
      "name": "DEFAULT_ADMIN_ROLE",
      "outputs": [
        {
          "internalType": "bytes32",
          "name": "",
          "type": "bytes32"
        }
      ],
      "stateMutability": "view",
      "type": "function"
    },
    {
      "inputs": [],
      "name": "VERIFIED_CONTROLLER_ROLE",
      "outputs": [
        {
          "internalType": "bytes32",
          "name": "",
          "type": "bytes32"
        }
      ],
      "stateMutability": "view",
      "type": "function"
    },
    {
      "inputs": [
        {
          "internalType": "bytes32",
          "name": "role",
          "type": "bytes32"
        }
      ],
      "name": "getRoleAdmin",
      "outputs": [
        {
          "internalType": "bytes32",
          "name": "",
          "type": "bytes32"
        }
      ],
      "stateMutability": "view",
      "type": "function"
    },
    {
      "inputs": [
        {
          "internalType": "bytes32",
          "name": "role",
          "type": "bytes32"
        },
        {
          "internalType": "uint256",
          "name": "index",
          "type": "uint256"
        }
      ],
      "name": "getRoleMember",
      "outputs": [
        {
          "internalType": "address",
          "name": "",
          "type": "address"
        }
      ],
      "stateMutability": "view",
      "type": "function"
    },
    {
      "inputs": [
        {
          "internalType": "bytes32",
          "name": "role",
          "type": "bytes32"
        }
      ],
      "name": "getRoleMemberCount",
      "outputs": [
        {
          "internalType": "uint256",
          "name": "",
          "type": "uint256"
        }
      ],
      "stateMutability": "view",
      "type": "function"
    },
    {
      "inputs": [
        {
          "internalType": "bytes32",
          "name": "role",
          "type": "bytes32"
        },
        {
          "internalType": "address",
          "name": "account",
          "type": "address"
        }
      ],
      "name": "grantRole",
      "outputs": [],
      "stateMutability": "nonpayable",
      "type": "function"
    },
    {
      "inputs": [
        {
          "internalType": "bytes32",
          "name": "role",
          "type": "bytes32"
        },
        {
          "internalType": "address",
          "name": "account",
          "type": "address"
        }
      ],
      "name": "hasRole",
      "outputs": [
        {
          "internalType": "bool",
          "name": "",
          "type": "bool"
        }
      ],
      "stateMutability": "view",
      "type": "function"
    },
    {
      "inputs": [
        {
          "internalType": "bytes32",
          "name": "role",
          "type": "bytes32"
        },
        {
          "internalType": "address",
          "name": "account",
          "type": "address"
        }
      ],
      "name": "renounceRole",
      "outputs": [],
      "stateMutability": "nonpayable",
      "type": "function"
    },
    {
      "inputs": [
        {
          "internalType": "bytes32",
          "name": "role",
          "type": "bytes32"
        },
        {
          "internalType": "address",
          "name": "account",
          "type": "address"
        }
      ],
      "name": "revokeRole",
      "outputs": [],
      "stateMutability": "nonpayable",
      "type": "function"
    },
    {
      "inputs": [
        {
          "internalType": "bytes4",
          "name": "interfaceId",
          "type": "bytes4"
        }
      ],
      "name": "supportsInterface",
      "outputs": [
        {
          "internalType": "bool",
          "name": "",
          "type": "bool"
        }
      ],
      "stateMutability": "view",
      "type": "function"
    },
    {
      "inputs": [
        {
          "internalType": "address",
          "name": "vcAddress",
          "type": "address"
        }
      ],
      "name": "addVerifiedController",
      "outputs": [],
      "stateMutability": "nonpayable",
      "type": "function"
    },
    {
      "inputs": [
        {
          "internalType": "address",
          "name": "queueContract",
          "type": "address"
        }
      ],
      "name": "setQueue",
      "outputs": [],
      "stateMutability": "nonpayable",
      "type": "function"
    },
    {
      "inputs": [
        {
          "internalType": "address",
          "name": "gsuAddress",
          "type": "address"
        }
      ],
      "name": "setGameStateUpdate",
      "outputs": [],
      "stateMutability": "nonpayable",
      "type": "function"
    },
    {
      "inputs": [
        {
          "internalType": "uint256",
          "name": "queueID",
          "type": "uint256"
        }
      ],
      "name": "shouldContinueProcessing",
      "outputs": [
        {
          "internalType": "bool",
          "name": "",
          "type": "bool"
        },
        {
          "internalType": "uint256[]",
          "name": "",
          "type": "uint256[]"
        },
        {
          "internalType": "string[]",
          "name": "",
          "type": "string[]"
        }
      ],
      "stateMutability": "view",
      "type": "function"
    },
    {
      "inputs": [
        {
          "internalType": "uint256",
          "name": "queueID",
          "type": "uint256"
        },
        {
          "internalType": "uint256[]",
          "name": "intUpdates",
          "type": "uint256[]"
        },
        {
          "internalType": "string[]",
          "name": "stringUpdates",
          "type": "string[]"
        }
      ],
      "name": "postProcessedGameState",
      "outputs": [],
      "stateMutability": "nonpayable",
      "type": "function"
    }
  ],
  "bytecode": "0x60806040523480156200001157600080fd5b50604051620042ef380380620042ef833981016040819052620000349162000270565b6200005c60006200004d64010000000062000091810204565b64010000000062000095810204565b60048054600160a060020a03928316600160a060020a03199182161790915560058054939092169216919091179055620002a8565b3390565b620000aa8282640100000000620000ae810204565b5050565b620000c8828264010000000062000904620000f582021704565b6000828152600160205260409020620000f09082640100000000620009886200019182021704565b505050565b6200010a8282640100000000620001ba810204565b620000aa57600082815260208181526040808320600160a060020a03851684529091529020805460ff191660011790556200014d64010000000062000091810204565b600160a060020a031681600160a060020a0316837f2f8788117e7eff1d82e926ec794901d17c78024a50270940304540a733656f0d60405160405180910390a45050565b6000620001b183600160a060020a038416640100000000620001e3810204565b90505b92915050565b600091825260208281526040808420600160a060020a0393909316845291905290205460ff1690565b6000620001fa83836401000000006200023b810204565b6200023257508154600181810184556000848152602080822090930184905584548482528286019093526040902091909155620001b4565b506000620001b4565b60009081526001919091016020526040902054151590565b8051600160a060020a03811681146200026b57600080fd5b919050565b600080604083850312156200028457600080fd5b6200028f8362000253565b91506200029f6020840162000253565b90509250929050565b61403780620002b86000396000f3fe608060405234801561001057600080fd5b50600436106100d95760003560e060020a90048063a217fddf1161008b578063a217fddf146101b2578063a605e7ae146101ba578063c9346832146101cd578063ca15c873146101ef578063d4f5b15214610202578063d547741f14610215578063f3ee7e2c14610228578063f83badd71461023b57600080fd5b806301ffc9a7146100de5780631c834a7f14610106578063248a9ca3146101295780632f2ff15d1461014c57806336568abe146101615780639010d07c1461017457806391d148541461019f575b600080fd5b6100f16100ec3660046137a3565b61024e565b60405190151581526020015b60405180910390f35b61011b600080516020613fe283398151915281565b6040519081526020016100fd565b61011b6101373660046137cd565b60009081526020819052604090206001015490565b61015f61015a3660046137fb565b610292565b005b61015f61016f3660046137fb565b6102bc565b61018761018236600461382b565b610350565b604051600160a060020a0390911681526020016100fd565b6100f16101ad3660046137fb565b61036f565b61011b600081565b61015f6101c836600461384d565b610398565b6101e06101db3660046137cd565b6103d3565b6040516100fd93929190613958565b61011b6101fd3660046137cd565b610547565b61015f61021036600461384d565b61055e565b61015f6102233660046137fb565b610581565b61015f61023636600461384d565b6105a6565b61015f610249366004613af1565b6105f1565b6000600160e060020a031982167f5a05180f00000000000000000000000000000000000000000000000000000000148061028c575061028c8261099d565b92915050565b6000828152602081905260409020600101546102ad81610a04565b6102b78383610a11565b505050565b600160a060020a03811633146103425760405160e560020a62461bcd02815260206004820152602f60248201527f416363657373436f6e74726f6c3a2063616e206f6e6c792072656e6f756e636560448201527f20726f6c657320666f722073656c66000000000000000000000000000000000060648201526084015b60405180910390fd5b61034c8282610a33565b5050565b60008281526001602052604081206103689083610a55565b9392505050565b600091825260208281526040808420600160a060020a0393909316845291905290205460ff1690565b60006103a381610a04565b506003805473ffffffffffffffffffffffffffffffffffffffff1916600160a060020a0392909216919091179055565b6000606080826002805460405160e060020a63b1fb640502815260048101889052600160a060020a039091169063b1fb640590602401602060405180830381865afa158015610426573d6000803e3d6000fd5b505050506040513d601f19601f8201168201806040525081019061044a9190613bcb565b600581111561045b5761045b613bb2565b14806104e6575060025460405160e060020a63b1fb640502815260048101879052600391600160a060020a03169063b1fb640590602401602060405180830381865afa1580156104af573d6000803e3d6000fd5b505050506040513d601f19601f820116820180604052508101906104d39190613bcb565b60058111156104e4576104e4613bb2565b145b90506060808215610503576104fa87610a61565b9250905061053b565b5060408051600080825260208201818152828401909352909190610537565b60608152602001906001900390816105225790505b5091505b91969195509350915050565b600081815260016020526040812061028c90610c7f565b600061056981610a04565b61034c600080516020613fe283398151915283610292565b60008281526020819052604090206001015461059c81610a04565b6102b78383610a33565b60006105b181610a04565b6002805473ffffffffffffffffffffffffffffffffffffffff1916600160a060020a03841617905561034c600080516020613fe283398151915283610c89565b600080516020613fe283398151915261060981610a04565b60025460405160e060020a63b1fb640502815260048101869052600091600160a060020a03169063b1fb640590602401602060405180830381865afa158015610656573d6000803e3d6000fd5b505050506040513d601f19601f8201168201806040525081019061067a9190613bcb565b60025460405160e060020a63cddbe729028152600481018890529192506000918291600160a060020a03169063cddbe72990602401602060405180830381865afa1580156106cc573d6000803e3d6000fd5b505050506040513d601f19601f820116820180604052508101906106f09190613bec565b9050600283600581111561070657610706613bb2565b14156107f85760035460405160e460020a6306776e3d028152600160a060020a0390911690636776e3d09061074390899089908690600401613c05565b600060405180830381600087803b15801561075d57600080fd5b505af1158015610771573d6000803e3d6000fd5b50506002546040517f04ac8fee000000000000000000000000000000000000000000000000000000008152600160a060020a0390911692506304ac8fee91506107c1906003908b90600401613c3b565b600060405180830381600087803b1580156107db57600080fd5b505af11580156107ef573d6000803e3d6000fd5b505050506108fb565b600383600581111561080c5761080c613bb2565b14156108fb5760035460405160e460020a6306776e3d028152600160a060020a0390911690636776e3d09061084990899089908690600401613c05565b600060405180830381600087803b15801561086357600080fd5b505af1158015610877573d6000803e3d6000fd5b50506002546040517f8e6e1d89000000000000000000000000000000000000000000000000000000008152600481018b90528515156024820152600160a060020a039091169250638e6e1d899150604401600060405180830381600087803b1580156108e257600080fd5b505af11580156108f6573d6000803e3d6000fd5b505050505b50505050505050565b61090e828261036f565b61034c57600082815260208181526040808320600160a060020a03851684529091529020805460ff191660011790556109443390565b600160a060020a031681600160a060020a0316837f2f8788117e7eff1d82e926ec794901d17c78024a50270940304540a733656f0d60405160405180910390a45050565b600061036883600160a060020a038416610c93565b6000600160e060020a031982167f7965db0b00000000000000000000000000000000000000000000000000000000148061028c57507f01ffc9a700000000000000000000000000000000000000000000000000000000600160e060020a031983161461028c565b610a0e8133610ce2565b50565b610a1b8282610904565b60008281526001602052604090206102b79082610988565b610a3d8282610d49565b60008281526001602052604090206102b79082610dae565b60006103688383610dc3565b60025460405160e060020a63b1fb6405028152600481018390526060918291600091600160a060020a03169063b1fb640590602401602060405180830381865afa158015610ab3573d6000803e3d6000fd5b505050506040513d601f19601f82011682018060405250810190610ad79190613bcb565b6002546040517f1b1d5b2700000000000000000000000000000000000000000000000000000000815260048101879052919250600160a060020a031690631b1d5b2790602401602060405180830381865afa158015610b3a573d6000803e3d6000fd5b505050506040513d601f19601f82011682018060405250810190610b5e9190613bec565b15610bee576002816005811115610b7757610b77613bb2565b1415610b9057610b8684610ded565b9093509150610c79565b6003816005811115610ba457610ba4613bb2565b1415610bb357610b8684611217565b60408051600080825260208201818152828401909352909450610be6565b6060815260200190600190039081610bd15790505b509150610c79565b6040805160008152600160208201818152606083018452919550909185015b6060815260200190600190039081610c0d5790505091506040518060400160405280601381526020017f6177616974696e672072616e646f6d6e6573730000000000000000000000000081525082600081518110610c6d57610c6d613c6a565b60200260200101819052505b50915091565b600061028c825490565b61034c8282610a11565b6000818152600183016020526040812054610cda5750815460018181018455600084815260208082209093018490558454848252828601909352604090209190915561028c565b50600061028c565b610cec828261036f565b61034c57610d0481600160a060020a031660146115cb565b610d0f8360206115cb565b604051602001610d20929190613c83565b60408051601f198184030181529082905260e560020a62461bcd02825261033991600401613d04565b610d53828261036f565b1561034c57600082815260208181526040808320600160a060020a0385168085529252808320805460ff1916905551339285917ff6391f5c32d9c69d2a47ea670b442974b53935d1edc7fd64eb21e047a839171b9190a45050565b600061036883600160a060020a0384166117cd565b6000826000018281548110610dda57610dda613c6a565b9060005260206000200154905092915050565b6040805160c08101825260008082526020820181905281830181905260608083018290526080830182905260a08301829052600254935160e060020a63ac01b83d02815260048101869052909384939291600160a060020a039091169063ac01b83d90602401600060405180830381865afa158015610e70573d6000803e3d6000fd5b505050506040513d6000823e601f3d908101601f19168201604052610e989190810190613d17565b905060005b81518110156111ee576000828281518110610eba57610eba613c6a565b60209081029190910101516002546040517f7f041591000000000000000000000000000000000000000000000000000000008152600481018a905260248101839052919250600091600160a060020a0390911690637f04159190604401602060405180830381865afa158015610f34573d6000803e3d6000fd5b505050506040513d601f19601f82011682018060405250810190610f589190613da5565b90506001816006811115610f6e57610f6e613bb2565b1415610f8b57600185600001818151610f879190613ddf565b9052505b6002546040517ffd82e21f000000000000000000000000000000000000000000000000000000008152600481018a905260248101849052600091600160a060020a03169063fd82e21f90604401600060405180830381865afa158015610ff5573d6000803e3d6000fd5b505050506040513d6000823e601f3d908101601f1916820160405261101d9190810190613e44565b51111561103b576001856020018181516110379190613ddf565b9052505b6002546040517f9b8e6819000000000000000000000000000000000000000000000000000000008152600481018a905260248101849052600091600160a060020a031690639b8e681990604401600060405180830381865afa1580156110a5573d6000803e3d6000fd5b505050506040513d6000823e601f3d908101601f191682016040526110cd9190810190613e44565b5111156110eb576001856020018181516110e79190613ddf565b9052505b60028160068111156110ff576110ff613bb2565b148061111c5750600381600681111561111a5761111a613bb2565b145b15611138576001856040018181516111349190613ddf565b9052505b600481600681111561114c5761114c613bb2565b14806111695750600581600681111561116757611167613bb2565b145b806111855750600681600681111561118357611183613bb2565b145b806111a15750600281600681111561119f5761119f613bb2565b145b806111bd575060038160068111156111bb576111bb613bb2565b145b156111d9576001856060018181516111d59190613ddf565b9052505b505080806111e690613e79565b915050610e9d565b5060006111fb83876118c0565b9050600061120984886124ad565b919791965090945050505050565b60608060006040518060c001604052806000815260200160008152602001600081526020016000815260200160008152602001600081525090506112e6604051806102600160405280606081526020016060815260200160608152602001606081526020016060815260200160608152602001606081526020016060815260200160608152602001606081526020016060815260200160608152602001606081526020016060815260200160608152602001606081526020016060815260200160608152602001606081525090565b60025460405160e060020a63cddbe72902815260048101879052600091600160a060020a03169063cddbe72990602401602060405180830381865afa158015611333573d6000803e3d6000fd5b505050506040513d601f19601f820116820180604052508101906113579190613bec565b90506000600460009054906101000a9004600160a060020a0316600160a060020a031663c06dea4e6040518163ffffffff1660e060020a028152600401602060405180830381865afa1580156113b1573d6000803e3d6000fd5b505050506040513d601f19601f820116820180604052508101906113d59190613e94565b600160a060020a031663b77ff411836040518263ffffffff1660e060020a02815260040161140591815260200190565b602060405180830381865afa158015611422573d6000803e3d6000fd5b505050506040513d601f19601f820116820180604052508101906114469190613bec565b90506000600460009054906101000a9004600160a060020a0316600160a060020a031663a0ed600d6040518163ffffffff1660e060020a028152600401602060405180830381865afa1580156114a0573d6000803e3d6000fd5b505050506040513d601f19601f820116820180604052508101906114c49190613e94565b604080518082019091526003815260e860020a6244617902602082015290915060005b838110156115115760006114fc826001613ddf565b5081905061150981613e79565b9150506114e7565b5061153a8160405180604001604052806003815260200160e860020a6244617902815250613575565b6115625760405180604001604052806003815260200160e860020a6244617902815250611599565b6040518060400160405280600581526020017f4e696768740000000000000000000000000000000000000000000000000000008152505b61018086015260006115ab87876135ce565b905060006115b988886136b2565b919b919a509098505050505050505050565b606060006115da836002613eb1565b6115e5906002613ddf565b67ffffffffffffffff8111156115fd576115fd61398f565b6040519080825280601f01601f191660200182016040528015611627576020820181803683370190505b5090507f30000000000000000000000000000000000000000000000000000000000000008160008151811061165e5761165e613c6a565b6020010190600160f860020a031916908160001a9053507f7800000000000000000000000000000000000000000000000000000000000000816001815181106116a9576116a9613c6a565b6020010190600160f860020a031916908160001a90535060006116cd846002613eb1565b6116d8906001613ddf565b90505b600181111561177b577f303132333435363738396162636465660000000000000000000000000000000085600f166010811061171957611719613c6a565b1a7f01000000000000000000000000000000000000000000000000000000000000000282828151811061174e5761174e613c6a565b6020010190600160f860020a031916908160001a90535060109094049361177481613ed0565b90506116db565b5083156103685760405160e560020a62461bcd02815260206004820181905260248201527f537472696e67733a20686578206c656e67746820696e73756666696369656e746044820152606401610339565b600081815260018301602052604081205480156118b65760006117f1600183613ee7565b855490915060009061180590600190613ee7565b905081811461186a57600086600001828154811061182557611825613c6a565b906000526020600020015490508087600001848154811061184857611848613c6a565b6000918252602080832090910192909255918252600188019052604090208390555b855486908061187b5761187b613efe565b60019003818190600052602060002001600090559055856001016000868152602001908152602001600020600090556001935050505061028c565b600091505061028c565b606060008360600151846040015160036118da9190613eb1565b60808601516118ea906003613eb1565b60208701516118fa906002613eb1565b60a088015161190a906004613eb1565b8851611917906002613eb1565b611922906006613ddf565b61192c9190613ddf565b6119369190613ddf565b6119409190613ddf565b61194a9190613ddf565b6119549190613ddf565b905060008167ffffffffffffffff8111156119715761197161398f565b60405190808252806020026020018201604052801561199a578160200160208202803683370190505b5090508460000151816000815181106119b5576119b5613c6a565b6020026020010181815250508460a00151816001815181106119d9576119d9613c6a565b6020026020010181815250508460200151816002815181106119fd576119fd613c6a565b602002602001018181525050846080015181600381518110611a2157611a21613c6a565b602002602001018181525050846040015181600481518110611a4557611a45613c6a565b602002602001018181525050846060015181600581518110611a6957611a69613c6a565b602090810291909101015260025460405160e060020a63ac01b83d02815260048101869052600091600160a060020a03169063ac01b83d90602401600060405180830381865afa158015611ac1573d6000803e3d6000fd5b505050506040513d6000823e601f3d908101601f19168201604052611ae99190810190613d17565b9050600660005b8251811015611cce576002548351600191600160a060020a031690637f041591908a90879086908110611b2557611b25613c6a565b60200260200101516040518363ffffffff1660e060020a028152600401611b56929190918252602082015260400190565b602060405180830381865afa158015611b73573d6000803e3d6000fd5b505050506040513d601f19601f82011682018060405250810190611b979190613da5565b6006811115611ba857611ba8613bb2565b1415611cbc57828181518110611bc057611bc0613c6a565b6020026020010151848381518110611bda57611bda613c6a565b60209081029190910101526002548351600160a060020a039091169063a2dc5860908990869085908110611c1057611c10613c6a565b60200260200101516040518363ffffffff1660e060020a028152600401611c41929190918252602082015260400190565b600060405180830381865afa158015611c5e573d6000803e3d6000fd5b505050506040513d6000823e601f3d908101601f19168201604052611c869190810190613f17565b5184611c93846001613ddf565b81518110611ca357611ca3613c6a565b6020908102919091010152611cb9600283613ddf565b91505b80611cc681613e79565b915050611af0565b5060005b8251811015611e04576002548351600091600160a060020a03169063fd82e21f908a90879086908110611d0757611d07613c6a565b60200260200101516040518363ffffffff1660e060020a028152600401611d38929190918252602082015260400190565b600060405180830381865afa158015611d55573d6000803e3d6000fd5b505050506040513d6000823e601f3d908101601f19168201604052611d7d9190810190613e44565b511115611df257828181518110611d9657611d96613c6a565b6020026020010151848381518110611db057611db0613c6a565b6020908102919091010152600084611dc9846001613ddf565b81518110611dd957611dd9613c6a565b6020908102919091010152611def600283613ddf565b91505b80611dfc81613e79565b915050611cd2565b5060005b8251811015611f39576002548351600091600160a060020a031690639b8e6819908a90879086908110611e3d57611e3d613c6a565b60200260200101516040518363ffffffff1660e060020a028152600401611e6e929190918252602082015260400190565b600060405180830381865afa158015611e8b573d6000803e3d6000fd5b505050506040513d6000823e601f3d908101601f19168201604052611eb39190810190613e44565b511115611f2757828181518110611ecc57611ecc613c6a565b6020026020010151848381518110611ee657611ee6613c6a565b6020908102919091010152600184611efe8483613ddf565b81518110611f0e57611f0e613c6a565b6020908102919091010152611f24600283613ddf565b91505b80611f3181613e79565b915050611e08565b5060005b82518110156120ab57600280548451600160a060020a0390911690637f041591908a90879086908110611f7257611f72613c6a565b60200260200101516040518363ffffffff1660e060020a028152600401611fa3929190918252602082015260400190565b602060405180830381865afa158015611fc0573d6000803e3d6000fd5b505050506040513d601f19601f82011682018060405250810190611fe49190613da5565b6006811115611ff557611ff5613bb2565b1415612099576402540be40084838151811061201357612013613c6a565b60200260200101818152505082818151811061203157612031613c6a565b6020026020010151848360016120479190613ddf565b8151811061205757612057613c6a565b6020908102919091010152600184612070846002613ddf565b8151811061208057612080613c6a565b6020908102919091010152612096600383613ddf565b91505b806120a381613e79565b915050611f3d565b5060005b825181101561221a576002548351600391600160a060020a031690637f041591908a908790869081106120e4576120e4613c6a565b60200260200101516040518363ffffffff1660e060020a028152600401612115929190918252602082015260400190565b602060405180830381865afa158015612132573d6000803e3d6000fd5b505050506040513d601f19601f820116820180604052508101906121569190613da5565b600681111561216757612167613bb2565b14156122085782818151811061217f5761217f613c6a565b602002602001015184838151811061219957612199613c6a565b60209081029190910101526402540be400846121b6846001613ddf565b815181106121c6576121c6613c6a565b60209081029190910101526001846121df846002613ddf565b815181106121ef576121ef613c6a565b6020908102919091010152612205600383613ddf565b91505b8061221281613e79565b9150506120af565b5060005b82518110156124a1576002548351600491600160a060020a031690637f041591908a9087908690811061225357612253613c6a565b60200260200101516040518363ffffffff1660e060020a028152600401612284929190918252602082015260400190565b602060405180830381865afa1580156122a1573d6000803e3d6000fd5b505050506040513d601f19601f820116820180604052508101906122c59190613da5565b60068111156122d6576122d6613bb2565b148061238e57506002548351600591600160a060020a031690637f041591908a9087908690811061230957612309613c6a565b60200260200101516040518363ffffffff1660e060020a02815260040161233a929190918252602082015260400190565b602060405180830381865afa158015612357573d6000803e3d6000fd5b505050506040513d601f19601f8201168201806040525081019061237b9190613da5565b600681111561238c5761238c613bb2565b145b8061244557506002548351600691600160a060020a031690637f041591908a908790869081106123c0576123c0613c6a565b60200260200101516040518363ffffffff1660e060020a0281526004016123f1929190918252602082015260400190565b602060405180830381865afa15801561240e573d6000803e3d6000fd5b505050506040513d601f19601f820116820180604052508101906124329190613da5565b600681111561244357612443613bb2565b145b1561248f5782818151811061245c5761245c613c6a565b602002602001015184838151811061247657612476613c6a565b60209081029190910101528161248b81613e79565b9250505b8061249981613e79565b91505061221e565b50919695505050505050565b6060828101516007906000906124c4906002613eb1565b60408601516124d4906002613eb1565b6080870151602088015188516124eb908790613eb1565b6124f6906001613ddf565b6125009190613ddf565b61250a9190613ddf565b6125149190613ddf565b61251e9190613ddf565b905060008167ffffffffffffffff81111561253b5761253b61398f565b60405190808252806020026020018201604052801561256e57816020015b60608152602001906001900390816125595790505b50905060405180604001604052806003815260200160e860020a6244617902815250816000815181106125a3576125a3613c6a565b602090810291909101015260025460405160e060020a63ac01b83d02815260048101879052600091600160a060020a03169063ac01b83d90602401600060405180830381865afa1580156125fb573d6000803e3d6000fd5b505050506040513d6000823e601f3d908101601f191682016040526126239190810190613d17565b9050600160005b8251811015612822576002548351600191600160a060020a031690637f041591908b9087908690811061265f5761265f613c6a565b60200260200101516040518363ffffffff1660e060020a028152600401612690929190918252602082015260400190565b602060405180830381865afa1580156126ad573d6000803e3d6000fd5b505050506040513d601f19601f820116820180604052508101906126d19190613da5565b60068111156126e2576126e2613bb2565b1415612810576002548351600091600160a060020a03169063a2dc5860908b9087908690811061271457612714613c6a565b60200260200101516040518363ffffffff1660e060020a028152600401612745929190918252602082015260400190565b600060405180830381865afa158015612762573d6000803e3d6000fd5b505050506040513d6000823e601f3d908101601f1916820160405261278a9190810190613f17565b905060005b8781101561280d57815181106127b457604051806020016040528060008152506127cf565b8181815181106127c6576127c6613c6a565b60200260200101515b8685815181106127e1576127e1613c6a565b602002602001018190525083806127f790613e79565b945050808061280590613e79565b91505061278f565b50505b8061281a81613e79565b91505061262a565b5060005b82518110156129b7576002548351600091600160a060020a03169063fd82e21f908b9087908690811061285b5761285b613c6a565b60200260200101516040518363ffffffff1660e060020a02815260040161288c929190918252602082015260400190565b600060405180830381865afa1580156128a9573d6000803e3d6000fd5b505050506040513d6000823e601f3d908101601f191682016040526128d19190810190613e44565b5111156129a5576002548351600160a060020a039091169063fd82e21f908a9086908590811061290357612903613c6a565b60200260200101516040518363ffffffff1660e060020a028152600401612934929190918252602082015260400190565b600060405180830381865afa158015612951573d6000803e3d6000fd5b505050506040513d6000823e601f3d908101601f191682016040526129799190810190613e44565b84838151811061298b5761298b613c6a565b602002602001018190525081806129a190613e79565b9250505b806129af81613e79565b915050612826565b5060005b8251811015612b4c576002548351600091600160a060020a031690639b8e6819908b908790869081106129f0576129f0613c6a565b60200260200101516040518363ffffffff1660e060020a028152600401612a21929190918252602082015260400190565b600060405180830381865afa158015612a3e573d6000803e3d6000fd5b505050506040513d6000823e601f3d908101601f19168201604052612a669190810190613e44565b511115612b3a576002548351600160a060020a0390911690639b8e6819908a90869085908110612a9857612a98613c6a565b60200260200101516040518363ffffffff1660e060020a028152600401612ac9929190918252602082015260400190565b600060405180830381865afa158015612ae6573d6000803e3d6000fd5b505050506040513d6000823e601f3d908101601f19168201604052612b0e9190810190613e44565b848381518110612b2057612b20613c6a565b60200260200101819052508180612b3690613e79565b9250505b80612b4481613e79565b9150506129bb565b5060005b8251811015612d3957600280548451600160a060020a0390911690637f041591908b90879086908110612b8557612b85613c6a565b60200260200101516040518363ffffffff1660e060020a028152600401612bb6929190918252602082015260400190565b602060405180830381865afa158015612bd3573d6000803e3d6000fd5b505050506040513d601f19601f82011682018060405250810190612bf79190613da5565b6006811115612c0857612c08613bb2565b1480612cc057506002548351600391600160a060020a031690637f041591908b90879086908110612c3b57612c3b613c6a565b60200260200101516040518363ffffffff1660e060020a028152600401612c6c929190918252602082015260400190565b602060405180830381865afa158015612c89573d6000803e3d6000fd5b505050506040513d601f19601f82011682018060405250810190612cad9190613da5565b6006811115612cbe57612cbe613bb2565b145b15612d27576040518060400160405280600881526020017f43616d7073697465000000000000000000000000000000000000000000000000815250848381518110612d0d57612d0d613c6a565b60200260200101819052508180612d2390613e79565b9250505b80612d3181613e79565b915050612b50565b5060005b8251811015612ffa57600280548451600160a060020a0390911690637f041591908b90879086908110612d7257612d72613c6a565b60200260200101516040518363ffffffff1660e060020a028152600401612da3929190918252602082015260400190565b602060405180830381865afa158015612dc0573d6000803e3d6000fd5b505050506040513d601f19601f82011682018060405250810190612de49190613da5565b6006811115612df557612df5613bb2565b1415612e99576040518060400160405280600a81526020017f53657475702063616d7000000000000000000000000000000000000000000000815250848381518110612e4357612e43613c6a565b60200260200101819052506040518060200160405280600081525084836001612e6c9190613ddf565b81518110612e7c57612e7c613c6a565b6020908102919091010152612e92600283613ddf565b9150612fe8565b6002548351600391600160a060020a031690637f041591908b90879086908110612ec557612ec5613c6a565b60200260200101516040518363ffffffff1660e060020a028152600401612ef6929190918252602082015260400190565b602060405180830381865afa158015612f13573d6000803e3d6000fd5b505050506040513d601f19601f82011682018060405250810190612f379190613da5565b6006811115612f4857612f48613bb2565b1415612fe8576040518060400160405280600f81526020017f427265616b20646f776e2063616d700000000000000000000000000000000000815250848381518110612f9657612f96613c6a565b60200260200101819052506040518060200160405280600081525084836001612fbf9190613ddf565b81518110612fcf57612fcf613c6a565b6020908102919091010152612fe5600283613ddf565b91505b80612ff281613e79565b915050612d3d565b5060005b8251811015613168576002548351600491600160a060020a031690637f041591908b9087908690811061303357613033613c6a565b60200260200101516040518363ffffffff1660e060020a028152600401613064929190918252602082015260400190565b602060405180830381865afa158015613081573d6000803e3d6000fd5b505050506040513d601f19601f820116820180604052508101906130a59190613da5565b60068111156130b6576130b6613bb2565b1415613156576040518060400160405280600381526020017f446967000000000000000000000000000000000000000000000000000000000081525084838151811061310457613104613c6a565b6020026020010181905250604051806020016040528060008152508483600161312d9190613ddf565b8151811061313d5761313d613c6a565b6020908102919091010152613153600283613ddf565b91505b8061316081613e79565b915050612ffe565b5060005b8251811015613368576002548351600591600160a060020a031690637f041591908b908790869081106131a1576131a1613c6a565b60200260200101516040518363ffffffff1660e060020a0281526004016131d2929190918252602082015260400190565b602060405180830381865afa1580156131ef573d6000803e3d6000fd5b505050506040513d601f19601f820116820180604052508101906132139190613da5565b600681111561322457613224613bb2565b1415613356576040518060400160405280600481526020017f526573740000000000000000000000000000000000000000000000000000000081525084838151811061327257613272613c6a565b60209081029190910101526002548351600160a060020a0390911690631b341b3e908a908690859081106132a8576132a8613c6a565b602090810291909101015160405160e060020a63ffffffff85160281526004810192909252602482015260006044820152606401600060405180830381865afa1580156132f9573d6000803e3d6000fd5b505050506040513d6000823e601f3d908101601f191682016040526133219190810190613e44565b8461332d846001613ddf565b8151811061333d5761333d613c6a565b6020908102919091010152613353600283613ddf565b91505b8061336081613e79565b91505061316c565b5060005b8251811015613568576002548351600691600160a060020a031690637f041591908b908790869081106133a1576133a1613c6a565b60200260200101516040518363ffffffff1660e060020a0281526004016133d2929190918252602082015260400190565b602060405180830381865afa1580156133ef573d6000803e3d6000fd5b505050506040513d601f19601f820116820180604052508101906134139190613da5565b600681111561342457613424613bb2565b1415613556576040518060400160405280600481526020017f48656c700000000000000000000000000000000000000000000000000000000081525084838151811061347257613472613c6a565b60209081029190910101526002548351600160a060020a0390911690631b341b3e908a908690859081106134a8576134a8613c6a565b602090810291909101015160405160e060020a63ffffffff85160281526004810192909252602482015260006044820152606401600060405180830381865afa1580156134f9573d6000803e3d6000fd5b505050506040513d6000823e601f3d908101601f191682016040526135219190810190613e44565b8461352d846001613ddf565b8151811061353d5761353d613c6a565b6020908102919091010152613553600283613ddf565b91505b8061356081613e79565b91505061336c565b5091979650505050505050565b6000816040516020016135889190613fc5565b60405160208183030381529060405280519060200120836040516020016135af9190613fc5565b6040516020818303038152906040528051906020012014905092915050565b606060008360600151846040015160036135e89190613eb1565b60808601516135f8906003613eb1565b6020870151613608906002613eb1565b60a0880151613618906004613eb1565b8851613625906002613eb1565b613630906006613ddf565b61363a9190613ddf565b6136449190613ddf565b61364e9190613ddf565b6136589190613ddf565b6136629190613ddf565b905060008167ffffffffffffffff81111561367f5761367f61398f565b6040519080825280602002602001820160405280156136a8578160200160208202803683370190505b5095945050505050565b6060828101516007906000906136c9906002613eb1565b60408601516136d9906002613eb1565b6080870151602088015188516136f0908790613eb1565b6136fb906001613ddf565b6137059190613ddf565b61370f9190613ddf565b6137199190613ddf565b6137239190613ddf565b905060008167ffffffffffffffff8111156137405761374061398f565b60405190808252806020026020018201604052801561377357816020015b606081526020019060019003908161375e5790505b5090508461018001518160008151811061378f5761378f613c6a565b602090810291909101015295945050505050565b6000602082840312156137b557600080fd5b8135600160e060020a03198116811461036857600080fd5b6000602082840312156137df57600080fd5b5035919050565b600160a060020a0381168114610a0e57600080fd5b6000806040838503121561380e57600080fd5b823591506020830135613820816137e6565b809150509250929050565b6000806040838503121561383e57600080fd5b50508035926020909101359150565b60006020828403121561385f57600080fd5b8135610368816137e6565b600081518084526020808501945080840160005b8381101561389a5781518752958201959082019060010161387e565b509495945050505050565b60005b838110156138c05781810151838201526020016138a8565b838111156138cf576000848401525b50505050565b600081518084526138ed8160208601602086016138a5565b601f01601f19169290920160200192915050565b6000828251808552602080860195508081830284010181860160005b8481101561394b57601f198684030189526139398383516138d5565b9884019892509083019060010161391d565b5090979650505050505050565b8315158152606060208201526000613973606083018561386a565b82810360408401526139858185613901565b9695505050505050565b60e060020a634e487b7102600052604160045260246000fd5b604051601f8201601f1916810167ffffffffffffffff811182821017156139d1576139d161398f565b604052919050565b600067ffffffffffffffff8211156139f3576139f361398f565b5060209081020190565b600067ffffffffffffffff821115613a1757613a1761398f565b50601f01601f191660200190565b600082601f830112613a3657600080fd5b81356020613a4b613a46836139d9565b6139a8565b82815291810284018101918181019086841115613a6757600080fd5b8286015b84811015613ae657803567ffffffffffffffff811115613a8b5760008081fd5b8701603f81018913613a9d5760008081fd5b848101356040613aaf613a46836139fd565b8281528b82848601011115613ac45760008081fd5b8282850189830137600092810188019290925250845250918301918301613a6b565b509695505050505050565b600080600060608486031215613b0657600080fd5b8335925060208085013567ffffffffffffffff80821115613b2657600080fd5b818701915087601f830112613b3a57600080fd5b8135613b48613a46826139d9565b8181529084028301840190848101908a831115613b6457600080fd5b938501935b82851015613b8257843582529385019390850190613b69565b965050506040870135925080831115613b9a57600080fd5b5050613ba886828701613a25565b9150509250925092565b60e060020a634e487b7102600052602160045260246000fd5b600060208284031215613bdd57600080fd5b81516006811061036857600080fd5b600060208284031215613bfe57600080fd5b5051919050565b606081526000613c18606083018661386a565b8281036020840152613c2a8186613901565b915050826040830152949350505050565b6040810160068410613c605760e060020a634e487b7102600052602160045260246000fd5b9281526020015290565b60e060020a634e487b7102600052603260045260246000fd5b7f416363657373436f6e74726f6c3a206163636f756e7420000000000000000000815260008351613cbb8160178501602088016138a5565b7f206973206d697373696e6720726f6c65200000000000000000000000000000006017918401918201528351613cf88160288401602088016138a5565b01602801949350505050565b60208152600061036860208301846138d5565b60006020808385031215613d2a57600080fd5b825167ffffffffffffffff811115613d4157600080fd5b8301601f81018513613d5257600080fd5b8051613d60613a46826139d9565b81815290830282018301908381019087831115613d7c57600080fd5b928401925b82841015613d9a57835182529284019290840190613d81565b979650505050505050565b600060208284031215613db757600080fd5b81516007811061036857600080fd5b60e060020a634e487b7102600052601160045260246000fd5b60008219821115613df257613df2613dc6565b500190565b600082601f830112613e0857600080fd5b8151613e16613a46826139fd565b818152846020838601011115613e2b57600080fd5b613e3c8260208301602087016138a5565b949350505050565b600060208284031215613e5657600080fd5b815167ffffffffffffffff811115613e6d57600080fd5b613e3c84828501613df7565b6000600019821415613e8d57613e8d613dc6565b5060010190565b600060208284031215613ea657600080fd5b8151610368816137e6565b6000816000190483118215151615613ecb57613ecb613dc6565b500290565b600081613edf57613edf613dc6565b506000190190565b600082821015613ef957613ef9613dc6565b500390565b60e060020a634e487b7102600052603160045260246000fd5b60006020808385031215613f2a57600080fd5b825167ffffffffffffffff80821115613f4257600080fd5b818501915085601f830112613f5657600080fd5b8151613f64613a46826139d9565b81815290840283018401908481019088831115613f8057600080fd5b8585015b83811015613fb857805185811115613f9c5760008081fd5b613faa8b89838a0101613df7565b845250918601918601613f84565b5098975050505050505050565b60008251613fd78184602087016138a5565b919091019291505056fe80e2196015fc06a9d891759f8e4f51eb314ef5e9ea068528a8ed0063b87759f0a26469706673582212206c39338fcdc5a310b44450e5f32383b170cece243d1ea9748c1c26016b63d7b164736f6c634300080b0033",
  "immutableReferences": {},
  "source": "// SPDX-License-Identifier: GPL-3.0\npragma solidity >=0.7.0 <0.9.0;\n\nimport \"./HexplorationQueue.sol\";\nimport \"./HexplorationStateUpdate.sol\";\nimport \"./state/GameSummary.sol\";\nimport \"./HexplorationBoard.sol\";\nimport \"@openzeppelin/contracts/access/AccessControlEnumerable.sol\";\n\ncontract HexplorationGameplay is AccessControlEnumerable {\n    bytes32 public constant VERIFIED_CONTROLLER_ROLE =\n        keccak256(\"VERIFIED_CONTROLLER_ROLE\");\n\n    HexplorationQueue QUEUE;\n    HexplorationStateUpdate GAME_STATE;\n    HexplorationBoard GAME_BOARD;\n    address gameSummaryAddress;\n\n    struct DataSummary {\n        uint256 playerPositionUpdates;\n        uint256 playerEquips;\n        uint256 zoneTransfers;\n        uint256 activeActions;\n        uint256 playerTransfers;\n        uint256 playerStatUpdates;\n    }\n\n    struct PlayUpdates {\n        uint256[] playerPositionIDs;\n        uint256[] playerEquipIDs;\n        uint256[] playerEquipHands;\n        uint256[] zoneTransfersTo;\n        uint256[] zoneTransfersFrom;\n        uint256[] zoneTransferQtys;\n        uint256[] playerTransfersTo;\n        uint256[] playerTransfersFrom;\n        uint256[] playerTransferQtys;\n        uint256[] playerStatUpdateIDs;\n        uint256[3][] playerStatUpdates;\n        uint256[] playerActiveActionIDs;\n        string gamePhase;\n        string[][] playerMovementOptions;\n        string[] playerEquips;\n        string[] zoneTransferItemTypes;\n        string[] playerTransferItemTypes;\n        string[] activeActions;\n        string[] activeActionOptions;\n    }\n\n    constructor(address _gameSummaryAddress, address gameBoardAddress) {\n        _setupRole(DEFAULT_ADMIN_ROLE, _msgSender());\n        GAME_BOARD = HexplorationBoard(gameBoardAddress);\n        gameSummaryAddress = _gameSummaryAddress;\n    }\n\n    function addVerifiedController(address vcAddress)\n        public\n        onlyRole(DEFAULT_ADMIN_ROLE)\n    {\n        grantRole(VERIFIED_CONTROLLER_ROLE, vcAddress);\n    }\n\n    function setQueue(address queueContract)\n        public\n        onlyRole(DEFAULT_ADMIN_ROLE)\n    {\n        QUEUE = HexplorationQueue(queueContract);\n        _setupRole(VERIFIED_CONTROLLER_ROLE, queueContract);\n    }\n\n    function setGameStateUpdate(address gsuAddress)\n        public\n        onlyRole(DEFAULT_ADMIN_ROLE)\n    {\n        GAME_STATE = HexplorationStateUpdate(gsuAddress);\n    }\n\n    // Keeper functions...\n    // returns if should be processing and processed moves to post if so\n    // this will be run twice for each phase, once for player actions,\n    // once for playing out world scenarios\n    function shouldContinueProcessing(uint256 queueID)\n        public\n        view\n        returns (\n            bool,\n            uint256[] memory,\n            string[] memory\n        )\n    {\n        bool shouldContinue = QUEUE.currentPhase(queueID) ==\n            HexplorationQueue.ProcessingPhase.Processing ||\n            QUEUE.currentPhase(queueID) ==\n            HexplorationQueue.ProcessingPhase.PlayThrough;\n        string[] memory stringsToPost;\n        uint256[] memory valuesToPost;\n        if (shouldContinue) {\n            (valuesToPost, stringsToPost) = process(queueID);\n        } else {\n            valuesToPost = new uint256[](0);\n            stringsToPost = new string[](0);\n        }\n\n        return (shouldContinue, valuesToPost, stringsToPost);\n    }\n\n    // posts data returned from shouldContinueProcessing()...\n    function postProcessedGameState(\n        uint256 queueID,\n        uint256[] memory intUpdates,\n        string[] memory stringUpdates\n    ) public onlyRole(VERIFIED_CONTROLLER_ROLE) {\n        HexplorationQueue.ProcessingPhase phase = QUEUE.currentPhase(queueID);\n\n        // TODO: set this to true when game is finished\n        bool gameComplete = false;\n        uint256 gameID = QUEUE.game(queueID);\n        if (phase == HexplorationQueue.ProcessingPhase.Processing) {\n            GAME_STATE.postUpdates(intUpdates, stringUpdates, gameID);\n            QUEUE.setPhase(\n                HexplorationQueue.ProcessingPhase.PlayThrough,\n                queueID\n            );\n        } else if (phase == HexplorationQueue.ProcessingPhase.PlayThrough) {\n            GAME_STATE.postUpdates(intUpdates, stringUpdates, gameID);\n            QUEUE.finishProcessing(queueID, gameComplete);\n        }\n    }\n\n    function process(uint256 queueID)\n        internal\n        view\n        returns (uint256[] memory intValues, string[] memory stringValues)\n    {\n        HexplorationQueue.ProcessingPhase phase = QUEUE.currentPhase(queueID);\n        if (QUEUE.randomness(queueID) != 0) {\n            if (phase == HexplorationQueue.ProcessingPhase.Processing) {\n                (intValues, stringValues) = processPlayerActions(queueID);\n            } else if (phase == HexplorationQueue.ProcessingPhase.PlayThrough) {\n                (intValues, stringValues) = playThrough(queueID);\n            } else {\n                intValues = new uint256[](0);\n                stringValues = new string[](0);\n            }\n        } else {\n            // randomness not set for queue yet\n            intValues = new uint256[](0);\n            stringValues = new string[](1);\n            stringValues[0] = \"awaiting randomness\";\n        }\n\n        // maybe we don't call this, since it needs to update state...\n        // update this when we pass the results from the shouldProcess\n        //finishProcessing(queueID);\n\n        // Update TODO: expand for processing larger turns...\n        // something like\n        // if (currentPhase == HexplorationQueue.ProcessingPhase.Processing) {\n        //     // processPlayerActions()\n        // } else if (\n        //     currentPhase == HexplorationQueue.ProcessingPhase.PlayThrough\n        // ) {\n        //     // playThrough()\n        //     // finishProcessing()\n        // }\n    }\n\n    function processPlayerActions(uint256 queueID)\n        internal\n        view\n        returns (uint256[] memory, string[] memory)\n    {\n        DataSummary memory data = DataSummary(0, 0, 0, 0, 0, 0);\n        uint256[] memory playersInQueue = QUEUE.getAllPlayers(queueID);\n        for (uint256 i = 0; i < playersInQueue.length; i++) {\n            uint256 playerID = playersInQueue[i];\n            HexplorationQueue.Action action = QUEUE.submissionAction(\n                queueID,\n                playerID\n            );\n            /*\n            Idle,\n            Move,\n            SetupCamp,\n            BreakDownCamp,\n            Dig,\n            Rest,\n            Help\n            */\n            if (action == HexplorationQueue.Action.Move) {\n                data.playerPositionUpdates += 1;\n            }\n            if (bytes(QUEUE.submissionLeftHand(queueID, playerID)).length > 0) {\n                data.playerEquips += 1;\n            }\n            if (\n                bytes(QUEUE.submissionRightHand(queueID, playerID)).length > 0\n            ) {\n                data.playerEquips += 1;\n            }\n            if (\n                action == HexplorationQueue.Action.SetupCamp ||\n                action == HexplorationQueue.Action.BreakDownCamp\n            ) {\n                data.zoneTransfers += 1;\n            }\n\n            if (\n                action == HexplorationQueue.Action.Dig ||\n                action == HexplorationQueue.Action.Rest ||\n                action == HexplorationQueue.Action.Help ||\n                action == HexplorationQueue.Action.SetupCamp ||\n                action == HexplorationQueue.Action.BreakDownCamp\n            ) {\n                data.activeActions += 1;\n            }\n        }\n\n        // Next: ( do this in play through phase / post )\n        // If dig:\n        // pull treasure card or ambush\n\n        // receive inventory / artifact or go to battle\n\n        // update totals after Dig, Rest, Help\n\n        uint256[] memory intReturn = processedIntArray(data, queueID);\n\n        string[] memory stringReturn = processedStringArray(data, queueID);\n\n        return (intReturn, stringReturn);\n    }\n\n    function playThrough(uint256 queueID)\n        internal\n        view\n        returns (uint256[] memory, string[] memory)\n    {\n        DataSummary memory data = DataSummary(0, 0, 0, 0, 0, 0);\n        PlayUpdates memory playUpdates;\n        uint256 gameID = QUEUE.game(queueID);\n        uint256 totalPlayers = PlayerRegistry(GAME_BOARD.prAddress())\n            .totalRegistrations(gameID);\n        CharacterCard cc = CharacterCard(GAME_BOARD.characterCard());\n        // check current phase (day / night)\n        string memory currentPhase = \"Day\";\n\n        for (uint256 i = 0; i < totalPlayers; i++) {\n            uint256 playerID = i + 1;\n\n            // to get current player stats...\n            // cc.movement(gameID, playerID) => returns uint8\n            // cc.agility(gameID, playerID) => returns uint8\n            // cc.dexterity(gameID, playerID) => returns uint8\n\n            // get results of active action (dig, rest, help)\n\n            // if Day, choose an Event or Ambush Card\n\n            // calculate results of card & set values\n        }\n\n        // update Phase (Day / Night);\n        playUpdates.gamePhase = stringsMatch(currentPhase, \"Day\")\n            ? \"Night\"\n            : \"Day\";\n\n        uint256[] memory intReturn = processedIntArrayFrom(data, playUpdates);\n        string[] memory stringReturn = processedStringArrayFrom(\n            data,\n            playUpdates\n        );\n\n        return (intReturn, stringReturn);\n\n        // if day phase (){\n        // Play through events\n        // daily events\n        //}\n        // if (end game) {\n        // play enemy stuff here\n        //}\n    }\n\n    function processedIntArrayFrom(\n        DataSummary memory dataSummary,\n        PlayUpdates memory playUpdates\n    ) internal pure returns (uint256[] memory) {\n        uint256 intReturnLength = 6 +\n            (dataSummary.playerPositionUpdates * 2) +\n            (dataSummary.playerStatUpdates * 4) +\n            (dataSummary.playerEquips * 2) +\n            (dataSummary.playerTransfers * 3) +\n            (dataSummary.zoneTransfers * 3) +\n            dataSummary.activeActions;\n        uint256[] memory returnArray = new uint256[](intReturnLength);\n        return returnArray;\n    }\n\n    function processedStringArrayFrom(\n        DataSummary memory dataSummary,\n        PlayUpdates memory playUpdates\n    ) internal pure returns (string[] memory) {\n        // TODO: update to actual max value\n        uint256 maxMovementPerPlayer = 7;\n        uint256 stringReturnLength = 1 +\n            (dataSummary.playerPositionUpdates * maxMovementPerPlayer) +\n            dataSummary.playerEquips +\n            dataSummary.playerTransfers +\n            (dataSummary.zoneTransfers * 2) +\n            (dataSummary.activeActions * 2);\n        string[] memory returnArray = new string[](stringReturnLength);\n        returnArray[0] = playUpdates.gamePhase;\n        return returnArray;\n    }\n\n    function processedIntArray(DataSummary memory dataSummary, uint256 queueID)\n        internal\n        view\n        returns (uint256[] memory)\n    {\n        uint256 intReturnLength = 6 +\n            (dataSummary.playerPositionUpdates * 2) +\n            (dataSummary.playerStatUpdates * 4) +\n            (dataSummary.playerEquips * 2) +\n            (dataSummary.playerTransfers * 3) +\n            (dataSummary.zoneTransfers * 3) +\n            dataSummary.activeActions;\n\n        uint256[] memory intReturn = new uint256[](intReturnLength);\n        intReturn[0] = dataSummary.playerPositionUpdates;\n        intReturn[1] = dataSummary.playerStatUpdates;\n        intReturn[2] = dataSummary.playerEquips;\n        intReturn[3] = dataSummary.playerTransfers;\n        intReturn[4] = dataSummary.zoneTransfers;\n        intReturn[5] = dataSummary.activeActions;\n\n        uint256[] memory playersInQueue = QUEUE.getAllPlayers(queueID);\n\n        uint256 currentArrayPosition = 6;\n\n        // Movement\n        for (uint256 i = 0; i < playersInQueue.length; i++) {\n            if (\n                QUEUE.submissionAction(queueID, playersInQueue[i]) ==\n                HexplorationQueue.Action.Move\n            ) {\n                // return [player id, # spaces to move]\n                intReturn[currentArrayPosition] = playersInQueue[i];\n                intReturn[currentArrayPosition + 1] = QUEUE\n                    .getSubmissionOptions(queueID, playersInQueue[i])\n                    .length;\n                currentArrayPosition += 2;\n            }\n        }\n\n        // LH equip\n        for (uint256 i = 0; i < playersInQueue.length; i++) {\n            if (\n                bytes(QUEUE.submissionLeftHand(queueID, playersInQueue[i]))\n                    .length > 0\n            ) {\n                // return [player id, r/l hand (0/1)]\n                intReturn[currentArrayPosition] = playersInQueue[i];\n                intReturn[currentArrayPosition + 1] = 0;\n                currentArrayPosition += 2;\n            }\n        }\n\n        // RH equip\n        for (uint256 i = 0; i < playersInQueue.length; i++) {\n            if (\n                bytes(QUEUE.submissionRightHand(queueID, playersInQueue[i]))\n                    .length > 0\n            ) {\n                // return [player id, r/l hand (0/1)]\n                intReturn[currentArrayPosition] = playersInQueue[i];\n                intReturn[currentArrayPosition + 1] = 1;\n                currentArrayPosition += 2;\n            }\n        }\n\n        // Camp actions\n        for (uint256 i = 0; i < playersInQueue.length; i++) {\n            if (\n                QUEUE.submissionAction(queueID, playersInQueue[i]) ==\n                HexplorationQueue.Action.SetupCamp\n            ) {\n                // setup camp\n                // transfer from player to zone\n                // return [to ID, from ID, quantity]\n                // Transfer 1 campsite from player to current zone\n\n                intReturn[currentArrayPosition] = 10000000000; //10000000000 represents current play zone of player\n                intReturn[currentArrayPosition + 1] = playersInQueue[i];\n                intReturn[currentArrayPosition + 2] = 1;\n                currentArrayPosition += 3;\n            }\n        }\n\n        for (uint256 i = 0; i < playersInQueue.length; i++) {\n            if (\n                QUEUE.submissionAction(queueID, playersInQueue[i]) ==\n                HexplorationQueue.Action.BreakDownCamp\n            ) {\n                // break down camp\n                // transfer from zone to player\n                intReturn[currentArrayPosition] = playersInQueue[i];\n                intReturn[currentArrayPosition + 1] = 10000000000;\n                intReturn[currentArrayPosition + 2] = 1;\n                currentArrayPosition += 3;\n            }\n        }\n\n        for (uint256 i = 0; i < playersInQueue.length; i++) {\n            if (\n                QUEUE.submissionAction(queueID, playersInQueue[i]) ==\n                HexplorationQueue.Action.Dig ||\n                QUEUE.submissionAction(queueID, playersInQueue[i]) ==\n                HexplorationQueue.Action.Rest ||\n                QUEUE.submissionAction(queueID, playersInQueue[i]) ==\n                HexplorationQueue.Action.Help\n            ) {\n                intReturn[currentArrayPosition] = playersInQueue[i];\n                currentArrayPosition++;\n            }\n        }\n\n        // following are updated on play through phase only\n        // no inventory transfers or stat adjustments from player action phase\n\n        // only need to store current action as digging, resting, and play out during play phase\n\n        return intReturn;\n    }\n\n    function processedStringArray(\n        DataSummary memory dataSummary,\n        uint256 queueID\n    ) internal view returns (string[] memory) {\n        // TODO: update to actual max value\n        uint256 maxMovementPerPlayer = 7;\n        uint256 stringReturnLength = 1 +\n            (dataSummary.playerPositionUpdates * maxMovementPerPlayer) +\n            dataSummary.playerEquips +\n            dataSummary.playerTransfers +\n            (dataSummary.zoneTransfers * 2) +\n            (dataSummary.activeActions * 2);\n\n        string[] memory stringReturn = new string[](stringReturnLength);\n        // TODO: update to actual game phase...\n        stringReturn[0] = \"Day\";\n\n        uint256[] memory playersInQueue = QUEUE.getAllPlayers(queueID);\n\n        uint256 currentArrayPosition = 1;\n\n        // Movement\n        for (uint256 i = 0; i < playersInQueue.length; i++) {\n            if (\n                QUEUE.submissionAction(queueID, playersInQueue[i]) ==\n                HexplorationQueue.Action.Move\n            ) {\n                string[] memory options = QUEUE.getSubmissionOptions(\n                    queueID,\n                    playersInQueue[i]\n                );\n                for (uint256 j = 0; j < maxMovementPerPlayer; j++) {\n                    stringReturn[currentArrayPosition] = j < options.length\n                        ? options[j]\n                        : \"\";\n                    currentArrayPosition++;\n                }\n            }\n        }\n\n        // LH equip\n        for (uint256 i = 0; i < playersInQueue.length; i++) {\n            if (\n                bytes(QUEUE.submissionLeftHand(queueID, playersInQueue[i]))\n                    .length > 0\n            ) {\n                stringReturn[currentArrayPosition] = QUEUE.submissionLeftHand(\n                    queueID,\n                    playersInQueue[i]\n                );\n                currentArrayPosition++;\n            }\n        }\n\n        // RH equip\n        for (uint256 i = 0; i < playersInQueue.length; i++) {\n            if (\n                bytes(QUEUE.submissionRightHand(queueID, playersInQueue[i]))\n                    .length > 0\n            ) {\n                stringReturn[currentArrayPosition] = QUEUE.submissionRightHand(\n                    queueID,\n                    playersInQueue[i]\n                );\n                currentArrayPosition++;\n            }\n        }\n\n        // Camp actions\n        for (uint256 i = 0; i < playersInQueue.length; i++) {\n            if (\n                QUEUE.submissionAction(queueID, playersInQueue[i]) ==\n                HexplorationQueue.Action.SetupCamp ||\n                QUEUE.submissionAction(queueID, playersInQueue[i]) ==\n                HexplorationQueue.Action.BreakDownCamp\n            ) {\n                stringReturn[currentArrayPosition] = \"Campsite\";\n                currentArrayPosition++;\n            }\n        }\n\n        for (uint256 i = 0; i < playersInQueue.length; i++) {\n            if (\n                QUEUE.submissionAction(queueID, playersInQueue[i]) ==\n                HexplorationQueue.Action.SetupCamp\n            ) {\n                stringReturn[currentArrayPosition] = \"Setup camp\";\n                stringReturn[currentArrayPosition + 1] = \"\";\n                currentArrayPosition += 2;\n            } else if (\n                QUEUE.submissionAction(queueID, playersInQueue[i]) ==\n                HexplorationQueue.Action.BreakDownCamp\n            ) {\n                stringReturn[currentArrayPosition] = \"Break down camp\";\n                stringReturn[currentArrayPosition + 1] = \"\";\n                currentArrayPosition += 2;\n            }\n        }\n\n        // Dig\n        for (uint256 i = 0; i < playersInQueue.length; i++) {\n            if (\n                QUEUE.submissionAction(queueID, playersInQueue[i]) ==\n                HexplorationQueue.Action.Dig\n            ) {\n                stringReturn[currentArrayPosition] = \"Dig\";\n                stringReturn[currentArrayPosition + 1] = \"\";\n                currentArrayPosition += 2;\n            }\n        }\n\n        //Rest\n        for (uint256 i = 0; i < playersInQueue.length; i++) {\n            if (\n                QUEUE.submissionAction(queueID, playersInQueue[i]) ==\n                HexplorationQueue.Action.Rest\n            ) {\n                stringReturn[currentArrayPosition] = \"Rest\";\n                stringReturn[currentArrayPosition + 1] = QUEUE\n                    .submissionOptions(queueID, playersInQueue[i], 0);\n                currentArrayPosition += 2;\n            }\n        }\n\n        // Help\n        for (uint256 i = 0; i < playersInQueue.length; i++) {\n            if (\n                QUEUE.submissionAction(queueID, playersInQueue[i]) ==\n                HexplorationQueue.Action.Help\n            ) {\n                stringReturn[currentArrayPosition] = \"Help\";\n                stringReturn[currentArrayPosition + 1] = QUEUE\n                    .submissionOptions(queueID, playersInQueue[i], 0);\n                currentArrayPosition += 2;\n            }\n        }\n        // set movement zones\n        return stringReturn;\n    }\n\n    function drawCard(\n        string memory cardType,\n        uint256 queueID,\n        uint256 playerID\n    )\n        internal\n        view\n        returns (\n            int256 speedAdjust,\n            int256 agilityAdjust,\n            int256 dexterityAdjust,\n            string memory itemTypeLoss,\n            string memory itemTypeGain,\n            string[] memory movementPath\n        )\n    {\n        // get randomness from queue\n    }\n\n    function rollDice(\n        uint256 queueID,\n        uint256[] memory diceValues,\n        uint256 diceQty\n    ) internal view returns (uint256[] memory) {}\n\n    function stringsMatch(string memory s1, string memory s2)\n        internal\n        pure\n        returns (bool)\n    {\n        return\n            keccak256(abi.encodePacked(s1)) == keccak256(abi.encodePacked(s2));\n    }\n}\n\n// What is processing?\n// take all moves from batch, verify are valid moves, and\n// return list of final moves to process\n// keeper will post list of final moves to contract,\n//// *shouldn't be able to fail if it got this far\n// moves that failed pre-check will be returned as another list that will get logged in an event\n\n// Initial thoughts for scaling...\n// figure out most expensive move and only do as many as can be safely completed\n// in one transaction\n// start at currentQueuePosition\n// after each move is processed currentQueuePosition++\n// on after final batch, switch day / night and\n// set QUEUE.setPhase(HexplorationQueue.ProcessingPhase.PlayThrough, queueID);\n",
  "sourcePath": "/Users/maxmeier/Developer/Lucky Machines/hexploration/contracts/HexplorationGameplay.sol",
  "compiler": {
    "name": "solc",
    "version": "0.8.11+commit.d7f03943.Emscripten.clang"
  },
  "schemaVersion": "3.4.4",
  "updatedAt": "2022-05-25T00:14:46.143Z",
  "devdoc": {
    "kind": "dev",
    "methods": {
      "getRoleAdmin(bytes32)": {
        "details": "Returns the admin role that controls `role`. See {grantRole} and {revokeRole}. To change a role's admin, use {_setRoleAdmin}."
      },
      "getRoleMember(bytes32,uint256)": {
        "details": "Returns one of the accounts that have `role`. `index` must be a value between 0 and {getRoleMemberCount}, non-inclusive. Role bearers are not sorted in any particular way, and their ordering may change at any point. WARNING: When using {getRoleMember} and {getRoleMemberCount}, make sure you perform all queries on the same block. See the following https://forum.openzeppelin.com/t/iterating-over-elements-on-enumerableset-in-openzeppelin-contracts/2296[forum post] for more information."
      },
      "getRoleMemberCount(bytes32)": {
        "details": "Returns the number of accounts that have `role`. Can be used together with {getRoleMember} to enumerate all bearers of a role."
      },
      "grantRole(bytes32,address)": {
        "details": "Grants `role` to `account`. If `account` had not been already granted `role`, emits a {RoleGranted} event. Requirements: - the caller must have ``role``'s admin role."
      },
      "hasRole(bytes32,address)": {
        "details": "Returns `true` if `account` has been granted `role`."
      },
      "renounceRole(bytes32,address)": {
        "details": "Revokes `role` from the calling account. Roles are often managed via {grantRole} and {revokeRole}: this function's purpose is to provide a mechanism for accounts to lose their privileges if they are compromised (such as when a trusted device is misplaced). If the calling account had been revoked `role`, emits a {RoleRevoked} event. Requirements: - the caller must be `account`."
      },
      "revokeRole(bytes32,address)": {
        "details": "Revokes `role` from `account`. If `account` had been granted `role`, emits a {RoleRevoked} event. Requirements: - the caller must have ``role``'s admin role."
      },
      "supportsInterface(bytes4)": {
        "details": "See {IERC165-supportsInterface}."
      }
    },
    "version": 1
  },
  "userdoc": {
    "kind": "user",
    "methods": {},
    "version": 1
  }
}