{
  "contractName": "HexplorationQueue",
  "abi": [
    {
      "inputs": [
        {
          "internalType": "address",
          "name": "gameplayAddress",
          "type": "address"
        }
      ],
      "stateMutability": "nonpayable",
      "type": "constructor"
    },
    {
      "anonymous": false,
      "inputs": [
        {
          "indexed": true,
          "internalType": "bytes32",
          "name": "role",
          "type": "bytes32"
        },
        {
          "indexed": true,
          "internalType": "bytes32",
          "name": "previousAdminRole",
          "type": "bytes32"
        },
        {
          "indexed": true,
          "internalType": "bytes32",
          "name": "newAdminRole",
          "type": "bytes32"
        }
      ],
      "name": "RoleAdminChanged",
      "type": "event"
    },
    {
      "anonymous": false,
      "inputs": [
        {
          "indexed": true,
          "internalType": "bytes32",
          "name": "role",
          "type": "bytes32"
        },
        {
          "indexed": true,
          "internalType": "address",
          "name": "account",
          "type": "address"
        },
        {
          "indexed": true,
          "internalType": "address",
          "name": "sender",
          "type": "address"
        }
      ],
      "name": "RoleGranted",
      "type": "event"
    },
    {
      "anonymous": false,
      "inputs": [
        {
          "indexed": true,
          "internalType": "bytes32",
          "name": "role",
          "type": "bytes32"
        },
        {
          "indexed": true,
          "internalType": "address",
          "name": "account",
          "type": "address"
        },
        {
          "indexed": true,
          "internalType": "address",
          "name": "sender",
          "type": "address"
        }
      ],
      "name": "RoleRevoked",
      "type": "event"
    },
    {
      "inputs": [],
      "name": "DEFAULT_ADMIN_ROLE",
      "outputs": [
        {
          "internalType": "bytes32",
          "name": "",
          "type": "bytes32"
        }
      ],
      "stateMutability": "view",
      "type": "function"
    },
    {
      "inputs": [],
      "name": "GAMEPLAY_ROLE",
      "outputs": [
        {
          "internalType": "bytes32",
          "name": "",
          "type": "bytes32"
        }
      ],
      "stateMutability": "view",
      "type": "function"
    },
    {
      "inputs": [],
      "name": "VERIFIED_CONTROLLER_ROLE",
      "outputs": [
        {
          "internalType": "bytes32",
          "name": "",
          "type": "bytes32"
        }
      ],
      "stateMutability": "view",
      "type": "function"
    },
    {
      "inputs": [
        {
          "internalType": "uint256",
          "name": "",
          "type": "uint256"
        }
      ],
      "name": "currentPhase",
      "outputs": [
        {
          "internalType": "enum HexplorationQueue.ProcessingPhase",
          "name": "",
          "type": "uint8"
        }
      ],
      "stateMutability": "view",
      "type": "function"
    },
    {
      "inputs": [
        {
          "internalType": "uint256",
          "name": "",
          "type": "uint256"
        }
      ],
      "name": "currentQueuePosition",
      "outputs": [
        {
          "internalType": "uint16",
          "name": "",
          "type": "uint16"
        }
      ],
      "stateMutability": "view",
      "type": "function"
    },
    {
      "inputs": [
        {
          "internalType": "uint256",
          "name": "",
          "type": "uint256"
        }
      ],
      "name": "game",
      "outputs": [
        {
          "internalType": "uint256",
          "name": "",
          "type": "uint256"
        }
      ],
      "stateMutability": "view",
      "type": "function"
    },
    {
      "inputs": [
        {
          "internalType": "bytes32",
          "name": "role",
          "type": "bytes32"
        }
      ],
      "name": "getRoleAdmin",
      "outputs": [
        {
          "internalType": "bytes32",
          "name": "",
          "type": "bytes32"
        }
      ],
      "stateMutability": "view",
      "type": "function"
    },
    {
      "inputs": [
        {
          "internalType": "bytes32",
          "name": "role",
          "type": "bytes32"
        },
        {
          "internalType": "uint256",
          "name": "index",
          "type": "uint256"
        }
      ],
      "name": "getRoleMember",
      "outputs": [
        {
          "internalType": "address",
          "name": "",
          "type": "address"
        }
      ],
      "stateMutability": "view",
      "type": "function"
    },
    {
      "inputs": [
        {
          "internalType": "bytes32",
          "name": "role",
          "type": "bytes32"
        }
      ],
      "name": "getRoleMemberCount",
      "outputs": [
        {
          "internalType": "uint256",
          "name": "",
          "type": "uint256"
        }
      ],
      "stateMutability": "view",
      "type": "function"
    },
    {
      "inputs": [
        {
          "internalType": "bytes32",
          "name": "role",
          "type": "bytes32"
        },
        {
          "internalType": "address",
          "name": "account",
          "type": "address"
        }
      ],
      "name": "grantRole",
      "outputs": [],
      "stateMutability": "nonpayable",
      "type": "function"
    },
    {
      "inputs": [
        {
          "internalType": "bytes32",
          "name": "role",
          "type": "bytes32"
        },
        {
          "internalType": "address",
          "name": "account",
          "type": "address"
        }
      ],
      "name": "hasRole",
      "outputs": [
        {
          "internalType": "bool",
          "name": "",
          "type": "bool"
        }
      ],
      "stateMutability": "view",
      "type": "function"
    },
    {
      "inputs": [
        {
          "internalType": "uint256",
          "name": "",
          "type": "uint256"
        }
      ],
      "name": "inProcessingQueue",
      "outputs": [
        {
          "internalType": "bool",
          "name": "",
          "type": "bool"
        }
      ],
      "stateMutability": "view",
      "type": "function"
    },
    {
      "inputs": [
        {
          "internalType": "uint256",
          "name": "",
          "type": "uint256"
        }
      ],
      "name": "playThroughPosition",
      "outputs": [
        {
          "internalType": "uint16",
          "name": "",
          "type": "uint16"
        }
      ],
      "stateMutability": "view",
      "type": "function"
    },
    {
      "inputs": [
        {
          "internalType": "uint256",
          "name": "",
          "type": "uint256"
        },
        {
          "internalType": "uint256",
          "name": "",
          "type": "uint256"
        }
      ],
      "name": "playerSubmitted",
      "outputs": [
        {
          "internalType": "bool",
          "name": "",
          "type": "bool"
        }
      ],
      "stateMutability": "view",
      "type": "function"
    },
    {
      "inputs": [
        {
          "internalType": "uint256",
          "name": "",
          "type": "uint256"
        },
        {
          "internalType": "uint256",
          "name": "",
          "type": "uint256"
        }
      ],
      "name": "players",
      "outputs": [
        {
          "internalType": "uint256",
          "name": "",
          "type": "uint256"
        }
      ],
      "stateMutability": "view",
      "type": "function"
    },
    {
      "inputs": [
        {
          "internalType": "uint256",
          "name": "",
          "type": "uint256"
        }
      ],
      "name": "processingQueue",
      "outputs": [
        {
          "internalType": "uint256",
          "name": "",
          "type": "uint256"
        }
      ],
      "stateMutability": "view",
      "type": "function"
    },
    {
      "inputs": [
        {
          "internalType": "uint256",
          "name": "",
          "type": "uint256"
        }
      ],
      "name": "queueID",
      "outputs": [
        {
          "internalType": "uint256",
          "name": "",
          "type": "uint256"
        }
      ],
      "stateMutability": "view",
      "type": "function"
    },
    {
      "inputs": [
        {
          "internalType": "bytes32",
          "name": "role",
          "type": "bytes32"
        },
        {
          "internalType": "address",
          "name": "account",
          "type": "address"
        }
      ],
      "name": "renounceRole",
      "outputs": [],
      "stateMutability": "nonpayable",
      "type": "function"
    },
    {
      "inputs": [
        {
          "internalType": "bytes32",
          "name": "role",
          "type": "bytes32"
        },
        {
          "internalType": "address",
          "name": "account",
          "type": "address"
        }
      ],
      "name": "revokeRole",
      "outputs": [],
      "stateMutability": "nonpayable",
      "type": "function"
    },
    {
      "inputs": [
        {
          "internalType": "uint256",
          "name": "",
          "type": "uint256"
        },
        {
          "internalType": "uint256",
          "name": "",
          "type": "uint256"
        }
      ],
      "name": "submissionAction",
      "outputs": [
        {
          "internalType": "enum HexplorationQueue.Action",
          "name": "",
          "type": "uint8"
        }
      ],
      "stateMutability": "view",
      "type": "function"
    },
    {
      "inputs": [
        {
          "internalType": "uint256",
          "name": "",
          "type": "uint256"
        },
        {
          "internalType": "uint256",
          "name": "",
          "type": "uint256"
        }
      ],
      "name": "submissionLeftHand",
      "outputs": [
        {
          "internalType": "string",
          "name": "",
          "type": "string"
        }
      ],
      "stateMutability": "view",
      "type": "function"
    },
    {
      "inputs": [
        {
          "internalType": "uint256",
          "name": "",
          "type": "uint256"
        },
        {
          "internalType": "uint256",
          "name": "",
          "type": "uint256"
        },
        {
          "internalType": "uint256",
          "name": "",
          "type": "uint256"
        }
      ],
      "name": "submissionOptions",
      "outputs": [
        {
          "internalType": "string",
          "name": "",
          "type": "string"
        }
      ],
      "stateMutability": "view",
      "type": "function"
    },
    {
      "inputs": [
        {
          "internalType": "uint256",
          "name": "",
          "type": "uint256"
        },
        {
          "internalType": "uint256",
          "name": "",
          "type": "uint256"
        }
      ],
      "name": "submissionRightHand",
      "outputs": [
        {
          "internalType": "string",
          "name": "",
          "type": "string"
        }
      ],
      "stateMutability": "view",
      "type": "function"
    },
    {
      "inputs": [
        {
          "internalType": "bytes4",
          "name": "interfaceId",
          "type": "bytes4"
        }
      ],
      "name": "supportsInterface",
      "outputs": [
        {
          "internalType": "bool",
          "name": "",
          "type": "bool"
        }
      ],
      "stateMutability": "view",
      "type": "function"
    },
    {
      "inputs": [
        {
          "internalType": "uint256",
          "name": "",
          "type": "uint256"
        }
      ],
      "name": "totalPlayers",
      "outputs": [
        {
          "internalType": "uint256",
          "name": "",
          "type": "uint256"
        }
      ],
      "stateMutability": "view",
      "type": "function"
    },
    {
      "inputs": [
        {
          "internalType": "address",
          "name": "controllerAddress",
          "type": "address"
        }
      ],
      "name": "addVerifiedController",
      "outputs": [],
      "stateMutability": "nonpayable",
      "type": "function"
    },
    {
      "inputs": [
        {
          "internalType": "uint256",
          "name": "gameID",
          "type": "uint256"
        },
        {
          "internalType": "uint256",
          "name": "_totalPlayers",
          "type": "uint256"
        }
      ],
      "name": "requestGameQueue",
      "outputs": [
        {
          "internalType": "uint256",
          "name": "",
          "type": "uint256"
        }
      ],
      "stateMutability": "nonpayable",
      "type": "function"
    },
    {
      "inputs": [
        {
          "internalType": "uint256",
          "name": "_queueID",
          "type": "uint256"
        }
      ],
      "name": "startGame",
      "outputs": [],
      "stateMutability": "nonpayable",
      "type": "function"
    },
    {
      "inputs": [
        {
          "internalType": "uint256",
          "name": "playerID",
          "type": "uint256"
        },
        {
          "internalType": "uint8",
          "name": "action",
          "type": "uint8"
        },
        {
          "internalType": "string[]",
          "name": "options",
          "type": "string[]"
        },
        {
          "internalType": "string",
          "name": "leftHand",
          "type": "string"
        },
        {
          "internalType": "string",
          "name": "rightHand",
          "type": "string"
        },
        {
          "internalType": "uint256",
          "name": "_queueID",
          "type": "uint256"
        }
      ],
      "name": "sumbitActionForPlayer",
      "outputs": [],
      "stateMutability": "nonpayable",
      "type": "function"
    },
    {
      "inputs": [
        {
          "internalType": "uint256",
          "name": "_queueID",
          "type": "uint256"
        }
      ],
      "name": "requestProcessActions",
      "outputs": [],
      "stateMutability": "nonpayable",
      "type": "function"
    },
    {
      "inputs": [
        {
          "internalType": "uint256",
          "name": "_queueID",
          "type": "uint256"
        }
      ],
      "name": "getAllPlayers",
      "outputs": [
        {
          "internalType": "uint256[]",
          "name": "",
          "type": "uint256[]"
        }
      ],
      "stateMutability": "view",
      "type": "function"
    },
    {
      "inputs": [
        {
          "internalType": "uint256",
          "name": "_queueID",
          "type": "uint256"
        },
        {
          "internalType": "uint256",
          "name": "_playerID",
          "type": "uint256"
        }
      ],
      "name": "getSubmissionOptions",
      "outputs": [
        {
          "internalType": "string[]",
          "name": "",
          "type": "string[]"
        }
      ],
      "stateMutability": "view",
      "type": "function"
    },
    {
      "inputs": [
        {
          "internalType": "enum HexplorationQueue.ProcessingPhase",
          "name": "phase",
          "type": "uint8"
        },
        {
          "internalType": "uint256",
          "name": "_queueID",
          "type": "uint256"
        }
      ],
      "name": "setPhase",
      "outputs": [],
      "stateMutability": "nonpayable",
      "type": "function"
    },
    {
      "inputs": [
        {
          "internalType": "uint256",
          "name": "randomNumber",
          "type": "uint256"
        },
        {
          "internalType": "uint256",
          "name": "_queueID",
          "type": "uint256"
        }
      ],
      "name": "setRandomNumber",
      "outputs": [],
      "stateMutability": "nonpayable",
      "type": "function"
    },
    {
      "inputs": [
        {
          "internalType": "uint256",
          "name": "_queueID",
          "type": "uint256"
        }
      ],
      "name": "requestNewQueueID",
      "outputs": [],
      "stateMutability": "nonpayable",
      "type": "function"
    },
    {
      "inputs": [
        {
          "internalType": "uint256",
          "name": "_queueID",
          "type": "uint256"
        }
      ],
      "name": "setProcessingComplete",
      "outputs": [],
      "stateMutability": "nonpayable",
      "type": "function"
    }
  ],
  "bytecode": "0x60806040523480156200001157600080fd5b5060405162001f6738038062001f6783398101604081905262000034916200027d565b6200005c60006200004d640100000000620000b2810204565b640100000000620000b6810204565b620000917f0c2c7e957bdf811d5a896b04e816b9c382dfb980c93b21b0288b75c85d598acd82640100000000620000b6810204565b620000ab600264010000000062000dee620000cf82021704565b50620002af565b3390565b620000cb8282640100000000620000d8810204565b5050565b80546001019055565b620000f2828264010000000062000df76200011f82021704565b60008281526001602052604090206200011a908264010000000062000e7b620001bb82021704565b505050565b620001348282640100000000620001e4810204565b620000cb57600082815260208181526040808320600160a060020a03851684529091529020805460ff1916600117905562000177640100000000620000b2810204565b600160a060020a031681600160a060020a0316837f2f8788117e7eff1d82e926ec794901d17c78024a50270940304540a733656f0d60405160405180910390a45050565b6000620001db83600160a060020a0384166401000000006200020d810204565b90505b92915050565b600091825260208281526040808420600160a060020a0393909316845291905290205460ff1690565b600062000224838364010000000062000265810204565b6200025c57508154600181810184556000848152602080822090930184905584548482528286019093526040902091909155620001de565b506000620001de565b60009081526001919091016020526040902054151590565b6000602082840312156200029057600080fd5b8151600160a060020a0381168114620002a857600080fd5b9392505050565b611ca880620002bf6000396000f3fe608060405234801561001057600080fd5b5060043610610239576000357c0100000000000000000000000000000000000000000000000000000000900480639b8e681911610142578063ca15c873116100ca578063d809371f11610099578063d809371f14610598578063e2f315c1146105ab578063e5ed1d59146105cf578063e73ed37f146105e2578063fd82e21f1461061057600080fd5b8063ca15c8731461053f578063cddbe72914610552578063d4f5b15214610572578063d547741f1461058557600080fd5b8063a2dc586011610111578063a2dc58601461049c578063ac01b83d146104bc578063ae6a7056146104dc578063af7afe56146104ef578063b1fb64051461050f57600080fd5b80639b8e68191461044b5780639bd78d2b1461045e5780639f6bc61d14610481578063a217fddf1461049457600080fd5b806336568abe116101c5578063861814e211610194578063861814e2146103c75780638f21c3ac146103e75780639010d07c146103fa57806391d1485414610425578063998f1b801461043857600080fd5b806336568abe146103535780635da4fabc146103665780636b775e5c146103795780637f0415911461038c57600080fd5b80631b341b3e1161020c5780631b341b3e146102d35780631c834a7f146102f3578063248a9ca31461030857806328d6b4c01461032b5780632f2ff15d1461034057600080fd5b806301ffc9a71461023e57806304ac8fee1461026657806306fb55271461027b5780630c6ea5311461029c575b600080fd5b61025161024c366004611639565b610623565b60405190151581526020015b60405180910390f35b610279610274366004611663565b610667565b005b61028e610289366004611693565b6106b4565b60405190815260200161025d565b6102c06102aa3660046116b5565b60046020526000908152604090205461ffff1681565b60405161ffff909116815260200161025d565b6102e66102e13660046116ce565b6106e0565b60405161025d9190611756565b61028e600080516020611c5383398151915281565b61028e6103163660046116b5565b60009081526020819052604090206001015490565b61028e600080516020611c3383398151915281565b61027961034e366004611785565b6107a6565b610279610361366004611785565b6107d0565b610279610374366004611693565b610864565b6102796103873660046116b5565b61088e565b6103ba61039a366004611693565b600c60209081526000928352604080842090915290825290205460ff1681565b60405161025d91906117ca565b61028e6103d53660046116b5565b60066020526000908152604090205481565b6102796103f53660046116b5565b6108af565b61040d610408366004611693565b6108f8565b604051600160a060020a03909116815260200161025d565b610251610433366004611785565b610917565b61028e610446366004611693565b610940565b6102e6610459366004611693565b610971565b61025161046c3660046116b5565b60076020526000908152604090205460ff1681565b61028e61048f3660046116b5565b610995565b61028e600081565b6104af6104aa366004611693565b6109b6565b60405161025d91906117e4565b6104cf6104ca3660046116b5565b610aa4565b60405161025d9190611845565b6102796104ea3660046119e1565b610b06565b61028e6104fd3660046116b5565b600b6020526000908152604090205481565b61053261051d3660046116b5565b60086020526000908152604090205460ff1681565b60405161025d9190611a94565b61028e61054d3660046116b5565b610ce2565b61028e6105603660046116b5565b60096020526000908152604090205481565b610279610580366004611aa8565b610cf9565b610279610593366004611785565b610d1c565b6102796105a63660046116b5565b610d41565b6102c06105b93660046116b5565b60056020526000908152604090205461ffff1681565b6102796105dd3660046116b5565b610d96565b6102516105f0366004611693565b601060209081526000928352604080842090915290825290205460ff1681565b6102e661061e366004611693565b610dca565b6000600160e060020a031982167f5a05180f000000000000000000000000000000000000000000000000000000001480610661575061066182610e90565b92915050565b600080516020611c3383398151915261067f81610ef7565b6000828152600860205260409020805484919060ff191660018360058111156106aa576106aa6117b1565b0217905550505050565b6000600080516020611c538339815191526106ce81610ef7565b6106d88484610f04565b949350505050565b600d602052826000526040600020602052816000526040600020818154811061070857600080fd5b906000526020600020016000925092505050805461072590611ac3565b80601f016020809104026020016040519081016040528092919081815260200182805461075190611ac3565b801561079e5780601f106107735761010080835404028352916020019161079e565b820191906000526020600020905b81548152906001019060200180831161078157829003601f168201915b505050505081565b6000828152602081905260409020600101546107c181610ef7565b6107cb8383610f9c565b505050565b600160a060020a03811633146108565760405160e560020a62461bcd02815260206004820152602f60248201527f416363657373436f6e74726f6c3a2063616e206f6e6c792072656e6f756e636560448201527f20726f6c657320666f722073656c66000000000000000000000000000000000060648201526084015b60405180910390fd5b6108608282610fbe565b5050565b600080516020611c3383398151915261087c81610ef7565b50600090815260116020526040902055565b600080516020611c538339815191526108a681610ef7565b61086082610fe0565b600080516020611c338339815191526108c781610ef7565b5060009081526009602090815260408083205460088352818420805460ff1916600417905583526006909152812055565b60008281526001602052604081206109109083611043565b9392505050565b600091825260208281526040808420600160a060020a0393909316845291905290205460ff1690565b600a602052816000526040600020818154811061095c57600080fd5b90600052602060002001600091509150505481565b600f6020908152600092835260408084209091529082529020805461072590611ac3565b600381815481106109a557600080fd5b600091825260209091200154905081565b6000828152600d602090815260408083208484528252808320805482518185028101850190935280835260609492939192909184015b82821015610a98578382906000526020600020018054610a0b90611ac3565b80601f0160208091040260200160405190810160405280929190818152602001828054610a3790611ac3565b8015610a845780601f10610a5957610100808354040283529160200191610a84565b820191906000526020600020905b815481529060010190602001808311610a6757829003601f168201915b5050505050815260200190600101906109ec565b50505050905092915050565b6000818152600a6020908152604091829020805483518184028101840190945280845260609392830182828015610afa57602002820191906000526020600020905b815481526020019060010190808311610ae6575b50505050509050919050565b600080516020611c53833981519152610b1e81610ef7565b600160008381526008602052604090205460ff166005811115610b4357610b436117b1565b14610b935760405160e560020a62461bcd02815260206004820152601460248201527f4e6f74207375626d697373696f6e207068617365000000000000000000000000604482015260640161084d565b60008281526010602090815260408083208a845290915290205460ff16610cd9578560ff166006811115610bc957610bc96117b1565b6000838152600c602090815260408083208b84529091529020805460ff19166001836006811115610bfc57610bfc6117b1565b02179055506000828152600d602090815260408083208a845282529091208651610c28928801906114f0565b506000828152600e602090815260408083208a845282529091208551610c509287019061154d565b506000828152600f602090815260408083208a845282529091208451610c789286019061154d565b506000828152600a602081815260408084208054600181810183558287528487209091018d9055878652601084528286208d87528452828620805460ff19169091179055868552600b8352932054919052905410610cd957610cd982610fe0565b50505050505050565b60008181526001602052604081206106619061104f565b6000610d0481610ef7565b610860600080516020611c53833981519152836107a6565b600082815260208190526040902060010154610d3781610ef7565b6107cb8383610fbe565b600080516020611c33833981519152610d5981610ef7565b600082815260096020908152604080832054600b90925290912054610d7e8282610f04565b60009283526006602052604090922091909155505050565b600080516020611c53833981519152610dae81610ef7565b506000908152600860205260409020805460ff19166001179055565b600e6020908152600092835260408084209091529082529020805461072590611ac3565b80546001019055565b610e018282610917565b61086057600082815260208181526040808320600160a060020a03851684529091529020805460ff19166001179055610e373390565b600160a060020a031681600160a060020a0316837f2f8788117e7eff1d82e926ec794901d17c78024a50270940304540a733656f0d60405160405180910390a45050565b600061091083600160a060020a038416611059565b6000600160e060020a031982167f7965db0b00000000000000000000000000000000000000000000000000000000148061066157507f01ffc9a700000000000000000000000000000000000000000000000000000000600160e060020a0319831614610661565b610f0181336110a8565b50565b60008281526006602052604081205415610f635760405160e560020a62461bcd02815260206004820152601160248201527f717565756520616c726561647920736574000000000000000000000000000000604482015260640161084d565b6000610f6e60025490565b6000858152600660209081526040808320849055600b90915290208490559050610910600280546001019055565b610fa68282610df7565b60008281526001602052604090206107cb9082610e7b565b610fc8828261110f565b60008281526001602052604090206107cb9082611174565b60008181526007602052604090205460ff16610f01576003805460018181019092557fc2575a0e9e593c00f959f8c92f12db2869c3395a3b0502d05e2516446f71f85b018290556000828152600760205260409020805460ff1916909117905550565b60006109108383611189565b6000610661825490565b60008181526001830160205260408120546110a057508154600181810184556000848152602080822090930184905584548482528286019093526040902091909155610661565b506000610661565b6110b28282610917565b610860576110ca81600160a060020a031660146111b3565b6110d58360206111b3565b6040516020016110e6929190611b01565b60408051601f198184030181529082905260e560020a62461bcd02825261084d91600401611756565b6111198282610917565b1561086057600082815260208181526040808320600160a060020a0385168085529252808320805460ff1916905551339285917ff6391f5c32d9c69d2a47ea670b442974b53935d1edc7fd64eb21e047a839171b9190a45050565b600061091083600160a060020a0384166113fd565b60008260000182815481106111a0576111a0611b82565b9060005260206000200154905092915050565b606060006111c2836002611bb4565b6111cd906002611bd3565b67ffffffffffffffff8111156111e5576111e5611889565b6040519080825280601f01601f19166020018201604052801561120f576020820181803683370190505b5090507f30000000000000000000000000000000000000000000000000000000000000008160008151811061124657611246611b82565b60200101907effffffffffffffffffffffffffffffffffffffffffffffffffffffffffffff1916908160001a9053507f7800000000000000000000000000000000000000000000000000000000000000816001815181106112a9576112a9611b82565b60200101907effffffffffffffffffffffffffffffffffffffffffffffffffffffffffffff1916908160001a90535060006112e5846002611bb4565b6112f0906001611bd3565b90505b60018111156113ab577f303132333435363738396162636465660000000000000000000000000000000085600f166010811061133157611331611b82565b1a7f01000000000000000000000000000000000000000000000000000000000000000282828151811061136657611366611b82565b60200101907effffffffffffffffffffffffffffffffffffffffffffffffffffffffffffff1916908160001a9053506010909404936113a481611beb565b90506112f3565b5083156109105760405160e560020a62461bcd02815260206004820181905260248201527f537472696e67733a20686578206c656e67746820696e73756666696369656e74604482015260640161084d565b600081815260018301602052604081205480156114e6576000611421600183611c02565b855490915060009061143590600190611c02565b905081811461149a57600086600001828154811061145557611455611b82565b906000526020600020015490508087600001848154811061147857611478611b82565b6000918252602080832090910192909255918252600188019052604090208390555b85548690806114ab576114ab611c19565b600190038181906000526020600020016000905590558560010160008681526020019081526020016000206000905560019350505050610661565b6000915050610661565b82805482825590600052602060002090810192821561153d579160200282015b8281111561153d578251805161152d91849160209091019061154d565b5091602001919060010190611510565b506115499291506115cd565b5090565b82805461155990611ac3565b90600052602060002090601f01602090048101928261157b57600085556115c1565b82601f1061159457805160ff19168380011785556115c1565b828001600101855582156115c1579182015b828111156115c15782518255916020019190600101906115a6565b506115499291506115ea565b808211156115495760006115e182826115ff565b506001016115cd565b5b8082111561154957600081556001016115eb565b50805461160b90611ac3565b6000825580601f1061161b575050565b601f016020900490600052602060002090810190610f0191906115ea565b60006020828403121561164b57600080fd5b8135600160e060020a03198116811461091057600080fd5b6000806040838503121561167657600080fd5b82356006811061168557600080fd5b946020939093013593505050565b600080604083850312156116a657600080fd5b50508035926020909101359150565b6000602082840312156116c757600080fd5b5035919050565b6000806000606084860312156116e357600080fd5b505081359360208301359350604090920135919050565b60005b838110156117155781810151838201526020016116fd565b83811115611724576000848401525b50505050565b600081518084526117428160208601602086016116fa565b601f01601f19169290920160200192915050565b602081526000610910602083018461172a565b8035600160a060020a038116811461178057600080fd5b919050565b6000806040838503121561179857600080fd5b823591506117a860208401611769565b90509250929050565b60e060020a634e487b7102600052602160045260246000fd5b60208101600783106117de576117de6117b1565b91905290565b600060208083018184528085518083526040860191506040848202870101925083870160005b8281101561183857603f1988860301845261182685835161172a565b9450928501929085019060010161180a565b5092979650505050505050565b6020808252825182820181905260009190848201906040850190845b8181101561187d57835183529284019291840191600101611861565b50909695505050505050565b60e060020a634e487b7102600052604160045260246000fd5b604051601f8201601f1916810167ffffffffffffffff811182821017156118cb576118cb611889565b604052919050565b600082601f8301126118e457600080fd5b813567ffffffffffffffff8111156118fe576118fe611889565b611911601f8201601f19166020016118a2565b81815284602083860101111561192657600080fd5b816020850160208301376000918101602001919091529392505050565b600082601f83011261195457600080fd5b8135602067ffffffffffffffff8083111561197157611971611889565b81830261197f8382016118a2565b938452858101830193838101908886111561199957600080fd5b84880192505b858310156119d5578235848111156119b75760008081fd5b6119c58a87838c01016118d3565b835250918401919084019061199f565b98975050505050505050565b60008060008060008060c087890312156119fa57600080fd5b86359550602087013560ff81168114611a1257600080fd5b9450604087013567ffffffffffffffff80821115611a2f57600080fd5b611a3b8a838b01611943565b95506060890135915080821115611a5157600080fd5b611a5d8a838b016118d3565b94506080890135915080821115611a7357600080fd5b50611a8089828a016118d3565b92505060a087013590509295509295509295565b60208101600683106117de576117de6117b1565b600060208284031215611aba57600080fd5b61091082611769565b600281046001821680611ad757607f821691505b60208210811415611afb5760e060020a634e487b7102600052602260045260246000fd5b50919050565b7f416363657373436f6e74726f6c3a206163636f756e7420000000000000000000815260008351611b398160178501602088016116fa565b7f206973206d697373696e6720726f6c65200000000000000000000000000000006017918401918201528351611b768160288401602088016116fa565b01602801949350505050565b60e060020a634e487b7102600052603260045260246000fd5b60e060020a634e487b7102600052601160045260246000fd5b6000816000190483118215151615611bce57611bce611b9b565b500290565b60008219821115611be657611be6611b9b565b500190565b600081611bfa57611bfa611b9b565b506000190190565b600082821015611c1457611c14611b9b565b500390565b60e060020a634e487b7102600052603160045260246000fdfe0c2c7e957bdf811d5a896b04e816b9c382dfb980c93b21b0288b75c85d598acd80e2196015fc06a9d891759f8e4f51eb314ef5e9ea068528a8ed0063b87759f0a2646970667358221220b0d19143de10eb38806bc906e457d00c0f9bd01b5131b1ad0bc0aec63e7e55b964736f6c634300080b0033",
  "immutableReferences": {},
  "source": "// SPDX-License-Identifier: GPL-3.0\n/* Notes:\n//add address of queue to board on deployment\n// ????? uint256 queueIndex = 0; // increase with each phase processed so we don't have to clean the queue\n*/\npragma solidity >=0.7.0 <0.9.0;\n\nimport \"@openzeppelin/contracts/access/AccessControlEnumerable.sol\";\nimport \"@openzeppelin/contracts/utils/Counters.sol\";\n\ncontract HexplorationQueue is AccessControlEnumerable {\n    using Counters for Counters.Counter;\n    Counters.Counter internal QUEUE_ID;\n\n    enum ProcessingPhase {\n        Start,\n        Submission,\n        Processing,\n        PlayThrough,\n        Processed,\n        Closed\n    }\n    enum Action {\n        Idle,\n        Move,\n        SetupCamp,\n        BreakDownCamp,\n        Dig,\n        Rest,\n        Help\n    }\n\n    bytes32 public constant VERIFIED_CONTROLLER_ROLE =\n        keccak256(\"VERIFIED_CONTROLLER_ROLE\");\n    bytes32 public constant GAMEPLAY_ROLE = keccak256(\"GAMEPLAY_ROLE\");\n\n    // Array of Queue IDs to be processed.\n    uint256[] public processingQueue;\n\n    // do we need these 2?\n    mapping(uint256 => uint16) public currentQueuePosition; // ?? increases with each player in queue, then back to 0\n    mapping(uint256 => uint16) public playThroughPosition; // ?? in case we need to batch this too... hopefully not.\n\n    // mapping from game ID\n    mapping(uint256 => uint256) public queueID; // mapping from game ID to it's queue, updates to 0 when finished\n\n    // mappings from queue index\n    mapping(uint256 => bool) public inProcessingQueue; // game queue is in processing queue\n    mapping(uint256 => ProcessingPhase) public currentPhase; // processingPhase\n    mapping(uint256 => uint256) public game; // mapping from queue ID to it's game ID\n    mapping(uint256 => uint256[]) public players; // all players with moves to process\n    mapping(uint256 => uint256) public totalPlayers; // total # of players who will be submitting\n\n    // mappings from queue index => player id\n    mapping(uint256 => mapping(uint256 => Action)) public submissionAction;\n    mapping(uint256 => mapping(uint256 => string[])) public submissionOptions;\n    mapping(uint256 => mapping(uint256 => string)) public submissionLeftHand;\n    mapping(uint256 => mapping(uint256 => string)) public submissionRightHand;\n    mapping(uint256 => mapping(uint256 => bool)) public playerSubmitted;\n\n    mapping(uint256 => uint256) randomness; // randomness delivered here at start of each phase processing\n\n    ///////  VRF can kick off processing phase\n\n    constructor(address gameplayAddress) {\n        _setupRole(DEFAULT_ADMIN_ROLE, _msgSender());\n        _setupRole(GAMEPLAY_ROLE, gameplayAddress);\n        QUEUE_ID.increment(); // start at 1\n    }\n\n    // Can set multiple VCs, one for manual pushing, one for keeper\n    function addVerifiedController(address controllerAddress)\n        public\n        onlyRole(DEFAULT_ADMIN_ROLE)\n    {\n        grantRole(VERIFIED_CONTROLLER_ROLE, controllerAddress);\n    }\n\n    // pass total # players making submissions\n    // total can be less than actual totalPlayers in game\n    function requestGameQueue(uint256 gameID, uint256 _totalPlayers)\n        external\n        onlyRole(VERIFIED_CONTROLLER_ROLE)\n        returns (uint256)\n    {\n        return _requestGameQueue(gameID, _totalPlayers);\n    }\n\n    // Sent from controller\n\n    function startGame(uint256 _queueID)\n        public\n        onlyRole(VERIFIED_CONTROLLER_ROLE)\n    {\n        currentPhase[_queueID] = ProcessingPhase.Submission;\n    }\n\n    function sumbitActionForPlayer(\n        uint256 playerID,\n        uint8 action,\n        string[] memory options,\n        string memory leftHand,\n        string memory rightHand,\n        uint256 _queueID\n    ) public onlyRole(VERIFIED_CONTROLLER_ROLE) {\n        require(\n            currentPhase[_queueID] == ProcessingPhase.Submission,\n            \"Not submission phase\"\n        );\n        if (!playerSubmitted[_queueID][playerID]) {\n            submissionAction[_queueID][playerID] = Action(action);\n            submissionOptions[_queueID][playerID] = options;\n            submissionLeftHand[_queueID][playerID] = leftHand;\n            submissionRightHand[_queueID][playerID] = rightHand;\n\n            players[_queueID].push(playerID);\n            playerSubmitted[_queueID][playerID] = true;\n            // automatically add to queue if last player to submit move\n            if (players[_queueID].length >= totalPlayers[_queueID]) {\n                _processAllActions(_queueID);\n            }\n        }\n    }\n\n    // Will get processed once keeper is available\n    // and previous game queues have been processed\n    function requestProcessActions(uint256 _queueID)\n        public\n        onlyRole(VERIFIED_CONTROLLER_ROLE)\n    {\n        _processAllActions(_queueID);\n    }\n\n    function getAllPlayers(uint256 _queueID)\n        public\n        view\n        returns (uint256[] memory)\n    {\n        return players[_queueID];\n    }\n\n    function getSubmissionOptions(uint256 _queueID, uint256 _playerID)\n        public\n        view\n        returns (string[] memory)\n    {\n        return submissionOptions[_queueID][_playerID];\n    }\n\n    // Gameplay interactions\n    function setPhase(ProcessingPhase phase, uint256 _queueID)\n        external\n        onlyRole(GAMEPLAY_ROLE)\n    {\n        currentPhase[_queueID] = phase;\n    }\n\n    function setRandomNumber(uint256 randomNumber, uint256 _queueID)\n        external\n        onlyRole(GAMEPLAY_ROLE)\n    {\n        randomness[_queueID] = randomNumber;\n    }\n\n    function requestNewQueueID(uint256 _queueID)\n        external\n        onlyRole(GAMEPLAY_ROLE)\n    {\n        uint256 g = game[_queueID];\n        uint256 tp = totalPlayers[_queueID];\n        queueID[g] = _requestGameQueue(g, tp);\n    }\n\n    function setProcessingComplete(uint256 _queueID)\n        external\n        onlyRole(GAMEPLAY_ROLE)\n    {\n        uint256 g = game[_queueID];\n        currentPhase[_queueID] = ProcessingPhase.Processed;\n        queueID[g] = 0;\n    }\n\n    // Internal\n    function _processAllActions(uint256 _queueID) internal {\n        if (!inProcessingQueue[_queueID]) {\n            processingQueue.push(_queueID);\n            inProcessingQueue[_queueID] = true;\n        }\n    }\n\n    function _requestGameQueue(uint256 gameID, uint256 _totalPlayers)\n        internal\n        returns (uint256)\n    {\n        /*\n    mapping(uint256 => uint256) public queueID; // mapping from game ID to it's queue, updates to 0 when finished\n    mapping(uint256 => uint256) public game; // mapping from queue ID to it's game ID\n    mapping(uint256 => uint256[]) public players; // all players with moves to process\n    mapping(uint256 => uint16) public totalPlayers;\n        */\n        require(queueID[gameID] == 0, \"queue already set\");\n        uint256 newQueueID = QUEUE_ID.current();\n        queueID[gameID] = newQueueID;\n        totalPlayers[gameID] = _totalPlayers;\n        QUEUE_ID.increment();\n        return newQueueID;\n    }\n}\n",
  "sourcePath": "/Users/maxmeier/Developer/Lucky Machines/hexploration/contracts/HexplorationQueue.sol",
  "compiler": {
    "name": "solc",
    "version": "0.8.11+commit.d7f03943.Emscripten.clang"
  },
  "schemaVersion": "3.4.4",
  "updatedAt": "2022-05-18T16:30:27.367Z",
  "devdoc": {
    "kind": "dev",
    "methods": {
      "getRoleAdmin(bytes32)": {
        "details": "Returns the admin role that controls `role`. See {grantRole} and {revokeRole}. To change a role's admin, use {_setRoleAdmin}."
      },
      "getRoleMember(bytes32,uint256)": {
        "details": "Returns one of the accounts that have `role`. `index` must be a value between 0 and {getRoleMemberCount}, non-inclusive. Role bearers are not sorted in any particular way, and their ordering may change at any point. WARNING: When using {getRoleMember} and {getRoleMemberCount}, make sure you perform all queries on the same block. See the following https://forum.openzeppelin.com/t/iterating-over-elements-on-enumerableset-in-openzeppelin-contracts/2296[forum post] for more information."
      },
      "getRoleMemberCount(bytes32)": {
        "details": "Returns the number of accounts that have `role`. Can be used together with {getRoleMember} to enumerate all bearers of a role."
      },
      "grantRole(bytes32,address)": {
        "details": "Grants `role` to `account`. If `account` had not been already granted `role`, emits a {RoleGranted} event. Requirements: - the caller must have ``role``'s admin role."
      },
      "hasRole(bytes32,address)": {
        "details": "Returns `true` if `account` has been granted `role`."
      },
      "renounceRole(bytes32,address)": {
        "details": "Revokes `role` from the calling account. Roles are often managed via {grantRole} and {revokeRole}: this function's purpose is to provide a mechanism for accounts to lose their privileges if they are compromised (such as when a trusted device is misplaced). If the calling account had been revoked `role`, emits a {RoleRevoked} event. Requirements: - the caller must be `account`."
      },
      "revokeRole(bytes32,address)": {
        "details": "Revokes `role` from `account`. If `account` had been granted `role`, emits a {RoleRevoked} event. Requirements: - the caller must have ``role``'s admin role."
      },
      "supportsInterface(bytes4)": {
        "details": "See {IERC165-supportsInterface}."
      }
    },
    "version": 1
  },
  "userdoc": {
    "kind": "user",
    "methods": {},
    "version": 1
  }
}