{
  "contractName": "HexplorationBoard",
  "abi": [
    {
      "inputs": [
        {
          "internalType": "address",
          "name": "adminAddress",
          "type": "address"
        },
        {
          "internalType": "uint256",
          "name": "gridWidth",
          "type": "uint256"
        },
        {
          "internalType": "uint256",
          "name": "gridHeight",
          "type": "uint256"
        },
        {
          "internalType": "address",
          "name": "zoneAddress",
          "type": "address"
        }
      ],
      "stateMutability": "nonpayable",
      "type": "constructor"
    },
    {
      "anonymous": false,
      "inputs": [
        {
          "indexed": true,
          "internalType": "bytes32",
          "name": "role",
          "type": "bytes32"
        },
        {
          "indexed": true,
          "internalType": "bytes32",
          "name": "previousAdminRole",
          "type": "bytes32"
        },
        {
          "indexed": true,
          "internalType": "bytes32",
          "name": "newAdminRole",
          "type": "bytes32"
        }
      ],
      "name": "RoleAdminChanged",
      "type": "event"
    },
    {
      "anonymous": false,
      "inputs": [
        {
          "indexed": true,
          "internalType": "bytes32",
          "name": "role",
          "type": "bytes32"
        },
        {
          "indexed": true,
          "internalType": "address",
          "name": "account",
          "type": "address"
        },
        {
          "indexed": true,
          "internalType": "address",
          "name": "sender",
          "type": "address"
        }
      ],
      "name": "RoleGranted",
      "type": "event"
    },
    {
      "anonymous": false,
      "inputs": [
        {
          "indexed": true,
          "internalType": "bytes32",
          "name": "role",
          "type": "bytes32"
        },
        {
          "indexed": true,
          "internalType": "address",
          "name": "account",
          "type": "address"
        },
        {
          "indexed": true,
          "internalType": "address",
          "name": "sender",
          "type": "address"
        }
      ],
      "name": "RoleRevoked",
      "type": "event"
    },
    {
      "inputs": [],
      "name": "DEFAULT_ADMIN_ROLE",
      "outputs": [
        {
          "internalType": "bytes32",
          "name": "",
          "type": "bytes32"
        }
      ],
      "stateMutability": "view",
      "type": "function"
    },
    {
      "inputs": [],
      "name": "FACTORY_ROLE",
      "outputs": [
        {
          "internalType": "bytes32",
          "name": "",
          "type": "bytes32"
        }
      ],
      "stateMutability": "view",
      "type": "function"
    },
    {
      "inputs": [],
      "name": "GAME_KEEPER_ROLE",
      "outputs": [
        {
          "internalType": "bytes32",
          "name": "",
          "type": "bytes32"
        }
      ],
      "stateMutability": "view",
      "type": "function"
    },
    {
      "inputs": [],
      "name": "GAME_MASTER_ROLE",
      "outputs": [
        {
          "internalType": "bytes32",
          "name": "",
          "type": "bytes32"
        }
      ],
      "stateMutability": "view",
      "type": "function"
    },
    {
      "inputs": [],
      "name": "MAX_BATCH_SIZE",
      "outputs": [
        {
          "internalType": "uint256",
          "name": "",
          "type": "uint256"
        }
      ],
      "stateMutability": "view",
      "type": "function"
    },
    {
      "inputs": [],
      "name": "PLAY_ZONE_ROLE",
      "outputs": [
        {
          "internalType": "bytes32",
          "name": "",
          "type": "bytes32"
        }
      ],
      "stateMutability": "view",
      "type": "function"
    },
    {
      "inputs": [],
      "name": "VERIFIED_CONTROLLER_ROLE",
      "outputs": [
        {
          "internalType": "bytes32",
          "name": "",
          "type": "bytes32"
        }
      ],
      "stateMutability": "view",
      "type": "function"
    },
    {
      "inputs": [
        {
          "internalType": "uint256",
          "name": "transitID",
          "type": "uint256"
        }
      ],
      "name": "_progressTransit",
      "outputs": [],
      "stateMutability": "nonpayable",
      "type": "function"
    },
    {
      "inputs": [
        {
          "internalType": "address",
          "name": "factoryAddress",
          "type": "address"
        }
      ],
      "name": "addFactory",
      "outputs": [],
      "stateMutability": "nonpayable",
      "type": "function"
    },
    {
      "inputs": [
        {
          "internalType": "address",
          "name": "keeperAddress",
          "type": "address"
        }
      ],
      "name": "addKeeper",
      "outputs": [],
      "stateMutability": "nonpayable",
      "type": "function"
    },
    {
      "inputs": [
        {
          "internalType": "uint256",
          "name": "gameID",
          "type": "uint256"
        },
        {
          "internalType": "string[2][]",
          "name": "connections",
          "type": "string[2][]"
        }
      ],
      "name": "addZoneConnections",
      "outputs": [],
      "stateMutability": "nonpayable",
      "type": "function"
    },
    {
      "inputs": [
        {
          "internalType": "address[]",
          "name": "playZoneAddresses",
          "type": "address[]"
        },
        {
          "internalType": "string[]",
          "name": "zoneAliases",
          "type": "string[]"
        },
        {
          "internalType": "uint256",
          "name": "gameID",
          "type": "uint256"
        }
      ],
      "name": "addZones",
      "outputs": [],
      "stateMutability": "nonpayable",
      "type": "function"
    },
    {
      "inputs": [],
      "name": "cleanQueue",
      "outputs": [],
      "stateMutability": "nonpayable",
      "type": "function"
    },
    {
      "inputs": [
        {
          "internalType": "address",
          "name": "_playerRegistry",
          "type": "address"
        },
        {
          "internalType": "address",
          "name": "_gameRegistry",
          "type": "address"
        }
      ],
      "name": "createGame",
      "outputs": [
        {
          "internalType": "uint256",
          "name": "gameID",
          "type": "uint256"
        }
      ],
      "stateMutability": "nonpayable",
      "type": "function"
    },
    {
      "inputs": [
        {
          "internalType": "address",
          "name": "_playerRegistry",
          "type": "address"
        },
        {
          "internalType": "address",
          "name": "_gameRegistry",
          "type": "address"
        },
        {
          "internalType": "address[]",
          "name": "playZoneAddresses",
          "type": "address[]"
        },
        {
          "internalType": "string[]",
          "name": "zoneAliases",
          "type": "string[]"
        }
      ],
      "name": "createGame",
      "outputs": [
        {
          "internalType": "uint256",
          "name": "gameID",
          "type": "uint256"
        }
      ],
      "stateMutability": "nonpayable",
      "type": "function"
    },
    {
      "inputs": [],
      "name": "createGrid",
      "outputs": [],
      "stateMutability": "nonpayable",
      "type": "function"
    },
    {
      "inputs": [
        {
          "internalType": "uint256",
          "name": "",
          "type": "uint256"
        },
        {
          "internalType": "uint256",
          "name": "",
          "type": "uint256"
        }
      ],
      "name": "currentPlayZone",
      "outputs": [
        {
          "internalType": "string",
          "name": "",
          "type": "string"
        }
      ],
      "stateMutability": "view",
      "type": "function"
    },
    {
      "inputs": [
        {
          "internalType": "uint256",
          "name": "",
          "type": "uint256"
        },
        {
          "internalType": "uint256",
          "name": "",
          "type": "uint256"
        }
      ],
      "name": "entryQueue",
      "outputs": [
        {
          "internalType": "uint256",
          "name": "",
          "type": "uint256"
        }
      ],
      "stateMutability": "view",
      "type": "function"
    },
    {
      "inputs": [
        {
          "internalType": "uint256",
          "name": "gameID",
          "type": "uint256"
        },
        {
          "internalType": "address",
          "name": "playerAddress",
          "type": "address"
        },
        {
          "internalType": "uint256",
          "name": "pathIndex",
          "type": "uint256"
        }
      ],
      "name": "exitToPath",
      "outputs": [
        {
          "internalType": "bool",
          "name": "exitSuccess",
          "type": "bool"
        }
      ],
      "stateMutability": "nonpayable",
      "type": "function"
    },
    {
      "inputs": [
        {
          "internalType": "uint256",
          "name": "",
          "type": "uint256"
        }
      ],
      "name": "gameState",
      "outputs": [
        {
          "internalType": "uint256",
          "name": "",
          "type": "uint256"
        }
      ],
      "stateMutability": "view",
      "type": "function"
    },
    {
      "inputs": [
        {
          "internalType": "uint256",
          "name": "gameID",
          "type": "uint256"
        },
        {
          "internalType": "string",
          "name": "_zoneAlias",
          "type": "string"
        }
      ],
      "name": "getInputs",
      "outputs": [
        {
          "internalType": "string[]",
          "name": "zoneInputs",
          "type": "string[]"
        }
      ],
      "stateMutability": "view",
      "type": "function"
    },
    {
      "inputs": [
        {
          "internalType": "uint256",
          "name": "gameID",
          "type": "uint256"
        },
        {
          "internalType": "string",
          "name": "_zoneAlias",
          "type": "string"
        }
      ],
      "name": "getOutputs",
      "outputs": [
        {
          "internalType": "string[]",
          "name": "zoneOutputs",
          "type": "string[]"
        }
      ],
      "stateMutability": "view",
      "type": "function"
    },
    {
      "inputs": [
        {
          "internalType": "uint256",
          "name": "gameID",
          "type": "uint256"
        }
      ],
      "name": "getOverflowQueue",
      "outputs": [
        {
          "internalType": "uint256[]",
          "name": "",
          "type": "uint256[]"
        }
      ],
      "stateMutability": "view",
      "type": "function"
    },
    {
      "inputs": [
        {
          "internalType": "uint256",
          "name": "gameID",
          "type": "uint256"
        }
      ],
      "name": "getPlayZones",
      "outputs": [
        {
          "internalType": "string[]",
          "name": "",
          "type": "string[]"
        }
      ],
      "stateMutability": "view",
      "type": "function"
    },
    {
      "inputs": [
        {
          "internalType": "bytes32",
          "name": "role",
          "type": "bytes32"
        }
      ],
      "name": "getRoleAdmin",
      "outputs": [
        {
          "internalType": "bytes32",
          "name": "",
          "type": "bytes32"
        }
      ],
      "stateMutability": "view",
      "type": "function"
    },
    {
      "inputs": [
        {
          "internalType": "bytes32",
          "name": "role",
          "type": "bytes32"
        },
        {
          "internalType": "uint256",
          "name": "index",
          "type": "uint256"
        }
      ],
      "name": "getRoleMember",
      "outputs": [
        {
          "internalType": "address",
          "name": "",
          "type": "address"
        }
      ],
      "stateMutability": "view",
      "type": "function"
    },
    {
      "inputs": [
        {
          "internalType": "bytes32",
          "name": "role",
          "type": "bytes32"
        }
      ],
      "name": "getRoleMemberCount",
      "outputs": [
        {
          "internalType": "uint256",
          "name": "",
          "type": "uint256"
        }
      ],
      "stateMutability": "view",
      "type": "function"
    },
    {
      "inputs": [],
      "name": "getZoneAliases",
      "outputs": [
        {
          "internalType": "string[]",
          "name": "",
          "type": "string[]"
        }
      ],
      "stateMutability": "view",
      "type": "function"
    },
    {
      "inputs": [
        {
          "internalType": "bytes32",
          "name": "role",
          "type": "bytes32"
        },
        {
          "internalType": "address",
          "name": "account",
          "type": "address"
        }
      ],
      "name": "grantRole",
      "outputs": [],
      "stateMutability": "nonpayable",
      "type": "function"
    },
    {
      "inputs": [],
      "name": "gridHeight",
      "outputs": [
        {
          "internalType": "uint256",
          "name": "",
          "type": "uint256"
        }
      ],
      "stateMutability": "view",
      "type": "function"
    },
    {
      "inputs": [],
      "name": "gridWidth",
      "outputs": [
        {
          "internalType": "uint256",
          "name": "",
          "type": "uint256"
        }
      ],
      "stateMutability": "view",
      "type": "function"
    },
    {
      "inputs": [
        {
          "internalType": "bytes32",
          "name": "role",
          "type": "bytes32"
        },
        {
          "internalType": "address",
          "name": "account",
          "type": "address"
        }
      ],
      "name": "hasRole",
      "outputs": [
        {
          "internalType": "bool",
          "name": "",
          "type": "bool"
        }
      ],
      "stateMutability": "view",
      "type": "function"
    },
    {
      "inputs": [
        {
          "internalType": "address",
          "name": "factoryAddress",
          "type": "address"
        }
      ],
      "name": "isFactory",
      "outputs": [
        {
          "internalType": "bool",
          "name": "factoryIsAuthorized",
          "type": "bool"
        }
      ],
      "stateMutability": "view",
      "type": "function"
    },
    {
      "inputs": [
        {
          "internalType": "uint256",
          "name": "",
          "type": "uint256"
        }
      ],
      "name": "lastEntryPlayerID",
      "outputs": [
        {
          "internalType": "uint256",
          "name": "",
          "type": "uint256"
        }
      ],
      "stateMutability": "view",
      "type": "function"
    },
    {
      "inputs": [],
      "name": "needsUpdate",
      "outputs": [
        {
          "internalType": "bool",
          "name": "doesNeedUpdate",
          "type": "bool"
        }
      ],
      "stateMutability": "view",
      "type": "function"
    },
    {
      "inputs": [
        {
          "internalType": "uint256",
          "name": "",
          "type": "uint256"
        },
        {
          "internalType": "string",
          "name": "",
          "type": "string"
        },
        {
          "internalType": "uint256",
          "name": "",
          "type": "uint256"
        }
      ],
      "name": "playZoneInputs",
      "outputs": [
        {
          "internalType": "string",
          "name": "",
          "type": "string"
        }
      ],
      "stateMutability": "view",
      "type": "function"
    },
    {
      "inputs": [
        {
          "internalType": "uint256",
          "name": "",
          "type": "uint256"
        },
        {
          "internalType": "string",
          "name": "",
          "type": "string"
        },
        {
          "internalType": "uint256",
          "name": "",
          "type": "uint256"
        }
      ],
      "name": "playZoneOutputs",
      "outputs": [
        {
          "internalType": "string",
          "name": "",
          "type": "string"
        }
      ],
      "stateMutability": "view",
      "type": "function"
    },
    {
      "inputs": [
        {
          "internalType": "uint256",
          "name": "",
          "type": "uint256"
        },
        {
          "internalType": "uint256",
          "name": "",
          "type": "uint256"
        }
      ],
      "name": "playZones",
      "outputs": [
        {
          "internalType": "string",
          "name": "",
          "type": "string"
        }
      ],
      "stateMutability": "view",
      "type": "function"
    },
    {
      "inputs": [
        {
          "internalType": "uint256",
          "name": "gameID",
          "type": "uint256"
        },
        {
          "internalType": "address",
          "name": "playerAddress",
          "type": "address"
        },
        {
          "internalType": "string",
          "name": "_zoneAlias",
          "type": "string"
        }
      ],
      "name": "playerEnteredZone",
      "outputs": [],
      "stateMutability": "nonpayable",
      "type": "function"
    },
    {
      "inputs": [
        {
          "internalType": "uint256",
          "name": "",
          "type": "uint256"
        }
      ],
      "name": "playerRegistry",
      "outputs": [
        {
          "internalType": "uint256",
          "name": "",
          "type": "uint256"
        }
      ],
      "stateMutability": "view",
      "type": "function"
    },
    {
      "inputs": [],
      "name": "prAddress",
      "outputs": [
        {
          "internalType": "address",
          "name": "",
          "type": "address"
        }
      ],
      "stateMutability": "view",
      "type": "function"
    },
    {
      "inputs": [
        {
          "internalType": "uint256",
          "name": "gameID",
          "type": "uint256"
        },
        {
          "internalType": "address[]",
          "name": "playerAddresses",
          "type": "address[]"
        },
        {
          "internalType": "uint256[]",
          "name": "pathIndices",
          "type": "uint256[]"
        },
        {
          "internalType": "uint256",
          "name": "transitID",
          "type": "uint256"
        }
      ],
      "name": "queueExitToPaths",
      "outputs": [],
      "stateMutability": "nonpayable",
      "type": "function"
    },
    {
      "inputs": [
        {
          "internalType": "uint256",
          "name": "gameID",
          "type": "uint256"
        },
        {
          "internalType": "string[]",
          "name": "inputAliases",
          "type": "string[]"
        },
        {
          "internalType": "uint256[]",
          "name": "inputs",
          "type": "uint256[]"
        },
        {
          "internalType": "string[]",
          "name": "outputAliases",
          "type": "string[]"
        },
        {
          "internalType": "uint256[]",
          "name": "outputs",
          "type": "uint256[]"
        }
      ],
      "name": "removeZoneConnections",
      "outputs": [],
      "stateMutability": "nonpayable",
      "type": "function"
    },
    {
      "inputs": [
        {
          "internalType": "bytes32",
          "name": "role",
          "type": "bytes32"
        },
        {
          "internalType": "address",
          "name": "account",
          "type": "address"
        }
      ],
      "name": "renounceRole",
      "outputs": [],
      "stateMutability": "nonpayable",
      "type": "function"
    },
    {
      "inputs": [
        {
          "internalType": "bytes32",
          "name": "role",
          "type": "bytes32"
        },
        {
          "internalType": "address",
          "name": "account",
          "type": "address"
        }
      ],
      "name": "revokeRole",
      "outputs": [],
      "stateMutability": "nonpayable",
      "type": "function"
    },
    {
      "inputs": [],
      "name": "runUpdate",
      "outputs": [],
      "stateMutability": "nonpayable",
      "type": "function"
    },
    {
      "inputs": [
        {
          "internalType": "uint256",
          "name": "gameID",
          "type": "uint256"
        }
      ],
      "name": "startGame",
      "outputs": [],
      "stateMutability": "nonpayable",
      "type": "function"
    },
    {
      "inputs": [
        {
          "internalType": "uint256",
          "name": "transitID",
          "type": "uint256"
        }
      ],
      "name": "startTransit",
      "outputs": [],
      "stateMutability": "nonpayable",
      "type": "function"
    },
    {
      "inputs": [
        {
          "internalType": "bytes4",
          "name": "interfaceId",
          "type": "bytes4"
        }
      ],
      "name": "supportsInterface",
      "outputs": [
        {
          "internalType": "bool",
          "name": "",
          "type": "bool"
        }
      ],
      "stateMutability": "view",
      "type": "function"
    },
    {
      "inputs": [],
      "name": "zoneAddress",
      "outputs": [
        {
          "internalType": "address",
          "name": "",
          "type": "address"
        }
      ],
      "stateMutability": "view",
      "type": "function"
    },
    {
      "inputs": [
        {
          "internalType": "uint256",
          "name": "",
          "type": "uint256"
        },
        {
          "internalType": "string",
          "name": "",
          "type": "string"
        }
      ],
      "name": "zoneAlias",
      "outputs": [
        {
          "internalType": "address",
          "name": "",
          "type": "address"
        }
      ],
      "stateMutability": "view",
      "type": "function"
    },
    {
      "inputs": [
        {
          "internalType": "uint256",
          "name": "",
          "type": "uint256"
        }
      ],
      "name": "zoneAliases",
      "outputs": [
        {
          "internalType": "string",
          "name": "",
          "type": "string"
        }
      ],
      "stateMutability": "view",
      "type": "function"
    },
    {
      "inputs": [
        {
          "internalType": "uint256",
          "name": "",
          "type": "uint256"
        },
        {
          "internalType": "string",
          "name": "",
          "type": "string"
        }
      ],
      "name": "zoneEnabled",
      "outputs": [
        {
          "internalType": "bool",
          "name": "",
          "type": "bool"
        }
      ],
      "stateMutability": "view",
      "type": "function"
    },
    {
      "inputs": [
        {
          "internalType": "string",
          "name": "zoneAlias",
          "type": "string"
        },
        {
          "internalType": "enum HexplorationZone.Tile",
          "name": "tile",
          "type": "uint8"
        },
        {
          "internalType": "uint256",
          "name": "gameID",
          "type": "uint256"
        }
      ],
      "name": "enableZone",
      "outputs": [],
      "stateMutability": "nonpayable",
      "type": "function"
    },
    {
      "inputs": [
        {
          "internalType": "string[]",
          "name": "zonePath",
          "type": "string[]"
        },
        {
          "internalType": "uint256",
          "name": "gameID",
          "type": "uint256"
        }
      ],
      "name": "moveThroughPath",
      "outputs": [],
      "stateMutability": "nonpayable",
      "type": "function"
    }
  ],
  "bytecode": "0x60806040523480156200001157600080fd5b5060405162004567380380620045678339810160408190526200003491620002a8565b83838383836200004f600082640100000000620000c9810204565b620000847f1d93c87416ca7b54f0fb8323167b72760e8e2ec93d48660953897a150f97a8b482640100000000620000c9810204565b50600d92909255600e55600f8054600160a060020a03928316600160a060020a031991821617909155601180549490921693169290921790915550620002f392505050565b620000de8282640100000000620000e2810204565b5050565b620000fc8282640100000000620024c36200012982021704565b600082815260016020526040902062000124908264010000000062002547620001c582021704565b505050565b6200013e8282640100000000620001ee810204565b620000de57600082815260208181526040808320600160a060020a03851684529091529020805460ff191660011790556200018164010000000062000217810204565b600160a060020a031681600160a060020a0316837f2f8788117e7eff1d82e926ec794901d17c78024a50270940304540a733656f0d60405160405180910390a45050565b6000620001e583600160a060020a0384166401000000006200021b810204565b90505b92915050565b600091825260208281526040808420600160a060020a0393909316845291905290205460ff1690565b3390565b600062000232838364010000000062000273810204565b6200026a57508154600181810184556000848152602080822090930184905584548482528286019093526040902091909155620001e8565b506000620001e8565b60009081526001919091016020526040902054151590565b8051600160a060020a0381168114620002a357600080fd5b919050565b60008060008060808587031215620002bf57600080fd5b620002ca856200028b565b93506020850151925060408501519150620002e8606086016200028b565b905092959194509250565b61426480620003036000396000f3fe608060405234801561001057600080fd5b50600436106103615760003560e060020a900480639010d07c116101d7578063cd1ec7f211610108578063d91413ba116100a6578063ed3719a511610080578063ed3719a5146107ad578063f643b8fd146107ec578063f8430708146107ff578063fa9f34381461081257600080fd5b8063d91413ba14610772578063e309203f14610785578063e5ed1d591461079a57600080fd5b8063d2d6756b116100e2578063d2d6756b1461070c578063d3fb72891461072c578063d547741f1461074c578063d75e79801461075f57600080fd5b8063cd1ec7f2146106e7578063cfdbf254146106fc578063d1e18d261461070457600080fd5b8063aab2aeb811610175578063b40c89df1161014f578063b40c89df1461069d578063babdeefa146106b0578063c06dea4e146106c3578063ca15c873146106d457600080fd5b8063aab2aeb814610668578063ad1def1e14610688578063b2df0ca21461047057600080fd5b80639f6c4017116101b15780639f6c401714610627578063a217fddf1461063a578063a4f9c9df14610642578063a6f979ff1461065557600080fd5b80639010d07c146105ee57806391d14854146106015780639eb356cb1461061457600080fd5b80632c47669a116102b15780634032b72b1161024f57806351709a731161022957806351709a73146105ad5780636b6ec869146105c05780637cc75d1c146105d357806384bf09b6146105e657600080fd5b80634032b72b146105675780634a7bdd5a1461057a5780634e0e1a3e1461058d57600080fd5b806336568abe1161028b57806336568abe14610530578063374f1d351461054357806338b145df146105565780633ca61a581461055f57600080fd5b80632c47669a146105025780632f2ff15d14610515578063346c94091461052857600080fd5b806317d7e8331161031e5780631c834a7f116102f85780631c834a7f14610492578063248a9ca3146104b957806329678756146104dc57806329ce1ec5146104ef57600080fd5b806317d7e8331461043d578063190060181461045d578063194f2a361461047257600080fd5b806301ffc9a71461036657806304a0fb171461038e5780630b197f2e146103b15780630f04ba67146103dc578063108c5e14146103ef578063153a7590146103f8575b600080fd5b61037961037436600461335e565b610825565b60405190151581526020015b60405180910390f35b6103a36000805160206141ef83398151915281565b604051908152602001610385565b600f546103c490600160a060020a031681565b604051600160a060020a039091168152602001610385565b6103796103ea36600461339d565b610869565b6103a3600e5481565b6103c46104063660046134ab565b60076020908152600092835260409092208151808301840180519281529084019290930191909120915254600160a060020a031681565b61045061044b3660046134f2565b610883565b604051610385919061356c565b61047061046b366004613683565b61093c565b005b6104856104803660046134ab565b610a88565b604051610385919061373a565b6103a37f80e2196015fc06a9d891759f8e4f51eb314ef5e9ea068528a8ed0063b87759f081565b6103a36104c736600461379b565b60009081526020819052604090206001015490565b6104706104ea366004613815565b610dcb565b6104706104fd36600461339d565b610dea565b61047061051036600461388a565b610e11565b6104706105233660046138f7565b610e5e565b610379610e88565b61047061053e3660046138f7565b610ed9565b61045061055136600461379b565b610f64565b6103a3600d5481565b610485610f8f565b61047061057536600461339d565b611068565b610470610588366004613927565b611098565b6103a361059b36600461379b565b60046020526000908152604090205481565b6104506105bb36600461396c565b6110c2565b6104856105ce3660046134ab565b611116565b6103a36105e13660046134f2565b611446565b610470611477565b6103c46105fc3660046134f2565b61171c565b61037961060f3660046138f7565b61173b565b6103796106223660046139ab565b611764565b61047061063536600461379b565b611bb1565b6103a3600081565b61047061065036600461379b565b611bc9565b6103a36106633660046139e3565b611be1565b6103a361067636600461379b565b600a6020526000908152604090205481565b6103a36000805160206141cf83398151915281565b6104506106ab36600461396c565b611cc6565b6104856106be36600461379b565b611cfd565b600254600160a060020a03166103c4565b6103a36106e236600461379b565b611de9565b6103a36000805160206141af83398151915281565b6103a360c881565b610470611e00565b6103a361071a36600461379b565b60056020526000908152604090205481565b61073f61073a36600461379b565b611f06565b6040516103859190613a11565b61047061075a3660046138f7565b611f68565b61045061076d3660046134f2565b611f8d565b6103a3610780366004613a55565b611fb1565b6103a360008051602061420f83398151915281565b6104706107a836600461379b565b6120d5565b6103796107bb3660046134ab565b6012602090815260009283526040909220815180830184018051928152908401929093019190912091525460ff1681565b6104706107fa366004613ade565b612123565b61047061080d366004613bef565b612324565b610470610820366004613c3c565b6123e8565b6000600160e060020a031982167f5a05180f00000000000000000000000000000000000000000000000000000000148061086357506108638261255c565b92915050565b60006108636000805160206141ef8339815191528361173b565b6006602052816000526040600020818154811061089f57600080fd5b906000526020600020016000915091505080546108bb90613c95565b80601f01602080910402602001604051908101604052809291908181526020018280546108e790613c95565b80156109345780601f1061090957610100808354040283529160200191610934565b820191906000526020600020905b81548152906001019060200180831161091757829003601f168201915b505050505081565b6000805160206141cf833981519152610954816125c3565b81518451146109ad5760405160e560020a62461bcd02815260206004820181905260248201527f696e70757473202f206f757470757473206c656e677468206d69736d6174636860448201526064015b60405180910390fd5b6109b88686866125cd565b610a075760405160e560020a62461bcd02815260206004820152600e60248201527f696e7075747320696e76616c696400000000000000000000000000000000000060448201526064016109a4565b610a12868484612670565b610a615760405160e560020a62461bcd02815260206004820152600f60248201527f6f75747075747320696e76616c6964000000000000000000000000000000000060448201526064016109a4565b60005b8451811015610a7f5780610a7781613cec565b915050610a64565b50505050505050565b60008281526008602052604080822090516060929190610aa9908590613d07565b9081526020016040518091039020805480602002602001604051908101604052809291908181526020016000905b82821015610b83578382906000526020600020018054610af690613c95565b80601f0160208091040260200160405190810160405280929190818152602001828054610b2290613c95565b8015610b6f5780601f10610b4457610100808354040283529160200191610b6f565b820191906000526020600020905b815481529060010190602001808311610b5257829003601f168201915b505050505081526020019060010190610ad7565b505060008080526008602052604051939450927f5eff886ea0ce6ca488a3d6e336d6c0f75f46d19b42c06ce5ee98e42c96d256c79250610bc591508690613d07565b9081526020016040518091039020805480602002602001604051908101604052809291908181526020016000905b82821015610c9f578382906000526020600020018054610c1290613c95565b80601f0160208091040260200160405190810160405280929190818152602001828054610c3e90613c95565b8015610c8b5780601f10610c6057610100808354040283529160200191610c8b565b820191906000526020600020905b815481529060010190602001808311610c6e57829003601f168201915b505050505081526020019060010190610bf3565b505050509050600082511115610dbf57600081518351610cbf9190613d23565b67ffffffffffffffff811115610cd757610cd76133ba565b604051908082528060200260200182016040528015610d0a57816020015b6060815260200190600190039081610cf55790505b50905060005b8151811015610db8578251811015610d5e57828181518110610d3457610d34613d3b565b6020026020010151828281518110610d4e57610d4e613d3b565b6020026020010181905250610da2565b83835182610d6c9190613d54565b81518110610d7c57610d7c613d3b565b6020026020010151828281518110610d9657610d96613d3b565b60200260200101819052505b8194508080610db090613cec565b915050610d10565b5050610dc3565b8092505b505092915050565b6000805160206141af833981519152610de3816125c3565b5050505050565b6000610df5816125c3565b610e0d6000805160206141ef8339815191528361270b565b5050565b6000805160206141cf833981519152610e29816125c3565b8251845114610e4d5760405160e560020a62461bcd0281526004016109a490613d6b565b610e58848484612715565b50505050565b600082815260208190526040902060010154610e79816125c3565b610e838383612874565b505050565b6000805b600354811015610ed55760038181548110610ea957610ea9613d3b565b9060005260206000200154600014610ec357600191505090565b80610ecd81613cec565b915050610e8c565b5090565b600160a060020a0381163314610f5a5760405160e560020a62461bcd02815260206004820152602f60248201527f416363657373436f6e74726f6c3a2063616e206f6e6c792072656e6f756e636560448201527f20726f6c657320666f722073656c66000000000000000000000000000000000060648201526084016109a4565b610e0d8282612896565b60108181548110610f7457600080fd5b9060005260206000200160009150905080546108bb90613c95565b60606010805480602002602001604051908101604052809291908181526020016000905b8282101561105f578382906000526020600020018054610fd290613c95565b80601f0160208091040260200160405190810160405280929190818152602001828054610ffe90613c95565b801561104b5780601f106110205761010080835404028352916020019161104b565b820191906000526020600020905b81548152906001019060200180831161102e57829003601f168201915b505050505081526020019060010190610fb3565b50505050905090565b6000805160206141cf833981519152611080816125c3565b610e0d60008051602061420f8339815191528361270b565b7f80e2196015fc06a9d891759f8e4f51eb314ef5e9ea068528a8ed0063b87759f0610e83816125c3565b600860209081526000848152604090208351808501830180519281529083019285019290922091528054829081106110f957600080fd5b90600052602060002001600092509250505080546108bb90613c95565b60008281526009602052604080822090516060929190611137908590613d07565b9081526020016040518091039020805480602002602001604051908101604052809291908181526020016000905b8282101561121157838290600052602060002001805461118490613c95565b80601f01602080910402602001604051908101604052809291908181526020018280546111b090613c95565b80156111fd5780601f106111d2576101008083540402835291602001916111fd565b820191906000526020600020905b8154815290600101906020018083116111e057829003601f168201915b505050505081526020019060010190611165565b505060008080526009602052604051939450927fec8156718a8372b1db44bb411437d0870f3e3790d4a08526d024ce1b0b668f6b925061125391508690613d07565b9081526020016040518091039020805480602002602001604051908101604052809291908181526020016000905b8282101561132d5783829060005260206000200180546112a090613c95565b80601f01602080910402602001604051908101604052809291908181526020018280546112cc90613c95565b80156113195780601f106112ee57610100808354040283529160200191611319565b820191906000526020600020905b8154815290600101906020018083116112fc57829003601f168201915b505050505081526020019060010190611281565b505050509050600082511115610dbf5760008151835161134d9190613d23565b67ffffffffffffffff811115611365576113656133ba565b60405190808252806020026020018201604052801561139857816020015b60608152602001906001900390816113835790505b50905060005b8151811015610db85782518110156113ec578281815181106113c2576113c2613d3b565b60200260200101518282815181106113dc576113dc613d3b565b6020026020010181905250611430565b838351826113fa9190613d54565b8151811061140a5761140a613d3b565b602002602001015182828151811061142457611424613d3b565b60200260200101819052505b819450808061143e90613cec565b91505061139e565b600c602052816000526040600020818154811061146257600080fd5b90600052602060002001600091509150505481565b61148f6000805160206141ef8339815191523361173b565b806114ad57506114ad6000805160206141cf8339815191523361173b565b6114cc5760405160e560020a62461bcd0281526004016109a490613dc8565b6000600e54600d546114de9190613e25565b67ffffffffffffffff8111156114f6576114f66133ba565b60405190808252806020026020018201604052801561151f578160200160208202803683370190505b506010549091506115e257600e54600d546040517f9f6b564900000000000000000000000000000000000000000000000000000000815273__XYCoordinates_________________________92639f6b56499261158792600401918252602082015260400190565b600060405180830381865af41580156115a4573d6000803e3d6000fd5b505050506040513d6000823e601f3d908101601f191682016040526115cc9190810190613e44565b80516115e091601091602090910190613219565b505b60005b815181101561163b57600f548251600160a060020a039091169083908390811061161157611611613d3b565b600160a060020a03909216602092830291909101909101528061163381613cec565b9150506115e5565b50611719816010805480602002602001604051908101604052809291908181526020016000905b8282101561170e57838290600052602060002001805461168190613c95565b80601f01602080910402602001604051908101604052809291908181526020018280546116ad90613c95565b80156116fa5780601f106116cf576101008083540402835291602001916116fa565b820191906000526020600020905b8154815290600101906020018083116116dd57829003601f168201915b505050505081526020019060010190611662565b505050506000612715565b50565b600082815260016020526040812061173490836128b8565b9392505050565b600091825260208281526040808420600160a060020a0393909316845291905290205460ff1690565b6002546040517fbca7caa000000000000000000000000000000000000000000000000000000000815260048101859052600160a060020a038481166024830152600092839291169063bca7caa090604401602060405180830381865afa1580156117d2573d6000803e3d6000fd5b505050506040513d601f19601f820116820180604052508101906117f69190613f2e565b6000868152600b6020908152604080832084845290915281208054929350909161181f90613c95565b80601f016020809104026020016040519081016040528092919081815260200182805461184b90613c95565b80156118985780601f1061186d57610100808354040283529160200191611898565b820191906000526020600020905b81548152906001019060200180831161187b57829003601f168201915b5050505050905060006118ab8783611116565b8051909150806119005760405160e560020a62461bcd02815260206004820152601760248201527f4e6f206578697420706174687320617661696c61626c6500000000000000000060448201526064016109a4565b60008881526007602052604080822090519196508691611921908690613d07565b90815260405190819003602001902054600160a060020a03169050600082881161194b578761194e565b60005b9050600084828151811061196457611964613d3b565b602002602001015190506000600760008d8152602001908152602001600020826040516119919190613d07565b908152602001604051809103902060009054906101000a9004600160a060020a0316905083600160a060020a0316637caf12808c8e8a6040518463ffffffff1660e060020a0281526004016119e893929190613f47565b602060405180830381865afa158015611a05573d6000803e3d6000fd5b505050506040513d601f19601f82011682018060405250810190611a299190613f6f565b8015611aa4575080600160a060020a031663e15b3ad08c8e856040518463ffffffff1660e060020a028152600401611a6393929190613f47565b602060405180830381865afa158015611a80573d6000803e3d6000fd5b505050506040513d601f19601f82011682018060405250810190611aa49190613f6f565b15611ba25783600160a060020a03166328d7e11a8c8e8a6040518463ffffffff1660e060020a028152600401611adc93929190613f47565b600060405180830381600087803b158015611af657600080fd5b505af1158015611b0a573d6000803e3d6000fd5b5050505080600160a060020a03166398bd75728c8e856040518463ffffffff1660e060020a028152600401611b4193929190613f47565b600060405180830381600087803b158015611b5b57600080fd5b505af1158015611b6f573d6000803e3d6000fd5b50505060008d8152600b602090815260408083208c845282529091208451611b9c93509091850190613272565b50600198505b50505050505050509392505050565b60008051602061420f833981519152610e0d816125c3565b6000805160206141af833981519152610e0d816125c3565b6000611bfb6000805160206141ef8339815191523361173b565b80611c195750611c196000805160206141cf8339815191523361173b565b611c385760405160e560020a62461bcd0281526004016109a490613dc8565b82600260006101000a815481600160a060020a030219169083600160a060020a0316021790555081600160a060020a0316630a75806e6040518163ffffffff1660e060020a0281526004016020604051808303816000875af1158015611ca2573d6000803e3d6000fd5b505050506040513d601f19601f820116820180604052508101906117349190613f2e565b600960209081526000848152604090208351808501830180519281529083019285019290922091528054829081106110f957600080fd5b606060066000838152602001908152602001600020805480602002602001604051908101604052809291908181526020016000905b82821015611dde578382906000526020600020018054611d5190613c95565b80601f0160208091040260200160405190810160405280929190818152602001828054611d7d90613c95565b8015611dca5780601f10611d9f57610100808354040283529160200191611dca565b820191906000526020600020905b815481529060010190602001808311611dad57829003601f168201915b505050505081526020019060010190611d32565b505050509050919050565b6000818152600160205260408120610863906128c4565b60008051602061420f833981519152611e18816125c3565b60008060005b600354811015611e875760038181548110611e3b57611e3b613d3b565b9060005260206000200154600014611e755760038181548110611e6057611e60613d3b565b90600052602060002001549250809150611e87565b80611e7f81613cec565b915050611e1e565b50600082815260046020526040902054611ea957611ea4826128ce565b611ec9565b60008281526004602052604090205460011415611ec957611ec982612959565b60008281526004602052604090205460011015610e8357600060038281548110611ef557611ef5613d3b565b600091825260209091200155505050565b6000818152600c6020908152604091829020805483518184028101840190945280845260609392830182828015611f5c57602002820191906000526020600020905b815481526020019060010190808311611f48575b50505050509050919050565b600082815260208190526040902060010154611f83816125c3565b610e838383612896565b600b602090815260009283526040808420909152908252902080546108bb90613c95565b6000611fcb6000805160206141ef8339815191523361173b565b80611fe95750611fe96000805160206141cf8339815191523361173b565b6120085760405160e560020a62461bcd0281526004016109a490613dc8565b815183511461202c5760405160e560020a62461bcd0281526004016109a490613d6b565b82511561203e5761203e838383612715565b84600260006101000a815481600160a060020a030219169083600160a060020a0316021790555083600160a060020a0316630a75806e6040518163ffffffff1660e060020a0281526004016020604051808303816000875af11580156120a8573d6000803e3d6000fd5b505050506040513d601f19601f820116820180604052508101906120cc9190613f2e565b95945050505050565b6000805160206141cf8339815191526120ed816125c3565b50600380546001810182556000919091527fc2575a0e9e593c00f959f8c92f12db2869c3395a3b0502d05e2516446f71f85b0155565b6000805160206141cf83398151915261213b816125c3565b6121458383612c73565b6121945760405160e560020a62461bcd02815260206004820152601a60248201527f6e6f7420616c6c207a6f6e6520696e64656365732076616c696400000000000060448201526064016109a4565b60005b8251811015610e5857600084815260096020526040902083518490839081106121c2576121c2613d3b565b60200260200101516000600281106121dc576121dc613d3b565b60200201516040516121ee9190613d07565b908152602001604051809103902083828151811061220e5761220e613d3b565b602002602001015160016002811061222857612228613d3b565b60209081029190910151825460018101845560009384529282902081516122589491909101929190910190613272565b506000848152600860205260409020835184908390811061227b5761227b613d3b565b602002602001015160016002811061229557612295613d3b565b60200201516040516122a79190613d07565b90815260200160405180910390208382815181106122c7576122c7613d3b565b60200260200101516000600281106122e1576122e1613d3b565b60209081029190910151825460018101845560009384529282902081516123119491909101929190910190613272565b508061231c81613cec565b915050612197565b6011546040517fd4939609000000000000000000000000000000000000000000000000000000008152600160a060020a039091169063d49396099061237190859085908890600401613f91565b600060405180830381600087803b15801561238b57600080fd5b505af115801561239f573d6000803e3d6000fd5b505050600082815260126020526040908190209051600192506123c3908690613d07565b908152604051908190036020019020805491151560ff19909216919091179055505050565b6000805160206141af833981519152612400816125c3565b6002546040517fbca7caa000000000000000000000000000000000000000000000000000000000815260048101869052600160a060020a038581166024830152600092169063bca7caa090604401602060405180830381865afa15801561246b573d6000803e3d6000fd5b505050506040513d601f19601f8201168201806040525081019061248f9190613f2e565b6000868152600b60209081526040808320848452825290912085519293506124bb929091860190613272565b505050505050565b6124cd828261173b565b610e0d57600082815260208181526040808320600160a060020a03851684529091529020805460ff191660011790556125033390565b600160a060020a031681600160a060020a0316837f2f8788117e7eff1d82e926ec794901d17c78024a50270940304540a733656f0d60405160405180910390a45050565b600061173483600160a060020a038416612d82565b6000600160e060020a031982167f7965db0b00000000000000000000000000000000000000000000000000000000148061086357507f01ffc9a700000000000000000000000000000000000000000000000000000000600160e060020a0319831614610863565b6117198133612dd1565b600160005b8251811015612668578281815181106125ed576125ed613d3b565b602002602001015160016126019190613d23565b6000868152600860205260409020855186908490811061262357612623613d3b565b60200260200101516040516126389190613d07565b90815260405190819003602001902054106126565760009150612668565b8061266081613cec565b9150506125d2565b509392505050565b600160005b82518110156126685782818151811061269057612690613d3b565b602002602001015160016126a49190613d23565b600086815260096020526040902085518690849081106126c6576126c6613d3b565b60200260200101516040516126db9190613d07565b90815260405190819003602001902054106126f95760009150612668565b8061270381613cec565b915050612675565b610e0d8282612874565b60005b8351811015610e58576000828152600660205260409020835184908390811061274357612743613d3b565b602090810291909101810151825460018101845560009384529282902081516127759491909101929190910190613272565b5083818151811061278857612788613d3b565b6020026020010151600760008481526020019081526020016000208483815181106127b5576127b5613d3b565b60200260200101516040516127ca9190613d07565b908152602001604051809103902060006101000a815481600160a060020a030219169083600160a060020a0316021790555061282d6000805160206141af83398151915285838151811061282057612820613d3b565b602002602001015161173b565b612862576128626000805160206141af83398151915285838151811061285557612855613d3b565b602002602001015161270b565b8061286c81613cec565b915050612718565b61287e82826124c3565b6000828152600160205260409020610e839082612547565b6128a08282612e38565b6000828152600160205260409020610e839082612e9d565b60006117348383612eb2565b6000610863825490565b6002546040517f60c2050000000000000000000000000000000000000000000000000000000000815260048101839052600160a060020a03909116906360c2050090602401600060405180830381600087803b15801561292d57600080fd5b505af1158015612941573d6000803e3d6000fd5b50505060009182525060046020526040902060019055565b6000818152600760209081526040808320600690925282208054839061298157612981613d3b565b906000526020600020016040516129989190613fd1565b90815260405190819003602001902054600160a060020a031690508060005b6002546040517fb77ff41100000000000000000000000000000000000000000000000000000000815260048101869052600160a060020a039091169063b77ff41190602401602060405180830381865afa158015612a19573d6000803e3d6000fd5b505050506040513d601f19601f82011682018060405250810190612a3d9190613f2e565b811015612c5c576000612a51826001613d23565b6002546040517ff50432540000000000000000000000000000000000000000000000000000000081526004810188905260248101839052919250600091600160a060020a039091169063f504325490604401602060405180830381865afa158015612ac0573d6000803e3d6000fd5b505050506040513d601f19601f82011682018060405250810190612ae49190614043565b905083600160a060020a031663e15b3ad08288600660008b8152602001908152602001600020600081548110612b1c57612b1c613d3b565b906000526020600020016040518463ffffffff1660e060020a028152600401612b4793929190614060565b602060405180830381865afa158015612b64573d6000803e3d6000fd5b505050506040513d601f19601f82011682018060405250810190612b889190613f6f565b15612c255783600160a060020a03166398bd75728288600660008b8152602001908152602001600020600081548110612bc357612bc3613d3b565b906000526020600020016040518463ffffffff1660e060020a028152600401612bee93929190614060565b600060405180830381600087803b158015612c0857600080fd5b505af1158015612c1c573d6000803e3d6000fd5b50505050612c47565b6000868152600c60209081526040822080546001810182559083529120018290555b50508080612c5490613cec565b9150506129b7565b505050600090815260046020526040902060029055565b6000805b8251811015612d7b576000848152600760205260408120845160019450859084908110612ca657612ca6613d3b565b6020026020010151600060028110612cc057612cc0613d3b565b6020020151604051612cd29190613d07565b90815260405190819003602001902054600160a060020a03161480612d5b575060008481526007602052604081208451859084908110612d1457612d14613d3b565b6020026020010151600160028110612d2e57612d2e613d3b565b6020020151604051612d409190613d07565b90815260405190819003602001902054600160a060020a0316145b15612d695760009150612d7b565b80612d7381613cec565b915050612c77565b5092915050565b6000818152600183016020526040812054612dc957508154600181810184556000848152602080822090930184905584548482528286019093526040902091909155610863565b506000610863565b612ddb828261173b565b610e0d57612df381600160a060020a03166014612edc565b612dfe836020612edc565b604051602001612e0f9291906140fd565b60408051601f198184030181529082905260e560020a62461bcd0282526109a49160040161356c565b612e42828261173b565b15610e0d57600082815260208181526040808320600160a060020a0385168085529252808320805460ff1916905551339285917ff6391f5c32d9c69d2a47ea670b442974b53935d1edc7fd64eb21e047a839171b9190a45050565b600061173483600160a060020a038416613126565b6000826000018281548110612ec957612ec9613d3b565b9060005260206000200154905092915050565b60606000612eeb836002613e25565b612ef6906002613d23565b67ffffffffffffffff811115612f0e57612f0e6133ba565b6040519080825280601f01601f191660200182016040528015612f38576020820181803683370190505b5090507f300000000000000000000000000000000000000000000000000000000000000081600081518110612f6f57612f6f613d3b565b60200101907effffffffffffffffffffffffffffffffffffffffffffffffffffffffffffff1916908160001a9053507f780000000000000000000000000000000000000000000000000000000000000081600181518110612fd257612fd2613d3b565b60200101907effffffffffffffffffffffffffffffffffffffffffffffffffffffffffffff1916908160001a905350600061300e846002613e25565b613019906001613d23565b90505b60018111156130d4577f303132333435363738396162636465660000000000000000000000000000000085600f166010811061305a5761305a613d3b565b1a7f01000000000000000000000000000000000000000000000000000000000000000282828151811061308f5761308f613d3b565b60200101907effffffffffffffffffffffffffffffffffffffffffffffffffffffffffffff1916908160001a9053506010909404936130cd8161417e565b905061301c565b5083156117345760405160e560020a62461bcd02815260206004820181905260248201527f537472696e67733a20686578206c656e67746820696e73756666696369656e7460448201526064016109a4565b6000818152600183016020526040812054801561320f57600061314a600183613d54565b855490915060009061315e90600190613d54565b90508181146131c357600086600001828154811061317e5761317e613d3b565b90600052602060002001549050808760000184815481106131a1576131a1613d3b565b6000918252602080832090910192909255918252600188019052604090208390555b85548690806131d4576131d4614195565b600190038181906000526020600020016000905590558560010160008681526020019081526020016000206000905560019350505050610863565b6000915050610863565b828054828255906000526020600020908101928215613266579160200282015b828111156132665782518051613256918491602090910190613272565b5091602001919060010190613239565b50610ed59291506132f2565b82805461327e90613c95565b90600052602060002090601f0160209004810192826132a057600085556132e6565b82601f106132b957805160ff19168380011785556132e6565b828001600101855582156132e6579182015b828111156132e65782518255916020019190600101906132cb565b50610ed592915061330f565b80821115610ed55760006133068282613324565b506001016132f2565b5b80821115610ed55760008155600101613310565b50805461333090613c95565b6000825580601f10613340575050565b601f016020900490600052602060002090810190611719919061330f565b60006020828403121561337057600080fd5b8135600160e060020a03198116811461173457600080fd5b600160a060020a038116811461171957600080fd5b6000602082840312156133af57600080fd5b813561173481613388565b60e060020a634e487b7102600052604160045260246000fd5b6040805190810167ffffffffffffffff811182821017156133f6576133f66133ba565b60405290565b604051601f8201601f1916810167ffffffffffffffff81118282101715613425576134256133ba565b604052919050565b600067ffffffffffffffff821115613447576134476133ba565b50601f01601f191660200190565b600082601f83011261346657600080fd5b81356134796134748261342d565b6133fc565b81815284602083860101111561348e57600080fd5b816020850160208301376000918101602001919091529392505050565b600080604083850312156134be57600080fd5b82359150602083013567ffffffffffffffff8111156134dc57600080fd5b6134e885828601613455565b9150509250929050565b6000806040838503121561350557600080fd5b50508035926020909101359150565b60005b8381101561352f578181015183820152602001613517565b83811115610e585750506000910152565b60008151808452613558816020860160208601613514565b601f01601f19169290920160200192915050565b6020815260006117346020830184613540565b600067ffffffffffffffff821115613599576135996133ba565b5060209081020190565b600082601f8301126135b457600080fd5b813560206135c46134748361357f565b828152918102840181019181810190868411156135e057600080fd5b8286015b8481101561362057803567ffffffffffffffff8111156136045760008081fd5b6136128986838b0101613455565b8452509183019183016135e4565b509695505050505050565b600082601f83011261363c57600080fd5b8135602061364c6134748361357f565b8281529181028401810191818101908684111561366857600080fd5b8286015b84811015613620578035835291830191830161366c565b600080600080600060a0868803121561369b57600080fd5b85359450602086013567ffffffffffffffff808211156136ba57600080fd5b6136c689838a016135a3565b955060408801359150808211156136dc57600080fd5b6136e889838a0161362b565b945060608801359150808211156136fe57600080fd5b61370a89838a016135a3565b9350608088013591508082111561372057600080fd5b5061372d8882890161362b565b9150509295509295909350565b600060208083018184528085518083526040860191506040848202870101925083870160005b8281101561378e57603f1988860301845261377c858351613540565b94509285019290850190600101613760565b5092979650505050505050565b6000602082840312156137ad57600080fd5b5035919050565b600082601f8301126137c557600080fd5b813560206137d56134748361357f565b828152918102840181019181810190868411156137f157600080fd5b8286015b8481101561362057803561380881613388565b83529183019183016137f5565b6000806000806080858703121561382b57600080fd5b84359350602085013567ffffffffffffffff8082111561384a57600080fd5b613856888389016137b4565b9450604087013591508082111561386c57600080fd5b506138798782880161362b565b949793965093946060013593505050565b60008060006060848603121561389f57600080fd5b833567ffffffffffffffff808211156138b757600080fd5b6138c3878388016137b4565b945060208601359150808211156138d957600080fd5b506138e6868287016135a3565b925050604084013590509250925092565b6000806040838503121561390a57600080fd5b82359150602083013561391c81613388565b809150509250929050565b6000806040838503121561393a57600080fd5b823567ffffffffffffffff81111561395157600080fd5b61395d858286016135a3565b95602094909401359450505050565b60008060006060848603121561398157600080fd5b83359250602084013567ffffffffffffffff81111561399f57600080fd5b6138e686828701613455565b6000806000606084860312156139c057600080fd5b8335925060208401356139d281613388565b929592945050506040919091013590565b600080604083850312156139f657600080fd5b8235613a0181613388565b9150602083013561391c81613388565b6020808252825182820181905260009190848201906040850190845b81811015613a4957835183529284019291840191600101613a2d565b50909695505050505050565b60008060008060808587031215613a6b57600080fd5b8435613a7681613388565b93506020850135613a8681613388565b9250604085013567ffffffffffffffff80821115613aa357600080fd5b613aaf888389016137b4565b93506060870135915080821115613ac557600080fd5b50613ad2878288016135a3565b91505092959194509250565b60008060408385031215613af157600080fd5b8235915060208084013567ffffffffffffffff80821115613b1157600080fd5b818601915086601f830112613b2557600080fd5b8135613b336134748261357f565b81815290840283018401908481019089831115613b4f57600080fd5b8585015b83811015613bde578481351115613b6957600080fd5b803586018b603f820112613b7c57600080fd5b613b846133d3565b808d606084011115613b9557600080fd5b8983015b60608401811015613bce578881351115613bb257600080fd5b613bc18f8c8335870101613455565b8352918a01918a01613b99565b5085525050918601918601613b53565b508096505050505050509250929050565b600080600060608486031215613c0457600080fd5b833567ffffffffffffffff811115613c1b57600080fd5b613c2786828701613455565b9350506020840135600681106139d257600080fd5b600080600060608486031215613c5157600080fd5b833592506020840135613c6381613388565b9150604084013567ffffffffffffffff811115613c7f57600080fd5b613c8b86828701613455565b9150509250925092565b600281046001821680613ca957607f821691505b60208210811415613ccd5760e060020a634e487b7102600052602260045260246000fd5b50919050565b60e060020a634e487b7102600052601160045260246000fd5b6000600019821415613d0057613d00613cd3565b5060010190565b60008251613d19818460208701613514565b9190910192915050565b60008219821115613d3657613d36613cd3565b500190565b60e060020a634e487b7102600052603260045260246000fd5b600082821015613d6657613d66613cd3565b500390565b60208082526025908201527f616464726573736573202620616c696173657320646966666572656e74206c6560408201527f6e67746873000000000000000000000000000000000000000000000000000000606082015260800190565b60208082526024908201527f47616d65204d6173746572206f7220466163746f727920726f6c65207265717560408201527f6972656400000000000000000000000000000000000000000000000000000000606082015260800190565b6000816000190483118215151615613e3f57613e3f613cd3565b500290565b60006020808385031215613e5757600080fd5b825167ffffffffffffffff80821115613e6f57600080fd5b818501915085601f830112613e8357600080fd5b8151613e916134748261357f565b81815290840283018401908481019088831115613ead57600080fd5b8585015b83811015613f2157805185811115613ec95760008081fd5b8601603f81018b13613edb5760008081fd5b878101516040613eed6134748361342d565b8281528d82848601011115613f025760008081fd5b613f11838c8301848701613514565b8652505050918601918601613eb1565b5098975050505050505050565b600060208284031215613f4057600080fd5b5051919050565b600160a060020a03841681528260208201526060604082015260006120cc6060830184613540565b600060208284031215613f8157600080fd5b8151801515811461173457600080fd5b600060068510613fb45760e060020a634e487b7102600052602160045260246000fd5b848252836020830152606060408301526120cc6060830184613540565b6000808354613fdf81613c95565b60018281168015613ff7576001811461400857614037565b60ff19841687528287019450614037565b8760005260208060002060005b8581101561402e5781548a820152908401908201614015565b50505082870194505b50929695505050505050565b60006020828403121561405557600080fd5b815161173481613388565b600160a060020a0384168152600060208481840152606060408401526000845461408981613c95565b80606087015260806001808416600081146140ab57600181146140bf576140ed565b60ff1985168984015260a0890195506140ed565b896000528660002060005b858110156140e55781548b82018601529083019088016140ca565b8a0184019650505b50939a9950505050505050505050565b7f416363657373436f6e74726f6c3a206163636f756e7420000000000000000000815260008351614135816017850160208801613514565b7f206973206d697373696e6720726f6c65200000000000000000000000000000006017918401918201528351614172816028840160208801613514565b01602801949350505050565b60008161418d5761418d613cd3565b506000190190565b60e060020a634e487b7102600052603160045260246000fdfe72b06b67826def9fabb513b23f7e5eb74f7ece26d25dad4006546ecf4a13763d1d93c87416ca7b54f0fb8323167b72760e8e2ec93d48660953897a150f97a8b4dfbefbf47cfe66b701d8cfdbce1de81c821590819cb07e71cb01b6602fb0ee27d017b644efdbb8827e313d7971462ef180dad8aa174c6fb8427f18caad304df7a26469706673582212207067760254a47d28ba4d4899202872fc75a8de9b3e1d66d71cdf816f48bd9bad64736f6c634300080b0033",
  "immutableReferences": {},
  "source": "// SPDX-License-Identifier: GPL-3.0\npragma solidity >=0.7.0 <0.9.0;\n\nimport \"@luckymachines/game-core/contracts/src/v0.0/custom_boards/HexGrid.sol\";\nimport \"./HexplorationZone.sol\";\n\ncontract HexplorationBoard is HexGrid {\n    // This role is a hybrid controller, assumes on chain verification of moves before submission\n    bytes32 public constant VERIFIED_CONTROLLER_ROLE =\n        keccak256(\"VERIFIED_CONTROLLER_ROLE\");\n\n    HexplorationZone internal HEX_ZONE;\n    // game ID => zone alias returns bool\n    mapping(uint256 => mapping(string => bool)) public zoneEnabled;\n\n    constructor(\n        address adminAddress,\n        uint256 gridWidth,\n        uint256 gridHeight,\n        address zoneAddress\n    ) HexGrid(adminAddress, gridWidth, gridHeight, zoneAddress) {\n        HEX_ZONE = HexplorationZone(zoneAddress);\n    }\n\n    // TODO: figure out who should call this, might be VRF function...\n    function enableZone(\n        string memory zoneAlias,\n        HexplorationZone.Tile tile,\n        uint256 gameID\n    ) public {\n        HEX_ZONE.setTile(tile, gameID, zoneAlias);\n        zoneEnabled[gameID][zoneAlias] = true;\n    }\n\n    // VERIFIED CONTROLLER functions\n    // We can assume these have been pre-verified\n    function moveThroughPath(string[] memory zonePath, uint256 gameID)\n        external\n        onlyRole(VERIFIED_CONTROLLER_ROLE)\n    {}\n}\n",
  "sourcePath": "/Users/max/Developer/LM/hexploration/contracts/HexplorationBoard.sol",
  "compiler": {
    "name": "solc",
    "version": "0.8.11+commit.d7f03943.Emscripten.clang"
  },
  "schemaVersion": "3.4.2",
  "updatedAt": "2022-05-08T19:32:09.540Z",
  "devdoc": {
    "kind": "dev",
    "methods": {
      "getRoleAdmin(bytes32)": {
        "details": "Returns the admin role that controls `role`. See {grantRole} and {revokeRole}. To change a role's admin, use {_setRoleAdmin}."
      },
      "getRoleMember(bytes32,uint256)": {
        "details": "Returns one of the accounts that have `role`. `index` must be a value between 0 and {getRoleMemberCount}, non-inclusive. Role bearers are not sorted in any particular way, and their ordering may change at any point. WARNING: When using {getRoleMember} and {getRoleMemberCount}, make sure you perform all queries on the same block. See the following https://forum.openzeppelin.com/t/iterating-over-elements-on-enumerableset-in-openzeppelin-contracts/2296[forum post] for more information."
      },
      "getRoleMemberCount(bytes32)": {
        "details": "Returns the number of accounts that have `role`. Can be used together with {getRoleMember} to enumerate all bearers of a role."
      },
      "grantRole(bytes32,address)": {
        "details": "Grants `role` to `account`. If `account` had not been already granted `role`, emits a {RoleGranted} event. Requirements: - the caller must have ``role``'s admin role."
      },
      "hasRole(bytes32,address)": {
        "details": "Returns `true` if `account` has been granted `role`."
      },
      "renounceRole(bytes32,address)": {
        "details": "Revokes `role` from the calling account. Roles are often managed via {grantRole} and {revokeRole}: this function's purpose is to provide a mechanism for accounts to lose their privileges if they are compromised (such as when a trusted device is misplaced). If the calling account had been revoked `role`, emits a {RoleRevoked} event. Requirements: - the caller must be `account`."
      },
      "revokeRole(bytes32,address)": {
        "details": "Revokes `role` from `account`. If `account` had been granted `role`, emits a {RoleRevoked} event. Requirements: - the caller must have ``role``'s admin role."
      },
      "supportsInterface(bytes4)": {
        "details": "See {IERC165-supportsInterface}."
      }
    },
    "version": 1
  },
  "userdoc": {
    "kind": "user",
    "methods": {},
    "version": 1
  }
}