{
  "contractName": "HexplorationStateUpdate",
  "abi": [
    {
      "inputs": [
        {
          "internalType": "address",
          "name": "gameBoardAddress",
          "type": "address"
        }
      ],
      "stateMutability": "nonpayable",
      "type": "constructor"
    },
    {
      "anonymous": false,
      "inputs": [
        {
          "indexed": true,
          "internalType": "bytes32",
          "name": "role",
          "type": "bytes32"
        },
        {
          "indexed": true,
          "internalType": "bytes32",
          "name": "previousAdminRole",
          "type": "bytes32"
        },
        {
          "indexed": true,
          "internalType": "bytes32",
          "name": "newAdminRole",
          "type": "bytes32"
        }
      ],
      "name": "RoleAdminChanged",
      "type": "event"
    },
    {
      "anonymous": false,
      "inputs": [
        {
          "indexed": true,
          "internalType": "bytes32",
          "name": "role",
          "type": "bytes32"
        },
        {
          "indexed": true,
          "internalType": "address",
          "name": "account",
          "type": "address"
        },
        {
          "indexed": true,
          "internalType": "address",
          "name": "sender",
          "type": "address"
        }
      ],
      "name": "RoleGranted",
      "type": "event"
    },
    {
      "anonymous": false,
      "inputs": [
        {
          "indexed": true,
          "internalType": "bytes32",
          "name": "role",
          "type": "bytes32"
        },
        {
          "indexed": true,
          "internalType": "address",
          "name": "account",
          "type": "address"
        },
        {
          "indexed": true,
          "internalType": "address",
          "name": "sender",
          "type": "address"
        }
      ],
      "name": "RoleRevoked",
      "type": "event"
    },
    {
      "inputs": [],
      "name": "DEFAULT_ADMIN_ROLE",
      "outputs": [
        {
          "internalType": "bytes32",
          "name": "",
          "type": "bytes32"
        }
      ],
      "stateMutability": "view",
      "type": "function",
      "constant": true
    },
    {
      "inputs": [],
      "name": "VERIFIED_CONTROLLER_ROLE",
      "outputs": [
        {
          "internalType": "bytes32",
          "name": "",
          "type": "bytes32"
        }
      ],
      "stateMutability": "view",
      "type": "function",
      "constant": true
    },
    {
      "inputs": [
        {
          "internalType": "bytes32",
          "name": "role",
          "type": "bytes32"
        }
      ],
      "name": "getRoleAdmin",
      "outputs": [
        {
          "internalType": "bytes32",
          "name": "",
          "type": "bytes32"
        }
      ],
      "stateMutability": "view",
      "type": "function",
      "constant": true
    },
    {
      "inputs": [
        {
          "internalType": "bytes32",
          "name": "role",
          "type": "bytes32"
        },
        {
          "internalType": "uint256",
          "name": "index",
          "type": "uint256"
        }
      ],
      "name": "getRoleMember",
      "outputs": [
        {
          "internalType": "address",
          "name": "",
          "type": "address"
        }
      ],
      "stateMutability": "view",
      "type": "function",
      "constant": true
    },
    {
      "inputs": [
        {
          "internalType": "bytes32",
          "name": "role",
          "type": "bytes32"
        }
      ],
      "name": "getRoleMemberCount",
      "outputs": [
        {
          "internalType": "uint256",
          "name": "",
          "type": "uint256"
        }
      ],
      "stateMutability": "view",
      "type": "function",
      "constant": true
    },
    {
      "inputs": [
        {
          "internalType": "bytes32",
          "name": "role",
          "type": "bytes32"
        },
        {
          "internalType": "address",
          "name": "account",
          "type": "address"
        }
      ],
      "name": "grantRole",
      "outputs": [],
      "stateMutability": "nonpayable",
      "type": "function"
    },
    {
      "inputs": [
        {
          "internalType": "bytes32",
          "name": "role",
          "type": "bytes32"
        },
        {
          "internalType": "address",
          "name": "account",
          "type": "address"
        }
      ],
      "name": "hasRole",
      "outputs": [
        {
          "internalType": "bool",
          "name": "",
          "type": "bool"
        }
      ],
      "stateMutability": "view",
      "type": "function",
      "constant": true
    },
    {
      "inputs": [
        {
          "internalType": "bytes32",
          "name": "role",
          "type": "bytes32"
        },
        {
          "internalType": "address",
          "name": "account",
          "type": "address"
        }
      ],
      "name": "renounceRole",
      "outputs": [],
      "stateMutability": "nonpayable",
      "type": "function"
    },
    {
      "inputs": [
        {
          "internalType": "bytes32",
          "name": "role",
          "type": "bytes32"
        },
        {
          "internalType": "address",
          "name": "account",
          "type": "address"
        }
      ],
      "name": "revokeRole",
      "outputs": [],
      "stateMutability": "nonpayable",
      "type": "function"
    },
    {
      "inputs": [
        {
          "internalType": "bytes4",
          "name": "interfaceId",
          "type": "bytes4"
        }
      ],
      "name": "supportsInterface",
      "outputs": [
        {
          "internalType": "bool",
          "name": "",
          "type": "bool"
        }
      ],
      "stateMutability": "view",
      "type": "function",
      "constant": true
    },
    {
      "inputs": [
        {
          "internalType": "address",
          "name": "vcAddress",
          "type": "address"
        }
      ],
      "name": "addVerifiedController",
      "outputs": [],
      "stateMutability": "nonpayable",
      "type": "function"
    },
    {
      "inputs": [
        {
          "internalType": "uint256[]",
          "name": "intUpdates",
          "type": "uint256[]"
        },
        {
          "internalType": "string[]",
          "name": "stringUpdates",
          "type": "string[]"
        },
        {
          "internalType": "uint256",
          "name": "gameID",
          "type": "uint256"
        }
      ],
      "name": "postUpdates",
      "outputs": [],
      "stateMutability": "nonpayable",
      "type": "function"
    },
    {
      "inputs": [
        {
          "internalType": "string[]",
          "name": "zonePath",
          "type": "string[]"
        },
        {
          "internalType": "uint256",
          "name": "gameID",
          "type": "uint256"
        },
        {
          "internalType": "address",
          "name": "playerAddress",
          "type": "address"
        }
      ],
      "name": "moveThroughPath",
      "outputs": [],
      "stateMutability": "nonpayable",
      "type": "function"
    }
  ],
  "bytecode": "0x60806040523480156200001157600080fd5b506040516200155438038062001554833981016040819052620000349162000244565b6200005c60006200004d64010000000062000082810204565b64010000000062000086810204565b60028054600160a060020a031916600160a060020a039290921691909117905562000276565b3390565b6200009b82826401000000006200009f810204565b5050565b620000b98282640100000000620006e9620000e682021704565b6000828152600160205260409020620000e190826401000000006200076d6200018282021704565b505050565b620000fb8282640100000000620001ab810204565b6200009b57600082815260208181526040808320600160a060020a03851684529091529020805460ff191660011790556200013e64010000000062000082810204565b600160a060020a031681600160a060020a0316837f2f8788117e7eff1d82e926ec794901d17c78024a50270940304540a733656f0d60405160405180910390a45050565b6000620001a283600160a060020a038416640100000000620001d4810204565b90505b92915050565b600091825260208281526040808420600160a060020a0393909316845291905290205460ff1690565b6000620001eb83836401000000006200022c810204565b6200022357508154600181810184556000848152602080822090930184905584548482528286019093526040902091909155620001a5565b506000620001a5565b60009081526001919091016020526040902054151590565b6000602082840312156200025757600080fd5b8151600160a060020a03811681146200026f57600080fd5b9392505050565b6112ce80620002866000396000f3fe608060405234801561001057600080fd5b50600436106100dc576000357c0100000000000000000000000000000000000000000000000000000000900480636776e3d0116100995780636776e3d01461018a5780639010d07c1461019d57806391d14854146101c8578063a217fddf146101db578063ca15c873146101e3578063d4f5b152146101f6578063d547741f1461020957600080fd5b806301ffc9a7146100e15780631c834a7f14610109578063248a9ca31461012c5780632f2ff15d1461014f57806336568abe146101645780634bde808c14610177575b600080fd5b6100f46100ef366004610c9f565b61021c565b60405190151581526020015b60405180910390f35b61011e60008051602061127983398151915281565b604051908152602001610100565b61011e61013a366004610cc9565b60009081526020819052604090206001015490565b61016261015d366004610cfe565b610260565b005b610162610172366004610cfe565b61028a565b610162610185366004610e7e565b61031e565b610162610198366004610ed5565b610485565b6101b06101ab366004610f94565b610642565b604051600160a060020a039091168152602001610100565b6100f46101d6366004610cfe565b610661565b61011e600081565b61011e6101f1366004610cc9565b61068a565b610162610204366004610fb6565b6106a1565b610162610217366004610cfe565b6106c4565b6000600160e060020a031982167f5a05180f00000000000000000000000000000000000000000000000000000000148061025a575061025a82610782565b92915050565b60008281526020819052604090206001015461027b816107e9565b61028583836107f6565b505050565b600160a060020a03811633146103105760405160e560020a62461bcd02815260206004820152602f60248201527f416363657373436f6e74726f6c3a2063616e206f6e6c792072656e6f756e636560448201527f20726f6c657320666f722073656c66000000000000000000000000000000000060648201526084015b60405180910390fd5b61031a8282610818565b5050565b600080516020611279833981519152610336816107e9565b6000845167ffffffffffffffff81111561035257610352610d2a565b60405190808252806020026020018201604052801561037b578160200160208202803683370190505b50905060005b85518110156103fc5780156103a6578060011461039f5760046103a9565b60026103a9565b60015b8282815181106103bb576103bb610fd1565b6020026020010190600b8111156103d4576103d4610fea565b9081600b8111156103e7576103e7610fea565b905250806103f48161101c565b915050610381565b506002546040517f31e019f6000000000000000000000000000000000000000000000000000000008152600160a060020a03909116906331e019f69061044c908890879089908790600401611093565b600060405180830381600087803b15801561046657600080fd5b505af115801561047a573d6000803e3d6000fd5b505050505050505050565b60008051602061127983398151915261049d816107e9565b60408051600480825260a08201909252600091816020015b60608152602001906001900390816104b55790505090506040518060400160405280600381526020017f302c3000000000000000000000000000000000000000000000000000000000008152508160008151811061051557610515610fd1565b60200260200101819052506040518060400160405280600381526020017f302c3100000000000000000000000000000000000000000000000000000000008152508160008151811061056957610569610fd1565b60200260200101819052506040518060400160405280600381526020017f302c320000000000000000000000000000000000000000000000000000000000815250816000815181106105bd576105bd610fd1565b60200260200101819052506040518060400160405280600381526020017f302c3300000000000000000000000000000000000000000000000000000000008152508160008151811061061157610611610fd1565b602002602001018190525061063b818473ef0524118944f9f2f46f708e731f097d8ef0b32961031e565b5050505050565b600082815260016020526040812061065a908361083a565b9392505050565b600091825260208281526040808420600160a060020a0393909316845291905290205460ff1690565b600081815260016020526040812061025a90610846565b60006106ac816107e9565b61031a60008051602061127983398151915283610260565b6000828152602081905260409020600101546106df816107e9565b6102858383610818565b6106f38282610661565b61031a57600082815260208181526040808320600160a060020a03851684529091529020805460ff191660011790556107293390565b600160a060020a031681600160a060020a0316837f2f8788117e7eff1d82e926ec794901d17c78024a50270940304540a733656f0d60405160405180910390a45050565b600061065a83600160a060020a038416610850565b6000600160e060020a031982167f7965db0b00000000000000000000000000000000000000000000000000000000148061025a57507f01ffc9a700000000000000000000000000000000000000000000000000000000600160e060020a031983161461025a565b6107f3813361089f565b50565b61080082826106e9565b6000828152600160205260409020610285908261076d565b6108228282610906565b6000828152600160205260409020610285908261096b565b600061065a8383610980565b600061025a825490565b60008181526001830160205260408120546108975750815460018181018455600084815260208082209093018490558454848252828601909352604090209190915561025a565b50600061025a565b6108a98282610661565b61031a576108c181600160a060020a031660146109aa565b6108cc8360206109aa565b6040516020016108dd929190611166565b60408051601f198184030181529082905260e560020a62461bcd028252610307916004016111e7565b6109108282610661565b1561031a57600082815260208181526040808320600160a060020a0385168085529252808320805460ff1916905551339285917ff6391f5c32d9c69d2a47ea670b442974b53935d1edc7fd64eb21e047a839171b9190a45050565b600061065a83600160a060020a038416610bac565b600082600001828154811061099757610997610fd1565b9060005260206000200154905092915050565b606060006109b98360026111fa565b6109c4906002611219565b67ffffffffffffffff8111156109dc576109dc610d2a565b6040519080825280601f01601f191660200182016040528015610a06576020820181803683370190505b5090507f300000000000000000000000000000000000000000000000000000000000000081600081518110610a3d57610a3d610fd1565b6020010190600160f860020a031916908160001a9053507f780000000000000000000000000000000000000000000000000000000000000081600181518110610a8857610a88610fd1565b6020010190600160f860020a031916908160001a9053506000610aac8460026111fa565b610ab7906001611219565b90505b6001811115610b5a577f303132333435363738396162636465660000000000000000000000000000000085600f1660108110610af857610af8610fd1565b1a7f010000000000000000000000000000000000000000000000000000000000000002828281518110610b2d57610b2d610fd1565b6020010190600160f860020a031916908160001a905350601090940493610b5381611231565b9050610aba565b50831561065a5760405160e560020a62461bcd02815260206004820181905260248201527f537472696e67733a20686578206c656e67746820696e73756666696369656e746044820152606401610307565b60008181526001830160205260408120548015610c95576000610bd0600183611248565b8554909150600090610be490600190611248565b9050818114610c49576000866000018281548110610c0457610c04610fd1565b9060005260206000200154905080876000018481548110610c2757610c27610fd1565b6000918252602080832090910192909255918252600188019052604090208390555b8554869080610c5a57610c5a61125f565b60019003818190600052602060002001600090559055856001016000868152602001908152602001600020600090556001935050505061025a565b600091505061025a565b600060208284031215610cb157600080fd5b8135600160e060020a03198116811461065a57600080fd5b600060208284031215610cdb57600080fd5b5035919050565b8035600160a060020a0381168114610cf957600080fd5b919050565b60008060408385031215610d1157600080fd5b82359150610d2160208401610ce2565b90509250929050565b60e060020a634e487b7102600052604160045260246000fd5b604051601f8201601f1916810167ffffffffffffffff81118282101715610d6c57610d6c610d2a565b604052919050565b600067ffffffffffffffff821115610d8e57610d8e610d2a565b5060209081020190565b6000601f8381840112610daa57600080fd5b82356020610dbf610dba83610d74565b610d43565b82815291810285018101918181019087841115610ddb57600080fd5b8287015b84811015610e7257803567ffffffffffffffff80821115610e005760008081fd5b818a0191508a603f830112610e155760008081fd5b85820135604082821115610e2b57610e2b610d2a565b610e3c828b01601f19168901610d43565b92508183528c81838601011115610e535760008081fd5b8181850189850137506000908201870152845250918301918301610ddf565b50979650505050505050565b600080600060608486031215610e9357600080fd5b833567ffffffffffffffff811115610eaa57600080fd5b610eb686828701610d98565b93505060208401359150610ecc60408501610ce2565b90509250925092565b600080600060608486031215610eea57600080fd5b833567ffffffffffffffff80821115610f0257600080fd5b818601915086601f830112610f1657600080fd5b81356020610f26610dba83610d74565b8281529181028401810191818101908a841115610f4257600080fd5b948201945b83861015610f6057853582529482019490820190610f47565b97505087013592505080821115610f7657600080fd5b50610f8386828701610d98565b925050604084013590509250925092565b60008060408385031215610fa757600080fd5b50508035926020909101359150565b600060208284031215610fc857600080fd5b61065a82610ce2565b60e060020a634e487b7102600052603260045260246000fd5b60e060020a634e487b7102600052602160045260246000fd5b60e060020a634e487b7102600052601160045260246000fd5b600060001982141561103057611030611003565b5060010190565b60005b8381101561105257818101518382015260200161103a565b83811115611061576000848401525b50505050565b6000815180845261107f816020860160208601611037565b601f01601f19169290920160200192915050565b6000608082016080835280875180835260a0850191506020925060a0838202860101838a0160005b838110156110e957609f198884030185526110d7838351611067565b948601949250908501906001016110bb565b5050600160a060020a0389168685015260408601889052858103606087015286518082529084019250905085830160005b82811015611157578151600c81106111455760e060020a634e487b7102600052602160045260246000fd5b8452928401929084019060010161111a565b50919998505050505050505050565b7f416363657373436f6e74726f6c3a206163636f756e742000000000000000000081526000835161119e816017850160208801611037565b7f206973206d697373696e6720726f6c652000000000000000000000000000000060179184019182015283516111db816028840160208801611037565b01602801949350505050565b60208152600061065a6020830184611067565b600081600019048311821515161561121457611214611003565b500290565b6000821982111561122c5761122c611003565b500190565b60008161124057611240611003565b506000190190565b60008282101561125a5761125a611003565b500390565b60e060020a634e487b7102600052603160045260246000fdfe80e2196015fc06a9d891759f8e4f51eb314ef5e9ea068528a8ed0063b87759f0a2646970667358221220bb9e6a47b31ed7ef8e163e6bce8626e28da4e821a3ec0a83f588adf9da640fd964736f6c634300080b0033",
  "immutableReferences": {},
  "source": "// SPDX-License-Identifier: GPL-3.0\npragma solidity >=0.7.0 <0.9.0;\n\n// TODO: start using this for state updating outside of controller\n// Controller should only be used by users / UI directly sending\n// commands. This does things that can only imagine...\n\n// This should be only associated with one board...\n\nimport \"@luckymachines/game-core/contracts/src/v0.0/GameController.sol\";\nimport \"./HexplorationBoard.sol\";\n\ncontract HexplorationStateUpdate is AccessControlEnumerable {\n    bytes32 public constant VERIFIED_CONTROLLER_ROLE =\n        keccak256(\"VERIFIED_CONTROLLER_ROLE\");\n    /*\n    Controller can access all game tokens with the following methods:\n\n    function mint(\n        string memory tokenType,\n        uint256 gameID,\n        uint256 quantity\n    )\n\n    function transfer(\n        string memory tokenType,\n        uint256 gameID,\n        uint256 fromID,\n        uint256 toID,\n        uint256 quantity\n    )\n*/\n    HexplorationBoard internal GAME_BOARD;\n    modifier onlyAdminVC() {\n        require(\n            hasRole(DEFAULT_ADMIN_ROLE, _msgSender()) ||\n                hasRole(VERIFIED_CONTROLLER_ROLE, _msgSender()),\n            \"Admin or Keeper role required\"\n        );\n        _;\n    }\n\n    constructor(address gameBoardAddress) {\n        _setupRole(DEFAULT_ADMIN_ROLE, _msgSender());\n        GAME_BOARD = HexplorationBoard(gameBoardAddress);\n    }\n\n    // Admin Functions\n\n    function addVerifiedController(address vcAddress)\n        public\n        onlyRole(DEFAULT_ADMIN_ROLE)\n    {\n        grantRole(VERIFIED_CONTROLLER_ROLE, vcAddress);\n    }\n\n    function postUpdates(\n        uint256[] memory intUpdates,\n        string[] memory stringUpdates,\n        uint256 gameID\n    ) public onlyRole(VERIFIED_CONTROLLER_ROLE) {\n        // go through values and post everything, transfer all the tokens, and pray\n        // use gamestate update contract to post everything\n\n        //test moving a player...\n        string[] memory movementPath = new string[](4);\n        movementPath[0] = \"0,0\";\n        movementPath[0] = \"0,1\";\n        movementPath[0] = \"0,2\";\n        movementPath[0] = \"0,3\";\n        moveThroughPath(\n            movementPath,\n            gameID,\n            0xeF0524118944F9F2f46f708e731F097d8eF0B329\n        );\n    }\n\n    function moveThroughPath(\n        string[] memory zonePath,\n        uint256 gameID,\n        address playerAddress\n    ) public onlyRole(VERIFIED_CONTROLLER_ROLE) {\n        //TODO: pick tiles from deck\n\n        HexplorationZone.Tile[] memory tiles = new HexplorationZone.Tile[](\n            zonePath.length\n        );\n        for (uint256 i = 0; i < zonePath.length; i++) {\n            tiles[i] = i == 0 ? HexplorationZone.Tile.Jungle : i == 1\n                ? HexplorationZone.Tile.Plains\n                : HexplorationZone.Tile.Mountain;\n        }\n\n        GAME_BOARD.moveThroughPath(zonePath, playerAddress, gameID, tiles);\n    }\n}\n",
  "sourcePath": "/Users/maxmeier/Developer/Lucky Machines/hexploration/contracts/HexplorationStateUpdate.sol",
  "compiler": {
    "name": "solc",
    "version": "0.8.11+commit.d7f03943.Emscripten.clang"
  },
  "schemaVersion": "3.4.4",
  "updatedAt": "2022-05-23T16:07:28.946Z",
  "networkType": "ethereum",
  "devdoc": {
    "kind": "dev",
    "methods": {
      "getRoleAdmin(bytes32)": {
        "details": "Returns the admin role that controls `role`. See {grantRole} and {revokeRole}. To change a role's admin, use {_setRoleAdmin}."
      },
      "getRoleMember(bytes32,uint256)": {
        "details": "Returns one of the accounts that have `role`. `index` must be a value between 0 and {getRoleMemberCount}, non-inclusive. Role bearers are not sorted in any particular way, and their ordering may change at any point. WARNING: When using {getRoleMember} and {getRoleMemberCount}, make sure you perform all queries on the same block. See the following https://forum.openzeppelin.com/t/iterating-over-elements-on-enumerableset-in-openzeppelin-contracts/2296[forum post] for more information."
      },
      "getRoleMemberCount(bytes32)": {
        "details": "Returns the number of accounts that have `role`. Can be used together with {getRoleMember} to enumerate all bearers of a role."
      },
      "grantRole(bytes32,address)": {
        "details": "Grants `role` to `account`. If `account` had not been already granted `role`, emits a {RoleGranted} event. Requirements: - the caller must have ``role``'s admin role."
      },
      "hasRole(bytes32,address)": {
        "details": "Returns `true` if `account` has been granted `role`."
      },
      "renounceRole(bytes32,address)": {
        "details": "Revokes `role` from the calling account. Roles are often managed via {grantRole} and {revokeRole}: this function's purpose is to provide a mechanism for accounts to lose their privileges if they are compromised (such as when a trusted device is misplaced). If the calling account had been revoked `role`, emits a {RoleRevoked} event. Requirements: - the caller must be `account`."
      },
      "revokeRole(bytes32,address)": {
        "details": "Revokes `role` from `account`. If `account` had been granted `role`, emits a {RoleRevoked} event. Requirements: - the caller must have ``role``'s admin role."
      },
      "supportsInterface(bytes4)": {
        "details": "See {IERC165-supportsInterface}."
      }
    },
    "version": 1
  },
  "userdoc": {
    "kind": "user",
    "methods": {},
    "version": 1
  }
}