{
  "contractName": "HexplorationBoard",
  "abi": [
    {
      "inputs": [
        {
          "internalType": "address",
          "name": "adminAddress",
          "type": "address"
        },
        {
          "internalType": "uint256",
          "name": "gridWidth",
          "type": "uint256"
        },
        {
          "internalType": "uint256",
          "name": "gridHeight",
          "type": "uint256"
        },
        {
          "internalType": "address",
          "name": "zoneAddress",
          "type": "address"
        }
      ],
      "stateMutability": "nonpayable",
      "type": "constructor"
    },
    {
      "anonymous": false,
      "inputs": [
        {
          "indexed": true,
          "internalType": "bytes32",
          "name": "role",
          "type": "bytes32"
        },
        {
          "indexed": true,
          "internalType": "bytes32",
          "name": "previousAdminRole",
          "type": "bytes32"
        },
        {
          "indexed": true,
          "internalType": "bytes32",
          "name": "newAdminRole",
          "type": "bytes32"
        }
      ],
      "name": "RoleAdminChanged",
      "type": "event"
    },
    {
      "anonymous": false,
      "inputs": [
        {
          "indexed": true,
          "internalType": "bytes32",
          "name": "role",
          "type": "bytes32"
        },
        {
          "indexed": true,
          "internalType": "address",
          "name": "account",
          "type": "address"
        },
        {
          "indexed": true,
          "internalType": "address",
          "name": "sender",
          "type": "address"
        }
      ],
      "name": "RoleGranted",
      "type": "event"
    },
    {
      "anonymous": false,
      "inputs": [
        {
          "indexed": true,
          "internalType": "bytes32",
          "name": "role",
          "type": "bytes32"
        },
        {
          "indexed": true,
          "internalType": "address",
          "name": "account",
          "type": "address"
        },
        {
          "indexed": true,
          "internalType": "address",
          "name": "sender",
          "type": "address"
        }
      ],
      "name": "RoleRevoked",
      "type": "event"
    },
    {
      "inputs": [],
      "name": "DEFAULT_ADMIN_ROLE",
      "outputs": [
        {
          "internalType": "bytes32",
          "name": "",
          "type": "bytes32"
        }
      ],
      "stateMutability": "view",
      "type": "function"
    },
    {
      "inputs": [],
      "name": "FACTORY_ROLE",
      "outputs": [
        {
          "internalType": "bytes32",
          "name": "",
          "type": "bytes32"
        }
      ],
      "stateMutability": "view",
      "type": "function"
    },
    {
      "inputs": [],
      "name": "GAME_MASTER_ROLE",
      "outputs": [
        {
          "internalType": "bytes32",
          "name": "",
          "type": "bytes32"
        }
      ],
      "stateMutability": "view",
      "type": "function"
    },
    {
      "inputs": [],
      "name": "MAX_BATCH_SIZE",
      "outputs": [
        {
          "internalType": "uint256",
          "name": "",
          "type": "uint256"
        }
      ],
      "stateMutability": "view",
      "type": "function"
    },
    {
      "inputs": [],
      "name": "PLAY_ZONE_ROLE",
      "outputs": [
        {
          "internalType": "bytes32",
          "name": "",
          "type": "bytes32"
        }
      ],
      "stateMutability": "view",
      "type": "function"
    },
    {
      "inputs": [],
      "name": "VERIFIED_CONTROLLER_ROLE",
      "outputs": [
        {
          "internalType": "bytes32",
          "name": "",
          "type": "bytes32"
        }
      ],
      "stateMutability": "view",
      "type": "function"
    },
    {
      "inputs": [
        {
          "internalType": "uint256",
          "name": "transitID",
          "type": "uint256"
        }
      ],
      "name": "_progressTransit",
      "outputs": [],
      "stateMutability": "nonpayable",
      "type": "function"
    },
    {
      "inputs": [
        {
          "internalType": "address",
          "name": "factoryAddress",
          "type": "address"
        }
      ],
      "name": "addFactory",
      "outputs": [],
      "stateMutability": "nonpayable",
      "type": "function"
    },
    {
      "inputs": [
        {
          "internalType": "address",
          "name": "keeperAddress",
          "type": "address"
        }
      ],
      "name": "addKeeper",
      "outputs": [],
      "stateMutability": "nonpayable",
      "type": "function"
    },
    {
      "inputs": [
        {
          "internalType": "address",
          "name": "vcAddress",
          "type": "address"
        }
      ],
      "name": "addVerifiedController",
      "outputs": [],
      "stateMutability": "nonpayable",
      "type": "function"
    },
    {
      "inputs": [
        {
          "internalType": "uint256",
          "name": "gameID",
          "type": "uint256"
        },
        {
          "internalType": "string[2][]",
          "name": "connections",
          "type": "string[2][]"
        }
      ],
      "name": "addZoneConnections",
      "outputs": [],
      "stateMutability": "nonpayable",
      "type": "function"
    },
    {
      "inputs": [
        {
          "internalType": "address[]",
          "name": "playZoneAddresses",
          "type": "address[]"
        },
        {
          "internalType": "string[]",
          "name": "zoneAliases",
          "type": "string[]"
        },
        {
          "internalType": "uint256",
          "name": "gameID",
          "type": "uint256"
        }
      ],
      "name": "addZones",
      "outputs": [],
      "stateMutability": "nonpayable",
      "type": "function"
    },
    {
      "inputs": [],
      "name": "cleanQueue",
      "outputs": [],
      "stateMutability": "nonpayable",
      "type": "function"
    },
    {
      "inputs": [
        {
          "internalType": "address",
          "name": "_playerRegistry",
          "type": "address"
        },
        {
          "internalType": "address",
          "name": "_gameRegistry",
          "type": "address"
        }
      ],
      "name": "createGame",
      "outputs": [
        {
          "internalType": "uint256",
          "name": "gameID",
          "type": "uint256"
        }
      ],
      "stateMutability": "nonpayable",
      "type": "function"
    },
    {
      "inputs": [
        {
          "internalType": "address",
          "name": "_playerRegistry",
          "type": "address"
        },
        {
          "internalType": "address",
          "name": "_gameRegistry",
          "type": "address"
        },
        {
          "internalType": "address[]",
          "name": "playZoneAddresses",
          "type": "address[]"
        },
        {
          "internalType": "string[]",
          "name": "zoneAliases",
          "type": "string[]"
        }
      ],
      "name": "createGame",
      "outputs": [
        {
          "internalType": "uint256",
          "name": "gameID",
          "type": "uint256"
        }
      ],
      "stateMutability": "nonpayable",
      "type": "function"
    },
    {
      "inputs": [],
      "name": "createGrid",
      "outputs": [],
      "stateMutability": "nonpayable",
      "type": "function"
    },
    {
      "inputs": [
        {
          "internalType": "uint256",
          "name": "",
          "type": "uint256"
        },
        {
          "internalType": "uint256",
          "name": "",
          "type": "uint256"
        }
      ],
      "name": "currentPlayZone",
      "outputs": [
        {
          "internalType": "string",
          "name": "",
          "type": "string"
        }
      ],
      "stateMutability": "view",
      "type": "function"
    },
    {
      "inputs": [
        {
          "internalType": "uint256",
          "name": "",
          "type": "uint256"
        },
        {
          "internalType": "uint256",
          "name": "",
          "type": "uint256"
        }
      ],
      "name": "entryQueue",
      "outputs": [
        {
          "internalType": "uint256",
          "name": "",
          "type": "uint256"
        }
      ],
      "stateMutability": "view",
      "type": "function"
    },
    {
      "inputs": [
        {
          "internalType": "uint256",
          "name": "gameID",
          "type": "uint256"
        },
        {
          "internalType": "address",
          "name": "playerAddress",
          "type": "address"
        },
        {
          "internalType": "uint256",
          "name": "pathIndex",
          "type": "uint256"
        }
      ],
      "name": "exitToPath",
      "outputs": [
        {
          "internalType": "bool",
          "name": "exitSuccess",
          "type": "bool"
        }
      ],
      "stateMutability": "nonpayable",
      "type": "function"
    },
    {
      "inputs": [
        {
          "internalType": "uint256",
          "name": "",
          "type": "uint256"
        }
      ],
      "name": "gameState",
      "outputs": [
        {
          "internalType": "uint256",
          "name": "",
          "type": "uint256"
        }
      ],
      "stateMutability": "view",
      "type": "function"
    },
    {
      "inputs": [
        {
          "internalType": "uint256",
          "name": "gameID",
          "type": "uint256"
        },
        {
          "internalType": "string",
          "name": "_zoneAlias",
          "type": "string"
        }
      ],
      "name": "getInputs",
      "outputs": [
        {
          "internalType": "string[]",
          "name": "zoneInputs",
          "type": "string[]"
        }
      ],
      "stateMutability": "view",
      "type": "function"
    },
    {
      "inputs": [
        {
          "internalType": "uint256",
          "name": "gameID",
          "type": "uint256"
        },
        {
          "internalType": "string",
          "name": "_zoneAlias",
          "type": "string"
        }
      ],
      "name": "getOutputs",
      "outputs": [
        {
          "internalType": "string[]",
          "name": "zoneOutputs",
          "type": "string[]"
        }
      ],
      "stateMutability": "view",
      "type": "function"
    },
    {
      "inputs": [
        {
          "internalType": "uint256",
          "name": "gameID",
          "type": "uint256"
        }
      ],
      "name": "getOverflowQueue",
      "outputs": [
        {
          "internalType": "uint256[]",
          "name": "",
          "type": "uint256[]"
        }
      ],
      "stateMutability": "view",
      "type": "function"
    },
    {
      "inputs": [
        {
          "internalType": "uint256",
          "name": "gameID",
          "type": "uint256"
        }
      ],
      "name": "getPlayZones",
      "outputs": [
        {
          "internalType": "string[]",
          "name": "",
          "type": "string[]"
        }
      ],
      "stateMutability": "view",
      "type": "function"
    },
    {
      "inputs": [
        {
          "internalType": "bytes32",
          "name": "role",
          "type": "bytes32"
        }
      ],
      "name": "getRoleAdmin",
      "outputs": [
        {
          "internalType": "bytes32",
          "name": "",
          "type": "bytes32"
        }
      ],
      "stateMutability": "view",
      "type": "function"
    },
    {
      "inputs": [
        {
          "internalType": "bytes32",
          "name": "role",
          "type": "bytes32"
        },
        {
          "internalType": "uint256",
          "name": "index",
          "type": "uint256"
        }
      ],
      "name": "getRoleMember",
      "outputs": [
        {
          "internalType": "address",
          "name": "",
          "type": "address"
        }
      ],
      "stateMutability": "view",
      "type": "function"
    },
    {
      "inputs": [
        {
          "internalType": "bytes32",
          "name": "role",
          "type": "bytes32"
        }
      ],
      "name": "getRoleMemberCount",
      "outputs": [
        {
          "internalType": "uint256",
          "name": "",
          "type": "uint256"
        }
      ],
      "stateMutability": "view",
      "type": "function"
    },
    {
      "inputs": [],
      "name": "getZoneAliases",
      "outputs": [
        {
          "internalType": "string[]",
          "name": "",
          "type": "string[]"
        }
      ],
      "stateMutability": "view",
      "type": "function"
    },
    {
      "inputs": [
        {
          "internalType": "bytes32",
          "name": "role",
          "type": "bytes32"
        },
        {
          "internalType": "address",
          "name": "account",
          "type": "address"
        }
      ],
      "name": "grantRole",
      "outputs": [],
      "stateMutability": "nonpayable",
      "type": "function"
    },
    {
      "inputs": [],
      "name": "gridHeight",
      "outputs": [
        {
          "internalType": "uint256",
          "name": "",
          "type": "uint256"
        }
      ],
      "stateMutability": "view",
      "type": "function"
    },
    {
      "inputs": [],
      "name": "gridWidth",
      "outputs": [
        {
          "internalType": "uint256",
          "name": "",
          "type": "uint256"
        }
      ],
      "stateMutability": "view",
      "type": "function"
    },
    {
      "inputs": [
        {
          "internalType": "bytes32",
          "name": "role",
          "type": "bytes32"
        },
        {
          "internalType": "address",
          "name": "account",
          "type": "address"
        }
      ],
      "name": "hasRole",
      "outputs": [
        {
          "internalType": "bool",
          "name": "",
          "type": "bool"
        }
      ],
      "stateMutability": "view",
      "type": "function"
    },
    {
      "inputs": [
        {
          "internalType": "uint256",
          "name": "",
          "type": "uint256"
        }
      ],
      "name": "initialPlayZone",
      "outputs": [
        {
          "internalType": "string",
          "name": "",
          "type": "string"
        }
      ],
      "stateMutability": "view",
      "type": "function"
    },
    {
      "inputs": [
        {
          "internalType": "address",
          "name": "factoryAddress",
          "type": "address"
        }
      ],
      "name": "isFactory",
      "outputs": [
        {
          "internalType": "bool",
          "name": "factoryIsAuthorized",
          "type": "bool"
        }
      ],
      "stateMutability": "view",
      "type": "function"
    },
    {
      "inputs": [
        {
          "internalType": "uint256",
          "name": "",
          "type": "uint256"
        }
      ],
      "name": "lastEntryPlayerID",
      "outputs": [
        {
          "internalType": "uint256",
          "name": "",
          "type": "uint256"
        }
      ],
      "stateMutability": "view",
      "type": "function"
    },
    {
      "inputs": [],
      "name": "needsUpdate",
      "outputs": [
        {
          "internalType": "bool",
          "name": "doesNeedUpdate",
          "type": "bool"
        }
      ],
      "stateMutability": "view",
      "type": "function"
    },
    {
      "inputs": [
        {
          "internalType": "uint256",
          "name": "",
          "type": "uint256"
        },
        {
          "internalType": "string",
          "name": "",
          "type": "string"
        },
        {
          "internalType": "uint256",
          "name": "",
          "type": "uint256"
        }
      ],
      "name": "playZoneInputs",
      "outputs": [
        {
          "internalType": "string",
          "name": "",
          "type": "string"
        }
      ],
      "stateMutability": "view",
      "type": "function"
    },
    {
      "inputs": [
        {
          "internalType": "uint256",
          "name": "",
          "type": "uint256"
        },
        {
          "internalType": "string",
          "name": "",
          "type": "string"
        },
        {
          "internalType": "uint256",
          "name": "",
          "type": "uint256"
        }
      ],
      "name": "playZoneOutputs",
      "outputs": [
        {
          "internalType": "string",
          "name": "",
          "type": "string"
        }
      ],
      "stateMutability": "view",
      "type": "function"
    },
    {
      "inputs": [
        {
          "internalType": "uint256",
          "name": "",
          "type": "uint256"
        },
        {
          "internalType": "uint256",
          "name": "",
          "type": "uint256"
        }
      ],
      "name": "playZones",
      "outputs": [
        {
          "internalType": "string",
          "name": "",
          "type": "string"
        }
      ],
      "stateMutability": "view",
      "type": "function"
    },
    {
      "inputs": [
        {
          "internalType": "uint256",
          "name": "gameID",
          "type": "uint256"
        },
        {
          "internalType": "address",
          "name": "playerAddress",
          "type": "address"
        },
        {
          "internalType": "string",
          "name": "_zoneAlias",
          "type": "string"
        }
      ],
      "name": "playerEnteredZone",
      "outputs": [],
      "stateMutability": "nonpayable",
      "type": "function"
    },
    {
      "inputs": [
        {
          "internalType": "uint256",
          "name": "",
          "type": "uint256"
        }
      ],
      "name": "playerRegistry",
      "outputs": [
        {
          "internalType": "uint256",
          "name": "",
          "type": "uint256"
        }
      ],
      "stateMutability": "view",
      "type": "function"
    },
    {
      "inputs": [],
      "name": "prAddress",
      "outputs": [
        {
          "internalType": "address",
          "name": "",
          "type": "address"
        }
      ],
      "stateMutability": "view",
      "type": "function"
    },
    {
      "inputs": [
        {
          "internalType": "uint256",
          "name": "gameID",
          "type": "uint256"
        },
        {
          "internalType": "address[]",
          "name": "playerAddresses",
          "type": "address[]"
        },
        {
          "internalType": "uint256[]",
          "name": "pathIndices",
          "type": "uint256[]"
        },
        {
          "internalType": "uint256",
          "name": "transitID",
          "type": "uint256"
        }
      ],
      "name": "queueExitToPaths",
      "outputs": [],
      "stateMutability": "nonpayable",
      "type": "function"
    },
    {
      "inputs": [
        {
          "internalType": "uint256",
          "name": "gameID",
          "type": "uint256"
        },
        {
          "internalType": "string[]",
          "name": "inputAliases",
          "type": "string[]"
        },
        {
          "internalType": "uint256[]",
          "name": "inputs",
          "type": "uint256[]"
        },
        {
          "internalType": "string[]",
          "name": "outputAliases",
          "type": "string[]"
        },
        {
          "internalType": "uint256[]",
          "name": "outputs",
          "type": "uint256[]"
        }
      ],
      "name": "removeZoneConnections",
      "outputs": [],
      "stateMutability": "nonpayable",
      "type": "function"
    },
    {
      "inputs": [
        {
          "internalType": "bytes32",
          "name": "role",
          "type": "bytes32"
        },
        {
          "internalType": "address",
          "name": "account",
          "type": "address"
        }
      ],
      "name": "renounceRole",
      "outputs": [],
      "stateMutability": "nonpayable",
      "type": "function"
    },
    {
      "inputs": [
        {
          "internalType": "bytes32",
          "name": "role",
          "type": "bytes32"
        },
        {
          "internalType": "address",
          "name": "account",
          "type": "address"
        }
      ],
      "name": "revokeRole",
      "outputs": [],
      "stateMutability": "nonpayable",
      "type": "function"
    },
    {
      "inputs": [],
      "name": "runUpdate",
      "outputs": [],
      "stateMutability": "nonpayable",
      "type": "function"
    },
    {
      "inputs": [
        {
          "internalType": "string",
          "name": "initialZone",
          "type": "string"
        },
        {
          "internalType": "uint256",
          "name": "gameID",
          "type": "uint256"
        }
      ],
      "name": "setInitialPlayZone",
      "outputs": [],
      "stateMutability": "nonpayable",
      "type": "function"
    },
    {
      "inputs": [
        {
          "internalType": "uint256",
          "name": "gameID",
          "type": "uint256"
        }
      ],
      "name": "startGame",
      "outputs": [],
      "stateMutability": "nonpayable",
      "type": "function"
    },
    {
      "inputs": [
        {
          "internalType": "uint256",
          "name": "transitID",
          "type": "uint256"
        }
      ],
      "name": "startTransit",
      "outputs": [],
      "stateMutability": "nonpayable",
      "type": "function"
    },
    {
      "inputs": [
        {
          "internalType": "bytes4",
          "name": "interfaceId",
          "type": "bytes4"
        }
      ],
      "name": "supportsInterface",
      "outputs": [
        {
          "internalType": "bool",
          "name": "",
          "type": "bool"
        }
      ],
      "stateMutability": "view",
      "type": "function"
    },
    {
      "inputs": [],
      "name": "zoneAddress",
      "outputs": [
        {
          "internalType": "address",
          "name": "",
          "type": "address"
        }
      ],
      "stateMutability": "view",
      "type": "function"
    },
    {
      "inputs": [
        {
          "internalType": "uint256",
          "name": "",
          "type": "uint256"
        },
        {
          "internalType": "string",
          "name": "",
          "type": "string"
        }
      ],
      "name": "zoneAlias",
      "outputs": [
        {
          "internalType": "address",
          "name": "",
          "type": "address"
        }
      ],
      "stateMutability": "view",
      "type": "function"
    },
    {
      "inputs": [
        {
          "internalType": "uint256",
          "name": "",
          "type": "uint256"
        }
      ],
      "name": "zoneAliases",
      "outputs": [
        {
          "internalType": "string",
          "name": "",
          "type": "string"
        }
      ],
      "stateMutability": "view",
      "type": "function"
    },
    {
      "inputs": [
        {
          "internalType": "uint256",
          "name": "",
          "type": "uint256"
        },
        {
          "internalType": "string",
          "name": "",
          "type": "string"
        }
      ],
      "name": "zoneEnabled",
      "outputs": [
        {
          "internalType": "bool",
          "name": "",
          "type": "bool"
        }
      ],
      "stateMutability": "view",
      "type": "function"
    },
    {
      "inputs": [],
      "name": "hexZoneAddress",
      "outputs": [
        {
          "internalType": "address",
          "name": "",
          "type": "address"
        }
      ],
      "stateMutability": "view",
      "type": "function"
    },
    {
      "inputs": [
        {
          "internalType": "address",
          "name": "playerAddress",
          "type": "address"
        },
        {
          "internalType": "uint256",
          "name": "gameID",
          "type": "uint256"
        }
      ],
      "name": "registerPlayer",
      "outputs": [],
      "stateMutability": "nonpayable",
      "type": "function"
    },
    {
      "inputs": [
        {
          "internalType": "uint256",
          "name": "gameID",
          "type": "uint256"
        }
      ],
      "name": "lockRegistration",
      "outputs": [],
      "stateMutability": "nonpayable",
      "type": "function"
    },
    {
      "inputs": [
        {
          "internalType": "address",
          "name": "playerAddress",
          "type": "address"
        },
        {
          "internalType": "uint256",
          "name": "gameID",
          "type": "uint256"
        },
        {
          "internalType": "string",
          "name": "zone",
          "type": "string"
        }
      ],
      "name": "enterPlayer",
      "outputs": [],
      "stateMutability": "nonpayable",
      "type": "function"
    },
    {
      "inputs": [
        {
          "internalType": "address",
          "name": "playerAddress",
          "type": "address"
        },
        {
          "internalType": "uint256",
          "name": "gameID",
          "type": "uint256"
        },
        {
          "internalType": "string",
          "name": "zone",
          "type": "string"
        }
      ],
      "name": "exitPlayer",
      "outputs": [],
      "stateMutability": "nonpayable",
      "type": "function"
    },
    {
      "inputs": [
        {
          "internalType": "address",
          "name": "gameRegistryAddress",
          "type": "address"
        }
      ],
      "name": "requestNewGame",
      "outputs": [],
      "stateMutability": "nonpayable",
      "type": "function"
    },
    {
      "inputs": [
        {
          "internalType": "uint256",
          "name": "gs",
          "type": "uint256"
        },
        {
          "internalType": "uint256",
          "name": "gameID",
          "type": "uint256"
        }
      ],
      "name": "setGameState",
      "outputs": [],
      "stateMutability": "nonpayable",
      "type": "function"
    },
    {
      "inputs": [
        {
          "internalType": "uint256",
          "name": "randomness",
          "type": "uint256"
        }
      ],
      "name": "setRandomness",
      "outputs": [],
      "stateMutability": "nonpayable",
      "type": "function"
    },
    {
      "inputs": [
        {
          "internalType": "uint256",
          "name": "gameID",
          "type": "uint256"
        }
      ],
      "name": "start",
      "outputs": [],
      "stateMutability": "nonpayable",
      "type": "function"
    },
    {
      "inputs": [
        {
          "internalType": "string",
          "name": "zoneAlias",
          "type": "string"
        },
        {
          "internalType": "enum HexplorationZone.Tile",
          "name": "tile",
          "type": "uint8"
        },
        {
          "internalType": "uint256",
          "name": "gameID",
          "type": "uint256"
        }
      ],
      "name": "enableZone",
      "outputs": [],
      "stateMutability": "nonpayable",
      "type": "function"
    },
    {
      "inputs": [
        {
          "internalType": "string[]",
          "name": "zonePath",
          "type": "string[]"
        },
        {
          "internalType": "address",
          "name": "playerAddress",
          "type": "address"
        },
        {
          "internalType": "uint256",
          "name": "gameID",
          "type": "uint256"
        },
        {
          "internalType": "enum HexplorationZone.Tile[]",
          "name": "tiles",
          "type": "uint8[]"
        }
      ],
      "name": "moveThroughPath",
      "outputs": [],
      "stateMutability": "nonpayable",
      "type": "function"
    }
  ],
  "bytecode": "0x60806040523480156200001157600080fd5b5060405162004d4438038062004d448339810160408190526200003491620002a8565b83838383836200004f600082640100000000620000c9810204565b620000847f1d93c87416ca7b54f0fb8323167b72760e8e2ec93d48660953897a150f97a8b482640100000000620000c9810204565b50600e92909255600f5560108054600160a060020a03928316600160a060020a031991821617909155601380549490921693169290921790915550620002f392505050565b620000de8282640100000000620000e2810204565b5050565b620000fc828264010000000062002baa6200012982021704565b600082815260016020526040902062000124908264010000000062002c2e620001c582021704565b505050565b6200013e8282640100000000620001ee810204565b620000de57600082815260208181526040808320600160a060020a03851684529091529020805460ff191660011790556200018164010000000062000217810204565b600160a060020a031681600160a060020a0316837f2f8788117e7eff1d82e926ec794901d17c78024a50270940304540a733656f0d60405160405180910390a45050565b6000620001e583600160a060020a0384166401000000006200021b810204565b90505b92915050565b600091825260208281526040808420600160a060020a0393909316845291905290205460ff1690565b3390565b600062000232838364010000000062000273810204565b6200026a57508154600181810184556000848152602080822090930184905584548482528286019093526040902091909155620001e8565b506000620001e8565b60009081526001919091016020526040902054151590565b8051600160a060020a0381168114620002a357600080fd5b919050565b60008060008060808587031215620002bf57600080fd5b620002ca856200028b565b93506020850151925060408501519150620002e8606086016200028b565b905092959194509250565b614a4180620003036000396000f3fe608060405234801561001057600080fd5b50600436106103ea5760003560e060020a9004806391d148541161020e578063ca15c87311610129578063d75e7980116100bc578063ed3719a51161008b578063ed3719a5146108de578063f643b8fd1461091d578063f843070814610930578063fa9f343814610943578063fdd198c31461095657600080fd5b8063d75e798014610892578063d91413ba146108a5578063e5ed1d59146108b8578063eb33983d146108cb57600080fd5b8063d2d6756b116100f8578063d2d6756b1461082c578063d3fb72891461084c578063d4f5b1521461086c578063d547741f1461087f57600080fd5b8063ca15c873146107f4578063cd1ec7f214610807578063cfdbf2541461081c578063d1e18d261461082457600080fd5b8063a4f9c9df116101a1578063b2df0ca211610170578063b2df0ca2146104f9578063b40c89df146107bd578063babdeefa146107d0578063c06dea4e146107e357600080fd5b8063a4f9c9df14610762578063a6f979ff14610775578063aab2aeb814610788578063ad1def1e146107a857600080fd5b80639eb356cb116101dd5780639eb356cb146107215780639f6c4017146107345780639f82bcc014610747578063a217fddf1461075a57600080fd5b806391d14854146106d557806395805dad146106e857806398bd7572146106fb5780639aabe36d1461070e57600080fd5b806331e019f6116103095780634e0e1a3e1161029c57806372c6c6b61161026b57806372c6c6b61461068157806376a321c1146106945780637cc75d1c146106a757806384bf09b6146106ba5780639010d07c146106c257600080fd5b80634e0e1a3e1461062857806351709a731461064857806360c205001461065b5780636b6ec8691461066e57600080fd5b8063374f1d35116102d8578063374f1d35146105f157806338b145df146106045780633ca61a581461060d5780634032b72b1461061557600080fd5b806331e019f6146105b2578063346c9409146105c557806335e333e4146105cd57806336568abe146105de57600080fd5b8063194f2a36116103815780632967875611610350578063296787561461056657806329ce1ec5146105795780632c47669a1461058c5780632f2ff15d1461059f57600080fd5b8063194f2a36146104fb5780631c834a7f1461051b578063248a9ca31461053057806328d7e11a1461055357600080fd5b8063108c5e14116103bd578063108c5e1414610478578063153a75901461048157806317d7e833146104c657806319006018146104e657600080fd5b806301ffc9a7146103ef57806304a0fb17146104175780630b197f2e1461043a5780630f04ba6714610465575b600080fd5b6104026103fd366004613ae4565b610969565b60405190151581526020015b60405180910390f35b61042c6000805160206149cc83398151915281565b60405190815260200161040e565b60105461044d90600160a060020a031681565b604051600160a060020a03909116815260200161040e565b610402610473366004613b23565b6109ad565b61042c600f5481565b61044d61048f366004613c31565b60086020908152600092835260409092208151808301840180519281529084019290930191909120915254600160a060020a031681565b6104d96104d4366004613c78565b6109c7565b60405161040e9190613cf2565b6104f96104f4366004613e09565b610a80565b005b61050e610509366004613c31565b610bcc565b60405161040e9190613ec0565b61042c6000805160206149ec83398151915281565b61042c61053e366004613f21565b60009081526020819052604090206001015490565b6104f9610561366004613f3a565b610f0f565b6104f9610574366004613ff4565b610fac565b6104f9610587366004613b23565b610fcb565b6104f961059a366004614069565b610ff2565b6104f96105ad3660046140d6565b61103f565b6104f96105c036600461411a565b611069565b6104026111ff565b601354600160a060020a031661044d565b6104f96105ec3660046140d6565b611250565b6104d96105ff366004613f21565b6112db565b61042c600e5481565b61050e611306565b6104f9610623366004613b23565b6113df565b61042c610636366004613f21565b60046020526000908152604090205481565b6104d96106563660046141f3565b61140f565b6104f9610669366004613f21565b611463565b61050e61067c366004613c31565b6114ee565b6104f961068f366004613b23565b61181e565b6104f96106a2366004613c78565b61189d565b61042c6106b5366004613c78565b6118c7565b6104f96118f8565b61044d6106d0366004613c78565b611b98565b6104026106e33660046140d6565b611bb7565b6104f96106f6366004613f21565b611be0565b6104f9610709366004613f3a565b611c2e565b6104f961071c366004614232565b611c93565b61040261072f36600461425e565b611d26565b6104f9610742366004613f21565b612173565b6104f9610755366004614296565b61218b565b61042c600081565b6104f9610770366004613f21565b612247565b61042c6107833660046142db565b61225f565b61042c610796366004613f21565b600b6020526000908152604090205481565b61042c6000805160206149ac83398151915281565b6104d96107cb3660046141f3565b612344565b61050e6107de366004613f21565b61237b565b600254600160a060020a031661044d565b61042c610802366004613f21565b612467565b61042c60008051602061498c83398151915281565b61042c60c881565b6104f961247e565b61042c61083a366004613f21565b60056020526000908152604090205481565b61085f61085a366004613f21565b612584565b60405161040e9190614309565b6104f961087a366004613b23565b6125e6565b6104f961088d3660046140d6565b612609565b6104d96108a0366004613c78565b61262e565b61042c6108b336600461434d565b612652565b6104f96108c6366004613f21565b612776565b6104d96108d9366004613f21565b61278e565b6104026108ec366004613c31565b6014602090815260009283526040909220815180830184018051928152908401929093019190912091525460ff1681565b6104f961092b3660046143d6565b6127a7565b6104f961093e3660046144e7565b6129a8565b6104f961095136600461453e565b612ab9565b6104f9610964366004613f21565b612b8c565b6000600160e060020a031982167f5a05180f0000000000000000000000000000000000000000000000000000000014806109a757506109a782612c43565b92915050565b60006109a76000805160206149cc83398151915283611bb7565b600660205281600052604060002081815481106109e357600080fd5b906000526020600020016000915091505080546109ff90614581565b80601f0160208091040260200160405190810160405280929190818152602001828054610a2b90614581565b8015610a785780601f10610a4d57610100808354040283529160200191610a78565b820191906000526020600020905b815481529060010190602001808311610a5b57829003601f168201915b505050505081565b6000805160206149ac833981519152610a9881612caa565b8151845114610af15760405160e560020a62461bcd02815260206004820181905260248201527f696e70757473202f206f757470757473206c656e677468206d69736d6174636860448201526064015b60405180910390fd5b610afc868686612cb4565b610b4b5760405160e560020a62461bcd02815260206004820152600e60248201527f696e7075747320696e76616c69640000000000000000000000000000000000006044820152606401610ae8565b610b56868484612d57565b610ba55760405160e560020a62461bcd02815260206004820152600f60248201527f6f75747075747320696e76616c696400000000000000000000000000000000006044820152606401610ae8565b60005b8451811015610bc35780610bbb816145d8565b915050610ba8565b50505050505050565b60008281526009602052604080822090516060929190610bed9085906145f3565b9081526020016040518091039020805480602002602001604051908101604052809291908181526020016000905b82821015610cc7578382906000526020600020018054610c3a90614581565b80601f0160208091040260200160405190810160405280929190818152602001828054610c6690614581565b8015610cb35780601f10610c8857610100808354040283529160200191610cb3565b820191906000526020600020905b815481529060010190602001808311610c9657829003601f168201915b505050505081526020019060010190610c1b565b505060008080526009602052604051939450927fec8156718a8372b1db44bb411437d0870f3e3790d4a08526d024ce1b0b668f6b9250610d09915086906145f3565b9081526020016040518091039020805480602002602001604051908101604052809291908181526020016000905b82821015610de3578382906000526020600020018054610d5690614581565b80601f0160208091040260200160405190810160405280929190818152602001828054610d8290614581565b8015610dcf5780601f10610da457610100808354040283529160200191610dcf565b820191906000526020600020905b815481529060010190602001808311610db257829003601f168201915b505050505081526020019060010190610d37565b505050509050600082511115610f0357600081518351610e03919061460f565b67ffffffffffffffff811115610e1b57610e1b613b40565b604051908082528060200260200182016040528015610e4e57816020015b6060815260200190600190039081610e395790505b50905060005b8151811015610efc578251811015610ea257828181518110610e7857610e78614627565b6020026020010151828281518110610e9257610e92614627565b6020026020010181905250610ee6565b83835182610eb09190614640565b81518110610ec057610ec0614627565b6020026020010151828281518110610eda57610eda614627565b60200260200101819052505b8194508080610ef4906145d8565b915050610e54565b5050610f07565b8092505b505092915050565b6000805160206149ec833981519152610f2781612caa565b6013546040517f28d7e11a000000000000000000000000000000000000000000000000000000008152600160a060020a03909116906328d7e11a90610f7490879087908790600401614657565b600060405180830381600087803b158015610f8e57600080fd5b505af1158015610fa2573d6000803e3d6000fd5b5050505050505050565b60008051602061498c833981519152610fc481612caa565b5050505050565b6000610fd681612caa565b610fee6000805160206149cc83398151915283612df2565b5050565b6000805160206149ac83398151915261100a81612caa565b825184511461102e5760405160e560020a62461bcd028152600401610ae89061467f565b611039848484612dfc565b50505050565b60008281526020819052604090206001015461105a81612caa565b6110648383612f5b565b505050565b6000805160206149ec83398151915261108181612caa565b6013548551600160a060020a03909116906328d7e11a908690869089906000906110ad576110ad614627565b60200260200101516040518463ffffffff1660e060020a0281526004016110d693929190614657565b600060405180830381600087803b1580156110f057600080fd5b505af1158015611104573d6000803e3d6000fd5b50506013548751600160a060020a0390911692506398bd7572915086908690899061113190600190614640565b8151811061114157611141614627565b60200260200101516040518463ffffffff1660e060020a02815260040161116a93929190614657565b600060405180830381600087803b15801561118457600080fd5b505af1158015611198573d6000803e3d6000fd5b5050505060005b85518110156111f7576111e58682815181106111bd576111bd614627565b60200260200101518483815181106111d7576111d7614627565b6020026020010151866129a8565b806111ef816145d8565b91505061119f565b505050505050565b6000805b60035481101561124c576003818154811061122057611220614627565b906000526020600020015460001461123a57600191505090565b80611244816145d8565b915050611203565b5090565b600160a060020a03811633146112d15760405160e560020a62461bcd02815260206004820152602f60248201527f416363657373436f6e74726f6c3a2063616e206f6e6c792072656e6f756e636560448201527f20726f6c657320666f722073656c6600000000000000000000000000000000006064820152608401610ae8565b610fee8282612f7d565b601181815481106112eb57600080fd5b9060005260206000200160009150905080546109ff90614581565b60606011805480602002602001604051908101604052809291908181526020016000905b828210156113d657838290600052602060002001805461134990614581565b80601f016020809104026020016040519081016040528092919081815260200182805461137590614581565b80156113c25780601f10611397576101008083540402835291602001916113c2565b820191906000526020600020905b8154815290600101906020018083116113a557829003601f168201915b50505050508152602001906001019061132a565b50505050905090565b6000805160206149ac8339815191526113f781612caa565b610fee6000805160206149ec83398151915283612df2565b6009602090815260008481526040902083518085018301805192815290830192850192909220915280548290811061144657600080fd5b90600052602060002001600092509250505080546109ff90614581565b6000805160206149ec83398151915261147b81612caa565b6002546040517f60c2050000000000000000000000000000000000000000000000000000000000815260048101849052600160a060020a03909116906360c2050090602401600060405180830381600087803b1580156114da57600080fd5b505af11580156111f7573d6000803e3d6000fd5b6000828152600a60205260408082209051606092919061150f9085906145f3565b9081526020016040518091039020805480602002602001604051908101604052809291908181526020016000905b828210156115e957838290600052602060002001805461155c90614581565b80601f016020809104026020016040519081016040528092919081815260200182805461158890614581565b80156115d55780601f106115aa576101008083540402835291602001916115d5565b820191906000526020600020905b8154815290600101906020018083116115b857829003601f168201915b50505050508152602001906001019061153d565b50506000808052600a602052604051939450927f13da86008ba1c6922daee3e07db95305ef49ebced9f5467a0b8613fcc6b343e3925061162b915086906145f3565b9081526020016040518091039020805480602002602001604051908101604052809291908181526020016000905b8282101561170557838290600052602060002001805461167890614581565b80601f01602080910402602001604051908101604052809291908181526020018280546116a490614581565b80156116f15780601f106116c6576101008083540402835291602001916116f1565b820191906000526020600020905b8154815290600101906020018083116116d457829003601f168201915b505050505081526020019060010190611659565b505050509050600082511115610f0357600081518351611725919061460f565b67ffffffffffffffff81111561173d5761173d613b40565b60405190808252806020026020018201604052801561177057816020015b606081526020019060019003908161175b5790505b50905060005b8151811015610efc5782518110156117c45782818151811061179a5761179a614627565b60200260200101518282815181106117b4576117b4614627565b6020026020010181905250611808565b838351826117d29190614640565b815181106117e2576117e2614627565b60200260200101518282815181106117fc576117fc614627565b60200260200101819052505b8194508080611816906145d8565b915050611776565b6000805160206149ec83398151915261183681612caa565b81600160a060020a0316630a75806e6040518163ffffffff1660e060020a0281526004016020604051808303816000875af1158015611879573d6000803e3d6000fd5b505050506040513d601f19601f8201168201806040525081019061106491906146dc565b6000805160206149ec8339815191526118b581612caa565b50600090815260046020526040902055565b600d60205281600052604060002081815481106118e357600080fd5b90600052602060002001600091509150505481565b6119106000805160206149cc83398151915233611bb7565b8061192e575061192e6000805160206149ac83398151915233611bb7565b61194d5760405160e560020a62461bcd028152600401610ae8906146f5565b601154611b96576000600f54600e546119669190614752565b67ffffffffffffffff81111561197e5761197e613b40565b6040519080825280602002602001820160405280156119a7578160200160208202803683370190505b50600f54600e546040517f9f6b56490000000000000000000000000000000000000000000000000000000081526004810192909252602482015290915073__XYCoordinates_________________________90639f6b564990604401600060405180830381865af4158015611a20573d6000803e3d6000fd5b505050506040513d6000823e601f3d908101601f19168201604052611a489190810190614771565b8051611a5c9160119160209091019061399f565b5060005b8151811015611ab6576010548251600160a060020a0390911690839083908110611a8c57611a8c614627565b600160a060020a039092166020928302919091019091015280611aae816145d8565b915050611a60565b50611b94816011805480602002602001604051908101604052809291908181526020016000905b82821015611b89578382906000526020600020018054611afc90614581565b80601f0160208091040260200160405190810160405280929190818152602001828054611b2890614581565b8015611b755780601f10611b4a57610100808354040283529160200191611b75565b820191906000526020600020905b815481529060010190602001808311611b5857829003601f168201915b505050505081526020019060010190611add565b505050506000612dfc565b505b565b6000828152600160205260408120611bb09083612f9f565b9392505050565b600091825260208281526040808420600160a060020a0393909316845291905290205460ff1690565b6000805160206149ec833981519152611bf881612caa565b50600380546001810182556000919091527fc2575a0e9e593c00f959f8c92f12db2869c3395a3b0502d05e2516446f71f85b0155565b6000805160206149ec833981519152611c4681612caa565b6013546040517f98bd7572000000000000000000000000000000000000000000000000000000008152600160a060020a03909116906398bd757290610f7490879087908790600401614657565b6000805160206149ec833981519152611cab81612caa565b6002546040517f9aabe36d000000000000000000000000000000000000000000000000000000008152600160a060020a0385811660048301526024820185905290911690639aabe36d90604401600060405180830381600087803b158015611d1257600080fd5b505af1158015610bc3573d6000803e3d6000fd5b6002546040517fbca7caa000000000000000000000000000000000000000000000000000000000815260048101859052600160a060020a038481166024830152600092839291169063bca7caa090604401602060405180830381865afa158015611d94573d6000803e3d6000fd5b505050506040513d601f19601f82011682018060405250810190611db891906146dc565b6000868152600c60209081526040808320848452909152812080549293509091611de190614581565b80601f0160208091040260200160405190810160405280929190818152602001828054611e0d90614581565b8015611e5a5780601f10611e2f57610100808354040283529160200191611e5a565b820191906000526020600020905b815481529060010190602001808311611e3d57829003601f168201915b505050505090506000611e6d87836114ee565b805190915080611ec25760405160e560020a62461bcd02815260206004820152601760248201527f4e6f206578697420706174687320617661696c61626c650000000000000000006044820152606401610ae8565b60008881526008602052604080822090519196508691611ee39086906145f3565b90815260405190819003602001902054600160a060020a031690506000828811611f0d5787611f10565b60005b90506000848281518110611f2657611f26614627565b602002602001015190506000600860008d815260200190815260200160002082604051611f5391906145f3565b908152602001604051809103902060009054906101000a9004600160a060020a0316905083600160a060020a0316637caf12808c8e8a6040518463ffffffff1660e060020a028152600401611faa93929190614657565b602060405180830381865afa158015611fc7573d6000803e3d6000fd5b505050506040513d601f19601f82011682018060405250810190611feb919061485b565b8015612066575080600160a060020a031663e15b3ad08c8e856040518463ffffffff1660e060020a02815260040161202593929190614657565b602060405180830381865afa158015612042573d6000803e3d6000fd5b505050506040513d601f19601f82011682018060405250810190612066919061485b565b156121645783600160a060020a03166328d7e11a8c8e8a6040518463ffffffff1660e060020a02815260040161209e93929190614657565b600060405180830381600087803b1580156120b857600080fd5b505af11580156120cc573d6000803e3d6000fd5b5050505080600160a060020a03166398bd75728c8e856040518463ffffffff1660e060020a02815260040161210393929190614657565b600060405180830381600087803b15801561211d57600080fd5b505af1158015612131573d6000803e3d6000fd5b50505060008d8152600c602090815260408083208c84528252909120845161215e935090918501906139f8565b50600198505b50505050505050509392505050565b6000805160206149ec833981519152610fee81612caa565b6000805160206149ec8339815191526121a381612caa565b600082815260046020526040902054156122285760405160e560020a62461bcd02815260206004820152602c60248201527f63616e27742073657420696e697469616c207a6f6e652c2067616d6520616c7260448201527f65616479207374617274656400000000000000000000000000000000000000006064820152608401610ae8565b60008281526007602090815260409091208451611039928601906139f8565b60008051602061498c833981519152610fee81612caa565b60006122796000805160206149cc83398151915233611bb7565b8061229757506122976000805160206149ac83398151915233611bb7565b6122b65760405160e560020a62461bcd028152600401610ae8906146f5565b82600260006101000a815481600160a060020a030219169083600160a060020a0316021790555081600160a060020a0316630a75806e6040518163ffffffff1660e060020a0281526004016020604051808303816000875af1158015612320573d6000803e3d6000fd5b505050506040513d601f19601f82011682018060405250810190611bb091906146dc565b600a602090815260008481526040902083518085018301805192815290830192850192909220915280548290811061144657600080fd5b606060066000838152602001908152602001600020805480602002602001604051908101604052809291908181526020016000905b8282101561245c5783829060005260206000200180546123cf90614581565b80601f01602080910402602001604051908101604052809291908181526020018280546123fb90614581565b80156124485780601f1061241d57610100808354040283529160200191612448565b820191906000526020600020905b81548152906001019060200180831161242b57829003601f168201915b5050505050815260200190600101906123b0565b505050509050919050565b60008181526001602052604081206109a790612fab565b6000805160206149ec83398151915261249681612caa565b60008060005b60035481101561250557600381815481106124b9576124b9614627565b90600052602060002001546000146124f357600381815481106124de576124de614627565b90600052602060002001549250809150612505565b806124fd816145d8565b91505061249c565b506000828152600460205260409020546125275761252282612fb5565b612547565b600082815260046020526040902054600114156125475761254782613040565b600082815260046020526040902054600110156110645760006003828154811061257357612573614627565b600091825260209091200155505050565b6000818152600d60209081526040918290208054835181840281018401909452808452606093928301828280156125da57602002820191906000526020600020905b8154815260200190600101908083116125c6575b50505050509050919050565b60006125f181612caa565b610fee6000805160206149ec8339815191528361103f565b60008281526020819052604090206001015461262481612caa565b6110648383612f7d565b600c602090815260009283526040808420909152908252902080546109ff90614581565b600061266c6000805160206149cc83398151915233611bb7565b8061268a575061268a6000805160206149ac83398151915233611bb7565b6126a95760405160e560020a62461bcd028152600401610ae8906146f5565b81518351146126cd5760405160e560020a62461bcd028152600401610ae89061467f565b8251156126df576126df838383612dfc565b84600260006101000a815481600160a060020a030219169083600160a060020a0316021790555083600160a060020a0316630a75806e6040518163ffffffff1660e060020a0281526004016020604051808303816000875af1158015612749573d6000803e3d6000fd5b505050506040513d601f19601f8201168201806040525081019061276d91906146dc565b95945050505050565b6000805160206149ac833981519152611bf881612caa565b600760205260009081526040902080546109ff90614581565b6000805160206149ac8339815191526127bf81612caa565b6127c983836133f9565b6128185760405160e560020a62461bcd02815260206004820152601a60248201527f6e6f7420616c6c207a6f6e6520696e64656365732076616c69640000000000006044820152606401610ae8565b60005b8251811015611039576000848152600a60205260409020835184908390811061284657612846614627565b602002602001015160006002811061286057612860614627565b602002015160405161287291906145f3565b908152602001604051809103902083828151811061289257612892614627565b60200260200101516001600281106128ac576128ac614627565b60209081029190910151825460018101845560009384529282902081516128dc94919091019291909101906139f8565b50600084815260096020526040902083518490839081106128ff576128ff614627565b602002602001015160016002811061291957612919614627565b602002015160405161292b91906145f3565b908152602001604051809103902083828151811061294b5761294b614627565b602002602001015160006002811061296557612965614627565b602090810291909101518254600181018455600093845292829020815161299594919091019291909101906139f8565b50806129a0816145d8565b91505061281b565b6000805160206149ec8339815191526129c081612caa565b6000828152601460205260409081902090516129dd9086906145f3565b9081526040519081900360200190205460ff16611039576013546040517fd4939609000000000000000000000000000000000000000000000000000000008152600160a060020a039091169063d493960990612a419086908690899060040161487d565b600060405180830381600087803b158015612a5b57600080fd5b505af1158015612a6f573d6000803e3d6000fd5b50505060008381526014602052604090819020905160019250612a939087906145f3565b908152604051908190036020019020805491151560ff1990921691909117905550505050565b60008051602061498c833981519152612ad181612caa565b6002546040517fbca7caa000000000000000000000000000000000000000000000000000000000815260048101869052600160a060020a038581166024830152600092169063bca7caa090604401602060405180830381865afa158015612b3c573d6000803e3d6000fd5b505050506040513d601f19601f82011682018060405250810190612b6091906146dc565b6000868152600c60209081526040808320848452825290912085519293506111f79290918601906139f8565b6000805160206149ec833981519152612ba481612caa565b50601255565b612bb48282611bb7565b610fee57600082815260208181526040808320600160a060020a03851684529091529020805460ff19166001179055612bea3390565b600160a060020a031681600160a060020a0316837f2f8788117e7eff1d82e926ec794901d17c78024a50270940304540a733656f0d60405160405180910390a45050565b6000611bb083600160a060020a038416613508565b6000600160e060020a031982167f7965db0b0000000000000000000000000000000000000000000000000000000014806109a757507f01ffc9a700000000000000000000000000000000000000000000000000000000600160e060020a03198316146109a7565b611b948133613557565b600160005b8251811015612d4f57828181518110612cd457612cd4614627565b60200260200101516001612ce8919061460f565b60008681526009602052604090208551869084908110612d0a57612d0a614627565b6020026020010151604051612d1f91906145f3565b9081526040519081900360200190205410612d3d5760009150612d4f565b80612d47816145d8565b915050612cb9565b509392505050565b600160005b8251811015612d4f57828181518110612d7757612d77614627565b60200260200101516001612d8b919061460f565b6000868152600a602052604090208551869084908110612dad57612dad614627565b6020026020010151604051612dc291906145f3565b9081526040519081900360200190205410612de05760009150612d4f565b80612dea816145d8565b915050612d5c565b610fee8282612f5b565b60005b83518110156110395760008281526006602052604090208351849083908110612e2a57612e2a614627565b60209081029190910181015182546001810184556000938452928290208151612e5c94919091019291909101906139f8565b50838181518110612e6f57612e6f614627565b602002602001015160086000848152602001908152602001600020848381518110612e9c57612e9c614627565b6020026020010151604051612eb191906145f3565b908152602001604051809103902060006101000a815481600160a060020a030219169083600160a060020a03160217905550612f1460008051602061498c833981519152858381518110612f0757612f07614627565b6020026020010151611bb7565b612f4957612f4960008051602061498c833981519152858381518110612f3c57612f3c614627565b6020026020010151612df2565b80612f53816145d8565b915050612dff565b612f658282612baa565b60008281526001602052604090206110649082612c2e565b612f8782826135be565b60008281526001602052604090206110649082613623565b6000611bb08383613638565b60006109a7825490565b6002546040517f60c2050000000000000000000000000000000000000000000000000000000000815260048101839052600160a060020a03909116906360c2050090602401600060405180830381600087803b15801561301457600080fd5b505af1158015613028573d6000803e3d6000fd5b50505060009182525060046020526040902060019055565b6000818152600760205260408120805461305990614581565b1515905061308f576000828152600660205260408120805490919061308057613080614627565b9060005260206000200161309e565b60008281526007602052604090205b80546130a990614581565b80601f01602080910402602001604051908101604052809291908181526020018280546130d590614581565b80156131225780601f106130f757610100808354040283529160200191613122565b820191906000526020600020905b81548152906001019060200180831161310557829003601f168201915b505050505090506000600860008481526020019081526020016000208260405161314c91906145f3565b90815260405190819003602001902054600160a060020a031690508060005b6002546040517fb77ff41100000000000000000000000000000000000000000000000000000000815260048101879052600160a060020a039091169063b77ff41190602401602060405180830381865afa1580156131cd573d6000803e3d6000fd5b505050506040513d601f19601f820116820180604052508101906131f191906146dc565b8110156133e157600061320582600161460f565b6002546040517ff50432540000000000000000000000000000000000000000000000000000000081526004810189905260248101839052919250600091600160a060020a039091169063f504325490604401602060405180830381865afa158015613274573d6000803e3d6000fd5b505050506040513d601f19601f8201168201806040525081019061329891906148bd565b6040517fe15b3ad0000000000000000000000000000000000000000000000000000000008152909150600160a060020a0385169063e15b3ad0906132e49084908b908b90600401614657565b602060405180830381865afa158015613301573d6000803e3d6000fd5b505050506040513d601f19601f82011682018060405250810190613325919061485b565b156133aa576040517f98bd7572000000000000000000000000000000000000000000000000000000008152600160a060020a038516906398bd7572906133739084908b908b90600401614657565b600060405180830381600087803b15801561338d57600080fd5b505af11580156133a1573d6000803e3d6000fd5b505050506133cc565b6000878152600d60209081526040822080546001810182559083529120018290555b505080806133d9906145d8565b91505061316b565b50505060009182525060046020526040902060029055565b6000805b825181101561350157600084815260086020526040812084516001945085908490811061342c5761342c614627565b602002602001015160006002811061344657613446614627565b602002015160405161345891906145f3565b90815260405190819003602001902054600160a060020a031614806134e157506000848152600860205260408120845185908490811061349a5761349a614627565b60200260200101516001600281106134b4576134b4614627565b60200201516040516134c691906145f3565b90815260405190819003602001902054600160a060020a0316145b156134ef5760009150613501565b806134f9816145d8565b9150506133fd565b5092915050565b600081815260018301602052604081205461354f575081546001818101845560008481526020808220909301849055845484825282860190935260409020919091556109a7565b5060006109a7565b6135618282611bb7565b610fee5761357981600160a060020a03166014613662565b613584836020613662565b6040516020016135959291906148da565b60408051601f198184030181529082905260e560020a62461bcd028252610ae891600401613cf2565b6135c88282611bb7565b15610fee57600082815260208181526040808320600160a060020a0385168085529252808320805460ff1916905551339285917ff6391f5c32d9c69d2a47ea670b442974b53935d1edc7fd64eb21e047a839171b9190a45050565b6000611bb083600160a060020a0384166138ac565b600082600001828154811061364f5761364f614627565b9060005260206000200154905092915050565b60606000613671836002614752565b61367c90600261460f565b67ffffffffffffffff81111561369457613694613b40565b6040519080825280601f01601f1916602001820160405280156136be576020820181803683370190505b5090507f3000000000000000000000000000000000000000000000000000000000000000816000815181106136f5576136f5614627565b60200101907effffffffffffffffffffffffffffffffffffffffffffffffffffffffffffff1916908160001a9053507f78000000000000000000000000000000000000000000000000000000000000008160018151811061375857613758614627565b60200101907effffffffffffffffffffffffffffffffffffffffffffffffffffffffffffff1916908160001a9053506000613794846002614752565b61379f90600161460f565b90505b600181111561385a577f303132333435363738396162636465660000000000000000000000000000000085600f16601081106137e0576137e0614627565b1a7f01000000000000000000000000000000000000000000000000000000000000000282828151811061381557613815614627565b60200101907effffffffffffffffffffffffffffffffffffffffffffffffffffffffffffff1916908160001a9053506010909404936138538161495b565b90506137a2565b508315611bb05760405160e560020a62461bcd02815260206004820181905260248201527f537472696e67733a20686578206c656e67746820696e73756666696369656e746044820152606401610ae8565b600081815260018301602052604081205480156139955760006138d0600183614640565b85549091506000906138e490600190614640565b905081811461394957600086600001828154811061390457613904614627565b906000526020600020015490508087600001848154811061392757613927614627565b6000918252602080832090910192909255918252600188019052604090208390555b855486908061395a5761395a614972565b6001900381819060005260206000200160009055905585600101600086815260200190815260200160002060009055600193505050506109a7565b60009150506109a7565b8280548282559060005260206000209081019282156139ec579160200282015b828111156139ec57825180516139dc9184916020909101906139f8565b50916020019190600101906139bf565b5061124c929150613a78565b828054613a0490614581565b90600052602060002090601f016020900481019282613a265760008555613a6c565b82601f10613a3f57805160ff1916838001178555613a6c565b82800160010185558215613a6c579182015b82811115613a6c578251825591602001919060010190613a51565b5061124c929150613a95565b8082111561124c576000613a8c8282613aaa565b50600101613a78565b5b8082111561124c5760008155600101613a96565b508054613ab690614581565b6000825580601f10613ac6575050565b601f016020900490600052602060002090810190611b949190613a95565b600060208284031215613af657600080fd5b8135600160e060020a031981168114611bb057600080fd5b600160a060020a0381168114611b9457600080fd5b600060208284031215613b3557600080fd5b8135611bb081613b0e565b60e060020a634e487b7102600052604160045260246000fd5b6040805190810167ffffffffffffffff81118282101715613b7c57613b7c613b40565b60405290565b604051601f8201601f1916810167ffffffffffffffff81118282101715613bab57613bab613b40565b604052919050565b600067ffffffffffffffff821115613bcd57613bcd613b40565b50601f01601f191660200190565b600082601f830112613bec57600080fd5b8135613bff613bfa82613bb3565b613b82565b818152846020838601011115613c1457600080fd5b816020850160208301376000918101602001919091529392505050565b60008060408385031215613c4457600080fd5b82359150602083013567ffffffffffffffff811115613c6257600080fd5b613c6e85828601613bdb565b9150509250929050565b60008060408385031215613c8b57600080fd5b50508035926020909101359150565b60005b83811015613cb5578181015183820152602001613c9d565b838111156110395750506000910152565b60008151808452613cde816020860160208601613c9a565b601f01601f19169290920160200192915050565b602081526000611bb06020830184613cc6565b600067ffffffffffffffff821115613d1f57613d1f613b40565b5060209081020190565b600082601f830112613d3a57600080fd5b81356020613d4a613bfa83613d05565b82815291810284018101918181019086841115613d6657600080fd5b8286015b84811015613da657803567ffffffffffffffff811115613d8a5760008081fd5b613d988986838b0101613bdb565b845250918301918301613d6a565b509695505050505050565b600082601f830112613dc257600080fd5b81356020613dd2613bfa83613d05565b82815291810284018101918181019086841115613dee57600080fd5b8286015b84811015613da65780358352918301918301613df2565b600080600080600060a08688031215613e2157600080fd5b85359450602086013567ffffffffffffffff80821115613e4057600080fd5b613e4c89838a01613d29565b95506040880135915080821115613e6257600080fd5b613e6e89838a01613db1565b94506060880135915080821115613e8457600080fd5b613e9089838a01613d29565b93506080880135915080821115613ea657600080fd5b50613eb388828901613db1565b9150509295509295909350565b600060208083018184528085518083526040860191506040848202870101925083870160005b82811015613f1457603f19888603018452613f02858351613cc6565b94509285019290850190600101613ee6565b5092979650505050505050565b600060208284031215613f3357600080fd5b5035919050565b600080600060608486031215613f4f57600080fd5b8335613f5a81613b0e565b925060208401359150604084013567ffffffffffffffff811115613f7d57600080fd5b613f8986828701613bdb565b9150509250925092565b600082601f830112613fa457600080fd5b81356020613fb4613bfa83613d05565b82815291810284018101918181019086841115613fd057600080fd5b8286015b84811015613da6578035613fe781613b0e565b8352918301918301613fd4565b6000806000806080858703121561400a57600080fd5b84359350602085013567ffffffffffffffff8082111561402957600080fd5b61403588838901613f93565b9450604087013591508082111561404b57600080fd5b5061405887828801613db1565b949793965093946060013593505050565b60008060006060848603121561407e57600080fd5b833567ffffffffffffffff8082111561409657600080fd5b6140a287838801613f93565b945060208601359150808211156140b857600080fd5b506140c586828701613d29565b925050604084013590509250925092565b600080604083850312156140e957600080fd5b8235915060208301356140fb81613b0e565b809150509250929050565b8035600c811061411557600080fd5b919050565b6000806000806080858703121561413057600080fd5b843567ffffffffffffffff8082111561414857600080fd5b61415488838901613d29565b9550602091508187013561416781613b0e565b94506040870135935060608701358181111561418257600080fd5b87019050601f8101881361419557600080fd5b80356141a3613bfa82613d05565b8181529083028201830190838101908a8311156141bf57600080fd5b928401925b828410156141e4576141d584614106565b825292840192908401906141c4565b979a9699509497505050505050565b60008060006060848603121561420857600080fd5b83359250602084013567ffffffffffffffff81111561422657600080fd5b6140c586828701613bdb565b6000806040838503121561424557600080fd5b823561425081613b0e565b946020939093013593505050565b60008060006060848603121561427357600080fd5b83359250602084013561428581613b0e565b929592945050506040919091013590565b600080604083850312156142a957600080fd5b823567ffffffffffffffff8111156142c057600080fd5b6142cc85828601613bdb565b95602094909401359450505050565b600080604083850312156142ee57600080fd5b82356142f981613b0e565b915060208301356140fb81613b0e565b6020808252825182820181905260009190848201906040850190845b8181101561434157835183529284019291840191600101614325565b50909695505050505050565b6000806000806080858703121561436357600080fd5b843561436e81613b0e565b9350602085013561437e81613b0e565b9250604085013567ffffffffffffffff8082111561439b57600080fd5b6143a788838901613f93565b935060608701359150808211156143bd57600080fd5b506143ca87828801613d29565b91505092959194509250565b600080604083850312156143e957600080fd5b8235915060208084013567ffffffffffffffff8082111561440957600080fd5b818601915086601f83011261441d57600080fd5b813561442b613bfa82613d05565b8181529084028301840190848101908983111561444757600080fd5b8585015b838110156144d657848135111561446157600080fd5b803586018b603f82011261447457600080fd5b61447c613b59565b808d60608401111561448d57600080fd5b8983015b606084018110156144c65788813511156144aa57600080fd5b6144b98f8c8335870101613bdb565b8352918a01918a01614491565b508552505091860191860161444b565b508096505050505050509250929050565b6000806000606084860312156144fc57600080fd5b833567ffffffffffffffff81111561451357600080fd5b61451f86828701613bdb565b93505061452e60208501614106565b9150604084013590509250925092565b60008060006060848603121561455357600080fd5b83359250602084013561456581613b0e565b9150604084013567ffffffffffffffff811115613f7d57600080fd5b60028104600182168061459557607f821691505b602082108114156145b95760e060020a634e487b7102600052602260045260246000fd5b50919050565b60e060020a634e487b7102600052601160045260246000fd5b60006000198214156145ec576145ec6145bf565b5060010190565b60008251614605818460208701613c9a565b9190910192915050565b60008219821115614622576146226145bf565b500190565b60e060020a634e487b7102600052603260045260246000fd5b600082821015614652576146526145bf565b500390565b600160a060020a038416815282602082015260606040820152600061276d6060830184613cc6565b60208082526025908201527f616464726573736573202620616c696173657320646966666572656e74206c6560408201527f6e67746873000000000000000000000000000000000000000000000000000000606082015260800190565b6000602082840312156146ee57600080fd5b5051919050565b60208082526024908201527f47616d65204d6173746572206f7220466163746f727920726f6c65207265717560408201527f6972656400000000000000000000000000000000000000000000000000000000606082015260800190565b600081600019048311821515161561476c5761476c6145bf565b500290565b6000602080838503121561478457600080fd5b825167ffffffffffffffff8082111561479c57600080fd5b818501915085601f8301126147b057600080fd5b81516147be613bfa82613d05565b818152908402830184019084810190888311156147da57600080fd5b8585015b8381101561484e578051858111156147f65760008081fd5b8601603f81018b136148085760008081fd5b87810151604061481a613bfa83613bb3565b8281528d8284860101111561482f5760008081fd5b61483e838c8301848701613c9a565b86525050509186019186016147de565b5098975050505050505050565b60006020828403121561486d57600080fd5b81518015158114611bb057600080fd5b6000600c85106148a05760e060020a634e487b7102600052602160045260246000fd5b8482528360208301526060604083015261276d6060830184613cc6565b6000602082840312156148cf57600080fd5b8151611bb081613b0e565b7f416363657373436f6e74726f6c3a206163636f756e7420000000000000000000815260008351614912816017850160208801613c9a565b7f206973206d697373696e6720726f6c6520000000000000000000000000000000601791840191820152835161494f816028840160208801613c9a565b01602801949350505050565b60008161496a5761496a6145bf565b506000190190565b60e060020a634e487b7102600052603160045260246000fdfe72b06b67826def9fabb513b23f7e5eb74f7ece26d25dad4006546ecf4a13763d1d93c87416ca7b54f0fb8323167b72760e8e2ec93d48660953897a150f97a8b4dfbefbf47cfe66b701d8cfdbce1de81c821590819cb07e71cb01b6602fb0ee2780e2196015fc06a9d891759f8e4f51eb314ef5e9ea068528a8ed0063b87759f0a264697066735822122007cf835c3bbd9525eb1e9a83b0f0d08ca0e51510db8613e2bd7822ec820a28b864736f6c634300080b0033",
  "immutableReferences": {},
  "source": "// SPDX-License-Identifier: GPL-3.0\npragma solidity >=0.7.0 <0.9.0;\n\nimport \"@luckymachines/game-core/contracts/src/v0.0/custom_boards/HexGrid.sol\";\nimport \"./HexplorationZone.sol\";\n\ncontract HexplorationBoard is HexGrid {\n    // This role is a hybrid controller, assumes on chain verification of moves before submission\n\n    uint256 private _randomness;\n\n    HexplorationZone internal HEX_ZONE;\n    // game ID => zone alias returns bool\n    mapping(uint256 => mapping(string => bool)) public zoneEnabled;\n\n    constructor(\n        address adminAddress,\n        uint256 gridWidth,\n        uint256 gridHeight,\n        address zoneAddress\n    ) HexGrid(adminAddress, gridWidth, gridHeight, zoneAddress) {\n        HEX_ZONE = HexplorationZone(zoneAddress);\n    }\n\n    function hexZoneAddress() public view returns (address) {\n        return address(HEX_ZONE);\n    }\n\n    // VERIFIED CONTROLLER functions\n    // We can assume these have been pre-verified\n\n    function registerPlayer(address playerAddress, uint256 gameID)\n        public\n        onlyRole(VERIFIED_CONTROLLER_ROLE)\n    {\n        PLAYER_REGISTRY.registerPlayer(playerAddress, gameID);\n    }\n\n    function lockRegistration(uint256 gameID)\n        public\n        onlyRole(VERIFIED_CONTROLLER_ROLE)\n    {\n        PLAYER_REGISTRY.lockRegistration(gameID);\n    }\n\n    function enterPlayer(\n        address playerAddress,\n        uint256 gameID,\n        string memory zone\n    ) external onlyRole(VERIFIED_CONTROLLER_ROLE) {\n        HEX_ZONE.enterPlayer(playerAddress, gameID, zone);\n    }\n\n    function exitPlayer(\n        address playerAddress,\n        uint256 gameID,\n        string memory zone\n    ) external onlyRole(VERIFIED_CONTROLLER_ROLE) {\n        HEX_ZONE.exitPlayer(playerAddress, gameID, zone);\n    }\n\n    function requestNewGame(address gameRegistryAddress)\n        external\n        onlyRole(VERIFIED_CONTROLLER_ROLE)\n    {\n        GameRegistry(gameRegistryAddress).registerGame();\n    }\n\n    function setGameState(uint256 gs, uint256 gameID)\n        external\n        onlyRole(VERIFIED_CONTROLLER_ROLE)\n    {\n        // 0 start\n        // 1 inititalizing\n        // 2 initialized\n        gameState[gameID] = gs;\n    }\n\n    function setRandomness(uint256 randomness)\n        external\n        onlyRole(VERIFIED_CONTROLLER_ROLE)\n    {\n        _randomness = randomness;\n    }\n\n    function start(uint256 gameID) public onlyRole(VERIFIED_CONTROLLER_ROLE) {\n        _gamesNeedUpdates.push(gameID);\n    }\n\n    function enableZone(\n        string memory zoneAlias,\n        HexplorationZone.Tile tile,\n        uint256 gameID\n    ) public onlyRole(VERIFIED_CONTROLLER_ROLE) {\n        if (!zoneEnabled[gameID][zoneAlias]) {\n            HEX_ZONE.setTile(tile, gameID, zoneAlias);\n            zoneEnabled[gameID][zoneAlias] = true;\n        }\n    }\n\n    // pass path and what tiles should be\n    // pass current zone as first argument\n    function moveThroughPath(\n        string[] memory zonePath,\n        address playerAddress,\n        uint256 gameID,\n        HexplorationZone.Tile[] memory tiles\n    ) external onlyRole(VERIFIED_CONTROLLER_ROLE) {\n        HEX_ZONE.exitPlayer(playerAddress, gameID, zonePath[0]);\n        HEX_ZONE.enterPlayer(\n            playerAddress,\n            gameID,\n            zonePath[zonePath.length - 1]\n        );\n        for (uint256 i = 0; i < zonePath.length; i++) {\n            enableZone(zonePath[i], tiles[i], gameID);\n        }\n    }\n}\n",
  "sourcePath": "/Users/maxmeier/Developer/Lucky Machines/hexploration/contracts/HexplorationBoard.sol",
  "compiler": {
    "name": "solc",
    "version": "0.8.11+commit.d7f03943.Emscripten.clang"
  },
  "schemaVersion": "3.4.4",
  "updatedAt": "2022-05-15T21:10:55.371Z",
  "devdoc": {
    "kind": "dev",
    "methods": {
      "getRoleAdmin(bytes32)": {
        "details": "Returns the admin role that controls `role`. See {grantRole} and {revokeRole}. To change a role's admin, use {_setRoleAdmin}."
      },
      "getRoleMember(bytes32,uint256)": {
        "details": "Returns one of the accounts that have `role`. `index` must be a value between 0 and {getRoleMemberCount}, non-inclusive. Role bearers are not sorted in any particular way, and their ordering may change at any point. WARNING: When using {getRoleMember} and {getRoleMemberCount}, make sure you perform all queries on the same block. See the following https://forum.openzeppelin.com/t/iterating-over-elements-on-enumerableset-in-openzeppelin-contracts/2296[forum post] for more information."
      },
      "getRoleMemberCount(bytes32)": {
        "details": "Returns the number of accounts that have `role`. Can be used together with {getRoleMember} to enumerate all bearers of a role."
      },
      "grantRole(bytes32,address)": {
        "details": "Grants `role` to `account`. If `account` had not been already granted `role`, emits a {RoleGranted} event. Requirements: - the caller must have ``role``'s admin role."
      },
      "hasRole(bytes32,address)": {
        "details": "Returns `true` if `account` has been granted `role`."
      },
      "renounceRole(bytes32,address)": {
        "details": "Revokes `role` from the calling account. Roles are often managed via {grantRole} and {revokeRole}: this function's purpose is to provide a mechanism for accounts to lose their privileges if they are compromised (such as when a trusted device is misplaced). If the calling account had been revoked `role`, emits a {RoleRevoked} event. Requirements: - the caller must be `account`."
      },
      "revokeRole(bytes32,address)": {
        "details": "Revokes `role` from `account`. If `account` had been granted `role`, emits a {RoleRevoked} event. Requirements: - the caller must have ``role``'s admin role."
      },
      "supportsInterface(bytes4)": {
        "details": "See {IERC165-supportsInterface}."
      }
    },
    "version": 1
  },
  "userdoc": {
    "kind": "user",
    "methods": {},
    "version": 1
  }
}