{
  "contractName": "HexplorationBoard",
  "abi": [
    {
      "inputs": [
        {
          "internalType": "address",
          "name": "adminAddress",
          "type": "address"
        },
        {
          "internalType": "uint256",
          "name": "gridWidth",
          "type": "uint256"
        },
        {
          "internalType": "uint256",
          "name": "gridHeight",
          "type": "uint256"
        },
        {
          "internalType": "address",
          "name": "zoneAddress",
          "type": "address"
        }
      ],
      "stateMutability": "nonpayable",
      "type": "constructor"
    },
    {
      "anonymous": false,
      "inputs": [
        {
          "indexed": true,
          "internalType": "bytes32",
          "name": "role",
          "type": "bytes32"
        },
        {
          "indexed": true,
          "internalType": "bytes32",
          "name": "previousAdminRole",
          "type": "bytes32"
        },
        {
          "indexed": true,
          "internalType": "bytes32",
          "name": "newAdminRole",
          "type": "bytes32"
        }
      ],
      "name": "RoleAdminChanged",
      "type": "event"
    },
    {
      "anonymous": false,
      "inputs": [
        {
          "indexed": true,
          "internalType": "bytes32",
          "name": "role",
          "type": "bytes32"
        },
        {
          "indexed": true,
          "internalType": "address",
          "name": "account",
          "type": "address"
        },
        {
          "indexed": true,
          "internalType": "address",
          "name": "sender",
          "type": "address"
        }
      ],
      "name": "RoleGranted",
      "type": "event"
    },
    {
      "anonymous": false,
      "inputs": [
        {
          "indexed": true,
          "internalType": "bytes32",
          "name": "role",
          "type": "bytes32"
        },
        {
          "indexed": true,
          "internalType": "address",
          "name": "account",
          "type": "address"
        },
        {
          "indexed": true,
          "internalType": "address",
          "name": "sender",
          "type": "address"
        }
      ],
      "name": "RoleRevoked",
      "type": "event"
    },
    {
      "inputs": [],
      "name": "DEFAULT_ADMIN_ROLE",
      "outputs": [
        {
          "internalType": "bytes32",
          "name": "",
          "type": "bytes32"
        }
      ],
      "stateMutability": "view",
      "type": "function"
    },
    {
      "inputs": [],
      "name": "FACTORY_ROLE",
      "outputs": [
        {
          "internalType": "bytes32",
          "name": "",
          "type": "bytes32"
        }
      ],
      "stateMutability": "view",
      "type": "function"
    },
    {
      "inputs": [],
      "name": "GAME_MASTER_ROLE",
      "outputs": [
        {
          "internalType": "bytes32",
          "name": "",
          "type": "bytes32"
        }
      ],
      "stateMutability": "view",
      "type": "function"
    },
    {
      "inputs": [],
      "name": "MAX_BATCH_SIZE",
      "outputs": [
        {
          "internalType": "uint256",
          "name": "",
          "type": "uint256"
        }
      ],
      "stateMutability": "view",
      "type": "function"
    },
    {
      "inputs": [],
      "name": "PLAY_ZONE_ROLE",
      "outputs": [
        {
          "internalType": "bytes32",
          "name": "",
          "type": "bytes32"
        }
      ],
      "stateMutability": "view",
      "type": "function"
    },
    {
      "inputs": [],
      "name": "VERIFIED_CONTROLLER_ROLE",
      "outputs": [
        {
          "internalType": "bytes32",
          "name": "",
          "type": "bytes32"
        }
      ],
      "stateMutability": "view",
      "type": "function"
    },
    {
      "inputs": [
        {
          "internalType": "uint256",
          "name": "transitID",
          "type": "uint256"
        }
      ],
      "name": "_progressTransit",
      "outputs": [],
      "stateMutability": "nonpayable",
      "type": "function"
    },
    {
      "inputs": [
        {
          "internalType": "address",
          "name": "factoryAddress",
          "type": "address"
        }
      ],
      "name": "addFactory",
      "outputs": [],
      "stateMutability": "nonpayable",
      "type": "function"
    },
    {
      "inputs": [
        {
          "internalType": "address",
          "name": "keeperAddress",
          "type": "address"
        }
      ],
      "name": "addKeeper",
      "outputs": [],
      "stateMutability": "nonpayable",
      "type": "function"
    },
    {
      "inputs": [
        {
          "internalType": "address",
          "name": "vcAddress",
          "type": "address"
        }
      ],
      "name": "addVerifiedController",
      "outputs": [],
      "stateMutability": "nonpayable",
      "type": "function"
    },
    {
      "inputs": [
        {
          "internalType": "uint256",
          "name": "gameID",
          "type": "uint256"
        },
        {
          "internalType": "string[2][]",
          "name": "connections",
          "type": "string[2][]"
        }
      ],
      "name": "addZoneConnections",
      "outputs": [],
      "stateMutability": "nonpayable",
      "type": "function"
    },
    {
      "inputs": [
        {
          "internalType": "address[]",
          "name": "playZoneAddresses",
          "type": "address[]"
        },
        {
          "internalType": "string[]",
          "name": "zoneAliases",
          "type": "string[]"
        },
        {
          "internalType": "uint256",
          "name": "gameID",
          "type": "uint256"
        }
      ],
      "name": "addZones",
      "outputs": [],
      "stateMutability": "nonpayable",
      "type": "function"
    },
    {
      "inputs": [],
      "name": "characterCard",
      "outputs": [
        {
          "internalType": "address",
          "name": "",
          "type": "address"
        }
      ],
      "stateMutability": "view",
      "type": "function"
    },
    {
      "inputs": [],
      "name": "cleanQueue",
      "outputs": [],
      "stateMutability": "nonpayable",
      "type": "function"
    },
    {
      "inputs": [
        {
          "internalType": "address",
          "name": "_playerRegistry",
          "type": "address"
        },
        {
          "internalType": "address",
          "name": "_gameRegistry",
          "type": "address"
        }
      ],
      "name": "createGame",
      "outputs": [
        {
          "internalType": "uint256",
          "name": "gameID",
          "type": "uint256"
        }
      ],
      "stateMutability": "nonpayable",
      "type": "function"
    },
    {
      "inputs": [
        {
          "internalType": "address",
          "name": "_playerRegistry",
          "type": "address"
        },
        {
          "internalType": "address",
          "name": "_gameRegistry",
          "type": "address"
        },
        {
          "internalType": "address[]",
          "name": "playZoneAddresses",
          "type": "address[]"
        },
        {
          "internalType": "string[]",
          "name": "zoneAliases",
          "type": "string[]"
        }
      ],
      "name": "createGame",
      "outputs": [
        {
          "internalType": "uint256",
          "name": "gameID",
          "type": "uint256"
        }
      ],
      "stateMutability": "nonpayable",
      "type": "function"
    },
    {
      "inputs": [],
      "name": "createGrid",
      "outputs": [],
      "stateMutability": "nonpayable",
      "type": "function"
    },
    {
      "inputs": [
        {
          "internalType": "uint256",
          "name": "",
          "type": "uint256"
        },
        {
          "internalType": "uint256",
          "name": "",
          "type": "uint256"
        }
      ],
      "name": "currentPlayZone",
      "outputs": [
        {
          "internalType": "string",
          "name": "",
          "type": "string"
        }
      ],
      "stateMutability": "view",
      "type": "function"
    },
    {
      "inputs": [
        {
          "internalType": "uint256",
          "name": "",
          "type": "uint256"
        },
        {
          "internalType": "uint256",
          "name": "",
          "type": "uint256"
        }
      ],
      "name": "entryQueue",
      "outputs": [
        {
          "internalType": "uint256",
          "name": "",
          "type": "uint256"
        }
      ],
      "stateMutability": "view",
      "type": "function"
    },
    {
      "inputs": [
        {
          "internalType": "uint256",
          "name": "gameID",
          "type": "uint256"
        },
        {
          "internalType": "address",
          "name": "playerAddress",
          "type": "address"
        },
        {
          "internalType": "uint256",
          "name": "pathIndex",
          "type": "uint256"
        }
      ],
      "name": "exitToPath",
      "outputs": [
        {
          "internalType": "bool",
          "name": "exitSuccess",
          "type": "bool"
        }
      ],
      "stateMutability": "nonpayable",
      "type": "function"
    },
    {
      "inputs": [
        {
          "internalType": "uint256",
          "name": "",
          "type": "uint256"
        }
      ],
      "name": "gameState",
      "outputs": [
        {
          "internalType": "uint256",
          "name": "",
          "type": "uint256"
        }
      ],
      "stateMutability": "view",
      "type": "function"
    },
    {
      "inputs": [],
      "name": "gameplayQueue",
      "outputs": [
        {
          "internalType": "address",
          "name": "",
          "type": "address"
        }
      ],
      "stateMutability": "view",
      "type": "function"
    },
    {
      "inputs": [
        {
          "internalType": "uint256",
          "name": "gameID",
          "type": "uint256"
        },
        {
          "internalType": "string",
          "name": "_zoneAlias",
          "type": "string"
        }
      ],
      "name": "getInputs",
      "outputs": [
        {
          "internalType": "string[]",
          "name": "zoneInputs",
          "type": "string[]"
        }
      ],
      "stateMutability": "view",
      "type": "function"
    },
    {
      "inputs": [
        {
          "internalType": "uint256",
          "name": "gameID",
          "type": "uint256"
        },
        {
          "internalType": "string",
          "name": "_zoneAlias",
          "type": "string"
        }
      ],
      "name": "getOutputs",
      "outputs": [
        {
          "internalType": "string[]",
          "name": "zoneOutputs",
          "type": "string[]"
        }
      ],
      "stateMutability": "view",
      "type": "function"
    },
    {
      "inputs": [
        {
          "internalType": "uint256",
          "name": "gameID",
          "type": "uint256"
        }
      ],
      "name": "getOverflowQueue",
      "outputs": [
        {
          "internalType": "uint256[]",
          "name": "",
          "type": "uint256[]"
        }
      ],
      "stateMutability": "view",
      "type": "function"
    },
    {
      "inputs": [
        {
          "internalType": "uint256",
          "name": "gameID",
          "type": "uint256"
        }
      ],
      "name": "getPlayZones",
      "outputs": [
        {
          "internalType": "string[]",
          "name": "",
          "type": "string[]"
        }
      ],
      "stateMutability": "view",
      "type": "function"
    },
    {
      "inputs": [
        {
          "internalType": "bytes32",
          "name": "role",
          "type": "bytes32"
        }
      ],
      "name": "getRoleAdmin",
      "outputs": [
        {
          "internalType": "bytes32",
          "name": "",
          "type": "bytes32"
        }
      ],
      "stateMutability": "view",
      "type": "function"
    },
    {
      "inputs": [
        {
          "internalType": "bytes32",
          "name": "role",
          "type": "bytes32"
        },
        {
          "internalType": "uint256",
          "name": "index",
          "type": "uint256"
        }
      ],
      "name": "getRoleMember",
      "outputs": [
        {
          "internalType": "address",
          "name": "",
          "type": "address"
        }
      ],
      "stateMutability": "view",
      "type": "function"
    },
    {
      "inputs": [
        {
          "internalType": "bytes32",
          "name": "role",
          "type": "bytes32"
        }
      ],
      "name": "getRoleMemberCount",
      "outputs": [
        {
          "internalType": "uint256",
          "name": "",
          "type": "uint256"
        }
      ],
      "stateMutability": "view",
      "type": "function"
    },
    {
      "inputs": [],
      "name": "getZoneAliases",
      "outputs": [
        {
          "internalType": "string[]",
          "name": "",
          "type": "string[]"
        }
      ],
      "stateMutability": "view",
      "type": "function"
    },
    {
      "inputs": [
        {
          "internalType": "bytes32",
          "name": "role",
          "type": "bytes32"
        },
        {
          "internalType": "address",
          "name": "account",
          "type": "address"
        }
      ],
      "name": "grantRole",
      "outputs": [],
      "stateMutability": "nonpayable",
      "type": "function"
    },
    {
      "inputs": [],
      "name": "gridHeight",
      "outputs": [
        {
          "internalType": "uint256",
          "name": "",
          "type": "uint256"
        }
      ],
      "stateMutability": "view",
      "type": "function"
    },
    {
      "inputs": [],
      "name": "gridWidth",
      "outputs": [
        {
          "internalType": "uint256",
          "name": "",
          "type": "uint256"
        }
      ],
      "stateMutability": "view",
      "type": "function"
    },
    {
      "inputs": [
        {
          "internalType": "bytes32",
          "name": "role",
          "type": "bytes32"
        },
        {
          "internalType": "address",
          "name": "account",
          "type": "address"
        }
      ],
      "name": "hasRole",
      "outputs": [
        {
          "internalType": "bool",
          "name": "",
          "type": "bool"
        }
      ],
      "stateMutability": "view",
      "type": "function"
    },
    {
      "inputs": [
        {
          "internalType": "uint256",
          "name": "",
          "type": "uint256"
        }
      ],
      "name": "initialPlayZone",
      "outputs": [
        {
          "internalType": "string",
          "name": "",
          "type": "string"
        }
      ],
      "stateMutability": "view",
      "type": "function"
    },
    {
      "inputs": [
        {
          "internalType": "address",
          "name": "factoryAddress",
          "type": "address"
        }
      ],
      "name": "isFactory",
      "outputs": [
        {
          "internalType": "bool",
          "name": "factoryIsAuthorized",
          "type": "bool"
        }
      ],
      "stateMutability": "view",
      "type": "function"
    },
    {
      "inputs": [
        {
          "internalType": "uint256",
          "name": "",
          "type": "uint256"
        }
      ],
      "name": "lastEntryPlayerID",
      "outputs": [
        {
          "internalType": "uint256",
          "name": "",
          "type": "uint256"
        }
      ],
      "stateMutability": "view",
      "type": "function"
    },
    {
      "inputs": [],
      "name": "needsUpdate",
      "outputs": [
        {
          "internalType": "bool",
          "name": "doesNeedUpdate",
          "type": "bool"
        }
      ],
      "stateMutability": "view",
      "type": "function"
    },
    {
      "inputs": [
        {
          "internalType": "uint256",
          "name": "",
          "type": "uint256"
        },
        {
          "internalType": "string",
          "name": "",
          "type": "string"
        },
        {
          "internalType": "uint256",
          "name": "",
          "type": "uint256"
        }
      ],
      "name": "playZoneInputs",
      "outputs": [
        {
          "internalType": "string",
          "name": "",
          "type": "string"
        }
      ],
      "stateMutability": "view",
      "type": "function"
    },
    {
      "inputs": [
        {
          "internalType": "uint256",
          "name": "",
          "type": "uint256"
        },
        {
          "internalType": "string",
          "name": "",
          "type": "string"
        },
        {
          "internalType": "uint256",
          "name": "",
          "type": "uint256"
        }
      ],
      "name": "playZoneOutputs",
      "outputs": [
        {
          "internalType": "string",
          "name": "",
          "type": "string"
        }
      ],
      "stateMutability": "view",
      "type": "function"
    },
    {
      "inputs": [
        {
          "internalType": "uint256",
          "name": "",
          "type": "uint256"
        },
        {
          "internalType": "uint256",
          "name": "",
          "type": "uint256"
        }
      ],
      "name": "playZones",
      "outputs": [
        {
          "internalType": "string",
          "name": "",
          "type": "string"
        }
      ],
      "stateMutability": "view",
      "type": "function"
    },
    {
      "inputs": [
        {
          "internalType": "uint256",
          "name": "gameID",
          "type": "uint256"
        },
        {
          "internalType": "address",
          "name": "playerAddress",
          "type": "address"
        },
        {
          "internalType": "string",
          "name": "_zoneAlias",
          "type": "string"
        }
      ],
      "name": "playerEnteredZone",
      "outputs": [],
      "stateMutability": "nonpayable",
      "type": "function"
    },
    {
      "inputs": [
        {
          "internalType": "uint256",
          "name": "",
          "type": "uint256"
        }
      ],
      "name": "playerRegistry",
      "outputs": [
        {
          "internalType": "uint256",
          "name": "",
          "type": "uint256"
        }
      ],
      "stateMutability": "view",
      "type": "function"
    },
    {
      "inputs": [],
      "name": "prAddress",
      "outputs": [
        {
          "internalType": "address",
          "name": "",
          "type": "address"
        }
      ],
      "stateMutability": "view",
      "type": "function"
    },
    {
      "inputs": [
        {
          "internalType": "uint256",
          "name": "gameID",
          "type": "uint256"
        },
        {
          "internalType": "address[]",
          "name": "playerAddresses",
          "type": "address[]"
        },
        {
          "internalType": "uint256[]",
          "name": "pathIndices",
          "type": "uint256[]"
        },
        {
          "internalType": "uint256",
          "name": "transitID",
          "type": "uint256"
        }
      ],
      "name": "queueExitToPaths",
      "outputs": [],
      "stateMutability": "nonpayable",
      "type": "function"
    },
    {
      "inputs": [
        {
          "internalType": "uint256",
          "name": "gameID",
          "type": "uint256"
        },
        {
          "internalType": "string[]",
          "name": "inputAliases",
          "type": "string[]"
        },
        {
          "internalType": "uint256[]",
          "name": "inputs",
          "type": "uint256[]"
        },
        {
          "internalType": "string[]",
          "name": "outputAliases",
          "type": "string[]"
        },
        {
          "internalType": "uint256[]",
          "name": "outputs",
          "type": "uint256[]"
        }
      ],
      "name": "removeZoneConnections",
      "outputs": [],
      "stateMutability": "nonpayable",
      "type": "function"
    },
    {
      "inputs": [
        {
          "internalType": "bytes32",
          "name": "role",
          "type": "bytes32"
        },
        {
          "internalType": "address",
          "name": "account",
          "type": "address"
        }
      ],
      "name": "renounceRole",
      "outputs": [],
      "stateMutability": "nonpayable",
      "type": "function"
    },
    {
      "inputs": [
        {
          "internalType": "bytes32",
          "name": "role",
          "type": "bytes32"
        },
        {
          "internalType": "address",
          "name": "account",
          "type": "address"
        }
      ],
      "name": "revokeRole",
      "outputs": [],
      "stateMutability": "nonpayable",
      "type": "function"
    },
    {
      "inputs": [],
      "name": "runUpdate",
      "outputs": [],
      "stateMutability": "nonpayable",
      "type": "function"
    },
    {
      "inputs": [
        {
          "internalType": "string",
          "name": "initialZone",
          "type": "string"
        },
        {
          "internalType": "uint256",
          "name": "gameID",
          "type": "uint256"
        }
      ],
      "name": "setInitialPlayZone",
      "outputs": [],
      "stateMutability": "nonpayable",
      "type": "function"
    },
    {
      "inputs": [
        {
          "internalType": "uint256",
          "name": "gameID",
          "type": "uint256"
        }
      ],
      "name": "startGame",
      "outputs": [],
      "stateMutability": "nonpayable",
      "type": "function"
    },
    {
      "inputs": [
        {
          "internalType": "uint256",
          "name": "transitID",
          "type": "uint256"
        }
      ],
      "name": "startTransit",
      "outputs": [],
      "stateMutability": "nonpayable",
      "type": "function"
    },
    {
      "inputs": [
        {
          "internalType": "bytes4",
          "name": "interfaceId",
          "type": "bytes4"
        }
      ],
      "name": "supportsInterface",
      "outputs": [
        {
          "internalType": "bool",
          "name": "",
          "type": "bool"
        }
      ],
      "stateMutability": "view",
      "type": "function"
    },
    {
      "inputs": [],
      "name": "tokenInventory",
      "outputs": [
        {
          "internalType": "address",
          "name": "",
          "type": "address"
        }
      ],
      "stateMutability": "view",
      "type": "function"
    },
    {
      "inputs": [],
      "name": "zoneAddress",
      "outputs": [
        {
          "internalType": "address",
          "name": "",
          "type": "address"
        }
      ],
      "stateMutability": "view",
      "type": "function"
    },
    {
      "inputs": [
        {
          "internalType": "uint256",
          "name": "",
          "type": "uint256"
        },
        {
          "internalType": "string",
          "name": "",
          "type": "string"
        }
      ],
      "name": "zoneAlias",
      "outputs": [
        {
          "internalType": "address",
          "name": "",
          "type": "address"
        }
      ],
      "stateMutability": "view",
      "type": "function"
    },
    {
      "inputs": [
        {
          "internalType": "uint256",
          "name": "",
          "type": "uint256"
        }
      ],
      "name": "zoneAliases",
      "outputs": [
        {
          "internalType": "string",
          "name": "",
          "type": "string"
        }
      ],
      "stateMutability": "view",
      "type": "function"
    },
    {
      "inputs": [
        {
          "internalType": "uint256",
          "name": "",
          "type": "uint256"
        },
        {
          "internalType": "string",
          "name": "",
          "type": "string"
        }
      ],
      "name": "zoneEnabled",
      "outputs": [
        {
          "internalType": "bool",
          "name": "",
          "type": "bool"
        }
      ],
      "stateMutability": "view",
      "type": "function"
    },
    {
      "inputs": [],
      "name": "hexZoneAddress",
      "outputs": [
        {
          "internalType": "address",
          "name": "",
          "type": "address"
        }
      ],
      "stateMutability": "view",
      "type": "function"
    },
    {
      "inputs": [
        {
          "internalType": "address",
          "name": "characterCardAddress",
          "type": "address"
        }
      ],
      "name": "setCharacterCard",
      "outputs": [],
      "stateMutability": "nonpayable",
      "type": "function"
    },
    {
      "inputs": [
        {
          "internalType": "address",
          "name": "tokenInventoryAddress",
          "type": "address"
        }
      ],
      "name": "setTokenInventory",
      "outputs": [],
      "stateMutability": "nonpayable",
      "type": "function"
    },
    {
      "inputs": [
        {
          "internalType": "address",
          "name": "gameplayQueueAddress",
          "type": "address"
        }
      ],
      "name": "setGameplayQueue",
      "outputs": [],
      "stateMutability": "nonpayable",
      "type": "function"
    },
    {
      "inputs": [
        {
          "internalType": "address",
          "name": "playerAddress",
          "type": "address"
        },
        {
          "internalType": "uint256",
          "name": "gameID",
          "type": "uint256"
        }
      ],
      "name": "registerPlayer",
      "outputs": [],
      "stateMutability": "nonpayable",
      "type": "function"
    },
    {
      "inputs": [
        {
          "internalType": "uint256",
          "name": "gameID",
          "type": "uint256"
        }
      ],
      "name": "lockRegistration",
      "outputs": [],
      "stateMutability": "nonpayable",
      "type": "function"
    },
    {
      "inputs": [
        {
          "internalType": "address",
          "name": "playerAddress",
          "type": "address"
        },
        {
          "internalType": "uint256",
          "name": "gameID",
          "type": "uint256"
        },
        {
          "internalType": "string",
          "name": "zone",
          "type": "string"
        }
      ],
      "name": "enterPlayer",
      "outputs": [],
      "stateMutability": "nonpayable",
      "type": "function"
    },
    {
      "inputs": [
        {
          "internalType": "address",
          "name": "playerAddress",
          "type": "address"
        },
        {
          "internalType": "uint256",
          "name": "gameID",
          "type": "uint256"
        },
        {
          "internalType": "string",
          "name": "zone",
          "type": "string"
        }
      ],
      "name": "exitPlayer",
      "outputs": [],
      "stateMutability": "nonpayable",
      "type": "function"
    },
    {
      "inputs": [
        {
          "internalType": "address",
          "name": "gameRegistryAddress",
          "type": "address"
        }
      ],
      "name": "requestNewGame",
      "outputs": [],
      "stateMutability": "nonpayable",
      "type": "function"
    },
    {
      "inputs": [
        {
          "internalType": "uint256",
          "name": "gs",
          "type": "uint256"
        },
        {
          "internalType": "uint256",
          "name": "gameID",
          "type": "uint256"
        }
      ],
      "name": "setGameState",
      "outputs": [],
      "stateMutability": "nonpayable",
      "type": "function"
    },
    {
      "inputs": [
        {
          "internalType": "uint256",
          "name": "randomness",
          "type": "uint256"
        }
      ],
      "name": "setRandomness",
      "outputs": [],
      "stateMutability": "nonpayable",
      "type": "function"
    },
    {
      "inputs": [
        {
          "internalType": "uint256",
          "name": "gameID",
          "type": "uint256"
        }
      ],
      "name": "start",
      "outputs": [],
      "stateMutability": "nonpayable",
      "type": "function"
    },
    {
      "inputs": [
        {
          "internalType": "string",
          "name": "zoneAlias",
          "type": "string"
        },
        {
          "internalType": "enum HexplorationZone.Tile",
          "name": "tile",
          "type": "uint8"
        },
        {
          "internalType": "uint256",
          "name": "gameID",
          "type": "uint256"
        }
      ],
      "name": "enableZone",
      "outputs": [],
      "stateMutability": "nonpayable",
      "type": "function"
    },
    {
      "inputs": [
        {
          "internalType": "string[]",
          "name": "zonePath",
          "type": "string[]"
        },
        {
          "internalType": "uint256",
          "name": "playerID",
          "type": "uint256"
        },
        {
          "internalType": "uint256",
          "name": "gameID",
          "type": "uint256"
        },
        {
          "internalType": "enum HexplorationZone.Tile[]",
          "name": "tiles",
          "type": "uint8[]"
        }
      ],
      "name": "moveThroughPath",
      "outputs": [],
      "stateMutability": "nonpayable",
      "type": "function"
    },
    {
      "inputs": [
        {
          "internalType": "address",
          "name": "gameRegistryAddress",
          "type": "address"
        }
      ],
      "name": "openGames",
      "outputs": [
        {
          "internalType": "uint256[]",
          "name": "",
          "type": "uint256[]"
        }
      ],
      "stateMutability": "view",
      "type": "function"
    }
  ],
  "bytecode": "0x60806040523480156200001157600080fd5b506040516200524b3803806200524b8339810160408190526200003491620002a8565b83838383836200004f600082640100000000620000c9810204565b620000847f1d93c87416ca7b54f0fb8323167b72760e8e2ec93d48660953897a150f97a8b482640100000000620000c9810204565b50600e92909255600f5560108054600160a060020a03928316600160a060020a031991821617909155601380549490921693169290921790915550620002f392505050565b620000de8282640100000000620000e2810204565b5050565b620000fc8282640100000000620030cd6200012982021704565b600082815260016020526040902062000124908264010000000062003151620001c582021704565b505050565b6200013e8282640100000000620001ee810204565b620000de57600082815260208181526040808320600160a060020a03851684529091529020805460ff191660011790556200018164010000000062000217810204565b600160a060020a031681600160a060020a0316837f2f8788117e7eff1d82e926ec794901d17c78024a50270940304540a733656f0d60405160405180910390a45050565b6000620001e583600160a060020a0384166401000000006200021b810204565b90505b92915050565b600091825260208281526040808420600160a060020a0393909316845291905290205460ff1690565b3390565b600062000232838364010000000062000273810204565b6200026a57508154600181810184556000848152602080822090930184905584548482528286019093526040902091909155620001e8565b506000620001e8565b60009081526001919091016020526040902054151590565b8051600160a060020a0381168114620002a357600080fd5b919050565b60008060008060808587031215620002bf57600080fd5b620002ca856200028b565b93506020850151925060408501519150620002e8606086016200028b565b905092959194509250565b614f4880620003036000396000f3fe608060405234801561001057600080fd5b50600436106103c75760003560e060020a9004806398bd75721161020a578063cd1ec7f21161012f578063d91413ba116100c7578063ed3719a51161008b578063ed3719a514610940578063f643b8fd1461097f578063f843070814610992578063fa9f3438146109a5578063fdd198c3146109b857600080fd5b8063d91413ba146108e1578063def34582146108f4578063df793fa814610907578063e5ed1d591461091a578063eb33983d1461092d57600080fd5b8063cd1ec7f214610830578063cefe232914610845578063cfdbf25414610858578063d1e18d2614610860578063d2d6756b14610868578063d3fb728914610888578063d4f5b152146108a8578063d547741f146108bb578063d75e7980146108ce57600080fd5b8063aab2aeb8116101a2578063aab2aeb81461078b578063ad1def1e146107ab578063b2df0ca2146104d6578063b40c89df146107c0578063b9b1ca9a146107d3578063babdeefa146107e6578063c06dea4e146107f9578063ca15c8731461080a578063cca369961461081d57600080fd5b806398bd7572146106eb5780639aabe36d146106fe5780639eb356cb146107115780639f6c4017146107245780639f82bcc014610737578063a0ed600d1461074a578063a217fddf1461075d578063a4f9c9df14610765578063a6f979ff1461077857600080fd5b806335e333e4116102f05780636b6ec869116102885780636b6ec8691461064b57806372c6c6b61461065e57806376a321c1146106715780637cc75d1c1461068457806384bf09b6146106975780639010d07c1461069f57806391d14854146106b25780639230f879146106c557806395805dad146106d857600080fd5b806335e333e4146105aa57806336568abe146105bb578063374f1d35146105ce57806338b145df146105e15780633ca61a58146105ea5780634032b72b146105f25780634e0e1a3e1461060557806351709a731461062557806360c205001461063857600080fd5b80631c834a7f116103635780631c834a7f146104f8578063235232d01461050d578063248a9ca31461052057806328d7e11a14610543578063296787561461055657806329ce1ec5146105695780632c47669a1461057c5780632f2ff15d1461058f578063346c9409146105a257600080fd5b806301ffc9a7146103cc57806304a0fb17146103f45780630b197f2e146104175780630f04ba6714610442578063108c5e1414610455578063153a75901461045e57806317d7e833146104a357806319006018146104c3578063194f2a36146104d8575b600080fd5b6103df6103da366004613f66565b6109cb565b60405190151581526020015b60405180910390f35b610409600080516020614ed383398151915281565b6040519081526020016103eb565b60105461042a90600160a060020a031681565b604051600160a060020a0390911681526020016103eb565b6103df610450366004613fa5565b610a0f565b610409600f5481565b61042a61046c3660046140b3565b60086020908152600092835260409092208151808301840180519281529084019290930191909120915254600160a060020a031681565b6104b66104b13660046140fa565b610a29565b6040516103eb9190614174565b6104d66104d136600461428b565b610ae2565b005b6104eb6104e63660046140b3565b610c2e565b6040516103eb9190614342565b610409600080516020614ef383398151915281565b6104d661051b3660046143b7565b610f71565b61040961052e366004614487565b60009081526020819052604090206001015490565b6104d66105513660046144a0565b61120c565b6104d661056436600461455a565b611289565b6104d6610577366004613fa5565b6112a8565b6104d661058a3660046145cf565b6112cf565b6104d661059d36600461463c565b61131c565b6103df611346565b601354600160a060020a031661042a565b6104d66105c936600461463c565b611397565b6104b66105dc366004614487565b611422565b610409600e5481565b6104eb61144d565b6104d6610600366004613fa5565b611526565b610409610613366004614487565b60046020526000908152604090205481565b6104b661063336600461466c565b611556565b6104d6610646366004614487565b6115aa565b6104eb6106593660046140b3565b611626565b6104d661066c366004613fa5565b611956565b6104d661067f3660046140fa565b6119d5565b6104096106923660046140fa565b6119ff565b6104d6611a30565b61042a6106ad3660046140fa565b611cd0565b6103df6106c036600461463c565b611cef565b6104d66106d3366004613fa5565b611d18565b6104d66106e6366004614487565b611d53565b6104d66106f93660046144a0565b611da1565b6104d661070c3660046146ab565b611df0565b6103df61071f3660046146d7565b611e83565b6104d6610732366004614487565b6122ba565b6104d661074536600461470f565b6122d2565b60145461042a90600160a060020a031681565b610409600081565b6104d6610773366004614487565b61238e565b610409610786366004614754565b6123a6565b610409610799366004614487565b600b6020526000908152604090205481565b610409600080516020614eb383398151915281565b6104b66107ce36600461466c565b61248b565b6104d66107e1366004613fa5565b6124c2565b6104eb6107f4366004614487565b6124fd565b600254600160a060020a031661042a565b610409610818366004614487565b6125e9565b60155461042a90600160a060020a031681565b610409600080516020614e9383398151915281565b60165461042a90600160a060020a031681565b61040960c881565b6104d6612600565b610409610876366004614487565b60056020526000908152604090205481565b61089b610896366004614487565b612706565b6040516103eb9190614782565b6104d66108b6366004613fa5565b612768565b6104d66108c936600461463c565b61278b565b6104b66108dc3660046140fa565b6127b0565b6104096108ef3660046147c6565b6127d4565b61089b610902366004613fa5565b6128f8565b6104d6610915366004613fa5565b612c74565b6104d6610928366004614487565b612caf565b6104b661093b366004614487565b612cc7565b6103df61094e3660046140b3565b6017602090815260009283526040909220815180830184018051928152908401929093019190912091525460ff1681565b6104d661098d36600461484f565b612ce0565b6104d66109a0366004614960565b612ee1565b6104d66109b33660046149b7565b612ff2565b6104d66109c6366004614487565b6130af565b6000600160e060020a031982167f5a05180f000000000000000000000000000000000000000000000000000000001480610a095750610a0982613166565b92915050565b6000610a09600080516020614ed383398151915283611cef565b60066020528160005260406000208181548110610a4557600080fd5b90600052602060002001600091509150508054610a61906149fa565b80601f0160208091040260200160405190810160405280929190818152602001828054610a8d906149fa565b8015610ada5780601f10610aaf57610100808354040283529160200191610ada565b820191906000526020600020905b815481529060010190602001808311610abd57829003601f168201915b505050505081565b600080516020614eb3833981519152610afa816131cd565b8151845114610b535760405160e560020a62461bcd02815260206004820181905260248201527f696e70757473202f206f757470757473206c656e677468206d69736d6174636860448201526064015b60405180910390fd5b610b5e8686866131d7565b610bad5760405160e560020a62461bcd02815260206004820152600e60248201527f696e7075747320696e76616c69640000000000000000000000000000000000006044820152606401610b4a565b610bb886848461327a565b610c075760405160e560020a62461bcd02815260206004820152600f60248201527f6f75747075747320696e76616c696400000000000000000000000000000000006044820152606401610b4a565b60005b8451811015610c255780610c1d81614a51565b915050610c0a565b50505050505050565b60008281526009602052604080822090516060929190610c4f908590614a6c565b9081526020016040518091039020805480602002602001604051908101604052809291908181526020016000905b82821015610d29578382906000526020600020018054610c9c906149fa565b80601f0160208091040260200160405190810160405280929190818152602001828054610cc8906149fa565b8015610d155780601f10610cea57610100808354040283529160200191610d15565b820191906000526020600020905b815481529060010190602001808311610cf857829003601f168201915b505050505081526020019060010190610c7d565b505060008080526009602052604051939450927fec8156718a8372b1db44bb411437d0870f3e3790d4a08526d024ce1b0b668f6b9250610d6b91508690614a6c565b9081526020016040518091039020805480602002602001604051908101604052809291908181526020016000905b82821015610e45578382906000526020600020018054610db8906149fa565b80601f0160208091040260200160405190810160405280929190818152602001828054610de4906149fa565b8015610e315780601f10610e0657610100808354040283529160200191610e31565b820191906000526020600020905b815481529060010190602001808311610e1457829003601f168201915b505050505081526020019060010190610d99565b505050509050600082511115610f6557600081518351610e659190614a88565b67ffffffffffffffff811115610e7d57610e7d613fc2565b604051908082528060200260200182016040528015610eb057816020015b6060815260200190600190039081610e9b5790505b50905060005b8151811015610f5e578251811015610f0457828181518110610eda57610eda614aa0565b6020026020010151828281518110610ef457610ef4614aa0565b6020026020010181905250610f48565b83835182610f129190614ab9565b81518110610f2257610f22614aa0565b6020026020010151828281518110610f3c57610f3c614aa0565b60200260200101819052505b8194508080610f5690614a51565b915050610eb6565b5050610f69565b8092505b505092915050565b600080516020614ef3833981519152610f89816131cd565b6000838152600c6020908152604080832087845290915281208054610fad906149fa565b80601f0160208091040260200160405190810160405280929190818152602001828054610fd9906149fa565b80156110265780601f10610ffb57610100808354040283529160200191611026565b820191906000526020600020905b81548152906001019060200180831161100957829003601f168201915b505060025460405160e260020a633d410c95028152600481018a9052602481018b9052949550600094600160a060020a03909116935063f504325492506044019050602060405180830381865afa158015611085573d6000803e3d6000fd5b505050506040513d601f19601f820116820180604052508101906110a99190614ad0565b60135460405160e160020a63146bf08d028152919250600160a060020a0316906328d7e11a906110e190849089908790600401614aed565b600060405180830381600087803b1580156110fb57600080fd5b505af115801561110f573d6000803e3d6000fd5b50506013548951600160a060020a0390911692506398bd75729150839088908b9061113c90600190614ab9565b8151811061114c5761114c614aa0565b60200260200101516040518463ffffffff1660e060020a02815260040161117593929190614aed565b600060405180830381600087803b15801561118f57600080fd5b505af11580156111a3573d6000803e3d6000fd5b5050505060005b8751811015611202576111f08882815181106111c8576111c8614aa0565b60200260200101518683815181106111e2576111e2614aa0565b602002602001015188612ee1565b806111fa81614a51565b9150506111aa565b5050505050505050565b600080516020614ef3833981519152611224816131cd565b60135460405160e160020a63146bf08d028152600160a060020a03909116906328d7e11a9061125b90879087908790600401614aed565b600060405180830381600087803b15801561127557600080fd5b505af1158015611202573d6000803e3d6000fd5b600080516020614e938339815191526112a1816131cd565b5050505050565b60006112b3816131cd565b6112cb600080516020614ed383398151915283613315565b5050565b600080516020614eb38339815191526112e7816131cd565b825184511461130b5760405160e560020a62461bcd028152600401610b4a90614b15565b61131684848461331f565b50505050565b600082815260208190526040902060010154611337816131cd565b611341838361347e565b505050565b6000805b600354811015611393576003818154811061136757611367614aa0565b906000526020600020015460001461138157600191505090565b8061138b81614a51565b91505061134a565b5090565b600160a060020a03811633146114185760405160e560020a62461bcd02815260206004820152602f60248201527f416363657373436f6e74726f6c3a2063616e206f6e6c792072656e6f756e636560448201527f20726f6c657320666f722073656c6600000000000000000000000000000000006064820152608401610b4a565b6112cb82826134a0565b6011818154811061143257600080fd5b906000526020600020016000915090508054610a61906149fa565b60606011805480602002602001604051908101604052809291908181526020016000905b8282101561151d578382906000526020600020018054611490906149fa565b80601f01602080910402602001604051908101604052809291908181526020018280546114bc906149fa565b80156115095780601f106114de57610100808354040283529160200191611509565b820191906000526020600020905b8154815290600101906020018083116114ec57829003601f168201915b505050505081526020019060010190611471565b50505050905090565b600080516020614eb383398151915261153e816131cd565b6112cb600080516020614ef383398151915283613315565b6009602090815260008481526040902083518085018301805192815290830192850192909220915280548290811061158d57600080fd5b9060005260206000200160009250925050508054610a61906149fa565b600080516020614ef38339815191526115c2816131cd565b60025460405160e860020a6260c20502815260048101849052600160a060020a03909116906360c2050090602401600060405180830381600087803b15801561160a57600080fd5b505af115801561161e573d6000803e3d6000fd5b505050505050565b6000828152600a602052604080822090516060929190611647908590614a6c565b9081526020016040518091039020805480602002602001604051908101604052809291908181526020016000905b82821015611721578382906000526020600020018054611694906149fa565b80601f01602080910402602001604051908101604052809291908181526020018280546116c0906149fa565b801561170d5780601f106116e25761010080835404028352916020019161170d565b820191906000526020600020905b8154815290600101906020018083116116f057829003601f168201915b505050505081526020019060010190611675565b50506000808052600a602052604051939450927f13da86008ba1c6922daee3e07db95305ef49ebced9f5467a0b8613fcc6b343e3925061176391508690614a6c565b9081526020016040518091039020805480602002602001604051908101604052809291908181526020016000905b8282101561183d5783829060005260206000200180546117b0906149fa565b80601f01602080910402602001604051908101604052809291908181526020018280546117dc906149fa565b80156118295780601f106117fe57610100808354040283529160200191611829565b820191906000526020600020905b81548152906001019060200180831161180c57829003601f168201915b505050505081526020019060010190611791565b505050509050600082511115610f655760008151835161185d9190614a88565b67ffffffffffffffff81111561187557611875613fc2565b6040519080825280602002602001820160405280156118a857816020015b60608152602001906001900390816118935790505b50905060005b8151811015610f5e5782518110156118fc578281815181106118d2576118d2614aa0565b60200260200101518282815181106118ec576118ec614aa0565b6020026020010181905250611940565b8383518261190a9190614ab9565b8151811061191a5761191a614aa0565b602002602001015182828151811061193457611934614aa0565b60200260200101819052505b819450808061194e90614a51565b9150506118ae565b600080516020614ef383398151915261196e816131cd565b81600160a060020a0316630a75806e6040518163ffffffff1660e060020a0281526004016020604051808303816000875af11580156119b1573d6000803e3d6000fd5b505050506040513d601f19601f820116820180604052508101906113419190614b72565b600080516020614ef38339815191526119ed816131cd565b50600090815260046020526040902055565b600d6020528160005260406000208181548110611a1b57600080fd5b90600052602060002001600091509150505481565b611a48600080516020614ed383398151915233611cef565b80611a665750611a66600080516020614eb383398151915233611cef565b611a855760405160e560020a62461bcd028152600401610b4a90614b8b565b601154611cce576000600f54600e54611a9e9190614be8565b67ffffffffffffffff811115611ab657611ab6613fc2565b604051908082528060200260200182016040528015611adf578160200160208202803683370190505b50600f54600e546040517f9f6b56490000000000000000000000000000000000000000000000000000000081526004810192909252602482015290915073__XYCoordinates_________________________90639f6b564990604401600060405180830381865af4158015611b58573d6000803e3d6000fd5b505050506040513d6000823e601f3d908101601f19168201604052611b809190810190614c07565b8051611b9491601191602090910190613e21565b5060005b8151811015611bee576010548251600160a060020a0390911690839083908110611bc457611bc4614aa0565b600160a060020a039092166020928302919091019091015280611be681614a51565b915050611b98565b50611ccc816011805480602002602001604051908101604052809291908181526020016000905b82821015611cc1578382906000526020600020018054611c34906149fa565b80601f0160208091040260200160405190810160405280929190818152602001828054611c60906149fa565b8015611cad5780601f10611c8257610100808354040283529160200191611cad565b820191906000526020600020905b815481529060010190602001808311611c9057829003601f168201915b505050505081526020019060010190611c15565b50505050600061331f565b505b565b6000828152600160205260408120611ce890836134c2565b9392505050565b600091825260208281526040808420600160a060020a0393909316845291905290205460ff1690565b6000611d23816131cd565b506014805473ffffffffffffffffffffffffffffffffffffffff1916600160a060020a0392909216919091179055565b600080516020614ef3833981519152611d6b816131cd565b50600380546001810182556000919091527fc2575a0e9e593c00f959f8c92f12db2869c3395a3b0502d05e2516446f71f85b0155565b600080516020614ef3833981519152611db9816131cd565b60135460405160e160020a634c5ebab9028152600160a060020a03909116906398bd75729061125b90879087908790600401614aed565b600080516020614ef3833981519152611e08816131cd565b6002546040517f9aabe36d000000000000000000000000000000000000000000000000000000008152600160a060020a0385811660048301526024820185905290911690639aabe36d90604401600060405180830381600087803b158015611e6f57600080fd5b505af1158015610c25573d6000803e3d6000fd5b60025460405160e560020a6305e53e5502815260048101859052600160a060020a038481166024830152600092839291169063bca7caa090604401602060405180830381865afa158015611edb573d6000803e3d6000fd5b505050506040513d601f19601f82011682018060405250810190611eff9190614b72565b6000868152600c60209081526040808320848452909152812080549293509091611f28906149fa565b80601f0160208091040260200160405190810160405280929190818152602001828054611f54906149fa565b8015611fa15780601f10611f7657610100808354040283529160200191611fa1565b820191906000526020600020905b815481529060010190602001808311611f8457829003601f168201915b505050505090506000611fb48783611626565b8051909150806120095760405160e560020a62461bcd02815260206004820152601760248201527f4e6f206578697420706174687320617661696c61626c650000000000000000006044820152606401610b4a565b6000888152600860205260408082209051919650869161202a908690614a6c565b90815260405190819003602001902054600160a060020a0316905060008288116120545787612057565b60005b9050600084828151811061206d5761206d614aa0565b602002602001015190506000600860008d81526020019081526020016000208260405161209a9190614a6c565b908152602001604051809103902060009054906101000a9004600160a060020a0316905083600160a060020a0316637caf12808c8e8a6040518463ffffffff1660e060020a0281526004016120f193929190614aed565b602060405180830381865afa15801561210e573d6000803e3d6000fd5b505050506040513d601f19601f820116820180604052508101906121329190614cf1565b80156121ad575080600160a060020a031663e15b3ad08c8e856040518463ffffffff1660e060020a02815260040161216c93929190614aed565b602060405180830381865afa158015612189573d6000803e3d6000fd5b505050506040513d601f19601f820116820180604052508101906121ad9190614cf1565b156122ab5783600160a060020a03166328d7e11a8c8e8a6040518463ffffffff1660e060020a0281526004016121e593929190614aed565b600060405180830381600087803b1580156121ff57600080fd5b505af1158015612213573d6000803e3d6000fd5b5050505080600160a060020a03166398bd75728c8e856040518463ffffffff1660e060020a02815260040161224a93929190614aed565b600060405180830381600087803b15801561226457600080fd5b505af1158015612278573d6000803e3d6000fd5b50505060008d8152600c602090815260408083208c8452825290912084516122a593509091850190613e7a565b50600198505b50505050505050509392505050565b600080516020614ef38339815191526112cb816131cd565b600080516020614ef38339815191526122ea816131cd565b6000828152600460205260409020541561236f5760405160e560020a62461bcd02815260206004820152602c60248201527f63616e27742073657420696e697469616c207a6f6e652c2067616d6520616c7260448201527f65616479207374617274656400000000000000000000000000000000000000006064820152608401610b4a565b6000828152600760209081526040909120845161131692860190613e7a565b600080516020614e938339815191526112cb816131cd565b60006123c0600080516020614ed383398151915233611cef565b806123de57506123de600080516020614eb383398151915233611cef565b6123fd5760405160e560020a62461bcd028152600401610b4a90614b8b565b82600260006101000a815481600160a060020a030219169083600160a060020a0316021790555081600160a060020a0316630a75806e6040518163ffffffff1660e060020a0281526004016020604051808303816000875af1158015612467573d6000803e3d6000fd5b505050506040513d601f19601f82011682018060405250810190611ce89190614b72565b600a602090815260008481526040902083518085018301805192815290830192850192909220915280548290811061158d57600080fd5b60006124cd816131cd565b506016805473ffffffffffffffffffffffffffffffffffffffff1916600160a060020a0392909216919091179055565b606060066000838152602001908152602001600020805480602002602001604051908101604052809291908181526020016000905b828210156125de578382906000526020600020018054612551906149fa565b80601f016020809104026020016040519081016040528092919081815260200182805461257d906149fa565b80156125ca5780601f1061259f576101008083540402835291602001916125ca565b820191906000526020600020905b8154815290600101906020018083116125ad57829003601f168201915b505050505081526020019060010190612532565b505050509050919050565b6000818152600160205260408120610a09906134ce565b600080516020614ef3833981519152612618816131cd565b60008060005b600354811015612687576003818154811061263b5761263b614aa0565b9060005260206000200154600014612675576003818154811061266057612660614aa0565b90600052602060002001549250809150612687565b8061267f81614a51565b91505061261e565b506000828152600460205260409020546126a9576126a4826134d8565b6126c9565b600082815260046020526040902054600114156126c9576126c98261354c565b60008281526004602052604090205460011015611341576000600382815481106126f5576126f5614aa0565b600091825260209091200155505050565b6000818152600d602090815260409182902080548351818402810184019094528084526060939283018282801561275c57602002820191906000526020600020905b815481526020019060010190808311612748575b50505050509050919050565b6000612773816131cd565b6112cb600080516020614ef38339815191528361131c565b6000828152602081905260409020600101546127a6816131cd565b61134183836134a0565b600c60209081526000928352604080842090915290825290208054610a61906149fa565b60006127ee600080516020614ed383398151915233611cef565b8061280c575061280c600080516020614eb383398151915233611cef565b61282b5760405160e560020a62461bcd028152600401610b4a90614b8b565b815183511461284f5760405160e560020a62461bcd028152600401610b4a90614b15565b8251156128615761286183838361331f565b84600260006101000a815481600160a060020a030219169083600160a060020a0316021790555083600160a060020a0316630a75806e6040518163ffffffff1660e060020a0281526004016020604051808303816000875af11580156128cb573d6000803e3d6000fd5b505050506040513d601f19601f820116820180604052508101906128ef9190614b72565b95945050505050565b6060600082600160a060020a031663465542f06040518163ffffffff1660e060020a028152600401600060405180830381865afa15801561293d573d6000803e3d6000fd5b505050506040513d6000823e601f3d908101601f191682016040526129659190810190614d13565b90506000805b8251811015612aa957600083828151811061298857612988614aa0565b602090810291909101015160025460405160e060020a63b77ff41102815260048101839052919250600591600160a060020a039091169063b77ff41190602401602060405180830381865afa1580156129e5573d6000803e3d6000fd5b505050506040513d601f19601f82011682018060405250810190612a099190614b72565b108015612a83575060025460405160e060020a63c947f4b702815260048101839052600160a060020a039091169063c947f4b790602401602060405180830381865afa158015612a5d573d6000803e3d6000fd5b505050506040513d601f19601f82011682018060405250810190612a819190614cf1565b155b15612a965782612a9281614a51565b9350505b5080612aa181614a51565b91505061296b565b506000808267ffffffffffffffff811115612ac657612ac6613fc2565b604051908082528060200260200182016040528015612aef578160200160208202803683370190505b50905060005b8451811015612c6a576000858281518110612b1257612b12614aa0565b602090810291909101015160025460405160e060020a63b77ff41102815260048101839052919250600591600160a060020a039091169063b77ff41190602401602060405180830381865afa158015612b6f573d6000803e3d6000fd5b505050506040513d601f19601f82011682018060405250810190612b939190614b72565b108015612c0d575060025460405160e060020a63c947f4b702815260048101839052600160a060020a039091169063c947f4b790602401602060405180830381865afa158015612be7573d6000803e3d6000fd5b505050506040513d601f19601f82011682018060405250810190612c0b9190614cf1565b155b15612c5757858281518110612c2457612c24614aa0565b6020026020010151838581518110612c3e57612c3e614aa0565b602090810291909101015283612c5381614a51565b9450505b5080612c6281614a51565b915050612af5565b5095945050505050565b6000612c7f816131cd565b506015805473ffffffffffffffffffffffffffffffffffffffff1916600160a060020a0392909216919091179055565b600080516020614eb3833981519152611d6b816131cd565b60076020526000908152604090208054610a61906149fa565b600080516020614eb3833981519152612cf8816131cd565b612d0283836138c3565b612d515760405160e560020a62461bcd02815260206004820152601a60248201527f6e6f7420616c6c207a6f6e6520696e64656365732076616c69640000000000006044820152606401610b4a565b60005b8251811015611316576000848152600a602052604090208351849083908110612d7f57612d7f614aa0565b6020026020010151600060028110612d9957612d99614aa0565b6020020151604051612dab9190614a6c565b9081526020016040518091039020838281518110612dcb57612dcb614aa0565b6020026020010151600160028110612de557612de5614aa0565b6020908102919091015182546001810184556000938452928290208151612e159491909101929190910190613e7a565b5060008481526009602052604090208351849083908110612e3857612e38614aa0565b6020026020010151600160028110612e5257612e52614aa0565b6020020151604051612e649190614a6c565b9081526020016040518091039020838281518110612e8457612e84614aa0565b6020026020010151600060028110612e9e57612e9e614aa0565b6020908102919091015182546001810184556000938452928290208151612ece9491909101929190910190613e7a565b5080612ed981614a51565b915050612d54565b600080516020614ef3833981519152612ef9816131cd565b600082815260176020526040908190209051612f16908690614a6c565b9081526040519081900360200190205460ff16611316576013546040517fd4939609000000000000000000000000000000000000000000000000000000008152600160a060020a039091169063d493960990612f7a90869086908990600401614da1565b600060405180830381600087803b158015612f9457600080fd5b505af1158015612fa8573d6000803e3d6000fd5b50505060008381526017602052604090819020905160019250612fcc908790614a6c565b908152604051908190036020019020805491151560ff1990921691909117905550505050565b600080516020614e9383398151915261300a816131cd565b60025460405160e560020a6305e53e5502815260048101869052600160a060020a038581166024830152600092169063bca7caa090604401602060405180830381865afa15801561305f573d6000803e3d6000fd5b505050506040513d601f19601f820116820180604052508101906130839190614b72565b6000868152600c602090815260408083208484528252909120855192935061161e929091860190613e7a565b600080516020614ef38339815191526130c7816131cd565b50601255565b6130d78282611cef565b6112cb57600082815260208181526040808320600160a060020a03851684529091529020805460ff1916600117905561310d3390565b600160a060020a031681600160a060020a0316837f2f8788117e7eff1d82e926ec794901d17c78024a50270940304540a733656f0d60405160405180910390a45050565b6000611ce883600160a060020a0384166139d2565b6000600160e060020a031982167f7965db0b000000000000000000000000000000000000000000000000000000001480610a0957507f01ffc9a700000000000000000000000000000000000000000000000000000000600160e060020a0319831614610a09565b611ccc8133613a21565b600160005b8251811015613272578281815181106131f7576131f7614aa0565b6020026020010151600161320b9190614a88565b6000868152600960205260409020855186908490811061322d5761322d614aa0565b60200260200101516040516132429190614a6c565b90815260405190819003602001902054106132605760009150613272565b8061326a81614a51565b9150506131dc565b509392505050565b600160005b82518110156132725782818151811061329a5761329a614aa0565b602002602001015160016132ae9190614a88565b6000868152600a6020526040902085518690849081106132d0576132d0614aa0565b60200260200101516040516132e59190614a6c565b90815260405190819003602001902054106133035760009150613272565b8061330d81614a51565b91505061327f565b6112cb828261347e565b60005b8351811015611316576000828152600660205260409020835184908390811061334d5761334d614aa0565b6020908102919091018101518254600181018455600093845292829020815161337f9491909101929190910190613e7a565b5083818151811061339257613392614aa0565b6020026020010151600860008481526020019081526020016000208483815181106133bf576133bf614aa0565b60200260200101516040516133d49190614a6c565b908152602001604051809103902060006101000a815481600160a060020a030219169083600160a060020a03160217905550613437600080516020614e9383398151915285838151811061342a5761342a614aa0565b6020026020010151611cef565b61346c5761346c600080516020614e9383398151915285838151811061345f5761345f614aa0565b6020026020010151613315565b8061347681614a51565b915050613322565b61348882826130cd565b60008281526001602052604090206113419082613151565b6134aa8282613a88565b60008281526001602052604090206113419082613aed565b6000611ce88383613b02565b6000610a09825490565b60025460405160e860020a6260c20502815260048101839052600160a060020a03909116906360c2050090602401600060405180830381600087803b15801561352057600080fd5b505af1158015613534573d6000803e3d6000fd5b50505060009182525060046020526040902060019055565b60008181526007602052604081208054613565906149fa565b1515905061359b576000828152600660205260408120805490919061358c5761358c614aa0565b906000526020600020016135aa565b60008281526007602052604090205b80546135b5906149fa565b80601f01602080910402602001604051908101604052809291908181526020018280546135e1906149fa565b801561362e5780601f106136035761010080835404028352916020019161362e565b820191906000526020600020905b81548152906001019060200180831161361157829003601f168201915b50505050509050600060086000848152602001908152602001600020826040516136589190614a6c565b90815260405190819003602001902054600160a060020a031690508060005b60025460405160e060020a63b77ff41102815260048101879052600160a060020a039091169063b77ff41190602401602060405180830381865afa1580156136c3573d6000803e3d6000fd5b505050506040513d601f19601f820116820180604052508101906136e79190614b72565b8110156138ab5760006136fb826001614a88565b60025460405160e260020a633d410c950281526004810189905260248101839052919250600091600160a060020a039091169063f504325490604401602060405180830381865afa158015613754573d6000803e3d6000fd5b505050506040513d601f19601f820116820180604052508101906137789190614ad0565b6040517fe15b3ad0000000000000000000000000000000000000000000000000000000008152909150600160a060020a0385169063e15b3ad0906137c49084908b908b90600401614aed565b602060405180830381865afa1580156137e1573d6000803e3d6000fd5b505050506040513d601f19601f820116820180604052508101906138059190614cf1565b156138745760405160e160020a634c5ebab9028152600160a060020a038516906398bd75729061383d9084908b908b90600401614aed565b600060405180830381600087803b15801561385757600080fd5b505af115801561386b573d6000803e3d6000fd5b50505050613896565b6000878152600d60209081526040822080546001810182559083529120018290555b505080806138a390614a51565b915050613677565b50505060009182525060046020526040902060029055565b6000805b82518110156139cb5760008481526008602052604081208451600194508590849081106138f6576138f6614aa0565b602002602001015160006002811061391057613910614aa0565b60200201516040516139229190614a6c565b90815260405190819003602001902054600160a060020a031614806139ab57506000848152600860205260408120845185908490811061396457613964614aa0565b602002602001015160016002811061397e5761397e614aa0565b60200201516040516139909190614a6c565b90815260405190819003602001902054600160a060020a0316145b156139b957600091506139cb565b806139c381614a51565b9150506138c7565b5092915050565b6000818152600183016020526040812054613a1957508154600181810184556000848152602080822090930184905584548482528286019093526040902091909155610a09565b506000610a09565b613a2b8282611cef565b6112cb57613a4381600160a060020a03166014613b2c565b613a4e836020613b2c565b604051602001613a5f929190614de1565b60408051601f198184030181529082905260e560020a62461bcd028252610b4a91600401614174565b613a928282611cef565b156112cb57600082815260208181526040808320600160a060020a0385168085529252808320805460ff1916905551339285917ff6391f5c32d9c69d2a47ea670b442974b53935d1edc7fd64eb21e047a839171b9190a45050565b6000611ce883600160a060020a038416613d2e565b6000826000018281548110613b1957613b19614aa0565b9060005260206000200154905092915050565b60606000613b3b836002614be8565b613b46906002614a88565b67ffffffffffffffff811115613b5e57613b5e613fc2565b6040519080825280601f01601f191660200182016040528015613b88576020820181803683370190505b5090507f300000000000000000000000000000000000000000000000000000000000000081600081518110613bbf57613bbf614aa0565b6020010190600160f860020a031916908160001a9053507f780000000000000000000000000000000000000000000000000000000000000081600181518110613c0a57613c0a614aa0565b6020010190600160f860020a031916908160001a9053506000613c2e846002614be8565b613c39906001614a88565b90505b6001811115613cdc577f303132333435363738396162636465660000000000000000000000000000000085600f1660108110613c7a57613c7a614aa0565b1a7f010000000000000000000000000000000000000000000000000000000000000002828281518110613caf57613caf614aa0565b6020010190600160f860020a031916908160001a905350601090940493613cd581614e62565b9050613c3c565b508315611ce85760405160e560020a62461bcd02815260206004820181905260248201527f537472696e67733a20686578206c656e67746820696e73756666696369656e746044820152606401610b4a565b60008181526001830160205260408120548015613e17576000613d52600183614ab9565b8554909150600090613d6690600190614ab9565b9050818114613dcb576000866000018281548110613d8657613d86614aa0565b9060005260206000200154905080876000018481548110613da957613da9614aa0565b6000918252602080832090910192909255918252600188019052604090208390555b8554869080613ddc57613ddc614e79565b600190038181906000526020600020016000905590558560010160008681526020019081526020016000206000905560019350505050610a09565b6000915050610a09565b828054828255906000526020600020908101928215613e6e579160200282015b82811115613e6e5782518051613e5e918491602090910190613e7a565b5091602001919060010190613e41565b50611393929150613efa565b828054613e86906149fa565b90600052602060002090601f016020900481019282613ea85760008555613eee565b82601f10613ec157805160ff1916838001178555613eee565b82800160010185558215613eee579182015b82811115613eee578251825591602001919060010190613ed3565b50611393929150613f17565b80821115611393576000613f0e8282613f2c565b50600101613efa565b5b808211156113935760008155600101613f18565b508054613f38906149fa565b6000825580601f10613f48575050565b601f016020900490600052602060002090810190611ccc9190613f17565b600060208284031215613f7857600080fd5b8135600160e060020a031981168114611ce857600080fd5b600160a060020a0381168114611ccc57600080fd5b600060208284031215613fb757600080fd5b8135611ce881613f90565b60e060020a634e487b7102600052604160045260246000fd5b6040805190810167ffffffffffffffff81118282101715613ffe57613ffe613fc2565b60405290565b604051601f8201601f1916810167ffffffffffffffff8111828210171561402d5761402d613fc2565b604052919050565b600067ffffffffffffffff82111561404f5761404f613fc2565b50601f01601f191660200190565b600082601f83011261406e57600080fd5b813561408161407c82614035565b614004565b81815284602083860101111561409657600080fd5b816020850160208301376000918101602001919091529392505050565b600080604083850312156140c657600080fd5b82359150602083013567ffffffffffffffff8111156140e457600080fd5b6140f08582860161405d565b9150509250929050565b6000806040838503121561410d57600080fd5b50508035926020909101359150565b60005b8381101561413757818101518382015260200161411f565b838111156113165750506000910152565b6000815180845261416081602086016020860161411c565b601f01601f19169290920160200192915050565b602081526000611ce86020830184614148565b600067ffffffffffffffff8211156141a1576141a1613fc2565b5060209081020190565b600082601f8301126141bc57600080fd5b813560206141cc61407c83614187565b828152918102840181019181810190868411156141e857600080fd5b8286015b8481101561422857803567ffffffffffffffff81111561420c5760008081fd5b61421a8986838b010161405d565b8452509183019183016141ec565b509695505050505050565b600082601f83011261424457600080fd5b8135602061425461407c83614187565b8281529181028401810191818101908684111561427057600080fd5b8286015b848110156142285780358352918301918301614274565b600080600080600060a086880312156142a357600080fd5b85359450602086013567ffffffffffffffff808211156142c257600080fd5b6142ce89838a016141ab565b955060408801359150808211156142e457600080fd5b6142f089838a01614233565b9450606088013591508082111561430657600080fd5b61431289838a016141ab565b9350608088013591508082111561432857600080fd5b5061433588828901614233565b9150509295509295909350565b600060208083018184528085518083526040860191506040848202870101925083870160005b8281101561439657603f19888603018452614384858351614148565b94509285019290850190600101614368565b5092979650505050505050565b8035600c81106143b257600080fd5b919050565b600080600080608085870312156143cd57600080fd5b843567ffffffffffffffff808211156143e557600080fd5b6143f1888389016141ab565b9550602091508187013594506040870135935060608701358181111561441657600080fd5b87019050601f8101881361442957600080fd5b803561443761407c82614187565b8181529083028201830190838101908a83111561445357600080fd5b928401925b8284101561447857614469846143a3565b82529284019290840190614458565b979a9699509497505050505050565b60006020828403121561449957600080fd5b5035919050565b6000806000606084860312156144b557600080fd5b83356144c081613f90565b925060208401359150604084013567ffffffffffffffff8111156144e357600080fd5b6144ef8682870161405d565b9150509250925092565b600082601f83011261450a57600080fd5b8135602061451a61407c83614187565b8281529181028401810191818101908684111561453657600080fd5b8286015b8481101561422857803561454d81613f90565b835291830191830161453a565b6000806000806080858703121561457057600080fd5b84359350602085013567ffffffffffffffff8082111561458f57600080fd5b61459b888389016144f9565b945060408701359150808211156145b157600080fd5b506145be87828801614233565b949793965093946060013593505050565b6000806000606084860312156145e457600080fd5b833567ffffffffffffffff808211156145fc57600080fd5b614608878388016144f9565b9450602086013591508082111561461e57600080fd5b5061462b868287016141ab565b925050604084013590509250925092565b6000806040838503121561464f57600080fd5b82359150602083013561466181613f90565b809150509250929050565b60008060006060848603121561468157600080fd5b83359250602084013567ffffffffffffffff81111561469f57600080fd5b61462b8682870161405d565b600080604083850312156146be57600080fd5b82356146c981613f90565b946020939093013593505050565b6000806000606084860312156146ec57600080fd5b8335925060208401356146fe81613f90565b929592945050506040919091013590565b6000806040838503121561472257600080fd5b823567ffffffffffffffff81111561473957600080fd5b6147458582860161405d565b95602094909401359450505050565b6000806040838503121561476757600080fd5b823561477281613f90565b9150602083013561466181613f90565b6020808252825182820181905260009190848201906040850190845b818110156147ba5783518352928401929184019160010161479e565b50909695505050505050565b600080600080608085870312156147dc57600080fd5b84356147e781613f90565b935060208501356147f781613f90565b9250604085013567ffffffffffffffff8082111561481457600080fd5b614820888389016144f9565b9350606087013591508082111561483657600080fd5b50614843878288016141ab565b91505092959194509250565b6000806040838503121561486257600080fd5b8235915060208084013567ffffffffffffffff8082111561488257600080fd5b818601915086601f83011261489657600080fd5b81356148a461407c82614187565b818152908402830184019084810190898311156148c057600080fd5b8585015b8381101561494f5784813511156148da57600080fd5b803586018b603f8201126148ed57600080fd5b6148f5613fdb565b808d60608401111561490657600080fd5b8983015b6060840181101561493f57888135111561492357600080fd5b6149328f8c833587010161405d565b8352918a01918a0161490a565b50855250509186019186016148c4565b508096505050505050509250929050565b60008060006060848603121561497557600080fd5b833567ffffffffffffffff81111561498c57600080fd5b6149988682870161405d565b9350506149a7602085016143a3565b9150604084013590509250925092565b6000806000606084860312156149cc57600080fd5b8335925060208401356149de81613f90565b9150604084013567ffffffffffffffff8111156144e357600080fd5b600281046001821680614a0e57607f821691505b60208210811415614a325760e060020a634e487b7102600052602260045260246000fd5b50919050565b60e060020a634e487b7102600052601160045260246000fd5b6000600019821415614a6557614a65614a38565b5060010190565b60008251614a7e81846020870161411c565b9190910192915050565b60008219821115614a9b57614a9b614a38565b500190565b60e060020a634e487b7102600052603260045260246000fd5b600082821015614acb57614acb614a38565b500390565b600060208284031215614ae257600080fd5b8151611ce881613f90565b600160a060020a03841681528260208201526060604082015260006128ef6060830184614148565b60208082526025908201527f616464726573736573202620616c696173657320646966666572656e74206c6560408201527f6e67746873000000000000000000000000000000000000000000000000000000606082015260800190565b600060208284031215614b8457600080fd5b5051919050565b60208082526024908201527f47616d65204d6173746572206f7220466163746f727920726f6c65207265717560408201527f6972656400000000000000000000000000000000000000000000000000000000606082015260800190565b6000816000190483118215151615614c0257614c02614a38565b500290565b60006020808385031215614c1a57600080fd5b825167ffffffffffffffff80821115614c3257600080fd5b818501915085601f830112614c4657600080fd5b8151614c5461407c82614187565b81815290840283018401908481019088831115614c7057600080fd5b8585015b83811015614ce457805185811115614c8c5760008081fd5b8601603f81018b13614c9e5760008081fd5b878101516040614cb061407c83614035565b8281528d82848601011115614cc55760008081fd5b614cd4838c830184870161411c565b8652505050918601918601614c74565b5098975050505050505050565b600060208284031215614d0357600080fd5b81518015158114611ce857600080fd5b60006020808385031215614d2657600080fd5b825167ffffffffffffffff811115614d3d57600080fd5b8301601f81018513614d4e57600080fd5b8051614d5c61407c82614187565b81815290830282018301908381019087831115614d7857600080fd5b928401925b82841015614d9657835182529284019290840190614d7d565b979650505050505050565b6000600c8510614dc45760e060020a634e487b7102600052602160045260246000fd5b848252836020830152606060408301526128ef6060830184614148565b7f416363657373436f6e74726f6c3a206163636f756e7420000000000000000000815260008351614e1981601785016020880161411c565b7f206973206d697373696e6720726f6c65200000000000000000000000000000006017918401918201528351614e5681602884016020880161411c565b01602801949350505050565b600081614e7157614e71614a38565b506000190190565b60e060020a634e487b7102600052603160045260246000fdfe72b06b67826def9fabb513b23f7e5eb74f7ece26d25dad4006546ecf4a13763d1d93c87416ca7b54f0fb8323167b72760e8e2ec93d48660953897a150f97a8b4dfbefbf47cfe66b701d8cfdbce1de81c821590819cb07e71cb01b6602fb0ee2780e2196015fc06a9d891759f8e4f51eb314ef5e9ea068528a8ed0063b87759f0a264697066735822122081e7aa3011771b39ba735f34aa8c20a0586bdc5bd7355b24c68536bb3ea89e1664736f6c634300080b0033",
  "immutableReferences": {},
  "source": "// SPDX-License-Identifier: GPL-3.0\npragma solidity >=0.7.0 <0.9.0;\n\nimport \"@luckymachines/game-core/contracts/src/v0.0/custom_boards/HexGrid.sol\";\nimport \"./HexplorationZone.sol\";\n\ncontract HexplorationBoard is HexGrid {\n    // This role is a hybrid controller, assumes on chain verification of moves before submission\n\n    uint256 private _randomness;\n    HexplorationZone internal HEX_ZONE;\n    address public characterCard;\n    address public tokenInventory;\n    address public gameplayQueue;\n    // game ID => zone alias returns bool\n    mapping(uint256 => mapping(string => bool)) public zoneEnabled;\n\n    constructor(\n        address adminAddress,\n        uint256 gridWidth,\n        uint256 gridHeight,\n        address zoneAddress\n    ) HexGrid(adminAddress, gridWidth, gridHeight, zoneAddress) {\n        HEX_ZONE = HexplorationZone(zoneAddress);\n    }\n\n    function hexZoneAddress() public view returns (address) {\n        return address(HEX_ZONE);\n    }\n\n    // VERIFIED CONTROLLER functions\n    // We can assume these have been pre-verified\n    function setCharacterCard(address characterCardAddress)\n        public\n        onlyRole(DEFAULT_ADMIN_ROLE)\n    {\n        characterCard = characterCardAddress;\n    }\n\n    function setTokenInventory(address tokenInventoryAddress)\n        public\n        onlyRole(DEFAULT_ADMIN_ROLE)\n    {\n        tokenInventory = tokenInventoryAddress;\n    }\n\n    function setGameplayQueue(address gameplayQueueAddress)\n        public\n        onlyRole(DEFAULT_ADMIN_ROLE)\n    {\n        gameplayQueue = gameplayQueueAddress;\n    }\n\n    function registerPlayer(address playerAddress, uint256 gameID)\n        public\n        onlyRole(VERIFIED_CONTROLLER_ROLE)\n    {\n        PLAYER_REGISTRY.registerPlayer(playerAddress, gameID);\n    }\n\n    function lockRegistration(uint256 gameID)\n        public\n        onlyRole(VERIFIED_CONTROLLER_ROLE)\n    {\n        PLAYER_REGISTRY.lockRegistration(gameID);\n    }\n\n    function enterPlayer(\n        address playerAddress,\n        uint256 gameID,\n        string memory zone\n    ) external onlyRole(VERIFIED_CONTROLLER_ROLE) {\n        HEX_ZONE.enterPlayer(playerAddress, gameID, zone);\n    }\n\n    function exitPlayer(\n        address playerAddress,\n        uint256 gameID,\n        string memory zone\n    ) external onlyRole(VERIFIED_CONTROLLER_ROLE) {\n        HEX_ZONE.exitPlayer(playerAddress, gameID, zone);\n    }\n\n    function requestNewGame(address gameRegistryAddress)\n        external\n        onlyRole(VERIFIED_CONTROLLER_ROLE)\n    {\n        GameRegistry(gameRegistryAddress).registerGame();\n    }\n\n    function setGameState(uint256 gs, uint256 gameID)\n        external\n        onlyRole(VERIFIED_CONTROLLER_ROLE)\n    {\n        // 0 start\n        // 1 inititalizing\n        // 2 initialized\n        gameState[gameID] = gs;\n    }\n\n    function setRandomness(uint256 randomness)\n        external\n        onlyRole(VERIFIED_CONTROLLER_ROLE)\n    {\n        _randomness = randomness;\n    }\n\n    function start(uint256 gameID) public onlyRole(VERIFIED_CONTROLLER_ROLE) {\n        _gamesNeedUpdates.push(gameID);\n    }\n\n    function enableZone(\n        string memory zoneAlias,\n        HexplorationZone.Tile tile,\n        uint256 gameID\n    ) public onlyRole(VERIFIED_CONTROLLER_ROLE) {\n        if (!zoneEnabled[gameID][zoneAlias]) {\n            HEX_ZONE.setTile(tile, gameID, zoneAlias);\n            zoneEnabled[gameID][zoneAlias] = true;\n        }\n    }\n\n    // pass path and what tiles should be\n    // pass current zone as first argument\n    function moveThroughPath(\n        string[] memory zonePath,\n        uint256 playerID,\n        uint256 gameID,\n        HexplorationZone.Tile[] memory tiles\n    ) external onlyRole(VERIFIED_CONTROLLER_ROLE) {\n        string memory currentZone = currentPlayZone[gameID][playerID];\n        address playerAddress = PLAYER_REGISTRY.playerAddress(gameID, playerID);\n        HEX_ZONE.exitPlayer(playerAddress, gameID, currentZone);\n        HEX_ZONE.enterPlayer(\n            playerAddress,\n            gameID,\n            zonePath[zonePath.length - 1]\n        );\n        for (uint256 i = 0; i < zonePath.length; i++) {\n            enableZone(zonePath[i], tiles[i], gameID);\n        }\n    }\n\n    function openGames(address gameRegistryAddress)\n        public\n        view\n        returns (uint256[] memory)\n    {\n        uint256[] memory allGames = GameRegistry(gameRegistryAddress)\n            .allGames();\n        uint256 openGamesCount = 0;\n        for (uint256 i = 0; i < allGames.length; i++) {\n            uint256 gameID = allGames[i];\n\n            if (\n                PLAYER_REGISTRY.totalRegistrations(gameID) < 5 &&\n                !PLAYER_REGISTRY.registrationLocked(gameID)\n            ) {\n                openGamesCount++;\n            }\n        }\n        uint256 position = 0;\n        uint256[] memory availableGames = new uint256[](openGamesCount);\n        for (uint256 i = 0; i < allGames.length; i++) {\n            uint256 gameID = allGames[i];\n            if (\n                PLAYER_REGISTRY.totalRegistrations(gameID) < 5 &&\n                !PLAYER_REGISTRY.registrationLocked(gameID)\n            ) {\n                availableGames[position] = allGames[i];\n                position++;\n            }\n        }\n        return availableGames;\n    }\n}\n",
  "sourcePath": "/Users/max/demo/hexploration/contracts/HexplorationBoard.sol",
  "compiler": {
    "name": "solc",
    "version": "0.8.11+commit.d7f03943.Emscripten.clang"
  },
  "schemaVersion": "3.4.2",
  "updatedAt": "2022-05-27T08:23:43.589Z",
  "devdoc": {
    "kind": "dev",
    "methods": {
      "getRoleAdmin(bytes32)": {
        "details": "Returns the admin role that controls `role`. See {grantRole} and {revokeRole}. To change a role's admin, use {_setRoleAdmin}."
      },
      "getRoleMember(bytes32,uint256)": {
        "details": "Returns one of the accounts that have `role`. `index` must be a value between 0 and {getRoleMemberCount}, non-inclusive. Role bearers are not sorted in any particular way, and their ordering may change at any point. WARNING: When using {getRoleMember} and {getRoleMemberCount}, make sure you perform all queries on the same block. See the following https://forum.openzeppelin.com/t/iterating-over-elements-on-enumerableset-in-openzeppelin-contracts/2296[forum post] for more information."
      },
      "getRoleMemberCount(bytes32)": {
        "details": "Returns the number of accounts that have `role`. Can be used together with {getRoleMember} to enumerate all bearers of a role."
      },
      "grantRole(bytes32,address)": {
        "details": "Grants `role` to `account`. If `account` had not been already granted `role`, emits a {RoleGranted} event. Requirements: - the caller must have ``role``'s admin role."
      },
      "hasRole(bytes32,address)": {
        "details": "Returns `true` if `account` has been granted `role`."
      },
      "renounceRole(bytes32,address)": {
        "details": "Revokes `role` from the calling account. Roles are often managed via {grantRole} and {revokeRole}: this function's purpose is to provide a mechanism for accounts to lose their privileges if they are compromised (such as when a trusted device is misplaced). If the calling account had been revoked `role`, emits a {RoleRevoked} event. Requirements: - the caller must be `account`."
      },
      "revokeRole(bytes32,address)": {
        "details": "Revokes `role` from `account`. If `account` had been granted `role`, emits a {RoleRevoked} event. Requirements: - the caller must have ``role``'s admin role."
      },
      "supportsInterface(bytes4)": {
        "details": "See {IERC165-supportsInterface}."
      }
    },
    "version": 1
  },
  "userdoc": {
    "kind": "user",
    "methods": {},
    "version": 1
  }
}