{
  "contractName": "HexplorationQueue",
  "abi": [
    {
      "inputs": [
        {
          "internalType": "address",
          "name": "gameplayAddress",
          "type": "address"
        }
      ],
      "stateMutability": "nonpayable",
      "type": "constructor"
    },
    {
      "anonymous": false,
      "inputs": [
        {
          "indexed": true,
          "internalType": "bytes32",
          "name": "role",
          "type": "bytes32"
        },
        {
          "indexed": true,
          "internalType": "bytes32",
          "name": "previousAdminRole",
          "type": "bytes32"
        },
        {
          "indexed": true,
          "internalType": "bytes32",
          "name": "newAdminRole",
          "type": "bytes32"
        }
      ],
      "name": "RoleAdminChanged",
      "type": "event"
    },
    {
      "anonymous": false,
      "inputs": [
        {
          "indexed": true,
          "internalType": "bytes32",
          "name": "role",
          "type": "bytes32"
        },
        {
          "indexed": true,
          "internalType": "address",
          "name": "account",
          "type": "address"
        },
        {
          "indexed": true,
          "internalType": "address",
          "name": "sender",
          "type": "address"
        }
      ],
      "name": "RoleGranted",
      "type": "event"
    },
    {
      "anonymous": false,
      "inputs": [
        {
          "indexed": true,
          "internalType": "bytes32",
          "name": "role",
          "type": "bytes32"
        },
        {
          "indexed": true,
          "internalType": "address",
          "name": "account",
          "type": "address"
        },
        {
          "indexed": true,
          "internalType": "address",
          "name": "sender",
          "type": "address"
        }
      ],
      "name": "RoleRevoked",
      "type": "event"
    },
    {
      "inputs": [],
      "name": "DEFAULT_ADMIN_ROLE",
      "outputs": [
        {
          "internalType": "bytes32",
          "name": "",
          "type": "bytes32"
        }
      ],
      "stateMutability": "view",
      "type": "function",
      "constant": true
    },
    {
      "inputs": [],
      "name": "GAMEPLAY_ROLE",
      "outputs": [
        {
          "internalType": "bytes32",
          "name": "",
          "type": "bytes32"
        }
      ],
      "stateMutability": "view",
      "type": "function",
      "constant": true
    },
    {
      "inputs": [],
      "name": "VERIFIED_CONTROLLER_ROLE",
      "outputs": [
        {
          "internalType": "bytes32",
          "name": "",
          "type": "bytes32"
        }
      ],
      "stateMutability": "view",
      "type": "function",
      "constant": true
    },
    {
      "inputs": [
        {
          "internalType": "uint256",
          "name": "",
          "type": "uint256"
        }
      ],
      "name": "currentPhase",
      "outputs": [
        {
          "internalType": "enum HexplorationQueue.ProcessingPhase",
          "name": "",
          "type": "uint8"
        }
      ],
      "stateMutability": "view",
      "type": "function",
      "constant": true
    },
    {
      "inputs": [
        {
          "internalType": "uint256",
          "name": "",
          "type": "uint256"
        }
      ],
      "name": "currentQueuePosition",
      "outputs": [
        {
          "internalType": "uint16",
          "name": "",
          "type": "uint16"
        }
      ],
      "stateMutability": "view",
      "type": "function",
      "constant": true
    },
    {
      "inputs": [
        {
          "internalType": "uint256",
          "name": "",
          "type": "uint256"
        }
      ],
      "name": "game",
      "outputs": [
        {
          "internalType": "uint256",
          "name": "",
          "type": "uint256"
        }
      ],
      "stateMutability": "view",
      "type": "function",
      "constant": true
    },
    {
      "inputs": [
        {
          "internalType": "bytes32",
          "name": "role",
          "type": "bytes32"
        }
      ],
      "name": "getRoleAdmin",
      "outputs": [
        {
          "internalType": "bytes32",
          "name": "",
          "type": "bytes32"
        }
      ],
      "stateMutability": "view",
      "type": "function",
      "constant": true
    },
    {
      "inputs": [
        {
          "internalType": "bytes32",
          "name": "role",
          "type": "bytes32"
        },
        {
          "internalType": "uint256",
          "name": "index",
          "type": "uint256"
        }
      ],
      "name": "getRoleMember",
      "outputs": [
        {
          "internalType": "address",
          "name": "",
          "type": "address"
        }
      ],
      "stateMutability": "view",
      "type": "function",
      "constant": true
    },
    {
      "inputs": [
        {
          "internalType": "bytes32",
          "name": "role",
          "type": "bytes32"
        }
      ],
      "name": "getRoleMemberCount",
      "outputs": [
        {
          "internalType": "uint256",
          "name": "",
          "type": "uint256"
        }
      ],
      "stateMutability": "view",
      "type": "function",
      "constant": true
    },
    {
      "inputs": [
        {
          "internalType": "bytes32",
          "name": "role",
          "type": "bytes32"
        },
        {
          "internalType": "address",
          "name": "account",
          "type": "address"
        }
      ],
      "name": "grantRole",
      "outputs": [],
      "stateMutability": "nonpayable",
      "type": "function"
    },
    {
      "inputs": [
        {
          "internalType": "bytes32",
          "name": "role",
          "type": "bytes32"
        },
        {
          "internalType": "address",
          "name": "account",
          "type": "address"
        }
      ],
      "name": "hasRole",
      "outputs": [
        {
          "internalType": "bool",
          "name": "",
          "type": "bool"
        }
      ],
      "stateMutability": "view",
      "type": "function",
      "constant": true
    },
    {
      "inputs": [
        {
          "internalType": "uint256",
          "name": "",
          "type": "uint256"
        }
      ],
      "name": "inProcessingQueue",
      "outputs": [
        {
          "internalType": "bool",
          "name": "",
          "type": "bool"
        }
      ],
      "stateMutability": "view",
      "type": "function",
      "constant": true
    },
    {
      "inputs": [
        {
          "internalType": "uint256",
          "name": "",
          "type": "uint256"
        }
      ],
      "name": "playThroughPosition",
      "outputs": [
        {
          "internalType": "uint16",
          "name": "",
          "type": "uint16"
        }
      ],
      "stateMutability": "view",
      "type": "function",
      "constant": true
    },
    {
      "inputs": [
        {
          "internalType": "uint256",
          "name": "",
          "type": "uint256"
        },
        {
          "internalType": "uint256",
          "name": "",
          "type": "uint256"
        }
      ],
      "name": "playerSubmitted",
      "outputs": [
        {
          "internalType": "bool",
          "name": "",
          "type": "bool"
        }
      ],
      "stateMutability": "view",
      "type": "function",
      "constant": true
    },
    {
      "inputs": [
        {
          "internalType": "uint256",
          "name": "",
          "type": "uint256"
        },
        {
          "internalType": "uint256",
          "name": "",
          "type": "uint256"
        }
      ],
      "name": "players",
      "outputs": [
        {
          "internalType": "uint256",
          "name": "",
          "type": "uint256"
        }
      ],
      "stateMutability": "view",
      "type": "function",
      "constant": true
    },
    {
      "inputs": [
        {
          "internalType": "uint256",
          "name": "",
          "type": "uint256"
        }
      ],
      "name": "processingQueue",
      "outputs": [
        {
          "internalType": "uint256",
          "name": "",
          "type": "uint256"
        }
      ],
      "stateMutability": "view",
      "type": "function",
      "constant": true
    },
    {
      "inputs": [
        {
          "internalType": "uint256",
          "name": "",
          "type": "uint256"
        }
      ],
      "name": "queueID",
      "outputs": [
        {
          "internalType": "uint256",
          "name": "",
          "type": "uint256"
        }
      ],
      "stateMutability": "view",
      "type": "function",
      "constant": true
    },
    {
      "inputs": [
        {
          "internalType": "bytes32",
          "name": "role",
          "type": "bytes32"
        },
        {
          "internalType": "address",
          "name": "account",
          "type": "address"
        }
      ],
      "name": "renounceRole",
      "outputs": [],
      "stateMutability": "nonpayable",
      "type": "function"
    },
    {
      "inputs": [
        {
          "internalType": "bytes32",
          "name": "role",
          "type": "bytes32"
        },
        {
          "internalType": "address",
          "name": "account",
          "type": "address"
        }
      ],
      "name": "revokeRole",
      "outputs": [],
      "stateMutability": "nonpayable",
      "type": "function"
    },
    {
      "inputs": [
        {
          "internalType": "uint256",
          "name": "",
          "type": "uint256"
        },
        {
          "internalType": "uint256",
          "name": "",
          "type": "uint256"
        }
      ],
      "name": "submissionAction",
      "outputs": [
        {
          "internalType": "enum HexplorationQueue.Action",
          "name": "",
          "type": "uint8"
        }
      ],
      "stateMutability": "view",
      "type": "function",
      "constant": true
    },
    {
      "inputs": [
        {
          "internalType": "uint256",
          "name": "",
          "type": "uint256"
        },
        {
          "internalType": "uint256",
          "name": "",
          "type": "uint256"
        }
      ],
      "name": "submissionLeftHand",
      "outputs": [
        {
          "internalType": "string",
          "name": "",
          "type": "string"
        }
      ],
      "stateMutability": "view",
      "type": "function",
      "constant": true
    },
    {
      "inputs": [
        {
          "internalType": "uint256",
          "name": "",
          "type": "uint256"
        },
        {
          "internalType": "uint256",
          "name": "",
          "type": "uint256"
        },
        {
          "internalType": "uint256",
          "name": "",
          "type": "uint256"
        }
      ],
      "name": "submissionOptions",
      "outputs": [
        {
          "internalType": "string",
          "name": "",
          "type": "string"
        }
      ],
      "stateMutability": "view",
      "type": "function",
      "constant": true
    },
    {
      "inputs": [
        {
          "internalType": "uint256",
          "name": "",
          "type": "uint256"
        },
        {
          "internalType": "uint256",
          "name": "",
          "type": "uint256"
        }
      ],
      "name": "submissionRightHand",
      "outputs": [
        {
          "internalType": "string",
          "name": "",
          "type": "string"
        }
      ],
      "stateMutability": "view",
      "type": "function",
      "constant": true
    },
    {
      "inputs": [
        {
          "internalType": "bytes4",
          "name": "interfaceId",
          "type": "bytes4"
        }
      ],
      "name": "supportsInterface",
      "outputs": [
        {
          "internalType": "bool",
          "name": "",
          "type": "bool"
        }
      ],
      "stateMutability": "view",
      "type": "function",
      "constant": true
    },
    {
      "inputs": [
        {
          "internalType": "uint256",
          "name": "",
          "type": "uint256"
        }
      ],
      "name": "totalPlayers",
      "outputs": [
        {
          "internalType": "uint256",
          "name": "",
          "type": "uint256"
        }
      ],
      "stateMutability": "view",
      "type": "function",
      "constant": true
    },
    {
      "inputs": [
        {
          "internalType": "address",
          "name": "gsuAddress",
          "type": "address"
        }
      ],
      "name": "setGameStateUpdate",
      "outputs": [],
      "stateMutability": "nonpayable",
      "type": "function"
    },
    {
      "inputs": [
        {
          "internalType": "address",
          "name": "controllerAddress",
          "type": "address"
        }
      ],
      "name": "addVerifiedController",
      "outputs": [],
      "stateMutability": "nonpayable",
      "type": "function"
    },
    {
      "inputs": [
        {
          "internalType": "uint256",
          "name": "gameID",
          "type": "uint256"
        },
        {
          "internalType": "uint256",
          "name": "_totalPlayers",
          "type": "uint256"
        }
      ],
      "name": "requestGameQueue",
      "outputs": [
        {
          "internalType": "uint256",
          "name": "",
          "type": "uint256"
        }
      ],
      "stateMutability": "nonpayable",
      "type": "function"
    },
    {
      "inputs": [
        {
          "internalType": "uint256",
          "name": "_queueID",
          "type": "uint256"
        }
      ],
      "name": "startGame",
      "outputs": [],
      "stateMutability": "nonpayable",
      "type": "function"
    },
    {
      "inputs": [
        {
          "internalType": "uint256",
          "name": "playerID",
          "type": "uint256"
        },
        {
          "internalType": "uint8",
          "name": "action",
          "type": "uint8"
        },
        {
          "internalType": "string[]",
          "name": "options",
          "type": "string[]"
        },
        {
          "internalType": "string",
          "name": "leftHand",
          "type": "string"
        },
        {
          "internalType": "string",
          "name": "rightHand",
          "type": "string"
        },
        {
          "internalType": "uint256",
          "name": "_queueID",
          "type": "uint256"
        }
      ],
      "name": "sumbitActionForPlayer",
      "outputs": [],
      "stateMutability": "nonpayable",
      "type": "function"
    },
    {
      "inputs": [
        {
          "internalType": "uint256",
          "name": "_queueID",
          "type": "uint256"
        }
      ],
      "name": "requestProcessActions",
      "outputs": [],
      "stateMutability": "nonpayable",
      "type": "function"
    },
    {
      "inputs": [
        {
          "internalType": "uint256",
          "name": "_queueID",
          "type": "uint256"
        }
      ],
      "name": "getAllPlayers",
      "outputs": [
        {
          "internalType": "uint256[]",
          "name": "",
          "type": "uint256[]"
        }
      ],
      "stateMutability": "view",
      "type": "function",
      "constant": true
    },
    {
      "inputs": [
        {
          "internalType": "uint256",
          "name": "_queueID",
          "type": "uint256"
        },
        {
          "internalType": "uint256",
          "name": "_playerID",
          "type": "uint256"
        }
      ],
      "name": "getSubmissionOptions",
      "outputs": [
        {
          "internalType": "string[]",
          "name": "",
          "type": "string[]"
        }
      ],
      "stateMutability": "view",
      "type": "function",
      "constant": true
    },
    {
      "inputs": [
        {
          "internalType": "enum HexplorationQueue.ProcessingPhase",
          "name": "phase",
          "type": "uint8"
        },
        {
          "internalType": "uint256",
          "name": "_queueID",
          "type": "uint256"
        }
      ],
      "name": "setPhase",
      "outputs": [],
      "stateMutability": "nonpayable",
      "type": "function"
    },
    {
      "inputs": [
        {
          "internalType": "uint256",
          "name": "randomNumber",
          "type": "uint256"
        },
        {
          "internalType": "uint256",
          "name": "_queueID",
          "type": "uint256"
        }
      ],
      "name": "setRandomNumber",
      "outputs": [],
      "stateMutability": "nonpayable",
      "type": "function"
    },
    {
      "inputs": [
        {
          "internalType": "uint256",
          "name": "_queueID",
          "type": "uint256"
        }
      ],
      "name": "requestNewQueueID",
      "outputs": [],
      "stateMutability": "nonpayable",
      "type": "function"
    },
    {
      "inputs": [
        {
          "internalType": "uint256[]",
          "name": "intUpdates",
          "type": "uint256[]"
        },
        {
          "internalType": "string[]",
          "name": "stringUpdates",
          "type": "string[]"
        }
      ],
      "name": "postUpdates",
      "outputs": [],
      "stateMutability": "nonpayable",
      "type": "function"
    },
    {
      "inputs": [
        {
          "internalType": "uint256",
          "name": "_queueID",
          "type": "uint256"
        },
        {
          "internalType": "bool",
          "name": "gameComplete",
          "type": "bool"
        }
      ],
      "name": "finishProcessing",
      "outputs": [],
      "stateMutability": "nonpayable",
      "type": "function"
    }
  ],
  "bytecode": "0x60806040523480156200001157600080fd5b506040516200213b3803806200213b83398101604081905262000034916200027d565b6200005c60006200004d640100000000620000b2810204565b640100000000620000b6810204565b620000917f0c2c7e957bdf811d5a896b04e816b9c382dfb980c93b21b0288b75c85d598acd82640100000000620000b6810204565b620000ab600264010000000062000e36620000cf82021704565b50620002af565b3390565b620000cb8282640100000000620000d8810204565b5050565b80546001019055565b620000f2828264010000000062000e3f6200011f82021704565b60008281526001602052604090206200011a908264010000000062000ec3620001bb82021704565b505050565b620001348282640100000000620001e4810204565b620000cb57600082815260208181526040808320600160a060020a03851684529091529020805460ff1916600117905562000177640100000000620000b2810204565b600160a060020a031681600160a060020a0316837f2f8788117e7eff1d82e926ec794901d17c78024a50270940304540a733656f0d60405160405180910390a45050565b6000620001db83600160a060020a0384166401000000006200020d810204565b90505b92915050565b600091825260208281526040808420600160a060020a0393909316845291905290205460ff1690565b600062000224838364010000000062000265810204565b6200025c57508154600181810184556000848152602080822090930184905584548482528286019093526040902091909155620001de565b506000620001de565b60009081526001919091016020526040902054151590565b6000602082840312156200029057600080fd5b8151600160a060020a0381168114620002a857600080fd5b9392505050565b611e7c80620002bf6000396000f3fe608060405234801561001057600080fd5b506004361061022f576000357c0100000000000000000000000000000000000000000000000000000000900480639b8e68191161013d578063b1fb6405116100d5578063d809371f11610099578063d809371f146105b4578063e2f315c1146105c7578063e5ed1d59146105eb578063e73ed37f146105fe578063fd82e21f1461062c57600080fd5b8063b1fb64051461052b578063ca15c8731461055b578063cddbe7291461056e578063d4f5b1521461058e578063d547741f146105a157600080fd5b80639b8e6819146104545780639bd78d2b146104675780639f6bc61d1461048a578063a217fddf1461049d578063a2dc5860146104a5578063a605e7ae146104c5578063ac01b83d146104d8578063ae6a7056146104f8578063af7afe561461050b57600080fd5b80632f2ff15d116101cb578063861814e21161018f578063861814e2146103d05780638e6e1d89146103f05780639010d07c1461040357806391d148541461042e578063998f1b801461044157600080fd5b80632f2ff15d1461034957806336568abe1461035c5780635da4fabc1461036f5780636b775e5c146103825780637f0415911461039557600080fd5b806301ffc9a71461023457806304ac8fee1461025c57806306fb5527146102715780630c6ea531146102925780631826d842146102c95780631b341b3e146102dc5780631c834a7f146102fc578063248a9ca31461031157806328d6b4c014610334575b600080fd5b61024761024236600461170f565b61063f565b60405190151581526020015b60405180910390f35b61026f61026a366004611739565b610683565b005b61028461027f366004611769565b6106d0565b604051908152602001610253565b6102b66102a036600461178b565b60056020526000908152604090205461ffff1681565b60405161ffff9091168152602001610253565b61026f6102d736600461190f565b6106fc565b6102ef6102ea3660046119c5565b610719565b6040516102539190611a4d565b610284600080516020611e2783398151915281565b61028461031f36600461178b565b60009081526020819052604090206001015490565b610284600080516020611e0783398151915281565b61026f610357366004611a7c565b6107df565b61026f61036a366004611a7c565b610804565b61026f61037d366004611769565b610898565b61026f61039036600461178b565b6108c2565b6103c36103a3366004611769565b600d60209081526000928352604080842090915290825290205460ff1681565b6040516102539190611ac1565b6102846103de36600461178b565b60076020526000908152604090205481565b61026f6103fe366004611adb565b6108e3565b610416610411366004611769565b610905565b604051600160a060020a039091168152602001610253565b61024761043c366004611a7c565b610924565b61028461044f366004611769565b61094d565b6102ef610462366004611769565b61097e565b61024761047536600461178b565b60086020526000908152604090205460ff1681565b61028461049836600461178b565b6109a2565b610284600081565b6104b86104b3366004611769565b6109c3565b6040516102539190611b10565b61026f6104d3366004611b71565b610ab1565b6104eb6104e636600461178b565b610aec565b6040516102539190611b8c565b61026f610506366004611bd0565b610b4e565b61028461051936600461178b565b600c6020526000908152604090205481565b61054e61053936600461178b565b60096020526000908152604090205460ff1681565b6040516102539190611c83565b61028461056936600461178b565b610d2a565b61028461057c36600461178b565b600a6020526000908152604090205481565b61026f61059c366004611b71565b610d41565b61026f6105af366004611a7c565b610d64565b61026f6105c236600461178b565b610d89565b6102b66105d536600461178b565b60066020526000908152604090205461ffff1681565b61026f6105f936600461178b565b610dde565b61024761060c366004611769565b601160209081526000928352604080842090915290825290205460ff1681565b6102ef61063a366004611769565b610e12565b6000600160e060020a031982167f5a05180f00000000000000000000000000000000000000000000000000000000148061067d575061067d82610ed8565b92915050565b600080516020611e0783398151915261069b81610f3f565b6000828152600960205260409020805484919060ff191660018360058111156106c6576106c6611aa8565b0217905550505050565b6000600080516020611e278339815191526106ea81610f3f565b6106f48484610f4c565b949350505050565b600080516020611e0783398151915261071481610f3f565b505050565b600e602052826000526040600020602052816000526040600020818154811061074157600080fd5b906000526020600020016000925092505050805461075e90611c97565b80601f016020809104026020016040519081016040528092919081815260200182805461078a90611c97565b80156107d75780601f106107ac576101008083540402835291602001916107d7565b820191906000526020600020905b8154815290600101906020018083116107ba57829003601f168201915b505050505081565b6000828152602081905260409020600101546107fa81610f3f565b6107148383610ff4565b600160a060020a038116331461088a5760405160e560020a62461bcd02815260206004820152602f60248201527f416363657373436f6e74726f6c3a2063616e206f6e6c792072656e6f756e636560448201527f20726f6c657320666f722073656c66000000000000000000000000000000000060648201526084015b60405180910390fd5b6108948282611016565b5050565b600080516020611e078339815191526108b081610f3f565b50600090815260126020526040902055565b600080516020611e278339815191526108da81610f3f565b61089482611038565b600080516020611e078339815191526108fb81610f3f565b61071483836110e1565b600082815260016020526040812061091d9083611161565b9392505050565b600091825260208281526040808420600160a060020a0393909316845291905290205460ff1690565b600b602052816000526040600020818154811061096957600080fd5b90600052602060002001600091509150505481565b60106020908152600092835260408084209091529082529020805461075e90611c97565b600481815481106109b257600080fd5b600091825260209091200154905081565b6000828152600e602090815260408083208484528252808320805482518185028101850190935280835260609492939192909184015b82821015610aa5578382906000526020600020018054610a1890611c97565b80601f0160208091040260200160405190810160405280929190818152602001828054610a4490611c97565b8015610a915780601f10610a6657610100808354040283529160200191610a91565b820191906000526020600020905b815481529060010190602001808311610a7457829003601f168201915b5050505050815260200190600101906109f9565b50505050905092915050565b6000610abc81610f3f565b506003805473ffffffffffffffffffffffffffffffffffffffff1916600160a060020a0392909216919091179055565b6000818152600b6020908152604091829020805483518184028101840190945280845260609392830182828015610b4257602002820191906000526020600020905b815481526020019060010190808311610b2e575b50505050509050919050565b600080516020611e27833981519152610b6681610f3f565b600160008381526009602052604090205460ff166005811115610b8b57610b8b611aa8565b14610bdb5760405160e560020a62461bcd02815260206004820152601460248201527f4e6f74207375626d697373696f6e2070686173650000000000000000000000006044820152606401610881565b60008281526011602090815260408083208a845290915290205460ff16610d21578560ff166006811115610c1157610c11611aa8565b6000838152600d602090815260408083208b84529091529020805460ff19166001836006811115610c4457610c44611aa8565b02179055506000828152600e602090815260408083208a845282529091208651610c70928801906115c6565b506000828152600f602090815260408083208a845282529091208551610c9892870190611623565b5060008281526010602090815260408083208a845282529091208451610cc092860190611623565b506000828152600b602081815260408084208054600181810183558287528487209091018d9055878652601184528286208d87528452828620805460ff19169091179055868552600c8352932054919052905410610d2157610d2182611038565b50505050505050565b600081815260016020526040812061067d9061116d565b6000610d4c81610f3f565b610894600080516020611e27833981519152836107df565b600082815260208190526040902060010154610d7f81610f3f565b6107148383611016565b600080516020611e07833981519152610da181610f3f565b6000828152600a6020908152604080832054600c90925290912054610dc68282610f4c565b60009283526007602052604090922091909155505050565b600080516020611e27833981519152610df681610f3f565b506000908152600960205260409020805460ff19166001179055565b600f6020908152600092835260408084209091529082529020805461075e90611c97565b80546001019055565b610e498282610924565b61089457600082815260208181526040808320600160a060020a03851684529091529020805460ff19166001179055610e7f3390565b600160a060020a031681600160a060020a0316837f2f8788117e7eff1d82e926ec794901d17c78024a50270940304540a733656f0d60405160405180910390a45050565b600061091d83600160a060020a038416611177565b6000600160e060020a031982167f7965db0b00000000000000000000000000000000000000000000000000000000148061067d57507f01ffc9a700000000000000000000000000000000000000000000000000000000600160e060020a031983161461067d565b610f4981336111c6565b50565b60008281526007602052604081205415610fab5760405160e560020a62461bcd02815260206004820152601160248201527f717565756520616c7265616479207365740000000000000000000000000000006044820152606401610881565b6000610fb660025490565b6000818152600a6020908152604080832088905587835260078252808320849055838352600c9091529020849055905061091d600280546001019055565b610ffe8282610e3f565b60008281526001602052604090206107149082610ec3565b611020828261122d565b60008281526001602052604090206107149082611292565b60008181526008602052604090205460ff161580156110795750600160008281526009602052604090205460ff16600581111561107757611077611aa8565b145b15610f49576004805460018082019092557f8a35acfbc15ff81a39ae7d344fd709f28e8600b4aa8c65c6b64bfe7fe36bd19b018290556000918252600860209081526040808420805460ff199081169094179055600990915290912080549091166002179055565b6000828152600a602090815260408083205460098352818420805460ff19166004179055808452600790925282209190915581610714576000838152600c6020526040812054906111328383610f4c565b600093845260076020908152604080862083905591855260099052909220805460ff1916600117905550505050565b600061091d83836112a7565b600061067d825490565b60008181526001830160205260408120546111be5750815460018181018455600084815260208082209093018490558454848252828601909352604090209190915561067d565b50600061067d565b6111d08282610924565b610894576111e881600160a060020a031660146112d1565b6111f38360206112d1565b604051602001611204929190611cd5565b60408051601f198184030181529082905260e560020a62461bcd02825261088191600401611a4d565b6112378282610924565b1561089457600082815260208181526040808320600160a060020a0385168085529252808320805460ff1916905551339285917ff6391f5c32d9c69d2a47ea670b442974b53935d1edc7fd64eb21e047a839171b9190a45050565b600061091d83600160a060020a0384166114d3565b60008260000182815481106112be576112be611d56565b9060005260206000200154905092915050565b606060006112e0836002611d88565b6112eb906002611da7565b67ffffffffffffffff811115611303576113036117a4565b6040519080825280601f01601f19166020018201604052801561132d576020820181803683370190505b5090507f30000000000000000000000000000000000000000000000000000000000000008160008151811061136457611364611d56565b6020010190600160f860020a031916908160001a9053507f7800000000000000000000000000000000000000000000000000000000000000816001815181106113af576113af611d56565b6020010190600160f860020a031916908160001a90535060006113d3846002611d88565b6113de906001611da7565b90505b6001811115611481577f303132333435363738396162636465660000000000000000000000000000000085600f166010811061141f5761141f611d56565b1a7f01000000000000000000000000000000000000000000000000000000000000000282828151811061145457611454611d56565b6020010190600160f860020a031916908160001a90535060109094049361147a81611dbf565b90506113e1565b50831561091d5760405160e560020a62461bcd02815260206004820181905260248201527f537472696e67733a20686578206c656e67746820696e73756666696369656e746044820152606401610881565b600081815260018301602052604081205480156115bc5760006114f7600183611dd6565b855490915060009061150b90600190611dd6565b905081811461157057600086600001828154811061152b5761152b611d56565b906000526020600020015490508087600001848154811061154e5761154e611d56565b6000918252602080832090910192909255918252600188019052604090208390555b855486908061158157611581611ded565b60019003818190600052602060002001600090559055856001016000868152602001908152602001600020600090556001935050505061067d565b600091505061067d565b828054828255906000526020600020908101928215611613579160200282015b828111156116135782518051611603918491602090910190611623565b50916020019190600101906115e6565b5061161f9291506116a3565b5090565b82805461162f90611c97565b90600052602060002090601f0160209004810192826116515760008555611697565b82601f1061166a57805160ff1916838001178555611697565b82800160010185558215611697579182015b8281111561169757825182559160200191906001019061167c565b5061161f9291506116c0565b8082111561161f5760006116b782826116d5565b506001016116a3565b5b8082111561161f57600081556001016116c1565b5080546116e190611c97565b6000825580601f106116f1575050565b601f016020900490600052602060002090810190610f4991906116c0565b60006020828403121561172157600080fd5b8135600160e060020a03198116811461091d57600080fd5b6000806040838503121561174c57600080fd5b82356006811061175b57600080fd5b946020939093013593505050565b6000806040838503121561177c57600080fd5b50508035926020909101359150565b60006020828403121561179d57600080fd5b5035919050565b60e060020a634e487b7102600052604160045260246000fd5b604051601f8201601f1916810167ffffffffffffffff811182821017156117e6576117e66117a4565b604052919050565b600067ffffffffffffffff821115611808576118086117a4565b5060209081020190565b600082601f83011261182357600080fd5b813567ffffffffffffffff81111561183d5761183d6117a4565b611850601f8201601f19166020016117bd565b81815284602083860101111561186557600080fd5b816020850160208301376000918101602001919091529392505050565b600082601f83011261189357600080fd5b813560206118a86118a3836117ee565b6117bd565b828152918102840181019181810190868411156118c457600080fd5b8286015b8481101561190457803567ffffffffffffffff8111156118e85760008081fd5b6118f68986838b0101611812565b8452509183019183016118c8565b509695505050505050565b6000806040838503121561192257600080fd5b823567ffffffffffffffff8082111561193a57600080fd5b818501915085601f83011261194e57600080fd5b8135602061195e6118a3836117ee565b8281529181028401810191818101908984111561197a57600080fd5b948201945b838610156119985785358252948201949082019061197f565b965050860135925050808211156119ae57600080fd5b506119bb85828601611882565b9150509250929050565b6000806000606084860312156119da57600080fd5b505081359360208301359350604090920135919050565b60005b83811015611a0c5781810151838201526020016119f4565b83811115611a1b576000848401525b50505050565b60008151808452611a398160208601602086016119f1565b601f01601f19169290920160200192915050565b60208152600061091d6020830184611a21565b8035600160a060020a0381168114611a7757600080fd5b919050565b60008060408385031215611a8f57600080fd5b82359150611a9f60208401611a60565b90509250929050565b60e060020a634e487b7102600052602160045260246000fd5b6020810160078310611ad557611ad5611aa8565b91905290565b60008060408385031215611aee57600080fd5b8235915060208301358015158114611b0557600080fd5b809150509250929050565b600060208083018184528085518083526040860191506040848202870101925083870160005b82811015611b6457603f19888603018452611b52858351611a21565b94509285019290850190600101611b36565b5092979650505050505050565b600060208284031215611b8357600080fd5b61091d82611a60565b6020808252825182820181905260009190848201906040850190845b81811015611bc457835183529284019291840191600101611ba8565b50909695505050505050565b60008060008060008060c08789031215611be957600080fd5b86359550602087013560ff81168114611c0157600080fd5b9450604087013567ffffffffffffffff80821115611c1e57600080fd5b611c2a8a838b01611882565b95506060890135915080821115611c4057600080fd5b611c4c8a838b01611812565b94506080890135915080821115611c6257600080fd5b50611c6f89828a01611812565b92505060a087013590509295509295509295565b6020810160068310611ad557611ad5611aa8565b600281046001821680611cab57607f821691505b60208210811415611ccf5760e060020a634e487b7102600052602260045260246000fd5b50919050565b7f416363657373436f6e74726f6c3a206163636f756e7420000000000000000000815260008351611d0d8160178501602088016119f1565b7f206973206d697373696e6720726f6c65200000000000000000000000000000006017918401918201528351611d4a8160288401602088016119f1565b01602801949350505050565b60e060020a634e487b7102600052603260045260246000fd5b60e060020a634e487b7102600052601160045260246000fd5b6000816000190483118215151615611da257611da2611d6f565b500290565b60008219821115611dba57611dba611d6f565b500190565b600081611dce57611dce611d6f565b506000190190565b600082821015611de857611de8611d6f565b500390565b60e060020a634e487b7102600052603160045260246000fdfe0c2c7e957bdf811d5a896b04e816b9c382dfb980c93b21b0288b75c85d598acd80e2196015fc06a9d891759f8e4f51eb314ef5e9ea068528a8ed0063b87759f0a2646970667358221220bffbeab6c86c978f8bbd4653319b989c3dd2efb241367ec6269a8ed2e2224de664736f6c634300080b0033",
  "immutableReferences": {},
  "source": "// SPDX-License-Identifier: GPL-3.0\npragma solidity >=0.7.0 <0.9.0;\n\nimport \"@openzeppelin/contracts/access/AccessControlEnumerable.sol\";\nimport \"@openzeppelin/contracts/utils/Counters.sol\";\nimport \"./HexplorationStateUpdate.sol\";\n\ncontract HexplorationQueue is AccessControlEnumerable {\n    using Counters for Counters.Counter;\n    Counters.Counter internal QUEUE_ID;\n\n    HexplorationStateUpdate GAME_STATE;\n\n    enum ProcessingPhase {\n        Start,\n        Submission,\n        Processing,\n        PlayThrough,\n        Processed,\n        Closed\n    }\n    enum Action {\n        Idle,\n        Move,\n        SetupCamp,\n        BreakDownCamp,\n        Dig,\n        Rest,\n        Help\n    }\n\n    bytes32 public constant VERIFIED_CONTROLLER_ROLE =\n        keccak256(\"VERIFIED_CONTROLLER_ROLE\");\n    bytes32 public constant GAMEPLAY_ROLE = keccak256(\"GAMEPLAY_ROLE\");\n\n    // Array of Queue IDs to be processed.\n    uint256[] public processingQueue;\n\n    // do we need these 2?\n    mapping(uint256 => uint16) public currentQueuePosition; // ?? increases with each player in queue, then back to 0\n    mapping(uint256 => uint16) public playThroughPosition; // ?? in case we need to batch this too... hopefully not.\n\n    // mapping from game ID\n    mapping(uint256 => uint256) public queueID; // mapping from game ID to it's queue, updates to 0 when finished\n\n    // mappings from queue index\n    mapping(uint256 => bool) public inProcessingQueue; // game queue is in processing queue\n    mapping(uint256 => ProcessingPhase) public currentPhase; // processingPhase\n    mapping(uint256 => uint256) public game; // mapping from queue ID to it's game ID\n    mapping(uint256 => uint256[]) public players; // all players with moves to process\n    mapping(uint256 => uint256) public totalPlayers; // total # of players who will be submitting\n\n    // mappings from queue index => player id\n    mapping(uint256 => mapping(uint256 => Action)) public submissionAction;\n    mapping(uint256 => mapping(uint256 => string[])) public submissionOptions;\n    mapping(uint256 => mapping(uint256 => string)) public submissionLeftHand;\n    mapping(uint256 => mapping(uint256 => string)) public submissionRightHand;\n    mapping(uint256 => mapping(uint256 => bool)) public playerSubmitted;\n\n    mapping(uint256 => uint256) randomness; // randomness delivered here at start of each phase processing\n\n    ///////  VRF can kick off processing phase\n\n    constructor(address gameplayAddress) {\n        _setupRole(DEFAULT_ADMIN_ROLE, _msgSender());\n        _setupRole(GAMEPLAY_ROLE, gameplayAddress);\n        QUEUE_ID.increment(); // start at 1\n    }\n\n    function setGameStateUpdate(address gsuAddress)\n        public\n        onlyRole(DEFAULT_ADMIN_ROLE)\n    {\n        GAME_STATE = HexplorationStateUpdate(gsuAddress);\n    }\n\n    // Can set multiple VCs, one for manual pushing, one for keeper\n    function addVerifiedController(address controllerAddress)\n        public\n        onlyRole(DEFAULT_ADMIN_ROLE)\n    {\n        grantRole(VERIFIED_CONTROLLER_ROLE, controllerAddress);\n    }\n\n    // pass total # players making submissions\n    // total can be less than actual totalPlayers in game\n    function requestGameQueue(uint256 gameID, uint256 _totalPlayers)\n        external\n        onlyRole(VERIFIED_CONTROLLER_ROLE)\n        returns (uint256)\n    {\n        return _requestGameQueue(gameID, _totalPlayers);\n    }\n\n    // Sent from controller\n\n    function startGame(uint256 _queueID)\n        public\n        onlyRole(VERIFIED_CONTROLLER_ROLE)\n    {\n        currentPhase[_queueID] = ProcessingPhase.Submission;\n    }\n\n    function sumbitActionForPlayer(\n        uint256 playerID,\n        uint8 action,\n        string[] memory options,\n        string memory leftHand,\n        string memory rightHand,\n        uint256 _queueID\n    ) public onlyRole(VERIFIED_CONTROLLER_ROLE) {\n        require(\n            currentPhase[_queueID] == ProcessingPhase.Submission,\n            \"Not submission phase\"\n        );\n        if (!playerSubmitted[_queueID][playerID]) {\n            submissionAction[_queueID][playerID] = Action(action);\n            submissionOptions[_queueID][playerID] = options;\n            submissionLeftHand[_queueID][playerID] = leftHand;\n            submissionRightHand[_queueID][playerID] = rightHand;\n\n            players[_queueID].push(playerID);\n            playerSubmitted[_queueID][playerID] = true;\n            // automatically add to queue if last player to submit move\n            if (players[_queueID].length >= totalPlayers[_queueID]) {\n                _processAllActions(_queueID);\n            }\n        }\n    }\n\n    // Will get processed once keeper is available\n    // and previous game queues have been processed\n    function requestProcessActions(uint256 _queueID)\n        public\n        onlyRole(VERIFIED_CONTROLLER_ROLE)\n    {\n        _processAllActions(_queueID);\n    }\n\n    function getAllPlayers(uint256 _queueID)\n        public\n        view\n        returns (uint256[] memory)\n    {\n        return players[_queueID];\n    }\n\n    function getSubmissionOptions(uint256 _queueID, uint256 _playerID)\n        public\n        view\n        returns (string[] memory)\n    {\n        return submissionOptions[_queueID][_playerID];\n    }\n\n    // Gameplay interactions\n    function setPhase(ProcessingPhase phase, uint256 _queueID)\n        external\n        onlyRole(GAMEPLAY_ROLE)\n    {\n        currentPhase[_queueID] = phase;\n    }\n\n    function setRandomNumber(uint256 randomNumber, uint256 _queueID)\n        external\n        onlyRole(GAMEPLAY_ROLE)\n    {\n        randomness[_queueID] = randomNumber;\n    }\n\n    function requestNewQueueID(uint256 _queueID)\n        external\n        onlyRole(GAMEPLAY_ROLE)\n    {\n        uint256 g = game[_queueID];\n        uint256 tp = totalPlayers[_queueID];\n        queueID[g] = _requestGameQueue(g, tp);\n    }\n\n    function postUpdates(\n        uint256[] memory intUpdates,\n        string[] memory stringUpdates\n    ) public onlyRole(GAMEPLAY_ROLE) {\n        // go through values and post everything, transfer all the tokens, and pray\n        // use gamestate update contract to post everything\n    }\n\n    function finishProcessing(uint256 _queueID, bool gameComplete)\n        public\n        onlyRole(GAMEPLAY_ROLE)\n    {\n        _setProcessingComplete(_queueID, gameComplete);\n    }\n\n    function _setProcessingComplete(uint256 _queueID, bool gameComplete)\n        internal\n    {\n        uint256 g = game[_queueID];\n        currentPhase[_queueID] = ProcessingPhase.Processed;\n        queueID[g] = 0;\n        if (!gameComplete) {\n            // get new queue ID for next set of player actions\n            uint256 tp = totalPlayers[_queueID];\n            uint256 newQueueID = _requestGameQueue(g, tp);\n            queueID[g] = newQueueID;\n            currentPhase[newQueueID] = ProcessingPhase.Submission;\n        }\n    }\n\n    // Internal\n    function _processAllActions(uint256 _queueID) internal {\n        // Can only add unique unprocessed game queues into processing queue\n        if (\n            !inProcessingQueue[_queueID] &&\n            currentPhase[_queueID] == ProcessingPhase.Submission\n        ) {\n            processingQueue.push(_queueID);\n            inProcessingQueue[_queueID] = true;\n            currentPhase[_queueID] = ProcessingPhase.Processing;\n        }\n    }\n\n    function _requestGameQueue(uint256 gameID, uint256 _totalPlayers)\n        internal\n        returns (uint256)\n    {\n        /*\n    mapping(uint256 => uint256) public queueID; // mapping from game ID to it's queue, updates to 0 when finished\n    mapping(uint256 => uint256) public game; // mapping from queue ID to it's game ID\n    mapping(uint256 => uint256[]) public players; // all players with moves to process\n    mapping(uint256 => uint16) public totalPlayers;\n        */\n        require(queueID[gameID] == 0, \"queue already set\");\n        uint256 newQueueID = QUEUE_ID.current();\n        game[newQueueID] = gameID;\n        queueID[gameID] = newQueueID;\n        totalPlayers[newQueueID] = _totalPlayers;\n        QUEUE_ID.increment();\n        return newQueueID;\n    }\n}\n",
  "sourcePath": "/Users/maxmeier/Developer/Lucky Machines/hexploration/contracts/HexplorationQueue.sol",
  "compiler": {
    "name": "solc",
    "version": "0.8.11+commit.d7f03943.Emscripten.clang"
  },
  "schemaVersion": "3.4.4",
  "updatedAt": "2022-05-23T15:42:52.223Z",
  "networkType": "ethereum",
  "devdoc": {
    "kind": "dev",
    "methods": {
      "getRoleAdmin(bytes32)": {
        "details": "Returns the admin role that controls `role`. See {grantRole} and {revokeRole}. To change a role's admin, use {_setRoleAdmin}."
      },
      "getRoleMember(bytes32,uint256)": {
        "details": "Returns one of the accounts that have `role`. `index` must be a value between 0 and {getRoleMemberCount}, non-inclusive. Role bearers are not sorted in any particular way, and their ordering may change at any point. WARNING: When using {getRoleMember} and {getRoleMemberCount}, make sure you perform all queries on the same block. See the following https://forum.openzeppelin.com/t/iterating-over-elements-on-enumerableset-in-openzeppelin-contracts/2296[forum post] for more information."
      },
      "getRoleMemberCount(bytes32)": {
        "details": "Returns the number of accounts that have `role`. Can be used together with {getRoleMember} to enumerate all bearers of a role."
      },
      "grantRole(bytes32,address)": {
        "details": "Grants `role` to `account`. If `account` had not been already granted `role`, emits a {RoleGranted} event. Requirements: - the caller must have ``role``'s admin role."
      },
      "hasRole(bytes32,address)": {
        "details": "Returns `true` if `account` has been granted `role`."
      },
      "renounceRole(bytes32,address)": {
        "details": "Revokes `role` from the calling account. Roles are often managed via {grantRole} and {revokeRole}: this function's purpose is to provide a mechanism for accounts to lose their privileges if they are compromised (such as when a trusted device is misplaced). If the calling account had been revoked `role`, emits a {RoleRevoked} event. Requirements: - the caller must be `account`."
      },
      "revokeRole(bytes32,address)": {
        "details": "Revokes `role` from `account`. If `account` had been granted `role`, emits a {RoleRevoked} event. Requirements: - the caller must have ``role``'s admin role."
      },
      "supportsInterface(bytes4)": {
        "details": "See {IERC165-supportsInterface}."
      }
    },
    "version": 1
  },
  "userdoc": {
    "kind": "user",
    "methods": {},
    "version": 1
  }
}