{
  "contractName": "HexplorationController",
  "abi": [
    {
      "inputs": [
        {
          "internalType": "address",
          "name": "adminAddress",
          "type": "address"
        }
      ],
      "stateMutability": "nonpayable",
      "type": "constructor"
    },
    {
      "anonymous": false,
      "inputs": [
        {
          "indexed": true,
          "internalType": "bytes32",
          "name": "role",
          "type": "bytes32"
        },
        {
          "indexed": true,
          "internalType": "bytes32",
          "name": "previousAdminRole",
          "type": "bytes32"
        },
        {
          "indexed": true,
          "internalType": "bytes32",
          "name": "newAdminRole",
          "type": "bytes32"
        }
      ],
      "name": "RoleAdminChanged",
      "type": "event"
    },
    {
      "anonymous": false,
      "inputs": [
        {
          "indexed": true,
          "internalType": "bytes32",
          "name": "role",
          "type": "bytes32"
        },
        {
          "indexed": true,
          "internalType": "address",
          "name": "account",
          "type": "address"
        },
        {
          "indexed": true,
          "internalType": "address",
          "name": "sender",
          "type": "address"
        }
      ],
      "name": "RoleGranted",
      "type": "event"
    },
    {
      "anonymous": false,
      "inputs": [
        {
          "indexed": true,
          "internalType": "bytes32",
          "name": "role",
          "type": "bytes32"
        },
        {
          "indexed": true,
          "internalType": "address",
          "name": "account",
          "type": "address"
        },
        {
          "indexed": true,
          "internalType": "address",
          "name": "sender",
          "type": "address"
        }
      ],
      "name": "RoleRevoked",
      "type": "event"
    },
    {
      "inputs": [],
      "name": "DEFAULT_ADMIN_ROLE",
      "outputs": [
        {
          "internalType": "bytes32",
          "name": "",
          "type": "bytes32"
        }
      ],
      "stateMutability": "view",
      "type": "function"
    },
    {
      "inputs": [],
      "name": "VERIFIED_CONTROLLER_ROLE",
      "outputs": [
        {
          "internalType": "bytes32",
          "name": "",
          "type": "bytes32"
        }
      ],
      "stateMutability": "view",
      "type": "function"
    },
    {
      "inputs": [
        {
          "internalType": "uint256",
          "name": "pathIndex",
          "type": "uint256"
        },
        {
          "internalType": "uint256",
          "name": "gameID",
          "type": "uint256"
        },
        {
          "internalType": "address",
          "name": "gameBoardAddress",
          "type": "address"
        }
      ],
      "name": "exitToPath",
      "outputs": [],
      "stateMutability": "nonpayable",
      "type": "function"
    },
    {
      "inputs": [
        {
          "internalType": "bytes32",
          "name": "role",
          "type": "bytes32"
        }
      ],
      "name": "getRoleAdmin",
      "outputs": [
        {
          "internalType": "bytes32",
          "name": "",
          "type": "bytes32"
        }
      ],
      "stateMutability": "view",
      "type": "function"
    },
    {
      "inputs": [
        {
          "internalType": "bytes32",
          "name": "role",
          "type": "bytes32"
        },
        {
          "internalType": "uint256",
          "name": "index",
          "type": "uint256"
        }
      ],
      "name": "getRoleMember",
      "outputs": [
        {
          "internalType": "address",
          "name": "",
          "type": "address"
        }
      ],
      "stateMutability": "view",
      "type": "function"
    },
    {
      "inputs": [
        {
          "internalType": "bytes32",
          "name": "role",
          "type": "bytes32"
        }
      ],
      "name": "getRoleMemberCount",
      "outputs": [
        {
          "internalType": "uint256",
          "name": "",
          "type": "uint256"
        }
      ],
      "stateMutability": "view",
      "type": "function"
    },
    {
      "inputs": [
        {
          "internalType": "bytes32",
          "name": "role",
          "type": "bytes32"
        },
        {
          "internalType": "address",
          "name": "account",
          "type": "address"
        }
      ],
      "name": "grantRole",
      "outputs": [],
      "stateMutability": "nonpayable",
      "type": "function"
    },
    {
      "inputs": [
        {
          "internalType": "bytes32",
          "name": "role",
          "type": "bytes32"
        },
        {
          "internalType": "address",
          "name": "account",
          "type": "address"
        }
      ],
      "name": "hasRole",
      "outputs": [
        {
          "internalType": "bool",
          "name": "",
          "type": "bool"
        }
      ],
      "stateMutability": "view",
      "type": "function"
    },
    {
      "inputs": [
        {
          "internalType": "bytes32",
          "name": "role",
          "type": "bytes32"
        },
        {
          "internalType": "address",
          "name": "account",
          "type": "address"
        }
      ],
      "name": "renounceRole",
      "outputs": [],
      "stateMutability": "nonpayable",
      "type": "function"
    },
    {
      "inputs": [
        {
          "internalType": "bytes32",
          "name": "role",
          "type": "bytes32"
        },
        {
          "internalType": "address",
          "name": "account",
          "type": "address"
        }
      ],
      "name": "revokeRole",
      "outputs": [],
      "stateMutability": "nonpayable",
      "type": "function"
    },
    {
      "inputs": [
        {
          "internalType": "bytes4",
          "name": "interfaceId",
          "type": "bytes4"
        }
      ],
      "name": "supportsInterface",
      "outputs": [
        {
          "internalType": "bool",
          "name": "",
          "type": "bool"
        }
      ],
      "stateMutability": "view",
      "type": "function"
    },
    {
      "inputs": [
        {
          "internalType": "address",
          "name": "gsuAddress",
          "type": "address"
        }
      ],
      "name": "setGameStateUpdate",
      "outputs": [],
      "stateMutability": "nonpayable",
      "type": "function"
    },
    {
      "inputs": [
        {
          "internalType": "address",
          "name": "vcAddress",
          "type": "address"
        }
      ],
      "name": "addVerifiedController",
      "outputs": [],
      "stateMutability": "nonpayable",
      "type": "function"
    },
    {
      "inputs": [
        {
          "internalType": "uint256",
          "name": "gameID",
          "type": "uint256"
        },
        {
          "internalType": "address",
          "name": "boardAddress",
          "type": "address"
        }
      ],
      "name": "startGame",
      "outputs": [],
      "stateMutability": "nonpayable",
      "type": "function"
    },
    {
      "inputs": [
        {
          "internalType": "uint256",
          "name": "gameID",
          "type": "uint256"
        },
        {
          "internalType": "address",
          "name": "boardAddress",
          "type": "address"
        }
      ],
      "name": "registerForGame",
      "outputs": [],
      "stateMutability": "nonpayable",
      "type": "function"
    },
    {
      "inputs": [
        {
          "internalType": "uint256",
          "name": "playerID",
          "type": "uint256"
        },
        {
          "internalType": "uint8",
          "name": "actionIndex",
          "type": "uint8"
        },
        {
          "internalType": "string[]",
          "name": "options",
          "type": "string[]"
        },
        {
          "internalType": "string",
          "name": "leftHand",
          "type": "string"
        },
        {
          "internalType": "string",
          "name": "rightHand",
          "type": "string"
        },
        {
          "internalType": "uint256",
          "name": "gameID",
          "type": "uint256"
        },
        {
          "internalType": "address",
          "name": "boardAddress",
          "type": "address"
        }
      ],
      "name": "submitAction",
      "outputs": [],
      "stateMutability": "nonpayable",
      "type": "function"
    },
    {
      "inputs": [
        {
          "internalType": "string",
          "name": "zoneChoice",
          "type": "string"
        },
        {
          "internalType": "uint256",
          "name": "gameID",
          "type": "uint256"
        },
        {
          "internalType": "address",
          "name": "boardAddress",
          "type": "address"
        }
      ],
      "name": "chooseLandingSite",
      "outputs": [],
      "stateMutability": "nonpayable",
      "type": "function"
    },
    {
      "inputs": [
        {
          "internalType": "address",
          "name": "gameRegistryAddress",
          "type": "address"
        },
        {
          "internalType": "address",
          "name": "boardAddress",
          "type": "address"
        }
      ],
      "name": "requestNewGame",
      "outputs": [],
      "stateMutability": "nonpayable",
      "type": "function"
    },
    {
      "inputs": [
        {
          "internalType": "address",
          "name": "gameRegistryAddress",
          "type": "address"
        },
        {
          "internalType": "address",
          "name": "boardAddress",
          "type": "address"
        }
      ],
      "name": "latestGame",
      "outputs": [
        {
          "internalType": "uint256",
          "name": "",
          "type": "uint256"
        }
      ],
      "stateMutability": "view",
      "type": "function"
    }
  ],
  "bytecode": "0x60806040523480156200001157600080fd5b506040516200593038038062005930833981016040819052620000349162000215565b806200004b60008264010000000062000053810204565b505062000247565b6200006882826401000000006200006c810204565b5050565b620000868282640100000000620047fa620000b382021704565b6000828152600160205260409020620000ae90826401000000006200487e6200014f82021704565b505050565b620000c8828264010000000062000178810204565b6200006857600082815260208181526040808320600160a060020a03851684529091529020805460ff191660011790556200010b640100000000620001a1810204565b600160a060020a031681600160a060020a0316837f2f8788117e7eff1d82e926ec794901d17c78024a50270940304540a733656f0d60405160405180910390a45050565b60006200016f83600160a060020a038416640100000000620001a5810204565b90505b92915050565b600091825260208281526040808420600160a060020a0393909316845291905290205460ff1690565b3390565b6000620001bc8383640100000000620001fd810204565b620001f45750815460018181018455600084815260208082209093018490558454848252828601909352604090209190915562000172565b50600062000172565b60009081526001919091016020526040902054151590565b6000602082840312156200022857600080fd5b8151600160a060020a03811681146200024057600080fd5b9392505050565b6156d980620002576000396000f3fe608060405234801561001057600080fd5b50600436106101155760003560e060020a900480639010d07c116100b1578063ca15c87311610075578063ca15c8731461026f578063d4f5b15214610282578063d547741f14610295578063e506675d146102a8578063f3297df9146102bb57600080fd5b80639010d07c1461020e57806391d148541461022e578063975eef2614610241578063a217fddf14610254578063a605e7ae1461025c57600080fd5b806301ffc9a71461011a5780631c834a7f14610142578063248a9ca31461017757806329a461d61461019a5780632f2ff15d146101af57806336568abe146101c2578063621cc08d146101d5578063661e0566146101e85780637479c8fe146101fb575b600080fd5b61012d610128366004614db0565b6102ce565b60405190151581526020015b60405180910390f35b6101697f80e2196015fc06a9d891759f8e4f51eb314ef5e9ea068528a8ed0063b87759f081565b604051908152602001610139565b610169610185366004614dda565b60009081526020819052604090206001015490565b6101ad6101a8366004614e18565b610312565b005b6101ad6101bd366004614e18565b610556565b6101ad6101d0366004614e18565b610580565b6101ad6101e3366004614e18565b610614565b6101ad6101f6366004614e48565b613abc565b6101ad610209366004614e76565b613b03565b61022161021c366004614eaf565b613b9a565b6040516101399190614ed1565b61012d61023c366004614e18565b613bb9565b61016961024f366004614e48565b613be2565b610169600081565b6101ad61026a366004614ee5565b613c6b565b61016961027d366004614dda565b613ca6565b6101ad610290366004614ee5565b613cbd565b6101ad6102a3366004614e18565b613cf2565b6101ad6102b6366004615068565b613d17565b6101ad6102c936600461512d565b6144af565b6000600160e060020a031982167f5a05180f00000000000000000000000000000000000000000000000000000000148061030c575061030c82614893565b92915050565b6040517f9aabe36d000000000000000000000000000000000000000000000000000000008152336004820152602481018390528190600160a060020a03821690639aabe36d90604401600060405180830381600087803b15801561037557600080fd5b505af1158015610389573d6000803e3d6000fd5b5050505080600160a060020a031663a0ed600d6040518163ffffffff1660e060020a028152600401602060405180830381865afa1580156103ce573d6000803e3d6000fd5b505050506040513d601f19601f820116820180604052508101906103f2919061517d565b600160a060020a03166345b8ace56040518060600160405280600460ff168152602001600460ff168152602001600460ff168152508584600160a060020a031663c06dea4e6040518163ffffffff1660e060020a028152600401602060405180830381865afa158015610469573d6000803e3d6000fd5b505050506040513d601f19601f8201168201806040525081019061048d919061517d565b600160a060020a031663bca7caa088336040518363ffffffff1660e060020a0281526004016104bd92919061519a565b602060405180830381865afa1580156104da573d6000803e3d6000fd5b505050506040513d601f19601f820116820180604052508101906104fe91906151b1565b6040518463ffffffff1660e060020a02815260040161051f939291906151ca565b600060405180830381600087803b15801561053957600080fd5b505af115801561054d573d6000803e3d6000fd5b50505050505050565b600082815260208190526040902060010154610571816148fa565b61057b8383614907565b505050565b600160a060020a03811633146106065760405160e560020a62461bcd02815260206004820152602f60248201527f416363657373436f6e74726f6c3a2063616e206f6e6c792072656e6f756e636560448201527f20726f6c657320666f722073656c66000000000000000000000000000000000060648201526084015b60405180910390fd5b6106108282614929565b5050565b6040517f4e0e1a3e000000000000000000000000000000000000000000000000000000008152600481018390528190600160a060020a03821690634e0e1a3e90602401602060405180830381865afa158015610674573d6000803e3d6000fd5b505050506040513d601f19601f8201168201806040525081019061069891906151b1565b156106e85760405160e560020a62461bcd02815260206004820152601460248201527f67616d6520616c7265616479207374617274656400000000000000000000000060448201526064016105fd565b600081600160a060020a031663c06dea4e6040518163ffffffff1660e060020a028152600401602060405180830381865afa15801561072b573d6000803e3d6000fd5b505050506040513d601f19601f8201168201806040525081019061074f919061517d565b60405160e360020a631703edc3028152909150600160a060020a0382169063b81f6e1890610783908790339060040161519a565b602060405180830381865afa1580156107a0573d6000803e3d6000fd5b505050506040513d601f19601f820116820180604052508101906107c49190615209565b6107e35760405160e560020a62461bcd0281526004016105fd9061522b565b6040517f60c2050000000000000000000000000000000000000000000000000000000000815260048101859052600160a060020a038316906360c2050090602401600060405180830381600087803b15801561083e57600080fd5b505af1158015610852573d6000803e3d6000fd5b505060405160e060020a63b77ff4110281526004810187905260009250600160a060020a038416915063b77ff41190602401602060405180830381865afa1580156108a1573d6000803e3d6000fd5b505050506040513d601f19601f820116820180604052508101906108c591906151b1565b6040517feb33983d00000000000000000000000000000000000000000000000000000000815260048101879052909150600090600160a060020a0385169063eb33983d90602401600060405180830381865afa158015610929573d6000803e3d6000fd5b505050506040513d6000823e601f3d908101601f19168201604052610951919081019061528e565b9050600084600160a060020a031663cca369966040518163ffffffff1660e060020a028152600401602060405180830381865afa158015610996573d6000803e3d6000fd5b505050506040513d601f19601f820116820180604052508101906109ba919061517d565b905080600160a060020a031663a906dfd16040518163ffffffff1660e060020a028152600401602060405180830381865afa1580156109fd573d6000803e3d6000fd5b505050506040513d601f19601f82011682018060405250810190610a21919061517d565b600160a060020a0316631c635ded8860016040518363ffffffff1660e060020a028152600401610a5292919061531e565b600060405180830381600087803b158015610a6c57600080fd5b505af1158015610a80573d6000803e3d6000fd5b5050505080600160a060020a031663a906dfd16040518163ffffffff1660e060020a028152600401602060405180830381865afa158015610ac5573d6000803e3d6000fd5b505050506040513d601f19601f82011682018060405250810190610ae9919061517d565b60405160e060020a631c635ded028152606060048201526005606482015260da60020a64139a59da1d0260848201526024810189905260016044820152600160a060020a039190911690631c635ded9060a401600060405180830381600087803b158015610b5657600080fd5b505af1158015610b6a573d6000803e3d6000fd5b5050505080600160a060020a0316632ee0804a6040518163ffffffff1660e060020a028152600401602060405180830381865afa158015610baf573d6000803e3d6000fd5b505050506040513d601f19601f82011682018060405250810190610bd3919061517d565b60405160e060020a631c635ded02815260606004820152600a60648201527f45617274687175616b65000000000000000000000000000000000000000000006084820152602481018990526103e86044820152600160a060020a039190911690631c635ded9060a401600060405180830381600087803b158015610c5657600080fd5b505af1158015610c6a573d6000803e3d6000fd5b5050505080600160a060020a0316632ee0804a6040518163ffffffff1660e060020a028152600401602060405180830381865afa158015610caf573d6000803e3d6000fd5b505050506040513d601f19601f82011682018060405250810190610cd3919061517d565b60405160e060020a631c635ded02815260606004820152600760648201527f566f6c63616e6f000000000000000000000000000000000000000000000000006084820152602481018990526103e86044820152600160a060020a039190911690631c635ded9060a401600060405180830381600087803b158015610d5657600080fd5b505af1158015610d6a573d6000803e3d6000fd5b5050505080600160a060020a0316632b2145336040518163ffffffff1660e060020a028152600401602060405180830381865afa158015610daf573d6000803e3d6000fd5b505050506040513d601f19601f82011682018060405250810190610dd3919061517d565b60405160e060020a631c635ded02815260606004820152600660648201527f50697261746500000000000000000000000000000000000000000000000000006084820152602481018990526103e86044820152600160a060020a039190911690631c635ded9060a401600060405180830381600087803b158015610e5657600080fd5b505af1158015610e6a573d6000803e3d6000fd5b5050505080600160a060020a0316632b2145336040518163ffffffff1660e060020a028152600401602060405180830381865afa158015610eaf573d6000803e3d6000fd5b505050506040513d601f19601f82011682018060405250810190610ed3919061517d565b60405160e060020a631c635ded02815260606004820152600b60648201527f50697261746520536869700000000000000000000000000000000000000000006084820152602481018990526103e86044820152600160a060020a039190911690631c635ded9060a401600060405180830381600087803b158015610f5657600080fd5b505af1158015610f6a573d6000803e3d6000fd5b5050505080600160a060020a0316632b2145336040518163ffffffff1660e060020a028152600401602060405180830381865afa158015610faf573d6000803e3d6000fd5b505050506040513d601f19601f82011682018060405250810190610fd3919061517d565b60405160e060020a631c635ded02815260606004820152600860648201527f4465617468626f740000000000000000000000000000000000000000000000006084820152602481018990526103e86044820152600160a060020a039190911690631c635ded9060a401600060405180830381600087803b15801561105657600080fd5b505af115801561106a573d6000803e3d6000fd5b5050505080600160a060020a0316632b2145336040518163ffffffff1660e060020a028152600401602060405180830381865afa1580156110af573d6000803e3d6000fd5b505050506040513d601f19601f820116820180604052508101906110d3919061517d565b60405160e060020a631c635ded02815260606004820152600860648201527f477561726469616e0000000000000000000000000000000000000000000000006084820152602481018990526103e86044820152600160a060020a039190911690631c635ded9060a401600060405180830381600087803b15801561115657600080fd5b505af115801561116a573d6000803e3d6000fd5b5050505080600160a060020a0316632b2145336040518163ffffffff1660e060020a028152600401602060405180830381865afa1580156111af573d6000803e3d6000fd5b505050506040513d601f19601f820116820180604052508101906111d3919061517d565b60405160e060020a631c635ded02815260606004820152600860648201527f53616e64776f726d0000000000000000000000000000000000000000000000006084820152602481018990526103e86044820152600160a060020a039190911690631c635ded9060a401600060405180830381600087803b15801561125657600080fd5b505af115801561126a573d6000803e3d6000fd5b5050505080600160a060020a0316632b2145336040518163ffffffff1660e060020a028152600401602060405180830381865afa1580156112af573d6000803e3d6000fd5b505050506040513d601f19601f820116820180604052508101906112d3919061517d565b60405160e060020a631c635ded02815260606004820152600660648201527f447261676f6e00000000000000000000000000000000000000000000000000006084820152602481018990526103e86044820152600160a060020a039190911690631c635ded9060a401600060405180830381600087803b15801561135657600080fd5b505af115801561136a573d6000803e3d6000fd5b5050505080600160a060020a031663a318d45c6040518163ffffffff1660e060020a028152600401602060405180830381865afa1580156113af573d6000803e3d6000fd5b505050506040513d601f19601f820116820180604052508101906113d3919061517d565b60405160e060020a631c635ded02815260606004820152600a60648201527f536d616c6c20416d6d6f000000000000000000000000000000000000000000006084820152602481018990526103e86044820152600160a060020a039190911690631c635ded9060a401600060405180830381600087803b15801561145657600080fd5b505af115801561146a573d6000803e3d6000fd5b5050505080600160a060020a031663a318d45c6040518163ffffffff1660e060020a028152600401602060405180830381865afa1580156114af573d6000803e3d6000fd5b505050506040513d601f19601f820116820180604052508101906114d3919061517d565b60405160e060020a631c635ded02815260606004820152600a60648201527f4c6172676520416d6d6f000000000000000000000000000000000000000000006084820152602481018990526103e86044820152600160a060020a039190911690631c635ded9060a401600060405180830381600087803b15801561155657600080fd5b505af115801561156a573d6000803e3d6000fd5b5050505080600160a060020a031663a318d45c6040518163ffffffff1660e060020a028152600401602060405180830381865afa1580156115af573d6000803e3d6000fd5b505050506040513d601f19601f820116820180604052508101906115d3919061517d565b60405160e060020a631c635ded02815260606004820152600960648201527f42617474657269657300000000000000000000000000000000000000000000006084820152602481018990526103e86044820152600160a060020a039190911690631c635ded9060a401600060405180830381600087803b15801561165657600080fd5b505af115801561166a573d6000803e3d6000fd5b5050505080600160a060020a031663a318d45c6040518163ffffffff1660e060020a028152600401602060405180830381865afa1580156116af573d6000803e3d6000fd5b505050506040513d601f19601f820116820180604052508101906116d3919061517d565b60405160e060020a631c635ded02815260606004820152600660648201527f536869656c6400000000000000000000000000000000000000000000000000006084820152602481018990526103e86044820152600160a060020a039190911690631c635ded9060a401600060405180830381600087803b15801561175657600080fd5b505af115801561176a573d6000803e3d6000fd5b5050505080600160a060020a031663a318d45c6040518163ffffffff1660e060020a028152600401602060405180830381865afa1580156117af573d6000803e3d6000fd5b505050506040513d601f19601f820116820180604052508101906117d3919061517d565b60405160e060020a631c635ded02815260606004820152600660648201527f506f7274616c00000000000000000000000000000000000000000000000000006084820152602481018990526103e86044820152600160a060020a039190911690631c635ded9060a401600060405180830381600087803b15801561185657600080fd5b505af115801561186a573d6000803e3d6000fd5b5050505080600160a060020a031663a318d45c6040518163ffffffff1660e060020a028152600401602060405180830381865afa1580156118af573d6000803e3d6000fd5b505050506040513d601f19601f820116820180604052508101906118d3919061517d565b60405160e060020a631c635ded02815260606004820152600260648201527f4f6e0000000000000000000000000000000000000000000000000000000000006084820152602481018990526103e86044820152600160a060020a039190911690631c635ded9060a401600060405180830381600087803b15801561195657600080fd5b505af115801561196a573d6000803e3d6000fd5b5050505080600160a060020a031663a318d45c6040518163ffffffff1660e060020a028152600401602060405180830381865afa1580156119af573d6000803e3d6000fd5b505050506040513d601f19601f820116820180604052508101906119d3919061517d565b60405160e060020a631c635ded02815260606004820152600360648201527f4f666600000000000000000000000000000000000000000000000000000000006084820152602481018990526103e86044820152600160a060020a039190911690631c635ded9060a401600060405180830381600087803b158015611a5657600080fd5b505af1158015611a6a573d6000803e3d6000fd5b5050505080600160a060020a031663a318d45c6040518163ffffffff1660e060020a028152600401602060405180830381865afa158015611aaf573d6000803e3d6000fd5b505050506040513d601f19601f82011682018060405250810190611ad3919061517d565b60405160e060020a631c635ded02815260606004820152600c60648201527f52757374792044616767657200000000000000000000000000000000000000006084820152602481018990526103e86044820152600160a060020a039190911690631c635ded9060a401600060405180830381600087803b158015611b5657600080fd5b505af1158015611b6a573d6000803e3d6000fd5b5050505080600160a060020a031663a318d45c6040518163ffffffff1660e060020a028152600401602060405180830381865afa158015611baf573d6000803e3d6000fd5b505050506040513d601f19601f82011682018060405250810190611bd3919061517d565b60405160e060020a631c635ded02815260606004820152600b60648201527f52757374792053776f72640000000000000000000000000000000000000000006084820152602481018990526103e86044820152600160a060020a039190911690631c635ded9060a401600060405180830381600087803b158015611c5657600080fd5b505af1158015611c6a573d6000803e3d6000fd5b5050505080600160a060020a031663a318d45c6040518163ffffffff1660e060020a028152600401602060405180830381865afa158015611caf573d6000803e3d6000fd5b505050506040513d601f19601f82011682018060405250810190611cd3919061517d565b60405160e060020a631c635ded02815260606004820152600c60648201527f527573747920506973746f6c00000000000000000000000000000000000000006084820152602481018990526103e86044820152600160a060020a039190911690631c635ded9060a401600060405180830381600087803b158015611d5657600080fd5b505af1158015611d6a573d6000803e3d6000fd5b5050505080600160a060020a031663a318d45c6040518163ffffffff1660e060020a028152600401602060405180830381865afa158015611daf573d6000803e3d6000fd5b505050506040513d601f19601f82011682018060405250810190611dd3919061517d565b60405160e060020a631c635ded02815260606004820152600b60648201527f5275737479205269666c650000000000000000000000000000000000000000006084820152602481018990526103e86044820152600160a060020a039190911690631c635ded9060a401600060405180830381600087803b158015611e5657600080fd5b505af1158015611e6a573d6000803e3d6000fd5b5050505080600160a060020a031663a318d45c6040518163ffffffff1660e060020a028152600401602060405180830381865afa158015611eaf573d6000803e3d6000fd5b505050506040513d601f19601f82011682018060405250810190611ed3919061517d565b60405160e060020a631c635ded02815260606004820152600c60648201527f5368696e792044616767657200000000000000000000000000000000000000006084820152602481018990526103e86044820152600160a060020a039190911690631c635ded9060a401600060405180830381600087803b158015611f5657600080fd5b505af1158015611f6a573d6000803e3d6000fd5b5050505080600160a060020a031663a318d45c6040518163ffffffff1660e060020a028152600401602060405180830381865afa158015611faf573d6000803e3d6000fd5b505050506040513d601f19601f82011682018060405250810190611fd3919061517d565b60405160e060020a631c635ded02815260606004820152600b60648201527f5368696e792053776f72640000000000000000000000000000000000000000006084820152602481018990526103e86044820152600160a060020a039190911690631c635ded9060a401600060405180830381600087803b15801561205657600080fd5b505af115801561206a573d6000803e3d6000fd5b5050505080600160a060020a031663a318d45c6040518163ffffffff1660e060020a028152600401602060405180830381865afa1580156120af573d6000803e3d6000fd5b505050506040513d601f19601f820116820180604052508101906120d3919061517d565b60405160e060020a631c635ded02815260606004820152600b60648201527f5368696e79205269666c650000000000000000000000000000000000000000006084820152602481018990526103e86044820152600160a060020a039190911690631c635ded9060a401600060405180830381600087803b15801561215657600080fd5b505af115801561216a573d6000803e3d6000fd5b5050505080600160a060020a031663a318d45c6040518163ffffffff1660e060020a028152600401602060405180830381865afa1580156121af573d6000803e3d6000fd5b505050506040513d601f19601f820116820180604052508101906121d3919061517d565b60405160e060020a631c635ded02815260606004820152600c60648201527f4c617365722044616767657200000000000000000000000000000000000000006084820152602481018990526103e86044820152600160a060020a039190911690631c635ded9060a401600060405180830381600087803b15801561225657600080fd5b505af115801561226a573d6000803e3d6000fd5b5050505080600160a060020a031663a318d45c6040518163ffffffff1660e060020a028152600401602060405180830381865afa1580156122af573d6000803e3d6000fd5b505050506040513d601f19601f820116820180604052508101906122d3919061517d565b60405160e060020a631c635ded02815260606004820152600b60648201527f4c617365722053776f72640000000000000000000000000000000000000000006084820152602481018990526103e86044820152600160a060020a039190911690631c635ded9060a401600060405180830381600087803b15801561235657600080fd5b505af115801561236a573d6000803e3d6000fd5b5050505080600160a060020a031663a318d45c6040518163ffffffff1660e060020a028152600401602060405180830381865afa1580156123af573d6000803e3d6000fd5b505050506040513d601f19601f820116820180604052508101906123d3919061517d565b60405160e060020a631c635ded02815260606004820152600c60648201527f4c6173657220506973746f6c00000000000000000000000000000000000000006084820152602481018990526103e86044820152600160a060020a039190911690631c635ded9060a401600060405180830381600087803b15801561245657600080fd5b505af115801561246a573d6000803e3d6000fd5b5050505080600160a060020a031663a318d45c6040518163ffffffff1660e060020a028152600401602060405180830381865afa1580156124af573d6000803e3d6000fd5b505050506040513d601f19601f820116820180604052508101906124d3919061517d565b60405160e060020a631c635ded02815260606004820152600b60648201527f4c61736572205269666c650000000000000000000000000000000000000000006084820152602481018990526103e86044820152600160a060020a039190911690631c635ded9060a401600060405180830381600087803b15801561255657600080fd5b505af115801561256a573d6000803e3d6000fd5b5050505080600160a060020a031663a318d45c6040518163ffffffff1660e060020a028152600401602060405180830381865afa1580156125af573d6000803e3d6000fd5b505050506040513d601f19601f820116820180604052508101906125d3919061517d565b60405160e060020a631c635ded02815260606004820152600a60648201527f476c6f7720737469636b000000000000000000000000000000000000000000006084820152602481018990526103e86044820152600160a060020a039190911690631c635ded9060a401600060405180830381600087803b15801561265657600080fd5b505af115801561266a573d6000803e3d6000fd5b5050505080600160a060020a031663a318d45c6040518163ffffffff1660e060020a028152600401602060405180830381865afa1580156126af573d6000803e3d6000fd5b505050506040513d601f19601f820116820180604052508101906126d3919061517d565b60405160e060020a631c635ded02815260606004820152600a60648201527f466c6173686c69676874000000000000000000000000000000000000000000006084820152602481018990526103e86044820152600160a060020a039190911690631c635ded9060a401600060405180830381600087803b15801561275657600080fd5b505af115801561276a573d6000803e3d6000fd5b5050505080600160a060020a031663a318d45c6040518163ffffffff1660e060020a028152600401602060405180830381865afa1580156127af573d6000803e3d6000fd5b505050506040513d601f19601f820116820180604052508101906127d3919061517d565b60405160e060020a631c635ded02815260606004820152600b60648201527f466c6f6f64206c696768740000000000000000000000000000000000000000006084820152602481018990526103e86044820152600160a060020a039190911690631c635ded9060a401600060405180830381600087803b15801561285657600080fd5b505af115801561286a573d6000803e3d6000fd5b5050505080600160a060020a031663a318d45c6040518163ffffffff1660e060020a028152600401602060405180830381865afa1580156128af573d6000803e3d6000fd5b505050506040513d601f19601f820116820180604052508101906128d3919061517d565b60405160e060020a631c635ded02815260606004820152601360648201527f4e69676874766973696f6e20476f67676c6573000000000000000000000000006084820152602481018990526103e86044820152600160a060020a039190911690631c635ded9060a401600060405180830381600087803b15801561295657600080fd5b505af115801561296a573d6000803e3d6000fd5b5050505080600160a060020a031663a318d45c6040518163ffffffff1660e060020a028152600401602060405180830381865afa1580156129af573d6000803e3d6000fd5b505050506040513d601f19601f820116820180604052508101906129d3919061517d565b60405160e060020a631c635ded02815260606004820152600f60648201527f506572736f6e616c20536869656c6400000000000000000000000000000000006084820152602481018990526103e86044820152600160a060020a039190911690631c635ded9060a401600060405180830381600087803b158015612a5657600080fd5b505af1158015612a6a573d6000803e3d6000fd5b5050505080600160a060020a031663a318d45c6040518163ffffffff1660e060020a028152600401602060405180830381865afa158015612aaf573d6000803e3d6000fd5b505050506040513d601f19601f82011682018060405250810190612ad3919061517d565b600160a060020a0316631c635ded886103e86040518363ffffffff1660e060020a028152600401612b05929190615370565b600060405180830381600087803b158015612b1f57600080fd5b505af1158015612b33573d6000803e3d6000fd5b5050505080600160a060020a031663c1cdbb3c6040518163ffffffff1660e060020a028152600401602060405180830381865afa158015612b78573d6000803e3d6000fd5b505050506040513d601f19601f82011682018060405250810190612b9c919061517d565b60405160e060020a631c635ded02815260606004820152600760648201527f5374756e6e6564000000000000000000000000000000000000000000000000006084820152602481018990526103e86044820152600160a060020a039190911690631c635ded9060a401600060405180830381600087803b158015612c1f57600080fd5b505af1158015612c33573d6000803e3d6000fd5b5050505080600160a060020a031663c1cdbb3c6040518163ffffffff1660e060020a028152600401602060405180830381865afa158015612c78573d6000803e3d6000fd5b505050506040513d601f19601f82011682018060405250810190612c9c919061517d565b60405160e060020a631c635ded02815260606004820152600660648201527f4275726e656400000000000000000000000000000000000000000000000000006084820152602481018990526103e86044820152600160a060020a039190911690631c635ded9060a401600060405180830381600087803b158015612d1f57600080fd5b505af1158015612d33573d6000803e3d6000fd5b5050505080600160a060020a03166345d339d96040518163ffffffff1660e060020a028152600401602060405180830381865afa158015612d78573d6000803e3d6000fd5b505050506040513d601f19601f82011682018060405250810190612d9c919061517d565b60405160e060020a631c635ded02815260606004820152600f60648201527f456e677261766564205461626c657400000000000000000000000000000000006084820152602481018990526103e86044820152600160a060020a039190911690631c635ded9060a401600060405180830381600087803b158015612e1f57600080fd5b505af1158015612e33573d6000803e3d6000fd5b5050505080600160a060020a03166345d339d96040518163ffffffff1660e060020a028152600401602060405180830381865afa158015612e78573d6000803e3d6000fd5b505050506040513d601f19601f82011682018060405250810190612e9c919061517d565b60405160e060020a631c635ded02815260606004820152600960648201527f536967696c2047656d00000000000000000000000000000000000000000000006084820152602481018990526103e86044820152600160a060020a039190911690631c635ded9060a401600060405180830381600087803b158015612f1f57600080fd5b505af1158015612f33573d6000803e3d6000fd5b5050505080600160a060020a03166345d339d96040518163ffffffff1660e060020a028152600401602060405180830381865afa158015612f78573d6000803e3d6000fd5b505050506040513d601f19601f82011682018060405250810190612f9c919061517d565b60405160e060020a631c635ded02815260606004820152600c60648201527f416e6369656e7420546f6d6500000000000000000000000000000000000000006084820152602481018990526103e86044820152600160a060020a039190911690631c635ded9060a401600060405180830381600087803b15801561301f57600080fd5b505af1158015613033573d6000803e3d6000fd5b5050505080600160a060020a031663cb8d2d2c6040518163ffffffff1660e060020a028152600401602060405180830381865afa158015613078573d6000803e3d6000fd5b505050506040513d601f19601f8201168201806040525081019061309c919061517d565b60405160e060020a631c635ded02815260606004820152600760648201527f52656c69632031000000000000000000000000000000000000000000000000006084820152602481018990526103e86044820152600160a060020a039190911690631c635ded9060a401600060405180830381600087803b15801561311f57600080fd5b505af1158015613133573d6000803e3d6000fd5b5050505080600160a060020a031663cb8d2d2c6040518163ffffffff1660e060020a028152600401602060405180830381865afa158015613178573d6000803e3d6000fd5b505050506040513d601f19601f8201168201806040525081019061319c919061517d565b60405160e060020a631c635ded02815260606004820152600760648201527f52656c69632032000000000000000000000000000000000000000000000000006084820152602481018990526103e86044820152600160a060020a039190911690631c635ded9060a401600060405180830381600087803b15801561321f57600080fd5b505af1158015613233573d6000803e3d6000fd5b5050505080600160a060020a031663cb8d2d2c6040518163ffffffff1660e060020a028152600401602060405180830381865afa158015613278573d6000803e3d6000fd5b505050506040513d601f19601f8201168201806040525081019061329c919061517d565b60405160e060020a631c635ded02815260606004820152600760648201527f52656c69632033000000000000000000000000000000000000000000000000006084820152602481018990526103e86044820152600160a060020a039190911690631c635ded9060a401600060405180830381600087803b15801561331f57600080fd5b505af1158015613333573d6000803e3d6000fd5b5050505080600160a060020a031663cb8d2d2c6040518163ffffffff1660e060020a028152600401602060405180830381865afa158015613378573d6000803e3d6000fd5b505050506040513d601f19601f8201168201806040525081019061339c919061517d565b60405160e060020a631c635ded02815260606004820152600760648201527f52656c69632034000000000000000000000000000000000000000000000000006084820152602481018990526103e86044820152600160a060020a039190911690631c635ded9060a401600060405180830381600087803b15801561341f57600080fd5b505af1158015613433573d6000803e3d6000fd5b5050505080600160a060020a031663cb8d2d2c6040518163ffffffff1660e060020a028152600401602060405180830381865afa158015613478573d6000803e3d6000fd5b505050506040513d601f19601f8201168201806040525081019061349c919061517d565b60405160e060020a631c635ded02815260606004820152600760648201527f52656c69632035000000000000000000000000000000000000000000000000006084820152602481018990526103e86044820152600160a060020a039190911690631c635ded9060a401600060405180830381600087803b15801561351f57600080fd5b505af1158015613533573d6000803e3d6000fd5b5050505080600160a060020a031663a906dfd16040518163ffffffff1660e060020a028152600401602060405180830381865afa158015613578573d6000803e3d6000fd5b505050506040513d601f19601f8201168201806040525081019061359c919061517d565b600160a060020a031663d82910478860006001806040518563ffffffff1660e060020a0281526004016135d29493929190615382565b600060405180830381600087803b1580156135ec57600080fd5b505af1158015613600573d6000803e3d6000fd5b5050505060005b838110156137f557600061361c8260016153cf565b60405160e260020a633d410c95028152600481018b905260248101829052909150600090600160a060020a0388169063f504325490604401602060405180830381865afa158015613671573d6000803e3d6000fd5b505050506040513d601f19601f82011682018060405250810190613695919061517d565b6040517f98bd7572000000000000000000000000000000000000000000000000000000008152909150600160a060020a038916906398bd7572906136e19084908e908a90600401615413565b600060405180830381600087803b1580156136fb57600080fd5b505af115801561370f573d6000803e3d6000fd5b5050505083600160a060020a031663a318d45c6040518163ffffffff1660e060020a028152600401602060405180830381865afa158015613754573d6000803e3d6000fd5b505050506040513d601f19601f82011682018060405250810190613778919061517d565b600160a060020a031663d82910478b60008560016040518563ffffffff1660e060020a0281526004016137ae949392919061543b565b600060405180830381600087803b1580156137c857600080fd5b505af11580156137dc573d6000803e3d6000fd5b50505050505080806137ed9061544d565b915050613607565b506040517f76a321c10000000000000000000000000000000000000000000000000000000081526002600482015260248101889052600160a060020a038616906376a321c190604401600060405180830381600087803b15801561385857600080fd5b505af115801561386c573d6000803e3d6000fd5b50505050600085600160a060020a031663cefe23296040518163ffffffff1660e060020a028152600401602060405180830381865afa1580156138b3573d6000803e3d6000fd5b505050506040513d601f19601f820116820180604052508101906138d7919061517d565b60405160e160020a63430c0a71028152600481018a9052909150600090600160a060020a0383169063861814e290602401602060405180830381865afa158015613925573d6000803e3d6000fd5b505050506040513d601f19601f8201168201806040525081019061394991906151b1565b905080613a3e5781600160a060020a03166306fb55278a88600160a060020a031663b77ff4118d6040518263ffffffff1660e060020a02815260040161399191815260200190565b602060405180830381865afa1580156139ae573d6000803e3d6000fd5b505050506040513d601f19601f820116820180604052508101906139d291906151b1565b60405160e060020a63ffffffff8516028152600481019290925261ffff1660248201526044016020604051808303816000875af1158015613a17573d6000803e3d6000fd5b505050506040513d601f19601f82011682018060405250810190613a3b91906151b1565b90505b6040517fe5ed1d5900000000000000000000000000000000000000000000000000000000815260048101829052600160a060020a0383169063e5ed1d5990602401600060405180830381600087803b158015613a9957600080fd5b505af1158015613aad573d6000803e3d6000fd5b50505050505050505050505050565b6040517f72c6c6b60000000000000000000000000000000000000000000000000000000081528190600160a060020a038216906372c6c6b69061051f908690600401614ed1565b6040517f9eb356cb0000000000000000000000000000000000000000000000000000000081526004810183905233602482015260448101849052600160a060020a03821690639eb356cb906064016020604051808303816000875af1158015613b70573d6000803e3d6000fd5b505050506040513d601f19601f82011682018060405250810190613b949190615209565b50505050565b6000828152600160205260408120613bb2908361494b565b9392505050565b600091825260208281526040808420600160a060020a0393909316845291905290205460ff1690565b6040517fb553910d000000000000000000000000000000000000000000000000000000008152600090600160a060020a0384169063b553910d90613c2a908590600401614ed1565b602060405180830381865afa158015613c47573d6000803e3d6000fd5b505050506040513d601f19601f82011682018060405250810190613bb291906151b1565b6000613c76816148fa565b506002805473ffffffffffffffffffffffffffffffffffffffff1916600160a060020a0392909216919091179055565b600081815260016020526040812061030c90614957565b6000613cc8816148fa565b6106107f80e2196015fc06a9d891759f8e4f51eb314ef5e9ea068528a8ed0063b87759f083610556565b600082815260208190526040902060010154613d0d816148fa565b61057b8383614929565b6000819050600081600160a060020a031663cefe23296040518163ffffffff1660e060020a028152600401602060405180830381865afa158015613d5f573d6000803e3d6000fd5b505050506040513d601f19601f82011682018060405250810190613d83919061517d565b9050600082600160a060020a031663c06dea4e6040518163ffffffff1660e060020a028152600401602060405180830381865afa158015613dc8573d6000803e3d6000fd5b505050506040513d601f19601f82011682018060405250810190613dec919061517d565b60405160e260020a633d410c9502815260048101879052602481018c90529091503390600160a060020a0383169063f504325490604401602060405180830381865afa158015613e40573d6000803e3d6000fd5b505050506040513d601f19601f82011682018060405250810190613e64919061517d565b600160a060020a031614613ebd5760405160e560020a62461bcd02815260206004820152601660248201527f506c617965724944206973206e6f742073656e6465720000000000000000000060448201526064016105fd565b60405160e060020a63b77ff41102815260048101869052600090600160a060020a0383169063b77ff41190602401602060405180830381865afa158015613f08573d6000803e3d6000fd5b505050506040513d601f19601f82011682018060405250810190613f2c91906151b1565b60405160e160020a63430c0a7102815260048101889052909150600090600160a060020a0385169063861814e290602401602060405180830381865afa158015613f7a573d6000803e3d6000fd5b505050506040513d601f19601f82011682018060405250810190613f9e91906151b1565b905080614033576040517f06fb55270000000000000000000000000000000000000000000000000000000081526004810188905260248101839052600160a060020a038516906306fb5527906044016020604051808303816000875af115801561400c573d6000803e3d6000fd5b505050506040513d601f19601f8201168201806040525081019061403091906151b1565b90505b806140835760405160e560020a62461bcd02815260206004820152601f60248201527f756e61626c6520746f207365742071494420696e20636f6e74726f6c6c65720060448201526064016105fd565b6040517fd75e798000000000000000000000000000000000000000000000000000000000815260048101889052602481018d9052600090600160a060020a0387169063d75e798090604401600060405180830381865afa1580156140eb573d6000803e3d6000fd5b505050506040513d6000823e601f3d908101601f19168201604052614113919081019061528e565b905060608c60ff16600414156144315760008088600160a060020a031663cca369966040518163ffffffff1660e060020a028152600401602060405180830381865afa158015614167573d6000803e3d6000fd5b505050506040513d601f19601f8201168201806040525081019061418b919061517d565b600160a060020a031663a906dfd16040518163ffffffff1660e060020a028152600401602060405180830381865afa1580156141cb573d6000803e3d6000fd5b505050506040513d601f19601f820116820180604052508101906141ef919061517d565b600160a060020a0316634db157d08c60016040518363ffffffff1660e060020a02815260040161422092919061531e565b602060405180830381865afa15801561423d573d6000803e3d6000fd5b505050506040513d601f19601f8201168201806040525081019061426191906151b1565b1161428c5760405180604001604052806005815260200160da60020a64139a59da1d028152506142ac565b60405180604001604052806003815260200160e860020a62446179028152505b90506000805b868110156143b157846040516020016142cb9190615468565b604051602081830303815290604052805190602001208a600160a060020a031663d75e79808e8460016142fe91906153cf565b60405160e060020a63ffffffff851602815260048101929092526024820152604401600060405180830381865afa15801561433d573d6000803e3d6000fd5b505050506040513d6000823e601f3d908101601f19168201604052614365919081019061528e565b6040516020016143759190615468565b60405160208183030381529060405280519060200120141561439f578161439b8161544d565b9250505b806143a98161544d565b9150506142b2565b506143bd8160016153cf565b67ffffffffffffffff8111156143d5576143d5614f02565b60405190808252806020026020018201604052801561440857816020015b60608152602001906001900390816143f35790505b509250818360008151811061441f5761441f615484565b60200260200101819052505050614434565b508a5b85600160a060020a031663ae6a70568f8f848f8f896040518763ffffffff1660e060020a02815260040161446d9695949392919061549d565b600060405180830381600087803b15801561448757600080fd5b505af115801561449b573d6000803e3d6000fd5b505050505050505050505050505050505050565b6000819050600081600160a060020a031663c06dea4e6040518163ffffffff1660e060020a028152600401602060405180830381865afa1580156144f7573d6000803e3d6000fd5b505050506040513d601f19601f8201168201806040525081019061451b919061517d565b60405160e360020a631703edc3028152909150600160a060020a0382169063b81f6e189061454f908790339060040161519a565b602060405180830381865afa15801561456c573d6000803e3d6000fd5b505050506040513d601f19601f820116820180604052508101906145909190615209565b6145af5760405160e560020a62461bcd0281526004016105fd9061522b565b60405160e060020a63b77ff41102815260048101859052600190600160a060020a0383169063b77ff41190602401602060405180830381865afa1580156145fa573d6000803e3d6000fd5b505050506040513d601f19601f8201168201806040525081019061461e91906151b1565b11156146fe576040517fbca7caa0000000000000000000000000000000000000000000000000000000008152600160a060020a0382169063bca7caa09061466b908790339060040161519a565b602060405180830381865afa158015614688573d6000803e3d6000fd5b505050506040513d601f19601f820116820180604052508101906146ac91906151b1565b6002146146fe5760405160e560020a62461bcd02815260206004820152601760248201527f50322063686f6f736573206c616e64696e67207369746500000000000000000060448201526064016105fd565b6040517ff8430708000000000000000000000000000000000000000000000000000000008152600160a060020a0383169063f8430708906147489088906005908990600401615540565b600060405180830381600087803b15801561476257600080fd5b505af1158015614776573d6000803e3d6000fd5b50506040517f9f82bcc0000000000000000000000000000000000000000000000000000000008152600160a060020a0385169250639f82bcc091506147c19088908890600401615587565b600060405180830381600087803b1580156147db57600080fd5b505af11580156147ef573d6000803e3d6000fd5b505050505050505050565b6148048282613bb9565b61061057600082815260208181526040808320600160a060020a03851684529091529020805460ff1916600117905561483a3390565b600160a060020a031681600160a060020a0316837f2f8788117e7eff1d82e926ec794901d17c78024a50270940304540a733656f0d60405160405180910390a45050565b6000613bb283600160a060020a038416614961565b6000600160e060020a031982167f7965db0b00000000000000000000000000000000000000000000000000000000148061030c57507f01ffc9a700000000000000000000000000000000000000000000000000000000600160e060020a031983161461030c565b61490481336149b0565b50565b61491182826147fa565b600082815260016020526040902061057b908261487e565b6149338282614a17565b600082815260016020526040902061057b9082614a7c565b6000613bb28383614a91565b600061030c825490565b60008181526001830160205260408120546149a85750815460018181018455600084815260208082209093018490558454848252828601909352604090209190915561030c565b50600061030c565b6149ba8282613bb9565b610610576149d281600160a060020a03166014614abb565b6149dd836020614abb565b6040516020016149ee9291906155a9565b60408051601f198184030181529082905260e560020a62461bcd0282526105fd9160040161562a565b614a218282613bb9565b1561061057600082815260208181526040808320600160a060020a0385168085529252808320805460ff1916905551339285917ff6391f5c32d9c69d2a47ea670b442974b53935d1edc7fd64eb21e047a839171b9190a45050565b6000613bb283600160a060020a038416614cbd565b6000826000018281548110614aa857614aa8615484565b9060005260206000200154905092915050565b60606000614aca83600261563d565b614ad59060026153cf565b67ffffffffffffffff811115614aed57614aed614f02565b6040519080825280601f01601f191660200182016040528015614b17576020820181803683370190505b5090507f300000000000000000000000000000000000000000000000000000000000000081600081518110614b4e57614b4e615484565b6020010190600160f860020a031916908160001a9053507f780000000000000000000000000000000000000000000000000000000000000081600181518110614b9957614b99615484565b6020010190600160f860020a031916908160001a9053506000614bbd84600261563d565b614bc89060016153cf565b90505b6001811115614c6b577f303132333435363738396162636465660000000000000000000000000000000085600f1660108110614c0957614c09615484565b1a7f010000000000000000000000000000000000000000000000000000000000000002828281518110614c3e57614c3e615484565b6020010190600160f860020a031916908160001a905350601090940493614c648161565c565b9050614bcb565b508315613bb25760405160e560020a62461bcd02815260206004820181905260248201527f537472696e67733a20686578206c656e67746820696e73756666696369656e7460448201526064016105fd565b60008181526001830160205260408120548015614da6576000614ce1600183615673565b8554909150600090614cf590600190615673565b9050818114614d5a576000866000018281548110614d1557614d15615484565b9060005260206000200154905080876000018481548110614d3857614d38615484565b6000918252602080832090910192909255918252600188019052604090208390555b8554869080614d6b57614d6b61568a565b60019003818190600052602060002001600090559055856001016000868152602001908152602001600020600090556001935050505061030c565b600091505061030c565b600060208284031215614dc257600080fd5b8135600160e060020a031981168114613bb257600080fd5b600060208284031215614dec57600080fd5b5035919050565b600160a060020a038116811461490457600080fd5b8035614e1381614df3565b919050565b60008060408385031215614e2b57600080fd5b823591506020830135614e3d81614df3565b809150509250929050565b60008060408385031215614e5b57600080fd5b8235614e6681614df3565b91506020830135614e3d81614df3565b600080600060608486031215614e8b57600080fd5b83359250602084013591506040840135614ea481614df3565b809150509250925092565b60008060408385031215614ec257600080fd5b50508035926020909101359150565b600160a060020a0391909116815260200190565b600060208284031215614ef757600080fd5b8135613bb281614df3565b60e060020a634e487b7102600052604160045260246000fd5b604051601f8201601f1916810167ffffffffffffffff81118282101715614f4457614f44614f02565b604052919050565b600067ffffffffffffffff821115614f6657614f66614f02565b50601f01601f191660200190565b600082601f830112614f8557600080fd5b8135614f98614f9382614f4c565b614f1b565b818152846020838601011115614fad57600080fd5b816020850160208301376000918101602001919091529392505050565b600082601f830112614fdb57600080fd5b8135602067ffffffffffffffff80831115614ff857614ff8614f02565b818302615006838201614f1b565b938452858101830193838101908886111561502057600080fd5b84880192505b8583101561505c5782358481111561503e5760008081fd5b61504c8a87838c0101614f74565b8352509184019190840190615026565b98975050505050505050565b600080600080600080600060e0888a03121561508357600080fd5b87359650602088013560ff8116811461509b57600080fd5b9550604088013567ffffffffffffffff808211156150b857600080fd5b6150c48b838c01614fca565b965060608a01359150808211156150da57600080fd5b6150e68b838c01614f74565b955060808a01359150808211156150fc57600080fd5b506151098a828b01614f74565b93505060a0880135915061511f60c08901614e08565b905092959891949750929550565b60008060006060848603121561514257600080fd5b833567ffffffffffffffff81111561515957600080fd5b61516586828701614f74565b935050602084013591506040840135614ea481614df3565b60006020828403121561518f57600080fd5b8151613bb281614df3565b918252600160a060020a0316602082015260400190565b6000602082840312156151c357600080fd5b5051919050565b60a08101818560005b60038110156151f557815160ff168352602092830192909101906001016151d3565b505050606082019390935260800152919050565b60006020828403121561521b57600080fd5b81518015158114613bb257600080fd5b60208082526015908201527f706c61796572206e6f7420726567697374657265640000000000000000000000604082015260600190565b60005b8381101561527d578181015183820152602001615265565b83811115613b945750506000910152565b6000602082840312156152a057600080fd5b815167ffffffffffffffff8111156152b757600080fd5b8201601f810184136152c857600080fd5b80516152d6614f9382614f4c565b8181528560208385010111156152eb57600080fd5b6152fc826020830160208601615262565b95945050505050565b6003815260e860020a6244617902602082015260400190565b60608152600061533060608301615305565b6020830194909452506040015290565b600881527f43616d7073697465000000000000000000000000000000000000000000000000602082015260400190565b60608152600061533060608301615340565b60a08152600061539460a08301615305565b6020830196909652506040810193909352606083019190915260809091015290565b60e060020a634e487b7102600052601160045260246000fd5b600082198211156153e2576153e26153b6565b500190565b600081518084526153ff816020860160208601615262565b601f01601f19169290920160200192915050565b600160a060020a03841681528260208201526060604082015260006152fc60608301846153e7565b60a08152600061539460a08301615340565b6000600019821415615461576154616153b6565b5060010190565b6000825161547a818460208701615262565b9190910192915050565b60e060020a634e487b7102600052603260045260246000fd5b600060c08201888352602060ff89168185015260c0604085015281885180845260e08601915060e08382028701019350828a0160005b828110156155015760df198887030184526154ef8683516153e7565b955092840192908401906001016154d3565b5050505050828103606084015261551881876153e7565b9050828103608084015261552c81866153e7565b9150508260a0830152979650505050505050565b60608152600061555360608301866153e7565b9050600c84106155765760e060020a634e487b7102600052602160045260246000fd5b602082019390935260400152919050565b60408152600061559a60408301856153e7565b90508260208301529392505050565b7f416363657373436f6e74726f6c3a206163636f756e74200000000000000000008152600083516155e1816017850160208801615262565b7f206973206d697373696e6720726f6c6520000000000000000000000000000000601791840191820152835161561e816028840160208801615262565b01602801949350505050565b602081526000613bb260208301846153e7565b6000816000190483118215151615615657576156576153b6565b500290565b60008161566b5761566b6153b6565b506000190190565b600082821015615685576156856153b6565b500390565b60e060020a634e487b7102600052603160045260246000fdfea264697066735822122030040e7da2690dd3c9280969d8c57808cf58df6dd91c8ca09a8316d988b229f164736f6c634300080b0033",
  "immutableReferences": {},
  "source": "// SPDX-License-Identifier: GPL-3.0\npragma solidity >=0.7.0 <0.9.0;\n\nimport \"@luckymachines/game-core/contracts/src/v0.0/GameController.sol\";\nimport \"./HexplorationBoard.sol\";\nimport \"./HexplorationZone.sol\";\nimport \"./HexplorationQueue.sol\";\nimport \"./HexplorationStateUpdate.sol\";\nimport \"./state/CharacterCard.sol\";\nimport \"./tokens/TokenInventory.sol\";\n\ncontract HexplorationController is GameController {\n    // functions are meant to be called directly by players by default\n    // we are adding the ability of a Controller Admin or Keeper to\n    // execute the game aspects not directly controlled by players\n    bytes32 public constant VERIFIED_CONTROLLER_ROLE =\n        keccak256(\"VERIFIED_CONTROLLER_ROLE\");\n\n    HexplorationStateUpdate GAME_STATE;\n\n    // TODO:\n    //\n    // Connect to Chainlink VRF for random seeds when needed\n    // submit move + space choice\n    // use / swap item\n\n    /*\n    Controller can access all game tokens with the following methods:\n\n    function mint(\n        string memory tokenType,\n        uint256 gameID,\n        uint256 quantity\n    )\n\n    function transfer(\n        string memory tokenType,\n        uint256 gameID,\n        uint256 fromID,\n        uint256 toID,\n        uint256 quantity\n    )\n*/\n    modifier onlyAdminVC() {\n        require(\n            hasRole(DEFAULT_ADMIN_ROLE, _msgSender()) ||\n                hasRole(VERIFIED_CONTROLLER_ROLE, _msgSender()),\n            \"Admin or Keeper role required\"\n        );\n        _;\n    }\n\n    constructor(address adminAddress) GameController(adminAddress) {}\n\n    // Admin Functions\n\n    function setGameStateUpdate(address gsuAddress)\n        public\n        onlyRole(DEFAULT_ADMIN_ROLE)\n    {\n        GAME_STATE = HexplorationStateUpdate(gsuAddress);\n    }\n\n    function addVerifiedController(address vcAddress)\n        public\n        onlyRole(DEFAULT_ADMIN_ROLE)\n    {\n        grantRole(VERIFIED_CONTROLLER_ROLE, vcAddress);\n    }\n\n    // Admin or Keeper Interactions\n\n    function startGame(uint256 gameID, address boardAddress) public {\n        HexplorationBoard board = HexplorationBoard(boardAddress);\n        require(board.gameState(gameID) == 0, \"game already started\");\n\n        PlayerRegistry pr = PlayerRegistry(board.prAddress());\n\n        // Any registered player can start game once landing site has been set\n        require(pr.isRegistered(gameID, msg.sender), \"player not registered\");\n        board.lockRegistration(gameID);\n        uint256 totalRegistrations = pr.totalRegistrations(gameID);\n\n        string memory startZone = board.initialPlayZone(gameID);\n\n        TokenInventory ti = TokenInventory(board.tokenInventory());\n        // mint game tokens (maybe mint on demand instead...)\n        // minting full game set here\n        ti.DAY_NIGHT_TOKEN().mint(\"Day\", gameID, 1);\n        ti.DAY_NIGHT_TOKEN().mint(\"Night\", gameID, 1);\n        ti.DISASTER_TOKEN().mint(\"Earthquake\", gameID, 1000);\n        ti.DISASTER_TOKEN().mint(\"Volcano\", gameID, 1000);\n        ti.ENEMY_TOKEN().mint(\"Pirate\", gameID, 1000);\n        ti.ENEMY_TOKEN().mint(\"Pirate Ship\", gameID, 1000);\n        ti.ENEMY_TOKEN().mint(\"Deathbot\", gameID, 1000);\n        ti.ENEMY_TOKEN().mint(\"Guardian\", gameID, 1000);\n        ti.ENEMY_TOKEN().mint(\"Sandworm\", gameID, 1000);\n        ti.ENEMY_TOKEN().mint(\"Dragon\", gameID, 1000);\n        ti.ITEM_TOKEN().mint(\"Small Ammo\", gameID, 1000);\n        ti.ITEM_TOKEN().mint(\"Large Ammo\", gameID, 1000);\n        ti.ITEM_TOKEN().mint(\"Batteries\", gameID, 1000);\n        ti.ITEM_TOKEN().mint(\"Shield\", gameID, 1000);\n        ti.ITEM_TOKEN().mint(\"Portal\", gameID, 1000);\n        ti.ITEM_TOKEN().mint(\"On\", gameID, 1000);\n        ti.ITEM_TOKEN().mint(\"Off\", gameID, 1000);\n        ti.ITEM_TOKEN().mint(\"Rusty Dagger\", gameID, 1000);\n        ti.ITEM_TOKEN().mint(\"Rusty Sword\", gameID, 1000);\n        ti.ITEM_TOKEN().mint(\"Rusty Pistol\", gameID, 1000);\n        ti.ITEM_TOKEN().mint(\"Rusty Rifle\", gameID, 1000);\n        ti.ITEM_TOKEN().mint(\"Shiny Dagger\", gameID, 1000);\n        ti.ITEM_TOKEN().mint(\"Shiny Sword\", gameID, 1000);\n        ti.ITEM_TOKEN().mint(\"Shiny Rifle\", gameID, 1000);\n        ti.ITEM_TOKEN().mint(\"Laser Dagger\", gameID, 1000);\n        ti.ITEM_TOKEN().mint(\"Laser Sword\", gameID, 1000);\n        ti.ITEM_TOKEN().mint(\"Laser Pistol\", gameID, 1000);\n        ti.ITEM_TOKEN().mint(\"Laser Rifle\", gameID, 1000);\n        ti.ITEM_TOKEN().mint(\"Glow stick\", gameID, 1000);\n        ti.ITEM_TOKEN().mint(\"Flashlight\", gameID, 1000);\n        ti.ITEM_TOKEN().mint(\"Flood light\", gameID, 1000);\n        ti.ITEM_TOKEN().mint(\"Nightvision Goggles\", gameID, 1000);\n        ti.ITEM_TOKEN().mint(\"Personal Shield\", gameID, 1000);\n        // add these back, just removing to cut down size for testing\n        // ti.ITEM_TOKEN().mint(\"Bubble Shield\", gameID, 1000);\n        // ti.ITEM_TOKEN().mint(\"Frag Grenade\", gameID, 1000);\n        // ti.ITEM_TOKEN().mint(\"Fire Grenade\", gameID, 1000);\n        // ti.ITEM_TOKEN().mint(\"Shock Grenade\", gameID, 1000);\n        // ti.ITEM_TOKEN().mint(\"HE Mortar\", gameID, 1000);\n        // ti.ITEM_TOKEN().mint(\"Incendiary Mortar\", gameID, 1000);\n        // ti.ITEM_TOKEN().mint(\"EMP Mortar\", gameID, 1000);\n        // ti.ITEM_TOKEN().mint(\"Power Glove\", gameID, 1000);\n        // ti.ITEM_TOKEN().mint(\"Remote Launch and Guidance System\", gameID, 1000);\n        // ti.ITEM_TOKEN().mint(\"Teleporter Pack\", gameID, 1000);\n        ti.ITEM_TOKEN().mint(\"Campsite\", gameID, 1000);\n        ti.PLAYER_STATUS_TOKEN().mint(\"Stunned\", gameID, 1000);\n        ti.PLAYER_STATUS_TOKEN().mint(\"Burned\", gameID, 1000);\n        ti.ARTIFACT_TOKEN().mint(\"Engraved Tablet\", gameID, 1000);\n        ti.ARTIFACT_TOKEN().mint(\"Sigil Gem\", gameID, 1000);\n        ti.ARTIFACT_TOKEN().mint(\"Ancient Tome\", gameID, 1000);\n        ti.RELIC_TOKEN().mint(\"Relic 1\", gameID, 1000);\n        ti.RELIC_TOKEN().mint(\"Relic 2\", gameID, 1000);\n        ti.RELIC_TOKEN().mint(\"Relic 3\", gameID, 1000);\n        ti.RELIC_TOKEN().mint(\"Relic 4\", gameID, 1000);\n        ti.RELIC_TOKEN().mint(\"Relic 5\", gameID, 1000);\n        // Transfer day token to board\n        ti.DAY_NIGHT_TOKEN().transfer(\"Day\", gameID, 0, 1, 1);\n\n        for (uint256 i = 0; i < totalRegistrations; i++) {\n            uint256 playerID = i + 1;\n            address playerAddress = pr.playerAddress(gameID, playerID);\n            board.enterPlayer(playerAddress, gameID, startZone);\n            // Transfer campsite tokens to players\n            ti.ITEM_TOKEN().transfer(\"Campsite\", gameID, 0, playerID, 1);\n        }\n        // set game to initialized\n        board.setGameState(2, gameID);\n\n        HexplorationQueue q = HexplorationQueue(board.gameplayQueue());\n\n        uint256 qID = q.queueID(gameID);\n        if (qID == 0) {\n            qID = q.requestGameQueue(\n                gameID,\n                uint16(pr.totalRegistrations(gameID))\n            );\n        }\n        q.startGame(qID);\n    }\n\n    //Player Interactions\n    function registerForGame(uint256 gameID, address boardAddress) public {\n        HexplorationBoard board = HexplorationBoard(boardAddress);\n        board.registerPlayer(msg.sender, gameID);\n        // TODO: set to official values\n        CharacterCard(board.characterCard()).setStats(\n            [4, 4, 4],\n            gameID,\n            PlayerRegistry(board.prAddress()).playerID(gameID, msg.sender)\n        );\n    }\n\n    function submitAction(\n        uint256 playerID,\n        uint8 actionIndex,\n        string[] memory options,\n        string memory leftHand,\n        string memory rightHand,\n        uint256 gameID,\n        address boardAddress\n    ) public {\n        HexplorationBoard board = HexplorationBoard(boardAddress);\n        HexplorationQueue q = HexplorationQueue(board.gameplayQueue());\n        PlayerRegistry pr = PlayerRegistry(board.prAddress());\n        require(\n            pr.playerAddress(gameID, playerID) == msg.sender,\n            \"PlayerID is not sender\"\n        );\n        uint256 totalRegistrations = pr.totalRegistrations(gameID);\n        uint256 qID = q.queueID(gameID);\n        if (qID == 0) {\n            qID = q.requestGameQueue(gameID, totalRegistrations);\n        }\n        require(qID != 0, \"unable to set qID in controller\");\n        string memory cz = board.currentPlayZone(gameID, playerID);\n        string[] memory newOptions;\n        if (actionIndex == 4) {\n            string memory phase = TokenInventory(board.tokenInventory())\n                .DAY_NIGHT_TOKEN()\n                .balance(\"Day\", gameID, 1) > 0\n                ? \"Day\"\n                : \"Night\";\n            // dig action, set options to # players on board\n            uint256 activePlayersOnSpace = 0;\n            for (uint256 i = 0; i < totalRegistrations; i++) {\n                if (\n                    keccak256(\n                        abi.encodePacked(board.currentPlayZone(gameID, i + 1))\n                    ) == keccak256(abi.encodePacked(cz))\n                ) {\n                    activePlayersOnSpace++;\n                }\n                //currentPlayZone[gameID][playerID]\n            }\n            newOptions = new string[](activePlayersOnSpace + 1); // array length = players on space\n            newOptions[0] = phase;\n        } else {\n            newOptions = options;\n        }\n        q.sumbitActionForPlayer(\n            playerID,\n            actionIndex,\n            newOptions,\n            leftHand,\n            rightHand,\n            qID\n        );\n    }\n\n    function chooseLandingSite(\n        string memory zoneChoice,\n        uint256 gameID,\n        address boardAddress\n    ) public {\n        // game rule: player 2 chooses on multiplayer game\n        HexplorationBoard board = HexplorationBoard(boardAddress);\n        PlayerRegistry pr = PlayerRegistry(board.prAddress());\n        require(pr.isRegistered(gameID, msg.sender), \"player not registered\");\n\n        if (pr.totalRegistrations(gameID) > 1) {\n            require(\n                pr.playerID(gameID, msg.sender) == 2,\n                \"P2 chooses landing site\"\n            );\n        }\n        board.enableZone(zoneChoice, HexplorationZone.Tile.LandingSite, gameID);\n        // set landing site at space on board\n        board.setInitialPlayZone(zoneChoice, gameID);\n\n        //startGame(gameID, boardAddress);\n    }\n\n    // TODO: limit this to authorized game starters\n    function requestNewGame(address gameRegistryAddress, address boardAddress)\n        public\n    {\n        HexplorationBoard board = HexplorationBoard(boardAddress);\n        board.requestNewGame(gameRegistryAddress);\n    }\n\n    function latestGame(address gameRegistryAddress, address boardAddress)\n        public\n        view\n        returns (uint256)\n    {\n        return GameRegistry(gameRegistryAddress).latestGame(boardAddress);\n    }\n\n    // TODO: remove before launch\n    // function getTestInventory(uint256 gameID, address boardAddress) public {\n    //     // send some equippable items\n    //     HexplorationBoard board = HexplorationBoard(boardAddress);\n    //     TokenInventory ti = TokenInventory(board.tokenInventory());\n    //     PlayerRegistry pr = PlayerRegistry(board.prAddress());\n    //     ti.ITEM_TOKEN().transfer(\n    //         \"Shiny Rifle\",\n    //         gameID,\n    //         0,\n    //         pr.playerID(gameID, msg.sender),\n    //         1\n    //     );\n\n    //     ti.ITEM_TOKEN().transfer(\n    //         \"Glow stick\",\n    //         gameID,\n    //         0,\n    //         pr.playerID(gameID, msg.sender),\n    //         1\n    //     );\n\n    //     ti.ITEM_TOKEN().transfer(\n    //         \"Laser Dagger\",\n    //         gameID,\n    //         0,\n    //         pr.playerID(gameID, msg.sender),\n    //         1\n    //     );\n    // }\n}\n",
  "sourcePath": "/Users/maxmeier/Developer/Lucky Machines/hexploration/contracts/HexplorationController.sol",
  "compiler": {
    "name": "solc",
    "version": "0.8.11+commit.d7f03943.Emscripten.clang"
  },
  "schemaVersion": "3.4.4",
  "updatedAt": "2022-05-26T15:21:41.358Z",
  "devdoc": {
    "kind": "dev",
    "methods": {
      "getRoleAdmin(bytes32)": {
        "details": "Returns the admin role that controls `role`. See {grantRole} and {revokeRole}. To change a role's admin, use {_setRoleAdmin}."
      },
      "getRoleMember(bytes32,uint256)": {
        "details": "Returns one of the accounts that have `role`. `index` must be a value between 0 and {getRoleMemberCount}, non-inclusive. Role bearers are not sorted in any particular way, and their ordering may change at any point. WARNING: When using {getRoleMember} and {getRoleMemberCount}, make sure you perform all queries on the same block. See the following https://forum.openzeppelin.com/t/iterating-over-elements-on-enumerableset-in-openzeppelin-contracts/2296[forum post] for more information."
      },
      "getRoleMemberCount(bytes32)": {
        "details": "Returns the number of accounts that have `role`. Can be used together with {getRoleMember} to enumerate all bearers of a role."
      },
      "grantRole(bytes32,address)": {
        "details": "Grants `role` to `account`. If `account` had not been already granted `role`, emits a {RoleGranted} event. Requirements: - the caller must have ``role``'s admin role."
      },
      "hasRole(bytes32,address)": {
        "details": "Returns `true` if `account` has been granted `role`."
      },
      "renounceRole(bytes32,address)": {
        "details": "Revokes `role` from the calling account. Roles are often managed via {grantRole} and {revokeRole}: this function's purpose is to provide a mechanism for accounts to lose their privileges if they are compromised (such as when a trusted device is misplaced). If the calling account had been revoked `role`, emits a {RoleRevoked} event. Requirements: - the caller must be `account`."
      },
      "revokeRole(bytes32,address)": {
        "details": "Revokes `role` from `account`. If `account` had been granted `role`, emits a {RoleRevoked} event. Requirements: - the caller must have ``role``'s admin role."
      },
      "supportsInterface(bytes4)": {
        "details": "See {IERC165-supportsInterface}."
      }
    },
    "version": 1
  },
  "userdoc": {
    "kind": "user",
    "methods": {},
    "version": 1
  }
}