{
  "contractName": "HexplorationQueue",
  "abi": [
    {
      "inputs": [
        {
          "internalType": "address",
          "name": "gameplayAddress",
          "type": "address"
        }
      ],
      "stateMutability": "nonpayable",
      "type": "constructor"
    },
    {
      "anonymous": false,
      "inputs": [
        {
          "indexed": true,
          "internalType": "bytes32",
          "name": "role",
          "type": "bytes32"
        },
        {
          "indexed": true,
          "internalType": "bytes32",
          "name": "previousAdminRole",
          "type": "bytes32"
        },
        {
          "indexed": true,
          "internalType": "bytes32",
          "name": "newAdminRole",
          "type": "bytes32"
        }
      ],
      "name": "RoleAdminChanged",
      "type": "event"
    },
    {
      "anonymous": false,
      "inputs": [
        {
          "indexed": true,
          "internalType": "bytes32",
          "name": "role",
          "type": "bytes32"
        },
        {
          "indexed": true,
          "internalType": "address",
          "name": "account",
          "type": "address"
        },
        {
          "indexed": true,
          "internalType": "address",
          "name": "sender",
          "type": "address"
        }
      ],
      "name": "RoleGranted",
      "type": "event"
    },
    {
      "anonymous": false,
      "inputs": [
        {
          "indexed": true,
          "internalType": "bytes32",
          "name": "role",
          "type": "bytes32"
        },
        {
          "indexed": true,
          "internalType": "address",
          "name": "account",
          "type": "address"
        },
        {
          "indexed": true,
          "internalType": "address",
          "name": "sender",
          "type": "address"
        }
      ],
      "name": "RoleRevoked",
      "type": "event"
    },
    {
      "inputs": [],
      "name": "DEFAULT_ADMIN_ROLE",
      "outputs": [
        {
          "internalType": "bytes32",
          "name": "",
          "type": "bytes32"
        }
      ],
      "stateMutability": "view",
      "type": "function"
    },
    {
      "inputs": [],
      "name": "GAMEPLAY_ROLE",
      "outputs": [
        {
          "internalType": "bytes32",
          "name": "",
          "type": "bytes32"
        }
      ],
      "stateMutability": "view",
      "type": "function"
    },
    {
      "inputs": [],
      "name": "VERIFIED_CONTROLLER_ROLE",
      "outputs": [
        {
          "internalType": "bytes32",
          "name": "",
          "type": "bytes32"
        }
      ],
      "stateMutability": "view",
      "type": "function"
    },
    {
      "inputs": [
        {
          "internalType": "uint256",
          "name": "",
          "type": "uint256"
        },
        {
          "internalType": "uint256",
          "name": "",
          "type": "uint256"
        }
      ],
      "name": "activeAction",
      "outputs": [
        {
          "internalType": "enum HexplorationQueue.Action",
          "name": "",
          "type": "uint8"
        }
      ],
      "stateMutability": "view",
      "type": "function"
    },
    {
      "inputs": [
        {
          "internalType": "uint256",
          "name": "",
          "type": "uint256"
        }
      ],
      "name": "currentPhase",
      "outputs": [
        {
          "internalType": "enum HexplorationQueue.ProcessingPhase",
          "name": "",
          "type": "uint8"
        }
      ],
      "stateMutability": "view",
      "type": "function"
    },
    {
      "inputs": [
        {
          "internalType": "uint256",
          "name": "",
          "type": "uint256"
        }
      ],
      "name": "currentQueuePosition",
      "outputs": [
        {
          "internalType": "uint16",
          "name": "",
          "type": "uint16"
        }
      ],
      "stateMutability": "view",
      "type": "function"
    },
    {
      "inputs": [
        {
          "internalType": "uint256",
          "name": "",
          "type": "uint256"
        }
      ],
      "name": "game",
      "outputs": [
        {
          "internalType": "uint256",
          "name": "",
          "type": "uint256"
        }
      ],
      "stateMutability": "view",
      "type": "function"
    },
    {
      "inputs": [
        {
          "internalType": "bytes32",
          "name": "role",
          "type": "bytes32"
        }
      ],
      "name": "getRoleAdmin",
      "outputs": [
        {
          "internalType": "bytes32",
          "name": "",
          "type": "bytes32"
        }
      ],
      "stateMutability": "view",
      "type": "function"
    },
    {
      "inputs": [
        {
          "internalType": "bytes32",
          "name": "role",
          "type": "bytes32"
        },
        {
          "internalType": "uint256",
          "name": "index",
          "type": "uint256"
        }
      ],
      "name": "getRoleMember",
      "outputs": [
        {
          "internalType": "address",
          "name": "",
          "type": "address"
        }
      ],
      "stateMutability": "view",
      "type": "function"
    },
    {
      "inputs": [
        {
          "internalType": "bytes32",
          "name": "role",
          "type": "bytes32"
        }
      ],
      "name": "getRoleMemberCount",
      "outputs": [
        {
          "internalType": "uint256",
          "name": "",
          "type": "uint256"
        }
      ],
      "stateMutability": "view",
      "type": "function"
    },
    {
      "inputs": [
        {
          "internalType": "bytes32",
          "name": "role",
          "type": "bytes32"
        },
        {
          "internalType": "address",
          "name": "account",
          "type": "address"
        }
      ],
      "name": "grantRole",
      "outputs": [],
      "stateMutability": "nonpayable",
      "type": "function"
    },
    {
      "inputs": [
        {
          "internalType": "bytes32",
          "name": "role",
          "type": "bytes32"
        },
        {
          "internalType": "address",
          "name": "account",
          "type": "address"
        }
      ],
      "name": "hasRole",
      "outputs": [
        {
          "internalType": "bool",
          "name": "",
          "type": "bool"
        }
      ],
      "stateMutability": "view",
      "type": "function"
    },
    {
      "inputs": [
        {
          "internalType": "uint256",
          "name": "",
          "type": "uint256"
        }
      ],
      "name": "inProcessingQueue",
      "outputs": [
        {
          "internalType": "bool",
          "name": "",
          "type": "bool"
        }
      ],
      "stateMutability": "view",
      "type": "function"
    },
    {
      "inputs": [
        {
          "internalType": "uint256",
          "name": "",
          "type": "uint256"
        }
      ],
      "name": "playThroughPosition",
      "outputs": [
        {
          "internalType": "uint16",
          "name": "",
          "type": "uint16"
        }
      ],
      "stateMutability": "view",
      "type": "function"
    },
    {
      "inputs": [
        {
          "internalType": "uint256",
          "name": "",
          "type": "uint256"
        },
        {
          "internalType": "uint256",
          "name": "",
          "type": "uint256"
        }
      ],
      "name": "playerSubmitted",
      "outputs": [
        {
          "internalType": "bool",
          "name": "",
          "type": "bool"
        }
      ],
      "stateMutability": "view",
      "type": "function"
    },
    {
      "inputs": [
        {
          "internalType": "uint256",
          "name": "",
          "type": "uint256"
        },
        {
          "internalType": "uint256",
          "name": "",
          "type": "uint256"
        }
      ],
      "name": "players",
      "outputs": [
        {
          "internalType": "uint256",
          "name": "",
          "type": "uint256"
        }
      ],
      "stateMutability": "view",
      "type": "function"
    },
    {
      "inputs": [
        {
          "internalType": "uint256",
          "name": "",
          "type": "uint256"
        }
      ],
      "name": "processingQueue",
      "outputs": [
        {
          "internalType": "uint256",
          "name": "",
          "type": "uint256"
        }
      ],
      "stateMutability": "view",
      "type": "function"
    },
    {
      "inputs": [
        {
          "internalType": "uint256",
          "name": "",
          "type": "uint256"
        }
      ],
      "name": "queueID",
      "outputs": [
        {
          "internalType": "uint256",
          "name": "",
          "type": "uint256"
        }
      ],
      "stateMutability": "view",
      "type": "function"
    },
    {
      "inputs": [
        {
          "internalType": "uint256",
          "name": "",
          "type": "uint256"
        }
      ],
      "name": "randomness",
      "outputs": [
        {
          "internalType": "uint256",
          "name": "",
          "type": "uint256"
        }
      ],
      "stateMutability": "view",
      "type": "function"
    },
    {
      "inputs": [
        {
          "internalType": "bytes32",
          "name": "role",
          "type": "bytes32"
        },
        {
          "internalType": "address",
          "name": "account",
          "type": "address"
        }
      ],
      "name": "renounceRole",
      "outputs": [],
      "stateMutability": "nonpayable",
      "type": "function"
    },
    {
      "inputs": [
        {
          "internalType": "bytes32",
          "name": "role",
          "type": "bytes32"
        },
        {
          "internalType": "address",
          "name": "account",
          "type": "address"
        }
      ],
      "name": "revokeRole",
      "outputs": [],
      "stateMutability": "nonpayable",
      "type": "function"
    },
    {
      "inputs": [
        {
          "internalType": "uint256",
          "name": "",
          "type": "uint256"
        },
        {
          "internalType": "uint256",
          "name": "",
          "type": "uint256"
        }
      ],
      "name": "submissionAction",
      "outputs": [
        {
          "internalType": "enum HexplorationQueue.Action",
          "name": "",
          "type": "uint8"
        }
      ],
      "stateMutability": "view",
      "type": "function"
    },
    {
      "inputs": [
        {
          "internalType": "uint256",
          "name": "",
          "type": "uint256"
        },
        {
          "internalType": "uint256",
          "name": "",
          "type": "uint256"
        }
      ],
      "name": "submissionLeftHand",
      "outputs": [
        {
          "internalType": "string",
          "name": "",
          "type": "string"
        }
      ],
      "stateMutability": "view",
      "type": "function"
    },
    {
      "inputs": [
        {
          "internalType": "uint256",
          "name": "",
          "type": "uint256"
        },
        {
          "internalType": "uint256",
          "name": "",
          "type": "uint256"
        },
        {
          "internalType": "uint256",
          "name": "",
          "type": "uint256"
        }
      ],
      "name": "submissionOptions",
      "outputs": [
        {
          "internalType": "string",
          "name": "",
          "type": "string"
        }
      ],
      "stateMutability": "view",
      "type": "function"
    },
    {
      "inputs": [
        {
          "internalType": "uint256",
          "name": "",
          "type": "uint256"
        },
        {
          "internalType": "uint256",
          "name": "",
          "type": "uint256"
        }
      ],
      "name": "submissionRightHand",
      "outputs": [
        {
          "internalType": "string",
          "name": "",
          "type": "string"
        }
      ],
      "stateMutability": "view",
      "type": "function"
    },
    {
      "inputs": [
        {
          "internalType": "bytes4",
          "name": "interfaceId",
          "type": "bytes4"
        }
      ],
      "name": "supportsInterface",
      "outputs": [
        {
          "internalType": "bool",
          "name": "",
          "type": "bool"
        }
      ],
      "stateMutability": "view",
      "type": "function"
    },
    {
      "inputs": [
        {
          "internalType": "uint256",
          "name": "",
          "type": "uint256"
        }
      ],
      "name": "totalPlayers",
      "outputs": [
        {
          "internalType": "uint256",
          "name": "",
          "type": "uint256"
        }
      ],
      "stateMutability": "view",
      "type": "function"
    },
    {
      "inputs": [
        {
          "internalType": "address",
          "name": "controllerAddress",
          "type": "address"
        }
      ],
      "name": "addVerifiedController",
      "outputs": [],
      "stateMutability": "nonpayable",
      "type": "function"
    },
    {
      "inputs": [
        {
          "internalType": "uint256",
          "name": "gameID",
          "type": "uint256"
        },
        {
          "internalType": "uint256",
          "name": "_totalPlayers",
          "type": "uint256"
        }
      ],
      "name": "requestGameQueue",
      "outputs": [
        {
          "internalType": "uint256",
          "name": "",
          "type": "uint256"
        }
      ],
      "stateMutability": "nonpayable",
      "type": "function"
    },
    {
      "inputs": [
        {
          "internalType": "uint256",
          "name": "_queueID",
          "type": "uint256"
        }
      ],
      "name": "startGame",
      "outputs": [],
      "stateMutability": "nonpayable",
      "type": "function"
    },
    {
      "inputs": [
        {
          "internalType": "uint256",
          "name": "playerID",
          "type": "uint256"
        },
        {
          "internalType": "uint8",
          "name": "action",
          "type": "uint8"
        },
        {
          "internalType": "string[]",
          "name": "options",
          "type": "string[]"
        },
        {
          "internalType": "string",
          "name": "leftHand",
          "type": "string"
        },
        {
          "internalType": "string",
          "name": "rightHand",
          "type": "string"
        },
        {
          "internalType": "uint256",
          "name": "_queueID",
          "type": "uint256"
        }
      ],
      "name": "sumbitActionForPlayer",
      "outputs": [],
      "stateMutability": "nonpayable",
      "type": "function"
    },
    {
      "inputs": [
        {
          "internalType": "uint256",
          "name": "_queueID",
          "type": "uint256"
        }
      ],
      "name": "requestProcessActions",
      "outputs": [],
      "stateMutability": "nonpayable",
      "type": "function"
    },
    {
      "inputs": [
        {
          "internalType": "uint256",
          "name": "_queueID",
          "type": "uint256"
        }
      ],
      "name": "getAllPlayers",
      "outputs": [
        {
          "internalType": "uint256[]",
          "name": "",
          "type": "uint256[]"
        }
      ],
      "stateMutability": "view",
      "type": "function"
    },
    {
      "inputs": [
        {
          "internalType": "uint256",
          "name": "_queueID",
          "type": "uint256"
        },
        {
          "internalType": "uint256",
          "name": "_playerID",
          "type": "uint256"
        }
      ],
      "name": "getSubmissionOptions",
      "outputs": [
        {
          "internalType": "string[]",
          "name": "",
          "type": "string[]"
        }
      ],
      "stateMutability": "view",
      "type": "function"
    },
    {
      "inputs": [
        {
          "internalType": "enum HexplorationQueue.ProcessingPhase",
          "name": "phase",
          "type": "uint8"
        },
        {
          "internalType": "uint256",
          "name": "_queueID",
          "type": "uint256"
        }
      ],
      "name": "setPhase",
      "outputs": [],
      "stateMutability": "nonpayable",
      "type": "function"
    },
    {
      "inputs": [
        {
          "internalType": "uint256",
          "name": "randomNumber",
          "type": "uint256"
        },
        {
          "internalType": "uint256",
          "name": "_queueID",
          "type": "uint256"
        }
      ],
      "name": "setRandomNumber",
      "outputs": [],
      "stateMutability": "nonpayable",
      "type": "function"
    },
    {
      "inputs": [
        {
          "internalType": "uint256",
          "name": "_queueID",
          "type": "uint256"
        }
      ],
      "name": "requestNewQueueID",
      "outputs": [],
      "stateMutability": "nonpayable",
      "type": "function"
    },
    {
      "inputs": [
        {
          "internalType": "uint256",
          "name": "_queueID",
          "type": "uint256"
        },
        {
          "internalType": "bool",
          "name": "gameComplete",
          "type": "bool"
        }
      ],
      "name": "finishProcessing",
      "outputs": [],
      "stateMutability": "nonpayable",
      "type": "function"
    }
  ],
  "bytecode": "0x60806040523480156200001157600080fd5b50604051620021213803806200212183398101604081905262000034916200027d565b6200005c60006200004d640100000000620000b2810204565b640100000000620000b6810204565b620000917f0c2c7e957bdf811d5a896b04e816b9c382dfb980c93b21b0288b75c85d598acd82640100000000620000b6810204565b620000ab600264010000000062000e0b620000cf82021704565b50620002af565b3390565b620000cb8282640100000000620000d8810204565b5050565b80546001019055565b620000f2828264010000000062000e146200011f82021704565b60008281526001602052604090206200011a908264010000000062000e98620001bb82021704565b505050565b620001348282640100000000620001e4810204565b620000cb57600082815260208181526040808320600160a060020a03851684529091529020805460ff1916600117905562000177640100000000620000b2810204565b600160a060020a031681600160a060020a0316837f2f8788117e7eff1d82e926ec794901d17c78024a50270940304540a733656f0d60405160405180910390a45050565b6000620001db83600160a060020a0384166401000000006200020d810204565b90505b92915050565b600091825260208281526040808420600160a060020a0393909316845291905290205460ff1690565b600062000224838364010000000062000265810204565b6200025c57508154600181810184556000848152602080822090930184905584548482528286019093526040902091909155620001de565b506000620001de565b60009081526001919091016020526040902054151590565b6000602082840312156200029057600080fd5b8151600160a060020a0381168114620002a857600080fd5b9392505050565b611e6280620002bf6000396000f3fe608060405234801561001057600080fd5b506004361061022f576000357c010000000000000000000000000000000000000000000000000000000090048063998f1b801161013d578063b1fb6405116100d5578063d809371f11610099578063d809371f146105dc578063e2f315c1146105ef578063e5ed1d5914610613578063e73ed37f14610626578063fd82e21f1461065457600080fd5b8063b1fb640514610553578063ca15c87314610583578063cddbe72914610596578063d4f5b152146105b6578063d547741f146105c957600080fd5b8063998f1b801461047c5780639b8e68191461048f5780639bd78d2b146104a25780639f6bc61d146104c5578063a217fddf146104d8578063a2dc5860146104e0578063ac01b83d14610500578063ae6a705614610520578063af7afe561461053357600080fd5b806328d6b4c0116101cb5780637f0415911161018f5780637f041591146103dd578063861814e21461040b5780638e6e1d891461042b5780639010d07c1461043e57806391d148541461046957600080fd5b806328d6b4c01461037c5780632f2ff15d1461039157806336568abe146103a45780635da4fabc146103b75780636b775e5c146103ca57600080fd5b806301ffc9a71461023457806304ac8fee1461025c57806306fb5527146102715780630c6ea53114610292578063181ad5e7146102c95780631b1d5b27146103045780631b341b3e146103245780631c834a7f14610344578063248a9ca314610359575b600080fd5b6102476102423660046117c2565b610667565b60405190151581526020015b60405180910390f35b61026f61026a3660046117ec565b6106ab565b005b61028461027f36600461181c565b6106f8565b604051908152602001610253565b6102b66102a036600461183e565b60046020526000908152604090205461ffff1681565b60405161ffff9091168152602001610253565b6102f76102d736600461181c565b601260209081526000928352604080842090915290825290205460ff1681565b6040516102539190611870565b61028461031236600461183e565b600c6020526000908152604090205481565b61033761033236600461188a565b610724565b604051610253919061190e565b610284600080516020611e0d83398151915281565b61028461036736600461183e565b60009081526020819052604090206001015490565b610284600080516020611ded83398151915281565b61026f61039f36600461193d565b6107ea565b61026f6103b236600461193d565b610814565b61026f6103c536600461181c565b6108a8565b61026f6103d836600461183e565b6108d2565b6102f76103eb36600461181c565b600d60209081526000928352604080842090915290825290205460ff1681565b61028461041936600461183e565b60066020526000908152604090205481565b61026f610439366004611969565b6108f3565b61045161044c36600461181c565b610915565b604051600160a060020a039091168152602001610253565b61024761047736600461193d565b610934565b61028461048a36600461181c565b61095d565b61033761049d36600461181c565b61098e565b6102476104b036600461183e565b60076020526000908152604090205460ff1681565b6102846104d336600461183e565b6109b2565b610284600081565b6104f36104ee36600461181c565b6109d3565b604051610253919061199e565b61051361050e36600461183e565b610ac1565b60405161025391906119ff565b61026f61052e366004611b9b565b610b23565b61028461054136600461183e565b600b6020526000908152604090205481565b61057661056136600461183e565b60086020526000908152604090205460ff1681565b6040516102539190611c4e565b61028461059136600461183e565b610cff565b6102846105a436600461183e565b60096020526000908152604090205481565b61026f6105c4366004611c62565b610d16565b61026f6105d736600461193d565b610d39565b61026f6105ea36600461183e565b610d5e565b6102b66105fd36600461183e565b60056020526000908152604090205461ffff1681565b61026f61062136600461183e565b610db3565b61024761063436600461181c565b601160209081526000928352604080842090915290825290205460ff1681565b61033761066236600461181c565b610de7565b6000600160e060020a031982167f5a05180f0000000000000000000000000000000000000000000000000000000014806106a557506106a582610ead565b92915050565b600080516020611ded8339815191526106c381610f14565b6000828152600860205260409020805484919060ff191660018360058111156106ee576106ee611857565b0217905550505050565b6000600080516020611e0d83398151915261071281610f14565b61071c8484610f21565b949350505050565b600e602052826000526040600020602052816000526040600020818154811061074c57600080fd5b906000526020600020016000925092505050805461076990611c7d565b80601f016020809104026020016040519081016040528092919081815260200182805461079590611c7d565b80156107e25780601f106107b7576101008083540402835291602001916107e2565b820191906000526020600020905b8154815290600101906020018083116107c557829003601f168201915b505050505081565b60008281526020819052604090206001015461080581610f14565b61080f8383610fc9565b505050565b600160a060020a038116331461089a5760405160e560020a62461bcd02815260206004820152602f60248201527f416363657373436f6e74726f6c3a2063616e206f6e6c792072656e6f756e636560448201527f20726f6c657320666f722073656c66000000000000000000000000000000000060648201526084015b60405180910390fd5b6108a48282610feb565b5050565b600080516020611ded8339815191526108c081610f14565b506000908152600c6020526040902055565b600080516020611e0d8339815191526108ea81610f14565b6108a48261100d565b600080516020611ded83398151915261090b81610f14565b61080f83836110bc565b600082815260016020526040812061092d908361113c565b9392505050565b600091825260208281526040808420600160a060020a0393909316845291905290205460ff1690565b600a602052816000526040600020818154811061097957600080fd5b90600052602060002001600091509150505481565b60106020908152600092835260408084209091529082529020805461076990611c7d565b600381815481106109c257600080fd5b600091825260209091200154905081565b6000828152600e602090815260408083208484528252808320805482518185028101850190935280835260609492939192909184015b82821015610ab5578382906000526020600020018054610a2890611c7d565b80601f0160208091040260200160405190810160405280929190818152602001828054610a5490611c7d565b8015610aa15780601f10610a7657610100808354040283529160200191610aa1565b820191906000526020600020905b815481529060010190602001808311610a8457829003601f168201915b505050505081526020019060010190610a09565b50505050905092915050565b6000818152600a6020908152604091829020805483518184028101840190945280845260609392830182828015610b1757602002820191906000526020600020905b815481526020019060010190808311610b03575b50505050509050919050565b600080516020611e0d833981519152610b3b81610f14565b600160008381526008602052604090205460ff166005811115610b6057610b60611857565b14610bb05760405160e560020a62461bcd02815260206004820152601460248201527f4e6f74207375626d697373696f6e2070686173650000000000000000000000006044820152606401610891565b60008281526011602090815260408083208a845290915290205460ff16610cf6578560ff166006811115610be657610be6611857565b6000838152600d602090815260408083208b84529091529020805460ff19166001836006811115610c1957610c19611857565b02179055506000828152600e602090815260408083208a845282529091208651610c4592880190611679565b506000828152600f602090815260408083208a845282529091208551610c6d928701906116d6565b5060008281526010602090815260408083208a845282529091208451610c95928601906116d6565b506000828152600a602081815260408084208054600181810183558287528487209091018d9055878652601184528286208d87528452828620805460ff19169091179055868552600b8352932054919052905410610cf657610cf68261100d565b50505050505050565b60008181526001602052604081206106a590611148565b6000610d2181610f14565b6108a4600080516020611e0d833981519152836107ea565b600082815260208190526040902060010154610d5481610f14565b61080f8383610feb565b600080516020611ded833981519152610d7681610f14565b600082815260096020908152604080832054600b90925290912054610d9b8282610f21565b60009283526006602052604090922091909155505050565b600080516020611e0d833981519152610dcb81610f14565b506000908152600860205260409020805460ff19166001179055565b600f6020908152600092835260408084209091529082529020805461076990611c7d565b80546001019055565b610e1e8282610934565b6108a457600082815260208181526040808320600160a060020a03851684529091529020805460ff19166001179055610e543390565b600160a060020a031681600160a060020a0316837f2f8788117e7eff1d82e926ec794901d17c78024a50270940304540a733656f0d60405160405180910390a45050565b600061092d83600160a060020a038416611152565b6000600160e060020a031982167f7965db0b0000000000000000000000000000000000000000000000000000000014806106a557507f01ffc9a700000000000000000000000000000000000000000000000000000000600160e060020a03198316146106a5565b610f1e81336111a1565b50565b60008281526006602052604081205415610f805760405160e560020a62461bcd02815260206004820152601160248201527f717565756520616c7265616479207365740000000000000000000000000000006044820152606401610891565b6000610f8b60025490565b600081815260096020908152604080832088905587835260068252808320849055838352600b9091529020849055905061092d600280546001019055565b610fd38282610e14565b600082815260016020526040902061080f9082610e98565b610ff58282611208565b600082815260016020526040902061080f908261126d565b60008181526007602052604090205460ff1615801561104e5750600160008281526008602052604090205460ff16600581111561104c5761104c611857565b145b15610f1e576003805460018082019092557fc2575a0e9e593c00f959f8c92f12db2869c3395a3b0502d05e2516446f71f85b018290556000828152600760209081526040808320805460ff1990811690951790556008909152902080549091166002179055610f1e81611282565b60008281526009602090815260408083205460088352818420805460ff1916600417905580845260069092528220919091558161080f576000838152600b60205260408120549061110d8383610f21565b600093845260066020908152604080862083905591855260089052909220805460ff1916600117905550505050565b600061092d8383611319565b60006106a5825490565b6000818152600183016020526040812054611199575081546001818101845560008481526020808220909301849055845484825282860190935260409020919091556106a5565b5060006106a5565b6111ab8282610934565b6108a4576111c381600160a060020a03166014611343565b6111ce836020611343565b6040516020016111df929190611cbb565b60408051601f198184030181529082905260e560020a62461bcd0282526108919160040161190e565b6112128282610934565b156108a457600082815260208181526040808320600160a060020a0385168085529252808320805460ff1916905551339285917ff6391f5c32d9c69d2a47ea670b442974b53935d1edc7fd64eb21e047a839171b9190a45050565b600061092d83600160a060020a038416611545565b6000818152601360209081526040808320849055518392916112b1914291859101918252602082015260400190565b60408051601f198184030181528282528051602091820120600180855284840190935293506000929190808301908036833701905050905081816000815181106112fd576112fd611d3c565b6020026020010181815250506113138382611638565b50505050565b600082600001828154811061133057611330611d3c565b9060005260206000200154905092915050565b60606000611352836002611d6e565b61135d906002611d8d565b67ffffffffffffffff81111561137557611375611a43565b6040519080825280601f01601f19166020018201604052801561139f576020820181803683370190505b5090507f3000000000000000000000000000000000000000000000000000000000000000816000815181106113d6576113d6611d3c565b6020010190600160f860020a031916908160001a9053507f78000000000000000000000000000000000000000000000000000000000000008160018151811061142157611421611d3c565b6020010190600160f860020a031916908160001a9053506000611445846002611d6e565b611450906001611d8d565b90505b60018111156114f3577f303132333435363738396162636465660000000000000000000000000000000085600f166010811061149157611491611d3c565b1a7f0100000000000000000000000000000000000000000000000000000000000000028282815181106114c6576114c6611d3c565b6020010190600160f860020a031916908160001a9053506010909404936114ec81611da5565b9050611453565b50831561092d5760405160e560020a62461bcd02815260206004820181905260248201527f537472696e67733a20686578206c656e67746820696e73756666696369656e746044820152606401610891565b6000818152600183016020526040812054801561162e576000611569600183611dbc565b855490915060009061157d90600190611dbc565b90508181146115e257600086600001828154811061159d5761159d611d3c565b90600052602060002001549050808760000184815481106115c0576115c0611d3c565b6000918252602080832090910192909255918252600188019052604090208390555b85548690806115f3576115f3611dd3565b6001900381819060005260206000200160009055905585600101600086815260200190815260200160002060009055600193505050506106a5565b60009150506106a5565b60008281526013602052604081205482519091839161165957611659611d3c565b6020908102919091018101516000928352600c9091526040909120555050565b8280548282559060005260206000209081019282156116c6579160200282015b828111156116c657825180516116b69184916020909101906116d6565b5091602001919060010190611699565b506116d2929150611756565b5090565b8280546116e290611c7d565b90600052602060002090601f016020900481019282611704576000855561174a565b82601f1061171d57805160ff191683800117855561174a565b8280016001018555821561174a579182015b8281111561174a57825182559160200191906001019061172f565b506116d2929150611773565b808211156116d257600061176a8282611788565b50600101611756565b5b808211156116d25760008155600101611774565b50805461179490611c7d565b6000825580601f106117a4575050565b601f016020900490600052602060002090810190610f1e9190611773565b6000602082840312156117d457600080fd5b8135600160e060020a03198116811461092d57600080fd5b600080604083850312156117ff57600080fd5b82356006811061180e57600080fd5b946020939093013593505050565b6000806040838503121561182f57600080fd5b50508035926020909101359150565b60006020828403121561185057600080fd5b5035919050565b60e060020a634e487b7102600052602160045260246000fd5b602081016007831061188457611884611857565b91905290565b60008060006060848603121561189f57600080fd5b505081359360208301359350604090920135919050565b60005b838110156118d15781810151838201526020016118b9565b838111156113135750506000910152565b600081518084526118fa8160208601602086016118b6565b601f01601f19169290920160200192915050565b60208152600061092d60208301846118e2565b8035600160a060020a038116811461193857600080fd5b919050565b6000806040838503121561195057600080fd5b8235915061196060208401611921565b90509250929050565b6000806040838503121561197c57600080fd5b823591506020830135801515811461199357600080fd5b809150509250929050565b600060208083018184528085518083526040860191506040848202870101925083870160005b828110156119f257603f198886030184526119e08583516118e2565b945092850192908501906001016119c4565b5092979650505050505050565b6020808252825182820181905260009190848201906040850190845b81811015611a3757835183529284019291840191600101611a1b565b50909695505050505050565b60e060020a634e487b7102600052604160045260246000fd5b604051601f8201601f1916810167ffffffffffffffff81118282101715611a8557611a85611a43565b604052919050565b600082601f830112611a9e57600080fd5b813567ffffffffffffffff811115611ab857611ab8611a43565b611acb601f8201601f1916602001611a5c565b818152846020838601011115611ae057600080fd5b816020850160208301376000918101602001919091529392505050565b600082601f830112611b0e57600080fd5b8135602067ffffffffffffffff80831115611b2b57611b2b611a43565b818302611b39838201611a5c565b9384528581018301938381019088861115611b5357600080fd5b84880192505b85831015611b8f57823584811115611b715760008081fd5b611b7f8a87838c0101611a8d565b8352509184019190840190611b59565b98975050505050505050565b60008060008060008060c08789031215611bb457600080fd5b86359550602087013560ff81168114611bcc57600080fd5b9450604087013567ffffffffffffffff80821115611be957600080fd5b611bf58a838b01611afd565b95506060890135915080821115611c0b57600080fd5b611c178a838b01611a8d565b94506080890135915080821115611c2d57600080fd5b50611c3a89828a01611a8d565b92505060a087013590509295509295509295565b602081016006831061188457611884611857565b600060208284031215611c7457600080fd5b61092d82611921565b600281046001821680611c9157607f821691505b60208210811415611cb55760e060020a634e487b7102600052602260045260246000fd5b50919050565b7f416363657373436f6e74726f6c3a206163636f756e7420000000000000000000815260008351611cf38160178501602088016118b6565b7f206973206d697373696e6720726f6c65200000000000000000000000000000006017918401918201528351611d308160288401602088016118b6565b01602801949350505050565b60e060020a634e487b7102600052603260045260246000fd5b60e060020a634e487b7102600052601160045260246000fd5b6000816000190483118215151615611d8857611d88611d55565b500290565b60008219821115611da057611da0611d55565b500190565b600081611db457611db4611d55565b506000190190565b600082821015611dce57611dce611d55565b500390565b60e060020a634e487b7102600052603160045260246000fdfe0c2c7e957bdf811d5a896b04e816b9c382dfb980c93b21b0288b75c85d598acd80e2196015fc06a9d891759f8e4f51eb314ef5e9ea068528a8ed0063b87759f0a2646970667358221220659882916c2f94a0d9d2d24275cd5f71343915471b064622e406421147266cbf64736f6c634300080b0033",
  "immutableReferences": {},
  "source": "// SPDX-License-Identifier: GPL-3.0\npragma solidity >=0.7.0 <0.9.0;\n\nimport \"@openzeppelin/contracts/access/AccessControlEnumerable.sol\";\nimport \"@openzeppelin/contracts/utils/Counters.sol\";\nimport \"./HexplorationStateUpdate.sol\";\n\ncontract HexplorationQueue is AccessControlEnumerable {\n    using Counters for Counters.Counter;\n    Counters.Counter internal QUEUE_ID;\n\n    enum ProcessingPhase {\n        Start,\n        Submission,\n        Processing,\n        PlayThrough,\n        Processed,\n        Closed\n    }\n    enum Action {\n        Idle,\n        Move,\n        SetupCamp,\n        BreakDownCamp,\n        Dig,\n        Rest,\n        Help\n    }\n\n    bytes32 public constant VERIFIED_CONTROLLER_ROLE =\n        keccak256(\"VERIFIED_CONTROLLER_ROLE\");\n    bytes32 public constant GAMEPLAY_ROLE = keccak256(\"GAMEPLAY_ROLE\");\n\n    // Array of Queue IDs to be processed.\n    uint256[] public processingQueue;\n\n    // do we need these 2?\n    mapping(uint256 => uint16) public currentQueuePosition; // ?? increases with each player in queue, then back to 0\n    mapping(uint256 => uint16) public playThroughPosition; // ?? in case we need to batch this too... hopefully not.\n\n    // mapping from game ID\n    mapping(uint256 => uint256) public queueID; // mapping from game ID to it's queue, updates to 0 when finished\n\n    // mappings from queue index\n    mapping(uint256 => bool) public inProcessingQueue; // game queue is in processing queue\n    mapping(uint256 => ProcessingPhase) public currentPhase; // processingPhase\n    mapping(uint256 => uint256) public game; // mapping from queue ID to it's game ID\n    mapping(uint256 => uint256[]) public players; // all players with moves to process\n    mapping(uint256 => uint256) public totalPlayers; // total # of players who will be submitting\n    mapping(uint256 => uint256) public randomness; // randomness delivered here at start of each phase processing\n\n    // mappings from queue index => player id\n    mapping(uint256 => mapping(uint256 => Action)) public submissionAction;\n    mapping(uint256 => mapping(uint256 => string[])) public submissionOptions;\n    mapping(uint256 => mapping(uint256 => string)) public submissionLeftHand;\n    mapping(uint256 => mapping(uint256 => string)) public submissionRightHand;\n    mapping(uint256 => mapping(uint256 => bool)) public playerSubmitted;\n\n    // current action, so we know what to process during play through phase\n    mapping(uint256 => mapping(uint256 => Action)) public activeAction; // defaults to idle\n\n    // From request ID => queue ID\n    mapping(uint256 => uint256) internal randomnessRequestQueueID; // ID set before randomness delivered\n\n    ///////  VRF can kick off processing phase\n\n    constructor(address gameplayAddress) {\n        _setupRole(DEFAULT_ADMIN_ROLE, _msgSender());\n        _setupRole(GAMEPLAY_ROLE, gameplayAddress);\n        QUEUE_ID.increment(); // start at 1\n    }\n\n    // Can set multiple VCs, one for manual pushing, one for keeper\n    function addVerifiedController(address controllerAddress)\n        public\n        onlyRole(DEFAULT_ADMIN_ROLE)\n    {\n        grantRole(VERIFIED_CONTROLLER_ROLE, controllerAddress);\n    }\n\n    // pass total # players making submissions\n    // total can be less than actual totalPlayers in game\n    function requestGameQueue(uint256 gameID, uint256 _totalPlayers)\n        external\n        onlyRole(VERIFIED_CONTROLLER_ROLE)\n        returns (uint256)\n    {\n        return _requestGameQueue(gameID, _totalPlayers);\n    }\n\n    // Sent from controller\n\n    function startGame(uint256 _queueID)\n        public\n        onlyRole(VERIFIED_CONTROLLER_ROLE)\n    {\n        currentPhase[_queueID] = ProcessingPhase.Submission;\n    }\n\n    function sumbitActionForPlayer(\n        uint256 playerID,\n        uint8 action,\n        string[] memory options,\n        string memory leftHand,\n        string memory rightHand,\n        uint256 _queueID\n    ) public onlyRole(VERIFIED_CONTROLLER_ROLE) {\n        require(\n            currentPhase[_queueID] == ProcessingPhase.Submission,\n            \"Not submission phase\"\n        );\n        if (!playerSubmitted[_queueID][playerID]) {\n            submissionAction[_queueID][playerID] = Action(action);\n            submissionOptions[_queueID][playerID] = options;\n            submissionLeftHand[_queueID][playerID] = leftHand;\n            submissionRightHand[_queueID][playerID] = rightHand;\n\n            players[_queueID].push(playerID);\n            playerSubmitted[_queueID][playerID] = true;\n            // automatically add to queue if last player to submit move\n            if (players[_queueID].length >= totalPlayers[_queueID]) {\n                _processAllActions(_queueID);\n            }\n        }\n    }\n\n    // Will get processed once keeper is available\n    // and previous game queues have been processed\n    function requestProcessActions(uint256 _queueID)\n        public\n        onlyRole(VERIFIED_CONTROLLER_ROLE)\n    {\n        _processAllActions(_queueID);\n    }\n\n    function getAllPlayers(uint256 _queueID)\n        public\n        view\n        returns (uint256[] memory)\n    {\n        return players[_queueID];\n    }\n\n    function getSubmissionOptions(uint256 _queueID, uint256 _playerID)\n        public\n        view\n        returns (string[] memory)\n    {\n        return submissionOptions[_queueID][_playerID];\n    }\n\n    // Gameplay interactions\n    function setPhase(ProcessingPhase phase, uint256 _queueID)\n        external\n        onlyRole(GAMEPLAY_ROLE)\n    {\n        currentPhase[_queueID] = phase;\n    }\n\n    function setRandomNumber(uint256 randomNumber, uint256 _queueID)\n        external\n        onlyRole(GAMEPLAY_ROLE)\n    {\n        randomness[_queueID] = randomNumber;\n    }\n\n    function requestNewQueueID(uint256 _queueID)\n        external\n        onlyRole(GAMEPLAY_ROLE)\n    {\n        uint256 g = game[_queueID];\n        uint256 tp = totalPlayers[_queueID];\n        queueID[g] = _requestGameQueue(g, tp);\n    }\n\n    function finishProcessing(uint256 _queueID, bool gameComplete)\n        public\n        onlyRole(GAMEPLAY_ROLE)\n    {\n        _setProcessingComplete(_queueID, gameComplete);\n    }\n\n    function _setProcessingComplete(uint256 _queueID, bool gameComplete)\n        internal\n    {\n        uint256 g = game[_queueID];\n        currentPhase[_queueID] = ProcessingPhase.Processed;\n        queueID[g] = 0;\n        if (!gameComplete) {\n            // get new queue ID for next set of player actions\n            uint256 tp = totalPlayers[_queueID];\n            uint256 newQueueID = _requestGameQueue(g, tp);\n            queueID[g] = newQueueID;\n            currentPhase[newQueueID] = ProcessingPhase.Submission;\n        }\n    }\n\n    // Internal\n    function _processAllActions(uint256 _queueID) internal {\n        // Can only add unique unprocessed game queues into processing queue\n        if (\n            !inProcessingQueue[_queueID] &&\n            currentPhase[_queueID] == ProcessingPhase.Submission\n        ) {\n            processingQueue.push(_queueID);\n            inProcessingQueue[_queueID] = true;\n            currentPhase[_queueID] = ProcessingPhase.Processing;\n            // request random number for phase\n            requestRandomWords(_queueID);\n        }\n    }\n\n    function requestRandomWords(uint256 _queueID) internal {\n        // randomnessRequestID[_queueID] = COORDINATOR.requestRandomWords(\n        //   keyHash,\n        //   s_subscriptionId,\n        //   requestConfirmations,\n        //   callbackGasLimit,\n        //   numWords\n        // );\n\n        //set faux id + randomness\n        uint256 reqID = _queueID;\n        randomnessRequestQueueID[reqID] = _queueID;\n        uint256 random = uint256(keccak256(abi.encode(block.timestamp, reqID)));\n        uint256[] memory randomWords = new uint256[](1);\n        randomWords[0] = random;\n        fulfillRandomWords(reqID, randomWords);\n    }\n\n    function fulfillRandomWords(uint256 requestID, uint256[] memory randomWords)\n        internal\n    {\n        uint256 qID = randomnessRequestQueueID[requestID];\n        randomness[qID] = randomWords[0];\n    }\n\n    function _requestGameQueue(uint256 gameID, uint256 _totalPlayers)\n        internal\n        returns (uint256)\n    {\n        /*\n    mapping(uint256 => uint256) public queueID; // mapping from game ID to it's queue, updates to 0 when finished\n    mapping(uint256 => uint256) public game; // mapping from queue ID to it's game ID\n    mapping(uint256 => uint256[]) public players; // all players with moves to process\n    mapping(uint256 => uint16) public totalPlayers;\n        */\n        require(queueID[gameID] == 0, \"queue already set\");\n        uint256 newQueueID = QUEUE_ID.current();\n        game[newQueueID] = gameID;\n        queueID[gameID] = newQueueID;\n        totalPlayers[newQueueID] = _totalPlayers;\n        QUEUE_ID.increment();\n        return newQueueID;\n    }\n}\n",
  "sourcePath": "/Users/maxmeier/Developer/Lucky Machines/hexploration/contracts/HexplorationQueue.sol",
  "compiler": {
    "name": "solc",
    "version": "0.8.11+commit.d7f03943.Emscripten.clang"
  },
  "schemaVersion": "3.4.4",
  "updatedAt": "2022-05-25T03:09:23.310Z",
  "devdoc": {
    "kind": "dev",
    "methods": {
      "getRoleAdmin(bytes32)": {
        "details": "Returns the admin role that controls `role`. See {grantRole} and {revokeRole}. To change a role's admin, use {_setRoleAdmin}."
      },
      "getRoleMember(bytes32,uint256)": {
        "details": "Returns one of the accounts that have `role`. `index` must be a value between 0 and {getRoleMemberCount}, non-inclusive. Role bearers are not sorted in any particular way, and their ordering may change at any point. WARNING: When using {getRoleMember} and {getRoleMemberCount}, make sure you perform all queries on the same block. See the following https://forum.openzeppelin.com/t/iterating-over-elements-on-enumerableset-in-openzeppelin-contracts/2296[forum post] for more information."
      },
      "getRoleMemberCount(bytes32)": {
        "details": "Returns the number of accounts that have `role`. Can be used together with {getRoleMember} to enumerate all bearers of a role."
      },
      "grantRole(bytes32,address)": {
        "details": "Grants `role` to `account`. If `account` had not been already granted `role`, emits a {RoleGranted} event. Requirements: - the caller must have ``role``'s admin role."
      },
      "hasRole(bytes32,address)": {
        "details": "Returns `true` if `account` has been granted `role`."
      },
      "renounceRole(bytes32,address)": {
        "details": "Revokes `role` from the calling account. Roles are often managed via {grantRole} and {revokeRole}: this function's purpose is to provide a mechanism for accounts to lose their privileges if they are compromised (such as when a trusted device is misplaced). If the calling account had been revoked `role`, emits a {RoleRevoked} event. Requirements: - the caller must be `account`."
      },
      "revokeRole(bytes32,address)": {
        "details": "Revokes `role` from `account`. If `account` had been granted `role`, emits a {RoleRevoked} event. Requirements: - the caller must have ``role``'s admin role."
      },
      "supportsInterface(bytes4)": {
        "details": "See {IERC165-supportsInterface}."
      }
    },
    "version": 1
  },
  "userdoc": {
    "kind": "user",
    "methods": {},
    "version": 1
  }
}