{
  "contractName": "HexplorationController",
  "abi": [
    {
      "inputs": [
        {
          "internalType": "uint256",
          "name": "pathIndex",
          "type": "uint256"
        },
        {
          "internalType": "uint256",
          "name": "gameID",
          "type": "uint256"
        },
        {
          "internalType": "address",
          "name": "gameBoardAddress",
          "type": "address"
        }
      ],
      "name": "exitToPath",
      "outputs": [],
      "stateMutability": "nonpayable",
      "type": "function"
    }
  ],
  "bytecode": "0x608060405234801561001057600080fd5b506102ae806100206000396000f3fe608060405234801561001057600080fd5b506004361061002b5760003560e01c80637479c8fe14610030575b600080fd5b61004a6004803603810190610045919061016b565b61004c565b005b8073ffffffffffffffffffffffffffffffffffffffff16639eb356cb8333866040518463ffffffff1660e01b8152600401610089939291906101dc565b6020604051808303816000875af11580156100a8573d6000803e3d6000fd5b505050506040513d601f19601f820116820180604052508101906100cc919061024b565b50505050565b600080fd5b6000819050919050565b6100ea816100d7565b81146100f557600080fd5b50565b600081359050610107816100e1565b92915050565b600073ffffffffffffffffffffffffffffffffffffffff82169050919050565b60006101388261010d565b9050919050565b6101488161012d565b811461015357600080fd5b50565b6000813590506101658161013f565b92915050565b600080600060608486031215610184576101836100d2565b5b6000610192868287016100f8565b93505060206101a3868287016100f8565b92505060406101b486828701610156565b9150509250925092565b6101c7816100d7565b82525050565b6101d68161012d565b82525050565b60006060820190506101f160008301866101be565b6101fe60208301856101cd565b61020b60408301846101be565b949350505050565b60008115159050919050565b61022881610213565b811461023357600080fd5b50565b6000815190506102458161021f565b92915050565b600060208284031215610261576102606100d2565b5b600061026f84828501610236565b9150509291505056fea26469706673582212202dd14e882f125d421ce8ae220126c96c6800e5d9a7926aa4fc94e826309379c364736f6c634300080b0033",
  "immutableReferences": {},
  "source": "// SPDX-License-Identifier: GPL-3.0\npragma solidity >=0.7.0 <0.9.0;\n\nimport \"@luckymachines/game-core/contracts/src/v0.0/GameController.sol\";\nimport \"./HexplorationBoard.sol\";\nimport \"./HexplorationZone.sol\";\n\ncontract HexplorationController is GameController {\n    // submit move + space choice\n    // use / swap item\n}\n",
  "sourcePath": "/Users/max/Developer/LM/hexploration/contracts/HexplorationController.sol",
  "compiler": {
    "name": "solc",
    "version": "0.8.11+commit.d7f03943.Emscripten.clang"
  },
  "schemaVersion": "3.4.2",
  "updatedAt": "2022-05-08T19:14:49.889Z",
  "devdoc": {
    "kind": "dev",
    "methods": {},
    "version": 1
  },
  "userdoc": {
    "kind": "user",
    "methods": {},
    "version": 1
  }
}