{
  "contractName": "HexplorationBoard",
  "abi": [
    {
      "inputs": [
        {
          "internalType": "address",
          "name": "adminAddress",
          "type": "address"
        },
        {
          "internalType": "uint256",
          "name": "gridWidth",
          "type": "uint256"
        },
        {
          "internalType": "uint256",
          "name": "gridHeight",
          "type": "uint256"
        },
        {
          "internalType": "address",
          "name": "zoneAddress",
          "type": "address"
        }
      ],
      "stateMutability": "nonpayable",
      "type": "constructor"
    },
    {
      "anonymous": false,
      "inputs": [
        {
          "indexed": true,
          "internalType": "bytes32",
          "name": "role",
          "type": "bytes32"
        },
        {
          "indexed": true,
          "internalType": "bytes32",
          "name": "previousAdminRole",
          "type": "bytes32"
        },
        {
          "indexed": true,
          "internalType": "bytes32",
          "name": "newAdminRole",
          "type": "bytes32"
        }
      ],
      "name": "RoleAdminChanged",
      "type": "event"
    },
    {
      "anonymous": false,
      "inputs": [
        {
          "indexed": true,
          "internalType": "bytes32",
          "name": "role",
          "type": "bytes32"
        },
        {
          "indexed": true,
          "internalType": "address",
          "name": "account",
          "type": "address"
        },
        {
          "indexed": true,
          "internalType": "address",
          "name": "sender",
          "type": "address"
        }
      ],
      "name": "RoleGranted",
      "type": "event"
    },
    {
      "anonymous": false,
      "inputs": [
        {
          "indexed": true,
          "internalType": "bytes32",
          "name": "role",
          "type": "bytes32"
        },
        {
          "indexed": true,
          "internalType": "address",
          "name": "account",
          "type": "address"
        },
        {
          "indexed": true,
          "internalType": "address",
          "name": "sender",
          "type": "address"
        }
      ],
      "name": "RoleRevoked",
      "type": "event"
    },
    {
      "inputs": [],
      "name": "DEFAULT_ADMIN_ROLE",
      "outputs": [
        {
          "internalType": "bytes32",
          "name": "",
          "type": "bytes32"
        }
      ],
      "stateMutability": "view",
      "type": "function"
    },
    {
      "inputs": [],
      "name": "FACTORY_ROLE",
      "outputs": [
        {
          "internalType": "bytes32",
          "name": "",
          "type": "bytes32"
        }
      ],
      "stateMutability": "view",
      "type": "function"
    },
    {
      "inputs": [],
      "name": "GAME_KEEPER_ROLE",
      "outputs": [
        {
          "internalType": "bytes32",
          "name": "",
          "type": "bytes32"
        }
      ],
      "stateMutability": "view",
      "type": "function"
    },
    {
      "inputs": [],
      "name": "GAME_MASTER_ROLE",
      "outputs": [
        {
          "internalType": "bytes32",
          "name": "",
          "type": "bytes32"
        }
      ],
      "stateMutability": "view",
      "type": "function"
    },
    {
      "inputs": [],
      "name": "MAX_BATCH_SIZE",
      "outputs": [
        {
          "internalType": "uint256",
          "name": "",
          "type": "uint256"
        }
      ],
      "stateMutability": "view",
      "type": "function"
    },
    {
      "inputs": [],
      "name": "PLAY_ZONE_ROLE",
      "outputs": [
        {
          "internalType": "bytes32",
          "name": "",
          "type": "bytes32"
        }
      ],
      "stateMutability": "view",
      "type": "function"
    },
    {
      "inputs": [],
      "name": "VERIFIED_CONTROLLER_ROLE",
      "outputs": [
        {
          "internalType": "bytes32",
          "name": "",
          "type": "bytes32"
        }
      ],
      "stateMutability": "view",
      "type": "function"
    },
    {
      "inputs": [
        {
          "internalType": "uint256",
          "name": "transitID",
          "type": "uint256"
        }
      ],
      "name": "_progressTransit",
      "outputs": [],
      "stateMutability": "nonpayable",
      "type": "function"
    },
    {
      "inputs": [
        {
          "internalType": "address",
          "name": "factoryAddress",
          "type": "address"
        }
      ],
      "name": "addFactory",
      "outputs": [],
      "stateMutability": "nonpayable",
      "type": "function"
    },
    {
      "inputs": [
        {
          "internalType": "address",
          "name": "keeperAddress",
          "type": "address"
        }
      ],
      "name": "addKeeper",
      "outputs": [],
      "stateMutability": "nonpayable",
      "type": "function"
    },
    {
      "inputs": [
        {
          "internalType": "address",
          "name": "vcAddress",
          "type": "address"
        }
      ],
      "name": "addVerifiedController",
      "outputs": [],
      "stateMutability": "nonpayable",
      "type": "function"
    },
    {
      "inputs": [
        {
          "internalType": "uint256",
          "name": "gameID",
          "type": "uint256"
        },
        {
          "internalType": "string[2][]",
          "name": "connections",
          "type": "string[2][]"
        }
      ],
      "name": "addZoneConnections",
      "outputs": [],
      "stateMutability": "nonpayable",
      "type": "function"
    },
    {
      "inputs": [
        {
          "internalType": "address[]",
          "name": "playZoneAddresses",
          "type": "address[]"
        },
        {
          "internalType": "string[]",
          "name": "zoneAliases",
          "type": "string[]"
        },
        {
          "internalType": "uint256",
          "name": "gameID",
          "type": "uint256"
        }
      ],
      "name": "addZones",
      "outputs": [],
      "stateMutability": "nonpayable",
      "type": "function"
    },
    {
      "inputs": [],
      "name": "cleanQueue",
      "outputs": [],
      "stateMutability": "nonpayable",
      "type": "function"
    },
    {
      "inputs": [
        {
          "internalType": "address",
          "name": "_playerRegistry",
          "type": "address"
        },
        {
          "internalType": "address",
          "name": "_gameRegistry",
          "type": "address"
        }
      ],
      "name": "createGame",
      "outputs": [
        {
          "internalType": "uint256",
          "name": "gameID",
          "type": "uint256"
        }
      ],
      "stateMutability": "nonpayable",
      "type": "function"
    },
    {
      "inputs": [
        {
          "internalType": "address",
          "name": "_playerRegistry",
          "type": "address"
        },
        {
          "internalType": "address",
          "name": "_gameRegistry",
          "type": "address"
        },
        {
          "internalType": "address[]",
          "name": "playZoneAddresses",
          "type": "address[]"
        },
        {
          "internalType": "string[]",
          "name": "zoneAliases",
          "type": "string[]"
        }
      ],
      "name": "createGame",
      "outputs": [
        {
          "internalType": "uint256",
          "name": "gameID",
          "type": "uint256"
        }
      ],
      "stateMutability": "nonpayable",
      "type": "function"
    },
    {
      "inputs": [],
      "name": "createGrid",
      "outputs": [],
      "stateMutability": "nonpayable",
      "type": "function"
    },
    {
      "inputs": [
        {
          "internalType": "uint256",
          "name": "",
          "type": "uint256"
        },
        {
          "internalType": "uint256",
          "name": "",
          "type": "uint256"
        }
      ],
      "name": "currentPlayZone",
      "outputs": [
        {
          "internalType": "string",
          "name": "",
          "type": "string"
        }
      ],
      "stateMutability": "view",
      "type": "function"
    },
    {
      "inputs": [
        {
          "internalType": "uint256",
          "name": "",
          "type": "uint256"
        },
        {
          "internalType": "uint256",
          "name": "",
          "type": "uint256"
        }
      ],
      "name": "entryQueue",
      "outputs": [
        {
          "internalType": "uint256",
          "name": "",
          "type": "uint256"
        }
      ],
      "stateMutability": "view",
      "type": "function"
    },
    {
      "inputs": [
        {
          "internalType": "uint256",
          "name": "gameID",
          "type": "uint256"
        },
        {
          "internalType": "address",
          "name": "playerAddress",
          "type": "address"
        },
        {
          "internalType": "uint256",
          "name": "pathIndex",
          "type": "uint256"
        }
      ],
      "name": "exitToPath",
      "outputs": [
        {
          "internalType": "bool",
          "name": "exitSuccess",
          "type": "bool"
        }
      ],
      "stateMutability": "nonpayable",
      "type": "function"
    },
    {
      "inputs": [
        {
          "internalType": "uint256",
          "name": "",
          "type": "uint256"
        }
      ],
      "name": "gameState",
      "outputs": [
        {
          "internalType": "uint256",
          "name": "",
          "type": "uint256"
        }
      ],
      "stateMutability": "view",
      "type": "function"
    },
    {
      "inputs": [
        {
          "internalType": "uint256",
          "name": "gameID",
          "type": "uint256"
        },
        {
          "internalType": "string",
          "name": "_zoneAlias",
          "type": "string"
        }
      ],
      "name": "getInputs",
      "outputs": [
        {
          "internalType": "string[]",
          "name": "zoneInputs",
          "type": "string[]"
        }
      ],
      "stateMutability": "view",
      "type": "function"
    },
    {
      "inputs": [
        {
          "internalType": "uint256",
          "name": "gameID",
          "type": "uint256"
        },
        {
          "internalType": "string",
          "name": "_zoneAlias",
          "type": "string"
        }
      ],
      "name": "getOutputs",
      "outputs": [
        {
          "internalType": "string[]",
          "name": "zoneOutputs",
          "type": "string[]"
        }
      ],
      "stateMutability": "view",
      "type": "function"
    },
    {
      "inputs": [
        {
          "internalType": "uint256",
          "name": "gameID",
          "type": "uint256"
        }
      ],
      "name": "getOverflowQueue",
      "outputs": [
        {
          "internalType": "uint256[]",
          "name": "",
          "type": "uint256[]"
        }
      ],
      "stateMutability": "view",
      "type": "function"
    },
    {
      "inputs": [
        {
          "internalType": "uint256",
          "name": "gameID",
          "type": "uint256"
        }
      ],
      "name": "getPlayZones",
      "outputs": [
        {
          "internalType": "string[]",
          "name": "",
          "type": "string[]"
        }
      ],
      "stateMutability": "view",
      "type": "function"
    },
    {
      "inputs": [
        {
          "internalType": "bytes32",
          "name": "role",
          "type": "bytes32"
        }
      ],
      "name": "getRoleAdmin",
      "outputs": [
        {
          "internalType": "bytes32",
          "name": "",
          "type": "bytes32"
        }
      ],
      "stateMutability": "view",
      "type": "function"
    },
    {
      "inputs": [
        {
          "internalType": "bytes32",
          "name": "role",
          "type": "bytes32"
        },
        {
          "internalType": "uint256",
          "name": "index",
          "type": "uint256"
        }
      ],
      "name": "getRoleMember",
      "outputs": [
        {
          "internalType": "address",
          "name": "",
          "type": "address"
        }
      ],
      "stateMutability": "view",
      "type": "function"
    },
    {
      "inputs": [
        {
          "internalType": "bytes32",
          "name": "role",
          "type": "bytes32"
        }
      ],
      "name": "getRoleMemberCount",
      "outputs": [
        {
          "internalType": "uint256",
          "name": "",
          "type": "uint256"
        }
      ],
      "stateMutability": "view",
      "type": "function"
    },
    {
      "inputs": [],
      "name": "getZoneAliases",
      "outputs": [
        {
          "internalType": "string[]",
          "name": "",
          "type": "string[]"
        }
      ],
      "stateMutability": "view",
      "type": "function"
    },
    {
      "inputs": [
        {
          "internalType": "bytes32",
          "name": "role",
          "type": "bytes32"
        },
        {
          "internalType": "address",
          "name": "account",
          "type": "address"
        }
      ],
      "name": "grantRole",
      "outputs": [],
      "stateMutability": "nonpayable",
      "type": "function"
    },
    {
      "inputs": [],
      "name": "gridHeight",
      "outputs": [
        {
          "internalType": "uint256",
          "name": "",
          "type": "uint256"
        }
      ],
      "stateMutability": "view",
      "type": "function"
    },
    {
      "inputs": [],
      "name": "gridWidth",
      "outputs": [
        {
          "internalType": "uint256",
          "name": "",
          "type": "uint256"
        }
      ],
      "stateMutability": "view",
      "type": "function"
    },
    {
      "inputs": [
        {
          "internalType": "bytes32",
          "name": "role",
          "type": "bytes32"
        },
        {
          "internalType": "address",
          "name": "account",
          "type": "address"
        }
      ],
      "name": "hasRole",
      "outputs": [
        {
          "internalType": "bool",
          "name": "",
          "type": "bool"
        }
      ],
      "stateMutability": "view",
      "type": "function"
    },
    {
      "inputs": [
        {
          "internalType": "address",
          "name": "factoryAddress",
          "type": "address"
        }
      ],
      "name": "isFactory",
      "outputs": [
        {
          "internalType": "bool",
          "name": "factoryIsAuthorized",
          "type": "bool"
        }
      ],
      "stateMutability": "view",
      "type": "function"
    },
    {
      "inputs": [
        {
          "internalType": "uint256",
          "name": "",
          "type": "uint256"
        }
      ],
      "name": "lastEntryPlayerID",
      "outputs": [
        {
          "internalType": "uint256",
          "name": "",
          "type": "uint256"
        }
      ],
      "stateMutability": "view",
      "type": "function"
    },
    {
      "inputs": [],
      "name": "needsUpdate",
      "outputs": [
        {
          "internalType": "bool",
          "name": "doesNeedUpdate",
          "type": "bool"
        }
      ],
      "stateMutability": "view",
      "type": "function"
    },
    {
      "inputs": [
        {
          "internalType": "uint256",
          "name": "",
          "type": "uint256"
        },
        {
          "internalType": "string",
          "name": "",
          "type": "string"
        },
        {
          "internalType": "uint256",
          "name": "",
          "type": "uint256"
        }
      ],
      "name": "playZoneInputs",
      "outputs": [
        {
          "internalType": "string",
          "name": "",
          "type": "string"
        }
      ],
      "stateMutability": "view",
      "type": "function"
    },
    {
      "inputs": [
        {
          "internalType": "uint256",
          "name": "",
          "type": "uint256"
        },
        {
          "internalType": "string",
          "name": "",
          "type": "string"
        },
        {
          "internalType": "uint256",
          "name": "",
          "type": "uint256"
        }
      ],
      "name": "playZoneOutputs",
      "outputs": [
        {
          "internalType": "string",
          "name": "",
          "type": "string"
        }
      ],
      "stateMutability": "view",
      "type": "function"
    },
    {
      "inputs": [
        {
          "internalType": "uint256",
          "name": "",
          "type": "uint256"
        },
        {
          "internalType": "uint256",
          "name": "",
          "type": "uint256"
        }
      ],
      "name": "playZones",
      "outputs": [
        {
          "internalType": "string",
          "name": "",
          "type": "string"
        }
      ],
      "stateMutability": "view",
      "type": "function"
    },
    {
      "inputs": [
        {
          "internalType": "uint256",
          "name": "gameID",
          "type": "uint256"
        },
        {
          "internalType": "address",
          "name": "playerAddress",
          "type": "address"
        },
        {
          "internalType": "string",
          "name": "_zoneAlias",
          "type": "string"
        }
      ],
      "name": "playerEnteredZone",
      "outputs": [],
      "stateMutability": "nonpayable",
      "type": "function"
    },
    {
      "inputs": [
        {
          "internalType": "uint256",
          "name": "",
          "type": "uint256"
        }
      ],
      "name": "playerRegistry",
      "outputs": [
        {
          "internalType": "uint256",
          "name": "",
          "type": "uint256"
        }
      ],
      "stateMutability": "view",
      "type": "function"
    },
    {
      "inputs": [],
      "name": "prAddress",
      "outputs": [
        {
          "internalType": "address",
          "name": "",
          "type": "address"
        }
      ],
      "stateMutability": "view",
      "type": "function"
    },
    {
      "inputs": [
        {
          "internalType": "uint256",
          "name": "gameID",
          "type": "uint256"
        },
        {
          "internalType": "address[]",
          "name": "playerAddresses",
          "type": "address[]"
        },
        {
          "internalType": "uint256[]",
          "name": "pathIndices",
          "type": "uint256[]"
        },
        {
          "internalType": "uint256",
          "name": "transitID",
          "type": "uint256"
        }
      ],
      "name": "queueExitToPaths",
      "outputs": [],
      "stateMutability": "nonpayable",
      "type": "function"
    },
    {
      "inputs": [
        {
          "internalType": "uint256",
          "name": "gameID",
          "type": "uint256"
        },
        {
          "internalType": "string[]",
          "name": "inputAliases",
          "type": "string[]"
        },
        {
          "internalType": "uint256[]",
          "name": "inputs",
          "type": "uint256[]"
        },
        {
          "internalType": "string[]",
          "name": "outputAliases",
          "type": "string[]"
        },
        {
          "internalType": "uint256[]",
          "name": "outputs",
          "type": "uint256[]"
        }
      ],
      "name": "removeZoneConnections",
      "outputs": [],
      "stateMutability": "nonpayable",
      "type": "function"
    },
    {
      "inputs": [
        {
          "internalType": "bytes32",
          "name": "role",
          "type": "bytes32"
        },
        {
          "internalType": "address",
          "name": "account",
          "type": "address"
        }
      ],
      "name": "renounceRole",
      "outputs": [],
      "stateMutability": "nonpayable",
      "type": "function"
    },
    {
      "inputs": [
        {
          "internalType": "bytes32",
          "name": "role",
          "type": "bytes32"
        },
        {
          "internalType": "address",
          "name": "account",
          "type": "address"
        }
      ],
      "name": "revokeRole",
      "outputs": [],
      "stateMutability": "nonpayable",
      "type": "function"
    },
    {
      "inputs": [],
      "name": "runUpdate",
      "outputs": [],
      "stateMutability": "nonpayable",
      "type": "function"
    },
    {
      "inputs": [
        {
          "internalType": "uint256",
          "name": "gameID",
          "type": "uint256"
        }
      ],
      "name": "startGame",
      "outputs": [],
      "stateMutability": "nonpayable",
      "type": "function"
    },
    {
      "inputs": [
        {
          "internalType": "uint256",
          "name": "transitID",
          "type": "uint256"
        }
      ],
      "name": "startTransit",
      "outputs": [],
      "stateMutability": "nonpayable",
      "type": "function"
    },
    {
      "inputs": [
        {
          "internalType": "bytes4",
          "name": "interfaceId",
          "type": "bytes4"
        }
      ],
      "name": "supportsInterface",
      "outputs": [
        {
          "internalType": "bool",
          "name": "",
          "type": "bool"
        }
      ],
      "stateMutability": "view",
      "type": "function"
    },
    {
      "inputs": [],
      "name": "zoneAddress",
      "outputs": [
        {
          "internalType": "address",
          "name": "",
          "type": "address"
        }
      ],
      "stateMutability": "view",
      "type": "function"
    },
    {
      "inputs": [
        {
          "internalType": "uint256",
          "name": "",
          "type": "uint256"
        },
        {
          "internalType": "string",
          "name": "",
          "type": "string"
        }
      ],
      "name": "zoneAlias",
      "outputs": [
        {
          "internalType": "address",
          "name": "",
          "type": "address"
        }
      ],
      "stateMutability": "view",
      "type": "function"
    },
    {
      "inputs": [
        {
          "internalType": "uint256",
          "name": "",
          "type": "uint256"
        }
      ],
      "name": "zoneAliases",
      "outputs": [
        {
          "internalType": "string",
          "name": "",
          "type": "string"
        }
      ],
      "stateMutability": "view",
      "type": "function"
    },
    {
      "inputs": [
        {
          "internalType": "uint256",
          "name": "",
          "type": "uint256"
        },
        {
          "internalType": "string",
          "name": "",
          "type": "string"
        }
      ],
      "name": "zoneEnabled",
      "outputs": [
        {
          "internalType": "bool",
          "name": "",
          "type": "bool"
        }
      ],
      "stateMutability": "view",
      "type": "function"
    },
    {
      "inputs": [
        {
          "internalType": "string",
          "name": "zoneAlias",
          "type": "string"
        },
        {
          "internalType": "enum HexplorationZone.Tile",
          "name": "tile",
          "type": "uint8"
        },
        {
          "internalType": "uint256",
          "name": "gameID",
          "type": "uint256"
        }
      ],
      "name": "enableZone",
      "outputs": [],
      "stateMutability": "nonpayable",
      "type": "function"
    },
    {
      "inputs": [
        {
          "internalType": "string[]",
          "name": "zonePath",
          "type": "string[]"
        },
        {
          "internalType": "uint256",
          "name": "gameID",
          "type": "uint256"
        }
      ],
      "name": "moveThroughPath",
      "outputs": [],
      "stateMutability": "nonpayable",
      "type": "function"
    }
  ],
  "bytecode": "0x60806040523480156200001157600080fd5b50604051620045c5380380620045c58339810160408190526200003491620002a8565b83838383836200004f600082640100000000620000c9810204565b620000847f1d93c87416ca7b54f0fb8323167b72760e8e2ec93d48660953897a150f97a8b482640100000000620000c9810204565b50600d92909255600e55600f8054600160a060020a03928316600160a060020a031991821617909155601180549490921693169290921790915550620002f392505050565b620000de8282640100000000620000e2810204565b5050565b620000fc8282640100000000620025216200012982021704565b6000828152600160205260409020620001249082640100000000620025a5620001c582021704565b505050565b6200013e8282640100000000620001ee810204565b620000de57600082815260208181526040808320600160a060020a03851684529091529020805460ff191660011790556200018164010000000062000217810204565b600160a060020a031681600160a060020a0316837f2f8788117e7eff1d82e926ec794901d17c78024a50270940304540a733656f0d60405160405180910390a45050565b6000620001e583600160a060020a0384166401000000006200021b810204565b90505b92915050565b600091825260208281526040808420600160a060020a0393909316845291905290205460ff1690565b3390565b600062000232838364010000000062000273810204565b6200026a57508154600181810184556000848152602080822090930184905584548482528286019093526040902091909155620001e8565b506000620001e8565b60009081526001919091016020526040902054151590565b8051600160a060020a0381168114620002a357600080fd5b919050565b60008060008060808587031215620002bf57600080fd5b620002ca856200028b565b93506020850151925060408501519150620002e8606086016200028b565b905092959194509250565b6142c280620003036000396000f3fe608060405234801561001057600080fd5b506004361061037c5760003560e060020a9004806391d14854116101d7578063cfdbf25411610108578063d91413ba116100a6578063ed3719a511610080578063ed3719a5146107db578063f643b8fd1461081a578063f84307081461082d578063fa9f34381461084057600080fd5b8063d91413ba146107a0578063e309203f146107b3578063e5ed1d59146107c857600080fd5b8063d3fb7289116100e2578063d3fb728914610747578063d4f5b15214610767578063d547741f1461077a578063d75e79801461078d57600080fd5b8063cfdbf25414610717578063d1e18d261461071f578063d2d6756b1461072757600080fd5b8063ad1def1e11610175578063babdeefa1161014f578063babdeefa146106cb578063c06dea4e146106de578063ca15c873146106ef578063cd1ec7f21461070257600080fd5b8063ad1def1e146106a3578063b2df0ca21461048b578063b40c89df146106b857600080fd5b8063a217fddf116101b1578063a217fddf14610655578063a4f9c9df1461065d578063a6f979ff14610670578063aab2aeb81461068357600080fd5b806391d148541461061c5780639eb356cb1461062f5780639f6c40171461064257600080fd5b80632f2ff15d116102b15780634a7bdd5a1161024f5780636b6ec869116102295780636b6ec869146105db5780637cc75d1c146105ee57806384bf09b6146106015780639010d07c1461060957600080fd5b80634a7bdd5a146105955780634e0e1a3e146105a857806351709a73146105c857600080fd5b8063374f1d351161028b578063374f1d351461055e57806338b145df146105715780633ca61a581461057a5780634032b72b1461058257600080fd5b80632f2ff15d14610530578063346c94091461054357806336568abe1461054b57600080fd5b8063190060181161031e578063248a9ca3116102f8578063248a9ca3146104d457806329678756146104f757806329ce1ec51461050a5780632c47669a1461051d57600080fd5b80631900601814610478578063194f2a361461048d5780631c834a7f146104ad57600080fd5b80630f04ba671161035a5780630f04ba67146103f7578063108c5e141461040a578063153a75901461041357806317d7e8331461045857600080fd5b806301ffc9a71461038157806304a0fb17146103a95780630b197f2e146103cc575b600080fd5b61039461038f3660046133bc565b610853565b60405190151581526020015b60405180910390f35b6103be60008051602061424d83398151915281565b6040519081526020016103a0565b600f546103df90600160a060020a031681565b604051600160a060020a0390911681526020016103a0565b6103946104053660046133fb565b610897565b6103be600e5481565b6103df610421366004613509565b60076020908152600092835260409092208151808301840180519281529084019290930191909120915254600160a060020a031681565b61046b610466366004613550565b6108b1565b6040516103a091906135ca565b61048b6104863660046136e1565b61096a565b005b6104a061049b366004613509565b610ab6565b6040516103a09190613798565b6103be7f80e2196015fc06a9d891759f8e4f51eb314ef5e9ea068528a8ed0063b87759f081565b6103be6104e23660046137f9565b60009081526020819052604090206001015490565b61048b610505366004613873565b610df9565b61048b6105183660046133fb565b610e18565b61048b61052b3660046138e8565b610e3f565b61048b61053e366004613955565b610e8c565b610394610eb6565b61048b610559366004613955565b610f07565b61046b61056c3660046137f9565b610f92565b6103be600d5481565b6104a0610fbd565b61048b6105903660046133fb565b611096565b61048b6105a3366004613985565b6110c6565b6103be6105b63660046137f9565b60046020526000908152604090205481565b61046b6105d63660046139ca565b6110f0565b6104a06105e9366004613509565b611144565b6103be6105fc366004613550565b611474565b61048b6114a5565b6103df610617366004613550565b611745565b61039461062a366004613955565b611764565b61039461063d366004613a09565b61178d565b61048b6106503660046137f9565b611bda565b6103be600081565b61048b61066b3660046137f9565b611bf2565b6103be61067e366004613a41565b611c0a565b6103be6106913660046137f9565b600a6020526000908152604090205481565b6103be60008051602061422d83398151915281565b61046b6106c63660046139ca565b611cef565b6104a06106d93660046137f9565b611d26565b600254600160a060020a03166103df565b6103be6106fd3660046137f9565b611e12565b6103be60008051602061420d83398151915281565b6103be60c881565b61048b611e29565b6103be6107353660046137f9565b60056020526000908152604090205481565b61075a6107553660046137f9565b611f2f565b6040516103a09190613a6f565b61048b6107753660046133fb565b611f91565b61048b610788366004613955565b611fc6565b61046b61079b366004613550565b611feb565b6103be6107ae366004613ab3565b61200f565b6103be60008051602061426d83398151915281565b61048b6107d63660046137f9565b612133565b6103946107e9366004613509565b6012602090815260009283526040909220815180830184018051928152908401929093019190912091525460ff1681565b61048b610828366004613b3c565b612181565b61048b61083b366004613c4d565b612382565b61048b61084e366004613c9a565b612446565b6000600160e060020a031982167f5a05180f0000000000000000000000000000000000000000000000000000000014806108915750610891826125ba565b92915050565b600061089160008051602061424d83398151915283611764565b600660205281600052604060002081815481106108cd57600080fd5b906000526020600020016000915091505080546108e990613cf3565b80601f016020809104026020016040519081016040528092919081815260200182805461091590613cf3565b80156109625780601f1061093757610100808354040283529160200191610962565b820191906000526020600020905b81548152906001019060200180831161094557829003601f168201915b505050505081565b60008051602061422d83398151915261098281612621565b81518451146109db5760405160e560020a62461bcd02815260206004820181905260248201527f696e70757473202f206f757470757473206c656e677468206d69736d6174636860448201526064015b60405180910390fd5b6109e686868661262b565b610a355760405160e560020a62461bcd02815260206004820152600e60248201527f696e7075747320696e76616c696400000000000000000000000000000000000060448201526064016109d2565b610a408684846126ce565b610a8f5760405160e560020a62461bcd02815260206004820152600f60248201527f6f75747075747320696e76616c6964000000000000000000000000000000000060448201526064016109d2565b60005b8451811015610aad5780610aa581613d4a565b915050610a92565b50505050505050565b60008281526008602052604080822090516060929190610ad7908590613d65565b9081526020016040518091039020805480602002602001604051908101604052809291908181526020016000905b82821015610bb1578382906000526020600020018054610b2490613cf3565b80601f0160208091040260200160405190810160405280929190818152602001828054610b5090613cf3565b8015610b9d5780601f10610b7257610100808354040283529160200191610b9d565b820191906000526020600020905b815481529060010190602001808311610b8057829003601f168201915b505050505081526020019060010190610b05565b505060008080526008602052604051939450927f5eff886ea0ce6ca488a3d6e336d6c0f75f46d19b42c06ce5ee98e42c96d256c79250610bf391508690613d65565b9081526020016040518091039020805480602002602001604051908101604052809291908181526020016000905b82821015610ccd578382906000526020600020018054610c4090613cf3565b80601f0160208091040260200160405190810160405280929190818152602001828054610c6c90613cf3565b8015610cb95780601f10610c8e57610100808354040283529160200191610cb9565b820191906000526020600020905b815481529060010190602001808311610c9c57829003601f168201915b505050505081526020019060010190610c21565b505050509050600082511115610ded57600081518351610ced9190613d81565b67ffffffffffffffff811115610d0557610d05613418565b604051908082528060200260200182016040528015610d3857816020015b6060815260200190600190039081610d235790505b50905060005b8151811015610de6578251811015610d8c57828181518110610d6257610d62613d99565b6020026020010151828281518110610d7c57610d7c613d99565b6020026020010181905250610dd0565b83835182610d9a9190613db2565b81518110610daa57610daa613d99565b6020026020010151828281518110610dc457610dc4613d99565b60200260200101819052505b8194508080610dde90613d4a565b915050610d3e565b5050610df1565b8092505b505092915050565b60008051602061420d833981519152610e1181612621565b5050505050565b6000610e2381612621565b610e3b60008051602061424d83398151915283612769565b5050565b60008051602061422d833981519152610e5781612621565b8251845114610e7b5760405160e560020a62461bcd0281526004016109d290613dc9565b610e86848484612773565b50505050565b600082815260208190526040902060010154610ea781612621565b610eb183836128d2565b505050565b6000805b600354811015610f035760038181548110610ed757610ed7613d99565b9060005260206000200154600014610ef157600191505090565b80610efb81613d4a565b915050610eba565b5090565b600160a060020a0381163314610f885760405160e560020a62461bcd02815260206004820152602f60248201527f416363657373436f6e74726f6c3a2063616e206f6e6c792072656e6f756e636560448201527f20726f6c657320666f722073656c66000000000000000000000000000000000060648201526084016109d2565b610e3b82826128f4565b60108181548110610fa257600080fd5b9060005260206000200160009150905080546108e990613cf3565b60606010805480602002602001604051908101604052809291908181526020016000905b8282101561108d57838290600052602060002001805461100090613cf3565b80601f016020809104026020016040519081016040528092919081815260200182805461102c90613cf3565b80156110795780601f1061104e57610100808354040283529160200191611079565b820191906000526020600020905b81548152906001019060200180831161105c57829003601f168201915b505050505081526020019060010190610fe1565b50505050905090565b60008051602061422d8339815191526110ae81612621565b610e3b60008051602061426d83398151915283612769565b7f80e2196015fc06a9d891759f8e4f51eb314ef5e9ea068528a8ed0063b87759f0610eb181612621565b6008602090815260008481526040902083518085018301805192815290830192850192909220915280548290811061112757600080fd5b90600052602060002001600092509250505080546108e990613cf3565b60008281526009602052604080822090516060929190611165908590613d65565b9081526020016040518091039020805480602002602001604051908101604052809291908181526020016000905b8282101561123f5783829060005260206000200180546111b290613cf3565b80601f01602080910402602001604051908101604052809291908181526020018280546111de90613cf3565b801561122b5780601f106112005761010080835404028352916020019161122b565b820191906000526020600020905b81548152906001019060200180831161120e57829003601f168201915b505050505081526020019060010190611193565b505060008080526009602052604051939450927fec8156718a8372b1db44bb411437d0870f3e3790d4a08526d024ce1b0b668f6b925061128191508690613d65565b9081526020016040518091039020805480602002602001604051908101604052809291908181526020016000905b8282101561135b5783829060005260206000200180546112ce90613cf3565b80601f01602080910402602001604051908101604052809291908181526020018280546112fa90613cf3565b80156113475780601f1061131c57610100808354040283529160200191611347565b820191906000526020600020905b81548152906001019060200180831161132a57829003601f168201915b5050505050815260200190600101906112af565b505050509050600082511115610ded5760008151835161137b9190613d81565b67ffffffffffffffff81111561139357611393613418565b6040519080825280602002602001820160405280156113c657816020015b60608152602001906001900390816113b15790505b50905060005b8151811015610de657825181101561141a578281815181106113f0576113f0613d99565b602002602001015182828151811061140a5761140a613d99565b602002602001018190525061145e565b838351826114289190613db2565b8151811061143857611438613d99565b602002602001015182828151811061145257611452613d99565b60200260200101819052505b819450808061146c90613d4a565b9150506113cc565b600c602052816000526040600020818154811061149057600080fd5b90600052602060002001600091509150505481565b6114bd60008051602061424d83398151915233611764565b806114db57506114db60008051602061422d83398151915233611764565b6114fa5760405160e560020a62461bcd0281526004016109d290613e26565b601054611743576000600e54600d546115139190613e83565b67ffffffffffffffff81111561152b5761152b613418565b604051908082528060200260200182016040528015611554578160200160208202803683370190505b50600e54600d546040517f9f6b56490000000000000000000000000000000000000000000000000000000081526004810192909252602482015290915073__XYCoordinates_________________________90639f6b564990604401600060405180830381865af41580156115cd573d6000803e3d6000fd5b505050506040513d6000823e601f3d908101601f191682016040526115f59190810190613ea2565b805161160991601091602090910190613277565b5060005b815181101561166357600f548251600160a060020a039091169083908390811061163957611639613d99565b600160a060020a03909216602092830291909101909101528061165b81613d4a565b91505061160d565b50611741816010805480602002602001604051908101604052809291908181526020016000905b828210156117365783829060005260206000200180546116a990613cf3565b80601f01602080910402602001604051908101604052809291908181526020018280546116d590613cf3565b80156117225780601f106116f757610100808354040283529160200191611722565b820191906000526020600020905b81548152906001019060200180831161170557829003601f168201915b50505050508152602001906001019061168a565b505050506000612773565b505b565b600082815260016020526040812061175d9083612916565b9392505050565b600091825260208281526040808420600160a060020a0393909316845291905290205460ff1690565b6002546040517fbca7caa000000000000000000000000000000000000000000000000000000000815260048101859052600160a060020a038481166024830152600092839291169063bca7caa090604401602060405180830381865afa1580156117fb573d6000803e3d6000fd5b505050506040513d601f19601f8201168201806040525081019061181f9190613f8c565b6000868152600b6020908152604080832084845290915281208054929350909161184890613cf3565b80601f016020809104026020016040519081016040528092919081815260200182805461187490613cf3565b80156118c15780601f10611896576101008083540402835291602001916118c1565b820191906000526020600020905b8154815290600101906020018083116118a457829003601f168201915b5050505050905060006118d48783611144565b8051909150806119295760405160e560020a62461bcd02815260206004820152601760248201527f4e6f206578697420706174687320617661696c61626c6500000000000000000060448201526064016109d2565b6000888152600760205260408082209051919650869161194a908690613d65565b90815260405190819003602001902054600160a060020a0316905060008288116119745787611977565b60005b9050600084828151811061198d5761198d613d99565b602002602001015190506000600760008d8152602001908152602001600020826040516119ba9190613d65565b908152602001604051809103902060009054906101000a9004600160a060020a0316905083600160a060020a0316637caf12808c8e8a6040518463ffffffff1660e060020a028152600401611a1193929190613fa5565b602060405180830381865afa158015611a2e573d6000803e3d6000fd5b505050506040513d601f19601f82011682018060405250810190611a529190613fcd565b8015611acd575080600160a060020a031663e15b3ad08c8e856040518463ffffffff1660e060020a028152600401611a8c93929190613fa5565b602060405180830381865afa158015611aa9573d6000803e3d6000fd5b505050506040513d601f19601f82011682018060405250810190611acd9190613fcd565b15611bcb5783600160a060020a03166328d7e11a8c8e8a6040518463ffffffff1660e060020a028152600401611b0593929190613fa5565b600060405180830381600087803b158015611b1f57600080fd5b505af1158015611b33573d6000803e3d6000fd5b5050505080600160a060020a03166398bd75728c8e856040518463ffffffff1660e060020a028152600401611b6a93929190613fa5565b600060405180830381600087803b158015611b8457600080fd5b505af1158015611b98573d6000803e3d6000fd5b50505060008d8152600b602090815260408083208c845282529091208451611bc5935090918501906132d0565b50600198505b50505050505050509392505050565b60008051602061426d833981519152610e3b81612621565b60008051602061420d833981519152610e3b81612621565b6000611c2460008051602061424d83398151915233611764565b80611c425750611c4260008051602061422d83398151915233611764565b611c615760405160e560020a62461bcd0281526004016109d290613e26565b82600260006101000a815481600160a060020a030219169083600160a060020a0316021790555081600160a060020a0316630a75806e6040518163ffffffff1660e060020a0281526004016020604051808303816000875af1158015611ccb573d6000803e3d6000fd5b505050506040513d601f19601f8201168201806040525081019061175d9190613f8c565b6009602090815260008481526040902083518085018301805192815290830192850192909220915280548290811061112757600080fd5b606060066000838152602001908152602001600020805480602002602001604051908101604052809291908181526020016000905b82821015611e07578382906000526020600020018054611d7a90613cf3565b80601f0160208091040260200160405190810160405280929190818152602001828054611da690613cf3565b8015611df35780601f10611dc857610100808354040283529160200191611df3565b820191906000526020600020905b815481529060010190602001808311611dd657829003601f168201915b505050505081526020019060010190611d5b565b505050509050919050565b600081815260016020526040812061089190612922565b60008051602061426d833981519152611e4181612621565b60008060005b600354811015611eb05760038181548110611e6457611e64613d99565b9060005260206000200154600014611e9e5760038181548110611e8957611e89613d99565b90600052602060002001549250809150611eb0565b80611ea881613d4a565b915050611e47565b50600082815260046020526040902054611ed257611ecd8261292c565b611ef2565b60008281526004602052604090205460011415611ef257611ef2826129b7565b60008281526004602052604090205460011015610eb157600060038281548110611f1e57611f1e613d99565b600091825260209091200155505050565b6000818152600c6020908152604091829020805483518184028101840190945280845260609392830182828015611f8557602002820191906000526020600020905b815481526020019060010190808311611f71575b50505050509050919050565b6000611f9c81612621565b610e3b7f80e2196015fc06a9d891759f8e4f51eb314ef5e9ea068528a8ed0063b87759f083610e8c565b600082815260208190526040902060010154611fe181612621565b610eb183836128f4565b600b602090815260009283526040808420909152908252902080546108e990613cf3565b600061202960008051602061424d83398151915233611764565b80612047575061204760008051602061422d83398151915233611764565b6120665760405160e560020a62461bcd0281526004016109d290613e26565b815183511461208a5760405160e560020a62461bcd0281526004016109d290613dc9565b82511561209c5761209c838383612773565b84600260006101000a815481600160a060020a030219169083600160a060020a0316021790555083600160a060020a0316630a75806e6040518163ffffffff1660e060020a0281526004016020604051808303816000875af1158015612106573d6000803e3d6000fd5b505050506040513d601f19601f8201168201806040525081019061212a9190613f8c565b95945050505050565b60008051602061422d83398151915261214b81612621565b50600380546001810182556000919091527fc2575a0e9e593c00f959f8c92f12db2869c3395a3b0502d05e2516446f71f85b0155565b60008051602061422d83398151915261219981612621565b6121a38383612cd1565b6121f25760405160e560020a62461bcd02815260206004820152601a60248201527f6e6f7420616c6c207a6f6e6520696e64656365732076616c696400000000000060448201526064016109d2565b60005b8251811015610e86576000848152600960205260409020835184908390811061222057612220613d99565b602002602001015160006002811061223a5761223a613d99565b602002015160405161224c9190613d65565b908152602001604051809103902083828151811061226c5761226c613d99565b602002602001015160016002811061228657612286613d99565b60209081029190910151825460018101845560009384529282902081516122b694919091019291909101906132d0565b50600084815260086020526040902083518490839081106122d9576122d9613d99565b60200260200101516001600281106122f3576122f3613d99565b60200201516040516123059190613d65565b908152602001604051809103902083828151811061232557612325613d99565b602002602001015160006002811061233f5761233f613d99565b602090810291909101518254600181018455600093845292829020815161236f94919091019291909101906132d0565b508061237a81613d4a565b9150506121f5565b6011546040517fd4939609000000000000000000000000000000000000000000000000000000008152600160a060020a039091169063d4939609906123cf90859085908890600401613fef565b600060405180830381600087803b1580156123e957600080fd5b505af11580156123fd573d6000803e3d6000fd5b50505060008281526012602052604090819020905160019250612421908690613d65565b908152604051908190036020019020805491151560ff19909216919091179055505050565b60008051602061420d83398151915261245e81612621565b6002546040517fbca7caa000000000000000000000000000000000000000000000000000000000815260048101869052600160a060020a038581166024830152600092169063bca7caa090604401602060405180830381865afa1580156124c9573d6000803e3d6000fd5b505050506040513d601f19601f820116820180604052508101906124ed9190613f8c565b6000868152600b60209081526040808320848452825290912085519293506125199290918601906132d0565b505050505050565b61252b8282611764565b610e3b57600082815260208181526040808320600160a060020a03851684529091529020805460ff191660011790556125613390565b600160a060020a031681600160a060020a0316837f2f8788117e7eff1d82e926ec794901d17c78024a50270940304540a733656f0d60405160405180910390a45050565b600061175d83600160a060020a038416612de0565b6000600160e060020a031982167f7965db0b00000000000000000000000000000000000000000000000000000000148061089157507f01ffc9a700000000000000000000000000000000000000000000000000000000600160e060020a0319831614610891565b6117418133612e2f565b600160005b82518110156126c65782818151811061264b5761264b613d99565b6020026020010151600161265f9190613d81565b6000868152600860205260409020855186908490811061268157612681613d99565b60200260200101516040516126969190613d65565b90815260405190819003602001902054106126b457600091506126c6565b806126be81613d4a565b915050612630565b509392505050565b600160005b82518110156126c6578281815181106126ee576126ee613d99565b602002602001015160016127029190613d81565b6000868152600960205260409020855186908490811061272457612724613d99565b60200260200101516040516127399190613d65565b908152604051908190036020019020541061275757600091506126c6565b8061276181613d4a565b9150506126d3565b610e3b82826128d2565b60005b8351811015610e8657600082815260066020526040902083518490839081106127a1576127a1613d99565b602090810291909101810151825460018101845560009384529282902081516127d394919091019291909101906132d0565b508381815181106127e6576127e6613d99565b60200260200101516007600084815260200190815260200160002084838151811061281357612813613d99565b60200260200101516040516128289190613d65565b908152602001604051809103902060006101000a815481600160a060020a030219169083600160a060020a0316021790555061288b60008051602061420d83398151915285838151811061287e5761287e613d99565b6020026020010151611764565b6128c0576128c060008051602061420d8339815191528583815181106128b3576128b3613d99565b6020026020010151612769565b806128ca81613d4a565b915050612776565b6128dc8282612521565b6000828152600160205260409020610eb190826125a5565b6128fe8282612e96565b6000828152600160205260409020610eb19082612efb565b600061175d8383612f10565b6000610891825490565b6002546040517f60c2050000000000000000000000000000000000000000000000000000000000815260048101839052600160a060020a03909116906360c2050090602401600060405180830381600087803b15801561298b57600080fd5b505af115801561299f573d6000803e3d6000fd5b50505060009182525060046020526040902060019055565b600081815260076020908152604080832060069092528220805483906129df576129df613d99565b906000526020600020016040516129f6919061402f565b90815260405190819003602001902054600160a060020a031690508060005b6002546040517fb77ff41100000000000000000000000000000000000000000000000000000000815260048101869052600160a060020a039091169063b77ff41190602401602060405180830381865afa158015612a77573d6000803e3d6000fd5b505050506040513d601f19601f82011682018060405250810190612a9b9190613f8c565b811015612cba576000612aaf826001613d81565b6002546040517ff50432540000000000000000000000000000000000000000000000000000000081526004810188905260248101839052919250600091600160a060020a039091169063f504325490604401602060405180830381865afa158015612b1e573d6000803e3d6000fd5b505050506040513d601f19601f82011682018060405250810190612b4291906140a1565b905083600160a060020a031663e15b3ad08288600660008b8152602001908152602001600020600081548110612b7a57612b7a613d99565b906000526020600020016040518463ffffffff1660e060020a028152600401612ba5939291906140be565b602060405180830381865afa158015612bc2573d6000803e3d6000fd5b505050506040513d601f19601f82011682018060405250810190612be69190613fcd565b15612c835783600160a060020a03166398bd75728288600660008b8152602001908152602001600020600081548110612c2157612c21613d99565b906000526020600020016040518463ffffffff1660e060020a028152600401612c4c939291906140be565b600060405180830381600087803b158015612c6657600080fd5b505af1158015612c7a573d6000803e3d6000fd5b50505050612ca5565b6000868152600c60209081526040822080546001810182559083529120018290555b50508080612cb290613d4a565b915050612a15565b505050600090815260046020526040902060029055565b6000805b8251811015612dd9576000848152600760205260408120845160019450859084908110612d0457612d04613d99565b6020026020010151600060028110612d1e57612d1e613d99565b6020020151604051612d309190613d65565b90815260405190819003602001902054600160a060020a03161480612db9575060008481526007602052604081208451859084908110612d7257612d72613d99565b6020026020010151600160028110612d8c57612d8c613d99565b6020020151604051612d9e9190613d65565b90815260405190819003602001902054600160a060020a0316145b15612dc75760009150612dd9565b80612dd181613d4a565b915050612cd5565b5092915050565b6000818152600183016020526040812054612e2757508154600181810184556000848152602080822090930184905584548482528286019093526040902091909155610891565b506000610891565b612e398282611764565b610e3b57612e5181600160a060020a03166014612f3a565b612e5c836020612f3a565b604051602001612e6d92919061415b565b60408051601f198184030181529082905260e560020a62461bcd0282526109d2916004016135ca565b612ea08282611764565b15610e3b57600082815260208181526040808320600160a060020a0385168085529252808320805460ff1916905551339285917ff6391f5c32d9c69d2a47ea670b442974b53935d1edc7fd64eb21e047a839171b9190a45050565b600061175d83600160a060020a038416613184565b6000826000018281548110612f2757612f27613d99565b9060005260206000200154905092915050565b60606000612f49836002613e83565b612f54906002613d81565b67ffffffffffffffff811115612f6c57612f6c613418565b6040519080825280601f01601f191660200182016040528015612f96576020820181803683370190505b5090507f300000000000000000000000000000000000000000000000000000000000000081600081518110612fcd57612fcd613d99565b60200101907effffffffffffffffffffffffffffffffffffffffffffffffffffffffffffff1916908160001a9053507f78000000000000000000000000000000000000000000000000000000000000008160018151811061303057613030613d99565b60200101907effffffffffffffffffffffffffffffffffffffffffffffffffffffffffffff1916908160001a905350600061306c846002613e83565b613077906001613d81565b90505b6001811115613132577f303132333435363738396162636465660000000000000000000000000000000085600f16601081106130b8576130b8613d99565b1a7f0100000000000000000000000000000000000000000000000000000000000000028282815181106130ed576130ed613d99565b60200101907effffffffffffffffffffffffffffffffffffffffffffffffffffffffffffff1916908160001a90535060109094049361312b816141dc565b905061307a565b50831561175d5760405160e560020a62461bcd02815260206004820181905260248201527f537472696e67733a20686578206c656e67746820696e73756666696369656e7460448201526064016109d2565b6000818152600183016020526040812054801561326d5760006131a8600183613db2565b85549091506000906131bc90600190613db2565b90508181146132215760008660000182815481106131dc576131dc613d99565b90600052602060002001549050808760000184815481106131ff576131ff613d99565b6000918252602080832090910192909255918252600188019052604090208390555b8554869080613232576132326141f3565b600190038181906000526020600020016000905590558560010160008681526020019081526020016000206000905560019350505050610891565b6000915050610891565b8280548282559060005260206000209081019282156132c4579160200282015b828111156132c457825180516132b49184916020909101906132d0565b5091602001919060010190613297565b50610f03929150613350565b8280546132dc90613cf3565b90600052602060002090601f0160209004810192826132fe5760008555613344565b82601f1061331757805160ff1916838001178555613344565b82800160010185558215613344579182015b82811115613344578251825591602001919060010190613329565b50610f0392915061336d565b80821115610f035760006133648282613382565b50600101613350565b5b80821115610f03576000815560010161336e565b50805461338e90613cf3565b6000825580601f1061339e575050565b601f016020900490600052602060002090810190611741919061336d565b6000602082840312156133ce57600080fd5b8135600160e060020a03198116811461175d57600080fd5b600160a060020a038116811461174157600080fd5b60006020828403121561340d57600080fd5b813561175d816133e6565b60e060020a634e487b7102600052604160045260246000fd5b6040805190810167ffffffffffffffff8111828210171561345457613454613418565b60405290565b604051601f8201601f1916810167ffffffffffffffff8111828210171561348357613483613418565b604052919050565b600067ffffffffffffffff8211156134a5576134a5613418565b50601f01601f191660200190565b600082601f8301126134c457600080fd5b81356134d76134d28261348b565b61345a565b8181528460208386010111156134ec57600080fd5b816020850160208301376000918101602001919091529392505050565b6000806040838503121561351c57600080fd5b82359150602083013567ffffffffffffffff81111561353a57600080fd5b613546858286016134b3565b9150509250929050565b6000806040838503121561356357600080fd5b50508035926020909101359150565b60005b8381101561358d578181015183820152602001613575565b83811115610e865750506000910152565b600081518084526135b6816020860160208601613572565b601f01601f19169290920160200192915050565b60208152600061175d602083018461359e565b600067ffffffffffffffff8211156135f7576135f7613418565b5060209081020190565b600082601f83011261361257600080fd5b813560206136226134d2836135dd565b8281529181028401810191818101908684111561363e57600080fd5b8286015b8481101561367e57803567ffffffffffffffff8111156136625760008081fd5b6136708986838b01016134b3565b845250918301918301613642565b509695505050505050565b600082601f83011261369a57600080fd5b813560206136aa6134d2836135dd565b828152918102840181019181810190868411156136c657600080fd5b8286015b8481101561367e57803583529183019183016136ca565b600080600080600060a086880312156136f957600080fd5b85359450602086013567ffffffffffffffff8082111561371857600080fd5b61372489838a01613601565b9550604088013591508082111561373a57600080fd5b61374689838a01613689565b9450606088013591508082111561375c57600080fd5b61376889838a01613601565b9350608088013591508082111561377e57600080fd5b5061378b88828901613689565b9150509295509295909350565b600060208083018184528085518083526040860191506040848202870101925083870160005b828110156137ec57603f198886030184526137da85835161359e565b945092850192908501906001016137be565b5092979650505050505050565b60006020828403121561380b57600080fd5b5035919050565b600082601f83011261382357600080fd5b813560206138336134d2836135dd565b8281529181028401810191818101908684111561384f57600080fd5b8286015b8481101561367e578035613866816133e6565b8352918301918301613853565b6000806000806080858703121561388957600080fd5b84359350602085013567ffffffffffffffff808211156138a857600080fd5b6138b488838901613812565b945060408701359150808211156138ca57600080fd5b506138d787828801613689565b949793965093946060013593505050565b6000806000606084860312156138fd57600080fd5b833567ffffffffffffffff8082111561391557600080fd5b61392187838801613812565b9450602086013591508082111561393757600080fd5b5061394486828701613601565b925050604084013590509250925092565b6000806040838503121561396857600080fd5b82359150602083013561397a816133e6565b809150509250929050565b6000806040838503121561399857600080fd5b823567ffffffffffffffff8111156139af57600080fd5b6139bb85828601613601565b95602094909401359450505050565b6000806000606084860312156139df57600080fd5b83359250602084013567ffffffffffffffff8111156139fd57600080fd5b613944868287016134b3565b600080600060608486031215613a1e57600080fd5b833592506020840135613a30816133e6565b929592945050506040919091013590565b60008060408385031215613a5457600080fd5b8235613a5f816133e6565b9150602083013561397a816133e6565b6020808252825182820181905260009190848201906040850190845b81811015613aa757835183529284019291840191600101613a8b565b50909695505050505050565b60008060008060808587031215613ac957600080fd5b8435613ad4816133e6565b93506020850135613ae4816133e6565b9250604085013567ffffffffffffffff80821115613b0157600080fd5b613b0d88838901613812565b93506060870135915080821115613b2357600080fd5b50613b3087828801613601565b91505092959194509250565b60008060408385031215613b4f57600080fd5b8235915060208084013567ffffffffffffffff80821115613b6f57600080fd5b818601915086601f830112613b8357600080fd5b8135613b916134d2826135dd565b81815290840283018401908481019089831115613bad57600080fd5b8585015b83811015613c3c578481351115613bc757600080fd5b803586018b603f820112613bda57600080fd5b613be2613431565b808d606084011115613bf357600080fd5b8983015b60608401811015613c2c578881351115613c1057600080fd5b613c1f8f8c83358701016134b3565b8352918a01918a01613bf7565b5085525050918601918601613bb1565b508096505050505050509250929050565b600080600060608486031215613c6257600080fd5b833567ffffffffffffffff811115613c7957600080fd5b613c85868287016134b3565b935050602084013560068110613a3057600080fd5b600080600060608486031215613caf57600080fd5b833592506020840135613cc1816133e6565b9150604084013567ffffffffffffffff811115613cdd57600080fd5b613ce9868287016134b3565b9150509250925092565b600281046001821680613d0757607f821691505b60208210811415613d2b5760e060020a634e487b7102600052602260045260246000fd5b50919050565b60e060020a634e487b7102600052601160045260246000fd5b6000600019821415613d5e57613d5e613d31565b5060010190565b60008251613d77818460208701613572565b9190910192915050565b60008219821115613d9457613d94613d31565b500190565b60e060020a634e487b7102600052603260045260246000fd5b600082821015613dc457613dc4613d31565b500390565b60208082526025908201527f616464726573736573202620616c696173657320646966666572656e74206c6560408201527f6e67746873000000000000000000000000000000000000000000000000000000606082015260800190565b60208082526024908201527f47616d65204d6173746572206f7220466163746f727920726f6c65207265717560408201527f6972656400000000000000000000000000000000000000000000000000000000606082015260800190565b6000816000190483118215151615613e9d57613e9d613d31565b500290565b60006020808385031215613eb557600080fd5b825167ffffffffffffffff80821115613ecd57600080fd5b818501915085601f830112613ee157600080fd5b8151613eef6134d2826135dd565b81815290840283018401908481019088831115613f0b57600080fd5b8585015b83811015613f7f57805185811115613f275760008081fd5b8601603f81018b13613f395760008081fd5b878101516040613f4b6134d28361348b565b8281528d82848601011115613f605760008081fd5b613f6f838c8301848701613572565b8652505050918601918601613f0f565b5098975050505050505050565b600060208284031215613f9e57600080fd5b5051919050565b600160a060020a038416815282602082015260606040820152600061212a606083018461359e565b600060208284031215613fdf57600080fd5b8151801515811461175d57600080fd5b6000600685106140125760e060020a634e487b7102600052602160045260246000fd5b8482528360208301526060604083015261212a606083018461359e565b600080835461403d81613cf3565b60018281168015614055576001811461406657614095565b60ff19841687528287019450614095565b8760005260208060002060005b8581101561408c5781548a820152908401908201614073565b50505082870194505b50929695505050505050565b6000602082840312156140b357600080fd5b815161175d816133e6565b600160a060020a038416815260006020848184015260606040840152600084546140e781613cf3565b8060608701526080600180841660008114614109576001811461411d5761414b565b60ff1985168984015260a08901955061414b565b896000528660002060005b858110156141435781548b8201860152908301908801614128565b8a0184019650505b50939a9950505050505050505050565b7f416363657373436f6e74726f6c3a206163636f756e7420000000000000000000815260008351614193816017850160208801613572565b7f206973206d697373696e6720726f6c652000000000000000000000000000000060179184019182015283516141d0816028840160208801613572565b01602801949350505050565b6000816141eb576141eb613d31565b506000190190565b60e060020a634e487b7102600052603160045260246000fdfe72b06b67826def9fabb513b23f7e5eb74f7ece26d25dad4006546ecf4a13763d1d93c87416ca7b54f0fb8323167b72760e8e2ec93d48660953897a150f97a8b4dfbefbf47cfe66b701d8cfdbce1de81c821590819cb07e71cb01b6602fb0ee27d017b644efdbb8827e313d7971462ef180dad8aa174c6fb8427f18caad304df7a264697066735822122086cc26c51ffed733563d699aa694edcbd709811f14abe80c102dcd1206c83e6664736f6c634300080b0033",
  "immutableReferences": {},
  "source": "// SPDX-License-Identifier: GPL-3.0\npragma solidity >=0.7.0 <0.9.0;\n\nimport \"@luckymachines/game-core/contracts/src/v0.0/custom_boards/HexGrid.sol\";\nimport \"./HexplorationZone.sol\";\n\ncontract HexplorationBoard is HexGrid {\n    // This role is a hybrid controller, assumes on chain verification of moves before submission\n\n    HexplorationZone internal HEX_ZONE;\n    // game ID => zone alias returns bool\n    mapping(uint256 => mapping(string => bool)) public zoneEnabled;\n\n    constructor(\n        address adminAddress,\n        uint256 gridWidth,\n        uint256 gridHeight,\n        address zoneAddress\n    ) HexGrid(adminAddress, gridWidth, gridHeight, zoneAddress) {\n        HEX_ZONE = HexplorationZone(zoneAddress);\n    }\n\n    // TODO: figure out who should call this, might be VRF function...\n    function enableZone(\n        string memory zoneAlias,\n        HexplorationZone.Tile tile,\n        uint256 gameID\n    ) public {\n        HEX_ZONE.setTile(tile, gameID, zoneAlias);\n        zoneEnabled[gameID][zoneAlias] = true;\n    }\n\n    // VERIFIED CONTROLLER functions\n    // We can assume these have been pre-verified\n    function moveThroughPath(string[] memory zonePath, uint256 gameID)\n        external\n        onlyRole(VERIFIED_CONTROLLER_ROLE)\n    {}\n}\n",
  "sourcePath": "/Users/maxmeier/Developer/Lucky Machines/hexploration/contracts/HexplorationBoard.sol",
  "compiler": {
    "name": "solc",
    "version": "0.8.11+commit.d7f03943.Emscripten.clang"
  },
  "schemaVersion": "3.4.4",
  "updatedAt": "2022-05-11T23:21:28.071Z",
  "devdoc": {
    "kind": "dev",
    "methods": {
      "getRoleAdmin(bytes32)": {
        "details": "Returns the admin role that controls `role`. See {grantRole} and {revokeRole}. To change a role's admin, use {_setRoleAdmin}."
      },
      "getRoleMember(bytes32,uint256)": {
        "details": "Returns one of the accounts that have `role`. `index` must be a value between 0 and {getRoleMemberCount}, non-inclusive. Role bearers are not sorted in any particular way, and their ordering may change at any point. WARNING: When using {getRoleMember} and {getRoleMemberCount}, make sure you perform all queries on the same block. See the following https://forum.openzeppelin.com/t/iterating-over-elements-on-enumerableset-in-openzeppelin-contracts/2296[forum post] for more information."
      },
      "getRoleMemberCount(bytes32)": {
        "details": "Returns the number of accounts that have `role`. Can be used together with {getRoleMember} to enumerate all bearers of a role."
      },
      "grantRole(bytes32,address)": {
        "details": "Grants `role` to `account`. If `account` had not been already granted `role`, emits a {RoleGranted} event. Requirements: - the caller must have ``role``'s admin role."
      },
      "hasRole(bytes32,address)": {
        "details": "Returns `true` if `account` has been granted `role`."
      },
      "renounceRole(bytes32,address)": {
        "details": "Revokes `role` from the calling account. Roles are often managed via {grantRole} and {revokeRole}: this function's purpose is to provide a mechanism for accounts to lose their privileges if they are compromised (such as when a trusted device is misplaced). If the calling account had been revoked `role`, emits a {RoleRevoked} event. Requirements: - the caller must be `account`."
      },
      "revokeRole(bytes32,address)": {
        "details": "Revokes `role` from `account`. If `account` had been granted `role`, emits a {RoleRevoked} event. Requirements: - the caller must have ``role``'s admin role."
      },
      "supportsInterface(bytes4)": {
        "details": "See {IERC165-supportsInterface}."
      }
    },
    "version": 1
  },
  "userdoc": {
    "kind": "user",
    "methods": {},
    "version": 1
  }
}