{
  "contractName": "HexplorationBoard",
  "abi": [
    {
      "inputs": [
        {
          "internalType": "address",
          "name": "adminAddress",
          "type": "address"
        },
        {
          "internalType": "uint256",
          "name": "gridWidth",
          "type": "uint256"
        },
        {
          "internalType": "uint256",
          "name": "gridHeight",
          "type": "uint256"
        },
        {
          "internalType": "address",
          "name": "zoneAddress",
          "type": "address"
        }
      ],
      "stateMutability": "nonpayable",
      "type": "constructor"
    },
    {
      "anonymous": false,
      "inputs": [
        {
          "indexed": true,
          "internalType": "bytes32",
          "name": "role",
          "type": "bytes32"
        },
        {
          "indexed": true,
          "internalType": "bytes32",
          "name": "previousAdminRole",
          "type": "bytes32"
        },
        {
          "indexed": true,
          "internalType": "bytes32",
          "name": "newAdminRole",
          "type": "bytes32"
        }
      ],
      "name": "RoleAdminChanged",
      "type": "event"
    },
    {
      "anonymous": false,
      "inputs": [
        {
          "indexed": true,
          "internalType": "bytes32",
          "name": "role",
          "type": "bytes32"
        },
        {
          "indexed": true,
          "internalType": "address",
          "name": "account",
          "type": "address"
        },
        {
          "indexed": true,
          "internalType": "address",
          "name": "sender",
          "type": "address"
        }
      ],
      "name": "RoleGranted",
      "type": "event"
    },
    {
      "anonymous": false,
      "inputs": [
        {
          "indexed": true,
          "internalType": "bytes32",
          "name": "role",
          "type": "bytes32"
        },
        {
          "indexed": true,
          "internalType": "address",
          "name": "account",
          "type": "address"
        },
        {
          "indexed": true,
          "internalType": "address",
          "name": "sender",
          "type": "address"
        }
      ],
      "name": "RoleRevoked",
      "type": "event"
    },
    {
      "inputs": [],
      "name": "DEFAULT_ADMIN_ROLE",
      "outputs": [
        {
          "internalType": "bytes32",
          "name": "",
          "type": "bytes32"
        }
      ],
      "stateMutability": "view",
      "type": "function",
      "constant": true
    },
    {
      "inputs": [],
      "name": "FACTORY_ROLE",
      "outputs": [
        {
          "internalType": "bytes32",
          "name": "",
          "type": "bytes32"
        }
      ],
      "stateMutability": "view",
      "type": "function",
      "constant": true
    },
    {
      "inputs": [],
      "name": "GAME_MASTER_ROLE",
      "outputs": [
        {
          "internalType": "bytes32",
          "name": "",
          "type": "bytes32"
        }
      ],
      "stateMutability": "view",
      "type": "function",
      "constant": true
    },
    {
      "inputs": [],
      "name": "MAX_BATCH_SIZE",
      "outputs": [
        {
          "internalType": "uint256",
          "name": "",
          "type": "uint256"
        }
      ],
      "stateMutability": "view",
      "type": "function",
      "constant": true
    },
    {
      "inputs": [],
      "name": "PLAY_ZONE_ROLE",
      "outputs": [
        {
          "internalType": "bytes32",
          "name": "",
          "type": "bytes32"
        }
      ],
      "stateMutability": "view",
      "type": "function",
      "constant": true
    },
    {
      "inputs": [],
      "name": "VERIFIED_CONTROLLER_ROLE",
      "outputs": [
        {
          "internalType": "bytes32",
          "name": "",
          "type": "bytes32"
        }
      ],
      "stateMutability": "view",
      "type": "function",
      "constant": true
    },
    {
      "inputs": [
        {
          "internalType": "uint256",
          "name": "transitID",
          "type": "uint256"
        }
      ],
      "name": "_progressTransit",
      "outputs": [],
      "stateMutability": "nonpayable",
      "type": "function"
    },
    {
      "inputs": [
        {
          "internalType": "address",
          "name": "factoryAddress",
          "type": "address"
        }
      ],
      "name": "addFactory",
      "outputs": [],
      "stateMutability": "nonpayable",
      "type": "function"
    },
    {
      "inputs": [
        {
          "internalType": "address",
          "name": "keeperAddress",
          "type": "address"
        }
      ],
      "name": "addKeeper",
      "outputs": [],
      "stateMutability": "nonpayable",
      "type": "function"
    },
    {
      "inputs": [
        {
          "internalType": "address",
          "name": "vcAddress",
          "type": "address"
        }
      ],
      "name": "addVerifiedController",
      "outputs": [],
      "stateMutability": "nonpayable",
      "type": "function"
    },
    {
      "inputs": [
        {
          "internalType": "uint256",
          "name": "gameID",
          "type": "uint256"
        },
        {
          "internalType": "string[2][]",
          "name": "connections",
          "type": "string[2][]"
        }
      ],
      "name": "addZoneConnections",
      "outputs": [],
      "stateMutability": "nonpayable",
      "type": "function"
    },
    {
      "inputs": [
        {
          "internalType": "address[]",
          "name": "playZoneAddresses",
          "type": "address[]"
        },
        {
          "internalType": "string[]",
          "name": "zoneAliases",
          "type": "string[]"
        },
        {
          "internalType": "uint256",
          "name": "gameID",
          "type": "uint256"
        }
      ],
      "name": "addZones",
      "outputs": [],
      "stateMutability": "nonpayable",
      "type": "function"
    },
    {
      "inputs": [],
      "name": "characterCard",
      "outputs": [
        {
          "internalType": "address",
          "name": "",
          "type": "address"
        }
      ],
      "stateMutability": "view",
      "type": "function",
      "constant": true
    },
    {
      "inputs": [],
      "name": "cleanQueue",
      "outputs": [],
      "stateMutability": "nonpayable",
      "type": "function"
    },
    {
      "inputs": [
        {
          "internalType": "address",
          "name": "_playerRegistry",
          "type": "address"
        },
        {
          "internalType": "address",
          "name": "_gameRegistry",
          "type": "address"
        }
      ],
      "name": "createGame",
      "outputs": [
        {
          "internalType": "uint256",
          "name": "gameID",
          "type": "uint256"
        }
      ],
      "stateMutability": "nonpayable",
      "type": "function"
    },
    {
      "inputs": [
        {
          "internalType": "address",
          "name": "_playerRegistry",
          "type": "address"
        },
        {
          "internalType": "address",
          "name": "_gameRegistry",
          "type": "address"
        },
        {
          "internalType": "address[]",
          "name": "playZoneAddresses",
          "type": "address[]"
        },
        {
          "internalType": "string[]",
          "name": "zoneAliases",
          "type": "string[]"
        }
      ],
      "name": "createGame",
      "outputs": [
        {
          "internalType": "uint256",
          "name": "gameID",
          "type": "uint256"
        }
      ],
      "stateMutability": "nonpayable",
      "type": "function"
    },
    {
      "inputs": [],
      "name": "createGrid",
      "outputs": [],
      "stateMutability": "nonpayable",
      "type": "function"
    },
    {
      "inputs": [
        {
          "internalType": "uint256",
          "name": "",
          "type": "uint256"
        },
        {
          "internalType": "uint256",
          "name": "",
          "type": "uint256"
        }
      ],
      "name": "currentPlayZone",
      "outputs": [
        {
          "internalType": "string",
          "name": "",
          "type": "string"
        }
      ],
      "stateMutability": "view",
      "type": "function",
      "constant": true
    },
    {
      "inputs": [
        {
          "internalType": "uint256",
          "name": "",
          "type": "uint256"
        },
        {
          "internalType": "uint256",
          "name": "",
          "type": "uint256"
        }
      ],
      "name": "entryQueue",
      "outputs": [
        {
          "internalType": "uint256",
          "name": "",
          "type": "uint256"
        }
      ],
      "stateMutability": "view",
      "type": "function",
      "constant": true
    },
    {
      "inputs": [
        {
          "internalType": "uint256",
          "name": "gameID",
          "type": "uint256"
        },
        {
          "internalType": "address",
          "name": "playerAddress",
          "type": "address"
        },
        {
          "internalType": "uint256",
          "name": "pathIndex",
          "type": "uint256"
        }
      ],
      "name": "exitToPath",
      "outputs": [
        {
          "internalType": "bool",
          "name": "exitSuccess",
          "type": "bool"
        }
      ],
      "stateMutability": "nonpayable",
      "type": "function"
    },
    {
      "inputs": [
        {
          "internalType": "uint256",
          "name": "",
          "type": "uint256"
        }
      ],
      "name": "gameState",
      "outputs": [
        {
          "internalType": "uint256",
          "name": "",
          "type": "uint256"
        }
      ],
      "stateMutability": "view",
      "type": "function",
      "constant": true
    },
    {
      "inputs": [],
      "name": "gameplayQueue",
      "outputs": [
        {
          "internalType": "address",
          "name": "",
          "type": "address"
        }
      ],
      "stateMutability": "view",
      "type": "function",
      "constant": true
    },
    {
      "inputs": [
        {
          "internalType": "uint256",
          "name": "gameID",
          "type": "uint256"
        },
        {
          "internalType": "string",
          "name": "_zoneAlias",
          "type": "string"
        }
      ],
      "name": "getInputs",
      "outputs": [
        {
          "internalType": "string[]",
          "name": "zoneInputs",
          "type": "string[]"
        }
      ],
      "stateMutability": "view",
      "type": "function",
      "constant": true
    },
    {
      "inputs": [
        {
          "internalType": "uint256",
          "name": "gameID",
          "type": "uint256"
        },
        {
          "internalType": "string",
          "name": "_zoneAlias",
          "type": "string"
        }
      ],
      "name": "getOutputs",
      "outputs": [
        {
          "internalType": "string[]",
          "name": "zoneOutputs",
          "type": "string[]"
        }
      ],
      "stateMutability": "view",
      "type": "function",
      "constant": true
    },
    {
      "inputs": [
        {
          "internalType": "uint256",
          "name": "gameID",
          "type": "uint256"
        }
      ],
      "name": "getOverflowQueue",
      "outputs": [
        {
          "internalType": "uint256[]",
          "name": "",
          "type": "uint256[]"
        }
      ],
      "stateMutability": "view",
      "type": "function",
      "constant": true
    },
    {
      "inputs": [
        {
          "internalType": "uint256",
          "name": "gameID",
          "type": "uint256"
        }
      ],
      "name": "getPlayZones",
      "outputs": [
        {
          "internalType": "string[]",
          "name": "",
          "type": "string[]"
        }
      ],
      "stateMutability": "view",
      "type": "function",
      "constant": true
    },
    {
      "inputs": [
        {
          "internalType": "bytes32",
          "name": "role",
          "type": "bytes32"
        }
      ],
      "name": "getRoleAdmin",
      "outputs": [
        {
          "internalType": "bytes32",
          "name": "",
          "type": "bytes32"
        }
      ],
      "stateMutability": "view",
      "type": "function",
      "constant": true
    },
    {
      "inputs": [
        {
          "internalType": "bytes32",
          "name": "role",
          "type": "bytes32"
        },
        {
          "internalType": "uint256",
          "name": "index",
          "type": "uint256"
        }
      ],
      "name": "getRoleMember",
      "outputs": [
        {
          "internalType": "address",
          "name": "",
          "type": "address"
        }
      ],
      "stateMutability": "view",
      "type": "function",
      "constant": true
    },
    {
      "inputs": [
        {
          "internalType": "bytes32",
          "name": "role",
          "type": "bytes32"
        }
      ],
      "name": "getRoleMemberCount",
      "outputs": [
        {
          "internalType": "uint256",
          "name": "",
          "type": "uint256"
        }
      ],
      "stateMutability": "view",
      "type": "function",
      "constant": true
    },
    {
      "inputs": [],
      "name": "getZoneAliases",
      "outputs": [
        {
          "internalType": "string[]",
          "name": "",
          "type": "string[]"
        }
      ],
      "stateMutability": "view",
      "type": "function",
      "constant": true
    },
    {
      "inputs": [
        {
          "internalType": "bytes32",
          "name": "role",
          "type": "bytes32"
        },
        {
          "internalType": "address",
          "name": "account",
          "type": "address"
        }
      ],
      "name": "grantRole",
      "outputs": [],
      "stateMutability": "nonpayable",
      "type": "function"
    },
    {
      "inputs": [],
      "name": "gridHeight",
      "outputs": [
        {
          "internalType": "uint256",
          "name": "",
          "type": "uint256"
        }
      ],
      "stateMutability": "view",
      "type": "function",
      "constant": true
    },
    {
      "inputs": [],
      "name": "gridWidth",
      "outputs": [
        {
          "internalType": "uint256",
          "name": "",
          "type": "uint256"
        }
      ],
      "stateMutability": "view",
      "type": "function",
      "constant": true
    },
    {
      "inputs": [
        {
          "internalType": "bytes32",
          "name": "role",
          "type": "bytes32"
        },
        {
          "internalType": "address",
          "name": "account",
          "type": "address"
        }
      ],
      "name": "hasRole",
      "outputs": [
        {
          "internalType": "bool",
          "name": "",
          "type": "bool"
        }
      ],
      "stateMutability": "view",
      "type": "function",
      "constant": true
    },
    {
      "inputs": [
        {
          "internalType": "uint256",
          "name": "",
          "type": "uint256"
        }
      ],
      "name": "initialPlayZone",
      "outputs": [
        {
          "internalType": "string",
          "name": "",
          "type": "string"
        }
      ],
      "stateMutability": "view",
      "type": "function",
      "constant": true
    },
    {
      "inputs": [
        {
          "internalType": "address",
          "name": "factoryAddress",
          "type": "address"
        }
      ],
      "name": "isFactory",
      "outputs": [
        {
          "internalType": "bool",
          "name": "factoryIsAuthorized",
          "type": "bool"
        }
      ],
      "stateMutability": "view",
      "type": "function",
      "constant": true
    },
    {
      "inputs": [
        {
          "internalType": "uint256",
          "name": "",
          "type": "uint256"
        }
      ],
      "name": "lastEntryPlayerID",
      "outputs": [
        {
          "internalType": "uint256",
          "name": "",
          "type": "uint256"
        }
      ],
      "stateMutability": "view",
      "type": "function",
      "constant": true
    },
    {
      "inputs": [],
      "name": "needsUpdate",
      "outputs": [
        {
          "internalType": "bool",
          "name": "doesNeedUpdate",
          "type": "bool"
        }
      ],
      "stateMutability": "view",
      "type": "function",
      "constant": true
    },
    {
      "inputs": [
        {
          "internalType": "uint256",
          "name": "",
          "type": "uint256"
        },
        {
          "internalType": "string",
          "name": "",
          "type": "string"
        },
        {
          "internalType": "uint256",
          "name": "",
          "type": "uint256"
        }
      ],
      "name": "playZoneInputs",
      "outputs": [
        {
          "internalType": "string",
          "name": "",
          "type": "string"
        }
      ],
      "stateMutability": "view",
      "type": "function",
      "constant": true
    },
    {
      "inputs": [
        {
          "internalType": "uint256",
          "name": "",
          "type": "uint256"
        },
        {
          "internalType": "string",
          "name": "",
          "type": "string"
        },
        {
          "internalType": "uint256",
          "name": "",
          "type": "uint256"
        }
      ],
      "name": "playZoneOutputs",
      "outputs": [
        {
          "internalType": "string",
          "name": "",
          "type": "string"
        }
      ],
      "stateMutability": "view",
      "type": "function",
      "constant": true
    },
    {
      "inputs": [
        {
          "internalType": "uint256",
          "name": "",
          "type": "uint256"
        },
        {
          "internalType": "uint256",
          "name": "",
          "type": "uint256"
        }
      ],
      "name": "playZones",
      "outputs": [
        {
          "internalType": "string",
          "name": "",
          "type": "string"
        }
      ],
      "stateMutability": "view",
      "type": "function",
      "constant": true
    },
    {
      "inputs": [
        {
          "internalType": "uint256",
          "name": "gameID",
          "type": "uint256"
        },
        {
          "internalType": "address",
          "name": "playerAddress",
          "type": "address"
        },
        {
          "internalType": "string",
          "name": "_zoneAlias",
          "type": "string"
        }
      ],
      "name": "playerEnteredZone",
      "outputs": [],
      "stateMutability": "nonpayable",
      "type": "function"
    },
    {
      "inputs": [
        {
          "internalType": "uint256",
          "name": "",
          "type": "uint256"
        }
      ],
      "name": "playerRegistry",
      "outputs": [
        {
          "internalType": "uint256",
          "name": "",
          "type": "uint256"
        }
      ],
      "stateMutability": "view",
      "type": "function",
      "constant": true
    },
    {
      "inputs": [],
      "name": "prAddress",
      "outputs": [
        {
          "internalType": "address",
          "name": "",
          "type": "address"
        }
      ],
      "stateMutability": "view",
      "type": "function",
      "constant": true
    },
    {
      "inputs": [
        {
          "internalType": "uint256",
          "name": "gameID",
          "type": "uint256"
        },
        {
          "internalType": "address[]",
          "name": "playerAddresses",
          "type": "address[]"
        },
        {
          "internalType": "uint256[]",
          "name": "pathIndices",
          "type": "uint256[]"
        },
        {
          "internalType": "uint256",
          "name": "transitID",
          "type": "uint256"
        }
      ],
      "name": "queueExitToPaths",
      "outputs": [],
      "stateMutability": "nonpayable",
      "type": "function"
    },
    {
      "inputs": [
        {
          "internalType": "uint256",
          "name": "gameID",
          "type": "uint256"
        },
        {
          "internalType": "string[]",
          "name": "inputAliases",
          "type": "string[]"
        },
        {
          "internalType": "uint256[]",
          "name": "inputs",
          "type": "uint256[]"
        },
        {
          "internalType": "string[]",
          "name": "outputAliases",
          "type": "string[]"
        },
        {
          "internalType": "uint256[]",
          "name": "outputs",
          "type": "uint256[]"
        }
      ],
      "name": "removeZoneConnections",
      "outputs": [],
      "stateMutability": "nonpayable",
      "type": "function"
    },
    {
      "inputs": [
        {
          "internalType": "bytes32",
          "name": "role",
          "type": "bytes32"
        },
        {
          "internalType": "address",
          "name": "account",
          "type": "address"
        }
      ],
      "name": "renounceRole",
      "outputs": [],
      "stateMutability": "nonpayable",
      "type": "function"
    },
    {
      "inputs": [
        {
          "internalType": "bytes32",
          "name": "role",
          "type": "bytes32"
        },
        {
          "internalType": "address",
          "name": "account",
          "type": "address"
        }
      ],
      "name": "revokeRole",
      "outputs": [],
      "stateMutability": "nonpayable",
      "type": "function"
    },
    {
      "inputs": [],
      "name": "runUpdate",
      "outputs": [],
      "stateMutability": "nonpayable",
      "type": "function"
    },
    {
      "inputs": [
        {
          "internalType": "string",
          "name": "initialZone",
          "type": "string"
        },
        {
          "internalType": "uint256",
          "name": "gameID",
          "type": "uint256"
        }
      ],
      "name": "setInitialPlayZone",
      "outputs": [],
      "stateMutability": "nonpayable",
      "type": "function"
    },
    {
      "inputs": [
        {
          "internalType": "uint256",
          "name": "gameID",
          "type": "uint256"
        }
      ],
      "name": "startGame",
      "outputs": [],
      "stateMutability": "nonpayable",
      "type": "function"
    },
    {
      "inputs": [
        {
          "internalType": "uint256",
          "name": "transitID",
          "type": "uint256"
        }
      ],
      "name": "startTransit",
      "outputs": [],
      "stateMutability": "nonpayable",
      "type": "function"
    },
    {
      "inputs": [
        {
          "internalType": "bytes4",
          "name": "interfaceId",
          "type": "bytes4"
        }
      ],
      "name": "supportsInterface",
      "outputs": [
        {
          "internalType": "bool",
          "name": "",
          "type": "bool"
        }
      ],
      "stateMutability": "view",
      "type": "function",
      "constant": true
    },
    {
      "inputs": [],
      "name": "tokenInventory",
      "outputs": [
        {
          "internalType": "address",
          "name": "",
          "type": "address"
        }
      ],
      "stateMutability": "view",
      "type": "function",
      "constant": true
    },
    {
      "inputs": [],
      "name": "zoneAddress",
      "outputs": [
        {
          "internalType": "address",
          "name": "",
          "type": "address"
        }
      ],
      "stateMutability": "view",
      "type": "function",
      "constant": true
    },
    {
      "inputs": [
        {
          "internalType": "uint256",
          "name": "",
          "type": "uint256"
        },
        {
          "internalType": "string",
          "name": "",
          "type": "string"
        }
      ],
      "name": "zoneAlias",
      "outputs": [
        {
          "internalType": "address",
          "name": "",
          "type": "address"
        }
      ],
      "stateMutability": "view",
      "type": "function",
      "constant": true
    },
    {
      "inputs": [
        {
          "internalType": "uint256",
          "name": "",
          "type": "uint256"
        }
      ],
      "name": "zoneAliases",
      "outputs": [
        {
          "internalType": "string",
          "name": "",
          "type": "string"
        }
      ],
      "stateMutability": "view",
      "type": "function",
      "constant": true
    },
    {
      "inputs": [
        {
          "internalType": "uint256",
          "name": "",
          "type": "uint256"
        },
        {
          "internalType": "string",
          "name": "",
          "type": "string"
        }
      ],
      "name": "zoneEnabled",
      "outputs": [
        {
          "internalType": "bool",
          "name": "",
          "type": "bool"
        }
      ],
      "stateMutability": "view",
      "type": "function",
      "constant": true
    },
    {
      "inputs": [],
      "name": "hexZoneAddress",
      "outputs": [
        {
          "internalType": "address",
          "name": "",
          "type": "address"
        }
      ],
      "stateMutability": "view",
      "type": "function",
      "constant": true
    },
    {
      "inputs": [
        {
          "internalType": "address",
          "name": "characterCardAddress",
          "type": "address"
        }
      ],
      "name": "setCharacterCard",
      "outputs": [],
      "stateMutability": "nonpayable",
      "type": "function"
    },
    {
      "inputs": [
        {
          "internalType": "address",
          "name": "tokenInventoryAddress",
          "type": "address"
        }
      ],
      "name": "setTokenInventory",
      "outputs": [],
      "stateMutability": "nonpayable",
      "type": "function"
    },
    {
      "inputs": [
        {
          "internalType": "address",
          "name": "gameplayQueueAddress",
          "type": "address"
        }
      ],
      "name": "setGameplayQueue",
      "outputs": [],
      "stateMutability": "nonpayable",
      "type": "function"
    },
    {
      "inputs": [
        {
          "internalType": "address",
          "name": "playerAddress",
          "type": "address"
        },
        {
          "internalType": "uint256",
          "name": "gameID",
          "type": "uint256"
        }
      ],
      "name": "registerPlayer",
      "outputs": [],
      "stateMutability": "nonpayable",
      "type": "function"
    },
    {
      "inputs": [
        {
          "internalType": "uint256",
          "name": "gameID",
          "type": "uint256"
        }
      ],
      "name": "lockRegistration",
      "outputs": [],
      "stateMutability": "nonpayable",
      "type": "function"
    },
    {
      "inputs": [
        {
          "internalType": "address",
          "name": "playerAddress",
          "type": "address"
        },
        {
          "internalType": "uint256",
          "name": "gameID",
          "type": "uint256"
        },
        {
          "internalType": "string",
          "name": "zone",
          "type": "string"
        }
      ],
      "name": "enterPlayer",
      "outputs": [],
      "stateMutability": "nonpayable",
      "type": "function"
    },
    {
      "inputs": [
        {
          "internalType": "address",
          "name": "playerAddress",
          "type": "address"
        },
        {
          "internalType": "uint256",
          "name": "gameID",
          "type": "uint256"
        },
        {
          "internalType": "string",
          "name": "zone",
          "type": "string"
        }
      ],
      "name": "exitPlayer",
      "outputs": [],
      "stateMutability": "nonpayable",
      "type": "function"
    },
    {
      "inputs": [
        {
          "internalType": "address",
          "name": "gameRegistryAddress",
          "type": "address"
        }
      ],
      "name": "requestNewGame",
      "outputs": [],
      "stateMutability": "nonpayable",
      "type": "function"
    },
    {
      "inputs": [
        {
          "internalType": "uint256",
          "name": "gs",
          "type": "uint256"
        },
        {
          "internalType": "uint256",
          "name": "gameID",
          "type": "uint256"
        }
      ],
      "name": "setGameState",
      "outputs": [],
      "stateMutability": "nonpayable",
      "type": "function"
    },
    {
      "inputs": [
        {
          "internalType": "uint256",
          "name": "randomness",
          "type": "uint256"
        }
      ],
      "name": "setRandomness",
      "outputs": [],
      "stateMutability": "nonpayable",
      "type": "function"
    },
    {
      "inputs": [
        {
          "internalType": "uint256",
          "name": "gameID",
          "type": "uint256"
        }
      ],
      "name": "start",
      "outputs": [],
      "stateMutability": "nonpayable",
      "type": "function"
    },
    {
      "inputs": [
        {
          "internalType": "string",
          "name": "zoneAlias",
          "type": "string"
        },
        {
          "internalType": "enum HexplorationZone.Tile",
          "name": "tile",
          "type": "uint8"
        },
        {
          "internalType": "uint256",
          "name": "gameID",
          "type": "uint256"
        }
      ],
      "name": "enableZone",
      "outputs": [],
      "stateMutability": "nonpayable",
      "type": "function"
    },
    {
      "inputs": [
        {
          "internalType": "string[]",
          "name": "zonePath",
          "type": "string[]"
        },
        {
          "internalType": "address",
          "name": "playerAddress",
          "type": "address"
        },
        {
          "internalType": "uint256",
          "name": "gameID",
          "type": "uint256"
        },
        {
          "internalType": "enum HexplorationZone.Tile[]",
          "name": "tiles",
          "type": "uint8[]"
        }
      ],
      "name": "moveThroughPath",
      "outputs": [],
      "stateMutability": "nonpayable",
      "type": "function"
    }
  ],
  "bytecode": "0x60806040523480156200001157600080fd5b5060405162004ea938038062004ea98339810160408190526200003491620002a8565b83838383836200004f600082640100000000620000c9810204565b620000847f1d93c87416ca7b54f0fb8323167b72760e8e2ec93d48660953897a150f97a8b482640100000000620000c9810204565b50600e92909255600f5560108054600160a060020a03928316600160a060020a031991821617909155601380549490921693169290921790915550620002f392505050565b620000de8282640100000000620000e2810204565b5050565b620000fc828264010000000062002d0f6200012982021704565b600082815260016020526040902062000124908264010000000062002d93620001c582021704565b505050565b6200013e8282640100000000620001ee810204565b620000de57600082815260208181526040808320600160a060020a03851684529091529020805460ff191660011790556200018164010000000062000217810204565b600160a060020a031681600160a060020a0316837f2f8788117e7eff1d82e926ec794901d17c78024a50270940304540a733656f0d60405160405180910390a45050565b6000620001e583600160a060020a0384166401000000006200021b810204565b90505b92915050565b600091825260208281526040808420600160a060020a0393909316845291905290205460ff1690565b3390565b600062000232838364010000000062000273810204565b6200026a57508154600181810184556000848152602080822090930184905584548482528286019093526040902091909155620001e8565b506000620001e8565b60009081526001919091016020526040902054151590565b8051600160a060020a0381168114620002a357600080fd5b919050565b60008060008060808587031215620002bf57600080fd5b620002ca856200028b565b93506020850151925060408501519150620002e8606086016200028b565b905092959194509250565b614ba680620003036000396000f3fe608060405234801561001057600080fd5b506004361061042c5760003560e060020a9004806398bd75721161022f578063cd1ec7f211610134578063d91413ba116100bc578063ed3719a51161008b578063ed3719a514610992578063f643b8fd146109d1578063f8430708146109e4578063fa9f3438146109f7578063fdd198c314610a0a57600080fd5b8063d91413ba14610946578063df793fa814610959578063e5ed1d591461096c578063eb33983d1461097f57600080fd5b8063d2d6756b11610103578063d2d6756b146108cd578063d3fb7289146108ed578063d4f5b1521461090d578063d547741f14610920578063d75e79801461093357600080fd5b8063cd1ec7f214610895578063cefe2329146108aa578063cfdbf254146108bd578063d1e18d26146108c557600080fd5b8063aab2aeb8116101b7578063b9b1ca9a11610186578063b9b1ca9a14610838578063babdeefa1461084b578063c06dea4e1461085e578063ca15c8731461086f578063cca369961461088257600080fd5b8063aab2aeb8146107f0578063ad1def1e14610810578063b2df0ca21461053b578063b40c89df1461082557600080fd5b80639f82bcc0116101fe5780639f82bcc01461079c578063a0ed600d146107af578063a217fddf146107c2578063a4f9c9df146107ca578063a6f979ff146107dd57600080fd5b806398bd7572146107505780639aabe36d146107635780639eb356cb146107765780639f6c40171461078957600080fd5b806335e333e4116103355780636b6ec869116102bd57806384bf09b61161028c57806384bf09b6146106fc5780639010d07c1461070457806391d14854146107175780639230f8791461072a57806395805dad1461073d57600080fd5b80636b6ec869146106b057806372c6c6b6146106c357806376a321c1146106d65780637cc75d1c146106e957600080fd5b80633ca61a58116103045780633ca61a581461064f5780634032b72b146106575780634e0e1a3e1461066a57806351709a731461068a57806360c205001461069d57600080fd5b806335e333e41461060f57806336568abe14610620578063374f1d351461063357806338b145df1461064657600080fd5b80631c834a7f116103b857806329ce1ec51161038757806329ce1ec5146105bb5780632c47669a146105ce5780632f2ff15d146105e157806331e019f6146105f4578063346c94091461060757600080fd5b80631c834a7f1461055d578063248a9ca31461057257806328d7e11a1461059557806329678756146105a857600080fd5b8063108c5e14116103ff578063108c5e14146104ba578063153a7590146104c357806317d7e833146105085780631900601814610528578063194f2a361461053d57600080fd5b806301ffc9a71461043157806304a0fb17146104595780630b197f2e1461047c5780630f04ba67146104a7575b600080fd5b61044461043f366004613c49565b610a1d565b60405190151581526020015b60405180910390f35b61046e600080516020614b3183398151915281565b604051908152602001610450565b60105461048f90600160a060020a031681565b604051600160a060020a039091168152602001610450565b6104446104b5366004613c88565b610a61565b61046e600f5481565b61048f6104d1366004613d96565b60086020908152600092835260409092208151808301840180519281529084019290930191909120915254600160a060020a031681565b61051b610516366004613ddd565b610a7b565b6040516104509190613e57565b61053b610536366004613f6e565b610b34565b005b61055061054b366004613d96565b610c80565b6040516104509190614025565b61046e600080516020614b5183398151915281565b61046e610580366004614086565b60009081526020819052604090206001015490565b61053b6105a336600461409f565b610fc3565b61053b6105b6366004614159565b611060565b61053b6105c9366004613c88565b61107f565b61053b6105dc3660046141ce565b6110a6565b61053b6105ef36600461423b565b6110f3565b61053b61060236600461427f565b61111d565b6104446112b3565b601354600160a060020a031661048f565b61053b61062e36600461423b565b611304565b61051b610641366004614086565b61138f565b61046e600e5481565b6105506113ba565b61053b610665366004613c88565b611493565b61046e610678366004614086565b60046020526000908152604090205481565b61051b610698366004614358565b6114c3565b61053b6106ab366004614086565b611517565b6105506106be366004613d96565b6115a2565b61053b6106d1366004613c88565b6118d2565b61053b6106e4366004613ddd565b611951565b61046e6106f7366004613ddd565b61197b565b61053b6119ac565b61048f610712366004613ddd565b611c4c565b61044461072536600461423b565b611c6b565b61053b610738366004613c88565b611c94565b61053b61074b366004614086565b611ccf565b61053b61075e36600461409f565b611d1d565b61053b610771366004614397565b611d82565b6104446107843660046143c3565b611e15565b61053b610797366004614086565b612262565b61053b6107aa3660046143fb565b61227a565b60145461048f90600160a060020a031681565b61046e600081565b61053b6107d8366004614086565b612336565b61046e6107eb366004614440565b61234e565b61046e6107fe366004614086565b600b6020526000908152604090205481565b61046e600080516020614b1183398151915281565b61051b610833366004614358565b612433565b61053b610846366004613c88565b61246a565b610550610859366004614086565b6124a5565b600254600160a060020a031661048f565b61046e61087d366004614086565b612591565b60155461048f90600160a060020a031681565b61046e600080516020614af183398151915281565b60165461048f90600160a060020a031681565b61046e60c881565b61053b6125a8565b61046e6108db366004614086565b60056020526000908152604090205481565b6109006108fb366004614086565b6126ae565b604051610450919061446e565b61053b61091b366004613c88565b612710565b61053b61092e36600461423b565b612733565b61051b610941366004613ddd565b612758565b61046e6109543660046144b2565b61277c565b61053b610967366004613c88565b6128a0565b61053b61097a366004614086565b6128db565b61051b61098d366004614086565b6128f3565b6104446109a0366004613d96565b6017602090815260009283526040909220815180830184018051928152908401929093019190912091525460ff1681565b61053b6109df36600461453b565b61290c565b61053b6109f236600461464c565b612b0d565b61053b610a053660046146a3565b612c1e565b61053b610a18366004614086565b612cf1565b6000600160e060020a031982167f5a05180f000000000000000000000000000000000000000000000000000000001480610a5b5750610a5b82612da8565b92915050565b6000610a5b600080516020614b3183398151915283611c6b565b60066020528160005260406000208181548110610a9757600080fd5b90600052602060002001600091509150508054610ab3906146e6565b80601f0160208091040260200160405190810160405280929190818152602001828054610adf906146e6565b8015610b2c5780601f10610b0157610100808354040283529160200191610b2c565b820191906000526020600020905b815481529060010190602001808311610b0f57829003601f168201915b505050505081565b600080516020614b11833981519152610b4c81612e0f565b8151845114610ba55760405160e560020a62461bcd02815260206004820181905260248201527f696e70757473202f206f757470757473206c656e677468206d69736d6174636860448201526064015b60405180910390fd5b610bb0868686612e19565b610bff5760405160e560020a62461bcd02815260206004820152600e60248201527f696e7075747320696e76616c69640000000000000000000000000000000000006044820152606401610b9c565b610c0a868484612ebc565b610c595760405160e560020a62461bcd02815260206004820152600f60248201527f6f75747075747320696e76616c696400000000000000000000000000000000006044820152606401610b9c565b60005b8451811015610c775780610c6f8161473d565b915050610c5c565b50505050505050565b60008281526009602052604080822090516060929190610ca1908590614758565b9081526020016040518091039020805480602002602001604051908101604052809291908181526020016000905b82821015610d7b578382906000526020600020018054610cee906146e6565b80601f0160208091040260200160405190810160405280929190818152602001828054610d1a906146e6565b8015610d675780601f10610d3c57610100808354040283529160200191610d67565b820191906000526020600020905b815481529060010190602001808311610d4a57829003601f168201915b505050505081526020019060010190610ccf565b505060008080526009602052604051939450927fec8156718a8372b1db44bb411437d0870f3e3790d4a08526d024ce1b0b668f6b9250610dbd91508690614758565b9081526020016040518091039020805480602002602001604051908101604052809291908181526020016000905b82821015610e97578382906000526020600020018054610e0a906146e6565b80601f0160208091040260200160405190810160405280929190818152602001828054610e36906146e6565b8015610e835780601f10610e5857610100808354040283529160200191610e83565b820191906000526020600020905b815481529060010190602001808311610e6657829003601f168201915b505050505081526020019060010190610deb565b505050509050600082511115610fb757600081518351610eb79190614774565b67ffffffffffffffff811115610ecf57610ecf613ca5565b604051908082528060200260200182016040528015610f0257816020015b6060815260200190600190039081610eed5790505b50905060005b8151811015610fb0578251811015610f5657828181518110610f2c57610f2c61478c565b6020026020010151828281518110610f4657610f4661478c565b6020026020010181905250610f9a565b83835182610f6491906147a5565b81518110610f7457610f7461478c565b6020026020010151828281518110610f8e57610f8e61478c565b60200260200101819052505b8194508080610fa89061473d565b915050610f08565b5050610fbb565b8092505b505092915050565b600080516020614b51833981519152610fdb81612e0f565b6013546040517f28d7e11a000000000000000000000000000000000000000000000000000000008152600160a060020a03909116906328d7e11a90611028908790879087906004016147bc565b600060405180830381600087803b15801561104257600080fd5b505af1158015611056573d6000803e3d6000fd5b5050505050505050565b600080516020614af183398151915261107881612e0f565b5050505050565b600061108a81612e0f565b6110a2600080516020614b3183398151915283612f57565b5050565b600080516020614b118339815191526110be81612e0f565b82518451146110e25760405160e560020a62461bcd028152600401610b9c906147e4565b6110ed848484612f61565b50505050565b60008281526020819052604090206001015461110e81612e0f565b61111883836130c0565b505050565b600080516020614b5183398151915261113581612e0f565b6013548551600160a060020a03909116906328d7e11a908690869089906000906111615761116161478c565b60200260200101516040518463ffffffff1660e060020a02815260040161118a939291906147bc565b600060405180830381600087803b1580156111a457600080fd5b505af11580156111b8573d6000803e3d6000fd5b50506013548751600160a060020a0390911692506398bd757291508690869089906111e5906001906147a5565b815181106111f5576111f561478c565b60200260200101516040518463ffffffff1660e060020a02815260040161121e939291906147bc565b600060405180830381600087803b15801561123857600080fd5b505af115801561124c573d6000803e3d6000fd5b5050505060005b85518110156112ab576112998682815181106112715761127161478c565b602002602001015184838151811061128b5761128b61478c565b602002602001015186612b0d565b806112a38161473d565b915050611253565b505050505050565b6000805b60035481101561130057600381815481106112d4576112d461478c565b90600052602060002001546000146112ee57600191505090565b806112f88161473d565b9150506112b7565b5090565b600160a060020a03811633146113855760405160e560020a62461bcd02815260206004820152602f60248201527f416363657373436f6e74726f6c3a2063616e206f6e6c792072656e6f756e636560448201527f20726f6c657320666f722073656c6600000000000000000000000000000000006064820152608401610b9c565b6110a282826130e2565b6011818154811061139f57600080fd5b906000526020600020016000915090508054610ab3906146e6565b60606011805480602002602001604051908101604052809291908181526020016000905b8282101561148a5783829060005260206000200180546113fd906146e6565b80601f0160208091040260200160405190810160405280929190818152602001828054611429906146e6565b80156114765780601f1061144b57610100808354040283529160200191611476565b820191906000526020600020905b81548152906001019060200180831161145957829003601f168201915b5050505050815260200190600101906113de565b50505050905090565b600080516020614b118339815191526114ab81612e0f565b6110a2600080516020614b5183398151915283612f57565b600960209081526000848152604090208351808501830180519281529083019285019290922091528054829081106114fa57600080fd5b9060005260206000200160009250925050508054610ab3906146e6565b600080516020614b5183398151915261152f81612e0f565b6002546040517f60c2050000000000000000000000000000000000000000000000000000000000815260048101849052600160a060020a03909116906360c2050090602401600060405180830381600087803b15801561158e57600080fd5b505af11580156112ab573d6000803e3d6000fd5b6000828152600a6020526040808220905160609291906115c3908590614758565b9081526020016040518091039020805480602002602001604051908101604052809291908181526020016000905b8282101561169d578382906000526020600020018054611610906146e6565b80601f016020809104026020016040519081016040528092919081815260200182805461163c906146e6565b80156116895780601f1061165e57610100808354040283529160200191611689565b820191906000526020600020905b81548152906001019060200180831161166c57829003601f168201915b5050505050815260200190600101906115f1565b50506000808052600a602052604051939450927f13da86008ba1c6922daee3e07db95305ef49ebced9f5467a0b8613fcc6b343e392506116df91508690614758565b9081526020016040518091039020805480602002602001604051908101604052809291908181526020016000905b828210156117b957838290600052602060002001805461172c906146e6565b80601f0160208091040260200160405190810160405280929190818152602001828054611758906146e6565b80156117a55780601f1061177a576101008083540402835291602001916117a5565b820191906000526020600020905b81548152906001019060200180831161178857829003601f168201915b50505050508152602001906001019061170d565b505050509050600082511115610fb7576000815183516117d99190614774565b67ffffffffffffffff8111156117f1576117f1613ca5565b60405190808252806020026020018201604052801561182457816020015b606081526020019060019003908161180f5790505b50905060005b8151811015610fb05782518110156118785782818151811061184e5761184e61478c565b60200260200101518282815181106118685761186861478c565b60200260200101819052506118bc565b8383518261188691906147a5565b815181106118965761189661478c565b60200260200101518282815181106118b0576118b061478c565b60200260200101819052505b81945080806118ca9061473d565b91505061182a565b600080516020614b518339815191526118ea81612e0f565b81600160a060020a0316630a75806e6040518163ffffffff1660e060020a0281526004016020604051808303816000875af115801561192d573d6000803e3d6000fd5b505050506040513d601f19601f820116820180604052508101906111189190614841565b600080516020614b5183398151915261196981612e0f565b50600090815260046020526040902055565b600d602052816000526040600020818154811061199757600080fd5b90600052602060002001600091509150505481565b6119c4600080516020614b3183398151915233611c6b565b806119e257506119e2600080516020614b1183398151915233611c6b565b611a015760405160e560020a62461bcd028152600401610b9c9061485a565b601154611c4a576000600f54600e54611a1a91906148b7565b67ffffffffffffffff811115611a3257611a32613ca5565b604051908082528060200260200182016040528015611a5b578160200160208202803683370190505b50600f54600e546040517f9f6b56490000000000000000000000000000000000000000000000000000000081526004810192909252602482015290915073__XYCoordinates_________________________90639f6b564990604401600060405180830381865af4158015611ad4573d6000803e3d6000fd5b505050506040513d6000823e601f3d908101601f19168201604052611afc91908101906148d6565b8051611b1091601191602090910190613b04565b5060005b8151811015611b6a576010548251600160a060020a0390911690839083908110611b4057611b4061478c565b600160a060020a039092166020928302919091019091015280611b628161473d565b915050611b14565b50611c48816011805480602002602001604051908101604052809291908181526020016000905b82821015611c3d578382906000526020600020018054611bb0906146e6565b80601f0160208091040260200160405190810160405280929190818152602001828054611bdc906146e6565b8015611c295780601f10611bfe57610100808354040283529160200191611c29565b820191906000526020600020905b815481529060010190602001808311611c0c57829003601f168201915b505050505081526020019060010190611b91565b505050506000612f61565b505b565b6000828152600160205260408120611c649083613104565b9392505050565b600091825260208281526040808420600160a060020a0393909316845291905290205460ff1690565b6000611c9f81612e0f565b506014805473ffffffffffffffffffffffffffffffffffffffff1916600160a060020a0392909216919091179055565b600080516020614b51833981519152611ce781612e0f565b50600380546001810182556000919091527fc2575a0e9e593c00f959f8c92f12db2869c3395a3b0502d05e2516446f71f85b0155565b600080516020614b51833981519152611d3581612e0f565b6013546040517f98bd7572000000000000000000000000000000000000000000000000000000008152600160a060020a03909116906398bd757290611028908790879087906004016147bc565b600080516020614b51833981519152611d9a81612e0f565b6002546040517f9aabe36d000000000000000000000000000000000000000000000000000000008152600160a060020a0385811660048301526024820185905290911690639aabe36d90604401600060405180830381600087803b158015611e0157600080fd5b505af1158015610c77573d6000803e3d6000fd5b6002546040517fbca7caa000000000000000000000000000000000000000000000000000000000815260048101859052600160a060020a038481166024830152600092839291169063bca7caa090604401602060405180830381865afa158015611e83573d6000803e3d6000fd5b505050506040513d601f19601f82011682018060405250810190611ea79190614841565b6000868152600c60209081526040808320848452909152812080549293509091611ed0906146e6565b80601f0160208091040260200160405190810160405280929190818152602001828054611efc906146e6565b8015611f495780601f10611f1e57610100808354040283529160200191611f49565b820191906000526020600020905b815481529060010190602001808311611f2c57829003601f168201915b505050505090506000611f5c87836115a2565b805190915080611fb15760405160e560020a62461bcd02815260206004820152601760248201527f4e6f206578697420706174687320617661696c61626c650000000000000000006044820152606401610b9c565b60008881526008602052604080822090519196508691611fd2908690614758565b90815260405190819003602001902054600160a060020a031690506000828811611ffc5787611fff565b60005b905060008482815181106120155761201561478c565b602002602001015190506000600860008d8152602001908152602001600020826040516120429190614758565b908152602001604051809103902060009054906101000a9004600160a060020a0316905083600160a060020a0316637caf12808c8e8a6040518463ffffffff1660e060020a028152600401612099939291906147bc565b602060405180830381865afa1580156120b6573d6000803e3d6000fd5b505050506040513d601f19601f820116820180604052508101906120da91906149c0565b8015612155575080600160a060020a031663e15b3ad08c8e856040518463ffffffff1660e060020a028152600401612114939291906147bc565b602060405180830381865afa158015612131573d6000803e3d6000fd5b505050506040513d601f19601f8201168201806040525081019061215591906149c0565b156122535783600160a060020a03166328d7e11a8c8e8a6040518463ffffffff1660e060020a02815260040161218d939291906147bc565b600060405180830381600087803b1580156121a757600080fd5b505af11580156121bb573d6000803e3d6000fd5b5050505080600160a060020a03166398bd75728c8e856040518463ffffffff1660e060020a0281526004016121f2939291906147bc565b600060405180830381600087803b15801561220c57600080fd5b505af1158015612220573d6000803e3d6000fd5b50505060008d8152600c602090815260408083208c84528252909120845161224d93509091850190613b5d565b50600198505b50505050505050509392505050565b600080516020614b518339815191526110a281612e0f565b600080516020614b5183398151915261229281612e0f565b600082815260046020526040902054156123175760405160e560020a62461bcd02815260206004820152602c60248201527f63616e27742073657420696e697469616c207a6f6e652c2067616d6520616c7260448201527f65616479207374617274656400000000000000000000000000000000000000006064820152608401610b9c565b600082815260076020908152604090912084516110ed92860190613b5d565b600080516020614af18339815191526110a281612e0f565b6000612368600080516020614b3183398151915233611c6b565b806123865750612386600080516020614b1183398151915233611c6b565b6123a55760405160e560020a62461bcd028152600401610b9c9061485a565b82600260006101000a815481600160a060020a030219169083600160a060020a0316021790555081600160a060020a0316630a75806e6040518163ffffffff1660e060020a0281526004016020604051808303816000875af115801561240f573d6000803e3d6000fd5b505050506040513d601f19601f82011682018060405250810190611c649190614841565b600a60209081526000848152604090208351808501830180519281529083019285019290922091528054829081106114fa57600080fd5b600061247581612e0f565b506016805473ffffffffffffffffffffffffffffffffffffffff1916600160a060020a0392909216919091179055565b606060066000838152602001908152602001600020805480602002602001604051908101604052809291908181526020016000905b828210156125865783829060005260206000200180546124f9906146e6565b80601f0160208091040260200160405190810160405280929190818152602001828054612525906146e6565b80156125725780601f1061254757610100808354040283529160200191612572565b820191906000526020600020905b81548152906001019060200180831161255557829003601f168201915b5050505050815260200190600101906124da565b505050509050919050565b6000818152600160205260408120610a5b90613110565b600080516020614b518339815191526125c081612e0f565b60008060005b60035481101561262f57600381815481106125e3576125e361478c565b906000526020600020015460001461261d57600381815481106126085761260861478c565b9060005260206000200154925080915061262f565b806126278161473d565b9150506125c6565b506000828152600460205260409020546126515761264c8261311a565b612671565b6000828152600460205260409020546001141561267157612671826131a5565b600082815260046020526040902054600110156111185760006003828154811061269d5761269d61478c565b600091825260209091200155505050565b6000818152600d602090815260409182902080548351818402810184019094528084526060939283018282801561270457602002820191906000526020600020905b8154815260200190600101908083116126f0575b50505050509050919050565b600061271b81612e0f565b6110a2600080516020614b51833981519152836110f3565b60008281526020819052604090206001015461274e81612e0f565b61111883836130e2565b600c60209081526000928352604080842090915290825290208054610ab3906146e6565b6000612796600080516020614b3183398151915233611c6b565b806127b457506127b4600080516020614b1183398151915233611c6b565b6127d35760405160e560020a62461bcd028152600401610b9c9061485a565b81518351146127f75760405160e560020a62461bcd028152600401610b9c906147e4565b82511561280957612809838383612f61565b84600260006101000a815481600160a060020a030219169083600160a060020a0316021790555083600160a060020a0316630a75806e6040518163ffffffff1660e060020a0281526004016020604051808303816000875af1158015612873573d6000803e3d6000fd5b505050506040513d601f19601f820116820180604052508101906128979190614841565b95945050505050565b60006128ab81612e0f565b506015805473ffffffffffffffffffffffffffffffffffffffff1916600160a060020a0392909216919091179055565b600080516020614b11833981519152611ce781612e0f565b60076020526000908152604090208054610ab3906146e6565b600080516020614b1183398151915261292481612e0f565b61292e838361355e565b61297d5760405160e560020a62461bcd02815260206004820152601a60248201527f6e6f7420616c6c207a6f6e6520696e64656365732076616c69640000000000006044820152606401610b9c565b60005b82518110156110ed576000848152600a6020526040902083518490839081106129ab576129ab61478c565b60200260200101516000600281106129c5576129c561478c565b60200201516040516129d79190614758565b90815260200160405180910390208382815181106129f7576129f761478c565b6020026020010151600160028110612a1157612a1161478c565b6020908102919091015182546001810184556000938452928290208151612a419491909101929190910190613b5d565b5060008481526009602052604090208351849083908110612a6457612a6461478c565b6020026020010151600160028110612a7e57612a7e61478c565b6020020151604051612a909190614758565b9081526020016040518091039020838281518110612ab057612ab061478c565b6020026020010151600060028110612aca57612aca61478c565b6020908102919091015182546001810184556000938452928290208151612afa9491909101929190910190613b5d565b5080612b058161473d565b915050612980565b600080516020614b51833981519152612b2581612e0f565b600082815260176020526040908190209051612b42908690614758565b9081526040519081900360200190205460ff166110ed576013546040517fd4939609000000000000000000000000000000000000000000000000000000008152600160a060020a039091169063d493960990612ba6908690869089906004016149e2565b600060405180830381600087803b158015612bc057600080fd5b505af1158015612bd4573d6000803e3d6000fd5b50505060008381526017602052604090819020905160019250612bf8908790614758565b908152604051908190036020019020805491151560ff1990921691909117905550505050565b600080516020614af1833981519152612c3681612e0f565b6002546040517fbca7caa000000000000000000000000000000000000000000000000000000000815260048101869052600160a060020a038581166024830152600092169063bca7caa090604401602060405180830381865afa158015612ca1573d6000803e3d6000fd5b505050506040513d601f19601f82011682018060405250810190612cc59190614841565b6000868152600c60209081526040808320848452825290912085519293506112ab929091860190613b5d565b600080516020614b51833981519152612d0981612e0f565b50601255565b612d198282611c6b565b6110a257600082815260208181526040808320600160a060020a03851684529091529020805460ff19166001179055612d4f3390565b600160a060020a031681600160a060020a0316837f2f8788117e7eff1d82e926ec794901d17c78024a50270940304540a733656f0d60405160405180910390a45050565b6000611c6483600160a060020a03841661366d565b6000600160e060020a031982167f7965db0b000000000000000000000000000000000000000000000000000000001480610a5b57507f01ffc9a700000000000000000000000000000000000000000000000000000000600160e060020a0319831614610a5b565b611c4881336136bc565b600160005b8251811015612eb457828181518110612e3957612e3961478c565b60200260200101516001612e4d9190614774565b60008681526009602052604090208551869084908110612e6f57612e6f61478c565b6020026020010151604051612e849190614758565b9081526040519081900360200190205410612ea25760009150612eb4565b80612eac8161473d565b915050612e1e565b509392505050565b600160005b8251811015612eb457828181518110612edc57612edc61478c565b60200260200101516001612ef09190614774565b6000868152600a602052604090208551869084908110612f1257612f1261478c565b6020026020010151604051612f279190614758565b9081526040519081900360200190205410612f455760009150612eb4565b80612f4f8161473d565b915050612ec1565b6110a282826130c0565b60005b83518110156110ed5760008281526006602052604090208351849083908110612f8f57612f8f61478c565b60209081029190910181015182546001810184556000938452928290208151612fc19491909101929190910190613b5d565b50838181518110612fd457612fd461478c565b6020026020010151600860008481526020019081526020016000208483815181106130015761300161478c565b60200260200101516040516130169190614758565b908152602001604051809103902060006101000a815481600160a060020a030219169083600160a060020a03160217905550613079600080516020614af183398151915285838151811061306c5761306c61478c565b6020026020010151611c6b565b6130ae576130ae600080516020614af18339815191528583815181106130a1576130a161478c565b6020026020010151612f57565b806130b88161473d565b915050612f64565b6130ca8282612d0f565b60008281526001602052604090206111189082612d93565b6130ec8282613723565b60008281526001602052604090206111189082613788565b6000611c64838361379d565b6000610a5b825490565b6002546040517f60c2050000000000000000000000000000000000000000000000000000000000815260048101839052600160a060020a03909116906360c2050090602401600060405180830381600087803b15801561317957600080fd5b505af115801561318d573d6000803e3d6000fd5b50505060009182525060046020526040902060019055565b600081815260076020526040812080546131be906146e6565b151590506131f457600082815260066020526040812080549091906131e5576131e561478c565b90600052602060002001613203565b60008281526007602052604090205b805461320e906146e6565b80601f016020809104026020016040519081016040528092919081815260200182805461323a906146e6565b80156132875780601f1061325c57610100808354040283529160200191613287565b820191906000526020600020905b81548152906001019060200180831161326a57829003601f168201915b50505050509050600060086000848152602001908152602001600020826040516132b19190614758565b90815260405190819003602001902054600160a060020a031690508060005b6002546040517fb77ff41100000000000000000000000000000000000000000000000000000000815260048101879052600160a060020a039091169063b77ff41190602401602060405180830381865afa158015613332573d6000803e3d6000fd5b505050506040513d601f19601f820116820180604052508101906133569190614841565b81101561354657600061336a826001614774565b6002546040517ff50432540000000000000000000000000000000000000000000000000000000081526004810189905260248101839052919250600091600160a060020a039091169063f504325490604401602060405180830381865afa1580156133d9573d6000803e3d6000fd5b505050506040513d601f19601f820116820180604052508101906133fd9190614a22565b6040517fe15b3ad0000000000000000000000000000000000000000000000000000000008152909150600160a060020a0385169063e15b3ad0906134499084908b908b906004016147bc565b602060405180830381865afa158015613466573d6000803e3d6000fd5b505050506040513d601f19601f8201168201806040525081019061348a91906149c0565b1561350f576040517f98bd7572000000000000000000000000000000000000000000000000000000008152600160a060020a038516906398bd7572906134d89084908b908b906004016147bc565b600060405180830381600087803b1580156134f257600080fd5b505af1158015613506573d6000803e3d6000fd5b50505050613531565b6000878152600d60209081526040822080546001810182559083529120018290555b5050808061353e9061473d565b9150506132d0565b50505060009182525060046020526040902060029055565b6000805b82518110156136665760008481526008602052604081208451600194508590849081106135915761359161478c565b60200260200101516000600281106135ab576135ab61478c565b60200201516040516135bd9190614758565b90815260405190819003602001902054600160a060020a031614806136465750600084815260086020526040812084518590849081106135ff576135ff61478c565b60200260200101516001600281106136195761361961478c565b602002015160405161362b9190614758565b90815260405190819003602001902054600160a060020a0316145b156136545760009150613666565b8061365e8161473d565b915050613562565b5092915050565b60008181526001830160205260408120546136b457508154600181810184556000848152602080822090930184905584548482528286019093526040902091909155610a5b565b506000610a5b565b6136c68282611c6b565b6110a2576136de81600160a060020a031660146137c7565b6136e98360206137c7565b6040516020016136fa929190614a3f565b60408051601f198184030181529082905260e560020a62461bcd028252610b9c91600401613e57565b61372d8282611c6b565b156110a257600082815260208181526040808320600160a060020a0385168085529252808320805460ff1916905551339285917ff6391f5c32d9c69d2a47ea670b442974b53935d1edc7fd64eb21e047a839171b9190a45050565b6000611c6483600160a060020a038416613a11565b60008260000182815481106137b4576137b461478c565b9060005260206000200154905092915050565b606060006137d68360026148b7565b6137e1906002614774565b67ffffffffffffffff8111156137f9576137f9613ca5565b6040519080825280601f01601f191660200182016040528015613823576020820181803683370190505b5090507f30000000000000000000000000000000000000000000000000000000000000008160008151811061385a5761385a61478c565b60200101907effffffffffffffffffffffffffffffffffffffffffffffffffffffffffffff1916908160001a9053507f7800000000000000000000000000000000000000000000000000000000000000816001815181106138bd576138bd61478c565b60200101907effffffffffffffffffffffffffffffffffffffffffffffffffffffffffffff1916908160001a90535060006138f98460026148b7565b613904906001614774565b90505b60018111156139bf577f303132333435363738396162636465660000000000000000000000000000000085600f16601081106139455761394561478c565b1a7f01000000000000000000000000000000000000000000000000000000000000000282828151811061397a5761397a61478c565b60200101907effffffffffffffffffffffffffffffffffffffffffffffffffffffffffffff1916908160001a9053506010909404936139b881614ac0565b9050613907565b508315611c645760405160e560020a62461bcd02815260206004820181905260248201527f537472696e67733a20686578206c656e67746820696e73756666696369656e746044820152606401610b9c565b60008181526001830160205260408120548015613afa576000613a356001836147a5565b8554909150600090613a49906001906147a5565b9050818114613aae576000866000018281548110613a6957613a6961478c565b9060005260206000200154905080876000018481548110613a8c57613a8c61478c565b6000918252602080832090910192909255918252600188019052604090208390555b8554869080613abf57613abf614ad7565b600190038181906000526020600020016000905590558560010160008681526020019081526020016000206000905560019350505050610a5b565b6000915050610a5b565b828054828255906000526020600020908101928215613b51579160200282015b82811115613b515782518051613b41918491602090910190613b5d565b5091602001919060010190613b24565b50611300929150613bdd565b828054613b69906146e6565b90600052602060002090601f016020900481019282613b8b5760008555613bd1565b82601f10613ba457805160ff1916838001178555613bd1565b82800160010185558215613bd1579182015b82811115613bd1578251825591602001919060010190613bb6565b50611300929150613bfa565b80821115611300576000613bf18282613c0f565b50600101613bdd565b5b808211156113005760008155600101613bfb565b508054613c1b906146e6565b6000825580601f10613c2b575050565b601f016020900490600052602060002090810190611c489190613bfa565b600060208284031215613c5b57600080fd5b8135600160e060020a031981168114611c6457600080fd5b600160a060020a0381168114611c4857600080fd5b600060208284031215613c9a57600080fd5b8135611c6481613c73565b60e060020a634e487b7102600052604160045260246000fd5b6040805190810167ffffffffffffffff81118282101715613ce157613ce1613ca5565b60405290565b604051601f8201601f1916810167ffffffffffffffff81118282101715613d1057613d10613ca5565b604052919050565b600067ffffffffffffffff821115613d3257613d32613ca5565b50601f01601f191660200190565b600082601f830112613d5157600080fd5b8135613d64613d5f82613d18565b613ce7565b818152846020838601011115613d7957600080fd5b816020850160208301376000918101602001919091529392505050565b60008060408385031215613da957600080fd5b82359150602083013567ffffffffffffffff811115613dc757600080fd5b613dd385828601613d40565b9150509250929050565b60008060408385031215613df057600080fd5b50508035926020909101359150565b60005b83811015613e1a578181015183820152602001613e02565b838111156110ed5750506000910152565b60008151808452613e43816020860160208601613dff565b601f01601f19169290920160200192915050565b602081526000611c646020830184613e2b565b600067ffffffffffffffff821115613e8457613e84613ca5565b5060209081020190565b600082601f830112613e9f57600080fd5b81356020613eaf613d5f83613e6a565b82815291810284018101918181019086841115613ecb57600080fd5b8286015b84811015613f0b57803567ffffffffffffffff811115613eef5760008081fd5b613efd8986838b0101613d40565b845250918301918301613ecf565b509695505050505050565b600082601f830112613f2757600080fd5b81356020613f37613d5f83613e6a565b82815291810284018101918181019086841115613f5357600080fd5b8286015b84811015613f0b5780358352918301918301613f57565b600080600080600060a08688031215613f8657600080fd5b85359450602086013567ffffffffffffffff80821115613fa557600080fd5b613fb189838a01613e8e565b95506040880135915080821115613fc757600080fd5b613fd389838a01613f16565b94506060880135915080821115613fe957600080fd5b613ff589838a01613e8e565b9350608088013591508082111561400b57600080fd5b5061401888828901613f16565b9150509295509295909350565b600060208083018184528085518083526040860191506040848202870101925083870160005b8281101561407957603f19888603018452614067858351613e2b565b9450928501929085019060010161404b565b5092979650505050505050565b60006020828403121561409857600080fd5b5035919050565b6000806000606084860312156140b457600080fd5b83356140bf81613c73565b925060208401359150604084013567ffffffffffffffff8111156140e257600080fd5b6140ee86828701613d40565b9150509250925092565b600082601f83011261410957600080fd5b81356020614119613d5f83613e6a565b8281529181028401810191818101908684111561413557600080fd5b8286015b84811015613f0b57803561414c81613c73565b8352918301918301614139565b6000806000806080858703121561416f57600080fd5b84359350602085013567ffffffffffffffff8082111561418e57600080fd5b61419a888389016140f8565b945060408701359150808211156141b057600080fd5b506141bd87828801613f16565b949793965093946060013593505050565b6000806000606084860312156141e357600080fd5b833567ffffffffffffffff808211156141fb57600080fd5b614207878388016140f8565b9450602086013591508082111561421d57600080fd5b5061422a86828701613e8e565b925050604084013590509250925092565b6000806040838503121561424e57600080fd5b82359150602083013561426081613c73565b809150509250929050565b8035600c811061427a57600080fd5b919050565b6000806000806080858703121561429557600080fd5b843567ffffffffffffffff808211156142ad57600080fd5b6142b988838901613e8e565b955060209150818701356142cc81613c73565b9450604087013593506060870135818111156142e757600080fd5b87019050601f810188136142fa57600080fd5b8035614308613d5f82613e6a565b8181529083028201830190838101908a83111561432457600080fd5b928401925b828410156143495761433a8461426b565b82529284019290840190614329565b979a9699509497505050505050565b60008060006060848603121561436d57600080fd5b83359250602084013567ffffffffffffffff81111561438b57600080fd5b61422a86828701613d40565b600080604083850312156143aa57600080fd5b82356143b581613c73565b946020939093013593505050565b6000806000606084860312156143d857600080fd5b8335925060208401356143ea81613c73565b929592945050506040919091013590565b6000806040838503121561440e57600080fd5b823567ffffffffffffffff81111561442557600080fd5b61443185828601613d40565b95602094909401359450505050565b6000806040838503121561445357600080fd5b823561445e81613c73565b9150602083013561426081613c73565b6020808252825182820181905260009190848201906040850190845b818110156144a65783518352928401929184019160010161448a565b50909695505050505050565b600080600080608085870312156144c857600080fd5b84356144d381613c73565b935060208501356144e381613c73565b9250604085013567ffffffffffffffff8082111561450057600080fd5b61450c888389016140f8565b9350606087013591508082111561452257600080fd5b5061452f87828801613e8e565b91505092959194509250565b6000806040838503121561454e57600080fd5b8235915060208084013567ffffffffffffffff8082111561456e57600080fd5b818601915086601f83011261458257600080fd5b8135614590613d5f82613e6a565b818152908402830184019084810190898311156145ac57600080fd5b8585015b8381101561463b5784813511156145c657600080fd5b803586018b603f8201126145d957600080fd5b6145e1613cbe565b808d6060840111156145f257600080fd5b8983015b6060840181101561462b57888135111561460f57600080fd5b61461e8f8c8335870101613d40565b8352918a01918a016145f6565b50855250509186019186016145b0565b508096505050505050509250929050565b60008060006060848603121561466157600080fd5b833567ffffffffffffffff81111561467857600080fd5b61468486828701613d40565b9350506146936020850161426b565b9150604084013590509250925092565b6000806000606084860312156146b857600080fd5b8335925060208401356146ca81613c73565b9150604084013567ffffffffffffffff8111156140e257600080fd5b6002810460018216806146fa57607f821691505b6020821081141561471e5760e060020a634e487b7102600052602260045260246000fd5b50919050565b60e060020a634e487b7102600052601160045260246000fd5b600060001982141561475157614751614724565b5060010190565b6000825161476a818460208701613dff565b9190910192915050565b6000821982111561478757614787614724565b500190565b60e060020a634e487b7102600052603260045260246000fd5b6000828210156147b7576147b7614724565b500390565b600160a060020a03841681528260208201526060604082015260006128976060830184613e2b565b60208082526025908201527f616464726573736573202620616c696173657320646966666572656e74206c6560408201527f6e67746873000000000000000000000000000000000000000000000000000000606082015260800190565b60006020828403121561485357600080fd5b5051919050565b60208082526024908201527f47616d65204d6173746572206f7220466163746f727920726f6c65207265717560408201527f6972656400000000000000000000000000000000000000000000000000000000606082015260800190565b60008160001904831182151516156148d1576148d1614724565b500290565b600060208083850312156148e957600080fd5b825167ffffffffffffffff8082111561490157600080fd5b818501915085601f83011261491557600080fd5b8151614923613d5f82613e6a565b8181529084028301840190848101908883111561493f57600080fd5b8585015b838110156149b35780518581111561495b5760008081fd5b8601603f81018b1361496d5760008081fd5b87810151604061497f613d5f83613d18565b8281528d828486010111156149945760008081fd5b6149a3838c8301848701613dff565b8652505050918601918601614943565b5098975050505050505050565b6000602082840312156149d257600080fd5b81518015158114611c6457600080fd5b6000600c8510614a055760e060020a634e487b7102600052602160045260246000fd5b848252836020830152606060408301526128976060830184613e2b565b600060208284031215614a3457600080fd5b8151611c6481613c73565b7f416363657373436f6e74726f6c3a206163636f756e7420000000000000000000815260008351614a77816017850160208801613dff565b7f206973206d697373696e6720726f6c65200000000000000000000000000000006017918401918201528351614ab4816028840160208801613dff565b01602801949350505050565b600081614acf57614acf614724565b506000190190565b60e060020a634e487b7102600052603160045260246000fdfe72b06b67826def9fabb513b23f7e5eb74f7ece26d25dad4006546ecf4a13763d1d93c87416ca7b54f0fb8323167b72760e8e2ec93d48660953897a150f97a8b4dfbefbf47cfe66b701d8cfdbce1de81c821590819cb07e71cb01b6602fb0ee2780e2196015fc06a9d891759f8e4f51eb314ef5e9ea068528a8ed0063b87759f0a2646970667358221220cceca3e38b8871b838f0dd287e2d7a49e249627ef5f34efb0d3e46c0d9d2c95064736f6c634300080b0033",
  "immutableReferences": {},
  "source": "// SPDX-License-Identifier: GPL-3.0\npragma solidity >=0.7.0 <0.9.0;\n\nimport \"@luckymachines/game-core/contracts/src/v0.0/custom_boards/HexGrid.sol\";\nimport \"./HexplorationZone.sol\";\n\ncontract HexplorationBoard is HexGrid {\n    // This role is a hybrid controller, assumes on chain verification of moves before submission\n\n    uint256 private _randomness;\n    HexplorationZone internal HEX_ZONE;\n    address public characterCard;\n    address public tokenInventory;\n    address public gameplayQueue;\n    // game ID => zone alias returns bool\n    mapping(uint256 => mapping(string => bool)) public zoneEnabled;\n\n    constructor(\n        address adminAddress,\n        uint256 gridWidth,\n        uint256 gridHeight,\n        address zoneAddress\n    ) HexGrid(adminAddress, gridWidth, gridHeight, zoneAddress) {\n        HEX_ZONE = HexplorationZone(zoneAddress);\n    }\n\n    function hexZoneAddress() public view returns (address) {\n        return address(HEX_ZONE);\n    }\n\n    // VERIFIED CONTROLLER functions\n    // We can assume these have been pre-verified\n    function setCharacterCard(address characterCardAddress)\n        public\n        onlyRole(DEFAULT_ADMIN_ROLE)\n    {\n        characterCard = characterCardAddress;\n    }\n\n    function setTokenInventory(address tokenInventoryAddress)\n        public\n        onlyRole(DEFAULT_ADMIN_ROLE)\n    {\n        tokenInventory = tokenInventoryAddress;\n    }\n\n    function setGameplayQueue(address gameplayQueueAddress)\n        public\n        onlyRole(DEFAULT_ADMIN_ROLE)\n    {\n        gameplayQueue = gameplayQueueAddress;\n    }\n\n    function registerPlayer(address playerAddress, uint256 gameID)\n        public\n        onlyRole(VERIFIED_CONTROLLER_ROLE)\n    {\n        PLAYER_REGISTRY.registerPlayer(playerAddress, gameID);\n    }\n\n    function lockRegistration(uint256 gameID)\n        public\n        onlyRole(VERIFIED_CONTROLLER_ROLE)\n    {\n        PLAYER_REGISTRY.lockRegistration(gameID);\n    }\n\n    function enterPlayer(\n        address playerAddress,\n        uint256 gameID,\n        string memory zone\n    ) external onlyRole(VERIFIED_CONTROLLER_ROLE) {\n        HEX_ZONE.enterPlayer(playerAddress, gameID, zone);\n    }\n\n    function exitPlayer(\n        address playerAddress,\n        uint256 gameID,\n        string memory zone\n    ) external onlyRole(VERIFIED_CONTROLLER_ROLE) {\n        HEX_ZONE.exitPlayer(playerAddress, gameID, zone);\n    }\n\n    function requestNewGame(address gameRegistryAddress)\n        external\n        onlyRole(VERIFIED_CONTROLLER_ROLE)\n    {\n        GameRegistry(gameRegistryAddress).registerGame();\n    }\n\n    function setGameState(uint256 gs, uint256 gameID)\n        external\n        onlyRole(VERIFIED_CONTROLLER_ROLE)\n    {\n        // 0 start\n        // 1 inititalizing\n        // 2 initialized\n        gameState[gameID] = gs;\n    }\n\n    function setRandomness(uint256 randomness)\n        external\n        onlyRole(VERIFIED_CONTROLLER_ROLE)\n    {\n        _randomness = randomness;\n    }\n\n    function start(uint256 gameID) public onlyRole(VERIFIED_CONTROLLER_ROLE) {\n        _gamesNeedUpdates.push(gameID);\n    }\n\n    function enableZone(\n        string memory zoneAlias,\n        HexplorationZone.Tile tile,\n        uint256 gameID\n    ) public onlyRole(VERIFIED_CONTROLLER_ROLE) {\n        if (!zoneEnabled[gameID][zoneAlias]) {\n            HEX_ZONE.setTile(tile, gameID, zoneAlias);\n            zoneEnabled[gameID][zoneAlias] = true;\n        }\n    }\n\n    // pass path and what tiles should be\n    // pass current zone as first argument\n    function moveThroughPath(\n        string[] memory zonePath,\n        address playerAddress,\n        uint256 gameID,\n        HexplorationZone.Tile[] memory tiles\n    ) external onlyRole(VERIFIED_CONTROLLER_ROLE) {\n        HEX_ZONE.exitPlayer(playerAddress, gameID, zonePath[0]);\n        HEX_ZONE.enterPlayer(\n            playerAddress,\n            gameID,\n            zonePath[zonePath.length - 1]\n        );\n        for (uint256 i = 0; i < zonePath.length; i++) {\n            enableZone(zonePath[i], tiles[i], gameID);\n        }\n    }\n}\n",
  "sourcePath": "/Users/maxmeier/Developer/Lucky Machines/hexploration/contracts/HexplorationBoard.sol",
  "compiler": {
    "name": "solc",
    "version": "0.8.11+commit.d7f03943.Emscripten.clang"
  },
  "schemaVersion": "3.4.4",
  "updatedAt": "2022-05-19T02:19:48.722Z",
  "networkType": "ethereum",
  "devdoc": {
    "kind": "dev",
    "methods": {
      "getRoleAdmin(bytes32)": {
        "details": "Returns the admin role that controls `role`. See {grantRole} and {revokeRole}. To change a role's admin, use {_setRoleAdmin}."
      },
      "getRoleMember(bytes32,uint256)": {
        "details": "Returns one of the accounts that have `role`. `index` must be a value between 0 and {getRoleMemberCount}, non-inclusive. Role bearers are not sorted in any particular way, and their ordering may change at any point. WARNING: When using {getRoleMember} and {getRoleMemberCount}, make sure you perform all queries on the same block. See the following https://forum.openzeppelin.com/t/iterating-over-elements-on-enumerableset-in-openzeppelin-contracts/2296[forum post] for more information."
      },
      "getRoleMemberCount(bytes32)": {
        "details": "Returns the number of accounts that have `role`. Can be used together with {getRoleMember} to enumerate all bearers of a role."
      },
      "grantRole(bytes32,address)": {
        "details": "Grants `role` to `account`. If `account` had not been already granted `role`, emits a {RoleGranted} event. Requirements: - the caller must have ``role``'s admin role."
      },
      "hasRole(bytes32,address)": {
        "details": "Returns `true` if `account` has been granted `role`."
      },
      "renounceRole(bytes32,address)": {
        "details": "Revokes `role` from the calling account. Roles are often managed via {grantRole} and {revokeRole}: this function's purpose is to provide a mechanism for accounts to lose their privileges if they are compromised (such as when a trusted device is misplaced). If the calling account had been revoked `role`, emits a {RoleRevoked} event. Requirements: - the caller must be `account`."
      },
      "revokeRole(bytes32,address)": {
        "details": "Revokes `role` from `account`. If `account` had been granted `role`, emits a {RoleRevoked} event. Requirements: - the caller must have ``role``'s admin role."
      },
      "supportsInterface(bytes4)": {
        "details": "See {IERC165-supportsInterface}."
      }
    },
    "version": 1
  },
  "userdoc": {
    "kind": "user",
    "methods": {},
    "version": 1
  }
}