{
  "contractName": "HexplorationQueue",
  "abi": [
    {
      "inputs": [],
      "stateMutability": "nonpayable",
      "type": "constructor"
    },
    {
      "anonymous": false,
      "inputs": [
        {
          "indexed": true,
          "internalType": "bytes32",
          "name": "role",
          "type": "bytes32"
        },
        {
          "indexed": true,
          "internalType": "bytes32",
          "name": "previousAdminRole",
          "type": "bytes32"
        },
        {
          "indexed": true,
          "internalType": "bytes32",
          "name": "newAdminRole",
          "type": "bytes32"
        }
      ],
      "name": "RoleAdminChanged",
      "type": "event"
    },
    {
      "anonymous": false,
      "inputs": [
        {
          "indexed": true,
          "internalType": "bytes32",
          "name": "role",
          "type": "bytes32"
        },
        {
          "indexed": true,
          "internalType": "address",
          "name": "account",
          "type": "address"
        },
        {
          "indexed": true,
          "internalType": "address",
          "name": "sender",
          "type": "address"
        }
      ],
      "name": "RoleGranted",
      "type": "event"
    },
    {
      "anonymous": false,
      "inputs": [
        {
          "indexed": true,
          "internalType": "bytes32",
          "name": "role",
          "type": "bytes32"
        },
        {
          "indexed": true,
          "internalType": "address",
          "name": "account",
          "type": "address"
        },
        {
          "indexed": true,
          "internalType": "address",
          "name": "sender",
          "type": "address"
        }
      ],
      "name": "RoleRevoked",
      "type": "event"
    },
    {
      "inputs": [],
      "name": "DEFAULT_ADMIN_ROLE",
      "outputs": [
        {
          "internalType": "bytes32",
          "name": "",
          "type": "bytes32"
        }
      ],
      "stateMutability": "view",
      "type": "function"
    },
    {
      "inputs": [],
      "name": "GAMEPLAY_ROLE",
      "outputs": [
        {
          "internalType": "bytes32",
          "name": "",
          "type": "bytes32"
        }
      ],
      "stateMutability": "view",
      "type": "function"
    },
    {
      "inputs": [],
      "name": "VERIFIED_CONTROLLER_ROLE",
      "outputs": [
        {
          "internalType": "bytes32",
          "name": "",
          "type": "bytes32"
        }
      ],
      "stateMutability": "view",
      "type": "function"
    },
    {
      "inputs": [
        {
          "internalType": "uint256",
          "name": "",
          "type": "uint256"
        }
      ],
      "name": "currentPhase",
      "outputs": [
        {
          "internalType": "enum HexplorationQueue.ProcessingPhase",
          "name": "",
          "type": "uint8"
        }
      ],
      "stateMutability": "view",
      "type": "function"
    },
    {
      "inputs": [
        {
          "internalType": "uint256",
          "name": "",
          "type": "uint256"
        }
      ],
      "name": "currentQueuePosition",
      "outputs": [
        {
          "internalType": "uint16",
          "name": "",
          "type": "uint16"
        }
      ],
      "stateMutability": "view",
      "type": "function"
    },
    {
      "inputs": [
        {
          "internalType": "uint256",
          "name": "",
          "type": "uint256"
        }
      ],
      "name": "game",
      "outputs": [
        {
          "internalType": "uint256",
          "name": "",
          "type": "uint256"
        }
      ],
      "stateMutability": "view",
      "type": "function"
    },
    {
      "inputs": [
        {
          "internalType": "bytes32",
          "name": "role",
          "type": "bytes32"
        }
      ],
      "name": "getRoleAdmin",
      "outputs": [
        {
          "internalType": "bytes32",
          "name": "",
          "type": "bytes32"
        }
      ],
      "stateMutability": "view",
      "type": "function"
    },
    {
      "inputs": [
        {
          "internalType": "bytes32",
          "name": "role",
          "type": "bytes32"
        },
        {
          "internalType": "uint256",
          "name": "index",
          "type": "uint256"
        }
      ],
      "name": "getRoleMember",
      "outputs": [
        {
          "internalType": "address",
          "name": "",
          "type": "address"
        }
      ],
      "stateMutability": "view",
      "type": "function"
    },
    {
      "inputs": [
        {
          "internalType": "bytes32",
          "name": "role",
          "type": "bytes32"
        }
      ],
      "name": "getRoleMemberCount",
      "outputs": [
        {
          "internalType": "uint256",
          "name": "",
          "type": "uint256"
        }
      ],
      "stateMutability": "view",
      "type": "function"
    },
    {
      "inputs": [
        {
          "internalType": "bytes32",
          "name": "role",
          "type": "bytes32"
        },
        {
          "internalType": "address",
          "name": "account",
          "type": "address"
        }
      ],
      "name": "grantRole",
      "outputs": [],
      "stateMutability": "nonpayable",
      "type": "function"
    },
    {
      "inputs": [
        {
          "internalType": "bytes32",
          "name": "role",
          "type": "bytes32"
        },
        {
          "internalType": "address",
          "name": "account",
          "type": "address"
        }
      ],
      "name": "hasRole",
      "outputs": [
        {
          "internalType": "bool",
          "name": "",
          "type": "bool"
        }
      ],
      "stateMutability": "view",
      "type": "function"
    },
    {
      "inputs": [
        {
          "internalType": "uint256",
          "name": "",
          "type": "uint256"
        }
      ],
      "name": "playThroughPosition",
      "outputs": [
        {
          "internalType": "uint16",
          "name": "",
          "type": "uint16"
        }
      ],
      "stateMutability": "view",
      "type": "function"
    },
    {
      "inputs": [
        {
          "internalType": "uint256",
          "name": "",
          "type": "uint256"
        },
        {
          "internalType": "uint256",
          "name": "",
          "type": "uint256"
        }
      ],
      "name": "players",
      "outputs": [
        {
          "internalType": "uint256",
          "name": "",
          "type": "uint256"
        }
      ],
      "stateMutability": "view",
      "type": "function"
    },
    {
      "inputs": [
        {
          "internalType": "uint256",
          "name": "",
          "type": "uint256"
        }
      ],
      "name": "queueID",
      "outputs": [
        {
          "internalType": "uint256",
          "name": "",
          "type": "uint256"
        }
      ],
      "stateMutability": "view",
      "type": "function"
    },
    {
      "inputs": [
        {
          "internalType": "bytes32",
          "name": "role",
          "type": "bytes32"
        },
        {
          "internalType": "address",
          "name": "account",
          "type": "address"
        }
      ],
      "name": "renounceRole",
      "outputs": [],
      "stateMutability": "nonpayable",
      "type": "function"
    },
    {
      "inputs": [
        {
          "internalType": "bytes32",
          "name": "role",
          "type": "bytes32"
        },
        {
          "internalType": "address",
          "name": "account",
          "type": "address"
        }
      ],
      "name": "revokeRole",
      "outputs": [],
      "stateMutability": "nonpayable",
      "type": "function"
    },
    {
      "inputs": [
        {
          "internalType": "uint256",
          "name": "",
          "type": "uint256"
        },
        {
          "internalType": "uint256",
          "name": "",
          "type": "uint256"
        }
      ],
      "name": "submissionAction",
      "outputs": [
        {
          "internalType": "enum HexplorationQueue.Action",
          "name": "",
          "type": "uint8"
        }
      ],
      "stateMutability": "view",
      "type": "function"
    },
    {
      "inputs": [
        {
          "internalType": "uint256",
          "name": "",
          "type": "uint256"
        },
        {
          "internalType": "uint256",
          "name": "",
          "type": "uint256"
        }
      ],
      "name": "submissionLeftHand",
      "outputs": [
        {
          "internalType": "string",
          "name": "",
          "type": "string"
        }
      ],
      "stateMutability": "view",
      "type": "function"
    },
    {
      "inputs": [
        {
          "internalType": "uint256",
          "name": "",
          "type": "uint256"
        },
        {
          "internalType": "uint256",
          "name": "",
          "type": "uint256"
        },
        {
          "internalType": "uint256",
          "name": "",
          "type": "uint256"
        }
      ],
      "name": "submissionOptions",
      "outputs": [
        {
          "internalType": "string",
          "name": "",
          "type": "string"
        }
      ],
      "stateMutability": "view",
      "type": "function"
    },
    {
      "inputs": [
        {
          "internalType": "uint256",
          "name": "",
          "type": "uint256"
        },
        {
          "internalType": "uint256",
          "name": "",
          "type": "uint256"
        }
      ],
      "name": "submissionRightHand",
      "outputs": [
        {
          "internalType": "string",
          "name": "",
          "type": "string"
        }
      ],
      "stateMutability": "view",
      "type": "function"
    },
    {
      "inputs": [
        {
          "internalType": "bytes4",
          "name": "interfaceId",
          "type": "bytes4"
        }
      ],
      "name": "supportsInterface",
      "outputs": [
        {
          "internalType": "bool",
          "name": "",
          "type": "bool"
        }
      ],
      "stateMutability": "view",
      "type": "function"
    },
    {
      "inputs": [
        {
          "internalType": "address",
          "name": "controllerAddress",
          "type": "address"
        }
      ],
      "name": "addVerifiedController",
      "outputs": [],
      "stateMutability": "nonpayable",
      "type": "function"
    },
    {
      "inputs": [
        {
          "internalType": "enum HexplorationQueue.Action",
          "name": "action",
          "type": "uint8"
        },
        {
          "internalType": "string[]",
          "name": "options",
          "type": "string[]"
        },
        {
          "internalType": "uint256",
          "name": "playerID",
          "type": "uint256"
        },
        {
          "internalType": "uint256",
          "name": "gameID",
          "type": "uint256"
        },
        {
          "internalType": "string",
          "name": "leftHand",
          "type": "string"
        },
        {
          "internalType": "string",
          "name": "righHand",
          "type": "string"
        }
      ],
      "name": "sumbitActionForPlayer",
      "outputs": [],
      "stateMutability": "nonpayable",
      "type": "function"
    },
    {
      "inputs": [],
      "name": "beginProcessing",
      "outputs": [],
      "stateMutability": "nonpayable",
      "type": "function"
    },
    {
      "inputs": [],
      "name": "continueProcessing",
      "outputs": [],
      "stateMutability": "nonpayable",
      "type": "function"
    }
  ],
  "bytecode": "0x60806040523480156200001157600080fd5b506200003a60006200002b6401000000006200005a810204565b6401000000006200005e810204565b620000546002640100000000620007866200007782021704565b62000225565b3390565b62000073828264010000000062000080810204565b5050565b80546001019055565b6200009a82826401000000006200078f620000c782021704565b6000828152600160205260409020620000c29082640100000000620008136200016382021704565b505050565b620000dc82826401000000006200018c810204565b6200007357600082815260208181526040808320600160a060020a03851684529091529020805460ff191660011790556200011f6401000000006200005a810204565b600160a060020a031681600160a060020a0316837f2f8788117e7eff1d82e926ec794901d17c78024a50270940304540a733656f0d60405160405180910390a45050565b60006200018383600160a060020a038416640100000000620001b5810204565b90505b92915050565b600091825260208281526040808420600160a060020a0393909316845291905290205460ff1690565b6000620001cc83836401000000006200020d810204565b620002045750815460018181018455600084815260208082209093018490558454848252828601909352604090209190915562000186565b50600062000186565b60009081526001919091016020526040902054151590565b61132480620002356000396000f3fe608060405234801561001057600080fd5b5060043610610190576000357c0100000000000000000000000000000000000000000000000000000000900480639010d07c116100fb578063ca15c873116100b4578063d547741f1161008e578063d547741f14610401578063e2f315c114610414578063ed3499bb14610317578063fd82e21f1461043857600080fd5b8063ca15c873146103bb578063cddbe729146103ce578063d4f5b152146103ee57600080fd5b80639010d07c1461031f57806391d148541461034a578063998f1b801461035d5780639b8e681914610370578063a217fddf14610383578063b1fb64051461038b57600080fd5b80632e62842e1161014d5780632e62842e146102815780632f2ff15d1461029657806336568abe146102a95780637f041591146102bc578063861814e2146102f757806386dd9f641461031757600080fd5b806301ffc9a7146101955780630c6ea531146101bd5780631b341b3e146101f45780631c834a7f14610214578063248a9ca31461023757806328d6b4c01461025a575b600080fd5b6101a86101a3366004610db8565b61044b565b60405190151581526020015b60405180910390f35b6101e16101cb366004610de2565b60036020526000908152604090205461ffff1681565b60405161ffff90911681526020016101b4565b610207610202366004610dfb565b61048f565b6040516101b49190610e57565b6102296000805160206112cf83398151915281565b6040519081526020016101b4565b610229610245366004610de2565b60009081526020819052604090206001015490565b6102297f0c2c7e957bdf811d5a896b04e816b9c382dfb980c93b21b0288b75c85d598acd81565b61029461028f366004610fe2565b610555565b005b6102946102a43660046110af565b610576565b6102946102b73660046110af565b6105a0565b6102ea6102ca3660046110db565b600960209081526000928352604080842090915290825290205460ff1681565b6040516101b49190611116565b610229610305366004610de2565b60066020526000908152604090205481565b61029461064b565b61033261032d3660046110db565b610666565b604051600160a060020a0390911681526020016101b4565b6101a86103583660046110af565b610685565b61022961036b3660046110db565b6106ae565b61020761037e3660046110db565b6106df565b610229600081565b6103ae610399366004610de2565b60046020526000908152604090205460ff1681565b6040516101b49190611130565b6102296103c9366004610de2565b610703565b6102296103dc366004610de2565b60076020526000908152604090205481565b6102946103fc366004611144565b61071a565b61029461040f3660046110af565b61073d565b6101e1610422366004610de2565b60056020526000908152604090205461ffff1681565b6102076104463660046110db565b610762565b6000600160e060020a031982167f5a05180f000000000000000000000000000000000000000000000000000000001480610489575061048982610828565b92915050565b600a60205282600052604060002060205281600052604060002081815481106104b757600080fd5b90600052602060002001600092509250505080546104d49061115f565b80601f01602080910402602001604051908101604052809291908181526020018280546105009061115f565b801561054d5780601f106105225761010080835404028352916020019161054d565b820191906000526020600020905b81548152906001019060200180831161053057829003601f168201915b505050505081565b6000805160206112cf83398151915261056d8161088f565b50505050505050565b6000828152602081905260409020600101546105918161088f565b61059b8383610899565b505050565b600160a060020a038116331461063d576040517f08c379a000000000000000000000000000000000000000000000000000000000815260206004820152602f60248201527f416363657373436f6e74726f6c3a2063616e206f6e6c792072656e6f756e636560448201527f20726f6c657320666f722073656c66000000000000000000000000000000000060648201526084015b60405180910390fd5b61064782826108bb565b5050565b6000805160206112cf8339815191526106638161088f565b50565b600082815260016020526040812061067e90836108dd565b9392505050565b600091825260208281526040808420600160a060020a0393909316845291905290205460ff1690565b600860205281600052604060002081815481106106ca57600080fd5b90600052602060002001600091509150505481565b600c602090815260009283526040808420909152908252902080546104d49061115f565b6000818152600160205260408120610489906108e9565b60006107258161088f565b6106476000805160206112cf83398151915283610576565b6000828152602081905260409020600101546107588161088f565b61059b83836108bb565b600b602090815260009283526040808420909152908252902080546104d49061115f565b80546001019055565b6107998282610685565b61064757600082815260208181526040808320600160a060020a03851684529091529020805460ff191660011790556107cf3390565b600160a060020a031681600160a060020a0316837f2f8788117e7eff1d82e926ec794901d17c78024a50270940304540a733656f0d60405160405180910390a45050565b600061067e83600160a060020a0384166108f3565b6000600160e060020a031982167f7965db0b00000000000000000000000000000000000000000000000000000000148061048957507f01ffc9a700000000000000000000000000000000000000000000000000000000600160e060020a0319831614610489565b6106638133610942565b6108a3828261078f565b600082815260016020526040902061059b9082610813565b6108c582826109c0565b600082815260016020526040902061059b9082610a25565b600061067e8383610a3a565b6000610489825490565b600081815260018301602052604081205461093a57508154600181810184556000848152602080822090930184905584548482528286019093526040902091909155610489565b506000610489565b61094c8282610685565b6106475761096481600160a060020a03166014610a64565b61096f836020610a64565b60405160200161098092919061119d565b60408051601f19818403018152908290527f08c379a000000000000000000000000000000000000000000000000000000000825261063491600401610e57565b6109ca8282610685565b1561064757600082815260208181526040808320600160a060020a0385168085529252808320805460ff1916905551339285917ff6391f5c32d9c69d2a47ea670b442974b53935d1edc7fd64eb21e047a839171b9190a45050565b600061067e83600160a060020a038416610cc5565b6000826000018281548110610a5157610a5161121e565b9060005260206000200154905092915050565b60606000610a73836002611250565b610a7e90600261126f565b67ffffffffffffffff811115610a9657610a96610e8a565b6040519080825280601f01601f191660200182016040528015610ac0576020820181803683370190505b5090507f300000000000000000000000000000000000000000000000000000000000000081600081518110610af757610af761121e565b60200101907effffffffffffffffffffffffffffffffffffffffffffffffffffffffffffff1916908160001a9053507f780000000000000000000000000000000000000000000000000000000000000081600181518110610b5a57610b5a61121e565b60200101907effffffffffffffffffffffffffffffffffffffffffffffffffffffffffffff1916908160001a9053506000610b96846002611250565b610ba190600161126f565b90505b6001811115610c5c577f303132333435363738396162636465660000000000000000000000000000000085600f1660108110610be257610be261121e565b1a7f010000000000000000000000000000000000000000000000000000000000000002828281518110610c1757610c1761121e565b60200101907effffffffffffffffffffffffffffffffffffffffffffffffffffffffffffff1916908160001a905350601090940493610c5581611287565b9050610ba4565b50831561067e576040517f08c379a000000000000000000000000000000000000000000000000000000000815260206004820181905260248201527f537472696e67733a20686578206c656e67746820696e73756666696369656e746044820152606401610634565b60008181526001830160205260408120548015610dae576000610ce960018361129e565b8554909150600090610cfd9060019061129e565b9050818114610d62576000866000018281548110610d1d57610d1d61121e565b9060005260206000200154905080876000018481548110610d4057610d4061121e565b6000918252602080832090910192909255918252600188019052604090208390555b8554869080610d7357610d736112b5565b600190038181906000526020600020016000905590558560010160008681526020019081526020016000206000905560019350505050610489565b6000915050610489565b600060208284031215610dca57600080fd5b8135600160e060020a03198116811461067e57600080fd5b600060208284031215610df457600080fd5b5035919050565b600080600060608486031215610e1057600080fd5b505081359360208301359350604090920135919050565b60005b83811015610e42578181015183820152602001610e2a565b83811115610e51576000848401525b50505050565b6020815260008251806020840152610e76816040850160208701610e27565b601f01601f19169190910160400192915050565b60e060020a634e487b7102600052604160045260246000fd5b604051601f8201601f1916810167ffffffffffffffff81118282101715610ecc57610ecc610e8a565b604052919050565b600082601f830112610ee557600080fd5b813567ffffffffffffffff811115610eff57610eff610e8a565b610f12601f8201601f1916602001610ea3565b818152846020838601011115610f2757600080fd5b816020850160208301376000918101602001919091529392505050565b600082601f830112610f5557600080fd5b8135602067ffffffffffffffff80831115610f7257610f72610e8a565b818302610f80838201610ea3565b9384528581018301938381019088861115610f9a57600080fd5b84880192505b85831015610fd657823584811115610fb85760008081fd5b610fc68a87838c0101610ed4565b8352509184019190840190610fa0565b98975050505050505050565b60008060008060008060c08789031215610ffb57600080fd5b86356007811061100a57600080fd5b9550602087013567ffffffffffffffff8082111561102757600080fd5b6110338a838b01610f44565b96506040890135955060608901359450608089013591508082111561105757600080fd5b6110638a838b01610ed4565b935060a089013591508082111561107957600080fd5b5061108689828a01610ed4565b9150509295509295509295565b8035600160a060020a03811681146110aa57600080fd5b919050565b600080604083850312156110c257600080fd5b823591506110d260208401611093565b90509250929050565b600080604083850312156110ee57600080fd5b50508035926020909101359150565b60e060020a634e487b7102600052602160045260246000fd5b602081016007831061112a5761112a6110fd565b91905290565b602081016005831061112a5761112a6110fd565b60006020828403121561115657600080fd5b61067e82611093565b60028104600182168061117357607f821691505b602082108114156111975760e060020a634e487b7102600052602260045260246000fd5b50919050565b7f416363657373436f6e74726f6c3a206163636f756e74200000000000000000008152600083516111d5816017850160208801610e27565b7f206973206d697373696e6720726f6c65200000000000000000000000000000006017918401918201528351611212816028840160208801610e27565b01602801949350505050565b60e060020a634e487b7102600052603260045260246000fd5b60e060020a634e487b7102600052601160045260246000fd5b600081600019048311821515161561126a5761126a611237565b500290565b6000821982111561128257611282611237565b500190565b60008161129657611296611237565b506000190190565b6000828210156112b0576112b0611237565b500390565b60e060020a634e487b7102600052603160045260246000fdfe80e2196015fc06a9d891759f8e4f51eb314ef5e9ea068528a8ed0063b87759f0a2646970667358221220b08c765a3af41a79c2e23ed57a79612830ec17426c2c020e8312123a70ebc15b64736f6c634300080b0033",
  "immutableReferences": {},
  "source": "// SPDX-License-Identifier: GPL-3.0\n/* Notes:\n// add controller as verified controller, and add address of queue to board on deployment\n// Closes during processing. No moves can be submitted until processing is complete.\n// Store moves to be processed at end of phase\n// Clears out at end of every phase, shouldn't be too backed up\n// Moves cannot be submitted to queue between phases;\n// keeper will store processed moves, empty queue, and set status if ready.\n\n// How are moves stored?\n// PlayerID, action choice (move, dig, rest, etc.), options[], equipLH, equipRH\n// uint256 queueIndex = 0; // increase with each phase processed so we don't have to clean the queue\n// if all players have submitted, let queue into next phase\n\n// players can have 1 move stored at a time.\n// once a move is submitted, that's it for that phase.\n\n// Phase flow:\n// start, submission, processing,      play through,     submission,      processing,        play through,    submission,      processing\n// Land, first moves, play out moves,                   review outcomes   play out moves,\n//                    Start next phase                  submit moves      Start next phase\n//                                     If phase == day:                                      If phase == day:\n//                                     Run Events etc                                        Run events etc\n*/\npragma solidity >=0.7.0 <0.9.0;\n\nimport \"@openzeppelin/contracts/access/AccessControlEnumerable.sol\";\nimport \"@openzeppelin/contracts/utils/Counters.sol\";\n\ncontract HexplorationQueue is AccessControlEnumerable {\n    using Counters for Counters.Counter;\n    Counters.Counter internal _queueID;\n\n    enum ProcessingPhase {\n        Start,\n        Submission,\n        Processing,\n        PlayThrough,\n        Closed\n    }\n    enum Action {\n        Idle,\n        Move,\n        SetupCamp,\n        BreakDownCamp,\n        Dig,\n        Rest,\n        Help\n    }\n\n    bytes32 public constant VERIFIED_CONTROLLER_ROLE =\n        keccak256(\"VERIFIED_CONTROLLER_ROLE\");\n    bytes32 public constant GAMEPLAY_ROLE = keccak256(\"GAMEPLAY_ROLE\");\n\n    // mappings from queue index\n    mapping(uint256 => uint16) public currentQueuePosition; // increases with each player in queue, then back to 0\n    mapping(uint256 => ProcessingPhase) public currentPhase; // processingPhase\n    mapping(uint256 => uint16) public playThroughPosition; // in case we need to batch this too... hopefully not.\n    mapping(uint256 => uint256) public queueID; // mapping from game ID to it's queue\n    mapping(uint256 => uint256) public game; // mapping from queue ID to it's game ID\n    mapping(uint256 => uint256[]) public players; // all players with moves to process\n\n    // mappings from queue index => player id\n    mapping(uint256 => mapping(uint256 => Action)) public submissionAction;\n    mapping(uint256 => mapping(uint256 => string[])) public submissionOptions;\n    mapping(uint256 => mapping(uint256 => string)) public submissionLeftHand;\n    mapping(uint256 => mapping(uint256 => string)) public submissionRightHand;\n\n    mapping(uint256 => uint256) randomness; // randomness delivered here at start of each phase processing\n\n    ///////  VRF can kick off processing phase\n\n    constructor() {\n        _setupRole(DEFAULT_ADMIN_ROLE, _msgSender());\n        _queueID.increment(); // start at 1\n    }\n\n    // Can set multiple VCs, one for manual pushing, one for keeper\n    function addVerifiedController(address controllerAddress)\n        public\n        onlyRole(DEFAULT_ADMIN_ROLE)\n    {\n        grantRole(VERIFIED_CONTROLLER_ROLE, controllerAddress);\n    }\n\n    function sumbitActionForPlayer(\n        Action action,\n        string[] memory options,\n        uint256 playerID,\n        uint256 gameID,\n        string memory leftHand,\n        string memory righHand\n    ) public onlyRole(VERIFIED_CONTROLLER_ROLE) {\n        // if (move[queueIndex][playerID] == 0){\n        //    submit moves\n    }\n\n    // These functions only kick off processing, processing will happen in separate contract\n    // This queue should be updateable by game processor\n\n    function beginProcessing() public onlyRole(VERIFIED_CONTROLLER_ROLE) {\n        // get queue ID\n        // set processingPhase of queue to \"processing\"\n    }\n\n    function continueProcessing() public onlyRole(VERIFIED_CONTROLLER_ROLE) {\n        // continueProcessing//\n        // figure out most expensive move and only do as many as can be safely completed\n        // in one transaction\n        // start at currentQueuePosition\n        // after each move is processed currentQueuePosition++\n        // on after final batch, switch day / night and call playThrough()\n    }\n}\n",
  "sourcePath": "/Users/maxmeier/Developer/Lucky Machines/hexploration/contracts/HexplorationQueue.sol",
  "compiler": {
    "name": "solc",
    "version": "0.8.11+commit.d7f03943.Emscripten.clang"
  },
  "schemaVersion": "3.4.4",
  "updatedAt": "2022-05-17T17:51:41.489Z",
  "networkType": "ethereum",
  "devdoc": {
    "kind": "dev",
    "methods": {
      "getRoleAdmin(bytes32)": {
        "details": "Returns the admin role that controls `role`. See {grantRole} and {revokeRole}. To change a role's admin, use {_setRoleAdmin}."
      },
      "getRoleMember(bytes32,uint256)": {
        "details": "Returns one of the accounts that have `role`. `index` must be a value between 0 and {getRoleMemberCount}, non-inclusive. Role bearers are not sorted in any particular way, and their ordering may change at any point. WARNING: When using {getRoleMember} and {getRoleMemberCount}, make sure you perform all queries on the same block. See the following https://forum.openzeppelin.com/t/iterating-over-elements-on-enumerableset-in-openzeppelin-contracts/2296[forum post] for more information."
      },
      "getRoleMemberCount(bytes32)": {
        "details": "Returns the number of accounts that have `role`. Can be used together with {getRoleMember} to enumerate all bearers of a role."
      },
      "grantRole(bytes32,address)": {
        "details": "Grants `role` to `account`. If `account` had not been already granted `role`, emits a {RoleGranted} event. Requirements: - the caller must have ``role``'s admin role."
      },
      "hasRole(bytes32,address)": {
        "details": "Returns `true` if `account` has been granted `role`."
      },
      "renounceRole(bytes32,address)": {
        "details": "Revokes `role` from the calling account. Roles are often managed via {grantRole} and {revokeRole}: this function's purpose is to provide a mechanism for accounts to lose their privileges if they are compromised (such as when a trusted device is misplaced). If the calling account had been revoked `role`, emits a {RoleRevoked} event. Requirements: - the caller must be `account`."
      },
      "revokeRole(bytes32,address)": {
        "details": "Revokes `role` from `account`. If `account` had been granted `role`, emits a {RoleRevoked} event. Requirements: - the caller must have ``role``'s admin role."
      },
      "supportsInterface(bytes4)": {
        "details": "See {IERC165-supportsInterface}."
      }
    },
    "version": 1
  },
  "userdoc": {
    "kind": "user",
    "methods": {},
    "version": 1
  }
}