{
  "contractName": "HexplorationController",
  "abi": [
    {
      "inputs": [
        {
          "internalType": "address",
          "name": "adminAddress",
          "type": "address"
        }
      ],
      "stateMutability": "nonpayable",
      "type": "constructor"
    },
    {
      "anonymous": false,
      "inputs": [
        {
          "indexed": true,
          "internalType": "bytes32",
          "name": "role",
          "type": "bytes32"
        },
        {
          "indexed": true,
          "internalType": "bytes32",
          "name": "previousAdminRole",
          "type": "bytes32"
        },
        {
          "indexed": true,
          "internalType": "bytes32",
          "name": "newAdminRole",
          "type": "bytes32"
        }
      ],
      "name": "RoleAdminChanged",
      "type": "event"
    },
    {
      "anonymous": false,
      "inputs": [
        {
          "indexed": true,
          "internalType": "bytes32",
          "name": "role",
          "type": "bytes32"
        },
        {
          "indexed": true,
          "internalType": "address",
          "name": "account",
          "type": "address"
        },
        {
          "indexed": true,
          "internalType": "address",
          "name": "sender",
          "type": "address"
        }
      ],
      "name": "RoleGranted",
      "type": "event"
    },
    {
      "anonymous": false,
      "inputs": [
        {
          "indexed": true,
          "internalType": "bytes32",
          "name": "role",
          "type": "bytes32"
        },
        {
          "indexed": true,
          "internalType": "address",
          "name": "account",
          "type": "address"
        },
        {
          "indexed": true,
          "internalType": "address",
          "name": "sender",
          "type": "address"
        }
      ],
      "name": "RoleRevoked",
      "type": "event"
    },
    {
      "inputs": [],
      "name": "DEFAULT_ADMIN_ROLE",
      "outputs": [
        {
          "internalType": "bytes32",
          "name": "",
          "type": "bytes32"
        }
      ],
      "stateMutability": "view",
      "type": "function",
      "constant": true
    },
    {
      "inputs": [],
      "name": "KEEPER_ROLE",
      "outputs": [
        {
          "internalType": "bytes32",
          "name": "",
          "type": "bytes32"
        }
      ],
      "stateMutability": "view",
      "type": "function",
      "constant": true
    },
    {
      "inputs": [
        {
          "internalType": "uint256",
          "name": "pathIndex",
          "type": "uint256"
        },
        {
          "internalType": "uint256",
          "name": "gameID",
          "type": "uint256"
        },
        {
          "internalType": "address",
          "name": "gameBoardAddress",
          "type": "address"
        }
      ],
      "name": "exitToPath",
      "outputs": [],
      "stateMutability": "nonpayable",
      "type": "function"
    },
    {
      "inputs": [
        {
          "internalType": "bytes32",
          "name": "role",
          "type": "bytes32"
        }
      ],
      "name": "getRoleAdmin",
      "outputs": [
        {
          "internalType": "bytes32",
          "name": "",
          "type": "bytes32"
        }
      ],
      "stateMutability": "view",
      "type": "function",
      "constant": true
    },
    {
      "inputs": [
        {
          "internalType": "bytes32",
          "name": "role",
          "type": "bytes32"
        },
        {
          "internalType": "uint256",
          "name": "index",
          "type": "uint256"
        }
      ],
      "name": "getRoleMember",
      "outputs": [
        {
          "internalType": "address",
          "name": "",
          "type": "address"
        }
      ],
      "stateMutability": "view",
      "type": "function",
      "constant": true
    },
    {
      "inputs": [
        {
          "internalType": "bytes32",
          "name": "role",
          "type": "bytes32"
        }
      ],
      "name": "getRoleMemberCount",
      "outputs": [
        {
          "internalType": "uint256",
          "name": "",
          "type": "uint256"
        }
      ],
      "stateMutability": "view",
      "type": "function",
      "constant": true
    },
    {
      "inputs": [
        {
          "internalType": "bytes32",
          "name": "role",
          "type": "bytes32"
        },
        {
          "internalType": "address",
          "name": "account",
          "type": "address"
        }
      ],
      "name": "grantRole",
      "outputs": [],
      "stateMutability": "nonpayable",
      "type": "function"
    },
    {
      "inputs": [
        {
          "internalType": "bytes32",
          "name": "role",
          "type": "bytes32"
        },
        {
          "internalType": "address",
          "name": "account",
          "type": "address"
        }
      ],
      "name": "hasRole",
      "outputs": [
        {
          "internalType": "bool",
          "name": "",
          "type": "bool"
        }
      ],
      "stateMutability": "view",
      "type": "function",
      "constant": true
    },
    {
      "inputs": [
        {
          "internalType": "bytes32",
          "name": "role",
          "type": "bytes32"
        },
        {
          "internalType": "address",
          "name": "account",
          "type": "address"
        }
      ],
      "name": "renounceRole",
      "outputs": [],
      "stateMutability": "nonpayable",
      "type": "function"
    },
    {
      "inputs": [
        {
          "internalType": "bytes32",
          "name": "role",
          "type": "bytes32"
        },
        {
          "internalType": "address",
          "name": "account",
          "type": "address"
        }
      ],
      "name": "revokeRole",
      "outputs": [],
      "stateMutability": "nonpayable",
      "type": "function"
    },
    {
      "inputs": [
        {
          "internalType": "bytes4",
          "name": "interfaceId",
          "type": "bytes4"
        }
      ],
      "name": "supportsInterface",
      "outputs": [
        {
          "internalType": "bool",
          "name": "",
          "type": "bool"
        }
      ],
      "stateMutability": "view",
      "type": "function",
      "constant": true
    },
    {
      "inputs": [
        {
          "internalType": "address",
          "name": "dayNightAddress",
          "type": "address"
        },
        {
          "internalType": "address",
          "name": "disasterAddress",
          "type": "address"
        },
        {
          "internalType": "address",
          "name": "enemyAddress",
          "type": "address"
        },
        {
          "internalType": "address",
          "name": "itemAddress",
          "type": "address"
        },
        {
          "internalType": "address",
          "name": "playerStatusAddress",
          "type": "address"
        }
      ],
      "name": "setTokenAddresses",
      "outputs": [],
      "stateMutability": "nonpayable",
      "type": "function"
    },
    {
      "inputs": [
        {
          "internalType": "address",
          "name": "keeperAddress",
          "type": "address"
        }
      ],
      "name": "addKeeper",
      "outputs": [],
      "stateMutability": "nonpayable",
      "type": "function"
    },
    {
      "inputs": [
        {
          "internalType": "address",
          "name": "boardAddress",
          "type": "address"
        }
      ],
      "name": "runBoardUpdate",
      "outputs": [],
      "stateMutability": "nonpayable",
      "type": "function"
    },
    {
      "inputs": [
        {
          "internalType": "uint256",
          "name": "gameID",
          "type": "uint256"
        },
        {
          "internalType": "address",
          "name": "boardAddress",
          "type": "address"
        }
      ],
      "name": "startGame",
      "outputs": [],
      "stateMutability": "nonpayable",
      "type": "function"
    },
    {
      "inputs": [
        {
          "internalType": "uint256",
          "name": "gameID",
          "type": "uint256"
        },
        {
          "internalType": "address",
          "name": "boardAddress",
          "type": "address"
        }
      ],
      "name": "registerForGame",
      "outputs": [],
      "stateMutability": "nonpayable",
      "type": "function"
    },
    {
      "inputs": [
        {
          "internalType": "string[]",
          "name": "zonePath",
          "type": "string[]"
        },
        {
          "internalType": "uint256",
          "name": "gameID",
          "type": "uint256"
        },
        {
          "internalType": "address",
          "name": "boardAddress",
          "type": "address"
        }
      ],
      "name": "moveThroughPath",
      "outputs": [],
      "stateMutability": "nonpayable",
      "type": "function"
    },
    {
      "inputs": [
        {
          "internalType": "string",
          "name": "zoneChoice",
          "type": "string"
        },
        {
          "internalType": "uint256",
          "name": "gameID",
          "type": "uint256"
        },
        {
          "internalType": "address",
          "name": "boardAddress",
          "type": "address"
        }
      ],
      "name": "chooseLandingSite",
      "outputs": [],
      "stateMutability": "nonpayable",
      "type": "function"
    },
    {
      "inputs": [
        {
          "internalType": "address",
          "name": "gameRegistryAddress",
          "type": "address"
        },
        {
          "internalType": "address",
          "name": "boardAddress",
          "type": "address"
        }
      ],
      "name": "requestNewGame",
      "outputs": [],
      "stateMutability": "nonpayable",
      "type": "function"
    },
    {
      "inputs": [
        {
          "internalType": "address",
          "name": "gameRegistryAddress",
          "type": "address"
        },
        {
          "internalType": "address",
          "name": "boardAddress",
          "type": "address"
        }
      ],
      "name": "latestGame",
      "outputs": [
        {
          "internalType": "uint256",
          "name": "",
          "type": "uint256"
        }
      ],
      "stateMutability": "view",
      "type": "function",
      "constant": true
    }
  ],
  "bytecode": "0x60806040523480156200001157600080fd5b5060405162002d4538038062002d45833981016040819052620000349162000215565b806200004b60008264010000000062000053810204565b505062000247565b6200006882826401000000006200006c810204565b5050565b62000086828264010000000062001c74620000b382021704565b6000828152600160205260409020620000ae908264010000000062001cf86200014f82021704565b505050565b620000c8828264010000000062000178810204565b6200006857600082815260208181526040808320600160a060020a03851684529091529020805460ff191660011790556200010b640100000000620001a1810204565b600160a060020a031681600160a060020a0316837f2f8788117e7eff1d82e926ec794901d17c78024a50270940304540a733656f0d60405160405180910390a45050565b60006200016f83600160a060020a038416640100000000620001a5810204565b90505b92915050565b600091825260208281526040808420600160a060020a0393909316845291905290205460ff1690565b3390565b6000620001bc8383640100000000620001fd810204565b620001f45750815460018181018455600084815260208082209093018490558454848252828601909352604090209190915562000172565b50600062000172565b60009081526001919091016020526040902054151590565b6000602082840312156200022857600080fd5b8151600160a060020a03811681146200024057600080fd5b9392505050565b612aee80620002576000396000f3fe608060405234801561001057600080fd5b50600436106101305760003560e060020a900480637479c8fe116100b1578063c3ef701311610075578063c3ef7013146102a8578063ca15c873146102bb578063d547741f146102ce578063e8b35086146102e1578063f3297df9146102f457600080fd5b80637479c8fe1461023c5780639010d07c1461024f57806391d148541461027a578063975eef261461028d578063a217fddf146102a057600080fd5b806336568abe116100f857806336568abe146101dd5780634032b72b146101f05780634bde808c14610203578063621cc08d14610216578063661e05661461022957600080fd5b806301ffc9a714610135578063248a9ca31461015d57806329a461d61461018e5780632f2ff15d146101a3578063364bc15a146101b6575b600080fd5b610148610143366004612272565b610307565b60405190151581526020015b60405180910390f35b61018061016b36600461229c565b60009081526020819052604090206001015490565b604051908152602001610154565b6101a161019c3660046122da565b61034b565b005b6101a16101b13660046122da565b6103cc565b6101807ffc8737ab85eb45125971625a9ebdb75cc78e01d5c1fa80c4c6e5203f47bc4fab81565b6101a16101eb3660046122da565b6103f6565b6101a16101fe36600461230a565b61048a565b6101a16102113660046123ef565b6104bf565b6101a16102243660046122da565b610751565b6101a16102373660046124cb565b611775565b6101a161024a3660046124f9565b6117bf565b61026261025d366004612532565b611856565b604051600160a060020a039091168152602001610154565b6101486102883660046122da565b611875565b61018061029b3660046124cb565b61189e565b610180600081565b6101a16102b636600461230a565b611925565b6101806102c936600461229c565b61197e565b6101a16102dc3660046122da565b611995565b6101a16102ef366004612554565b6119ba565b6101a16103023660046125c5565b611a32565b6000600160e060020a031982167f5a05180f000000000000000000000000000000000000000000000000000000001480610345575061034582611d0d565b92915050565b6040517f9aabe36d000000000000000000000000000000000000000000000000000000008152336004820152602481018390528190600160a060020a03821690639aabe36d906044015b600060405180830381600087803b1580156103af57600080fd5b505af11580156103c3573d6000803e3d6000fd5b50505050505050565b6000828152602081905260409020600101546103e781611d74565b6103f18383611d81565b505050565b600160a060020a038116331461047c5760405160e560020a62461bcd02815260206004820152602f60248201527f416363657373436f6e74726f6c3a2063616e206f6e6c792072656e6f756e636560448201527f20726f6c657320666f722073656c66000000000000000000000000000000000060648201526084015b60405180910390fd5b6104868282611da3565b5050565b600061049581611d74565b6104867ffc8737ab85eb45125971625a9ebdb75cc78e01d5c1fa80c4c6e5203f47bc4fab836103cc565b6000819050600081600160a060020a031663c06dea4e6040518163ffffffff1660e060020a028152600401602060405180830381865afa158015610507573d6000803e3d6000fd5b505050506040513d601f19601f8201168201806040525081019061052b9190612615565b6040517fb81f6e1800000000000000000000000000000000000000000000000000000000815260048101869052336024820152909150600160a060020a0382169063b81f6e1890604401602060405180830381865afa158015610592573d6000803e3d6000fd5b505050506040513d601f19601f820116820180604052508101906105b69190612632565b6106055760405160e560020a62461bcd02815260206004820152601560248201527f706c61796572206e6f74207265676973746572656400000000000000000000006044820152606401610473565b6000855167ffffffffffffffff81111561062157610621612327565b60405190808252806020026020018201604052801561064a578160200160208202803683370190505b50905060005b86518110156106cb578015610675578060011461066e576004610678565b6002610678565b60015b82828151811061068a5761068a612654565b6020026020010190600b8111156106a3576106a361266d565b9081600b8111156106b6576106b661266d565b905250806106c38161269f565b915050610650565b506040517f31e019f6000000000000000000000000000000000000000000000000000000008152600160a060020a038516906331e019f69061071790899033908a908790600401612737565b600060405180830381600087803b15801561073157600080fd5b505af1158015610745573d6000803e3d6000fd5b50505050505050505050565b6040517f4e0e1a3e000000000000000000000000000000000000000000000000000000008152600481018390528190600160a060020a03821690634e0e1a3e90602401602060405180830381865afa1580156107b1573d6000803e3d6000fd5b505050506040513d601f19601f820116820180604052508101906107d591906127f0565b156108255760405160e560020a62461bcd02815260206004820152601460248201527f67616d6520616c726561647920737461727465640000000000000000000000006044820152606401610473565b600081600160a060020a031663c06dea4e6040518163ffffffff1660e060020a028152600401602060405180830381865afa158015610868573d6000803e3d6000fd5b505050506040513d601f19601f8201168201806040525081019061088c9190612615565b6040517f60c2050000000000000000000000000000000000000000000000000000000000815260048101869052909150600160a060020a038316906360c2050090602401600060405180830381600087803b1580156108ea57600080fd5b505af11580156108fe573d6000803e3d6000fd5b50506040517fb77ff4110000000000000000000000000000000000000000000000000000000081526004810187905260009250600160a060020a038416915063b77ff41190602401602060405180830381865afa158015610963573d6000803e3d6000fd5b505050506040513d601f19601f8201168201806040525081019061098791906127f0565b6040517feb33983d00000000000000000000000000000000000000000000000000000000815260048101879052909150600090600160a060020a0385169063eb33983d90602401600060405180830381865afa1580156109eb573d6000803e3d6000fd5b505050506040513d6000823e601f3d908101601f19168201604052610a139190810190612809565b905060005b82811015610b32576000600160a060020a03851663f504325489610a3d856001612880565b60405160e060020a63ffffffff851602815260048101929092526024820152604401602060405180830381865afa158015610a7c573d6000803e3d6000fd5b505050506040513d601f19601f82011682018060405250810190610aa09190612615565b6040517f98bd7572000000000000000000000000000000000000000000000000000000008152909150600160a060020a038716906398bd757290610aec9084908c908890600401612898565b600060405180830381600087803b158015610b0657600080fd5b505af1158015610b1a573d6000803e3d6000fd5b50505050508080610b2a9061269f565b915050610a18565b506040517f76a321c10000000000000000000000000000000000000000000000000000000081526002600482015260248101879052600160a060020a038516906376a321c190604401600060405180830381600087803b158015610b9557600080fd5b505af1158015610ba9573d6000803e3d6000fd5b505060025460405160e060020a631c635ded028152600160a060020a039091169250631c635ded9150610be39089906001906004016128c0565b600060405180830381600087803b158015610bfd57600080fd5b505af1158015610c11573d6000803e3d6000fd5b505060025460405160e060020a631c635ded02815260606004820152600560648201527f4e696768740000000000000000000000000000000000000000000000000000006084820152602481018a905260016044820152600160a060020a039091169250631c635ded915060a401600060405180830381600087803b158015610c9957600080fd5b505af1158015610cad573d6000803e3d6000fd5b505060035460405160e060020a631c635ded02815260606004820152600a60648201527f45617274687175616b65000000000000000000000000000000000000000000006084820152602481018a90526103e86044820152600160a060020a039091169250631c635ded915060a401600060405180830381600087803b158015610d3657600080fd5b505af1158015610d4a573d6000803e3d6000fd5b505060035460405160e060020a631c635ded02815260606004820152600760648201527f566f6c63616e6f000000000000000000000000000000000000000000000000006084820152602481018a90526103e86044820152600160a060020a039091169250631c635ded915060a401600060405180830381600087803b158015610dd357600080fd5b505af1158015610de7573d6000803e3d6000fd5b50506004805460405160e060020a631c635ded028152606092810192909252600660648301527f50697261746500000000000000000000000000000000000000000000000000006084830152602482018a90526103e86044830152600160a060020a03169250631c635ded915060a401600060405180830381600087803b158015610e7157600080fd5b505af1158015610e85573d6000803e3d6000fd5b50506004805460405160e060020a631c635ded028152606092810192909252600b60648301527f50697261746520536869700000000000000000000000000000000000000000006084830152602482018a90526103e86044830152600160a060020a03169250631c635ded915060a401600060405180830381600087803b158015610f0f57600080fd5b505af1158015610f23573d6000803e3d6000fd5b50506004805460405160e060020a631c635ded028152606092810192909252600860648301527f4465617468626f740000000000000000000000000000000000000000000000006084830152602482018a90526103e86044830152600160a060020a03169250631c635ded915060a401600060405180830381600087803b158015610fad57600080fd5b505af1158015610fc1573d6000803e3d6000fd5b50506004805460405160e060020a631c635ded028152606092810192909252600860648301527f477561726469616e0000000000000000000000000000000000000000000000006084830152602482018a90526103e86044830152600160a060020a03169250631c635ded915060a401600060405180830381600087803b15801561104b57600080fd5b505af115801561105f573d6000803e3d6000fd5b50506004805460405160e060020a631c635ded028152606092810192909252600860648301527f53616e64776f726d0000000000000000000000000000000000000000000000006084830152602482018a90526103e86044830152600160a060020a03169250631c635ded915060a401600060405180830381600087803b1580156110e957600080fd5b505af11580156110fd573d6000803e3d6000fd5b50506004805460405160e060020a631c635ded028152606092810192909252600660648301527f447261676f6e00000000000000000000000000000000000000000000000000006084830152602482018a90526103e86044830152600160a060020a03169250631c635ded915060a401600060405180830381600087803b15801561118757600080fd5b505af115801561119b573d6000803e3d6000fd5b505060055460405160e060020a631c635ded02815260606004820152600a60648201527f536d616c6c20416d6d6f000000000000000000000000000000000000000000006084820152602481018a90526103e86044820152600160a060020a039091169250631c635ded915060a401600060405180830381600087803b15801561122457600080fd5b505af1158015611238573d6000803e3d6000fd5b505060055460405160e060020a631c635ded02815260606004820152600a60648201527f4c6172676520416d6d6f000000000000000000000000000000000000000000006084820152602481018a90526103e86044820152600160a060020a039091169250631c635ded915060a401600060405180830381600087803b1580156112c157600080fd5b505af11580156112d5573d6000803e3d6000fd5b505060055460405160e060020a631c635ded02815260606004820152600960648201527f42617474657269657300000000000000000000000000000000000000000000006084820152602481018a90526103e86044820152600160a060020a039091169250631c635ded915060a401600060405180830381600087803b15801561135e57600080fd5b505af1158015611372573d6000803e3d6000fd5b505060055460405160e060020a631c635ded02815260606004820152600660648201527f536869656c6400000000000000000000000000000000000000000000000000006084820152602481018a90526103e86044820152600160a060020a039091169250631c635ded915060a401600060405180830381600087803b1580156113fb57600080fd5b505af115801561140f573d6000803e3d6000fd5b505060055460405160e060020a631c635ded02815260606004820152600660648201527f506f7274616c00000000000000000000000000000000000000000000000000006084820152602481018a90526103e86044820152600160a060020a039091169250631c635ded915060a401600060405180830381600087803b15801561149857600080fd5b505af11580156114ac573d6000803e3d6000fd5b505060055460405160e060020a631c635ded02815260606004820152600260648201527f4f6e0000000000000000000000000000000000000000000000000000000000006084820152602481018a90526103e86044820152600160a060020a039091169250631c635ded915060a401600060405180830381600087803b15801561153557600080fd5b505af1158015611549573d6000803e3d6000fd5b505060055460405160e060020a631c635ded02815260606004820152600360648201527f4f666600000000000000000000000000000000000000000000000000000000006084820152602481018a90526103e86044820152600160a060020a039091169250631c635ded915060a401600060405180830381600087803b1580156115d257600080fd5b505af11580156115e6573d6000803e3d6000fd5b505060065460405160e060020a631c635ded02815260606004820152600760648201527f5374756e6e6564000000000000000000000000000000000000000000000000006084820152602481018a90526103e86044820152600160a060020a039091169250631c635ded915060a401600060405180830381600087803b15801561166f57600080fd5b505af1158015611683573d6000803e3d6000fd5b50506006805460405160e060020a631c635ded0281526060600482015260648101929092527f4275726e656400000000000000000000000000000000000000000000000000006084830152602482018a90526103e86044830152600160a060020a03169250631c635ded915060a401600060405180830381600087803b15801561170c57600080fd5b505af1158015611720573d6000803e3d6000fd5b50506002546040517fd8291047000000000000000000000000000000000000000000000000000000008152600160a060020a03909116925063d82910479150610717908990600090600190819060040161290d565b6040517f72c6c6b6000000000000000000000000000000000000000000000000000000008152600160a060020a0383811660048301528291908216906372c6c6b690602401610395565b6040517f9eb356cb0000000000000000000000000000000000000000000000000000000081526004810183905233602482015260448101849052600160a060020a03821690639eb356cb906064016020604051808303816000875af115801561182c573d6000803e3d6000fd5b505050506040513d601f19601f820116820180604052508101906118509190612632565b50505050565b600082815260016020526040812061186e9083611dc5565b9392505050565b600091825260208281526040808420600160a060020a0393909316845291905290205460ff1690565b6040517fb553910d000000000000000000000000000000000000000000000000000000008152600160a060020a0382811660048301526000919084169063b553910d90602401602060405180830381865afa158015611901573d6000803e3d6000fd5b505050506040513d601f19601f8201168201806040525081019061186e91906127f0565b80600160a060020a031663d1e18d266040518163ffffffff1660e060020a028152600401600060405180830381600087803b15801561196357600080fd5b505af1158015611977573d6000803e3d6000fd5b5050505050565b600081815260016020526040812061034590611dd1565b6000828152602081905260409020600101546119b081611d74565b6103f18383611da3565b60006119c581611d74565b506002805473ffffffffffffffffffffffffffffffffffffffff19908116600160a060020a03978816179091556003805482169587169590951790945560048054851693861693909317909255600580548416918516919091179055600680549092169216919091179055565b6000819050600081600160a060020a031663c06dea4e6040518163ffffffff1660e060020a028152600401602060405180830381865afa158015611a7a573d6000803e3d6000fd5b505050506040513d601f19601f82011682018060405250810190611a9e9190612615565b6040517fb81f6e1800000000000000000000000000000000000000000000000000000000815260048101869052336024820152909150600160a060020a0382169063b81f6e1890604401602060405180830381865afa158015611b05573d6000803e3d6000fd5b505050506040513d601f19601f82011682018060405250810190611b299190612632565b611b785760405160e560020a62461bcd02815260206004820152601560248201527f706c61796572206e6f74207265676973746572656400000000000000000000006044820152606401610473565b6040517ff8430708000000000000000000000000000000000000000000000000000000008152600160a060020a0383169063f843070890611bc2908890600590899060040161296c565b600060405180830381600087803b158015611bdc57600080fd5b505af1158015611bf0573d6000803e3d6000fd5b50506040517f9f82bcc0000000000000000000000000000000000000000000000000000000008152600160a060020a0385169250639f82bcc09150611c3b908890889060040161299c565b600060405180830381600087803b158015611c5557600080fd5b505af1158015611c69573d6000803e3d6000fd5b505050505050505050565b611c7e8282611875565b61048657600082815260208181526040808320600160a060020a03851684529091529020805460ff19166001179055611cb43390565b600160a060020a031681600160a060020a0316837f2f8788117e7eff1d82e926ec794901d17c78024a50270940304540a733656f0d60405160405180910390a45050565b600061186e83600160a060020a038416611ddb565b6000600160e060020a031982167f7965db0b00000000000000000000000000000000000000000000000000000000148061034557507f01ffc9a700000000000000000000000000000000000000000000000000000000600160e060020a0319831614610345565b611d7e8133611e2a565b50565b611d8b8282611c74565b60008281526001602052604090206103f19082611cf8565b611dad8282611e91565b60008281526001602052604090206103f19082611ef6565b600061186e8383611f0b565b6000610345825490565b6000818152600183016020526040812054611e2257508154600181810184556000848152602080822090930184905584548482528286019093526040902091909155610345565b506000610345565b611e348282611875565b61048657611e4c81600160a060020a03166014611f35565b611e57836020611f35565b604051602001611e689291906129be565b60408051601f198184030181529082905260e560020a62461bcd02825261047391600401612a3f565b611e9b8282611875565b1561048657600082815260208181526040808320600160a060020a0385168085529252808320805460ff1916905551339285917ff6391f5c32d9c69d2a47ea670b442974b53935d1edc7fd64eb21e047a839171b9190a45050565b600061186e83600160a060020a03841661217f565b6000826000018281548110611f2257611f22612654565b9060005260206000200154905092915050565b60606000611f44836002612a52565b611f4f906002612880565b67ffffffffffffffff811115611f6757611f67612327565b6040519080825280601f01601f191660200182016040528015611f91576020820181803683370190505b5090507f300000000000000000000000000000000000000000000000000000000000000081600081518110611fc857611fc8612654565b60200101907effffffffffffffffffffffffffffffffffffffffffffffffffffffffffffff1916908160001a9053507f78000000000000000000000000000000000000000000000000000000000000008160018151811061202b5761202b612654565b60200101907effffffffffffffffffffffffffffffffffffffffffffffffffffffffffffff1916908160001a9053506000612067846002612a52565b612072906001612880565b90505b600181111561212d577f303132333435363738396162636465660000000000000000000000000000000085600f16601081106120b3576120b3612654565b1a7f0100000000000000000000000000000000000000000000000000000000000000028282815181106120e8576120e8612654565b60200101907effffffffffffffffffffffffffffffffffffffffffffffffffffffffffffff1916908160001a90535060109094049361212681612a71565b9050612075565b50831561186e5760405160e560020a62461bcd02815260206004820181905260248201527f537472696e67733a20686578206c656e67746820696e73756666696369656e746044820152606401610473565b600081815260018301602052604081205480156122685760006121a3600183612a88565b85549091506000906121b790600190612a88565b905081811461221c5760008660000182815481106121d7576121d7612654565b90600052602060002001549050808760000184815481106121fa576121fa612654565b6000918252602080832090910192909255918252600188019052604090208390555b855486908061222d5761222d612a9f565b600190038181906000526020600020016000905590558560010160008681526020019081526020016000206000905560019350505050610345565b6000915050610345565b60006020828403121561228457600080fd5b8135600160e060020a03198116811461186e57600080fd5b6000602082840312156122ae57600080fd5b5035919050565b600160a060020a0381168114611d7e57600080fd5b80356122d5816122b5565b919050565b600080604083850312156122ed57600080fd5b8235915060208301356122ff816122b5565b809150509250929050565b60006020828403121561231c57600080fd5b813561186e816122b5565b60e060020a634e487b7102600052604160045260246000fd5b604051601f8201601f1916810167ffffffffffffffff8111828210171561236957612369612327565b604052919050565b600067ffffffffffffffff82111561238b5761238b612327565b50601f01601f191660200190565b600082601f8301126123aa57600080fd5b81356123bd6123b882612371565b612340565b8181528460208386010111156123d257600080fd5b816020850160208301376000918101602001919091529392505050565b60008060006060848603121561240457600080fd5b833567ffffffffffffffff8082111561241c57600080fd5b818601915086601f83011261243057600080fd5b813560208282111561244457612444612327565b808202612452828201612340565b928352848101820192828101908b85111561246c57600080fd5b83870192505b848310156124a85782358681111561248a5760008081fd5b6124988d86838b0101612399565b8352509183019190830190612472565b9850505087013594506124c29250506040860190506122ca565b90509250925092565b600080604083850312156124de57600080fd5b82356124e9816122b5565b915060208301356122ff816122b5565b60008060006060848603121561250e57600080fd5b83359250602084013591506040840135612527816122b5565b809150509250925092565b6000806040838503121561254557600080fd5b50508035926020909101359150565b600080600080600060a0868803121561256c57600080fd5b8535612577816122b5565b94506020860135612587816122b5565b93506040860135612597816122b5565b925060608601356125a7816122b5565b915060808601356125b7816122b5565b809150509295509295909350565b6000806000606084860312156125da57600080fd5b833567ffffffffffffffff8111156125f157600080fd5b6125fd86828701612399565b935050602084013591506040840135612527816122b5565b60006020828403121561262757600080fd5b815161186e816122b5565b60006020828403121561264457600080fd5b8151801515811461186e57600080fd5b60e060020a634e487b7102600052603260045260246000fd5b60e060020a634e487b7102600052602160045260246000fd5b60e060020a634e487b7102600052601160045260246000fd5b60006000198214156126b3576126b3612686565b5060010190565b60005b838110156126d55781810151838201526020016126bd565b838111156118505750506000910152565b600081518084526126fe8160208601602086016126ba565b601f01601f19169290920160200192915050565b600c81106127335760e060020a634e487b7102600052602160045260246000fd5b9052565b6000608082016080835280875180835260a0850191506020925060a0838202860101838a0160005b8381101561278d57609f1988840301855261277b8383516126e6565b9486019492509085019060010161275f565b5050600160a060020a0389168685015260408601889052858103606087015286518082529084019250905085830160005b828110156127e1576127d1848351612712565b92840192908401906001016127be565b50919998505050505050505050565b60006020828403121561280257600080fd5b5051919050565b60006020828403121561281b57600080fd5b815167ffffffffffffffff81111561283257600080fd5b8201601f8101841361284357600080fd5b80516128516123b882612371565b81815285602083850101111561286657600080fd5b6128778260208301602086016126ba565b95945050505050565b6000821982111561289357612893612686565b500190565b600160a060020a038416815282602082015260606040820152600061287760608301846126e6565b6060815260006128fd60608301600381527f4461790000000000000000000000000000000000000000000000000000000000602082015260400190565b6020830194909452506040015290565b60a08152600061294a60a08301600381527f4461790000000000000000000000000000000000000000000000000000000000602082015260400190565b6020830196909652506040810193909352606083019190915260809091015290565b60608152600061297f60608301866126e6565b905061298e6020830185612712565b826040830152949350505050565b6040815260006129af60408301856126e6565b90508260208301529392505050565b7f416363657373436f6e74726f6c3a206163636f756e74200000000000000000008152600083516129f68160178501602088016126ba565b7f206973206d697373696e6720726f6c65200000000000000000000000000000006017918401918201528351612a338160288401602088016126ba565b01602801949350505050565b60208152600061186e60208301846126e6565b6000816000190483118215151615612a6c57612a6c612686565b500290565b600081612a8057612a80612686565b506000190190565b600082821015612a9a57612a9a612686565b500390565b60e060020a634e487b7102600052603160045260246000fdfea264697066735822122023e77e45c2fc650853ac797dc77ef62d06d127959ac4969d3904d522a3bf8ff164736f6c634300080b0033",
  "immutableReferences": {},
  "source": "// SPDX-License-Identifier: GPL-3.0\npragma solidity >=0.7.0 <0.9.0;\n\nimport \"@luckymachines/game-core/contracts/src/v0.0/GameController.sol\";\nimport \"./HexplorationBoard.sol\";\nimport \"./HexplorationZone.sol\";\n// Game Tokens\nimport \"./tokens/DayNight.sol\";\nimport \"./tokens/Disaster.sol\";\nimport \"./tokens/Enemy.sol\";\nimport \"./tokens/Item.sol\";\nimport \"./tokens/PlayerStatus.sol\";\n\ncontract HexplorationController is GameController {\n    // functions are meant to be called directly by players by default\n    // we are adding the ability of a Controller Admin or Keeper to\n    // execute the game aspects not directly controlled by players\n    bytes32 public constant KEEPER_ROLE = keccak256(\"KEEPER_ROLE\");\n\n    DayNight internal DAY_NIGHT_TOKEN;\n    Disaster internal DISASTER_TOKEN;\n    Enemy internal ENEMY_TOKEN;\n    Item internal ITEM_TOKEN;\n    PlayerStatus internal PLAYER_STATUS_TOKEN;\n\n    // TODO:\n    // Connect to Chainlink VRF for random seeds when needed\n    // submit move + space choice\n    // use / swap item\n\n    /*\n    Controller can access all game tokens with the following methods:\n\n    function mint(\n        string memory tokenType,\n        uint256 gameID,\n        uint256 quantity\n    )\n\n    function transfer(\n        string memory tokenType,\n        uint256 gameID,\n        uint256 fromPlayerID,\n        uint256 toPlayerID,\n        uint256 quantity\n    )\n*/\n    modifier onlyAdminKeeper() {\n        require(\n            hasRole(DEFAULT_ADMIN_ROLE, _msgSender()) ||\n                hasRole(KEEPER_ROLE, _msgSender()),\n            \"Admin or Keeper role required\"\n        );\n        _;\n    }\n\n    constructor(address adminAddress) GameController(adminAddress) {}\n\n    // Admin Functions\n    function setTokenAddresses(\n        address dayNightAddress,\n        address disasterAddress,\n        address enemyAddress,\n        address itemAddress,\n        address playerStatusAddress\n    ) public onlyRole(DEFAULT_ADMIN_ROLE) {\n        DAY_NIGHT_TOKEN = DayNight(dayNightAddress);\n        DISASTER_TOKEN = Disaster(disasterAddress);\n        ENEMY_TOKEN = Enemy(enemyAddress);\n        ITEM_TOKEN = Item(itemAddress);\n        PLAYER_STATUS_TOKEN = PlayerStatus(playerStatusAddress);\n    }\n\n    function addKeeper(address keeperAddress)\n        public\n        onlyRole(DEFAULT_ADMIN_ROLE)\n    {\n        grantRole(KEEPER_ROLE, keeperAddress);\n    }\n\n    // Admin or Keeper Interactions\n    function runBoardUpdate(address boardAddress) public {\n        HexplorationBoard(boardAddress).runUpdate();\n    }\n\n    function startGame(uint256 gameID, address boardAddress) public {\n        HexplorationBoard board = HexplorationBoard(boardAddress);\n        require(board.gameState(gameID) == 0, \"game already started\");\n\n        PlayerRegistry pr = PlayerRegistry(board.prAddress());\n        board.lockRegistration(gameID);\n        uint256 totalRegistrations = pr.totalRegistrations(gameID);\n        string memory startZone = board.initialPlayZone(gameID);\n        for (uint256 i = 0; i < totalRegistrations; i++) {\n            address playerAddress = pr.playerAddress(gameID, i + 1);\n            board.enterPlayer(playerAddress, gameID, startZone);\n        }\n        // set game to initialized\n        board.setGameState(2, gameID);\n\n        // mint game tokens (maybe mint on demand instead...)\n        // minting full game set here\n        DAY_NIGHT_TOKEN.mint(\"Day\", gameID, 1);\n        DAY_NIGHT_TOKEN.mint(\"Night\", gameID, 1);\n        DISASTER_TOKEN.mint(\"Earthquake\", gameID, 1000);\n        DISASTER_TOKEN.mint(\"Volcano\", gameID, 1000);\n        ENEMY_TOKEN.mint(\"Pirate\", gameID, 1000);\n        ENEMY_TOKEN.mint(\"Pirate Ship\", gameID, 1000);\n        ENEMY_TOKEN.mint(\"Deathbot\", gameID, 1000);\n        ENEMY_TOKEN.mint(\"Guardian\", gameID, 1000);\n        ENEMY_TOKEN.mint(\"Sandworm\", gameID, 1000);\n        ENEMY_TOKEN.mint(\"Dragon\", gameID, 1000);\n        ITEM_TOKEN.mint(\"Small Ammo\", gameID, 1000);\n        ITEM_TOKEN.mint(\"Large Ammo\", gameID, 1000);\n        ITEM_TOKEN.mint(\"Batteries\", gameID, 1000);\n        ITEM_TOKEN.mint(\"Shield\", gameID, 1000);\n        ITEM_TOKEN.mint(\"Portal\", gameID, 1000);\n        ITEM_TOKEN.mint(\"On\", gameID, 1000);\n        ITEM_TOKEN.mint(\"Off\", gameID, 1000);\n        PLAYER_STATUS_TOKEN.mint(\"Stunned\", gameID, 1000);\n        PLAYER_STATUS_TOKEN.mint(\"Burned\", gameID, 1000);\n        // Transfer day token to board\n        DAY_NIGHT_TOKEN.transfer(\"Day\", gameID, 0, 1, 1);\n    }\n\n    //Player Interactions\n    function registerForGame(uint256 gameID, address boardAddress) public {\n        HexplorationBoard board = HexplorationBoard(boardAddress);\n        board.registerPlayer(msg.sender, gameID);\n    }\n\n    function moveThroughPath(\n        string[] memory zonePath,\n        uint256 gameID,\n        address boardAddress\n    ) public {\n        // TODO:\n        // verify move is valid\n        // pick tiles from deck\n        HexplorationBoard board = HexplorationBoard(boardAddress);\n        PlayerRegistry pr = PlayerRegistry(board.prAddress());\n        require(pr.isRegistered(gameID, msg.sender), \"player not registered\");\n\n        HexplorationZone.Tile[] memory tiles = new HexplorationZone.Tile[](\n            zonePath.length\n        );\n        for (uint256 i = 0; i < zonePath.length; i++) {\n            tiles[i] = i == 0 ? HexplorationZone.Tile.Jungle : i == 1\n                ? HexplorationZone.Tile.Plains\n                : HexplorationZone.Tile.Mountain;\n        }\n\n        HexplorationBoard(boardAddress).moveThroughPath(\n            zonePath,\n            msg.sender,\n            gameID,\n            tiles\n        );\n    }\n\n    function chooseLandingSite(\n        string memory zoneChoice,\n        uint256 gameID,\n        address boardAddress\n    ) public {\n        // TODO: decide if this is done by a leader or automatically\n        // game will begin and registration locked after this...\n        HexplorationBoard board = HexplorationBoard(boardAddress);\n        PlayerRegistry pr = PlayerRegistry(board.prAddress());\n        require(pr.isRegistered(gameID, msg.sender), \"player not registered\");\n\n        board.enableZone(zoneChoice, HexplorationZone.Tile.LandingSite, gameID);\n        // set landing site at space on board\n        board.setInitialPlayZone(zoneChoice, gameID);\n    }\n\n    // TODO: limit this to authorized game starters\n    function requestNewGame(address gameRegistryAddress, address boardAddress)\n        public\n    {\n        HexplorationBoard board = HexplorationBoard(boardAddress);\n        board.requestNewGame(gameRegistryAddress);\n    }\n\n    function latestGame(address gameRegistryAddress, address boardAddress)\n        public\n        view\n        returns (uint256)\n    {\n        return GameRegistry(gameRegistryAddress).latestGame(boardAddress);\n    }\n}\n",
  "sourcePath": "/Users/maxmeier/Developer/Lucky Machines/hexploration/contracts/HexplorationController.sol",
  "compiler": {
    "name": "solc",
    "version": "0.8.11+commit.d7f03943.Emscripten.clang"
  },
  "schemaVersion": "3.4.4",
  "updatedAt": "2022-05-15T21:26:05.240Z",
  "networkType": "ethereum",
  "devdoc": {
    "kind": "dev",
    "methods": {
      "getRoleAdmin(bytes32)": {
        "details": "Returns the admin role that controls `role`. See {grantRole} and {revokeRole}. To change a role's admin, use {_setRoleAdmin}."
      },
      "getRoleMember(bytes32,uint256)": {
        "details": "Returns one of the accounts that have `role`. `index` must be a value between 0 and {getRoleMemberCount}, non-inclusive. Role bearers are not sorted in any particular way, and their ordering may change at any point. WARNING: When using {getRoleMember} and {getRoleMemberCount}, make sure you perform all queries on the same block. See the following https://forum.openzeppelin.com/t/iterating-over-elements-on-enumerableset-in-openzeppelin-contracts/2296[forum post] for more information."
      },
      "getRoleMemberCount(bytes32)": {
        "details": "Returns the number of accounts that have `role`. Can be used together with {getRoleMember} to enumerate all bearers of a role."
      },
      "grantRole(bytes32,address)": {
        "details": "Grants `role` to `account`. If `account` had not been already granted `role`, emits a {RoleGranted} event. Requirements: - the caller must have ``role``'s admin role."
      },
      "hasRole(bytes32,address)": {
        "details": "Returns `true` if `account` has been granted `role`."
      },
      "renounceRole(bytes32,address)": {
        "details": "Revokes `role` from the calling account. Roles are often managed via {grantRole} and {revokeRole}: this function's purpose is to provide a mechanism for accounts to lose their privileges if they are compromised (such as when a trusted device is misplaced). If the calling account had been revoked `role`, emits a {RoleRevoked} event. Requirements: - the caller must be `account`."
      },
      "revokeRole(bytes32,address)": {
        "details": "Revokes `role` from `account`. If `account` had been granted `role`, emits a {RoleRevoked} event. Requirements: - the caller must have ``role``'s admin role."
      },
      "supportsInterface(bytes4)": {
        "details": "See {IERC165-supportsInterface}."
      }
    },
    "version": 1
  },
  "userdoc": {
    "kind": "user",
    "methods": {},
    "version": 1
  }
}