{
  "contractName": "HexplorationStateUpdate",
  "abi": [
    {
      "inputs": [
        {
          "internalType": "address",
          "name": "gameBoardAddress",
          "type": "address"
        }
      ],
      "stateMutability": "nonpayable",
      "type": "constructor"
    },
    {
      "anonymous": false,
      "inputs": [
        {
          "indexed": true,
          "internalType": "bytes32",
          "name": "role",
          "type": "bytes32"
        },
        {
          "indexed": true,
          "internalType": "bytes32",
          "name": "previousAdminRole",
          "type": "bytes32"
        },
        {
          "indexed": true,
          "internalType": "bytes32",
          "name": "newAdminRole",
          "type": "bytes32"
        }
      ],
      "name": "RoleAdminChanged",
      "type": "event"
    },
    {
      "anonymous": false,
      "inputs": [
        {
          "indexed": true,
          "internalType": "bytes32",
          "name": "role",
          "type": "bytes32"
        },
        {
          "indexed": true,
          "internalType": "address",
          "name": "account",
          "type": "address"
        },
        {
          "indexed": true,
          "internalType": "address",
          "name": "sender",
          "type": "address"
        }
      ],
      "name": "RoleGranted",
      "type": "event"
    },
    {
      "anonymous": false,
      "inputs": [
        {
          "indexed": true,
          "internalType": "bytes32",
          "name": "role",
          "type": "bytes32"
        },
        {
          "indexed": true,
          "internalType": "address",
          "name": "account",
          "type": "address"
        },
        {
          "indexed": true,
          "internalType": "address",
          "name": "sender",
          "type": "address"
        }
      ],
      "name": "RoleRevoked",
      "type": "event"
    },
    {
      "inputs": [],
      "name": "DEFAULT_ADMIN_ROLE",
      "outputs": [
        {
          "internalType": "bytes32",
          "name": "",
          "type": "bytes32"
        }
      ],
      "stateMutability": "view",
      "type": "function",
      "constant": true
    },
    {
      "inputs": [],
      "name": "VERIFIED_CONTROLLER_ROLE",
      "outputs": [
        {
          "internalType": "bytes32",
          "name": "",
          "type": "bytes32"
        }
      ],
      "stateMutability": "view",
      "type": "function",
      "constant": true
    },
    {
      "inputs": [
        {
          "internalType": "bytes32",
          "name": "role",
          "type": "bytes32"
        }
      ],
      "name": "getRoleAdmin",
      "outputs": [
        {
          "internalType": "bytes32",
          "name": "",
          "type": "bytes32"
        }
      ],
      "stateMutability": "view",
      "type": "function",
      "constant": true
    },
    {
      "inputs": [
        {
          "internalType": "bytes32",
          "name": "role",
          "type": "bytes32"
        },
        {
          "internalType": "uint256",
          "name": "index",
          "type": "uint256"
        }
      ],
      "name": "getRoleMember",
      "outputs": [
        {
          "internalType": "address",
          "name": "",
          "type": "address"
        }
      ],
      "stateMutability": "view",
      "type": "function",
      "constant": true
    },
    {
      "inputs": [
        {
          "internalType": "bytes32",
          "name": "role",
          "type": "bytes32"
        }
      ],
      "name": "getRoleMemberCount",
      "outputs": [
        {
          "internalType": "uint256",
          "name": "",
          "type": "uint256"
        }
      ],
      "stateMutability": "view",
      "type": "function",
      "constant": true
    },
    {
      "inputs": [
        {
          "internalType": "bytes32",
          "name": "role",
          "type": "bytes32"
        },
        {
          "internalType": "address",
          "name": "account",
          "type": "address"
        }
      ],
      "name": "grantRole",
      "outputs": [],
      "stateMutability": "nonpayable",
      "type": "function"
    },
    {
      "inputs": [
        {
          "internalType": "bytes32",
          "name": "role",
          "type": "bytes32"
        },
        {
          "internalType": "address",
          "name": "account",
          "type": "address"
        }
      ],
      "name": "hasRole",
      "outputs": [
        {
          "internalType": "bool",
          "name": "",
          "type": "bool"
        }
      ],
      "stateMutability": "view",
      "type": "function",
      "constant": true
    },
    {
      "inputs": [
        {
          "internalType": "bytes32",
          "name": "role",
          "type": "bytes32"
        },
        {
          "internalType": "address",
          "name": "account",
          "type": "address"
        }
      ],
      "name": "renounceRole",
      "outputs": [],
      "stateMutability": "nonpayable",
      "type": "function"
    },
    {
      "inputs": [
        {
          "internalType": "bytes32",
          "name": "role",
          "type": "bytes32"
        },
        {
          "internalType": "address",
          "name": "account",
          "type": "address"
        }
      ],
      "name": "revokeRole",
      "outputs": [],
      "stateMutability": "nonpayable",
      "type": "function"
    },
    {
      "inputs": [
        {
          "internalType": "bytes4",
          "name": "interfaceId",
          "type": "bytes4"
        }
      ],
      "name": "supportsInterface",
      "outputs": [
        {
          "internalType": "bool",
          "name": "",
          "type": "bool"
        }
      ],
      "stateMutability": "view",
      "type": "function",
      "constant": true
    },
    {
      "inputs": [
        {
          "internalType": "address",
          "name": "vcAddress",
          "type": "address"
        }
      ],
      "name": "addVerifiedController",
      "outputs": [],
      "stateMutability": "nonpayable",
      "type": "function"
    },
    {
      "inputs": [
        {
          "internalType": "uint256[]",
          "name": "intUpdates",
          "type": "uint256[]"
        },
        {
          "internalType": "string[]",
          "name": "stringUpdates",
          "type": "string[]"
        },
        {
          "internalType": "uint256",
          "name": "gameID",
          "type": "uint256"
        }
      ],
      "name": "postUpdates",
      "outputs": [],
      "stateMutability": "nonpayable",
      "type": "function"
    },
    {
      "inputs": [
        {
          "internalType": "string[]",
          "name": "zonePath",
          "type": "string[]"
        },
        {
          "internalType": "uint256",
          "name": "gameID",
          "type": "uint256"
        },
        {
          "internalType": "uint256",
          "name": "playerID",
          "type": "uint256"
        }
      ],
      "name": "moveThroughPath",
      "outputs": [],
      "stateMutability": "nonpayable",
      "type": "function"
    }
  ],
  "bytecode": "0x60806040523480156200001157600080fd5b50604051620014e2380380620014e2833981016040819052620000349162000244565b6200005c60006200004d64010000000062000082810204565b64010000000062000086810204565b60028054600160a060020a031916600160a060020a039290921691909117905562000276565b3390565b6200009b82826401000000006200009f810204565b5050565b620000b9828264010000000062000555620000e682021704565b6000828152600160205260409020620000e19082640100000000620005d96200018282021704565b505050565b620000fb8282640100000000620001ab810204565b6200009b57600082815260208181526040808320600160a060020a03851684529091529020805460ff191660011790556200013e64010000000062000082810204565b600160a060020a031681600160a060020a0316837f2f8788117e7eff1d82e926ec794901d17c78024a50270940304540a733656f0d60405160405180910390a45050565b6000620001a283600160a060020a038416640100000000620001d4810204565b90505b92915050565b600091825260208281526040808420600160a060020a0393909316845291905290205460ff1690565b6000620001eb83836401000000006200022c810204565b6200022357508154600181810184556000848152602080822090930184905584548482528286019093526040902091909155620001a5565b506000620001a5565b60009081526001919091016020526040902054151590565b6000602082840312156200025757600080fd5b8151600160a060020a03811681146200026f57600080fd5b9392505050565b61125c80620002866000396000f3fe608060405234801561001057600080fd5b50600436106100dc576000357c0100000000000000000000000000000000000000000000000000000000900480636776e3d0116100995780636776e3d01461018a5780639010d07c1461019d57806391d14854146101c8578063a217fddf146101db578063ca15c873146101e3578063d4f5b152146101f6578063d547741f1461020957600080fd5b806301ffc9a7146100e15780631c834a7f14610109578063248a9ca31461012c5780632f2ff15d1461014f57806336568abe14610164578063661409ff14610177575b600080fd5b6100f46100ef366004610c42565b61021c565b60405190151581526020015b60405180910390f35b61011e60008051602061120783398151915281565b604051908152602001610100565b61011e61013a366004610c6c565b60009081526020819052604090206001015490565b61016261015d366004610ca1565b610260565b005b610162610172366004610ca1565b61028a565b610162610185366004610e21565b61031e565b610162610198366004610e6f565b610485565b6101b06101ab366004610f2e565b6104ae565b604051600160a060020a039091168152602001610100565b6100f46101d6366004610ca1565b6104cd565b61011e600081565b61011e6101f1366004610c6c565b6104f6565b610162610204366004610f50565b61050d565b610162610217366004610ca1565b610530565b6000600160e060020a031982167f5a05180f00000000000000000000000000000000000000000000000000000000148061025a575061025a826105ee565b92915050565b60008281526020819052604090206001015461027b81610655565b6102858383610662565b505050565b600160a060020a03811633146103105760405160e560020a62461bcd02815260206004820152602f60248201527f416363657373436f6e74726f6c3a2063616e206f6e6c792072656e6f756e636560448201527f20726f6c657320666f722073656c66000000000000000000000000000000000060648201526084015b60405180910390fd5b61031a8282610684565b5050565b60008051602061120783398151915261033681610655565b6000845167ffffffffffffffff81111561035257610352610ccd565b60405190808252806020026020018201604052801561037b578160200160208202803683370190505b50905060005b85518110156103fc5780156103a6578060011461039f5760046103a9565b60026103a9565b60015b8282815181106103bb576103bb610f6b565b6020026020010190600b8111156103d4576103d4610f84565b9081600b8111156103e7576103e7610f84565b905250806103f481610fb6565b915050610381565b506002546040517f235232d0000000000000000000000000000000000000000000000000000000008152600160a060020a039091169063235232d09061044c908890879089908790600401611029565b600060405180830381600087803b15801561046657600080fd5b505af115801561047a573d6000803e3d6000fd5b505050505050505050565b60008051602061120783398151915261049d81610655565b6104a88484846106a6565b50505050565b60008281526001602052604081206104c690836107dd565b9392505050565b600091825260208281526040808420600160a060020a0393909316845291905290205460ff1690565b600081815260016020526040812061025a906107e9565b600061051881610655565b61031a60008051602061120783398151915283610260565b60008281526020819052604090206001015461054b81610655565b6102858383610684565b61055f82826104cd565b61031a57600082815260208181526040808320600160a060020a03851684529091529020805460ff191660011790556105953390565b600160a060020a031681600160a060020a0316837f2f8788117e7eff1d82e926ec794901d17c78024a50270940304540a733656f0d60405160405180910390a45050565b60006104c683600160a060020a0384166107f3565b6000600160e060020a031982167f7965db0b00000000000000000000000000000000000000000000000000000000148061025a57507f01ffc9a700000000000000000000000000000000000000000000000000000000600160e060020a031983161461025a565b61065f8133610842565b50565b61066c8282610555565b600082815260016020526040902061028590826105d9565b61068e82826108a9565b6000828152600160205260409020610285908261090e565b60408051600380825260808201909252600091816020015b60608152602001906001900390816106be5790505090506040518060400160405280600381526020017f312c3400000000000000000000000000000000000000000000000000000000008152508160008151811061071e5761071e610f6b565b60200260200101819052506040518060400160405280600381526020017f322c3400000000000000000000000000000000000000000000000000000000008152508160018151811061077257610772610f6b565b60200260200101819052506040518060400160405280600381526020017f332c350000000000000000000000000000000000000000000000000000000000815250816002815181106107c6576107c6610f6b565b60200260200101819052506104a88183600161031e565b60006104c68383610923565b600061025a825490565b600081815260018301602052604081205461083a5750815460018181018455600084815260208082209093018490558454848252828601909352604090209190915561025a565b50600061025a565b61084c82826104cd565b61031a5761086481600160a060020a0316601461094d565b61086f83602061094d565b6040516020016108809291906110f4565b60408051601f198184030181529082905260e560020a62461bcd02825261030791600401611175565b6108b382826104cd565b1561031a57600082815260208181526040808320600160a060020a0385168085529252808320805460ff1916905551339285917ff6391f5c32d9c69d2a47ea670b442974b53935d1edc7fd64eb21e047a839171b9190a45050565b60006104c683600160a060020a038416610b4f565b600082600001828154811061093a5761093a610f6b565b9060005260206000200154905092915050565b6060600061095c836002611188565b6109679060026111a7565b67ffffffffffffffff81111561097f5761097f610ccd565b6040519080825280601f01601f1916602001820160405280156109a9576020820181803683370190505b5090507f3000000000000000000000000000000000000000000000000000000000000000816000815181106109e0576109e0610f6b565b6020010190600160f860020a031916908160001a9053507f780000000000000000000000000000000000000000000000000000000000000081600181518110610a2b57610a2b610f6b565b6020010190600160f860020a031916908160001a9053506000610a4f846002611188565b610a5a9060016111a7565b90505b6001811115610afd577f303132333435363738396162636465660000000000000000000000000000000085600f1660108110610a9b57610a9b610f6b565b1a7f010000000000000000000000000000000000000000000000000000000000000002828281518110610ad057610ad0610f6b565b6020010190600160f860020a031916908160001a905350601090940493610af6816111bf565b9050610a5d565b5083156104c65760405160e560020a62461bcd02815260206004820181905260248201527f537472696e67733a20686578206c656e67746820696e73756666696369656e746044820152606401610307565b60008181526001830160205260408120548015610c38576000610b736001836111d6565b8554909150600090610b87906001906111d6565b9050818114610bec576000866000018281548110610ba757610ba7610f6b565b9060005260206000200154905080876000018481548110610bca57610bca610f6b565b6000918252602080832090910192909255918252600188019052604090208390555b8554869080610bfd57610bfd6111ed565b60019003818190600052602060002001600090559055856001016000868152602001908152602001600020600090556001935050505061025a565b600091505061025a565b600060208284031215610c5457600080fd5b8135600160e060020a0319811681146104c657600080fd5b600060208284031215610c7e57600080fd5b5035919050565b8035600160a060020a0381168114610c9c57600080fd5b919050565b60008060408385031215610cb457600080fd5b82359150610cc460208401610c85565b90509250929050565b60e060020a634e487b7102600052604160045260246000fd5b604051601f8201601f1916810167ffffffffffffffff81118282101715610d0f57610d0f610ccd565b604052919050565b600067ffffffffffffffff821115610d3157610d31610ccd565b5060209081020190565b6000601f8381840112610d4d57600080fd5b82356020610d62610d5d83610d17565b610ce6565b82815291810285018101918181019087841115610d7e57600080fd5b8287015b84811015610e1557803567ffffffffffffffff80821115610da35760008081fd5b818a0191508a603f830112610db85760008081fd5b85820135604082821115610dce57610dce610ccd565b610ddf828b01601f19168901610ce6565b92508183528c81838601011115610df65760008081fd5b8181850189850137506000908201870152845250918301918301610d82565b50979650505050505050565b600080600060608486031215610e3657600080fd5b833567ffffffffffffffff811115610e4d57600080fd5b610e5986828701610d3b565b9660208601359650604090950135949350505050565b600080600060608486031215610e8457600080fd5b833567ffffffffffffffff80821115610e9c57600080fd5b818601915086601f830112610eb057600080fd5b81356020610ec0610d5d83610d17565b8281529181028401810191818101908a841115610edc57600080fd5b948201945b83861015610efa57853582529482019490820190610ee1565b97505087013592505080821115610f1057600080fd5b50610f1d86828701610d3b565b925050604084013590509250925092565b60008060408385031215610f4157600080fd5b50508035926020909101359150565b600060208284031215610f6257600080fd5b6104c682610c85565b60e060020a634e487b7102600052603260045260246000fd5b60e060020a634e487b7102600052602160045260246000fd5b60e060020a634e487b7102600052601160045260246000fd5b6000600019821415610fca57610fca610f9d565b5060010190565b60005b83811015610fec578181015183820152602001610fd4565b838111156104a85750506000910152565b60008151808452611015816020860160208601610fd1565b601f01601f19169290920160200192915050565b6000608082016080835280875180835260a0850191506020925060a0838202860101838a0160005b8381101561107f57609f1988840301855261106d838351610ffd565b94860194925090850190600101611051565b505085840189905260408601889052858103606087015286518082529084019250905085830160005b828110156110e5578151600c81106110d35760e060020a634e487b7102600052602160045260246000fd5b845292840192908401906001016110a8565b50919998505050505050505050565b7f416363657373436f6e74726f6c3a206163636f756e742000000000000000000081526000835161112c816017850160208801610fd1565b7f206973206d697373696e6720726f6c65200000000000000000000000000000006017918401918201528351611169816028840160208801610fd1565b01602801949350505050565b6020815260006104c66020830184610ffd565b60008160001904831182151516156111a2576111a2610f9d565b500290565b600082198211156111ba576111ba610f9d565b500190565b6000816111ce576111ce610f9d565b506000190190565b6000828210156111e8576111e8610f9d565b500390565b60e060020a634e487b7102600052603160045260246000fdfe80e2196015fc06a9d891759f8e4f51eb314ef5e9ea068528a8ed0063b87759f0a2646970667358221220dbdb07d730a97df4851baabe59df5959f825fe8052010b78609fdba83db92b9964736f6c634300080b0033",
  "immutableReferences": {},
  "source": "// SPDX-License-Identifier: GPL-3.0\npragma solidity >=0.7.0 <0.9.0;\n\n// TODO: start using this for state updating outside of controller\n// Controller should only be used by users / UI directly sending\n// commands. This does things that can only imagine...\n\n// This should be only associated with one board...\n\nimport \"@luckymachines/game-core/contracts/src/v0.0/GameController.sol\";\nimport \"./HexplorationBoard.sol\";\n\ncontract HexplorationStateUpdate is AccessControlEnumerable {\n    bytes32 public constant VERIFIED_CONTROLLER_ROLE =\n        keccak256(\"VERIFIED_CONTROLLER_ROLE\");\n    /*\n    Controller can access all game tokens with the following methods:\n\n    function mint(\n        string memory tokenType,\n        uint256 gameID,\n        uint256 quantity\n    )\n\n    function transfer(\n        string memory tokenType,\n        uint256 gameID,\n        uint256 fromID,\n        uint256 toID,\n        uint256 quantity\n    )\n*/\n    HexplorationBoard internal GAME_BOARD;\n    modifier onlyAdminVC() {\n        require(\n            hasRole(DEFAULT_ADMIN_ROLE, _msgSender()) ||\n                hasRole(VERIFIED_CONTROLLER_ROLE, _msgSender()),\n            \"Admin or Keeper role required\"\n        );\n        _;\n    }\n\n    constructor(address gameBoardAddress) {\n        _setupRole(DEFAULT_ADMIN_ROLE, _msgSender());\n        GAME_BOARD = HexplorationBoard(gameBoardAddress);\n    }\n\n    // Admin Functions\n\n    function addVerifiedController(address vcAddress)\n        public\n        onlyRole(DEFAULT_ADMIN_ROLE)\n    {\n        grantRole(VERIFIED_CONTROLLER_ROLE, vcAddress);\n    }\n\n    function postUpdates(\n        uint256[] memory intUpdates,\n        string[] memory stringUpdates,\n        uint256 gameID\n    ) public onlyRole(VERIFIED_CONTROLLER_ROLE) {\n        // go through values and post everything, transfer all the tokens, and pray\n        // use gamestate update contract to post everything\n        updatePlayerPositions(intUpdates, stringUpdates, gameID);\n        updatePlayerStats(intUpdates, stringUpdates, gameID);\n        updatePlayerHands(intUpdates, stringUpdates, gameID);\n        transferPlayerItems(intUpdates, stringUpdates, gameID);\n        transferZoneItems(intUpdates, stringUpdates, gameID);\n    }\n\n    function updatePlayerPositions(\n        uint256[] memory intUpdates,\n        string[] memory stringUpdates,\n        uint256 gameID\n    ) internal {\n        //test moving a player...\n        string[] memory movementPath = new string[](3);\n        movementPath[0] = \"1,4\";\n        movementPath[1] = \"2,4\";\n        movementPath[2] = \"3,5\";\n        moveThroughPath(movementPath, gameID, 1);\n    }\n\n    function updatePlayerStats(\n        uint256[] memory intUpdates,\n        string[] memory stringUpdates,\n        uint256 gameID\n    ) internal {}\n\n    function updatePlayerHands(\n        uint256[] memory intUpdates,\n        string[] memory stringUpdates,\n        uint256 gameID\n    ) internal {}\n\n    function transferPlayerItems(\n        uint256[] memory intUpdates,\n        string[] memory stringUpdates,\n        uint256 gameID\n    ) internal {}\n\n    function transferZoneItems(\n        uint256[] memory intUpdates,\n        string[] memory stringUpdates,\n        uint256 gameID\n    ) internal {}\n\n    function moveThroughPath(\n        string[] memory zonePath,\n        uint256 gameID,\n        uint256 playerID\n    ) public onlyRole(VERIFIED_CONTROLLER_ROLE) {\n        //TODO: pick tiles from deck\n\n        HexplorationZone.Tile[] memory tiles = new HexplorationZone.Tile[](\n            zonePath.length\n        );\n        for (uint256 i = 0; i < zonePath.length; i++) {\n            tiles[i] = i == 0 ? HexplorationZone.Tile.Jungle : i == 1\n                ? HexplorationZone.Tile.Plains\n                : HexplorationZone.Tile.Mountain;\n        }\n\n        GAME_BOARD.moveThroughPath(zonePath, playerID, gameID, tiles);\n    }\n}\n",
  "sourcePath": "/Users/maxmeier/Developer/Lucky Machines/hexploration/contracts/HexplorationStateUpdate.sol",
  "compiler": {
    "name": "solc",
    "version": "0.8.11+commit.d7f03943.Emscripten.clang"
  },
  "schemaVersion": "3.4.4",
  "updatedAt": "2022-05-23T17:39:36.514Z",
  "networkType": "ethereum",
  "devdoc": {
    "kind": "dev",
    "methods": {
      "getRoleAdmin(bytes32)": {
        "details": "Returns the admin role that controls `role`. See {grantRole} and {revokeRole}. To change a role's admin, use {_setRoleAdmin}."
      },
      "getRoleMember(bytes32,uint256)": {
        "details": "Returns one of the accounts that have `role`. `index` must be a value between 0 and {getRoleMemberCount}, non-inclusive. Role bearers are not sorted in any particular way, and their ordering may change at any point. WARNING: When using {getRoleMember} and {getRoleMemberCount}, make sure you perform all queries on the same block. See the following https://forum.openzeppelin.com/t/iterating-over-elements-on-enumerableset-in-openzeppelin-contracts/2296[forum post] for more information."
      },
      "getRoleMemberCount(bytes32)": {
        "details": "Returns the number of accounts that have `role`. Can be used together with {getRoleMember} to enumerate all bearers of a role."
      },
      "grantRole(bytes32,address)": {
        "details": "Grants `role` to `account`. If `account` had not been already granted `role`, emits a {RoleGranted} event. Requirements: - the caller must have ``role``'s admin role."
      },
      "hasRole(bytes32,address)": {
        "details": "Returns `true` if `account` has been granted `role`."
      },
      "renounceRole(bytes32,address)": {
        "details": "Revokes `role` from the calling account. Roles are often managed via {grantRole} and {revokeRole}: this function's purpose is to provide a mechanism for accounts to lose their privileges if they are compromised (such as when a trusted device is misplaced). If the calling account had been revoked `role`, emits a {RoleRevoked} event. Requirements: - the caller must be `account`."
      },
      "revokeRole(bytes32,address)": {
        "details": "Revokes `role` from `account`. If `account` had been granted `role`, emits a {RoleRevoked} event. Requirements: - the caller must have ``role``'s admin role."
      },
      "supportsInterface(bytes4)": {
        "details": "See {IERC165-supportsInterface}."
      }
    },
    "version": 1
  },
  "userdoc": {
    "kind": "user",
    "methods": {},
    "version": 1
  }
}