{
  "contractName": "HexplorationController",
  "abi": [
    {
      "inputs": [
        {
          "internalType": "address",
          "name": "adminAddress",
          "type": "address"
        }
      ],
      "stateMutability": "nonpayable",
      "type": "constructor"
    },
    {
      "anonymous": false,
      "inputs": [
        {
          "indexed": true,
          "internalType": "bytes32",
          "name": "role",
          "type": "bytes32"
        },
        {
          "indexed": true,
          "internalType": "bytes32",
          "name": "previousAdminRole",
          "type": "bytes32"
        },
        {
          "indexed": true,
          "internalType": "bytes32",
          "name": "newAdminRole",
          "type": "bytes32"
        }
      ],
      "name": "RoleAdminChanged",
      "type": "event"
    },
    {
      "anonymous": false,
      "inputs": [
        {
          "indexed": true,
          "internalType": "bytes32",
          "name": "role",
          "type": "bytes32"
        },
        {
          "indexed": true,
          "internalType": "address",
          "name": "account",
          "type": "address"
        },
        {
          "indexed": true,
          "internalType": "address",
          "name": "sender",
          "type": "address"
        }
      ],
      "name": "RoleGranted",
      "type": "event"
    },
    {
      "anonymous": false,
      "inputs": [
        {
          "indexed": true,
          "internalType": "bytes32",
          "name": "role",
          "type": "bytes32"
        },
        {
          "indexed": true,
          "internalType": "address",
          "name": "account",
          "type": "address"
        },
        {
          "indexed": true,
          "internalType": "address",
          "name": "sender",
          "type": "address"
        }
      ],
      "name": "RoleRevoked",
      "type": "event"
    },
    {
      "inputs": [],
      "name": "DEFAULT_ADMIN_ROLE",
      "outputs": [
        {
          "internalType": "bytes32",
          "name": "",
          "type": "bytes32"
        }
      ],
      "stateMutability": "view",
      "type": "function",
      "constant": true
    },
    {
      "inputs": [],
      "name": "KEEPER_ROLE",
      "outputs": [
        {
          "internalType": "bytes32",
          "name": "",
          "type": "bytes32"
        }
      ],
      "stateMutability": "view",
      "type": "function",
      "constant": true
    },
    {
      "inputs": [
        {
          "internalType": "uint256",
          "name": "pathIndex",
          "type": "uint256"
        },
        {
          "internalType": "uint256",
          "name": "gameID",
          "type": "uint256"
        },
        {
          "internalType": "address",
          "name": "gameBoardAddress",
          "type": "address"
        }
      ],
      "name": "exitToPath",
      "outputs": [],
      "stateMutability": "nonpayable",
      "type": "function"
    },
    {
      "inputs": [
        {
          "internalType": "bytes32",
          "name": "role",
          "type": "bytes32"
        }
      ],
      "name": "getRoleAdmin",
      "outputs": [
        {
          "internalType": "bytes32",
          "name": "",
          "type": "bytes32"
        }
      ],
      "stateMutability": "view",
      "type": "function",
      "constant": true
    },
    {
      "inputs": [
        {
          "internalType": "bytes32",
          "name": "role",
          "type": "bytes32"
        },
        {
          "internalType": "uint256",
          "name": "index",
          "type": "uint256"
        }
      ],
      "name": "getRoleMember",
      "outputs": [
        {
          "internalType": "address",
          "name": "",
          "type": "address"
        }
      ],
      "stateMutability": "view",
      "type": "function",
      "constant": true
    },
    {
      "inputs": [
        {
          "internalType": "bytes32",
          "name": "role",
          "type": "bytes32"
        }
      ],
      "name": "getRoleMemberCount",
      "outputs": [
        {
          "internalType": "uint256",
          "name": "",
          "type": "uint256"
        }
      ],
      "stateMutability": "view",
      "type": "function",
      "constant": true
    },
    {
      "inputs": [
        {
          "internalType": "bytes32",
          "name": "role",
          "type": "bytes32"
        },
        {
          "internalType": "address",
          "name": "account",
          "type": "address"
        }
      ],
      "name": "grantRole",
      "outputs": [],
      "stateMutability": "nonpayable",
      "type": "function"
    },
    {
      "inputs": [
        {
          "internalType": "bytes32",
          "name": "role",
          "type": "bytes32"
        },
        {
          "internalType": "address",
          "name": "account",
          "type": "address"
        }
      ],
      "name": "hasRole",
      "outputs": [
        {
          "internalType": "bool",
          "name": "",
          "type": "bool"
        }
      ],
      "stateMutability": "view",
      "type": "function",
      "constant": true
    },
    {
      "inputs": [
        {
          "internalType": "bytes32",
          "name": "role",
          "type": "bytes32"
        },
        {
          "internalType": "address",
          "name": "account",
          "type": "address"
        }
      ],
      "name": "renounceRole",
      "outputs": [],
      "stateMutability": "nonpayable",
      "type": "function"
    },
    {
      "inputs": [
        {
          "internalType": "bytes32",
          "name": "role",
          "type": "bytes32"
        },
        {
          "internalType": "address",
          "name": "account",
          "type": "address"
        }
      ],
      "name": "revokeRole",
      "outputs": [],
      "stateMutability": "nonpayable",
      "type": "function"
    },
    {
      "inputs": [
        {
          "internalType": "bytes4",
          "name": "interfaceId",
          "type": "bytes4"
        }
      ],
      "name": "supportsInterface",
      "outputs": [
        {
          "internalType": "bool",
          "name": "",
          "type": "bool"
        }
      ],
      "stateMutability": "view",
      "type": "function",
      "constant": true
    },
    {
      "inputs": [
        {
          "internalType": "address",
          "name": "dayNightAddress",
          "type": "address"
        },
        {
          "internalType": "address",
          "name": "disasterAddress",
          "type": "address"
        },
        {
          "internalType": "address",
          "name": "enemyAddress",
          "type": "address"
        },
        {
          "internalType": "address",
          "name": "itemAddress",
          "type": "address"
        },
        {
          "internalType": "address",
          "name": "playerStatusAddress",
          "type": "address"
        }
      ],
      "name": "setTokenAddresses",
      "outputs": [],
      "stateMutability": "nonpayable",
      "type": "function"
    },
    {
      "inputs": [
        {
          "internalType": "address",
          "name": "keeperAddress",
          "type": "address"
        }
      ],
      "name": "addKeeper",
      "outputs": [],
      "stateMutability": "nonpayable",
      "type": "function"
    },
    {
      "inputs": [
        {
          "internalType": "address",
          "name": "boardAddress",
          "type": "address"
        }
      ],
      "name": "runBoardUpdate",
      "outputs": [],
      "stateMutability": "nonpayable",
      "type": "function"
    },
    {
      "inputs": [
        {
          "internalType": "uint256",
          "name": "gameID",
          "type": "uint256"
        },
        {
          "internalType": "address",
          "name": "boardAddress",
          "type": "address"
        }
      ],
      "name": "startGame",
      "outputs": [],
      "stateMutability": "nonpayable",
      "type": "function"
    },
    {
      "inputs": [
        {
          "internalType": "string[]",
          "name": "zonePath",
          "type": "string[]"
        },
        {
          "internalType": "uint256",
          "name": "gameID",
          "type": "uint256"
        },
        {
          "internalType": "address",
          "name": "boardAddress",
          "type": "address"
        }
      ],
      "name": "moveThroughPath",
      "outputs": [],
      "stateMutability": "nonpayable",
      "type": "function"
    },
    {
      "inputs": [
        {
          "internalType": "string",
          "name": "zoneChoice",
          "type": "string"
        },
        {
          "internalType": "uint256",
          "name": "gameID",
          "type": "uint256"
        },
        {
          "internalType": "address",
          "name": "boardAddress",
          "type": "address"
        }
      ],
      "name": "chooseLandingSite",
      "outputs": [],
      "stateMutability": "nonpayable",
      "type": "function"
    },
    {
      "inputs": [
        {
          "internalType": "address",
          "name": "gameRegistryAddress",
          "type": "address"
        },
        {
          "internalType": "address",
          "name": "boardAddress",
          "type": "address"
        }
      ],
      "name": "requestNewGame",
      "outputs": [],
      "stateMutability": "nonpayable",
      "type": "function"
    },
    {
      "inputs": [
        {
          "internalType": "address",
          "name": "gameRegistryAddress",
          "type": "address"
        },
        {
          "internalType": "address",
          "name": "boardAddress",
          "type": "address"
        }
      ],
      "name": "latestGame",
      "outputs": [
        {
          "internalType": "uint256",
          "name": "",
          "type": "uint256"
        }
      ],
      "stateMutability": "view",
      "type": "function",
      "constant": true
    }
  ],
  "bytecode": "0x60806040523480156200001157600080fd5b5060405162002cd838038062002cd8833981016040819052620000349162000215565b806200004b60008264010000000062000053810204565b505062000247565b6200006882826401000000006200006c810204565b5050565b62000086828264010000000062001c07620000b382021704565b6000828152600160205260409020620000ae908264010000000062001c8b6200014f82021704565b505050565b620000c8828264010000000062000178810204565b6200006857600082815260208181526040808320600160a060020a03851684529091529020805460ff191660011790556200010b640100000000620001a1810204565b600160a060020a031681600160a060020a0316837f2f8788117e7eff1d82e926ec794901d17c78024a50270940304540a733656f0d60405160405180910390a45050565b60006200016f83600160a060020a038416640100000000620001a5810204565b90505b92915050565b600091825260208281526040808420600160a060020a0393909316845291905290205460ff1690565b3390565b6000620001bc8383640100000000620001fd810204565b620001f45750815460018181018455600084815260208082209093018490558454848252828601909352604090209190915562000172565b50600062000172565b60009081526001919091016020526040902054151590565b6000602082840312156200022857600080fd5b8151600160a060020a03811681146200024057600080fd5b9392505050565b612a8180620002576000396000f3fe608060405234801561001057600080fd5b50600436106101255760003560e060020a900480637479c8fe116100b1578063c3ef701311610075578063c3ef70131461028a578063ca15c8731461029d578063d547741f146102b0578063e8b35086146102c3578063f3297df9146102d657600080fd5b80637479c8fe1461021e5780639010d07c1461023157806391d148541461025c578063975eef261461026f578063a217fddf1461028257600080fd5b806336568abe116100f857806336568abe146101bf5780634032b72b146101d25780634bde808c146101e5578063621cc08d146101f8578063661e05661461020b57600080fd5b806301ffc9a71461012a578063248a9ca3146101525780632f2ff15d14610183578063364bc15a14610198575b600080fd5b61013d610138366004612205565b6102e9565b60405190151581526020015b60405180910390f35b61017561016036600461222f565b60009081526020819052604090206001015490565b604051908152602001610149565b61019661019136600461226d565b61032d565b005b6101757ffc8737ab85eb45125971625a9ebdb75cc78e01d5c1fa80c4c6e5203f47bc4fab81565b6101966101cd36600461226d565b610357565b6101966101e036600461229d565b6103eb565b6101966101f3366004612382565b610420565b61019661020636600461226d565b6106b2565b61019661021936600461245e565b6116d6565b61019661022c36600461248c565b611752565b61024461023f3660046124c5565b6117e9565b604051600160a060020a039091168152602001610149565b61013d61026a36600461226d565b611808565b61017561027d36600461245e565b611831565b610175600081565b61019661029836600461229d565b6118b8565b6101756102ab36600461222f565b611911565b6101966102be36600461226d565b611928565b6101966102d13660046124e7565b61194d565b6101966102e4366004612558565b6119c5565b6000600160e060020a031982167f5a05180f000000000000000000000000000000000000000000000000000000001480610327575061032782611ca0565b92915050565b60008281526020819052604090206001015461034881611d07565b6103528383611d14565b505050565b600160a060020a03811633146103dd5760405160e560020a62461bcd02815260206004820152602f60248201527f416363657373436f6e74726f6c3a2063616e206f6e6c792072656e6f756e636560448201527f20726f6c657320666f722073656c66000000000000000000000000000000000060648201526084015b60405180910390fd5b6103e78282611d36565b5050565b60006103f681611d07565b6103e77ffc8737ab85eb45125971625a9ebdb75cc78e01d5c1fa80c4c6e5203f47bc4fab8361032d565b6000819050600081600160a060020a031663c06dea4e6040518163ffffffff1660e060020a028152600401602060405180830381865afa158015610468573d6000803e3d6000fd5b505050506040513d601f19601f8201168201806040525081019061048c91906125a8565b6040517fb81f6e1800000000000000000000000000000000000000000000000000000000815260048101869052336024820152909150600160a060020a0382169063b81f6e1890604401602060405180830381865afa1580156104f3573d6000803e3d6000fd5b505050506040513d601f19601f8201168201806040525081019061051791906125c5565b6105665760405160e560020a62461bcd02815260206004820152601560248201527f706c61796572206e6f742072656769737465726564000000000000000000000060448201526064016103d4565b6000855167ffffffffffffffff811115610582576105826122ba565b6040519080825280602002602001820160405280156105ab578160200160208202803683370190505b50905060005b865181101561062c5780156105d657806001146105cf5760046105d9565b60026105d9565b60015b8282815181106105eb576105eb6125e7565b6020026020010190600b81111561060457610604612600565b9081600b81111561061757610617612600565b9052508061062481612632565b9150506105b1565b506040517f31e019f6000000000000000000000000000000000000000000000000000000008152600160a060020a038516906331e019f69061067890899033908a9087906004016126ca565b600060405180830381600087803b15801561069257600080fd5b505af11580156106a6573d6000803e3d6000fd5b50505050505050505050565b6040517f4e0e1a3e000000000000000000000000000000000000000000000000000000008152600481018390528190600160a060020a03821690634e0e1a3e90602401602060405180830381865afa158015610712573d6000803e3d6000fd5b505050506040513d601f19601f820116820180604052508101906107369190612783565b156107865760405160e560020a62461bcd02815260206004820152601460248201527f67616d6520616c7265616479207374617274656400000000000000000000000060448201526064016103d4565b600081600160a060020a031663c06dea4e6040518163ffffffff1660e060020a028152600401602060405180830381865afa1580156107c9573d6000803e3d6000fd5b505050506040513d601f19601f820116820180604052508101906107ed91906125a8565b6040517f60c2050000000000000000000000000000000000000000000000000000000000815260048101869052909150600160a060020a038316906360c2050090602401600060405180830381600087803b15801561084b57600080fd5b505af115801561085f573d6000803e3d6000fd5b50506040517fb77ff4110000000000000000000000000000000000000000000000000000000081526004810187905260009250600160a060020a038416915063b77ff41190602401602060405180830381865afa1580156108c4573d6000803e3d6000fd5b505050506040513d601f19601f820116820180604052508101906108e89190612783565b6040517feb33983d00000000000000000000000000000000000000000000000000000000815260048101879052909150600090600160a060020a0385169063eb33983d90602401600060405180830381865afa15801561094c573d6000803e3d6000fd5b505050506040513d6000823e601f3d908101601f19168201604052610974919081019061279c565b905060005b82811015610a93576000600160a060020a03851663f50432548961099e856001612813565b60405160e060020a63ffffffff851602815260048101929092526024820152604401602060405180830381865afa1580156109dd573d6000803e3d6000fd5b505050506040513d601f19601f82011682018060405250810190610a0191906125a8565b6040517f98bd7572000000000000000000000000000000000000000000000000000000008152909150600160a060020a038716906398bd757290610a4d9084908c90889060040161282b565b600060405180830381600087803b158015610a6757600080fd5b505af1158015610a7b573d6000803e3d6000fd5b50505050508080610a8b90612632565b915050610979565b506040517f76a321c10000000000000000000000000000000000000000000000000000000081526002600482015260248101879052600160a060020a038516906376a321c190604401600060405180830381600087803b158015610af657600080fd5b505af1158015610b0a573d6000803e3d6000fd5b505060025460405160e060020a631c635ded028152600160a060020a039091169250631c635ded9150610b44908990600190600401612853565b600060405180830381600087803b158015610b5e57600080fd5b505af1158015610b72573d6000803e3d6000fd5b505060025460405160e060020a631c635ded02815260606004820152600560648201527f4e696768740000000000000000000000000000000000000000000000000000006084820152602481018a905260016044820152600160a060020a039091169250631c635ded915060a401600060405180830381600087803b158015610bfa57600080fd5b505af1158015610c0e573d6000803e3d6000fd5b505060035460405160e060020a631c635ded02815260606004820152600a60648201527f45617274687175616b65000000000000000000000000000000000000000000006084820152602481018a90526103e86044820152600160a060020a039091169250631c635ded915060a401600060405180830381600087803b158015610c9757600080fd5b505af1158015610cab573d6000803e3d6000fd5b505060035460405160e060020a631c635ded02815260606004820152600760648201527f566f6c63616e6f000000000000000000000000000000000000000000000000006084820152602481018a90526103e86044820152600160a060020a039091169250631c635ded915060a401600060405180830381600087803b158015610d3457600080fd5b505af1158015610d48573d6000803e3d6000fd5b50506004805460405160e060020a631c635ded028152606092810192909252600660648301527f50697261746500000000000000000000000000000000000000000000000000006084830152602482018a90526103e86044830152600160a060020a03169250631c635ded915060a401600060405180830381600087803b158015610dd257600080fd5b505af1158015610de6573d6000803e3d6000fd5b50506004805460405160e060020a631c635ded028152606092810192909252600b60648301527f50697261746520536869700000000000000000000000000000000000000000006084830152602482018a90526103e86044830152600160a060020a03169250631c635ded915060a401600060405180830381600087803b158015610e7057600080fd5b505af1158015610e84573d6000803e3d6000fd5b50506004805460405160e060020a631c635ded028152606092810192909252600860648301527f4465617468626f740000000000000000000000000000000000000000000000006084830152602482018a90526103e86044830152600160a060020a03169250631c635ded915060a401600060405180830381600087803b158015610f0e57600080fd5b505af1158015610f22573d6000803e3d6000fd5b50506004805460405160e060020a631c635ded028152606092810192909252600860648301527f477561726469616e0000000000000000000000000000000000000000000000006084830152602482018a90526103e86044830152600160a060020a03169250631c635ded915060a401600060405180830381600087803b158015610fac57600080fd5b505af1158015610fc0573d6000803e3d6000fd5b50506004805460405160e060020a631c635ded028152606092810192909252600860648301527f53616e64776f726d0000000000000000000000000000000000000000000000006084830152602482018a90526103e86044830152600160a060020a03169250631c635ded915060a401600060405180830381600087803b15801561104a57600080fd5b505af115801561105e573d6000803e3d6000fd5b50506004805460405160e060020a631c635ded028152606092810192909252600660648301527f447261676f6e00000000000000000000000000000000000000000000000000006084830152602482018a90526103e86044830152600160a060020a03169250631c635ded915060a401600060405180830381600087803b1580156110e857600080fd5b505af11580156110fc573d6000803e3d6000fd5b505060055460405160e060020a631c635ded02815260606004820152600a60648201527f536d616c6c20416d6d6f000000000000000000000000000000000000000000006084820152602481018a90526103e86044820152600160a060020a039091169250631c635ded915060a401600060405180830381600087803b15801561118557600080fd5b505af1158015611199573d6000803e3d6000fd5b505060055460405160e060020a631c635ded02815260606004820152600a60648201527f4c6172676520416d6d6f000000000000000000000000000000000000000000006084820152602481018a90526103e86044820152600160a060020a039091169250631c635ded915060a401600060405180830381600087803b15801561122257600080fd5b505af1158015611236573d6000803e3d6000fd5b505060055460405160e060020a631c635ded02815260606004820152600960648201527f42617474657269657300000000000000000000000000000000000000000000006084820152602481018a90526103e86044820152600160a060020a039091169250631c635ded915060a401600060405180830381600087803b1580156112bf57600080fd5b505af11580156112d3573d6000803e3d6000fd5b505060055460405160e060020a631c635ded02815260606004820152600660648201527f536869656c6400000000000000000000000000000000000000000000000000006084820152602481018a90526103e86044820152600160a060020a039091169250631c635ded915060a401600060405180830381600087803b15801561135c57600080fd5b505af1158015611370573d6000803e3d6000fd5b505060055460405160e060020a631c635ded02815260606004820152600660648201527f506f7274616c00000000000000000000000000000000000000000000000000006084820152602481018a90526103e86044820152600160a060020a039091169250631c635ded915060a401600060405180830381600087803b1580156113f957600080fd5b505af115801561140d573d6000803e3d6000fd5b505060055460405160e060020a631c635ded02815260606004820152600260648201527f4f6e0000000000000000000000000000000000000000000000000000000000006084820152602481018a90526103e86044820152600160a060020a039091169250631c635ded915060a401600060405180830381600087803b15801561149657600080fd5b505af11580156114aa573d6000803e3d6000fd5b505060055460405160e060020a631c635ded02815260606004820152600360648201527f4f666600000000000000000000000000000000000000000000000000000000006084820152602481018a90526103e86044820152600160a060020a039091169250631c635ded915060a401600060405180830381600087803b15801561153357600080fd5b505af1158015611547573d6000803e3d6000fd5b505060065460405160e060020a631c635ded02815260606004820152600760648201527f5374756e6e6564000000000000000000000000000000000000000000000000006084820152602481018a90526103e86044820152600160a060020a039091169250631c635ded915060a401600060405180830381600087803b1580156115d057600080fd5b505af11580156115e4573d6000803e3d6000fd5b50506006805460405160e060020a631c635ded0281526060600482015260648101929092527f4275726e656400000000000000000000000000000000000000000000000000006084830152602482018a90526103e86044830152600160a060020a03169250631c635ded915060a401600060405180830381600087803b15801561166d57600080fd5b505af1158015611681573d6000803e3d6000fd5b50506002546040517fd8291047000000000000000000000000000000000000000000000000000000008152600160a060020a03909116925063d8291047915061067890899060009060019081906004016128a0565b6040517f72c6c6b6000000000000000000000000000000000000000000000000000000008152600160a060020a0383811660048301528291908216906372c6c6b690602401600060405180830381600087803b15801561173557600080fd5b505af1158015611749573d6000803e3d6000fd5b50505050505050565b6040517f9eb356cb0000000000000000000000000000000000000000000000000000000081526004810183905233602482015260448101849052600160a060020a03821690639eb356cb906064016020604051808303816000875af11580156117bf573d6000803e3d6000fd5b505050506040513d601f19601f820116820180604052508101906117e391906125c5565b50505050565b60008281526001602052604081206118019083611d58565b9392505050565b600091825260208281526040808420600160a060020a0393909316845291905290205460ff1690565b6040517fb553910d000000000000000000000000000000000000000000000000000000008152600160a060020a0382811660048301526000919084169063b553910d90602401602060405180830381865afa158015611894573d6000803e3d6000fd5b505050506040513d601f19601f820116820180604052508101906118019190612783565b80600160a060020a031663d1e18d266040518163ffffffff1660e060020a028152600401600060405180830381600087803b1580156118f657600080fd5b505af115801561190a573d6000803e3d6000fd5b5050505050565b600081815260016020526040812061032790611d64565b60008281526020819052604090206001015461194381611d07565b6103528383611d36565b600061195881611d07565b506002805473ffffffffffffffffffffffffffffffffffffffff19908116600160a060020a03978816179091556003805482169587169590951790945560048054851693861693909317909255600580548416918516919091179055600680549092169216919091179055565b6000819050600081600160a060020a031663c06dea4e6040518163ffffffff1660e060020a028152600401602060405180830381865afa158015611a0d573d6000803e3d6000fd5b505050506040513d601f19601f82011682018060405250810190611a3191906125a8565b6040517fb81f6e1800000000000000000000000000000000000000000000000000000000815260048101869052336024820152909150600160a060020a0382169063b81f6e1890604401602060405180830381865afa158015611a98573d6000803e3d6000fd5b505050506040513d601f19601f82011682018060405250810190611abc91906125c5565b611b0b5760405160e560020a62461bcd02815260206004820152601560248201527f706c61796572206e6f742072656769737465726564000000000000000000000060448201526064016103d4565b6040517ff8430708000000000000000000000000000000000000000000000000000000008152600160a060020a0383169063f843070890611b5590889060059089906004016128ff565b600060405180830381600087803b158015611b6f57600080fd5b505af1158015611b83573d6000803e3d6000fd5b50506040517f9f82bcc0000000000000000000000000000000000000000000000000000000008152600160a060020a0385169250639f82bcc09150611bce908890889060040161292f565b600060405180830381600087803b158015611be857600080fd5b505af1158015611bfc573d6000803e3d6000fd5b505050505050505050565b611c118282611808565b6103e757600082815260208181526040808320600160a060020a03851684529091529020805460ff19166001179055611c473390565b600160a060020a031681600160a060020a0316837f2f8788117e7eff1d82e926ec794901d17c78024a50270940304540a733656f0d60405160405180910390a45050565b600061180183600160a060020a038416611d6e565b6000600160e060020a031982167f7965db0b00000000000000000000000000000000000000000000000000000000148061032757507f01ffc9a700000000000000000000000000000000000000000000000000000000600160e060020a0319831614610327565b611d118133611dbd565b50565b611d1e8282611c07565b60008281526001602052604090206103529082611c8b565b611d408282611e24565b60008281526001602052604090206103529082611e89565b60006118018383611e9e565b6000610327825490565b6000818152600183016020526040812054611db557508154600181810184556000848152602080822090930184905584548482528286019093526040902091909155610327565b506000610327565b611dc78282611808565b6103e757611ddf81600160a060020a03166014611ec8565b611dea836020611ec8565b604051602001611dfb929190612951565b60408051601f198184030181529082905260e560020a62461bcd0282526103d4916004016129d2565b611e2e8282611808565b156103e757600082815260208181526040808320600160a060020a0385168085529252808320805460ff1916905551339285917ff6391f5c32d9c69d2a47ea670b442974b53935d1edc7fd64eb21e047a839171b9190a45050565b600061180183600160a060020a038416612112565b6000826000018281548110611eb557611eb56125e7565b9060005260206000200154905092915050565b60606000611ed78360026129e5565b611ee2906002612813565b67ffffffffffffffff811115611efa57611efa6122ba565b6040519080825280601f01601f191660200182016040528015611f24576020820181803683370190505b5090507f300000000000000000000000000000000000000000000000000000000000000081600081518110611f5b57611f5b6125e7565b60200101907effffffffffffffffffffffffffffffffffffffffffffffffffffffffffffff1916908160001a9053507f780000000000000000000000000000000000000000000000000000000000000081600181518110611fbe57611fbe6125e7565b60200101907effffffffffffffffffffffffffffffffffffffffffffffffffffffffffffff1916908160001a9053506000611ffa8460026129e5565b612005906001612813565b90505b60018111156120c0577f303132333435363738396162636465660000000000000000000000000000000085600f1660108110612046576120466125e7565b1a7f01000000000000000000000000000000000000000000000000000000000000000282828151811061207b5761207b6125e7565b60200101907effffffffffffffffffffffffffffffffffffffffffffffffffffffffffffff1916908160001a9053506010909404936120b981612a04565b9050612008565b5083156118015760405160e560020a62461bcd02815260206004820181905260248201527f537472696e67733a20686578206c656e67746820696e73756666696369656e7460448201526064016103d4565b600081815260018301602052604081205480156121fb576000612136600183612a1b565b855490915060009061214a90600190612a1b565b90508181146121af57600086600001828154811061216a5761216a6125e7565b906000526020600020015490508087600001848154811061218d5761218d6125e7565b6000918252602080832090910192909255918252600188019052604090208390555b85548690806121c0576121c0612a32565b600190038181906000526020600020016000905590558560010160008681526020019081526020016000206000905560019350505050610327565b6000915050610327565b60006020828403121561221757600080fd5b8135600160e060020a03198116811461180157600080fd5b60006020828403121561224157600080fd5b5035919050565b600160a060020a0381168114611d1157600080fd5b803561226881612248565b919050565b6000806040838503121561228057600080fd5b82359150602083013561229281612248565b809150509250929050565b6000602082840312156122af57600080fd5b813561180181612248565b60e060020a634e487b7102600052604160045260246000fd5b604051601f8201601f1916810167ffffffffffffffff811182821017156122fc576122fc6122ba565b604052919050565b600067ffffffffffffffff82111561231e5761231e6122ba565b50601f01601f191660200190565b600082601f83011261233d57600080fd5b813561235061234b82612304565b6122d3565b81815284602083860101111561236557600080fd5b816020850160208301376000918101602001919091529392505050565b60008060006060848603121561239757600080fd5b833567ffffffffffffffff808211156123af57600080fd5b818601915086601f8301126123c357600080fd5b81356020828211156123d7576123d76122ba565b8082026123e58282016122d3565b928352848101820192828101908b8511156123ff57600080fd5b83870192505b8483101561243b5782358681111561241d5760008081fd5b61242b8d86838b010161232c565b8352509183019190830190612405565b98505050870135945061245592505060408601905061225d565b90509250925092565b6000806040838503121561247157600080fd5b823561247c81612248565b9150602083013561229281612248565b6000806000606084860312156124a157600080fd5b833592506020840135915060408401356124ba81612248565b809150509250925092565b600080604083850312156124d857600080fd5b50508035926020909101359150565b600080600080600060a086880312156124ff57600080fd5b853561250a81612248565b9450602086013561251a81612248565b9350604086013561252a81612248565b9250606086013561253a81612248565b9150608086013561254a81612248565b809150509295509295909350565b60008060006060848603121561256d57600080fd5b833567ffffffffffffffff81111561258457600080fd5b6125908682870161232c565b9350506020840135915060408401356124ba81612248565b6000602082840312156125ba57600080fd5b815161180181612248565b6000602082840312156125d757600080fd5b8151801515811461180157600080fd5b60e060020a634e487b7102600052603260045260246000fd5b60e060020a634e487b7102600052602160045260246000fd5b60e060020a634e487b7102600052601160045260246000fd5b600060001982141561264657612646612619565b5060010190565b60005b83811015612668578181015183820152602001612650565b838111156117e35750506000910152565b6000815180845261269181602086016020860161264d565b601f01601f19169290920160200192915050565b600c81106126c65760e060020a634e487b7102600052602160045260246000fd5b9052565b6000608082016080835280875180835260a0850191506020925060a0838202860101838a0160005b8381101561272057609f1988840301855261270e838351612679565b948601949250908501906001016126f2565b5050600160a060020a0389168685015260408601889052858103606087015286518082529084019250905085830160005b82811015612774576127648483516126a5565b9284019290840190600101612751565b50919998505050505050505050565b60006020828403121561279557600080fd5b5051919050565b6000602082840312156127ae57600080fd5b815167ffffffffffffffff8111156127c557600080fd5b8201601f810184136127d657600080fd5b80516127e461234b82612304565b8181528560208385010111156127f957600080fd5b61280a82602083016020860161264d565b95945050505050565b6000821982111561282657612826612619565b500190565b600160a060020a038416815282602082015260606040820152600061280a6060830184612679565b60608152600061289060608301600381527f4461790000000000000000000000000000000000000000000000000000000000602082015260400190565b6020830194909452506040015290565b60a0815260006128dd60a08301600381527f4461790000000000000000000000000000000000000000000000000000000000602082015260400190565b6020830196909652506040810193909352606083019190915260809091015290565b6060815260006129126060830186612679565b905061292160208301856126a5565b826040830152949350505050565b6040815260006129426040830185612679565b90508260208301529392505050565b7f416363657373436f6e74726f6c3a206163636f756e742000000000000000000081526000835161298981601785016020880161264d565b7f206973206d697373696e6720726f6c652000000000000000000000000000000060179184019182015283516129c681602884016020880161264d565b01602801949350505050565b6020815260006118016020830184612679565b60008160001904831182151516156129ff576129ff612619565b500290565b600081612a1357612a13612619565b506000190190565b600082821015612a2d57612a2d612619565b500390565b60e060020a634e487b7102600052603160045260246000fdfea264697066735822122076e838a7cd39b0e17eb1a0f9965c855aa95283e92d654e9167ee1fba13e3c92064736f6c634300080b0033",
  "immutableReferences": {},
  "source": "// SPDX-License-Identifier: GPL-3.0\npragma solidity >=0.7.0 <0.9.0;\n\nimport \"@luckymachines/game-core/contracts/src/v0.0/GameController.sol\";\nimport \"./HexplorationBoard.sol\";\nimport \"./HexplorationZone.sol\";\n// Game Tokens\nimport \"./tokens/DayNight.sol\";\nimport \"./tokens/Disaster.sol\";\nimport \"./tokens/Enemy.sol\";\nimport \"./tokens/Item.sol\";\nimport \"./tokens/PlayerStatus.sol\";\n\ncontract HexplorationController is GameController {\n    // functions are meant to be called directly by players by default\n    // we are adding the ability of a Controller Admin or Keeper to\n    // execute the game aspects not directly controlled by players\n    bytes32 public constant KEEPER_ROLE = keccak256(\"KEEPER_ROLE\");\n\n    DayNight internal DAY_NIGHT_TOKEN;\n    Disaster internal DISASTER_TOKEN;\n    Enemy internal ENEMY_TOKEN;\n    Item internal ITEM_TOKEN;\n    PlayerStatus internal PLAYER_STATUS_TOKEN;\n\n    // TODO:\n    // Connect to Chainlink VRF for random seeds when needed\n    // submit move + space choice\n    // use / swap item\n\n    /*\n    Controller can access all game tokens with the following methods:\n\n    function mint(\n        string memory tokenType,\n        uint256 gameID,\n        uint256 quantity\n    )\n\n    function transfer(\n        string memory tokenType,\n        uint256 gameID,\n        uint256 fromPlayerID,\n        uint256 toPlayerID,\n        uint256 quantity\n    )\n*/\n    modifier onlyAdminKeeper() {\n        require(\n            hasRole(DEFAULT_ADMIN_ROLE, _msgSender()) ||\n                hasRole(KEEPER_ROLE, _msgSender()),\n            \"Admin or Keeper role required\"\n        );\n        _;\n    }\n\n    constructor(address adminAddress) GameController(adminAddress) {}\n\n    // Admin Functions\n    function setTokenAddresses(\n        address dayNightAddress,\n        address disasterAddress,\n        address enemyAddress,\n        address itemAddress,\n        address playerStatusAddress\n    ) public onlyRole(DEFAULT_ADMIN_ROLE) {\n        DAY_NIGHT_TOKEN = DayNight(dayNightAddress);\n        DISASTER_TOKEN = Disaster(disasterAddress);\n        ENEMY_TOKEN = Enemy(enemyAddress);\n        ITEM_TOKEN = Item(itemAddress);\n        PLAYER_STATUS_TOKEN = PlayerStatus(playerStatusAddress);\n    }\n\n    function addKeeper(address keeperAddress)\n        public\n        onlyRole(DEFAULT_ADMIN_ROLE)\n    {\n        grantRole(KEEPER_ROLE, keeperAddress);\n    }\n\n    // Admin or Keeper Interactions\n    function runBoardUpdate(address boardAddress) public {\n        HexplorationBoard(boardAddress).runUpdate();\n    }\n\n    function startGame(uint256 gameID, address boardAddress) public {\n        HexplorationBoard board = HexplorationBoard(boardAddress);\n        require(board.gameState(gameID) == 0, \"game already started\");\n\n        PlayerRegistry pr = PlayerRegistry(board.prAddress());\n        board.lockRegistration(gameID);\n        uint256 totalRegistrations = pr.totalRegistrations(gameID);\n        string memory startZone = board.initialPlayZone(gameID);\n        for (uint256 i = 0; i < totalRegistrations; i++) {\n            address playerAddress = pr.playerAddress(gameID, i + 1);\n            board.enterPlayer(playerAddress, gameID, startZone);\n        }\n        // set game to initialized\n        board.setGameState(2, gameID);\n\n        // mint game tokens (maybe mint on demand instead...)\n        // minting full game set here\n        DAY_NIGHT_TOKEN.mint(\"Day\", gameID, 1);\n        DAY_NIGHT_TOKEN.mint(\"Night\", gameID, 1);\n        DISASTER_TOKEN.mint(\"Earthquake\", gameID, 1000);\n        DISASTER_TOKEN.mint(\"Volcano\", gameID, 1000);\n        ENEMY_TOKEN.mint(\"Pirate\", gameID, 1000);\n        ENEMY_TOKEN.mint(\"Pirate Ship\", gameID, 1000);\n        ENEMY_TOKEN.mint(\"Deathbot\", gameID, 1000);\n        ENEMY_TOKEN.mint(\"Guardian\", gameID, 1000);\n        ENEMY_TOKEN.mint(\"Sandworm\", gameID, 1000);\n        ENEMY_TOKEN.mint(\"Dragon\", gameID, 1000);\n        ITEM_TOKEN.mint(\"Small Ammo\", gameID, 1000);\n        ITEM_TOKEN.mint(\"Large Ammo\", gameID, 1000);\n        ITEM_TOKEN.mint(\"Batteries\", gameID, 1000);\n        ITEM_TOKEN.mint(\"Shield\", gameID, 1000);\n        ITEM_TOKEN.mint(\"Portal\", gameID, 1000);\n        ITEM_TOKEN.mint(\"On\", gameID, 1000);\n        ITEM_TOKEN.mint(\"Off\", gameID, 1000);\n        PLAYER_STATUS_TOKEN.mint(\"Stunned\", gameID, 1000);\n        PLAYER_STATUS_TOKEN.mint(\"Burned\", gameID, 1000);\n        // Transfer day token to board\n        DAY_NIGHT_TOKEN.transfer(\"Day\", gameID, 0, 1, 1);\n    }\n\n    //Player Interactions\n    function moveThroughPath(\n        string[] memory zonePath,\n        uint256 gameID,\n        address boardAddress\n    ) public {\n        // TODO:\n        // verify move is valid\n        // pick tiles from deck\n        HexplorationBoard board = HexplorationBoard(boardAddress);\n        PlayerRegistry pr = PlayerRegistry(board.prAddress());\n        require(pr.isRegistered(gameID, msg.sender), \"player not registered\");\n\n        HexplorationZone.Tile[] memory tiles = new HexplorationZone.Tile[](\n            zonePath.length\n        );\n        for (uint256 i = 0; i < zonePath.length; i++) {\n            tiles[i] = i == 0 ? HexplorationZone.Tile.Jungle : i == 1\n                ? HexplorationZone.Tile.Plains\n                : HexplorationZone.Tile.Mountain;\n        }\n\n        HexplorationBoard(boardAddress).moveThroughPath(\n            zonePath,\n            msg.sender,\n            gameID,\n            tiles\n        );\n    }\n\n    function chooseLandingSite(\n        string memory zoneChoice,\n        uint256 gameID,\n        address boardAddress\n    ) public {\n        // TODO: decide if this is done by a leader or automatically\n        // game will begin and registration locked after this...\n        HexplorationBoard board = HexplorationBoard(boardAddress);\n        PlayerRegistry pr = PlayerRegistry(board.prAddress());\n        require(pr.isRegistered(gameID, msg.sender), \"player not registered\");\n\n        board.enableZone(zoneChoice, HexplorationZone.Tile.LandingSite, gameID);\n        // set landing site at space on board\n        board.setInitialPlayZone(zoneChoice, gameID);\n    }\n\n    // TODO: limit this to authorized game starters\n    function requestNewGame(address gameRegistryAddress, address boardAddress)\n        public\n    {\n        HexplorationBoard board = HexplorationBoard(boardAddress);\n        board.requestNewGame(gameRegistryAddress);\n    }\n\n    function latestGame(address gameRegistryAddress, address boardAddress)\n        public\n        view\n        returns (uint256)\n    {\n        return GameRegistry(gameRegistryAddress).latestGame(boardAddress);\n    }\n}\n",
  "sourcePath": "/Users/maxmeier/Developer/Lucky Machines/hexploration/contracts/HexplorationController.sol",
  "compiler": {
    "name": "solc",
    "version": "0.8.11+commit.d7f03943.Emscripten.clang"
  },
  "schemaVersion": "3.4.4",
  "updatedAt": "2022-05-15T20:46:51.327Z",
  "networkType": "ethereum",
  "devdoc": {
    "kind": "dev",
    "methods": {
      "getRoleAdmin(bytes32)": {
        "details": "Returns the admin role that controls `role`. See {grantRole} and {revokeRole}. To change a role's admin, use {_setRoleAdmin}."
      },
      "getRoleMember(bytes32,uint256)": {
        "details": "Returns one of the accounts that have `role`. `index` must be a value between 0 and {getRoleMemberCount}, non-inclusive. Role bearers are not sorted in any particular way, and their ordering may change at any point. WARNING: When using {getRoleMember} and {getRoleMemberCount}, make sure you perform all queries on the same block. See the following https://forum.openzeppelin.com/t/iterating-over-elements-on-enumerableset-in-openzeppelin-contracts/2296[forum post] for more information."
      },
      "getRoleMemberCount(bytes32)": {
        "details": "Returns the number of accounts that have `role`. Can be used together with {getRoleMember} to enumerate all bearers of a role."
      },
      "grantRole(bytes32,address)": {
        "details": "Grants `role` to `account`. If `account` had not been already granted `role`, emits a {RoleGranted} event. Requirements: - the caller must have ``role``'s admin role."
      },
      "hasRole(bytes32,address)": {
        "details": "Returns `true` if `account` has been granted `role`."
      },
      "renounceRole(bytes32,address)": {
        "details": "Revokes `role` from the calling account. Roles are often managed via {grantRole} and {revokeRole}: this function's purpose is to provide a mechanism for accounts to lose their privileges if they are compromised (such as when a trusted device is misplaced). If the calling account had been revoked `role`, emits a {RoleRevoked} event. Requirements: - the caller must be `account`."
      },
      "revokeRole(bytes32,address)": {
        "details": "Revokes `role` from `account`. If `account` had been granted `role`, emits a {RoleRevoked} event. Requirements: - the caller must have ``role``'s admin role."
      },
      "supportsInterface(bytes4)": {
        "details": "See {IERC165-supportsInterface}."
      }
    },
    "version": 1
  },
  "userdoc": {
    "kind": "user",
    "methods": {},
    "version": 1
  }
}