{
  "contractName": "HexplorationZone",
  "abi": [
    {
      "inputs": [
        {
          "internalType": "address",
          "name": "_rulesetAddress",
          "type": "address"
        },
        {
          "internalType": "address",
          "name": "_gameRegistryAddress",
          "type": "address"
        },
        {
          "internalType": "address",
          "name": "adminAddress",
          "type": "address"
        },
        {
          "internalType": "address",
          "name": "factoryAddress",
          "type": "address"
        }
      ],
      "stateMutability": "nonpayable",
      "type": "constructor"
    },
    {
      "anonymous": false,
      "inputs": [
        {
          "indexed": true,
          "internalType": "bytes32",
          "name": "role",
          "type": "bytes32"
        },
        {
          "indexed": true,
          "internalType": "bytes32",
          "name": "previousAdminRole",
          "type": "bytes32"
        },
        {
          "indexed": true,
          "internalType": "bytes32",
          "name": "newAdminRole",
          "type": "bytes32"
        }
      ],
      "name": "RoleAdminChanged",
      "type": "event"
    },
    {
      "anonymous": false,
      "inputs": [
        {
          "indexed": true,
          "internalType": "bytes32",
          "name": "role",
          "type": "bytes32"
        },
        {
          "indexed": true,
          "internalType": "address",
          "name": "account",
          "type": "address"
        },
        {
          "indexed": true,
          "internalType": "address",
          "name": "sender",
          "type": "address"
        }
      ],
      "name": "RoleGranted",
      "type": "event"
    },
    {
      "anonymous": false,
      "inputs": [
        {
          "indexed": true,
          "internalType": "bytes32",
          "name": "role",
          "type": "bytes32"
        },
        {
          "indexed": true,
          "internalType": "address",
          "name": "account",
          "type": "address"
        },
        {
          "indexed": true,
          "internalType": "address",
          "name": "sender",
          "type": "address"
        }
      ],
      "name": "RoleRevoked",
      "type": "event"
    },
    {
      "inputs": [],
      "name": "CONTROLLER_ROLE",
      "outputs": [
        {
          "internalType": "bytes32",
          "name": "",
          "type": "bytes32"
        }
      ],
      "stateMutability": "view",
      "type": "function"
    },
    {
      "inputs": [],
      "name": "DEFAULT_ADMIN_ROLE",
      "outputs": [
        {
          "internalType": "bytes32",
          "name": "",
          "type": "bytes32"
        }
      ],
      "stateMutability": "view",
      "type": "function"
    },
    {
      "inputs": [],
      "name": "FACTORY_ROLE",
      "outputs": [
        {
          "internalType": "bytes32",
          "name": "",
          "type": "bytes32"
        }
      ],
      "stateMutability": "view",
      "type": "function"
    },
    {
      "inputs": [],
      "name": "GAME_BOARD_ROLE",
      "outputs": [
        {
          "internalType": "bytes32",
          "name": "",
          "type": "bytes32"
        }
      ],
      "stateMutability": "view",
      "type": "function"
    },
    {
      "inputs": [
        {
          "internalType": "address",
          "name": "controllerAddress",
          "type": "address"
        }
      ],
      "name": "addController",
      "outputs": [],
      "stateMutability": "nonpayable",
      "type": "function"
    },
    {
      "inputs": [
        {
          "internalType": "address",
          "name": "gameBoardAddress",
          "type": "address"
        }
      ],
      "name": "addGameBoard",
      "outputs": [],
      "stateMutability": "nonpayable",
      "type": "function"
    },
    {
      "inputs": [
        {
          "internalType": "uint256",
          "name": "exitPathIndex",
          "type": "uint256"
        },
        {
          "internalType": "uint256",
          "name": "gameID",
          "type": "uint256"
        },
        {
          "internalType": "address",
          "name": "gameBoardAddress",
          "type": "address"
        }
      ],
      "name": "attemptExit",
      "outputs": [],
      "stateMutability": "nonpayable",
      "type": "function"
    },
    {
      "inputs": [
        {
          "internalType": "address",
          "name": "playerAddress",
          "type": "address"
        },
        {
          "internalType": "uint256",
          "name": "exitPathIndex",
          "type": "uint256"
        },
        {
          "internalType": "uint256",
          "name": "gameID",
          "type": "uint256"
        },
        {
          "internalType": "string",
          "name": "zoneAlias",
          "type": "string"
        },
        {
          "internalType": "address",
          "name": "gameBoardAddress",
          "type": "address"
        }
      ],
      "name": "attemptExitFor",
      "outputs": [],
      "stateMutability": "nonpayable",
      "type": "function"
    },
    {
      "inputs": [
        {
          "internalType": "address",
          "name": "playerAddress",
          "type": "address"
        },
        {
          "internalType": "uint256",
          "name": "gameID",
          "type": "uint256"
        },
        {
          "internalType": "string",
          "name": "zoneAlias",
          "type": "string"
        }
      ],
      "name": "enterPlayer",
      "outputs": [],
      "stateMutability": "nonpayable",
      "type": "function"
    },
    {
      "inputs": [
        {
          "internalType": "uint256",
          "name": "",
          "type": "uint256"
        },
        {
          "internalType": "string",
          "name": "",
          "type": "string"
        }
      ],
      "name": "entryCount",
      "outputs": [
        {
          "internalType": "uint256",
          "name": "",
          "type": "uint256"
        }
      ],
      "stateMutability": "view",
      "type": "function"
    },
    {
      "inputs": [
        {
          "internalType": "uint256",
          "name": "",
          "type": "uint256"
        },
        {
          "internalType": "string",
          "name": "",
          "type": "string"
        }
      ],
      "name": "exitCount",
      "outputs": [
        {
          "internalType": "uint256",
          "name": "",
          "type": "uint256"
        }
      ],
      "stateMutability": "view",
      "type": "function"
    },
    {
      "inputs": [
        {
          "internalType": "address",
          "name": "playerAddress",
          "type": "address"
        },
        {
          "internalType": "uint256",
          "name": "gameID",
          "type": "uint256"
        },
        {
          "internalType": "string",
          "name": "zoneAlias",
          "type": "string"
        }
      ],
      "name": "exitPlayer",
      "outputs": [],
      "stateMutability": "nonpayable",
      "type": "function"
    },
    {
      "inputs": [],
      "name": "gameRegistryAddress",
      "outputs": [
        {
          "internalType": "address",
          "name": "",
          "type": "address"
        }
      ],
      "stateMutability": "view",
      "type": "function"
    },
    {
      "inputs": [
        {
          "internalType": "bytes32",
          "name": "role",
          "type": "bytes32"
        }
      ],
      "name": "getRoleAdmin",
      "outputs": [
        {
          "internalType": "bytes32",
          "name": "",
          "type": "bytes32"
        }
      ],
      "stateMutability": "view",
      "type": "function"
    },
    {
      "inputs": [
        {
          "internalType": "bytes32",
          "name": "role",
          "type": "bytes32"
        },
        {
          "internalType": "uint256",
          "name": "index",
          "type": "uint256"
        }
      ],
      "name": "getRoleMember",
      "outputs": [
        {
          "internalType": "address",
          "name": "",
          "type": "address"
        }
      ],
      "stateMutability": "view",
      "type": "function"
    },
    {
      "inputs": [
        {
          "internalType": "bytes32",
          "name": "role",
          "type": "bytes32"
        }
      ],
      "name": "getRoleMemberCount",
      "outputs": [
        {
          "internalType": "uint256",
          "name": "",
          "type": "uint256"
        }
      ],
      "stateMutability": "view",
      "type": "function"
    },
    {
      "inputs": [
        {
          "internalType": "bytes32",
          "name": "role",
          "type": "bytes32"
        },
        {
          "internalType": "address",
          "name": "account",
          "type": "address"
        }
      ],
      "name": "grantRole",
      "outputs": [],
      "stateMutability": "nonpayable",
      "type": "function"
    },
    {
      "inputs": [
        {
          "internalType": "bytes32",
          "name": "role",
          "type": "bytes32"
        },
        {
          "internalType": "address",
          "name": "account",
          "type": "address"
        }
      ],
      "name": "hasRole",
      "outputs": [
        {
          "internalType": "bool",
          "name": "",
          "type": "bool"
        }
      ],
      "stateMutability": "view",
      "type": "function"
    },
    {
      "inputs": [
        {
          "internalType": "string[]",
          "name": "stringParams",
          "type": "string[]"
        },
        {
          "internalType": "address[]",
          "name": "addressParams",
          "type": "address[]"
        },
        {
          "internalType": "uint256[]",
          "name": "uintParams",
          "type": "uint256[]"
        }
      ],
      "name": "performCustomAction",
      "outputs": [],
      "stateMutability": "nonpayable",
      "type": "function"
    },
    {
      "inputs": [
        {
          "internalType": "uint256",
          "name": "",
          "type": "uint256"
        },
        {
          "internalType": "string",
          "name": "",
          "type": "string"
        }
      ],
      "name": "playerCount",
      "outputs": [
        {
          "internalType": "uint256",
          "name": "",
          "type": "uint256"
        }
      ],
      "stateMutability": "view",
      "type": "function"
    },
    {
      "inputs": [],
      "name": "playersInZone",
      "outputs": [
        {
          "internalType": "uint256[]",
          "name": "",
          "type": "uint256[]"
        }
      ],
      "stateMutability": "view",
      "type": "function"
    },
    {
      "inputs": [
        {
          "internalType": "address",
          "name": "controllerAddress",
          "type": "address"
        }
      ],
      "name": "removeController",
      "outputs": [],
      "stateMutability": "nonpayable",
      "type": "function"
    },
    {
      "inputs": [
        {
          "internalType": "address",
          "name": "gameBoardAddress",
          "type": "address"
        }
      ],
      "name": "removeGameBoard",
      "outputs": [],
      "stateMutability": "nonpayable",
      "type": "function"
    },
    {
      "inputs": [
        {
          "internalType": "address",
          "name": "playerAddress",
          "type": "address"
        },
        {
          "internalType": "uint256",
          "name": "gameID",
          "type": "uint256"
        },
        {
          "internalType": "string",
          "name": "zoneAlias",
          "type": "string"
        }
      ],
      "name": "removePlayer",
      "outputs": [],
      "stateMutability": "nonpayable",
      "type": "function"
    },
    {
      "inputs": [
        {
          "internalType": "bytes32",
          "name": "role",
          "type": "bytes32"
        },
        {
          "internalType": "address",
          "name": "account",
          "type": "address"
        }
      ],
      "name": "renounceRole",
      "outputs": [],
      "stateMutability": "nonpayable",
      "type": "function"
    },
    {
      "inputs": [
        {
          "internalType": "bytes32",
          "name": "role",
          "type": "bytes32"
        },
        {
          "internalType": "address",
          "name": "account",
          "type": "address"
        }
      ],
      "name": "revokeRole",
      "outputs": [],
      "stateMutability": "nonpayable",
      "type": "function"
    },
    {
      "inputs": [
        {
          "internalType": "uint256",
          "name": "",
          "type": "uint256"
        },
        {
          "internalType": "string",
          "name": "",
          "type": "string"
        }
      ],
      "name": "ruleset",
      "outputs": [
        {
          "internalType": "uint256",
          "name": "",
          "type": "uint256"
        }
      ],
      "stateMutability": "view",
      "type": "function"
    },
    {
      "inputs": [],
      "name": "rulesetAddress",
      "outputs": [
        {
          "internalType": "address",
          "name": "",
          "type": "address"
        }
      ],
      "stateMutability": "view",
      "type": "function"
    },
    {
      "inputs": [],
      "name": "rulesetVersion",
      "outputs": [
        {
          "internalType": "uint256",
          "name": "",
          "type": "uint256"
        }
      ],
      "stateMutability": "view",
      "type": "function"
    },
    {
      "inputs": [
        {
          "internalType": "uint256",
          "name": "rulesetID",
          "type": "uint256"
        },
        {
          "internalType": "uint256",
          "name": "gameID",
          "type": "uint256"
        },
        {
          "internalType": "string",
          "name": "zoneAlias",
          "type": "string"
        }
      ],
      "name": "setRules",
      "outputs": [],
      "stateMutability": "nonpayable",
      "type": "function"
    },
    {
      "inputs": [
        {
          "internalType": "bytes4",
          "name": "interfaceId",
          "type": "bytes4"
        }
      ],
      "name": "supportsInterface",
      "outputs": [
        {
          "internalType": "bool",
          "name": "",
          "type": "bool"
        }
      ],
      "stateMutability": "view",
      "type": "function"
    },
    {
      "inputs": [
        {
          "internalType": "uint256",
          "name": "",
          "type": "uint256"
        },
        {
          "internalType": "string",
          "name": "",
          "type": "string"
        }
      ],
      "name": "tile",
      "outputs": [
        {
          "internalType": "enum HexplorationZone.Tile",
          "name": "",
          "type": "uint8"
        }
      ],
      "stateMutability": "view",
      "type": "function"
    },
    {
      "inputs": [
        {
          "internalType": "uint256",
          "name": "",
          "type": "uint256"
        },
        {
          "internalType": "string",
          "name": "",
          "type": "string"
        }
      ],
      "name": "tileIsSet",
      "outputs": [
        {
          "internalType": "bool",
          "name": "",
          "type": "bool"
        }
      ],
      "stateMutability": "view",
      "type": "function"
    },
    {
      "inputs": [
        {
          "internalType": "enum HexplorationZone.Tile",
          "name": "_tile",
          "type": "uint8"
        },
        {
          "internalType": "uint256",
          "name": "gameID",
          "type": "uint256"
        },
        {
          "internalType": "string",
          "name": "zoneAlias",
          "type": "string"
        }
      ],
      "name": "setTile",
      "outputs": [],
      "stateMutability": "nonpayable",
      "type": "function"
    },
    {
      "inputs": [
        {
          "internalType": "address",
          "name": "playerAddress",
          "type": "address"
        },
        {
          "internalType": "uint256",
          "name": "gameID",
          "type": "uint256"
        },
        {
          "internalType": "string",
          "name": "zoneAlias",
          "type": "string"
        }
      ],
      "name": "playerCanEnter",
      "outputs": [
        {
          "internalType": "bool",
          "name": "canEnter",
          "type": "bool"
        }
      ],
      "stateMutability": "view",
      "type": "function"
    },
    {
      "inputs": [
        {
          "internalType": "address",
          "name": "playerAddress",
          "type": "address"
        },
        {
          "internalType": "uint256",
          "name": "gameID",
          "type": "uint256"
        },
        {
          "internalType": "string",
          "name": "zoneAlias",
          "type": "string"
        }
      ],
      "name": "playerCanExit",
      "outputs": [
        {
          "internalType": "bool",
          "name": "canExit",
          "type": "bool"
        }
      ],
      "stateMutability": "view",
      "type": "function"
    }
  ],
  "bytecode": "0x60806040523480156200001157600080fd5b506040516200404538038062004045833981810160405281019062000037919062000523565b8383838383600260006101000a81548173ffffffffffffffffffffffffffffffffffffffff021916908373ffffffffffffffffffffffffffffffffffffffff16021790555082600360006101000a81548173ffffffffffffffffffffffffffffffffffffffff021916908373ffffffffffffffffffffffffffffffffffffffff16021790555083600460006101000a81548173ffffffffffffffffffffffffffffffffffffffff021916908373ffffffffffffffffffffffffffffffffffffffff160217905550600260009054906101000a900473ffffffffffffffffffffffffffffffffffffffff1673ffffffffffffffffffffffffffffffffffffffff166354fd4d506040518163ffffffff1660e01b8152600401602060405180830381865afa1580156200016c573d6000803e3d6000fd5b505050506040513d601f19601f82011682018060405250810190620001929190620005d0565b600581905550620001ad6000801b836200022360201b60201c565b600073ffffffffffffffffffffffffffffffffffffffff168173ffffffffffffffffffffffffffffffffffffffff16146200021557620002147fdfbefbf47cfe66b701d8cfdbce1de81c821590819cb07e71cb01b6602fb0ee27826200022360201b60201c565b5b505050505050505062000602565b6200023582826200023960201b60201c565b5050565b6200025082826200028160201b620012161760201c565b6200027c81600160008581526020019081526020016000206200037260201b620012f61790919060201c565b505050565b620002938282620003aa60201b60201c565b6200036e57600160008084815260200190815260200160002060000160008373ffffffffffffffffffffffffffffffffffffffff1673ffffffffffffffffffffffffffffffffffffffff16815260200190815260200160002060006101000a81548160ff021916908315150217905550620003136200041460201b60201c565b73ffffffffffffffffffffffffffffffffffffffff168173ffffffffffffffffffffffffffffffffffffffff16837f2f8788117e7eff1d82e926ec794901d17c78024a50270940304540a733656f0d60405160405180910390a45b5050565b6000620003a2836000018373ffffffffffffffffffffffffffffffffffffffff1660001b6200041c60201b60201c565b905092915050565b600080600084815260200190815260200160002060000160008373ffffffffffffffffffffffffffffffffffffffff1673ffffffffffffffffffffffffffffffffffffffff16815260200190815260200160002060009054906101000a900460ff16905092915050565b600033905090565b60006200043083836200049660201b60201c565b6200048b57826000018290806001815401808255809150506001900390600052602060002001600090919091909150558260000180549050836001016000848152602001908152602001600020819055506001905062000490565b600090505b92915050565b600080836001016000848152602001908152602001600020541415905092915050565b600080fd5b600073ffffffffffffffffffffffffffffffffffffffff82169050919050565b6000620004eb82620004be565b9050919050565b620004fd81620004de565b81146200050957600080fd5b50565b6000815190506200051d81620004f2565b92915050565b6000806000806080858703121562000540576200053f620004b9565b5b600062000550878288016200050c565b945050602062000563878288016200050c565b935050604062000576878288016200050c565b925050606062000589878288016200050c565b91505092959194509250565b6000819050919050565b620005aa8162000595565b8114620005b657600080fd5b50565b600081519050620005ca816200059f565b92915050565b600060208284031215620005e957620005e8620004b9565b5b6000620005f984828501620005b9565b91505092915050565b613a3380620006126000396000f3fe608060405234801561001057600080fd5b506004361061021c5760003560e01c8063a217fddf11610125578063d4939609116100ad578063e70542a81161007c578063e70542a814610683578063f14f4bbe146106a1578063f6a74ed7146106bd578063f6fdbf7e146106d9578063f91649f0146107095761021c565b8063d4939609146105ff578063d547741f1461061b578063de45264114610637578063e15b3ad0146106535761021c565b8063ac407d02116100f4578063ac407d0214610547578063bc590f2a14610577578063c57893c214610595578063c8fae5e8146105b3578063ca15c873146105cf5761021c565b8063a217fddf146104ad578063a331e608146104cb578063a7fc7a07146104fb578063abea5a6e146105175761021c565b806331b8a854116101a85780636516dd45116101775780636516dd45146103e55780637caf1280146104015780639010d07c1461043157806391d148541461046157806398bd7572146104915761021c565b806331b8a8541461037357806336568abe1461038f578063474dfcd7146103ab5780634a58dc11146103c75761021c565b8063248a9ca3116101ef578063248a9ca3146102bd57806328d7e11a146102ed5780632e08793d146103095780632f2ff15d1461032757806330821b9c146103435761021c565b806301ffc9a71461022157806304a0fb1714610251578063092c5b3b1461026f57806310e0d51e1461028d575b600080fd5b61023b600480360381019061023691906125e6565b610725565b604051610248919061262e565b60405180910390f35b61025961079f565b6040516102669190612662565b60405180910390f35b6102776107c3565b6040516102849190612662565b60405180910390f35b6102a760048036038101906102a291906127f9565b6107e7565b6040516102b49190612864565b60405180910390f35b6102d760048036038101906102d291906128ab565b610822565b6040516102e49190612662565b60405180910390f35b61030760048036038101906103029190612936565b610841565b005b6103116108c6565b60405161031e91906129b4565b60405180910390f35b610341600480360381019061033c91906129cf565b6108ec565b005b61035d600480360381019061035891906127f9565b61090d565b60405161036a9190612a86565b60405180910390f35b61038d60048036038101906103889190612aa1565b610952565b005b6103a960048036038101906103a491906129cf565b610a16565b005b6103c560048036038101906103c09190612d7c565b610a99565b005b6103cf610aa9565b6040516103dc9190612662565b60405180910390f35b6103ff60048036038101906103fa9190612e23565b610acd565b005b61041b60048036038101906104169190612936565b610b53565b604051610428919061262e565b60405180910390f35b61044b60048036038101906104469190612e76565b610b69565b60405161045891906129b4565b60405180910390f35b61047b600480360381019061047691906129cf565b610b98565b604051610488919061262e565b60405180910390f35b6104ab60048036038101906104a69190612936565b610c02565b005b6104b5610c87565b6040516104c29190612662565b60405180910390f35b6104e560048036038101906104e091906127f9565b610c8e565b6040516104f29190612864565b60405180910390f35b61051560048036038101906105109190612eb6565b610cc9565b005b610531600480360381019061052c91906127f9565b610d81565b60405161053e9190612864565b60405180910390f35b610561600480360381019061055c91906127f9565b610dbc565b60405161056e9190612864565b60405180910390f35b61057f610df7565b60405161058c91906129b4565b60405180910390f35b61059d610e1d565b6040516105aa9190612fa1565b60405180910390f35b6105cd60048036038101906105c89190612eb6565b610e22565b005b6105e960048036038101906105e491906128ab565b610e5d565b6040516105f69190612864565b60405180910390f35b61061960048036038101906106149190612fe8565b610e81565b005b610635600480360381019061063091906129cf565b610f50565b005b610651600480360381019061064c9190612eb6565b610f71565b005b61066d60048036038101906106689190612936565b611029565b60405161067a919061262e565b60405180910390f35b61068b61103f565b6040516106989190612864565b60405180910390f35b6106bb60048036038101906106b69190613057565b611045565b005b6106d760048036038101906106d29190612eb6565b61115b565b005b6106f360048036038101906106ee91906127f9565b611196565b604051610700919061262e565b60405180910390f35b610723600480360381019061071e9190612936565b6111db565b005b60007f5a05180f000000000000000000000000000000000000000000000000000000007bffffffffffffffffffffffffffffffffffffffffffffffffffffffff1916827bffffffffffffffffffffffffffffffffffffffffffffffffffffffff19161480610798575061079782611326565b5b9050919050565b7fdfbefbf47cfe66b701d8cfdbce1de81c821590819cb07e71cb01b6602fb0ee2781565b7f7b765e0e932d348852a6f810bfa1ab891e259123f02db8cdcde614c57022335781565b600860205281600052604060002081805160208101820180518482526020830160208501208183528095505050505050600091509150505481565b6000806000838152602001908152602001600020600101549050919050565b7fa535732178231314b57938e75e1be42a0d0fac039993e1fa0eb22dcb94bce10761086b816113a0565b610876848484610b53565b6108b5576040517f08c379a00000000000000000000000000000000000000000000000000000000081526004016108ac9061314b565b60405180910390fd5b6108c08484846113b4565b50505050565b600360009054906101000a900473ffffffffffffffffffffffffffffffffffffffff1681565b6108f582610822565b6108fe816113a0565b6109088383611547565b505050565b600b602052816000526040600020818051602081018201805184825260208301602085012081835280955050505050506000915091509054906101000a900460ff1681565b6109837fdfbefbf47cfe66b701d8cfdbce1de81c821590819cb07e71cb01b6602fb0ee2761097e61157b565b610b98565b8061099e575061099d6000801b61099861157b565b610b98565b5b6109dd576040517f08c379a00000000000000000000000000000000000000000000000000000000081526004016109d4906131dd565b60405180910390fd5b8260066000848152602001908152602001600020826040516109ff9190613277565b908152602001604051809103902081905550505050565b610a1e61157b565b73ffffffffffffffffffffffffffffffffffffffff168173ffffffffffffffffffffffffffffffffffffffff1614610a8b576040517f08c379a0000000000000000000000000000000000000000000000000000000008152600401610a8290613300565b60405180910390fd5b610a958282611583565b5050565b610aa48383836115b7565b505050565b7fa535732178231314b57938e75e1be42a0d0fac039993e1fa0eb22dcb94bce10781565b8073ffffffffffffffffffffffffffffffffffffffff16639eb356cb8333866040518463ffffffff1660e01b8152600401610b0a93929190613320565b6020604051808303816000875af1158015610b29573d6000803e3d6000fd5b505050506040513d601f19601f82011682018060405250810190610b4d9190613383565b50505050565b6000610b608484846115bc565b90509392505050565b6000610b90826001600086815260200190815260200160002061180e90919063ffffffff16565b905092915050565b600080600084815260200190815260200160002060000160008373ffffffffffffffffffffffffffffffffffffffff1673ffffffffffffffffffffffffffffffffffffffff16815260200190815260200160002060009054906101000a900460ff16905092915050565b7fa535732178231314b57938e75e1be42a0d0fac039993e1fa0eb22dcb94bce107610c2c816113a0565b610c37848484611029565b610c76576040517f08c379a0000000000000000000000000000000000000000000000000000000008152600401610c6d906133fc565b60405180910390fd5b610c81848484611828565b50505050565b6000801b81565b600760205281600052604060002081805160208101820180518482526020830160208501208183528095505050505050600091509150505481565b610cfa7fdfbefbf47cfe66b701d8cfdbce1de81c821590819cb07e71cb01b6602fb0ee27610cf561157b565b610b98565b80610d155750610d146000801b610d0f61157b565b610b98565b5b610d54576040517f08c379a0000000000000000000000000000000000000000000000000000000008152600401610d4b906131dd565b60405180910390fd5b610d7e7f7b765e0e932d348852a6f810bfa1ab891e259123f02db8cdcde614c57022335782611a62565b50565b600660205281600052604060002081805160208101820180518482526020830160208501208183528095505050505050600091509150505481565b600960205281600052604060002081805160208101820180518482526020830160208501208183528095505050505050600091509150505481565b600460009054906101000a900473ffffffffffffffffffffffffffffffffffffffff1681565b606090565b6000801b610e2f816113a0565b610e597fa535732178231314b57938e75e1be42a0d0fac039993e1fa0eb22dcb94bce10783611583565b5050565b6000610e7a60016000848152602001908152602001600020611a70565b9050919050565b7fa535732178231314b57938e75e1be42a0d0fac039993e1fa0eb22dcb94bce107610eab816113a0565b83600b600085815260200190815260200160002083604051610ecd9190613277565b908152602001604051809103902060006101000a81548160ff02191690836005811115610efd57610efc612a0f565b5b02179055506001600c600085815260200190815260200160002083604051610f259190613277565b908152602001604051809103902060006101000a81548160ff02191690831515021790555050505050565b610f5982610822565b610f62816113a0565b610f6c8383611583565b505050565b610fa27fdfbefbf47cfe66b701d8cfdbce1de81c821590819cb07e71cb01b6602fb0ee27610f9d61157b565b610b98565b80610fbd5750610fbc6000801b610fb761157b565b610b98565b5b610ffc576040517f08c379a0000000000000000000000000000000000000000000000000000000008152600401610ff3906131dd565b60405180910390fd5b6110267fa535732178231314b57938e75e1be42a0d0fac039993e1fa0eb22dcb94bce10782611a62565b50565b6000611036848484611a85565b90509392505050565b60055481565b611050858484610b53565b61108f576040517f08c379a00000000000000000000000000000000000000000000000000000000081526004016110869061314b565b60405180910390fd5b60008173ffffffffffffffffffffffffffffffffffffffff16639eb356cb8588886040518463ffffffff1660e01b81526004016110ce93929190613320565b6020604051808303816000875af11580156110ed573d6000803e3d6000fd5b505050506040513d601f19601f820116820180604052508101906111119190613383565b905080611153576040517f08c379a000000000000000000000000000000000000000000000000000000000815260040161114a90613468565b60405180910390fd5b505050505050565b6000801b611168816113a0565b6111927f7b765e0e932d348852a6f810bfa1ab891e259123f02db8cdcde614c57022335783611583565b5050565b600c602052816000526040600020818051602081018201805184825260208301602085012081835280955050505050506000915091509054906101000a900460ff1681565b7fa535732178231314b57938e75e1be42a0d0fac039993e1fa0eb22dcb94bce107611205816113a0565b611210848484611e5c565b50505050565b6112208282610b98565b6112f257600160008084815260200190815260200160002060000160008373ffffffffffffffffffffffffffffffffffffffff1673ffffffffffffffffffffffffffffffffffffffff16815260200190815260200160002060006101000a81548160ff02191690831515021790555061129761157b565b73ffffffffffffffffffffffffffffffffffffffff168173ffffffffffffffffffffffffffffffffffffffff16837f2f8788117e7eff1d82e926ec794901d17c78024a50270940304540a733656f0d60405160405180910390a45b5050565b600061131e836000018373ffffffffffffffffffffffffffffffffffffffff1660001b611f25565b905092915050565b60007f7965db0b000000000000000000000000000000000000000000000000000000007bffffffffffffffffffffffffffffffffffffffffffffffffffffffff1916827bffffffffffffffffffffffffffffffffffffffffffffffffffffffff19161480611399575061139882611f95565b5b9050919050565b6113b1816113ac61157b565b611fff565b50565b6113bf83838361209c565b6000600a6000848152602001908152602001600020826040516113e29190613277565b908152602001604051809103902060008573ffffffffffffffffffffffffffffffffffffffff1673ffffffffffffffffffffffffffffffffffffffff16815260200190815260200160002060006101000a81548160ff021916908315150217905550600060086000848152602001908152602001600020826040516114679190613277565b908152602001604051809103902054116114825760006114bf565b600160086000848152602001908152602001600020826040516114a59190613277565b9081526020016040518091039020546114be91906134b7565b5b60086000848152602001908152602001600020826040516114e09190613277565b90815260200160405180910390208190555060096000838152602001908152602001600020816040516115139190613277565b90815260200160405180910390206000815480929190611532906134eb565b91905055506115428383836120a1565b505050565b6115518282611216565b61157681600160008581526020019081526020016000206112f690919063ffffffff16565b505050565b600033905090565b61158d82826120a6565b6115b2816001600085815260200190815260200160002061218790919063ffffffff16565b505050565b505050565b600060019050600a6000848152602001908152602001600020826040516115e39190613277565b908152602001604051809103902060008573ffffffffffffffffffffffffffffffffffffffff1673ffffffffffffffffffffffffffffffffffffffff16815260200190815260200160002060009054906101000a900460ff166116495760009050611807565b6000600660008581526020019081526020016000208360405161166c9190613277565b90815260200160405180910390205490506000811461180557600260009054906101000a900473ffffffffffffffffffffffffffffffffffffffff1673ffffffffffffffffffffffffffffffffffffffff16638323406d8260026040518363ffffffff1660e01b81526004016116e3929190613579565b602060405180830381865afa158015611700573d6000803e3d6000fd5b505050506040513d601f19601f820116820180604052508101906117249190613383565b80156117fa5750600260009054906101000a900473ffffffffffffffffffffffffffffffffffffffff1673ffffffffffffffffffffffffffffffffffffffff1663548dbc7a826040518263ffffffff1660e01b81526004016117869190612864565b602060405180830381865afa1580156117a3573d6000803e3d6000fd5b505050506040513d601f19601f820116820180604052508101906117c791906135b7565b60096000868152602001908152602001600020846040516117e89190613277565b90815260200160405180910390205410155b1561180457600091505b5b505b9392505050565b600061181d83600001836121b7565b60001c905092915050565b6118338383836121e2565b6001600a6000848152602001908152602001600020826040516118569190613277565b908152602001604051809103902060008573ffffffffffffffffffffffffffffffffffffffff1673ffffffffffffffffffffffffffffffffffffffff16815260200190815260200160002060006101000a81548160ff02191690831515021790555060086000838152602001908152602001600020816040516118d99190613277565b908152602001604051809103902060008154809291906118f8906134eb565b9190505550600760008381526020019081526020016000208160405161191e9190613277565b9081526020016040518091039020600081548092919061193d906134eb565b91905055506000600360009054906101000a900473ffffffffffffffffffffffffffffffffffffffff1673ffffffffffffffffffffffffffffffffffffffff16635d248301846040518263ffffffff1660e01b815260040161199f9190612864565b602060405180830381865afa1580156119bc573d6000803e3d6000fd5b505050506040513d601f19601f820116820180604052508101906119e091906135f9565b90508073ffffffffffffffffffffffffffffffffffffffff1663fa9f34388486856040518463ffffffff1660e01b8152600401611a1f9392919061365f565b600060405180830381600087803b158015611a3957600080fd5b505af1158015611a4d573d6000803e3d6000fd5b50505050611a5c8484846121e7565b50505050565b611a6c8282611547565b5050565b6000611a7e826000016121ec565b9050919050565b600060019050600a600084815260200190815260200160002082604051611aac9190613277565b908152602001604051809103902060008573ffffffffffffffffffffffffffffffffffffffff1673ffffffffffffffffffffffffffffffffffffffff16815260200190815260200160002060009054906101000a900460ff1615611b135760009050611e55565b60006006600085815260200190815260200160002083604051611b369190613277565b908152602001604051809103902054905060008114611e5357600260009054906101000a900473ffffffffffffffffffffffffffffffffffffffff1673ffffffffffffffffffffffffffffffffffffffff16638323406d8260006040518363ffffffff1660e01b8152600401611bad9291906136d8565b602060405180830381865afa158015611bca573d6000803e3d6000fd5b505050506040513d601f19601f82011682018060405250810190611bee9190613383565b8015611cc45750600260009054906101000a900473ffffffffffffffffffffffffffffffffffffffff1673ffffffffffffffffffffffffffffffffffffffff1663c0eac886826040518263ffffffff1660e01b8152600401611c509190612864565b602060405180830381865afa158015611c6d573d6000803e3d6000fd5b505050506040513d601f19601f82011682018060405250810190611c9191906135b7565b6008600086815260200190815260200160002084604051611cb29190613277565b90815260200160405180910390205410155b15611cd25760009150611e52565b600260009054906101000a900473ffffffffffffffffffffffffffffffffffffffff1673ffffffffffffffffffffffffffffffffffffffff16638323406d8260016040518363ffffffff1660e01b8152600401611d3092919061373c565b602060405180830381865afa158015611d4d573d6000803e3d6000fd5b505050506040513d601f19601f82011682018060405250810190611d719190613383565b8015611e475750600260009054906101000a900473ffffffffffffffffffffffffffffffffffffffff1673ffffffffffffffffffffffffffffffffffffffff16630b4adfcf826040518263ffffffff1660e01b8152600401611dd39190612864565b602060405180830381865afa158015611df0573d6000803e3d6000fd5b505050506040513d601f19601f82011682018060405250810190611e1491906135b7565b6007600086815260200190815260200160002084604051611e359190613277565b90815260200160405180910390205410155b15611e5157600091505b5b5b505b9392505050565b611e678383836121fd565b60006008600084815260200190815260200160002082604051611e8a9190613277565b90815260200160405180910390205411611ea5576000611ee2565b60016008600084815260200190815260200160002082604051611ec89190613277565b908152602001604051809103902054611ee191906134b7565b5b6008600084815260200190815260200160002082604051611f039190613277565b908152602001604051809103902081905550611f20838383612202565b505050565b6000611f318383612207565b611f8a578260000182908060018154018082558091505060019003906000526020600020016000909190919091505582600001805490508360010160008481526020019081526020016000208190555060019050611f8f565b600090505b92915050565b60007f01ffc9a7000000000000000000000000000000000000000000000000000000007bffffffffffffffffffffffffffffffffffffffffffffffffffffffff1916827bffffffffffffffffffffffffffffffffffffffffffffffffffffffff1916149050919050565b6120098282610b98565b6120985761202e8173ffffffffffffffffffffffffffffffffffffffff16601461222a565b61203c8360001c602061222a565b60405160200161204d9291906137fd565b6040516020818303038152906040526040517f08c379a000000000000000000000000000000000000000000000000000000000815260040161208f9190613837565b60405180910390fd5b5050565b505050565b505050565b6120b08282610b98565b1561218357600080600084815260200190815260200160002060000160008373ffffffffffffffffffffffffffffffffffffffff1673ffffffffffffffffffffffffffffffffffffffff16815260200190815260200160002060006101000a81548160ff02191690831515021790555061212861157b565b73ffffffffffffffffffffffffffffffffffffffff168173ffffffffffffffffffffffffffffffffffffffff16837ff6391f5c32d9c69d2a47ea670b442974b53935d1edc7fd64eb21e047a839171b60405160405180910390a45b5050565b60006121af836000018373ffffffffffffffffffffffffffffffffffffffff1660001b612466565b905092915050565b60008260000182815481106121cf576121ce613859565b5b9060005260206000200154905092915050565b505050565b505050565b600081600001805490509050919050565b505050565b505050565b600080836001016000848152602001908152602001600020541415905092915050565b60606000600283600261223d9190613888565b61224791906138e2565b67ffffffffffffffff8111156122605761225f6126ce565b5b6040519080825280601f01601f1916602001820160405280156122925781602001600182028036833780820191505090505b5090507f3000000000000000000000000000000000000000000000000000000000000000816000815181106122ca576122c9613859565b5b60200101907effffffffffffffffffffffffffffffffffffffffffffffffffffffffffffff1916908160001a9053507f78000000000000000000000000000000000000000000000000000000000000008160018151811061232e5761232d613859565b5b60200101907effffffffffffffffffffffffffffffffffffffffffffffffffffffffffffff1916908160001a9053506000600184600261236e9190613888565b61237891906138e2565b90505b6001811115612418577f3031323334353637383961626364656600000000000000000000000000000000600f8616601081106123ba576123b9613859565b5b1a60f81b8282815181106123d1576123d0613859565b5b60200101907effffffffffffffffffffffffffffffffffffffffffffffffffffffffffffff1916908160001a905350600485901c94508061241190613938565b905061237b565b506000841461245c576040517f08c379a0000000000000000000000000000000000000000000000000000000008152600401612453906139ae565b60405180910390fd5b8091505092915050565b6000808360010160008481526020019081526020016000205490506000811461256e57600060018261249891906134b7565b90506000600186600001805490506124b091906134b7565b905081811461251f5760008660000182815481106124d1576124d0613859565b5b90600052602060002001549050808760000184815481106124f5576124f4613859565b5b90600052602060002001819055508387600101600083815260200190815260200160002081905550505b85600001805480612533576125326139ce565b5b600190038181906000526020600020016000905590558560010160008681526020019081526020016000206000905560019350505050612574565b60009150505b92915050565b6000604051905090565b600080fd5b600080fd5b60007fffffffff0000000000000000000000000000000000000000000000000000000082169050919050565b6125c38161258e565b81146125ce57600080fd5b50565b6000813590506125e0816125ba565b92915050565b6000602082840312156125fc576125fb612584565b5b600061260a848285016125d1565b91505092915050565b60008115159050919050565b61262881612613565b82525050565b6000602082019050612643600083018461261f565b92915050565b6000819050919050565b61265c81612649565b82525050565b60006020820190506126776000830184612653565b92915050565b6000819050919050565b6126908161267d565b811461269b57600080fd5b50565b6000813590506126ad81612687565b92915050565b600080fd5b600080fd5b6000601f19601f8301169050919050565b7f4e487b7100000000000000000000000000000000000000000000000000000000600052604160045260246000fd5b612706826126bd565b810181811067ffffffffffffffff82111715612725576127246126ce565b5b80604052505050565b600061273861257a565b905061274482826126fd565b919050565b600067ffffffffffffffff821115612764576127636126ce565b5b61276d826126bd565b9050602081019050919050565b82818337600083830152505050565b600061279c61279784612749565b61272e565b9050828152602081018484840111156127b8576127b76126b8565b5b6127c384828561277a565b509392505050565b600082601f8301126127e0576127df6126b3565b5b81356127f0848260208601612789565b91505092915050565b600080604083850312156128105761280f612584565b5b600061281e8582860161269e565b925050602083013567ffffffffffffffff81111561283f5761283e612589565b5b61284b858286016127cb565b9150509250929050565b61285e8161267d565b82525050565b60006020820190506128796000830184612855565b92915050565b61288881612649565b811461289357600080fd5b50565b6000813590506128a58161287f565b92915050565b6000602082840312156128c1576128c0612584565b5b60006128cf84828501612896565b91505092915050565b600073ffffffffffffffffffffffffffffffffffffffff82169050919050565b6000612903826128d8565b9050919050565b612913816128f8565b811461291e57600080fd5b50565b6000813590506129308161290a565b92915050565b60008060006060848603121561294f5761294e612584565b5b600061295d86828701612921565b935050602061296e8682870161269e565b925050604084013567ffffffffffffffff81111561298f5761298e612589565b5b61299b868287016127cb565b9150509250925092565b6129ae816128f8565b82525050565b60006020820190506129c960008301846129a5565b92915050565b600080604083850312156129e6576129e5612584565b5b60006129f485828601612896565b9250506020612a0585828601612921565b9150509250929050565b7f4e487b7100000000000000000000000000000000000000000000000000000000600052602160045260246000fd5b60068110612a4f57612a4e612a0f565b5b50565b6000819050612a6082612a3e565b919050565b6000612a7082612a52565b9050919050565b612a8081612a65565b82525050565b6000602082019050612a9b6000830184612a77565b92915050565b600080600060608486031215612aba57612ab9612584565b5b6000612ac88682870161269e565b9350506020612ad98682870161269e565b925050604084013567ffffffffffffffff811115612afa57612af9612589565b5b612b06868287016127cb565b9150509250925092565b600067ffffffffffffffff821115612b2b57612b2a6126ce565b5b602082029050602081019050919050565b600080fd5b6000612b54612b4f84612b10565b61272e565b90508083825260208201905060208402830185811115612b7757612b76612b3c565b5b835b81811015612bbe57803567ffffffffffffffff811115612b9c57612b9b6126b3565b5b808601612ba989826127cb565b85526020850194505050602081019050612b79565b5050509392505050565b600082601f830112612bdd57612bdc6126b3565b5b8135612bed848260208601612b41565b91505092915050565b600067ffffffffffffffff821115612c1157612c106126ce565b5b602082029050602081019050919050565b6000612c35612c3084612bf6565b61272e565b90508083825260208201905060208402830185811115612c5857612c57612b3c565b5b835b81811015612c815780612c6d8882612921565b845260208401935050602081019050612c5a565b5050509392505050565b600082601f830112612ca057612c9f6126b3565b5b8135612cb0848260208601612c22565b91505092915050565b600067ffffffffffffffff821115612cd457612cd36126ce565b5b602082029050602081019050919050565b6000612cf8612cf384612cb9565b61272e565b90508083825260208201905060208402830185811115612d1b57612d1a612b3c565b5b835b81811015612d445780612d30888261269e565b845260208401935050602081019050612d1d565b5050509392505050565b600082601f830112612d6357612d626126b3565b5b8135612d73848260208601612ce5565b91505092915050565b600080600060608486031215612d9557612d94612584565b5b600084013567ffffffffffffffff811115612db357612db2612589565b5b612dbf86828701612bc8565b935050602084013567ffffffffffffffff811115612de057612ddf612589565b5b612dec86828701612c8b565b925050604084013567ffffffffffffffff811115612e0d57612e0c612589565b5b612e1986828701612d4e565b9150509250925092565b600080600060608486031215612e3c57612e3b612584565b5b6000612e4a8682870161269e565b9350506020612e5b8682870161269e565b9250506040612e6c86828701612921565b9150509250925092565b60008060408385031215612e8d57612e8c612584565b5b6000612e9b85828601612896565b9250506020612eac8582860161269e565b9150509250929050565b600060208284031215612ecc57612ecb612584565b5b6000612eda84828501612921565b91505092915050565b600081519050919050565b600082825260208201905092915050565b6000819050602082019050919050565b612f188161267d565b82525050565b6000612f2a8383612f0f565b60208301905092915050565b6000602082019050919050565b6000612f4e82612ee3565b612f588185612eee565b9350612f6383612eff565b8060005b83811015612f94578151612f7b8882612f1e565b9750612f8683612f36565b925050600181019050612f67565b5085935050505092915050565b60006020820190508181036000830152612fbb8184612f43565b905092915050565b60068110612fd057600080fd5b50565b600081359050612fe281612fc3565b92915050565b60008060006060848603121561300157613000612584565b5b600061300f86828701612fd3565b93505060206130208682870161269e565b925050604084013567ffffffffffffffff81111561304157613040612589565b5b61304d868287016127cb565b9150509250925092565b600080600080600060a0868803121561307357613072612584565b5b600061308188828901612921565b95505060206130928882890161269e565b94505060406130a38882890161269e565b935050606086013567ffffffffffffffff8111156130c4576130c3612589565b5b6130d0888289016127cb565b92505060806130e188828901612921565b9150509295509295909350565b600082825260208201905092915050565b7f706c617965722063616e6e6f742065786974207a6f6e65000000000000000000600082015250565b60006131356017836130ee565b9150613140826130ff565b602082019050919050565b6000602082019050818103600083015261316481613128565b9050919050565b7f47616d65204d6173746572206f7220466163746f727920726f6c65207265717560008201527f6972656400000000000000000000000000000000000000000000000000000000602082015250565b60006131c76024836130ee565b91506131d28261316b565b604082019050919050565b600060208201905081810360008301526131f6816131ba565b9050919050565b600081519050919050565b600081905092915050565b60005b83811015613231578082015181840152602081019050613216565b83811115613240576000848401525b50505050565b6000613251826131fd565b61325b8185613208565b935061326b818560208601613213565b80840191505092915050565b60006132838284613246565b915081905092915050565b7f416363657373436f6e74726f6c3a2063616e206f6e6c792072656e6f756e636560008201527f20726f6c657320666f722073656c660000000000000000000000000000000000602082015250565b60006132ea602f836130ee565b91506132f58261328e565b604082019050919050565b60006020820190508181036000830152613319816132dd565b9050919050565b60006060820190506133356000830186612855565b61334260208301856129a5565b61334f6040830184612855565b949350505050565b61336081612613565b811461336b57600080fd5b50565b60008151905061337d81613357565b92915050565b60006020828403121561339957613398612584565b5b60006133a78482850161336e565b91505092915050565b7f706c617965722063616e6e6f7420656e746572207a6f6e650000000000000000600082015250565b60006133e66018836130ee565b91506133f1826133b0565b602082019050919050565b60006020820190508181036000830152613415816133d9565b9050919050565b7f706c6179657220756e61626c6520746f20656e746572206f6e20657869740000600082015250565b6000613452601e836130ee565b915061345d8261341c565b602082019050919050565b6000602082019050818103600083015261348181613445565b9050919050565b7f4e487b7100000000000000000000000000000000000000000000000000000000600052601160045260246000fd5b60006134c28261267d565b91506134cd8361267d565b9250828210156134e0576134df613488565b5b828203905092915050565b60006134f68261267d565b91507fffffffffffffffffffffffffffffffffffffffffffffffffffffffffffffffff82141561352957613528613488565b5b600182019050919050565b6000819050919050565b6000819050919050565b600061356361355e61355984613534565b61353e565b61267d565b9050919050565b61357381613548565b82525050565b600060408201905061358e6000830185612855565b61359b602083018461356a565b9392505050565b6000815190506135b181612687565b92915050565b6000602082840312156135cd576135cc612584565b5b60006135db848285016135a2565b91505092915050565b6000815190506135f38161290a565b92915050565b60006020828403121561360f5761360e612584565b5b600061361d848285016135e4565b91505092915050565b6000613631826131fd565b61363b81856130ee565b935061364b818560208601613213565b613654816126bd565b840191505092915050565b60006060820190506136746000830186612855565b61368160208301856129a5565b81810360408301526136938184613626565b9050949350505050565b6000819050919050565b60006136c26136bd6136b88461369d565b61353e565b61267d565b9050919050565b6136d2816136a7565b82525050565b60006040820190506136ed6000830185612855565b6136fa60208301846136c9565b9392505050565b6000819050919050565b600061372661372161371c84613701565b61353e565b61267d565b9050919050565b6137368161370b565b82525050565b60006040820190506137516000830185612855565b61375e602083018461372d565b9392505050565b7f416363657373436f6e74726f6c3a206163636f756e7420000000000000000000600082015250565b600061379b601783613208565b91506137a682613765565b601782019050919050565b7f206973206d697373696e6720726f6c6520000000000000000000000000000000600082015250565b60006137e7601183613208565b91506137f2826137b1565b601182019050919050565b60006138088261378e565b91506138148285613246565b915061381f826137da565b915061382b8284613246565b91508190509392505050565b600060208201905081810360008301526138518184613626565b905092915050565b7f4e487b7100000000000000000000000000000000000000000000000000000000600052603260045260246000fd5b60006138938261267d565b915061389e8361267d565b9250817fffffffffffffffffffffffffffffffffffffffffffffffffffffffffffffffff04831182151516156138d7576138d6613488565b5b828202905092915050565b60006138ed8261267d565b91506138f88361267d565b9250827fffffffffffffffffffffffffffffffffffffffffffffffffffffffffffffffff0382111561392d5761392c613488565b5b828201905092915050565b60006139438261267d565b9150600082141561395757613956613488565b5b600182039050919050565b7f537472696e67733a20686578206c656e67746820696e73756666696369656e74600082015250565b60006139986020836130ee565b91506139a382613962565b602082019050919050565b600060208201905081810360008301526139c78161398b565b9050919050565b7f4e487b7100000000000000000000000000000000000000000000000000000000600052603160045260246000fdfea2646970667358221220e32f6c40052a7828e61d23d95391ce7429ff25c8eade0f6c8868adc1a96b9e3564736f6c634300080b0033",
  "immutableReferences": {},
  "source": "// SPDX-License-Identifier: GPL-3.0\npragma solidity >=0.7.0 <0.9.0;\n\nimport \"@luckymachines/game-core/contracts/src/v0.0/PlayZone.sol\";\n\ncontract HexplorationZone is PlayZone {\n    enum Tile {\n        Default,\n        Jungle,\n        Plain,\n        Desert,\n        Mountain,\n        Base\n    }\n\n    // Mappings from game ID => zone alias\n    mapping(uint256 => mapping(string => Tile)) public tile;\n    mapping(uint256 => mapping(string => bool)) public tileIsSet;\n\n    constructor(\n        address _rulesetAddress,\n        address _gameRegistryAddress,\n        address adminAddress,\n        address factoryAddress\n    )\n        PlayZone(\n            _rulesetAddress,\n            _gameRegistryAddress,\n            adminAddress,\n            factoryAddress\n        )\n    {}\n\n    function setTile(\n        Tile _tile,\n        uint256 gameID,\n        string memory zoneAlias\n    ) public onlyRole(GAME_BOARD_ROLE) {\n        tile[gameID][zoneAlias] = _tile;\n        tileIsSet[gameID][zoneAlias] = true;\n    }\n\n    function playerCanEnter(\n        address playerAddress,\n        uint256 gameID,\n        string memory zoneAlias\n    ) public view override returns (bool canEnter) {\n        canEnter = super.playerCanEnter(playerAddress, gameID, zoneAlias);\n    }\n\n    function playerCanExit(\n        address playerAddress,\n        uint256 gameID,\n        string memory zoneAlias\n    ) public view override returns (bool canExit) {\n        canExit = super.playerCanExit(playerAddress, gameID, zoneAlias);\n    }\n\n    // Override for custom game\n    // function _playerWillEnter(\n    //     address playerAddress,\n    //     uint256 gameID,\n    //     string memory zoneAlias\n    // ) internal virtual {}\n\n    // function _playerDidEnter(\n    //     address playerAddress,\n    //     uint256 gameID,\n    //     string memory zoneAlias\n    // ) internal virtual {}\n\n    // function _playerWillExit(\n    //     address playerAddress,\n    //     uint256 gameID,\n    //     string memory zoneAlias\n    // ) internal virtual {}\n\n    // function _playerDidExit(\n    //     address playerAddress,\n    //     uint256 gameID,\n    //     string memory zoneAlias\n    // ) internal virtual {}\n\n    // function _playersWillEnter(\n    //     uint256 gameID,\n    //     uint256 groupID,\n    //     string memory zoneAlias\n    // ) internal virtual {\n    //     // called when batch of players are being entered from lobby or previous zone\n    //     // individual player entries are called from _playerDidEnter\n    // }\n\n    // function _allPlayersEntered(\n    //     uint256 gameID,\n    //     uint256 groupID,\n    //     string memory zoneAlias\n    // ) internal virtual {\n    //     // called after player group has all been entered\n    // }\n\n    // function _playerWillBeRemoved(\n    //     address playerAddress,\n    //     uint256 gameID,\n    //     string memory zoneAlias\n    // ) internal virtual {}\n\n    // function _playerWasRemoved(\n    //     address playerAddress,\n    //     uint256 gameID,\n    //     string memory zoneAlias\n    // ) internal virtual {}\n\n    // function _customAction(\n    //     string[] memory stringParams,\n    //     address[] memory addressParams,\n    //     uint256[] memory uintParams\n    // ) internal virtual {\n    //     // should definitiely do some checks when implementing this function\n    //     // make sure the sender is correct and nothing malicious is going on\n    // }\n}\n",
  "sourcePath": "/Users/max/Developer/LM/hexploration/contracts/HexplorationZone.sol",
  "compiler": {
    "name": "solc",
    "version": "0.8.11+commit.d7f03943.Emscripten.clang"
  },
  "schemaVersion": "3.4.2",
  "updatedAt": "2022-05-08T19:14:49.897Z",
  "devdoc": {
    "kind": "dev",
    "methods": {
      "getRoleAdmin(bytes32)": {
        "details": "Returns the admin role that controls `role`. See {grantRole} and {revokeRole}. To change a role's admin, use {_setRoleAdmin}."
      },
      "getRoleMember(bytes32,uint256)": {
        "details": "Returns one of the accounts that have `role`. `index` must be a value between 0 and {getRoleMemberCount}, non-inclusive. Role bearers are not sorted in any particular way, and their ordering may change at any point. WARNING: When using {getRoleMember} and {getRoleMemberCount}, make sure you perform all queries on the same block. See the following https://forum.openzeppelin.com/t/iterating-over-elements-on-enumerableset-in-openzeppelin-contracts/2296[forum post] for more information."
      },
      "getRoleMemberCount(bytes32)": {
        "details": "Returns the number of accounts that have `role`. Can be used together with {getRoleMember} to enumerate all bearers of a role."
      },
      "grantRole(bytes32,address)": {
        "details": "Grants `role` to `account`. If `account` had not been already granted `role`, emits a {RoleGranted} event. Requirements: - the caller must have ``role``'s admin role."
      },
      "hasRole(bytes32,address)": {
        "details": "Returns `true` if `account` has been granted `role`."
      },
      "renounceRole(bytes32,address)": {
        "details": "Revokes `role` from the calling account. Roles are often managed via {grantRole} and {revokeRole}: this function's purpose is to provide a mechanism for accounts to lose their privileges if they are compromised (such as when a trusted device is misplaced). If the calling account had been revoked `role`, emits a {RoleRevoked} event. Requirements: - the caller must be `account`."
      },
      "revokeRole(bytes32,address)": {
        "details": "Revokes `role` from `account`. If `account` had been granted `role`, emits a {RoleRevoked} event. Requirements: - the caller must have ``role``'s admin role."
      },
      "supportsInterface(bytes4)": {
        "details": "See {IERC165-supportsInterface}."
      }
    },
    "version": 1
  },
  "userdoc": {
    "kind": "user",
    "methods": {},
    "version": 1
  }
}