{
  "contractName": "HexplorationQueue",
  "abi": [
    {
      "inputs": [
        {
          "internalType": "address",
          "name": "gameplayAddress",
          "type": "address"
        }
      ],
      "stateMutability": "nonpayable",
      "type": "constructor"
    },
    {
      "anonymous": false,
      "inputs": [
        {
          "indexed": true,
          "internalType": "bytes32",
          "name": "role",
          "type": "bytes32"
        },
        {
          "indexed": true,
          "internalType": "bytes32",
          "name": "previousAdminRole",
          "type": "bytes32"
        },
        {
          "indexed": true,
          "internalType": "bytes32",
          "name": "newAdminRole",
          "type": "bytes32"
        }
      ],
      "name": "RoleAdminChanged",
      "type": "event"
    },
    {
      "anonymous": false,
      "inputs": [
        {
          "indexed": true,
          "internalType": "bytes32",
          "name": "role",
          "type": "bytes32"
        },
        {
          "indexed": true,
          "internalType": "address",
          "name": "account",
          "type": "address"
        },
        {
          "indexed": true,
          "internalType": "address",
          "name": "sender",
          "type": "address"
        }
      ],
      "name": "RoleGranted",
      "type": "event"
    },
    {
      "anonymous": false,
      "inputs": [
        {
          "indexed": true,
          "internalType": "bytes32",
          "name": "role",
          "type": "bytes32"
        },
        {
          "indexed": true,
          "internalType": "address",
          "name": "account",
          "type": "address"
        },
        {
          "indexed": true,
          "internalType": "address",
          "name": "sender",
          "type": "address"
        }
      ],
      "name": "RoleRevoked",
      "type": "event"
    },
    {
      "inputs": [],
      "name": "DEFAULT_ADMIN_ROLE",
      "outputs": [
        {
          "internalType": "bytes32",
          "name": "",
          "type": "bytes32"
        }
      ],
      "stateMutability": "view",
      "type": "function"
    },
    {
      "inputs": [],
      "name": "GAMEPLAY_ROLE",
      "outputs": [
        {
          "internalType": "bytes32",
          "name": "",
          "type": "bytes32"
        }
      ],
      "stateMutability": "view",
      "type": "function"
    },
    {
      "inputs": [],
      "name": "VERIFIED_CONTROLLER_ROLE",
      "outputs": [
        {
          "internalType": "bytes32",
          "name": "",
          "type": "bytes32"
        }
      ],
      "stateMutability": "view",
      "type": "function"
    },
    {
      "inputs": [
        {
          "internalType": "uint256",
          "name": "",
          "type": "uint256"
        },
        {
          "internalType": "uint256",
          "name": "",
          "type": "uint256"
        }
      ],
      "name": "activeAction",
      "outputs": [
        {
          "internalType": "enum HexplorationQueue.Action",
          "name": "",
          "type": "uint8"
        }
      ],
      "stateMutability": "view",
      "type": "function"
    },
    {
      "inputs": [
        {
          "internalType": "uint256",
          "name": "",
          "type": "uint256"
        }
      ],
      "name": "currentPhase",
      "outputs": [
        {
          "internalType": "enum HexplorationQueue.ProcessingPhase",
          "name": "",
          "type": "uint8"
        }
      ],
      "stateMutability": "view",
      "type": "function"
    },
    {
      "inputs": [
        {
          "internalType": "uint256",
          "name": "",
          "type": "uint256"
        }
      ],
      "name": "currentQueuePosition",
      "outputs": [
        {
          "internalType": "uint16",
          "name": "",
          "type": "uint16"
        }
      ],
      "stateMutability": "view",
      "type": "function"
    },
    {
      "inputs": [
        {
          "internalType": "uint256",
          "name": "",
          "type": "uint256"
        }
      ],
      "name": "game",
      "outputs": [
        {
          "internalType": "uint256",
          "name": "",
          "type": "uint256"
        }
      ],
      "stateMutability": "view",
      "type": "function"
    },
    {
      "inputs": [
        {
          "internalType": "bytes32",
          "name": "role",
          "type": "bytes32"
        }
      ],
      "name": "getRoleAdmin",
      "outputs": [
        {
          "internalType": "bytes32",
          "name": "",
          "type": "bytes32"
        }
      ],
      "stateMutability": "view",
      "type": "function"
    },
    {
      "inputs": [
        {
          "internalType": "bytes32",
          "name": "role",
          "type": "bytes32"
        },
        {
          "internalType": "uint256",
          "name": "index",
          "type": "uint256"
        }
      ],
      "name": "getRoleMember",
      "outputs": [
        {
          "internalType": "address",
          "name": "",
          "type": "address"
        }
      ],
      "stateMutability": "view",
      "type": "function"
    },
    {
      "inputs": [
        {
          "internalType": "bytes32",
          "name": "role",
          "type": "bytes32"
        }
      ],
      "name": "getRoleMemberCount",
      "outputs": [
        {
          "internalType": "uint256",
          "name": "",
          "type": "uint256"
        }
      ],
      "stateMutability": "view",
      "type": "function"
    },
    {
      "inputs": [
        {
          "internalType": "bytes32",
          "name": "role",
          "type": "bytes32"
        },
        {
          "internalType": "address",
          "name": "account",
          "type": "address"
        }
      ],
      "name": "grantRole",
      "outputs": [],
      "stateMutability": "nonpayable",
      "type": "function"
    },
    {
      "inputs": [
        {
          "internalType": "bytes32",
          "name": "role",
          "type": "bytes32"
        },
        {
          "internalType": "address",
          "name": "account",
          "type": "address"
        }
      ],
      "name": "hasRole",
      "outputs": [
        {
          "internalType": "bool",
          "name": "",
          "type": "bool"
        }
      ],
      "stateMutability": "view",
      "type": "function"
    },
    {
      "inputs": [
        {
          "internalType": "uint256",
          "name": "",
          "type": "uint256"
        }
      ],
      "name": "inProcessingQueue",
      "outputs": [
        {
          "internalType": "bool",
          "name": "",
          "type": "bool"
        }
      ],
      "stateMutability": "view",
      "type": "function"
    },
    {
      "inputs": [
        {
          "internalType": "uint256",
          "name": "",
          "type": "uint256"
        }
      ],
      "name": "playThroughPosition",
      "outputs": [
        {
          "internalType": "uint16",
          "name": "",
          "type": "uint16"
        }
      ],
      "stateMutability": "view",
      "type": "function"
    },
    {
      "inputs": [
        {
          "internalType": "uint256",
          "name": "",
          "type": "uint256"
        },
        {
          "internalType": "uint256",
          "name": "",
          "type": "uint256"
        }
      ],
      "name": "playerSubmitted",
      "outputs": [
        {
          "internalType": "bool",
          "name": "",
          "type": "bool"
        }
      ],
      "stateMutability": "view",
      "type": "function"
    },
    {
      "inputs": [
        {
          "internalType": "uint256",
          "name": "",
          "type": "uint256"
        },
        {
          "internalType": "uint256",
          "name": "",
          "type": "uint256"
        }
      ],
      "name": "players",
      "outputs": [
        {
          "internalType": "uint256",
          "name": "",
          "type": "uint256"
        }
      ],
      "stateMutability": "view",
      "type": "function"
    },
    {
      "inputs": [
        {
          "internalType": "uint256",
          "name": "",
          "type": "uint256"
        }
      ],
      "name": "processingQueue",
      "outputs": [
        {
          "internalType": "uint256",
          "name": "",
          "type": "uint256"
        }
      ],
      "stateMutability": "view",
      "type": "function"
    },
    {
      "inputs": [
        {
          "internalType": "uint256",
          "name": "",
          "type": "uint256"
        }
      ],
      "name": "queueID",
      "outputs": [
        {
          "internalType": "uint256",
          "name": "",
          "type": "uint256"
        }
      ],
      "stateMutability": "view",
      "type": "function"
    },
    {
      "inputs": [
        {
          "internalType": "uint256",
          "name": "",
          "type": "uint256"
        }
      ],
      "name": "randomness",
      "outputs": [
        {
          "internalType": "uint256",
          "name": "",
          "type": "uint256"
        }
      ],
      "stateMutability": "view",
      "type": "function"
    },
    {
      "inputs": [
        {
          "internalType": "bytes32",
          "name": "role",
          "type": "bytes32"
        },
        {
          "internalType": "address",
          "name": "account",
          "type": "address"
        }
      ],
      "name": "renounceRole",
      "outputs": [],
      "stateMutability": "nonpayable",
      "type": "function"
    },
    {
      "inputs": [
        {
          "internalType": "bytes32",
          "name": "role",
          "type": "bytes32"
        },
        {
          "internalType": "address",
          "name": "account",
          "type": "address"
        }
      ],
      "name": "revokeRole",
      "outputs": [],
      "stateMutability": "nonpayable",
      "type": "function"
    },
    {
      "inputs": [
        {
          "internalType": "uint256",
          "name": "",
          "type": "uint256"
        },
        {
          "internalType": "uint256",
          "name": "",
          "type": "uint256"
        }
      ],
      "name": "submissionAction",
      "outputs": [
        {
          "internalType": "enum HexplorationQueue.Action",
          "name": "",
          "type": "uint8"
        }
      ],
      "stateMutability": "view",
      "type": "function"
    },
    {
      "inputs": [
        {
          "internalType": "uint256",
          "name": "",
          "type": "uint256"
        },
        {
          "internalType": "uint256",
          "name": "",
          "type": "uint256"
        }
      ],
      "name": "submissionLeftHand",
      "outputs": [
        {
          "internalType": "string",
          "name": "",
          "type": "string"
        }
      ],
      "stateMutability": "view",
      "type": "function"
    },
    {
      "inputs": [
        {
          "internalType": "uint256",
          "name": "",
          "type": "uint256"
        },
        {
          "internalType": "uint256",
          "name": "",
          "type": "uint256"
        },
        {
          "internalType": "uint256",
          "name": "",
          "type": "uint256"
        }
      ],
      "name": "submissionOptions",
      "outputs": [
        {
          "internalType": "string",
          "name": "",
          "type": "string"
        }
      ],
      "stateMutability": "view",
      "type": "function"
    },
    {
      "inputs": [
        {
          "internalType": "uint256",
          "name": "",
          "type": "uint256"
        },
        {
          "internalType": "uint256",
          "name": "",
          "type": "uint256"
        }
      ],
      "name": "submissionRightHand",
      "outputs": [
        {
          "internalType": "string",
          "name": "",
          "type": "string"
        }
      ],
      "stateMutability": "view",
      "type": "function"
    },
    {
      "inputs": [
        {
          "internalType": "bytes4",
          "name": "interfaceId",
          "type": "bytes4"
        }
      ],
      "name": "supportsInterface",
      "outputs": [
        {
          "internalType": "bool",
          "name": "",
          "type": "bool"
        }
      ],
      "stateMutability": "view",
      "type": "function"
    },
    {
      "inputs": [
        {
          "internalType": "uint256",
          "name": "",
          "type": "uint256"
        }
      ],
      "name": "totalPlayers",
      "outputs": [
        {
          "internalType": "uint256",
          "name": "",
          "type": "uint256"
        }
      ],
      "stateMutability": "view",
      "type": "function"
    },
    {
      "inputs": [
        {
          "internalType": "address",
          "name": "controllerAddress",
          "type": "address"
        }
      ],
      "name": "addVerifiedController",
      "outputs": [],
      "stateMutability": "nonpayable",
      "type": "function"
    },
    {
      "inputs": [
        {
          "internalType": "uint256",
          "name": "gameID",
          "type": "uint256"
        },
        {
          "internalType": "uint256",
          "name": "_totalPlayers",
          "type": "uint256"
        }
      ],
      "name": "requestGameQueue",
      "outputs": [
        {
          "internalType": "uint256",
          "name": "",
          "type": "uint256"
        }
      ],
      "stateMutability": "nonpayable",
      "type": "function"
    },
    {
      "inputs": [
        {
          "internalType": "uint256",
          "name": "_queueID",
          "type": "uint256"
        }
      ],
      "name": "startGame",
      "outputs": [],
      "stateMutability": "nonpayable",
      "type": "function"
    },
    {
      "inputs": [
        {
          "internalType": "uint256",
          "name": "playerID",
          "type": "uint256"
        },
        {
          "internalType": "uint8",
          "name": "action",
          "type": "uint8"
        },
        {
          "internalType": "string[]",
          "name": "options",
          "type": "string[]"
        },
        {
          "internalType": "string",
          "name": "leftHand",
          "type": "string"
        },
        {
          "internalType": "string",
          "name": "rightHand",
          "type": "string"
        },
        {
          "internalType": "uint256",
          "name": "_queueID",
          "type": "uint256"
        }
      ],
      "name": "sumbitActionForPlayer",
      "outputs": [],
      "stateMutability": "nonpayable",
      "type": "function"
    },
    {
      "inputs": [
        {
          "internalType": "uint256",
          "name": "_queueID",
          "type": "uint256"
        }
      ],
      "name": "requestProcessActions",
      "outputs": [],
      "stateMutability": "nonpayable",
      "type": "function"
    },
    {
      "inputs": [
        {
          "internalType": "uint256",
          "name": "_queueID",
          "type": "uint256"
        }
      ],
      "name": "getAllPlayers",
      "outputs": [
        {
          "internalType": "uint256[]",
          "name": "",
          "type": "uint256[]"
        }
      ],
      "stateMutability": "view",
      "type": "function"
    },
    {
      "inputs": [
        {
          "internalType": "uint256",
          "name": "_queueID",
          "type": "uint256"
        },
        {
          "internalType": "uint256",
          "name": "_playerID",
          "type": "uint256"
        }
      ],
      "name": "getSubmissionOptions",
      "outputs": [
        {
          "internalType": "string[]",
          "name": "",
          "type": "string[]"
        }
      ],
      "stateMutability": "view",
      "type": "function"
    },
    {
      "inputs": [],
      "name": "getProcessingQueue",
      "outputs": [
        {
          "internalType": "uint256[]",
          "name": "",
          "type": "uint256[]"
        }
      ],
      "stateMutability": "view",
      "type": "function"
    },
    {
      "inputs": [
        {
          "internalType": "enum HexplorationQueue.ProcessingPhase",
          "name": "phase",
          "type": "uint8"
        },
        {
          "internalType": "uint256",
          "name": "_queueID",
          "type": "uint256"
        }
      ],
      "name": "setPhase",
      "outputs": [],
      "stateMutability": "nonpayable",
      "type": "function"
    },
    {
      "inputs": [
        {
          "internalType": "uint256",
          "name": "randomNumber",
          "type": "uint256"
        },
        {
          "internalType": "uint256",
          "name": "_queueID",
          "type": "uint256"
        }
      ],
      "name": "setRandomNumber",
      "outputs": [],
      "stateMutability": "nonpayable",
      "type": "function"
    },
    {
      "inputs": [
        {
          "internalType": "uint256",
          "name": "_queueID",
          "type": "uint256"
        }
      ],
      "name": "requestNewQueueID",
      "outputs": [],
      "stateMutability": "nonpayable",
      "type": "function"
    },
    {
      "inputs": [
        {
          "internalType": "uint256",
          "name": "_queueID",
          "type": "uint256"
        },
        {
          "internalType": "bool",
          "name": "gameComplete",
          "type": "bool"
        }
      ],
      "name": "finishProcessing",
      "outputs": [],
      "stateMutability": "nonpayable",
      "type": "function"
    }
  ],
  "bytecode": "0x60806040523480156200001157600080fd5b50604051620022363803806200223683398101604081905262000034916200027d565b6200005c60006200004d640100000000620000b2810204565b640100000000620000b6810204565b620000917f0c2c7e957bdf811d5a896b04e816b9c382dfb980c93b21b0288b75c85d598acd82640100000000620000b6810204565b620000ab600264010000000062000e86620000cf82021704565b50620002af565b3390565b620000cb8282640100000000620000d8810204565b5050565b80546001019055565b620000f2828264010000000062000e8f6200011f82021704565b60008281526001602052604090206200011a908264010000000062000f13620001bb82021704565b505050565b620001348282640100000000620001e4810204565b620000cb57600082815260208181526040808320600160a060020a03851684529091529020805460ff1916600117905562000177640100000000620000b2810204565b600160a060020a031681600160a060020a0316837f2f8788117e7eff1d82e926ec794901d17c78024a50270940304540a733656f0d60405160405180910390a45050565b6000620001db83600160a060020a0384166401000000006200020d810204565b90505b92915050565b600091825260208281526040808420600160a060020a0393909316845291905290205460ff1690565b600062000224838364010000000062000265810204565b6200025c57508154600181810184556000848152602080822090930184905584548482528286019093526040902091909155620001de565b506000620001de565b60009081526001919091016020526040902054151590565b6000602082840312156200029057600080fd5b8151600160a060020a0381168114620002a857600080fd5b9392505050565b611f7780620002bf6000396000f3fe608060405234801561001057600080fd5b506004361061024a576000357c01000000000000000000000000000000000000000000000000000000009004806391d1485411610158578063b1fb6405116100d5578063d809371f11610099578063d809371f146105ff578063e2f315c114610612578063e5ed1d5914610636578063e73ed37f14610649578063fd82e21f1461067757600080fd5b8063b1fb640514610576578063ca15c873146105a6578063cddbe729146105b9578063d4f5b152146105d9578063d547741f146105ec57600080fd5b8063a217fddf1161011c578063a217fddf14610508578063a2dc586014610510578063ac01b83d14610530578063ae6a705614610543578063af7afe561461055657600080fd5b806391d1485414610499578063998f1b80146104ac5780639b8e6819146104bf5780639bd78d2b146104d25780639f6bc61d146104f557600080fd5b8063248a9ca3116101e65780636b775e5c116101aa5780636b775e5c146103fa5780637f0415911461040d578063861814e21461043b5780638e6e1d891461045b5780639010d07c1461046e57600080fd5b8063248a9ca31461038957806328d6b4c0146103ac5780632f2ff15d146103c157806336568abe146103d45780635da4fabc146103e757600080fd5b806301ffc9a71461024f57806304ac8fee1461027757806306fb55271461028c5780630c6ea531146102ad578063181ad5e7146102e45780631a8972391461031f5780631b1d5b27146103345780631b341b3e146103545780631c834a7f14610374575b600080fd5b61026261025d3660046118bc565b61068a565b60405190151581526020015b60405180910390f35b61028a6102853660046118e6565b6106ce565b005b61029f61029a366004611916565b61071b565b60405190815260200161026e565b6102d16102bb366004611938565b60046020526000908152604090205461ffff1681565b60405161ffff909116815260200161026e565b6103126102f2366004611916565b601260209081526000928352604080842090915290825290205460ff1681565b60405161026e919061196a565b610327610747565b60405161026e9190611984565b61029f610342366004611938565b600c6020526000908152604090205481565b6103676103623660046119c8565b61079f565b60405161026e9190611a4c565b61029f600080516020611f2283398151915281565b61029f610397366004611938565b60009081526020819052604090206001015490565b61029f600080516020611f0283398151915281565b61028a6103cf366004611a7b565b610865565b61028a6103e2366004611a7b565b61088f565b61028a6103f5366004611916565b610923565b61028a610408366004611938565b61094d565b61031261041b366004611916565b600d60209081526000928352604080842090915290825290205460ff1681565b61029f610449366004611938565b60066020526000908152604090205481565b61028a610469366004611aa7565b61096e565b61048161047c366004611916565b610990565b604051600160a060020a03909116815260200161026e565b6102626104a7366004611a7b565b6109af565b61029f6104ba366004611916565b6109d8565b6103676104cd366004611916565b610a09565b6102626104e0366004611938565b60076020526000908152604090205460ff1681565b61029f610503366004611938565b610a2d565b61029f600081565b61052361051e366004611916565b610a4e565b60405161026e9190611adc565b61032761053e366004611938565b610b3c565b61028a610551366004611c95565b610b9e565b61029f610564366004611938565b600b6020526000908152604090205481565b610599610584366004611938565b60086020526000908152604090205460ff1681565b60405161026e9190611d48565b61029f6105b4366004611938565b610d7a565b61029f6105c7366004611938565b60096020526000908152604090205481565b61028a6105e7366004611d5c565b610d91565b61028a6105fa366004611a7b565b610db4565b61028a61060d366004611938565b610dd9565b6102d1610620366004611938565b60056020526000908152604090205461ffff1681565b61028a610644366004611938565b610e2e565b610262610657366004611916565b601160209081526000928352604080842090915290825290205460ff1681565b610367610685366004611916565b610e62565b6000600160e060020a031982167f5a05180f0000000000000000000000000000000000000000000000000000000014806106c857506106c882610f28565b92915050565b600080516020611f028339815191526106e681610f8f565b6000828152600860205260409020805484919060ff1916600183600581111561071157610711611951565b0217905550505050565b6000600080516020611f2283398151915261073581610f8f565b61073f8484610f9c565b949350505050565b6060600380548060200260200160405190810160405280929190818152602001828054801561079557602002820191906000526020600020905b815481526020019060010190808311610781575b5050505050905090565b600e60205282600052604060002060205281600052604060002081815481106107c757600080fd5b90600052602060002001600092509250505080546107e490611d77565b80601f016020809104026020016040519081016040528092919081815260200182805461081090611d77565b801561085d5780601f106108325761010080835404028352916020019161085d565b820191906000526020600020905b81548152906001019060200180831161084057829003601f168201915b505050505081565b60008281526020819052604090206001015461088081610f8f565b61088a8383611044565b505050565b600160a060020a03811633146109155760405160e560020a62461bcd02815260206004820152602f60248201527f416363657373436f6e74726f6c3a2063616e206f6e6c792072656e6f756e636560448201527f20726f6c657320666f722073656c66000000000000000000000000000000000060648201526084015b60405180910390fd5b61091f8282611066565b5050565b600080516020611f0283398151915261093b81610f8f565b506000908152600c6020526040902055565b600080516020611f2283398151915261096581610f8f565b61091f82611088565b600080516020611f0283398151915261098681610f8f565b61088a8383611137565b60008281526001602052604081206109a89083611236565b9392505050565b600091825260208281526040808420600160a060020a0393909316845291905290205460ff1690565b600a60205281600052604060002081815481106109f457600080fd5b90600052602060002001600091509150505481565b6010602090815260009283526040808420909152908252902080546107e490611d77565b60038181548110610a3d57600080fd5b600091825260209091200154905081565b6000828152600e602090815260408083208484528252808320805482518185028101850190935280835260609492939192909184015b82821015610b30578382906000526020600020018054610aa390611d77565b80601f0160208091040260200160405190810160405280929190818152602001828054610acf90611d77565b8015610b1c5780601f10610af157610100808354040283529160200191610b1c565b820191906000526020600020905b815481529060010190602001808311610aff57829003601f168201915b505050505081526020019060010190610a84565b50505050905092915050565b6000818152600a6020908152604091829020805483518184028101840190945280845260609392830182828015610b9257602002820191906000526020600020905b815481526020019060010190808311610b7e575b50505050509050919050565b600080516020611f22833981519152610bb681610f8f565b600160008381526008602052604090205460ff166005811115610bdb57610bdb611951565b14610c2b5760405160e560020a62461bcd02815260206004820152601460248201527f4e6f74207375626d697373696f6e207068617365000000000000000000000000604482015260640161090c565b60008281526011602090815260408083208a845290915290205460ff16610d71578560ff166006811115610c6157610c61611951565b6000838152600d602090815260408083208b84529091529020805460ff19166001836006811115610c9457610c94611951565b02179055506000828152600e602090815260408083208a845282529091208651610cc092880190611773565b506000828152600f602090815260408083208a845282529091208551610ce8928701906117d0565b5060008281526010602090815260408083208a845282529091208451610d10928601906117d0565b506000828152600a602081815260408084208054600181810183558287528487209091018d9055878652601184528286208d87528452828620805460ff19169091179055868552600b8352932054919052905410610d7157610d7182611088565b50505050505050565b60008181526001602052604081206106c890611242565b6000610d9c81610f8f565b61091f600080516020611f2283398151915283610865565b600082815260208190526040902060010154610dcf81610f8f565b61088a8383611066565b600080516020611f02833981519152610df181610f8f565b600082815260096020908152604080832054600b90925290912054610e168282610f9c565b60009283526006602052604090922091909155505050565b600080516020611f22833981519152610e4681610f8f565b506000908152600860205260409020805460ff19166001179055565b600f602090815260009283526040808420909152908252902080546107e490611d77565b80546001019055565b610e9982826109af565b61091f57600082815260208181526040808320600160a060020a03851684529091529020805460ff19166001179055610ecf3390565b600160a060020a031681600160a060020a0316837f2f8788117e7eff1d82e926ec794901d17c78024a50270940304540a733656f0d60405160405180910390a45050565b60006109a883600160a060020a03841661124c565b6000600160e060020a031982167f7965db0b0000000000000000000000000000000000000000000000000000000014806106c857507f01ffc9a700000000000000000000000000000000000000000000000000000000600160e060020a03198316146106c8565b610f99813361129b565b50565b60008281526006602052604081205415610ffb5760405160e560020a62461bcd02815260206004820152601160248201527f717565756520616c726561647920736574000000000000000000000000000000604482015260640161090c565b600061100660025490565b600081815260096020908152604080832088905587835260068252808320849055838352600b909152902084905590506109a8600280546001019055565b61104e8282610e8f565b600082815260016020526040902061088a9082610f13565b6110708282611302565b600082815260016020526040902061088a9082611367565b60008181526007602052604090205460ff161580156110c95750600160008281526008602052604090205460ff1660058111156110c7576110c7611951565b145b15610f99576003805460018082019092557fc2575a0e9e593c00f959f8c92f12db2869c3395a3b0502d05e2516446f71f85b018290556000828152600760209081526040808320805460ff1990811690951790556008909152902080549091166002179055610f998161137c565b60008281526009602090815260408083205460088352818420805460ff199081166004179091558185526006845282852085905586855260079093529083208054909216909155905b6003548110156111e757836003828154811061119e5761119e611db5565b906000526020600020015414156111d5576000600382815481106111c4576111c4611db5565b6000918252602090912001556111e7565b806111df81611de7565b915050611180565b508161088a576000838152600b6020526040812054906112078383610f9c565b600093845260066020908152604080862083905591855260089052909220805460ff1916600117905550505050565b60006109a88383611413565b60006106c8825490565b6000818152600183016020526040812054611293575081546001818101845560008481526020808220909301849055845484825282860190935260409020919091556106c8565b5060006106c8565b6112a582826109af565b61091f576112bd81600160a060020a0316601461143d565b6112c883602061143d565b6040516020016112d9929190611e02565b60408051601f198184030181529082905260e560020a62461bcd02825261090c91600401611a4c565b61130c82826109af565b1561091f57600082815260208181526040808320600160a060020a0385168085529252808320805460ff1916905551339285917ff6391f5c32d9c69d2a47ea670b442974b53935d1edc7fd64eb21e047a839171b9190a45050565b60006109a883600160a060020a03841661163f565b6000818152601360209081526040808320849055518392916113ab914291859101918252602082015260400190565b60408051601f198184030181528282528051602091820120600180855284840190935293506000929190808301908036833701905050905081816000815181106113f7576113f7611db5565b60200260200101818152505061140d8382611732565b50505050565b600082600001828154811061142a5761142a611db5565b9060005260206000200154905092915050565b6060600061144c836002611e83565b611457906002611ea2565b67ffffffffffffffff81111561146f5761146f611b3d565b6040519080825280601f01601f191660200182016040528015611499576020820181803683370190505b5090507f3000000000000000000000000000000000000000000000000000000000000000816000815181106114d0576114d0611db5565b6020010190600160f860020a031916908160001a9053507f78000000000000000000000000000000000000000000000000000000000000008160018151811061151b5761151b611db5565b6020010190600160f860020a031916908160001a905350600061153f846002611e83565b61154a906001611ea2565b90505b60018111156115ed577f303132333435363738396162636465660000000000000000000000000000000085600f166010811061158b5761158b611db5565b1a7f0100000000000000000000000000000000000000000000000000000000000000028282815181106115c0576115c0611db5565b6020010190600160f860020a031916908160001a9053506010909404936115e681611eba565b905061154d565b5083156109a85760405160e560020a62461bcd02815260206004820181905260248201527f537472696e67733a20686578206c656e67746820696e73756666696369656e74604482015260640161090c565b60008181526001830160205260408120548015611728576000611663600183611ed1565b855490915060009061167790600190611ed1565b90508181146116dc57600086600001828154811061169757611697611db5565b90600052602060002001549050808760000184815481106116ba576116ba611db5565b6000918252602080832090910192909255918252600188019052604090208390555b85548690806116ed576116ed611ee8565b6001900381819060005260206000200160009055905585600101600086815260200190815260200160002060009055600193505050506106c8565b60009150506106c8565b60008281526013602052604081205482519091839161175357611753611db5565b6020908102919091018101516000928352600c9091526040909120555050565b8280548282559060005260206000209081019282156117c0579160200282015b828111156117c057825180516117b09184916020909101906117d0565b5091602001919060010190611793565b506117cc929150611850565b5090565b8280546117dc90611d77565b90600052602060002090601f0160209004810192826117fe5760008555611844565b82601f1061181757805160ff1916838001178555611844565b82800160010185558215611844579182015b82811115611844578251825591602001919060010190611829565b506117cc92915061186d565b808211156117cc5760006118648282611882565b50600101611850565b5b808211156117cc576000815560010161186e565b50805461188e90611d77565b6000825580601f1061189e575050565b601f016020900490600052602060002090810190610f99919061186d565b6000602082840312156118ce57600080fd5b8135600160e060020a0319811681146109a857600080fd5b600080604083850312156118f957600080fd5b82356006811061190857600080fd5b946020939093013593505050565b6000806040838503121561192957600080fd5b50508035926020909101359150565b60006020828403121561194a57600080fd5b5035919050565b60e060020a634e487b7102600052602160045260246000fd5b602081016007831061197e5761197e611951565b91905290565b6020808252825182820181905260009190848201906040850190845b818110156119bc578351835292840192918401916001016119a0565b50909695505050505050565b6000806000606084860312156119dd57600080fd5b505081359360208301359350604090920135919050565b60005b83811015611a0f5781810151838201526020016119f7565b8381111561140d5750506000910152565b60008151808452611a388160208601602086016119f4565b601f01601f19169290920160200192915050565b6020815260006109a86020830184611a20565b8035600160a060020a0381168114611a7657600080fd5b919050565b60008060408385031215611a8e57600080fd5b82359150611a9e60208401611a5f565b90509250929050565b60008060408385031215611aba57600080fd5b8235915060208301358015158114611ad157600080fd5b809150509250929050565b600060208083018184528085518083526040860191506040848202870101925083870160005b82811015611b3057603f19888603018452611b1e858351611a20565b94509285019290850190600101611b02565b5092979650505050505050565b60e060020a634e487b7102600052604160045260246000fd5b604051601f8201601f1916810167ffffffffffffffff81118282101715611b7f57611b7f611b3d565b604052919050565b600082601f830112611b9857600080fd5b813567ffffffffffffffff811115611bb257611bb2611b3d565b611bc5601f8201601f1916602001611b56565b818152846020838601011115611bda57600080fd5b816020850160208301376000918101602001919091529392505050565b600082601f830112611c0857600080fd5b8135602067ffffffffffffffff80831115611c2557611c25611b3d565b818302611c33838201611b56565b9384528581018301938381019088861115611c4d57600080fd5b84880192505b85831015611c8957823584811115611c6b5760008081fd5b611c798a87838c0101611b87565b8352509184019190840190611c53565b98975050505050505050565b60008060008060008060c08789031215611cae57600080fd5b86359550602087013560ff81168114611cc657600080fd5b9450604087013567ffffffffffffffff80821115611ce357600080fd5b611cef8a838b01611bf7565b95506060890135915080821115611d0557600080fd5b611d118a838b01611b87565b94506080890135915080821115611d2757600080fd5b50611d3489828a01611b87565b92505060a087013590509295509295509295565b602081016006831061197e5761197e611951565b600060208284031215611d6e57600080fd5b6109a882611a5f565b600281046001821680611d8b57607f821691505b60208210811415611daf5760e060020a634e487b7102600052602260045260246000fd5b50919050565b60e060020a634e487b7102600052603260045260246000fd5b60e060020a634e487b7102600052601160045260246000fd5b6000600019821415611dfb57611dfb611dce565b5060010190565b7f416363657373436f6e74726f6c3a206163636f756e7420000000000000000000815260008351611e3a8160178501602088016119f4565b7f206973206d697373696e6720726f6c65200000000000000000000000000000006017918401918201528351611e778160288401602088016119f4565b01602801949350505050565b6000816000190483118215151615611e9d57611e9d611dce565b500290565b60008219821115611eb557611eb5611dce565b500190565b600081611ec957611ec9611dce565b506000190190565b600082821015611ee357611ee3611dce565b500390565b60e060020a634e487b7102600052603160045260246000fdfe0c2c7e957bdf811d5a896b04e816b9c382dfb980c93b21b0288b75c85d598acd80e2196015fc06a9d891759f8e4f51eb314ef5e9ea068528a8ed0063b87759f0a26469706673582212204c5ddc6ed45413654add25d1c1599080ff3e717452bb73bf980665ff3025176964736f6c634300080b0033",
  "immutableReferences": {},
  "source": "// SPDX-License-Identifier: GPL-3.0\npragma solidity >=0.7.0 <0.9.0;\n\n//TODO:\n// setup timer keeper for when all players don't sumbit moves\n\nimport \"@openzeppelin/contracts/access/AccessControlEnumerable.sol\";\nimport \"@openzeppelin/contracts/utils/Counters.sol\";\nimport \"./HexplorationStateUpdate.sol\";\n\ncontract HexplorationQueue is AccessControlEnumerable {\n    using Counters for Counters.Counter;\n    Counters.Counter internal QUEUE_ID;\n\n    enum ProcessingPhase {\n        Start,\n        Submission,\n        Processing,\n        PlayThrough,\n        Processed,\n        Closed\n    }\n    enum Action {\n        Idle,\n        Move,\n        SetupCamp,\n        BreakDownCamp,\n        Dig,\n        Rest,\n        Help\n    }\n\n    bytes32 public constant VERIFIED_CONTROLLER_ROLE =\n        keccak256(\"VERIFIED_CONTROLLER_ROLE\");\n    bytes32 public constant GAMEPLAY_ROLE = keccak256(\"GAMEPLAY_ROLE\");\n\n    // Array of Queue IDs to be processed.\n    uint256[] public processingQueue;\n\n    // do we need these 2?\n    mapping(uint256 => uint16) public currentQueuePosition; // ?? increases with each player in queue, then back to 0\n    mapping(uint256 => uint16) public playThroughPosition; // ?? in case we need to batch this too... hopefully not.\n\n    // mapping from game ID\n    mapping(uint256 => uint256) public queueID; // mapping from game ID to it's queue, updates to 0 when finished\n\n    // mappings from queue index\n    mapping(uint256 => bool) public inProcessingQueue; // game queue is in processing queue\n    mapping(uint256 => ProcessingPhase) public currentPhase; // processingPhase\n    mapping(uint256 => uint256) public game; // mapping from queue ID to it's game ID\n    mapping(uint256 => uint256[]) public players; // all players with moves to process\n    mapping(uint256 => uint256) public totalPlayers; // total # of players who will be submitting\n    mapping(uint256 => uint256) public randomness; // randomness delivered here at start of each phase processing\n\n    // mappings from queue index => player id\n    mapping(uint256 => mapping(uint256 => Action)) public submissionAction;\n    mapping(uint256 => mapping(uint256 => string[])) public submissionOptions;\n    mapping(uint256 => mapping(uint256 => string)) public submissionLeftHand;\n    mapping(uint256 => mapping(uint256 => string)) public submissionRightHand;\n    mapping(uint256 => mapping(uint256 => bool)) public playerSubmitted;\n\n    // current action, so we know what to process during play through phase\n    mapping(uint256 => mapping(uint256 => Action)) public activeAction; // defaults to idle\n\n    // From request ID => queue ID\n    mapping(uint256 => uint256) internal randomnessRequestQueueID; // ID set before randomness delivered\n\n    ///////  VRF can kick off processing phase\n\n    constructor(address gameplayAddress) {\n        _setupRole(DEFAULT_ADMIN_ROLE, _msgSender());\n        _setupRole(GAMEPLAY_ROLE, gameplayAddress);\n        QUEUE_ID.increment(); // start at 1\n    }\n\n    // Can set multiple VCs, one for manual pushing, one for keeper\n    function addVerifiedController(address controllerAddress)\n        public\n        onlyRole(DEFAULT_ADMIN_ROLE)\n    {\n        grantRole(VERIFIED_CONTROLLER_ROLE, controllerAddress);\n    }\n\n    // pass total # players making submissions\n    // total can be less than actual totalPlayers in game\n    function requestGameQueue(uint256 gameID, uint256 _totalPlayers)\n        external\n        onlyRole(VERIFIED_CONTROLLER_ROLE)\n        returns (uint256)\n    {\n        return _requestGameQueue(gameID, _totalPlayers);\n    }\n\n    // Sent from controller\n\n    function startGame(uint256 _queueID)\n        public\n        onlyRole(VERIFIED_CONTROLLER_ROLE)\n    {\n        currentPhase[_queueID] = ProcessingPhase.Submission;\n    }\n\n    function sumbitActionForPlayer(\n        uint256 playerID,\n        uint8 action,\n        string[] memory options,\n        string memory leftHand,\n        string memory rightHand,\n        uint256 _queueID\n    ) public onlyRole(VERIFIED_CONTROLLER_ROLE) {\n        require(\n            currentPhase[_queueID] == ProcessingPhase.Submission,\n            \"Not submission phase\"\n        );\n        if (!playerSubmitted[_queueID][playerID]) {\n            submissionAction[_queueID][playerID] = Action(action);\n            submissionOptions[_queueID][playerID] = options;\n            submissionLeftHand[_queueID][playerID] = leftHand;\n            submissionRightHand[_queueID][playerID] = rightHand;\n\n            players[_queueID].push(playerID);\n            playerSubmitted[_queueID][playerID] = true;\n            // automatically add to queue if last player to submit move\n            if (players[_queueID].length >= totalPlayers[_queueID]) {\n                _processAllActions(_queueID);\n            }\n        }\n    }\n\n    // Will get processed once keeper is available\n    // and previous game queues have been processed\n    function requestProcessActions(uint256 _queueID)\n        public\n        onlyRole(VERIFIED_CONTROLLER_ROLE)\n    {\n        _processAllActions(_queueID);\n    }\n\n    function getAllPlayers(uint256 _queueID)\n        public\n        view\n        returns (uint256[] memory)\n    {\n        return players[_queueID];\n    }\n\n    function getSubmissionOptions(uint256 _queueID, uint256 _playerID)\n        public\n        view\n        returns (string[] memory)\n    {\n        return submissionOptions[_queueID][_playerID];\n    }\n\n    function getProcessingQueue() public view returns (uint256[] memory) {\n        return processingQueue;\n    }\n\n    // Gameplay interactions\n    function setPhase(ProcessingPhase phase, uint256 _queueID)\n        external\n        onlyRole(GAMEPLAY_ROLE)\n    {\n        currentPhase[_queueID] = phase;\n    }\n\n    function setRandomNumber(uint256 randomNumber, uint256 _queueID)\n        external\n        onlyRole(GAMEPLAY_ROLE)\n    {\n        randomness[_queueID] = randomNumber;\n    }\n\n    function requestNewQueueID(uint256 _queueID)\n        external\n        onlyRole(GAMEPLAY_ROLE)\n    {\n        uint256 g = game[_queueID];\n        uint256 tp = totalPlayers[_queueID];\n        queueID[g] = _requestGameQueue(g, tp);\n    }\n\n    function finishProcessing(uint256 _queueID, bool gameComplete)\n        public\n        onlyRole(GAMEPLAY_ROLE)\n    {\n        _setProcessingComplete(_queueID, gameComplete);\n    }\n\n    function _setProcessingComplete(uint256 _queueID, bool gameComplete)\n        internal\n    {\n        uint256 g = game[_queueID];\n        currentPhase[_queueID] = ProcessingPhase.Processed;\n        queueID[g] = 0;\n        inProcessingQueue[_queueID] = false;\n        for (uint256 i = 0; i < processingQueue.length; i++) {\n            if (processingQueue[i] == _queueID) {\n                processingQueue[i] = 0;\n                break;\n            }\n        }\n        if (!gameComplete) {\n            // get new queue ID for next set of player actions\n            uint256 tp = totalPlayers[_queueID];\n            uint256 newQueueID = _requestGameQueue(g, tp);\n            queueID[g] = newQueueID;\n            currentPhase[newQueueID] = ProcessingPhase.Submission;\n        }\n    }\n\n    // Internal\n    function _processAllActions(uint256 _queueID) internal {\n        // Can only add unique unprocessed game queues into processing queue\n        if (\n            !inProcessingQueue[_queueID] &&\n            currentPhase[_queueID] == ProcessingPhase.Submission\n        ) {\n            processingQueue.push(_queueID);\n            inProcessingQueue[_queueID] = true;\n            currentPhase[_queueID] = ProcessingPhase.Processing;\n            // request random number for phase\n            requestRandomWords(_queueID);\n        }\n    }\n\n    function requestRandomWords(uint256 _queueID) internal {\n        // randomnessRequestID[_queueID] = COORDINATOR.requestRandomWords(\n        //   keyHash,\n        //   s_subscriptionId,\n        //   requestConfirmations,\n        //   callbackGasLimit,\n        //   numWords\n        // );\n\n        //set faux id + randomness\n        uint256 reqID = _queueID;\n        randomnessRequestQueueID[reqID] = _queueID;\n        uint256 random = uint256(keccak256(abi.encode(block.timestamp, reqID)));\n        uint256[] memory randomWords = new uint256[](1);\n        randomWords[0] = random;\n        fulfillRandomWords(reqID, randomWords);\n    }\n\n    function fulfillRandomWords(uint256 requestID, uint256[] memory randomWords)\n        internal\n    {\n        uint256 qID = randomnessRequestQueueID[requestID];\n        randomness[qID] = randomWords[0];\n        // TODO:\n        // Call gameplay.processPlayerActions(uint256 queueID)\n    }\n\n    function _requestGameQueue(uint256 gameID, uint256 _totalPlayers)\n        internal\n        returns (uint256)\n    {\n        /*\n    mapping(uint256 => uint256) public queueID; // mapping from game ID to it's queue, updates to 0 when finished\n    mapping(uint256 => uint256) public game; // mapping from queue ID to it's game ID\n    mapping(uint256 => uint256[]) public players; // all players with moves to process\n    mapping(uint256 => uint16) public totalPlayers;\n        */\n        require(queueID[gameID] == 0, \"queue already set\");\n        uint256 newQueueID = QUEUE_ID.current();\n        game[newQueueID] = gameID;\n        queueID[gameID] = newQueueID;\n        totalPlayers[newQueueID] = _totalPlayers;\n        QUEUE_ID.increment();\n        return newQueueID;\n    }\n}\n",
  "sourcePath": "/Users/maxmeier/Developer/Lucky Machines/hexploration/contracts/HexplorationQueue.sol",
  "compiler": {
    "name": "solc",
    "version": "0.8.11+commit.d7f03943.Emscripten.clang"
  },
  "schemaVersion": "3.4.4",
  "updatedAt": "2022-05-26T15:11:11.070Z",
  "devdoc": {
    "kind": "dev",
    "methods": {
      "getRoleAdmin(bytes32)": {
        "details": "Returns the admin role that controls `role`. See {grantRole} and {revokeRole}. To change a role's admin, use {_setRoleAdmin}."
      },
      "getRoleMember(bytes32,uint256)": {
        "details": "Returns one of the accounts that have `role`. `index` must be a value between 0 and {getRoleMemberCount}, non-inclusive. Role bearers are not sorted in any particular way, and their ordering may change at any point. WARNING: When using {getRoleMember} and {getRoleMemberCount}, make sure you perform all queries on the same block. See the following https://forum.openzeppelin.com/t/iterating-over-elements-on-enumerableset-in-openzeppelin-contracts/2296[forum post] for more information."
      },
      "getRoleMemberCount(bytes32)": {
        "details": "Returns the number of accounts that have `role`. Can be used together with {getRoleMember} to enumerate all bearers of a role."
      },
      "grantRole(bytes32,address)": {
        "details": "Grants `role` to `account`. If `account` had not been already granted `role`, emits a {RoleGranted} event. Requirements: - the caller must have ``role``'s admin role."
      },
      "hasRole(bytes32,address)": {
        "details": "Returns `true` if `account` has been granted `role`."
      },
      "renounceRole(bytes32,address)": {
        "details": "Revokes `role` from the calling account. Roles are often managed via {grantRole} and {revokeRole}: this function's purpose is to provide a mechanism for accounts to lose their privileges if they are compromised (such as when a trusted device is misplaced). If the calling account had been revoked `role`, emits a {RoleRevoked} event. Requirements: - the caller must be `account`."
      },
      "revokeRole(bytes32,address)": {
        "details": "Revokes `role` from `account`. If `account` had been granted `role`, emits a {RoleRevoked} event. Requirements: - the caller must have ``role``'s admin role."
      },
      "supportsInterface(bytes4)": {
        "details": "See {IERC165-supportsInterface}."
      }
    },
    "version": 1
  },
  "userdoc": {
    "kind": "user",
    "methods": {},
    "version": 1
  }
}