{
  "contractName": "HexplorationGameplay",
  "abi": [
    {
      "anonymous": false,
      "inputs": [
        {
          "indexed": true,
          "internalType": "bytes32",
          "name": "role",
          "type": "bytes32"
        },
        {
          "indexed": true,
          "internalType": "bytes32",
          "name": "previousAdminRole",
          "type": "bytes32"
        },
        {
          "indexed": true,
          "internalType": "bytes32",
          "name": "newAdminRole",
          "type": "bytes32"
        }
      ],
      "name": "RoleAdminChanged",
      "type": "event"
    },
    {
      "anonymous": false,
      "inputs": [
        {
          "indexed": true,
          "internalType": "bytes32",
          "name": "role",
          "type": "bytes32"
        },
        {
          "indexed": true,
          "internalType": "address",
          "name": "account",
          "type": "address"
        },
        {
          "indexed": true,
          "internalType": "address",
          "name": "sender",
          "type": "address"
        }
      ],
      "name": "RoleGranted",
      "type": "event"
    },
    {
      "anonymous": false,
      "inputs": [
        {
          "indexed": true,
          "internalType": "bytes32",
          "name": "role",
          "type": "bytes32"
        },
        {
          "indexed": true,
          "internalType": "address",
          "name": "account",
          "type": "address"
        },
        {
          "indexed": true,
          "internalType": "address",
          "name": "sender",
          "type": "address"
        }
      ],
      "name": "RoleRevoked",
      "type": "event"
    },
    {
      "inputs": [],
      "name": "DEFAULT_ADMIN_ROLE",
      "outputs": [
        {
          "internalType": "bytes32",
          "name": "",
          "type": "bytes32"
        }
      ],
      "stateMutability": "view",
      "type": "function"
    },
    {
      "inputs": [],
      "name": "VERIFIED_CONTROLLER_ROLE",
      "outputs": [
        {
          "internalType": "bytes32",
          "name": "",
          "type": "bytes32"
        }
      ],
      "stateMutability": "view",
      "type": "function"
    },
    {
      "inputs": [
        {
          "internalType": "bytes32",
          "name": "role",
          "type": "bytes32"
        }
      ],
      "name": "getRoleAdmin",
      "outputs": [
        {
          "internalType": "bytes32",
          "name": "",
          "type": "bytes32"
        }
      ],
      "stateMutability": "view",
      "type": "function"
    },
    {
      "inputs": [
        {
          "internalType": "bytes32",
          "name": "role",
          "type": "bytes32"
        },
        {
          "internalType": "uint256",
          "name": "index",
          "type": "uint256"
        }
      ],
      "name": "getRoleMember",
      "outputs": [
        {
          "internalType": "address",
          "name": "",
          "type": "address"
        }
      ],
      "stateMutability": "view",
      "type": "function"
    },
    {
      "inputs": [
        {
          "internalType": "bytes32",
          "name": "role",
          "type": "bytes32"
        }
      ],
      "name": "getRoleMemberCount",
      "outputs": [
        {
          "internalType": "uint256",
          "name": "",
          "type": "uint256"
        }
      ],
      "stateMutability": "view",
      "type": "function"
    },
    {
      "inputs": [
        {
          "internalType": "bytes32",
          "name": "role",
          "type": "bytes32"
        },
        {
          "internalType": "address",
          "name": "account",
          "type": "address"
        }
      ],
      "name": "grantRole",
      "outputs": [],
      "stateMutability": "nonpayable",
      "type": "function"
    },
    {
      "inputs": [
        {
          "internalType": "bytes32",
          "name": "role",
          "type": "bytes32"
        },
        {
          "internalType": "address",
          "name": "account",
          "type": "address"
        }
      ],
      "name": "hasRole",
      "outputs": [
        {
          "internalType": "bool",
          "name": "",
          "type": "bool"
        }
      ],
      "stateMutability": "view",
      "type": "function"
    },
    {
      "inputs": [
        {
          "internalType": "bytes32",
          "name": "role",
          "type": "bytes32"
        },
        {
          "internalType": "address",
          "name": "account",
          "type": "address"
        }
      ],
      "name": "renounceRole",
      "outputs": [],
      "stateMutability": "nonpayable",
      "type": "function"
    },
    {
      "inputs": [
        {
          "internalType": "bytes32",
          "name": "role",
          "type": "bytes32"
        },
        {
          "internalType": "address",
          "name": "account",
          "type": "address"
        }
      ],
      "name": "revokeRole",
      "outputs": [],
      "stateMutability": "nonpayable",
      "type": "function"
    },
    {
      "inputs": [
        {
          "internalType": "bytes4",
          "name": "interfaceId",
          "type": "bytes4"
        }
      ],
      "name": "supportsInterface",
      "outputs": [
        {
          "internalType": "bool",
          "name": "",
          "type": "bool"
        }
      ],
      "stateMutability": "view",
      "type": "function"
    },
    {
      "inputs": [
        {
          "internalType": "uint256",
          "name": "queueID",
          "type": "uint256"
        }
      ],
      "name": "process",
      "outputs": [],
      "stateMutability": "nonpayable",
      "type": "function"
    }
  ],
  "bytecode": "0x608060405234801561001057600080fd5b50610c69806100206000396000f3fe608060405234801561001057600080fd5b50600436106100c6576000357c0100000000000000000000000000000000000000000000000000000000900480639010d07c1161008e5780639010d07c1461017357806391d148541461019e578063a217fddf146101b1578063ca15c873146101b9578063d547741f146101cc578063ffb2c479146101df57600080fd5b806301ffc9a7146100cb5780631c834a7f146100f3578063248a9ca3146101285780632f2ff15d1461014b57806336568abe14610160575b600080fd5b6100de6100d93660046109e5565b6101f2565b60405190151581526020015b60405180910390f35b61011a7f80e2196015fc06a9d891759f8e4f51eb314ef5e9ea068528a8ed0063b87759f081565b6040519081526020016100ea565b61011a610136366004610a0f565b60009081526020819052604090206001015490565b61015e610159366004610a28565b610236565b005b61015e61016e366004610a28565b610260565b610186610181366004610a64565b61030b565b604051600160a060020a0390911681526020016100ea565b6100de6101ac366004610a28565b61032a565b61011a600081565b61011a6101c7366004610a0f565b610353565b61015e6101da366004610a28565b61036a565b61015e6101ed366004610a0f565b61038f565b6000600160e060020a031982167f5a05180f0000000000000000000000000000000000000000000000000000000014806102305750610230826103b9565b92915050565b60008281526020819052604090206001015461025181610420565b61025b838361042d565b505050565b600160a060020a03811633146102fd576040517f08c379a000000000000000000000000000000000000000000000000000000000815260206004820152602f60248201527f416363657373436f6e74726f6c3a2063616e206f6e6c792072656e6f756e636560448201527f20726f6c657320666f722073656c66000000000000000000000000000000000060648201526084015b60405180910390fd5b610307828261044f565b5050565b60008281526001602052604081206103239083610471565b9392505050565b600091825260208281526040808420600160a060020a0393909316845291905290205460ff1690565b60008181526001602052604081206102309061047d565b60008281526020819052604090206001015461038581610420565b61025b838361044f565b7f80e2196015fc06a9d891759f8e4f51eb314ef5e9ea068528a8ed0063b87759f061030781610420565b6000600160e060020a031982167f7965db0b00000000000000000000000000000000000000000000000000000000148061023057507f01ffc9a700000000000000000000000000000000000000000000000000000000600160e060020a0319831614610230565b61042a8133610487565b50565b6104378282610505565b600082815260016020526040902061025b9082610589565b610459828261059e565b600082815260016020526040902061025b9082610603565b60006103238383610618565b6000610230825490565b610491828261032a565b610307576104a981600160a060020a03166014610642565b6104b4836020610642565b6040516020016104c5929190610ab6565b60408051601f19818403018152908290527f08c379a00000000000000000000000000000000000000000000000000000000082526102f491600401610b37565b61050f828261032a565b61030757600082815260208181526040808320600160a060020a03851684529091529020805460ff191660011790556105453390565b600160a060020a031681600160a060020a0316837f2f8788117e7eff1d82e926ec794901d17c78024a50270940304540a733656f0d60405160405180910390a45050565b600061032383600160a060020a0384166108a3565b6105a8828261032a565b1561030757600082815260208181526040808320600160a060020a0385168085529252808320805460ff1916905551339285917ff6391f5c32d9c69d2a47ea670b442974b53935d1edc7fd64eb21e047a839171b9190a45050565b600061032383600160a060020a0384166108f2565b600082600001828154811061062f5761062f610b6a565b9060005260206000200154905092915050565b60606000610651836002610b9c565b61065c906002610bbb565b67ffffffffffffffff81111561067457610674610bd3565b6040519080825280601f01601f19166020018201604052801561069e576020820181803683370190505b5090507f3000000000000000000000000000000000000000000000000000000000000000816000815181106106d5576106d5610b6a565b60200101907effffffffffffffffffffffffffffffffffffffffffffffffffffffffffffff1916908160001a9053507f78000000000000000000000000000000000000000000000000000000000000008160018151811061073857610738610b6a565b60200101907effffffffffffffffffffffffffffffffffffffffffffffffffffffffffffff1916908160001a9053506000610774846002610b9c565b61077f906001610bbb565b90505b600181111561083a577f303132333435363738396162636465660000000000000000000000000000000085600f16601081106107c0576107c0610b6a565b1a7f0100000000000000000000000000000000000000000000000000000000000000028282815181106107f5576107f5610b6a565b60200101907effffffffffffffffffffffffffffffffffffffffffffffffffffffffffffff1916908160001a90535060109094049361083381610bec565b9050610782565b508315610323576040517f08c379a000000000000000000000000000000000000000000000000000000000815260206004820181905260248201527f537472696e67733a20686578206c656e67746820696e73756666696369656e7460448201526064016102f4565b60008181526001830160205260408120546108ea57508154600181810184556000848152602080822090930184905584548482528286019093526040902091909155610230565b506000610230565b600081815260018301602052604081205480156109db576000610916600183610c03565b855490915060009061092a90600190610c03565b905081811461098f57600086600001828154811061094a5761094a610b6a565b906000526020600020015490508087600001848154811061096d5761096d610b6a565b6000918252602080832090910192909255918252600188019052604090208390555b85548690806109a0576109a0610c1a565b600190038181906000526020600020016000905590558560010160008681526020019081526020016000206000905560019350505050610230565b6000915050610230565b6000602082840312156109f757600080fd5b8135600160e060020a03198116811461032357600080fd5b600060208284031215610a2157600080fd5b5035919050565b60008060408385031215610a3b57600080fd5b823591506020830135600160a060020a0381168114610a5957600080fd5b809150509250929050565b60008060408385031215610a7757600080fd5b50508035926020909101359150565b60005b83811015610aa1578181015183820152602001610a89565b83811115610ab0576000848401525b50505050565b7f416363657373436f6e74726f6c3a206163636f756e7420000000000000000000815260008351610aee816017850160208801610a86565b7f206973206d697373696e6720726f6c65200000000000000000000000000000006017918401918201528351610b2b816028840160208801610a86565b01602801949350505050565b6020815260008251806020840152610b56816040850160208701610a86565b601f01601f19169190910160400192915050565b60e060020a634e487b7102600052603260045260246000fd5b60e060020a634e487b7102600052601160045260246000fd5b6000816000190483118215151615610bb657610bb6610b83565b500290565b60008219821115610bce57610bce610b83565b500190565b60e060020a634e487b7102600052604160045260246000fd5b600081610bfb57610bfb610b83565b506000190190565b600082821015610c1557610c15610b83565b500390565b60e060020a634e487b7102600052603160045260246000fdfea2646970667358221220d5a10a91070ab99357ec2da4155c4043ddd157dd557ee4afeb1e1b9c2a000a7e64736f6c634300080b0033",
  "immutableReferences": {},
  "source": "// SPDX-License-Identifier: GPL-3.0\npragma solidity >=0.7.0 <0.9.0;\n\nimport \"@openzeppelin/contracts/access/AccessControlEnumerable.sol\";\nimport \"./HexplorationQueue.sol\";\n\ncontract HexplorationGameplay is AccessControlEnumerable {\n    bytes32 public constant VERIFIED_CONTROLLER_ROLE =\n        keccak256(\"VERIFIED_CONTROLLER_ROLE\");\n\n    function process(uint256 queueID)\n        public\n        onlyRole(VERIFIED_CONTROLLER_ROLE)\n    {\n        // continueProcessing//\n        // figure out most expensive move and only do as many as can be safely completed\n        // in one transaction\n        // start at currentQueuePosition\n        // after each move is processed currentQueuePosition++\n        // on after final batch, switch day / night and call playThrough()\n    }\n\n    function playThrough() internal {\n        // if day phase (){\n        // Play through events\n        // daily events\n        //}\n        // if (end game) {\n        // play enemy stuff here\n        //}\n    }\n\n    function finishProcessing() internal {\n        //  assign new queue index for next processing phase (based on current queue)\n    }\n}\n\n// What is processing?\n// take all moves from batch, verify are valid moves, and\n// return list of final moves to process\n// keeper will post list of final moves to contract,\n// *shouldn't be able to fail if it got this far\n// moves that failed pre-check will be returned as another list that will get logged in an event\n",
  "sourcePath": "/Users/maxmeier/Developer/Lucky Machines/hexploration/contracts/HexplorationGameplay.sol",
  "compiler": {
    "name": "solc",
    "version": "0.8.11+commit.d7f03943.Emscripten.clang"
  },
  "schemaVersion": "3.4.4",
  "updatedAt": "2022-05-17T17:51:41.492Z",
  "networkType": "ethereum",
  "devdoc": {
    "kind": "dev",
    "methods": {
      "getRoleAdmin(bytes32)": {
        "details": "Returns the admin role that controls `role`. See {grantRole} and {revokeRole}. To change a role's admin, use {_setRoleAdmin}."
      },
      "getRoleMember(bytes32,uint256)": {
        "details": "Returns one of the accounts that have `role`. `index` must be a value between 0 and {getRoleMemberCount}, non-inclusive. Role bearers are not sorted in any particular way, and their ordering may change at any point. WARNING: When using {getRoleMember} and {getRoleMemberCount}, make sure you perform all queries on the same block. See the following https://forum.openzeppelin.com/t/iterating-over-elements-on-enumerableset-in-openzeppelin-contracts/2296[forum post] for more information."
      },
      "getRoleMemberCount(bytes32)": {
        "details": "Returns the number of accounts that have `role`. Can be used together with {getRoleMember} to enumerate all bearers of a role."
      },
      "grantRole(bytes32,address)": {
        "details": "Grants `role` to `account`. If `account` had not been already granted `role`, emits a {RoleGranted} event. Requirements: - the caller must have ``role``'s admin role."
      },
      "hasRole(bytes32,address)": {
        "details": "Returns `true` if `account` has been granted `role`."
      },
      "renounceRole(bytes32,address)": {
        "details": "Revokes `role` from the calling account. Roles are often managed via {grantRole} and {revokeRole}: this function's purpose is to provide a mechanism for accounts to lose their privileges if they are compromised (such as when a trusted device is misplaced). If the calling account had been revoked `role`, emits a {RoleRevoked} event. Requirements: - the caller must be `account`."
      },
      "revokeRole(bytes32,address)": {
        "details": "Revokes `role` from `account`. If `account` had been granted `role`, emits a {RoleRevoked} event. Requirements: - the caller must have ``role``'s admin role."
      },
      "supportsInterface(bytes4)": {
        "details": "See {IERC165-supportsInterface}."
      }
    },
    "version": 1
  },
  "userdoc": {
    "kind": "user",
    "methods": {},
    "version": 1
  }
}