{
  "contractName": "HexplorationQueue",
  "abi": [
    {
      "inputs": [
        {
          "internalType": "address",
          "name": "gameplayAddress",
          "type": "address"
        }
      ],
      "stateMutability": "nonpayable",
      "type": "constructor"
    },
    {
      "anonymous": false,
      "inputs": [
        {
          "indexed": true,
          "internalType": "bytes32",
          "name": "role",
          "type": "bytes32"
        },
        {
          "indexed": true,
          "internalType": "bytes32",
          "name": "previousAdminRole",
          "type": "bytes32"
        },
        {
          "indexed": true,
          "internalType": "bytes32",
          "name": "newAdminRole",
          "type": "bytes32"
        }
      ],
      "name": "RoleAdminChanged",
      "type": "event"
    },
    {
      "anonymous": false,
      "inputs": [
        {
          "indexed": true,
          "internalType": "bytes32",
          "name": "role",
          "type": "bytes32"
        },
        {
          "indexed": true,
          "internalType": "address",
          "name": "account",
          "type": "address"
        },
        {
          "indexed": true,
          "internalType": "address",
          "name": "sender",
          "type": "address"
        }
      ],
      "name": "RoleGranted",
      "type": "event"
    },
    {
      "anonymous": false,
      "inputs": [
        {
          "indexed": true,
          "internalType": "bytes32",
          "name": "role",
          "type": "bytes32"
        },
        {
          "indexed": true,
          "internalType": "address",
          "name": "account",
          "type": "address"
        },
        {
          "indexed": true,
          "internalType": "address",
          "name": "sender",
          "type": "address"
        }
      ],
      "name": "RoleRevoked",
      "type": "event"
    },
    {
      "inputs": [],
      "name": "DEFAULT_ADMIN_ROLE",
      "outputs": [
        {
          "internalType": "bytes32",
          "name": "",
          "type": "bytes32"
        }
      ],
      "stateMutability": "view",
      "type": "function",
      "constant": true
    },
    {
      "inputs": [],
      "name": "GAMEPLAY_ROLE",
      "outputs": [
        {
          "internalType": "bytes32",
          "name": "",
          "type": "bytes32"
        }
      ],
      "stateMutability": "view",
      "type": "function",
      "constant": true
    },
    {
      "inputs": [],
      "name": "VERIFIED_CONTROLLER_ROLE",
      "outputs": [
        {
          "internalType": "bytes32",
          "name": "",
          "type": "bytes32"
        }
      ],
      "stateMutability": "view",
      "type": "function",
      "constant": true
    },
    {
      "inputs": [
        {
          "internalType": "uint256",
          "name": "",
          "type": "uint256"
        }
      ],
      "name": "currentPhase",
      "outputs": [
        {
          "internalType": "enum HexplorationQueue.ProcessingPhase",
          "name": "",
          "type": "uint8"
        }
      ],
      "stateMutability": "view",
      "type": "function",
      "constant": true
    },
    {
      "inputs": [
        {
          "internalType": "uint256",
          "name": "",
          "type": "uint256"
        }
      ],
      "name": "currentQueuePosition",
      "outputs": [
        {
          "internalType": "uint16",
          "name": "",
          "type": "uint16"
        }
      ],
      "stateMutability": "view",
      "type": "function",
      "constant": true
    },
    {
      "inputs": [
        {
          "internalType": "uint256",
          "name": "",
          "type": "uint256"
        }
      ],
      "name": "game",
      "outputs": [
        {
          "internalType": "uint256",
          "name": "",
          "type": "uint256"
        }
      ],
      "stateMutability": "view",
      "type": "function",
      "constant": true
    },
    {
      "inputs": [
        {
          "internalType": "bytes32",
          "name": "role",
          "type": "bytes32"
        }
      ],
      "name": "getRoleAdmin",
      "outputs": [
        {
          "internalType": "bytes32",
          "name": "",
          "type": "bytes32"
        }
      ],
      "stateMutability": "view",
      "type": "function",
      "constant": true
    },
    {
      "inputs": [
        {
          "internalType": "bytes32",
          "name": "role",
          "type": "bytes32"
        },
        {
          "internalType": "uint256",
          "name": "index",
          "type": "uint256"
        }
      ],
      "name": "getRoleMember",
      "outputs": [
        {
          "internalType": "address",
          "name": "",
          "type": "address"
        }
      ],
      "stateMutability": "view",
      "type": "function",
      "constant": true
    },
    {
      "inputs": [
        {
          "internalType": "bytes32",
          "name": "role",
          "type": "bytes32"
        }
      ],
      "name": "getRoleMemberCount",
      "outputs": [
        {
          "internalType": "uint256",
          "name": "",
          "type": "uint256"
        }
      ],
      "stateMutability": "view",
      "type": "function",
      "constant": true
    },
    {
      "inputs": [
        {
          "internalType": "bytes32",
          "name": "role",
          "type": "bytes32"
        },
        {
          "internalType": "address",
          "name": "account",
          "type": "address"
        }
      ],
      "name": "grantRole",
      "outputs": [],
      "stateMutability": "nonpayable",
      "type": "function"
    },
    {
      "inputs": [
        {
          "internalType": "bytes32",
          "name": "role",
          "type": "bytes32"
        },
        {
          "internalType": "address",
          "name": "account",
          "type": "address"
        }
      ],
      "name": "hasRole",
      "outputs": [
        {
          "internalType": "bool",
          "name": "",
          "type": "bool"
        }
      ],
      "stateMutability": "view",
      "type": "function",
      "constant": true
    },
    {
      "inputs": [
        {
          "internalType": "uint256",
          "name": "",
          "type": "uint256"
        }
      ],
      "name": "inProcessingQueue",
      "outputs": [
        {
          "internalType": "bool",
          "name": "",
          "type": "bool"
        }
      ],
      "stateMutability": "view",
      "type": "function",
      "constant": true
    },
    {
      "inputs": [
        {
          "internalType": "uint256",
          "name": "",
          "type": "uint256"
        }
      ],
      "name": "playThroughPosition",
      "outputs": [
        {
          "internalType": "uint16",
          "name": "",
          "type": "uint16"
        }
      ],
      "stateMutability": "view",
      "type": "function",
      "constant": true
    },
    {
      "inputs": [
        {
          "internalType": "uint256",
          "name": "",
          "type": "uint256"
        },
        {
          "internalType": "uint256",
          "name": "",
          "type": "uint256"
        }
      ],
      "name": "playerSubmitted",
      "outputs": [
        {
          "internalType": "bool",
          "name": "",
          "type": "bool"
        }
      ],
      "stateMutability": "view",
      "type": "function",
      "constant": true
    },
    {
      "inputs": [
        {
          "internalType": "uint256",
          "name": "",
          "type": "uint256"
        },
        {
          "internalType": "uint256",
          "name": "",
          "type": "uint256"
        }
      ],
      "name": "players",
      "outputs": [
        {
          "internalType": "uint256",
          "name": "",
          "type": "uint256"
        }
      ],
      "stateMutability": "view",
      "type": "function",
      "constant": true
    },
    {
      "inputs": [
        {
          "internalType": "uint256",
          "name": "",
          "type": "uint256"
        }
      ],
      "name": "processingQueue",
      "outputs": [
        {
          "internalType": "uint256",
          "name": "",
          "type": "uint256"
        }
      ],
      "stateMutability": "view",
      "type": "function",
      "constant": true
    },
    {
      "inputs": [
        {
          "internalType": "uint256",
          "name": "",
          "type": "uint256"
        }
      ],
      "name": "queueID",
      "outputs": [
        {
          "internalType": "uint256",
          "name": "",
          "type": "uint256"
        }
      ],
      "stateMutability": "view",
      "type": "function",
      "constant": true
    },
    {
      "inputs": [
        {
          "internalType": "bytes32",
          "name": "role",
          "type": "bytes32"
        },
        {
          "internalType": "address",
          "name": "account",
          "type": "address"
        }
      ],
      "name": "renounceRole",
      "outputs": [],
      "stateMutability": "nonpayable",
      "type": "function"
    },
    {
      "inputs": [
        {
          "internalType": "bytes32",
          "name": "role",
          "type": "bytes32"
        },
        {
          "internalType": "address",
          "name": "account",
          "type": "address"
        }
      ],
      "name": "revokeRole",
      "outputs": [],
      "stateMutability": "nonpayable",
      "type": "function"
    },
    {
      "inputs": [
        {
          "internalType": "uint256",
          "name": "",
          "type": "uint256"
        },
        {
          "internalType": "uint256",
          "name": "",
          "type": "uint256"
        }
      ],
      "name": "submissionAction",
      "outputs": [
        {
          "internalType": "enum HexplorationQueue.Action",
          "name": "",
          "type": "uint8"
        }
      ],
      "stateMutability": "view",
      "type": "function",
      "constant": true
    },
    {
      "inputs": [
        {
          "internalType": "uint256",
          "name": "",
          "type": "uint256"
        },
        {
          "internalType": "uint256",
          "name": "",
          "type": "uint256"
        }
      ],
      "name": "submissionLeftHand",
      "outputs": [
        {
          "internalType": "string",
          "name": "",
          "type": "string"
        }
      ],
      "stateMutability": "view",
      "type": "function",
      "constant": true
    },
    {
      "inputs": [
        {
          "internalType": "uint256",
          "name": "",
          "type": "uint256"
        },
        {
          "internalType": "uint256",
          "name": "",
          "type": "uint256"
        },
        {
          "internalType": "uint256",
          "name": "",
          "type": "uint256"
        }
      ],
      "name": "submissionOptions",
      "outputs": [
        {
          "internalType": "string",
          "name": "",
          "type": "string"
        }
      ],
      "stateMutability": "view",
      "type": "function",
      "constant": true
    },
    {
      "inputs": [
        {
          "internalType": "uint256",
          "name": "",
          "type": "uint256"
        },
        {
          "internalType": "uint256",
          "name": "",
          "type": "uint256"
        }
      ],
      "name": "submissionRightHand",
      "outputs": [
        {
          "internalType": "string",
          "name": "",
          "type": "string"
        }
      ],
      "stateMutability": "view",
      "type": "function",
      "constant": true
    },
    {
      "inputs": [
        {
          "internalType": "bytes4",
          "name": "interfaceId",
          "type": "bytes4"
        }
      ],
      "name": "supportsInterface",
      "outputs": [
        {
          "internalType": "bool",
          "name": "",
          "type": "bool"
        }
      ],
      "stateMutability": "view",
      "type": "function",
      "constant": true
    },
    {
      "inputs": [
        {
          "internalType": "uint256",
          "name": "",
          "type": "uint256"
        }
      ],
      "name": "totalPlayers",
      "outputs": [
        {
          "internalType": "uint16",
          "name": "",
          "type": "uint16"
        }
      ],
      "stateMutability": "view",
      "type": "function",
      "constant": true
    },
    {
      "inputs": [
        {
          "internalType": "address",
          "name": "controllerAddress",
          "type": "address"
        }
      ],
      "name": "addVerifiedController",
      "outputs": [],
      "stateMutability": "nonpayable",
      "type": "function"
    },
    {
      "inputs": [
        {
          "internalType": "uint256",
          "name": "gameID",
          "type": "uint256"
        },
        {
          "internalType": "uint16",
          "name": "_totalPlayers",
          "type": "uint16"
        }
      ],
      "name": "requestGameQueue",
      "outputs": [
        {
          "internalType": "uint256",
          "name": "",
          "type": "uint256"
        }
      ],
      "stateMutability": "nonpayable",
      "type": "function"
    },
    {
      "inputs": [
        {
          "internalType": "uint256",
          "name": "_queueID",
          "type": "uint256"
        }
      ],
      "name": "startGame",
      "outputs": [],
      "stateMutability": "nonpayable",
      "type": "function"
    },
    {
      "inputs": [
        {
          "internalType": "uint256",
          "name": "playerID",
          "type": "uint256"
        },
        {
          "internalType": "enum HexplorationQueue.Action",
          "name": "action",
          "type": "uint8"
        },
        {
          "internalType": "string[]",
          "name": "options",
          "type": "string[]"
        },
        {
          "internalType": "string",
          "name": "leftHand",
          "type": "string"
        },
        {
          "internalType": "string",
          "name": "rightHand",
          "type": "string"
        },
        {
          "internalType": "uint256",
          "name": "_queueID",
          "type": "uint256"
        }
      ],
      "name": "sumbitActionForPlayer",
      "outputs": [],
      "stateMutability": "nonpayable",
      "type": "function"
    },
    {
      "inputs": [
        {
          "internalType": "uint256",
          "name": "_queueID",
          "type": "uint256"
        }
      ],
      "name": "requestProcessActions",
      "outputs": [],
      "stateMutability": "nonpayable",
      "type": "function"
    },
    {
      "inputs": [
        {
          "internalType": "uint256",
          "name": "_queueID",
          "type": "uint256"
        }
      ],
      "name": "getAllPlayers",
      "outputs": [
        {
          "internalType": "uint256[]",
          "name": "",
          "type": "uint256[]"
        }
      ],
      "stateMutability": "view",
      "type": "function",
      "constant": true
    },
    {
      "inputs": [
        {
          "internalType": "uint256",
          "name": "_queueID",
          "type": "uint256"
        },
        {
          "internalType": "uint256",
          "name": "_playerID",
          "type": "uint256"
        }
      ],
      "name": "getSubmissionOptions",
      "outputs": [
        {
          "internalType": "string[]",
          "name": "",
          "type": "string[]"
        }
      ],
      "stateMutability": "view",
      "type": "function",
      "constant": true
    },
    {
      "inputs": [
        {
          "internalType": "enum HexplorationQueue.ProcessingPhase",
          "name": "phase",
          "type": "uint8"
        },
        {
          "internalType": "uint256",
          "name": "_queueID",
          "type": "uint256"
        }
      ],
      "name": "setPhase",
      "outputs": [],
      "stateMutability": "nonpayable",
      "type": "function"
    },
    {
      "inputs": [
        {
          "internalType": "uint256",
          "name": "randomNumber",
          "type": "uint256"
        },
        {
          "internalType": "uint256",
          "name": "_queueID",
          "type": "uint256"
        }
      ],
      "name": "setRandomNumber",
      "outputs": [],
      "stateMutability": "nonpayable",
      "type": "function"
    },
    {
      "inputs": [
        {
          "internalType": "uint256",
          "name": "_queueID",
          "type": "uint256"
        }
      ],
      "name": "requestNewQueueID",
      "outputs": [],
      "stateMutability": "nonpayable",
      "type": "function"
    },
    {
      "inputs": [
        {
          "internalType": "uint256",
          "name": "_queueID",
          "type": "uint256"
        }
      ],
      "name": "setProcessingComplete",
      "outputs": [],
      "stateMutability": "nonpayable",
      "type": "function"
    }
  ],
  "bytecode": "0x60806040523480156200001157600080fd5b5060405162001fa438038062001fa483398101604081905262000034916200027d565b6200005c60006200004d640100000000620000b2810204565b640100000000620000b6810204565b620000917f0c2c7e957bdf811d5a896b04e816b9c382dfb980c93b21b0288b75c85d598acd82640100000000620000b6810204565b620000ab600264010000000062000dea620000cf82021704565b50620002af565b3390565b620000cb8282640100000000620000d8810204565b5050565b80546001019055565b620000f2828264010000000062000df36200011f82021704565b60008281526001602052604090206200011a908264010000000062000e77620001bb82021704565b505050565b620001348282640100000000620001e4810204565b620000cb57600082815260208181526040808320600160a060020a03851684529091529020805460ff1916600117905562000177640100000000620000b2810204565b600160a060020a031681600160a060020a0316837f2f8788117e7eff1d82e926ec794901d17c78024a50270940304540a733656f0d60405160405180910390a45050565b6000620001db83600160a060020a0384166401000000006200020d810204565b90505b92915050565b600091825260208281526040808420600160a060020a0393909316845291905290205460ff1690565b600062000224838364010000000062000265810204565b6200025c57508154600181810184556000848152602080822090930184905584548482528286019093526040902091909155620001de565b506000620001de565b60009081526001919091016020526040902054151590565b6000602082840312156200029057600080fd5b8151600160a060020a0381168114620002a857600080fd5b9392505050565b611ce580620002bf6000396000f3fe608060405234801561001057600080fd5b5060043610610239576000357c0100000000000000000000000000000000000000000000000000000000900480639b8e681911610142578063ca15c873116100ca578063d809371f11610099578063d809371f1461059c578063e2f315c1146105af578063e5ed1d59146105d3578063e73ed37f146105e6578063fd82e21f1461061457600080fd5b8063ca15c87314610543578063cddbe72914610556578063d4f5b15214610576578063d547741f1461058957600080fd5b8063a2dc586011610111578063a2dc58601461049c578063ac01b83d146104bc578063ae6a7056146104dc578063af7afe56146104ef578063b1fb64051461051357600080fd5b80639b8e68191461044b5780639bd78d2b1461045e5780639f6bc61d14610481578063a217fddf1461049457600080fd5b806336568abe116101c5578063861814e211610194578063861814e2146103c75780638f21c3ac146103e75780639010d07c146103fa57806391d1485414610425578063998f1b801461043857600080fd5b806336568abe146103535780635da4fabc146103665780636b775e5c146103795780637f0415911461038c57600080fd5b80631c834a7f1161020c5780631c834a7f146102d257806322c21713146102f5578063248a9ca31461030857806328d6b4c01461032b5780632f2ff15d1461034057600080fd5b806301ffc9a71461023e57806304ac8fee146102665780630c6ea5311461027b5780631b341b3e146102b2575b600080fd5b61025161024c366004611641565b610627565b60405190151581526020015b60405180910390f35b61027961027436600461166b565b61066b565b005b61029f61028936600461169b565b60046020526000908152604090205461ffff1681565b60405161ffff909116815260200161025d565b6102c56102c03660046116b4565b6106b8565b60405161025d919061173c565b6102e7600080516020611c9083398151915281565b60405190815260200161025d565b6102e761030336600461174f565b61077e565b6102e761031636600461169b565b60009081526020819052604090206001015490565b6102e7600080516020611c7083398151915281565b61027961034e3660046117a2565b6107aa565b6102796103613660046117a2565b6107d4565b6102796103743660046117ce565b610868565b61027961038736600461169b565b610892565b6103ba61039a3660046117ce565b600c60209081526000928352604080842090915290825290205460ff1681565b60405161025d9190611809565b6102e76103d536600461169b565b60066020526000908152604090205481565b6102796103f536600461169b565b6108b3565b61040d6104083660046117ce565b6108fc565b604051600160a060020a03909116815260200161025d565b6102516104333660046117a2565b61091b565b6102e76104463660046117ce565b610944565b6102c56104593660046117ce565b610975565b61025161046c36600461169b565b60076020526000908152604090205460ff1681565b6102e761048f36600461169b565b610999565b6102e7600081565b6104af6104aa3660046117ce565b6109ba565b60405161025d9190611823565b6104cf6104ca36600461169b565b610aa8565b60405161025d9190611884565b6102796104ea366004611a20565b610b0a565b61029f6104fd36600461169b565b600b6020526000908152604090205461ffff1681565b61053661052136600461169b565b60086020526000908152604090205460ff1681565b60405161025d9190611ad1565b6102e761055136600461169b565b610cda565b6102e761056436600461169b565b60096020526000908152604090205481565b610279610584366004611ae5565b610cf1565b6102796105973660046117a2565b610d14565b6102796105aa36600461169b565b610d39565b61029f6105bd36600461169b565b60056020526000908152604090205461ffff1681565b6102796105e136600461169b565b610d92565b6102516105f43660046117ce565b601060209081526000928352604080842090915290825290205460ff1681565b6102c56106223660046117ce565b610dc6565b6000600160e060020a031982167f5a05180f000000000000000000000000000000000000000000000000000000001480610665575061066582610e8c565b92915050565b600080516020611c7083398151915261068381610ef3565b6000828152600860205260409020805484919060ff191660018360058111156106ae576106ae6117f0565b0217905550505050565b600d60205282600052604060002060205281600052604060002081815481106106e057600080fd5b90600052602060002001600092509250505080546106fd90611b00565b80601f016020809104026020016040519081016040528092919081815260200182805461072990611b00565b80156107765780601f1061074b57610100808354040283529160200191610776565b820191906000526020600020905b81548152906001019060200180831161075957829003601f168201915b505050505081565b6000600080516020611c9083398151915261079881610ef3565b6107a28484610f00565b949350505050565b6000828152602081905260409020600101546107c581610ef3565b6107cf8383610fa4565b505050565b600160a060020a038116331461085a5760405160e560020a62461bcd02815260206004820152602f60248201527f416363657373436f6e74726f6c3a2063616e206f6e6c792072656e6f756e636560448201527f20726f6c657320666f722073656c66000000000000000000000000000000000060648201526084015b60405180910390fd5b6108648282610fc6565b5050565b600080516020611c7083398151915261088081610ef3565b50600090815260116020526040902055565b600080516020611c908339815191526108aa81610ef3565b61086482610fe8565b600080516020611c708339815191526108cb81610ef3565b5060009081526009602090815260408083205460088352818420805460ff1916600417905583526006909152812055565b6000828152600160205260408120610914908361104b565b9392505050565b600091825260208281526040808420600160a060020a0393909316845291905290205460ff1690565b600a602052816000526040600020818154811061096057600080fd5b90600052602060002001600091509150505481565b600f602090815260009283526040808420909152908252902080546106fd90611b00565b600381815481106109a957600080fd5b600091825260209091200154905081565b6000828152600d602090815260408083208484528252808320805482518185028101850190935280835260609492939192909184015b82821015610a9c578382906000526020600020018054610a0f90611b00565b80601f0160208091040260200160405190810160405280929190818152602001828054610a3b90611b00565b8015610a885780601f10610a5d57610100808354040283529160200191610a88565b820191906000526020600020905b815481529060010190602001808311610a6b57829003601f168201915b5050505050815260200190600101906109f0565b50505050905092915050565b6000818152600a6020908152604091829020805483518184028101840190945280845260609392830182828015610afe57602002820191906000526020600020905b815481526020019060010190808311610aea575b50505050509050919050565b600080516020611c90833981519152610b2281610ef3565b600160008381526008602052604090205460ff166005811115610b4757610b476117f0565b14610b975760405160e560020a62461bcd02815260206004820152601460248201527f4e6f74207375626d697373696f6e2070686173650000000000000000000000006044820152606401610851565b60008281526010602090815260408083208a845290915290205460ff16610cd1576000828152600c602090815260408083208a84529091529020805487919060ff19166001836006811115610bee57610bee6117f0565b02179055506000828152600d602090815260408083208a845282529091208651610c1a928801906114f8565b506000828152600e602090815260408083208a845282529091208551610c4292870190611555565b506000828152600f602090815260408083208a845282529091208451610c6a92860190611555565b506000828152600a602081815260408084208054600181810183558287528487209091018d9055878652601084528286208d87528452828620805460ff19169091179055868552600b8352932054919052905461ffff90911611610cd157610cd182610fe8565b50505050505050565b600081815260016020526040812061066590611057565b6000610cfc81610ef3565b610864600080516020611c90833981519152836107aa565b600082815260208190526040902060010154610d2f81610ef3565b6107cf8383610fc6565b600080516020611c70833981519152610d5181610ef3565b600082815260096020908152604080832054600b9092529091205461ffff16610d7a8282610f00565b60009283526006602052604090922091909155505050565b600080516020611c90833981519152610daa81610ef3565b506000908152600860205260409020805460ff19166001179055565b600e602090815260009283526040808420909152908252902080546106fd90611b00565b80546001019055565b610dfd828261091b565b61086457600082815260208181526040808320600160a060020a03851684529091529020805460ff19166001179055610e333390565b600160a060020a031681600160a060020a0316837f2f8788117e7eff1d82e926ec794901d17c78024a50270940304540a733656f0d60405160405180910390a45050565b600061091483600160a060020a038416611061565b6000600160e060020a031982167f7965db0b00000000000000000000000000000000000000000000000000000000148061066557507f01ffc9a700000000000000000000000000000000000000000000000000000000600160e060020a0319831614610665565b610efd81336110b0565b50565b60008281526006602052604081205415610f5f5760405160e560020a62461bcd02815260206004820152601160248201527f717565756520616c7265616479207365740000000000000000000000000000006044820152606401610851565b6000610f6a60025490565b6000858152600660209081526040808320849055600b9091529020805461ffff191661ffff86161790556002805460010190559050610914565b610fae8282610df3565b60008281526001602052604090206107cf9082610e77565b610fd08282611117565b60008281526001602052604090206107cf908261117c565b60008181526007602052604090205460ff16610efd576003805460018181019092557fc2575a0e9e593c00f959f8c92f12db2869c3395a3b0502d05e2516446f71f85b018290556000828152600760205260409020805460ff1916909117905550565b60006109148383611191565b6000610665825490565b60008181526001830160205260408120546110a857508154600181810184556000848152602080822090930184905584548482528286019093526040902091909155610665565b506000610665565b6110ba828261091b565b610864576110d281600160a060020a031660146111bb565b6110dd8360206111bb565b6040516020016110ee929190611b3e565b60408051601f198184030181529082905260e560020a62461bcd0282526108519160040161173c565b611121828261091b565b1561086457600082815260208181526040808320600160a060020a0385168085529252808320805460ff1916905551339285917ff6391f5c32d9c69d2a47ea670b442974b53935d1edc7fd64eb21e047a839171b9190a45050565b600061091483600160a060020a038416611405565b60008260000182815481106111a8576111a8611bbf565b9060005260206000200154905092915050565b606060006111ca836002611bf1565b6111d5906002611c10565b67ffffffffffffffff8111156111ed576111ed6118c8565b6040519080825280601f01601f191660200182016040528015611217576020820181803683370190505b5090507f30000000000000000000000000000000000000000000000000000000000000008160008151811061124e5761124e611bbf565b60200101907effffffffffffffffffffffffffffffffffffffffffffffffffffffffffffff1916908160001a9053507f7800000000000000000000000000000000000000000000000000000000000000816001815181106112b1576112b1611bbf565b60200101907effffffffffffffffffffffffffffffffffffffffffffffffffffffffffffff1916908160001a90535060006112ed846002611bf1565b6112f8906001611c10565b90505b60018111156113b3577f303132333435363738396162636465660000000000000000000000000000000085600f166010811061133957611339611bbf565b1a7f01000000000000000000000000000000000000000000000000000000000000000282828151811061136e5761136e611bbf565b60200101907effffffffffffffffffffffffffffffffffffffffffffffffffffffffffffff1916908160001a9053506010909404936113ac81611c28565b90506112fb565b5083156109145760405160e560020a62461bcd02815260206004820181905260248201527f537472696e67733a20686578206c656e67746820696e73756666696369656e746044820152606401610851565b600081815260018301602052604081205480156114ee576000611429600183611c3f565b855490915060009061143d90600190611c3f565b90508181146114a257600086600001828154811061145d5761145d611bbf565b906000526020600020015490508087600001848154811061148057611480611bbf565b6000918252602080832090910192909255918252600188019052604090208390555b85548690806114b3576114b3611c56565b600190038181906000526020600020016000905590558560010160008681526020019081526020016000206000905560019350505050610665565b6000915050610665565b828054828255906000526020600020908101928215611545579160200282015b828111156115455782518051611535918491602090910190611555565b5091602001919060010190611518565b506115519291506115d5565b5090565b82805461156190611b00565b90600052602060002090601f01602090048101928261158357600085556115c9565b82601f1061159c57805160ff19168380011785556115c9565b828001600101855582156115c9579182015b828111156115c95782518255916020019190600101906115ae565b506115519291506115f2565b808211156115515760006115e98282611607565b506001016115d5565b5b8082111561155157600081556001016115f3565b50805461161390611b00565b6000825580601f10611623575050565b601f016020900490600052602060002090810190610efd91906115f2565b60006020828403121561165357600080fd5b8135600160e060020a03198116811461091457600080fd5b6000806040838503121561167e57600080fd5b82356006811061168d57600080fd5b946020939093013593505050565b6000602082840312156116ad57600080fd5b5035919050565b6000806000606084860312156116c957600080fd5b505081359360208301359350604090920135919050565b60005b838110156116fb5781810151838201526020016116e3565b8381111561170a576000848401525b50505050565b600081518084526117288160208601602086016116e0565b601f01601f19169290920160200192915050565b6020815260006109146020830184611710565b6000806040838503121561176257600080fd5b82359150602083013561ffff8116811461177b57600080fd5b809150509250929050565b8035600160a060020a038116811461179d57600080fd5b919050565b600080604083850312156117b557600080fd5b823591506117c560208401611786565b90509250929050565b600080604083850312156117e157600080fd5b50508035926020909101359150565b60e060020a634e487b7102600052602160045260246000fd5b602081016007831061181d5761181d6117f0565b91905290565b600060208083018184528085518083526040860191506040848202870101925083870160005b8281101561187757603f19888603018452611865858351611710565b94509285019290850190600101611849565b5092979650505050505050565b6020808252825182820181905260009190848201906040850190845b818110156118bc578351835292840192918401916001016118a0565b50909695505050505050565b60e060020a634e487b7102600052604160045260246000fd5b604051601f8201601f1916810167ffffffffffffffff8111828210171561190a5761190a6118c8565b604052919050565b600082601f83011261192357600080fd5b813567ffffffffffffffff81111561193d5761193d6118c8565b611950601f8201601f19166020016118e1565b81815284602083860101111561196557600080fd5b816020850160208301376000918101602001919091529392505050565b600082601f83011261199357600080fd5b8135602067ffffffffffffffff808311156119b0576119b06118c8565b8183026119be8382016118e1565b93845285810183019383810190888611156119d857600080fd5b84880192505b85831015611a14578235848111156119f65760008081fd5b611a048a87838c0101611912565b83525091840191908401906119de565b98975050505050505050565b60008060008060008060c08789031215611a3957600080fd5b86359550602087013560078110611a4f57600080fd5b9450604087013567ffffffffffffffff80821115611a6c57600080fd5b611a788a838b01611982565b95506060890135915080821115611a8e57600080fd5b611a9a8a838b01611912565b94506080890135915080821115611ab057600080fd5b50611abd89828a01611912565b92505060a087013590509295509295509295565b602081016006831061181d5761181d6117f0565b600060208284031215611af757600080fd5b61091482611786565b600281046001821680611b1457607f821691505b60208210811415611b385760e060020a634e487b7102600052602260045260246000fd5b50919050565b7f416363657373436f6e74726f6c3a206163636f756e7420000000000000000000815260008351611b768160178501602088016116e0565b7f206973206d697373696e6720726f6c65200000000000000000000000000000006017918401918201528351611bb38160288401602088016116e0565b01602801949350505050565b60e060020a634e487b7102600052603260045260246000fd5b60e060020a634e487b7102600052601160045260246000fd5b6000816000190483118215151615611c0b57611c0b611bd8565b500290565b60008219821115611c2357611c23611bd8565b500190565b600081611c3757611c37611bd8565b506000190190565b600082821015611c5157611c51611bd8565b500390565b60e060020a634e487b7102600052603160045260246000fdfe0c2c7e957bdf811d5a896b04e816b9c382dfb980c93b21b0288b75c85d598acd80e2196015fc06a9d891759f8e4f51eb314ef5e9ea068528a8ed0063b87759f0a2646970667358221220a802c5b64cf4c2cb8d713425079a00559ddef990f17974ffa35b8981706f94a064736f6c634300080b0033",
  "immutableReferences": {},
  "source": "// SPDX-License-Identifier: GPL-3.0\n/* Notes:\n//add address of queue to board on deployment\n// ????? uint256 queueIndex = 0; // increase with each phase processed so we don't have to clean the queue\n*/\npragma solidity >=0.7.0 <0.9.0;\n\nimport \"@openzeppelin/contracts/access/AccessControlEnumerable.sol\";\nimport \"@openzeppelin/contracts/utils/Counters.sol\";\n\ncontract HexplorationQueue is AccessControlEnumerable {\n    using Counters for Counters.Counter;\n    Counters.Counter internal QUEUE_ID;\n\n    enum ProcessingPhase {\n        Start,\n        Submission,\n        Processing,\n        PlayThrough,\n        Processed,\n        Closed\n    }\n    enum Action {\n        Idle,\n        Move,\n        SetupCamp,\n        BreakDownCamp,\n        Dig,\n        Rest,\n        Help\n    }\n\n    bytes32 public constant VERIFIED_CONTROLLER_ROLE =\n        keccak256(\"VERIFIED_CONTROLLER_ROLE\");\n    bytes32 public constant GAMEPLAY_ROLE = keccak256(\"GAMEPLAY_ROLE\");\n\n    // Array of Queue IDs to be processed.\n    uint256[] public processingQueue;\n\n    // do we need these 2?\n    mapping(uint256 => uint16) public currentQueuePosition; // ?? increases with each player in queue, then back to 0\n    mapping(uint256 => uint16) public playThroughPosition; // ?? in case we need to batch this too... hopefully not.\n\n    // mapping from game ID\n    mapping(uint256 => uint256) public queueID; // mapping from game ID to it's queue, updates to 0 when finished\n\n    // mappings from queue index\n    mapping(uint256 => bool) public inProcessingQueue; // game queue is in processing queue\n    mapping(uint256 => ProcessingPhase) public currentPhase; // processingPhase\n    mapping(uint256 => uint256) public game; // mapping from queue ID to it's game ID\n    mapping(uint256 => uint256[]) public players; // all players with moves to process\n    mapping(uint256 => uint16) public totalPlayers; // total # of players who will be submitting\n\n    // mappings from queue index => player id\n    mapping(uint256 => mapping(uint256 => Action)) public submissionAction;\n    mapping(uint256 => mapping(uint256 => string[])) public submissionOptions;\n    mapping(uint256 => mapping(uint256 => string)) public submissionLeftHand;\n    mapping(uint256 => mapping(uint256 => string)) public submissionRightHand;\n    mapping(uint256 => mapping(uint256 => bool)) public playerSubmitted;\n\n    mapping(uint256 => uint256) randomness; // randomness delivered here at start of each phase processing\n\n    ///////  VRF can kick off processing phase\n\n    constructor(address gameplayAddress) {\n        _setupRole(DEFAULT_ADMIN_ROLE, _msgSender());\n        _setupRole(GAMEPLAY_ROLE, gameplayAddress);\n        QUEUE_ID.increment(); // start at 1\n    }\n\n    // Can set multiple VCs, one for manual pushing, one for keeper\n    function addVerifiedController(address controllerAddress)\n        public\n        onlyRole(DEFAULT_ADMIN_ROLE)\n    {\n        grantRole(VERIFIED_CONTROLLER_ROLE, controllerAddress);\n    }\n\n    // pass total # players making submissions\n    // total can be less than actual totalPlayers in game\n    function requestGameQueue(uint256 gameID, uint16 _totalPlayers)\n        external\n        onlyRole(VERIFIED_CONTROLLER_ROLE)\n        returns (uint256)\n    {\n        return _requestGameQueue(gameID, _totalPlayers);\n    }\n\n    // Sent from controller\n\n    function startGame(uint256 _queueID)\n        public\n        onlyRole(VERIFIED_CONTROLLER_ROLE)\n    {\n        currentPhase[_queueID] = ProcessingPhase.Submission;\n    }\n\n    function sumbitActionForPlayer(\n        uint256 playerID,\n        Action action,\n        string[] memory options,\n        string memory leftHand,\n        string memory rightHand,\n        uint256 _queueID\n    ) public onlyRole(VERIFIED_CONTROLLER_ROLE) {\n        require(\n            currentPhase[_queueID] == ProcessingPhase.Submission,\n            \"Not submission phase\"\n        );\n        if (!playerSubmitted[_queueID][playerID]) {\n            submissionAction[_queueID][playerID] = action;\n            submissionOptions[_queueID][playerID] = options;\n            submissionLeftHand[_queueID][playerID] = leftHand;\n            submissionRightHand[_queueID][playerID] = rightHand;\n\n            players[_queueID].push(playerID);\n            playerSubmitted[_queueID][playerID] = true;\n            // automatically add to queue if last player to submit move\n            if (players[_queueID].length >= totalPlayers[_queueID]) {\n                _processAllActions(_queueID);\n            }\n        }\n    }\n\n    // Will get processed once keeper is available\n    // and previous game queues have been processed\n    function requestProcessActions(uint256 _queueID)\n        public\n        onlyRole(VERIFIED_CONTROLLER_ROLE)\n    {\n        _processAllActions(_queueID);\n    }\n\n    function getAllPlayers(uint256 _queueID)\n        public\n        view\n        returns (uint256[] memory)\n    {\n        return players[_queueID];\n    }\n\n    function getSubmissionOptions(uint256 _queueID, uint256 _playerID)\n        public\n        view\n        returns (string[] memory)\n    {\n        return submissionOptions[_queueID][_playerID];\n    }\n\n    // Gameplay interactions\n    function setPhase(ProcessingPhase phase, uint256 _queueID)\n        external\n        onlyRole(GAMEPLAY_ROLE)\n    {\n        currentPhase[_queueID] = phase;\n    }\n\n    function setRandomNumber(uint256 randomNumber, uint256 _queueID)\n        external\n        onlyRole(GAMEPLAY_ROLE)\n    {\n        randomness[_queueID] = randomNumber;\n    }\n\n    function requestNewQueueID(uint256 _queueID)\n        external\n        onlyRole(GAMEPLAY_ROLE)\n    {\n        uint256 g = game[_queueID];\n        uint16 tp = totalPlayers[_queueID];\n        queueID[g] = _requestGameQueue(g, tp);\n    }\n\n    function setProcessingComplete(uint256 _queueID)\n        external\n        onlyRole(GAMEPLAY_ROLE)\n    {\n        uint256 g = game[_queueID];\n        currentPhase[_queueID] = ProcessingPhase.Processed;\n        queueID[g] = 0;\n    }\n\n    // Internal\n    function _processAllActions(uint256 _queueID) internal {\n        if (!inProcessingQueue[_queueID]) {\n            processingQueue.push(_queueID);\n            inProcessingQueue[_queueID] = true;\n        }\n    }\n\n    function _requestGameQueue(uint256 gameID, uint16 _totalPlayers)\n        internal\n        returns (uint256)\n    {\n        /*\n    mapping(uint256 => uint256) public queueID; // mapping from game ID to it's queue, updates to 0 when finished\n    mapping(uint256 => uint256) public game; // mapping from queue ID to it's game ID\n    mapping(uint256 => uint256[]) public players; // all players with moves to process\n    mapping(uint256 => uint16) public totalPlayers;\n        */\n        require(queueID[gameID] == 0, \"queue already set\");\n        uint256 newQueueID = QUEUE_ID.current();\n        queueID[gameID] = newQueueID;\n        totalPlayers[gameID] = _totalPlayers;\n        QUEUE_ID.increment();\n        return newQueueID;\n    }\n}\n",
  "sourcePath": "/Users/maxmeier/Developer/Lucky Machines/hexploration/contracts/HexplorationQueue.sol",
  "compiler": {
    "name": "solc",
    "version": "0.8.11+commit.d7f03943.Emscripten.clang"
  },
  "schemaVersion": "3.4.4",
  "updatedAt": "2022-05-18T04:40:55.916Z",
  "networkType": "ethereum",
  "devdoc": {
    "kind": "dev",
    "methods": {
      "getRoleAdmin(bytes32)": {
        "details": "Returns the admin role that controls `role`. See {grantRole} and {revokeRole}. To change a role's admin, use {_setRoleAdmin}."
      },
      "getRoleMember(bytes32,uint256)": {
        "details": "Returns one of the accounts that have `role`. `index` must be a value between 0 and {getRoleMemberCount}, non-inclusive. Role bearers are not sorted in any particular way, and their ordering may change at any point. WARNING: When using {getRoleMember} and {getRoleMemberCount}, make sure you perform all queries on the same block. See the following https://forum.openzeppelin.com/t/iterating-over-elements-on-enumerableset-in-openzeppelin-contracts/2296[forum post] for more information."
      },
      "getRoleMemberCount(bytes32)": {
        "details": "Returns the number of accounts that have `role`. Can be used together with {getRoleMember} to enumerate all bearers of a role."
      },
      "grantRole(bytes32,address)": {
        "details": "Grants `role` to `account`. If `account` had not been already granted `role`, emits a {RoleGranted} event. Requirements: - the caller must have ``role``'s admin role."
      },
      "hasRole(bytes32,address)": {
        "details": "Returns `true` if `account` has been granted `role`."
      },
      "renounceRole(bytes32,address)": {
        "details": "Revokes `role` from the calling account. Roles are often managed via {grantRole} and {revokeRole}: this function's purpose is to provide a mechanism for accounts to lose their privileges if they are compromised (such as when a trusted device is misplaced). If the calling account had been revoked `role`, emits a {RoleRevoked} event. Requirements: - the caller must be `account`."
      },
      "revokeRole(bytes32,address)": {
        "details": "Revokes `role` from `account`. If `account` had been granted `role`, emits a {RoleRevoked} event. Requirements: - the caller must have ``role``'s admin role."
      },
      "supportsInterface(bytes4)": {
        "details": "See {IERC165-supportsInterface}."
      }
    },
    "version": 1
  },
  "userdoc": {
    "kind": "user",
    "methods": {},
    "version": 1
  }
}