{
  "contractName": "HexplorationBoard",
  "abi": [
    {
      "inputs": [
        {
          "internalType": "address",
          "name": "adminAddress",
          "type": "address"
        },
        {
          "internalType": "uint256",
          "name": "gridWidth",
          "type": "uint256"
        },
        {
          "internalType": "uint256",
          "name": "gridHeight",
          "type": "uint256"
        },
        {
          "internalType": "address",
          "name": "zoneAddress",
          "type": "address"
        }
      ],
      "stateMutability": "nonpayable",
      "type": "constructor"
    },
    {
      "anonymous": false,
      "inputs": [
        {
          "indexed": true,
          "internalType": "bytes32",
          "name": "role",
          "type": "bytes32"
        },
        {
          "indexed": true,
          "internalType": "bytes32",
          "name": "previousAdminRole",
          "type": "bytes32"
        },
        {
          "indexed": true,
          "internalType": "bytes32",
          "name": "newAdminRole",
          "type": "bytes32"
        }
      ],
      "name": "RoleAdminChanged",
      "type": "event"
    },
    {
      "anonymous": false,
      "inputs": [
        {
          "indexed": true,
          "internalType": "bytes32",
          "name": "role",
          "type": "bytes32"
        },
        {
          "indexed": true,
          "internalType": "address",
          "name": "account",
          "type": "address"
        },
        {
          "indexed": true,
          "internalType": "address",
          "name": "sender",
          "type": "address"
        }
      ],
      "name": "RoleGranted",
      "type": "event"
    },
    {
      "anonymous": false,
      "inputs": [
        {
          "indexed": true,
          "internalType": "bytes32",
          "name": "role",
          "type": "bytes32"
        },
        {
          "indexed": true,
          "internalType": "address",
          "name": "account",
          "type": "address"
        },
        {
          "indexed": true,
          "internalType": "address",
          "name": "sender",
          "type": "address"
        }
      ],
      "name": "RoleRevoked",
      "type": "event"
    },
    {
      "inputs": [],
      "name": "DEFAULT_ADMIN_ROLE",
      "outputs": [
        {
          "internalType": "bytes32",
          "name": "",
          "type": "bytes32"
        }
      ],
      "stateMutability": "view",
      "type": "function",
      "constant": true
    },
    {
      "inputs": [],
      "name": "FACTORY_ROLE",
      "outputs": [
        {
          "internalType": "bytes32",
          "name": "",
          "type": "bytes32"
        }
      ],
      "stateMutability": "view",
      "type": "function",
      "constant": true
    },
    {
      "inputs": [],
      "name": "GAME_MASTER_ROLE",
      "outputs": [
        {
          "internalType": "bytes32",
          "name": "",
          "type": "bytes32"
        }
      ],
      "stateMutability": "view",
      "type": "function",
      "constant": true
    },
    {
      "inputs": [],
      "name": "MAX_BATCH_SIZE",
      "outputs": [
        {
          "internalType": "uint256",
          "name": "",
          "type": "uint256"
        }
      ],
      "stateMutability": "view",
      "type": "function",
      "constant": true
    },
    {
      "inputs": [],
      "name": "PLAY_ZONE_ROLE",
      "outputs": [
        {
          "internalType": "bytes32",
          "name": "",
          "type": "bytes32"
        }
      ],
      "stateMutability": "view",
      "type": "function",
      "constant": true
    },
    {
      "inputs": [],
      "name": "VERIFIED_CONTROLLER_ROLE",
      "outputs": [
        {
          "internalType": "bytes32",
          "name": "",
          "type": "bytes32"
        }
      ],
      "stateMutability": "view",
      "type": "function",
      "constant": true
    },
    {
      "inputs": [
        {
          "internalType": "uint256",
          "name": "transitID",
          "type": "uint256"
        }
      ],
      "name": "_progressTransit",
      "outputs": [],
      "stateMutability": "nonpayable",
      "type": "function"
    },
    {
      "inputs": [
        {
          "internalType": "address",
          "name": "factoryAddress",
          "type": "address"
        }
      ],
      "name": "addFactory",
      "outputs": [],
      "stateMutability": "nonpayable",
      "type": "function"
    },
    {
      "inputs": [
        {
          "internalType": "address",
          "name": "keeperAddress",
          "type": "address"
        }
      ],
      "name": "addKeeper",
      "outputs": [],
      "stateMutability": "nonpayable",
      "type": "function"
    },
    {
      "inputs": [
        {
          "internalType": "address",
          "name": "vcAddress",
          "type": "address"
        }
      ],
      "name": "addVerifiedController",
      "outputs": [],
      "stateMutability": "nonpayable",
      "type": "function"
    },
    {
      "inputs": [
        {
          "internalType": "uint256",
          "name": "gameID",
          "type": "uint256"
        },
        {
          "internalType": "string[2][]",
          "name": "connections",
          "type": "string[2][]"
        }
      ],
      "name": "addZoneConnections",
      "outputs": [],
      "stateMutability": "nonpayable",
      "type": "function"
    },
    {
      "inputs": [
        {
          "internalType": "address[]",
          "name": "playZoneAddresses",
          "type": "address[]"
        },
        {
          "internalType": "string[]",
          "name": "zoneAliases",
          "type": "string[]"
        },
        {
          "internalType": "uint256",
          "name": "gameID",
          "type": "uint256"
        }
      ],
      "name": "addZones",
      "outputs": [],
      "stateMutability": "nonpayable",
      "type": "function"
    },
    {
      "inputs": [],
      "name": "characterCard",
      "outputs": [
        {
          "internalType": "address",
          "name": "",
          "type": "address"
        }
      ],
      "stateMutability": "view",
      "type": "function",
      "constant": true
    },
    {
      "inputs": [],
      "name": "cleanQueue",
      "outputs": [],
      "stateMutability": "nonpayable",
      "type": "function"
    },
    {
      "inputs": [
        {
          "internalType": "address",
          "name": "_playerRegistry",
          "type": "address"
        },
        {
          "internalType": "address",
          "name": "_gameRegistry",
          "type": "address"
        }
      ],
      "name": "createGame",
      "outputs": [
        {
          "internalType": "uint256",
          "name": "gameID",
          "type": "uint256"
        }
      ],
      "stateMutability": "nonpayable",
      "type": "function"
    },
    {
      "inputs": [
        {
          "internalType": "address",
          "name": "_playerRegistry",
          "type": "address"
        },
        {
          "internalType": "address",
          "name": "_gameRegistry",
          "type": "address"
        },
        {
          "internalType": "address[]",
          "name": "playZoneAddresses",
          "type": "address[]"
        },
        {
          "internalType": "string[]",
          "name": "zoneAliases",
          "type": "string[]"
        }
      ],
      "name": "createGame",
      "outputs": [
        {
          "internalType": "uint256",
          "name": "gameID",
          "type": "uint256"
        }
      ],
      "stateMutability": "nonpayable",
      "type": "function"
    },
    {
      "inputs": [],
      "name": "createGrid",
      "outputs": [],
      "stateMutability": "nonpayable",
      "type": "function"
    },
    {
      "inputs": [
        {
          "internalType": "uint256",
          "name": "",
          "type": "uint256"
        },
        {
          "internalType": "uint256",
          "name": "",
          "type": "uint256"
        }
      ],
      "name": "currentPlayZone",
      "outputs": [
        {
          "internalType": "string",
          "name": "",
          "type": "string"
        }
      ],
      "stateMutability": "view",
      "type": "function",
      "constant": true
    },
    {
      "inputs": [
        {
          "internalType": "uint256",
          "name": "",
          "type": "uint256"
        },
        {
          "internalType": "uint256",
          "name": "",
          "type": "uint256"
        }
      ],
      "name": "entryQueue",
      "outputs": [
        {
          "internalType": "uint256",
          "name": "",
          "type": "uint256"
        }
      ],
      "stateMutability": "view",
      "type": "function",
      "constant": true
    },
    {
      "inputs": [
        {
          "internalType": "uint256",
          "name": "gameID",
          "type": "uint256"
        },
        {
          "internalType": "address",
          "name": "playerAddress",
          "type": "address"
        },
        {
          "internalType": "uint256",
          "name": "pathIndex",
          "type": "uint256"
        }
      ],
      "name": "exitToPath",
      "outputs": [
        {
          "internalType": "bool",
          "name": "exitSuccess",
          "type": "bool"
        }
      ],
      "stateMutability": "nonpayable",
      "type": "function"
    },
    {
      "inputs": [
        {
          "internalType": "uint256",
          "name": "",
          "type": "uint256"
        }
      ],
      "name": "gameState",
      "outputs": [
        {
          "internalType": "uint256",
          "name": "",
          "type": "uint256"
        }
      ],
      "stateMutability": "view",
      "type": "function",
      "constant": true
    },
    {
      "inputs": [],
      "name": "gameplayQueue",
      "outputs": [
        {
          "internalType": "address",
          "name": "",
          "type": "address"
        }
      ],
      "stateMutability": "view",
      "type": "function",
      "constant": true
    },
    {
      "inputs": [
        {
          "internalType": "uint256",
          "name": "gameID",
          "type": "uint256"
        },
        {
          "internalType": "string",
          "name": "_zoneAlias",
          "type": "string"
        }
      ],
      "name": "getInputs",
      "outputs": [
        {
          "internalType": "string[]",
          "name": "zoneInputs",
          "type": "string[]"
        }
      ],
      "stateMutability": "view",
      "type": "function",
      "constant": true
    },
    {
      "inputs": [
        {
          "internalType": "uint256",
          "name": "gameID",
          "type": "uint256"
        },
        {
          "internalType": "string",
          "name": "_zoneAlias",
          "type": "string"
        }
      ],
      "name": "getOutputs",
      "outputs": [
        {
          "internalType": "string[]",
          "name": "zoneOutputs",
          "type": "string[]"
        }
      ],
      "stateMutability": "view",
      "type": "function",
      "constant": true
    },
    {
      "inputs": [
        {
          "internalType": "uint256",
          "name": "gameID",
          "type": "uint256"
        }
      ],
      "name": "getOverflowQueue",
      "outputs": [
        {
          "internalType": "uint256[]",
          "name": "",
          "type": "uint256[]"
        }
      ],
      "stateMutability": "view",
      "type": "function",
      "constant": true
    },
    {
      "inputs": [
        {
          "internalType": "uint256",
          "name": "gameID",
          "type": "uint256"
        }
      ],
      "name": "getPlayZones",
      "outputs": [
        {
          "internalType": "string[]",
          "name": "",
          "type": "string[]"
        }
      ],
      "stateMutability": "view",
      "type": "function",
      "constant": true
    },
    {
      "inputs": [
        {
          "internalType": "bytes32",
          "name": "role",
          "type": "bytes32"
        }
      ],
      "name": "getRoleAdmin",
      "outputs": [
        {
          "internalType": "bytes32",
          "name": "",
          "type": "bytes32"
        }
      ],
      "stateMutability": "view",
      "type": "function",
      "constant": true
    },
    {
      "inputs": [
        {
          "internalType": "bytes32",
          "name": "role",
          "type": "bytes32"
        },
        {
          "internalType": "uint256",
          "name": "index",
          "type": "uint256"
        }
      ],
      "name": "getRoleMember",
      "outputs": [
        {
          "internalType": "address",
          "name": "",
          "type": "address"
        }
      ],
      "stateMutability": "view",
      "type": "function",
      "constant": true
    },
    {
      "inputs": [
        {
          "internalType": "bytes32",
          "name": "role",
          "type": "bytes32"
        }
      ],
      "name": "getRoleMemberCount",
      "outputs": [
        {
          "internalType": "uint256",
          "name": "",
          "type": "uint256"
        }
      ],
      "stateMutability": "view",
      "type": "function",
      "constant": true
    },
    {
      "inputs": [],
      "name": "getZoneAliases",
      "outputs": [
        {
          "internalType": "string[]",
          "name": "",
          "type": "string[]"
        }
      ],
      "stateMutability": "view",
      "type": "function",
      "constant": true
    },
    {
      "inputs": [
        {
          "internalType": "bytes32",
          "name": "role",
          "type": "bytes32"
        },
        {
          "internalType": "address",
          "name": "account",
          "type": "address"
        }
      ],
      "name": "grantRole",
      "outputs": [],
      "stateMutability": "nonpayable",
      "type": "function"
    },
    {
      "inputs": [],
      "name": "gridHeight",
      "outputs": [
        {
          "internalType": "uint256",
          "name": "",
          "type": "uint256"
        }
      ],
      "stateMutability": "view",
      "type": "function",
      "constant": true
    },
    {
      "inputs": [],
      "name": "gridWidth",
      "outputs": [
        {
          "internalType": "uint256",
          "name": "",
          "type": "uint256"
        }
      ],
      "stateMutability": "view",
      "type": "function",
      "constant": true
    },
    {
      "inputs": [
        {
          "internalType": "bytes32",
          "name": "role",
          "type": "bytes32"
        },
        {
          "internalType": "address",
          "name": "account",
          "type": "address"
        }
      ],
      "name": "hasRole",
      "outputs": [
        {
          "internalType": "bool",
          "name": "",
          "type": "bool"
        }
      ],
      "stateMutability": "view",
      "type": "function",
      "constant": true
    },
    {
      "inputs": [
        {
          "internalType": "uint256",
          "name": "",
          "type": "uint256"
        }
      ],
      "name": "initialPlayZone",
      "outputs": [
        {
          "internalType": "string",
          "name": "",
          "type": "string"
        }
      ],
      "stateMutability": "view",
      "type": "function",
      "constant": true
    },
    {
      "inputs": [
        {
          "internalType": "address",
          "name": "factoryAddress",
          "type": "address"
        }
      ],
      "name": "isFactory",
      "outputs": [
        {
          "internalType": "bool",
          "name": "factoryIsAuthorized",
          "type": "bool"
        }
      ],
      "stateMutability": "view",
      "type": "function",
      "constant": true
    },
    {
      "inputs": [
        {
          "internalType": "uint256",
          "name": "",
          "type": "uint256"
        }
      ],
      "name": "lastEntryPlayerID",
      "outputs": [
        {
          "internalType": "uint256",
          "name": "",
          "type": "uint256"
        }
      ],
      "stateMutability": "view",
      "type": "function",
      "constant": true
    },
    {
      "inputs": [],
      "name": "needsUpdate",
      "outputs": [
        {
          "internalType": "bool",
          "name": "doesNeedUpdate",
          "type": "bool"
        }
      ],
      "stateMutability": "view",
      "type": "function",
      "constant": true
    },
    {
      "inputs": [
        {
          "internalType": "uint256",
          "name": "",
          "type": "uint256"
        },
        {
          "internalType": "string",
          "name": "",
          "type": "string"
        },
        {
          "internalType": "uint256",
          "name": "",
          "type": "uint256"
        }
      ],
      "name": "playZoneInputs",
      "outputs": [
        {
          "internalType": "string",
          "name": "",
          "type": "string"
        }
      ],
      "stateMutability": "view",
      "type": "function",
      "constant": true
    },
    {
      "inputs": [
        {
          "internalType": "uint256",
          "name": "",
          "type": "uint256"
        },
        {
          "internalType": "string",
          "name": "",
          "type": "string"
        },
        {
          "internalType": "uint256",
          "name": "",
          "type": "uint256"
        }
      ],
      "name": "playZoneOutputs",
      "outputs": [
        {
          "internalType": "string",
          "name": "",
          "type": "string"
        }
      ],
      "stateMutability": "view",
      "type": "function",
      "constant": true
    },
    {
      "inputs": [
        {
          "internalType": "uint256",
          "name": "",
          "type": "uint256"
        },
        {
          "internalType": "uint256",
          "name": "",
          "type": "uint256"
        }
      ],
      "name": "playZones",
      "outputs": [
        {
          "internalType": "string",
          "name": "",
          "type": "string"
        }
      ],
      "stateMutability": "view",
      "type": "function",
      "constant": true
    },
    {
      "inputs": [
        {
          "internalType": "uint256",
          "name": "gameID",
          "type": "uint256"
        },
        {
          "internalType": "address",
          "name": "playerAddress",
          "type": "address"
        },
        {
          "internalType": "string",
          "name": "_zoneAlias",
          "type": "string"
        }
      ],
      "name": "playerEnteredZone",
      "outputs": [],
      "stateMutability": "nonpayable",
      "type": "function"
    },
    {
      "inputs": [
        {
          "internalType": "uint256",
          "name": "",
          "type": "uint256"
        }
      ],
      "name": "playerRegistry",
      "outputs": [
        {
          "internalType": "uint256",
          "name": "",
          "type": "uint256"
        }
      ],
      "stateMutability": "view",
      "type": "function",
      "constant": true
    },
    {
      "inputs": [],
      "name": "prAddress",
      "outputs": [
        {
          "internalType": "address",
          "name": "",
          "type": "address"
        }
      ],
      "stateMutability": "view",
      "type": "function",
      "constant": true
    },
    {
      "inputs": [
        {
          "internalType": "uint256",
          "name": "gameID",
          "type": "uint256"
        },
        {
          "internalType": "address[]",
          "name": "playerAddresses",
          "type": "address[]"
        },
        {
          "internalType": "uint256[]",
          "name": "pathIndices",
          "type": "uint256[]"
        },
        {
          "internalType": "uint256",
          "name": "transitID",
          "type": "uint256"
        }
      ],
      "name": "queueExitToPaths",
      "outputs": [],
      "stateMutability": "nonpayable",
      "type": "function"
    },
    {
      "inputs": [
        {
          "internalType": "uint256",
          "name": "gameID",
          "type": "uint256"
        },
        {
          "internalType": "string[]",
          "name": "inputAliases",
          "type": "string[]"
        },
        {
          "internalType": "uint256[]",
          "name": "inputs",
          "type": "uint256[]"
        },
        {
          "internalType": "string[]",
          "name": "outputAliases",
          "type": "string[]"
        },
        {
          "internalType": "uint256[]",
          "name": "outputs",
          "type": "uint256[]"
        }
      ],
      "name": "removeZoneConnections",
      "outputs": [],
      "stateMutability": "nonpayable",
      "type": "function"
    },
    {
      "inputs": [
        {
          "internalType": "bytes32",
          "name": "role",
          "type": "bytes32"
        },
        {
          "internalType": "address",
          "name": "account",
          "type": "address"
        }
      ],
      "name": "renounceRole",
      "outputs": [],
      "stateMutability": "nonpayable",
      "type": "function"
    },
    {
      "inputs": [
        {
          "internalType": "bytes32",
          "name": "role",
          "type": "bytes32"
        },
        {
          "internalType": "address",
          "name": "account",
          "type": "address"
        }
      ],
      "name": "revokeRole",
      "outputs": [],
      "stateMutability": "nonpayable",
      "type": "function"
    },
    {
      "inputs": [],
      "name": "runUpdate",
      "outputs": [],
      "stateMutability": "nonpayable",
      "type": "function"
    },
    {
      "inputs": [
        {
          "internalType": "string",
          "name": "initialZone",
          "type": "string"
        },
        {
          "internalType": "uint256",
          "name": "gameID",
          "type": "uint256"
        }
      ],
      "name": "setInitialPlayZone",
      "outputs": [],
      "stateMutability": "nonpayable",
      "type": "function"
    },
    {
      "inputs": [
        {
          "internalType": "uint256",
          "name": "gameID",
          "type": "uint256"
        }
      ],
      "name": "startGame",
      "outputs": [],
      "stateMutability": "nonpayable",
      "type": "function"
    },
    {
      "inputs": [
        {
          "internalType": "uint256",
          "name": "transitID",
          "type": "uint256"
        }
      ],
      "name": "startTransit",
      "outputs": [],
      "stateMutability": "nonpayable",
      "type": "function"
    },
    {
      "inputs": [
        {
          "internalType": "bytes4",
          "name": "interfaceId",
          "type": "bytes4"
        }
      ],
      "name": "supportsInterface",
      "outputs": [
        {
          "internalType": "bool",
          "name": "",
          "type": "bool"
        }
      ],
      "stateMutability": "view",
      "type": "function",
      "constant": true
    },
    {
      "inputs": [],
      "name": "tokenInventory",
      "outputs": [
        {
          "internalType": "address",
          "name": "",
          "type": "address"
        }
      ],
      "stateMutability": "view",
      "type": "function",
      "constant": true
    },
    {
      "inputs": [],
      "name": "zoneAddress",
      "outputs": [
        {
          "internalType": "address",
          "name": "",
          "type": "address"
        }
      ],
      "stateMutability": "view",
      "type": "function",
      "constant": true
    },
    {
      "inputs": [
        {
          "internalType": "uint256",
          "name": "",
          "type": "uint256"
        },
        {
          "internalType": "string",
          "name": "",
          "type": "string"
        }
      ],
      "name": "zoneAlias",
      "outputs": [
        {
          "internalType": "address",
          "name": "",
          "type": "address"
        }
      ],
      "stateMutability": "view",
      "type": "function",
      "constant": true
    },
    {
      "inputs": [
        {
          "internalType": "uint256",
          "name": "",
          "type": "uint256"
        }
      ],
      "name": "zoneAliases",
      "outputs": [
        {
          "internalType": "string",
          "name": "",
          "type": "string"
        }
      ],
      "stateMutability": "view",
      "type": "function",
      "constant": true
    },
    {
      "inputs": [
        {
          "internalType": "uint256",
          "name": "",
          "type": "uint256"
        },
        {
          "internalType": "string",
          "name": "",
          "type": "string"
        }
      ],
      "name": "zoneEnabled",
      "outputs": [
        {
          "internalType": "bool",
          "name": "",
          "type": "bool"
        }
      ],
      "stateMutability": "view",
      "type": "function",
      "constant": true
    },
    {
      "inputs": [],
      "name": "hexZoneAddress",
      "outputs": [
        {
          "internalType": "address",
          "name": "",
          "type": "address"
        }
      ],
      "stateMutability": "view",
      "type": "function",
      "constant": true
    },
    {
      "inputs": [
        {
          "internalType": "address",
          "name": "characterCardAddress",
          "type": "address"
        }
      ],
      "name": "setCharacterCard",
      "outputs": [],
      "stateMutability": "nonpayable",
      "type": "function"
    },
    {
      "inputs": [
        {
          "internalType": "address",
          "name": "tokenInventoryAddress",
          "type": "address"
        }
      ],
      "name": "setTokenInventory",
      "outputs": [],
      "stateMutability": "nonpayable",
      "type": "function"
    },
    {
      "inputs": [
        {
          "internalType": "address",
          "name": "gameplayQueueAddress",
          "type": "address"
        }
      ],
      "name": "setGameplayQueue",
      "outputs": [],
      "stateMutability": "nonpayable",
      "type": "function"
    },
    {
      "inputs": [
        {
          "internalType": "address",
          "name": "playerAddress",
          "type": "address"
        },
        {
          "internalType": "uint256",
          "name": "gameID",
          "type": "uint256"
        }
      ],
      "name": "registerPlayer",
      "outputs": [],
      "stateMutability": "nonpayable",
      "type": "function"
    },
    {
      "inputs": [
        {
          "internalType": "uint256",
          "name": "gameID",
          "type": "uint256"
        }
      ],
      "name": "lockRegistration",
      "outputs": [],
      "stateMutability": "nonpayable",
      "type": "function"
    },
    {
      "inputs": [
        {
          "internalType": "address",
          "name": "playerAddress",
          "type": "address"
        },
        {
          "internalType": "uint256",
          "name": "gameID",
          "type": "uint256"
        },
        {
          "internalType": "string",
          "name": "zone",
          "type": "string"
        }
      ],
      "name": "enterPlayer",
      "outputs": [],
      "stateMutability": "nonpayable",
      "type": "function"
    },
    {
      "inputs": [
        {
          "internalType": "address",
          "name": "playerAddress",
          "type": "address"
        },
        {
          "internalType": "uint256",
          "name": "gameID",
          "type": "uint256"
        },
        {
          "internalType": "string",
          "name": "zone",
          "type": "string"
        }
      ],
      "name": "exitPlayer",
      "outputs": [],
      "stateMutability": "nonpayable",
      "type": "function"
    },
    {
      "inputs": [
        {
          "internalType": "address",
          "name": "gameRegistryAddress",
          "type": "address"
        }
      ],
      "name": "requestNewGame",
      "outputs": [],
      "stateMutability": "nonpayable",
      "type": "function"
    },
    {
      "inputs": [
        {
          "internalType": "uint256",
          "name": "gs",
          "type": "uint256"
        },
        {
          "internalType": "uint256",
          "name": "gameID",
          "type": "uint256"
        }
      ],
      "name": "setGameState",
      "outputs": [],
      "stateMutability": "nonpayable",
      "type": "function"
    },
    {
      "inputs": [
        {
          "internalType": "uint256",
          "name": "randomness",
          "type": "uint256"
        }
      ],
      "name": "setRandomness",
      "outputs": [],
      "stateMutability": "nonpayable",
      "type": "function"
    },
    {
      "inputs": [
        {
          "internalType": "uint256",
          "name": "gameID",
          "type": "uint256"
        }
      ],
      "name": "start",
      "outputs": [],
      "stateMutability": "nonpayable",
      "type": "function"
    },
    {
      "inputs": [
        {
          "internalType": "string",
          "name": "zoneAlias",
          "type": "string"
        },
        {
          "internalType": "enum HexplorationZone.Tile",
          "name": "tile",
          "type": "uint8"
        },
        {
          "internalType": "uint256",
          "name": "gameID",
          "type": "uint256"
        }
      ],
      "name": "enableZone",
      "outputs": [],
      "stateMutability": "nonpayable",
      "type": "function"
    },
    {
      "inputs": [
        {
          "internalType": "string[]",
          "name": "zonePath",
          "type": "string[]"
        },
        {
          "internalType": "uint256",
          "name": "playerID",
          "type": "uint256"
        },
        {
          "internalType": "uint256",
          "name": "gameID",
          "type": "uint256"
        },
        {
          "internalType": "enum HexplorationZone.Tile[]",
          "name": "tiles",
          "type": "uint8[]"
        }
      ],
      "name": "moveThroughPath",
      "outputs": [],
      "stateMutability": "nonpayable",
      "type": "function"
    }
  ],
  "bytecode": "0x60806040523480156200001157600080fd5b5060405162004e2938038062004e298339810160408190526200003491620002a8565b83838383836200004f600082640100000000620000c9810204565b620000847f1d93c87416ca7b54f0fb8323167b72760e8e2ec93d48660953897a150f97a8b482640100000000620000c9810204565b50600e92909255600f5560108054600160a060020a03928316600160a060020a031991821617909155601380549490921693169290921790915550620002f392505050565b620000de8282640100000000620000e2810204565b5050565b620000fc828264010000000062002d236200012982021704565b600082815260016020526040902062000124908264010000000062002da7620001c582021704565b505050565b6200013e8282640100000000620001ee810204565b620000de57600082815260208181526040808320600160a060020a03851684529091529020805460ff191660011790556200018164010000000062000217810204565b600160a060020a031681600160a060020a0316837f2f8788117e7eff1d82e926ec794901d17c78024a50270940304540a733656f0d60405160405180910390a45050565b6000620001e583600160a060020a0384166401000000006200021b810204565b90505b92915050565b600091825260208281526040808420600160a060020a0393909316845291905290205460ff1690565b3390565b600062000232838364010000000062000273810204565b6200026a57508154600181810184556000848152602080822090930184905584548482528286019093526040902091909155620001e8565b506000620001e8565b60009081526001919091016020526040902054151590565b8051600160a060020a0381168114620002a357600080fd5b919050565b60008060008060808587031215620002bf57600080fd5b620002ca856200028b565b93506020850151925060408501519150620002e8606086016200028b565b905092959194509250565b614b2680620003036000396000f3fe608060405234801561001057600080fd5b50600436106103ac5760003560e060020a9004806398bd7572116101ef578063cd1ec7f211610114578063d91413ba116100ac578063d91413ba146108c6578063df793fa8146108d9578063e5ed1d59146108ec578063eb33983d146108ff578063ed3719a514610912578063f643b8fd14610951578063f843070814610964578063fa9f343814610977578063fdd198c31461098a57600080fd5b8063cd1ec7f214610815578063cefe23291461082a578063cfdbf2541461083d578063d1e18d2614610845578063d2d6756b1461084d578063d3fb72891461086d578063d4f5b1521461088d578063d547741f146108a0578063d75e7980146108b357600080fd5b8063aab2aeb811610187578063aab2aeb814610770578063ad1def1e14610790578063b2df0ca2146104bb578063b40c89df146107a5578063b9b1ca9a146107b8578063babdeefa146107cb578063c06dea4e146107de578063ca15c873146107ef578063cca369961461080257600080fd5b806398bd7572146106d05780639aabe36d146106e35780639eb356cb146106f65780639f6c4017146107095780639f82bcc01461071c578063a0ed600d1461072f578063a217fddf14610742578063a4f9c9df1461074a578063a6f979ff1461075d57600080fd5b806335e333e4116102d55780636b6ec8691161026d5780636b6ec8691461063057806372c6c6b61461064357806376a321c1146106565780637cc75d1c1461066957806384bf09b61461067c5780639010d07c1461068457806391d14854146106975780639230f879146106aa57806395805dad146106bd57600080fd5b806335e333e41461058f57806336568abe146105a0578063374f1d35146105b357806338b145df146105c65780633ca61a58146105cf5780634032b72b146105d75780634e0e1a3e146105ea57806351709a731461060a57806360c205001461061d57600080fd5b80631c834a7f116103485780631c834a7f146104dd578063235232d0146104f2578063248a9ca31461050557806328d7e11a14610528578063296787561461053b57806329ce1ec51461054e5780632c47669a146105615780632f2ff15d14610574578063346c94091461058757600080fd5b806301ffc9a7146103b157806304a0fb17146103d95780630b197f2e146103fc5780630f04ba6714610427578063108c5e141461043a578063153a75901461044357806317d7e8331461048857806319006018146104a8578063194f2a36146104bd575b600080fd5b6103c46103bf366004613bd2565b61099d565b60405190151581526020015b60405180910390f35b6103ee600080516020614ab183398151915281565b6040519081526020016103d0565b60105461040f90600160a060020a031681565b604051600160a060020a0390911681526020016103d0565b6103c4610435366004613c11565b6109e1565b6103ee600f5481565b61040f610451366004613d1f565b60086020908152600092835260409092208151808301840180519281529084019290930191909120915254600160a060020a031681565b61049b610496366004613d66565b6109fb565b6040516103d09190613de0565b6104bb6104b6366004613ef7565b610ab4565b005b6104d06104cb366004613d1f565b610c00565b6040516103d09190613fae565b6103ee600080516020614ad183398151915281565b6104bb610500366004614023565b610f43565b6103ee6105133660046140f3565b60009081526020819052604090206001015490565b6104bb61053636600461410c565b6111de565b6104bb6105493660046141c6565b61125b565b6104bb61055c366004613c11565b61127a565b6104bb61056f36600461423b565b6112a1565b6104bb6105823660046142a8565b6112ee565b6103c4611318565b601354600160a060020a031661040f565b6104bb6105ae3660046142a8565b611369565b61049b6105c13660046140f3565b6113f4565b6103ee600e5481565b6104d061141f565b6104bb6105e5366004613c11565b6114f8565b6103ee6105f83660046140f3565b60046020526000908152604090205481565b61049b6106183660046142d8565b611528565b6104bb61062b3660046140f3565b61157c565b6104d061063e366004613d1f565b6115f8565b6104bb610651366004613c11565b611928565b6104bb610664366004613d66565b6119a7565b6103ee610677366004613d66565b6119d1565b6104bb611a02565b61040f610692366004613d66565b611ca2565b6103c46106a53660046142a8565b611cc1565b6104bb6106b8366004613c11565b611cea565b6104bb6106cb3660046140f3565b611d25565b6104bb6106de36600461410c565b611d73565b6104bb6106f1366004614317565b611dc2565b6103c4610704366004614343565b611e55565b6104bb6107173660046140f3565b61228c565b6104bb61072a36600461437b565b6122a4565b60145461040f90600160a060020a031681565b6103ee600081565b6104bb6107583660046140f3565b612360565b6103ee61076b3660046143c0565b612378565b6103ee61077e3660046140f3565b600b6020526000908152604090205481565b6103ee600080516020614a9183398151915281565b61049b6107b33660046142d8565b61245d565b6104bb6107c6366004613c11565b612494565b6104d06107d93660046140f3565b6124cf565b600254600160a060020a031661040f565b6103ee6107fd3660046140f3565b6125bb565b60155461040f90600160a060020a031681565b6103ee600080516020614a7183398151915281565b60165461040f90600160a060020a031681565b6103ee60c881565b6104bb6125d2565b6103ee61085b3660046140f3565b60056020526000908152604090205481565b61088061087b3660046140f3565b6126d8565b6040516103d091906143ee565b6104bb61089b366004613c11565b61273a565b6104bb6108ae3660046142a8565b61275d565b61049b6108c1366004613d66565b612782565b6103ee6108d4366004614432565b6127a6565b6104bb6108e7366004613c11565b6128ca565b6104bb6108fa3660046140f3565b612905565b61049b61090d3660046140f3565b61291d565b6103c4610920366004613d1f565b6017602090815260009283526040909220815180830184018051928152908401929093019190912091525460ff1681565b6104bb61095f3660046144bb565b612936565b6104bb6109723660046145cc565b612b37565b6104bb610985366004614623565b612c48565b6104bb6109983660046140f3565b612d05565b6000600160e060020a031982167f5a05180f0000000000000000000000000000000000000000000000000000000014806109db57506109db82612dbc565b92915050565b60006109db600080516020614ab183398151915283611cc1565b60066020528160005260406000208181548110610a1757600080fd5b90600052602060002001600091509150508054610a3390614666565b80601f0160208091040260200160405190810160405280929190818152602001828054610a5f90614666565b8015610aac5780601f10610a8157610100808354040283529160200191610aac565b820191906000526020600020905b815481529060010190602001808311610a8f57829003601f168201915b505050505081565b600080516020614a91833981519152610acc81612e23565b8151845114610b255760405160e560020a62461bcd02815260206004820181905260248201527f696e70757473202f206f757470757473206c656e677468206d69736d6174636860448201526064015b60405180910390fd5b610b30868686612e2d565b610b7f5760405160e560020a62461bcd02815260206004820152600e60248201527f696e7075747320696e76616c69640000000000000000000000000000000000006044820152606401610b1c565b610b8a868484612ed0565b610bd95760405160e560020a62461bcd02815260206004820152600f60248201527f6f75747075747320696e76616c696400000000000000000000000000000000006044820152606401610b1c565b60005b8451811015610bf75780610bef816146bd565b915050610bdc565b50505050505050565b60008281526009602052604080822090516060929190610c219085906146d8565b9081526020016040518091039020805480602002602001604051908101604052809291908181526020016000905b82821015610cfb578382906000526020600020018054610c6e90614666565b80601f0160208091040260200160405190810160405280929190818152602001828054610c9a90614666565b8015610ce75780601f10610cbc57610100808354040283529160200191610ce7565b820191906000526020600020905b815481529060010190602001808311610cca57829003601f168201915b505050505081526020019060010190610c4f565b505060008080526009602052604051939450927fec8156718a8372b1db44bb411437d0870f3e3790d4a08526d024ce1b0b668f6b9250610d3d915086906146d8565b9081526020016040518091039020805480602002602001604051908101604052809291908181526020016000905b82821015610e17578382906000526020600020018054610d8a90614666565b80601f0160208091040260200160405190810160405280929190818152602001828054610db690614666565b8015610e035780601f10610dd857610100808354040283529160200191610e03565b820191906000526020600020905b815481529060010190602001808311610de657829003601f168201915b505050505081526020019060010190610d6b565b505050509050600082511115610f3757600081518351610e3791906146f4565b67ffffffffffffffff811115610e4f57610e4f613c2e565b604051908082528060200260200182016040528015610e8257816020015b6060815260200190600190039081610e6d5790505b50905060005b8151811015610f30578251811015610ed657828181518110610eac57610eac61470c565b6020026020010151828281518110610ec657610ec661470c565b6020026020010181905250610f1a565b83835182610ee49190614725565b81518110610ef457610ef461470c565b6020026020010151828281518110610f0e57610f0e61470c565b60200260200101819052505b8194508080610f28906146bd565b915050610e88565b5050610f3b565b8092505b505092915050565b600080516020614ad1833981519152610f5b81612e23565b6000838152600c6020908152604080832087845290915281208054610f7f90614666565b80601f0160208091040260200160405190810160405280929190818152602001828054610fab90614666565b8015610ff85780601f10610fcd57610100808354040283529160200191610ff8565b820191906000526020600020905b815481529060010190602001808311610fdb57829003601f168201915b505060025460405160e260020a633d410c95028152600481018a9052602481018b9052949550600094600160a060020a03909116935063f504325492506044019050602060405180830381865afa158015611057573d6000803e3d6000fd5b505050506040513d601f19601f8201168201806040525081019061107b919061473c565b60135460405160e160020a63146bf08d028152919250600160a060020a0316906328d7e11a906110b390849089908790600401614759565b600060405180830381600087803b1580156110cd57600080fd5b505af11580156110e1573d6000803e3d6000fd5b50506013548951600160a060020a0390911692506398bd75729150839088908b9061110e90600190614725565b8151811061111e5761111e61470c565b60200260200101516040518463ffffffff1660e060020a02815260040161114793929190614759565b600060405180830381600087803b15801561116157600080fd5b505af1158015611175573d6000803e3d6000fd5b5050505060005b87518110156111d4576111c288828151811061119a5761119a61470c565b60200260200101518683815181106111b4576111b461470c565b602002602001015188612b37565b806111cc816146bd565b91505061117c565b5050505050505050565b600080516020614ad18339815191526111f681612e23565b60135460405160e160020a63146bf08d028152600160a060020a03909116906328d7e11a9061122d90879087908790600401614759565b600060405180830381600087803b15801561124757600080fd5b505af11580156111d4573d6000803e3d6000fd5b600080516020614a7183398151915261127381612e23565b5050505050565b600061128581612e23565b61129d600080516020614ab183398151915283612f6b565b5050565b600080516020614a918339815191526112b981612e23565b82518451146112dd5760405160e560020a62461bcd028152600401610b1c90614781565b6112e8848484612f75565b50505050565b60008281526020819052604090206001015461130981612e23565b61131383836130d4565b505050565b6000805b60035481101561136557600381815481106113395761133961470c565b906000526020600020015460001461135357600191505090565b8061135d816146bd565b91505061131c565b5090565b600160a060020a03811633146113ea5760405160e560020a62461bcd02815260206004820152602f60248201527f416363657373436f6e74726f6c3a2063616e206f6e6c792072656e6f756e636560448201527f20726f6c657320666f722073656c6600000000000000000000000000000000006064820152608401610b1c565b61129d82826130f6565b6011818154811061140457600080fd5b906000526020600020016000915090508054610a3390614666565b60606011805480602002602001604051908101604052809291908181526020016000905b828210156114ef57838290600052602060002001805461146290614666565b80601f016020809104026020016040519081016040528092919081815260200182805461148e90614666565b80156114db5780601f106114b0576101008083540402835291602001916114db565b820191906000526020600020905b8154815290600101906020018083116114be57829003601f168201915b505050505081526020019060010190611443565b50505050905090565b600080516020614a9183398151915261151081612e23565b61129d600080516020614ad183398151915283612f6b565b6009602090815260008481526040902083518085018301805192815290830192850192909220915280548290811061155f57600080fd5b9060005260206000200160009250925050508054610a3390614666565b600080516020614ad183398151915261159481612e23565b60025460405160e860020a6260c20502815260048101849052600160a060020a03909116906360c2050090602401600060405180830381600087803b1580156115dc57600080fd5b505af11580156115f0573d6000803e3d6000fd5b505050505050565b6000828152600a6020526040808220905160609291906116199085906146d8565b9081526020016040518091039020805480602002602001604051908101604052809291908181526020016000905b828210156116f357838290600052602060002001805461166690614666565b80601f016020809104026020016040519081016040528092919081815260200182805461169290614666565b80156116df5780601f106116b4576101008083540402835291602001916116df565b820191906000526020600020905b8154815290600101906020018083116116c257829003601f168201915b505050505081526020019060010190611647565b50506000808052600a602052604051939450927f13da86008ba1c6922daee3e07db95305ef49ebced9f5467a0b8613fcc6b343e39250611735915086906146d8565b9081526020016040518091039020805480602002602001604051908101604052809291908181526020016000905b8282101561180f57838290600052602060002001805461178290614666565b80601f01602080910402602001604051908101604052809291908181526020018280546117ae90614666565b80156117fb5780601f106117d0576101008083540402835291602001916117fb565b820191906000526020600020905b8154815290600101906020018083116117de57829003601f168201915b505050505081526020019060010190611763565b505050509050600082511115610f375760008151835161182f91906146f4565b67ffffffffffffffff81111561184757611847613c2e565b60405190808252806020026020018201604052801561187a57816020015b60608152602001906001900390816118655790505b50905060005b8151811015610f305782518110156118ce578281815181106118a4576118a461470c565b60200260200101518282815181106118be576118be61470c565b6020026020010181905250611912565b838351826118dc9190614725565b815181106118ec576118ec61470c565b60200260200101518282815181106119065761190661470c565b60200260200101819052505b8194508080611920906146bd565b915050611880565b600080516020614ad183398151915261194081612e23565b81600160a060020a0316630a75806e6040518163ffffffff1660e060020a0281526004016020604051808303816000875af1158015611983573d6000803e3d6000fd5b505050506040513d601f19601f8201168201806040525081019061131391906147de565b600080516020614ad18339815191526119bf81612e23565b50600090815260046020526040902055565b600d60205281600052604060002081815481106119ed57600080fd5b90600052602060002001600091509150505481565b611a1a600080516020614ab183398151915233611cc1565b80611a385750611a38600080516020614a9183398151915233611cc1565b611a575760405160e560020a62461bcd028152600401610b1c906147f7565b601154611ca0576000600f54600e54611a709190614854565b67ffffffffffffffff811115611a8857611a88613c2e565b604051908082528060200260200182016040528015611ab1578160200160208202803683370190505b50600f54600e546040517f9f6b56490000000000000000000000000000000000000000000000000000000081526004810192909252602482015290915073__XYCoordinates_________________________90639f6b564990604401600060405180830381865af4158015611b2a573d6000803e3d6000fd5b505050506040513d6000823e601f3d908101601f19168201604052611b529190810190614873565b8051611b6691601191602090910190613a8d565b5060005b8151811015611bc0576010548251600160a060020a0390911690839083908110611b9657611b9661470c565b600160a060020a039092166020928302919091019091015280611bb8816146bd565b915050611b6a565b50611c9e816011805480602002602001604051908101604052809291908181526020016000905b82821015611c93578382906000526020600020018054611c0690614666565b80601f0160208091040260200160405190810160405280929190818152602001828054611c3290614666565b8015611c7f5780601f10611c5457610100808354040283529160200191611c7f565b820191906000526020600020905b815481529060010190602001808311611c6257829003601f168201915b505050505081526020019060010190611be7565b505050506000612f75565b505b565b6000828152600160205260408120611cba9083613118565b9392505050565b600091825260208281526040808420600160a060020a0393909316845291905290205460ff1690565b6000611cf581612e23565b506014805473ffffffffffffffffffffffffffffffffffffffff1916600160a060020a0392909216919091179055565b600080516020614ad1833981519152611d3d81612e23565b50600380546001810182556000919091527fc2575a0e9e593c00f959f8c92f12db2869c3395a3b0502d05e2516446f71f85b0155565b600080516020614ad1833981519152611d8b81612e23565b60135460405160e160020a634c5ebab9028152600160a060020a03909116906398bd75729061122d90879087908790600401614759565b600080516020614ad1833981519152611dda81612e23565b6002546040517f9aabe36d000000000000000000000000000000000000000000000000000000008152600160a060020a0385811660048301526024820185905290911690639aabe36d90604401600060405180830381600087803b158015611e4157600080fd5b505af1158015610bf7573d6000803e3d6000fd5b60025460405160e560020a6305e53e5502815260048101859052600160a060020a038481166024830152600092839291169063bca7caa090604401602060405180830381865afa158015611ead573d6000803e3d6000fd5b505050506040513d601f19601f82011682018060405250810190611ed191906147de565b6000868152600c60209081526040808320848452909152812080549293509091611efa90614666565b80601f0160208091040260200160405190810160405280929190818152602001828054611f2690614666565b8015611f735780601f10611f4857610100808354040283529160200191611f73565b820191906000526020600020905b815481529060010190602001808311611f5657829003601f168201915b505050505090506000611f8687836115f8565b805190915080611fdb5760405160e560020a62461bcd02815260206004820152601760248201527f4e6f206578697420706174687320617661696c61626c650000000000000000006044820152606401610b1c565b60008881526008602052604080822090519196508691611ffc9086906146d8565b90815260405190819003602001902054600160a060020a0316905060008288116120265787612029565b60005b9050600084828151811061203f5761203f61470c565b602002602001015190506000600860008d81526020019081526020016000208260405161206c91906146d8565b908152602001604051809103902060009054906101000a9004600160a060020a0316905083600160a060020a0316637caf12808c8e8a6040518463ffffffff1660e060020a0281526004016120c393929190614759565b602060405180830381865afa1580156120e0573d6000803e3d6000fd5b505050506040513d601f19601f82011682018060405250810190612104919061495d565b801561217f575080600160a060020a031663e15b3ad08c8e856040518463ffffffff1660e060020a02815260040161213e93929190614759565b602060405180830381865afa15801561215b573d6000803e3d6000fd5b505050506040513d601f19601f8201168201806040525081019061217f919061495d565b1561227d5783600160a060020a03166328d7e11a8c8e8a6040518463ffffffff1660e060020a0281526004016121b793929190614759565b600060405180830381600087803b1580156121d157600080fd5b505af11580156121e5573d6000803e3d6000fd5b5050505080600160a060020a03166398bd75728c8e856040518463ffffffff1660e060020a02815260040161221c93929190614759565b600060405180830381600087803b15801561223657600080fd5b505af115801561224a573d6000803e3d6000fd5b50505060008d8152600c602090815260408083208c84528252909120845161227793509091850190613ae6565b50600198505b50505050505050509392505050565b600080516020614ad183398151915261129d81612e23565b600080516020614ad18339815191526122bc81612e23565b600082815260046020526040902054156123415760405160e560020a62461bcd02815260206004820152602c60248201527f63616e27742073657420696e697469616c207a6f6e652c2067616d6520616c7260448201527f65616479207374617274656400000000000000000000000000000000000000006064820152608401610b1c565b600082815260076020908152604090912084516112e892860190613ae6565b600080516020614a7183398151915261129d81612e23565b6000612392600080516020614ab183398151915233611cc1565b806123b057506123b0600080516020614a9183398151915233611cc1565b6123cf5760405160e560020a62461bcd028152600401610b1c906147f7565b82600260006101000a815481600160a060020a030219169083600160a060020a0316021790555081600160a060020a0316630a75806e6040518163ffffffff1660e060020a0281526004016020604051808303816000875af1158015612439573d6000803e3d6000fd5b505050506040513d601f19601f82011682018060405250810190611cba91906147de565b600a602090815260008481526040902083518085018301805192815290830192850192909220915280548290811061155f57600080fd5b600061249f81612e23565b506016805473ffffffffffffffffffffffffffffffffffffffff1916600160a060020a0392909216919091179055565b606060066000838152602001908152602001600020805480602002602001604051908101604052809291908181526020016000905b828210156125b057838290600052602060002001805461252390614666565b80601f016020809104026020016040519081016040528092919081815260200182805461254f90614666565b801561259c5780601f106125715761010080835404028352916020019161259c565b820191906000526020600020905b81548152906001019060200180831161257f57829003601f168201915b505050505081526020019060010190612504565b505050509050919050565b60008181526001602052604081206109db90613124565b600080516020614ad18339815191526125ea81612e23565b60008060005b600354811015612659576003818154811061260d5761260d61470c565b906000526020600020015460001461264757600381815481106126325761263261470c565b90600052602060002001549250809150612659565b80612651816146bd565b9150506125f0565b5060008281526004602052604090205461267b576126768261312e565b61269b565b6000828152600460205260409020546001141561269b5761269b826131a2565b60008281526004602052604090205460011015611313576000600382815481106126c7576126c761470c565b600091825260209091200155505050565b6000818152600d602090815260409182902080548351818402810184019094528084526060939283018282801561272e57602002820191906000526020600020905b81548152602001906001019080831161271a575b50505050509050919050565b600061274581612e23565b61129d600080516020614ad1833981519152836112ee565b60008281526020819052604090206001015461277881612e23565b61131383836130f6565b600c60209081526000928352604080842090915290825290208054610a3390614666565b60006127c0600080516020614ab183398151915233611cc1565b806127de57506127de600080516020614a9183398151915233611cc1565b6127fd5760405160e560020a62461bcd028152600401610b1c906147f7565b81518351146128215760405160e560020a62461bcd028152600401610b1c90614781565b82511561283357612833838383612f75565b84600260006101000a815481600160a060020a030219169083600160a060020a0316021790555083600160a060020a0316630a75806e6040518163ffffffff1660e060020a0281526004016020604051808303816000875af115801561289d573d6000803e3d6000fd5b505050506040513d601f19601f820116820180604052508101906128c191906147de565b95945050505050565b60006128d581612e23565b506015805473ffffffffffffffffffffffffffffffffffffffff1916600160a060020a0392909216919091179055565b600080516020614a91833981519152611d3d81612e23565b60076020526000908152604090208054610a3390614666565b600080516020614a9183398151915261294e81612e23565b612958838361352f565b6129a75760405160e560020a62461bcd02815260206004820152601a60248201527f6e6f7420616c6c207a6f6e6520696e64656365732076616c69640000000000006044820152606401610b1c565b60005b82518110156112e8576000848152600a6020526040902083518490839081106129d5576129d561470c565b60200260200101516000600281106129ef576129ef61470c565b6020020151604051612a0191906146d8565b9081526020016040518091039020838281518110612a2157612a2161470c565b6020026020010151600160028110612a3b57612a3b61470c565b6020908102919091015182546001810184556000938452928290208151612a6b9491909101929190910190613ae6565b5060008481526009602052604090208351849083908110612a8e57612a8e61470c565b6020026020010151600160028110612aa857612aa861470c565b6020020151604051612aba91906146d8565b9081526020016040518091039020838281518110612ada57612ada61470c565b6020026020010151600060028110612af457612af461470c565b6020908102919091015182546001810184556000938452928290208151612b249491909101929190910190613ae6565b5080612b2f816146bd565b9150506129aa565b600080516020614ad1833981519152612b4f81612e23565b600082815260176020526040908190209051612b6c9086906146d8565b9081526040519081900360200190205460ff166112e8576013546040517fd4939609000000000000000000000000000000000000000000000000000000008152600160a060020a039091169063d493960990612bd09086908690899060040161497f565b600060405180830381600087803b158015612bea57600080fd5b505af1158015612bfe573d6000803e3d6000fd5b50505060008381526017602052604090819020905160019250612c229087906146d8565b908152604051908190036020019020805491151560ff1990921691909117905550505050565b600080516020614a71833981519152612c6081612e23565b60025460405160e560020a6305e53e5502815260048101869052600160a060020a038581166024830152600092169063bca7caa090604401602060405180830381865afa158015612cb5573d6000803e3d6000fd5b505050506040513d601f19601f82011682018060405250810190612cd991906147de565b6000868152600c60209081526040808320848452825290912085519293506115f0929091860190613ae6565b600080516020614ad1833981519152612d1d81612e23565b50601255565b612d2d8282611cc1565b61129d57600082815260208181526040808320600160a060020a03851684529091529020805460ff19166001179055612d633390565b600160a060020a031681600160a060020a0316837f2f8788117e7eff1d82e926ec794901d17c78024a50270940304540a733656f0d60405160405180910390a45050565b6000611cba83600160a060020a03841661363e565b6000600160e060020a031982167f7965db0b0000000000000000000000000000000000000000000000000000000014806109db57507f01ffc9a700000000000000000000000000000000000000000000000000000000600160e060020a03198316146109db565b611c9e813361368d565b600160005b8251811015612ec857828181518110612e4d57612e4d61470c565b60200260200101516001612e6191906146f4565b60008681526009602052604090208551869084908110612e8357612e8361470c565b6020026020010151604051612e9891906146d8565b9081526040519081900360200190205410612eb65760009150612ec8565b80612ec0816146bd565b915050612e32565b509392505050565b600160005b8251811015612ec857828181518110612ef057612ef061470c565b60200260200101516001612f0491906146f4565b6000868152600a602052604090208551869084908110612f2657612f2661470c565b6020026020010151604051612f3b91906146d8565b9081526040519081900360200190205410612f595760009150612ec8565b80612f63816146bd565b915050612ed5565b61129d82826130d4565b60005b83518110156112e85760008281526006602052604090208351849083908110612fa357612fa361470c565b60209081029190910181015182546001810184556000938452928290208151612fd59491909101929190910190613ae6565b50838181518110612fe857612fe861470c565b6020026020010151600860008481526020019081526020016000208483815181106130155761301561470c565b602002602001015160405161302a91906146d8565b908152602001604051809103902060006101000a815481600160a060020a030219169083600160a060020a0316021790555061308d600080516020614a718339815191528583815181106130805761308061470c565b6020026020010151611cc1565b6130c2576130c2600080516020614a718339815191528583815181106130b5576130b561470c565b6020026020010151612f6b565b806130cc816146bd565b915050612f78565b6130de8282612d23565b60008281526001602052604090206113139082612da7565b61310082826136f4565b60008281526001602052604090206113139082613759565b6000611cba838361376e565b60006109db825490565b60025460405160e860020a6260c20502815260048101839052600160a060020a03909116906360c2050090602401600060405180830381600087803b15801561317657600080fd5b505af115801561318a573d6000803e3d6000fd5b50505060009182525060046020526040902060019055565b600081815260076020526040812080546131bb90614666565b151590506131f157600082815260066020526040812080549091906131e2576131e261470c565b90600052602060002001613200565b60008281526007602052604090205b805461320b90614666565b80601f016020809104026020016040519081016040528092919081815260200182805461323790614666565b80156132845780601f1061325957610100808354040283529160200191613284565b820191906000526020600020905b81548152906001019060200180831161326757829003601f168201915b50505050509050600060086000848152602001908152602001600020826040516132ae91906146d8565b90815260405190819003602001902054600160a060020a031690508060005b6002546040517fb77ff41100000000000000000000000000000000000000000000000000000000815260048101879052600160a060020a039091169063b77ff41190602401602060405180830381865afa15801561332f573d6000803e3d6000fd5b505050506040513d601f19601f8201168201806040525081019061335391906147de565b8110156135175760006133678260016146f4565b60025460405160e260020a633d410c950281526004810189905260248101839052919250600091600160a060020a039091169063f504325490604401602060405180830381865afa1580156133c0573d6000803e3d6000fd5b505050506040513d601f19601f820116820180604052508101906133e4919061473c565b6040517fe15b3ad0000000000000000000000000000000000000000000000000000000008152909150600160a060020a0385169063e15b3ad0906134309084908b908b90600401614759565b602060405180830381865afa15801561344d573d6000803e3d6000fd5b505050506040513d601f19601f82011682018060405250810190613471919061495d565b156134e05760405160e160020a634c5ebab9028152600160a060020a038516906398bd7572906134a99084908b908b90600401614759565b600060405180830381600087803b1580156134c357600080fd5b505af11580156134d7573d6000803e3d6000fd5b50505050613502565b6000878152600d60209081526040822080546001810182559083529120018290555b5050808061350f906146bd565b9150506132cd565b50505060009182525060046020526040902060029055565b6000805b82518110156136375760008481526008602052604081208451600194508590849081106135625761356261470c565b602002602001015160006002811061357c5761357c61470c565b602002015160405161358e91906146d8565b90815260405190819003602001902054600160a060020a031614806136175750600084815260086020526040812084518590849081106135d0576135d061470c565b60200260200101516001600281106135ea576135ea61470c565b60200201516040516135fc91906146d8565b90815260405190819003602001902054600160a060020a0316145b156136255760009150613637565b8061362f816146bd565b915050613533565b5092915050565b6000818152600183016020526040812054613685575081546001818101845560008481526020808220909301849055845484825282860190935260409020919091556109db565b5060006109db565b6136978282611cc1565b61129d576136af81600160a060020a03166014613798565b6136ba836020613798565b6040516020016136cb9291906149bf565b60408051601f198184030181529082905260e560020a62461bcd028252610b1c91600401613de0565b6136fe8282611cc1565b1561129d57600082815260208181526040808320600160a060020a0385168085529252808320805460ff1916905551339285917ff6391f5c32d9c69d2a47ea670b442974b53935d1edc7fd64eb21e047a839171b9190a45050565b6000611cba83600160a060020a03841661399a565b60008260000182815481106137855761378561470c565b9060005260206000200154905092915050565b606060006137a7836002614854565b6137b29060026146f4565b67ffffffffffffffff8111156137ca576137ca613c2e565b6040519080825280601f01601f1916602001820160405280156137f4576020820181803683370190505b5090507f30000000000000000000000000000000000000000000000000000000000000008160008151811061382b5761382b61470c565b6020010190600160f860020a031916908160001a9053507f7800000000000000000000000000000000000000000000000000000000000000816001815181106138765761387661470c565b6020010190600160f860020a031916908160001a905350600061389a846002614854565b6138a59060016146f4565b90505b6001811115613948577f303132333435363738396162636465660000000000000000000000000000000085600f16601081106138e6576138e661470c565b1a7f01000000000000000000000000000000000000000000000000000000000000000282828151811061391b5761391b61470c565b6020010190600160f860020a031916908160001a90535060109094049361394181614a40565b90506138a8565b508315611cba5760405160e560020a62461bcd02815260206004820181905260248201527f537472696e67733a20686578206c656e67746820696e73756666696369656e746044820152606401610b1c565b60008181526001830160205260408120548015613a835760006139be600183614725565b85549091506000906139d290600190614725565b9050818114613a375760008660000182815481106139f2576139f261470c565b9060005260206000200154905080876000018481548110613a1557613a1561470c565b6000918252602080832090910192909255918252600188019052604090208390555b8554869080613a4857613a48614a57565b6001900381819060005260206000200160009055905585600101600086815260200190815260200160002060009055600193505050506109db565b60009150506109db565b828054828255906000526020600020908101928215613ada579160200282015b82811115613ada5782518051613aca918491602090910190613ae6565b5091602001919060010190613aad565b50611365929150613b66565b828054613af290614666565b90600052602060002090601f016020900481019282613b145760008555613b5a565b82601f10613b2d57805160ff1916838001178555613b5a565b82800160010185558215613b5a579182015b82811115613b5a578251825591602001919060010190613b3f565b50611365929150613b83565b80821115611365576000613b7a8282613b98565b50600101613b66565b5b808211156113655760008155600101613b84565b508054613ba490614666565b6000825580601f10613bb4575050565b601f016020900490600052602060002090810190611c9e9190613b83565b600060208284031215613be457600080fd5b8135600160e060020a031981168114611cba57600080fd5b600160a060020a0381168114611c9e57600080fd5b600060208284031215613c2357600080fd5b8135611cba81613bfc565b60e060020a634e487b7102600052604160045260246000fd5b6040805190810167ffffffffffffffff81118282101715613c6a57613c6a613c2e565b60405290565b604051601f8201601f1916810167ffffffffffffffff81118282101715613c9957613c99613c2e565b604052919050565b600067ffffffffffffffff821115613cbb57613cbb613c2e565b50601f01601f191660200190565b600082601f830112613cda57600080fd5b8135613ced613ce882613ca1565b613c70565b818152846020838601011115613d0257600080fd5b816020850160208301376000918101602001919091529392505050565b60008060408385031215613d3257600080fd5b82359150602083013567ffffffffffffffff811115613d5057600080fd5b613d5c85828601613cc9565b9150509250929050565b60008060408385031215613d7957600080fd5b50508035926020909101359150565b60005b83811015613da3578181015183820152602001613d8b565b838111156112e85750506000910152565b60008151808452613dcc816020860160208601613d88565b601f01601f19169290920160200192915050565b602081526000611cba6020830184613db4565b600067ffffffffffffffff821115613e0d57613e0d613c2e565b5060209081020190565b600082601f830112613e2857600080fd5b81356020613e38613ce883613df3565b82815291810284018101918181019086841115613e5457600080fd5b8286015b84811015613e9457803567ffffffffffffffff811115613e785760008081fd5b613e868986838b0101613cc9565b845250918301918301613e58565b509695505050505050565b600082601f830112613eb057600080fd5b81356020613ec0613ce883613df3565b82815291810284018101918181019086841115613edc57600080fd5b8286015b84811015613e945780358352918301918301613ee0565b600080600080600060a08688031215613f0f57600080fd5b85359450602086013567ffffffffffffffff80821115613f2e57600080fd5b613f3a89838a01613e17565b95506040880135915080821115613f5057600080fd5b613f5c89838a01613e9f565b94506060880135915080821115613f7257600080fd5b613f7e89838a01613e17565b93506080880135915080821115613f9457600080fd5b50613fa188828901613e9f565b9150509295509295909350565b600060208083018184528085518083526040860191506040848202870101925083870160005b8281101561400257603f19888603018452613ff0858351613db4565b94509285019290850190600101613fd4565b5092979650505050505050565b8035600c811061401e57600080fd5b919050565b6000806000806080858703121561403957600080fd5b843567ffffffffffffffff8082111561405157600080fd5b61405d88838901613e17565b9550602091508187013594506040870135935060608701358181111561408257600080fd5b87019050601f8101881361409557600080fd5b80356140a3613ce882613df3565b8181529083028201830190838101908a8311156140bf57600080fd5b928401925b828410156140e4576140d58461400f565b825292840192908401906140c4565b979a9699509497505050505050565b60006020828403121561410557600080fd5b5035919050565b60008060006060848603121561412157600080fd5b833561412c81613bfc565b925060208401359150604084013567ffffffffffffffff81111561414f57600080fd5b61415b86828701613cc9565b9150509250925092565b600082601f83011261417657600080fd5b81356020614186613ce883613df3565b828152918102840181019181810190868411156141a257600080fd5b8286015b84811015613e945780356141b981613bfc565b83529183019183016141a6565b600080600080608085870312156141dc57600080fd5b84359350602085013567ffffffffffffffff808211156141fb57600080fd5b61420788838901614165565b9450604087013591508082111561421d57600080fd5b5061422a87828801613e9f565b949793965093946060013593505050565b60008060006060848603121561425057600080fd5b833567ffffffffffffffff8082111561426857600080fd5b61427487838801614165565b9450602086013591508082111561428a57600080fd5b5061429786828701613e17565b925050604084013590509250925092565b600080604083850312156142bb57600080fd5b8235915060208301356142cd81613bfc565b809150509250929050565b6000806000606084860312156142ed57600080fd5b83359250602084013567ffffffffffffffff81111561430b57600080fd5b61429786828701613cc9565b6000806040838503121561432a57600080fd5b823561433581613bfc565b946020939093013593505050565b60008060006060848603121561435857600080fd5b83359250602084013561436a81613bfc565b929592945050506040919091013590565b6000806040838503121561438e57600080fd5b823567ffffffffffffffff8111156143a557600080fd5b6143b185828601613cc9565b95602094909401359450505050565b600080604083850312156143d357600080fd5b82356143de81613bfc565b915060208301356142cd81613bfc565b6020808252825182820181905260009190848201906040850190845b818110156144265783518352928401929184019160010161440a565b50909695505050505050565b6000806000806080858703121561444857600080fd5b843561445381613bfc565b9350602085013561446381613bfc565b9250604085013567ffffffffffffffff8082111561448057600080fd5b61448c88838901614165565b935060608701359150808211156144a257600080fd5b506144af87828801613e17565b91505092959194509250565b600080604083850312156144ce57600080fd5b8235915060208084013567ffffffffffffffff808211156144ee57600080fd5b818601915086601f83011261450257600080fd5b8135614510613ce882613df3565b8181529084028301840190848101908983111561452c57600080fd5b8585015b838110156145bb57848135111561454657600080fd5b803586018b603f82011261455957600080fd5b614561613c47565b808d60608401111561457257600080fd5b8983015b606084018110156145ab57888135111561458f57600080fd5b61459e8f8c8335870101613cc9565b8352918a01918a01614576565b5085525050918601918601614530565b508096505050505050509250929050565b6000806000606084860312156145e157600080fd5b833567ffffffffffffffff8111156145f857600080fd5b61460486828701613cc9565b9350506146136020850161400f565b9150604084013590509250925092565b60008060006060848603121561463857600080fd5b83359250602084013561464a81613bfc565b9150604084013567ffffffffffffffff81111561414f57600080fd5b60028104600182168061467a57607f821691505b6020821081141561469e5760e060020a634e487b7102600052602260045260246000fd5b50919050565b60e060020a634e487b7102600052601160045260246000fd5b60006000198214156146d1576146d16146a4565b5060010190565b600082516146ea818460208701613d88565b9190910192915050565b60008219821115614707576147076146a4565b500190565b60e060020a634e487b7102600052603260045260246000fd5b600082821015614737576147376146a4565b500390565b60006020828403121561474e57600080fd5b8151611cba81613bfc565b600160a060020a03841681528260208201526060604082015260006128c16060830184613db4565b60208082526025908201527f616464726573736573202620616c696173657320646966666572656e74206c6560408201527f6e67746873000000000000000000000000000000000000000000000000000000606082015260800190565b6000602082840312156147f057600080fd5b5051919050565b60208082526024908201527f47616d65204d6173746572206f7220466163746f727920726f6c65207265717560408201527f6972656400000000000000000000000000000000000000000000000000000000606082015260800190565b600081600019048311821515161561486e5761486e6146a4565b500290565b6000602080838503121561488657600080fd5b825167ffffffffffffffff8082111561489e57600080fd5b818501915085601f8301126148b257600080fd5b81516148c0613ce882613df3565b818152908402830184019084810190888311156148dc57600080fd5b8585015b83811015614950578051858111156148f85760008081fd5b8601603f81018b1361490a5760008081fd5b87810151604061491c613ce883613ca1565b8281528d828486010111156149315760008081fd5b614940838c8301848701613d88565b86525050509186019186016148e0565b5098975050505050505050565b60006020828403121561496f57600080fd5b81518015158114611cba57600080fd5b6000600c85106149a25760e060020a634e487b7102600052602160045260246000fd5b848252836020830152606060408301526128c16060830184613db4565b7f416363657373436f6e74726f6c3a206163636f756e74200000000000000000008152600083516149f7816017850160208801613d88565b7f206973206d697373696e6720726f6c65200000000000000000000000000000006017918401918201528351614a34816028840160208801613d88565b01602801949350505050565b600081614a4f57614a4f6146a4565b506000190190565b60e060020a634e487b7102600052603160045260246000fdfe72b06b67826def9fabb513b23f7e5eb74f7ece26d25dad4006546ecf4a13763d1d93c87416ca7b54f0fb8323167b72760e8e2ec93d48660953897a150f97a8b4dfbefbf47cfe66b701d8cfdbce1de81c821590819cb07e71cb01b6602fb0ee2780e2196015fc06a9d891759f8e4f51eb314ef5e9ea068528a8ed0063b87759f0a264697066735822122000d2c097b00a08c7723503bab06bf0e59d7a6f9ba15cad473d195c4557bb3f7164736f6c634300080b0033",
  "immutableReferences": {},
  "source": "// SPDX-License-Identifier: GPL-3.0\npragma solidity >=0.7.0 <0.9.0;\n\nimport \"@luckymachines/game-core/contracts/src/v0.0/custom_boards/HexGrid.sol\";\nimport \"./HexplorationZone.sol\";\n\ncontract HexplorationBoard is HexGrid {\n    // This role is a hybrid controller, assumes on chain verification of moves before submission\n\n    uint256 private _randomness;\n    HexplorationZone internal HEX_ZONE;\n    address public characterCard;\n    address public tokenInventory;\n    address public gameplayQueue;\n    // game ID => zone alias returns bool\n    mapping(uint256 => mapping(string => bool)) public zoneEnabled;\n\n    constructor(\n        address adminAddress,\n        uint256 gridWidth,\n        uint256 gridHeight,\n        address zoneAddress\n    ) HexGrid(adminAddress, gridWidth, gridHeight, zoneAddress) {\n        HEX_ZONE = HexplorationZone(zoneAddress);\n    }\n\n    function hexZoneAddress() public view returns (address) {\n        return address(HEX_ZONE);\n    }\n\n    // VERIFIED CONTROLLER functions\n    // We can assume these have been pre-verified\n    function setCharacterCard(address characterCardAddress)\n        public\n        onlyRole(DEFAULT_ADMIN_ROLE)\n    {\n        characterCard = characterCardAddress;\n    }\n\n    function setTokenInventory(address tokenInventoryAddress)\n        public\n        onlyRole(DEFAULT_ADMIN_ROLE)\n    {\n        tokenInventory = tokenInventoryAddress;\n    }\n\n    function setGameplayQueue(address gameplayQueueAddress)\n        public\n        onlyRole(DEFAULT_ADMIN_ROLE)\n    {\n        gameplayQueue = gameplayQueueAddress;\n    }\n\n    function registerPlayer(address playerAddress, uint256 gameID)\n        public\n        onlyRole(VERIFIED_CONTROLLER_ROLE)\n    {\n        PLAYER_REGISTRY.registerPlayer(playerAddress, gameID);\n    }\n\n    function lockRegistration(uint256 gameID)\n        public\n        onlyRole(VERIFIED_CONTROLLER_ROLE)\n    {\n        PLAYER_REGISTRY.lockRegistration(gameID);\n    }\n\n    function enterPlayer(\n        address playerAddress,\n        uint256 gameID,\n        string memory zone\n    ) external onlyRole(VERIFIED_CONTROLLER_ROLE) {\n        HEX_ZONE.enterPlayer(playerAddress, gameID, zone);\n    }\n\n    function exitPlayer(\n        address playerAddress,\n        uint256 gameID,\n        string memory zone\n    ) external onlyRole(VERIFIED_CONTROLLER_ROLE) {\n        HEX_ZONE.exitPlayer(playerAddress, gameID, zone);\n    }\n\n    function requestNewGame(address gameRegistryAddress)\n        external\n        onlyRole(VERIFIED_CONTROLLER_ROLE)\n    {\n        GameRegistry(gameRegistryAddress).registerGame();\n    }\n\n    function setGameState(uint256 gs, uint256 gameID)\n        external\n        onlyRole(VERIFIED_CONTROLLER_ROLE)\n    {\n        // 0 start\n        // 1 inititalizing\n        // 2 initialized\n        gameState[gameID] = gs;\n    }\n\n    function setRandomness(uint256 randomness)\n        external\n        onlyRole(VERIFIED_CONTROLLER_ROLE)\n    {\n        _randomness = randomness;\n    }\n\n    function start(uint256 gameID) public onlyRole(VERIFIED_CONTROLLER_ROLE) {\n        _gamesNeedUpdates.push(gameID);\n    }\n\n    function enableZone(\n        string memory zoneAlias,\n        HexplorationZone.Tile tile,\n        uint256 gameID\n    ) public onlyRole(VERIFIED_CONTROLLER_ROLE) {\n        if (!zoneEnabled[gameID][zoneAlias]) {\n            HEX_ZONE.setTile(tile, gameID, zoneAlias);\n            zoneEnabled[gameID][zoneAlias] = true;\n        }\n    }\n\n    // pass path and what tiles should be\n    // pass current zone as first argument\n    function moveThroughPath(\n        string[] memory zonePath,\n        uint256 playerID,\n        uint256 gameID,\n        HexplorationZone.Tile[] memory tiles\n    ) external onlyRole(VERIFIED_CONTROLLER_ROLE) {\n        string memory currentZone = currentPlayZone[gameID][playerID];\n        address playerAddress = PLAYER_REGISTRY.playerAddress(gameID, playerID);\n        HEX_ZONE.exitPlayer(playerAddress, gameID, currentZone);\n        HEX_ZONE.enterPlayer(\n            playerAddress,\n            gameID,\n            zonePath[zonePath.length - 1]\n        );\n        for (uint256 i = 0; i < zonePath.length; i++) {\n            enableZone(zonePath[i], tiles[i], gameID);\n        }\n    }\n}\n",
  "sourcePath": "/Users/maxmeier/Developer/Lucky Machines/hexploration/contracts/HexplorationBoard.sol",
  "compiler": {
    "name": "solc",
    "version": "0.8.11+commit.d7f03943.Emscripten.clang"
  },
  "schemaVersion": "3.4.4",
  "updatedAt": "2022-05-25T19:58:02.530Z",
  "networkType": "ethereum",
  "devdoc": {
    "kind": "dev",
    "methods": {
      "getRoleAdmin(bytes32)": {
        "details": "Returns the admin role that controls `role`. See {grantRole} and {revokeRole}. To change a role's admin, use {_setRoleAdmin}."
      },
      "getRoleMember(bytes32,uint256)": {
        "details": "Returns one of the accounts that have `role`. `index` must be a value between 0 and {getRoleMemberCount}, non-inclusive. Role bearers are not sorted in any particular way, and their ordering may change at any point. WARNING: When using {getRoleMember} and {getRoleMemberCount}, make sure you perform all queries on the same block. See the following https://forum.openzeppelin.com/t/iterating-over-elements-on-enumerableset-in-openzeppelin-contracts/2296[forum post] for more information."
      },
      "getRoleMemberCount(bytes32)": {
        "details": "Returns the number of accounts that have `role`. Can be used together with {getRoleMember} to enumerate all bearers of a role."
      },
      "grantRole(bytes32,address)": {
        "details": "Grants `role` to `account`. If `account` had not been already granted `role`, emits a {RoleGranted} event. Requirements: - the caller must have ``role``'s admin role."
      },
      "hasRole(bytes32,address)": {
        "details": "Returns `true` if `account` has been granted `role`."
      },
      "renounceRole(bytes32,address)": {
        "details": "Revokes `role` from the calling account. Roles are often managed via {grantRole} and {revokeRole}: this function's purpose is to provide a mechanism for accounts to lose their privileges if they are compromised (such as when a trusted device is misplaced). If the calling account had been revoked `role`, emits a {RoleRevoked} event. Requirements: - the caller must be `account`."
      },
      "revokeRole(bytes32,address)": {
        "details": "Revokes `role` from `account`. If `account` had been granted `role`, emits a {RoleRevoked} event. Requirements: - the caller must have ``role``'s admin role."
      },
      "supportsInterface(bytes4)": {
        "details": "See {IERC165-supportsInterface}."
      }
    },
    "version": 1
  },
  "userdoc": {
    "kind": "user",
    "methods": {},
    "version": 1
  }
}