{
  "contractName": "HexplorationGameplay",
  "abi": [
    {
      "inputs": [
        {
          "internalType": "address",
          "name": "_gameSummaryAddress",
          "type": "address"
        },
        {
          "internalType": "address",
          "name": "gameBoardAddress",
          "type": "address"
        }
      ],
      "stateMutability": "nonpayable",
      "type": "constructor"
    },
    {
      "anonymous": false,
      "inputs": [
        {
          "indexed": true,
          "internalType": "bytes32",
          "name": "role",
          "type": "bytes32"
        },
        {
          "indexed": true,
          "internalType": "bytes32",
          "name": "previousAdminRole",
          "type": "bytes32"
        },
        {
          "indexed": true,
          "internalType": "bytes32",
          "name": "newAdminRole",
          "type": "bytes32"
        }
      ],
      "name": "RoleAdminChanged",
      "type": "event"
    },
    {
      "anonymous": false,
      "inputs": [
        {
          "indexed": true,
          "internalType": "bytes32",
          "name": "role",
          "type": "bytes32"
        },
        {
          "indexed": true,
          "internalType": "address",
          "name": "account",
          "type": "address"
        },
        {
          "indexed": true,
          "internalType": "address",
          "name": "sender",
          "type": "address"
        }
      ],
      "name": "RoleGranted",
      "type": "event"
    },
    {
      "anonymous": false,
      "inputs": [
        {
          "indexed": true,
          "internalType": "bytes32",
          "name": "role",
          "type": "bytes32"
        },
        {
          "indexed": true,
          "internalType": "address",
          "name": "account",
          "type": "address"
        },
        {
          "indexed": true,
          "internalType": "address",
          "name": "sender",
          "type": "address"
        }
      ],
      "name": "RoleRevoked",
      "type": "event"
    },
    {
      "inputs": [],
      "name": "DEFAULT_ADMIN_ROLE",
      "outputs": [
        {
          "internalType": "bytes32",
          "name": "",
          "type": "bytes32"
        }
      ],
      "stateMutability": "view",
      "type": "function"
    },
    {
      "inputs": [],
      "name": "VERIFIED_CONTROLLER_ROLE",
      "outputs": [
        {
          "internalType": "bytes32",
          "name": "",
          "type": "bytes32"
        }
      ],
      "stateMutability": "view",
      "type": "function"
    },
    {
      "inputs": [
        {
          "internalType": "bytes32",
          "name": "role",
          "type": "bytes32"
        }
      ],
      "name": "getRoleAdmin",
      "outputs": [
        {
          "internalType": "bytes32",
          "name": "",
          "type": "bytes32"
        }
      ],
      "stateMutability": "view",
      "type": "function"
    },
    {
      "inputs": [
        {
          "internalType": "bytes32",
          "name": "role",
          "type": "bytes32"
        },
        {
          "internalType": "uint256",
          "name": "index",
          "type": "uint256"
        }
      ],
      "name": "getRoleMember",
      "outputs": [
        {
          "internalType": "address",
          "name": "",
          "type": "address"
        }
      ],
      "stateMutability": "view",
      "type": "function"
    },
    {
      "inputs": [
        {
          "internalType": "bytes32",
          "name": "role",
          "type": "bytes32"
        }
      ],
      "name": "getRoleMemberCount",
      "outputs": [
        {
          "internalType": "uint256",
          "name": "",
          "type": "uint256"
        }
      ],
      "stateMutability": "view",
      "type": "function"
    },
    {
      "inputs": [
        {
          "internalType": "bytes32",
          "name": "role",
          "type": "bytes32"
        },
        {
          "internalType": "address",
          "name": "account",
          "type": "address"
        }
      ],
      "name": "grantRole",
      "outputs": [],
      "stateMutability": "nonpayable",
      "type": "function"
    },
    {
      "inputs": [
        {
          "internalType": "bytes32",
          "name": "role",
          "type": "bytes32"
        },
        {
          "internalType": "address",
          "name": "account",
          "type": "address"
        }
      ],
      "name": "hasRole",
      "outputs": [
        {
          "internalType": "bool",
          "name": "",
          "type": "bool"
        }
      ],
      "stateMutability": "view",
      "type": "function"
    },
    {
      "inputs": [
        {
          "internalType": "bytes32",
          "name": "role",
          "type": "bytes32"
        },
        {
          "internalType": "address",
          "name": "account",
          "type": "address"
        }
      ],
      "name": "renounceRole",
      "outputs": [],
      "stateMutability": "nonpayable",
      "type": "function"
    },
    {
      "inputs": [
        {
          "internalType": "bytes32",
          "name": "role",
          "type": "bytes32"
        },
        {
          "internalType": "address",
          "name": "account",
          "type": "address"
        }
      ],
      "name": "revokeRole",
      "outputs": [],
      "stateMutability": "nonpayable",
      "type": "function"
    },
    {
      "inputs": [
        {
          "internalType": "bytes4",
          "name": "interfaceId",
          "type": "bytes4"
        }
      ],
      "name": "supportsInterface",
      "outputs": [
        {
          "internalType": "bool",
          "name": "",
          "type": "bool"
        }
      ],
      "stateMutability": "view",
      "type": "function"
    },
    {
      "inputs": [
        {
          "internalType": "address",
          "name": "vcAddress",
          "type": "address"
        }
      ],
      "name": "addVerifiedController",
      "outputs": [],
      "stateMutability": "nonpayable",
      "type": "function"
    },
    {
      "inputs": [
        {
          "internalType": "address",
          "name": "queueContract",
          "type": "address"
        }
      ],
      "name": "setQueue",
      "outputs": [],
      "stateMutability": "nonpayable",
      "type": "function"
    },
    {
      "inputs": [
        {
          "internalType": "address",
          "name": "gsuAddress",
          "type": "address"
        }
      ],
      "name": "setGameStateUpdate",
      "outputs": [],
      "stateMutability": "nonpayable",
      "type": "function"
    },
    {
      "inputs": [
        {
          "internalType": "uint256",
          "name": "queueID",
          "type": "uint256"
        }
      ],
      "name": "shouldContinueProcessing",
      "outputs": [
        {
          "internalType": "bool",
          "name": "",
          "type": "bool"
        },
        {
          "internalType": "uint256[]",
          "name": "",
          "type": "uint256[]"
        },
        {
          "internalType": "string[]",
          "name": "",
          "type": "string[]"
        }
      ],
      "stateMutability": "view",
      "type": "function"
    },
    {
      "inputs": [
        {
          "internalType": "uint256",
          "name": "queueID",
          "type": "uint256"
        },
        {
          "internalType": "uint256[]",
          "name": "intUpdates",
          "type": "uint256[]"
        },
        {
          "internalType": "string[]",
          "name": "stringUpdates",
          "type": "string[]"
        }
      ],
      "name": "postProcessedGameState",
      "outputs": [],
      "stateMutability": "nonpayable",
      "type": "function"
    },
    {
      "inputs": [
        {
          "internalType": "uint256",
          "name": "queueID",
          "type": "uint256"
        },
        {
          "internalType": "uint256",
          "name": "playerID",
          "type": "uint256"
        }
      ],
      "name": "dig",
      "outputs": [
        {
          "internalType": "string",
          "name": "cardType",
          "type": "string"
        }
      ],
      "stateMutability": "view",
      "type": "function"
    }
  ],
  "bytecode": "0x60806040523480156200001157600080fd5b50604051620046fa380380620046fa833981016040819052620000349162000270565b6200005c60006200004d64010000000062000091810204565b64010000000062000095810204565b60048054600160a060020a03928316600160a060020a03199182161790915560058054939092169216919091179055620002a8565b3390565b620000aa8282640100000000620000ae810204565b5050565b620000c8828264010000000062000932620000f582021704565b6000828152600160205260409020620000f09082640100000000620009b66200019182021704565b505050565b6200010a8282640100000000620001ba810204565b620000aa57600082815260208181526040808320600160a060020a03851684529091529020805460ff191660011790556200014d64010000000062000091810204565b600160a060020a031681600160a060020a0316837f2f8788117e7eff1d82e926ec794901d17c78024a50270940304540a733656f0d60405160405180910390a45050565b6000620001b183600160a060020a038416640100000000620001e3810204565b90505b92915050565b600091825260208281526040808420600160a060020a0393909316845291905290205460ff1690565b6000620001fa83836401000000006200023b810204565b6200023257508154600181810184556000848152602080822090930184905584548482528286019093526040902091909155620001b4565b506000620001b4565b60009081526001919091016020526040902054151590565b8051600160a060020a03811681146200026b57600080fd5b919050565b600080604083850312156200028457600080fd5b6200028f8362000253565b91506200029f6020840162000253565b90509250929050565b61444280620002b86000396000f3fe608060405234801561001057600080fd5b50600436106100e45760003560e060020a90048063a217fddf1161008b578063a217fddf146101e0578063a605e7ae146101e8578063c9346832146101fb578063ca15c8731461021d578063d4f5b15214610230578063d547741f14610243578063f3ee7e2c14610256578063f83badd71461026957600080fd5b806301ffc9a7146100e95780631c834a7f14610111578063248a9ca314610134578063293dff3e146101575780632f2ff15d1461017a57806336568abe1461018f5780639010d07c146101a257806391d14854146101cd575b600080fd5b6100fc6100f7366004613bb4565b61027c565b60405190151581526020015b60405180910390f35b6101266000805160206143ed83398151915281565b604051908152602001610108565b610126610142366004613bde565b60009081526020819052604090206001015490565b61016d610165366004613bf7565b606092915050565b6040516101089190613c75565b61018d610188366004613c9d565b6102c0565b005b61018d61019d366004613c9d565b6102ea565b6101b56101b0366004613bf7565b61037e565b604051600160a060020a039091168152602001610108565b6100fc6101db366004613c9d565b61039d565b610126600081565b61018d6101f6366004613ccd565b6103c6565b61020e610209366004613bde565b610401565b60405161010893929190613d76565b61012661022b366004613bde565b610575565b61018d61023e366004613ccd565b61058c565b61018d610251366004613c9d565b6105af565b61018d610264366004613ccd565b6105d4565b61018d610277366004613f0f565b61061f565b6000600160e060020a031982167f5a05180f0000000000000000000000000000000000000000000000000000000014806102ba57506102ba826109cb565b92915050565b6000828152602081905260409020600101546102db81610a32565b6102e58383610a3f565b505050565b600160a060020a03811633146103705760405160e560020a62461bcd02815260206004820152602f60248201527f416363657373436f6e74726f6c3a2063616e206f6e6c792072656e6f756e636560448201527f20726f6c657320666f722073656c66000000000000000000000000000000000060648201526084015b60405180910390fd5b61037a8282610a61565b5050565b60008281526001602052604081206103969083610a83565b9392505050565b600091825260208281526040808420600160a060020a0393909316845291905290205460ff1690565b60006103d181610a32565b506003805473ffffffffffffffffffffffffffffffffffffffff1916600160a060020a0392909216919091179055565b6000606080826002805460405160e060020a63b1fb640502815260048101889052600160a060020a039091169063b1fb640590602401602060405180830381865afa158015610454573d6000803e3d6000fd5b505050506040513d601f19601f820116820180604052508101906104789190613fe9565b600581111561048957610489613fd0565b1480610514575060025460405160e060020a63b1fb640502815260048101879052600391600160a060020a03169063b1fb640590602401602060405180830381865afa1580156104dd573d6000803e3d6000fd5b505050506040513d601f19601f820116820180604052508101906105019190613fe9565b600581111561051257610512613fd0565b145b905060608082156105315761052887610a8f565b92509050610569565b5060408051600080825260208201818152828401909352909190610565565b60608152602001906001900390816105505790505b5091505b91969195509350915050565b60008181526001602052604081206102ba90610cad565b600061059781610a32565b61037a6000805160206143ed833981519152836102c0565b6000828152602081905260409020600101546105ca81610a32565b6102e58383610a61565b60006105df81610a32565b6002805473ffffffffffffffffffffffffffffffffffffffff1916600160a060020a03841617905561037a6000805160206143ed83398151915283610cb7565b6000805160206143ed83398151915261063781610a32565b60025460405160e060020a63b1fb640502815260048101869052600091600160a060020a03169063b1fb640590602401602060405180830381865afa158015610684573d6000803e3d6000fd5b505050506040513d601f19601f820116820180604052508101906106a89190613fe9565b60025460405160e060020a63cddbe729028152600481018890529192506000918291600160a060020a03169063cddbe72990602401602060405180830381865afa1580156106fa573d6000803e3d6000fd5b505050506040513d601f19601f8201168201806040525081019061071e919061400a565b9050600283600581111561073457610734613fd0565b14156108265760035460405160e460020a6306776e3d028152600160a060020a0390911690636776e3d09061077190899089908690600401614023565b600060405180830381600087803b15801561078b57600080fd5b505af115801561079f573d6000803e3d6000fd5b50506002546040517f04ac8fee000000000000000000000000000000000000000000000000000000008152600160a060020a0390911692506304ac8fee91506107ef906003908b90600401614059565b600060405180830381600087803b15801561080957600080fd5b505af115801561081d573d6000803e3d6000fd5b50505050610929565b600383600581111561083a5761083a613fd0565b14156109295760035460405160e460020a6306776e3d028152600160a060020a0390911690636776e3d09061087790899089908690600401614023565b600060405180830381600087803b15801561089157600080fd5b505af11580156108a5573d6000803e3d6000fd5b50506002546040517f8e6e1d89000000000000000000000000000000000000000000000000000000008152600481018b90528515156024820152600160a060020a039091169250638e6e1d899150604401600060405180830381600087803b15801561091057600080fd5b505af1158015610924573d6000803e3d6000fd5b505050505b50505050505050565b61093c828261039d565b61037a57600082815260208181526040808320600160a060020a03851684529091529020805460ff191660011790556109723390565b600160a060020a031681600160a060020a0316837f2f8788117e7eff1d82e926ec794901d17c78024a50270940304540a733656f0d60405160405180910390a45050565b600061039683600160a060020a038416610cc1565b6000600160e060020a031982167f7965db0b0000000000000000000000000000000000000000000000000000000014806102ba57507f01ffc9a700000000000000000000000000000000000000000000000000000000600160e060020a03198316146102ba565b610a3c8133610d10565b50565b610a498282610932565b60008281526001602052604090206102e590826109b6565b610a6b8282610d77565b60008281526001602052604090206102e59082610ddc565b60006103968383610df1565b60025460405160e060020a63b1fb6405028152600481018390526060918291600091600160a060020a03169063b1fb640590602401602060405180830381865afa158015610ae1573d6000803e3d6000fd5b505050506040513d601f19601f82011682018060405250810190610b059190613fe9565b6002546040517f1b1d5b2700000000000000000000000000000000000000000000000000000000815260048101879052919250600160a060020a031690631b1d5b2790602401602060405180830381865afa158015610b68573d6000803e3d6000fd5b505050506040513d601f19601f82011682018060405250810190610b8c919061400a565b15610c1c576002816005811115610ba557610ba5613fd0565b1415610bbe57610bb484610e1b565b9093509150610ca7565b6003816005811115610bd257610bd2613fd0565b1415610be157610bb484611245565b60408051600080825260208201818152828401909352909450610c14565b6060815260200190600190039081610bff5790505b509150610ca7565b6040805160008152600160208201818152606083018452919550909185015b6060815260200190600190039081610c3b5790505091506040518060400160405280601381526020017f6177616974696e672072616e646f6d6e6573730000000000000000000000000081525082600081518110610c9b57610c9b614088565b60200260200101819052505b50915091565b60006102ba825490565b61037a8282610a3f565b6000818152600183016020526040812054610d08575081546001818101845560008481526020808220909301849055845484825282860190935260409020919091556102ba565b5060006102ba565b610d1a828261039d565b61037a57610d3281600160a060020a031660146119dc565b610d3d8360206119dc565b604051602001610d4e9291906140a1565b60408051601f198184030181529082905260e560020a62461bcd02825261036791600401613c75565b610d81828261039d565b1561037a57600082815260208181526040808320600160a060020a0385168085529252808320805460ff1916905551339285917ff6391f5c32d9c69d2a47ea670b442974b53935d1edc7fd64eb21e047a839171b9190a45050565b600061039683600160a060020a038416611bde565b6000826000018281548110610e0857610e08614088565b9060005260206000200154905092915050565b6040805160c08101825260008082526020820181905281830181905260608083018290526080830182905260a08301829052600254935160e060020a63ac01b83d02815260048101869052909384939291600160a060020a039091169063ac01b83d90602401600060405180830381865afa158015610e9e573d6000803e3d6000fd5b505050506040513d6000823e601f3d908101601f19168201604052610ec69190810190614122565b905060005b815181101561121c576000828281518110610ee857610ee8614088565b60209081029190910101516002546040517f7f041591000000000000000000000000000000000000000000000000000000008152600481018a905260248101839052919250600091600160a060020a0390911690637f04159190604401602060405180830381865afa158015610f62573d6000803e3d6000fd5b505050506040513d601f19601f82011682018060405250810190610f8691906141b0565b90506001816006811115610f9c57610f9c613fd0565b1415610fb957600185600001818151610fb591906141ea565b9052505b6002546040517ffd82e21f000000000000000000000000000000000000000000000000000000008152600481018a905260248101849052600091600160a060020a03169063fd82e21f90604401600060405180830381865afa158015611023573d6000803e3d6000fd5b505050506040513d6000823e601f3d908101601f1916820160405261104b919081019061424f565b5111156110695760018560200181815161106591906141ea565b9052505b6002546040517f9b8e6819000000000000000000000000000000000000000000000000000000008152600481018a905260248101849052600091600160a060020a031690639b8e681990604401600060405180830381865afa1580156110d3573d6000803e3d6000fd5b505050506040513d6000823e601f3d908101601f191682016040526110fb919081019061424f565b5111156111195760018560200181815161111591906141ea565b9052505b600281600681111561112d5761112d613fd0565b148061114a5750600381600681111561114857611148613fd0565b145b156111665760018560400181815161116291906141ea565b9052505b600481600681111561117a5761117a613fd0565b14806111975750600581600681111561119557611195613fd0565b145b806111b3575060068160068111156111b1576111b1613fd0565b145b806111cf575060028160068111156111cd576111cd613fd0565b145b806111eb575060038160068111156111e9576111e9613fd0565b145b156112075760018560600181815161120391906141ea565b9052505b5050808061121490614284565b915050610ecb565b5060006112298387611cd1565b9050600061123784886128be565b919791965090945050505050565b60608060006040518060c00160405280600081526020016000815260200160008152602001600081526020016000815260200160008152509050611314604051806102600160405280606081526020016060815260200160608152602001606081526020016060815260200160608152602001606081526020016060815260200160608152602001606081526020016060815260200160608152602001606081526020016060815260200160608152602001606081526020016060815260200160608152602001606081525090565b6000600460009054906101000a9004600160a060020a0316600160a060020a031663a0ed600d6040518163ffffffff1660e060020a028152600401602060405180830381865afa15801561136c573d6000803e3d6000fd5b505050506040513d601f19601f82011682018060405250810190611390919061429f565b9050600060405180604001604052806003815260200160e860020a6244617902815250905060006113df8260405180604001604052806003815260200160e860020a6244617902815250613986565b90506000805b600480546040805160e160020a636036f5270281529051600160a060020a039092169263c06dea4e9282820192602092908290030181865afa15801561142f573d6000803e3d6000fd5b505050506040513d601f19601f82011682018060405250810190611453919061429f565b60025460405160e060020a63cddbe729028152600481018d9052600160a060020a039283169263b77ff41192169063cddbe72990602401602060405180830381865afa1580156114a7573d6000803e3d6000fd5b505050506040513d601f19601f820116820180604052508101906114cb919061400a565b6040518263ffffffff1660e060020a0281526004016114ec91815260200190565b602060405180830381865afa158015611509573d6000803e3d6000fd5b505050506040513d601f19601f8201168201806040525081019061152d919061400a565b8110156117cd5760006115418260016141ea565b6002546040517f181ad5e7000000000000000000000000000000000000000000000000000000008152600481018e905260248101839052919250600091600160a060020a039091169063181ad5e790604401602060405180830381865afa1580156115b0573d6000803e3d6000fd5b505050506040513d601f19601f820116820180604052508101906115d491906141b0565b60068111156115e5576115e5613fd0565b9050806004141561163f5761163060606040518060400160405280600881526020017f5472656173757265000000000000000000000000000000000000000000000000815250613986565b1561163a576117b8565b6117b8565b80600514156117b8576002546040517f1b341b3e000000000000000000000000000000000000000000000000000000008152600481018e90526024810184905260006044820181905291600160a060020a031690631b341b3e90606401600060405180830381865afa1580156116b9573d6000803e3d6000fd5b505050506040513d6000823e601f3d908101601f191682016040526116e1919081019061424f565b9050611722816040518060400160405280600881526020017f4d6f76656d656e74000000000000000000000000000000000000000000000000815250613986565b1561172c576117b6565b61176b816040518060400160405280600781526020017f4167696c69747900000000000000000000000000000000000000000000000000815250613986565b15611775576117b6565b6117b4816040518060400160405280600981526020017f4465787465726974790000000000000000000000000000000000000000000000815250613986565b505b505b505080806117c590614284565b9150506113e5565b50816117f75760405180604001604052806003815260200160e860020a624461790281525061182e565b6040518060400160405280600581526020017f4e696768740000000000000000000000000000000000000000000000000000008152505b61018086015281156119b05760005b600480546040805160e160020a636036f5270281529051600160a060020a039092169263c06dea4e9282820192602092908290030181865afa158015611887573d6000803e3d6000fd5b505050506040513d601f19601f820116820180604052508101906118ab919061429f565b60025460405160e060020a63cddbe729028152600481018d9052600160a060020a039283169263b77ff41192169063cddbe72990602401602060405180830381865afa1580156118ff573d6000803e3d6000fd5b505050506040513d601f19601f82011682018060405250810190611923919061400a565b6040518263ffffffff1660e060020a02815260040161194491815260200190565b602060405180830381865afa158015611961573d6000803e3d6000fd5b505050506040513d601f19601f82011682018060405250810190611985919061400a565b8110156119ae5760006119998260016141ea565b508190506119a681614284565b91505061183d565b505b60006119bc87876139df565b905060006119ca8888613ac3565b919b919a509098505050505050505050565b606060006119eb8360026142bc565b6119f69060026141ea565b67ffffffffffffffff811115611a0e57611a0e613dad565b6040519080825280601f01601f191660200182016040528015611a38576020820181803683370190505b5090507f300000000000000000000000000000000000000000000000000000000000000081600081518110611a6f57611a6f614088565b6020010190600160f860020a031916908160001a9053507f780000000000000000000000000000000000000000000000000000000000000081600181518110611aba57611aba614088565b6020010190600160f860020a031916908160001a9053506000611ade8460026142bc565b611ae99060016141ea565b90505b6001811115611b8c577f303132333435363738396162636465660000000000000000000000000000000085600f1660108110611b2a57611b2a614088565b1a7f010000000000000000000000000000000000000000000000000000000000000002828281518110611b5f57611b5f614088565b6020010190600160f860020a031916908160001a905350601090940493611b85816142db565b9050611aec565b5083156103965760405160e560020a62461bcd02815260206004820181905260248201527f537472696e67733a20686578206c656e67746820696e73756666696369656e746044820152606401610367565b60008181526001830160205260408120548015611cc7576000611c026001836142f2565b8554909150600090611c16906001906142f2565b9050818114611c7b576000866000018281548110611c3657611c36614088565b9060005260206000200154905080876000018481548110611c5957611c59614088565b6000918252602080832090910192909255918252600188019052604090208390555b8554869080611c8c57611c8c614309565b6001900381819060005260206000200160009055905585600101600086815260200190815260200160002060009055600193505050506102ba565b60009150506102ba565b60606000836060015184604001516003611ceb91906142bc565b6080860151611cfb9060036142bc565b6020870151611d0b9060026142bc565b60a0880151611d1b9060046142bc565b8851611d289060026142bc565b611d339060066141ea565b611d3d91906141ea565b611d4791906141ea565b611d5191906141ea565b611d5b91906141ea565b611d6591906141ea565b905060008167ffffffffffffffff811115611d8257611d82613dad565b604051908082528060200260200182016040528015611dab578160200160208202803683370190505b509050846000015181600081518110611dc657611dc6614088565b6020026020010181815250508460a0015181600181518110611dea57611dea614088565b602002602001018181525050846020015181600281518110611e0e57611e0e614088565b602002602001018181525050846080015181600381518110611e3257611e32614088565b602002602001018181525050846040015181600481518110611e5657611e56614088565b602002602001018181525050846060015181600581518110611e7a57611e7a614088565b602090810291909101015260025460405160e060020a63ac01b83d02815260048101869052600091600160a060020a03169063ac01b83d90602401600060405180830381865afa158015611ed2573d6000803e3d6000fd5b505050506040513d6000823e601f3d908101601f19168201604052611efa9190810190614122565b9050600660005b82518110156120df576002548351600191600160a060020a031690637f041591908a90879086908110611f3657611f36614088565b60200260200101516040518363ffffffff1660e060020a028152600401611f67929190918252602082015260400190565b602060405180830381865afa158015611f84573d6000803e3d6000fd5b505050506040513d601f19601f82011682018060405250810190611fa891906141b0565b6006811115611fb957611fb9613fd0565b14156120cd57828181518110611fd157611fd1614088565b6020026020010151848381518110611feb57611feb614088565b60209081029190910101526002548351600160a060020a039091169063a2dc586090899086908590811061202157612021614088565b60200260200101516040518363ffffffff1660e060020a028152600401612052929190918252602082015260400190565b600060405180830381865afa15801561206f573d6000803e3d6000fd5b505050506040513d6000823e601f3d908101601f191682016040526120979190810190614322565b51846120a48460016141ea565b815181106120b4576120b4614088565b60209081029190910101526120ca6002836141ea565b91505b806120d781614284565b915050611f01565b5060005b8251811015612215576002548351600091600160a060020a03169063fd82e21f908a9087908690811061211857612118614088565b60200260200101516040518363ffffffff1660e060020a028152600401612149929190918252602082015260400190565b600060405180830381865afa158015612166573d6000803e3d6000fd5b505050506040513d6000823e601f3d908101601f1916820160405261218e919081019061424f565b511115612203578281815181106121a7576121a7614088565b60200260200101518483815181106121c1576121c1614088565b60209081029190910101526000846121da8460016141ea565b815181106121ea576121ea614088565b60209081029190910101526122006002836141ea565b91505b8061220d81614284565b9150506120e3565b5060005b825181101561234a576002548351600091600160a060020a031690639b8e6819908a9087908690811061224e5761224e614088565b60200260200101516040518363ffffffff1660e060020a02815260040161227f929190918252602082015260400190565b600060405180830381865afa15801561229c573d6000803e3d6000fd5b505050506040513d6000823e601f3d908101601f191682016040526122c4919081019061424f565b511115612338578281815181106122dd576122dd614088565b60200260200101518483815181106122f7576122f7614088565b602090810291909101015260018461230f84836141ea565b8151811061231f5761231f614088565b60209081029190910101526123356002836141ea565b91505b8061234281614284565b915050612219565b5060005b82518110156124bc57600280548451600160a060020a0390911690637f041591908a9087908690811061238357612383614088565b60200260200101516040518363ffffffff1660e060020a0281526004016123b4929190918252602082015260400190565b602060405180830381865afa1580156123d1573d6000803e3d6000fd5b505050506040513d601f19601f820116820180604052508101906123f591906141b0565b600681111561240657612406613fd0565b14156124aa576402540be40084838151811061242457612424614088565b60200260200101818152505082818151811061244257612442614088565b60200260200101518483600161245891906141ea565b8151811061246857612468614088565b60209081029190910101526001846124818460026141ea565b8151811061249157612491614088565b60209081029190910101526124a76003836141ea565b91505b806124b481614284565b91505061234e565b5060005b825181101561262b576002548351600391600160a060020a031690637f041591908a908790869081106124f5576124f5614088565b60200260200101516040518363ffffffff1660e060020a028152600401612526929190918252602082015260400190565b602060405180830381865afa158015612543573d6000803e3d6000fd5b505050506040513d601f19601f8201168201806040525081019061256791906141b0565b600681111561257857612578613fd0565b14156126195782818151811061259057612590614088565b60200260200101518483815181106125aa576125aa614088565b60209081029190910101526402540be400846125c78460016141ea565b815181106125d7576125d7614088565b60209081029190910101526001846125f08460026141ea565b8151811061260057612600614088565b60209081029190910101526126166003836141ea565b91505b8061262381614284565b9150506124c0565b5060005b82518110156128b2576002548351600491600160a060020a031690637f041591908a9087908690811061266457612664614088565b60200260200101516040518363ffffffff1660e060020a028152600401612695929190918252602082015260400190565b602060405180830381865afa1580156126b2573d6000803e3d6000fd5b505050506040513d601f19601f820116820180604052508101906126d691906141b0565b60068111156126e7576126e7613fd0565b148061279f57506002548351600591600160a060020a031690637f041591908a9087908690811061271a5761271a614088565b60200260200101516040518363ffffffff1660e060020a02815260040161274b929190918252602082015260400190565b602060405180830381865afa158015612768573d6000803e3d6000fd5b505050506040513d601f19601f8201168201806040525081019061278c91906141b0565b600681111561279d5761279d613fd0565b145b8061285657506002548351600691600160a060020a031690637f041591908a908790869081106127d1576127d1614088565b60200260200101516040518363ffffffff1660e060020a028152600401612802929190918252602082015260400190565b602060405180830381865afa15801561281f573d6000803e3d6000fd5b505050506040513d601f19601f8201168201806040525081019061284391906141b0565b600681111561285457612854613fd0565b145b156128a05782818151811061286d5761286d614088565b602002602001015184838151811061288757612887614088565b60209081029190910101528161289c81614284565b9250505b806128aa81614284565b91505061262f565b50919695505050505050565b6060828101516007906000906128d59060026142bc565b60408601516128e59060026142bc565b6080870151602088015188516128fc9087906142bc565b6129079060016141ea565b61291191906141ea565b61291b91906141ea565b61292591906141ea565b61292f91906141ea565b905060008167ffffffffffffffff81111561294c5761294c613dad565b60405190808252806020026020018201604052801561297f57816020015b606081526020019060019003908161296a5790505b50905060405180604001604052806003815260200160e860020a6244617902815250816000815181106129b4576129b4614088565b602090810291909101015260025460405160e060020a63ac01b83d02815260048101879052600091600160a060020a03169063ac01b83d90602401600060405180830381865afa158015612a0c573d6000803e3d6000fd5b505050506040513d6000823e601f3d908101601f19168201604052612a349190810190614122565b9050600160005b8251811015612c33576002548351600191600160a060020a031690637f041591908b90879086908110612a7057612a70614088565b60200260200101516040518363ffffffff1660e060020a028152600401612aa1929190918252602082015260400190565b602060405180830381865afa158015612abe573d6000803e3d6000fd5b505050506040513d601f19601f82011682018060405250810190612ae291906141b0565b6006811115612af357612af3613fd0565b1415612c21576002548351600091600160a060020a03169063a2dc5860908b90879086908110612b2557612b25614088565b60200260200101516040518363ffffffff1660e060020a028152600401612b56929190918252602082015260400190565b600060405180830381865afa158015612b73573d6000803e3d6000fd5b505050506040513d6000823e601f3d908101601f19168201604052612b9b9190810190614322565b905060005b87811015612c1e5781518110612bc55760405180602001604052806000815250612be0565b818181518110612bd757612bd7614088565b60200260200101515b868581518110612bf257612bf2614088565b60200260200101819052508380612c0890614284565b9450508080612c1690614284565b915050612ba0565b50505b80612c2b81614284565b915050612a3b565b5060005b8251811015612dc8576002548351600091600160a060020a03169063fd82e21f908b90879086908110612c6c57612c6c614088565b60200260200101516040518363ffffffff1660e060020a028152600401612c9d929190918252602082015260400190565b600060405180830381865afa158015612cba573d6000803e3d6000fd5b505050506040513d6000823e601f3d908101601f19168201604052612ce2919081019061424f565b511115612db6576002548351600160a060020a039091169063fd82e21f908a90869085908110612d1457612d14614088565b60200260200101516040518363ffffffff1660e060020a028152600401612d45929190918252602082015260400190565b600060405180830381865afa158015612d62573d6000803e3d6000fd5b505050506040513d6000823e601f3d908101601f19168201604052612d8a919081019061424f565b848381518110612d9c57612d9c614088565b60200260200101819052508180612db290614284565b9250505b80612dc081614284565b915050612c37565b5060005b8251811015612f5d576002548351600091600160a060020a031690639b8e6819908b90879086908110612e0157612e01614088565b60200260200101516040518363ffffffff1660e060020a028152600401612e32929190918252602082015260400190565b600060405180830381865afa158015612e4f573d6000803e3d6000fd5b505050506040513d6000823e601f3d908101601f19168201604052612e77919081019061424f565b511115612f4b576002548351600160a060020a0390911690639b8e6819908a90869085908110612ea957612ea9614088565b60200260200101516040518363ffffffff1660e060020a028152600401612eda929190918252602082015260400190565b600060405180830381865afa158015612ef7573d6000803e3d6000fd5b505050506040513d6000823e601f3d908101601f19168201604052612f1f919081019061424f565b848381518110612f3157612f31614088565b60200260200101819052508180612f4790614284565b9250505b80612f5581614284565b915050612dcc565b5060005b825181101561314a57600280548451600160a060020a0390911690637f041591908b90879086908110612f9657612f96614088565b60200260200101516040518363ffffffff1660e060020a028152600401612fc7929190918252602082015260400190565b602060405180830381865afa158015612fe4573d6000803e3d6000fd5b505050506040513d601f19601f8201168201806040525081019061300891906141b0565b600681111561301957613019613fd0565b14806130d157506002548351600391600160a060020a031690637f041591908b9087908690811061304c5761304c614088565b60200260200101516040518363ffffffff1660e060020a02815260040161307d929190918252602082015260400190565b602060405180830381865afa15801561309a573d6000803e3d6000fd5b505050506040513d601f19601f820116820180604052508101906130be91906141b0565b60068111156130cf576130cf613fd0565b145b15613138576040518060400160405280600881526020017f43616d707369746500000000000000000000000000000000000000000000000081525084838151811061311e5761311e614088565b6020026020010181905250818061313490614284565b9250505b8061314281614284565b915050612f61565b5060005b825181101561340b57600280548451600160a060020a0390911690637f041591908b9087908690811061318357613183614088565b60200260200101516040518363ffffffff1660e060020a0281526004016131b4929190918252602082015260400190565b602060405180830381865afa1580156131d1573d6000803e3d6000fd5b505050506040513d601f19601f820116820180604052508101906131f591906141b0565b600681111561320657613206613fd0565b14156132aa576040518060400160405280600a81526020017f53657475702063616d700000000000000000000000000000000000000000000081525084838151811061325457613254614088565b6020026020010181905250604051806020016040528060008152508483600161327d91906141ea565b8151811061328d5761328d614088565b60209081029190910101526132a36002836141ea565b91506133f9565b6002548351600391600160a060020a031690637f041591908b908790869081106132d6576132d6614088565b60200260200101516040518363ffffffff1660e060020a028152600401613307929190918252602082015260400190565b602060405180830381865afa158015613324573d6000803e3d6000fd5b505050506040513d601f19601f8201168201806040525081019061334891906141b0565b600681111561335957613359613fd0565b14156133f9576040518060400160405280600f81526020017f427265616b20646f776e2063616d7000000000000000000000000000000000008152508483815181106133a7576133a7614088565b602002602001018190525060405180602001604052806000815250848360016133d091906141ea565b815181106133e0576133e0614088565b60209081029190910101526133f66002836141ea565b91505b8061340381614284565b91505061314e565b5060005b8251811015613579576002548351600491600160a060020a031690637f041591908b9087908690811061344457613444614088565b60200260200101516040518363ffffffff1660e060020a028152600401613475929190918252602082015260400190565b602060405180830381865afa158015613492573d6000803e3d6000fd5b505050506040513d601f19601f820116820180604052508101906134b691906141b0565b60068111156134c7576134c7613fd0565b1415613567576040518060400160405280600381526020017f446967000000000000000000000000000000000000000000000000000000000081525084838151811061351557613515614088565b6020026020010181905250604051806020016040528060008152508483600161353e91906141ea565b8151811061354e5761354e614088565b60209081029190910101526135646002836141ea565b91505b8061357181614284565b91505061340f565b5060005b8251811015613779576002548351600591600160a060020a031690637f041591908b908790869081106135b2576135b2614088565b60200260200101516040518363ffffffff1660e060020a0281526004016135e3929190918252602082015260400190565b602060405180830381865afa158015613600573d6000803e3d6000fd5b505050506040513d601f19601f8201168201806040525081019061362491906141b0565b600681111561363557613635613fd0565b1415613767576040518060400160405280600481526020017f526573740000000000000000000000000000000000000000000000000000000081525084838151811061368357613683614088565b60209081029190910101526002548351600160a060020a0390911690631b341b3e908a908690859081106136b9576136b9614088565b602090810291909101015160405160e060020a63ffffffff85160281526004810192909252602482015260006044820152606401600060405180830381865afa15801561370a573d6000803e3d6000fd5b505050506040513d6000823e601f3d908101601f19168201604052613732919081019061424f565b8461373e8460016141ea565b8151811061374e5761374e614088565b60209081029190910101526137646002836141ea565b91505b8061377181614284565b91505061357d565b5060005b8251811015613979576002548351600691600160a060020a031690637f041591908b908790869081106137b2576137b2614088565b60200260200101516040518363ffffffff1660e060020a0281526004016137e3929190918252602082015260400190565b602060405180830381865afa158015613800573d6000803e3d6000fd5b505050506040513d601f19601f8201168201806040525081019061382491906141b0565b600681111561383557613835613fd0565b1415613967576040518060400160405280600481526020017f48656c700000000000000000000000000000000000000000000000000000000081525084838151811061388357613883614088565b60209081029190910101526002548351600160a060020a0390911690631b341b3e908a908690859081106138b9576138b9614088565b602090810291909101015160405160e060020a63ffffffff85160281526004810192909252602482015260006044820152606401600060405180830381865afa15801561390a573d6000803e3d6000fd5b505050506040513d6000823e601f3d908101601f19168201604052613932919081019061424f565b8461393e8460016141ea565b8151811061394e5761394e614088565b60209081029190910101526139646002836141ea565b91505b8061397181614284565b91505061377d565b5091979650505050505050565b60008160405160200161399991906143d0565b60405160208183030381529060405280519060200120836040516020016139c091906143d0565b6040516020818303038152906040528051906020012014905092915050565b606060008360600151846040015160036139f991906142bc565b6080860151613a099060036142bc565b6020870151613a199060026142bc565b60a0880151613a299060046142bc565b8851613a369060026142bc565b613a419060066141ea565b613a4b91906141ea565b613a5591906141ea565b613a5f91906141ea565b613a6991906141ea565b613a7391906141ea565b905060008167ffffffffffffffff811115613a9057613a90613dad565b604051908082528060200260200182016040528015613ab9578160200160208202803683370190505b5095945050505050565b606082810151600790600090613ada9060026142bc565b6040860151613aea9060026142bc565b608087015160208801518851613b019087906142bc565b613b0c9060016141ea565b613b1691906141ea565b613b2091906141ea565b613b2a91906141ea565b613b3491906141ea565b905060008167ffffffffffffffff811115613b5157613b51613dad565b604051908082528060200260200182016040528015613b8457816020015b6060815260200190600190039081613b6f5790505b50905084610180015181600081518110613ba057613ba0614088565b602090810291909101015295945050505050565b600060208284031215613bc657600080fd5b8135600160e060020a03198116811461039657600080fd5b600060208284031215613bf057600080fd5b5035919050565b60008060408385031215613c0a57600080fd5b50508035926020909101359150565b60005b83811015613c34578181015183820152602001613c1c565b83811115613c43576000848401525b50505050565b60008151808452613c61816020860160208601613c19565b601f01601f19169290920160200192915050565b6020815260006103966020830184613c49565b600160a060020a0381168114610a3c57600080fd5b60008060408385031215613cb057600080fd5b823591506020830135613cc281613c88565b809150509250929050565b600060208284031215613cdf57600080fd5b813561039681613c88565b600081518084526020808501945080840160005b83811015613d1a57815187529582019590820190600101613cfe565b509495945050505050565b600081518084526020808501945084818302860182860160005b85811015613d69578383038952613d57838351613c49565b98850198925090840190600101613d3f565b5090979650505050505050565b8315158152606060208201526000613d916060830185613cea565b8281036040840152613da38185613d25565b9695505050505050565b60e060020a634e487b7102600052604160045260246000fd5b604051601f8201601f1916810167ffffffffffffffff81118282101715613def57613def613dad565b604052919050565b600067ffffffffffffffff821115613e1157613e11613dad565b5060209081020190565b600067ffffffffffffffff821115613e3557613e35613dad565b50601f01601f191660200190565b600082601f830112613e5457600080fd5b81356020613e69613e6483613df7565b613dc6565b82815291810284018101918181019086841115613e8557600080fd5b8286015b84811015613f0457803567ffffffffffffffff811115613ea95760008081fd5b8701603f81018913613ebb5760008081fd5b848101356040613ecd613e6483613e1b565b8281528b82848601011115613ee25760008081fd5b8282850189830137600092810188019290925250845250918301918301613e89565b509695505050505050565b600080600060608486031215613f2457600080fd5b8335925060208085013567ffffffffffffffff80821115613f4457600080fd5b818701915087601f830112613f5857600080fd5b8135613f66613e6482613df7565b8181529084028301840190848101908a831115613f8257600080fd5b938501935b82851015613fa057843582529385019390850190613f87565b965050506040870135925080831115613fb857600080fd5b5050613fc686828701613e43565b9150509250925092565b60e060020a634e487b7102600052602160045260246000fd5b600060208284031215613ffb57600080fd5b81516006811061039657600080fd5b60006020828403121561401c57600080fd5b5051919050565b6060815260006140366060830186613cea565b82810360208401526140488186613d25565b915050826040830152949350505050565b604081016006841061407e5760e060020a634e487b7102600052602160045260246000fd5b9281526020015290565b60e060020a634e487b7102600052603260045260246000fd5b7f416363657373436f6e74726f6c3a206163636f756e74200000000000000000008152600083516140d9816017850160208801613c19565b7f206973206d697373696e6720726f6c65200000000000000000000000000000006017918401918201528351614116816028840160208801613c19565b01602801949350505050565b6000602080838503121561413557600080fd5b825167ffffffffffffffff81111561414c57600080fd5b8301601f8101851361415d57600080fd5b805161416b613e6482613df7565b8181529083028201830190838101908783111561418757600080fd5b928401925b828410156141a55783518252928401929084019061418c565b979650505050505050565b6000602082840312156141c257600080fd5b81516007811061039657600080fd5b60e060020a634e487b7102600052601160045260246000fd5b600082198211156141fd576141fd6141d1565b500190565b600082601f83011261421357600080fd5b8151614221613e6482613e1b565b81815284602083860101111561423657600080fd5b614247826020830160208701613c19565b949350505050565b60006020828403121561426157600080fd5b815167ffffffffffffffff81111561427857600080fd5b61424784828501614202565b6000600019821415614298576142986141d1565b5060010190565b6000602082840312156142b157600080fd5b815161039681613c88565b60008160001904831182151516156142d6576142d66141d1565b500290565b6000816142ea576142ea6141d1565b506000190190565b600082821015614304576143046141d1565b500390565b60e060020a634e487b7102600052603160045260246000fd5b6000602080838503121561433557600080fd5b825167ffffffffffffffff8082111561434d57600080fd5b818501915085601f83011261436157600080fd5b815161436f613e6482613df7565b8181529084028301840190848101908883111561438b57600080fd5b8585015b838110156143c3578051858111156143a75760008081fd5b6143b58b89838a0101614202565b84525091860191860161438f565b5098975050505050505050565b600082516143e2818460208701613c19565b919091019291505056fe80e2196015fc06a9d891759f8e4f51eb314ef5e9ea068528a8ed0063b87759f0a264697066735822122008c7d25ea1395550f550a328ba1e936baf69103f7c6e843b4a451ee32274e88664736f6c634300080b0033",
  "immutableReferences": {},
  "source": "// SPDX-License-Identifier: GPL-3.0\npragma solidity >=0.7.0 <0.9.0;\n\nimport \"./HexplorationQueue.sol\";\nimport \"./HexplorationStateUpdate.sol\";\nimport \"./state/GameSummary.sol\";\nimport \"./HexplorationBoard.sol\";\nimport \"@openzeppelin/contracts/access/AccessControlEnumerable.sol\";\n\ncontract HexplorationGameplay is AccessControlEnumerable {\n    bytes32 public constant VERIFIED_CONTROLLER_ROLE =\n        keccak256(\"VERIFIED_CONTROLLER_ROLE\");\n\n    HexplorationQueue QUEUE;\n    HexplorationStateUpdate GAME_STATE;\n    HexplorationBoard GAME_BOARD;\n    address gameSummaryAddress;\n\n    struct DataSummary {\n        uint256 playerPositionUpdates;\n        uint256 playerEquips;\n        uint256 zoneTransfers;\n        uint256 activeActions;\n        uint256 playerTransfers;\n        uint256 playerStatUpdates;\n    }\n\n    struct PlayUpdates {\n        uint256[] playerPositionIDs;\n        uint256[] playerEquipIDs;\n        uint256[] playerEquipHands;\n        uint256[] zoneTransfersTo;\n        uint256[] zoneTransfersFrom;\n        uint256[] zoneTransferQtys;\n        uint256[] playerTransfersTo;\n        uint256[] playerTransfersFrom;\n        uint256[] playerTransferQtys;\n        uint256[] playerStatUpdateIDs;\n        uint256[3][] playerStatUpdates;\n        uint256[] playerActiveActionIDs;\n        string gamePhase;\n        string[][] playerMovementOptions;\n        string[] playerEquips;\n        string[] zoneTransferItemTypes;\n        string[] playerTransferItemTypes;\n        string[] activeActions;\n        string[] activeActionOptions;\n    }\n\n    constructor(address _gameSummaryAddress, address gameBoardAddress) {\n        _setupRole(DEFAULT_ADMIN_ROLE, _msgSender());\n        GAME_BOARD = HexplorationBoard(gameBoardAddress);\n        gameSummaryAddress = _gameSummaryAddress;\n    }\n\n    function addVerifiedController(address vcAddress)\n        public\n        onlyRole(DEFAULT_ADMIN_ROLE)\n    {\n        grantRole(VERIFIED_CONTROLLER_ROLE, vcAddress);\n    }\n\n    function setQueue(address queueContract)\n        public\n        onlyRole(DEFAULT_ADMIN_ROLE)\n    {\n        QUEUE = HexplorationQueue(queueContract);\n        _setupRole(VERIFIED_CONTROLLER_ROLE, queueContract);\n    }\n\n    function setGameStateUpdate(address gsuAddress)\n        public\n        onlyRole(DEFAULT_ADMIN_ROLE)\n    {\n        GAME_STATE = HexplorationStateUpdate(gsuAddress);\n    }\n\n    // Keeper functions...\n    // returns if should be processing and processed moves to post if so\n    // this will be run twice for each phase, once for player actions,\n    // once for playing out world scenarios\n    function shouldContinueProcessing(uint256 queueID)\n        public\n        view\n        returns (\n            bool,\n            uint256[] memory,\n            string[] memory\n        )\n    {\n        bool shouldContinue = QUEUE.currentPhase(queueID) ==\n            HexplorationQueue.ProcessingPhase.Processing ||\n            QUEUE.currentPhase(queueID) ==\n            HexplorationQueue.ProcessingPhase.PlayThrough;\n        string[] memory stringsToPost;\n        uint256[] memory valuesToPost;\n        if (shouldContinue) {\n            (valuesToPost, stringsToPost) = process(queueID);\n        } else {\n            valuesToPost = new uint256[](0);\n            stringsToPost = new string[](0);\n        }\n\n        return (shouldContinue, valuesToPost, stringsToPost);\n    }\n\n    // posts data returned from shouldContinueProcessing()...\n    function postProcessedGameState(\n        uint256 queueID,\n        uint256[] memory intUpdates,\n        string[] memory stringUpdates\n    ) public onlyRole(VERIFIED_CONTROLLER_ROLE) {\n        HexplorationQueue.ProcessingPhase phase = QUEUE.currentPhase(queueID);\n\n        // TODO: set this to true when game is finished\n        bool gameComplete = false;\n        uint256 gameID = QUEUE.game(queueID);\n        if (phase == HexplorationQueue.ProcessingPhase.Processing) {\n            GAME_STATE.postUpdates(intUpdates, stringUpdates, gameID);\n            QUEUE.setPhase(\n                HexplorationQueue.ProcessingPhase.PlayThrough,\n                queueID\n            );\n        } else if (phase == HexplorationQueue.ProcessingPhase.PlayThrough) {\n            GAME_STATE.postUpdates(intUpdates, stringUpdates, gameID);\n            QUEUE.finishProcessing(queueID, gameComplete);\n        }\n    }\n\n    function process(uint256 queueID)\n        internal\n        view\n        returns (uint256[] memory intValues, string[] memory stringValues)\n    {\n        HexplorationQueue.ProcessingPhase phase = QUEUE.currentPhase(queueID);\n        if (QUEUE.randomness(queueID) != 0) {\n            if (phase == HexplorationQueue.ProcessingPhase.Processing) {\n                (intValues, stringValues) = processPlayerActions(queueID);\n            } else if (phase == HexplorationQueue.ProcessingPhase.PlayThrough) {\n                (intValues, stringValues) = playThrough(queueID);\n            } else {\n                intValues = new uint256[](0);\n                stringValues = new string[](0);\n            }\n        } else {\n            // randomness not set for queue yet\n            intValues = new uint256[](0);\n            stringValues = new string[](1);\n            stringValues[0] = \"awaiting randomness\";\n        }\n\n        // Update TODO: expand for processing larger turns...\n        // something like\n        // if (currentPhase == HexplorationQueue.ProcessingPhase.Processing) {\n        //     // processPlayerActions()\n        // } else if (\n        //     currentPhase == HexplorationQueue.ProcessingPhase.PlayThrough\n        // ) {\n        //     // playThrough()\n        //     // finishProcessing()\n        // }\n    }\n\n    function processPlayerActions(uint256 queueID)\n        internal\n        view\n        returns (uint256[] memory, string[] memory)\n    {\n        DataSummary memory data = DataSummary(0, 0, 0, 0, 0, 0);\n        uint256[] memory playersInQueue = QUEUE.getAllPlayers(queueID);\n        for (uint256 i = 0; i < playersInQueue.length; i++) {\n            uint256 playerID = playersInQueue[i];\n            HexplorationQueue.Action action = QUEUE.submissionAction(\n                queueID,\n                playerID\n            );\n            /*\n            Idle,\n            Move,\n            SetupCamp,\n            BreakDownCamp,\n            Dig,\n            Rest,\n            Help\n            */\n            if (action == HexplorationQueue.Action.Move) {\n                data.playerPositionUpdates += 1;\n            }\n            if (bytes(QUEUE.submissionLeftHand(queueID, playerID)).length > 0) {\n                data.playerEquips += 1;\n            }\n            if (\n                bytes(QUEUE.submissionRightHand(queueID, playerID)).length > 0\n            ) {\n                data.playerEquips += 1;\n            }\n            if (\n                action == HexplorationQueue.Action.SetupCamp ||\n                action == HexplorationQueue.Action.BreakDownCamp\n            ) {\n                data.zoneTransfers += 1;\n            }\n\n            if (\n                action == HexplorationQueue.Action.Dig ||\n                action == HexplorationQueue.Action.Rest ||\n                action == HexplorationQueue.Action.Help ||\n                action == HexplorationQueue.Action.SetupCamp ||\n                action == HexplorationQueue.Action.BreakDownCamp\n            ) {\n                data.activeActions += 1;\n            }\n        }\n\n        // Next: ( do this in play through phase / post )\n        // If dig:\n        // pull treasure card or ambush\n\n        // receive inventory / artifact or go to battle\n\n        // update totals after Dig, Rest, Help\n\n        uint256[] memory intReturn = processedIntArray(data, queueID);\n\n        string[] memory stringReturn = processedStringArray(data, queueID);\n\n        return (intReturn, stringReturn);\n    }\n\n    function playThrough(uint256 queueID)\n        internal\n        view\n        returns (uint256[] memory, string[] memory)\n    {\n        DataSummary memory data = DataSummary(0, 0, 0, 0, 0, 0);\n        PlayUpdates memory playUpdates;\n        //uint256 gameID = QUEUE.game(queueID);\n        // uint256 totalPlayers = PlayerRegistry(GAME_BOARD.prAddress())\n        //     .totalRegistrations(QUEUE.game(queueID));\n        CharacterCard cc = CharacterCard(GAME_BOARD.characterCard());\n\n        // setup endgame\n\n        //TODO:\n        // check current phase (day / night)\n        string memory currentPhase = \"Day\";\n        bool isDay = stringsMatch(currentPhase, \"Day\");\n        bool setupEndGame = false;\n        for (\n            uint256 i = 0;\n            i <\n            PlayerRegistry(GAME_BOARD.prAddress()).totalRegistrations(\n                QUEUE.game(queueID)\n            );\n            i++\n        ) {\n            uint256 playerID = i + 1;\n            uint256 activeAction = uint256(\n                QUEUE.activeAction(queueID, playerID)\n            );\n            if (activeAction == 4) {\n                // dig\n                if (stringsMatch(dig(queueID, playerID), \"Treasure\")) {\n                    // dug treasure! pick treasure card\n                    // if final artifact is found, setupEndGame = true;\n                } else {\n                    // dug ambush...\n                    // play out consequences\n                }\n            } else if (activeAction == 5) {\n                // rest\n                string memory restChoice = QUEUE.submissionOptions(\n                    queueID,\n                    playerID,\n                    0\n                );\n                if (stringsMatch(restChoice, \"Movement\")) {\n                    // add 1 to movement\n                } else if (stringsMatch(restChoice, \"Agility\")) {\n                    // add 1 to agility\n                } else if (stringsMatch(restChoice, \"Dexterity\")) {\n                    // add 1 to dexterity\n                }\n            } else if (activeAction == 6) {\n                //help\n                // set player ID to help (options) as string choice\n            }\n\n            // to get current player stats...\n            // cc.movement(gameID, playerID) => returns uint8\n            // cc.agility(gameID, playerID) => returns uint8\n            // cc.dexterity(gameID, playerID) => returns uint8\n\n            //to subtract from player stats...\n            //subToZero(uint256(playerStat), reductionAmount);\n            // can submit numbers higher than max here, but won't actually get set to those\n            // will get set to max if max exceeded\n        }\n\n        if (setupEndGame) {\n            // setup end game...\n        }\n        // update Phase (Day / Night);\n        playUpdates.gamePhase = isDay ? \"Night\" : \"Day\";\n\n        if (isDay) {\n            for (\n                uint256 i = 0;\n                i <\n                PlayerRegistry(GAME_BOARD.prAddress()).totalRegistrations(\n                    QUEUE.game(queueID)\n                );\n                i++\n            ) {\n                uint256 playerID = i + 1;\n                // if Day,\n                // roll D6\n                // if EVEN - Choose Event Card + calculate results + save to data\n                // if ODD - Choose Ambush Card + calculate results + save to data\n            }\n        }\n\n        uint256[] memory intReturn = processedIntArrayFrom(data, playUpdates);\n        string[] memory stringReturn = processedStringArrayFrom(\n            data,\n            playUpdates\n        );\n\n        return (intReturn, stringReturn);\n\n        // if day phase (){\n        // Play through events\n        // daily events\n        //}\n        // if (end game) {\n        // play enemy stuff here\n        //}\n    }\n\n    function processedIntArrayFrom(\n        DataSummary memory dataSummary,\n        PlayUpdates memory playUpdates\n    ) internal pure returns (uint256[] memory) {\n        uint256 intReturnLength = 6 +\n            (dataSummary.playerPositionUpdates * 2) +\n            (dataSummary.playerStatUpdates * 4) +\n            (dataSummary.playerEquips * 2) +\n            (dataSummary.playerTransfers * 3) +\n            (dataSummary.zoneTransfers * 3) +\n            dataSummary.activeActions;\n        uint256[] memory returnArray = new uint256[](intReturnLength);\n        return returnArray;\n    }\n\n    function processedStringArrayFrom(\n        DataSummary memory dataSummary,\n        PlayUpdates memory playUpdates\n    ) internal pure returns (string[] memory) {\n        // TODO: update to actual max value\n        uint256 maxMovementPerPlayer = 7;\n        uint256 stringReturnLength = 1 +\n            (dataSummary.playerPositionUpdates * maxMovementPerPlayer) +\n            dataSummary.playerEquips +\n            dataSummary.playerTransfers +\n            (dataSummary.zoneTransfers * 2) +\n            (dataSummary.activeActions * 2);\n        string[] memory returnArray = new string[](stringReturnLength);\n        returnArray[0] = playUpdates.gamePhase;\n        return returnArray;\n    }\n\n    function processedIntArray(DataSummary memory dataSummary, uint256 queueID)\n        internal\n        view\n        returns (uint256[] memory)\n    {\n        uint256 intReturnLength = 6 +\n            (dataSummary.playerPositionUpdates * 2) +\n            (dataSummary.playerStatUpdates * 4) +\n            (dataSummary.playerEquips * 2) +\n            (dataSummary.playerTransfers * 3) +\n            (dataSummary.zoneTransfers * 3) +\n            dataSummary.activeActions;\n\n        uint256[] memory intReturn = new uint256[](intReturnLength);\n        intReturn[0] = dataSummary.playerPositionUpdates;\n        intReturn[1] = dataSummary.playerStatUpdates;\n        intReturn[2] = dataSummary.playerEquips;\n        intReturn[3] = dataSummary.playerTransfers;\n        intReturn[4] = dataSummary.zoneTransfers;\n        intReturn[5] = dataSummary.activeActions;\n\n        uint256[] memory playersInQueue = QUEUE.getAllPlayers(queueID);\n\n        uint256 currentArrayPosition = 6;\n\n        // Movement\n        for (uint256 i = 0; i < playersInQueue.length; i++) {\n            if (\n                QUEUE.submissionAction(queueID, playersInQueue[i]) ==\n                HexplorationQueue.Action.Move\n            ) {\n                // return [player id, # spaces to move]\n                intReturn[currentArrayPosition] = playersInQueue[i];\n                intReturn[currentArrayPosition + 1] = QUEUE\n                    .getSubmissionOptions(queueID, playersInQueue[i])\n                    .length;\n                currentArrayPosition += 2;\n            }\n        }\n\n        // LH equip\n        for (uint256 i = 0; i < playersInQueue.length; i++) {\n            if (\n                bytes(QUEUE.submissionLeftHand(queueID, playersInQueue[i]))\n                    .length > 0\n            ) {\n                // return [player id, r/l hand (0/1)]\n                intReturn[currentArrayPosition] = playersInQueue[i];\n                intReturn[currentArrayPosition + 1] = 0;\n                currentArrayPosition += 2;\n            }\n        }\n\n        // RH equip\n        for (uint256 i = 0; i < playersInQueue.length; i++) {\n            if (\n                bytes(QUEUE.submissionRightHand(queueID, playersInQueue[i]))\n                    .length > 0\n            ) {\n                // return [player id, r/l hand (0/1)]\n                intReturn[currentArrayPosition] = playersInQueue[i];\n                intReturn[currentArrayPosition + 1] = 1;\n                currentArrayPosition += 2;\n            }\n        }\n\n        // Camp actions\n        for (uint256 i = 0; i < playersInQueue.length; i++) {\n            if (\n                QUEUE.submissionAction(queueID, playersInQueue[i]) ==\n                HexplorationQueue.Action.SetupCamp\n            ) {\n                // setup camp\n                // transfer from player to zone\n                // return [to ID, from ID, quantity]\n                // Transfer 1 campsite from player to current zone\n\n                intReturn[currentArrayPosition] = 10000000000; //10000000000 represents current play zone of player\n                intReturn[currentArrayPosition + 1] = playersInQueue[i];\n                intReturn[currentArrayPosition + 2] = 1;\n                currentArrayPosition += 3;\n            }\n        }\n\n        for (uint256 i = 0; i < playersInQueue.length; i++) {\n            if (\n                QUEUE.submissionAction(queueID, playersInQueue[i]) ==\n                HexplorationQueue.Action.BreakDownCamp\n            ) {\n                // break down camp\n                // transfer from zone to player\n                intReturn[currentArrayPosition] = playersInQueue[i];\n                intReturn[currentArrayPosition + 1] = 10000000000;\n                intReturn[currentArrayPosition + 2] = 1;\n                currentArrayPosition += 3;\n            }\n        }\n\n        for (uint256 i = 0; i < playersInQueue.length; i++) {\n            if (\n                QUEUE.submissionAction(queueID, playersInQueue[i]) ==\n                HexplorationQueue.Action.Dig ||\n                QUEUE.submissionAction(queueID, playersInQueue[i]) ==\n                HexplorationQueue.Action.Rest ||\n                QUEUE.submissionAction(queueID, playersInQueue[i]) ==\n                HexplorationQueue.Action.Help\n            ) {\n                intReturn[currentArrayPosition] = playersInQueue[i];\n                currentArrayPosition++;\n            }\n        }\n\n        // following are updated on play through phase only\n        // no inventory transfers or stat adjustments from player action phase\n\n        // only need to store current action as digging, resting, and play out during play phase\n\n        return intReturn;\n    }\n\n    function processedStringArray(\n        DataSummary memory dataSummary,\n        uint256 queueID\n    ) internal view returns (string[] memory) {\n        // TODO: update to actual max value\n        uint256 maxMovementPerPlayer = 7;\n        uint256 stringReturnLength = 1 +\n            (dataSummary.playerPositionUpdates * maxMovementPerPlayer) +\n            dataSummary.playerEquips +\n            dataSummary.playerTransfers +\n            (dataSummary.zoneTransfers * 2) +\n            (dataSummary.activeActions * 2);\n\n        string[] memory stringReturn = new string[](stringReturnLength);\n        // TODO: update to actual game phase...\n        stringReturn[0] = \"Day\";\n\n        uint256[] memory playersInQueue = QUEUE.getAllPlayers(queueID);\n\n        uint256 currentArrayPosition = 1;\n\n        // Movement\n        for (uint256 i = 0; i < playersInQueue.length; i++) {\n            if (\n                QUEUE.submissionAction(queueID, playersInQueue[i]) ==\n                HexplorationQueue.Action.Move\n            ) {\n                string[] memory options = QUEUE.getSubmissionOptions(\n                    queueID,\n                    playersInQueue[i]\n                );\n                for (uint256 j = 0; j < maxMovementPerPlayer; j++) {\n                    stringReturn[currentArrayPosition] = j < options.length\n                        ? options[j]\n                        : \"\";\n                    currentArrayPosition++;\n                }\n            }\n        }\n\n        // LH equip\n        for (uint256 i = 0; i < playersInQueue.length; i++) {\n            if (\n                bytes(QUEUE.submissionLeftHand(queueID, playersInQueue[i]))\n                    .length > 0\n            ) {\n                stringReturn[currentArrayPosition] = QUEUE.submissionLeftHand(\n                    queueID,\n                    playersInQueue[i]\n                );\n                currentArrayPosition++;\n            }\n        }\n\n        // RH equip\n        for (uint256 i = 0; i < playersInQueue.length; i++) {\n            if (\n                bytes(QUEUE.submissionRightHand(queueID, playersInQueue[i]))\n                    .length > 0\n            ) {\n                stringReturn[currentArrayPosition] = QUEUE.submissionRightHand(\n                    queueID,\n                    playersInQueue[i]\n                );\n                currentArrayPosition++;\n            }\n        }\n\n        // Camp actions\n        for (uint256 i = 0; i < playersInQueue.length; i++) {\n            if (\n                QUEUE.submissionAction(queueID, playersInQueue[i]) ==\n                HexplorationQueue.Action.SetupCamp ||\n                QUEUE.submissionAction(queueID, playersInQueue[i]) ==\n                HexplorationQueue.Action.BreakDownCamp\n            ) {\n                stringReturn[currentArrayPosition] = \"Campsite\";\n                currentArrayPosition++;\n            }\n        }\n\n        for (uint256 i = 0; i < playersInQueue.length; i++) {\n            if (\n                QUEUE.submissionAction(queueID, playersInQueue[i]) ==\n                HexplorationQueue.Action.SetupCamp\n            ) {\n                stringReturn[currentArrayPosition] = \"Setup camp\";\n                stringReturn[currentArrayPosition + 1] = \"\";\n                currentArrayPosition += 2;\n            } else if (\n                QUEUE.submissionAction(queueID, playersInQueue[i]) ==\n                HexplorationQueue.Action.BreakDownCamp\n            ) {\n                stringReturn[currentArrayPosition] = \"Break down camp\";\n                stringReturn[currentArrayPosition + 1] = \"\";\n                currentArrayPosition += 2;\n            }\n        }\n\n        // Dig\n        for (uint256 i = 0; i < playersInQueue.length; i++) {\n            if (\n                QUEUE.submissionAction(queueID, playersInQueue[i]) ==\n                HexplorationQueue.Action.Dig\n            ) {\n                stringReturn[currentArrayPosition] = \"Dig\";\n                stringReturn[currentArrayPosition + 1] = \"\";\n                currentArrayPosition += 2;\n            }\n        }\n\n        //Rest\n        for (uint256 i = 0; i < playersInQueue.length; i++) {\n            if (\n                QUEUE.submissionAction(queueID, playersInQueue[i]) ==\n                HexplorationQueue.Action.Rest\n            ) {\n                stringReturn[currentArrayPosition] = \"Rest\";\n                stringReturn[currentArrayPosition + 1] = QUEUE\n                    .submissionOptions(queueID, playersInQueue[i], 0);\n                currentArrayPosition += 2;\n            }\n        }\n\n        // Help\n        for (uint256 i = 0; i < playersInQueue.length; i++) {\n            if (\n                QUEUE.submissionAction(queueID, playersInQueue[i]) ==\n                HexplorationQueue.Action.Help\n            ) {\n                stringReturn[currentArrayPosition] = \"Help\";\n                stringReturn[currentArrayPosition + 1] = QUEUE\n                    .submissionOptions(queueID, playersInQueue[i], 0);\n                currentArrayPosition += 2;\n            }\n        }\n        // set movement zones\n        return stringReturn;\n    }\n\n    function dig(uint256 queueID, uint256 playerID)\n        public\n        view\n        returns (string memory cardType)\n    {\n        // if digging available...\n        // roll dice (d6) for each player on space not resting\n        // if sum of rolls is greater than 5 during night win treasure\n        // if sum of rolls is greater than 4 during day win treasure\n        // return \"Treasure\" or \"Ambush\"\n    }\n\n    function drawCard(\n        string memory cardType,\n        uint256 queueID,\n        uint256 playerID\n    )\n        internal\n        view\n        returns (\n            string memory card,\n            int8 movementAdjust,\n            int8 agilityAdjust,\n            int8 dexterityAdjust,\n            string memory itemTypeLoss,\n            string memory itemTypeGain,\n            string memory handLoss,\n            int256 movementX,\n            int256 movementY\n        )\n    {\n        // get randomness from queue  QUEUE.randomness(queueID)\n        // outputs should match up with what's returned from deck draw\n        if (stringsMatch(cardType, \"Treasure\")) {} else if (\n            stringsMatch(cardType, \"Ambush\")\n        ) {} else if (stringsMatch(cardType, \"Event\")) {}\n    }\n\n    function rollDice(\n        uint256 queueID,\n        uint256[] memory diceValues,\n        uint256 diceQty\n    ) internal view returns (uint256[] memory) {}\n\n    // Utilities\n    function stringsMatch(string memory s1, string memory s2)\n        internal\n        pure\n        returns (bool)\n    {\n        return\n            keccak256(abi.encodePacked(s1)) == keccak256(abi.encodePacked(s2));\n    }\n\n    // returns a - b or 0 if negative;\n    function subToZero(uint256 a, uint256 b)\n        internal\n        pure\n        returns (uint256 difference)\n    {\n        difference = a > b ? a - b : 0;\n    }\n\n    function absoluteValue(int256 x) internal pure returns (uint256 absX) {\n        absX = x >= 0 ? uint256(x) : uint256(-x);\n    }\n}\n\n// What is processing?\n// take all moves from batch, verify are valid moves, and\n// return list of final moves to process\n// keeper will post list of final moves to contract,\n//// *shouldn't be able to fail if it got this far\n// moves that failed pre-check will be returned as another list that will get logged in an event\n\n// Initial thoughts for scaling...\n// figure out most expensive move and only do as many as can be safely completed\n// in one transaction\n// start at currentQueuePosition\n// after each move is processed currentQueuePosition++\n// on after final batch, switch day / night and\n// set QUEUE.setPhase(HexplorationQueue.ProcessingPhase.PlayThrough, queueID);\n",
  "sourcePath": "/Users/maxmeier/Developer/Lucky Machines/hexploration/contracts/HexplorationGameplay.sol",
  "compiler": {
    "name": "solc",
    "version": "0.8.11+commit.d7f03943.Emscripten.clang"
  },
  "schemaVersion": "3.4.4",
  "updatedAt": "2022-05-25T03:09:23.275Z",
  "devdoc": {
    "kind": "dev",
    "methods": {
      "getRoleAdmin(bytes32)": {
        "details": "Returns the admin role that controls `role`. See {grantRole} and {revokeRole}. To change a role's admin, use {_setRoleAdmin}."
      },
      "getRoleMember(bytes32,uint256)": {
        "details": "Returns one of the accounts that have `role`. `index` must be a value between 0 and {getRoleMemberCount}, non-inclusive. Role bearers are not sorted in any particular way, and their ordering may change at any point. WARNING: When using {getRoleMember} and {getRoleMemberCount}, make sure you perform all queries on the same block. See the following https://forum.openzeppelin.com/t/iterating-over-elements-on-enumerableset-in-openzeppelin-contracts/2296[forum post] for more information."
      },
      "getRoleMemberCount(bytes32)": {
        "details": "Returns the number of accounts that have `role`. Can be used together with {getRoleMember} to enumerate all bearers of a role."
      },
      "grantRole(bytes32,address)": {
        "details": "Grants `role` to `account`. If `account` had not been already granted `role`, emits a {RoleGranted} event. Requirements: - the caller must have ``role``'s admin role."
      },
      "hasRole(bytes32,address)": {
        "details": "Returns `true` if `account` has been granted `role`."
      },
      "renounceRole(bytes32,address)": {
        "details": "Revokes `role` from the calling account. Roles are often managed via {grantRole} and {revokeRole}: this function's purpose is to provide a mechanism for accounts to lose their privileges if they are compromised (such as when a trusted device is misplaced). If the calling account had been revoked `role`, emits a {RoleRevoked} event. Requirements: - the caller must be `account`."
      },
      "revokeRole(bytes32,address)": {
        "details": "Revokes `role` from `account`. If `account` had been granted `role`, emits a {RoleRevoked} event. Requirements: - the caller must have ``role``'s admin role."
      },
      "supportsInterface(bytes4)": {
        "details": "See {IERC165-supportsInterface}."
      }
    },
    "version": 1
  },
  "userdoc": {
    "kind": "user",
    "methods": {},
    "version": 1
  }
}