{
  "contractName": "HexplorationQueue",
  "abi": [
    {
      "inputs": [
        {
          "internalType": "address",
          "name": "gameplayAddress",
          "type": "address"
        }
      ],
      "stateMutability": "nonpayable",
      "type": "constructor"
    },
    {
      "anonymous": false,
      "inputs": [
        {
          "indexed": true,
          "internalType": "bytes32",
          "name": "role",
          "type": "bytes32"
        },
        {
          "indexed": true,
          "internalType": "bytes32",
          "name": "previousAdminRole",
          "type": "bytes32"
        },
        {
          "indexed": true,
          "internalType": "bytes32",
          "name": "newAdminRole",
          "type": "bytes32"
        }
      ],
      "name": "RoleAdminChanged",
      "type": "event"
    },
    {
      "anonymous": false,
      "inputs": [
        {
          "indexed": true,
          "internalType": "bytes32",
          "name": "role",
          "type": "bytes32"
        },
        {
          "indexed": true,
          "internalType": "address",
          "name": "account",
          "type": "address"
        },
        {
          "indexed": true,
          "internalType": "address",
          "name": "sender",
          "type": "address"
        }
      ],
      "name": "RoleGranted",
      "type": "event"
    },
    {
      "anonymous": false,
      "inputs": [
        {
          "indexed": true,
          "internalType": "bytes32",
          "name": "role",
          "type": "bytes32"
        },
        {
          "indexed": true,
          "internalType": "address",
          "name": "account",
          "type": "address"
        },
        {
          "indexed": true,
          "internalType": "address",
          "name": "sender",
          "type": "address"
        }
      ],
      "name": "RoleRevoked",
      "type": "event"
    },
    {
      "inputs": [],
      "name": "DEFAULT_ADMIN_ROLE",
      "outputs": [
        {
          "internalType": "bytes32",
          "name": "",
          "type": "bytes32"
        }
      ],
      "stateMutability": "view",
      "type": "function",
      "constant": true
    },
    {
      "inputs": [],
      "name": "GAMEPLAY_ROLE",
      "outputs": [
        {
          "internalType": "bytes32",
          "name": "",
          "type": "bytes32"
        }
      ],
      "stateMutability": "view",
      "type": "function",
      "constant": true
    },
    {
      "inputs": [],
      "name": "VERIFIED_CONTROLLER_ROLE",
      "outputs": [
        {
          "internalType": "bytes32",
          "name": "",
          "type": "bytes32"
        }
      ],
      "stateMutability": "view",
      "type": "function",
      "constant": true
    },
    {
      "inputs": [
        {
          "internalType": "uint256",
          "name": "",
          "type": "uint256"
        }
      ],
      "name": "currentPhase",
      "outputs": [
        {
          "internalType": "enum HexplorationQueue.ProcessingPhase",
          "name": "",
          "type": "uint8"
        }
      ],
      "stateMutability": "view",
      "type": "function",
      "constant": true
    },
    {
      "inputs": [
        {
          "internalType": "uint256",
          "name": "",
          "type": "uint256"
        }
      ],
      "name": "currentQueuePosition",
      "outputs": [
        {
          "internalType": "uint16",
          "name": "",
          "type": "uint16"
        }
      ],
      "stateMutability": "view",
      "type": "function",
      "constant": true
    },
    {
      "inputs": [
        {
          "internalType": "uint256",
          "name": "",
          "type": "uint256"
        }
      ],
      "name": "game",
      "outputs": [
        {
          "internalType": "uint256",
          "name": "",
          "type": "uint256"
        }
      ],
      "stateMutability": "view",
      "type": "function",
      "constant": true
    },
    {
      "inputs": [
        {
          "internalType": "bytes32",
          "name": "role",
          "type": "bytes32"
        }
      ],
      "name": "getRoleAdmin",
      "outputs": [
        {
          "internalType": "bytes32",
          "name": "",
          "type": "bytes32"
        }
      ],
      "stateMutability": "view",
      "type": "function",
      "constant": true
    },
    {
      "inputs": [
        {
          "internalType": "bytes32",
          "name": "role",
          "type": "bytes32"
        },
        {
          "internalType": "uint256",
          "name": "index",
          "type": "uint256"
        }
      ],
      "name": "getRoleMember",
      "outputs": [
        {
          "internalType": "address",
          "name": "",
          "type": "address"
        }
      ],
      "stateMutability": "view",
      "type": "function",
      "constant": true
    },
    {
      "inputs": [
        {
          "internalType": "bytes32",
          "name": "role",
          "type": "bytes32"
        }
      ],
      "name": "getRoleMemberCount",
      "outputs": [
        {
          "internalType": "uint256",
          "name": "",
          "type": "uint256"
        }
      ],
      "stateMutability": "view",
      "type": "function",
      "constant": true
    },
    {
      "inputs": [
        {
          "internalType": "bytes32",
          "name": "role",
          "type": "bytes32"
        },
        {
          "internalType": "address",
          "name": "account",
          "type": "address"
        }
      ],
      "name": "grantRole",
      "outputs": [],
      "stateMutability": "nonpayable",
      "type": "function"
    },
    {
      "inputs": [
        {
          "internalType": "bytes32",
          "name": "role",
          "type": "bytes32"
        },
        {
          "internalType": "address",
          "name": "account",
          "type": "address"
        }
      ],
      "name": "hasRole",
      "outputs": [
        {
          "internalType": "bool",
          "name": "",
          "type": "bool"
        }
      ],
      "stateMutability": "view",
      "type": "function",
      "constant": true
    },
    {
      "inputs": [
        {
          "internalType": "uint256",
          "name": "",
          "type": "uint256"
        }
      ],
      "name": "inProcessingQueue",
      "outputs": [
        {
          "internalType": "bool",
          "name": "",
          "type": "bool"
        }
      ],
      "stateMutability": "view",
      "type": "function",
      "constant": true
    },
    {
      "inputs": [
        {
          "internalType": "uint256",
          "name": "",
          "type": "uint256"
        }
      ],
      "name": "playThroughPosition",
      "outputs": [
        {
          "internalType": "uint16",
          "name": "",
          "type": "uint16"
        }
      ],
      "stateMutability": "view",
      "type": "function",
      "constant": true
    },
    {
      "inputs": [
        {
          "internalType": "uint256",
          "name": "",
          "type": "uint256"
        },
        {
          "internalType": "uint256",
          "name": "",
          "type": "uint256"
        }
      ],
      "name": "playerSubmitted",
      "outputs": [
        {
          "internalType": "bool",
          "name": "",
          "type": "bool"
        }
      ],
      "stateMutability": "view",
      "type": "function",
      "constant": true
    },
    {
      "inputs": [
        {
          "internalType": "uint256",
          "name": "",
          "type": "uint256"
        },
        {
          "internalType": "uint256",
          "name": "",
          "type": "uint256"
        }
      ],
      "name": "players",
      "outputs": [
        {
          "internalType": "uint256",
          "name": "",
          "type": "uint256"
        }
      ],
      "stateMutability": "view",
      "type": "function",
      "constant": true
    },
    {
      "inputs": [
        {
          "internalType": "uint256",
          "name": "",
          "type": "uint256"
        }
      ],
      "name": "processingQueue",
      "outputs": [
        {
          "internalType": "uint256",
          "name": "",
          "type": "uint256"
        }
      ],
      "stateMutability": "view",
      "type": "function",
      "constant": true
    },
    {
      "inputs": [
        {
          "internalType": "uint256",
          "name": "",
          "type": "uint256"
        }
      ],
      "name": "queueID",
      "outputs": [
        {
          "internalType": "uint256",
          "name": "",
          "type": "uint256"
        }
      ],
      "stateMutability": "view",
      "type": "function",
      "constant": true
    },
    {
      "inputs": [
        {
          "internalType": "bytes32",
          "name": "role",
          "type": "bytes32"
        },
        {
          "internalType": "address",
          "name": "account",
          "type": "address"
        }
      ],
      "name": "renounceRole",
      "outputs": [],
      "stateMutability": "nonpayable",
      "type": "function"
    },
    {
      "inputs": [
        {
          "internalType": "bytes32",
          "name": "role",
          "type": "bytes32"
        },
        {
          "internalType": "address",
          "name": "account",
          "type": "address"
        }
      ],
      "name": "revokeRole",
      "outputs": [],
      "stateMutability": "nonpayable",
      "type": "function"
    },
    {
      "inputs": [
        {
          "internalType": "uint256",
          "name": "",
          "type": "uint256"
        },
        {
          "internalType": "uint256",
          "name": "",
          "type": "uint256"
        }
      ],
      "name": "submissionAction",
      "outputs": [
        {
          "internalType": "enum HexplorationQueue.Action",
          "name": "",
          "type": "uint8"
        }
      ],
      "stateMutability": "view",
      "type": "function",
      "constant": true
    },
    {
      "inputs": [
        {
          "internalType": "uint256",
          "name": "",
          "type": "uint256"
        },
        {
          "internalType": "uint256",
          "name": "",
          "type": "uint256"
        }
      ],
      "name": "submissionLeftHand",
      "outputs": [
        {
          "internalType": "string",
          "name": "",
          "type": "string"
        }
      ],
      "stateMutability": "view",
      "type": "function",
      "constant": true
    },
    {
      "inputs": [
        {
          "internalType": "uint256",
          "name": "",
          "type": "uint256"
        },
        {
          "internalType": "uint256",
          "name": "",
          "type": "uint256"
        },
        {
          "internalType": "uint256",
          "name": "",
          "type": "uint256"
        }
      ],
      "name": "submissionOptions",
      "outputs": [
        {
          "internalType": "string",
          "name": "",
          "type": "string"
        }
      ],
      "stateMutability": "view",
      "type": "function",
      "constant": true
    },
    {
      "inputs": [
        {
          "internalType": "uint256",
          "name": "",
          "type": "uint256"
        },
        {
          "internalType": "uint256",
          "name": "",
          "type": "uint256"
        }
      ],
      "name": "submissionRightHand",
      "outputs": [
        {
          "internalType": "string",
          "name": "",
          "type": "string"
        }
      ],
      "stateMutability": "view",
      "type": "function",
      "constant": true
    },
    {
      "inputs": [
        {
          "internalType": "bytes4",
          "name": "interfaceId",
          "type": "bytes4"
        }
      ],
      "name": "supportsInterface",
      "outputs": [
        {
          "internalType": "bool",
          "name": "",
          "type": "bool"
        }
      ],
      "stateMutability": "view",
      "type": "function",
      "constant": true
    },
    {
      "inputs": [
        {
          "internalType": "uint256",
          "name": "",
          "type": "uint256"
        }
      ],
      "name": "totalPlayers",
      "outputs": [
        {
          "internalType": "uint256",
          "name": "",
          "type": "uint256"
        }
      ],
      "stateMutability": "view",
      "type": "function",
      "constant": true
    },
    {
      "inputs": [
        {
          "internalType": "address",
          "name": "controllerAddress",
          "type": "address"
        }
      ],
      "name": "addVerifiedController",
      "outputs": [],
      "stateMutability": "nonpayable",
      "type": "function"
    },
    {
      "inputs": [
        {
          "internalType": "uint256",
          "name": "gameID",
          "type": "uint256"
        },
        {
          "internalType": "uint256",
          "name": "_totalPlayers",
          "type": "uint256"
        }
      ],
      "name": "requestGameQueue",
      "outputs": [
        {
          "internalType": "uint256",
          "name": "",
          "type": "uint256"
        }
      ],
      "stateMutability": "nonpayable",
      "type": "function"
    },
    {
      "inputs": [
        {
          "internalType": "uint256",
          "name": "_queueID",
          "type": "uint256"
        }
      ],
      "name": "startGame",
      "outputs": [],
      "stateMutability": "nonpayable",
      "type": "function"
    },
    {
      "inputs": [
        {
          "internalType": "uint256",
          "name": "playerID",
          "type": "uint256"
        },
        {
          "internalType": "uint8",
          "name": "action",
          "type": "uint8"
        },
        {
          "internalType": "string[]",
          "name": "options",
          "type": "string[]"
        },
        {
          "internalType": "string",
          "name": "leftHand",
          "type": "string"
        },
        {
          "internalType": "string",
          "name": "rightHand",
          "type": "string"
        },
        {
          "internalType": "uint256",
          "name": "_queueID",
          "type": "uint256"
        }
      ],
      "name": "sumbitActionForPlayer",
      "outputs": [],
      "stateMutability": "nonpayable",
      "type": "function"
    },
    {
      "inputs": [
        {
          "internalType": "uint256",
          "name": "_queueID",
          "type": "uint256"
        }
      ],
      "name": "requestProcessActions",
      "outputs": [],
      "stateMutability": "nonpayable",
      "type": "function"
    },
    {
      "inputs": [
        {
          "internalType": "uint256",
          "name": "_queueID",
          "type": "uint256"
        }
      ],
      "name": "getAllPlayers",
      "outputs": [
        {
          "internalType": "uint256[]",
          "name": "",
          "type": "uint256[]"
        }
      ],
      "stateMutability": "view",
      "type": "function",
      "constant": true
    },
    {
      "inputs": [
        {
          "internalType": "uint256",
          "name": "_queueID",
          "type": "uint256"
        },
        {
          "internalType": "uint256",
          "name": "_playerID",
          "type": "uint256"
        }
      ],
      "name": "getSubmissionOptions",
      "outputs": [
        {
          "internalType": "string[]",
          "name": "",
          "type": "string[]"
        }
      ],
      "stateMutability": "view",
      "type": "function",
      "constant": true
    },
    {
      "inputs": [
        {
          "internalType": "enum HexplorationQueue.ProcessingPhase",
          "name": "phase",
          "type": "uint8"
        },
        {
          "internalType": "uint256",
          "name": "_queueID",
          "type": "uint256"
        }
      ],
      "name": "setPhase",
      "outputs": [],
      "stateMutability": "nonpayable",
      "type": "function"
    },
    {
      "inputs": [
        {
          "internalType": "uint256",
          "name": "randomNumber",
          "type": "uint256"
        },
        {
          "internalType": "uint256",
          "name": "_queueID",
          "type": "uint256"
        }
      ],
      "name": "setRandomNumber",
      "outputs": [],
      "stateMutability": "nonpayable",
      "type": "function"
    },
    {
      "inputs": [
        {
          "internalType": "uint256",
          "name": "_queueID",
          "type": "uint256"
        }
      ],
      "name": "requestNewQueueID",
      "outputs": [],
      "stateMutability": "nonpayable",
      "type": "function"
    },
    {
      "inputs": [
        {
          "internalType": "uint256[]",
          "name": "intUpdates",
          "type": "uint256[]"
        },
        {
          "internalType": "string[]",
          "name": "stringUpdates",
          "type": "string[]"
        }
      ],
      "name": "postUpdates",
      "outputs": [],
      "stateMutability": "nonpayable",
      "type": "function"
    },
    {
      "inputs": [
        {
          "internalType": "uint256",
          "name": "_queueID",
          "type": "uint256"
        },
        {
          "internalType": "bool",
          "name": "gameComplete",
          "type": "bool"
        }
      ],
      "name": "finishProcessing",
      "outputs": [],
      "stateMutability": "nonpayable",
      "type": "function"
    }
  ],
  "bytecode": "0x60806040523480156200001157600080fd5b506040516200214a3803806200214a83398101604081905262000034916200027d565b6200005c60006200004d640100000000620000b2810204565b640100000000620000b6810204565b620000917f0c2c7e957bdf811d5a896b04e816b9c382dfb980c93b21b0288b75c85d598acd82640100000000620000b6810204565b620000ab600264010000000062000dfd620000cf82021704565b50620002af565b3390565b620000cb8282640100000000620000d8810204565b5050565b80546001019055565b620000f2828264010000000062000e066200011f82021704565b60008281526001602052604090206200011a908264010000000062000e8a620001bb82021704565b505050565b620001348282640100000000620001e4810204565b620000cb57600082815260208181526040808320600160a060020a03851684529091529020805460ff1916600117905562000177640100000000620000b2810204565b600160a060020a031681600160a060020a0316837f2f8788117e7eff1d82e926ec794901d17c78024a50270940304540a733656f0d60405160405180910390a45050565b6000620001db83600160a060020a0384166401000000006200020d810204565b90505b92915050565b600091825260208281526040808420600160a060020a0393909316845291905290205460ff1690565b600062000224838364010000000062000265810204565b6200025c57508154600181810184556000848152602080822090930184905584548482528286019093526040902091909155620001de565b506000620001de565b60009081526001919091016020526040902054151590565b6000602082840312156200029057600080fd5b8151600160a060020a0381168114620002a857600080fd5b9392505050565b611e8b80620002bf6000396000f3fe608060405234801561001057600080fd5b5060043610610244576000357c010000000000000000000000000000000000000000000000000000000090048063998f1b801161014d578063b1fb6405116100d5578063d809371f11610099578063d809371f146105b6578063e2f315c1146105c9578063e5ed1d59146105ed578063e73ed37f14610600578063fd82e21f1461062e57600080fd5b8063b1fb64051461052d578063ca15c8731461055d578063cddbe72914610570578063d4f5b15214610590578063d547741f146105a357600080fd5b8063a217fddf1161011c578063a217fddf146104b2578063a2dc5860146104ba578063ac01b83d146104da578063ae6a7056146104fa578063af7afe561461050d57600080fd5b8063998f1b80146104565780639b8e6819146104695780639bd78d2b1461047c5780639f6bc61d1461049f57600080fd5b80632f2ff15d116101d05780637f0415911161019f5780637f041591146103aa578063861814e2146103e55780638e6e1d89146104055780639010d07c1461041857806391d148541461044357600080fd5b80632f2ff15d1461035e57806336568abe146103715780635da4fabc146103845780636b775e5c1461039757600080fd5b80631826d842116102175780631826d842146102de5780631b341b3e146102f15780631c834a7f14610311578063248a9ca31461032657806328d6b4c01461034957600080fd5b806301ffc9a71461024957806304ac8fee1461027157806306fb5527146102865780630c6ea531146102a7575b600080fd5b61025c61025736600461171e565b610641565b60405190151581526020015b60405180910390f35b61028461027f366004611748565b610685565b005b610299610294366004611778565b6106d2565b604051908152602001610268565b6102cb6102b536600461179a565b60046020526000908152604090205461ffff1681565b60405161ffff9091168152602001610268565b6102846102ec36600461191e565b6106fe565b6103046102ff3660046119d4565b61071b565b6040516102689190611a5c565b610299600080516020611e3683398151915281565b61029961033436600461179a565b60009081526020819052604090206001015490565b610299600080516020611e1683398151915281565b61028461036c366004611a8b565b6107e1565b61028461037f366004611a8b565b610806565b610284610392366004611778565b61089a565b6102846103a536600461179a565b6108c4565b6103d86103b8366004611778565b600c60209081526000928352604080842090915290825290205460ff1681565b6040516102689190611ad0565b6102996103f336600461179a565b60066020526000908152604090205481565b610284610413366004611aea565b6108e5565b61042b610426366004611778565b610907565b604051600160a060020a039091168152602001610268565b61025c610451366004611a8b565b610926565b610299610464366004611778565b61094f565b610304610477366004611778565b610980565b61025c61048a36600461179a565b60076020526000908152604090205460ff1681565b6102996104ad36600461179a565b6109a4565b610299600081565b6104cd6104c8366004611778565b6109c5565b6040516102689190611b1f565b6104ed6104e836600461179a565b610ab3565b6040516102689190611b80565b610284610508366004611bc4565b610b15565b61029961051b36600461179a565b600b6020526000908152604090205481565b61055061053b36600461179a565b60086020526000908152604090205460ff1681565b6040516102689190611c77565b61029961056b36600461179a565b610cf1565b61029961057e36600461179a565b60096020526000908152604090205481565b61028461059e366004611c8b565b610d08565b6102846105b1366004611a8b565b610d2b565b6102846105c436600461179a565b610d50565b6102cb6105d736600461179a565b60056020526000908152604090205461ffff1681565b6102846105fb36600461179a565b610da5565b61025c61060e366004611778565b601060209081526000928352604080842090915290825290205460ff1681565b61030461063c366004611778565b610dd9565b6000600160e060020a031982167f5a05180f00000000000000000000000000000000000000000000000000000000148061067f575061067f82610e9f565b92915050565b600080516020611e1683398151915261069d81610f06565b6000828152600860205260409020805484919060ff191660018360058111156106c8576106c8611ab7565b0217905550505050565b6000600080516020611e368339815191526106ec81610f06565b6106f68484610f13565b949350505050565b600080516020611e1683398151915261071681610f06565b505050565b600d602052826000526040600020602052816000526040600020818154811061074357600080fd5b906000526020600020016000925092505050805461076090611ca6565b80601f016020809104026020016040519081016040528092919081815260200182805461078c90611ca6565b80156107d95780601f106107ae576101008083540402835291602001916107d9565b820191906000526020600020905b8154815290600101906020018083116107bc57829003601f168201915b505050505081565b6000828152602081905260409020600101546107fc81610f06565b6107168383610fbb565b600160a060020a038116331461088c5760405160e560020a62461bcd02815260206004820152602f60248201527f416363657373436f6e74726f6c3a2063616e206f6e6c792072656e6f756e636560448201527f20726f6c657320666f722073656c66000000000000000000000000000000000060648201526084015b60405180910390fd5b6108968282610fdd565b5050565b600080516020611e168339815191526108b281610f06565b50600090815260116020526040902055565b600080516020611e368339815191526108dc81610f06565b61089682610fff565b600080516020611e168339815191526108fd81610f06565b61071683836110a8565b600082815260016020526040812061091f9083611128565b9392505050565b600091825260208281526040808420600160a060020a0393909316845291905290205460ff1690565b600a602052816000526040600020818154811061096b57600080fd5b90600052602060002001600091509150505481565b600f6020908152600092835260408084209091529082529020805461076090611ca6565b600381815481106109b457600080fd5b600091825260209091200154905081565b6000828152600d602090815260408083208484528252808320805482518185028101850190935280835260609492939192909184015b82821015610aa7578382906000526020600020018054610a1a90611ca6565b80601f0160208091040260200160405190810160405280929190818152602001828054610a4690611ca6565b8015610a935780601f10610a6857610100808354040283529160200191610a93565b820191906000526020600020905b815481529060010190602001808311610a7657829003601f168201915b5050505050815260200190600101906109fb565b50505050905092915050565b6000818152600a6020908152604091829020805483518184028101840190945280845260609392830182828015610b0957602002820191906000526020600020905b815481526020019060010190808311610af5575b50505050509050919050565b600080516020611e36833981519152610b2d81610f06565b600160008381526008602052604090205460ff166005811115610b5257610b52611ab7565b14610ba25760405160e560020a62461bcd02815260206004820152601460248201527f4e6f74207375626d697373696f6e2070686173650000000000000000000000006044820152606401610883565b60008281526010602090815260408083208a845290915290205460ff16610ce8578560ff166006811115610bd857610bd8611ab7565b6000838152600c602090815260408083208b84529091529020805460ff19166001836006811115610c0b57610c0b611ab7565b02179055506000828152600d602090815260408083208a845282529091208651610c37928801906115d5565b506000828152600e602090815260408083208a845282529091208551610c5f92870190611632565b506000828152600f602090815260408083208a845282529091208451610c8792860190611632565b506000828152600a602081815260408084208054600181810183558287528487209091018d9055878652601084528286208d87528452828620805460ff19169091179055868552600b8352932054919052905410610ce857610ce882610fff565b50505050505050565b600081815260016020526040812061067f90611134565b6000610d1381610f06565b610896600080516020611e36833981519152836107e1565b600082815260208190526040902060010154610d4681610f06565b6107168383610fdd565b600080516020611e16833981519152610d6881610f06565b600082815260096020908152604080832054600b90925290912054610d8d8282610f13565b60009283526006602052604090922091909155505050565b600080516020611e36833981519152610dbd81610f06565b506000908152600860205260409020805460ff19166001179055565b600e6020908152600092835260408084209091529082529020805461076090611ca6565b80546001019055565b610e108282610926565b61089657600082815260208181526040808320600160a060020a03851684529091529020805460ff19166001179055610e463390565b600160a060020a031681600160a060020a0316837f2f8788117e7eff1d82e926ec794901d17c78024a50270940304540a733656f0d60405160405180910390a45050565b600061091f83600160a060020a03841661113e565b6000600160e060020a031982167f7965db0b00000000000000000000000000000000000000000000000000000000148061067f57507f01ffc9a700000000000000000000000000000000000000000000000000000000600160e060020a031983161461067f565b610f10813361118d565b50565b60008281526006602052604081205415610f725760405160e560020a62461bcd02815260206004820152601160248201527f717565756520616c7265616479207365740000000000000000000000000000006044820152606401610883565b6000610f7d60025490565b600081815260096020908152604080832088905587835260068252808320849055838352600b9091529020849055905061091f600280546001019055565b610fc58282610e06565b60008281526001602052604090206107169082610e8a565b610fe782826111f4565b60008281526001602052604090206107169082611259565b60008181526007602052604090205460ff161580156110405750600160008281526008602052604090205460ff16600581111561103e5761103e611ab7565b145b15610f10576003805460018082019092557fc2575a0e9e593c00f959f8c92f12db2869c3395a3b0502d05e2516446f71f85b018290556000918252600760209081526040808420805460ff199081169094179055600890915290912080549091166002179055565b60008281526009602090815260408083205460088352818420805460ff19166004179055808452600690925282209190915581610716576000838152600b6020526040812054906110f98383610f13565b600093845260066020908152604080862083905591855260089052909220805460ff1916600117905550505050565b600061091f838361126e565b600061067f825490565b60008181526001830160205260408120546111855750815460018181018455600084815260208082209093018490558454848252828601909352604090209190915561067f565b50600061067f565b6111978282610926565b610896576111af81600160a060020a03166014611298565b6111ba836020611298565b6040516020016111cb929190611ce4565b60408051601f198184030181529082905260e560020a62461bcd02825261088391600401611a5c565b6111fe8282610926565b1561089657600082815260208181526040808320600160a060020a0385168085529252808320805460ff1916905551339285917ff6391f5c32d9c69d2a47ea670b442974b53935d1edc7fd64eb21e047a839171b9190a45050565b600061091f83600160a060020a0384166114e2565b600082600001828154811061128557611285611d65565b9060005260206000200154905092915050565b606060006112a7836002611d97565b6112b2906002611db6565b67ffffffffffffffff8111156112ca576112ca6117b3565b6040519080825280601f01601f1916602001820160405280156112f4576020820181803683370190505b5090507f30000000000000000000000000000000000000000000000000000000000000008160008151811061132b5761132b611d65565b60200101907effffffffffffffffffffffffffffffffffffffffffffffffffffffffffffff1916908160001a9053507f78000000000000000000000000000000000000000000000000000000000000008160018151811061138e5761138e611d65565b60200101907effffffffffffffffffffffffffffffffffffffffffffffffffffffffffffff1916908160001a90535060006113ca846002611d97565b6113d5906001611db6565b90505b6001811115611490577f303132333435363738396162636465660000000000000000000000000000000085600f166010811061141657611416611d65565b1a7f01000000000000000000000000000000000000000000000000000000000000000282828151811061144b5761144b611d65565b60200101907effffffffffffffffffffffffffffffffffffffffffffffffffffffffffffff1916908160001a90535060109094049361148981611dce565b90506113d8565b50831561091f5760405160e560020a62461bcd02815260206004820181905260248201527f537472696e67733a20686578206c656e67746820696e73756666696369656e746044820152606401610883565b600081815260018301602052604081205480156115cb576000611506600183611de5565b855490915060009061151a90600190611de5565b905081811461157f57600086600001828154811061153a5761153a611d65565b906000526020600020015490508087600001848154811061155d5761155d611d65565b6000918252602080832090910192909255918252600188019052604090208390555b855486908061159057611590611dfc565b60019003818190600052602060002001600090559055856001016000868152602001908152602001600020600090556001935050505061067f565b600091505061067f565b828054828255906000526020600020908101928215611622579160200282015b828111156116225782518051611612918491602090910190611632565b50916020019190600101906115f5565b5061162e9291506116b2565b5090565b82805461163e90611ca6565b90600052602060002090601f01602090048101928261166057600085556116a6565b82601f1061167957805160ff19168380011785556116a6565b828001600101855582156116a6579182015b828111156116a657825182559160200191906001019061168b565b5061162e9291506116cf565b8082111561162e5760006116c682826116e4565b506001016116b2565b5b8082111561162e57600081556001016116d0565b5080546116f090611ca6565b6000825580601f10611700575050565b601f016020900490600052602060002090810190610f1091906116cf565b60006020828403121561173057600080fd5b8135600160e060020a03198116811461091f57600080fd5b6000806040838503121561175b57600080fd5b82356006811061176a57600080fd5b946020939093013593505050565b6000806040838503121561178b57600080fd5b50508035926020909101359150565b6000602082840312156117ac57600080fd5b5035919050565b60e060020a634e487b7102600052604160045260246000fd5b604051601f8201601f1916810167ffffffffffffffff811182821017156117f5576117f56117b3565b604052919050565b600067ffffffffffffffff821115611817576118176117b3565b5060209081020190565b600082601f83011261183257600080fd5b813567ffffffffffffffff81111561184c5761184c6117b3565b61185f601f8201601f19166020016117cc565b81815284602083860101111561187457600080fd5b816020850160208301376000918101602001919091529392505050565b600082601f8301126118a257600080fd5b813560206118b76118b2836117fd565b6117cc565b828152918102840181019181810190868411156118d357600080fd5b8286015b8481101561191357803567ffffffffffffffff8111156118f75760008081fd5b6119058986838b0101611821565b8452509183019183016118d7565b509695505050505050565b6000806040838503121561193157600080fd5b823567ffffffffffffffff8082111561194957600080fd5b818501915085601f83011261195d57600080fd5b8135602061196d6118b2836117fd565b8281529181028401810191818101908984111561198957600080fd5b948201945b838610156119a75785358252948201949082019061198e565b965050860135925050808211156119bd57600080fd5b506119ca85828601611891565b9150509250929050565b6000806000606084860312156119e957600080fd5b505081359360208301359350604090920135919050565b60005b83811015611a1b578181015183820152602001611a03565b83811115611a2a576000848401525b50505050565b60008151808452611a48816020860160208601611a00565b601f01601f19169290920160200192915050565b60208152600061091f6020830184611a30565b8035600160a060020a0381168114611a8657600080fd5b919050565b60008060408385031215611a9e57600080fd5b82359150611aae60208401611a6f565b90509250929050565b60e060020a634e487b7102600052602160045260246000fd5b6020810160078310611ae457611ae4611ab7565b91905290565b60008060408385031215611afd57600080fd5b8235915060208301358015158114611b1457600080fd5b809150509250929050565b600060208083018184528085518083526040860191506040848202870101925083870160005b82811015611b7357603f19888603018452611b61858351611a30565b94509285019290850190600101611b45565b5092979650505050505050565b6020808252825182820181905260009190848201906040850190845b81811015611bb857835183529284019291840191600101611b9c565b50909695505050505050565b60008060008060008060c08789031215611bdd57600080fd5b86359550602087013560ff81168114611bf557600080fd5b9450604087013567ffffffffffffffff80821115611c1257600080fd5b611c1e8a838b01611891565b95506060890135915080821115611c3457600080fd5b611c408a838b01611821565b94506080890135915080821115611c5657600080fd5b50611c6389828a01611821565b92505060a087013590509295509295509295565b6020810160068310611ae457611ae4611ab7565b600060208284031215611c9d57600080fd5b61091f82611a6f565b600281046001821680611cba57607f821691505b60208210811415611cde5760e060020a634e487b7102600052602260045260246000fd5b50919050565b7f416363657373436f6e74726f6c3a206163636f756e7420000000000000000000815260008351611d1c816017850160208801611a00565b7f206973206d697373696e6720726f6c65200000000000000000000000000000006017918401918201528351611d59816028840160208801611a00565b01602801949350505050565b60e060020a634e487b7102600052603260045260246000fd5b60e060020a634e487b7102600052601160045260246000fd5b6000816000190483118215151615611db157611db1611d7e565b500290565b60008219821115611dc957611dc9611d7e565b500190565b600081611ddd57611ddd611d7e565b506000190190565b600082821015611df757611df7611d7e565b500390565b60e060020a634e487b7102600052603160045260246000fdfe0c2c7e957bdf811d5a896b04e816b9c382dfb980c93b21b0288b75c85d598acd80e2196015fc06a9d891759f8e4f51eb314ef5e9ea068528a8ed0063b87759f0a2646970667358221220175321dfc591e64a7d37083ed3af992c2346014874464ea1a1cb1dca06cba69a64736f6c634300080b0033",
  "immutableReferences": {},
  "source": "// SPDX-License-Identifier: GPL-3.0\n/* Notes:\n//add address of queue to board on deployment\n// ????? uint256 queueIndex = 0; // increase with each phase processed so we don't have to clean the queue\n*/\npragma solidity >=0.7.0 <0.9.0;\n\nimport \"@openzeppelin/contracts/access/AccessControlEnumerable.sol\";\nimport \"@openzeppelin/contracts/utils/Counters.sol\";\n\ncontract HexplorationQueue is AccessControlEnumerable {\n    using Counters for Counters.Counter;\n    Counters.Counter internal QUEUE_ID;\n\n    enum ProcessingPhase {\n        Start,\n        Submission,\n        Processing,\n        PlayThrough,\n        Processed,\n        Closed\n    }\n    enum Action {\n        Idle,\n        Move,\n        SetupCamp,\n        BreakDownCamp,\n        Dig,\n        Rest,\n        Help\n    }\n\n    bytes32 public constant VERIFIED_CONTROLLER_ROLE =\n        keccak256(\"VERIFIED_CONTROLLER_ROLE\");\n    bytes32 public constant GAMEPLAY_ROLE = keccak256(\"GAMEPLAY_ROLE\");\n\n    // Array of Queue IDs to be processed.\n    uint256[] public processingQueue;\n\n    // do we need these 2?\n    mapping(uint256 => uint16) public currentQueuePosition; // ?? increases with each player in queue, then back to 0\n    mapping(uint256 => uint16) public playThroughPosition; // ?? in case we need to batch this too... hopefully not.\n\n    // mapping from game ID\n    mapping(uint256 => uint256) public queueID; // mapping from game ID to it's queue, updates to 0 when finished\n\n    // mappings from queue index\n    mapping(uint256 => bool) public inProcessingQueue; // game queue is in processing queue\n    mapping(uint256 => ProcessingPhase) public currentPhase; // processingPhase\n    mapping(uint256 => uint256) public game; // mapping from queue ID to it's game ID\n    mapping(uint256 => uint256[]) public players; // all players with moves to process\n    mapping(uint256 => uint256) public totalPlayers; // total # of players who will be submitting\n\n    // mappings from queue index => player id\n    mapping(uint256 => mapping(uint256 => Action)) public submissionAction;\n    mapping(uint256 => mapping(uint256 => string[])) public submissionOptions;\n    mapping(uint256 => mapping(uint256 => string)) public submissionLeftHand;\n    mapping(uint256 => mapping(uint256 => string)) public submissionRightHand;\n    mapping(uint256 => mapping(uint256 => bool)) public playerSubmitted;\n\n    mapping(uint256 => uint256) randomness; // randomness delivered here at start of each phase processing\n\n    ///////  VRF can kick off processing phase\n\n    constructor(address gameplayAddress) {\n        _setupRole(DEFAULT_ADMIN_ROLE, _msgSender());\n        _setupRole(GAMEPLAY_ROLE, gameplayAddress);\n        QUEUE_ID.increment(); // start at 1\n    }\n\n    // Can set multiple VCs, one for manual pushing, one for keeper\n    function addVerifiedController(address controllerAddress)\n        public\n        onlyRole(DEFAULT_ADMIN_ROLE)\n    {\n        grantRole(VERIFIED_CONTROLLER_ROLE, controllerAddress);\n    }\n\n    // pass total # players making submissions\n    // total can be less than actual totalPlayers in game\n    function requestGameQueue(uint256 gameID, uint256 _totalPlayers)\n        external\n        onlyRole(VERIFIED_CONTROLLER_ROLE)\n        returns (uint256)\n    {\n        return _requestGameQueue(gameID, _totalPlayers);\n    }\n\n    // Sent from controller\n\n    function startGame(uint256 _queueID)\n        public\n        onlyRole(VERIFIED_CONTROLLER_ROLE)\n    {\n        currentPhase[_queueID] = ProcessingPhase.Submission;\n    }\n\n    function sumbitActionForPlayer(\n        uint256 playerID,\n        uint8 action,\n        string[] memory options,\n        string memory leftHand,\n        string memory rightHand,\n        uint256 _queueID\n    ) public onlyRole(VERIFIED_CONTROLLER_ROLE) {\n        require(\n            currentPhase[_queueID] == ProcessingPhase.Submission,\n            \"Not submission phase\"\n        );\n        if (!playerSubmitted[_queueID][playerID]) {\n            submissionAction[_queueID][playerID] = Action(action);\n            submissionOptions[_queueID][playerID] = options;\n            submissionLeftHand[_queueID][playerID] = leftHand;\n            submissionRightHand[_queueID][playerID] = rightHand;\n\n            players[_queueID].push(playerID);\n            playerSubmitted[_queueID][playerID] = true;\n            // automatically add to queue if last player to submit move\n            if (players[_queueID].length >= totalPlayers[_queueID]) {\n                _processAllActions(_queueID);\n            }\n        }\n    }\n\n    // Will get processed once keeper is available\n    // and previous game queues have been processed\n    function requestProcessActions(uint256 _queueID)\n        public\n        onlyRole(VERIFIED_CONTROLLER_ROLE)\n    {\n        _processAllActions(_queueID);\n    }\n\n    function getAllPlayers(uint256 _queueID)\n        public\n        view\n        returns (uint256[] memory)\n    {\n        return players[_queueID];\n    }\n\n    function getSubmissionOptions(uint256 _queueID, uint256 _playerID)\n        public\n        view\n        returns (string[] memory)\n    {\n        return submissionOptions[_queueID][_playerID];\n    }\n\n    // Gameplay interactions\n    function setPhase(ProcessingPhase phase, uint256 _queueID)\n        external\n        onlyRole(GAMEPLAY_ROLE)\n    {\n        currentPhase[_queueID] = phase;\n    }\n\n    function setRandomNumber(uint256 randomNumber, uint256 _queueID)\n        external\n        onlyRole(GAMEPLAY_ROLE)\n    {\n        randomness[_queueID] = randomNumber;\n    }\n\n    function requestNewQueueID(uint256 _queueID)\n        external\n        onlyRole(GAMEPLAY_ROLE)\n    {\n        uint256 g = game[_queueID];\n        uint256 tp = totalPlayers[_queueID];\n        queueID[g] = _requestGameQueue(g, tp);\n    }\n\n    function postUpdates(\n        uint256[] memory intUpdates,\n        string[] memory stringUpdates\n    ) public onlyRole(GAMEPLAY_ROLE) {\n        // go through values and post everything, transfer all the tokens, and pray\n    }\n\n    function finishProcessing(uint256 _queueID, bool gameComplete)\n        public\n        onlyRole(GAMEPLAY_ROLE)\n    {\n        _setProcessingComplete(_queueID, gameComplete);\n    }\n\n    function _setProcessingComplete(uint256 _queueID, bool gameComplete)\n        internal\n    {\n        uint256 g = game[_queueID];\n        currentPhase[_queueID] = ProcessingPhase.Processed;\n        queueID[g] = 0;\n        if (!gameComplete) {\n            // get new queue ID for next set of player actions\n            uint256 tp = totalPlayers[_queueID];\n            uint256 newQueueID = _requestGameQueue(g, tp);\n            queueID[g] = newQueueID;\n            currentPhase[newQueueID] = ProcessingPhase.Submission;\n        }\n    }\n\n    // Internal\n    function _processAllActions(uint256 _queueID) internal {\n        // Can only add unique unprocessed game queues into processing queue\n        if (\n            !inProcessingQueue[_queueID] &&\n            currentPhase[_queueID] == ProcessingPhase.Submission\n        ) {\n            processingQueue.push(_queueID);\n            inProcessingQueue[_queueID] = true;\n            currentPhase[_queueID] = ProcessingPhase.Processing;\n        }\n    }\n\n    function _requestGameQueue(uint256 gameID, uint256 _totalPlayers)\n        internal\n        returns (uint256)\n    {\n        /*\n    mapping(uint256 => uint256) public queueID; // mapping from game ID to it's queue, updates to 0 when finished\n    mapping(uint256 => uint256) public game; // mapping from queue ID to it's game ID\n    mapping(uint256 => uint256[]) public players; // all players with moves to process\n    mapping(uint256 => uint16) public totalPlayers;\n        */\n        require(queueID[gameID] == 0, \"queue already set\");\n        uint256 newQueueID = QUEUE_ID.current();\n        game[newQueueID] = gameID;\n        queueID[gameID] = newQueueID;\n        totalPlayers[newQueueID] = _totalPlayers;\n        QUEUE_ID.increment();\n        return newQueueID;\n    }\n}\n",
  "sourcePath": "/Users/maxmeier/Developer/Lucky Machines/hexploration/contracts/HexplorationQueue.sol",
  "compiler": {
    "name": "solc",
    "version": "0.8.11+commit.d7f03943.Emscripten.clang"
  },
  "schemaVersion": "3.4.4",
  "updatedAt": "2022-05-23T02:53:32.567Z",
  "networkType": "ethereum",
  "devdoc": {
    "kind": "dev",
    "methods": {
      "getRoleAdmin(bytes32)": {
        "details": "Returns the admin role that controls `role`. See {grantRole} and {revokeRole}. To change a role's admin, use {_setRoleAdmin}."
      },
      "getRoleMember(bytes32,uint256)": {
        "details": "Returns one of the accounts that have `role`. `index` must be a value between 0 and {getRoleMemberCount}, non-inclusive. Role bearers are not sorted in any particular way, and their ordering may change at any point. WARNING: When using {getRoleMember} and {getRoleMemberCount}, make sure you perform all queries on the same block. See the following https://forum.openzeppelin.com/t/iterating-over-elements-on-enumerableset-in-openzeppelin-contracts/2296[forum post] for more information."
      },
      "getRoleMemberCount(bytes32)": {
        "details": "Returns the number of accounts that have `role`. Can be used together with {getRoleMember} to enumerate all bearers of a role."
      },
      "grantRole(bytes32,address)": {
        "details": "Grants `role` to `account`. If `account` had not been already granted `role`, emits a {RoleGranted} event. Requirements: - the caller must have ``role``'s admin role."
      },
      "hasRole(bytes32,address)": {
        "details": "Returns `true` if `account` has been granted `role`."
      },
      "renounceRole(bytes32,address)": {
        "details": "Revokes `role` from the calling account. Roles are often managed via {grantRole} and {revokeRole}: this function's purpose is to provide a mechanism for accounts to lose their privileges if they are compromised (such as when a trusted device is misplaced). If the calling account had been revoked `role`, emits a {RoleRevoked} event. Requirements: - the caller must be `account`."
      },
      "revokeRole(bytes32,address)": {
        "details": "Revokes `role` from `account`. If `account` had been granted `role`, emits a {RoleRevoked} event. Requirements: - the caller must have ``role``'s admin role."
      },
      "supportsInterface(bytes4)": {
        "details": "See {IERC165-supportsInterface}."
      }
    },
    "version": 1
  },
  "userdoc": {
    "kind": "user",
    "methods": {},
    "version": 1
  }
}