{
  "contractName": "HexplorationStateUpdate",
  "abi": [
    {
      "inputs": [
        {
          "internalType": "address",
          "name": "gameBoardAddress",
          "type": "address"
        },
        {
          "internalType": "address",
          "name": "characterCardAddress",
          "type": "address"
        }
      ],
      "stateMutability": "nonpayable",
      "type": "constructor"
    },
    {
      "anonymous": false,
      "inputs": [
        {
          "indexed": true,
          "internalType": "bytes32",
          "name": "role",
          "type": "bytes32"
        },
        {
          "indexed": true,
          "internalType": "bytes32",
          "name": "previousAdminRole",
          "type": "bytes32"
        },
        {
          "indexed": true,
          "internalType": "bytes32",
          "name": "newAdminRole",
          "type": "bytes32"
        }
      ],
      "name": "RoleAdminChanged",
      "type": "event"
    },
    {
      "anonymous": false,
      "inputs": [
        {
          "indexed": true,
          "internalType": "bytes32",
          "name": "role",
          "type": "bytes32"
        },
        {
          "indexed": true,
          "internalType": "address",
          "name": "account",
          "type": "address"
        },
        {
          "indexed": true,
          "internalType": "address",
          "name": "sender",
          "type": "address"
        }
      ],
      "name": "RoleGranted",
      "type": "event"
    },
    {
      "anonymous": false,
      "inputs": [
        {
          "indexed": true,
          "internalType": "bytes32",
          "name": "role",
          "type": "bytes32"
        },
        {
          "indexed": true,
          "internalType": "address",
          "name": "account",
          "type": "address"
        },
        {
          "indexed": true,
          "internalType": "address",
          "name": "sender",
          "type": "address"
        }
      ],
      "name": "RoleRevoked",
      "type": "event"
    },
    {
      "inputs": [],
      "name": "DEFAULT_ADMIN_ROLE",
      "outputs": [
        {
          "internalType": "bytes32",
          "name": "",
          "type": "bytes32"
        }
      ],
      "stateMutability": "view",
      "type": "function"
    },
    {
      "inputs": [],
      "name": "VERIFIED_CONTROLLER_ROLE",
      "outputs": [
        {
          "internalType": "bytes32",
          "name": "",
          "type": "bytes32"
        }
      ],
      "stateMutability": "view",
      "type": "function"
    },
    {
      "inputs": [
        {
          "internalType": "bytes32",
          "name": "role",
          "type": "bytes32"
        }
      ],
      "name": "getRoleAdmin",
      "outputs": [
        {
          "internalType": "bytes32",
          "name": "",
          "type": "bytes32"
        }
      ],
      "stateMutability": "view",
      "type": "function"
    },
    {
      "inputs": [
        {
          "internalType": "bytes32",
          "name": "role",
          "type": "bytes32"
        },
        {
          "internalType": "uint256",
          "name": "index",
          "type": "uint256"
        }
      ],
      "name": "getRoleMember",
      "outputs": [
        {
          "internalType": "address",
          "name": "",
          "type": "address"
        }
      ],
      "stateMutability": "view",
      "type": "function"
    },
    {
      "inputs": [
        {
          "internalType": "bytes32",
          "name": "role",
          "type": "bytes32"
        }
      ],
      "name": "getRoleMemberCount",
      "outputs": [
        {
          "internalType": "uint256",
          "name": "",
          "type": "uint256"
        }
      ],
      "stateMutability": "view",
      "type": "function"
    },
    {
      "inputs": [
        {
          "internalType": "bytes32",
          "name": "role",
          "type": "bytes32"
        },
        {
          "internalType": "address",
          "name": "account",
          "type": "address"
        }
      ],
      "name": "grantRole",
      "outputs": [],
      "stateMutability": "nonpayable",
      "type": "function"
    },
    {
      "inputs": [
        {
          "internalType": "bytes32",
          "name": "role",
          "type": "bytes32"
        },
        {
          "internalType": "address",
          "name": "account",
          "type": "address"
        }
      ],
      "name": "hasRole",
      "outputs": [
        {
          "internalType": "bool",
          "name": "",
          "type": "bool"
        }
      ],
      "stateMutability": "view",
      "type": "function"
    },
    {
      "inputs": [
        {
          "internalType": "bytes32",
          "name": "role",
          "type": "bytes32"
        },
        {
          "internalType": "address",
          "name": "account",
          "type": "address"
        }
      ],
      "name": "renounceRole",
      "outputs": [],
      "stateMutability": "nonpayable",
      "type": "function"
    },
    {
      "inputs": [
        {
          "internalType": "bytes32",
          "name": "role",
          "type": "bytes32"
        },
        {
          "internalType": "address",
          "name": "account",
          "type": "address"
        }
      ],
      "name": "revokeRole",
      "outputs": [],
      "stateMutability": "nonpayable",
      "type": "function"
    },
    {
      "inputs": [
        {
          "internalType": "bytes4",
          "name": "interfaceId",
          "type": "bytes4"
        }
      ],
      "name": "supportsInterface",
      "outputs": [
        {
          "internalType": "bool",
          "name": "",
          "type": "bool"
        }
      ],
      "stateMutability": "view",
      "type": "function"
    },
    {
      "inputs": [
        {
          "internalType": "address",
          "name": "vcAddress",
          "type": "address"
        }
      ],
      "name": "addVerifiedController",
      "outputs": [],
      "stateMutability": "nonpayable",
      "type": "function"
    },
    {
      "inputs": [
        {
          "components": [
            {
              "internalType": "uint256[]",
              "name": "playerPositionIDs",
              "type": "uint256[]"
            },
            {
              "internalType": "uint256[]",
              "name": "spacesToMove",
              "type": "uint256[]"
            },
            {
              "internalType": "uint256[]",
              "name": "playerEquipIDs",
              "type": "uint256[]"
            },
            {
              "internalType": "uint256[]",
              "name": "playerEquipHands",
              "type": "uint256[]"
            },
            {
              "internalType": "uint256[]",
              "name": "zoneTransfersTo",
              "type": "uint256[]"
            },
            {
              "internalType": "uint256[]",
              "name": "zoneTransfersFrom",
              "type": "uint256[]"
            },
            {
              "internalType": "uint256[]",
              "name": "zoneTransferQtys",
              "type": "uint256[]"
            },
            {
              "internalType": "uint256[]",
              "name": "playerTransfersTo",
              "type": "uint256[]"
            },
            {
              "internalType": "uint256[]",
              "name": "playerTransfersFrom",
              "type": "uint256[]"
            },
            {
              "internalType": "uint256[]",
              "name": "playerTransferQtys",
              "type": "uint256[]"
            },
            {
              "internalType": "uint256[]",
              "name": "playerStatUpdateIDs",
              "type": "uint256[]"
            },
            {
              "internalType": "int8[3][]",
              "name": "playerStatUpdates",
              "type": "int8[3][]"
            },
            {
              "internalType": "uint256[]",
              "name": "playerActiveActionIDs",
              "type": "uint256[]"
            },
            {
              "internalType": "string",
              "name": "gamePhase",
              "type": "string"
            },
            {
              "internalType": "string[7][]",
              "name": "playerMovementOptions",
              "type": "string[7][]"
            },
            {
              "internalType": "string[]",
              "name": "playerEquips",
              "type": "string[]"
            },
            {
              "internalType": "string[]",
              "name": "zoneTransferItemTypes",
              "type": "string[]"
            },
            {
              "internalType": "string[]",
              "name": "playerTransferItemTypes",
              "type": "string[]"
            },
            {
              "internalType": "string[]",
              "name": "activeActions",
              "type": "string[]"
            },
            {
              "internalType": "string[]",
              "name": "activeActionOptions",
              "type": "string[]"
            },
            {
              "internalType": "uint256[]",
              "name": "activeActionResults",
              "type": "uint256[]"
            },
            {
              "internalType": "string[2][]",
              "name": "activeActionResultCard",
              "type": "string[2][]"
            },
            {
              "internalType": "string[3][]",
              "name": "activeActionInventoryChange",
              "type": "string[3][]"
            },
            {
              "internalType": "uint256",
              "name": "randomness",
              "type": "uint256"
            }
          ],
          "internalType": "struct HexplorationGameplay.PlayUpdates",
          "name": "updates",
          "type": "tuple"
        },
        {
          "internalType": "uint256",
          "name": "gameID",
          "type": "uint256"
        }
      ],
      "name": "postUpdates",
      "outputs": [],
      "stateMutability": "nonpayable",
      "type": "function"
    },
    {
      "inputs": [
        {
          "internalType": "string[]",
          "name": "zonePath",
          "type": "string[]"
        },
        {
          "internalType": "uint256",
          "name": "gameID",
          "type": "uint256"
        },
        {
          "internalType": "uint256",
          "name": "playerID",
          "type": "uint256"
        },
        {
          "internalType": "uint256",
          "name": "randomness",
          "type": "uint256"
        }
      ],
      "name": "moveThroughPath",
      "outputs": [],
      "stateMutability": "nonpayable",
      "type": "function"
    }
  ],
  "bytecode": "0x60806040523480156200001157600080fd5b50604051620024163803806200241683398101604081905262000034916200026d565b6200005c60006200004d6401000000006200008e810204565b64010000000062000092810204565b60028054600160a060020a03938416600160a060020a03199182161790915560038054929093169116179055620002a5565b3390565b620000a78282640100000000620000ab810204565b5050565b620000c58282640100000000620005b3620000f282021704565b6000828152600160205260409020620000ed9082640100000000620006376200018e82021704565b505050565b620001078282640100000000620001b7810204565b620000a757600082815260208181526040808320600160a060020a03851684529091529020805460ff191660011790556200014a6401000000006200008e810204565b600160a060020a031681600160a060020a0316837f2f8788117e7eff1d82e926ec794901d17c78024a50270940304540a733656f0d60405160405180910390a45050565b6000620001ae83600160a060020a038416640100000000620001e0810204565b90505b92915050565b600091825260208281526040808420600160a060020a0393909316845291905290205460ff1690565b6000620001f7838364010000000062000238810204565b6200022f57508154600181810184556000848152602080822090930184905584548482528286019093526040902091909155620001b1565b506000620001b1565b60009081526001919091016020526040902054151590565b8051600160a060020a03811681146200026857600080fd5b919050565b600080604083850312156200028157600080fd5b6200028c8362000250565b91506200029c6020840162000250565b90509250929050565b61216180620002b56000396000f3fe608060405234801561001057600080fd5b50600436106100c35760003560e060020a900480639010d07c116100805780639010d07c1461017157806391d148541461019c578063a217fddf146101af578063ca15c873146101b7578063d4f5b152146101ca578063d547741f146101dd578063fc96c533146101f057600080fd5b806301ffc9a7146100c85780631c834a7f146100f0578063248a9ca3146101135780632f2ff15d1461013657806336568abe1461014b57806380bb32d91461015e575b600080fd5b6100db6100d636600461128d565b610203565b60405190151581526020015b60405180910390f35b61010560008051602061210c83398151915281565b6040519081526020016100e7565b6101056101213660046112b7565b60009081526020819052604090206001015490565b6101496101443660046112ec565b610247565b005b6101496101593660046112ec565b610271565b61014961016c3660046114d0565b610305565b61018461017f366004611524565b6104d6565b604051600160a060020a0390911681526020016100e7565b6100db6101aa3660046112ec565b6104f5565b610105600081565b6101056101c53660046112b7565b61051e565b6101496101d8366004611546565b610535565b6101496101eb3660046112ec565b610558565b6101496101fe366004611975565b61057d565b6000600160e060020a031982167f5a05180f00000000000000000000000000000000000000000000000000000000148061024157506102418261064c565b92915050565b600082815260208190526040902060010154610262816106b3565b61026c83836106c0565b505050565b600160a060020a03811633146102f75760405160e560020a62461bcd02815260206004820152602f60248201527f416363657373436f6e74726f6c3a2063616e206f6e6c792072656e6f756e636560448201527f20726f6c657320666f722073656c66000000000000000000000000000000000060648201526084015b60405180910390fd5b61030182826106e2565b5050565b60008051602061210c83398151915261031d816106b3565b6000855167ffffffffffffffff81111561033957610339611318565b604051908082528060200260200182016040528015610362578160200160208202803683370190505b5090506000865167ffffffffffffffff81111561038157610381611318565b6040519080825280602002602001820160405280156103aa578160200160208202803683370190505b50905083816000815181106103c1576103c1611d30565b60200260200101818152505060005b875181101561044b5780156103f557806001146103ee5760046103f8565b60026103f8565b60015b83828151811061040a5761040a611d30565b6020026020010190600b81111561042357610423611d49565b9081600b81111561043657610436611d49565b9052508061044381611d7b565b9150506103d0565b506002546040517f235232d0000000000000000000000000000000000000000000000000000000008152600160a060020a039091169063235232d09061049b908a9089908b908890600401611df2565b600060405180830381600087803b1580156104b557600080fd5b505af11580156104c9573d6000803e3d6000fd5b5050505050505050505050565b60008281526001602052604081206104ee9083610704565b9392505050565b600091825260208281526040808420600160a060020a0393909316845291905290205460ff1690565b600081815260016020526040812061024190610710565b6000610540816106b3565b61030160008051602061210c83398151915283610247565b600082815260208190526040902060010154610573816106b3565b61026c83836106e2565b60008051602061210c833981519152610595816106b3565b61059f838361071a565b6105a9838361084e565b61026c8383610c3d565b6105bd82826104f5565b61030157600082815260208181526040808320600160a060020a03851684529091529020805460ff191660011790556105f33390565b600160a060020a031681600160a060020a0316837f2f8788117e7eff1d82e926ec794901d17c78024a50270940304540a733656f0d60405160405180910390a45050565b60006104ee83600160a060020a038416610de1565b6000600160e060020a031982167f7965db0b00000000000000000000000000000000000000000000000000000000148061024157507f01ffc9a700000000000000000000000000000000000000000000000000000000600160e060020a0319831614610241565b6106bd8133610e30565b50565b6106ca82826105b3565b600082815260016020526040902061026c9082610637565b6106ec8282610e97565b600082815260016020526040902061026c9082610efc565b60006104ee8383610f11565b6000610241825490565b60005b82515181101561026c5760008360200151828151811061073f5761073f611d30565b6020026020010151905060008167ffffffffffffffff81111561076457610764611318565b60405190808252806020026020018201604052801561079757816020015b60608152602001906001900390816107825790505b50905060005b8281101561080a57856101c0015184815181106107bc576107bc611d30565b602002602001015181600781106107d5576107d5611d30565b60200201518282815181106107ec576107ec611d30565b6020026020010181905250808061080290611d7b565b91505061079d565b5061083981858760000151868151811061082657610826611d30565b6020026020010151886102e00151610305565b5050808061084690611d7b565b91505061071d565b60005b8261014001515181101561026c576000836101400151828151811061087857610878611d30565b60209081029190910101516003546040517fbb47c9b30000000000000000000000000000000000000000000000000000000081526004810186905260248101839052919250600091600160a060020a039091169063bb47c9b390604401606060405180830381865afa1580156108f2573d6000803e3d6000fd5b505050506040513d601f19601f820116820180604052508101906109169190611ebd565b905061092061126f565b6000866101600151858151811061093957610939611d30565b602002602001015160006003811061095357610953611d30565b602002015160000b126109a757856101600151848151811061097757610977611d30565b602002602001015160006003811061099157610991611d30565b602002015182516109a29190611f2d565b6109f5565b6109f582600060200201516109f088610160015187815181106109cc576109cc611d30565b60200260200101516000600381106109e6576109e6611d30565b6020020151610f3b565b610f5a565b60ff16815261016086015180516000919086908110610a1657610a16611d30565b6020026020010151600160038110610a3057610a30611d30565b602002015160000b12610a8a578561016001518481518110610a5457610a54611d30565b6020026020010151600160038110610a6e57610a6e611d30565b60200201518260016020020151610a859190611f2d565b610ac9565b610ac982600160200201516109f08861016001518781518110610aaf57610aaf611d30565b60200260200101516001600381106109e6576109e6611d30565b60ff16602082015261016086015180516000919086908110610aed57610aed611d30565b6020026020010151600260038110610b0757610b07611d30565b602002015160000b12610b5e578561016001518481518110610b2b57610b2b611d30565b6020026020010151600260038110610b4557610b45611d30565b60200201516040830151610b599190611f2d565b610b9d565b610b9d82600260200201516109f08861016001518781518110610b8357610b83611d30565b60200260200101516002600381106109e6576109e6611d30565b60ff1660408083019190915260035490517f45b8ace5000000000000000000000000000000000000000000000000000000008152600160a060020a03909116906345b8ace590610bf590849089908890600401611f52565b600060405180830381600087803b158015610c0f57600080fd5b505af1158015610c23573d6000803e3d6000fd5b505050505050508080610c3590611d7b565b915050610851565b60005b82604001515181101561026c57600083606001518281518110610c6557610c65611d30565b602002602001015160001490508015610d25576003546101e08501518051600160a060020a039092169163a8953434919085908110610ca657610ca6611d30565b60200260200101518587604001518681518110610cc557610cc5611d30565b60200260200101516040518463ffffffff1660e060020a028152600401610cee93929190611f91565b600060405180830381600087803b158015610d0857600080fd5b505af1158015610d1c573d6000803e3d6000fd5b50505050610dce565b6003546101e08501518051600160a060020a0390921691635f2caa5e919085908110610d5357610d53611d30565b60200260200101518587604001518681518110610d7257610d72611d30565b60200260200101516040518463ffffffff1660e060020a028152600401610d9b93929190611f91565b600060405180830381600087803b158015610db557600080fd5b505af1158015610dc9573d6000803e3d6000fd5b505050505b5080610dd981611d7b565b915050610c40565b6000818152600183016020526040812054610e2857508154600181810184556000848152602080822090930184905584548482528286019093526040902091909155610241565b506000610241565b610e3a82826104f5565b61030157610e5281600160a060020a03166014610f7a565b610e5d836020610f7a565b604051602001610e6e929190611fb6565b60408051601f198184030181529082905260e560020a62461bcd0282526102ee91600401612037565b610ea182826104f5565b1561030157600082815260208181526040808320600160a060020a0385168085529252808320805460ff1916905551339285917ff6391f5c32d9c69d2a47ea670b442974b53935d1edc7fd64eb21e047a839171b9190a45050565b60006104ee83600160a060020a03841661117c565b6000826000018281548110610f2857610f28611d30565b9060005260206000200154905092915050565b6000808260000b1215610f5657610f518261204a565b610241565b5090565b60008160ff168360ff1611610f705760006104ee565b6104ee828461206a565b60606000610f8983600261208d565b610f949060026120ac565b67ffffffffffffffff811115610fac57610fac611318565b6040519080825280601f01601f191660200182016040528015610fd6576020820181803683370190505b5090507f30000000000000000000000000000000000000000000000000000000000000008160008151811061100d5761100d611d30565b6020010190600160f860020a031916908160001a9053507f78000000000000000000000000000000000000000000000000000000000000008160018151811061105857611058611d30565b6020010190600160f860020a031916908160001a905350600061107c84600261208d565b6110879060016120ac565b90505b600181111561112a577f303132333435363738396162636465660000000000000000000000000000000085600f16601081106110c8576110c8611d30565b1a7f0100000000000000000000000000000000000000000000000000000000000000028282815181106110fd576110fd611d30565b6020010190600160f860020a031916908160001a905350601090940493611123816120c4565b905061108a565b5083156104ee5760405160e560020a62461bcd02815260206004820181905260248201527f537472696e67733a20686578206c656e67746820696e73756666696369656e7460448201526064016102ee565b600081815260018301602052604081205480156112655760006111a06001836120db565b85549091506000906111b4906001906120db565b90508181146112195760008660000182815481106111d4576111d4611d30565b90600052602060002001549050808760000184815481106111f7576111f7611d30565b6000918252602080832090910192909255918252600188019052604090208390555b855486908061122a5761122a6120f2565b600190038181906000526020600020016000905590558560010160008681526020019081526020016000206000905560019350505050610241565b6000915050610241565b60405180606001604052806003906020820280368337509192915050565b60006020828403121561129f57600080fd5b8135600160e060020a0319811681146104ee57600080fd5b6000602082840312156112c957600080fd5b5035919050565b8035600160a060020a03811681146112e757600080fd5b919050565b600080604083850312156112ff57600080fd5b8235915061130f602084016112d0565b90509250929050565b60e060020a634e487b7102600052604160045260246000fd5b604051610300810167ffffffffffffffff8111828210171561135557611355611318565b60405290565b6040516060810167ffffffffffffffff8111828210171561135557611355611318565b604051601f8201601f1916810167ffffffffffffffff811182821017156113a7576113a7611318565b604052919050565b600067ffffffffffffffff8211156113c9576113c9611318565b5060209081020190565b600082601f8301126113e457600080fd5b813567ffffffffffffffff8111156113fe576113fe611318565b611411601f8201601f191660200161137e565b81815284602083860101111561142657600080fd5b816020850160208301376000918101602001919091529392505050565b600082601f83011261145457600080fd5b81356020611469611464836113af565b61137e565b8281529181028401810191818101908684111561148557600080fd5b8286015b848110156114c557803567ffffffffffffffff8111156114a95760008081fd5b6114b78986838b01016113d3565b845250918301918301611489565b509695505050505050565b600080600080608085870312156114e657600080fd5b843567ffffffffffffffff8111156114fd57600080fd5b61150987828801611443565b97602087013597506040870135966060013595509350505050565b6000806040838503121561153757600080fd5b50508035926020909101359150565b60006020828403121561155857600080fd5b6104ee826112d0565b600082601f83011261157257600080fd5b81356020611582611464836113af565b8281529181028401810191818101908684111561159e57600080fd5b8286015b848110156114c557803583529183019183016115a2565b6000601f83818401126115cb57600080fd5b823560206115db611464836113af565b828152606092830286018201928282019190888511156115fa57600080fd5b8388015b858110156116685789878201126116155760008081fd5b61161d61135b565b808383018c81111561162f5760008081fd5b835b81811015611658578035600081810b821461164a578081fd5b508452928801928801611631565b50508552509284019281016115fe565b509098975050505050505050565b600060405160e0810167ffffffffffffffff828210818311171561169c5761169c611318565b8160405282935060e085019150858211156116b657600080fd5b845b828110156116eb578035828111156116d05760008081fd5b6116dc888289016113d3565b855250602093840193016116b8565b5050505092915050565b60006040516040810167ffffffffffffffff828210818311171561171b5761171b611318565b816040528293506040850191508582111561173557600080fd5b845b828110156116eb5780358281111561174f5760008081fd5b61175b888289016113d3565b85525060209384019301611737565b600061177461135b565b905080606083018481111561178857600080fd5b835b818110156117c557803567ffffffffffffffff8111156117aa5760008081fd5b6117b6878288016113d3565b8452506020928301920161178a565b50505092915050565b600082601f8301126117df57600080fd5b813560206117ef611464836113af565b8281529181028401810191818101908684111561180b57600080fd5b8286015b848110156114c557803567ffffffffffffffff81111561182f5760008081fd5b8701603f810189136118415760008081fd5b61184d89868301611676565b84525091830191830161180f565b600082601f83011261186c57600080fd5b8135602061187c611464836113af565b8281529181028401810191818101908684111561189857600080fd5b8286015b848110156114c557803567ffffffffffffffff8111156118bc5760008081fd5b8701603f810189136118ce5760008081fd5b6118da898683016116f5565b84525091830191830161189c565b600082601f8301126118f957600080fd5b81356020611909611464836113af565b8281529181028401810191818101908684111561192557600080fd5b8286015b848110156114c557803567ffffffffffffffff8111156119495760008081fd5b8701603f8101891361195b5760008081fd5b6119678986830161176a565b845250918301918301611929565b6000806040838503121561198857600080fd5b823567ffffffffffffffff808211156119a057600080fd5b9084019061030082870312156119b557600080fd5b6119bd611331565b8235828111156119cc57600080fd5b6119d888828601611561565b8252506020830135828111156119ed57600080fd5b6119f988828601611561565b602083015250604083013582811115611a1157600080fd5b611a1d88828601611561565b604083015250606083013582811115611a3557600080fd5b611a4188828601611561565b606083015250608083013582811115611a5957600080fd5b611a6588828601611561565b60808301525060a083013582811115611a7d57600080fd5b611a8988828601611561565b60a08301525060c083013582811115611aa157600080fd5b611aad88828601611561565b60c08301525060e083013582811115611ac557600080fd5b611ad188828601611561565b60e0830152506101008084013583811115611aeb57600080fd5b611af789828701611561565b8284015250506101208084013583811115611b1157600080fd5b611b1d89828701611561565b8284015250506101408084013583811115611b3757600080fd5b611b4389828701611561565b8284015250506101608084013583811115611b5d57600080fd5b611b69898287016115b9565b8284015250506101808084013583811115611b8357600080fd5b611b8f89828701611561565b8284015250506101a08084013583811115611ba957600080fd5b611bb5898287016113d3565b8284015250506101c08084013583811115611bcf57600080fd5b611bdb898287016117ce565b8284015250506101e08084013583811115611bf557600080fd5b611c0189828701611443565b8284015250506102008084013583811115611c1b57600080fd5b611c2789828701611443565b8284015250506102208084013583811115611c4157600080fd5b611c4d89828701611443565b8284015250506102408084013583811115611c6757600080fd5b611c7389828701611443565b8284015250506102608084013583811115611c8d57600080fd5b611c9989828701611443565b8284015250506102808084013583811115611cb357600080fd5b611cbf89828701611561565b8284015250506102a08084013583811115611cd957600080fd5b611ce58982870161185b565b8284015250506102c08084013583811115611cff57600080fd5b611d0b898287016118e8565b91830191909152506102e0928301359281019290925250946020939093013593505050565b60e060020a634e487b7102600052603260045260246000fd5b60e060020a634e487b7102600052602160045260246000fd5b60e060020a634e487b7102600052601160045260246000fd5b6000600019821415611d8f57611d8f611d62565b5060010190565b60005b83811015611db1578181015183820152602001611d99565b83811115611dc0576000848401525b50505050565b60008151808452611dde816020860160208601611d96565b601f01601f19169290920160200192915050565b6000608082016080835280875180835260a0850191506020925060a0838202860101838a0160005b83811015611e4857609f19888403018552611e36838351611dc6565b94860194925090850190600101611e1a565b505085840189905260408601889052858103606087015286518082529084019250905085830160005b82811015611eae578151600c8110611e9c5760e060020a634e487b7102600052602160045260246000fd5b84529284019290840190600101611e71565b50919998505050505050505050565b600060608284031215611ecf57600080fd5b82601f830112611ede57600080fd5b611ee661135b565b806060840185811115611ef857600080fd5b845b81811015611f2257805160ff81168114611f145760008081fd5b845260209384019301611efa565b509095945050505050565b600060ff821660ff84168060ff03821115611f4a57611f4a611d62565b019392505050565b60a08101818560005b6003811015611f7d57815160ff16835260209283019290910190600101611f5b565b505050606082019390935260800152919050565b606081526000611fa46060830186611dc6565b60208301949094525060400152919050565b7f416363657373436f6e74726f6c3a206163636f756e7420000000000000000000815260008351611fee816017850160208801611d96565b7f206973206d697373696e6720726f6c6520000000000000000000000000000000601791840191820152835161202b816028840160208801611d96565b01602801949350505050565b6020815260006104ee6020830184611dc6565b600081810b607f1981141561206157612061611d62565b60000392915050565b600060ff821660ff84168082101561208457612084611d62565b90039392505050565b60008160001904831182151516156120a7576120a7611d62565b500290565b600082198211156120bf576120bf611d62565b500190565b6000816120d3576120d3611d62565b506000190190565b6000828210156120ed576120ed611d62565b500390565b60e060020a634e487b7102600052603160045260246000fdfe80e2196015fc06a9d891759f8e4f51eb314ef5e9ea068528a8ed0063b87759f0a2646970667358221220850e314b91b43bc04f5d6d8ffc11f6fc8f7b58edb2071c2ff78ee0f593d7196a64736f6c634300080b0033",
  "immutableReferences": {},
  "source": "// SPDX-License-Identifier: GPL-3.0\npragma solidity >=0.7.0 <0.9.0;\n\n// TODO: start using this for state updating outside of controller\n// Controller should only be used by users / UI directly sending\n// commands. This does things that can only imagine...\n\n// This should be only associated with one board...\n\nimport \"./HexplorationController.sol\";\nimport \"./HexplorationBoard.sol\";\nimport \"./decks/CardDeck.sol\";\nimport \"./state/CharacterCard.sol\";\nimport \"./HexplorationGameplay.sol\";\n\ncontract HexplorationStateUpdate is AccessControlEnumerable {\n    bytes32 public constant VERIFIED_CONTROLLER_ROLE =\n        keccak256(\"VERIFIED_CONTROLLER_ROLE\");\n    /*\n    Controller can access all game tokens with the following methods:\n\n    function mint(\n        string memory tokenType,\n        uint256 gameID,\n        uint256 quantity\n    )\n\n    function transfer(\n        string memory tokenType,\n        uint256 gameID,\n        uint256 fromID,\n        uint256 toID,\n        uint256 quantity\n    )\n*/\n    HexplorationBoard internal GAME_BOARD;\n    CharacterCard internal CHARACTER_CARD;\n    modifier onlyAdminVC() {\n        require(\n            hasRole(DEFAULT_ADMIN_ROLE, _msgSender()) ||\n                hasRole(VERIFIED_CONTROLLER_ROLE, _msgSender()),\n            \"Admin or Keeper role required\"\n        );\n        _;\n    }\n\n    // set other addresses going to need here\n    // decks, tokens?\n    constructor(address gameBoardAddress, address characterCardAddress) {\n        _setupRole(DEFAULT_ADMIN_ROLE, _msgSender());\n        GAME_BOARD = HexplorationBoard(gameBoardAddress);\n        CHARACTER_CARD = CharacterCard(characterCardAddress);\n    }\n\n    // Admin Functions\n\n    function addVerifiedController(address vcAddress)\n        public\n        onlyRole(DEFAULT_ADMIN_ROLE)\n    {\n        grantRole(VERIFIED_CONTROLLER_ROLE, vcAddress);\n    }\n\n    function postUpdates(\n        HexplorationGameplay.PlayUpdates memory updates,\n        uint256 gameID\n    ) public onlyRole(VERIFIED_CONTROLLER_ROLE) {\n        // go through values and post everything, transfer all the tokens, and pray\n        // use gamestate update contract to post everything\n        updatePlayerPositions(updates, gameID); //Done\n        updatePlayerStats(updates, gameID); // Done\n        updatePlayerHands(updates, gameID); // Todo\n        transferPlayerItems(updates, gameID); // Todo\n        transferZoneItems(updates, gameID); // Todo\n        applyActivityEffects(updates, gameID); // Todo\n    }\n\n    /*\n\n    struct PlayUpdates {\n        uint256[] playerPositionIDs;\n        uint256[] spacesToMove;\n        uint256[] playerEquipIDs;\n        uint256[] playerEquipHands;\n        uint256[] zoneTransfersTo;\n        uint256[] zoneTransfersFrom;\n        uint256[] zoneTransferQtys;\n        uint256[] playerTransfersTo;\n        uint256[] playerTransfersFrom;\n        uint256[] playerTransferQtys;\n        uint256[] playerStatUpdateIDs;\n        int8[3][] playerStatUpdates; // amount to adjust, not final value\n        uint256[] playerActiveActionIDs;\n        string gamePhase;\n        string[7][] playerMovementOptions; // TODO: set this to max # of spaces possible\n        string[] playerEquips;\n        string[] zoneTransferItemTypes;\n        string[] playerTransferItemTypes;\n        string[] activeActions;\n        string[] activeActionOptions;\n        uint256[] activeActionResults; // 0 = None, 1 = Event, 2 = Ambush, 3 = Treasure\n        string[2][] activeActionResultCard; // Card for Event / ambush / treasure , outcome e.g. [\"Dance with locals\", \"You're amazing!\"]\n        string[3][] activeActionInventoryChange; // [item loss, item gain, hand loss]\n        uint256 randomness;\n    }\n    */\n\n    function updatePlayerPositions(\n        HexplorationGameplay.PlayUpdates memory updates,\n        uint256 gameID\n    ) internal {\n        for (uint256 i = 0; i < updates.playerPositionIDs.length; i++) {\n            uint256 spacesToMove = updates.spacesToMove[i];\n            string[] memory path = new string[](spacesToMove);\n            for (uint256 j = 0; j < spacesToMove; j++) {\n                path[j] = updates.playerMovementOptions[i][j];\n            }\n            moveThroughPath(\n                path,\n                gameID,\n                updates.playerPositionIDs[i],\n                updates.randomness\n            );\n        }\n    }\n\n    function updatePlayerStats(\n        HexplorationGameplay.PlayUpdates memory updates,\n        uint256 gameID\n    ) internal {\n        for (uint256 i = 0; i < updates.playerStatUpdateIDs.length; i++) {\n            uint256 playerID = updates.playerStatUpdateIDs[i];\n            uint8[3] memory currentStats = CHARACTER_CARD.getStats(\n                gameID,\n                playerID\n            );\n            uint8[3] memory stats;\n            stats[0] = updates.playerStatUpdates[i][0] < 0\n                ? subToZero(\n                    currentStats[0],\n                    absoluteValue(updates.playerStatUpdates[i][0])\n                )\n                : currentStats[0] + uint8(updates.playerStatUpdates[i][0]);\n            stats[1] = updates.playerStatUpdates[i][1] < 0\n                ? subToZero(\n                    currentStats[1],\n                    absoluteValue(updates.playerStatUpdates[i][1])\n                )\n                : currentStats[1] + uint8(updates.playerStatUpdates[i][1]);\n            stats[2] = updates.playerStatUpdates[i][2] < 0\n                ? subToZero(\n                    currentStats[2],\n                    absoluteValue(updates.playerStatUpdates[i][2])\n                )\n                : currentStats[2] + uint8(updates.playerStatUpdates[i][2]);\n            CHARACTER_CARD.setStats(stats, gameID, playerID);\n        }\n    }\n\n    function updatePlayerHands(\n        HexplorationGameplay.PlayUpdates memory updates,\n        uint256 gameID\n    ) internal {\n        for (uint256 i = 0; i < updates.playerEquipIDs.length; i++) {\n            bool leftHand = updates.playerEquipHands[i] == 0;\n            if (leftHand) {\n                CHARACTER_CARD.setLeftHandItem(\n                    updates.playerEquips[i],\n                    gameID,\n                    updates.playerEquipIDs[i]\n                );\n            } else {\n                CHARACTER_CARD.setRightHandItem(\n                    updates.playerEquips[i],\n                    gameID,\n                    updates.playerEquipIDs[i]\n                );\n            }\n        }\n    }\n\n    function applyActivityEffects(\n        HexplorationGameplay.PlayUpdates memory updates,\n        uint256 gameID\n    ) internal {\n        // If dig, set card outcomes on character card\n        // if day phase event or environment, store somewhere common for gamesummary...\n    }\n\n    function transferPlayerItems(\n        HexplorationGameplay.PlayUpdates memory updates,\n        uint256 gameID\n    ) internal {}\n\n    function transferZoneItems(\n        HexplorationGameplay.PlayUpdates memory updates,\n        uint256 gameID\n    ) internal {}\n\n    function moveThroughPath(\n        string[] memory zonePath,\n        uint256 gameID,\n        uint256 playerID,\n        uint256 randomness\n    ) public onlyRole(VERIFIED_CONTROLLER_ROLE) {\n        //TODO: pick tiles from deck\n\n        HexplorationZone.Tile[] memory tiles = new HexplorationZone.Tile[](\n            zonePath.length\n        );\n        uint256[] memory randomNumbers = new uint256[](zonePath.length);\n        randomNumbers[0] = randomness;\n        // TODO: expand to more random numbers for length of zone\n        // use this when drawing from tile deck\n        for (uint256 i = 0; i < zonePath.length; i++) {\n            tiles[i] = i == 0 ? HexplorationZone.Tile.Jungle : i == 1\n                ? HexplorationZone.Tile.Plains\n                : HexplorationZone.Tile.Mountain;\n        }\n\n        GAME_BOARD.moveThroughPath(zonePath, playerID, gameID, tiles);\n    }\n\n    // Utility\n    // returns a - b or 0 if negative;\n    function subToZero(uint8 a, uint8 b)\n        internal\n        pure\n        returns (uint8 difference)\n    {\n        difference = a > b ? a - b : 0;\n    }\n\n    function absoluteValue(int8 x) internal pure returns (uint8 absX) {\n        absX = x >= 0 ? uint8(x) : uint8(-x);\n    }\n}\n",
  "sourcePath": "/Users/max/demo/hexploration/contracts/HexplorationStateUpdate.sol",
  "compiler": {
    "name": "solc",
    "version": "0.8.11+commit.d7f03943.Emscripten.clang"
  },
  "schemaVersion": "3.4.2",
  "updatedAt": "2022-05-27T00:46:45.581Z",
  "devdoc": {
    "kind": "dev",
    "methods": {
      "getRoleAdmin(bytes32)": {
        "details": "Returns the admin role that controls `role`. See {grantRole} and {revokeRole}. To change a role's admin, use {_setRoleAdmin}."
      },
      "getRoleMember(bytes32,uint256)": {
        "details": "Returns one of the accounts that have `role`. `index` must be a value between 0 and {getRoleMemberCount}, non-inclusive. Role bearers are not sorted in any particular way, and their ordering may change at any point. WARNING: When using {getRoleMember} and {getRoleMemberCount}, make sure you perform all queries on the same block. See the following https://forum.openzeppelin.com/t/iterating-over-elements-on-enumerableset-in-openzeppelin-contracts/2296[forum post] for more information."
      },
      "getRoleMemberCount(bytes32)": {
        "details": "Returns the number of accounts that have `role`. Can be used together with {getRoleMember} to enumerate all bearers of a role."
      },
      "grantRole(bytes32,address)": {
        "details": "Grants `role` to `account`. If `account` had not been already granted `role`, emits a {RoleGranted} event. Requirements: - the caller must have ``role``'s admin role."
      },
      "hasRole(bytes32,address)": {
        "details": "Returns `true` if `account` has been granted `role`."
      },
      "renounceRole(bytes32,address)": {
        "details": "Revokes `role` from the calling account. Roles are often managed via {grantRole} and {revokeRole}: this function's purpose is to provide a mechanism for accounts to lose their privileges if they are compromised (such as when a trusted device is misplaced). If the calling account had been revoked `role`, emits a {RoleRevoked} event. Requirements: - the caller must be `account`."
      },
      "revokeRole(bytes32,address)": {
        "details": "Revokes `role` from `account`. If `account` had been granted `role`, emits a {RoleRevoked} event. Requirements: - the caller must have ``role``'s admin role."
      },
      "supportsInterface(bytes4)": {
        "details": "See {IERC165-supportsInterface}."
      }
    },
    "version": 1
  },
  "userdoc": {
    "kind": "user",
    "methods": {},
    "version": 1
  }
}