{
  "contractName": "HexplorationGameplay",
  "abi": [
    {
      "inputs": [
        {
          "internalType": "address",
          "name": "_gameSummaryAddress",
          "type": "address"
        }
      ],
      "stateMutability": "nonpayable",
      "type": "constructor"
    },
    {
      "anonymous": false,
      "inputs": [
        {
          "indexed": true,
          "internalType": "bytes32",
          "name": "role",
          "type": "bytes32"
        },
        {
          "indexed": true,
          "internalType": "bytes32",
          "name": "previousAdminRole",
          "type": "bytes32"
        },
        {
          "indexed": true,
          "internalType": "bytes32",
          "name": "newAdminRole",
          "type": "bytes32"
        }
      ],
      "name": "RoleAdminChanged",
      "type": "event"
    },
    {
      "anonymous": false,
      "inputs": [
        {
          "indexed": true,
          "internalType": "bytes32",
          "name": "role",
          "type": "bytes32"
        },
        {
          "indexed": true,
          "internalType": "address",
          "name": "account",
          "type": "address"
        },
        {
          "indexed": true,
          "internalType": "address",
          "name": "sender",
          "type": "address"
        }
      ],
      "name": "RoleGranted",
      "type": "event"
    },
    {
      "anonymous": false,
      "inputs": [
        {
          "indexed": true,
          "internalType": "bytes32",
          "name": "role",
          "type": "bytes32"
        },
        {
          "indexed": true,
          "internalType": "address",
          "name": "account",
          "type": "address"
        },
        {
          "indexed": true,
          "internalType": "address",
          "name": "sender",
          "type": "address"
        }
      ],
      "name": "RoleRevoked",
      "type": "event"
    },
    {
      "inputs": [],
      "name": "DEFAULT_ADMIN_ROLE",
      "outputs": [
        {
          "internalType": "bytes32",
          "name": "",
          "type": "bytes32"
        }
      ],
      "stateMutability": "view",
      "type": "function",
      "constant": true
    },
    {
      "inputs": [],
      "name": "VERIFIED_CONTROLLER_ROLE",
      "outputs": [
        {
          "internalType": "bytes32",
          "name": "",
          "type": "bytes32"
        }
      ],
      "stateMutability": "view",
      "type": "function",
      "constant": true
    },
    {
      "inputs": [
        {
          "internalType": "bytes32",
          "name": "role",
          "type": "bytes32"
        }
      ],
      "name": "getRoleAdmin",
      "outputs": [
        {
          "internalType": "bytes32",
          "name": "",
          "type": "bytes32"
        }
      ],
      "stateMutability": "view",
      "type": "function",
      "constant": true
    },
    {
      "inputs": [
        {
          "internalType": "bytes32",
          "name": "role",
          "type": "bytes32"
        },
        {
          "internalType": "uint256",
          "name": "index",
          "type": "uint256"
        }
      ],
      "name": "getRoleMember",
      "outputs": [
        {
          "internalType": "address",
          "name": "",
          "type": "address"
        }
      ],
      "stateMutability": "view",
      "type": "function",
      "constant": true
    },
    {
      "inputs": [
        {
          "internalType": "bytes32",
          "name": "role",
          "type": "bytes32"
        }
      ],
      "name": "getRoleMemberCount",
      "outputs": [
        {
          "internalType": "uint256",
          "name": "",
          "type": "uint256"
        }
      ],
      "stateMutability": "view",
      "type": "function",
      "constant": true
    },
    {
      "inputs": [
        {
          "internalType": "bytes32",
          "name": "role",
          "type": "bytes32"
        },
        {
          "internalType": "address",
          "name": "account",
          "type": "address"
        }
      ],
      "name": "grantRole",
      "outputs": [],
      "stateMutability": "nonpayable",
      "type": "function"
    },
    {
      "inputs": [
        {
          "internalType": "bytes32",
          "name": "role",
          "type": "bytes32"
        },
        {
          "internalType": "address",
          "name": "account",
          "type": "address"
        }
      ],
      "name": "hasRole",
      "outputs": [
        {
          "internalType": "bool",
          "name": "",
          "type": "bool"
        }
      ],
      "stateMutability": "view",
      "type": "function",
      "constant": true
    },
    {
      "inputs": [
        {
          "internalType": "bytes32",
          "name": "role",
          "type": "bytes32"
        },
        {
          "internalType": "address",
          "name": "account",
          "type": "address"
        }
      ],
      "name": "renounceRole",
      "outputs": [],
      "stateMutability": "nonpayable",
      "type": "function"
    },
    {
      "inputs": [
        {
          "internalType": "bytes32",
          "name": "role",
          "type": "bytes32"
        },
        {
          "internalType": "address",
          "name": "account",
          "type": "address"
        }
      ],
      "name": "revokeRole",
      "outputs": [],
      "stateMutability": "nonpayable",
      "type": "function"
    },
    {
      "inputs": [
        {
          "internalType": "bytes4",
          "name": "interfaceId",
          "type": "bytes4"
        }
      ],
      "name": "supportsInterface",
      "outputs": [
        {
          "internalType": "bool",
          "name": "",
          "type": "bool"
        }
      ],
      "stateMutability": "view",
      "type": "function",
      "constant": true
    },
    {
      "inputs": [
        {
          "internalType": "address",
          "name": "vcAddress",
          "type": "address"
        }
      ],
      "name": "addVerifiedController",
      "outputs": [],
      "stateMutability": "nonpayable",
      "type": "function"
    },
    {
      "inputs": [
        {
          "internalType": "address",
          "name": "queueContract",
          "type": "address"
        }
      ],
      "name": "setQueue",
      "outputs": [],
      "stateMutability": "nonpayable",
      "type": "function"
    },
    {
      "inputs": [
        {
          "internalType": "address",
          "name": "gsuAddress",
          "type": "address"
        }
      ],
      "name": "setGameStateUpdate",
      "outputs": [],
      "stateMutability": "nonpayable",
      "type": "function"
    },
    {
      "inputs": [
        {
          "internalType": "uint256",
          "name": "queueID",
          "type": "uint256"
        }
      ],
      "name": "shouldContinueProcessing",
      "outputs": [
        {
          "internalType": "bool",
          "name": "",
          "type": "bool"
        },
        {
          "internalType": "uint256[]",
          "name": "",
          "type": "uint256[]"
        },
        {
          "internalType": "string[]",
          "name": "",
          "type": "string[]"
        }
      ],
      "stateMutability": "view",
      "type": "function",
      "constant": true
    },
    {
      "inputs": [
        {
          "internalType": "uint256",
          "name": "queueID",
          "type": "uint256"
        },
        {
          "internalType": "uint256[]",
          "name": "intUpdates",
          "type": "uint256[]"
        },
        {
          "internalType": "string[]",
          "name": "stringUpdates",
          "type": "string[]"
        }
      ],
      "name": "postProcessedGameState",
      "outputs": [],
      "stateMutability": "nonpayable",
      "type": "function"
    }
  ],
  "bytecode": "0x60806040523480156200001157600080fd5b506040516200342b3803806200342b833981016040819052620000349162000244565b6200005c60006200004d64010000000062000082810204565b64010000000062000086810204565b60048054600160a060020a031916600160a060020a039290921691909117905562000276565b3390565b6200009b82826401000000006200009f810204565b5050565b620000b982826401000000006200091a620000e682021704565b6000828152600160205260409020620000e190826401000000006200099e6200018282021704565b505050565b620000fb8282640100000000620001ab810204565b6200009b57600082815260208181526040808320600160a060020a03851684529091529020805460ff191660011790556200013e64010000000062000082810204565b600160a060020a031681600160a060020a0316837f2f8788117e7eff1d82e926ec794901d17c78024a50270940304540a733656f0d60405160405180910390a45050565b6000620001a283600160a060020a038416640100000000620001d4810204565b90505b92915050565b600091825260208281526040808420600160a060020a0393909316845291905290205460ff1690565b6000620001eb83836401000000006200022c810204565b6200022357508154600181810184556000848152602080822090930184905584548482528286019093526040902091909155620001a5565b506000620001a5565b60009081526001919091016020526040902054151590565b6000602082840312156200025757600080fd5b8151600160a060020a03811681146200026f57600080fd5b9392505050565b6131a580620002866000396000f3fe608060405234801561001057600080fd5b50600436106100d95760003560e060020a90048063a217fddf1161008b578063a217fddf146101b2578063a605e7ae146101ba578063c9346832146101cd578063ca15c873146101ef578063d4f5b15214610202578063d547741f14610215578063f3ee7e2c14610228578063f83badd71461023b57600080fd5b806301ffc9a7146100de5780631c834a7f14610106578063248a9ca3146101295780632f2ff15d1461014c57806336568abe146101615780639010d07c1461017457806391d148541461019f575b600080fd5b6100f16100ec366004612949565b61024e565b60405190151581526020015b60405180910390f35b61011b60008051602061315083398151915281565b6040519081526020016100fd565b61011b610137366004612973565b60009081526020819052604090206001015490565b61015f61015a3660046129a8565b610292565b005b61015f61016f3660046129a8565b6102bc565b6101876101823660046129d4565b610350565b604051600160a060020a0390911681526020016100fd565b6100f16101ad3660046129a8565b61036f565b61011b600081565b61015f6101c83660046129f6565b610398565b6101e06101db366004612973565b6103d3565b6040516100fd93929190612aff565b61011b6101fd366004612973565b610547565b61015f6102103660046129f6565b61055e565b61015f6102233660046129a8565b610581565b61015f6102363660046129f6565b6105a6565b61015f610249366004612c98565b6105f1565b6000600160e060020a031982167f5a05180f00000000000000000000000000000000000000000000000000000000148061028c575061028c826109b3565b92915050565b6000828152602081905260409020600101546102ad81610a1a565b6102b78383610a27565b505050565b600160a060020a03811633146103425760405160e560020a62461bcd02815260206004820152602f60248201527f416363657373436f6e74726f6c3a2063616e206f6e6c792072656e6f756e636560448201527f20726f6c657320666f722073656c66000000000000000000000000000000000060648201526084015b60405180910390fd5b61034c8282610a49565b5050565b60008281526001602052604081206103689083610a6b565b9392505050565b600091825260208281526040808420600160a060020a0393909316845291905290205460ff1690565b60006103a381610a1a565b506003805473ffffffffffffffffffffffffffffffffffffffff1916600160a060020a0392909216919091179055565b6000606080826002805460405160e060020a63b1fb640502815260048101889052600160a060020a039091169063b1fb640590602401602060405180830381865afa158015610426573d6000803e3d6000fd5b505050506040513d601f19601f8201168201806040525081019061044a9190612d72565b600581111561045b5761045b612d59565b14806104e6575060025460405160e060020a63b1fb640502815260048101879052600391600160a060020a03169063b1fb640590602401602060405180830381865afa1580156104af573d6000803e3d6000fd5b505050506040513d601f19601f820116820180604052508101906104d39190612d72565b60058111156104e4576104e4612d59565b145b90506060808215610503576104fa87610a77565b9250905061053b565b5060408051600080825260208201818152828401909352909190610537565b60608152602001906001900390816105225790505b5091505b91969195509350915050565b600081815260016020526040812061028c90610c95565b600061056981610a1a565b61034c60008051602061315083398151915283610292565b60008281526020819052604090206001015461059c81610a1a565b6102b78383610a49565b60006105b181610a1a565b6002805473ffffffffffffffffffffffffffffffffffffffff1916600160a060020a03841617905561034c60008051602061315083398151915283610c9f565b60008051602061315083398151915261060981610a1a565b60025460405160e060020a63b1fb640502815260048101869052600091600160a060020a03169063b1fb640590602401602060405180830381865afa158015610656573d6000803e3d6000fd5b505050506040513d601f19601f8201168201806040525081019061067a9190612d72565b6002546040517fcddbe729000000000000000000000000000000000000000000000000000000008152600481018890529192506000918291600160a060020a03169063cddbe72990602401602060405180830381865afa1580156106e2573d6000803e3d6000fd5b505050506040513d601f19601f820116820180604052508101906107069190612d93565b9050600283600581111561071c5761071c612d59565b141561080e5760035460405160e460020a6306776e3d028152600160a060020a0390911690636776e3d09061075990899089908690600401612dac565b600060405180830381600087803b15801561077357600080fd5b505af1158015610787573d6000803e3d6000fd5b50506002546040517f04ac8fee000000000000000000000000000000000000000000000000000000008152600160a060020a0390911692506304ac8fee91506107d7906003908b90600401612de2565b600060405180830381600087803b1580156107f157600080fd5b505af1158015610805573d6000803e3d6000fd5b50505050610911565b600383600581111561082257610822612d59565b14156109115760035460405160e460020a6306776e3d028152600160a060020a0390911690636776e3d09061085f90899089908690600401612dac565b600060405180830381600087803b15801561087957600080fd5b505af115801561088d573d6000803e3d6000fd5b50506002546040517f8e6e1d89000000000000000000000000000000000000000000000000000000008152600481018b90528515156024820152600160a060020a039091169250638e6e1d899150604401600060405180830381600087803b1580156108f857600080fd5b505af115801561090c573d6000803e3d6000fd5b505050505b50505050505050565b610924828261036f565b61034c57600082815260208181526040808320600160a060020a03851684529091529020805460ff1916600117905561095a3390565b600160a060020a031681600160a060020a0316837f2f8788117e7eff1d82e926ec794901d17c78024a50270940304540a733656f0d60405160405180910390a45050565b600061036883600160a060020a038416610ca9565b6000600160e060020a031982167f7965db0b00000000000000000000000000000000000000000000000000000000148061028c57507f01ffc9a700000000000000000000000000000000000000000000000000000000600160e060020a031983161461028c565b610a248133610cf8565b50565b610a31828261091a565b60008281526001602052604090206102b7908261099e565b610a538282610d5f565b60008281526001602052604090206102b79082610dc4565b60006103688383610dd9565b60025460405160e060020a63b1fb6405028152600481018390526060918291600091600160a060020a03169063b1fb640590602401602060405180830381865afa158015610ac9573d6000803e3d6000fd5b505050506040513d601f19601f82011682018060405250810190610aed9190612d72565b6002546040517f1b1d5b2700000000000000000000000000000000000000000000000000000000815260048101879052919250600160a060020a031690631b1d5b2790602401602060405180830381865afa158015610b50573d6000803e3d6000fd5b505050506040513d601f19601f82011682018060405250810190610b749190612d93565b15610c04576002816005811115610b8d57610b8d612d59565b1415610ba657610b9c84610e03565b9093509150610c8f565b6003816005811115610bba57610bba612d59565b1415610bc957610b9c8461115c565b60408051600080825260208201818152828401909352909450610bfc565b6060815260200190600190039081610be75790505b509150610c8f565b6040805160008152600160208201818152606083018452919550909185015b6060815260200190600190039081610c235790505091506040518060400160405280601381526020017f6177616974696e672072616e646f6d6e6573730000000000000000000000000081525082600081518110610c8357610c83612e11565b60200260200101819052505b50915091565b600061028c825490565b61034c8282610a27565b6000818152600183016020526040812054610cf05750815460018181018455600084815260208082209093018490558454848252828601909352604090209190915561028c565b50600061028c565b610d02828261036f565b61034c57610d1a81600160a060020a03166014611439565b610d25836020611439565b604051602001610d36929190612e2a565b60408051601f198184030181529082905260e560020a62461bcd02825261033991600401612eab565b610d69828261036f565b1561034c57600082815260208181526040808320600160a060020a0385168085529252808320805460ff1916905551339285917ff6391f5c32d9c69d2a47ea670b442974b53935d1edc7fd64eb21e047a839171b9190a45050565b600061036883600160a060020a03841661163b565b6000826000018281548110610df057610df0612e11565b9060005260206000200154905092915050565b60025460405160e060020a63ac01b83d02815260048101839052606091829160009182918291829182918291600160a060020a039091169063ac01b83d90602401600060405180830381865afa158015610e61573d6000803e3d6000fd5b505050506040513d6000823e601f3d908101601f19168201604052610e899190810190612ebe565b905060005b8151811015611128576000828281518110610eab57610eab612e11565b60209081029190910101516002546040517f7f041591000000000000000000000000000000000000000000000000000000008152600481018e905260248101839052919250600091600160a060020a0390911690637f04159190604401602060405180830381865afa158015610f25573d6000803e3d6000fd5b505050506040513d601f19601f82011682018060405250810190610f499190612f4c565b90506001816006811115610f5f57610f5f612d59565b1415610f735788610f6f81612f86565b9950505b6002546040517ffd82e21f000000000000000000000000000000000000000000000000000000008152600481018e905260248101849052600091600160a060020a03169063fd82e21f90604401600060405180830381865afa158015610fdd573d6000803e3d6000fd5b505050506040513d6000823e601f3d908101601f191682016040526110059190810190612fee565b51111561101a578661101681612f86565b9750505b6002546040517f9b8e6819000000000000000000000000000000000000000000000000000000008152600481018e905260248101849052600091600160a060020a031690639b8e681990604401600060405180830381865afa158015611084573d6000803e3d6000fd5b505050506040513d6000823e601f3d908101601f191682016040526110ac9190810190612fee565b5111156110c157866110bd81612f86565b9750505b60028160068111156110d5576110d5612d59565b14806110f2575060038160068111156110f0576110f0612d59565b145b15611113578561110181612f86565b965050848061110f90612f86565b9550505b5050808061112090612f86565b915050610e8e565b50600061113987878787878f61172e565b9050600061114a888787878f61206b565b919b919a509098505050505050505050565b6060806001808080806000611172826003613023565b61117d846003613023565b85611189886004613023565b6111948a6002613023565b61119f906005613042565b6111a99190613042565b6111b39190613042565b6111bd9190613042565b6111c79190613042565b905060008167ffffffffffffffff8111156111e4576111e4612b36565b60405190808252806020026020018201604052801561120d578160200160208202803683370190505b50905060058160008151811061122557611225612e11565b60200260200101818152505060068160018151811061124657611246612e11565b60200260200101818152505060078160028151811061126757611267612e11565b60200260200101818152505060088160038151811061128857611288612e11565b6020908102919091010152600760006112a2856002613023565b86886112ae858d613023565b6112b9906001613042565b6112c39190613042565b6112cd9190613042565b6112d79190613042565b905060008167ffffffffffffffff8111156112f4576112f4612b36565b60405190808252806020026020018201604052801561132757816020015b60608152602001906001900390816113125790505b5090506040518060400160405280600781526020017f706c6179696e67000000000000000000000000000000000000000000000000008152508160008151811061137357611373612e11565b60200260200101819052506040518060400160405280600781526020017f7468726f75676800000000000000000000000000000000000000000000000000815250816001815181106113c7576113c7612e11565b60200260200101819052506040518060400160405280600481526020017f67616d65000000000000000000000000000000000000000000000000000000008152508160028151811061141b5761141b612e11565b6020908102919091010152929c929b50919950505050505050505050565b60606000611448836002613023565b611453906002613042565b67ffffffffffffffff81111561146b5761146b612b36565b6040519080825280601f01601f191660200182016040528015611495576020820181803683370190505b5090507f3000000000000000000000000000000000000000000000000000000000000000816000815181106114cc576114cc612e11565b6020010190600160f860020a031916908160001a9053507f78000000000000000000000000000000000000000000000000000000000000008160018151811061151757611517612e11565b6020010190600160f860020a031916908160001a905350600061153b846002613023565b611546906001613042565b90505b60018111156115e9577f303132333435363738396162636465660000000000000000000000000000000085600f166010811061158757611587612e11565b1a7f0100000000000000000000000000000000000000000000000000000000000000028282815181106115bc576115bc612e11565b6020010190600160f860020a031916908160001a9053506010909404936115e28161305a565b9050611549565b5083156103685760405160e560020a62461bcd02815260206004820181905260248201527f537472696e67733a20686578206c656e67746820696e73756666696369656e746044820152606401610339565b6000818152600183016020526040812054801561172457600061165f600183613071565b855490915060009061167390600190613071565b90508181146116d857600086600001828154811061169357611693612e11565b90600052602060002001549050808760000184815481106116b6576116b6612e11565b6000918252602080832090910192909255918252600188019052604090208390555b85548690806116e9576116e9613088565b60019003818190600052602060002001600090559055856001016000868152602001908152602001600020600090556001935050505061028c565b600091505061028c565b6060600061173d846003613023565b611748866003613023565b611753886002613023565b61175e8a6004613023565b6117698c6002613023565b611774906005613042565b61177e9190613042565b6117889190613042565b6117929190613042565b61179c9190613042565b905060008167ffffffffffffffff8111156117b9576117b9612b36565b6040519080825280602002602001820160405280156117e2578160200160208202803683370190505b50905088816000815181106117f9576117f9612e11565b602002602001018181525050878160018151811061181957611819612e11565b602002602001018181525050868160028151811061183957611839612e11565b602002602001018181525050858160038151811061185957611859612e11565b602002602001018181525050848160048151811061187957611879612e11565b602090810291909101015260025460405160e060020a63ac01b83d02815260048101869052600091600160a060020a03169063ac01b83d90602401600060405180830381865afa1580156118d1573d6000803e3d6000fd5b505050506040513d6000823e601f3d908101601f191682016040526118f99190810190612ebe565b9050600560005b8251811015611ade576002548351600191600160a060020a031690637f041591908a9087908690811061193557611935612e11565b60200260200101516040518363ffffffff1660e060020a028152600401611966929190918252602082015260400190565b602060405180830381865afa158015611983573d6000803e3d6000fd5b505050506040513d601f19601f820116820180604052508101906119a79190612f4c565b60068111156119b8576119b8612d59565b1415611acc578281815181106119d0576119d0612e11565b60200260200101518483815181106119ea576119ea612e11565b60209081029190910101526002548351600160a060020a039091169063a2dc5860908990869085908110611a2057611a20612e11565b60200260200101516040518363ffffffff1660e060020a028152600401611a51929190918252602082015260400190565b600060405180830381865afa158015611a6e573d6000803e3d6000fd5b505050506040513d6000823e601f3d908101601f19168201604052611a9691908101906130a1565b5184611aa3846001613042565b81518110611ab357611ab3612e11565b6020908102919091010152611ac9600283613042565b91505b80611ad681612f86565b915050611900565b5060005b8251811015611ba1576002548351600091600160a060020a03169063fd82e21f908a90879086908110611b1757611b17612e11565b60200260200101516040518363ffffffff1660e060020a028152600401611b48929190918252602082015260400190565b600060405180830381865afa158015611b65573d6000803e3d6000fd5b505050506040513d6000823e601f3d908101601f19168201604052611b8d9190810190612fee565b505080611b9981612f86565b915050611ae2565b5060005b8251811015611c64576002548351600091600160a060020a031690639b8e6819908a90879086908110611bda57611bda612e11565b60200260200101516040518363ffffffff1660e060020a028152600401611c0b929190918252602082015260400190565b600060405180830381865afa158015611c28573d6000803e3d6000fd5b505050506040513d6000823e601f3d908101601f19168201604052611c509190810190612fee565b505080611c5c81612f86565b915050611ba5565b5060005b8251811015611deb57600280548451600160a060020a0390911690637f041591908a90879086908110611c9d57611c9d612e11565b60200260200101516040518363ffffffff1660e060020a028152600401611cce929190918252602082015260400190565b602060405180830381865afa158015611ceb573d6000803e3d6000fd5b505050506040513d601f19601f82011682018060405250810190611d0f9190612f4c565b6006811115611d2057611d20612d59565b1480611dd857506002548351600391600160a060020a031690637f041591908a90879086908110611d5357611d53612e11565b60200260200101516040518363ffffffff1660e060020a028152600401611d84929190918252602082015260400190565b602060405180830381865afa158015611da1573d6000803e3d6000fd5b505050506040513d601f19601f82011682018060405250810190611dc59190612f4c565b6006811115611dd657611dd6612d59565b145b5080611de381612f86565b915050611c68565b5060005b8251811015611ebb576002548351600491600160a060020a031690637f041591908a90879086908110611e2457611e24612e11565b60200260200101516040518363ffffffff1660e060020a028152600401611e55929190918252602082015260400190565b602060405180830381865afa158015611e72573d6000803e3d6000fd5b505050506040513d601f19601f82011682018060405250810190611e969190612f4c565b6006811115611ea757611ea7612d59565b505080611eb381612f86565b915050611def565b5060005b8251811015611f8b576002548351600591600160a060020a031690637f041591908a90879086908110611ef457611ef4612e11565b60200260200101516040518363ffffffff1660e060020a028152600401611f25929190918252602082015260400190565b602060405180830381865afa158015611f42573d6000803e3d6000fd5b505050506040513d601f19601f82011682018060405250810190611f669190612f4c565b6006811115611f7757611f77612d59565b505080611f8381612f86565b915050611ebf565b5060005b825181101561205b576002548351600691600160a060020a031690637f041591908a90879086908110611fc457611fc4612e11565b60200260200101516040518363ffffffff1660e060020a028152600401611ff5929190918252602082015260400190565b602060405180830381865afa158015612012573d6000803e3d6000fd5b505050506040513d601f19601f820116820180604052508101906120369190612f4c565b600681111561204757612047612d59565b50508061205381612f86565b915050611f8f565b50919a9950505050505050505050565b60606007600061207c856002613023565b8688612088858c613023565b612093906001613042565b61209d9190613042565b6120a79190613042565b6120b19190613042565b905060008167ffffffffffffffff8111156120ce576120ce612b36565b60405190808252806020026020018201604052801561210157816020015b60608152602001906001900390816120ec5790505b5090506040518060400160405280600381526020017f44617900000000000000000000000000000000000000000000000000000000008152508160008151811061214d5761214d612e11565b602090810291909101015260025460405160e060020a63ac01b83d02815260048101879052600091600160a060020a03169063ac01b83d90602401600060405180830381865afa1580156121a5573d6000803e3d6000fd5b505050506040513d6000823e601f3d908101601f191682016040526121cd9190810190612ebe565b9050600160005b82518110156123cc576002548351600191600160a060020a031690637f041591908b9087908690811061220957612209612e11565b60200260200101516040518363ffffffff1660e060020a02815260040161223a929190918252602082015260400190565b602060405180830381865afa158015612257573d6000803e3d6000fd5b505050506040513d601f19601f8201168201806040525081019061227b9190612f4c565b600681111561228c5761228c612d59565b14156123ba576002548351600091600160a060020a03169063a2dc5860908b908790869081106122be576122be612e11565b60200260200101516040518363ffffffff1660e060020a0281526004016122ef929190918252602082015260400190565b600060405180830381865afa15801561230c573d6000803e3d6000fd5b505050506040513d6000823e601f3d908101601f1916820160405261233491908101906130a1565b905060005b878110156123b7578151811061235e5760405180602001604052806000815250612379565b81818151811061237057612370612e11565b60200260200101515b86858151811061238b5761238b612e11565b602002602001018190525083806123a190612f86565b94505080806123af90612f86565b915050612339565b50505b806123c481612f86565b9150506121d4565b5060005b825181101561248f576002548351600091600160a060020a03169063fd82e21f908b9087908690811061240557612405612e11565b60200260200101516040518363ffffffff1660e060020a028152600401612436929190918252602082015260400190565b600060405180830381865afa158015612453573d6000803e3d6000fd5b505050506040513d6000823e601f3d908101601f1916820160405261247b9190810190612fee565b50508061248781612f86565b9150506123d0565b5060005b8251811015612552576002548351600091600160a060020a031690639b8e6819908b908790869081106124c8576124c8612e11565b60200260200101516040518363ffffffff1660e060020a0281526004016124f9929190918252602082015260400190565b600060405180830381865afa158015612516573d6000803e3d6000fd5b505050506040513d6000823e601f3d908101601f1916820160405261253e9190810190612fee565b50508061254a81612f86565b915050612493565b5060005b82518110156126d957600280548451600160a060020a0390911690637f041591908b9087908690811061258b5761258b612e11565b60200260200101516040518363ffffffff1660e060020a0281526004016125bc929190918252602082015260400190565b602060405180830381865afa1580156125d9573d6000803e3d6000fd5b505050506040513d601f19601f820116820180604052508101906125fd9190612f4c565b600681111561260e5761260e612d59565b14806126c657506002548351600391600160a060020a031690637f041591908b9087908690811061264157612641612e11565b60200260200101516040518363ffffffff1660e060020a028152600401612672929190918252602082015260400190565b602060405180830381865afa15801561268f573d6000803e3d6000fd5b505050506040513d601f19601f820116820180604052508101906126b39190612f4c565b60068111156126c4576126c4612d59565b145b50806126d181612f86565b915050612556565b5060005b82518110156127a9576002548351600491600160a060020a031690637f041591908b9087908690811061271257612712612e11565b60200260200101516040518363ffffffff1660e060020a028152600401612743929190918252602082015260400190565b602060405180830381865afa158015612760573d6000803e3d6000fd5b505050506040513d601f19601f820116820180604052508101906127849190612f4c565b600681111561279557612795612d59565b5050806127a181612f86565b9150506126dd565b5060005b8251811015612879576002548351600591600160a060020a031690637f041591908b908790869081106127e2576127e2612e11565b60200260200101516040518363ffffffff1660e060020a028152600401612813929190918252602082015260400190565b602060405180830381865afa158015612830573d6000803e3d6000fd5b505050506040513d601f19601f820116820180604052508101906128549190612f4c565b600681111561286557612865612d59565b50508061287181612f86565b9150506127ad565b5060005b825181101561205b576002548351600691600160a060020a031690637f041591908b908790869081106128b2576128b2612e11565b60200260200101516040518363ffffffff1660e060020a0281526004016128e3929190918252602082015260400190565b602060405180830381865afa158015612900573d6000803e3d6000fd5b505050506040513d601f19601f820116820180604052508101906129249190612f4c565b600681111561293557612935612d59565b50508061294181612f86565b91505061287d565b60006020828403121561295b57600080fd5b8135600160e060020a03198116811461036857600080fd5b60006020828403121561298557600080fd5b5035919050565b8035600160a060020a03811681146129a357600080fd5b919050565b600080604083850312156129bb57600080fd5b823591506129cb6020840161298c565b90509250929050565b600080604083850312156129e757600080fd5b50508035926020909101359150565b600060208284031215612a0857600080fd5b6103688261298c565b600081518084526020808501945080840160005b83811015612a4157815187529582019590820190600101612a25565b509495945050505050565b60005b83811015612a67578181015183820152602001612a4f565b83811115612a76576000848401525b50505050565b60008151808452612a94816020860160208601612a4c565b601f01601f19169290920160200192915050565b6000828251808552602080860195508081830284010181860160005b84811015612af257601f19868403018952612ae0838351612a7c565b98840198925090830190600101612ac4565b5090979650505050505050565b8315158152606060208201526000612b1a6060830185612a11565b8281036040840152612b2c8185612aa8565b9695505050505050565b60e060020a634e487b7102600052604160045260246000fd5b604051601f8201601f1916810167ffffffffffffffff81118282101715612b7857612b78612b36565b604052919050565b600067ffffffffffffffff821115612b9a57612b9a612b36565b5060209081020190565b600067ffffffffffffffff821115612bbe57612bbe612b36565b50601f01601f191660200190565b600082601f830112612bdd57600080fd5b81356020612bf2612bed83612b80565b612b4f565b82815291810284018101918181019086841115612c0e57600080fd5b8286015b84811015612c8d57803567ffffffffffffffff811115612c325760008081fd5b8701603f81018913612c445760008081fd5b848101356040612c56612bed83612ba4565b8281528b82848601011115612c6b5760008081fd5b8282850189830137600092810188019290925250845250918301918301612c12565b509695505050505050565b600080600060608486031215612cad57600080fd5b8335925060208085013567ffffffffffffffff80821115612ccd57600080fd5b818701915087601f830112612ce157600080fd5b8135612cef612bed82612b80565b8181529084028301840190848101908a831115612d0b57600080fd5b938501935b82851015612d2957843582529385019390850190612d10565b965050506040870135925080831115612d4157600080fd5b5050612d4f86828701612bcc565b9150509250925092565b60e060020a634e487b7102600052602160045260246000fd5b600060208284031215612d8457600080fd5b81516006811061036857600080fd5b600060208284031215612da557600080fd5b5051919050565b606081526000612dbf6060830186612a11565b8281036020840152612dd18186612aa8565b915050826040830152949350505050565b6040810160068410612e075760e060020a634e487b7102600052602160045260246000fd5b9281526020015290565b60e060020a634e487b7102600052603260045260246000fd5b7f416363657373436f6e74726f6c3a206163636f756e7420000000000000000000815260008351612e62816017850160208801612a4c565b7f206973206d697373696e6720726f6c65200000000000000000000000000000006017918401918201528351612e9f816028840160208801612a4c565b01602801949350505050565b6020815260006103686020830184612a7c565b60006020808385031215612ed157600080fd5b825167ffffffffffffffff811115612ee857600080fd5b8301601f81018513612ef957600080fd5b8051612f07612bed82612b80565b81815290830282018301908381019087831115612f2357600080fd5b928401925b82841015612f4157835182529284019290840190612f28565b979650505050505050565b600060208284031215612f5e57600080fd5b81516007811061036857600080fd5b60e060020a634e487b7102600052601160045260246000fd5b6000600019821415612f9a57612f9a612f6d565b5060010190565b600082601f830112612fb257600080fd5b8151612fc0612bed82612ba4565b818152846020838601011115612fd557600080fd5b612fe6826020830160208701612a4c565b949350505050565b60006020828403121561300057600080fd5b815167ffffffffffffffff81111561301757600080fd5b612fe684828501612fa1565b600081600019048311821515161561303d5761303d612f6d565b500290565b6000821982111561305557613055612f6d565b500190565b60008161306957613069612f6d565b506000190190565b60008282101561308357613083612f6d565b500390565b60e060020a634e487b7102600052603160045260246000fd5b600060208083850312156130b457600080fd5b825167ffffffffffffffff808211156130cc57600080fd5b818501915085601f8301126130e057600080fd5b81516130ee612bed82612b80565b8181529084028301840190848101908883111561310a57600080fd5b8585015b83811015613142578051858111156131265760008081fd5b6131348b89838a0101612fa1565b84525091860191860161310e565b509897505050505050505056fe80e2196015fc06a9d891759f8e4f51eb314ef5e9ea068528a8ed0063b87759f0a26469706673582212204808150075920c19eeba2bdb7130969849abed152bf8de00394dfdd611a4c75964736f6c634300080b0033",
  "immutableReferences": {},
  "source": "// SPDX-License-Identifier: GPL-3.0\npragma solidity >=0.7.0 <0.9.0;\n\nimport \"./HexplorationQueue.sol\";\nimport \"./HexplorationStateUpdate.sol\";\nimport \"./state/GameSummary.sol\";\nimport \"@openzeppelin/contracts/access/AccessControlEnumerable.sol\";\n\ncontract HexplorationGameplay is AccessControlEnumerable {\n    bytes32 public constant VERIFIED_CONTROLLER_ROLE =\n        keccak256(\"VERIFIED_CONTROLLER_ROLE\");\n\n    HexplorationQueue QUEUE;\n    HexplorationStateUpdate GAME_STATE;\n    address gameSummaryAddress;\n\n    constructor(address _gameSummaryAddress) {\n        _setupRole(DEFAULT_ADMIN_ROLE, _msgSender());\n        gameSummaryAddress = _gameSummaryAddress;\n    }\n\n    function addVerifiedController(address vcAddress)\n        public\n        onlyRole(DEFAULT_ADMIN_ROLE)\n    {\n        grantRole(VERIFIED_CONTROLLER_ROLE, vcAddress);\n    }\n\n    function setQueue(address queueContract)\n        public\n        onlyRole(DEFAULT_ADMIN_ROLE)\n    {\n        QUEUE = HexplorationQueue(queueContract);\n        _setupRole(VERIFIED_CONTROLLER_ROLE, queueContract);\n    }\n\n    function setGameStateUpdate(address gsuAddress)\n        public\n        onlyRole(DEFAULT_ADMIN_ROLE)\n    {\n        GAME_STATE = HexplorationStateUpdate(gsuAddress);\n    }\n\n    // Keeper functions...\n    // returns if should be processing and processed moves to post if so\n    // this will be run twice for each phase, once for player actions,\n    // once for playing out world scenarios\n    function shouldContinueProcessing(uint256 queueID)\n        public\n        view\n        returns (\n            bool,\n            uint256[] memory,\n            string[] memory\n        )\n    {\n        bool shouldContinue = QUEUE.currentPhase(queueID) ==\n            HexplorationQueue.ProcessingPhase.Processing ||\n            QUEUE.currentPhase(queueID) ==\n            HexplorationQueue.ProcessingPhase.PlayThrough;\n        string[] memory stringsToPost;\n        uint256[] memory valuesToPost;\n        if (shouldContinue) {\n            (valuesToPost, stringsToPost) = process(queueID);\n        } else {\n            valuesToPost = new uint256[](0);\n            stringsToPost = new string[](0);\n        }\n\n        return (shouldContinue, valuesToPost, stringsToPost);\n    }\n\n    // posts data returned from shouldContinueProcessing()...\n    function postProcessedGameState(\n        uint256 queueID,\n        uint256[] memory intUpdates,\n        string[] memory stringUpdates\n    ) public onlyRole(VERIFIED_CONTROLLER_ROLE) {\n        HexplorationQueue.ProcessingPhase phase = QUEUE.currentPhase(queueID);\n\n        // TODO: set this to true when game is finished\n        bool gameComplete = false;\n        uint256 gameID = QUEUE.game(queueID);\n        if (phase == HexplorationQueue.ProcessingPhase.Processing) {\n            GAME_STATE.postUpdates(intUpdates, stringUpdates, gameID);\n            QUEUE.setPhase(\n                HexplorationQueue.ProcessingPhase.PlayThrough,\n                queueID\n            );\n        } else if (phase == HexplorationQueue.ProcessingPhase.PlayThrough) {\n            GAME_STATE.postUpdates(intUpdates, stringUpdates, gameID);\n            QUEUE.finishProcessing(queueID, gameComplete);\n        }\n    }\n\n    function process(uint256 queueID)\n        internal\n        view\n        returns (uint256[] memory intValues, string[] memory stringValues)\n    {\n        HexplorationQueue.ProcessingPhase phase = QUEUE.currentPhase(queueID);\n        if (QUEUE.randomness(queueID) != 0) {\n            if (phase == HexplorationQueue.ProcessingPhase.Processing) {\n                (intValues, stringValues) = processPlayerActions(queueID);\n            } else if (phase == HexplorationQueue.ProcessingPhase.PlayThrough) {\n                (intValues, stringValues) = playThrough(queueID);\n            } else {\n                intValues = new uint256[](0);\n                stringValues = new string[](0);\n            }\n        } else {\n            // randomness not set for queue yet\n            intValues = new uint256[](0);\n            stringValues = new string[](1);\n            stringValues[0] = \"awaiting randomness\";\n        }\n\n        // maybe we don't call this, since it needs to update state...\n        // update this when we pass the results from the shouldProcess\n        //finishProcessing(queueID);\n\n        // Update TODO: expand for processing larger turns...\n        // something like\n        // if (currentPhase == HexplorationQueue.ProcessingPhase.Processing) {\n        //     // processPlayerActions()\n        // } else if (\n        //     currentPhase == HexplorationQueue.ProcessingPhase.PlayThrough\n        // ) {\n        //     // playThrough()\n        //     // finishProcessing()\n        // }\n    }\n\n    function processPlayerActions(uint256 queueID)\n        internal\n        view\n        returns (uint256[] memory, string[] memory)\n    {\n        // TODO: get real values\n        uint256 totalPlayerPositionUpdates = 0;\n        uint256 totalPlayerStatUpdates = 0;\n        uint256 totalPlayerEquips = 0;\n        uint256 totalPlayerTfers = 0;\n        uint256 totalZoneTfers = 0;\n\n        uint256[] memory playersInQueue = QUEUE.getAllPlayers(queueID);\n        for (uint256 i = 0; i < playersInQueue.length; i++) {\n            uint256 playerID = playersInQueue[i];\n            HexplorationQueue.Action action = QUEUE.submissionAction(\n                queueID,\n                playerID\n            );\n            /*\n            Idle,\n            Move,\n            SetupCamp,\n            BreakDownCamp,\n            Dig,\n            Rest,\n            Help\n            */\n            if (action == HexplorationQueue.Action.Move) {\n                totalPlayerPositionUpdates++;\n            }\n            if (bytes(QUEUE.submissionLeftHand(queueID, playerID)).length > 0) {\n                totalPlayerEquips++;\n            }\n            if (\n                bytes(QUEUE.submissionRightHand(queueID, playerID)).length > 0\n            ) {\n                totalPlayerEquips++;\n            }\n            if (\n                action == HexplorationQueue.Action.SetupCamp ||\n                action == HexplorationQueue.Action.BreakDownCamp\n            ) {\n                // either will have tfer between player and board + zone and board\n                totalPlayerTfers++;\n                totalZoneTfers++;\n            }\n        }\n\n        // Next:\n        // If dig:\n        // pull treasure card or ambush\n        // receive inventory / artifact or go to battle\n        // update totals after Dig, Rest, Help\n\n        // TODO: get updated stats after movement\n\n        uint256[] memory intReturn = processedIntArray(\n            totalPlayerPositionUpdates,\n            totalPlayerStatUpdates,\n            totalPlayerEquips,\n            totalPlayerTfers,\n            totalZoneTfers,\n            queueID\n        );\n\n        string[] memory stringReturn = processedStringArray(\n            totalPlayerPositionUpdates,\n            totalPlayerEquips,\n            totalPlayerTfers,\n            totalZoneTfers,\n            queueID\n        );\n\n        return (intReturn, stringReturn);\n    }\n\n    function playThrough(uint256 queueID)\n        internal\n        view\n        returns (uint256[] memory, string[] memory)\n    {\n        // TODO: get real values\n        uint256 totalPlayerPositionUpdates = 1;\n        uint256 totalPlayerStatUpdates = 1;\n        uint256 totalPlayerEquips = 1;\n        uint256 totalPlayerTfers = 1;\n        uint256 totalZoneTfers = 1;\n\n        uint256 intReturnLength = 5 +\n            (totalPlayerPositionUpdates * 2) +\n            (totalPlayerStatUpdates * 4) +\n            totalPlayerEquips +\n            (totalPlayerTfers * 3) +\n            (totalZoneTfers * 3);\n\n        uint256[] memory intReturn = new uint256[](intReturnLength);\n        intReturn[0] = 5;\n        intReturn[1] = 6;\n        intReturn[2] = 7;\n        intReturn[3] = 8;\n\n        // TODO: update to actual max value\n        uint256 maxMovementPerPlayer = 7; // should be set to max movement + 1 (if 6 max set to 7)\n        uint256 stringReturnLength = 1 +\n            (totalPlayerPositionUpdates * maxMovementPerPlayer) +\n            totalPlayerEquips +\n            totalPlayerTfers +\n            (totalZoneTfers * 2);\n\n        string[] memory stringReturn = new string[](stringReturnLength);\n        stringReturn[0] = \"playing\";\n        stringReturn[1] = \"through\";\n        stringReturn[2] = \"game\";\n        return (intReturn, stringReturn);\n        // if day phase (){\n        // Play through events\n        // daily events\n        //}\n        // if (end game) {\n        // play enemy stuff here\n        //}\n    }\n\n    function processedIntArray(\n        uint256 totalPlayerPositionUpdates,\n        uint256 totalPlayerStatUpdates,\n        uint256 totalPlayerEquips,\n        uint256 totalPlayerTfers,\n        uint256 totalZoneTfers,\n        uint256 queueID\n    ) internal view returns (uint256[] memory) {\n        uint256 intReturnLength = 5 +\n            (totalPlayerPositionUpdates * 2) +\n            (totalPlayerStatUpdates * 4) +\n            (totalPlayerEquips * 2) +\n            (totalPlayerTfers * 3) +\n            (totalZoneTfers * 3);\n\n        uint256[] memory intReturn = new uint256[](intReturnLength);\n        intReturn[0] = totalPlayerPositionUpdates;\n        intReturn[1] = totalPlayerStatUpdates;\n        intReturn[2] = totalPlayerEquips;\n        intReturn[3] = totalPlayerTfers;\n        intReturn[4] = totalZoneTfers;\n\n        uint256[] memory playersInQueue = QUEUE.getAllPlayers(queueID);\n\n        uint256 currentArrayPosition = 5;\n\n        // Movement\n        for (uint256 i = 0; i < playersInQueue.length; i++) {\n            if (\n                QUEUE.submissionAction(queueID, playersInQueue[i]) ==\n                HexplorationQueue.Action.Move\n            ) {\n                // adding player id, # spaces to move\n                intReturn[currentArrayPosition] = playersInQueue[i];\n                intReturn[currentArrayPosition + 1] = QUEUE\n                    .getSubmissionOptions(queueID, playersInQueue[i])\n                    .length;\n                currentArrayPosition += 2;\n            }\n        }\n\n        // LH equip\n        for (uint256 i = 0; i < playersInQueue.length; i++) {\n            if (\n                bytes(QUEUE.submissionLeftHand(queueID, playersInQueue[i]))\n                    .length > 0\n            ) {}\n        }\n\n        // RH equip\n        for (uint256 i = 0; i < playersInQueue.length; i++) {\n            if (\n                bytes(QUEUE.submissionRightHand(queueID, playersInQueue[i]))\n                    .length > 0\n            ) {}\n        }\n\n        // Camp actions\n        for (uint256 i = 0; i < playersInQueue.length; i++) {\n            if (\n                QUEUE.submissionAction(queueID, playersInQueue[i]) ==\n                HexplorationQueue.Action.SetupCamp ||\n                QUEUE.submissionAction(queueID, playersInQueue[i]) ==\n                HexplorationQueue.Action.BreakDownCamp\n            ) {}\n        }\n\n        // Dig\n        for (uint256 i = 0; i < playersInQueue.length; i++) {\n            if (\n                QUEUE.submissionAction(queueID, playersInQueue[i]) ==\n                HexplorationQueue.Action.Dig\n            ) {}\n        }\n\n        //Rest\n        for (uint256 i = 0; i < playersInQueue.length; i++) {\n            if (\n                QUEUE.submissionAction(queueID, playersInQueue[i]) ==\n                HexplorationQueue.Action.Rest\n            ) {}\n        }\n\n        // Help\n        for (uint256 i = 0; i < playersInQueue.length; i++) {\n            if (\n                QUEUE.submissionAction(queueID, playersInQueue[i]) ==\n                HexplorationQueue.Action.Help\n            ) {}\n        }\n\n        return intReturn;\n    }\n\n    function processedStringArray(\n        uint256 totalPlayerPositionUpdates,\n        uint256 totalPlayerEquips,\n        uint256 totalPlayerTfers,\n        uint256 totalZoneTfers,\n        uint256 queueID\n    ) internal view returns (string[] memory) {\n        // TODO: update to actual max value\n        uint256 maxMovementPerPlayer = 7;\n        uint256 stringReturnLength = 1 +\n            (totalPlayerPositionUpdates * maxMovementPerPlayer) +\n            totalPlayerEquips +\n            totalPlayerTfers +\n            (totalZoneTfers * 2);\n\n        string[] memory stringReturn = new string[](stringReturnLength);\n        // TODO: update to actual game phase...\n        stringReturn[0] = \"Day\";\n\n        uint256[] memory playersInQueue = QUEUE.getAllPlayers(queueID);\n\n        uint256 currentArrayPosition = 1;\n\n        // Movement\n        for (uint256 i = 0; i < playersInQueue.length; i++) {\n            if (\n                QUEUE.submissionAction(queueID, playersInQueue[i]) ==\n                HexplorationQueue.Action.Move\n            ) {\n                string[] memory options = QUEUE.getSubmissionOptions(\n                    queueID,\n                    playersInQueue[i]\n                );\n                for (uint256 j = 0; j < maxMovementPerPlayer; j++) {\n                    stringReturn[currentArrayPosition] = j < options.length\n                        ? options[j]\n                        : \"\";\n                    currentArrayPosition++;\n                }\n            }\n        }\n\n        // LH equip\n        for (uint256 i = 0; i < playersInQueue.length; i++) {\n            if (\n                bytes(QUEUE.submissionLeftHand(queueID, playersInQueue[i]))\n                    .length > 0\n            ) {}\n        }\n\n        // RH equip\n        for (uint256 i = 0; i < playersInQueue.length; i++) {\n            if (\n                bytes(QUEUE.submissionRightHand(queueID, playersInQueue[i]))\n                    .length > 0\n            ) {}\n        }\n\n        // Camp actions\n        for (uint256 i = 0; i < playersInQueue.length; i++) {\n            if (\n                QUEUE.submissionAction(queueID, playersInQueue[i]) ==\n                HexplorationQueue.Action.SetupCamp ||\n                QUEUE.submissionAction(queueID, playersInQueue[i]) ==\n                HexplorationQueue.Action.BreakDownCamp\n            ) {}\n        }\n\n        // Dig\n        for (uint256 i = 0; i < playersInQueue.length; i++) {\n            if (\n                QUEUE.submissionAction(queueID, playersInQueue[i]) ==\n                HexplorationQueue.Action.Dig\n            ) {}\n        }\n\n        //Rest\n        for (uint256 i = 0; i < playersInQueue.length; i++) {\n            if (\n                QUEUE.submissionAction(queueID, playersInQueue[i]) ==\n                HexplorationQueue.Action.Rest\n            ) {}\n        }\n\n        // Help\n        for (uint256 i = 0; i < playersInQueue.length; i++) {\n            if (\n                QUEUE.submissionAction(queueID, playersInQueue[i]) ==\n                HexplorationQueue.Action.Help\n            ) {}\n        }\n        // set movement zones\n        return stringReturn;\n    }\n}\n\n// What is processing?\n// take all moves from batch, verify are valid moves, and\n// return list of final moves to process\n// keeper will post list of final moves to contract,\n//// *shouldn't be able to fail if it got this far\n// moves that failed pre-check will be returned as another list that will get logged in an event\n\n// Initial thoughts for scaling...\n// figure out most expensive move and only do as many as can be safely completed\n// in one transaction\n// start at currentQueuePosition\n// after each move is processed currentQueuePosition++\n// on after final batch, switch day / night and\n// set QUEUE.setPhase(HexplorationQueue.ProcessingPhase.PlayThrough, queueID);\n",
  "sourcePath": "/Users/maxmeier/Developer/Lucky Machines/hexploration/contracts/HexplorationGameplay.sol",
  "compiler": {
    "name": "solc",
    "version": "0.8.11+commit.d7f03943.Emscripten.clang"
  },
  "schemaVersion": "3.4.4",
  "updatedAt": "2022-05-23T22:02:58.830Z",
  "networkType": "ethereum",
  "devdoc": {
    "kind": "dev",
    "methods": {
      "getRoleAdmin(bytes32)": {
        "details": "Returns the admin role that controls `role`. See {grantRole} and {revokeRole}. To change a role's admin, use {_setRoleAdmin}."
      },
      "getRoleMember(bytes32,uint256)": {
        "details": "Returns one of the accounts that have `role`. `index` must be a value between 0 and {getRoleMemberCount}, non-inclusive. Role bearers are not sorted in any particular way, and their ordering may change at any point. WARNING: When using {getRoleMember} and {getRoleMemberCount}, make sure you perform all queries on the same block. See the following https://forum.openzeppelin.com/t/iterating-over-elements-on-enumerableset-in-openzeppelin-contracts/2296[forum post] for more information."
      },
      "getRoleMemberCount(bytes32)": {
        "details": "Returns the number of accounts that have `role`. Can be used together with {getRoleMember} to enumerate all bearers of a role."
      },
      "grantRole(bytes32,address)": {
        "details": "Grants `role` to `account`. If `account` had not been already granted `role`, emits a {RoleGranted} event. Requirements: - the caller must have ``role``'s admin role."
      },
      "hasRole(bytes32,address)": {
        "details": "Returns `true` if `account` has been granted `role`."
      },
      "renounceRole(bytes32,address)": {
        "details": "Revokes `role` from the calling account. Roles are often managed via {grantRole} and {revokeRole}: this function's purpose is to provide a mechanism for accounts to lose their privileges if they are compromised (such as when a trusted device is misplaced). If the calling account had been revoked `role`, emits a {RoleRevoked} event. Requirements: - the caller must be `account`."
      },
      "revokeRole(bytes32,address)": {
        "details": "Revokes `role` from `account`. If `account` had been granted `role`, emits a {RoleRevoked} event. Requirements: - the caller must have ``role``'s admin role."
      },
      "supportsInterface(bytes4)": {
        "details": "See {IERC165-supportsInterface}."
      }
    },
    "version": 1
  },
  "userdoc": {
    "kind": "user",
    "methods": {},
    "version": 1
  }
}