{
  "contractName": "HexplorationGameplay",
  "abi": [
    {
      "inputs": [],
      "stateMutability": "nonpayable",
      "type": "constructor"
    },
    {
      "anonymous": false,
      "inputs": [
        {
          "indexed": true,
          "internalType": "bytes32",
          "name": "role",
          "type": "bytes32"
        },
        {
          "indexed": true,
          "internalType": "bytes32",
          "name": "previousAdminRole",
          "type": "bytes32"
        },
        {
          "indexed": true,
          "internalType": "bytes32",
          "name": "newAdminRole",
          "type": "bytes32"
        }
      ],
      "name": "RoleAdminChanged",
      "type": "event"
    },
    {
      "anonymous": false,
      "inputs": [
        {
          "indexed": true,
          "internalType": "bytes32",
          "name": "role",
          "type": "bytes32"
        },
        {
          "indexed": true,
          "internalType": "address",
          "name": "account",
          "type": "address"
        },
        {
          "indexed": true,
          "internalType": "address",
          "name": "sender",
          "type": "address"
        }
      ],
      "name": "RoleGranted",
      "type": "event"
    },
    {
      "anonymous": false,
      "inputs": [
        {
          "indexed": true,
          "internalType": "bytes32",
          "name": "role",
          "type": "bytes32"
        },
        {
          "indexed": true,
          "internalType": "address",
          "name": "account",
          "type": "address"
        },
        {
          "indexed": true,
          "internalType": "address",
          "name": "sender",
          "type": "address"
        }
      ],
      "name": "RoleRevoked",
      "type": "event"
    },
    {
      "inputs": [],
      "name": "DEFAULT_ADMIN_ROLE",
      "outputs": [
        {
          "internalType": "bytes32",
          "name": "",
          "type": "bytes32"
        }
      ],
      "stateMutability": "view",
      "type": "function",
      "constant": true
    },
    {
      "inputs": [],
      "name": "VERIFIED_CONTROLLER_ROLE",
      "outputs": [
        {
          "internalType": "bytes32",
          "name": "",
          "type": "bytes32"
        }
      ],
      "stateMutability": "view",
      "type": "function",
      "constant": true
    },
    {
      "inputs": [
        {
          "internalType": "bytes32",
          "name": "role",
          "type": "bytes32"
        }
      ],
      "name": "getRoleAdmin",
      "outputs": [
        {
          "internalType": "bytes32",
          "name": "",
          "type": "bytes32"
        }
      ],
      "stateMutability": "view",
      "type": "function",
      "constant": true
    },
    {
      "inputs": [
        {
          "internalType": "bytes32",
          "name": "role",
          "type": "bytes32"
        },
        {
          "internalType": "uint256",
          "name": "index",
          "type": "uint256"
        }
      ],
      "name": "getRoleMember",
      "outputs": [
        {
          "internalType": "address",
          "name": "",
          "type": "address"
        }
      ],
      "stateMutability": "view",
      "type": "function",
      "constant": true
    },
    {
      "inputs": [
        {
          "internalType": "bytes32",
          "name": "role",
          "type": "bytes32"
        }
      ],
      "name": "getRoleMemberCount",
      "outputs": [
        {
          "internalType": "uint256",
          "name": "",
          "type": "uint256"
        }
      ],
      "stateMutability": "view",
      "type": "function",
      "constant": true
    },
    {
      "inputs": [
        {
          "internalType": "bytes32",
          "name": "role",
          "type": "bytes32"
        },
        {
          "internalType": "address",
          "name": "account",
          "type": "address"
        }
      ],
      "name": "grantRole",
      "outputs": [],
      "stateMutability": "nonpayable",
      "type": "function"
    },
    {
      "inputs": [
        {
          "internalType": "bytes32",
          "name": "role",
          "type": "bytes32"
        },
        {
          "internalType": "address",
          "name": "account",
          "type": "address"
        }
      ],
      "name": "hasRole",
      "outputs": [
        {
          "internalType": "bool",
          "name": "",
          "type": "bool"
        }
      ],
      "stateMutability": "view",
      "type": "function",
      "constant": true
    },
    {
      "inputs": [
        {
          "internalType": "bytes32",
          "name": "role",
          "type": "bytes32"
        },
        {
          "internalType": "address",
          "name": "account",
          "type": "address"
        }
      ],
      "name": "renounceRole",
      "outputs": [],
      "stateMutability": "nonpayable",
      "type": "function"
    },
    {
      "inputs": [
        {
          "internalType": "bytes32",
          "name": "role",
          "type": "bytes32"
        },
        {
          "internalType": "address",
          "name": "account",
          "type": "address"
        }
      ],
      "name": "revokeRole",
      "outputs": [],
      "stateMutability": "nonpayable",
      "type": "function"
    },
    {
      "inputs": [
        {
          "internalType": "bytes4",
          "name": "interfaceId",
          "type": "bytes4"
        }
      ],
      "name": "supportsInterface",
      "outputs": [
        {
          "internalType": "bool",
          "name": "",
          "type": "bool"
        }
      ],
      "stateMutability": "view",
      "type": "function",
      "constant": true
    },
    {
      "inputs": [
        {
          "internalType": "address",
          "name": "queueContract",
          "type": "address"
        }
      ],
      "name": "setQueue",
      "outputs": [],
      "stateMutability": "nonpayable",
      "type": "function"
    },
    {
      "inputs": [],
      "name": "shouldUpdate",
      "outputs": [
        {
          "internalType": "bool",
          "name": "",
          "type": "bool"
        }
      ],
      "stateMutability": "view",
      "type": "function",
      "constant": true
    }
  ],
  "bytecode": "0x60806040523480156200001157600080fd5b506200003a60006200002b64010000000062000040810204565b64010000000062000044810204565b62000202565b3390565b6200005982826401000000006200005d810204565b5050565b620000778282640100000000620003fe620000a482021704565b60008281526001602052604090206200009f9082640100000000620004826200014082021704565b505050565b620000b9828264010000000062000169810204565b6200005957600082815260208181526040808320600160a060020a03851684529091529020805460ff19166001179055620000fc64010000000062000040810204565b600160a060020a031681600160a060020a0316837f2f8788117e7eff1d82e926ec794901d17c78024a50270940304540a733656f0d60405160405180910390a45050565b60006200016083600160a060020a03841664010000000062000192810204565b90505b92915050565b600091825260208281526040808420600160a060020a0393909316845291905290205460ff1690565b6000620001a98383640100000000620001ea810204565b620001e15750815460018181018455600084815260208082209093018490558454848252828601909352604090209190915562000163565b50600062000163565b60009081526001919091016020526040902054151590565b610cdf80620002126000396000f3fe608060405234801561001057600080fd5b50600436106100d1576000357c01000000000000000000000000000000000000000000000000000000009004806391d148541161008e57806391d14854146101a9578063a217fddf146101bc578063a8c954d8146101c4578063ca15c873146101cb578063d547741f146101de578063f3ee7e2c146101f157600080fd5b806301ffc9a7146100d65780631c834a7f146100fe578063248a9ca3146101335780632f2ff15d1461015657806336568abe1461016b5780639010d07c1461017e575b600080fd5b6100e96100e4366004610a34565b610204565b60405190151581526020015b60405180910390f35b6101257f80e2196015fc06a9d891759f8e4f51eb314ef5e9ea068528a8ed0063b87759f081565b6040519081526020016100f5565b610125610141366004610a5e565b60009081526020819052604090206001015490565b610169610164366004610a93565b610248565b005b610169610179366004610a93565b610272565b61019161018c366004610abf565b61031d565b604051600160a060020a0390911681526020016100f5565b6100e96101b7366004610a93565b61033c565b610125600081565b60006100e9565b6101256101d9366004610a5e565b610365565b6101696101ec366004610a93565b61037c565b6101696101ff366004610ae1565b6103a1565b6000600160e060020a031982167f5a05180f000000000000000000000000000000000000000000000000000000001480610242575061024282610497565b92915050565b600082815260208190526040902060010154610263816104fe565b61026d838361050b565b505050565b600160a060020a038116331461030f576040517f08c379a000000000000000000000000000000000000000000000000000000000815260206004820152602f60248201527f416363657373436f6e74726f6c3a2063616e206f6e6c792072656e6f756e636560448201527f20726f6c657320666f722073656c66000000000000000000000000000000000060648201526084015b60405180910390fd5b610319828261052d565b5050565b6000828152600160205260408120610335908361054f565b9392505050565b600091825260208281526040808420600160a060020a0393909316845291905290205460ff1690565b60008181526001602052604081206102429061055b565b600082815260208190526040902060010154610397816104fe565b61026d838361052d565b60006103ac816104fe565b6002805473ffffffffffffffffffffffffffffffffffffffff1916600160a060020a0384161790556103197f80e2196015fc06a9d891759f8e4f51eb314ef5e9ea068528a8ed0063b87759f083610565565b610408828261033c565b61031957600082815260208181526040808320600160a060020a03851684529091529020805460ff1916600117905561043e3390565b600160a060020a031681600160a060020a0316837f2f8788117e7eff1d82e926ec794901d17c78024a50270940304540a733656f0d60405160405180910390a45050565b600061033583600160a060020a03841661056f565b6000600160e060020a031982167f7965db0b00000000000000000000000000000000000000000000000000000000148061024257507f01ffc9a700000000000000000000000000000000000000000000000000000000600160e060020a0319831614610242565b61050881336105be565b50565b61051582826103fe565b600082815260016020526040902061026d9082610482565b610537828261063c565b600082815260016020526040902061026d90826106a1565b600061033583836106b6565b6000610242825490565b610319828261050b565b60008181526001830160205260408120546105b657508154600181810184556000848152602080822090930184905584548482528286019093526040902091909155610242565b506000610242565b6105c8828261033c565b610319576105e081600160a060020a031660146106e0565b6105eb8360206106e0565b6040516020016105fc929190610b2c565b60408051601f19818403018152908290527f08c379a000000000000000000000000000000000000000000000000000000000825261030691600401610bad565b610646828261033c565b1561031957600082815260208181526040808320600160a060020a0385168085529252808320805460ff1916905551339285917ff6391f5c32d9c69d2a47ea670b442974b53935d1edc7fd64eb21e047a839171b9190a45050565b600061033583600160a060020a038416610941565b60008260000182815481106106cd576106cd610be0565b9060005260206000200154905092915050565b606060006106ef836002610c12565b6106fa906002610c31565b67ffffffffffffffff81111561071257610712610c49565b6040519080825280601f01601f19166020018201604052801561073c576020820181803683370190505b5090507f30000000000000000000000000000000000000000000000000000000000000008160008151811061077357610773610be0565b60200101907effffffffffffffffffffffffffffffffffffffffffffffffffffffffffffff1916908160001a9053507f7800000000000000000000000000000000000000000000000000000000000000816001815181106107d6576107d6610be0565b60200101907effffffffffffffffffffffffffffffffffffffffffffffffffffffffffffff1916908160001a9053506000610812846002610c12565b61081d906001610c31565b90505b60018111156108d8577f303132333435363738396162636465660000000000000000000000000000000085600f166010811061085e5761085e610be0565b1a7f01000000000000000000000000000000000000000000000000000000000000000282828151811061089357610893610be0565b60200101907effffffffffffffffffffffffffffffffffffffffffffffffffffffffffffff1916908160001a9053506010909404936108d181610c62565b9050610820565b508315610335576040517f08c379a000000000000000000000000000000000000000000000000000000000815260206004820181905260248201527f537472696e67733a20686578206c656e67746820696e73756666696369656e746044820152606401610306565b60008181526001830160205260408120548015610a2a576000610965600183610c79565b855490915060009061097990600190610c79565b90508181146109de57600086600001828154811061099957610999610be0565b90600052602060002001549050808760000184815481106109bc576109bc610be0565b6000918252602080832090910192909255918252600188019052604090208390555b85548690806109ef576109ef610c90565b600190038181906000526020600020016000905590558560010160008681526020019081526020016000206000905560019350505050610242565b6000915050610242565b600060208284031215610a4657600080fd5b8135600160e060020a03198116811461033557600080fd5b600060208284031215610a7057600080fd5b5035919050565b8035600160a060020a0381168114610a8e57600080fd5b919050565b60008060408385031215610aa657600080fd5b82359150610ab660208401610a77565b90509250929050565b60008060408385031215610ad257600080fd5b50508035926020909101359150565b600060208284031215610af357600080fd5b61033582610a77565b60005b83811015610b17578181015183820152602001610aff565b83811115610b26576000848401525b50505050565b7f416363657373436f6e74726f6c3a206163636f756e7420000000000000000000815260008351610b64816017850160208801610afc565b7f206973206d697373696e6720726f6c65200000000000000000000000000000006017918401918201528351610ba1816028840160208801610afc565b01602801949350505050565b6020815260008251806020840152610bcc816040850160208701610afc565b601f01601f19169190910160400192915050565b60e060020a634e487b7102600052603260045260246000fd5b60e060020a634e487b7102600052601160045260246000fd5b6000816000190483118215151615610c2c57610c2c610bf9565b500290565b60008219821115610c4457610c44610bf9565b500190565b60e060020a634e487b7102600052604160045260246000fd5b600081610c7157610c71610bf9565b506000190190565b600082821015610c8b57610c8b610bf9565b500390565b60e060020a634e487b7102600052603160045260246000fdfea2646970667358221220bfa15b69f52c47750fecaeafbe0a41c7697fe2bb9b7abad7eebbf80ebb1ce16164736f6c634300080b0033",
  "immutableReferences": {},
  "source": "// SPDX-License-Identifier: GPL-3.0\npragma solidity >=0.7.0 <0.9.0;\n\nimport \"./HexplorationQueue.sol\";\nimport \"@openzeppelin/contracts/access/AccessControlEnumerable.sol\";\n\ncontract HexplorationGameplay is AccessControlEnumerable {\n    bytes32 public constant VERIFIED_CONTROLLER_ROLE =\n        keccak256(\"VERIFIED_CONTROLLER_ROLE\");\n\n    HexplorationQueue QUEUE;\n\n    constructor() {\n        _setupRole(DEFAULT_ADMIN_ROLE, _msgSender());\n    }\n\n    function setQueue(address queueContract)\n        public\n        onlyRole(DEFAULT_ADMIN_ROLE)\n    {\n        QUEUE = HexplorationQueue(queueContract);\n        _setupRole(VERIFIED_CONTROLLER_ROLE, queueContract);\n    }\n\n    // Keeper functions...\n    function shouldUpdate() public view returns (bool) {\n        //TODO: check if any processing queue has any active game queues\n        return false;\n    }\n\n    function beginProcessing(uint256 queueID) internal {\n        // get queue ID\n        // set processingPhase of queue to \"processing\"\n    }\n\n    function continueProcessing() internal {\n        // continueProcessing//\n        // figure out most expensive move and only do as many as can be safely completed\n        // in one transaction\n        // start at currentQueuePosition\n        // after each move is processed currentQueuePosition++\n        // on after final batch, switch day / night and call playThrough()\n    }\n\n    function process(uint256 queueID) internal {\n        // continueProcessing//\n        // figure out most expensive move and only do as many as can be safely completed\n        // in one transaction\n        // start at currentQueuePosition\n        // after each move is processed currentQueuePosition++\n        // on after final batch, switch day / night and call playThrough()\n    }\n\n    function playThrough() internal {\n        // if day phase (){\n        // Play through events\n        // daily events\n        //}\n        // if (end game) {\n        // play enemy stuff here\n        //}\n    }\n\n    function finishProcessing() internal {\n        //  assign new queue index for next processing phase (based on current queue)\n    }\n}\n\n// What is processing?\n// take all moves from batch, verify are valid moves, and\n// return list of final moves to process\n// keeper will post list of final moves to contract,\n// *shouldn't be able to fail if it got this far\n// moves that failed pre-check will be returned as another list that will get logged in an event\n",
  "sourcePath": "/Users/maxmeier/Developer/Lucky Machines/hexploration/contracts/HexplorationGameplay.sol",
  "compiler": {
    "name": "solc",
    "version": "0.8.11+commit.d7f03943.Emscripten.clang"
  },
  "schemaVersion": "3.4.4",
  "updatedAt": "2022-05-19T00:51:30.920Z",
  "networkType": "ethereum",
  "devdoc": {
    "kind": "dev",
    "methods": {
      "getRoleAdmin(bytes32)": {
        "details": "Returns the admin role that controls `role`. See {grantRole} and {revokeRole}. To change a role's admin, use {_setRoleAdmin}."
      },
      "getRoleMember(bytes32,uint256)": {
        "details": "Returns one of the accounts that have `role`. `index` must be a value between 0 and {getRoleMemberCount}, non-inclusive. Role bearers are not sorted in any particular way, and their ordering may change at any point. WARNING: When using {getRoleMember} and {getRoleMemberCount}, make sure you perform all queries on the same block. See the following https://forum.openzeppelin.com/t/iterating-over-elements-on-enumerableset-in-openzeppelin-contracts/2296[forum post] for more information."
      },
      "getRoleMemberCount(bytes32)": {
        "details": "Returns the number of accounts that have `role`. Can be used together with {getRoleMember} to enumerate all bearers of a role."
      },
      "grantRole(bytes32,address)": {
        "details": "Grants `role` to `account`. If `account` had not been already granted `role`, emits a {RoleGranted} event. Requirements: - the caller must have ``role``'s admin role."
      },
      "hasRole(bytes32,address)": {
        "details": "Returns `true` if `account` has been granted `role`."
      },
      "renounceRole(bytes32,address)": {
        "details": "Revokes `role` from the calling account. Roles are often managed via {grantRole} and {revokeRole}: this function's purpose is to provide a mechanism for accounts to lose their privileges if they are compromised (such as when a trusted device is misplaced). If the calling account had been revoked `role`, emits a {RoleRevoked} event. Requirements: - the caller must be `account`."
      },
      "revokeRole(bytes32,address)": {
        "details": "Revokes `role` from `account`. If `account` had been granted `role`, emits a {RoleRevoked} event. Requirements: - the caller must have ``role``'s admin role."
      },
      "supportsInterface(bytes4)": {
        "details": "See {IERC165-supportsInterface}."
      }
    },
    "version": 1
  },
  "userdoc": {
    "kind": "user",
    "methods": {},
    "version": 1
  }
}