{
  "contractName": "HexplorationGameplay",
  "abi": [
    {
      "inputs": [],
      "stateMutability": "nonpayable",
      "type": "constructor"
    },
    {
      "anonymous": false,
      "inputs": [
        {
          "indexed": true,
          "internalType": "bytes32",
          "name": "role",
          "type": "bytes32"
        },
        {
          "indexed": true,
          "internalType": "bytes32",
          "name": "previousAdminRole",
          "type": "bytes32"
        },
        {
          "indexed": true,
          "internalType": "bytes32",
          "name": "newAdminRole",
          "type": "bytes32"
        }
      ],
      "name": "RoleAdminChanged",
      "type": "event"
    },
    {
      "anonymous": false,
      "inputs": [
        {
          "indexed": true,
          "internalType": "bytes32",
          "name": "role",
          "type": "bytes32"
        },
        {
          "indexed": true,
          "internalType": "address",
          "name": "account",
          "type": "address"
        },
        {
          "indexed": true,
          "internalType": "address",
          "name": "sender",
          "type": "address"
        }
      ],
      "name": "RoleGranted",
      "type": "event"
    },
    {
      "anonymous": false,
      "inputs": [
        {
          "indexed": true,
          "internalType": "bytes32",
          "name": "role",
          "type": "bytes32"
        },
        {
          "indexed": true,
          "internalType": "address",
          "name": "account",
          "type": "address"
        },
        {
          "indexed": true,
          "internalType": "address",
          "name": "sender",
          "type": "address"
        }
      ],
      "name": "RoleRevoked",
      "type": "event"
    },
    {
      "inputs": [],
      "name": "DEFAULT_ADMIN_ROLE",
      "outputs": [
        {
          "internalType": "bytes32",
          "name": "",
          "type": "bytes32"
        }
      ],
      "stateMutability": "view",
      "type": "function",
      "constant": true
    },
    {
      "inputs": [],
      "name": "VERIFIED_CONTROLLER_ROLE",
      "outputs": [
        {
          "internalType": "bytes32",
          "name": "",
          "type": "bytes32"
        }
      ],
      "stateMutability": "view",
      "type": "function",
      "constant": true
    },
    {
      "inputs": [
        {
          "internalType": "bytes32",
          "name": "role",
          "type": "bytes32"
        }
      ],
      "name": "getRoleAdmin",
      "outputs": [
        {
          "internalType": "bytes32",
          "name": "",
          "type": "bytes32"
        }
      ],
      "stateMutability": "view",
      "type": "function",
      "constant": true
    },
    {
      "inputs": [
        {
          "internalType": "bytes32",
          "name": "role",
          "type": "bytes32"
        },
        {
          "internalType": "uint256",
          "name": "index",
          "type": "uint256"
        }
      ],
      "name": "getRoleMember",
      "outputs": [
        {
          "internalType": "address",
          "name": "",
          "type": "address"
        }
      ],
      "stateMutability": "view",
      "type": "function",
      "constant": true
    },
    {
      "inputs": [
        {
          "internalType": "bytes32",
          "name": "role",
          "type": "bytes32"
        }
      ],
      "name": "getRoleMemberCount",
      "outputs": [
        {
          "internalType": "uint256",
          "name": "",
          "type": "uint256"
        }
      ],
      "stateMutability": "view",
      "type": "function",
      "constant": true
    },
    {
      "inputs": [
        {
          "internalType": "bytes32",
          "name": "role",
          "type": "bytes32"
        },
        {
          "internalType": "address",
          "name": "account",
          "type": "address"
        }
      ],
      "name": "grantRole",
      "outputs": [],
      "stateMutability": "nonpayable",
      "type": "function"
    },
    {
      "inputs": [
        {
          "internalType": "bytes32",
          "name": "role",
          "type": "bytes32"
        },
        {
          "internalType": "address",
          "name": "account",
          "type": "address"
        }
      ],
      "name": "hasRole",
      "outputs": [
        {
          "internalType": "bool",
          "name": "",
          "type": "bool"
        }
      ],
      "stateMutability": "view",
      "type": "function",
      "constant": true
    },
    {
      "inputs": [
        {
          "internalType": "bytes32",
          "name": "role",
          "type": "bytes32"
        },
        {
          "internalType": "address",
          "name": "account",
          "type": "address"
        }
      ],
      "name": "renounceRole",
      "outputs": [],
      "stateMutability": "nonpayable",
      "type": "function"
    },
    {
      "inputs": [
        {
          "internalType": "bytes32",
          "name": "role",
          "type": "bytes32"
        },
        {
          "internalType": "address",
          "name": "account",
          "type": "address"
        }
      ],
      "name": "revokeRole",
      "outputs": [],
      "stateMutability": "nonpayable",
      "type": "function"
    },
    {
      "inputs": [
        {
          "internalType": "bytes4",
          "name": "interfaceId",
          "type": "bytes4"
        }
      ],
      "name": "supportsInterface",
      "outputs": [
        {
          "internalType": "bool",
          "name": "",
          "type": "bool"
        }
      ],
      "stateMutability": "view",
      "type": "function",
      "constant": true
    },
    {
      "inputs": [
        {
          "internalType": "address",
          "name": "vcAddress",
          "type": "address"
        }
      ],
      "name": "addVerifiedController",
      "outputs": [],
      "stateMutability": "nonpayable",
      "type": "function"
    },
    {
      "inputs": [
        {
          "internalType": "address",
          "name": "queueContract",
          "type": "address"
        }
      ],
      "name": "setQueue",
      "outputs": [],
      "stateMutability": "nonpayable",
      "type": "function"
    },
    {
      "inputs": [
        {
          "internalType": "uint256",
          "name": "queueID",
          "type": "uint256"
        }
      ],
      "name": "shouldContinueProcessing",
      "outputs": [
        {
          "internalType": "bool",
          "name": "",
          "type": "bool"
        },
        {
          "internalType": "uint256[]",
          "name": "",
          "type": "uint256[]"
        },
        {
          "internalType": "string[]",
          "name": "",
          "type": "string[]"
        }
      ],
      "stateMutability": "view",
      "type": "function",
      "constant": true
    },
    {
      "inputs": [
        {
          "internalType": "uint256",
          "name": "queueID",
          "type": "uint256"
        },
        {
          "internalType": "uint256[]",
          "name": "intUpdates",
          "type": "uint256[]"
        },
        {
          "internalType": "string[]",
          "name": "stringUpdates",
          "type": "string[]"
        }
      ],
      "name": "postProcessedGameState",
      "outputs": [],
      "stateMutability": "nonpayable",
      "type": "function"
    }
  ],
  "bytecode": "0x60806040523480156200001157600080fd5b506200003a60006200002b64010000000062000040810204565b64010000000062000044810204565b62000202565b3390565b6200005982826401000000006200005d810204565b5050565b6200007782826401000000006200084b620000a482021704565b60008281526001602052604090206200009f9082640100000000620008cf6200014082021704565b505050565b620000b9828264010000000062000169810204565b6200005957600082815260208181526040808320600160a060020a03851684529091529020805460ff19166001179055620000fc64010000000062000040810204565b600160a060020a031681600160a060020a0316837f2f8788117e7eff1d82e926ec794901d17c78024a50270940304540a733656f0d60405160405180910390a45050565b60006200016083600160a060020a03841664010000000062000192810204565b90505b92915050565b600091825260208281526040808420600160a060020a0393909316845291905290205460ff1690565b6000620001a98383640100000000620001ea810204565b620001e15750815460018181018455600084815260208082209093018490558454848252828601909352604090209190915562000163565b50600062000163565b60009081526001919091016020526040902054151590565b611adf80620002126000396000f3fe608060405234801561001057600080fd5b50600436106100e7576000357c010000000000000000000000000000000000000000000000000000000090048063a217fddf11610099578063a217fddf146101c0578063c9346832146101c8578063ca15c873146101ea578063d4f5b152146101fd578063d547741f14610210578063f3ee7e2c14610223578063f83badd71461023657600080fd5b806301ffc9a7146100ec5780631c834a7f14610114578063248a9ca3146101375780632f2ff15d1461015a57806336568abe1461016f5780639010d07c1461018257806391d14854146101ad575b600080fd5b6100ff6100fa3660046114ac565b610249565b60405190151581526020015b60405180910390f35b610129600080516020611a8a83398151915281565b60405190815260200161010b565b6101296101453660046114d6565b60009081526020819052604090206001015490565b61016d61016836600461150b565b61028d565b005b61016d61017d36600461150b565b6102b7565b610195610190366004611537565b61034b565b604051600160a060020a03909116815260200161010b565b6100ff6101bb36600461150b565b61036a565b610129600081565b6101db6101d63660046114d6565b610393565b60405161010b93929190611647565b6101296101f83660046114d6565b610507565b61016d61020b36600461167e565b61051e565b61016d61021e36600461150b565b610541565b61016d61023136600461167e565b610566565b61016d6102443660046117ed565b6105b1565b6000600160e060020a031982167f5a05180f0000000000000000000000000000000000000000000000000000000014806102875750610287826108e4565b92915050565b6000828152602081905260409020600101546102a88161094b565b6102b28383610958565b505050565b600160a060020a038116331461033d5760405160e560020a62461bcd02815260206004820152602f60248201527f416363657373436f6e74726f6c3a2063616e206f6e6c792072656e6f756e636560448201527f20726f6c657320666f722073656c66000000000000000000000000000000000060648201526084015b60405180910390fd5b610347828261097a565b5050565b6000828152600160205260408120610363908361099c565b9392505050565b600091825260208281526040808420600160a060020a0393909316845291905290205460ff1690565b6000606080826002805460405160e060020a63b1fb640502815260048101889052600160a060020a039091169063b1fb640590602401602060405180830381865afa1580156103e6573d6000803e3d6000fd5b505050506040513d601f19601f8201168201806040525081019061040a91906118c7565b600581111561041b5761041b6118ae565b14806104a6575060025460405160e060020a63b1fb640502815260048101879052600391600160a060020a03169063b1fb640590602401602060405180830381865afa15801561046f573d6000803e3d6000fd5b505050506040513d601f19601f8201168201806040525081019061049391906118c7565b60058111156104a4576104a46118ae565b145b905060608082156104c3576104ba876109a8565b925090506104fb565b50604080516000808252602082018181528284019093529091906104f7565b60608152602001906001900390816104e25790505b5091505b91969195509350915050565b600081815260016020526040812061028790610aad565b60006105298161094b565b610347600080516020611a8a8339815191528361028d565b60008281526020819052604090206001015461055c8161094b565b6102b2838361097a565b60006105718161094b565b6002805473ffffffffffffffffffffffffffffffffffffffff1916600160a060020a038416179055610347600080516020611a8a83398151915283610ab7565b600080516020611a8a8339815191526105c98161094b565b60025460405160e060020a63b1fb640502815260048101869052600091600160a060020a03169063b1fb640590602401602060405180830381865afa158015610616573d6000803e3d6000fd5b505050506040513d601f19601f8201168201806040525081019061063a91906118c7565b905060006002826005811115610652576106526118ae565b14156107425760025460405160e160020a630c136c21028152600160a060020a0390911690631826d8429061068d90889088906004016118e8565b600060405180830381600087803b1580156106a757600080fd5b505af11580156106bb573d6000803e3d6000fd5b50506002546040517f04ac8fee000000000000000000000000000000000000000000000000000000008152600160a060020a0390911692506304ac8fee915061070b906003908a90600401611916565b600060405180830381600087803b15801561072557600080fd5b505af1158015610739573d6000803e3d6000fd5b50505050610843565b6003826005811115610756576107566118ae565b14156108435760025460405160e160020a630c136c21028152600160a060020a0390911690631826d8429061079190889088906004016118e8565b600060405180830381600087803b1580156107ab57600080fd5b505af11580156107bf573d6000803e3d6000fd5b50506002546040517f8e6e1d89000000000000000000000000000000000000000000000000000000008152600481018a90528415156024820152600160a060020a039091169250638e6e1d899150604401600060405180830381600087803b15801561082a57600080fd5b505af115801561083e573d6000803e3d6000fd5b505050505b505050505050565b610855828261036a565b61034757600082815260208181526040808320600160a060020a03851684529091529020805460ff1916600117905561088b3390565b600160a060020a031681600160a060020a0316837f2f8788117e7eff1d82e926ec794901d17c78024a50270940304540a733656f0d60405160405180910390a45050565b600061036383600160a060020a038416610ac1565b6000600160e060020a031982167f7965db0b00000000000000000000000000000000000000000000000000000000148061028757507f01ffc9a700000000000000000000000000000000000000000000000000000000600160e060020a0319831614610287565b6109558133610b10565b50565b610962828261084b565b60008281526001602052604090206102b290826108cf565b6109848282610b77565b60008281526001602052604090206102b29082610bdc565b60006103638383610bf1565b60025460405160e060020a63b1fb6405028152600481018390526060918291600091600160a060020a03169063b1fb640590602401602060405180830381865afa1580156109fa573d6000803e3d6000fd5b505050506040513d601f19601f82011682018060405250810190610a1e91906118c7565b90506002816005811115610a3457610a346118ae565b1415610a4d57610a4384610c1b565b9093509150610aa7565b6003816005811115610a6157610a616118ae565b1415610a7057610a4384610ef8565b60408051600080825260208201818152828401909352909450610aa3565b6060815260200190600190039081610a8e5790505b5091505b50915091565b6000610287825490565b6103478282610958565b6000818152600183016020526040812054610b0857508154600181810184556000848152602080822090930184905584548482528286019093526040902091909155610287565b506000610287565b610b1a828261036a565b61034757610b3281600160a060020a031660146111b7565b610b3d8360206111b7565b604051602001610b4e929190611945565b60408051601f198184030181529082905260e560020a62461bcd028252610334916004016119c6565b610b81828261036a565b1561034757600082815260208181526040808320600160a060020a0385168085529252808320805460ff1916905551339285917ff6391f5c32d9c69d2a47ea670b442974b53935d1edc7fd64eb21e047a839171b9190a45050565b600061036383600160a060020a0384166113b9565b6000826000018281548110610c0857610c086119d9565b9060005260206000200154905092915050565b6060806001808080806000610c31826003611a0b565b610c3c846003611a0b565b85610c48886004611a0b565b610c538a6002611a0b565b610c5e906005611a2a565b610c689190611a2a565b610c729190611a2a565b610c7c9190611a2a565b610c869190611a2a565b905060008167ffffffffffffffff811115610ca357610ca3611699565b604051908082528060200260200182016040528015610ccc578160200160208202803683370190505b509050600181600081518110610ce457610ce46119d9565b602002602001018181525050600281600181518110610d0557610d056119d9565b602002602001018181525050600381600281518110610d2657610d266119d9565b602002602001018181525050600481600381518110610d4757610d476119d9565b602090810291909101015260076000610d61856002611a0b565b8688610d6d858d611a0b565b610d78906001611a2a565b610d829190611a2a565b610d8c9190611a2a565b610d969190611a2a565b905060008167ffffffffffffffff811115610db357610db3611699565b604051908082528060200260200182016040528015610de657816020015b6060815260200190600190039081610dd15790505b5090506040518060400160405280600981526020017f736f6d657468696e67000000000000000000000000000000000000000000000081525081600081518110610e3257610e326119d9565b60200260200101819052506040518060400160405280600281526020017f746f00000000000000000000000000000000000000000000000000000000000081525081600181518110610e8657610e866119d9565b60200260200101819052506040518060400160405280600481526020017f706f73740000000000000000000000000000000000000000000000000000000081525081600281518110610eda57610eda6119d9565b6020908102919091010152929c929b50919950505050505050505050565b6060806001808080806000610f0e826003611a0b565b610f19846003611a0b565b85610f25886004611a0b565b610f308a6002611a0b565b610f3b906005611a2a565b610f459190611a2a565b610f4f9190611a2a565b610f599190611a2a565b610f639190611a2a565b905060008167ffffffffffffffff811115610f8057610f80611699565b604051908082528060200260200182016040528015610fa9578160200160208202803683370190505b509050600581600081518110610fc157610fc16119d9565b602002602001018181525050600681600181518110610fe257610fe26119d9565b602002602001018181525050600781600281518110611003576110036119d9565b602002602001018181525050600881600381518110611024576110246119d9565b60209081029190910101526007600061103e856002611a0b565b868861104a858d611a0b565b611055906001611a2a565b61105f9190611a2a565b6110699190611a2a565b6110739190611a2a565b905060008167ffffffffffffffff81111561109057611090611699565b6040519080825280602002602001820160405280156110c357816020015b60608152602001906001900390816110ae5790505b5090506040518060400160405280600781526020017f706c6179696e67000000000000000000000000000000000000000000000000008152508160008151811061110f5761110f6119d9565b60200260200101819052506040518060400160405280600781526020017f7468726f7567680000000000000000000000000000000000000000000000000081525081600181518110611163576111636119d9565b60200260200101819052506040518060400160405280600481526020017f67616d650000000000000000000000000000000000000000000000000000000081525081600281518110610eda57610eda6119d9565b606060006111c6836002611a0b565b6111d1906002611a2a565b67ffffffffffffffff8111156111e9576111e9611699565b6040519080825280601f01601f191660200182016040528015611213576020820181803683370190505b5090507f30000000000000000000000000000000000000000000000000000000000000008160008151811061124a5761124a6119d9565b6020010190600160f860020a031916908160001a9053507f780000000000000000000000000000000000000000000000000000000000000081600181518110611295576112956119d9565b6020010190600160f860020a031916908160001a90535060006112b9846002611a0b565b6112c4906001611a2a565b90505b6001811115611367577f303132333435363738396162636465660000000000000000000000000000000085600f1660108110611305576113056119d9565b1a7f01000000000000000000000000000000000000000000000000000000000000000282828151811061133a5761133a6119d9565b6020010190600160f860020a031916908160001a90535060109094049361136081611a42565b90506112c7565b5083156103635760405160e560020a62461bcd02815260206004820181905260248201527f537472696e67733a20686578206c656e67746820696e73756666696369656e746044820152606401610334565b600081815260018301602052604081205480156114a25760006113dd600183611a59565b85549091506000906113f190600190611a59565b9050818114611456576000866000018281548110611411576114116119d9565b9060005260206000200154905080876000018481548110611434576114346119d9565b6000918252602080832090910192909255918252600188019052604090208390555b855486908061146757611467611a70565b600190038181906000526020600020016000905590558560010160008681526020019081526020016000206000905560019350505050610287565b6000915050610287565b6000602082840312156114be57600080fd5b8135600160e060020a03198116811461036357600080fd5b6000602082840312156114e857600080fd5b5035919050565b8035600160a060020a038116811461150657600080fd5b919050565b6000806040838503121561151e57600080fd5b8235915061152e602084016114ef565b90509250929050565b6000806040838503121561154a57600080fd5b50508035926020909101359150565b600081518084526020808501945080840160005b838110156115895781518752958201959082019060010161156d565b509495945050505050565b60005b838110156115af578181015183820152602001611597565b838111156115be576000848401525b50505050565b600081518084526115dc816020860160208601611594565b601f01601f19169290920160200192915050565b6000828251808552602080860195508081830284010181860160005b8481101561163a57601f198684030189526116288383516115c4565b9884019892509083019060010161160c565b5090979650505050505050565b83151581526060602082015260006116626060830185611559565b828103604084015261167481856115f0565b9695505050505050565b60006020828403121561169057600080fd5b610363826114ef565b60e060020a634e487b7102600052604160045260246000fd5b604051601f8201601f1916810167ffffffffffffffff811182821017156116db576116db611699565b604052919050565b600067ffffffffffffffff8211156116fd576116fd611699565b5060209081020190565b6000601f838184011261171957600080fd5b8235602061172e611729836116e3565b6116b2565b8281529181028501810191818101908784111561174a57600080fd5b8287015b848110156117e157803567ffffffffffffffff8082111561176f5760008081fd5b818a0191508a603f8301126117845760008081fd5b8582013560408282111561179a5761179a611699565b6117ab828b01601f191689016116b2565b92508183528c818386010111156117c25760008081fd5b818185018985013750600090820187015284525091830191830161174e565b50979650505050505050565b60008060006060848603121561180257600080fd5b8335925060208085013567ffffffffffffffff8082111561182257600080fd5b818701915087601f83011261183657600080fd5b8135611844611729826116e3565b8181529084028301840190848101908a83111561186057600080fd5b938501935b8285101561187e57843582529385019390850190611865565b96505050604087013592508083111561189657600080fd5b50506118a486828701611707565b9150509250925092565b60e060020a634e487b7102600052602160045260246000fd5b6000602082840312156118d957600080fd5b81516006811061036357600080fd5b6040815260006118fb6040830185611559565b828103602084015261190d81856115f0565b95945050505050565b604081016006841061193b5760e060020a634e487b7102600052602160045260246000fd5b9281526020015290565b7f416363657373436f6e74726f6c3a206163636f756e742000000000000000000081526000835161197d816017850160208801611594565b7f206973206d697373696e6720726f6c652000000000000000000000000000000060179184019182015283516119ba816028840160208801611594565b01602801949350505050565b60208152600061036360208301846115c4565b60e060020a634e487b7102600052603260045260246000fd5b60e060020a634e487b7102600052601160045260246000fd5b6000816000190483118215151615611a2557611a256119f2565b500290565b60008219821115611a3d57611a3d6119f2565b500190565b600081611a5157611a516119f2565b506000190190565b600082821015611a6b57611a6b6119f2565b500390565b60e060020a634e487b7102600052603160045260246000fdfe80e2196015fc06a9d891759f8e4f51eb314ef5e9ea068528a8ed0063b87759f0a264697066735822122030a44ac5de6c5c8bae0b42de6b832ce9d56cc08c8a2babec97c0d1949dbafee364736f6c634300080b0033",
  "immutableReferences": {},
  "source": "// SPDX-License-Identifier: GPL-3.0\npragma solidity >=0.7.0 <0.9.0;\n\nimport \"./HexplorationQueue.sol\";\nimport \"./state/GameSummary.sol\";\nimport \"@openzeppelin/contracts/access/AccessControlEnumerable.sol\";\n\ncontract HexplorationGameplay is AccessControlEnumerable {\n    bytes32 public constant VERIFIED_CONTROLLER_ROLE =\n        keccak256(\"VERIFIED_CONTROLLER_ROLE\");\n\n    HexplorationQueue QUEUE;\n\n    constructor() {\n        _setupRole(DEFAULT_ADMIN_ROLE, _msgSender());\n    }\n\n    function addVerifiedController(address vcAddress)\n        public\n        onlyRole(DEFAULT_ADMIN_ROLE)\n    {\n        grantRole(VERIFIED_CONTROLLER_ROLE, vcAddress);\n    }\n\n    function setQueue(address queueContract)\n        public\n        onlyRole(DEFAULT_ADMIN_ROLE)\n    {\n        QUEUE = HexplorationQueue(queueContract);\n        _setupRole(VERIFIED_CONTROLLER_ROLE, queueContract);\n    }\n\n    // Keeper functions...\n    // returns if should be processing and processed moves to post if so\n    // this will be run twice for each phase, once for player actions,\n    // once for playing out world scenarios\n    function shouldContinueProcessing(uint256 queueID)\n        public\n        view\n        returns (\n            bool,\n            uint256[] memory,\n            string[] memory\n        )\n    {\n        bool shouldContinue = QUEUE.currentPhase(queueID) ==\n            HexplorationQueue.ProcessingPhase.Processing ||\n            QUEUE.currentPhase(queueID) ==\n            HexplorationQueue.ProcessingPhase.PlayThrough;\n        string[] memory stringsToPost;\n        uint256[] memory valuesToPost;\n        if (shouldContinue) {\n            (valuesToPost, stringsToPost) = process(queueID);\n        } else {\n            valuesToPost = new uint256[](0);\n            stringsToPost = new string[](0);\n        }\n\n        return (shouldContinue, valuesToPost, stringsToPost);\n    }\n\n    // posts data returned from shouldContinueProcessing()...\n    function postProcessedGameState(\n        uint256 queueID,\n        uint256[] memory intUpdates,\n        string[] memory stringUpdates\n    ) public onlyRole(VERIFIED_CONTROLLER_ROLE) {\n        HexplorationQueue.ProcessingPhase phase = QUEUE.currentPhase(queueID);\n\n        // TODO: set this to true when game is finished\n        bool gameComplete = false;\n\n        if (phase == HexplorationQueue.ProcessingPhase.Processing) {\n            QUEUE.postUpdates(intUpdates, stringUpdates);\n            QUEUE.setPhase(\n                HexplorationQueue.ProcessingPhase.PlayThrough,\n                queueID\n            );\n        } else if (phase == HexplorationQueue.ProcessingPhase.PlayThrough) {\n            QUEUE.postUpdates(intUpdates, stringUpdates);\n            QUEUE.finishProcessing(queueID, gameComplete);\n        }\n    }\n\n    function process(uint256 queueID)\n        internal\n        view\n        returns (uint256[] memory intValues, string[] memory stringValues)\n    {\n        HexplorationQueue.ProcessingPhase phase = QUEUE.currentPhase(queueID);\n\n        if (phase == HexplorationQueue.ProcessingPhase.Processing) {\n            (intValues, stringValues) = processPlayerActions(queueID);\n        } else if (phase == HexplorationQueue.ProcessingPhase.PlayThrough) {\n            (intValues, stringValues) = playThrough(queueID);\n        } else {\n            intValues = new uint256[](0);\n            stringValues = new string[](0);\n        }\n\n        // maybe we don't call this, since it needs to update state...\n        // update this when we pass the results from the shouldProcess\n        //finishProcessing(queueID);\n\n        // Update TODO: expand for processing larger turns...\n        // something like\n        // if (currentPhase == HexplorationQueue.ProcessingPhase.Processing) {\n        //     // processPlayerActions()\n        // } else if (\n        //     currentPhase == HexplorationQueue.ProcessingPhase.PlayThrough\n        // ) {\n        //     // playThrough()\n        //     // finishProcessing()\n        // }\n    }\n\n    function processPlayerActions(uint256 queueID)\n        internal\n        view\n        returns (uint256[] memory, string[] memory)\n    {\n        // Initial thoughts...\n        // figure out most expensive move and only do as many as can be safely completed\n        // in one transaction\n        // start at currentQueuePosition\n        // after each move is processed currentQueuePosition++\n        // on after final batch, switch day / night and\n        // set QUEUE.setPhase(HexplorationQueue.ProcessingPhase.PlayThrough, queueID);\n\n        // TODO: get real values\n        uint256 totalPlayerPositionUpdates = 1;\n        uint256 totalPlayerStatUpdates = 1;\n        uint256 totalPlayerEquips = 1;\n        uint256 totalPlayerTfers = 1;\n        uint256 totalZoneTfers = 1;\n\n        uint256 intReturnLength = 5 +\n            (totalPlayerPositionUpdates * 2) +\n            (totalPlayerStatUpdates * 4) +\n            totalPlayerEquips +\n            (totalPlayerTfers * 3) +\n            (totalZoneTfers * 3);\n\n        uint256[] memory intReturn = new uint256[](intReturnLength);\n        intReturn[0] = 1;\n        intReturn[1] = 2;\n        intReturn[2] = 3;\n        intReturn[3] = 4;\n\n        // TODO: update to actual max value\n        uint256 maxMovementPerPlayer = 7; // should be set to max movement + 1 (if 6 max set to 7)\n        uint256 stringReturnLength = 1 +\n            (totalPlayerPositionUpdates * maxMovementPerPlayer) +\n            totalPlayerEquips +\n            totalPlayerTfers +\n            (totalZoneTfers * 2);\n\n        string[] memory stringReturn = new string[](stringReturnLength);\n        stringReturn[0] = \"something\";\n        stringReturn[1] = \"to\";\n        stringReturn[2] = \"post\";\n\n        return (intReturn, stringReturn);\n    }\n\n    function playThrough(uint256 queueID)\n        internal\n        view\n        returns (uint256[] memory, string[] memory)\n    {\n        // TODO: get real values\n        uint256 totalPlayerPositionUpdates = 1;\n        uint256 totalPlayerStatUpdates = 1;\n        uint256 totalPlayerEquips = 1;\n        uint256 totalPlayerTfers = 1;\n        uint256 totalZoneTfers = 1;\n\n        uint256 intReturnLength = 5 +\n            (totalPlayerPositionUpdates * 2) +\n            (totalPlayerStatUpdates * 4) +\n            totalPlayerEquips +\n            (totalPlayerTfers * 3) +\n            (totalZoneTfers * 3);\n\n        uint256[] memory intReturn = new uint256[](intReturnLength);\n        intReturn[0] = 5;\n        intReturn[1] = 6;\n        intReturn[2] = 7;\n        intReturn[3] = 8;\n\n        // TODO: update to actual max value\n        uint256 maxMovementPerPlayer = 7; // should be set to max movement + 1 (if 6 max set to 7)\n        uint256 stringReturnLength = 1 +\n            (totalPlayerPositionUpdates * maxMovementPerPlayer) +\n            totalPlayerEquips +\n            totalPlayerTfers +\n            (totalZoneTfers * 2);\n\n        string[] memory stringReturn = new string[](stringReturnLength);\n        stringReturn[0] = \"playing\";\n        stringReturn[1] = \"through\";\n        stringReturn[2] = \"game\";\n        return (intReturn, stringReturn);\n        // if day phase (){\n        // Play through events\n        // daily events\n        //}\n        // if (end game) {\n        // play enemy stuff here\n        //}\n    }\n}\n\n// What is processing?\n// take all moves from batch, verify are valid moves, and\n// return list of final moves to process\n// keeper will post list of final moves to contract,\n//// *shouldn't be able to fail if it got this far\n// moves that failed pre-check will be returned as another list that will get logged in an event\n",
  "sourcePath": "/Users/maxmeier/Developer/Lucky Machines/hexploration/contracts/HexplorationGameplay.sol",
  "compiler": {
    "name": "solc",
    "version": "0.8.11+commit.d7f03943.Emscripten.clang"
  },
  "schemaVersion": "3.4.4",
  "updatedAt": "2022-05-23T15:42:50.161Z",
  "networkType": "ethereum",
  "devdoc": {
    "kind": "dev",
    "methods": {
      "getRoleAdmin(bytes32)": {
        "details": "Returns the admin role that controls `role`. See {grantRole} and {revokeRole}. To change a role's admin, use {_setRoleAdmin}."
      },
      "getRoleMember(bytes32,uint256)": {
        "details": "Returns one of the accounts that have `role`. `index` must be a value between 0 and {getRoleMemberCount}, non-inclusive. Role bearers are not sorted in any particular way, and their ordering may change at any point. WARNING: When using {getRoleMember} and {getRoleMemberCount}, make sure you perform all queries on the same block. See the following https://forum.openzeppelin.com/t/iterating-over-elements-on-enumerableset-in-openzeppelin-contracts/2296[forum post] for more information."
      },
      "getRoleMemberCount(bytes32)": {
        "details": "Returns the number of accounts that have `role`. Can be used together with {getRoleMember} to enumerate all bearers of a role."
      },
      "grantRole(bytes32,address)": {
        "details": "Grants `role` to `account`. If `account` had not been already granted `role`, emits a {RoleGranted} event. Requirements: - the caller must have ``role``'s admin role."
      },
      "hasRole(bytes32,address)": {
        "details": "Returns `true` if `account` has been granted `role`."
      },
      "renounceRole(bytes32,address)": {
        "details": "Revokes `role` from the calling account. Roles are often managed via {grantRole} and {revokeRole}: this function's purpose is to provide a mechanism for accounts to lose their privileges if they are compromised (such as when a trusted device is misplaced). If the calling account had been revoked `role`, emits a {RoleRevoked} event. Requirements: - the caller must be `account`."
      },
      "revokeRole(bytes32,address)": {
        "details": "Revokes `role` from `account`. If `account` had been granted `role`, emits a {RoleRevoked} event. Requirements: - the caller must have ``role``'s admin role."
      },
      "supportsInterface(bytes4)": {
        "details": "See {IERC165-supportsInterface}."
      }
    },
    "version": 1
  },
  "userdoc": {
    "kind": "user",
    "methods": {},
    "version": 1
  }
}