{
  "contractName": "HexplorationGameplay",
  "abi": [
    {
      "inputs": [
        {
          "internalType": "address",
          "name": "_gameSummaryAddress",
          "type": "address"
        },
        {
          "internalType": "address",
          "name": "gameBoardAddress",
          "type": "address"
        }
      ],
      "stateMutability": "nonpayable",
      "type": "constructor"
    },
    {
      "anonymous": false,
      "inputs": [
        {
          "indexed": true,
          "internalType": "bytes32",
          "name": "role",
          "type": "bytes32"
        },
        {
          "indexed": true,
          "internalType": "bytes32",
          "name": "previousAdminRole",
          "type": "bytes32"
        },
        {
          "indexed": true,
          "internalType": "bytes32",
          "name": "newAdminRole",
          "type": "bytes32"
        }
      ],
      "name": "RoleAdminChanged",
      "type": "event"
    },
    {
      "anonymous": false,
      "inputs": [
        {
          "indexed": true,
          "internalType": "bytes32",
          "name": "role",
          "type": "bytes32"
        },
        {
          "indexed": true,
          "internalType": "address",
          "name": "account",
          "type": "address"
        },
        {
          "indexed": true,
          "internalType": "address",
          "name": "sender",
          "type": "address"
        }
      ],
      "name": "RoleGranted",
      "type": "event"
    },
    {
      "anonymous": false,
      "inputs": [
        {
          "indexed": true,
          "internalType": "bytes32",
          "name": "role",
          "type": "bytes32"
        },
        {
          "indexed": true,
          "internalType": "address",
          "name": "account",
          "type": "address"
        },
        {
          "indexed": true,
          "internalType": "address",
          "name": "sender",
          "type": "address"
        }
      ],
      "name": "RoleRevoked",
      "type": "event"
    },
    {
      "inputs": [],
      "name": "DEFAULT_ADMIN_ROLE",
      "outputs": [
        {
          "internalType": "bytes32",
          "name": "",
          "type": "bytes32"
        }
      ],
      "stateMutability": "view",
      "type": "function"
    },
    {
      "inputs": [],
      "name": "VERIFIED_CONTROLLER_ROLE",
      "outputs": [
        {
          "internalType": "bytes32",
          "name": "",
          "type": "bytes32"
        }
      ],
      "stateMutability": "view",
      "type": "function"
    },
    {
      "inputs": [
        {
          "internalType": "bytes32",
          "name": "role",
          "type": "bytes32"
        }
      ],
      "name": "getRoleAdmin",
      "outputs": [
        {
          "internalType": "bytes32",
          "name": "",
          "type": "bytes32"
        }
      ],
      "stateMutability": "view",
      "type": "function"
    },
    {
      "inputs": [
        {
          "internalType": "bytes32",
          "name": "role",
          "type": "bytes32"
        },
        {
          "internalType": "uint256",
          "name": "index",
          "type": "uint256"
        }
      ],
      "name": "getRoleMember",
      "outputs": [
        {
          "internalType": "address",
          "name": "",
          "type": "address"
        }
      ],
      "stateMutability": "view",
      "type": "function"
    },
    {
      "inputs": [
        {
          "internalType": "bytes32",
          "name": "role",
          "type": "bytes32"
        }
      ],
      "name": "getRoleMemberCount",
      "outputs": [
        {
          "internalType": "uint256",
          "name": "",
          "type": "uint256"
        }
      ],
      "stateMutability": "view",
      "type": "function"
    },
    {
      "inputs": [
        {
          "internalType": "bytes32",
          "name": "role",
          "type": "bytes32"
        },
        {
          "internalType": "address",
          "name": "account",
          "type": "address"
        }
      ],
      "name": "grantRole",
      "outputs": [],
      "stateMutability": "nonpayable",
      "type": "function"
    },
    {
      "inputs": [
        {
          "internalType": "bytes32",
          "name": "role",
          "type": "bytes32"
        },
        {
          "internalType": "address",
          "name": "account",
          "type": "address"
        }
      ],
      "name": "hasRole",
      "outputs": [
        {
          "internalType": "bool",
          "name": "",
          "type": "bool"
        }
      ],
      "stateMutability": "view",
      "type": "function"
    },
    {
      "inputs": [
        {
          "internalType": "bytes32",
          "name": "role",
          "type": "bytes32"
        },
        {
          "internalType": "address",
          "name": "account",
          "type": "address"
        }
      ],
      "name": "renounceRole",
      "outputs": [],
      "stateMutability": "nonpayable",
      "type": "function"
    },
    {
      "inputs": [
        {
          "internalType": "bytes32",
          "name": "role",
          "type": "bytes32"
        },
        {
          "internalType": "address",
          "name": "account",
          "type": "address"
        }
      ],
      "name": "revokeRole",
      "outputs": [],
      "stateMutability": "nonpayable",
      "type": "function"
    },
    {
      "inputs": [
        {
          "internalType": "bytes4",
          "name": "interfaceId",
          "type": "bytes4"
        }
      ],
      "name": "supportsInterface",
      "outputs": [
        {
          "internalType": "bool",
          "name": "",
          "type": "bool"
        }
      ],
      "stateMutability": "view",
      "type": "function"
    },
    {
      "inputs": [
        {
          "internalType": "uint256",
          "name": "",
          "type": "uint256"
        }
      ],
      "name": "updatesComplete",
      "outputs": [
        {
          "internalType": "bool",
          "name": "",
          "type": "bool"
        }
      ],
      "stateMutability": "view",
      "type": "function"
    },
    {
      "inputs": [
        {
          "internalType": "address",
          "name": "vcAddress",
          "type": "address"
        }
      ],
      "name": "addVerifiedController",
      "outputs": [],
      "stateMutability": "nonpayable",
      "type": "function"
    },
    {
      "inputs": [
        {
          "internalType": "address",
          "name": "queueContract",
          "type": "address"
        }
      ],
      "name": "setQueue",
      "outputs": [],
      "stateMutability": "nonpayable",
      "type": "function"
    },
    {
      "inputs": [
        {
          "internalType": "address",
          "name": "gsuAddress",
          "type": "address"
        }
      ],
      "name": "setGameStateUpdate",
      "outputs": [],
      "stateMutability": "nonpayable",
      "type": "function"
    },
    {
      "inputs": [],
      "name": "needsUpkeep",
      "outputs": [
        {
          "internalType": "bool",
          "name": "upkeepNeeded",
          "type": "bool"
        },
        {
          "internalType": "bytes",
          "name": "performData",
          "type": "bytes"
        }
      ],
      "stateMutability": "view",
      "type": "function"
    },
    {
      "inputs": [
        {
          "internalType": "bytes",
          "name": "performData",
          "type": "bytes"
        }
      ],
      "name": "doUpkeep",
      "outputs": [],
      "stateMutability": "nonpayable",
      "type": "function"
    },
    {
      "inputs": [
        {
          "internalType": "bytes",
          "name": "performData",
          "type": "bytes"
        }
      ],
      "name": "performUpkeep",
      "outputs": [],
      "stateMutability": "nonpayable",
      "type": "function"
    },
    {
      "inputs": [
        {
          "internalType": "bytes",
          "name": "",
          "type": "bytes"
        }
      ],
      "name": "checkUpkeep",
      "outputs": [
        {
          "internalType": "bool",
          "name": "upkeepNeeded",
          "type": "bool"
        },
        {
          "internalType": "bytes",
          "name": "performData",
          "type": "bytes"
        }
      ],
      "stateMutability": "view",
      "type": "function"
    },
    {
      "inputs": [
        {
          "internalType": "uint256",
          "name": "queueID",
          "type": "uint256"
        },
        {
          "internalType": "uint256",
          "name": "playerID",
          "type": "uint256"
        }
      ],
      "name": "dig",
      "outputs": [
        {
          "internalType": "string",
          "name": "cardType",
          "type": "string"
        }
      ],
      "stateMutability": "view",
      "type": "function"
    }
  ],
  "bytecode": "0x60806040523480156200001157600080fd5b5060405162003db638038062003db6833981016040819052620000349162000270565b6200005c60006200004d64010000000062000091810204565b64010000000062000095810204565b60048054600160a060020a03928316600160a060020a03199182161790915560058054939092169216919091179055620002a8565b3390565b620000aa8282640100000000620000ae810204565b5050565b620000c8828264010000000062000a68620000f582021704565b6000828152600160205260409020620000f0908264010000000062000aec6200019182021704565b505050565b6200010a8282640100000000620001ba810204565b620000aa57600082815260208181526040808320600160a060020a03851684529091529020805460ff191660011790556200014d64010000000062000091810204565b600160a060020a031681600160a060020a0316837f2f8788117e7eff1d82e926ec794901d17c78024a50270940304540a733656f0d60405160405180910390a45050565b6000620001b183600160a060020a038416640100000000620001e3810204565b90505b92915050565b600091825260208281526040808420600160a060020a0393909316845291905290205460ff1690565b6000620001fa83836401000000006200023b810204565b6200023257508154600181810184556000848152602080822090930184905584548482528286019093526040902091909155620001b4565b506000620001b4565b60009081526001919091016020526040902054151590565b8051600160a060020a03811681146200026b57600080fd5b919050565b600080604083850312156200028457600080fd5b6200028f8362000253565b91506200029f6020840162000253565b90509250929050565b613afe80620002b86000396000f3fe608060405234801561001057600080fd5b50600436106101155760003560e060020a900480639010d07c116100b1578063d4f5b15211610075578063d4f5b15214610286578063d547741f14610299578063ec9e275e146102ac578063f3ee7e2c146102cf578063f80ddc47146102e257600080fd5b80639010d07c1461021a57806391d1485414610245578063a217fddf14610258578063a605e7ae14610260578063ca15c8731461027357600080fd5b806301ffc9a71461011a5780631c834a7f14610142578063248a9ca314610165578063293dff3e146101885780632f2ff15d146101ab57806330e047f4146101c057806336568abe146101d35780634585e33b146101e65780636e04ff0d146101f9575b600080fd5b61012d610128366004613067565b6102ea565b60405190151581526020015b60405180910390f35b610157600080516020613aa983398151915281565b604051908152602001610139565b610157610173366004613091565b60009081526020819052604090206001015490565b61019e6101963660046130aa565b606092915050565b6040516101399190613128565b6101be6101b9366004613157565b61032e565b005b6101be6101ce366004613183565b610358565b6101be6101e1366004613157565b6103cd565b6101be6101f4366004613183565b610461565b61020c610207366004613183565b6104ca565b6040516101399291906131f5565b61022d6102283660046130aa565b610704565b604051600160a060020a039091168152602001610139565b61012d610253366004613157565b610723565b610157600081565b6101be61026e366004613218565b61074c565b610157610281366004613091565b610787565b6101be610294366004613218565b61079e565b6101be6102a7366004613157565b6107c1565b61012d6102ba366004613091565b60066020526000908152604090205460ff1681565b6101be6102dd366004613218565b6107e6565b61020c610831565b6000600160e060020a031982167f5a05180f000000000000000000000000000000000000000000000000000000001480610328575061032882610b01565b92915050565b60008281526020819052604090206001015461034981610b68565b6103538383610b75565b505050565b600061036381610b68565b61036b612f71565b60008061037a85870187613233565b60608b015260808a01526040890152602088015260a08701528552909250905060028114156103b2576103ad8284610b97565b6103c5565b80600314156103c5576103c58284610d02565b505050505050565b600160a060020a03811633146104535760405160e560020a62461bcd02815260206004820152602f60248201527f416363657373436f6e74726f6c3a2063616e206f6e6c792072656e6f756e636560448201527f20726f6c657320666f722073656c66000000000000000000000000000000000060648201526084015b60405180910390fd5b61045d8282610f76565b5050565b610469612f71565b60008061047884860186613233565b60608b015260808a01526040890152602088015260a08701528552909250905060028114156104b0576104ab8284610b97565b6104c3565b80600314156104c3576104c38284610d02565b5050505050565b6002546040805160e060020a631a897239028152905160009260609284928392600160a060020a031691631a89723991600480830192869291908290030181865afa15801561051d573d6000803e3d6000fd5b505050506040513d6000823e601f3d908101601f1916820160405261054591908101906132f6565b905060005b81518110156106275781818151811061056557610565613389565b60200260200101516000141580156105eb575060025460405160e060020a631b1d5b2702815260048101859052600091600160a060020a031690631b1d5b2790602401602060405180830381865afa1580156105c5573d6000803e3d6000fd5b505050506040513d601f19601f820116820180604052508101906105e991906133a2565b115b156106155781818151811061060257610602613389565b6020026020010151925060019450610627565b8061061f816133d4565b91505061054a565b5060025460405160e060020a63b1fb640502815260048101849052600091600160a060020a03169063b1fb640590602401602060405180830381865afa158015610675573d6000803e3d6000fd5b505050506040513d601f19601f8201168201806040525081019061069991906133ef565b905060028160058111156106af576106af613410565b14156106c7576106c0836002610f98565b93506106fa565b60038160058111156106db576106db613410565b14156106ec576106c0836003610f98565b6106f7836004610f98565b93505b5050509250929050565b600082815260016020526040812061071c9083611415565b9392505050565b600091825260208281526040808420600160a060020a0393909316845291905290205460ff1690565b600061075781610b68565b506003805473ffffffffffffffffffffffffffffffffffffffff1916600160a060020a0392909216919091179055565b600081815260016020526040812061032890611421565b60006107a981610b68565b61045d600080516020613aa98339815191528361032e565b6000828152602081905260409020600101546107dc81610b68565b6103538383610f76565b60006107f181610b68565b6002805473ffffffffffffffffffffffffffffffffffffffff1916600160a060020a03841617905561045d600080516020613aa98339815191528361142b565b6002546040805160e060020a631a897239028152905160009260609284928392600160a060020a031691631a89723991600480830192869291908290030181865afa158015610884573d6000803e3d6000fd5b505050506040513d6000823e601f3d908101601f191682016040526108ac91908101906132f6565b905060005b815181101561098e578181815181106108cc576108cc613389565b6020026020010151600014158015610952575060025460405160e060020a631b1d5b2702815260048101859052600091600160a060020a031690631b1d5b2790602401602060405180830381865afa15801561092c573d6000803e3d6000fd5b505050506040513d601f19601f8201168201806040525081019061095091906133a2565b115b1561097c5781818151811061096957610969613389565b602002602001015192506001945061098e565b80610986816133d4565b9150506108b1565b5060025460405160e060020a63b1fb640502815260048101849052600091600160a060020a03169063b1fb640590602401602060405180830381865afa1580156109dc573d6000803e3d6000fd5b505050506040513d601f19601f82011682018060405250810190610a0091906133ef565b90506002816005811115610a1657610a16613410565b1415610a2e57610a27836002610f98565b9350610a61565b6003816005811115610a4257610a42613410565b1415610a5357610a27836003610f98565b610a5e836004610f98565b93505b5050509091565b610a728282610723565b61045d57600082815260208181526040808320600160a060020a03851684529091529020805460ff19166001179055610aa83390565b600160a060020a031681600160a060020a0316837f2f8788117e7eff1d82e926ec794901d17c78024a50270940304540a733656f0d60405160405180910390a45050565b600061071c83600160a060020a038416611435565b6000600160e060020a031982167f7965db0b00000000000000000000000000000000000000000000000000000000148061032857507f01ffc9a700000000000000000000000000000000000000000000000000000000600160e060020a0319831614610328565b610b728133611484565b50565b610b7f8282610a68565b60008281526001602052604090206103539082610aec565b60025460405160e060020a63cddbe72902815260048101849052600091600160a060020a03169063cddbe72990602401602060405180830381865afa158015610be4573d6000803e3d6000fd5b505050506040513d601f19601f82011682018060405250810190610c0891906133a2565b90506000610c1684846114eb565b60035460405160e060020a638c1666b9028152919250600160a060020a031690638c1666b990610c4c908490869060040161359b565b600060405180830381600087803b158015610c6657600080fd5b505af1158015610c7a573d6000803e3d6000fd5b50506002546040517f04ac8fee000000000000000000000000000000000000000000000000000000008152600160a060020a0390911692506304ac8fee9150610cca906003908890600401613812565b600060405180830381600087803b158015610ce457600080fd5b505af1158015610cf8573d6000803e3d6000fd5b5050505050505050565b60025460405160e060020a63b1fb640502815260048101849052600091600160a060020a03169063b1fb640590602401602060405180830381865afa158015610d4f573d6000803e3d6000fd5b505050506040513d601f19601f82011682018060405250810190610d7391906133ef565b60025460405160e060020a631b1d5b2702815260048101869052919250600160a060020a031690631b1d5b2790602401602060405180830381865afa158015610dc0573d6000803e3d6000fd5b505050506040513d601f19601f82011682018060405250810190610de491906133a2565b15610353576003816005811115610dfd57610dfd613410565b14156103535760025460405160e060020a63cddbe72902815260048101859052600091600160a060020a03169063cddbe72990602401602060405180830381865afa158015610e50573d6000803e3d6000fd5b505050506040513d601f19601f82011682018060405250810190610e7491906133a2565b90506000610e828585612bc8565b60035460405160e060020a638c1666b9028152919250600091600160a060020a0390911690638c1666b990610ebd908590879060040161359b565b600060405180830381600087803b158015610ed757600080fd5b505af1158015610eeb573d6000803e3d6000fd5b50506002546040517f8e6e1d89000000000000000000000000000000000000000000000000000000008152600481018a90528415156024820152600160a060020a039091169250638e6e1d899150604401600060405180830381600087803b158015610f5657600080fd5b505af1158015610f6a573d6000803e3d6000fd5b50505050505050505050565b610f808282612bd8565b60008281526001602052604090206103539082612c3d565b6040805160c08101825260008082526020820181905281830181905260608083018290526080830182905260a08301829052600254935160e060020a63ac01b83d028152600481018790529093600160a060020a03169063ac01b83d90602401600060405180830381865afa158015611015573d6000803e3d6000fd5b505050506040513d6000823e601f3d908101601f1916820160405261103d91908101906132f6565b905060005b815181101561139357600082828151811061105f5761105f613389565b60209081029190910101516002546040517f7f041591000000000000000000000000000000000000000000000000000000008152600481018a905260248101839052919250600091600160a060020a0390911690637f04159190604401602060405180830381865afa1580156110d9573d6000803e3d6000fd5b505050506040513d601f19601f820116820180604052508101906110fd9190613841565b9050600181600681111561111357611113613410565b14156111305760018560000181815161112c9190613862565b9052505b6002546040517ffd82e21f000000000000000000000000000000000000000000000000000000008152600481018a905260248101849052600091600160a060020a03169063fd82e21f90604401600060405180830381865afa15801561119a573d6000803e3d6000fd5b505050506040513d6000823e601f3d908101601f191682016040526111c291908101906138de565b5111156111e0576001856020018181516111dc9190613862565b9052505b6002546040517f9b8e6819000000000000000000000000000000000000000000000000000000008152600481018a905260248101849052600091600160a060020a031690639b8e681990604401600060405180830381865afa15801561124a573d6000803e3d6000fd5b505050506040513d6000823e601f3d908101601f1916820160405261127291908101906138de565b5111156112905760018560200181815161128c9190613862565b9052505b60028160068111156112a4576112a4613410565b14806112c1575060038160068111156112bf576112bf613410565b145b156112dd576001856040018181516112d99190613862565b9052505b60048160068111156112f1576112f1613410565b148061130e5750600581600681111561130c5761130c613410565b145b8061132a5750600681600681111561132857611328613410565b145b806113465750600281600681111561134457611344613410565b145b806113625750600381600681111561136057611360613410565b145b1561137e5760018560600181815161137a9190613862565b9052505b5050808061138b906133d4565b915050611042565b50848483600001518460a0015185602001518660400151876080015188606001516040516020016113fc989796959493929190978852602088019690965260408701949094526060860192909252608085015260a084015260c083015260e08201526101000190565b6040516020818303038152906040529250505092915050565b600061071c8383612c52565b6000610328825490565b61045d8282610b75565b600081815260018301602052604081205461147c57508154600181810184556000848152602080822090930184905584548482528286019093526040902091909155610328565b506000610328565b61148e8282610723565b61045d576114a681600160a060020a03166014612c7c565b6114b1836020612c7c565b6040516020016114c2929190613913565b60408051601f198184030181529082905260e560020a62461bcd02825261044a91600401613128565b6114f3612fa7565b6114fb612fa7565b60025460405160e060020a63ac01b83d02815260048101869052600091600160a060020a03169063ac01b83d90602401600060405180830381865afa158015611548573d6000803e3d6000fd5b505050506040513d6000823e601f3d908101601f1916820160405261157091908101906132f6565b845190915060009060079067ffffffffffffffff81111561159357611593613288565b6040519080825280602002602001820160405280156115bc578160200160208202803683370190505b508452855167ffffffffffffffff8111156115d9576115d9613288565b604051908082528060200260200182016040528015611602578160200160208202803683370190505b506020850152855167ffffffffffffffff81111561162257611622613288565b60405190808252806020026020018201604052801561165b57816020015b611648613040565b8152602001906001900390816116405790505b506101c085015260009150815b8351811015611974576002548451600191600160a060020a031690637f041591908b9088908690811061169d5761169d613389565b60200260200101516040518363ffffffff1660e060020a0281526004016116ce929190918252602082015260400190565b602060405180830381865afa1580156116eb573d6000803e3d6000fd5b505050506040513d601f19601f8201168201806040525081019061170f9190613841565b600681111561172057611720613410565b14156119625783818151811061173857611738613389565b60200260200101518560000151848151811061175657611756613389565b60209081029190910101526002548451600160a060020a039091169063a2dc5860908a9087908590811061178c5761178c613389565b60200260200101516040518363ffffffff1660e060020a0281526004016117bd929190918252602082015260400190565b600060405180830381865afa1580156117da573d6000803e3d6000fd5b505050506040513d6000823e601f3d908101601f191682016040526118029190810190613994565b518560200151848151811061181957611819613389565b60209081029190910101526002548451600091600160a060020a03169063a2dc5860908b9088908690811061185057611850613389565b60200260200101516040518363ffffffff1660e060020a028152600401611881929190918252602082015260400190565b600060405180830381865afa15801561189e573d6000803e3d6000fd5b505050506040513d6000823e601f3d908101601f191682016040526118c69190810190613994565b905060005b8381101561195257815181106118f0576040518060200160405280600081525061190b565b81818151811061190257611902613389565b60200260200101515b876101c00151868151811061192257611922613389565b6020026020010151826007811061193b5761193b613389565b60200201528061194a816133d4565b9150506118cb565b508361195d816133d4565b945050505b8061196c816133d4565b915050611668565b50856020015167ffffffffffffffff81111561199257611992613288565b6040519080825280602002602001820160405280156119bb578160200160208202803683370190505b506040850152602086015167ffffffffffffffff8111156119de576119de613288565b604051908082528060200260200182016040528015611a07578160200160208202803683370190505b506060850152602086015167ffffffffffffffff811115611a2a57611a2a613288565b604051908082528060200260200182016040528015611a5d57816020015b6060815260200190600190039081611a485790505b506101e085015260009150815b8351811015611c5f576002548451600091600160a060020a03169063fd82e21f908b90889086908110611a9f57611a9f613389565b60200260200101516040518363ffffffff1660e060020a028152600401611ad0929190918252602082015260400190565b600060405180830381865afa158015611aed573d6000803e3d6000fd5b505050506040513d6000823e601f3d908101601f19168201604052611b1591908101906138de565b511115611c4d57838181518110611b2e57611b2e613389565b602002602001015185604001518481518110611b4c57611b4c613389565b602002602001018181525050600085606001518481518110611b7057611b70613389565b60209081029190910101526002548451600160a060020a039091169063fd82e21f908a90879085908110611ba657611ba6613389565b60200260200101516040518363ffffffff1660e060020a028152600401611bd7929190918252602082015260400190565b600060405180830381865afa158015611bf4573d6000803e3d6000fd5b505050506040513d6000823e601f3d908101601f19168201604052611c1c91908101906138de565b856101e001518481518110611c3357611c33613389565b60200260200101819052508280611c49906133d4565b9350505b80611c57816133d4565b915050611a6a565b5060005b8351811015611e58576002548451600091600160a060020a031690639b8e6819908b90889086908110611c9857611c98613389565b60200260200101516040518363ffffffff1660e060020a028152600401611cc9929190918252602082015260400190565b600060405180830381865afa158015611ce6573d6000803e3d6000fd5b505050506040513d6000823e601f3d908101601f19168201604052611d0e91908101906138de565b511115611e4657838181518110611d2757611d27613389565b602002602001015185604001518481518110611d4557611d45613389565b602002602001018181525050600185606001518481518110611d6957611d69613389565b60209081029190910101526002548451600160a060020a0390911690639b8e6819908a90879085908110611d9f57611d9f613389565b60200260200101516040518363ffffffff1660e060020a028152600401611dd0929190918252602082015260400190565b600060405180830381865afa158015611ded573d6000803e3d6000fd5b505050506040513d6000823e601f3d908101601f19168201604052611e1591908101906138de565b856101e001518481518110611e2c57611e2c613389565b60200260200101819052508280611e42906133d4565b9350505b80611e50816133d4565b915050611c63565b50856040015167ffffffffffffffff811115611e7657611e76613288565b604051908082528060200260200182016040528015611e9f578160200160208202803683370190505b506080850152604086015167ffffffffffffffff811115611ec257611ec2613288565b604051908082528060200260200182016040528015611eeb578160200160208202803683370190505b5060a0850152604086015167ffffffffffffffff811115611f0e57611f0e613288565b604051908082528060200260200182016040528015611f37578160200160208202803683370190505b5060c0850152604086015167ffffffffffffffff811115611f5a57611f5a613288565b604051908082528060200260200182016040528015611f8d57816020015b6060815260200190600190039081611f785790505b5061020085015260009150815b835181101561215957600280548551600160a060020a0390911690637f041591908b90889086908110611fcf57611fcf613389565b60200260200101516040518363ffffffff1660e060020a028152600401612000929190918252602082015260400190565b602060405180830381865afa15801561201d573d6000803e3d6000fd5b505050506040513d601f19601f820116820180604052508101906120419190613841565b600681111561205257612052613410565b1415612147576402540be4008560800151848151811061207457612074613389565b60200260200101818152505083818151811061209257612092613389565b60200260200101518560a0015184815181106120b0576120b0613389565b60200260200101818152505060018560c0015184815181106120d4576120d4613389565b6020026020010181815250506040518060400160405280600881526020017f43616d7073697465000000000000000000000000000000000000000000000000815250856102000151848151811061212d5761212d613389565b60200260200101819052508280612143906133d4565b9350505b80612151816133d4565b915050611f9a565b5060005b835181101561231c576002548451600391600160a060020a031690637f041591908b9088908690811061219257612192613389565b60200260200101516040518363ffffffff1660e060020a0281526004016121c3929190918252602082015260400190565b602060405180830381865afa1580156121e0573d6000803e3d6000fd5b505050506040513d601f19601f820116820180604052508101906122049190613841565b600681111561221557612215613410565b141561230a5783818151811061222d5761222d613389565b60200260200101518560800151848151811061224b5761224b613389565b6020026020010181815250506402540be4008560a00151848151811061227357612273613389565b60200260200101818152505060018560c00151848151811061229757612297613389565b6020026020010181815250506040518060400160405280600881526020017f43616d707369746500000000000000000000000000000000000000000000000081525085610200015184815181106122f0576122f0613389565b60200260200101819052508280612306906133d4565b9350505b80612314816133d4565b91505061215d565b50856060015167ffffffffffffffff81111561233a5761233a613288565b604051908082528060200260200182016040528015612363578160200160208202803683370190505b50610180850152606086015167ffffffffffffffff81111561238757612387613288565b6040519080825280602002602001820160405280156123ba57816020015b60608152602001906001900390816123a55790505b50610240850152606086015167ffffffffffffffff8111156123de576123de613288565b60405190808252806020026020018201604052801561241157816020015b60608152602001906001900390816123fc5790505b5061026085015260009150815b8351811015612bbc57600280548551600160a060020a0390911690637f041591908b9088908690811061245357612453613389565b60200260200101516040518363ffffffff1660e060020a028152600401612484929190918252602082015260400190565b602060405180830381865afa1580156124a1573d6000803e3d6000fd5b505050506040513d601f19601f820116820180604052508101906124c59190613841565b60068111156124d6576124d6613410565b14156125b4576040518060400160405280600a81526020017f53657475702063616d7000000000000000000000000000000000000000000000815250856102400151848151811061252957612529613389565b602002602001018190525060405180602001604052806000815250856102600151848151811061255b5761255b613389565b602002602001018190525083818151811061257857612578613389565b6020026020010151856101800151848151811061259757612597613389565b6020908102919091010152826125ac816133d4565b935050612baa565b6002548451600391600160a060020a031690637f041591908b908890869081106125e0576125e0613389565b60200260200101516040518363ffffffff1660e060020a028152600401612611929190918252602082015260400190565b602060405180830381865afa15801561262e573d6000803e3d6000fd5b505050506040513d601f19601f820116820180604052508101906126529190613841565b600681111561266357612663613410565b14156126fe576040518060400160405280600f81526020017f427265616b20646f776e2063616d70000000000000000000000000000000000081525085610240015184815181106126b6576126b6613389565b60200260200101819052506040518060200160405280600081525085610260015184815181106126e8576126e8613389565b602002602001018190525082806125ac906133d4565b6002548451600491600160a060020a031690637f041591908b9088908690811061272a5761272a613389565b60200260200101516040518363ffffffff1660e060020a02815260040161275b929190918252602082015260400190565b602060405180830381865afa158015612778573d6000803e3d6000fd5b505050506040513d601f19601f8201168201806040525081019061279c9190613841565b60068111156127ad576127ad613410565b1415612800576040518060400160405280600381526020017f446967000000000000000000000000000000000000000000000000000000000081525085610240015184815181106126b6576126b6613389565b6002548451600591600160a060020a031690637f041591908b9088908690811061282c5761282c613389565b60200260200101516040518363ffffffff1660e060020a02815260040161285d929190918252602082015260400190565b602060405180830381865afa15801561287a573d6000803e3d6000fd5b505050506040513d601f19601f8201168201806040525081019061289e9190613841565b60068111156128af576128af613410565b14156129c8576040518060400160405280600481526020017f5265737400000000000000000000000000000000000000000000000000000000815250856102400151848151811061290257612902613389565b60209081029190910101526002548451600160a060020a0390911690631b341b3e908a9087908590811061293857612938613389565b602090810291909101015160405160e060020a63ffffffff85160281526004810192909252602482015260006044820152606401600060405180830381865afa158015612989573d6000803e3d6000fd5b505050506040513d6000823e601f3d908101601f191682016040526129b191908101906138de565b85610260015184815181106126e8576126e8613389565b6002548451600691600160a060020a031690637f041591908b908890869081106129f4576129f4613389565b60200260200101516040518363ffffffff1660e060020a028152600401612a25929190918252602082015260400190565b602060405180830381865afa158015612a42573d6000803e3d6000fd5b505050506040513d601f19601f82011682018060405250810190612a669190613841565b6006811115612a7757612a77613410565b1415612baa576040518060400160405280600481526020017f48656c70000000000000000000000000000000000000000000000000000000008152508561024001518481518110612aca57612aca613389565b60209081029190910101526002548451600160a060020a0390911690631b341b3e908a90879085908110612b0057612b00613389565b602090810291909101015160405160e060020a63ffffffff85160281526004810192909252602482015260006044820152606401600060405180830381865afa158015612b51573d6000803e3d6000fd5b505050506040513d6000823e601f3d908101601f19168201604052612b7991908101906138de565b8561026001518481518110612b9057612b90613389565b60200260200101819052508280612ba6906133d4565b9350505b80612bb4816133d4565b91505061241e565b50929695505050505050565b612bd0612fa7565b61071c612fa7565b612be28282610723565b1561045d57600082815260208181526040808320600160a060020a0385168085529252808320805460ff1916905551339285917ff6391f5c32d9c69d2a47ea670b442974b53935d1edc7fd64eb21e047a839171b9190a45050565b600061071c83600160a060020a038416612e7e565b6000826000018281548110612c6957612c69613389565b9060005260206000200154905092915050565b60606000612c8b836002613a42565b612c96906002613862565b67ffffffffffffffff811115612cae57612cae613288565b6040519080825280601f01601f191660200182016040528015612cd8576020820181803683370190505b5090507f300000000000000000000000000000000000000000000000000000000000000081600081518110612d0f57612d0f613389565b6020010190600160f860020a031916908160001a9053507f780000000000000000000000000000000000000000000000000000000000000081600181518110612d5a57612d5a613389565b6020010190600160f860020a031916908160001a9053506000612d7e846002613a42565b612d89906001613862565b90505b6001811115612e2c577f303132333435363738396162636465660000000000000000000000000000000085600f1660108110612dca57612dca613389565b1a7f010000000000000000000000000000000000000000000000000000000000000002828281518110612dff57612dff613389565b6020010190600160f860020a031916908160001a905350601090940493612e2581613a61565b9050612d8c565b50831561071c5760405160e560020a62461bcd02815260206004820181905260248201527f537472696e67733a20686578206c656e67746820696e73756666696369656e74604482015260640161044a565b60008181526001830160205260408120548015612f67576000612ea2600183613a78565b8554909150600090612eb690600190613a78565b9050818114612f1b576000866000018281548110612ed657612ed6613389565b9060005260206000200154905080876000018481548110612ef957612ef9613389565b6000918252602080832090910192909255918252600188019052604090208390555b8554869080612f2c57612f2c613a8f565b600190038181906000526020600020016000905590558560010160008681526020019081526020016000206000905560019350505050610328565b6000915050610328565b6040518060c001604052806000815260200160008152602001600081526020016000815260200160008152602001600081525090565b60405180610280016040528060608152602001606081526020016060815260200160608152602001606081526020016060815260200160608152602001606081526020016060815260200160608152602001606081526020016060815260200160608152602001606081526020016060815260200160608152602001606081526020016060815260200160608152602001606081525090565b6040518060e001604052806007905b606081526020019060019003908161304f5790505090565b60006020828403121561307957600080fd5b8135600160e060020a03198116811461071c57600080fd5b6000602082840312156130a357600080fd5b5035919050565b600080604083850312156130bd57600080fd5b50508035926020909101359150565b60005b838110156130e75781810151838201526020016130cf565b838111156130f6576000848401525b50505050565b600081518084526131148160208601602086016130cc565b601f01601f19169290920160200192915050565b60208152600061071c60208301846130fc565b8035600160a060020a038116811461315257600080fd5b919050565b6000806040838503121561316a57600080fd5b8235915061317a6020840161313b565b90509250929050565b6000806020838503121561319657600080fd5b823567ffffffffffffffff808211156131ae57600080fd5b818501915085601f8301126131c257600080fd5b8135818111156131d157600080fd5b8660208285010111156131e357600080fd5b60209290920196919550909350505050565b821515815260406020820152600061321060408301846130fc565b949350505050565b60006020828403121561322a57600080fd5b61071c8261313b565b600080600080600080600080610100898b03121561325057600080fd5b505086359860208801359850604088013597606081013597506080810135965060a0810135955060c0810135945060e0013592509050565b60e060020a634e487b7102600052604160045260246000fd5b604051601f8201601f1916810167ffffffffffffffff811182821017156132ca576132ca613288565b604052919050565b600067ffffffffffffffff8211156132ec576132ec613288565b5060209081020190565b6000602080838503121561330957600080fd5b825167ffffffffffffffff81111561332057600080fd5b8301601f8101851361333157600080fd5b805161334461333f826132d2565b6132a1565b8181529083028201830190838101908783111561336057600080fd5b928401925b8284101561337e57835182529284019290840190613365565b979650505050505050565b60e060020a634e487b7102600052603260045260246000fd5b6000602082840312156133b457600080fd5b5051919050565b60e060020a634e487b7102600052601160045260246000fd5b60006000198214156133e8576133e86133bb565b5060010190565b60006020828403121561340157600080fd5b81516006811061071c57600080fd5b60e060020a634e487b7102600052602160045260246000fd5b600081518084526020808501945080840160005b838110156134595781518752958201959082019060010161343d565b509495945050505050565b60008151808452602080850194508084016000805b848110156134b957825188835b60038110156134a357825182529186019190860190600101613486565b5050506060979097019691830191600101613479565b50959695505050505050565b60008151808452602080850180819650828402810191508286016000805b86811015613539578385038a5282518560e08101845b60078110156135245788820383526135128285516130fc565b938a0193928a019291506001016134f9565b509b88019b96505050918501916001016134e3565b509298975050505050505050565b600081518084526020808501808196508284028101915082860160005b8581101561358e57828403895261357c8483516130fc565b98850198935090840190600101613564565b5091979650505050505050565b60408152600083516102808060408501526135ba6102c0850183613429565b91506020860151603f19808685030160608701526135d88483613429565b935060408801519150808685030160808701526135f58483613429565b935060608801519150808685030160a08701526136128483613429565b935060808801519150808685030160c087015261362f8483613429565b935060a08801519150808685030160e087015261364c8483613429565b935060c0880151915061010081878603018188015261366b8584613429565b945060e0890151925061012082888703018189015261368a8685613429565b9550818a0151935061014091508288870301828901526136aa8685613429565b9550808a01519350506101608288870301818901526136c98685613429565b9550818a0151935061018091508288870301828901526136e98685613429565b9550808a01519350506101a08288870301818901526137088685613464565b9550818a015193506101c091508288870301828901526137288685613429565b9550808a01519350506101e082888703018189015261374786856130fc565b9550818a01519350610200915082888703018289015261376786856134c5565b9550808a01519350506102208288870301818901526137868685613547565b9550818a0151935061024091508288870301828901526137a68685613547565b9550808a01519350506102608288870301818901526137c58685613547565b9550818a015193508288870301858901526137e08685613547565b9550808a01519450505080868503016102a087015250506138018282613547565b925050508260208301529392505050565b60408101600684106138375760e060020a634e487b7102600052602160045260246000fd5b9281526020015290565b60006020828403121561385357600080fd5b81516007811061071c57600080fd5b60008219821115613875576138756133bb565b500190565b600082601f83011261388b57600080fd5b815167ffffffffffffffff8111156138a5576138a5613288565b6138b8601f8201601f19166020016132a1565b8181528460208386010111156138cd57600080fd5b6132108260208301602087016130cc565b6000602082840312156138f057600080fd5b815167ffffffffffffffff81111561390757600080fd5b6132108482850161387a565b7f416363657373436f6e74726f6c3a206163636f756e742000000000000000000081526000835161394b8160178501602088016130cc565b7f206973206d697373696e6720726f6c652000000000000000000000000000000060179184019182015283516139888160288401602088016130cc565b01602801949350505050565b600060208083850312156139a757600080fd5b825167ffffffffffffffff808211156139bf57600080fd5b818501915085601f8301126139d357600080fd5b81516139e161333f826132d2565b818152908402830184019084810190888311156139fd57600080fd5b8585015b83811015613a3557805185811115613a195760008081fd5b613a278b89838a010161387a565b845250918601918601613a01565b5098975050505050505050565b6000816000190483118215151615613a5c57613a5c6133bb565b500290565b600081613a7057613a706133bb565b506000190190565b600082821015613a8a57613a8a6133bb565b500390565b60e060020a634e487b7102600052603160045260246000fdfe80e2196015fc06a9d891759f8e4f51eb314ef5e9ea068528a8ed0063b87759f0a264697066735822122047a2fc290e2b8d5246ad1c72157fb635a99f324eda2da4cfb12e3969eda9be9764736f6c634300080b0033",
  "immutableReferences": {},
  "source": "// SPDX-License-Identifier: GPL-3.0\npragma solidity >=0.7.0 <0.9.0;\n\nimport \"./HexplorationQueue.sol\";\nimport \"./HexplorationStateUpdate.sol\";\nimport \"./state/GameSummary.sol\";\nimport \"./HexplorationBoard.sol\";\nimport \"@openzeppelin/contracts/access/AccessControlEnumerable.sol\";\nimport \"@chainlink/contracts/src/v0.8/KeeperCompatible.sol\";\n\ncontract HexplorationGameplay is\n    AccessControlEnumerable,\n    KeeperCompatibleInterface\n{\n    bytes32 public constant VERIFIED_CONTROLLER_ROLE =\n        keccak256(\"VERIFIED_CONTROLLER_ROLE\");\n\n    HexplorationQueue QUEUE;\n    HexplorationStateUpdate GAME_STATE;\n    HexplorationBoard GAME_BOARD;\n    address gameSummaryAddress;\n\n    // Mapping from QueueID to updates needed to run\n    //mapping(uint256 => bool) public readyForKeeper;\n    mapping(uint256 => bool) public updatesComplete;\n\n    struct DataSummary {\n        uint256 playerPositionUpdates;\n        uint256 playerEquips;\n        uint256 zoneTransfers;\n        uint256 activeActions;\n        uint256 playerTransfers;\n        uint256 playerStatUpdates;\n    }\n\n    struct PlayUpdates {\n        uint256[] playerPositionIDs;\n        uint256[] spacesToMove;\n        uint256[] playerEquipIDs;\n        uint256[] playerEquipHands;\n        uint256[] zoneTransfersTo;\n        uint256[] zoneTransfersFrom;\n        uint256[] zoneTransferQtys;\n        uint256[] playerTransfersTo;\n        uint256[] playerTransfersFrom;\n        uint256[] playerTransferQtys;\n        uint256[] playerStatUpdateIDs;\n        uint256[3][] playerStatUpdates;\n        uint256[] playerActiveActionIDs;\n        string gamePhase;\n        string[7][] playerMovementOptions; // TODO: set this to max # of spaces possible\n        string[] playerEquips;\n        string[] zoneTransferItemTypes;\n        string[] playerTransferItemTypes;\n        string[] activeActions;\n        string[] activeActionOptions;\n    }\n\n    constructor(address _gameSummaryAddress, address gameBoardAddress) {\n        _setupRole(DEFAULT_ADMIN_ROLE, _msgSender());\n        GAME_BOARD = HexplorationBoard(gameBoardAddress);\n        gameSummaryAddress = _gameSummaryAddress;\n    }\n\n    function addVerifiedController(address vcAddress)\n        public\n        onlyRole(DEFAULT_ADMIN_ROLE)\n    {\n        grantRole(VERIFIED_CONTROLLER_ROLE, vcAddress);\n    }\n\n    function setQueue(address queueContract)\n        public\n        onlyRole(DEFAULT_ADMIN_ROLE)\n    {\n        QUEUE = HexplorationQueue(queueContract);\n        _setupRole(VERIFIED_CONTROLLER_ROLE, queueContract);\n    }\n\n    function setGameStateUpdate(address gsuAddress)\n        public\n        onlyRole(DEFAULT_ADMIN_ROLE)\n    {\n        GAME_STATE = HexplorationStateUpdate(gsuAddress);\n    }\n\n    // Test keeper functions\n    function needsUpkeep()\n        public\n        view\n        returns (bool upkeepNeeded, bytes memory performData)\n    {\n        upkeepNeeded = false;\n        uint256 queueIDToUpdate = 0;\n        uint256[] memory pq = QUEUE.getProcessingQueue();\n        for (uint256 i = 0; i < pq.length; i++) {\n            if (pq[i] != 0 && QUEUE.randomness(queueIDToUpdate) > 0) {\n                queueIDToUpdate = pq[i];\n                upkeepNeeded = true;\n                break;\n            }\n        }\n        HexplorationQueue.ProcessingPhase phase = QUEUE.currentPhase(\n            queueIDToUpdate\n        );\n        // 2 = processing, 3 = play through, 4 = processed\n        if (phase == HexplorationQueue.ProcessingPhase.Processing) {\n            performData = getUpdateInfo(queueIDToUpdate, 2);\n        } else if (phase == HexplorationQueue.ProcessingPhase.PlayThrough) {\n            performData = getUpdateInfo(queueIDToUpdate, 3);\n        } else {\n            performData = getUpdateInfo(queueIDToUpdate, 4);\n        }\n    }\n\n    function doUpkeep(bytes calldata performData)\n        public\n        onlyRole(DEFAULT_ADMIN_ROLE)\n    {\n        DataSummary memory summary;\n        uint256 queueID;\n        uint256 processingPhase;\n        (\n            queueID,\n            processingPhase,\n            summary.playerPositionUpdates,\n            summary.playerStatUpdates,\n            summary.playerEquips,\n            summary.zoneTransfers,\n            summary.playerTransfers,\n            summary.activeActions\n        ) = abi.decode(\n            performData,\n            (\n                uint256,\n                uint256,\n                uint256,\n                uint256,\n                uint256,\n                uint256,\n                uint256,\n                uint256\n            )\n        );\n        if (processingPhase == 2) {\n            processPlayerActions(queueID, summary);\n        } else if (processingPhase == 3) {\n            processPlayThrough(queueID, summary);\n        }\n    }\n\n    // Keeper functions\n    function performUpkeep(bytes calldata performData) external override {\n        DataSummary memory summary;\n        uint256 queueID;\n        uint256 processingPhase;\n        (\n            queueID,\n            processingPhase,\n            summary.playerPositionUpdates,\n            summary.playerStatUpdates,\n            summary.playerEquips,\n            summary.zoneTransfers,\n            summary.playerTransfers,\n            summary.activeActions\n        ) = abi.decode(\n            performData,\n            (\n                uint256,\n                uint256,\n                uint256,\n                uint256,\n                uint256,\n                uint256,\n                uint256,\n                uint256\n            )\n        );\n        if (processingPhase == 2) {\n            processPlayerActions(queueID, summary);\n        } else if (processingPhase == 3) {\n            processPlayThrough(queueID, summary);\n        }\n    }\n\n    function checkUpkeep(\n        bytes calldata /* checkData */\n    )\n        external\n        view\n        override\n        returns (bool upkeepNeeded, bytes memory performData)\n    {\n        // check for list of queues that need updates...\n        upkeepNeeded = false;\n        uint256 queueIDToUpdate = 0;\n        uint256[] memory pq = QUEUE.getProcessingQueue();\n        for (uint256 i = 0; i < pq.length; i++) {\n            if (pq[i] != 0 && QUEUE.randomness(queueIDToUpdate) > 0) {\n                queueIDToUpdate = pq[i];\n                upkeepNeeded = true;\n                break;\n            }\n        }\n        HexplorationQueue.ProcessingPhase phase = QUEUE.currentPhase(\n            queueIDToUpdate\n        );\n        // 2 = processing, 3 = play through, 4 = processed\n        if (phase == HexplorationQueue.ProcessingPhase.Processing) {\n            performData = getUpdateInfo(queueIDToUpdate, 2);\n        } else if (phase == HexplorationQueue.ProcessingPhase.PlayThrough) {\n            performData = getUpdateInfo(queueIDToUpdate, 3);\n        } else {\n            performData = getUpdateInfo(queueIDToUpdate, 4);\n        }\n    }\n\n    function getUpdateInfo(uint256 queueID, uint256 processingPhase)\n        internal\n        view\n        returns (bytes memory)\n    {\n        DataSummary memory data = DataSummary(0, 0, 0, 0, 0, 0);\n        uint256[] memory playersInQueue = QUEUE.getAllPlayers(queueID);\n        for (uint256 i = 0; i < playersInQueue.length; i++) {\n            uint256 playerID = playersInQueue[i];\n            HexplorationQueue.Action action = QUEUE.submissionAction(\n                queueID,\n                playerID\n            );\n            if (action == HexplorationQueue.Action.Move) {\n                data.playerPositionUpdates += 1;\n            }\n            if (bytes(QUEUE.submissionLeftHand(queueID, playerID)).length > 0) {\n                data.playerEquips += 1;\n            }\n            if (\n                bytes(QUEUE.submissionRightHand(queueID, playerID)).length > 0\n            ) {\n                data.playerEquips += 1;\n            }\n            if (\n                action == HexplorationQueue.Action.SetupCamp ||\n                action == HexplorationQueue.Action.BreakDownCamp\n            ) {\n                data.zoneTransfers += 1;\n            }\n\n            if (\n                action == HexplorationQueue.Action.Dig ||\n                action == HexplorationQueue.Action.Rest ||\n                action == HexplorationQueue.Action.Help ||\n                action == HexplorationQueue.Action.SetupCamp ||\n                action == HexplorationQueue.Action.BreakDownCamp\n            ) {\n                data.activeActions += 1;\n            }\n        }\n        return (\n            abi.encode(\n                queueID,\n                processingPhase,\n                data.playerPositionUpdates,\n                data.playerStatUpdates,\n                data.playerEquips,\n                data.zoneTransfers,\n                data.playerTransfers,\n                data.activeActions\n            )\n        );\n    }\n\n    function playUpdatesForPlayerActionPhase(\n        uint256 queueID,\n        DataSummary memory summary\n    ) internal view returns (PlayUpdates memory) {\n        PlayUpdates memory playUpdates;\n\n        uint256[] memory playersInQueue = QUEUE.getAllPlayers(queueID);\n        uint256 position;\n        uint256 maxMovementPerPlayer = 7;\n        // Movement\n        playUpdates.playerPositionIDs = new uint256[](\n            summary.playerPositionUpdates\n        );\n        playUpdates.spacesToMove = new uint256[](summary.playerPositionUpdates);\n        playUpdates.playerMovementOptions = new string[7][](\n            summary.playerPositionUpdates\n        );\n        position = 0;\n        for (uint256 i = 0; i < playersInQueue.length; i++) {\n            if (\n                QUEUE.submissionAction(queueID, playersInQueue[i]) ==\n                HexplorationQueue.Action.Move\n            ) {\n                // return [player id, # spaces to move]\n\n                playUpdates.playerPositionIDs[position] = playersInQueue[i];\n                playUpdates.spacesToMove[position] = QUEUE\n                    .getSubmissionOptions(queueID, playersInQueue[i])\n                    .length;\n                string[] memory options = QUEUE.getSubmissionOptions(\n                    queueID,\n                    playersInQueue[i]\n                );\n                for (uint256 j = 0; j < maxMovementPerPlayer; j++) {\n                    playUpdates.playerMovementOptions[position][j] = j <\n                        options.length\n                        ? options[j]\n                        : \"\";\n                }\n                position++;\n            }\n        }\n\n        // LH equip\n        playUpdates.playerEquipIDs = new uint256[](summary.playerEquips);\n        playUpdates.playerEquipHands = new uint256[](summary.playerEquips);\n        playUpdates.playerEquips = new string[](summary.playerEquips);\n        position = 0;\n        for (uint256 i = 0; i < playersInQueue.length; i++) {\n            if (\n                bytes(QUEUE.submissionLeftHand(queueID, playersInQueue[i]))\n                    .length > 0\n            ) {\n                // return [player id, r/l hand (0/1)]\n\n                playUpdates.playerEquipIDs[position] = playersInQueue[i];\n                playUpdates.playerEquipHands[position] = 0;\n                playUpdates.playerEquips[position] = QUEUE.submissionLeftHand(\n                    queueID,\n                    playersInQueue[i]\n                );\n                position++;\n            }\n        }\n\n        // RH equip\n        for (uint256 i = 0; i < playersInQueue.length; i++) {\n            if (\n                bytes(QUEUE.submissionRightHand(queueID, playersInQueue[i]))\n                    .length > 0\n            ) {\n                // return [player id, r/l hand (0/1)]\n\n                playUpdates.playerEquipIDs[position] = playersInQueue[i];\n                playUpdates.playerEquipHands[position] = 1;\n                playUpdates.playerEquips[position] = QUEUE.submissionRightHand(\n                    queueID,\n                    playersInQueue[i]\n                );\n                position++;\n            }\n        }\n\n        // Camp actions\n        playUpdates.zoneTransfersTo = new uint256[](summary.zoneTransfers);\n        playUpdates.zoneTransfersFrom = new uint256[](summary.zoneTransfers);\n        playUpdates.zoneTransferQtys = new uint256[](summary.zoneTransfers);\n        playUpdates.zoneTransferItemTypes = new string[](summary.zoneTransfers);\n        position = 0;\n        for (uint256 i = 0; i < playersInQueue.length; i++) {\n            if (\n                QUEUE.submissionAction(queueID, playersInQueue[i]) ==\n                HexplorationQueue.Action.SetupCamp\n            ) {\n                // setup camp\n                // transfer from player to zone\n                // return [to ID, from ID, quantity]\n                // Transfer 1 campsite from player to current zone\n\n                playUpdates.zoneTransfersTo[position] = 10000000000; //10000000000 represents current play zone of player\n                playUpdates.zoneTransfersFrom[position] = playersInQueue[i];\n                playUpdates.zoneTransferQtys[position] = 1;\n                playUpdates.zoneTransferItemTypes[position] = \"Campsite\";\n                position++;\n            }\n        }\n\n        for (uint256 i = 0; i < playersInQueue.length; i++) {\n            if (\n                QUEUE.submissionAction(queueID, playersInQueue[i]) ==\n                HexplorationQueue.Action.BreakDownCamp\n            ) {\n                // break down camp\n                // transfer from zone to player\n                playUpdates.zoneTransfersTo[position] = playersInQueue[i];\n                playUpdates.zoneTransfersFrom[position] = 10000000000;\n                playUpdates.zoneTransferQtys[position] = 1;\n                playUpdates.zoneTransferItemTypes[position] = \"Campsite\";\n                position++;\n            }\n        }\n\n        playUpdates.playerActiveActionIDs = new uint256[](\n            summary.activeActions\n        );\n        playUpdates.activeActions = new string[](summary.activeActions);\n        playUpdates.activeActionOptions = new string[](summary.activeActions);\n        position = 0;\n        for (uint256 i = 0; i < playersInQueue.length; i++) {\n            if (\n                QUEUE.submissionAction(queueID, playersInQueue[i]) ==\n                HexplorationQueue.Action.SetupCamp\n            ) {\n                playUpdates.activeActions[position] = \"Setup camp\";\n                playUpdates.activeActionOptions[position] = \"\";\n                playUpdates.playerActiveActionIDs[position] = playersInQueue[i];\n                position++;\n            } else if (\n                QUEUE.submissionAction(queueID, playersInQueue[i]) ==\n                HexplorationQueue.Action.BreakDownCamp\n            ) {\n                playUpdates.activeActions[position] = \"Break down camp\";\n                playUpdates.activeActionOptions[position] = \"\";\n                position++;\n            } else if (\n                QUEUE.submissionAction(queueID, playersInQueue[i]) ==\n                HexplorationQueue.Action.Dig\n            ) {\n                playUpdates.activeActions[position] = \"Dig\";\n                playUpdates.activeActionOptions[position] = \"\";\n                position++;\n            } else if (\n                QUEUE.submissionAction(queueID, playersInQueue[i]) ==\n                HexplorationQueue.Action.Rest\n            ) {\n                playUpdates.activeActions[position] = \"Rest\";\n                playUpdates.activeActionOptions[position] = QUEUE\n                    .submissionOptions(queueID, playersInQueue[i], 0);\n                position++;\n            } else if (\n                QUEUE.submissionAction(queueID, playersInQueue[i]) ==\n                HexplorationQueue.Action.Help\n            ) {\n                playUpdates.activeActions[position] = \"Help\";\n                playUpdates.activeActionOptions[position] = QUEUE\n                    .submissionOptions(queueID, playersInQueue[i], 0);\n                position++;\n            }\n        }\n\n        // only need to store current action as digging, resting, and play out during play phase\n\n        return playUpdates;\n    }\n\n    // will be called from VRF after randomness is set...\n    function processPlayerActions(uint256 queueID, DataSummary memory summary)\n        internal\n    {\n        uint256 gameID = QUEUE.game(queueID);\n        // TODO: save update struct with all the actions from queue (what was originally the ints array)\n        PlayUpdates memory playUpdates = playUpdatesForPlayerActionPhase(\n            queueID,\n            summary\n        );\n        GAME_STATE.postUpdates(playUpdates, gameID);\n        QUEUE.setPhase(HexplorationQueue.ProcessingPhase.PlayThrough, queueID);\n    }\n\n    // Called by keeper\n    function processPlayThrough(uint256 queueID, DataSummary memory summary)\n        internal\n    {\n        HexplorationQueue.ProcessingPhase phase = QUEUE.currentPhase(queueID);\n\n        if (QUEUE.randomness(queueID) != 0) {\n            if (phase == HexplorationQueue.ProcessingPhase.PlayThrough) {\n                uint256 gameID = QUEUE.game(queueID);\n                PlayUpdates memory playUpdates = playUpdatesForPlayThroughPhase(\n                    queueID,\n                    summary\n                );\n                // TODO: set this to true when game is finished\n                bool gameComplete = false;\n                GAME_STATE.postUpdates(playUpdates, gameID);\n                QUEUE.finishProcessing(queueID, gameComplete);\n            }\n        }\n    }\n\n    function playUpdatesForPlayThroughPhase(\n        uint256 queueID,\n        DataSummary memory summary\n    ) internal view returns (PlayUpdates memory) {\n        PlayUpdates memory playUpdates;\n        /*\n        // TODO: update to actual game phase at appropriate time...\n        HexplorationQueue.ProcessingPhase phase = QUEUE.currentPhase(queueID);\n\n        // TODO: set this to true when game is finished\n        bool gameComplete = false;\n\n        uint256 gameID = QUEUE.game(queueID);\n        //uint256 gameID = QUEUE.game(queueID);\n        // uint256 totalPlayers = PlayerRegistry(GAME_BOARD.prAddress())\n        //     .totalRegistrations(QUEUE.game(queueID));\n        CharacterCard cc = CharacterCard(GAME_BOARD.characterCard());\n\n        // setup endgame\n\n        //TODO:\n        // check current phase (day / night)\n        string memory currentPhase = \"Day\";\n        bool isDay = stringsMatch(currentPhase, \"Day\");\n        bool setupEndGame = false;\n        for (\n            uint256 i = 0;\n            i <\n            PlayerRegistry(GAME_BOARD.prAddress()).totalRegistrations(\n                QUEUE.game(queueID)\n            );\n            i++\n        ) {\n            uint256 playerID = i + 1;\n            uint256 activeAction = uint256(\n                QUEUE.activeAction(queueID, playerID)\n            );\n            if (activeAction == 4) {\n                // dig\n                if (stringsMatch(dig(queueID, playerID), \"Treasure\")) {\n                    // dug treasure! pick treasure card\n                    // if final artifact is found, setupEndGame = true;\n                } else {\n                    // dug ambush...\n                    // play out consequences\n                }\n            } else if (activeAction == 5) {\n                // rest\n                string memory restChoice = QUEUE.submissionOptions(\n                    queueID,\n                    playerID,\n                    0\n                );\n                if (stringsMatch(restChoice, \"Movement\")) {\n                    // add 1 to movement\n                } else if (stringsMatch(restChoice, \"Agility\")) {\n                    // add 1 to agility\n                } else if (stringsMatch(restChoice, \"Dexterity\")) {\n                    // add 1 to dexterity\n                }\n            } else if (activeAction == 6) {\n                //help\n                // set player ID to help (options) as string choice\n            }\n\n            // to get current player stats...\n            // cc.movement(gameID, playerID) => returns uint8\n            // cc.agility(gameID, playerID) => returns uint8\n            // cc.dexterity(gameID, playerID) => returns uint8\n\n            //to subtract from player stats...\n            //subToZero(uint256(playerStat), reductionAmount);\n            // can submit numbers higher than max here, but won't actually get set to those\n            // will get set to max if max exceeded\n        }\n\n        if (setupEndGame) {\n            // setup end game...\n        }\n        // update Phase (Day / Night);\n        playUpdates.gamePhase = isDay ? \"Night\" : \"Day\";\n\n        if (isDay) {\n            for (\n                uint256 i = 0;\n                i <\n                PlayerRegistry(GAME_BOARD.prAddress()).totalRegistrations(\n                    QUEUE.game(queueID)\n                );\n                i++\n            ) {\n                uint256 playerID = i + 1;\n                // if Day,\n                // roll D6\n                // if EVEN - Choose Event Card + calculate results + save to data\n                // if ODD - Choose Ambush Card + calculate results + save to data\n            }\n        }\n        */\n        return playUpdates;\n    }\n\n    /*\n\n        for (uint256 i = 0; i < playersInQueue.length; i++) {\n            if (\n                QUEUE.submissionAction(queueID, playersInQueue[i]) ==\n                HexplorationQueue.Action.SetupCamp\n            ) {\n                stringReturn[currentArrayPosition] = \"Setup camp\";\n                stringReturn[currentArrayPosition + 1] = \"\";\n                currentArrayPosition += 2;\n            } else if (\n                QUEUE.submissionAction(queueID, playersInQueue[i]) ==\n                HexplorationQueue.Action.BreakDownCamp\n            ) {\n                stringReturn[currentArrayPosition] = \"Break down camp\";\n                stringReturn[currentArrayPosition + 1] = \"\";\n                currentArrayPosition += 2;\n            } else if (\n                QUEUE.submissionAction(queueID, playersInQueue[i]) ==\n                HexplorationQueue.Action.Dig\n            ) {\n                stringReturn[currentArrayPosition] = \"Dig\";\n                stringReturn[currentArrayPosition + 1] = \"\";\n                currentArrayPosition += 2;\n            } else if (\n                QUEUE.submissionAction(queueID, playersInQueue[i]) ==\n                HexplorationQueue.Action.Rest\n            ) {\n                stringReturn[currentArrayPosition] = \"Rest\";\n                stringReturn[currentArrayPosition + 1] = QUEUE\n                    .submissionOptions(queueID, playersInQueue[i], 0);\n                currentArrayPosition += 2;\n            } else if (\n                QUEUE.submissionAction(queueID, playersInQueue[i]) ==\n                HexplorationQueue.Action.Help\n            ) {\n                stringReturn[currentArrayPosition] = \"Help\";\n                stringReturn[currentArrayPosition + 1] = QUEUE\n                    .submissionOptions(queueID, playersInQueue[i], 0);\n                currentArrayPosition += 2;\n            }\n        }\n\n        // Dig\n        for (uint256 i = 0; i < playersInQueue.length; i++) {\n            if (\n                QUEUE.submissionAction(queueID, playersInQueue[i]) ==\n                HexplorationQueue.Action.Dig\n            ) {\n                stringReturn[currentArrayPosition] = \"Dig\";\n                stringReturn[currentArrayPosition + 1] = \"\";\n                currentArrayPosition += 2;\n            }\n        }\n\n        //Rest\n        for (uint256 i = 0; i < playersInQueue.length; i++) {\n            if (\n                QUEUE.submissionAction(queueID, playersInQueue[i]) ==\n                HexplorationQueue.Action.Rest\n            ) {\n                stringReturn[currentArrayPosition] = \"Rest\";\n                stringReturn[currentArrayPosition + 1] = QUEUE\n                    .submissionOptions(queueID, playersInQueue[i], 0);\n                currentArrayPosition += 2;\n            }\n        }\n\n        // Help\n        for (uint256 i = 0; i < playersInQueue.length; i++) {\n            if (\n                QUEUE.submissionAction(queueID, playersInQueue[i]) ==\n                HexplorationQueue.Action.Help\n            ) {\n                stringReturn[currentArrayPosition] = \"Help\";\n                stringReturn[currentArrayPosition + 1] = QUEUE\n                    .submissionOptions(queueID, playersInQueue[i], 0);\n                currentArrayPosition += 2;\n            }\n        }\n        // set movement zones\n        return stringReturn;\n*/\n    function dig(uint256 queueID, uint256 playerID)\n        public\n        view\n        returns (string memory cardType)\n    {\n        // if digging available...\n        // roll dice (d6) for each player on space not resting\n        // if sum of rolls is greater than 5 during night win treasure\n        // if sum of rolls is greater than 4 during day win treasure\n        // return \"Treasure\" or \"Ambush\"\n    }\n\n    function drawCard(\n        string memory cardType,\n        uint256 queueID,\n        uint256 playerID\n    )\n        internal\n        view\n        returns (\n            string memory card,\n            int8 movementAdjust,\n            int8 agilityAdjust,\n            int8 dexterityAdjust,\n            string memory itemTypeLoss,\n            string memory itemTypeGain,\n            string memory handLoss,\n            int256 movementX,\n            int256 movementY\n        )\n    {\n        // get randomness from queue  QUEUE.randomness(queueID)\n        // outputs should match up with what's returned from deck draw\n        if (stringsMatch(cardType, \"Treasure\")) {\n            // draw from treasure deck\n        } else if (stringsMatch(cardType, \"Ambush\")) {\n            // draw from ambush deck\n        } else if (stringsMatch(cardType, \"Event\")) {\n            // draw from event deck\n        }\n    }\n\n    function rollDice(\n        uint256 queueID,\n        uint256[] memory diceValues,\n        uint256 diceQty\n    ) internal view returns (uint256) {\n        uint256 rollTotal = 0;\n        // roll dice quantity amount of times\n        // each roll, select a number between 0 - diceValues.length - 1\n        // add up value at diceValues[rollResult]\n        return rollTotal;\n    }\n\n    // Utilities\n    function stringsMatch(string memory s1, string memory s2)\n        internal\n        pure\n        returns (bool)\n    {\n        return\n            keccak256(abi.encodePacked(s1)) == keccak256(abi.encodePacked(s2));\n    }\n\n    // returns a - b or 0 if negative;\n    function subToZero(uint256 a, uint256 b)\n        internal\n        pure\n        returns (uint256 difference)\n    {\n        difference = a > b ? a - b : 0;\n    }\n\n    function absoluteValue(int256 x) internal pure returns (uint256 absX) {\n        absX = x >= 0 ? uint256(x) : uint256(-x);\n    }\n}\n\n// What is processing?\n// take all moves from batch, verify are valid moves, and\n// return list of final moves to process\n// keeper will post list of final moves to contract,\n//// *shouldn't be able to fail if it got this far\n// moves that failed pre-check will be returned as another list that will get logged in an event\n\n// Initial thoughts for scaling...\n// figure out most expensive move and only do as many as can be safely completed\n// in one transaction\n// start at currentQueuePosition\n// after each move is processed currentQueuePosition++\n// on after final batch, switch day / night and\n// set QUEUE.setPhase(HexplorationQueue.ProcessingPhase.PlayThrough, queueID);\n",
  "sourcePath": "/Users/maxmeier/Developer/Lucky Machines/hexploration/contracts/HexplorationGameplay.sol",
  "compiler": {
    "name": "solc",
    "version": "0.8.11+commit.d7f03943.Emscripten.clang"
  },
  "schemaVersion": "3.4.4",
  "updatedAt": "2022-05-25T17:09:14.943Z",
  "devdoc": {
    "kind": "dev",
    "methods": {
      "getRoleAdmin(bytes32)": {
        "details": "Returns the admin role that controls `role`. See {grantRole} and {revokeRole}. To change a role's admin, use {_setRoleAdmin}."
      },
      "getRoleMember(bytes32,uint256)": {
        "details": "Returns one of the accounts that have `role`. `index` must be a value between 0 and {getRoleMemberCount}, non-inclusive. Role bearers are not sorted in any particular way, and their ordering may change at any point. WARNING: When using {getRoleMember} and {getRoleMemberCount}, make sure you perform all queries on the same block. See the following https://forum.openzeppelin.com/t/iterating-over-elements-on-enumerableset-in-openzeppelin-contracts/2296[forum post] for more information."
      },
      "getRoleMemberCount(bytes32)": {
        "details": "Returns the number of accounts that have `role`. Can be used together with {getRoleMember} to enumerate all bearers of a role."
      },
      "grantRole(bytes32,address)": {
        "details": "Grants `role` to `account`. If `account` had not been already granted `role`, emits a {RoleGranted} event. Requirements: - the caller must have ``role``'s admin role."
      },
      "hasRole(bytes32,address)": {
        "details": "Returns `true` if `account` has been granted `role`."
      },
      "performUpkeep(bytes)": {
        "details": "The input to this method should not be trusted, and the caller of the method should not even be restricted to any single registry. Anyone should be able call it, and the input should be validated, there is no guarantee that the data passed in is the performData returned from checkUpkeep. This could happen due to malicious keepers, racing keepers, or simply a state change while the performUpkeep transaction is waiting for confirmation. Always validate the data passed in.",
        "params": {
          "performData": "is the data which was passed back from the checkData simulation. If it is encoded, it can easily be decoded into other types by calling `abi.decode`. This data should not be trusted, and should be validated against the contract's current state."
        }
      },
      "renounceRole(bytes32,address)": {
        "details": "Revokes `role` from the calling account. Roles are often managed via {grantRole} and {revokeRole}: this function's purpose is to provide a mechanism for accounts to lose their privileges if they are compromised (such as when a trusted device is misplaced). If the calling account had been revoked `role`, emits a {RoleRevoked} event. Requirements: - the caller must be `account`."
      },
      "revokeRole(bytes32,address)": {
        "details": "Revokes `role` from `account`. If `account` had been granted `role`, emits a {RoleRevoked} event. Requirements: - the caller must have ``role``'s admin role."
      },
      "supportsInterface(bytes4)": {
        "details": "See {IERC165-supportsInterface}."
      }
    },
    "version": 1
  },
  "userdoc": {
    "kind": "user",
    "methods": {
      "performUpkeep(bytes)": {
        "notice": "method that is actually executed by the keepers, via the registry. The data returned by the checkUpkeep simulation will be passed into this method to actually be executed."
      }
    },
    "version": 1
  }
}