{
  "contractName": "HexplorationController",
  "abi": [
    {
      "inputs": [
        {
          "internalType": "address",
          "name": "adminAddress",
          "type": "address"
        }
      ],
      "stateMutability": "nonpayable",
      "type": "constructor"
    },
    {
      "anonymous": false,
      "inputs": [
        {
          "indexed": true,
          "internalType": "bytes32",
          "name": "role",
          "type": "bytes32"
        },
        {
          "indexed": true,
          "internalType": "bytes32",
          "name": "previousAdminRole",
          "type": "bytes32"
        },
        {
          "indexed": true,
          "internalType": "bytes32",
          "name": "newAdminRole",
          "type": "bytes32"
        }
      ],
      "name": "RoleAdminChanged",
      "type": "event"
    },
    {
      "anonymous": false,
      "inputs": [
        {
          "indexed": true,
          "internalType": "bytes32",
          "name": "role",
          "type": "bytes32"
        },
        {
          "indexed": true,
          "internalType": "address",
          "name": "account",
          "type": "address"
        },
        {
          "indexed": true,
          "internalType": "address",
          "name": "sender",
          "type": "address"
        }
      ],
      "name": "RoleGranted",
      "type": "event"
    },
    {
      "anonymous": false,
      "inputs": [
        {
          "indexed": true,
          "internalType": "bytes32",
          "name": "role",
          "type": "bytes32"
        },
        {
          "indexed": true,
          "internalType": "address",
          "name": "account",
          "type": "address"
        },
        {
          "indexed": true,
          "internalType": "address",
          "name": "sender",
          "type": "address"
        }
      ],
      "name": "RoleRevoked",
      "type": "event"
    },
    {
      "inputs": [],
      "name": "DEFAULT_ADMIN_ROLE",
      "outputs": [
        {
          "internalType": "bytes32",
          "name": "",
          "type": "bytes32"
        }
      ],
      "stateMutability": "view",
      "type": "function",
      "constant": true
    },
    {
      "inputs": [],
      "name": "VERIFIED_CONTROLLER_ROLE",
      "outputs": [
        {
          "internalType": "bytes32",
          "name": "",
          "type": "bytes32"
        }
      ],
      "stateMutability": "view",
      "type": "function",
      "constant": true
    },
    {
      "inputs": [
        {
          "internalType": "uint256",
          "name": "pathIndex",
          "type": "uint256"
        },
        {
          "internalType": "uint256",
          "name": "gameID",
          "type": "uint256"
        },
        {
          "internalType": "address",
          "name": "gameBoardAddress",
          "type": "address"
        }
      ],
      "name": "exitToPath",
      "outputs": [],
      "stateMutability": "nonpayable",
      "type": "function"
    },
    {
      "inputs": [
        {
          "internalType": "bytes32",
          "name": "role",
          "type": "bytes32"
        }
      ],
      "name": "getRoleAdmin",
      "outputs": [
        {
          "internalType": "bytes32",
          "name": "",
          "type": "bytes32"
        }
      ],
      "stateMutability": "view",
      "type": "function",
      "constant": true
    },
    {
      "inputs": [
        {
          "internalType": "bytes32",
          "name": "role",
          "type": "bytes32"
        },
        {
          "internalType": "uint256",
          "name": "index",
          "type": "uint256"
        }
      ],
      "name": "getRoleMember",
      "outputs": [
        {
          "internalType": "address",
          "name": "",
          "type": "address"
        }
      ],
      "stateMutability": "view",
      "type": "function",
      "constant": true
    },
    {
      "inputs": [
        {
          "internalType": "bytes32",
          "name": "role",
          "type": "bytes32"
        }
      ],
      "name": "getRoleMemberCount",
      "outputs": [
        {
          "internalType": "uint256",
          "name": "",
          "type": "uint256"
        }
      ],
      "stateMutability": "view",
      "type": "function",
      "constant": true
    },
    {
      "inputs": [
        {
          "internalType": "bytes32",
          "name": "role",
          "type": "bytes32"
        },
        {
          "internalType": "address",
          "name": "account",
          "type": "address"
        }
      ],
      "name": "grantRole",
      "outputs": [],
      "stateMutability": "nonpayable",
      "type": "function"
    },
    {
      "inputs": [
        {
          "internalType": "bytes32",
          "name": "role",
          "type": "bytes32"
        },
        {
          "internalType": "address",
          "name": "account",
          "type": "address"
        }
      ],
      "name": "hasRole",
      "outputs": [
        {
          "internalType": "bool",
          "name": "",
          "type": "bool"
        }
      ],
      "stateMutability": "view",
      "type": "function",
      "constant": true
    },
    {
      "inputs": [
        {
          "internalType": "bytes32",
          "name": "role",
          "type": "bytes32"
        },
        {
          "internalType": "address",
          "name": "account",
          "type": "address"
        }
      ],
      "name": "renounceRole",
      "outputs": [],
      "stateMutability": "nonpayable",
      "type": "function"
    },
    {
      "inputs": [
        {
          "internalType": "bytes32",
          "name": "role",
          "type": "bytes32"
        },
        {
          "internalType": "address",
          "name": "account",
          "type": "address"
        }
      ],
      "name": "revokeRole",
      "outputs": [],
      "stateMutability": "nonpayable",
      "type": "function"
    },
    {
      "inputs": [
        {
          "internalType": "bytes4",
          "name": "interfaceId",
          "type": "bytes4"
        }
      ],
      "name": "supportsInterface",
      "outputs": [
        {
          "internalType": "bool",
          "name": "",
          "type": "bool"
        }
      ],
      "stateMutability": "view",
      "type": "function",
      "constant": true
    },
    {
      "inputs": [
        {
          "internalType": "address",
          "name": "gsuAddress",
          "type": "address"
        }
      ],
      "name": "setGameStateUpdate",
      "outputs": [],
      "stateMutability": "nonpayable",
      "type": "function"
    },
    {
      "inputs": [
        {
          "internalType": "address",
          "name": "vcAddress",
          "type": "address"
        }
      ],
      "name": "addVerifiedController",
      "outputs": [],
      "stateMutability": "nonpayable",
      "type": "function"
    },
    {
      "inputs": [
        {
          "internalType": "address",
          "name": "boardAddress",
          "type": "address"
        }
      ],
      "name": "runBoardUpdate",
      "outputs": [],
      "stateMutability": "nonpayable",
      "type": "function"
    },
    {
      "inputs": [
        {
          "internalType": "uint256",
          "name": "gameID",
          "type": "uint256"
        },
        {
          "internalType": "address",
          "name": "boardAddress",
          "type": "address"
        }
      ],
      "name": "startGame",
      "outputs": [],
      "stateMutability": "nonpayable",
      "type": "function"
    },
    {
      "inputs": [
        {
          "internalType": "string[]",
          "name": "zonePath",
          "type": "string[]"
        },
        {
          "internalType": "uint256",
          "name": "gameID",
          "type": "uint256"
        },
        {
          "internalType": "address",
          "name": "boardAddress",
          "type": "address"
        }
      ],
      "name": "moveThroughPath",
      "outputs": [],
      "stateMutability": "nonpayable",
      "type": "function"
    },
    {
      "inputs": [
        {
          "internalType": "uint256",
          "name": "gameID",
          "type": "uint256"
        },
        {
          "internalType": "address",
          "name": "boardAddress",
          "type": "address"
        }
      ],
      "name": "registerForGame",
      "outputs": [],
      "stateMutability": "nonpayable",
      "type": "function"
    },
    {
      "inputs": [
        {
          "internalType": "uint256",
          "name": "playerID",
          "type": "uint256"
        },
        {
          "internalType": "uint8",
          "name": "actionIndex",
          "type": "uint8"
        },
        {
          "internalType": "string[]",
          "name": "options",
          "type": "string[]"
        },
        {
          "internalType": "string",
          "name": "leftHand",
          "type": "string"
        },
        {
          "internalType": "string",
          "name": "rightHand",
          "type": "string"
        },
        {
          "internalType": "uint256",
          "name": "gameID",
          "type": "uint256"
        },
        {
          "internalType": "address",
          "name": "boardAddress",
          "type": "address"
        }
      ],
      "name": "submitAction",
      "outputs": [],
      "stateMutability": "nonpayable",
      "type": "function"
    },
    {
      "inputs": [
        {
          "internalType": "string",
          "name": "zoneChoice",
          "type": "string"
        },
        {
          "internalType": "uint256",
          "name": "gameID",
          "type": "uint256"
        },
        {
          "internalType": "address",
          "name": "boardAddress",
          "type": "address"
        }
      ],
      "name": "chooseLandingSite",
      "outputs": [],
      "stateMutability": "nonpayable",
      "type": "function"
    },
    {
      "inputs": [
        {
          "internalType": "address",
          "name": "gameRegistryAddress",
          "type": "address"
        },
        {
          "internalType": "address",
          "name": "boardAddress",
          "type": "address"
        }
      ],
      "name": "requestNewGame",
      "outputs": [],
      "stateMutability": "nonpayable",
      "type": "function"
    },
    {
      "inputs": [
        {
          "internalType": "address",
          "name": "gameRegistryAddress",
          "type": "address"
        },
        {
          "internalType": "address",
          "name": "boardAddress",
          "type": "address"
        }
      ],
      "name": "latestGame",
      "outputs": [
        {
          "internalType": "uint256",
          "name": "",
          "type": "uint256"
        }
      ],
      "stateMutability": "view",
      "type": "function",
      "constant": true
    }
  ],
  "bytecode": "0x60806040523480156200001157600080fd5b50604051620061f1380380620061f1833981016040819052620000349162000215565b806200004b60008264010000000062000053810204565b505062000247565b6200006882826401000000006200006c810204565b5050565b62000086828264010000000062004f92620000b382021704565b6000828152600160205260409020620000ae9082640100000000620050166200014f82021704565b505050565b620000c8828264010000000062000178810204565b6200006857600082815260208181526040808320600160a060020a03851684529091529020805460ff191660011790556200010b640100000000620001a1810204565b600160a060020a031681600160a060020a0316837f2f8788117e7eff1d82e926ec794901d17c78024a50270940304540a733656f0d60405160405180910390a45050565b60006200016f83600160a060020a038416640100000000620001a5810204565b90505b92915050565b600091825260208281526040808420600160a060020a0393909316845291905290205460ff1690565b3390565b6000620001bc8383640100000000620001fd810204565b620001f45750815460018181018455600084815260208082209093018490558454848252828601909352604090209190915562000172565b50600062000172565b60009081526001919091016020526040902054151590565b6000602082840312156200022857600080fd5b8151600160a060020a03811681146200024057600080fd5b9392505050565b615f9a80620002576000396000f3fe608060405234801561001057600080fd5b506004361061013b5760003560e060020a900480639010d07c116100bc578063c3ef701311610080578063c3ef701314610296578063ca15c873146102a9578063d4f5b152146102bc578063d547741f146102cf578063e506675d146102e2578063f3297df9146102f557600080fd5b80639010d07c1461023557806391d1485414610255578063975eef2614610268578063a217fddf1461027b578063a605e7ae1461028357600080fd5b806336568abe1161010357806336568abe146101d65780634bde808c146101e9578063621cc08d146101fc578063661e05661461020f5780637479c8fe1461022257600080fd5b806301ffc9a7146101405780631c834a7f14610168578063248a9ca31461018b57806329a461d6146101ae5780632f2ff15d146101c3575b600080fd5b61015361014e366004615548565b610308565b60405190151581526020015b60405180910390f35b61017d600080516020615f4583398151915281565b60405190815260200161015f565b61017d610199366004615572565b60009081526020819052604090206001015490565b6101c16101bc3660046155b0565b61034c565b005b6101c16101d13660046155b0565b6104c6565b6101c16101e43660046155b0565b6104f0565b6101c16101f7366004615746565b610584565b6101c161020a3660046155b0565b610818565b6101c161021d3660046157a1565b6146c8565b6101c16102303660046157cf565b61470f565b6102486102433660046157fd565b6147a6565b60405161015f919061581f565b6101536102633660046155b0565b6147c5565b61017d6102763660046157a1565b6147ee565b61017d600081565b6101c1610291366004615833565b614877565b6101c16102a4366004615833565b6148b2565b61017d6102b7366004615572565b614953565b6101c16102ca366004615833565b61496a565b6101c16102dd3660046155b0565b61498d565b6101c16102f0366004615850565b6149b2565b6101c1610303366004615915565b614d96565b6000600160e060020a031982167f5a05180f00000000000000000000000000000000000000000000000000000000148061034657506103468261502b565b92915050565b6040517f9aabe36d000000000000000000000000000000000000000000000000000000008152336004820152602481018390528190600160a060020a03821690639aabe36d90604401600060405180830381600087803b1580156103af57600080fd5b505af11580156103c3573d6000803e3d6000fd5b5050505080600160a060020a031663a0ed600d6040518163ffffffff1660e060020a028152600401602060405180830381865afa158015610408573d6000803e3d6000fd5b505050506040513d601f19601f8201168201806040525081019061042c919061594d565b6040805160608101825260048082526020820181905281830181905291517ff5386d70000000000000000000000000000000000000000000000000000000008152600160a060020a03939093169263f5386d709261048f9291889133910161596a565b600060405180830381600087803b1580156104a957600080fd5b505af11580156104bd573d6000803e3d6000fd5b50505050505050565b6000828152602081905260409020600101546104e181615092565b6104eb838361509f565b505050565b600160a060020a03811633146105765760405160e560020a62461bcd02815260206004820152602f60248201527f416363657373436f6e74726f6c3a2063616e206f6e6c792072656e6f756e636560448201527f20726f6c657320666f722073656c66000000000000000000000000000000000060648201526084015b60405180910390fd5b61058082826150c1565b5050565b61058f6000336147c5565b806105ad57506105ad600080516020615f45833981519152336147c5565b6105cc5760405160e560020a62461bcd02815260040161056d906159b5565b6000819050600081600160a060020a031663c06dea4e6040518163ffffffff1660e060020a028152600401602060405180830381865afa158015610614573d6000803e3d6000fd5b505050506040513d601f19601f82011682018060405250810190610638919061594d565b60405160e360020a631703edc302815260048101869052336024820152909150600160a060020a0382169063b81f6e1890604401602060405180830381865afa158015610689573d6000803e3d6000fd5b505050506040513d601f19601f820116820180604052508101906106ad91906159ec565b6106cc5760405160e560020a62461bcd02815260040161056d90615a0e565b6000855167ffffffffffffffff8111156106e8576106e86155e0565b604051908082528060200260200182016040528015610711578160200160208202803683370190505b50905060005b865181101561079257801561073c578060011461073557600461073f565b600261073f565b60015b82828151811061075157610751615a45565b6020026020010190600b81111561076a5761076a615a5e565b9081600b81111561077d5761077d615a5e565b9052508061078a81615a90565b915050610717565b506040517f31e019f6000000000000000000000000000000000000000000000000000000008152600160a060020a038516906331e019f6906107de90899033908a908790600401615b7c565b600060405180830381600087803b1580156107f857600080fd5b505af115801561080c573d6000803e3d6000fd5b50505050505050505050565b6108236000336147c5565b806108415750610841600080516020615f45833981519152336147c5565b6108605760405160e560020a62461bcd02815260040161056d906159b5565b6040517f4e0e1a3e000000000000000000000000000000000000000000000000000000008152600481018390528190600160a060020a03821690634e0e1a3e90602401602060405180830381865afa1580156108c0573d6000803e3d6000fd5b505050506040513d601f19601f820116820180604052508101906108e49190615bf2565b156109345760405160e560020a62461bcd02815260206004820152601460248201527f67616d6520616c72656164792073746172746564000000000000000000000000604482015260640161056d565b600081600160a060020a031663c06dea4e6040518163ffffffff1660e060020a028152600401602060405180830381865afa158015610977573d6000803e3d6000fd5b505050506040513d601f19601f8201168201806040525081019061099b919061594d565b6040517f60c2050000000000000000000000000000000000000000000000000000000000815260048101869052909150600160a060020a038316906360c2050090602401600060405180830381600087803b1580156109f957600080fd5b505af1158015610a0d573d6000803e3d6000fd5b50506040517fb77ff4110000000000000000000000000000000000000000000000000000000081526004810187905260009250600160a060020a038416915063b77ff41190602401602060405180830381865afa158015610a72573d6000803e3d6000fd5b505050506040513d601f19601f82011682018060405250810190610a969190615bf2565b6040517feb33983d00000000000000000000000000000000000000000000000000000000815260048101879052909150600090600160a060020a0385169063eb33983d90602401600060405180830381865afa158015610afa573d6000803e3d6000fd5b505050506040513d6000823e601f3d908101601f19168201604052610b229190810190615c0b565b9050600084600160a060020a031663cca369966040518163ffffffff1660e060020a028152600401602060405180830381865afa158015610b67573d6000803e3d6000fd5b505050506040513d601f19601f82011682018060405250810190610b8b919061594d565b905080600160a060020a031663a906dfd16040518163ffffffff1660e060020a028152600401602060405180830381865afa158015610bce573d6000803e3d6000fd5b505050506040513d601f19601f82011682018060405250810190610bf2919061594d565b600160a060020a0316631c635ded8860016040518363ffffffff1660e060020a028152600401610c23929190615cb2565b600060405180830381600087803b158015610c3d57600080fd5b505af1158015610c51573d6000803e3d6000fd5b5050505080600160a060020a031663a906dfd16040518163ffffffff1660e060020a028152600401602060405180830381865afa158015610c96573d6000803e3d6000fd5b505050506040513d601f19601f82011682018060405250810190610cba919061594d565b60405160e060020a631c635ded02815260606004820152600560648201527f4e6967687400000000000000000000000000000000000000000000000000000060848201526024810189905260016044820152600160a060020a039190911690631c635ded9060a401600060405180830381600087803b158015610d3c57600080fd5b505af1158015610d50573d6000803e3d6000fd5b5050505080600160a060020a0316632ee0804a6040518163ffffffff1660e060020a028152600401602060405180830381865afa158015610d95573d6000803e3d6000fd5b505050506040513d601f19601f82011682018060405250810190610db9919061594d565b60405160e060020a631c635ded02815260606004820152600a60648201527f45617274687175616b65000000000000000000000000000000000000000000006084820152602481018990526103e86044820152600160a060020a039190911690631c635ded9060a401600060405180830381600087803b158015610e3c57600080fd5b505af1158015610e50573d6000803e3d6000fd5b5050505080600160a060020a0316632ee0804a6040518163ffffffff1660e060020a028152600401602060405180830381865afa158015610e95573d6000803e3d6000fd5b505050506040513d601f19601f82011682018060405250810190610eb9919061594d565b60405160e060020a631c635ded02815260606004820152600760648201527f566f6c63616e6f000000000000000000000000000000000000000000000000006084820152602481018990526103e86044820152600160a060020a039190911690631c635ded9060a401600060405180830381600087803b158015610f3c57600080fd5b505af1158015610f50573d6000803e3d6000fd5b5050505080600160a060020a0316632b2145336040518163ffffffff1660e060020a028152600401602060405180830381865afa158015610f95573d6000803e3d6000fd5b505050506040513d601f19601f82011682018060405250810190610fb9919061594d565b60405160e060020a631c635ded02815260606004820152600660648201527f50697261746500000000000000000000000000000000000000000000000000006084820152602481018990526103e86044820152600160a060020a039190911690631c635ded9060a401600060405180830381600087803b15801561103c57600080fd5b505af1158015611050573d6000803e3d6000fd5b5050505080600160a060020a0316632b2145336040518163ffffffff1660e060020a028152600401602060405180830381865afa158015611095573d6000803e3d6000fd5b505050506040513d601f19601f820116820180604052508101906110b9919061594d565b60405160e060020a631c635ded02815260606004820152600b60648201527f50697261746520536869700000000000000000000000000000000000000000006084820152602481018990526103e86044820152600160a060020a039190911690631c635ded9060a401600060405180830381600087803b15801561113c57600080fd5b505af1158015611150573d6000803e3d6000fd5b5050505080600160a060020a0316632b2145336040518163ffffffff1660e060020a028152600401602060405180830381865afa158015611195573d6000803e3d6000fd5b505050506040513d601f19601f820116820180604052508101906111b9919061594d565b60405160e060020a631c635ded02815260606004820152600860648201527f4465617468626f740000000000000000000000000000000000000000000000006084820152602481018990526103e86044820152600160a060020a039190911690631c635ded9060a401600060405180830381600087803b15801561123c57600080fd5b505af1158015611250573d6000803e3d6000fd5b5050505080600160a060020a0316632b2145336040518163ffffffff1660e060020a028152600401602060405180830381865afa158015611295573d6000803e3d6000fd5b505050506040513d601f19601f820116820180604052508101906112b9919061594d565b60405160e060020a631c635ded02815260606004820152600860648201527f477561726469616e0000000000000000000000000000000000000000000000006084820152602481018990526103e86044820152600160a060020a039190911690631c635ded9060a401600060405180830381600087803b15801561133c57600080fd5b505af1158015611350573d6000803e3d6000fd5b5050505080600160a060020a0316632b2145336040518163ffffffff1660e060020a028152600401602060405180830381865afa158015611395573d6000803e3d6000fd5b505050506040513d601f19601f820116820180604052508101906113b9919061594d565b60405160e060020a631c635ded02815260606004820152600860648201527f53616e64776f726d0000000000000000000000000000000000000000000000006084820152602481018990526103e86044820152600160a060020a039190911690631c635ded9060a401600060405180830381600087803b15801561143c57600080fd5b505af1158015611450573d6000803e3d6000fd5b5050505080600160a060020a0316632b2145336040518163ffffffff1660e060020a028152600401602060405180830381865afa158015611495573d6000803e3d6000fd5b505050506040513d601f19601f820116820180604052508101906114b9919061594d565b60405160e060020a631c635ded02815260606004820152600660648201527f447261676f6e00000000000000000000000000000000000000000000000000006084820152602481018990526103e86044820152600160a060020a039190911690631c635ded9060a401600060405180830381600087803b15801561153c57600080fd5b505af1158015611550573d6000803e3d6000fd5b5050505080600160a060020a031663a318d45c6040518163ffffffff1660e060020a028152600401602060405180830381865afa158015611595573d6000803e3d6000fd5b505050506040513d601f19601f820116820180604052508101906115b9919061594d565b60405160e060020a631c635ded02815260606004820152600a60648201527f536d616c6c20416d6d6f000000000000000000000000000000000000000000006084820152602481018990526103e86044820152600160a060020a039190911690631c635ded9060a401600060405180830381600087803b15801561163c57600080fd5b505af1158015611650573d6000803e3d6000fd5b5050505080600160a060020a031663a318d45c6040518163ffffffff1660e060020a028152600401602060405180830381865afa158015611695573d6000803e3d6000fd5b505050506040513d601f19601f820116820180604052508101906116b9919061594d565b60405160e060020a631c635ded02815260606004820152600a60648201527f4c6172676520416d6d6f000000000000000000000000000000000000000000006084820152602481018990526103e86044820152600160a060020a039190911690631c635ded9060a401600060405180830381600087803b15801561173c57600080fd5b505af1158015611750573d6000803e3d6000fd5b5050505080600160a060020a031663a318d45c6040518163ffffffff1660e060020a028152600401602060405180830381865afa158015611795573d6000803e3d6000fd5b505050506040513d601f19601f820116820180604052508101906117b9919061594d565b60405160e060020a631c635ded02815260606004820152600960648201527f42617474657269657300000000000000000000000000000000000000000000006084820152602481018990526103e86044820152600160a060020a039190911690631c635ded9060a401600060405180830381600087803b15801561183c57600080fd5b505af1158015611850573d6000803e3d6000fd5b5050505080600160a060020a031663a318d45c6040518163ffffffff1660e060020a028152600401602060405180830381865afa158015611895573d6000803e3d6000fd5b505050506040513d601f19601f820116820180604052508101906118b9919061594d565b60405160e060020a631c635ded02815260606004820152600660648201527f536869656c6400000000000000000000000000000000000000000000000000006084820152602481018990526103e86044820152600160a060020a039190911690631c635ded9060a401600060405180830381600087803b15801561193c57600080fd5b505af1158015611950573d6000803e3d6000fd5b5050505080600160a060020a031663a318d45c6040518163ffffffff1660e060020a028152600401602060405180830381865afa158015611995573d6000803e3d6000fd5b505050506040513d601f19601f820116820180604052508101906119b9919061594d565b60405160e060020a631c635ded02815260606004820152600660648201527f506f7274616c00000000000000000000000000000000000000000000000000006084820152602481018990526103e86044820152600160a060020a039190911690631c635ded9060a401600060405180830381600087803b158015611a3c57600080fd5b505af1158015611a50573d6000803e3d6000fd5b5050505080600160a060020a031663a318d45c6040518163ffffffff1660e060020a028152600401602060405180830381865afa158015611a95573d6000803e3d6000fd5b505050506040513d601f19601f82011682018060405250810190611ab9919061594d565b60405160e060020a631c635ded02815260606004820152600260648201527f4f6e0000000000000000000000000000000000000000000000000000000000006084820152602481018990526103e86044820152600160a060020a039190911690631c635ded9060a401600060405180830381600087803b158015611b3c57600080fd5b505af1158015611b50573d6000803e3d6000fd5b5050505080600160a060020a031663a318d45c6040518163ffffffff1660e060020a028152600401602060405180830381865afa158015611b95573d6000803e3d6000fd5b505050506040513d601f19601f82011682018060405250810190611bb9919061594d565b60405160e060020a631c635ded02815260606004820152600360648201527f4f666600000000000000000000000000000000000000000000000000000000006084820152602481018990526103e86044820152600160a060020a039190911690631c635ded9060a401600060405180830381600087803b158015611c3c57600080fd5b505af1158015611c50573d6000803e3d6000fd5b5050505080600160a060020a031663a318d45c6040518163ffffffff1660e060020a028152600401602060405180830381865afa158015611c95573d6000803e3d6000fd5b505050506040513d601f19601f82011682018060405250810190611cb9919061594d565b60405160e060020a631c635ded02815260606004820152600c60648201527f52757374792044616767657200000000000000000000000000000000000000006084820152602481018990526103e86044820152600160a060020a039190911690631c635ded9060a401600060405180830381600087803b158015611d3c57600080fd5b505af1158015611d50573d6000803e3d6000fd5b5050505080600160a060020a031663a318d45c6040518163ffffffff1660e060020a028152600401602060405180830381865afa158015611d95573d6000803e3d6000fd5b505050506040513d601f19601f82011682018060405250810190611db9919061594d565b60405160e060020a631c635ded02815260606004820152600b60648201527f52757374792053776f72640000000000000000000000000000000000000000006084820152602481018990526103e86044820152600160a060020a039190911690631c635ded9060a401600060405180830381600087803b158015611e3c57600080fd5b505af1158015611e50573d6000803e3d6000fd5b5050505080600160a060020a031663a318d45c6040518163ffffffff1660e060020a028152600401602060405180830381865afa158015611e95573d6000803e3d6000fd5b505050506040513d601f19601f82011682018060405250810190611eb9919061594d565b60405160e060020a631c635ded02815260606004820152600c60648201527f527573747920506973746f6c00000000000000000000000000000000000000006084820152602481018990526103e86044820152600160a060020a039190911690631c635ded9060a401600060405180830381600087803b158015611f3c57600080fd5b505af1158015611f50573d6000803e3d6000fd5b5050505080600160a060020a031663a318d45c6040518163ffffffff1660e060020a028152600401602060405180830381865afa158015611f95573d6000803e3d6000fd5b505050506040513d601f19601f82011682018060405250810190611fb9919061594d565b60405160e060020a631c635ded02815260606004820152600b60648201527f5275737479205269666c650000000000000000000000000000000000000000006084820152602481018990526103e86044820152600160a060020a039190911690631c635ded9060a401600060405180830381600087803b15801561203c57600080fd5b505af1158015612050573d6000803e3d6000fd5b5050505080600160a060020a031663a318d45c6040518163ffffffff1660e060020a028152600401602060405180830381865afa158015612095573d6000803e3d6000fd5b505050506040513d601f19601f820116820180604052508101906120b9919061594d565b60405160e060020a631c635ded02815260606004820152600c60648201527f5368696e792044616767657200000000000000000000000000000000000000006084820152602481018990526103e86044820152600160a060020a039190911690631c635ded9060a401600060405180830381600087803b15801561213c57600080fd5b505af1158015612150573d6000803e3d6000fd5b5050505080600160a060020a031663a318d45c6040518163ffffffff1660e060020a028152600401602060405180830381865afa158015612195573d6000803e3d6000fd5b505050506040513d601f19601f820116820180604052508101906121b9919061594d565b60405160e060020a631c635ded02815260606004820152600b60648201527f5368696e792053776f72640000000000000000000000000000000000000000006084820152602481018990526103e86044820152600160a060020a039190911690631c635ded9060a401600060405180830381600087803b15801561223c57600080fd5b505af1158015612250573d6000803e3d6000fd5b5050505080600160a060020a031663a318d45c6040518163ffffffff1660e060020a028152600401602060405180830381865afa158015612295573d6000803e3d6000fd5b505050506040513d601f19601f820116820180604052508101906122b9919061594d565b60405160e060020a631c635ded02815260606004820152600b60648201527f5368696e79205269666c650000000000000000000000000000000000000000006084820152602481018990526103e86044820152600160a060020a039190911690631c635ded9060a401600060405180830381600087803b15801561233c57600080fd5b505af1158015612350573d6000803e3d6000fd5b5050505080600160a060020a031663a318d45c6040518163ffffffff1660e060020a028152600401602060405180830381865afa158015612395573d6000803e3d6000fd5b505050506040513d601f19601f820116820180604052508101906123b9919061594d565b60405160e060020a631c635ded02815260606004820152600c60648201527f4c617365722044616767657200000000000000000000000000000000000000006084820152602481018990526103e86044820152600160a060020a039190911690631c635ded9060a401600060405180830381600087803b15801561243c57600080fd5b505af1158015612450573d6000803e3d6000fd5b5050505080600160a060020a031663a318d45c6040518163ffffffff1660e060020a028152600401602060405180830381865afa158015612495573d6000803e3d6000fd5b505050506040513d601f19601f820116820180604052508101906124b9919061594d565b60405160e060020a631c635ded02815260606004820152600b60648201527f4c617365722053776f72640000000000000000000000000000000000000000006084820152602481018990526103e86044820152600160a060020a039190911690631c635ded9060a401600060405180830381600087803b15801561253c57600080fd5b505af1158015612550573d6000803e3d6000fd5b5050505080600160a060020a031663a318d45c6040518163ffffffff1660e060020a028152600401602060405180830381865afa158015612595573d6000803e3d6000fd5b505050506040513d601f19601f820116820180604052508101906125b9919061594d565b60405160e060020a631c635ded02815260606004820152600c60648201527f4c6173657220506973746f6c00000000000000000000000000000000000000006084820152602481018990526103e86044820152600160a060020a039190911690631c635ded9060a401600060405180830381600087803b15801561263c57600080fd5b505af1158015612650573d6000803e3d6000fd5b5050505080600160a060020a031663a318d45c6040518163ffffffff1660e060020a028152600401602060405180830381865afa158015612695573d6000803e3d6000fd5b505050506040513d601f19601f820116820180604052508101906126b9919061594d565b60405160e060020a631c635ded02815260606004820152600b60648201527f4c61736572205269666c650000000000000000000000000000000000000000006084820152602481018990526103e86044820152600160a060020a039190911690631c635ded9060a401600060405180830381600087803b15801561273c57600080fd5b505af1158015612750573d6000803e3d6000fd5b5050505080600160a060020a031663a318d45c6040518163ffffffff1660e060020a028152600401602060405180830381865afa158015612795573d6000803e3d6000fd5b505050506040513d601f19601f820116820180604052508101906127b9919061594d565b60405160e060020a631c635ded02815260606004820152600a60648201527f476c6f7720737469636b000000000000000000000000000000000000000000006084820152602481018990526103e86044820152600160a060020a039190911690631c635ded9060a401600060405180830381600087803b15801561283c57600080fd5b505af1158015612850573d6000803e3d6000fd5b5050505080600160a060020a031663a318d45c6040518163ffffffff1660e060020a028152600401602060405180830381865afa158015612895573d6000803e3d6000fd5b505050506040513d601f19601f820116820180604052508101906128b9919061594d565b60405160e060020a631c635ded02815260606004820152600a60648201527f466c6173686c69676874000000000000000000000000000000000000000000006084820152602481018990526103e86044820152600160a060020a039190911690631c635ded9060a401600060405180830381600087803b15801561293c57600080fd5b505af1158015612950573d6000803e3d6000fd5b5050505080600160a060020a031663a318d45c6040518163ffffffff1660e060020a028152600401602060405180830381865afa158015612995573d6000803e3d6000fd5b505050506040513d601f19601f820116820180604052508101906129b9919061594d565b60405160e060020a631c635ded02815260606004820152600b60648201527f466c6f6f64206c696768740000000000000000000000000000000000000000006084820152602481018990526103e86044820152600160a060020a039190911690631c635ded9060a401600060405180830381600087803b158015612a3c57600080fd5b505af1158015612a50573d6000803e3d6000fd5b5050505080600160a060020a031663a318d45c6040518163ffffffff1660e060020a028152600401602060405180830381865afa158015612a95573d6000803e3d6000fd5b505050506040513d601f19601f82011682018060405250810190612ab9919061594d565b60405160e060020a631c635ded02815260606004820152601360648201527f4e69676874766973696f6e20476f67676c6573000000000000000000000000006084820152602481018990526103e86044820152600160a060020a039190911690631c635ded9060a401600060405180830381600087803b158015612b3c57600080fd5b505af1158015612b50573d6000803e3d6000fd5b5050505080600160a060020a031663a318d45c6040518163ffffffff1660e060020a028152600401602060405180830381865afa158015612b95573d6000803e3d6000fd5b505050506040513d601f19601f82011682018060405250810190612bb9919061594d565b60405160e060020a631c635ded02815260606004820152600f60648201527f506572736f6e616c20536869656c6400000000000000000000000000000000006084820152602481018990526103e86044820152600160a060020a039190911690631c635ded9060a401600060405180830381600087803b158015612c3c57600080fd5b505af1158015612c50573d6000803e3d6000fd5b5050505080600160a060020a031663a318d45c6040518163ffffffff1660e060020a028152600401602060405180830381865afa158015612c95573d6000803e3d6000fd5b505050506040513d601f19601f82011682018060405250810190612cb9919061594d565b60405160e060020a631c635ded02815260606004820152600d60648201527f427562626c6520536869656c64000000000000000000000000000000000000006084820152602481018990526103e86044820152600160a060020a039190911690631c635ded9060a401600060405180830381600087803b158015612d3c57600080fd5b505af1158015612d50573d6000803e3d6000fd5b5050505080600160a060020a031663a318d45c6040518163ffffffff1660e060020a028152600401602060405180830381865afa158015612d95573d6000803e3d6000fd5b505050506040513d601f19601f82011682018060405250810190612db9919061594d565b60405160e060020a631c635ded02815260606004820152600c60648201527f46726167204772656e61646500000000000000000000000000000000000000006084820152602481018990526103e86044820152600160a060020a039190911690631c635ded9060a401600060405180830381600087803b158015612e3c57600080fd5b505af1158015612e50573d6000803e3d6000fd5b5050505080600160a060020a031663a318d45c6040518163ffffffff1660e060020a028152600401602060405180830381865afa158015612e95573d6000803e3d6000fd5b505050506040513d601f19601f82011682018060405250810190612eb9919061594d565b60405160e060020a631c635ded02815260606004820152600c60648201527f46697265204772656e61646500000000000000000000000000000000000000006084820152602481018990526103e86044820152600160a060020a039190911690631c635ded9060a401600060405180830381600087803b158015612f3c57600080fd5b505af1158015612f50573d6000803e3d6000fd5b5050505080600160a060020a031663a318d45c6040518163ffffffff1660e060020a028152600401602060405180830381865afa158015612f95573d6000803e3d6000fd5b505050506040513d601f19601f82011682018060405250810190612fb9919061594d565b60405160e060020a631c635ded02815260606004820152600d60648201527f53686f636b204772656e616465000000000000000000000000000000000000006084820152602481018990526103e86044820152600160a060020a039190911690631c635ded9060a401600060405180830381600087803b15801561303c57600080fd5b505af1158015613050573d6000803e3d6000fd5b5050505080600160a060020a031663a318d45c6040518163ffffffff1660e060020a028152600401602060405180830381865afa158015613095573d6000803e3d6000fd5b505050506040513d601f19601f820116820180604052508101906130b9919061594d565b60405160e060020a631c635ded02815260606004820152600960648201527f4845204d6f7274617200000000000000000000000000000000000000000000006084820152602481018990526103e86044820152600160a060020a039190911690631c635ded9060a401600060405180830381600087803b15801561313c57600080fd5b505af1158015613150573d6000803e3d6000fd5b5050505080600160a060020a031663a318d45c6040518163ffffffff1660e060020a028152600401602060405180830381865afa158015613195573d6000803e3d6000fd5b505050506040513d601f19601f820116820180604052508101906131b9919061594d565b60405160e060020a631c635ded02815260606004820152601160648201527f496e63656e6469617279204d6f727461720000000000000000000000000000006084820152602481018990526103e86044820152600160a060020a039190911690631c635ded9060a401600060405180830381600087803b15801561323c57600080fd5b505af1158015613250573d6000803e3d6000fd5b5050505080600160a060020a031663a318d45c6040518163ffffffff1660e060020a028152600401602060405180830381865afa158015613295573d6000803e3d6000fd5b505050506040513d601f19601f820116820180604052508101906132b9919061594d565b60405160e060020a631c635ded02815260606004820152600a60648201527f454d50204d6f72746172000000000000000000000000000000000000000000006084820152602481018990526103e86044820152600160a060020a039190911690631c635ded9060a401600060405180830381600087803b15801561333c57600080fd5b505af1158015613350573d6000803e3d6000fd5b5050505080600160a060020a031663a318d45c6040518163ffffffff1660e060020a028152600401602060405180830381865afa158015613395573d6000803e3d6000fd5b505050506040513d601f19601f820116820180604052508101906133b9919061594d565b60405160e060020a631c635ded02815260606004820152600b60648201527f506f77657220476c6f76650000000000000000000000000000000000000000006084820152602481018990526103e86044820152600160a060020a039190911690631c635ded9060a401600060405180830381600087803b15801561343c57600080fd5b505af1158015613450573d6000803e3d6000fd5b5050505080600160a060020a031663a318d45c6040518163ffffffff1660e060020a028152600401602060405180830381865afa158015613495573d6000803e3d6000fd5b505050506040513d601f19601f820116820180604052508101906134b9919061594d565b60405160e060020a631c635ded02815260606004820152602160648201527f52656d6f7465204c61756e636820616e642047756964616e636520537973746560848201527f6d0000000000000000000000000000000000000000000000000000000000000060a4820152602481018990526103e86044820152600160a060020a039190911690631c635ded9060c401600060405180830381600087803b15801561356257600080fd5b505af1158015613576573d6000803e3d6000fd5b5050505080600160a060020a031663a318d45c6040518163ffffffff1660e060020a028152600401602060405180830381865afa1580156135bb573d6000803e3d6000fd5b505050506040513d601f19601f820116820180604052508101906135df919061594d565b60405160e060020a631c635ded02815260606004820152600f60648201527f54656c65706f72746572205061636b00000000000000000000000000000000006084820152602481018990526103e86044820152600160a060020a039190911690631c635ded9060a401600060405180830381600087803b15801561366257600080fd5b505af1158015613676573d6000803e3d6000fd5b5050505080600160a060020a031663a318d45c6040518163ffffffff1660e060020a028152600401602060405180830381865afa1580156136bb573d6000803e3d6000fd5b505050506040513d601f19601f820116820180604052508101906136df919061594d565b600160a060020a0316631c635ded886103e86040518363ffffffff1660e060020a028152600401613711929190615d04565b600060405180830381600087803b15801561372b57600080fd5b505af115801561373f573d6000803e3d6000fd5b5050505080600160a060020a031663c1cdbb3c6040518163ffffffff1660e060020a028152600401602060405180830381865afa158015613784573d6000803e3d6000fd5b505050506040513d601f19601f820116820180604052508101906137a8919061594d565b60405160e060020a631c635ded02815260606004820152600760648201527f5374756e6e6564000000000000000000000000000000000000000000000000006084820152602481018990526103e86044820152600160a060020a039190911690631c635ded9060a401600060405180830381600087803b15801561382b57600080fd5b505af115801561383f573d6000803e3d6000fd5b5050505080600160a060020a031663c1cdbb3c6040518163ffffffff1660e060020a028152600401602060405180830381865afa158015613884573d6000803e3d6000fd5b505050506040513d601f19601f820116820180604052508101906138a8919061594d565b60405160e060020a631c635ded02815260606004820152600660648201527f4275726e656400000000000000000000000000000000000000000000000000006084820152602481018990526103e86044820152600160a060020a039190911690631c635ded9060a401600060405180830381600087803b15801561392b57600080fd5b505af115801561393f573d6000803e3d6000fd5b5050505080600160a060020a03166345d339d96040518163ffffffff1660e060020a028152600401602060405180830381865afa158015613984573d6000803e3d6000fd5b505050506040513d601f19601f820116820180604052508101906139a8919061594d565b60405160e060020a631c635ded02815260606004820152600f60648201527f456e677261766564205461626c657400000000000000000000000000000000006084820152602481018990526103e86044820152600160a060020a039190911690631c635ded9060a401600060405180830381600087803b158015613a2b57600080fd5b505af1158015613a3f573d6000803e3d6000fd5b5050505080600160a060020a03166345d339d96040518163ffffffff1660e060020a028152600401602060405180830381865afa158015613a84573d6000803e3d6000fd5b505050506040513d601f19601f82011682018060405250810190613aa8919061594d565b60405160e060020a631c635ded02815260606004820152600960648201527f536967696c2047656d00000000000000000000000000000000000000000000006084820152602481018990526103e86044820152600160a060020a039190911690631c635ded9060a401600060405180830381600087803b158015613b2b57600080fd5b505af1158015613b3f573d6000803e3d6000fd5b5050505080600160a060020a03166345d339d96040518163ffffffff1660e060020a028152600401602060405180830381865afa158015613b84573d6000803e3d6000fd5b505050506040513d601f19601f82011682018060405250810190613ba8919061594d565b60405160e060020a631c635ded02815260606004820152600c60648201527f416e6369656e7420546f6d6500000000000000000000000000000000000000006084820152602481018990526103e86044820152600160a060020a039190911690631c635ded9060a401600060405180830381600087803b158015613c2b57600080fd5b505af1158015613c3f573d6000803e3d6000fd5b5050505080600160a060020a031663cb8d2d2c6040518163ffffffff1660e060020a028152600401602060405180830381865afa158015613c84573d6000803e3d6000fd5b505050506040513d601f19601f82011682018060405250810190613ca8919061594d565b60405160e060020a631c635ded02815260606004820152600760648201527f52656c69632031000000000000000000000000000000000000000000000000006084820152602481018990526103e86044820152600160a060020a039190911690631c635ded9060a401600060405180830381600087803b158015613d2b57600080fd5b505af1158015613d3f573d6000803e3d6000fd5b5050505080600160a060020a031663cb8d2d2c6040518163ffffffff1660e060020a028152600401602060405180830381865afa158015613d84573d6000803e3d6000fd5b505050506040513d601f19601f82011682018060405250810190613da8919061594d565b60405160e060020a631c635ded02815260606004820152600760648201527f52656c69632032000000000000000000000000000000000000000000000000006084820152602481018990526103e86044820152600160a060020a039190911690631c635ded9060a401600060405180830381600087803b158015613e2b57600080fd5b505af1158015613e3f573d6000803e3d6000fd5b5050505080600160a060020a031663cb8d2d2c6040518163ffffffff1660e060020a028152600401602060405180830381865afa158015613e84573d6000803e3d6000fd5b505050506040513d601f19601f82011682018060405250810190613ea8919061594d565b60405160e060020a631c635ded02815260606004820152600760648201527f52656c69632033000000000000000000000000000000000000000000000000006084820152602481018990526103e86044820152600160a060020a039190911690631c635ded9060a401600060405180830381600087803b158015613f2b57600080fd5b505af1158015613f3f573d6000803e3d6000fd5b5050505080600160a060020a031663cb8d2d2c6040518163ffffffff1660e060020a028152600401602060405180830381865afa158015613f84573d6000803e3d6000fd5b505050506040513d601f19601f82011682018060405250810190613fa8919061594d565b60405160e060020a631c635ded02815260606004820152600760648201527f52656c69632034000000000000000000000000000000000000000000000000006084820152602481018990526103e86044820152600160a060020a039190911690631c635ded9060a401600060405180830381600087803b15801561402b57600080fd5b505af115801561403f573d6000803e3d6000fd5b5050505080600160a060020a031663cb8d2d2c6040518163ffffffff1660e060020a028152600401602060405180830381865afa158015614084573d6000803e3d6000fd5b505050506040513d601f19601f820116820180604052508101906140a8919061594d565b60405160e060020a631c635ded02815260606004820152600760648201527f52656c69632035000000000000000000000000000000000000000000000000006084820152602481018990526103e86044820152600160a060020a039190911690631c635ded9060a401600060405180830381600087803b15801561412b57600080fd5b505af115801561413f573d6000803e3d6000fd5b5050505080600160a060020a031663a906dfd16040518163ffffffff1660e060020a028152600401602060405180830381865afa158015614184573d6000803e3d6000fd5b505050506040513d601f19601f820116820180604052508101906141a8919061594d565b600160a060020a031663d82910478860006001806040518563ffffffff1660e060020a0281526004016141de9493929190615d16565b600060405180830381600087803b1580156141f857600080fd5b505af115801561420c573d6000803e3d6000fd5b5050505060005b83811015614401576000614228826001615d4a565b60405160e260020a633d410c95028152600481018b905260248101829052909150600090600160a060020a0388169063f504325490604401602060405180830381865afa15801561427d573d6000803e3d6000fd5b505050506040513d601f19601f820116820180604052508101906142a1919061594d565b6040517f98bd7572000000000000000000000000000000000000000000000000000000008152909150600160a060020a038916906398bd7572906142ed9084908e908a90600401615d62565b600060405180830381600087803b15801561430757600080fd5b505af115801561431b573d6000803e3d6000fd5b5050505083600160a060020a031663a318d45c6040518163ffffffff1660e060020a028152600401602060405180830381865afa158015614360573d6000803e3d6000fd5b505050506040513d601f19601f82011682018060405250810190614384919061594d565b600160a060020a031663d82910478b60008560016040518563ffffffff1660e060020a0281526004016143ba9493929190615d8a565b600060405180830381600087803b1580156143d457600080fd5b505af11580156143e8573d6000803e3d6000fd5b50505050505080806143f990615a90565b915050614213565b506040517f76a321c10000000000000000000000000000000000000000000000000000000081526002600482015260248101889052600160a060020a038616906376a321c190604401600060405180830381600087803b15801561446457600080fd5b505af1158015614478573d6000803e3d6000fd5b50505050600085600160a060020a031663cefe23296040518163ffffffff1660e060020a028152600401602060405180830381865afa1580156144bf573d6000803e3d6000fd5b505050506040513d601f19601f820116820180604052508101906144e3919061594d565b60405160e160020a63430c0a71028152600481018a9052909150600090600160a060020a0383169063861814e290602401602060405180830381865afa158015614531573d6000803e3d6000fd5b505050506040513d601f19601f820116820180604052508101906145559190615bf2565b90508061464a5781600160a060020a03166306fb55278a88600160a060020a031663b77ff4118d6040518263ffffffff1660e060020a02815260040161459d91815260200190565b602060405180830381865afa1580156145ba573d6000803e3d6000fd5b505050506040513d601f19601f820116820180604052508101906145de9190615bf2565b60405160e060020a63ffffffff8516028152600481019290925261ffff1660248201526044016020604051808303816000875af1158015614623573d6000803e3d6000fd5b505050506040513d601f19601f820116820180604052508101906146479190615bf2565b90505b6040517fe5ed1d5900000000000000000000000000000000000000000000000000000000815260048101829052600160a060020a0383169063e5ed1d5990602401600060405180830381600087803b1580156146a557600080fd5b505af11580156146b9573d6000803e3d6000fd5b50505050505050505050505050565b6040517f72c6c6b60000000000000000000000000000000000000000000000000000000081528190600160a060020a038216906372c6c6b69061048f90869060040161581f565b6040517f9eb356cb0000000000000000000000000000000000000000000000000000000081526004810183905233602482015260448101849052600160a060020a03821690639eb356cb906064016020604051808303816000875af115801561477c573d6000803e3d6000fd5b505050506040513d601f19601f820116820180604052508101906147a091906159ec565b50505050565b60008281526001602052604081206147be90836150e3565b9392505050565b600091825260208281526040808420600160a060020a0393909316845291905290205460ff1690565b6040517fb553910d000000000000000000000000000000000000000000000000000000008152600090600160a060020a0384169063b553910d9061483690859060040161581f565b602060405180830381865afa158015614853573d6000803e3d6000fd5b505050506040513d601f19601f820116820180604052508101906147be9190615bf2565b600061488281615092565b506002805473ffffffffffffffffffffffffffffffffffffffff1916600160a060020a0392909216919091179055565b6148bd6000336147c5565b806148db57506148db600080516020615f45833981519152336147c5565b6148fa5760405160e560020a62461bcd02815260040161056d906159b5565b80600160a060020a031663d1e18d266040518163ffffffff1660e060020a028152600401600060405180830381600087803b15801561493857600080fd5b505af115801561494c573d6000803e3d6000fd5b5050505050565b6000818152600160205260408120610346906150ef565b600061497581615092565b610580600080516020615f45833981519152836104c6565b6000828152602081905260409020600101546149a881615092565b6104eb83836150c1565b6000819050600081600160a060020a031663cefe23296040518163ffffffff1660e060020a028152600401602060405180830381865afa1580156149fa573d6000803e3d6000fd5b505050506040513d601f19601f82011682018060405250810190614a1e919061594d565b9050600082600160a060020a031663c06dea4e6040518163ffffffff1660e060020a028152600401602060405180830381865afa158015614a63573d6000803e3d6000fd5b505050506040513d601f19601f82011682018060405250810190614a87919061594d565b60405160e260020a633d410c9502815260048101879052602481018c90529091503390600160a060020a0383169063f504325490604401602060405180830381865afa158015614adb573d6000803e3d6000fd5b505050506040513d601f19601f82011682018060405250810190614aff919061594d565b600160a060020a031614614b585760405160e560020a62461bcd02815260206004820152601660248201527f506c617965724944206973206e6f742073656e64657200000000000000000000604482015260640161056d565b60405160e160020a63430c0a7102815260048101869052600090600160a060020a0384169063861814e290602401602060405180830381865afa158015614ba3573d6000803e3d6000fd5b505050506040513d601f19601f82011682018060405250810190614bc79190615bf2565b905080614cb85782600160a060020a03166306fb55278784600160a060020a031663b77ff4118a6040518263ffffffff1660e060020a028152600401614c0f91815260200190565b602060405180830381865afa158015614c2c573d6000803e3d6000fd5b505050506040513d601f19601f82011682018060405250810190614c509190615bf2565b60405160e060020a63ffffffff8516028152600481019290925260248201526044016020604051808303816000875af1158015614c91573d6000803e3d6000fd5b505050506040513d601f19601f82011682018060405250810190614cb59190615bf2565b90505b80614d085760405160e560020a62461bcd02815260206004820152601f60248201527f756e61626c6520746f207365742071494420696e20636f6e74726f6c6c657200604482015260640161056d565b6040517fae6a7056000000000000000000000000000000000000000000000000000000008152600160a060020a0384169063ae6a705690614d57908e908e908e908e908e908990600401615d9c565b600060405180830381600087803b158015614d7157600080fd5b505af1158015614d85573d6000803e3d6000fd5b505050505050505050505050505050565b6000819050600081600160a060020a031663c06dea4e6040518163ffffffff1660e060020a028152600401602060405180830381865afa158015614dde573d6000803e3d6000fd5b505050506040513d601f19601f82011682018060405250810190614e02919061594d565b60405160e360020a631703edc302815260048101869052336024820152909150600160a060020a0382169063b81f6e1890604401602060405180830381865afa158015614e53573d6000803e3d6000fd5b505050506040513d601f19601f82011682018060405250810190614e7791906159ec565b614e965760405160e560020a62461bcd02815260040161056d90615a0e565b6040517ff8430708000000000000000000000000000000000000000000000000000000008152600160a060020a0383169063f843070890614ee09088906005908990600401615df8565b600060405180830381600087803b158015614efa57600080fd5b505af1158015614f0e573d6000803e3d6000fd5b50506040517f9f82bcc0000000000000000000000000000000000000000000000000000000008152600160a060020a0385169250639f82bcc09150614f599088908890600401615e28565b600060405180830381600087803b158015614f7357600080fd5b505af1158015614f87573d6000803e3d6000fd5b505050505050505050565b614f9c82826147c5565b61058057600082815260208181526040808320600160a060020a03851684529091529020805460ff19166001179055614fd23390565b600160a060020a031681600160a060020a0316837f2f8788117e7eff1d82e926ec794901d17c78024a50270940304540a733656f0d60405160405180910390a45050565b60006147be83600160a060020a0384166150f9565b6000600160e060020a031982167f7965db0b00000000000000000000000000000000000000000000000000000000148061034657507f01ffc9a700000000000000000000000000000000000000000000000000000000600160e060020a0319831614610346565b61509c8133615148565b50565b6150a98282614f92565b60008281526001602052604090206104eb9082615016565b6150cb82826151af565b60008281526001602052604090206104eb9082615214565b60006147be8383615229565b6000610346825490565b600081815260018301602052604081205461514057508154600181810184556000848152602080822090930184905584548482528286019093526040902091909155610346565b506000610346565b61515282826147c5565b6105805761516a81600160a060020a03166014615253565b615175836020615253565b604051602001615186929190615e4a565b60408051601f198184030181529082905260e560020a62461bcd02825261056d91600401615ecb565b6151b982826147c5565b1561058057600082815260208181526040808320600160a060020a0385168085529252808320805460ff1916905551339285917ff6391f5c32d9c69d2a47ea670b442974b53935d1edc7fd64eb21e047a839171b9190a45050565b60006147be83600160a060020a038416615455565b600082600001828154811061524057615240615a45565b9060005260206000200154905092915050565b60606000615262836002615ede565b61526d906002615d4a565b67ffffffffffffffff811115615285576152856155e0565b6040519080825280601f01601f1916602001820160405280156152af576020820181803683370190505b5090507f3000000000000000000000000000000000000000000000000000000000000000816000815181106152e6576152e6615a45565b6020010190600160f860020a031916908160001a9053507f78000000000000000000000000000000000000000000000000000000000000008160018151811061533157615331615a45565b6020010190600160f860020a031916908160001a9053506000615355846002615ede565b615360906001615d4a565b90505b6001811115615403577f303132333435363738396162636465660000000000000000000000000000000085600f16601081106153a1576153a1615a45565b1a7f0100000000000000000000000000000000000000000000000000000000000000028282815181106153d6576153d6615a45565b6020010190600160f860020a031916908160001a9053506010909404936153fc81615efd565b9050615363565b5083156147be5760405160e560020a62461bcd02815260206004820181905260248201527f537472696e67733a20686578206c656e67746820696e73756666696369656e74604482015260640161056d565b6000818152600183016020526040812054801561553e576000615479600183615f14565b855490915060009061548d90600190615f14565b90508181146154f25760008660000182815481106154ad576154ad615a45565b90600052602060002001549050808760000184815481106154d0576154d0615a45565b6000918252602080832090910192909255918252600188019052604090208390555b855486908061550357615503615f2b565b600190038181906000526020600020016000905590558560010160008681526020019081526020016000206000905560019350505050610346565b6000915050610346565b60006020828403121561555a57600080fd5b8135600160e060020a0319811681146147be57600080fd5b60006020828403121561558457600080fd5b5035919050565b600160a060020a038116811461509c57600080fd5b80356155ab8161558b565b919050565b600080604083850312156155c357600080fd5b8235915060208301356155d58161558b565b809150509250929050565b60e060020a634e487b7102600052604160045260246000fd5b604051601f8201601f1916810167ffffffffffffffff81118282101715615622576156226155e0565b604052919050565b600067ffffffffffffffff821115615644576156446155e0565b50601f01601f191660200190565b600082601f83011261566357600080fd5b81356156766156718261562a565b6155f9565b81815284602083860101111561568b57600080fd5b816020850160208301376000918101602001919091529392505050565b600082601f8301126156b957600080fd5b8135602067ffffffffffffffff808311156156d6576156d66155e0565b8183026156e48382016155f9565b93845285810183019383810190888611156156fe57600080fd5b84880192505b8583101561573a5782358481111561571c5760008081fd5b61572a8a87838c0101615652565b8352509184019190840190615704565b98975050505050505050565b60008060006060848603121561575b57600080fd5b833567ffffffffffffffff81111561577257600080fd5b61577e868287016156a8565b9350506020840135915060408401356157968161558b565b809150509250925092565b600080604083850312156157b457600080fd5b82356157bf8161558b565b915060208301356155d58161558b565b6000806000606084860312156157e457600080fd5b833592506020840135915060408401356157968161558b565b6000806040838503121561581057600080fd5b50508035926020909101359150565b600160a060020a0391909116815260200190565b60006020828403121561584557600080fd5b81356147be8161558b565b600080600080600080600060e0888a03121561586b57600080fd5b87359650602088013560ff8116811461588357600080fd5b9550604088013567ffffffffffffffff808211156158a057600080fd5b6158ac8b838c016156a8565b965060608a01359150808211156158c257600080fd5b6158ce8b838c01615652565b955060808a01359150808211156158e457600080fd5b506158f18a828b01615652565b93505060a0880135915061590760c089016155a0565b905092959891949750929550565b60008060006060848603121561592a57600080fd5b833567ffffffffffffffff81111561594157600080fd5b61577e86828701615652565b60006020828403121561595f57600080fd5b81516147be8161558b565b60a08101818560005b600381101561599557815160ff16835260209283019290910190600101615973565b505050836060830152600160a060020a0383166080830152949350505050565b6020808252601d908201527f41646d696e206f72204b656570657220726f6c65207265717569726564000000604082015260600190565b6000602082840312156159fe57600080fd5b815180151581146147be57600080fd5b60208082526015908201527f706c61796572206e6f7420726567697374657265640000000000000000000000604082015260600190565b60e060020a634e487b7102600052603260045260246000fd5b60e060020a634e487b7102600052602160045260246000fd5b60e060020a634e487b7102600052601160045260246000fd5b6000600019821415615aa457615aa4615a77565b5060010190565b60005b83811015615ac6578181015183820152602001615aae565b838111156147a05750506000910152565b60008151808452615aef816020860160208601615aab565b601f01601f19169290920160200192915050565b600081518084526020808501808196508284028101915082860160005b85811015615b4a578284038952615b38848351615ad7565b98850198935090840190600101615b20565b5091979650505050505050565b600c8110615b785760e060020a634e487b7102600052602160045260246000fd5b9052565b608081526000615b8f6080830187615b03565b6020600160a060020a0387168185015285604085015283820360608501528185518084528284019150828701935060005b81811015615be357615bd3838651615b57565b9383019391830191600101615bc0565b50909998505050505050505050565b600060208284031215615c0457600080fd5b5051919050565b600060208284031215615c1d57600080fd5b815167ffffffffffffffff811115615c3457600080fd5b8201601f81018413615c4557600080fd5b8051615c536156718261562a565b818152856020838501011115615c6857600080fd5b615c79826020830160208601615aab565b95945050505050565b600381527f4461790000000000000000000000000000000000000000000000000000000000602082015260400190565b606081526000615cc460608301615c82565b6020830194909452506040015290565b600881527f43616d7073697465000000000000000000000000000000000000000000000000602082015260400190565b606081526000615cc460608301615cd4565b60a081526000615d2860a08301615c82565b6020830196909652506040810193909352606083019190915260809091015290565b60008219821115615d5d57615d5d615a77565b500190565b600160a060020a0384168152826020820152606060408201526000615c796060830184615ad7565b60a081526000615d2860a08301615cd4565b86815260ff8616602082015260c060408201526000615dbe60c0830187615b03565b8281036060840152615dd08187615ad7565b90508281036080840152615de48186615ad7565b9150508260a0830152979650505050505050565b606081526000615e0b6060830186615ad7565b9050615e1a6020830185615b57565b826040830152949350505050565b604081526000615e3b6040830185615ad7565b90508260208301529392505050565b7f416363657373436f6e74726f6c3a206163636f756e7420000000000000000000815260008351615e82816017850160208801615aab565b7f206973206d697373696e6720726f6c65200000000000000000000000000000006017918401918201528351615ebf816028840160208801615aab565b01602801949350505050565b6020815260006147be6020830184615ad7565b6000816000190483118215151615615ef857615ef8615a77565b500290565b600081615f0c57615f0c615a77565b506000190190565b600082821015615f2657615f26615a77565b500390565b60e060020a634e487b7102600052603160045260246000fdfe80e2196015fc06a9d891759f8e4f51eb314ef5e9ea068528a8ed0063b87759f0a264697066735822122069cdaf61166ad0b041542ccbd24be95052c032bb9b6114f93a56f9b02815101e64736f6c634300080b0033",
  "immutableReferences": {},
  "source": "// SPDX-License-Identifier: GPL-3.0\npragma solidity >=0.7.0 <0.9.0;\n\nimport \"@luckymachines/game-core/contracts/src/v0.0/GameController.sol\";\nimport \"./HexplorationBoard.sol\";\nimport \"./HexplorationZone.sol\";\nimport \"./HexplorationQueue.sol\";\nimport \"./HexplorationStateUpdate.sol\";\nimport \"./state/CharacterCard.sol\";\nimport \"./tokens/TokenInventory.sol\";\n\ncontract HexplorationController is GameController {\n    // functions are meant to be called directly by players by default\n    // we are adding the ability of a Controller Admin or Keeper to\n    // execute the game aspects not directly controlled by players\n    bytes32 public constant VERIFIED_CONTROLLER_ROLE =\n        keccak256(\"VERIFIED_CONTROLLER_ROLE\");\n\n    HexplorationStateUpdate GAME_STATE;\n\n    // TODO:\n    // Connect to Chainlink VRF for random seeds when needed\n    // submit move + space choice\n    // use / swap item\n\n    /*\n    Controller can access all game tokens with the following methods:\n\n    function mint(\n        string memory tokenType,\n        uint256 gameID,\n        uint256 quantity\n    )\n\n    function transfer(\n        string memory tokenType,\n        uint256 gameID,\n        uint256 fromID,\n        uint256 toID,\n        uint256 quantity\n    )\n*/\n    modifier onlyAdminVC() {\n        require(\n            hasRole(DEFAULT_ADMIN_ROLE, _msgSender()) ||\n                hasRole(VERIFIED_CONTROLLER_ROLE, _msgSender()),\n            \"Admin or Keeper role required\"\n        );\n        _;\n    }\n\n    constructor(address adminAddress) GameController(adminAddress) {}\n\n    // Admin Functions\n\n    function setGameStateUpdate(address gsuAddress)\n        public\n        onlyRole(DEFAULT_ADMIN_ROLE)\n    {\n        GAME_STATE = HexplorationStateUpdate(gsuAddress);\n    }\n\n    function addVerifiedController(address vcAddress)\n        public\n        onlyRole(DEFAULT_ADMIN_ROLE)\n    {\n        grantRole(VERIFIED_CONTROLLER_ROLE, vcAddress);\n    }\n\n    // Admin or Keeper Interactions\n    function runBoardUpdate(address boardAddress) public onlyAdminVC {\n        HexplorationBoard(boardAddress).runUpdate();\n    }\n\n    function startGame(uint256 gameID, address boardAddress)\n        public\n        onlyAdminVC\n    {\n        HexplorationBoard board = HexplorationBoard(boardAddress);\n        require(board.gameState(gameID) == 0, \"game already started\");\n\n        PlayerRegistry pr = PlayerRegistry(board.prAddress());\n        board.lockRegistration(gameID);\n        uint256 totalRegistrations = pr.totalRegistrations(gameID);\n        string memory startZone = board.initialPlayZone(gameID);\n\n        TokenInventory ti = TokenInventory(board.tokenInventory());\n        // mint game tokens (maybe mint on demand instead...)\n        // minting full game set here\n        ti.DAY_NIGHT_TOKEN().mint(\"Day\", gameID, 1);\n        ti.DAY_NIGHT_TOKEN().mint(\"Night\", gameID, 1);\n        ti.DISASTER_TOKEN().mint(\"Earthquake\", gameID, 1000);\n        ti.DISASTER_TOKEN().mint(\"Volcano\", gameID, 1000);\n        ti.ENEMY_TOKEN().mint(\"Pirate\", gameID, 1000);\n        ti.ENEMY_TOKEN().mint(\"Pirate Ship\", gameID, 1000);\n        ti.ENEMY_TOKEN().mint(\"Deathbot\", gameID, 1000);\n        ti.ENEMY_TOKEN().mint(\"Guardian\", gameID, 1000);\n        ti.ENEMY_TOKEN().mint(\"Sandworm\", gameID, 1000);\n        ti.ENEMY_TOKEN().mint(\"Dragon\", gameID, 1000);\n        ti.ITEM_TOKEN().mint(\"Small Ammo\", gameID, 1000);\n        ti.ITEM_TOKEN().mint(\"Large Ammo\", gameID, 1000);\n        ti.ITEM_TOKEN().mint(\"Batteries\", gameID, 1000);\n        ti.ITEM_TOKEN().mint(\"Shield\", gameID, 1000);\n        ti.ITEM_TOKEN().mint(\"Portal\", gameID, 1000);\n        ti.ITEM_TOKEN().mint(\"On\", gameID, 1000);\n        ti.ITEM_TOKEN().mint(\"Off\", gameID, 1000);\n        ti.ITEM_TOKEN().mint(\"Rusty Dagger\", gameID, 1000);\n        ti.ITEM_TOKEN().mint(\"Rusty Sword\", gameID, 1000);\n        ti.ITEM_TOKEN().mint(\"Rusty Pistol\", gameID, 1000);\n        ti.ITEM_TOKEN().mint(\"Rusty Rifle\", gameID, 1000);\n        ti.ITEM_TOKEN().mint(\"Shiny Dagger\", gameID, 1000);\n        ti.ITEM_TOKEN().mint(\"Shiny Sword\", gameID, 1000);\n        ti.ITEM_TOKEN().mint(\"Shiny Rifle\", gameID, 1000);\n        ti.ITEM_TOKEN().mint(\"Laser Dagger\", gameID, 1000);\n        ti.ITEM_TOKEN().mint(\"Laser Sword\", gameID, 1000);\n        ti.ITEM_TOKEN().mint(\"Laser Pistol\", gameID, 1000);\n        ti.ITEM_TOKEN().mint(\"Laser Rifle\", gameID, 1000);\n        ti.ITEM_TOKEN().mint(\"Glow stick\", gameID, 1000);\n        ti.ITEM_TOKEN().mint(\"Flashlight\", gameID, 1000);\n        ti.ITEM_TOKEN().mint(\"Flood light\", gameID, 1000);\n        ti.ITEM_TOKEN().mint(\"Nightvision Goggles\", gameID, 1000);\n        ti.ITEM_TOKEN().mint(\"Personal Shield\", gameID, 1000);\n        ti.ITEM_TOKEN().mint(\"Bubble Shield\", gameID, 1000);\n        ti.ITEM_TOKEN().mint(\"Frag Grenade\", gameID, 1000);\n        ti.ITEM_TOKEN().mint(\"Fire Grenade\", gameID, 1000);\n        ti.ITEM_TOKEN().mint(\"Shock Grenade\", gameID, 1000);\n        ti.ITEM_TOKEN().mint(\"HE Mortar\", gameID, 1000);\n        ti.ITEM_TOKEN().mint(\"Incendiary Mortar\", gameID, 1000);\n        ti.ITEM_TOKEN().mint(\"EMP Mortar\", gameID, 1000);\n        ti.ITEM_TOKEN().mint(\"Power Glove\", gameID, 1000);\n        ti.ITEM_TOKEN().mint(\"Remote Launch and Guidance System\", gameID, 1000);\n        ti.ITEM_TOKEN().mint(\"Teleporter Pack\", gameID, 1000);\n        ti.ITEM_TOKEN().mint(\"Campsite\", gameID, 1000);\n        ti.PLAYER_STATUS_TOKEN().mint(\"Stunned\", gameID, 1000);\n        ti.PLAYER_STATUS_TOKEN().mint(\"Burned\", gameID, 1000);\n        ti.ARTIFACT_TOKEN().mint(\"Engraved Tablet\", gameID, 1000);\n        ti.ARTIFACT_TOKEN().mint(\"Sigil Gem\", gameID, 1000);\n        ti.ARTIFACT_TOKEN().mint(\"Ancient Tome\", gameID, 1000);\n        ti.RELIC_TOKEN().mint(\"Relic 1\", gameID, 1000);\n        ti.RELIC_TOKEN().mint(\"Relic 2\", gameID, 1000);\n        ti.RELIC_TOKEN().mint(\"Relic 3\", gameID, 1000);\n        ti.RELIC_TOKEN().mint(\"Relic 4\", gameID, 1000);\n        ti.RELIC_TOKEN().mint(\"Relic 5\", gameID, 1000);\n        // Transfer day token to board\n        ti.DAY_NIGHT_TOKEN().transfer(\"Day\", gameID, 0, 1, 1);\n\n        for (uint256 i = 0; i < totalRegistrations; i++) {\n            uint256 playerID = i + 1;\n            address playerAddress = pr.playerAddress(gameID, playerID);\n            board.enterPlayer(playerAddress, gameID, startZone);\n            // Transfer campsite tokens to players\n            ti.ITEM_TOKEN().transfer(\"Campsite\", gameID, 0, playerID, 1);\n        }\n        // set game to initialized\n        board.setGameState(2, gameID);\n\n        HexplorationQueue q = HexplorationQueue(board.gameplayQueue());\n\n        uint256 qID = q.queueID(gameID);\n        if (qID == 0) {\n            qID = q.requestGameQueue(\n                gameID,\n                uint16(pr.totalRegistrations(gameID))\n            );\n        }\n        q.startGame(qID);\n    }\n\n    function moveThroughPath(\n        string[] memory zonePath,\n        uint256 gameID,\n        address boardAddress\n    ) public onlyAdminVC {\n        // TODO:\n        // verify move is valid\n        // pick tiles from deck\n        HexplorationBoard board = HexplorationBoard(boardAddress);\n        PlayerRegistry pr = PlayerRegistry(board.prAddress());\n        require(pr.isRegistered(gameID, msg.sender), \"player not registered\");\n\n        HexplorationZone.Tile[] memory tiles = new HexplorationZone.Tile[](\n            zonePath.length\n        );\n        for (uint256 i = 0; i < zonePath.length; i++) {\n            tiles[i] = i == 0 ? HexplorationZone.Tile.Jungle : i == 1\n                ? HexplorationZone.Tile.Plains\n                : HexplorationZone.Tile.Mountain;\n        }\n\n        HexplorationBoard(boardAddress).moveThroughPath(\n            zonePath,\n            msg.sender,\n            gameID,\n            tiles\n        );\n    }\n\n    //Player Interactions\n    function registerForGame(uint256 gameID, address boardAddress) public {\n        HexplorationBoard board = HexplorationBoard(boardAddress);\n        board.registerPlayer(msg.sender, gameID);\n        CharacterCard(board.characterCard()).setStats(\n            [4, 4, 4],\n            gameID,\n            msg.sender\n        );\n    }\n\n    function submitAction(\n        uint256 playerID,\n        uint8 actionIndex,\n        string[] memory options,\n        string memory leftHand,\n        string memory rightHand,\n        uint256 gameID,\n        address boardAddress\n    ) public {\n        HexplorationBoard board = HexplorationBoard(boardAddress);\n        HexplorationQueue q = HexplorationQueue(board.gameplayQueue());\n        PlayerRegistry pr = PlayerRegistry(board.prAddress());\n        require(\n            pr.playerAddress(gameID, playerID) == msg.sender,\n            \"PlayerID is not sender\"\n        );\n        uint256 qID = q.queueID(gameID);\n        if (qID == 0) {\n            qID = q.requestGameQueue(gameID, pr.totalRegistrations(gameID));\n        }\n        require(qID != 0, \"unable to set qID in controller\");\n        q.sumbitActionForPlayer(\n            playerID,\n            actionIndex,\n            options,\n            leftHand,\n            rightHand,\n            qID\n        );\n    }\n\n    function chooseLandingSite(\n        string memory zoneChoice,\n        uint256 gameID,\n        address boardAddress\n    ) public {\n        // TODO: must be player 2 or on single player, p1\n        HexplorationBoard board = HexplorationBoard(boardAddress);\n        PlayerRegistry pr = PlayerRegistry(board.prAddress());\n        require(pr.isRegistered(gameID, msg.sender), \"player not registered\");\n\n        board.enableZone(zoneChoice, HexplorationZone.Tile.LandingSite, gameID);\n        // set landing site at space on board\n        board.setInitialPlayZone(zoneChoice, gameID);\n    }\n\n    // TODO: limit this to authorized game starters\n    function requestNewGame(address gameRegistryAddress, address boardAddress)\n        public\n    {\n        HexplorationBoard board = HexplorationBoard(boardAddress);\n        board.requestNewGame(gameRegistryAddress);\n    }\n\n    function latestGame(address gameRegistryAddress, address boardAddress)\n        public\n        view\n        returns (uint256)\n    {\n        return GameRegistry(gameRegistryAddress).latestGame(boardAddress);\n    }\n}\n",
  "sourcePath": "/Users/maxmeier/Developer/Lucky Machines/hexploration/contracts/HexplorationController.sol",
  "compiler": {
    "name": "solc",
    "version": "0.8.11+commit.d7f03943.Emscripten.clang"
  },
  "schemaVersion": "3.4.4",
  "updatedAt": "2022-05-23T15:42:52.251Z",
  "networkType": "ethereum",
  "devdoc": {
    "kind": "dev",
    "methods": {
      "getRoleAdmin(bytes32)": {
        "details": "Returns the admin role that controls `role`. See {grantRole} and {revokeRole}. To change a role's admin, use {_setRoleAdmin}."
      },
      "getRoleMember(bytes32,uint256)": {
        "details": "Returns one of the accounts that have `role`. `index` must be a value between 0 and {getRoleMemberCount}, non-inclusive. Role bearers are not sorted in any particular way, and their ordering may change at any point. WARNING: When using {getRoleMember} and {getRoleMemberCount}, make sure you perform all queries on the same block. See the following https://forum.openzeppelin.com/t/iterating-over-elements-on-enumerableset-in-openzeppelin-contracts/2296[forum post] for more information."
      },
      "getRoleMemberCount(bytes32)": {
        "details": "Returns the number of accounts that have `role`. Can be used together with {getRoleMember} to enumerate all bearers of a role."
      },
      "grantRole(bytes32,address)": {
        "details": "Grants `role` to `account`. If `account` had not been already granted `role`, emits a {RoleGranted} event. Requirements: - the caller must have ``role``'s admin role."
      },
      "hasRole(bytes32,address)": {
        "details": "Returns `true` if `account` has been granted `role`."
      },
      "renounceRole(bytes32,address)": {
        "details": "Revokes `role` from the calling account. Roles are often managed via {grantRole} and {revokeRole}: this function's purpose is to provide a mechanism for accounts to lose their privileges if they are compromised (such as when a trusted device is misplaced). If the calling account had been revoked `role`, emits a {RoleRevoked} event. Requirements: - the caller must be `account`."
      },
      "revokeRole(bytes32,address)": {
        "details": "Revokes `role` from `account`. If `account` had been granted `role`, emits a {RoleRevoked} event. Requirements: - the caller must have ``role``'s admin role."
      },
      "supportsInterface(bytes4)": {
        "details": "See {IERC165-supportsInterface}."
      }
    },
    "version": 1
  },
  "userdoc": {
    "kind": "user",
    "methods": {},
    "version": 1
  }
}