{
  "contractName": "HexplorationController",
  "abi": [
    {
      "inputs": [
        {
          "internalType": "address",
          "name": "adminAddress",
          "type": "address"
        }
      ],
      "stateMutability": "nonpayable",
      "type": "constructor"
    },
    {
      "anonymous": false,
      "inputs": [
        {
          "indexed": true,
          "internalType": "bytes32",
          "name": "role",
          "type": "bytes32"
        },
        {
          "indexed": true,
          "internalType": "bytes32",
          "name": "previousAdminRole",
          "type": "bytes32"
        },
        {
          "indexed": true,
          "internalType": "bytes32",
          "name": "newAdminRole",
          "type": "bytes32"
        }
      ],
      "name": "RoleAdminChanged",
      "type": "event"
    },
    {
      "anonymous": false,
      "inputs": [
        {
          "indexed": true,
          "internalType": "bytes32",
          "name": "role",
          "type": "bytes32"
        },
        {
          "indexed": true,
          "internalType": "address",
          "name": "account",
          "type": "address"
        },
        {
          "indexed": true,
          "internalType": "address",
          "name": "sender",
          "type": "address"
        }
      ],
      "name": "RoleGranted",
      "type": "event"
    },
    {
      "anonymous": false,
      "inputs": [
        {
          "indexed": true,
          "internalType": "bytes32",
          "name": "role",
          "type": "bytes32"
        },
        {
          "indexed": true,
          "internalType": "address",
          "name": "account",
          "type": "address"
        },
        {
          "indexed": true,
          "internalType": "address",
          "name": "sender",
          "type": "address"
        }
      ],
      "name": "RoleRevoked",
      "type": "event"
    },
    {
      "inputs": [],
      "name": "DEFAULT_ADMIN_ROLE",
      "outputs": [
        {
          "internalType": "bytes32",
          "name": "",
          "type": "bytes32"
        }
      ],
      "stateMutability": "view",
      "type": "function"
    },
    {
      "inputs": [],
      "name": "KEEPER_ROLE",
      "outputs": [
        {
          "internalType": "bytes32",
          "name": "",
          "type": "bytes32"
        }
      ],
      "stateMutability": "view",
      "type": "function"
    },
    {
      "inputs": [
        {
          "internalType": "uint256",
          "name": "pathIndex",
          "type": "uint256"
        },
        {
          "internalType": "uint256",
          "name": "gameID",
          "type": "uint256"
        },
        {
          "internalType": "address",
          "name": "gameBoardAddress",
          "type": "address"
        }
      ],
      "name": "exitToPath",
      "outputs": [],
      "stateMutability": "nonpayable",
      "type": "function"
    },
    {
      "inputs": [
        {
          "internalType": "bytes32",
          "name": "role",
          "type": "bytes32"
        }
      ],
      "name": "getRoleAdmin",
      "outputs": [
        {
          "internalType": "bytes32",
          "name": "",
          "type": "bytes32"
        }
      ],
      "stateMutability": "view",
      "type": "function"
    },
    {
      "inputs": [
        {
          "internalType": "bytes32",
          "name": "role",
          "type": "bytes32"
        },
        {
          "internalType": "uint256",
          "name": "index",
          "type": "uint256"
        }
      ],
      "name": "getRoleMember",
      "outputs": [
        {
          "internalType": "address",
          "name": "",
          "type": "address"
        }
      ],
      "stateMutability": "view",
      "type": "function"
    },
    {
      "inputs": [
        {
          "internalType": "bytes32",
          "name": "role",
          "type": "bytes32"
        }
      ],
      "name": "getRoleMemberCount",
      "outputs": [
        {
          "internalType": "uint256",
          "name": "",
          "type": "uint256"
        }
      ],
      "stateMutability": "view",
      "type": "function"
    },
    {
      "inputs": [
        {
          "internalType": "bytes32",
          "name": "role",
          "type": "bytes32"
        },
        {
          "internalType": "address",
          "name": "account",
          "type": "address"
        }
      ],
      "name": "grantRole",
      "outputs": [],
      "stateMutability": "nonpayable",
      "type": "function"
    },
    {
      "inputs": [
        {
          "internalType": "bytes32",
          "name": "role",
          "type": "bytes32"
        },
        {
          "internalType": "address",
          "name": "account",
          "type": "address"
        }
      ],
      "name": "hasRole",
      "outputs": [
        {
          "internalType": "bool",
          "name": "",
          "type": "bool"
        }
      ],
      "stateMutability": "view",
      "type": "function"
    },
    {
      "inputs": [
        {
          "internalType": "bytes32",
          "name": "role",
          "type": "bytes32"
        },
        {
          "internalType": "address",
          "name": "account",
          "type": "address"
        }
      ],
      "name": "renounceRole",
      "outputs": [],
      "stateMutability": "nonpayable",
      "type": "function"
    },
    {
      "inputs": [
        {
          "internalType": "bytes32",
          "name": "role",
          "type": "bytes32"
        },
        {
          "internalType": "address",
          "name": "account",
          "type": "address"
        }
      ],
      "name": "revokeRole",
      "outputs": [],
      "stateMutability": "nonpayable",
      "type": "function"
    },
    {
      "inputs": [
        {
          "internalType": "bytes4",
          "name": "interfaceId",
          "type": "bytes4"
        }
      ],
      "name": "supportsInterface",
      "outputs": [
        {
          "internalType": "bool",
          "name": "",
          "type": "bool"
        }
      ],
      "stateMutability": "view",
      "type": "function"
    },
    {
      "inputs": [
        {
          "internalType": "address",
          "name": "keeperAddress",
          "type": "address"
        }
      ],
      "name": "addKeeper",
      "outputs": [],
      "stateMutability": "nonpayable",
      "type": "function"
    },
    {
      "inputs": [
        {
          "internalType": "address",
          "name": "boardAddress",
          "type": "address"
        }
      ],
      "name": "runBoardUpdate",
      "outputs": [],
      "stateMutability": "nonpayable",
      "type": "function"
    },
    {
      "inputs": [
        {
          "internalType": "uint256",
          "name": "gameID",
          "type": "uint256"
        },
        {
          "internalType": "address",
          "name": "boardAddress",
          "type": "address"
        }
      ],
      "name": "startGame",
      "outputs": [],
      "stateMutability": "nonpayable",
      "type": "function"
    },
    {
      "inputs": [
        {
          "internalType": "uint256",
          "name": "gameID",
          "type": "uint256"
        },
        {
          "internalType": "address",
          "name": "boardAddress",
          "type": "address"
        }
      ],
      "name": "registerForGame",
      "outputs": [],
      "stateMutability": "nonpayable",
      "type": "function"
    },
    {
      "inputs": [
        {
          "internalType": "uint256",
          "name": "gameID",
          "type": "uint256"
        },
        {
          "internalType": "uint8",
          "name": "actionIndex",
          "type": "uint8"
        },
        {
          "internalType": "uint256",
          "name": "playerID",
          "type": "uint256"
        },
        {
          "internalType": "string[]",
          "name": "options",
          "type": "string[]"
        }
      ],
      "name": "submitAction",
      "outputs": [],
      "stateMutability": "nonpayable",
      "type": "function"
    },
    {
      "inputs": [
        {
          "internalType": "string[]",
          "name": "zonePath",
          "type": "string[]"
        },
        {
          "internalType": "uint256",
          "name": "gameID",
          "type": "uint256"
        },
        {
          "internalType": "address",
          "name": "boardAddress",
          "type": "address"
        }
      ],
      "name": "moveThroughPath",
      "outputs": [],
      "stateMutability": "nonpayable",
      "type": "function"
    },
    {
      "inputs": [
        {
          "internalType": "string",
          "name": "zoneChoice",
          "type": "string"
        },
        {
          "internalType": "uint256",
          "name": "gameID",
          "type": "uint256"
        },
        {
          "internalType": "address",
          "name": "boardAddress",
          "type": "address"
        }
      ],
      "name": "chooseLandingSite",
      "outputs": [],
      "stateMutability": "nonpayable",
      "type": "function"
    },
    {
      "inputs": [
        {
          "internalType": "address",
          "name": "gameRegistryAddress",
          "type": "address"
        },
        {
          "internalType": "address",
          "name": "boardAddress",
          "type": "address"
        }
      ],
      "name": "requestNewGame",
      "outputs": [],
      "stateMutability": "nonpayable",
      "type": "function"
    },
    {
      "inputs": [
        {
          "internalType": "address",
          "name": "gameRegistryAddress",
          "type": "address"
        },
        {
          "internalType": "address",
          "name": "boardAddress",
          "type": "address"
        }
      ],
      "name": "latestGame",
      "outputs": [
        {
          "internalType": "uint256",
          "name": "",
          "type": "uint256"
        }
      ],
      "stateMutability": "view",
      "type": "function"
    }
  ],
  "bytecode": "0x60806040523480156200001157600080fd5b506040516200595238038062005952833981016040819052620000349162000215565b806200004b60008264010000000062000053810204565b505062000247565b6200006882826401000000006200006c810204565b5050565b62000086828264010000000062004854620000b382021704565b6000828152600160205260409020620000ae9082640100000000620048d86200014f82021704565b505050565b620000c8828264010000000062000178810204565b6200006857600082815260208181526040808320600160a060020a03851684529091529020805460ff191660011790556200010b640100000000620001a1810204565b600160a060020a031681600160a060020a0316837f2f8788117e7eff1d82e926ec794901d17c78024a50270940304540a733656f0d60405160405180910390a45050565b60006200016f83600160a060020a038416640100000000620001a5810204565b90505b92915050565b600091825260208281526040808420600160a060020a0393909316845291905290205460ff1690565b3390565b6000620001bc8383640100000000620001fd810204565b620001f45750815460018181018455600084815260208082209093018490558454848252828601909352604090209190915562000172565b50600062000172565b60009081526001919091016020526040902054151590565b6000602082840312156200022857600080fd5b8151600160a060020a03811681146200024057600080fd5b9392505050565b6156fb80620002576000396000f3fe608060405234801561001057600080fd5b50600436106101305760003560e060020a900480637479c8fe116100b1578063c3ef701311610075578063c3ef7013146102a8578063ca15c873146102bb578063d547741f146102ce578063ee229417146102e1578063f3297df9146102f557600080fd5b80637479c8fe1461023c5780639010d07c1461024f57806391d148541461027a578063975eef261461028d578063a217fddf146102a057600080fd5b806336568abe116100f857806336568abe146101dd5780634032b72b146101f05780634bde808c14610203578063621cc08d14610216578063661e05661461022957600080fd5b806301ffc9a714610135578063248a9ca31461015d57806329a461d61461018e5780632f2ff15d146101a3578063364bc15a146101b6575b600080fd5b610148610143366004614e52565b610308565b60405190151581526020015b60405180910390f35b61018061016b366004614e7c565b60009081526020819052604090206001015490565b604051908152602001610154565b6101a161019c366004614eaa565b61034c565b005b6101a16101b1366004614eaa565b6104c6565b6101807ffc8737ab85eb45125971625a9ebdb75cc78e01d5c1fa80c4c6e5203f47bc4fab81565b6101a16101eb366004614eaa565b6104f0565b6101a16101fe366004614eda565b610584565b6101a161021136600461505d565b6105b9565b6101a1610224366004614eaa565b61084b565b6101a16102373660046150b8565b6143d3565b6101a161024a3660046150e6565b61441d565b61026261025d366004615114565b6144ae565b604051600160a060020a039091168152602001610154565b610148610288366004614eaa565b6144cd565b61018061029b3660046150b8565b6144f6565b610180600081565b6101a16102b6366004614eda565b61457d565b6101806102c9366004614e7c565b6145d6565b6101a16102dc366004614eaa565b6145ed565b6101a16102ef366004615136565b50505050565b6101a161030336600461519f565b614612565b6000600160e060020a031982167f5a05180f0000000000000000000000000000000000000000000000000000000014806103465750610346826148ed565b92915050565b6040517f9aabe36d000000000000000000000000000000000000000000000000000000008152336004820152602481018390528190600160a060020a03821690639aabe36d90604401600060405180830381600087803b1580156103af57600080fd5b505af11580156103c3573d6000803e3d6000fd5b5050505080600160a060020a031663a0ed600d6040518163ffffffff1660e060020a028152600401602060405180830381865afa158015610408573d6000803e3d6000fd5b505050506040513d601f19601f8201168201806040525081019061042c91906151d7565b6040805160608101825260048082526020820181905281830181905291517ff5386d70000000000000000000000000000000000000000000000000000000008152600160a060020a03939093169263f5386d709261048f929188913391016151f4565b600060405180830381600087803b1580156104a957600080fd5b505af11580156104bd573d6000803e3d6000fd5b50505050505050565b6000828152602081905260409020600101546104e181614954565b6104eb8383614961565b505050565b600160a060020a03811633146105765760405160e560020a62461bcd02815260206004820152602f60248201527f416363657373436f6e74726f6c3a2063616e206f6e6c792072656e6f756e636560448201527f20726f6c657320666f722073656c66000000000000000000000000000000000060648201526084015b60405180910390fd5b6105808282614983565b5050565b600061058f81614954565b6105807ffc8737ab85eb45125971625a9ebdb75cc78e01d5c1fa80c4c6e5203f47bc4fab836104c6565b6000819050600081600160a060020a031663c06dea4e6040518163ffffffff1660e060020a028152600401602060405180830381865afa158015610601573d6000803e3d6000fd5b505050506040513d601f19601f8201168201806040525081019061062591906151d7565b6040517fb81f6e1800000000000000000000000000000000000000000000000000000000815260048101869052336024820152909150600160a060020a0382169063b81f6e1890604401602060405180830381865afa15801561068c573d6000803e3d6000fd5b505050506040513d601f19601f820116820180604052508101906106b0919061523f565b6106ff5760405160e560020a62461bcd02815260206004820152601560248201527f706c61796572206e6f7420726567697374657265640000000000000000000000604482015260640161056d565b6000855167ffffffffffffffff81111561071b5761071b614ef7565b604051908082528060200260200182016040528015610744578160200160208202803683370190505b50905060005b86518110156107c557801561076f5780600114610768576004610772565b6002610772565b60015b82828151811061078457610784615261565b6020026020010190600b81111561079d5761079d61527a565b9081600b8111156107b0576107b061527a565b905250806107bd816152ac565b91505061074a565b506040517f31e019f6000000000000000000000000000000000000000000000000000000008152600160a060020a038516906331e019f69061081190899033908a908790600401615344565b600060405180830381600087803b15801561082b57600080fd5b505af115801561083f573d6000803e3d6000fd5b50505050505050505050565b6040517f4e0e1a3e000000000000000000000000000000000000000000000000000000008152600481018390528190600160a060020a03821690634e0e1a3e90602401602060405180830381865afa1580156108ab573d6000803e3d6000fd5b505050506040513d601f19601f820116820180604052508101906108cf91906153fd565b1561091f5760405160e560020a62461bcd02815260206004820152601460248201527f67616d6520616c72656164792073746172746564000000000000000000000000604482015260640161056d565b600081600160a060020a031663c06dea4e6040518163ffffffff1660e060020a028152600401602060405180830381865afa158015610962573d6000803e3d6000fd5b505050506040513d601f19601f8201168201806040525081019061098691906151d7565b6040517f60c2050000000000000000000000000000000000000000000000000000000000815260048101869052909150600160a060020a038316906360c2050090602401600060405180830381600087803b1580156109e457600080fd5b505af11580156109f8573d6000803e3d6000fd5b50506040517fb77ff4110000000000000000000000000000000000000000000000000000000081526004810187905260009250600160a060020a038416915063b77ff41190602401602060405180830381865afa158015610a5d573d6000803e3d6000fd5b505050506040513d601f19601f82011682018060405250810190610a8191906153fd565b6040517feb33983d00000000000000000000000000000000000000000000000000000000815260048101879052909150600090600160a060020a0385169063eb33983d90602401600060405180830381865afa158015610ae5573d6000803e3d6000fd5b505050506040513d6000823e601f3d908101601f19168201604052610b0d9190810190615416565b905060005b82811015610c2c576000600160a060020a03851663f504325489610b3785600161548d565b60405160e060020a63ffffffff851602815260048101929092526024820152604401602060405180830381865afa158015610b76573d6000803e3d6000fd5b505050506040513d601f19601f82011682018060405250810190610b9a91906151d7565b6040517f98bd7572000000000000000000000000000000000000000000000000000000008152909150600160a060020a038716906398bd757290610be69084908c9088906004016154a5565b600060405180830381600087803b158015610c0057600080fd5b505af1158015610c14573d6000803e3d6000fd5b50505050508080610c24906152ac565b915050610b12565b506040517f76a321c10000000000000000000000000000000000000000000000000000000081526002600482015260248101879052600160a060020a038516906376a321c190604401600060405180830381600087803b158015610c8f57600080fd5b505af1158015610ca3573d6000803e3d6000fd5b50505050600084600160a060020a031663cca369966040518163ffffffff1660e060020a028152600401602060405180830381865afa158015610cea573d6000803e3d6000fd5b505050506040513d601f19601f82011682018060405250810190610d0e91906151d7565b905080600160a060020a031663a906dfd16040518163ffffffff1660e060020a028152600401602060405180830381865afa158015610d51573d6000803e3d6000fd5b505050506040513d601f19601f82011682018060405250810190610d7591906151d7565b600160a060020a0316631c635ded8860016040518363ffffffff1660e060020a028152600401610da69291906154cd565b600060405180830381600087803b158015610dc057600080fd5b505af1158015610dd4573d6000803e3d6000fd5b5050505080600160a060020a031663a906dfd16040518163ffffffff1660e060020a028152600401602060405180830381865afa158015610e19573d6000803e3d6000fd5b505050506040513d601f19601f82011682018060405250810190610e3d91906151d7565b60405160e060020a631c635ded02815260606004820152600560648201527f4e6967687400000000000000000000000000000000000000000000000000000060848201526024810189905260016044820152600160a060020a039190911690631c635ded9060a401600060405180830381600087803b158015610ebf57600080fd5b505af1158015610ed3573d6000803e3d6000fd5b5050505080600160a060020a0316632ee0804a6040518163ffffffff1660e060020a028152600401602060405180830381865afa158015610f18573d6000803e3d6000fd5b505050506040513d601f19601f82011682018060405250810190610f3c91906151d7565b60405160e060020a631c635ded02815260606004820152600a60648201527f45617274687175616b65000000000000000000000000000000000000000000006084820152602481018990526103e86044820152600160a060020a039190911690631c635ded9060a401600060405180830381600087803b158015610fbf57600080fd5b505af1158015610fd3573d6000803e3d6000fd5b5050505080600160a060020a0316632ee0804a6040518163ffffffff1660e060020a028152600401602060405180830381865afa158015611018573d6000803e3d6000fd5b505050506040513d601f19601f8201168201806040525081019061103c91906151d7565b60405160e060020a631c635ded02815260606004820152600760648201527f566f6c63616e6f000000000000000000000000000000000000000000000000006084820152602481018990526103e86044820152600160a060020a039190911690631c635ded9060a401600060405180830381600087803b1580156110bf57600080fd5b505af11580156110d3573d6000803e3d6000fd5b5050505080600160a060020a0316632b2145336040518163ffffffff1660e060020a028152600401602060405180830381865afa158015611118573d6000803e3d6000fd5b505050506040513d601f19601f8201168201806040525081019061113c91906151d7565b60405160e060020a631c635ded02815260606004820152600660648201527f50697261746500000000000000000000000000000000000000000000000000006084820152602481018990526103e86044820152600160a060020a039190911690631c635ded9060a401600060405180830381600087803b1580156111bf57600080fd5b505af11580156111d3573d6000803e3d6000fd5b5050505080600160a060020a0316632b2145336040518163ffffffff1660e060020a028152600401602060405180830381865afa158015611218573d6000803e3d6000fd5b505050506040513d601f19601f8201168201806040525081019061123c91906151d7565b60405160e060020a631c635ded02815260606004820152600b60648201527f50697261746520536869700000000000000000000000000000000000000000006084820152602481018990526103e86044820152600160a060020a039190911690631c635ded9060a401600060405180830381600087803b1580156112bf57600080fd5b505af11580156112d3573d6000803e3d6000fd5b5050505080600160a060020a0316632b2145336040518163ffffffff1660e060020a028152600401602060405180830381865afa158015611318573d6000803e3d6000fd5b505050506040513d601f19601f8201168201806040525081019061133c91906151d7565b60405160e060020a631c635ded02815260606004820152600860648201527f4465617468626f740000000000000000000000000000000000000000000000006084820152602481018990526103e86044820152600160a060020a039190911690631c635ded9060a401600060405180830381600087803b1580156113bf57600080fd5b505af11580156113d3573d6000803e3d6000fd5b5050505080600160a060020a0316632b2145336040518163ffffffff1660e060020a028152600401602060405180830381865afa158015611418573d6000803e3d6000fd5b505050506040513d601f19601f8201168201806040525081019061143c91906151d7565b60405160e060020a631c635ded02815260606004820152600860648201527f477561726469616e0000000000000000000000000000000000000000000000006084820152602481018990526103e86044820152600160a060020a039190911690631c635ded9060a401600060405180830381600087803b1580156114bf57600080fd5b505af11580156114d3573d6000803e3d6000fd5b5050505080600160a060020a0316632b2145336040518163ffffffff1660e060020a028152600401602060405180830381865afa158015611518573d6000803e3d6000fd5b505050506040513d601f19601f8201168201806040525081019061153c91906151d7565b60405160e060020a631c635ded02815260606004820152600860648201527f53616e64776f726d0000000000000000000000000000000000000000000000006084820152602481018990526103e86044820152600160a060020a039190911690631c635ded9060a401600060405180830381600087803b1580156115bf57600080fd5b505af11580156115d3573d6000803e3d6000fd5b5050505080600160a060020a0316632b2145336040518163ffffffff1660e060020a028152600401602060405180830381865afa158015611618573d6000803e3d6000fd5b505050506040513d601f19601f8201168201806040525081019061163c91906151d7565b60405160e060020a631c635ded02815260606004820152600660648201527f447261676f6e00000000000000000000000000000000000000000000000000006084820152602481018990526103e86044820152600160a060020a039190911690631c635ded9060a401600060405180830381600087803b1580156116bf57600080fd5b505af11580156116d3573d6000803e3d6000fd5b5050505080600160a060020a031663a318d45c6040518163ffffffff1660e060020a028152600401602060405180830381865afa158015611718573d6000803e3d6000fd5b505050506040513d601f19601f8201168201806040525081019061173c91906151d7565b60405160e060020a631c635ded02815260606004820152600a60648201527f536d616c6c20416d6d6f000000000000000000000000000000000000000000006084820152602481018990526103e86044820152600160a060020a039190911690631c635ded9060a401600060405180830381600087803b1580156117bf57600080fd5b505af11580156117d3573d6000803e3d6000fd5b5050505080600160a060020a031663a318d45c6040518163ffffffff1660e060020a028152600401602060405180830381865afa158015611818573d6000803e3d6000fd5b505050506040513d601f19601f8201168201806040525081019061183c91906151d7565b60405160e060020a631c635ded02815260606004820152600a60648201527f4c6172676520416d6d6f000000000000000000000000000000000000000000006084820152602481018990526103e86044820152600160a060020a039190911690631c635ded9060a401600060405180830381600087803b1580156118bf57600080fd5b505af11580156118d3573d6000803e3d6000fd5b5050505080600160a060020a031663a318d45c6040518163ffffffff1660e060020a028152600401602060405180830381865afa158015611918573d6000803e3d6000fd5b505050506040513d601f19601f8201168201806040525081019061193c91906151d7565b60405160e060020a631c635ded02815260606004820152600960648201527f42617474657269657300000000000000000000000000000000000000000000006084820152602481018990526103e86044820152600160a060020a039190911690631c635ded9060a401600060405180830381600087803b1580156119bf57600080fd5b505af11580156119d3573d6000803e3d6000fd5b5050505080600160a060020a031663a318d45c6040518163ffffffff1660e060020a028152600401602060405180830381865afa158015611a18573d6000803e3d6000fd5b505050506040513d601f19601f82011682018060405250810190611a3c91906151d7565b60405160e060020a631c635ded02815260606004820152600660648201527f536869656c6400000000000000000000000000000000000000000000000000006084820152602481018990526103e86044820152600160a060020a039190911690631c635ded9060a401600060405180830381600087803b158015611abf57600080fd5b505af1158015611ad3573d6000803e3d6000fd5b5050505080600160a060020a031663a318d45c6040518163ffffffff1660e060020a028152600401602060405180830381865afa158015611b18573d6000803e3d6000fd5b505050506040513d601f19601f82011682018060405250810190611b3c91906151d7565b60405160e060020a631c635ded02815260606004820152600660648201527f506f7274616c00000000000000000000000000000000000000000000000000006084820152602481018990526103e86044820152600160a060020a039190911690631c635ded9060a401600060405180830381600087803b158015611bbf57600080fd5b505af1158015611bd3573d6000803e3d6000fd5b5050505080600160a060020a031663a318d45c6040518163ffffffff1660e060020a028152600401602060405180830381865afa158015611c18573d6000803e3d6000fd5b505050506040513d601f19601f82011682018060405250810190611c3c91906151d7565b60405160e060020a631c635ded02815260606004820152600260648201527f4f6e0000000000000000000000000000000000000000000000000000000000006084820152602481018990526103e86044820152600160a060020a039190911690631c635ded9060a401600060405180830381600087803b158015611cbf57600080fd5b505af1158015611cd3573d6000803e3d6000fd5b5050505080600160a060020a031663a318d45c6040518163ffffffff1660e060020a028152600401602060405180830381865afa158015611d18573d6000803e3d6000fd5b505050506040513d601f19601f82011682018060405250810190611d3c91906151d7565b60405160e060020a631c635ded02815260606004820152600360648201527f4f666600000000000000000000000000000000000000000000000000000000006084820152602481018990526103e86044820152600160a060020a039190911690631c635ded9060a401600060405180830381600087803b158015611dbf57600080fd5b505af1158015611dd3573d6000803e3d6000fd5b5050505080600160a060020a031663a318d45c6040518163ffffffff1660e060020a028152600401602060405180830381865afa158015611e18573d6000803e3d6000fd5b505050506040513d601f19601f82011682018060405250810190611e3c91906151d7565b60405160e060020a631c635ded02815260606004820152600c60648201527f52757374792044616767657200000000000000000000000000000000000000006084820152602481018990526103e86044820152600160a060020a039190911690631c635ded9060a401600060405180830381600087803b158015611ebf57600080fd5b505af1158015611ed3573d6000803e3d6000fd5b5050505080600160a060020a031663a318d45c6040518163ffffffff1660e060020a028152600401602060405180830381865afa158015611f18573d6000803e3d6000fd5b505050506040513d601f19601f82011682018060405250810190611f3c91906151d7565b60405160e060020a631c635ded02815260606004820152600b60648201527f52757374792053776f72640000000000000000000000000000000000000000006084820152602481018990526103e86044820152600160a060020a039190911690631c635ded9060a401600060405180830381600087803b158015611fbf57600080fd5b505af1158015611fd3573d6000803e3d6000fd5b5050505080600160a060020a031663a318d45c6040518163ffffffff1660e060020a028152600401602060405180830381865afa158015612018573d6000803e3d6000fd5b505050506040513d601f19601f8201168201806040525081019061203c91906151d7565b60405160e060020a631c635ded02815260606004820152600c60648201527f527573747920506973746f6c00000000000000000000000000000000000000006084820152602481018990526103e86044820152600160a060020a039190911690631c635ded9060a401600060405180830381600087803b1580156120bf57600080fd5b505af11580156120d3573d6000803e3d6000fd5b5050505080600160a060020a031663a318d45c6040518163ffffffff1660e060020a028152600401602060405180830381865afa158015612118573d6000803e3d6000fd5b505050506040513d601f19601f8201168201806040525081019061213c91906151d7565b60405160e060020a631c635ded02815260606004820152600b60648201527f5275737479205269666c650000000000000000000000000000000000000000006084820152602481018990526103e86044820152600160a060020a039190911690631c635ded9060a401600060405180830381600087803b1580156121bf57600080fd5b505af11580156121d3573d6000803e3d6000fd5b5050505080600160a060020a031663a318d45c6040518163ffffffff1660e060020a028152600401602060405180830381865afa158015612218573d6000803e3d6000fd5b505050506040513d601f19601f8201168201806040525081019061223c91906151d7565b60405160e060020a631c635ded02815260606004820152600c60648201527f5368696e792044616767657200000000000000000000000000000000000000006084820152602481018990526103e86044820152600160a060020a039190911690631c635ded9060a401600060405180830381600087803b1580156122bf57600080fd5b505af11580156122d3573d6000803e3d6000fd5b5050505080600160a060020a031663a318d45c6040518163ffffffff1660e060020a028152600401602060405180830381865afa158015612318573d6000803e3d6000fd5b505050506040513d601f19601f8201168201806040525081019061233c91906151d7565b60405160e060020a631c635ded02815260606004820152600b60648201527f5368696e792053776f72640000000000000000000000000000000000000000006084820152602481018990526103e86044820152600160a060020a039190911690631c635ded9060a401600060405180830381600087803b1580156123bf57600080fd5b505af11580156123d3573d6000803e3d6000fd5b5050505080600160a060020a031663a318d45c6040518163ffffffff1660e060020a028152600401602060405180830381865afa158015612418573d6000803e3d6000fd5b505050506040513d601f19601f8201168201806040525081019061243c91906151d7565b60405160e060020a631c635ded02815260606004820152600b60648201527f5368696e79205269666c650000000000000000000000000000000000000000006084820152602481018990526103e86044820152600160a060020a039190911690631c635ded9060a401600060405180830381600087803b1580156124bf57600080fd5b505af11580156124d3573d6000803e3d6000fd5b5050505080600160a060020a031663a318d45c6040518163ffffffff1660e060020a028152600401602060405180830381865afa158015612518573d6000803e3d6000fd5b505050506040513d601f19601f8201168201806040525081019061253c91906151d7565b60405160e060020a631c635ded02815260606004820152600c60648201527f4c617365722044616767657200000000000000000000000000000000000000006084820152602481018990526103e86044820152600160a060020a039190911690631c635ded9060a401600060405180830381600087803b1580156125bf57600080fd5b505af11580156125d3573d6000803e3d6000fd5b5050505080600160a060020a031663a318d45c6040518163ffffffff1660e060020a028152600401602060405180830381865afa158015612618573d6000803e3d6000fd5b505050506040513d601f19601f8201168201806040525081019061263c91906151d7565b60405160e060020a631c635ded02815260606004820152600b60648201527f4c617365722053776f72640000000000000000000000000000000000000000006084820152602481018990526103e86044820152600160a060020a039190911690631c635ded9060a401600060405180830381600087803b1580156126bf57600080fd5b505af11580156126d3573d6000803e3d6000fd5b5050505080600160a060020a031663a318d45c6040518163ffffffff1660e060020a028152600401602060405180830381865afa158015612718573d6000803e3d6000fd5b505050506040513d601f19601f8201168201806040525081019061273c91906151d7565b60405160e060020a631c635ded02815260606004820152600c60648201527f4c6173657220506973746f6c00000000000000000000000000000000000000006084820152602481018990526103e86044820152600160a060020a039190911690631c635ded9060a401600060405180830381600087803b1580156127bf57600080fd5b505af11580156127d3573d6000803e3d6000fd5b5050505080600160a060020a031663a318d45c6040518163ffffffff1660e060020a028152600401602060405180830381865afa158015612818573d6000803e3d6000fd5b505050506040513d601f19601f8201168201806040525081019061283c91906151d7565b60405160e060020a631c635ded02815260606004820152600b60648201527f4c61736572205269666c650000000000000000000000000000000000000000006084820152602481018990526103e86044820152600160a060020a039190911690631c635ded9060a401600060405180830381600087803b1580156128bf57600080fd5b505af11580156128d3573d6000803e3d6000fd5b5050505080600160a060020a031663a318d45c6040518163ffffffff1660e060020a028152600401602060405180830381865afa158015612918573d6000803e3d6000fd5b505050506040513d601f19601f8201168201806040525081019061293c91906151d7565b60405160e060020a631c635ded02815260606004820152600a60648201527f476c6f7720737469636b000000000000000000000000000000000000000000006084820152602481018990526103e86044820152600160a060020a039190911690631c635ded9060a401600060405180830381600087803b1580156129bf57600080fd5b505af11580156129d3573d6000803e3d6000fd5b5050505080600160a060020a031663a318d45c6040518163ffffffff1660e060020a028152600401602060405180830381865afa158015612a18573d6000803e3d6000fd5b505050506040513d601f19601f82011682018060405250810190612a3c91906151d7565b60405160e060020a631c635ded02815260606004820152600a60648201527f466c6173686c69676874000000000000000000000000000000000000000000006084820152602481018990526103e86044820152600160a060020a039190911690631c635ded9060a401600060405180830381600087803b158015612abf57600080fd5b505af1158015612ad3573d6000803e3d6000fd5b5050505080600160a060020a031663a318d45c6040518163ffffffff1660e060020a028152600401602060405180830381865afa158015612b18573d6000803e3d6000fd5b505050506040513d601f19601f82011682018060405250810190612b3c91906151d7565b60405160e060020a631c635ded02815260606004820152600b60648201527f466c6f6f64206c696768740000000000000000000000000000000000000000006084820152602481018990526103e86044820152600160a060020a039190911690631c635ded9060a401600060405180830381600087803b158015612bbf57600080fd5b505af1158015612bd3573d6000803e3d6000fd5b5050505080600160a060020a031663a318d45c6040518163ffffffff1660e060020a028152600401602060405180830381865afa158015612c18573d6000803e3d6000fd5b505050506040513d601f19601f82011682018060405250810190612c3c91906151d7565b60405160e060020a631c635ded02815260606004820152601360648201527f4e69676874766973696f6e20476f67676c6573000000000000000000000000006084820152602481018990526103e86044820152600160a060020a039190911690631c635ded9060a401600060405180830381600087803b158015612cbf57600080fd5b505af1158015612cd3573d6000803e3d6000fd5b5050505080600160a060020a031663a318d45c6040518163ffffffff1660e060020a028152600401602060405180830381865afa158015612d18573d6000803e3d6000fd5b505050506040513d601f19601f82011682018060405250810190612d3c91906151d7565b60405160e060020a631c635ded02815260606004820152600f60648201527f506572736f6e616c20536869656c6400000000000000000000000000000000006084820152602481018990526103e86044820152600160a060020a039190911690631c635ded9060a401600060405180830381600087803b158015612dbf57600080fd5b505af1158015612dd3573d6000803e3d6000fd5b5050505080600160a060020a031663a318d45c6040518163ffffffff1660e060020a028152600401602060405180830381865afa158015612e18573d6000803e3d6000fd5b505050506040513d601f19601f82011682018060405250810190612e3c91906151d7565b60405160e060020a631c635ded02815260606004820152600d60648201527f427562626c6520536869656c64000000000000000000000000000000000000006084820152602481018990526103e86044820152600160a060020a039190911690631c635ded9060a401600060405180830381600087803b158015612ebf57600080fd5b505af1158015612ed3573d6000803e3d6000fd5b5050505080600160a060020a031663a318d45c6040518163ffffffff1660e060020a028152600401602060405180830381865afa158015612f18573d6000803e3d6000fd5b505050506040513d601f19601f82011682018060405250810190612f3c91906151d7565b60405160e060020a631c635ded02815260606004820152600c60648201527f46726167204772656e61646500000000000000000000000000000000000000006084820152602481018990526103e86044820152600160a060020a039190911690631c635ded9060a401600060405180830381600087803b158015612fbf57600080fd5b505af1158015612fd3573d6000803e3d6000fd5b5050505080600160a060020a031663a318d45c6040518163ffffffff1660e060020a028152600401602060405180830381865afa158015613018573d6000803e3d6000fd5b505050506040513d601f19601f8201168201806040525081019061303c91906151d7565b60405160e060020a631c635ded02815260606004820152600c60648201527f46697265204772656e61646500000000000000000000000000000000000000006084820152602481018990526103e86044820152600160a060020a039190911690631c635ded9060a401600060405180830381600087803b1580156130bf57600080fd5b505af11580156130d3573d6000803e3d6000fd5b5050505080600160a060020a031663a318d45c6040518163ffffffff1660e060020a028152600401602060405180830381865afa158015613118573d6000803e3d6000fd5b505050506040513d601f19601f8201168201806040525081019061313c91906151d7565b60405160e060020a631c635ded02815260606004820152600d60648201527f53686f636b204772656e616465000000000000000000000000000000000000006084820152602481018990526103e86044820152600160a060020a039190911690631c635ded9060a401600060405180830381600087803b1580156131bf57600080fd5b505af11580156131d3573d6000803e3d6000fd5b5050505080600160a060020a031663a318d45c6040518163ffffffff1660e060020a028152600401602060405180830381865afa158015613218573d6000803e3d6000fd5b505050506040513d601f19601f8201168201806040525081019061323c91906151d7565b60405160e060020a631c635ded02815260606004820152600960648201527f4845204d6f7274617200000000000000000000000000000000000000000000006084820152602481018990526103e86044820152600160a060020a039190911690631c635ded9060a401600060405180830381600087803b1580156132bf57600080fd5b505af11580156132d3573d6000803e3d6000fd5b5050505080600160a060020a031663a318d45c6040518163ffffffff1660e060020a028152600401602060405180830381865afa158015613318573d6000803e3d6000fd5b505050506040513d601f19601f8201168201806040525081019061333c91906151d7565b60405160e060020a631c635ded02815260606004820152601160648201527f496e63656e6469617279204d6f727461720000000000000000000000000000006084820152602481018990526103e86044820152600160a060020a039190911690631c635ded9060a401600060405180830381600087803b1580156133bf57600080fd5b505af11580156133d3573d6000803e3d6000fd5b5050505080600160a060020a031663a318d45c6040518163ffffffff1660e060020a028152600401602060405180830381865afa158015613418573d6000803e3d6000fd5b505050506040513d601f19601f8201168201806040525081019061343c91906151d7565b60405160e060020a631c635ded02815260606004820152600a60648201527f454d50204d6f72746172000000000000000000000000000000000000000000006084820152602481018990526103e86044820152600160a060020a039190911690631c635ded9060a401600060405180830381600087803b1580156134bf57600080fd5b505af11580156134d3573d6000803e3d6000fd5b5050505080600160a060020a031663a318d45c6040518163ffffffff1660e060020a028152600401602060405180830381865afa158015613518573d6000803e3d6000fd5b505050506040513d601f19601f8201168201806040525081019061353c91906151d7565b60405160e060020a631c635ded02815260606004820152600b60648201527f506f77657220476c6f76650000000000000000000000000000000000000000006084820152602481018990526103e86044820152600160a060020a039190911690631c635ded9060a401600060405180830381600087803b1580156135bf57600080fd5b505af11580156135d3573d6000803e3d6000fd5b5050505080600160a060020a031663a318d45c6040518163ffffffff1660e060020a028152600401602060405180830381865afa158015613618573d6000803e3d6000fd5b505050506040513d601f19601f8201168201806040525081019061363c91906151d7565b60405160e060020a631c635ded02815260606004820152602160648201527f52656d6f7465204c61756e636820616e642047756964616e636520537973746560848201527f6d0000000000000000000000000000000000000000000000000000000000000060a4820152602481018990526103e86044820152600160a060020a039190911690631c635ded9060c401600060405180830381600087803b1580156136e557600080fd5b505af11580156136f9573d6000803e3d6000fd5b5050505080600160a060020a031663a318d45c6040518163ffffffff1660e060020a028152600401602060405180830381865afa15801561373e573d6000803e3d6000fd5b505050506040513d601f19601f8201168201806040525081019061376291906151d7565b60405160e060020a631c635ded02815260606004820152600f60648201527f54656c65706f72746572205061636b00000000000000000000000000000000006084820152602481018990526103e86044820152600160a060020a039190911690631c635ded9060a401600060405180830381600087803b1580156137e557600080fd5b505af11580156137f9573d6000803e3d6000fd5b5050505080600160a060020a031663a318d45c6040518163ffffffff1660e060020a028152600401602060405180830381865afa15801561383e573d6000803e3d6000fd5b505050506040513d601f19601f8201168201806040525081019061386291906151d7565b60405160e060020a631c635ded02815260606004820152600860648201527f43616d70736974650000000000000000000000000000000000000000000000006084820152602481018990526103e86044820152600160a060020a039190911690631c635ded9060a401600060405180830381600087803b1580156138e557600080fd5b505af11580156138f9573d6000803e3d6000fd5b5050505080600160a060020a031663c1cdbb3c6040518163ffffffff1660e060020a028152600401602060405180830381865afa15801561393e573d6000803e3d6000fd5b505050506040513d601f19601f8201168201806040525081019061396291906151d7565b60405160e060020a631c635ded02815260606004820152600760648201527f5374756e6e6564000000000000000000000000000000000000000000000000006084820152602481018990526103e86044820152600160a060020a039190911690631c635ded9060a401600060405180830381600087803b1580156139e557600080fd5b505af11580156139f9573d6000803e3d6000fd5b5050505080600160a060020a031663c1cdbb3c6040518163ffffffff1660e060020a028152600401602060405180830381865afa158015613a3e573d6000803e3d6000fd5b505050506040513d601f19601f82011682018060405250810190613a6291906151d7565b60405160e060020a631c635ded02815260606004820152600660648201527f4275726e656400000000000000000000000000000000000000000000000000006084820152602481018990526103e86044820152600160a060020a039190911690631c635ded9060a401600060405180830381600087803b158015613ae557600080fd5b505af1158015613af9573d6000803e3d6000fd5b5050505080600160a060020a03166345d339d96040518163ffffffff1660e060020a028152600401602060405180830381865afa158015613b3e573d6000803e3d6000fd5b505050506040513d601f19601f82011682018060405250810190613b6291906151d7565b60405160e060020a631c635ded02815260606004820152600f60648201527f456e677261766564205461626c657400000000000000000000000000000000006084820152602481018990526103e86044820152600160a060020a039190911690631c635ded9060a401600060405180830381600087803b158015613be557600080fd5b505af1158015613bf9573d6000803e3d6000fd5b5050505080600160a060020a03166345d339d96040518163ffffffff1660e060020a028152600401602060405180830381865afa158015613c3e573d6000803e3d6000fd5b505050506040513d601f19601f82011682018060405250810190613c6291906151d7565b60405160e060020a631c635ded02815260606004820152600960648201527f536967696c2047656d00000000000000000000000000000000000000000000006084820152602481018990526103e86044820152600160a060020a039190911690631c635ded9060a401600060405180830381600087803b158015613ce557600080fd5b505af1158015613cf9573d6000803e3d6000fd5b5050505080600160a060020a03166345d339d96040518163ffffffff1660e060020a028152600401602060405180830381865afa158015613d3e573d6000803e3d6000fd5b505050506040513d601f19601f82011682018060405250810190613d6291906151d7565b60405160e060020a631c635ded02815260606004820152600c60648201527f416e6369656e7420546f6d6500000000000000000000000000000000000000006084820152602481018990526103e86044820152600160a060020a039190911690631c635ded9060a401600060405180830381600087803b158015613de557600080fd5b505af1158015613df9573d6000803e3d6000fd5b5050505080600160a060020a031663cb8d2d2c6040518163ffffffff1660e060020a028152600401602060405180830381865afa158015613e3e573d6000803e3d6000fd5b505050506040513d601f19601f82011682018060405250810190613e6291906151d7565b60405160e060020a631c635ded02815260606004820152600760648201527f52656c69632031000000000000000000000000000000000000000000000000006084820152602481018990526103e86044820152600160a060020a039190911690631c635ded9060a401600060405180830381600087803b158015613ee557600080fd5b505af1158015613ef9573d6000803e3d6000fd5b5050505080600160a060020a031663cb8d2d2c6040518163ffffffff1660e060020a028152600401602060405180830381865afa158015613f3e573d6000803e3d6000fd5b505050506040513d601f19601f82011682018060405250810190613f6291906151d7565b60405160e060020a631c635ded02815260606004820152600760648201527f52656c69632032000000000000000000000000000000000000000000000000006084820152602481018990526103e86044820152600160a060020a039190911690631c635ded9060a401600060405180830381600087803b158015613fe557600080fd5b505af1158015613ff9573d6000803e3d6000fd5b5050505080600160a060020a031663cb8d2d2c6040518163ffffffff1660e060020a028152600401602060405180830381865afa15801561403e573d6000803e3d6000fd5b505050506040513d601f19601f8201168201806040525081019061406291906151d7565b60405160e060020a631c635ded02815260606004820152600760648201527f52656c69632033000000000000000000000000000000000000000000000000006084820152602481018990526103e86044820152600160a060020a039190911690631c635ded9060a401600060405180830381600087803b1580156140e557600080fd5b505af11580156140f9573d6000803e3d6000fd5b5050505080600160a060020a031663cb8d2d2c6040518163ffffffff1660e060020a028152600401602060405180830381865afa15801561413e573d6000803e3d6000fd5b505050506040513d601f19601f8201168201806040525081019061416291906151d7565b60405160e060020a631c635ded02815260606004820152600760648201527f52656c69632034000000000000000000000000000000000000000000000000006084820152602481018990526103e86044820152600160a060020a039190911690631c635ded9060a401600060405180830381600087803b1580156141e557600080fd5b505af11580156141f9573d6000803e3d6000fd5b5050505080600160a060020a031663cb8d2d2c6040518163ffffffff1660e060020a028152600401602060405180830381865afa15801561423e573d6000803e3d6000fd5b505050506040513d601f19601f8201168201806040525081019061426291906151d7565b60405160e060020a631c635ded02815260606004820152600760648201527f52656c69632035000000000000000000000000000000000000000000000000006084820152602481018990526103e86044820152600160a060020a039190911690631c635ded9060a401600060405180830381600087803b1580156142e557600080fd5b505af11580156142f9573d6000803e3d6000fd5b5050505080600160a060020a031663a906dfd16040518163ffffffff1660e060020a028152600401602060405180830381865afa15801561433e573d6000803e3d6000fd5b505050506040513d601f19601f8201168201806040525081019061436291906151d7565b600160a060020a031663d82910478860006001806040518563ffffffff1660e060020a028152600401614398949392919061551a565b600060405180830381600087803b1580156143b257600080fd5b505af11580156143c6573d6000803e3d6000fd5b5050505050505050505050565b6040517f72c6c6b6000000000000000000000000000000000000000000000000000000008152600160a060020a0383811660048301528291908216906372c6c6b69060240161048f565b6040517f9eb356cb0000000000000000000000000000000000000000000000000000000081526004810183905233602482015260448101849052600160a060020a03821690639eb356cb906064016020604051808303816000875af115801561448a573d6000803e3d6000fd5b505050506040513d601f19601f820116820180604052508101906102ef919061523f565b60008281526001602052604081206144c690836149a5565b9392505050565b600091825260208281526040808420600160a060020a0393909316845291905290205460ff1690565b6040517fb553910d000000000000000000000000000000000000000000000000000000008152600160a060020a0382811660048301526000919084169063b553910d90602401602060405180830381865afa158015614559573d6000803e3d6000fd5b505050506040513d601f19601f820116820180604052508101906144c691906153fd565b80600160a060020a031663d1e18d266040518163ffffffff1660e060020a028152600401600060405180830381600087803b1580156145bb57600080fd5b505af11580156145cf573d6000803e3d6000fd5b5050505050565b6000818152600160205260408120610346906149b1565b60008281526020819052604090206001015461460881614954565b6104eb8383614983565b6000819050600081600160a060020a031663c06dea4e6040518163ffffffff1660e060020a028152600401602060405180830381865afa15801561465a573d6000803e3d6000fd5b505050506040513d601f19601f8201168201806040525081019061467e91906151d7565b6040517fb81f6e1800000000000000000000000000000000000000000000000000000000815260048101869052336024820152909150600160a060020a0382169063b81f6e1890604401602060405180830381865afa1580156146e5573d6000803e3d6000fd5b505050506040513d601f19601f82011682018060405250810190614709919061523f565b6147585760405160e560020a62461bcd02815260206004820152601560248201527f706c61796572206e6f7420726567697374657265640000000000000000000000604482015260640161056d565b6040517ff8430708000000000000000000000000000000000000000000000000000000008152600160a060020a0383169063f8430708906147a29088906005908990600401615579565b600060405180830381600087803b1580156147bc57600080fd5b505af11580156147d0573d6000803e3d6000fd5b50506040517f9f82bcc0000000000000000000000000000000000000000000000000000000008152600160a060020a0385169250639f82bcc0915061481b90889088906004016155a9565b600060405180830381600087803b15801561483557600080fd5b505af1158015614849573d6000803e3d6000fd5b505050505050505050565b61485e82826144cd565b61058057600082815260208181526040808320600160a060020a03851684529091529020805460ff191660011790556148943390565b600160a060020a031681600160a060020a0316837f2f8788117e7eff1d82e926ec794901d17c78024a50270940304540a733656f0d60405160405180910390a45050565b60006144c683600160a060020a0384166149bb565b6000600160e060020a031982167f7965db0b00000000000000000000000000000000000000000000000000000000148061034657507f01ffc9a700000000000000000000000000000000000000000000000000000000600160e060020a0319831614610346565b61495e8133614a0a565b50565b61496b8282614854565b60008281526001602052604090206104eb90826148d8565b61498d8282614a71565b60008281526001602052604090206104eb9082614ad6565b60006144c68383614aeb565b6000610346825490565b6000818152600183016020526040812054614a0257508154600181810184556000848152602080822090930184905584548482528286019093526040902091909155610346565b506000610346565b614a1482826144cd565b61058057614a2c81600160a060020a03166014614b15565b614a37836020614b15565b604051602001614a489291906155cb565b60408051601f198184030181529082905260e560020a62461bcd02825261056d9160040161564c565b614a7b82826144cd565b1561058057600082815260208181526040808320600160a060020a0385168085529252808320805460ff1916905551339285917ff6391f5c32d9c69d2a47ea670b442974b53935d1edc7fd64eb21e047a839171b9190a45050565b60006144c683600160a060020a038416614d5f565b6000826000018281548110614b0257614b02615261565b9060005260206000200154905092915050565b60606000614b2483600261565f565b614b2f90600261548d565b67ffffffffffffffff811115614b4757614b47614ef7565b6040519080825280601f01601f191660200182016040528015614b71576020820181803683370190505b5090507f300000000000000000000000000000000000000000000000000000000000000081600081518110614ba857614ba8615261565b60200101907effffffffffffffffffffffffffffffffffffffffffffffffffffffffffffff1916908160001a9053507f780000000000000000000000000000000000000000000000000000000000000081600181518110614c0b57614c0b615261565b60200101907effffffffffffffffffffffffffffffffffffffffffffffffffffffffffffff1916908160001a9053506000614c4784600261565f565b614c5290600161548d565b90505b6001811115614d0d577f303132333435363738396162636465660000000000000000000000000000000085600f1660108110614c9357614c93615261565b1a7f010000000000000000000000000000000000000000000000000000000000000002828281518110614cc857614cc8615261565b60200101907effffffffffffffffffffffffffffffffffffffffffffffffffffffffffffff1916908160001a905350601090940493614d068161567e565b9050614c55565b5083156144c65760405160e560020a62461bcd02815260206004820181905260248201527f537472696e67733a20686578206c656e67746820696e73756666696369656e74604482015260640161056d565b60008181526001830160205260408120548015614e48576000614d83600183615695565b8554909150600090614d9790600190615695565b9050818114614dfc576000866000018281548110614db757614db7615261565b9060005260206000200154905080876000018481548110614dda57614dda615261565b6000918252602080832090910192909255918252600188019052604090208390555b8554869080614e0d57614e0d6156ac565b600190038181906000526020600020016000905590558560010160008681526020019081526020016000206000905560019350505050610346565b6000915050610346565b600060208284031215614e6457600080fd5b8135600160e060020a0319811681146144c657600080fd5b600060208284031215614e8e57600080fd5b5035919050565b600160a060020a038116811461495e57600080fd5b60008060408385031215614ebd57600080fd5b823591506020830135614ecf81614e95565b809150509250929050565b600060208284031215614eec57600080fd5b81356144c681614e95565b60e060020a634e487b7102600052604160045260246000fd5b604051601f8201601f1916810167ffffffffffffffff81118282101715614f3957614f39614ef7565b604052919050565b600067ffffffffffffffff821115614f5b57614f5b614ef7565b50601f01601f191660200190565b600082601f830112614f7a57600080fd5b8135614f8d614f8882614f41565b614f10565b818152846020838601011115614fa257600080fd5b816020850160208301376000918101602001919091529392505050565b600082601f830112614fd057600080fd5b8135602067ffffffffffffffff80831115614fed57614fed614ef7565b818302614ffb838201614f10565b938452858101830193838101908886111561501557600080fd5b84880192505b85831015615051578235848111156150335760008081fd5b6150418a87838c0101614f69565b835250918401919084019061501b565b98975050505050505050565b60008060006060848603121561507257600080fd5b833567ffffffffffffffff81111561508957600080fd5b61509586828701614fbf565b9350506020840135915060408401356150ad81614e95565b809150509250925092565b600080604083850312156150cb57600080fd5b82356150d681614e95565b91506020830135614ecf81614e95565b6000806000606084860312156150fb57600080fd5b833592506020840135915060408401356150ad81614e95565b6000806040838503121561512757600080fd5b50508035926020909101359150565b6000806000806080858703121561514c57600080fd5b84359350602085013560ff8116811461516457600080fd5b925060408501359150606085013567ffffffffffffffff81111561518757600080fd5b61519387828801614fbf565b91505092959194509250565b6000806000606084860312156151b457600080fd5b833567ffffffffffffffff8111156151cb57600080fd5b61509586828701614f69565b6000602082840312156151e957600080fd5b81516144c681614e95565b60a08101818560005b600381101561521f57815160ff168352602092830192909101906001016151fd565b505050836060830152600160a060020a0383166080830152949350505050565b60006020828403121561525157600080fd5b815180151581146144c657600080fd5b60e060020a634e487b7102600052603260045260246000fd5b60e060020a634e487b7102600052602160045260246000fd5b60e060020a634e487b7102600052601160045260246000fd5b60006000198214156152c0576152c0615293565b5060010190565b60005b838110156152e25781810151838201526020016152ca565b838111156102ef5750506000910152565b6000815180845261530b8160208601602086016152c7565b601f01601f19169290920160200192915050565b600c81106153405760e060020a634e487b7102600052602160045260246000fd5b9052565b6000608082016080835280875180835260a0850191506020925060a0838202860101838a0160005b8381101561539a57609f198884030185526153888383516152f3565b9486019492509085019060010161536c565b5050600160a060020a0389168685015260408601889052858103606087015286518082529084019250905085830160005b828110156153ee576153de84835161531f565b92840192908401906001016153cb565b50919998505050505050505050565b60006020828403121561540f57600080fd5b5051919050565b60006020828403121561542857600080fd5b815167ffffffffffffffff81111561543f57600080fd5b8201601f8101841361545057600080fd5b805161545e614f8882614f41565b81815285602083850101111561547357600080fd5b6154848260208301602086016152c7565b95945050505050565b600082198211156154a0576154a0615293565b500190565b600160a060020a038416815282602082015260606040820152600061548460608301846152f3565b60608152600061550a60608301600381527f4461790000000000000000000000000000000000000000000000000000000000602082015260400190565b6020830194909452506040015290565b60a08152600061555760a08301600381527f4461790000000000000000000000000000000000000000000000000000000000602082015260400190565b6020830196909652506040810193909352606083019190915260809091015290565b60608152600061558c60608301866152f3565b905061559b602083018561531f565b826040830152949350505050565b6040815260006155bc60408301856152f3565b90508260208301529392505050565b7f416363657373436f6e74726f6c3a206163636f756e74200000000000000000008152600083516156038160178501602088016152c7565b7f206973206d697373696e6720726f6c652000000000000000000000000000000060179184019182015283516156408160288401602088016152c7565b01602801949350505050565b6020815260006144c660208301846152f3565b600081600019048311821515161561567957615679615293565b500290565b60008161568d5761568d615293565b506000190190565b6000828210156156a7576156a7615293565b500390565b60e060020a634e487b7102600052603160045260246000fdfea2646970667358221220586a30d5fb6cbed3e30826af2124f78a253914fca7716976afe6a5b4b45d7fdb64736f6c634300080b0033",
  "immutableReferences": {},
  "source": "// SPDX-License-Identifier: GPL-3.0\npragma solidity >=0.7.0 <0.9.0;\n\nimport \"@luckymachines/game-core/contracts/src/v0.0/GameController.sol\";\nimport \"./HexplorationBoard.sol\";\nimport \"./HexplorationZone.sol\";\n//import \"./HexplorationQueue.sol\";\nimport \"./state/CharacterCard.sol\";\nimport \"./tokens/TokenInventory.sol\";\n\ncontract HexplorationController is GameController {\n    // functions are meant to be called directly by players by default\n    // we are adding the ability of a Controller Admin or Keeper to\n    // execute the game aspects not directly controlled by players\n    bytes32 public constant KEEPER_ROLE = keccak256(\"KEEPER_ROLE\");\n\n    // TODO:\n    // Connect to Chainlink VRF for random seeds when needed\n    // submit move + space choice\n    // use / swap item\n\n    /*\n    Controller can access all game tokens with the following methods:\n\n    function mint(\n        string memory tokenType,\n        uint256 gameID,\n        uint256 quantity\n    )\n\n    function transfer(\n        string memory tokenType,\n        uint256 gameID,\n        uint256 fromPlayerID,\n        uint256 toPlayerID,\n        uint256 quantity\n    )\n*/\n    modifier onlyAdminKeeper() {\n        require(\n            hasRole(DEFAULT_ADMIN_ROLE, _msgSender()) ||\n                hasRole(KEEPER_ROLE, _msgSender()),\n            \"Admin or Keeper role required\"\n        );\n        _;\n    }\n\n    constructor(address adminAddress) GameController(adminAddress) {}\n\n    // Admin Functions\n\n    function addKeeper(address keeperAddress)\n        public\n        onlyRole(DEFAULT_ADMIN_ROLE)\n    {\n        grantRole(KEEPER_ROLE, keeperAddress);\n    }\n\n    // Admin or Keeper Interactions\n    function runBoardUpdate(address boardAddress) public {\n        HexplorationBoard(boardAddress).runUpdate();\n    }\n\n    function startGame(uint256 gameID, address boardAddress) public {\n        HexplorationBoard board = HexplorationBoard(boardAddress);\n        require(board.gameState(gameID) == 0, \"game already started\");\n\n        PlayerRegistry pr = PlayerRegistry(board.prAddress());\n        board.lockRegistration(gameID);\n        uint256 totalRegistrations = pr.totalRegistrations(gameID);\n        string memory startZone = board.initialPlayZone(gameID);\n        for (uint256 i = 0; i < totalRegistrations; i++) {\n            address playerAddress = pr.playerAddress(gameID, i + 1);\n            board.enterPlayer(playerAddress, gameID, startZone);\n        }\n        // set game to initialized\n        board.setGameState(2, gameID);\n\n        TokenInventory ti = TokenInventory(board.tokenInventory());\n        // mint game tokens (maybe mint on demand instead...)\n        // minting full game set here\n        ti.DAY_NIGHT_TOKEN().mint(\"Day\", gameID, 1);\n        ti.DAY_NIGHT_TOKEN().mint(\"Night\", gameID, 1);\n        ti.DISASTER_TOKEN().mint(\"Earthquake\", gameID, 1000);\n        ti.DISASTER_TOKEN().mint(\"Volcano\", gameID, 1000);\n        ti.ENEMY_TOKEN().mint(\"Pirate\", gameID, 1000);\n        ti.ENEMY_TOKEN().mint(\"Pirate Ship\", gameID, 1000);\n        ti.ENEMY_TOKEN().mint(\"Deathbot\", gameID, 1000);\n        ti.ENEMY_TOKEN().mint(\"Guardian\", gameID, 1000);\n        ti.ENEMY_TOKEN().mint(\"Sandworm\", gameID, 1000);\n        ti.ENEMY_TOKEN().mint(\"Dragon\", gameID, 1000);\n        ti.ITEM_TOKEN().mint(\"Small Ammo\", gameID, 1000);\n        ti.ITEM_TOKEN().mint(\"Large Ammo\", gameID, 1000);\n        ti.ITEM_TOKEN().mint(\"Batteries\", gameID, 1000);\n        ti.ITEM_TOKEN().mint(\"Shield\", gameID, 1000);\n        ti.ITEM_TOKEN().mint(\"Portal\", gameID, 1000);\n        ti.ITEM_TOKEN().mint(\"On\", gameID, 1000);\n        ti.ITEM_TOKEN().mint(\"Off\", gameID, 1000);\n        ti.ITEM_TOKEN().mint(\"Rusty Dagger\", gameID, 1000);\n        ti.ITEM_TOKEN().mint(\"Rusty Sword\", gameID, 1000);\n        ti.ITEM_TOKEN().mint(\"Rusty Pistol\", gameID, 1000);\n        ti.ITEM_TOKEN().mint(\"Rusty Rifle\", gameID, 1000);\n        ti.ITEM_TOKEN().mint(\"Shiny Dagger\", gameID, 1000);\n        ti.ITEM_TOKEN().mint(\"Shiny Sword\", gameID, 1000);\n        ti.ITEM_TOKEN().mint(\"Shiny Rifle\", gameID, 1000);\n        ti.ITEM_TOKEN().mint(\"Laser Dagger\", gameID, 1000);\n        ti.ITEM_TOKEN().mint(\"Laser Sword\", gameID, 1000);\n        ti.ITEM_TOKEN().mint(\"Laser Pistol\", gameID, 1000);\n        ti.ITEM_TOKEN().mint(\"Laser Rifle\", gameID, 1000);\n        ti.ITEM_TOKEN().mint(\"Glow stick\", gameID, 1000);\n        ti.ITEM_TOKEN().mint(\"Flashlight\", gameID, 1000);\n        ti.ITEM_TOKEN().mint(\"Flood light\", gameID, 1000);\n        ti.ITEM_TOKEN().mint(\"Nightvision Goggles\", gameID, 1000);\n        ti.ITEM_TOKEN().mint(\"Personal Shield\", gameID, 1000);\n        ti.ITEM_TOKEN().mint(\"Bubble Shield\", gameID, 1000);\n        ti.ITEM_TOKEN().mint(\"Frag Grenade\", gameID, 1000);\n        ti.ITEM_TOKEN().mint(\"Fire Grenade\", gameID, 1000);\n        ti.ITEM_TOKEN().mint(\"Shock Grenade\", gameID, 1000);\n        ti.ITEM_TOKEN().mint(\"HE Mortar\", gameID, 1000);\n        ti.ITEM_TOKEN().mint(\"Incendiary Mortar\", gameID, 1000);\n        ti.ITEM_TOKEN().mint(\"EMP Mortar\", gameID, 1000);\n        ti.ITEM_TOKEN().mint(\"Power Glove\", gameID, 1000);\n        ti.ITEM_TOKEN().mint(\"Remote Launch and Guidance System\", gameID, 1000);\n        ti.ITEM_TOKEN().mint(\"Teleporter Pack\", gameID, 1000);\n        ti.ITEM_TOKEN().mint(\"Campsite\", gameID, 1000);\n        ti.PLAYER_STATUS_TOKEN().mint(\"Stunned\", gameID, 1000);\n        ti.PLAYER_STATUS_TOKEN().mint(\"Burned\", gameID, 1000);\n        ti.ARTIFACT_TOKEN().mint(\"Engraved Tablet\", gameID, 1000);\n        ti.ARTIFACT_TOKEN().mint(\"Sigil Gem\", gameID, 1000);\n        ti.ARTIFACT_TOKEN().mint(\"Ancient Tome\", gameID, 1000);\n        ti.RELIC_TOKEN().mint(\"Relic 1\", gameID, 1000);\n        ti.RELIC_TOKEN().mint(\"Relic 2\", gameID, 1000);\n        ti.RELIC_TOKEN().mint(\"Relic 3\", gameID, 1000);\n        ti.RELIC_TOKEN().mint(\"Relic 4\", gameID, 1000);\n        ti.RELIC_TOKEN().mint(\"Relic 5\", gameID, 1000);\n        // Transfer day token to board\n        ti.DAY_NIGHT_TOKEN().transfer(\"Day\", gameID, 0, 1, 1);\n    }\n\n    //Player Interactions\n    function registerForGame(uint256 gameID, address boardAddress) public {\n        HexplorationBoard board = HexplorationBoard(boardAddress);\n        board.registerPlayer(msg.sender, gameID);\n        CharacterCard(board.characterCard()).setStats(\n            [4, 4, 4],\n            gameID,\n            msg.sender\n        );\n        // send campsite token to player\n    }\n\n    function submitAction(\n        uint256 gameID,\n        uint8 actionIndex,\n        uint256 playerID,\n        string[] memory options\n    ) public {\n        // TODO: sumbit to queue\n    }\n\n    function moveThroughPath(\n        string[] memory zonePath,\n        uint256 gameID,\n        address boardAddress\n    ) public {\n        // TODO:\n        // verify move is valid\n        // pick tiles from deck\n        HexplorationBoard board = HexplorationBoard(boardAddress);\n        PlayerRegistry pr = PlayerRegistry(board.prAddress());\n        require(pr.isRegistered(gameID, msg.sender), \"player not registered\");\n\n        HexplorationZone.Tile[] memory tiles = new HexplorationZone.Tile[](\n            zonePath.length\n        );\n        for (uint256 i = 0; i < zonePath.length; i++) {\n            tiles[i] = i == 0 ? HexplorationZone.Tile.Jungle : i == 1\n                ? HexplorationZone.Tile.Plains\n                : HexplorationZone.Tile.Mountain;\n        }\n\n        HexplorationBoard(boardAddress).moveThroughPath(\n            zonePath,\n            msg.sender,\n            gameID,\n            tiles\n        );\n    }\n\n    function chooseLandingSite(\n        string memory zoneChoice,\n        uint256 gameID,\n        address boardAddress\n    ) public {\n        // TODO: must be player 2 or on single player, p1\n        HexplorationBoard board = HexplorationBoard(boardAddress);\n        PlayerRegistry pr = PlayerRegistry(board.prAddress());\n        require(pr.isRegistered(gameID, msg.sender), \"player not registered\");\n\n        board.enableZone(zoneChoice, HexplorationZone.Tile.LandingSite, gameID);\n        // set landing site at space on board\n        board.setInitialPlayZone(zoneChoice, gameID);\n    }\n\n    // TODO: limit this to authorized game starters\n    function requestNewGame(address gameRegistryAddress, address boardAddress)\n        public\n    {\n        HexplorationBoard board = HexplorationBoard(boardAddress);\n        board.requestNewGame(gameRegistryAddress);\n    }\n\n    function latestGame(address gameRegistryAddress, address boardAddress)\n        public\n        view\n        returns (uint256)\n    {\n        return GameRegistry(gameRegistryAddress).latestGame(boardAddress);\n    }\n}\n",
  "sourcePath": "/Users/maxmeier/Developer/Lucky Machines/hexploration/contracts/HexplorationController.sol",
  "compiler": {
    "name": "solc",
    "version": "0.8.11+commit.d7f03943.Emscripten.clang"
  },
  "schemaVersion": "3.4.4",
  "updatedAt": "2022-05-17T04:27:33.229Z",
  "networkType": "ethereum",
  "devdoc": {
    "kind": "dev",
    "methods": {
      "getRoleAdmin(bytes32)": {
        "details": "Returns the admin role that controls `role`. See {grantRole} and {revokeRole}. To change a role's admin, use {_setRoleAdmin}."
      },
      "getRoleMember(bytes32,uint256)": {
        "details": "Returns one of the accounts that have `role`. `index` must be a value between 0 and {getRoleMemberCount}, non-inclusive. Role bearers are not sorted in any particular way, and their ordering may change at any point. WARNING: When using {getRoleMember} and {getRoleMemberCount}, make sure you perform all queries on the same block. See the following https://forum.openzeppelin.com/t/iterating-over-elements-on-enumerableset-in-openzeppelin-contracts/2296[forum post] for more information."
      },
      "getRoleMemberCount(bytes32)": {
        "details": "Returns the number of accounts that have `role`. Can be used together with {getRoleMember} to enumerate all bearers of a role."
      },
      "grantRole(bytes32,address)": {
        "details": "Grants `role` to `account`. If `account` had not been already granted `role`, emits a {RoleGranted} event. Requirements: - the caller must have ``role``'s admin role."
      },
      "hasRole(bytes32,address)": {
        "details": "Returns `true` if `account` has been granted `role`."
      },
      "renounceRole(bytes32,address)": {
        "details": "Revokes `role` from the calling account. Roles are often managed via {grantRole} and {revokeRole}: this function's purpose is to provide a mechanism for accounts to lose their privileges if they are compromised (such as when a trusted device is misplaced). If the calling account had been revoked `role`, emits a {RoleRevoked} event. Requirements: - the caller must be `account`."
      },
      "revokeRole(bytes32,address)": {
        "details": "Revokes `role` from `account`. If `account` had been granted `role`, emits a {RoleRevoked} event. Requirements: - the caller must have ``role``'s admin role."
      },
      "supportsInterface(bytes4)": {
        "details": "See {IERC165-supportsInterface}."
      }
    },
    "version": 1
  },
  "userdoc": {
    "kind": "user",
    "methods": {},
    "version": 1
  }
}