{
  "contractName": "HexplorationBoard",
  "abi": [
    {
      "inputs": [
        {
          "internalType": "address",
          "name": "adminAddress",
          "type": "address"
        },
        {
          "internalType": "uint256",
          "name": "gridWidth",
          "type": "uint256"
        },
        {
          "internalType": "uint256",
          "name": "gridHeight",
          "type": "uint256"
        },
        {
          "internalType": "address",
          "name": "zoneAddress",
          "type": "address"
        }
      ],
      "stateMutability": "nonpayable",
      "type": "constructor"
    },
    {
      "anonymous": false,
      "inputs": [
        {
          "indexed": true,
          "internalType": "bytes32",
          "name": "role",
          "type": "bytes32"
        },
        {
          "indexed": true,
          "internalType": "bytes32",
          "name": "previousAdminRole",
          "type": "bytes32"
        },
        {
          "indexed": true,
          "internalType": "bytes32",
          "name": "newAdminRole",
          "type": "bytes32"
        }
      ],
      "name": "RoleAdminChanged",
      "type": "event"
    },
    {
      "anonymous": false,
      "inputs": [
        {
          "indexed": true,
          "internalType": "bytes32",
          "name": "role",
          "type": "bytes32"
        },
        {
          "indexed": true,
          "internalType": "address",
          "name": "account",
          "type": "address"
        },
        {
          "indexed": true,
          "internalType": "address",
          "name": "sender",
          "type": "address"
        }
      ],
      "name": "RoleGranted",
      "type": "event"
    },
    {
      "anonymous": false,
      "inputs": [
        {
          "indexed": true,
          "internalType": "bytes32",
          "name": "role",
          "type": "bytes32"
        },
        {
          "indexed": true,
          "internalType": "address",
          "name": "account",
          "type": "address"
        },
        {
          "indexed": true,
          "internalType": "address",
          "name": "sender",
          "type": "address"
        }
      ],
      "name": "RoleRevoked",
      "type": "event"
    },
    {
      "inputs": [],
      "name": "DEFAULT_ADMIN_ROLE",
      "outputs": [
        {
          "internalType": "bytes32",
          "name": "",
          "type": "bytes32"
        }
      ],
      "stateMutability": "view",
      "type": "function"
    },
    {
      "inputs": [],
      "name": "FACTORY_ROLE",
      "outputs": [
        {
          "internalType": "bytes32",
          "name": "",
          "type": "bytes32"
        }
      ],
      "stateMutability": "view",
      "type": "function"
    },
    {
      "inputs": [],
      "name": "GAME_MASTER_ROLE",
      "outputs": [
        {
          "internalType": "bytes32",
          "name": "",
          "type": "bytes32"
        }
      ],
      "stateMutability": "view",
      "type": "function"
    },
    {
      "inputs": [],
      "name": "MAX_BATCH_SIZE",
      "outputs": [
        {
          "internalType": "uint256",
          "name": "",
          "type": "uint256"
        }
      ],
      "stateMutability": "view",
      "type": "function"
    },
    {
      "inputs": [],
      "name": "PLAY_ZONE_ROLE",
      "outputs": [
        {
          "internalType": "bytes32",
          "name": "",
          "type": "bytes32"
        }
      ],
      "stateMutability": "view",
      "type": "function"
    },
    {
      "inputs": [],
      "name": "VERIFIED_CONTROLLER_ROLE",
      "outputs": [
        {
          "internalType": "bytes32",
          "name": "",
          "type": "bytes32"
        }
      ],
      "stateMutability": "view",
      "type": "function"
    },
    {
      "inputs": [
        {
          "internalType": "uint256",
          "name": "transitID",
          "type": "uint256"
        }
      ],
      "name": "_progressTransit",
      "outputs": [],
      "stateMutability": "nonpayable",
      "type": "function"
    },
    {
      "inputs": [
        {
          "internalType": "address",
          "name": "factoryAddress",
          "type": "address"
        }
      ],
      "name": "addFactory",
      "outputs": [],
      "stateMutability": "nonpayable",
      "type": "function"
    },
    {
      "inputs": [
        {
          "internalType": "address",
          "name": "keeperAddress",
          "type": "address"
        }
      ],
      "name": "addKeeper",
      "outputs": [],
      "stateMutability": "nonpayable",
      "type": "function"
    },
    {
      "inputs": [
        {
          "internalType": "address",
          "name": "vcAddress",
          "type": "address"
        }
      ],
      "name": "addVerifiedController",
      "outputs": [],
      "stateMutability": "nonpayable",
      "type": "function"
    },
    {
      "inputs": [
        {
          "internalType": "uint256",
          "name": "gameID",
          "type": "uint256"
        },
        {
          "internalType": "string[2][]",
          "name": "connections",
          "type": "string[2][]"
        }
      ],
      "name": "addZoneConnections",
      "outputs": [],
      "stateMutability": "nonpayable",
      "type": "function"
    },
    {
      "inputs": [
        {
          "internalType": "address[]",
          "name": "playZoneAddresses",
          "type": "address[]"
        },
        {
          "internalType": "string[]",
          "name": "zoneAliases",
          "type": "string[]"
        },
        {
          "internalType": "uint256",
          "name": "gameID",
          "type": "uint256"
        }
      ],
      "name": "addZones",
      "outputs": [],
      "stateMutability": "nonpayable",
      "type": "function"
    },
    {
      "inputs": [],
      "name": "cleanQueue",
      "outputs": [],
      "stateMutability": "nonpayable",
      "type": "function"
    },
    {
      "inputs": [
        {
          "internalType": "address",
          "name": "_playerRegistry",
          "type": "address"
        },
        {
          "internalType": "address",
          "name": "_gameRegistry",
          "type": "address"
        }
      ],
      "name": "createGame",
      "outputs": [
        {
          "internalType": "uint256",
          "name": "gameID",
          "type": "uint256"
        }
      ],
      "stateMutability": "nonpayable",
      "type": "function"
    },
    {
      "inputs": [
        {
          "internalType": "address",
          "name": "_playerRegistry",
          "type": "address"
        },
        {
          "internalType": "address",
          "name": "_gameRegistry",
          "type": "address"
        },
        {
          "internalType": "address[]",
          "name": "playZoneAddresses",
          "type": "address[]"
        },
        {
          "internalType": "string[]",
          "name": "zoneAliases",
          "type": "string[]"
        }
      ],
      "name": "createGame",
      "outputs": [
        {
          "internalType": "uint256",
          "name": "gameID",
          "type": "uint256"
        }
      ],
      "stateMutability": "nonpayable",
      "type": "function"
    },
    {
      "inputs": [],
      "name": "createGrid",
      "outputs": [],
      "stateMutability": "nonpayable",
      "type": "function"
    },
    {
      "inputs": [
        {
          "internalType": "uint256",
          "name": "",
          "type": "uint256"
        },
        {
          "internalType": "uint256",
          "name": "",
          "type": "uint256"
        }
      ],
      "name": "currentPlayZone",
      "outputs": [
        {
          "internalType": "string",
          "name": "",
          "type": "string"
        }
      ],
      "stateMutability": "view",
      "type": "function"
    },
    {
      "inputs": [
        {
          "internalType": "uint256",
          "name": "",
          "type": "uint256"
        },
        {
          "internalType": "uint256",
          "name": "",
          "type": "uint256"
        }
      ],
      "name": "entryQueue",
      "outputs": [
        {
          "internalType": "uint256",
          "name": "",
          "type": "uint256"
        }
      ],
      "stateMutability": "view",
      "type": "function"
    },
    {
      "inputs": [
        {
          "internalType": "uint256",
          "name": "gameID",
          "type": "uint256"
        },
        {
          "internalType": "address",
          "name": "playerAddress",
          "type": "address"
        },
        {
          "internalType": "uint256",
          "name": "pathIndex",
          "type": "uint256"
        }
      ],
      "name": "exitToPath",
      "outputs": [
        {
          "internalType": "bool",
          "name": "exitSuccess",
          "type": "bool"
        }
      ],
      "stateMutability": "nonpayable",
      "type": "function"
    },
    {
      "inputs": [
        {
          "internalType": "uint256",
          "name": "",
          "type": "uint256"
        }
      ],
      "name": "gameState",
      "outputs": [
        {
          "internalType": "uint256",
          "name": "",
          "type": "uint256"
        }
      ],
      "stateMutability": "view",
      "type": "function"
    },
    {
      "inputs": [
        {
          "internalType": "uint256",
          "name": "gameID",
          "type": "uint256"
        },
        {
          "internalType": "string",
          "name": "_zoneAlias",
          "type": "string"
        }
      ],
      "name": "getInputs",
      "outputs": [
        {
          "internalType": "string[]",
          "name": "zoneInputs",
          "type": "string[]"
        }
      ],
      "stateMutability": "view",
      "type": "function"
    },
    {
      "inputs": [
        {
          "internalType": "uint256",
          "name": "gameID",
          "type": "uint256"
        },
        {
          "internalType": "string",
          "name": "_zoneAlias",
          "type": "string"
        }
      ],
      "name": "getOutputs",
      "outputs": [
        {
          "internalType": "string[]",
          "name": "zoneOutputs",
          "type": "string[]"
        }
      ],
      "stateMutability": "view",
      "type": "function"
    },
    {
      "inputs": [
        {
          "internalType": "uint256",
          "name": "gameID",
          "type": "uint256"
        }
      ],
      "name": "getOverflowQueue",
      "outputs": [
        {
          "internalType": "uint256[]",
          "name": "",
          "type": "uint256[]"
        }
      ],
      "stateMutability": "view",
      "type": "function"
    },
    {
      "inputs": [
        {
          "internalType": "uint256",
          "name": "gameID",
          "type": "uint256"
        }
      ],
      "name": "getPlayZones",
      "outputs": [
        {
          "internalType": "string[]",
          "name": "",
          "type": "string[]"
        }
      ],
      "stateMutability": "view",
      "type": "function"
    },
    {
      "inputs": [
        {
          "internalType": "bytes32",
          "name": "role",
          "type": "bytes32"
        }
      ],
      "name": "getRoleAdmin",
      "outputs": [
        {
          "internalType": "bytes32",
          "name": "",
          "type": "bytes32"
        }
      ],
      "stateMutability": "view",
      "type": "function"
    },
    {
      "inputs": [
        {
          "internalType": "bytes32",
          "name": "role",
          "type": "bytes32"
        },
        {
          "internalType": "uint256",
          "name": "index",
          "type": "uint256"
        }
      ],
      "name": "getRoleMember",
      "outputs": [
        {
          "internalType": "address",
          "name": "",
          "type": "address"
        }
      ],
      "stateMutability": "view",
      "type": "function"
    },
    {
      "inputs": [
        {
          "internalType": "bytes32",
          "name": "role",
          "type": "bytes32"
        }
      ],
      "name": "getRoleMemberCount",
      "outputs": [
        {
          "internalType": "uint256",
          "name": "",
          "type": "uint256"
        }
      ],
      "stateMutability": "view",
      "type": "function"
    },
    {
      "inputs": [],
      "name": "getZoneAliases",
      "outputs": [
        {
          "internalType": "string[]",
          "name": "",
          "type": "string[]"
        }
      ],
      "stateMutability": "view",
      "type": "function"
    },
    {
      "inputs": [
        {
          "internalType": "bytes32",
          "name": "role",
          "type": "bytes32"
        },
        {
          "internalType": "address",
          "name": "account",
          "type": "address"
        }
      ],
      "name": "grantRole",
      "outputs": [],
      "stateMutability": "nonpayable",
      "type": "function"
    },
    {
      "inputs": [],
      "name": "gridHeight",
      "outputs": [
        {
          "internalType": "uint256",
          "name": "",
          "type": "uint256"
        }
      ],
      "stateMutability": "view",
      "type": "function"
    },
    {
      "inputs": [],
      "name": "gridWidth",
      "outputs": [
        {
          "internalType": "uint256",
          "name": "",
          "type": "uint256"
        }
      ],
      "stateMutability": "view",
      "type": "function"
    },
    {
      "inputs": [
        {
          "internalType": "bytes32",
          "name": "role",
          "type": "bytes32"
        },
        {
          "internalType": "address",
          "name": "account",
          "type": "address"
        }
      ],
      "name": "hasRole",
      "outputs": [
        {
          "internalType": "bool",
          "name": "",
          "type": "bool"
        }
      ],
      "stateMutability": "view",
      "type": "function"
    },
    {
      "inputs": [
        {
          "internalType": "uint256",
          "name": "",
          "type": "uint256"
        }
      ],
      "name": "initialPlayZone",
      "outputs": [
        {
          "internalType": "string",
          "name": "",
          "type": "string"
        }
      ],
      "stateMutability": "view",
      "type": "function"
    },
    {
      "inputs": [
        {
          "internalType": "address",
          "name": "factoryAddress",
          "type": "address"
        }
      ],
      "name": "isFactory",
      "outputs": [
        {
          "internalType": "bool",
          "name": "factoryIsAuthorized",
          "type": "bool"
        }
      ],
      "stateMutability": "view",
      "type": "function"
    },
    {
      "inputs": [
        {
          "internalType": "uint256",
          "name": "",
          "type": "uint256"
        }
      ],
      "name": "lastEntryPlayerID",
      "outputs": [
        {
          "internalType": "uint256",
          "name": "",
          "type": "uint256"
        }
      ],
      "stateMutability": "view",
      "type": "function"
    },
    {
      "inputs": [],
      "name": "needsUpdate",
      "outputs": [
        {
          "internalType": "bool",
          "name": "doesNeedUpdate",
          "type": "bool"
        }
      ],
      "stateMutability": "view",
      "type": "function"
    },
    {
      "inputs": [
        {
          "internalType": "uint256",
          "name": "",
          "type": "uint256"
        },
        {
          "internalType": "string",
          "name": "",
          "type": "string"
        },
        {
          "internalType": "uint256",
          "name": "",
          "type": "uint256"
        }
      ],
      "name": "playZoneInputs",
      "outputs": [
        {
          "internalType": "string",
          "name": "",
          "type": "string"
        }
      ],
      "stateMutability": "view",
      "type": "function"
    },
    {
      "inputs": [
        {
          "internalType": "uint256",
          "name": "",
          "type": "uint256"
        },
        {
          "internalType": "string",
          "name": "",
          "type": "string"
        },
        {
          "internalType": "uint256",
          "name": "",
          "type": "uint256"
        }
      ],
      "name": "playZoneOutputs",
      "outputs": [
        {
          "internalType": "string",
          "name": "",
          "type": "string"
        }
      ],
      "stateMutability": "view",
      "type": "function"
    },
    {
      "inputs": [
        {
          "internalType": "uint256",
          "name": "",
          "type": "uint256"
        },
        {
          "internalType": "uint256",
          "name": "",
          "type": "uint256"
        }
      ],
      "name": "playZones",
      "outputs": [
        {
          "internalType": "string",
          "name": "",
          "type": "string"
        }
      ],
      "stateMutability": "view",
      "type": "function"
    },
    {
      "inputs": [
        {
          "internalType": "uint256",
          "name": "gameID",
          "type": "uint256"
        },
        {
          "internalType": "address",
          "name": "playerAddress",
          "type": "address"
        },
        {
          "internalType": "string",
          "name": "_zoneAlias",
          "type": "string"
        }
      ],
      "name": "playerEnteredZone",
      "outputs": [],
      "stateMutability": "nonpayable",
      "type": "function"
    },
    {
      "inputs": [
        {
          "internalType": "uint256",
          "name": "",
          "type": "uint256"
        }
      ],
      "name": "playerRegistry",
      "outputs": [
        {
          "internalType": "uint256",
          "name": "",
          "type": "uint256"
        }
      ],
      "stateMutability": "view",
      "type": "function"
    },
    {
      "inputs": [],
      "name": "prAddress",
      "outputs": [
        {
          "internalType": "address",
          "name": "",
          "type": "address"
        }
      ],
      "stateMutability": "view",
      "type": "function"
    },
    {
      "inputs": [
        {
          "internalType": "uint256",
          "name": "gameID",
          "type": "uint256"
        },
        {
          "internalType": "address[]",
          "name": "playerAddresses",
          "type": "address[]"
        },
        {
          "internalType": "uint256[]",
          "name": "pathIndices",
          "type": "uint256[]"
        },
        {
          "internalType": "uint256",
          "name": "transitID",
          "type": "uint256"
        }
      ],
      "name": "queueExitToPaths",
      "outputs": [],
      "stateMutability": "nonpayable",
      "type": "function"
    },
    {
      "inputs": [
        {
          "internalType": "uint256",
          "name": "gameID",
          "type": "uint256"
        },
        {
          "internalType": "string[]",
          "name": "inputAliases",
          "type": "string[]"
        },
        {
          "internalType": "uint256[]",
          "name": "inputs",
          "type": "uint256[]"
        },
        {
          "internalType": "string[]",
          "name": "outputAliases",
          "type": "string[]"
        },
        {
          "internalType": "uint256[]",
          "name": "outputs",
          "type": "uint256[]"
        }
      ],
      "name": "removeZoneConnections",
      "outputs": [],
      "stateMutability": "nonpayable",
      "type": "function"
    },
    {
      "inputs": [
        {
          "internalType": "bytes32",
          "name": "role",
          "type": "bytes32"
        },
        {
          "internalType": "address",
          "name": "account",
          "type": "address"
        }
      ],
      "name": "renounceRole",
      "outputs": [],
      "stateMutability": "nonpayable",
      "type": "function"
    },
    {
      "inputs": [
        {
          "internalType": "bytes32",
          "name": "role",
          "type": "bytes32"
        },
        {
          "internalType": "address",
          "name": "account",
          "type": "address"
        }
      ],
      "name": "revokeRole",
      "outputs": [],
      "stateMutability": "nonpayable",
      "type": "function"
    },
    {
      "inputs": [],
      "name": "runUpdate",
      "outputs": [],
      "stateMutability": "nonpayable",
      "type": "function"
    },
    {
      "inputs": [
        {
          "internalType": "string",
          "name": "initialZone",
          "type": "string"
        },
        {
          "internalType": "uint256",
          "name": "gameID",
          "type": "uint256"
        }
      ],
      "name": "setInitialPlayZone",
      "outputs": [],
      "stateMutability": "nonpayable",
      "type": "function"
    },
    {
      "inputs": [
        {
          "internalType": "uint256",
          "name": "gameID",
          "type": "uint256"
        }
      ],
      "name": "startGame",
      "outputs": [],
      "stateMutability": "nonpayable",
      "type": "function"
    },
    {
      "inputs": [
        {
          "internalType": "uint256",
          "name": "transitID",
          "type": "uint256"
        }
      ],
      "name": "startTransit",
      "outputs": [],
      "stateMutability": "nonpayable",
      "type": "function"
    },
    {
      "inputs": [
        {
          "internalType": "bytes4",
          "name": "interfaceId",
          "type": "bytes4"
        }
      ],
      "name": "supportsInterface",
      "outputs": [
        {
          "internalType": "bool",
          "name": "",
          "type": "bool"
        }
      ],
      "stateMutability": "view",
      "type": "function"
    },
    {
      "inputs": [],
      "name": "zoneAddress",
      "outputs": [
        {
          "internalType": "address",
          "name": "",
          "type": "address"
        }
      ],
      "stateMutability": "view",
      "type": "function"
    },
    {
      "inputs": [
        {
          "internalType": "uint256",
          "name": "",
          "type": "uint256"
        },
        {
          "internalType": "string",
          "name": "",
          "type": "string"
        }
      ],
      "name": "zoneAlias",
      "outputs": [
        {
          "internalType": "address",
          "name": "",
          "type": "address"
        }
      ],
      "stateMutability": "view",
      "type": "function"
    },
    {
      "inputs": [
        {
          "internalType": "uint256",
          "name": "",
          "type": "uint256"
        }
      ],
      "name": "zoneAliases",
      "outputs": [
        {
          "internalType": "string",
          "name": "",
          "type": "string"
        }
      ],
      "stateMutability": "view",
      "type": "function"
    },
    {
      "inputs": [
        {
          "internalType": "uint256",
          "name": "",
          "type": "uint256"
        },
        {
          "internalType": "string",
          "name": "",
          "type": "string"
        }
      ],
      "name": "zoneEnabled",
      "outputs": [
        {
          "internalType": "bool",
          "name": "",
          "type": "bool"
        }
      ],
      "stateMutability": "view",
      "type": "function"
    },
    {
      "inputs": [],
      "name": "hexZoneAddress",
      "outputs": [
        {
          "internalType": "address",
          "name": "",
          "type": "address"
        }
      ],
      "stateMutability": "view",
      "type": "function"
    },
    {
      "inputs": [
        {
          "internalType": "uint256",
          "name": "randomness",
          "type": "uint256"
        }
      ],
      "name": "setRandomness",
      "outputs": [],
      "stateMutability": "nonpayable",
      "type": "function"
    },
    {
      "inputs": [
        {
          "internalType": "uint256",
          "name": "gameID",
          "type": "uint256"
        }
      ],
      "name": "start",
      "outputs": [],
      "stateMutability": "nonpayable",
      "type": "function"
    },
    {
      "inputs": [
        {
          "internalType": "string",
          "name": "zoneAlias",
          "type": "string"
        },
        {
          "internalType": "enum HexplorationZone.Tile",
          "name": "tile",
          "type": "uint8"
        },
        {
          "internalType": "uint256",
          "name": "gameID",
          "type": "uint256"
        }
      ],
      "name": "enableZone",
      "outputs": [],
      "stateMutability": "nonpayable",
      "type": "function"
    },
    {
      "inputs": [
        {
          "internalType": "string[]",
          "name": "zonePath",
          "type": "string[]"
        },
        {
          "internalType": "address",
          "name": "playerAddress",
          "type": "address"
        },
        {
          "internalType": "uint256",
          "name": "gameID",
          "type": "uint256"
        },
        {
          "internalType": "enum HexplorationZone.Tile[]",
          "name": "tiles",
          "type": "uint8[]"
        }
      ],
      "name": "moveThroughPath",
      "outputs": [],
      "stateMutability": "nonpayable",
      "type": "function"
    }
  ],
  "bytecode": "0x60806040523480156200001157600080fd5b5060405162004958380380620049588339810160408190526200003491620002a8565b83838383836200004f600082640100000000620000c9810204565b620000847f1d93c87416ca7b54f0fb8323167b72760e8e2ec93d48660953897a150f97a8b482640100000000620000c9810204565b50600e92909255600f5560108054600160a060020a03928316600160a060020a031991821617909155601380549490921693169290921790915550620002f392505050565b620000de8282640100000000620000e2810204565b5050565b620000fc82826401000000006200282d6200012982021704565b6000828152600160205260409020620001249082640100000000620028b1620001c582021704565b505050565b6200013e8282640100000000620001ee810204565b620000de57600082815260208181526040808320600160a060020a03851684529091529020805460ff191660011790556200018164010000000062000217810204565b600160a060020a031681600160a060020a0316837f2f8788117e7eff1d82e926ec794901d17c78024a50270940304540a733656f0d60405160405180910390a45050565b6000620001e583600160a060020a0384166401000000006200021b810204565b90505b92915050565b600091825260208281526040808420600160a060020a0393909316845291905290205460ff1690565b3390565b600062000232838364010000000062000273810204565b6200026a57508154600181810184556000848152602080822090930184905584548482528286019093526040902091909155620001e8565b506000620001e8565b60009081526001919091016020526040902054151590565b8051600160a060020a0381168114620002a357600080fd5b919050565b60008060008060808587031215620002bf57600080fd5b620002ca856200028b565b93506020850151925060408501519150620002e8606086016200028b565b905092959194509250565b61465580620003036000396000f3fe608060405234801561001057600080fd5b50600436106103a85760003560e060020a9004806395805dad116101ed578063cfdbf25411610113578063d91413ba116100b1578063f643b8fd11610080578063f643b8fd14610869578063f84307081461087c578063fa9f34381461088f578063fdd198c3146108a257600080fd5b8063d91413ba146107f1578063e5ed1d5914610804578063eb33983d14610817578063ed3719a51461082a57600080fd5b8063d3fb7289116100ed578063d3fb728914610798578063d4f5b152146107b8578063d547741f146107cb578063d75e7980146107de57600080fd5b8063cfdbf25414610768578063d1e18d2614610770578063d2d6756b1461077857600080fd5b8063aab2aeb81161018b578063babdeefa1161015a578063babdeefa1461071c578063c06dea4e1461072f578063ca15c87314610740578063cd1ec7f21461075357600080fd5b8063aab2aeb8146106d4578063ad1def1e146106f4578063b2df0ca2146104b7578063b40c89df1461070957600080fd5b80639f82bcc0116101c75780639f82bcc014610693578063a217fddf146106a6578063a4f9c9df146106ae578063a6f979ff146106c157600080fd5b806395805dad1461065a5780639eb356cb1461066d5780639f6c40171461068057600080fd5b806331e019f6116102d25780634032b72b116102705780637cc75d1c1161023f5780637cc75d1c1461061957806384bf09b61461062c5780639010d07c1461063457806391d148541461064757600080fd5b80634032b72b146105c05780634e0e1a3e146105d357806351709a73146105f35780636b6ec8691461060657600080fd5b806336568abe116102ac57806336568abe14610589578063374f1d351461059c57806338b145df146105af5780633ca61a58146105b857600080fd5b806331e019f61461055d578063346c94091461057057806335e333e41461057857600080fd5b8063190060181161034a5780632967875611610319578063296787561461051157806329ce1ec5146105245780632c47669a146105375780632f2ff15d1461054a57600080fd5b806319006018146104a4578063194f2a36146104b95780631c834a7f146104d9578063248a9ca3146104ee57600080fd5b80630f04ba67116103865780630f04ba6714610423578063108c5e1414610436578063153a75901461043f57806317d7e8331461048457600080fd5b806301ffc9a7146103ad57806304a0fb17146103d55780630b197f2e146103f8575b600080fd5b6103c06103bb366004613767565b6108b5565b60405190151581526020015b60405180910390f35b6103ea6000805160206145e083398151915281565b6040519081526020016103cc565b60105461040b90600160a060020a031681565b604051600160a060020a0390911681526020016103cc565b6103c06104313660046137a6565b6108f9565b6103ea600f5481565b61040b61044d3660046138b4565b60086020908152600092835260409092208151808301840180519281529084019290930191909120915254600160a060020a031681565b6104976104923660046138fb565b610913565b6040516103cc9190613975565b6104b76104b2366004613a8c565b6109cc565b005b6104cc6104c73660046138b4565b610b18565b6040516103cc9190613b43565b6103ea60008051602061460083398151915281565b6103ea6104fc366004613ba4565b60009081526020819052604090206001015490565b6104b761051f366004613c1e565b610e5b565b6104b76105323660046137a6565b610e7a565b6104b7610545366004613c93565b610ea1565b6104b7610558366004613d00565b610eee565b6104b761056b366004613d44565b610f18565b6103c06110ae565b601354600160a060020a031661040b565b6104b7610597366004613d00565b6110ff565b6104976105aa366004613ba4565b61118a565b6103ea600e5481565b6104cc6111b5565b6104b76105ce3660046137a6565b61128e565b6103ea6105e1366004613ba4565b60046020526000908152604090205481565b610497610601366004613e1d565b6112be565b6104cc6106143660046138b4565b611312565b6103ea6106273660046138fb565b611642565b6104b7611673565b61040b6106423660046138fb565b611913565b6103c0610655366004613d00565b611932565b6104b7610668366004613ba4565b61195b565b6103c061067b366004613e5c565b6119a9565b6104b761068e366004613ba4565b611df6565b6104b76106a1366004613e94565b611e0e565b6103ea600081565b6104b76106bc366004613ba4565b611eca565b6103ea6106cf366004613ed9565b611ee2565b6103ea6106e2366004613ba4565b600b6020526000908152604090205481565b6103ea6000805160206145c083398151915281565b610497610717366004613e1d565b611fc7565b6104cc61072a366004613ba4565b611ffe565b600254600160a060020a031661040b565b6103ea61074e366004613ba4565b6120ea565b6103ea6000805160206145a083398151915281565b6103ea60c881565b6104b7612101565b6103ea610786366004613ba4565b60056020526000908152604090205481565b6107ab6107a6366004613ba4565b612207565b6040516103cc9190613f07565b6104b76107c63660046137a6565b612269565b6104b76107d9366004613d00565b61228c565b6104976107ec3660046138fb565b6122b1565b6103ea6107ff366004613f4b565b6122d5565b6104b7610812366004613ba4565b6123f9565b610497610825366004613ba4565b612411565b6103c06108383660046138b4565b6014602090815260009283526040909220815180830184018051928152908401929093019190912091525460ff1681565b6104b7610877366004613fd4565b61242a565b6104b761088a3660046140e5565b61262b565b6104b761089d36600461413c565b61273c565b6104b76108b0366004613ba4565b61280f565b6000600160e060020a031982167f5a05180f0000000000000000000000000000000000000000000000000000000014806108f357506108f3826128c6565b92915050565b60006108f36000805160206145e083398151915283611932565b6006602052816000526040600020818154811061092f57600080fd5b9060005260206000200160009150915050805461094b90614195565b80601f016020809104026020016040519081016040528092919081815260200182805461097790614195565b80156109c45780601f10610999576101008083540402835291602001916109c4565b820191906000526020600020905b8154815290600101906020018083116109a757829003601f168201915b505050505081565b6000805160206145c08339815191526109e48161292d565b8151845114610a3d5760405160e560020a62461bcd02815260206004820181905260248201527f696e70757473202f206f757470757473206c656e677468206d69736d6174636860448201526064015b60405180910390fd5b610a48868686612937565b610a975760405160e560020a62461bcd02815260206004820152600e60248201527f696e7075747320696e76616c69640000000000000000000000000000000000006044820152606401610a34565b610aa28684846129da565b610af15760405160e560020a62461bcd02815260206004820152600f60248201527f6f75747075747320696e76616c696400000000000000000000000000000000006044820152606401610a34565b60005b8451811015610b0f5780610b07816141ec565b915050610af4565b50505050505050565b60008281526009602052604080822090516060929190610b39908590614207565b9081526020016040518091039020805480602002602001604051908101604052809291908181526020016000905b82821015610c13578382906000526020600020018054610b8690614195565b80601f0160208091040260200160405190810160405280929190818152602001828054610bb290614195565b8015610bff5780601f10610bd457610100808354040283529160200191610bff565b820191906000526020600020905b815481529060010190602001808311610be257829003601f168201915b505050505081526020019060010190610b67565b505060008080526009602052604051939450927fec8156718a8372b1db44bb411437d0870f3e3790d4a08526d024ce1b0b668f6b9250610c5591508690614207565b9081526020016040518091039020805480602002602001604051908101604052809291908181526020016000905b82821015610d2f578382906000526020600020018054610ca290614195565b80601f0160208091040260200160405190810160405280929190818152602001828054610cce90614195565b8015610d1b5780601f10610cf057610100808354040283529160200191610d1b565b820191906000526020600020905b815481529060010190602001808311610cfe57829003601f168201915b505050505081526020019060010190610c83565b505050509050600082511115610e4f57600081518351610d4f9190614223565b67ffffffffffffffff811115610d6757610d676137c3565b604051908082528060200260200182016040528015610d9a57816020015b6060815260200190600190039081610d855790505b50905060005b8151811015610e48578251811015610dee57828181518110610dc457610dc461423b565b6020026020010151828281518110610dde57610dde61423b565b6020026020010181905250610e32565b83835182610dfc9190614254565b81518110610e0c57610e0c61423b565b6020026020010151828281518110610e2657610e2661423b565b60200260200101819052505b8194508080610e40906141ec565b915050610da0565b5050610e53565b8092505b505092915050565b6000805160206145a0833981519152610e738161292d565b5050505050565b6000610e858161292d565b610e9d6000805160206145e083398151915283612a75565b5050565b6000805160206145c0833981519152610eb98161292d565b8251845114610edd5760405160e560020a62461bcd028152600401610a349061426b565b610ee8848484612a7f565b50505050565b600082815260208190526040902060010154610f098161292d565b610f138383612bde565b505050565b600080516020614600833981519152610f308161292d565b6013548551600160a060020a03909116906328d7e11a90869086908990600090610f5c57610f5c61423b565b60200260200101516040518463ffffffff1660e060020a028152600401610f85939291906142c8565b600060405180830381600087803b158015610f9f57600080fd5b505af1158015610fb3573d6000803e3d6000fd5b50506013548751600160a060020a0390911692506398bd75729150869086908990610fe090600190614254565b81518110610ff057610ff061423b565b60200260200101516040518463ffffffff1660e060020a028152600401611019939291906142c8565b600060405180830381600087803b15801561103357600080fd5b505af1158015611047573d6000803e3d6000fd5b5050505060005b85518110156110a65761109486828151811061106c5761106c61423b565b60200260200101518483815181106110865761108661423b565b60200260200101518661262b565b8061109e816141ec565b91505061104e565b505050505050565b6000805b6003548110156110fb57600381815481106110cf576110cf61423b565b90600052602060002001546000146110e957600191505090565b806110f3816141ec565b9150506110b2565b5090565b600160a060020a03811633146111805760405160e560020a62461bcd02815260206004820152602f60248201527f416363657373436f6e74726f6c3a2063616e206f6e6c792072656e6f756e636560448201527f20726f6c657320666f722073656c6600000000000000000000000000000000006064820152608401610a34565b610e9d8282612c00565b6011818154811061119a57600080fd5b90600052602060002001600091509050805461094b90614195565b60606011805480602002602001604051908101604052809291908181526020016000905b828210156112855783829060005260206000200180546111f890614195565b80601f016020809104026020016040519081016040528092919081815260200182805461122490614195565b80156112715780601f1061124657610100808354040283529160200191611271565b820191906000526020600020905b81548152906001019060200180831161125457829003601f168201915b5050505050815260200190600101906111d9565b50505050905090565b6000805160206145c08339815191526112a68161292d565b610e9d60008051602061460083398151915283612a75565b600960209081526000848152604090208351808501830180519281529083019285019290922091528054829081106112f557600080fd5b906000526020600020016000925092505050805461094b90614195565b6000828152600a602052604080822090516060929190611333908590614207565b9081526020016040518091039020805480602002602001604051908101604052809291908181526020016000905b8282101561140d57838290600052602060002001805461138090614195565b80601f01602080910402602001604051908101604052809291908181526020018280546113ac90614195565b80156113f95780601f106113ce576101008083540402835291602001916113f9565b820191906000526020600020905b8154815290600101906020018083116113dc57829003601f168201915b505050505081526020019060010190611361565b50506000808052600a602052604051939450927f13da86008ba1c6922daee3e07db95305ef49ebced9f5467a0b8613fcc6b343e3925061144f91508690614207565b9081526020016040518091039020805480602002602001604051908101604052809291908181526020016000905b8282101561152957838290600052602060002001805461149c90614195565b80601f01602080910402602001604051908101604052809291908181526020018280546114c890614195565b80156115155780601f106114ea57610100808354040283529160200191611515565b820191906000526020600020905b8154815290600101906020018083116114f857829003601f168201915b50505050508152602001906001019061147d565b505050509050600082511115610e4f576000815183516115499190614223565b67ffffffffffffffff811115611561576115616137c3565b60405190808252806020026020018201604052801561159457816020015b606081526020019060019003908161157f5790505b50905060005b8151811015610e485782518110156115e8578281815181106115be576115be61423b565b60200260200101518282815181106115d8576115d861423b565b602002602001018190525061162c565b838351826115f69190614254565b815181106116065761160661423b565b60200260200101518282815181106116205761162061423b565b60200260200101819052505b819450808061163a906141ec565b91505061159a565b600d602052816000526040600020818154811061165e57600080fd5b90600052602060002001600091509150505481565b61168b6000805160206145e083398151915233611932565b806116a957506116a96000805160206145c083398151915233611932565b6116c85760405160e560020a62461bcd028152600401610a34906142f0565b601154611911576000600f54600e546116e1919061434d565b67ffffffffffffffff8111156116f9576116f96137c3565b604051908082528060200260200182016040528015611722578160200160208202803683370190505b50600f54600e546040517f9f6b56490000000000000000000000000000000000000000000000000000000081526004810192909252602482015290915073__XYCoordinates_________________________90639f6b564990604401600060405180830381865af415801561179b573d6000803e3d6000fd5b505050506040513d6000823e601f3d908101601f191682016040526117c3919081019061436c565b80516117d791601191602090910190613622565b5060005b8151811015611831576010548251600160a060020a03909116908390839081106118075761180761423b565b600160a060020a039092166020928302919091019091015280611829816141ec565b9150506117db565b5061190f816011805480602002602001604051908101604052809291908181526020016000905b8282101561190457838290600052602060002001805461187790614195565b80601f01602080910402602001604051908101604052809291908181526020018280546118a390614195565b80156118f05780601f106118c5576101008083540402835291602001916118f0565b820191906000526020600020905b8154815290600101906020018083116118d357829003601f168201915b505050505081526020019060010190611858565b505050506000612a7f565b505b565b600082815260016020526040812061192b9083612c22565b9392505050565b600091825260208281526040808420600160a060020a0393909316845291905290205460ff1690565b6000805160206146008339815191526119738161292d565b50600380546001810182556000919091527fc2575a0e9e593c00f959f8c92f12db2869c3395a3b0502d05e2516446f71f85b0155565b6002546040517fbca7caa000000000000000000000000000000000000000000000000000000000815260048101859052600160a060020a038481166024830152600092839291169063bca7caa090604401602060405180830381865afa158015611a17573d6000803e3d6000fd5b505050506040513d601f19601f82011682018060405250810190611a3b9190614456565b6000868152600c60209081526040808320848452909152812080549293509091611a6490614195565b80601f0160208091040260200160405190810160405280929190818152602001828054611a9090614195565b8015611add5780601f10611ab257610100808354040283529160200191611add565b820191906000526020600020905b815481529060010190602001808311611ac057829003601f168201915b505050505090506000611af08783611312565b805190915080611b455760405160e560020a62461bcd02815260206004820152601760248201527f4e6f206578697420706174687320617661696c61626c650000000000000000006044820152606401610a34565b60008881526008602052604080822090519196508691611b66908690614207565b90815260405190819003602001902054600160a060020a031690506000828811611b905787611b93565b60005b90506000848281518110611ba957611ba961423b565b602002602001015190506000600860008d815260200190815260200160002082604051611bd69190614207565b908152602001604051809103902060009054906101000a9004600160a060020a0316905083600160a060020a0316637caf12808c8e8a6040518463ffffffff1660e060020a028152600401611c2d939291906142c8565b602060405180830381865afa158015611c4a573d6000803e3d6000fd5b505050506040513d601f19601f82011682018060405250810190611c6e919061446f565b8015611ce9575080600160a060020a031663e15b3ad08c8e856040518463ffffffff1660e060020a028152600401611ca8939291906142c8565b602060405180830381865afa158015611cc5573d6000803e3d6000fd5b505050506040513d601f19601f82011682018060405250810190611ce9919061446f565b15611de75783600160a060020a03166328d7e11a8c8e8a6040518463ffffffff1660e060020a028152600401611d21939291906142c8565b600060405180830381600087803b158015611d3b57600080fd5b505af1158015611d4f573d6000803e3d6000fd5b5050505080600160a060020a03166398bd75728c8e856040518463ffffffff1660e060020a028152600401611d86939291906142c8565b600060405180830381600087803b158015611da057600080fd5b505af1158015611db4573d6000803e3d6000fd5b50505060008d8152600c602090815260408083208c845282529091208451611de19350909185019061367b565b50600198505b50505050505050509392505050565b600080516020614600833981519152610e9d8161292d565b600080516020614600833981519152611e268161292d565b60008281526004602052604090205415611eab5760405160e560020a62461bcd02815260206004820152602c60248201527f63616e27742073657420696e697469616c207a6f6e652c2067616d6520616c7260448201527f65616479207374617274656400000000000000000000000000000000000000006064820152608401610a34565b60008281526007602090815260409091208451610ee89286019061367b565b6000805160206145a0833981519152610e9d8161292d565b6000611efc6000805160206145e083398151915233611932565b80611f1a5750611f1a6000805160206145c083398151915233611932565b611f395760405160e560020a62461bcd028152600401610a34906142f0565b82600260006101000a815481600160a060020a030219169083600160a060020a0316021790555081600160a060020a0316630a75806e6040518163ffffffff1660e060020a0281526004016020604051808303816000875af1158015611fa3573d6000803e3d6000fd5b505050506040513d601f19601f8201168201806040525081019061192b9190614456565b600a60209081526000848152604090208351808501830180519281529083019285019290922091528054829081106112f557600080fd5b606060066000838152602001908152602001600020805480602002602001604051908101604052809291908181526020016000905b828210156120df57838290600052602060002001805461205290614195565b80601f016020809104026020016040519081016040528092919081815260200182805461207e90614195565b80156120cb5780601f106120a0576101008083540402835291602001916120cb565b820191906000526020600020905b8154815290600101906020018083116120ae57829003601f168201915b505050505081526020019060010190612033565b505050509050919050565b60008181526001602052604081206108f390612c2e565b6000805160206146008339815191526121198161292d565b60008060005b600354811015612188576003818154811061213c5761213c61423b565b906000526020600020015460001461217657600381815481106121615761216161423b565b90600052602060002001549250809150612188565b80612180816141ec565b91505061211f565b506000828152600460205260409020546121aa576121a582612c38565b6121ca565b600082815260046020526040902054600114156121ca576121ca82612cc3565b60008281526004602052604090205460011015610f13576000600382815481106121f6576121f661423b565b600091825260209091200155505050565b6000818152600d602090815260409182902080548351818402810184019094528084526060939283018282801561225d57602002820191906000526020600020905b815481526020019060010190808311612249575b50505050509050919050565b60006122748161292d565b610e9d60008051602061460083398151915283610eee565b6000828152602081905260409020600101546122a78161292d565b610f138383612c00565b600c6020908152600092835260408084209091529082529020805461094b90614195565b60006122ef6000805160206145e083398151915233611932565b8061230d575061230d6000805160206145c083398151915233611932565b61232c5760405160e560020a62461bcd028152600401610a34906142f0565b81518351146123505760405160e560020a62461bcd028152600401610a349061426b565b82511561236257612362838383612a7f565b84600260006101000a815481600160a060020a030219169083600160a060020a0316021790555083600160a060020a0316630a75806e6040518163ffffffff1660e060020a0281526004016020604051808303816000875af11580156123cc573d6000803e3d6000fd5b505050506040513d601f19601f820116820180604052508101906123f09190614456565b95945050505050565b6000805160206145c08339815191526119738161292d565b6007602052600090815260409020805461094b90614195565b6000805160206145c08339815191526124428161292d565b61244c838361307c565b61249b5760405160e560020a62461bcd02815260206004820152601a60248201527f6e6f7420616c6c207a6f6e6520696e64656365732076616c69640000000000006044820152606401610a34565b60005b8251811015610ee8576000848152600a6020526040902083518490839081106124c9576124c961423b565b60200260200101516000600281106124e3576124e361423b565b60200201516040516124f59190614207565b90815260200160405180910390208382815181106125155761251561423b565b602002602001015160016002811061252f5761252f61423b565b602090810291909101518254600181018455600093845292829020815161255f949190910192919091019061367b565b50600084815260096020526040902083518490839081106125825761258261423b565b602002602001015160016002811061259c5761259c61423b565b60200201516040516125ae9190614207565b90815260200160405180910390208382815181106125ce576125ce61423b565b60200260200101516000600281106125e8576125e861423b565b6020908102919091015182546001810184556000938452928290208151612618949190910192919091019061367b565b5080612623816141ec565b91505061249e565b6000805160206146008339815191526126438161292d565b600082815260146020526040908190209051612660908690614207565b9081526040519081900360200190205460ff16610ee8576013546040517fd4939609000000000000000000000000000000000000000000000000000000008152600160a060020a039091169063d4939609906126c490869086908990600401614491565b600060405180830381600087803b1580156126de57600080fd5b505af11580156126f2573d6000803e3d6000fd5b50505060008381526014602052604090819020905160019250612716908790614207565b908152604051908190036020019020805491151560ff1990921691909117905550505050565b6000805160206145a08339815191526127548161292d565b6002546040517fbca7caa000000000000000000000000000000000000000000000000000000000815260048101869052600160a060020a038581166024830152600092169063bca7caa090604401602060405180830381865afa1580156127bf573d6000803e3d6000fd5b505050506040513d601f19601f820116820180604052508101906127e39190614456565b6000868152600c60209081526040808320848452825290912085519293506110a692909186019061367b565b6000805160206146008339815191526128278161292d565b50601255565b6128378282611932565b610e9d57600082815260208181526040808320600160a060020a03851684529091529020805460ff1916600117905561286d3390565b600160a060020a031681600160a060020a0316837f2f8788117e7eff1d82e926ec794901d17c78024a50270940304540a733656f0d60405160405180910390a45050565b600061192b83600160a060020a03841661318b565b6000600160e060020a031982167f7965db0b0000000000000000000000000000000000000000000000000000000014806108f357507f01ffc9a700000000000000000000000000000000000000000000000000000000600160e060020a03198316146108f3565b61190f81336131da565b600160005b82518110156129d2578281815181106129575761295761423b565b6020026020010151600161296b9190614223565b6000868152600960205260409020855186908490811061298d5761298d61423b565b60200260200101516040516129a29190614207565b90815260405190819003602001902054106129c057600091506129d2565b806129ca816141ec565b91505061293c565b509392505050565b600160005b82518110156129d2578281815181106129fa576129fa61423b565b60200260200101516001612a0e9190614223565b6000868152600a602052604090208551869084908110612a3057612a3061423b565b6020026020010151604051612a459190614207565b9081526040519081900360200190205410612a6357600091506129d2565b80612a6d816141ec565b9150506129df565b610e9d8282612bde565b60005b8351811015610ee85760008281526006602052604090208351849083908110612aad57612aad61423b565b60209081029190910181015182546001810184556000938452928290208151612adf949190910192919091019061367b565b50838181518110612af257612af261423b565b602002602001015160086000848152602001908152602001600020848381518110612b1f57612b1f61423b565b6020026020010151604051612b349190614207565b908152602001604051809103902060006101000a815481600160a060020a030219169083600160a060020a03160217905550612b976000805160206145a0833981519152858381518110612b8a57612b8a61423b565b6020026020010151611932565b612bcc57612bcc6000805160206145a0833981519152858381518110612bbf57612bbf61423b565b6020026020010151612a75565b80612bd6816141ec565b915050612a82565b612be8828261282d565b6000828152600160205260409020610f1390826128b1565b612c0a8282613241565b6000828152600160205260409020610f1390826132a6565b600061192b83836132bb565b60006108f3825490565b6002546040517f60c2050000000000000000000000000000000000000000000000000000000000815260048101839052600160a060020a03909116906360c2050090602401600060405180830381600087803b158015612c9757600080fd5b505af1158015612cab573d6000803e3d6000fd5b50505060009182525060046020526040902060019055565b60008181526007602052604081208054612cdc90614195565b15159050612d125760008281526006602052604081208054909190612d0357612d0361423b565b90600052602060002001612d21565b60008281526007602052604090205b8054612d2c90614195565b80601f0160208091040260200160405190810160405280929190818152602001828054612d5890614195565b8015612da55780601f10612d7a57610100808354040283529160200191612da5565b820191906000526020600020905b815481529060010190602001808311612d8857829003601f168201915b5050505050905060006008600084815260200190815260200160002082604051612dcf9190614207565b90815260405190819003602001902054600160a060020a031690508060005b6002546040517fb77ff41100000000000000000000000000000000000000000000000000000000815260048101879052600160a060020a039091169063b77ff41190602401602060405180830381865afa158015612e50573d6000803e3d6000fd5b505050506040513d601f19601f82011682018060405250810190612e749190614456565b811015613064576000612e88826001614223565b6002546040517ff50432540000000000000000000000000000000000000000000000000000000081526004810189905260248101839052919250600091600160a060020a039091169063f504325490604401602060405180830381865afa158015612ef7573d6000803e3d6000fd5b505050506040513d601f19601f82011682018060405250810190612f1b91906144d1565b6040517fe15b3ad0000000000000000000000000000000000000000000000000000000008152909150600160a060020a0385169063e15b3ad090612f679084908b908b906004016142c8565b602060405180830381865afa158015612f84573d6000803e3d6000fd5b505050506040513d601f19601f82011682018060405250810190612fa8919061446f565b1561302d576040517f98bd7572000000000000000000000000000000000000000000000000000000008152600160a060020a038516906398bd757290612ff69084908b908b906004016142c8565b600060405180830381600087803b15801561301057600080fd5b505af1158015613024573d6000803e3d6000fd5b5050505061304f565b6000878152600d60209081526040822080546001810182559083529120018290555b5050808061305c906141ec565b915050612dee565b50505060009182525060046020526040902060029055565b6000805b82518110156131845760008481526008602052604081208451600194508590849081106130af576130af61423b565b60200260200101516000600281106130c9576130c961423b565b60200201516040516130db9190614207565b90815260405190819003602001902054600160a060020a0316148061316457506000848152600860205260408120845185908490811061311d5761311d61423b565b60200260200101516001600281106131375761313761423b565b60200201516040516131499190614207565b90815260405190819003602001902054600160a060020a0316145b156131725760009150613184565b8061317c816141ec565b915050613080565b5092915050565b60008181526001830160205260408120546131d2575081546001818101845560008481526020808220909301849055845484825282860190935260409020919091556108f3565b5060006108f3565b6131e48282611932565b610e9d576131fc81600160a060020a031660146132e5565b6132078360206132e5565b6040516020016132189291906144ee565b60408051601f198184030181529082905260e560020a62461bcd028252610a3491600401613975565b61324b8282611932565b15610e9d57600082815260208181526040808320600160a060020a0385168085529252808320805460ff1916905551339285917ff6391f5c32d9c69d2a47ea670b442974b53935d1edc7fd64eb21e047a839171b9190a45050565b600061192b83600160a060020a03841661352f565b60008260000182815481106132d2576132d261423b565b9060005260206000200154905092915050565b606060006132f483600261434d565b6132ff906002614223565b67ffffffffffffffff811115613317576133176137c3565b6040519080825280601f01601f191660200182016040528015613341576020820181803683370190505b5090507f3000000000000000000000000000000000000000000000000000000000000000816000815181106133785761337861423b565b60200101907effffffffffffffffffffffffffffffffffffffffffffffffffffffffffffff1916908160001a9053507f7800000000000000000000000000000000000000000000000000000000000000816001815181106133db576133db61423b565b60200101907effffffffffffffffffffffffffffffffffffffffffffffffffffffffffffff1916908160001a905350600061341784600261434d565b613422906001614223565b90505b60018111156134dd577f303132333435363738396162636465660000000000000000000000000000000085600f16601081106134635761346361423b565b1a7f0100000000000000000000000000000000000000000000000000000000000000028282815181106134985761349861423b565b60200101907effffffffffffffffffffffffffffffffffffffffffffffffffffffffffffff1916908160001a9053506010909404936134d68161456f565b9050613425565b50831561192b5760405160e560020a62461bcd02815260206004820181905260248201527f537472696e67733a20686578206c656e67746820696e73756666696369656e746044820152606401610a34565b60008181526001830160205260408120548015613618576000613553600183614254565b855490915060009061356790600190614254565b90508181146135cc5760008660000182815481106135875761358761423b565b90600052602060002001549050808760000184815481106135aa576135aa61423b565b6000918252602080832090910192909255918252600188019052604090208390555b85548690806135dd576135dd614586565b6001900381819060005260206000200160009055905585600101600086815260200190815260200160002060009055600193505050506108f3565b60009150506108f3565b82805482825590600052602060002090810192821561366f579160200282015b8281111561366f578251805161365f91849160209091019061367b565b5091602001919060010190613642565b506110fb9291506136fb565b82805461368790614195565b90600052602060002090601f0160209004810192826136a957600085556136ef565b82601f106136c257805160ff19168380011785556136ef565b828001600101855582156136ef579182015b828111156136ef5782518255916020019190600101906136d4565b506110fb929150613718565b808211156110fb57600061370f828261372d565b506001016136fb565b5b808211156110fb5760008155600101613719565b50805461373990614195565b6000825580601f10613749575050565b601f01602090049060005260206000209081019061190f9190613718565b60006020828403121561377957600080fd5b8135600160e060020a03198116811461192b57600080fd5b600160a060020a038116811461190f57600080fd5b6000602082840312156137b857600080fd5b813561192b81613791565b60e060020a634e487b7102600052604160045260246000fd5b6040805190810167ffffffffffffffff811182821017156137ff576137ff6137c3565b60405290565b604051601f8201601f1916810167ffffffffffffffff8111828210171561382e5761382e6137c3565b604052919050565b600067ffffffffffffffff821115613850576138506137c3565b50601f01601f191660200190565b600082601f83011261386f57600080fd5b813561388261387d82613836565b613805565b81815284602083860101111561389757600080fd5b816020850160208301376000918101602001919091529392505050565b600080604083850312156138c757600080fd5b82359150602083013567ffffffffffffffff8111156138e557600080fd5b6138f18582860161385e565b9150509250929050565b6000806040838503121561390e57600080fd5b50508035926020909101359150565b60005b83811015613938578181015183820152602001613920565b83811115610ee85750506000910152565b6000815180845261396181602086016020860161391d565b601f01601f19169290920160200192915050565b60208152600061192b6020830184613949565b600067ffffffffffffffff8211156139a2576139a26137c3565b5060209081020190565b600082601f8301126139bd57600080fd5b813560206139cd61387d83613988565b828152918102840181019181810190868411156139e957600080fd5b8286015b84811015613a2957803567ffffffffffffffff811115613a0d5760008081fd5b613a1b8986838b010161385e565b8452509183019183016139ed565b509695505050505050565b600082601f830112613a4557600080fd5b81356020613a5561387d83613988565b82815291810284018101918181019086841115613a7157600080fd5b8286015b84811015613a295780358352918301918301613a75565b600080600080600060a08688031215613aa457600080fd5b85359450602086013567ffffffffffffffff80821115613ac357600080fd5b613acf89838a016139ac565b95506040880135915080821115613ae557600080fd5b613af189838a01613a34565b94506060880135915080821115613b0757600080fd5b613b1389838a016139ac565b93506080880135915080821115613b2957600080fd5b50613b3688828901613a34565b9150509295509295909350565b600060208083018184528085518083526040860191506040848202870101925083870160005b82811015613b9757603f19888603018452613b85858351613949565b94509285019290850190600101613b69565b5092979650505050505050565b600060208284031215613bb657600080fd5b5035919050565b600082601f830112613bce57600080fd5b81356020613bde61387d83613988565b82815291810284018101918181019086841115613bfa57600080fd5b8286015b84811015613a29578035613c1181613791565b8352918301918301613bfe565b60008060008060808587031215613c3457600080fd5b84359350602085013567ffffffffffffffff80821115613c5357600080fd5b613c5f88838901613bbd565b94506040870135915080821115613c7557600080fd5b50613c8287828801613a34565b949793965093946060013593505050565b600080600060608486031215613ca857600080fd5b833567ffffffffffffffff80821115613cc057600080fd5b613ccc87838801613bbd565b94506020860135915080821115613ce257600080fd5b50613cef868287016139ac565b925050604084013590509250925092565b60008060408385031215613d1357600080fd5b823591506020830135613d2581613791565b809150509250929050565b8035600b8110613d3f57600080fd5b919050565b60008060008060808587031215613d5a57600080fd5b843567ffffffffffffffff80821115613d7257600080fd5b613d7e888389016139ac565b95506020915081870135613d9181613791565b945060408701359350606087013581811115613dac57600080fd5b87019050601f81018813613dbf57600080fd5b8035613dcd61387d82613988565b8181529083028201830190838101908a831115613de957600080fd5b928401925b82841015613e0e57613dff84613d30565b82529284019290840190613dee565b979a9699509497505050505050565b600080600060608486031215613e3257600080fd5b83359250602084013567ffffffffffffffff811115613e5057600080fd5b613cef8682870161385e565b600080600060608486031215613e7157600080fd5b833592506020840135613e8381613791565b929592945050506040919091013590565b60008060408385031215613ea757600080fd5b823567ffffffffffffffff811115613ebe57600080fd5b613eca8582860161385e565b95602094909401359450505050565b60008060408385031215613eec57600080fd5b8235613ef781613791565b91506020830135613d2581613791565b6020808252825182820181905260009190848201906040850190845b81811015613f3f57835183529284019291840191600101613f23565b50909695505050505050565b60008060008060808587031215613f6157600080fd5b8435613f6c81613791565b93506020850135613f7c81613791565b9250604085013567ffffffffffffffff80821115613f9957600080fd5b613fa588838901613bbd565b93506060870135915080821115613fbb57600080fd5b50613fc8878288016139ac565b91505092959194509250565b60008060408385031215613fe757600080fd5b8235915060208084013567ffffffffffffffff8082111561400757600080fd5b818601915086601f83011261401b57600080fd5b813561402961387d82613988565b8181529084028301840190848101908983111561404557600080fd5b8585015b838110156140d457848135111561405f57600080fd5b803586018b603f82011261407257600080fd5b61407a6137dc565b808d60608401111561408b57600080fd5b8983015b606084018110156140c45788813511156140a857600080fd5b6140b78f8c833587010161385e565b8352918a01918a0161408f565b5085525050918601918601614049565b508096505050505050509250929050565b6000806000606084860312156140fa57600080fd5b833567ffffffffffffffff81111561411157600080fd5b61411d8682870161385e565b93505061412c60208501613d30565b9150604084013590509250925092565b60008060006060848603121561415157600080fd5b83359250602084013561416381613791565b9150604084013567ffffffffffffffff81111561417f57600080fd5b61418b8682870161385e565b9150509250925092565b6002810460018216806141a957607f821691505b602082108114156141cd5760e060020a634e487b7102600052602260045260246000fd5b50919050565b60e060020a634e487b7102600052601160045260246000fd5b6000600019821415614200576142006141d3565b5060010190565b6000825161421981846020870161391d565b9190910192915050565b60008219821115614236576142366141d3565b500190565b60e060020a634e487b7102600052603260045260246000fd5b600082821015614266576142666141d3565b500390565b60208082526025908201527f616464726573736573202620616c696173657320646966666572656e74206c6560408201527f6e67746873000000000000000000000000000000000000000000000000000000606082015260800190565b600160a060020a03841681528260208201526060604082015260006123f06060830184613949565b60208082526024908201527f47616d65204d6173746572206f7220466163746f727920726f6c65207265717560408201527f6972656400000000000000000000000000000000000000000000000000000000606082015260800190565b6000816000190483118215151615614367576143676141d3565b500290565b6000602080838503121561437f57600080fd5b825167ffffffffffffffff8082111561439757600080fd5b818501915085601f8301126143ab57600080fd5b81516143b961387d82613988565b818152908402830184019084810190888311156143d557600080fd5b8585015b83811015614449578051858111156143f15760008081fd5b8601603f81018b136144035760008081fd5b87810151604061441561387d83613836565b8281528d8284860101111561442a5760008081fd5b614439838c830184870161391d565b86525050509186019186016143d9565b5098975050505050505050565b60006020828403121561446857600080fd5b5051919050565b60006020828403121561448157600080fd5b8151801515811461192b57600080fd5b6000600b85106144b45760e060020a634e487b7102600052602160045260246000fd5b848252836020830152606060408301526123f06060830184613949565b6000602082840312156144e357600080fd5b815161192b81613791565b7f416363657373436f6e74726f6c3a206163636f756e742000000000000000000081526000835161452681601785016020880161391d565b7f206973206d697373696e6720726f6c6520000000000000000000000000000000601791840191820152835161456381602884016020880161391d565b01602801949350505050565b60008161457e5761457e6141d3565b506000190190565b60e060020a634e487b7102600052603160045260246000fdfe72b06b67826def9fabb513b23f7e5eb74f7ece26d25dad4006546ecf4a13763d1d93c87416ca7b54f0fb8323167b72760e8e2ec93d48660953897a150f97a8b4dfbefbf47cfe66b701d8cfdbce1de81c821590819cb07e71cb01b6602fb0ee2780e2196015fc06a9d891759f8e4f51eb314ef5e9ea068528a8ed0063b87759f0a2646970667358221220a6b7ea77ad7ec42addf2c0b1e58d03c22cd32e9951c56d7d5daa0827a9fb7afb64736f6c634300080b0033",
  "immutableReferences": {},
  "source": "// SPDX-License-Identifier: GPL-3.0\npragma solidity >=0.7.0 <0.9.0;\n\nimport \"@luckymachines/game-core/contracts/src/v0.0/custom_boards/HexGrid.sol\";\nimport \"./HexplorationZone.sol\";\n\ncontract HexplorationBoard is HexGrid {\n    // This role is a hybrid controller, assumes on chain verification of moves before submission\n\n    uint256 private _randomness;\n\n    HexplorationZone internal HEX_ZONE;\n    // game ID => zone alias returns bool\n    mapping(uint256 => mapping(string => bool)) public zoneEnabled;\n\n    constructor(\n        address adminAddress,\n        uint256 gridWidth,\n        uint256 gridHeight,\n        address zoneAddress\n    ) HexGrid(adminAddress, gridWidth, gridHeight, zoneAddress) {\n        HEX_ZONE = HexplorationZone(zoneAddress);\n    }\n\n    function hexZoneAddress() public view returns (address) {\n        return address(HEX_ZONE);\n    }\n\n    // VERIFIED CONTROLLER functions\n    // We can assume these have been pre-verified\n\n    function setRandomness(uint256 randomness)\n        external\n        onlyRole(VERIFIED_CONTROLLER_ROLE)\n    {\n        _randomness = randomness;\n    }\n\n    function start(uint256 gameID) public onlyRole(VERIFIED_CONTROLLER_ROLE) {\n        _gamesNeedUpdates.push(gameID);\n    }\n\n    function enableZone(\n        string memory zoneAlias,\n        HexplorationZone.Tile tile,\n        uint256 gameID\n    ) public onlyRole(VERIFIED_CONTROLLER_ROLE) {\n        if (!zoneEnabled[gameID][zoneAlias]) {\n            HEX_ZONE.setTile(tile, gameID, zoneAlias);\n            zoneEnabled[gameID][zoneAlias] = true;\n        }\n    }\n\n    // pass path and what tiles should be\n    function moveThroughPath(\n        string[] memory zonePath,\n        address playerAddress,\n        uint256 gameID,\n        HexplorationZone.Tile[] memory tiles\n    ) external onlyRole(VERIFIED_CONTROLLER_ROLE) {\n        HEX_ZONE.exitPlayer(playerAddress, gameID, zonePath[0]);\n        HEX_ZONE.enterPlayer(\n            playerAddress,\n            gameID,\n            zonePath[zonePath.length - 1]\n        );\n        for (uint256 i = 0; i < zonePath.length; i++) {\n            enableZone(zonePath[i], tiles[i], gameID);\n        }\n    }\n}\n",
  "sourcePath": "/Users/maxmeier/Developer/Lucky Machines/hexploration/contracts/HexplorationBoard.sol",
  "compiler": {
    "name": "solc",
    "version": "0.8.11+commit.d7f03943.Emscripten.clang"
  },
  "schemaVersion": "3.4.4",
  "updatedAt": "2022-05-13T23:00:09.362Z",
  "devdoc": {
    "kind": "dev",
    "methods": {
      "getRoleAdmin(bytes32)": {
        "details": "Returns the admin role that controls `role`. See {grantRole} and {revokeRole}. To change a role's admin, use {_setRoleAdmin}."
      },
      "getRoleMember(bytes32,uint256)": {
        "details": "Returns one of the accounts that have `role`. `index` must be a value between 0 and {getRoleMemberCount}, non-inclusive. Role bearers are not sorted in any particular way, and their ordering may change at any point. WARNING: When using {getRoleMember} and {getRoleMemberCount}, make sure you perform all queries on the same block. See the following https://forum.openzeppelin.com/t/iterating-over-elements-on-enumerableset-in-openzeppelin-contracts/2296[forum post] for more information."
      },
      "getRoleMemberCount(bytes32)": {
        "details": "Returns the number of accounts that have `role`. Can be used together with {getRoleMember} to enumerate all bearers of a role."
      },
      "grantRole(bytes32,address)": {
        "details": "Grants `role` to `account`. If `account` had not been already granted `role`, emits a {RoleGranted} event. Requirements: - the caller must have ``role``'s admin role."
      },
      "hasRole(bytes32,address)": {
        "details": "Returns `true` if `account` has been granted `role`."
      },
      "renounceRole(bytes32,address)": {
        "details": "Revokes `role` from the calling account. Roles are often managed via {grantRole} and {revokeRole}: this function's purpose is to provide a mechanism for accounts to lose their privileges if they are compromised (such as when a trusted device is misplaced). If the calling account had been revoked `role`, emits a {RoleRevoked} event. Requirements: - the caller must be `account`."
      },
      "revokeRole(bytes32,address)": {
        "details": "Revokes `role` from `account`. If `account` had been granted `role`, emits a {RoleRevoked} event. Requirements: - the caller must have ``role``'s admin role."
      },
      "supportsInterface(bytes4)": {
        "details": "See {IERC165-supportsInterface}."
      }
    },
    "version": 1
  },
  "userdoc": {
    "kind": "user",
    "methods": {},
    "version": 1
  }
}