{
  "contractName": "HexplorationController",
  "abi": [
    {
      "inputs": [
        {
          "internalType": "address",
          "name": "adminAddress",
          "type": "address"
        }
      ],
      "stateMutability": "nonpayable",
      "type": "constructor"
    },
    {
      "anonymous": false,
      "inputs": [
        {
          "indexed": true,
          "internalType": "bytes32",
          "name": "role",
          "type": "bytes32"
        },
        {
          "indexed": true,
          "internalType": "bytes32",
          "name": "previousAdminRole",
          "type": "bytes32"
        },
        {
          "indexed": true,
          "internalType": "bytes32",
          "name": "newAdminRole",
          "type": "bytes32"
        }
      ],
      "name": "RoleAdminChanged",
      "type": "event"
    },
    {
      "anonymous": false,
      "inputs": [
        {
          "indexed": true,
          "internalType": "bytes32",
          "name": "role",
          "type": "bytes32"
        },
        {
          "indexed": true,
          "internalType": "address",
          "name": "account",
          "type": "address"
        },
        {
          "indexed": true,
          "internalType": "address",
          "name": "sender",
          "type": "address"
        }
      ],
      "name": "RoleGranted",
      "type": "event"
    },
    {
      "anonymous": false,
      "inputs": [
        {
          "indexed": true,
          "internalType": "bytes32",
          "name": "role",
          "type": "bytes32"
        },
        {
          "indexed": true,
          "internalType": "address",
          "name": "account",
          "type": "address"
        },
        {
          "indexed": true,
          "internalType": "address",
          "name": "sender",
          "type": "address"
        }
      ],
      "name": "RoleRevoked",
      "type": "event"
    },
    {
      "inputs": [],
      "name": "DEFAULT_ADMIN_ROLE",
      "outputs": [
        {
          "internalType": "bytes32",
          "name": "",
          "type": "bytes32"
        }
      ],
      "stateMutability": "view",
      "type": "function"
    },
    {
      "inputs": [],
      "name": "KEEPER_ROLE",
      "outputs": [
        {
          "internalType": "bytes32",
          "name": "",
          "type": "bytes32"
        }
      ],
      "stateMutability": "view",
      "type": "function"
    },
    {
      "inputs": [
        {
          "internalType": "uint256",
          "name": "pathIndex",
          "type": "uint256"
        },
        {
          "internalType": "uint256",
          "name": "gameID",
          "type": "uint256"
        },
        {
          "internalType": "address",
          "name": "gameBoardAddress",
          "type": "address"
        }
      ],
      "name": "exitToPath",
      "outputs": [],
      "stateMutability": "nonpayable",
      "type": "function"
    },
    {
      "inputs": [
        {
          "internalType": "bytes32",
          "name": "role",
          "type": "bytes32"
        }
      ],
      "name": "getRoleAdmin",
      "outputs": [
        {
          "internalType": "bytes32",
          "name": "",
          "type": "bytes32"
        }
      ],
      "stateMutability": "view",
      "type": "function"
    },
    {
      "inputs": [
        {
          "internalType": "bytes32",
          "name": "role",
          "type": "bytes32"
        },
        {
          "internalType": "uint256",
          "name": "index",
          "type": "uint256"
        }
      ],
      "name": "getRoleMember",
      "outputs": [
        {
          "internalType": "address",
          "name": "",
          "type": "address"
        }
      ],
      "stateMutability": "view",
      "type": "function"
    },
    {
      "inputs": [
        {
          "internalType": "bytes32",
          "name": "role",
          "type": "bytes32"
        }
      ],
      "name": "getRoleMemberCount",
      "outputs": [
        {
          "internalType": "uint256",
          "name": "",
          "type": "uint256"
        }
      ],
      "stateMutability": "view",
      "type": "function"
    },
    {
      "inputs": [
        {
          "internalType": "bytes32",
          "name": "role",
          "type": "bytes32"
        },
        {
          "internalType": "address",
          "name": "account",
          "type": "address"
        }
      ],
      "name": "grantRole",
      "outputs": [],
      "stateMutability": "nonpayable",
      "type": "function"
    },
    {
      "inputs": [
        {
          "internalType": "bytes32",
          "name": "role",
          "type": "bytes32"
        },
        {
          "internalType": "address",
          "name": "account",
          "type": "address"
        }
      ],
      "name": "hasRole",
      "outputs": [
        {
          "internalType": "bool",
          "name": "",
          "type": "bool"
        }
      ],
      "stateMutability": "view",
      "type": "function"
    },
    {
      "inputs": [
        {
          "internalType": "bytes32",
          "name": "role",
          "type": "bytes32"
        },
        {
          "internalType": "address",
          "name": "account",
          "type": "address"
        }
      ],
      "name": "renounceRole",
      "outputs": [],
      "stateMutability": "nonpayable",
      "type": "function"
    },
    {
      "inputs": [
        {
          "internalType": "bytes32",
          "name": "role",
          "type": "bytes32"
        },
        {
          "internalType": "address",
          "name": "account",
          "type": "address"
        }
      ],
      "name": "revokeRole",
      "outputs": [],
      "stateMutability": "nonpayable",
      "type": "function"
    },
    {
      "inputs": [
        {
          "internalType": "bytes4",
          "name": "interfaceId",
          "type": "bytes4"
        }
      ],
      "name": "supportsInterface",
      "outputs": [
        {
          "internalType": "bool",
          "name": "",
          "type": "bool"
        }
      ],
      "stateMutability": "view",
      "type": "function"
    },
    {
      "inputs": [
        {
          "internalType": "address",
          "name": "keeperAddress",
          "type": "address"
        }
      ],
      "name": "addKeeper",
      "outputs": [],
      "stateMutability": "nonpayable",
      "type": "function"
    },
    {
      "inputs": [
        {
          "internalType": "address",
          "name": "boardAddress",
          "type": "address"
        }
      ],
      "name": "runBoardUpdate",
      "outputs": [],
      "stateMutability": "nonpayable",
      "type": "function"
    },
    {
      "inputs": [
        {
          "internalType": "string[]",
          "name": "zonePath",
          "type": "string[]"
        },
        {
          "internalType": "uint256",
          "name": "gameID",
          "type": "uint256"
        },
        {
          "internalType": "address",
          "name": "boardAddress",
          "type": "address"
        }
      ],
      "name": "moveThroughPath",
      "outputs": [],
      "stateMutability": "nonpayable",
      "type": "function"
    },
    {
      "inputs": [
        {
          "internalType": "string",
          "name": "zoneChoice",
          "type": "string"
        },
        {
          "internalType": "uint256",
          "name": "gameID",
          "type": "uint256"
        },
        {
          "internalType": "address",
          "name": "boardAddress",
          "type": "address"
        }
      ],
      "name": "chooseLandingSite",
      "outputs": [],
      "stateMutability": "nonpayable",
      "type": "function"
    },
    {
      "inputs": [
        {
          "internalType": "address",
          "name": "gameRegistryAddress",
          "type": "address"
        },
        {
          "internalType": "address",
          "name": "boardAddress",
          "type": "address"
        }
      ],
      "name": "requestNewGame",
      "outputs": [],
      "stateMutability": "nonpayable",
      "type": "function"
    },
    {
      "inputs": [
        {
          "internalType": "address",
          "name": "gameRegistryAddress",
          "type": "address"
        },
        {
          "internalType": "address",
          "name": "boardAddress",
          "type": "address"
        }
      ],
      "name": "latestGame",
      "outputs": [
        {
          "internalType": "uint256",
          "name": "",
          "type": "uint256"
        }
      ],
      "stateMutability": "view",
      "type": "function"
    }
  ],
  "bytecode": "0x60806040523480156200001157600080fd5b5060405162001aa938038062001aa9833981016040819052620000349162000215565b806200004b60008264010000000062000053810204565b505062000247565b6200006882826401000000006200006c810204565b5050565b62000086828264010000000062000ba2620000b382021704565b6000828152600160205260409020620000ae908264010000000062000c266200014f82021704565b505050565b620000c8828264010000000062000178810204565b6200006857600082815260208181526040808320600160a060020a03851684529091529020805460ff191660011790556200010b640100000000620001a1810204565b600160a060020a031681600160a060020a0316837f2f8788117e7eff1d82e926ec794901d17c78024a50270940304540a733656f0d60405160405180910390a45050565b60006200016f83600160a060020a038416640100000000620001a5810204565b90505b92915050565b600091825260208281526040808420600160a060020a0393909316845291905290205460ff1690565b3390565b6000620001bc8383640100000000620001fd810204565b620001f45750815460018181018455600084815260208082209093018490558454848252828601909352604090209190915562000172565b50600062000172565b60009081526001919091016020526040902054151590565b6000602082840312156200022857600080fd5b8151600160a060020a03811681146200024057600080fd5b9392505050565b61185280620002576000396000f3fe608060405234801561001057600080fd5b506004361061010f5760003560e060020a900480637479c8fe116100a6578063a217fddf11610075578063a217fddf14610259578063c3ef701314610261578063ca15c87314610274578063d547741f14610287578063f3297df91461029a57600080fd5b80637479c8fe146101f55780639010d07c1461020857806391d1485414610233578063975eef261461024657600080fd5b806336568abe116100e257806336568abe146101a95780634032b72b146101bc5780634bde808c146101cf578063661e0566146101e257600080fd5b806301ffc9a714610114578063248a9ca31461013c5780632f2ff15d1461016d578063364bc15a14610182575b600080fd5b6101276101223660046111a0565b6102ad565b60405190151581526020015b60405180910390f35b61015f61014a3660046111ca565b60009081526020819052604090206001015490565b604051908152602001610133565b61018061017b366004611208565b6102f1565b005b61015f7ffc8737ab85eb45125971625a9ebdb75cc78e01d5c1fa80c4c6e5203f47bc4fab81565b6101806101b7366004611208565b61031b565b6101806101ca366004611238565b6103af565b6101806101dd36600461130f565b6103e4565b6101806101f03660046113eb565b610676565b610180610203366004611419565b6106f2565b61021b610216366004611452565b610789565b604051600160a060020a039091168152602001610133565b610127610241366004611208565b6107a8565b61015f6102543660046113eb565b6107d1565b61015f600081565b61018061026f366004611238565b610858565b61015f6102823660046111ca565b6108b1565b610180610295366004611208565b6108c8565b6101806102a8366004611474565b6108ed565b6000600160e060020a031982167f5a05180f0000000000000000000000000000000000000000000000000000000014806102eb57506102eb82610c3b565b92915050565b60008281526020819052604090206001015461030c81610ca2565b6103168383610caf565b505050565b600160a060020a03811633146103a15760405160e560020a62461bcd02815260206004820152602f60248201527f416363657373436f6e74726f6c3a2063616e206f6e6c792072656e6f756e636560448201527f20726f6c657320666f722073656c66000000000000000000000000000000000060648201526084015b60405180910390fd5b6103ab8282610cd1565b5050565b60006103ba81610ca2565b6103ab7ffc8737ab85eb45125971625a9ebdb75cc78e01d5c1fa80c4c6e5203f47bc4fab836102f1565b6000819050600081600160a060020a031663c06dea4e6040518163ffffffff1660e060020a028152600401602060405180830381865afa15801561042c573d6000803e3d6000fd5b505050506040513d601f19601f8201168201806040525081019061045091906114c4565b6040517fb81f6e1800000000000000000000000000000000000000000000000000000000815260048101869052336024820152909150600160a060020a0382169063b81f6e1890604401602060405180830381865afa1580156104b7573d6000803e3d6000fd5b505050506040513d601f19601f820116820180604052508101906104db91906114e1565b61052a5760405160e560020a62461bcd02815260206004820152601560248201527f706c61796572206e6f74207265676973746572656400000000000000000000006044820152606401610398565b6000855167ffffffffffffffff81111561054657610546611255565b60405190808252806020026020018201604052801561056f578160200160208202803683370190505b50905060005b86518110156105f057801561059a578060011461059357600461059d565b600261059d565b60015b8282815181106105af576105af611503565b6020026020010190600a8111156105c8576105c861151c565b9081600a8111156105db576105db61151c565b905250806105e88161154e565b915050610575565b506040517f31e019f6000000000000000000000000000000000000000000000000000000008152600160a060020a038516906331e019f69061063c90899033908a9087906004016115e6565b600060405180830381600087803b15801561065657600080fd5b505af115801561066a573d6000803e3d6000fd5b50505050505050505050565b6040517f72c6c6b6000000000000000000000000000000000000000000000000000000008152600160a060020a0383811660048301528291908216906372c6c6b690602401600060405180830381600087803b1580156106d557600080fd5b505af11580156106e9573d6000803e3d6000fd5b50505050505050565b6040517f9eb356cb0000000000000000000000000000000000000000000000000000000081526004810183905233602482015260448101849052600160a060020a03821690639eb356cb906064016020604051808303816000875af115801561075f573d6000803e3d6000fd5b505050506040513d601f19601f8201168201806040525081019061078391906114e1565b50505050565b60008281526001602052604081206107a19083610cf3565b9392505050565b600091825260208281526040808420600160a060020a0393909316845291905290205460ff1690565b6040517fb553910d000000000000000000000000000000000000000000000000000000008152600160a060020a0382811660048301526000919084169063b553910d90602401602060405180830381865afa158015610834573d6000803e3d6000fd5b505050506040513d601f19601f820116820180604052508101906107a1919061169f565b80600160a060020a031663d1e18d266040518163ffffffff1660e060020a028152600401600060405180830381600087803b15801561089657600080fd5b505af11580156108aa573d6000803e3d6000fd5b5050505050565b60008181526001602052604081206102eb90610cff565b6000828152602081905260409020600101546108e381610ca2565b6103168383610cd1565b6000819050600081600160a060020a031663c06dea4e6040518163ffffffff1660e060020a028152600401602060405180830381865afa158015610935573d6000803e3d6000fd5b505050506040513d601f19601f8201168201806040525081019061095991906114c4565b6040517fb81f6e1800000000000000000000000000000000000000000000000000000000815260048101869052336024820152909150600160a060020a0382169063b81f6e1890604401602060405180830381865afa1580156109c0573d6000803e3d6000fd5b505050506040513d601f19601f820116820180604052508101906109e491906114e1565b610a335760405160e560020a62461bcd02815260206004820152601560248201527f706c61796572206e6f74207265676973746572656400000000000000000000006044820152606401610398565b6040517ff8430708000000000000000000000000000000000000000000000000000000008152600160a060020a0383169063f843070890610a7d90889060059089906004016116b8565b600060405180830381600087803b158015610a9757600080fd5b505af1158015610aab573d6000803e3d6000fd5b50506040517f9f82bcc0000000000000000000000000000000000000000000000000000000008152600160a060020a0385169250639f82bcc09150610af690889088906004016116e8565b600060405180830381600087803b158015610b1057600080fd5b505af1158015610b24573d6000803e3d6000fd5b50506040517f95805dad00000000000000000000000000000000000000000000000000000000815260048101879052600160a060020a03851692506395805dad9150602401600060405180830381600087803b158015610b8357600080fd5b505af1158015610b97573d6000803e3d6000fd5b505050505050505050565b610bac82826107a8565b6103ab57600082815260208181526040808320600160a060020a03851684529091529020805460ff19166001179055610be23390565b600160a060020a031681600160a060020a0316837f2f8788117e7eff1d82e926ec794901d17c78024a50270940304540a733656f0d60405160405180910390a45050565b60006107a183600160a060020a038416610d09565b6000600160e060020a031982167f7965db0b0000000000000000000000000000000000000000000000000000000014806102eb57507f01ffc9a700000000000000000000000000000000000000000000000000000000600160e060020a03198316146102eb565b610cac8133610d58565b50565b610cb98282610ba2565b60008281526001602052604090206103169082610c26565b610cdb8282610dbf565b60008281526001602052604090206103169082610e24565b60006107a18383610e39565b60006102eb825490565b6000818152600183016020526040812054610d50575081546001818101845560008481526020808220909301849055845484825282860190935260409020919091556102eb565b5060006102eb565b610d6282826107a8565b6103ab57610d7a81600160a060020a03166014610e63565b610d85836020610e63565b604051602001610d9692919061170a565b60408051601f198184030181529082905260e560020a62461bcd0282526103989160040161178b565b610dc982826107a8565b156103ab57600082815260208181526040808320600160a060020a0385168085529252808320805460ff1916905551339285917ff6391f5c32d9c69d2a47ea670b442974b53935d1edc7fd64eb21e047a839171b9190a45050565b60006107a183600160a060020a0384166110ad565b6000826000018281548110610e5057610e50611503565b9060005260206000200154905092915050565b60606000610e7283600261179e565b610e7d9060026117bd565b67ffffffffffffffff811115610e9557610e95611255565b6040519080825280601f01601f191660200182016040528015610ebf576020820181803683370190505b5090507f300000000000000000000000000000000000000000000000000000000000000081600081518110610ef657610ef6611503565b60200101907effffffffffffffffffffffffffffffffffffffffffffffffffffffffffffff1916908160001a9053507f780000000000000000000000000000000000000000000000000000000000000081600181518110610f5957610f59611503565b60200101907effffffffffffffffffffffffffffffffffffffffffffffffffffffffffffff1916908160001a9053506000610f9584600261179e565b610fa09060016117bd565b90505b600181111561105b577f303132333435363738396162636465660000000000000000000000000000000085600f1660108110610fe157610fe1611503565b1a7f01000000000000000000000000000000000000000000000000000000000000000282828151811061101657611016611503565b60200101907effffffffffffffffffffffffffffffffffffffffffffffffffffffffffffff1916908160001a905350601090940493611054816117d5565b9050610fa3565b5083156107a15760405160e560020a62461bcd02815260206004820181905260248201527f537472696e67733a20686578206c656e67746820696e73756666696369656e746044820152606401610398565b600081815260018301602052604081205480156111965760006110d16001836117ec565b85549091506000906110e5906001906117ec565b905081811461114a57600086600001828154811061110557611105611503565b906000526020600020015490508087600001848154811061112857611128611503565b6000918252602080832090910192909255918252600188019052604090208390555b855486908061115b5761115b611803565b6001900381819060005260206000200160009055905585600101600086815260200190815260200160002060009055600193505050506102eb565b60009150506102eb565b6000602082840312156111b257600080fd5b8135600160e060020a0319811681146107a157600080fd5b6000602082840312156111dc57600080fd5b5035919050565b600160a060020a0381168114610cac57600080fd5b8035611203816111e3565b919050565b6000806040838503121561121b57600080fd5b82359150602083013561122d816111e3565b809150509250929050565b60006020828403121561124a57600080fd5b81356107a1816111e3565b60e060020a634e487b7102600052604160045260246000fd5b604051601f8201601f1916810167ffffffffffffffff8111828210171561129757611297611255565b604052919050565b600082601f8301126112b057600080fd5b813567ffffffffffffffff8111156112ca576112ca611255565b6112dd601f8201601f191660200161126e565b8181528460208386010111156112f257600080fd5b816020850160208301376000918101602001919091529392505050565b60008060006060848603121561132457600080fd5b833567ffffffffffffffff8082111561133c57600080fd5b818601915086601f83011261135057600080fd5b813560208282111561136457611364611255565b80820261137282820161126e565b928352848101820192828101908b85111561138c57600080fd5b83870192505b848310156113c8578235868111156113aa5760008081fd5b6113b88d86838b010161129f565b8352509183019190830190611392565b9850505087013594506113e29250506040860190506111f8565b90509250925092565b600080604083850312156113fe57600080fd5b8235611409816111e3565b9150602083013561122d816111e3565b60008060006060848603121561142e57600080fd5b83359250602084013591506040840135611447816111e3565b809150509250925092565b6000806040838503121561146557600080fd5b50508035926020909101359150565b60008060006060848603121561148957600080fd5b833567ffffffffffffffff8111156114a057600080fd5b6114ac8682870161129f565b935050602084013591506040840135611447816111e3565b6000602082840312156114d657600080fd5b81516107a1816111e3565b6000602082840312156114f357600080fd5b815180151581146107a157600080fd5b60e060020a634e487b7102600052603260045260246000fd5b60e060020a634e487b7102600052602160045260246000fd5b60e060020a634e487b7102600052601160045260246000fd5b600060001982141561156257611562611535565b5060010190565b60005b8381101561158457818101518382015260200161156c565b838111156107835750506000910152565b600081518084526115ad816020860160208601611569565b601f01601f19169290920160200192915050565b600b81106115e25760e060020a634e487b7102600052602160045260246000fd5b9052565b6000608082016080835280875180835260a0850191506020925060a0838202860101838a0160005b8381101561163c57609f1988840301855261162a838351611595565b9486019492509085019060010161160e565b5050600160a060020a0389168685015260408601889052858103606087015286518082529084019250905085830160005b82811015611690576116808483516115c1565b928401929084019060010161166d565b50919998505050505050505050565b6000602082840312156116b157600080fd5b5051919050565b6060815260006116cb6060830186611595565b90506116da60208301856115c1565b826040830152949350505050565b6040815260006116fb6040830185611595565b90508260208301529392505050565b7f416363657373436f6e74726f6c3a206163636f756e7420000000000000000000815260008351611742816017850160208801611569565b7f206973206d697373696e6720726f6c6520000000000000000000000000000000601791840191820152835161177f816028840160208801611569565b01602801949350505050565b6020815260006107a16020830184611595565b60008160001904831182151516156117b8576117b8611535565b500290565b600082198211156117d0576117d0611535565b500190565b6000816117e4576117e4611535565b506000190190565b6000828210156117fe576117fe611535565b500390565b60e060020a634e487b7102600052603160045260246000fdfea2646970667358221220ae6ca6e77d4350d77f2b4bd64d5658d9e202b186cc58cc9312c85e68d8e6db8564736f6c634300080b0033",
  "immutableReferences": {},
  "source": "// SPDX-License-Identifier: GPL-3.0\npragma solidity >=0.7.0 <0.9.0;\n\nimport \"@luckymachines/game-core/contracts/src/v0.0/GameController.sol\";\nimport \"./HexplorationBoard.sol\";\nimport \"./HexplorationZone.sol\";\n\ncontract HexplorationController is GameController {\n    // functions are meant to be called directly by players by default\n    // we are adding the ability of a Controller Admin or Keeper to\n    // execute the game aspects not directly controlled by players\n    bytes32 public constant KEEPER_ROLE = keccak256(\"KEEPER_ROLE\");\n\n    // TODO:\n    // Connect to Chainlink VRF for random seeds when needed\n    // submit move + space choice\n    // use / swap item\n\n    modifier onlyAdminKeeper() {\n        require(\n            hasRole(DEFAULT_ADMIN_ROLE, _msgSender()) ||\n                hasRole(KEEPER_ROLE, _msgSender()),\n            \"Admin or Keeper role required\"\n        );\n        _;\n    }\n\n    constructor(address adminAddress) GameController(adminAddress) {}\n\n    function addKeeper(address keeperAddress)\n        public\n        onlyRole(DEFAULT_ADMIN_ROLE)\n    {\n        grantRole(KEEPER_ROLE, keeperAddress);\n    }\n\n    // Admin or Keeper Interactions\n    function runBoardUpdate(address boardAddress) public {\n        HexplorationBoard(boardAddress).runUpdate();\n    }\n\n    //Player Interactions\n    function moveThroughPath(\n        string[] memory zonePath,\n        uint256 gameID,\n        address boardAddress\n    ) public {\n        // TODO:\n        // verify move is valid\n        // pick tiles from deck\n        HexplorationBoard board = HexplorationBoard(boardAddress);\n        PlayerRegistry pr = PlayerRegistry(board.prAddress());\n        require(pr.isRegistered(gameID, msg.sender), \"player not registered\");\n\n        HexplorationZone.Tile[] memory tiles = new HexplorationZone.Tile[](\n            zonePath.length\n        );\n        for (uint256 i = 0; i < zonePath.length; i++) {\n            tiles[i] = i == 0 ? HexplorationZone.Tile.Jungle : i == 1\n                ? HexplorationZone.Tile.Plains\n                : HexplorationZone.Tile.Mountain;\n        }\n\n        HexplorationBoard(boardAddress).moveThroughPath(\n            zonePath,\n            msg.sender,\n            gameID,\n            tiles\n        );\n    }\n\n    function chooseLandingSite(\n        string memory zoneChoice,\n        uint256 gameID,\n        address boardAddress\n    ) public {\n        // TODO: decide if this is done by a leader or automatically\n        // game will begin and registration locked after this...\n        HexplorationBoard board = HexplorationBoard(boardAddress);\n        PlayerRegistry pr = PlayerRegistry(board.prAddress());\n        require(pr.isRegistered(gameID, msg.sender), \"player not registered\");\n\n        board.enableZone(zoneChoice, HexplorationZone.Tile.LandingSite, gameID);\n        // set landing site at space on board\n        board.setInitialPlayZone(zoneChoice, gameID);\n        board.start(gameID);\n        // run loop to continue startup process\n    }\n\n    // TODO: limit this to authorized game starters\n    function requestNewGame(address gameRegistryAddress, address boardAddress)\n        public\n    {\n        HexplorationBoard board = HexplorationBoard(boardAddress);\n        board.requestNewGame(gameRegistryAddress);\n    }\n\n    function latestGame(address gameRegistryAddress, address boardAddress)\n        public\n        view\n        returns (uint256)\n    {\n        return GameRegistry(gameRegistryAddress).latestGame(boardAddress);\n    }\n}\n",
  "sourcePath": "/Users/maxmeier/Developer/Lucky Machines/hexploration/contracts/HexplorationController.sol",
  "compiler": {
    "name": "solc",
    "version": "0.8.11+commit.d7f03943.Emscripten.clang"
  },
  "schemaVersion": "3.4.4",
  "updatedAt": "2022-05-14T00:35:45.896Z",
  "devdoc": {
    "kind": "dev",
    "methods": {
      "getRoleAdmin(bytes32)": {
        "details": "Returns the admin role that controls `role`. See {grantRole} and {revokeRole}. To change a role's admin, use {_setRoleAdmin}."
      },
      "getRoleMember(bytes32,uint256)": {
        "details": "Returns one of the accounts that have `role`. `index` must be a value between 0 and {getRoleMemberCount}, non-inclusive. Role bearers are not sorted in any particular way, and their ordering may change at any point. WARNING: When using {getRoleMember} and {getRoleMemberCount}, make sure you perform all queries on the same block. See the following https://forum.openzeppelin.com/t/iterating-over-elements-on-enumerableset-in-openzeppelin-contracts/2296[forum post] for more information."
      },
      "getRoleMemberCount(bytes32)": {
        "details": "Returns the number of accounts that have `role`. Can be used together with {getRoleMember} to enumerate all bearers of a role."
      },
      "grantRole(bytes32,address)": {
        "details": "Grants `role` to `account`. If `account` had not been already granted `role`, emits a {RoleGranted} event. Requirements: - the caller must have ``role``'s admin role."
      },
      "hasRole(bytes32,address)": {
        "details": "Returns `true` if `account` has been granted `role`."
      },
      "renounceRole(bytes32,address)": {
        "details": "Revokes `role` from the calling account. Roles are often managed via {grantRole} and {revokeRole}: this function's purpose is to provide a mechanism for accounts to lose their privileges if they are compromised (such as when a trusted device is misplaced). If the calling account had been revoked `role`, emits a {RoleRevoked} event. Requirements: - the caller must be `account`."
      },
      "revokeRole(bytes32,address)": {
        "details": "Revokes `role` from `account`. If `account` had been granted `role`, emits a {RoleRevoked} event. Requirements: - the caller must have ``role``'s admin role."
      },
      "supportsInterface(bytes4)": {
        "details": "See {IERC165-supportsInterface}."
      }
    },
    "version": 1
  },
  "userdoc": {
    "kind": "user",
    "methods": {},
    "version": 1
  }
}