{
  "contractName": "HexplorationBoard",
  "abi": [
    {
      "inputs": [
        {
          "internalType": "address",
          "name": "adminAddress",
          "type": "address"
        },
        {
          "internalType": "uint256",
          "name": "gridWidth",
          "type": "uint256"
        },
        {
          "internalType": "uint256",
          "name": "gridHeight",
          "type": "uint256"
        },
        {
          "internalType": "address",
          "name": "zoneAddress",
          "type": "address"
        }
      ],
      "stateMutability": "nonpayable",
      "type": "constructor"
    },
    {
      "anonymous": false,
      "inputs": [
        {
          "indexed": true,
          "internalType": "bytes32",
          "name": "role",
          "type": "bytes32"
        },
        {
          "indexed": true,
          "internalType": "bytes32",
          "name": "previousAdminRole",
          "type": "bytes32"
        },
        {
          "indexed": true,
          "internalType": "bytes32",
          "name": "newAdminRole",
          "type": "bytes32"
        }
      ],
      "name": "RoleAdminChanged",
      "type": "event"
    },
    {
      "anonymous": false,
      "inputs": [
        {
          "indexed": true,
          "internalType": "bytes32",
          "name": "role",
          "type": "bytes32"
        },
        {
          "indexed": true,
          "internalType": "address",
          "name": "account",
          "type": "address"
        },
        {
          "indexed": true,
          "internalType": "address",
          "name": "sender",
          "type": "address"
        }
      ],
      "name": "RoleGranted",
      "type": "event"
    },
    {
      "anonymous": false,
      "inputs": [
        {
          "indexed": true,
          "internalType": "bytes32",
          "name": "role",
          "type": "bytes32"
        },
        {
          "indexed": true,
          "internalType": "address",
          "name": "account",
          "type": "address"
        },
        {
          "indexed": true,
          "internalType": "address",
          "name": "sender",
          "type": "address"
        }
      ],
      "name": "RoleRevoked",
      "type": "event"
    },
    {
      "inputs": [],
      "name": "DEFAULT_ADMIN_ROLE",
      "outputs": [
        {
          "internalType": "bytes32",
          "name": "",
          "type": "bytes32"
        }
      ],
      "stateMutability": "view",
      "type": "function",
      "constant": true
    },
    {
      "inputs": [],
      "name": "FACTORY_ROLE",
      "outputs": [
        {
          "internalType": "bytes32",
          "name": "",
          "type": "bytes32"
        }
      ],
      "stateMutability": "view",
      "type": "function",
      "constant": true
    },
    {
      "inputs": [],
      "name": "GAME_MASTER_ROLE",
      "outputs": [
        {
          "internalType": "bytes32",
          "name": "",
          "type": "bytes32"
        }
      ],
      "stateMutability": "view",
      "type": "function",
      "constant": true
    },
    {
      "inputs": [],
      "name": "MAX_BATCH_SIZE",
      "outputs": [
        {
          "internalType": "uint256",
          "name": "",
          "type": "uint256"
        }
      ],
      "stateMutability": "view",
      "type": "function",
      "constant": true
    },
    {
      "inputs": [],
      "name": "PLAY_ZONE_ROLE",
      "outputs": [
        {
          "internalType": "bytes32",
          "name": "",
          "type": "bytes32"
        }
      ],
      "stateMutability": "view",
      "type": "function",
      "constant": true
    },
    {
      "inputs": [],
      "name": "VERIFIED_CONTROLLER_ROLE",
      "outputs": [
        {
          "internalType": "bytes32",
          "name": "",
          "type": "bytes32"
        }
      ],
      "stateMutability": "view",
      "type": "function",
      "constant": true
    },
    {
      "inputs": [
        {
          "internalType": "uint256",
          "name": "transitID",
          "type": "uint256"
        }
      ],
      "name": "_progressTransit",
      "outputs": [],
      "stateMutability": "nonpayable",
      "type": "function"
    },
    {
      "inputs": [
        {
          "internalType": "address",
          "name": "factoryAddress",
          "type": "address"
        }
      ],
      "name": "addFactory",
      "outputs": [],
      "stateMutability": "nonpayable",
      "type": "function"
    },
    {
      "inputs": [
        {
          "internalType": "address",
          "name": "keeperAddress",
          "type": "address"
        }
      ],
      "name": "addKeeper",
      "outputs": [],
      "stateMutability": "nonpayable",
      "type": "function"
    },
    {
      "inputs": [
        {
          "internalType": "address",
          "name": "vcAddress",
          "type": "address"
        }
      ],
      "name": "addVerifiedController",
      "outputs": [],
      "stateMutability": "nonpayable",
      "type": "function"
    },
    {
      "inputs": [
        {
          "internalType": "uint256",
          "name": "gameID",
          "type": "uint256"
        },
        {
          "internalType": "string[2][]",
          "name": "connections",
          "type": "string[2][]"
        }
      ],
      "name": "addZoneConnections",
      "outputs": [],
      "stateMutability": "nonpayable",
      "type": "function"
    },
    {
      "inputs": [
        {
          "internalType": "address[]",
          "name": "playZoneAddresses",
          "type": "address[]"
        },
        {
          "internalType": "string[]",
          "name": "zoneAliases",
          "type": "string[]"
        },
        {
          "internalType": "uint256",
          "name": "gameID",
          "type": "uint256"
        }
      ],
      "name": "addZones",
      "outputs": [],
      "stateMutability": "nonpayable",
      "type": "function"
    },
    {
      "inputs": [],
      "name": "characterCardAddress",
      "outputs": [
        {
          "internalType": "address",
          "name": "",
          "type": "address"
        }
      ],
      "stateMutability": "view",
      "type": "function",
      "constant": true
    },
    {
      "inputs": [],
      "name": "cleanQueue",
      "outputs": [],
      "stateMutability": "nonpayable",
      "type": "function"
    },
    {
      "inputs": [
        {
          "internalType": "address",
          "name": "_playerRegistry",
          "type": "address"
        },
        {
          "internalType": "address",
          "name": "_gameRegistry",
          "type": "address"
        }
      ],
      "name": "createGame",
      "outputs": [
        {
          "internalType": "uint256",
          "name": "gameID",
          "type": "uint256"
        }
      ],
      "stateMutability": "nonpayable",
      "type": "function"
    },
    {
      "inputs": [
        {
          "internalType": "address",
          "name": "_playerRegistry",
          "type": "address"
        },
        {
          "internalType": "address",
          "name": "_gameRegistry",
          "type": "address"
        },
        {
          "internalType": "address[]",
          "name": "playZoneAddresses",
          "type": "address[]"
        },
        {
          "internalType": "string[]",
          "name": "zoneAliases",
          "type": "string[]"
        }
      ],
      "name": "createGame",
      "outputs": [
        {
          "internalType": "uint256",
          "name": "gameID",
          "type": "uint256"
        }
      ],
      "stateMutability": "nonpayable",
      "type": "function"
    },
    {
      "inputs": [],
      "name": "createGrid",
      "outputs": [],
      "stateMutability": "nonpayable",
      "type": "function"
    },
    {
      "inputs": [
        {
          "internalType": "uint256",
          "name": "",
          "type": "uint256"
        },
        {
          "internalType": "uint256",
          "name": "",
          "type": "uint256"
        }
      ],
      "name": "currentPlayZone",
      "outputs": [
        {
          "internalType": "string",
          "name": "",
          "type": "string"
        }
      ],
      "stateMutability": "view",
      "type": "function",
      "constant": true
    },
    {
      "inputs": [
        {
          "internalType": "uint256",
          "name": "",
          "type": "uint256"
        },
        {
          "internalType": "uint256",
          "name": "",
          "type": "uint256"
        }
      ],
      "name": "entryQueue",
      "outputs": [
        {
          "internalType": "uint256",
          "name": "",
          "type": "uint256"
        }
      ],
      "stateMutability": "view",
      "type": "function",
      "constant": true
    },
    {
      "inputs": [
        {
          "internalType": "uint256",
          "name": "gameID",
          "type": "uint256"
        },
        {
          "internalType": "address",
          "name": "playerAddress",
          "type": "address"
        },
        {
          "internalType": "uint256",
          "name": "pathIndex",
          "type": "uint256"
        }
      ],
      "name": "exitToPath",
      "outputs": [
        {
          "internalType": "bool",
          "name": "exitSuccess",
          "type": "bool"
        }
      ],
      "stateMutability": "nonpayable",
      "type": "function"
    },
    {
      "inputs": [
        {
          "internalType": "uint256",
          "name": "",
          "type": "uint256"
        }
      ],
      "name": "gameState",
      "outputs": [
        {
          "internalType": "uint256",
          "name": "",
          "type": "uint256"
        }
      ],
      "stateMutability": "view",
      "type": "function",
      "constant": true
    },
    {
      "inputs": [
        {
          "internalType": "uint256",
          "name": "gameID",
          "type": "uint256"
        },
        {
          "internalType": "string",
          "name": "_zoneAlias",
          "type": "string"
        }
      ],
      "name": "getInputs",
      "outputs": [
        {
          "internalType": "string[]",
          "name": "zoneInputs",
          "type": "string[]"
        }
      ],
      "stateMutability": "view",
      "type": "function",
      "constant": true
    },
    {
      "inputs": [
        {
          "internalType": "uint256",
          "name": "gameID",
          "type": "uint256"
        },
        {
          "internalType": "string",
          "name": "_zoneAlias",
          "type": "string"
        }
      ],
      "name": "getOutputs",
      "outputs": [
        {
          "internalType": "string[]",
          "name": "zoneOutputs",
          "type": "string[]"
        }
      ],
      "stateMutability": "view",
      "type": "function",
      "constant": true
    },
    {
      "inputs": [
        {
          "internalType": "uint256",
          "name": "gameID",
          "type": "uint256"
        }
      ],
      "name": "getOverflowQueue",
      "outputs": [
        {
          "internalType": "uint256[]",
          "name": "",
          "type": "uint256[]"
        }
      ],
      "stateMutability": "view",
      "type": "function",
      "constant": true
    },
    {
      "inputs": [
        {
          "internalType": "uint256",
          "name": "gameID",
          "type": "uint256"
        }
      ],
      "name": "getPlayZones",
      "outputs": [
        {
          "internalType": "string[]",
          "name": "",
          "type": "string[]"
        }
      ],
      "stateMutability": "view",
      "type": "function",
      "constant": true
    },
    {
      "inputs": [
        {
          "internalType": "bytes32",
          "name": "role",
          "type": "bytes32"
        }
      ],
      "name": "getRoleAdmin",
      "outputs": [
        {
          "internalType": "bytes32",
          "name": "",
          "type": "bytes32"
        }
      ],
      "stateMutability": "view",
      "type": "function",
      "constant": true
    },
    {
      "inputs": [
        {
          "internalType": "bytes32",
          "name": "role",
          "type": "bytes32"
        },
        {
          "internalType": "uint256",
          "name": "index",
          "type": "uint256"
        }
      ],
      "name": "getRoleMember",
      "outputs": [
        {
          "internalType": "address",
          "name": "",
          "type": "address"
        }
      ],
      "stateMutability": "view",
      "type": "function",
      "constant": true
    },
    {
      "inputs": [
        {
          "internalType": "bytes32",
          "name": "role",
          "type": "bytes32"
        }
      ],
      "name": "getRoleMemberCount",
      "outputs": [
        {
          "internalType": "uint256",
          "name": "",
          "type": "uint256"
        }
      ],
      "stateMutability": "view",
      "type": "function",
      "constant": true
    },
    {
      "inputs": [],
      "name": "getZoneAliases",
      "outputs": [
        {
          "internalType": "string[]",
          "name": "",
          "type": "string[]"
        }
      ],
      "stateMutability": "view",
      "type": "function",
      "constant": true
    },
    {
      "inputs": [
        {
          "internalType": "bytes32",
          "name": "role",
          "type": "bytes32"
        },
        {
          "internalType": "address",
          "name": "account",
          "type": "address"
        }
      ],
      "name": "grantRole",
      "outputs": [],
      "stateMutability": "nonpayable",
      "type": "function"
    },
    {
      "inputs": [],
      "name": "gridHeight",
      "outputs": [
        {
          "internalType": "uint256",
          "name": "",
          "type": "uint256"
        }
      ],
      "stateMutability": "view",
      "type": "function",
      "constant": true
    },
    {
      "inputs": [],
      "name": "gridWidth",
      "outputs": [
        {
          "internalType": "uint256",
          "name": "",
          "type": "uint256"
        }
      ],
      "stateMutability": "view",
      "type": "function",
      "constant": true
    },
    {
      "inputs": [
        {
          "internalType": "bytes32",
          "name": "role",
          "type": "bytes32"
        },
        {
          "internalType": "address",
          "name": "account",
          "type": "address"
        }
      ],
      "name": "hasRole",
      "outputs": [
        {
          "internalType": "bool",
          "name": "",
          "type": "bool"
        }
      ],
      "stateMutability": "view",
      "type": "function",
      "constant": true
    },
    {
      "inputs": [
        {
          "internalType": "uint256",
          "name": "",
          "type": "uint256"
        }
      ],
      "name": "initialPlayZone",
      "outputs": [
        {
          "internalType": "string",
          "name": "",
          "type": "string"
        }
      ],
      "stateMutability": "view",
      "type": "function",
      "constant": true
    },
    {
      "inputs": [
        {
          "internalType": "address",
          "name": "factoryAddress",
          "type": "address"
        }
      ],
      "name": "isFactory",
      "outputs": [
        {
          "internalType": "bool",
          "name": "factoryIsAuthorized",
          "type": "bool"
        }
      ],
      "stateMutability": "view",
      "type": "function",
      "constant": true
    },
    {
      "inputs": [
        {
          "internalType": "uint256",
          "name": "",
          "type": "uint256"
        }
      ],
      "name": "lastEntryPlayerID",
      "outputs": [
        {
          "internalType": "uint256",
          "name": "",
          "type": "uint256"
        }
      ],
      "stateMutability": "view",
      "type": "function",
      "constant": true
    },
    {
      "inputs": [],
      "name": "needsUpdate",
      "outputs": [
        {
          "internalType": "bool",
          "name": "doesNeedUpdate",
          "type": "bool"
        }
      ],
      "stateMutability": "view",
      "type": "function",
      "constant": true
    },
    {
      "inputs": [
        {
          "internalType": "uint256",
          "name": "",
          "type": "uint256"
        },
        {
          "internalType": "string",
          "name": "",
          "type": "string"
        },
        {
          "internalType": "uint256",
          "name": "",
          "type": "uint256"
        }
      ],
      "name": "playZoneInputs",
      "outputs": [
        {
          "internalType": "string",
          "name": "",
          "type": "string"
        }
      ],
      "stateMutability": "view",
      "type": "function",
      "constant": true
    },
    {
      "inputs": [
        {
          "internalType": "uint256",
          "name": "",
          "type": "uint256"
        },
        {
          "internalType": "string",
          "name": "",
          "type": "string"
        },
        {
          "internalType": "uint256",
          "name": "",
          "type": "uint256"
        }
      ],
      "name": "playZoneOutputs",
      "outputs": [
        {
          "internalType": "string",
          "name": "",
          "type": "string"
        }
      ],
      "stateMutability": "view",
      "type": "function",
      "constant": true
    },
    {
      "inputs": [
        {
          "internalType": "uint256",
          "name": "",
          "type": "uint256"
        },
        {
          "internalType": "uint256",
          "name": "",
          "type": "uint256"
        }
      ],
      "name": "playZones",
      "outputs": [
        {
          "internalType": "string",
          "name": "",
          "type": "string"
        }
      ],
      "stateMutability": "view",
      "type": "function",
      "constant": true
    },
    {
      "inputs": [
        {
          "internalType": "uint256",
          "name": "gameID",
          "type": "uint256"
        },
        {
          "internalType": "address",
          "name": "playerAddress",
          "type": "address"
        },
        {
          "internalType": "string",
          "name": "_zoneAlias",
          "type": "string"
        }
      ],
      "name": "playerEnteredZone",
      "outputs": [],
      "stateMutability": "nonpayable",
      "type": "function"
    },
    {
      "inputs": [
        {
          "internalType": "uint256",
          "name": "",
          "type": "uint256"
        }
      ],
      "name": "playerRegistry",
      "outputs": [
        {
          "internalType": "uint256",
          "name": "",
          "type": "uint256"
        }
      ],
      "stateMutability": "view",
      "type": "function",
      "constant": true
    },
    {
      "inputs": [],
      "name": "prAddress",
      "outputs": [
        {
          "internalType": "address",
          "name": "",
          "type": "address"
        }
      ],
      "stateMutability": "view",
      "type": "function",
      "constant": true
    },
    {
      "inputs": [
        {
          "internalType": "uint256",
          "name": "gameID",
          "type": "uint256"
        },
        {
          "internalType": "address[]",
          "name": "playerAddresses",
          "type": "address[]"
        },
        {
          "internalType": "uint256[]",
          "name": "pathIndices",
          "type": "uint256[]"
        },
        {
          "internalType": "uint256",
          "name": "transitID",
          "type": "uint256"
        }
      ],
      "name": "queueExitToPaths",
      "outputs": [],
      "stateMutability": "nonpayable",
      "type": "function"
    },
    {
      "inputs": [
        {
          "internalType": "uint256",
          "name": "gameID",
          "type": "uint256"
        },
        {
          "internalType": "string[]",
          "name": "inputAliases",
          "type": "string[]"
        },
        {
          "internalType": "uint256[]",
          "name": "inputs",
          "type": "uint256[]"
        },
        {
          "internalType": "string[]",
          "name": "outputAliases",
          "type": "string[]"
        },
        {
          "internalType": "uint256[]",
          "name": "outputs",
          "type": "uint256[]"
        }
      ],
      "name": "removeZoneConnections",
      "outputs": [],
      "stateMutability": "nonpayable",
      "type": "function"
    },
    {
      "inputs": [
        {
          "internalType": "bytes32",
          "name": "role",
          "type": "bytes32"
        },
        {
          "internalType": "address",
          "name": "account",
          "type": "address"
        }
      ],
      "name": "renounceRole",
      "outputs": [],
      "stateMutability": "nonpayable",
      "type": "function"
    },
    {
      "inputs": [
        {
          "internalType": "bytes32",
          "name": "role",
          "type": "bytes32"
        },
        {
          "internalType": "address",
          "name": "account",
          "type": "address"
        }
      ],
      "name": "revokeRole",
      "outputs": [],
      "stateMutability": "nonpayable",
      "type": "function"
    },
    {
      "inputs": [],
      "name": "runUpdate",
      "outputs": [],
      "stateMutability": "nonpayable",
      "type": "function"
    },
    {
      "inputs": [
        {
          "internalType": "string",
          "name": "initialZone",
          "type": "string"
        },
        {
          "internalType": "uint256",
          "name": "gameID",
          "type": "uint256"
        }
      ],
      "name": "setInitialPlayZone",
      "outputs": [],
      "stateMutability": "nonpayable",
      "type": "function"
    },
    {
      "inputs": [
        {
          "internalType": "uint256",
          "name": "gameID",
          "type": "uint256"
        }
      ],
      "name": "startGame",
      "outputs": [],
      "stateMutability": "nonpayable",
      "type": "function"
    },
    {
      "inputs": [
        {
          "internalType": "uint256",
          "name": "transitID",
          "type": "uint256"
        }
      ],
      "name": "startTransit",
      "outputs": [],
      "stateMutability": "nonpayable",
      "type": "function"
    },
    {
      "inputs": [
        {
          "internalType": "bytes4",
          "name": "interfaceId",
          "type": "bytes4"
        }
      ],
      "name": "supportsInterface",
      "outputs": [
        {
          "internalType": "bool",
          "name": "",
          "type": "bool"
        }
      ],
      "stateMutability": "view",
      "type": "function",
      "constant": true
    },
    {
      "inputs": [],
      "name": "zoneAddress",
      "outputs": [
        {
          "internalType": "address",
          "name": "",
          "type": "address"
        }
      ],
      "stateMutability": "view",
      "type": "function",
      "constant": true
    },
    {
      "inputs": [
        {
          "internalType": "uint256",
          "name": "",
          "type": "uint256"
        },
        {
          "internalType": "string",
          "name": "",
          "type": "string"
        }
      ],
      "name": "zoneAlias",
      "outputs": [
        {
          "internalType": "address",
          "name": "",
          "type": "address"
        }
      ],
      "stateMutability": "view",
      "type": "function",
      "constant": true
    },
    {
      "inputs": [
        {
          "internalType": "uint256",
          "name": "",
          "type": "uint256"
        }
      ],
      "name": "zoneAliases",
      "outputs": [
        {
          "internalType": "string",
          "name": "",
          "type": "string"
        }
      ],
      "stateMutability": "view",
      "type": "function",
      "constant": true
    },
    {
      "inputs": [
        {
          "internalType": "uint256",
          "name": "",
          "type": "uint256"
        },
        {
          "internalType": "string",
          "name": "",
          "type": "string"
        }
      ],
      "name": "zoneEnabled",
      "outputs": [
        {
          "internalType": "bool",
          "name": "",
          "type": "bool"
        }
      ],
      "stateMutability": "view",
      "type": "function",
      "constant": true
    },
    {
      "inputs": [],
      "name": "hexZoneAddress",
      "outputs": [
        {
          "internalType": "address",
          "name": "",
          "type": "address"
        }
      ],
      "stateMutability": "view",
      "type": "function",
      "constant": true
    },
    {
      "inputs": [
        {
          "internalType": "address",
          "name": "_characterCardAddress",
          "type": "address"
        }
      ],
      "name": "setCharacterCard",
      "outputs": [],
      "stateMutability": "nonpayable",
      "type": "function"
    },
    {
      "inputs": [
        {
          "internalType": "address",
          "name": "playerAddress",
          "type": "address"
        },
        {
          "internalType": "uint256",
          "name": "gameID",
          "type": "uint256"
        }
      ],
      "name": "registerPlayer",
      "outputs": [],
      "stateMutability": "nonpayable",
      "type": "function"
    },
    {
      "inputs": [
        {
          "internalType": "uint256",
          "name": "gameID",
          "type": "uint256"
        }
      ],
      "name": "lockRegistration",
      "outputs": [],
      "stateMutability": "nonpayable",
      "type": "function"
    },
    {
      "inputs": [
        {
          "internalType": "address",
          "name": "playerAddress",
          "type": "address"
        },
        {
          "internalType": "uint256",
          "name": "gameID",
          "type": "uint256"
        },
        {
          "internalType": "string",
          "name": "zone",
          "type": "string"
        }
      ],
      "name": "enterPlayer",
      "outputs": [],
      "stateMutability": "nonpayable",
      "type": "function"
    },
    {
      "inputs": [
        {
          "internalType": "address",
          "name": "playerAddress",
          "type": "address"
        },
        {
          "internalType": "uint256",
          "name": "gameID",
          "type": "uint256"
        },
        {
          "internalType": "string",
          "name": "zone",
          "type": "string"
        }
      ],
      "name": "exitPlayer",
      "outputs": [],
      "stateMutability": "nonpayable",
      "type": "function"
    },
    {
      "inputs": [
        {
          "internalType": "address",
          "name": "gameRegistryAddress",
          "type": "address"
        }
      ],
      "name": "requestNewGame",
      "outputs": [],
      "stateMutability": "nonpayable",
      "type": "function"
    },
    {
      "inputs": [
        {
          "internalType": "uint256",
          "name": "gs",
          "type": "uint256"
        },
        {
          "internalType": "uint256",
          "name": "gameID",
          "type": "uint256"
        }
      ],
      "name": "setGameState",
      "outputs": [],
      "stateMutability": "nonpayable",
      "type": "function"
    },
    {
      "inputs": [
        {
          "internalType": "uint256",
          "name": "randomness",
          "type": "uint256"
        }
      ],
      "name": "setRandomness",
      "outputs": [],
      "stateMutability": "nonpayable",
      "type": "function"
    },
    {
      "inputs": [
        {
          "internalType": "uint256",
          "name": "gameID",
          "type": "uint256"
        }
      ],
      "name": "start",
      "outputs": [],
      "stateMutability": "nonpayable",
      "type": "function"
    },
    {
      "inputs": [
        {
          "internalType": "string",
          "name": "zoneAlias",
          "type": "string"
        },
        {
          "internalType": "enum HexplorationZone.Tile",
          "name": "tile",
          "type": "uint8"
        },
        {
          "internalType": "uint256",
          "name": "gameID",
          "type": "uint256"
        }
      ],
      "name": "enableZone",
      "outputs": [],
      "stateMutability": "nonpayable",
      "type": "function"
    },
    {
      "inputs": [
        {
          "internalType": "string[]",
          "name": "zonePath",
          "type": "string[]"
        },
        {
          "internalType": "address",
          "name": "playerAddress",
          "type": "address"
        },
        {
          "internalType": "uint256",
          "name": "gameID",
          "type": "uint256"
        },
        {
          "internalType": "enum HexplorationZone.Tile[]",
          "name": "tiles",
          "type": "uint8[]"
        }
      ],
      "name": "moveThroughPath",
      "outputs": [],
      "stateMutability": "nonpayable",
      "type": "function"
    }
  ],
  "bytecode": "0x60806040523480156200001157600080fd5b5060405162004dc838038062004dc88339810160408190526200003491620002a8565b83838383836200004f600082640100000000620000c9810204565b620000847f1d93c87416ca7b54f0fb8323167b72760e8e2ec93d48660953897a150f97a8b482640100000000620000c9810204565b50600e92909255600f5560108054600160a060020a03928316600160a060020a031991821617909155601380549490921693169290921790915550620002f392505050565b620000de8282640100000000620000e2810204565b5050565b620000fc828264010000000062002c2e6200012982021704565b600082815260016020526040902062000124908264010000000062002cb2620001c582021704565b505050565b6200013e8282640100000000620001ee810204565b620000de57600082815260208181526040808320600160a060020a03851684529091529020805460ff191660011790556200018164010000000062000217810204565b600160a060020a031681600160a060020a0316837f2f8788117e7eff1d82e926ec794901d17c78024a50270940304540a733656f0d60405160405180910390a45050565b6000620001e583600160a060020a0384166401000000006200021b810204565b90505b92915050565b600091825260208281526040808420600160a060020a0393909316845291905290205460ff1690565b3390565b600062000232838364010000000062000273810204565b6200026a57508154600181810184556000848152602080822090930184905584548482528286019093526040902091909155620001e8565b506000620001e8565b60009081526001919091016020526040902054151590565b8051600160a060020a0381168114620002a357600080fd5b919050565b60008060008060808587031215620002bf57600080fd5b620002ca856200028b565b93506020850151925060408501519150620002e8606086016200028b565b905092959194509250565b614ac580620003036000396000f3fe608060405234801561001057600080fd5b50600436106104005760003560e060020a9004806391d1485411610219578063ca15c87311610129578063d75e7980116100bc578063ed3719a51161008b578063ed3719a51461091a578063f643b8fd14610959578063f84307081461096c578063fa9f34381461097f578063fdd198c31461099257600080fd5b8063d75e7980146108ce578063d91413ba146108e1578063e5ed1d59146108f4578063eb33983d1461090757600080fd5b8063d2d6756b116100f8578063d2d6756b14610868578063d3fb728914610888578063d4f5b152146108a8578063d547741f146108bb57600080fd5b8063ca15c87314610830578063cd1ec7f214610843578063cfdbf25414610858578063d1e18d261461086057600080fd5b8063a217fddf116101ac578063ad1def1e1161017b578063ad1def1e146107e4578063b2df0ca21461050f578063b40c89df146107f9578063babdeefa1461080c578063c06dea4e1461081f57600080fd5b8063a217fddf14610796578063a4f9c9df1461079e578063a6f979ff146107b1578063aab2aeb8146107c457600080fd5b80639aabe36d116101e85780639aabe36d1461074a5780639eb356cb1461075d5780639f6c4017146107705780639f82bcc01461078357600080fd5b806391d14854146106fe5780639230f8791461071157806395805dad1461072457806398bd75721461073757600080fd5b806331e019f6116103145780634e0e1a3e116102a757806372c6c6b61161027657806372c6c6b6146106aa57806376a321c1146106bd5780637cc75d1c146106d057806384bf09b6146106e35780639010d07c146106eb57600080fd5b80634e0e1a3e1461065157806351709a731461067157806360c20500146106845780636b6ec8691461069757600080fd5b8063374f1d35116102e3578063374f1d351461061a57806338b145df1461062d5780633ca61a58146106365780634032b72b1461063e57600080fd5b806331e019f6146105db578063346c9409146105ee57806335e333e4146105f657806336568abe1461060757600080fd5b8063194f2a361161039757806328d7e11a1161036657806328d7e11a1461057c578063296787561461058f57806329ce1ec5146105a25780632c47669a146105b55780632f2ff15d146105c857600080fd5b8063194f2a36146105115780631c834a7f14610531578063248a9ca31461054657806324a5f50e1461056957600080fd5b8063108c5e14116103d3578063108c5e141461048e578063153a75901461049757806317d7e833146104dc57806319006018146104fc57600080fd5b806301ffc9a71461040557806304a0fb171461042d5780630b197f2e146104505780630f04ba671461047b575b600080fd5b610418610413366004613b68565b6109a5565b60405190151581526020015b60405180910390f35b610442600080516020614a5083398151915281565b604051908152602001610424565b60105461046390600160a060020a031681565b604051600160a060020a039091168152602001610424565b610418610489366004613ba7565b6109e9565b610442600f5481565b6104636104a5366004613cb5565b60086020908152600092835260409092208151808301840180519281529084019290930191909120915254600160a060020a031681565b6104ef6104ea366004613cfc565b610a03565b6040516104249190613d76565b61050f61050a366004613e8d565b610abc565b005b61052461051f366004613cb5565b610c08565b6040516104249190613f44565b610442600080516020614a7083398151915281565b610442610554366004613fa5565b60009081526020819052604090206001015490565b60145461046390600160a060020a031681565b61050f61058a366004613fbe565b610f4b565b61050f61059d366004614078565b610fe8565b61050f6105b0366004613ba7565b611007565b61050f6105c33660046140ed565b61102e565b61050f6105d636600461415a565b61107b565b61050f6105e936600461419e565b6110a5565b61041861123b565b601354600160a060020a0316610463565b61050f61061536600461415a565b61128c565b6104ef610628366004613fa5565b611317565b610442600e5481565b610524611342565b61050f61064c366004613ba7565b61141b565b61044261065f366004613fa5565b60046020526000908152604090205481565b6104ef61067f366004614277565b61144b565b61050f610692366004613fa5565b61149f565b6105246106a5366004613cb5565b61152a565b61050f6106b8366004613ba7565b61185a565b61050f6106cb366004613cfc565b6118d9565b6104426106de366004613cfc565b611903565b61050f611934565b6104636106f9366004613cfc565b611bd4565b61041861070c36600461415a565b611bf3565b61050f61071f366004613ba7565b611c1c565b61050f610732366004613fa5565b611c64565b61050f610745366004613fbe565b611cb2565b61050f6107583660046142b6565b611d17565b61041861076b3660046142e2565b611daa565b61050f61077e366004613fa5565b6121f7565b61050f61079136600461431a565b61220f565b610442600081565b61050f6107ac366004613fa5565b6122cb565b6104426107bf36600461435f565b6122e3565b6104426107d2366004613fa5565b600b6020526000908152604090205481565b610442600080516020614a3083398151915281565b6104ef610807366004614277565b6123c8565b61052461081a366004613fa5565b6123ff565b600254600160a060020a0316610463565b61044261083e366004613fa5565b6124eb565b610442600080516020614a1083398151915281565b61044260c881565b61050f612502565b610442610876366004613fa5565b60056020526000908152604090205481565b61089b610896366004613fa5565b612608565b604051610424919061438d565b61050f6108b6366004613ba7565b61266a565b61050f6108c936600461415a565b61268d565b6104ef6108dc366004613cfc565b6126b2565b6104426108ef3660046143d1565b6126d6565b61050f610902366004613fa5565b6127fa565b6104ef610915366004613fa5565b612812565b610418610928366004613cb5565b6015602090815260009283526040909220815180830184018051928152908401929093019190912091525460ff1681565b61050f61096736600461445a565b61282b565b61050f61097a36600461456b565b612a2c565b61050f61098d3660046145c2565b612b3d565b61050f6109a0366004613fa5565b612c10565b6000600160e060020a031982167f5a05180f0000000000000000000000000000000000000000000000000000000014806109e357506109e382612cc7565b92915050565b60006109e3600080516020614a5083398151915283611bf3565b60066020528160005260406000208181548110610a1f57600080fd5b90600052602060002001600091509150508054610a3b90614605565b80601f0160208091040260200160405190810160405280929190818152602001828054610a6790614605565b8015610ab45780601f10610a8957610100808354040283529160200191610ab4565b820191906000526020600020905b815481529060010190602001808311610a9757829003601f168201915b505050505081565b600080516020614a30833981519152610ad481612d2e565b8151845114610b2d5760405160e560020a62461bcd02815260206004820181905260248201527f696e70757473202f206f757470757473206c656e677468206d69736d6174636860448201526064015b60405180910390fd5b610b38868686612d38565b610b875760405160e560020a62461bcd02815260206004820152600e60248201527f696e7075747320696e76616c69640000000000000000000000000000000000006044820152606401610b24565b610b92868484612ddb565b610be15760405160e560020a62461bcd02815260206004820152600f60248201527f6f75747075747320696e76616c696400000000000000000000000000000000006044820152606401610b24565b60005b8451811015610bff5780610bf78161465c565b915050610be4565b50505050505050565b60008281526009602052604080822090516060929190610c29908590614677565b9081526020016040518091039020805480602002602001604051908101604052809291908181526020016000905b82821015610d03578382906000526020600020018054610c7690614605565b80601f0160208091040260200160405190810160405280929190818152602001828054610ca290614605565b8015610cef5780601f10610cc457610100808354040283529160200191610cef565b820191906000526020600020905b815481529060010190602001808311610cd257829003601f168201915b505050505081526020019060010190610c57565b505060008080526009602052604051939450927fec8156718a8372b1db44bb411437d0870f3e3790d4a08526d024ce1b0b668f6b9250610d4591508690614677565b9081526020016040518091039020805480602002602001604051908101604052809291908181526020016000905b82821015610e1f578382906000526020600020018054610d9290614605565b80601f0160208091040260200160405190810160405280929190818152602001828054610dbe90614605565b8015610e0b5780601f10610de057610100808354040283529160200191610e0b565b820191906000526020600020905b815481529060010190602001808311610dee57829003601f168201915b505050505081526020019060010190610d73565b505050509050600082511115610f3f57600081518351610e3f9190614693565b67ffffffffffffffff811115610e5757610e57613bc4565b604051908082528060200260200182016040528015610e8a57816020015b6060815260200190600190039081610e755790505b50905060005b8151811015610f38578251811015610ede57828181518110610eb457610eb46146ab565b6020026020010151828281518110610ece57610ece6146ab565b6020026020010181905250610f22565b83835182610eec91906146c4565b81518110610efc57610efc6146ab565b6020026020010151828281518110610f1657610f166146ab565b60200260200101819052505b8194508080610f309061465c565b915050610e90565b5050610f43565b8092505b505092915050565b600080516020614a70833981519152610f6381612d2e565b6013546040517f28d7e11a000000000000000000000000000000000000000000000000000000008152600160a060020a03909116906328d7e11a90610fb0908790879087906004016146db565b600060405180830381600087803b158015610fca57600080fd5b505af1158015610fde573d6000803e3d6000fd5b5050505050505050565b600080516020614a1083398151915261100081612d2e565b5050505050565b600061101281612d2e565b61102a600080516020614a5083398151915283612e76565b5050565b600080516020614a3083398151915261104681612d2e565b825184511461106a5760405160e560020a62461bcd028152600401610b2490614703565b611075848484612e80565b50505050565b60008281526020819052604090206001015461109681612d2e565b6110a08383612fdf565b505050565b600080516020614a708339815191526110bd81612d2e565b6013548551600160a060020a03909116906328d7e11a908690869089906000906110e9576110e96146ab565b60200260200101516040518463ffffffff1660e060020a028152600401611112939291906146db565b600060405180830381600087803b15801561112c57600080fd5b505af1158015611140573d6000803e3d6000fd5b50506013548751600160a060020a0390911692506398bd7572915086908690899061116d906001906146c4565b8151811061117d5761117d6146ab565b60200260200101516040518463ffffffff1660e060020a0281526004016111a6939291906146db565b600060405180830381600087803b1580156111c057600080fd5b505af11580156111d4573d6000803e3d6000fd5b5050505060005b8551811015611233576112218682815181106111f9576111f96146ab565b6020026020010151848381518110611213576112136146ab565b602002602001015186612a2c565b8061122b8161465c565b9150506111db565b505050505050565b6000805b600354811015611288576003818154811061125c5761125c6146ab565b906000526020600020015460001461127657600191505090565b806112808161465c565b91505061123f565b5090565b600160a060020a038116331461130d5760405160e560020a62461bcd02815260206004820152602f60248201527f416363657373436f6e74726f6c3a2063616e206f6e6c792072656e6f756e636560448201527f20726f6c657320666f722073656c6600000000000000000000000000000000006064820152608401610b24565b61102a8282613001565b6011818154811061132757600080fd5b906000526020600020016000915090508054610a3b90614605565b60606011805480602002602001604051908101604052809291908181526020016000905b8282101561141257838290600052602060002001805461138590614605565b80601f01602080910402602001604051908101604052809291908181526020018280546113b190614605565b80156113fe5780601f106113d3576101008083540402835291602001916113fe565b820191906000526020600020905b8154815290600101906020018083116113e157829003601f168201915b505050505081526020019060010190611366565b50505050905090565b600080516020614a3083398151915261143381612d2e565b61102a600080516020614a7083398151915283612e76565b6009602090815260008481526040902083518085018301805192815290830192850192909220915280548290811061148257600080fd5b9060005260206000200160009250925050508054610a3b90614605565b600080516020614a708339815191526114b781612d2e565b6002546040517f60c2050000000000000000000000000000000000000000000000000000000000815260048101849052600160a060020a03909116906360c2050090602401600060405180830381600087803b15801561151657600080fd5b505af1158015611233573d6000803e3d6000fd5b6000828152600a60205260408082209051606092919061154b908590614677565b9081526020016040518091039020805480602002602001604051908101604052809291908181526020016000905b8282101561162557838290600052602060002001805461159890614605565b80601f01602080910402602001604051908101604052809291908181526020018280546115c490614605565b80156116115780601f106115e657610100808354040283529160200191611611565b820191906000526020600020905b8154815290600101906020018083116115f457829003601f168201915b505050505081526020019060010190611579565b50506000808052600a602052604051939450927f13da86008ba1c6922daee3e07db95305ef49ebced9f5467a0b8613fcc6b343e3925061166791508690614677565b9081526020016040518091039020805480602002602001604051908101604052809291908181526020016000905b828210156117415783829060005260206000200180546116b490614605565b80601f01602080910402602001604051908101604052809291908181526020018280546116e090614605565b801561172d5780601f106117025761010080835404028352916020019161172d565b820191906000526020600020905b81548152906001019060200180831161171057829003601f168201915b505050505081526020019060010190611695565b505050509050600082511115610f3f576000815183516117619190614693565b67ffffffffffffffff81111561177957611779613bc4565b6040519080825280602002602001820160405280156117ac57816020015b60608152602001906001900390816117975790505b50905060005b8151811015610f38578251811015611800578281815181106117d6576117d66146ab565b60200260200101518282815181106117f0576117f06146ab565b6020026020010181905250611844565b8383518261180e91906146c4565b8151811061181e5761181e6146ab565b6020026020010151828281518110611838576118386146ab565b60200260200101819052505b81945080806118529061465c565b9150506117b2565b600080516020614a7083398151915261187281612d2e565b81600160a060020a0316630a75806e6040518163ffffffff1660e060020a0281526004016020604051808303816000875af11580156118b5573d6000803e3d6000fd5b505050506040513d601f19601f820116820180604052508101906110a09190614760565b600080516020614a708339815191526118f181612d2e565b50600090815260046020526040902055565b600d602052816000526040600020818154811061191f57600080fd5b90600052602060002001600091509150505481565b61194c600080516020614a5083398151915233611bf3565b8061196a575061196a600080516020614a3083398151915233611bf3565b6119895760405160e560020a62461bcd028152600401610b2490614779565b601154611bd2576000600f54600e546119a291906147d6565b67ffffffffffffffff8111156119ba576119ba613bc4565b6040519080825280602002602001820160405280156119e3578160200160208202803683370190505b50600f54600e546040517f9f6b56490000000000000000000000000000000000000000000000000000000081526004810192909252602482015290915073__XYCoordinates_________________________90639f6b564990604401600060405180830381865af4158015611a5c573d6000803e3d6000fd5b505050506040513d6000823e601f3d908101601f19168201604052611a8491908101906147f5565b8051611a9891601191602090910190613a23565b5060005b8151811015611af2576010548251600160a060020a0390911690839083908110611ac857611ac86146ab565b600160a060020a039092166020928302919091019091015280611aea8161465c565b915050611a9c565b50611bd0816011805480602002602001604051908101604052809291908181526020016000905b82821015611bc5578382906000526020600020018054611b3890614605565b80601f0160208091040260200160405190810160405280929190818152602001828054611b6490614605565b8015611bb15780601f10611b8657610100808354040283529160200191611bb1565b820191906000526020600020905b815481529060010190602001808311611b9457829003601f168201915b505050505081526020019060010190611b19565b505050506000612e80565b505b565b6000828152600160205260408120611bec9083613023565b9392505050565b600091825260208281526040808420600160a060020a0393909316845291905290205460ff1690565b600080516020614a70833981519152611c3481612d2e565b506014805473ffffffffffffffffffffffffffffffffffffffff1916600160a060020a0392909216919091179055565b600080516020614a70833981519152611c7c81612d2e565b50600380546001810182556000919091527fc2575a0e9e593c00f959f8c92f12db2869c3395a3b0502d05e2516446f71f85b0155565b600080516020614a70833981519152611cca81612d2e565b6013546040517f98bd7572000000000000000000000000000000000000000000000000000000008152600160a060020a03909116906398bd757290610fb0908790879087906004016146db565b600080516020614a70833981519152611d2f81612d2e565b6002546040517f9aabe36d000000000000000000000000000000000000000000000000000000008152600160a060020a0385811660048301526024820185905290911690639aabe36d90604401600060405180830381600087803b158015611d9657600080fd5b505af1158015610bff573d6000803e3d6000fd5b6002546040517fbca7caa000000000000000000000000000000000000000000000000000000000815260048101859052600160a060020a038481166024830152600092839291169063bca7caa090604401602060405180830381865afa158015611e18573d6000803e3d6000fd5b505050506040513d601f19601f82011682018060405250810190611e3c9190614760565b6000868152600c60209081526040808320848452909152812080549293509091611e6590614605565b80601f0160208091040260200160405190810160405280929190818152602001828054611e9190614605565b8015611ede5780601f10611eb357610100808354040283529160200191611ede565b820191906000526020600020905b815481529060010190602001808311611ec157829003601f168201915b505050505090506000611ef1878361152a565b805190915080611f465760405160e560020a62461bcd02815260206004820152601760248201527f4e6f206578697420706174687320617661696c61626c650000000000000000006044820152606401610b24565b60008881526008602052604080822090519196508691611f67908690614677565b90815260405190819003602001902054600160a060020a031690506000828811611f915787611f94565b60005b90506000848281518110611faa57611faa6146ab565b602002602001015190506000600860008d815260200190815260200160002082604051611fd79190614677565b908152602001604051809103902060009054906101000a9004600160a060020a0316905083600160a060020a0316637caf12808c8e8a6040518463ffffffff1660e060020a02815260040161202e939291906146db565b602060405180830381865afa15801561204b573d6000803e3d6000fd5b505050506040513d601f19601f8201168201806040525081019061206f91906148df565b80156120ea575080600160a060020a031663e15b3ad08c8e856040518463ffffffff1660e060020a0281526004016120a9939291906146db565b602060405180830381865afa1580156120c6573d6000803e3d6000fd5b505050506040513d601f19601f820116820180604052508101906120ea91906148df565b156121e85783600160a060020a03166328d7e11a8c8e8a6040518463ffffffff1660e060020a028152600401612122939291906146db565b600060405180830381600087803b15801561213c57600080fd5b505af1158015612150573d6000803e3d6000fd5b5050505080600160a060020a03166398bd75728c8e856040518463ffffffff1660e060020a028152600401612187939291906146db565b600060405180830381600087803b1580156121a157600080fd5b505af11580156121b5573d6000803e3d6000fd5b50505060008d8152600c602090815260408083208c8452825290912084516121e293509091850190613a7c565b50600198505b50505050505050509392505050565b600080516020614a7083398151915261102a81612d2e565b600080516020614a7083398151915261222781612d2e565b600082815260046020526040902054156122ac5760405160e560020a62461bcd02815260206004820152602c60248201527f63616e27742073657420696e697469616c207a6f6e652c2067616d6520616c7260448201527f65616479207374617274656400000000000000000000000000000000000000006064820152608401610b24565b6000828152600760209081526040909120845161107592860190613a7c565b600080516020614a1083398151915261102a81612d2e565b60006122fd600080516020614a5083398151915233611bf3565b8061231b575061231b600080516020614a3083398151915233611bf3565b61233a5760405160e560020a62461bcd028152600401610b2490614779565b82600260006101000a815481600160a060020a030219169083600160a060020a0316021790555081600160a060020a0316630a75806e6040518163ffffffff1660e060020a0281526004016020604051808303816000875af11580156123a4573d6000803e3d6000fd5b505050506040513d601f19601f82011682018060405250810190611bec9190614760565b600a602090815260008481526040902083518085018301805192815290830192850192909220915280548290811061148257600080fd5b606060066000838152602001908152602001600020805480602002602001604051908101604052809291908181526020016000905b828210156124e057838290600052602060002001805461245390614605565b80601f016020809104026020016040519081016040528092919081815260200182805461247f90614605565b80156124cc5780601f106124a1576101008083540402835291602001916124cc565b820191906000526020600020905b8154815290600101906020018083116124af57829003601f168201915b505050505081526020019060010190612434565b505050509050919050565b60008181526001602052604081206109e39061302f565b600080516020614a7083398151915261251a81612d2e565b60008060005b600354811015612589576003818154811061253d5761253d6146ab565b90600052602060002001546000146125775760038181548110612562576125626146ab565b90600052602060002001549250809150612589565b806125818161465c565b915050612520565b506000828152600460205260409020546125ab576125a682613039565b6125cb565b600082815260046020526040902054600114156125cb576125cb826130c4565b600082815260046020526040902054600110156110a0576000600382815481106125f7576125f76146ab565b600091825260209091200155505050565b6000818152600d602090815260409182902080548351818402810184019094528084526060939283018282801561265e57602002820191906000526020600020905b81548152602001906001019080831161264a575b50505050509050919050565b600061267581612d2e565b61102a600080516020614a708339815191528361107b565b6000828152602081905260409020600101546126a881612d2e565b6110a08383613001565b600c60209081526000928352604080842090915290825290208054610a3b90614605565b60006126f0600080516020614a5083398151915233611bf3565b8061270e575061270e600080516020614a3083398151915233611bf3565b61272d5760405160e560020a62461bcd028152600401610b2490614779565b81518351146127515760405160e560020a62461bcd028152600401610b2490614703565b82511561276357612763838383612e80565b84600260006101000a815481600160a060020a030219169083600160a060020a0316021790555083600160a060020a0316630a75806e6040518163ffffffff1660e060020a0281526004016020604051808303816000875af11580156127cd573d6000803e3d6000fd5b505050506040513d601f19601f820116820180604052508101906127f19190614760565b95945050505050565b600080516020614a30833981519152611c7c81612d2e565b60076020526000908152604090208054610a3b90614605565b600080516020614a3083398151915261284381612d2e565b61284d838361347d565b61289c5760405160e560020a62461bcd02815260206004820152601a60248201527f6e6f7420616c6c207a6f6e6520696e64656365732076616c69640000000000006044820152606401610b24565b60005b8251811015611075576000848152600a6020526040902083518490839081106128ca576128ca6146ab565b60200260200101516000600281106128e4576128e46146ab565b60200201516040516128f69190614677565b9081526020016040518091039020838281518110612916576129166146ab565b6020026020010151600160028110612930576129306146ab565b60209081029190910151825460018101845560009384529282902081516129609491909101929190910190613a7c565b5060008481526009602052604090208351849083908110612983576129836146ab565b602002602001015160016002811061299d5761299d6146ab565b60200201516040516129af9190614677565b90815260200160405180910390208382815181106129cf576129cf6146ab565b60200260200101516000600281106129e9576129e96146ab565b6020908102919091015182546001810184556000938452928290208151612a199491909101929190910190613a7c565b5080612a248161465c565b91505061289f565b600080516020614a70833981519152612a4481612d2e565b600082815260156020526040908190209051612a61908690614677565b9081526040519081900360200190205460ff16611075576013546040517fd4939609000000000000000000000000000000000000000000000000000000008152600160a060020a039091169063d493960990612ac590869086908990600401614901565b600060405180830381600087803b158015612adf57600080fd5b505af1158015612af3573d6000803e3d6000fd5b50505060008381526015602052604090819020905160019250612b17908790614677565b908152604051908190036020019020805491151560ff1990921691909117905550505050565b600080516020614a10833981519152612b5581612d2e565b6002546040517fbca7caa000000000000000000000000000000000000000000000000000000000815260048101869052600160a060020a038581166024830152600092169063bca7caa090604401602060405180830381865afa158015612bc0573d6000803e3d6000fd5b505050506040513d601f19601f82011682018060405250810190612be49190614760565b6000868152600c6020908152604080832084845282529091208551929350611233929091860190613a7c565b600080516020614a70833981519152612c2881612d2e565b50601255565b612c388282611bf3565b61102a57600082815260208181526040808320600160a060020a03851684529091529020805460ff19166001179055612c6e3390565b600160a060020a031681600160a060020a0316837f2f8788117e7eff1d82e926ec794901d17c78024a50270940304540a733656f0d60405160405180910390a45050565b6000611bec83600160a060020a03841661358c565b6000600160e060020a031982167f7965db0b0000000000000000000000000000000000000000000000000000000014806109e357507f01ffc9a700000000000000000000000000000000000000000000000000000000600160e060020a03198316146109e3565b611bd081336135db565b600160005b8251811015612dd357828181518110612d5857612d586146ab565b60200260200101516001612d6c9190614693565b60008681526009602052604090208551869084908110612d8e57612d8e6146ab565b6020026020010151604051612da39190614677565b9081526040519081900360200190205410612dc15760009150612dd3565b80612dcb8161465c565b915050612d3d565b509392505050565b600160005b8251811015612dd357828181518110612dfb57612dfb6146ab565b60200260200101516001612e0f9190614693565b6000868152600a602052604090208551869084908110612e3157612e316146ab565b6020026020010151604051612e469190614677565b9081526040519081900360200190205410612e645760009150612dd3565b80612e6e8161465c565b915050612de0565b61102a8282612fdf565b60005b83518110156110755760008281526006602052604090208351849083908110612eae57612eae6146ab565b60209081029190910181015182546001810184556000938452928290208151612ee09491909101929190910190613a7c565b50838181518110612ef357612ef36146ab565b602002602001015160086000848152602001908152602001600020848381518110612f2057612f206146ab565b6020026020010151604051612f359190614677565b908152602001604051809103902060006101000a815481600160a060020a030219169083600160a060020a03160217905550612f98600080516020614a10833981519152858381518110612f8b57612f8b6146ab565b6020026020010151611bf3565b612fcd57612fcd600080516020614a10833981519152858381518110612fc057612fc06146ab565b6020026020010151612e76565b80612fd78161465c565b915050612e83565b612fe98282612c2e565b60008281526001602052604090206110a09082612cb2565b61300b8282613642565b60008281526001602052604090206110a090826136a7565b6000611bec83836136bc565b60006109e3825490565b6002546040517f60c2050000000000000000000000000000000000000000000000000000000000815260048101839052600160a060020a03909116906360c2050090602401600060405180830381600087803b15801561309857600080fd5b505af11580156130ac573d6000803e3d6000fd5b50505060009182525060046020526040902060019055565b600081815260076020526040812080546130dd90614605565b151590506131135760008281526006602052604081208054909190613104576131046146ab565b90600052602060002001613122565b60008281526007602052604090205b805461312d90614605565b80601f016020809104026020016040519081016040528092919081815260200182805461315990614605565b80156131a65780601f1061317b576101008083540402835291602001916131a6565b820191906000526020600020905b81548152906001019060200180831161318957829003601f168201915b50505050509050600060086000848152602001908152602001600020826040516131d09190614677565b90815260405190819003602001902054600160a060020a031690508060005b6002546040517fb77ff41100000000000000000000000000000000000000000000000000000000815260048101879052600160a060020a039091169063b77ff41190602401602060405180830381865afa158015613251573d6000803e3d6000fd5b505050506040513d601f19601f820116820180604052508101906132759190614760565b811015613465576000613289826001614693565b6002546040517ff50432540000000000000000000000000000000000000000000000000000000081526004810189905260248101839052919250600091600160a060020a039091169063f504325490604401602060405180830381865afa1580156132f8573d6000803e3d6000fd5b505050506040513d601f19601f8201168201806040525081019061331c9190614941565b6040517fe15b3ad0000000000000000000000000000000000000000000000000000000008152909150600160a060020a0385169063e15b3ad0906133689084908b908b906004016146db565b602060405180830381865afa158015613385573d6000803e3d6000fd5b505050506040513d601f19601f820116820180604052508101906133a991906148df565b1561342e576040517f98bd7572000000000000000000000000000000000000000000000000000000008152600160a060020a038516906398bd7572906133f79084908b908b906004016146db565b600060405180830381600087803b15801561341157600080fd5b505af1158015613425573d6000803e3d6000fd5b50505050613450565b6000878152600d60209081526040822080546001810182559083529120018290555b5050808061345d9061465c565b9150506131ef565b50505060009182525060046020526040902060029055565b6000805b82518110156135855760008481526008602052604081208451600194508590849081106134b0576134b06146ab565b60200260200101516000600281106134ca576134ca6146ab565b60200201516040516134dc9190614677565b90815260405190819003602001902054600160a060020a0316148061356557506000848152600860205260408120845185908490811061351e5761351e6146ab565b6020026020010151600160028110613538576135386146ab565b602002015160405161354a9190614677565b90815260405190819003602001902054600160a060020a0316145b156135735760009150613585565b8061357d8161465c565b915050613481565b5092915050565b60008181526001830160205260408120546135d3575081546001818101845560008481526020808220909301849055845484825282860190935260409020919091556109e3565b5060006109e3565b6135e58282611bf3565b61102a576135fd81600160a060020a031660146136e6565b6136088360206136e6565b60405160200161361992919061495e565b60408051601f198184030181529082905260e560020a62461bcd028252610b2491600401613d76565b61364c8282611bf3565b1561102a57600082815260208181526040808320600160a060020a0385168085529252808320805460ff1916905551339285917ff6391f5c32d9c69d2a47ea670b442974b53935d1edc7fd64eb21e047a839171b9190a45050565b6000611bec83600160a060020a038416613930565b60008260000182815481106136d3576136d36146ab565b9060005260206000200154905092915050565b606060006136f58360026147d6565b613700906002614693565b67ffffffffffffffff81111561371857613718613bc4565b6040519080825280601f01601f191660200182016040528015613742576020820181803683370190505b5090507f300000000000000000000000000000000000000000000000000000000000000081600081518110613779576137796146ab565b60200101907effffffffffffffffffffffffffffffffffffffffffffffffffffffffffffff1916908160001a9053507f7800000000000000000000000000000000000000000000000000000000000000816001815181106137dc576137dc6146ab565b60200101907effffffffffffffffffffffffffffffffffffffffffffffffffffffffffffff1916908160001a90535060006138188460026147d6565b613823906001614693565b90505b60018111156138de577f303132333435363738396162636465660000000000000000000000000000000085600f1660108110613864576138646146ab565b1a7f010000000000000000000000000000000000000000000000000000000000000002828281518110613899576138996146ab565b60200101907effffffffffffffffffffffffffffffffffffffffffffffffffffffffffffff1916908160001a9053506010909404936138d7816149df565b9050613826565b508315611bec5760405160e560020a62461bcd02815260206004820181905260248201527f537472696e67733a20686578206c656e67746820696e73756666696369656e746044820152606401610b24565b60008181526001830160205260408120548015613a195760006139546001836146c4565b8554909150600090613968906001906146c4565b90508181146139cd576000866000018281548110613988576139886146ab565b90600052602060002001549050808760000184815481106139ab576139ab6146ab565b6000918252602080832090910192909255918252600188019052604090208390555b85548690806139de576139de6149f6565b6001900381819060005260206000200160009055905585600101600086815260200190815260200160002060009055600193505050506109e3565b60009150506109e3565b828054828255906000526020600020908101928215613a70579160200282015b82811115613a705782518051613a60918491602090910190613a7c565b5091602001919060010190613a43565b50611288929150613afc565b828054613a8890614605565b90600052602060002090601f016020900481019282613aaa5760008555613af0565b82601f10613ac357805160ff1916838001178555613af0565b82800160010185558215613af0579182015b82811115613af0578251825591602001919060010190613ad5565b50611288929150613b19565b80821115611288576000613b108282613b2e565b50600101613afc565b5b808211156112885760008155600101613b1a565b508054613b3a90614605565b6000825580601f10613b4a575050565b601f016020900490600052602060002090810190611bd09190613b19565b600060208284031215613b7a57600080fd5b8135600160e060020a031981168114611bec57600080fd5b600160a060020a0381168114611bd057600080fd5b600060208284031215613bb957600080fd5b8135611bec81613b92565b60e060020a634e487b7102600052604160045260246000fd5b6040805190810167ffffffffffffffff81118282101715613c0057613c00613bc4565b60405290565b604051601f8201601f1916810167ffffffffffffffff81118282101715613c2f57613c2f613bc4565b604052919050565b600067ffffffffffffffff821115613c5157613c51613bc4565b50601f01601f191660200190565b600082601f830112613c7057600080fd5b8135613c83613c7e82613c37565b613c06565b818152846020838601011115613c9857600080fd5b816020850160208301376000918101602001919091529392505050565b60008060408385031215613cc857600080fd5b82359150602083013567ffffffffffffffff811115613ce657600080fd5b613cf285828601613c5f565b9150509250929050565b60008060408385031215613d0f57600080fd5b50508035926020909101359150565b60005b83811015613d39578181015183820152602001613d21565b838111156110755750506000910152565b60008151808452613d62816020860160208601613d1e565b601f01601f19169290920160200192915050565b602081526000611bec6020830184613d4a565b600067ffffffffffffffff821115613da357613da3613bc4565b5060209081020190565b600082601f830112613dbe57600080fd5b81356020613dce613c7e83613d89565b82815291810284018101918181019086841115613dea57600080fd5b8286015b84811015613e2a57803567ffffffffffffffff811115613e0e5760008081fd5b613e1c8986838b0101613c5f565b845250918301918301613dee565b509695505050505050565b600082601f830112613e4657600080fd5b81356020613e56613c7e83613d89565b82815291810284018101918181019086841115613e7257600080fd5b8286015b84811015613e2a5780358352918301918301613e76565b600080600080600060a08688031215613ea557600080fd5b85359450602086013567ffffffffffffffff80821115613ec457600080fd5b613ed089838a01613dad565b95506040880135915080821115613ee657600080fd5b613ef289838a01613e35565b94506060880135915080821115613f0857600080fd5b613f1489838a01613dad565b93506080880135915080821115613f2a57600080fd5b50613f3788828901613e35565b9150509295509295909350565b600060208083018184528085518083526040860191506040848202870101925083870160005b82811015613f9857603f19888603018452613f86858351613d4a565b94509285019290850190600101613f6a565b5092979650505050505050565b600060208284031215613fb757600080fd5b5035919050565b600080600060608486031215613fd357600080fd5b8335613fde81613b92565b925060208401359150604084013567ffffffffffffffff81111561400157600080fd5b61400d86828701613c5f565b9150509250925092565b600082601f83011261402857600080fd5b81356020614038613c7e83613d89565b8281529181028401810191818101908684111561405457600080fd5b8286015b84811015613e2a57803561406b81613b92565b8352918301918301614058565b6000806000806080858703121561408e57600080fd5b84359350602085013567ffffffffffffffff808211156140ad57600080fd5b6140b988838901614017565b945060408701359150808211156140cf57600080fd5b506140dc87828801613e35565b949793965093946060013593505050565b60008060006060848603121561410257600080fd5b833567ffffffffffffffff8082111561411a57600080fd5b61412687838801614017565b9450602086013591508082111561413c57600080fd5b5061414986828701613dad565b925050604084013590509250925092565b6000806040838503121561416d57600080fd5b82359150602083013561417f81613b92565b809150509250929050565b8035600c811061419957600080fd5b919050565b600080600080608085870312156141b457600080fd5b843567ffffffffffffffff808211156141cc57600080fd5b6141d888838901613dad565b955060209150818701356141eb81613b92565b94506040870135935060608701358181111561420657600080fd5b87019050601f8101881361421957600080fd5b8035614227613c7e82613d89565b8181529083028201830190838101908a83111561424357600080fd5b928401925b82841015614268576142598461418a565b82529284019290840190614248565b979a9699509497505050505050565b60008060006060848603121561428c57600080fd5b83359250602084013567ffffffffffffffff8111156142aa57600080fd5b61414986828701613c5f565b600080604083850312156142c957600080fd5b82356142d481613b92565b946020939093013593505050565b6000806000606084860312156142f757600080fd5b83359250602084013561430981613b92565b929592945050506040919091013590565b6000806040838503121561432d57600080fd5b823567ffffffffffffffff81111561434457600080fd5b61435085828601613c5f565b95602094909401359450505050565b6000806040838503121561437257600080fd5b823561437d81613b92565b9150602083013561417f81613b92565b6020808252825182820181905260009190848201906040850190845b818110156143c5578351835292840192918401916001016143a9565b50909695505050505050565b600080600080608085870312156143e757600080fd5b84356143f281613b92565b9350602085013561440281613b92565b9250604085013567ffffffffffffffff8082111561441f57600080fd5b61442b88838901614017565b9350606087013591508082111561444157600080fd5b5061444e87828801613dad565b91505092959194509250565b6000806040838503121561446d57600080fd5b8235915060208084013567ffffffffffffffff8082111561448d57600080fd5b818601915086601f8301126144a157600080fd5b81356144af613c7e82613d89565b818152908402830184019084810190898311156144cb57600080fd5b8585015b8381101561455a5784813511156144e557600080fd5b803586018b603f8201126144f857600080fd5b614500613bdd565b808d60608401111561451157600080fd5b8983015b6060840181101561454a57888135111561452e57600080fd5b61453d8f8c8335870101613c5f565b8352918a01918a01614515565b50855250509186019186016144cf565b508096505050505050509250929050565b60008060006060848603121561458057600080fd5b833567ffffffffffffffff81111561459757600080fd5b6145a386828701613c5f565b9350506145b26020850161418a565b9150604084013590509250925092565b6000806000606084860312156145d757600080fd5b8335925060208401356145e981613b92565b9150604084013567ffffffffffffffff81111561400157600080fd5b60028104600182168061461957607f821691505b6020821081141561463d5760e060020a634e487b7102600052602260045260246000fd5b50919050565b60e060020a634e487b7102600052601160045260246000fd5b600060001982141561467057614670614643565b5060010190565b60008251614689818460208701613d1e565b9190910192915050565b600082198211156146a6576146a6614643565b500190565b60e060020a634e487b7102600052603260045260246000fd5b6000828210156146d6576146d6614643565b500390565b600160a060020a03841681528260208201526060604082015260006127f16060830184613d4a565b60208082526025908201527f616464726573736573202620616c696173657320646966666572656e74206c6560408201527f6e67746873000000000000000000000000000000000000000000000000000000606082015260800190565b60006020828403121561477257600080fd5b5051919050565b60208082526024908201527f47616d65204d6173746572206f7220466163746f727920726f6c65207265717560408201527f6972656400000000000000000000000000000000000000000000000000000000606082015260800190565b60008160001904831182151516156147f0576147f0614643565b500290565b6000602080838503121561480857600080fd5b825167ffffffffffffffff8082111561482057600080fd5b818501915085601f83011261483457600080fd5b8151614842613c7e82613d89565b8181529084028301840190848101908883111561485e57600080fd5b8585015b838110156148d25780518581111561487a5760008081fd5b8601603f81018b1361488c5760008081fd5b87810151604061489e613c7e83613c37565b8281528d828486010111156148b35760008081fd5b6148c2838c8301848701613d1e565b8652505050918601918601614862565b5098975050505050505050565b6000602082840312156148f157600080fd5b81518015158114611bec57600080fd5b6000600c85106149245760e060020a634e487b7102600052602160045260246000fd5b848252836020830152606060408301526127f16060830184613d4a565b60006020828403121561495357600080fd5b8151611bec81613b92565b7f416363657373436f6e74726f6c3a206163636f756e7420000000000000000000815260008351614996816017850160208801613d1e565b7f206973206d697373696e6720726f6c652000000000000000000000000000000060179184019182015283516149d3816028840160208801613d1e565b01602801949350505050565b6000816149ee576149ee614643565b506000190190565b60e060020a634e487b7102600052603160045260246000fdfe72b06b67826def9fabb513b23f7e5eb74f7ece26d25dad4006546ecf4a13763d1d93c87416ca7b54f0fb8323167b72760e8e2ec93d48660953897a150f97a8b4dfbefbf47cfe66b701d8cfdbce1de81c821590819cb07e71cb01b6602fb0ee2780e2196015fc06a9d891759f8e4f51eb314ef5e9ea068528a8ed0063b87759f0a2646970667358221220b4e9beab3187c2f56125a10e183c4a1bfc03d266e24d5102003ec3ab40ae985164736f6c634300080b0033",
  "immutableReferences": {},
  "source": "// SPDX-License-Identifier: GPL-3.0\npragma solidity >=0.7.0 <0.9.0;\n\nimport \"@luckymachines/game-core/contracts/src/v0.0/custom_boards/HexGrid.sol\";\nimport \"./HexplorationZone.sol\";\n\ncontract HexplorationBoard is HexGrid {\n    // This role is a hybrid controller, assumes on chain verification of moves before submission\n\n    uint256 private _randomness;\n    HexplorationZone internal HEX_ZONE;\n    address public characterCardAddress;\n    // game ID => zone alias returns bool\n    mapping(uint256 => mapping(string => bool)) public zoneEnabled;\n\n    constructor(\n        address adminAddress,\n        uint256 gridWidth,\n        uint256 gridHeight,\n        address zoneAddress\n    ) HexGrid(adminAddress, gridWidth, gridHeight, zoneAddress) {\n        HEX_ZONE = HexplorationZone(zoneAddress);\n    }\n\n    function hexZoneAddress() public view returns (address) {\n        return address(HEX_ZONE);\n    }\n\n    // VERIFIED CONTROLLER functions\n    // We can assume these have been pre-verified\n    function setCharacterCard(address _characterCardAddress)\n        public\n        onlyRole(VERIFIED_CONTROLLER_ROLE)\n    {\n        characterCardAddress = _characterCardAddress;\n    }\n\n    function registerPlayer(address playerAddress, uint256 gameID)\n        public\n        onlyRole(VERIFIED_CONTROLLER_ROLE)\n    {\n        PLAYER_REGISTRY.registerPlayer(playerAddress, gameID);\n    }\n\n    function lockRegistration(uint256 gameID)\n        public\n        onlyRole(VERIFIED_CONTROLLER_ROLE)\n    {\n        PLAYER_REGISTRY.lockRegistration(gameID);\n    }\n\n    function enterPlayer(\n        address playerAddress,\n        uint256 gameID,\n        string memory zone\n    ) external onlyRole(VERIFIED_CONTROLLER_ROLE) {\n        HEX_ZONE.enterPlayer(playerAddress, gameID, zone);\n    }\n\n    function exitPlayer(\n        address playerAddress,\n        uint256 gameID,\n        string memory zone\n    ) external onlyRole(VERIFIED_CONTROLLER_ROLE) {\n        HEX_ZONE.exitPlayer(playerAddress, gameID, zone);\n    }\n\n    function requestNewGame(address gameRegistryAddress)\n        external\n        onlyRole(VERIFIED_CONTROLLER_ROLE)\n    {\n        GameRegistry(gameRegistryAddress).registerGame();\n    }\n\n    function setGameState(uint256 gs, uint256 gameID)\n        external\n        onlyRole(VERIFIED_CONTROLLER_ROLE)\n    {\n        // 0 start\n        // 1 inititalizing\n        // 2 initialized\n        gameState[gameID] = gs;\n    }\n\n    function setRandomness(uint256 randomness)\n        external\n        onlyRole(VERIFIED_CONTROLLER_ROLE)\n    {\n        _randomness = randomness;\n    }\n\n    function start(uint256 gameID) public onlyRole(VERIFIED_CONTROLLER_ROLE) {\n        _gamesNeedUpdates.push(gameID);\n    }\n\n    function enableZone(\n        string memory zoneAlias,\n        HexplorationZone.Tile tile,\n        uint256 gameID\n    ) public onlyRole(VERIFIED_CONTROLLER_ROLE) {\n        if (!zoneEnabled[gameID][zoneAlias]) {\n            HEX_ZONE.setTile(tile, gameID, zoneAlias);\n            zoneEnabled[gameID][zoneAlias] = true;\n        }\n    }\n\n    // pass path and what tiles should be\n    // pass current zone as first argument\n    function moveThroughPath(\n        string[] memory zonePath,\n        address playerAddress,\n        uint256 gameID,\n        HexplorationZone.Tile[] memory tiles\n    ) external onlyRole(VERIFIED_CONTROLLER_ROLE) {\n        HEX_ZONE.exitPlayer(playerAddress, gameID, zonePath[0]);\n        HEX_ZONE.enterPlayer(\n            playerAddress,\n            gameID,\n            zonePath[zonePath.length - 1]\n        );\n        for (uint256 i = 0; i < zonePath.length; i++) {\n            enableZone(zonePath[i], tiles[i], gameID);\n        }\n    }\n}\n",
  "sourcePath": "/Users/maxmeier/Developer/Lucky Machines/hexploration/contracts/HexplorationBoard.sol",
  "compiler": {
    "name": "solc",
    "version": "0.8.11+commit.d7f03943.Emscripten.clang"
  },
  "schemaVersion": "3.4.4",
  "updatedAt": "2022-05-15T22:52:14.652Z",
  "networkType": "ethereum",
  "devdoc": {
    "kind": "dev",
    "methods": {
      "getRoleAdmin(bytes32)": {
        "details": "Returns the admin role that controls `role`. See {grantRole} and {revokeRole}. To change a role's admin, use {_setRoleAdmin}."
      },
      "getRoleMember(bytes32,uint256)": {
        "details": "Returns one of the accounts that have `role`. `index` must be a value between 0 and {getRoleMemberCount}, non-inclusive. Role bearers are not sorted in any particular way, and their ordering may change at any point. WARNING: When using {getRoleMember} and {getRoleMemberCount}, make sure you perform all queries on the same block. See the following https://forum.openzeppelin.com/t/iterating-over-elements-on-enumerableset-in-openzeppelin-contracts/2296[forum post] for more information."
      },
      "getRoleMemberCount(bytes32)": {
        "details": "Returns the number of accounts that have `role`. Can be used together with {getRoleMember} to enumerate all bearers of a role."
      },
      "grantRole(bytes32,address)": {
        "details": "Grants `role` to `account`. If `account` had not been already granted `role`, emits a {RoleGranted} event. Requirements: - the caller must have ``role``'s admin role."
      },
      "hasRole(bytes32,address)": {
        "details": "Returns `true` if `account` has been granted `role`."
      },
      "renounceRole(bytes32,address)": {
        "details": "Revokes `role` from the calling account. Roles are often managed via {grantRole} and {revokeRole}: this function's purpose is to provide a mechanism for accounts to lose their privileges if they are compromised (such as when a trusted device is misplaced). If the calling account had been revoked `role`, emits a {RoleRevoked} event. Requirements: - the caller must be `account`."
      },
      "revokeRole(bytes32,address)": {
        "details": "Revokes `role` from `account`. If `account` had been granted `role`, emits a {RoleRevoked} event. Requirements: - the caller must have ``role``'s admin role."
      },
      "supportsInterface(bytes4)": {
        "details": "See {IERC165-supportsInterface}."
      }
    },
    "version": 1
  },
  "userdoc": {
    "kind": "user",
    "methods": {},
    "version": 1
  }
}