{
  "contractName": "HexplorationBoard",
  "abi": [
    {
      "inputs": [
        {
          "internalType": "address",
          "name": "adminAddress",
          "type": "address"
        },
        {
          "internalType": "uint256",
          "name": "gridWidth",
          "type": "uint256"
        },
        {
          "internalType": "uint256",
          "name": "gridHeight",
          "type": "uint256"
        },
        {
          "internalType": "address",
          "name": "zoneAddress",
          "type": "address"
        }
      ],
      "stateMutability": "nonpayable",
      "type": "constructor"
    },
    {
      "anonymous": false,
      "inputs": [
        {
          "indexed": true,
          "internalType": "bytes32",
          "name": "role",
          "type": "bytes32"
        },
        {
          "indexed": true,
          "internalType": "bytes32",
          "name": "previousAdminRole",
          "type": "bytes32"
        },
        {
          "indexed": true,
          "internalType": "bytes32",
          "name": "newAdminRole",
          "type": "bytes32"
        }
      ],
      "name": "RoleAdminChanged",
      "type": "event"
    },
    {
      "anonymous": false,
      "inputs": [
        {
          "indexed": true,
          "internalType": "bytes32",
          "name": "role",
          "type": "bytes32"
        },
        {
          "indexed": true,
          "internalType": "address",
          "name": "account",
          "type": "address"
        },
        {
          "indexed": true,
          "internalType": "address",
          "name": "sender",
          "type": "address"
        }
      ],
      "name": "RoleGranted",
      "type": "event"
    },
    {
      "anonymous": false,
      "inputs": [
        {
          "indexed": true,
          "internalType": "bytes32",
          "name": "role",
          "type": "bytes32"
        },
        {
          "indexed": true,
          "internalType": "address",
          "name": "account",
          "type": "address"
        },
        {
          "indexed": true,
          "internalType": "address",
          "name": "sender",
          "type": "address"
        }
      ],
      "name": "RoleRevoked",
      "type": "event"
    },
    {
      "inputs": [],
      "name": "DEFAULT_ADMIN_ROLE",
      "outputs": [
        {
          "internalType": "bytes32",
          "name": "",
          "type": "bytes32"
        }
      ],
      "stateMutability": "view",
      "type": "function"
    },
    {
      "inputs": [],
      "name": "FACTORY_ROLE",
      "outputs": [
        {
          "internalType": "bytes32",
          "name": "",
          "type": "bytes32"
        }
      ],
      "stateMutability": "view",
      "type": "function"
    },
    {
      "inputs": [],
      "name": "GAME_KEEPER_ROLE",
      "outputs": [
        {
          "internalType": "bytes32",
          "name": "",
          "type": "bytes32"
        }
      ],
      "stateMutability": "view",
      "type": "function"
    },
    {
      "inputs": [],
      "name": "GAME_MASTER_ROLE",
      "outputs": [
        {
          "internalType": "bytes32",
          "name": "",
          "type": "bytes32"
        }
      ],
      "stateMutability": "view",
      "type": "function"
    },
    {
      "inputs": [],
      "name": "MAX_BATCH_SIZE",
      "outputs": [
        {
          "internalType": "uint256",
          "name": "",
          "type": "uint256"
        }
      ],
      "stateMutability": "view",
      "type": "function"
    },
    {
      "inputs": [],
      "name": "PLAY_ZONE_ROLE",
      "outputs": [
        {
          "internalType": "bytes32",
          "name": "",
          "type": "bytes32"
        }
      ],
      "stateMutability": "view",
      "type": "function"
    },
    {
      "inputs": [],
      "name": "VERIFIED_CONTROLLER_ROLE",
      "outputs": [
        {
          "internalType": "bytes32",
          "name": "",
          "type": "bytes32"
        }
      ],
      "stateMutability": "view",
      "type": "function"
    },
    {
      "inputs": [
        {
          "internalType": "uint256",
          "name": "transitID",
          "type": "uint256"
        }
      ],
      "name": "_progressTransit",
      "outputs": [],
      "stateMutability": "nonpayable",
      "type": "function"
    },
    {
      "inputs": [
        {
          "internalType": "address",
          "name": "factoryAddress",
          "type": "address"
        }
      ],
      "name": "addFactory",
      "outputs": [],
      "stateMutability": "nonpayable",
      "type": "function"
    },
    {
      "inputs": [
        {
          "internalType": "address",
          "name": "keeperAddress",
          "type": "address"
        }
      ],
      "name": "addKeeper",
      "outputs": [],
      "stateMutability": "nonpayable",
      "type": "function"
    },
    {
      "inputs": [
        {
          "internalType": "address",
          "name": "vcAddress",
          "type": "address"
        }
      ],
      "name": "addVerifiedController",
      "outputs": [],
      "stateMutability": "nonpayable",
      "type": "function"
    },
    {
      "inputs": [
        {
          "internalType": "uint256",
          "name": "gameID",
          "type": "uint256"
        },
        {
          "internalType": "string[2][]",
          "name": "connections",
          "type": "string[2][]"
        }
      ],
      "name": "addZoneConnections",
      "outputs": [],
      "stateMutability": "nonpayable",
      "type": "function"
    },
    {
      "inputs": [
        {
          "internalType": "address[]",
          "name": "playZoneAddresses",
          "type": "address[]"
        },
        {
          "internalType": "string[]",
          "name": "zoneAliases",
          "type": "string[]"
        },
        {
          "internalType": "uint256",
          "name": "gameID",
          "type": "uint256"
        }
      ],
      "name": "addZones",
      "outputs": [],
      "stateMutability": "nonpayable",
      "type": "function"
    },
    {
      "inputs": [],
      "name": "cleanQueue",
      "outputs": [],
      "stateMutability": "nonpayable",
      "type": "function"
    },
    {
      "inputs": [
        {
          "internalType": "address",
          "name": "_playerRegistry",
          "type": "address"
        },
        {
          "internalType": "address",
          "name": "_gameRegistry",
          "type": "address"
        }
      ],
      "name": "createGame",
      "outputs": [
        {
          "internalType": "uint256",
          "name": "gameID",
          "type": "uint256"
        }
      ],
      "stateMutability": "nonpayable",
      "type": "function"
    },
    {
      "inputs": [
        {
          "internalType": "address",
          "name": "_playerRegistry",
          "type": "address"
        },
        {
          "internalType": "address",
          "name": "_gameRegistry",
          "type": "address"
        },
        {
          "internalType": "address[]",
          "name": "playZoneAddresses",
          "type": "address[]"
        },
        {
          "internalType": "string[]",
          "name": "zoneAliases",
          "type": "string[]"
        }
      ],
      "name": "createGame",
      "outputs": [
        {
          "internalType": "uint256",
          "name": "gameID",
          "type": "uint256"
        }
      ],
      "stateMutability": "nonpayable",
      "type": "function"
    },
    {
      "inputs": [],
      "name": "createGrid",
      "outputs": [],
      "stateMutability": "nonpayable",
      "type": "function"
    },
    {
      "inputs": [
        {
          "internalType": "uint256",
          "name": "",
          "type": "uint256"
        },
        {
          "internalType": "uint256",
          "name": "",
          "type": "uint256"
        }
      ],
      "name": "currentPlayZone",
      "outputs": [
        {
          "internalType": "string",
          "name": "",
          "type": "string"
        }
      ],
      "stateMutability": "view",
      "type": "function"
    },
    {
      "inputs": [
        {
          "internalType": "uint256",
          "name": "",
          "type": "uint256"
        },
        {
          "internalType": "uint256",
          "name": "",
          "type": "uint256"
        }
      ],
      "name": "entryQueue",
      "outputs": [
        {
          "internalType": "uint256",
          "name": "",
          "type": "uint256"
        }
      ],
      "stateMutability": "view",
      "type": "function"
    },
    {
      "inputs": [
        {
          "internalType": "uint256",
          "name": "gameID",
          "type": "uint256"
        },
        {
          "internalType": "address",
          "name": "playerAddress",
          "type": "address"
        },
        {
          "internalType": "uint256",
          "name": "pathIndex",
          "type": "uint256"
        }
      ],
      "name": "exitToPath",
      "outputs": [
        {
          "internalType": "bool",
          "name": "exitSuccess",
          "type": "bool"
        }
      ],
      "stateMutability": "nonpayable",
      "type": "function"
    },
    {
      "inputs": [
        {
          "internalType": "uint256",
          "name": "",
          "type": "uint256"
        }
      ],
      "name": "gameState",
      "outputs": [
        {
          "internalType": "uint256",
          "name": "",
          "type": "uint256"
        }
      ],
      "stateMutability": "view",
      "type": "function"
    },
    {
      "inputs": [
        {
          "internalType": "uint256",
          "name": "gameID",
          "type": "uint256"
        },
        {
          "internalType": "string",
          "name": "_zoneAlias",
          "type": "string"
        }
      ],
      "name": "getInputs",
      "outputs": [
        {
          "internalType": "string[]",
          "name": "zoneInputs",
          "type": "string[]"
        }
      ],
      "stateMutability": "view",
      "type": "function"
    },
    {
      "inputs": [
        {
          "internalType": "uint256",
          "name": "gameID",
          "type": "uint256"
        },
        {
          "internalType": "string",
          "name": "_zoneAlias",
          "type": "string"
        }
      ],
      "name": "getOutputs",
      "outputs": [
        {
          "internalType": "string[]",
          "name": "zoneOutputs",
          "type": "string[]"
        }
      ],
      "stateMutability": "view",
      "type": "function"
    },
    {
      "inputs": [
        {
          "internalType": "uint256",
          "name": "gameID",
          "type": "uint256"
        }
      ],
      "name": "getOverflowQueue",
      "outputs": [
        {
          "internalType": "uint256[]",
          "name": "",
          "type": "uint256[]"
        }
      ],
      "stateMutability": "view",
      "type": "function"
    },
    {
      "inputs": [
        {
          "internalType": "uint256",
          "name": "gameID",
          "type": "uint256"
        }
      ],
      "name": "getPlayZones",
      "outputs": [
        {
          "internalType": "string[]",
          "name": "",
          "type": "string[]"
        }
      ],
      "stateMutability": "view",
      "type": "function"
    },
    {
      "inputs": [
        {
          "internalType": "bytes32",
          "name": "role",
          "type": "bytes32"
        }
      ],
      "name": "getRoleAdmin",
      "outputs": [
        {
          "internalType": "bytes32",
          "name": "",
          "type": "bytes32"
        }
      ],
      "stateMutability": "view",
      "type": "function"
    },
    {
      "inputs": [
        {
          "internalType": "bytes32",
          "name": "role",
          "type": "bytes32"
        },
        {
          "internalType": "uint256",
          "name": "index",
          "type": "uint256"
        }
      ],
      "name": "getRoleMember",
      "outputs": [
        {
          "internalType": "address",
          "name": "",
          "type": "address"
        }
      ],
      "stateMutability": "view",
      "type": "function"
    },
    {
      "inputs": [
        {
          "internalType": "bytes32",
          "name": "role",
          "type": "bytes32"
        }
      ],
      "name": "getRoleMemberCount",
      "outputs": [
        {
          "internalType": "uint256",
          "name": "",
          "type": "uint256"
        }
      ],
      "stateMutability": "view",
      "type": "function"
    },
    {
      "inputs": [],
      "name": "getZoneAliases",
      "outputs": [
        {
          "internalType": "string[]",
          "name": "",
          "type": "string[]"
        }
      ],
      "stateMutability": "view",
      "type": "function"
    },
    {
      "inputs": [
        {
          "internalType": "bytes32",
          "name": "role",
          "type": "bytes32"
        },
        {
          "internalType": "address",
          "name": "account",
          "type": "address"
        }
      ],
      "name": "grantRole",
      "outputs": [],
      "stateMutability": "nonpayable",
      "type": "function"
    },
    {
      "inputs": [],
      "name": "gridHeight",
      "outputs": [
        {
          "internalType": "uint256",
          "name": "",
          "type": "uint256"
        }
      ],
      "stateMutability": "view",
      "type": "function"
    },
    {
      "inputs": [],
      "name": "gridWidth",
      "outputs": [
        {
          "internalType": "uint256",
          "name": "",
          "type": "uint256"
        }
      ],
      "stateMutability": "view",
      "type": "function"
    },
    {
      "inputs": [
        {
          "internalType": "bytes32",
          "name": "role",
          "type": "bytes32"
        },
        {
          "internalType": "address",
          "name": "account",
          "type": "address"
        }
      ],
      "name": "hasRole",
      "outputs": [
        {
          "internalType": "bool",
          "name": "",
          "type": "bool"
        }
      ],
      "stateMutability": "view",
      "type": "function"
    },
    {
      "inputs": [
        {
          "internalType": "address",
          "name": "factoryAddress",
          "type": "address"
        }
      ],
      "name": "isFactory",
      "outputs": [
        {
          "internalType": "bool",
          "name": "factoryIsAuthorized",
          "type": "bool"
        }
      ],
      "stateMutability": "view",
      "type": "function"
    },
    {
      "inputs": [
        {
          "internalType": "uint256",
          "name": "",
          "type": "uint256"
        }
      ],
      "name": "lastEntryPlayerID",
      "outputs": [
        {
          "internalType": "uint256",
          "name": "",
          "type": "uint256"
        }
      ],
      "stateMutability": "view",
      "type": "function"
    },
    {
      "inputs": [],
      "name": "needsUpdate",
      "outputs": [
        {
          "internalType": "bool",
          "name": "doesNeedUpdate",
          "type": "bool"
        }
      ],
      "stateMutability": "view",
      "type": "function"
    },
    {
      "inputs": [
        {
          "internalType": "uint256",
          "name": "",
          "type": "uint256"
        },
        {
          "internalType": "string",
          "name": "",
          "type": "string"
        },
        {
          "internalType": "uint256",
          "name": "",
          "type": "uint256"
        }
      ],
      "name": "playZoneInputs",
      "outputs": [
        {
          "internalType": "string",
          "name": "",
          "type": "string"
        }
      ],
      "stateMutability": "view",
      "type": "function"
    },
    {
      "inputs": [
        {
          "internalType": "uint256",
          "name": "",
          "type": "uint256"
        },
        {
          "internalType": "string",
          "name": "",
          "type": "string"
        },
        {
          "internalType": "uint256",
          "name": "",
          "type": "uint256"
        }
      ],
      "name": "playZoneOutputs",
      "outputs": [
        {
          "internalType": "string",
          "name": "",
          "type": "string"
        }
      ],
      "stateMutability": "view",
      "type": "function"
    },
    {
      "inputs": [
        {
          "internalType": "uint256",
          "name": "",
          "type": "uint256"
        },
        {
          "internalType": "uint256",
          "name": "",
          "type": "uint256"
        }
      ],
      "name": "playZones",
      "outputs": [
        {
          "internalType": "string",
          "name": "",
          "type": "string"
        }
      ],
      "stateMutability": "view",
      "type": "function"
    },
    {
      "inputs": [
        {
          "internalType": "uint256",
          "name": "gameID",
          "type": "uint256"
        },
        {
          "internalType": "address",
          "name": "playerAddress",
          "type": "address"
        },
        {
          "internalType": "string",
          "name": "_zoneAlias",
          "type": "string"
        }
      ],
      "name": "playerEnteredZone",
      "outputs": [],
      "stateMutability": "nonpayable",
      "type": "function"
    },
    {
      "inputs": [
        {
          "internalType": "uint256",
          "name": "",
          "type": "uint256"
        }
      ],
      "name": "playerRegistry",
      "outputs": [
        {
          "internalType": "uint256",
          "name": "",
          "type": "uint256"
        }
      ],
      "stateMutability": "view",
      "type": "function"
    },
    {
      "inputs": [],
      "name": "prAddress",
      "outputs": [
        {
          "internalType": "address",
          "name": "",
          "type": "address"
        }
      ],
      "stateMutability": "view",
      "type": "function"
    },
    {
      "inputs": [
        {
          "internalType": "uint256",
          "name": "gameID",
          "type": "uint256"
        },
        {
          "internalType": "address[]",
          "name": "playerAddresses",
          "type": "address[]"
        },
        {
          "internalType": "uint256[]",
          "name": "pathIndices",
          "type": "uint256[]"
        },
        {
          "internalType": "uint256",
          "name": "transitID",
          "type": "uint256"
        }
      ],
      "name": "queueExitToPaths",
      "outputs": [],
      "stateMutability": "nonpayable",
      "type": "function"
    },
    {
      "inputs": [
        {
          "internalType": "uint256",
          "name": "gameID",
          "type": "uint256"
        },
        {
          "internalType": "string[]",
          "name": "inputAliases",
          "type": "string[]"
        },
        {
          "internalType": "uint256[]",
          "name": "inputs",
          "type": "uint256[]"
        },
        {
          "internalType": "string[]",
          "name": "outputAliases",
          "type": "string[]"
        },
        {
          "internalType": "uint256[]",
          "name": "outputs",
          "type": "uint256[]"
        }
      ],
      "name": "removeZoneConnections",
      "outputs": [],
      "stateMutability": "nonpayable",
      "type": "function"
    },
    {
      "inputs": [
        {
          "internalType": "bytes32",
          "name": "role",
          "type": "bytes32"
        },
        {
          "internalType": "address",
          "name": "account",
          "type": "address"
        }
      ],
      "name": "renounceRole",
      "outputs": [],
      "stateMutability": "nonpayable",
      "type": "function"
    },
    {
      "inputs": [
        {
          "internalType": "bytes32",
          "name": "role",
          "type": "bytes32"
        },
        {
          "internalType": "address",
          "name": "account",
          "type": "address"
        }
      ],
      "name": "revokeRole",
      "outputs": [],
      "stateMutability": "nonpayable",
      "type": "function"
    },
    {
      "inputs": [],
      "name": "runUpdate",
      "outputs": [],
      "stateMutability": "nonpayable",
      "type": "function"
    },
    {
      "inputs": [
        {
          "internalType": "uint256",
          "name": "gameID",
          "type": "uint256"
        }
      ],
      "name": "startGame",
      "outputs": [],
      "stateMutability": "nonpayable",
      "type": "function"
    },
    {
      "inputs": [
        {
          "internalType": "uint256",
          "name": "transitID",
          "type": "uint256"
        }
      ],
      "name": "startTransit",
      "outputs": [],
      "stateMutability": "nonpayable",
      "type": "function"
    },
    {
      "inputs": [
        {
          "internalType": "bytes4",
          "name": "interfaceId",
          "type": "bytes4"
        }
      ],
      "name": "supportsInterface",
      "outputs": [
        {
          "internalType": "bool",
          "name": "",
          "type": "bool"
        }
      ],
      "stateMutability": "view",
      "type": "function"
    },
    {
      "inputs": [],
      "name": "zoneAddress",
      "outputs": [
        {
          "internalType": "address",
          "name": "",
          "type": "address"
        }
      ],
      "stateMutability": "view",
      "type": "function"
    },
    {
      "inputs": [
        {
          "internalType": "uint256",
          "name": "",
          "type": "uint256"
        },
        {
          "internalType": "string",
          "name": "",
          "type": "string"
        }
      ],
      "name": "zoneAlias",
      "outputs": [
        {
          "internalType": "address",
          "name": "",
          "type": "address"
        }
      ],
      "stateMutability": "view",
      "type": "function"
    },
    {
      "inputs": [
        {
          "internalType": "uint256",
          "name": "",
          "type": "uint256"
        }
      ],
      "name": "zoneAliases",
      "outputs": [
        {
          "internalType": "string",
          "name": "",
          "type": "string"
        }
      ],
      "stateMutability": "view",
      "type": "function"
    },
    {
      "inputs": [
        {
          "internalType": "uint256",
          "name": "",
          "type": "uint256"
        },
        {
          "internalType": "string",
          "name": "",
          "type": "string"
        }
      ],
      "name": "zoneEnabled",
      "outputs": [
        {
          "internalType": "bool",
          "name": "",
          "type": "bool"
        }
      ],
      "stateMutability": "view",
      "type": "function"
    },
    {
      "inputs": [
        {
          "internalType": "uint256",
          "name": "randomness",
          "type": "uint256"
        }
      ],
      "name": "setRandomness",
      "outputs": [],
      "stateMutability": "nonpayable",
      "type": "function"
    },
    {
      "inputs": [
        {
          "internalType": "string",
          "name": "zoneAlias",
          "type": "string"
        },
        {
          "internalType": "enum HexplorationZone.Tile",
          "name": "tile",
          "type": "uint8"
        },
        {
          "internalType": "uint256",
          "name": "gameID",
          "type": "uint256"
        }
      ],
      "name": "enableZone",
      "outputs": [],
      "stateMutability": "nonpayable",
      "type": "function"
    },
    {
      "inputs": [
        {
          "internalType": "string[]",
          "name": "zonePath",
          "type": "string[]"
        },
        {
          "internalType": "address",
          "name": "playerAddress",
          "type": "address"
        },
        {
          "internalType": "uint256",
          "name": "gameID",
          "type": "uint256"
        },
        {
          "internalType": "enum HexplorationZone.Tile[]",
          "name": "tiles",
          "type": "uint8[]"
        }
      ],
      "name": "moveThroughPath",
      "outputs": [],
      "stateMutability": "nonpayable",
      "type": "function"
    }
  ],
  "bytecode": "0x60806040523480156200001157600080fd5b506040516200482c3803806200482c8339810160408190526200003491620002a8565b83838383836200004f600082640100000000620000c9810204565b620000847f1d93c87416ca7b54f0fb8323167b72760e8e2ec93d48660953897a150f97a8b482640100000000620000c9810204565b50600d92909255600e55600f8054600160a060020a03928316600160a060020a031991821617909155601280549490921693169290921790915550620002f392505050565b620000de8282640100000000620000e2810204565b5050565b620000fc8282640100000000620026b66200012982021704565b60008281526001602052604090206200012490826401000000006200273a620001c582021704565b505050565b6200013e8282640100000000620001ee810204565b620000de57600082815260208181526040808320600160a060020a03851684529091529020805460ff191660011790556200018164010000000062000217810204565b600160a060020a031681600160a060020a0316837f2f8788117e7eff1d82e926ec794901d17c78024a50270940304540a733656f0d60405160405180910390a45050565b6000620001e583600160a060020a0384166401000000006200021b810204565b90505b92915050565b600091825260208281526040808420600160a060020a0393909316845291905290205460ff1690565b3390565b600062000232838364010000000062000273810204565b6200026a57508154600181810184556000848152602080822090930184905584548482528286019093526040902091909155620001e8565b506000620001e8565b60009081526001919091016020526040902054151590565b8051600160a060020a0381168114620002a357600080fd5b919050565b60008060008060808587031215620002bf57600080fd5b620002ca856200028b565b93506020850151925060408501519150620002e8606086016200028b565b905092959194509250565b61452980620003036000396000f3fe608060405234801561001057600080fd5b50600436106103875760003560e060020a9004806391d14854116101e2578063cfdbf25411610113578063d91413ba116100b1578063f643b8fd11610080578063f643b8fd14610813578063f843070814610826578063fa9f343814610839578063fdd198c31461084c57600080fd5b8063d91413ba14610799578063e309203f146107ac578063e5ed1d59146107c1578063ed3719a5146107d457600080fd5b8063d3fb7289116100ed578063d3fb728914610740578063d4f5b15214610760578063d547741f14610773578063d75e79801461078657600080fd5b8063cfdbf25414610710578063d1e18d2614610718578063d2d6756b1461072057600080fd5b8063ad1def1e11610180578063babdeefa1161015a578063babdeefa146106c4578063c06dea4e146106d7578063ca15c873146106e8578063cd1ec7f2146106fb57600080fd5b8063ad1def1e1461069c578063b2df0ca214610496578063b40c89df146106b157600080fd5b8063a217fddf116101bc578063a217fddf1461064e578063a4f9c9df14610656578063a6f979ff14610669578063aab2aeb81461067c57600080fd5b806391d14854146106155780639eb356cb146106285780639f6c40171461063b57600080fd5b80632f2ff15d116102bc5780634032b72b1161025a5780636b6ec869116102345780636b6ec869146105d45780637cc75d1c146105e757806384bf09b6146105fa5780639010d07c1461060257600080fd5b80634032b72b1461058e5780634e0e1a3e146105a157806351709a73146105c157600080fd5b806336568abe1161029657806336568abe14610557578063374f1d351461056a57806338b145df1461057d5780633ca61a581461058657600080fd5b80632f2ff15d1461052957806331e019f61461053c578063346c94091461054f57600080fd5b80631900601811610329578063248a9ca311610303578063248a9ca3146104cd57806329678756146104f057806329ce1ec5146105035780632c47669a1461051657600080fd5b80631900601814610483578063194f2a36146104985780631c834a7f146104b857600080fd5b80630f04ba67116103655780630f04ba6714610402578063108c5e1414610415578063153a75901461041e57806317d7e8331461046357600080fd5b806301ffc9a71461038c57806304a0fb17146103b45780630b197f2e146103d7575b600080fd5b61039f61039a366004613551565b61085f565b60405190151581526020015b60405180910390f35b6103c960008051602061449483398151915281565b6040519081526020016103ab565b600f546103ea90600160a060020a031681565b604051600160a060020a0390911681526020016103ab565b61039f610410366004613590565b6108a3565b6103c9600e5481565b6103ea61042c36600461369e565b60076020908152600092835260409092208151808301840180519281529084019290930191909120915254600160a060020a031681565b6104766104713660046136e5565b6108bd565b6040516103ab919061375f565b610496610491366004613876565b610976565b005b6104ab6104a636600461369e565b610ac2565b6040516103ab919061392d565b6103c96000805160206144d483398151915281565b6103c96104db36600461398e565b60009081526020819052604090206001015490565b6104966104fe366004613a08565b610e05565b610496610511366004613590565b610e24565b610496610524366004613a7d565b610e4b565b610496610537366004613aea565b610e98565b61049661054a366004613b2e565b610ec2565b61039f611058565b610496610565366004613aea565b6110a9565b61047661057836600461398e565b611134565b6103c9600d5481565b6104ab61115f565b61049661059c366004613590565b611238565b6103c96105af36600461398e565b60046020526000908152604090205481565b6104766105cf366004613c07565b611268565b6104ab6105e236600461369e565b6112bc565b6103c96105f53660046136e5565b6115ec565b61049661161d565b6103ea6106103660046136e5565b6118bd565b61039f610623366004613aea565b6118dc565b61039f610636366004613c46565b611905565b61049661064936600461398e565b611d52565b6103c9600081565b61049661066436600461398e565b611d6a565b6103c9610677366004613c7e565b611d82565b6103c961068a36600461398e565b600a6020526000908152604090205481565b6103c960008051602061447483398151915281565b6104766106bf366004613c07565b611e67565b6104ab6106d236600461398e565b611e9e565b600254600160a060020a03166103ea565b6103c96106f636600461398e565b611f8a565b6103c960008051602061445483398151915281565b6103c960c881565b610496611fa1565b6103c961072e36600461398e565b60056020526000908152604090205481565b61075361074e36600461398e565b6120a7565b6040516103ab9190613cac565b61049661076e366004613590565b612109565b610496610781366004613aea565b61212c565b6104766107943660046136e5565b612151565b6103c96107a7366004613cf0565b612175565b6103c96000805160206144b483398151915281565b6104966107cf36600461398e565b612299565b61039f6107e236600461369e565b6013602090815260009283526040909220815180830184018051928152908401929093019190912091525460ff1681565b610496610821366004613d79565b6122e7565b610496610834366004613e8a565b6124e8565b610496610847366004613ee1565b6125c5565b61049661085a36600461398e565b612698565b6000600160e060020a031982167f5a05180f00000000000000000000000000000000000000000000000000000000148061089d575061089d8261274f565b92915050565b600061089d600080516020614494833981519152836118dc565b600660205281600052604060002081815481106108d957600080fd5b906000526020600020016000915091505080546108f590613f3a565b80601f016020809104026020016040519081016040528092919081815260200182805461092190613f3a565b801561096e5780601f106109435761010080835404028352916020019161096e565b820191906000526020600020905b81548152906001019060200180831161095157829003601f168201915b505050505081565b60008051602061447483398151915261098e816127b6565b81518451146109e75760405160e560020a62461bcd02815260206004820181905260248201527f696e70757473202f206f757470757473206c656e677468206d69736d6174636860448201526064015b60405180910390fd5b6109f28686866127c0565b610a415760405160e560020a62461bcd02815260206004820152600e60248201527f696e7075747320696e76616c696400000000000000000000000000000000000060448201526064016109de565b610a4c868484612863565b610a9b5760405160e560020a62461bcd02815260206004820152600f60248201527f6f75747075747320696e76616c6964000000000000000000000000000000000060448201526064016109de565b60005b8451811015610ab95780610ab181613f91565b915050610a9e565b50505050505050565b60008281526008602052604080822090516060929190610ae3908590613fac565b9081526020016040518091039020805480602002602001604051908101604052809291908181526020016000905b82821015610bbd578382906000526020600020018054610b3090613f3a565b80601f0160208091040260200160405190810160405280929190818152602001828054610b5c90613f3a565b8015610ba95780601f10610b7e57610100808354040283529160200191610ba9565b820191906000526020600020905b815481529060010190602001808311610b8c57829003601f168201915b505050505081526020019060010190610b11565b505060008080526008602052604051939450927f5eff886ea0ce6ca488a3d6e336d6c0f75f46d19b42c06ce5ee98e42c96d256c79250610bff91508690613fac565b9081526020016040518091039020805480602002602001604051908101604052809291908181526020016000905b82821015610cd9578382906000526020600020018054610c4c90613f3a565b80601f0160208091040260200160405190810160405280929190818152602001828054610c7890613f3a565b8015610cc55780601f10610c9a57610100808354040283529160200191610cc5565b820191906000526020600020905b815481529060010190602001808311610ca857829003601f168201915b505050505081526020019060010190610c2d565b505050509050600082511115610df957600081518351610cf99190613fc8565b67ffffffffffffffff811115610d1157610d116135ad565b604051908082528060200260200182016040528015610d4457816020015b6060815260200190600190039081610d2f5790505b50905060005b8151811015610df2578251811015610d9857828181518110610d6e57610d6e613fe0565b6020026020010151828281518110610d8857610d88613fe0565b6020026020010181905250610ddc565b83835182610da69190613ff9565b81518110610db657610db6613fe0565b6020026020010151828281518110610dd057610dd0613fe0565b60200260200101819052505b8194508080610dea90613f91565b915050610d4a565b5050610dfd565b8092505b505092915050565b600080516020614454833981519152610e1d816127b6565b5050505050565b6000610e2f816127b6565b610e47600080516020614494833981519152836128fe565b5050565b600080516020614474833981519152610e63816127b6565b8251845114610e875760405160e560020a62461bcd0281526004016109de90614010565b610e92848484612908565b50505050565b600082815260208190526040902060010154610eb3816127b6565b610ebd8383612a67565b505050565b6000805160206144d4833981519152610eda816127b6565b6012548551600160a060020a03909116906328d7e11a90869086908990600090610f0657610f06613fe0565b60200260200101516040518463ffffffff1660e060020a028152600401610f2f9392919061406d565b600060405180830381600087803b158015610f4957600080fd5b505af1158015610f5d573d6000803e3d6000fd5b50506012548751600160a060020a0390911692506398bd75729150869086908990610f8a90600190613ff9565b81518110610f9a57610f9a613fe0565b60200260200101516040518463ffffffff1660e060020a028152600401610fc39392919061406d565b600060405180830381600087803b158015610fdd57600080fd5b505af1158015610ff1573d6000803e3d6000fd5b5050505060005b85518110156110505761103e86828151811061101657611016613fe0565b602002602001015184838151811061103057611030613fe0565b6020026020010151866124e8565b8061104881613f91565b915050610ff8565b505050505050565b6000805b6003548110156110a5576003818154811061107957611079613fe0565b906000526020600020015460001461109357600191505090565b8061109d81613f91565b91505061105c565b5090565b600160a060020a038116331461112a5760405160e560020a62461bcd02815260206004820152602f60248201527f416363657373436f6e74726f6c3a2063616e206f6e6c792072656e6f756e636560448201527f20726f6c657320666f722073656c66000000000000000000000000000000000060648201526084016109de565b610e478282612a89565b6010818154811061114457600080fd5b9060005260206000200160009150905080546108f590613f3a565b60606010805480602002602001604051908101604052809291908181526020016000905b8282101561122f5783829060005260206000200180546111a290613f3a565b80601f01602080910402602001604051908101604052809291908181526020018280546111ce90613f3a565b801561121b5780601f106111f05761010080835404028352916020019161121b565b820191906000526020600020905b8154815290600101906020018083116111fe57829003601f168201915b505050505081526020019060010190611183565b50505050905090565b600080516020614474833981519152611250816127b6565b610e476000805160206144b4833981519152836128fe565b6008602090815260008481526040902083518085018301805192815290830192850192909220915280548290811061129f57600080fd5b90600052602060002001600092509250505080546108f590613f3a565b600082815260096020526040808220905160609291906112dd908590613fac565b9081526020016040518091039020805480602002602001604051908101604052809291908181526020016000905b828210156113b757838290600052602060002001805461132a90613f3a565b80601f016020809104026020016040519081016040528092919081815260200182805461135690613f3a565b80156113a35780601f10611378576101008083540402835291602001916113a3565b820191906000526020600020905b81548152906001019060200180831161138657829003601f168201915b50505050508152602001906001019061130b565b505060008080526009602052604051939450927fec8156718a8372b1db44bb411437d0870f3e3790d4a08526d024ce1b0b668f6b92506113f991508690613fac565b9081526020016040518091039020805480602002602001604051908101604052809291908181526020016000905b828210156114d357838290600052602060002001805461144690613f3a565b80601f016020809104026020016040519081016040528092919081815260200182805461147290613f3a565b80156114bf5780601f10611494576101008083540402835291602001916114bf565b820191906000526020600020905b8154815290600101906020018083116114a257829003601f168201915b505050505081526020019060010190611427565b505050509050600082511115610df9576000815183516114f39190613fc8565b67ffffffffffffffff81111561150b5761150b6135ad565b60405190808252806020026020018201604052801561153e57816020015b60608152602001906001900390816115295790505b50905060005b8151811015610df25782518110156115925782818151811061156857611568613fe0565b602002602001015182828151811061158257611582613fe0565b60200260200101819052506115d6565b838351826115a09190613ff9565b815181106115b0576115b0613fe0565b60200260200101518282815181106115ca576115ca613fe0565b60200260200101819052505b81945080806115e490613f91565b915050611544565b600c602052816000526040600020818154811061160857600080fd5b90600052602060002001600091509150505481565b611635600080516020614494833981519152336118dc565b806116535750611653600080516020614474833981519152336118dc565b6116725760405160e560020a62461bcd0281526004016109de90614095565b6010546118bb576000600e54600d5461168b91906140f2565b67ffffffffffffffff8111156116a3576116a36135ad565b6040519080825280602002602001820160405280156116cc578160200160208202803683370190505b50600e54600d546040517f9f6b56490000000000000000000000000000000000000000000000000000000081526004810192909252602482015290915073__XYCoordinates_________________________90639f6b564990604401600060405180830381865af4158015611745573d6000803e3d6000fd5b505050506040513d6000823e601f3d908101601f1916820160405261176d9190810190614111565b80516117819160109160209091019061340c565b5060005b81518110156117db57600f548251600160a060020a03909116908390839081106117b1576117b1613fe0565b600160a060020a0390921660209283029190910190910152806117d381613f91565b915050611785565b506118b9816010805480602002602001604051908101604052809291908181526020016000905b828210156118ae57838290600052602060002001805461182190613f3a565b80601f016020809104026020016040519081016040528092919081815260200182805461184d90613f3a565b801561189a5780601f1061186f5761010080835404028352916020019161189a565b820191906000526020600020905b81548152906001019060200180831161187d57829003601f168201915b505050505081526020019060010190611802565b505050506000612908565b505b565b60008281526001602052604081206118d59083612aab565b9392505050565b600091825260208281526040808420600160a060020a0393909316845291905290205460ff1690565b6002546040517fbca7caa000000000000000000000000000000000000000000000000000000000815260048101859052600160a060020a038481166024830152600092839291169063bca7caa090604401602060405180830381865afa158015611973573d6000803e3d6000fd5b505050506040513d601f19601f8201168201806040525081019061199791906141fb565b6000868152600b602090815260408083208484529091528120805492935090916119c090613f3a565b80601f01602080910402602001604051908101604052809291908181526020018280546119ec90613f3a565b8015611a395780601f10611a0e57610100808354040283529160200191611a39565b820191906000526020600020905b815481529060010190602001808311611a1c57829003601f168201915b505050505090506000611a4c87836112bc565b805190915080611aa15760405160e560020a62461bcd02815260206004820152601760248201527f4e6f206578697420706174687320617661696c61626c6500000000000000000060448201526064016109de565b60008881526007602052604080822090519196508691611ac2908690613fac565b90815260405190819003602001902054600160a060020a031690506000828811611aec5787611aef565b60005b90506000848281518110611b0557611b05613fe0565b602002602001015190506000600760008d815260200190815260200160002082604051611b329190613fac565b908152602001604051809103902060009054906101000a9004600160a060020a0316905083600160a060020a0316637caf12808c8e8a6040518463ffffffff1660e060020a028152600401611b899392919061406d565b602060405180830381865afa158015611ba6573d6000803e3d6000fd5b505050506040513d601f19601f82011682018060405250810190611bca9190614214565b8015611c45575080600160a060020a031663e15b3ad08c8e856040518463ffffffff1660e060020a028152600401611c049392919061406d565b602060405180830381865afa158015611c21573d6000803e3d6000fd5b505050506040513d601f19601f82011682018060405250810190611c459190614214565b15611d435783600160a060020a03166328d7e11a8c8e8a6040518463ffffffff1660e060020a028152600401611c7d9392919061406d565b600060405180830381600087803b158015611c9757600080fd5b505af1158015611cab573d6000803e3d6000fd5b5050505080600160a060020a03166398bd75728c8e856040518463ffffffff1660e060020a028152600401611ce29392919061406d565b600060405180830381600087803b158015611cfc57600080fd5b505af1158015611d10573d6000803e3d6000fd5b50505060008d8152600b602090815260408083208c845282529091208451611d3d93509091850190613465565b50600198505b50505050505050509392505050565b6000805160206144b4833981519152610e47816127b6565b600080516020614454833981519152610e47816127b6565b6000611d9c600080516020614494833981519152336118dc565b80611dba5750611dba600080516020614474833981519152336118dc565b611dd95760405160e560020a62461bcd0281526004016109de90614095565b82600260006101000a815481600160a060020a030219169083600160a060020a0316021790555081600160a060020a0316630a75806e6040518163ffffffff1660e060020a0281526004016020604051808303816000875af1158015611e43573d6000803e3d6000fd5b505050506040513d601f19601f820116820180604052508101906118d591906141fb565b6009602090815260008481526040902083518085018301805192815290830192850192909220915280548290811061129f57600080fd5b606060066000838152602001908152602001600020805480602002602001604051908101604052809291908181526020016000905b82821015611f7f578382906000526020600020018054611ef290613f3a565b80601f0160208091040260200160405190810160405280929190818152602001828054611f1e90613f3a565b8015611f6b5780601f10611f4057610100808354040283529160200191611f6b565b820191906000526020600020905b815481529060010190602001808311611f4e57829003601f168201915b505050505081526020019060010190611ed3565b505050509050919050565b600081815260016020526040812061089d90612ab7565b6000805160206144b4833981519152611fb9816127b6565b60008060005b6003548110156120285760038181548110611fdc57611fdc613fe0565b9060005260206000200154600014612016576003818154811061200157612001613fe0565b90600052602060002001549250809150612028565b8061202081613f91565b915050611fbf565b5060008281526004602052604090205461204a5761204582612ac1565b61206a565b6000828152600460205260409020546001141561206a5761206a82612b4c565b60008281526004602052604090205460011015610ebd5760006003828154811061209657612096613fe0565b600091825260209091200155505050565b6000818152600c60209081526040918290208054835181840281018401909452808452606093928301828280156120fd57602002820191906000526020600020905b8154815260200190600101908083116120e9575b50505050509050919050565b6000612114816127b6565b610e476000805160206144d483398151915283610e98565b600082815260208190526040902060010154612147816127b6565b610ebd8383612a89565b600b602090815260009283526040808420909152908252902080546108f590613f3a565b600061218f600080516020614494833981519152336118dc565b806121ad57506121ad600080516020614474833981519152336118dc565b6121cc5760405160e560020a62461bcd0281526004016109de90614095565b81518351146121f05760405160e560020a62461bcd0281526004016109de90614010565b82511561220257612202838383612908565b84600260006101000a815481600160a060020a030219169083600160a060020a0316021790555083600160a060020a0316630a75806e6040518163ffffffff1660e060020a0281526004016020604051808303816000875af115801561226c573d6000803e3d6000fd5b505050506040513d601f19601f8201168201806040525081019061229091906141fb565b95945050505050565b6000805160206144748339815191526122b1816127b6565b50600380546001810182556000919091527fc2575a0e9e593c00f959f8c92f12db2869c3395a3b0502d05e2516446f71f85b0155565b6000805160206144748339815191526122ff816127b6565b6123098383612e66565b6123585760405160e560020a62461bcd02815260206004820152601a60248201527f6e6f7420616c6c207a6f6e6520696e64656365732076616c696400000000000060448201526064016109de565b60005b8251811015610e92576000848152600960205260409020835184908390811061238657612386613fe0565b60200260200101516000600281106123a0576123a0613fe0565b60200201516040516123b29190613fac565b90815260200160405180910390208382815181106123d2576123d2613fe0565b60200260200101516001600281106123ec576123ec613fe0565b602090810291909101518254600181018455600093845292829020815161241c9491909101929190910190613465565b506000848152600860205260409020835184908390811061243f5761243f613fe0565b602002602001015160016002811061245957612459613fe0565b602002015160405161246b9190613fac565b908152602001604051809103902083828151811061248b5761248b613fe0565b60200260200101516000600281106124a5576124a5613fe0565b60209081029190910151825460018101845560009384529282902081516124d59491909101929190910190613465565b50806124e081613f91565b91505061235b565b6000805160206144d4833981519152612500816127b6565b6012546040517fd4939609000000000000000000000000000000000000000000000000000000008152600160a060020a039091169063d49396099061254d90869086908990600401614236565b600060405180830381600087803b15801561256757600080fd5b505af115801561257b573d6000803e3d6000fd5b5050506000838152601360205260409081902090516001925061259f908790613fac565b908152604051908190036020019020805491151560ff1990921691909117905550505050565b6000805160206144548339815191526125dd816127b6565b6002546040517fbca7caa000000000000000000000000000000000000000000000000000000000815260048101869052600160a060020a038581166024830152600092169063bca7caa090604401602060405180830381865afa158015612648573d6000803e3d6000fd5b505050506040513d601f19601f8201168201806040525081019061266c91906141fb565b6000868152600b6020908152604080832084845282529091208551929350611050929091860190613465565b6000805160206144d48339815191526126b0816127b6565b50601155565b6126c082826118dc565b610e4757600082815260208181526040808320600160a060020a03851684529091529020805460ff191660011790556126f63390565b600160a060020a031681600160a060020a0316837f2f8788117e7eff1d82e926ec794901d17c78024a50270940304540a733656f0d60405160405180910390a45050565b60006118d583600160a060020a038416612f75565b6000600160e060020a031982167f7965db0b00000000000000000000000000000000000000000000000000000000148061089d57507f01ffc9a700000000000000000000000000000000000000000000000000000000600160e060020a031983161461089d565b6118b98133612fc4565b600160005b825181101561285b578281815181106127e0576127e0613fe0565b602002602001015160016127f49190613fc8565b6000868152600860205260409020855186908490811061281657612816613fe0565b602002602001015160405161282b9190613fac565b9081526040519081900360200190205410612849576000915061285b565b8061285381613f91565b9150506127c5565b509392505050565b600160005b825181101561285b5782818151811061288357612883613fe0565b602002602001015160016128979190613fc8565b600086815260096020526040902085518690849081106128b9576128b9613fe0565b60200260200101516040516128ce9190613fac565b90815260405190819003602001902054106128ec576000915061285b565b806128f681613f91565b915050612868565b610e478282612a67565b60005b8351811015610e92576000828152600660205260409020835184908390811061293657612936613fe0565b602090810291909101810151825460018101845560009384529282902081516129689491909101929190910190613465565b5083818151811061297b5761297b613fe0565b6020026020010151600760008481526020019081526020016000208483815181106129a8576129a8613fe0565b60200260200101516040516129bd9190613fac565b908152602001604051809103902060006101000a815481600160a060020a030219169083600160a060020a03160217905550612a20600080516020614454833981519152858381518110612a1357612a13613fe0565b60200260200101516118dc565b612a5557612a55600080516020614454833981519152858381518110612a4857612a48613fe0565b60200260200101516128fe565b80612a5f81613f91565b91505061290b565b612a7182826126b6565b6000828152600160205260409020610ebd908261273a565b612a93828261302b565b6000828152600160205260409020610ebd9082613090565b60006118d583836130a5565b600061089d825490565b6002546040517f60c2050000000000000000000000000000000000000000000000000000000000815260048101839052600160a060020a03909116906360c2050090602401600060405180830381600087803b158015612b2057600080fd5b505af1158015612b34573d6000803e3d6000fd5b50505060009182525060046020526040902060019055565b60008181526007602090815260408083206006909252822080548390612b7457612b74613fe0565b90600052602060002001604051612b8b9190614276565b90815260405190819003602001902054600160a060020a031690508060005b6002546040517fb77ff41100000000000000000000000000000000000000000000000000000000815260048101869052600160a060020a039091169063b77ff41190602401602060405180830381865afa158015612c0c573d6000803e3d6000fd5b505050506040513d601f19601f82011682018060405250810190612c3091906141fb565b811015612e4f576000612c44826001613fc8565b6002546040517ff50432540000000000000000000000000000000000000000000000000000000081526004810188905260248101839052919250600091600160a060020a039091169063f504325490604401602060405180830381865afa158015612cb3573d6000803e3d6000fd5b505050506040513d601f19601f82011682018060405250810190612cd791906142e8565b905083600160a060020a031663e15b3ad08288600660008b8152602001908152602001600020600081548110612d0f57612d0f613fe0565b906000526020600020016040518463ffffffff1660e060020a028152600401612d3a93929190614305565b602060405180830381865afa158015612d57573d6000803e3d6000fd5b505050506040513d601f19601f82011682018060405250810190612d7b9190614214565b15612e185783600160a060020a03166398bd75728288600660008b8152602001908152602001600020600081548110612db657612db6613fe0565b906000526020600020016040518463ffffffff1660e060020a028152600401612de193929190614305565b600060405180830381600087803b158015612dfb57600080fd5b505af1158015612e0f573d6000803e3d6000fd5b50505050612e3a565b6000868152600c60209081526040822080546001810182559083529120018290555b50508080612e4790613f91565b915050612baa565b505050600090815260046020526040902060029055565b6000805b8251811015612f6e576000848152600760205260408120845160019450859084908110612e9957612e99613fe0565b6020026020010151600060028110612eb357612eb3613fe0565b6020020151604051612ec59190613fac565b90815260405190819003602001902054600160a060020a03161480612f4e575060008481526007602052604081208451859084908110612f0757612f07613fe0565b6020026020010151600160028110612f2157612f21613fe0565b6020020151604051612f339190613fac565b90815260405190819003602001902054600160a060020a0316145b15612f5c5760009150612f6e565b80612f6681613f91565b915050612e6a565b5092915050565b6000818152600183016020526040812054612fbc5750815460018181018455600084815260208082209093018490558454848252828601909352604090209190915561089d565b50600061089d565b612fce82826118dc565b610e4757612fe681600160a060020a031660146130cf565b612ff18360206130cf565b6040516020016130029291906143a2565b60408051601f198184030181529082905260e560020a62461bcd0282526109de9160040161375f565b61303582826118dc565b15610e4757600082815260208181526040808320600160a060020a0385168085529252808320805460ff1916905551339285917ff6391f5c32d9c69d2a47ea670b442974b53935d1edc7fd64eb21e047a839171b9190a45050565b60006118d583600160a060020a038416613319565b60008260000182815481106130bc576130bc613fe0565b9060005260206000200154905092915050565b606060006130de8360026140f2565b6130e9906002613fc8565b67ffffffffffffffff811115613101576131016135ad565b6040519080825280601f01601f19166020018201604052801561312b576020820181803683370190505b5090507f30000000000000000000000000000000000000000000000000000000000000008160008151811061316257613162613fe0565b60200101907effffffffffffffffffffffffffffffffffffffffffffffffffffffffffffff1916908160001a9053507f7800000000000000000000000000000000000000000000000000000000000000816001815181106131c5576131c5613fe0565b60200101907effffffffffffffffffffffffffffffffffffffffffffffffffffffffffffff1916908160001a90535060006132018460026140f2565b61320c906001613fc8565b90505b60018111156132c7577f303132333435363738396162636465660000000000000000000000000000000085600f166010811061324d5761324d613fe0565b1a7f01000000000000000000000000000000000000000000000000000000000000000282828151811061328257613282613fe0565b60200101907effffffffffffffffffffffffffffffffffffffffffffffffffffffffffffff1916908160001a9053506010909404936132c081614423565b905061320f565b5083156118d55760405160e560020a62461bcd02815260206004820181905260248201527f537472696e67733a20686578206c656e67746820696e73756666696369656e7460448201526064016109de565b6000818152600183016020526040812054801561340257600061333d600183613ff9565b855490915060009061335190600190613ff9565b90508181146133b657600086600001828154811061337157613371613fe0565b906000526020600020015490508087600001848154811061339457613394613fe0565b6000918252602080832090910192909255918252600188019052604090208390555b85548690806133c7576133c761443a565b60019003818190600052602060002001600090559055856001016000868152602001908152602001600020600090556001935050505061089d565b600091505061089d565b828054828255906000526020600020908101928215613459579160200282015b828111156134595782518051613449918491602090910190613465565b509160200191906001019061342c565b506110a59291506134e5565b82805461347190613f3a565b90600052602060002090601f01602090048101928261349357600085556134d9565b82601f106134ac57805160ff19168380011785556134d9565b828001600101855582156134d9579182015b828111156134d95782518255916020019190600101906134be565b506110a5929150613502565b808211156110a55760006134f98282613517565b506001016134e5565b5b808211156110a55760008155600101613503565b50805461352390613f3a565b6000825580601f10613533575050565b601f0160209004906000526020600020908101906118b99190613502565b60006020828403121561356357600080fd5b8135600160e060020a0319811681146118d557600080fd5b600160a060020a03811681146118b957600080fd5b6000602082840312156135a257600080fd5b81356118d58161357b565b60e060020a634e487b7102600052604160045260246000fd5b6040805190810167ffffffffffffffff811182821017156135e9576135e96135ad565b60405290565b604051601f8201601f1916810167ffffffffffffffff81118282101715613618576136186135ad565b604052919050565b600067ffffffffffffffff82111561363a5761363a6135ad565b50601f01601f191660200190565b600082601f83011261365957600080fd5b813561366c61366782613620565b6135ef565b81815284602083860101111561368157600080fd5b816020850160208301376000918101602001919091529392505050565b600080604083850312156136b157600080fd5b82359150602083013567ffffffffffffffff8111156136cf57600080fd5b6136db85828601613648565b9150509250929050565b600080604083850312156136f857600080fd5b50508035926020909101359150565b60005b8381101561372257818101518382015260200161370a565b83811115610e925750506000910152565b6000815180845261374b816020860160208601613707565b601f01601f19169290920160200192915050565b6020815260006118d56020830184613733565b600067ffffffffffffffff82111561378c5761378c6135ad565b5060209081020190565b600082601f8301126137a757600080fd5b813560206137b761366783613772565b828152918102840181019181810190868411156137d357600080fd5b8286015b8481101561381357803567ffffffffffffffff8111156137f75760008081fd5b6138058986838b0101613648565b8452509183019183016137d7565b509695505050505050565b600082601f83011261382f57600080fd5b8135602061383f61366783613772565b8281529181028401810191818101908684111561385b57600080fd5b8286015b84811015613813578035835291830191830161385f565b600080600080600060a0868803121561388e57600080fd5b85359450602086013567ffffffffffffffff808211156138ad57600080fd5b6138b989838a01613796565b955060408801359150808211156138cf57600080fd5b6138db89838a0161381e565b945060608801359150808211156138f157600080fd5b6138fd89838a01613796565b9350608088013591508082111561391357600080fd5b506139208882890161381e565b9150509295509295909350565b600060208083018184528085518083526040860191506040848202870101925083870160005b8281101561398157603f1988860301845261396f858351613733565b94509285019290850190600101613953565b5092979650505050505050565b6000602082840312156139a057600080fd5b5035919050565b600082601f8301126139b857600080fd5b813560206139c861366783613772565b828152918102840181019181810190868411156139e457600080fd5b8286015b848110156138135780356139fb8161357b565b83529183019183016139e8565b60008060008060808587031215613a1e57600080fd5b84359350602085013567ffffffffffffffff80821115613a3d57600080fd5b613a49888389016139a7565b94506040870135915080821115613a5f57600080fd5b50613a6c8782880161381e565b949793965093946060013593505050565b600080600060608486031215613a9257600080fd5b833567ffffffffffffffff80821115613aaa57600080fd5b613ab6878388016139a7565b94506020860135915080821115613acc57600080fd5b50613ad986828701613796565b925050604084013590509250925092565b60008060408385031215613afd57600080fd5b823591506020830135613b0f8161357b565b809150509250929050565b803560068110613b2957600080fd5b919050565b60008060008060808587031215613b4457600080fd5b843567ffffffffffffffff80821115613b5c57600080fd5b613b6888838901613796565b95506020915081870135613b7b8161357b565b945060408701359350606087013581811115613b9657600080fd5b87019050601f81018813613ba957600080fd5b8035613bb761366782613772565b8181529083028201830190838101908a831115613bd357600080fd5b928401925b82841015613bf857613be984613b1a565b82529284019290840190613bd8565b979a9699509497505050505050565b600080600060608486031215613c1c57600080fd5b83359250602084013567ffffffffffffffff811115613c3a57600080fd5b613ad986828701613648565b600080600060608486031215613c5b57600080fd5b833592506020840135613c6d8161357b565b929592945050506040919091013590565b60008060408385031215613c9157600080fd5b8235613c9c8161357b565b91506020830135613b0f8161357b565b6020808252825182820181905260009190848201906040850190845b81811015613ce457835183529284019291840191600101613cc8565b50909695505050505050565b60008060008060808587031215613d0657600080fd5b8435613d118161357b565b93506020850135613d218161357b565b9250604085013567ffffffffffffffff80821115613d3e57600080fd5b613d4a888389016139a7565b93506060870135915080821115613d6057600080fd5b50613d6d87828801613796565b91505092959194509250565b60008060408385031215613d8c57600080fd5b8235915060208084013567ffffffffffffffff80821115613dac57600080fd5b818601915086601f830112613dc057600080fd5b8135613dce61366782613772565b81815290840283018401908481019089831115613dea57600080fd5b8585015b83811015613e79578481351115613e0457600080fd5b803586018b603f820112613e1757600080fd5b613e1f6135c6565b808d606084011115613e3057600080fd5b8983015b60608401811015613e69578881351115613e4d57600080fd5b613e5c8f8c8335870101613648565b8352918a01918a01613e34565b5085525050918601918601613dee565b508096505050505050509250929050565b600080600060608486031215613e9f57600080fd5b833567ffffffffffffffff811115613eb657600080fd5b613ec286828701613648565b935050613ed160208501613b1a565b9150604084013590509250925092565b600080600060608486031215613ef657600080fd5b833592506020840135613f088161357b565b9150604084013567ffffffffffffffff811115613f2457600080fd5b613f3086828701613648565b9150509250925092565b600281046001821680613f4e57607f821691505b60208210811415613f725760e060020a634e487b7102600052602260045260246000fd5b50919050565b60e060020a634e487b7102600052601160045260246000fd5b6000600019821415613fa557613fa5613f78565b5060010190565b60008251613fbe818460208701613707565b9190910192915050565b60008219821115613fdb57613fdb613f78565b500190565b60e060020a634e487b7102600052603260045260246000fd5b60008282101561400b5761400b613f78565b500390565b60208082526025908201527f616464726573736573202620616c696173657320646966666572656e74206c6560408201527f6e67746873000000000000000000000000000000000000000000000000000000606082015260800190565b600160a060020a03841681528260208201526060604082015260006122906060830184613733565b60208082526024908201527f47616d65204d6173746572206f7220466163746f727920726f6c65207265717560408201527f6972656400000000000000000000000000000000000000000000000000000000606082015260800190565b600081600019048311821515161561410c5761410c613f78565b500290565b6000602080838503121561412457600080fd5b825167ffffffffffffffff8082111561413c57600080fd5b818501915085601f83011261415057600080fd5b815161415e61366782613772565b8181529084028301840190848101908883111561417a57600080fd5b8585015b838110156141ee578051858111156141965760008081fd5b8601603f81018b136141a85760008081fd5b8781015160406141ba61366783613620565b8281528d828486010111156141cf5760008081fd5b6141de838c8301848701613707565b865250505091860191860161417e565b5098975050505050505050565b60006020828403121561420d57600080fd5b5051919050565b60006020828403121561422657600080fd5b815180151581146118d557600080fd5b6000600685106142595760e060020a634e487b7102600052602160045260246000fd5b848252836020830152606060408301526122906060830184613733565b600080835461428481613f3a565b6001828116801561429c57600181146142ad576142dc565b60ff198416875282870194506142dc565b8760005260208060002060005b858110156142d35781548a8201529084019082016142ba565b50505082870194505b50929695505050505050565b6000602082840312156142fa57600080fd5b81516118d58161357b565b600160a060020a0384168152600060208481840152606060408401526000845461432e81613f3a565b8060608701526080600180841660008114614350576001811461436457614392565b60ff1985168984015260a089019550614392565b896000528660002060005b8581101561438a5781548b820186015290830190880161436f565b8a0184019650505b50939a9950505050505050505050565b7f416363657373436f6e74726f6c3a206163636f756e74200000000000000000008152600083516143da816017850160208801613707565b7f206973206d697373696e6720726f6c65200000000000000000000000000000006017918401918201528351614417816028840160208801613707565b01602801949350505050565b60008161443257614432613f78565b506000190190565b60e060020a634e487b7102600052603160045260246000fdfe72b06b67826def9fabb513b23f7e5eb74f7ece26d25dad4006546ecf4a13763d1d93c87416ca7b54f0fb8323167b72760e8e2ec93d48660953897a150f97a8b4dfbefbf47cfe66b701d8cfdbce1de81c821590819cb07e71cb01b6602fb0ee27d017b644efdbb8827e313d7971462ef180dad8aa174c6fb8427f18caad304df780e2196015fc06a9d891759f8e4f51eb314ef5e9ea068528a8ed0063b87759f0a2646970667358221220276e0bfd89cb46b0c1601175e7230a1dfcb1c97c272ff9b9cb44dd83df0b503364736f6c634300080b0033",
  "immutableReferences": {},
  "source": "// SPDX-License-Identifier: GPL-3.0\npragma solidity >=0.7.0 <0.9.0;\n\nimport \"@luckymachines/game-core/contracts/src/v0.0/custom_boards/HexGrid.sol\";\nimport \"./HexplorationZone.sol\";\n\ncontract HexplorationBoard is HexGrid {\n    // This role is a hybrid controller, assumes on chain verification of moves before submission\n\n    uint256 private _randomness;\n\n    HexplorationZone internal HEX_ZONE;\n    // game ID => zone alias returns bool\n    mapping(uint256 => mapping(string => bool)) public zoneEnabled;\n\n    constructor(\n        address adminAddress,\n        uint256 gridWidth,\n        uint256 gridHeight,\n        address zoneAddress\n    ) HexGrid(adminAddress, gridWidth, gridHeight, zoneAddress) {\n        HEX_ZONE = HexplorationZone(zoneAddress);\n    }\n\n    // VERIFIED CONTROLLER functions\n    // We can assume these have been pre-verified\n\n    function setRandomness(uint256 randomness)\n        external\n        onlyRole(VERIFIED_CONTROLLER_ROLE)\n    {\n        _randomness = randomness;\n    }\n\n    function enableZone(\n        string memory zoneAlias,\n        HexplorationZone.Tile tile,\n        uint256 gameID\n    ) public onlyRole(VERIFIED_CONTROLLER_ROLE) {\n        HEX_ZONE.setTile(tile, gameID, zoneAlias);\n        zoneEnabled[gameID][zoneAlias] = true;\n    }\n\n    // pass path and what tiles should be\n    function moveThroughPath(\n        string[] memory zonePath,\n        address playerAddress,\n        uint256 gameID,\n        HexplorationZone.Tile[] memory tiles\n    ) external onlyRole(VERIFIED_CONTROLLER_ROLE) {\n        HEX_ZONE.exitPlayer(playerAddress, gameID, zonePath[0]);\n        HEX_ZONE.enterPlayer(\n            playerAddress,\n            gameID,\n            zonePath[zonePath.length - 1]\n        );\n        for (uint256 i = 0; i < zonePath.length; i++) {\n            enableZone(zonePath[i], tiles[i], gameID);\n        }\n    }\n}\n",
  "sourcePath": "/Users/maxmeier/Developer/Lucky Machines/hexploration/contracts/HexplorationBoard.sol",
  "compiler": {
    "name": "solc",
    "version": "0.8.11+commit.d7f03943.Emscripten.clang"
  },
  "schemaVersion": "3.4.4",
  "updatedAt": "2022-05-13T05:16:03.146Z",
  "devdoc": {
    "kind": "dev",
    "methods": {
      "getRoleAdmin(bytes32)": {
        "details": "Returns the admin role that controls `role`. See {grantRole} and {revokeRole}. To change a role's admin, use {_setRoleAdmin}."
      },
      "getRoleMember(bytes32,uint256)": {
        "details": "Returns one of the accounts that have `role`. `index` must be a value between 0 and {getRoleMemberCount}, non-inclusive. Role bearers are not sorted in any particular way, and their ordering may change at any point. WARNING: When using {getRoleMember} and {getRoleMemberCount}, make sure you perform all queries on the same block. See the following https://forum.openzeppelin.com/t/iterating-over-elements-on-enumerableset-in-openzeppelin-contracts/2296[forum post] for more information."
      },
      "getRoleMemberCount(bytes32)": {
        "details": "Returns the number of accounts that have `role`. Can be used together with {getRoleMember} to enumerate all bearers of a role."
      },
      "grantRole(bytes32,address)": {
        "details": "Grants `role` to `account`. If `account` had not been already granted `role`, emits a {RoleGranted} event. Requirements: - the caller must have ``role``'s admin role."
      },
      "hasRole(bytes32,address)": {
        "details": "Returns `true` if `account` has been granted `role`."
      },
      "renounceRole(bytes32,address)": {
        "details": "Revokes `role` from the calling account. Roles are often managed via {grantRole} and {revokeRole}: this function's purpose is to provide a mechanism for accounts to lose their privileges if they are compromised (such as when a trusted device is misplaced). If the calling account had been revoked `role`, emits a {RoleRevoked} event. Requirements: - the caller must be `account`."
      },
      "revokeRole(bytes32,address)": {
        "details": "Revokes `role` from `account`. If `account` had been granted `role`, emits a {RoleRevoked} event. Requirements: - the caller must have ``role``'s admin role."
      },
      "supportsInterface(bytes4)": {
        "details": "See {IERC165-supportsInterface}."
      }
    },
    "version": 1
  },
  "userdoc": {
    "kind": "user",
    "methods": {},
    "version": 1
  }
}