{
  "contractName": "HexplorationController",
  "abi": [
    {
      "inputs": [
        {
          "internalType": "address",
          "name": "adminAddress",
          "type": "address"
        }
      ],
      "stateMutability": "nonpayable",
      "type": "constructor"
    },
    {
      "anonymous": false,
      "inputs": [
        {
          "indexed": true,
          "internalType": "bytes32",
          "name": "role",
          "type": "bytes32"
        },
        {
          "indexed": true,
          "internalType": "bytes32",
          "name": "previousAdminRole",
          "type": "bytes32"
        },
        {
          "indexed": true,
          "internalType": "bytes32",
          "name": "newAdminRole",
          "type": "bytes32"
        }
      ],
      "name": "RoleAdminChanged",
      "type": "event"
    },
    {
      "anonymous": false,
      "inputs": [
        {
          "indexed": true,
          "internalType": "bytes32",
          "name": "role",
          "type": "bytes32"
        },
        {
          "indexed": true,
          "internalType": "address",
          "name": "account",
          "type": "address"
        },
        {
          "indexed": true,
          "internalType": "address",
          "name": "sender",
          "type": "address"
        }
      ],
      "name": "RoleGranted",
      "type": "event"
    },
    {
      "anonymous": false,
      "inputs": [
        {
          "indexed": true,
          "internalType": "bytes32",
          "name": "role",
          "type": "bytes32"
        },
        {
          "indexed": true,
          "internalType": "address",
          "name": "account",
          "type": "address"
        },
        {
          "indexed": true,
          "internalType": "address",
          "name": "sender",
          "type": "address"
        }
      ],
      "name": "RoleRevoked",
      "type": "event"
    },
    {
      "inputs": [],
      "name": "DEFAULT_ADMIN_ROLE",
      "outputs": [
        {
          "internalType": "bytes32",
          "name": "",
          "type": "bytes32"
        }
      ],
      "stateMutability": "view",
      "type": "function"
    },
    {
      "inputs": [],
      "name": "KEEPER_ROLE",
      "outputs": [
        {
          "internalType": "bytes32",
          "name": "",
          "type": "bytes32"
        }
      ],
      "stateMutability": "view",
      "type": "function"
    },
    {
      "inputs": [
        {
          "internalType": "uint256",
          "name": "pathIndex",
          "type": "uint256"
        },
        {
          "internalType": "uint256",
          "name": "gameID",
          "type": "uint256"
        },
        {
          "internalType": "address",
          "name": "gameBoardAddress",
          "type": "address"
        }
      ],
      "name": "exitToPath",
      "outputs": [],
      "stateMutability": "nonpayable",
      "type": "function"
    },
    {
      "inputs": [
        {
          "internalType": "bytes32",
          "name": "role",
          "type": "bytes32"
        }
      ],
      "name": "getRoleAdmin",
      "outputs": [
        {
          "internalType": "bytes32",
          "name": "",
          "type": "bytes32"
        }
      ],
      "stateMutability": "view",
      "type": "function"
    },
    {
      "inputs": [
        {
          "internalType": "bytes32",
          "name": "role",
          "type": "bytes32"
        },
        {
          "internalType": "uint256",
          "name": "index",
          "type": "uint256"
        }
      ],
      "name": "getRoleMember",
      "outputs": [
        {
          "internalType": "address",
          "name": "",
          "type": "address"
        }
      ],
      "stateMutability": "view",
      "type": "function"
    },
    {
      "inputs": [
        {
          "internalType": "bytes32",
          "name": "role",
          "type": "bytes32"
        }
      ],
      "name": "getRoleMemberCount",
      "outputs": [
        {
          "internalType": "uint256",
          "name": "",
          "type": "uint256"
        }
      ],
      "stateMutability": "view",
      "type": "function"
    },
    {
      "inputs": [
        {
          "internalType": "bytes32",
          "name": "role",
          "type": "bytes32"
        },
        {
          "internalType": "address",
          "name": "account",
          "type": "address"
        }
      ],
      "name": "grantRole",
      "outputs": [],
      "stateMutability": "nonpayable",
      "type": "function"
    },
    {
      "inputs": [
        {
          "internalType": "bytes32",
          "name": "role",
          "type": "bytes32"
        },
        {
          "internalType": "address",
          "name": "account",
          "type": "address"
        }
      ],
      "name": "hasRole",
      "outputs": [
        {
          "internalType": "bool",
          "name": "",
          "type": "bool"
        }
      ],
      "stateMutability": "view",
      "type": "function"
    },
    {
      "inputs": [
        {
          "internalType": "bytes32",
          "name": "role",
          "type": "bytes32"
        },
        {
          "internalType": "address",
          "name": "account",
          "type": "address"
        }
      ],
      "name": "renounceRole",
      "outputs": [],
      "stateMutability": "nonpayable",
      "type": "function"
    },
    {
      "inputs": [
        {
          "internalType": "bytes32",
          "name": "role",
          "type": "bytes32"
        },
        {
          "internalType": "address",
          "name": "account",
          "type": "address"
        }
      ],
      "name": "revokeRole",
      "outputs": [],
      "stateMutability": "nonpayable",
      "type": "function"
    },
    {
      "inputs": [
        {
          "internalType": "bytes4",
          "name": "interfaceId",
          "type": "bytes4"
        }
      ],
      "name": "supportsInterface",
      "outputs": [
        {
          "internalType": "bool",
          "name": "",
          "type": "bool"
        }
      ],
      "stateMutability": "view",
      "type": "function"
    },
    {
      "inputs": [
        {
          "internalType": "address",
          "name": "keeperAddress",
          "type": "address"
        }
      ],
      "name": "addKeeper",
      "outputs": [],
      "stateMutability": "nonpayable",
      "type": "function"
    },
    {
      "inputs": [
        {
          "internalType": "string[]",
          "name": "zonePath",
          "type": "string[]"
        },
        {
          "internalType": "uint256",
          "name": "gameID",
          "type": "uint256"
        },
        {
          "internalType": "address",
          "name": "boardAddress",
          "type": "address"
        }
      ],
      "name": "moveThroughPath",
      "outputs": [],
      "stateMutability": "nonpayable",
      "type": "function"
    },
    {
      "inputs": [
        {
          "internalType": "string",
          "name": "zoneChoice",
          "type": "string"
        },
        {
          "internalType": "uint256",
          "name": "gameID",
          "type": "uint256"
        },
        {
          "internalType": "address",
          "name": "boardAddress",
          "type": "address"
        }
      ],
      "name": "chooseLandingSite",
      "outputs": [],
      "stateMutability": "nonpayable",
      "type": "function"
    }
  ],
  "bytecode": "0x60806040523480156200001157600080fd5b50604051620018ac380380620018ac833981016040819052620000349162000215565b806200004b60008264010000000062000053810204565b505062000247565b6200006882826401000000006200006c810204565b5050565b620000868282640100000000620009ec620000b382021704565b6000828152600160205260409020620000ae908264010000000062000a706200014f82021704565b505050565b620000c8828264010000000062000178810204565b6200006857600082815260208181526040808320600160a060020a03851684529091529020805460ff191660011790556200010b640100000000620001a1810204565b600160a060020a031681600160a060020a0316837f2f8788117e7eff1d82e926ec794901d17c78024a50270940304540a733656f0d60405160405180910390a45050565b60006200016f83600160a060020a038416640100000000620001a5810204565b90505b92915050565b600091825260208281526040808420600160a060020a0393909316845291905290205460ff1690565b3390565b6000620001bc8383640100000000620001fd810204565b620001f45750815460018181018455600084815260208082209093018490558454848252828601909352604090209190915562000172565b50600062000172565b60009081526001919091016020526040902054151590565b6000602082840312156200022857600080fd5b8151600160a060020a03811681146200024057600080fd5b9392505050565b61165580620002576000396000f3fe608060405234801561001057600080fd5b50600436106100ee5760003560e060020a900480637479c8fe11610090578063a217fddf1161006a578063a217fddf14610212578063ca15c8731461021a578063d547741f1461022d578063f3297df91461024057600080fd5b80637479c8fe146101c15780639010d07c146101d457806391d14854146101ff57600080fd5b8063364bc15a116100cc578063364bc15a1461016157806336568abe146101885780634032b72b1461019b5780634bde808c146101ae57600080fd5b806301ffc9a7146100f3578063248a9ca31461011b5780632f2ff15d1461014c575b600080fd5b610106610101366004610fea565b610253565b60405190151581526020015b60405180910390f35b61013e610129366004611014565b60009081526020819052604090206001015490565b604051908152602001610112565b61015f61015a366004611052565b610297565b005b61013e7ffc8737ab85eb45125971625a9ebdb75cc78e01d5c1fa80c4c6e5203f47bc4fab81565b61015f610196366004611052565b6102c1565b61015f6101a9366004611082565b610355565b61015f6101bc366004611159565b61038a565b61015f6101cf366004611235565b61061c565b6101e76101e236600461126e565b6106b3565b604051600160a060020a039091168152602001610112565b61010661020d366004611052565b6106d2565b61013e600081565b61013e610228366004611014565b6106fb565b61015f61023b366004611052565b610712565b61015f61024e366004611290565b610737565b6000600160e060020a031982167f5a05180f000000000000000000000000000000000000000000000000000000001480610291575061029182610a85565b92915050565b6000828152602081905260409020600101546102b281610aec565b6102bc8383610af9565b505050565b600160a060020a03811633146103475760405160e560020a62461bcd02815260206004820152602f60248201527f416363657373436f6e74726f6c3a2063616e206f6e6c792072656e6f756e636560448201527f20726f6c657320666f722073656c66000000000000000000000000000000000060648201526084015b60405180910390fd5b6103518282610b1b565b5050565b600061036081610aec565b6103517ffc8737ab85eb45125971625a9ebdb75cc78e01d5c1fa80c4c6e5203f47bc4fab83610297565b6000819050600081600160a060020a031663c06dea4e6040518163ffffffff1660e060020a028152600401602060405180830381865afa1580156103d2573d6000803e3d6000fd5b505050506040513d601f19601f820116820180604052508101906103f691906112e0565b6040517fb81f6e1800000000000000000000000000000000000000000000000000000000815260048101869052336024820152909150600160a060020a0382169063b81f6e1890604401602060405180830381865afa15801561045d573d6000803e3d6000fd5b505050506040513d601f19601f8201168201806040525081019061048191906112fd565b6104d05760405160e560020a62461bcd02815260206004820152601560248201527f706c61796572206e6f7420726567697374657265640000000000000000000000604482015260640161033e565b6000855167ffffffffffffffff8111156104ec576104ec61109f565b604051908082528060200260200182016040528015610515578160200160208202803683370190505b50905060005b86518110156105965780156105405780600114610539576004610543565b6002610543565b60015b8282815181106105555761055561131f565b6020026020010190600581111561056e5761056e611338565b9081600581111561058157610581611338565b9052508061058e8161136a565b91505061051b565b506040517f31e019f6000000000000000000000000000000000000000000000000000000008152600160a060020a038516906331e019f6906105e290899033908a908790600401611402565b600060405180830381600087803b1580156105fc57600080fd5b505af1158015610610573d6000803e3d6000fd5b50505050505050505050565b6040517f9eb356cb0000000000000000000000000000000000000000000000000000000081526004810183905233602482015260448101849052600160a060020a03821690639eb356cb906064016020604051808303816000875af1158015610689573d6000803e3d6000fd5b505050506040513d601f19601f820116820180604052508101906106ad91906112fd565b50505050565b60008281526001602052604081206106cb9083610b3d565b9392505050565b600091825260208281526040808420600160a060020a0393909316845291905290205460ff1690565b600081815260016020526040812061029190610b49565b60008281526020819052604090206001015461072d81610aec565b6102bc8383610b1b565b6000819050600081600160a060020a031663c06dea4e6040518163ffffffff1660e060020a028152600401602060405180830381865afa15801561077f573d6000803e3d6000fd5b505050506040513d601f19601f820116820180604052508101906107a391906112e0565b6040517fb81f6e1800000000000000000000000000000000000000000000000000000000815260048101869052336024820152909150600160a060020a0382169063b81f6e1890604401602060405180830381865afa15801561080a573d6000803e3d6000fd5b505050506040513d601f19601f8201168201806040525081019061082e91906112fd565b61087d5760405160e560020a62461bcd02815260206004820152601560248201527f706c61796572206e6f7420726567697374657265640000000000000000000000604482015260640161033e565b6040517ff8430708000000000000000000000000000000000000000000000000000000008152600160a060020a0383169063f8430708906108c790889060059089906004016114bb565b600060405180830381600087803b1580156108e157600080fd5b505af11580156108f5573d6000803e3d6000fd5b50506040517f9f82bcc0000000000000000000000000000000000000000000000000000000008152600160a060020a0385169250639f82bcc0915061094090889088906004016114eb565b600060405180830381600087803b15801561095a57600080fd5b505af115801561096e573d6000803e3d6000fd5b50506040517f95805dad00000000000000000000000000000000000000000000000000000000815260048101879052600160a060020a03851692506395805dad9150602401600060405180830381600087803b1580156109cd57600080fd5b505af11580156109e1573d6000803e3d6000fd5b505050505050505050565b6109f682826106d2565b61035157600082815260208181526040808320600160a060020a03851684529091529020805460ff19166001179055610a2c3390565b600160a060020a031681600160a060020a0316837f2f8788117e7eff1d82e926ec794901d17c78024a50270940304540a733656f0d60405160405180910390a45050565b60006106cb83600160a060020a038416610b53565b6000600160e060020a031982167f7965db0b00000000000000000000000000000000000000000000000000000000148061029157507f01ffc9a700000000000000000000000000000000000000000000000000000000600160e060020a0319831614610291565b610af68133610ba2565b50565b610b0382826109ec565b60008281526001602052604090206102bc9082610a70565b610b258282610c09565b60008281526001602052604090206102bc9082610c6e565b60006106cb8383610c83565b6000610291825490565b6000818152600183016020526040812054610b9a57508154600181810184556000848152602080822090930184905584548482528286019093526040902091909155610291565b506000610291565b610bac82826106d2565b61035157610bc481600160a060020a03166014610cad565b610bcf836020610cad565b604051602001610be092919061150d565b60408051601f198184030181529082905260e560020a62461bcd02825261033e9160040161158e565b610c1382826106d2565b1561035157600082815260208181526040808320600160a060020a0385168085529252808320805460ff1916905551339285917ff6391f5c32d9c69d2a47ea670b442974b53935d1edc7fd64eb21e047a839171b9190a45050565b60006106cb83600160a060020a038416610ef7565b6000826000018281548110610c9a57610c9a61131f565b9060005260206000200154905092915050565b60606000610cbc8360026115a1565b610cc79060026115c0565b67ffffffffffffffff811115610cdf57610cdf61109f565b6040519080825280601f01601f191660200182016040528015610d09576020820181803683370190505b5090507f300000000000000000000000000000000000000000000000000000000000000081600081518110610d4057610d4061131f565b60200101907effffffffffffffffffffffffffffffffffffffffffffffffffffffffffffff1916908160001a9053507f780000000000000000000000000000000000000000000000000000000000000081600181518110610da357610da361131f565b60200101907effffffffffffffffffffffffffffffffffffffffffffffffffffffffffffff1916908160001a9053506000610ddf8460026115a1565b610dea9060016115c0565b90505b6001811115610ea5577f303132333435363738396162636465660000000000000000000000000000000085600f1660108110610e2b57610e2b61131f565b1a7f010000000000000000000000000000000000000000000000000000000000000002828281518110610e6057610e6061131f565b60200101907effffffffffffffffffffffffffffffffffffffffffffffffffffffffffffff1916908160001a905350601090940493610e9e816115d8565b9050610ded565b5083156106cb5760405160e560020a62461bcd02815260206004820181905260248201527f537472696e67733a20686578206c656e67746820696e73756666696369656e74604482015260640161033e565b60008181526001830160205260408120548015610fe0576000610f1b6001836115ef565b8554909150600090610f2f906001906115ef565b9050818114610f94576000866000018281548110610f4f57610f4f61131f565b9060005260206000200154905080876000018481548110610f7257610f7261131f565b6000918252602080832090910192909255918252600188019052604090208390555b8554869080610fa557610fa5611606565b600190038181906000526020600020016000905590558560010160008681526020019081526020016000206000905560019350505050610291565b6000915050610291565b600060208284031215610ffc57600080fd5b8135600160e060020a0319811681146106cb57600080fd5b60006020828403121561102657600080fd5b5035919050565b600160a060020a0381168114610af657600080fd5b803561104d8161102d565b919050565b6000806040838503121561106557600080fd5b8235915060208301356110778161102d565b809150509250929050565b60006020828403121561109457600080fd5b81356106cb8161102d565b60e060020a634e487b7102600052604160045260246000fd5b604051601f8201601f1916810167ffffffffffffffff811182821017156110e1576110e161109f565b604052919050565b600082601f8301126110fa57600080fd5b813567ffffffffffffffff8111156111145761111461109f565b611127601f8201601f19166020016110b8565b81815284602083860101111561113c57600080fd5b816020850160208301376000918101602001919091529392505050565b60008060006060848603121561116e57600080fd5b833567ffffffffffffffff8082111561118657600080fd5b818601915086601f83011261119a57600080fd5b81356020828211156111ae576111ae61109f565b8082026111bc8282016110b8565b928352848101820192828101908b8511156111d657600080fd5b83870192505b84831015611212578235868111156111f45760008081fd5b6112028d86838b01016110e9565b83525091830191908301906111dc565b98505050870135945061122c925050604086019050611042565b90509250925092565b60008060006060848603121561124a57600080fd5b833592506020840135915060408401356112638161102d565b809150509250925092565b6000806040838503121561128157600080fd5b50508035926020909101359150565b6000806000606084860312156112a557600080fd5b833567ffffffffffffffff8111156112bc57600080fd5b6112c8868287016110e9565b9350506020840135915060408401356112638161102d565b6000602082840312156112f257600080fd5b81516106cb8161102d565b60006020828403121561130f57600080fd5b815180151581146106cb57600080fd5b60e060020a634e487b7102600052603260045260246000fd5b60e060020a634e487b7102600052602160045260246000fd5b60e060020a634e487b7102600052601160045260246000fd5b600060001982141561137e5761137e611351565b5060010190565b60005b838110156113a0578181015183820152602001611388565b838111156106ad5750506000910152565b600081518084526113c9816020860160208601611385565b601f01601f19169290920160200192915050565b600681106113fe5760e060020a634e487b7102600052602160045260246000fd5b9052565b6000608082016080835280875180835260a0850191506020925060a0838202860101838a0160005b8381101561145857609f198884030185526114468383516113b1565b9486019492509085019060010161142a565b5050600160a060020a0389168685015260408601889052858103606087015286518082529084019250905085830160005b828110156114ac5761149c8483516113dd565b9284019290840190600101611489565b50919998505050505050505050565b6060815260006114ce60608301866113b1565b90506114dd60208301856113dd565b826040830152949350505050565b6040815260006114fe60408301856113b1565b90508260208301529392505050565b7f416363657373436f6e74726f6c3a206163636f756e7420000000000000000000815260008351611545816017850160208801611385565b7f206973206d697373696e6720726f6c65200000000000000000000000000000006017918401918201528351611582816028840160208801611385565b01602801949350505050565b6020815260006106cb60208301846113b1565b60008160001904831182151516156115bb576115bb611351565b500290565b600082198211156115d3576115d3611351565b500190565b6000816115e7576115e7611351565b506000190190565b60008282101561160157611601611351565b500390565b60e060020a634e487b7102600052603160045260246000fdfea26469706673582212207f4fb0095933f3f9c70784c22e0916e53bcbcb9a40294bfbfaf7d95fa08801ec64736f6c634300080b0033",
  "immutableReferences": {},
  "source": "// SPDX-License-Identifier: GPL-3.0\npragma solidity >=0.7.0 <0.9.0;\n\nimport \"@luckymachines/game-core/contracts/src/v0.0/GameController.sol\";\nimport \"./HexplorationBoard.sol\";\nimport \"./HexplorationZone.sol\";\n\ncontract HexplorationController is GameController {\n    // functions are meant to be called directly by players by default\n    // we are adding the ability of a Controller Admin or Keeper to\n    // execute the game aspects not directly controlled by players\n    bytes32 public constant KEEPER_ROLE = keccak256(\"KEEPER_ROLE\");\n\n    // TODO:\n    // Connect to Chainlink VRF for random seeds when needed\n    // submit move + space choice\n    // use / swap item\n\n    modifier onlyAdminKeeper() {\n        require(\n            hasRole(DEFAULT_ADMIN_ROLE, _msgSender()) ||\n                hasRole(KEEPER_ROLE, _msgSender()),\n            \"Admin or Keeper role required\"\n        );\n        _;\n    }\n\n    constructor(address adminAddress) GameController(adminAddress) {}\n\n    function addKeeper(address keeperAddress)\n        public\n        onlyRole(DEFAULT_ADMIN_ROLE)\n    {\n        grantRole(KEEPER_ROLE, keeperAddress);\n    }\n\n    // Admin or Keeper Interactions\n\n    //Player Interactions\n    function moveThroughPath(\n        string[] memory zonePath,\n        uint256 gameID,\n        address boardAddress\n    ) public {\n        // TODO:\n        // verify move is valid\n        // pick tiles from deck\n        HexplorationBoard board = HexplorationBoard(boardAddress);\n        PlayerRegistry pr = PlayerRegistry(board.prAddress());\n        require(pr.isRegistered(gameID, msg.sender), \"player not registered\");\n\n        HexplorationZone.Tile[] memory tiles = new HexplorationZone.Tile[](\n            zonePath.length\n        );\n        for (uint256 i = 0; i < zonePath.length; i++) {\n            tiles[i] = i == 0 ? HexplorationZone.Tile.Jungle : i == 1\n                ? HexplorationZone.Tile.Plains\n                : HexplorationZone.Tile.Mountain;\n        }\n\n        HexplorationBoard(boardAddress).moveThroughPath(\n            zonePath,\n            msg.sender,\n            gameID,\n            tiles\n        );\n    }\n\n    function chooseLandingSite(\n        string memory zoneChoice,\n        uint256 gameID,\n        address boardAddress\n    ) public {\n        // TODO: decide if this is done by a leader or automatically\n        // game will begin and registration locked after this...\n        HexplorationBoard board = HexplorationBoard(boardAddress);\n        PlayerRegistry pr = PlayerRegistry(board.prAddress());\n        require(pr.isRegistered(gameID, msg.sender), \"player not registered\");\n\n        board.enableZone(zoneChoice, HexplorationZone.Tile.LandingSite, gameID);\n        // set landing site at space on board\n        board.setInitialPlayZone(zoneChoice, gameID);\n        board.start(gameID);\n        // run loop to continue startup process\n    }\n}\n",
  "sourcePath": "/Users/maxmeier/Developer/Lucky Machines/hexploration/contracts/HexplorationController.sol",
  "compiler": {
    "name": "solc",
    "version": "0.8.11+commit.d7f03943.Emscripten.clang"
  },
  "schemaVersion": "3.4.4",
  "updatedAt": "2022-05-13T16:44:03.660Z",
  "devdoc": {
    "kind": "dev",
    "methods": {
      "getRoleAdmin(bytes32)": {
        "details": "Returns the admin role that controls `role`. See {grantRole} and {revokeRole}. To change a role's admin, use {_setRoleAdmin}."
      },
      "getRoleMember(bytes32,uint256)": {
        "details": "Returns one of the accounts that have `role`. `index` must be a value between 0 and {getRoleMemberCount}, non-inclusive. Role bearers are not sorted in any particular way, and their ordering may change at any point. WARNING: When using {getRoleMember} and {getRoleMemberCount}, make sure you perform all queries on the same block. See the following https://forum.openzeppelin.com/t/iterating-over-elements-on-enumerableset-in-openzeppelin-contracts/2296[forum post] for more information."
      },
      "getRoleMemberCount(bytes32)": {
        "details": "Returns the number of accounts that have `role`. Can be used together with {getRoleMember} to enumerate all bearers of a role."
      },
      "grantRole(bytes32,address)": {
        "details": "Grants `role` to `account`. If `account` had not been already granted `role`, emits a {RoleGranted} event. Requirements: - the caller must have ``role``'s admin role."
      },
      "hasRole(bytes32,address)": {
        "details": "Returns `true` if `account` has been granted `role`."
      },
      "renounceRole(bytes32,address)": {
        "details": "Revokes `role` from the calling account. Roles are often managed via {grantRole} and {revokeRole}: this function's purpose is to provide a mechanism for accounts to lose their privileges if they are compromised (such as when a trusted device is misplaced). If the calling account had been revoked `role`, emits a {RoleRevoked} event. Requirements: - the caller must be `account`."
      },
      "revokeRole(bytes32,address)": {
        "details": "Revokes `role` from `account`. If `account` had been granted `role`, emits a {RoleRevoked} event. Requirements: - the caller must have ``role``'s admin role."
      },
      "supportsInterface(bytes4)": {
        "details": "See {IERC165-supportsInterface}."
      }
    },
    "version": 1
  },
  "userdoc": {
    "kind": "user",
    "methods": {},
    "version": 1
  }
}