{
  "contractName": "HexplorationStateUpdate",
  "abi": [
    {
      "inputs": [
        {
          "internalType": "address",
          "name": "gameBoardAddress",
          "type": "address"
        },
        {
          "internalType": "address",
          "name": "characterCardAddress",
          "type": "address"
        }
      ],
      "stateMutability": "nonpayable",
      "type": "constructor"
    },
    {
      "anonymous": false,
      "inputs": [
        {
          "indexed": true,
          "internalType": "bytes32",
          "name": "role",
          "type": "bytes32"
        },
        {
          "indexed": true,
          "internalType": "bytes32",
          "name": "previousAdminRole",
          "type": "bytes32"
        },
        {
          "indexed": true,
          "internalType": "bytes32",
          "name": "newAdminRole",
          "type": "bytes32"
        }
      ],
      "name": "RoleAdminChanged",
      "type": "event"
    },
    {
      "anonymous": false,
      "inputs": [
        {
          "indexed": true,
          "internalType": "bytes32",
          "name": "role",
          "type": "bytes32"
        },
        {
          "indexed": true,
          "internalType": "address",
          "name": "account",
          "type": "address"
        },
        {
          "indexed": true,
          "internalType": "address",
          "name": "sender",
          "type": "address"
        }
      ],
      "name": "RoleGranted",
      "type": "event"
    },
    {
      "anonymous": false,
      "inputs": [
        {
          "indexed": true,
          "internalType": "bytes32",
          "name": "role",
          "type": "bytes32"
        },
        {
          "indexed": true,
          "internalType": "address",
          "name": "account",
          "type": "address"
        },
        {
          "indexed": true,
          "internalType": "address",
          "name": "sender",
          "type": "address"
        }
      ],
      "name": "RoleRevoked",
      "type": "event"
    },
    {
      "inputs": [],
      "name": "DEFAULT_ADMIN_ROLE",
      "outputs": [
        {
          "internalType": "bytes32",
          "name": "",
          "type": "bytes32"
        }
      ],
      "stateMutability": "view",
      "type": "function"
    },
    {
      "inputs": [],
      "name": "VERIFIED_CONTROLLER_ROLE",
      "outputs": [
        {
          "internalType": "bytes32",
          "name": "",
          "type": "bytes32"
        }
      ],
      "stateMutability": "view",
      "type": "function"
    },
    {
      "inputs": [
        {
          "internalType": "bytes32",
          "name": "role",
          "type": "bytes32"
        }
      ],
      "name": "getRoleAdmin",
      "outputs": [
        {
          "internalType": "bytes32",
          "name": "",
          "type": "bytes32"
        }
      ],
      "stateMutability": "view",
      "type": "function"
    },
    {
      "inputs": [
        {
          "internalType": "bytes32",
          "name": "role",
          "type": "bytes32"
        },
        {
          "internalType": "uint256",
          "name": "index",
          "type": "uint256"
        }
      ],
      "name": "getRoleMember",
      "outputs": [
        {
          "internalType": "address",
          "name": "",
          "type": "address"
        }
      ],
      "stateMutability": "view",
      "type": "function"
    },
    {
      "inputs": [
        {
          "internalType": "bytes32",
          "name": "role",
          "type": "bytes32"
        }
      ],
      "name": "getRoleMemberCount",
      "outputs": [
        {
          "internalType": "uint256",
          "name": "",
          "type": "uint256"
        }
      ],
      "stateMutability": "view",
      "type": "function"
    },
    {
      "inputs": [
        {
          "internalType": "bytes32",
          "name": "role",
          "type": "bytes32"
        },
        {
          "internalType": "address",
          "name": "account",
          "type": "address"
        }
      ],
      "name": "grantRole",
      "outputs": [],
      "stateMutability": "nonpayable",
      "type": "function"
    },
    {
      "inputs": [
        {
          "internalType": "bytes32",
          "name": "role",
          "type": "bytes32"
        },
        {
          "internalType": "address",
          "name": "account",
          "type": "address"
        }
      ],
      "name": "hasRole",
      "outputs": [
        {
          "internalType": "bool",
          "name": "",
          "type": "bool"
        }
      ],
      "stateMutability": "view",
      "type": "function"
    },
    {
      "inputs": [
        {
          "internalType": "bytes32",
          "name": "role",
          "type": "bytes32"
        },
        {
          "internalType": "address",
          "name": "account",
          "type": "address"
        }
      ],
      "name": "renounceRole",
      "outputs": [],
      "stateMutability": "nonpayable",
      "type": "function"
    },
    {
      "inputs": [
        {
          "internalType": "bytes32",
          "name": "role",
          "type": "bytes32"
        },
        {
          "internalType": "address",
          "name": "account",
          "type": "address"
        }
      ],
      "name": "revokeRole",
      "outputs": [],
      "stateMutability": "nonpayable",
      "type": "function"
    },
    {
      "inputs": [
        {
          "internalType": "bytes4",
          "name": "interfaceId",
          "type": "bytes4"
        }
      ],
      "name": "supportsInterface",
      "outputs": [
        {
          "internalType": "bool",
          "name": "",
          "type": "bool"
        }
      ],
      "stateMutability": "view",
      "type": "function"
    },
    {
      "inputs": [
        {
          "internalType": "address",
          "name": "vcAddress",
          "type": "address"
        }
      ],
      "name": "addVerifiedController",
      "outputs": [],
      "stateMutability": "nonpayable",
      "type": "function"
    },
    {
      "inputs": [
        {
          "components": [
            {
              "internalType": "uint256[]",
              "name": "playerPositionIDs",
              "type": "uint256[]"
            },
            {
              "internalType": "uint256[]",
              "name": "spacesToMove",
              "type": "uint256[]"
            },
            {
              "internalType": "uint256[]",
              "name": "playerEquipIDs",
              "type": "uint256[]"
            },
            {
              "internalType": "uint256[]",
              "name": "playerEquipHands",
              "type": "uint256[]"
            },
            {
              "internalType": "uint256[]",
              "name": "zoneTransfersTo",
              "type": "uint256[]"
            },
            {
              "internalType": "uint256[]",
              "name": "zoneTransfersFrom",
              "type": "uint256[]"
            },
            {
              "internalType": "uint256[]",
              "name": "zoneTransferQtys",
              "type": "uint256[]"
            },
            {
              "internalType": "uint256[]",
              "name": "playerTransfersTo",
              "type": "uint256[]"
            },
            {
              "internalType": "uint256[]",
              "name": "playerTransfersFrom",
              "type": "uint256[]"
            },
            {
              "internalType": "uint256[]",
              "name": "playerTransferQtys",
              "type": "uint256[]"
            },
            {
              "internalType": "uint256[]",
              "name": "playerStatUpdateIDs",
              "type": "uint256[]"
            },
            {
              "internalType": "int8[3][]",
              "name": "playerStatUpdates",
              "type": "int8[3][]"
            },
            {
              "internalType": "uint256[]",
              "name": "playerActiveActionIDs",
              "type": "uint256[]"
            },
            {
              "internalType": "string",
              "name": "gamePhase",
              "type": "string"
            },
            {
              "internalType": "string[7][]",
              "name": "playerMovementOptions",
              "type": "string[7][]"
            },
            {
              "internalType": "string[]",
              "name": "playerEquips",
              "type": "string[]"
            },
            {
              "internalType": "string[]",
              "name": "zoneTransferItemTypes",
              "type": "string[]"
            },
            {
              "internalType": "string[]",
              "name": "playerTransferItemTypes",
              "type": "string[]"
            },
            {
              "internalType": "string[]",
              "name": "activeActions",
              "type": "string[]"
            },
            {
              "internalType": "string[]",
              "name": "activeActionOptions",
              "type": "string[]"
            },
            {
              "internalType": "uint256[]",
              "name": "activeActionResults",
              "type": "uint256[]"
            },
            {
              "internalType": "string[2][]",
              "name": "activeActionResultCard",
              "type": "string[2][]"
            },
            {
              "internalType": "string[3][]",
              "name": "activeActionInventoryChanges",
              "type": "string[3][]"
            },
            {
              "internalType": "uint256",
              "name": "randomness",
              "type": "uint256"
            }
          ],
          "internalType": "struct HexplorationGameplay.PlayUpdates",
          "name": "updates",
          "type": "tuple"
        },
        {
          "internalType": "uint256",
          "name": "gameID",
          "type": "uint256"
        }
      ],
      "name": "postUpdates",
      "outputs": [],
      "stateMutability": "nonpayable",
      "type": "function"
    },
    {
      "inputs": [
        {
          "internalType": "string[]",
          "name": "zonePath",
          "type": "string[]"
        },
        {
          "internalType": "uint256",
          "name": "gameID",
          "type": "uint256"
        },
        {
          "internalType": "uint256",
          "name": "playerID",
          "type": "uint256"
        },
        {
          "internalType": "uint256",
          "name": "randomness",
          "type": "uint256"
        }
      ],
      "name": "moveThroughPath",
      "outputs": [],
      "stateMutability": "nonpayable",
      "type": "function"
    }
  ],
  "bytecode": "0x60806040523480156200001157600080fd5b506040516200301a3803806200301a83398101604081905262000034916200026d565b6200005c60006200004d6401000000006200008e810204565b64010000000062000092810204565b60028054600160a060020a03938416600160a060020a03199182161790915560038054929093169116179055620002a5565b3390565b620000a78282640100000000620000ab810204565b5050565b620000c58282640100000000620005d1620000f282021704565b6000828152600160205260409020620000ed9082640100000000620006556200018e82021704565b505050565b620001078282640100000000620001b7810204565b620000a757600082815260208181526040808320600160a060020a03851684529091529020805460ff191660011790556200014a6401000000006200008e810204565b600160a060020a031681600160a060020a0316837f2f8788117e7eff1d82e926ec794901d17c78024a50270940304540a733656f0d60405160405180910390a45050565b6000620001ae83600160a060020a038416640100000000620001e0810204565b90505b92915050565b600091825260208281526040808420600160a060020a0393909316845291905290205460ff1690565b6000620001f7838364010000000062000238810204565b6200022f57508154600181810184556000848152602080822090930184905584548482528286019093526040902091909155620001b1565b506000620001b1565b60009081526001919091016020526040902054151590565b8051600160a060020a03811681146200026857600080fd5b919050565b600080604083850312156200028157600080fd5b6200028c8362000250565b91506200029c6020840162000250565b90509250929050565b612d6580620002b56000396000f3fe608060405234801561001057600080fd5b50600436106100c35760003560e060020a900480639010d07c116100805780639010d07c1461017157806391d148541461019c578063a217fddf146101af578063ca15c873146101b7578063d4f5b152146101ca578063d547741f146101dd578063fc96c533146101f057600080fd5b806301ffc9a7146100c85780631c834a7f146100f0578063248a9ca3146101135780632f2ff15d1461013657806336568abe1461014b57806380bb32d91461015e575b600080fd5b6100db6100d6366004611c61565b610203565b60405190151581526020015b60405180910390f35b610105600080516020612d1083398151915281565b6040519081526020016100e7565b610105610121366004611c8b565b60009081526020819052604090206001015490565b610149610144366004611cb9565b610247565b005b610149610159366004611cb9565b610271565b61014961016c366004611eaa565b610305565b61018461017f366004611efe565b6104d6565b604051600160a060020a0390911681526020016100e7565b6100db6101aa366004611cb9565b6104f5565b610105600081565b6101056101c5366004611c8b565b61051e565b6101496101d8366004611f20565b610535565b6101496101eb366004611cb9565b610558565b6101496101fe366004612348565b61057d565b6000600160e060020a031982167f5a05180f00000000000000000000000000000000000000000000000000000000148061024157506102418261066a565b92915050565b600082815260208190526040902060010154610262816106d1565b61026c83836106de565b505050565b600160a060020a03811633146102f75760405160e560020a62461bcd02815260206004820152602f60248201527f416363657373436f6e74726f6c3a2063616e206f6e6c792072656e6f756e636560448201527f20726f6c657320666f722073656c66000000000000000000000000000000000060648201526084015b60405180910390fd5b6103018282610700565b5050565b600080516020612d1083398151915261031d816106d1565b6000855167ffffffffffffffff81111561033957610339611ce9565b604051908082528060200260200182016040528015610362578160200160208202803683370190505b5090506000865167ffffffffffffffff81111561038157610381611ce9565b6040519080825280602002602001820160405280156103aa578160200160208202803683370190505b50905083816000815181106103c1576103c1612703565b60200260200101818152505060005b875181101561044b5780156103f557806001146103ee5760046103f8565b60026103f8565b60015b83828151811061040a5761040a612703565b6020026020010190600b8111156104235761042361271c565b9081600b8111156104365761043661271c565b905250806104438161274e565b9150506103d0565b506002546040517f235232d0000000000000000000000000000000000000000000000000000000008152600160a060020a039091169063235232d09061049b908a9089908b9088906004016127c1565b600060405180830381600087803b1580156104b557600080fd5b505af11580156104c9573d6000803e3d6000fd5b5050505050505050505050565b60008281526001602052604081206104ee9083610722565b9392505050565b600091825260208281526040808420600160a060020a0393909316845291905290205460ff1690565b60008181526001602052604081206102419061072e565b6000610540816106d1565b610301600080516020612d1083398151915283610247565b600082815260208190526040902060010154610573816106d1565b61026c8383610700565b600080516020612d10833981519152610595816106d1565b61059f8383610738565b6105a9838361086c565b6105b38383610c5b565b6105bd8383610dff565b6105c78383610fdf565b61026c8383611393565b6105db82826104f5565b61030157600082815260208181526040808320600160a060020a03851684529091529020805460ff191660011790556106113390565b600160a060020a031681600160a060020a0316837f2f8788117e7eff1d82e926ec794901d17c78024a50270940304540a733656f0d60405160405180910390a45050565b60006104ee83600160a060020a0384166115f6565b6000600160e060020a031982167f7965db0b00000000000000000000000000000000000000000000000000000000148061024157507f01ffc9a700000000000000000000000000000000000000000000000000000000600160e060020a0319831614610241565b6106db8133611645565b50565b6106e882826105d1565b600082815260016020526040902061026c9082610655565b61070a82826116ac565b600082815260016020526040902061026c9082611711565b60006104ee8383611726565b6000610241825490565b60005b82515181101561026c5760008360200151828151811061075d5761075d612703565b6020026020010151905060008167ffffffffffffffff81111561078257610782611ce9565b6040519080825280602002602001820160405280156107b557816020015b60608152602001906001900390816107a05790505b50905060005b8281101561082857856101c0015184815181106107da576107da612703565b602002602001015181600781106107f3576107f3612703565b602002015182828151811061080a5761080a612703565b602002602001018190525080806108209061274e565b9150506107bb565b5061085781858760000151868151811061084457610844612703565b6020026020010151886102e00151610305565b505080806108649061274e565b91505061073b565b60005b8261014001515181101561026c576000836101400151828151811061089657610896612703565b60209081029190910101516003546040517fbb47c9b30000000000000000000000000000000000000000000000000000000081526004810186905260248101839052919250600091600160a060020a039091169063bb47c9b390604401606060405180830381865afa158015610910573d6000803e3d6000fd5b505050506040513d601f19601f82011682018060405250810190610934919061288c565b905061093e611c43565b6000866101600151858151811061095757610957612703565b602002602001015160006003811061097157610971612703565b602002015160000b126109c557856101600151848151811061099557610995612703565b60200260200101516000600381106109af576109af612703565b602002015182516109c091906128fc565b610a13565b610a138260006020020151610a0e88610160015187815181106109ea576109ea612703565b6020026020010151600060038110610a0457610a04612703565b6020020151611750565b61176f565b60ff16815261016086015180516000919086908110610a3457610a34612703565b6020026020010151600160038110610a4e57610a4e612703565b602002015160000b12610aa8578561016001518481518110610a7257610a72612703565b6020026020010151600160038110610a8c57610a8c612703565b60200201518260016020020151610aa391906128fc565b610ae7565b610ae78260016020020151610a0e8861016001518781518110610acd57610acd612703565b6020026020010151600160038110610a0457610a04612703565b60ff16602082015261016086015180516000919086908110610b0b57610b0b612703565b6020026020010151600260038110610b2557610b25612703565b602002015160000b12610b7c578561016001518481518110610b4957610b49612703565b6020026020010151600260038110610b6357610b63612703565b60200201516040830151610b7791906128fc565b610bbb565b610bbb8260026020020151610a0e8861016001518781518110610ba157610ba1612703565b6020026020010151600260038110610a0457610a04612703565b60ff1660408083019190915260035490517f45b8ace5000000000000000000000000000000000000000000000000000000008152600160a060020a03909116906345b8ace590610c1390849089908890600401612921565b600060405180830381600087803b158015610c2d57600080fd5b505af1158015610c41573d6000803e3d6000fd5b505050505050508080610c539061274e565b91505061086f565b60005b82604001515181101561026c57600083606001518281518110610c8357610c83612703565b602002602001015160001490508015610d43576003546101e08501518051600160a060020a039092169163a8953434919085908110610cc457610cc4612703565b60200260200101518587604001518681518110610ce357610ce3612703565b60200260200101516040518463ffffffff1660e060020a028152600401610d0c93929190612960565b600060405180830381600087803b158015610d2657600080fd5b505af1158015610d3a573d6000803e3d6000fd5b50505050610dec565b6003546101e08501518051600160a060020a0390921691635f2caa5e919085908110610d7157610d71612703565b60200260200101518587604001518681518110610d9057610d90612703565b60200260200101516040518463ffffffff1660e060020a028152600401610db993929190612960565b600060405180830381600087803b158015610dd357600080fd5b505af1158015610de7573d6000803e3d6000fd5b505050505b5080610df78161274e565b915050610c5e565b6002546040805160e160020a636651b4cb0281529051600092600160a060020a03169163cca369969160048083019260209291908290030181865afa158015610e4c573d6000803e3d6000fd5b505050506040513d601f19601f82011682018060405250810190610e709190612985565b905060005b8360e0015151811015610fd95781600160a060020a031663a318d45c6040518163ffffffff1660e060020a028152600401602060405180830381865afa158015610ec3573d6000803e3d6000fd5b505050506040513d601f19601f82011682018060405250810190610ee79190612985565b600160a060020a031663d82910478561022001518381518110610f0c57610f0c612703565b6020026020010151858761010001518581518110610f2c57610f2c612703565b60200260200101518860e001518681518110610f4a57610f4a612703565b60200260200101518961012001518781518110610f6957610f69612703565b60200260200101516040518663ffffffff1660e060020a028152600401610f949594939291906129a2565b600060405180830381600087803b158015610fae57600080fd5b505af1158015610fc2573d6000803e3d6000fd5b505050508080610fd19061274e565b915050610e75565b50505050565b6002546040805160e160020a636651b4cb0281529051600092600160a060020a03169163cca369969160048083019260209291908290030181865afa15801561102c573d6000803e3d6000fd5b505050506040513d601f19601f820116820180604052508101906110509190612985565b905060005b836080015151811015610fd95760008460800151828151811061107a5761107a612703565b60200260200101516402540be400146110b057846080015182815181106110a3576110a3612703565b60200260200101516110d7565b6110d7848660a0015184815181106110ca576110ca612703565b602002602001015161178f565b905060008560a0015183815181106110f1576110f1612703565b60200260200101516402540be40014611127578560a00151838151811061111a5761111a612703565b6020026020010151611141565b61114185876080015185815181106110ca576110ca612703565b905060008660c00151848151811061115b5761115b612703565b602002602001015190506000876102000151858151811061117e5761117e612703565b602002602001015190508760800151858151811061119e5761119e612703565b60200260200101516402540be40014156112845785600160a060020a031663a318d45c6040518163ffffffff1660e060020a028152600401602060405180830381865afa1580156111f3573d6000803e3d6000fd5b505050506040513d601f19601f820116820180604052508101906112179190612985565b600160a060020a031663bae8c20782898688876040518663ffffffff1660e060020a02815260040161124d9594939291906129a2565b600060405180830381600087803b15801561126757600080fd5b505af115801561127b573d6000803e3d6000fd5b5050505061137c565b8760a00151858151811061129a5761129a612703565b60200260200101516402540be400141561137c5785600160a060020a031663a318d45c6040518163ffffffff1660e060020a028152600401602060405180830381865afa1580156112ef573d6000803e3d6000fd5b505050506040513d601f19601f820116820180604052508101906113139190612985565b600160a060020a0316632ed3679182898688876040518663ffffffff1660e060020a0281526004016113499594939291906129a2565b600060405180830381600087803b15801561136357600080fd5b505af1158015611377573d6000803e3d6000fd5b505050505b50505050808061138b9061274e565b915050611055565b60005b8261024001515181101561026c57600083610280015182815181106113bd576113bd612703565b602002602001015190506060816001141561140c575060408051808201909152600581527f4576656e7400000000000000000000000000000000000000000000000000000060208201526114c8565b816002141561144f575060408051808201909152600681527f416d62757368000000000000000000000000000000000000000000000000000060208201526114c8565b8160031415611492575060408051808201909152600881527f547265617375726500000000000000000000000000000000000000000000000060208201526114c8565b5060408051808201909152600481527f4e6f6e650000000000000000000000000000000000000000000000000000000060208201525b6003546102a08601518051600160a060020a039092169163bba11b87918491879081106114f7576114f7612703565b602002602001015160006002811061151157611511612703565b6020020151886102a00151878151811061152d5761152d612703565b602002602001015160016002811061154757611547612703565b6020020151896102c00151888151811061156357611563612703565b6020026020010151898b61018001518a8151811061158357611583612703565b60200260200101516040518763ffffffff1660e060020a0281526004016115af969594939291906129d9565b600060405180830381600087803b1580156115c957600080fd5b505af11580156115dd573d6000803e3d6000fd5b50505050505080806115ee9061274e565b915050611396565b600081815260018301602052604081205461163d57508154600181810184556000848152602080822090930184905584548482528286019093526040902091909155610241565b506000610241565b61164f82826104f5565b6103015761166781600160a060020a0316601461194e565b61167283602061194e565b604051602001611683929190612a6e565b60408051601f198184030181529082905260e560020a62461bcd0282526102ee91600401612aef565b6116b682826104f5565b1561030157600082815260208181526040808320600160a060020a0385168085529252808320805460ff1916905551339285917ff6391f5c32d9c69d2a47ea670b442974b53935d1edc7fd64eb21e047a839171b9190a45050565b60006104ee83600160a060020a038416611b50565b600082600001828154811061173d5761173d612703565b9060005260206000200154905092915050565b6000808260000b121561176b5761176682612b02565b610241565b5090565b60008160ff168360ff16116117855760006104ee565b6104ee8284612b22565b6002546040517fd75e798000000000000000000000000000000000000000000000000000000000815260048101849052602481018390526000918291600160a060020a039091169063d75e798090604401600060405180830381865afa1580156117fd573d6000803e3d6000fd5b505050506040513d6000823e601f3d908101601f191682016040526118259190810190612b92565b90506000600260009054906101000a9004600160a060020a0316600160a060020a0316633ca61a586040518163ffffffff1660e060020a028152600401600060405180830381865afa15801561187f573d6000803e3d6000fd5b505050506040513d6000823e601f3d908101601f191682016040526118a79190810190612bc7565b9050650102b36211c7925060005b8151811015611945578181815181106118d0576118d0612703565b60200260200101516040516020016118e89190612c75565b604051602081830303815290604052805190602001208360405160200161190f9190612c75565b60405160208183030381529060405280519060200120141561193357809350611945565b8061193d8161274e565b9150506118b5565b50505092915050565b6060600061195d836002612c91565b611968906002612cb0565b67ffffffffffffffff81111561198057611980611ce9565b6040519080825280601f01601f1916602001820160405280156119aa576020820181803683370190505b5090507f3000000000000000000000000000000000000000000000000000000000000000816000815181106119e1576119e1612703565b6020010190600160f860020a031916908160001a9053507f780000000000000000000000000000000000000000000000000000000000000081600181518110611a2c57611a2c612703565b6020010190600160f860020a031916908160001a9053506000611a50846002612c91565b611a5b906001612cb0565b90505b6001811115611afe577f303132333435363738396162636465660000000000000000000000000000000085600f1660108110611a9c57611a9c612703565b1a7f010000000000000000000000000000000000000000000000000000000000000002828281518110611ad157611ad1612703565b6020010190600160f860020a031916908160001a905350601090940493611af781612cc8565b9050611a5e565b5083156104ee5760405160e560020a62461bcd02815260206004820181905260248201527f537472696e67733a20686578206c656e67746820696e73756666696369656e7460448201526064016102ee565b60008181526001830160205260408120548015611c39576000611b74600183612cdf565b8554909150600090611b8890600190612cdf565b9050818114611bed576000866000018281548110611ba857611ba8612703565b9060005260206000200154905080876000018481548110611bcb57611bcb612703565b6000918252602080832090910192909255918252600188019052604090208390555b8554869080611bfe57611bfe612cf6565b600190038181906000526020600020016000905590558560010160008681526020019081526020016000206000905560019350505050610241565b6000915050610241565b60405180606001604052806003906020820280368337509192915050565b600060208284031215611c7357600080fd5b8135600160e060020a0319811681146104ee57600080fd5b600060208284031215611c9d57600080fd5b5035919050565b600160a060020a03811681146106db57600080fd5b60008060408385031215611ccc57600080fd5b823591506020830135611cde81611ca4565b809150509250929050565b60e060020a634e487b7102600052604160045260246000fd5b604051610300810167ffffffffffffffff81118282101715611d2657611d26611ce9565b60405290565b6040516060810167ffffffffffffffff81118282101715611d2657611d26611ce9565b604051601f8201601f1916810167ffffffffffffffff81118282101715611d7857611d78611ce9565b604052919050565b600067ffffffffffffffff821115611d9a57611d9a611ce9565b5060209081020190565b600067ffffffffffffffff821115611dbe57611dbe611ce9565b50601f01601f191660200190565b600082601f830112611ddd57600080fd5b8135611df0611deb82611da4565b611d4f565b818152846020838601011115611e0557600080fd5b816020850160208301376000918101602001919091529392505050565b600082601f830112611e3357600080fd5b81356020611e43611deb83611d80565b82815291810284018101918181019086841115611e5f57600080fd5b8286015b84811015611e9f57803567ffffffffffffffff811115611e835760008081fd5b611e918986838b0101611dcc565b845250918301918301611e63565b509695505050505050565b60008060008060808587031215611ec057600080fd5b843567ffffffffffffffff811115611ed757600080fd5b611ee387828801611e22565b97602087013597506040870135966060013595509350505050565b60008060408385031215611f1157600080fd5b50508035926020909101359150565b600060208284031215611f3257600080fd5b81356104ee81611ca4565b600082601f830112611f4e57600080fd5b81356020611f5e611deb83611d80565b82815291810284018101918181019086841115611f7a57600080fd5b8286015b84811015611e9f5780358352918301918301611f7e565b6000601f8381840112611fa757600080fd5b82356020611fb7611deb83611d80565b82815260609283028601820192828201919088851115611fd657600080fd5b8388015b85811015612044578987820112611ff15760008081fd5b611ff9611d2c565b808383018c81111561200b5760008081fd5b835b81811015612034578035600081810b8214612026578081fd5b50845292880192880161200d565b5050855250928401928101611fda565b509098975050505050505050565b600060405160e0810167ffffffffffffffff828210818311171561207857612078611ce9565b8160405282935060e0850191508582111561209257600080fd5b845b828110156120c7578035828111156120ac5760008081fd5b6120b888828901611dcc565b85525060209384019301612094565b5050505092915050565b60006040516040810167ffffffffffffffff82821081831117156120f7576120f7611ce9565b816040528293506040850191508582111561211157600080fd5b845b828110156120c75780358281111561212b5760008081fd5b61213788828901611dcc565b85525060209384019301612113565b6000612150611d2c565b905080606083018481111561216457600080fd5b835b8181101561194557803567ffffffffffffffff8111156121865760008081fd5b61219287828801611dcc565b84525060209283019201612166565b600082601f8301126121b257600080fd5b813560206121c2611deb83611d80565b828152918102840181019181810190868411156121de57600080fd5b8286015b84811015611e9f57803567ffffffffffffffff8111156122025760008081fd5b8701603f810189136122145760008081fd5b61222089868301612052565b8452509183019183016121e2565b600082601f83011261223f57600080fd5b8135602061224f611deb83611d80565b8281529181028401810191818101908684111561226b57600080fd5b8286015b84811015611e9f57803567ffffffffffffffff81111561228f5760008081fd5b8701603f810189136122a15760008081fd5b6122ad898683016120d1565b84525091830191830161226f565b600082601f8301126122cc57600080fd5b813560206122dc611deb83611d80565b828152918102840181019181810190868411156122f857600080fd5b8286015b84811015611e9f57803567ffffffffffffffff81111561231c5760008081fd5b8701603f8101891361232e5760008081fd5b61233a89868301612146565b8452509183019183016122fc565b6000806040838503121561235b57600080fd5b823567ffffffffffffffff8082111561237357600080fd5b90840190610300828703121561238857600080fd5b612390611d02565b82358281111561239f57600080fd5b6123ab88828601611f3d565b8252506020830135828111156123c057600080fd5b6123cc88828601611f3d565b6020830152506040830135828111156123e457600080fd5b6123f088828601611f3d565b60408301525060608301358281111561240857600080fd5b61241488828601611f3d565b60608301525060808301358281111561242c57600080fd5b61243888828601611f3d565b60808301525060a08301358281111561245057600080fd5b61245c88828601611f3d565b60a08301525060c08301358281111561247457600080fd5b61248088828601611f3d565b60c08301525060e08301358281111561249857600080fd5b6124a488828601611f3d565b60e08301525061010080840135838111156124be57600080fd5b6124ca89828701611f3d565b82840152505061012080840135838111156124e457600080fd5b6124f089828701611f3d565b828401525050610140808401358381111561250a57600080fd5b61251689828701611f3d565b828401525050610160808401358381111561253057600080fd5b61253c89828701611f95565b828401525050610180808401358381111561255657600080fd5b61256289828701611f3d565b8284015250506101a0808401358381111561257c57600080fd5b61258889828701611dcc565b8284015250506101c080840135838111156125a257600080fd5b6125ae898287016121a1565b8284015250506101e080840135838111156125c857600080fd5b6125d489828701611e22565b82840152505061020080840135838111156125ee57600080fd5b6125fa89828701611e22565b828401525050610220808401358381111561261457600080fd5b61262089828701611e22565b828401525050610240808401358381111561263a57600080fd5b61264689828701611e22565b828401525050610260808401358381111561266057600080fd5b61266c89828701611e22565b828401525050610280808401358381111561268657600080fd5b61269289828701611f3d565b8284015250506102a080840135838111156126ac57600080fd5b6126b88982870161222e565b8284015250506102c080840135838111156126d257600080fd5b6126de898287016122bb565b91830191909152506102e0928301359281019290925250946020939093013593505050565b60e060020a634e487b7102600052603260045260246000fd5b60e060020a634e487b7102600052602160045260246000fd5b60e060020a634e487b7102600052601160045260246000fd5b600060001982141561276257612762612735565b5060010190565b60005b8381101561278457818101518382015260200161276c565b83811115610fd95750506000910152565b600081518084526127ad816020860160208601612769565b601f01601f19169290920160200192915050565b6000608082016080835280875180835260a0850191506020925060a0838202860101838a0160005b8381101561281757609f19888403018552612805838351612795565b948601949250908501906001016127e9565b505085840189905260408601889052858103606087015286518082529084019250905085830160005b8281101561287d578151600c811061286b5760e060020a634e487b7102600052602160045260246000fd5b84529284019290840190600101612840565b50919998505050505050505050565b60006060828403121561289e57600080fd5b82601f8301126128ad57600080fd5b6128b5611d2c565b8060608401858111156128c757600080fd5b845b818110156128f157805160ff811681146128e35760008081fd5b8452602093840193016128c9565b509095945050505050565b600060ff821660ff84168060ff0382111561291957612919612735565b019392505050565b60a08101818560005b600381101561294c57815160ff1683526020928301929091019060010161292a565b505050606082019390935260800152919050565b6060815260006129736060830186612795565b60208301949094525060400152919050565b60006020828403121561299757600080fd5b81516104ee81611ca4565b60a0815260006129b560a0830188612795565b90508560208301528460408301528360608301528260808301529695505050505050565b60c0815260006129ec60c0830189612795565b6020838203818501526129ff828a612795565b91508382036040850152612a138289612795565b9150838203606085015281829050606083018860005b6003811015612a54578583038452612a42838351612795565b93850193925090840190600101612a29565b505060808601979097525050505060a00152949350505050565b7f416363657373436f6e74726f6c3a206163636f756e7420000000000000000000815260008351612aa6816017850160208801612769565b7f206973206d697373696e6720726f6c65200000000000000000000000000000006017918401918201528351612ae3816028840160208801612769565b01602801949350505050565b6020815260006104ee6020830184612795565b600081810b607f19811415612b1957612b19612735565b60000392915050565b600060ff821660ff841680821015612b3c57612b3c612735565b90039392505050565b600082601f830112612b5657600080fd5b8151612b64611deb82611da4565b818152846020838601011115612b7957600080fd5b612b8a826020830160208701612769565b949350505050565b600060208284031215612ba457600080fd5b815167ffffffffffffffff811115612bbb57600080fd5b612b8a84828501612b45565b60006020808385031215612bda57600080fd5b825167ffffffffffffffff80821115612bf257600080fd5b818501915085601f830112612c0657600080fd5b8151612c14611deb82611d80565b81815290840283018401908481019088831115612c3057600080fd5b8585015b83811015612c6857805185811115612c4c5760008081fd5b612c5a8b89838a0101612b45565b845250918601918601612c34565b5098975050505050505050565b60008251612c87818460208701612769565b9190910192915050565b6000816000190483118215151615612cab57612cab612735565b500290565b60008219821115612cc357612cc3612735565b500190565b600081612cd757612cd7612735565b506000190190565b600082821015612cf157612cf1612735565b500390565b60e060020a634e487b7102600052603160045260246000fdfe80e2196015fc06a9d891759f8e4f51eb314ef5e9ea068528a8ed0063b87759f0a26469706673582212206111cf745b38b379ab16cf5251c174619a1823923b919d1dcf50499d1e63c4b464736f6c634300080b0033",
  "immutableReferences": {},
  "source": "// SPDX-License-Identifier: GPL-3.0\npragma solidity >=0.7.0 <0.9.0;\n\n// TODO: start using this for state updating outside of controller\n// Controller should only be used by users / UI directly sending\n// commands. This does things that can only imagine...\n\n// This should be only associated with one board...\n\nimport \"./HexplorationController.sol\";\nimport \"./HexplorationBoard.sol\";\nimport \"./decks/CardDeck.sol\";\nimport \"./state/CharacterCard.sol\";\nimport \"./HexplorationGameplay.sol\";\n\ncontract HexplorationStateUpdate is AccessControlEnumerable {\n    bytes32 public constant VERIFIED_CONTROLLER_ROLE =\n        keccak256(\"VERIFIED_CONTROLLER_ROLE\");\n    /*\n    Controller can access all game tokens with the following methods:\n\n    function mint(\n        string memory tokenType,\n        uint256 gameID,\n        uint256 quantity\n    )\n\n    function transfer(\n        string memory tokenType,\n        uint256 gameID,\n        uint256 fromID,\n        uint256 toID,\n        uint256 quantity\n    )\n*/\n    HexplorationBoard internal GAME_BOARD;\n    CharacterCard internal CHARACTER_CARD;\n    modifier onlyAdminVC() {\n        require(\n            hasRole(DEFAULT_ADMIN_ROLE, _msgSender()) ||\n                hasRole(VERIFIED_CONTROLLER_ROLE, _msgSender()),\n            \"Admin or Keeper role required\"\n        );\n        _;\n    }\n\n    // set other addresses going to need here\n    // decks, tokens?\n    constructor(address gameBoardAddress, address characterCardAddress) {\n        _setupRole(DEFAULT_ADMIN_ROLE, _msgSender());\n        GAME_BOARD = HexplorationBoard(gameBoardAddress);\n        CHARACTER_CARD = CharacterCard(characterCardAddress);\n    }\n\n    // Admin Functions\n\n    function addVerifiedController(address vcAddress)\n        public\n        onlyRole(DEFAULT_ADMIN_ROLE)\n    {\n        grantRole(VERIFIED_CONTROLLER_ROLE, vcAddress);\n    }\n\n    function postUpdates(\n        HexplorationGameplay.PlayUpdates memory updates,\n        uint256 gameID\n    ) public onlyRole(VERIFIED_CONTROLLER_ROLE) {\n        // go through values and post everything, transfer all the tokens, and pray\n        // use gamestate update contract to post everything\n        updatePlayerPositions(updates, gameID);\n        updatePlayerStats(updates, gameID);\n        updatePlayerHands(updates, gameID);\n        transferPlayerItems(updates, gameID);\n        transferZoneItems(updates, gameID);\n        applyActivityEffects(updates, gameID);\n    }\n\n    /*\n    struct PlayUpdates {\n        uint256[] playerPositionIDs;\n        uint256[] spacesToMove;\n        uint256[] playerEquipIDs;\n        uint256[] playerEquipHands;\n        uint256[] zoneTransfersTo;\n        uint256[] zoneTransfersFrom;\n        uint256[] zoneTransferQtys;\n        uint256[] playerTransfersTo;\n        uint256[] playerTransfersFrom;\n        uint256[] playerTransferQtys;\n        uint256[] playerStatUpdateIDs;\n        int8[3][] playerStatUpdates; // amount to adjust, not final value\n        uint256[] playerActiveActionIDs;\n        string gamePhase;\n        string[7][] playerMovementOptions; // TODO: set this to max # of spaces possible\n        string[] playerEquips;\n        string[] zoneTransferItemTypes;\n        string[] playerTransferItemTypes;\n        string[] activeActions;\n        string[] activeActionOptions;\n        uint256[] activeActionResults; // 0 = None, 1 = Event, 2 = Ambush, 3 = Treasure\n        string[2][] activeActionResultCard; // Card for Event / ambush / treasure , outcome e.g. [\"Dance with locals\", \"You're amazing!\"]\n        string[3][] activeActionInventoryChange; // [item loss, item gain, hand loss]\n        uint256 randomness;\n    }\n    */\n\n    function updatePlayerPositions(\n        HexplorationGameplay.PlayUpdates memory updates,\n        uint256 gameID\n    ) internal {\n        for (uint256 i = 0; i < updates.playerPositionIDs.length; i++) {\n            uint256 spacesToMove = updates.spacesToMove[i];\n            string[] memory path = new string[](spacesToMove);\n            for (uint256 j = 0; j < spacesToMove; j++) {\n                path[j] = updates.playerMovementOptions[i][j];\n            }\n            moveThroughPath(\n                path,\n                gameID,\n                updates.playerPositionIDs[i],\n                updates.randomness\n            );\n        }\n    }\n\n    function updatePlayerStats(\n        HexplorationGameplay.PlayUpdates memory updates,\n        uint256 gameID\n    ) internal {\n        for (uint256 i = 0; i < updates.playerStatUpdateIDs.length; i++) {\n            uint256 playerID = updates.playerStatUpdateIDs[i];\n            uint8[3] memory currentStats = CHARACTER_CARD.getStats(\n                gameID,\n                playerID\n            );\n            uint8[3] memory stats;\n            stats[0] = updates.playerStatUpdates[i][0] < 0\n                ? subToZero(\n                    currentStats[0],\n                    absoluteValue(updates.playerStatUpdates[i][0])\n                )\n                : currentStats[0] + uint8(updates.playerStatUpdates[i][0]);\n            stats[1] = updates.playerStatUpdates[i][1] < 0\n                ? subToZero(\n                    currentStats[1],\n                    absoluteValue(updates.playerStatUpdates[i][1])\n                )\n                : currentStats[1] + uint8(updates.playerStatUpdates[i][1]);\n            stats[2] = updates.playerStatUpdates[i][2] < 0\n                ? subToZero(\n                    currentStats[2],\n                    absoluteValue(updates.playerStatUpdates[i][2])\n                )\n                : currentStats[2] + uint8(updates.playerStatUpdates[i][2]);\n            CHARACTER_CARD.setStats(stats, gameID, playerID);\n        }\n    }\n\n    function updatePlayerHands(\n        HexplorationGameplay.PlayUpdates memory updates,\n        uint256 gameID\n    ) internal {\n        for (uint256 i = 0; i < updates.playerEquipIDs.length; i++) {\n            bool leftHand = updates.playerEquipHands[i] == 0;\n            if (leftHand) {\n                CHARACTER_CARD.setLeftHandItem(\n                    updates.playerEquips[i],\n                    gameID,\n                    updates.playerEquipIDs[i]\n                );\n            } else {\n                CHARACTER_CARD.setRightHandItem(\n                    updates.playerEquips[i],\n                    gameID,\n                    updates.playerEquipIDs[i]\n                );\n            }\n        }\n    }\n\n    function applyActivityEffects(\n        HexplorationGameplay.PlayUpdates memory updates,\n        uint256 gameID\n    ) internal {\n        for (uint256 i = 0; i < updates.activeActions.length; i++) {\n            uint256 cardTypeID = updates.activeActionResults[i];\n            string memory cardType;\n            if (cardTypeID == 1) {\n                cardType = \"Event\";\n            } else if (cardTypeID == 2) {\n                cardType = \"Ambush\";\n            } else if (cardTypeID == 3) {\n                cardType = \"Treasure\";\n            } else {\n                cardType = \"None\";\n            }\n            CHARACTER_CARD.setActionResults(\n                cardType,\n                updates.activeActionResultCard[i][0],\n                updates.activeActionResultCard[i][1],\n                updates.activeActionInventoryChanges[i],\n                gameID,\n                updates.playerActiveActionIDs[i]\n            );\n        }\n    }\n\n    function transferPlayerItems(\n        HexplorationGameplay.PlayUpdates memory updates,\n        uint256 gameID\n    ) internal {\n        TokenInventory ti = TokenInventory(GAME_BOARD.tokenInventory());\n        for (uint256 i = 0; i < updates.playerTransfersTo.length; i++) {\n            ti.ITEM_TOKEN().transfer(\n                updates.playerTransferItemTypes[i],\n                gameID,\n                updates.playerTransfersFrom[i],\n                updates.playerTransfersTo[i],\n                updates.playerTransferQtys[i]\n            );\n        }\n    }\n\n    function transferZoneItems(\n        HexplorationGameplay.PlayUpdates memory updates,\n        uint256 gameID\n    ) internal {\n        // these are all current zone to player or player to current zone\n        // we don't cover the zone to zone or player to other zone transfer cases yet\n        TokenInventory ti = TokenInventory(GAME_BOARD.tokenInventory());\n        for (uint256 i = 0; i < updates.zoneTransfersTo.length; i++) {\n            // If to == current zone, from = playerID\n            // if from == current zone, to = playerID\n            uint256 toID = updates.zoneTransfersTo[i] == 10000000000\n                ? currentZoneIndex(gameID, updates.zoneTransfersFrom[i])\n                : updates.zoneTransfersTo[i];\n            uint256 fromID = updates.zoneTransfersFrom[i] == 10000000000\n                ? currentZoneIndex(gameID, updates.zoneTransfersTo[i])\n                : updates.zoneTransfersFrom[i];\n            uint256 tferQty = updates.zoneTransferQtys[i];\n            string memory tferItem = updates.zoneTransferItemTypes[i];\n            if (updates.zoneTransfersTo[i] == 10000000000) {\n                ti.ITEM_TOKEN().transferToZone(\n                    tferItem,\n                    gameID,\n                    fromID,\n                    toID,\n                    tferQty\n                );\n            } else if (updates.zoneTransfersFrom[i] == 10000000000) {\n                ti.ITEM_TOKEN().transferFromZone(\n                    tferItem,\n                    gameID,\n                    fromID,\n                    toID,\n                    tferQty\n                );\n            }\n        }\n    }\n\n    function currentZoneIndex(uint256 gameID, uint256 playerID)\n        internal\n        view\n        returns (uint256 index)\n    {\n        string memory zoneAlias = GAME_BOARD.currentPlayZone(gameID, playerID);\n        string[] memory allZones = GAME_BOARD.getZoneAliases();\n        index = 1111111111111;\n        for (uint256 i = 0; i < allZones.length; i++) {\n            if (\n                keccak256(abi.encodePacked(zoneAlias)) ==\n                keccak256(abi.encodePacked(allZones[i]))\n            ) {\n                index = i;\n                break;\n            }\n        }\n    }\n\n    function moveThroughPath(\n        string[] memory zonePath,\n        uint256 gameID,\n        uint256 playerID,\n        uint256 randomness\n    ) public onlyRole(VERIFIED_CONTROLLER_ROLE) {\n        //TODO: pick tiles from deck\n\n        HexplorationZone.Tile[] memory tiles = new HexplorationZone.Tile[](\n            zonePath.length\n        );\n        uint256[] memory randomNumbers = new uint256[](zonePath.length);\n        randomNumbers[0] = randomness;\n        // TODO: expand to more random numbers for length of zone\n        // use this when drawing from tile deck\n        for (uint256 i = 0; i < zonePath.length; i++) {\n            tiles[i] = i == 0 ? HexplorationZone.Tile.Jungle : i == 1\n                ? HexplorationZone.Tile.Plains\n                : HexplorationZone.Tile.Mountain;\n        }\n\n        GAME_BOARD.moveThroughPath(zonePath, playerID, gameID, tiles);\n    }\n\n    // Utility\n    // returns a - b or 0 if negative;\n    function subToZero(uint8 a, uint8 b)\n        internal\n        pure\n        returns (uint8 difference)\n    {\n        difference = a > b ? a - b : 0;\n    }\n\n    function absoluteValue(int8 x) internal pure returns (uint8 absX) {\n        absX = x >= 0 ? uint8(x) : uint8(-x);\n    }\n}\n",
  "sourcePath": "/Users/max/demo/hexploration/contracts/HexplorationStateUpdate.sol",
  "compiler": {
    "name": "solc",
    "version": "0.8.11+commit.d7f03943.Emscripten.clang"
  },
  "schemaVersion": "3.4.2",
  "updatedAt": "2022-05-27T03:37:41.262Z",
  "devdoc": {
    "kind": "dev",
    "methods": {
      "getRoleAdmin(bytes32)": {
        "details": "Returns the admin role that controls `role`. See {grantRole} and {revokeRole}. To change a role's admin, use {_setRoleAdmin}."
      },
      "getRoleMember(bytes32,uint256)": {
        "details": "Returns one of the accounts that have `role`. `index` must be a value between 0 and {getRoleMemberCount}, non-inclusive. Role bearers are not sorted in any particular way, and their ordering may change at any point. WARNING: When using {getRoleMember} and {getRoleMemberCount}, make sure you perform all queries on the same block. See the following https://forum.openzeppelin.com/t/iterating-over-elements-on-enumerableset-in-openzeppelin-contracts/2296[forum post] for more information."
      },
      "getRoleMemberCount(bytes32)": {
        "details": "Returns the number of accounts that have `role`. Can be used together with {getRoleMember} to enumerate all bearers of a role."
      },
      "grantRole(bytes32,address)": {
        "details": "Grants `role` to `account`. If `account` had not been already granted `role`, emits a {RoleGranted} event. Requirements: - the caller must have ``role``'s admin role."
      },
      "hasRole(bytes32,address)": {
        "details": "Returns `true` if `account` has been granted `role`."
      },
      "renounceRole(bytes32,address)": {
        "details": "Revokes `role` from the calling account. Roles are often managed via {grantRole} and {revokeRole}: this function's purpose is to provide a mechanism for accounts to lose their privileges if they are compromised (such as when a trusted device is misplaced). If the calling account had been revoked `role`, emits a {RoleRevoked} event. Requirements: - the caller must be `account`."
      },
      "revokeRole(bytes32,address)": {
        "details": "Revokes `role` from `account`. If `account` had been granted `role`, emits a {RoleRevoked} event. Requirements: - the caller must have ``role``'s admin role."
      },
      "supportsInterface(bytes4)": {
        "details": "See {IERC165-supportsInterface}."
      }
    },
    "version": 1
  },
  "userdoc": {
    "kind": "user",
    "methods": {},
    "version": 1
  }
}