{
  "contractName": "HexplorationStateUpdate",
  "abi": [
    {
      "inputs": [
        {
          "internalType": "address",
          "name": "gameBoardAddress",
          "type": "address"
        },
        {
          "internalType": "address",
          "name": "characterCardAddress",
          "type": "address"
        }
      ],
      "stateMutability": "nonpayable",
      "type": "constructor"
    },
    {
      "anonymous": false,
      "inputs": [
        {
          "indexed": true,
          "internalType": "bytes32",
          "name": "role",
          "type": "bytes32"
        },
        {
          "indexed": true,
          "internalType": "bytes32",
          "name": "previousAdminRole",
          "type": "bytes32"
        },
        {
          "indexed": true,
          "internalType": "bytes32",
          "name": "newAdminRole",
          "type": "bytes32"
        }
      ],
      "name": "RoleAdminChanged",
      "type": "event"
    },
    {
      "anonymous": false,
      "inputs": [
        {
          "indexed": true,
          "internalType": "bytes32",
          "name": "role",
          "type": "bytes32"
        },
        {
          "indexed": true,
          "internalType": "address",
          "name": "account",
          "type": "address"
        },
        {
          "indexed": true,
          "internalType": "address",
          "name": "sender",
          "type": "address"
        }
      ],
      "name": "RoleGranted",
      "type": "event"
    },
    {
      "anonymous": false,
      "inputs": [
        {
          "indexed": true,
          "internalType": "bytes32",
          "name": "role",
          "type": "bytes32"
        },
        {
          "indexed": true,
          "internalType": "address",
          "name": "account",
          "type": "address"
        },
        {
          "indexed": true,
          "internalType": "address",
          "name": "sender",
          "type": "address"
        }
      ],
      "name": "RoleRevoked",
      "type": "event"
    },
    {
      "inputs": [],
      "name": "DEFAULT_ADMIN_ROLE",
      "outputs": [
        {
          "internalType": "bytes32",
          "name": "",
          "type": "bytes32"
        }
      ],
      "stateMutability": "view",
      "type": "function",
      "constant": true
    },
    {
      "inputs": [],
      "name": "VERIFIED_CONTROLLER_ROLE",
      "outputs": [
        {
          "internalType": "bytes32",
          "name": "",
          "type": "bytes32"
        }
      ],
      "stateMutability": "view",
      "type": "function",
      "constant": true
    },
    {
      "inputs": [
        {
          "internalType": "bytes32",
          "name": "role",
          "type": "bytes32"
        }
      ],
      "name": "getRoleAdmin",
      "outputs": [
        {
          "internalType": "bytes32",
          "name": "",
          "type": "bytes32"
        }
      ],
      "stateMutability": "view",
      "type": "function",
      "constant": true
    },
    {
      "inputs": [
        {
          "internalType": "bytes32",
          "name": "role",
          "type": "bytes32"
        },
        {
          "internalType": "uint256",
          "name": "index",
          "type": "uint256"
        }
      ],
      "name": "getRoleMember",
      "outputs": [
        {
          "internalType": "address",
          "name": "",
          "type": "address"
        }
      ],
      "stateMutability": "view",
      "type": "function",
      "constant": true
    },
    {
      "inputs": [
        {
          "internalType": "bytes32",
          "name": "role",
          "type": "bytes32"
        }
      ],
      "name": "getRoleMemberCount",
      "outputs": [
        {
          "internalType": "uint256",
          "name": "",
          "type": "uint256"
        }
      ],
      "stateMutability": "view",
      "type": "function",
      "constant": true
    },
    {
      "inputs": [
        {
          "internalType": "bytes32",
          "name": "role",
          "type": "bytes32"
        },
        {
          "internalType": "address",
          "name": "account",
          "type": "address"
        }
      ],
      "name": "grantRole",
      "outputs": [],
      "stateMutability": "nonpayable",
      "type": "function"
    },
    {
      "inputs": [
        {
          "internalType": "bytes32",
          "name": "role",
          "type": "bytes32"
        },
        {
          "internalType": "address",
          "name": "account",
          "type": "address"
        }
      ],
      "name": "hasRole",
      "outputs": [
        {
          "internalType": "bool",
          "name": "",
          "type": "bool"
        }
      ],
      "stateMutability": "view",
      "type": "function",
      "constant": true
    },
    {
      "inputs": [
        {
          "internalType": "bytes32",
          "name": "role",
          "type": "bytes32"
        },
        {
          "internalType": "address",
          "name": "account",
          "type": "address"
        }
      ],
      "name": "renounceRole",
      "outputs": [],
      "stateMutability": "nonpayable",
      "type": "function"
    },
    {
      "inputs": [
        {
          "internalType": "bytes32",
          "name": "role",
          "type": "bytes32"
        },
        {
          "internalType": "address",
          "name": "account",
          "type": "address"
        }
      ],
      "name": "revokeRole",
      "outputs": [],
      "stateMutability": "nonpayable",
      "type": "function"
    },
    {
      "inputs": [
        {
          "internalType": "bytes4",
          "name": "interfaceId",
          "type": "bytes4"
        }
      ],
      "name": "supportsInterface",
      "outputs": [
        {
          "internalType": "bool",
          "name": "",
          "type": "bool"
        }
      ],
      "stateMutability": "view",
      "type": "function",
      "constant": true
    },
    {
      "inputs": [
        {
          "internalType": "address",
          "name": "vcAddress",
          "type": "address"
        }
      ],
      "name": "addVerifiedController",
      "outputs": [],
      "stateMutability": "nonpayable",
      "type": "function"
    },
    {
      "inputs": [
        {
          "internalType": "uint256[]",
          "name": "intUpdates",
          "type": "uint256[]"
        },
        {
          "internalType": "string[]",
          "name": "stringUpdates",
          "type": "string[]"
        },
        {
          "internalType": "uint256",
          "name": "gameID",
          "type": "uint256"
        }
      ],
      "name": "postUpdates",
      "outputs": [],
      "stateMutability": "nonpayable",
      "type": "function"
    },
    {
      "inputs": [
        {
          "internalType": "string[]",
          "name": "zonePath",
          "type": "string[]"
        },
        {
          "internalType": "uint256",
          "name": "gameID",
          "type": "uint256"
        },
        {
          "internalType": "uint256",
          "name": "playerID",
          "type": "uint256"
        }
      ],
      "name": "moveThroughPath",
      "outputs": [],
      "stateMutability": "nonpayable",
      "type": "function"
    }
  ],
  "bytecode": "0x60806040523480156200001157600080fd5b50604051620017983803806200179883398101604081905262000034916200026d565b6200005c60006200004d6401000000006200008e810204565b64010000000062000092810204565b60028054600160a060020a03938416600160a060020a03199182161790915560038054929093169116179055620002a5565b3390565b620000a78282640100000000620000ab810204565b5050565b620000c5828264010000000062000547620000f282021704565b6000828152600160205260409020620000ed9082640100000000620005cb6200018e82021704565b505050565b620001078282640100000000620001b7810204565b620000a757600082815260208181526040808320600160a060020a03851684529091529020805460ff191660011790556200014a6401000000006200008e810204565b600160a060020a031681600160a060020a0316837f2f8788117e7eff1d82e926ec794901d17c78024a50270940304540a733656f0d60405160405180910390a45050565b6000620001ae83600160a060020a038416640100000000620001e0810204565b90505b92915050565b600091825260208281526040808420600160a060020a0393909316845291905290205460ff1690565b6000620001f7838364010000000062000238810204565b6200022f57508154600181810184556000848152602080822090930184905584548482528286019093526040902091909155620001b1565b506000620001b1565b60009081526001919091016020526040902054151590565b8051600160a060020a03811681146200026857600080fd5b919050565b600080604083850312156200028157600080fd5b6200028c8362000250565b91506200029c6020840162000250565b90509250929050565b6114e380620002b56000396000f3fe608060405234801561001057600080fd5b50600436106100c35760003560e060020a900480636776e3d0116100805780636776e3d0146101715780639010d07c1461018457806391d14854146101af578063a217fddf146101c2578063ca15c873146101ca578063d4f5b152146101dd578063d547741f146101f057600080fd5b806301ffc9a7146100c85780631c834a7f146100f0578063248a9ca3146101135780632f2ff15d1461013657806336568abe1461014b578063661409ff1461015e575b600080fd5b6100db6100d6366004610ea4565b610203565b60405190151581526020015b60405180910390f35b61010560008051602061148e83398151915281565b6040519081526020016100e7565b610105610121366004610ece565b60009081526020819052604090206001015490565b610149610144366004610f03565b610247565b005b610149610159366004610f03565b610271565b61014961016c366004611083565b610305565b61014961017f3660046110d1565b61046c565b610197610192366004611190565b6104a0565b604051600160a060020a0390911681526020016100e7565b6100db6101bd366004610f03565b6104bf565b610105600081565b6101056101d8366004610ece565b6104e8565b6101496101eb3660046111b2565b6104ff565b6101496101fe366004610f03565b610522565b6000600160e060020a031982167f5a05180f0000000000000000000000000000000000000000000000000000000014806102415750610241826105e0565b92915050565b60008281526020819052604090206001015461026281610647565b61026c8383610654565b505050565b600160a060020a03811633146102f75760405160e560020a62461bcd02815260206004820152602f60248201527f416363657373436f6e74726f6c3a2063616e206f6e6c792072656e6f756e636560448201527f20726f6c657320666f722073656c66000000000000000000000000000000000060648201526084015b60405180910390fd5b6103018282610676565b5050565b60008051602061148e83398151915261031d81610647565b6000845167ffffffffffffffff81111561033957610339610f2f565b604051908082528060200260200182016040528015610362578160200160208202803683370190505b50905060005b85518110156103e357801561038d5780600114610386576004610390565b6002610390565b60015b8282815181106103a2576103a26111cd565b6020026020010190600b8111156103bb576103bb6111e6565b9081600b8111156103ce576103ce6111e6565b905250806103db81611218565b915050610368565b506002546040517f235232d0000000000000000000000000000000000000000000000000000000008152600160a060020a039091169063235232d09061043390889087908990879060040161128b565b600060405180830381600087803b15801561044d57600080fd5b505af1158015610461573d6000803e3d6000fd5b505050505050505050565b60008051602061148e83398151915261048481610647565b61048f848484610698565b61049a84848461080d565b50505050565b60008281526001602052604081206104b89083610a3f565b9392505050565b600091825260208281526040808420600160a060020a0393909316845291905290205460ff1690565b600081815260016020526040812061024190610a4b565b600061050a81610647565b61030160008051602061148e83398151915283610247565b60008281526020819052604090206001015461053d81610647565b61026c8383610676565b61055182826104bf565b61030157600082815260208181526040808320600160a060020a03851684529091529020805460ff191660011790556105873390565b600160a060020a031681600160a060020a0316837f2f8788117e7eff1d82e926ec794901d17c78024a50270940304540a733656f0d60405160405180910390a45050565b60006104b883600160a060020a038416610a55565b6000600160e060020a031982167f7965db0b00000000000000000000000000000000000000000000000000000000148061024157507f01ffc9a700000000000000000000000000000000000000000000000000000000600160e060020a0319831614610241565b6106518133610aa4565b50565b61065e8282610547565b600082815260016020526040902061026c90826105cb565b6106808282610b0b565b600082815260016020526040902061026c9082610b70565b600760005b846000815181106106b0576106b06111cd565b602002602001015181101561080657600085836106ce846002611356565b6106d89190611375565b815181106106e8576106e86111cd565b6020026020010151905060008167ffffffffffffffff81111561070d5761070d610f2f565b60405190808252806020026020018201604052801561074057816020015b606081526020019060019003908161072b5790505b50905060005b828110156107b757868161075a8787611356565b610765906001611375565b61076f9190611375565b8151811061077f5761077f6111cd565b6020026020010151828281518110610799576107996111cd565b602002602001018190525080806107af90611218565b915050610746565b506107f18186896107c9876002611356565b6107d4906006611375565b815181106107e4576107e46111cd565b6020026020010151610305565b505080806107fe90611218565b91505061069d565b5050505050565b600060079050600084600081518110610828576108286111cd565b6020026020010151600261083c9190611356565b610847906006611375565b905060008560008151811061085e5761085e6111cd565b6020026020010151836108719190611356565b61087c906001611375565b905060005b86600281518110610894576108946111cd565b6020026020010151811015610a365760008784815181106108b7576108b76111cd565b602002602001015190506000888560016108d19190611375565b815181106108e1576108e16111cd565b60200260200101516000149050801561097f576003548851600160a060020a039091169063a8953434908a908790811061091d5761091d6111cd565b602002602001015189856040518463ffffffff1660e060020a0281526004016109489392919061138d565b600060405180830381600087803b15801561096257600080fd5b505af1158015610976573d6000803e3d6000fd5b50505050610a06565b6003548851600160a060020a0390911690635f2caa5e908a90879081106109a8576109a86111cd565b602002602001015189856040518463ffffffff1660e060020a0281526004016109d39392919061138d565b600060405180830381600087803b1580156109ed57600080fd5b505af1158015610a01573d6000803e3d6000fd5b505050505b84610a1081611218565b9550508380610a1e90611218565b94505050508080610a2e90611218565b915050610881565b50505050505050565b60006104b88383610b85565b6000610241825490565b6000818152600183016020526040812054610a9c57508154600181810184556000848152602080822090930184905584548482528286019093526040902091909155610241565b506000610241565b610aae82826104bf565b61030157610ac681600160a060020a03166014610baf565b610ad1836020610baf565b604051602001610ae29291906113b2565b60408051601f198184030181529082905260e560020a62461bcd0282526102ee91600401611433565b610b1582826104bf565b1561030157600082815260208181526040808320600160a060020a0385168085529252808320805460ff1916905551339285917ff6391f5c32d9c69d2a47ea670b442974b53935d1edc7fd64eb21e047a839171b9190a45050565b60006104b883600160a060020a038416610db1565b6000826000018281548110610b9c57610b9c6111cd565b9060005260206000200154905092915050565b60606000610bbe836002611356565b610bc9906002611375565b67ffffffffffffffff811115610be157610be1610f2f565b6040519080825280601f01601f191660200182016040528015610c0b576020820181803683370190505b5090507f300000000000000000000000000000000000000000000000000000000000000081600081518110610c4257610c426111cd565b6020010190600160f860020a031916908160001a9053507f780000000000000000000000000000000000000000000000000000000000000081600181518110610c8d57610c8d6111cd565b6020010190600160f860020a031916908160001a9053506000610cb1846002611356565b610cbc906001611375565b90505b6001811115610d5f577f303132333435363738396162636465660000000000000000000000000000000085600f1660108110610cfd57610cfd6111cd565b1a7f010000000000000000000000000000000000000000000000000000000000000002828281518110610d3257610d326111cd565b6020010190600160f860020a031916908160001a905350601090940493610d5881611446565b9050610cbf565b5083156104b85760405160e560020a62461bcd02815260206004820181905260248201527f537472696e67733a20686578206c656e67746820696e73756666696369656e7460448201526064016102ee565b60008181526001830160205260408120548015610e9a576000610dd560018361145d565b8554909150600090610de99060019061145d565b9050818114610e4e576000866000018281548110610e0957610e096111cd565b9060005260206000200154905080876000018481548110610e2c57610e2c6111cd565b6000918252602080832090910192909255918252600188019052604090208390555b8554869080610e5f57610e5f611474565b600190038181906000526020600020016000905590558560010160008681526020019081526020016000206000905560019350505050610241565b6000915050610241565b600060208284031215610eb657600080fd5b8135600160e060020a0319811681146104b857600080fd5b600060208284031215610ee057600080fd5b5035919050565b8035600160a060020a0381168114610efe57600080fd5b919050565b60008060408385031215610f1657600080fd5b82359150610f2660208401610ee7565b90509250929050565b60e060020a634e487b7102600052604160045260246000fd5b604051601f8201601f1916810167ffffffffffffffff81118282101715610f7157610f71610f2f565b604052919050565b600067ffffffffffffffff821115610f9357610f93610f2f565b5060209081020190565b6000601f8381840112610faf57600080fd5b82356020610fc4610fbf83610f79565b610f48565b82815291810285018101918181019087841115610fe057600080fd5b8287015b8481101561107757803567ffffffffffffffff808211156110055760008081fd5b818a0191508a603f83011261101a5760008081fd5b8582013560408282111561103057611030610f2f565b611041828b01601f19168901610f48565b92508183528c818386010111156110585760008081fd5b8181850189850137506000908201870152845250918301918301610fe4565b50979650505050505050565b60008060006060848603121561109857600080fd5b833567ffffffffffffffff8111156110af57600080fd5b6110bb86828701610f9d565b9660208601359650604090950135949350505050565b6000806000606084860312156110e657600080fd5b833567ffffffffffffffff808211156110fe57600080fd5b818601915086601f83011261111257600080fd5b81356020611122610fbf83610f79565b8281529181028401810191818101908a84111561113e57600080fd5b948201945b8386101561115c57853582529482019490820190611143565b9750508701359250508082111561117257600080fd5b5061117f86828701610f9d565b925050604084013590509250925092565b600080604083850312156111a357600080fd5b50508035926020909101359150565b6000602082840312156111c457600080fd5b6104b882610ee7565b60e060020a634e487b7102600052603260045260246000fd5b60e060020a634e487b7102600052602160045260246000fd5b60e060020a634e487b7102600052601160045260246000fd5b600060001982141561122c5761122c6111ff565b5060010190565b60005b8381101561124e578181015183820152602001611236565b8381111561049a5750506000910152565b60008151808452611277816020860160208601611233565b601f01601f19169290920160200192915050565b6000608082016080835280875180835260a0850191506020925060a0838202860101838a0160005b838110156112e157609f198884030185526112cf83835161125f565b948601949250908501906001016112b3565b505085840189905260408601889052858103606087015286518082529084019250905085830160005b82811015611347578151600c81106113355760e060020a634e487b7102600052602160045260246000fd5b8452928401929084019060010161130a565b50919998505050505050505050565b6000816000190483118215151615611370576113706111ff565b500290565b60008219821115611388576113886111ff565b500190565b6060815260006113a0606083018661125f565b60208301949094525060400152919050565b7f416363657373436f6e74726f6c3a206163636f756e74200000000000000000008152600083516113ea816017850160208801611233565b7f206973206d697373696e6720726f6c65200000000000000000000000000000006017918401918201528351611427816028840160208801611233565b01602801949350505050565b6020815260006104b8602083018461125f565b600081611455576114556111ff565b506000190190565b60008282101561146f5761146f6111ff565b500390565b60e060020a634e487b7102600052603160045260246000fdfe80e2196015fc06a9d891759f8e4f51eb314ef5e9ea068528a8ed0063b87759f0a2646970667358221220e7084ece7554cc0f8d903454f57ab70120e42441688695be7bdf692775d896df64736f6c634300080b0033",
  "immutableReferences": {},
  "source": "// SPDX-License-Identifier: GPL-3.0\npragma solidity >=0.7.0 <0.9.0;\n\n// TODO: start using this for state updating outside of controller\n// Controller should only be used by users / UI directly sending\n// commands. This does things that can only imagine...\n\n// This should be only associated with one board...\n\nimport \"@luckymachines/game-core/contracts/src/v0.0/GameController.sol\";\nimport \"./HexplorationBoard.sol\";\nimport \"./decks/CardDeck.sol\";\nimport \"./state/CharacterCard.sol\";\n\ncontract HexplorationStateUpdate is AccessControlEnumerable {\n    bytes32 public constant VERIFIED_CONTROLLER_ROLE =\n        keccak256(\"VERIFIED_CONTROLLER_ROLE\");\n    /*\n    Controller can access all game tokens with the following methods:\n\n    function mint(\n        string memory tokenType,\n        uint256 gameID,\n        uint256 quantity\n    )\n\n    function transfer(\n        string memory tokenType,\n        uint256 gameID,\n        uint256 fromID,\n        uint256 toID,\n        uint256 quantity\n    )\n*/\n    HexplorationBoard internal GAME_BOARD;\n    CharacterCard internal CHARACTER_CARD;\n    modifier onlyAdminVC() {\n        require(\n            hasRole(DEFAULT_ADMIN_ROLE, _msgSender()) ||\n                hasRole(VERIFIED_CONTROLLER_ROLE, _msgSender()),\n            \"Admin or Keeper role required\"\n        );\n        _;\n    }\n\n    // set other addresses going to need here\n    // decks, tokens?\n    constructor(address gameBoardAddress, address characterCardAddress) {\n        _setupRole(DEFAULT_ADMIN_ROLE, _msgSender());\n        GAME_BOARD = HexplorationBoard(gameBoardAddress);\n        CHARACTER_CARD = CharacterCard(characterCardAddress);\n    }\n\n    // Admin Functions\n\n    function addVerifiedController(address vcAddress)\n        public\n        onlyRole(DEFAULT_ADMIN_ROLE)\n    {\n        grantRole(VERIFIED_CONTROLLER_ROLE, vcAddress);\n    }\n\n    function postUpdates(\n        uint256[] memory intUpdates,\n        string[] memory stringUpdates,\n        uint256 gameID\n    ) public onlyRole(VERIFIED_CONTROLLER_ROLE) {\n        // go through values and post everything, transfer all the tokens, and pray\n        // use gamestate update contract to post everything\n        updatePlayerPositions(intUpdates, stringUpdates, gameID);\n        updatePlayerStats(intUpdates, stringUpdates, gameID);\n        updatePlayerHands(intUpdates, stringUpdates, gameID);\n        transferPlayerItems(intUpdates, stringUpdates, gameID);\n        transferZoneItems(intUpdates, stringUpdates, gameID);\n    }\n\n    function updatePlayerPositions(\n        uint256[] memory intUpdates,\n        string[] memory stringUpdates,\n        uint256 gameID\n    ) internal {\n        // TODO: set actual number here\n        uint256 maxMovementPerPlayer = 7;\n        for (uint256 i = 0; i < intUpdates[0]; i++) {\n            uint256 spacesToMove = intUpdates[(i * 2) + maxMovementPerPlayer];\n            string[] memory path = new string[](spacesToMove);\n            for (uint256 j = 0; j < spacesToMove; j++) {\n                path[j] = stringUpdates[(i * maxMovementPerPlayer) + 1 + j];\n            }\n            moveThroughPath(path, gameID, intUpdates[(i * 2) + 6]);\n        }\n    }\n\n    function updatePlayerStats(\n        uint256[] memory intUpdates,\n        string[] memory stringUpdates,\n        uint256 gameID\n    ) internal {}\n\n    function updatePlayerHands(\n        uint256[] memory intUpdates,\n        string[] memory stringUpdates,\n        uint256 gameID\n    ) internal {\n        // TODO: update to real number\n        uint256 maxMovement = 7;\n        uint256 currentIntIndex = 6 + (2 * intUpdates[0]);\n        uint256 currentStringIndex = 1 + (maxMovement * intUpdates[0]);\n        for (uint256 i = 0; i < intUpdates[2]; i++) {\n            uint256 playerID = intUpdates[currentIntIndex];\n            bool leftHand = intUpdates[currentIntIndex + 1] == 0;\n            if (leftHand) {\n                CHARACTER_CARD.setLeftHandItem(\n                    stringUpdates[currentStringIndex],\n                    gameID,\n                    playerID\n                );\n            } else {\n                CHARACTER_CARD.setRightHandItem(\n                    stringUpdates[currentStringIndex],\n                    gameID,\n                    playerID\n                );\n            }\n            currentIntIndex++;\n            currentStringIndex++;\n        }\n    }\n\n    function transferPlayerItems(\n        uint256[] memory intUpdates,\n        string[] memory stringUpdates,\n        uint256 gameID\n    ) internal {}\n\n    function transferZoneItems(\n        uint256[] memory intUpdates,\n        string[] memory stringUpdates,\n        uint256 gameID\n    ) internal {}\n\n    function moveThroughPath(\n        string[] memory zonePath,\n        uint256 gameID,\n        uint256 playerID\n    ) public onlyRole(VERIFIED_CONTROLLER_ROLE) {\n        //TODO: pick tiles from deck\n\n        HexplorationZone.Tile[] memory tiles = new HexplorationZone.Tile[](\n            zonePath.length\n        );\n        for (uint256 i = 0; i < zonePath.length; i++) {\n            tiles[i] = i == 0 ? HexplorationZone.Tile.Jungle : i == 1\n                ? HexplorationZone.Tile.Plains\n                : HexplorationZone.Tile.Mountain;\n        }\n\n        GAME_BOARD.moveThroughPath(zonePath, playerID, gameID, tiles);\n    }\n}\n",
  "sourcePath": "/Users/maxmeier/Developer/Lucky Machines/hexploration/contracts/HexplorationStateUpdate.sol",
  "compiler": {
    "name": "solc",
    "version": "0.8.11+commit.d7f03943.Emscripten.clang"
  },
  "schemaVersion": "3.4.4",
  "updatedAt": "2022-05-24T23:08:28.356Z",
  "networkType": "ethereum",
  "devdoc": {
    "kind": "dev",
    "methods": {
      "getRoleAdmin(bytes32)": {
        "details": "Returns the admin role that controls `role`. See {grantRole} and {revokeRole}. To change a role's admin, use {_setRoleAdmin}."
      },
      "getRoleMember(bytes32,uint256)": {
        "details": "Returns one of the accounts that have `role`. `index` must be a value between 0 and {getRoleMemberCount}, non-inclusive. Role bearers are not sorted in any particular way, and their ordering may change at any point. WARNING: When using {getRoleMember} and {getRoleMemberCount}, make sure you perform all queries on the same block. See the following https://forum.openzeppelin.com/t/iterating-over-elements-on-enumerableset-in-openzeppelin-contracts/2296[forum post] for more information."
      },
      "getRoleMemberCount(bytes32)": {
        "details": "Returns the number of accounts that have `role`. Can be used together with {getRoleMember} to enumerate all bearers of a role."
      },
      "grantRole(bytes32,address)": {
        "details": "Grants `role` to `account`. If `account` had not been already granted `role`, emits a {RoleGranted} event. Requirements: - the caller must have ``role``'s admin role."
      },
      "hasRole(bytes32,address)": {
        "details": "Returns `true` if `account` has been granted `role`."
      },
      "renounceRole(bytes32,address)": {
        "details": "Revokes `role` from the calling account. Roles are often managed via {grantRole} and {revokeRole}: this function's purpose is to provide a mechanism for accounts to lose their privileges if they are compromised (such as when a trusted device is misplaced). If the calling account had been revoked `role`, emits a {RoleRevoked} event. Requirements: - the caller must be `account`."
      },
      "revokeRole(bytes32,address)": {
        "details": "Revokes `role` from `account`. If `account` had been granted `role`, emits a {RoleRevoked} event. Requirements: - the caller must have ``role``'s admin role."
      },
      "supportsInterface(bytes4)": {
        "details": "See {IERC165-supportsInterface}."
      }
    },
    "version": 1
  },
  "userdoc": {
    "kind": "user",
    "methods": {},
    "version": 1
  }
}