{
  "contractName": "HexplorationStateUpdate",
  "abi": [
    {
      "inputs": [],
      "stateMutability": "nonpayable",
      "type": "constructor"
    },
    {
      "anonymous": false,
      "inputs": [
        {
          "indexed": true,
          "internalType": "bytes32",
          "name": "role",
          "type": "bytes32"
        },
        {
          "indexed": true,
          "internalType": "bytes32",
          "name": "previousAdminRole",
          "type": "bytes32"
        },
        {
          "indexed": true,
          "internalType": "bytes32",
          "name": "newAdminRole",
          "type": "bytes32"
        }
      ],
      "name": "RoleAdminChanged",
      "type": "event"
    },
    {
      "anonymous": false,
      "inputs": [
        {
          "indexed": true,
          "internalType": "bytes32",
          "name": "role",
          "type": "bytes32"
        },
        {
          "indexed": true,
          "internalType": "address",
          "name": "account",
          "type": "address"
        },
        {
          "indexed": true,
          "internalType": "address",
          "name": "sender",
          "type": "address"
        }
      ],
      "name": "RoleGranted",
      "type": "event"
    },
    {
      "anonymous": false,
      "inputs": [
        {
          "indexed": true,
          "internalType": "bytes32",
          "name": "role",
          "type": "bytes32"
        },
        {
          "indexed": true,
          "internalType": "address",
          "name": "account",
          "type": "address"
        },
        {
          "indexed": true,
          "internalType": "address",
          "name": "sender",
          "type": "address"
        }
      ],
      "name": "RoleRevoked",
      "type": "event"
    },
    {
      "inputs": [],
      "name": "DEFAULT_ADMIN_ROLE",
      "outputs": [
        {
          "internalType": "bytes32",
          "name": "",
          "type": "bytes32"
        }
      ],
      "stateMutability": "view",
      "type": "function",
      "constant": true
    },
    {
      "inputs": [],
      "name": "VERIFIED_CONTROLLER_ROLE",
      "outputs": [
        {
          "internalType": "bytes32",
          "name": "",
          "type": "bytes32"
        }
      ],
      "stateMutability": "view",
      "type": "function",
      "constant": true
    },
    {
      "inputs": [
        {
          "internalType": "bytes32",
          "name": "role",
          "type": "bytes32"
        }
      ],
      "name": "getRoleAdmin",
      "outputs": [
        {
          "internalType": "bytes32",
          "name": "",
          "type": "bytes32"
        }
      ],
      "stateMutability": "view",
      "type": "function",
      "constant": true
    },
    {
      "inputs": [
        {
          "internalType": "bytes32",
          "name": "role",
          "type": "bytes32"
        },
        {
          "internalType": "uint256",
          "name": "index",
          "type": "uint256"
        }
      ],
      "name": "getRoleMember",
      "outputs": [
        {
          "internalType": "address",
          "name": "",
          "type": "address"
        }
      ],
      "stateMutability": "view",
      "type": "function",
      "constant": true
    },
    {
      "inputs": [
        {
          "internalType": "bytes32",
          "name": "role",
          "type": "bytes32"
        }
      ],
      "name": "getRoleMemberCount",
      "outputs": [
        {
          "internalType": "uint256",
          "name": "",
          "type": "uint256"
        }
      ],
      "stateMutability": "view",
      "type": "function",
      "constant": true
    },
    {
      "inputs": [
        {
          "internalType": "bytes32",
          "name": "role",
          "type": "bytes32"
        },
        {
          "internalType": "address",
          "name": "account",
          "type": "address"
        }
      ],
      "name": "grantRole",
      "outputs": [],
      "stateMutability": "nonpayable",
      "type": "function"
    },
    {
      "inputs": [
        {
          "internalType": "bytes32",
          "name": "role",
          "type": "bytes32"
        },
        {
          "internalType": "address",
          "name": "account",
          "type": "address"
        }
      ],
      "name": "hasRole",
      "outputs": [
        {
          "internalType": "bool",
          "name": "",
          "type": "bool"
        }
      ],
      "stateMutability": "view",
      "type": "function",
      "constant": true
    },
    {
      "inputs": [
        {
          "internalType": "bytes32",
          "name": "role",
          "type": "bytes32"
        },
        {
          "internalType": "address",
          "name": "account",
          "type": "address"
        }
      ],
      "name": "renounceRole",
      "outputs": [],
      "stateMutability": "nonpayable",
      "type": "function"
    },
    {
      "inputs": [
        {
          "internalType": "bytes32",
          "name": "role",
          "type": "bytes32"
        },
        {
          "internalType": "address",
          "name": "account",
          "type": "address"
        }
      ],
      "name": "revokeRole",
      "outputs": [],
      "stateMutability": "nonpayable",
      "type": "function"
    },
    {
      "inputs": [
        {
          "internalType": "bytes4",
          "name": "interfaceId",
          "type": "bytes4"
        }
      ],
      "name": "supportsInterface",
      "outputs": [
        {
          "internalType": "bool",
          "name": "",
          "type": "bool"
        }
      ],
      "stateMutability": "view",
      "type": "function",
      "constant": true
    },
    {
      "inputs": [
        {
          "internalType": "address",
          "name": "vcAddress",
          "type": "address"
        }
      ],
      "name": "addVerifiedController",
      "outputs": [],
      "stateMutability": "nonpayable",
      "type": "function"
    },
    {
      "inputs": [
        {
          "internalType": "string[]",
          "name": "zonePath",
          "type": "string[]"
        },
        {
          "internalType": "uint256",
          "name": "gameID",
          "type": "uint256"
        },
        {
          "internalType": "address",
          "name": "boardAddress",
          "type": "address"
        }
      ],
      "name": "moveThroughPath",
      "outputs": [],
      "stateMutability": "nonpayable",
      "type": "function"
    }
  ],
  "bytecode": "0x60806040523480156200001157600080fd5b506200003a60006200002b64010000000062000040810204565b64010000000062000044810204565b62000202565b3390565b6200005982826401000000006200005d810204565b5050565b62000077828264010000000062000698620000a482021704565b60008281526001602052604090206200009f90826401000000006200071c6200014082021704565b505050565b620000b9828264010000000062000169810204565b6200005957600082815260208181526040808320600160a060020a03851684529091529020805460ff19166001179055620000fc64010000000062000040810204565b600160a060020a031681600160a060020a0316837f2f8788117e7eff1d82e926ec794901d17c78024a50270940304540a733656f0d60405160405180910390a45050565b60006200016083600160a060020a03841664010000000062000192810204565b90505b92915050565b600091825260208281526040808420600160a060020a0393909316845291905290205460ff1690565b6000620001a98383640100000000620001ea810204565b620001e15750815460018181018455600084815260208082209093018490558454848252828601909352604090209190915562000163565b50600062000163565b60009081526001919091016020526040902054151590565b6111dc80620002126000396000f3fe608060405234801561001057600080fd5b50600436106100b85760003560e060020a900480639010d07c116100755780639010d07c1461016657806391d1485414610191578063a217fddf146101a4578063ca15c873146101ac578063d4f5b152146101bf578063d547741f146101d257600080fd5b806301ffc9a7146100bd5780631c834a7f146100e5578063248a9ca3146101085780632f2ff15d1461012b57806336568abe146101405780634bde808c14610153575b600080fd5b6100d06100cb366004610c4e565b6101e5565b60405190151581526020015b60405180910390f35b6100fa60008051602061118783398151915281565b6040519081526020016100dc565b6100fa610116366004610c78565b60009081526020819052604090206001015490565b61013e610139366004610cb6565b610229565b005b61013e61014e366004610cb6565b610253565b61013e610161366004610d30565b6102e7565b610179610174366004610e61565b6105f1565b604051600160a060020a0390911681526020016100dc565b6100d061019f366004610cb6565b610610565b6100fa600081565b6100fa6101ba366004610c78565b610639565b61013e6101cd366004610e83565b610650565b61013e6101e0366004610cb6565b610673565b6000600160e060020a031982167f5a05180f000000000000000000000000000000000000000000000000000000001480610223575061022382610731565b92915050565b60008281526020819052604090206001015461024481610798565b61024e83836107a5565b505050565b600160a060020a03811633146102d95760405160e560020a62461bcd02815260206004820152602f60248201527f416363657373436f6e74726f6c3a2063616e206f6e6c792072656e6f756e636560448201527f20726f6c657320666f722073656c66000000000000000000000000000000000060648201526084015b60405180910390fd5b6102e382826107c7565b5050565b6102f2600033610610565b80610310575061031060008051602061118783398151915233610610565b61035f5760405160e560020a62461bcd02815260206004820152601d60248201527f41646d696e206f72204b656570657220726f6c6520726571756972656400000060448201526064016102d0565b6000819050600081600160a060020a031663c06dea4e6040518163ffffffff1660e060020a028152600401602060405180830381865afa1580156103a7573d6000803e3d6000fd5b505050506040513d601f19601f820116820180604052508101906103cb9190610ea0565b6040517fb81f6e1800000000000000000000000000000000000000000000000000000000815260048101869052336024820152909150600160a060020a0382169063b81f6e1890604401602060405180830381865afa158015610432573d6000803e3d6000fd5b505050506040513d601f19601f820116820180604052508101906104569190610ebd565b6104a55760405160e560020a62461bcd02815260206004820152601560248201527f706c61796572206e6f742072656769737465726564000000000000000000000060448201526064016102d0565b6000855167ffffffffffffffff8111156104c1576104c1610ce6565b6040519080825280602002602001820160405280156104ea578160200160208202803683370190505b50905060005b865181101561056b578015610515578060011461050e576004610518565b6002610518565b60015b82828151811061052a5761052a610edf565b6020026020010190600b81111561054357610543610ef8565b9081600b81111561055657610556610ef8565b9052508061056381610f2a565b9150506104f0565b506040517f31e019f6000000000000000000000000000000000000000000000000000000008152600160a060020a038516906331e019f6906105b790899033908a908790600401610fa1565b600060405180830381600087803b1580156105d157600080fd5b505af11580156105e5573d6000803e3d6000fd5b50505050505050505050565b600082815260016020526040812061060990836107e9565b9392505050565b600091825260208281526040808420600160a060020a0393909316845291905290205460ff1690565b6000818152600160205260408120610223906107f5565b600061065b81610798565b6102e360008051602061118783398151915283610229565b60008281526020819052604090206001015461068e81610798565b61024e83836107c7565b6106a28282610610565b6102e357600082815260208181526040808320600160a060020a03851684529091529020805460ff191660011790556106d83390565b600160a060020a031681600160a060020a0316837f2f8788117e7eff1d82e926ec794901d17c78024a50270940304540a733656f0d60405160405180910390a45050565b600061060983600160a060020a0384166107ff565b6000600160e060020a031982167f7965db0b00000000000000000000000000000000000000000000000000000000148061022357507f01ffc9a700000000000000000000000000000000000000000000000000000000600160e060020a0319831614610223565b6107a2813361084e565b50565b6107af8282610698565b600082815260016020526040902061024e908261071c565b6107d182826108b5565b600082815260016020526040902061024e908261091a565b6000610609838361092f565b6000610223825490565b600081815260018301602052604081205461084657508154600181810184556000848152602080822090930184905584548482528286019093526040902091909155610223565b506000610223565b6108588282610610565b6102e35761087081600160a060020a03166014610959565b61087b836020610959565b60405160200161088c929190611074565b60408051601f198184030181529082905260e560020a62461bcd0282526102d0916004016110f5565b6108bf8282610610565b156102e357600082815260208181526040808320600160a060020a0385168085529252808320805460ff1916905551339285917ff6391f5c32d9c69d2a47ea670b442974b53935d1edc7fd64eb21e047a839171b9190a45050565b600061060983600160a060020a038416610b5b565b600082600001828154811061094657610946610edf565b9060005260206000200154905092915050565b60606000610968836002611108565b610973906002611127565b67ffffffffffffffff81111561098b5761098b610ce6565b6040519080825280601f01601f1916602001820160405280156109b5576020820181803683370190505b5090507f3000000000000000000000000000000000000000000000000000000000000000816000815181106109ec576109ec610edf565b6020010190600160f860020a031916908160001a9053507f780000000000000000000000000000000000000000000000000000000000000081600181518110610a3757610a37610edf565b6020010190600160f860020a031916908160001a9053506000610a5b846002611108565b610a66906001611127565b90505b6001811115610b09577f303132333435363738396162636465660000000000000000000000000000000085600f1660108110610aa757610aa7610edf565b1a7f010000000000000000000000000000000000000000000000000000000000000002828281518110610adc57610adc610edf565b6020010190600160f860020a031916908160001a905350601090940493610b028161113f565b9050610a69565b5083156106095760405160e560020a62461bcd02815260206004820181905260248201527f537472696e67733a20686578206c656e67746820696e73756666696369656e7460448201526064016102d0565b60008181526001830160205260408120548015610c44576000610b7f600183611156565b8554909150600090610b9390600190611156565b9050818114610bf8576000866000018281548110610bb357610bb3610edf565b9060005260206000200154905080876000018481548110610bd657610bd6610edf565b6000918252602080832090910192909255918252600188019052604090208390555b8554869080610c0957610c0961116d565b600190038181906000526020600020016000905590558560010160008681526020019081526020016000206000905560019350505050610223565b6000915050610223565b600060208284031215610c6057600080fd5b8135600160e060020a03198116811461060957600080fd5b600060208284031215610c8a57600080fd5b5035919050565b600160a060020a03811681146107a257600080fd5b8035610cb181610c91565b919050565b60008060408385031215610cc957600080fd5b823591506020830135610cdb81610c91565b809150509250929050565b60e060020a634e487b7102600052604160045260246000fd5b604051601f8201601f1916810167ffffffffffffffff81118282101715610d2857610d28610ce6565b604052919050565b600080600060608486031215610d4557600080fd5b833567ffffffffffffffff80821115610d5d57600080fd5b818601915086601f830112610d7157600080fd5b8135602082821115610d8557610d85610ce6565b808202610d93828201610cff565b928352848101820192828101908b851115610dad57600080fd5b83870192505b84831015610e3e57823586811115610dcb5760008081fd5b8701603f81018d13610ddd5760008081fd5b84810135604088821115610df357610df3610ce6565b610e05601f8301601f19168801610cff565b8281528f82848601011115610e1a5760008081fd5b82828501898301376000928101880192909252508352509183019190830190610db3565b985050508701359450610e58925050604086019050610ca6565b90509250925092565b60008060408385031215610e7457600080fd5b50508035926020909101359150565b600060208284031215610e9557600080fd5b813561060981610c91565b600060208284031215610eb257600080fd5b815161060981610c91565b600060208284031215610ecf57600080fd5b8151801515811461060957600080fd5b60e060020a634e487b7102600052603260045260246000fd5b60e060020a634e487b7102600052602160045260246000fd5b60e060020a634e487b7102600052601160045260246000fd5b6000600019821415610f3e57610f3e610f11565b5060010190565b60005b83811015610f60578181015183820152602001610f48565b83811115610f6f576000848401525b50505050565b60008151808452610f8d816020860160208601610f45565b601f01601f19169290920160200192915050565b6000608082016080835280875180835260a0850191506020925060a0838202860101838a0160005b83811015610ff757609f19888403018552610fe5838351610f75565b94860194925090850190600101610fc9565b5050600160a060020a0389168685015260408601889052858103606087015286518082529084019250905085830160005b82811015611065578151600c81106110535760e060020a634e487b7102600052602160045260246000fd5b84529284019290840190600101611028565b50919998505050505050505050565b7f416363657373436f6e74726f6c3a206163636f756e74200000000000000000008152600083516110ac816017850160208801610f45565b7f206973206d697373696e6720726f6c652000000000000000000000000000000060179184019182015283516110e9816028840160208801610f45565b01602801949350505050565b6020815260006106096020830184610f75565b600081600019048311821515161561112257611122610f11565b500290565b6000821982111561113a5761113a610f11565b500190565b60008161114e5761114e610f11565b506000190190565b60008282101561116857611168610f11565b500390565b60e060020a634e487b7102600052603160045260246000fdfe80e2196015fc06a9d891759f8e4f51eb314ef5e9ea068528a8ed0063b87759f0a2646970667358221220a456e07e5d2747c247aa3ebb1523e99684985e474899597af56af91a21a5d69f64736f6c634300080b0033",
  "immutableReferences": {},
  "source": "// SPDX-License-Identifier: GPL-3.0\npragma solidity >=0.7.0 <0.9.0;\n\n// TODO: start using this for state updating outside of controller\n// Controller should only be used by users / UI directly sending\n// commands. This does things that can only imagine...\n\nimport \"@luckymachines/game-core/contracts/src/v0.0/GameController.sol\";\nimport \"./HexplorationBoard.sol\";\n\ncontract HexplorationStateUpdate is AccessControlEnumerable {\n    bytes32 public constant VERIFIED_CONTROLLER_ROLE =\n        keccak256(\"VERIFIED_CONTROLLER_ROLE\");\n    /*\n    Controller can access all game tokens with the following methods:\n\n    function mint(\n        string memory tokenType,\n        uint256 gameID,\n        uint256 quantity\n    )\n\n    function transfer(\n        string memory tokenType,\n        uint256 gameID,\n        uint256 fromID,\n        uint256 toID,\n        uint256 quantity\n    )\n*/\n    modifier onlyAdminVC() {\n        require(\n            hasRole(DEFAULT_ADMIN_ROLE, _msgSender()) ||\n                hasRole(VERIFIED_CONTROLLER_ROLE, _msgSender()),\n            \"Admin or Keeper role required\"\n        );\n        _;\n    }\n\n    constructor() {\n        _setupRole(DEFAULT_ADMIN_ROLE, _msgSender());\n    }\n\n    // Admin Functions\n\n    function addVerifiedController(address vcAddress)\n        public\n        onlyRole(DEFAULT_ADMIN_ROLE)\n    {\n        grantRole(VERIFIED_CONTROLLER_ROLE, vcAddress);\n    }\n\n    function moveThroughPath(\n        string[] memory zonePath,\n        uint256 gameID,\n        address boardAddress\n    ) public onlyAdminVC {\n        //TODO: pick tiles from deck\n        HexplorationBoard board = HexplorationBoard(boardAddress);\n        PlayerRegistry pr = PlayerRegistry(board.prAddress());\n        require(pr.isRegistered(gameID, msg.sender), \"player not registered\");\n\n        HexplorationZone.Tile[] memory tiles = new HexplorationZone.Tile[](\n            zonePath.length\n        );\n        for (uint256 i = 0; i < zonePath.length; i++) {\n            tiles[i] = i == 0 ? HexplorationZone.Tile.Jungle : i == 1\n                ? HexplorationZone.Tile.Plains\n                : HexplorationZone.Tile.Mountain;\n        }\n\n        HexplorationBoard(boardAddress).moveThroughPath(\n            zonePath,\n            msg.sender,\n            gameID,\n            tiles\n        );\n    }\n}\n",
  "sourcePath": "/Users/maxmeier/Developer/Lucky Machines/hexploration/contracts/HexplorationStateUpdate.sol",
  "compiler": {
    "name": "solc",
    "version": "0.8.11+commit.d7f03943.Emscripten.clang"
  },
  "schemaVersion": "3.4.4",
  "updatedAt": "2022-05-23T15:42:52.216Z",
  "networkType": "ethereum",
  "devdoc": {
    "kind": "dev",
    "methods": {
      "getRoleAdmin(bytes32)": {
        "details": "Returns the admin role that controls `role`. See {grantRole} and {revokeRole}. To change a role's admin, use {_setRoleAdmin}."
      },
      "getRoleMember(bytes32,uint256)": {
        "details": "Returns one of the accounts that have `role`. `index` must be a value between 0 and {getRoleMemberCount}, non-inclusive. Role bearers are not sorted in any particular way, and their ordering may change at any point. WARNING: When using {getRoleMember} and {getRoleMemberCount}, make sure you perform all queries on the same block. See the following https://forum.openzeppelin.com/t/iterating-over-elements-on-enumerableset-in-openzeppelin-contracts/2296[forum post] for more information."
      },
      "getRoleMemberCount(bytes32)": {
        "details": "Returns the number of accounts that have `role`. Can be used together with {getRoleMember} to enumerate all bearers of a role."
      },
      "grantRole(bytes32,address)": {
        "details": "Grants `role` to `account`. If `account` had not been already granted `role`, emits a {RoleGranted} event. Requirements: - the caller must have ``role``'s admin role."
      },
      "hasRole(bytes32,address)": {
        "details": "Returns `true` if `account` has been granted `role`."
      },
      "renounceRole(bytes32,address)": {
        "details": "Revokes `role` from the calling account. Roles are often managed via {grantRole} and {revokeRole}: this function's purpose is to provide a mechanism for accounts to lose their privileges if they are compromised (such as when a trusted device is misplaced). If the calling account had been revoked `role`, emits a {RoleRevoked} event. Requirements: - the caller must be `account`."
      },
      "revokeRole(bytes32,address)": {
        "details": "Revokes `role` from `account`. If `account` had been granted `role`, emits a {RoleRevoked} event. Requirements: - the caller must have ``role``'s admin role."
      },
      "supportsInterface(bytes4)": {
        "details": "See {IERC165-supportsInterface}."
      }
    },
    "version": 1
  },
  "userdoc": {
    "kind": "user",
    "methods": {},
    "version": 1
  }
}