{
  "contractName": "HexplorationQueue",
  "abi": [
    {
      "inputs": [
        {
          "internalType": "address",
          "name": "gameplayAddress",
          "type": "address"
        }
      ],
      "stateMutability": "nonpayable",
      "type": "constructor"
    },
    {
      "anonymous": false,
      "inputs": [
        {
          "indexed": true,
          "internalType": "bytes32",
          "name": "role",
          "type": "bytes32"
        },
        {
          "indexed": true,
          "internalType": "bytes32",
          "name": "previousAdminRole",
          "type": "bytes32"
        },
        {
          "indexed": true,
          "internalType": "bytes32",
          "name": "newAdminRole",
          "type": "bytes32"
        }
      ],
      "name": "RoleAdminChanged",
      "type": "event"
    },
    {
      "anonymous": false,
      "inputs": [
        {
          "indexed": true,
          "internalType": "bytes32",
          "name": "role",
          "type": "bytes32"
        },
        {
          "indexed": true,
          "internalType": "address",
          "name": "account",
          "type": "address"
        },
        {
          "indexed": true,
          "internalType": "address",
          "name": "sender",
          "type": "address"
        }
      ],
      "name": "RoleGranted",
      "type": "event"
    },
    {
      "anonymous": false,
      "inputs": [
        {
          "indexed": true,
          "internalType": "bytes32",
          "name": "role",
          "type": "bytes32"
        },
        {
          "indexed": true,
          "internalType": "address",
          "name": "account",
          "type": "address"
        },
        {
          "indexed": true,
          "internalType": "address",
          "name": "sender",
          "type": "address"
        }
      ],
      "name": "RoleRevoked",
      "type": "event"
    },
    {
      "inputs": [],
      "name": "DEFAULT_ADMIN_ROLE",
      "outputs": [
        {
          "internalType": "bytes32",
          "name": "",
          "type": "bytes32"
        }
      ],
      "stateMutability": "view",
      "type": "function"
    },
    {
      "inputs": [],
      "name": "GAMEPLAY_ROLE",
      "outputs": [
        {
          "internalType": "bytes32",
          "name": "",
          "type": "bytes32"
        }
      ],
      "stateMutability": "view",
      "type": "function"
    },
    {
      "inputs": [],
      "name": "VERIFIED_CONTROLLER_ROLE",
      "outputs": [
        {
          "internalType": "bytes32",
          "name": "",
          "type": "bytes32"
        }
      ],
      "stateMutability": "view",
      "type": "function"
    },
    {
      "inputs": [
        {
          "internalType": "uint256",
          "name": "",
          "type": "uint256"
        }
      ],
      "name": "currentPhase",
      "outputs": [
        {
          "internalType": "enum HexplorationQueue.ProcessingPhase",
          "name": "",
          "type": "uint8"
        }
      ],
      "stateMutability": "view",
      "type": "function"
    },
    {
      "inputs": [
        {
          "internalType": "uint256",
          "name": "",
          "type": "uint256"
        }
      ],
      "name": "currentQueuePosition",
      "outputs": [
        {
          "internalType": "uint16",
          "name": "",
          "type": "uint16"
        }
      ],
      "stateMutability": "view",
      "type": "function"
    },
    {
      "inputs": [
        {
          "internalType": "uint256",
          "name": "",
          "type": "uint256"
        }
      ],
      "name": "game",
      "outputs": [
        {
          "internalType": "uint256",
          "name": "",
          "type": "uint256"
        }
      ],
      "stateMutability": "view",
      "type": "function"
    },
    {
      "inputs": [
        {
          "internalType": "bytes32",
          "name": "role",
          "type": "bytes32"
        }
      ],
      "name": "getRoleAdmin",
      "outputs": [
        {
          "internalType": "bytes32",
          "name": "",
          "type": "bytes32"
        }
      ],
      "stateMutability": "view",
      "type": "function"
    },
    {
      "inputs": [
        {
          "internalType": "bytes32",
          "name": "role",
          "type": "bytes32"
        },
        {
          "internalType": "uint256",
          "name": "index",
          "type": "uint256"
        }
      ],
      "name": "getRoleMember",
      "outputs": [
        {
          "internalType": "address",
          "name": "",
          "type": "address"
        }
      ],
      "stateMutability": "view",
      "type": "function"
    },
    {
      "inputs": [
        {
          "internalType": "bytes32",
          "name": "role",
          "type": "bytes32"
        }
      ],
      "name": "getRoleMemberCount",
      "outputs": [
        {
          "internalType": "uint256",
          "name": "",
          "type": "uint256"
        }
      ],
      "stateMutability": "view",
      "type": "function"
    },
    {
      "inputs": [
        {
          "internalType": "bytes32",
          "name": "role",
          "type": "bytes32"
        },
        {
          "internalType": "address",
          "name": "account",
          "type": "address"
        }
      ],
      "name": "grantRole",
      "outputs": [],
      "stateMutability": "nonpayable",
      "type": "function"
    },
    {
      "inputs": [
        {
          "internalType": "bytes32",
          "name": "role",
          "type": "bytes32"
        },
        {
          "internalType": "address",
          "name": "account",
          "type": "address"
        }
      ],
      "name": "hasRole",
      "outputs": [
        {
          "internalType": "bool",
          "name": "",
          "type": "bool"
        }
      ],
      "stateMutability": "view",
      "type": "function"
    },
    {
      "inputs": [
        {
          "internalType": "uint256",
          "name": "",
          "type": "uint256"
        }
      ],
      "name": "inProcessingQueue",
      "outputs": [
        {
          "internalType": "bool",
          "name": "",
          "type": "bool"
        }
      ],
      "stateMutability": "view",
      "type": "function"
    },
    {
      "inputs": [
        {
          "internalType": "uint256",
          "name": "",
          "type": "uint256"
        }
      ],
      "name": "playThroughPosition",
      "outputs": [
        {
          "internalType": "uint16",
          "name": "",
          "type": "uint16"
        }
      ],
      "stateMutability": "view",
      "type": "function"
    },
    {
      "inputs": [
        {
          "internalType": "uint256",
          "name": "",
          "type": "uint256"
        },
        {
          "internalType": "uint256",
          "name": "",
          "type": "uint256"
        }
      ],
      "name": "players",
      "outputs": [
        {
          "internalType": "uint256",
          "name": "",
          "type": "uint256"
        }
      ],
      "stateMutability": "view",
      "type": "function"
    },
    {
      "inputs": [
        {
          "internalType": "uint256",
          "name": "",
          "type": "uint256"
        }
      ],
      "name": "processingQueue",
      "outputs": [
        {
          "internalType": "uint256",
          "name": "",
          "type": "uint256"
        }
      ],
      "stateMutability": "view",
      "type": "function"
    },
    {
      "inputs": [
        {
          "internalType": "uint256",
          "name": "",
          "type": "uint256"
        }
      ],
      "name": "queueID",
      "outputs": [
        {
          "internalType": "uint256",
          "name": "",
          "type": "uint256"
        }
      ],
      "stateMutability": "view",
      "type": "function"
    },
    {
      "inputs": [
        {
          "internalType": "bytes32",
          "name": "role",
          "type": "bytes32"
        },
        {
          "internalType": "address",
          "name": "account",
          "type": "address"
        }
      ],
      "name": "renounceRole",
      "outputs": [],
      "stateMutability": "nonpayable",
      "type": "function"
    },
    {
      "inputs": [
        {
          "internalType": "bytes32",
          "name": "role",
          "type": "bytes32"
        },
        {
          "internalType": "address",
          "name": "account",
          "type": "address"
        }
      ],
      "name": "revokeRole",
      "outputs": [],
      "stateMutability": "nonpayable",
      "type": "function"
    },
    {
      "inputs": [
        {
          "internalType": "uint256",
          "name": "",
          "type": "uint256"
        },
        {
          "internalType": "uint256",
          "name": "",
          "type": "uint256"
        }
      ],
      "name": "submissionAction",
      "outputs": [
        {
          "internalType": "enum HexplorationQueue.Action",
          "name": "",
          "type": "uint8"
        }
      ],
      "stateMutability": "view",
      "type": "function"
    },
    {
      "inputs": [
        {
          "internalType": "uint256",
          "name": "",
          "type": "uint256"
        },
        {
          "internalType": "uint256",
          "name": "",
          "type": "uint256"
        }
      ],
      "name": "submissionLeftHand",
      "outputs": [
        {
          "internalType": "string",
          "name": "",
          "type": "string"
        }
      ],
      "stateMutability": "view",
      "type": "function"
    },
    {
      "inputs": [
        {
          "internalType": "uint256",
          "name": "",
          "type": "uint256"
        },
        {
          "internalType": "uint256",
          "name": "",
          "type": "uint256"
        },
        {
          "internalType": "uint256",
          "name": "",
          "type": "uint256"
        }
      ],
      "name": "submissionOptions",
      "outputs": [
        {
          "internalType": "string",
          "name": "",
          "type": "string"
        }
      ],
      "stateMutability": "view",
      "type": "function"
    },
    {
      "inputs": [
        {
          "internalType": "uint256",
          "name": "",
          "type": "uint256"
        },
        {
          "internalType": "uint256",
          "name": "",
          "type": "uint256"
        }
      ],
      "name": "submissionRightHand",
      "outputs": [
        {
          "internalType": "string",
          "name": "",
          "type": "string"
        }
      ],
      "stateMutability": "view",
      "type": "function"
    },
    {
      "inputs": [
        {
          "internalType": "bytes4",
          "name": "interfaceId",
          "type": "bytes4"
        }
      ],
      "name": "supportsInterface",
      "outputs": [
        {
          "internalType": "bool",
          "name": "",
          "type": "bool"
        }
      ],
      "stateMutability": "view",
      "type": "function"
    },
    {
      "inputs": [
        {
          "internalType": "uint256",
          "name": "",
          "type": "uint256"
        }
      ],
      "name": "totalPlayers",
      "outputs": [
        {
          "internalType": "uint16",
          "name": "",
          "type": "uint16"
        }
      ],
      "stateMutability": "view",
      "type": "function"
    },
    {
      "inputs": [
        {
          "internalType": "address",
          "name": "controllerAddress",
          "type": "address"
        }
      ],
      "name": "addVerifiedController",
      "outputs": [],
      "stateMutability": "nonpayable",
      "type": "function"
    },
    {
      "inputs": [
        {
          "internalType": "uint256",
          "name": "gameID",
          "type": "uint256"
        },
        {
          "internalType": "uint16",
          "name": "_totalPlayers",
          "type": "uint16"
        }
      ],
      "name": "requestGameQueue",
      "outputs": [
        {
          "internalType": "uint256",
          "name": "",
          "type": "uint256"
        }
      ],
      "stateMutability": "nonpayable",
      "type": "function"
    },
    {
      "inputs": [
        {
          "internalType": "uint256",
          "name": "playerID",
          "type": "uint256"
        },
        {
          "internalType": "enum HexplorationQueue.Action",
          "name": "action",
          "type": "uint8"
        },
        {
          "internalType": "string[]",
          "name": "options",
          "type": "string[]"
        },
        {
          "internalType": "string",
          "name": "leftHand",
          "type": "string"
        },
        {
          "internalType": "string",
          "name": "rightHand",
          "type": "string"
        },
        {
          "internalType": "uint256",
          "name": "_queueID",
          "type": "uint256"
        }
      ],
      "name": "sumbitActionForPlayer",
      "outputs": [],
      "stateMutability": "nonpayable",
      "type": "function"
    },
    {
      "inputs": [
        {
          "internalType": "uint256",
          "name": "_queueID",
          "type": "uint256"
        }
      ],
      "name": "requestProcessActions",
      "outputs": [],
      "stateMutability": "nonpayable",
      "type": "function"
    },
    {
      "inputs": [
        {
          "internalType": "uint256",
          "name": "_queueID",
          "type": "uint256"
        }
      ],
      "name": "getAllPlayers",
      "outputs": [
        {
          "internalType": "uint256[]",
          "name": "",
          "type": "uint256[]"
        }
      ],
      "stateMutability": "view",
      "type": "function"
    },
    {
      "inputs": [
        {
          "internalType": "uint256",
          "name": "_queueID",
          "type": "uint256"
        },
        {
          "internalType": "uint256",
          "name": "_playerID",
          "type": "uint256"
        }
      ],
      "name": "getSubmissionOptions",
      "outputs": [
        {
          "internalType": "string[]",
          "name": "",
          "type": "string[]"
        }
      ],
      "stateMutability": "view",
      "type": "function"
    },
    {
      "inputs": [
        {
          "internalType": "enum HexplorationQueue.ProcessingPhase",
          "name": "phase",
          "type": "uint8"
        },
        {
          "internalType": "uint256",
          "name": "_queueID",
          "type": "uint256"
        }
      ],
      "name": "setPhase",
      "outputs": [],
      "stateMutability": "nonpayable",
      "type": "function"
    },
    {
      "inputs": [
        {
          "internalType": "uint256",
          "name": "randomNumber",
          "type": "uint256"
        },
        {
          "internalType": "uint256",
          "name": "_queueID",
          "type": "uint256"
        }
      ],
      "name": "setRandomNumber",
      "outputs": [],
      "stateMutability": "nonpayable",
      "type": "function"
    },
    {
      "inputs": [
        {
          "internalType": "uint256",
          "name": "_queueID",
          "type": "uint256"
        }
      ],
      "name": "requestNewQueueID",
      "outputs": [],
      "stateMutability": "nonpayable",
      "type": "function"
    },
    {
      "inputs": [
        {
          "internalType": "uint256",
          "name": "_queueID",
          "type": "uint256"
        }
      ],
      "name": "setProcessingComplete",
      "outputs": [],
      "stateMutability": "nonpayable",
      "type": "function"
    }
  ],
  "bytecode": "0x60806040523480156200001157600080fd5b5060405162001f2f38038062001f2f83398101604081905262000034916200027d565b6200005c60006200004d640100000000620000b2810204565b640100000000620000b6810204565b620000917f0c2c7e957bdf811d5a896b04e816b9c382dfb980c93b21b0288b75c85d598acd82640100000000620000b6810204565b620000ab600264010000000062000d75620000cf82021704565b50620002af565b3390565b620000cb8282640100000000620000d8810204565b5050565b80546001019055565b620000f2828264010000000062000d7e6200011f82021704565b60008281526001602052604090206200011a908264010000000062000e02620001bb82021704565b505050565b620001348282640100000000620001e4810204565b620000cb57600082815260208181526040808320600160a060020a03851684529091529020805460ff1916600117905562000177640100000000620000b2810204565b600160a060020a031681600160a060020a0316837f2f8788117e7eff1d82e926ec794901d17c78024a50270940304540a733656f0d60405160405180910390a45050565b6000620001db83600160a060020a0384166401000000006200020d810204565b90505b92915050565b600091825260208281526040808420600160a060020a0393909316845291905290205460ff1690565b600062000224838364010000000062000265810204565b6200025c57508154600181810184556000848152602080822090930184905584548482528286019093526040902091909155620001de565b506000620001de565b60009081526001919091016020526040902054151590565b6000602082840312156200029057600080fd5b8151600160a060020a0381168114620002a857600080fd5b9392505050565b611c7080620002bf6000396000f3fe608060405234801561001057600080fd5b5060043610610223576000357c010000000000000000000000000000000000000000000000000000000090048063998f1b8011610137578063af7afe56116100ca578063d4f5b15211610099578063d4f5b15214610560578063d547741f14610573578063d809371f14610586578063e2f315c114610599578063fd82e21f146105bd57600080fd5b8063af7afe56146104d9578063b1fb6405146104fd578063ca15c8731461052d578063cddbe7291461054057600080fd5b8063a217fddf11610106578063a217fddf1461047e578063a2dc586014610486578063ac01b83d146104a6578063ae6a7056146104c657600080fd5b8063998f1b80146104225780639b8e6819146104355780639bd78d2b146104485780639f6bc61d1461046b57600080fd5b80632f2ff15d116101ba5780637f041591116101895780637f04159114610376578063861814e2146103b15780638f21c3ac146103d15780639010d07c146103e457806391d148541461040f57600080fd5b80632f2ff15d1461032a57806336568abe1461033d5780635da4fabc146103505780636b775e5c1461036357600080fd5b80631c834a7f116101f65780631c834a7f146102bc57806322c21713146102df578063248a9ca3146102f257806328d6b4c01461031557600080fd5b806301ffc9a71461022857806304ac8fee146102505780630c6ea531146102655780631b341b3e1461029c575b600080fd5b61023b6102363660046115cc565b6105d0565b60405190151581526020015b60405180910390f35b61026361025e3660046115f6565b610614565b005b610289610273366004611626565b60046020526000908152604090205461ffff1681565b60405161ffff9091168152602001610247565b6102af6102aa36600461163f565b610661565b60405161024791906116c7565b6102d1600080516020611c1b83398151915281565b604051908152602001610247565b6102d16102ed3660046116da565b610727565b6102d1610300366004611626565b60009081526020819052604090206001015490565b6102d1600080516020611bfb83398151915281565b61026361033836600461172d565b610753565b61026361034b36600461172d565b61077d565b61026361035e366004611759565b610811565b610263610371366004611626565b61083b565b6103a4610384366004611759565b600c60209081526000928352604080842090915290825290205460ff1681565b6040516102479190611794565b6102d16103bf366004611626565b60086020526000908152604090205481565b6102636103df366004611626565b61085c565b6103f76103f2366004611759565b6108a5565b604051600160a060020a039091168152602001610247565b61023b61041d36600461172d565b6108c4565b6102d1610430366004611759565b6108ed565b6102af610443366004611759565b61091e565b61023b610456366004611626565b60066020526000908152604090205460ff1681565b6102d1610479366004611626565b610942565b6102d1600081565b610499610494366004611759565b610963565b60405161024791906117ae565b6104b96104b4366004611626565b610a51565b604051610247919061180f565b6102636104d43660046119ab565b610ab3565b6102896104e7366004611626565b600b6020526000908152604090205461ffff1681565b61052061050b366004611626565b60076020526000908152604090205460ff1681565b6040516102479190611a5c565b6102d161053b366004611626565b610c99565b6102d161054e366004611626565b60096020526000908152604090205481565b61026361056e366004611a70565b610cb0565b61026361058136600461172d565b610cd3565b610263610594366004611626565b610cf8565b6102896105a7366004611626565b60056020526000908152604090205461ffff1681565b6102af6105cb366004611759565b610d51565b6000600160e060020a031982167f5a05180f00000000000000000000000000000000000000000000000000000000148061060e575061060e82610e17565b92915050565b600080516020611bfb83398151915261062c81610e7e565b6000828152600760205260409020805484919060ff191660018360058111156106575761065761177b565b0217905550505050565b600d602052826000526040600020602052816000526040600020818154811061068957600080fd5b90600052602060002001600092509250505080546106a690611a8b565b80601f01602080910402602001604051908101604052809291908181526020018280546106d290611a8b565b801561071f5780601f106106f45761010080835404028352916020019161071f565b820191906000526020600020905b81548152906001019060200180831161070257829003601f168201915b505050505081565b6000600080516020611c1b83398151915261074181610e7e565b61074b8484610e8b565b949350505050565b60008281526020819052604090206001015461076e81610e7e565b6107788383610f2f565b505050565b600160a060020a03811633146108035760405160e560020a62461bcd02815260206004820152602f60248201527f416363657373436f6e74726f6c3a2063616e206f6e6c792072656e6f756e636560448201527f20726f6c657320666f722073656c66000000000000000000000000000000000060648201526084015b60405180910390fd5b61080d8282610f51565b5050565b600080516020611bfb83398151915261082981610e7e565b50600090815260106020526040902055565b600080516020611c1b83398151915261085381610e7e565b61080d82610f73565b600080516020611bfb83398151915261087481610e7e565b5060009081526009602090815260408083205460078352818420805460ff1916600417905583526008909152812055565b60008281526001602052604081206108bd9083610fd6565b9392505050565b600091825260208281526040808420600160a060020a0393909316845291905290205460ff1690565b600a602052816000526040600020818154811061090957600080fd5b90600052602060002001600091509150505481565b600f602090815260009283526040808420909152908252902080546106a690611a8b565b6003818154811061095257600080fd5b600091825260209091200154905081565b6000828152600d602090815260408083208484528252808320805482518185028101850190935280835260609492939192909184015b82821015610a455783829060005260206000200180546109b890611a8b565b80601f01602080910402602001604051908101604052809291908181526020018280546109e490611a8b565b8015610a315780601f10610a0657610100808354040283529160200191610a31565b820191906000526020600020905b815481529060010190602001808311610a1457829003601f168201915b505050505081526020019060010190610999565b50505050905092915050565b6000818152600a6020908152604091829020805483518184028101840190945280845260609392830182828015610aa757602002820191906000526020600020905b815481526020019060010190808311610a93575b50505050509050919050565b600080516020611c1b833981519152610acb81610e7e565b600160008381526007602052604090205460ff166005811115610af057610af061177b565b14610b405760405160e560020a62461bcd02815260206004820152601460248201527f4e6f74207375626d697373696f6e20706861736500000000000000000000000060448201526064016107fa565b6000828152600c602090815260408083208a845290915281205460ff166006811115610b6e57610b6e61177b565b148015610b9257506000828152600d602090815260408083208a8452909152902054155b15610c90576000828152600c602090815260408083208a84529091529020805487919060ff19166001836006811115610bcd57610bcd61177b565b02179055506000828152600d602090815260408083208a845282529091208651610bf992880190611483565b506000828152600e602090815260408083208a845282529091208551610c21928701906114e0565b506000828152600f602090815260408083208a845282529091208451610c49928601906114e0565b506000828152600a602081815260408084208054600181018255818652838620018c9055868552600b8352932054919052905461ffff90911611610c9057610c9082610f73565b50505050505050565b600081815260016020526040812061060e90610fe2565b6000610cbb81610e7e565b61080d600080516020611c1b83398151915283610753565b600082815260208190526040902060010154610cee81610e7e565b6107788383610f51565b600080516020611bfb833981519152610d1081610e7e565b600082815260096020908152604080832054600b9092529091205461ffff16610d398282610e8b565b60009283526008602052604090922091909155505050565b600e602090815260009283526040808420909152908252902080546106a690611a8b565b80546001019055565b610d8882826108c4565b61080d57600082815260208181526040808320600160a060020a03851684529091529020805460ff19166001179055610dbe3390565b600160a060020a031681600160a060020a0316837f2f8788117e7eff1d82e926ec794901d17c78024a50270940304540a733656f0d60405160405180910390a45050565b60006108bd83600160a060020a038416610fec565b6000600160e060020a031982167f7965db0b00000000000000000000000000000000000000000000000000000000148061060e57507f01ffc9a700000000000000000000000000000000000000000000000000000000600160e060020a031983161461060e565b610e88813361103b565b50565b60008281526008602052604081205415610eea5760405160e560020a62461bcd02815260206004820152601160248201527f717565756520616c72656164792073657400000000000000000000000000000060448201526064016107fa565b6000610ef560025490565b6000858152600860209081526040808320849055600b9091529020805461ffff191661ffff861617905560028054600101905590506108bd565b610f398282610d7e565b60008281526001602052604090206107789082610e02565b610f5b82826110a2565b60008281526001602052604090206107789082611107565b60008181526006602052604090205460ff16610e88576003805460018181019092557fc2575a0e9e593c00f959f8c92f12db2869c3395a3b0502d05e2516446f71f85b018290556000828152600660205260409020805460ff1916909117905550565b60006108bd838361111c565b600061060e825490565b60008181526001830160205260408120546110335750815460018181018455600084815260208082209093018490558454848252828601909352604090209190915561060e565b50600061060e565b61104582826108c4565b61080d5761105d81600160a060020a03166014611146565b611068836020611146565b604051602001611079929190611ac9565b60408051601f198184030181529082905260e560020a62461bcd0282526107fa916004016116c7565b6110ac82826108c4565b1561080d57600082815260208181526040808320600160a060020a0385168085529252808320805460ff1916905551339285917ff6391f5c32d9c69d2a47ea670b442974b53935d1edc7fd64eb21e047a839171b9190a45050565b60006108bd83600160a060020a038416611390565b600082600001828154811061113357611133611b4a565b9060005260206000200154905092915050565b60606000611155836002611b7c565b611160906002611b9b565b67ffffffffffffffff81111561117857611178611853565b6040519080825280601f01601f1916602001820160405280156111a2576020820181803683370190505b5090507f3000000000000000000000000000000000000000000000000000000000000000816000815181106111d9576111d9611b4a565b60200101907effffffffffffffffffffffffffffffffffffffffffffffffffffffffffffff1916908160001a9053507f78000000000000000000000000000000000000000000000000000000000000008160018151811061123c5761123c611b4a565b60200101907effffffffffffffffffffffffffffffffffffffffffffffffffffffffffffff1916908160001a9053506000611278846002611b7c565b611283906001611b9b565b90505b600181111561133e577f303132333435363738396162636465660000000000000000000000000000000085600f16601081106112c4576112c4611b4a565b1a7f0100000000000000000000000000000000000000000000000000000000000000028282815181106112f9576112f9611b4a565b60200101907effffffffffffffffffffffffffffffffffffffffffffffffffffffffffffff1916908160001a90535060109094049361133781611bb3565b9050611286565b5083156108bd5760405160e560020a62461bcd02815260206004820181905260248201527f537472696e67733a20686578206c656e67746820696e73756666696369656e7460448201526064016107fa565b600081815260018301602052604081205480156114795760006113b4600183611bca565b85549091506000906113c890600190611bca565b905081811461142d5760008660000182815481106113e8576113e8611b4a565b906000526020600020015490508087600001848154811061140b5761140b611b4a565b6000918252602080832090910192909255918252600188019052604090208390555b855486908061143e5761143e611be1565b60019003818190600052602060002001600090559055856001016000868152602001908152602001600020600090556001935050505061060e565b600091505061060e565b8280548282559060005260206000209081019282156114d0579160200282015b828111156114d057825180516114c09184916020909101906114e0565b50916020019190600101906114a3565b506114dc929150611560565b5090565b8280546114ec90611a8b565b90600052602060002090601f01602090048101928261150e5760008555611554565b82601f1061152757805160ff1916838001178555611554565b82800160010185558215611554579182015b82811115611554578251825591602001919060010190611539565b506114dc92915061157d565b808211156114dc5760006115748282611592565b50600101611560565b5b808211156114dc576000815560010161157e565b50805461159e90611a8b565b6000825580601f106115ae575050565b601f016020900490600052602060002090810190610e88919061157d565b6000602082840312156115de57600080fd5b8135600160e060020a0319811681146108bd57600080fd5b6000806040838503121561160957600080fd5b82356006811061161857600080fd5b946020939093013593505050565b60006020828403121561163857600080fd5b5035919050565b60008060006060848603121561165457600080fd5b505081359360208301359350604090920135919050565b60005b8381101561168657818101518382015260200161166e565b83811115611695576000848401525b50505050565b600081518084526116b381602086016020860161166b565b601f01601f19169290920160200192915050565b6020815260006108bd602083018461169b565b600080604083850312156116ed57600080fd5b82359150602083013561ffff8116811461170657600080fd5b809150509250929050565b8035600160a060020a038116811461172857600080fd5b919050565b6000806040838503121561174057600080fd5b8235915061175060208401611711565b90509250929050565b6000806040838503121561176c57600080fd5b50508035926020909101359150565b60e060020a634e487b7102600052602160045260246000fd5b60208101600783106117a8576117a861177b565b91905290565b600060208083018184528085518083526040860191506040848202870101925083870160005b8281101561180257603f198886030184526117f085835161169b565b945092850192908501906001016117d4565b5092979650505050505050565b6020808252825182820181905260009190848201906040850190845b818110156118475783518352928401929184019160010161182b565b50909695505050505050565b60e060020a634e487b7102600052604160045260246000fd5b604051601f8201601f1916810167ffffffffffffffff8111828210171561189557611895611853565b604052919050565b600082601f8301126118ae57600080fd5b813567ffffffffffffffff8111156118c8576118c8611853565b6118db601f8201601f191660200161186c565b8181528460208386010111156118f057600080fd5b816020850160208301376000918101602001919091529392505050565b600082601f83011261191e57600080fd5b8135602067ffffffffffffffff8083111561193b5761193b611853565b81830261194983820161186c565b938452858101830193838101908886111561196357600080fd5b84880192505b8583101561199f578235848111156119815760008081fd5b61198f8a87838c010161189d565b8352509184019190840190611969565b98975050505050505050565b60008060008060008060c087890312156119c457600080fd5b863595506020870135600781106119da57600080fd5b9450604087013567ffffffffffffffff808211156119f757600080fd5b611a038a838b0161190d565b95506060890135915080821115611a1957600080fd5b611a258a838b0161189d565b94506080890135915080821115611a3b57600080fd5b50611a4889828a0161189d565b92505060a087013590509295509295509295565b60208101600683106117a8576117a861177b565b600060208284031215611a8257600080fd5b6108bd82611711565b600281046001821680611a9f57607f821691505b60208210811415611ac35760e060020a634e487b7102600052602260045260246000fd5b50919050565b7f416363657373436f6e74726f6c3a206163636f756e7420000000000000000000815260008351611b0181601785016020880161166b565b7f206973206d697373696e6720726f6c65200000000000000000000000000000006017918401918201528351611b3e81602884016020880161166b565b01602801949350505050565b60e060020a634e487b7102600052603260045260246000fd5b60e060020a634e487b7102600052601160045260246000fd5b6000816000190483118215151615611b9657611b96611b63565b500290565b60008219821115611bae57611bae611b63565b500190565b600081611bc257611bc2611b63565b506000190190565b600082821015611bdc57611bdc611b63565b500390565b60e060020a634e487b7102600052603160045260246000fdfe0c2c7e957bdf811d5a896b04e816b9c382dfb980c93b21b0288b75c85d598acd80e2196015fc06a9d891759f8e4f51eb314ef5e9ea068528a8ed0063b87759f0a26469706673582212208992a8630745e666145bf565067baa5f492c1094ac7645290f83f42f6562e15564736f6c634300080b0033",
  "immutableReferences": {},
  "source": "// SPDX-License-Identifier: GPL-3.0\n/* Notes:\n//add address of queue to board on deployment\n// ????? uint256 queueIndex = 0; // increase with each phase processed so we don't have to clean the queue\n*/\npragma solidity >=0.7.0 <0.9.0;\n\nimport \"@openzeppelin/contracts/access/AccessControlEnumerable.sol\";\nimport \"@openzeppelin/contracts/utils/Counters.sol\";\n\ncontract HexplorationQueue is AccessControlEnumerable {\n    using Counters for Counters.Counter;\n    Counters.Counter internal QUEUE_ID;\n\n    enum ProcessingPhase {\n        Start,\n        Submission,\n        Processing,\n        PlayThrough,\n        Processed,\n        Closed\n    }\n    enum Action {\n        Idle,\n        Move,\n        SetupCamp,\n        BreakDownCamp,\n        Dig,\n        Rest,\n        Help\n    }\n\n    bytes32 public constant VERIFIED_CONTROLLER_ROLE =\n        keccak256(\"VERIFIED_CONTROLLER_ROLE\");\n    bytes32 public constant GAMEPLAY_ROLE = keccak256(\"GAMEPLAY_ROLE\");\n\n    // Array of Queue IDs to be processed.\n    uint256[] public processingQueue;\n\n    // mappings from queue index\n\n    // do we need these 2?\n    mapping(uint256 => uint16) public currentQueuePosition; // ?? increases with each player in queue, then back to 0\n    mapping(uint256 => uint16) public playThroughPosition; // ?? in case we need to batch this too... hopefully not.\n\n    mapping(uint256 => bool) public inProcessingQueue; // game queue is in processing queue\n    mapping(uint256 => ProcessingPhase) public currentPhase; // processingPhase\n    mapping(uint256 => uint256) public queueID; // mapping from game ID to it's queue, updates to 0 when finished\n    mapping(uint256 => uint256) public game; // mapping from queue ID to it's game ID\n    mapping(uint256 => uint256[]) public players; // all players with moves to process\n    mapping(uint256 => uint16) public totalPlayers; // total # of players who will be submitting\n\n    // mappings from queue index => player id\n    mapping(uint256 => mapping(uint256 => Action)) public submissionAction;\n    mapping(uint256 => mapping(uint256 => string[])) public submissionOptions;\n    mapping(uint256 => mapping(uint256 => string)) public submissionLeftHand;\n    mapping(uint256 => mapping(uint256 => string)) public submissionRightHand;\n\n    mapping(uint256 => uint256) randomness; // randomness delivered here at start of each phase processing\n\n    ///////  VRF can kick off processing phase\n\n    constructor(address gameplayAddress) {\n        _setupRole(DEFAULT_ADMIN_ROLE, _msgSender());\n        _setupRole(GAMEPLAY_ROLE, gameplayAddress);\n        QUEUE_ID.increment(); // start at 1\n    }\n\n    // Can set multiple VCs, one for manual pushing, one for keeper\n    function addVerifiedController(address controllerAddress)\n        public\n        onlyRole(DEFAULT_ADMIN_ROLE)\n    {\n        grantRole(VERIFIED_CONTROLLER_ROLE, controllerAddress);\n    }\n\n    // pass total # players making submissions\n    // total can be less than actual totalPlayers in game\n    function requestGameQueue(uint256 gameID, uint16 _totalPlayers)\n        external\n        onlyRole(VERIFIED_CONTROLLER_ROLE)\n        returns (uint256)\n    {\n        return _requestGameQueue(gameID, _totalPlayers);\n    }\n\n    // Sent from controller\n    function sumbitActionForPlayer(\n        uint256 playerID,\n        Action action,\n        string[] memory options,\n        string memory leftHand,\n        string memory rightHand,\n        uint256 _queueID\n    ) public onlyRole(VERIFIED_CONTROLLER_ROLE) {\n        require(\n            currentPhase[_queueID] == ProcessingPhase.Submission,\n            \"Not submission phase\"\n        );\n        if (\n            submissionAction[_queueID][playerID] == Action.Idle &&\n            submissionOptions[_queueID][playerID].length == 0\n        ) {\n            submissionAction[_queueID][playerID] = action;\n            submissionOptions[_queueID][playerID] = options;\n            submissionLeftHand[_queueID][playerID] = leftHand;\n            submissionRightHand[_queueID][playerID] = rightHand;\n\n            players[_queueID].push(playerID);\n\n            // automatically add to queue if last player to submit move\n            if (players[_queueID].length >= totalPlayers[_queueID]) {\n                _processAllActions(_queueID);\n            }\n        }\n    }\n\n    // Will get processed once keeper is available\n    // and previous game queues have been processed\n    function requestProcessActions(uint256 _queueID)\n        public\n        onlyRole(VERIFIED_CONTROLLER_ROLE)\n    {\n        _processAllActions(_queueID);\n    }\n\n    function getAllPlayers(uint256 _queueID)\n        public\n        view\n        returns (uint256[] memory)\n    {\n        return players[_queueID];\n    }\n\n    function getSubmissionOptions(uint256 _queueID, uint256 _playerID)\n        public\n        view\n        returns (string[] memory)\n    {\n        return submissionOptions[_queueID][_playerID];\n    }\n\n    // Gameplay interactions\n    function setPhase(ProcessingPhase phase, uint256 _queueID)\n        external\n        onlyRole(GAMEPLAY_ROLE)\n    {\n        currentPhase[_queueID] = phase;\n    }\n\n    function setRandomNumber(uint256 randomNumber, uint256 _queueID)\n        external\n        onlyRole(GAMEPLAY_ROLE)\n    {\n        randomness[_queueID] = randomNumber;\n    }\n\n    function requestNewQueueID(uint256 _queueID)\n        external\n        onlyRole(GAMEPLAY_ROLE)\n    {\n        uint256 g = game[_queueID];\n        uint16 tp = totalPlayers[_queueID];\n        queueID[g] = _requestGameQueue(g, tp);\n    }\n\n    function setProcessingComplete(uint256 _queueID)\n        external\n        onlyRole(GAMEPLAY_ROLE)\n    {\n        uint256 g = game[_queueID];\n        currentPhase[_queueID] = ProcessingPhase.Processed;\n        queueID[g] = 0;\n    }\n\n    // Internal\n    function _processAllActions(uint256 _queueID) internal {\n        if (!inProcessingQueue[_queueID]) {\n            processingQueue.push(_queueID);\n            inProcessingQueue[_queueID] = true;\n        }\n    }\n\n    function _requestGameQueue(uint256 gameID, uint16 _totalPlayers)\n        internal\n        returns (uint256)\n    {\n        require(queueID[gameID] == 0, \"queue already set\");\n        uint256 newQueueID = QUEUE_ID.current();\n        queueID[gameID] = newQueueID;\n        totalPlayers[gameID] = _totalPlayers;\n        QUEUE_ID.increment();\n        return newQueueID;\n    }\n}\n",
  "sourcePath": "/Users/maxmeier/Developer/Lucky Machines/hexploration/contracts/HexplorationQueue.sol",
  "compiler": {
    "name": "solc",
    "version": "0.8.11+commit.d7f03943.Emscripten.clang"
  },
  "schemaVersion": "3.4.4",
  "updatedAt": "2022-05-17T21:36:03.964Z",
  "devdoc": {
    "kind": "dev",
    "methods": {
      "getRoleAdmin(bytes32)": {
        "details": "Returns the admin role that controls `role`. See {grantRole} and {revokeRole}. To change a role's admin, use {_setRoleAdmin}."
      },
      "getRoleMember(bytes32,uint256)": {
        "details": "Returns one of the accounts that have `role`. `index` must be a value between 0 and {getRoleMemberCount}, non-inclusive. Role bearers are not sorted in any particular way, and their ordering may change at any point. WARNING: When using {getRoleMember} and {getRoleMemberCount}, make sure you perform all queries on the same block. See the following https://forum.openzeppelin.com/t/iterating-over-elements-on-enumerableset-in-openzeppelin-contracts/2296[forum post] for more information."
      },
      "getRoleMemberCount(bytes32)": {
        "details": "Returns the number of accounts that have `role`. Can be used together with {getRoleMember} to enumerate all bearers of a role."
      },
      "grantRole(bytes32,address)": {
        "details": "Grants `role` to `account`. If `account` had not been already granted `role`, emits a {RoleGranted} event. Requirements: - the caller must have ``role``'s admin role."
      },
      "hasRole(bytes32,address)": {
        "details": "Returns `true` if `account` has been granted `role`."
      },
      "renounceRole(bytes32,address)": {
        "details": "Revokes `role` from the calling account. Roles are often managed via {grantRole} and {revokeRole}: this function's purpose is to provide a mechanism for accounts to lose their privileges if they are compromised (such as when a trusted device is misplaced). If the calling account had been revoked `role`, emits a {RoleRevoked} event. Requirements: - the caller must be `account`."
      },
      "revokeRole(bytes32,address)": {
        "details": "Revokes `role` from `account`. If `account` had been granted `role`, emits a {RoleRevoked} event. Requirements: - the caller must have ``role``'s admin role."
      },
      "supportsInterface(bytes4)": {
        "details": "See {IERC165-supportsInterface}."
      }
    },
    "version": 1
  },
  "userdoc": {
    "kind": "user",
    "methods": {},
    "version": 1
  }
}