{
  "contractName": "HexplorationBoard",
  "abi": [
    {
      "inputs": [
        {
          "internalType": "address",
          "name": "adminAddress",
          "type": "address"
        },
        {
          "internalType": "uint256",
          "name": "gridWidth",
          "type": "uint256"
        },
        {
          "internalType": "uint256",
          "name": "gridHeight",
          "type": "uint256"
        },
        {
          "internalType": "address",
          "name": "zoneAddress",
          "type": "address"
        }
      ],
      "stateMutability": "nonpayable",
      "type": "constructor"
    },
    {
      "anonymous": false,
      "inputs": [
        {
          "indexed": true,
          "internalType": "bytes32",
          "name": "role",
          "type": "bytes32"
        },
        {
          "indexed": true,
          "internalType": "bytes32",
          "name": "previousAdminRole",
          "type": "bytes32"
        },
        {
          "indexed": true,
          "internalType": "bytes32",
          "name": "newAdminRole",
          "type": "bytes32"
        }
      ],
      "name": "RoleAdminChanged",
      "type": "event"
    },
    {
      "anonymous": false,
      "inputs": [
        {
          "indexed": true,
          "internalType": "bytes32",
          "name": "role",
          "type": "bytes32"
        },
        {
          "indexed": true,
          "internalType": "address",
          "name": "account",
          "type": "address"
        },
        {
          "indexed": true,
          "internalType": "address",
          "name": "sender",
          "type": "address"
        }
      ],
      "name": "RoleGranted",
      "type": "event"
    },
    {
      "anonymous": false,
      "inputs": [
        {
          "indexed": true,
          "internalType": "bytes32",
          "name": "role",
          "type": "bytes32"
        },
        {
          "indexed": true,
          "internalType": "address",
          "name": "account",
          "type": "address"
        },
        {
          "indexed": true,
          "internalType": "address",
          "name": "sender",
          "type": "address"
        }
      ],
      "name": "RoleRevoked",
      "type": "event"
    },
    {
      "inputs": [],
      "name": "DEFAULT_ADMIN_ROLE",
      "outputs": [
        {
          "internalType": "bytes32",
          "name": "",
          "type": "bytes32"
        }
      ],
      "stateMutability": "view",
      "type": "function"
    },
    {
      "inputs": [],
      "name": "FACTORY_ROLE",
      "outputs": [
        {
          "internalType": "bytes32",
          "name": "",
          "type": "bytes32"
        }
      ],
      "stateMutability": "view",
      "type": "function"
    },
    {
      "inputs": [],
      "name": "GAME_MASTER_ROLE",
      "outputs": [
        {
          "internalType": "bytes32",
          "name": "",
          "type": "bytes32"
        }
      ],
      "stateMutability": "view",
      "type": "function"
    },
    {
      "inputs": [],
      "name": "MAX_BATCH_SIZE",
      "outputs": [
        {
          "internalType": "uint256",
          "name": "",
          "type": "uint256"
        }
      ],
      "stateMutability": "view",
      "type": "function"
    },
    {
      "inputs": [],
      "name": "PLAY_ZONE_ROLE",
      "outputs": [
        {
          "internalType": "bytes32",
          "name": "",
          "type": "bytes32"
        }
      ],
      "stateMutability": "view",
      "type": "function"
    },
    {
      "inputs": [],
      "name": "VERIFIED_CONTROLLER_ROLE",
      "outputs": [
        {
          "internalType": "bytes32",
          "name": "",
          "type": "bytes32"
        }
      ],
      "stateMutability": "view",
      "type": "function"
    },
    {
      "inputs": [
        {
          "internalType": "uint256",
          "name": "transitID",
          "type": "uint256"
        }
      ],
      "name": "_progressTransit",
      "outputs": [],
      "stateMutability": "nonpayable",
      "type": "function"
    },
    {
      "inputs": [
        {
          "internalType": "address",
          "name": "factoryAddress",
          "type": "address"
        }
      ],
      "name": "addFactory",
      "outputs": [],
      "stateMutability": "nonpayable",
      "type": "function"
    },
    {
      "inputs": [
        {
          "internalType": "address",
          "name": "keeperAddress",
          "type": "address"
        }
      ],
      "name": "addKeeper",
      "outputs": [],
      "stateMutability": "nonpayable",
      "type": "function"
    },
    {
      "inputs": [
        {
          "internalType": "address",
          "name": "vcAddress",
          "type": "address"
        }
      ],
      "name": "addVerifiedController",
      "outputs": [],
      "stateMutability": "nonpayable",
      "type": "function"
    },
    {
      "inputs": [
        {
          "internalType": "uint256",
          "name": "gameID",
          "type": "uint256"
        },
        {
          "internalType": "string[2][]",
          "name": "connections",
          "type": "string[2][]"
        }
      ],
      "name": "addZoneConnections",
      "outputs": [],
      "stateMutability": "nonpayable",
      "type": "function"
    },
    {
      "inputs": [
        {
          "internalType": "address[]",
          "name": "playZoneAddresses",
          "type": "address[]"
        },
        {
          "internalType": "string[]",
          "name": "zoneAliases",
          "type": "string[]"
        },
        {
          "internalType": "uint256",
          "name": "gameID",
          "type": "uint256"
        }
      ],
      "name": "addZones",
      "outputs": [],
      "stateMutability": "nonpayable",
      "type": "function"
    },
    {
      "inputs": [],
      "name": "cleanQueue",
      "outputs": [],
      "stateMutability": "nonpayable",
      "type": "function"
    },
    {
      "inputs": [
        {
          "internalType": "address",
          "name": "_playerRegistry",
          "type": "address"
        },
        {
          "internalType": "address",
          "name": "_gameRegistry",
          "type": "address"
        }
      ],
      "name": "createGame",
      "outputs": [
        {
          "internalType": "uint256",
          "name": "gameID",
          "type": "uint256"
        }
      ],
      "stateMutability": "nonpayable",
      "type": "function"
    },
    {
      "inputs": [
        {
          "internalType": "address",
          "name": "_playerRegistry",
          "type": "address"
        },
        {
          "internalType": "address",
          "name": "_gameRegistry",
          "type": "address"
        },
        {
          "internalType": "address[]",
          "name": "playZoneAddresses",
          "type": "address[]"
        },
        {
          "internalType": "string[]",
          "name": "zoneAliases",
          "type": "string[]"
        }
      ],
      "name": "createGame",
      "outputs": [
        {
          "internalType": "uint256",
          "name": "gameID",
          "type": "uint256"
        }
      ],
      "stateMutability": "nonpayable",
      "type": "function"
    },
    {
      "inputs": [],
      "name": "createGrid",
      "outputs": [],
      "stateMutability": "nonpayable",
      "type": "function"
    },
    {
      "inputs": [
        {
          "internalType": "uint256",
          "name": "",
          "type": "uint256"
        },
        {
          "internalType": "uint256",
          "name": "",
          "type": "uint256"
        }
      ],
      "name": "currentPlayZone",
      "outputs": [
        {
          "internalType": "string",
          "name": "",
          "type": "string"
        }
      ],
      "stateMutability": "view",
      "type": "function"
    },
    {
      "inputs": [
        {
          "internalType": "uint256",
          "name": "",
          "type": "uint256"
        },
        {
          "internalType": "uint256",
          "name": "",
          "type": "uint256"
        }
      ],
      "name": "entryQueue",
      "outputs": [
        {
          "internalType": "uint256",
          "name": "",
          "type": "uint256"
        }
      ],
      "stateMutability": "view",
      "type": "function"
    },
    {
      "inputs": [
        {
          "internalType": "uint256",
          "name": "gameID",
          "type": "uint256"
        },
        {
          "internalType": "address",
          "name": "playerAddress",
          "type": "address"
        },
        {
          "internalType": "uint256",
          "name": "pathIndex",
          "type": "uint256"
        }
      ],
      "name": "exitToPath",
      "outputs": [
        {
          "internalType": "bool",
          "name": "exitSuccess",
          "type": "bool"
        }
      ],
      "stateMutability": "nonpayable",
      "type": "function"
    },
    {
      "inputs": [
        {
          "internalType": "uint256",
          "name": "",
          "type": "uint256"
        }
      ],
      "name": "gameState",
      "outputs": [
        {
          "internalType": "uint256",
          "name": "",
          "type": "uint256"
        }
      ],
      "stateMutability": "view",
      "type": "function"
    },
    {
      "inputs": [
        {
          "internalType": "uint256",
          "name": "gameID",
          "type": "uint256"
        },
        {
          "internalType": "string",
          "name": "_zoneAlias",
          "type": "string"
        }
      ],
      "name": "getInputs",
      "outputs": [
        {
          "internalType": "string[]",
          "name": "zoneInputs",
          "type": "string[]"
        }
      ],
      "stateMutability": "view",
      "type": "function"
    },
    {
      "inputs": [
        {
          "internalType": "uint256",
          "name": "gameID",
          "type": "uint256"
        },
        {
          "internalType": "string",
          "name": "_zoneAlias",
          "type": "string"
        }
      ],
      "name": "getOutputs",
      "outputs": [
        {
          "internalType": "string[]",
          "name": "zoneOutputs",
          "type": "string[]"
        }
      ],
      "stateMutability": "view",
      "type": "function"
    },
    {
      "inputs": [
        {
          "internalType": "uint256",
          "name": "gameID",
          "type": "uint256"
        }
      ],
      "name": "getOverflowQueue",
      "outputs": [
        {
          "internalType": "uint256[]",
          "name": "",
          "type": "uint256[]"
        }
      ],
      "stateMutability": "view",
      "type": "function"
    },
    {
      "inputs": [
        {
          "internalType": "uint256",
          "name": "gameID",
          "type": "uint256"
        }
      ],
      "name": "getPlayZones",
      "outputs": [
        {
          "internalType": "string[]",
          "name": "",
          "type": "string[]"
        }
      ],
      "stateMutability": "view",
      "type": "function"
    },
    {
      "inputs": [
        {
          "internalType": "bytes32",
          "name": "role",
          "type": "bytes32"
        }
      ],
      "name": "getRoleAdmin",
      "outputs": [
        {
          "internalType": "bytes32",
          "name": "",
          "type": "bytes32"
        }
      ],
      "stateMutability": "view",
      "type": "function"
    },
    {
      "inputs": [
        {
          "internalType": "bytes32",
          "name": "role",
          "type": "bytes32"
        },
        {
          "internalType": "uint256",
          "name": "index",
          "type": "uint256"
        }
      ],
      "name": "getRoleMember",
      "outputs": [
        {
          "internalType": "address",
          "name": "",
          "type": "address"
        }
      ],
      "stateMutability": "view",
      "type": "function"
    },
    {
      "inputs": [
        {
          "internalType": "bytes32",
          "name": "role",
          "type": "bytes32"
        }
      ],
      "name": "getRoleMemberCount",
      "outputs": [
        {
          "internalType": "uint256",
          "name": "",
          "type": "uint256"
        }
      ],
      "stateMutability": "view",
      "type": "function"
    },
    {
      "inputs": [],
      "name": "getZoneAliases",
      "outputs": [
        {
          "internalType": "string[]",
          "name": "",
          "type": "string[]"
        }
      ],
      "stateMutability": "view",
      "type": "function"
    },
    {
      "inputs": [
        {
          "internalType": "bytes32",
          "name": "role",
          "type": "bytes32"
        },
        {
          "internalType": "address",
          "name": "account",
          "type": "address"
        }
      ],
      "name": "grantRole",
      "outputs": [],
      "stateMutability": "nonpayable",
      "type": "function"
    },
    {
      "inputs": [],
      "name": "gridHeight",
      "outputs": [
        {
          "internalType": "uint256",
          "name": "",
          "type": "uint256"
        }
      ],
      "stateMutability": "view",
      "type": "function"
    },
    {
      "inputs": [],
      "name": "gridWidth",
      "outputs": [
        {
          "internalType": "uint256",
          "name": "",
          "type": "uint256"
        }
      ],
      "stateMutability": "view",
      "type": "function"
    },
    {
      "inputs": [
        {
          "internalType": "bytes32",
          "name": "role",
          "type": "bytes32"
        },
        {
          "internalType": "address",
          "name": "account",
          "type": "address"
        }
      ],
      "name": "hasRole",
      "outputs": [
        {
          "internalType": "bool",
          "name": "",
          "type": "bool"
        }
      ],
      "stateMutability": "view",
      "type": "function"
    },
    {
      "inputs": [
        {
          "internalType": "uint256",
          "name": "",
          "type": "uint256"
        }
      ],
      "name": "initialPlayZone",
      "outputs": [
        {
          "internalType": "string",
          "name": "",
          "type": "string"
        }
      ],
      "stateMutability": "view",
      "type": "function"
    },
    {
      "inputs": [
        {
          "internalType": "address",
          "name": "factoryAddress",
          "type": "address"
        }
      ],
      "name": "isFactory",
      "outputs": [
        {
          "internalType": "bool",
          "name": "factoryIsAuthorized",
          "type": "bool"
        }
      ],
      "stateMutability": "view",
      "type": "function"
    },
    {
      "inputs": [
        {
          "internalType": "uint256",
          "name": "",
          "type": "uint256"
        }
      ],
      "name": "lastEntryPlayerID",
      "outputs": [
        {
          "internalType": "uint256",
          "name": "",
          "type": "uint256"
        }
      ],
      "stateMutability": "view",
      "type": "function"
    },
    {
      "inputs": [],
      "name": "needsUpdate",
      "outputs": [
        {
          "internalType": "bool",
          "name": "doesNeedUpdate",
          "type": "bool"
        }
      ],
      "stateMutability": "view",
      "type": "function"
    },
    {
      "inputs": [
        {
          "internalType": "uint256",
          "name": "",
          "type": "uint256"
        },
        {
          "internalType": "string",
          "name": "",
          "type": "string"
        },
        {
          "internalType": "uint256",
          "name": "",
          "type": "uint256"
        }
      ],
      "name": "playZoneInputs",
      "outputs": [
        {
          "internalType": "string",
          "name": "",
          "type": "string"
        }
      ],
      "stateMutability": "view",
      "type": "function"
    },
    {
      "inputs": [
        {
          "internalType": "uint256",
          "name": "",
          "type": "uint256"
        },
        {
          "internalType": "string",
          "name": "",
          "type": "string"
        },
        {
          "internalType": "uint256",
          "name": "",
          "type": "uint256"
        }
      ],
      "name": "playZoneOutputs",
      "outputs": [
        {
          "internalType": "string",
          "name": "",
          "type": "string"
        }
      ],
      "stateMutability": "view",
      "type": "function"
    },
    {
      "inputs": [
        {
          "internalType": "uint256",
          "name": "",
          "type": "uint256"
        },
        {
          "internalType": "uint256",
          "name": "",
          "type": "uint256"
        }
      ],
      "name": "playZones",
      "outputs": [
        {
          "internalType": "string",
          "name": "",
          "type": "string"
        }
      ],
      "stateMutability": "view",
      "type": "function"
    },
    {
      "inputs": [
        {
          "internalType": "uint256",
          "name": "gameID",
          "type": "uint256"
        },
        {
          "internalType": "address",
          "name": "playerAddress",
          "type": "address"
        },
        {
          "internalType": "string",
          "name": "_zoneAlias",
          "type": "string"
        }
      ],
      "name": "playerEnteredZone",
      "outputs": [],
      "stateMutability": "nonpayable",
      "type": "function"
    },
    {
      "inputs": [
        {
          "internalType": "uint256",
          "name": "",
          "type": "uint256"
        }
      ],
      "name": "playerRegistry",
      "outputs": [
        {
          "internalType": "uint256",
          "name": "",
          "type": "uint256"
        }
      ],
      "stateMutability": "view",
      "type": "function"
    },
    {
      "inputs": [],
      "name": "prAddress",
      "outputs": [
        {
          "internalType": "address",
          "name": "",
          "type": "address"
        }
      ],
      "stateMutability": "view",
      "type": "function"
    },
    {
      "inputs": [
        {
          "internalType": "uint256",
          "name": "gameID",
          "type": "uint256"
        },
        {
          "internalType": "address[]",
          "name": "playerAddresses",
          "type": "address[]"
        },
        {
          "internalType": "uint256[]",
          "name": "pathIndices",
          "type": "uint256[]"
        },
        {
          "internalType": "uint256",
          "name": "transitID",
          "type": "uint256"
        }
      ],
      "name": "queueExitToPaths",
      "outputs": [],
      "stateMutability": "nonpayable",
      "type": "function"
    },
    {
      "inputs": [
        {
          "internalType": "uint256",
          "name": "gameID",
          "type": "uint256"
        },
        {
          "internalType": "string[]",
          "name": "inputAliases",
          "type": "string[]"
        },
        {
          "internalType": "uint256[]",
          "name": "inputs",
          "type": "uint256[]"
        },
        {
          "internalType": "string[]",
          "name": "outputAliases",
          "type": "string[]"
        },
        {
          "internalType": "uint256[]",
          "name": "outputs",
          "type": "uint256[]"
        }
      ],
      "name": "removeZoneConnections",
      "outputs": [],
      "stateMutability": "nonpayable",
      "type": "function"
    },
    {
      "inputs": [
        {
          "internalType": "bytes32",
          "name": "role",
          "type": "bytes32"
        },
        {
          "internalType": "address",
          "name": "account",
          "type": "address"
        }
      ],
      "name": "renounceRole",
      "outputs": [],
      "stateMutability": "nonpayable",
      "type": "function"
    },
    {
      "inputs": [
        {
          "internalType": "bytes32",
          "name": "role",
          "type": "bytes32"
        },
        {
          "internalType": "address",
          "name": "account",
          "type": "address"
        }
      ],
      "name": "revokeRole",
      "outputs": [],
      "stateMutability": "nonpayable",
      "type": "function"
    },
    {
      "inputs": [],
      "name": "runUpdate",
      "outputs": [],
      "stateMutability": "nonpayable",
      "type": "function"
    },
    {
      "inputs": [
        {
          "internalType": "string",
          "name": "initialZone",
          "type": "string"
        },
        {
          "internalType": "uint256",
          "name": "gameID",
          "type": "uint256"
        }
      ],
      "name": "setInitialPlayZone",
      "outputs": [],
      "stateMutability": "nonpayable",
      "type": "function"
    },
    {
      "inputs": [
        {
          "internalType": "uint256",
          "name": "gameID",
          "type": "uint256"
        }
      ],
      "name": "startGame",
      "outputs": [],
      "stateMutability": "nonpayable",
      "type": "function"
    },
    {
      "inputs": [
        {
          "internalType": "uint256",
          "name": "transitID",
          "type": "uint256"
        }
      ],
      "name": "startTransit",
      "outputs": [],
      "stateMutability": "nonpayable",
      "type": "function"
    },
    {
      "inputs": [
        {
          "internalType": "bytes4",
          "name": "interfaceId",
          "type": "bytes4"
        }
      ],
      "name": "supportsInterface",
      "outputs": [
        {
          "internalType": "bool",
          "name": "",
          "type": "bool"
        }
      ],
      "stateMutability": "view",
      "type": "function"
    },
    {
      "inputs": [],
      "name": "zoneAddress",
      "outputs": [
        {
          "internalType": "address",
          "name": "",
          "type": "address"
        }
      ],
      "stateMutability": "view",
      "type": "function"
    },
    {
      "inputs": [
        {
          "internalType": "uint256",
          "name": "",
          "type": "uint256"
        },
        {
          "internalType": "string",
          "name": "",
          "type": "string"
        }
      ],
      "name": "zoneAlias",
      "outputs": [
        {
          "internalType": "address",
          "name": "",
          "type": "address"
        }
      ],
      "stateMutability": "view",
      "type": "function"
    },
    {
      "inputs": [
        {
          "internalType": "uint256",
          "name": "",
          "type": "uint256"
        }
      ],
      "name": "zoneAliases",
      "outputs": [
        {
          "internalType": "string",
          "name": "",
          "type": "string"
        }
      ],
      "stateMutability": "view",
      "type": "function"
    },
    {
      "inputs": [
        {
          "internalType": "uint256",
          "name": "",
          "type": "uint256"
        },
        {
          "internalType": "string",
          "name": "",
          "type": "string"
        }
      ],
      "name": "zoneEnabled",
      "outputs": [
        {
          "internalType": "bool",
          "name": "",
          "type": "bool"
        }
      ],
      "stateMutability": "view",
      "type": "function"
    },
    {
      "inputs": [
        {
          "internalType": "uint256",
          "name": "randomness",
          "type": "uint256"
        }
      ],
      "name": "setRandomness",
      "outputs": [],
      "stateMutability": "nonpayable",
      "type": "function"
    },
    {
      "inputs": [
        {
          "internalType": "uint256",
          "name": "gameID",
          "type": "uint256"
        }
      ],
      "name": "start",
      "outputs": [],
      "stateMutability": "nonpayable",
      "type": "function"
    },
    {
      "inputs": [
        {
          "internalType": "string",
          "name": "zoneAlias",
          "type": "string"
        },
        {
          "internalType": "enum HexplorationZone.Tile",
          "name": "tile",
          "type": "uint8"
        },
        {
          "internalType": "uint256",
          "name": "gameID",
          "type": "uint256"
        }
      ],
      "name": "enableZone",
      "outputs": [],
      "stateMutability": "nonpayable",
      "type": "function"
    },
    {
      "inputs": [
        {
          "internalType": "string[]",
          "name": "zonePath",
          "type": "string[]"
        },
        {
          "internalType": "address",
          "name": "playerAddress",
          "type": "address"
        },
        {
          "internalType": "uint256",
          "name": "gameID",
          "type": "uint256"
        },
        {
          "internalType": "enum HexplorationZone.Tile[]",
          "name": "tiles",
          "type": "uint8[]"
        }
      ],
      "name": "moveThroughPath",
      "outputs": [],
      "stateMutability": "nonpayable",
      "type": "function"
    }
  ],
  "bytecode": "0x60806040523480156200001157600080fd5b506040516200493c3803806200493c8339810160408190526200003491620002a8565b83838383836200004f600082640100000000620000c9810204565b620000847f1d93c87416ca7b54f0fb8323167b72760e8e2ec93d48660953897a150f97a8b482640100000000620000c9810204565b50600e92909255600f5560108054600160a060020a03928316600160a060020a031991821617909155601380549490921693169290921790915550620002f392505050565b620000de8282640100000000620000e2810204565b5050565b620000fc8282640100000000620028116200012982021704565b600082815260016020526040902062000124908264010000000062002895620001c582021704565b505050565b6200013e8282640100000000620001ee810204565b620000de57600082815260208181526040808320600160a060020a03851684529091529020805460ff191660011790556200018164010000000062000217810204565b600160a060020a031681600160a060020a0316837f2f8788117e7eff1d82e926ec794901d17c78024a50270940304540a733656f0d60405160405180910390a45050565b6000620001e583600160a060020a0384166401000000006200021b810204565b90505b92915050565b600091825260208281526040808420600160a060020a0393909316845291905290205460ff1690565b3390565b600062000232838364010000000062000273810204565b6200026a57508154600181810184556000848152602080822090930184905584548482528286019093526040902091909155620001e8565b506000620001e8565b60009081526001919091016020526040902054151590565b8051600160a060020a0381168114620002a357600080fd5b919050565b60008060008060808587031215620002bf57600080fd5b620002ca856200028b565b93506020850151925060408501519150620002e8606086016200028b565b905092959194509250565b61463980620003036000396000f3fe608060405234801561001057600080fd5b506004361061039d5760003560e060020a9004806395805dad116101ed578063cfdbf25411610113578063d91413ba116100b1578063f643b8fd11610080578063f643b8fd1461084d578063f843070814610860578063fa9f343814610873578063fdd198c31461088657600080fd5b8063d91413ba146107d5578063e5ed1d59146107e8578063eb33983d146107fb578063ed3719a51461080e57600080fd5b8063d3fb7289116100ed578063d3fb72891461077c578063d4f5b1521461079c578063d547741f146107af578063d75e7980146107c257600080fd5b8063cfdbf2541461074c578063d1e18d2614610754578063d2d6756b1461075c57600080fd5b8063aab2aeb81161018b578063babdeefa1161015a578063babdeefa14610700578063c06dea4e14610713578063ca15c87314610724578063cd1ec7f21461073757600080fd5b8063aab2aeb8146106b8578063ad1def1e146106d8578063b2df0ca2146104ac578063b40c89df146106ed57600080fd5b80639f82bcc0116101c75780639f82bcc014610677578063a217fddf1461068a578063a4f9c9df14610692578063a6f979ff146106a557600080fd5b806395805dad1461063e5780639eb356cb146106515780639f6c40171461066457600080fd5b80632f2ff15d116102d25780634032b72b116102705780637cc75d1c1161023f5780637cc75d1c146105fd57806384bf09b6146106105780639010d07c1461061857806391d148541461062b57600080fd5b80634032b72b146105a45780634e0e1a3e146105b757806351709a73146105d75780636b6ec869146105ea57600080fd5b806336568abe116102ac57806336568abe1461056d578063374f1d351461058057806338b145df146105935780633ca61a581461059c57600080fd5b80632f2ff15d1461053f57806331e019f614610552578063346c94091461056557600080fd5b8063190060181161033f578063248a9ca311610319578063248a9ca3146104e3578063296787561461050657806329ce1ec5146105195780632c47669a1461052c57600080fd5b80631900601814610499578063194f2a36146104ae5780631c834a7f146104ce57600080fd5b80630f04ba671161037b5780630f04ba6714610418578063108c5e141461042b578063153a75901461043457806317d7e8331461047957600080fd5b806301ffc9a7146103a257806304a0fb17146103ca5780630b197f2e146103ed575b600080fd5b6103b56103b036600461374b565b610899565b60405190151581526020015b60405180910390f35b6103df6000805160206145c483398151915281565b6040519081526020016103c1565b60105461040090600160a060020a031681565b604051600160a060020a0390911681526020016103c1565b6103b561042636600461378a565b6108dd565b6103df600f5481565b610400610442366004613898565b60086020908152600092835260409092208151808301840180519281529084019290930191909120915254600160a060020a031681565b61048c6104873660046138df565b6108f7565b6040516103c19190613959565b6104ac6104a7366004613a70565b6109b0565b005b6104c16104bc366004613898565b610afc565b6040516103c19190613b27565b6103df6000805160206145e483398151915281565b6103df6104f1366004613b88565b60009081526020819052604090206001015490565b6104ac610514366004613c02565b610e3f565b6104ac61052736600461378a565b610e5e565b6104ac61053a366004613c77565b610e85565b6104ac61054d366004613ce4565b610ed2565b6104ac610560366004613d28565b610efc565b6103b5611092565b6104ac61057b366004613ce4565b6110e3565b61048c61058e366004613b88565b61116e565b6103df600e5481565b6104c1611199565b6104ac6105b236600461378a565b611272565b6103df6105c5366004613b88565b60046020526000908152604090205481565b61048c6105e5366004613e01565b6112a2565b6104c16105f8366004613898565b6112f6565b6103df61060b3660046138df565b611626565b6104ac611657565b6104006106263660046138df565b6118f7565b6103b5610639366004613ce4565b611916565b6104ac61064c366004613b88565b61193f565b6103b561065f366004613e40565b61198d565b6104ac610672366004613b88565b611dda565b6104ac610685366004613e78565b611df2565b6103df600081565b6104ac6106a0366004613b88565b611eae565b6103df6106b3366004613ebd565b611ec6565b6103df6106c6366004613b88565b600b6020526000908152604090205481565b6103df6000805160206145a483398151915281565b61048c6106fb366004613e01565b611fab565b6104c161070e366004613b88565b611fe2565b600254600160a060020a0316610400565b6103df610732366004613b88565b6120ce565b6103df60008051602061458483398151915281565b6103df60c881565b6104ac6120e5565b6103df61076a366004613b88565b60056020526000908152604090205481565b61078f61078a366004613b88565b6121eb565b6040516103c19190613eeb565b6104ac6107aa36600461378a565b61224d565b6104ac6107bd366004613ce4565b612270565b61048c6107d03660046138df565b612295565b6103df6107e3366004613f2f565b6122b9565b6104ac6107f6366004613b88565b6123dd565b61048c610809366004613b88565b6123f5565b6103b561081c366004613898565b6014602090815260009283526040909220815180830184018051928152908401929093019190912091525460ff1681565b6104ac61085b366004613fb8565b61240e565b6104ac61086e3660046140c9565b61260f565b6104ac610881366004614120565b612720565b6104ac610894366004613b88565b6127f3565b6000600160e060020a031982167f5a05180f0000000000000000000000000000000000000000000000000000000014806108d757506108d7826128aa565b92915050565b60006108d76000805160206145c483398151915283611916565b6006602052816000526040600020818154811061091357600080fd5b9060005260206000200160009150915050805461092f90614179565b80601f016020809104026020016040519081016040528092919081815260200182805461095b90614179565b80156109a85780601f1061097d576101008083540402835291602001916109a8565b820191906000526020600020905b81548152906001019060200180831161098b57829003601f168201915b505050505081565b6000805160206145a48339815191526109c881612911565b8151845114610a215760405160e560020a62461bcd02815260206004820181905260248201527f696e70757473202f206f757470757473206c656e677468206d69736d6174636860448201526064015b60405180910390fd5b610a2c86868661291b565b610a7b5760405160e560020a62461bcd02815260206004820152600e60248201527f696e7075747320696e76616c69640000000000000000000000000000000000006044820152606401610a18565b610a868684846129be565b610ad55760405160e560020a62461bcd02815260206004820152600f60248201527f6f75747075747320696e76616c696400000000000000000000000000000000006044820152606401610a18565b60005b8451811015610af35780610aeb816141d0565b915050610ad8565b50505050505050565b60008281526009602052604080822090516060929190610b1d9085906141eb565b9081526020016040518091039020805480602002602001604051908101604052809291908181526020016000905b82821015610bf7578382906000526020600020018054610b6a90614179565b80601f0160208091040260200160405190810160405280929190818152602001828054610b9690614179565b8015610be35780601f10610bb857610100808354040283529160200191610be3565b820191906000526020600020905b815481529060010190602001808311610bc657829003601f168201915b505050505081526020019060010190610b4b565b505060008080526009602052604051939450927fec8156718a8372b1db44bb411437d0870f3e3790d4a08526d024ce1b0b668f6b9250610c39915086906141eb565b9081526020016040518091039020805480602002602001604051908101604052809291908181526020016000905b82821015610d13578382906000526020600020018054610c8690614179565b80601f0160208091040260200160405190810160405280929190818152602001828054610cb290614179565b8015610cff5780601f10610cd457610100808354040283529160200191610cff565b820191906000526020600020905b815481529060010190602001808311610ce257829003601f168201915b505050505081526020019060010190610c67565b505050509050600082511115610e3357600081518351610d339190614207565b67ffffffffffffffff811115610d4b57610d4b6137a7565b604051908082528060200260200182016040528015610d7e57816020015b6060815260200190600190039081610d695790505b50905060005b8151811015610e2c578251811015610dd257828181518110610da857610da861421f565b6020026020010151828281518110610dc257610dc261421f565b6020026020010181905250610e16565b83835182610de09190614238565b81518110610df057610df061421f565b6020026020010151828281518110610e0a57610e0a61421f565b60200260200101819052505b8194508080610e24906141d0565b915050610d84565b5050610e37565b8092505b505092915050565b600080516020614584833981519152610e5781612911565b5050505050565b6000610e6981612911565b610e816000805160206145c483398151915283612a59565b5050565b6000805160206145a4833981519152610e9d81612911565b8251845114610ec15760405160e560020a62461bcd028152600401610a189061424f565b610ecc848484612a63565b50505050565b600082815260208190526040902060010154610eed81612911565b610ef78383612bc2565b505050565b6000805160206145e4833981519152610f1481612911565b6013548551600160a060020a03909116906328d7e11a90869086908990600090610f4057610f4061421f565b60200260200101516040518463ffffffff1660e060020a028152600401610f69939291906142ac565b600060405180830381600087803b158015610f8357600080fd5b505af1158015610f97573d6000803e3d6000fd5b50506013548751600160a060020a0390911692506398bd75729150869086908990610fc490600190614238565b81518110610fd457610fd461421f565b60200260200101516040518463ffffffff1660e060020a028152600401610ffd939291906142ac565b600060405180830381600087803b15801561101757600080fd5b505af115801561102b573d6000803e3d6000fd5b5050505060005b855181101561108a576110788682815181106110505761105061421f565b602002602001015184838151811061106a5761106a61421f565b60200260200101518661260f565b80611082816141d0565b915050611032565b505050505050565b6000805b6003548110156110df57600381815481106110b3576110b361421f565b90600052602060002001546000146110cd57600191505090565b806110d7816141d0565b915050611096565b5090565b600160a060020a03811633146111645760405160e560020a62461bcd02815260206004820152602f60248201527f416363657373436f6e74726f6c3a2063616e206f6e6c792072656e6f756e636560448201527f20726f6c657320666f722073656c6600000000000000000000000000000000006064820152608401610a18565b610e818282612be4565b6011818154811061117e57600080fd5b90600052602060002001600091509050805461092f90614179565b60606011805480602002602001604051908101604052809291908181526020016000905b828210156112695783829060005260206000200180546111dc90614179565b80601f016020809104026020016040519081016040528092919081815260200182805461120890614179565b80156112555780601f1061122a57610100808354040283529160200191611255565b820191906000526020600020905b81548152906001019060200180831161123857829003601f168201915b5050505050815260200190600101906111bd565b50505050905090565b6000805160206145a483398151915261128a81612911565b610e816000805160206145e483398151915283612a59565b600960209081526000848152604090208351808501830180519281529083019285019290922091528054829081106112d957600080fd5b906000526020600020016000925092505050805461092f90614179565b6000828152600a6020526040808220905160609291906113179085906141eb565b9081526020016040518091039020805480602002602001604051908101604052809291908181526020016000905b828210156113f157838290600052602060002001805461136490614179565b80601f016020809104026020016040519081016040528092919081815260200182805461139090614179565b80156113dd5780601f106113b2576101008083540402835291602001916113dd565b820191906000526020600020905b8154815290600101906020018083116113c057829003601f168201915b505050505081526020019060010190611345565b50506000808052600a602052604051939450927f13da86008ba1c6922daee3e07db95305ef49ebced9f5467a0b8613fcc6b343e39250611433915086906141eb565b9081526020016040518091039020805480602002602001604051908101604052809291908181526020016000905b8282101561150d57838290600052602060002001805461148090614179565b80601f01602080910402602001604051908101604052809291908181526020018280546114ac90614179565b80156114f95780601f106114ce576101008083540402835291602001916114f9565b820191906000526020600020905b8154815290600101906020018083116114dc57829003601f168201915b505050505081526020019060010190611461565b505050509050600082511115610e335760008151835161152d9190614207565b67ffffffffffffffff811115611545576115456137a7565b60405190808252806020026020018201604052801561157857816020015b60608152602001906001900390816115635790505b50905060005b8151811015610e2c5782518110156115cc578281815181106115a2576115a261421f565b60200260200101518282815181106115bc576115bc61421f565b6020026020010181905250611610565b838351826115da9190614238565b815181106115ea576115ea61421f565b60200260200101518282815181106116045761160461421f565b60200260200101819052505b819450808061161e906141d0565b91505061157e565b600d602052816000526040600020818154811061164257600080fd5b90600052602060002001600091509150505481565b61166f6000805160206145c483398151915233611916565b8061168d575061168d6000805160206145a483398151915233611916565b6116ac5760405160e560020a62461bcd028152600401610a18906142d4565b6011546118f5576000600f54600e546116c59190614331565b67ffffffffffffffff8111156116dd576116dd6137a7565b604051908082528060200260200182016040528015611706578160200160208202803683370190505b50600f54600e546040517f9f6b56490000000000000000000000000000000000000000000000000000000081526004810192909252602482015290915073__XYCoordinates_________________________90639f6b564990604401600060405180830381865af415801561177f573d6000803e3d6000fd5b505050506040513d6000823e601f3d908101601f191682016040526117a79190810190614350565b80516117bb91601191602090910190613606565b5060005b8151811015611815576010548251600160a060020a03909116908390839081106117eb576117eb61421f565b600160a060020a03909216602092830291909101909101528061180d816141d0565b9150506117bf565b506118f3816011805480602002602001604051908101604052809291908181526020016000905b828210156118e857838290600052602060002001805461185b90614179565b80601f016020809104026020016040519081016040528092919081815260200182805461188790614179565b80156118d45780601f106118a9576101008083540402835291602001916118d4565b820191906000526020600020905b8154815290600101906020018083116118b757829003601f168201915b50505050508152602001906001019061183c565b505050506000612a63565b505b565b600082815260016020526040812061190f9083612c06565b9392505050565b600091825260208281526040808420600160a060020a0393909316845291905290205460ff1690565b6000805160206145e483398151915261195781612911565b50600380546001810182556000919091527fc2575a0e9e593c00f959f8c92f12db2869c3395a3b0502d05e2516446f71f85b0155565b6002546040517fbca7caa000000000000000000000000000000000000000000000000000000000815260048101859052600160a060020a038481166024830152600092839291169063bca7caa090604401602060405180830381865afa1580156119fb573d6000803e3d6000fd5b505050506040513d601f19601f82011682018060405250810190611a1f919061443a565b6000868152600c60209081526040808320848452909152812080549293509091611a4890614179565b80601f0160208091040260200160405190810160405280929190818152602001828054611a7490614179565b8015611ac15780601f10611a9657610100808354040283529160200191611ac1565b820191906000526020600020905b815481529060010190602001808311611aa457829003601f168201915b505050505090506000611ad487836112f6565b805190915080611b295760405160e560020a62461bcd02815260206004820152601760248201527f4e6f206578697420706174687320617661696c61626c650000000000000000006044820152606401610a18565b60008881526008602052604080822090519196508691611b4a9086906141eb565b90815260405190819003602001902054600160a060020a031690506000828811611b745787611b77565b60005b90506000848281518110611b8d57611b8d61421f565b602002602001015190506000600860008d815260200190815260200160002082604051611bba91906141eb565b908152602001604051809103902060009054906101000a9004600160a060020a0316905083600160a060020a0316637caf12808c8e8a6040518463ffffffff1660e060020a028152600401611c11939291906142ac565b602060405180830381865afa158015611c2e573d6000803e3d6000fd5b505050506040513d601f19601f82011682018060405250810190611c529190614453565b8015611ccd575080600160a060020a031663e15b3ad08c8e856040518463ffffffff1660e060020a028152600401611c8c939291906142ac565b602060405180830381865afa158015611ca9573d6000803e3d6000fd5b505050506040513d601f19601f82011682018060405250810190611ccd9190614453565b15611dcb5783600160a060020a03166328d7e11a8c8e8a6040518463ffffffff1660e060020a028152600401611d05939291906142ac565b600060405180830381600087803b158015611d1f57600080fd5b505af1158015611d33573d6000803e3d6000fd5b5050505080600160a060020a03166398bd75728c8e856040518463ffffffff1660e060020a028152600401611d6a939291906142ac565b600060405180830381600087803b158015611d8457600080fd5b505af1158015611d98573d6000803e3d6000fd5b50505060008d8152600c602090815260408083208c845282529091208451611dc59350909185019061365f565b50600198505b50505050505050509392505050565b6000805160206145e4833981519152610e8181612911565b6000805160206145e4833981519152611e0a81612911565b60008281526004602052604090205415611e8f5760405160e560020a62461bcd02815260206004820152602c60248201527f63616e27742073657420696e697469616c207a6f6e652c2067616d6520616c7260448201527f65616479207374617274656400000000000000000000000000000000000000006064820152608401610a18565b60008281526007602090815260409091208451610ecc9286019061365f565b600080516020614584833981519152610e8181612911565b6000611ee06000805160206145c483398151915233611916565b80611efe5750611efe6000805160206145a483398151915233611916565b611f1d5760405160e560020a62461bcd028152600401610a18906142d4565b82600260006101000a815481600160a060020a030219169083600160a060020a0316021790555081600160a060020a0316630a75806e6040518163ffffffff1660e060020a0281526004016020604051808303816000875af1158015611f87573d6000803e3d6000fd5b505050506040513d601f19601f8201168201806040525081019061190f919061443a565b600a60209081526000848152604090208351808501830180519281529083019285019290922091528054829081106112d957600080fd5b606060066000838152602001908152602001600020805480602002602001604051908101604052809291908181526020016000905b828210156120c357838290600052602060002001805461203690614179565b80601f016020809104026020016040519081016040528092919081815260200182805461206290614179565b80156120af5780601f10612084576101008083540402835291602001916120af565b820191906000526020600020905b81548152906001019060200180831161209257829003601f168201915b505050505081526020019060010190612017565b505050509050919050565b60008181526001602052604081206108d790612c12565b6000805160206145e48339815191526120fd81612911565b60008060005b60035481101561216c57600381815481106121205761212061421f565b906000526020600020015460001461215a57600381815481106121455761214561421f565b9060005260206000200154925080915061216c565b80612164816141d0565b915050612103565b5060008281526004602052604090205461218e5761218982612c1c565b6121ae565b600082815260046020526040902054600114156121ae576121ae82612ca7565b60008281526004602052604090205460011015610ef7576000600382815481106121da576121da61421f565b600091825260209091200155505050565b6000818152600d602090815260409182902080548351818402810184019094528084526060939283018282801561224157602002820191906000526020600020905b81548152602001906001019080831161222d575b50505050509050919050565b600061225881612911565b610e816000805160206145e483398151915283610ed2565b60008281526020819052604090206001015461228b81612911565b610ef78383612be4565b600c6020908152600092835260408084209091529082529020805461092f90614179565b60006122d36000805160206145c483398151915233611916565b806122f157506122f16000805160206145a483398151915233611916565b6123105760405160e560020a62461bcd028152600401610a18906142d4565b81518351146123345760405160e560020a62461bcd028152600401610a189061424f565b82511561234657612346838383612a63565b84600260006101000a815481600160a060020a030219169083600160a060020a0316021790555083600160a060020a0316630a75806e6040518163ffffffff1660e060020a0281526004016020604051808303816000875af11580156123b0573d6000803e3d6000fd5b505050506040513d601f19601f820116820180604052508101906123d4919061443a565b95945050505050565b6000805160206145a483398151915261195781612911565b6007602052600090815260409020805461092f90614179565b6000805160206145a483398151915261242681612911565b6124308383613060565b61247f5760405160e560020a62461bcd02815260206004820152601a60248201527f6e6f7420616c6c207a6f6e6520696e64656365732076616c69640000000000006044820152606401610a18565b60005b8251811015610ecc576000848152600a6020526040902083518490839081106124ad576124ad61421f565b60200260200101516000600281106124c7576124c761421f565b60200201516040516124d991906141eb565b90815260200160405180910390208382815181106124f9576124f961421f565b60200260200101516001600281106125135761251361421f565b6020908102919091015182546001810184556000938452928290208151612543949190910192919091019061365f565b50600084815260096020526040902083518490839081106125665761256661421f565b60200260200101516001600281106125805761258061421f565b602002015160405161259291906141eb565b90815260200160405180910390208382815181106125b2576125b261421f565b60200260200101516000600281106125cc576125cc61421f565b60209081029190910151825460018101845560009384529282902081516125fc949190910192919091019061365f565b5080612607816141d0565b915050612482565b6000805160206145e483398151915261262781612911565b6000828152601460205260409081902090516126449086906141eb565b9081526040519081900360200190205460ff16610ecc576013546040517fd4939609000000000000000000000000000000000000000000000000000000008152600160a060020a039091169063d4939609906126a890869086908990600401614475565b600060405180830381600087803b1580156126c257600080fd5b505af11580156126d6573d6000803e3d6000fd5b505050600083815260146020526040908190209051600192506126fa9087906141eb565b908152604051908190036020019020805491151560ff1990921691909117905550505050565b60008051602061458483398151915261273881612911565b6002546040517fbca7caa000000000000000000000000000000000000000000000000000000000815260048101869052600160a060020a038581166024830152600092169063bca7caa090604401602060405180830381865afa1580156127a3573d6000803e3d6000fd5b505050506040513d601f19601f820116820180604052508101906127c7919061443a565b6000868152600c602090815260408083208484528252909120855192935061108a92909186019061365f565b6000805160206145e483398151915261280b81612911565b50601255565b61281b8282611916565b610e8157600082815260208181526040808320600160a060020a03851684529091529020805460ff191660011790556128513390565b600160a060020a031681600160a060020a0316837f2f8788117e7eff1d82e926ec794901d17c78024a50270940304540a733656f0d60405160405180910390a45050565b600061190f83600160a060020a03841661316f565b6000600160e060020a031982167f7965db0b0000000000000000000000000000000000000000000000000000000014806108d757507f01ffc9a700000000000000000000000000000000000000000000000000000000600160e060020a03198316146108d7565b6118f381336131be565b600160005b82518110156129b65782818151811061293b5761293b61421f565b6020026020010151600161294f9190614207565b600086815260096020526040902085518690849081106129715761297161421f565b602002602001015160405161298691906141eb565b90815260405190819003602001902054106129a457600091506129b6565b806129ae816141d0565b915050612920565b509392505050565b600160005b82518110156129b6578281815181106129de576129de61421f565b602002602001015160016129f29190614207565b6000868152600a602052604090208551869084908110612a1457612a1461421f565b6020026020010151604051612a2991906141eb565b9081526040519081900360200190205410612a4757600091506129b6565b80612a51816141d0565b9150506129c3565b610e818282612bc2565b60005b8351811015610ecc5760008281526006602052604090208351849083908110612a9157612a9161421f565b60209081029190910181015182546001810184556000938452928290208151612ac3949190910192919091019061365f565b50838181518110612ad657612ad661421f565b602002602001015160086000848152602001908152602001600020848381518110612b0357612b0361421f565b6020026020010151604051612b1891906141eb565b908152602001604051809103902060006101000a815481600160a060020a030219169083600160a060020a03160217905550612b7b600080516020614584833981519152858381518110612b6e57612b6e61421f565b6020026020010151611916565b612bb057612bb0600080516020614584833981519152858381518110612ba357612ba361421f565b6020026020010151612a59565b80612bba816141d0565b915050612a66565b612bcc8282612811565b6000828152600160205260409020610ef79082612895565b612bee8282613225565b6000828152600160205260409020610ef7908261328a565b600061190f838361329f565b60006108d7825490565b6002546040517f60c2050000000000000000000000000000000000000000000000000000000000815260048101839052600160a060020a03909116906360c2050090602401600060405180830381600087803b158015612c7b57600080fd5b505af1158015612c8f573d6000803e3d6000fd5b50505060009182525060046020526040902060019055565b60008181526007602052604081208054612cc090614179565b15159050612cf65760008281526006602052604081208054909190612ce757612ce761421f565b90600052602060002001612d05565b60008281526007602052604090205b8054612d1090614179565b80601f0160208091040260200160405190810160405280929190818152602001828054612d3c90614179565b8015612d895780601f10612d5e57610100808354040283529160200191612d89565b820191906000526020600020905b815481529060010190602001808311612d6c57829003601f168201915b5050505050905060006008600084815260200190815260200160002082604051612db391906141eb565b90815260405190819003602001902054600160a060020a031690508060005b6002546040517fb77ff41100000000000000000000000000000000000000000000000000000000815260048101879052600160a060020a039091169063b77ff41190602401602060405180830381865afa158015612e34573d6000803e3d6000fd5b505050506040513d601f19601f82011682018060405250810190612e58919061443a565b811015613048576000612e6c826001614207565b6002546040517ff50432540000000000000000000000000000000000000000000000000000000081526004810189905260248101839052919250600091600160a060020a039091169063f504325490604401602060405180830381865afa158015612edb573d6000803e3d6000fd5b505050506040513d601f19601f82011682018060405250810190612eff91906144b5565b6040517fe15b3ad0000000000000000000000000000000000000000000000000000000008152909150600160a060020a0385169063e15b3ad090612f4b9084908b908b906004016142ac565b602060405180830381865afa158015612f68573d6000803e3d6000fd5b505050506040513d601f19601f82011682018060405250810190612f8c9190614453565b15613011576040517f98bd7572000000000000000000000000000000000000000000000000000000008152600160a060020a038516906398bd757290612fda9084908b908b906004016142ac565b600060405180830381600087803b158015612ff457600080fd5b505af1158015613008573d6000803e3d6000fd5b50505050613033565b6000878152600d60209081526040822080546001810182559083529120018290555b50508080613040906141d0565b915050612dd2565b50505060009182525060046020526040902060029055565b6000805b82518110156131685760008481526008602052604081208451600194508590849081106130935761309361421f565b60200260200101516000600281106130ad576130ad61421f565b60200201516040516130bf91906141eb565b90815260405190819003602001902054600160a060020a031614806131485750600084815260086020526040812084518590849081106131015761310161421f565b602002602001015160016002811061311b5761311b61421f565b602002015160405161312d91906141eb565b90815260405190819003602001902054600160a060020a0316145b156131565760009150613168565b80613160816141d0565b915050613064565b5092915050565b60008181526001830160205260408120546131b6575081546001818101845560008481526020808220909301849055845484825282860190935260409020919091556108d7565b5060006108d7565b6131c88282611916565b610e81576131e081600160a060020a031660146132c9565b6131eb8360206132c9565b6040516020016131fc9291906144d2565b60408051601f198184030181529082905260e560020a62461bcd028252610a1891600401613959565b61322f8282611916565b15610e8157600082815260208181526040808320600160a060020a0385168085529252808320805460ff1916905551339285917ff6391f5c32d9c69d2a47ea670b442974b53935d1edc7fd64eb21e047a839171b9190a45050565b600061190f83600160a060020a038416613513565b60008260000182815481106132b6576132b661421f565b9060005260206000200154905092915050565b606060006132d8836002614331565b6132e3906002614207565b67ffffffffffffffff8111156132fb576132fb6137a7565b6040519080825280601f01601f191660200182016040528015613325576020820181803683370190505b5090507f30000000000000000000000000000000000000000000000000000000000000008160008151811061335c5761335c61421f565b60200101907effffffffffffffffffffffffffffffffffffffffffffffffffffffffffffff1916908160001a9053507f7800000000000000000000000000000000000000000000000000000000000000816001815181106133bf576133bf61421f565b60200101907effffffffffffffffffffffffffffffffffffffffffffffffffffffffffffff1916908160001a90535060006133fb846002614331565b613406906001614207565b90505b60018111156134c1577f303132333435363738396162636465660000000000000000000000000000000085600f16601081106134475761344761421f565b1a7f01000000000000000000000000000000000000000000000000000000000000000282828151811061347c5761347c61421f565b60200101907effffffffffffffffffffffffffffffffffffffffffffffffffffffffffffff1916908160001a9053506010909404936134ba81614553565b9050613409565b50831561190f5760405160e560020a62461bcd02815260206004820181905260248201527f537472696e67733a20686578206c656e67746820696e73756666696369656e746044820152606401610a18565b600081815260018301602052604081205480156135fc576000613537600183614238565b855490915060009061354b90600190614238565b90508181146135b057600086600001828154811061356b5761356b61421f565b906000526020600020015490508087600001848154811061358e5761358e61421f565b6000918252602080832090910192909255918252600188019052604090208390555b85548690806135c1576135c161456a565b6001900381819060005260206000200160009055905585600101600086815260200190815260200160002060009055600193505050506108d7565b60009150506108d7565b828054828255906000526020600020908101928215613653579160200282015b82811115613653578251805161364391849160209091019061365f565b5091602001919060010190613626565b506110df9291506136df565b82805461366b90614179565b90600052602060002090601f01602090048101928261368d57600085556136d3565b82601f106136a657805160ff19168380011785556136d3565b828001600101855582156136d3579182015b828111156136d35782518255916020019190600101906136b8565b506110df9291506136fc565b808211156110df5760006136f38282613711565b506001016136df565b5b808211156110df57600081556001016136fd565b50805461371d90614179565b6000825580601f1061372d575050565b601f0160209004906000526020600020908101906118f391906136fc565b60006020828403121561375d57600080fd5b8135600160e060020a03198116811461190f57600080fd5b600160a060020a03811681146118f357600080fd5b60006020828403121561379c57600080fd5b813561190f81613775565b60e060020a634e487b7102600052604160045260246000fd5b6040805190810167ffffffffffffffff811182821017156137e3576137e36137a7565b60405290565b604051601f8201601f1916810167ffffffffffffffff81118282101715613812576138126137a7565b604052919050565b600067ffffffffffffffff821115613834576138346137a7565b50601f01601f191660200190565b600082601f83011261385357600080fd5b81356138666138618261381a565b6137e9565b81815284602083860101111561387b57600080fd5b816020850160208301376000918101602001919091529392505050565b600080604083850312156138ab57600080fd5b82359150602083013567ffffffffffffffff8111156138c957600080fd5b6138d585828601613842565b9150509250929050565b600080604083850312156138f257600080fd5b50508035926020909101359150565b60005b8381101561391c578181015183820152602001613904565b83811115610ecc5750506000910152565b60008151808452613945816020860160208601613901565b601f01601f19169290920160200192915050565b60208152600061190f602083018461392d565b600067ffffffffffffffff821115613986576139866137a7565b5060209081020190565b600082601f8301126139a157600080fd5b813560206139b16138618361396c565b828152918102840181019181810190868411156139cd57600080fd5b8286015b84811015613a0d57803567ffffffffffffffff8111156139f15760008081fd5b6139ff8986838b0101613842565b8452509183019183016139d1565b509695505050505050565b600082601f830112613a2957600080fd5b81356020613a396138618361396c565b82815291810284018101918181019086841115613a5557600080fd5b8286015b84811015613a0d5780358352918301918301613a59565b600080600080600060a08688031215613a8857600080fd5b85359450602086013567ffffffffffffffff80821115613aa757600080fd5b613ab389838a01613990565b95506040880135915080821115613ac957600080fd5b613ad589838a01613a18565b94506060880135915080821115613aeb57600080fd5b613af789838a01613990565b93506080880135915080821115613b0d57600080fd5b50613b1a88828901613a18565b9150509295509295909350565b600060208083018184528085518083526040860191506040848202870101925083870160005b82811015613b7b57603f19888603018452613b6985835161392d565b94509285019290850190600101613b4d565b5092979650505050505050565b600060208284031215613b9a57600080fd5b5035919050565b600082601f830112613bb257600080fd5b81356020613bc26138618361396c565b82815291810284018101918181019086841115613bde57600080fd5b8286015b84811015613a0d578035613bf581613775565b8352918301918301613be2565b60008060008060808587031215613c1857600080fd5b84359350602085013567ffffffffffffffff80821115613c3757600080fd5b613c4388838901613ba1565b94506040870135915080821115613c5957600080fd5b50613c6687828801613a18565b949793965093946060013593505050565b600080600060608486031215613c8c57600080fd5b833567ffffffffffffffff80821115613ca457600080fd5b613cb087838801613ba1565b94506020860135915080821115613cc657600080fd5b50613cd386828701613990565b925050604084013590509250925092565b60008060408385031215613cf757600080fd5b823591506020830135613d0981613775565b809150509250929050565b803560068110613d2357600080fd5b919050565b60008060008060808587031215613d3e57600080fd5b843567ffffffffffffffff80821115613d5657600080fd5b613d6288838901613990565b95506020915081870135613d7581613775565b945060408701359350606087013581811115613d9057600080fd5b87019050601f81018813613da357600080fd5b8035613db16138618261396c565b8181529083028201830190838101908a831115613dcd57600080fd5b928401925b82841015613df257613de384613d14565b82529284019290840190613dd2565b979a9699509497505050505050565b600080600060608486031215613e1657600080fd5b83359250602084013567ffffffffffffffff811115613e3457600080fd5b613cd386828701613842565b600080600060608486031215613e5557600080fd5b833592506020840135613e6781613775565b929592945050506040919091013590565b60008060408385031215613e8b57600080fd5b823567ffffffffffffffff811115613ea257600080fd5b613eae85828601613842565b95602094909401359450505050565b60008060408385031215613ed057600080fd5b8235613edb81613775565b91506020830135613d0981613775565b6020808252825182820181905260009190848201906040850190845b81811015613f2357835183529284019291840191600101613f07565b50909695505050505050565b60008060008060808587031215613f4557600080fd5b8435613f5081613775565b93506020850135613f6081613775565b9250604085013567ffffffffffffffff80821115613f7d57600080fd5b613f8988838901613ba1565b93506060870135915080821115613f9f57600080fd5b50613fac87828801613990565b91505092959194509250565b60008060408385031215613fcb57600080fd5b8235915060208084013567ffffffffffffffff80821115613feb57600080fd5b818601915086601f830112613fff57600080fd5b813561400d6138618261396c565b8181529084028301840190848101908983111561402957600080fd5b8585015b838110156140b857848135111561404357600080fd5b803586018b603f82011261405657600080fd5b61405e6137c0565b808d60608401111561406f57600080fd5b8983015b606084018110156140a857888135111561408c57600080fd5b61409b8f8c8335870101613842565b8352918a01918a01614073565b508552505091860191860161402d565b508096505050505050509250929050565b6000806000606084860312156140de57600080fd5b833567ffffffffffffffff8111156140f557600080fd5b61410186828701613842565b93505061411060208501613d14565b9150604084013590509250925092565b60008060006060848603121561413557600080fd5b83359250602084013561414781613775565b9150604084013567ffffffffffffffff81111561416357600080fd5b61416f86828701613842565b9150509250925092565b60028104600182168061418d57607f821691505b602082108114156141b15760e060020a634e487b7102600052602260045260246000fd5b50919050565b60e060020a634e487b7102600052601160045260246000fd5b60006000198214156141e4576141e46141b7565b5060010190565b600082516141fd818460208701613901565b9190910192915050565b6000821982111561421a5761421a6141b7565b500190565b60e060020a634e487b7102600052603260045260246000fd5b60008282101561424a5761424a6141b7565b500390565b60208082526025908201527f616464726573736573202620616c696173657320646966666572656e74206c6560408201527f6e67746873000000000000000000000000000000000000000000000000000000606082015260800190565b600160a060020a03841681528260208201526060604082015260006123d4606083018461392d565b60208082526024908201527f47616d65204d6173746572206f7220466163746f727920726f6c65207265717560408201527f6972656400000000000000000000000000000000000000000000000000000000606082015260800190565b600081600019048311821515161561434b5761434b6141b7565b500290565b6000602080838503121561436357600080fd5b825167ffffffffffffffff8082111561437b57600080fd5b818501915085601f83011261438f57600080fd5b815161439d6138618261396c565b818152908402830184019084810190888311156143b957600080fd5b8585015b8381101561442d578051858111156143d55760008081fd5b8601603f81018b136143e75760008081fd5b8781015160406143f96138618361381a565b8281528d8284860101111561440e5760008081fd5b61441d838c8301848701613901565b86525050509186019186016143bd565b5098975050505050505050565b60006020828403121561444c57600080fd5b5051919050565b60006020828403121561446557600080fd5b8151801515811461190f57600080fd5b6000600685106144985760e060020a634e487b7102600052602160045260246000fd5b848252836020830152606060408301526123d4606083018461392d565b6000602082840312156144c757600080fd5b815161190f81613775565b7f416363657373436f6e74726f6c3a206163636f756e742000000000000000000081526000835161450a816017850160208801613901565b7f206973206d697373696e6720726f6c65200000000000000000000000000000006017918401918201528351614547816028840160208801613901565b01602801949350505050565b600081614562576145626141b7565b506000190190565b60e060020a634e487b7102600052603160045260246000fdfe72b06b67826def9fabb513b23f7e5eb74f7ece26d25dad4006546ecf4a13763d1d93c87416ca7b54f0fb8323167b72760e8e2ec93d48660953897a150f97a8b4dfbefbf47cfe66b701d8cfdbce1de81c821590819cb07e71cb01b6602fb0ee2780e2196015fc06a9d891759f8e4f51eb314ef5e9ea068528a8ed0063b87759f0a26469706673582212207e5aaf97b547035184bc3a37eb2069ba24f535b78391b63940c4819eb3b5167164736f6c634300080b0033",
  "immutableReferences": {},
  "source": "// SPDX-License-Identifier: GPL-3.0\npragma solidity >=0.7.0 <0.9.0;\n\nimport \"@luckymachines/game-core/contracts/src/v0.0/custom_boards/HexGrid.sol\";\nimport \"./HexplorationZone.sol\";\n\ncontract HexplorationBoard is HexGrid {\n    // This role is a hybrid controller, assumes on chain verification of moves before submission\n\n    uint256 private _randomness;\n\n    HexplorationZone internal HEX_ZONE;\n    // game ID => zone alias returns bool\n    mapping(uint256 => mapping(string => bool)) public zoneEnabled;\n\n    constructor(\n        address adminAddress,\n        uint256 gridWidth,\n        uint256 gridHeight,\n        address zoneAddress\n    ) HexGrid(adminAddress, gridWidth, gridHeight, zoneAddress) {\n        HEX_ZONE = HexplorationZone(zoneAddress);\n    }\n\n    // VERIFIED CONTROLLER functions\n    // We can assume these have been pre-verified\n\n    function setRandomness(uint256 randomness)\n        external\n        onlyRole(VERIFIED_CONTROLLER_ROLE)\n    {\n        _randomness = randomness;\n    }\n\n    function start(uint256 gameID) public onlyRole(VERIFIED_CONTROLLER_ROLE) {\n        _gamesNeedUpdates.push(gameID);\n    }\n\n    function enableZone(\n        string memory zoneAlias,\n        HexplorationZone.Tile tile,\n        uint256 gameID\n    ) public onlyRole(VERIFIED_CONTROLLER_ROLE) {\n        if (!zoneEnabled[gameID][zoneAlias]) {\n            HEX_ZONE.setTile(tile, gameID, zoneAlias);\n            zoneEnabled[gameID][zoneAlias] = true;\n        }\n    }\n\n    // pass path and what tiles should be\n    function moveThroughPath(\n        string[] memory zonePath,\n        address playerAddress,\n        uint256 gameID,\n        HexplorationZone.Tile[] memory tiles\n    ) external onlyRole(VERIFIED_CONTROLLER_ROLE) {\n        HEX_ZONE.exitPlayer(playerAddress, gameID, zonePath[0]);\n        HEX_ZONE.enterPlayer(\n            playerAddress,\n            gameID,\n            zonePath[zonePath.length - 1]\n        );\n        for (uint256 i = 0; i < zonePath.length; i++) {\n            enableZone(zonePath[i], tiles[i], gameID);\n        }\n    }\n}\n",
  "sourcePath": "/Users/maxmeier/Developer/Lucky Machines/hexploration/contracts/HexplorationBoard.sol",
  "compiler": {
    "name": "solc",
    "version": "0.8.11+commit.d7f03943.Emscripten.clang"
  },
  "schemaVersion": "3.4.4",
  "updatedAt": "2022-05-13T19:26:03.977Z",
  "devdoc": {
    "kind": "dev",
    "methods": {
      "getRoleAdmin(bytes32)": {
        "details": "Returns the admin role that controls `role`. See {grantRole} and {revokeRole}. To change a role's admin, use {_setRoleAdmin}."
      },
      "getRoleMember(bytes32,uint256)": {
        "details": "Returns one of the accounts that have `role`. `index` must be a value between 0 and {getRoleMemberCount}, non-inclusive. Role bearers are not sorted in any particular way, and their ordering may change at any point. WARNING: When using {getRoleMember} and {getRoleMemberCount}, make sure you perform all queries on the same block. See the following https://forum.openzeppelin.com/t/iterating-over-elements-on-enumerableset-in-openzeppelin-contracts/2296[forum post] for more information."
      },
      "getRoleMemberCount(bytes32)": {
        "details": "Returns the number of accounts that have `role`. Can be used together with {getRoleMember} to enumerate all bearers of a role."
      },
      "grantRole(bytes32,address)": {
        "details": "Grants `role` to `account`. If `account` had not been already granted `role`, emits a {RoleGranted} event. Requirements: - the caller must have ``role``'s admin role."
      },
      "hasRole(bytes32,address)": {
        "details": "Returns `true` if `account` has been granted `role`."
      },
      "renounceRole(bytes32,address)": {
        "details": "Revokes `role` from the calling account. Roles are often managed via {grantRole} and {revokeRole}: this function's purpose is to provide a mechanism for accounts to lose their privileges if they are compromised (such as when a trusted device is misplaced). If the calling account had been revoked `role`, emits a {RoleRevoked} event. Requirements: - the caller must be `account`."
      },
      "revokeRole(bytes32,address)": {
        "details": "Revokes `role` from `account`. If `account` had been granted `role`, emits a {RoleRevoked} event. Requirements: - the caller must have ``role``'s admin role."
      },
      "supportsInterface(bytes4)": {
        "details": "See {IERC165-supportsInterface}."
      }
    },
    "version": 1
  },
  "userdoc": {
    "kind": "user",
    "methods": {},
    "version": 1
  }
}