{
  "contractName": "HexplorationBoard",
  "abi": [
    {
      "inputs": [
        {
          "internalType": "address",
          "name": "adminAddress",
          "type": "address"
        },
        {
          "internalType": "uint256",
          "name": "gridWidth",
          "type": "uint256"
        },
        {
          "internalType": "uint256",
          "name": "gridHeight",
          "type": "uint256"
        },
        {
          "internalType": "address",
          "name": "zoneAddress",
          "type": "address"
        }
      ],
      "stateMutability": "nonpayable",
      "type": "constructor"
    },
    {
      "anonymous": false,
      "inputs": [
        {
          "indexed": true,
          "internalType": "bytes32",
          "name": "role",
          "type": "bytes32"
        },
        {
          "indexed": true,
          "internalType": "bytes32",
          "name": "previousAdminRole",
          "type": "bytes32"
        },
        {
          "indexed": true,
          "internalType": "bytes32",
          "name": "newAdminRole",
          "type": "bytes32"
        }
      ],
      "name": "RoleAdminChanged",
      "type": "event"
    },
    {
      "anonymous": false,
      "inputs": [
        {
          "indexed": true,
          "internalType": "bytes32",
          "name": "role",
          "type": "bytes32"
        },
        {
          "indexed": true,
          "internalType": "address",
          "name": "account",
          "type": "address"
        },
        {
          "indexed": true,
          "internalType": "address",
          "name": "sender",
          "type": "address"
        }
      ],
      "name": "RoleGranted",
      "type": "event"
    },
    {
      "anonymous": false,
      "inputs": [
        {
          "indexed": true,
          "internalType": "bytes32",
          "name": "role",
          "type": "bytes32"
        },
        {
          "indexed": true,
          "internalType": "address",
          "name": "account",
          "type": "address"
        },
        {
          "indexed": true,
          "internalType": "address",
          "name": "sender",
          "type": "address"
        }
      ],
      "name": "RoleRevoked",
      "type": "event"
    },
    {
      "inputs": [],
      "name": "DEFAULT_ADMIN_ROLE",
      "outputs": [
        {
          "internalType": "bytes32",
          "name": "",
          "type": "bytes32"
        }
      ],
      "stateMutability": "view",
      "type": "function"
    },
    {
      "inputs": [],
      "name": "FACTORY_ROLE",
      "outputs": [
        {
          "internalType": "bytes32",
          "name": "",
          "type": "bytes32"
        }
      ],
      "stateMutability": "view",
      "type": "function"
    },
    {
      "inputs": [],
      "name": "GAME_KEEPER_ROLE",
      "outputs": [
        {
          "internalType": "bytes32",
          "name": "",
          "type": "bytes32"
        }
      ],
      "stateMutability": "view",
      "type": "function"
    },
    {
      "inputs": [],
      "name": "GAME_MASTER_ROLE",
      "outputs": [
        {
          "internalType": "bytes32",
          "name": "",
          "type": "bytes32"
        }
      ],
      "stateMutability": "view",
      "type": "function"
    },
    {
      "inputs": [],
      "name": "MAX_BATCH_SIZE",
      "outputs": [
        {
          "internalType": "uint256",
          "name": "",
          "type": "uint256"
        }
      ],
      "stateMutability": "view",
      "type": "function"
    },
    {
      "inputs": [],
      "name": "PLAY_ZONE_ROLE",
      "outputs": [
        {
          "internalType": "bytes32",
          "name": "",
          "type": "bytes32"
        }
      ],
      "stateMutability": "view",
      "type": "function"
    },
    {
      "inputs": [
        {
          "internalType": "uint256",
          "name": "transitID",
          "type": "uint256"
        }
      ],
      "name": "_progressTransit",
      "outputs": [],
      "stateMutability": "nonpayable",
      "type": "function"
    },
    {
      "inputs": [
        {
          "internalType": "address",
          "name": "factoryAddress",
          "type": "address"
        }
      ],
      "name": "addFactory",
      "outputs": [],
      "stateMutability": "nonpayable",
      "type": "function"
    },
    {
      "inputs": [
        {
          "internalType": "address",
          "name": "keeperAddress",
          "type": "address"
        }
      ],
      "name": "addKeeper",
      "outputs": [],
      "stateMutability": "nonpayable",
      "type": "function"
    },
    {
      "inputs": [
        {
          "internalType": "uint256",
          "name": "gameID",
          "type": "uint256"
        },
        {
          "internalType": "string[2][]",
          "name": "connections",
          "type": "string[2][]"
        }
      ],
      "name": "addZoneConnections",
      "outputs": [],
      "stateMutability": "nonpayable",
      "type": "function"
    },
    {
      "inputs": [
        {
          "internalType": "address[]",
          "name": "playZoneAddresses",
          "type": "address[]"
        },
        {
          "internalType": "string[]",
          "name": "zoneAliases",
          "type": "string[]"
        },
        {
          "internalType": "uint256",
          "name": "gameID",
          "type": "uint256"
        }
      ],
      "name": "addZones",
      "outputs": [],
      "stateMutability": "nonpayable",
      "type": "function"
    },
    {
      "inputs": [],
      "name": "cleanQueue",
      "outputs": [],
      "stateMutability": "nonpayable",
      "type": "function"
    },
    {
      "inputs": [
        {
          "internalType": "uint256",
          "name": "gameID",
          "type": "uint256"
        }
      ],
      "name": "connectZones",
      "outputs": [],
      "stateMutability": "nonpayable",
      "type": "function"
    },
    {
      "inputs": [
        {
          "internalType": "address",
          "name": "_playerRegistry",
          "type": "address"
        },
        {
          "internalType": "address",
          "name": "_gameRegistry",
          "type": "address"
        }
      ],
      "name": "createGame",
      "outputs": [
        {
          "internalType": "uint256",
          "name": "gameID",
          "type": "uint256"
        }
      ],
      "stateMutability": "nonpayable",
      "type": "function"
    },
    {
      "inputs": [
        {
          "internalType": "address",
          "name": "_playerRegistry",
          "type": "address"
        },
        {
          "internalType": "address",
          "name": "_gameRegistry",
          "type": "address"
        },
        {
          "internalType": "address[]",
          "name": "playZoneAddresses",
          "type": "address[]"
        },
        {
          "internalType": "string[]",
          "name": "zoneAliases",
          "type": "string[]"
        }
      ],
      "name": "createGame",
      "outputs": [
        {
          "internalType": "uint256",
          "name": "gameID",
          "type": "uint256"
        }
      ],
      "stateMutability": "nonpayable",
      "type": "function"
    },
    {
      "inputs": [
        {
          "internalType": "uint256",
          "name": "gameID",
          "type": "uint256"
        }
      ],
      "name": "createGrid",
      "outputs": [],
      "stateMutability": "nonpayable",
      "type": "function"
    },
    {
      "inputs": [
        {
          "internalType": "uint256",
          "name": "",
          "type": "uint256"
        },
        {
          "internalType": "uint256",
          "name": "",
          "type": "uint256"
        }
      ],
      "name": "currentPlayZone",
      "outputs": [
        {
          "internalType": "string",
          "name": "",
          "type": "string"
        }
      ],
      "stateMutability": "view",
      "type": "function"
    },
    {
      "inputs": [
        {
          "internalType": "uint256",
          "name": "",
          "type": "uint256"
        },
        {
          "internalType": "uint256",
          "name": "",
          "type": "uint256"
        }
      ],
      "name": "entryQueue",
      "outputs": [
        {
          "internalType": "uint256",
          "name": "",
          "type": "uint256"
        }
      ],
      "stateMutability": "view",
      "type": "function"
    },
    {
      "inputs": [
        {
          "internalType": "uint256",
          "name": "gameID",
          "type": "uint256"
        },
        {
          "internalType": "address",
          "name": "playerAddress",
          "type": "address"
        },
        {
          "internalType": "uint256",
          "name": "pathIndex",
          "type": "uint256"
        }
      ],
      "name": "exitToPath",
      "outputs": [
        {
          "internalType": "bool",
          "name": "exitSuccess",
          "type": "bool"
        }
      ],
      "stateMutability": "nonpayable",
      "type": "function"
    },
    {
      "inputs": [
        {
          "internalType": "uint256",
          "name": "",
          "type": "uint256"
        }
      ],
      "name": "gameState",
      "outputs": [
        {
          "internalType": "uint256",
          "name": "",
          "type": "uint256"
        }
      ],
      "stateMutability": "view",
      "type": "function"
    },
    {
      "inputs": [
        {
          "internalType": "uint256",
          "name": "gameID",
          "type": "uint256"
        },
        {
          "internalType": "string",
          "name": "_zoneAlias",
          "type": "string"
        }
      ],
      "name": "getInputs",
      "outputs": [
        {
          "internalType": "string[]",
          "name": "zoneInputs",
          "type": "string[]"
        }
      ],
      "stateMutability": "view",
      "type": "function"
    },
    {
      "inputs": [
        {
          "internalType": "uint256",
          "name": "gameID",
          "type": "uint256"
        },
        {
          "internalType": "string",
          "name": "_zoneAlias",
          "type": "string"
        }
      ],
      "name": "getOutputs",
      "outputs": [
        {
          "internalType": "string[]",
          "name": "zoneOutputs",
          "type": "string[]"
        }
      ],
      "stateMutability": "view",
      "type": "function"
    },
    {
      "inputs": [
        {
          "internalType": "uint256",
          "name": "gameID",
          "type": "uint256"
        }
      ],
      "name": "getOverflowQueue",
      "outputs": [
        {
          "internalType": "uint256[]",
          "name": "",
          "type": "uint256[]"
        }
      ],
      "stateMutability": "view",
      "type": "function"
    },
    {
      "inputs": [
        {
          "internalType": "uint256",
          "name": "gameID",
          "type": "uint256"
        }
      ],
      "name": "getPlayZones",
      "outputs": [
        {
          "internalType": "string[]",
          "name": "",
          "type": "string[]"
        }
      ],
      "stateMutability": "view",
      "type": "function"
    },
    {
      "inputs": [
        {
          "internalType": "bytes32",
          "name": "role",
          "type": "bytes32"
        }
      ],
      "name": "getRoleAdmin",
      "outputs": [
        {
          "internalType": "bytes32",
          "name": "",
          "type": "bytes32"
        }
      ],
      "stateMutability": "view",
      "type": "function"
    },
    {
      "inputs": [
        {
          "internalType": "bytes32",
          "name": "role",
          "type": "bytes32"
        },
        {
          "internalType": "uint256",
          "name": "index",
          "type": "uint256"
        }
      ],
      "name": "getRoleMember",
      "outputs": [
        {
          "internalType": "address",
          "name": "",
          "type": "address"
        }
      ],
      "stateMutability": "view",
      "type": "function"
    },
    {
      "inputs": [
        {
          "internalType": "bytes32",
          "name": "role",
          "type": "bytes32"
        }
      ],
      "name": "getRoleMemberCount",
      "outputs": [
        {
          "internalType": "uint256",
          "name": "",
          "type": "uint256"
        }
      ],
      "stateMutability": "view",
      "type": "function"
    },
    {
      "inputs": [
        {
          "internalType": "bytes32",
          "name": "role",
          "type": "bytes32"
        },
        {
          "internalType": "address",
          "name": "account",
          "type": "address"
        }
      ],
      "name": "grantRole",
      "outputs": [],
      "stateMutability": "nonpayable",
      "type": "function"
    },
    {
      "inputs": [],
      "name": "gridHeight",
      "outputs": [
        {
          "internalType": "uint256",
          "name": "",
          "type": "uint256"
        }
      ],
      "stateMutability": "view",
      "type": "function"
    },
    {
      "inputs": [],
      "name": "gridWidth",
      "outputs": [
        {
          "internalType": "uint256",
          "name": "",
          "type": "uint256"
        }
      ],
      "stateMutability": "view",
      "type": "function"
    },
    {
      "inputs": [
        {
          "internalType": "bytes32",
          "name": "role",
          "type": "bytes32"
        },
        {
          "internalType": "address",
          "name": "account",
          "type": "address"
        }
      ],
      "name": "hasRole",
      "outputs": [
        {
          "internalType": "bool",
          "name": "",
          "type": "bool"
        }
      ],
      "stateMutability": "view",
      "type": "function"
    },
    {
      "inputs": [
        {
          "internalType": "address",
          "name": "factoryAddress",
          "type": "address"
        }
      ],
      "name": "isFactory",
      "outputs": [
        {
          "internalType": "bool",
          "name": "factoryIsAuthorized",
          "type": "bool"
        }
      ],
      "stateMutability": "view",
      "type": "function"
    },
    {
      "inputs": [
        {
          "internalType": "uint256",
          "name": "",
          "type": "uint256"
        }
      ],
      "name": "lastEntryPlayerID",
      "outputs": [
        {
          "internalType": "uint256",
          "name": "",
          "type": "uint256"
        }
      ],
      "stateMutability": "view",
      "type": "function"
    },
    {
      "inputs": [],
      "name": "needsUpdate",
      "outputs": [
        {
          "internalType": "bool",
          "name": "doesNeedUpdate",
          "type": "bool"
        }
      ],
      "stateMutability": "view",
      "type": "function"
    },
    {
      "inputs": [
        {
          "internalType": "uint256",
          "name": "",
          "type": "uint256"
        },
        {
          "internalType": "string",
          "name": "",
          "type": "string"
        },
        {
          "internalType": "uint256",
          "name": "",
          "type": "uint256"
        }
      ],
      "name": "playZoneInputs",
      "outputs": [
        {
          "internalType": "string",
          "name": "",
          "type": "string"
        }
      ],
      "stateMutability": "view",
      "type": "function"
    },
    {
      "inputs": [
        {
          "internalType": "uint256",
          "name": "",
          "type": "uint256"
        },
        {
          "internalType": "string",
          "name": "",
          "type": "string"
        },
        {
          "internalType": "uint256",
          "name": "",
          "type": "uint256"
        }
      ],
      "name": "playZoneOutputs",
      "outputs": [
        {
          "internalType": "string",
          "name": "",
          "type": "string"
        }
      ],
      "stateMutability": "view",
      "type": "function"
    },
    {
      "inputs": [
        {
          "internalType": "uint256",
          "name": "",
          "type": "uint256"
        },
        {
          "internalType": "uint256",
          "name": "",
          "type": "uint256"
        }
      ],
      "name": "playZones",
      "outputs": [
        {
          "internalType": "string",
          "name": "",
          "type": "string"
        }
      ],
      "stateMutability": "view",
      "type": "function"
    },
    {
      "inputs": [
        {
          "internalType": "uint256",
          "name": "gameID",
          "type": "uint256"
        },
        {
          "internalType": "address",
          "name": "playerAddress",
          "type": "address"
        },
        {
          "internalType": "string",
          "name": "_zoneAlias",
          "type": "string"
        }
      ],
      "name": "playerEnteredZone",
      "outputs": [],
      "stateMutability": "nonpayable",
      "type": "function"
    },
    {
      "inputs": [
        {
          "internalType": "uint256",
          "name": "",
          "type": "uint256"
        }
      ],
      "name": "playerRegistry",
      "outputs": [
        {
          "internalType": "uint256",
          "name": "",
          "type": "uint256"
        }
      ],
      "stateMutability": "view",
      "type": "function"
    },
    {
      "inputs": [],
      "name": "prAddress",
      "outputs": [
        {
          "internalType": "address",
          "name": "",
          "type": "address"
        }
      ],
      "stateMutability": "view",
      "type": "function"
    },
    {
      "inputs": [
        {
          "internalType": "uint256",
          "name": "gameID",
          "type": "uint256"
        },
        {
          "internalType": "address[]",
          "name": "playerAddresses",
          "type": "address[]"
        },
        {
          "internalType": "uint256[]",
          "name": "pathIndices",
          "type": "uint256[]"
        },
        {
          "internalType": "uint256",
          "name": "transitID",
          "type": "uint256"
        }
      ],
      "name": "queueExitToPaths",
      "outputs": [],
      "stateMutability": "nonpayable",
      "type": "function"
    },
    {
      "inputs": [
        {
          "internalType": "uint256",
          "name": "gameID",
          "type": "uint256"
        },
        {
          "internalType": "string[]",
          "name": "inputAliases",
          "type": "string[]"
        },
        {
          "internalType": "uint256[]",
          "name": "inputs",
          "type": "uint256[]"
        },
        {
          "internalType": "string[]",
          "name": "outputAliases",
          "type": "string[]"
        },
        {
          "internalType": "uint256[]",
          "name": "outputs",
          "type": "uint256[]"
        }
      ],
      "name": "removeZoneConnections",
      "outputs": [],
      "stateMutability": "nonpayable",
      "type": "function"
    },
    {
      "inputs": [
        {
          "internalType": "bytes32",
          "name": "role",
          "type": "bytes32"
        },
        {
          "internalType": "address",
          "name": "account",
          "type": "address"
        }
      ],
      "name": "renounceRole",
      "outputs": [],
      "stateMutability": "nonpayable",
      "type": "function"
    },
    {
      "inputs": [
        {
          "internalType": "bytes32",
          "name": "role",
          "type": "bytes32"
        },
        {
          "internalType": "address",
          "name": "account",
          "type": "address"
        }
      ],
      "name": "revokeRole",
      "outputs": [],
      "stateMutability": "nonpayable",
      "type": "function"
    },
    {
      "inputs": [],
      "name": "runUpdate",
      "outputs": [],
      "stateMutability": "nonpayable",
      "type": "function"
    },
    {
      "inputs": [
        {
          "internalType": "uint256",
          "name": "gameID",
          "type": "uint256"
        }
      ],
      "name": "startGame",
      "outputs": [],
      "stateMutability": "nonpayable",
      "type": "function"
    },
    {
      "inputs": [
        {
          "internalType": "uint256",
          "name": "transitID",
          "type": "uint256"
        }
      ],
      "name": "startTransit",
      "outputs": [],
      "stateMutability": "nonpayable",
      "type": "function"
    },
    {
      "inputs": [
        {
          "internalType": "bytes4",
          "name": "interfaceId",
          "type": "bytes4"
        }
      ],
      "name": "supportsInterface",
      "outputs": [
        {
          "internalType": "bool",
          "name": "",
          "type": "bool"
        }
      ],
      "stateMutability": "view",
      "type": "function"
    },
    {
      "inputs": [],
      "name": "zoneAddress",
      "outputs": [
        {
          "internalType": "address",
          "name": "",
          "type": "address"
        }
      ],
      "stateMutability": "view",
      "type": "function"
    },
    {
      "inputs": [
        {
          "internalType": "uint256",
          "name": "",
          "type": "uint256"
        },
        {
          "internalType": "string",
          "name": "",
          "type": "string"
        }
      ],
      "name": "zoneAlias",
      "outputs": [
        {
          "internalType": "address",
          "name": "",
          "type": "address"
        }
      ],
      "stateMutability": "view",
      "type": "function"
    },
    {
      "inputs": [
        {
          "internalType": "uint256",
          "name": "",
          "type": "uint256"
        },
        {
          "internalType": "string",
          "name": "",
          "type": "string"
        }
      ],
      "name": "zoneEnabled",
      "outputs": [
        {
          "internalType": "bool",
          "name": "",
          "type": "bool"
        }
      ],
      "stateMutability": "view",
      "type": "function"
    },
    {
      "inputs": [
        {
          "internalType": "string",
          "name": "zoneAlias",
          "type": "string"
        },
        {
          "internalType": "enum HexplorationZone.Tile",
          "name": "tile",
          "type": "uint8"
        },
        {
          "internalType": "uint256",
          "name": "gameID",
          "type": "uint256"
        }
      ],
      "name": "enableZone",
      "outputs": [],
      "stateMutability": "nonpayable",
      "type": "function"
    }
  ],
  "bytecode": "0x60806040523480156200001157600080fd5b5060405162005e7b38038062005e7b83398181016040528101906200003791906200040e565b8383838383620000516000801b82620000d360201b60201c565b620000837f1d93c87416ca7b54f0fb8323167b72760e8e2ec93d48660953897a150f97a8b482620000d360201b60201c565b505050505080601060006101000a81548173ffffffffffffffffffffffffffffffffffffffff021916908373ffffffffffffffffffffffffffffffffffffffff1602179055505050505062000480565b620000e58282620000e960201b60201c565b5050565b6200010082826200013160201b620029c11760201c565b6200012c81600160008581526020019081526020016000206200022260201b62002aa11790919060201c565b505050565b6200014382826200025a60201b60201c565b6200021e57600160008084815260200190815260200160002060000160008373ffffffffffffffffffffffffffffffffffffffff1673ffffffffffffffffffffffffffffffffffffffff16815260200190815260200160002060006101000a81548160ff021916908315150217905550620001c3620002c460201b60201c565b73ffffffffffffffffffffffffffffffffffffffff168173ffffffffffffffffffffffffffffffffffffffff16837f2f8788117e7eff1d82e926ec794901d17c78024a50270940304540a733656f0d60405160405180910390a45b5050565b600062000252836000018373ffffffffffffffffffffffffffffffffffffffff1660001b620002cc60201b60201c565b905092915050565b600080600084815260200190815260200160002060000160008373ffffffffffffffffffffffffffffffffffffffff1673ffffffffffffffffffffffffffffffffffffffff16815260200190815260200160002060009054906101000a900460ff16905092915050565b600033905090565b6000620002e083836200034660201b60201c565b6200033b57826000018290806001815401808255809150506001900390600052602060002001600090919091909150558260000180549050836001016000848152602001908152602001600020819055506001905062000340565b600090505b92915050565b600080836001016000848152602001908152602001600020541415905092915050565b600080fd5b600073ffffffffffffffffffffffffffffffffffffffff82169050919050565b60006200039b826200036e565b9050919050565b620003ad816200038e565b8114620003b957600080fd5b50565b600081519050620003cd81620003a2565b92915050565b6000819050919050565b620003e881620003d3565b8114620003f457600080fd5b50565b6000815190506200040881620003dd565b92915050565b600080600080608085870312156200042b576200042a62000369565b5b60006200043b87828801620003bc565b94505060206200044e87828801620003f7565b93505060406200046187828801620003f7565b92505060606200047487828801620003bc565b91505092959194509250565b6159eb80620004906000396000f3fe608060405234801561001057600080fd5b506004361061030c5760003560e01c80639eb356cb1161019d578063cfdbf254116100e9578063d91413ba116100a2578063ed3719a51161007c578063ed3719a5146109fb578063f643b8fd14610a2b578063f843070814610a47578063fa9f343814610a635761030c565b8063d91413ba14610991578063e309203f146109c1578063e5ed1d59146109df5761030c565b8063cfdbf254146108bd578063d1e18d26146108db578063d2d6756b146108e5578063d3fb728914610915578063d547741f14610945578063d75e7980146109615761030c565b8063ad1def1e11610156578063babdeefa11610130578063babdeefa14610821578063c06dea4e14610851578063ca15c8731461086f578063cd1ec7f21461089f5761030c565b8063ad1def1e146107c9578063b2df0ca2146107e7578063b40c89df146107f15761030c565b80639eb356cb146106e35780639f6c401714610713578063a217fddf1461072f578063a4f9c9df1461074d578063a6f979ff14610769578063aab2aeb8146107995761030c565b80632c47669a1161025c5780634e0e1a3e116102155780636b6ec869116101ef5780636b6ec869146106235780637cc75d1c146106535780639010d07c1461068357806391d14854146106b35761030c565b80634e0e1a3e146105a757806351709a73146105d7578063555c621e146106075761030c565b80632c47669a146104fb5780632f2ff15d14610517578063346c94091461053357806336568abe1461055157806338b145df1461056d5780634032b72b1461058b5761030c565b8063153a7590116102c9578063194f2a36116102a3578063194f2a3614610463578063248a9ca31461049357806329678756146104c357806329ce1ec5146104df5761030c565b8063153a7590146103e757806317d7e8331461041757806319006018146104475761030c565b806301ffc9a71461031157806304a0fb17146103415780630b197f2e1461035f5780630f04ba671461037d578063108c5e14146103ad57806314e9d90d146103cb575b600080fd5b61032b60048036038101906103269190613c5f565b610a7f565b6040516103389190613ca7565b60405180910390f35b610349610af9565b6040516103569190613cdb565b60405180910390f35b610367610b1d565b6040516103749190613d37565b60405180910390f35b61039760048036038101906103929190613d7e565b610b43565b6040516103a49190613ca7565b60405180910390f35b6103b5610b76565b6040516103c29190613dc4565b60405180910390f35b6103e560048036038101906103e09190613e0b565b610b7c565b005b61040160048036038101906103fc9190613f7e565b610c27565b60405161040e9190613d37565b60405180910390f35b610431600480360381019061042c9190613fda565b610c7f565b60405161043e91906140a2565b60405180910390f35b610461600480360381019061045c919061426d565b610d38565b005b61047d60048036038101906104789190613f7e565b610e62565b60405161048a9190614464565b60405180910390f35b6104ad60048036038101906104a891906144b2565b610f6b565b6040516104ba9190613cdb565b60405180910390f35b6104dd60048036038101906104d891906145a2565b610f8a565b005b6104f960048036038101906104f49190613d7e565b610fbb565b005b61051560048036038101906105109190614641565b610ff6565b005b610531600480360381019061052c91906146cc565b611075565b005b61053b611096565b6040516105489190613ca7565b60405180910390f35b61056b600480360381019061056691906146cc565b6110ed565b005b610575611170565b6040516105829190613dc4565b60405180910390f35b6105a560048036038101906105a09190613d7e565b611176565b005b6105c160048036038101906105bc9190613e0b565b6111ce565b6040516105ce9190613dc4565b60405180910390f35b6105f160048036038101906105ec919061470c565b6111e6565b6040516105fe91906140a2565b60405180910390f35b610621600480360381019061061c9190613e0b565b6112c2565b005b61063d60048036038101906106389190613f7e565b6114ed565b60405161064a9190614464565b60405180910390f35b61066d60048036038101906106689190613fda565b6115f6565b60405161067a9190613dc4565b60405180910390f35b61069d6004803603810190610698919061477b565b611627565b6040516106aa9190613d37565b60405180910390f35b6106cd60048036038101906106c891906146cc565b611656565b6040516106da9190613ca7565b60405180910390f35b6106fd60048036038101906106f891906147bb565b6116c0565b60405161070a9190613ca7565b60405180910390f35b61072d60048036038101906107289190613e0b565b611c59565b005b610737611c87565b6040516107449190613cdb565b60405180910390f35b61076760048036038101906107629190613e0b565b611c8e565b005b610783600480360381019061077e919061480e565b611cbc565b6040516107909190613dc4565b60405180910390f35b6107b360048036038101906107ae9190613e0b565b611e20565b6040516107c09190613dc4565b60405180910390f35b6107d1611e38565b6040516107de9190613cdb565b60405180910390f35b6107ef611e5c565b005b61080b6004803603810190610806919061470c565b611e5e565b60405161081891906140a2565b60405180910390f35b61083b60048036038101906108369190613e0b565b611f3a565b6040516108489190614464565b60405180910390f35b610859612026565b6040516108669190613d37565b60405180910390f35b610889600480360381019061088491906144b2565b612050565b6040516108969190613dc4565b60405180910390f35b6108a7612074565b6040516108b49190613cdb565b60405180910390f35b6108c5612098565b6040516108d29190613dc4565b60405180910390f35b6108e361209d565b005b6108ff60048036038101906108fa9190613e0b565b6121d4565b60405161090c9190613dc4565b60405180910390f35b61092f600480360381019061092a9190613e0b565b6121ec565b60405161093c919061490c565b60405180910390f35b61095f600480360381019061095a91906146cc565b612257565b005b61097b60048036038101906109769190613fda565b612278565b60405161098891906140a2565b60405180910390f35b6109ab60048036038101906109a6919061492e565b612325565b6040516109b89190613dc4565b60405180910390f35b6109c96124e5565b6040516109d69190613cdb565b60405180910390f35b6109f960048036038101906109f49190613e0b565b612509565b005b610a156004803603810190610a109190613f7e565b612560565b604051610a229190613ca7565b60405180910390f35b610a456004803603810190610a409190614b7d565b6125a5565b005b610a616004803603810190610a5c9190614bfe565b6127d7565b005b610a7d6004803603810190610a789190614c6d565b6128b5565b005b60007f5a05180f000000000000000000000000000000000000000000000000000000007bffffffffffffffffffffffffffffffffffffffffffffffffffffffff1916827bffffffffffffffffffffffffffffffffffffffffffffffffffffffff19161480610af25750610af182612ad1565b5b9050919050565b7fdfbefbf47cfe66b701d8cfdbce1de81c821590819cb07e71cb01b6602fb0ee2781565b600f60009054906101000a900473ffffffffffffffffffffffffffffffffffffffff1681565b6000610b6f7fdfbefbf47cfe66b701d8cfdbce1de81c821590819cb07e71cb01b6602fb0ee2783611656565b9050919050565b600e5481565b610bad7fdfbefbf47cfe66b701d8cfdbce1de81c821590819cb07e71cb01b6602fb0ee27610ba8612b4b565b611656565b80610be55750610be47f1d93c87416ca7b54f0fb8323167b72760e8e2ec93d48660953897a150f97a8b4610bdf612b4b565b611656565b5b610c24576040517f08c379a0000000000000000000000000000000000000000000000000000000008152600401610c1b90614d4e565b60405180910390fd5b50565b6007602052816000526040600020818051602081018201805184825260208301602085012081835280955050505050506000915091509054906101000a900473ffffffffffffffffffffffffffffffffffffffff1681565b60066020528160005260406000208181548110610c9b57600080fd5b90600052602060002001600091509150508054610cb790614d9d565b80601f0160208091040260200160405190810160405280929190818152602001828054610ce390614d9d565b8015610d305780601f10610d0557610100808354040283529160200191610d30565b820191906000526020600020905b815481529060010190602001808311610d1357829003601f168201915b505050505081565b7f1d93c87416ca7b54f0fb8323167b72760e8e2ec93d48660953897a150f97a8b4610d6281612b53565b8151845114610da6576040517f08c379a0000000000000000000000000000000000000000000000000000000008152600401610d9d90614e1b565b60405180910390fd5b610db1868686612b67565b610df0576040517f08c379a0000000000000000000000000000000000000000000000000000000008152600401610de790614e87565b60405180910390fd5b610dfb868484612c16565b610e3a576040517f08c379a0000000000000000000000000000000000000000000000000000000008152600401610e3190614ef3565b60405180910390fd5b60005b8451811015610e59578080610e5190614f42565b915050610e3d565b50505050505050565b60606008600084815260200190815260200160002082604051610e859190614fc7565b9081526020016040518091039020805480602002602001604051908101604052809291908181526020016000905b82821015610f5f578382906000526020600020018054610ed290614d9d565b80601f0160208091040260200160405190810160405280929190818152602001828054610efe90614d9d565b8015610f4b5780601f10610f2057610100808354040283529160200191610f4b565b820191906000526020600020905b815481529060010190602001808311610f2e57829003601f168201915b505050505081526020019060010190610eb3565b50505050905092915050565b6000806000838152602001908152602001600020600101549050919050565b7f72b06b67826def9fabb513b23f7e5eb74f7ece26d25dad4006546ecf4a13763d610fb481612b53565b5050505050565b6000801b610fc881612b53565b610ff27fdfbefbf47cfe66b701d8cfdbce1de81c821590819cb07e71cb01b6602fb0ee2783612cc5565b5050565b7f1d93c87416ca7b54f0fb8323167b72760e8e2ec93d48660953897a150f97a8b461102081612b53565b8251845114611064576040517f08c379a000000000000000000000000000000000000000000000000000000000815260040161105b90615050565b60405180910390fd5b61106f848484612cd3565b50505050565b61107e82610f6b565b61108781612b53565b6110918383612e8e565b505050565b6000805b6003805490508110156110e9576000600382815481106110bd576110bc615070565b5b9060005260206000200154146110d657600191506110e9565b80806110e190614f42565b91505061109a565b5090565b6110f5612b4b565b73ffffffffffffffffffffffffffffffffffffffff168173ffffffffffffffffffffffffffffffffffffffff1614611162576040517f08c379a000000000000000000000000000000000000000000000000000000000815260040161115990615111565b60405180910390fd5b61116c8282612ec2565b5050565b600d5481565b7f1d93c87416ca7b54f0fb8323167b72760e8e2ec93d48660953897a150f97a8b46111a081612b53565b6111ca7fd017b644efdbb8827e313d7971462ef180dad8aa174c6fb8427f18caad304df783612cc5565b5050565b60046020528060005260406000206000915090505481565b600860205282600052604060002082805160208101820180518482526020830160208501208183528095505050505050818154811061122457600080fd5b906000526020600020016000925092505050805461124190614d9d565b80601f016020809104026020016040519081016040528092919081815260200182805461126d90614d9d565b80156112ba5780601f1061128f576101008083540402835291602001916112ba565b820191906000526020600020905b81548152906001019060200180831161129d57829003601f168201915b505050505081565b6112f37fdfbefbf47cfe66b701d8cfdbce1de81c821590819cb07e71cb01b6602fb0ee276112ee612b4b565b611656565b8061132b575061132a7f1d93c87416ca7b54f0fb8323167b72760e8e2ec93d48660953897a150f97a8b4611325612b4b565b611656565b5b61136a576040517f08c379a000000000000000000000000000000000000000000000000000000000815260040161136190614d4e565b60405180910390fd5b6000600e54600d5461137c9190615131565b67ffffffffffffffff81111561139557611394613e53565b5b6040519080825280602002602001820160405280156113c35781602001602082028036833780820191505090505b509050600073__XYCoordinates_________________________639f6b5649600e54600d546040518363ffffffff1660e01b815260040161140592919061519a565b600060405180830381865af4158015611422573d6000803e3d6000fd5b505050506040513d6000823e3d601f19601f8201168201806040525081019061144b91906152e8565b905060005b82518110156114dc57600f60009054906101000a900473ffffffffffffffffffffffffffffffffffffffff1683828151811061148f5761148e615070565b5b602002602001019073ffffffffffffffffffffffffffffffffffffffff16908173ffffffffffffffffffffffffffffffffffffffff168152505080806114d490614f42565b915050611450565b506114e8828285612cd3565b505050565b606060096000848152602001908152602001600020826040516115109190614fc7565b9081526020016040518091039020805480602002602001604051908101604052809291908181526020016000905b828210156115ea57838290600052602060002001805461155d90614d9d565b80601f016020809104026020016040519081016040528092919081815260200182805461158990614d9d565b80156115d65780601f106115ab576101008083540402835291602001916115d6565b820191906000526020600020905b8154815290600101906020018083116115b957829003601f168201915b50505050508152602001906001019061153e565b50505050905092915050565b600c602052816000526040600020818154811061161257600080fd5b90600052602060002001600091509150505481565b600061164e8260016000868152602001908152602001600020612ef690919063ffffffff16565b905092915050565b600080600084815260200190815260200160002060000160008373ffffffffffffffffffffffffffffffffffffffff1673ffffffffffffffffffffffffffffffffffffffff16815260200190815260200160002060009054906101000a900460ff16905092915050565b600080600260009054906101000a900473ffffffffffffffffffffffffffffffffffffffff1673ffffffffffffffffffffffffffffffffffffffff1663bca7caa086866040518363ffffffff1660e01b8152600401611720929190615331565b602060405180830381865afa15801561173d573d6000803e3d6000fd5b505050506040513d601f19601f82011682018060405250810190611761919061536f565b90506000600b60008781526020019081526020016000206000838152602001908152602001600020805461179490614d9d565b80601f01602080910402602001604051908101604052809291908181526020018280546117c090614d9d565b801561180d5780601f106117e25761010080835404028352916020019161180d565b820191906000526020600020905b8154815290600101906020018083116117f057829003601f168201915b50505050509050600060096000888152602001908152602001600020826040516118379190614fc7565b90815260200160405180910390208054905090506000811161188e576040517f08c379a0000000000000000000000000000000000000000000000000000000008152600401611885906153e8565b60405180910390fd5b60009350600060076000898152602001908152602001600020836040516118b59190614fc7565b908152602001604051809103902060009054906101000a900473ffffffffffffffffffffffffffffffffffffffff16905060008287116118f557866118f8565b60005b90506000600960008b81526020019081526020016000208560405161191d9190614fc7565b9081526020016040518091039020828154811061193d5761193c615070565b5b90600052602060002001805461195290614d9d565b80601f016020809104026020016040519081016040528092919081815260200182805461197e90614d9d565b80156119cb5780601f106119a0576101008083540402835291602001916119cb565b820191906000526020600020905b8154815290600101906020018083116119ae57829003601f168201915b505050505090506000600760008c8152602001908152602001600020826040516119f59190614fc7565b908152602001604051809103902060009054906101000a900473ffffffffffffffffffffffffffffffffffffffff1690508373ffffffffffffffffffffffffffffffffffffffff16637caf12808b8d896040518463ffffffff1660e01b8152600401611a6393929190615408565b602060405180830381865afa158015611a80573d6000803e3d6000fd5b505050506040513d601f19601f82011682018060405250810190611aa49190615472565b8015611b2a57508073ffffffffffffffffffffffffffffffffffffffff1663e15b3ad08b8d856040518463ffffffff1660e01b8152600401611ae893929190615408565b602060405180830381865afa158015611b05573d6000803e3d6000fd5b505050506040513d601f19601f82011682018060405250810190611b299190615472565b5b15611c4b578373ffffffffffffffffffffffffffffffffffffffff166328d7e11a8b8d896040518463ffffffff1660e01b8152600401611b6c93929190615408565b600060405180830381600087803b158015611b8657600080fd5b505af1158015611b9a573d6000803e3d6000fd5b505050508073ffffffffffffffffffffffffffffffffffffffff166398bd75728b8d856040518463ffffffff1660e01b8152600401611bdb93929190615408565b600060405180830381600087803b158015611bf557600080fd5b505af1158015611c09573d6000803e3d6000fd5b5050505081600b60008d815260200190815260200160002060008981526020019081526020016000209080519060200190611c45929190613b50565b50600197505b505050505050509392505050565b7fd017b644efdbb8827e313d7971462ef180dad8aa174c6fb8427f18caad304df7611c8381612b53565b5050565b6000801b81565b7f72b06b67826def9fabb513b23f7e5eb74f7ece26d25dad4006546ecf4a13763d611cb881612b53565b5050565b6000611cef7fdfbefbf47cfe66b701d8cfdbce1de81c821590819cb07e71cb01b6602fb0ee27611cea612b4b565b611656565b80611d275750611d267f1d93c87416ca7b54f0fb8323167b72760e8e2ec93d48660953897a150f97a8b4611d21612b4b565b611656565b5b611d66576040517f08c379a0000000000000000000000000000000000000000000000000000000008152600401611d5d90614d4e565b60405180910390fd5b82600260006101000a81548173ffffffffffffffffffffffffffffffffffffffff021916908373ffffffffffffffffffffffffffffffffffffffff1602179055508173ffffffffffffffffffffffffffffffffffffffff16630a75806e6040518163ffffffff1660e01b81526004016020604051808303816000875af1158015611df4573d6000803e3d6000fd5b505050506040513d601f19601f82011682018060405250810190611e18919061536f565b905092915050565b600a6020528060005260406000206000915090505481565b7f1d93c87416ca7b54f0fb8323167b72760e8e2ec93d48660953897a150f97a8b481565b565b6009602052826000526040600020828051602081018201805184825260208301602085012081835280955050505050508181548110611e9c57600080fd5b9060005260206000200160009250925050508054611eb990614d9d565b80601f0160208091040260200160405190810160405280929190818152602001828054611ee590614d9d565b8015611f325780601f10611f0757610100808354040283529160200191611f32565b820191906000526020600020905b815481529060010190602001808311611f1557829003601f168201915b505050505081565b606060066000838152602001908152602001600020805480602002602001604051908101604052809291908181526020016000905b8282101561201b578382906000526020600020018054611f8e90614d9d565b80601f0160208091040260200160405190810160405280929190818152602001828054611fba90614d9d565b80156120075780601f10611fdc57610100808354040283529160200191612007565b820191906000526020600020905b815481529060010190602001808311611fea57829003601f168201915b505050505081526020019060010190611f6f565b505050509050919050565b6000600260009054906101000a900473ffffffffffffffffffffffffffffffffffffffff16905090565b600061206d60016000848152602001908152602001600020612f10565b9050919050565b7f72b06b67826def9fabb513b23f7e5eb74f7ece26d25dad4006546ecf4a13763d81565b60c881565b7fd017b644efdbb8827e313d7971462ef180dad8aa174c6fb8427f18caad304df76120c781612b53565b60008060005b60038054905081101561213c576000600382815481106120f0576120ef615070565b5b906000526020600020015414612129576003818154811061211457612113615070565b5b9060005260206000200154925080915061213c565b808061213490614f42565b9150506120cd565b506000600460008481526020019081526020016000205414156121675761216282612f25565b61218e565b60016004600084815260200190815260200160002054141561218d5761218c82612fce565b5b5b6001600460008481526020019081526020016000205411156121cf576000600382815481106121c0576121bf615070565b5b90600052602060002001819055505b505050565b60056020528060005260406000206000915090505481565b6060600c600083815260200190815260200160002080548060200260200160405190810160405280929190818152602001828054801561224b57602002820191906000526020600020905b815481526020019060010190808311612237575b50505050509050919050565b61226082610f6b565b61226981612b53565b6122738383612ec2565b505050565b600b6020528160005260406000206020528060005260406000206000915091505080546122a490614d9d565b80601f01602080910402602001604051908101604052809291908181526020018280546122d090614d9d565b801561231d5780601f106122f25761010080835404028352916020019161231d565b820191906000526020600020905b81548152906001019060200180831161230057829003601f168201915b505050505081565b60006123587fdfbefbf47cfe66b701d8cfdbce1de81c821590819cb07e71cb01b6602fb0ee27612353612b4b565b611656565b80612390575061238f7f1d93c87416ca7b54f0fb8323167b72760e8e2ec93d48660953897a150f97a8b461238a612b4b565b611656565b5b6123cf576040517f08c379a00000000000000000000000000000000000000000000000000000000081526004016123c690614d4e565b60405180910390fd5b8151835114612413576040517f08c379a000000000000000000000000000000000000000000000000000000000815260040161240a90615050565b60405180910390fd5b60008351111561242957612428838383612cd3565b5b84600260006101000a81548173ffffffffffffffffffffffffffffffffffffffff021916908373ffffffffffffffffffffffffffffffffffffffff1602179055508373ffffffffffffffffffffffffffffffffffffffff16630a75806e6040518163ffffffff1660e01b81526004016020604051808303816000875af11580156124b7573d6000803e3d6000fd5b505050506040513d601f19601f820116820180604052508101906124db919061536f565b9050949350505050565b7fd017b644efdbb8827e313d7971462ef180dad8aa174c6fb8427f18caad304df781565b7f1d93c87416ca7b54f0fb8323167b72760e8e2ec93d48660953897a150f97a8b461253381612b53565b60038290806001815401808255809150506001900390600052602060002001600090919091909150555050565b6011602052816000526040600020818051602081018201805184825260208301602085012081835280955050505050506000915091509054906101000a900460ff1681565b7f1d93c87416ca7b54f0fb8323167b72760e8e2ec93d48660953897a150f97a8b46125cf81612b53565b6125d98383613373565b612618576040517f08c379a000000000000000000000000000000000000000000000000000000000815260040161260f906154eb565b60405180910390fd5b60005b82518110156127d1576009600085815260200190815260200160002083828151811061264a57612649615070565b5b602002602001015160006002811061266557612664615070565b5b60200201516040516126779190614fc7565b908152602001604051809103902083828151811061269857612697615070565b5b60200260200101516001600281106126b3576126b2615070565b5b60200201519080600181540180825580915050600190039060005260206000200160009091909190915090805190602001906126f0929190613b50565b506008600085815260200190815260200160002083828151811061271757612716615070565b5b602002602001015160016002811061273257612731615070565b5b60200201516040516127449190614fc7565b908152602001604051809103902083828151811061276557612764615070565b5b60200260200101516000600281106127805761277f615070565b5b60200201519080600181540180825580915050600190039060005260206000200160009091909190915090805190602001906127bd929190613b50565b5080806127c990614f42565b91505061261b565b50505050565b601060009054906101000a900473ffffffffffffffffffffffffffffffffffffffff1673ffffffffffffffffffffffffffffffffffffffff1663d49396098383866040518463ffffffff1660e01b815260040161283693929190615582565b600060405180830381600087803b15801561285057600080fd5b505af1158015612864573d6000803e3d6000fd5b505050506001601160008381526020019081526020016000208460405161288b9190614fc7565b908152602001604051809103902060006101000a81548160ff021916908315150217905550505050565b7f72b06b67826def9fabb513b23f7e5eb74f7ece26d25dad4006546ecf4a13763d6128df81612b53565b6000600260009054906101000a900473ffffffffffffffffffffffffffffffffffffffff1673ffffffffffffffffffffffffffffffffffffffff1663bca7caa086866040518363ffffffff1660e01b815260040161293e929190615331565b602060405180830381865afa15801561295b573d6000803e3d6000fd5b505050506040513d601f19601f8201168201806040525081019061297f919061536f565b905082600b6000878152602001908152602001600020600083815260200190815260200160002090805190602001906129b9929190613b50565b505050505050565b6129cb8282611656565b612a9d57600160008084815260200190815260200160002060000160008373ffffffffffffffffffffffffffffffffffffffff1673ffffffffffffffffffffffffffffffffffffffff16815260200190815260200160002060006101000a81548160ff021916908315150217905550612a42612b4b565b73ffffffffffffffffffffffffffffffffffffffff168173ffffffffffffffffffffffffffffffffffffffff16837f2f8788117e7eff1d82e926ec794901d17c78024a50270940304540a733656f0d60405160405180910390a45b5050565b6000612ac9836000018373ffffffffffffffffffffffffffffffffffffffff1660001b613519565b905092915050565b60007f7965db0b000000000000000000000000000000000000000000000000000000007bffffffffffffffffffffffffffffffffffffffffffffffffffffffff1916827bffffffffffffffffffffffffffffffffffffffffffffffffffffffff19161480612b445750612b4382613589565b5b9050919050565b600033905090565b612b6481612b5f612b4b565b6135f3565b50565b60006001905060005b8251811015612c0e576001838281518110612b8e57612b8d615070565b5b6020026020010151612ba091906155c0565b60086000878152602001908152602001600020858381518110612bc657612bc5615070565b5b6020026020010151604051612bdb9190614fc7565b90815260200160405180910390208054905010612bfb5760009150612c0e565b8080612c0690614f42565b915050612b70565b509392505050565b60006001905060005b8251811015612cbd576001838281518110612c3d57612c3c615070565b5b6020026020010151612c4f91906155c0565b60096000878152602001908152602001600020858381518110612c7557612c74615070565b5b6020026020010151604051612c8a9190614fc7565b90815260200160405180910390208054905010612caa5760009150612cbd565b8080612cb590614f42565b915050612c1f565b509392505050565b612ccf8282612e8e565b5050565b60005b8351811015612e885760066000838152602001908152602001600020838281518110612d0557612d04615070565b5b6020026020010151908060018154018082558091505060019003906000526020600020016000909190919091509080519060200190612d45929190613b50565b50838181518110612d5957612d58615070565b5b602002602001015160076000848152602001908152602001600020848381518110612d8757612d86615070565b5b6020026020010151604051612d9c9190614fc7565b908152602001604051809103902060006101000a81548173ffffffffffffffffffffffffffffffffffffffff021916908373ffffffffffffffffffffffffffffffffffffffff160217905550612e2c7f72b06b67826def9fabb513b23f7e5eb74f7ece26d25dad4006546ecf4a13763d858381518110612e1f57612e1e615070565b5b6020026020010151611656565b612e7557612e747f72b06b67826def9fabb513b23f7e5eb74f7ece26d25dad4006546ecf4a13763d858381518110612e6757612e66615070565b5b6020026020010151612cc5565b5b8080612e8090614f42565b915050612cd6565b50505050565b612e9882826129c1565b612ebd8160016000858152602001908152602001600020612aa190919063ffffffff16565b505050565b612ecc8282613690565b612ef1816001600085815260200190815260200160002061377190919063ffffffff16565b505050565b6000612f0583600001836137a1565b60001c905092915050565b6000612f1e826000016137cc565b9050919050565b600260009054906101000a900473ffffffffffffffffffffffffffffffffffffffff1673ffffffffffffffffffffffffffffffffffffffff166360c20500826040518263ffffffff1660e01b8152600401612f809190613dc4565b600060405180830381600087803b158015612f9a57600080fd5b505af1158015612fae573d6000803e3d6000fd5b505050506001600460008381526020019081526020016000208190555050565b6000600760008381526020019081526020016000206006600084815260200190815260200160002060008154811061300957613008615070565b5b9060005260206000200160405161302091906156aa565b908152602001604051809103902060009054906101000a900473ffffffffffffffffffffffffffffffffffffffff169050600081905060005b600260009054906101000a900473ffffffffffffffffffffffffffffffffffffffff1673ffffffffffffffffffffffffffffffffffffffff1663b77ff411856040518263ffffffff1660e01b81526004016130b49190613dc4565b602060405180830381865afa1580156130d1573d6000803e3d6000fd5b505050506040513d601f19601f820116820180604052508101906130f5919061536f565b81101561335457600060018261310b91906155c0565b90506000600260009054906101000a900473ffffffffffffffffffffffffffffffffffffffff1673ffffffffffffffffffffffffffffffffffffffff1663f504325487846040518363ffffffff1660e01b815260040161316c9291906156c1565b602060405180830381865afa158015613189573d6000803e3d6000fd5b505050506040513d601f19601f820116820180604052508101906131ad91906156ff565b90508373ffffffffffffffffffffffffffffffffffffffff1663e15b3ad08288600660008b81526020019081526020016000206000815481106131f3576131f2615070565b5b906000526020600020016040518463ffffffff1660e01b815260040161321b939291906157ac565b602060405180830381865afa158015613238573d6000803e3d6000fd5b505050506040513d601f19601f8201168201806040525081019061325c9190615472565b15613304578373ffffffffffffffffffffffffffffffffffffffff166398bd75728288600660008b81526020019081526020016000206000815481106132a5576132a4615070565b5b906000526020600020016040518463ffffffff1660e01b81526004016132cd939291906157ac565b600060405180830381600087803b1580156132e757600080fd5b505af11580156132fb573d6000803e3d6000fd5b5050505061333f565b600c60008781526020019081526020016000208290806001815401808255809150506001900390600052602060002001600090919091909150555b5050808061334c90614f42565b915050613059565b5060026004600085815260200190815260200160002081905550505050565b600080600090505b82518110156135125760019150600073ffffffffffffffffffffffffffffffffffffffff16600760008681526020019081526020016000208483815181106133c6576133c5615070565b5b60200260200101516000600281106133e1576133e0615070565b5b60200201516040516133f39190614fc7565b908152602001604051809103902060009054906101000a900473ffffffffffffffffffffffffffffffffffffffff1673ffffffffffffffffffffffffffffffffffffffff1614806134f15750600073ffffffffffffffffffffffffffffffffffffffff166007600086815260200190815260200160002084838151811061347d5761347c615070565b5b602002602001015160016002811061349857613497615070565b5b60200201516040516134aa9190614fc7565b908152602001604051809103902060009054906101000a900473ffffffffffffffffffffffffffffffffffffffff1673ffffffffffffffffffffffffffffffffffffffff16145b156134ff5760009150613512565b808061350a90614f42565b91505061337b565b5092915050565b600061352583836137dd565b61357e578260000182908060018154018082558091505060019003906000526020600020016000909190919091505582600001805490508360010160008481526020019081526020016000208190555060019050613583565b600090505b92915050565b60007f01ffc9a7000000000000000000000000000000000000000000000000000000007bffffffffffffffffffffffffffffffffffffffffffffffffffffffff1916827bffffffffffffffffffffffffffffffffffffffffffffffffffffffff1916149050919050565b6135fd8282611656565b61368c576136228173ffffffffffffffffffffffffffffffffffffffff166014613800565b6136308360001c6020613800565b604051602001613641929190615882565b6040516020818303038152906040526040517f08c379a000000000000000000000000000000000000000000000000000000000815260040161368391906140a2565b60405180910390fd5b5050565b61369a8282611656565b1561376d57600080600084815260200190815260200160002060000160008373ffffffffffffffffffffffffffffffffffffffff1673ffffffffffffffffffffffffffffffffffffffff16815260200190815260200160002060006101000a81548160ff021916908315150217905550613712612b4b565b73ffffffffffffffffffffffffffffffffffffffff168173ffffffffffffffffffffffffffffffffffffffff16837ff6391f5c32d9c69d2a47ea670b442974b53935d1edc7fd64eb21e047a839171b60405160405180910390a45b5050565b6000613799836000018373ffffffffffffffffffffffffffffffffffffffff1660001b613a3c565b905092915050565b60008260000182815481106137b9576137b8615070565b5b9060005260206000200154905092915050565b600081600001805490509050919050565b600080836001016000848152602001908152602001600020541415905092915050565b6060600060028360026138139190615131565b61381d91906155c0565b67ffffffffffffffff81111561383657613835613e53565b5b6040519080825280601f01601f1916602001820160405280156138685781602001600182028036833780820191505090505b5090507f3000000000000000000000000000000000000000000000000000000000000000816000815181106138a05761389f615070565b5b60200101907effffffffffffffffffffffffffffffffffffffffffffffffffffffffffffff1916908160001a9053507f78000000000000000000000000000000000000000000000000000000000000008160018151811061390457613903615070565b5b60200101907effffffffffffffffffffffffffffffffffffffffffffffffffffffffffffff1916908160001a905350600060018460026139449190615131565b61394e91906155c0565b90505b60018111156139ee577f3031323334353637383961626364656600000000000000000000000000000000600f8616601081106139905761398f615070565b5b1a60f81b8282815181106139a7576139a6615070565b5b60200101907effffffffffffffffffffffffffffffffffffffffffffffffffffffffffffff1916908160001a905350600485901c9450806139e7906158bc565b9050613951565b5060008414613a32576040517f08c379a0000000000000000000000000000000000000000000000000000000008152600401613a2990615932565b60405180910390fd5b8091505092915050565b60008083600101600084815260200190815260200160002054905060008114613b44576000600182613a6e9190615952565b9050600060018660000180549050613a869190615952565b9050818114613af5576000866000018281548110613aa757613aa6615070565b5b9060005260206000200154905080876000018481548110613acb57613aca615070565b5b90600052602060002001819055508387600101600083815260200190815260200160002081905550505b85600001805480613b0957613b08615986565b5b600190038181906000526020600020016000905590558560010160008681526020019081526020016000206000905560019350505050613b4a565b60009150505b92915050565b828054613b5c90614d9d565b90600052602060002090601f016020900481019282613b7e5760008555613bc5565b82601f10613b9757805160ff1916838001178555613bc5565b82800160010185558215613bc5579182015b82811115613bc4578251825591602001919060010190613ba9565b5b509050613bd29190613bd6565b5090565b5b80821115613bef576000816000905550600101613bd7565b5090565b6000604051905090565b600080fd5b600080fd5b60007fffffffff0000000000000000000000000000000000000000000000000000000082169050919050565b613c3c81613c07565b8114613c4757600080fd5b50565b600081359050613c5981613c33565b92915050565b600060208284031215613c7557613c74613bfd565b5b6000613c8384828501613c4a565b91505092915050565b60008115159050919050565b613ca181613c8c565b82525050565b6000602082019050613cbc6000830184613c98565b92915050565b6000819050919050565b613cd581613cc2565b82525050565b6000602082019050613cf06000830184613ccc565b92915050565b600073ffffffffffffffffffffffffffffffffffffffff82169050919050565b6000613d2182613cf6565b9050919050565b613d3181613d16565b82525050565b6000602082019050613d4c6000830184613d28565b92915050565b613d5b81613d16565b8114613d6657600080fd5b50565b600081359050613d7881613d52565b92915050565b600060208284031215613d9457613d93613bfd565b5b6000613da284828501613d69565b91505092915050565b6000819050919050565b613dbe81613dab565b82525050565b6000602082019050613dd96000830184613db5565b92915050565b613de881613dab565b8114613df357600080fd5b50565b600081359050613e0581613ddf565b92915050565b600060208284031215613e2157613e20613bfd565b5b6000613e2f84828501613df6565b91505092915050565b600080fd5b600080fd5b6000601f19601f8301169050919050565b7f4e487b7100000000000000000000000000000000000000000000000000000000600052604160045260246000fd5b613e8b82613e42565b810181811067ffffffffffffffff82111715613eaa57613ea9613e53565b5b80604052505050565b6000613ebd613bf3565b9050613ec98282613e82565b919050565b600067ffffffffffffffff821115613ee957613ee8613e53565b5b613ef282613e42565b9050602081019050919050565b82818337600083830152505050565b6000613f21613f1c84613ece565b613eb3565b905082815260208101848484011115613f3d57613f3c613e3d565b5b613f48848285613eff565b509392505050565b600082601f830112613f6557613f64613e38565b5b8135613f75848260208601613f0e565b91505092915050565b60008060408385031215613f9557613f94613bfd565b5b6000613fa385828601613df6565b925050602083013567ffffffffffffffff811115613fc457613fc3613c02565b5b613fd085828601613f50565b9150509250929050565b60008060408385031215613ff157613ff0613bfd565b5b6000613fff85828601613df6565b925050602061401085828601613df6565b9150509250929050565b600081519050919050565b600082825260208201905092915050565b60005b83811015614054578082015181840152602081019050614039565b83811115614063576000848401525b50505050565b60006140748261401a565b61407e8185614025565b935061408e818560208601614036565b61409781613e42565b840191505092915050565b600060208201905081810360008301526140bc8184614069565b905092915050565b600067ffffffffffffffff8211156140df576140de613e53565b5b602082029050602081019050919050565b600080fd5b6000614108614103846140c4565b613eb3565b9050808382526020820190506020840283018581111561412b5761412a6140f0565b5b835b8181101561417257803567ffffffffffffffff8111156141505761414f613e38565b5b80860161415d8982613f50565b8552602085019450505060208101905061412d565b5050509392505050565b600082601f83011261419157614190613e38565b5b81356141a18482602086016140f5565b91505092915050565b600067ffffffffffffffff8211156141c5576141c4613e53565b5b602082029050602081019050919050565b60006141e96141e4846141aa565b613eb3565b9050808382526020820190506020840283018581111561420c5761420b6140f0565b5b835b8181101561423557806142218882613df6565b84526020840193505060208101905061420e565b5050509392505050565b600082601f83011261425457614253613e38565b5b81356142648482602086016141d6565b91505092915050565b600080600080600060a0868803121561428957614288613bfd565b5b600061429788828901613df6565b955050602086013567ffffffffffffffff8111156142b8576142b7613c02565b5b6142c48882890161417c565b945050604086013567ffffffffffffffff8111156142e5576142e4613c02565b5b6142f18882890161423f565b935050606086013567ffffffffffffffff81111561431257614311613c02565b5b61431e8882890161417c565b925050608086013567ffffffffffffffff81111561433f5761433e613c02565b5b61434b8882890161423f565b9150509295509295909350565b600081519050919050565b600082825260208201905092915050565b6000819050602082019050919050565b600082825260208201905092915050565b60006143a08261401a565b6143aa8185614384565b93506143ba818560208601614036565b6143c381613e42565b840191505092915050565b60006143da8383614395565b905092915050565b6000602082019050919050565b60006143fa82614358565b6144048185614363565b93508360208202850161441685614374565b8060005b85811015614452578484038952815161443385826143ce565b945061443e836143e2565b925060208a0199505060018101905061441a565b50829750879550505050505092915050565b6000602082019050818103600083015261447e81846143ef565b905092915050565b61448f81613cc2565b811461449a57600080fd5b50565b6000813590506144ac81614486565b92915050565b6000602082840312156144c8576144c7613bfd565b5b60006144d68482850161449d565b91505092915050565b600067ffffffffffffffff8211156144fa576144f9613e53565b5b602082029050602081019050919050565b600061451e614519846144df565b613eb3565b90508083825260208201905060208402830185811115614541576145406140f0565b5b835b8181101561456a57806145568882613d69565b845260208401935050602081019050614543565b5050509392505050565b600082601f83011261458957614588613e38565b5b813561459984826020860161450b565b91505092915050565b600080600080608085870312156145bc576145bb613bfd565b5b60006145ca87828801613df6565b945050602085013567ffffffffffffffff8111156145eb576145ea613c02565b5b6145f787828801614574565b935050604085013567ffffffffffffffff81111561461857614617613c02565b5b6146248782880161423f565b925050606061463587828801613df6565b91505092959194509250565b60008060006060848603121561465a57614659613bfd565b5b600084013567ffffffffffffffff81111561467857614677613c02565b5b61468486828701614574565b935050602084013567ffffffffffffffff8111156146a5576146a4613c02565b5b6146b18682870161417c565b92505060406146c286828701613df6565b9150509250925092565b600080604083850312156146e3576146e2613bfd565b5b60006146f18582860161449d565b925050602061470285828601613d69565b9150509250929050565b60008060006060848603121561472557614724613bfd565b5b600061473386828701613df6565b935050602084013567ffffffffffffffff81111561475457614753613c02565b5b61476086828701613f50565b925050604061477186828701613df6565b9150509250925092565b6000806040838503121561479257614791613bfd565b5b60006147a08582860161449d565b92505060206147b185828601613df6565b9150509250929050565b6000806000606084860312156147d4576147d3613bfd565b5b60006147e286828701613df6565b93505060206147f386828701613d69565b925050604061480486828701613df6565b9150509250925092565b6000806040838503121561482557614824613bfd565b5b600061483385828601613d69565b925050602061484485828601613d69565b9150509250929050565b600081519050919050565b600082825260208201905092915050565b6000819050602082019050919050565b61488381613dab565b82525050565b6000614895838361487a565b60208301905092915050565b6000602082019050919050565b60006148b98261484e565b6148c38185614859565b93506148ce8361486a565b8060005b838110156148ff5781516148e68882614889565b97506148f1836148a1565b9250506001810190506148d2565b5085935050505092915050565b6000602082019050818103600083015261492681846148ae565b905092915050565b6000806000806080858703121561494857614947613bfd565b5b600061495687828801613d69565b945050602061496787828801613d69565b935050604085013567ffffffffffffffff81111561498857614987613c02565b5b61499487828801614574565b925050606085013567ffffffffffffffff8111156149b5576149b4613c02565b5b6149c18782880161417c565b91505092959194509250565b600067ffffffffffffffff8211156149e8576149e7613e53565b5b602082029050602081019050919050565b600067ffffffffffffffff821115614a1457614a13613e53565b5b602082029050919050565b6000614a32614a2d846149f9565b613eb3565b90508060208402830185811115614a4c57614a4b6140f0565b5b835b81811015614a9357803567ffffffffffffffff811115614a7157614a70613e38565b5b808601614a7e8982613f50565b85526020850194505050602081019050614a4e565b5050509392505050565b600082601f830112614ab257614ab1613e38565b5b6002614abf848285614a1f565b91505092915050565b6000614adb614ad6846149cd565b613eb3565b90508083825260208201905060208402830185811115614afe57614afd6140f0565b5b835b81811015614b4557803567ffffffffffffffff811115614b2357614b22613e38565b5b808601614b308982614a9d565b85526020850194505050602081019050614b00565b5050509392505050565b600082601f830112614b6457614b63613e38565b5b8135614b74848260208601614ac8565b91505092915050565b60008060408385031215614b9457614b93613bfd565b5b6000614ba285828601613df6565b925050602083013567ffffffffffffffff811115614bc357614bc2613c02565b5b614bcf85828601614b4f565b9150509250929050565b60068110614be657600080fd5b50565b600081359050614bf881614bd9565b92915050565b600080600060608486031215614c1757614c16613bfd565b5b600084013567ffffffffffffffff811115614c3557614c34613c02565b5b614c4186828701613f50565b9350506020614c5286828701614be9565b9250506040614c6386828701613df6565b9150509250925092565b600080600060608486031215614c8657614c85613bfd565b5b6000614c9486828701613df6565b9350506020614ca586828701613d69565b925050604084013567ffffffffffffffff811115614cc657614cc5613c02565b5b614cd286828701613f50565b9150509250925092565b7f47616d65204d6173746572206f7220466163746f727920726f6c65207265717560008201527f6972656400000000000000000000000000000000000000000000000000000000602082015250565b6000614d38602483614025565b9150614d4382614cdc565b604082019050919050565b60006020820190508181036000830152614d6781614d2b565b9050919050565b7f4e487b7100000000000000000000000000000000000000000000000000000000600052602260045260246000fd5b60006002820490506001821680614db557607f821691505b60208210811415614dc957614dc8614d6e565b5b50919050565b7f696e70757473202f206f757470757473206c656e677468206d69736d61746368600082015250565b6000614e05602083614025565b9150614e1082614dcf565b602082019050919050565b60006020820190508181036000830152614e3481614df8565b9050919050565b7f696e7075747320696e76616c6964000000000000000000000000000000000000600082015250565b6000614e71600e83614025565b9150614e7c82614e3b565b602082019050919050565b60006020820190508181036000830152614ea081614e64565b9050919050565b7f6f75747075747320696e76616c69640000000000000000000000000000000000600082015250565b6000614edd600f83614025565b9150614ee882614ea7565b602082019050919050565b60006020820190508181036000830152614f0c81614ed0565b9050919050565b7f4e487b7100000000000000000000000000000000000000000000000000000000600052601160045260246000fd5b6000614f4d82613dab565b91507fffffffffffffffffffffffffffffffffffffffffffffffffffffffffffffffff821415614f8057614f7f614f13565b5b600182019050919050565b600081905092915050565b6000614fa18261401a565b614fab8185614f8b565b9350614fbb818560208601614036565b80840191505092915050565b6000614fd38284614f96565b915081905092915050565b7f616464726573736573202620616c696173657320646966666572656e74206c6560008201527f6e67746873000000000000000000000000000000000000000000000000000000602082015250565b600061503a602583614025565b915061504582614fde565b604082019050919050565b600060208201905081810360008301526150698161502d565b9050919050565b7f4e487b7100000000000000000000000000000000000000000000000000000000600052603260045260246000fd5b7f416363657373436f6e74726f6c3a2063616e206f6e6c792072656e6f756e636560008201527f20726f6c657320666f722073656c660000000000000000000000000000000000602082015250565b60006150fb602f83614025565b91506151068261509f565b604082019050919050565b6000602082019050818103600083015261512a816150ee565b9050919050565b600061513c82613dab565b915061514783613dab565b9250817fffffffffffffffffffffffffffffffffffffffffffffffffffffffffffffffff04831182151516156151805761517f614f13565b5b828202905092915050565b61519481613dab565b82525050565b60006040820190506151af600083018561518b565b6151bc602083018461518b565b9392505050565b60006151d66151d184613ece565b613eb3565b9050828152602081018484840111156151f2576151f1613e3d565b5b6151fd848285614036565b509392505050565b600082601f83011261521a57615219613e38565b5b815161522a8482602086016151c3565b91505092915050565b6000615246615241846140c4565b613eb3565b90508083825260208201905060208402830185811115615269576152686140f0565b5b835b818110156152b057805167ffffffffffffffff81111561528e5761528d613e38565b5b80860161529b8982615205565b8552602085019450505060208101905061526b565b5050509392505050565b600082601f8301126152cf576152ce613e38565b5b81516152df848260208601615233565b91505092915050565b6000602082840312156152fe576152fd613bfd565b5b600082015167ffffffffffffffff81111561531c5761531b613c02565b5b615328848285016152ba565b91505092915050565b60006040820190506153466000830185613db5565b6153536020830184613d28565b9392505050565b60008151905061536981613ddf565b92915050565b60006020828403121561538557615384613bfd565b5b60006153938482850161535a565b91505092915050565b7f4e6f206578697420706174687320617661696c61626c65000000000000000000600082015250565b60006153d2601783614025565b91506153dd8261539c565b602082019050919050565b60006020820190508181036000830152615401816153c5565b9050919050565b600060608201905061541d6000830186613d28565b61542a6020830185613db5565b818103604083015261543c8184614069565b9050949350505050565b61544f81613c8c565b811461545a57600080fd5b50565b60008151905061546c81615446565b92915050565b60006020828403121561548857615487613bfd565b5b60006154968482850161545d565b91505092915050565b7f6e6f7420616c6c207a6f6e6520696e64656365732076616c6964000000000000600082015250565b60006154d5601a83614025565b91506154e08261549f565b602082019050919050565b60006020820190508181036000830152615504816154c8565b9050919050565b7f4e487b7100000000000000000000000000000000000000000000000000000000600052602160045260246000fd5b6006811061554b5761554a61550b565b5b50565b600081905061555c8261553a565b919050565b600061556c8261554e565b9050919050565b61557c81615561565b82525050565b60006060820190506155976000830186615573565b6155a46020830185613db5565b81810360408301526155b68184614069565b9050949350505050565b60006155cb82613dab565b91506155d683613dab565b9250827fffffffffffffffffffffffffffffffffffffffffffffffffffffffffffffffff0382111561560b5761560a614f13565b5b828201905092915050565b60008190508160005260206000209050919050565b6000815461563881614d9d565b6156428186614f8b565b9450600182166000811461565d576001811461566e576156a1565b60ff198316865281860193506156a1565b61567785615616565b60005b838110156156995781548189015260018201915060208101905061567a565b838801955050505b50505092915050565b60006156b6828461562b565b915081905092915050565b60006040820190506156d66000830185613db5565b6156e36020830184613db5565b9392505050565b6000815190506156f981613d52565b92915050565b60006020828403121561571557615714613bfd565b5b6000615723848285016156ea565b91505092915050565b6000815461573981614d9d565b6157438186614025565b9450600182166000811461575e5760018114615770576157a3565b60ff19831686526020860193506157a3565b61577985615616565b60005b8381101561579b5781548189015260018201915060208101905061577c565b808801955050505b50505092915050565b60006060820190506157c16000830186613d28565b6157ce6020830185613db5565b81810360408301526157e0818461572c565b9050949350505050565b7f416363657373436f6e74726f6c3a206163636f756e7420000000000000000000600082015250565b6000615820601783614f8b565b915061582b826157ea565b601782019050919050565b7f206973206d697373696e6720726f6c6520000000000000000000000000000000600082015250565b600061586c601183614f8b565b915061587782615836565b601182019050919050565b600061588d82615813565b91506158998285614f96565b91506158a48261585f565b91506158b08284614f96565b91508190509392505050565b60006158c782613dab565b915060008214156158db576158da614f13565b5b600182039050919050565b7f537472696e67733a20686578206c656e67746820696e73756666696369656e74600082015250565b600061591c602083614025565b9150615927826158e6565b602082019050919050565b6000602082019050818103600083015261594b8161590f565b9050919050565b600061595d82613dab565b915061596883613dab565b92508282101561597b5761597a614f13565b5b828203905092915050565b7f4e487b7100000000000000000000000000000000000000000000000000000000600052603160045260246000fdfea2646970667358221220801f3762bb8347bbcde20f472b918b5a8f5fa1b67b7a05c8fe9cbc519e636f5464736f6c634300080b0033",
  "immutableReferences": {},
  "source": "// SPDX-License-Identifier: GPL-3.0\npragma solidity >=0.7.0 <0.9.0;\n\nimport \"@luckymachines/game-core/contracts/src/v0.0/custom_boards/HexGrid.sol\";\nimport \"./HexplorationZone.sol\";\n\ncontract HexplorationBoard is HexGrid {\n    HexplorationZone internal HEX_ZONE;\n    // game ID => zone alias\n    mapping(uint256 => mapping(string => bool)) public zoneEnabled;\n\n    constructor(\n        address adminAddress,\n        uint256 gridWidth,\n        uint256 gridHeight,\n        address zoneAddress\n    ) HexGrid(adminAddress, gridWidth, gridHeight, zoneAddress) {\n        HEX_ZONE = HexplorationZone(zoneAddress);\n    }\n\n    // TODO: figure out who should call this, might be VRF function...\n    function enableZone(\n        string memory zoneAlias,\n        HexplorationZone.Tile tile,\n        uint256 gameID\n    ) public {\n        HEX_ZONE.setTile(tile, gameID, zoneAlias);\n        zoneEnabled[gameID][zoneAlias] = true;\n    }\n}\n",
  "sourcePath": "/Users/maxmeier/Developer/Lucky Machines/hexploration/contracts/HexplorationBoard.sol",
  "compiler": {
    "name": "solc",
    "version": "0.8.11+commit.d7f03943.Emscripten.clang"
  },
  "schemaVersion": "3.4.4",
  "updatedAt": "2022-05-02T05:10:56.347Z",
  "devdoc": {
    "kind": "dev",
    "methods": {
      "getRoleAdmin(bytes32)": {
        "details": "Returns the admin role that controls `role`. See {grantRole} and {revokeRole}. To change a role's admin, use {_setRoleAdmin}."
      },
      "getRoleMember(bytes32,uint256)": {
        "details": "Returns one of the accounts that have `role`. `index` must be a value between 0 and {getRoleMemberCount}, non-inclusive. Role bearers are not sorted in any particular way, and their ordering may change at any point. WARNING: When using {getRoleMember} and {getRoleMemberCount}, make sure you perform all queries on the same block. See the following https://forum.openzeppelin.com/t/iterating-over-elements-on-enumerableset-in-openzeppelin-contracts/2296[forum post] for more information."
      },
      "getRoleMemberCount(bytes32)": {
        "details": "Returns the number of accounts that have `role`. Can be used together with {getRoleMember} to enumerate all bearers of a role."
      },
      "grantRole(bytes32,address)": {
        "details": "Grants `role` to `account`. If `account` had not been already granted `role`, emits a {RoleGranted} event. Requirements: - the caller must have ``role``'s admin role."
      },
      "hasRole(bytes32,address)": {
        "details": "Returns `true` if `account` has been granted `role`."
      },
      "renounceRole(bytes32,address)": {
        "details": "Revokes `role` from the calling account. Roles are often managed via {grantRole} and {revokeRole}: this function's purpose is to provide a mechanism for accounts to lose their privileges if they are compromised (such as when a trusted device is misplaced). If the calling account had been revoked `role`, emits a {RoleRevoked} event. Requirements: - the caller must be `account`."
      },
      "revokeRole(bytes32,address)": {
        "details": "Revokes `role` from `account`. If `account` had been granted `role`, emits a {RoleRevoked} event. Requirements: - the caller must have ``role``'s admin role."
      },
      "supportsInterface(bytes4)": {
        "details": "See {IERC165-supportsInterface}."
      }
    },
    "version": 1
  },
  "userdoc": {
    "kind": "user",
    "methods": {},
    "version": 1
  }
}