{
  "contractName": "HexplorationController",
  "abi": [
    {
      "inputs": [
        {
          "internalType": "address",
          "name": "adminAddress",
          "type": "address"
        }
      ],
      "stateMutability": "nonpayable",
      "type": "constructor"
    },
    {
      "anonymous": false,
      "inputs": [
        {
          "indexed": true,
          "internalType": "bytes32",
          "name": "role",
          "type": "bytes32"
        },
        {
          "indexed": true,
          "internalType": "bytes32",
          "name": "previousAdminRole",
          "type": "bytes32"
        },
        {
          "indexed": true,
          "internalType": "bytes32",
          "name": "newAdminRole",
          "type": "bytes32"
        }
      ],
      "name": "RoleAdminChanged",
      "type": "event"
    },
    {
      "anonymous": false,
      "inputs": [
        {
          "indexed": true,
          "internalType": "bytes32",
          "name": "role",
          "type": "bytes32"
        },
        {
          "indexed": true,
          "internalType": "address",
          "name": "account",
          "type": "address"
        },
        {
          "indexed": true,
          "internalType": "address",
          "name": "sender",
          "type": "address"
        }
      ],
      "name": "RoleGranted",
      "type": "event"
    },
    {
      "anonymous": false,
      "inputs": [
        {
          "indexed": true,
          "internalType": "bytes32",
          "name": "role",
          "type": "bytes32"
        },
        {
          "indexed": true,
          "internalType": "address",
          "name": "account",
          "type": "address"
        },
        {
          "indexed": true,
          "internalType": "address",
          "name": "sender",
          "type": "address"
        }
      ],
      "name": "RoleRevoked",
      "type": "event"
    },
    {
      "inputs": [],
      "name": "DEFAULT_ADMIN_ROLE",
      "outputs": [
        {
          "internalType": "bytes32",
          "name": "",
          "type": "bytes32"
        }
      ],
      "stateMutability": "view",
      "type": "function",
      "constant": true
    },
    {
      "inputs": [],
      "name": "VERIFIED_CONTROLLER_ROLE",
      "outputs": [
        {
          "internalType": "bytes32",
          "name": "",
          "type": "bytes32"
        }
      ],
      "stateMutability": "view",
      "type": "function",
      "constant": true
    },
    {
      "inputs": [
        {
          "internalType": "uint256",
          "name": "pathIndex",
          "type": "uint256"
        },
        {
          "internalType": "uint256",
          "name": "gameID",
          "type": "uint256"
        },
        {
          "internalType": "address",
          "name": "gameBoardAddress",
          "type": "address"
        }
      ],
      "name": "exitToPath",
      "outputs": [],
      "stateMutability": "nonpayable",
      "type": "function"
    },
    {
      "inputs": [
        {
          "internalType": "bytes32",
          "name": "role",
          "type": "bytes32"
        }
      ],
      "name": "getRoleAdmin",
      "outputs": [
        {
          "internalType": "bytes32",
          "name": "",
          "type": "bytes32"
        }
      ],
      "stateMutability": "view",
      "type": "function",
      "constant": true
    },
    {
      "inputs": [
        {
          "internalType": "bytes32",
          "name": "role",
          "type": "bytes32"
        },
        {
          "internalType": "uint256",
          "name": "index",
          "type": "uint256"
        }
      ],
      "name": "getRoleMember",
      "outputs": [
        {
          "internalType": "address",
          "name": "",
          "type": "address"
        }
      ],
      "stateMutability": "view",
      "type": "function",
      "constant": true
    },
    {
      "inputs": [
        {
          "internalType": "bytes32",
          "name": "role",
          "type": "bytes32"
        }
      ],
      "name": "getRoleMemberCount",
      "outputs": [
        {
          "internalType": "uint256",
          "name": "",
          "type": "uint256"
        }
      ],
      "stateMutability": "view",
      "type": "function",
      "constant": true
    },
    {
      "inputs": [
        {
          "internalType": "bytes32",
          "name": "role",
          "type": "bytes32"
        },
        {
          "internalType": "address",
          "name": "account",
          "type": "address"
        }
      ],
      "name": "grantRole",
      "outputs": [],
      "stateMutability": "nonpayable",
      "type": "function"
    },
    {
      "inputs": [
        {
          "internalType": "bytes32",
          "name": "role",
          "type": "bytes32"
        },
        {
          "internalType": "address",
          "name": "account",
          "type": "address"
        }
      ],
      "name": "hasRole",
      "outputs": [
        {
          "internalType": "bool",
          "name": "",
          "type": "bool"
        }
      ],
      "stateMutability": "view",
      "type": "function",
      "constant": true
    },
    {
      "inputs": [
        {
          "internalType": "bytes32",
          "name": "role",
          "type": "bytes32"
        },
        {
          "internalType": "address",
          "name": "account",
          "type": "address"
        }
      ],
      "name": "renounceRole",
      "outputs": [],
      "stateMutability": "nonpayable",
      "type": "function"
    },
    {
      "inputs": [
        {
          "internalType": "bytes32",
          "name": "role",
          "type": "bytes32"
        },
        {
          "internalType": "address",
          "name": "account",
          "type": "address"
        }
      ],
      "name": "revokeRole",
      "outputs": [],
      "stateMutability": "nonpayable",
      "type": "function"
    },
    {
      "inputs": [
        {
          "internalType": "bytes4",
          "name": "interfaceId",
          "type": "bytes4"
        }
      ],
      "name": "supportsInterface",
      "outputs": [
        {
          "internalType": "bool",
          "name": "",
          "type": "bool"
        }
      ],
      "stateMutability": "view",
      "type": "function",
      "constant": true
    },
    {
      "inputs": [
        {
          "internalType": "address",
          "name": "gsuAddress",
          "type": "address"
        }
      ],
      "name": "setGameStateUpdate",
      "outputs": [],
      "stateMutability": "nonpayable",
      "type": "function"
    },
    {
      "inputs": [
        {
          "internalType": "address",
          "name": "vcAddress",
          "type": "address"
        }
      ],
      "name": "addVerifiedController",
      "outputs": [],
      "stateMutability": "nonpayable",
      "type": "function"
    },
    {
      "inputs": [
        {
          "internalType": "uint256",
          "name": "gameID",
          "type": "uint256"
        },
        {
          "internalType": "address",
          "name": "boardAddress",
          "type": "address"
        }
      ],
      "name": "startGame",
      "outputs": [],
      "stateMutability": "nonpayable",
      "type": "function"
    },
    {
      "inputs": [
        {
          "internalType": "uint256",
          "name": "gameID",
          "type": "uint256"
        },
        {
          "internalType": "address",
          "name": "boardAddress",
          "type": "address"
        }
      ],
      "name": "registerForGame",
      "outputs": [],
      "stateMutability": "nonpayable",
      "type": "function"
    },
    {
      "inputs": [
        {
          "internalType": "uint256",
          "name": "playerID",
          "type": "uint256"
        },
        {
          "internalType": "uint8",
          "name": "actionIndex",
          "type": "uint8"
        },
        {
          "internalType": "string[]",
          "name": "options",
          "type": "string[]"
        },
        {
          "internalType": "string",
          "name": "leftHand",
          "type": "string"
        },
        {
          "internalType": "string",
          "name": "rightHand",
          "type": "string"
        },
        {
          "internalType": "uint256",
          "name": "gameID",
          "type": "uint256"
        },
        {
          "internalType": "address",
          "name": "boardAddress",
          "type": "address"
        }
      ],
      "name": "submitAction",
      "outputs": [],
      "stateMutability": "nonpayable",
      "type": "function"
    },
    {
      "inputs": [
        {
          "internalType": "string",
          "name": "zoneChoice",
          "type": "string"
        },
        {
          "internalType": "uint256",
          "name": "gameID",
          "type": "uint256"
        },
        {
          "internalType": "address",
          "name": "boardAddress",
          "type": "address"
        }
      ],
      "name": "chooseLandingSite",
      "outputs": [],
      "stateMutability": "nonpayable",
      "type": "function"
    },
    {
      "inputs": [
        {
          "internalType": "address",
          "name": "gameRegistryAddress",
          "type": "address"
        },
        {
          "internalType": "address",
          "name": "boardAddress",
          "type": "address"
        }
      ],
      "name": "requestNewGame",
      "outputs": [],
      "stateMutability": "nonpayable",
      "type": "function"
    },
    {
      "inputs": [
        {
          "internalType": "address",
          "name": "gameRegistryAddress",
          "type": "address"
        },
        {
          "internalType": "address",
          "name": "boardAddress",
          "type": "address"
        }
      ],
      "name": "latestGame",
      "outputs": [
        {
          "internalType": "uint256",
          "name": "",
          "type": "uint256"
        }
      ],
      "stateMutability": "view",
      "type": "function",
      "constant": true
    },
    {
      "inputs": [
        {
          "internalType": "uint256",
          "name": "gameID",
          "type": "uint256"
        },
        {
          "internalType": "address",
          "name": "boardAddress",
          "type": "address"
        }
      ],
      "name": "getTestInventory",
      "outputs": [],
      "stateMutability": "nonpayable",
      "type": "function"
    }
  ],
  "bytecode": "0x60806040523480156200001157600080fd5b5060405162005a7038038062005a70833981016040819052620000349162000215565b806200004b60008264010000000062000053810204565b505062000247565b6200006882826401000000006200006c810204565b5050565b62000086828264010000000062004843620000b382021704565b6000828152600160205260409020620000ae9082640100000000620048c76200014f82021704565b505050565b620000c8828264010000000062000178810204565b6200006857600082815260208181526040808320600160a060020a03851684529091529020805460ff191660011790556200010b640100000000620001a1810204565b600160a060020a031681600160a060020a0316837f2f8788117e7eff1d82e926ec794901d17c78024a50270940304540a733656f0d60405160405180910390a45050565b60006200016f83600160a060020a038416640100000000620001a5810204565b90505b92915050565b600091825260208281526040808420600160a060020a0393909316845291905290205460ff1690565b3390565b6000620001bc8383640100000000620001fd810204565b620001f45750815460018181018455600084815260208082209093018490558454848252828601909352604090209190915562000172565b50600062000172565b60009081526001919091016020526040902054151590565b6000602082840312156200022857600080fd5b8151600160a060020a03811681146200024057600080fd5b9392505050565b61581980620002576000396000f3fe608060405234801561001057600080fd5b50600436106101305760003560e060020a9004806391d14854116100b1578063d4f5b15211610075578063d4f5b1521461029d578063d547741f146102b0578063e0d44205146102c3578063e506675d146102d6578063f3297df9146102e957600080fd5b806391d1485414610249578063975eef261461025c578063a217fddf1461026f578063a605e7ae14610277578063ca15c8731461028a57600080fd5b806336568abe116100f857806336568abe146101dd578063621cc08d146101f0578063661e0566146102035780637479c8fe146102165780639010d07c1461022957600080fd5b806301ffc9a7146101355780631c834a7f1461015d578063248a9ca31461019257806329a461d6146101b55780632f2ff15d146101ca575b600080fd5b610148610143366004614df9565b6102fc565b60405190151581526020015b60405180910390f35b6101847f80e2196015fc06a9d891759f8e4f51eb314ef5e9ea068528a8ed0063b87759f081565b604051908152602001610154565b6101846101a0366004614e23565b60009081526020819052604090206001015490565b6101c86101c3366004614e61565b610340565b005b6101c86101d8366004614e61565b610584565b6101c86101eb366004614e61565b6105ae565b6101c86101fe366004614e61565b610642565b6101c8610211366004614e91565b613a5a565b6101c8610224366004614ebf565b613aa1565b61023c610237366004614ef8565b613b38565b6040516101549190614f1a565b610148610257366004614e61565b613b57565b61018461026a366004614e91565b613b80565b610184600081565b6101c8610285366004614f2e565b613c09565b610184610298366004614e23565b613c44565b6101c86102ab366004614f2e565b613c5b565b6101c86102be366004614e61565b613c90565b6101c86102d1366004614e61565b613cb5565b6101c86102e43660046150b1565b61414d565b6101c86102f7366004615176565b614531565b6000600160e060020a031982167f5a05180f00000000000000000000000000000000000000000000000000000000148061033a575061033a826148dc565b92915050565b6040517f9aabe36d000000000000000000000000000000000000000000000000000000008152336004820152602481018390528190600160a060020a03821690639aabe36d90604401600060405180830381600087803b1580156103a357600080fd5b505af11580156103b7573d6000803e3d6000fd5b5050505080600160a060020a031663a0ed600d6040518163ffffffff1660e060020a028152600401602060405180830381865afa1580156103fc573d6000803e3d6000fd5b505050506040513d601f19601f8201168201806040525081019061042091906151c6565b600160a060020a03166345b8ace56040518060600160405280600460ff168152602001600460ff168152602001600460ff168152508584600160a060020a031663c06dea4e6040518163ffffffff1660e060020a028152600401602060405180830381865afa158015610497573d6000803e3d6000fd5b505050506040513d601f19601f820116820180604052508101906104bb91906151c6565b600160a060020a031663bca7caa088336040518363ffffffff1660e060020a0281526004016104eb9291906151e3565b602060405180830381865afa158015610508573d6000803e3d6000fd5b505050506040513d601f19601f8201168201806040525081019061052c91906151fa565b6040518463ffffffff1660e060020a02815260040161054d93929190615213565b600060405180830381600087803b15801561056757600080fd5b505af115801561057b573d6000803e3d6000fd5b50505050505050565b60008281526020819052604090206001015461059f81614943565b6105a98383614950565b505050565b600160a060020a03811633146106345760405160e560020a62461bcd02815260206004820152602f60248201527f416363657373436f6e74726f6c3a2063616e206f6e6c792072656e6f756e636560448201527f20726f6c657320666f722073656c66000000000000000000000000000000000060648201526084015b60405180910390fd5b61063e8282614972565b5050565b6040517f4e0e1a3e000000000000000000000000000000000000000000000000000000008152600481018390528190600160a060020a03821690634e0e1a3e90602401602060405180830381865afa1580156106a2573d6000803e3d6000fd5b505050506040513d601f19601f820116820180604052508101906106c691906151fa565b156107165760405160e560020a62461bcd02815260206004820152601460248201527f67616d6520616c72656164792073746172746564000000000000000000000000604482015260640161062b565b600081600160a060020a031663c06dea4e6040518163ffffffff1660e060020a028152600401602060405180830381865afa158015610759573d6000803e3d6000fd5b505050506040513d601f19601f8201168201806040525081019061077d91906151c6565b60405160e360020a631703edc3028152909150600160a060020a0382169063b81f6e18906107b190879033906004016151e3565b602060405180830381865afa1580156107ce573d6000803e3d6000fd5b505050506040513d601f19601f820116820180604052508101906107f29190615252565b6108115760405160e560020a62461bcd02815260040161062b90615274565b6040517f60c2050000000000000000000000000000000000000000000000000000000000815260048101859052600160a060020a038316906360c2050090602401600060405180830381600087803b15801561086c57600080fd5b505af1158015610880573d6000803e3d6000fd5b505060405160e060020a63b77ff4110281526004810187905260009250600160a060020a038416915063b77ff41190602401602060405180830381865afa1580156108cf573d6000803e3d6000fd5b505050506040513d601f19601f820116820180604052508101906108f391906151fa565b6040517feb33983d00000000000000000000000000000000000000000000000000000000815260048101879052909150600090600160a060020a0385169063eb33983d90602401600060405180830381865afa158015610957573d6000803e3d6000fd5b505050506040513d6000823e601f3d908101601f1916820160405261097f91908101906152d7565b9050600084600160a060020a031663cca369966040518163ffffffff1660e060020a028152600401602060405180830381865afa1580156109c4573d6000803e3d6000fd5b505050506040513d601f19601f820116820180604052508101906109e891906151c6565b905080600160a060020a031663a906dfd16040518163ffffffff1660e060020a028152600401602060405180830381865afa158015610a2b573d6000803e3d6000fd5b505050506040513d601f19601f82011682018060405250810190610a4f91906151c6565b600160a060020a0316631c635ded8860016040518363ffffffff1660e060020a028152600401610a8092919061537e565b600060405180830381600087803b158015610a9a57600080fd5b505af1158015610aae573d6000803e3d6000fd5b5050505080600160a060020a031663a906dfd16040518163ffffffff1660e060020a028152600401602060405180830381865afa158015610af3573d6000803e3d6000fd5b505050506040513d601f19601f82011682018060405250810190610b1791906151c6565b60405160e060020a631c635ded02815260606004820152600560648201527f4e6967687400000000000000000000000000000000000000000000000000000060848201526024810189905260016044820152600160a060020a039190911690631c635ded9060a401600060405180830381600087803b158015610b9957600080fd5b505af1158015610bad573d6000803e3d6000fd5b5050505080600160a060020a0316632ee0804a6040518163ffffffff1660e060020a028152600401602060405180830381865afa158015610bf2573d6000803e3d6000fd5b505050506040513d601f19601f82011682018060405250810190610c1691906151c6565b60405160e060020a631c635ded02815260606004820152600a60648201527f45617274687175616b65000000000000000000000000000000000000000000006084820152602481018990526103e86044820152600160a060020a039190911690631c635ded9060a401600060405180830381600087803b158015610c9957600080fd5b505af1158015610cad573d6000803e3d6000fd5b5050505080600160a060020a0316632ee0804a6040518163ffffffff1660e060020a028152600401602060405180830381865afa158015610cf2573d6000803e3d6000fd5b505050506040513d601f19601f82011682018060405250810190610d1691906151c6565b60405160e060020a631c635ded02815260606004820152600760648201527f566f6c63616e6f000000000000000000000000000000000000000000000000006084820152602481018990526103e86044820152600160a060020a039190911690631c635ded9060a401600060405180830381600087803b158015610d9957600080fd5b505af1158015610dad573d6000803e3d6000fd5b5050505080600160a060020a0316632b2145336040518163ffffffff1660e060020a028152600401602060405180830381865afa158015610df2573d6000803e3d6000fd5b505050506040513d601f19601f82011682018060405250810190610e1691906151c6565b60405160e060020a631c635ded02815260606004820152600660648201527f50697261746500000000000000000000000000000000000000000000000000006084820152602481018990526103e86044820152600160a060020a039190911690631c635ded9060a401600060405180830381600087803b158015610e9957600080fd5b505af1158015610ead573d6000803e3d6000fd5b5050505080600160a060020a0316632b2145336040518163ffffffff1660e060020a028152600401602060405180830381865afa158015610ef2573d6000803e3d6000fd5b505050506040513d601f19601f82011682018060405250810190610f1691906151c6565b60405160e060020a631c635ded02815260606004820152600b60648201527f50697261746520536869700000000000000000000000000000000000000000006084820152602481018990526103e86044820152600160a060020a039190911690631c635ded9060a401600060405180830381600087803b158015610f9957600080fd5b505af1158015610fad573d6000803e3d6000fd5b5050505080600160a060020a0316632b2145336040518163ffffffff1660e060020a028152600401602060405180830381865afa158015610ff2573d6000803e3d6000fd5b505050506040513d601f19601f8201168201806040525081019061101691906151c6565b60405160e060020a631c635ded02815260606004820152600860648201527f4465617468626f740000000000000000000000000000000000000000000000006084820152602481018990526103e86044820152600160a060020a039190911690631c635ded9060a401600060405180830381600087803b15801561109957600080fd5b505af11580156110ad573d6000803e3d6000fd5b5050505080600160a060020a0316632b2145336040518163ffffffff1660e060020a028152600401602060405180830381865afa1580156110f2573d6000803e3d6000fd5b505050506040513d601f19601f8201168201806040525081019061111691906151c6565b60405160e060020a631c635ded02815260606004820152600860648201527f477561726469616e0000000000000000000000000000000000000000000000006084820152602481018990526103e86044820152600160a060020a039190911690631c635ded9060a401600060405180830381600087803b15801561119957600080fd5b505af11580156111ad573d6000803e3d6000fd5b5050505080600160a060020a0316632b2145336040518163ffffffff1660e060020a028152600401602060405180830381865afa1580156111f2573d6000803e3d6000fd5b505050506040513d601f19601f8201168201806040525081019061121691906151c6565b60405160e060020a631c635ded02815260606004820152600860648201527f53616e64776f726d0000000000000000000000000000000000000000000000006084820152602481018990526103e86044820152600160a060020a039190911690631c635ded9060a401600060405180830381600087803b15801561129957600080fd5b505af11580156112ad573d6000803e3d6000fd5b5050505080600160a060020a0316632b2145336040518163ffffffff1660e060020a028152600401602060405180830381865afa1580156112f2573d6000803e3d6000fd5b505050506040513d601f19601f8201168201806040525081019061131691906151c6565b60405160e060020a631c635ded02815260606004820152600660648201527f447261676f6e00000000000000000000000000000000000000000000000000006084820152602481018990526103e86044820152600160a060020a039190911690631c635ded9060a401600060405180830381600087803b15801561139957600080fd5b505af11580156113ad573d6000803e3d6000fd5b5050505080600160a060020a031663a318d45c6040518163ffffffff1660e060020a028152600401602060405180830381865afa1580156113f2573d6000803e3d6000fd5b505050506040513d601f19601f8201168201806040525081019061141691906151c6565b60405160e060020a631c635ded02815260606004820152600a60648201527f536d616c6c20416d6d6f000000000000000000000000000000000000000000006084820152602481018990526103e86044820152600160a060020a039190911690631c635ded9060a401600060405180830381600087803b15801561149957600080fd5b505af11580156114ad573d6000803e3d6000fd5b5050505080600160a060020a031663a318d45c6040518163ffffffff1660e060020a028152600401602060405180830381865afa1580156114f2573d6000803e3d6000fd5b505050506040513d601f19601f8201168201806040525081019061151691906151c6565b60405160e060020a631c635ded02815260606004820152600a60648201527f4c6172676520416d6d6f000000000000000000000000000000000000000000006084820152602481018990526103e86044820152600160a060020a039190911690631c635ded9060a401600060405180830381600087803b15801561159957600080fd5b505af11580156115ad573d6000803e3d6000fd5b5050505080600160a060020a031663a318d45c6040518163ffffffff1660e060020a028152600401602060405180830381865afa1580156115f2573d6000803e3d6000fd5b505050506040513d601f19601f8201168201806040525081019061161691906151c6565b60405160e060020a631c635ded02815260606004820152600960648201527f42617474657269657300000000000000000000000000000000000000000000006084820152602481018990526103e86044820152600160a060020a039190911690631c635ded9060a401600060405180830381600087803b15801561169957600080fd5b505af11580156116ad573d6000803e3d6000fd5b5050505080600160a060020a031663a318d45c6040518163ffffffff1660e060020a028152600401602060405180830381865afa1580156116f2573d6000803e3d6000fd5b505050506040513d601f19601f8201168201806040525081019061171691906151c6565b60405160e060020a631c635ded02815260606004820152600660648201527f536869656c6400000000000000000000000000000000000000000000000000006084820152602481018990526103e86044820152600160a060020a039190911690631c635ded9060a401600060405180830381600087803b15801561179957600080fd5b505af11580156117ad573d6000803e3d6000fd5b5050505080600160a060020a031663a318d45c6040518163ffffffff1660e060020a028152600401602060405180830381865afa1580156117f2573d6000803e3d6000fd5b505050506040513d601f19601f8201168201806040525081019061181691906151c6565b60405160e060020a631c635ded02815260606004820152600660648201527f506f7274616c00000000000000000000000000000000000000000000000000006084820152602481018990526103e86044820152600160a060020a039190911690631c635ded9060a401600060405180830381600087803b15801561189957600080fd5b505af11580156118ad573d6000803e3d6000fd5b5050505080600160a060020a031663a318d45c6040518163ffffffff1660e060020a028152600401602060405180830381865afa1580156118f2573d6000803e3d6000fd5b505050506040513d601f19601f8201168201806040525081019061191691906151c6565b60405160e060020a631c635ded02815260606004820152600260648201527f4f6e0000000000000000000000000000000000000000000000000000000000006084820152602481018990526103e86044820152600160a060020a039190911690631c635ded9060a401600060405180830381600087803b15801561199957600080fd5b505af11580156119ad573d6000803e3d6000fd5b5050505080600160a060020a031663a318d45c6040518163ffffffff1660e060020a028152600401602060405180830381865afa1580156119f2573d6000803e3d6000fd5b505050506040513d601f19601f82011682018060405250810190611a1691906151c6565b60405160e060020a631c635ded02815260606004820152600360648201527f4f666600000000000000000000000000000000000000000000000000000000006084820152602481018990526103e86044820152600160a060020a039190911690631c635ded9060a401600060405180830381600087803b158015611a9957600080fd5b505af1158015611aad573d6000803e3d6000fd5b5050505080600160a060020a031663a318d45c6040518163ffffffff1660e060020a028152600401602060405180830381865afa158015611af2573d6000803e3d6000fd5b505050506040513d601f19601f82011682018060405250810190611b1691906151c6565b60405160e060020a631c635ded02815260606004820152600c60648201527f52757374792044616767657200000000000000000000000000000000000000006084820152602481018990526103e86044820152600160a060020a039190911690631c635ded9060a401600060405180830381600087803b158015611b9957600080fd5b505af1158015611bad573d6000803e3d6000fd5b5050505080600160a060020a031663a318d45c6040518163ffffffff1660e060020a028152600401602060405180830381865afa158015611bf2573d6000803e3d6000fd5b505050506040513d601f19601f82011682018060405250810190611c1691906151c6565b60405160e060020a631c635ded02815260606004820152600b60648201527f52757374792053776f72640000000000000000000000000000000000000000006084820152602481018990526103e86044820152600160a060020a039190911690631c635ded9060a401600060405180830381600087803b158015611c9957600080fd5b505af1158015611cad573d6000803e3d6000fd5b5050505080600160a060020a031663a318d45c6040518163ffffffff1660e060020a028152600401602060405180830381865afa158015611cf2573d6000803e3d6000fd5b505050506040513d601f19601f82011682018060405250810190611d1691906151c6565b60405160e060020a631c635ded02815260606004820152600c60648201527f527573747920506973746f6c00000000000000000000000000000000000000006084820152602481018990526103e86044820152600160a060020a039190911690631c635ded9060a401600060405180830381600087803b158015611d9957600080fd5b505af1158015611dad573d6000803e3d6000fd5b5050505080600160a060020a031663a318d45c6040518163ffffffff1660e060020a028152600401602060405180830381865afa158015611df2573d6000803e3d6000fd5b505050506040513d601f19601f82011682018060405250810190611e1691906151c6565b60405160e060020a631c635ded02815260606004820152600b60648201527f5275737479205269666c650000000000000000000000000000000000000000006084820152602481018990526103e86044820152600160a060020a039190911690631c635ded9060a401600060405180830381600087803b158015611e9957600080fd5b505af1158015611ead573d6000803e3d6000fd5b5050505080600160a060020a031663a318d45c6040518163ffffffff1660e060020a028152600401602060405180830381865afa158015611ef2573d6000803e3d6000fd5b505050506040513d601f19601f82011682018060405250810190611f1691906151c6565b60405160e060020a631c635ded02815260606004820152600c60648201527f5368696e792044616767657200000000000000000000000000000000000000006084820152602481018990526103e86044820152600160a060020a039190911690631c635ded9060a401600060405180830381600087803b158015611f9957600080fd5b505af1158015611fad573d6000803e3d6000fd5b5050505080600160a060020a031663a318d45c6040518163ffffffff1660e060020a028152600401602060405180830381865afa158015611ff2573d6000803e3d6000fd5b505050506040513d601f19601f8201168201806040525081019061201691906151c6565b60405160e060020a631c635ded02815260606004820152600b60648201527f5368696e792053776f72640000000000000000000000000000000000000000006084820152602481018990526103e86044820152600160a060020a039190911690631c635ded9060a401600060405180830381600087803b15801561209957600080fd5b505af11580156120ad573d6000803e3d6000fd5b5050505080600160a060020a031663a318d45c6040518163ffffffff1660e060020a028152600401602060405180830381865afa1580156120f2573d6000803e3d6000fd5b505050506040513d601f19601f8201168201806040525081019061211691906151c6565b600160a060020a0316631c635ded886103e86040518363ffffffff1660e060020a0281526004016121489291906153d0565b600060405180830381600087803b15801561216257600080fd5b505af1158015612176573d6000803e3d6000fd5b5050505080600160a060020a031663a318d45c6040518163ffffffff1660e060020a028152600401602060405180830381865afa1580156121bb573d6000803e3d6000fd5b505050506040513d601f19601f820116820180604052508101906121df91906151c6565b600160a060020a0316631c635ded886103e86040518363ffffffff1660e060020a028152600401612211929190615412565b600060405180830381600087803b15801561222b57600080fd5b505af115801561223f573d6000803e3d6000fd5b5050505080600160a060020a031663a318d45c6040518163ffffffff1660e060020a028152600401602060405180830381865afa158015612284573d6000803e3d6000fd5b505050506040513d601f19601f820116820180604052508101906122a891906151c6565b60405160e060020a631c635ded02815260606004820152600b60648201527f4c617365722053776f72640000000000000000000000000000000000000000006084820152602481018990526103e86044820152600160a060020a039190911690631c635ded9060a401600060405180830381600087803b15801561232b57600080fd5b505af115801561233f573d6000803e3d6000fd5b5050505080600160a060020a031663a318d45c6040518163ffffffff1660e060020a028152600401602060405180830381865afa158015612384573d6000803e3d6000fd5b505050506040513d601f19601f820116820180604052508101906123a891906151c6565b60405160e060020a631c635ded02815260606004820152600c60648201527f4c6173657220506973746f6c00000000000000000000000000000000000000006084820152602481018990526103e86044820152600160a060020a039190911690631c635ded9060a401600060405180830381600087803b15801561242b57600080fd5b505af115801561243f573d6000803e3d6000fd5b5050505080600160a060020a031663a318d45c6040518163ffffffff1660e060020a028152600401602060405180830381865afa158015612484573d6000803e3d6000fd5b505050506040513d601f19601f820116820180604052508101906124a891906151c6565b60405160e060020a631c635ded02815260606004820152600b60648201527f4c61736572205269666c650000000000000000000000000000000000000000006084820152602481018990526103e86044820152600160a060020a039190911690631c635ded9060a401600060405180830381600087803b15801561252b57600080fd5b505af115801561253f573d6000803e3d6000fd5b5050505080600160a060020a031663a318d45c6040518163ffffffff1660e060020a028152600401602060405180830381865afa158015612584573d6000803e3d6000fd5b505050506040513d601f19601f820116820180604052508101906125a891906151c6565b600160a060020a0316631c635ded886103e86040518363ffffffff1660e060020a0281526004016125da929190615454565b600060405180830381600087803b1580156125f457600080fd5b505af1158015612608573d6000803e3d6000fd5b5050505080600160a060020a031663a318d45c6040518163ffffffff1660e060020a028152600401602060405180830381865afa15801561264d573d6000803e3d6000fd5b505050506040513d601f19601f8201168201806040525081019061267191906151c6565b60405160e060020a631c635ded02815260606004820152600a60648201527f466c6173686c69676874000000000000000000000000000000000000000000006084820152602481018990526103e86044820152600160a060020a039190911690631c635ded9060a401600060405180830381600087803b1580156126f457600080fd5b505af1158015612708573d6000803e3d6000fd5b5050505080600160a060020a031663a318d45c6040518163ffffffff1660e060020a028152600401602060405180830381865afa15801561274d573d6000803e3d6000fd5b505050506040513d601f19601f8201168201806040525081019061277191906151c6565b60405160e060020a631c635ded02815260606004820152600b60648201527f466c6f6f64206c696768740000000000000000000000000000000000000000006084820152602481018990526103e86044820152600160a060020a039190911690631c635ded9060a401600060405180830381600087803b1580156127f457600080fd5b505af1158015612808573d6000803e3d6000fd5b5050505080600160a060020a031663a318d45c6040518163ffffffff1660e060020a028152600401602060405180830381865afa15801561284d573d6000803e3d6000fd5b505050506040513d601f19601f8201168201806040525081019061287191906151c6565b60405160e060020a631c635ded02815260606004820152601360648201527f4e69676874766973696f6e20476f67676c6573000000000000000000000000006084820152602481018990526103e86044820152600160a060020a039190911690631c635ded9060a401600060405180830381600087803b1580156128f457600080fd5b505af1158015612908573d6000803e3d6000fd5b5050505080600160a060020a031663a318d45c6040518163ffffffff1660e060020a028152600401602060405180830381865afa15801561294d573d6000803e3d6000fd5b505050506040513d601f19601f8201168201806040525081019061297191906151c6565b60405160e060020a631c635ded02815260606004820152600f60648201527f506572736f6e616c20536869656c6400000000000000000000000000000000006084820152602481018990526103e86044820152600160a060020a039190911690631c635ded9060a401600060405180830381600087803b1580156129f457600080fd5b505af1158015612a08573d6000803e3d6000fd5b5050505080600160a060020a031663a318d45c6040518163ffffffff1660e060020a028152600401602060405180830381865afa158015612a4d573d6000803e3d6000fd5b505050506040513d601f19601f82011682018060405250810190612a7191906151c6565b600160a060020a0316631c635ded886103e86040518363ffffffff1660e060020a028152600401612aa3929190615496565b600060405180830381600087803b158015612abd57600080fd5b505af1158015612ad1573d6000803e3d6000fd5b5050505080600160a060020a031663c1cdbb3c6040518163ffffffff1660e060020a028152600401602060405180830381865afa158015612b16573d6000803e3d6000fd5b505050506040513d601f19601f82011682018060405250810190612b3a91906151c6565b60405160e060020a631c635ded02815260606004820152600760648201527f5374756e6e6564000000000000000000000000000000000000000000000000006084820152602481018990526103e86044820152600160a060020a039190911690631c635ded9060a401600060405180830381600087803b158015612bbd57600080fd5b505af1158015612bd1573d6000803e3d6000fd5b5050505080600160a060020a031663c1cdbb3c6040518163ffffffff1660e060020a028152600401602060405180830381865afa158015612c16573d6000803e3d6000fd5b505050506040513d601f19601f82011682018060405250810190612c3a91906151c6565b60405160e060020a631c635ded02815260606004820152600660648201527f4275726e656400000000000000000000000000000000000000000000000000006084820152602481018990526103e86044820152600160a060020a039190911690631c635ded9060a401600060405180830381600087803b158015612cbd57600080fd5b505af1158015612cd1573d6000803e3d6000fd5b5050505080600160a060020a03166345d339d96040518163ffffffff1660e060020a028152600401602060405180830381865afa158015612d16573d6000803e3d6000fd5b505050506040513d601f19601f82011682018060405250810190612d3a91906151c6565b60405160e060020a631c635ded02815260606004820152600f60648201527f456e677261766564205461626c657400000000000000000000000000000000006084820152602481018990526103e86044820152600160a060020a039190911690631c635ded9060a401600060405180830381600087803b158015612dbd57600080fd5b505af1158015612dd1573d6000803e3d6000fd5b5050505080600160a060020a03166345d339d96040518163ffffffff1660e060020a028152600401602060405180830381865afa158015612e16573d6000803e3d6000fd5b505050506040513d601f19601f82011682018060405250810190612e3a91906151c6565b60405160e060020a631c635ded02815260606004820152600960648201527f536967696c2047656d00000000000000000000000000000000000000000000006084820152602481018990526103e86044820152600160a060020a039190911690631c635ded9060a401600060405180830381600087803b158015612ebd57600080fd5b505af1158015612ed1573d6000803e3d6000fd5b5050505080600160a060020a03166345d339d96040518163ffffffff1660e060020a028152600401602060405180830381865afa158015612f16573d6000803e3d6000fd5b505050506040513d601f19601f82011682018060405250810190612f3a91906151c6565b60405160e060020a631c635ded02815260606004820152600c60648201527f416e6369656e7420546f6d6500000000000000000000000000000000000000006084820152602481018990526103e86044820152600160a060020a039190911690631c635ded9060a401600060405180830381600087803b158015612fbd57600080fd5b505af1158015612fd1573d6000803e3d6000fd5b5050505080600160a060020a031663cb8d2d2c6040518163ffffffff1660e060020a028152600401602060405180830381865afa158015613016573d6000803e3d6000fd5b505050506040513d601f19601f8201168201806040525081019061303a91906151c6565b60405160e060020a631c635ded02815260606004820152600760648201527f52656c69632031000000000000000000000000000000000000000000000000006084820152602481018990526103e86044820152600160a060020a039190911690631c635ded9060a401600060405180830381600087803b1580156130bd57600080fd5b505af11580156130d1573d6000803e3d6000fd5b5050505080600160a060020a031663cb8d2d2c6040518163ffffffff1660e060020a028152600401602060405180830381865afa158015613116573d6000803e3d6000fd5b505050506040513d601f19601f8201168201806040525081019061313a91906151c6565b60405160e060020a631c635ded02815260606004820152600760648201527f52656c69632032000000000000000000000000000000000000000000000000006084820152602481018990526103e86044820152600160a060020a039190911690631c635ded9060a401600060405180830381600087803b1580156131bd57600080fd5b505af11580156131d1573d6000803e3d6000fd5b5050505080600160a060020a031663cb8d2d2c6040518163ffffffff1660e060020a028152600401602060405180830381865afa158015613216573d6000803e3d6000fd5b505050506040513d601f19601f8201168201806040525081019061323a91906151c6565b60405160e060020a631c635ded02815260606004820152600760648201527f52656c69632033000000000000000000000000000000000000000000000000006084820152602481018990526103e86044820152600160a060020a039190911690631c635ded9060a401600060405180830381600087803b1580156132bd57600080fd5b505af11580156132d1573d6000803e3d6000fd5b5050505080600160a060020a031663cb8d2d2c6040518163ffffffff1660e060020a028152600401602060405180830381865afa158015613316573d6000803e3d6000fd5b505050506040513d601f19601f8201168201806040525081019061333a91906151c6565b60405160e060020a631c635ded02815260606004820152600760648201527f52656c69632034000000000000000000000000000000000000000000000000006084820152602481018990526103e86044820152600160a060020a039190911690631c635ded9060a401600060405180830381600087803b1580156133bd57600080fd5b505af11580156133d1573d6000803e3d6000fd5b5050505080600160a060020a031663cb8d2d2c6040518163ffffffff1660e060020a028152600401602060405180830381865afa158015613416573d6000803e3d6000fd5b505050506040513d601f19601f8201168201806040525081019061343a91906151c6565b60405160e060020a631c635ded02815260606004820152600760648201527f52656c69632035000000000000000000000000000000000000000000000000006084820152602481018990526103e86044820152600160a060020a039190911690631c635ded9060a401600060405180830381600087803b1580156134bd57600080fd5b505af11580156134d1573d6000803e3d6000fd5b5050505080600160a060020a031663a906dfd16040518163ffffffff1660e060020a028152600401602060405180830381865afa158015613516573d6000803e3d6000fd5b505050506040513d601f19601f8201168201806040525081019061353a91906151c6565b600160a060020a031663d82910478860006001806040518563ffffffff1660e060020a02815260040161357094939291906154a8565b600060405180830381600087803b15801561358a57600080fd5b505af115801561359e573d6000803e3d6000fd5b5050505060005b838110156137935760006135ba8260016154f5565b60405160e260020a633d410c95028152600481018b905260248101829052909150600090600160a060020a0388169063f504325490604401602060405180830381865afa15801561360f573d6000803e3d6000fd5b505050506040513d601f19601f8201168201806040525081019061363391906151c6565b6040517f98bd7572000000000000000000000000000000000000000000000000000000008152909150600160a060020a038916906398bd75729061367f9084908e908a90600401615539565b600060405180830381600087803b15801561369957600080fd5b505af11580156136ad573d6000803e3d6000fd5b5050505083600160a060020a031663a318d45c6040518163ffffffff1660e060020a028152600401602060405180830381865afa1580156136f2573d6000803e3d6000fd5b505050506040513d601f19601f8201168201806040525081019061371691906151c6565b600160a060020a031663d82910478b60008560016040518563ffffffff1660e060020a02815260040161374c9493929190615561565b600060405180830381600087803b15801561376657600080fd5b505af115801561377a573d6000803e3d6000fd5b505050505050808061378b90615573565b9150506135a5565b506040517f76a321c10000000000000000000000000000000000000000000000000000000081526002600482015260248101889052600160a060020a038616906376a321c190604401600060405180830381600087803b1580156137f657600080fd5b505af115801561380a573d6000803e3d6000fd5b50505050600085600160a060020a031663cefe23296040518163ffffffff1660e060020a028152600401602060405180830381865afa158015613851573d6000803e3d6000fd5b505050506040513d601f19601f8201168201806040525081019061387591906151c6565b60405160e160020a63430c0a71028152600481018a9052909150600090600160a060020a0383169063861814e290602401602060405180830381865afa1580156138c3573d6000803e3d6000fd5b505050506040513d601f19601f820116820180604052508101906138e791906151fa565b9050806139dc5781600160a060020a03166306fb55278a88600160a060020a031663b77ff4118d6040518263ffffffff1660e060020a02815260040161392f91815260200190565b602060405180830381865afa15801561394c573d6000803e3d6000fd5b505050506040513d601f19601f8201168201806040525081019061397091906151fa565b60405160e060020a63ffffffff8516028152600481019290925261ffff1660248201526044016020604051808303816000875af11580156139b5573d6000803e3d6000fd5b505050506040513d601f19601f820116820180604052508101906139d991906151fa565b90505b6040517fe5ed1d5900000000000000000000000000000000000000000000000000000000815260048101829052600160a060020a0383169063e5ed1d5990602401600060405180830381600087803b158015613a3757600080fd5b505af1158015613a4b573d6000803e3d6000fd5b50505050505050505050505050565b6040517f72c6c6b60000000000000000000000000000000000000000000000000000000081528190600160a060020a038216906372c6c6b69061054d908690600401614f1a565b6040517f9eb356cb0000000000000000000000000000000000000000000000000000000081526004810183905233602482015260448101849052600160a060020a03821690639eb356cb906064016020604051808303816000875af1158015613b0e573d6000803e3d6000fd5b505050506040513d601f19601f82011682018060405250810190613b329190615252565b50505050565b6000828152600160205260408120613b509083614994565b9392505050565b600091825260208281526040808420600160a060020a0393909316845291905290205460ff1690565b6040517fb553910d000000000000000000000000000000000000000000000000000000008152600090600160a060020a0384169063b553910d90613bc8908590600401614f1a565b602060405180830381865afa158015613be5573d6000803e3d6000fd5b505050506040513d601f19601f82011682018060405250810190613b5091906151fa565b6000613c1481614943565b506002805473ffffffffffffffffffffffffffffffffffffffff1916600160a060020a0392909216919091179055565b600081815260016020526040812061033a906149a0565b6000613c6681614943565b61063e7f80e2196015fc06a9d891759f8e4f51eb314ef5e9ea068528a8ed0063b87759f083610584565b600082815260208190526040902060010154613cab81614943565b6105a98383614972565b6000819050600081600160a060020a031663cca369966040518163ffffffff1660e060020a028152600401602060405180830381865afa158015613cfd573d6000803e3d6000fd5b505050506040513d601f19601f82011682018060405250810190613d2191906151c6565b9050600082600160a060020a031663c06dea4e6040518163ffffffff1660e060020a028152600401602060405180830381865afa158015613d66573d6000803e3d6000fd5b505050506040513d601f19601f82011682018060405250810190613d8a91906151c6565b905081600160a060020a031663a318d45c6040518163ffffffff1660e060020a028152600401602060405180830381865afa158015613dcd573d6000803e3d6000fd5b505050506040513d601f19601f82011682018060405250810190613df191906151c6565b600160a060020a031663d829104786600084600160a060020a031663bca7caa08a336040518363ffffffff1660e060020a028152600401613e339291906151e3565b602060405180830381865afa158015613e50573d6000803e3d6000fd5b505050506040513d601f19601f82011682018060405250810190613e7491906151fa565b60016040518563ffffffff1660e060020a028152600401613e98949392919061558e565b600060405180830381600087803b158015613eb257600080fd5b505af1158015613ec6573d6000803e3d6000fd5b5050505081600160a060020a031663a318d45c6040518163ffffffff1660e060020a028152600401602060405180830381865afa158015613f0b573d6000803e3d6000fd5b505050506040513d601f19601f82011682018060405250810190613f2f91906151c6565b600160a060020a031663d829104786600084600160a060020a031663bca7caa08a336040518363ffffffff1660e060020a028152600401613f719291906151e3565b602060405180830381865afa158015613f8e573d6000803e3d6000fd5b505050506040513d601f19601f82011682018060405250810190613fb291906151fa565b60016040518563ffffffff1660e060020a028152600401613fd694939291906155a0565b600060405180830381600087803b158015613ff057600080fd5b505af1158015614004573d6000803e3d6000fd5b5050505081600160a060020a031663a318d45c6040518163ffffffff1660e060020a028152600401602060405180830381865afa158015614049573d6000803e3d6000fd5b505050506040513d601f19601f8201168201806040525081019061406d91906151c6565b600160a060020a031663d829104786600084600160a060020a031663bca7caa08a336040518363ffffffff1660e060020a0281526004016140af9291906151e3565b602060405180830381865afa1580156140cc573d6000803e3d6000fd5b505050506040513d601f19601f820116820180604052508101906140f091906151fa565b60016040518563ffffffff1660e060020a02815260040161411494939291906155b2565b600060405180830381600087803b15801561412e57600080fd5b505af1158015614142573d6000803e3d6000fd5b505050505050505050565b6000819050600081600160a060020a031663cefe23296040518163ffffffff1660e060020a028152600401602060405180830381865afa158015614195573d6000803e3d6000fd5b505050506040513d601f19601f820116820180604052508101906141b991906151c6565b9050600082600160a060020a031663c06dea4e6040518163ffffffff1660e060020a028152600401602060405180830381865afa1580156141fe573d6000803e3d6000fd5b505050506040513d601f19601f8201168201806040525081019061422291906151c6565b60405160e260020a633d410c9502815260048101879052602481018c90529091503390600160a060020a0383169063f504325490604401602060405180830381865afa158015614276573d6000803e3d6000fd5b505050506040513d601f19601f8201168201806040525081019061429a91906151c6565b600160a060020a0316146142f35760405160e560020a62461bcd02815260206004820152601660248201527f506c617965724944206973206e6f742073656e64657200000000000000000000604482015260640161062b565b60405160e160020a63430c0a7102815260048101869052600090600160a060020a0384169063861814e290602401602060405180830381865afa15801561433e573d6000803e3d6000fd5b505050506040513d601f19601f8201168201806040525081019061436291906151fa565b9050806144535782600160a060020a03166306fb55278784600160a060020a031663b77ff4118a6040518263ffffffff1660e060020a0281526004016143aa91815260200190565b602060405180830381865afa1580156143c7573d6000803e3d6000fd5b505050506040513d601f19601f820116820180604052508101906143eb91906151fa565b60405160e060020a63ffffffff8516028152600481019290925260248201526044016020604051808303816000875af115801561442c573d6000803e3d6000fd5b505050506040513d601f19601f8201168201806040525081019061445091906151fa565b90505b806144a35760405160e560020a62461bcd02815260206004820152601f60248201527f756e61626c6520746f207365742071494420696e20636f6e74726f6c6c657200604482015260640161062b565b6040517fae6a7056000000000000000000000000000000000000000000000000000000008152600160a060020a0384169063ae6a7056906144f2908e908e908e908e908e9089906004016155c4565b600060405180830381600087803b15801561450c57600080fd5b505af1158015614520573d6000803e3d6000fd5b505050505050505050505050505050565b6000819050600081600160a060020a031663c06dea4e6040518163ffffffff1660e060020a028152600401602060405180830381865afa158015614579573d6000803e3d6000fd5b505050506040513d601f19601f8201168201806040525081019061459d91906151c6565b60405160e360020a631703edc3028152909150600160a060020a0382169063b81f6e18906145d190879033906004016151e3565b602060405180830381865afa1580156145ee573d6000803e3d6000fd5b505050506040513d601f19601f820116820180604052508101906146129190615252565b6146315760405160e560020a62461bcd02815260040161062b90615274565b60405160e060020a63b77ff41102815260048101859052600190600160a060020a0383169063b77ff41190602401602060405180830381865afa15801561467c573d6000803e3d6000fd5b505050506040513d601f19601f820116820180604052508101906146a091906151fa565b1115614780576040517fbca7caa0000000000000000000000000000000000000000000000000000000008152600160a060020a0382169063bca7caa0906146ed90879033906004016151e3565b602060405180830381865afa15801561470a573d6000803e3d6000fd5b505050506040513d601f19601f8201168201806040525081019061472e91906151fa565b6002146147805760405160e560020a62461bcd02815260206004820152601760248201527f50322063686f6f736573206c616e64696e672073697465000000000000000000604482015260640161062b565b6040517ff8430708000000000000000000000000000000000000000000000000000000008152600160a060020a0383169063f8430708906147ca9088906005908990600401615667565b600060405180830381600087803b1580156147e457600080fd5b505af11580156147f8573d6000803e3d6000fd5b50506040517f9f82bcc0000000000000000000000000000000000000000000000000000000008152600160a060020a0385169250639f82bcc0915061411490889088906004016156ae565b61484d8282613b57565b61063e57600082815260208181526040808320600160a060020a03851684529091529020805460ff191660011790556148833390565b600160a060020a031681600160a060020a0316837f2f8788117e7eff1d82e926ec794901d17c78024a50270940304540a733656f0d60405160405180910390a45050565b6000613b5083600160a060020a0384166149aa565b6000600160e060020a031982167f7965db0b00000000000000000000000000000000000000000000000000000000148061033a57507f01ffc9a700000000000000000000000000000000000000000000000000000000600160e060020a031983161461033a565b61494d81336149f9565b50565b61495a8282614843565b60008281526001602052604090206105a990826148c7565b61497c8282614a60565b60008281526001602052604090206105a99082614ac5565b6000613b508383614ada565b600061033a825490565b60008181526001830160205260408120546149f15750815460018181018455600084815260208082209093018490558454848252828601909352604090209190915561033a565b50600061033a565b614a038282613b57565b61063e57614a1b81600160a060020a03166014614b04565b614a26836020614b04565b604051602001614a379291906156d0565b60408051601f198184030181529082905260e560020a62461bcd02825261062b91600401615751565b614a6a8282613b57565b1561063e57600082815260208181526040808320600160a060020a0385168085529252808320805460ff1916905551339285917ff6391f5c32d9c69d2a47ea670b442974b53935d1edc7fd64eb21e047a839171b9190a45050565b6000613b5083600160a060020a038416614d06565b6000826000018281548110614af157614af1615764565b9060005260206000200154905092915050565b60606000614b1383600261577d565b614b1e9060026154f5565b67ffffffffffffffff811115614b3657614b36614f4b565b6040519080825280601f01601f191660200182016040528015614b60576020820181803683370190505b5090507f300000000000000000000000000000000000000000000000000000000000000081600081518110614b9757614b97615764565b6020010190600160f860020a031916908160001a9053507f780000000000000000000000000000000000000000000000000000000000000081600181518110614be257614be2615764565b6020010190600160f860020a031916908160001a9053506000614c0684600261577d565b614c119060016154f5565b90505b6001811115614cb4577f303132333435363738396162636465660000000000000000000000000000000085600f1660108110614c5257614c52615764565b1a7f010000000000000000000000000000000000000000000000000000000000000002828281518110614c8757614c87615764565b6020010190600160f860020a031916908160001a905350601090940493614cad8161579c565b9050614c14565b508315613b505760405160e560020a62461bcd02815260206004820181905260248201527f537472696e67733a20686578206c656e67746820696e73756666696369656e74604482015260640161062b565b60008181526001830160205260408120548015614def576000614d2a6001836157b3565b8554909150600090614d3e906001906157b3565b9050818114614da3576000866000018281548110614d5e57614d5e615764565b9060005260206000200154905080876000018481548110614d8157614d81615764565b6000918252602080832090910192909255918252600188019052604090208390555b8554869080614db457614db46157ca565b60019003818190600052602060002001600090559055856001016000868152602001908152602001600020600090556001935050505061033a565b600091505061033a565b600060208284031215614e0b57600080fd5b8135600160e060020a031981168114613b5057600080fd5b600060208284031215614e3557600080fd5b5035919050565b600160a060020a038116811461494d57600080fd5b8035614e5c81614e3c565b919050565b60008060408385031215614e7457600080fd5b823591506020830135614e8681614e3c565b809150509250929050565b60008060408385031215614ea457600080fd5b8235614eaf81614e3c565b91506020830135614e8681614e3c565b600080600060608486031215614ed457600080fd5b83359250602084013591506040840135614eed81614e3c565b809150509250925092565b60008060408385031215614f0b57600080fd5b50508035926020909101359150565b600160a060020a0391909116815260200190565b600060208284031215614f4057600080fd5b8135613b5081614e3c565b60e060020a634e487b7102600052604160045260246000fd5b604051601f8201601f1916810167ffffffffffffffff81118282101715614f8d57614f8d614f4b565b604052919050565b600067ffffffffffffffff821115614faf57614faf614f4b565b50601f01601f191660200190565b600082601f830112614fce57600080fd5b8135614fe1614fdc82614f95565b614f64565b818152846020838601011115614ff657600080fd5b816020850160208301376000918101602001919091529392505050565b600082601f83011261502457600080fd5b8135602067ffffffffffffffff8083111561504157615041614f4b565b81830261504f838201614f64565b938452858101830193838101908886111561506957600080fd5b84880192505b858310156150a5578235848111156150875760008081fd5b6150958a87838c0101614fbd565b835250918401919084019061506f565b98975050505050505050565b600080600080600080600060e0888a0312156150cc57600080fd5b87359650602088013560ff811681146150e457600080fd5b9550604088013567ffffffffffffffff8082111561510157600080fd5b61510d8b838c01615013565b965060608a013591508082111561512357600080fd5b61512f8b838c01614fbd565b955060808a013591508082111561514557600080fd5b506151528a828b01614fbd565b93505060a0880135915061516860c08901614e51565b905092959891949750929550565b60008060006060848603121561518b57600080fd5b833567ffffffffffffffff8111156151a257600080fd5b6151ae86828701614fbd565b935050602084013591506040840135614eed81614e3c565b6000602082840312156151d857600080fd5b8151613b5081614e3c565b918252600160a060020a0316602082015260400190565b60006020828403121561520c57600080fd5b5051919050565b60a08101818560005b600381101561523e57815160ff1683526020928301929091019060010161521c565b505050606082019390935260800152919050565b60006020828403121561526457600080fd5b81518015158114613b5057600080fd5b60208082526015908201527f706c61796572206e6f7420726567697374657265640000000000000000000000604082015260600190565b60005b838110156152c65781810151838201526020016152ae565b83811115613b325750506000910152565b6000602082840312156152e957600080fd5b815167ffffffffffffffff81111561530057600080fd5b8201601f8101841361531157600080fd5b805161531f614fdc82614f95565b81815285602083850101111561533457600080fd5b6153458260208301602086016152ab565b95945050505050565b600381527f4461790000000000000000000000000000000000000000000000000000000000602082015260400190565b6060815260006153906060830161534e565b6020830194909452506040015290565b600b81527f5368696e79205269666c65000000000000000000000000000000000000000000602082015260400190565b606081526000615390606083016153a0565b600c81527f4c61736572204461676765720000000000000000000000000000000000000000602082015260400190565b606081526000615390606083016153e2565b600a81527f476c6f7720737469636b00000000000000000000000000000000000000000000602082015260400190565b60608152600061539060608301615424565b600881527f43616d7073697465000000000000000000000000000000000000000000000000602082015260400190565b60608152600061539060608301615466565b60a0815260006154ba60a0830161534e565b6020830196909652506040810193909352606083019190915260809091015290565b60e060020a634e487b7102600052601160045260246000fd5b60008219821115615508576155086154dc565b500190565b600081518084526155258160208601602086016152ab565b601f01601f19169290920160200192915050565b600160a060020a0384168152826020820152606060408201526000615345606083018461550d565b60a0815260006154ba60a08301615466565b6000600019821415615587576155876154dc565b5060010190565b60a0815260006154ba60a083016153a0565b60a0815260006154ba60a08301615424565b60a0815260006154ba60a083016153e2565b600060c08201888352602060ff89168185015260c0604085015281885180845260e08601915060e08382028701019350828a0160005b828110156156285760df1988870301845261561686835161550d565b955092840192908401906001016155fa565b5050505050828103606084015261563f818761550d565b90508281036080840152615653818661550d565b9150508260a0830152979650505050505050565b60608152600061567a606083018661550d565b9050600c841061569d5760e060020a634e487b7102600052602160045260246000fd5b602082019390935260400152919050565b6040815260006156c1604083018561550d565b90508260208301529392505050565b7f416363657373436f6e74726f6c3a206163636f756e74200000000000000000008152600083516157088160178501602088016152ab565b7f206973206d697373696e6720726f6c652000000000000000000000000000000060179184019182015283516157458160288401602088016152ab565b01602801949350505050565b602081526000613b50602083018461550d565b60e060020a634e487b7102600052603260045260246000fd5b6000816000190483118215151615615797576157976154dc565b500290565b6000816157ab576157ab6154dc565b506000190190565b6000828210156157c5576157c56154dc565b500390565b60e060020a634e487b7102600052603160045260246000fdfea2646970667358221220524a6ccf3a3088552d9db8118d8a4ffe1cde2bbf3e4bce33206cb99000e9d46d64736f6c634300080b0033",
  "immutableReferences": {},
  "source": "// SPDX-License-Identifier: GPL-3.0\npragma solidity >=0.7.0 <0.9.0;\n\nimport \"@luckymachines/game-core/contracts/src/v0.0/GameController.sol\";\nimport \"./HexplorationBoard.sol\";\nimport \"./HexplorationZone.sol\";\nimport \"./HexplorationQueue.sol\";\nimport \"./HexplorationStateUpdate.sol\";\nimport \"./state/CharacterCard.sol\";\nimport \"./tokens/TokenInventory.sol\";\n\ncontract HexplorationController is GameController {\n    // functions are meant to be called directly by players by default\n    // we are adding the ability of a Controller Admin or Keeper to\n    // execute the game aspects not directly controlled by players\n    bytes32 public constant VERIFIED_CONTROLLER_ROLE =\n        keccak256(\"VERIFIED_CONTROLLER_ROLE\");\n\n    HexplorationStateUpdate GAME_STATE;\n\n    // TODO:\n    //\n    // Connect to Chainlink VRF for random seeds when needed\n    // submit move + space choice\n    // use / swap item\n\n    /*\n    Controller can access all game tokens with the following methods:\n\n    function mint(\n        string memory tokenType,\n        uint256 gameID,\n        uint256 quantity\n    )\n\n    function transfer(\n        string memory tokenType,\n        uint256 gameID,\n        uint256 fromID,\n        uint256 toID,\n        uint256 quantity\n    )\n*/\n    modifier onlyAdminVC() {\n        require(\n            hasRole(DEFAULT_ADMIN_ROLE, _msgSender()) ||\n                hasRole(VERIFIED_CONTROLLER_ROLE, _msgSender()),\n            \"Admin or Keeper role required\"\n        );\n        _;\n    }\n\n    constructor(address adminAddress) GameController(adminAddress) {}\n\n    // Admin Functions\n\n    function setGameStateUpdate(address gsuAddress)\n        public\n        onlyRole(DEFAULT_ADMIN_ROLE)\n    {\n        GAME_STATE = HexplorationStateUpdate(gsuAddress);\n    }\n\n    function addVerifiedController(address vcAddress)\n        public\n        onlyRole(DEFAULT_ADMIN_ROLE)\n    {\n        grantRole(VERIFIED_CONTROLLER_ROLE, vcAddress);\n    }\n\n    // Admin or Keeper Interactions\n\n    function startGame(uint256 gameID, address boardAddress) public {\n        HexplorationBoard board = HexplorationBoard(boardAddress);\n        require(board.gameState(gameID) == 0, \"game already started\");\n\n        PlayerRegistry pr = PlayerRegistry(board.prAddress());\n\n        // Any registered player can start game once landing site has been set\n        require(pr.isRegistered(gameID, msg.sender), \"player not registered\");\n        board.lockRegistration(gameID);\n        uint256 totalRegistrations = pr.totalRegistrations(gameID);\n\n        string memory startZone = board.initialPlayZone(gameID);\n\n        TokenInventory ti = TokenInventory(board.tokenInventory());\n        // mint game tokens (maybe mint on demand instead...)\n        // minting full game set here\n        ti.DAY_NIGHT_TOKEN().mint(\"Day\", gameID, 1);\n        ti.DAY_NIGHT_TOKEN().mint(\"Night\", gameID, 1);\n        ti.DISASTER_TOKEN().mint(\"Earthquake\", gameID, 1000);\n        ti.DISASTER_TOKEN().mint(\"Volcano\", gameID, 1000);\n        ti.ENEMY_TOKEN().mint(\"Pirate\", gameID, 1000);\n        ti.ENEMY_TOKEN().mint(\"Pirate Ship\", gameID, 1000);\n        ti.ENEMY_TOKEN().mint(\"Deathbot\", gameID, 1000);\n        ti.ENEMY_TOKEN().mint(\"Guardian\", gameID, 1000);\n        ti.ENEMY_TOKEN().mint(\"Sandworm\", gameID, 1000);\n        ti.ENEMY_TOKEN().mint(\"Dragon\", gameID, 1000);\n        ti.ITEM_TOKEN().mint(\"Small Ammo\", gameID, 1000);\n        ti.ITEM_TOKEN().mint(\"Large Ammo\", gameID, 1000);\n        ti.ITEM_TOKEN().mint(\"Batteries\", gameID, 1000);\n        ti.ITEM_TOKEN().mint(\"Shield\", gameID, 1000);\n        ti.ITEM_TOKEN().mint(\"Portal\", gameID, 1000);\n        ti.ITEM_TOKEN().mint(\"On\", gameID, 1000);\n        ti.ITEM_TOKEN().mint(\"Off\", gameID, 1000);\n        ti.ITEM_TOKEN().mint(\"Rusty Dagger\", gameID, 1000);\n        ti.ITEM_TOKEN().mint(\"Rusty Sword\", gameID, 1000);\n        ti.ITEM_TOKEN().mint(\"Rusty Pistol\", gameID, 1000);\n        ti.ITEM_TOKEN().mint(\"Rusty Rifle\", gameID, 1000);\n        ti.ITEM_TOKEN().mint(\"Shiny Dagger\", gameID, 1000);\n        ti.ITEM_TOKEN().mint(\"Shiny Sword\", gameID, 1000);\n        ti.ITEM_TOKEN().mint(\"Shiny Rifle\", gameID, 1000);\n        ti.ITEM_TOKEN().mint(\"Laser Dagger\", gameID, 1000);\n        ti.ITEM_TOKEN().mint(\"Laser Sword\", gameID, 1000);\n        ti.ITEM_TOKEN().mint(\"Laser Pistol\", gameID, 1000);\n        ti.ITEM_TOKEN().mint(\"Laser Rifle\", gameID, 1000);\n        ti.ITEM_TOKEN().mint(\"Glow stick\", gameID, 1000);\n        ti.ITEM_TOKEN().mint(\"Flashlight\", gameID, 1000);\n        ti.ITEM_TOKEN().mint(\"Flood light\", gameID, 1000);\n        ti.ITEM_TOKEN().mint(\"Nightvision Goggles\", gameID, 1000);\n        ti.ITEM_TOKEN().mint(\"Personal Shield\", gameID, 1000);\n        // add these back, just removing to cut down size for testing\n        // ti.ITEM_TOKEN().mint(\"Bubble Shield\", gameID, 1000);\n        // ti.ITEM_TOKEN().mint(\"Frag Grenade\", gameID, 1000);\n        // ti.ITEM_TOKEN().mint(\"Fire Grenade\", gameID, 1000);\n        // ti.ITEM_TOKEN().mint(\"Shock Grenade\", gameID, 1000);\n        // ti.ITEM_TOKEN().mint(\"HE Mortar\", gameID, 1000);\n        // ti.ITEM_TOKEN().mint(\"Incendiary Mortar\", gameID, 1000);\n        // ti.ITEM_TOKEN().mint(\"EMP Mortar\", gameID, 1000);\n        // ti.ITEM_TOKEN().mint(\"Power Glove\", gameID, 1000);\n        // ti.ITEM_TOKEN().mint(\"Remote Launch and Guidance System\", gameID, 1000);\n        // ti.ITEM_TOKEN().mint(\"Teleporter Pack\", gameID, 1000);\n        ti.ITEM_TOKEN().mint(\"Campsite\", gameID, 1000);\n        ti.PLAYER_STATUS_TOKEN().mint(\"Stunned\", gameID, 1000);\n        ti.PLAYER_STATUS_TOKEN().mint(\"Burned\", gameID, 1000);\n        ti.ARTIFACT_TOKEN().mint(\"Engraved Tablet\", gameID, 1000);\n        ti.ARTIFACT_TOKEN().mint(\"Sigil Gem\", gameID, 1000);\n        ti.ARTIFACT_TOKEN().mint(\"Ancient Tome\", gameID, 1000);\n        ti.RELIC_TOKEN().mint(\"Relic 1\", gameID, 1000);\n        ti.RELIC_TOKEN().mint(\"Relic 2\", gameID, 1000);\n        ti.RELIC_TOKEN().mint(\"Relic 3\", gameID, 1000);\n        ti.RELIC_TOKEN().mint(\"Relic 4\", gameID, 1000);\n        ti.RELIC_TOKEN().mint(\"Relic 5\", gameID, 1000);\n        // Transfer day token to board\n        ti.DAY_NIGHT_TOKEN().transfer(\"Day\", gameID, 0, 1, 1);\n\n        for (uint256 i = 0; i < totalRegistrations; i++) {\n            uint256 playerID = i + 1;\n            address playerAddress = pr.playerAddress(gameID, playerID);\n            board.enterPlayer(playerAddress, gameID, startZone);\n            // Transfer campsite tokens to players\n            ti.ITEM_TOKEN().transfer(\"Campsite\", gameID, 0, playerID, 1);\n        }\n        // set game to initialized\n        board.setGameState(2, gameID);\n\n        HexplorationQueue q = HexplorationQueue(board.gameplayQueue());\n\n        uint256 qID = q.queueID(gameID);\n        if (qID == 0) {\n            qID = q.requestGameQueue(\n                gameID,\n                uint16(pr.totalRegistrations(gameID))\n            );\n        }\n        q.startGame(qID);\n    }\n\n    //Player Interactions\n    function registerForGame(uint256 gameID, address boardAddress) public {\n        HexplorationBoard board = HexplorationBoard(boardAddress);\n        board.registerPlayer(msg.sender, gameID);\n        // TODO: set to official values\n        CharacterCard(board.characterCard()).setStats(\n            [4, 4, 4],\n            gameID,\n            PlayerRegistry(board.prAddress()).playerID(gameID, msg.sender)\n        );\n    }\n\n    function submitAction(\n        uint256 playerID,\n        uint8 actionIndex,\n        string[] memory options,\n        string memory leftHand,\n        string memory rightHand,\n        uint256 gameID,\n        address boardAddress\n    ) public {\n        HexplorationBoard board = HexplorationBoard(boardAddress);\n        HexplorationQueue q = HexplorationQueue(board.gameplayQueue());\n        PlayerRegistry pr = PlayerRegistry(board.prAddress());\n        require(\n            pr.playerAddress(gameID, playerID) == msg.sender,\n            \"PlayerID is not sender\"\n        );\n        uint256 qID = q.queueID(gameID);\n        if (qID == 0) {\n            qID = q.requestGameQueue(gameID, pr.totalRegistrations(gameID));\n        }\n        require(qID != 0, \"unable to set qID in controller\");\n        q.sumbitActionForPlayer(\n            playerID,\n            actionIndex,\n            options,\n            leftHand,\n            rightHand,\n            qID\n        );\n    }\n\n    function chooseLandingSite(\n        string memory zoneChoice,\n        uint256 gameID,\n        address boardAddress\n    ) public {\n        // game rule: player 2 chooses on multiplayer game\n        HexplorationBoard board = HexplorationBoard(boardAddress);\n        PlayerRegistry pr = PlayerRegistry(board.prAddress());\n        require(pr.isRegistered(gameID, msg.sender), \"player not registered\");\n\n        if (pr.totalRegistrations(gameID) > 1) {\n            require(\n                pr.playerID(gameID, msg.sender) == 2,\n                \"P2 chooses landing site\"\n            );\n        }\n        board.enableZone(zoneChoice, HexplorationZone.Tile.LandingSite, gameID);\n        // set landing site at space on board\n        board.setInitialPlayZone(zoneChoice, gameID);\n\n        //startGame(gameID, boardAddress);\n    }\n\n    // TODO: limit this to authorized game starters\n    function requestNewGame(address gameRegistryAddress, address boardAddress)\n        public\n    {\n        HexplorationBoard board = HexplorationBoard(boardAddress);\n        board.requestNewGame(gameRegistryAddress);\n    }\n\n    function latestGame(address gameRegistryAddress, address boardAddress)\n        public\n        view\n        returns (uint256)\n    {\n        return GameRegistry(gameRegistryAddress).latestGame(boardAddress);\n    }\n\n    // TODO: remove before launch\n    function getTestInventory(uint256 gameID, address boardAddress) public {\n        // send some equippable items\n        HexplorationBoard board = HexplorationBoard(boardAddress);\n        TokenInventory ti = TokenInventory(board.tokenInventory());\n        PlayerRegistry pr = PlayerRegistry(board.prAddress());\n        ti.ITEM_TOKEN().transfer(\n            \"Shiny Rifle\",\n            gameID,\n            0,\n            pr.playerID(gameID, msg.sender),\n            1\n        );\n\n        ti.ITEM_TOKEN().transfer(\n            \"Glow stick\",\n            gameID,\n            0,\n            pr.playerID(gameID, msg.sender),\n            1\n        );\n\n        ti.ITEM_TOKEN().transfer(\n            \"Laser Dagger\",\n            gameID,\n            0,\n            pr.playerID(gameID, msg.sender),\n            1\n        );\n    }\n}\n",
  "sourcePath": "/Users/maxmeier/Developer/Lucky Machines/hexploration/contracts/HexplorationController.sol",
  "compiler": {
    "name": "solc",
    "version": "0.8.11+commit.d7f03943.Emscripten.clang"
  },
  "schemaVersion": "3.4.4",
  "updatedAt": "2022-05-24T23:08:28.387Z",
  "networkType": "ethereum",
  "devdoc": {
    "kind": "dev",
    "methods": {
      "getRoleAdmin(bytes32)": {
        "details": "Returns the admin role that controls `role`. See {grantRole} and {revokeRole}. To change a role's admin, use {_setRoleAdmin}."
      },
      "getRoleMember(bytes32,uint256)": {
        "details": "Returns one of the accounts that have `role`. `index` must be a value between 0 and {getRoleMemberCount}, non-inclusive. Role bearers are not sorted in any particular way, and their ordering may change at any point. WARNING: When using {getRoleMember} and {getRoleMemberCount}, make sure you perform all queries on the same block. See the following https://forum.openzeppelin.com/t/iterating-over-elements-on-enumerableset-in-openzeppelin-contracts/2296[forum post] for more information."
      },
      "getRoleMemberCount(bytes32)": {
        "details": "Returns the number of accounts that have `role`. Can be used together with {getRoleMember} to enumerate all bearers of a role."
      },
      "grantRole(bytes32,address)": {
        "details": "Grants `role` to `account`. If `account` had not been already granted `role`, emits a {RoleGranted} event. Requirements: - the caller must have ``role``'s admin role."
      },
      "hasRole(bytes32,address)": {
        "details": "Returns `true` if `account` has been granted `role`."
      },
      "renounceRole(bytes32,address)": {
        "details": "Revokes `role` from the calling account. Roles are often managed via {grantRole} and {revokeRole}: this function's purpose is to provide a mechanism for accounts to lose their privileges if they are compromised (such as when a trusted device is misplaced). If the calling account had been revoked `role`, emits a {RoleRevoked} event. Requirements: - the caller must be `account`."
      },
      "revokeRole(bytes32,address)": {
        "details": "Revokes `role` from `account`. If `account` had been granted `role`, emits a {RoleRevoked} event. Requirements: - the caller must have ``role``'s admin role."
      },
      "supportsInterface(bytes4)": {
        "details": "See {IERC165-supportsInterface}."
      }
    },
    "version": 1
  },
  "userdoc": {
    "kind": "user",
    "methods": {},
    "version": 1
  }
}