{
  "contractName": "HexplorationZone",
  "abi": [
    {
      "inputs": [
        {
          "internalType": "address",
          "name": "_rulesetAddress",
          "type": "address"
        },
        {
          "internalType": "address",
          "name": "_gameRegistryAddress",
          "type": "address"
        },
        {
          "internalType": "address",
          "name": "adminAddress",
          "type": "address"
        },
        {
          "internalType": "address",
          "name": "factoryAddress",
          "type": "address"
        }
      ],
      "stateMutability": "nonpayable",
      "type": "constructor"
    },
    {
      "anonymous": false,
      "inputs": [
        {
          "indexed": true,
          "internalType": "bytes32",
          "name": "role",
          "type": "bytes32"
        },
        {
          "indexed": true,
          "internalType": "bytes32",
          "name": "previousAdminRole",
          "type": "bytes32"
        },
        {
          "indexed": true,
          "internalType": "bytes32",
          "name": "newAdminRole",
          "type": "bytes32"
        }
      ],
      "name": "RoleAdminChanged",
      "type": "event"
    },
    {
      "anonymous": false,
      "inputs": [
        {
          "indexed": true,
          "internalType": "bytes32",
          "name": "role",
          "type": "bytes32"
        },
        {
          "indexed": true,
          "internalType": "address",
          "name": "account",
          "type": "address"
        },
        {
          "indexed": true,
          "internalType": "address",
          "name": "sender",
          "type": "address"
        }
      ],
      "name": "RoleGranted",
      "type": "event"
    },
    {
      "anonymous": false,
      "inputs": [
        {
          "indexed": true,
          "internalType": "bytes32",
          "name": "role",
          "type": "bytes32"
        },
        {
          "indexed": true,
          "internalType": "address",
          "name": "account",
          "type": "address"
        },
        {
          "indexed": true,
          "internalType": "address",
          "name": "sender",
          "type": "address"
        }
      ],
      "name": "RoleRevoked",
      "type": "event"
    },
    {
      "inputs": [],
      "name": "DEFAULT_ADMIN_ROLE",
      "outputs": [
        {
          "internalType": "bytes32",
          "name": "",
          "type": "bytes32"
        }
      ],
      "stateMutability": "view",
      "type": "function"
    },
    {
      "inputs": [],
      "name": "FACTORY_ROLE",
      "outputs": [
        {
          "internalType": "bytes32",
          "name": "",
          "type": "bytes32"
        }
      ],
      "stateMutability": "view",
      "type": "function"
    },
    {
      "inputs": [],
      "name": "GAME_BOARD_ROLE",
      "outputs": [
        {
          "internalType": "bytes32",
          "name": "",
          "type": "bytes32"
        }
      ],
      "stateMutability": "view",
      "type": "function"
    },
    {
      "inputs": [
        {
          "internalType": "address",
          "name": "gameBoardAddress",
          "type": "address"
        }
      ],
      "name": "addGameBoard",
      "outputs": [],
      "stateMutability": "nonpayable",
      "type": "function"
    },
    {
      "inputs": [
        {
          "internalType": "uint256",
          "name": "exitPathIndex",
          "type": "uint256"
        },
        {
          "internalType": "uint256",
          "name": "gameID",
          "type": "uint256"
        },
        {
          "internalType": "address",
          "name": "gameBoardAddress",
          "type": "address"
        }
      ],
      "name": "attemptExit",
      "outputs": [],
      "stateMutability": "nonpayable",
      "type": "function"
    },
    {
      "inputs": [
        {
          "internalType": "address",
          "name": "playerAddress",
          "type": "address"
        },
        {
          "internalType": "uint256",
          "name": "exitPathIndex",
          "type": "uint256"
        },
        {
          "internalType": "uint256",
          "name": "gameID",
          "type": "uint256"
        },
        {
          "internalType": "string",
          "name": "zoneAlias",
          "type": "string"
        },
        {
          "internalType": "address",
          "name": "gameBoardAddress",
          "type": "address"
        }
      ],
      "name": "attemptExitFor",
      "outputs": [],
      "stateMutability": "nonpayable",
      "type": "function"
    },
    {
      "inputs": [
        {
          "internalType": "address",
          "name": "playerAddress",
          "type": "address"
        },
        {
          "internalType": "uint256",
          "name": "gameID",
          "type": "uint256"
        },
        {
          "internalType": "string",
          "name": "zoneAlias",
          "type": "string"
        }
      ],
      "name": "enterPlayer",
      "outputs": [],
      "stateMutability": "nonpayable",
      "type": "function"
    },
    {
      "inputs": [
        {
          "internalType": "uint256",
          "name": "",
          "type": "uint256"
        },
        {
          "internalType": "string",
          "name": "",
          "type": "string"
        }
      ],
      "name": "entryCount",
      "outputs": [
        {
          "internalType": "uint256",
          "name": "",
          "type": "uint256"
        }
      ],
      "stateMutability": "view",
      "type": "function"
    },
    {
      "inputs": [
        {
          "internalType": "uint256",
          "name": "",
          "type": "uint256"
        },
        {
          "internalType": "string",
          "name": "",
          "type": "string"
        }
      ],
      "name": "exitCount",
      "outputs": [
        {
          "internalType": "uint256",
          "name": "",
          "type": "uint256"
        }
      ],
      "stateMutability": "view",
      "type": "function"
    },
    {
      "inputs": [
        {
          "internalType": "address",
          "name": "playerAddress",
          "type": "address"
        },
        {
          "internalType": "uint256",
          "name": "gameID",
          "type": "uint256"
        },
        {
          "internalType": "string",
          "name": "zoneAlias",
          "type": "string"
        }
      ],
      "name": "exitPlayer",
      "outputs": [],
      "stateMutability": "nonpayable",
      "type": "function"
    },
    {
      "inputs": [],
      "name": "gameRegistryAddress",
      "outputs": [
        {
          "internalType": "address",
          "name": "",
          "type": "address"
        }
      ],
      "stateMutability": "view",
      "type": "function"
    },
    {
      "inputs": [
        {
          "internalType": "bytes32",
          "name": "role",
          "type": "bytes32"
        }
      ],
      "name": "getRoleAdmin",
      "outputs": [
        {
          "internalType": "bytes32",
          "name": "",
          "type": "bytes32"
        }
      ],
      "stateMutability": "view",
      "type": "function"
    },
    {
      "inputs": [
        {
          "internalType": "bytes32",
          "name": "role",
          "type": "bytes32"
        },
        {
          "internalType": "uint256",
          "name": "index",
          "type": "uint256"
        }
      ],
      "name": "getRoleMember",
      "outputs": [
        {
          "internalType": "address",
          "name": "",
          "type": "address"
        }
      ],
      "stateMutability": "view",
      "type": "function"
    },
    {
      "inputs": [
        {
          "internalType": "bytes32",
          "name": "role",
          "type": "bytes32"
        }
      ],
      "name": "getRoleMemberCount",
      "outputs": [
        {
          "internalType": "uint256",
          "name": "",
          "type": "uint256"
        }
      ],
      "stateMutability": "view",
      "type": "function"
    },
    {
      "inputs": [
        {
          "internalType": "bytes32",
          "name": "role",
          "type": "bytes32"
        },
        {
          "internalType": "address",
          "name": "account",
          "type": "address"
        }
      ],
      "name": "grantRole",
      "outputs": [],
      "stateMutability": "nonpayable",
      "type": "function"
    },
    {
      "inputs": [
        {
          "internalType": "bytes32",
          "name": "role",
          "type": "bytes32"
        },
        {
          "internalType": "address",
          "name": "account",
          "type": "address"
        }
      ],
      "name": "hasRole",
      "outputs": [
        {
          "internalType": "bool",
          "name": "",
          "type": "bool"
        }
      ],
      "stateMutability": "view",
      "type": "function"
    },
    {
      "inputs": [
        {
          "internalType": "string[]",
          "name": "stringParams",
          "type": "string[]"
        },
        {
          "internalType": "address[]",
          "name": "addressParams",
          "type": "address[]"
        },
        {
          "internalType": "uint256[]",
          "name": "uintParams",
          "type": "uint256[]"
        }
      ],
      "name": "performCustomAction",
      "outputs": [],
      "stateMutability": "nonpayable",
      "type": "function"
    },
    {
      "inputs": [
        {
          "internalType": "address",
          "name": "playerAddress",
          "type": "address"
        },
        {
          "internalType": "uint256",
          "name": "gameID",
          "type": "uint256"
        },
        {
          "internalType": "string",
          "name": "zoneAlias",
          "type": "string"
        }
      ],
      "name": "playerCanEnter",
      "outputs": [
        {
          "internalType": "bool",
          "name": "canEnter",
          "type": "bool"
        }
      ],
      "stateMutability": "view",
      "type": "function"
    },
    {
      "inputs": [
        {
          "internalType": "address",
          "name": "playerAddress",
          "type": "address"
        },
        {
          "internalType": "uint256",
          "name": "gameID",
          "type": "uint256"
        },
        {
          "internalType": "string",
          "name": "zoneAlias",
          "type": "string"
        }
      ],
      "name": "playerCanExit",
      "outputs": [
        {
          "internalType": "bool",
          "name": "canExit",
          "type": "bool"
        }
      ],
      "stateMutability": "view",
      "type": "function"
    },
    {
      "inputs": [
        {
          "internalType": "uint256",
          "name": "",
          "type": "uint256"
        },
        {
          "internalType": "string",
          "name": "",
          "type": "string"
        }
      ],
      "name": "playerCount",
      "outputs": [
        {
          "internalType": "uint256",
          "name": "",
          "type": "uint256"
        }
      ],
      "stateMutability": "view",
      "type": "function"
    },
    {
      "inputs": [],
      "name": "playersInZone",
      "outputs": [
        {
          "internalType": "uint256[]",
          "name": "",
          "type": "uint256[]"
        }
      ],
      "stateMutability": "view",
      "type": "function"
    },
    {
      "inputs": [
        {
          "internalType": "address",
          "name": "gameBoardAddress",
          "type": "address"
        }
      ],
      "name": "removeGameBoard",
      "outputs": [],
      "stateMutability": "nonpayable",
      "type": "function"
    },
    {
      "inputs": [
        {
          "internalType": "address",
          "name": "playerAddress",
          "type": "address"
        },
        {
          "internalType": "uint256",
          "name": "gameID",
          "type": "uint256"
        },
        {
          "internalType": "string",
          "name": "zoneAlias",
          "type": "string"
        }
      ],
      "name": "removePlayer",
      "outputs": [],
      "stateMutability": "nonpayable",
      "type": "function"
    },
    {
      "inputs": [
        {
          "internalType": "bytes32",
          "name": "role",
          "type": "bytes32"
        },
        {
          "internalType": "address",
          "name": "account",
          "type": "address"
        }
      ],
      "name": "renounceRole",
      "outputs": [],
      "stateMutability": "nonpayable",
      "type": "function"
    },
    {
      "inputs": [
        {
          "internalType": "bytes32",
          "name": "role",
          "type": "bytes32"
        },
        {
          "internalType": "address",
          "name": "account",
          "type": "address"
        }
      ],
      "name": "revokeRole",
      "outputs": [],
      "stateMutability": "nonpayable",
      "type": "function"
    },
    {
      "inputs": [
        {
          "internalType": "uint256",
          "name": "",
          "type": "uint256"
        },
        {
          "internalType": "string",
          "name": "",
          "type": "string"
        }
      ],
      "name": "ruleset",
      "outputs": [
        {
          "internalType": "uint256",
          "name": "",
          "type": "uint256"
        }
      ],
      "stateMutability": "view",
      "type": "function"
    },
    {
      "inputs": [],
      "name": "rulesetAddress",
      "outputs": [
        {
          "internalType": "address",
          "name": "",
          "type": "address"
        }
      ],
      "stateMutability": "view",
      "type": "function"
    },
    {
      "inputs": [],
      "name": "rulesetVersion",
      "outputs": [
        {
          "internalType": "uint256",
          "name": "",
          "type": "uint256"
        }
      ],
      "stateMutability": "view",
      "type": "function"
    },
    {
      "inputs": [
        {
          "internalType": "uint256",
          "name": "rulesetID",
          "type": "uint256"
        },
        {
          "internalType": "uint256",
          "name": "gameID",
          "type": "uint256"
        },
        {
          "internalType": "string",
          "name": "zoneAlias",
          "type": "string"
        }
      ],
      "name": "setRules",
      "outputs": [],
      "stateMutability": "nonpayable",
      "type": "function"
    },
    {
      "inputs": [
        {
          "internalType": "bytes4",
          "name": "interfaceId",
          "type": "bytes4"
        }
      ],
      "name": "supportsInterface",
      "outputs": [
        {
          "internalType": "bool",
          "name": "",
          "type": "bool"
        }
      ],
      "stateMutability": "view",
      "type": "function"
    },
    {
      "inputs": [
        {
          "internalType": "uint256",
          "name": "",
          "type": "uint256"
        },
        {
          "internalType": "string",
          "name": "",
          "type": "string"
        }
      ],
      "name": "tile",
      "outputs": [
        {
          "internalType": "enum HexplorationZone.Tile",
          "name": "",
          "type": "uint8"
        }
      ],
      "stateMutability": "view",
      "type": "function"
    },
    {
      "inputs": [
        {
          "internalType": "uint256",
          "name": "",
          "type": "uint256"
        },
        {
          "internalType": "string",
          "name": "",
          "type": "string"
        }
      ],
      "name": "tileIsSet",
      "outputs": [
        {
          "internalType": "bool",
          "name": "",
          "type": "bool"
        }
      ],
      "stateMutability": "view",
      "type": "function"
    },
    {
      "inputs": [
        {
          "internalType": "enum HexplorationZone.Tile",
          "name": "_tile",
          "type": "uint8"
        },
        {
          "internalType": "uint256",
          "name": "gameID",
          "type": "uint256"
        },
        {
          "internalType": "string",
          "name": "zoneAlias",
          "type": "string"
        }
      ],
      "name": "setTile",
      "outputs": [],
      "stateMutability": "nonpayable",
      "type": "function"
    }
  ],
  "bytecode": "0x60806040523480156200001157600080fd5b5060405162003e8b38038062003e8b833981810160405281019062000037919062000523565b8383838383600260006101000a81548173ffffffffffffffffffffffffffffffffffffffff021916908373ffffffffffffffffffffffffffffffffffffffff16021790555082600360006101000a81548173ffffffffffffffffffffffffffffffffffffffff021916908373ffffffffffffffffffffffffffffffffffffffff16021790555083600460006101000a81548173ffffffffffffffffffffffffffffffffffffffff021916908373ffffffffffffffffffffffffffffffffffffffff160217905550600260009054906101000a900473ffffffffffffffffffffffffffffffffffffffff1673ffffffffffffffffffffffffffffffffffffffff166354fd4d506040518163ffffffff1660e01b8152600401602060405180830381865afa1580156200016c573d6000803e3d6000fd5b505050506040513d601f19601f82011682018060405250810190620001929190620005d0565b600581905550620001ad6000801b836200022360201b60201c565b600073ffffffffffffffffffffffffffffffffffffffff168173ffffffffffffffffffffffffffffffffffffffff16146200021557620002147fdfbefbf47cfe66b701d8cfdbce1de81c821590819cb07e71cb01b6602fb0ee27826200022360201b60201c565b5b505050505050505062000602565b6200023582826200023960201b60201c565b5050565b6200025082826200028160201b620016851760201c565b6200027c81600160008581526020019081526020016000206200037260201b620017651790919060201c565b505050565b620002938282620003aa60201b60201c565b6200036e57600160008084815260200190815260200160002060000160008373ffffffffffffffffffffffffffffffffffffffff1673ffffffffffffffffffffffffffffffffffffffff16815260200190815260200160002060006101000a81548160ff021916908315150217905550620003136200041460201b60201c565b73ffffffffffffffffffffffffffffffffffffffff168173ffffffffffffffffffffffffffffffffffffffff16837f2f8788117e7eff1d82e926ec794901d17c78024a50270940304540a733656f0d60405160405180910390a45b5050565b6000620003a2836000018373ffffffffffffffffffffffffffffffffffffffff1660001b6200041c60201b60201c565b905092915050565b600080600084815260200190815260200160002060000160008373ffffffffffffffffffffffffffffffffffffffff1673ffffffffffffffffffffffffffffffffffffffff16815260200190815260200160002060009054906101000a900460ff16905092915050565b600033905090565b60006200043083836200049660201b60201c565b6200048b57826000018290806001815401808255809150506001900390600052602060002001600090919091909150558260000180549050836001016000848152602001908152602001600020819055506001905062000490565b600090505b92915050565b600080836001016000848152602001908152602001600020541415905092915050565b600080fd5b600073ffffffffffffffffffffffffffffffffffffffff82169050919050565b6000620004eb82620004be565b9050919050565b620004fd81620004de565b81146200050957600080fd5b50565b6000815190506200051d81620004f2565b92915050565b6000806000806080858703121562000540576200053f620004b9565b5b600062000550878288016200050c565b945050602062000563878288016200050c565b935050604062000576878288016200050c565b925050606062000589878288016200050c565b91505092959194509250565b6000819050919050565b620005aa8162000595565b8114620005b657600080fd5b50565b600081519050620005ca816200059f565b92915050565b600060208284031215620005e957620005e8620004b9565b5b6000620005f984828501620005b9565b91505092915050565b61387980620006126000396000f3fe608060405234801561001057600080fd5b50600436106101fb5760003560e01c806398bd75721161011a578063ca15c873116100ad578063e15b3ad01161007c578063e15b3ad0146105f8578063e70542a814610628578063f14f4bbe14610646578063f6fdbf7e14610662578063f91649f014610692576101fb565b8063ca15c87314610574578063d4939609146105a4578063d547741f146105c0578063de452641146105dc576101fb565b8063ac407d02116100e9578063ac407d02146104ec578063bc590f2a1461051c578063c57893c21461053a578063c8fae5e814610558576101fb565b806398bd757214610452578063a217fddf1461046e578063a331e6081461048c578063abea5a6e146104bc576101fb565b806331b8a854116101925780636516dd45116101615780636516dd45146103a65780637caf1280146103c25780639010d07c146103f257806391d1485414610422576101fb565b806331b8a8541461033457806336568abe14610350578063474dfcd71461036c5780634a58dc1114610388576101fb565b806328d7e11a116101ce57806328d7e11a146102ae5780632e08793d146102ca5780632f2ff15d146102e857806330821b9c14610304576101fb565b806301ffc9a71461020057806304a0fb171461023057806310e0d51e1461024e578063248a9ca31461027e575b600080fd5b61021a6004803603810190610215919061242c565b6106ae565b6040516102279190612474565b60405180910390f35b610238610728565b60405161024591906124a8565b60405180910390f35b6102686004803603810190610263919061263f565b61074c565b60405161027591906126aa565b60405180910390f35b610298600480360381019061029391906126f1565b610787565b6040516102a591906124a8565b60405180910390f35b6102c860048036038101906102c3919061277c565b6107a6565b005b6102d261082b565b6040516102df91906127fa565b60405180910390f35b61030260048036038101906102fd9190612815565b610851565b005b61031e6004803603810190610319919061263f565b610872565b60405161032b91906128cc565b60405180910390f35b61034e600480360381019061034991906128e7565b6108b7565b005b61036a60048036038101906103659190612815565b61097b565b005b61038660048036038101906103819190612bc2565b6109fe565b005b610390610a0e565b60405161039d91906124a8565b60405180910390f35b6103c060048036038101906103bb9190612c69565b610a32565b005b6103dc60048036038101906103d7919061277c565b610ab8565b6040516103e99190612474565b60405180910390f35b61040c60048036038101906104079190612cbc565b610d0a565b60405161041991906127fa565b60405180910390f35b61043c60048036038101906104379190612815565b610d39565b6040516104499190612474565b60405180910390f35b61046c6004803603810190610467919061277c565b610da3565b005b610476610e28565b60405161048391906124a8565b60405180910390f35b6104a660048036038101906104a1919061263f565b610e2f565b6040516104b391906126aa565b60405180910390f35b6104d660048036038101906104d1919061263f565b610e6a565b6040516104e391906126aa565b60405180910390f35b6105066004803603810190610501919061263f565b610ea5565b60405161051391906126aa565b60405180910390f35b610524610ee0565b60405161053191906127fa565b60405180910390f35b610542610f06565b60405161054f9190612dba565b60405180910390f35b610572600480360381019061056d9190612ddc565b610f0b565b005b61058e600480360381019061058991906126f1565b610f46565b60405161059b91906126aa565b60405180910390f35b6105be60048036038101906105b99190612e2e565b610f6a565b005b6105da60048036038101906105d59190612815565b611039565b005b6105f660048036038101906105f19190612ddc565b61105a565b005b610612600480360381019061060d919061277c565b611112565b60405161061f9190612474565b60405180910390f35b6106306114e9565b60405161063d91906126aa565b60405180910390f35b610660600480360381019061065b9190612e9d565b6114ef565b005b61067c6004803603810190610677919061263f565b611605565b6040516106899190612474565b60405180910390f35b6106ac60048036038101906106a7919061277c565b61164a565b005b60007f5a05180f000000000000000000000000000000000000000000000000000000007bffffffffffffffffffffffffffffffffffffffffffffffffffffffff1916827bffffffffffffffffffffffffffffffffffffffffffffffffffffffff19161480610721575061072082611795565b5b9050919050565b7fdfbefbf47cfe66b701d8cfdbce1de81c821590819cb07e71cb01b6602fb0ee2781565b600860205281600052604060002081805160208101820180518482526020830160208501208183528095505050505050600091509150505481565b6000806000838152602001908152602001600020600101549050919050565b7fa535732178231314b57938e75e1be42a0d0fac039993e1fa0eb22dcb94bce1076107d08161180f565b6107db848484610ab8565b61081a576040517f08c379a000000000000000000000000000000000000000000000000000000000815260040161081190612f91565b60405180910390fd5b610825848484611823565b50505050565b600360009054906101000a900473ffffffffffffffffffffffffffffffffffffffff1681565b61085a82610787565b6108638161180f565b61086d83836119b6565b505050565b600b602052816000526040600020818051602081018201805184825260208301602085012081835280955050505050506000915091509054906101000a900460ff1681565b6108e87fdfbefbf47cfe66b701d8cfdbce1de81c821590819cb07e71cb01b6602fb0ee276108e36119ea565b610d39565b8061090357506109026000801b6108fd6119ea565b610d39565b5b610942576040517f08c379a000000000000000000000000000000000000000000000000000000000815260040161093990613023565b60405180910390fd5b82600660008481526020019081526020016000208260405161096491906130bd565b908152602001604051809103902081905550505050565b6109836119ea565b73ffffffffffffffffffffffffffffffffffffffff168173ffffffffffffffffffffffffffffffffffffffff16146109f0576040517f08c379a00000000000000000000000000000000000000000000000000000000081526004016109e790613146565b60405180910390fd5b6109fa82826119f2565b5050565b610a09838383611a26565b505050565b7fa535732178231314b57938e75e1be42a0d0fac039993e1fa0eb22dcb94bce10781565b8073ffffffffffffffffffffffffffffffffffffffff16639eb356cb8333866040518463ffffffff1660e01b8152600401610a6f93929190613166565b6020604051808303816000875af1158015610a8e573d6000803e3d6000fd5b505050506040513d601f19601f82011682018060405250810190610ab291906131c9565b50505050565b600060019050600a600084815260200190815260200160002082604051610adf91906130bd565b908152602001604051809103902060008573ffffffffffffffffffffffffffffffffffffffff1673ffffffffffffffffffffffffffffffffffffffff16815260200190815260200160002060009054906101000a900460ff16610b455760009050610d03565b60006006600085815260200190815260200160002083604051610b6891906130bd565b908152602001604051809103902054905060008114610d0157600260009054906101000a900473ffffffffffffffffffffffffffffffffffffffff1673ffffffffffffffffffffffffffffffffffffffff16638323406d8260026040518363ffffffff1660e01b8152600401610bdf92919061323b565b602060405180830381865afa158015610bfc573d6000803e3d6000fd5b505050506040513d601f19601f82011682018060405250810190610c2091906131c9565b8015610cf65750600260009054906101000a900473ffffffffffffffffffffffffffffffffffffffff1673ffffffffffffffffffffffffffffffffffffffff1663548dbc7a826040518263ffffffff1660e01b8152600401610c8291906126aa565b602060405180830381865afa158015610c9f573d6000803e3d6000fd5b505050506040513d601f19601f82011682018060405250810190610cc39190613279565b6009600086815260200190815260200160002084604051610ce491906130bd565b90815260200160405180910390205410155b15610d0057600091505b5b505b9392505050565b6000610d318260016000868152602001908152602001600020611a2b90919063ffffffff16565b905092915050565b600080600084815260200190815260200160002060000160008373ffffffffffffffffffffffffffffffffffffffff1673ffffffffffffffffffffffffffffffffffffffff16815260200190815260200160002060009054906101000a900460ff16905092915050565b7fa535732178231314b57938e75e1be42a0d0fac039993e1fa0eb22dcb94bce107610dcd8161180f565b610dd8848484611112565b610e17576040517f08c379a0000000000000000000000000000000000000000000000000000000008152600401610e0e906132f2565b60405180910390fd5b610e22848484611a45565b50505050565b6000801b81565b600760205281600052604060002081805160208101820180518482526020830160208501208183528095505050505050600091509150505481565b600660205281600052604060002081805160208101820180518482526020830160208501208183528095505050505050600091509150505481565b600960205281600052604060002081805160208101820180518482526020830160208501208183528095505050505050600091509150505481565b600460009054906101000a900473ffffffffffffffffffffffffffffffffffffffff1681565b606090565b6000801b610f188161180f565b610f427fa535732178231314b57938e75e1be42a0d0fac039993e1fa0eb22dcb94bce107836119f2565b5050565b6000610f6360016000848152602001908152602001600020611c7f565b9050919050565b7fa535732178231314b57938e75e1be42a0d0fac039993e1fa0eb22dcb94bce107610f948161180f565b83600b600085815260200190815260200160002083604051610fb691906130bd565b908152602001604051809103902060006101000a81548160ff02191690836005811115610fe657610fe5612855565b5b02179055506001600c60008581526020019081526020016000208360405161100e91906130bd565b908152602001604051809103902060006101000a81548160ff02191690831515021790555050505050565b61104282610787565b61104b8161180f565b61105583836119f2565b505050565b61108b7fdfbefbf47cfe66b701d8cfdbce1de81c821590819cb07e71cb01b6602fb0ee276110866119ea565b610d39565b806110a657506110a56000801b6110a06119ea565b610d39565b5b6110e5576040517f08c379a00000000000000000000000000000000000000000000000000000000081526004016110dc90613023565b60405180910390fd5b61110f7fa535732178231314b57938e75e1be42a0d0fac039993e1fa0eb22dcb94bce10782611c94565b50565b600060019050600a60008481526020019081526020016000208260405161113991906130bd565b908152602001604051809103902060008573ffffffffffffffffffffffffffffffffffffffff1673ffffffffffffffffffffffffffffffffffffffff16815260200190815260200160002060009054906101000a900460ff16156111a057600090506114e2565b600060066000858152602001908152602001600020836040516111c391906130bd565b9081526020016040518091039020549050600081146114e057600260009054906101000a900473ffffffffffffffffffffffffffffffffffffffff1673ffffffffffffffffffffffffffffffffffffffff16638323406d8260006040518363ffffffff1660e01b815260040161123a92919061334d565b602060405180830381865afa158015611257573d6000803e3d6000fd5b505050506040513d601f19601f8201168201806040525081019061127b91906131c9565b80156113515750600260009054906101000a900473ffffffffffffffffffffffffffffffffffffffff1673ffffffffffffffffffffffffffffffffffffffff1663c0eac886826040518263ffffffff1660e01b81526004016112dd91906126aa565b602060405180830381865afa1580156112fa573d6000803e3d6000fd5b505050506040513d601f19601f8201168201806040525081019061131e9190613279565b600860008681526020019081526020016000208460405161133f91906130bd565b90815260200160405180910390205410155b1561135f57600091506114df565b600260009054906101000a900473ffffffffffffffffffffffffffffffffffffffff1673ffffffffffffffffffffffffffffffffffffffff16638323406d8260016040518363ffffffff1660e01b81526004016113bd9291906133b1565b602060405180830381865afa1580156113da573d6000803e3d6000fd5b505050506040513d601f19601f820116820180604052508101906113fe91906131c9565b80156114d45750600260009054906101000a900473ffffffffffffffffffffffffffffffffffffffff1673ffffffffffffffffffffffffffffffffffffffff16630b4adfcf826040518263ffffffff1660e01b815260040161146091906126aa565b602060405180830381865afa15801561147d573d6000803e3d6000fd5b505050506040513d601f19601f820116820180604052508101906114a19190613279565b60076000868152602001908152602001600020846040516114c291906130bd565b90815260200160405180910390205410155b156114de57600091505b5b5b505b9392505050565b60055481565b6114fa858484610ab8565b611539576040517f08c379a000000000000000000000000000000000000000000000000000000000815260040161153090612f91565b60405180910390fd5b60008173ffffffffffffffffffffffffffffffffffffffff16639eb356cb8588886040518463ffffffff1660e01b815260040161157893929190613166565b6020604051808303816000875af1158015611597573d6000803e3d6000fd5b505050506040513d601f19601f820116820180604052508101906115bb91906131c9565b9050806115fd576040517f08c379a00000000000000000000000000000000000000000000000000000000081526004016115f490613426565b60405180910390fd5b505050505050565b600c602052816000526040600020818051602081018201805184825260208301602085012081835280955050505050506000915091509054906101000a900460ff1681565b7fa535732178231314b57938e75e1be42a0d0fac039993e1fa0eb22dcb94bce1076116748161180f565b61167f848484611ca2565b50505050565b61168f8282610d39565b61176157600160008084815260200190815260200160002060000160008373ffffffffffffffffffffffffffffffffffffffff1673ffffffffffffffffffffffffffffffffffffffff16815260200190815260200160002060006101000a81548160ff0219169083151502179055506117066119ea565b73ffffffffffffffffffffffffffffffffffffffff168173ffffffffffffffffffffffffffffffffffffffff16837f2f8788117e7eff1d82e926ec794901d17c78024a50270940304540a733656f0d60405160405180910390a45b5050565b600061178d836000018373ffffffffffffffffffffffffffffffffffffffff1660001b611d6b565b905092915050565b60007f7965db0b000000000000000000000000000000000000000000000000000000007bffffffffffffffffffffffffffffffffffffffffffffffffffffffff1916827bffffffffffffffffffffffffffffffffffffffffffffffffffffffff19161480611808575061180782611ddb565b5b9050919050565b6118208161181b6119ea565b611e45565b50565b61182e838383611ee2565b6000600a60008481526020019081526020016000208260405161185191906130bd565b908152602001604051809103902060008573ffffffffffffffffffffffffffffffffffffffff1673ffffffffffffffffffffffffffffffffffffffff16815260200190815260200160002060006101000a81548160ff021916908315150217905550600060086000848152602001908152602001600020826040516118d691906130bd565b908152602001604051809103902054116118f157600061192e565b6001600860008481526020019081526020016000208260405161191491906130bd565b90815260200160405180910390205461192d9190613475565b5b600860008481526020019081526020016000208260405161194f91906130bd565b908152602001604051809103902081905550600960008381526020019081526020016000208160405161198291906130bd565b908152602001604051809103902060008154809291906119a1906134a9565b91905055506119b1838383611ee7565b505050565b6119c08282611685565b6119e5816001600085815260200190815260200160002061176590919063ffffffff16565b505050565b600033905090565b6119fc8282611eec565b611a218160016000858152602001908152602001600020611fcd90919063ffffffff16565b505050565b505050565b6000611a3a8360000183611ffd565b60001c905092915050565b611a50838383612028565b6001600a600084815260200190815260200160002082604051611a7391906130bd565b908152602001604051809103902060008573ffffffffffffffffffffffffffffffffffffffff1673ffffffffffffffffffffffffffffffffffffffff16815260200190815260200160002060006101000a81548160ff0219169083151502179055506008600083815260200190815260200160002081604051611af691906130bd565b90815260200160405180910390206000815480929190611b15906134a9565b91905055506007600083815260200190815260200160002081604051611b3b91906130bd565b90815260200160405180910390206000815480929190611b5a906134a9565b91905055506000600360009054906101000a900473ffffffffffffffffffffffffffffffffffffffff1673ffffffffffffffffffffffffffffffffffffffff16635d248301846040518263ffffffff1660e01b8152600401611bbc91906126aa565b602060405180830381865afa158015611bd9573d6000803e3d6000fd5b505050506040513d601f19601f82011682018060405250810190611bfd9190613507565b90508073ffffffffffffffffffffffffffffffffffffffff1663fa9f34388486856040518463ffffffff1660e01b8152600401611c3c9392919061356d565b600060405180830381600087803b158015611c5657600080fd5b505af1158015611c6a573d6000803e3d6000fd5b50505050611c7984848461202d565b50505050565b6000611c8d82600001612032565b9050919050565b611c9e82826119b6565b5050565b611cad838383612043565b60006008600084815260200190815260200160002082604051611cd091906130bd565b90815260200160405180910390205411611ceb576000611d28565b60016008600084815260200190815260200160002082604051611d0e91906130bd565b908152602001604051809103902054611d279190613475565b5b6008600084815260200190815260200160002082604051611d4991906130bd565b908152602001604051809103902081905550611d66838383612048565b505050565b6000611d77838361204d565b611dd0578260000182908060018154018082558091505060019003906000526020600020016000909190919091505582600001805490508360010160008481526020019081526020016000208190555060019050611dd5565b600090505b92915050565b60007f01ffc9a7000000000000000000000000000000000000000000000000000000007bffffffffffffffffffffffffffffffffffffffffffffffffffffffff1916827bffffffffffffffffffffffffffffffffffffffffffffffffffffffff1916149050919050565b611e4f8282610d39565b611ede57611e748173ffffffffffffffffffffffffffffffffffffffff166014612070565b611e828360001c6020612070565b604051602001611e93929190613643565b6040516020818303038152906040526040517f08c379a0000000000000000000000000000000000000000000000000000000008152600401611ed5919061367d565b60405180910390fd5b5050565b505050565b505050565b611ef68282610d39565b15611fc957600080600084815260200190815260200160002060000160008373ffffffffffffffffffffffffffffffffffffffff1673ffffffffffffffffffffffffffffffffffffffff16815260200190815260200160002060006101000a81548160ff021916908315150217905550611f6e6119ea565b73ffffffffffffffffffffffffffffffffffffffff168173ffffffffffffffffffffffffffffffffffffffff16837ff6391f5c32d9c69d2a47ea670b442974b53935d1edc7fd64eb21e047a839171b60405160405180910390a45b5050565b6000611ff5836000018373ffffffffffffffffffffffffffffffffffffffff1660001b6122ac565b905092915050565b60008260000182815481106120155761201461369f565b5b9060005260206000200154905092915050565b505050565b505050565b600081600001805490509050919050565b505050565b505050565b600080836001016000848152602001908152602001600020541415905092915050565b60606000600283600261208391906136ce565b61208d9190613728565b67ffffffffffffffff8111156120a6576120a5612514565b5b6040519080825280601f01601f1916602001820160405280156120d85781602001600182028036833780820191505090505b5090507f3000000000000000000000000000000000000000000000000000000000000000816000815181106121105761210f61369f565b5b60200101907effffffffffffffffffffffffffffffffffffffffffffffffffffffffffffff1916908160001a9053507f7800000000000000000000000000000000000000000000000000000000000000816001815181106121745761217361369f565b5b60200101907effffffffffffffffffffffffffffffffffffffffffffffffffffffffffffff1916908160001a905350600060018460026121b491906136ce565b6121be9190613728565b90505b600181111561225e577f3031323334353637383961626364656600000000000000000000000000000000600f861660108110612200576121ff61369f565b5b1a60f81b8282815181106122175761221661369f565b5b60200101907effffffffffffffffffffffffffffffffffffffffffffffffffffffffffffff1916908160001a905350600485901c9450806122579061377e565b90506121c1565b50600084146122a2576040517f08c379a0000000000000000000000000000000000000000000000000000000008152600401612299906137f4565b60405180910390fd5b8091505092915050565b600080836001016000848152602001908152602001600020549050600081146123b45760006001826122de9190613475565b90506000600186600001805490506122f69190613475565b90508181146123655760008660000182815481106123175761231661369f565b5b906000526020600020015490508087600001848154811061233b5761233a61369f565b5b90600052602060002001819055508387600101600083815260200190815260200160002081905550505b8560000180548061237957612378613814565b5b6001900381819060005260206000200160009055905585600101600086815260200190815260200160002060009055600193505050506123ba565b60009150505b92915050565b6000604051905090565b600080fd5b600080fd5b60007fffffffff0000000000000000000000000000000000000000000000000000000082169050919050565b612409816123d4565b811461241457600080fd5b50565b60008135905061242681612400565b92915050565b600060208284031215612442576124416123ca565b5b600061245084828501612417565b91505092915050565b60008115159050919050565b61246e81612459565b82525050565b60006020820190506124896000830184612465565b92915050565b6000819050919050565b6124a28161248f565b82525050565b60006020820190506124bd6000830184612499565b92915050565b6000819050919050565b6124d6816124c3565b81146124e157600080fd5b50565b6000813590506124f3816124cd565b92915050565b600080fd5b600080fd5b6000601f19601f8301169050919050565b7f4e487b7100000000000000000000000000000000000000000000000000000000600052604160045260246000fd5b61254c82612503565b810181811067ffffffffffffffff8211171561256b5761256a612514565b5b80604052505050565b600061257e6123c0565b905061258a8282612543565b919050565b600067ffffffffffffffff8211156125aa576125a9612514565b5b6125b382612503565b9050602081019050919050565b82818337600083830152505050565b60006125e26125dd8461258f565b612574565b9050828152602081018484840111156125fe576125fd6124fe565b5b6126098482856125c0565b509392505050565b600082601f830112612626576126256124f9565b5b81356126368482602086016125cf565b91505092915050565b60008060408385031215612656576126556123ca565b5b6000612664858286016124e4565b925050602083013567ffffffffffffffff811115612685576126846123cf565b5b61269185828601612611565b9150509250929050565b6126a4816124c3565b82525050565b60006020820190506126bf600083018461269b565b92915050565b6126ce8161248f565b81146126d957600080fd5b50565b6000813590506126eb816126c5565b92915050565b600060208284031215612707576127066123ca565b5b6000612715848285016126dc565b91505092915050565b600073ffffffffffffffffffffffffffffffffffffffff82169050919050565b60006127498261271e565b9050919050565b6127598161273e565b811461276457600080fd5b50565b60008135905061277681612750565b92915050565b600080600060608486031215612795576127946123ca565b5b60006127a386828701612767565b93505060206127b4868287016124e4565b925050604084013567ffffffffffffffff8111156127d5576127d46123cf565b5b6127e186828701612611565b9150509250925092565b6127f48161273e565b82525050565b600060208201905061280f60008301846127eb565b92915050565b6000806040838503121561282c5761282b6123ca565b5b600061283a858286016126dc565b925050602061284b85828601612767565b9150509250929050565b7f4e487b7100000000000000000000000000000000000000000000000000000000600052602160045260246000fd5b6006811061289557612894612855565b5b50565b60008190506128a682612884565b919050565b60006128b682612898565b9050919050565b6128c6816128ab565b82525050565b60006020820190506128e160008301846128bd565b92915050565b600080600060608486031215612900576128ff6123ca565b5b600061290e868287016124e4565b935050602061291f868287016124e4565b925050604084013567ffffffffffffffff8111156129405761293f6123cf565b5b61294c86828701612611565b9150509250925092565b600067ffffffffffffffff82111561297157612970612514565b5b602082029050602081019050919050565b600080fd5b600061299a61299584612956565b612574565b905080838252602082019050602084028301858111156129bd576129bc612982565b5b835b81811015612a0457803567ffffffffffffffff8111156129e2576129e16124f9565b5b8086016129ef8982612611565b855260208501945050506020810190506129bf565b5050509392505050565b600082601f830112612a2357612a226124f9565b5b8135612a33848260208601612987565b91505092915050565b600067ffffffffffffffff821115612a5757612a56612514565b5b602082029050602081019050919050565b6000612a7b612a7684612a3c565b612574565b90508083825260208201905060208402830185811115612a9e57612a9d612982565b5b835b81811015612ac75780612ab38882612767565b845260208401935050602081019050612aa0565b5050509392505050565b600082601f830112612ae657612ae56124f9565b5b8135612af6848260208601612a68565b91505092915050565b600067ffffffffffffffff821115612b1a57612b19612514565b5b602082029050602081019050919050565b6000612b3e612b3984612aff565b612574565b90508083825260208201905060208402830185811115612b6157612b60612982565b5b835b81811015612b8a5780612b7688826124e4565b845260208401935050602081019050612b63565b5050509392505050565b600082601f830112612ba957612ba86124f9565b5b8135612bb9848260208601612b2b565b91505092915050565b600080600060608486031215612bdb57612bda6123ca565b5b600084013567ffffffffffffffff811115612bf957612bf86123cf565b5b612c0586828701612a0e565b935050602084013567ffffffffffffffff811115612c2657612c256123cf565b5b612c3286828701612ad1565b925050604084013567ffffffffffffffff811115612c5357612c526123cf565b5b612c5f86828701612b94565b9150509250925092565b600080600060608486031215612c8257612c816123ca565b5b6000612c90868287016124e4565b9350506020612ca1868287016124e4565b9250506040612cb286828701612767565b9150509250925092565b60008060408385031215612cd357612cd26123ca565b5b6000612ce1858286016126dc565b9250506020612cf2858286016124e4565b9150509250929050565b600081519050919050565b600082825260208201905092915050565b6000819050602082019050919050565b612d31816124c3565b82525050565b6000612d438383612d28565b60208301905092915050565b6000602082019050919050565b6000612d6782612cfc565b612d718185612d07565b9350612d7c83612d18565b8060005b83811015612dad578151612d948882612d37565b9750612d9f83612d4f565b925050600181019050612d80565b5085935050505092915050565b60006020820190508181036000830152612dd48184612d5c565b905092915050565b600060208284031215612df257612df16123ca565b5b6000612e0084828501612767565b91505092915050565b60068110612e1657600080fd5b50565b600081359050612e2881612e09565b92915050565b600080600060608486031215612e4757612e466123ca565b5b6000612e5586828701612e19565b9350506020612e66868287016124e4565b925050604084013567ffffffffffffffff811115612e8757612e866123cf565b5b612e9386828701612611565b9150509250925092565b600080600080600060a08688031215612eb957612eb86123ca565b5b6000612ec788828901612767565b9550506020612ed8888289016124e4565b9450506040612ee9888289016124e4565b935050606086013567ffffffffffffffff811115612f0a57612f096123cf565b5b612f1688828901612611565b9250506080612f2788828901612767565b9150509295509295909350565b600082825260208201905092915050565b7f706c617965722063616e6e6f742065786974207a6f6e65000000000000000000600082015250565b6000612f7b601783612f34565b9150612f8682612f45565b602082019050919050565b60006020820190508181036000830152612faa81612f6e565b9050919050565b7f47616d65204d6173746572206f7220466163746f727920726f6c65207265717560008201527f6972656400000000000000000000000000000000000000000000000000000000602082015250565b600061300d602483612f34565b915061301882612fb1565b604082019050919050565b6000602082019050818103600083015261303c81613000565b9050919050565b600081519050919050565b600081905092915050565b60005b8381101561307757808201518184015260208101905061305c565b83811115613086576000848401525b50505050565b600061309782613043565b6130a1818561304e565b93506130b1818560208601613059565b80840191505092915050565b60006130c9828461308c565b915081905092915050565b7f416363657373436f6e74726f6c3a2063616e206f6e6c792072656e6f756e636560008201527f20726f6c657320666f722073656c660000000000000000000000000000000000602082015250565b6000613130602f83612f34565b915061313b826130d4565b604082019050919050565b6000602082019050818103600083015261315f81613123565b9050919050565b600060608201905061317b600083018661269b565b61318860208301856127eb565b613195604083018461269b565b949350505050565b6131a681612459565b81146131b157600080fd5b50565b6000815190506131c38161319d565b92915050565b6000602082840312156131df576131de6123ca565b5b60006131ed848285016131b4565b91505092915050565b6000819050919050565b6000819050919050565b600061322561322061321b846131f6565b613200565b6124c3565b9050919050565b6132358161320a565b82525050565b6000604082019050613250600083018561269b565b61325d602083018461322c565b9392505050565b600081519050613273816124cd565b92915050565b60006020828403121561328f5761328e6123ca565b5b600061329d84828501613264565b91505092915050565b7f706c617965722063616e6e6f7420656e746572207a6f6e650000000000000000600082015250565b60006132dc601883612f34565b91506132e7826132a6565b602082019050919050565b6000602082019050818103600083015261330b816132cf565b9050919050565b6000819050919050565b600061333761333261332d84613312565b613200565b6124c3565b9050919050565b6133478161331c565b82525050565b6000604082019050613362600083018561269b565b61336f602083018461333e565b9392505050565b6000819050919050565b600061339b61339661339184613376565b613200565b6124c3565b9050919050565b6133ab81613380565b82525050565b60006040820190506133c6600083018561269b565b6133d360208301846133a2565b9392505050565b7f706c6179657220756e61626c6520746f20656e746572206f6e20657869740000600082015250565b6000613410601e83612f34565b915061341b826133da565b602082019050919050565b6000602082019050818103600083015261343f81613403565b9050919050565b7f4e487b7100000000000000000000000000000000000000000000000000000000600052601160045260246000fd5b6000613480826124c3565b915061348b836124c3565b92508282101561349e5761349d613446565b5b828203905092915050565b60006134b4826124c3565b91507fffffffffffffffffffffffffffffffffffffffffffffffffffffffffffffffff8214156134e7576134e6613446565b5b600182019050919050565b60008151905061350181612750565b92915050565b60006020828403121561351d5761351c6123ca565b5b600061352b848285016134f2565b91505092915050565b600061353f82613043565b6135498185612f34565b9350613559818560208601613059565b61356281612503565b840191505092915050565b6000606082019050613582600083018661269b565b61358f60208301856127eb565b81810360408301526135a18184613534565b9050949350505050565b7f416363657373436f6e74726f6c3a206163636f756e7420000000000000000000600082015250565b60006135e160178361304e565b91506135ec826135ab565b601782019050919050565b7f206973206d697373696e6720726f6c6520000000000000000000000000000000600082015250565b600061362d60118361304e565b9150613638826135f7565b601182019050919050565b600061364e826135d4565b915061365a828561308c565b915061366582613620565b9150613671828461308c565b91508190509392505050565b600060208201905081810360008301526136978184613534565b905092915050565b7f4e487b7100000000000000000000000000000000000000000000000000000000600052603260045260246000fd5b60006136d9826124c3565b91506136e4836124c3565b9250817fffffffffffffffffffffffffffffffffffffffffffffffffffffffffffffffff048311821515161561371d5761371c613446565b5b828202905092915050565b6000613733826124c3565b915061373e836124c3565b9250827fffffffffffffffffffffffffffffffffffffffffffffffffffffffffffffffff0382111561377357613772613446565b5b828201905092915050565b6000613789826124c3565b9150600082141561379d5761379c613446565b5b600182039050919050565b7f537472696e67733a20686578206c656e67746820696e73756666696369656e74600082015250565b60006137de602083612f34565b91506137e9826137a8565b602082019050919050565b6000602082019050818103600083015261380d816137d1565b9050919050565b7f4e487b7100000000000000000000000000000000000000000000000000000000600052603160045260246000fdfea26469706673582212209568c14a20300c18de2bc585f3e9fe7e53eaaf43c136f04b5d4d9b464ced978f64736f6c634300080b0033",
  "immutableReferences": {},
  "source": "// SPDX-License-Identifier: GPL-3.0\npragma solidity >=0.7.0 <0.9.0;\n\nimport \"@luckymachines/game-core/contracts/src/v0.0/PlayZone.sol\";\n\ncontract HexplorationZone is PlayZone {\n    enum Tile {\n        Default,\n        Jungle,\n        Plain,\n        Desert,\n        Mountain,\n        Base\n    }\n\n    // Mappings from game ID => zone alias\n    mapping(uint256 => mapping(string => Tile)) public tile;\n    mapping(uint256 => mapping(string => bool)) public tileIsSet;\n\n    constructor(\n        address _rulesetAddress,\n        address _gameRegistryAddress,\n        address adminAddress,\n        address factoryAddress\n    )\n        PlayZone(\n            _rulesetAddress,\n            _gameRegistryAddress,\n            adminAddress,\n            factoryAddress\n        )\n    {}\n\n    function setTile(\n        Tile _tile,\n        uint256 gameID,\n        string memory zoneAlias\n    ) public onlyRole(GAME_BOARD_ROLE) {\n        tile[gameID][zoneAlias] = _tile;\n        tileIsSet[gameID][zoneAlias] = true;\n    }\n}\n",
  "sourcePath": "/Users/maxmeier/Developer/Lucky Machines/hexploration/contracts/HexplorationZone.sol",
  "compiler": {
    "name": "solc",
    "version": "0.8.11+commit.d7f03943.Emscripten.clang"
  },
  "schemaVersion": "3.4.4",
  "updatedAt": "2022-05-02T05:10:56.354Z",
  "devdoc": {
    "kind": "dev",
    "methods": {
      "getRoleAdmin(bytes32)": {
        "details": "Returns the admin role that controls `role`. See {grantRole} and {revokeRole}. To change a role's admin, use {_setRoleAdmin}."
      },
      "getRoleMember(bytes32,uint256)": {
        "details": "Returns one of the accounts that have `role`. `index` must be a value between 0 and {getRoleMemberCount}, non-inclusive. Role bearers are not sorted in any particular way, and their ordering may change at any point. WARNING: When using {getRoleMember} and {getRoleMemberCount}, make sure you perform all queries on the same block. See the following https://forum.openzeppelin.com/t/iterating-over-elements-on-enumerableset-in-openzeppelin-contracts/2296[forum post] for more information."
      },
      "getRoleMemberCount(bytes32)": {
        "details": "Returns the number of accounts that have `role`. Can be used together with {getRoleMember} to enumerate all bearers of a role."
      },
      "grantRole(bytes32,address)": {
        "details": "Grants `role` to `account`. If `account` had not been already granted `role`, emits a {RoleGranted} event. Requirements: - the caller must have ``role``'s admin role."
      },
      "hasRole(bytes32,address)": {
        "details": "Returns `true` if `account` has been granted `role`."
      },
      "renounceRole(bytes32,address)": {
        "details": "Revokes `role` from the calling account. Roles are often managed via {grantRole} and {revokeRole}: this function's purpose is to provide a mechanism for accounts to lose their privileges if they are compromised (such as when a trusted device is misplaced). If the calling account had been revoked `role`, emits a {RoleRevoked} event. Requirements: - the caller must be `account`."
      },
      "revokeRole(bytes32,address)": {
        "details": "Revokes `role` from `account`. If `account` had been granted `role`, emits a {RoleRevoked} event. Requirements: - the caller must have ``role``'s admin role."
      },
      "supportsInterface(bytes4)": {
        "details": "See {IERC165-supportsInterface}."
      }
    },
    "version": 1
  },
  "userdoc": {
    "kind": "user",
    "methods": {},
    "version": 1
  }
}