{
  "contractName": "HexplorationController",
  "abi": [
    {
      "inputs": [
        {
          "internalType": "address",
          "name": "adminAddress",
          "type": "address"
        }
      ],
      "stateMutability": "nonpayable",
      "type": "constructor"
    },
    {
      "anonymous": false,
      "inputs": [
        {
          "indexed": true,
          "internalType": "bytes32",
          "name": "role",
          "type": "bytes32"
        },
        {
          "indexed": true,
          "internalType": "bytes32",
          "name": "previousAdminRole",
          "type": "bytes32"
        },
        {
          "indexed": true,
          "internalType": "bytes32",
          "name": "newAdminRole",
          "type": "bytes32"
        }
      ],
      "name": "RoleAdminChanged",
      "type": "event"
    },
    {
      "anonymous": false,
      "inputs": [
        {
          "indexed": true,
          "internalType": "bytes32",
          "name": "role",
          "type": "bytes32"
        },
        {
          "indexed": true,
          "internalType": "address",
          "name": "account",
          "type": "address"
        },
        {
          "indexed": true,
          "internalType": "address",
          "name": "sender",
          "type": "address"
        }
      ],
      "name": "RoleGranted",
      "type": "event"
    },
    {
      "anonymous": false,
      "inputs": [
        {
          "indexed": true,
          "internalType": "bytes32",
          "name": "role",
          "type": "bytes32"
        },
        {
          "indexed": true,
          "internalType": "address",
          "name": "account",
          "type": "address"
        },
        {
          "indexed": true,
          "internalType": "address",
          "name": "sender",
          "type": "address"
        }
      ],
      "name": "RoleRevoked",
      "type": "event"
    },
    {
      "inputs": [],
      "name": "DEFAULT_ADMIN_ROLE",
      "outputs": [
        {
          "internalType": "bytes32",
          "name": "",
          "type": "bytes32"
        }
      ],
      "stateMutability": "view",
      "type": "function"
    },
    {
      "inputs": [],
      "name": "KEEPER_ROLE",
      "outputs": [
        {
          "internalType": "bytes32",
          "name": "",
          "type": "bytes32"
        }
      ],
      "stateMutability": "view",
      "type": "function"
    },
    {
      "inputs": [
        {
          "internalType": "uint256",
          "name": "pathIndex",
          "type": "uint256"
        },
        {
          "internalType": "uint256",
          "name": "gameID",
          "type": "uint256"
        },
        {
          "internalType": "address",
          "name": "gameBoardAddress",
          "type": "address"
        }
      ],
      "name": "exitToPath",
      "outputs": [],
      "stateMutability": "nonpayable",
      "type": "function"
    },
    {
      "inputs": [
        {
          "internalType": "bytes32",
          "name": "role",
          "type": "bytes32"
        }
      ],
      "name": "getRoleAdmin",
      "outputs": [
        {
          "internalType": "bytes32",
          "name": "",
          "type": "bytes32"
        }
      ],
      "stateMutability": "view",
      "type": "function"
    },
    {
      "inputs": [
        {
          "internalType": "bytes32",
          "name": "role",
          "type": "bytes32"
        },
        {
          "internalType": "uint256",
          "name": "index",
          "type": "uint256"
        }
      ],
      "name": "getRoleMember",
      "outputs": [
        {
          "internalType": "address",
          "name": "",
          "type": "address"
        }
      ],
      "stateMutability": "view",
      "type": "function"
    },
    {
      "inputs": [
        {
          "internalType": "bytes32",
          "name": "role",
          "type": "bytes32"
        }
      ],
      "name": "getRoleMemberCount",
      "outputs": [
        {
          "internalType": "uint256",
          "name": "",
          "type": "uint256"
        }
      ],
      "stateMutability": "view",
      "type": "function"
    },
    {
      "inputs": [
        {
          "internalType": "bytes32",
          "name": "role",
          "type": "bytes32"
        },
        {
          "internalType": "address",
          "name": "account",
          "type": "address"
        }
      ],
      "name": "grantRole",
      "outputs": [],
      "stateMutability": "nonpayable",
      "type": "function"
    },
    {
      "inputs": [
        {
          "internalType": "bytes32",
          "name": "role",
          "type": "bytes32"
        },
        {
          "internalType": "address",
          "name": "account",
          "type": "address"
        }
      ],
      "name": "hasRole",
      "outputs": [
        {
          "internalType": "bool",
          "name": "",
          "type": "bool"
        }
      ],
      "stateMutability": "view",
      "type": "function"
    },
    {
      "inputs": [
        {
          "internalType": "bytes32",
          "name": "role",
          "type": "bytes32"
        },
        {
          "internalType": "address",
          "name": "account",
          "type": "address"
        }
      ],
      "name": "renounceRole",
      "outputs": [],
      "stateMutability": "nonpayable",
      "type": "function"
    },
    {
      "inputs": [
        {
          "internalType": "bytes32",
          "name": "role",
          "type": "bytes32"
        },
        {
          "internalType": "address",
          "name": "account",
          "type": "address"
        }
      ],
      "name": "revokeRole",
      "outputs": [],
      "stateMutability": "nonpayable",
      "type": "function"
    },
    {
      "inputs": [
        {
          "internalType": "bytes4",
          "name": "interfaceId",
          "type": "bytes4"
        }
      ],
      "name": "supportsInterface",
      "outputs": [
        {
          "internalType": "bool",
          "name": "",
          "type": "bool"
        }
      ],
      "stateMutability": "view",
      "type": "function"
    },
    {
      "inputs": [
        {
          "internalType": "address",
          "name": "keeperAddress",
          "type": "address"
        }
      ],
      "name": "addKeeper",
      "outputs": [],
      "stateMutability": "nonpayable",
      "type": "function"
    },
    {
      "inputs": [
        {
          "internalType": "address",
          "name": "boardAddress",
          "type": "address"
        }
      ],
      "name": "runBoardUpdate",
      "outputs": [],
      "stateMutability": "nonpayable",
      "type": "function"
    },
    {
      "inputs": [
        {
          "internalType": "uint256",
          "name": "gameID",
          "type": "uint256"
        },
        {
          "internalType": "address",
          "name": "boardAddress",
          "type": "address"
        }
      ],
      "name": "startGame",
      "outputs": [],
      "stateMutability": "nonpayable",
      "type": "function"
    },
    {
      "inputs": [
        {
          "internalType": "string[]",
          "name": "zonePath",
          "type": "string[]"
        },
        {
          "internalType": "uint256",
          "name": "gameID",
          "type": "uint256"
        },
        {
          "internalType": "address",
          "name": "boardAddress",
          "type": "address"
        }
      ],
      "name": "moveThroughPath",
      "outputs": [],
      "stateMutability": "nonpayable",
      "type": "function"
    },
    {
      "inputs": [
        {
          "internalType": "string",
          "name": "zoneChoice",
          "type": "string"
        },
        {
          "internalType": "uint256",
          "name": "gameID",
          "type": "uint256"
        },
        {
          "internalType": "address",
          "name": "boardAddress",
          "type": "address"
        }
      ],
      "name": "chooseLandingSite",
      "outputs": [],
      "stateMutability": "nonpayable",
      "type": "function"
    },
    {
      "inputs": [
        {
          "internalType": "address",
          "name": "gameRegistryAddress",
          "type": "address"
        },
        {
          "internalType": "address",
          "name": "boardAddress",
          "type": "address"
        }
      ],
      "name": "requestNewGame",
      "outputs": [],
      "stateMutability": "nonpayable",
      "type": "function"
    },
    {
      "inputs": [
        {
          "internalType": "address",
          "name": "gameRegistryAddress",
          "type": "address"
        },
        {
          "internalType": "address",
          "name": "boardAddress",
          "type": "address"
        }
      ],
      "name": "latestGame",
      "outputs": [
        {
          "internalType": "uint256",
          "name": "",
          "type": "uint256"
        }
      ],
      "stateMutability": "view",
      "type": "function"
    }
  ],
  "bytecode": "0x60806040523480156200001157600080fd5b5060405162001f3038038062001f30833981016040819052620000349162000215565b806200004b60008264010000000062000053810204565b505062000247565b6200006882826401000000006200006c810204565b5050565b62000086828264010000000062000f7c620000b382021704565b6000828152600160205260409020620000ae9082640100000000620010006200014f82021704565b505050565b620000c8828264010000000062000178810204565b6200006857600082815260208181526040808320600160a060020a03851684529091529020805460ff191660011790556200010b640100000000620001a1810204565b600160a060020a031681600160a060020a0316837f2f8788117e7eff1d82e926ec794901d17c78024a50270940304540a733656f0d60405160405180910390a45050565b60006200016f83600160a060020a038416640100000000620001a5810204565b90505b92915050565b600091825260208281526040808420600160a060020a0393909316845291905290205460ff1690565b3390565b6000620001bc8383640100000000620001fd810204565b620001f45750815460018181018455600084815260208082209093018490558454848252828601909352604090209190915562000172565b50600062000172565b60009081526001919091016020526040902054151590565b6000602082840312156200022857600080fd5b8151600160a060020a03811681146200024057600080fd5b9392505050565b611cd980620002576000396000f3fe608060405234801561001057600080fd5b506004361061011a5760003560e060020a900480637479c8fe116100a6578063a217fddf11610075578063a217fddf14610277578063c3ef70131461027f578063ca15c87314610292578063d547741f146102a5578063f3297df9146102b857600080fd5b80637479c8fe146102135780639010d07c1461022657806391d1485414610251578063975eef261461026457600080fd5b806336568abe116100ed57806336568abe146101b45780634032b72b146101c75780634bde808c146101da578063621cc08d146101ed578063661e05661461020057600080fd5b806301ffc9a71461011f578063248a9ca3146101475780632f2ff15d14610178578063364bc15a1461018d575b600080fd5b61013261012d36600461157a565b6102cb565b60405190151581526020015b60405180910390f35b61016a6101553660046115a4565b60009081526020819052604090206001015490565b60405190815260200161013e565b61018b6101863660046115e2565b61030f565b005b61016a7ffc8737ab85eb45125971625a9ebdb75cc78e01d5c1fa80c4c6e5203f47bc4fab81565b61018b6101c23660046115e2565b610339565b61018b6101d5366004611612565b6103cd565b61018b6101e83660046116f7565b610402565b61018b6101fb3660046115e2565b610694565b61018b61020e3660046117d3565b610ac3565b61018b610221366004611801565b610b3f565b61023961023436600461183a565b610bd6565b604051600160a060020a03909116815260200161013e565b61013261025f3660046115e2565b610bf5565b61016a6102723660046117d3565b610c1e565b61016a600081565b61018b61028d366004611612565b610ca5565b61016a6102a03660046115a4565b610cfe565b61018b6102b33660046115e2565b610d15565b61018b6102c636600461185c565b610d3a565b6000600160e060020a031982167f5a05180f000000000000000000000000000000000000000000000000000000001480610309575061030982611015565b92915050565b60008281526020819052604090206001015461032a8161107c565b6103348383611089565b505050565b600160a060020a03811633146103bf5760405160e560020a62461bcd02815260206004820152602f60248201527f416363657373436f6e74726f6c3a2063616e206f6e6c792072656e6f756e636560448201527f20726f6c657320666f722073656c66000000000000000000000000000000000060648201526084015b60405180910390fd5b6103c982826110ab565b5050565b60006103d88161107c565b6103c97ffc8737ab85eb45125971625a9ebdb75cc78e01d5c1fa80c4c6e5203f47bc4fab8361030f565b6000819050600081600160a060020a031663c06dea4e6040518163ffffffff1660e060020a028152600401602060405180830381865afa15801561044a573d6000803e3d6000fd5b505050506040513d601f19601f8201168201806040525081019061046e91906118ac565b6040517fb81f6e1800000000000000000000000000000000000000000000000000000000815260048101869052336024820152909150600160a060020a0382169063b81f6e1890604401602060405180830381865afa1580156104d5573d6000803e3d6000fd5b505050506040513d601f19601f820116820180604052508101906104f991906118c9565b6105485760405160e560020a62461bcd02815260206004820152601560248201527f706c61796572206e6f742072656769737465726564000000000000000000000060448201526064016103b6565b6000855167ffffffffffffffff8111156105645761056461162f565b60405190808252806020026020018201604052801561058d578160200160208202803683370190505b50905060005b865181101561060e5780156105b857806001146105b15760046105bb565b60026105bb565b60015b8282815181106105cd576105cd6118eb565b6020026020010190600a8111156105e6576105e6611904565b9081600a8111156105f9576105f9611904565b9052508061060681611936565b915050610593565b506040517f31e019f6000000000000000000000000000000000000000000000000000000008152600160a060020a038516906331e019f69061065a90899033908a9087906004016119ce565b600060405180830381600087803b15801561067457600080fd5b505af1158015610688573d6000803e3d6000fd5b50505050505050505050565b6040517f4e0e1a3e000000000000000000000000000000000000000000000000000000008152600481018390528190600160a060020a03821690634e0e1a3e90602401602060405180830381865afa1580156106f4573d6000803e3d6000fd5b505050506040513d601f19601f820116820180604052508101906107189190611a87565b156107685760405160e560020a62461bcd02815260206004820152601460248201527f67616d6520616c7265616479207374617274656400000000000000000000000060448201526064016103b6565b600081600160a060020a031663c06dea4e6040518163ffffffff1660e060020a028152600401602060405180830381865afa1580156107ab573d6000803e3d6000fd5b505050506040513d601f19601f820116820180604052508101906107cf91906118ac565b6040517f60c2050000000000000000000000000000000000000000000000000000000000815260048101869052909150600160a060020a038316906360c2050090602401600060405180830381600087803b15801561082d57600080fd5b505af1158015610841573d6000803e3d6000fd5b50506040517fb77ff4110000000000000000000000000000000000000000000000000000000081526004810187905260009250600160a060020a038416915063b77ff41190602401602060405180830381865afa1580156108a6573d6000803e3d6000fd5b505050506040513d601f19601f820116820180604052508101906108ca9190611a87565b6040517feb33983d00000000000000000000000000000000000000000000000000000000815260048101879052909150600090600160a060020a0385169063eb33983d90602401600060405180830381865afa15801561092e573d6000803e3d6000fd5b505050506040513d6000823e601f3d908101601f191682016040526109569190810190611aa0565b905060005b82811015610a75576000600160a060020a03851663f504325489610980856001611b17565b60405160e060020a63ffffffff851602815260048101929092526024820152604401602060405180830381865afa1580156109bf573d6000803e3d6000fd5b505050506040513d601f19601f820116820180604052508101906109e391906118ac565b6040517f98bd7572000000000000000000000000000000000000000000000000000000008152909150600160a060020a038716906398bd757290610a2f9084908c908890600401611b2f565b600060405180830381600087803b158015610a4957600080fd5b505af1158015610a5d573d6000803e3d6000fd5b50505050508080610a6d90611936565b91505061095b565b506040517f76a321c10000000000000000000000000000000000000000000000000000000081526002600482015260248101879052600160a060020a038516906376a321c19060440161065a565b6040517f72c6c6b6000000000000000000000000000000000000000000000000000000008152600160a060020a0383811660048301528291908216906372c6c6b690602401600060405180830381600087803b158015610b2257600080fd5b505af1158015610b36573d6000803e3d6000fd5b50505050505050565b6040517f9eb356cb0000000000000000000000000000000000000000000000000000000081526004810183905233602482015260448101849052600160a060020a03821690639eb356cb906064016020604051808303816000875af1158015610bac573d6000803e3d6000fd5b505050506040513d601f19601f82011682018060405250810190610bd091906118c9565b50505050565b6000828152600160205260408120610bee90836110cd565b9392505050565b600091825260208281526040808420600160a060020a0393909316845291905290205460ff1690565b6040517fb553910d000000000000000000000000000000000000000000000000000000008152600160a060020a0382811660048301526000919084169063b553910d90602401602060405180830381865afa158015610c81573d6000803e3d6000fd5b505050506040513d601f19601f82011682018060405250810190610bee9190611a87565b80600160a060020a031663d1e18d266040518163ffffffff1660e060020a028152600401600060405180830381600087803b158015610ce357600080fd5b505af1158015610cf7573d6000803e3d6000fd5b5050505050565b6000818152600160205260408120610309906110d9565b600082815260208190526040902060010154610d308161107c565b61033483836110ab565b6000819050600081600160a060020a031663c06dea4e6040518163ffffffff1660e060020a028152600401602060405180830381865afa158015610d82573d6000803e3d6000fd5b505050506040513d601f19601f82011682018060405250810190610da691906118ac565b6040517fb81f6e1800000000000000000000000000000000000000000000000000000000815260048101869052336024820152909150600160a060020a0382169063b81f6e1890604401602060405180830381865afa158015610e0d573d6000803e3d6000fd5b505050506040513d601f19601f82011682018060405250810190610e3191906118c9565b610e805760405160e560020a62461bcd02815260206004820152601560248201527f706c61796572206e6f742072656769737465726564000000000000000000000060448201526064016103b6565b6040517ff8430708000000000000000000000000000000000000000000000000000000008152600160a060020a0383169063f843070890610eca9088906005908990600401611b57565b600060405180830381600087803b158015610ee457600080fd5b505af1158015610ef8573d6000803e3d6000fd5b50506040517f9f82bcc0000000000000000000000000000000000000000000000000000000008152600160a060020a0385169250639f82bcc09150610f439088908890600401611b87565b600060405180830381600087803b158015610f5d57600080fd5b505af1158015610f71573d6000803e3d6000fd5b505050505050505050565b610f868282610bf5565b6103c957600082815260208181526040808320600160a060020a03851684529091529020805460ff19166001179055610fbc3390565b600160a060020a031681600160a060020a0316837f2f8788117e7eff1d82e926ec794901d17c78024a50270940304540a733656f0d60405160405180910390a45050565b6000610bee83600160a060020a0384166110e3565b6000600160e060020a031982167f7965db0b00000000000000000000000000000000000000000000000000000000148061030957507f01ffc9a700000000000000000000000000000000000000000000000000000000600160e060020a0319831614610309565b6110868133611132565b50565b6110938282610f7c565b60008281526001602052604090206103349082611000565b6110b58282611199565b600082815260016020526040902061033490826111fe565b6000610bee8383611213565b6000610309825490565b600081815260018301602052604081205461112a57508154600181810184556000848152602080822090930184905584548482528286019093526040902091909155610309565b506000610309565b61113c8282610bf5565b6103c95761115481600160a060020a0316601461123d565b61115f83602061123d565b604051602001611170929190611ba9565b60408051601f198184030181529082905260e560020a62461bcd0282526103b691600401611c2a565b6111a38282610bf5565b156103c957600082815260208181526040808320600160a060020a0385168085529252808320805460ff1916905551339285917ff6391f5c32d9c69d2a47ea670b442974b53935d1edc7fd64eb21e047a839171b9190a45050565b6000610bee83600160a060020a038416611487565b600082600001828154811061122a5761122a6118eb565b9060005260206000200154905092915050565b6060600061124c836002611c3d565b611257906002611b17565b67ffffffffffffffff81111561126f5761126f61162f565b6040519080825280601f01601f191660200182016040528015611299576020820181803683370190505b5090507f3000000000000000000000000000000000000000000000000000000000000000816000815181106112d0576112d06118eb565b60200101907effffffffffffffffffffffffffffffffffffffffffffffffffffffffffffff1916908160001a9053507f780000000000000000000000000000000000000000000000000000000000000081600181518110611333576113336118eb565b60200101907effffffffffffffffffffffffffffffffffffffffffffffffffffffffffffff1916908160001a905350600061136f846002611c3d565b61137a906001611b17565b90505b6001811115611435577f303132333435363738396162636465660000000000000000000000000000000085600f16601081106113bb576113bb6118eb565b1a7f0100000000000000000000000000000000000000000000000000000000000000028282815181106113f0576113f06118eb565b60200101907effffffffffffffffffffffffffffffffffffffffffffffffffffffffffffff1916908160001a90535060109094049361142e81611c5c565b905061137d565b508315610bee5760405160e560020a62461bcd02815260206004820181905260248201527f537472696e67733a20686578206c656e67746820696e73756666696369656e7460448201526064016103b6565b600081815260018301602052604081205480156115705760006114ab600183611c73565b85549091506000906114bf90600190611c73565b90508181146115245760008660000182815481106114df576114df6118eb565b9060005260206000200154905080876000018481548110611502576115026118eb565b6000918252602080832090910192909255918252600188019052604090208390555b855486908061153557611535611c8a565b600190038181906000526020600020016000905590558560010160008681526020019081526020016000206000905560019350505050610309565b6000915050610309565b60006020828403121561158c57600080fd5b8135600160e060020a031981168114610bee57600080fd5b6000602082840312156115b657600080fd5b5035919050565b600160a060020a038116811461108657600080fd5b80356115dd816115bd565b919050565b600080604083850312156115f557600080fd5b823591506020830135611607816115bd565b809150509250929050565b60006020828403121561162457600080fd5b8135610bee816115bd565b60e060020a634e487b7102600052604160045260246000fd5b604051601f8201601f1916810167ffffffffffffffff811182821017156116715761167161162f565b604052919050565b600067ffffffffffffffff8211156116935761169361162f565b50601f01601f191660200190565b600082601f8301126116b257600080fd5b81356116c56116c082611679565b611648565b8181528460208386010111156116da57600080fd5b816020850160208301376000918101602001919091529392505050565b60008060006060848603121561170c57600080fd5b833567ffffffffffffffff8082111561172457600080fd5b818601915086601f83011261173857600080fd5b813560208282111561174c5761174c61162f565b80820261175a828201611648565b928352848101820192828101908b85111561177457600080fd5b83870192505b848310156117b0578235868111156117925760008081fd5b6117a08d86838b01016116a1565b835250918301919083019061177a565b9850505087013594506117ca9250506040860190506115d2565b90509250925092565b600080604083850312156117e657600080fd5b82356117f1816115bd565b91506020830135611607816115bd565b60008060006060848603121561181657600080fd5b8335925060208401359150604084013561182f816115bd565b809150509250925092565b6000806040838503121561184d57600080fd5b50508035926020909101359150565b60008060006060848603121561187157600080fd5b833567ffffffffffffffff81111561188857600080fd5b611894868287016116a1565b93505060208401359150604084013561182f816115bd565b6000602082840312156118be57600080fd5b8151610bee816115bd565b6000602082840312156118db57600080fd5b81518015158114610bee57600080fd5b60e060020a634e487b7102600052603260045260246000fd5b60e060020a634e487b7102600052602160045260246000fd5b60e060020a634e487b7102600052601160045260246000fd5b600060001982141561194a5761194a61191d565b5060010190565b60005b8381101561196c578181015183820152602001611954565b83811115610bd05750506000910152565b60008151808452611995816020860160208601611951565b601f01601f19169290920160200192915050565b600b81106119ca5760e060020a634e487b7102600052602160045260246000fd5b9052565b6000608082016080835280875180835260a0850191506020925060a0838202860101838a0160005b83811015611a2457609f19888403018552611a1283835161197d565b948601949250908501906001016119f6565b5050600160a060020a0389168685015260408601889052858103606087015286518082529084019250905085830160005b82811015611a7857611a688483516119a9565b9284019290840190600101611a55565b50919998505050505050505050565b600060208284031215611a9957600080fd5b5051919050565b600060208284031215611ab257600080fd5b815167ffffffffffffffff811115611ac957600080fd5b8201601f81018413611ada57600080fd5b8051611ae86116c082611679565b818152856020838501011115611afd57600080fd5b611b0e826020830160208601611951565b95945050505050565b60008219821115611b2a57611b2a61191d565b500190565b600160a060020a0384168152826020820152606060408201526000611b0e606083018461197d565b606081526000611b6a606083018661197d565b9050611b7960208301856119a9565b826040830152949350505050565b604081526000611b9a604083018561197d565b90508260208301529392505050565b7f416363657373436f6e74726f6c3a206163636f756e7420000000000000000000815260008351611be1816017850160208801611951565b7f206973206d697373696e6720726f6c65200000000000000000000000000000006017918401918201528351611c1e816028840160208801611951565b01602801949350505050565b602081526000610bee602083018461197d565b6000816000190483118215151615611c5757611c5761191d565b500290565b600081611c6b57611c6b61191d565b506000190190565b600082821015611c8557611c8561191d565b500390565b60e060020a634e487b7102600052603160045260246000fdfea2646970667358221220377888775919c147bad48c8b1d197f676c345821a93ba0c062137cdad8cee72264736f6c634300080b0033",
  "immutableReferences": {},
  "source": "// SPDX-License-Identifier: GPL-3.0\npragma solidity >=0.7.0 <0.9.0;\n\nimport \"@luckymachines/game-core/contracts/src/v0.0/GameController.sol\";\nimport \"./HexplorationBoard.sol\";\nimport \"./HexplorationZone.sol\";\n\ncontract HexplorationController is GameController {\n    // functions are meant to be called directly by players by default\n    // we are adding the ability of a Controller Admin or Keeper to\n    // execute the game aspects not directly controlled by players\n    bytes32 public constant KEEPER_ROLE = keccak256(\"KEEPER_ROLE\");\n\n    // TODO:\n    // Connect to Chainlink VRF for random seeds when needed\n    // submit move + space choice\n    // use / swap item\n\n    modifier onlyAdminKeeper() {\n        require(\n            hasRole(DEFAULT_ADMIN_ROLE, _msgSender()) ||\n                hasRole(KEEPER_ROLE, _msgSender()),\n            \"Admin or Keeper role required\"\n        );\n        _;\n    }\n\n    constructor(address adminAddress) GameController(adminAddress) {}\n\n    function addKeeper(address keeperAddress)\n        public\n        onlyRole(DEFAULT_ADMIN_ROLE)\n    {\n        grantRole(KEEPER_ROLE, keeperAddress);\n    }\n\n    // Admin or Keeper Interactions\n    function runBoardUpdate(address boardAddress) public {\n        HexplorationBoard(boardAddress).runUpdate();\n    }\n\n    function startGame(uint256 gameID, address boardAddress) public {\n        HexplorationBoard board = HexplorationBoard(boardAddress);\n        require(board.gameState(gameID) == 0, \"game already started\");\n\n        PlayerRegistry pr = PlayerRegistry(board.prAddress());\n        board.lockRegistration(gameID);\n        uint256 totalRegistrations = pr.totalRegistrations(gameID);\n        string memory startZone = board.initialPlayZone(gameID);\n        for (uint256 i = 0; i < totalRegistrations; i++) {\n            address playerAddress = pr.playerAddress(gameID, i + 1);\n            board.enterPlayer(playerAddress, gameID, startZone);\n        }\n        // set game to initialized\n        board.setGameState(2, gameID);\n    }\n\n    //Player Interactions\n    function moveThroughPath(\n        string[] memory zonePath,\n        uint256 gameID,\n        address boardAddress\n    ) public {\n        // TODO:\n        // verify move is valid\n        // pick tiles from deck\n        HexplorationBoard board = HexplorationBoard(boardAddress);\n        PlayerRegistry pr = PlayerRegistry(board.prAddress());\n        require(pr.isRegistered(gameID, msg.sender), \"player not registered\");\n\n        HexplorationZone.Tile[] memory tiles = new HexplorationZone.Tile[](\n            zonePath.length\n        );\n        for (uint256 i = 0; i < zonePath.length; i++) {\n            tiles[i] = i == 0 ? HexplorationZone.Tile.Jungle : i == 1\n                ? HexplorationZone.Tile.Plains\n                : HexplorationZone.Tile.Mountain;\n        }\n\n        HexplorationBoard(boardAddress).moveThroughPath(\n            zonePath,\n            msg.sender,\n            gameID,\n            tiles\n        );\n    }\n\n    function chooseLandingSite(\n        string memory zoneChoice,\n        uint256 gameID,\n        address boardAddress\n    ) public {\n        // TODO: decide if this is done by a leader or automatically\n        // game will begin and registration locked after this...\n        HexplorationBoard board = HexplorationBoard(boardAddress);\n        PlayerRegistry pr = PlayerRegistry(board.prAddress());\n        require(pr.isRegistered(gameID, msg.sender), \"player not registered\");\n\n        board.enableZone(zoneChoice, HexplorationZone.Tile.LandingSite, gameID);\n        // set landing site at space on board\n        board.setInitialPlayZone(zoneChoice, gameID);\n    }\n\n    // TODO: limit this to authorized game starters\n    function requestNewGame(address gameRegistryAddress, address boardAddress)\n        public\n    {\n        HexplorationBoard board = HexplorationBoard(boardAddress);\n        board.requestNewGame(gameRegistryAddress);\n    }\n\n    function latestGame(address gameRegistryAddress, address boardAddress)\n        public\n        view\n        returns (uint256)\n    {\n        return GameRegistry(gameRegistryAddress).latestGame(boardAddress);\n    }\n}\n",
  "sourcePath": "/Users/maxmeier/Developer/Lucky Machines/hexploration/contracts/HexplorationController.sol",
  "compiler": {
    "name": "solc",
    "version": "0.8.11+commit.d7f03943.Emscripten.clang"
  },
  "schemaVersion": "3.4.4",
  "updatedAt": "2022-05-14T19:28:36.721Z",
  "devdoc": {
    "kind": "dev",
    "methods": {
      "getRoleAdmin(bytes32)": {
        "details": "Returns the admin role that controls `role`. See {grantRole} and {revokeRole}. To change a role's admin, use {_setRoleAdmin}."
      },
      "getRoleMember(bytes32,uint256)": {
        "details": "Returns one of the accounts that have `role`. `index` must be a value between 0 and {getRoleMemberCount}, non-inclusive. Role bearers are not sorted in any particular way, and their ordering may change at any point. WARNING: When using {getRoleMember} and {getRoleMemberCount}, make sure you perform all queries on the same block. See the following https://forum.openzeppelin.com/t/iterating-over-elements-on-enumerableset-in-openzeppelin-contracts/2296[forum post] for more information."
      },
      "getRoleMemberCount(bytes32)": {
        "details": "Returns the number of accounts that have `role`. Can be used together with {getRoleMember} to enumerate all bearers of a role."
      },
      "grantRole(bytes32,address)": {
        "details": "Grants `role` to `account`. If `account` had not been already granted `role`, emits a {RoleGranted} event. Requirements: - the caller must have ``role``'s admin role."
      },
      "hasRole(bytes32,address)": {
        "details": "Returns `true` if `account` has been granted `role`."
      },
      "renounceRole(bytes32,address)": {
        "details": "Revokes `role` from the calling account. Roles are often managed via {grantRole} and {revokeRole}: this function's purpose is to provide a mechanism for accounts to lose their privileges if they are compromised (such as when a trusted device is misplaced). If the calling account had been revoked `role`, emits a {RoleRevoked} event. Requirements: - the caller must be `account`."
      },
      "revokeRole(bytes32,address)": {
        "details": "Revokes `role` from `account`. If `account` had been granted `role`, emits a {RoleRevoked} event. Requirements: - the caller must have ``role``'s admin role."
      },
      "supportsInterface(bytes4)": {
        "details": "See {IERC165-supportsInterface}."
      }
    },
    "version": 1
  },
  "userdoc": {
    "kind": "user",
    "methods": {},
    "version": 1
  }
}