{
  "contractName": "HexplorationGameplay",
  "abi": [
    {
      "inputs": [],
      "stateMutability": "nonpayable",
      "type": "constructor"
    },
    {
      "anonymous": false,
      "inputs": [
        {
          "indexed": true,
          "internalType": "bytes32",
          "name": "role",
          "type": "bytes32"
        },
        {
          "indexed": true,
          "internalType": "bytes32",
          "name": "previousAdminRole",
          "type": "bytes32"
        },
        {
          "indexed": true,
          "internalType": "bytes32",
          "name": "newAdminRole",
          "type": "bytes32"
        }
      ],
      "name": "RoleAdminChanged",
      "type": "event"
    },
    {
      "anonymous": false,
      "inputs": [
        {
          "indexed": true,
          "internalType": "bytes32",
          "name": "role",
          "type": "bytes32"
        },
        {
          "indexed": true,
          "internalType": "address",
          "name": "account",
          "type": "address"
        },
        {
          "indexed": true,
          "internalType": "address",
          "name": "sender",
          "type": "address"
        }
      ],
      "name": "RoleGranted",
      "type": "event"
    },
    {
      "anonymous": false,
      "inputs": [
        {
          "indexed": true,
          "internalType": "bytes32",
          "name": "role",
          "type": "bytes32"
        },
        {
          "indexed": true,
          "internalType": "address",
          "name": "account",
          "type": "address"
        },
        {
          "indexed": true,
          "internalType": "address",
          "name": "sender",
          "type": "address"
        }
      ],
      "name": "RoleRevoked",
      "type": "event"
    },
    {
      "inputs": [],
      "name": "DEFAULT_ADMIN_ROLE",
      "outputs": [
        {
          "internalType": "bytes32",
          "name": "",
          "type": "bytes32"
        }
      ],
      "stateMutability": "view",
      "type": "function",
      "constant": true
    },
    {
      "inputs": [],
      "name": "VERIFIED_CONTROLLER_ROLE",
      "outputs": [
        {
          "internalType": "bytes32",
          "name": "",
          "type": "bytes32"
        }
      ],
      "stateMutability": "view",
      "type": "function",
      "constant": true
    },
    {
      "inputs": [
        {
          "internalType": "bytes32",
          "name": "role",
          "type": "bytes32"
        }
      ],
      "name": "getRoleAdmin",
      "outputs": [
        {
          "internalType": "bytes32",
          "name": "",
          "type": "bytes32"
        }
      ],
      "stateMutability": "view",
      "type": "function",
      "constant": true
    },
    {
      "inputs": [
        {
          "internalType": "bytes32",
          "name": "role",
          "type": "bytes32"
        },
        {
          "internalType": "uint256",
          "name": "index",
          "type": "uint256"
        }
      ],
      "name": "getRoleMember",
      "outputs": [
        {
          "internalType": "address",
          "name": "",
          "type": "address"
        }
      ],
      "stateMutability": "view",
      "type": "function",
      "constant": true
    },
    {
      "inputs": [
        {
          "internalType": "bytes32",
          "name": "role",
          "type": "bytes32"
        }
      ],
      "name": "getRoleMemberCount",
      "outputs": [
        {
          "internalType": "uint256",
          "name": "",
          "type": "uint256"
        }
      ],
      "stateMutability": "view",
      "type": "function",
      "constant": true
    },
    {
      "inputs": [
        {
          "internalType": "bytes32",
          "name": "role",
          "type": "bytes32"
        },
        {
          "internalType": "address",
          "name": "account",
          "type": "address"
        }
      ],
      "name": "grantRole",
      "outputs": [],
      "stateMutability": "nonpayable",
      "type": "function"
    },
    {
      "inputs": [
        {
          "internalType": "bytes32",
          "name": "role",
          "type": "bytes32"
        },
        {
          "internalType": "address",
          "name": "account",
          "type": "address"
        }
      ],
      "name": "hasRole",
      "outputs": [
        {
          "internalType": "bool",
          "name": "",
          "type": "bool"
        }
      ],
      "stateMutability": "view",
      "type": "function",
      "constant": true
    },
    {
      "inputs": [
        {
          "internalType": "bytes32",
          "name": "role",
          "type": "bytes32"
        },
        {
          "internalType": "address",
          "name": "account",
          "type": "address"
        }
      ],
      "name": "renounceRole",
      "outputs": [],
      "stateMutability": "nonpayable",
      "type": "function"
    },
    {
      "inputs": [
        {
          "internalType": "bytes32",
          "name": "role",
          "type": "bytes32"
        },
        {
          "internalType": "address",
          "name": "account",
          "type": "address"
        }
      ],
      "name": "revokeRole",
      "outputs": [],
      "stateMutability": "nonpayable",
      "type": "function"
    },
    {
      "inputs": [
        {
          "internalType": "bytes4",
          "name": "interfaceId",
          "type": "bytes4"
        }
      ],
      "name": "supportsInterface",
      "outputs": [
        {
          "internalType": "bool",
          "name": "",
          "type": "bool"
        }
      ],
      "stateMutability": "view",
      "type": "function",
      "constant": true
    },
    {
      "inputs": [
        {
          "internalType": "address",
          "name": "vcAddress",
          "type": "address"
        }
      ],
      "name": "addVerifiedController",
      "outputs": [],
      "stateMutability": "nonpayable",
      "type": "function"
    },
    {
      "inputs": [
        {
          "internalType": "address",
          "name": "queueContract",
          "type": "address"
        }
      ],
      "name": "setQueue",
      "outputs": [],
      "stateMutability": "nonpayable",
      "type": "function"
    },
    {
      "inputs": [
        {
          "internalType": "uint256",
          "name": "queueID",
          "type": "uint256"
        }
      ],
      "name": "shouldContinueProcessing",
      "outputs": [
        {
          "internalType": "bool",
          "name": "",
          "type": "bool"
        },
        {
          "internalType": "uint256[]",
          "name": "",
          "type": "uint256[]"
        },
        {
          "internalType": "string[]",
          "name": "",
          "type": "string[]"
        }
      ],
      "stateMutability": "view",
      "type": "function",
      "constant": true
    },
    {
      "inputs": [
        {
          "internalType": "uint256",
          "name": "queueID",
          "type": "uint256"
        },
        {
          "internalType": "uint256[]",
          "name": "intUpdates",
          "type": "uint256[]"
        },
        {
          "internalType": "string[]",
          "name": "stringUpdates",
          "type": "string[]"
        }
      ],
      "name": "postProcessedGameState",
      "outputs": [],
      "stateMutability": "nonpayable",
      "type": "function"
    }
  ],
  "bytecode": "0x60806040523480156200001157600080fd5b506200003a60006200002b64010000000062000040810204565b64010000000062000044810204565b62000202565b3390565b6200005982826401000000006200005d810204565b5050565b620000778282640100000000620008ae620000a482021704565b60008281526001602052604090206200009f9082640100000000620009326200014082021704565b505050565b620000b9828264010000000062000169810204565b6200005957600082815260208181526040808320600160a060020a03851684529091529020805460ff19166001179055620000fc64010000000062000040810204565b600160a060020a031681600160a060020a0316837f2f8788117e7eff1d82e926ec794901d17c78024a50270940304540a733656f0d60405160405180910390a45050565b60006200016083600160a060020a03841664010000000062000192810204565b90505b92915050565b600091825260208281526040808420600160a060020a0393909316845291905290205460ff1690565b6000620001a98383640100000000620001ea810204565b620001e15750815460018181018455600084815260208082209093018490558454848252828601909352604090209190915562000163565b50600062000163565b60009081526001919091016020526040902054151590565b611bb880620002126000396000f3fe608060405234801561001057600080fd5b5060043610610107576000357c010000000000000000000000000000000000000000000000000000000090048063a217fddf116100a9578063d4f5b15211610083578063d4f5b1521461021d578063d547741f14610230578063f3ee7e2c14610243578063f83badd71461025657600080fd5b8063a217fddf146101e0578063c9346832146101e8578063ca15c8731461020a57600080fd5b80632f2ff15d116100e55780632f2ff15d1461017a57806336568abe1461018f5780639010d07c146101a257806391d14854146101cd57600080fd5b806301ffc9a71461010c5780631c834a7f14610134578063248a9ca314610157575b600080fd5b61011f61011a366004611585565b610269565b60405190151581526020015b60405180910390f35b610149600080516020611b6383398151915281565b60405190815260200161012b565b6101496101653660046115af565b60009081526020819052604090206001015490565b61018d6101883660046115e4565b6102ad565b005b61018d61019d3660046115e4565b6102d7565b6101b56101b0366004611610565b610382565b604051600160a060020a03909116815260200161012b565b61011f6101db3660046115e4565b6103a1565b610149600081565b6101fb6101f63660046115af565b6103ca565b60405161012b93929190611720565b6101496102183660046115af565b61053e565b61018d61022b366004611757565b610555565b61018d61023e3660046115e4565b610578565b61018d610251366004611757565b61059d565b61018d6102643660046118c6565b6105e8565b6000600160e060020a031982167f5a05180f0000000000000000000000000000000000000000000000000000000014806102a757506102a782610947565b92915050565b6000828152602081905260409020600101546102c8816109ae565b6102d283836109bb565b505050565b600160a060020a0381163314610374576040517f08c379a000000000000000000000000000000000000000000000000000000000815260206004820152602f60248201527f416363657373436f6e74726f6c3a2063616e206f6e6c792072656e6f756e636560448201527f20726f6c657320666f722073656c66000000000000000000000000000000000060648201526084015b60405180910390fd5b61037e82826109dd565b5050565b600082815260016020526040812061039a90836109ff565b9392505050565b600091825260208281526040808420600160a060020a0393909316845291905290205460ff1690565b6000606080826002805460405160e060020a63b1fb640502815260048101889052600160a060020a039091169063b1fb640590602401602060405180830381865afa15801561041d573d6000803e3d6000fd5b505050506040513d601f19601f8201168201806040525081019061044191906119a0565b600581111561045257610452611987565b14806104dd575060025460405160e060020a63b1fb640502815260048101879052600391600160a060020a03169063b1fb640590602401602060405180830381865afa1580156104a6573d6000803e3d6000fd5b505050506040513d601f19601f820116820180604052508101906104ca91906119a0565b60058111156104db576104db611987565b145b905060608082156104fa576104f187610a0b565b92509050610532565b506040805160008082526020820181815282840190935290919061052e565b60608152602001906001900390816105195790505b5091505b91969195509350915050565b60008181526001602052604081206102a790610b10565b6000610560816109ae565b61037e600080516020611b63833981519152836102ad565b600082815260208190526040902060010154610593816109ae565b6102d283836109dd565b60006105a8816109ae565b6002805473ffffffffffffffffffffffffffffffffffffffff1916600160a060020a03841617905561037e600080516020611b6383398151915283610b1a565b600080516020611b63833981519152610600816109ae565b60025460405160e060020a63b1fb640502815260048101869052600091600160a060020a03169063b1fb640590602401602060405180830381865afa15801561064d573d6000803e3d6000fd5b505050506040513d601f19601f8201168201806040525081019061067191906119a0565b90506000600282600581111561068957610689611987565b141561078f576002546040517f1826d842000000000000000000000000000000000000000000000000000000008152600160a060020a0390911690631826d842906106da90889088906004016119c1565b600060405180830381600087803b1580156106f457600080fd5b505af1158015610708573d6000803e3d6000fd5b50506002546040517f04ac8fee000000000000000000000000000000000000000000000000000000008152600160a060020a0390911692506304ac8fee9150610758906003908a906004016119ef565b600060405180830381600087803b15801561077257600080fd5b505af1158015610786573d6000803e3d6000fd5b505050506108a6565b60038260058111156107a3576107a3611987565b14156108a6576002546040517f1826d842000000000000000000000000000000000000000000000000000000008152600160a060020a0390911690631826d842906107f490889088906004016119c1565b600060405180830381600087803b15801561080e57600080fd5b505af1158015610822573d6000803e3d6000fd5b50506002546040517f8e6e1d89000000000000000000000000000000000000000000000000000000008152600481018a90528415156024820152600160a060020a039091169250638e6e1d899150604401600060405180830381600087803b15801561088d57600080fd5b505af11580156108a1573d6000803e3d6000fd5b505050505b505050505050565b6108b882826103a1565b61037e57600082815260208181526040808320600160a060020a03851684529091529020805460ff191660011790556108ee3390565b600160a060020a031681600160a060020a0316837f2f8788117e7eff1d82e926ec794901d17c78024a50270940304540a733656f0d60405160405180910390a45050565b600061039a83600160a060020a038416610b24565b6000600160e060020a031982167f7965db0b0000000000000000000000000000000000000000000000000000000014806102a757507f01ffc9a700000000000000000000000000000000000000000000000000000000600160e060020a03198316146102a7565b6109b88133610b73565b50565b6109c582826108ae565b60008281526001602052604090206102d29082610932565b6109e78282610bf1565b60008281526001602052604090206102d29082610c56565b600061039a8383610c6b565b60025460405160e060020a63b1fb6405028152600481018390526060918291600091600160a060020a03169063b1fb640590602401602060405180830381865afa158015610a5d573d6000803e3d6000fd5b505050506040513d601f19601f82011682018060405250810190610a8191906119a0565b90506002816005811115610a9757610a97611987565b1415610ab057610aa684610c95565b9093509150610b0a565b6003816005811115610ac457610ac4611987565b1415610ad357610aa684610f72565b60408051600080825260208201818152828401909352909450610b06565b6060815260200190600190039081610af15790505b5091505b50915091565b60006102a7825490565b61037e82826109bb565b6000818152600183016020526040812054610b6b575081546001818101845560008481526020808220909301849055845484825282860190935260409020919091556102a7565b5060006102a7565b610b7d82826103a1565b61037e57610b9581600160a060020a03166014611231565b610ba0836020611231565b604051602001610bb1929190611a1e565b60408051601f19818403018152908290527f08c379a000000000000000000000000000000000000000000000000000000000825261036b91600401611a9f565b610bfb82826103a1565b1561037e57600082815260208181526040808320600160a060020a0385168085529252808320805460ff1916905551339285917ff6391f5c32d9c69d2a47ea670b442974b53935d1edc7fd64eb21e047a839171b9190a45050565b600061039a83600160a060020a038416611492565b6000826000018281548110610c8257610c82611ab2565b9060005260206000200154905092915050565b6060806001808080806000610cab826003611ae4565b610cb6846003611ae4565b85610cc2886004611ae4565b610ccd8a6002611ae4565b610cd8906005611b03565b610ce29190611b03565b610cec9190611b03565b610cf69190611b03565b610d009190611b03565b905060008167ffffffffffffffff811115610d1d57610d1d611772565b604051908082528060200260200182016040528015610d46578160200160208202803683370190505b509050600181600081518110610d5e57610d5e611ab2565b602002602001018181525050600281600181518110610d7f57610d7f611ab2565b602002602001018181525050600381600281518110610da057610da0611ab2565b602002602001018181525050600481600381518110610dc157610dc1611ab2565b602090810291909101015260076000610ddb856002611ae4565b8688610de7858d611ae4565b610df2906001611b03565b610dfc9190611b03565b610e069190611b03565b610e109190611b03565b905060008167ffffffffffffffff811115610e2d57610e2d611772565b604051908082528060200260200182016040528015610e6057816020015b6060815260200190600190039081610e4b5790505b5090506040518060400160405280600981526020017f736f6d657468696e67000000000000000000000000000000000000000000000081525081600081518110610eac57610eac611ab2565b60200260200101819052506040518060400160405280600281526020017f746f00000000000000000000000000000000000000000000000000000000000081525081600181518110610f0057610f00611ab2565b60200260200101819052506040518060400160405280600481526020017f706f73740000000000000000000000000000000000000000000000000000000081525081600281518110610f5457610f54611ab2565b6020908102919091010152929c929b50919950505050505050505050565b6060806001808080806000610f88826003611ae4565b610f93846003611ae4565b85610f9f886004611ae4565b610faa8a6002611ae4565b610fb5906005611b03565b610fbf9190611b03565b610fc99190611b03565b610fd39190611b03565b610fdd9190611b03565b905060008167ffffffffffffffff811115610ffa57610ffa611772565b604051908082528060200260200182016040528015611023578160200160208202803683370190505b50905060058160008151811061103b5761103b611ab2565b60200260200101818152505060068160018151811061105c5761105c611ab2565b60200260200101818152505060078160028151811061107d5761107d611ab2565b60200260200101818152505060088160038151811061109e5761109e611ab2565b6020908102919091010152600760006110b8856002611ae4565b86886110c4858d611ae4565b6110cf906001611b03565b6110d99190611b03565b6110e39190611b03565b6110ed9190611b03565b905060008167ffffffffffffffff81111561110a5761110a611772565b60405190808252806020026020018201604052801561113d57816020015b60608152602001906001900390816111285790505b5090506040518060400160405280600781526020017f706c6179696e67000000000000000000000000000000000000000000000000008152508160008151811061118957611189611ab2565b60200260200101819052506040518060400160405280600781526020017f7468726f75676800000000000000000000000000000000000000000000000000815250816001815181106111dd576111dd611ab2565b60200260200101819052506040518060400160405280600481526020017f67616d650000000000000000000000000000000000000000000000000000000081525081600281518110610f5457610f54611ab2565b60606000611240836002611ae4565b61124b906002611b03565b67ffffffffffffffff81111561126357611263611772565b6040519080825280601f01601f19166020018201604052801561128d576020820181803683370190505b5090507f3000000000000000000000000000000000000000000000000000000000000000816000815181106112c4576112c4611ab2565b60200101907effffffffffffffffffffffffffffffffffffffffffffffffffffffffffffff1916908160001a9053507f78000000000000000000000000000000000000000000000000000000000000008160018151811061132757611327611ab2565b60200101907effffffffffffffffffffffffffffffffffffffffffffffffffffffffffffff1916908160001a9053506000611363846002611ae4565b61136e906001611b03565b90505b6001811115611429577f303132333435363738396162636465660000000000000000000000000000000085600f16601081106113af576113af611ab2565b1a7f0100000000000000000000000000000000000000000000000000000000000000028282815181106113e4576113e4611ab2565b60200101907effffffffffffffffffffffffffffffffffffffffffffffffffffffffffffff1916908160001a90535060109094049361142281611b1b565b9050611371565b50831561039a576040517f08c379a000000000000000000000000000000000000000000000000000000000815260206004820181905260248201527f537472696e67733a20686578206c656e67746820696e73756666696369656e74604482015260640161036b565b6000818152600183016020526040812054801561157b5760006114b6600183611b32565b85549091506000906114ca90600190611b32565b905081811461152f5760008660000182815481106114ea576114ea611ab2565b906000526020600020015490508087600001848154811061150d5761150d611ab2565b6000918252602080832090910192909255918252600188019052604090208390555b855486908061154057611540611b49565b6001900381819060005260206000200160009055905585600101600086815260200190815260200160002060009055600193505050506102a7565b60009150506102a7565b60006020828403121561159757600080fd5b8135600160e060020a03198116811461039a57600080fd5b6000602082840312156115c157600080fd5b5035919050565b8035600160a060020a03811681146115df57600080fd5b919050565b600080604083850312156115f757600080fd5b82359150611607602084016115c8565b90509250929050565b6000806040838503121561162357600080fd5b50508035926020909101359150565b600081518084526020808501945080840160005b8381101561166257815187529582019590820190600101611646565b509495945050505050565b60005b83811015611688578181015183820152602001611670565b83811115611697576000848401525b50505050565b600081518084526116b581602086016020860161166d565b601f01601f19169290920160200192915050565b6000828251808552602080860195508081830284010181860160005b8481101561171357601f1986840301895261170183835161169d565b988401989250908301906001016116e5565b5090979650505050505050565b831515815260606020820152600061173b6060830185611632565b828103604084015261174d81856116c9565b9695505050505050565b60006020828403121561176957600080fd5b61039a826115c8565b60e060020a634e487b7102600052604160045260246000fd5b604051601f8201601f1916810167ffffffffffffffff811182821017156117b4576117b4611772565b604052919050565b600067ffffffffffffffff8211156117d6576117d6611772565b5060209081020190565b6000601f83818401126117f257600080fd5b82356020611807611802836117bc565b61178b565b8281529181028501810191818101908784111561182357600080fd5b8287015b848110156118ba57803567ffffffffffffffff808211156118485760008081fd5b818a0191508a603f83011261185d5760008081fd5b8582013560408282111561187357611873611772565b611884828b01601f1916890161178b565b92508183528c8183860101111561189b5760008081fd5b8181850189850137506000908201870152845250918301918301611827565b50979650505050505050565b6000806000606084860312156118db57600080fd5b8335925060208085013567ffffffffffffffff808211156118fb57600080fd5b818701915087601f83011261190f57600080fd5b813561191d611802826117bc565b8181529084028301840190848101908a83111561193957600080fd5b938501935b828510156119575784358252938501939085019061193e565b96505050604087013592508083111561196f57600080fd5b505061197d868287016117e0565b9150509250925092565b60e060020a634e487b7102600052602160045260246000fd5b6000602082840312156119b257600080fd5b81516006811061039a57600080fd5b6040815260006119d46040830185611632565b82810360208401526119e681856116c9565b95945050505050565b6040810160068410611a145760e060020a634e487b7102600052602160045260246000fd5b9281526020015290565b7f416363657373436f6e74726f6c3a206163636f756e7420000000000000000000815260008351611a5681601785016020880161166d565b7f206973206d697373696e6720726f6c65200000000000000000000000000000006017918401918201528351611a9381602884016020880161166d565b01602801949350505050565b60208152600061039a602083018461169d565b60e060020a634e487b7102600052603260045260246000fd5b60e060020a634e487b7102600052601160045260246000fd5b6000816000190483118215151615611afe57611afe611acb565b500290565b60008219821115611b1657611b16611acb565b500190565b600081611b2a57611b2a611acb565b506000190190565b600082821015611b4457611b44611acb565b500390565b60e060020a634e487b7102600052603160045260246000fdfe80e2196015fc06a9d891759f8e4f51eb314ef5e9ea068528a8ed0063b87759f0a2646970667358221220421973dbc9ec819b4eff69790a696579c1ac27fe9bb63cca62ea5060ed9e17b364736f6c634300080b0033",
  "immutableReferences": {},
  "source": "// SPDX-License-Identifier: GPL-3.0\npragma solidity >=0.7.0 <0.9.0;\n\nimport \"./HexplorationQueue.sol\";\nimport \"./state/GameSummary.sol\";\nimport \"@openzeppelin/contracts/access/AccessControlEnumerable.sol\";\n\ncontract HexplorationGameplay is AccessControlEnumerable {\n    bytes32 public constant VERIFIED_CONTROLLER_ROLE =\n        keccak256(\"VERIFIED_CONTROLLER_ROLE\");\n\n    HexplorationQueue QUEUE;\n\n    constructor() {\n        _setupRole(DEFAULT_ADMIN_ROLE, _msgSender());\n    }\n\n    function addVerifiedController(address vcAddress)\n        public\n        onlyRole(DEFAULT_ADMIN_ROLE)\n    {\n        grantRole(VERIFIED_CONTROLLER_ROLE, vcAddress);\n    }\n\n    function setQueue(address queueContract)\n        public\n        onlyRole(DEFAULT_ADMIN_ROLE)\n    {\n        QUEUE = HexplorationQueue(queueContract);\n        _setupRole(VERIFIED_CONTROLLER_ROLE, queueContract);\n    }\n\n    // Keeper functions...\n    // returns if should be processing and processed moves to post if so\n    // this will be run twice for each phase, once for player actions,\n    // once for playing out world scenarios\n    function shouldContinueProcessing(uint256 queueID)\n        public\n        view\n        returns (\n            bool,\n            uint256[] memory,\n            string[] memory\n        )\n    {\n        bool shouldContinue = QUEUE.currentPhase(queueID) ==\n            HexplorationQueue.ProcessingPhase.Processing ||\n            QUEUE.currentPhase(queueID) ==\n            HexplorationQueue.ProcessingPhase.PlayThrough;\n        string[] memory stringsToPost;\n        uint256[] memory valuesToPost;\n        if (shouldContinue) {\n            (valuesToPost, stringsToPost) = process(queueID);\n        } else {\n            valuesToPost = new uint256[](0);\n            stringsToPost = new string[](0);\n        }\n\n        return (shouldContinue, valuesToPost, stringsToPost);\n    }\n\n    // posts data returned from shouldContinueProcessing()...\n    function postProcessedGameState(\n        uint256 queueID,\n        uint256[] memory intUpdates,\n        string[] memory stringUpdates\n    ) public onlyRole(VERIFIED_CONTROLLER_ROLE) {\n        HexplorationQueue.ProcessingPhase phase = QUEUE.currentPhase(queueID);\n\n        // TODO: set this to true when game is finished\n        bool gameComplete = false;\n\n        if (phase == HexplorationQueue.ProcessingPhase.Processing) {\n            QUEUE.postUpdates(intUpdates, stringUpdates);\n            QUEUE.setPhase(\n                HexplorationQueue.ProcessingPhase.PlayThrough,\n                queueID\n            );\n        } else if (phase == HexplorationQueue.ProcessingPhase.PlayThrough) {\n            QUEUE.postUpdates(intUpdates, stringUpdates);\n            QUEUE.finishProcessing(queueID, gameComplete);\n        }\n    }\n\n    function process(uint256 queueID)\n        internal\n        view\n        returns (uint256[] memory intValues, string[] memory stringValues)\n    {\n        HexplorationQueue.ProcessingPhase phase = QUEUE.currentPhase(queueID);\n\n        if (phase == HexplorationQueue.ProcessingPhase.Processing) {\n            (intValues, stringValues) = processPlayerActions(queueID);\n        } else if (phase == HexplorationQueue.ProcessingPhase.PlayThrough) {\n            (intValues, stringValues) = playThrough(queueID);\n        } else {\n            intValues = new uint256[](0);\n            stringValues = new string[](0);\n        }\n\n        // maybe we don't call this, since it needs to update state...\n        // update this when we pass the results from the shouldProcess\n        //finishProcessing(queueID);\n\n        // Update TODO: expand for processing larger turns...\n        // something like\n        // if (currentPhase == HexplorationQueue.ProcessingPhase.Processing) {\n        //     // processPlayerActions()\n        // } else if (\n        //     currentPhase == HexplorationQueue.ProcessingPhase.PlayThrough\n        // ) {\n        //     // playThrough()\n        //     // finishProcessing()\n        // }\n    }\n\n    function processPlayerActions(uint256 queueID)\n        internal\n        view\n        returns (uint256[] memory, string[] memory)\n    {\n        // Initial thoughts...\n        // figure out most expensive move and only do as many as can be safely completed\n        // in one transaction\n        // start at currentQueuePosition\n        // after each move is processed currentQueuePosition++\n        // on after final batch, switch day / night and\n        // set QUEUE.setPhase(HexplorationQueue.ProcessingPhase.PlayThrough, queueID);\n\n        // TODO: get real values\n        uint256 totalPlayerPositionUpdates = 1;\n        uint256 totalPlayerStatUpdates = 1;\n        uint256 totalPlayerEquips = 1;\n        uint256 totalPlayerTfers = 1;\n        uint256 totalZoneTfers = 1;\n\n        uint256 intReturnLength = 5 +\n            (totalPlayerPositionUpdates * 2) +\n            (totalPlayerStatUpdates * 4) +\n            totalPlayerEquips +\n            (totalPlayerTfers * 3) +\n            (totalZoneTfers * 3);\n\n        uint256[] memory intReturn = new uint256[](intReturnLength);\n        intReturn[0] = 1;\n        intReturn[1] = 2;\n        intReturn[2] = 3;\n        intReturn[3] = 4;\n\n        // TODO: update to actual max value\n        uint256 maxMovementPerPlayer = 7; // should be set to max movement + 1 (if 6 max set to 7)\n        uint256 stringReturnLength = 1 +\n            (totalPlayerPositionUpdates * maxMovementPerPlayer) +\n            totalPlayerEquips +\n            totalPlayerTfers +\n            (totalZoneTfers * 2);\n\n        string[] memory stringReturn = new string[](stringReturnLength);\n        stringReturn[0] = \"something\";\n        stringReturn[1] = \"to\";\n        stringReturn[2] = \"post\";\n\n        return (intReturn, stringReturn);\n    }\n\n    function playThrough(uint256 queueID)\n        internal\n        view\n        returns (uint256[] memory, string[] memory)\n    {\n        // TODO: get real values\n        uint256 totalPlayerPositionUpdates = 1;\n        uint256 totalPlayerStatUpdates = 1;\n        uint256 totalPlayerEquips = 1;\n        uint256 totalPlayerTfers = 1;\n        uint256 totalZoneTfers = 1;\n\n        uint256 intReturnLength = 5 +\n            (totalPlayerPositionUpdates * 2) +\n            (totalPlayerStatUpdates * 4) +\n            totalPlayerEquips +\n            (totalPlayerTfers * 3) +\n            (totalZoneTfers * 3);\n\n        uint256[] memory intReturn = new uint256[](intReturnLength);\n        intReturn[0] = 5;\n        intReturn[1] = 6;\n        intReturn[2] = 7;\n        intReturn[3] = 8;\n\n        // TODO: update to actual max value\n        uint256 maxMovementPerPlayer = 7; // should be set to max movement + 1 (if 6 max set to 7)\n        uint256 stringReturnLength = 1 +\n            (totalPlayerPositionUpdates * maxMovementPerPlayer) +\n            totalPlayerEquips +\n            totalPlayerTfers +\n            (totalZoneTfers * 2);\n\n        string[] memory stringReturn = new string[](stringReturnLength);\n        stringReturn[0] = \"playing\";\n        stringReturn[1] = \"through\";\n        stringReturn[2] = \"game\";\n        return (intReturn, stringReturn);\n        // if day phase (){\n        // Play through events\n        // daily events\n        //}\n        // if (end game) {\n        // play enemy stuff here\n        //}\n    }\n}\n\n// What is processing?\n// take all moves from batch, verify are valid moves, and\n// return list of final moves to process\n// keeper will post list of final moves to contract,\n//// *shouldn't be able to fail if it got this far\n// moves that failed pre-check will be returned as another list that will get logged in an event\n",
  "sourcePath": "/Users/maxmeier/Developer/Lucky Machines/hexploration/contracts/HexplorationGameplay.sol",
  "compiler": {
    "name": "solc",
    "version": "0.8.11+commit.d7f03943.Emscripten.clang"
  },
  "schemaVersion": "3.4.4",
  "updatedAt": "2022-05-23T02:33:57.010Z",
  "networkType": "ethereum",
  "devdoc": {
    "kind": "dev",
    "methods": {
      "getRoleAdmin(bytes32)": {
        "details": "Returns the admin role that controls `role`. See {grantRole} and {revokeRole}. To change a role's admin, use {_setRoleAdmin}."
      },
      "getRoleMember(bytes32,uint256)": {
        "details": "Returns one of the accounts that have `role`. `index` must be a value between 0 and {getRoleMemberCount}, non-inclusive. Role bearers are not sorted in any particular way, and their ordering may change at any point. WARNING: When using {getRoleMember} and {getRoleMemberCount}, make sure you perform all queries on the same block. See the following https://forum.openzeppelin.com/t/iterating-over-elements-on-enumerableset-in-openzeppelin-contracts/2296[forum post] for more information."
      },
      "getRoleMemberCount(bytes32)": {
        "details": "Returns the number of accounts that have `role`. Can be used together with {getRoleMember} to enumerate all bearers of a role."
      },
      "grantRole(bytes32,address)": {
        "details": "Grants `role` to `account`. If `account` had not been already granted `role`, emits a {RoleGranted} event. Requirements: - the caller must have ``role``'s admin role."
      },
      "hasRole(bytes32,address)": {
        "details": "Returns `true` if `account` has been granted `role`."
      },
      "renounceRole(bytes32,address)": {
        "details": "Revokes `role` from the calling account. Roles are often managed via {grantRole} and {revokeRole}: this function's purpose is to provide a mechanism for accounts to lose their privileges if they are compromised (such as when a trusted device is misplaced). If the calling account had been revoked `role`, emits a {RoleRevoked} event. Requirements: - the caller must be `account`."
      },
      "revokeRole(bytes32,address)": {
        "details": "Revokes `role` from `account`. If `account` had been granted `role`, emits a {RoleRevoked} event. Requirements: - the caller must have ``role``'s admin role."
      },
      "supportsInterface(bytes4)": {
        "details": "See {IERC165-supportsInterface}."
      }
    },
    "version": 1
  },
  "userdoc": {
    "kind": "user",
    "methods": {},
    "version": 1
  }
}