{
  "contractName": "HexplorationGameplay",
  "abi": [
    {
      "inputs": [
        {
          "internalType": "address",
          "name": "_gameSummaryAddress",
          "type": "address"
        },
        {
          "internalType": "address",
          "name": "gameBoardAddress",
          "type": "address"
        },
        {
          "internalType": "address",
          "name": "eventDeck",
          "type": "address"
        },
        {
          "internalType": "address",
          "name": "treasureDeck",
          "type": "address"
        },
        {
          "internalType": "address",
          "name": "ambushDeck",
          "type": "address"
        }
      ],
      "stateMutability": "nonpayable",
      "type": "constructor"
    },
    {
      "anonymous": false,
      "inputs": [
        {
          "indexed": true,
          "internalType": "bytes32",
          "name": "role",
          "type": "bytes32"
        },
        {
          "indexed": true,
          "internalType": "bytes32",
          "name": "previousAdminRole",
          "type": "bytes32"
        },
        {
          "indexed": true,
          "internalType": "bytes32",
          "name": "newAdminRole",
          "type": "bytes32"
        }
      ],
      "name": "RoleAdminChanged",
      "type": "event"
    },
    {
      "anonymous": false,
      "inputs": [
        {
          "indexed": true,
          "internalType": "bytes32",
          "name": "role",
          "type": "bytes32"
        },
        {
          "indexed": true,
          "internalType": "address",
          "name": "account",
          "type": "address"
        },
        {
          "indexed": true,
          "internalType": "address",
          "name": "sender",
          "type": "address"
        }
      ],
      "name": "RoleGranted",
      "type": "event"
    },
    {
      "anonymous": false,
      "inputs": [
        {
          "indexed": true,
          "internalType": "bytes32",
          "name": "role",
          "type": "bytes32"
        },
        {
          "indexed": true,
          "internalType": "address",
          "name": "account",
          "type": "address"
        },
        {
          "indexed": true,
          "internalType": "address",
          "name": "sender",
          "type": "address"
        }
      ],
      "name": "RoleRevoked",
      "type": "event"
    },
    {
      "inputs": [],
      "name": "DEFAULT_ADMIN_ROLE",
      "outputs": [
        {
          "internalType": "bytes32",
          "name": "",
          "type": "bytes32"
        }
      ],
      "stateMutability": "view",
      "type": "function"
    },
    {
      "inputs": [],
      "name": "VERIFIED_CONTROLLER_ROLE",
      "outputs": [
        {
          "internalType": "bytes32",
          "name": "",
          "type": "bytes32"
        }
      ],
      "stateMutability": "view",
      "type": "function"
    },
    {
      "inputs": [
        {
          "internalType": "bytes32",
          "name": "role",
          "type": "bytes32"
        }
      ],
      "name": "getRoleAdmin",
      "outputs": [
        {
          "internalType": "bytes32",
          "name": "",
          "type": "bytes32"
        }
      ],
      "stateMutability": "view",
      "type": "function"
    },
    {
      "inputs": [
        {
          "internalType": "bytes32",
          "name": "role",
          "type": "bytes32"
        },
        {
          "internalType": "uint256",
          "name": "index",
          "type": "uint256"
        }
      ],
      "name": "getRoleMember",
      "outputs": [
        {
          "internalType": "address",
          "name": "",
          "type": "address"
        }
      ],
      "stateMutability": "view",
      "type": "function"
    },
    {
      "inputs": [
        {
          "internalType": "bytes32",
          "name": "role",
          "type": "bytes32"
        }
      ],
      "name": "getRoleMemberCount",
      "outputs": [
        {
          "internalType": "uint256",
          "name": "",
          "type": "uint256"
        }
      ],
      "stateMutability": "view",
      "type": "function"
    },
    {
      "inputs": [
        {
          "internalType": "bytes32",
          "name": "role",
          "type": "bytes32"
        },
        {
          "internalType": "address",
          "name": "account",
          "type": "address"
        }
      ],
      "name": "grantRole",
      "outputs": [],
      "stateMutability": "nonpayable",
      "type": "function"
    },
    {
      "inputs": [
        {
          "internalType": "bytes32",
          "name": "role",
          "type": "bytes32"
        },
        {
          "internalType": "address",
          "name": "account",
          "type": "address"
        }
      ],
      "name": "hasRole",
      "outputs": [
        {
          "internalType": "bool",
          "name": "",
          "type": "bool"
        }
      ],
      "stateMutability": "view",
      "type": "function"
    },
    {
      "inputs": [
        {
          "internalType": "bytes32",
          "name": "role",
          "type": "bytes32"
        },
        {
          "internalType": "address",
          "name": "account",
          "type": "address"
        }
      ],
      "name": "renounceRole",
      "outputs": [],
      "stateMutability": "nonpayable",
      "type": "function"
    },
    {
      "inputs": [
        {
          "internalType": "bytes32",
          "name": "role",
          "type": "bytes32"
        },
        {
          "internalType": "address",
          "name": "account",
          "type": "address"
        }
      ],
      "name": "revokeRole",
      "outputs": [],
      "stateMutability": "nonpayable",
      "type": "function"
    },
    {
      "inputs": [
        {
          "internalType": "bytes4",
          "name": "interfaceId",
          "type": "bytes4"
        }
      ],
      "name": "supportsInterface",
      "outputs": [
        {
          "internalType": "bool",
          "name": "",
          "type": "bool"
        }
      ],
      "stateMutability": "view",
      "type": "function"
    },
    {
      "inputs": [
        {
          "internalType": "uint256",
          "name": "",
          "type": "uint256"
        }
      ],
      "name": "updatesComplete",
      "outputs": [
        {
          "internalType": "bool",
          "name": "",
          "type": "bool"
        }
      ],
      "stateMutability": "view",
      "type": "function"
    },
    {
      "inputs": [
        {
          "internalType": "address",
          "name": "vcAddress",
          "type": "address"
        }
      ],
      "name": "addVerifiedController",
      "outputs": [],
      "stateMutability": "nonpayable",
      "type": "function"
    },
    {
      "inputs": [
        {
          "internalType": "address",
          "name": "queueContract",
          "type": "address"
        }
      ],
      "name": "setQueue",
      "outputs": [],
      "stateMutability": "nonpayable",
      "type": "function"
    },
    {
      "inputs": [
        {
          "internalType": "address",
          "name": "gsuAddress",
          "type": "address"
        }
      ],
      "name": "setGameStateUpdate",
      "outputs": [],
      "stateMutability": "nonpayable",
      "type": "function"
    },
    {
      "inputs": [],
      "name": "needsUpkeep",
      "outputs": [
        {
          "internalType": "bool",
          "name": "upkeepNeeded",
          "type": "bool"
        },
        {
          "internalType": "bytes",
          "name": "performData",
          "type": "bytes"
        }
      ],
      "stateMutability": "view",
      "type": "function"
    },
    {
      "inputs": [
        {
          "internalType": "bytes",
          "name": "performData",
          "type": "bytes"
        }
      ],
      "name": "doUpkeep",
      "outputs": [],
      "stateMutability": "nonpayable",
      "type": "function"
    },
    {
      "inputs": [
        {
          "internalType": "bytes",
          "name": "performData",
          "type": "bytes"
        }
      ],
      "name": "performUpkeep",
      "outputs": [],
      "stateMutability": "nonpayable",
      "type": "function"
    },
    {
      "inputs": [
        {
          "internalType": "bytes",
          "name": "",
          "type": "bytes"
        }
      ],
      "name": "checkUpkeep",
      "outputs": [
        {
          "internalType": "bool",
          "name": "upkeepNeeded",
          "type": "bool"
        },
        {
          "internalType": "bytes",
          "name": "performData",
          "type": "bytes"
        }
      ],
      "stateMutability": "view",
      "type": "function"
    },
    {
      "inputs": [
        {
          "internalType": "uint256",
          "name": "queueID",
          "type": "uint256"
        },
        {
          "internalType": "uint256",
          "name": "playerID",
          "type": "uint256"
        }
      ],
      "name": "dig",
      "outputs": [
        {
          "internalType": "uint256",
          "name": "resultType",
          "type": "uint256"
        }
      ],
      "stateMutability": "view",
      "type": "function"
    },
    {
      "inputs": [
        {
          "internalType": "uint256",
          "name": "numDice",
          "type": "uint256"
        },
        {
          "internalType": "uint256",
          "name": "queueID",
          "type": "uint256"
        },
        {
          "internalType": "uint256",
          "name": "rollSeed",
          "type": "uint256"
        }
      ],
      "name": "attributeRoll",
      "outputs": [
        {
          "internalType": "uint256",
          "name": "rollTotal",
          "type": "uint256"
        },
        {
          "internalType": "uint256[]",
          "name": "allDice",
          "type": "uint256[]"
        }
      ],
      "stateMutability": "view",
      "type": "function"
    },
    {
      "inputs": [
        {
          "internalType": "uint256",
          "name": "numDice",
          "type": "uint256"
        },
        {
          "internalType": "uint256",
          "name": "queueID",
          "type": "uint256"
        },
        {
          "internalType": "uint256",
          "name": "rollSeed",
          "type": "uint256"
        }
      ],
      "name": "d6Roll",
      "outputs": [
        {
          "internalType": "uint256",
          "name": "rollTotal",
          "type": "uint256"
        },
        {
          "internalType": "uint256[]",
          "name": "allDice",
          "type": "uint256[]"
        }
      ],
      "stateMutability": "view",
      "type": "function"
    }
  ],
  "bytecode": "0x60806040523480156200001157600080fd5b50604051620045603803806200456083398101604081905262000034916200029b565b6200005c60006200004d640100000000620000bc810204565b640100000000620000c0810204565b60048054600160a060020a0319908116600160a060020a039687161790915560058054821696861696909617909555600680548616938516939093179092556007805485169184169190911790556008805490931691161790556200030b565b3390565b620000d58282640100000000620000d9810204565b5050565b620000f3828264010000000062000c776200012082021704565b60008281526001602052604090206200011b908264010000000062000cfb620001bc82021704565b505050565b620001358282640100000000620001e5810204565b620000d557600082815260208181526040808320600160a060020a03851684529091529020805460ff1916600117905562000178640100000000620000bc810204565b600160a060020a031681600160a060020a0316837f2f8788117e7eff1d82e926ec794901d17c78024a50270940304540a733656f0d60405160405180910390a45050565b6000620001dc83600160a060020a0384166401000000006200020e810204565b90505b92915050565b600091825260208281526040808420600160a060020a0393909316845291905290205460ff1690565b600062000225838364010000000062000266810204565b6200025d57508154600181810184556000848152602080822090930184905584548482528286019093526040902091909155620001df565b506000620001df565b60009081526001919091016020526040902054151590565b8051600160a060020a03811681146200029657600080fd5b919050565b600080600080600060a08688031215620002b457600080fd5b620002bf866200027e565b9450620002cf602087016200027e565b9350620002df604087016200027e565b9250620002ef606087016200027e565b9150620002ff608087016200027e565b90509295509295909350565b614245806200031b6000396000f3fe608060405234801561001057600080fd5b506004361061013b5760003560e060020a9004806391d14854116100bc578063d4f5b15211610080578063d4f5b152146102c0578063d547741f146102d3578063e4546e43146102e6578063ec9e275e146102f9578063f3ee7e2c1461031c578063f80ddc471461032f57600080fd5b806391d148541461025e578063a217fddf14610271578063a605e7ae14610279578063c53f67811461028c578063ca15c873146102ad57600080fd5b806330e047f41161010357806330e047f4146101d957806336568abe146101ec5780634585e33b146101ff5780636e04ff0d146102125780639010d07c1461023357600080fd5b806301ffc9a7146101405780631c834a7f14610168578063248a9ca31461018b578063293dff3e146101ae5780632f2ff15d146101c4575b600080fd5b61015361014e366004613688565b610337565b60405190151581526020015b60405180910390f35b61017d6000805160206141f083398151915281565b60405190815260200161015f565b61017d6101993660046136b2565b60009081526020819052604090206001015490565b61017d6101bc3660046136cb565b600092915050565b6101d76101d2366004613709565b61037b565b005b6101d76101e7366004613735565b6103a5565b6101d76101fa366004613709565b61041a565b6101d761020d366004613735565b6104ae565b610225610220366004613735565b610517565b60405161015f929190613803565b6102466102413660046136cb565b610751565b604051600160a060020a03909116815260200161015f565b61015361026c366004613709565b610770565b61017d600081565b6101d7610287366004613826565b610799565b61029f61029a366004613841565b6107d4565b60405161015f9291906138a8565b61017d6102bb3660046136b2565b61088f565b6101d76102ce366004613826565b6108a6565b6101d76102e1366004613709565b6108c9565b61029f6102f4366004613841565b6108ee565b6101536103073660046136b2565b60096020526000908152604090205460ff1681565b6101d761032a366004613826565b6109f8565b610225610a43565b6000600160e060020a031982167f5a05180f000000000000000000000000000000000000000000000000000000001480610375575061037582610d10565b92915050565b60008281526020819052604090206001015461039681610d77565b6103a08383610d84565b505050565b60006103b081610d77565b6103b8613546565b6000806103c7858701876138c1565b60608b015260808a01526040890152602088015260a08701528552909250905060028114156103ff576103fa8284610da6565b610412565b8060031415610412576104128284610f11565b505050505050565b600160a060020a03811633146104a05760405160e560020a62461bcd02815260206004820152602f60248201527f416363657373436f6e74726f6c3a2063616e206f6e6c792072656e6f756e636560448201527f20726f6c657320666f722073656c66000000000000000000000000000000000060648201526084015b60405180910390fd5b6104aa8282611185565b5050565b6104b6613546565b6000806104c5848601866138c1565b60608b015260808a01526040890152602088015260a08701528552909250905060028114156104fd576104f88284610da6565b610510565b8060031415610510576105108284610f11565b5050505050565b6002546040805160e060020a631a897239028152905160009260609284928392600160a060020a031691631a89723991600480830192869291908290030181865afa15801561056a573d6000803e3d6000fd5b505050506040513d6000823e601f3d908101601f191682016040526105929190810190613984565b905060005b8151811015610674578181815181106105b2576105b2613a17565b6020026020010151600014158015610638575060025460405160e060020a631b1d5b2702815260048101859052600091600160a060020a031690631b1d5b2790602401602060405180830381865afa158015610612573d6000803e3d6000fd5b505050506040513d601f19601f820116820180604052508101906106369190613a30565b115b156106625781818151811061064f5761064f613a17565b6020026020010151925060019450610674565b8061066c81613a62565b915050610597565b5060025460405160e060020a63b1fb640502815260048101849052600091600160a060020a03169063b1fb640590602401602060405180830381865afa1580156106c2573d6000803e3d6000fd5b505050506040513d601f19601f820116820180604052508101906106e69190613a7d565b905060028160058111156106fc576106fc613a9e565b14156107145761070d8360026111a7565b9350610747565b600381600581111561072857610728613a9e565b14156107395761070d8360036111a7565b6107448360046111a7565b93505b5050509250929050565b60008281526001602052604081206107699083611671565b9392505050565b600091825260208281526040808420600160a060020a0393909316845291905290205460ff1690565b60006107a481610d77565b506003805473ffffffffffffffffffffffffffffffffffffffff1916600160a060020a0392909216919091179055565b60408051600380825260808201909252600091606091839160208201848036833701905050905060008160008151811061081057610810613a17565b602002602001019060ff16908160ff168152505060018160018151811061083957610839613a17565b602002602001019060ff16908160ff168152505060028160028151811061086257610862613a17565b602002602001019060ff16908160ff16815250506108828582888761167d565b9097909650945050505050565b600081815260016020526040812061037590611806565b60006108b181610d77565b6104aa6000805160206141f08339815191528361037b565b6000828152602081905260409020600101546108e481610d77565b6103a08383611185565b60408051600680825260e0820190925260009160609183916020820160c08036833701905050905060018160008151811061092b5761092b613a17565b602002602001019060ff16908160ff168152505060028160018151811061095457610954613a17565b602002602001019060ff16908160ff168152505060038160028151811061097d5761097d613a17565b602002602001019060ff16908160ff16815250506004816003815181106109a6576109a6613a17565b602002602001019060ff16908160ff16815250506005816004815181106109cf576109cf613a17565b602002602001019060ff16908160ff168152505060068160058151811061086257610862613a17565b6000610a0381610d77565b6002805473ffffffffffffffffffffffffffffffffffffffff1916600160a060020a0384161790556104aa6000805160206141f083398151915283611810565b6002546040805160e060020a631a897239028152905160009260609284928392600160a060020a031691631a89723991600480830192869291908290030181865afa158015610a96573d6000803e3d6000fd5b505050506040513d6000823e601f3d908101601f19168201604052610abe9190810190613984565b905060005b8151811015610b2457818181518110610ade57610ade613a17565b6020026020010151600014610b1257818181518110610aff57610aff613a17565b6020026020010151925060019450610b24565b80610b1c81613a62565b915050610ac3565b5060025460405160e060020a631b1d5b2702815260048101849052600160a060020a0390911690631b1d5b2790602401602060405180830381865afa158015610b71573d6000803e3d6000fd5b505050506040513d601f19601f82011682018060405250810190610b959190613a30565b610b9e57600093505b60025460405160e060020a63b1fb640502815260048101849052600091600160a060020a03169063b1fb640590602401602060405180830381865afa158015610beb573d6000803e3d6000fd5b505050506040513d601f19601f82011682018060405250810190610c0f9190613a7d565b90506002816005811115610c2557610c25613a9e565b1415610c3d57610c368360026111a7565b9350610c70565b6003816005811115610c5157610c51613a9e565b1415610c6257610c368360036111a7565b610c6d8360046111a7565b93505b5050509091565b610c818282610770565b6104aa57600082815260208181526040808320600160a060020a03851684529091529020805460ff19166001179055610cb73390565b600160a060020a031681600160a060020a0316837f2f8788117e7eff1d82e926ec794901d17c78024a50270940304540a733656f0d60405160405180910390a45050565b600061076983600160a060020a03841661181a565b6000600160e060020a031982167f7965db0b00000000000000000000000000000000000000000000000000000000148061037557507f01ffc9a700000000000000000000000000000000000000000000000000000000600160e060020a0319831614610375565b610d818133611869565b50565b610d8e8282610c77565b60008281526001602052604090206103a09082610cfb565b60025460405160e060020a63cddbe72902815260048101849052600091600160a060020a03169063cddbe72990602401602060405180830381865afa158015610df3573d6000803e3d6000fd5b505050506040513d601f19601f82011682018060405250810190610e179190613a30565b90506000610e2584846118d0565b60035460405160e160020a63664a176f028152919250600160a060020a03169063cc942ede90610e5b9084908690600401613c62565b600060405180830381600087803b158015610e7557600080fd5b505af1158015610e89573d6000803e3d6000fd5b50506002546040517f04ac8fee000000000000000000000000000000000000000000000000000000008152600160a060020a0390911692506304ac8fee9150610ed9906003908890600401613f21565b600060405180830381600087803b158015610ef357600080fd5b505af1158015610f07573d6000803e3d6000fd5b5050505050505050565b60025460405160e060020a63b1fb640502815260048101849052600091600160a060020a03169063b1fb640590602401602060405180830381865afa158015610f5e573d6000803e3d6000fd5b505050506040513d601f19601f82011682018060405250810190610f829190613a7d565b60025460405160e060020a631b1d5b2702815260048101869052919250600160a060020a031690631b1d5b2790602401602060405180830381865afa158015610fcf573d6000803e3d6000fd5b505050506040513d601f19601f82011682018060405250810190610ff39190613a30565b156103a057600381600581111561100c5761100c613a9e565b14156103a05760025460405160e060020a63cddbe72902815260048101859052600091600160a060020a03169063cddbe72990602401602060405180830381865afa15801561105f573d6000803e3d6000fd5b505050506040513d601f19601f820116820180604052508101906110839190613a30565b90506000611091858561319d565b60035460405160e160020a63664a176f028152919250600091600160a060020a039091169063cc942ede906110cc9085908790600401613c62565b600060405180830381600087803b1580156110e657600080fd5b505af11580156110fa573d6000803e3d6000fd5b50506002546040517f8e6e1d89000000000000000000000000000000000000000000000000000000008152600481018a90528415156024820152600160a060020a039091169250638e6e1d899150604401600060405180830381600087803b15801561116557600080fd5b505af1158015611179573d6000803e3d6000fd5b50505050505050505050565b61118f82826131ad565b60008281526001602052604090206103a09082613212565b6040805160c08101825260008082526020820181905281830181905260608083018290526080830182905260a08301829052600254935160e060020a63ac01b83d028152600481018790529093600160a060020a03169063ac01b83d90602401600060405180830381865afa158015611224573d6000803e3d6000fd5b505050506040513d6000823e601f3d908101601f1916820160405261124c9190810190613984565b905060005b81518110156115ef57600082828151811061126e5761126e613a17565b60209081029190910101516002546040517f7f041591000000000000000000000000000000000000000000000000000000008152600481018a905260248101839052919250600091600160a060020a0390911690637f04159190604401602060405180830381865afa1580156112e8573d6000803e3d6000fd5b505050506040513d601f19601f8201168201806040525081019061130c9190613f50565b9050600181600681111561132257611322613a9e565b141561133f5760018560000181815161133b9190613f71565b9052505b6002546040517ffd82e21f000000000000000000000000000000000000000000000000000000008152600481018a905260248101849052600091600160a060020a03169063fd82e21f90604401600060405180830381865afa1580156113a9573d6000803e3d6000fd5b505050506040513d6000823e601f3d908101601f191682016040526113d19190810190613fed565b5111156113ef576001856020018181516113eb9190613f71565b9052505b6002546040517f9b8e6819000000000000000000000000000000000000000000000000000000008152600481018a905260248101849052600091600160a060020a031690639b8e681990604401600060405180830381865afa158015611459573d6000803e3d6000fd5b505050506040513d6000823e601f3d908101601f191682016040526114819190810190613fed565b51111561149f5760018560200181815161149b9190613f71565b9052505b60028160068111156114b3576114b3613a9e565b14806114d0575060038160068111156114ce576114ce613a9e565b145b156114ec576001856040018181516114e89190613f71565b9052505b600481600681111561150057611500613a9e565b148061151d5750600581600681111561151b5761151b613a9e565b145b806115395750600681600681111561153757611537613a9e565b145b806115555750600281600681111561155357611553613a9e565b145b806115715750600381600681111561156f5761156f613a9e565b145b1561158d576001856060018181516115899190613f71565b9052505b60048160068111156115a1576115a1613a9e565b14806115be575060058160068111156115bc576115bc613a9e565b145b156115da5760018560a0018181516115d69190613f71565b9052505b505080806115e790613a62565b915050611251565b50848483600001518460a001518560200151866040015187608001518860600151604051602001611658989796959493929190978852602088019690965260408701949094526060860192909252608085015260a084015260c083015260e08201526101000190565b6040516020818303038152906040529250505092915050565b60006107698383613227565b600060608367ffffffffffffffff81111561169a5761169a613916565b6040519080825280602002602001820160405280156116c3578160200160208202803683370190505b5060025460405160e060020a631b1d5b2702815260048101899052919250600091600160a060020a0390911690631b1d5b2790602401602060405180830381865afa158015611716573d6000803e3d6000fd5b505050506040513d601f19601f8201168201806040525081019061173a9190613a30565b905060005b858110156117fb57865160408051602081018590529081018390526060810187905288919060800160408051601f1981840301815291905280516020909101206117899190614022565b8151811061179957611799613a17565b602002602001015160ff168382815181106117b6576117b6613a17565b6020026020010181815250508281815181106117d4576117d4613a17565b6020026020010151846117e79190613f71565b9350806117f381613a62565b91505061173f565b505094509492505050565b6000610375825490565b6104aa8282610d84565b600081815260018301602052604081205461186157508154600181810184556000848152602080822090930184905584548482528286019093526040902091909155610375565b506000610375565b6118738282610770565b6104aa5761188b81600160a060020a03166014613251565b611896836020613251565b6040516020016118a7929190614047565b60408051601f198184030181529082905260e560020a62461bcd028252610497916004016140c8565b6118d861357c565b6118e061357c565b60025460405160e060020a63ac01b83d02815260048101869052600091600160a060020a03169063ac01b83d90602401600060405180830381865afa15801561192d573d6000803e3d6000fd5b505050506040513d6000823e601f3d908101601f191682016040526119559190810190613984565b845190915060009060079067ffffffffffffffff81111561197857611978613916565b6040519080825280602002602001820160405280156119a1578160200160208202803683370190505b508452855167ffffffffffffffff8111156119be576119be613916565b6040519080825280602002602001820160405280156119e7578160200160208202803683370190505b506020850152855167ffffffffffffffff811115611a0757611a07613916565b604051908082528060200260200182016040528015611a4057816020015b611a2d61362a565b815260200190600190039081611a255790505b506101c085015260009150815b8351811015611d59576002548451600191600160a060020a031690637f041591908b90889086908110611a8257611a82613a17565b60200260200101516040518363ffffffff1660e060020a028152600401611ab3929190918252602082015260400190565b602060405180830381865afa158015611ad0573d6000803e3d6000fd5b505050506040513d601f19601f82011682018060405250810190611af49190613f50565b6006811115611b0557611b05613a9e565b1415611d4757838181518110611b1d57611b1d613a17565b602002602001015185600001518481518110611b3b57611b3b613a17565b60209081029190910101526002548451600160a060020a039091169063a2dc5860908a90879085908110611b7157611b71613a17565b60200260200101516040518363ffffffff1660e060020a028152600401611ba2929190918252602082015260400190565b600060405180830381865afa158015611bbf573d6000803e3d6000fd5b505050506040513d6000823e601f3d908101601f19168201604052611be791908101906140db565b5185602001518481518110611bfe57611bfe613a17565b60209081029190910101526002548451600091600160a060020a03169063a2dc5860908b90889086908110611c3557611c35613a17565b60200260200101516040518363ffffffff1660e060020a028152600401611c66929190918252602082015260400190565b600060405180830381865afa158015611c83573d6000803e3d6000fd5b505050506040513d6000823e601f3d908101601f19168201604052611cab91908101906140db565b905060005b83811015611d375781518110611cd55760405180602001604052806000815250611cf0565b818181518110611ce757611ce7613a17565b60200260200101515b876101c001518681518110611d0757611d07613a17565b60200260200101518260078110611d2057611d20613a17565b602002015280611d2f81613a62565b915050611cb0565b5083611d4281613a62565b945050505b80611d5181613a62565b915050611a4d565b50856020015167ffffffffffffffff811115611d7757611d77613916565b604051908082528060200260200182016040528015611da0578160200160208202803683370190505b506040850152602086015167ffffffffffffffff811115611dc357611dc3613916565b604051908082528060200260200182016040528015611dec578160200160208202803683370190505b506060850152602086015167ffffffffffffffff811115611e0f57611e0f613916565b604051908082528060200260200182016040528015611e4257816020015b6060815260200190600190039081611e2d5790505b506101e085015260009150815b8351811015612044576002548451600091600160a060020a03169063fd82e21f908b90889086908110611e8457611e84613a17565b60200260200101516040518363ffffffff1660e060020a028152600401611eb5929190918252602082015260400190565b600060405180830381865afa158015611ed2573d6000803e3d6000fd5b505050506040513d6000823e601f3d908101601f19168201604052611efa9190810190613fed565b51111561203257838181518110611f1357611f13613a17565b602002602001015185604001518481518110611f3157611f31613a17565b602002602001018181525050600085606001518481518110611f5557611f55613a17565b60209081029190910101526002548451600160a060020a039091169063fd82e21f908a90879085908110611f8b57611f8b613a17565b60200260200101516040518363ffffffff1660e060020a028152600401611fbc929190918252602082015260400190565b600060405180830381865afa158015611fd9573d6000803e3d6000fd5b505050506040513d6000823e601f3d908101601f191682016040526120019190810190613fed565b856101e00151848151811061201857612018613a17565b6020026020010181905250828061202e90613a62565b9350505b8061203c81613a62565b915050611e4f565b5060005b835181101561223d576002548451600091600160a060020a031690639b8e6819908b9088908690811061207d5761207d613a17565b60200260200101516040518363ffffffff1660e060020a0281526004016120ae929190918252602082015260400190565b600060405180830381865afa1580156120cb573d6000803e3d6000fd5b505050506040513d6000823e601f3d908101601f191682016040526120f39190810190613fed565b51111561222b5783818151811061210c5761210c613a17565b60200260200101518560400151848151811061212a5761212a613a17565b60200260200101818152505060018560600151848151811061214e5761214e613a17565b60209081029190910101526002548451600160a060020a0390911690639b8e6819908a9087908590811061218457612184613a17565b60200260200101516040518363ffffffff1660e060020a0281526004016121b5929190918252602082015260400190565b600060405180830381865afa1580156121d2573d6000803e3d6000fd5b505050506040513d6000823e601f3d908101601f191682016040526121fa9190810190613fed565b856101e00151848151811061221157612211613a17565b6020026020010181905250828061222790613a62565b9350505b8061223581613a62565b915050612048565b50856040015167ffffffffffffffff81111561225b5761225b613916565b604051908082528060200260200182016040528015612284578160200160208202803683370190505b506080850152604086015167ffffffffffffffff8111156122a7576122a7613916565b6040519080825280602002602001820160405280156122d0578160200160208202803683370190505b5060a0850152604086015167ffffffffffffffff8111156122f3576122f3613916565b60405190808252806020026020018201604052801561231c578160200160208202803683370190505b5060c0850152604086015167ffffffffffffffff81111561233f5761233f613916565b60405190808252806020026020018201604052801561237257816020015b606081526020019060019003908161235d5790505b5061020085015260009150815b835181101561253e57600280548551600160a060020a0390911690637f041591908b908890869081106123b4576123b4613a17565b60200260200101516040518363ffffffff1660e060020a0281526004016123e5929190918252602082015260400190565b602060405180830381865afa158015612402573d6000803e3d6000fd5b505050506040513d601f19601f820116820180604052508101906124269190613f50565b600681111561243757612437613a9e565b141561252c576402540be4008560800151848151811061245957612459613a17565b60200260200101818152505083818151811061247757612477613a17565b60200260200101518560a00151848151811061249557612495613a17565b60200260200101818152505060018560c0015184815181106124b9576124b9613a17565b6020026020010181815250506040518060400160405280600881526020017f43616d7073697465000000000000000000000000000000000000000000000000815250856102000151848151811061251257612512613a17565b6020026020010181905250828061252890613a62565b9350505b8061253681613a62565b91505061237f565b5060005b8351811015612701576002548451600391600160a060020a031690637f041591908b9088908690811061257757612577613a17565b60200260200101516040518363ffffffff1660e060020a0281526004016125a8929190918252602082015260400190565b602060405180830381865afa1580156125c5573d6000803e3d6000fd5b505050506040513d601f19601f820116820180604052508101906125e99190613f50565b60068111156125fa576125fa613a9e565b14156126ef5783818151811061261257612612613a17565b60200260200101518560800151848151811061263057612630613a17565b6020026020010181815250506402540be4008560a00151848151811061265857612658613a17565b60200260200101818152505060018560c00151848151811061267c5761267c613a17565b6020026020010181815250506040518060400160405280600881526020017f43616d707369746500000000000000000000000000000000000000000000000081525085610200015184815181106126d5576126d5613a17565b602002602001018190525082806126eb90613a62565b9350505b806126f981613a62565b915050612542565b50856060015167ffffffffffffffff81111561271f5761271f613916565b604051908082528060200260200182016040528015612748578160200160208202803683370190505b50610180850152606086015167ffffffffffffffff81111561276c5761276c613916565b60405190808252806020026020018201604052801561279f57816020015b606081526020019060019003908161278a5790505b50610240850152606086015167ffffffffffffffff8111156127c3576127c3613916565b6040519080825280602002602001820160405280156127f657816020015b60608152602001906001900390816127e15790505b50610260850152606086015167ffffffffffffffff81111561281a5761281a613916565b604051908082528060200260200182016040528015612843578160200160208202803683370190505b50610280850152606086015167ffffffffffffffff81111561286757612867613916565b6040519080825280602002602001820160405280156128a057816020015b61288d613651565b8152602001906001900390816128855790505b506102a085015260a086015167ffffffffffffffff8111156128c4576128c4613916565b6040519080825280602002602001820160405280156128fd57816020015b6128ea61366a565b8152602001906001900390816128e25790505b5061016085015260009150815b835181101561311b57600280548551600160a060020a0390911690637f041591908b9088908690811061293f5761293f613a17565b60200260200101516040518363ffffffff1660e060020a028152600401612970929190918252602082015260400190565b602060405180830381865afa15801561298d573d6000803e3d6000fd5b505050506040513d601f19601f820116820180604052508101906129b19190613f50565b60068111156129c2576129c2613a9e565b1415612aa0576040518060400160405280600a81526020017f53657475702063616d70000000000000000000000000000000000000000000008152508561024001518481518110612a1557612a15613a17565b6020026020010181905250604051806020016040528060008152508561026001518481518110612a4757612a47613a17565b6020026020010181905250838181518110612a6457612a64613a17565b60200260200101518561018001518481518110612a8357612a83613a17565b602090810291909101015282612a9881613a62565b935050613109565b6002548451600391600160a060020a031690637f041591908b90889086908110612acc57612acc613a17565b60200260200101516040518363ffffffff1660e060020a028152600401612afd929190918252602082015260400190565b602060405180830381865afa158015612b1a573d6000803e3d6000fd5b505050506040513d601f19601f82011682018060405250810190612b3e9190613f50565b6006811115612b4f57612b4f613a9e565b1415612bea576040518060400160405280600f81526020017f427265616b20646f776e2063616d7000000000000000000000000000000000008152508561024001518481518110612ba257612ba2613a17565b6020026020010181905250604051806020016040528060008152508561026001518481518110612bd457612bd4613a17565b60200260200101819052508280612a9890613a62565b6002548451600491600160a060020a031690637f041591908b90889086908110612c1657612c16613a17565b60200260200101516040518363ffffffff1660e060020a028152600401612c47929190918252602082015260400190565b602060405180830381865afa158015612c64573d6000803e3d6000fd5b505050506040513d601f19601f82011682018060405250810190612c889190613f50565b6006811115612c9957612c99613a9e565b1415612d5f576040518060400160405280600381526020017f44696700000000000000000000000000000000000000000000000000000000008152508561024001518481518110612cec57612cec613a17565b6020026020010181905250604051806020016040528060008152508561026001518481518110612d1e57612d1e613a17565b6020026020010181905250612d4888858381518110612d3f57612d3f613a17565b50600092915050565b8561028001518481518110612a8357612a83613a17565b6002548451600591600160a060020a031690637f041591908b90889086908110612d8b57612d8b613a17565b60200260200101516040518363ffffffff1660e060020a028152600401612dbc929190918252602082015260400190565b602060405180830381865afa158015612dd9573d6000803e3d6000fd5b505050506040513d601f19601f82011682018060405250810190612dfd9190613f50565b6006811115612e0e57612e0e613a9e565b1415612f27576040518060400160405280600481526020017f52657374000000000000000000000000000000000000000000000000000000008152508561024001518481518110612e6157612e61613a17565b60209081029190910101526002548451600160a060020a0390911690631b341b3e908a90879085908110612e9757612e97613a17565b602090810291909101015160405160e060020a63ffffffff85160281526004810192909252602482015260006044820152606401600060405180830381865afa158015612ee8573d6000803e3d6000fd5b505050506040513d6000823e601f3d908101601f19168201604052612f109190810190613fed565b8561026001518481518110612bd457612bd4613a17565b6002548451600691600160a060020a031690637f041591908b90889086908110612f5357612f53613a17565b60200260200101516040518363ffffffff1660e060020a028152600401612f84929190918252602082015260400190565b602060405180830381865afa158015612fa1573d6000803e3d6000fd5b505050506040513d601f19601f82011682018060405250810190612fc59190613f50565b6006811115612fd657612fd6613a9e565b1415613109576040518060400160405280600481526020017f48656c7000000000000000000000000000000000000000000000000000000000815250856102400151848151811061302957613029613a17565b60209081029190910101526002548451600160a060020a0390911690631b341b3e908a9087908590811061305f5761305f613a17565b602090810291909101015160405160e060020a63ffffffff85160281526004810192909252602482015260006044820152606401600060405180830381865afa1580156130b0573d6000803e3d6000fd5b505050506040513d6000823e601f3d908101601f191682016040526130d89190810190613fed565b85610260015184815181106130ef576130ef613a17565b6020026020010181905250828061310590613a62565b9350505b8061311381613a62565b91505061290a565b5060025460405160e060020a631b1d5b2702815260048101899052600160a060020a0390911690631b1d5b2790602401602060405180830381865afa158015613168573d6000803e3d6000fd5b505050506040513d601f19601f8201168201806040525081019061318c9190613a30565b6102c0850152509195945050505050565b6131a561357c565b61076961357c565b6131b78282610770565b156104aa57600082815260208181526040808320600160a060020a0385168085529252808320805460ff1916905551339285917ff6391f5c32d9c69d2a47ea670b442974b53935d1edc7fd64eb21e047a839171b9190a45050565b600061076983600160a060020a038416613453565b600082600001828154811061323e5761323e613a17565b9060005260206000200154905092915050565b60606000613260836002614189565b61326b906002613f71565b67ffffffffffffffff81111561328357613283613916565b6040519080825280601f01601f1916602001820160405280156132ad576020820181803683370190505b5090507f3000000000000000000000000000000000000000000000000000000000000000816000815181106132e4576132e4613a17565b6020010190600160f860020a031916908160001a9053507f78000000000000000000000000000000000000000000000000000000000000008160018151811061332f5761332f613a17565b6020010190600160f860020a031916908160001a9053506000613353846002614189565b61335e906001613f71565b90505b6001811115613401577f303132333435363738396162636465660000000000000000000000000000000085600f166010811061339f5761339f613a17565b1a7f0100000000000000000000000000000000000000000000000000000000000000028282815181106133d4576133d4613a17565b6020010190600160f860020a031916908160001a9053506010909404936133fa816141a8565b9050613361565b5083156107695760405160e560020a62461bcd02815260206004820181905260248201527f537472696e67733a20686578206c656e67746820696e73756666696369656e746044820152606401610497565b6000818152600183016020526040812054801561353c5760006134776001836141bf565b855490915060009061348b906001906141bf565b90508181146134f05760008660000182815481106134ab576134ab613a17565b90600052602060002001549050808760000184815481106134ce576134ce613a17565b6000918252602080832090910192909255918252600188019052604090208390555b8554869080613501576135016141d6565b600190038181906000526020600020016000905590558560010160008681526020019081526020016000206000905560019350505050610375565b6000915050610375565b6040518060c001604052806000815260200160008152602001600081526020016000815260200160008152602001600081525090565b604051806102e0016040528060608152602001606081526020016060815260200160608152602001606081526020016060815260200160608152602001606081526020016060815260200160608152602001606081526020016060815260200160608152602001606081526020016060815260200160608152602001606081526020016060815260200160608152602001606081526020016060815260200160608152602001600081525090565b6040518060e001604052806007905b60608152602001906001900390816136395790505090565b6040805180820190915260608152600160208201613639565b60405180606001604052806003906020820280368337509192915050565b60006020828403121561369a57600080fd5b8135600160e060020a03198116811461076957600080fd5b6000602082840312156136c457600080fd5b5035919050565b600080604083850312156136de57600080fd5b50508035926020909101359150565b8035600160a060020a038116811461370457600080fd5b919050565b6000806040838503121561371c57600080fd5b8235915061372c602084016136ed565b90509250929050565b6000806020838503121561374857600080fd5b823567ffffffffffffffff8082111561376057600080fd5b818501915085601f83011261377457600080fd5b81358181111561378357600080fd5b86602082850101111561379557600080fd5b60209290920196919550909350505050565b60005b838110156137c25781810151838201526020016137aa565b838111156137d1576000848401525b50505050565b600081518084526137ef8160208601602086016137a7565b601f01601f19169290920160200192915050565b821515815260406020820152600061381e60408301846137d7565b949350505050565b60006020828403121561383857600080fd5b610769826136ed565b60008060006060848603121561385657600080fd5b505081359360208301359350604090920135919050565b600081518084526020808501945080840160005b8381101561389d57815187529582019590820190600101613881565b509495945050505050565b82815260406020820152600061381e604083018461386d565b600080600080600080600080610100898b0312156138de57600080fd5b505086359860208801359850604088013597606081013597506080810135965060a0810135955060c0810135945060e0013592509050565b60e060020a634e487b7102600052604160045260246000fd5b604051601f8201601f1916810167ffffffffffffffff8111828210171561395857613958613916565b604052919050565b600067ffffffffffffffff82111561397a5761397a613916565b5060209081020190565b6000602080838503121561399757600080fd5b825167ffffffffffffffff8111156139ae57600080fd5b8301601f810185136139bf57600080fd5b80516139d26139cd82613960565b61392f565b818152908302820183019083810190878311156139ee57600080fd5b928401925b82841015613a0c578351825292840192908401906139f3565b979650505050505050565b60e060020a634e487b7102600052603260045260246000fd5b600060208284031215613a4257600080fd5b5051919050565b60e060020a634e487b7102600052601160045260246000fd5b6000600019821415613a7657613a76613a49565b5060010190565b600060208284031215613a8f57600080fd5b81516006811061076957600080fd5b60e060020a634e487b7102600052602160045260246000fd5b60008151808452602080850194508084016000805b84811015613b0c57825188835b6003811015613af657825182529186019190860190600101613ad9565b5050506060979097019691830191600101613acc565b50959695505050505050565b60008151808452602080850180819650828402810191508286016000805b86811015613b8c578385038a5282518560e08101845b6007811015613b77578882038352613b658285516137d7565b938a0193928a01929150600101613b4c565b509b88019b9650505091850191600101613b36565b509298975050505050505050565b600081518084526020808501808196508284028101915082860160005b85811015613be1578284038952613bcf8483516137d7565b98850198935090840190600101613bb7565b5091979650505050505050565b60008151808452602080850180819650828402810191508286016000805b86811015613b8c578385038a5282518560408101845b6002811015613c4d578882038352613c3b8285516137d7565b938a0193928a01929150600101613c22565b509b88019b9650505091850191600101613c0c565b60408152600083516102e0806040850152613c8161032085018361386d565b91506020860151603f1980868503016060870152613c9f848361386d565b93506040880151915080868503016080870152613cbc848361386d565b935060608801519150808685030160a0870152613cd9848361386d565b935060808801519150808685030160c0870152613cf6848361386d565b935060a08801519150808685030160e0870152613d13848361386d565b935060c08801519150610100818786030181880152613d32858461386d565b945060e08901519250610120828887030181890152613d51868561386d565b9550818a015193506101409150828887030182890152613d71868561386d565b9550808a0151935050610160828887030181890152613d90868561386d565b9550818a015193506101809150828887030182890152613db0868561386d565b9550808a01519350506101a0828887030181890152613dcf8685613ab7565b9550818a015193506101c09150828887030182890152613def868561386d565b9550808a01519350506101e0828887030181890152613e0e86856137d7565b9550818a015193506102009150828887030182890152613e2e8685613b18565b9550808a0151935050610220828887030181890152613e4d8685613b9a565b9550818a015193506102409150828887030182890152613e6d8685613b9a565b9550808a0151935050610260828887030181890152613e8c8685613b9a565b9550818a015193506102809150828887030182890152613eac8685613b9a565b9550808a01519350506102a0828887030181890152613ecb8685613b9a565b9550818a015193506102c09150828887030182890152613eeb868561386d565b9550808a0151935050818786030184880152613f078584613bee565b980151610300870152505050506020909101919091525090565b6040810160068410613f465760e060020a634e487b7102600052602160045260246000fd5b9281526020015290565b600060208284031215613f6257600080fd5b81516007811061076957600080fd5b60008219821115613f8457613f84613a49565b500190565b600082601f830112613f9a57600080fd5b815167ffffffffffffffff811115613fb457613fb4613916565b613fc7601f8201601f191660200161392f565b818152846020838601011115613fdc57600080fd5b61381e8260208301602087016137a7565b600060208284031215613fff57600080fd5b815167ffffffffffffffff81111561401657600080fd5b61381e84828501613f89565b6000826140425760e060020a634e487b7102600052601260045260246000fd5b500690565b7f416363657373436f6e74726f6c3a206163636f756e742000000000000000000081526000835161407f8160178501602088016137a7565b7f206973206d697373696e6720726f6c652000000000000000000000000000000060179184019182015283516140bc8160288401602088016137a7565b01602801949350505050565b60208152600061076960208301846137d7565b600060208083850312156140ee57600080fd5b825167ffffffffffffffff8082111561410657600080fd5b818501915085601f83011261411a57600080fd5b81516141286139cd82613960565b8181529084028301840190848101908883111561414457600080fd5b8585015b8381101561417c578051858111156141605760008081fd5b61416e8b89838a0101613f89565b845250918601918601614148565b5098975050505050505050565b60008160001904831182151516156141a3576141a3613a49565b500290565b6000816141b7576141b7613a49565b506000190190565b6000828210156141d1576141d1613a49565b500390565b60e060020a634e487b7102600052603160045260246000fdfe80e2196015fc06a9d891759f8e4f51eb314ef5e9ea068528a8ed0063b87759f0a2646970667358221220cd06ee93c48d6fdf3c2e1fa5dd5eec0847048042b0776d17d1a4547f5b72bac164736f6c634300080b0033",
  "immutableReferences": {},
  "source": "// SPDX-License-Identifier: GPL-3.0\npragma solidity >=0.7.0 <0.9.0;\n\nimport \"./HexplorationQueue.sol\";\nimport \"./HexplorationStateUpdate.sol\";\nimport \"./state/GameSummary.sol\";\nimport \"./HexplorationBoard.sol\";\nimport \"@openzeppelin/contracts/access/AccessControlEnumerable.sol\";\nimport \"@chainlink/contracts/src/v0.8/KeeperCompatible.sol\";\nimport \"./decks/CardDeck.sol\";\n\ncontract HexplorationGameplay is\n    AccessControlEnumerable,\n    KeeperCompatibleInterface\n{\n    bytes32 public constant VERIFIED_CONTROLLER_ROLE =\n        keccak256(\"VERIFIED_CONTROLLER_ROLE\");\n\n    HexplorationQueue QUEUE;\n    HexplorationStateUpdate GAME_STATE;\n    HexplorationBoard GAME_BOARD;\n    address gameSummaryAddress;\n    CardDeck EVENT_DECK;\n    CardDeck TREASURE_DECK;\n    CardDeck AMBUSH_DECK;\n\n    // Mapping from QueueID to updates needed to run\n    //mapping(uint256 => bool) public readyForKeeper;\n    mapping(uint256 => bool) public updatesComplete;\n\n    struct DataSummary {\n        uint256 playerPositionUpdates;\n        uint256 playerEquips;\n        uint256 zoneTransfers;\n        uint256 activeActions;\n        uint256 playerTransfers;\n        uint256 playerStatUpdates;\n    }\n\n    struct PlayUpdates {\n        uint256[] playerPositionIDs;\n        uint256[] spacesToMove;\n        uint256[] playerEquipIDs;\n        uint256[] playerEquipHands;\n        uint256[] zoneTransfersTo;\n        uint256[] zoneTransfersFrom;\n        uint256[] zoneTransferQtys;\n        uint256[] playerTransfersTo;\n        uint256[] playerTransfersFrom;\n        uint256[] playerTransferQtys;\n        uint256[] playerStatUpdateIDs;\n        int256[3][] playerStatUpdates; // amount to adjust, not final value\n        uint256[] playerActiveActionIDs;\n        string gamePhase;\n        string[7][] playerMovementOptions; // TODO: set this to max # of spaces possible\n        string[] playerEquips;\n        string[] zoneTransferItemTypes;\n        string[] playerTransferItemTypes;\n        string[] activeActions;\n        string[] activeActionOptions;\n        uint256[] activeActionResults; // 0 = None, 1 = Event, 2 = Ambush, 3 = Treasure\n        string[2][] activeActionResultCards; // Card for Event / ambush / treasure , outcome e.g. [\"Dance with locals\", \"You're amazing!\"]\n        uint256 randomness;\n    }\n\n    constructor(\n        address _gameSummaryAddress,\n        address gameBoardAddress,\n        address eventDeck,\n        address treasureDeck,\n        address ambushDeck\n    ) {\n        _setupRole(DEFAULT_ADMIN_ROLE, _msgSender());\n        GAME_BOARD = HexplorationBoard(gameBoardAddress);\n        gameSummaryAddress = _gameSummaryAddress;\n        EVENT_DECK = CardDeck(eventDeck);\n        TREASURE_DECK = CardDeck(treasureDeck);\n        AMBUSH_DECK = CardDeck(ambushDeck);\n    }\n\n    function addVerifiedController(address vcAddress)\n        public\n        onlyRole(DEFAULT_ADMIN_ROLE)\n    {\n        grantRole(VERIFIED_CONTROLLER_ROLE, vcAddress);\n    }\n\n    function setQueue(address queueContract)\n        public\n        onlyRole(DEFAULT_ADMIN_ROLE)\n    {\n        QUEUE = HexplorationQueue(queueContract);\n        _setupRole(VERIFIED_CONTROLLER_ROLE, queueContract);\n    }\n\n    function setGameStateUpdate(address gsuAddress)\n        public\n        onlyRole(DEFAULT_ADMIN_ROLE)\n    {\n        GAME_STATE = HexplorationStateUpdate(gsuAddress);\n    }\n\n    // Test keeper functions\n    function needsUpkeep()\n        public\n        view\n        returns (bool upkeepNeeded, bytes memory performData)\n    {\n        upkeepNeeded = false;\n        uint256 queueIDToUpdate = 0;\n        uint256[] memory pq = QUEUE.getProcessingQueue();\n        for (uint256 i = 0; i < pq.length; i++) {\n            if (pq[i] != 0) {\n                queueIDToUpdate = pq[i];\n                upkeepNeeded = true;\n                break;\n            }\n        }\n        if (QUEUE.randomness(queueIDToUpdate) == 0) {\n            upkeepNeeded = false;\n        }\n\n        HexplorationQueue.ProcessingPhase phase = QUEUE.currentPhase(\n            queueIDToUpdate\n        );\n        // 2 = processing, 3 = play through, 4 = processed\n        if (phase == HexplorationQueue.ProcessingPhase.Processing) {\n            performData = getUpdateInfo(queueIDToUpdate, 2);\n        } else if (phase == HexplorationQueue.ProcessingPhase.PlayThrough) {\n            performData = getUpdateInfo(queueIDToUpdate, 3);\n        } else {\n            performData = getUpdateInfo(queueIDToUpdate, 4);\n        }\n    }\n\n    function doUpkeep(bytes calldata performData)\n        public\n        onlyRole(DEFAULT_ADMIN_ROLE)\n    {\n        DataSummary memory summary;\n        uint256 queueID;\n        uint256 processingPhase;\n        (\n            queueID,\n            processingPhase,\n            summary.playerPositionUpdates,\n            summary.playerStatUpdates,\n            summary.playerEquips,\n            summary.zoneTransfers,\n            summary.playerTransfers,\n            summary.activeActions\n        ) = abi.decode(\n            performData,\n            (\n                uint256,\n                uint256,\n                uint256,\n                uint256,\n                uint256,\n                uint256,\n                uint256,\n                uint256\n            )\n        );\n        if (processingPhase == 2) {\n            processPlayerActions(queueID, summary);\n        } else if (processingPhase == 3) {\n            processPlayThrough(queueID, summary);\n        }\n    }\n\n    // Keeper functions\n    function performUpkeep(bytes calldata performData) external override {\n        DataSummary memory summary;\n        uint256 queueID;\n        uint256 processingPhase;\n        (\n            queueID,\n            processingPhase,\n            summary.playerPositionUpdates,\n            summary.playerStatUpdates,\n            summary.playerEquips,\n            summary.zoneTransfers,\n            summary.playerTransfers,\n            summary.activeActions\n        ) = abi.decode(\n            performData,\n            (\n                uint256,\n                uint256,\n                uint256,\n                uint256,\n                uint256,\n                uint256,\n                uint256,\n                uint256\n            )\n        );\n        if (processingPhase == 2) {\n            processPlayerActions(queueID, summary);\n        } else if (processingPhase == 3) {\n            processPlayThrough(queueID, summary);\n        }\n    }\n\n    function checkUpkeep(\n        bytes calldata /* checkData */\n    )\n        external\n        view\n        override\n        returns (bool upkeepNeeded, bytes memory performData)\n    {\n        // check for list of queues that need updates...\n        upkeepNeeded = false;\n        uint256 queueIDToUpdate = 0;\n        uint256[] memory pq = QUEUE.getProcessingQueue();\n        for (uint256 i = 0; i < pq.length; i++) {\n            if (pq[i] != 0 && QUEUE.randomness(queueIDToUpdate) > 0) {\n                queueIDToUpdate = pq[i];\n                upkeepNeeded = true;\n                break;\n            }\n        }\n        HexplorationQueue.ProcessingPhase phase = QUEUE.currentPhase(\n            queueIDToUpdate\n        );\n        // 2 = processing, 3 = play through, 4 = processed\n        if (phase == HexplorationQueue.ProcessingPhase.Processing) {\n            performData = getUpdateInfo(queueIDToUpdate, 2);\n        } else if (phase == HexplorationQueue.ProcessingPhase.PlayThrough) {\n            performData = getUpdateInfo(queueIDToUpdate, 3);\n        } else {\n            performData = getUpdateInfo(queueIDToUpdate, 4);\n        }\n    }\n\n    function getUpdateInfo(uint256 queueID, uint256 processingPhase)\n        internal\n        view\n        returns (bytes memory)\n    {\n        DataSummary memory data = DataSummary(0, 0, 0, 0, 0, 0);\n        uint256[] memory playersInQueue = QUEUE.getAllPlayers(queueID);\n        for (uint256 i = 0; i < playersInQueue.length; i++) {\n            uint256 playerID = playersInQueue[i];\n            HexplorationQueue.Action action = QUEUE.submissionAction(\n                queueID,\n                playerID\n            );\n            if (action == HexplorationQueue.Action.Move) {\n                data.playerPositionUpdates += 1;\n            }\n            if (bytes(QUEUE.submissionLeftHand(queueID, playerID)).length > 0) {\n                data.playerEquips += 1;\n            }\n            if (\n                bytes(QUEUE.submissionRightHand(queueID, playerID)).length > 0\n            ) {\n                data.playerEquips += 1;\n            }\n            if (\n                action == HexplorationQueue.Action.SetupCamp ||\n                action == HexplorationQueue.Action.BreakDownCamp\n            ) {\n                data.zoneTransfers += 1;\n            }\n\n            if (\n                action == HexplorationQueue.Action.Dig ||\n                action == HexplorationQueue.Action.Rest ||\n                action == HexplorationQueue.Action.Help ||\n                action == HexplorationQueue.Action.SetupCamp ||\n                action == HexplorationQueue.Action.BreakDownCamp\n            ) {\n                data.activeActions += 1;\n            }\n\n            if (\n                action == HexplorationQueue.Action.Dig ||\n                action == HexplorationQueue.Action.Rest\n            ) {\n                data.playerStatUpdates += 1;\n            }\n        }\n        return (\n            abi.encode(\n                queueID,\n                processingPhase,\n                data.playerPositionUpdates,\n                data.playerStatUpdates,\n                data.playerEquips,\n                data.zoneTransfers,\n                data.playerTransfers,\n                data.activeActions\n            )\n        );\n    }\n\n    // Called by keeper\n    function processPlayerActions(uint256 queueID, DataSummary memory summary)\n        internal\n    {\n        uint256 gameID = QUEUE.game(queueID);\n        // TODO: save update struct with all the actions from queue (what was originally the ints array)\n        PlayUpdates memory playUpdates = playUpdatesForPlayerActionPhase(\n            queueID,\n            summary\n        );\n        GAME_STATE.postUpdates(playUpdates, gameID);\n        QUEUE.setPhase(HexplorationQueue.ProcessingPhase.PlayThrough, queueID);\n    }\n\n    function processPlayThrough(uint256 queueID, DataSummary memory summary)\n        internal\n    {\n        HexplorationQueue.ProcessingPhase phase = QUEUE.currentPhase(queueID);\n\n        if (QUEUE.randomness(queueID) != 0) {\n            if (phase == HexplorationQueue.ProcessingPhase.PlayThrough) {\n                uint256 gameID = QUEUE.game(queueID);\n                PlayUpdates memory playUpdates = playUpdatesForPlayThroughPhase(\n                    queueID,\n                    summary\n                );\n                // TODO: set this to true when game is finished\n                bool gameComplete = false;\n                GAME_STATE.postUpdates(playUpdates, gameID);\n                QUEUE.finishProcessing(queueID, gameComplete);\n            }\n        }\n    }\n\n    function playUpdatesForPlayerActionPhase(\n        uint256 queueID,\n        DataSummary memory summary\n    ) internal view returns (PlayUpdates memory) {\n        PlayUpdates memory playUpdates;\n\n        uint256[] memory playersInQueue = QUEUE.getAllPlayers(queueID);\n        uint256 position;\n        uint256 maxMovementPerPlayer = 7;\n        // Movement\n        playUpdates.playerPositionIDs = new uint256[](\n            summary.playerPositionUpdates\n        );\n        playUpdates.spacesToMove = new uint256[](summary.playerPositionUpdates);\n        playUpdates.playerMovementOptions = new string[7][](\n            summary.playerPositionUpdates\n        );\n        position = 0;\n        for (uint256 i = 0; i < playersInQueue.length; i++) {\n            if (\n                QUEUE.submissionAction(queueID, playersInQueue[i]) ==\n                HexplorationQueue.Action.Move\n            ) {\n                // return [player id, # spaces to move]\n\n                playUpdates.playerPositionIDs[position] = playersInQueue[i];\n                playUpdates.spacesToMove[position] = QUEUE\n                    .getSubmissionOptions(queueID, playersInQueue[i])\n                    .length;\n                string[] memory options = QUEUE.getSubmissionOptions(\n                    queueID,\n                    playersInQueue[i]\n                );\n                for (uint256 j = 0; j < maxMovementPerPlayer; j++) {\n                    playUpdates.playerMovementOptions[position][j] = j <\n                        options.length\n                        ? options[j]\n                        : \"\";\n                }\n                position++;\n            }\n        }\n\n        // LH equip\n        playUpdates.playerEquipIDs = new uint256[](summary.playerEquips);\n        playUpdates.playerEquipHands = new uint256[](summary.playerEquips);\n        playUpdates.playerEquips = new string[](summary.playerEquips);\n        position = 0;\n        for (uint256 i = 0; i < playersInQueue.length; i++) {\n            if (\n                bytes(QUEUE.submissionLeftHand(queueID, playersInQueue[i]))\n                    .length > 0\n            ) {\n                // return [player id, r/l hand (0/1)]\n\n                playUpdates.playerEquipIDs[position] = playersInQueue[i];\n                playUpdates.playerEquipHands[position] = 0;\n                playUpdates.playerEquips[position] = QUEUE.submissionLeftHand(\n                    queueID,\n                    playersInQueue[i]\n                );\n                position++;\n            }\n        }\n\n        // RH equip\n        for (uint256 i = 0; i < playersInQueue.length; i++) {\n            if (\n                bytes(QUEUE.submissionRightHand(queueID, playersInQueue[i]))\n                    .length > 0\n            ) {\n                // return [player id, r/l hand (0/1)]\n\n                playUpdates.playerEquipIDs[position] = playersInQueue[i];\n                playUpdates.playerEquipHands[position] = 1;\n                playUpdates.playerEquips[position] = QUEUE.submissionRightHand(\n                    queueID,\n                    playersInQueue[i]\n                );\n                position++;\n            }\n        }\n\n        // Camp actions\n        playUpdates.zoneTransfersTo = new uint256[](summary.zoneTransfers);\n        playUpdates.zoneTransfersFrom = new uint256[](summary.zoneTransfers);\n        playUpdates.zoneTransferQtys = new uint256[](summary.zoneTransfers);\n        playUpdates.zoneTransferItemTypes = new string[](summary.zoneTransfers);\n        position = 0;\n        for (uint256 i = 0; i < playersInQueue.length; i++) {\n            if (\n                QUEUE.submissionAction(queueID, playersInQueue[i]) ==\n                HexplorationQueue.Action.SetupCamp\n            ) {\n                // setup camp\n                // transfer from player to zone\n                // return [to ID, from ID, quantity]\n                // Transfer 1 campsite from player to current zone\n\n                playUpdates.zoneTransfersTo[position] = 10000000000; //10000000000 represents current play zone of player\n                playUpdates.zoneTransfersFrom[position] = playersInQueue[i];\n                playUpdates.zoneTransferQtys[position] = 1;\n                playUpdates.zoneTransferItemTypes[position] = \"Campsite\";\n                position++;\n            }\n        }\n\n        for (uint256 i = 0; i < playersInQueue.length; i++) {\n            if (\n                QUEUE.submissionAction(queueID, playersInQueue[i]) ==\n                HexplorationQueue.Action.BreakDownCamp\n            ) {\n                // break down camp\n                // transfer from zone to player\n                playUpdates.zoneTransfersTo[position] = playersInQueue[i];\n                playUpdates.zoneTransfersFrom[position] = 10000000000;\n                playUpdates.zoneTransferQtys[position] = 1;\n                playUpdates.zoneTransferItemTypes[position] = \"Campsite\";\n                position++;\n            }\n        }\n\n        playUpdates.playerActiveActionIDs = new uint256[](\n            summary.activeActions\n        );\n        playUpdates.activeActions = new string[](summary.activeActions);\n        playUpdates.activeActionOptions = new string[](summary.activeActions);\n        playUpdates.activeActionResults = new uint256[](summary.activeActions);\n        playUpdates.activeActionResultCards = new string[2][](\n            summary.activeActions\n        );\n        playUpdates.playerStatUpdates = new int256[3][](\n            summary.playerStatUpdates\n        );\n        position = 0;\n        // Draw cards for dig this phase\n        for (uint256 i = 0; i < playersInQueue.length; i++) {\n            if (\n                QUEUE.submissionAction(queueID, playersInQueue[i]) ==\n                HexplorationQueue.Action.SetupCamp\n            ) {\n                playUpdates.activeActions[position] = \"Setup camp\";\n                playUpdates.activeActionOptions[position] = \"\";\n                playUpdates.playerActiveActionIDs[position] = playersInQueue[i];\n                position++;\n            } else if (\n                QUEUE.submissionAction(queueID, playersInQueue[i]) ==\n                HexplorationQueue.Action.BreakDownCamp\n            ) {\n                playUpdates.activeActions[position] = \"Break down camp\";\n                playUpdates.activeActionOptions[position] = \"\";\n                position++;\n            } else if (\n                QUEUE.submissionAction(queueID, playersInQueue[i]) ==\n                HexplorationQueue.Action.Dig\n            ) {\n                playUpdates.activeActions[position] = \"Dig\";\n                playUpdates.activeActionOptions[position] = \"\";\n                playUpdates.activeActionResults[position] = dig(\n                    queueID,\n                    playersInQueue[i]\n                );\n                // TODO: apply effects of dig card\n                //playUpdates.activeActionResultCards[position] = card name\n                //playUpdates.playerStatUpdates = [x,x,x] // ints\n                // add to play updates\n                position++;\n            } else if (\n                QUEUE.submissionAction(queueID, playersInQueue[i]) ==\n                HexplorationQueue.Action.Rest\n            ) {\n                playUpdates.activeActions[position] = \"Rest\";\n                playUpdates.activeActionOptions[position] = QUEUE\n                    .submissionOptions(queueID, playersInQueue[i], 0);\n                // TODO:\n                // apply effects of rest here\n                position++;\n            } else if (\n                QUEUE.submissionAction(queueID, playersInQueue[i]) ==\n                HexplorationQueue.Action.Help\n            ) {\n                // TODO: use this...\n                playUpdates.activeActions[position] = \"Help\";\n                playUpdates.activeActionOptions[position] = QUEUE\n                    .submissionOptions(queueID, playersInQueue[i], 0);\n                position++;\n            }\n        }\n        playUpdates.randomness = QUEUE.randomness(queueID);\n\n        // only need to store current action as digging, resting, and play out during play phase\n\n        return playUpdates;\n    }\n\n    function playUpdatesForPlayThroughPhase(\n        uint256 queueID,\n        DataSummary memory summary\n    ) internal view returns (PlayUpdates memory) {\n        PlayUpdates memory playUpdates;\n        /*\n        // TODO: update to actual game phase at appropriate time...\n        HexplorationQueue.ProcessingPhase phase = QUEUE.currentPhase(queueID);\n\n        // TODO: set this to true when game is finished\n        bool gameComplete = false;\n\n        uint256 gameID = QUEUE.game(queueID);\n        //uint256 gameID = QUEUE.game(queueID);\n        // uint256 totalPlayers = PlayerRegistry(GAME_BOARD.prAddress())\n        //     .totalRegistrations(QUEUE.game(queueID));\n        CharacterCard cc = CharacterCard(GAME_BOARD.characterCard());\n\n        // setup endgame\n\n        //TODO:\n        // check current phase (day / night)\n        string memory currentPhase = \"Day\";\n        bool isDay = stringsMatch(currentPhase, \"Day\");\n        bool setupEndGame = false;\n        for (\n            uint256 i = 0;\n            i <\n            PlayerRegistry(GAME_BOARD.prAddress()).totalRegistrations(\n                QUEUE.game(queueID)\n            );\n            i++\n        ) {\n            uint256 playerID = i + 1;\n            uint256 activeAction = uint256(\n                QUEUE.activeAction(queueID, playerID)\n            );\n            if (activeAction == 4) {\n                // dig\n                if (stringsMatch(dig(queueID, playerID), \"Treasure\")) {\n                    // dug treasure! pick treasure card\n                    // if final artifact is found, setupEndGame = true;\n                } else {\n                    // dug ambush...\n                    // play out consequences\n                }\n            } else if (activeAction == 5) {\n                // rest\n                string memory restChoice = QUEUE.submissionOptions(\n                    queueID,\n                    playerID,\n                    0\n                );\n                if (stringsMatch(restChoice, \"Movement\")) {\n                    // add 1 to movement\n                } else if (stringsMatch(restChoice, \"Agility\")) {\n                    // add 1 to agility\n                } else if (stringsMatch(restChoice, \"Dexterity\")) {\n                    // add 1 to dexterity\n                }\n            } else if (activeAction == 6) {\n                //help\n                // set player ID to help (options) as string choice\n            }\n\n            // to get current player stats...\n            // cc.movement(gameID, playerID) => returns uint8\n            // cc.agility(gameID, playerID) => returns uint8\n            // cc.dexterity(gameID, playerID) => returns uint8\n\n            //to subtract from player stats...\n            //subToZero(uint256(playerStat), reductionAmount);\n            // can submit numbers higher than max here, but won't actually get set to those\n            // will get set to max if max exceeded\n        }\n\n        if (setupEndGame) {\n            // setup end game...\n        }\n        // update Phase (Day / Night);\n        playUpdates.gamePhase = isDay ? \"Night\" : \"Day\";\n\n        if (isDay) {\n            for (\n                uint256 i = 0;\n                i <\n                PlayerRegistry(GAME_BOARD.prAddress()).totalRegistrations(\n                    QUEUE.game(queueID)\n                );\n                i++\n            ) {\n                uint256 playerID = i + 1;\n                // if Day,\n                // roll D6\n                // if EVEN - Choose Event Card + calculate results + save to data\n                // if ODD - Choose Ambush Card + calculate results + save to data\n            }\n        }\n        */\n        return playUpdates;\n    }\n\n    /*\n\n        for (uint256 i = 0; i < playersInQueue.length; i++) {\n            if (\n                QUEUE.submissionAction(queueID, playersInQueue[i]) ==\n                HexplorationQueue.Action.SetupCamp\n            ) {\n                stringReturn[currentArrayPosition] = \"Setup camp\";\n                stringReturn[currentArrayPosition + 1] = \"\";\n                currentArrayPosition += 2;\n            } else if (\n                QUEUE.submissionAction(queueID, playersInQueue[i]) ==\n                HexplorationQueue.Action.BreakDownCamp\n            ) {\n                stringReturn[currentArrayPosition] = \"Break down camp\";\n                stringReturn[currentArrayPosition + 1] = \"\";\n                currentArrayPosition += 2;\n            } else if (\n                QUEUE.submissionAction(queueID, playersInQueue[i]) ==\n                HexplorationQueue.Action.Dig\n            ) {\n                stringReturn[currentArrayPosition] = \"Dig\";\n                stringReturn[currentArrayPosition + 1] = \"\";\n                currentArrayPosition += 2;\n            } else if (\n                QUEUE.submissionAction(queueID, playersInQueue[i]) ==\n                HexplorationQueue.Action.Rest\n            ) {\n                stringReturn[currentArrayPosition] = \"Rest\";\n                stringReturn[currentArrayPosition + 1] = QUEUE\n                    .submissionOptions(queueID, playersInQueue[i], 0);\n                currentArrayPosition += 2;\n            } else if (\n                QUEUE.submissionAction(queueID, playersInQueue[i]) ==\n                HexplorationQueue.Action.Help\n            ) {\n                stringReturn[currentArrayPosition] = \"Help\";\n                stringReturn[currentArrayPosition + 1] = QUEUE\n                    .submissionOptions(queueID, playersInQueue[i], 0);\n                currentArrayPosition += 2;\n            }\n        }\n\n        // Dig\n        for (uint256 i = 0; i < playersInQueue.length; i++) {\n            if (\n                QUEUE.submissionAction(queueID, playersInQueue[i]) ==\n                HexplorationQueue.Action.Dig\n            ) {\n                stringReturn[currentArrayPosition] = \"Dig\";\n                stringReturn[currentArrayPosition + 1] = \"\";\n                currentArrayPosition += 2;\n            }\n        }\n\n        //Rest\n        for (uint256 i = 0; i < playersInQueue.length; i++) {\n            if (\n                QUEUE.submissionAction(queueID, playersInQueue[i]) ==\n                HexplorationQueue.Action.Rest\n            ) {\n                stringReturn[currentArrayPosition] = \"Rest\";\n                stringReturn[currentArrayPosition + 1] = QUEUE\n                    .submissionOptions(queueID, playersInQueue[i], 0);\n                currentArrayPosition += 2;\n            }\n        }\n\n        // Help\n        for (uint256 i = 0; i < playersInQueue.length; i++) {\n            if (\n                QUEUE.submissionAction(queueID, playersInQueue[i]) ==\n                HexplorationQueue.Action.Help\n            ) {\n                stringReturn[currentArrayPosition] = \"Help\";\n                stringReturn[currentArrayPosition + 1] = QUEUE\n                    .submissionOptions(queueID, playersInQueue[i], 0);\n                currentArrayPosition += 2;\n            }\n        }\n        // set movement zones\n        return stringReturn;\n*/\n    function dig(uint256 queueID, uint256 playerID)\n        public\n        view\n        returns (uint256 resultType)\n    {\n        // if digging available...\n        // roll dice (d6) for each player on space not resting\n        // if sum of rolls is greater than 5 during night win treasure\n        // if sum of rolls is greater than 4 during day win treasure\n        // return \"Treasure\" or \"Ambush\"\n        // Result types: 0 = None, 1 = Event, 2 = Ambush, 3 = Treasure\n    }\n\n    function drawCard(\n        uint256 cardType,\n        uint256 queueID,\n        uint256 playerID\n    )\n        internal\n        view\n        returns (\n            string memory card,\n            int8[3] memory stats,\n            string memory itemTypeLoss,\n            string memory itemTypeGain,\n            string memory handLoss,\n            string memory outcome\n        )\n    {\n        /*\n        card,\n            movementAdjust[card][rollIndex],\n            agilityAdjust[card][rollIndex],\n            dexterityAdjust[card][rollIndex],\n            itemLoss[card][rollIndex],\n            itemGain[card][rollIndex],\n            handLoss[card][rollIndex],\n            outcomeDescription[card][rollIndex]\n        */\n\n        // get randomness from queue  QUEUE.randomness(queueID)\n        // outputs should match up with what's returned from deck draw\n        address cardAddress;\n        uint256[3] memory rolls;\n        rolls[0] = 1;\n        rolls[1] = 2;\n        rolls[2] = 3;\n        if (cardType == 1) {\n            // draw from event deck\n            (\n                card,\n                stats[0],\n                stats[1],\n                stats[2],\n                itemTypeLoss,\n                itemTypeGain,\n                handLoss,\n                outcome\n            ) = EVENT_DECK.drawCard(QUEUE.randomness(queueID), rolls);\n        } else if (cardType == 2) {\n            // draw from ambush deck\n            (\n                card,\n                stats[0],\n                stats[1],\n                stats[2],\n                itemTypeLoss,\n                itemTypeGain,\n                handLoss,\n                outcome\n            ) = AMBUSH_DECK.drawCard(QUEUE.randomness(queueID), rolls);\n        } else {\n            // draw from treasure deck\n            (\n                card,\n                stats[0],\n                stats[1],\n                stats[2],\n                itemTypeLoss,\n                itemTypeGain,\n                handLoss,\n                outcome\n            ) = TREASURE_DECK.drawCard(QUEUE.randomness(queueID), rolls);\n        }\n    }\n\n    function attributeRoll(\n        uint256 numDice,\n        uint256 queueID,\n        uint256 rollSeed\n    ) public view returns (uint256 rollTotal, uint256[] memory allDice) {\n        uint8[] memory die = new uint8[](3);\n        die[0] = 0;\n        die[1] = 1;\n        die[2] = 2;\n        (rollTotal, allDice) = rollDice(queueID, die, numDice, rollSeed);\n    }\n\n    function d6Roll(\n        uint256 numDice,\n        uint256 queueID,\n        uint256 rollSeed\n    ) public view returns (uint256 rollTotal, uint256[] memory allDice) {\n        uint8[] memory die = new uint8[](6);\n        die[0] = 1;\n        die[1] = 2;\n        die[2] = 3;\n        die[3] = 4;\n        die[4] = 5;\n        die[5] = 6;\n        (rollTotal, allDice) = rollDice(queueID, die, numDice, rollSeed);\n    }\n\n    function rollDice(\n        uint256 queueID,\n        uint8[] memory diceValues,\n        uint256 diceQty,\n        uint256 rollSeed\n    ) internal view returns (uint256 rollTotal, uint256[] memory allDice) {\n        rollTotal = 0;\n        allDice = new uint256[](diceQty);\n        uint256 randomness = QUEUE.randomness(queueID);\n        for (uint256 i = 0; i < diceQty; i++) {\n            allDice[i] = diceValues[\n                uint256(keccak256(abi.encode(randomness, i, rollSeed))) %\n                    diceValues.length\n            ];\n            rollTotal += allDice[i];\n        }\n    }\n\n    // Utilities\n    function stringsMatch(string memory s1, string memory s2)\n        internal\n        pure\n        returns (bool)\n    {\n        return\n            keccak256(abi.encodePacked(s1)) == keccak256(abi.encodePacked(s2));\n    }\n\n    // returns a - b or 0 if negative;\n    function subToZero(uint256 a, uint256 b)\n        internal\n        pure\n        returns (uint256 difference)\n    {\n        difference = a > b ? a - b : 0;\n    }\n\n    function absoluteValue(int256 x) internal pure returns (uint256 absX) {\n        absX = x >= 0 ? uint256(x) : uint256(-x);\n    }\n}\n\n// What is processing?\n// take all moves from batch, verify are valid moves, and\n// return list of final moves to process\n// keeper will post list of final moves to contract,\n//// *shouldn't be able to fail if it got this far\n// moves that failed pre-check will be returned as another list that will get logged in an event\n\n// Initial thoughts for scaling...\n// figure out most expensive move and only do as many as can be safely completed\n// in one transaction\n// start at currentQueuePosition\n// after each move is processed currentQueuePosition++\n// on after final batch, switch day / night and\n// set QUEUE.setPhase(HexplorationQueue.ProcessingPhase.PlayThrough, queueID);\n",
  "sourcePath": "/Users/maxmeier/Developer/Lucky Machines/hexploration/contracts/HexplorationGameplay.sol",
  "compiler": {
    "name": "solc",
    "version": "0.8.11+commit.d7f03943.Emscripten.clang"
  },
  "schemaVersion": "3.4.4",
  "updatedAt": "2022-05-26T15:56:50.732Z",
  "devdoc": {
    "kind": "dev",
    "methods": {
      "getRoleAdmin(bytes32)": {
        "details": "Returns the admin role that controls `role`. See {grantRole} and {revokeRole}. To change a role's admin, use {_setRoleAdmin}."
      },
      "getRoleMember(bytes32,uint256)": {
        "details": "Returns one of the accounts that have `role`. `index` must be a value between 0 and {getRoleMemberCount}, non-inclusive. Role bearers are not sorted in any particular way, and their ordering may change at any point. WARNING: When using {getRoleMember} and {getRoleMemberCount}, make sure you perform all queries on the same block. See the following https://forum.openzeppelin.com/t/iterating-over-elements-on-enumerableset-in-openzeppelin-contracts/2296[forum post] for more information."
      },
      "getRoleMemberCount(bytes32)": {
        "details": "Returns the number of accounts that have `role`. Can be used together with {getRoleMember} to enumerate all bearers of a role."
      },
      "grantRole(bytes32,address)": {
        "details": "Grants `role` to `account`. If `account` had not been already granted `role`, emits a {RoleGranted} event. Requirements: - the caller must have ``role``'s admin role."
      },
      "hasRole(bytes32,address)": {
        "details": "Returns `true` if `account` has been granted `role`."
      },
      "performUpkeep(bytes)": {
        "details": "The input to this method should not be trusted, and the caller of the method should not even be restricted to any single registry. Anyone should be able call it, and the input should be validated, there is no guarantee that the data passed in is the performData returned from checkUpkeep. This could happen due to malicious keepers, racing keepers, or simply a state change while the performUpkeep transaction is waiting for confirmation. Always validate the data passed in.",
        "params": {
          "performData": "is the data which was passed back from the checkData simulation. If it is encoded, it can easily be decoded into other types by calling `abi.decode`. This data should not be trusted, and should be validated against the contract's current state."
        }
      },
      "renounceRole(bytes32,address)": {
        "details": "Revokes `role` from the calling account. Roles are often managed via {grantRole} and {revokeRole}: this function's purpose is to provide a mechanism for accounts to lose their privileges if they are compromised (such as when a trusted device is misplaced). If the calling account had been revoked `role`, emits a {RoleRevoked} event. Requirements: - the caller must be `account`."
      },
      "revokeRole(bytes32,address)": {
        "details": "Revokes `role` from `account`. If `account` had been granted `role`, emits a {RoleRevoked} event. Requirements: - the caller must have ``role``'s admin role."
      },
      "supportsInterface(bytes4)": {
        "details": "See {IERC165-supportsInterface}."
      }
    },
    "version": 1
  },
  "userdoc": {
    "kind": "user",
    "methods": {
      "performUpkeep(bytes)": {
        "notice": "method that is actually executed by the keepers, via the registry. The data returned by the checkUpkeep simulation will be passed into this method to actually be executed."
      }
    },
    "version": 1
  }
}