{
  "contractName": "HexplorationController",
  "abi": [
    {
      "inputs": [
        {
          "internalType": "address",
          "name": "adminAddress",
          "type": "address"
        }
      ],
      "stateMutability": "nonpayable",
      "type": "constructor"
    },
    {
      "anonymous": false,
      "inputs": [
        {
          "indexed": true,
          "internalType": "bytes32",
          "name": "role",
          "type": "bytes32"
        },
        {
          "indexed": true,
          "internalType": "bytes32",
          "name": "previousAdminRole",
          "type": "bytes32"
        },
        {
          "indexed": true,
          "internalType": "bytes32",
          "name": "newAdminRole",
          "type": "bytes32"
        }
      ],
      "name": "RoleAdminChanged",
      "type": "event"
    },
    {
      "anonymous": false,
      "inputs": [
        {
          "indexed": true,
          "internalType": "bytes32",
          "name": "role",
          "type": "bytes32"
        },
        {
          "indexed": true,
          "internalType": "address",
          "name": "account",
          "type": "address"
        },
        {
          "indexed": true,
          "internalType": "address",
          "name": "sender",
          "type": "address"
        }
      ],
      "name": "RoleGranted",
      "type": "event"
    },
    {
      "anonymous": false,
      "inputs": [
        {
          "indexed": true,
          "internalType": "bytes32",
          "name": "role",
          "type": "bytes32"
        },
        {
          "indexed": true,
          "internalType": "address",
          "name": "account",
          "type": "address"
        },
        {
          "indexed": true,
          "internalType": "address",
          "name": "sender",
          "type": "address"
        }
      ],
      "name": "RoleRevoked",
      "type": "event"
    },
    {
      "inputs": [],
      "name": "DEFAULT_ADMIN_ROLE",
      "outputs": [
        {
          "internalType": "bytes32",
          "name": "",
          "type": "bytes32"
        }
      ],
      "stateMutability": "view",
      "type": "function"
    },
    {
      "inputs": [],
      "name": "KEEPER_ROLE",
      "outputs": [
        {
          "internalType": "bytes32",
          "name": "",
          "type": "bytes32"
        }
      ],
      "stateMutability": "view",
      "type": "function"
    },
    {
      "inputs": [
        {
          "internalType": "uint256",
          "name": "pathIndex",
          "type": "uint256"
        },
        {
          "internalType": "uint256",
          "name": "gameID",
          "type": "uint256"
        },
        {
          "internalType": "address",
          "name": "gameBoardAddress",
          "type": "address"
        }
      ],
      "name": "exitToPath",
      "outputs": [],
      "stateMutability": "nonpayable",
      "type": "function"
    },
    {
      "inputs": [
        {
          "internalType": "bytes32",
          "name": "role",
          "type": "bytes32"
        }
      ],
      "name": "getRoleAdmin",
      "outputs": [
        {
          "internalType": "bytes32",
          "name": "",
          "type": "bytes32"
        }
      ],
      "stateMutability": "view",
      "type": "function"
    },
    {
      "inputs": [
        {
          "internalType": "bytes32",
          "name": "role",
          "type": "bytes32"
        },
        {
          "internalType": "uint256",
          "name": "index",
          "type": "uint256"
        }
      ],
      "name": "getRoleMember",
      "outputs": [
        {
          "internalType": "address",
          "name": "",
          "type": "address"
        }
      ],
      "stateMutability": "view",
      "type": "function"
    },
    {
      "inputs": [
        {
          "internalType": "bytes32",
          "name": "role",
          "type": "bytes32"
        }
      ],
      "name": "getRoleMemberCount",
      "outputs": [
        {
          "internalType": "uint256",
          "name": "",
          "type": "uint256"
        }
      ],
      "stateMutability": "view",
      "type": "function"
    },
    {
      "inputs": [
        {
          "internalType": "bytes32",
          "name": "role",
          "type": "bytes32"
        },
        {
          "internalType": "address",
          "name": "account",
          "type": "address"
        }
      ],
      "name": "grantRole",
      "outputs": [],
      "stateMutability": "nonpayable",
      "type": "function"
    },
    {
      "inputs": [
        {
          "internalType": "bytes32",
          "name": "role",
          "type": "bytes32"
        },
        {
          "internalType": "address",
          "name": "account",
          "type": "address"
        }
      ],
      "name": "hasRole",
      "outputs": [
        {
          "internalType": "bool",
          "name": "",
          "type": "bool"
        }
      ],
      "stateMutability": "view",
      "type": "function"
    },
    {
      "inputs": [
        {
          "internalType": "bytes32",
          "name": "role",
          "type": "bytes32"
        },
        {
          "internalType": "address",
          "name": "account",
          "type": "address"
        }
      ],
      "name": "renounceRole",
      "outputs": [],
      "stateMutability": "nonpayable",
      "type": "function"
    },
    {
      "inputs": [
        {
          "internalType": "bytes32",
          "name": "role",
          "type": "bytes32"
        },
        {
          "internalType": "address",
          "name": "account",
          "type": "address"
        }
      ],
      "name": "revokeRole",
      "outputs": [],
      "stateMutability": "nonpayable",
      "type": "function"
    },
    {
      "inputs": [
        {
          "internalType": "bytes4",
          "name": "interfaceId",
          "type": "bytes4"
        }
      ],
      "name": "supportsInterface",
      "outputs": [
        {
          "internalType": "bool",
          "name": "",
          "type": "bool"
        }
      ],
      "stateMutability": "view",
      "type": "function"
    },
    {
      "inputs": [
        {
          "internalType": "address",
          "name": "dayNightAddress",
          "type": "address"
        },
        {
          "internalType": "address",
          "name": "disasterAddress",
          "type": "address"
        },
        {
          "internalType": "address",
          "name": "enemyAddress",
          "type": "address"
        },
        {
          "internalType": "address",
          "name": "itemAddress",
          "type": "address"
        },
        {
          "internalType": "address",
          "name": "playerStatusAddress",
          "type": "address"
        }
      ],
      "name": "setTokenAddresses",
      "outputs": [],
      "stateMutability": "nonpayable",
      "type": "function"
    },
    {
      "inputs": [
        {
          "internalType": "address",
          "name": "keeperAddress",
          "type": "address"
        }
      ],
      "name": "addKeeper",
      "outputs": [],
      "stateMutability": "nonpayable",
      "type": "function"
    },
    {
      "inputs": [
        {
          "internalType": "address",
          "name": "boardAddress",
          "type": "address"
        }
      ],
      "name": "runBoardUpdate",
      "outputs": [],
      "stateMutability": "nonpayable",
      "type": "function"
    },
    {
      "inputs": [
        {
          "internalType": "uint256",
          "name": "gameID",
          "type": "uint256"
        },
        {
          "internalType": "address",
          "name": "boardAddress",
          "type": "address"
        }
      ],
      "name": "startGame",
      "outputs": [],
      "stateMutability": "nonpayable",
      "type": "function"
    },
    {
      "inputs": [
        {
          "internalType": "uint256",
          "name": "gameID",
          "type": "uint256"
        },
        {
          "internalType": "address",
          "name": "boardAddress",
          "type": "address"
        }
      ],
      "name": "registerForGame",
      "outputs": [],
      "stateMutability": "nonpayable",
      "type": "function"
    },
    {
      "inputs": [
        {
          "internalType": "string[]",
          "name": "zonePath",
          "type": "string[]"
        },
        {
          "internalType": "uint256",
          "name": "gameID",
          "type": "uint256"
        },
        {
          "internalType": "address",
          "name": "boardAddress",
          "type": "address"
        }
      ],
      "name": "moveThroughPath",
      "outputs": [],
      "stateMutability": "nonpayable",
      "type": "function"
    },
    {
      "inputs": [
        {
          "internalType": "string",
          "name": "zoneChoice",
          "type": "string"
        },
        {
          "internalType": "uint256",
          "name": "gameID",
          "type": "uint256"
        },
        {
          "internalType": "address",
          "name": "boardAddress",
          "type": "address"
        }
      ],
      "name": "chooseLandingSite",
      "outputs": [],
      "stateMutability": "nonpayable",
      "type": "function"
    },
    {
      "inputs": [
        {
          "internalType": "address",
          "name": "gameRegistryAddress",
          "type": "address"
        },
        {
          "internalType": "address",
          "name": "boardAddress",
          "type": "address"
        }
      ],
      "name": "requestNewGame",
      "outputs": [],
      "stateMutability": "nonpayable",
      "type": "function"
    },
    {
      "inputs": [
        {
          "internalType": "address",
          "name": "gameRegistryAddress",
          "type": "address"
        },
        {
          "internalType": "address",
          "name": "boardAddress",
          "type": "address"
        }
      ],
      "name": "latestGame",
      "outputs": [
        {
          "internalType": "uint256",
          "name": "",
          "type": "uint256"
        }
      ],
      "stateMutability": "view",
      "type": "function"
    }
  ],
  "bytecode": "0x60806040523480156200001157600080fd5b5060405162002e8938038062002e89833981016040819052620000349162000215565b806200004b60008264010000000062000053810204565b505062000247565b6200006882826401000000006200006c810204565b5050565b62000086828264010000000062001d6d620000b382021704565b6000828152600160205260409020620000ae908264010000000062001df16200014f82021704565b505050565b620000c8828264010000000062000178810204565b6200006857600082815260208181526040808320600160a060020a03851684529091529020805460ff191660011790556200010b640100000000620001a1810204565b600160a060020a031681600160a060020a0316837f2f8788117e7eff1d82e926ec794901d17c78024a50270940304540a733656f0d60405160405180910390a45050565b60006200016f83600160a060020a038416640100000000620001a5810204565b90505b92915050565b600091825260208281526040808420600160a060020a0393909316845291905290205460ff1690565b3390565b6000620001bc8383640100000000620001fd810204565b620001f45750815460018181018455600084815260208082209093018490558454848252828601909352604090209190915562000172565b50600062000172565b60009081526001919091016020526040902054151590565b6000602082840312156200022857600080fd5b8151600160a060020a03811681146200024057600080fd5b9392505050565b612c3280620002576000396000f3fe608060405234801561001057600080fd5b50600436106101305760003560e060020a900480637479c8fe116100b1578063c3ef701311610075578063c3ef7013146102a8578063ca15c873146102bb578063d547741f146102ce578063e8b35086146102e1578063f3297df9146102f457600080fd5b80637479c8fe1461023c5780639010d07c1461024f57806391d148541461027a578063975eef261461028d578063a217fddf146102a057600080fd5b806336568abe116100f857806336568abe146101dd5780634032b72b146101f05780634bde808c14610203578063621cc08d14610216578063661e05661461022957600080fd5b806301ffc9a714610135578063248a9ca31461015d57806329a461d61461018e5780632f2ff15d146101a3578063364bc15a146101b6575b600080fd5b61014861014336600461236b565b610307565b60405190151581526020015b60405180910390f35b61018061016b366004612395565b60009081526020819052604090206001015490565b604051908152602001610154565b6101a161019c3660046123d3565b61034b565b005b6101a16101b13660046123d3565b6104c5565b6101807ffc8737ab85eb45125971625a9ebdb75cc78e01d5c1fa80c4c6e5203f47bc4fab81565b6101a16101eb3660046123d3565b6104ef565b6101a16101fe366004612403565b610583565b6101a16102113660046124e8565b6105b8565b6101a16102243660046123d3565b61084a565b6101a16102373660046125c4565b61186e565b6101a161024a3660046125f2565b6118b8565b61026261025d36600461262b565b61194f565b604051600160a060020a039091168152602001610154565b6101486102883660046123d3565b61196e565b61018061029b3660046125c4565b611997565b610180600081565b6101a16102b6366004612403565b611a1e565b6101806102c9366004612395565b611a77565b6101a16102dc3660046123d3565b611a8e565b6101a16102ef36600461264d565b611ab3565b6101a16103023660046126be565b611b2b565b6000600160e060020a031982167f5a05180f000000000000000000000000000000000000000000000000000000001480610345575061034582611e06565b92915050565b6040517f9aabe36d000000000000000000000000000000000000000000000000000000008152336004820152602481018390528190600160a060020a03821690639aabe36d90604401600060405180830381600087803b1580156103ae57600080fd5b505af11580156103c2573d6000803e3d6000fd5b5050505080600160a060020a03166324a5f50e6040518163ffffffff1660e060020a028152600401602060405180830381865afa158015610407573d6000803e3d6000fd5b505050506040513d601f19601f8201168201806040525081019061042b919061270e565b6040805160608101825260048082526020820181905281830181905291517ff5386d70000000000000000000000000000000000000000000000000000000008152600160a060020a03939093169263f5386d709261048e9291889133910161272b565b600060405180830381600087803b1580156104a857600080fd5b505af11580156104bc573d6000803e3d6000fd5b50505050505050565b6000828152602081905260409020600101546104e081611e6d565b6104ea8383611e7a565b505050565b600160a060020a03811633146105755760405160e560020a62461bcd02815260206004820152602f60248201527f416363657373436f6e74726f6c3a2063616e206f6e6c792072656e6f756e636560448201527f20726f6c657320666f722073656c66000000000000000000000000000000000060648201526084015b60405180910390fd5b61057f8282611e9c565b5050565b600061058e81611e6d565b61057f7ffc8737ab85eb45125971625a9ebdb75cc78e01d5c1fa80c4c6e5203f47bc4fab836104c5565b6000819050600081600160a060020a031663c06dea4e6040518163ffffffff1660e060020a028152600401602060405180830381865afa158015610600573d6000803e3d6000fd5b505050506040513d601f19601f82011682018060405250810190610624919061270e565b6040517fb81f6e1800000000000000000000000000000000000000000000000000000000815260048101869052336024820152909150600160a060020a0382169063b81f6e1890604401602060405180830381865afa15801561068b573d6000803e3d6000fd5b505050506040513d601f19601f820116820180604052508101906106af9190612776565b6106fe5760405160e560020a62461bcd02815260206004820152601560248201527f706c61796572206e6f7420726567697374657265640000000000000000000000604482015260640161056c565b6000855167ffffffffffffffff81111561071a5761071a612420565b604051908082528060200260200182016040528015610743578160200160208202803683370190505b50905060005b86518110156107c457801561076e5780600114610767576004610771565b6002610771565b60015b82828151811061078357610783612798565b6020026020010190600b81111561079c5761079c6127b1565b9081600b8111156107af576107af6127b1565b905250806107bc816127e3565b915050610749565b506040517f31e019f6000000000000000000000000000000000000000000000000000000008152600160a060020a038516906331e019f69061081090899033908a90879060040161287b565b600060405180830381600087803b15801561082a57600080fd5b505af115801561083e573d6000803e3d6000fd5b50505050505050505050565b6040517f4e0e1a3e000000000000000000000000000000000000000000000000000000008152600481018390528190600160a060020a03821690634e0e1a3e90602401602060405180830381865afa1580156108aa573d6000803e3d6000fd5b505050506040513d601f19601f820116820180604052508101906108ce9190612934565b1561091e5760405160e560020a62461bcd02815260206004820152601460248201527f67616d6520616c72656164792073746172746564000000000000000000000000604482015260640161056c565b600081600160a060020a031663c06dea4e6040518163ffffffff1660e060020a028152600401602060405180830381865afa158015610961573d6000803e3d6000fd5b505050506040513d601f19601f82011682018060405250810190610985919061270e565b6040517f60c2050000000000000000000000000000000000000000000000000000000000815260048101869052909150600160a060020a038316906360c2050090602401600060405180830381600087803b1580156109e357600080fd5b505af11580156109f7573d6000803e3d6000fd5b50506040517fb77ff4110000000000000000000000000000000000000000000000000000000081526004810187905260009250600160a060020a038416915063b77ff41190602401602060405180830381865afa158015610a5c573d6000803e3d6000fd5b505050506040513d601f19601f82011682018060405250810190610a809190612934565b6040517feb33983d00000000000000000000000000000000000000000000000000000000815260048101879052909150600090600160a060020a0385169063eb33983d90602401600060405180830381865afa158015610ae4573d6000803e3d6000fd5b505050506040513d6000823e601f3d908101601f19168201604052610b0c919081019061294d565b905060005b82811015610c2b576000600160a060020a03851663f504325489610b368560016129c4565b60405160e060020a63ffffffff851602815260048101929092526024820152604401602060405180830381865afa158015610b75573d6000803e3d6000fd5b505050506040513d601f19601f82011682018060405250810190610b99919061270e565b6040517f98bd7572000000000000000000000000000000000000000000000000000000008152909150600160a060020a038716906398bd757290610be59084908c9088906004016129dc565b600060405180830381600087803b158015610bff57600080fd5b505af1158015610c13573d6000803e3d6000fd5b50505050508080610c23906127e3565b915050610b11565b506040517f76a321c10000000000000000000000000000000000000000000000000000000081526002600482015260248101879052600160a060020a038516906376a321c190604401600060405180830381600087803b158015610c8e57600080fd5b505af1158015610ca2573d6000803e3d6000fd5b505060025460405160e060020a631c635ded028152600160a060020a039091169250631c635ded9150610cdc908990600190600401612a04565b600060405180830381600087803b158015610cf657600080fd5b505af1158015610d0a573d6000803e3d6000fd5b505060025460405160e060020a631c635ded02815260606004820152600560648201527f4e696768740000000000000000000000000000000000000000000000000000006084820152602481018a905260016044820152600160a060020a039091169250631c635ded915060a401600060405180830381600087803b158015610d9257600080fd5b505af1158015610da6573d6000803e3d6000fd5b505060035460405160e060020a631c635ded02815260606004820152600a60648201527f45617274687175616b65000000000000000000000000000000000000000000006084820152602481018a90526103e86044820152600160a060020a039091169250631c635ded915060a401600060405180830381600087803b158015610e2f57600080fd5b505af1158015610e43573d6000803e3d6000fd5b505060035460405160e060020a631c635ded02815260606004820152600760648201527f566f6c63616e6f000000000000000000000000000000000000000000000000006084820152602481018a90526103e86044820152600160a060020a039091169250631c635ded915060a401600060405180830381600087803b158015610ecc57600080fd5b505af1158015610ee0573d6000803e3d6000fd5b50506004805460405160e060020a631c635ded028152606092810192909252600660648301527f50697261746500000000000000000000000000000000000000000000000000006084830152602482018a90526103e86044830152600160a060020a03169250631c635ded915060a401600060405180830381600087803b158015610f6a57600080fd5b505af1158015610f7e573d6000803e3d6000fd5b50506004805460405160e060020a631c635ded028152606092810192909252600b60648301527f50697261746520536869700000000000000000000000000000000000000000006084830152602482018a90526103e86044830152600160a060020a03169250631c635ded915060a401600060405180830381600087803b15801561100857600080fd5b505af115801561101c573d6000803e3d6000fd5b50506004805460405160e060020a631c635ded028152606092810192909252600860648301527f4465617468626f740000000000000000000000000000000000000000000000006084830152602482018a90526103e86044830152600160a060020a03169250631c635ded915060a401600060405180830381600087803b1580156110a657600080fd5b505af11580156110ba573d6000803e3d6000fd5b50506004805460405160e060020a631c635ded028152606092810192909252600860648301527f477561726469616e0000000000000000000000000000000000000000000000006084830152602482018a90526103e86044830152600160a060020a03169250631c635ded915060a401600060405180830381600087803b15801561114457600080fd5b505af1158015611158573d6000803e3d6000fd5b50506004805460405160e060020a631c635ded028152606092810192909252600860648301527f53616e64776f726d0000000000000000000000000000000000000000000000006084830152602482018a90526103e86044830152600160a060020a03169250631c635ded915060a401600060405180830381600087803b1580156111e257600080fd5b505af11580156111f6573d6000803e3d6000fd5b50506004805460405160e060020a631c635ded028152606092810192909252600660648301527f447261676f6e00000000000000000000000000000000000000000000000000006084830152602482018a90526103e86044830152600160a060020a03169250631c635ded915060a401600060405180830381600087803b15801561128057600080fd5b505af1158015611294573d6000803e3d6000fd5b505060055460405160e060020a631c635ded02815260606004820152600a60648201527f536d616c6c20416d6d6f000000000000000000000000000000000000000000006084820152602481018a90526103e86044820152600160a060020a039091169250631c635ded915060a401600060405180830381600087803b15801561131d57600080fd5b505af1158015611331573d6000803e3d6000fd5b505060055460405160e060020a631c635ded02815260606004820152600a60648201527f4c6172676520416d6d6f000000000000000000000000000000000000000000006084820152602481018a90526103e86044820152600160a060020a039091169250631c635ded915060a401600060405180830381600087803b1580156113ba57600080fd5b505af11580156113ce573d6000803e3d6000fd5b505060055460405160e060020a631c635ded02815260606004820152600960648201527f42617474657269657300000000000000000000000000000000000000000000006084820152602481018a90526103e86044820152600160a060020a039091169250631c635ded915060a401600060405180830381600087803b15801561145757600080fd5b505af115801561146b573d6000803e3d6000fd5b505060055460405160e060020a631c635ded02815260606004820152600660648201527f536869656c6400000000000000000000000000000000000000000000000000006084820152602481018a90526103e86044820152600160a060020a039091169250631c635ded915060a401600060405180830381600087803b1580156114f457600080fd5b505af1158015611508573d6000803e3d6000fd5b505060055460405160e060020a631c635ded02815260606004820152600660648201527f506f7274616c00000000000000000000000000000000000000000000000000006084820152602481018a90526103e86044820152600160a060020a039091169250631c635ded915060a401600060405180830381600087803b15801561159157600080fd5b505af11580156115a5573d6000803e3d6000fd5b505060055460405160e060020a631c635ded02815260606004820152600260648201527f4f6e0000000000000000000000000000000000000000000000000000000000006084820152602481018a90526103e86044820152600160a060020a039091169250631c635ded915060a401600060405180830381600087803b15801561162e57600080fd5b505af1158015611642573d6000803e3d6000fd5b505060055460405160e060020a631c635ded02815260606004820152600360648201527f4f666600000000000000000000000000000000000000000000000000000000006084820152602481018a90526103e86044820152600160a060020a039091169250631c635ded915060a401600060405180830381600087803b1580156116cb57600080fd5b505af11580156116df573d6000803e3d6000fd5b505060065460405160e060020a631c635ded02815260606004820152600760648201527f5374756e6e6564000000000000000000000000000000000000000000000000006084820152602481018a90526103e86044820152600160a060020a039091169250631c635ded915060a401600060405180830381600087803b15801561176857600080fd5b505af115801561177c573d6000803e3d6000fd5b50506006805460405160e060020a631c635ded0281526060600482015260648101929092527f4275726e656400000000000000000000000000000000000000000000000000006084830152602482018a90526103e86044830152600160a060020a03169250631c635ded915060a401600060405180830381600087803b15801561180557600080fd5b505af1158015611819573d6000803e3d6000fd5b50506002546040517fd8291047000000000000000000000000000000000000000000000000000000008152600160a060020a03909116925063d829104791506108109089906000906001908190600401612a51565b6040517f72c6c6b6000000000000000000000000000000000000000000000000000000008152600160a060020a0383811660048301528291908216906372c6c6b69060240161048e565b6040517f9eb356cb0000000000000000000000000000000000000000000000000000000081526004810183905233602482015260448101849052600160a060020a03821690639eb356cb906064016020604051808303816000875af1158015611925573d6000803e3d6000fd5b505050506040513d601f19601f820116820180604052508101906119499190612776565b50505050565b60008281526001602052604081206119679083611ebe565b9392505050565b600091825260208281526040808420600160a060020a0393909316845291905290205460ff1690565b6040517fb553910d000000000000000000000000000000000000000000000000000000008152600160a060020a0382811660048301526000919084169063b553910d90602401602060405180830381865afa1580156119fa573d6000803e3d6000fd5b505050506040513d601f19601f820116820180604052508101906119679190612934565b80600160a060020a031663d1e18d266040518163ffffffff1660e060020a028152600401600060405180830381600087803b158015611a5c57600080fd5b505af1158015611a70573d6000803e3d6000fd5b5050505050565b600081815260016020526040812061034590611eca565b600082815260208190526040902060010154611aa981611e6d565b6104ea8383611e9c565b6000611abe81611e6d565b506002805473ffffffffffffffffffffffffffffffffffffffff19908116600160a060020a03978816179091556003805482169587169590951790945560048054851693861693909317909255600580548416918516919091179055600680549092169216919091179055565b6000819050600081600160a060020a031663c06dea4e6040518163ffffffff1660e060020a028152600401602060405180830381865afa158015611b73573d6000803e3d6000fd5b505050506040513d601f19601f82011682018060405250810190611b97919061270e565b6040517fb81f6e1800000000000000000000000000000000000000000000000000000000815260048101869052336024820152909150600160a060020a0382169063b81f6e1890604401602060405180830381865afa158015611bfe573d6000803e3d6000fd5b505050506040513d601f19601f82011682018060405250810190611c229190612776565b611c715760405160e560020a62461bcd02815260206004820152601560248201527f706c61796572206e6f7420726567697374657265640000000000000000000000604482015260640161056c565b6040517ff8430708000000000000000000000000000000000000000000000000000000008152600160a060020a0383169063f843070890611cbb9088906005908990600401612ab0565b600060405180830381600087803b158015611cd557600080fd5b505af1158015611ce9573d6000803e3d6000fd5b50506040517f9f82bcc0000000000000000000000000000000000000000000000000000000008152600160a060020a0385169250639f82bcc09150611d349088908890600401612ae0565b600060405180830381600087803b158015611d4e57600080fd5b505af1158015611d62573d6000803e3d6000fd5b505050505050505050565b611d77828261196e565b61057f57600082815260208181526040808320600160a060020a03851684529091529020805460ff19166001179055611dad3390565b600160a060020a031681600160a060020a0316837f2f8788117e7eff1d82e926ec794901d17c78024a50270940304540a733656f0d60405160405180910390a45050565b600061196783600160a060020a038416611ed4565b6000600160e060020a031982167f7965db0b00000000000000000000000000000000000000000000000000000000148061034557507f01ffc9a700000000000000000000000000000000000000000000000000000000600160e060020a0319831614610345565b611e778133611f23565b50565b611e848282611d6d565b60008281526001602052604090206104ea9082611df1565b611ea68282611f8a565b60008281526001602052604090206104ea9082611fef565b60006119678383612004565b6000610345825490565b6000818152600183016020526040812054611f1b57508154600181810184556000848152602080822090930184905584548482528286019093526040902091909155610345565b506000610345565b611f2d828261196e565b61057f57611f4581600160a060020a0316601461202e565b611f5083602061202e565b604051602001611f61929190612b02565b60408051601f198184030181529082905260e560020a62461bcd02825261056c91600401612b83565b611f94828261196e565b1561057f57600082815260208181526040808320600160a060020a0385168085529252808320805460ff1916905551339285917ff6391f5c32d9c69d2a47ea670b442974b53935d1edc7fd64eb21e047a839171b9190a45050565b600061196783600160a060020a038416612278565b600082600001828154811061201b5761201b612798565b9060005260206000200154905092915050565b6060600061203d836002612b96565b6120489060026129c4565b67ffffffffffffffff81111561206057612060612420565b6040519080825280601f01601f19166020018201604052801561208a576020820181803683370190505b5090507f3000000000000000000000000000000000000000000000000000000000000000816000815181106120c1576120c1612798565b60200101907effffffffffffffffffffffffffffffffffffffffffffffffffffffffffffff1916908160001a9053507f78000000000000000000000000000000000000000000000000000000000000008160018151811061212457612124612798565b60200101907effffffffffffffffffffffffffffffffffffffffffffffffffffffffffffff1916908160001a9053506000612160846002612b96565b61216b9060016129c4565b90505b6001811115612226577f303132333435363738396162636465660000000000000000000000000000000085600f16601081106121ac576121ac612798565b1a7f0100000000000000000000000000000000000000000000000000000000000000028282815181106121e1576121e1612798565b60200101907effffffffffffffffffffffffffffffffffffffffffffffffffffffffffffff1916908160001a90535060109094049361221f81612bb5565b905061216e565b5083156119675760405160e560020a62461bcd02815260206004820181905260248201527f537472696e67733a20686578206c656e67746820696e73756666696369656e74604482015260640161056c565b6000818152600183016020526040812054801561236157600061229c600183612bcc565b85549091506000906122b090600190612bcc565b90508181146123155760008660000182815481106122d0576122d0612798565b90600052602060002001549050808760000184815481106122f3576122f3612798565b6000918252602080832090910192909255918252600188019052604090208390555b855486908061232657612326612be3565b600190038181906000526020600020016000905590558560010160008681526020019081526020016000206000905560019350505050610345565b6000915050610345565b60006020828403121561237d57600080fd5b8135600160e060020a03198116811461196757600080fd5b6000602082840312156123a757600080fd5b5035919050565b600160a060020a0381168114611e7757600080fd5b80356123ce816123ae565b919050565b600080604083850312156123e657600080fd5b8235915060208301356123f8816123ae565b809150509250929050565b60006020828403121561241557600080fd5b8135611967816123ae565b60e060020a634e487b7102600052604160045260246000fd5b604051601f8201601f1916810167ffffffffffffffff8111828210171561246257612462612420565b604052919050565b600067ffffffffffffffff82111561248457612484612420565b50601f01601f191660200190565b600082601f8301126124a357600080fd5b81356124b66124b18261246a565b612439565b8181528460208386010111156124cb57600080fd5b816020850160208301376000918101602001919091529392505050565b6000806000606084860312156124fd57600080fd5b833567ffffffffffffffff8082111561251557600080fd5b818601915086601f83011261252957600080fd5b813560208282111561253d5761253d612420565b80820261254b828201612439565b928352848101820192828101908b85111561256557600080fd5b83870192505b848310156125a1578235868111156125835760008081fd5b6125918d86838b0101612492565b835250918301919083019061256b565b9850505087013594506125bb9250506040860190506123c3565b90509250925092565b600080604083850312156125d757600080fd5b82356125e2816123ae565b915060208301356123f8816123ae565b60008060006060848603121561260757600080fd5b83359250602084013591506040840135612620816123ae565b809150509250925092565b6000806040838503121561263e57600080fd5b50508035926020909101359150565b600080600080600060a0868803121561266557600080fd5b8535612670816123ae565b94506020860135612680816123ae565b93506040860135612690816123ae565b925060608601356126a0816123ae565b915060808601356126b0816123ae565b809150509295509295909350565b6000806000606084860312156126d357600080fd5b833567ffffffffffffffff8111156126ea57600080fd5b6126f686828701612492565b935050602084013591506040840135612620816123ae565b60006020828403121561272057600080fd5b8151611967816123ae565b60a08101818560005b600381101561275657815160ff16835260209283019290910190600101612734565b505050836060830152600160a060020a0383166080830152949350505050565b60006020828403121561278857600080fd5b8151801515811461196757600080fd5b60e060020a634e487b7102600052603260045260246000fd5b60e060020a634e487b7102600052602160045260246000fd5b60e060020a634e487b7102600052601160045260246000fd5b60006000198214156127f7576127f76127ca565b5060010190565b60005b83811015612819578181015183820152602001612801565b838111156119495750506000910152565b600081518084526128428160208601602086016127fe565b601f01601f19169290920160200192915050565b600c81106128775760e060020a634e487b7102600052602160045260246000fd5b9052565b6000608082016080835280875180835260a0850191506020925060a0838202860101838a0160005b838110156128d157609f198884030185526128bf83835161282a565b948601949250908501906001016128a3565b5050600160a060020a0389168685015260408601889052858103606087015286518082529084019250905085830160005b8281101561292557612915848351612856565b9284019290840190600101612902565b50919998505050505050505050565b60006020828403121561294657600080fd5b5051919050565b60006020828403121561295f57600080fd5b815167ffffffffffffffff81111561297657600080fd5b8201601f8101841361298757600080fd5b80516129956124b18261246a565b8181528560208385010111156129aa57600080fd5b6129bb8260208301602086016127fe565b95945050505050565b600082198211156129d7576129d76127ca565b500190565b600160a060020a03841681528260208201526060604082015260006129bb606083018461282a565b606081526000612a4160608301600381527f4461790000000000000000000000000000000000000000000000000000000000602082015260400190565b6020830194909452506040015290565b60a081526000612a8e60a08301600381527f4461790000000000000000000000000000000000000000000000000000000000602082015260400190565b6020830196909652506040810193909352606083019190915260809091015290565b606081526000612ac3606083018661282a565b9050612ad26020830185612856565b826040830152949350505050565b604081526000612af3604083018561282a565b90508260208301529392505050565b7f416363657373436f6e74726f6c3a206163636f756e7420000000000000000000815260008351612b3a8160178501602088016127fe565b7f206973206d697373696e6720726f6c65200000000000000000000000000000006017918401918201528351612b778160288401602088016127fe565b01602801949350505050565b602081526000611967602083018461282a565b6000816000190483118215151615612bb057612bb06127ca565b500290565b600081612bc457612bc46127ca565b506000190190565b600082821015612bde57612bde6127ca565b500390565b60e060020a634e487b7102600052603160045260246000fdfea2646970667358221220ff219cc61ac4476cb569cbe01d99c10bfc9e53c7b2e75ee148e2fc0965d4f32464736f6c634300080b0033",
  "immutableReferences": {},
  "source": "// SPDX-License-Identifier: GPL-3.0\npragma solidity >=0.7.0 <0.9.0;\n\nimport \"@luckymachines/game-core/contracts/src/v0.0/GameController.sol\";\nimport \"./HexplorationBoard.sol\";\nimport \"./HexplorationZone.sol\";\nimport \"./state/CharacterCard.sol\";\n// Game Tokens\nimport \"./tokens/DayNight.sol\";\nimport \"./tokens/Disaster.sol\";\nimport \"./tokens/Enemy.sol\";\nimport \"./tokens/Item.sol\";\nimport \"./tokens/PlayerStatus.sol\";\n\ncontract HexplorationController is GameController {\n    // functions are meant to be called directly by players by default\n    // we are adding the ability of a Controller Admin or Keeper to\n    // execute the game aspects not directly controlled by players\n    bytes32 public constant KEEPER_ROLE = keccak256(\"KEEPER_ROLE\");\n\n    DayNight internal DAY_NIGHT_TOKEN;\n    Disaster internal DISASTER_TOKEN;\n    Enemy internal ENEMY_TOKEN;\n    Item internal ITEM_TOKEN;\n    PlayerStatus internal PLAYER_STATUS_TOKEN;\n\n    // TODO:\n    // Connect to Chainlink VRF for random seeds when needed\n    // submit move + space choice\n    // use / swap item\n\n    /*\n    Controller can access all game tokens with the following methods:\n\n    function mint(\n        string memory tokenType,\n        uint256 gameID,\n        uint256 quantity\n    )\n\n    function transfer(\n        string memory tokenType,\n        uint256 gameID,\n        uint256 fromPlayerID,\n        uint256 toPlayerID,\n        uint256 quantity\n    )\n*/\n    modifier onlyAdminKeeper() {\n        require(\n            hasRole(DEFAULT_ADMIN_ROLE, _msgSender()) ||\n                hasRole(KEEPER_ROLE, _msgSender()),\n            \"Admin or Keeper role required\"\n        );\n        _;\n    }\n\n    constructor(address adminAddress) GameController(adminAddress) {}\n\n    // Admin Functions\n    function setTokenAddresses(\n        address dayNightAddress,\n        address disasterAddress,\n        address enemyAddress,\n        address itemAddress,\n        address playerStatusAddress\n    ) public onlyRole(DEFAULT_ADMIN_ROLE) {\n        DAY_NIGHT_TOKEN = DayNight(dayNightAddress);\n        DISASTER_TOKEN = Disaster(disasterAddress);\n        ENEMY_TOKEN = Enemy(enemyAddress);\n        ITEM_TOKEN = Item(itemAddress);\n        PLAYER_STATUS_TOKEN = PlayerStatus(playerStatusAddress);\n    }\n\n    function addKeeper(address keeperAddress)\n        public\n        onlyRole(DEFAULT_ADMIN_ROLE)\n    {\n        grantRole(KEEPER_ROLE, keeperAddress);\n    }\n\n    // Admin or Keeper Interactions\n    function runBoardUpdate(address boardAddress) public {\n        HexplorationBoard(boardAddress).runUpdate();\n    }\n\n    function startGame(uint256 gameID, address boardAddress) public {\n        HexplorationBoard board = HexplorationBoard(boardAddress);\n        require(board.gameState(gameID) == 0, \"game already started\");\n\n        PlayerRegistry pr = PlayerRegistry(board.prAddress());\n        board.lockRegistration(gameID);\n        uint256 totalRegistrations = pr.totalRegistrations(gameID);\n        string memory startZone = board.initialPlayZone(gameID);\n        for (uint256 i = 0; i < totalRegistrations; i++) {\n            address playerAddress = pr.playerAddress(gameID, i + 1);\n            board.enterPlayer(playerAddress, gameID, startZone);\n        }\n        // set game to initialized\n        board.setGameState(2, gameID);\n\n        // mint game tokens (maybe mint on demand instead...)\n        // minting full game set here\n        DAY_NIGHT_TOKEN.mint(\"Day\", gameID, 1);\n        DAY_NIGHT_TOKEN.mint(\"Night\", gameID, 1);\n        DISASTER_TOKEN.mint(\"Earthquake\", gameID, 1000);\n        DISASTER_TOKEN.mint(\"Volcano\", gameID, 1000);\n        ENEMY_TOKEN.mint(\"Pirate\", gameID, 1000);\n        ENEMY_TOKEN.mint(\"Pirate Ship\", gameID, 1000);\n        ENEMY_TOKEN.mint(\"Deathbot\", gameID, 1000);\n        ENEMY_TOKEN.mint(\"Guardian\", gameID, 1000);\n        ENEMY_TOKEN.mint(\"Sandworm\", gameID, 1000);\n        ENEMY_TOKEN.mint(\"Dragon\", gameID, 1000);\n        ITEM_TOKEN.mint(\"Small Ammo\", gameID, 1000);\n        ITEM_TOKEN.mint(\"Large Ammo\", gameID, 1000);\n        ITEM_TOKEN.mint(\"Batteries\", gameID, 1000);\n        ITEM_TOKEN.mint(\"Shield\", gameID, 1000);\n        ITEM_TOKEN.mint(\"Portal\", gameID, 1000);\n        ITEM_TOKEN.mint(\"On\", gameID, 1000);\n        ITEM_TOKEN.mint(\"Off\", gameID, 1000);\n        PLAYER_STATUS_TOKEN.mint(\"Stunned\", gameID, 1000);\n        PLAYER_STATUS_TOKEN.mint(\"Burned\", gameID, 1000);\n        // Transfer day token to board\n        DAY_NIGHT_TOKEN.transfer(\"Day\", gameID, 0, 1, 1);\n    }\n\n    //Player Interactions\n    function registerForGame(uint256 gameID, address boardAddress) public {\n        HexplorationBoard board = HexplorationBoard(boardAddress);\n        board.registerPlayer(msg.sender, gameID);\n        CharacterCard(board.characterCardAddress()).setStats(\n            [4, 4, 4],\n            gameID,\n            msg.sender\n        );\n    }\n\n    function moveThroughPath(\n        string[] memory zonePath,\n        uint256 gameID,\n        address boardAddress\n    ) public {\n        // TODO:\n        // verify move is valid\n        // pick tiles from deck\n        HexplorationBoard board = HexplorationBoard(boardAddress);\n        PlayerRegistry pr = PlayerRegistry(board.prAddress());\n        require(pr.isRegistered(gameID, msg.sender), \"player not registered\");\n\n        HexplorationZone.Tile[] memory tiles = new HexplorationZone.Tile[](\n            zonePath.length\n        );\n        for (uint256 i = 0; i < zonePath.length; i++) {\n            tiles[i] = i == 0 ? HexplorationZone.Tile.Jungle : i == 1\n                ? HexplorationZone.Tile.Plains\n                : HexplorationZone.Tile.Mountain;\n        }\n\n        HexplorationBoard(boardAddress).moveThroughPath(\n            zonePath,\n            msg.sender,\n            gameID,\n            tiles\n        );\n    }\n\n    function chooseLandingSite(\n        string memory zoneChoice,\n        uint256 gameID,\n        address boardAddress\n    ) public {\n        // TODO: decide if this is done by a leader or automatically\n        // game will begin and registration locked after this...\n        HexplorationBoard board = HexplorationBoard(boardAddress);\n        PlayerRegistry pr = PlayerRegistry(board.prAddress());\n        require(pr.isRegistered(gameID, msg.sender), \"player not registered\");\n\n        board.enableZone(zoneChoice, HexplorationZone.Tile.LandingSite, gameID);\n        // set landing site at space on board\n        board.setInitialPlayZone(zoneChoice, gameID);\n    }\n\n    // TODO: limit this to authorized game starters\n    function requestNewGame(address gameRegistryAddress, address boardAddress)\n        public\n    {\n        HexplorationBoard board = HexplorationBoard(boardAddress);\n        board.requestNewGame(gameRegistryAddress);\n    }\n\n    function latestGame(address gameRegistryAddress, address boardAddress)\n        public\n        view\n        returns (uint256)\n    {\n        return GameRegistry(gameRegistryAddress).latestGame(boardAddress);\n    }\n}\n",
  "sourcePath": "/Users/maxmeier/Developer/Lucky Machines/hexploration/contracts/HexplorationController.sol",
  "compiler": {
    "name": "solc",
    "version": "0.8.11+commit.d7f03943.Emscripten.clang"
  },
  "schemaVersion": "3.4.4",
  "updatedAt": "2022-05-15T22:13:20.606Z",
  "devdoc": {
    "kind": "dev",
    "methods": {
      "getRoleAdmin(bytes32)": {
        "details": "Returns the admin role that controls `role`. See {grantRole} and {revokeRole}. To change a role's admin, use {_setRoleAdmin}."
      },
      "getRoleMember(bytes32,uint256)": {
        "details": "Returns one of the accounts that have `role`. `index` must be a value between 0 and {getRoleMemberCount}, non-inclusive. Role bearers are not sorted in any particular way, and their ordering may change at any point. WARNING: When using {getRoleMember} and {getRoleMemberCount}, make sure you perform all queries on the same block. See the following https://forum.openzeppelin.com/t/iterating-over-elements-on-enumerableset-in-openzeppelin-contracts/2296[forum post] for more information."
      },
      "getRoleMemberCount(bytes32)": {
        "details": "Returns the number of accounts that have `role`. Can be used together with {getRoleMember} to enumerate all bearers of a role."
      },
      "grantRole(bytes32,address)": {
        "details": "Grants `role` to `account`. If `account` had not been already granted `role`, emits a {RoleGranted} event. Requirements: - the caller must have ``role``'s admin role."
      },
      "hasRole(bytes32,address)": {
        "details": "Returns `true` if `account` has been granted `role`."
      },
      "renounceRole(bytes32,address)": {
        "details": "Revokes `role` from the calling account. Roles are often managed via {grantRole} and {revokeRole}: this function's purpose is to provide a mechanism for accounts to lose their privileges if they are compromised (such as when a trusted device is misplaced). If the calling account had been revoked `role`, emits a {RoleRevoked} event. Requirements: - the caller must be `account`."
      },
      "revokeRole(bytes32,address)": {
        "details": "Revokes `role` from `account`. If `account` had been granted `role`, emits a {RoleRevoked} event. Requirements: - the caller must have ``role``'s admin role."
      },
      "supportsInterface(bytes4)": {
        "details": "See {IERC165-supportsInterface}."
      }
    },
    "version": 1
  },
  "userdoc": {
    "kind": "user",
    "methods": {},
    "version": 1
  }
}