{
  "contractName": "HexplorationController",
  "abi": [
    {
      "inputs": [
        {
          "internalType": "address",
          "name": "adminAddress",
          "type": "address"
        }
      ],
      "stateMutability": "nonpayable",
      "type": "constructor"
    },
    {
      "anonymous": false,
      "inputs": [
        {
          "indexed": true,
          "internalType": "bytes32",
          "name": "role",
          "type": "bytes32"
        },
        {
          "indexed": true,
          "internalType": "bytes32",
          "name": "previousAdminRole",
          "type": "bytes32"
        },
        {
          "indexed": true,
          "internalType": "bytes32",
          "name": "newAdminRole",
          "type": "bytes32"
        }
      ],
      "name": "RoleAdminChanged",
      "type": "event"
    },
    {
      "anonymous": false,
      "inputs": [
        {
          "indexed": true,
          "internalType": "bytes32",
          "name": "role",
          "type": "bytes32"
        },
        {
          "indexed": true,
          "internalType": "address",
          "name": "account",
          "type": "address"
        },
        {
          "indexed": true,
          "internalType": "address",
          "name": "sender",
          "type": "address"
        }
      ],
      "name": "RoleGranted",
      "type": "event"
    },
    {
      "anonymous": false,
      "inputs": [
        {
          "indexed": true,
          "internalType": "bytes32",
          "name": "role",
          "type": "bytes32"
        },
        {
          "indexed": true,
          "internalType": "address",
          "name": "account",
          "type": "address"
        },
        {
          "indexed": true,
          "internalType": "address",
          "name": "sender",
          "type": "address"
        }
      ],
      "name": "RoleRevoked",
      "type": "event"
    },
    {
      "inputs": [],
      "name": "DEFAULT_ADMIN_ROLE",
      "outputs": [
        {
          "internalType": "bytes32",
          "name": "",
          "type": "bytes32"
        }
      ],
      "stateMutability": "view",
      "type": "function"
    },
    {
      "inputs": [],
      "name": "KEEPER_ROLE",
      "outputs": [
        {
          "internalType": "bytes32",
          "name": "",
          "type": "bytes32"
        }
      ],
      "stateMutability": "view",
      "type": "function"
    },
    {
      "inputs": [
        {
          "internalType": "uint256",
          "name": "pathIndex",
          "type": "uint256"
        },
        {
          "internalType": "uint256",
          "name": "gameID",
          "type": "uint256"
        },
        {
          "internalType": "address",
          "name": "gameBoardAddress",
          "type": "address"
        }
      ],
      "name": "exitToPath",
      "outputs": [],
      "stateMutability": "nonpayable",
      "type": "function"
    },
    {
      "inputs": [
        {
          "internalType": "bytes32",
          "name": "role",
          "type": "bytes32"
        }
      ],
      "name": "getRoleAdmin",
      "outputs": [
        {
          "internalType": "bytes32",
          "name": "",
          "type": "bytes32"
        }
      ],
      "stateMutability": "view",
      "type": "function"
    },
    {
      "inputs": [
        {
          "internalType": "bytes32",
          "name": "role",
          "type": "bytes32"
        },
        {
          "internalType": "uint256",
          "name": "index",
          "type": "uint256"
        }
      ],
      "name": "getRoleMember",
      "outputs": [
        {
          "internalType": "address",
          "name": "",
          "type": "address"
        }
      ],
      "stateMutability": "view",
      "type": "function"
    },
    {
      "inputs": [
        {
          "internalType": "bytes32",
          "name": "role",
          "type": "bytes32"
        }
      ],
      "name": "getRoleMemberCount",
      "outputs": [
        {
          "internalType": "uint256",
          "name": "",
          "type": "uint256"
        }
      ],
      "stateMutability": "view",
      "type": "function"
    },
    {
      "inputs": [
        {
          "internalType": "bytes32",
          "name": "role",
          "type": "bytes32"
        },
        {
          "internalType": "address",
          "name": "account",
          "type": "address"
        }
      ],
      "name": "grantRole",
      "outputs": [],
      "stateMutability": "nonpayable",
      "type": "function"
    },
    {
      "inputs": [
        {
          "internalType": "bytes32",
          "name": "role",
          "type": "bytes32"
        },
        {
          "internalType": "address",
          "name": "account",
          "type": "address"
        }
      ],
      "name": "hasRole",
      "outputs": [
        {
          "internalType": "bool",
          "name": "",
          "type": "bool"
        }
      ],
      "stateMutability": "view",
      "type": "function"
    },
    {
      "inputs": [
        {
          "internalType": "bytes32",
          "name": "role",
          "type": "bytes32"
        },
        {
          "internalType": "address",
          "name": "account",
          "type": "address"
        }
      ],
      "name": "renounceRole",
      "outputs": [],
      "stateMutability": "nonpayable",
      "type": "function"
    },
    {
      "inputs": [
        {
          "internalType": "bytes32",
          "name": "role",
          "type": "bytes32"
        },
        {
          "internalType": "address",
          "name": "account",
          "type": "address"
        }
      ],
      "name": "revokeRole",
      "outputs": [],
      "stateMutability": "nonpayable",
      "type": "function"
    },
    {
      "inputs": [
        {
          "internalType": "bytes4",
          "name": "interfaceId",
          "type": "bytes4"
        }
      ],
      "name": "supportsInterface",
      "outputs": [
        {
          "internalType": "bool",
          "name": "",
          "type": "bool"
        }
      ],
      "stateMutability": "view",
      "type": "function"
    },
    {
      "inputs": [
        {
          "internalType": "address",
          "name": "dayNightAddress",
          "type": "address"
        },
        {
          "internalType": "address",
          "name": "disasterAddress",
          "type": "address"
        },
        {
          "internalType": "address",
          "name": "enemyAddress",
          "type": "address"
        },
        {
          "internalType": "address",
          "name": "itemAddress",
          "type": "address"
        },
        {
          "internalType": "address",
          "name": "playerStatusAddress",
          "type": "address"
        },
        {
          "internalType": "address",
          "name": "artifactAddress",
          "type": "address"
        },
        {
          "internalType": "address",
          "name": "relicAddress",
          "type": "address"
        }
      ],
      "name": "setTokenAddresses",
      "outputs": [],
      "stateMutability": "nonpayable",
      "type": "function"
    },
    {
      "inputs": [
        {
          "internalType": "address",
          "name": "keeperAddress",
          "type": "address"
        }
      ],
      "name": "addKeeper",
      "outputs": [],
      "stateMutability": "nonpayable",
      "type": "function"
    },
    {
      "inputs": [
        {
          "internalType": "address",
          "name": "boardAddress",
          "type": "address"
        }
      ],
      "name": "runBoardUpdate",
      "outputs": [],
      "stateMutability": "nonpayable",
      "type": "function"
    },
    {
      "inputs": [
        {
          "internalType": "uint256",
          "name": "gameID",
          "type": "uint256"
        },
        {
          "internalType": "address",
          "name": "boardAddress",
          "type": "address"
        }
      ],
      "name": "startGame",
      "outputs": [],
      "stateMutability": "nonpayable",
      "type": "function"
    },
    {
      "inputs": [
        {
          "internalType": "uint256",
          "name": "gameID",
          "type": "uint256"
        },
        {
          "internalType": "address",
          "name": "boardAddress",
          "type": "address"
        }
      ],
      "name": "registerForGame",
      "outputs": [],
      "stateMutability": "nonpayable",
      "type": "function"
    },
    {
      "inputs": [
        {
          "internalType": "string[]",
          "name": "zonePath",
          "type": "string[]"
        },
        {
          "internalType": "uint256",
          "name": "gameID",
          "type": "uint256"
        },
        {
          "internalType": "address",
          "name": "boardAddress",
          "type": "address"
        }
      ],
      "name": "moveThroughPath",
      "outputs": [],
      "stateMutability": "nonpayable",
      "type": "function"
    },
    {
      "inputs": [
        {
          "internalType": "string",
          "name": "zoneChoice",
          "type": "string"
        },
        {
          "internalType": "uint256",
          "name": "gameID",
          "type": "uint256"
        },
        {
          "internalType": "address",
          "name": "boardAddress",
          "type": "address"
        }
      ],
      "name": "chooseLandingSite",
      "outputs": [],
      "stateMutability": "nonpayable",
      "type": "function"
    },
    {
      "inputs": [
        {
          "internalType": "address",
          "name": "gameRegistryAddress",
          "type": "address"
        },
        {
          "internalType": "address",
          "name": "boardAddress",
          "type": "address"
        }
      ],
      "name": "requestNewGame",
      "outputs": [],
      "stateMutability": "nonpayable",
      "type": "function"
    },
    {
      "inputs": [
        {
          "internalType": "address",
          "name": "gameRegistryAddress",
          "type": "address"
        },
        {
          "internalType": "address",
          "name": "boardAddress",
          "type": "address"
        }
      ],
      "name": "latestGame",
      "outputs": [
        {
          "internalType": "uint256",
          "name": "",
          "type": "uint256"
        }
      ],
      "stateMutability": "view",
      "type": "function"
    }
  ],
  "bytecode": "0x60806040523480156200001157600080fd5b50604051620030a4380380620030a4833981016040819052620000349162000215565b806200004b60008264010000000062000053810204565b505062000247565b6200006882826401000000006200006c810204565b5050565b62000086828264010000000062001f63620000b382021704565b6000828152600160205260409020620000ae908264010000000062001fe76200014f82021704565b505050565b620000c8828264010000000062000178810204565b6200006857600082815260208181526040808320600160a060020a03851684529091529020805460ff191660011790556200010b640100000000620001a1810204565b600160a060020a031681600160a060020a0316837f2f8788117e7eff1d82e926ec794901d17c78024a50270940304540a733656f0d60405160405180910390a45050565b60006200016f83600160a060020a038416640100000000620001a5810204565b90505b92915050565b600091825260208281526040808420600160a060020a0393909316845291905290205460ff1690565b3390565b6000620001bc8383640100000000620001fd810204565b620001f45750815460018181018455600084815260208082209093018490558454848252828601909352604090209190915562000172565b50600062000172565b60009081526001919091016020526040902054151590565b6000602082840312156200022857600080fd5b8151600160a060020a03811681146200024057600080fd5b9392505050565b612e4d80620002576000396000f3fe608060405234801561001057600080fd5b50600436106101305760003560e060020a900480637479c8fe116100b1578063b149f67511610075578063b149f675146102a8578063c3ef7013146102bb578063ca15c873146102ce578063d547741f146102e1578063f3297df9146102f457600080fd5b80637479c8fe1461023c5780639010d07c1461024f57806391d148541461027a578063975eef261461028d578063a217fddf146102a057600080fd5b806336568abe116100f857806336568abe146101dd5780634032b72b146101f05780634bde808c14610203578063621cc08d14610216578063661e05661461022957600080fd5b806301ffc9a714610135578063248a9ca31461015d57806329a461d61461018e5780632f2ff15d146101a3578063364bc15a146101b6575b600080fd5b610148610143366004612561565b610307565b60405190151581526020015b60405180910390f35b61018061016b36600461258b565b60009081526020819052604090206001015490565b604051908152602001610154565b6101a161019c3660046125c9565b61034b565b005b6101a16101b13660046125c9565b6104c5565b6101807ffc8737ab85eb45125971625a9ebdb75cc78e01d5c1fa80c4c6e5203f47bc4fab81565b6101a16101eb3660046125c9565b6104ef565b6101a16101fe3660046125f9565b610583565b6101a16102113660046126de565b6105b8565b6101a16102243660046125c9565b61084a565b6101a16102373660046127ba565b611a45565b6101a161024a3660046127e8565b611a8f565b61026261025d366004612821565b611b26565b604051600160a060020a039091168152602001610154565b6101486102883660046125c9565b611b45565b61018061029b3660046127ba565b611b6e565b610180600081565b6101a16102b6366004612843565b611bf5565b6101a16102c93660046125f9565b611c8c565b6101806102dc36600461258b565b611ce5565b6101a16102ef3660046125c9565b611cfc565b6101a16103023660046128d9565b611d21565b6000600160e060020a031982167f5a05180f000000000000000000000000000000000000000000000000000000001480610345575061034582611ffc565b92915050565b6040517f9aabe36d000000000000000000000000000000000000000000000000000000008152336004820152602481018390528190600160a060020a03821690639aabe36d90604401600060405180830381600087803b1580156103ae57600080fd5b505af11580156103c2573d6000803e3d6000fd5b5050505080600160a060020a03166324a5f50e6040518163ffffffff1660e060020a028152600401602060405180830381865afa158015610407573d6000803e3d6000fd5b505050506040513d601f19601f8201168201806040525081019061042b9190612929565b6040805160608101825260048082526020820181905281830181905291517ff5386d70000000000000000000000000000000000000000000000000000000008152600160a060020a03939093169263f5386d709261048e92918891339101612946565b600060405180830381600087803b1580156104a857600080fd5b505af11580156104bc573d6000803e3d6000fd5b50505050505050565b6000828152602081905260409020600101546104e081612063565b6104ea8383612070565b505050565b600160a060020a03811633146105755760405160e560020a62461bcd02815260206004820152602f60248201527f416363657373436f6e74726f6c3a2063616e206f6e6c792072656e6f756e636560448201527f20726f6c657320666f722073656c66000000000000000000000000000000000060648201526084015b60405180910390fd5b61057f8282612092565b5050565b600061058e81612063565b61057f7ffc8737ab85eb45125971625a9ebdb75cc78e01d5c1fa80c4c6e5203f47bc4fab836104c5565b6000819050600081600160a060020a031663c06dea4e6040518163ffffffff1660e060020a028152600401602060405180830381865afa158015610600573d6000803e3d6000fd5b505050506040513d601f19601f820116820180604052508101906106249190612929565b6040517fb81f6e1800000000000000000000000000000000000000000000000000000000815260048101869052336024820152909150600160a060020a0382169063b81f6e1890604401602060405180830381865afa15801561068b573d6000803e3d6000fd5b505050506040513d601f19601f820116820180604052508101906106af9190612991565b6106fe5760405160e560020a62461bcd02815260206004820152601560248201527f706c61796572206e6f7420726567697374657265640000000000000000000000604482015260640161056c565b6000855167ffffffffffffffff81111561071a5761071a612616565b604051908082528060200260200182016040528015610743578160200160208202803683370190505b50905060005b86518110156107c457801561076e5780600114610767576004610771565b6002610771565b60015b828281518110610783576107836129b3565b6020026020010190600b81111561079c5761079c6129cc565b9081600b8111156107af576107af6129cc565b905250806107bc816129fe565b915050610749565b506040517f31e019f6000000000000000000000000000000000000000000000000000000008152600160a060020a038516906331e019f69061081090899033908a908790600401612a96565b600060405180830381600087803b15801561082a57600080fd5b505af115801561083e573d6000803e3d6000fd5b50505050505050505050565b6040517f4e0e1a3e000000000000000000000000000000000000000000000000000000008152600481018390528190600160a060020a03821690634e0e1a3e90602401602060405180830381865afa1580156108aa573d6000803e3d6000fd5b505050506040513d601f19601f820116820180604052508101906108ce9190612b4f565b1561091e5760405160e560020a62461bcd02815260206004820152601460248201527f67616d6520616c72656164792073746172746564000000000000000000000000604482015260640161056c565b600081600160a060020a031663c06dea4e6040518163ffffffff1660e060020a028152600401602060405180830381865afa158015610961573d6000803e3d6000fd5b505050506040513d601f19601f820116820180604052508101906109859190612929565b6040517f60c2050000000000000000000000000000000000000000000000000000000000815260048101869052909150600160a060020a038316906360c2050090602401600060405180830381600087803b1580156109e357600080fd5b505af11580156109f7573d6000803e3d6000fd5b50506040517fb77ff4110000000000000000000000000000000000000000000000000000000081526004810187905260009250600160a060020a038416915063b77ff41190602401602060405180830381865afa158015610a5c573d6000803e3d6000fd5b505050506040513d601f19601f82011682018060405250810190610a809190612b4f565b6040517feb33983d00000000000000000000000000000000000000000000000000000000815260048101879052909150600090600160a060020a0385169063eb33983d90602401600060405180830381865afa158015610ae4573d6000803e3d6000fd5b505050506040513d6000823e601f3d908101601f19168201604052610b0c9190810190612b68565b905060005b82811015610c2b576000600160a060020a03851663f504325489610b36856001612bdf565b60405160e060020a63ffffffff851602815260048101929092526024820152604401602060405180830381865afa158015610b75573d6000803e3d6000fd5b505050506040513d601f19601f82011682018060405250810190610b999190612929565b6040517f98bd7572000000000000000000000000000000000000000000000000000000008152909150600160a060020a038716906398bd757290610be59084908c908890600401612bf7565b600060405180830381600087803b158015610bff57600080fd5b505af1158015610c13573d6000803e3d6000fd5b50505050508080610c23906129fe565b915050610b11565b506040517f76a321c10000000000000000000000000000000000000000000000000000000081526002600482015260248101879052600160a060020a038516906376a321c190604401600060405180830381600087803b158015610c8e57600080fd5b505af1158015610ca2573d6000803e3d6000fd5b505060025460405160e060020a631c635ded028152600160a060020a039091169250631c635ded9150610cdc908990600190600401612c1f565b600060405180830381600087803b158015610cf657600080fd5b505af1158015610d0a573d6000803e3d6000fd5b505060025460405160e060020a631c635ded02815260606004820152600560648201527f4e696768740000000000000000000000000000000000000000000000000000006084820152602481018a905260016044820152600160a060020a039091169250631c635ded915060a401600060405180830381600087803b158015610d9257600080fd5b505af1158015610da6573d6000803e3d6000fd5b505060035460405160e060020a631c635ded02815260606004820152600a60648201527f45617274687175616b65000000000000000000000000000000000000000000006084820152602481018a90526103e86044820152600160a060020a039091169250631c635ded915060a401600060405180830381600087803b158015610e2f57600080fd5b505af1158015610e43573d6000803e3d6000fd5b505060035460405160e060020a631c635ded02815260606004820152600760648201527f566f6c63616e6f000000000000000000000000000000000000000000000000006084820152602481018a90526103e86044820152600160a060020a039091169250631c635ded915060a401600060405180830381600087803b158015610ecc57600080fd5b505af1158015610ee0573d6000803e3d6000fd5b50506004805460405160e060020a631c635ded028152606092810192909252600660648301527f50697261746500000000000000000000000000000000000000000000000000006084830152602482018a90526103e86044830152600160a060020a03169250631c635ded915060a401600060405180830381600087803b158015610f6a57600080fd5b505af1158015610f7e573d6000803e3d6000fd5b50506004805460405160e060020a631c635ded028152606092810192909252600b60648301527f50697261746520536869700000000000000000000000000000000000000000006084830152602482018a90526103e86044830152600160a060020a03169250631c635ded915060a401600060405180830381600087803b15801561100857600080fd5b505af115801561101c573d6000803e3d6000fd5b50506004805460405160e060020a631c635ded028152606092810192909252600860648301527f4465617468626f740000000000000000000000000000000000000000000000006084830152602482018a90526103e86044830152600160a060020a03169250631c635ded915060a401600060405180830381600087803b1580156110a657600080fd5b505af11580156110ba573d6000803e3d6000fd5b50506004805460405160e060020a631c635ded028152606092810192909252600860648301527f477561726469616e0000000000000000000000000000000000000000000000006084830152602482018a90526103e86044830152600160a060020a03169250631c635ded915060a401600060405180830381600087803b15801561114457600080fd5b505af1158015611158573d6000803e3d6000fd5b50506004805460405160e060020a631c635ded028152606092810192909252600860648301527f53616e64776f726d0000000000000000000000000000000000000000000000006084830152602482018a90526103e86044830152600160a060020a03169250631c635ded915060a401600060405180830381600087803b1580156111e257600080fd5b505af11580156111f6573d6000803e3d6000fd5b50506004805460405160e060020a631c635ded028152606092810192909252600660648301527f447261676f6e00000000000000000000000000000000000000000000000000006084830152602482018a90526103e86044830152600160a060020a03169250631c635ded915060a401600060405180830381600087803b15801561128057600080fd5b505af1158015611294573d6000803e3d6000fd5b505060055460405160e060020a631c635ded02815260606004820152600a60648201527f536d616c6c20416d6d6f000000000000000000000000000000000000000000006084820152602481018a90526103e86044820152600160a060020a039091169250631c635ded915060a401600060405180830381600087803b15801561131d57600080fd5b505af1158015611331573d6000803e3d6000fd5b505060055460405160e060020a631c635ded02815260606004820152600a60648201527f4c6172676520416d6d6f000000000000000000000000000000000000000000006084820152602481018a90526103e86044820152600160a060020a039091169250631c635ded915060a401600060405180830381600087803b1580156113ba57600080fd5b505af11580156113ce573d6000803e3d6000fd5b505060055460405160e060020a631c635ded02815260606004820152600960648201527f42617474657269657300000000000000000000000000000000000000000000006084820152602481018a90526103e86044820152600160a060020a039091169250631c635ded915060a401600060405180830381600087803b15801561145757600080fd5b505af115801561146b573d6000803e3d6000fd5b505060055460405160e060020a631c635ded02815260606004820152600660648201527f536869656c6400000000000000000000000000000000000000000000000000006084820152602481018a90526103e86044820152600160a060020a039091169250631c635ded915060a401600060405180830381600087803b1580156114f457600080fd5b505af1158015611508573d6000803e3d6000fd5b505060055460405160e060020a631c635ded02815260606004820152600660648201527f506f7274616c00000000000000000000000000000000000000000000000000006084820152602481018a90526103e86044820152600160a060020a039091169250631c635ded915060a401600060405180830381600087803b15801561159157600080fd5b505af11580156115a5573d6000803e3d6000fd5b505060055460405160e060020a631c635ded02815260606004820152600260648201527f4f6e0000000000000000000000000000000000000000000000000000000000006084820152602481018a90526103e86044820152600160a060020a039091169250631c635ded915060a401600060405180830381600087803b15801561162e57600080fd5b505af1158015611642573d6000803e3d6000fd5b505060055460405160e060020a631c635ded02815260606004820152600360648201527f4f666600000000000000000000000000000000000000000000000000000000006084820152602481018a90526103e86044820152600160a060020a039091169250631c635ded915060a401600060405180830381600087803b1580156116cb57600080fd5b505af11580156116df573d6000803e3d6000fd5b505060065460405160e060020a631c635ded02815260606004820152600760648201527f5374756e6e6564000000000000000000000000000000000000000000000000006084820152602481018a90526103e86044820152600160a060020a039091169250631c635ded915060a401600060405180830381600087803b15801561176857600080fd5b505af115801561177c573d6000803e3d6000fd5b50506006805460405160e060020a631c635ded0281526060600482015260648101929092527f4275726e656400000000000000000000000000000000000000000000000000006084830152602482018a90526103e86044830152600160a060020a03169250631c635ded915060a401600060405180830381600087803b15801561180557600080fd5b505af1158015611819573d6000803e3d6000fd5b505060075460405160e060020a631c635ded02815260606004820152600f60648201527f456e677261766564205461626c656400000000000000000000000000000000006084820152602481018a90526103e86044820152600160a060020a039091169250631c635ded915060a401600060405180830381600087803b1580156118a257600080fd5b505af11580156118b6573d6000803e3d6000fd5b505060075460405160e060020a631c635ded02815260606004820152600960648201527f536967696c2047656d00000000000000000000000000000000000000000000006084820152602481018a90526103e86044820152600160a060020a039091169250631c635ded915060a401600060405180830381600087803b15801561193f57600080fd5b505af1158015611953573d6000803e3d6000fd5b505060075460405160e060020a631c635ded02815260606004820152600c60648201527f416e6369656e7420546f6d6500000000000000000000000000000000000000006084820152602481018a90526103e86044820152600160a060020a039091169250631c635ded915060a401600060405180830381600087803b1580156119dc57600080fd5b505af11580156119f0573d6000803e3d6000fd5b50506002546040517fd8291047000000000000000000000000000000000000000000000000000000008152600160a060020a03909116925063d829104791506108109089906000906001908190600401612c6c565b6040517f72c6c6b6000000000000000000000000000000000000000000000000000000008152600160a060020a0383811660048301528291908216906372c6c6b69060240161048e565b6040517f9eb356cb0000000000000000000000000000000000000000000000000000000081526004810183905233602482015260448101849052600160a060020a03821690639eb356cb906064016020604051808303816000875af1158015611afc573d6000803e3d6000fd5b505050506040513d601f19601f82011682018060405250810190611b209190612991565b50505050565b6000828152600160205260408120611b3e90836120b4565b9392505050565b600091825260208281526040808420600160a060020a0393909316845291905290205460ff1690565b6040517fb553910d000000000000000000000000000000000000000000000000000000008152600160a060020a0382811660048301526000919084169063b553910d90602401602060405180830381865afa158015611bd1573d6000803e3d6000fd5b505050506040513d601f19601f82011682018060405250810190611b3e9190612b4f565b6000611c0081612063565b506002805473ffffffffffffffffffffffffffffffffffffffff19908116600160a060020a03998a1617909155600380548216978916979097179096556004805487169588169590951790945560058054861693871693909317909255600680548516918616919091179055600780548416918516919091179055600880549092169216919091179055565b80600160a060020a031663d1e18d266040518163ffffffff1660e060020a028152600401600060405180830381600087803b158015611cca57600080fd5b505af1158015611cde573d6000803e3d6000fd5b5050505050565b6000818152600160205260408120610345906120c0565b600082815260208190526040902060010154611d1781612063565b6104ea8383612092565b6000819050600081600160a060020a031663c06dea4e6040518163ffffffff1660e060020a028152600401602060405180830381865afa158015611d69573d6000803e3d6000fd5b505050506040513d601f19601f82011682018060405250810190611d8d9190612929565b6040517fb81f6e1800000000000000000000000000000000000000000000000000000000815260048101869052336024820152909150600160a060020a0382169063b81f6e1890604401602060405180830381865afa158015611df4573d6000803e3d6000fd5b505050506040513d601f19601f82011682018060405250810190611e189190612991565b611e675760405160e560020a62461bcd02815260206004820152601560248201527f706c61796572206e6f7420726567697374657265640000000000000000000000604482015260640161056c565b6040517ff8430708000000000000000000000000000000000000000000000000000000008152600160a060020a0383169063f843070890611eb19088906005908990600401612ccb565b600060405180830381600087803b158015611ecb57600080fd5b505af1158015611edf573d6000803e3d6000fd5b50506040517f9f82bcc0000000000000000000000000000000000000000000000000000000008152600160a060020a0385169250639f82bcc09150611f2a9088908890600401612cfb565b600060405180830381600087803b158015611f4457600080fd5b505af1158015611f58573d6000803e3d6000fd5b505050505050505050565b611f6d8282611b45565b61057f57600082815260208181526040808320600160a060020a03851684529091529020805460ff19166001179055611fa33390565b600160a060020a031681600160a060020a0316837f2f8788117e7eff1d82e926ec794901d17c78024a50270940304540a733656f0d60405160405180910390a45050565b6000611b3e83600160a060020a0384166120ca565b6000600160e060020a031982167f7965db0b00000000000000000000000000000000000000000000000000000000148061034557507f01ffc9a700000000000000000000000000000000000000000000000000000000600160e060020a0319831614610345565b61206d8133612119565b50565b61207a8282611f63565b60008281526001602052604090206104ea9082611fe7565b61209c8282612180565b60008281526001602052604090206104ea90826121e5565b6000611b3e83836121fa565b6000610345825490565b600081815260018301602052604081205461211157508154600181810184556000848152602080822090930184905584548482528286019093526040902091909155610345565b506000610345565b6121238282611b45565b61057f5761213b81600160a060020a03166014612224565b612146836020612224565b604051602001612157929190612d1d565b60408051601f198184030181529082905260e560020a62461bcd02825261056c91600401612d9e565b61218a8282611b45565b1561057f57600082815260208181526040808320600160a060020a0385168085529252808320805460ff1916905551339285917ff6391f5c32d9c69d2a47ea670b442974b53935d1edc7fd64eb21e047a839171b9190a45050565b6000611b3e83600160a060020a03841661246e565b6000826000018281548110612211576122116129b3565b9060005260206000200154905092915050565b60606000612233836002612db1565b61223e906002612bdf565b67ffffffffffffffff81111561225657612256612616565b6040519080825280601f01601f191660200182016040528015612280576020820181803683370190505b5090507f3000000000000000000000000000000000000000000000000000000000000000816000815181106122b7576122b76129b3565b60200101907effffffffffffffffffffffffffffffffffffffffffffffffffffffffffffff1916908160001a9053507f78000000000000000000000000000000000000000000000000000000000000008160018151811061231a5761231a6129b3565b60200101907effffffffffffffffffffffffffffffffffffffffffffffffffffffffffffff1916908160001a9053506000612356846002612db1565b612361906001612bdf565b90505b600181111561241c577f303132333435363738396162636465660000000000000000000000000000000085600f16601081106123a2576123a26129b3565b1a7f0100000000000000000000000000000000000000000000000000000000000000028282815181106123d7576123d76129b3565b60200101907effffffffffffffffffffffffffffffffffffffffffffffffffffffffffffff1916908160001a90535060109094049361241581612dd0565b9050612364565b508315611b3e5760405160e560020a62461bcd02815260206004820181905260248201527f537472696e67733a20686578206c656e67746820696e73756666696369656e74604482015260640161056c565b60008181526001830160205260408120548015612557576000612492600183612de7565b85549091506000906124a690600190612de7565b905081811461250b5760008660000182815481106124c6576124c66129b3565b90600052602060002001549050808760000184815481106124e9576124e96129b3565b6000918252602080832090910192909255918252600188019052604090208390555b855486908061251c5761251c612dfe565b600190038181906000526020600020016000905590558560010160008681526020019081526020016000206000905560019350505050610345565b6000915050610345565b60006020828403121561257357600080fd5b8135600160e060020a031981168114611b3e57600080fd5b60006020828403121561259d57600080fd5b5035919050565b600160a060020a038116811461206d57600080fd5b80356125c4816125a4565b919050565b600080604083850312156125dc57600080fd5b8235915060208301356125ee816125a4565b809150509250929050565b60006020828403121561260b57600080fd5b8135611b3e816125a4565b60e060020a634e487b7102600052604160045260246000fd5b604051601f8201601f1916810167ffffffffffffffff8111828210171561265857612658612616565b604052919050565b600067ffffffffffffffff82111561267a5761267a612616565b50601f01601f191660200190565b600082601f83011261269957600080fd5b81356126ac6126a782612660565b61262f565b8181528460208386010111156126c157600080fd5b816020850160208301376000918101602001919091529392505050565b6000806000606084860312156126f357600080fd5b833567ffffffffffffffff8082111561270b57600080fd5b818601915086601f83011261271f57600080fd5b813560208282111561273357612733612616565b80820261274182820161262f565b928352848101820192828101908b85111561275b57600080fd5b83870192505b84831015612797578235868111156127795760008081fd5b6127878d86838b0101612688565b8352509183019190830190612761565b9850505087013594506127b19250506040860190506125b9565b90509250925092565b600080604083850312156127cd57600080fd5b82356127d8816125a4565b915060208301356125ee816125a4565b6000806000606084860312156127fd57600080fd5b83359250602084013591506040840135612816816125a4565b809150509250925092565b6000806040838503121561283457600080fd5b50508035926020909101359150565b600080600080600080600060e0888a03121561285e57600080fd5b8735612869816125a4565b96506020880135612879816125a4565b95506040880135612889816125a4565b94506060880135612899816125a4565b935060808801356128a9816125a4565b925060a08801356128b9816125a4565b915060c08801356128c9816125a4565b8091505092959891949750929550565b6000806000606084860312156128ee57600080fd5b833567ffffffffffffffff81111561290557600080fd5b61291186828701612688565b935050602084013591506040840135612816816125a4565b60006020828403121561293b57600080fd5b8151611b3e816125a4565b60a08101818560005b600381101561297157815160ff1683526020928301929091019060010161294f565b505050836060830152600160a060020a0383166080830152949350505050565b6000602082840312156129a357600080fd5b81518015158114611b3e57600080fd5b60e060020a634e487b7102600052603260045260246000fd5b60e060020a634e487b7102600052602160045260246000fd5b60e060020a634e487b7102600052601160045260246000fd5b6000600019821415612a1257612a126129e5565b5060010190565b60005b83811015612a34578181015183820152602001612a1c565b83811115611b205750506000910152565b60008151808452612a5d816020860160208601612a19565b601f01601f19169290920160200192915050565b600c8110612a925760e060020a634e487b7102600052602160045260246000fd5b9052565b6000608082016080835280875180835260a0850191506020925060a0838202860101838a0160005b83811015612aec57609f19888403018552612ada838351612a45565b94860194925090850190600101612abe565b5050600160a060020a0389168685015260408601889052858103606087015286518082529084019250905085830160005b82811015612b4057612b30848351612a71565b9284019290840190600101612b1d565b50919998505050505050505050565b600060208284031215612b6157600080fd5b5051919050565b600060208284031215612b7a57600080fd5b815167ffffffffffffffff811115612b9157600080fd5b8201601f81018413612ba257600080fd5b8051612bb06126a782612660565b818152856020838501011115612bc557600080fd5b612bd6826020830160208601612a19565b95945050505050565b60008219821115612bf257612bf26129e5565b500190565b600160a060020a0384168152826020820152606060408201526000612bd66060830184612a45565b606081526000612c5c60608301600381527f4461790000000000000000000000000000000000000000000000000000000000602082015260400190565b6020830194909452506040015290565b60a081526000612ca960a08301600381527f4461790000000000000000000000000000000000000000000000000000000000602082015260400190565b6020830196909652506040810193909352606083019190915260809091015290565b606081526000612cde6060830186612a45565b9050612ced6020830185612a71565b826040830152949350505050565b604081526000612d0e6040830185612a45565b90508260208301529392505050565b7f416363657373436f6e74726f6c3a206163636f756e7420000000000000000000815260008351612d55816017850160208801612a19565b7f206973206d697373696e6720726f6c65200000000000000000000000000000006017918401918201528351612d92816028840160208801612a19565b01602801949350505050565b602081526000611b3e6020830184612a45565b6000816000190483118215151615612dcb57612dcb6129e5565b500290565b600081612ddf57612ddf6129e5565b506000190190565b600082821015612df957612df96129e5565b500390565b60e060020a634e487b7102600052603160045260246000fdfea26469706673582212208310bb7def179dcf799393d6ca780d878aebfccfd78762fee660a1a04e99b00b64736f6c634300080b0033",
  "immutableReferences": {},
  "source": "// SPDX-License-Identifier: GPL-3.0\npragma solidity >=0.7.0 <0.9.0;\n\nimport \"@luckymachines/game-core/contracts/src/v0.0/GameController.sol\";\nimport \"./HexplorationBoard.sol\";\nimport \"./HexplorationZone.sol\";\nimport \"./state/CharacterCard.sol\";\n// Game Tokens\nimport \"./tokens/DayNight.sol\";\nimport \"./tokens/Disaster.sol\";\nimport \"./tokens/Enemy.sol\";\nimport \"./tokens/Item.sol\";\nimport \"./tokens/PlayerStatus.sol\";\nimport \"./tokens/Artifact.sol\";\nimport \"./tokens/Relic.sol\";\n\ncontract HexplorationController is GameController {\n    // functions are meant to be called directly by players by default\n    // we are adding the ability of a Controller Admin or Keeper to\n    // execute the game aspects not directly controlled by players\n    bytes32 public constant KEEPER_ROLE = keccak256(\"KEEPER_ROLE\");\n\n    DayNight internal DAY_NIGHT_TOKEN;\n    Disaster internal DISASTER_TOKEN;\n    Enemy internal ENEMY_TOKEN;\n    Item internal ITEM_TOKEN;\n    PlayerStatus internal PLAYER_STATUS_TOKEN;\n    Artifact internal ARTIFACT_TOKEN;\n    Relic internal RELIC_TOKEN;\n\n    // TODO:\n    // Connect to Chainlink VRF for random seeds when needed\n    // submit move + space choice\n    // use / swap item\n\n    /*\n    Controller can access all game tokens with the following methods:\n\n    function mint(\n        string memory tokenType,\n        uint256 gameID,\n        uint256 quantity\n    )\n\n    function transfer(\n        string memory tokenType,\n        uint256 gameID,\n        uint256 fromPlayerID,\n        uint256 toPlayerID,\n        uint256 quantity\n    )\n*/\n    modifier onlyAdminKeeper() {\n        require(\n            hasRole(DEFAULT_ADMIN_ROLE, _msgSender()) ||\n                hasRole(KEEPER_ROLE, _msgSender()),\n            \"Admin or Keeper role required\"\n        );\n        _;\n    }\n\n    constructor(address adminAddress) GameController(adminAddress) {}\n\n    // Admin Functions\n    function setTokenAddresses(\n        address dayNightAddress,\n        address disasterAddress,\n        address enemyAddress,\n        address itemAddress,\n        address playerStatusAddress,\n        address artifactAddress,\n        address relicAddress\n    ) public onlyRole(DEFAULT_ADMIN_ROLE) {\n        DAY_NIGHT_TOKEN = DayNight(dayNightAddress);\n        DISASTER_TOKEN = Disaster(disasterAddress);\n        ENEMY_TOKEN = Enemy(enemyAddress);\n        ITEM_TOKEN = Item(itemAddress);\n        PLAYER_STATUS_TOKEN = PlayerStatus(playerStatusAddress);\n        ARTIFACT_TOKEN = Artifact(artifactAddress);\n        RELIC_TOKEN = Relic(relicAddress);\n    }\n\n    function addKeeper(address keeperAddress)\n        public\n        onlyRole(DEFAULT_ADMIN_ROLE)\n    {\n        grantRole(KEEPER_ROLE, keeperAddress);\n    }\n\n    // Admin or Keeper Interactions\n    function runBoardUpdate(address boardAddress) public {\n        HexplorationBoard(boardAddress).runUpdate();\n    }\n\n    function startGame(uint256 gameID, address boardAddress) public {\n        HexplorationBoard board = HexplorationBoard(boardAddress);\n        require(board.gameState(gameID) == 0, \"game already started\");\n\n        PlayerRegistry pr = PlayerRegistry(board.prAddress());\n        board.lockRegistration(gameID);\n        uint256 totalRegistrations = pr.totalRegistrations(gameID);\n        string memory startZone = board.initialPlayZone(gameID);\n        for (uint256 i = 0; i < totalRegistrations; i++) {\n            address playerAddress = pr.playerAddress(gameID, i + 1);\n            board.enterPlayer(playerAddress, gameID, startZone);\n        }\n        // set game to initialized\n        board.setGameState(2, gameID);\n\n        // mint game tokens (maybe mint on demand instead...)\n        // minting full game set here\n        DAY_NIGHT_TOKEN.mint(\"Day\", gameID, 1);\n        DAY_NIGHT_TOKEN.mint(\"Night\", gameID, 1);\n        DISASTER_TOKEN.mint(\"Earthquake\", gameID, 1000);\n        DISASTER_TOKEN.mint(\"Volcano\", gameID, 1000);\n        ENEMY_TOKEN.mint(\"Pirate\", gameID, 1000);\n        ENEMY_TOKEN.mint(\"Pirate Ship\", gameID, 1000);\n        ENEMY_TOKEN.mint(\"Deathbot\", gameID, 1000);\n        ENEMY_TOKEN.mint(\"Guardian\", gameID, 1000);\n        ENEMY_TOKEN.mint(\"Sandworm\", gameID, 1000);\n        ENEMY_TOKEN.mint(\"Dragon\", gameID, 1000);\n        ITEM_TOKEN.mint(\"Small Ammo\", gameID, 1000);\n        ITEM_TOKEN.mint(\"Large Ammo\", gameID, 1000);\n        ITEM_TOKEN.mint(\"Batteries\", gameID, 1000);\n        ITEM_TOKEN.mint(\"Shield\", gameID, 1000);\n        ITEM_TOKEN.mint(\"Portal\", gameID, 1000);\n        ITEM_TOKEN.mint(\"On\", gameID, 1000);\n        ITEM_TOKEN.mint(\"Off\", gameID, 1000);\n        // TODO: mint rest of item tokens...\n        PLAYER_STATUS_TOKEN.mint(\"Stunned\", gameID, 1000);\n        PLAYER_STATUS_TOKEN.mint(\"Burned\", gameID, 1000);\n        ARTIFACT_TOKEN.mint(\"Engraved Tabled\", gameID, 1000);\n        ARTIFACT_TOKEN.mint(\"Sigil Gem\", gameID, 1000);\n        ARTIFACT_TOKEN.mint(\"Ancient Tome\", gameID, 1000);\n        // Transfer day token to board\n        DAY_NIGHT_TOKEN.transfer(\"Day\", gameID, 0, 1, 1);\n    }\n\n    //Player Interactions\n    function registerForGame(uint256 gameID, address boardAddress) public {\n        HexplorationBoard board = HexplorationBoard(boardAddress);\n        board.registerPlayer(msg.sender, gameID);\n        CharacterCard(board.characterCardAddress()).setStats(\n            [4, 4, 4],\n            gameID,\n            msg.sender\n        );\n    }\n\n    function moveThroughPath(\n        string[] memory zonePath,\n        uint256 gameID,\n        address boardAddress\n    ) public {\n        // TODO:\n        // verify move is valid\n        // pick tiles from deck\n        HexplorationBoard board = HexplorationBoard(boardAddress);\n        PlayerRegistry pr = PlayerRegistry(board.prAddress());\n        require(pr.isRegistered(gameID, msg.sender), \"player not registered\");\n\n        HexplorationZone.Tile[] memory tiles = new HexplorationZone.Tile[](\n            zonePath.length\n        );\n        for (uint256 i = 0; i < zonePath.length; i++) {\n            tiles[i] = i == 0 ? HexplorationZone.Tile.Jungle : i == 1\n                ? HexplorationZone.Tile.Plains\n                : HexplorationZone.Tile.Mountain;\n        }\n\n        HexplorationBoard(boardAddress).moveThroughPath(\n            zonePath,\n            msg.sender,\n            gameID,\n            tiles\n        );\n    }\n\n    function chooseLandingSite(\n        string memory zoneChoice,\n        uint256 gameID,\n        address boardAddress\n    ) public {\n        // TODO: decide if this is done by a leader or automatically\n        // game will begin and registration locked after this...\n        HexplorationBoard board = HexplorationBoard(boardAddress);\n        PlayerRegistry pr = PlayerRegistry(board.prAddress());\n        require(pr.isRegistered(gameID, msg.sender), \"player not registered\");\n\n        board.enableZone(zoneChoice, HexplorationZone.Tile.LandingSite, gameID);\n        // set landing site at space on board\n        board.setInitialPlayZone(zoneChoice, gameID);\n    }\n\n    // TODO: limit this to authorized game starters\n    function requestNewGame(address gameRegistryAddress, address boardAddress)\n        public\n    {\n        HexplorationBoard board = HexplorationBoard(boardAddress);\n        board.requestNewGame(gameRegistryAddress);\n    }\n\n    function latestGame(address gameRegistryAddress, address boardAddress)\n        public\n        view\n        returns (uint256)\n    {\n        return GameRegistry(gameRegistryAddress).latestGame(boardAddress);\n    }\n}\n",
  "sourcePath": "/Users/maxmeier/Developer/Lucky Machines/hexploration/contracts/HexplorationController.sol",
  "compiler": {
    "name": "solc",
    "version": "0.8.11+commit.d7f03943.Emscripten.clang"
  },
  "schemaVersion": "3.4.4",
  "updatedAt": "2022-05-15T22:55:11.348Z",
  "devdoc": {
    "kind": "dev",
    "methods": {
      "getRoleAdmin(bytes32)": {
        "details": "Returns the admin role that controls `role`. See {grantRole} and {revokeRole}. To change a role's admin, use {_setRoleAdmin}."
      },
      "getRoleMember(bytes32,uint256)": {
        "details": "Returns one of the accounts that have `role`. `index` must be a value between 0 and {getRoleMemberCount}, non-inclusive. Role bearers are not sorted in any particular way, and their ordering may change at any point. WARNING: When using {getRoleMember} and {getRoleMemberCount}, make sure you perform all queries on the same block. See the following https://forum.openzeppelin.com/t/iterating-over-elements-on-enumerableset-in-openzeppelin-contracts/2296[forum post] for more information."
      },
      "getRoleMemberCount(bytes32)": {
        "details": "Returns the number of accounts that have `role`. Can be used together with {getRoleMember} to enumerate all bearers of a role."
      },
      "grantRole(bytes32,address)": {
        "details": "Grants `role` to `account`. If `account` had not been already granted `role`, emits a {RoleGranted} event. Requirements: - the caller must have ``role``'s admin role."
      },
      "hasRole(bytes32,address)": {
        "details": "Returns `true` if `account` has been granted `role`."
      },
      "renounceRole(bytes32,address)": {
        "details": "Revokes `role` from the calling account. Roles are often managed via {grantRole} and {revokeRole}: this function's purpose is to provide a mechanism for accounts to lose their privileges if they are compromised (such as when a trusted device is misplaced). If the calling account had been revoked `role`, emits a {RoleRevoked} event. Requirements: - the caller must be `account`."
      },
      "revokeRole(bytes32,address)": {
        "details": "Revokes `role` from `account`. If `account` had been granted `role`, emits a {RoleRevoked} event. Requirements: - the caller must have ``role``'s admin role."
      },
      "supportsInterface(bytes4)": {
        "details": "See {IERC165-supportsInterface}."
      }
    },
    "version": 1
  },
  "userdoc": {
    "kind": "user",
    "methods": {},
    "version": 1
  }
}