{
  "contractName": "HexplorationQueue",
  "abi": [
    {
      "inputs": [
        {
          "internalType": "address",
          "name": "gameplayAddress",
          "type": "address"
        },
        {
          "internalType": "address",
          "name": "characterCard",
          "type": "address"
        }
      ],
      "stateMutability": "nonpayable",
      "type": "constructor"
    },
    {
      "anonymous": false,
      "inputs": [
        {
          "indexed": true,
          "internalType": "uint256",
          "name": "gameID",
          "type": "uint256"
        },
        {
          "indexed": false,
          "internalType": "uint256",
          "name": "timeStamp",
          "type": "uint256"
        },
        {
          "indexed": false,
          "internalType": "string",
          "name": "newPhase",
          "type": "string"
        }
      ],
      "name": "GamePhaseChange",
      "type": "event"
    },
    {
      "anonymous": false,
      "inputs": [
        {
          "indexed": true,
          "internalType": "uint256",
          "name": "gameID",
          "type": "uint256"
        },
        {
          "indexed": false,
          "internalType": "uint256",
          "name": "timeStamp",
          "type": "uint256"
        },
        {
          "indexed": false,
          "internalType": "enum HexplorationQueue.ProcessingPhase",
          "name": "newPhase",
          "type": "uint8"
        }
      ],
      "name": "ProcessingPhaseChange",
      "type": "event"
    },
    {
      "anonymous": false,
      "inputs": [
        {
          "indexed": true,
          "internalType": "bytes32",
          "name": "role",
          "type": "bytes32"
        },
        {
          "indexed": true,
          "internalType": "bytes32",
          "name": "previousAdminRole",
          "type": "bytes32"
        },
        {
          "indexed": true,
          "internalType": "bytes32",
          "name": "newAdminRole",
          "type": "bytes32"
        }
      ],
      "name": "RoleAdminChanged",
      "type": "event"
    },
    {
      "anonymous": false,
      "inputs": [
        {
          "indexed": true,
          "internalType": "bytes32",
          "name": "role",
          "type": "bytes32"
        },
        {
          "indexed": true,
          "internalType": "address",
          "name": "account",
          "type": "address"
        },
        {
          "indexed": true,
          "internalType": "address",
          "name": "sender",
          "type": "address"
        }
      ],
      "name": "RoleGranted",
      "type": "event"
    },
    {
      "anonymous": false,
      "inputs": [
        {
          "indexed": true,
          "internalType": "bytes32",
          "name": "role",
          "type": "bytes32"
        },
        {
          "indexed": true,
          "internalType": "address",
          "name": "account",
          "type": "address"
        },
        {
          "indexed": true,
          "internalType": "address",
          "name": "sender",
          "type": "address"
        }
      ],
      "name": "RoleRevoked",
      "type": "event"
    },
    {
      "inputs": [],
      "name": "DEFAULT_ADMIN_ROLE",
      "outputs": [
        {
          "internalType": "bytes32",
          "name": "",
          "type": "bytes32"
        }
      ],
      "stateMutability": "view",
      "type": "function"
    },
    {
      "inputs": [],
      "name": "GAMEPLAY_ROLE",
      "outputs": [
        {
          "internalType": "bytes32",
          "name": "",
          "type": "bytes32"
        }
      ],
      "stateMutability": "view",
      "type": "function"
    },
    {
      "inputs": [],
      "name": "VERIFIED_CONTROLLER_ROLE",
      "outputs": [
        {
          "internalType": "bytes32",
          "name": "",
          "type": "bytes32"
        }
      ],
      "stateMutability": "view",
      "type": "function"
    },
    {
      "inputs": [
        {
          "internalType": "uint256",
          "name": "",
          "type": "uint256"
        },
        {
          "internalType": "uint256",
          "name": "",
          "type": "uint256"
        }
      ],
      "name": "activeAction",
      "outputs": [
        {
          "internalType": "enum HexplorationQueue.Action",
          "name": "",
          "type": "uint8"
        }
      ],
      "stateMutability": "view",
      "type": "function"
    },
    {
      "inputs": [
        {
          "internalType": "uint256",
          "name": "",
          "type": "uint256"
        }
      ],
      "name": "currentPhase",
      "outputs": [
        {
          "internalType": "enum HexplorationQueue.ProcessingPhase",
          "name": "",
          "type": "uint8"
        }
      ],
      "stateMutability": "view",
      "type": "function"
    },
    {
      "inputs": [
        {
          "internalType": "uint256",
          "name": "",
          "type": "uint256"
        }
      ],
      "name": "currentQueuePosition",
      "outputs": [
        {
          "internalType": "uint16",
          "name": "",
          "type": "uint16"
        }
      ],
      "stateMutability": "view",
      "type": "function"
    },
    {
      "inputs": [
        {
          "internalType": "uint256",
          "name": "",
          "type": "uint256"
        }
      ],
      "name": "game",
      "outputs": [
        {
          "internalType": "uint256",
          "name": "",
          "type": "uint256"
        }
      ],
      "stateMutability": "view",
      "type": "function"
    },
    {
      "inputs": [
        {
          "internalType": "bytes32",
          "name": "role",
          "type": "bytes32"
        }
      ],
      "name": "getRoleAdmin",
      "outputs": [
        {
          "internalType": "bytes32",
          "name": "",
          "type": "bytes32"
        }
      ],
      "stateMutability": "view",
      "type": "function"
    },
    {
      "inputs": [
        {
          "internalType": "bytes32",
          "name": "role",
          "type": "bytes32"
        },
        {
          "internalType": "uint256",
          "name": "index",
          "type": "uint256"
        }
      ],
      "name": "getRoleMember",
      "outputs": [
        {
          "internalType": "address",
          "name": "",
          "type": "address"
        }
      ],
      "stateMutability": "view",
      "type": "function"
    },
    {
      "inputs": [
        {
          "internalType": "bytes32",
          "name": "role",
          "type": "bytes32"
        }
      ],
      "name": "getRoleMemberCount",
      "outputs": [
        {
          "internalType": "uint256",
          "name": "",
          "type": "uint256"
        }
      ],
      "stateMutability": "view",
      "type": "function"
    },
    {
      "inputs": [
        {
          "internalType": "bytes32",
          "name": "role",
          "type": "bytes32"
        },
        {
          "internalType": "address",
          "name": "account",
          "type": "address"
        }
      ],
      "name": "grantRole",
      "outputs": [],
      "stateMutability": "nonpayable",
      "type": "function"
    },
    {
      "inputs": [
        {
          "internalType": "bytes32",
          "name": "role",
          "type": "bytes32"
        },
        {
          "internalType": "address",
          "name": "account",
          "type": "address"
        }
      ],
      "name": "hasRole",
      "outputs": [
        {
          "internalType": "bool",
          "name": "",
          "type": "bool"
        }
      ],
      "stateMutability": "view",
      "type": "function"
    },
    {
      "inputs": [
        {
          "internalType": "uint256",
          "name": "",
          "type": "uint256"
        }
      ],
      "name": "inProcessingQueue",
      "outputs": [
        {
          "internalType": "bool",
          "name": "",
          "type": "bool"
        }
      ],
      "stateMutability": "view",
      "type": "function"
    },
    {
      "inputs": [
        {
          "internalType": "uint256",
          "name": "",
          "type": "uint256"
        }
      ],
      "name": "playThroughPosition",
      "outputs": [
        {
          "internalType": "uint16",
          "name": "",
          "type": "uint16"
        }
      ],
      "stateMutability": "view",
      "type": "function"
    },
    {
      "inputs": [
        {
          "internalType": "uint256",
          "name": "",
          "type": "uint256"
        },
        {
          "internalType": "uint256",
          "name": "",
          "type": "uint256"
        },
        {
          "internalType": "uint256",
          "name": "",
          "type": "uint256"
        }
      ],
      "name": "playerStatsAtSubmission",
      "outputs": [
        {
          "internalType": "uint8",
          "name": "",
          "type": "uint8"
        }
      ],
      "stateMutability": "view",
      "type": "function"
    },
    {
      "inputs": [
        {
          "internalType": "uint256",
          "name": "",
          "type": "uint256"
        },
        {
          "internalType": "uint256",
          "name": "",
          "type": "uint256"
        }
      ],
      "name": "playerSubmitted",
      "outputs": [
        {
          "internalType": "bool",
          "name": "",
          "type": "bool"
        }
      ],
      "stateMutability": "view",
      "type": "function"
    },
    {
      "inputs": [
        {
          "internalType": "uint256",
          "name": "",
          "type": "uint256"
        },
        {
          "internalType": "uint256",
          "name": "",
          "type": "uint256"
        }
      ],
      "name": "players",
      "outputs": [
        {
          "internalType": "uint256",
          "name": "",
          "type": "uint256"
        }
      ],
      "stateMutability": "view",
      "type": "function"
    },
    {
      "inputs": [
        {
          "internalType": "uint256",
          "name": "",
          "type": "uint256"
        }
      ],
      "name": "processingQueue",
      "outputs": [
        {
          "internalType": "uint256",
          "name": "",
          "type": "uint256"
        }
      ],
      "stateMutability": "view",
      "type": "function"
    },
    {
      "inputs": [
        {
          "internalType": "uint256",
          "name": "",
          "type": "uint256"
        }
      ],
      "name": "queueID",
      "outputs": [
        {
          "internalType": "uint256",
          "name": "",
          "type": "uint256"
        }
      ],
      "stateMutability": "view",
      "type": "function"
    },
    {
      "inputs": [
        {
          "internalType": "uint256",
          "name": "",
          "type": "uint256"
        }
      ],
      "name": "randomness",
      "outputs": [
        {
          "internalType": "uint256",
          "name": "",
          "type": "uint256"
        }
      ],
      "stateMutability": "view",
      "type": "function"
    },
    {
      "inputs": [
        {
          "internalType": "bytes32",
          "name": "role",
          "type": "bytes32"
        },
        {
          "internalType": "address",
          "name": "account",
          "type": "address"
        }
      ],
      "name": "renounceRole",
      "outputs": [],
      "stateMutability": "nonpayable",
      "type": "function"
    },
    {
      "inputs": [
        {
          "internalType": "bytes32",
          "name": "role",
          "type": "bytes32"
        },
        {
          "internalType": "address",
          "name": "account",
          "type": "address"
        }
      ],
      "name": "revokeRole",
      "outputs": [],
      "stateMutability": "nonpayable",
      "type": "function"
    },
    {
      "inputs": [
        {
          "internalType": "uint256",
          "name": "",
          "type": "uint256"
        },
        {
          "internalType": "uint256",
          "name": "",
          "type": "uint256"
        }
      ],
      "name": "submissionAction",
      "outputs": [
        {
          "internalType": "enum HexplorationQueue.Action",
          "name": "",
          "type": "uint8"
        }
      ],
      "stateMutability": "view",
      "type": "function"
    },
    {
      "inputs": [
        {
          "internalType": "uint256",
          "name": "",
          "type": "uint256"
        },
        {
          "internalType": "uint256",
          "name": "",
          "type": "uint256"
        }
      ],
      "name": "submissionLeftHand",
      "outputs": [
        {
          "internalType": "string",
          "name": "",
          "type": "string"
        }
      ],
      "stateMutability": "view",
      "type": "function"
    },
    {
      "inputs": [
        {
          "internalType": "uint256",
          "name": "",
          "type": "uint256"
        },
        {
          "internalType": "uint256",
          "name": "",
          "type": "uint256"
        },
        {
          "internalType": "uint256",
          "name": "",
          "type": "uint256"
        }
      ],
      "name": "submissionOptions",
      "outputs": [
        {
          "internalType": "string",
          "name": "",
          "type": "string"
        }
      ],
      "stateMutability": "view",
      "type": "function"
    },
    {
      "inputs": [
        {
          "internalType": "uint256",
          "name": "",
          "type": "uint256"
        },
        {
          "internalType": "uint256",
          "name": "",
          "type": "uint256"
        }
      ],
      "name": "submissionRightHand",
      "outputs": [
        {
          "internalType": "string",
          "name": "",
          "type": "string"
        }
      ],
      "stateMutability": "view",
      "type": "function"
    },
    {
      "inputs": [
        {
          "internalType": "bytes4",
          "name": "interfaceId",
          "type": "bytes4"
        }
      ],
      "name": "supportsInterface",
      "outputs": [
        {
          "internalType": "bool",
          "name": "",
          "type": "bool"
        }
      ],
      "stateMutability": "view",
      "type": "function"
    },
    {
      "inputs": [
        {
          "internalType": "uint256",
          "name": "",
          "type": "uint256"
        }
      ],
      "name": "totalPlayers",
      "outputs": [
        {
          "internalType": "uint256",
          "name": "",
          "type": "uint256"
        }
      ],
      "stateMutability": "view",
      "type": "function"
    },
    {
      "inputs": [
        {
          "internalType": "address",
          "name": "controllerAddress",
          "type": "address"
        }
      ],
      "name": "addVerifiedController",
      "outputs": [],
      "stateMutability": "nonpayable",
      "type": "function"
    },
    {
      "inputs": [
        {
          "internalType": "uint256",
          "name": "gameID",
          "type": "uint256"
        },
        {
          "internalType": "uint256",
          "name": "_totalPlayers",
          "type": "uint256"
        }
      ],
      "name": "requestGameQueue",
      "outputs": [
        {
          "internalType": "uint256",
          "name": "",
          "type": "uint256"
        }
      ],
      "stateMutability": "nonpayable",
      "type": "function"
    },
    {
      "inputs": [
        {
          "internalType": "uint256",
          "name": "_queueID",
          "type": "uint256"
        }
      ],
      "name": "startGame",
      "outputs": [],
      "stateMutability": "nonpayable",
      "type": "function"
    },
    {
      "inputs": [
        {
          "internalType": "uint256",
          "name": "playerID",
          "type": "uint256"
        },
        {
          "internalType": "uint8",
          "name": "action",
          "type": "uint8"
        },
        {
          "internalType": "string[]",
          "name": "options",
          "type": "string[]"
        },
        {
          "internalType": "string",
          "name": "leftHand",
          "type": "string"
        },
        {
          "internalType": "string",
          "name": "rightHand",
          "type": "string"
        },
        {
          "internalType": "uint256",
          "name": "_queueID",
          "type": "uint256"
        }
      ],
      "name": "sumbitActionForPlayer",
      "outputs": [],
      "stateMutability": "nonpayable",
      "type": "function"
    },
    {
      "inputs": [
        {
          "internalType": "uint256",
          "name": "_queueID",
          "type": "uint256"
        }
      ],
      "name": "requestProcessActions",
      "outputs": [],
      "stateMutability": "nonpayable",
      "type": "function"
    },
    {
      "inputs": [
        {
          "internalType": "uint256",
          "name": "_queueID",
          "type": "uint256"
        }
      ],
      "name": "getAllPlayers",
      "outputs": [
        {
          "internalType": "uint256[]",
          "name": "",
          "type": "uint256[]"
        }
      ],
      "stateMutability": "view",
      "type": "function"
    },
    {
      "inputs": [
        {
          "internalType": "uint256",
          "name": "_queueID",
          "type": "uint256"
        },
        {
          "internalType": "uint256",
          "name": "_playerID",
          "type": "uint256"
        }
      ],
      "name": "getSubmissionOptions",
      "outputs": [
        {
          "internalType": "string[]",
          "name": "",
          "type": "string[]"
        }
      ],
      "stateMutability": "view",
      "type": "function"
    },
    {
      "inputs": [
        {
          "internalType": "uint256",
          "name": "_queueID",
          "type": "uint256"
        },
        {
          "internalType": "uint256",
          "name": "_playerID",
          "type": "uint256"
        }
      ],
      "name": "getStatsAtSubmission",
      "outputs": [
        {
          "internalType": "uint8[3]",
          "name": "",
          "type": "uint8[3]"
        }
      ],
      "stateMutability": "view",
      "type": "function"
    },
    {
      "inputs": [],
      "name": "getProcessingQueue",
      "outputs": [
        {
          "internalType": "uint256[]",
          "name": "",
          "type": "uint256[]"
        }
      ],
      "stateMutability": "view",
      "type": "function"
    },
    {
      "inputs": [
        {
          "internalType": "enum HexplorationQueue.ProcessingPhase",
          "name": "phase",
          "type": "uint8"
        },
        {
          "internalType": "uint256",
          "name": "_queueID",
          "type": "uint256"
        }
      ],
      "name": "setPhase",
      "outputs": [],
      "stateMutability": "nonpayable",
      "type": "function"
    },
    {
      "inputs": [
        {
          "internalType": "uint256",
          "name": "randomNumber",
          "type": "uint256"
        },
        {
          "internalType": "uint256",
          "name": "_queueID",
          "type": "uint256"
        }
      ],
      "name": "setRandomNumber",
      "outputs": [],
      "stateMutability": "nonpayable",
      "type": "function"
    },
    {
      "inputs": [
        {
          "internalType": "uint256",
          "name": "_queueID",
          "type": "uint256"
        }
      ],
      "name": "requestNewQueueID",
      "outputs": [],
      "stateMutability": "nonpayable",
      "type": "function"
    },
    {
      "inputs": [
        {
          "internalType": "uint256",
          "name": "_queueID",
          "type": "uint256"
        },
        {
          "internalType": "bool",
          "name": "gameComplete",
          "type": "bool"
        }
      ],
      "name": "finishProcessing",
      "outputs": [],
      "stateMutability": "nonpayable",
      "type": "function"
    }
  ],
  "bytecode": "0x60806040523480156200001157600080fd5b5060405162002622380380620026228339810160408190526200003491620002ba565b6200005c60006200004d640100000000620000d2810204565b640100000000620000d6810204565b620000917f0c2c7e957bdf811d5a896b04e816b9c382dfb980c93b21b0288b75c85d598acd83640100000000620000d6810204565b620000ab6002640100000000620010ba620000ef82021704565b60038054600160a060020a031916600160a060020a039290921691909117905550620002f2565b3390565b620000eb8282640100000000620000f8810204565b5050565b80546001019055565b620001128282640100000000620010c36200013f82021704565b60008281526001602052604090206200013a908264010000000062001147620001db82021704565b505050565b62000154828264010000000062000204810204565b620000eb57600082815260208181526040808320600160a060020a03851684529091529020805460ff1916600117905562000197640100000000620000d2810204565b600160a060020a031681600160a060020a0316837f2f8788117e7eff1d82e926ec794901d17c78024a50270940304540a733656f0d60405160405180910390a45050565b6000620001fb83600160a060020a0384166401000000006200022d810204565b90505b92915050565b600091825260208281526040808420600160a060020a0393909316845291905290205460ff1690565b600062000244838364010000000062000285810204565b6200027c57508154600181810184556000848152602080822090930184905584548482528286019093526040902091909155620001fe565b506000620001fe565b60009081526001919091016020526040902054151590565b8051600160a060020a0381168114620002b557600080fd5b919050565b60008060408385031215620002ce57600080fd5b620002d9836200029d565b9150620002e9602084016200029d565b90509250929050565b61232080620003026000396000f3fe608060405234801561001057600080fd5b5060043610610270576000357c01000000000000000000000000000000000000000000000000000000009004806391d1485411610163578063af7afe56116100e0578063d547741f116100a4578063d547741f14610657578063d809371f1461066a578063e2f315c11461067d578063e5ed1d59146106a1578063e73ed37f146106b4578063fd82e21f146106e257600080fd5b8063af7afe56146105c1578063b1fb6405146105e1578063ca15c87314610611578063cddbe72914610624578063d4f5b1521461064457600080fd5b8063a217fddf11610127578063a217fddf14610553578063a2dc58601461055b578063ac01b83d1461057b578063ae1305dd1461058e578063ae6a7056146105ae57600080fd5b806391d14854146104e4578063998f1b80146104f75780639b8e68191461050a5780639bd78d2b1461051d5780639f6bc61d1461054057600080fd5b806328d6b4c0116101f15780636b775e5c116101b55780636b775e5c146104455780637f04159114610458578063861814e2146104865780638e6e1d89146104a65780639010d07c146104b957600080fd5b806328d6b4c0146103d25780632e460122146103e75780632f2ff15d1461040c57806336568abe1461041f5780635da4fabc1461043257600080fd5b80631a897239116102385780631a897239146103455780631b1d5b271461035a5780631b341b3e1461037a5780631c834a7f1461039a578063248a9ca3146103af57600080fd5b806301ffc9a71461027557806304ac8fee1461029d57806306fb5527146102b25780630c6ea531146102d3578063181ad5e71461030a575b600080fd5b610288610283366004611b9c565b6106f5565b60405190151581526020015b60405180910390f35b6102b06102ab366004611bc6565b610739565b005b6102c56102c0366004611bf6565b6107d0565b604051908152602001610294565b6102f76102e1366004611c18565b60056020526000908152604090205461ffff1681565b60405161ffff9091168152602001610294565b610338610318366004611bf6565b601460209081526000928352604080842090915290825290205460ff1681565b6040516102949190611c4a565b61034d6107fc565b6040516102949190611c64565b6102c5610368366004611c18565b600d6020526000908152604090205481565b61038d610388366004611ca8565b610854565b6040516102949190611d2c565b6102c56000805160206122cb83398151915281565b6102c56103bd366004611c18565b60009081526020819052604090206001015490565b6102c56000805160206122ab83398151915281565b6103fa6103f5366004611ca8565b61091a565b60405160ff9091168152602001610294565b6102b061041a366004611d5b565b610960565b6102b061042d366004611d5b565b61098a565b6102b0610440366004611bf6565b610a1e565b6102b0610453366004611c18565b610a48565b610338610466366004611bf6565b600e60209081526000928352604080842090915290825290205460ff1681565b6102c5610494366004611c18565b60076020526000908152604090205481565b6102b06104b4366004611d87565b610a69565b6104cc6104c7366004611bf6565b610a8b565b604051600160a060020a039091168152602001610294565b6102886104f2366004611d5b565b610aaa565b6102c5610505366004611bf6565b610ad3565b61038d610518366004611bf6565b610b04565b61028861052b366004611c18565b60086020526000908152604090205460ff1681565b6102c561054e366004611c18565b610b28565b6102c5600081565b61056e610569366004611bf6565b610b49565b6040516102949190611dbc565b61034d610589366004611c18565b610c37565b6105a161059c366004611bf6565b610c99565b6040516102949190611e1d565b6102b06105bc366004611f1a565b610d09565b6102c56105cf366004611c18565b600c6020526000908152604090205481565b6106046105ef366004611c18565b60096020526000908152604090205460ff1681565b604051610294919061205c565b6102c561061f366004611c18565b610fae565b6102c5610632366004611c18565b600a6020526000908152604090205481565b6102b061065236600461206a565b610fc5565b6102b0610665366004611d5b565b610fe8565b6102b0610678366004611c18565b61100d565b6102f761068b366004611c18565b60066020526000908152604090205461ffff1681565b6102b06106af366004611c18565b611062565b6102886106c2366004611bf6565b601260209081526000928352604080842090915290825290205460ff1681565b61038d6106f0366004611bf6565b611096565b6000600160e060020a031982167f5a05180f00000000000000000000000000000000000000000000000000000000148061073357506107338261115c565b92915050565b6000805160206122ab833981519152610751816111c3565b6000828152600960205260409020805484919060ff1916600183600581111561077c5761077c611c31565b02179055506000828152600a6020526040908190205490517fa02d5dc60884a37771a3331fbc070c0958bab3d9e9d1eb9491721be43a9ffba7906107c39042908790612085565b60405180910390a2505050565b60006000805160206122cb8339815191526107ea816111c3565b6107f484846111d0565b949350505050565b6060600480548060200260200160405190810160405280929190818152602001828054801561084a57602002820191906000526020600020905b815481526020019060010190808311610836575b5050505050905090565b600f602052826000526040600020602052816000526040600020818154811061087c57600080fd5b906000526020600020016000925092505050805461089990612099565b80601f01602080910402602001604051908101604052809291908181526020018280546108c590612099565b80156109125780601f106108e757610100808354040283529160200191610912565b820191906000526020600020905b8154815290600101906020018083116108f557829003601f168201915b505050505081565b6013602052826000526040600020602052816000526040600020816003811061094257600080fd5b602081049091015460ff601f9092166101000a900416925083915050565b60008281526020819052604090206001015461097b816111c3565b6109858383611278565b505050565b600160a060020a0381163314610a105760405160e560020a62461bcd02815260206004820152602f60248201527f416363657373436f6e74726f6c3a2063616e206f6e6c792072656e6f756e636560448201527f20726f6c657320666f722073656c66000000000000000000000000000000000060648201526084015b60405180910390fd5b610a1a828261129a565b5050565b6000805160206122ab833981519152610a36816111c3565b506000908152600d6020526040902055565b6000805160206122cb833981519152610a60816111c3565b610a1a826112bc565b6000805160206122ab833981519152610a81816111c3565b610985838361136b565b6000828152600160205260408120610aa3908361146a565b9392505050565b600091825260208281526040808420600160a060020a0393909316845291905290205460ff1690565b600b6020528160005260406000208181548110610aef57600080fd5b90600052602060002001600091509150505481565b60116020908152600092835260408084209091529082529020805461089990612099565b60048181548110610b3857600080fd5b600091825260209091200154905081565b6000828152600f602090815260408083208484528252808320805482518185028101850190935280835260609492939192909184015b82821015610c2b578382906000526020600020018054610b9e90612099565b80601f0160208091040260200160405190810160405280929190818152602001828054610bca90612099565b8015610c175780601f10610bec57610100808354040283529160200191610c17565b820191906000526020600020905b815481529060010190602001808311610bfa57829003601f168201915b505050505081526020019060010190610b7f565b50505050905092915050565b6000818152600b6020908152604091829020805483518184028101840190945280845260609392830182828015610c8d57602002820191906000526020600020905b815481526020019060010190808311610c79575b50505050509050919050565b610ca16119a7565b6000838152601360209081526040808320858452909152808220815160608101928390529290916003918390855b825461010083900a900460ff16815260206001928301818104948501949093039092029101808411610ccf57509498975050505050505050565b6000805160206122cb833981519152610d21816111c3565b600160008381526009602052604090205460ff166005811115610d4657610d46611c31565b14610d965760405160e560020a62461bcd02815260206004820152601460248201527f4e6f74207375626d697373696f6e2070686173650000000000000000000000006044820152606401610a07565b60008281526012602090815260408083208a845290915290205460ff16610fa5578560ff166006811115610dcc57610dcc611c31565b6000838152600e602090815260408083208b84529091529020805460ff19166001836006811115610dff57610dff611c31565b02179055506000828152600f602090815260408083208a845282529091208651610e2b928801906119c5565b5060008281526010602090815260408083208a845282529091208551610e5392870190611a22565b5060008281526011602090815260408083208a845282529091208451610e7b92860190611a22565b506000828152600b602081815260408084208054600181810183558287528487209091018d9055878652601284528286208d87528452828620805460ff19169091179055868552600c8352932054919052905410610edc57610edc826112bc565b6003546000838152600a6020526040908190205490517fbb47c9b3000000000000000000000000000000000000000000000000000000008152600160a060020a039092169163bb47c9b391610f3e918b90600401918252602082015260400190565b606060405180830381865afa158015610f5b573d6000803e3d6000fd5b505050506040513d601f19601f82011682018060405250810190610f7f91906120d7565b60008381526013602090815260408083208b84529091529020610fa3916003611aa2565b505b50505050505050565b600081815260016020526040812061073390611476565b6000610fd0816111c3565b610a1a6000805160206122cb83398151915283610960565b600082815260208190526040902060010154611003816111c3565b610985838361129a565b6000805160206122ab833981519152611025816111c3565b6000828152600a6020908152604080832054600c9092529091205461104a82826111d0565b60009283526007602052604090922091909155505050565b6000805160206122cb83398151915261107a816111c3565b506000908152600960205260409020805460ff19166001179055565b60106020908152600092835260408084209091529082529020805461089990612099565b80546001019055565b6110cd8282610aaa565b610a1a57600082815260208181526040808320600160a060020a03851684529091529020805460ff191660011790556111033390565b600160a060020a031681600160a060020a0316837f2f8788117e7eff1d82e926ec794901d17c78024a50270940304540a733656f0d60405160405180910390a45050565b6000610aa383600160a060020a038416611480565b6000600160e060020a031982167f7965db0b00000000000000000000000000000000000000000000000000000000148061073357507f01ffc9a700000000000000000000000000000000000000000000000000000000600160e060020a0319831614610733565b6111cd81336114cf565b50565b6000828152600760205260408120541561122f5760405160e560020a62461bcd02815260206004820152601160248201527f717565756520616c7265616479207365740000000000000000000000000000006044820152606401610a07565b600061123a60025490565b6000818152600a6020908152604080832088905587835260078252808320849055838352600c90915290208490559050610aa3600280546001019055565b61128282826110c3565b60008281526001602052604090206109859082611147565b6112a48282611536565b6000828152600160205260409020610985908261159b565b60008181526008602052604090205460ff161580156112fd5750600160008281526009602052604090205460ff1660058111156112fb576112fb611c31565b145b156111cd576004805460018082019092557f8a35acfbc15ff81a39ae7d344fd709f28e8600b4aa8c65c6b64bfe7fe36bd19b018290556000828152600860209081526040808320805460ff19908116909517905560099091529020805490911660021790556111cd816115b0565b6000828152600a602090815260408083205460098352818420805460ff199081166004179091558185526007845282852085905586855260089093529083208054909216909155905b60045481101561141b5783600482815481106113d2576113d261215e565b90600052602060002001541415611409576000600482815481106113f8576113f861215e565b60009182526020909120015561141b565b8061141381612190565b9150506113b4565b5081610985576000838152600c60205260408120549061143b83836111d0565b600093845260076020908152604080862083905591855260099052909220805460ff1916600117905550505050565b6000610aa38383611647565b6000610733825490565b60008181526001830160205260408120546114c757508154600181810184556000848152602080822090930184905584548482528286019093526040902091909155610733565b506000610733565b6114d98282610aaa565b610a1a576114f181600160a060020a03166014611671565b6114fc836020611671565b60405160200161150d9291906121ab565b60408051601f198184030181529082905260e560020a62461bcd028252610a0791600401611d2c565b6115408282610aaa565b15610a1a57600082815260208181526040808320600160a060020a0385168085529252808320805460ff1916905551339285917ff6391f5c32d9c69d2a47ea670b442974b53935d1edc7fd64eb21e047a839171b9190a45050565b6000610aa383600160a060020a038416611873565b6000818152601560209081526040808320849055518392916115df914291859101918252602082015260400190565b60408051601f1981840301815282825280516020918201206001808552848401909352935060009291908083019080368337019050509050818160008151811061162b5761162b61215e565b6020026020010181815250506116418382611966565b50505050565b600082600001828154811061165e5761165e61215e565b9060005260206000200154905092915050565b6060600061168083600261222c565b61168b90600261224b565b67ffffffffffffffff8111156116a3576116a3611e60565b6040519080825280601f01601f1916602001820160405280156116cd576020820181803683370190505b5090507f3000000000000000000000000000000000000000000000000000000000000000816000815181106117045761170461215e565b6020010190600160f860020a031916908160001a9053507f78000000000000000000000000000000000000000000000000000000000000008160018151811061174f5761174f61215e565b6020010190600160f860020a031916908160001a905350600061177384600261222c565b61177e90600161224b565b90505b6001811115611821577f303132333435363738396162636465660000000000000000000000000000000085600f16601081106117bf576117bf61215e565b1a7f0100000000000000000000000000000000000000000000000000000000000000028282815181106117f4576117f461215e565b6020010190600160f860020a031916908160001a90535060109094049361181a81612263565b9050611781565b508315610aa35760405160e560020a62461bcd02815260206004820181905260248201527f537472696e67733a20686578206c656e67746820696e73756666696369656e746044820152606401610a07565b6000818152600183016020526040812054801561195c57600061189760018361227a565b85549091506000906118ab9060019061227a565b90508181146119105760008660000182815481106118cb576118cb61215e565b90600052602060002001549050808760000184815481106118ee576118ee61215e565b6000918252602080832090910192909255918252600188019052604090208390555b855486908061192157611921612291565b600190038181906000526020600020016000905590558560010160008681526020019081526020016000206000905560019350505050610733565b6000915050610733565b6000828152601560205260408120548251909183916119875761198761215e565b6020908102919091018101516000928352600d9091526040909120555050565b60405180606001604052806003906020820280368337509192915050565b828054828255906000526020600020908101928215611a12579160200282015b82811115611a125782518051611a02918491602090910190611a22565b50916020019190600101906119e5565b50611a1e929150611b30565b5090565b828054611a2e90612099565b90600052602060002090601f016020900481019282611a505760008555611a96565b82601f10611a6957805160ff1916838001178555611a96565b82800160010185558215611a96579182015b82811115611a96578251825591602001919060010190611a7b565b50611a1e929150611b4d565b600183019183908215611a965791602002820160005b83821115611af657835183826101000a81548160ff021916908360ff1602179055509260200192600101602081600001049283019260010302611ab8565b8015611b235782816101000a81549060ff0219169055600101602081600001049283019260010302611af6565b5050611a1e929150611b4d565b80821115611a1e576000611b448282611b62565b50600101611b30565b5b80821115611a1e5760008155600101611b4e565b508054611b6e90612099565b6000825580601f10611b7e575050565b601f0160209004906000526020600020908101906111cd9190611b4d565b600060208284031215611bae57600080fd5b8135600160e060020a031981168114610aa357600080fd5b60008060408385031215611bd957600080fd5b823560068110611be857600080fd5b946020939093013593505050565b60008060408385031215611c0957600080fd5b50508035926020909101359150565b600060208284031215611c2a57600080fd5b5035919050565b60e060020a634e487b7102600052602160045260246000fd5b6020810160078310611c5e57611c5e611c31565b91905290565b6020808252825182820181905260009190848201906040850190845b81811015611c9c57835183529284019291840191600101611c80565b50909695505050505050565b600080600060608486031215611cbd57600080fd5b505081359360208301359350604090920135919050565b60005b83811015611cef578181015183820152602001611cd7565b838111156116415750506000910152565b60008151808452611d18816020860160208601611cd4565b601f01601f19169290920160200192915050565b602081526000610aa36020830184611d00565b8035600160a060020a0381168114611d5657600080fd5b919050565b60008060408385031215611d6e57600080fd5b82359150611d7e60208401611d3f565b90509250929050565b60008060408385031215611d9a57600080fd5b8235915060208301358015158114611db157600080fd5b809150509250929050565b600060208083018184528085518083526040860191506040848202870101925083870160005b82811015611e1057603f19888603018452611dfe858351611d00565b94509285019290850190600101611de2565b5092979650505050505050565b60608101818360005b6003811015611e4857815160ff16835260209283019290910190600101611e26565b50505092915050565b60ff811681146111cd57600080fd5b60e060020a634e487b7102600052604160045260246000fd5b604051601f8201601f1916810167ffffffffffffffff81118282101715611ea257611ea2611e60565b604052919050565b600082601f830112611ebb57600080fd5b813567ffffffffffffffff811115611ed557611ed5611e60565b611ee8601f8201601f1916602001611e79565b818152846020838601011115611efd57600080fd5b816020850160208301376000918101602001919091529392505050565b60008060008060008060c08789031215611f3357600080fd5b86359550602080880135611f4681611e51565b9550604088013567ffffffffffffffff80821115611f6357600080fd5b818a0191508a601f830112611f7757600080fd5b813581811115611f8957611f89611e60565b838102611f97858201611e79565b918252838101850191858101908e841115611fb157600080fd5b86860192505b83831015611feb578483351115611fcd57600080fd5b611fdc8f888535890101611eaa565b82529186019190860190611fb7565b995050505060608a013592508083111561200457600080fd5b6120108b848c01611eaa565b955060808a013592508083111561202657600080fd5b505061203489828a01611eaa565b92505060a087013590509295509295509295565b6006811061205857612058611c31565b9052565b602081016107338284612048565b60006020828403121561207c57600080fd5b610aa382611d3f565b82815260408101610aa36020830184612048565b6002810460018216806120ad57607f821691505b602082108114156120d15760e060020a634e487b7102600052602260045260246000fd5b50919050565b6000606082840312156120e957600080fd5b82601f8301126120f857600080fd5b6040516060810181811067ffffffffffffffff8211171561211b5761211b611e60565b60405280606084018581111561213057600080fd5b845b8181101561215357805161214581611e51565b835260209283019201612132565b509195945050505050565b60e060020a634e487b7102600052603260045260246000fd5b60e060020a634e487b7102600052601160045260246000fd5b60006000198214156121a4576121a4612177565b5060010190565b7f416363657373436f6e74726f6c3a206163636f756e74200000000000000000008152600083516121e3816017850160208801611cd4565b7f206973206d697373696e6720726f6c65200000000000000000000000000000006017918401918201528351612220816028840160208801611cd4565b01602801949350505050565b600081600019048311821515161561224657612246612177565b500290565b6000821982111561225e5761225e612177565b500190565b60008161227257612272612177565b506000190190565b60008282101561228c5761228c612177565b500390565b60e060020a634e487b7102600052603160045260246000fdfe0c2c7e957bdf811d5a896b04e816b9c382dfb980c93b21b0288b75c85d598acd80e2196015fc06a9d891759f8e4f51eb314ef5e9ea068528a8ed0063b87759f0a264697066735822122069b9ec5f36de99dd8b0e634ead10a3e040a4b55d8d47408deb1d477e2a6805bf64736f6c634300080b0033",
  "immutableReferences": {},
  "source": "// SPDX-License-Identifier: GPL-3.0\npragma solidity >=0.7.0 <0.9.0;\n\n//TODO:\n// setup timer keeper for when all players don't sumbit moves\n\nimport \"@openzeppelin/contracts/access/AccessControlEnumerable.sol\";\nimport \"@openzeppelin/contracts/utils/Counters.sol\";\nimport \"./HexplorationStateUpdate.sol\";\n\ncontract HexplorationQueue is AccessControlEnumerable {\n    using Counters for Counters.Counter;\n    Counters.Counter internal QUEUE_ID;\n    CharacterCard internal CHARACTER_CARD;\n\n    event ProcessingPhaseChange(\n        uint256 indexed gameID,\n        uint256 timeStamp,\n        ProcessingPhase newPhase\n    );\n\n    event GamePhaseChange(\n        uint256 indexed gameID,\n        uint256 timeStamp,\n        string newPhase\n    );\n\n    enum ProcessingPhase {\n        Start,\n        Submission,\n        Processing,\n        PlayThrough,\n        Processed,\n        Closed\n    }\n    enum Action {\n        Idle,\n        Move,\n        SetupCamp,\n        BreakDownCamp,\n        Dig,\n        Rest,\n        Help\n    }\n\n    bytes32 public constant VERIFIED_CONTROLLER_ROLE =\n        keccak256(\"VERIFIED_CONTROLLER_ROLE\");\n    bytes32 public constant GAMEPLAY_ROLE = keccak256(\"GAMEPLAY_ROLE\");\n\n    // Array of Queue IDs to be processed.\n    uint256[] public processingQueue;\n\n    // do we need these 2?\n    mapping(uint256 => uint16) public currentQueuePosition; // ?? increases with each player in queue, then back to 0\n    mapping(uint256 => uint16) public playThroughPosition; // ?? in case we need to batch this too... hopefully not.\n\n    // mapping from game ID\n    mapping(uint256 => uint256) public queueID; // mapping from game ID to it's queue, updates to 0 when finished\n\n    // mappings from queue index\n    mapping(uint256 => bool) public inProcessingQueue; // game queue is in processing queue\n    mapping(uint256 => ProcessingPhase) public currentPhase; // processingPhase\n    mapping(uint256 => uint256) public game; // mapping from queue ID to it's game ID\n    mapping(uint256 => uint256[]) public players; // all players with moves to process\n    mapping(uint256 => uint256) public totalPlayers; // total # of players who will be submitting\n    mapping(uint256 => uint256) public randomness; // randomness delivered here at start of each phase processing\n\n    // mappings from queue index => player id\n    mapping(uint256 => mapping(uint256 => Action)) public submissionAction;\n    mapping(uint256 => mapping(uint256 => string[])) public submissionOptions;\n    mapping(uint256 => mapping(uint256 => string)) public submissionLeftHand;\n    mapping(uint256 => mapping(uint256 => string)) public submissionRightHand;\n    mapping(uint256 => mapping(uint256 => bool)) public playerSubmitted;\n    mapping(uint256 => mapping(uint256 => uint8[3]))\n        public playerStatsAtSubmission;\n\n    // current action, so we know what to process during play through phase\n    mapping(uint256 => mapping(uint256 => Action)) public activeAction; // defaults to idle\n\n    // From request ID => queue ID\n    mapping(uint256 => uint256) internal randomnessRequestQueueID; // ID set before randomness delivered\n\n    ///////  VRF can kick off processing phase\n\n    constructor(address gameplayAddress, address characterCard) {\n        _setupRole(DEFAULT_ADMIN_ROLE, _msgSender());\n        _setupRole(GAMEPLAY_ROLE, gameplayAddress);\n        QUEUE_ID.increment(); // start at 1\n        CHARACTER_CARD = CharacterCard(characterCard);\n    }\n\n    // Can set multiple VCs, one for manual pushing, one for keeper\n    function addVerifiedController(address controllerAddress)\n        public\n        onlyRole(DEFAULT_ADMIN_ROLE)\n    {\n        grantRole(VERIFIED_CONTROLLER_ROLE, controllerAddress);\n    }\n\n    // pass total # players making submissions\n    // total can be less than actual totalPlayers in game\n    function requestGameQueue(uint256 gameID, uint256 _totalPlayers)\n        external\n        onlyRole(VERIFIED_CONTROLLER_ROLE)\n        returns (uint256)\n    {\n        return _requestGameQueue(gameID, _totalPlayers);\n    }\n\n    // Sent from controller\n\n    function startGame(uint256 _queueID)\n        public\n        onlyRole(VERIFIED_CONTROLLER_ROLE)\n    {\n        currentPhase[_queueID] = ProcessingPhase.Submission;\n    }\n\n    function sumbitActionForPlayer(\n        uint256 playerID,\n        uint8 action,\n        string[] memory options,\n        string memory leftHand,\n        string memory rightHand,\n        uint256 _queueID\n    ) public onlyRole(VERIFIED_CONTROLLER_ROLE) {\n        require(\n            currentPhase[_queueID] == ProcessingPhase.Submission,\n            \"Not submission phase\"\n        );\n        if (!playerSubmitted[_queueID][playerID]) {\n            submissionAction[_queueID][playerID] = Action(action);\n            submissionOptions[_queueID][playerID] = options;\n            submissionLeftHand[_queueID][playerID] = leftHand;\n            submissionRightHand[_queueID][playerID] = rightHand;\n\n            players[_queueID].push(playerID);\n            playerSubmitted[_queueID][playerID] = true;\n            // automatically add to queue if last player to submit move\n            if (players[_queueID].length >= totalPlayers[_queueID]) {\n                _processAllActions(_queueID);\n            }\n            playerStatsAtSubmission[_queueID][playerID] = CHARACTER_CARD\n                .getStats(game[_queueID], playerID);\n        }\n    }\n\n    // Will get processed once keeper is available\n    // and previous game queues have been processed\n    function requestProcessActions(uint256 _queueID)\n        public\n        onlyRole(VERIFIED_CONTROLLER_ROLE)\n    {\n        _processAllActions(_queueID);\n    }\n\n    function getAllPlayers(uint256 _queueID)\n        public\n        view\n        returns (uint256[] memory)\n    {\n        return players[_queueID];\n    }\n\n    function getSubmissionOptions(uint256 _queueID, uint256 _playerID)\n        public\n        view\n        returns (string[] memory)\n    {\n        return submissionOptions[_queueID][_playerID];\n    }\n\n    function getStatsAtSubmission(uint256 _queueID, uint256 _playerID)\n        public\n        view\n        returns (uint8[3] memory)\n    {\n        return playerStatsAtSubmission[_queueID][_playerID];\n    }\n\n    function getProcessingQueue() public view returns (uint256[] memory) {\n        return processingQueue;\n    }\n\n    // Gameplay interactions\n    function setPhase(ProcessingPhase phase, uint256 _queueID)\n        external\n        onlyRole(GAMEPLAY_ROLE)\n    {\n        currentPhase[_queueID] = phase;\n        emit ProcessingPhaseChange(game[_queueID], block.timestamp, phase);\n    }\n\n    function setRandomNumber(uint256 randomNumber, uint256 _queueID)\n        external\n        onlyRole(GAMEPLAY_ROLE)\n    {\n        randomness[_queueID] = randomNumber;\n    }\n\n    function requestNewQueueID(uint256 _queueID)\n        external\n        onlyRole(GAMEPLAY_ROLE)\n    {\n        uint256 g = game[_queueID];\n        uint256 tp = totalPlayers[_queueID];\n        queueID[g] = _requestGameQueue(g, tp);\n    }\n\n    function finishProcessing(uint256 _queueID, bool gameComplete)\n        public\n        onlyRole(GAMEPLAY_ROLE)\n    {\n        _setProcessingComplete(_queueID, gameComplete);\n    }\n\n    function _setProcessingComplete(uint256 _queueID, bool gameComplete)\n        internal\n    {\n        uint256 g = game[_queueID];\n        currentPhase[_queueID] = ProcessingPhase.Processed;\n        queueID[g] = 0;\n        inProcessingQueue[_queueID] = false;\n        for (uint256 i = 0; i < processingQueue.length; i++) {\n            if (processingQueue[i] == _queueID) {\n                processingQueue[i] = 0;\n                break;\n            }\n        }\n        if (!gameComplete) {\n            // get new queue ID for next set of player actions\n            uint256 tp = totalPlayers[_queueID];\n            uint256 newQueueID = _requestGameQueue(g, tp);\n            queueID[g] = newQueueID;\n            currentPhase[newQueueID] = ProcessingPhase.Submission;\n        }\n    }\n\n    // Internal\n    function _processAllActions(uint256 _queueID) internal {\n        // Can only add unique unprocessed game queues into processing queue\n        if (\n            !inProcessingQueue[_queueID] &&\n            currentPhase[_queueID] == ProcessingPhase.Submission\n        ) {\n            processingQueue.push(_queueID);\n            inProcessingQueue[_queueID] = true;\n            currentPhase[_queueID] = ProcessingPhase.Processing;\n            // request random number for phase\n            requestRandomWords(_queueID);\n        }\n    }\n\n    function requestRandomWords(uint256 _queueID) internal {\n        // randomnessRequestID[_queueID] = COORDINATOR.requestRandomWords(\n        //   keyHash,\n        //   s_subscriptionId,\n        //   requestConfirmations,\n        //   callbackGasLimit,\n        //   numWords\n        // );\n\n        //set faux id + randomness\n        uint256 reqID = _queueID;\n        randomnessRequestQueueID[reqID] = _queueID;\n        uint256 random = uint256(keccak256(abi.encode(block.timestamp, reqID)));\n        uint256[] memory randomWords = new uint256[](1);\n        randomWords[0] = random;\n        fulfillRandomWords(reqID, randomWords);\n    }\n\n    function fulfillRandomWords(uint256 requestID, uint256[] memory randomWords)\n        internal\n    {\n        uint256 qID = randomnessRequestQueueID[requestID];\n        randomness[qID] = randomWords[0];\n        // TODO:\n        // Call gameplay.processPlayerActions(uint256 queueID)\n    }\n\n    function _requestGameQueue(uint256 gameID, uint256 _totalPlayers)\n        internal\n        returns (uint256)\n    {\n        /*\n    mapping(uint256 => uint256) public queueID; // mapping from game ID to it's queue, updates to 0 when finished\n    mapping(uint256 => uint256) public game; // mapping from queue ID to it's game ID\n    mapping(uint256 => uint256[]) public players; // all players with moves to process\n    mapping(uint256 => uint16) public totalPlayers;\n        */\n        require(queueID[gameID] == 0, \"queue already set\");\n        uint256 newQueueID = QUEUE_ID.current();\n        game[newQueueID] = gameID;\n        queueID[gameID] = newQueueID;\n        totalPlayers[newQueueID] = _totalPlayers;\n        QUEUE_ID.increment();\n        return newQueueID;\n    }\n}\n",
  "sourcePath": "/Users/maxmeier/Developer/Lucky Machines/hexploration/contracts/HexplorationQueue.sol",
  "compiler": {
    "name": "solc",
    "version": "0.8.11+commit.d7f03943.Emscripten.clang"
  },
  "schemaVersion": "3.4.4",
  "updatedAt": "2022-05-26T17:59:15.594Z",
  "devdoc": {
    "kind": "dev",
    "methods": {
      "getRoleAdmin(bytes32)": {
        "details": "Returns the admin role that controls `role`. See {grantRole} and {revokeRole}. To change a role's admin, use {_setRoleAdmin}."
      },
      "getRoleMember(bytes32,uint256)": {
        "details": "Returns one of the accounts that have `role`. `index` must be a value between 0 and {getRoleMemberCount}, non-inclusive. Role bearers are not sorted in any particular way, and their ordering may change at any point. WARNING: When using {getRoleMember} and {getRoleMemberCount}, make sure you perform all queries on the same block. See the following https://forum.openzeppelin.com/t/iterating-over-elements-on-enumerableset-in-openzeppelin-contracts/2296[forum post] for more information."
      },
      "getRoleMemberCount(bytes32)": {
        "details": "Returns the number of accounts that have `role`. Can be used together with {getRoleMember} to enumerate all bearers of a role."
      },
      "grantRole(bytes32,address)": {
        "details": "Grants `role` to `account`. If `account` had not been already granted `role`, emits a {RoleGranted} event. Requirements: - the caller must have ``role``'s admin role."
      },
      "hasRole(bytes32,address)": {
        "details": "Returns `true` if `account` has been granted `role`."
      },
      "renounceRole(bytes32,address)": {
        "details": "Revokes `role` from the calling account. Roles are often managed via {grantRole} and {revokeRole}: this function's purpose is to provide a mechanism for accounts to lose their privileges if they are compromised (such as when a trusted device is misplaced). If the calling account had been revoked `role`, emits a {RoleRevoked} event. Requirements: - the caller must be `account`."
      },
      "revokeRole(bytes32,address)": {
        "details": "Revokes `role` from `account`. If `account` had been granted `role`, emits a {RoleRevoked} event. Requirements: - the caller must have ``role``'s admin role."
      },
      "supportsInterface(bytes4)": {
        "details": "See {IERC165-supportsInterface}."
      }
    },
    "version": 1
  },
  "userdoc": {
    "kind": "user",
    "methods": {},
    "version": 1
  }
}