{
  "contractName": "HexplorationController",
  "abi": [
    {
      "inputs": [
        {
          "internalType": "address",
          "name": "adminAddress",
          "type": "address"
        }
      ],
      "stateMutability": "nonpayable",
      "type": "constructor"
    },
    {
      "anonymous": false,
      "inputs": [
        {
          "indexed": true,
          "internalType": "bytes32",
          "name": "role",
          "type": "bytes32"
        },
        {
          "indexed": true,
          "internalType": "bytes32",
          "name": "previousAdminRole",
          "type": "bytes32"
        },
        {
          "indexed": true,
          "internalType": "bytes32",
          "name": "newAdminRole",
          "type": "bytes32"
        }
      ],
      "name": "RoleAdminChanged",
      "type": "event"
    },
    {
      "anonymous": false,
      "inputs": [
        {
          "indexed": true,
          "internalType": "bytes32",
          "name": "role",
          "type": "bytes32"
        },
        {
          "indexed": true,
          "internalType": "address",
          "name": "account",
          "type": "address"
        },
        {
          "indexed": true,
          "internalType": "address",
          "name": "sender",
          "type": "address"
        }
      ],
      "name": "RoleGranted",
      "type": "event"
    },
    {
      "anonymous": false,
      "inputs": [
        {
          "indexed": true,
          "internalType": "bytes32",
          "name": "role",
          "type": "bytes32"
        },
        {
          "indexed": true,
          "internalType": "address",
          "name": "account",
          "type": "address"
        },
        {
          "indexed": true,
          "internalType": "address",
          "name": "sender",
          "type": "address"
        }
      ],
      "name": "RoleRevoked",
      "type": "event"
    },
    {
      "inputs": [],
      "name": "DEFAULT_ADMIN_ROLE",
      "outputs": [
        {
          "internalType": "bytes32",
          "name": "",
          "type": "bytes32"
        }
      ],
      "stateMutability": "view",
      "type": "function"
    },
    {
      "inputs": [],
      "name": "KEEPER_ROLE",
      "outputs": [
        {
          "internalType": "bytes32",
          "name": "",
          "type": "bytes32"
        }
      ],
      "stateMutability": "view",
      "type": "function"
    },
    {
      "inputs": [
        {
          "internalType": "uint256",
          "name": "pathIndex",
          "type": "uint256"
        },
        {
          "internalType": "uint256",
          "name": "gameID",
          "type": "uint256"
        },
        {
          "internalType": "address",
          "name": "gameBoardAddress",
          "type": "address"
        }
      ],
      "name": "exitToPath",
      "outputs": [],
      "stateMutability": "nonpayable",
      "type": "function"
    },
    {
      "inputs": [
        {
          "internalType": "bytes32",
          "name": "role",
          "type": "bytes32"
        }
      ],
      "name": "getRoleAdmin",
      "outputs": [
        {
          "internalType": "bytes32",
          "name": "",
          "type": "bytes32"
        }
      ],
      "stateMutability": "view",
      "type": "function"
    },
    {
      "inputs": [
        {
          "internalType": "bytes32",
          "name": "role",
          "type": "bytes32"
        },
        {
          "internalType": "uint256",
          "name": "index",
          "type": "uint256"
        }
      ],
      "name": "getRoleMember",
      "outputs": [
        {
          "internalType": "address",
          "name": "",
          "type": "address"
        }
      ],
      "stateMutability": "view",
      "type": "function"
    },
    {
      "inputs": [
        {
          "internalType": "bytes32",
          "name": "role",
          "type": "bytes32"
        }
      ],
      "name": "getRoleMemberCount",
      "outputs": [
        {
          "internalType": "uint256",
          "name": "",
          "type": "uint256"
        }
      ],
      "stateMutability": "view",
      "type": "function"
    },
    {
      "inputs": [
        {
          "internalType": "bytes32",
          "name": "role",
          "type": "bytes32"
        },
        {
          "internalType": "address",
          "name": "account",
          "type": "address"
        }
      ],
      "name": "grantRole",
      "outputs": [],
      "stateMutability": "nonpayable",
      "type": "function"
    },
    {
      "inputs": [
        {
          "internalType": "bytes32",
          "name": "role",
          "type": "bytes32"
        },
        {
          "internalType": "address",
          "name": "account",
          "type": "address"
        }
      ],
      "name": "hasRole",
      "outputs": [
        {
          "internalType": "bool",
          "name": "",
          "type": "bool"
        }
      ],
      "stateMutability": "view",
      "type": "function"
    },
    {
      "inputs": [
        {
          "internalType": "bytes32",
          "name": "role",
          "type": "bytes32"
        },
        {
          "internalType": "address",
          "name": "account",
          "type": "address"
        }
      ],
      "name": "renounceRole",
      "outputs": [],
      "stateMutability": "nonpayable",
      "type": "function"
    },
    {
      "inputs": [
        {
          "internalType": "bytes32",
          "name": "role",
          "type": "bytes32"
        },
        {
          "internalType": "address",
          "name": "account",
          "type": "address"
        }
      ],
      "name": "revokeRole",
      "outputs": [],
      "stateMutability": "nonpayable",
      "type": "function"
    },
    {
      "inputs": [
        {
          "internalType": "bytes4",
          "name": "interfaceId",
          "type": "bytes4"
        }
      ],
      "name": "supportsInterface",
      "outputs": [
        {
          "internalType": "bool",
          "name": "",
          "type": "bool"
        }
      ],
      "stateMutability": "view",
      "type": "function"
    },
    {
      "inputs": [
        {
          "internalType": "address",
          "name": "dayNightAddress",
          "type": "address"
        },
        {
          "internalType": "address",
          "name": "disasterAddress",
          "type": "address"
        },
        {
          "internalType": "address",
          "name": "enemyAddress",
          "type": "address"
        },
        {
          "internalType": "address",
          "name": "itemAddress",
          "type": "address"
        },
        {
          "internalType": "address",
          "name": "playerStatusAddress",
          "type": "address"
        }
      ],
      "name": "setTokenAddresses",
      "outputs": [],
      "stateMutability": "nonpayable",
      "type": "function"
    },
    {
      "inputs": [
        {
          "internalType": "address",
          "name": "keeperAddress",
          "type": "address"
        }
      ],
      "name": "addKeeper",
      "outputs": [],
      "stateMutability": "nonpayable",
      "type": "function"
    },
    {
      "inputs": [
        {
          "internalType": "address",
          "name": "boardAddress",
          "type": "address"
        }
      ],
      "name": "runBoardUpdate",
      "outputs": [],
      "stateMutability": "nonpayable",
      "type": "function"
    },
    {
      "inputs": [
        {
          "internalType": "uint256",
          "name": "gameID",
          "type": "uint256"
        },
        {
          "internalType": "address",
          "name": "boardAddress",
          "type": "address"
        }
      ],
      "name": "startGame",
      "outputs": [],
      "stateMutability": "nonpayable",
      "type": "function"
    },
    {
      "inputs": [
        {
          "internalType": "string[]",
          "name": "zonePath",
          "type": "string[]"
        },
        {
          "internalType": "uint256",
          "name": "gameID",
          "type": "uint256"
        },
        {
          "internalType": "address",
          "name": "boardAddress",
          "type": "address"
        }
      ],
      "name": "moveThroughPath",
      "outputs": [],
      "stateMutability": "nonpayable",
      "type": "function"
    },
    {
      "inputs": [
        {
          "internalType": "string",
          "name": "zoneChoice",
          "type": "string"
        },
        {
          "internalType": "uint256",
          "name": "gameID",
          "type": "uint256"
        },
        {
          "internalType": "address",
          "name": "boardAddress",
          "type": "address"
        }
      ],
      "name": "chooseLandingSite",
      "outputs": [],
      "stateMutability": "nonpayable",
      "type": "function"
    },
    {
      "inputs": [
        {
          "internalType": "address",
          "name": "gameRegistryAddress",
          "type": "address"
        },
        {
          "internalType": "address",
          "name": "boardAddress",
          "type": "address"
        }
      ],
      "name": "requestNewGame",
      "outputs": [],
      "stateMutability": "nonpayable",
      "type": "function"
    },
    {
      "inputs": [
        {
          "internalType": "address",
          "name": "gameRegistryAddress",
          "type": "address"
        },
        {
          "internalType": "address",
          "name": "boardAddress",
          "type": "address"
        }
      ],
      "name": "latestGame",
      "outputs": [
        {
          "internalType": "uint256",
          "name": "",
          "type": "uint256"
        }
      ],
      "stateMutability": "view",
      "type": "function"
    }
  ],
  "bytecode": "0x60806040523480156200001157600080fd5b5060405162002be238038062002be2833981016040819052620000349162000215565b806200004b60008264010000000062000053810204565b505062000247565b6200006882826401000000006200006c810204565b5050565b62000086828264010000000062001bbd620000b382021704565b6000828152600160205260409020620000ae908264010000000062001c416200014f82021704565b505050565b620000c8828264010000000062000178810204565b6200006857600082815260208181526040808320600160a060020a03851684529091529020805460ff191660011790556200010b640100000000620001a1810204565b600160a060020a031681600160a060020a0316837f2f8788117e7eff1d82e926ec794901d17c78024a50270940304540a733656f0d60405160405180910390a45050565b60006200016f83600160a060020a038416640100000000620001a5810204565b90505b92915050565b600091825260208281526040808420600160a060020a0393909316845291905290205460ff1690565b3390565b6000620001bc8383640100000000620001fd810204565b620001f45750815460018181018455600084815260208082209093018490558454848252828601909352604090209190915562000172565b50600062000172565b60009081526001919091016020526040902054151590565b6000602082840312156200022857600080fd5b8151600160a060020a03811681146200024057600080fd5b9392505050565b61298b80620002576000396000f3fe608060405234801561001057600080fd5b50600436106101255760003560e060020a900480637479c8fe116100b1578063c3ef701311610075578063c3ef70131461028a578063ca15c8731461029d578063d547741f146102b0578063e8b35086146102c3578063f3297df9146102d657600080fd5b80637479c8fe1461021e5780639010d07c1461023157806391d148541461025c578063975eef261461026f578063a217fddf1461028257600080fd5b806336568abe116100f857806336568abe146101bf5780634032b72b146101d25780634bde808c146101e5578063621cc08d146101f8578063661e05661461020b57600080fd5b806301ffc9a71461012a578063248a9ca3146101525780632f2ff15d14610183578063364bc15a14610198575b600080fd5b61013d6101383660046121bb565b6102e9565b60405190151581526020015b60405180910390f35b6101756101603660046121e5565b60009081526020819052604090206001015490565b604051908152602001610149565b610196610191366004612223565b61032d565b005b6101757ffc8737ab85eb45125971625a9ebdb75cc78e01d5c1fa80c4c6e5203f47bc4fab81565b6101966101cd366004612223565b610357565b6101966101e0366004612253565b6103eb565b6101966101f3366004612338565b610420565b610196610206366004612223565b6106b2565b610196610219366004612414565b61168c565b61019661022c366004612442565b611708565b61024461023f36600461247b565b61179f565b604051600160a060020a039091168152602001610149565b61013d61026a366004612223565b6117be565b61017561027d366004612414565b6117e7565b610175600081565b610196610298366004612253565b61186e565b6101756102ab3660046121e5565b6118c7565b6101966102be366004612223565b6118de565b6101966102d136600461249d565b611903565b6101966102e436600461250e565b61197b565b6000600160e060020a031982167f5a05180f000000000000000000000000000000000000000000000000000000001480610327575061032782611c56565b92915050565b60008281526020819052604090206001015461034881611cbd565b6103528383611cca565b505050565b600160a060020a03811633146103dd5760405160e560020a62461bcd02815260206004820152602f60248201527f416363657373436f6e74726f6c3a2063616e206f6e6c792072656e6f756e636560448201527f20726f6c657320666f722073656c66000000000000000000000000000000000060648201526084015b60405180910390fd5b6103e78282611cec565b5050565b60006103f681611cbd565b6103e77ffc8737ab85eb45125971625a9ebdb75cc78e01d5c1fa80c4c6e5203f47bc4fab8361032d565b6000819050600081600160a060020a031663c06dea4e6040518163ffffffff1660e060020a028152600401602060405180830381865afa158015610468573d6000803e3d6000fd5b505050506040513d601f19601f8201168201806040525081019061048c919061255e565b6040517fb81f6e1800000000000000000000000000000000000000000000000000000000815260048101869052336024820152909150600160a060020a0382169063b81f6e1890604401602060405180830381865afa1580156104f3573d6000803e3d6000fd5b505050506040513d601f19601f82011682018060405250810190610517919061257b565b6105665760405160e560020a62461bcd02815260206004820152601560248201527f706c61796572206e6f742072656769737465726564000000000000000000000060448201526064016103d4565b6000855167ffffffffffffffff81111561058257610582612270565b6040519080825280602002602001820160405280156105ab578160200160208202803683370190505b50905060005b865181101561062c5780156105d657806001146105cf5760046105d9565b60026105d9565b60015b8282815181106105eb576105eb61259d565b6020026020010190600b811115610604576106046125b6565b9081600b811115610617576106176125b6565b90525080610624816125e8565b9150506105b1565b506040517f31e019f6000000000000000000000000000000000000000000000000000000008152600160a060020a038516906331e019f69061067890899033908a908790600401612680565b600060405180830381600087803b15801561069257600080fd5b505af11580156106a6573d6000803e3d6000fd5b50505050505050505050565b6040517f4e0e1a3e000000000000000000000000000000000000000000000000000000008152600481018390528190600160a060020a03821690634e0e1a3e90602401602060405180830381865afa158015610712573d6000803e3d6000fd5b505050506040513d601f19601f820116820180604052508101906107369190612739565b156107865760405160e560020a62461bcd02815260206004820152601460248201527f67616d6520616c7265616479207374617274656400000000000000000000000060448201526064016103d4565b600081600160a060020a031663c06dea4e6040518163ffffffff1660e060020a028152600401602060405180830381865afa1580156107c9573d6000803e3d6000fd5b505050506040513d601f19601f820116820180604052508101906107ed919061255e565b6040517f60c2050000000000000000000000000000000000000000000000000000000000815260048101869052909150600160a060020a038316906360c2050090602401600060405180830381600087803b15801561084b57600080fd5b505af115801561085f573d6000803e3d6000fd5b50506040517fb77ff4110000000000000000000000000000000000000000000000000000000081526004810187905260009250600160a060020a038416915063b77ff41190602401602060405180830381865afa1580156108c4573d6000803e3d6000fd5b505050506040513d601f19601f820116820180604052508101906108e89190612739565b6040517feb33983d00000000000000000000000000000000000000000000000000000000815260048101879052909150600090600160a060020a0385169063eb33983d90602401600060405180830381865afa15801561094c573d6000803e3d6000fd5b505050506040513d6000823e601f3d908101601f191682016040526109749190810190612752565b905060005b82811015610a93576000600160a060020a03851663f50432548961099e8560016127c9565b60405160e060020a63ffffffff851602815260048101929092526024820152604401602060405180830381865afa1580156109dd573d6000803e3d6000fd5b505050506040513d601f19601f82011682018060405250810190610a01919061255e565b6040517f98bd7572000000000000000000000000000000000000000000000000000000008152909150600160a060020a038716906398bd757290610a4d9084908c9088906004016127e1565b600060405180830381600087803b158015610a6757600080fd5b505af1158015610a7b573d6000803e3d6000fd5b50505050508080610a8b906125e8565b915050610979565b506040517f76a321c10000000000000000000000000000000000000000000000000000000081526002600482015260248101879052600160a060020a038516906376a321c190604401600060405180830381600087803b158015610af657600080fd5b505af1158015610b0a573d6000803e3d6000fd5b505060025460405160e060020a631c635ded02815260606004820152600360648201527f44617900000000000000000000000000000000000000000000000000000000006084820152602481018a905260016044820152600160a060020a039091169250631c635ded915060a401600060405180830381600087803b158015610b9257600080fd5b505af1158015610ba6573d6000803e3d6000fd5b505060025460405160e060020a631c635ded02815260606004820152600560648201527f4e696768740000000000000000000000000000000000000000000000000000006084820152602481018a905260016044820152600160a060020a039091169250631c635ded915060a401600060405180830381600087803b158015610c2e57600080fd5b505af1158015610c42573d6000803e3d6000fd5b505060035460405160e060020a631c635ded02815260606004820152600a60648201527f45617274687175616b65000000000000000000000000000000000000000000006084820152602481018a90526103e86044820152600160a060020a039091169250631c635ded915060a401600060405180830381600087803b158015610ccb57600080fd5b505af1158015610cdf573d6000803e3d6000fd5b505060035460405160e060020a631c635ded02815260606004820152600760648201527f566f6c63616e6f000000000000000000000000000000000000000000000000006084820152602481018a90526103e86044820152600160a060020a039091169250631c635ded915060a401600060405180830381600087803b158015610d6857600080fd5b505af1158015610d7c573d6000803e3d6000fd5b50506004805460405160e060020a631c635ded028152606092810192909252600660648301527f50697261746500000000000000000000000000000000000000000000000000006084830152602482018a90526103e86044830152600160a060020a03169250631c635ded915060a401600060405180830381600087803b158015610e0657600080fd5b505af1158015610e1a573d6000803e3d6000fd5b50506004805460405160e060020a631c635ded028152606092810192909252600b60648301527f50697261746520536869700000000000000000000000000000000000000000006084830152602482018a90526103e86044830152600160a060020a03169250631c635ded915060a401600060405180830381600087803b158015610ea457600080fd5b505af1158015610eb8573d6000803e3d6000fd5b50506004805460405160e060020a631c635ded028152606092810192909252600860648301527f4465617468626f740000000000000000000000000000000000000000000000006084830152602482018a90526103e86044830152600160a060020a03169250631c635ded915060a401600060405180830381600087803b158015610f4257600080fd5b505af1158015610f56573d6000803e3d6000fd5b50506004805460405160e060020a631c635ded028152606092810192909252600860648301527f477561726469616e0000000000000000000000000000000000000000000000006084830152602482018a90526103e86044830152600160a060020a03169250631c635ded915060a401600060405180830381600087803b158015610fe057600080fd5b505af1158015610ff4573d6000803e3d6000fd5b50506004805460405160e060020a631c635ded028152606092810192909252600860648301527f53616e64776f726d0000000000000000000000000000000000000000000000006084830152602482018a90526103e86044830152600160a060020a03169250631c635ded915060a401600060405180830381600087803b15801561107e57600080fd5b505af1158015611092573d6000803e3d6000fd5b50506004805460405160e060020a631c635ded028152606092810192909252600660648301527f447261676f6e00000000000000000000000000000000000000000000000000006084830152602482018a90526103e86044830152600160a060020a03169250631c635ded915060a401600060405180830381600087803b15801561111c57600080fd5b505af1158015611130573d6000803e3d6000fd5b505060055460405160e060020a631c635ded02815260606004820152600a60648201527f536d616c6c20416d6d6f000000000000000000000000000000000000000000006084820152602481018a90526103e86044820152600160a060020a039091169250631c635ded915060a401600060405180830381600087803b1580156111b957600080fd5b505af11580156111cd573d6000803e3d6000fd5b505060055460405160e060020a631c635ded02815260606004820152600a60648201527f4c6172676520416d6d6f000000000000000000000000000000000000000000006084820152602481018a90526103e86044820152600160a060020a039091169250631c635ded915060a401600060405180830381600087803b15801561125657600080fd5b505af115801561126a573d6000803e3d6000fd5b505060055460405160e060020a631c635ded02815260606004820152600960648201527f42617474657269657300000000000000000000000000000000000000000000006084820152602481018a90526103e86044820152600160a060020a039091169250631c635ded915060a401600060405180830381600087803b1580156112f357600080fd5b505af1158015611307573d6000803e3d6000fd5b505060055460405160e060020a631c635ded02815260606004820152600660648201527f536869656c6400000000000000000000000000000000000000000000000000006084820152602481018a90526103e86044820152600160a060020a039091169250631c635ded915060a401600060405180830381600087803b15801561139057600080fd5b505af11580156113a4573d6000803e3d6000fd5b505060055460405160e060020a631c635ded02815260606004820152600660648201527f506f7274616c00000000000000000000000000000000000000000000000000006084820152602481018a90526103e86044820152600160a060020a039091169250631c635ded915060a401600060405180830381600087803b15801561142d57600080fd5b505af1158015611441573d6000803e3d6000fd5b505060055460405160e060020a631c635ded02815260606004820152600260648201527f4f6e0000000000000000000000000000000000000000000000000000000000006084820152602481018a90526103e86044820152600160a060020a039091169250631c635ded915060a401600060405180830381600087803b1580156114ca57600080fd5b505af11580156114de573d6000803e3d6000fd5b505060055460405160e060020a631c635ded02815260606004820152600360648201527f4f666600000000000000000000000000000000000000000000000000000000006084820152602481018a90526103e86044820152600160a060020a039091169250631c635ded915060a401600060405180830381600087803b15801561156757600080fd5b505af115801561157b573d6000803e3d6000fd5b505060065460405160e060020a631c635ded02815260606004820152600760648201527f5374756e6e6564000000000000000000000000000000000000000000000000006084820152602481018a90526103e86044820152600160a060020a039091169250631c635ded915060a401600060405180830381600087803b15801561160457600080fd5b505af1158015611618573d6000803e3d6000fd5b50506006805460405160e060020a631c635ded0281526060600482015260648101929092527f4275726e656400000000000000000000000000000000000000000000000000006084830152602482018a90526103e86044830152600160a060020a03169250631c635ded915060a401610678565b6040517f72c6c6b6000000000000000000000000000000000000000000000000000000008152600160a060020a0383811660048301528291908216906372c6c6b690602401600060405180830381600087803b1580156116eb57600080fd5b505af11580156116ff573d6000803e3d6000fd5b50505050505050565b6040517f9eb356cb0000000000000000000000000000000000000000000000000000000081526004810183905233602482015260448101849052600160a060020a03821690639eb356cb906064016020604051808303816000875af1158015611775573d6000803e3d6000fd5b505050506040513d601f19601f82011682018060405250810190611799919061257b565b50505050565b60008281526001602052604081206117b79083611d0e565b9392505050565b600091825260208281526040808420600160a060020a0393909316845291905290205460ff1690565b6040517fb553910d000000000000000000000000000000000000000000000000000000008152600160a060020a0382811660048301526000919084169063b553910d90602401602060405180830381865afa15801561184a573d6000803e3d6000fd5b505050506040513d601f19601f820116820180604052508101906117b79190612739565b80600160a060020a031663d1e18d266040518163ffffffff1660e060020a028152600401600060405180830381600087803b1580156118ac57600080fd5b505af11580156118c0573d6000803e3d6000fd5b5050505050565b600081815260016020526040812061032790611d1a565b6000828152602081905260409020600101546118f981611cbd565b6103528383611cec565b600061190e81611cbd565b506002805473ffffffffffffffffffffffffffffffffffffffff19908116600160a060020a03978816179091556003805482169587169590951790945560048054851693861693909317909255600580548416918516919091179055600680549092169216919091179055565b6000819050600081600160a060020a031663c06dea4e6040518163ffffffff1660e060020a028152600401602060405180830381865afa1580156119c3573d6000803e3d6000fd5b505050506040513d601f19601f820116820180604052508101906119e7919061255e565b6040517fb81f6e1800000000000000000000000000000000000000000000000000000000815260048101869052336024820152909150600160a060020a0382169063b81f6e1890604401602060405180830381865afa158015611a4e573d6000803e3d6000fd5b505050506040513d601f19601f82011682018060405250810190611a72919061257b565b611ac15760405160e560020a62461bcd02815260206004820152601560248201527f706c61796572206e6f742072656769737465726564000000000000000000000060448201526064016103d4565b6040517ff8430708000000000000000000000000000000000000000000000000000000008152600160a060020a0383169063f843070890611b0b9088906005908990600401612809565b600060405180830381600087803b158015611b2557600080fd5b505af1158015611b39573d6000803e3d6000fd5b50506040517f9f82bcc0000000000000000000000000000000000000000000000000000000008152600160a060020a0385169250639f82bcc09150611b849088908890600401612839565b600060405180830381600087803b158015611b9e57600080fd5b505af1158015611bb2573d6000803e3d6000fd5b505050505050505050565b611bc782826117be565b6103e757600082815260208181526040808320600160a060020a03851684529091529020805460ff19166001179055611bfd3390565b600160a060020a031681600160a060020a0316837f2f8788117e7eff1d82e926ec794901d17c78024a50270940304540a733656f0d60405160405180910390a45050565b60006117b783600160a060020a038416611d24565b6000600160e060020a031982167f7965db0b00000000000000000000000000000000000000000000000000000000148061032757507f01ffc9a700000000000000000000000000000000000000000000000000000000600160e060020a0319831614610327565b611cc78133611d73565b50565b611cd48282611bbd565b60008281526001602052604090206103529082611c41565b611cf68282611dda565b60008281526001602052604090206103529082611e3f565b60006117b78383611e54565b6000610327825490565b6000818152600183016020526040812054611d6b57508154600181810184556000848152602080822090930184905584548482528286019093526040902091909155610327565b506000610327565b611d7d82826117be565b6103e757611d9581600160a060020a03166014611e7e565b611da0836020611e7e565b604051602001611db192919061285b565b60408051601f198184030181529082905260e560020a62461bcd0282526103d4916004016128dc565b611de482826117be565b156103e757600082815260208181526040808320600160a060020a0385168085529252808320805460ff1916905551339285917ff6391f5c32d9c69d2a47ea670b442974b53935d1edc7fd64eb21e047a839171b9190a45050565b60006117b783600160a060020a0384166120c8565b6000826000018281548110611e6b57611e6b61259d565b9060005260206000200154905092915050565b60606000611e8d8360026128ef565b611e989060026127c9565b67ffffffffffffffff811115611eb057611eb0612270565b6040519080825280601f01601f191660200182016040528015611eda576020820181803683370190505b5090507f300000000000000000000000000000000000000000000000000000000000000081600081518110611f1157611f1161259d565b60200101907effffffffffffffffffffffffffffffffffffffffffffffffffffffffffffff1916908160001a9053507f780000000000000000000000000000000000000000000000000000000000000081600181518110611f7457611f7461259d565b60200101907effffffffffffffffffffffffffffffffffffffffffffffffffffffffffffff1916908160001a9053506000611fb08460026128ef565b611fbb9060016127c9565b90505b6001811115612076577f303132333435363738396162636465660000000000000000000000000000000085600f1660108110611ffc57611ffc61259d565b1a7f0100000000000000000000000000000000000000000000000000000000000000028282815181106120315761203161259d565b60200101907effffffffffffffffffffffffffffffffffffffffffffffffffffffffffffff1916908160001a90535060109094049361206f8161290e565b9050611fbe565b5083156117b75760405160e560020a62461bcd02815260206004820181905260248201527f537472696e67733a20686578206c656e67746820696e73756666696369656e7460448201526064016103d4565b600081815260018301602052604081205480156121b15760006120ec600183612925565b855490915060009061210090600190612925565b90508181146121655760008660000182815481106121205761212061259d565b90600052602060002001549050808760000184815481106121435761214361259d565b6000918252602080832090910192909255918252600188019052604090208390555b85548690806121765761217661293c565b600190038181906000526020600020016000905590558560010160008681526020019081526020016000206000905560019350505050610327565b6000915050610327565b6000602082840312156121cd57600080fd5b8135600160e060020a0319811681146117b757600080fd5b6000602082840312156121f757600080fd5b5035919050565b600160a060020a0381168114611cc757600080fd5b803561221e816121fe565b919050565b6000806040838503121561223657600080fd5b823591506020830135612248816121fe565b809150509250929050565b60006020828403121561226557600080fd5b81356117b7816121fe565b60e060020a634e487b7102600052604160045260246000fd5b604051601f8201601f1916810167ffffffffffffffff811182821017156122b2576122b2612270565b604052919050565b600067ffffffffffffffff8211156122d4576122d4612270565b50601f01601f191660200190565b600082601f8301126122f357600080fd5b8135612306612301826122ba565b612289565b81815284602083860101111561231b57600080fd5b816020850160208301376000918101602001919091529392505050565b60008060006060848603121561234d57600080fd5b833567ffffffffffffffff8082111561236557600080fd5b818601915086601f83011261237957600080fd5b813560208282111561238d5761238d612270565b80820261239b828201612289565b928352848101820192828101908b8511156123b557600080fd5b83870192505b848310156123f1578235868111156123d35760008081fd5b6123e18d86838b01016122e2565b83525091830191908301906123bb565b98505050870135945061240b925050604086019050612213565b90509250925092565b6000806040838503121561242757600080fd5b8235612432816121fe565b91506020830135612248816121fe565b60008060006060848603121561245757600080fd5b83359250602084013591506040840135612470816121fe565b809150509250925092565b6000806040838503121561248e57600080fd5b50508035926020909101359150565b600080600080600060a086880312156124b557600080fd5b85356124c0816121fe565b945060208601356124d0816121fe565b935060408601356124e0816121fe565b925060608601356124f0816121fe565b91506080860135612500816121fe565b809150509295509295909350565b60008060006060848603121561252357600080fd5b833567ffffffffffffffff81111561253a57600080fd5b612546868287016122e2565b935050602084013591506040840135612470816121fe565b60006020828403121561257057600080fd5b81516117b7816121fe565b60006020828403121561258d57600080fd5b815180151581146117b757600080fd5b60e060020a634e487b7102600052603260045260246000fd5b60e060020a634e487b7102600052602160045260246000fd5b60e060020a634e487b7102600052601160045260246000fd5b60006000198214156125fc576125fc6125cf565b5060010190565b60005b8381101561261e578181015183820152602001612606565b838111156117995750506000910152565b60008151808452612647816020860160208601612603565b601f01601f19169290920160200192915050565b600c811061267c5760e060020a634e487b7102600052602160045260246000fd5b9052565b6000608082016080835280875180835260a0850191506020925060a0838202860101838a0160005b838110156126d657609f198884030185526126c483835161262f565b948601949250908501906001016126a8565b5050600160a060020a0389168685015260408601889052858103606087015286518082529084019250905085830160005b8281101561272a5761271a84835161265b565b9284019290840190600101612707565b50919998505050505050505050565b60006020828403121561274b57600080fd5b5051919050565b60006020828403121561276457600080fd5b815167ffffffffffffffff81111561277b57600080fd5b8201601f8101841361278c57600080fd5b805161279a612301826122ba565b8181528560208385010111156127af57600080fd5b6127c0826020830160208601612603565b95945050505050565b600082198211156127dc576127dc6125cf565b500190565b600160a060020a03841681528260208201526060604082015260006127c0606083018461262f565b60608152600061281c606083018661262f565b905061282b602083018561265b565b826040830152949350505050565b60408152600061284c604083018561262f565b90508260208301529392505050565b7f416363657373436f6e74726f6c3a206163636f756e7420000000000000000000815260008351612893816017850160208801612603565b7f206973206d697373696e6720726f6c652000000000000000000000000000000060179184019182015283516128d0816028840160208801612603565b01602801949350505050565b6020815260006117b7602083018461262f565b6000816000190483118215151615612909576129096125cf565b500290565b60008161291d5761291d6125cf565b506000190190565b600082821015612937576129376125cf565b500390565b60e060020a634e487b7102600052603160045260246000fdfea2646970667358221220f6fe913ad6e1ac88bcb55ca2c14718e04ec10884ff585a6b7e46810e9c87ac6a64736f6c634300080b0033",
  "immutableReferences": {},
  "source": "// SPDX-License-Identifier: GPL-3.0\npragma solidity >=0.7.0 <0.9.0;\n\nimport \"@luckymachines/game-core/contracts/src/v0.0/GameController.sol\";\nimport \"./HexplorationBoard.sol\";\nimport \"./HexplorationZone.sol\";\n// Game Tokens\nimport \"./tokens/DayNight.sol\";\nimport \"./tokens/Disaster.sol\";\nimport \"./tokens/Enemy.sol\";\nimport \"./tokens/Item.sol\";\nimport \"./tokens/PlayerStatus.sol\";\n\ncontract HexplorationController is GameController {\n    // functions are meant to be called directly by players by default\n    // we are adding the ability of a Controller Admin or Keeper to\n    // execute the game aspects not directly controlled by players\n    bytes32 public constant KEEPER_ROLE = keccak256(\"KEEPER_ROLE\");\n\n    DayNight internal DAY_NIGHT_TOKEN;\n    Disaster internal DISASTER_TOKEN;\n    Enemy internal ENEMY_TOKEN;\n    Item internal ITEM_TOKEN;\n    PlayerStatus internal PLAYER_STATUS_TOKEN;\n\n    // TODO:\n    // Connect to Chainlink VRF for random seeds when needed\n    // submit move + space choice\n    // use / swap item\n\n    /*\n    Controller can access all game tokens with the following methods:\n\n    function mint(\n        string memory tokenType,\n        uint256 gameID,\n        uint256 quantity\n    )\n\n    function transfer(\n        string memory tokenType,\n        uint256 gameID,\n        uint256 fromPlayerID,\n        uint256 toPlayerID,\n        uint256 quantity\n    )\n*/\n    modifier onlyAdminKeeper() {\n        require(\n            hasRole(DEFAULT_ADMIN_ROLE, _msgSender()) ||\n                hasRole(KEEPER_ROLE, _msgSender()),\n            \"Admin or Keeper role required\"\n        );\n        _;\n    }\n\n    constructor(address adminAddress) GameController(adminAddress) {}\n\n    // Admin Functions\n    function setTokenAddresses(\n        address dayNightAddress,\n        address disasterAddress,\n        address enemyAddress,\n        address itemAddress,\n        address playerStatusAddress\n    ) public onlyRole(DEFAULT_ADMIN_ROLE) {\n        DAY_NIGHT_TOKEN = DayNight(dayNightAddress);\n        DISASTER_TOKEN = Disaster(disasterAddress);\n        ENEMY_TOKEN = Enemy(enemyAddress);\n        ITEM_TOKEN = Item(itemAddress);\n        PLAYER_STATUS_TOKEN = PlayerStatus(playerStatusAddress);\n    }\n\n    function addKeeper(address keeperAddress)\n        public\n        onlyRole(DEFAULT_ADMIN_ROLE)\n    {\n        grantRole(KEEPER_ROLE, keeperAddress);\n    }\n\n    // Admin or Keeper Interactions\n    function runBoardUpdate(address boardAddress) public {\n        HexplorationBoard(boardAddress).runUpdate();\n    }\n\n    function startGame(uint256 gameID, address boardAddress) public {\n        HexplorationBoard board = HexplorationBoard(boardAddress);\n        require(board.gameState(gameID) == 0, \"game already started\");\n\n        PlayerRegistry pr = PlayerRegistry(board.prAddress());\n        board.lockRegistration(gameID);\n        uint256 totalRegistrations = pr.totalRegistrations(gameID);\n        string memory startZone = board.initialPlayZone(gameID);\n        for (uint256 i = 0; i < totalRegistrations; i++) {\n            address playerAddress = pr.playerAddress(gameID, i + 1);\n            board.enterPlayer(playerAddress, gameID, startZone);\n        }\n        // set game to initialized\n        board.setGameState(2, gameID);\n\n        // mint game tokens (maybe mint on demand instead...)\n        // minting full game set here\n        DAY_NIGHT_TOKEN.mint(\"Day\", gameID, 1);\n        DAY_NIGHT_TOKEN.mint(\"Night\", gameID, 1);\n        DISASTER_TOKEN.mint(\"Earthquake\", gameID, 1000);\n        DISASTER_TOKEN.mint(\"Volcano\", gameID, 1000);\n        ENEMY_TOKEN.mint(\"Pirate\", gameID, 1000);\n        ENEMY_TOKEN.mint(\"Pirate Ship\", gameID, 1000);\n        ENEMY_TOKEN.mint(\"Deathbot\", gameID, 1000);\n        ENEMY_TOKEN.mint(\"Guardian\", gameID, 1000);\n        ENEMY_TOKEN.mint(\"Sandworm\", gameID, 1000);\n        ENEMY_TOKEN.mint(\"Dragon\", gameID, 1000);\n        ITEM_TOKEN.mint(\"Small Ammo\", gameID, 1000);\n        ITEM_TOKEN.mint(\"Large Ammo\", gameID, 1000);\n        ITEM_TOKEN.mint(\"Batteries\", gameID, 1000);\n        ITEM_TOKEN.mint(\"Shield\", gameID, 1000);\n        ITEM_TOKEN.mint(\"Portal\", gameID, 1000);\n        ITEM_TOKEN.mint(\"On\", gameID, 1000);\n        ITEM_TOKEN.mint(\"Off\", gameID, 1000);\n        PLAYER_STATUS_TOKEN.mint(\"Stunned\", gameID, 1000);\n        PLAYER_STATUS_TOKEN.mint(\"Burned\", gameID, 1000);\n    }\n\n    //Player Interactions\n    function moveThroughPath(\n        string[] memory zonePath,\n        uint256 gameID,\n        address boardAddress\n    ) public {\n        // TODO:\n        // verify move is valid\n        // pick tiles from deck\n        HexplorationBoard board = HexplorationBoard(boardAddress);\n        PlayerRegistry pr = PlayerRegistry(board.prAddress());\n        require(pr.isRegistered(gameID, msg.sender), \"player not registered\");\n\n        HexplorationZone.Tile[] memory tiles = new HexplorationZone.Tile[](\n            zonePath.length\n        );\n        for (uint256 i = 0; i < zonePath.length; i++) {\n            tiles[i] = i == 0 ? HexplorationZone.Tile.Jungle : i == 1\n                ? HexplorationZone.Tile.Plains\n                : HexplorationZone.Tile.Mountain;\n        }\n\n        HexplorationBoard(boardAddress).moveThroughPath(\n            zonePath,\n            msg.sender,\n            gameID,\n            tiles\n        );\n    }\n\n    function chooseLandingSite(\n        string memory zoneChoice,\n        uint256 gameID,\n        address boardAddress\n    ) public {\n        // TODO: decide if this is done by a leader or automatically\n        // game will begin and registration locked after this...\n        HexplorationBoard board = HexplorationBoard(boardAddress);\n        PlayerRegistry pr = PlayerRegistry(board.prAddress());\n        require(pr.isRegistered(gameID, msg.sender), \"player not registered\");\n\n        board.enableZone(zoneChoice, HexplorationZone.Tile.LandingSite, gameID);\n        // set landing site at space on board\n        board.setInitialPlayZone(zoneChoice, gameID);\n    }\n\n    // TODO: limit this to authorized game starters\n    function requestNewGame(address gameRegistryAddress, address boardAddress)\n        public\n    {\n        HexplorationBoard board = HexplorationBoard(boardAddress);\n        board.requestNewGame(gameRegistryAddress);\n    }\n\n    function latestGame(address gameRegistryAddress, address boardAddress)\n        public\n        view\n        returns (uint256)\n    {\n        return GameRegistry(gameRegistryAddress).latestGame(boardAddress);\n    }\n}\n",
  "sourcePath": "/Users/maxmeier/Developer/Lucky Machines/hexploration/contracts/HexplorationController.sol",
  "compiler": {
    "name": "solc",
    "version": "0.8.11+commit.d7f03943.Emscripten.clang"
  },
  "schemaVersion": "3.4.4",
  "updatedAt": "2022-05-15T19:09:21.658Z",
  "devdoc": {
    "kind": "dev",
    "methods": {
      "getRoleAdmin(bytes32)": {
        "details": "Returns the admin role that controls `role`. See {grantRole} and {revokeRole}. To change a role's admin, use {_setRoleAdmin}."
      },
      "getRoleMember(bytes32,uint256)": {
        "details": "Returns one of the accounts that have `role`. `index` must be a value between 0 and {getRoleMemberCount}, non-inclusive. Role bearers are not sorted in any particular way, and their ordering may change at any point. WARNING: When using {getRoleMember} and {getRoleMemberCount}, make sure you perform all queries on the same block. See the following https://forum.openzeppelin.com/t/iterating-over-elements-on-enumerableset-in-openzeppelin-contracts/2296[forum post] for more information."
      },
      "getRoleMemberCount(bytes32)": {
        "details": "Returns the number of accounts that have `role`. Can be used together with {getRoleMember} to enumerate all bearers of a role."
      },
      "grantRole(bytes32,address)": {
        "details": "Grants `role` to `account`. If `account` had not been already granted `role`, emits a {RoleGranted} event. Requirements: - the caller must have ``role``'s admin role."
      },
      "hasRole(bytes32,address)": {
        "details": "Returns `true` if `account` has been granted `role`."
      },
      "renounceRole(bytes32,address)": {
        "details": "Revokes `role` from the calling account. Roles are often managed via {grantRole} and {revokeRole}: this function's purpose is to provide a mechanism for accounts to lose their privileges if they are compromised (such as when a trusted device is misplaced). If the calling account had been revoked `role`, emits a {RoleRevoked} event. Requirements: - the caller must be `account`."
      },
      "revokeRole(bytes32,address)": {
        "details": "Revokes `role` from `account`. If `account` had been granted `role`, emits a {RoleRevoked} event. Requirements: - the caller must have ``role``'s admin role."
      },
      "supportsInterface(bytes4)": {
        "details": "See {IERC165-supportsInterface}."
      }
    },
    "version": 1
  },
  "userdoc": {
    "kind": "user",
    "methods": {},
    "version": 1
  }
}