{
  "contractName": "HexplorationController",
  "abi": [
    {
      "inputs": [
        {
          "internalType": "address",
          "name": "adminAddress",
          "type": "address"
        }
      ],
      "stateMutability": "nonpayable",
      "type": "constructor"
    },
    {
      "anonymous": false,
      "inputs": [
        {
          "indexed": true,
          "internalType": "bytes32",
          "name": "role",
          "type": "bytes32"
        },
        {
          "indexed": true,
          "internalType": "bytes32",
          "name": "previousAdminRole",
          "type": "bytes32"
        },
        {
          "indexed": true,
          "internalType": "bytes32",
          "name": "newAdminRole",
          "type": "bytes32"
        }
      ],
      "name": "RoleAdminChanged",
      "type": "event"
    },
    {
      "anonymous": false,
      "inputs": [
        {
          "indexed": true,
          "internalType": "bytes32",
          "name": "role",
          "type": "bytes32"
        },
        {
          "indexed": true,
          "internalType": "address",
          "name": "account",
          "type": "address"
        },
        {
          "indexed": true,
          "internalType": "address",
          "name": "sender",
          "type": "address"
        }
      ],
      "name": "RoleGranted",
      "type": "event"
    },
    {
      "anonymous": false,
      "inputs": [
        {
          "indexed": true,
          "internalType": "bytes32",
          "name": "role",
          "type": "bytes32"
        },
        {
          "indexed": true,
          "internalType": "address",
          "name": "account",
          "type": "address"
        },
        {
          "indexed": true,
          "internalType": "address",
          "name": "sender",
          "type": "address"
        }
      ],
      "name": "RoleRevoked",
      "type": "event"
    },
    {
      "inputs": [],
      "name": "DEFAULT_ADMIN_ROLE",
      "outputs": [
        {
          "internalType": "bytes32",
          "name": "",
          "type": "bytes32"
        }
      ],
      "stateMutability": "view",
      "type": "function"
    },
    {
      "inputs": [],
      "name": "KEEPER_ROLE",
      "outputs": [
        {
          "internalType": "bytes32",
          "name": "",
          "type": "bytes32"
        }
      ],
      "stateMutability": "view",
      "type": "function"
    },
    {
      "inputs": [
        {
          "internalType": "uint256",
          "name": "pathIndex",
          "type": "uint256"
        },
        {
          "internalType": "uint256",
          "name": "gameID",
          "type": "uint256"
        },
        {
          "internalType": "address",
          "name": "gameBoardAddress",
          "type": "address"
        }
      ],
      "name": "exitToPath",
      "outputs": [],
      "stateMutability": "nonpayable",
      "type": "function"
    },
    {
      "inputs": [
        {
          "internalType": "bytes32",
          "name": "role",
          "type": "bytes32"
        }
      ],
      "name": "getRoleAdmin",
      "outputs": [
        {
          "internalType": "bytes32",
          "name": "",
          "type": "bytes32"
        }
      ],
      "stateMutability": "view",
      "type": "function"
    },
    {
      "inputs": [
        {
          "internalType": "bytes32",
          "name": "role",
          "type": "bytes32"
        },
        {
          "internalType": "uint256",
          "name": "index",
          "type": "uint256"
        }
      ],
      "name": "getRoleMember",
      "outputs": [
        {
          "internalType": "address",
          "name": "",
          "type": "address"
        }
      ],
      "stateMutability": "view",
      "type": "function"
    },
    {
      "inputs": [
        {
          "internalType": "bytes32",
          "name": "role",
          "type": "bytes32"
        }
      ],
      "name": "getRoleMemberCount",
      "outputs": [
        {
          "internalType": "uint256",
          "name": "",
          "type": "uint256"
        }
      ],
      "stateMutability": "view",
      "type": "function"
    },
    {
      "inputs": [
        {
          "internalType": "bytes32",
          "name": "role",
          "type": "bytes32"
        },
        {
          "internalType": "address",
          "name": "account",
          "type": "address"
        }
      ],
      "name": "grantRole",
      "outputs": [],
      "stateMutability": "nonpayable",
      "type": "function"
    },
    {
      "inputs": [
        {
          "internalType": "bytes32",
          "name": "role",
          "type": "bytes32"
        },
        {
          "internalType": "address",
          "name": "account",
          "type": "address"
        }
      ],
      "name": "hasRole",
      "outputs": [
        {
          "internalType": "bool",
          "name": "",
          "type": "bool"
        }
      ],
      "stateMutability": "view",
      "type": "function"
    },
    {
      "inputs": [
        {
          "internalType": "bytes32",
          "name": "role",
          "type": "bytes32"
        },
        {
          "internalType": "address",
          "name": "account",
          "type": "address"
        }
      ],
      "name": "renounceRole",
      "outputs": [],
      "stateMutability": "nonpayable",
      "type": "function"
    },
    {
      "inputs": [
        {
          "internalType": "bytes32",
          "name": "role",
          "type": "bytes32"
        },
        {
          "internalType": "address",
          "name": "account",
          "type": "address"
        }
      ],
      "name": "revokeRole",
      "outputs": [],
      "stateMutability": "nonpayable",
      "type": "function"
    },
    {
      "inputs": [
        {
          "internalType": "bytes4",
          "name": "interfaceId",
          "type": "bytes4"
        }
      ],
      "name": "supportsInterface",
      "outputs": [
        {
          "internalType": "bool",
          "name": "",
          "type": "bool"
        }
      ],
      "stateMutability": "view",
      "type": "function"
    },
    {
      "inputs": [
        {
          "internalType": "address",
          "name": "keeperAddress",
          "type": "address"
        }
      ],
      "name": "addKeeper",
      "outputs": [],
      "stateMutability": "nonpayable",
      "type": "function"
    },
    {
      "inputs": [
        {
          "internalType": "address",
          "name": "boardAddress",
          "type": "address"
        }
      ],
      "name": "runBoardUpdate",
      "outputs": [],
      "stateMutability": "nonpayable",
      "type": "function"
    },
    {
      "inputs": [
        {
          "internalType": "uint256",
          "name": "gameID",
          "type": "uint256"
        },
        {
          "internalType": "address",
          "name": "boardAddress",
          "type": "address"
        }
      ],
      "name": "startGame",
      "outputs": [],
      "stateMutability": "nonpayable",
      "type": "function"
    },
    {
      "inputs": [
        {
          "internalType": "uint256",
          "name": "gameID",
          "type": "uint256"
        },
        {
          "internalType": "address",
          "name": "boardAddress",
          "type": "address"
        }
      ],
      "name": "registerForGame",
      "outputs": [],
      "stateMutability": "nonpayable",
      "type": "function"
    },
    {
      "inputs": [
        {
          "internalType": "uint256",
          "name": "playerID",
          "type": "uint256"
        },
        {
          "internalType": "uint8",
          "name": "actionIndex",
          "type": "uint8"
        },
        {
          "internalType": "string[]",
          "name": "options",
          "type": "string[]"
        },
        {
          "internalType": "string",
          "name": "leftHand",
          "type": "string"
        },
        {
          "internalType": "string",
          "name": "rightHand",
          "type": "string"
        },
        {
          "internalType": "uint256",
          "name": "gameID",
          "type": "uint256"
        },
        {
          "internalType": "address",
          "name": "boardAddress",
          "type": "address"
        }
      ],
      "name": "submitAction",
      "outputs": [],
      "stateMutability": "nonpayable",
      "type": "function"
    },
    {
      "inputs": [
        {
          "internalType": "string[]",
          "name": "zonePath",
          "type": "string[]"
        },
        {
          "internalType": "uint256",
          "name": "gameID",
          "type": "uint256"
        },
        {
          "internalType": "address",
          "name": "boardAddress",
          "type": "address"
        }
      ],
      "name": "moveThroughPath",
      "outputs": [],
      "stateMutability": "nonpayable",
      "type": "function"
    },
    {
      "inputs": [
        {
          "internalType": "string",
          "name": "zoneChoice",
          "type": "string"
        },
        {
          "internalType": "uint256",
          "name": "gameID",
          "type": "uint256"
        },
        {
          "internalType": "address",
          "name": "boardAddress",
          "type": "address"
        }
      ],
      "name": "chooseLandingSite",
      "outputs": [],
      "stateMutability": "nonpayable",
      "type": "function"
    },
    {
      "inputs": [
        {
          "internalType": "address",
          "name": "gameRegistryAddress",
          "type": "address"
        },
        {
          "internalType": "address",
          "name": "boardAddress",
          "type": "address"
        }
      ],
      "name": "requestNewGame",
      "outputs": [],
      "stateMutability": "nonpayable",
      "type": "function"
    },
    {
      "inputs": [
        {
          "internalType": "address",
          "name": "gameRegistryAddress",
          "type": "address"
        },
        {
          "internalType": "address",
          "name": "boardAddress",
          "type": "address"
        }
      ],
      "name": "latestGame",
      "outputs": [
        {
          "internalType": "uint256",
          "name": "",
          "type": "uint256"
        }
      ],
      "stateMutability": "view",
      "type": "function"
    }
  ],
  "bytecode": "0x60806040523480156200001157600080fd5b5060405162005e3738038062005e37833981016040819052620000349162000215565b806200004b60008264010000000062000053810204565b505062000247565b6200006882826401000000006200006c810204565b5050565b62000086828264010000000062004bea620000b382021704565b6000828152600160205260409020620000ae908264010000000062004c6e6200014f82021704565b505050565b620000c8828264010000000062000178810204565b6200006857600082815260208181526040808320600160a060020a03851684529091529020805460ff191660011790556200010b640100000000620001a1810204565b600160a060020a031681600160a060020a0316837f2f8788117e7eff1d82e926ec794901d17c78024a50270940304540a733656f0d60405160405180910390a45050565b60006200016f83600160a060020a038416640100000000620001a5810204565b90505b92915050565b600091825260208281526040808420600160a060020a0393909316845291905290205460ff1690565b3390565b6000620001bc8383640100000000620001fd810204565b620001f45750815460018181018455600084815260208082209093018490558454848252828601909352604090209190915562000172565b50600062000172565b60009081526001919091016020526040902054151590565b6000602082840312156200022857600080fd5b8151600160a060020a03811681146200024057600080fd5b9392505050565b615be080620002576000396000f3fe608060405234801561001057600080fd5b50600436106101305760003560e060020a900480637479c8fe116100b1578063c3ef701311610075578063c3ef7013146102a8578063ca15c873146102bb578063d547741f146102ce578063e506675d146102e1578063f3297df9146102f457600080fd5b80637479c8fe1461023c5780639010d07c1461024f57806391d148541461027a578063975eef261461028d578063a217fddf146102a057600080fd5b806336568abe116100f857806336568abe146101dd5780634032b72b146101f05780634bde808c14610203578063621cc08d14610216578063661e05661461022957600080fd5b806301ffc9a714610135578063248a9ca31461015d57806329a461d61461018e5780632f2ff15d146101a3578063364bc15a146101b6575b600080fd5b6101486101433660046151e8565b610307565b60405190151581526020015b60405180910390f35b61018061016b366004615212565b60009081526020819052604090206001015490565b604051908152602001610154565b6101a161019c366004615250565b61034b565b005b6101a16101b1366004615250565b6104c5565b6101807ffc8737ab85eb45125971625a9ebdb75cc78e01d5c1fa80c4c6e5203f47bc4fab81565b6101a16101eb366004615250565b6104ef565b6101a16101fe366004615280565b610583565b6101a1610211366004615403565b6105b8565b6101a1610224366004615250565b61084a565b6101a161023736600461545e565b614485565b6101a161024a36600461548c565b6144cf565b61026261025d3660046154ba565b614566565b604051600160a060020a039091168152602001610154565b610148610288366004615250565b614585565b61018061029b36600461545e565b6145ae565b610180600081565b6101a16102b6366004615280565b614635565b6101806102c9366004615212565b61468e565b6101a16102dc366004615250565b6146a5565b6101a16102ef3660046154dc565b6146ca565b6101a16103023660046155a1565b6149a8565b6000600160e060020a031982167f5a05180f000000000000000000000000000000000000000000000000000000001480610345575061034582614c83565b92915050565b6040517f9aabe36d000000000000000000000000000000000000000000000000000000008152336004820152602481018390528190600160a060020a03821690639aabe36d90604401600060405180830381600087803b1580156103ae57600080fd5b505af11580156103c2573d6000803e3d6000fd5b5050505080600160a060020a031663a0ed600d6040518163ffffffff1660e060020a028152600401602060405180830381865afa158015610407573d6000803e3d6000fd5b505050506040513d601f19601f8201168201806040525081019061042b91906155d9565b6040805160608101825260048082526020820181905281830181905291517ff5386d70000000000000000000000000000000000000000000000000000000008152600160a060020a03939093169263f5386d709261048e929188913391016155f6565b600060405180830381600087803b1580156104a857600080fd5b505af11580156104bc573d6000803e3d6000fd5b50505050505050565b6000828152602081905260409020600101546104e081614cea565b6104ea8383614cf7565b505050565b600160a060020a03811633146105755760405160e560020a62461bcd02815260206004820152602f60248201527f416363657373436f6e74726f6c3a2063616e206f6e6c792072656e6f756e636560448201527f20726f6c657320666f722073656c66000000000000000000000000000000000060648201526084015b60405180910390fd5b61057f8282614d19565b5050565b600061058e81614cea565b61057f7ffc8737ab85eb45125971625a9ebdb75cc78e01d5c1fa80c4c6e5203f47bc4fab836104c5565b6000819050600081600160a060020a031663c06dea4e6040518163ffffffff1660e060020a028152600401602060405180830381865afa158015610600573d6000803e3d6000fd5b505050506040513d601f19601f8201168201806040525081019061062491906155d9565b6040517fb81f6e1800000000000000000000000000000000000000000000000000000000815260048101869052336024820152909150600160a060020a0382169063b81f6e1890604401602060405180830381865afa15801561068b573d6000803e3d6000fd5b505050506040513d601f19601f820116820180604052508101906106af9190615641565b6106fe5760405160e560020a62461bcd02815260206004820152601560248201527f706c61796572206e6f7420726567697374657265640000000000000000000000604482015260640161056c565b6000855167ffffffffffffffff81111561071a5761071a61529d565b604051908082528060200260200182016040528015610743578160200160208202803683370190505b50905060005b86518110156107c457801561076e5780600114610767576004610771565b6002610771565b60015b82828151811061078357610783615663565b6020026020010190600b81111561079c5761079c61567c565b9081600b8111156107af576107af61567c565b905250806107bc816156ae565b915050610749565b506040517f31e019f6000000000000000000000000000000000000000000000000000000008152600160a060020a038516906331e019f69061081090899033908a908790600401615789565b600060405180830381600087803b15801561082a57600080fd5b505af115801561083e573d6000803e3d6000fd5b50505050505050505050565b6040517f4e0e1a3e000000000000000000000000000000000000000000000000000000008152600481018390528190600160a060020a03821690634e0e1a3e90602401602060405180830381865afa1580156108aa573d6000803e3d6000fd5b505050506040513d601f19601f820116820180604052508101906108ce91906157ff565b1561091e5760405160e560020a62461bcd02815260206004820152601460248201527f67616d6520616c72656164792073746172746564000000000000000000000000604482015260640161056c565b600081600160a060020a031663c06dea4e6040518163ffffffff1660e060020a028152600401602060405180830381865afa158015610961573d6000803e3d6000fd5b505050506040513d601f19601f8201168201806040525081019061098591906155d9565b6040517f60c2050000000000000000000000000000000000000000000000000000000000815260048101869052909150600160a060020a038316906360c2050090602401600060405180830381600087803b1580156109e357600080fd5b505af11580156109f7573d6000803e3d6000fd5b50506040517fb77ff4110000000000000000000000000000000000000000000000000000000081526004810187905260009250600160a060020a038416915063b77ff41190602401602060405180830381865afa158015610a5c573d6000803e3d6000fd5b505050506040513d601f19601f82011682018060405250810190610a8091906157ff565b6040517feb33983d00000000000000000000000000000000000000000000000000000000815260048101879052909150600090600160a060020a0385169063eb33983d90602401600060405180830381865afa158015610ae4573d6000803e3d6000fd5b505050506040513d6000823e601f3d908101601f19168201604052610b0c9190810190615818565b9050600084600160a060020a031663cca369966040518163ffffffff1660e060020a028152600401602060405180830381865afa158015610b51573d6000803e3d6000fd5b505050506040513d601f19601f82011682018060405250810190610b7591906155d9565b905080600160a060020a031663a906dfd16040518163ffffffff1660e060020a028152600401602060405180830381865afa158015610bb8573d6000803e3d6000fd5b505050506040513d601f19601f82011682018060405250810190610bdc91906155d9565b600160a060020a0316631c635ded8860016040518363ffffffff1660e060020a028152600401610c0d92919061588f565b600060405180830381600087803b158015610c2757600080fd5b505af1158015610c3b573d6000803e3d6000fd5b5050505080600160a060020a031663a906dfd16040518163ffffffff1660e060020a028152600401602060405180830381865afa158015610c80573d6000803e3d6000fd5b505050506040513d601f19601f82011682018060405250810190610ca491906155d9565b60405160e060020a631c635ded02815260606004820152600560648201527f4e6967687400000000000000000000000000000000000000000000000000000060848201526024810189905260016044820152600160a060020a039190911690631c635ded9060a401600060405180830381600087803b158015610d2657600080fd5b505af1158015610d3a573d6000803e3d6000fd5b5050505080600160a060020a0316632ee0804a6040518163ffffffff1660e060020a028152600401602060405180830381865afa158015610d7f573d6000803e3d6000fd5b505050506040513d601f19601f82011682018060405250810190610da391906155d9565b60405160e060020a631c635ded02815260606004820152600a60648201527f45617274687175616b65000000000000000000000000000000000000000000006084820152602481018990526103e86044820152600160a060020a039190911690631c635ded9060a401600060405180830381600087803b158015610e2657600080fd5b505af1158015610e3a573d6000803e3d6000fd5b5050505080600160a060020a0316632ee0804a6040518163ffffffff1660e060020a028152600401602060405180830381865afa158015610e7f573d6000803e3d6000fd5b505050506040513d601f19601f82011682018060405250810190610ea391906155d9565b60405160e060020a631c635ded02815260606004820152600760648201527f566f6c63616e6f000000000000000000000000000000000000000000000000006084820152602481018990526103e86044820152600160a060020a039190911690631c635ded9060a401600060405180830381600087803b158015610f2657600080fd5b505af1158015610f3a573d6000803e3d6000fd5b5050505080600160a060020a0316632b2145336040518163ffffffff1660e060020a028152600401602060405180830381865afa158015610f7f573d6000803e3d6000fd5b505050506040513d601f19601f82011682018060405250810190610fa391906155d9565b60405160e060020a631c635ded02815260606004820152600660648201527f50697261746500000000000000000000000000000000000000000000000000006084820152602481018990526103e86044820152600160a060020a039190911690631c635ded9060a401600060405180830381600087803b15801561102657600080fd5b505af115801561103a573d6000803e3d6000fd5b5050505080600160a060020a0316632b2145336040518163ffffffff1660e060020a028152600401602060405180830381865afa15801561107f573d6000803e3d6000fd5b505050506040513d601f19601f820116820180604052508101906110a391906155d9565b60405160e060020a631c635ded02815260606004820152600b60648201527f50697261746520536869700000000000000000000000000000000000000000006084820152602481018990526103e86044820152600160a060020a039190911690631c635ded9060a401600060405180830381600087803b15801561112657600080fd5b505af115801561113a573d6000803e3d6000fd5b5050505080600160a060020a0316632b2145336040518163ffffffff1660e060020a028152600401602060405180830381865afa15801561117f573d6000803e3d6000fd5b505050506040513d601f19601f820116820180604052508101906111a391906155d9565b60405160e060020a631c635ded02815260606004820152600860648201527f4465617468626f740000000000000000000000000000000000000000000000006084820152602481018990526103e86044820152600160a060020a039190911690631c635ded9060a401600060405180830381600087803b15801561122657600080fd5b505af115801561123a573d6000803e3d6000fd5b5050505080600160a060020a0316632b2145336040518163ffffffff1660e060020a028152600401602060405180830381865afa15801561127f573d6000803e3d6000fd5b505050506040513d601f19601f820116820180604052508101906112a391906155d9565b60405160e060020a631c635ded02815260606004820152600860648201527f477561726469616e0000000000000000000000000000000000000000000000006084820152602481018990526103e86044820152600160a060020a039190911690631c635ded9060a401600060405180830381600087803b15801561132657600080fd5b505af115801561133a573d6000803e3d6000fd5b5050505080600160a060020a0316632b2145336040518163ffffffff1660e060020a028152600401602060405180830381865afa15801561137f573d6000803e3d6000fd5b505050506040513d601f19601f820116820180604052508101906113a391906155d9565b60405160e060020a631c635ded02815260606004820152600860648201527f53616e64776f726d0000000000000000000000000000000000000000000000006084820152602481018990526103e86044820152600160a060020a039190911690631c635ded9060a401600060405180830381600087803b15801561142657600080fd5b505af115801561143a573d6000803e3d6000fd5b5050505080600160a060020a0316632b2145336040518163ffffffff1660e060020a028152600401602060405180830381865afa15801561147f573d6000803e3d6000fd5b505050506040513d601f19601f820116820180604052508101906114a391906155d9565b60405160e060020a631c635ded02815260606004820152600660648201527f447261676f6e00000000000000000000000000000000000000000000000000006084820152602481018990526103e86044820152600160a060020a039190911690631c635ded9060a401600060405180830381600087803b15801561152657600080fd5b505af115801561153a573d6000803e3d6000fd5b5050505080600160a060020a031663a318d45c6040518163ffffffff1660e060020a028152600401602060405180830381865afa15801561157f573d6000803e3d6000fd5b505050506040513d601f19601f820116820180604052508101906115a391906155d9565b60405160e060020a631c635ded02815260606004820152600a60648201527f536d616c6c20416d6d6f000000000000000000000000000000000000000000006084820152602481018990526103e86044820152600160a060020a039190911690631c635ded9060a401600060405180830381600087803b15801561162657600080fd5b505af115801561163a573d6000803e3d6000fd5b5050505080600160a060020a031663a318d45c6040518163ffffffff1660e060020a028152600401602060405180830381865afa15801561167f573d6000803e3d6000fd5b505050506040513d601f19601f820116820180604052508101906116a391906155d9565b60405160e060020a631c635ded02815260606004820152600a60648201527f4c6172676520416d6d6f000000000000000000000000000000000000000000006084820152602481018990526103e86044820152600160a060020a039190911690631c635ded9060a401600060405180830381600087803b15801561172657600080fd5b505af115801561173a573d6000803e3d6000fd5b5050505080600160a060020a031663a318d45c6040518163ffffffff1660e060020a028152600401602060405180830381865afa15801561177f573d6000803e3d6000fd5b505050506040513d601f19601f820116820180604052508101906117a391906155d9565b60405160e060020a631c635ded02815260606004820152600960648201527f42617474657269657300000000000000000000000000000000000000000000006084820152602481018990526103e86044820152600160a060020a039190911690631c635ded9060a401600060405180830381600087803b15801561182657600080fd5b505af115801561183a573d6000803e3d6000fd5b5050505080600160a060020a031663a318d45c6040518163ffffffff1660e060020a028152600401602060405180830381865afa15801561187f573d6000803e3d6000fd5b505050506040513d601f19601f820116820180604052508101906118a391906155d9565b60405160e060020a631c635ded02815260606004820152600660648201527f536869656c6400000000000000000000000000000000000000000000000000006084820152602481018990526103e86044820152600160a060020a039190911690631c635ded9060a401600060405180830381600087803b15801561192657600080fd5b505af115801561193a573d6000803e3d6000fd5b5050505080600160a060020a031663a318d45c6040518163ffffffff1660e060020a028152600401602060405180830381865afa15801561197f573d6000803e3d6000fd5b505050506040513d601f19601f820116820180604052508101906119a391906155d9565b60405160e060020a631c635ded02815260606004820152600660648201527f506f7274616c00000000000000000000000000000000000000000000000000006084820152602481018990526103e86044820152600160a060020a039190911690631c635ded9060a401600060405180830381600087803b158015611a2657600080fd5b505af1158015611a3a573d6000803e3d6000fd5b5050505080600160a060020a031663a318d45c6040518163ffffffff1660e060020a028152600401602060405180830381865afa158015611a7f573d6000803e3d6000fd5b505050506040513d601f19601f82011682018060405250810190611aa391906155d9565b60405160e060020a631c635ded02815260606004820152600260648201527f4f6e0000000000000000000000000000000000000000000000000000000000006084820152602481018990526103e86044820152600160a060020a039190911690631c635ded9060a401600060405180830381600087803b158015611b2657600080fd5b505af1158015611b3a573d6000803e3d6000fd5b5050505080600160a060020a031663a318d45c6040518163ffffffff1660e060020a028152600401602060405180830381865afa158015611b7f573d6000803e3d6000fd5b505050506040513d601f19601f82011682018060405250810190611ba391906155d9565b60405160e060020a631c635ded02815260606004820152600360648201527f4f666600000000000000000000000000000000000000000000000000000000006084820152602481018990526103e86044820152600160a060020a039190911690631c635ded9060a401600060405180830381600087803b158015611c2657600080fd5b505af1158015611c3a573d6000803e3d6000fd5b5050505080600160a060020a031663a318d45c6040518163ffffffff1660e060020a028152600401602060405180830381865afa158015611c7f573d6000803e3d6000fd5b505050506040513d601f19601f82011682018060405250810190611ca391906155d9565b60405160e060020a631c635ded02815260606004820152600c60648201527f52757374792044616767657200000000000000000000000000000000000000006084820152602481018990526103e86044820152600160a060020a039190911690631c635ded9060a401600060405180830381600087803b158015611d2657600080fd5b505af1158015611d3a573d6000803e3d6000fd5b5050505080600160a060020a031663a318d45c6040518163ffffffff1660e060020a028152600401602060405180830381865afa158015611d7f573d6000803e3d6000fd5b505050506040513d601f19601f82011682018060405250810190611da391906155d9565b60405160e060020a631c635ded02815260606004820152600b60648201527f52757374792053776f72640000000000000000000000000000000000000000006084820152602481018990526103e86044820152600160a060020a039190911690631c635ded9060a401600060405180830381600087803b158015611e2657600080fd5b505af1158015611e3a573d6000803e3d6000fd5b5050505080600160a060020a031663a318d45c6040518163ffffffff1660e060020a028152600401602060405180830381865afa158015611e7f573d6000803e3d6000fd5b505050506040513d601f19601f82011682018060405250810190611ea391906155d9565b60405160e060020a631c635ded02815260606004820152600c60648201527f527573747920506973746f6c00000000000000000000000000000000000000006084820152602481018990526103e86044820152600160a060020a039190911690631c635ded9060a401600060405180830381600087803b158015611f2657600080fd5b505af1158015611f3a573d6000803e3d6000fd5b5050505080600160a060020a031663a318d45c6040518163ffffffff1660e060020a028152600401602060405180830381865afa158015611f7f573d6000803e3d6000fd5b505050506040513d601f19601f82011682018060405250810190611fa391906155d9565b60405160e060020a631c635ded02815260606004820152600b60648201527f5275737479205269666c650000000000000000000000000000000000000000006084820152602481018990526103e86044820152600160a060020a039190911690631c635ded9060a401600060405180830381600087803b15801561202657600080fd5b505af115801561203a573d6000803e3d6000fd5b5050505080600160a060020a031663a318d45c6040518163ffffffff1660e060020a028152600401602060405180830381865afa15801561207f573d6000803e3d6000fd5b505050506040513d601f19601f820116820180604052508101906120a391906155d9565b60405160e060020a631c635ded02815260606004820152600c60648201527f5368696e792044616767657200000000000000000000000000000000000000006084820152602481018990526103e86044820152600160a060020a039190911690631c635ded9060a401600060405180830381600087803b15801561212657600080fd5b505af115801561213a573d6000803e3d6000fd5b5050505080600160a060020a031663a318d45c6040518163ffffffff1660e060020a028152600401602060405180830381865afa15801561217f573d6000803e3d6000fd5b505050506040513d601f19601f820116820180604052508101906121a391906155d9565b60405160e060020a631c635ded02815260606004820152600b60648201527f5368696e792053776f72640000000000000000000000000000000000000000006084820152602481018990526103e86044820152600160a060020a039190911690631c635ded9060a401600060405180830381600087803b15801561222657600080fd5b505af115801561223a573d6000803e3d6000fd5b5050505080600160a060020a031663a318d45c6040518163ffffffff1660e060020a028152600401602060405180830381865afa15801561227f573d6000803e3d6000fd5b505050506040513d601f19601f820116820180604052508101906122a391906155d9565b60405160e060020a631c635ded02815260606004820152600b60648201527f5368696e79205269666c650000000000000000000000000000000000000000006084820152602481018990526103e86044820152600160a060020a039190911690631c635ded9060a401600060405180830381600087803b15801561232657600080fd5b505af115801561233a573d6000803e3d6000fd5b5050505080600160a060020a031663a318d45c6040518163ffffffff1660e060020a028152600401602060405180830381865afa15801561237f573d6000803e3d6000fd5b505050506040513d601f19601f820116820180604052508101906123a391906155d9565b60405160e060020a631c635ded02815260606004820152600c60648201527f4c617365722044616767657200000000000000000000000000000000000000006084820152602481018990526103e86044820152600160a060020a039190911690631c635ded9060a401600060405180830381600087803b15801561242657600080fd5b505af115801561243a573d6000803e3d6000fd5b5050505080600160a060020a031663a318d45c6040518163ffffffff1660e060020a028152600401602060405180830381865afa15801561247f573d6000803e3d6000fd5b505050506040513d601f19601f820116820180604052508101906124a391906155d9565b60405160e060020a631c635ded02815260606004820152600b60648201527f4c617365722053776f72640000000000000000000000000000000000000000006084820152602481018990526103e86044820152600160a060020a039190911690631c635ded9060a401600060405180830381600087803b15801561252657600080fd5b505af115801561253a573d6000803e3d6000fd5b5050505080600160a060020a031663a318d45c6040518163ffffffff1660e060020a028152600401602060405180830381865afa15801561257f573d6000803e3d6000fd5b505050506040513d601f19601f820116820180604052508101906125a391906155d9565b60405160e060020a631c635ded02815260606004820152600c60648201527f4c6173657220506973746f6c00000000000000000000000000000000000000006084820152602481018990526103e86044820152600160a060020a039190911690631c635ded9060a401600060405180830381600087803b15801561262657600080fd5b505af115801561263a573d6000803e3d6000fd5b5050505080600160a060020a031663a318d45c6040518163ffffffff1660e060020a028152600401602060405180830381865afa15801561267f573d6000803e3d6000fd5b505050506040513d601f19601f820116820180604052508101906126a391906155d9565b60405160e060020a631c635ded02815260606004820152600b60648201527f4c61736572205269666c650000000000000000000000000000000000000000006084820152602481018990526103e86044820152600160a060020a039190911690631c635ded9060a401600060405180830381600087803b15801561272657600080fd5b505af115801561273a573d6000803e3d6000fd5b5050505080600160a060020a031663a318d45c6040518163ffffffff1660e060020a028152600401602060405180830381865afa15801561277f573d6000803e3d6000fd5b505050506040513d601f19601f820116820180604052508101906127a391906155d9565b60405160e060020a631c635ded02815260606004820152600a60648201527f476c6f7720737469636b000000000000000000000000000000000000000000006084820152602481018990526103e86044820152600160a060020a039190911690631c635ded9060a401600060405180830381600087803b15801561282657600080fd5b505af115801561283a573d6000803e3d6000fd5b5050505080600160a060020a031663a318d45c6040518163ffffffff1660e060020a028152600401602060405180830381865afa15801561287f573d6000803e3d6000fd5b505050506040513d601f19601f820116820180604052508101906128a391906155d9565b60405160e060020a631c635ded02815260606004820152600a60648201527f466c6173686c69676874000000000000000000000000000000000000000000006084820152602481018990526103e86044820152600160a060020a039190911690631c635ded9060a401600060405180830381600087803b15801561292657600080fd5b505af115801561293a573d6000803e3d6000fd5b5050505080600160a060020a031663a318d45c6040518163ffffffff1660e060020a028152600401602060405180830381865afa15801561297f573d6000803e3d6000fd5b505050506040513d601f19601f820116820180604052508101906129a391906155d9565b60405160e060020a631c635ded02815260606004820152600b60648201527f466c6f6f64206c696768740000000000000000000000000000000000000000006084820152602481018990526103e86044820152600160a060020a039190911690631c635ded9060a401600060405180830381600087803b158015612a2657600080fd5b505af1158015612a3a573d6000803e3d6000fd5b5050505080600160a060020a031663a318d45c6040518163ffffffff1660e060020a028152600401602060405180830381865afa158015612a7f573d6000803e3d6000fd5b505050506040513d601f19601f82011682018060405250810190612aa391906155d9565b60405160e060020a631c635ded02815260606004820152601360648201527f4e69676874766973696f6e20476f67676c6573000000000000000000000000006084820152602481018990526103e86044820152600160a060020a039190911690631c635ded9060a401600060405180830381600087803b158015612b2657600080fd5b505af1158015612b3a573d6000803e3d6000fd5b5050505080600160a060020a031663a318d45c6040518163ffffffff1660e060020a028152600401602060405180830381865afa158015612b7f573d6000803e3d6000fd5b505050506040513d601f19601f82011682018060405250810190612ba391906155d9565b60405160e060020a631c635ded02815260606004820152600f60648201527f506572736f6e616c20536869656c6400000000000000000000000000000000006084820152602481018990526103e86044820152600160a060020a039190911690631c635ded9060a401600060405180830381600087803b158015612c2657600080fd5b505af1158015612c3a573d6000803e3d6000fd5b5050505080600160a060020a031663a318d45c6040518163ffffffff1660e060020a028152600401602060405180830381865afa158015612c7f573d6000803e3d6000fd5b505050506040513d601f19601f82011682018060405250810190612ca391906155d9565b60405160e060020a631c635ded02815260606004820152600d60648201527f427562626c6520536869656c64000000000000000000000000000000000000006084820152602481018990526103e86044820152600160a060020a039190911690631c635ded9060a401600060405180830381600087803b158015612d2657600080fd5b505af1158015612d3a573d6000803e3d6000fd5b5050505080600160a060020a031663a318d45c6040518163ffffffff1660e060020a028152600401602060405180830381865afa158015612d7f573d6000803e3d6000fd5b505050506040513d601f19601f82011682018060405250810190612da391906155d9565b60405160e060020a631c635ded02815260606004820152600c60648201527f46726167204772656e61646500000000000000000000000000000000000000006084820152602481018990526103e86044820152600160a060020a039190911690631c635ded9060a401600060405180830381600087803b158015612e2657600080fd5b505af1158015612e3a573d6000803e3d6000fd5b5050505080600160a060020a031663a318d45c6040518163ffffffff1660e060020a028152600401602060405180830381865afa158015612e7f573d6000803e3d6000fd5b505050506040513d601f19601f82011682018060405250810190612ea391906155d9565b60405160e060020a631c635ded02815260606004820152600c60648201527f46697265204772656e61646500000000000000000000000000000000000000006084820152602481018990526103e86044820152600160a060020a039190911690631c635ded9060a401600060405180830381600087803b158015612f2657600080fd5b505af1158015612f3a573d6000803e3d6000fd5b5050505080600160a060020a031663a318d45c6040518163ffffffff1660e060020a028152600401602060405180830381865afa158015612f7f573d6000803e3d6000fd5b505050506040513d601f19601f82011682018060405250810190612fa391906155d9565b60405160e060020a631c635ded02815260606004820152600d60648201527f53686f636b204772656e616465000000000000000000000000000000000000006084820152602481018990526103e86044820152600160a060020a039190911690631c635ded9060a401600060405180830381600087803b15801561302657600080fd5b505af115801561303a573d6000803e3d6000fd5b5050505080600160a060020a031663a318d45c6040518163ffffffff1660e060020a028152600401602060405180830381865afa15801561307f573d6000803e3d6000fd5b505050506040513d601f19601f820116820180604052508101906130a391906155d9565b60405160e060020a631c635ded02815260606004820152600960648201527f4845204d6f7274617200000000000000000000000000000000000000000000006084820152602481018990526103e86044820152600160a060020a039190911690631c635ded9060a401600060405180830381600087803b15801561312657600080fd5b505af115801561313a573d6000803e3d6000fd5b5050505080600160a060020a031663a318d45c6040518163ffffffff1660e060020a028152600401602060405180830381865afa15801561317f573d6000803e3d6000fd5b505050506040513d601f19601f820116820180604052508101906131a391906155d9565b60405160e060020a631c635ded02815260606004820152601160648201527f496e63656e6469617279204d6f727461720000000000000000000000000000006084820152602481018990526103e86044820152600160a060020a039190911690631c635ded9060a401600060405180830381600087803b15801561322657600080fd5b505af115801561323a573d6000803e3d6000fd5b5050505080600160a060020a031663a318d45c6040518163ffffffff1660e060020a028152600401602060405180830381865afa15801561327f573d6000803e3d6000fd5b505050506040513d601f19601f820116820180604052508101906132a391906155d9565b60405160e060020a631c635ded02815260606004820152600a60648201527f454d50204d6f72746172000000000000000000000000000000000000000000006084820152602481018990526103e86044820152600160a060020a039190911690631c635ded9060a401600060405180830381600087803b15801561332657600080fd5b505af115801561333a573d6000803e3d6000fd5b5050505080600160a060020a031663a318d45c6040518163ffffffff1660e060020a028152600401602060405180830381865afa15801561337f573d6000803e3d6000fd5b505050506040513d601f19601f820116820180604052508101906133a391906155d9565b60405160e060020a631c635ded02815260606004820152600b60648201527f506f77657220476c6f76650000000000000000000000000000000000000000006084820152602481018990526103e86044820152600160a060020a039190911690631c635ded9060a401600060405180830381600087803b15801561342657600080fd5b505af115801561343a573d6000803e3d6000fd5b5050505080600160a060020a031663a318d45c6040518163ffffffff1660e060020a028152600401602060405180830381865afa15801561347f573d6000803e3d6000fd5b505050506040513d601f19601f820116820180604052508101906134a391906155d9565b60405160e060020a631c635ded02815260606004820152602160648201527f52656d6f7465204c61756e636820616e642047756964616e636520537973746560848201527f6d0000000000000000000000000000000000000000000000000000000000000060a4820152602481018990526103e86044820152600160a060020a039190911690631c635ded9060c401600060405180830381600087803b15801561354c57600080fd5b505af1158015613560573d6000803e3d6000fd5b5050505080600160a060020a031663a318d45c6040518163ffffffff1660e060020a028152600401602060405180830381865afa1580156135a5573d6000803e3d6000fd5b505050506040513d601f19601f820116820180604052508101906135c991906155d9565b60405160e060020a631c635ded02815260606004820152600f60648201527f54656c65706f72746572205061636b00000000000000000000000000000000006084820152602481018990526103e86044820152600160a060020a039190911690631c635ded9060a401600060405180830381600087803b15801561364c57600080fd5b505af1158015613660573d6000803e3d6000fd5b5050505080600160a060020a031663a318d45c6040518163ffffffff1660e060020a028152600401602060405180830381865afa1580156136a5573d6000803e3d6000fd5b505050506040513d601f19601f820116820180604052508101906136c991906155d9565b600160a060020a0316631c635ded886103e86040518363ffffffff1660e060020a0281526004016136fb9291906158dc565b600060405180830381600087803b15801561371557600080fd5b505af1158015613729573d6000803e3d6000fd5b5050505080600160a060020a031663c1cdbb3c6040518163ffffffff1660e060020a028152600401602060405180830381865afa15801561376e573d6000803e3d6000fd5b505050506040513d601f19601f8201168201806040525081019061379291906155d9565b60405160e060020a631c635ded02815260606004820152600760648201527f5374756e6e6564000000000000000000000000000000000000000000000000006084820152602481018990526103e86044820152600160a060020a039190911690631c635ded9060a401600060405180830381600087803b15801561381557600080fd5b505af1158015613829573d6000803e3d6000fd5b5050505080600160a060020a031663c1cdbb3c6040518163ffffffff1660e060020a028152600401602060405180830381865afa15801561386e573d6000803e3d6000fd5b505050506040513d601f19601f8201168201806040525081019061389291906155d9565b60405160e060020a631c635ded02815260606004820152600660648201527f4275726e656400000000000000000000000000000000000000000000000000006084820152602481018990526103e86044820152600160a060020a039190911690631c635ded9060a401600060405180830381600087803b15801561391557600080fd5b505af1158015613929573d6000803e3d6000fd5b5050505080600160a060020a03166345d339d96040518163ffffffff1660e060020a028152600401602060405180830381865afa15801561396e573d6000803e3d6000fd5b505050506040513d601f19601f8201168201806040525081019061399291906155d9565b60405160e060020a631c635ded02815260606004820152600f60648201527f456e677261766564205461626c657400000000000000000000000000000000006084820152602481018990526103e86044820152600160a060020a039190911690631c635ded9060a401600060405180830381600087803b158015613a1557600080fd5b505af1158015613a29573d6000803e3d6000fd5b5050505080600160a060020a03166345d339d96040518163ffffffff1660e060020a028152600401602060405180830381865afa158015613a6e573d6000803e3d6000fd5b505050506040513d601f19601f82011682018060405250810190613a9291906155d9565b60405160e060020a631c635ded02815260606004820152600960648201527f536967696c2047656d00000000000000000000000000000000000000000000006084820152602481018990526103e86044820152600160a060020a039190911690631c635ded9060a401600060405180830381600087803b158015613b1557600080fd5b505af1158015613b29573d6000803e3d6000fd5b5050505080600160a060020a03166345d339d96040518163ffffffff1660e060020a028152600401602060405180830381865afa158015613b6e573d6000803e3d6000fd5b505050506040513d601f19601f82011682018060405250810190613b9291906155d9565b60405160e060020a631c635ded02815260606004820152600c60648201527f416e6369656e7420546f6d6500000000000000000000000000000000000000006084820152602481018990526103e86044820152600160a060020a039190911690631c635ded9060a401600060405180830381600087803b158015613c1557600080fd5b505af1158015613c29573d6000803e3d6000fd5b5050505080600160a060020a031663cb8d2d2c6040518163ffffffff1660e060020a028152600401602060405180830381865afa158015613c6e573d6000803e3d6000fd5b505050506040513d601f19601f82011682018060405250810190613c9291906155d9565b60405160e060020a631c635ded02815260606004820152600760648201527f52656c69632031000000000000000000000000000000000000000000000000006084820152602481018990526103e86044820152600160a060020a039190911690631c635ded9060a401600060405180830381600087803b158015613d1557600080fd5b505af1158015613d29573d6000803e3d6000fd5b5050505080600160a060020a031663cb8d2d2c6040518163ffffffff1660e060020a028152600401602060405180830381865afa158015613d6e573d6000803e3d6000fd5b505050506040513d601f19601f82011682018060405250810190613d9291906155d9565b60405160e060020a631c635ded02815260606004820152600760648201527f52656c69632032000000000000000000000000000000000000000000000000006084820152602481018990526103e86044820152600160a060020a039190911690631c635ded9060a401600060405180830381600087803b158015613e1557600080fd5b505af1158015613e29573d6000803e3d6000fd5b5050505080600160a060020a031663cb8d2d2c6040518163ffffffff1660e060020a028152600401602060405180830381865afa158015613e6e573d6000803e3d6000fd5b505050506040513d601f19601f82011682018060405250810190613e9291906155d9565b60405160e060020a631c635ded02815260606004820152600760648201527f52656c69632033000000000000000000000000000000000000000000000000006084820152602481018990526103e86044820152600160a060020a039190911690631c635ded9060a401600060405180830381600087803b158015613f1557600080fd5b505af1158015613f29573d6000803e3d6000fd5b5050505080600160a060020a031663cb8d2d2c6040518163ffffffff1660e060020a028152600401602060405180830381865afa158015613f6e573d6000803e3d6000fd5b505050506040513d601f19601f82011682018060405250810190613f9291906155d9565b60405160e060020a631c635ded02815260606004820152600760648201527f52656c69632034000000000000000000000000000000000000000000000000006084820152602481018990526103e86044820152600160a060020a039190911690631c635ded9060a401600060405180830381600087803b15801561401557600080fd5b505af1158015614029573d6000803e3d6000fd5b5050505080600160a060020a031663cb8d2d2c6040518163ffffffff1660e060020a028152600401602060405180830381865afa15801561406e573d6000803e3d6000fd5b505050506040513d601f19601f8201168201806040525081019061409291906155d9565b60405160e060020a631c635ded02815260606004820152600760648201527f52656c69632035000000000000000000000000000000000000000000000000006084820152602481018990526103e86044820152600160a060020a039190911690631c635ded9060a401600060405180830381600087803b15801561411557600080fd5b505af1158015614129573d6000803e3d6000fd5b5050505080600160a060020a031663a906dfd16040518163ffffffff1660e060020a028152600401602060405180830381865afa15801561416e573d6000803e3d6000fd5b505050506040513d601f19601f8201168201806040525081019061419291906155d9565b600160a060020a031663d82910478860006001806040518563ffffffff1660e060020a0281526004016141c89493929190615919565b600060405180830381600087803b1580156141e257600080fd5b505af11580156141f6573d6000803e3d6000fd5b5050505060005b83811015614401576000614212826001615978565b6040517ff5043254000000000000000000000000000000000000000000000000000000008152600481018b905260248101829052909150600090600160a060020a0388169063f504325490604401602060405180830381865afa15801561427d573d6000803e3d6000fd5b505050506040513d601f19601f820116820180604052508101906142a191906155d9565b6040517f98bd7572000000000000000000000000000000000000000000000000000000008152909150600160a060020a038916906398bd7572906142ed9084908e908a90600401615990565b600060405180830381600087803b15801561430757600080fd5b505af115801561431b573d6000803e3d6000fd5b5050505083600160a060020a031663a318d45c6040518163ffffffff1660e060020a028152600401602060405180830381865afa158015614360573d6000803e3d6000fd5b505050506040513d601f19601f8201168201806040525081019061438491906155d9565b600160a060020a031663d82910478b60008560016040518563ffffffff1660e060020a0281526004016143ba94939291906159b8565b600060405180830381600087803b1580156143d457600080fd5b505af11580156143e8573d6000803e3d6000fd5b50505050505080806143f9906156ae565b9150506141fd565b506040517f76a321c10000000000000000000000000000000000000000000000000000000081526002600482015260248101889052600160a060020a038616906376a321c190604401600060405180830381600087803b15801561446457600080fd5b505af1158015614478573d6000803e3d6000fd5b5050505050505050505050565b6040517f72c6c6b6000000000000000000000000000000000000000000000000000000008152600160a060020a0383811660048301528291908216906372c6c6b69060240161048e565b6040517f9eb356cb0000000000000000000000000000000000000000000000000000000081526004810183905233602482015260448101849052600160a060020a03821690639eb356cb906064016020604051808303816000875af115801561453c573d6000803e3d6000fd5b505050506040513d601f19601f820116820180604052508101906145609190615641565b50505050565b600082815260016020526040812061457e9083614d3b565b9392505050565b600091825260208281526040808420600160a060020a0393909316845291905290205460ff1690565b6040517fb553910d000000000000000000000000000000000000000000000000000000008152600160a060020a0382811660048301526000919084169063b553910d90602401602060405180830381865afa158015614611573d6000803e3d6000fd5b505050506040513d601f19601f8201168201806040525081019061457e91906157ff565b80600160a060020a031663d1e18d266040518163ffffffff1660e060020a028152600401600060405180830381600087803b15801561467357600080fd5b505af1158015614687573d6000803e3d6000fd5b5050505050565b600081815260016020526040812061034590614d47565b6000828152602081905260409020600101546146c081614cea565b6104ea8383614d19565b6000819050600081600160a060020a031663cefe23296040518163ffffffff1660e060020a028152600401602060405180830381865afa158015614712573d6000803e3d6000fd5b505050506040513d601f19601f8201168201806040525081019061473691906155d9565b9050600082600160a060020a031663c06dea4e6040518163ffffffff1660e060020a028152600401602060405180830381865afa15801561477b573d6000803e3d6000fd5b505050506040513d601f19601f8201168201806040525081019061479f91906155d9565b6040517f861814e200000000000000000000000000000000000000000000000000000000815260048101879052909150600090600160a060020a0384169063861814e290602401602060405180830381865afa158015614803573d6000803e3d6000fd5b505050506040513d601f19601f8201168201806040525081019061482791906157ff565b90508061491c5782600160a060020a03166322c217138784600160a060020a031663b77ff4118a6040518263ffffffff1660e060020a02815260040161486f91815260200190565b602060405180830381865afa15801561488c573d6000803e3d6000fd5b505050506040513d601f19601f820116820180604052508101906148b091906157ff565b60405160e060020a63ffffffff8516028152600481019290925261ffff1660248201526044016020604051808303816000875af11580156148f5573d6000803e3d6000fd5b505050506040513d601f19601f8201168201806040525081019061491991906157ff565b90505b82600160a060020a031663ae6a70568c8c60ff1660068111156149415761494161567c565b8c8c8c876040518763ffffffff1660e060020a028152600401614969969594939291906159f5565b600060405180830381600087803b15801561498357600080fd5b505af1158015614997573d6000803e3d6000fd5b505050505050505050505050505050565b6000819050600081600160a060020a031663c06dea4e6040518163ffffffff1660e060020a028152600401602060405180830381865afa1580156149f0573d6000803e3d6000fd5b505050506040513d601f19601f82011682018060405250810190614a1491906155d9565b6040517fb81f6e1800000000000000000000000000000000000000000000000000000000815260048101869052336024820152909150600160a060020a0382169063b81f6e1890604401602060405180830381865afa158015614a7b573d6000803e3d6000fd5b505050506040513d601f19601f82011682018060405250810190614a9f9190615641565b614aee5760405160e560020a62461bcd02815260206004820152601560248201527f706c61796572206e6f7420726567697374657265640000000000000000000000604482015260640161056c565b6040517ff8430708000000000000000000000000000000000000000000000000000000008152600160a060020a0383169063f843070890614b389088906005908990600401615a5e565b600060405180830381600087803b158015614b5257600080fd5b505af1158015614b66573d6000803e3d6000fd5b50506040517f9f82bcc0000000000000000000000000000000000000000000000000000000008152600160a060020a0385169250639f82bcc09150614bb19088908890600401615a8e565b600060405180830381600087803b158015614bcb57600080fd5b505af1158015614bdf573d6000803e3d6000fd5b505050505050505050565b614bf48282614585565b61057f57600082815260208181526040808320600160a060020a03851684529091529020805460ff19166001179055614c2a3390565b600160a060020a031681600160a060020a0316837f2f8788117e7eff1d82e926ec794901d17c78024a50270940304540a733656f0d60405160405180910390a45050565b600061457e83600160a060020a038416614d51565b6000600160e060020a031982167f7965db0b00000000000000000000000000000000000000000000000000000000148061034557507f01ffc9a700000000000000000000000000000000000000000000000000000000600160e060020a0319831614610345565b614cf48133614da0565b50565b614d018282614bea565b60008281526001602052604090206104ea9082614c6e565b614d238282614e07565b60008281526001602052604090206104ea9082614e6c565b600061457e8383614e81565b6000610345825490565b6000818152600183016020526040812054614d9857508154600181810184556000848152602080822090930184905584548482528286019093526040902091909155610345565b506000610345565b614daa8282614585565b61057f57614dc281600160a060020a03166014614eab565b614dcd836020614eab565b604051602001614dde929190615ab0565b60408051601f198184030181529082905260e560020a62461bcd02825261056c91600401615b31565b614e118282614585565b1561057f57600082815260208181526040808320600160a060020a0385168085529252808320805460ff1916905551339285917ff6391f5c32d9c69d2a47ea670b442974b53935d1edc7fd64eb21e047a839171b9190a45050565b600061457e83600160a060020a0384166150f5565b6000826000018281548110614e9857614e98615663565b9060005260206000200154905092915050565b60606000614eba836002615b44565b614ec5906002615978565b67ffffffffffffffff811115614edd57614edd61529d565b6040519080825280601f01601f191660200182016040528015614f07576020820181803683370190505b5090507f300000000000000000000000000000000000000000000000000000000000000081600081518110614f3e57614f3e615663565b60200101907effffffffffffffffffffffffffffffffffffffffffffffffffffffffffffff1916908160001a9053507f780000000000000000000000000000000000000000000000000000000000000081600181518110614fa157614fa1615663565b60200101907effffffffffffffffffffffffffffffffffffffffffffffffffffffffffffff1916908160001a9053506000614fdd846002615b44565b614fe8906001615978565b90505b60018111156150a3577f303132333435363738396162636465660000000000000000000000000000000085600f166010811061502957615029615663565b1a7f01000000000000000000000000000000000000000000000000000000000000000282828151811061505e5761505e615663565b60200101907effffffffffffffffffffffffffffffffffffffffffffffffffffffffffffff1916908160001a90535060109094049361509c81615b63565b9050614feb565b50831561457e5760405160e560020a62461bcd02815260206004820181905260248201527f537472696e67733a20686578206c656e67746820696e73756666696369656e74604482015260640161056c565b600081815260018301602052604081205480156151de576000615119600183615b7a565b855490915060009061512d90600190615b7a565b905081811461519257600086600001828154811061514d5761514d615663565b906000526020600020015490508087600001848154811061517057615170615663565b6000918252602080832090910192909255918252600188019052604090208390555b85548690806151a3576151a3615b91565b600190038181906000526020600020016000905590558560010160008681526020019081526020016000206000905560019350505050610345565b6000915050610345565b6000602082840312156151fa57600080fd5b8135600160e060020a03198116811461457e57600080fd5b60006020828403121561522457600080fd5b5035919050565b600160a060020a0381168114614cf457600080fd5b803561524b8161522b565b919050565b6000806040838503121561526357600080fd5b8235915060208301356152758161522b565b809150509250929050565b60006020828403121561529257600080fd5b813561457e8161522b565b60e060020a634e487b7102600052604160045260246000fd5b604051601f8201601f1916810167ffffffffffffffff811182821017156152df576152df61529d565b604052919050565b600067ffffffffffffffff8211156153015761530161529d565b50601f01601f191660200190565b600082601f83011261532057600080fd5b813561533361532e826152e7565b6152b6565b81815284602083860101111561534857600080fd5b816020850160208301376000918101602001919091529392505050565b600082601f83011261537657600080fd5b8135602067ffffffffffffffff808311156153935761539361529d565b8183026153a18382016152b6565b93845285810183019383810190888611156153bb57600080fd5b84880192505b858310156153f7578235848111156153d95760008081fd5b6153e78a87838c010161530f565b83525091840191908401906153c1565b98975050505050505050565b60008060006060848603121561541857600080fd5b833567ffffffffffffffff81111561542f57600080fd5b61543b86828701615365565b9350506020840135915060408401356154538161522b565b809150509250925092565b6000806040838503121561547157600080fd5b823561547c8161522b565b915060208301356152758161522b565b6000806000606084860312156154a157600080fd5b833592506020840135915060408401356154538161522b565b600080604083850312156154cd57600080fd5b50508035926020909101359150565b600080600080600080600060e0888a0312156154f757600080fd5b87359650602088013560ff8116811461550f57600080fd5b9550604088013567ffffffffffffffff8082111561552c57600080fd5b6155388b838c01615365565b965060608a013591508082111561554e57600080fd5b61555a8b838c0161530f565b955060808a013591508082111561557057600080fd5b5061557d8a828b0161530f565b93505060a0880135915061559360c08901615240565b905092959891949750929550565b6000806000606084860312156155b657600080fd5b833567ffffffffffffffff8111156155cd57600080fd5b61543b8682870161530f565b6000602082840312156155eb57600080fd5b815161457e8161522b565b60a08101818560005b600381101561562157815160ff168352602092830192909101906001016155ff565b505050836060830152600160a060020a0383166080830152949350505050565b60006020828403121561565357600080fd5b8151801515811461457e57600080fd5b60e060020a634e487b7102600052603260045260246000fd5b60e060020a634e487b7102600052602160045260246000fd5b60e060020a634e487b7102600052601160045260246000fd5b60006000198214156156c2576156c2615695565b5060010190565b60005b838110156156e45781810151838201526020016156cc565b838111156145605750506000910152565b6000815180845261570d8160208601602086016156c9565b601f01601f19169290920160200192915050565b600081518084526020808501808196508284028101915082860160005b858110156157685782840389526157568483516156f5565b9885019893509084019060010161573e565b5091979650505050505050565b600c81106157855761578561567c565b9052565b60808152600061579c6080830187615721565b6020600160a060020a0387168185015285604085015283820360608501528185518084528284019150828701935060005b818110156157f0576157e0838651615775565b93830193918301916001016157cd565b50909998505050505050505050565b60006020828403121561581157600080fd5b5051919050565b60006020828403121561582a57600080fd5b815167ffffffffffffffff81111561584157600080fd5b8201601f8101841361585257600080fd5b805161586061532e826152e7565b81815285602083850101111561587557600080fd5b6158868260208301602086016156c9565b95945050505050565b6060815260006158cc60608301600381527f4461790000000000000000000000000000000000000000000000000000000000602082015260400190565b6020830194909452506040015290565b6060815260006158cc60608301600881527f43616d7073697465000000000000000000000000000000000000000000000000602082015260400190565b60a08152600061595660a08301600381527f4461790000000000000000000000000000000000000000000000000000000000602082015260400190565b6020830196909652506040810193909352606083019190915260809091015290565b6000821982111561598b5761598b615695565b500190565b600160a060020a038416815282602082015260606040820152600061588660608301846156f5565b60a08152600061595660a08301600881527f43616d7073697465000000000000000000000000000000000000000000000000602082015260400190565b868152600060078710615a0a57615a0a61567c565b86602083015260c06040830152615a2460c0830187615721565b8281036060840152615a3681876156f5565b90508281036080840152615a4a81866156f5565b9150508260a0830152979650505050505050565b606081526000615a7160608301866156f5565b9050615a806020830185615775565b826040830152949350505050565b604081526000615aa160408301856156f5565b90508260208301529392505050565b7f416363657373436f6e74726f6c3a206163636f756e7420000000000000000000815260008351615ae88160178501602088016156c9565b7f206973206d697373696e6720726f6c65200000000000000000000000000000006017918401918201528351615b258160288401602088016156c9565b01602801949350505050565b60208152600061457e60208301846156f5565b6000816000190483118215151615615b5e57615b5e615695565b500290565b600081615b7257615b72615695565b506000190190565b600082821015615b8c57615b8c615695565b500390565b60e060020a634e487b7102600052603160045260246000fdfea2646970667358221220f41363a8868a3e386aad9d347bd5bbb9f9a3d7d2e2d7fa86bf82507f7bc22e0164736f6c634300080b0033",
  "immutableReferences": {},
  "source": "// SPDX-License-Identifier: GPL-3.0\npragma solidity >=0.7.0 <0.9.0;\n\nimport \"@luckymachines/game-core/contracts/src/v0.0/GameController.sol\";\nimport \"./HexplorationBoard.sol\";\nimport \"./HexplorationZone.sol\";\nimport \"./HexplorationQueue.sol\";\nimport \"./state/CharacterCard.sol\";\nimport \"./tokens/TokenInventory.sol\";\n\ncontract HexplorationController is GameController {\n    // functions are meant to be called directly by players by default\n    // we are adding the ability of a Controller Admin or Keeper to\n    // execute the game aspects not directly controlled by players\n    bytes32 public constant KEEPER_ROLE = keccak256(\"KEEPER_ROLE\");\n\n    // TODO:\n    // Connect to Chainlink VRF for random seeds when needed\n    // submit move + space choice\n    // use / swap item\n\n    /*\n    Controller can access all game tokens with the following methods:\n\n    function mint(\n        string memory tokenType,\n        uint256 gameID,\n        uint256 quantity\n    )\n\n    function transfer(\n        string memory tokenType,\n        uint256 gameID,\n        uint256 fromPlayerID,\n        uint256 toPlayerID,\n        uint256 quantity\n    )\n*/\n    modifier onlyAdminKeeper() {\n        require(\n            hasRole(DEFAULT_ADMIN_ROLE, _msgSender()) ||\n                hasRole(KEEPER_ROLE, _msgSender()),\n            \"Admin or Keeper role required\"\n        );\n        _;\n    }\n\n    constructor(address adminAddress) GameController(adminAddress) {}\n\n    // Admin Functions\n\n    function addKeeper(address keeperAddress)\n        public\n        onlyRole(DEFAULT_ADMIN_ROLE)\n    {\n        grantRole(KEEPER_ROLE, keeperAddress);\n    }\n\n    // Admin or Keeper Interactions\n    function runBoardUpdate(address boardAddress) public {\n        HexplorationBoard(boardAddress).runUpdate();\n    }\n\n    function startGame(uint256 gameID, address boardAddress) public {\n        HexplorationBoard board = HexplorationBoard(boardAddress);\n        require(board.gameState(gameID) == 0, \"game already started\");\n\n        PlayerRegistry pr = PlayerRegistry(board.prAddress());\n        board.lockRegistration(gameID);\n        uint256 totalRegistrations = pr.totalRegistrations(gameID);\n        string memory startZone = board.initialPlayZone(gameID);\n\n        TokenInventory ti = TokenInventory(board.tokenInventory());\n        // mint game tokens (maybe mint on demand instead...)\n        // minting full game set here\n        ti.DAY_NIGHT_TOKEN().mint(\"Day\", gameID, 1);\n        ti.DAY_NIGHT_TOKEN().mint(\"Night\", gameID, 1);\n        ti.DISASTER_TOKEN().mint(\"Earthquake\", gameID, 1000);\n        ti.DISASTER_TOKEN().mint(\"Volcano\", gameID, 1000);\n        ti.ENEMY_TOKEN().mint(\"Pirate\", gameID, 1000);\n        ti.ENEMY_TOKEN().mint(\"Pirate Ship\", gameID, 1000);\n        ti.ENEMY_TOKEN().mint(\"Deathbot\", gameID, 1000);\n        ti.ENEMY_TOKEN().mint(\"Guardian\", gameID, 1000);\n        ti.ENEMY_TOKEN().mint(\"Sandworm\", gameID, 1000);\n        ti.ENEMY_TOKEN().mint(\"Dragon\", gameID, 1000);\n        ti.ITEM_TOKEN().mint(\"Small Ammo\", gameID, 1000);\n        ti.ITEM_TOKEN().mint(\"Large Ammo\", gameID, 1000);\n        ti.ITEM_TOKEN().mint(\"Batteries\", gameID, 1000);\n        ti.ITEM_TOKEN().mint(\"Shield\", gameID, 1000);\n        ti.ITEM_TOKEN().mint(\"Portal\", gameID, 1000);\n        ti.ITEM_TOKEN().mint(\"On\", gameID, 1000);\n        ti.ITEM_TOKEN().mint(\"Off\", gameID, 1000);\n        ti.ITEM_TOKEN().mint(\"Rusty Dagger\", gameID, 1000);\n        ti.ITEM_TOKEN().mint(\"Rusty Sword\", gameID, 1000);\n        ti.ITEM_TOKEN().mint(\"Rusty Pistol\", gameID, 1000);\n        ti.ITEM_TOKEN().mint(\"Rusty Rifle\", gameID, 1000);\n        ti.ITEM_TOKEN().mint(\"Shiny Dagger\", gameID, 1000);\n        ti.ITEM_TOKEN().mint(\"Shiny Sword\", gameID, 1000);\n        ti.ITEM_TOKEN().mint(\"Shiny Rifle\", gameID, 1000);\n        ti.ITEM_TOKEN().mint(\"Laser Dagger\", gameID, 1000);\n        ti.ITEM_TOKEN().mint(\"Laser Sword\", gameID, 1000);\n        ti.ITEM_TOKEN().mint(\"Laser Pistol\", gameID, 1000);\n        ti.ITEM_TOKEN().mint(\"Laser Rifle\", gameID, 1000);\n        ti.ITEM_TOKEN().mint(\"Glow stick\", gameID, 1000);\n        ti.ITEM_TOKEN().mint(\"Flashlight\", gameID, 1000);\n        ti.ITEM_TOKEN().mint(\"Flood light\", gameID, 1000);\n        ti.ITEM_TOKEN().mint(\"Nightvision Goggles\", gameID, 1000);\n        ti.ITEM_TOKEN().mint(\"Personal Shield\", gameID, 1000);\n        ti.ITEM_TOKEN().mint(\"Bubble Shield\", gameID, 1000);\n        ti.ITEM_TOKEN().mint(\"Frag Grenade\", gameID, 1000);\n        ti.ITEM_TOKEN().mint(\"Fire Grenade\", gameID, 1000);\n        ti.ITEM_TOKEN().mint(\"Shock Grenade\", gameID, 1000);\n        ti.ITEM_TOKEN().mint(\"HE Mortar\", gameID, 1000);\n        ti.ITEM_TOKEN().mint(\"Incendiary Mortar\", gameID, 1000);\n        ti.ITEM_TOKEN().mint(\"EMP Mortar\", gameID, 1000);\n        ti.ITEM_TOKEN().mint(\"Power Glove\", gameID, 1000);\n        ti.ITEM_TOKEN().mint(\"Remote Launch and Guidance System\", gameID, 1000);\n        ti.ITEM_TOKEN().mint(\"Teleporter Pack\", gameID, 1000);\n        ti.ITEM_TOKEN().mint(\"Campsite\", gameID, 1000);\n        ti.PLAYER_STATUS_TOKEN().mint(\"Stunned\", gameID, 1000);\n        ti.PLAYER_STATUS_TOKEN().mint(\"Burned\", gameID, 1000);\n        ti.ARTIFACT_TOKEN().mint(\"Engraved Tablet\", gameID, 1000);\n        ti.ARTIFACT_TOKEN().mint(\"Sigil Gem\", gameID, 1000);\n        ti.ARTIFACT_TOKEN().mint(\"Ancient Tome\", gameID, 1000);\n        ti.RELIC_TOKEN().mint(\"Relic 1\", gameID, 1000);\n        ti.RELIC_TOKEN().mint(\"Relic 2\", gameID, 1000);\n        ti.RELIC_TOKEN().mint(\"Relic 3\", gameID, 1000);\n        ti.RELIC_TOKEN().mint(\"Relic 4\", gameID, 1000);\n        ti.RELIC_TOKEN().mint(\"Relic 5\", gameID, 1000);\n        // Transfer day token to board\n        ti.DAY_NIGHT_TOKEN().transfer(\"Day\", gameID, 0, 1, 1);\n\n        for (uint256 i = 0; i < totalRegistrations; i++) {\n            uint256 playerID = i + 1;\n            address playerAddress = pr.playerAddress(gameID, playerID);\n            board.enterPlayer(playerAddress, gameID, startZone);\n            // Transfer campsite tokens to players\n            ti.ITEM_TOKEN().transfer(\"Campsite\", gameID, 0, playerID, 1);\n        }\n        // set game to initialized\n        board.setGameState(2, gameID);\n    }\n\n    //Player Interactions\n    function registerForGame(uint256 gameID, address boardAddress) public {\n        HexplorationBoard board = HexplorationBoard(boardAddress);\n        board.registerPlayer(msg.sender, gameID);\n        CharacterCard(board.characterCard()).setStats(\n            [4, 4, 4],\n            gameID,\n            msg.sender\n        );\n    }\n\n    function submitAction(\n        uint256 playerID,\n        uint8 actionIndex,\n        string[] memory options,\n        string memory leftHand,\n        string memory rightHand,\n        uint256 gameID,\n        address boardAddress\n    ) public {\n        HexplorationBoard board = HexplorationBoard(boardAddress);\n        HexplorationQueue q = HexplorationQueue(board.gameplayQueue());\n        PlayerRegistry pr = PlayerRegistry(board.prAddress());\n\n        uint256 qID = q.queueID(gameID);\n        if (qID == 0) {\n            qID = q.requestGameQueue(\n                gameID,\n                uint16(pr.totalRegistrations(gameID))\n            );\n        }\n\n        q.sumbitActionForPlayer(\n            playerID,\n            HexplorationQueue.Action(actionIndex),\n            options,\n            leftHand,\n            rightHand,\n            qID\n        );\n    }\n\n    function moveThroughPath(\n        string[] memory zonePath,\n        uint256 gameID,\n        address boardAddress\n    ) public {\n        // TODO:\n        // verify move is valid\n        // pick tiles from deck\n        HexplorationBoard board = HexplorationBoard(boardAddress);\n        PlayerRegistry pr = PlayerRegistry(board.prAddress());\n        require(pr.isRegistered(gameID, msg.sender), \"player not registered\");\n\n        HexplorationZone.Tile[] memory tiles = new HexplorationZone.Tile[](\n            zonePath.length\n        );\n        for (uint256 i = 0; i < zonePath.length; i++) {\n            tiles[i] = i == 0 ? HexplorationZone.Tile.Jungle : i == 1\n                ? HexplorationZone.Tile.Plains\n                : HexplorationZone.Tile.Mountain;\n        }\n\n        HexplorationBoard(boardAddress).moveThroughPath(\n            zonePath,\n            msg.sender,\n            gameID,\n            tiles\n        );\n    }\n\n    function chooseLandingSite(\n        string memory zoneChoice,\n        uint256 gameID,\n        address boardAddress\n    ) public {\n        // TODO: must be player 2 or on single player, p1\n        HexplorationBoard board = HexplorationBoard(boardAddress);\n        PlayerRegistry pr = PlayerRegistry(board.prAddress());\n        require(pr.isRegistered(gameID, msg.sender), \"player not registered\");\n\n        board.enableZone(zoneChoice, HexplorationZone.Tile.LandingSite, gameID);\n        // set landing site at space on board\n        board.setInitialPlayZone(zoneChoice, gameID);\n    }\n\n    // TODO: limit this to authorized game starters\n    function requestNewGame(address gameRegistryAddress, address boardAddress)\n        public\n    {\n        HexplorationBoard board = HexplorationBoard(boardAddress);\n        board.requestNewGame(gameRegistryAddress);\n    }\n\n    function latestGame(address gameRegistryAddress, address boardAddress)\n        public\n        view\n        returns (uint256)\n    {\n        return GameRegistry(gameRegistryAddress).latestGame(boardAddress);\n    }\n}\n",
  "sourcePath": "/Users/maxmeier/Developer/Lucky Machines/hexploration/contracts/HexplorationController.sol",
  "compiler": {
    "name": "solc",
    "version": "0.8.11+commit.d7f03943.Emscripten.clang"
  },
  "schemaVersion": "3.4.4",
  "updatedAt": "2022-05-17T21:37:06.114Z",
  "devdoc": {
    "kind": "dev",
    "methods": {
      "getRoleAdmin(bytes32)": {
        "details": "Returns the admin role that controls `role`. See {grantRole} and {revokeRole}. To change a role's admin, use {_setRoleAdmin}."
      },
      "getRoleMember(bytes32,uint256)": {
        "details": "Returns one of the accounts that have `role`. `index` must be a value between 0 and {getRoleMemberCount}, non-inclusive. Role bearers are not sorted in any particular way, and their ordering may change at any point. WARNING: When using {getRoleMember} and {getRoleMemberCount}, make sure you perform all queries on the same block. See the following https://forum.openzeppelin.com/t/iterating-over-elements-on-enumerableset-in-openzeppelin-contracts/2296[forum post] for more information."
      },
      "getRoleMemberCount(bytes32)": {
        "details": "Returns the number of accounts that have `role`. Can be used together with {getRoleMember} to enumerate all bearers of a role."
      },
      "grantRole(bytes32,address)": {
        "details": "Grants `role` to `account`. If `account` had not been already granted `role`, emits a {RoleGranted} event. Requirements: - the caller must have ``role``'s admin role."
      },
      "hasRole(bytes32,address)": {
        "details": "Returns `true` if `account` has been granted `role`."
      },
      "renounceRole(bytes32,address)": {
        "details": "Revokes `role` from the calling account. Roles are often managed via {grantRole} and {revokeRole}: this function's purpose is to provide a mechanism for accounts to lose their privileges if they are compromised (such as when a trusted device is misplaced). If the calling account had been revoked `role`, emits a {RoleRevoked} event. Requirements: - the caller must be `account`."
      },
      "revokeRole(bytes32,address)": {
        "details": "Revokes `role` from `account`. If `account` had been granted `role`, emits a {RoleRevoked} event. Requirements: - the caller must have ``role``'s admin role."
      },
      "supportsInterface(bytes4)": {
        "details": "See {IERC165-supportsInterface}."
      }
    },
    "version": 1
  },
  "userdoc": {
    "kind": "user",
    "methods": {},
    "version": 1
  }
}