{
  "contractName": "HexplorationController",
  "abi": [
    {
      "inputs": [
        {
          "internalType": "address",
          "name": "adminAddress",
          "type": "address"
        }
      ],
      "stateMutability": "nonpayable",
      "type": "constructor"
    },
    {
      "anonymous": false,
      "inputs": [
        {
          "indexed": true,
          "internalType": "bytes32",
          "name": "role",
          "type": "bytes32"
        },
        {
          "indexed": true,
          "internalType": "bytes32",
          "name": "previousAdminRole",
          "type": "bytes32"
        },
        {
          "indexed": true,
          "internalType": "bytes32",
          "name": "newAdminRole",
          "type": "bytes32"
        }
      ],
      "name": "RoleAdminChanged",
      "type": "event"
    },
    {
      "anonymous": false,
      "inputs": [
        {
          "indexed": true,
          "internalType": "bytes32",
          "name": "role",
          "type": "bytes32"
        },
        {
          "indexed": true,
          "internalType": "address",
          "name": "account",
          "type": "address"
        },
        {
          "indexed": true,
          "internalType": "address",
          "name": "sender",
          "type": "address"
        }
      ],
      "name": "RoleGranted",
      "type": "event"
    },
    {
      "anonymous": false,
      "inputs": [
        {
          "indexed": true,
          "internalType": "bytes32",
          "name": "role",
          "type": "bytes32"
        },
        {
          "indexed": true,
          "internalType": "address",
          "name": "account",
          "type": "address"
        },
        {
          "indexed": true,
          "internalType": "address",
          "name": "sender",
          "type": "address"
        }
      ],
      "name": "RoleRevoked",
      "type": "event"
    },
    {
      "inputs": [],
      "name": "DEFAULT_ADMIN_ROLE",
      "outputs": [
        {
          "internalType": "bytes32",
          "name": "",
          "type": "bytes32"
        }
      ],
      "stateMutability": "view",
      "type": "function",
      "constant": true
    },
    {
      "inputs": [],
      "name": "VERIFIED_CONTROLLER_ROLE",
      "outputs": [
        {
          "internalType": "bytes32",
          "name": "",
          "type": "bytes32"
        }
      ],
      "stateMutability": "view",
      "type": "function",
      "constant": true
    },
    {
      "inputs": [
        {
          "internalType": "uint256",
          "name": "pathIndex",
          "type": "uint256"
        },
        {
          "internalType": "uint256",
          "name": "gameID",
          "type": "uint256"
        },
        {
          "internalType": "address",
          "name": "gameBoardAddress",
          "type": "address"
        }
      ],
      "name": "exitToPath",
      "outputs": [],
      "stateMutability": "nonpayable",
      "type": "function"
    },
    {
      "inputs": [
        {
          "internalType": "bytes32",
          "name": "role",
          "type": "bytes32"
        }
      ],
      "name": "getRoleAdmin",
      "outputs": [
        {
          "internalType": "bytes32",
          "name": "",
          "type": "bytes32"
        }
      ],
      "stateMutability": "view",
      "type": "function",
      "constant": true
    },
    {
      "inputs": [
        {
          "internalType": "bytes32",
          "name": "role",
          "type": "bytes32"
        },
        {
          "internalType": "uint256",
          "name": "index",
          "type": "uint256"
        }
      ],
      "name": "getRoleMember",
      "outputs": [
        {
          "internalType": "address",
          "name": "",
          "type": "address"
        }
      ],
      "stateMutability": "view",
      "type": "function",
      "constant": true
    },
    {
      "inputs": [
        {
          "internalType": "bytes32",
          "name": "role",
          "type": "bytes32"
        }
      ],
      "name": "getRoleMemberCount",
      "outputs": [
        {
          "internalType": "uint256",
          "name": "",
          "type": "uint256"
        }
      ],
      "stateMutability": "view",
      "type": "function",
      "constant": true
    },
    {
      "inputs": [
        {
          "internalType": "bytes32",
          "name": "role",
          "type": "bytes32"
        },
        {
          "internalType": "address",
          "name": "account",
          "type": "address"
        }
      ],
      "name": "grantRole",
      "outputs": [],
      "stateMutability": "nonpayable",
      "type": "function"
    },
    {
      "inputs": [
        {
          "internalType": "bytes32",
          "name": "role",
          "type": "bytes32"
        },
        {
          "internalType": "address",
          "name": "account",
          "type": "address"
        }
      ],
      "name": "hasRole",
      "outputs": [
        {
          "internalType": "bool",
          "name": "",
          "type": "bool"
        }
      ],
      "stateMutability": "view",
      "type": "function",
      "constant": true
    },
    {
      "inputs": [
        {
          "internalType": "bytes32",
          "name": "role",
          "type": "bytes32"
        },
        {
          "internalType": "address",
          "name": "account",
          "type": "address"
        }
      ],
      "name": "renounceRole",
      "outputs": [],
      "stateMutability": "nonpayable",
      "type": "function"
    },
    {
      "inputs": [
        {
          "internalType": "bytes32",
          "name": "role",
          "type": "bytes32"
        },
        {
          "internalType": "address",
          "name": "account",
          "type": "address"
        }
      ],
      "name": "revokeRole",
      "outputs": [],
      "stateMutability": "nonpayable",
      "type": "function"
    },
    {
      "inputs": [
        {
          "internalType": "bytes4",
          "name": "interfaceId",
          "type": "bytes4"
        }
      ],
      "name": "supportsInterface",
      "outputs": [
        {
          "internalType": "bool",
          "name": "",
          "type": "bool"
        }
      ],
      "stateMutability": "view",
      "type": "function",
      "constant": true
    },
    {
      "inputs": [
        {
          "internalType": "address",
          "name": "gsuAddress",
          "type": "address"
        }
      ],
      "name": "setGameStateUpdate",
      "outputs": [],
      "stateMutability": "nonpayable",
      "type": "function"
    },
    {
      "inputs": [
        {
          "internalType": "address",
          "name": "vcAddress",
          "type": "address"
        }
      ],
      "name": "addVerifiedController",
      "outputs": [],
      "stateMutability": "nonpayable",
      "type": "function"
    },
    {
      "inputs": [
        {
          "internalType": "uint256",
          "name": "gameID",
          "type": "uint256"
        },
        {
          "internalType": "address",
          "name": "boardAddress",
          "type": "address"
        }
      ],
      "name": "startGame",
      "outputs": [],
      "stateMutability": "nonpayable",
      "type": "function"
    },
    {
      "inputs": [
        {
          "internalType": "uint256",
          "name": "gameID",
          "type": "uint256"
        },
        {
          "internalType": "address",
          "name": "boardAddress",
          "type": "address"
        }
      ],
      "name": "registerForGame",
      "outputs": [],
      "stateMutability": "nonpayable",
      "type": "function"
    },
    {
      "inputs": [
        {
          "internalType": "uint256",
          "name": "playerID",
          "type": "uint256"
        },
        {
          "internalType": "uint8",
          "name": "actionIndex",
          "type": "uint8"
        },
        {
          "internalType": "string[]",
          "name": "options",
          "type": "string[]"
        },
        {
          "internalType": "string",
          "name": "leftHand",
          "type": "string"
        },
        {
          "internalType": "string",
          "name": "rightHand",
          "type": "string"
        },
        {
          "internalType": "uint256",
          "name": "gameID",
          "type": "uint256"
        },
        {
          "internalType": "address",
          "name": "boardAddress",
          "type": "address"
        }
      ],
      "name": "submitAction",
      "outputs": [],
      "stateMutability": "nonpayable",
      "type": "function"
    },
    {
      "inputs": [
        {
          "internalType": "string",
          "name": "zoneChoice",
          "type": "string"
        },
        {
          "internalType": "uint256",
          "name": "gameID",
          "type": "uint256"
        },
        {
          "internalType": "address",
          "name": "boardAddress",
          "type": "address"
        }
      ],
      "name": "chooseLandingSite",
      "outputs": [],
      "stateMutability": "nonpayable",
      "type": "function"
    },
    {
      "inputs": [
        {
          "internalType": "address",
          "name": "gameRegistryAddress",
          "type": "address"
        },
        {
          "internalType": "address",
          "name": "boardAddress",
          "type": "address"
        }
      ],
      "name": "requestNewGame",
      "outputs": [],
      "stateMutability": "nonpayable",
      "type": "function"
    },
    {
      "inputs": [
        {
          "internalType": "address",
          "name": "gameRegistryAddress",
          "type": "address"
        },
        {
          "internalType": "address",
          "name": "boardAddress",
          "type": "address"
        }
      ],
      "name": "latestGame",
      "outputs": [
        {
          "internalType": "uint256",
          "name": "",
          "type": "uint256"
        }
      ],
      "stateMutability": "view",
      "type": "function",
      "constant": true
    }
  ],
  "bytecode": "0x60806040523480156200001157600080fd5b50604051620052b2380380620052b2833981016040819052620000349162000215565b806200004b60008264010000000062000053810204565b505062000247565b6200006882826401000000006200006c810204565b5050565b620000868282640100000000620040b0620000b382021704565b6000828152600160205260409020620000ae9082640100000000620041346200014f82021704565b505050565b620000c8828264010000000062000178810204565b6200006857600082815260208181526040808320600160a060020a03851684529091529020805460ff191660011790556200010b640100000000620001a1810204565b600160a060020a031681600160a060020a0316837f2f8788117e7eff1d82e926ec794901d17c78024a50270940304540a733656f0d60405160405180910390a45050565b60006200016f83600160a060020a038416640100000000620001a5810204565b90505b92915050565b600091825260208281526040808420600160a060020a0393909316845291905290205460ff1690565b3390565b6000620001bc8383640100000000620001fd810204565b620001f45750815460018181018455600084815260208082209093018490558454848252828601909352604090209190915562000172565b50600062000172565b60009081526001919091016020526040902054151590565b6000602082840312156200022857600080fd5b8151600160a060020a03811681146200024057600080fd5b9392505050565b61505b80620002576000396000f3fe608060405234801561001057600080fd5b50600436106101155760003560e060020a900480639010d07c116100b1578063ca15c87311610075578063ca15c8731461026f578063d4f5b15214610282578063d547741f14610295578063e506675d146102a8578063f3297df9146102bb57600080fd5b80639010d07c1461020e57806391d148541461022e578063975eef2614610241578063a217fddf14610254578063a605e7ae1461025c57600080fd5b806301ffc9a71461011a5780631c834a7f14610142578063248a9ca31461017757806329a461d61461019a5780632f2ff15d146101af57806336568abe146101c2578063621cc08d146101d5578063661e0566146101e85780637479c8fe146101fb575b600080fd5b61012d610128366004614666565b6102ce565b60405190151581526020015b60405180910390f35b6101697f80e2196015fc06a9d891759f8e4f51eb314ef5e9ea068528a8ed0063b87759f081565b604051908152602001610139565b610169610185366004614690565b60009081526020819052604090206001015490565b6101ad6101a83660046146ce565b610312565b005b6101ad6101bd3660046146ce565b610556565b6101ad6101d03660046146ce565b610580565b6101ad6101e33660046146ce565b610614565b6101ad6101f63660046146fe565b613372565b6101ad61020936600461472c565b6133b9565b61022161021c366004614765565b613450565b6040516101399190614787565b61012d61023c3660046146ce565b61346f565b61016961024f3660046146fe565b613498565b610169600081565b6101ad61026a36600461479b565b613521565b61016961027d366004614690565b61355c565b6101ad61029036600461479b565b613573565b6101ad6102a33660046146ce565b6135a8565b6101ad6102b636600461491e565b6135cd565b6101ad6102c93660046149e3565b613d65565b6000600160e060020a031982167f5a05180f00000000000000000000000000000000000000000000000000000000148061030c575061030c82614149565b92915050565b6040517f9aabe36d000000000000000000000000000000000000000000000000000000008152336004820152602481018390528190600160a060020a03821690639aabe36d90604401600060405180830381600087803b15801561037557600080fd5b505af1158015610389573d6000803e3d6000fd5b5050505080600160a060020a031663a0ed600d6040518163ffffffff1660e060020a028152600401602060405180830381865afa1580156103ce573d6000803e3d6000fd5b505050506040513d601f19601f820116820180604052508101906103f29190614a33565b600160a060020a03166345b8ace56040518060600160405280600460ff168152602001600460ff168152602001600460ff168152508584600160a060020a031663c06dea4e6040518163ffffffff1660e060020a028152600401602060405180830381865afa158015610469573d6000803e3d6000fd5b505050506040513d601f19601f8201168201806040525081019061048d9190614a33565b600160a060020a031663bca7caa088336040518363ffffffff1660e060020a0281526004016104bd929190614a50565b602060405180830381865afa1580156104da573d6000803e3d6000fd5b505050506040513d601f19601f820116820180604052508101906104fe9190614a67565b6040518463ffffffff1660e060020a02815260040161051f93929190614a80565b600060405180830381600087803b15801561053957600080fd5b505af115801561054d573d6000803e3d6000fd5b50505050505050565b600082815260208190526040902060010154610571816141b0565b61057b83836141bd565b505050565b600160a060020a03811633146106065760405160e560020a62461bcd02815260206004820152602f60248201527f416363657373436f6e74726f6c3a2063616e206f6e6c792072656e6f756e636560448201527f20726f6c657320666f722073656c66000000000000000000000000000000000060648201526084015b60405180910390fd5b61061082826141df565b5050565b6040517f4e0e1a3e000000000000000000000000000000000000000000000000000000008152600481018390528190600160a060020a03821690634e0e1a3e90602401602060405180830381865afa158015610674573d6000803e3d6000fd5b505050506040513d601f19601f820116820180604052508101906106989190614a67565b156106e85760405160e560020a62461bcd02815260206004820152601460248201527f67616d6520616c7265616479207374617274656400000000000000000000000060448201526064016105fd565b600081600160a060020a031663c06dea4e6040518163ffffffff1660e060020a028152600401602060405180830381865afa15801561072b573d6000803e3d6000fd5b505050506040513d601f19601f8201168201806040525081019061074f9190614a33565b60405160e360020a631703edc3028152909150600160a060020a0382169063b81f6e18906107839087903390600401614a50565b602060405180830381865afa1580156107a0573d6000803e3d6000fd5b505050506040513d601f19601f820116820180604052508101906107c49190614abf565b6107e35760405160e560020a62461bcd0281526004016105fd90614ae1565b6040517f60c2050000000000000000000000000000000000000000000000000000000000815260048101859052600160a060020a038316906360c2050090602401600060405180830381600087803b15801561083e57600080fd5b505af1158015610852573d6000803e3d6000fd5b505060405160e060020a63b77ff4110281526004810187905260009250600160a060020a038416915063b77ff41190602401602060405180830381865afa1580156108a1573d6000803e3d6000fd5b505050506040513d601f19601f820116820180604052508101906108c59190614a67565b6040517feb33983d00000000000000000000000000000000000000000000000000000000815260048101879052909150600090600160a060020a0385169063eb33983d90602401600060405180830381865afa158015610929573d6000803e3d6000fd5b505050506040513d6000823e601f3d908101601f191682016040526109519190810190614b44565b9050600084600160a060020a031663cca369966040518163ffffffff1660e060020a028152600401602060405180830381865afa158015610996573d6000803e3d6000fd5b505050506040513d601f19601f820116820180604052508101906109ba9190614a33565b905080600160a060020a031663a906dfd16040518163ffffffff1660e060020a028152600401602060405180830381865afa1580156109fd573d6000803e3d6000fd5b505050506040513d601f19601f82011682018060405250810190610a219190614a33565b600160a060020a0316631c635ded8860016040518363ffffffff1660e060020a028152600401610a52929190614bd4565b600060405180830381600087803b158015610a6c57600080fd5b505af1158015610a80573d6000803e3d6000fd5b5050505080600160a060020a031663a906dfd16040518163ffffffff1660e060020a028152600401602060405180830381865afa158015610ac5573d6000803e3d6000fd5b505050506040513d601f19601f82011682018060405250810190610ae99190614a33565b60405160e060020a631c635ded028152606060048201526005606482015260da60020a64139a59da1d0260848201526024810189905260016044820152600160a060020a039190911690631c635ded9060a401600060405180830381600087803b158015610b5657600080fd5b505af1158015610b6a573d6000803e3d6000fd5b5050505080600160a060020a0316632ee0804a6040518163ffffffff1660e060020a028152600401602060405180830381865afa158015610baf573d6000803e3d6000fd5b505050506040513d601f19601f82011682018060405250810190610bd39190614a33565b60405160e060020a631c635ded02815260606004820152600a60648201527f45617274687175616b65000000000000000000000000000000000000000000006084820152602481018990526103e86044820152600160a060020a039190911690631c635ded9060a401600060405180830381600087803b158015610c5657600080fd5b505af1158015610c6a573d6000803e3d6000fd5b5050505080600160a060020a0316632ee0804a6040518163ffffffff1660e060020a028152600401602060405180830381865afa158015610caf573d6000803e3d6000fd5b505050506040513d601f19601f82011682018060405250810190610cd39190614a33565b60405160e060020a631c635ded02815260606004820152600760648201527f566f6c63616e6f000000000000000000000000000000000000000000000000006084820152602481018990526103e86044820152600160a060020a039190911690631c635ded9060a401600060405180830381600087803b158015610d5657600080fd5b505af1158015610d6a573d6000803e3d6000fd5b5050505080600160a060020a0316632b2145336040518163ffffffff1660e060020a028152600401602060405180830381865afa158015610daf573d6000803e3d6000fd5b505050506040513d601f19601f82011682018060405250810190610dd39190614a33565b60405160e060020a631c635ded02815260606004820152600660648201527f50697261746500000000000000000000000000000000000000000000000000006084820152602481018990526103e86044820152600160a060020a039190911690631c635ded9060a401600060405180830381600087803b158015610e5657600080fd5b505af1158015610e6a573d6000803e3d6000fd5b5050505080600160a060020a0316632b2145336040518163ffffffff1660e060020a028152600401602060405180830381865afa158015610eaf573d6000803e3d6000fd5b505050506040513d601f19601f82011682018060405250810190610ed39190614a33565b60405160e060020a631c635ded02815260606004820152600b60648201527f50697261746520536869700000000000000000000000000000000000000000006084820152602481018990526103e86044820152600160a060020a039190911690631c635ded9060a401600060405180830381600087803b158015610f5657600080fd5b505af1158015610f6a573d6000803e3d6000fd5b5050505080600160a060020a0316632b2145336040518163ffffffff1660e060020a028152600401602060405180830381865afa158015610faf573d6000803e3d6000fd5b505050506040513d601f19601f82011682018060405250810190610fd39190614a33565b60405160e060020a631c635ded02815260606004820152600860648201527f4465617468626f740000000000000000000000000000000000000000000000006084820152602481018990526103e86044820152600160a060020a039190911690631c635ded9060a401600060405180830381600087803b15801561105657600080fd5b505af115801561106a573d6000803e3d6000fd5b5050505080600160a060020a0316632b2145336040518163ffffffff1660e060020a028152600401602060405180830381865afa1580156110af573d6000803e3d6000fd5b505050506040513d601f19601f820116820180604052508101906110d39190614a33565b60405160e060020a631c635ded02815260606004820152600860648201527f477561726469616e0000000000000000000000000000000000000000000000006084820152602481018990526103e86044820152600160a060020a039190911690631c635ded9060a401600060405180830381600087803b15801561115657600080fd5b505af115801561116a573d6000803e3d6000fd5b5050505080600160a060020a0316632b2145336040518163ffffffff1660e060020a028152600401602060405180830381865afa1580156111af573d6000803e3d6000fd5b505050506040513d601f19601f820116820180604052508101906111d39190614a33565b60405160e060020a631c635ded02815260606004820152600860648201527f53616e64776f726d0000000000000000000000000000000000000000000000006084820152602481018990526103e86044820152600160a060020a039190911690631c635ded9060a401600060405180830381600087803b15801561125657600080fd5b505af115801561126a573d6000803e3d6000fd5b5050505080600160a060020a0316632b2145336040518163ffffffff1660e060020a028152600401602060405180830381865afa1580156112af573d6000803e3d6000fd5b505050506040513d601f19601f820116820180604052508101906112d39190614a33565b60405160e060020a631c635ded02815260606004820152600660648201527f447261676f6e00000000000000000000000000000000000000000000000000006084820152602481018990526103e86044820152600160a060020a039190911690631c635ded9060a401600060405180830381600087803b15801561135657600080fd5b505af115801561136a573d6000803e3d6000fd5b5050505080600160a060020a031663a318d45c6040518163ffffffff1660e060020a028152600401602060405180830381865afa1580156113af573d6000803e3d6000fd5b505050506040513d601f19601f820116820180604052508101906113d39190614a33565b60405160e060020a631c635ded02815260606004820152600a60648201527f536d616c6c20416d6d6f000000000000000000000000000000000000000000006084820152602481018990526103e86044820152600160a060020a039190911690631c635ded9060a401600060405180830381600087803b15801561145657600080fd5b505af115801561146a573d6000803e3d6000fd5b5050505080600160a060020a031663a318d45c6040518163ffffffff1660e060020a028152600401602060405180830381865afa1580156114af573d6000803e3d6000fd5b505050506040513d601f19601f820116820180604052508101906114d39190614a33565b60405160e060020a631c635ded02815260606004820152600a60648201527f4c6172676520416d6d6f000000000000000000000000000000000000000000006084820152602481018990526103e86044820152600160a060020a039190911690631c635ded9060a401600060405180830381600087803b15801561155657600080fd5b505af115801561156a573d6000803e3d6000fd5b5050505080600160a060020a031663a318d45c6040518163ffffffff1660e060020a028152600401602060405180830381865afa1580156115af573d6000803e3d6000fd5b505050506040513d601f19601f820116820180604052508101906115d39190614a33565b60405160e060020a631c635ded02815260606004820152600960648201527f42617474657269657300000000000000000000000000000000000000000000006084820152602481018990526103e86044820152600160a060020a039190911690631c635ded9060a401600060405180830381600087803b15801561165657600080fd5b505af115801561166a573d6000803e3d6000fd5b5050505080600160a060020a031663a318d45c6040518163ffffffff1660e060020a028152600401602060405180830381865afa1580156116af573d6000803e3d6000fd5b505050506040513d601f19601f820116820180604052508101906116d39190614a33565b60405160e060020a631c635ded02815260606004820152600660648201527f536869656c6400000000000000000000000000000000000000000000000000006084820152602481018990526103e86044820152600160a060020a039190911690631c635ded9060a401600060405180830381600087803b15801561175657600080fd5b505af115801561176a573d6000803e3d6000fd5b5050505080600160a060020a031663a318d45c6040518163ffffffff1660e060020a028152600401602060405180830381865afa1580156117af573d6000803e3d6000fd5b505050506040513d601f19601f820116820180604052508101906117d39190614a33565b60405160e060020a631c635ded02815260606004820152600660648201527f506f7274616c00000000000000000000000000000000000000000000000000006084820152602481018990526103e86044820152600160a060020a039190911690631c635ded9060a401600060405180830381600087803b15801561185657600080fd5b505af115801561186a573d6000803e3d6000fd5b5050505080600160a060020a031663a318d45c6040518163ffffffff1660e060020a028152600401602060405180830381865afa1580156118af573d6000803e3d6000fd5b505050506040513d601f19601f820116820180604052508101906118d39190614a33565b60405160e060020a631c635ded02815260606004820152600260648201527f4f6e0000000000000000000000000000000000000000000000000000000000006084820152602481018990526103e86044820152600160a060020a039190911690631c635ded9060a401600060405180830381600087803b15801561195657600080fd5b505af115801561196a573d6000803e3d6000fd5b5050505080600160a060020a031663a318d45c6040518163ffffffff1660e060020a028152600401602060405180830381865afa1580156119af573d6000803e3d6000fd5b505050506040513d601f19601f820116820180604052508101906119d39190614a33565b60405160e060020a631c635ded02815260606004820152600360648201527f4f666600000000000000000000000000000000000000000000000000000000006084820152602481018990526103e86044820152600160a060020a039190911690631c635ded9060a401600060405180830381600087803b158015611a5657600080fd5b505af1158015611a6a573d6000803e3d6000fd5b5050505080600160a060020a031663a318d45c6040518163ffffffff1660e060020a028152600401602060405180830381865afa158015611aaf573d6000803e3d6000fd5b505050506040513d601f19601f82011682018060405250810190611ad39190614a33565b60405160e060020a631c635ded02815260606004820152600c60648201527f52757374792044616767657200000000000000000000000000000000000000006084820152602481018990526103e86044820152600160a060020a039190911690631c635ded9060a401600060405180830381600087803b158015611b5657600080fd5b505af1158015611b6a573d6000803e3d6000fd5b5050505080600160a060020a031663a318d45c6040518163ffffffff1660e060020a028152600401602060405180830381865afa158015611baf573d6000803e3d6000fd5b505050506040513d601f19601f82011682018060405250810190611bd39190614a33565b60405160e060020a631c635ded02815260606004820152600c60648201527f527573747920506973746f6c00000000000000000000000000000000000000006084820152602481018990526103e86044820152600160a060020a039190911690631c635ded9060a401600060405180830381600087803b158015611c5657600080fd5b505af1158015611c6a573d6000803e3d6000fd5b5050505080600160a060020a031663a318d45c6040518163ffffffff1660e060020a028152600401602060405180830381865afa158015611caf573d6000803e3d6000fd5b505050506040513d601f19601f82011682018060405250810190611cd39190614a33565b60405160e060020a631c635ded02815260606004820152600c60648201527f5368696e792044616767657200000000000000000000000000000000000000006084820152602481018990526103e86044820152600160a060020a039190911690631c635ded9060a401600060405180830381600087803b158015611d5657600080fd5b505af1158015611d6a573d6000803e3d6000fd5b5050505080600160a060020a031663a318d45c6040518163ffffffff1660e060020a028152600401602060405180830381865afa158015611daf573d6000803e3d6000fd5b505050506040513d601f19601f82011682018060405250810190611dd39190614a33565b60405160e060020a631c635ded02815260606004820152600c60648201527f5368696e7920506973746f6c00000000000000000000000000000000000000006084820152602481018990526103e86044820152600160a060020a039190911690631c635ded9060a401600060405180830381600087803b158015611e5657600080fd5b505af1158015611e6a573d6000803e3d6000fd5b5050505080600160a060020a031663a318d45c6040518163ffffffff1660e060020a028152600401602060405180830381865afa158015611eaf573d6000803e3d6000fd5b505050506040513d601f19601f82011682018060405250810190611ed39190614a33565b60405160e060020a631c635ded02815260606004820152600c60648201527f4c617365722044616767657200000000000000000000000000000000000000006084820152602481018990526103e86044820152600160a060020a039190911690631c635ded9060a401600060405180830381600087803b158015611f5657600080fd5b505af1158015611f6a573d6000803e3d6000fd5b5050505080600160a060020a031663a318d45c6040518163ffffffff1660e060020a028152600401602060405180830381865afa158015611faf573d6000803e3d6000fd5b505050506040513d601f19601f82011682018060405250810190611fd39190614a33565b60405160e060020a631c635ded02815260606004820152600c60648201527f4c6173657220506973746f6c00000000000000000000000000000000000000006084820152602481018990526103e86044820152600160a060020a039190911690631c635ded9060a401600060405180830381600087803b15801561205657600080fd5b505af115801561206a573d6000803e3d6000fd5b5050505080600160a060020a031663a318d45c6040518163ffffffff1660e060020a028152600401602060405180830381865afa1580156120af573d6000803e3d6000fd5b505050506040513d601f19601f820116820180604052508101906120d39190614a33565b60405160e060020a631c635ded02815260606004820152600b60648201527f506f77657220476c6f76650000000000000000000000000000000000000000006084820152602481018990526103e86044820152600160a060020a039190911690631c635ded9060a401600060405180830381600087803b15801561215657600080fd5b505af115801561216a573d6000803e3d6000fd5b5050505080600160a060020a031663a318d45c6040518163ffffffff1660e060020a028152600401602060405180830381865afa1580156121af573d6000803e3d6000fd5b505050506040513d601f19601f820116820180604052508101906121d39190614a33565b600160a060020a0316631c635ded886103e86040518363ffffffff1660e060020a028152600401612205929190614bf6565b600060405180830381600087803b15801561221f57600080fd5b505af1158015612233573d6000803e3d6000fd5b5050505080600160a060020a031663a318d45c6040518163ffffffff1660e060020a028152600401602060405180830381865afa158015612278573d6000803e3d6000fd5b505050506040513d601f19601f8201168201806040525081019061229c9190614a33565b600160a060020a0316631c635ded886103e86040518363ffffffff1660e060020a0281526004016122ce929190614c3a565b600060405180830381600087803b1580156122e857600080fd5b505af11580156122fc573d6000803e3d6000fd5b5050505080600160a060020a031663a318d45c6040518163ffffffff1660e060020a028152600401602060405180830381865afa158015612341573d6000803e3d6000fd5b505050506040513d601f19601f820116820180604052508101906123659190614a33565b600160a060020a0316631c635ded886103e86040518363ffffffff1660e060020a028152600401612397929190614c7e565b600060405180830381600087803b1580156123b157600080fd5b505af11580156123c5573d6000803e3d6000fd5b5050505080600160a060020a031663a318d45c6040518163ffffffff1660e060020a028152600401602060405180830381865afa15801561240a573d6000803e3d6000fd5b505050506040513d601f19601f8201168201806040525081019061242e9190614a33565b600160a060020a0316631c635ded886103e86040518363ffffffff1660e060020a028152600401612460929190614cf2565b600060405180830381600087803b15801561247a57600080fd5b505af115801561248e573d6000803e3d6000fd5b5050505080600160a060020a031663c1cdbb3c6040518163ffffffff1660e060020a028152600401602060405180830381865afa1580156124d3573d6000803e3d6000fd5b505050506040513d601f19601f820116820180604052508101906124f79190614a33565b60405160e060020a631c635ded02815260606004820152600760648201527f5374756e6e6564000000000000000000000000000000000000000000000000006084820152602481018990526103e86044820152600160a060020a039190911690631c635ded9060a401600060405180830381600087803b15801561257a57600080fd5b505af115801561258e573d6000803e3d6000fd5b5050505080600160a060020a031663c1cdbb3c6040518163ffffffff1660e060020a028152600401602060405180830381865afa1580156125d3573d6000803e3d6000fd5b505050506040513d601f19601f820116820180604052508101906125f79190614a33565b60405160e060020a631c635ded02815260606004820152600660648201527f4275726e656400000000000000000000000000000000000000000000000000006084820152602481018990526103e86044820152600160a060020a039190911690631c635ded9060a401600060405180830381600087803b15801561267a57600080fd5b505af115801561268e573d6000803e3d6000fd5b5050505080600160a060020a03166345d339d96040518163ffffffff1660e060020a028152600401602060405180830381865afa1580156126d3573d6000803e3d6000fd5b505050506040513d601f19601f820116820180604052508101906126f79190614a33565b600160a060020a0316631c635ded886103e86040518363ffffffff1660e060020a028152600401612729929190614bf6565b600060405180830381600087803b15801561274357600080fd5b505af1158015612757573d6000803e3d6000fd5b5050505080600160a060020a03166345d339d96040518163ffffffff1660e060020a028152600401602060405180830381865afa15801561279c573d6000803e3d6000fd5b505050506040513d601f19601f820116820180604052508101906127c09190614a33565b600160a060020a0316631c635ded886103e86040518363ffffffff1660e060020a0281526004016127f2929190614c3a565b600060405180830381600087803b15801561280c57600080fd5b505af1158015612820573d6000803e3d6000fd5b5050505080600160a060020a03166345d339d96040518163ffffffff1660e060020a028152600401602060405180830381865afa158015612865573d6000803e3d6000fd5b505050506040513d601f19601f820116820180604052508101906128899190614a33565b600160a060020a0316631c635ded886103e86040518363ffffffff1660e060020a0281526004016128bb929190614c7e565b600060405180830381600087803b1580156128d557600080fd5b505af11580156128e9573d6000803e3d6000fd5b5050505080600160a060020a031663cb8d2d2c6040518163ffffffff1660e060020a028152600401602060405180830381865afa15801561292e573d6000803e3d6000fd5b505050506040513d601f19601f820116820180604052508101906129529190614a33565b60405160e060020a631c635ded02815260606004820152600760648201527f52656c69632031000000000000000000000000000000000000000000000000006084820152602481018990526103e86044820152600160a060020a039190911690631c635ded9060a401600060405180830381600087803b1580156129d557600080fd5b505af11580156129e9573d6000803e3d6000fd5b5050505080600160a060020a031663cb8d2d2c6040518163ffffffff1660e060020a028152600401602060405180830381865afa158015612a2e573d6000803e3d6000fd5b505050506040513d601f19601f82011682018060405250810190612a529190614a33565b60405160e060020a631c635ded02815260606004820152600760648201527f52656c69632032000000000000000000000000000000000000000000000000006084820152602481018990526103e86044820152600160a060020a039190911690631c635ded9060a401600060405180830381600087803b158015612ad557600080fd5b505af1158015612ae9573d6000803e3d6000fd5b5050505080600160a060020a031663cb8d2d2c6040518163ffffffff1660e060020a028152600401602060405180830381865afa158015612b2e573d6000803e3d6000fd5b505050506040513d601f19601f82011682018060405250810190612b529190614a33565b60405160e060020a631c635ded02815260606004820152600760648201527f52656c69632033000000000000000000000000000000000000000000000000006084820152602481018990526103e86044820152600160a060020a039190911690631c635ded9060a401600060405180830381600087803b158015612bd557600080fd5b505af1158015612be9573d6000803e3d6000fd5b5050505080600160a060020a031663cb8d2d2c6040518163ffffffff1660e060020a028152600401602060405180830381865afa158015612c2e573d6000803e3d6000fd5b505050506040513d601f19601f82011682018060405250810190612c529190614a33565b60405160e060020a631c635ded02815260606004820152600760648201527f52656c69632034000000000000000000000000000000000000000000000000006084820152602481018990526103e86044820152600160a060020a039190911690631c635ded9060a401600060405180830381600087803b158015612cd557600080fd5b505af1158015612ce9573d6000803e3d6000fd5b5050505080600160a060020a031663cb8d2d2c6040518163ffffffff1660e060020a028152600401602060405180830381865afa158015612d2e573d6000803e3d6000fd5b505050506040513d601f19601f82011682018060405250810190612d529190614a33565b60405160e060020a631c635ded02815260606004820152600760648201527f52656c69632035000000000000000000000000000000000000000000000000006084820152602481018990526103e86044820152600160a060020a039190911690631c635ded9060a401600060405180830381600087803b158015612dd557600080fd5b505af1158015612de9573d6000803e3d6000fd5b5050505080600160a060020a031663a906dfd16040518163ffffffff1660e060020a028152600401602060405180830381865afa158015612e2e573d6000803e3d6000fd5b505050506040513d601f19601f82011682018060405250810190612e529190614a33565b600160a060020a031663d82910478860006001806040518563ffffffff1660e060020a028152600401612e889493929190614d04565b600060405180830381600087803b158015612ea257600080fd5b505af1158015612eb6573d6000803e3d6000fd5b5050505060005b838110156130ab576000612ed2826001614d51565b60405160e260020a633d410c95028152600481018b905260248101829052909150600090600160a060020a0388169063f504325490604401602060405180830381865afa158015612f27573d6000803e3d6000fd5b505050506040513d601f19601f82011682018060405250810190612f4b9190614a33565b6040517f98bd7572000000000000000000000000000000000000000000000000000000008152909150600160a060020a038916906398bd757290612f979084908e908a90600401614d95565b600060405180830381600087803b158015612fb157600080fd5b505af1158015612fc5573d6000803e3d6000fd5b5050505083600160a060020a031663a318d45c6040518163ffffffff1660e060020a028152600401602060405180830381865afa15801561300a573d6000803e3d6000fd5b505050506040513d601f19601f8201168201806040525081019061302e9190614a33565b600160a060020a031663d82910478b60008560016040518563ffffffff1660e060020a0281526004016130649493929190614dbd565b600060405180830381600087803b15801561307e57600080fd5b505af1158015613092573d6000803e3d6000fd5b50505050505080806130a390614dcf565b915050612ebd565b506040517f76a321c10000000000000000000000000000000000000000000000000000000081526002600482015260248101889052600160a060020a038616906376a321c190604401600060405180830381600087803b15801561310e57600080fd5b505af1158015613122573d6000803e3d6000fd5b50505050600085600160a060020a031663cefe23296040518163ffffffff1660e060020a028152600401602060405180830381865afa158015613169573d6000803e3d6000fd5b505050506040513d601f19601f8201168201806040525081019061318d9190614a33565b60405160e160020a63430c0a71028152600481018a9052909150600090600160a060020a0383169063861814e290602401602060405180830381865afa1580156131db573d6000803e3d6000fd5b505050506040513d601f19601f820116820180604052508101906131ff9190614a67565b9050806132f45781600160a060020a03166306fb55278a88600160a060020a031663b77ff4118d6040518263ffffffff1660e060020a02815260040161324791815260200190565b602060405180830381865afa158015613264573d6000803e3d6000fd5b505050506040513d601f19601f820116820180604052508101906132889190614a67565b60405160e060020a63ffffffff8516028152600481019290925261ffff1660248201526044016020604051808303816000875af11580156132cd573d6000803e3d6000fd5b505050506040513d601f19601f820116820180604052508101906132f19190614a67565b90505b6040517fe5ed1d5900000000000000000000000000000000000000000000000000000000815260048101829052600160a060020a0383169063e5ed1d5990602401600060405180830381600087803b15801561334f57600080fd5b505af1158015613363573d6000803e3d6000fd5b50505050505050505050505050565b6040517f72c6c6b60000000000000000000000000000000000000000000000000000000081528190600160a060020a038216906372c6c6b69061051f908690600401614787565b6040517f9eb356cb0000000000000000000000000000000000000000000000000000000081526004810183905233602482015260448101849052600160a060020a03821690639eb356cb906064016020604051808303816000875af1158015613426573d6000803e3d6000fd5b505050506040513d601f19601f8201168201806040525081019061344a9190614abf565b50505050565b60008281526001602052604081206134689083614201565b9392505050565b600091825260208281526040808420600160a060020a0393909316845291905290205460ff1690565b6040517fb553910d000000000000000000000000000000000000000000000000000000008152600090600160a060020a0384169063b553910d906134e0908590600401614787565b602060405180830381865afa1580156134fd573d6000803e3d6000fd5b505050506040513d601f19601f820116820180604052508101906134689190614a67565b600061352c816141b0565b506002805473ffffffffffffffffffffffffffffffffffffffff1916600160a060020a0392909216919091179055565b600081815260016020526040812061030c9061420d565b600061357e816141b0565b6106107f80e2196015fc06a9d891759f8e4f51eb314ef5e9ea068528a8ed0063b87759f083610556565b6000828152602081905260409020600101546135c3816141b0565b61057b83836141df565b6000819050600081600160a060020a031663cefe23296040518163ffffffff1660e060020a028152600401602060405180830381865afa158015613615573d6000803e3d6000fd5b505050506040513d601f19601f820116820180604052508101906136399190614a33565b9050600082600160a060020a031663c06dea4e6040518163ffffffff1660e060020a028152600401602060405180830381865afa15801561367e573d6000803e3d6000fd5b505050506040513d601f19601f820116820180604052508101906136a29190614a33565b60405160e260020a633d410c9502815260048101879052602481018c90529091503390600160a060020a0383169063f504325490604401602060405180830381865afa1580156136f6573d6000803e3d6000fd5b505050506040513d601f19601f8201168201806040525081019061371a9190614a33565b600160a060020a0316146137735760405160e560020a62461bcd02815260206004820152601660248201527f506c617965724944206973206e6f742073656e6465720000000000000000000060448201526064016105fd565b60405160e060020a63b77ff41102815260048101869052600090600160a060020a0383169063b77ff41190602401602060405180830381865afa1580156137be573d6000803e3d6000fd5b505050506040513d601f19601f820116820180604052508101906137e29190614a67565b60405160e160020a63430c0a7102815260048101889052909150600090600160a060020a0385169063861814e290602401602060405180830381865afa158015613830573d6000803e3d6000fd5b505050506040513d601f19601f820116820180604052508101906138549190614a67565b9050806138e9576040517f06fb55270000000000000000000000000000000000000000000000000000000081526004810188905260248101839052600160a060020a038516906306fb5527906044016020604051808303816000875af11580156138c2573d6000803e3d6000fd5b505050506040513d601f19601f820116820180604052508101906138e69190614a67565b90505b806139395760405160e560020a62461bcd02815260206004820152601f60248201527f756e61626c6520746f207365742071494420696e20636f6e74726f6c6c65720060448201526064016105fd565b6040517fd75e798000000000000000000000000000000000000000000000000000000000815260048101889052602481018d9052600090600160a060020a0387169063d75e798090604401600060405180830381865afa1580156139a1573d6000803e3d6000fd5b505050506040513d6000823e601f3d908101601f191682016040526139c99190810190614b44565b905060608c60ff1660041415613ce75760008088600160a060020a031663cca369966040518163ffffffff1660e060020a028152600401602060405180830381865afa158015613a1d573d6000803e3d6000fd5b505050506040513d601f19601f82011682018060405250810190613a419190614a33565b600160a060020a031663a906dfd16040518163ffffffff1660e060020a028152600401602060405180830381865afa158015613a81573d6000803e3d6000fd5b505050506040513d601f19601f82011682018060405250810190613aa59190614a33565b600160a060020a0316634db157d08c60016040518363ffffffff1660e060020a028152600401613ad6929190614bd4565b602060405180830381865afa158015613af3573d6000803e3d6000fd5b505050506040513d601f19601f82011682018060405250810190613b179190614a67565b11613b425760405180604001604052806005815260200160da60020a64139a59da1d02815250613b62565b60405180604001604052806003815260200160e860020a62446179028152505b90506000805b86811015613c675784604051602001613b819190614dea565b604051602081830303815290604052805190602001208a600160a060020a031663d75e79808e846001613bb49190614d51565b60405160e060020a63ffffffff851602815260048101929092526024820152604401600060405180830381865afa158015613bf3573d6000803e3d6000fd5b505050506040513d6000823e601f3d908101601f19168201604052613c1b9190810190614b44565b604051602001613c2b9190614dea565b604051602081830303815290604052805190602001201415613c555781613c5181614dcf565b9250505b80613c5f81614dcf565b915050613b68565b50613c73816001614d51565b67ffffffffffffffff811115613c8b57613c8b6147b8565b604051908082528060200260200182016040528015613cbe57816020015b6060815260200190600190039081613ca95790505b5092508183600081518110613cd557613cd5614e06565b60200260200101819052505050613cea565b508a5b85600160a060020a031663ae6a70568f8f848f8f896040518763ffffffff1660e060020a028152600401613d2396959493929190614e1f565b600060405180830381600087803b158015613d3d57600080fd5b505af1158015613d51573d6000803e3d6000fd5b505050505050505050505050505050505050565b6000819050600081600160a060020a031663c06dea4e6040518163ffffffff1660e060020a028152600401602060405180830381865afa158015613dad573d6000803e3d6000fd5b505050506040513d601f19601f82011682018060405250810190613dd19190614a33565b60405160e360020a631703edc3028152909150600160a060020a0382169063b81f6e1890613e059087903390600401614a50565b602060405180830381865afa158015613e22573d6000803e3d6000fd5b505050506040513d601f19601f82011682018060405250810190613e469190614abf565b613e655760405160e560020a62461bcd0281526004016105fd90614ae1565b60405160e060020a63b77ff41102815260048101859052600190600160a060020a0383169063b77ff41190602401602060405180830381865afa158015613eb0573d6000803e3d6000fd5b505050506040513d601f19601f82011682018060405250810190613ed49190614a67565b1115613fb4576040517fbca7caa0000000000000000000000000000000000000000000000000000000008152600160a060020a0382169063bca7caa090613f219087903390600401614a50565b602060405180830381865afa158015613f3e573d6000803e3d6000fd5b505050506040513d601f19601f82011682018060405250810190613f629190614a67565b600214613fb45760405160e560020a62461bcd02815260206004820152601760248201527f50322063686f6f736573206c616e64696e67207369746500000000000000000060448201526064016105fd565b6040517ff8430708000000000000000000000000000000000000000000000000000000008152600160a060020a0383169063f843070890613ffe9088906005908990600401614ec2565b600060405180830381600087803b15801561401857600080fd5b505af115801561402c573d6000803e3d6000fd5b50506040517f9f82bcc0000000000000000000000000000000000000000000000000000000008152600160a060020a0385169250639f82bcc091506140779088908890600401614f09565b600060405180830381600087803b15801561409157600080fd5b505af11580156140a5573d6000803e3d6000fd5b505050505050505050565b6140ba828261346f565b61061057600082815260208181526040808320600160a060020a03851684529091529020805460ff191660011790556140f03390565b600160a060020a031681600160a060020a0316837f2f8788117e7eff1d82e926ec794901d17c78024a50270940304540a733656f0d60405160405180910390a45050565b600061346883600160a060020a038416614217565b6000600160e060020a031982167f7965db0b00000000000000000000000000000000000000000000000000000000148061030c57507f01ffc9a700000000000000000000000000000000000000000000000000000000600160e060020a031983161461030c565b6141ba8133614266565b50565b6141c782826140b0565b600082815260016020526040902061057b9082614134565b6141e982826142cd565b600082815260016020526040902061057b9082614332565b60006134688383614347565b600061030c825490565b600081815260018301602052604081205461425e5750815460018181018455600084815260208082209093018490558454848252828601909352604090209190915561030c565b50600061030c565b614270828261346f565b6106105761428881600160a060020a03166014614371565b614293836020614371565b6040516020016142a4929190614f2b565b60408051601f198184030181529082905260e560020a62461bcd0282526105fd91600401614fac565b6142d7828261346f565b1561061057600082815260208181526040808320600160a060020a0385168085529252808320805460ff1916905551339285917ff6391f5c32d9c69d2a47ea670b442974b53935d1edc7fd64eb21e047a839171b9190a45050565b600061346883600160a060020a038416614573565b600082600001828154811061435e5761435e614e06565b9060005260206000200154905092915050565b60606000614380836002614fbf565b61438b906002614d51565b67ffffffffffffffff8111156143a3576143a36147b8565b6040519080825280601f01601f1916602001820160405280156143cd576020820181803683370190505b5090507f30000000000000000000000000000000000000000000000000000000000000008160008151811061440457614404614e06565b6020010190600160f860020a031916908160001a9053507f78000000000000000000000000000000000000000000000000000000000000008160018151811061444f5761444f614e06565b6020010190600160f860020a031916908160001a9053506000614473846002614fbf565b61447e906001614d51565b90505b6001811115614521577f303132333435363738396162636465660000000000000000000000000000000085600f16601081106144bf576144bf614e06565b1a7f0100000000000000000000000000000000000000000000000000000000000000028282815181106144f4576144f4614e06565b6020010190600160f860020a031916908160001a90535060109094049361451a81614fde565b9050614481565b5083156134685760405160e560020a62461bcd02815260206004820181905260248201527f537472696e67733a20686578206c656e67746820696e73756666696369656e7460448201526064016105fd565b6000818152600183016020526040812054801561465c576000614597600183614ff5565b85549091506000906145ab90600190614ff5565b90508181146146105760008660000182815481106145cb576145cb614e06565b90600052602060002001549050808760000184815481106145ee576145ee614e06565b6000918252602080832090910192909255918252600188019052604090208390555b85548690806146215761462161500c565b60019003818190600052602060002001600090559055856001016000868152602001908152602001600020600090556001935050505061030c565b600091505061030c565b60006020828403121561467857600080fd5b8135600160e060020a03198116811461346857600080fd5b6000602082840312156146a257600080fd5b5035919050565b600160a060020a03811681146141ba57600080fd5b80356146c9816146a9565b919050565b600080604083850312156146e157600080fd5b8235915060208301356146f3816146a9565b809150509250929050565b6000806040838503121561471157600080fd5b823561471c816146a9565b915060208301356146f3816146a9565b60008060006060848603121561474157600080fd5b8335925060208401359150604084013561475a816146a9565b809150509250925092565b6000806040838503121561477857600080fd5b50508035926020909101359150565b600160a060020a0391909116815260200190565b6000602082840312156147ad57600080fd5b8135613468816146a9565b60e060020a634e487b7102600052604160045260246000fd5b604051601f8201601f1916810167ffffffffffffffff811182821017156147fa576147fa6147b8565b604052919050565b600067ffffffffffffffff82111561481c5761481c6147b8565b50601f01601f191660200190565b600082601f83011261483b57600080fd5b813561484e61484982614802565b6147d1565b81815284602083860101111561486357600080fd5b816020850160208301376000918101602001919091529392505050565b600082601f83011261489157600080fd5b8135602067ffffffffffffffff808311156148ae576148ae6147b8565b8183026148bc8382016147d1565b93845285810183019383810190888611156148d657600080fd5b84880192505b85831015614912578235848111156148f45760008081fd5b6149028a87838c010161482a565b83525091840191908401906148dc565b98975050505050505050565b600080600080600080600060e0888a03121561493957600080fd5b87359650602088013560ff8116811461495157600080fd5b9550604088013567ffffffffffffffff8082111561496e57600080fd5b61497a8b838c01614880565b965060608a013591508082111561499057600080fd5b61499c8b838c0161482a565b955060808a01359150808211156149b257600080fd5b506149bf8a828b0161482a565b93505060a088013591506149d560c089016146be565b905092959891949750929550565b6000806000606084860312156149f857600080fd5b833567ffffffffffffffff811115614a0f57600080fd5b614a1b8682870161482a565b93505060208401359150604084013561475a816146a9565b600060208284031215614a4557600080fd5b8151613468816146a9565b918252600160a060020a0316602082015260400190565b600060208284031215614a7957600080fd5b5051919050565b60a08101818560005b6003811015614aab57815160ff16835260209283019290910190600101614a89565b505050606082019390935260800152919050565b600060208284031215614ad157600080fd5b8151801515811461346857600080fd5b60208082526015908201527f706c61796572206e6f7420726567697374657265640000000000000000000000604082015260600190565b60005b83811015614b33578181015183820152602001614b1b565b8381111561344a5750506000910152565b600060208284031215614b5657600080fd5b815167ffffffffffffffff811115614b6d57600080fd5b8201601f81018413614b7e57600080fd5b8051614b8c61484982614802565b818152856020838501011115614ba157600080fd5b614bb2826020830160208601614b18565b95945050505050565b6003815260e860020a6244617902602082015260400190565b606081526000614be660608301614bbb565b6020830194909452506040015290565b6060808252600f908201527f456e677261766564205461626c6574000000000000000000000000000000000060808201526020810192909252604082015260a00190565b60608082526009908201527f536967696c2047656d000000000000000000000000000000000000000000000060808201526020810192909252604082015260a00190565b6060808252600c908201527f416e6369656e7420546f6d65000000000000000000000000000000000000000060808201526020810192909252604082015260a00190565b600881527f43616d7073697465000000000000000000000000000000000000000000000000602082015260400190565b606081526000614be660608301614cc2565b60a081526000614d1660a08301614bbb565b6020830196909652506040810193909352606083019190915260809091015290565b60e060020a634e487b7102600052601160045260246000fd5b60008219821115614d6457614d64614d38565b500190565b60008151808452614d81816020860160208601614b18565b601f01601f19169290920160200192915050565b600160a060020a0384168152826020820152606060408201526000614bb26060830184614d69565b60a081526000614d1660a08301614cc2565b6000600019821415614de357614de3614d38565b5060010190565b60008251614dfc818460208701614b18565b9190910192915050565b60e060020a634e487b7102600052603260045260246000fd5b600060c08201888352602060ff89168185015260c0604085015281885180845260e08601915060e08382028701019350828a0160005b82811015614e835760df19888703018452614e71868351614d69565b95509284019290840190600101614e55565b50505050508281036060840152614e9a8187614d69565b90508281036080840152614eae8186614d69565b9150508260a0830152979650505050505050565b606081526000614ed56060830186614d69565b9050600c8410614ef85760e060020a634e487b7102600052602160045260246000fd5b602082019390935260400152919050565b604081526000614f1c6040830185614d69565b90508260208301529392505050565b7f416363657373436f6e74726f6c3a206163636f756e7420000000000000000000815260008351614f63816017850160208801614b18565b7f206973206d697373696e6720726f6c65200000000000000000000000000000006017918401918201528351614fa0816028840160208801614b18565b01602801949350505050565b6020815260006134686020830184614d69565b6000816000190483118215151615614fd957614fd9614d38565b500290565b600081614fed57614fed614d38565b506000190190565b60008282101561500757615007614d38565b500390565b60e060020a634e487b7102600052603160045260246000fdfea26469706673582212207795f3358bc3c2532654eb424ec6ca9eac915d6f6241ad7a5e634d4c18f4777564736f6c634300080b0033",
  "immutableReferences": {},
  "source": "// SPDX-License-Identifier: GPL-3.0\npragma solidity >=0.7.0 <0.9.0;\n\nimport \"@luckymachines/game-core/contracts/src/v0.0/GameController.sol\";\nimport \"./HexplorationBoard.sol\";\nimport \"./HexplorationZone.sol\";\nimport \"./HexplorationQueue.sol\";\nimport \"./HexplorationStateUpdate.sol\";\nimport \"./state/CharacterCard.sol\";\nimport \"./tokens/TokenInventory.sol\";\n\ncontract HexplorationController is GameController {\n    // functions are meant to be called directly by players by default\n    // we are adding the ability of a Controller Admin or Keeper to\n    // execute the game aspects not directly controlled by players\n    bytes32 public constant VERIFIED_CONTROLLER_ROLE =\n        keccak256(\"VERIFIED_CONTROLLER_ROLE\");\n\n    HexplorationStateUpdate GAME_STATE;\n\n    modifier onlyAdminVC() {\n        require(\n            hasRole(DEFAULT_ADMIN_ROLE, _msgSender()) ||\n                hasRole(VERIFIED_CONTROLLER_ROLE, _msgSender()),\n            \"Admin or Keeper role required\"\n        );\n        _;\n    }\n\n    constructor(address adminAddress) GameController(adminAddress) {}\n\n    // Admin Functions\n\n    function setGameStateUpdate(address gsuAddress)\n        public\n        onlyRole(DEFAULT_ADMIN_ROLE)\n    {\n        GAME_STATE = HexplorationStateUpdate(gsuAddress);\n    }\n\n    function addVerifiedController(address vcAddress)\n        public\n        onlyRole(DEFAULT_ADMIN_ROLE)\n    {\n        grantRole(VERIFIED_CONTROLLER_ROLE, vcAddress);\n    }\n\n    // Admin or Keeper Interactions\n\n    function startGame(uint256 gameID, address boardAddress) public {\n        HexplorationBoard board = HexplorationBoard(boardAddress);\n        require(board.gameState(gameID) == 0, \"game already started\");\n\n        PlayerRegistry pr = PlayerRegistry(board.prAddress());\n\n        // Any registered player can start game once landing site has been set\n        require(pr.isRegistered(gameID, msg.sender), \"player not registered\");\n        board.lockRegistration(gameID);\n        uint256 totalRegistrations = pr.totalRegistrations(gameID);\n\n        string memory startZone = board.initialPlayZone(gameID);\n\n        TokenInventory ti = TokenInventory(board.tokenInventory());\n        // mint game tokens (maybe mint on demand instead...)\n        // minting full game set here\n        ti.DAY_NIGHT_TOKEN().mint(\"Day\", gameID, 1);\n        ti.DAY_NIGHT_TOKEN().mint(\"Night\", gameID, 1);\n        ti.DISASTER_TOKEN().mint(\"Earthquake\", gameID, 1000);\n        ti.DISASTER_TOKEN().mint(\"Volcano\", gameID, 1000);\n        ti.ENEMY_TOKEN().mint(\"Pirate\", gameID, 1000);\n        ti.ENEMY_TOKEN().mint(\"Pirate Ship\", gameID, 1000);\n        ti.ENEMY_TOKEN().mint(\"Deathbot\", gameID, 1000);\n        ti.ENEMY_TOKEN().mint(\"Guardian\", gameID, 1000);\n        ti.ENEMY_TOKEN().mint(\"Sandworm\", gameID, 1000);\n        ti.ENEMY_TOKEN().mint(\"Dragon\", gameID, 1000);\n        ti.ITEM_TOKEN().mint(\"Small Ammo\", gameID, 1000);\n        ti.ITEM_TOKEN().mint(\"Large Ammo\", gameID, 1000);\n        ti.ITEM_TOKEN().mint(\"Batteries\", gameID, 1000);\n        ti.ITEM_TOKEN().mint(\"Shield\", gameID, 1000);\n        ti.ITEM_TOKEN().mint(\"Portal\", gameID, 1000);\n        ti.ITEM_TOKEN().mint(\"On\", gameID, 1000);\n        ti.ITEM_TOKEN().mint(\"Off\", gameID, 1000);\n        ti.ITEM_TOKEN().mint(\"Rusty Dagger\", gameID, 1000);\n        ti.ITEM_TOKEN().mint(\"Rusty Pistol\", gameID, 1000);\n        ti.ITEM_TOKEN().mint(\"Shiny Dagger\", gameID, 1000);\n        ti.ITEM_TOKEN().mint(\"Shiny Pistol\", gameID, 1000);\n        ti.ITEM_TOKEN().mint(\"Laser Dagger\", gameID, 1000);\n        ti.ITEM_TOKEN().mint(\"Laser Pistol\", gameID, 1000);\n        ti.ITEM_TOKEN().mint(\"Power Glove\", gameID, 1000);\n        ti.ITEM_TOKEN().mint(\"Engraved Tablet\", gameID, 1000);\n        ti.ITEM_TOKEN().mint(\"Sigil Gem\", gameID, 1000);\n        ti.ITEM_TOKEN().mint(\"Ancient Tome\", gameID, 1000);\n        ti.ITEM_TOKEN().mint(\"Campsite\", gameID, 1000);\n        /*\n        ti.ITEM_TOKEN().mint(\"Rusty Sword\", gameID, 1000);\n        ti.ITEM_TOKEN().mint(\"Rusty Rifle\", gameID, 1000);\n        ti.ITEM_TOKEN().mint(\"Shiny Sword\", gameID, 1000);\n        ti.ITEM_TOKEN().mint(\"Shiny Rifle\", gameID, 1000);\n        ti.ITEM_TOKEN().mint(\"Laser Sword\", gameID, 1000);\n        ti.ITEM_TOKEN().mint(\"Laser Rifle\", gameID, 1000);\n        ti.ITEM_TOKEN().mint(\"Glow stick\", gameID, 1000);\n        ti.ITEM_TOKEN().mint(\"Flashlight\", gameID, 1000);\n        ti.ITEM_TOKEN().mint(\"Flood light\", gameID, 1000);\n        ti.ITEM_TOKEN().mint(\"Nightvision Goggles\", gameID, 1000);\n        ti.ITEM_TOKEN().mint(\"Personal Shield\", gameID, 1000);\n        ti.ITEM_TOKEN().mint(\"Bubble Shield\", gameID, 1000);\n        ti.ITEM_TOKEN().mint(\"Frag Grenade\", gameID, 1000);\n        ti.ITEM_TOKEN().mint(\"Fire Grenade\", gameID, 1000);\n        ti.ITEM_TOKEN().mint(\"Shock Grenade\", gameID, 1000);\n        ti.ITEM_TOKEN().mint(\"HE Mortar\", gameID, 1000);\n        ti.ITEM_TOKEN().mint(\"Incendiary Mortar\", gameID, 1000);\n        ti.ITEM_TOKEN().mint(\"EMP Mortar\", gameID, 1000);\n        ti.ITEM_TOKEN().mint(\"Remote Launch and Guidance System\", gameID, 1000);\n        ti.ITEM_TOKEN().mint(\"Teleporter Pack\", gameID, 1000);\n        */\n        ti.PLAYER_STATUS_TOKEN().mint(\"Stunned\", gameID, 1000);\n        ti.PLAYER_STATUS_TOKEN().mint(\"Burned\", gameID, 1000);\n\n        // Duplicate tokens, probably deprecating these?\n        ti.ARTIFACT_TOKEN().mint(\"Engraved Tablet\", gameID, 1000);\n        ti.ARTIFACT_TOKEN().mint(\"Sigil Gem\", gameID, 1000);\n        ti.ARTIFACT_TOKEN().mint(\"Ancient Tome\", gameID, 1000);\n\n        ti.RELIC_TOKEN().mint(\"Relic 1\", gameID, 1000);\n        ti.RELIC_TOKEN().mint(\"Relic 2\", gameID, 1000);\n        ti.RELIC_TOKEN().mint(\"Relic 3\", gameID, 1000);\n        ti.RELIC_TOKEN().mint(\"Relic 4\", gameID, 1000);\n        ti.RELIC_TOKEN().mint(\"Relic 5\", gameID, 1000);\n        // Transfer day token to board\n        ti.DAY_NIGHT_TOKEN().transfer(\"Day\", gameID, 0, 1, 1);\n\n        for (uint256 i = 0; i < totalRegistrations; i++) {\n            uint256 playerID = i + 1;\n            address playerAddress = pr.playerAddress(gameID, playerID);\n            board.enterPlayer(playerAddress, gameID, startZone);\n            // Transfer campsite tokens to players\n            ti.ITEM_TOKEN().transfer(\"Campsite\", gameID, 0, playerID, 1);\n        }\n        // set game to initialized\n        board.setGameState(2, gameID);\n\n        HexplorationQueue q = HexplorationQueue(board.gameplayQueue());\n\n        uint256 qID = q.queueID(gameID);\n        if (qID == 0) {\n            qID = q.requestGameQueue(\n                gameID,\n                uint16(pr.totalRegistrations(gameID))\n            );\n        }\n        q.startGame(qID);\n    }\n\n    //Player Interactions\n    function registerForGame(uint256 gameID, address boardAddress) public {\n        HexplorationBoard board = HexplorationBoard(boardAddress);\n        board.registerPlayer(msg.sender, gameID);\n        // TODO: set to official values\n        CharacterCard(board.characterCard()).setStats(\n            [4, 4, 4],\n            gameID,\n            PlayerRegistry(board.prAddress()).playerID(gameID, msg.sender)\n        );\n    }\n\n    function submitAction(\n        uint256 playerID,\n        uint8 actionIndex,\n        string[] memory options,\n        string memory leftHand,\n        string memory rightHand,\n        uint256 gameID,\n        address boardAddress\n    ) public {\n        HexplorationBoard board = HexplorationBoard(boardAddress);\n        HexplorationQueue q = HexplorationQueue(board.gameplayQueue());\n        PlayerRegistry pr = PlayerRegistry(board.prAddress());\n        require(\n            pr.playerAddress(gameID, playerID) == msg.sender,\n            \"PlayerID is not sender\"\n        );\n        uint256 totalRegistrations = pr.totalRegistrations(gameID);\n        uint256 qID = q.queueID(gameID);\n        if (qID == 0) {\n            qID = q.requestGameQueue(gameID, totalRegistrations);\n        }\n        require(qID != 0, \"unable to set qID in controller\");\n        string memory cz = board.currentPlayZone(gameID, playerID);\n        string[] memory newOptions;\n        if (actionIndex == 4) {\n            string memory phase = TokenInventory(board.tokenInventory())\n                .DAY_NIGHT_TOKEN()\n                .balance(\"Day\", gameID, 1) > 0\n                ? \"Day\"\n                : \"Night\";\n            // dig action, set options to # players on board\n            uint256 activePlayersOnSpace = 0;\n            for (uint256 i = 0; i < totalRegistrations; i++) {\n                if (\n                    keccak256(\n                        abi.encodePacked(board.currentPlayZone(gameID, i + 1))\n                    ) == keccak256(abi.encodePacked(cz))\n                ) {\n                    activePlayersOnSpace++;\n                }\n                //currentPlayZone[gameID][playerID]\n            }\n            newOptions = new string[](activePlayersOnSpace + 1); // array length = players on space + 1\n            newOptions[0] = phase;\n        } else {\n            newOptions = options;\n        }\n        q.sumbitActionForPlayer(\n            playerID,\n            actionIndex,\n            newOptions,\n            leftHand,\n            rightHand,\n            qID\n        );\n    }\n\n    function chooseLandingSite(\n        string memory zoneChoice,\n        uint256 gameID,\n        address boardAddress\n    ) public {\n        // game rule: player 2 chooses on multiplayer game\n        HexplorationBoard board = HexplorationBoard(boardAddress);\n        PlayerRegistry pr = PlayerRegistry(board.prAddress());\n        require(pr.isRegistered(gameID, msg.sender), \"player not registered\");\n\n        if (pr.totalRegistrations(gameID) > 1) {\n            require(\n                pr.playerID(gameID, msg.sender) == 2,\n                \"P2 chooses landing site\"\n            );\n        }\n        board.enableZone(zoneChoice, HexplorationZone.Tile.LandingSite, gameID);\n        // set landing site at space on board\n        board.setInitialPlayZone(zoneChoice, gameID);\n\n        //startGame(gameID, boardAddress);\n    }\n\n    // TODO: limit this to authorized game starters\n    function requestNewGame(address gameRegistryAddress, address boardAddress)\n        public\n    {\n        HexplorationBoard board = HexplorationBoard(boardAddress);\n        board.requestNewGame(gameRegistryAddress);\n    }\n\n    function latestGame(address gameRegistryAddress, address boardAddress)\n        public\n        view\n        returns (uint256)\n    {\n        return GameRegistry(gameRegistryAddress).latestGame(boardAddress);\n    }\n\n    // TODO: remove before launch\n    // function getTestInventory(uint256 gameID, address boardAddress) public {\n    //     // send some equippable items\n    //     HexplorationBoard board = HexplorationBoard(boardAddress);\n    //     TokenInventory ti = TokenInventory(board.tokenInventory());\n    //     PlayerRegistry pr = PlayerRegistry(board.prAddress());\n    //     ti.ITEM_TOKEN().transfer(\n    //         \"Shiny Rifle\",\n    //         gameID,\n    //         0,\n    //         pr.playerID(gameID, msg.sender),\n    //         1\n    //     );\n\n    //     ti.ITEM_TOKEN().transfer(\n    //         \"Glow stick\",\n    //         gameID,\n    //         0,\n    //         pr.playerID(gameID, msg.sender),\n    //         1\n    //     );\n\n    //     ti.ITEM_TOKEN().transfer(\n    //         \"Laser Dagger\",\n    //         gameID,\n    //         0,\n    //         pr.playerID(gameID, msg.sender),\n    //         1\n    //     );\n    // }\n}\n",
  "sourcePath": "/Users/max/demo/hexploration/contracts/HexplorationController.sol",
  "compiler": {
    "name": "solc",
    "version": "0.8.11+commit.d7f03943.Emscripten.clang"
  },
  "schemaVersion": "3.4.2",
  "updatedAt": "2022-05-27T08:06:55.900Z",
  "networkType": "ethereum",
  "devdoc": {
    "kind": "dev",
    "methods": {
      "getRoleAdmin(bytes32)": {
        "details": "Returns the admin role that controls `role`. See {grantRole} and {revokeRole}. To change a role's admin, use {_setRoleAdmin}."
      },
      "getRoleMember(bytes32,uint256)": {
        "details": "Returns one of the accounts that have `role`. `index` must be a value between 0 and {getRoleMemberCount}, non-inclusive. Role bearers are not sorted in any particular way, and their ordering may change at any point. WARNING: When using {getRoleMember} and {getRoleMemberCount}, make sure you perform all queries on the same block. See the following https://forum.openzeppelin.com/t/iterating-over-elements-on-enumerableset-in-openzeppelin-contracts/2296[forum post] for more information."
      },
      "getRoleMemberCount(bytes32)": {
        "details": "Returns the number of accounts that have `role`. Can be used together with {getRoleMember} to enumerate all bearers of a role."
      },
      "grantRole(bytes32,address)": {
        "details": "Grants `role` to `account`. If `account` had not been already granted `role`, emits a {RoleGranted} event. Requirements: - the caller must have ``role``'s admin role."
      },
      "hasRole(bytes32,address)": {
        "details": "Returns `true` if `account` has been granted `role`."
      },
      "renounceRole(bytes32,address)": {
        "details": "Revokes `role` from the calling account. Roles are often managed via {grantRole} and {revokeRole}: this function's purpose is to provide a mechanism for accounts to lose their privileges if they are compromised (such as when a trusted device is misplaced). If the calling account had been revoked `role`, emits a {RoleRevoked} event. Requirements: - the caller must be `account`."
      },
      "revokeRole(bytes32,address)": {
        "details": "Revokes `role` from `account`. If `account` had been granted `role`, emits a {RoleRevoked} event. Requirements: - the caller must have ``role``'s admin role."
      },
      "supportsInterface(bytes4)": {
        "details": "See {IERC165-supportsInterface}."
      }
    },
    "version": 1
  },
  "userdoc": {
    "kind": "user",
    "methods": {},
    "version": 1
  }
}