{
  "contractName": "HexplorationController",
  "abi": [
    {
      "inputs": [
        {
          "internalType": "address",
          "name": "adminAddress",
          "type": "address"
        }
      ],
      "stateMutability": "nonpayable",
      "type": "constructor"
    },
    {
      "anonymous": false,
      "inputs": [
        {
          "indexed": true,
          "internalType": "bytes32",
          "name": "role",
          "type": "bytes32"
        },
        {
          "indexed": true,
          "internalType": "bytes32",
          "name": "previousAdminRole",
          "type": "bytes32"
        },
        {
          "indexed": true,
          "internalType": "bytes32",
          "name": "newAdminRole",
          "type": "bytes32"
        }
      ],
      "name": "RoleAdminChanged",
      "type": "event"
    },
    {
      "anonymous": false,
      "inputs": [
        {
          "indexed": true,
          "internalType": "bytes32",
          "name": "role",
          "type": "bytes32"
        },
        {
          "indexed": true,
          "internalType": "address",
          "name": "account",
          "type": "address"
        },
        {
          "indexed": true,
          "internalType": "address",
          "name": "sender",
          "type": "address"
        }
      ],
      "name": "RoleGranted",
      "type": "event"
    },
    {
      "anonymous": false,
      "inputs": [
        {
          "indexed": true,
          "internalType": "bytes32",
          "name": "role",
          "type": "bytes32"
        },
        {
          "indexed": true,
          "internalType": "address",
          "name": "account",
          "type": "address"
        },
        {
          "indexed": true,
          "internalType": "address",
          "name": "sender",
          "type": "address"
        }
      ],
      "name": "RoleRevoked",
      "type": "event"
    },
    {
      "inputs": [],
      "name": "DEFAULT_ADMIN_ROLE",
      "outputs": [
        {
          "internalType": "bytes32",
          "name": "",
          "type": "bytes32"
        }
      ],
      "stateMutability": "view",
      "type": "function"
    },
    {
      "inputs": [],
      "name": "KEEPER_ROLE",
      "outputs": [
        {
          "internalType": "bytes32",
          "name": "",
          "type": "bytes32"
        }
      ],
      "stateMutability": "view",
      "type": "function"
    },
    {
      "inputs": [
        {
          "internalType": "uint256",
          "name": "pathIndex",
          "type": "uint256"
        },
        {
          "internalType": "uint256",
          "name": "gameID",
          "type": "uint256"
        },
        {
          "internalType": "address",
          "name": "gameBoardAddress",
          "type": "address"
        }
      ],
      "name": "exitToPath",
      "outputs": [],
      "stateMutability": "nonpayable",
      "type": "function"
    },
    {
      "inputs": [
        {
          "internalType": "bytes32",
          "name": "role",
          "type": "bytes32"
        }
      ],
      "name": "getRoleAdmin",
      "outputs": [
        {
          "internalType": "bytes32",
          "name": "",
          "type": "bytes32"
        }
      ],
      "stateMutability": "view",
      "type": "function"
    },
    {
      "inputs": [
        {
          "internalType": "bytes32",
          "name": "role",
          "type": "bytes32"
        },
        {
          "internalType": "uint256",
          "name": "index",
          "type": "uint256"
        }
      ],
      "name": "getRoleMember",
      "outputs": [
        {
          "internalType": "address",
          "name": "",
          "type": "address"
        }
      ],
      "stateMutability": "view",
      "type": "function"
    },
    {
      "inputs": [
        {
          "internalType": "bytes32",
          "name": "role",
          "type": "bytes32"
        }
      ],
      "name": "getRoleMemberCount",
      "outputs": [
        {
          "internalType": "uint256",
          "name": "",
          "type": "uint256"
        }
      ],
      "stateMutability": "view",
      "type": "function"
    },
    {
      "inputs": [
        {
          "internalType": "bytes32",
          "name": "role",
          "type": "bytes32"
        },
        {
          "internalType": "address",
          "name": "account",
          "type": "address"
        }
      ],
      "name": "grantRole",
      "outputs": [],
      "stateMutability": "nonpayable",
      "type": "function"
    },
    {
      "inputs": [
        {
          "internalType": "bytes32",
          "name": "role",
          "type": "bytes32"
        },
        {
          "internalType": "address",
          "name": "account",
          "type": "address"
        }
      ],
      "name": "hasRole",
      "outputs": [
        {
          "internalType": "bool",
          "name": "",
          "type": "bool"
        }
      ],
      "stateMutability": "view",
      "type": "function"
    },
    {
      "inputs": [
        {
          "internalType": "bytes32",
          "name": "role",
          "type": "bytes32"
        },
        {
          "internalType": "address",
          "name": "account",
          "type": "address"
        }
      ],
      "name": "renounceRole",
      "outputs": [],
      "stateMutability": "nonpayable",
      "type": "function"
    },
    {
      "inputs": [
        {
          "internalType": "bytes32",
          "name": "role",
          "type": "bytes32"
        },
        {
          "internalType": "address",
          "name": "account",
          "type": "address"
        }
      ],
      "name": "revokeRole",
      "outputs": [],
      "stateMutability": "nonpayable",
      "type": "function"
    },
    {
      "inputs": [
        {
          "internalType": "bytes4",
          "name": "interfaceId",
          "type": "bytes4"
        }
      ],
      "name": "supportsInterface",
      "outputs": [
        {
          "internalType": "bool",
          "name": "",
          "type": "bool"
        }
      ],
      "stateMutability": "view",
      "type": "function"
    },
    {
      "inputs": [
        {
          "internalType": "address",
          "name": "keeperAddress",
          "type": "address"
        }
      ],
      "name": "addKeeper",
      "outputs": [],
      "stateMutability": "nonpayable",
      "type": "function"
    },
    {
      "inputs": [
        {
          "internalType": "string[]",
          "name": "zonePath",
          "type": "string[]"
        },
        {
          "internalType": "uint256",
          "name": "gameID",
          "type": "uint256"
        },
        {
          "internalType": "address",
          "name": "boardAddress",
          "type": "address"
        }
      ],
      "name": "moveThroughPath",
      "outputs": [],
      "stateMutability": "nonpayable",
      "type": "function"
    }
  ],
  "bytecode": "0x60806040523480156200001157600080fd5b506040516200153338038062001533833981016040819052620000349162000215565b806200004b60008264010000000062000053810204565b505062000247565b6200006882826401000000006200006c810204565b5050565b6200008682826401000000006200073b620000b382021704565b6000828152600160205260409020620000ae9082640100000000620007bf6200014f82021704565b505050565b620000c8828264010000000062000178810204565b6200006857600082815260208181526040808320600160a060020a03851684529091529020805460ff191660011790556200010b640100000000620001a1810204565b600160a060020a031681600160a060020a0316837f2f8788117e7eff1d82e926ec794901d17c78024a50270940304540a733656f0d60405160405180910390a45050565b60006200016f83600160a060020a038416640100000000620001a5810204565b90505b92915050565b600091825260208281526040808420600160a060020a0393909316845291905290205460ff1690565b3390565b6000620001bc8383640100000000620001fd810204565b620001f45750815460018181018455600084815260208082209093018490558454848252828601909352604090209190915562000172565b50600062000172565b60009081526001919091016020526040902054151590565b6000602082840312156200022857600080fd5b8151600160a060020a03811681146200024057600080fd5b9392505050565b6112dc80620002576000396000f3fe608060405234801561001057600080fd5b50600436106100ec576000357c0100000000000000000000000000000000000000000000000000000000900480634bde808c116100a957806391d148541161008357806391d14854146101fd578063a217fddf14610210578063ca15c87314610218578063d547741f1461022b57600080fd5b80634bde808c146101ac5780637479c8fe146101bf5780639010d07c146101d257600080fd5b806301ffc9a7146100f1578063248a9ca3146101195780632f2ff15d1461014a578063364bc15a1461015f57806336568abe146101865780634032b72b14610199575b600080fd5b6101046100ff366004610d39565b61023e565b60405190151581526020015b60405180910390f35b61013c610127366004610d63565b60009081526020819052604090206001015490565b604051908152602001610110565b61015d610158366004610da1565b610282565b005b61013c7ffc8737ab85eb45125971625a9ebdb75cc78e01d5c1fa80c4c6e5203f47bc4fab81565b61015d610194366004610da1565b6102ac565b61015d6101a7366004610dd1565b610340565b61015d6101ba366004610e38565b610375565b61015d6101cd366004610f69565b610620565b6101e56101e0366004610fa2565b6106b7565b604051600160a060020a039091168152602001610110565b61010461020b366004610da1565b6106d6565b61013c600081565b61013c610226366004610d63565b6106ff565b61015d610239366004610da1565b610716565b6000600160e060020a031982167f5a05180f00000000000000000000000000000000000000000000000000000000148061027c575061027c826107d4565b92915050565b60008281526020819052604090206001015461029d8161083b565b6102a78383610848565b505050565b600160a060020a03811633146103325760405160e560020a62461bcd02815260206004820152602f60248201527f416363657373436f6e74726f6c3a2063616e206f6e6c792072656e6f756e636560448201527f20726f6c657320666f722073656c66000000000000000000000000000000000060648201526084015b60405180910390fd5b61033c828261086a565b5050565b600061034b8161083b565b61033c7ffc8737ab85eb45125971625a9ebdb75cc78e01d5c1fa80c4c6e5203f47bc4fab83610282565b6000819050600081600160a060020a031663c06dea4e6040518163ffffffff167c0100000000000000000000000000000000000000000000000000000000028152600401602060405180830381865afa1580156103d6573d6000803e3d6000fd5b505050506040513d601f19601f820116820180604052508101906103fa9190610fc4565b6040517fb81f6e1800000000000000000000000000000000000000000000000000000000815260048101869052336024820152909150600160a060020a0382169063b81f6e1890604401602060405180830381865afa158015610461573d6000803e3d6000fd5b505050506040513d601f19601f820116820180604052508101906104859190610fe1565b6104d45760405160e560020a62461bcd02815260206004820152601560248201527f706c61796572206e6f74207265676973746572656400000000000000000000006044820152606401610329565b6000855167ffffffffffffffff8111156104f0576104f0610dee565b604051908082528060200260200182016040528015610519578160200160208202803683370190505b50905060005b865181101561059a578015610544578060011461053d576004610547565b6002610547565b60015b82828151811061055957610559611003565b602002602001019060058111156105725761057261101c565b908160058111156105855761058561101c565b905250806105928161104e565b91505061051f565b506040517f31e019f6000000000000000000000000000000000000000000000000000000008152600160a060020a038516906331e019f6906105e690899033908a9087906004016110c1565b600060405180830381600087803b15801561060057600080fd5b505af1158015610614573d6000803e3d6000fd5b50505050505050505050565b6040517f9eb356cb0000000000000000000000000000000000000000000000000000000081526004810183905233602482015260448101849052600160a060020a03821690639eb356cb906064016020604051808303816000875af115801561068d573d6000803e3d6000fd5b505050506040513d601f19601f820116820180604052508101906106b19190610fe1565b50505050565b60008281526001602052604081206106cf908361088c565b9392505050565b600091825260208281526040808420600160a060020a0393909316845291905290205460ff1690565b600081815260016020526040812061027c90610898565b6000828152602081905260409020600101546107318161083b565b6102a7838361086a565b61074582826106d6565b61033c57600082815260208181526040808320600160a060020a03851684529091529020805460ff1916600117905561077b3390565b600160a060020a031681600160a060020a0316837f2f8788117e7eff1d82e926ec794901d17c78024a50270940304540a733656f0d60405160405180910390a45050565b60006106cf83600160a060020a0384166108a2565b6000600160e060020a031982167f7965db0b00000000000000000000000000000000000000000000000000000000148061027c57507f01ffc9a700000000000000000000000000000000000000000000000000000000600160e060020a031983161461027c565b61084581336108f1565b50565b610852828261073b565b60008281526001602052604090206102a790826107bf565b6108748282610958565b60008281526001602052604090206102a790826109bd565b60006106cf83836109d2565b600061027c825490565b60008181526001830160205260408120546108e95750815460018181018455600084815260208082209093018490558454848252828601909352604090209190915561027c565b50600061027c565b6108fb82826106d6565b61033c5761091381600160a060020a031660146109fc565b61091e8360206109fc565b60405160200161092f929190611194565b60408051601f198184030181529082905260e560020a62461bcd02825261032991600401611215565b61096282826106d6565b1561033c57600082815260208181526040808320600160a060020a0385168085529252808320805460ff1916905551339285917ff6391f5c32d9c69d2a47ea670b442974b53935d1edc7fd64eb21e047a839171b9190a45050565b60006106cf83600160a060020a038416610c46565b60008260000182815481106109e9576109e9611003565b9060005260206000200154905092915050565b60606000610a0b836002611228565b610a16906002611247565b67ffffffffffffffff811115610a2e57610a2e610dee565b6040519080825280601f01601f191660200182016040528015610a58576020820181803683370190505b5090507f300000000000000000000000000000000000000000000000000000000000000081600081518110610a8f57610a8f611003565b60200101907effffffffffffffffffffffffffffffffffffffffffffffffffffffffffffff1916908160001a9053507f780000000000000000000000000000000000000000000000000000000000000081600181518110610af257610af2611003565b60200101907effffffffffffffffffffffffffffffffffffffffffffffffffffffffffffff1916908160001a9053506000610b2e846002611228565b610b39906001611247565b90505b6001811115610bf4577f303132333435363738396162636465660000000000000000000000000000000085600f1660108110610b7a57610b7a611003565b1a7f010000000000000000000000000000000000000000000000000000000000000002828281518110610baf57610baf611003565b60200101907effffffffffffffffffffffffffffffffffffffffffffffffffffffffffffff1916908160001a905350601090940493610bed8161125f565b9050610b3c565b5083156106cf5760405160e560020a62461bcd02815260206004820181905260248201527f537472696e67733a20686578206c656e67746820696e73756666696369656e746044820152606401610329565b60008181526001830160205260408120548015610d2f576000610c6a600183611276565b8554909150600090610c7e90600190611276565b9050818114610ce3576000866000018281548110610c9e57610c9e611003565b9060005260206000200154905080876000018481548110610cc157610cc1611003565b6000918252602080832090910192909255918252600188019052604090208390555b8554869080610cf457610cf461128d565b60019003818190600052602060002001600090559055856001016000868152602001908152602001600020600090556001935050505061027c565b600091505061027c565b600060208284031215610d4b57600080fd5b8135600160e060020a0319811681146106cf57600080fd5b600060208284031215610d7557600080fd5b5035919050565b600160a060020a038116811461084557600080fd5b8035610d9c81610d7c565b919050565b60008060408385031215610db457600080fd5b823591506020830135610dc681610d7c565b809150509250929050565b600060208284031215610de357600080fd5b81356106cf81610d7c565b60e060020a634e487b7102600052604160045260246000fd5b604051601f8201601f1916810167ffffffffffffffff81118282101715610e3057610e30610dee565b604052919050565b600080600060608486031215610e4d57600080fd5b833567ffffffffffffffff80821115610e6557600080fd5b818601915086601f830112610e7957600080fd5b8135602082821115610e8d57610e8d610dee565b808202610e9b828201610e07565b928352848101820192828101908b851115610eb557600080fd5b83870192505b84831015610f4657823586811115610ed35760008081fd5b8701603f81018d13610ee55760008081fd5b84810135604088821115610efb57610efb610dee565b610f0d601f8301601f19168801610e07565b8281528f82848601011115610f225760008081fd5b82828501898301376000928101880192909252508352509183019190830190610ebb565b985050508701359450610f60925050604086019050610d91565b90509250925092565b600080600060608486031215610f7e57600080fd5b83359250602084013591506040840135610f9781610d7c565b809150509250925092565b60008060408385031215610fb557600080fd5b50508035926020909101359150565b600060208284031215610fd657600080fd5b81516106cf81610d7c565b600060208284031215610ff357600080fd5b815180151581146106cf57600080fd5b60e060020a634e487b7102600052603260045260246000fd5b60e060020a634e487b7102600052602160045260246000fd5b60e060020a634e487b7102600052601160045260246000fd5b600060001982141561106257611062611035565b5060010190565b60005b8381101561108457818101518382015260200161106c565b838111156106b15750506000910152565b600081518084526110ad816020860160208601611069565b601f01601f19169290920160200192915050565b6000608082016080835280875180835260a0850191506020925060a0838202860101838a0160005b8381101561111757609f19888403018552611105838351611095565b948601949250908501906001016110e9565b5050600160a060020a0389168685015260408601889052858103606087015286518082529084019250905085830160005b82811015611185578151600681106111735760e060020a634e487b7102600052602160045260246000fd5b84529284019290840190600101611148565b50919998505050505050505050565b7f416363657373436f6e74726f6c3a206163636f756e74200000000000000000008152600083516111cc816017850160208801611069565b7f206973206d697373696e6720726f6c65200000000000000000000000000000006017918401918201528351611209816028840160208801611069565b01602801949350505050565b6020815260006106cf6020830184611095565b600081600019048311821515161561124257611242611035565b500290565b6000821982111561125a5761125a611035565b500190565b60008161126e5761126e611035565b506000190190565b60008282101561128857611288611035565b500390565b60e060020a634e487b7102600052603160045260246000fdfea26469706673582212204c11591ccdef715409cb7759a7921f0e8acbfc4941b3f6cccd0305bcf9961f7164736f6c634300080b0033",
  "immutableReferences": {},
  "source": "// SPDX-License-Identifier: GPL-3.0\npragma solidity >=0.7.0 <0.9.0;\n\nimport \"@luckymachines/game-core/contracts/src/v0.0/GameController.sol\";\nimport \"./HexplorationBoard.sol\";\nimport \"./HexplorationZone.sol\";\n\ncontract HexplorationController is GameController {\n    // functions are meant to be called directly by players by default\n    // we are adding the ability of a Controller Admin or Keeper to\n    // execute the game aspects not directly controlled by players\n    bytes32 public constant KEEPER_ROLE = keccak256(\"KEEPER_ROLE\");\n\n    // TODO:\n    // Connect to Chainlink VRF for random seeds when needed\n    // submit move + space choice\n    // use / swap item\n\n    modifier onlyAdminKeeper() {\n        require(\n            hasRole(DEFAULT_ADMIN_ROLE, _msgSender()) ||\n                hasRole(KEEPER_ROLE, _msgSender()),\n            \"Admin or Keeper role required\"\n        );\n        _;\n    }\n\n    constructor(address adminAddress) GameController(adminAddress) {}\n\n    function addKeeper(address keeperAddress)\n        public\n        onlyRole(DEFAULT_ADMIN_ROLE)\n    {\n        grantRole(KEEPER_ROLE, keeperAddress);\n    }\n\n    //Player Interactions\n    function moveThroughPath(\n        string[] memory zonePath,\n        uint256 gameID,\n        address boardAddress\n    ) public {\n        // TODO:\n        // verify move is valid\n        // pick tiles from deck\n        HexplorationBoard board = HexplorationBoard(boardAddress);\n        PlayerRegistry pr = PlayerRegistry(board.prAddress());\n        require(pr.isRegistered(gameID, msg.sender), \"player not registered\");\n\n        HexplorationZone.Tile[] memory tiles = new HexplorationZone.Tile[](\n            zonePath.length\n        );\n        for (uint256 i = 0; i < zonePath.length; i++) {\n            tiles[i] = i == 0 ? HexplorationZone.Tile.Jungle : i == 1\n                ? HexplorationZone.Tile.Plains\n                : HexplorationZone.Tile.Mountain;\n        }\n\n        HexplorationBoard(boardAddress).moveThroughPath(\n            zonePath,\n            msg.sender,\n            gameID,\n            tiles\n        );\n    }\n}\n",
  "sourcePath": "/Users/maxmeier/Developer/Lucky Machines/hexploration/contracts/HexplorationController.sol",
  "compiler": {
    "name": "solc",
    "version": "0.8.11+commit.d7f03943.Emscripten.clang"
  },
  "schemaVersion": "3.4.4",
  "updatedAt": "2022-05-13T05:16:03.157Z",
  "devdoc": {
    "kind": "dev",
    "methods": {
      "getRoleAdmin(bytes32)": {
        "details": "Returns the admin role that controls `role`. See {grantRole} and {revokeRole}. To change a role's admin, use {_setRoleAdmin}."
      },
      "getRoleMember(bytes32,uint256)": {
        "details": "Returns one of the accounts that have `role`. `index` must be a value between 0 and {getRoleMemberCount}, non-inclusive. Role bearers are not sorted in any particular way, and their ordering may change at any point. WARNING: When using {getRoleMember} and {getRoleMemberCount}, make sure you perform all queries on the same block. See the following https://forum.openzeppelin.com/t/iterating-over-elements-on-enumerableset-in-openzeppelin-contracts/2296[forum post] for more information."
      },
      "getRoleMemberCount(bytes32)": {
        "details": "Returns the number of accounts that have `role`. Can be used together with {getRoleMember} to enumerate all bearers of a role."
      },
      "grantRole(bytes32,address)": {
        "details": "Grants `role` to `account`. If `account` had not been already granted `role`, emits a {RoleGranted} event. Requirements: - the caller must have ``role``'s admin role."
      },
      "hasRole(bytes32,address)": {
        "details": "Returns `true` if `account` has been granted `role`."
      },
      "renounceRole(bytes32,address)": {
        "details": "Revokes `role` from the calling account. Roles are often managed via {grantRole} and {revokeRole}: this function's purpose is to provide a mechanism for accounts to lose their privileges if they are compromised (such as when a trusted device is misplaced). If the calling account had been revoked `role`, emits a {RoleRevoked} event. Requirements: - the caller must be `account`."
      },
      "revokeRole(bytes32,address)": {
        "details": "Revokes `role` from `account`. If `account` had been granted `role`, emits a {RoleRevoked} event. Requirements: - the caller must have ``role``'s admin role."
      },
      "supportsInterface(bytes4)": {
        "details": "See {IERC165-supportsInterface}."
      }
    },
    "version": 1
  },
  "userdoc": {
    "kind": "user",
    "methods": {},
    "version": 1
  }
}