{
  "contractName": "HexplorationController",
  "abi": [
    {
      "inputs": [
        {
          "internalType": "address",
          "name": "adminAddress",
          "type": "address"
        }
      ],
      "stateMutability": "nonpayable",
      "type": "constructor"
    },
    {
      "anonymous": false,
      "inputs": [
        {
          "indexed": true,
          "internalType": "bytes32",
          "name": "role",
          "type": "bytes32"
        },
        {
          "indexed": true,
          "internalType": "bytes32",
          "name": "previousAdminRole",
          "type": "bytes32"
        },
        {
          "indexed": true,
          "internalType": "bytes32",
          "name": "newAdminRole",
          "type": "bytes32"
        }
      ],
      "name": "RoleAdminChanged",
      "type": "event"
    },
    {
      "anonymous": false,
      "inputs": [
        {
          "indexed": true,
          "internalType": "bytes32",
          "name": "role",
          "type": "bytes32"
        },
        {
          "indexed": true,
          "internalType": "address",
          "name": "account",
          "type": "address"
        },
        {
          "indexed": true,
          "internalType": "address",
          "name": "sender",
          "type": "address"
        }
      ],
      "name": "RoleGranted",
      "type": "event"
    },
    {
      "anonymous": false,
      "inputs": [
        {
          "indexed": true,
          "internalType": "bytes32",
          "name": "role",
          "type": "bytes32"
        },
        {
          "indexed": true,
          "internalType": "address",
          "name": "account",
          "type": "address"
        },
        {
          "indexed": true,
          "internalType": "address",
          "name": "sender",
          "type": "address"
        }
      ],
      "name": "RoleRevoked",
      "type": "event"
    },
    {
      "inputs": [],
      "name": "DEFAULT_ADMIN_ROLE",
      "outputs": [
        {
          "internalType": "bytes32",
          "name": "",
          "type": "bytes32"
        }
      ],
      "stateMutability": "view",
      "type": "function"
    },
    {
      "inputs": [],
      "name": "KEEPER_ROLE",
      "outputs": [
        {
          "internalType": "bytes32",
          "name": "",
          "type": "bytes32"
        }
      ],
      "stateMutability": "view",
      "type": "function"
    },
    {
      "inputs": [
        {
          "internalType": "uint256",
          "name": "pathIndex",
          "type": "uint256"
        },
        {
          "internalType": "uint256",
          "name": "gameID",
          "type": "uint256"
        },
        {
          "internalType": "address",
          "name": "gameBoardAddress",
          "type": "address"
        }
      ],
      "name": "exitToPath",
      "outputs": [],
      "stateMutability": "nonpayable",
      "type": "function"
    },
    {
      "inputs": [
        {
          "internalType": "bytes32",
          "name": "role",
          "type": "bytes32"
        }
      ],
      "name": "getRoleAdmin",
      "outputs": [
        {
          "internalType": "bytes32",
          "name": "",
          "type": "bytes32"
        }
      ],
      "stateMutability": "view",
      "type": "function"
    },
    {
      "inputs": [
        {
          "internalType": "bytes32",
          "name": "role",
          "type": "bytes32"
        },
        {
          "internalType": "uint256",
          "name": "index",
          "type": "uint256"
        }
      ],
      "name": "getRoleMember",
      "outputs": [
        {
          "internalType": "address",
          "name": "",
          "type": "address"
        }
      ],
      "stateMutability": "view",
      "type": "function"
    },
    {
      "inputs": [
        {
          "internalType": "bytes32",
          "name": "role",
          "type": "bytes32"
        }
      ],
      "name": "getRoleMemberCount",
      "outputs": [
        {
          "internalType": "uint256",
          "name": "",
          "type": "uint256"
        }
      ],
      "stateMutability": "view",
      "type": "function"
    },
    {
      "inputs": [
        {
          "internalType": "bytes32",
          "name": "role",
          "type": "bytes32"
        },
        {
          "internalType": "address",
          "name": "account",
          "type": "address"
        }
      ],
      "name": "grantRole",
      "outputs": [],
      "stateMutability": "nonpayable",
      "type": "function"
    },
    {
      "inputs": [
        {
          "internalType": "bytes32",
          "name": "role",
          "type": "bytes32"
        },
        {
          "internalType": "address",
          "name": "account",
          "type": "address"
        }
      ],
      "name": "hasRole",
      "outputs": [
        {
          "internalType": "bool",
          "name": "",
          "type": "bool"
        }
      ],
      "stateMutability": "view",
      "type": "function"
    },
    {
      "inputs": [
        {
          "internalType": "bytes32",
          "name": "role",
          "type": "bytes32"
        },
        {
          "internalType": "address",
          "name": "account",
          "type": "address"
        }
      ],
      "name": "renounceRole",
      "outputs": [],
      "stateMutability": "nonpayable",
      "type": "function"
    },
    {
      "inputs": [
        {
          "internalType": "bytes32",
          "name": "role",
          "type": "bytes32"
        },
        {
          "internalType": "address",
          "name": "account",
          "type": "address"
        }
      ],
      "name": "revokeRole",
      "outputs": [],
      "stateMutability": "nonpayable",
      "type": "function"
    },
    {
      "inputs": [
        {
          "internalType": "bytes4",
          "name": "interfaceId",
          "type": "bytes4"
        }
      ],
      "name": "supportsInterface",
      "outputs": [
        {
          "internalType": "bool",
          "name": "",
          "type": "bool"
        }
      ],
      "stateMutability": "view",
      "type": "function"
    },
    {
      "inputs": [
        {
          "internalType": "address",
          "name": "keeperAddress",
          "type": "address"
        }
      ],
      "name": "addKeeper",
      "outputs": [],
      "stateMutability": "nonpayable",
      "type": "function"
    },
    {
      "inputs": [
        {
          "internalType": "address",
          "name": "boardAddress",
          "type": "address"
        }
      ],
      "name": "runBoardUpdate",
      "outputs": [],
      "stateMutability": "nonpayable",
      "type": "function"
    },
    {
      "inputs": [
        {
          "internalType": "uint256",
          "name": "gameID",
          "type": "uint256"
        },
        {
          "internalType": "address",
          "name": "boardAddress",
          "type": "address"
        }
      ],
      "name": "startGame",
      "outputs": [],
      "stateMutability": "nonpayable",
      "type": "function"
    },
    {
      "inputs": [
        {
          "internalType": "uint256",
          "name": "gameID",
          "type": "uint256"
        },
        {
          "internalType": "address",
          "name": "boardAddress",
          "type": "address"
        }
      ],
      "name": "registerForGame",
      "outputs": [],
      "stateMutability": "nonpayable",
      "type": "function"
    },
    {
      "inputs": [
        {
          "internalType": "string[]",
          "name": "zonePath",
          "type": "string[]"
        },
        {
          "internalType": "uint256",
          "name": "gameID",
          "type": "uint256"
        },
        {
          "internalType": "address",
          "name": "boardAddress",
          "type": "address"
        }
      ],
      "name": "moveThroughPath",
      "outputs": [],
      "stateMutability": "nonpayable",
      "type": "function"
    },
    {
      "inputs": [
        {
          "internalType": "string",
          "name": "zoneChoice",
          "type": "string"
        },
        {
          "internalType": "uint256",
          "name": "gameID",
          "type": "uint256"
        },
        {
          "internalType": "address",
          "name": "boardAddress",
          "type": "address"
        }
      ],
      "name": "chooseLandingSite",
      "outputs": [],
      "stateMutability": "nonpayable",
      "type": "function"
    },
    {
      "inputs": [
        {
          "internalType": "address",
          "name": "gameRegistryAddress",
          "type": "address"
        },
        {
          "internalType": "address",
          "name": "boardAddress",
          "type": "address"
        }
      ],
      "name": "requestNewGame",
      "outputs": [],
      "stateMutability": "nonpayable",
      "type": "function"
    },
    {
      "inputs": [
        {
          "internalType": "address",
          "name": "gameRegistryAddress",
          "type": "address"
        },
        {
          "internalType": "address",
          "name": "boardAddress",
          "type": "address"
        }
      ],
      "name": "latestGame",
      "outputs": [
        {
          "internalType": "uint256",
          "name": "",
          "type": "uint256"
        }
      ],
      "stateMutability": "view",
      "type": "function"
    }
  ],
  "bytecode": "0x60806040523480156200001157600080fd5b50604051620058e6380380620058e6833981016040819052620000349162000215565b806200004b60008264010000000062000053810204565b505062000247565b6200006882826401000000006200006c810204565b5050565b6200008682826401000000006200483b620000b382021704565b6000828152600160205260409020620000ae9082640100000000620048bf6200014f82021704565b505050565b620000c8828264010000000062000178810204565b6200006857600082815260208181526040808320600160a060020a03851684529091529020805460ff191660011790556200010b640100000000620001a1810204565b600160a060020a031681600160a060020a0316837f2f8788117e7eff1d82e926ec794901d17c78024a50270940304540a733656f0d60405160405180910390a45050565b60006200016f83600160a060020a038416640100000000620001a5810204565b90505b92915050565b600091825260208281526040808420600160a060020a0393909316845291905290205460ff1690565b3390565b6000620001bc8383640100000000620001fd810204565b620001f45750815460018181018455600084815260208082209093018490558454848252828601909352604090209190915562000172565b50600062000172565b60009081526001919091016020526040902054151590565b6000602082840312156200022857600080fd5b8151600160a060020a03811681146200024057600080fd5b9392505050565b61568f80620002576000396000f3fe608060405234801561001057600080fd5b50600436106101255760003560e060020a90048063661e0566116100b1578063a217fddf11610075578063a217fddf14610295578063c3ef70131461029d578063ca15c873146102b0578063d547741f146102c3578063f3297df9146102d657600080fd5b8063661e05661461021e5780637479c8fe146102315780639010d07c1461024457806391d148541461026f578063975eef261461028257600080fd5b8063364bc15a116100f8578063364bc15a146101ab57806336568abe146101d25780634032b72b146101e55780634bde808c146101f8578063621cc08d1461020b57600080fd5b806301ffc9a71461012a578063248a9ca31461015257806329a461d6146101835780632f2ff15d14610198575b600080fd5b61013d610138366004614e39565b6102e9565b60405190151581526020015b60405180910390f35b610175610160366004614e63565b60009081526020819052604090206001015490565b604051908152602001610149565b610196610191366004614ea1565b61032d565b005b6101966101a6366004614ea1565b6104a7565b6101757ffc8737ab85eb45125971625a9ebdb75cc78e01d5c1fa80c4c6e5203f47bc4fab81565b6101966101e0366004614ea1565b6104d1565b6101966101f3366004614ed1565b610565565b610196610206366004614fb6565b61059a565b610196610219366004614ea1565b61082c565b61019661022c366004615092565b6143b4565b61019661023f3660046150c0565b6143fe565b6102576102523660046150f9565b614495565b604051600160a060020a039091168152602001610149565b61013d61027d366004614ea1565b6144b4565b610175610290366004615092565b6144dd565b610175600081565b6101966102ab366004614ed1565b614564565b6101756102be366004614e63565b6145bd565b6101966102d1366004614ea1565b6145d4565b6101966102e436600461511b565b6145f9565b6000600160e060020a031982167f5a05180f0000000000000000000000000000000000000000000000000000000014806103275750610327826148d4565b92915050565b6040517f9aabe36d000000000000000000000000000000000000000000000000000000008152336004820152602481018390528190600160a060020a03821690639aabe36d90604401600060405180830381600087803b15801561039057600080fd5b505af11580156103a4573d6000803e3d6000fd5b5050505080600160a060020a031663a0ed600d6040518163ffffffff1660e060020a028152600401602060405180830381865afa1580156103e9573d6000803e3d6000fd5b505050506040513d601f19601f8201168201806040525081019061040d919061516b565b6040805160608101825260048082526020820181905281830181905291517ff5386d70000000000000000000000000000000000000000000000000000000008152600160a060020a03939093169263f5386d709261047092918891339101615188565b600060405180830381600087803b15801561048a57600080fd5b505af115801561049e573d6000803e3d6000fd5b50505050505050565b6000828152602081905260409020600101546104c28161493b565b6104cc8383614948565b505050565b600160a060020a03811633146105575760405160e560020a62461bcd02815260206004820152602f60248201527f416363657373436f6e74726f6c3a2063616e206f6e6c792072656e6f756e636560448201527f20726f6c657320666f722073656c66000000000000000000000000000000000060648201526084015b60405180910390fd5b610561828261496a565b5050565b60006105708161493b565b6105617ffc8737ab85eb45125971625a9ebdb75cc78e01d5c1fa80c4c6e5203f47bc4fab836104a7565b6000819050600081600160a060020a031663c06dea4e6040518163ffffffff1660e060020a028152600401602060405180830381865afa1580156105e2573d6000803e3d6000fd5b505050506040513d601f19601f82011682018060405250810190610606919061516b565b6040517fb81f6e1800000000000000000000000000000000000000000000000000000000815260048101869052336024820152909150600160a060020a0382169063b81f6e1890604401602060405180830381865afa15801561066d573d6000803e3d6000fd5b505050506040513d601f19601f8201168201806040525081019061069191906151d3565b6106e05760405160e560020a62461bcd02815260206004820152601560248201527f706c61796572206e6f7420726567697374657265640000000000000000000000604482015260640161054e565b6000855167ffffffffffffffff8111156106fc576106fc614eee565b604051908082528060200260200182016040528015610725578160200160208202803683370190505b50905060005b86518110156107a65780156107505780600114610749576004610753565b6002610753565b60015b828281518110610765576107656151f5565b6020026020010190600b81111561077e5761077e61520e565b9081600b8111156107915761079161520e565b9052508061079e81615240565b91505061072b565b506040517f31e019f6000000000000000000000000000000000000000000000000000000008152600160a060020a038516906331e019f6906107f290899033908a9087906004016152d8565b600060405180830381600087803b15801561080c57600080fd5b505af1158015610820573d6000803e3d6000fd5b50505050505050505050565b6040517f4e0e1a3e000000000000000000000000000000000000000000000000000000008152600481018390528190600160a060020a03821690634e0e1a3e90602401602060405180830381865afa15801561088c573d6000803e3d6000fd5b505050506040513d601f19601f820116820180604052508101906108b09190615391565b156109005760405160e560020a62461bcd02815260206004820152601460248201527f67616d6520616c72656164792073746172746564000000000000000000000000604482015260640161054e565b600081600160a060020a031663c06dea4e6040518163ffffffff1660e060020a028152600401602060405180830381865afa158015610943573d6000803e3d6000fd5b505050506040513d601f19601f82011682018060405250810190610967919061516b565b6040517f60c2050000000000000000000000000000000000000000000000000000000000815260048101869052909150600160a060020a038316906360c2050090602401600060405180830381600087803b1580156109c557600080fd5b505af11580156109d9573d6000803e3d6000fd5b50506040517fb77ff4110000000000000000000000000000000000000000000000000000000081526004810187905260009250600160a060020a038416915063b77ff41190602401602060405180830381865afa158015610a3e573d6000803e3d6000fd5b505050506040513d601f19601f82011682018060405250810190610a629190615391565b6040517feb33983d00000000000000000000000000000000000000000000000000000000815260048101879052909150600090600160a060020a0385169063eb33983d90602401600060405180830381865afa158015610ac6573d6000803e3d6000fd5b505050506040513d6000823e601f3d908101601f19168201604052610aee91908101906153aa565b905060005b82811015610c0d576000600160a060020a03851663f504325489610b18856001615421565b60405160e060020a63ffffffff851602815260048101929092526024820152604401602060405180830381865afa158015610b57573d6000803e3d6000fd5b505050506040513d601f19601f82011682018060405250810190610b7b919061516b565b6040517f98bd7572000000000000000000000000000000000000000000000000000000008152909150600160a060020a038716906398bd757290610bc79084908c908890600401615439565b600060405180830381600087803b158015610be157600080fd5b505af1158015610bf5573d6000803e3d6000fd5b50505050508080610c0590615240565b915050610af3565b506040517f76a321c10000000000000000000000000000000000000000000000000000000081526002600482015260248101879052600160a060020a038516906376a321c190604401600060405180830381600087803b158015610c7057600080fd5b505af1158015610c84573d6000803e3d6000fd5b50505050600084600160a060020a031663cca369966040518163ffffffff1660e060020a028152600401602060405180830381865afa158015610ccb573d6000803e3d6000fd5b505050506040513d601f19601f82011682018060405250810190610cef919061516b565b905080600160a060020a031663a906dfd16040518163ffffffff1660e060020a028152600401602060405180830381865afa158015610d32573d6000803e3d6000fd5b505050506040513d601f19601f82011682018060405250810190610d56919061516b565b600160a060020a0316631c635ded8860016040518363ffffffff1660e060020a028152600401610d87929190615461565b600060405180830381600087803b158015610da157600080fd5b505af1158015610db5573d6000803e3d6000fd5b5050505080600160a060020a031663a906dfd16040518163ffffffff1660e060020a028152600401602060405180830381865afa158015610dfa573d6000803e3d6000fd5b505050506040513d601f19601f82011682018060405250810190610e1e919061516b565b60405160e060020a631c635ded02815260606004820152600560648201527f4e6967687400000000000000000000000000000000000000000000000000000060848201526024810189905260016044820152600160a060020a039190911690631c635ded9060a401600060405180830381600087803b158015610ea057600080fd5b505af1158015610eb4573d6000803e3d6000fd5b5050505080600160a060020a0316632ee0804a6040518163ffffffff1660e060020a028152600401602060405180830381865afa158015610ef9573d6000803e3d6000fd5b505050506040513d601f19601f82011682018060405250810190610f1d919061516b565b60405160e060020a631c635ded02815260606004820152600a60648201527f45617274687175616b65000000000000000000000000000000000000000000006084820152602481018990526103e86044820152600160a060020a039190911690631c635ded9060a401600060405180830381600087803b158015610fa057600080fd5b505af1158015610fb4573d6000803e3d6000fd5b5050505080600160a060020a0316632ee0804a6040518163ffffffff1660e060020a028152600401602060405180830381865afa158015610ff9573d6000803e3d6000fd5b505050506040513d601f19601f8201168201806040525081019061101d919061516b565b60405160e060020a631c635ded02815260606004820152600760648201527f566f6c63616e6f000000000000000000000000000000000000000000000000006084820152602481018990526103e86044820152600160a060020a039190911690631c635ded9060a401600060405180830381600087803b1580156110a057600080fd5b505af11580156110b4573d6000803e3d6000fd5b5050505080600160a060020a0316632b2145336040518163ffffffff1660e060020a028152600401602060405180830381865afa1580156110f9573d6000803e3d6000fd5b505050506040513d601f19601f8201168201806040525081019061111d919061516b565b60405160e060020a631c635ded02815260606004820152600660648201527f50697261746500000000000000000000000000000000000000000000000000006084820152602481018990526103e86044820152600160a060020a039190911690631c635ded9060a401600060405180830381600087803b1580156111a057600080fd5b505af11580156111b4573d6000803e3d6000fd5b5050505080600160a060020a0316632b2145336040518163ffffffff1660e060020a028152600401602060405180830381865afa1580156111f9573d6000803e3d6000fd5b505050506040513d601f19601f8201168201806040525081019061121d919061516b565b60405160e060020a631c635ded02815260606004820152600b60648201527f50697261746520536869700000000000000000000000000000000000000000006084820152602481018990526103e86044820152600160a060020a039190911690631c635ded9060a401600060405180830381600087803b1580156112a057600080fd5b505af11580156112b4573d6000803e3d6000fd5b5050505080600160a060020a0316632b2145336040518163ffffffff1660e060020a028152600401602060405180830381865afa1580156112f9573d6000803e3d6000fd5b505050506040513d601f19601f8201168201806040525081019061131d919061516b565b60405160e060020a631c635ded02815260606004820152600860648201527f4465617468626f740000000000000000000000000000000000000000000000006084820152602481018990526103e86044820152600160a060020a039190911690631c635ded9060a401600060405180830381600087803b1580156113a057600080fd5b505af11580156113b4573d6000803e3d6000fd5b5050505080600160a060020a0316632b2145336040518163ffffffff1660e060020a028152600401602060405180830381865afa1580156113f9573d6000803e3d6000fd5b505050506040513d601f19601f8201168201806040525081019061141d919061516b565b60405160e060020a631c635ded02815260606004820152600860648201527f477561726469616e0000000000000000000000000000000000000000000000006084820152602481018990526103e86044820152600160a060020a039190911690631c635ded9060a401600060405180830381600087803b1580156114a057600080fd5b505af11580156114b4573d6000803e3d6000fd5b5050505080600160a060020a0316632b2145336040518163ffffffff1660e060020a028152600401602060405180830381865afa1580156114f9573d6000803e3d6000fd5b505050506040513d601f19601f8201168201806040525081019061151d919061516b565b60405160e060020a631c635ded02815260606004820152600860648201527f53616e64776f726d0000000000000000000000000000000000000000000000006084820152602481018990526103e86044820152600160a060020a039190911690631c635ded9060a401600060405180830381600087803b1580156115a057600080fd5b505af11580156115b4573d6000803e3d6000fd5b5050505080600160a060020a0316632b2145336040518163ffffffff1660e060020a028152600401602060405180830381865afa1580156115f9573d6000803e3d6000fd5b505050506040513d601f19601f8201168201806040525081019061161d919061516b565b60405160e060020a631c635ded02815260606004820152600660648201527f447261676f6e00000000000000000000000000000000000000000000000000006084820152602481018990526103e86044820152600160a060020a039190911690631c635ded9060a401600060405180830381600087803b1580156116a057600080fd5b505af11580156116b4573d6000803e3d6000fd5b5050505080600160a060020a031663a318d45c6040518163ffffffff1660e060020a028152600401602060405180830381865afa1580156116f9573d6000803e3d6000fd5b505050506040513d601f19601f8201168201806040525081019061171d919061516b565b60405160e060020a631c635ded02815260606004820152600a60648201527f536d616c6c20416d6d6f000000000000000000000000000000000000000000006084820152602481018990526103e86044820152600160a060020a039190911690631c635ded9060a401600060405180830381600087803b1580156117a057600080fd5b505af11580156117b4573d6000803e3d6000fd5b5050505080600160a060020a031663a318d45c6040518163ffffffff1660e060020a028152600401602060405180830381865afa1580156117f9573d6000803e3d6000fd5b505050506040513d601f19601f8201168201806040525081019061181d919061516b565b60405160e060020a631c635ded02815260606004820152600a60648201527f4c6172676520416d6d6f000000000000000000000000000000000000000000006084820152602481018990526103e86044820152600160a060020a039190911690631c635ded9060a401600060405180830381600087803b1580156118a057600080fd5b505af11580156118b4573d6000803e3d6000fd5b5050505080600160a060020a031663a318d45c6040518163ffffffff1660e060020a028152600401602060405180830381865afa1580156118f9573d6000803e3d6000fd5b505050506040513d601f19601f8201168201806040525081019061191d919061516b565b60405160e060020a631c635ded02815260606004820152600960648201527f42617474657269657300000000000000000000000000000000000000000000006084820152602481018990526103e86044820152600160a060020a039190911690631c635ded9060a401600060405180830381600087803b1580156119a057600080fd5b505af11580156119b4573d6000803e3d6000fd5b5050505080600160a060020a031663a318d45c6040518163ffffffff1660e060020a028152600401602060405180830381865afa1580156119f9573d6000803e3d6000fd5b505050506040513d601f19601f82011682018060405250810190611a1d919061516b565b60405160e060020a631c635ded02815260606004820152600660648201527f536869656c6400000000000000000000000000000000000000000000000000006084820152602481018990526103e86044820152600160a060020a039190911690631c635ded9060a401600060405180830381600087803b158015611aa057600080fd5b505af1158015611ab4573d6000803e3d6000fd5b5050505080600160a060020a031663a318d45c6040518163ffffffff1660e060020a028152600401602060405180830381865afa158015611af9573d6000803e3d6000fd5b505050506040513d601f19601f82011682018060405250810190611b1d919061516b565b60405160e060020a631c635ded02815260606004820152600660648201527f506f7274616c00000000000000000000000000000000000000000000000000006084820152602481018990526103e86044820152600160a060020a039190911690631c635ded9060a401600060405180830381600087803b158015611ba057600080fd5b505af1158015611bb4573d6000803e3d6000fd5b5050505080600160a060020a031663a318d45c6040518163ffffffff1660e060020a028152600401602060405180830381865afa158015611bf9573d6000803e3d6000fd5b505050506040513d601f19601f82011682018060405250810190611c1d919061516b565b60405160e060020a631c635ded02815260606004820152600260648201527f4f6e0000000000000000000000000000000000000000000000000000000000006084820152602481018990526103e86044820152600160a060020a039190911690631c635ded9060a401600060405180830381600087803b158015611ca057600080fd5b505af1158015611cb4573d6000803e3d6000fd5b5050505080600160a060020a031663a318d45c6040518163ffffffff1660e060020a028152600401602060405180830381865afa158015611cf9573d6000803e3d6000fd5b505050506040513d601f19601f82011682018060405250810190611d1d919061516b565b60405160e060020a631c635ded02815260606004820152600360648201527f4f666600000000000000000000000000000000000000000000000000000000006084820152602481018990526103e86044820152600160a060020a039190911690631c635ded9060a401600060405180830381600087803b158015611da057600080fd5b505af1158015611db4573d6000803e3d6000fd5b5050505080600160a060020a031663a318d45c6040518163ffffffff1660e060020a028152600401602060405180830381865afa158015611df9573d6000803e3d6000fd5b505050506040513d601f19601f82011682018060405250810190611e1d919061516b565b60405160e060020a631c635ded02815260606004820152600c60648201527f52757374792044616767657200000000000000000000000000000000000000006084820152602481018990526103e86044820152600160a060020a039190911690631c635ded9060a401600060405180830381600087803b158015611ea057600080fd5b505af1158015611eb4573d6000803e3d6000fd5b5050505080600160a060020a031663a318d45c6040518163ffffffff1660e060020a028152600401602060405180830381865afa158015611ef9573d6000803e3d6000fd5b505050506040513d601f19601f82011682018060405250810190611f1d919061516b565b60405160e060020a631c635ded02815260606004820152600b60648201527f52757374792053776f72640000000000000000000000000000000000000000006084820152602481018990526103e86044820152600160a060020a039190911690631c635ded9060a401600060405180830381600087803b158015611fa057600080fd5b505af1158015611fb4573d6000803e3d6000fd5b5050505080600160a060020a031663a318d45c6040518163ffffffff1660e060020a028152600401602060405180830381865afa158015611ff9573d6000803e3d6000fd5b505050506040513d601f19601f8201168201806040525081019061201d919061516b565b60405160e060020a631c635ded02815260606004820152600c60648201527f527573747920506973746f6c00000000000000000000000000000000000000006084820152602481018990526103e86044820152600160a060020a039190911690631c635ded9060a401600060405180830381600087803b1580156120a057600080fd5b505af11580156120b4573d6000803e3d6000fd5b5050505080600160a060020a031663a318d45c6040518163ffffffff1660e060020a028152600401602060405180830381865afa1580156120f9573d6000803e3d6000fd5b505050506040513d601f19601f8201168201806040525081019061211d919061516b565b60405160e060020a631c635ded02815260606004820152600b60648201527f5275737479205269666c650000000000000000000000000000000000000000006084820152602481018990526103e86044820152600160a060020a039190911690631c635ded9060a401600060405180830381600087803b1580156121a057600080fd5b505af11580156121b4573d6000803e3d6000fd5b5050505080600160a060020a031663a318d45c6040518163ffffffff1660e060020a028152600401602060405180830381865afa1580156121f9573d6000803e3d6000fd5b505050506040513d601f19601f8201168201806040525081019061221d919061516b565b60405160e060020a631c635ded02815260606004820152600c60648201527f5368696e792044616767657200000000000000000000000000000000000000006084820152602481018990526103e86044820152600160a060020a039190911690631c635ded9060a401600060405180830381600087803b1580156122a057600080fd5b505af11580156122b4573d6000803e3d6000fd5b5050505080600160a060020a031663a318d45c6040518163ffffffff1660e060020a028152600401602060405180830381865afa1580156122f9573d6000803e3d6000fd5b505050506040513d601f19601f8201168201806040525081019061231d919061516b565b60405160e060020a631c635ded02815260606004820152600b60648201527f5368696e792053776f72640000000000000000000000000000000000000000006084820152602481018990526103e86044820152600160a060020a039190911690631c635ded9060a401600060405180830381600087803b1580156123a057600080fd5b505af11580156123b4573d6000803e3d6000fd5b5050505080600160a060020a031663a318d45c6040518163ffffffff1660e060020a028152600401602060405180830381865afa1580156123f9573d6000803e3d6000fd5b505050506040513d601f19601f8201168201806040525081019061241d919061516b565b60405160e060020a631c635ded02815260606004820152600b60648201527f5368696e79205269666c650000000000000000000000000000000000000000006084820152602481018990526103e86044820152600160a060020a039190911690631c635ded9060a401600060405180830381600087803b1580156124a057600080fd5b505af11580156124b4573d6000803e3d6000fd5b5050505080600160a060020a031663a318d45c6040518163ffffffff1660e060020a028152600401602060405180830381865afa1580156124f9573d6000803e3d6000fd5b505050506040513d601f19601f8201168201806040525081019061251d919061516b565b60405160e060020a631c635ded02815260606004820152600c60648201527f4c617365722044616767657200000000000000000000000000000000000000006084820152602481018990526103e86044820152600160a060020a039190911690631c635ded9060a401600060405180830381600087803b1580156125a057600080fd5b505af11580156125b4573d6000803e3d6000fd5b5050505080600160a060020a031663a318d45c6040518163ffffffff1660e060020a028152600401602060405180830381865afa1580156125f9573d6000803e3d6000fd5b505050506040513d601f19601f8201168201806040525081019061261d919061516b565b60405160e060020a631c635ded02815260606004820152600b60648201527f4c617365722053776f72640000000000000000000000000000000000000000006084820152602481018990526103e86044820152600160a060020a039190911690631c635ded9060a401600060405180830381600087803b1580156126a057600080fd5b505af11580156126b4573d6000803e3d6000fd5b5050505080600160a060020a031663a318d45c6040518163ffffffff1660e060020a028152600401602060405180830381865afa1580156126f9573d6000803e3d6000fd5b505050506040513d601f19601f8201168201806040525081019061271d919061516b565b60405160e060020a631c635ded02815260606004820152600c60648201527f4c6173657220506973746f6c00000000000000000000000000000000000000006084820152602481018990526103e86044820152600160a060020a039190911690631c635ded9060a401600060405180830381600087803b1580156127a057600080fd5b505af11580156127b4573d6000803e3d6000fd5b5050505080600160a060020a031663a318d45c6040518163ffffffff1660e060020a028152600401602060405180830381865afa1580156127f9573d6000803e3d6000fd5b505050506040513d601f19601f8201168201806040525081019061281d919061516b565b60405160e060020a631c635ded02815260606004820152600b60648201527f4c61736572205269666c650000000000000000000000000000000000000000006084820152602481018990526103e86044820152600160a060020a039190911690631c635ded9060a401600060405180830381600087803b1580156128a057600080fd5b505af11580156128b4573d6000803e3d6000fd5b5050505080600160a060020a031663a318d45c6040518163ffffffff1660e060020a028152600401602060405180830381865afa1580156128f9573d6000803e3d6000fd5b505050506040513d601f19601f8201168201806040525081019061291d919061516b565b60405160e060020a631c635ded02815260606004820152600a60648201527f476c6f7720737469636b000000000000000000000000000000000000000000006084820152602481018990526103e86044820152600160a060020a039190911690631c635ded9060a401600060405180830381600087803b1580156129a057600080fd5b505af11580156129b4573d6000803e3d6000fd5b5050505080600160a060020a031663a318d45c6040518163ffffffff1660e060020a028152600401602060405180830381865afa1580156129f9573d6000803e3d6000fd5b505050506040513d601f19601f82011682018060405250810190612a1d919061516b565b60405160e060020a631c635ded02815260606004820152600a60648201527f466c6173686c69676874000000000000000000000000000000000000000000006084820152602481018990526103e86044820152600160a060020a039190911690631c635ded9060a401600060405180830381600087803b158015612aa057600080fd5b505af1158015612ab4573d6000803e3d6000fd5b5050505080600160a060020a031663a318d45c6040518163ffffffff1660e060020a028152600401602060405180830381865afa158015612af9573d6000803e3d6000fd5b505050506040513d601f19601f82011682018060405250810190612b1d919061516b565b60405160e060020a631c635ded02815260606004820152600b60648201527f466c6f6f64206c696768740000000000000000000000000000000000000000006084820152602481018990526103e86044820152600160a060020a039190911690631c635ded9060a401600060405180830381600087803b158015612ba057600080fd5b505af1158015612bb4573d6000803e3d6000fd5b5050505080600160a060020a031663a318d45c6040518163ffffffff1660e060020a028152600401602060405180830381865afa158015612bf9573d6000803e3d6000fd5b505050506040513d601f19601f82011682018060405250810190612c1d919061516b565b60405160e060020a631c635ded02815260606004820152601360648201527f4e69676874766973696f6e20476f67676c6573000000000000000000000000006084820152602481018990526103e86044820152600160a060020a039190911690631c635ded9060a401600060405180830381600087803b158015612ca057600080fd5b505af1158015612cb4573d6000803e3d6000fd5b5050505080600160a060020a031663a318d45c6040518163ffffffff1660e060020a028152600401602060405180830381865afa158015612cf9573d6000803e3d6000fd5b505050506040513d601f19601f82011682018060405250810190612d1d919061516b565b60405160e060020a631c635ded02815260606004820152600f60648201527f506572736f6e616c20536869656c6400000000000000000000000000000000006084820152602481018990526103e86044820152600160a060020a039190911690631c635ded9060a401600060405180830381600087803b158015612da057600080fd5b505af1158015612db4573d6000803e3d6000fd5b5050505080600160a060020a031663a318d45c6040518163ffffffff1660e060020a028152600401602060405180830381865afa158015612df9573d6000803e3d6000fd5b505050506040513d601f19601f82011682018060405250810190612e1d919061516b565b60405160e060020a631c635ded02815260606004820152600d60648201527f427562626c6520536869656c64000000000000000000000000000000000000006084820152602481018990526103e86044820152600160a060020a039190911690631c635ded9060a401600060405180830381600087803b158015612ea057600080fd5b505af1158015612eb4573d6000803e3d6000fd5b5050505080600160a060020a031663a318d45c6040518163ffffffff1660e060020a028152600401602060405180830381865afa158015612ef9573d6000803e3d6000fd5b505050506040513d601f19601f82011682018060405250810190612f1d919061516b565b60405160e060020a631c635ded02815260606004820152600c60648201527f46726167204772656e61646500000000000000000000000000000000000000006084820152602481018990526103e86044820152600160a060020a039190911690631c635ded9060a401600060405180830381600087803b158015612fa057600080fd5b505af1158015612fb4573d6000803e3d6000fd5b5050505080600160a060020a031663a318d45c6040518163ffffffff1660e060020a028152600401602060405180830381865afa158015612ff9573d6000803e3d6000fd5b505050506040513d601f19601f8201168201806040525081019061301d919061516b565b60405160e060020a631c635ded02815260606004820152600c60648201527f46697265204772656e61646500000000000000000000000000000000000000006084820152602481018990526103e86044820152600160a060020a039190911690631c635ded9060a401600060405180830381600087803b1580156130a057600080fd5b505af11580156130b4573d6000803e3d6000fd5b5050505080600160a060020a031663a318d45c6040518163ffffffff1660e060020a028152600401602060405180830381865afa1580156130f9573d6000803e3d6000fd5b505050506040513d601f19601f8201168201806040525081019061311d919061516b565b60405160e060020a631c635ded02815260606004820152600d60648201527f53686f636b204772656e616465000000000000000000000000000000000000006084820152602481018990526103e86044820152600160a060020a039190911690631c635ded9060a401600060405180830381600087803b1580156131a057600080fd5b505af11580156131b4573d6000803e3d6000fd5b5050505080600160a060020a031663a318d45c6040518163ffffffff1660e060020a028152600401602060405180830381865afa1580156131f9573d6000803e3d6000fd5b505050506040513d601f19601f8201168201806040525081019061321d919061516b565b60405160e060020a631c635ded02815260606004820152600960648201527f4845204d6f7274617200000000000000000000000000000000000000000000006084820152602481018990526103e86044820152600160a060020a039190911690631c635ded9060a401600060405180830381600087803b1580156132a057600080fd5b505af11580156132b4573d6000803e3d6000fd5b5050505080600160a060020a031663a318d45c6040518163ffffffff1660e060020a028152600401602060405180830381865afa1580156132f9573d6000803e3d6000fd5b505050506040513d601f19601f8201168201806040525081019061331d919061516b565b60405160e060020a631c635ded02815260606004820152601160648201527f496e63656e6469617279204d6f727461720000000000000000000000000000006084820152602481018990526103e86044820152600160a060020a039190911690631c635ded9060a401600060405180830381600087803b1580156133a057600080fd5b505af11580156133b4573d6000803e3d6000fd5b5050505080600160a060020a031663a318d45c6040518163ffffffff1660e060020a028152600401602060405180830381865afa1580156133f9573d6000803e3d6000fd5b505050506040513d601f19601f8201168201806040525081019061341d919061516b565b60405160e060020a631c635ded02815260606004820152600a60648201527f454d50204d6f72746172000000000000000000000000000000000000000000006084820152602481018990526103e86044820152600160a060020a039190911690631c635ded9060a401600060405180830381600087803b1580156134a057600080fd5b505af11580156134b4573d6000803e3d6000fd5b5050505080600160a060020a031663a318d45c6040518163ffffffff1660e060020a028152600401602060405180830381865afa1580156134f9573d6000803e3d6000fd5b505050506040513d601f19601f8201168201806040525081019061351d919061516b565b60405160e060020a631c635ded02815260606004820152600b60648201527f506f77657220476c6f76650000000000000000000000000000000000000000006084820152602481018990526103e86044820152600160a060020a039190911690631c635ded9060a401600060405180830381600087803b1580156135a057600080fd5b505af11580156135b4573d6000803e3d6000fd5b5050505080600160a060020a031663a318d45c6040518163ffffffff1660e060020a028152600401602060405180830381865afa1580156135f9573d6000803e3d6000fd5b505050506040513d601f19601f8201168201806040525081019061361d919061516b565b60405160e060020a631c635ded02815260606004820152602160648201527f52656d6f7465204c61756e636820616e642047756964616e636520537973746560848201527f6d0000000000000000000000000000000000000000000000000000000000000060a4820152602481018990526103e86044820152600160a060020a039190911690631c635ded9060c401600060405180830381600087803b1580156136c657600080fd5b505af11580156136da573d6000803e3d6000fd5b5050505080600160a060020a031663a318d45c6040518163ffffffff1660e060020a028152600401602060405180830381865afa15801561371f573d6000803e3d6000fd5b505050506040513d601f19601f82011682018060405250810190613743919061516b565b60405160e060020a631c635ded02815260606004820152600f60648201527f54656c65706f72746572205061636b00000000000000000000000000000000006084820152602481018990526103e86044820152600160a060020a039190911690631c635ded9060a401600060405180830381600087803b1580156137c657600080fd5b505af11580156137da573d6000803e3d6000fd5b5050505080600160a060020a031663a318d45c6040518163ffffffff1660e060020a028152600401602060405180830381865afa15801561381f573d6000803e3d6000fd5b505050506040513d601f19601f82011682018060405250810190613843919061516b565b60405160e060020a631c635ded02815260606004820152600860648201527f43616d70736974650000000000000000000000000000000000000000000000006084820152602481018990526103e86044820152600160a060020a039190911690631c635ded9060a401600060405180830381600087803b1580156138c657600080fd5b505af11580156138da573d6000803e3d6000fd5b5050505080600160a060020a031663c1cdbb3c6040518163ffffffff1660e060020a028152600401602060405180830381865afa15801561391f573d6000803e3d6000fd5b505050506040513d601f19601f82011682018060405250810190613943919061516b565b60405160e060020a631c635ded02815260606004820152600760648201527f5374756e6e6564000000000000000000000000000000000000000000000000006084820152602481018990526103e86044820152600160a060020a039190911690631c635ded9060a401600060405180830381600087803b1580156139c657600080fd5b505af11580156139da573d6000803e3d6000fd5b5050505080600160a060020a031663c1cdbb3c6040518163ffffffff1660e060020a028152600401602060405180830381865afa158015613a1f573d6000803e3d6000fd5b505050506040513d601f19601f82011682018060405250810190613a43919061516b565b60405160e060020a631c635ded02815260606004820152600660648201527f4275726e656400000000000000000000000000000000000000000000000000006084820152602481018990526103e86044820152600160a060020a039190911690631c635ded9060a401600060405180830381600087803b158015613ac657600080fd5b505af1158015613ada573d6000803e3d6000fd5b5050505080600160a060020a03166345d339d96040518163ffffffff1660e060020a028152600401602060405180830381865afa158015613b1f573d6000803e3d6000fd5b505050506040513d601f19601f82011682018060405250810190613b43919061516b565b60405160e060020a631c635ded02815260606004820152600f60648201527f456e677261766564205461626c656400000000000000000000000000000000006084820152602481018990526103e86044820152600160a060020a039190911690631c635ded9060a401600060405180830381600087803b158015613bc657600080fd5b505af1158015613bda573d6000803e3d6000fd5b5050505080600160a060020a03166345d339d96040518163ffffffff1660e060020a028152600401602060405180830381865afa158015613c1f573d6000803e3d6000fd5b505050506040513d601f19601f82011682018060405250810190613c43919061516b565b60405160e060020a631c635ded02815260606004820152600960648201527f536967696c2047656d00000000000000000000000000000000000000000000006084820152602481018990526103e86044820152600160a060020a039190911690631c635ded9060a401600060405180830381600087803b158015613cc657600080fd5b505af1158015613cda573d6000803e3d6000fd5b5050505080600160a060020a03166345d339d96040518163ffffffff1660e060020a028152600401602060405180830381865afa158015613d1f573d6000803e3d6000fd5b505050506040513d601f19601f82011682018060405250810190613d43919061516b565b60405160e060020a631c635ded02815260606004820152600c60648201527f416e6369656e7420546f6d6500000000000000000000000000000000000000006084820152602481018990526103e86044820152600160a060020a039190911690631c635ded9060a401600060405180830381600087803b158015613dc657600080fd5b505af1158015613dda573d6000803e3d6000fd5b5050505080600160a060020a031663cb8d2d2c6040518163ffffffff1660e060020a028152600401602060405180830381865afa158015613e1f573d6000803e3d6000fd5b505050506040513d601f19601f82011682018060405250810190613e43919061516b565b60405160e060020a631c635ded02815260606004820152600760648201527f52656c69632031000000000000000000000000000000000000000000000000006084820152602481018990526103e86044820152600160a060020a039190911690631c635ded9060a401600060405180830381600087803b158015613ec657600080fd5b505af1158015613eda573d6000803e3d6000fd5b5050505080600160a060020a031663cb8d2d2c6040518163ffffffff1660e060020a028152600401602060405180830381865afa158015613f1f573d6000803e3d6000fd5b505050506040513d601f19601f82011682018060405250810190613f43919061516b565b60405160e060020a631c635ded02815260606004820152600760648201527f52656c69632032000000000000000000000000000000000000000000000000006084820152602481018990526103e86044820152600160a060020a039190911690631c635ded9060a401600060405180830381600087803b158015613fc657600080fd5b505af1158015613fda573d6000803e3d6000fd5b5050505080600160a060020a031663cb8d2d2c6040518163ffffffff1660e060020a028152600401602060405180830381865afa15801561401f573d6000803e3d6000fd5b505050506040513d601f19601f82011682018060405250810190614043919061516b565b60405160e060020a631c635ded02815260606004820152600760648201527f52656c69632033000000000000000000000000000000000000000000000000006084820152602481018990526103e86044820152600160a060020a039190911690631c635ded9060a401600060405180830381600087803b1580156140c657600080fd5b505af11580156140da573d6000803e3d6000fd5b5050505080600160a060020a031663cb8d2d2c6040518163ffffffff1660e060020a028152600401602060405180830381865afa15801561411f573d6000803e3d6000fd5b505050506040513d601f19601f82011682018060405250810190614143919061516b565b60405160e060020a631c635ded02815260606004820152600760648201527f52656c69632034000000000000000000000000000000000000000000000000006084820152602481018990526103e86044820152600160a060020a039190911690631c635ded9060a401600060405180830381600087803b1580156141c657600080fd5b505af11580156141da573d6000803e3d6000fd5b5050505080600160a060020a031663cb8d2d2c6040518163ffffffff1660e060020a028152600401602060405180830381865afa15801561421f573d6000803e3d6000fd5b505050506040513d601f19601f82011682018060405250810190614243919061516b565b60405160e060020a631c635ded02815260606004820152600760648201527f52656c69632035000000000000000000000000000000000000000000000000006084820152602481018990526103e86044820152600160a060020a039190911690631c635ded9060a401600060405180830381600087803b1580156142c657600080fd5b505af11580156142da573d6000803e3d6000fd5b5050505080600160a060020a031663a906dfd16040518163ffffffff1660e060020a028152600401602060405180830381865afa15801561431f573d6000803e3d6000fd5b505050506040513d601f19601f82011682018060405250810190614343919061516b565b600160a060020a031663d82910478860006001806040518563ffffffff1660e060020a02815260040161437994939291906154ae565b600060405180830381600087803b15801561439357600080fd5b505af11580156143a7573d6000803e3d6000fd5b5050505050505050505050565b6040517f72c6c6b6000000000000000000000000000000000000000000000000000000008152600160a060020a0383811660048301528291908216906372c6c6b690602401610470565b6040517f9eb356cb0000000000000000000000000000000000000000000000000000000081526004810183905233602482015260448101849052600160a060020a03821690639eb356cb906064016020604051808303816000875af115801561446b573d6000803e3d6000fd5b505050506040513d601f19601f8201168201806040525081019061448f91906151d3565b50505050565b60008281526001602052604081206144ad908361498c565b9392505050565b600091825260208281526040808420600160a060020a0393909316845291905290205460ff1690565b6040517fb553910d000000000000000000000000000000000000000000000000000000008152600160a060020a0382811660048301526000919084169063b553910d90602401602060405180830381865afa158015614540573d6000803e3d6000fd5b505050506040513d601f19601f820116820180604052508101906144ad9190615391565b80600160a060020a031663d1e18d266040518163ffffffff1660e060020a028152600401600060405180830381600087803b1580156145a257600080fd5b505af11580156145b6573d6000803e3d6000fd5b5050505050565b600081815260016020526040812061032790614998565b6000828152602081905260409020600101546145ef8161493b565b6104cc838361496a565b6000819050600081600160a060020a031663c06dea4e6040518163ffffffff1660e060020a028152600401602060405180830381865afa158015614641573d6000803e3d6000fd5b505050506040513d601f19601f82011682018060405250810190614665919061516b565b6040517fb81f6e1800000000000000000000000000000000000000000000000000000000815260048101869052336024820152909150600160a060020a0382169063b81f6e1890604401602060405180830381865afa1580156146cc573d6000803e3d6000fd5b505050506040513d601f19601f820116820180604052508101906146f091906151d3565b61473f5760405160e560020a62461bcd02815260206004820152601560248201527f706c61796572206e6f7420726567697374657265640000000000000000000000604482015260640161054e565b6040517ff8430708000000000000000000000000000000000000000000000000000000008152600160a060020a0383169063f843070890614789908890600590899060040161550d565b600060405180830381600087803b1580156147a357600080fd5b505af11580156147b7573d6000803e3d6000fd5b50506040517f9f82bcc0000000000000000000000000000000000000000000000000000000008152600160a060020a0385169250639f82bcc09150614802908890889060040161553d565b600060405180830381600087803b15801561481c57600080fd5b505af1158015614830573d6000803e3d6000fd5b505050505050505050565b61484582826144b4565b61056157600082815260208181526040808320600160a060020a03851684529091529020805460ff1916600117905561487b3390565b600160a060020a031681600160a060020a0316837f2f8788117e7eff1d82e926ec794901d17c78024a50270940304540a733656f0d60405160405180910390a45050565b60006144ad83600160a060020a0384166149a2565b6000600160e060020a031982167f7965db0b00000000000000000000000000000000000000000000000000000000148061032757507f01ffc9a700000000000000000000000000000000000000000000000000000000600160e060020a0319831614610327565b61494581336149f1565b50565b614952828261483b565b60008281526001602052604090206104cc90826148bf565b6149748282614a58565b60008281526001602052604090206104cc9082614abd565b60006144ad8383614ad2565b6000610327825490565b60008181526001830160205260408120546149e957508154600181810184556000848152602080822090930184905584548482528286019093526040902091909155610327565b506000610327565b6149fb82826144b4565b61056157614a1381600160a060020a03166014614afc565b614a1e836020614afc565b604051602001614a2f92919061555f565b60408051601f198184030181529082905260e560020a62461bcd02825261054e916004016155e0565b614a6282826144b4565b1561056157600082815260208181526040808320600160a060020a0385168085529252808320805460ff1916905551339285917ff6391f5c32d9c69d2a47ea670b442974b53935d1edc7fd64eb21e047a839171b9190a45050565b60006144ad83600160a060020a038416614d46565b6000826000018281548110614ae957614ae96151f5565b9060005260206000200154905092915050565b60606000614b0b8360026155f3565b614b16906002615421565b67ffffffffffffffff811115614b2e57614b2e614eee565b6040519080825280601f01601f191660200182016040528015614b58576020820181803683370190505b5090507f300000000000000000000000000000000000000000000000000000000000000081600081518110614b8f57614b8f6151f5565b60200101907effffffffffffffffffffffffffffffffffffffffffffffffffffffffffffff1916908160001a9053507f780000000000000000000000000000000000000000000000000000000000000081600181518110614bf257614bf26151f5565b60200101907effffffffffffffffffffffffffffffffffffffffffffffffffffffffffffff1916908160001a9053506000614c2e8460026155f3565b614c39906001615421565b90505b6001811115614cf4577f303132333435363738396162636465660000000000000000000000000000000085600f1660108110614c7a57614c7a6151f5565b1a7f010000000000000000000000000000000000000000000000000000000000000002828281518110614caf57614caf6151f5565b60200101907effffffffffffffffffffffffffffffffffffffffffffffffffffffffffffff1916908160001a905350601090940493614ced81615612565b9050614c3c565b5083156144ad5760405160e560020a62461bcd02815260206004820181905260248201527f537472696e67733a20686578206c656e67746820696e73756666696369656e74604482015260640161054e565b60008181526001830160205260408120548015614e2f576000614d6a600183615629565b8554909150600090614d7e90600190615629565b9050818114614de3576000866000018281548110614d9e57614d9e6151f5565b9060005260206000200154905080876000018481548110614dc157614dc16151f5565b6000918252602080832090910192909255918252600188019052604090208390555b8554869080614df457614df4615640565b600190038181906000526020600020016000905590558560010160008681526020019081526020016000206000905560019350505050610327565b6000915050610327565b600060208284031215614e4b57600080fd5b8135600160e060020a0319811681146144ad57600080fd5b600060208284031215614e7557600080fd5b5035919050565b600160a060020a038116811461494557600080fd5b8035614e9c81614e7c565b919050565b60008060408385031215614eb457600080fd5b823591506020830135614ec681614e7c565b809150509250929050565b600060208284031215614ee357600080fd5b81356144ad81614e7c565b60e060020a634e487b7102600052604160045260246000fd5b604051601f8201601f1916810167ffffffffffffffff81118282101715614f3057614f30614eee565b604052919050565b600067ffffffffffffffff821115614f5257614f52614eee565b50601f01601f191660200190565b600082601f830112614f7157600080fd5b8135614f84614f7f82614f38565b614f07565b818152846020838601011115614f9957600080fd5b816020850160208301376000918101602001919091529392505050565b600080600060608486031215614fcb57600080fd5b833567ffffffffffffffff80821115614fe357600080fd5b818601915086601f830112614ff757600080fd5b813560208282111561500b5761500b614eee565b808202615019828201614f07565b928352848101820192828101908b85111561503357600080fd5b83870192505b8483101561506f578235868111156150515760008081fd5b61505f8d86838b0101614f60565b8352509183019190830190615039565b985050508701359450615089925050604086019050614e91565b90509250925092565b600080604083850312156150a557600080fd5b82356150b081614e7c565b91506020830135614ec681614e7c565b6000806000606084860312156150d557600080fd5b833592506020840135915060408401356150ee81614e7c565b809150509250925092565b6000806040838503121561510c57600080fd5b50508035926020909101359150565b60008060006060848603121561513057600080fd5b833567ffffffffffffffff81111561514757600080fd5b61515386828701614f60565b9350506020840135915060408401356150ee81614e7c565b60006020828403121561517d57600080fd5b81516144ad81614e7c565b60a08101818560005b60038110156151b357815160ff16835260209283019290910190600101615191565b505050836060830152600160a060020a0383166080830152949350505050565b6000602082840312156151e557600080fd5b815180151581146144ad57600080fd5b60e060020a634e487b7102600052603260045260246000fd5b60e060020a634e487b7102600052602160045260246000fd5b60e060020a634e487b7102600052601160045260246000fd5b600060001982141561525457615254615227565b5060010190565b60005b8381101561527657818101518382015260200161525e565b8381111561448f5750506000910152565b6000815180845261529f81602086016020860161525b565b601f01601f19169290920160200192915050565b600c81106152d45760e060020a634e487b7102600052602160045260246000fd5b9052565b6000608082016080835280875180835260a0850191506020925060a0838202860101838a0160005b8381101561532e57609f1988840301855261531c838351615287565b94860194925090850190600101615300565b5050600160a060020a0389168685015260408601889052858103606087015286518082529084019250905085830160005b82811015615382576153728483516152b3565b928401929084019060010161535f565b50919998505050505050505050565b6000602082840312156153a357600080fd5b5051919050565b6000602082840312156153bc57600080fd5b815167ffffffffffffffff8111156153d357600080fd5b8201601f810184136153e457600080fd5b80516153f2614f7f82614f38565b81815285602083850101111561540757600080fd5b61541882602083016020860161525b565b95945050505050565b6000821982111561543457615434615227565b500190565b600160a060020a03841681528260208201526060604082015260006154186060830184615287565b60608152600061549e60608301600381527f4461790000000000000000000000000000000000000000000000000000000000602082015260400190565b6020830194909452506040015290565b60a0815260006154eb60a08301600381527f4461790000000000000000000000000000000000000000000000000000000000602082015260400190565b6020830196909652506040810193909352606083019190915260809091015290565b6060815260006155206060830186615287565b905061552f60208301856152b3565b826040830152949350505050565b6040815260006155506040830185615287565b90508260208301529392505050565b7f416363657373436f6e74726f6c3a206163636f756e742000000000000000000081526000835161559781601785016020880161525b565b7f206973206d697373696e6720726f6c652000000000000000000000000000000060179184019182015283516155d481602884016020880161525b565b01602801949350505050565b6020815260006144ad6020830184615287565b600081600019048311821515161561560d5761560d615227565b500290565b60008161562157615621615227565b506000190190565b60008282101561563b5761563b615227565b500390565b60e060020a634e487b7102600052603160045260246000fdfea2646970667358221220a82cc16f7eebd67d424ef75cad8446a8551de52a26e30764cd08a5192eec974c64736f6c634300080b0033",
  "immutableReferences": {},
  "source": "// SPDX-License-Identifier: GPL-3.0\npragma solidity >=0.7.0 <0.9.0;\n\nimport \"@luckymachines/game-core/contracts/src/v0.0/GameController.sol\";\nimport \"./HexplorationBoard.sol\";\nimport \"./HexplorationZone.sol\";\nimport \"./state/CharacterCard.sol\";\nimport \"./tokens/TokenInventory.sol\";\n\ncontract HexplorationController is GameController {\n    // functions are meant to be called directly by players by default\n    // we are adding the ability of a Controller Admin or Keeper to\n    // execute the game aspects not directly controlled by players\n    bytes32 public constant KEEPER_ROLE = keccak256(\"KEEPER_ROLE\");\n\n    // TODO:\n    // Connect to Chainlink VRF for random seeds when needed\n    // submit move + space choice\n    // use / swap item\n\n    /*\n    Controller can access all game tokens with the following methods:\n\n    function mint(\n        string memory tokenType,\n        uint256 gameID,\n        uint256 quantity\n    )\n\n    function transfer(\n        string memory tokenType,\n        uint256 gameID,\n        uint256 fromPlayerID,\n        uint256 toPlayerID,\n        uint256 quantity\n    )\n*/\n    modifier onlyAdminKeeper() {\n        require(\n            hasRole(DEFAULT_ADMIN_ROLE, _msgSender()) ||\n                hasRole(KEEPER_ROLE, _msgSender()),\n            \"Admin or Keeper role required\"\n        );\n        _;\n    }\n\n    constructor(address adminAddress) GameController(adminAddress) {}\n\n    // Admin Functions\n\n    function addKeeper(address keeperAddress)\n        public\n        onlyRole(DEFAULT_ADMIN_ROLE)\n    {\n        grantRole(KEEPER_ROLE, keeperAddress);\n    }\n\n    // Admin or Keeper Interactions\n    function runBoardUpdate(address boardAddress) public {\n        HexplorationBoard(boardAddress).runUpdate();\n    }\n\n    function startGame(uint256 gameID, address boardAddress) public {\n        HexplorationBoard board = HexplorationBoard(boardAddress);\n        require(board.gameState(gameID) == 0, \"game already started\");\n\n        PlayerRegistry pr = PlayerRegistry(board.prAddress());\n        board.lockRegistration(gameID);\n        uint256 totalRegistrations = pr.totalRegistrations(gameID);\n        string memory startZone = board.initialPlayZone(gameID);\n        for (uint256 i = 0; i < totalRegistrations; i++) {\n            address playerAddress = pr.playerAddress(gameID, i + 1);\n            board.enterPlayer(playerAddress, gameID, startZone);\n        }\n        // set game to initialized\n        board.setGameState(2, gameID);\n\n        TokenInventory ti = TokenInventory(board.tokenInventory());\n        // mint game tokens (maybe mint on demand instead...)\n        // minting full game set here\n        ti.DAY_NIGHT_TOKEN().mint(\"Day\", gameID, 1);\n        ti.DAY_NIGHT_TOKEN().mint(\"Night\", gameID, 1);\n        ti.DISASTER_TOKEN().mint(\"Earthquake\", gameID, 1000);\n        ti.DISASTER_TOKEN().mint(\"Volcano\", gameID, 1000);\n        ti.ENEMY_TOKEN().mint(\"Pirate\", gameID, 1000);\n        ti.ENEMY_TOKEN().mint(\"Pirate Ship\", gameID, 1000);\n        ti.ENEMY_TOKEN().mint(\"Deathbot\", gameID, 1000);\n        ti.ENEMY_TOKEN().mint(\"Guardian\", gameID, 1000);\n        ti.ENEMY_TOKEN().mint(\"Sandworm\", gameID, 1000);\n        ti.ENEMY_TOKEN().mint(\"Dragon\", gameID, 1000);\n        ti.ITEM_TOKEN().mint(\"Small Ammo\", gameID, 1000);\n        ti.ITEM_TOKEN().mint(\"Large Ammo\", gameID, 1000);\n        ti.ITEM_TOKEN().mint(\"Batteries\", gameID, 1000);\n        ti.ITEM_TOKEN().mint(\"Shield\", gameID, 1000);\n        ti.ITEM_TOKEN().mint(\"Portal\", gameID, 1000);\n        ti.ITEM_TOKEN().mint(\"On\", gameID, 1000);\n        ti.ITEM_TOKEN().mint(\"Off\", gameID, 1000);\n        ti.ITEM_TOKEN().mint(\"Rusty Dagger\", gameID, 1000);\n        ti.ITEM_TOKEN().mint(\"Rusty Sword\", gameID, 1000);\n        ti.ITEM_TOKEN().mint(\"Rusty Pistol\", gameID, 1000);\n        ti.ITEM_TOKEN().mint(\"Rusty Rifle\", gameID, 1000);\n        ti.ITEM_TOKEN().mint(\"Shiny Dagger\", gameID, 1000);\n        ti.ITEM_TOKEN().mint(\"Shiny Sword\", gameID, 1000);\n        ti.ITEM_TOKEN().mint(\"Shiny Rifle\", gameID, 1000);\n        ti.ITEM_TOKEN().mint(\"Laser Dagger\", gameID, 1000);\n        ti.ITEM_TOKEN().mint(\"Laser Sword\", gameID, 1000);\n        ti.ITEM_TOKEN().mint(\"Laser Pistol\", gameID, 1000);\n        ti.ITEM_TOKEN().mint(\"Laser Rifle\", gameID, 1000);\n        ti.ITEM_TOKEN().mint(\"Glow stick\", gameID, 1000);\n        ti.ITEM_TOKEN().mint(\"Flashlight\", gameID, 1000);\n        ti.ITEM_TOKEN().mint(\"Flood light\", gameID, 1000);\n        ti.ITEM_TOKEN().mint(\"Nightvision Goggles\", gameID, 1000);\n        ti.ITEM_TOKEN().mint(\"Personal Shield\", gameID, 1000);\n        ti.ITEM_TOKEN().mint(\"Bubble Shield\", gameID, 1000);\n        ti.ITEM_TOKEN().mint(\"Frag Grenade\", gameID, 1000);\n        ti.ITEM_TOKEN().mint(\"Fire Grenade\", gameID, 1000);\n        ti.ITEM_TOKEN().mint(\"Shock Grenade\", gameID, 1000);\n        ti.ITEM_TOKEN().mint(\"HE Mortar\", gameID, 1000);\n        ti.ITEM_TOKEN().mint(\"Incendiary Mortar\", gameID, 1000);\n        ti.ITEM_TOKEN().mint(\"EMP Mortar\", gameID, 1000);\n        ti.ITEM_TOKEN().mint(\"Power Glove\", gameID, 1000);\n        ti.ITEM_TOKEN().mint(\"Remote Launch and Guidance System\", gameID, 1000);\n        ti.ITEM_TOKEN().mint(\"Teleporter Pack\", gameID, 1000);\n        ti.ITEM_TOKEN().mint(\"Campsite\", gameID, 1000);\n        ti.PLAYER_STATUS_TOKEN().mint(\"Stunned\", gameID, 1000);\n        ti.PLAYER_STATUS_TOKEN().mint(\"Burned\", gameID, 1000);\n        ti.ARTIFACT_TOKEN().mint(\"Engraved Tabled\", gameID, 1000);\n        ti.ARTIFACT_TOKEN().mint(\"Sigil Gem\", gameID, 1000);\n        ti.ARTIFACT_TOKEN().mint(\"Ancient Tome\", gameID, 1000);\n        ti.RELIC_TOKEN().mint(\"Relic 1\", gameID, 1000);\n        ti.RELIC_TOKEN().mint(\"Relic 2\", gameID, 1000);\n        ti.RELIC_TOKEN().mint(\"Relic 3\", gameID, 1000);\n        ti.RELIC_TOKEN().mint(\"Relic 4\", gameID, 1000);\n        ti.RELIC_TOKEN().mint(\"Relic 5\", gameID, 1000);\n        // Transfer day token to board\n        ti.DAY_NIGHT_TOKEN().transfer(\"Day\", gameID, 0, 1, 1);\n    }\n\n    //Player Interactions\n    function registerForGame(uint256 gameID, address boardAddress) public {\n        HexplorationBoard board = HexplorationBoard(boardAddress);\n        board.registerPlayer(msg.sender, gameID);\n        CharacterCard(board.characterCard()).setStats(\n            [4, 4, 4],\n            gameID,\n            msg.sender\n        );\n    }\n\n    function moveThroughPath(\n        string[] memory zonePath,\n        uint256 gameID,\n        address boardAddress\n    ) public {\n        // TODO:\n        // verify move is valid\n        // pick tiles from deck\n        HexplorationBoard board = HexplorationBoard(boardAddress);\n        PlayerRegistry pr = PlayerRegistry(board.prAddress());\n        require(pr.isRegistered(gameID, msg.sender), \"player not registered\");\n\n        HexplorationZone.Tile[] memory tiles = new HexplorationZone.Tile[](\n            zonePath.length\n        );\n        for (uint256 i = 0; i < zonePath.length; i++) {\n            tiles[i] = i == 0 ? HexplorationZone.Tile.Jungle : i == 1\n                ? HexplorationZone.Tile.Plains\n                : HexplorationZone.Tile.Mountain;\n        }\n\n        HexplorationBoard(boardAddress).moveThroughPath(\n            zonePath,\n            msg.sender,\n            gameID,\n            tiles\n        );\n    }\n\n    function chooseLandingSite(\n        string memory zoneChoice,\n        uint256 gameID,\n        address boardAddress\n    ) public {\n        // TODO: decide if this is done by a leader or automatically\n        // game will begin and registration locked after this...\n        HexplorationBoard board = HexplorationBoard(boardAddress);\n        PlayerRegistry pr = PlayerRegistry(board.prAddress());\n        require(pr.isRegistered(gameID, msg.sender), \"player not registered\");\n\n        board.enableZone(zoneChoice, HexplorationZone.Tile.LandingSite, gameID);\n        // set landing site at space on board\n        board.setInitialPlayZone(zoneChoice, gameID);\n    }\n\n    // TODO: limit this to authorized game starters\n    function requestNewGame(address gameRegistryAddress, address boardAddress)\n        public\n    {\n        HexplorationBoard board = HexplorationBoard(boardAddress);\n        board.requestNewGame(gameRegistryAddress);\n    }\n\n    function latestGame(address gameRegistryAddress, address boardAddress)\n        public\n        view\n        returns (uint256)\n    {\n        return GameRegistry(gameRegistryAddress).latestGame(boardAddress);\n    }\n}\n",
  "sourcePath": "/Users/maxmeier/Developer/Lucky Machines/hexploration/contracts/HexplorationController.sol",
  "compiler": {
    "name": "solc",
    "version": "0.8.11+commit.d7f03943.Emscripten.clang"
  },
  "schemaVersion": "3.4.4",
  "updatedAt": "2022-05-16T03:24:27.258Z",
  "devdoc": {
    "kind": "dev",
    "methods": {
      "getRoleAdmin(bytes32)": {
        "details": "Returns the admin role that controls `role`. See {grantRole} and {revokeRole}. To change a role's admin, use {_setRoleAdmin}."
      },
      "getRoleMember(bytes32,uint256)": {
        "details": "Returns one of the accounts that have `role`. `index` must be a value between 0 and {getRoleMemberCount}, non-inclusive. Role bearers are not sorted in any particular way, and their ordering may change at any point. WARNING: When using {getRoleMember} and {getRoleMemberCount}, make sure you perform all queries on the same block. See the following https://forum.openzeppelin.com/t/iterating-over-elements-on-enumerableset-in-openzeppelin-contracts/2296[forum post] for more information."
      },
      "getRoleMemberCount(bytes32)": {
        "details": "Returns the number of accounts that have `role`. Can be used together with {getRoleMember} to enumerate all bearers of a role."
      },
      "grantRole(bytes32,address)": {
        "details": "Grants `role` to `account`. If `account` had not been already granted `role`, emits a {RoleGranted} event. Requirements: - the caller must have ``role``'s admin role."
      },
      "hasRole(bytes32,address)": {
        "details": "Returns `true` if `account` has been granted `role`."
      },
      "renounceRole(bytes32,address)": {
        "details": "Revokes `role` from the calling account. Roles are often managed via {grantRole} and {revokeRole}: this function's purpose is to provide a mechanism for accounts to lose their privileges if they are compromised (such as when a trusted device is misplaced). If the calling account had been revoked `role`, emits a {RoleRevoked} event. Requirements: - the caller must be `account`."
      },
      "revokeRole(bytes32,address)": {
        "details": "Revokes `role` from `account`. If `account` had been granted `role`, emits a {RoleRevoked} event. Requirements: - the caller must have ``role``'s admin role."
      },
      "supportsInterface(bytes4)": {
        "details": "See {IERC165-supportsInterface}."
      }
    },
    "version": 1
  },
  "userdoc": {
    "kind": "user",
    "methods": {},
    "version": 1
  }
}