{
  "contractName": "HexplorationController",
  "abi": [
    {
      "inputs": [
        {
          "internalType": "uint256",
          "name": "pathIndex",
          "type": "uint256"
        },
        {
          "internalType": "uint256",
          "name": "gameID",
          "type": "uint256"
        },
        {
          "internalType": "address",
          "name": "gameBoardAddress",
          "type": "address"
        }
      ],
      "name": "exitToPath",
      "outputs": [],
      "stateMutability": "nonpayable",
      "type": "function"
    }
  ],
  "bytecode": "0x608060405234801561001057600080fd5b506101b6806100206000396000f3fe608060405234801561001057600080fd5b5060043610610047577c010000000000000000000000000000000000000000000000000000000060003504637479c8fe811461004c575b600080fd5b61005f61005a366004610105565b610061565b005b6040517f9eb356cb000000000000000000000000000000000000000000000000000000008152600481018390523360248201526044810184905273ffffffffffffffffffffffffffffffffffffffff821690639eb356cb906064016020604051808303816000875af11580156100db573d6000803e3d6000fd5b505050506040513d601f19601f820116820180604052508101906100ff9190610157565b50505050565b60008060006060848603121561011a57600080fd5b8335925060208401359150604084013573ffffffffffffffffffffffffffffffffffffffff8116811461014c57600080fd5b809150509250925092565b60006020828403121561016957600080fd5b8151801515811461017957600080fd5b939250505056fea2646970667358221220d2395e8993a0cf7d21c1937dd3b3549c1722de42d3dbc1669fc20facb431f1e064736f6c634300080b0033",
  "immutableReferences": {},
  "source": "// SPDX-License-Identifier: GPL-3.0\npragma solidity >=0.7.0 <0.9.0;\n\nimport \"@luckymachines/game-core/contracts/src/v0.0/GameController.sol\";\nimport \"./HexplorationBoard.sol\";\nimport \"./HexplorationZone.sol\";\n\ncontract HexplorationController is GameController {\n    // submit move + space choice\n    // use / swap item\n}\n",
  "sourcePath": "/Users/max/Developer/LM/hexploration/contracts/HexplorationController.sol",
  "compiler": {
    "name": "solc",
    "version": "0.8.11+commit.d7f03943.Emscripten.clang"
  },
  "schemaVersion": "3.4.2",
  "updatedAt": "2022-05-08T19:32:09.550Z",
  "devdoc": {
    "kind": "dev",
    "methods": {},
    "version": 1
  },
  "userdoc": {
    "kind": "user",
    "methods": {},
    "version": 1
  }
}