{
  "contractName": "HexplorationBoard",
  "abi": [
    {
      "inputs": [
        {
          "internalType": "address",
          "name": "adminAddress",
          "type": "address"
        },
        {
          "internalType": "uint256",
          "name": "gridWidth",
          "type": "uint256"
        },
        {
          "internalType": "uint256",
          "name": "gridHeight",
          "type": "uint256"
        },
        {
          "internalType": "address",
          "name": "zoneAddress",
          "type": "address"
        }
      ],
      "stateMutability": "nonpayable",
      "type": "constructor"
    },
    {
      "anonymous": false,
      "inputs": [
        {
          "indexed": true,
          "internalType": "bytes32",
          "name": "role",
          "type": "bytes32"
        },
        {
          "indexed": true,
          "internalType": "bytes32",
          "name": "previousAdminRole",
          "type": "bytes32"
        },
        {
          "indexed": true,
          "internalType": "bytes32",
          "name": "newAdminRole",
          "type": "bytes32"
        }
      ],
      "name": "RoleAdminChanged",
      "type": "event"
    },
    {
      "anonymous": false,
      "inputs": [
        {
          "indexed": true,
          "internalType": "bytes32",
          "name": "role",
          "type": "bytes32"
        },
        {
          "indexed": true,
          "internalType": "address",
          "name": "account",
          "type": "address"
        },
        {
          "indexed": true,
          "internalType": "address",
          "name": "sender",
          "type": "address"
        }
      ],
      "name": "RoleGranted",
      "type": "event"
    },
    {
      "anonymous": false,
      "inputs": [
        {
          "indexed": true,
          "internalType": "bytes32",
          "name": "role",
          "type": "bytes32"
        },
        {
          "indexed": true,
          "internalType": "address",
          "name": "account",
          "type": "address"
        },
        {
          "indexed": true,
          "internalType": "address",
          "name": "sender",
          "type": "address"
        }
      ],
      "name": "RoleRevoked",
      "type": "event"
    },
    {
      "inputs": [],
      "name": "DEFAULT_ADMIN_ROLE",
      "outputs": [
        {
          "internalType": "bytes32",
          "name": "",
          "type": "bytes32"
        }
      ],
      "stateMutability": "view",
      "type": "function",
      "constant": true
    },
    {
      "inputs": [],
      "name": "FACTORY_ROLE",
      "outputs": [
        {
          "internalType": "bytes32",
          "name": "",
          "type": "bytes32"
        }
      ],
      "stateMutability": "view",
      "type": "function",
      "constant": true
    },
    {
      "inputs": [],
      "name": "GAME_MASTER_ROLE",
      "outputs": [
        {
          "internalType": "bytes32",
          "name": "",
          "type": "bytes32"
        }
      ],
      "stateMutability": "view",
      "type": "function",
      "constant": true
    },
    {
      "inputs": [],
      "name": "MAX_BATCH_SIZE",
      "outputs": [
        {
          "internalType": "uint256",
          "name": "",
          "type": "uint256"
        }
      ],
      "stateMutability": "view",
      "type": "function",
      "constant": true
    },
    {
      "inputs": [],
      "name": "PLAY_ZONE_ROLE",
      "outputs": [
        {
          "internalType": "bytes32",
          "name": "",
          "type": "bytes32"
        }
      ],
      "stateMutability": "view",
      "type": "function",
      "constant": true
    },
    {
      "inputs": [],
      "name": "VERIFIED_CONTROLLER_ROLE",
      "outputs": [
        {
          "internalType": "bytes32",
          "name": "",
          "type": "bytes32"
        }
      ],
      "stateMutability": "view",
      "type": "function",
      "constant": true
    },
    {
      "inputs": [
        {
          "internalType": "uint256",
          "name": "transitID",
          "type": "uint256"
        }
      ],
      "name": "_progressTransit",
      "outputs": [],
      "stateMutability": "nonpayable",
      "type": "function"
    },
    {
      "inputs": [
        {
          "internalType": "address",
          "name": "factoryAddress",
          "type": "address"
        }
      ],
      "name": "addFactory",
      "outputs": [],
      "stateMutability": "nonpayable",
      "type": "function"
    },
    {
      "inputs": [
        {
          "internalType": "address",
          "name": "keeperAddress",
          "type": "address"
        }
      ],
      "name": "addKeeper",
      "outputs": [],
      "stateMutability": "nonpayable",
      "type": "function"
    },
    {
      "inputs": [
        {
          "internalType": "address",
          "name": "vcAddress",
          "type": "address"
        }
      ],
      "name": "addVerifiedController",
      "outputs": [],
      "stateMutability": "nonpayable",
      "type": "function"
    },
    {
      "inputs": [
        {
          "internalType": "uint256",
          "name": "gameID",
          "type": "uint256"
        },
        {
          "internalType": "string[2][]",
          "name": "connections",
          "type": "string[2][]"
        }
      ],
      "name": "addZoneConnections",
      "outputs": [],
      "stateMutability": "nonpayable",
      "type": "function"
    },
    {
      "inputs": [
        {
          "internalType": "address[]",
          "name": "playZoneAddresses",
          "type": "address[]"
        },
        {
          "internalType": "string[]",
          "name": "zoneAliases",
          "type": "string[]"
        },
        {
          "internalType": "uint256",
          "name": "gameID",
          "type": "uint256"
        }
      ],
      "name": "addZones",
      "outputs": [],
      "stateMutability": "nonpayable",
      "type": "function"
    },
    {
      "inputs": [],
      "name": "characterCard",
      "outputs": [
        {
          "internalType": "address",
          "name": "",
          "type": "address"
        }
      ],
      "stateMutability": "view",
      "type": "function",
      "constant": true
    },
    {
      "inputs": [],
      "name": "cleanQueue",
      "outputs": [],
      "stateMutability": "nonpayable",
      "type": "function"
    },
    {
      "inputs": [
        {
          "internalType": "address",
          "name": "_playerRegistry",
          "type": "address"
        },
        {
          "internalType": "address",
          "name": "_gameRegistry",
          "type": "address"
        }
      ],
      "name": "createGame",
      "outputs": [
        {
          "internalType": "uint256",
          "name": "gameID",
          "type": "uint256"
        }
      ],
      "stateMutability": "nonpayable",
      "type": "function"
    },
    {
      "inputs": [
        {
          "internalType": "address",
          "name": "_playerRegistry",
          "type": "address"
        },
        {
          "internalType": "address",
          "name": "_gameRegistry",
          "type": "address"
        },
        {
          "internalType": "address[]",
          "name": "playZoneAddresses",
          "type": "address[]"
        },
        {
          "internalType": "string[]",
          "name": "zoneAliases",
          "type": "string[]"
        }
      ],
      "name": "createGame",
      "outputs": [
        {
          "internalType": "uint256",
          "name": "gameID",
          "type": "uint256"
        }
      ],
      "stateMutability": "nonpayable",
      "type": "function"
    },
    {
      "inputs": [],
      "name": "createGrid",
      "outputs": [],
      "stateMutability": "nonpayable",
      "type": "function"
    },
    {
      "inputs": [
        {
          "internalType": "uint256",
          "name": "",
          "type": "uint256"
        },
        {
          "internalType": "uint256",
          "name": "",
          "type": "uint256"
        }
      ],
      "name": "currentPlayZone",
      "outputs": [
        {
          "internalType": "string",
          "name": "",
          "type": "string"
        }
      ],
      "stateMutability": "view",
      "type": "function",
      "constant": true
    },
    {
      "inputs": [
        {
          "internalType": "uint256",
          "name": "",
          "type": "uint256"
        },
        {
          "internalType": "uint256",
          "name": "",
          "type": "uint256"
        }
      ],
      "name": "entryQueue",
      "outputs": [
        {
          "internalType": "uint256",
          "name": "",
          "type": "uint256"
        }
      ],
      "stateMutability": "view",
      "type": "function",
      "constant": true
    },
    {
      "inputs": [
        {
          "internalType": "uint256",
          "name": "gameID",
          "type": "uint256"
        },
        {
          "internalType": "address",
          "name": "playerAddress",
          "type": "address"
        },
        {
          "internalType": "uint256",
          "name": "pathIndex",
          "type": "uint256"
        }
      ],
      "name": "exitToPath",
      "outputs": [
        {
          "internalType": "bool",
          "name": "exitSuccess",
          "type": "bool"
        }
      ],
      "stateMutability": "nonpayable",
      "type": "function"
    },
    {
      "inputs": [
        {
          "internalType": "uint256",
          "name": "",
          "type": "uint256"
        }
      ],
      "name": "gameState",
      "outputs": [
        {
          "internalType": "uint256",
          "name": "",
          "type": "uint256"
        }
      ],
      "stateMutability": "view",
      "type": "function",
      "constant": true
    },
    {
      "inputs": [
        {
          "internalType": "uint256",
          "name": "gameID",
          "type": "uint256"
        },
        {
          "internalType": "string",
          "name": "_zoneAlias",
          "type": "string"
        }
      ],
      "name": "getInputs",
      "outputs": [
        {
          "internalType": "string[]",
          "name": "zoneInputs",
          "type": "string[]"
        }
      ],
      "stateMutability": "view",
      "type": "function",
      "constant": true
    },
    {
      "inputs": [
        {
          "internalType": "uint256",
          "name": "gameID",
          "type": "uint256"
        },
        {
          "internalType": "string",
          "name": "_zoneAlias",
          "type": "string"
        }
      ],
      "name": "getOutputs",
      "outputs": [
        {
          "internalType": "string[]",
          "name": "zoneOutputs",
          "type": "string[]"
        }
      ],
      "stateMutability": "view",
      "type": "function",
      "constant": true
    },
    {
      "inputs": [
        {
          "internalType": "uint256",
          "name": "gameID",
          "type": "uint256"
        }
      ],
      "name": "getOverflowQueue",
      "outputs": [
        {
          "internalType": "uint256[]",
          "name": "",
          "type": "uint256[]"
        }
      ],
      "stateMutability": "view",
      "type": "function",
      "constant": true
    },
    {
      "inputs": [
        {
          "internalType": "uint256",
          "name": "gameID",
          "type": "uint256"
        }
      ],
      "name": "getPlayZones",
      "outputs": [
        {
          "internalType": "string[]",
          "name": "",
          "type": "string[]"
        }
      ],
      "stateMutability": "view",
      "type": "function",
      "constant": true
    },
    {
      "inputs": [
        {
          "internalType": "bytes32",
          "name": "role",
          "type": "bytes32"
        }
      ],
      "name": "getRoleAdmin",
      "outputs": [
        {
          "internalType": "bytes32",
          "name": "",
          "type": "bytes32"
        }
      ],
      "stateMutability": "view",
      "type": "function",
      "constant": true
    },
    {
      "inputs": [
        {
          "internalType": "bytes32",
          "name": "role",
          "type": "bytes32"
        },
        {
          "internalType": "uint256",
          "name": "index",
          "type": "uint256"
        }
      ],
      "name": "getRoleMember",
      "outputs": [
        {
          "internalType": "address",
          "name": "",
          "type": "address"
        }
      ],
      "stateMutability": "view",
      "type": "function",
      "constant": true
    },
    {
      "inputs": [
        {
          "internalType": "bytes32",
          "name": "role",
          "type": "bytes32"
        }
      ],
      "name": "getRoleMemberCount",
      "outputs": [
        {
          "internalType": "uint256",
          "name": "",
          "type": "uint256"
        }
      ],
      "stateMutability": "view",
      "type": "function",
      "constant": true
    },
    {
      "inputs": [],
      "name": "getZoneAliases",
      "outputs": [
        {
          "internalType": "string[]",
          "name": "",
          "type": "string[]"
        }
      ],
      "stateMutability": "view",
      "type": "function",
      "constant": true
    },
    {
      "inputs": [
        {
          "internalType": "bytes32",
          "name": "role",
          "type": "bytes32"
        },
        {
          "internalType": "address",
          "name": "account",
          "type": "address"
        }
      ],
      "name": "grantRole",
      "outputs": [],
      "stateMutability": "nonpayable",
      "type": "function"
    },
    {
      "inputs": [],
      "name": "gridHeight",
      "outputs": [
        {
          "internalType": "uint256",
          "name": "",
          "type": "uint256"
        }
      ],
      "stateMutability": "view",
      "type": "function",
      "constant": true
    },
    {
      "inputs": [],
      "name": "gridWidth",
      "outputs": [
        {
          "internalType": "uint256",
          "name": "",
          "type": "uint256"
        }
      ],
      "stateMutability": "view",
      "type": "function",
      "constant": true
    },
    {
      "inputs": [
        {
          "internalType": "bytes32",
          "name": "role",
          "type": "bytes32"
        },
        {
          "internalType": "address",
          "name": "account",
          "type": "address"
        }
      ],
      "name": "hasRole",
      "outputs": [
        {
          "internalType": "bool",
          "name": "",
          "type": "bool"
        }
      ],
      "stateMutability": "view",
      "type": "function",
      "constant": true
    },
    {
      "inputs": [
        {
          "internalType": "uint256",
          "name": "",
          "type": "uint256"
        }
      ],
      "name": "initialPlayZone",
      "outputs": [
        {
          "internalType": "string",
          "name": "",
          "type": "string"
        }
      ],
      "stateMutability": "view",
      "type": "function",
      "constant": true
    },
    {
      "inputs": [
        {
          "internalType": "address",
          "name": "factoryAddress",
          "type": "address"
        }
      ],
      "name": "isFactory",
      "outputs": [
        {
          "internalType": "bool",
          "name": "factoryIsAuthorized",
          "type": "bool"
        }
      ],
      "stateMutability": "view",
      "type": "function",
      "constant": true
    },
    {
      "inputs": [
        {
          "internalType": "uint256",
          "name": "",
          "type": "uint256"
        }
      ],
      "name": "lastEntryPlayerID",
      "outputs": [
        {
          "internalType": "uint256",
          "name": "",
          "type": "uint256"
        }
      ],
      "stateMutability": "view",
      "type": "function",
      "constant": true
    },
    {
      "inputs": [],
      "name": "needsUpdate",
      "outputs": [
        {
          "internalType": "bool",
          "name": "doesNeedUpdate",
          "type": "bool"
        }
      ],
      "stateMutability": "view",
      "type": "function",
      "constant": true
    },
    {
      "inputs": [
        {
          "internalType": "uint256",
          "name": "",
          "type": "uint256"
        },
        {
          "internalType": "string",
          "name": "",
          "type": "string"
        },
        {
          "internalType": "uint256",
          "name": "",
          "type": "uint256"
        }
      ],
      "name": "playZoneInputs",
      "outputs": [
        {
          "internalType": "string",
          "name": "",
          "type": "string"
        }
      ],
      "stateMutability": "view",
      "type": "function",
      "constant": true
    },
    {
      "inputs": [
        {
          "internalType": "uint256",
          "name": "",
          "type": "uint256"
        },
        {
          "internalType": "string",
          "name": "",
          "type": "string"
        },
        {
          "internalType": "uint256",
          "name": "",
          "type": "uint256"
        }
      ],
      "name": "playZoneOutputs",
      "outputs": [
        {
          "internalType": "string",
          "name": "",
          "type": "string"
        }
      ],
      "stateMutability": "view",
      "type": "function",
      "constant": true
    },
    {
      "inputs": [
        {
          "internalType": "uint256",
          "name": "",
          "type": "uint256"
        },
        {
          "internalType": "uint256",
          "name": "",
          "type": "uint256"
        }
      ],
      "name": "playZones",
      "outputs": [
        {
          "internalType": "string",
          "name": "",
          "type": "string"
        }
      ],
      "stateMutability": "view",
      "type": "function",
      "constant": true
    },
    {
      "inputs": [
        {
          "internalType": "uint256",
          "name": "gameID",
          "type": "uint256"
        },
        {
          "internalType": "address",
          "name": "playerAddress",
          "type": "address"
        },
        {
          "internalType": "string",
          "name": "_zoneAlias",
          "type": "string"
        }
      ],
      "name": "playerEnteredZone",
      "outputs": [],
      "stateMutability": "nonpayable",
      "type": "function"
    },
    {
      "inputs": [
        {
          "internalType": "uint256",
          "name": "",
          "type": "uint256"
        }
      ],
      "name": "playerRegistry",
      "outputs": [
        {
          "internalType": "uint256",
          "name": "",
          "type": "uint256"
        }
      ],
      "stateMutability": "view",
      "type": "function",
      "constant": true
    },
    {
      "inputs": [],
      "name": "prAddress",
      "outputs": [
        {
          "internalType": "address",
          "name": "",
          "type": "address"
        }
      ],
      "stateMutability": "view",
      "type": "function",
      "constant": true
    },
    {
      "inputs": [
        {
          "internalType": "uint256",
          "name": "gameID",
          "type": "uint256"
        },
        {
          "internalType": "address[]",
          "name": "playerAddresses",
          "type": "address[]"
        },
        {
          "internalType": "uint256[]",
          "name": "pathIndices",
          "type": "uint256[]"
        },
        {
          "internalType": "uint256",
          "name": "transitID",
          "type": "uint256"
        }
      ],
      "name": "queueExitToPaths",
      "outputs": [],
      "stateMutability": "nonpayable",
      "type": "function"
    },
    {
      "inputs": [
        {
          "internalType": "uint256",
          "name": "gameID",
          "type": "uint256"
        },
        {
          "internalType": "string[]",
          "name": "inputAliases",
          "type": "string[]"
        },
        {
          "internalType": "uint256[]",
          "name": "inputs",
          "type": "uint256[]"
        },
        {
          "internalType": "string[]",
          "name": "outputAliases",
          "type": "string[]"
        },
        {
          "internalType": "uint256[]",
          "name": "outputs",
          "type": "uint256[]"
        }
      ],
      "name": "removeZoneConnections",
      "outputs": [],
      "stateMutability": "nonpayable",
      "type": "function"
    },
    {
      "inputs": [
        {
          "internalType": "bytes32",
          "name": "role",
          "type": "bytes32"
        },
        {
          "internalType": "address",
          "name": "account",
          "type": "address"
        }
      ],
      "name": "renounceRole",
      "outputs": [],
      "stateMutability": "nonpayable",
      "type": "function"
    },
    {
      "inputs": [
        {
          "internalType": "bytes32",
          "name": "role",
          "type": "bytes32"
        },
        {
          "internalType": "address",
          "name": "account",
          "type": "address"
        }
      ],
      "name": "revokeRole",
      "outputs": [],
      "stateMutability": "nonpayable",
      "type": "function"
    },
    {
      "inputs": [],
      "name": "runUpdate",
      "outputs": [],
      "stateMutability": "nonpayable",
      "type": "function"
    },
    {
      "inputs": [
        {
          "internalType": "string",
          "name": "initialZone",
          "type": "string"
        },
        {
          "internalType": "uint256",
          "name": "gameID",
          "type": "uint256"
        }
      ],
      "name": "setInitialPlayZone",
      "outputs": [],
      "stateMutability": "nonpayable",
      "type": "function"
    },
    {
      "inputs": [
        {
          "internalType": "uint256",
          "name": "gameID",
          "type": "uint256"
        }
      ],
      "name": "startGame",
      "outputs": [],
      "stateMutability": "nonpayable",
      "type": "function"
    },
    {
      "inputs": [
        {
          "internalType": "uint256",
          "name": "transitID",
          "type": "uint256"
        }
      ],
      "name": "startTransit",
      "outputs": [],
      "stateMutability": "nonpayable",
      "type": "function"
    },
    {
      "inputs": [
        {
          "internalType": "bytes4",
          "name": "interfaceId",
          "type": "bytes4"
        }
      ],
      "name": "supportsInterface",
      "outputs": [
        {
          "internalType": "bool",
          "name": "",
          "type": "bool"
        }
      ],
      "stateMutability": "view",
      "type": "function",
      "constant": true
    },
    {
      "inputs": [],
      "name": "tokenInventory",
      "outputs": [
        {
          "internalType": "address",
          "name": "",
          "type": "address"
        }
      ],
      "stateMutability": "view",
      "type": "function",
      "constant": true
    },
    {
      "inputs": [],
      "name": "zoneAddress",
      "outputs": [
        {
          "internalType": "address",
          "name": "",
          "type": "address"
        }
      ],
      "stateMutability": "view",
      "type": "function",
      "constant": true
    },
    {
      "inputs": [
        {
          "internalType": "uint256",
          "name": "",
          "type": "uint256"
        },
        {
          "internalType": "string",
          "name": "",
          "type": "string"
        }
      ],
      "name": "zoneAlias",
      "outputs": [
        {
          "internalType": "address",
          "name": "",
          "type": "address"
        }
      ],
      "stateMutability": "view",
      "type": "function",
      "constant": true
    },
    {
      "inputs": [
        {
          "internalType": "uint256",
          "name": "",
          "type": "uint256"
        }
      ],
      "name": "zoneAliases",
      "outputs": [
        {
          "internalType": "string",
          "name": "",
          "type": "string"
        }
      ],
      "stateMutability": "view",
      "type": "function",
      "constant": true
    },
    {
      "inputs": [
        {
          "internalType": "uint256",
          "name": "",
          "type": "uint256"
        },
        {
          "internalType": "string",
          "name": "",
          "type": "string"
        }
      ],
      "name": "zoneEnabled",
      "outputs": [
        {
          "internalType": "bool",
          "name": "",
          "type": "bool"
        }
      ],
      "stateMutability": "view",
      "type": "function",
      "constant": true
    },
    {
      "inputs": [],
      "name": "hexZoneAddress",
      "outputs": [
        {
          "internalType": "address",
          "name": "",
          "type": "address"
        }
      ],
      "stateMutability": "view",
      "type": "function",
      "constant": true
    },
    {
      "inputs": [
        {
          "internalType": "address",
          "name": "characterCardAddress",
          "type": "address"
        }
      ],
      "name": "setCharacterCard",
      "outputs": [],
      "stateMutability": "nonpayable",
      "type": "function"
    },
    {
      "inputs": [
        {
          "internalType": "address",
          "name": "tokenInventoryAddress",
          "type": "address"
        }
      ],
      "name": "setTokenInventory",
      "outputs": [],
      "stateMutability": "nonpayable",
      "type": "function"
    },
    {
      "inputs": [
        {
          "internalType": "address",
          "name": "playerAddress",
          "type": "address"
        },
        {
          "internalType": "uint256",
          "name": "gameID",
          "type": "uint256"
        }
      ],
      "name": "registerPlayer",
      "outputs": [],
      "stateMutability": "nonpayable",
      "type": "function"
    },
    {
      "inputs": [
        {
          "internalType": "uint256",
          "name": "gameID",
          "type": "uint256"
        }
      ],
      "name": "lockRegistration",
      "outputs": [],
      "stateMutability": "nonpayable",
      "type": "function"
    },
    {
      "inputs": [
        {
          "internalType": "address",
          "name": "playerAddress",
          "type": "address"
        },
        {
          "internalType": "uint256",
          "name": "gameID",
          "type": "uint256"
        },
        {
          "internalType": "string",
          "name": "zone",
          "type": "string"
        }
      ],
      "name": "enterPlayer",
      "outputs": [],
      "stateMutability": "nonpayable",
      "type": "function"
    },
    {
      "inputs": [
        {
          "internalType": "address",
          "name": "playerAddress",
          "type": "address"
        },
        {
          "internalType": "uint256",
          "name": "gameID",
          "type": "uint256"
        },
        {
          "internalType": "string",
          "name": "zone",
          "type": "string"
        }
      ],
      "name": "exitPlayer",
      "outputs": [],
      "stateMutability": "nonpayable",
      "type": "function"
    },
    {
      "inputs": [
        {
          "internalType": "address",
          "name": "gameRegistryAddress",
          "type": "address"
        }
      ],
      "name": "requestNewGame",
      "outputs": [],
      "stateMutability": "nonpayable",
      "type": "function"
    },
    {
      "inputs": [
        {
          "internalType": "uint256",
          "name": "gs",
          "type": "uint256"
        },
        {
          "internalType": "uint256",
          "name": "gameID",
          "type": "uint256"
        }
      ],
      "name": "setGameState",
      "outputs": [],
      "stateMutability": "nonpayable",
      "type": "function"
    },
    {
      "inputs": [
        {
          "internalType": "uint256",
          "name": "randomness",
          "type": "uint256"
        }
      ],
      "name": "setRandomness",
      "outputs": [],
      "stateMutability": "nonpayable",
      "type": "function"
    },
    {
      "inputs": [
        {
          "internalType": "uint256",
          "name": "gameID",
          "type": "uint256"
        }
      ],
      "name": "start",
      "outputs": [],
      "stateMutability": "nonpayable",
      "type": "function"
    },
    {
      "inputs": [
        {
          "internalType": "string",
          "name": "zoneAlias",
          "type": "string"
        },
        {
          "internalType": "enum HexplorationZone.Tile",
          "name": "tile",
          "type": "uint8"
        },
        {
          "internalType": "uint256",
          "name": "gameID",
          "type": "uint256"
        }
      ],
      "name": "enableZone",
      "outputs": [],
      "stateMutability": "nonpayable",
      "type": "function"
    },
    {
      "inputs": [
        {
          "internalType": "string[]",
          "name": "zonePath",
          "type": "string[]"
        },
        {
          "internalType": "address",
          "name": "playerAddress",
          "type": "address"
        },
        {
          "internalType": "uint256",
          "name": "gameID",
          "type": "uint256"
        },
        {
          "internalType": "enum HexplorationZone.Tile[]",
          "name": "tiles",
          "type": "uint8[]"
        }
      ],
      "name": "moveThroughPath",
      "outputs": [],
      "stateMutability": "nonpayable",
      "type": "function"
    }
  ],
  "bytecode": "0x60806040523480156200001157600080fd5b5060405162004e3238038062004e328339810160408190526200003491620002a8565b83838383836200004f600082640100000000620000c9810204565b620000847f1d93c87416ca7b54f0fb8323167b72760e8e2ec93d48660953897a150f97a8b482640100000000620000c9810204565b50600e92909255600f5560108054600160a060020a03928316600160a060020a031991821617909155601380549490921693169290921790915550620002f392505050565b620000de8282640100000000620000e2810204565b5050565b620000fc828264010000000062002c986200012982021704565b600082815260016020526040902062000124908264010000000062002d1c620001c582021704565b505050565b6200013e8282640100000000620001ee810204565b620000de57600082815260208181526040808320600160a060020a03851684529091529020805460ff191660011790556200018164010000000062000217810204565b600160a060020a031681600160a060020a0316837f2f8788117e7eff1d82e926ec794901d17c78024a50270940304540a733656f0d60405160405180910390a45050565b6000620001e583600160a060020a0384166401000000006200021b810204565b90505b92915050565b600091825260208281526040808420600160a060020a0393909316845291905290205460ff1690565b3390565b600062000232838364010000000062000273810204565b6200026a57508154600181810184556000848152602080822090930184905584548482528286019093526040902091909155620001e8565b506000620001e8565b60009081526001919091016020526040902054151590565b8051600160a060020a0381168114620002a357600080fd5b919050565b60008060008060808587031215620002bf57600080fd5b620002ca856200028b565b93506020850151925060408501519150620002e8606086016200028b565b905092959194509250565b614b2f80620003036000396000f3fe608060405234801561001057600080fd5b50600436106104165760003560e060020a9004806395805dad11610224578063cca3699611610134578063d91413ba116100bc578063ed3719a51161008b578063ed3719a514610956578063f643b8fd14610995578063f8430708146109a8578063fa9f3438146109bb578063fdd198c3146109ce57600080fd5b8063d91413ba1461090a578063df793fa81461091d578063e5ed1d5914610930578063eb33983d1461094357600080fd5b8063d2d6756b11610103578063d2d6756b14610891578063d3fb7289146108b1578063d4f5b152146108d1578063d547741f146108e4578063d75e7980146108f757600080fd5b8063cca3699614610859578063cd1ec7f21461086c578063cfdbf25414610881578063d1e18d261461088957600080fd5b8063a4f9c9df116101b7578063b2df0ca211610186578063b2df0ca214610525578063b40c89df1461080f578063babdeefa14610822578063c06dea4e14610835578063ca15c8731461084657600080fd5b8063a4f9c9df146107b4578063a6f979ff146107c7578063aab2aeb8146107da578063ad1def1e146107fa57600080fd5b80639f6c4017116101f35780639f6c4017146107735780639f82bcc014610786578063a0ed600d14610799578063a217fddf146107ac57600080fd5b806395805dad1461072757806398bd75721461073a5780639aabe36d1461074d5780639eb356cb1461076057600080fd5b8063346c94091161032a57806360c20500116102b25780637cc75d1c116102815780637cc75d1c146106d357806384bf09b6146106e65780639010d07c146106ee57806391d14854146107015780639230f8791461071457600080fd5b806360c20500146106875780636b6ec8691461069a57806372c6c6b6146106ad57806376a321c1146106c057600080fd5b806338b145df116102f957806338b145df146106305780633ca61a58146106395780634032b72b146106415780634e0e1a3e1461065457806351709a731461067457600080fd5b8063346c9409146105f157806335e333e4146105f957806336568abe1461060a578063374f1d351461061d57600080fd5b8063194f2a36116103ad578063296787561161037c578063296787561461059257806329ce1ec5146105a55780632c47669a146105b85780632f2ff15d146105cb57806331e019f6146105de57600080fd5b8063194f2a36146105275780631c834a7f14610547578063248a9ca31461055c57806328d7e11a1461057f57600080fd5b8063108c5e14116103e9578063108c5e14146104a4578063153a7590146104ad57806317d7e833146104f2578063190060181461051257600080fd5b806301ffc9a71461041b57806304a0fb17146104435780630b197f2e146104665780630f04ba6714610491575b600080fd5b61042e610429366004613bd2565b6109e1565b60405190151581526020015b60405180910390f35b610458600080516020614aba83398151915281565b60405190815260200161043a565b60105461047990600160a060020a031681565b604051600160a060020a03909116815260200161043a565b61042e61049f366004613c11565b610a25565b610458600f5481565b6104796104bb366004613d1f565b60086020908152600092835260409092208151808301840180519281529084019290930191909120915254600160a060020a031681565b610505610500366004613d66565b610a3f565b60405161043a9190613de0565b610525610520366004613ef7565b610af8565b005b61053a610535366004613d1f565b610c44565b60405161043a9190613fae565b610458600080516020614ada83398151915281565b61045861056a36600461400f565b60009081526020819052604090206001015490565b61052561058d366004614028565b610f87565b6105256105a03660046140e2565b611024565b6105256105b3366004613c11565b611043565b6105256105c6366004614157565b61106a565b6105256105d93660046141c4565b6110b7565b6105256105ec366004614208565b6110e1565b61042e611277565b601354600160a060020a0316610479565b6105256106183660046141c4565b6112c8565b61050561062b36600461400f565b611353565b610458600e5481565b61053a61137e565b61052561064f366004613c11565b611457565b61045861066236600461400f565b60046020526000908152604090205481565b6105056106823660046142e1565b611487565b61052561069536600461400f565b6114db565b61053a6106a8366004613d1f565b611566565b6105256106bb366004613c11565b611896565b6105256106ce366004613d66565b611915565b6104586106e1366004613d66565b61193f565b610525611970565b6104796106fc366004613d66565b611c10565b61042e61070f3660046141c4565b611c2f565b610525610722366004613c11565b611c58565b61052561073536600461400f565b611c93565b610525610748366004614028565b611ce1565b61052561075b366004614320565b611d46565b61042e61076e36600461434c565b611dd9565b61052561078136600461400f565b612226565b610525610794366004614384565b61223e565b60145461047990600160a060020a031681565b610458600081565b6105256107c236600461400f565b6122fa565b6104586107d53660046143c9565b612312565b6104586107e836600461400f565b600b6020526000908152604090205481565b610458600080516020614a9a83398151915281565b61050561081d3660046142e1565b6123f7565b61053a61083036600461400f565b61242e565b600254600160a060020a0316610479565b61045861085436600461400f565b61251a565b60155461047990600160a060020a031681565b610458600080516020614a7a83398151915281565b61045860c881565b610525612531565b61045861089f36600461400f565b60056020526000908152604090205481565b6108c46108bf36600461400f565b612637565b60405161043a91906143f7565b6105256108df366004613c11565b612699565b6105256108f23660046141c4565b6126bc565b610505610905366004613d66565b6126e1565b61045861091836600461443b565b612705565b61052561092b366004613c11565b612829565b61052561093e36600461400f565b612864565b61050561095136600461400f565b61287c565b61042e610964366004613d1f565b6016602090815260009283526040909220815180830184018051928152908401929093019190912091525460ff1681565b6105256109a33660046144c4565b612895565b6105256109b63660046145d5565b612a96565b6105256109c936600461462c565b612ba7565b6105256109dc36600461400f565b612c7a565b6000600160e060020a031982167f5a05180f000000000000000000000000000000000000000000000000000000001480610a1f5750610a1f82612d31565b92915050565b6000610a1f600080516020614aba83398151915283611c2f565b60066020528160005260406000208181548110610a5b57600080fd5b90600052602060002001600091509150508054610a779061466f565b80601f0160208091040260200160405190810160405280929190818152602001828054610aa39061466f565b8015610af05780601f10610ac557610100808354040283529160200191610af0565b820191906000526020600020905b815481529060010190602001808311610ad357829003601f168201915b505050505081565b600080516020614a9a833981519152610b1081612d98565b8151845114610b695760405160e560020a62461bcd02815260206004820181905260248201527f696e70757473202f206f757470757473206c656e677468206d69736d6174636860448201526064015b60405180910390fd5b610b74868686612da2565b610bc35760405160e560020a62461bcd02815260206004820152600e60248201527f696e7075747320696e76616c69640000000000000000000000000000000000006044820152606401610b60565b610bce868484612e45565b610c1d5760405160e560020a62461bcd02815260206004820152600f60248201527f6f75747075747320696e76616c696400000000000000000000000000000000006044820152606401610b60565b60005b8451811015610c3b5780610c33816146c6565b915050610c20565b50505050505050565b60008281526009602052604080822090516060929190610c659085906146e1565b9081526020016040518091039020805480602002602001604051908101604052809291908181526020016000905b82821015610d3f578382906000526020600020018054610cb29061466f565b80601f0160208091040260200160405190810160405280929190818152602001828054610cde9061466f565b8015610d2b5780601f10610d0057610100808354040283529160200191610d2b565b820191906000526020600020905b815481529060010190602001808311610d0e57829003601f168201915b505050505081526020019060010190610c93565b505060008080526009602052604051939450927fec8156718a8372b1db44bb411437d0870f3e3790d4a08526d024ce1b0b668f6b9250610d81915086906146e1565b9081526020016040518091039020805480602002602001604051908101604052809291908181526020016000905b82821015610e5b578382906000526020600020018054610dce9061466f565b80601f0160208091040260200160405190810160405280929190818152602001828054610dfa9061466f565b8015610e475780601f10610e1c57610100808354040283529160200191610e47565b820191906000526020600020905b815481529060010190602001808311610e2a57829003601f168201915b505050505081526020019060010190610daf565b505050509050600082511115610f7b57600081518351610e7b91906146fd565b67ffffffffffffffff811115610e9357610e93613c2e565b604051908082528060200260200182016040528015610ec657816020015b6060815260200190600190039081610eb15790505b50905060005b8151811015610f74578251811015610f1a57828181518110610ef057610ef0614715565b6020026020010151828281518110610f0a57610f0a614715565b6020026020010181905250610f5e565b83835182610f28919061472e565b81518110610f3857610f38614715565b6020026020010151828281518110610f5257610f52614715565b60200260200101819052505b8194508080610f6c906146c6565b915050610ecc565b5050610f7f565b8092505b505092915050565b600080516020614ada833981519152610f9f81612d98565b6013546040517f28d7e11a000000000000000000000000000000000000000000000000000000008152600160a060020a03909116906328d7e11a90610fec90879087908790600401614745565b600060405180830381600087803b15801561100657600080fd5b505af115801561101a573d6000803e3d6000fd5b5050505050505050565b600080516020614a7a83398151915261103c81612d98565b5050505050565b600061104e81612d98565b611066600080516020614aba83398151915283612ee0565b5050565b600080516020614a9a83398151915261108281612d98565b82518451146110a65760405160e560020a62461bcd028152600401610b609061476d565b6110b1848484612eea565b50505050565b6000828152602081905260409020600101546110d281612d98565b6110dc8383613049565b505050565b600080516020614ada8339815191526110f981612d98565b6013548551600160a060020a03909116906328d7e11a9086908690899060009061112557611125614715565b60200260200101516040518463ffffffff1660e060020a02815260040161114e93929190614745565b600060405180830381600087803b15801561116857600080fd5b505af115801561117c573d6000803e3d6000fd5b50506013548751600160a060020a0390911692506398bd757291508690869089906111a99060019061472e565b815181106111b9576111b9614715565b60200260200101516040518463ffffffff1660e060020a0281526004016111e293929190614745565b600060405180830381600087803b1580156111fc57600080fd5b505af1158015611210573d6000803e3d6000fd5b5050505060005b855181101561126f5761125d86828151811061123557611235614715565b602002602001015184838151811061124f5761124f614715565b602002602001015186612a96565b80611267816146c6565b915050611217565b505050505050565b6000805b6003548110156112c4576003818154811061129857611298614715565b90600052602060002001546000146112b257600191505090565b806112bc816146c6565b91505061127b565b5090565b600160a060020a03811633146113495760405160e560020a62461bcd02815260206004820152602f60248201527f416363657373436f6e74726f6c3a2063616e206f6e6c792072656e6f756e636560448201527f20726f6c657320666f722073656c6600000000000000000000000000000000006064820152608401610b60565b611066828261306b565b6011818154811061136357600080fd5b906000526020600020016000915090508054610a779061466f565b60606011805480602002602001604051908101604052809291908181526020016000905b8282101561144e5783829060005260206000200180546113c19061466f565b80601f01602080910402602001604051908101604052809291908181526020018280546113ed9061466f565b801561143a5780601f1061140f5761010080835404028352916020019161143a565b820191906000526020600020905b81548152906001019060200180831161141d57829003601f168201915b5050505050815260200190600101906113a2565b50505050905090565b600080516020614a9a83398151915261146f81612d98565b611066600080516020614ada83398151915283612ee0565b600960209081526000848152604090208351808501830180519281529083019285019290922091528054829081106114be57600080fd5b9060005260206000200160009250925050508054610a779061466f565b600080516020614ada8339815191526114f381612d98565b6002546040517f60c2050000000000000000000000000000000000000000000000000000000000815260048101849052600160a060020a03909116906360c2050090602401600060405180830381600087803b15801561155257600080fd5b505af115801561126f573d6000803e3d6000fd5b6000828152600a6020526040808220905160609291906115879085906146e1565b9081526020016040518091039020805480602002602001604051908101604052809291908181526020016000905b828210156116615783829060005260206000200180546115d49061466f565b80601f01602080910402602001604051908101604052809291908181526020018280546116009061466f565b801561164d5780601f106116225761010080835404028352916020019161164d565b820191906000526020600020905b81548152906001019060200180831161163057829003601f168201915b5050505050815260200190600101906115b5565b50506000808052600a602052604051939450927f13da86008ba1c6922daee3e07db95305ef49ebced9f5467a0b8613fcc6b343e392506116a3915086906146e1565b9081526020016040518091039020805480602002602001604051908101604052809291908181526020016000905b8282101561177d5783829060005260206000200180546116f09061466f565b80601f016020809104026020016040519081016040528092919081815260200182805461171c9061466f565b80156117695780601f1061173e57610100808354040283529160200191611769565b820191906000526020600020905b81548152906001019060200180831161174c57829003601f168201915b5050505050815260200190600101906116d1565b505050509050600082511115610f7b5760008151835161179d91906146fd565b67ffffffffffffffff8111156117b5576117b5613c2e565b6040519080825280602002602001820160405280156117e857816020015b60608152602001906001900390816117d35790505b50905060005b8151811015610f7457825181101561183c5782818151811061181257611812614715565b602002602001015182828151811061182c5761182c614715565b6020026020010181905250611880565b8383518261184a919061472e565b8151811061185a5761185a614715565b602002602001015182828151811061187457611874614715565b60200260200101819052505b819450808061188e906146c6565b9150506117ee565b600080516020614ada8339815191526118ae81612d98565b81600160a060020a0316630a75806e6040518163ffffffff1660e060020a0281526004016020604051808303816000875af11580156118f1573d6000803e3d6000fd5b505050506040513d601f19601f820116820180604052508101906110dc91906147ca565b600080516020614ada83398151915261192d81612d98565b50600090815260046020526040902055565b600d602052816000526040600020818154811061195b57600080fd5b90600052602060002001600091509150505481565b611988600080516020614aba83398151915233611c2f565b806119a657506119a6600080516020614a9a83398151915233611c2f565b6119c55760405160e560020a62461bcd028152600401610b60906147e3565b601154611c0e576000600f54600e546119de9190614840565b67ffffffffffffffff8111156119f6576119f6613c2e565b604051908082528060200260200182016040528015611a1f578160200160208202803683370190505b50600f54600e546040517f9f6b56490000000000000000000000000000000000000000000000000000000081526004810192909252602482015290915073__XYCoordinates_________________________90639f6b564990604401600060405180830381865af4158015611a98573d6000803e3d6000fd5b505050506040513d6000823e601f3d908101601f19168201604052611ac0919081019061485f565b8051611ad491601191602090910190613a8d565b5060005b8151811015611b2e576010548251600160a060020a0390911690839083908110611b0457611b04614715565b600160a060020a039092166020928302919091019091015280611b26816146c6565b915050611ad8565b50611c0c816011805480602002602001604051908101604052809291908181526020016000905b82821015611c01578382906000526020600020018054611b749061466f565b80601f0160208091040260200160405190810160405280929190818152602001828054611ba09061466f565b8015611bed5780601f10611bc257610100808354040283529160200191611bed565b820191906000526020600020905b815481529060010190602001808311611bd057829003601f168201915b505050505081526020019060010190611b55565b505050506000612eea565b505b565b6000828152600160205260408120611c28908361308d565b9392505050565b600091825260208281526040808420600160a060020a0393909316845291905290205460ff1690565b6000611c6381612d98565b506014805473ffffffffffffffffffffffffffffffffffffffff1916600160a060020a0392909216919091179055565b600080516020614ada833981519152611cab81612d98565b50600380546001810182556000919091527fc2575a0e9e593c00f959f8c92f12db2869c3395a3b0502d05e2516446f71f85b0155565b600080516020614ada833981519152611cf981612d98565b6013546040517f98bd7572000000000000000000000000000000000000000000000000000000008152600160a060020a03909116906398bd757290610fec90879087908790600401614745565b600080516020614ada833981519152611d5e81612d98565b6002546040517f9aabe36d000000000000000000000000000000000000000000000000000000008152600160a060020a0385811660048301526024820185905290911690639aabe36d90604401600060405180830381600087803b158015611dc557600080fd5b505af1158015610c3b573d6000803e3d6000fd5b6002546040517fbca7caa000000000000000000000000000000000000000000000000000000000815260048101859052600160a060020a038481166024830152600092839291169063bca7caa090604401602060405180830381865afa158015611e47573d6000803e3d6000fd5b505050506040513d601f19601f82011682018060405250810190611e6b91906147ca565b6000868152600c60209081526040808320848452909152812080549293509091611e949061466f565b80601f0160208091040260200160405190810160405280929190818152602001828054611ec09061466f565b8015611f0d5780601f10611ee257610100808354040283529160200191611f0d565b820191906000526020600020905b815481529060010190602001808311611ef057829003601f168201915b505050505090506000611f208783611566565b805190915080611f755760405160e560020a62461bcd02815260206004820152601760248201527f4e6f206578697420706174687320617661696c61626c650000000000000000006044820152606401610b60565b60008881526008602052604080822090519196508691611f969086906146e1565b90815260405190819003602001902054600160a060020a031690506000828811611fc05787611fc3565b60005b90506000848281518110611fd957611fd9614715565b602002602001015190506000600860008d81526020019081526020016000208260405161200691906146e1565b908152602001604051809103902060009054906101000a9004600160a060020a0316905083600160a060020a0316637caf12808c8e8a6040518463ffffffff1660e060020a02815260040161205d93929190614745565b602060405180830381865afa15801561207a573d6000803e3d6000fd5b505050506040513d601f19601f8201168201806040525081019061209e9190614949565b8015612119575080600160a060020a031663e15b3ad08c8e856040518463ffffffff1660e060020a0281526004016120d893929190614745565b602060405180830381865afa1580156120f5573d6000803e3d6000fd5b505050506040513d601f19601f820116820180604052508101906121199190614949565b156122175783600160a060020a03166328d7e11a8c8e8a6040518463ffffffff1660e060020a02815260040161215193929190614745565b600060405180830381600087803b15801561216b57600080fd5b505af115801561217f573d6000803e3d6000fd5b5050505080600160a060020a03166398bd75728c8e856040518463ffffffff1660e060020a0281526004016121b693929190614745565b600060405180830381600087803b1580156121d057600080fd5b505af11580156121e4573d6000803e3d6000fd5b50505060008d8152600c602090815260408083208c84528252909120845161221193509091850190613ae6565b50600198505b50505050505050509392505050565b600080516020614ada83398151915261106681612d98565b600080516020614ada83398151915261225681612d98565b600082815260046020526040902054156122db5760405160e560020a62461bcd02815260206004820152602c60248201527f63616e27742073657420696e697469616c207a6f6e652c2067616d6520616c7260448201527f65616479207374617274656400000000000000000000000000000000000000006064820152608401610b60565b600082815260076020908152604090912084516110b192860190613ae6565b600080516020614a7a83398151915261106681612d98565b600061232c600080516020614aba83398151915233611c2f565b8061234a575061234a600080516020614a9a83398151915233611c2f565b6123695760405160e560020a62461bcd028152600401610b60906147e3565b82600260006101000a815481600160a060020a030219169083600160a060020a0316021790555081600160a060020a0316630a75806e6040518163ffffffff1660e060020a0281526004016020604051808303816000875af11580156123d3573d6000803e3d6000fd5b505050506040513d601f19601f82011682018060405250810190611c2891906147ca565b600a60209081526000848152604090208351808501830180519281529083019285019290922091528054829081106114be57600080fd5b606060066000838152602001908152602001600020805480602002602001604051908101604052809291908181526020016000905b8282101561250f5783829060005260206000200180546124829061466f565b80601f01602080910402602001604051908101604052809291908181526020018280546124ae9061466f565b80156124fb5780601f106124d0576101008083540402835291602001916124fb565b820191906000526020600020905b8154815290600101906020018083116124de57829003601f168201915b505050505081526020019060010190612463565b505050509050919050565b6000818152600160205260408120610a1f90613099565b600080516020614ada83398151915261254981612d98565b60008060005b6003548110156125b8576003818154811061256c5761256c614715565b90600052602060002001546000146125a6576003818154811061259157612591614715565b906000526020600020015492508091506125b8565b806125b0816146c6565b91505061254f565b506000828152600460205260409020546125da576125d5826130a3565b6125fa565b600082815260046020526040902054600114156125fa576125fa8261312e565b600082815260046020526040902054600110156110dc5760006003828154811061262657612626614715565b600091825260209091200155505050565b6000818152600d602090815260409182902080548351818402810184019094528084526060939283018282801561268d57602002820191906000526020600020905b815481526020019060010190808311612679575b50505050509050919050565b60006126a481612d98565b611066600080516020614ada833981519152836110b7565b6000828152602081905260409020600101546126d781612d98565b6110dc838361306b565b600c60209081526000928352604080842090915290825290208054610a779061466f565b600061271f600080516020614aba83398151915233611c2f565b8061273d575061273d600080516020614a9a83398151915233611c2f565b61275c5760405160e560020a62461bcd028152600401610b60906147e3565b81518351146127805760405160e560020a62461bcd028152600401610b609061476d565b82511561279257612792838383612eea565b84600260006101000a815481600160a060020a030219169083600160a060020a0316021790555083600160a060020a0316630a75806e6040518163ffffffff1660e060020a0281526004016020604051808303816000875af11580156127fc573d6000803e3d6000fd5b505050506040513d601f19601f8201168201806040525081019061282091906147ca565b95945050505050565b600061283481612d98565b506015805473ffffffffffffffffffffffffffffffffffffffff1916600160a060020a0392909216919091179055565b600080516020614a9a833981519152611cab81612d98565b60076020526000908152604090208054610a779061466f565b600080516020614a9a8339815191526128ad81612d98565b6128b783836134e7565b6129065760405160e560020a62461bcd02815260206004820152601a60248201527f6e6f7420616c6c207a6f6e6520696e64656365732076616c69640000000000006044820152606401610b60565b60005b82518110156110b1576000848152600a60205260409020835184908390811061293457612934614715565b602002602001015160006002811061294e5761294e614715565b602002015160405161296091906146e1565b908152602001604051809103902083828151811061298057612980614715565b602002602001015160016002811061299a5761299a614715565b60209081029190910151825460018101845560009384529282902081516129ca9491909101929190910190613ae6565b50600084815260096020526040902083518490839081106129ed576129ed614715565b6020026020010151600160028110612a0757612a07614715565b6020020151604051612a1991906146e1565b9081526020016040518091039020838281518110612a3957612a39614715565b6020026020010151600060028110612a5357612a53614715565b6020908102919091015182546001810184556000938452928290208151612a839491909101929190910190613ae6565b5080612a8e816146c6565b915050612909565b600080516020614ada833981519152612aae81612d98565b600082815260166020526040908190209051612acb9086906146e1565b9081526040519081900360200190205460ff166110b1576013546040517fd4939609000000000000000000000000000000000000000000000000000000008152600160a060020a039091169063d493960990612b2f9086908690899060040161496b565b600060405180830381600087803b158015612b4957600080fd5b505af1158015612b5d573d6000803e3d6000fd5b50505060008381526016602052604090819020905160019250612b819087906146e1565b908152604051908190036020019020805491151560ff1990921691909117905550505050565b600080516020614a7a833981519152612bbf81612d98565b6002546040517fbca7caa000000000000000000000000000000000000000000000000000000000815260048101869052600160a060020a038581166024830152600092169063bca7caa090604401602060405180830381865afa158015612c2a573d6000803e3d6000fd5b505050506040513d601f19601f82011682018060405250810190612c4e91906147ca565b6000868152600c602090815260408083208484528252909120855192935061126f929091860190613ae6565b600080516020614ada833981519152612c9281612d98565b50601255565b612ca28282611c2f565b61106657600082815260208181526040808320600160a060020a03851684529091529020805460ff19166001179055612cd83390565b600160a060020a031681600160a060020a0316837f2f8788117e7eff1d82e926ec794901d17c78024a50270940304540a733656f0d60405160405180910390a45050565b6000611c2883600160a060020a0384166135f6565b6000600160e060020a031982167f7965db0b000000000000000000000000000000000000000000000000000000001480610a1f57507f01ffc9a700000000000000000000000000000000000000000000000000000000600160e060020a0319831614610a1f565b611c0c8133613645565b600160005b8251811015612e3d57828181518110612dc257612dc2614715565b60200260200101516001612dd691906146fd565b60008681526009602052604090208551869084908110612df857612df8614715565b6020026020010151604051612e0d91906146e1565b9081526040519081900360200190205410612e2b5760009150612e3d565b80612e35816146c6565b915050612da7565b509392505050565b600160005b8251811015612e3d57828181518110612e6557612e65614715565b60200260200101516001612e7991906146fd565b6000868152600a602052604090208551869084908110612e9b57612e9b614715565b6020026020010151604051612eb091906146e1565b9081526040519081900360200190205410612ece5760009150612e3d565b80612ed8816146c6565b915050612e4a565b6110668282613049565b60005b83518110156110b15760008281526006602052604090208351849083908110612f1857612f18614715565b60209081029190910181015182546001810184556000938452928290208151612f4a9491909101929190910190613ae6565b50838181518110612f5d57612f5d614715565b602002602001015160086000848152602001908152602001600020848381518110612f8a57612f8a614715565b6020026020010151604051612f9f91906146e1565b908152602001604051809103902060006101000a815481600160a060020a030219169083600160a060020a03160217905550613002600080516020614a7a833981519152858381518110612ff557612ff5614715565b6020026020010151611c2f565b61303757613037600080516020614a7a83398151915285838151811061302a5761302a614715565b6020026020010151612ee0565b80613041816146c6565b915050612eed565b6130538282612c98565b60008281526001602052604090206110dc9082612d1c565b61307582826136ac565b60008281526001602052604090206110dc9082613711565b6000611c288383613726565b6000610a1f825490565b6002546040517f60c2050000000000000000000000000000000000000000000000000000000000815260048101839052600160a060020a03909116906360c2050090602401600060405180830381600087803b15801561310257600080fd5b505af1158015613116573d6000803e3d6000fd5b50505060009182525060046020526040902060019055565b600081815260076020526040812080546131479061466f565b1515905061317d576000828152600660205260408120805490919061316e5761316e614715565b9060005260206000200161318c565b60008281526007602052604090205b80546131979061466f565b80601f01602080910402602001604051908101604052809291908181526020018280546131c39061466f565b80156132105780601f106131e557610100808354040283529160200191613210565b820191906000526020600020905b8154815290600101906020018083116131f357829003601f168201915b505050505090506000600860008481526020019081526020016000208260405161323a91906146e1565b90815260405190819003602001902054600160a060020a031690508060005b6002546040517fb77ff41100000000000000000000000000000000000000000000000000000000815260048101879052600160a060020a039091169063b77ff41190602401602060405180830381865afa1580156132bb573d6000803e3d6000fd5b505050506040513d601f19601f820116820180604052508101906132df91906147ca565b8110156134cf5760006132f38260016146fd565b6002546040517ff50432540000000000000000000000000000000000000000000000000000000081526004810189905260248101839052919250600091600160a060020a039091169063f504325490604401602060405180830381865afa158015613362573d6000803e3d6000fd5b505050506040513d601f19601f8201168201806040525081019061338691906149ab565b6040517fe15b3ad0000000000000000000000000000000000000000000000000000000008152909150600160a060020a0385169063e15b3ad0906133d29084908b908b90600401614745565b602060405180830381865afa1580156133ef573d6000803e3d6000fd5b505050506040513d601f19601f820116820180604052508101906134139190614949565b15613498576040517f98bd7572000000000000000000000000000000000000000000000000000000008152600160a060020a038516906398bd7572906134619084908b908b90600401614745565b600060405180830381600087803b15801561347b57600080fd5b505af115801561348f573d6000803e3d6000fd5b505050506134ba565b6000878152600d60209081526040822080546001810182559083529120018290555b505080806134c7906146c6565b915050613259565b50505060009182525060046020526040902060029055565b6000805b82518110156135ef57600084815260086020526040812084516001945085908490811061351a5761351a614715565b602002602001015160006002811061353457613534614715565b602002015160405161354691906146e1565b90815260405190819003602001902054600160a060020a031614806135cf57506000848152600860205260408120845185908490811061358857613588614715565b60200260200101516001600281106135a2576135a2614715565b60200201516040516135b491906146e1565b90815260405190819003602001902054600160a060020a0316145b156135dd57600091506135ef565b806135e7816146c6565b9150506134eb565b5092915050565b600081815260018301602052604081205461363d57508154600181810184556000848152602080822090930184905584548482528286019093526040902091909155610a1f565b506000610a1f565b61364f8282611c2f565b6110665761366781600160a060020a03166014613750565b613672836020613750565b6040516020016136839291906149c8565b60408051601f198184030181529082905260e560020a62461bcd028252610b6091600401613de0565b6136b68282611c2f565b1561106657600082815260208181526040808320600160a060020a0385168085529252808320805460ff1916905551339285917ff6391f5c32d9c69d2a47ea670b442974b53935d1edc7fd64eb21e047a839171b9190a45050565b6000611c2883600160a060020a03841661399a565b600082600001828154811061373d5761373d614715565b9060005260206000200154905092915050565b6060600061375f836002614840565b61376a9060026146fd565b67ffffffffffffffff81111561378257613782613c2e565b6040519080825280601f01601f1916602001820160405280156137ac576020820181803683370190505b5090507f3000000000000000000000000000000000000000000000000000000000000000816000815181106137e3576137e3614715565b60200101907effffffffffffffffffffffffffffffffffffffffffffffffffffffffffffff1916908160001a9053507f78000000000000000000000000000000000000000000000000000000000000008160018151811061384657613846614715565b60200101907effffffffffffffffffffffffffffffffffffffffffffffffffffffffffffff1916908160001a9053506000613882846002614840565b61388d9060016146fd565b90505b6001811115613948577f303132333435363738396162636465660000000000000000000000000000000085600f16601081106138ce576138ce614715565b1a7f01000000000000000000000000000000000000000000000000000000000000000282828151811061390357613903614715565b60200101907effffffffffffffffffffffffffffffffffffffffffffffffffffffffffffff1916908160001a90535060109094049361394181614a49565b9050613890565b508315611c285760405160e560020a62461bcd02815260206004820181905260248201527f537472696e67733a20686578206c656e67746820696e73756666696369656e746044820152606401610b60565b60008181526001830160205260408120548015613a835760006139be60018361472e565b85549091506000906139d29060019061472e565b9050818114613a375760008660000182815481106139f2576139f2614715565b9060005260206000200154905080876000018481548110613a1557613a15614715565b6000918252602080832090910192909255918252600188019052604090208390555b8554869080613a4857613a48614a60565b600190038181906000526020600020016000905590558560010160008681526020019081526020016000206000905560019350505050610a1f565b6000915050610a1f565b828054828255906000526020600020908101928215613ada579160200282015b82811115613ada5782518051613aca918491602090910190613ae6565b5091602001919060010190613aad565b506112c4929150613b66565b828054613af29061466f565b90600052602060002090601f016020900481019282613b145760008555613b5a565b82601f10613b2d57805160ff1916838001178555613b5a565b82800160010185558215613b5a579182015b82811115613b5a578251825591602001919060010190613b3f565b506112c4929150613b83565b808211156112c4576000613b7a8282613b98565b50600101613b66565b5b808211156112c45760008155600101613b84565b508054613ba49061466f565b6000825580601f10613bb4575050565b601f016020900490600052602060002090810190611c0c9190613b83565b600060208284031215613be457600080fd5b8135600160e060020a031981168114611c2857600080fd5b600160a060020a0381168114611c0c57600080fd5b600060208284031215613c2357600080fd5b8135611c2881613bfc565b60e060020a634e487b7102600052604160045260246000fd5b6040805190810167ffffffffffffffff81118282101715613c6a57613c6a613c2e565b60405290565b604051601f8201601f1916810167ffffffffffffffff81118282101715613c9957613c99613c2e565b604052919050565b600067ffffffffffffffff821115613cbb57613cbb613c2e565b50601f01601f191660200190565b600082601f830112613cda57600080fd5b8135613ced613ce882613ca1565b613c70565b818152846020838601011115613d0257600080fd5b816020850160208301376000918101602001919091529392505050565b60008060408385031215613d3257600080fd5b82359150602083013567ffffffffffffffff811115613d5057600080fd5b613d5c85828601613cc9565b9150509250929050565b60008060408385031215613d7957600080fd5b50508035926020909101359150565b60005b83811015613da3578181015183820152602001613d8b565b838111156110b15750506000910152565b60008151808452613dcc816020860160208601613d88565b601f01601f19169290920160200192915050565b602081526000611c286020830184613db4565b600067ffffffffffffffff821115613e0d57613e0d613c2e565b5060209081020190565b600082601f830112613e2857600080fd5b81356020613e38613ce883613df3565b82815291810284018101918181019086841115613e5457600080fd5b8286015b84811015613e9457803567ffffffffffffffff811115613e785760008081fd5b613e868986838b0101613cc9565b845250918301918301613e58565b509695505050505050565b600082601f830112613eb057600080fd5b81356020613ec0613ce883613df3565b82815291810284018101918181019086841115613edc57600080fd5b8286015b84811015613e945780358352918301918301613ee0565b600080600080600060a08688031215613f0f57600080fd5b85359450602086013567ffffffffffffffff80821115613f2e57600080fd5b613f3a89838a01613e17565b95506040880135915080821115613f5057600080fd5b613f5c89838a01613e9f565b94506060880135915080821115613f7257600080fd5b613f7e89838a01613e17565b93506080880135915080821115613f9457600080fd5b50613fa188828901613e9f565b9150509295509295909350565b600060208083018184528085518083526040860191506040848202870101925083870160005b8281101561400257603f19888603018452613ff0858351613db4565b94509285019290850190600101613fd4565b5092979650505050505050565b60006020828403121561402157600080fd5b5035919050565b60008060006060848603121561403d57600080fd5b833561404881613bfc565b925060208401359150604084013567ffffffffffffffff81111561406b57600080fd5b61407786828701613cc9565b9150509250925092565b600082601f83011261409257600080fd5b813560206140a2613ce883613df3565b828152918102840181019181810190868411156140be57600080fd5b8286015b84811015613e945780356140d581613bfc565b83529183019183016140c2565b600080600080608085870312156140f857600080fd5b84359350602085013567ffffffffffffffff8082111561411757600080fd5b61412388838901614081565b9450604087013591508082111561413957600080fd5b5061414687828801613e9f565b949793965093946060013593505050565b60008060006060848603121561416c57600080fd5b833567ffffffffffffffff8082111561418457600080fd5b61419087838801614081565b945060208601359150808211156141a657600080fd5b506141b386828701613e17565b925050604084013590509250925092565b600080604083850312156141d757600080fd5b8235915060208301356141e981613bfc565b809150509250929050565b8035600c811061420357600080fd5b919050565b6000806000806080858703121561421e57600080fd5b843567ffffffffffffffff8082111561423657600080fd5b61424288838901613e17565b9550602091508187013561425581613bfc565b94506040870135935060608701358181111561427057600080fd5b87019050601f8101881361428357600080fd5b8035614291613ce882613df3565b8181529083028201830190838101908a8311156142ad57600080fd5b928401925b828410156142d2576142c3846141f4565b825292840192908401906142b2565b979a9699509497505050505050565b6000806000606084860312156142f657600080fd5b83359250602084013567ffffffffffffffff81111561431457600080fd5b6141b386828701613cc9565b6000806040838503121561433357600080fd5b823561433e81613bfc565b946020939093013593505050565b60008060006060848603121561436157600080fd5b83359250602084013561437381613bfc565b929592945050506040919091013590565b6000806040838503121561439757600080fd5b823567ffffffffffffffff8111156143ae57600080fd5b6143ba85828601613cc9565b95602094909401359450505050565b600080604083850312156143dc57600080fd5b82356143e781613bfc565b915060208301356141e981613bfc565b6020808252825182820181905260009190848201906040850190845b8181101561442f57835183529284019291840191600101614413565b50909695505050505050565b6000806000806080858703121561445157600080fd5b843561445c81613bfc565b9350602085013561446c81613bfc565b9250604085013567ffffffffffffffff8082111561448957600080fd5b61449588838901614081565b935060608701359150808211156144ab57600080fd5b506144b887828801613e17565b91505092959194509250565b600080604083850312156144d757600080fd5b8235915060208084013567ffffffffffffffff808211156144f757600080fd5b818601915086601f83011261450b57600080fd5b8135614519613ce882613df3565b8181529084028301840190848101908983111561453557600080fd5b8585015b838110156145c457848135111561454f57600080fd5b803586018b603f82011261456257600080fd5b61456a613c47565b808d60608401111561457b57600080fd5b8983015b606084018110156145b457888135111561459857600080fd5b6145a78f8c8335870101613cc9565b8352918a01918a0161457f565b5085525050918601918601614539565b508096505050505050509250929050565b6000806000606084860312156145ea57600080fd5b833567ffffffffffffffff81111561460157600080fd5b61460d86828701613cc9565b93505061461c602085016141f4565b9150604084013590509250925092565b60008060006060848603121561464157600080fd5b83359250602084013561465381613bfc565b9150604084013567ffffffffffffffff81111561406b57600080fd5b60028104600182168061468357607f821691505b602082108114156146a75760e060020a634e487b7102600052602260045260246000fd5b50919050565b60e060020a634e487b7102600052601160045260246000fd5b60006000198214156146da576146da6146ad565b5060010190565b600082516146f3818460208701613d88565b9190910192915050565b60008219821115614710576147106146ad565b500190565b60e060020a634e487b7102600052603260045260246000fd5b600082821015614740576147406146ad565b500390565b600160a060020a03841681528260208201526060604082015260006128206060830184613db4565b60208082526025908201527f616464726573736573202620616c696173657320646966666572656e74206c6560408201527f6e67746873000000000000000000000000000000000000000000000000000000606082015260800190565b6000602082840312156147dc57600080fd5b5051919050565b60208082526024908201527f47616d65204d6173746572206f7220466163746f727920726f6c65207265717560408201527f6972656400000000000000000000000000000000000000000000000000000000606082015260800190565b600081600019048311821515161561485a5761485a6146ad565b500290565b6000602080838503121561487257600080fd5b825167ffffffffffffffff8082111561488a57600080fd5b818501915085601f83011261489e57600080fd5b81516148ac613ce882613df3565b818152908402830184019084810190888311156148c857600080fd5b8585015b8381101561493c578051858111156148e45760008081fd5b8601603f81018b136148f65760008081fd5b878101516040614908613ce883613ca1565b8281528d8284860101111561491d5760008081fd5b61492c838c8301848701613d88565b86525050509186019186016148cc565b5098975050505050505050565b60006020828403121561495b57600080fd5b81518015158114611c2857600080fd5b6000600c851061498e5760e060020a634e487b7102600052602160045260246000fd5b848252836020830152606060408301526128206060830184613db4565b6000602082840312156149bd57600080fd5b8151611c2881613bfc565b7f416363657373436f6e74726f6c3a206163636f756e7420000000000000000000815260008351614a00816017850160208801613d88565b7f206973206d697373696e6720726f6c65200000000000000000000000000000006017918401918201528351614a3d816028840160208801613d88565b01602801949350505050565b600081614a5857614a586146ad565b506000190190565b60e060020a634e487b7102600052603160045260246000fdfe72b06b67826def9fabb513b23f7e5eb74f7ece26d25dad4006546ecf4a13763d1d93c87416ca7b54f0fb8323167b72760e8e2ec93d48660953897a150f97a8b4dfbefbf47cfe66b701d8cfdbce1de81c821590819cb07e71cb01b6602fb0ee2780e2196015fc06a9d891759f8e4f51eb314ef5e9ea068528a8ed0063b87759f0a264697066735822122068956788f89349af6dff47acb82020b6e8879fec6b3663074ddb8e6c65da6dd064736f6c634300080b0033",
  "immutableReferences": {},
  "source": "// SPDX-License-Identifier: GPL-3.0\npragma solidity >=0.7.0 <0.9.0;\n\nimport \"@luckymachines/game-core/contracts/src/v0.0/custom_boards/HexGrid.sol\";\nimport \"./HexplorationZone.sol\";\n\ncontract HexplorationBoard is HexGrid {\n    // This role is a hybrid controller, assumes on chain verification of moves before submission\n\n    uint256 private _randomness;\n    HexplorationZone internal HEX_ZONE;\n    address public characterCard;\n    address public tokenInventory;\n    // game ID => zone alias returns bool\n    mapping(uint256 => mapping(string => bool)) public zoneEnabled;\n\n    constructor(\n        address adminAddress,\n        uint256 gridWidth,\n        uint256 gridHeight,\n        address zoneAddress\n    ) HexGrid(adminAddress, gridWidth, gridHeight, zoneAddress) {\n        HEX_ZONE = HexplorationZone(zoneAddress);\n    }\n\n    function hexZoneAddress() public view returns (address) {\n        return address(HEX_ZONE);\n    }\n\n    // VERIFIED CONTROLLER functions\n    // We can assume these have been pre-verified\n    function setCharacterCard(address characterCardAddress)\n        public\n        onlyRole(DEFAULT_ADMIN_ROLE)\n    {\n        characterCard = characterCardAddress;\n    }\n\n    function setTokenInventory(address tokenInventoryAddress)\n        public\n        onlyRole(DEFAULT_ADMIN_ROLE)\n    {\n        tokenInventory = tokenInventoryAddress;\n    }\n\n    function registerPlayer(address playerAddress, uint256 gameID)\n        public\n        onlyRole(VERIFIED_CONTROLLER_ROLE)\n    {\n        PLAYER_REGISTRY.registerPlayer(playerAddress, gameID);\n    }\n\n    function lockRegistration(uint256 gameID)\n        public\n        onlyRole(VERIFIED_CONTROLLER_ROLE)\n    {\n        PLAYER_REGISTRY.lockRegistration(gameID);\n    }\n\n    function enterPlayer(\n        address playerAddress,\n        uint256 gameID,\n        string memory zone\n    ) external onlyRole(VERIFIED_CONTROLLER_ROLE) {\n        HEX_ZONE.enterPlayer(playerAddress, gameID, zone);\n    }\n\n    function exitPlayer(\n        address playerAddress,\n        uint256 gameID,\n        string memory zone\n    ) external onlyRole(VERIFIED_CONTROLLER_ROLE) {\n        HEX_ZONE.exitPlayer(playerAddress, gameID, zone);\n    }\n\n    function requestNewGame(address gameRegistryAddress)\n        external\n        onlyRole(VERIFIED_CONTROLLER_ROLE)\n    {\n        GameRegistry(gameRegistryAddress).registerGame();\n    }\n\n    function setGameState(uint256 gs, uint256 gameID)\n        external\n        onlyRole(VERIFIED_CONTROLLER_ROLE)\n    {\n        // 0 start\n        // 1 inititalizing\n        // 2 initialized\n        gameState[gameID] = gs;\n    }\n\n    function setRandomness(uint256 randomness)\n        external\n        onlyRole(VERIFIED_CONTROLLER_ROLE)\n    {\n        _randomness = randomness;\n    }\n\n    function start(uint256 gameID) public onlyRole(VERIFIED_CONTROLLER_ROLE) {\n        _gamesNeedUpdates.push(gameID);\n    }\n\n    function enableZone(\n        string memory zoneAlias,\n        HexplorationZone.Tile tile,\n        uint256 gameID\n    ) public onlyRole(VERIFIED_CONTROLLER_ROLE) {\n        if (!zoneEnabled[gameID][zoneAlias]) {\n            HEX_ZONE.setTile(tile, gameID, zoneAlias);\n            zoneEnabled[gameID][zoneAlias] = true;\n        }\n    }\n\n    // pass path and what tiles should be\n    // pass current zone as first argument\n    function moveThroughPath(\n        string[] memory zonePath,\n        address playerAddress,\n        uint256 gameID,\n        HexplorationZone.Tile[] memory tiles\n    ) external onlyRole(VERIFIED_CONTROLLER_ROLE) {\n        HEX_ZONE.exitPlayer(playerAddress, gameID, zonePath[0]);\n        HEX_ZONE.enterPlayer(\n            playerAddress,\n            gameID,\n            zonePath[zonePath.length - 1]\n        );\n        for (uint256 i = 0; i < zonePath.length; i++) {\n            enableZone(zonePath[i], tiles[i], gameID);\n        }\n    }\n}\n",
  "sourcePath": "/Users/maxmeier/Developer/Lucky Machines/hexploration/contracts/HexplorationBoard.sol",
  "compiler": {
    "name": "solc",
    "version": "0.8.11+commit.d7f03943.Emscripten.clang"
  },
  "schemaVersion": "3.4.4",
  "updatedAt": "2022-05-17T17:51:41.498Z",
  "networkType": "ethereum",
  "devdoc": {
    "kind": "dev",
    "methods": {
      "getRoleAdmin(bytes32)": {
        "details": "Returns the admin role that controls `role`. See {grantRole} and {revokeRole}. To change a role's admin, use {_setRoleAdmin}."
      },
      "getRoleMember(bytes32,uint256)": {
        "details": "Returns one of the accounts that have `role`. `index` must be a value between 0 and {getRoleMemberCount}, non-inclusive. Role bearers are not sorted in any particular way, and their ordering may change at any point. WARNING: When using {getRoleMember} and {getRoleMemberCount}, make sure you perform all queries on the same block. See the following https://forum.openzeppelin.com/t/iterating-over-elements-on-enumerableset-in-openzeppelin-contracts/2296[forum post] for more information."
      },
      "getRoleMemberCount(bytes32)": {
        "details": "Returns the number of accounts that have `role`. Can be used together with {getRoleMember} to enumerate all bearers of a role."
      },
      "grantRole(bytes32,address)": {
        "details": "Grants `role` to `account`. If `account` had not been already granted `role`, emits a {RoleGranted} event. Requirements: - the caller must have ``role``'s admin role."
      },
      "hasRole(bytes32,address)": {
        "details": "Returns `true` if `account` has been granted `role`."
      },
      "renounceRole(bytes32,address)": {
        "details": "Revokes `role` from the calling account. Roles are often managed via {grantRole} and {revokeRole}: this function's purpose is to provide a mechanism for accounts to lose their privileges if they are compromised (such as when a trusted device is misplaced). If the calling account had been revoked `role`, emits a {RoleRevoked} event. Requirements: - the caller must be `account`."
      },
      "revokeRole(bytes32,address)": {
        "details": "Revokes `role` from `account`. If `account` had been granted `role`, emits a {RoleRevoked} event. Requirements: - the caller must have ``role``'s admin role."
      },
      "supportsInterface(bytes4)": {
        "details": "See {IERC165-supportsInterface}."
      }
    },
    "version": 1
  },
  "userdoc": {
    "kind": "user",
    "methods": {},
    "version": 1
  }
}