{
  "contractName": "HexplorationStateUpdate",
  "abi": [
    {
      "inputs": [
        {
          "internalType": "address",
          "name": "gameBoardAddress",
          "type": "address"
        },
        {
          "internalType": "address",
          "name": "characterCardAddress",
          "type": "address"
        }
      ],
      "stateMutability": "nonpayable",
      "type": "constructor"
    },
    {
      "anonymous": false,
      "inputs": [
        {
          "indexed": true,
          "internalType": "bytes32",
          "name": "role",
          "type": "bytes32"
        },
        {
          "indexed": true,
          "internalType": "bytes32",
          "name": "previousAdminRole",
          "type": "bytes32"
        },
        {
          "indexed": true,
          "internalType": "bytes32",
          "name": "newAdminRole",
          "type": "bytes32"
        }
      ],
      "name": "RoleAdminChanged",
      "type": "event"
    },
    {
      "anonymous": false,
      "inputs": [
        {
          "indexed": true,
          "internalType": "bytes32",
          "name": "role",
          "type": "bytes32"
        },
        {
          "indexed": true,
          "internalType": "address",
          "name": "account",
          "type": "address"
        },
        {
          "indexed": true,
          "internalType": "address",
          "name": "sender",
          "type": "address"
        }
      ],
      "name": "RoleGranted",
      "type": "event"
    },
    {
      "anonymous": false,
      "inputs": [
        {
          "indexed": true,
          "internalType": "bytes32",
          "name": "role",
          "type": "bytes32"
        },
        {
          "indexed": true,
          "internalType": "address",
          "name": "account",
          "type": "address"
        },
        {
          "indexed": true,
          "internalType": "address",
          "name": "sender",
          "type": "address"
        }
      ],
      "name": "RoleRevoked",
      "type": "event"
    },
    {
      "inputs": [],
      "name": "DEFAULT_ADMIN_ROLE",
      "outputs": [
        {
          "internalType": "bytes32",
          "name": "",
          "type": "bytes32"
        }
      ],
      "stateMutability": "view",
      "type": "function"
    },
    {
      "inputs": [],
      "name": "VERIFIED_CONTROLLER_ROLE",
      "outputs": [
        {
          "internalType": "bytes32",
          "name": "",
          "type": "bytes32"
        }
      ],
      "stateMutability": "view",
      "type": "function"
    },
    {
      "inputs": [
        {
          "internalType": "bytes32",
          "name": "role",
          "type": "bytes32"
        }
      ],
      "name": "getRoleAdmin",
      "outputs": [
        {
          "internalType": "bytes32",
          "name": "",
          "type": "bytes32"
        }
      ],
      "stateMutability": "view",
      "type": "function"
    },
    {
      "inputs": [
        {
          "internalType": "bytes32",
          "name": "role",
          "type": "bytes32"
        },
        {
          "internalType": "uint256",
          "name": "index",
          "type": "uint256"
        }
      ],
      "name": "getRoleMember",
      "outputs": [
        {
          "internalType": "address",
          "name": "",
          "type": "address"
        }
      ],
      "stateMutability": "view",
      "type": "function"
    },
    {
      "inputs": [
        {
          "internalType": "bytes32",
          "name": "role",
          "type": "bytes32"
        }
      ],
      "name": "getRoleMemberCount",
      "outputs": [
        {
          "internalType": "uint256",
          "name": "",
          "type": "uint256"
        }
      ],
      "stateMutability": "view",
      "type": "function"
    },
    {
      "inputs": [
        {
          "internalType": "bytes32",
          "name": "role",
          "type": "bytes32"
        },
        {
          "internalType": "address",
          "name": "account",
          "type": "address"
        }
      ],
      "name": "grantRole",
      "outputs": [],
      "stateMutability": "nonpayable",
      "type": "function"
    },
    {
      "inputs": [
        {
          "internalType": "bytes32",
          "name": "role",
          "type": "bytes32"
        },
        {
          "internalType": "address",
          "name": "account",
          "type": "address"
        }
      ],
      "name": "hasRole",
      "outputs": [
        {
          "internalType": "bool",
          "name": "",
          "type": "bool"
        }
      ],
      "stateMutability": "view",
      "type": "function"
    },
    {
      "inputs": [
        {
          "internalType": "bytes32",
          "name": "role",
          "type": "bytes32"
        },
        {
          "internalType": "address",
          "name": "account",
          "type": "address"
        }
      ],
      "name": "renounceRole",
      "outputs": [],
      "stateMutability": "nonpayable",
      "type": "function"
    },
    {
      "inputs": [
        {
          "internalType": "bytes32",
          "name": "role",
          "type": "bytes32"
        },
        {
          "internalType": "address",
          "name": "account",
          "type": "address"
        }
      ],
      "name": "revokeRole",
      "outputs": [],
      "stateMutability": "nonpayable",
      "type": "function"
    },
    {
      "inputs": [
        {
          "internalType": "bytes4",
          "name": "interfaceId",
          "type": "bytes4"
        }
      ],
      "name": "supportsInterface",
      "outputs": [
        {
          "internalType": "bool",
          "name": "",
          "type": "bool"
        }
      ],
      "stateMutability": "view",
      "type": "function"
    },
    {
      "inputs": [
        {
          "internalType": "address",
          "name": "vcAddress",
          "type": "address"
        }
      ],
      "name": "addVerifiedController",
      "outputs": [],
      "stateMutability": "nonpayable",
      "type": "function"
    },
    {
      "inputs": [
        {
          "components": [
            {
              "internalType": "uint256[]",
              "name": "playerPositionIDs",
              "type": "uint256[]"
            },
            {
              "internalType": "uint256[]",
              "name": "spacesToMove",
              "type": "uint256[]"
            },
            {
              "internalType": "uint256[]",
              "name": "playerEquipIDs",
              "type": "uint256[]"
            },
            {
              "internalType": "uint256[]",
              "name": "playerEquipHands",
              "type": "uint256[]"
            },
            {
              "internalType": "uint256[]",
              "name": "zoneTransfersTo",
              "type": "uint256[]"
            },
            {
              "internalType": "uint256[]",
              "name": "zoneTransfersFrom",
              "type": "uint256[]"
            },
            {
              "internalType": "uint256[]",
              "name": "zoneTransferQtys",
              "type": "uint256[]"
            },
            {
              "internalType": "uint256[]",
              "name": "playerTransfersTo",
              "type": "uint256[]"
            },
            {
              "internalType": "uint256[]",
              "name": "playerTransfersFrom",
              "type": "uint256[]"
            },
            {
              "internalType": "uint256[]",
              "name": "playerTransferQtys",
              "type": "uint256[]"
            },
            {
              "internalType": "uint256[]",
              "name": "playerStatUpdateIDs",
              "type": "uint256[]"
            },
            {
              "internalType": "uint256[3][]",
              "name": "playerStatUpdates",
              "type": "uint256[3][]"
            },
            {
              "internalType": "uint256[]",
              "name": "playerActiveActionIDs",
              "type": "uint256[]"
            },
            {
              "internalType": "string",
              "name": "gamePhase",
              "type": "string"
            },
            {
              "internalType": "string[7][]",
              "name": "playerMovementOptions",
              "type": "string[7][]"
            },
            {
              "internalType": "string[]",
              "name": "playerEquips",
              "type": "string[]"
            },
            {
              "internalType": "string[]",
              "name": "zoneTransferItemTypes",
              "type": "string[]"
            },
            {
              "internalType": "string[]",
              "name": "playerTransferItemTypes",
              "type": "string[]"
            },
            {
              "internalType": "string[]",
              "name": "activeActions",
              "type": "string[]"
            },
            {
              "internalType": "string[]",
              "name": "activeActionOptions",
              "type": "string[]"
            }
          ],
          "internalType": "struct HexplorationGameplay.PlayUpdates",
          "name": "updates",
          "type": "tuple"
        },
        {
          "internalType": "uint256",
          "name": "gameID",
          "type": "uint256"
        }
      ],
      "name": "postUpdates",
      "outputs": [],
      "stateMutability": "nonpayable",
      "type": "function"
    },
    {
      "inputs": [
        {
          "internalType": "string[]",
          "name": "zonePath",
          "type": "string[]"
        },
        {
          "internalType": "uint256",
          "name": "gameID",
          "type": "uint256"
        },
        {
          "internalType": "uint256",
          "name": "playerID",
          "type": "uint256"
        }
      ],
      "name": "moveThroughPath",
      "outputs": [],
      "stateMutability": "nonpayable",
      "type": "function"
    }
  ],
  "bytecode": "0x60806040523480156200001157600080fd5b50604051620018b3380380620018b383398101604081905262000034916200026d565b6200005c60006200004d6401000000006200008e810204565b64010000000062000092810204565b60028054600160a060020a03938416600160a060020a03199182161790915560038054929093169116179055620002a5565b3390565b620000a78282640100000000620000ab810204565b5050565b620000c5828264010000000062000544620000f282021704565b6000828152600160205260409020620000ed9082640100000000620005c86200018e82021704565b505050565b620001078282640100000000620001b7810204565b620000a757600082815260208181526040808320600160a060020a03851684529091529020805460ff191660011790556200014a6401000000006200008e810204565b600160a060020a031681600160a060020a0316837f2f8788117e7eff1d82e926ec794901d17c78024a50270940304540a733656f0d60405160405180910390a45050565b6000620001ae83600160a060020a038416640100000000620001e0810204565b90505b92915050565b600091825260208281526040808420600160a060020a0393909316845291905290205460ff1690565b6000620001f7838364010000000062000238810204565b6200022f57508154600181810184556000848152602080822090930184905584548482528286019093526040902091909155620001b1565b506000620001b1565b60009081526001919091016020526040902054151590565b8051600160a060020a03811681146200026857600080fd5b919050565b600080604083850312156200028157600080fd5b6200028c8362000250565b91506200029c6020840162000250565b90509250929050565b6115fe80620002b56000396000f3fe608060405234801561001057600080fd5b50600436106100dc576000357c0100000000000000000000000000000000000000000000000000000000900480638c1666b9116100995780638c1666b91461018a5780639010d07c1461019d57806391d14854146101c8578063a217fddf146101db578063ca15c873146101e3578063d4f5b152146101f6578063d547741f1461020957600080fd5b806301ffc9a7146100e15780631c834a7f14610109578063248a9ca31461012c5780632f2ff15d1461014f57806336568abe14610164578063661409ff14610177575b600080fd5b6100f46100ef366004610afa565b61021c565b60405190151581526020015b60405180910390f35b61011e6000805160206115a983398151915281565b604051908152602001610100565b61011e61013a366004610b24565b60009081526020819052604090206001015490565b61016261015d366004610b59565b610260565b005b610162610172366004610b59565b61028a565b610162610185366004610d60565b61031e565b610162610198366004610f90565b610485565b6101b06101ab3660046112cc565b61049d565b604051600160a060020a039091168152602001610100565b6100f46101d6366004610b59565b6104bc565b61011e600081565b61011e6101f1366004610b24565b6104e5565b6101626102043660046112ee565b6104fc565b610162610217366004610b59565b61051f565b6000600160e060020a031982167f5a05180f00000000000000000000000000000000000000000000000000000000148061025a575061025a826105dd565b92915050565b60008281526020819052604090206001015461027b81610644565b6102858383610651565b505050565b600160a060020a03811633146103105760405160e560020a62461bcd02815260206004820152602f60248201527f416363657373436f6e74726f6c3a2063616e206f6e6c792072656e6f756e636560448201527f20726f6c657320666f722073656c66000000000000000000000000000000000060648201526084015b60405180910390fd5b61031a8282610673565b5050565b6000805160206115a983398151915261033681610644565b6000845167ffffffffffffffff81111561035257610352610b85565b60405190808252806020026020018201604052801561037b578160200160208202803683370190505b50905060005b85518110156103fc5780156103a6578060011461039f5760046103a9565b60026103a9565b60015b8282815181106103bb576103bb611309565b6020026020010190600b8111156103d4576103d4611322565b9081600b8111156103e7576103e7611322565b905250806103f481611354565b915050610381565b506002546040517f235232d0000000000000000000000000000000000000000000000000000000008152600160a060020a039091169063235232d09061044c9088908790899087906004016113cb565b600060405180830381600087803b15801561046657600080fd5b505af115801561047a573d6000803e3d6000fd5b505050505050505050565b6000805160206115a983398151915261028581610644565b60008281526001602052604081206104b59083610695565b9392505050565b600091825260208281526040808420600160a060020a0393909316845291905290205460ff1690565b600081815260016020526040812061025a906106a1565b600061050781610644565b61031a6000805160206115a983398151915283610260565b60008281526020819052604090206001015461053a81610644565b6102858383610673565b61054e82826104bc565b61031a57600082815260208181526040808320600160a060020a03851684529091529020805460ff191660011790556105843390565b600160a060020a031681600160a060020a0316837f2f8788117e7eff1d82e926ec794901d17c78024a50270940304540a733656f0d60405160405180910390a45050565b60006104b583600160a060020a0384166106ab565b6000600160e060020a031982167f7965db0b00000000000000000000000000000000000000000000000000000000148061025a57507f01ffc9a700000000000000000000000000000000000000000000000000000000600160e060020a031983161461025a565b61064e81336106fa565b50565b61065b8282610544565b600082815260016020526040902061028590826105c8565b61067d8282610761565b600082815260016020526040902061028590826107c6565b60006104b583836107db565b600061025a825490565b60008181526001830160205260408120546106f25750815460018181018455600084815260208082209093018490558454848252828601909352604090209190915561025a565b50600061025a565b61070482826104bc565b61031a5761071c81600160a060020a03166014610805565b610727836020610805565b604051602001610738929190611496565b60408051601f198184030181529082905260e560020a62461bcd02825261030791600401611517565b61076b82826104bc565b1561031a57600082815260208181526040808320600160a060020a0385168085529252808320805460ff1916905551339285917ff6391f5c32d9c69d2a47ea670b442974b53935d1edc7fd64eb21e047a839171b9190a45050565b60006104b583600160a060020a038416610a07565b60008260000182815481106107f2576107f2611309565b9060005260206000200154905092915050565b6060600061081483600261152a565b61081f906002611549565b67ffffffffffffffff81111561083757610837610b85565b6040519080825280601f01601f191660200182016040528015610861576020820181803683370190505b5090507f30000000000000000000000000000000000000000000000000000000000000008160008151811061089857610898611309565b6020010190600160f860020a031916908160001a9053507f7800000000000000000000000000000000000000000000000000000000000000816001815181106108e3576108e3611309565b6020010190600160f860020a031916908160001a905350600061090784600261152a565b610912906001611549565b90505b60018111156109b5577f303132333435363738396162636465660000000000000000000000000000000085600f166010811061095357610953611309565b1a7f01000000000000000000000000000000000000000000000000000000000000000282828151811061098857610988611309565b6020010190600160f860020a031916908160001a9053506010909404936109ae81611561565b9050610915565b5083156104b55760405160e560020a62461bcd02815260206004820181905260248201527f537472696e67733a20686578206c656e67746820696e73756666696369656e746044820152606401610307565b60008181526001830160205260408120548015610af0576000610a2b600183611578565b8554909150600090610a3f90600190611578565b9050818114610aa4576000866000018281548110610a5f57610a5f611309565b9060005260206000200154905080876000018481548110610a8257610a82611309565b6000918252602080832090910192909255918252600188019052604090208390555b8554869080610ab557610ab561158f565b60019003818190600052602060002001600090559055856001016000868152602001908152602001600020600090556001935050505061025a565b600091505061025a565b600060208284031215610b0c57600080fd5b8135600160e060020a0319811681146104b557600080fd5b600060208284031215610b3657600080fd5b5035919050565b8035600160a060020a0381168114610b5457600080fd5b919050565b60008060408385031215610b6c57600080fd5b82359150610b7c60208401610b3d565b90509250929050565b60e060020a634e487b7102600052604160045260246000fd5b604051610280810167ffffffffffffffff81118282101715610bc257610bc2610b85565b60405290565b6040516060810167ffffffffffffffff81118282101715610bc257610bc2610b85565b60405160e0810167ffffffffffffffff81118282101715610bc257610bc2610b85565b604051601f8201601f1916810167ffffffffffffffff81118282101715610c3757610c37610b85565b604052919050565b600067ffffffffffffffff821115610c5957610c59610b85565b5060209081020190565b600082601f830112610c7457600080fd5b813567ffffffffffffffff811115610c8e57610c8e610b85565b610ca1601f8201601f1916602001610c0e565b818152846020838601011115610cb657600080fd5b816020850160208301376000918101602001919091529392505050565b600082601f830112610ce457600080fd5b81356020610cf9610cf483610c3f565b610c0e565b82815291810284018101918181019086841115610d1557600080fd5b8286015b84811015610d5557803567ffffffffffffffff811115610d395760008081fd5b610d478986838b0101610c63565b845250918301918301610d19565b509695505050505050565b600080600060608486031215610d7557600080fd5b833567ffffffffffffffff811115610d8c57600080fd5b610d9886828701610cd3565b9660208601359650604090950135949350505050565b600082601f830112610dbf57600080fd5b81356020610dcf610cf483610c3f565b82815291810284018101918181019086841115610deb57600080fd5b8286015b84811015610d555780358352918301918301610def565b6000601f8381840112610e1857600080fd5b82356020610e28610cf483610c3f565b82815260609283028601820192828201919088851115610e4757600080fd5b8388015b85811015610ea5578987820112610e625760008081fd5b610e6a610bc8565b808383018c811115610e7c5760008081fd5b835b81811015610e955780358452928801928801610e7e565b5050855250928401928101610e4b565b509098975050505050505050565b600082601f830112610ec457600080fd5b81356020610ed4610cf483610c3f565b82815291810284018101918181019086841115610ef057600080fd5b8286015b84811015610d5557803567ffffffffffffffff80821115610f155760008081fd5b818901915089603f830112610f2a5760008081fd5b610f32610beb565b8061010084018c811115610f465760008081fd5b8885015b81811015610f7e57803585811115610f625760008081fd5b610f708f8c838a0101610c63565b855250928901928901610f4a565b50508652505050918301918301610ef4565b60008060408385031215610fa357600080fd5b823567ffffffffffffffff80821115610fbb57600080fd5b908401906102808287031215610fd057600080fd5b610fd8610b9e565b823582811115610fe757600080fd5b610ff388828601610dae565b82525060208301358281111561100857600080fd5b61101488828601610dae565b60208301525060408301358281111561102c57600080fd5b61103888828601610dae565b60408301525060608301358281111561105057600080fd5b61105c88828601610dae565b60608301525060808301358281111561107457600080fd5b61108088828601610dae565b60808301525060a08301358281111561109857600080fd5b6110a488828601610dae565b60a08301525060c0830135828111156110bc57600080fd5b6110c888828601610dae565b60c08301525060e0830135828111156110e057600080fd5b6110ec88828601610dae565b60e083015250610100808401358381111561110657600080fd5b61111289828701610dae565b828401525050610120808401358381111561112c57600080fd5b61113889828701610dae565b828401525050610140808401358381111561115257600080fd5b61115e89828701610dae565b828401525050610160808401358381111561117857600080fd5b61118489828701610e06565b828401525050610180808401358381111561119e57600080fd5b6111aa89828701610dae565b8284015250506101a080840135838111156111c457600080fd5b6111d089828701610c63565b8284015250506101c080840135838111156111ea57600080fd5b6111f689828701610eb3565b8284015250506101e0808401358381111561121057600080fd5b61121c89828701610cd3565b828401525050610200808401358381111561123657600080fd5b61124289828701610cd3565b828401525050610220808401358381111561125c57600080fd5b61126889828701610cd3565b828401525050610240808401358381111561128257600080fd5b61128e89828701610cd3565b82840152505061026080840135838111156112a857600080fd5b6112b489828701610cd3565b91830191909152509660209590950135955050505050565b600080604083850312156112df57600080fd5b50508035926020909101359150565b60006020828403121561130057600080fd5b6104b582610b3d565b60e060020a634e487b7102600052603260045260246000fd5b60e060020a634e487b7102600052602160045260246000fd5b60e060020a634e487b7102600052601160045260246000fd5b60006000198214156113685761136861133b565b5060010190565b60005b8381101561138a578181015183820152602001611372565b83811115611399576000848401525b50505050565b600081518084526113b781602086016020860161136f565b601f01601f19169290920160200192915050565b6000608082016080835280875180835260a0850191506020925060a0838202860101838a0160005b8381101561142157609f1988840301855261140f83835161139f565b948601949250908501906001016113f3565b505085840189905260408601889052858103606087015286518082529084019250905085830160005b82811015611487578151600c81106114755760e060020a634e487b7102600052602160045260246000fd5b8452928401929084019060010161144a565b50919998505050505050505050565b7f416363657373436f6e74726f6c3a206163636f756e74200000000000000000008152600083516114ce81601785016020880161136f565b7f206973206d697373696e6720726f6c6520000000000000000000000000000000601791840191820152835161150b81602884016020880161136f565b01602801949350505050565b6020815260006104b5602083018461139f565b60008160001904831182151516156115445761154461133b565b500290565b6000821982111561155c5761155c61133b565b500190565b6000816115705761157061133b565b506000190190565b60008282101561158a5761158a61133b565b500390565b60e060020a634e487b7102600052603160045260246000fdfe80e2196015fc06a9d891759f8e4f51eb314ef5e9ea068528a8ed0063b87759f0a26469706673582212206017fa9374bec7e70b6c677f6283db511b59a1fb9ce655b84270e9881a4f949464736f6c634300080b0033",
  "immutableReferences": {},
  "source": "// SPDX-License-Identifier: GPL-3.0\npragma solidity >=0.7.0 <0.9.0;\n\n// TODO: start using this for state updating outside of controller\n// Controller should only be used by users / UI directly sending\n// commands. This does things that can only imagine...\n\n// This should be only associated with one board...\n\nimport \"./HexplorationController.sol\";\nimport \"./HexplorationBoard.sol\";\nimport \"./decks/CardDeck.sol\";\nimport \"./state/CharacterCard.sol\";\nimport \"./HexplorationGameplay.sol\";\n\ncontract HexplorationStateUpdate is AccessControlEnumerable {\n    bytes32 public constant VERIFIED_CONTROLLER_ROLE =\n        keccak256(\"VERIFIED_CONTROLLER_ROLE\");\n    /*\n    Controller can access all game tokens with the following methods:\n\n    function mint(\n        string memory tokenType,\n        uint256 gameID,\n        uint256 quantity\n    )\n\n    function transfer(\n        string memory tokenType,\n        uint256 gameID,\n        uint256 fromID,\n        uint256 toID,\n        uint256 quantity\n    )\n*/\n    HexplorationBoard internal GAME_BOARD;\n    CharacterCard internal CHARACTER_CARD;\n    modifier onlyAdminVC() {\n        require(\n            hasRole(DEFAULT_ADMIN_ROLE, _msgSender()) ||\n                hasRole(VERIFIED_CONTROLLER_ROLE, _msgSender()),\n            \"Admin or Keeper role required\"\n        );\n        _;\n    }\n\n    // set other addresses going to need here\n    // decks, tokens?\n    constructor(address gameBoardAddress, address characterCardAddress) {\n        _setupRole(DEFAULT_ADMIN_ROLE, _msgSender());\n        GAME_BOARD = HexplorationBoard(gameBoardAddress);\n        CHARACTER_CARD = CharacterCard(characterCardAddress);\n    }\n\n    // Admin Functions\n\n    function addVerifiedController(address vcAddress)\n        public\n        onlyRole(DEFAULT_ADMIN_ROLE)\n    {\n        grantRole(VERIFIED_CONTROLLER_ROLE, vcAddress);\n    }\n\n    function postUpdates(\n        HexplorationGameplay.PlayUpdates memory updates,\n        uint256 gameID\n    ) public onlyRole(VERIFIED_CONTROLLER_ROLE) {\n        // go through values and post everything, transfer all the tokens, and pray\n        // use gamestate update contract to post everything\n        updatePlayerPositions(updates, gameID);\n        updatePlayerStats(updates, gameID);\n        updatePlayerHands(updates, gameID);\n        transferPlayerItems(updates, gameID);\n        transferZoneItems(updates, gameID);\n    }\n\n    function updatePlayerPositions(\n        HexplorationGameplay.PlayUpdates memory updates,\n        uint256 gameID\n    ) internal {\n        // TODO: set actual number here\n        uint256 maxMovementPerPlayer = 7;\n        /*\n        Update for use with PlayUpdates instead of array\n        for (uint256 i = 0; i < intUpdates[0]; i++) {\n            uint256 spacesToMove = intUpdates[(i * 2) + maxMovementPerPlayer];\n            string[] memory path = new string[](spacesToMove);\n            for (uint256 j = 0; j < spacesToMove; j++) {\n                path[j] = stringUpdates[(i * maxMovementPerPlayer) + 1 + j];\n            }\n            moveThroughPath(path, gameID, intUpdates[(i * 2) + 6]);\n        }\n        */\n    }\n\n    function updatePlayerStats(\n        HexplorationGameplay.PlayUpdates memory updates,\n        uint256 gameID\n    ) internal {}\n\n    function updatePlayerHands(\n        HexplorationGameplay.PlayUpdates memory updates,\n        uint256 gameID\n    ) internal {\n        // TODO: update to real number\n        uint256 maxMovement = 7;\n        /* update for PlayUpdates\n        uint256 currentIntIndex = 6 + (2 * intUpdates[0]);\n        uint256 currentStringIndex = 1 + (maxMovement * intUpdates[0]);\n        for (uint256 i = 0; i < intUpdates[2]; i++) {\n            uint256 playerID = intUpdates[currentIntIndex];\n            bool leftHand = intUpdates[currentIntIndex + 1] == 0;\n            if (leftHand) {\n                CHARACTER_CARD.setLeftHandItem(\n                    stringUpdates[currentStringIndex],\n                    gameID,\n                    playerID\n                );\n            } else {\n                CHARACTER_CARD.setRightHandItem(\n                    stringUpdates[currentStringIndex],\n                    gameID,\n                    playerID\n                );\n            }\n            currentIntIndex++;\n            currentStringIndex++;\n        }\n        */\n    }\n\n    function transferPlayerItems(\n        HexplorationGameplay.PlayUpdates memory updates,\n        uint256 gameID\n    ) internal {}\n\n    function transferZoneItems(\n        HexplorationGameplay.PlayUpdates memory updates,\n        uint256 gameID\n    ) internal {}\n\n    function moveThroughPath(\n        string[] memory zonePath,\n        uint256 gameID,\n        uint256 playerID\n    ) public onlyRole(VERIFIED_CONTROLLER_ROLE) {\n        //TODO: pick tiles from deck\n\n        HexplorationZone.Tile[] memory tiles = new HexplorationZone.Tile[](\n            zonePath.length\n        );\n        for (uint256 i = 0; i < zonePath.length; i++) {\n            tiles[i] = i == 0 ? HexplorationZone.Tile.Jungle : i == 1\n                ? HexplorationZone.Tile.Plains\n                : HexplorationZone.Tile.Mountain;\n        }\n\n        GAME_BOARD.moveThroughPath(zonePath, playerID, gameID, tiles);\n    }\n}\n",
  "sourcePath": "/Users/maxmeier/Developer/Lucky Machines/hexploration/contracts/HexplorationStateUpdate.sol",
  "compiler": {
    "name": "solc",
    "version": "0.8.11+commit.d7f03943.Emscripten.clang"
  },
  "schemaVersion": "3.4.4",
  "updatedAt": "2022-05-25T17:09:14.970Z",
  "devdoc": {
    "kind": "dev",
    "methods": {
      "getRoleAdmin(bytes32)": {
        "details": "Returns the admin role that controls `role`. See {grantRole} and {revokeRole}. To change a role's admin, use {_setRoleAdmin}."
      },
      "getRoleMember(bytes32,uint256)": {
        "details": "Returns one of the accounts that have `role`. `index` must be a value between 0 and {getRoleMemberCount}, non-inclusive. Role bearers are not sorted in any particular way, and their ordering may change at any point. WARNING: When using {getRoleMember} and {getRoleMemberCount}, make sure you perform all queries on the same block. See the following https://forum.openzeppelin.com/t/iterating-over-elements-on-enumerableset-in-openzeppelin-contracts/2296[forum post] for more information."
      },
      "getRoleMemberCount(bytes32)": {
        "details": "Returns the number of accounts that have `role`. Can be used together with {getRoleMember} to enumerate all bearers of a role."
      },
      "grantRole(bytes32,address)": {
        "details": "Grants `role` to `account`. If `account` had not been already granted `role`, emits a {RoleGranted} event. Requirements: - the caller must have ``role``'s admin role."
      },
      "hasRole(bytes32,address)": {
        "details": "Returns `true` if `account` has been granted `role`."
      },
      "renounceRole(bytes32,address)": {
        "details": "Revokes `role` from the calling account. Roles are often managed via {grantRole} and {revokeRole}: this function's purpose is to provide a mechanism for accounts to lose their privileges if they are compromised (such as when a trusted device is misplaced). If the calling account had been revoked `role`, emits a {RoleRevoked} event. Requirements: - the caller must be `account`."
      },
      "revokeRole(bytes32,address)": {
        "details": "Revokes `role` from `account`. If `account` had been granted `role`, emits a {RoleRevoked} event. Requirements: - the caller must have ``role``'s admin role."
      },
      "supportsInterface(bytes4)": {
        "details": "See {IERC165-supportsInterface}."
      }
    },
    "version": 1
  },
  "userdoc": {
    "kind": "user",
    "methods": {},
    "version": 1
  }
}