{
  "contractName": "HexplorationQueue",
  "abi": [
    {
      "inputs": [
        {
          "internalType": "address",
          "name": "gameplayAddress",
          "type": "address"
        },
        {
          "internalType": "address",
          "name": "characterCard",
          "type": "address"
        },
        {
          "internalType": "uint64",
          "name": "_vrfSubscriptionID",
          "type": "uint64"
        },
        {
          "internalType": "address",
          "name": "_vrfCoordinator",
          "type": "address"
        },
        {
          "internalType": "bytes32",
          "name": "_keyHash",
          "type": "bytes32"
        }
      ],
      "stateMutability": "nonpayable",
      "type": "constructor"
    },
    {
      "inputs": [
        {
          "internalType": "address",
          "name": "have",
          "type": "address"
        },
        {
          "internalType": "address",
          "name": "want",
          "type": "address"
        }
      ],
      "name": "OnlyCoordinatorCanFulfill",
      "type": "error"
    },
    {
      "anonymous": false,
      "inputs": [
        {
          "indexed": true,
          "internalType": "uint256",
          "name": "gameID",
          "type": "uint256"
        },
        {
          "indexed": false,
          "internalType": "uint256",
          "name": "timeStamp",
          "type": "uint256"
        },
        {
          "indexed": false,
          "internalType": "enum HexplorationQueue.ProcessingPhase",
          "name": "newPhase",
          "type": "uint8"
        }
      ],
      "name": "ProcessingPhaseChange",
      "type": "event"
    },
    {
      "anonymous": false,
      "inputs": [
        {
          "indexed": true,
          "internalType": "bytes32",
          "name": "role",
          "type": "bytes32"
        },
        {
          "indexed": true,
          "internalType": "bytes32",
          "name": "previousAdminRole",
          "type": "bytes32"
        },
        {
          "indexed": true,
          "internalType": "bytes32",
          "name": "newAdminRole",
          "type": "bytes32"
        }
      ],
      "name": "RoleAdminChanged",
      "type": "event"
    },
    {
      "anonymous": false,
      "inputs": [
        {
          "indexed": true,
          "internalType": "bytes32",
          "name": "role",
          "type": "bytes32"
        },
        {
          "indexed": true,
          "internalType": "address",
          "name": "account",
          "type": "address"
        },
        {
          "indexed": true,
          "internalType": "address",
          "name": "sender",
          "type": "address"
        }
      ],
      "name": "RoleGranted",
      "type": "event"
    },
    {
      "anonymous": false,
      "inputs": [
        {
          "indexed": true,
          "internalType": "bytes32",
          "name": "role",
          "type": "bytes32"
        },
        {
          "indexed": true,
          "internalType": "address",
          "name": "account",
          "type": "address"
        },
        {
          "indexed": true,
          "internalType": "address",
          "name": "sender",
          "type": "address"
        }
      ],
      "name": "RoleRevoked",
      "type": "event"
    },
    {
      "inputs": [],
      "name": "DEFAULT_ADMIN_ROLE",
      "outputs": [
        {
          "internalType": "bytes32",
          "name": "",
          "type": "bytes32"
        }
      ],
      "stateMutability": "view",
      "type": "function",
      "constant": true
    },
    {
      "inputs": [],
      "name": "GAMEPLAY_ROLE",
      "outputs": [
        {
          "internalType": "bytes32",
          "name": "",
          "type": "bytes32"
        }
      ],
      "stateMutability": "view",
      "type": "function",
      "constant": true
    },
    {
      "inputs": [],
      "name": "VERIFIED_CONTROLLER_ROLE",
      "outputs": [
        {
          "internalType": "bytes32",
          "name": "",
          "type": "bytes32"
        }
      ],
      "stateMutability": "view",
      "type": "function",
      "constant": true
    },
    {
      "inputs": [
        {
          "internalType": "uint256",
          "name": "",
          "type": "uint256"
        },
        {
          "internalType": "uint256",
          "name": "",
          "type": "uint256"
        }
      ],
      "name": "activeAction",
      "outputs": [
        {
          "internalType": "enum HexplorationQueue.Action",
          "name": "",
          "type": "uint8"
        }
      ],
      "stateMutability": "view",
      "type": "function",
      "constant": true
    },
    {
      "inputs": [
        {
          "internalType": "uint256",
          "name": "",
          "type": "uint256"
        }
      ],
      "name": "currentPhase",
      "outputs": [
        {
          "internalType": "enum HexplorationQueue.ProcessingPhase",
          "name": "",
          "type": "uint8"
        }
      ],
      "stateMutability": "view",
      "type": "function",
      "constant": true
    },
    {
      "inputs": [
        {
          "internalType": "uint256",
          "name": "",
          "type": "uint256"
        }
      ],
      "name": "currentQueuePosition",
      "outputs": [
        {
          "internalType": "uint16",
          "name": "",
          "type": "uint16"
        }
      ],
      "stateMutability": "view",
      "type": "function",
      "constant": true
    },
    {
      "inputs": [
        {
          "internalType": "uint256",
          "name": "",
          "type": "uint256"
        }
      ],
      "name": "game",
      "outputs": [
        {
          "internalType": "uint256",
          "name": "",
          "type": "uint256"
        }
      ],
      "stateMutability": "view",
      "type": "function",
      "constant": true
    },
    {
      "inputs": [
        {
          "internalType": "bytes32",
          "name": "role",
          "type": "bytes32"
        }
      ],
      "name": "getRoleAdmin",
      "outputs": [
        {
          "internalType": "bytes32",
          "name": "",
          "type": "bytes32"
        }
      ],
      "stateMutability": "view",
      "type": "function",
      "constant": true
    },
    {
      "inputs": [
        {
          "internalType": "bytes32",
          "name": "role",
          "type": "bytes32"
        },
        {
          "internalType": "uint256",
          "name": "index",
          "type": "uint256"
        }
      ],
      "name": "getRoleMember",
      "outputs": [
        {
          "internalType": "address",
          "name": "",
          "type": "address"
        }
      ],
      "stateMutability": "view",
      "type": "function",
      "constant": true
    },
    {
      "inputs": [
        {
          "internalType": "bytes32",
          "name": "role",
          "type": "bytes32"
        }
      ],
      "name": "getRoleMemberCount",
      "outputs": [
        {
          "internalType": "uint256",
          "name": "",
          "type": "uint256"
        }
      ],
      "stateMutability": "view",
      "type": "function",
      "constant": true
    },
    {
      "inputs": [
        {
          "internalType": "bytes32",
          "name": "role",
          "type": "bytes32"
        },
        {
          "internalType": "address",
          "name": "account",
          "type": "address"
        }
      ],
      "name": "grantRole",
      "outputs": [],
      "stateMutability": "nonpayable",
      "type": "function"
    },
    {
      "inputs": [
        {
          "internalType": "bytes32",
          "name": "role",
          "type": "bytes32"
        },
        {
          "internalType": "address",
          "name": "account",
          "type": "address"
        }
      ],
      "name": "hasRole",
      "outputs": [
        {
          "internalType": "bool",
          "name": "",
          "type": "bool"
        }
      ],
      "stateMutability": "view",
      "type": "function",
      "constant": true
    },
    {
      "inputs": [
        {
          "internalType": "uint256",
          "name": "",
          "type": "uint256"
        }
      ],
      "name": "inProcessingQueue",
      "outputs": [
        {
          "internalType": "bool",
          "name": "",
          "type": "bool"
        }
      ],
      "stateMutability": "view",
      "type": "function",
      "constant": true
    },
    {
      "inputs": [
        {
          "internalType": "uint256",
          "name": "",
          "type": "uint256"
        }
      ],
      "name": "playThroughPosition",
      "outputs": [
        {
          "internalType": "uint16",
          "name": "",
          "type": "uint16"
        }
      ],
      "stateMutability": "view",
      "type": "function",
      "constant": true
    },
    {
      "inputs": [
        {
          "internalType": "uint256",
          "name": "",
          "type": "uint256"
        },
        {
          "internalType": "uint256",
          "name": "",
          "type": "uint256"
        },
        {
          "internalType": "uint256",
          "name": "",
          "type": "uint256"
        }
      ],
      "name": "playerStatsAtSubmission",
      "outputs": [
        {
          "internalType": "uint8",
          "name": "",
          "type": "uint8"
        }
      ],
      "stateMutability": "view",
      "type": "function",
      "constant": true
    },
    {
      "inputs": [
        {
          "internalType": "uint256",
          "name": "",
          "type": "uint256"
        },
        {
          "internalType": "uint256",
          "name": "",
          "type": "uint256"
        }
      ],
      "name": "playerSubmitted",
      "outputs": [
        {
          "internalType": "bool",
          "name": "",
          "type": "bool"
        }
      ],
      "stateMutability": "view",
      "type": "function",
      "constant": true
    },
    {
      "inputs": [
        {
          "internalType": "uint256",
          "name": "",
          "type": "uint256"
        },
        {
          "internalType": "uint256",
          "name": "",
          "type": "uint256"
        }
      ],
      "name": "players",
      "outputs": [
        {
          "internalType": "uint256",
          "name": "",
          "type": "uint256"
        }
      ],
      "stateMutability": "view",
      "type": "function",
      "constant": true
    },
    {
      "inputs": [
        {
          "internalType": "uint256",
          "name": "",
          "type": "uint256"
        }
      ],
      "name": "processingQueue",
      "outputs": [
        {
          "internalType": "uint256",
          "name": "",
          "type": "uint256"
        }
      ],
      "stateMutability": "view",
      "type": "function",
      "constant": true
    },
    {
      "inputs": [
        {
          "internalType": "uint256",
          "name": "",
          "type": "uint256"
        }
      ],
      "name": "queueID",
      "outputs": [
        {
          "internalType": "uint256",
          "name": "",
          "type": "uint256"
        }
      ],
      "stateMutability": "view",
      "type": "function",
      "constant": true
    },
    {
      "inputs": [
        {
          "internalType": "uint256",
          "name": "",
          "type": "uint256"
        }
      ],
      "name": "randomness",
      "outputs": [
        {
          "internalType": "uint256",
          "name": "",
          "type": "uint256"
        }
      ],
      "stateMutability": "view",
      "type": "function",
      "constant": true
    },
    {
      "inputs": [
        {
          "internalType": "uint256",
          "name": "requestId",
          "type": "uint256"
        },
        {
          "internalType": "uint256[]",
          "name": "randomWords",
          "type": "uint256[]"
        }
      ],
      "name": "rawFulfillRandomWords",
      "outputs": [],
      "stateMutability": "nonpayable",
      "type": "function"
    },
    {
      "inputs": [
        {
          "internalType": "bytes32",
          "name": "role",
          "type": "bytes32"
        },
        {
          "internalType": "address",
          "name": "account",
          "type": "address"
        }
      ],
      "name": "renounceRole",
      "outputs": [],
      "stateMutability": "nonpayable",
      "type": "function"
    },
    {
      "inputs": [
        {
          "internalType": "bytes32",
          "name": "role",
          "type": "bytes32"
        },
        {
          "internalType": "address",
          "name": "account",
          "type": "address"
        }
      ],
      "name": "revokeRole",
      "outputs": [],
      "stateMutability": "nonpayable",
      "type": "function"
    },
    {
      "inputs": [
        {
          "internalType": "uint256",
          "name": "",
          "type": "uint256"
        },
        {
          "internalType": "uint256",
          "name": "",
          "type": "uint256"
        }
      ],
      "name": "submissionAction",
      "outputs": [
        {
          "internalType": "enum HexplorationQueue.Action",
          "name": "",
          "type": "uint8"
        }
      ],
      "stateMutability": "view",
      "type": "function",
      "constant": true
    },
    {
      "inputs": [
        {
          "internalType": "uint256",
          "name": "",
          "type": "uint256"
        },
        {
          "internalType": "uint256",
          "name": "",
          "type": "uint256"
        }
      ],
      "name": "submissionLeftHand",
      "outputs": [
        {
          "internalType": "string",
          "name": "",
          "type": "string"
        }
      ],
      "stateMutability": "view",
      "type": "function",
      "constant": true
    },
    {
      "inputs": [
        {
          "internalType": "uint256",
          "name": "",
          "type": "uint256"
        },
        {
          "internalType": "uint256",
          "name": "",
          "type": "uint256"
        },
        {
          "internalType": "uint256",
          "name": "",
          "type": "uint256"
        }
      ],
      "name": "submissionOptions",
      "outputs": [
        {
          "internalType": "string",
          "name": "",
          "type": "string"
        }
      ],
      "stateMutability": "view",
      "type": "function",
      "constant": true
    },
    {
      "inputs": [
        {
          "internalType": "uint256",
          "name": "",
          "type": "uint256"
        },
        {
          "internalType": "uint256",
          "name": "",
          "type": "uint256"
        }
      ],
      "name": "submissionRightHand",
      "outputs": [
        {
          "internalType": "string",
          "name": "",
          "type": "string"
        }
      ],
      "stateMutability": "view",
      "type": "function",
      "constant": true
    },
    {
      "inputs": [
        {
          "internalType": "bytes4",
          "name": "interfaceId",
          "type": "bytes4"
        }
      ],
      "name": "supportsInterface",
      "outputs": [
        {
          "internalType": "bool",
          "name": "",
          "type": "bool"
        }
      ],
      "stateMutability": "view",
      "type": "function",
      "constant": true
    },
    {
      "inputs": [
        {
          "internalType": "uint256",
          "name": "",
          "type": "uint256"
        }
      ],
      "name": "totalPlayers",
      "outputs": [
        {
          "internalType": "uint256",
          "name": "",
          "type": "uint256"
        }
      ],
      "stateMutability": "view",
      "type": "function",
      "constant": true
    },
    {
      "inputs": [
        {
          "internalType": "address",
          "name": "controllerAddress",
          "type": "address"
        }
      ],
      "name": "addVerifiedController",
      "outputs": [],
      "stateMutability": "nonpayable",
      "type": "function"
    },
    {
      "inputs": [
        {
          "internalType": "uint256",
          "name": "gameID",
          "type": "uint256"
        },
        {
          "internalType": "uint256",
          "name": "_totalPlayers",
          "type": "uint256"
        }
      ],
      "name": "requestGameQueue",
      "outputs": [
        {
          "internalType": "uint256",
          "name": "",
          "type": "uint256"
        }
      ],
      "stateMutability": "nonpayable",
      "type": "function"
    },
    {
      "inputs": [
        {
          "internalType": "uint256",
          "name": "_queueID",
          "type": "uint256"
        }
      ],
      "name": "startGame",
      "outputs": [],
      "stateMutability": "nonpayable",
      "type": "function"
    },
    {
      "inputs": [
        {
          "internalType": "uint256",
          "name": "playerID",
          "type": "uint256"
        },
        {
          "internalType": "uint8",
          "name": "action",
          "type": "uint8"
        },
        {
          "internalType": "string[]",
          "name": "options",
          "type": "string[]"
        },
        {
          "internalType": "string",
          "name": "leftHand",
          "type": "string"
        },
        {
          "internalType": "string",
          "name": "rightHand",
          "type": "string"
        },
        {
          "internalType": "uint256",
          "name": "_queueID",
          "type": "uint256"
        }
      ],
      "name": "sumbitActionForPlayer",
      "outputs": [],
      "stateMutability": "nonpayable",
      "type": "function"
    },
    {
      "inputs": [
        {
          "internalType": "uint256",
          "name": "_queueID",
          "type": "uint256"
        }
      ],
      "name": "requestProcessActions",
      "outputs": [],
      "stateMutability": "nonpayable",
      "type": "function"
    },
    {
      "inputs": [
        {
          "internalType": "uint256",
          "name": "_queueID",
          "type": "uint256"
        }
      ],
      "name": "getAllPlayers",
      "outputs": [
        {
          "internalType": "uint256[]",
          "name": "",
          "type": "uint256[]"
        }
      ],
      "stateMutability": "view",
      "type": "function",
      "constant": true
    },
    {
      "inputs": [
        {
          "internalType": "uint256",
          "name": "_queueID",
          "type": "uint256"
        },
        {
          "internalType": "uint256",
          "name": "_playerID",
          "type": "uint256"
        }
      ],
      "name": "getSubmissionOptions",
      "outputs": [
        {
          "internalType": "string[]",
          "name": "",
          "type": "string[]"
        }
      ],
      "stateMutability": "view",
      "type": "function",
      "constant": true
    },
    {
      "inputs": [
        {
          "internalType": "uint256",
          "name": "_queueID",
          "type": "uint256"
        },
        {
          "internalType": "uint256",
          "name": "_playerID",
          "type": "uint256"
        }
      ],
      "name": "getStatsAtSubmission",
      "outputs": [
        {
          "internalType": "uint8[3]",
          "name": "",
          "type": "uint8[3]"
        }
      ],
      "stateMutability": "view",
      "type": "function",
      "constant": true
    },
    {
      "inputs": [],
      "name": "getProcessingQueue",
      "outputs": [
        {
          "internalType": "uint256[]",
          "name": "",
          "type": "uint256[]"
        }
      ],
      "stateMutability": "view",
      "type": "function",
      "constant": true
    },
    {
      "inputs": [
        {
          "internalType": "enum HexplorationQueue.ProcessingPhase",
          "name": "phase",
          "type": "uint8"
        },
        {
          "internalType": "uint256",
          "name": "_queueID",
          "type": "uint256"
        }
      ],
      "name": "setPhase",
      "outputs": [],
      "stateMutability": "nonpayable",
      "type": "function"
    },
    {
      "inputs": [
        {
          "internalType": "uint256",
          "name": "randomNumber",
          "type": "uint256"
        },
        {
          "internalType": "uint256",
          "name": "_queueID",
          "type": "uint256"
        }
      ],
      "name": "setRandomNumber",
      "outputs": [],
      "stateMutability": "nonpayable",
      "type": "function"
    },
    {
      "inputs": [
        {
          "internalType": "uint256",
          "name": "_queueID",
          "type": "uint256"
        }
      ],
      "name": "requestNewQueueID",
      "outputs": [],
      "stateMutability": "nonpayable",
      "type": "function"
    },
    {
      "inputs": [
        {
          "internalType": "uint256",
          "name": "_queueID",
          "type": "uint256"
        },
        {
          "internalType": "bool",
          "name": "gameComplete",
          "type": "bool"
        }
      ],
      "name": "finishProcessing",
      "outputs": [],
      "stateMutability": "nonpayable",
      "type": "function"
    }
  ],
  "bytecode": "0x60a0604052600680546001605060020a03191666010003000186a01790553480156200002a57600080fd5b50604051620028e1380380620028e18339810160408190526200004d916200033d565b600160a060020a0382166080526200008260006200007364010000000062000155810204565b64010000000062000159810204565b620000b77f0c2c7e957bdf811d5a896b04e816b9c382dfb980c93b21b0288b75c85d598acd8664010000000062000159810204565b620000d16002640100000000620011756200017282021704565b60038054600160a060020a03958616600160a060020a03199182161790915560048054600593909355929094166001604060020a0390931674010000000000000000000000000000000000000000029093167fffffffff000000000000000000000000000000000000000000000000000000009093169290921717905550620003b1565b3390565b6200016e82826401000000006200017b810204565b5050565b80546001019055565b6200019582826401000000006200117e620001c282021704565b6000828152600160205260409020620001bd9082640100000000620012026200025e82021704565b505050565b620001d7828264010000000062000287810204565b6200016e57600082815260208181526040808320600160a060020a03851684529091529020805460ff191660011790556200021a64010000000062000155810204565b600160a060020a031681600160a060020a0316837f2f8788117e7eff1d82e926ec794901d17c78024a50270940304540a733656f0d60405160405180910390a45050565b60006200027e83600160a060020a038416640100000000620002b0810204565b90505b92915050565b600091825260208281526040808420600160a060020a0393909316845291905290205460ff1690565b6000620002c7838364010000000062000308810204565b620002ff5750815460018181018455600084815260208082209093018490558454848252828601909352604090209190915562000281565b50600062000281565b60009081526001919091016020526040902054151590565b8051600160a060020a03811681146200033857600080fd5b919050565b600080600080600060a086880312156200035657600080fd5b620003618662000320565b9450620003716020870162000320565b935060408601516001604060020a03811681146200038e57600080fd5b92506200039e6060870162000320565b9150608086015190509295509295909350565b60805161250d620003d460003960008181610943015261099e015261250d6000f3fe608060405234801561001057600080fd5b506004361061027b576000357c01000000000000000000000000000000000000000000000000000000009004806391d1485411610163578063af7afe56116100e0578063d547741f116100a4578063d547741f14610675578063d809371f14610688578063e2f315c11461069b578063e5ed1d59146106bf578063e73ed37f146106d2578063fd82e21f1461070057600080fd5b8063af7afe56146105df578063b1fb6405146105ff578063ca15c8731461062f578063cddbe72914610642578063d4f5b1521461066257600080fd5b8063a217fddf11610127578063a217fddf14610571578063a2dc586014610579578063ac01b83d14610599578063ae1305dd146105ac578063ae6a7056146105cc57600080fd5b806391d1485414610502578063998f1b80146105155780639b8e6819146105285780639bd78d2b1461053b5780639f6bc61d1461055e57600080fd5b8063248a9ca3116101fc5780635da4fabc116101c05780635da4fabc146104505780636b775e5c146104635780637f04159114610476578063861814e2146104a45780638e6e1d89146104c45780639010d07c146104d757600080fd5b8063248a9ca3146103cd57806328d6b4c0146103f05780632e460122146104055780632f2ff15d1461042a57806336568abe1461043d57600080fd5b80631a897239116102435780631a897239146103505780631b1d5b27146103655780631b341b3e146103855780631c834a7f146103a55780631fe543e3146103ba57600080fd5b806301ffc9a71461028057806304ac8fee146102a857806306fb5527146102bd5780630c6ea531146102de578063181ad5e714610315575b600080fd5b61029361028e366004611cbd565b610713565b60405190151581526020015b60405180910390f35b6102bb6102b6366004611ce7565b610757565b005b6102d06102cb366004611d17565b6107ee565b60405190815260200161029f565b6103026102ec366004611d39565b60086020526000908152604090205461ffff1681565b60405161ffff909116815260200161029f565b610343610323366004611d17565b601760209081526000928352604080842090915290825290205460ff1681565b60405161029f9190611d6b565b61035861081a565b60405161029f9190611d85565b6102d0610373366004611d39565b60106020526000908152604090205481565b610398610393366004611dc9565b610872565b60405161029f9190611e51565b6102d06000805160206124b883398151915281565b6102bb6103c8366004611ed2565b610938565b6102d06103db366004611d39565b60009081526020819052604090206001015490565b6102d060008051602061249883398151915281565b610418610413366004611dc9565b6109de565b60405160ff909116815260200161029f565b6102bb610438366004611f8d565b610a24565b6102bb61044b366004611f8d565b610a4e565b6102bb61045e366004611d17565b610ad9565b6102bb610471366004611d39565b610b03565b610343610484366004611d17565b601160209081526000928352604080842090915290825290205460ff1681565b6102d06104b2366004611d39565b600a6020526000908152604090205481565b6102bb6104d2366004611fb9565b610b24565b6104ea6104e5366004611d17565b610b46565b604051600160a060020a03909116815260200161029f565b610293610510366004611f8d565b610b65565b6102d0610523366004611d17565b610b8e565b610398610536366004611d17565b610bbf565b610293610549366004611d39565b600b6020526000908152604090205460ff1681565b6102d061056c366004611d39565b610be3565b6102d0600081565b61058c610587366004611d17565b610c04565b60405161029f9190611fee565b6103586105a7366004611d39565b610cf2565b6105bf6105ba366004611d17565b610d54565b60405161029f919061204f565b6102bb6105da366004612102565b610dc4565b6102d06105ed366004611d39565b600f6020526000908152604090205481565b61062261060d366004611d39565b600c6020526000908152604090205460ff1681565b60405161029f9190612230565b6102d061063d366004611d39565b611069565b6102d0610650366004611d39565b600d6020526000908152604090205481565b6102bb61067036600461223e565b611080565b6102bb610683366004611f8d565b6110a3565b6102bb610696366004611d39565b6110c8565b6103026106a9366004611d39565b60096020526000908152604090205461ffff1681565b6102bb6106cd366004611d39565b61111d565b6102936106e0366004611d17565b601560209081526000928352604080842090915290825290205460ff1681565b61039861070e366004611d17565b611151565b6000600160e060020a031982167f5a05180f000000000000000000000000000000000000000000000000000000001480610751575061075182611217565b92915050565b60008051602061249883398151915261076f8161127e565b6000828152600c60205260409020805484919060ff1916600183600581111561079a5761079a611d52565b02179055506000828152600d6020526040908190205490517fa02d5dc60884a37771a3331fbc070c0958bab3d9e9d1eb9491721be43a9ffba7906107e19042908790612259565b60405180910390a2505050565b60006000805160206124b88339815191526108088161127e565b610812848461128b565b949350505050565b6060600780548060200260200160405190810160405280929190818152602001828054801561086857602002820191906000526020600020905b815481526020019060010190808311610854575b5050505050905090565b6012602052826000526040600020602052816000526040600020818154811061089a57600080fd5b90600052602060002001600092509250505080546108b79061226d565b80601f01602080910402602001604051908101604052809291908181526020018280546108e39061226d565b80156109305780601f1061090557610100808354040283529160200191610930565b820191906000526020600020905b81548152906001019060200180831161091357829003601f168201915b505050505081565b33600160a060020a037f000000000000000000000000000000000000000000000000000000000000000016146109d0576040517f1cf993f4000000000000000000000000000000000000000000000000000000008152336004820152600160a060020a037f00000000000000000000000000000000000000000000000000000000000000001660248201526044015b60405180910390fd5b6109da8282611333565b5050565b60166020528260005260406000206020528160005260406000208160038110610a0657600080fd5b602081049091015460ff601f9092166101000a900416925083915050565b600082815260208190526040902060010154610a3f8161127e565b610a498383611374565b505050565b600160a060020a0381163314610acf5760405160e560020a62461bcd02815260206004820152602f60248201527f416363657373436f6e74726f6c3a2063616e206f6e6c792072656e6f756e636560448201527f20726f6c657320666f722073656c66000000000000000000000000000000000060648201526084016109c7565b6109da8282611396565b600080516020612498833981519152610af18161127e565b50600090815260106020526040902055565b6000805160206124b8833981519152610b1b8161127e565b6109da826113b8565b600080516020612498833981519152610b3c8161127e565b610a498383611467565b6000828152600160205260408120610b5e9083611566565b9392505050565b600091825260208281526040808420600160a060020a0393909316845291905290205460ff1690565b600e6020528160005260406000208181548110610baa57600080fd5b90600052602060002001600091509150505481565b6014602090815260009283526040808420909152908252902080546108b79061226d565b60078181548110610bf357600080fd5b600091825260209091200154905081565b60008281526012602090815260408083208484528252808320805482518185028101850190935280835260609492939192909184015b82821015610ce6578382906000526020600020018054610c599061226d565b80601f0160208091040260200160405190810160405280929190818152602001828054610c859061226d565b8015610cd25780601f10610ca757610100808354040283529160200191610cd2565b820191906000526020600020905b815481529060010190602001808311610cb557829003601f168201915b505050505081526020019060010190610c3a565b50505050905092915050565b6000818152600e6020908152604091829020805483518184028101840190945280845260609392830182828015610d4857602002820191906000526020600020905b815481526020019060010190808311610d34575b50505050509050919050565b610d5c611ac8565b6000838152601660209081526040808320858452909152808220815160608101928390529290916003918390855b825461010083900a900460ff16815260206001928301818104948501949093039092029101808411610d8a57509498975050505050505050565b6000805160206124b8833981519152610ddc8161127e565b60016000838152600c602052604090205460ff166005811115610e0157610e01611d52565b14610e515760405160e560020a62461bcd02815260206004820152601460248201527f4e6f74207375626d697373696f6e20706861736500000000000000000000000060448201526064016109c7565b60008281526015602090815260408083208a845290915290205460ff16611060578560ff166006811115610e8757610e87611d52565b60008381526011602090815260408083208b84529091529020805460ff19166001836006811115610eba57610eba611d52565b021790555060008281526012602090815260408083208a845282529091208651610ee692880190611ae6565b5060008281526013602090815260408083208a845282529091208551610f0e92870190611b43565b5060008281526014602090815260408083208a845282529091208451610f3692860190611b43565b506000828152600e602081815260408084208054600181810183558287528487209091018d9055878652601584528286208d87528452828620805460ff19169091179055868552600f8352932054919052905410610f9757610f97826113b8565b6003546000838152600d6020526040908190205490517fbb47c9b3000000000000000000000000000000000000000000000000000000008152600160a060020a039092169163bb47c9b391610ff9918b90600401918252602082015260400190565b606060405180830381865afa158015611016573d6000803e3d6000fd5b505050506040513d601f19601f8201168201806040525081019061103a91906122ab565b60008381526016602090815260408083208b8452909152902061105e916003611bc3565b505b50505050505050565b600081815260016020526040812061075190611572565b600061108b8161127e565b6109da6000805160206124b883398151915283610a24565b6000828152602081905260409020600101546110be8161127e565b610a498383611396565b6000805160206124988339815191526110e08161127e565b6000828152600d6020908152604080832054600f90925290912054611105828261128b565b6000928352600a602052604090922091909155505050565b6000805160206124b88339815191526111358161127e565b506000908152600c60205260409020805460ff19166001179055565b6013602090815260009283526040808420909152908252902080546108b79061226d565b80546001019055565b6111888282610b65565b6109da57600082815260208181526040808320600160a060020a03851684529091529020805460ff191660011790556111be3390565b600160a060020a031681600160a060020a0316837f2f8788117e7eff1d82e926ec794901d17c78024a50270940304540a733656f0d60405160405180910390a45050565b6000610b5e83600160a060020a03841661157c565b6000600160e060020a031982167f7965db0b00000000000000000000000000000000000000000000000000000000148061075157507f01ffc9a700000000000000000000000000000000000000000000000000000000600160e060020a0319831614610751565b61128881336115cb565b50565b6000828152600a6020526040812054156112ea5760405160e560020a62461bcd02815260206004820152601160248201527f717565756520616c72656164792073657400000000000000000000000000000060448201526064016109c7565b60006112f560025490565b6000818152600d60209081526040808320889055878352600a8252808320849055838352600f90915290208490559050610b5e600280546001019055565b60008281526018602052604081205482519091839161135457611354612332565b602090810291909101810151600092835260109091526040909120555050565b61137e828261117e565b6000828152600160205260409020610a499082611202565b6113a08282611632565b6000828152600160205260409020610a499082611697565b6000818152600b602052604090205460ff161580156113f9575060016000828152600c602052604090205460ff1660058111156113f7576113f7611d52565b145b15611288576007805460018082019092557fa66cc928b5edb82af9bd49922954155ab7b0942694bea4ce44661d9a8736c688018290556000828152600b60209081526040808320805460ff199081169095179055600c909152902080549091166002179055611288816116ac565b6000828152600d6020908152604080832054600c8352818420805460ff19908116600417909155818552600a8452828520859055868552600b9093529083208054909216909155905b6007548110156115175783600782815481106114ce576114ce612332565b90600052602060002001541415611505576000600782815481106114f4576114f4612332565b600091825260209091200155611517565b8061150f81612364565b9150506114b0565b5081610a49576000838152600f602052604081205490611537838361128b565b6000938452600a60209081526040808620839055918552600c9052909220805460ff1916600117905550505050565b6000610b5e83836117a9565b6000610751825490565b60008181526001830160205260408120546115c357508154600181810184556000848152602080822090930184905584548482528286019093526040902091909155610751565b506000610751565b6115d58282610b65565b6109da576115ed81600160a060020a031660146117d3565b6115f88360206117d3565b60405160200161160992919061237f565b60408051601f198184030181529082905260e560020a62461bcd0282526109c791600401611e51565b61163c8282610b65565b156109da57600082815260208181526040808320600160a060020a0385168085529252808320805460ff1916905551339285917ff6391f5c32d9c69d2a47ea670b442974b53935d1edc7fd64eb21e047a839171b9190a45050565b6000610b5e83600160a060020a0384166119d5565b600480546005546006546040517f5d3b1d300000000000000000000000000000000000000000000000000000000081529384019190915274010000000000000000000000000000000000000000820467ffffffffffffffff166024840152640100000000810461ffff16604484015263ffffffff80821660648501526601000000000000909104166084830152600091600160a060020a0390911690635d3b1d309060a4016020604051808303816000875af1158015611770573d6000803e3d6000fd5b505050506040513d601f19601f820116820180604052508101906117949190612400565b60009081526018602052604090209190915550565b60008260000182815481106117c0576117c0612332565b9060005260206000200154905092915050565b606060006117e2836002612419565b6117ed906002612438565b67ffffffffffffffff81111561180557611805611e64565b6040519080825280601f01601f19166020018201604052801561182f576020820181803683370190505b5090507f30000000000000000000000000000000000000000000000000000000000000008160008151811061186657611866612332565b6020010190600160f860020a031916908160001a9053507f7800000000000000000000000000000000000000000000000000000000000000816001815181106118b1576118b1612332565b6020010190600160f860020a031916908160001a90535060006118d5846002612419565b6118e0906001612438565b90505b6001811115611983577f303132333435363738396162636465660000000000000000000000000000000085600f166010811061192157611921612332565b1a7f01000000000000000000000000000000000000000000000000000000000000000282828151811061195657611956612332565b6020010190600160f860020a031916908160001a90535060109094049361197c81612450565b90506118e3565b508315610b5e5760405160e560020a62461bcd02815260206004820181905260248201527f537472696e67733a20686578206c656e67746820696e73756666696369656e7460448201526064016109c7565b60008181526001830160205260408120548015611abe5760006119f9600183612467565b8554909150600090611a0d90600190612467565b9050818114611a72576000866000018281548110611a2d57611a2d612332565b9060005260206000200154905080876000018481548110611a5057611a50612332565b6000918252602080832090910192909255918252600188019052604090208390555b8554869080611a8357611a8361247e565b600190038181906000526020600020016000905590558560010160008681526020019081526020016000206000905560019350505050610751565b6000915050610751565b60405180606001604052806003906020820280368337509192915050565b828054828255906000526020600020908101928215611b33579160200282015b82811115611b335782518051611b23918491602090910190611b43565b5091602001919060010190611b06565b50611b3f929150611c51565b5090565b828054611b4f9061226d565b90600052602060002090601f016020900481019282611b715760008555611bb7565b82601f10611b8a57805160ff1916838001178555611bb7565b82800160010185558215611bb7579182015b82811115611bb7578251825591602001919060010190611b9c565b50611b3f929150611c6e565b600183019183908215611bb75791602002820160005b83821115611c1757835183826101000a81548160ff021916908360ff1602179055509260200192600101602081600001049283019260010302611bd9565b8015611c445782816101000a81549060ff0219169055600101602081600001049283019260010302611c17565b5050611b3f929150611c6e565b80821115611b3f576000611c658282611c83565b50600101611c51565b5b80821115611b3f5760008155600101611c6f565b508054611c8f9061226d565b6000825580601f10611c9f575050565b601f0160209004906000526020600020908101906112889190611c6e565b600060208284031215611ccf57600080fd5b8135600160e060020a031981168114610b5e57600080fd5b60008060408385031215611cfa57600080fd5b823560068110611d0957600080fd5b946020939093013593505050565b60008060408385031215611d2a57600080fd5b50508035926020909101359150565b600060208284031215611d4b57600080fd5b5035919050565b60e060020a634e487b7102600052602160045260246000fd5b6020810160078310611d7f57611d7f611d52565b91905290565b6020808252825182820181905260009190848201906040850190845b81811015611dbd57835183529284019291840191600101611da1565b50909695505050505050565b600080600060608486031215611dde57600080fd5b505081359360208301359350604090920135919050565b60005b83811015611e10578181015183820152602001611df8565b83811115611e1f576000848401525b50505050565b60008151808452611e3d816020860160208601611df5565b601f01601f19169290920160200192915050565b602081526000610b5e6020830184611e25565b60e060020a634e487b7102600052604160045260246000fd5b604051601f8201601f1916810167ffffffffffffffff81118282101715611ea657611ea6611e64565b604052919050565b600067ffffffffffffffff821115611ec857611ec8611e64565b5060209081020190565b60008060408385031215611ee557600080fd5b8235915060208084013567ffffffffffffffff811115611f0457600080fd5b8401601f81018613611f1557600080fd5b8035611f28611f2382611eae565b611e7d565b81815290830282018301908381019088831115611f4457600080fd5b928401925b82841015611f6257833582529284019290840190611f49565b80955050505050509250929050565b8035600160a060020a0381168114611f8857600080fd5b919050565b60008060408385031215611fa057600080fd5b82359150611fb060208401611f71565b90509250929050565b60008060408385031215611fcc57600080fd5b8235915060208301358015158114611fe357600080fd5b809150509250929050565b600060208083018184528085518083526040860191506040848202870101925083870160005b8281101561204257603f19888603018452612030858351611e25565b94509285019290850190600101612014565b5092979650505050505050565b60608101818360005b600381101561207a57815160ff16835260209283019290910190600101612058565b50505092915050565b60ff8116811461128857600080fd5b600082601f8301126120a357600080fd5b813567ffffffffffffffff8111156120bd576120bd611e64565b6120d0601f8201601f1916602001611e7d565b8181528460208386010111156120e557600080fd5b816020850160208301376000918101602001919091529392505050565b60008060008060008060c0878903121561211b57600080fd5b8635955060208088013561212e81612083565b9550604088013567ffffffffffffffff8082111561214b57600080fd5b818a0191508a601f83011261215f57600080fd5b813561216d611f2382611eae565b8181529084028301840190848101908d83111561218957600080fd5b8585015b838110156121bf5784813511156121a357600080fd5b6121b28f888335890101612092565b835291860191860161218d565b509850505060608a01359250808311156121d857600080fd5b6121e48b848c01612092565b955060808a01359250808311156121fa57600080fd5b505061220889828a01612092565b92505060a087013590509295509295509295565b6006811061222c5761222c611d52565b9052565b60208101610751828461221c565b60006020828403121561225057600080fd5b610b5e82611f71565b82815260408101610b5e602083018461221c565b60028104600182168061228157607f821691505b602082108114156122a55760e060020a634e487b7102600052602260045260246000fd5b50919050565b6000606082840312156122bd57600080fd5b82601f8301126122cc57600080fd5b6040516060810181811067ffffffffffffffff821117156122ef576122ef611e64565b60405280606084018581111561230457600080fd5b845b8181101561232757805161231981612083565b835260209283019201612306565b509195945050505050565b60e060020a634e487b7102600052603260045260246000fd5b60e060020a634e487b7102600052601160045260246000fd5b60006000198214156123785761237861234b565b5060010190565b7f416363657373436f6e74726f6c3a206163636f756e74200000000000000000008152600083516123b7816017850160208801611df5565b7f206973206d697373696e6720726f6c652000000000000000000000000000000060179184019182015283516123f4816028840160208801611df5565b01602801949350505050565b60006020828403121561241257600080fd5b5051919050565b60008160001904831182151516156124335761243361234b565b500290565b6000821982111561244b5761244b61234b565b500190565b60008161245f5761245f61234b565b506000190190565b6000828210156124795761247961234b565b500390565b60e060020a634e487b7102600052603160045260246000fdfe0c2c7e957bdf811d5a896b04e816b9c382dfb980c93b21b0288b75c85d598acd80e2196015fc06a9d891759f8e4f51eb314ef5e9ea068528a8ed0063b87759f0a264697066735822122072fd1df04f3968f6747e0fa0940025451916868742e3dbd4b735d27648030bc664736f6c634300080b0033",
  "immutableReferences": {
    "49": [
      {
        "length": 32,
        "start": 2371
      },
      {
        "length": 32,
        "start": 2462
      }
    ]
  },
  "source": "// SPDX-License-Identifier: GPL-3.0\npragma solidity >=0.7.0 <0.9.0;\n\n//TODO:\n// setup timer keeper for when all players don't sumbit moves\n\nimport \"@openzeppelin/contracts/access/AccessControlEnumerable.sol\";\nimport \"@openzeppelin/contracts/utils/Counters.sol\";\nimport \"@chainlink/contracts/src/v0.8/interfaces/VRFCoordinatorV2Interface.sol\";\nimport \"@chainlink/contracts/src/v0.8/VRFConsumerBaseV2.sol\";\nimport \"./HexplorationStateUpdate.sol\";\n\ncontract HexplorationQueue is AccessControlEnumerable, VRFConsumerBaseV2 {\n    using Counters for Counters.Counter;\n    Counters.Counter internal QUEUE_ID;\n    CharacterCard internal CHARACTER_CARD;\n\n    // VRF\n    VRFCoordinatorV2Interface COORDINATOR;\n    uint64 s_subscriptionId;\n    bytes32 s_keyHash;\n    uint32 callbackGasLimit = 100000;\n    uint16 requestConfirmations = 3;\n    uint32 numWords = 1;\n\n    event ProcessingPhaseChange(\n        uint256 indexed gameID,\n        uint256 timeStamp,\n        ProcessingPhase newPhase\n    );\n\n    enum ProcessingPhase {\n        Start,\n        Submission,\n        Processing,\n        PlayThrough,\n        Processed,\n        Closed\n    }\n    enum Action {\n        Idle,\n        Move,\n        SetupCamp,\n        BreakDownCamp,\n        Dig,\n        Rest,\n        Help\n    }\n\n    bytes32 public constant VERIFIED_CONTROLLER_ROLE =\n        keccak256(\"VERIFIED_CONTROLLER_ROLE\");\n    bytes32 public constant GAMEPLAY_ROLE = keccak256(\"GAMEPLAY_ROLE\");\n\n    // Array of Queue IDs to be processed.\n    uint256[] public processingQueue;\n\n    // do we need these 2?\n    mapping(uint256 => uint16) public currentQueuePosition; // ?? increases with each player in queue, then back to 0\n    mapping(uint256 => uint16) public playThroughPosition; // ?? in case we need to batch this too... hopefully not.\n\n    // mapping from game ID\n    mapping(uint256 => uint256) public queueID; // mapping from game ID to it's queue, updates to 0 when finished\n\n    // mappings from queue index\n    mapping(uint256 => bool) public inProcessingQueue; // game queue is in processing queue\n    mapping(uint256 => ProcessingPhase) public currentPhase; // processingPhase\n    mapping(uint256 => uint256) public game; // mapping from queue ID to it's game ID\n    mapping(uint256 => uint256[]) public players; // all players with moves to process\n    mapping(uint256 => uint256) public totalPlayers; // total # of players who will be submitting\n    mapping(uint256 => uint256) public randomness; // randomness delivered here at start of each phase processing\n\n    // mappings from queue index => player id\n    mapping(uint256 => mapping(uint256 => Action)) public submissionAction;\n    mapping(uint256 => mapping(uint256 => string[])) public submissionOptions;\n    mapping(uint256 => mapping(uint256 => string)) public submissionLeftHand;\n    mapping(uint256 => mapping(uint256 => string)) public submissionRightHand;\n    mapping(uint256 => mapping(uint256 => bool)) public playerSubmitted;\n    mapping(uint256 => mapping(uint256 => uint8[3]))\n        public playerStatsAtSubmission;\n\n    // current action, so we know what to process during play through phase\n    mapping(uint256 => mapping(uint256 => Action)) public activeAction; // defaults to idle\n\n    // From request ID => queue ID\n    mapping(uint256 => uint256) internal randomnessRequestQueueID; // ID set before randomness delivered\n\n    constructor(\n        address gameplayAddress,\n        address characterCard,\n        uint64 _vrfSubscriptionID,\n        address _vrfCoordinator,\n        bytes32 _keyHash\n    ) VRFConsumerBaseV2(_vrfCoordinator) {\n        _setupRole(DEFAULT_ADMIN_ROLE, _msgSender());\n        _setupRole(GAMEPLAY_ROLE, gameplayAddress);\n        QUEUE_ID.increment(); // start at 1\n        CHARACTER_CARD = CharacterCard(characterCard);\n        s_subscriptionId = _vrfSubscriptionID;\n        s_keyHash = _keyHash;\n        COORDINATOR = VRFCoordinatorV2Interface(_vrfCoordinator);\n    }\n\n    // Can set multiple VCs, one for manual pushing, one for keeper\n    function addVerifiedController(address controllerAddress)\n        public\n        onlyRole(DEFAULT_ADMIN_ROLE)\n    {\n        grantRole(VERIFIED_CONTROLLER_ROLE, controllerAddress);\n    }\n\n    // pass total # players making submissions\n    // total can be less than actual totalPlayers in game\n    function requestGameQueue(uint256 gameID, uint256 _totalPlayers)\n        external\n        onlyRole(VERIFIED_CONTROLLER_ROLE)\n        returns (uint256)\n    {\n        return _requestGameQueue(gameID, _totalPlayers);\n    }\n\n    // Sent from controller\n\n    function startGame(uint256 _queueID)\n        public\n        onlyRole(VERIFIED_CONTROLLER_ROLE)\n    {\n        currentPhase[_queueID] = ProcessingPhase.Submission;\n    }\n\n    function sumbitActionForPlayer(\n        uint256 playerID,\n        uint8 action,\n        string[] memory options,\n        string memory leftHand,\n        string memory rightHand,\n        uint256 _queueID\n    ) public onlyRole(VERIFIED_CONTROLLER_ROLE) {\n        require(\n            currentPhase[_queueID] == ProcessingPhase.Submission,\n            \"Not submission phase\"\n        );\n        if (!playerSubmitted[_queueID][playerID]) {\n            submissionAction[_queueID][playerID] = Action(action);\n            submissionOptions[_queueID][playerID] = options;\n            submissionLeftHand[_queueID][playerID] = leftHand;\n            submissionRightHand[_queueID][playerID] = rightHand;\n\n            players[_queueID].push(playerID);\n            playerSubmitted[_queueID][playerID] = true;\n            // automatically add to queue if last player to submit move\n            if (players[_queueID].length >= totalPlayers[_queueID]) {\n                _processAllActions(_queueID);\n            }\n            playerStatsAtSubmission[_queueID][playerID] = CHARACTER_CARD\n                .getStats(game[_queueID], playerID);\n        }\n    }\n\n    // Will get processed once keeper is available\n    // and previous game queues have been processed\n    function requestProcessActions(uint256 _queueID)\n        public\n        onlyRole(VERIFIED_CONTROLLER_ROLE)\n    {\n        _processAllActions(_queueID);\n    }\n\n    function getAllPlayers(uint256 _queueID)\n        public\n        view\n        returns (uint256[] memory)\n    {\n        return players[_queueID];\n    }\n\n    function getSubmissionOptions(uint256 _queueID, uint256 _playerID)\n        public\n        view\n        returns (string[] memory)\n    {\n        return submissionOptions[_queueID][_playerID];\n    }\n\n    function getStatsAtSubmission(uint256 _queueID, uint256 _playerID)\n        public\n        view\n        returns (uint8[3] memory)\n    {\n        return playerStatsAtSubmission[_queueID][_playerID];\n    }\n\n    function getProcessingQueue() public view returns (uint256[] memory) {\n        return processingQueue;\n    }\n\n    // Gameplay interactions\n    function setPhase(ProcessingPhase phase, uint256 _queueID)\n        external\n        onlyRole(GAMEPLAY_ROLE)\n    {\n        currentPhase[_queueID] = phase;\n        emit ProcessingPhaseChange(game[_queueID], block.timestamp, phase);\n    }\n\n    function setRandomNumber(uint256 randomNumber, uint256 _queueID)\n        external\n        onlyRole(GAMEPLAY_ROLE)\n    {\n        randomness[_queueID] = randomNumber;\n    }\n\n    function requestNewQueueID(uint256 _queueID)\n        external\n        onlyRole(GAMEPLAY_ROLE)\n    {\n        uint256 g = game[_queueID];\n        uint256 tp = totalPlayers[_queueID];\n        queueID[g] = _requestGameQueue(g, tp);\n    }\n\n    function finishProcessing(uint256 _queueID, bool gameComplete)\n        public\n        onlyRole(GAMEPLAY_ROLE)\n    {\n        _setProcessingComplete(_queueID, gameComplete);\n    }\n\n    function _setProcessingComplete(uint256 _queueID, bool gameComplete)\n        internal\n    {\n        uint256 g = game[_queueID];\n        currentPhase[_queueID] = ProcessingPhase.Processed;\n        queueID[g] = 0;\n        inProcessingQueue[_queueID] = false;\n        for (uint256 i = 0; i < processingQueue.length; i++) {\n            if (processingQueue[i] == _queueID) {\n                processingQueue[i] = 0;\n                break;\n            }\n        }\n        if (!gameComplete) {\n            // get new queue ID for next set of player actions\n            uint256 tp = totalPlayers[_queueID];\n            uint256 newQueueID = _requestGameQueue(g, tp);\n            queueID[g] = newQueueID;\n            currentPhase[newQueueID] = ProcessingPhase.Submission;\n        }\n    }\n\n    // Internal\n    function _processAllActions(uint256 _queueID) internal {\n        // Can only add unique unprocessed game queues into processing queue\n        if (\n            !inProcessingQueue[_queueID] &&\n            currentPhase[_queueID] == ProcessingPhase.Submission\n        ) {\n            processingQueue.push(_queueID);\n            inProcessingQueue[_queueID] = true;\n            currentPhase[_queueID] = ProcessingPhase.Processing;\n            // request random number for phase\n            requestRandomWords(_queueID);\n        }\n    }\n\n    function requestRandomWords(uint256 _queueID) internal {\n        uint256 reqID = COORDINATOR.requestRandomWords(\n            s_keyHash,\n            s_subscriptionId,\n            requestConfirmations,\n            callbackGasLimit,\n            numWords\n        );\n\n        randomnessRequestQueueID[reqID] = _queueID;\n\n        // testing below, comment out uncomment VRF code above to enable chainlink vrf for production\n\n        // uint256 reqID = _queueID;\n        // randomnessRequestQueueID[reqID] = _queueID;\n        // uint256 random = uint256(keccak256(abi.encode(block.timestamp, reqID)));\n        // uint256[] memory randomWords = new uint256[](1);\n        // randomWords[0] = random;\n        // fulfillRandomWords(reqID, randomWords);\n    }\n\n    function fulfillRandomWords(uint256 requestID, uint256[] memory randomWords)\n        internal\n        override\n    {\n        uint256 qID = randomnessRequestQueueID[requestID];\n        randomness[qID] = randomWords[0];\n    }\n\n    function _requestGameQueue(uint256 gameID, uint256 _totalPlayers)\n        internal\n        returns (uint256)\n    {\n        require(queueID[gameID] == 0, \"queue already set\");\n        uint256 newQueueID = QUEUE_ID.current();\n        game[newQueueID] = gameID;\n        queueID[gameID] = newQueueID;\n        totalPlayers[newQueueID] = _totalPlayers;\n        QUEUE_ID.increment();\n        return newQueueID;\n    }\n}\n",
  "sourcePath": "/Users/maxmeier/Developer/Lucky Machines/hexploration/contracts/HexplorationQueue.sol",
  "compiler": {
    "name": "solc",
    "version": "0.8.11+commit.d7f03943.Emscripten.clang"
  },
  "schemaVersion": "3.4.4",
  "updatedAt": "2022-05-28T06:10:19.530Z",
  "networkType": "ethereum",
  "devdoc": {
    "kind": "dev",
    "methods": {
      "getRoleAdmin(bytes32)": {
        "details": "Returns the admin role that controls `role`. See {grantRole} and {revokeRole}. To change a role's admin, use {_setRoleAdmin}."
      },
      "getRoleMember(bytes32,uint256)": {
        "details": "Returns one of the accounts that have `role`. `index` must be a value between 0 and {getRoleMemberCount}, non-inclusive. Role bearers are not sorted in any particular way, and their ordering may change at any point. WARNING: When using {getRoleMember} and {getRoleMemberCount}, make sure you perform all queries on the same block. See the following https://forum.openzeppelin.com/t/iterating-over-elements-on-enumerableset-in-openzeppelin-contracts/2296[forum post] for more information."
      },
      "getRoleMemberCount(bytes32)": {
        "details": "Returns the number of accounts that have `role`. Can be used together with {getRoleMember} to enumerate all bearers of a role."
      },
      "grantRole(bytes32,address)": {
        "details": "Grants `role` to `account`. If `account` had not been already granted `role`, emits a {RoleGranted} event. Requirements: - the caller must have ``role``'s admin role."
      },
      "hasRole(bytes32,address)": {
        "details": "Returns `true` if `account` has been granted `role`."
      },
      "renounceRole(bytes32,address)": {
        "details": "Revokes `role` from the calling account. Roles are often managed via {grantRole} and {revokeRole}: this function's purpose is to provide a mechanism for accounts to lose their privileges if they are compromised (such as when a trusted device is misplaced). If the calling account had been revoked `role`, emits a {RoleRevoked} event. Requirements: - the caller must be `account`."
      },
      "revokeRole(bytes32,address)": {
        "details": "Revokes `role` from `account`. If `account` had been granted `role`, emits a {RoleRevoked} event. Requirements: - the caller must have ``role``'s admin role."
      },
      "supportsInterface(bytes4)": {
        "details": "See {IERC165-supportsInterface}."
      }
    },
    "version": 1
  },
  "userdoc": {
    "kind": "user",
    "methods": {},
    "version": 1
  }
}