{
  "contractName": "HexplorationBoard",
  "abi": [
    {
      "inputs": [
        {
          "internalType": "address",
          "name": "adminAddress",
          "type": "address"
        },
        {
          "internalType": "uint256",
          "name": "gridWidth",
          "type": "uint256"
        },
        {
          "internalType": "uint256",
          "name": "gridHeight",
          "type": "uint256"
        },
        {
          "internalType": "address",
          "name": "zoneAddress",
          "type": "address"
        }
      ],
      "stateMutability": "nonpayable",
      "type": "constructor"
    },
    {
      "anonymous": false,
      "inputs": [
        {
          "indexed": true,
          "internalType": "bytes32",
          "name": "role",
          "type": "bytes32"
        },
        {
          "indexed": true,
          "internalType": "bytes32",
          "name": "previousAdminRole",
          "type": "bytes32"
        },
        {
          "indexed": true,
          "internalType": "bytes32",
          "name": "newAdminRole",
          "type": "bytes32"
        }
      ],
      "name": "RoleAdminChanged",
      "type": "event"
    },
    {
      "anonymous": false,
      "inputs": [
        {
          "indexed": true,
          "internalType": "bytes32",
          "name": "role",
          "type": "bytes32"
        },
        {
          "indexed": true,
          "internalType": "address",
          "name": "account",
          "type": "address"
        },
        {
          "indexed": true,
          "internalType": "address",
          "name": "sender",
          "type": "address"
        }
      ],
      "name": "RoleGranted",
      "type": "event"
    },
    {
      "anonymous": false,
      "inputs": [
        {
          "indexed": true,
          "internalType": "bytes32",
          "name": "role",
          "type": "bytes32"
        },
        {
          "indexed": true,
          "internalType": "address",
          "name": "account",
          "type": "address"
        },
        {
          "indexed": true,
          "internalType": "address",
          "name": "sender",
          "type": "address"
        }
      ],
      "name": "RoleRevoked",
      "type": "event"
    },
    {
      "inputs": [],
      "name": "DEFAULT_ADMIN_ROLE",
      "outputs": [
        {
          "internalType": "bytes32",
          "name": "",
          "type": "bytes32"
        }
      ],
      "stateMutability": "view",
      "type": "function"
    },
    {
      "inputs": [],
      "name": "FACTORY_ROLE",
      "outputs": [
        {
          "internalType": "bytes32",
          "name": "",
          "type": "bytes32"
        }
      ],
      "stateMutability": "view",
      "type": "function"
    },
    {
      "inputs": [],
      "name": "GAME_MASTER_ROLE",
      "outputs": [
        {
          "internalType": "bytes32",
          "name": "",
          "type": "bytes32"
        }
      ],
      "stateMutability": "view",
      "type": "function"
    },
    {
      "inputs": [],
      "name": "MAX_BATCH_SIZE",
      "outputs": [
        {
          "internalType": "uint256",
          "name": "",
          "type": "uint256"
        }
      ],
      "stateMutability": "view",
      "type": "function"
    },
    {
      "inputs": [],
      "name": "PLAY_ZONE_ROLE",
      "outputs": [
        {
          "internalType": "bytes32",
          "name": "",
          "type": "bytes32"
        }
      ],
      "stateMutability": "view",
      "type": "function"
    },
    {
      "inputs": [],
      "name": "VERIFIED_CONTROLLER_ROLE",
      "outputs": [
        {
          "internalType": "bytes32",
          "name": "",
          "type": "bytes32"
        }
      ],
      "stateMutability": "view",
      "type": "function"
    },
    {
      "inputs": [
        {
          "internalType": "uint256",
          "name": "transitID",
          "type": "uint256"
        }
      ],
      "name": "_progressTransit",
      "outputs": [],
      "stateMutability": "nonpayable",
      "type": "function"
    },
    {
      "inputs": [
        {
          "internalType": "address",
          "name": "factoryAddress",
          "type": "address"
        }
      ],
      "name": "addFactory",
      "outputs": [],
      "stateMutability": "nonpayable",
      "type": "function"
    },
    {
      "inputs": [
        {
          "internalType": "address",
          "name": "keeperAddress",
          "type": "address"
        }
      ],
      "name": "addKeeper",
      "outputs": [],
      "stateMutability": "nonpayable",
      "type": "function"
    },
    {
      "inputs": [
        {
          "internalType": "address",
          "name": "vcAddress",
          "type": "address"
        }
      ],
      "name": "addVerifiedController",
      "outputs": [],
      "stateMutability": "nonpayable",
      "type": "function"
    },
    {
      "inputs": [
        {
          "internalType": "uint256",
          "name": "gameID",
          "type": "uint256"
        },
        {
          "internalType": "string[2][]",
          "name": "connections",
          "type": "string[2][]"
        }
      ],
      "name": "addZoneConnections",
      "outputs": [],
      "stateMutability": "nonpayable",
      "type": "function"
    },
    {
      "inputs": [
        {
          "internalType": "address[]",
          "name": "playZoneAddresses",
          "type": "address[]"
        },
        {
          "internalType": "string[]",
          "name": "zoneAliases",
          "type": "string[]"
        },
        {
          "internalType": "uint256",
          "name": "gameID",
          "type": "uint256"
        }
      ],
      "name": "addZones",
      "outputs": [],
      "stateMutability": "nonpayable",
      "type": "function"
    },
    {
      "inputs": [],
      "name": "cleanQueue",
      "outputs": [],
      "stateMutability": "nonpayable",
      "type": "function"
    },
    {
      "inputs": [
        {
          "internalType": "address",
          "name": "_playerRegistry",
          "type": "address"
        },
        {
          "internalType": "address",
          "name": "_gameRegistry",
          "type": "address"
        }
      ],
      "name": "createGame",
      "outputs": [
        {
          "internalType": "uint256",
          "name": "gameID",
          "type": "uint256"
        }
      ],
      "stateMutability": "nonpayable",
      "type": "function"
    },
    {
      "inputs": [
        {
          "internalType": "address",
          "name": "_playerRegistry",
          "type": "address"
        },
        {
          "internalType": "address",
          "name": "_gameRegistry",
          "type": "address"
        },
        {
          "internalType": "address[]",
          "name": "playZoneAddresses",
          "type": "address[]"
        },
        {
          "internalType": "string[]",
          "name": "zoneAliases",
          "type": "string[]"
        }
      ],
      "name": "createGame",
      "outputs": [
        {
          "internalType": "uint256",
          "name": "gameID",
          "type": "uint256"
        }
      ],
      "stateMutability": "nonpayable",
      "type": "function"
    },
    {
      "inputs": [],
      "name": "createGrid",
      "outputs": [],
      "stateMutability": "nonpayable",
      "type": "function"
    },
    {
      "inputs": [
        {
          "internalType": "uint256",
          "name": "",
          "type": "uint256"
        },
        {
          "internalType": "uint256",
          "name": "",
          "type": "uint256"
        }
      ],
      "name": "currentPlayZone",
      "outputs": [
        {
          "internalType": "string",
          "name": "",
          "type": "string"
        }
      ],
      "stateMutability": "view",
      "type": "function"
    },
    {
      "inputs": [
        {
          "internalType": "uint256",
          "name": "",
          "type": "uint256"
        },
        {
          "internalType": "uint256",
          "name": "",
          "type": "uint256"
        }
      ],
      "name": "entryQueue",
      "outputs": [
        {
          "internalType": "uint256",
          "name": "",
          "type": "uint256"
        }
      ],
      "stateMutability": "view",
      "type": "function"
    },
    {
      "inputs": [
        {
          "internalType": "uint256",
          "name": "gameID",
          "type": "uint256"
        },
        {
          "internalType": "address",
          "name": "playerAddress",
          "type": "address"
        },
        {
          "internalType": "uint256",
          "name": "pathIndex",
          "type": "uint256"
        }
      ],
      "name": "exitToPath",
      "outputs": [
        {
          "internalType": "bool",
          "name": "exitSuccess",
          "type": "bool"
        }
      ],
      "stateMutability": "nonpayable",
      "type": "function"
    },
    {
      "inputs": [
        {
          "internalType": "uint256",
          "name": "",
          "type": "uint256"
        }
      ],
      "name": "gameState",
      "outputs": [
        {
          "internalType": "uint256",
          "name": "",
          "type": "uint256"
        }
      ],
      "stateMutability": "view",
      "type": "function"
    },
    {
      "inputs": [
        {
          "internalType": "uint256",
          "name": "gameID",
          "type": "uint256"
        },
        {
          "internalType": "string",
          "name": "_zoneAlias",
          "type": "string"
        }
      ],
      "name": "getInputs",
      "outputs": [
        {
          "internalType": "string[]",
          "name": "zoneInputs",
          "type": "string[]"
        }
      ],
      "stateMutability": "view",
      "type": "function"
    },
    {
      "inputs": [
        {
          "internalType": "uint256",
          "name": "gameID",
          "type": "uint256"
        },
        {
          "internalType": "string",
          "name": "_zoneAlias",
          "type": "string"
        }
      ],
      "name": "getOutputs",
      "outputs": [
        {
          "internalType": "string[]",
          "name": "zoneOutputs",
          "type": "string[]"
        }
      ],
      "stateMutability": "view",
      "type": "function"
    },
    {
      "inputs": [
        {
          "internalType": "uint256",
          "name": "gameID",
          "type": "uint256"
        }
      ],
      "name": "getOverflowQueue",
      "outputs": [
        {
          "internalType": "uint256[]",
          "name": "",
          "type": "uint256[]"
        }
      ],
      "stateMutability": "view",
      "type": "function"
    },
    {
      "inputs": [
        {
          "internalType": "uint256",
          "name": "gameID",
          "type": "uint256"
        }
      ],
      "name": "getPlayZones",
      "outputs": [
        {
          "internalType": "string[]",
          "name": "",
          "type": "string[]"
        }
      ],
      "stateMutability": "view",
      "type": "function"
    },
    {
      "inputs": [
        {
          "internalType": "bytes32",
          "name": "role",
          "type": "bytes32"
        }
      ],
      "name": "getRoleAdmin",
      "outputs": [
        {
          "internalType": "bytes32",
          "name": "",
          "type": "bytes32"
        }
      ],
      "stateMutability": "view",
      "type": "function"
    },
    {
      "inputs": [
        {
          "internalType": "bytes32",
          "name": "role",
          "type": "bytes32"
        },
        {
          "internalType": "uint256",
          "name": "index",
          "type": "uint256"
        }
      ],
      "name": "getRoleMember",
      "outputs": [
        {
          "internalType": "address",
          "name": "",
          "type": "address"
        }
      ],
      "stateMutability": "view",
      "type": "function"
    },
    {
      "inputs": [
        {
          "internalType": "bytes32",
          "name": "role",
          "type": "bytes32"
        }
      ],
      "name": "getRoleMemberCount",
      "outputs": [
        {
          "internalType": "uint256",
          "name": "",
          "type": "uint256"
        }
      ],
      "stateMutability": "view",
      "type": "function"
    },
    {
      "inputs": [],
      "name": "getZoneAliases",
      "outputs": [
        {
          "internalType": "string[]",
          "name": "",
          "type": "string[]"
        }
      ],
      "stateMutability": "view",
      "type": "function"
    },
    {
      "inputs": [
        {
          "internalType": "bytes32",
          "name": "role",
          "type": "bytes32"
        },
        {
          "internalType": "address",
          "name": "account",
          "type": "address"
        }
      ],
      "name": "grantRole",
      "outputs": [],
      "stateMutability": "nonpayable",
      "type": "function"
    },
    {
      "inputs": [],
      "name": "gridHeight",
      "outputs": [
        {
          "internalType": "uint256",
          "name": "",
          "type": "uint256"
        }
      ],
      "stateMutability": "view",
      "type": "function"
    },
    {
      "inputs": [],
      "name": "gridWidth",
      "outputs": [
        {
          "internalType": "uint256",
          "name": "",
          "type": "uint256"
        }
      ],
      "stateMutability": "view",
      "type": "function"
    },
    {
      "inputs": [
        {
          "internalType": "bytes32",
          "name": "role",
          "type": "bytes32"
        },
        {
          "internalType": "address",
          "name": "account",
          "type": "address"
        }
      ],
      "name": "hasRole",
      "outputs": [
        {
          "internalType": "bool",
          "name": "",
          "type": "bool"
        }
      ],
      "stateMutability": "view",
      "type": "function"
    },
    {
      "inputs": [
        {
          "internalType": "uint256",
          "name": "",
          "type": "uint256"
        }
      ],
      "name": "initialPlayZone",
      "outputs": [
        {
          "internalType": "string",
          "name": "",
          "type": "string"
        }
      ],
      "stateMutability": "view",
      "type": "function"
    },
    {
      "inputs": [
        {
          "internalType": "address",
          "name": "factoryAddress",
          "type": "address"
        }
      ],
      "name": "isFactory",
      "outputs": [
        {
          "internalType": "bool",
          "name": "factoryIsAuthorized",
          "type": "bool"
        }
      ],
      "stateMutability": "view",
      "type": "function"
    },
    {
      "inputs": [
        {
          "internalType": "uint256",
          "name": "",
          "type": "uint256"
        }
      ],
      "name": "lastEntryPlayerID",
      "outputs": [
        {
          "internalType": "uint256",
          "name": "",
          "type": "uint256"
        }
      ],
      "stateMutability": "view",
      "type": "function"
    },
    {
      "inputs": [],
      "name": "needsUpdate",
      "outputs": [
        {
          "internalType": "bool",
          "name": "doesNeedUpdate",
          "type": "bool"
        }
      ],
      "stateMutability": "view",
      "type": "function"
    },
    {
      "inputs": [
        {
          "internalType": "uint256",
          "name": "",
          "type": "uint256"
        },
        {
          "internalType": "string",
          "name": "",
          "type": "string"
        },
        {
          "internalType": "uint256",
          "name": "",
          "type": "uint256"
        }
      ],
      "name": "playZoneInputs",
      "outputs": [
        {
          "internalType": "string",
          "name": "",
          "type": "string"
        }
      ],
      "stateMutability": "view",
      "type": "function"
    },
    {
      "inputs": [
        {
          "internalType": "uint256",
          "name": "",
          "type": "uint256"
        },
        {
          "internalType": "string",
          "name": "",
          "type": "string"
        },
        {
          "internalType": "uint256",
          "name": "",
          "type": "uint256"
        }
      ],
      "name": "playZoneOutputs",
      "outputs": [
        {
          "internalType": "string",
          "name": "",
          "type": "string"
        }
      ],
      "stateMutability": "view",
      "type": "function"
    },
    {
      "inputs": [
        {
          "internalType": "uint256",
          "name": "",
          "type": "uint256"
        },
        {
          "internalType": "uint256",
          "name": "",
          "type": "uint256"
        }
      ],
      "name": "playZones",
      "outputs": [
        {
          "internalType": "string",
          "name": "",
          "type": "string"
        }
      ],
      "stateMutability": "view",
      "type": "function"
    },
    {
      "inputs": [
        {
          "internalType": "uint256",
          "name": "gameID",
          "type": "uint256"
        },
        {
          "internalType": "address",
          "name": "playerAddress",
          "type": "address"
        },
        {
          "internalType": "string",
          "name": "_zoneAlias",
          "type": "string"
        }
      ],
      "name": "playerEnteredZone",
      "outputs": [],
      "stateMutability": "nonpayable",
      "type": "function"
    },
    {
      "inputs": [
        {
          "internalType": "uint256",
          "name": "",
          "type": "uint256"
        }
      ],
      "name": "playerRegistry",
      "outputs": [
        {
          "internalType": "uint256",
          "name": "",
          "type": "uint256"
        }
      ],
      "stateMutability": "view",
      "type": "function"
    },
    {
      "inputs": [],
      "name": "prAddress",
      "outputs": [
        {
          "internalType": "address",
          "name": "",
          "type": "address"
        }
      ],
      "stateMutability": "view",
      "type": "function"
    },
    {
      "inputs": [
        {
          "internalType": "uint256",
          "name": "gameID",
          "type": "uint256"
        },
        {
          "internalType": "address[]",
          "name": "playerAddresses",
          "type": "address[]"
        },
        {
          "internalType": "uint256[]",
          "name": "pathIndices",
          "type": "uint256[]"
        },
        {
          "internalType": "uint256",
          "name": "transitID",
          "type": "uint256"
        }
      ],
      "name": "queueExitToPaths",
      "outputs": [],
      "stateMutability": "nonpayable",
      "type": "function"
    },
    {
      "inputs": [
        {
          "internalType": "uint256",
          "name": "gameID",
          "type": "uint256"
        },
        {
          "internalType": "string[]",
          "name": "inputAliases",
          "type": "string[]"
        },
        {
          "internalType": "uint256[]",
          "name": "inputs",
          "type": "uint256[]"
        },
        {
          "internalType": "string[]",
          "name": "outputAliases",
          "type": "string[]"
        },
        {
          "internalType": "uint256[]",
          "name": "outputs",
          "type": "uint256[]"
        }
      ],
      "name": "removeZoneConnections",
      "outputs": [],
      "stateMutability": "nonpayable",
      "type": "function"
    },
    {
      "inputs": [
        {
          "internalType": "bytes32",
          "name": "role",
          "type": "bytes32"
        },
        {
          "internalType": "address",
          "name": "account",
          "type": "address"
        }
      ],
      "name": "renounceRole",
      "outputs": [],
      "stateMutability": "nonpayable",
      "type": "function"
    },
    {
      "inputs": [
        {
          "internalType": "bytes32",
          "name": "role",
          "type": "bytes32"
        },
        {
          "internalType": "address",
          "name": "account",
          "type": "address"
        }
      ],
      "name": "revokeRole",
      "outputs": [],
      "stateMutability": "nonpayable",
      "type": "function"
    },
    {
      "inputs": [],
      "name": "runUpdate",
      "outputs": [],
      "stateMutability": "nonpayable",
      "type": "function"
    },
    {
      "inputs": [
        {
          "internalType": "string",
          "name": "initialZone",
          "type": "string"
        },
        {
          "internalType": "uint256",
          "name": "gameID",
          "type": "uint256"
        }
      ],
      "name": "setInitialPlayZone",
      "outputs": [],
      "stateMutability": "nonpayable",
      "type": "function"
    },
    {
      "inputs": [
        {
          "internalType": "uint256",
          "name": "gameID",
          "type": "uint256"
        }
      ],
      "name": "startGame",
      "outputs": [],
      "stateMutability": "nonpayable",
      "type": "function"
    },
    {
      "inputs": [
        {
          "internalType": "uint256",
          "name": "transitID",
          "type": "uint256"
        }
      ],
      "name": "startTransit",
      "outputs": [],
      "stateMutability": "nonpayable",
      "type": "function"
    },
    {
      "inputs": [
        {
          "internalType": "bytes4",
          "name": "interfaceId",
          "type": "bytes4"
        }
      ],
      "name": "supportsInterface",
      "outputs": [
        {
          "internalType": "bool",
          "name": "",
          "type": "bool"
        }
      ],
      "stateMutability": "view",
      "type": "function"
    },
    {
      "inputs": [],
      "name": "zoneAddress",
      "outputs": [
        {
          "internalType": "address",
          "name": "",
          "type": "address"
        }
      ],
      "stateMutability": "view",
      "type": "function"
    },
    {
      "inputs": [
        {
          "internalType": "uint256",
          "name": "",
          "type": "uint256"
        },
        {
          "internalType": "string",
          "name": "",
          "type": "string"
        }
      ],
      "name": "zoneAlias",
      "outputs": [
        {
          "internalType": "address",
          "name": "",
          "type": "address"
        }
      ],
      "stateMutability": "view",
      "type": "function"
    },
    {
      "inputs": [
        {
          "internalType": "uint256",
          "name": "",
          "type": "uint256"
        }
      ],
      "name": "zoneAliases",
      "outputs": [
        {
          "internalType": "string",
          "name": "",
          "type": "string"
        }
      ],
      "stateMutability": "view",
      "type": "function"
    },
    {
      "inputs": [
        {
          "internalType": "uint256",
          "name": "",
          "type": "uint256"
        },
        {
          "internalType": "string",
          "name": "",
          "type": "string"
        }
      ],
      "name": "zoneEnabled",
      "outputs": [
        {
          "internalType": "bool",
          "name": "",
          "type": "bool"
        }
      ],
      "stateMutability": "view",
      "type": "function"
    },
    {
      "inputs": [],
      "name": "hexZoneAddress",
      "outputs": [
        {
          "internalType": "address",
          "name": "",
          "type": "address"
        }
      ],
      "stateMutability": "view",
      "type": "function"
    },
    {
      "inputs": [
        {
          "internalType": "uint256",
          "name": "gameID",
          "type": "uint256"
        }
      ],
      "name": "lockRegistration",
      "outputs": [],
      "stateMutability": "nonpayable",
      "type": "function"
    },
    {
      "inputs": [
        {
          "internalType": "address",
          "name": "playerAddress",
          "type": "address"
        },
        {
          "internalType": "uint256",
          "name": "gameID",
          "type": "uint256"
        },
        {
          "internalType": "string",
          "name": "zone",
          "type": "string"
        }
      ],
      "name": "enterPlayer",
      "outputs": [],
      "stateMutability": "nonpayable",
      "type": "function"
    },
    {
      "inputs": [
        {
          "internalType": "address",
          "name": "playerAddress",
          "type": "address"
        },
        {
          "internalType": "uint256",
          "name": "gameID",
          "type": "uint256"
        },
        {
          "internalType": "string",
          "name": "zone",
          "type": "string"
        }
      ],
      "name": "exitPlayer",
      "outputs": [],
      "stateMutability": "nonpayable",
      "type": "function"
    },
    {
      "inputs": [
        {
          "internalType": "address",
          "name": "gameRegistryAddress",
          "type": "address"
        }
      ],
      "name": "requestNewGame",
      "outputs": [],
      "stateMutability": "nonpayable",
      "type": "function"
    },
    {
      "inputs": [
        {
          "internalType": "uint256",
          "name": "gs",
          "type": "uint256"
        },
        {
          "internalType": "uint256",
          "name": "gameID",
          "type": "uint256"
        }
      ],
      "name": "setGameState",
      "outputs": [],
      "stateMutability": "nonpayable",
      "type": "function"
    },
    {
      "inputs": [
        {
          "internalType": "uint256",
          "name": "randomness",
          "type": "uint256"
        }
      ],
      "name": "setRandomness",
      "outputs": [],
      "stateMutability": "nonpayable",
      "type": "function"
    },
    {
      "inputs": [
        {
          "internalType": "uint256",
          "name": "gameID",
          "type": "uint256"
        }
      ],
      "name": "start",
      "outputs": [],
      "stateMutability": "nonpayable",
      "type": "function"
    },
    {
      "inputs": [
        {
          "internalType": "string",
          "name": "zoneAlias",
          "type": "string"
        },
        {
          "internalType": "enum HexplorationZone.Tile",
          "name": "tile",
          "type": "uint8"
        },
        {
          "internalType": "uint256",
          "name": "gameID",
          "type": "uint256"
        }
      ],
      "name": "enableZone",
      "outputs": [],
      "stateMutability": "nonpayable",
      "type": "function"
    },
    {
      "inputs": [
        {
          "internalType": "string[]",
          "name": "zonePath",
          "type": "string[]"
        },
        {
          "internalType": "address",
          "name": "playerAddress",
          "type": "address"
        },
        {
          "internalType": "uint256",
          "name": "gameID",
          "type": "uint256"
        },
        {
          "internalType": "enum HexplorationZone.Tile[]",
          "name": "tiles",
          "type": "uint8[]"
        }
      ],
      "name": "moveThroughPath",
      "outputs": [],
      "stateMutability": "nonpayable",
      "type": "function"
    }
  ],
  "bytecode": "0x60806040523480156200001157600080fd5b5060405162004c6738038062004c678339810160408190526200003491620002a8565b83838383836200004f600082640100000000620000c9810204565b620000847f1d93c87416ca7b54f0fb8323167b72760e8e2ec93d48660953897a150f97a8b482640100000000620000c9810204565b50600e92909255600f5560108054600160a060020a03928316600160a060020a031991821617909155601380549490921693169290921790915550620002f392505050565b620000de8282640100000000620000e2810204565b5050565b620000fc828264010000000062002af96200012982021704565b600082815260016020526040902062000124908264010000000062002b7d620001c582021704565b505050565b6200013e8282640100000000620001ee810204565b620000de57600082815260208181526040808320600160a060020a03851684529091529020805460ff191660011790556200018164010000000062000217810204565b600160a060020a031681600160a060020a0316837f2f8788117e7eff1d82e926ec794901d17c78024a50270940304540a733656f0d60405160405180910390a45050565b6000620001e583600160a060020a0384166401000000006200021b810204565b90505b92915050565b600091825260208281526040808420600160a060020a0393909316845291905290205460ff1690565b3390565b600062000232838364010000000062000273810204565b6200026a57508154600181810184556000848152602080822090930184905584548482528286019093526040902091909155620001e8565b506000620001e8565b60009081526001919091016020526040902054151590565b8051600160a060020a0381168114620002a357600080fd5b919050565b60008060008060808587031215620002bf57600080fd5b620002ca856200028b565b93506020850151925060408501519150620002e8606086016200028b565b905092959194509250565b61496480620003036000396000f3fe608060405234801561001057600080fd5b50600436106103df5760003560e060020a900480639010d07c1161020e578063ca15c87311610129578063d75e7980116100bc578063ed3719a51161008b578063ed3719a5146108c0578063f643b8fd146108ff578063f843070814610912578063fa9f343814610925578063fdd198c31461093857600080fd5b8063d75e798014610874578063d91413ba14610887578063e5ed1d591461089a578063eb33983d146108ad57600080fd5b8063d2d6756b116100f8578063d2d6756b1461080e578063d3fb72891461082e578063d4f5b1521461084e578063d547741f1461086157600080fd5b8063ca15c873146107d6578063cd1ec7f2146107e9578063cfdbf254146107fe578063d1e18d261461080657600080fd5b8063a4f9c9df116101a1578063b2df0ca211610170578063b2df0ca2146104ee578063b40c89df1461079f578063babdeefa146107b2578063c06dea4e146107c557600080fd5b8063a4f9c9df14610744578063a6f979ff14610757578063aab2aeb81461076a578063ad1def1e1461078a57600080fd5b80639eb356cb116101dd5780639eb356cb146107035780639f6c4017146107165780639f82bcc014610729578063a217fddf1461073c57600080fd5b80639010d07c146106b757806391d14854146106ca57806395805dad146106dd57806398bd7572146106f057600080fd5b806331e019f6116102fe5780634e0e1a3e1161029157806372c6c6b61161026057806372c6c6b61461067657806376a321c1146106895780637cc75d1c1461069c57806384bf09b6146106af57600080fd5b80634e0e1a3e1461061d57806351709a731461063d57806360c20500146106505780636b6ec8691461066357600080fd5b8063374f1d35116102cd578063374f1d35146105e657806338b145df146105f95780633ca61a58146106025780634032b72b1461060a57600080fd5b806331e019f6146105a7578063346c9409146105ba57806335e333e4146105c257806336568abe146105d357600080fd5b8063194f2a36116103765780632967875611610345578063296787561461055b57806329ce1ec51461056e5780632c47669a146105815780632f2ff15d1461059457600080fd5b8063194f2a36146104f05780631c834a7f14610510578063248a9ca31461052557806328d7e11a1461054857600080fd5b8063108c5e14116103b2578063108c5e141461046d578063153a75901461047657806317d7e833146104bb57806319006018146104db57600080fd5b806301ffc9a7146103e457806304a0fb171461040c5780630b197f2e1461042f5780630f04ba671461045a575b600080fd5b6103f76103f2366004613a33565b61094b565b60405190151581526020015b60405180910390f35b6104216000805160206148ef83398151915281565b604051908152602001610403565b60105461044290600160a060020a031681565b604051600160a060020a039091168152602001610403565b6103f7610468366004613a72565b61098f565b610421600f5481565b610442610484366004613b80565b60086020908152600092835260409092208151808301840180519281529084019290930191909120915254600160a060020a031681565b6104ce6104c9366004613bc7565b6109a9565b6040516104039190613c41565b6104ee6104e9366004613d58565b610a62565b005b6105036104fe366004613b80565b610bae565b6040516104039190613e0f565b61042160008051602061490f83398151915281565b610421610533366004613e70565b60009081526020819052604090206001015490565b6104ee610556366004613e89565b610ef1565b6104ee610569366004613f43565b610f8e565b6104ee61057c366004613a72565b610fad565b6104ee61058f366004613fb8565b610fd4565b6104ee6105a2366004614025565b611021565b6104ee6105b5366004614069565b61104b565b6103f76111e1565b601354600160a060020a0316610442565b6104ee6105e1366004614025565b611232565b6104ce6105f4366004613e70565b6112bd565b610421600e5481565b6105036112e8565b6104ee610618366004613a72565b6113c1565b61042161062b366004613e70565b60046020526000908152604090205481565b6104ce61064b366004614142565b6113f1565b6104ee61065e366004613e70565b611445565b610503610671366004613b80565b6114d0565b6104ee610684366004613a72565b611800565b6104ee610697366004613bc7565b61187f565b6104216106aa366004613bc7565b6118a9565b6104ee6118da565b6104426106c5366004613bc7565b611b7a565b6103f76106d8366004614025565b611b99565b6104ee6106eb366004613e70565b611bc2565b6104ee6106fe366004613e89565b611c10565b6103f7610711366004614181565b611c75565b6104ee610724366004613e70565b6120c2565b6104ee6107373660046141b9565b6120da565b610421600081565b6104ee610752366004613e70565b612196565b6104216107653660046141fe565b6121ae565b610421610778366004613e70565b600b6020526000908152604090205481565b6104216000805160206148cf83398151915281565b6104ce6107ad366004614142565b612293565b6105036107c0366004613e70565b6122ca565b600254600160a060020a0316610442565b6104216107e4366004613e70565b6123b6565b6104216000805160206148af83398151915281565b61042160c881565b6104ee6123cd565b61042161081c366004613e70565b60056020526000908152604090205481565b61084161083c366004613e70565b6124d3565b604051610403919061422c565b6104ee61085c366004613a72565b612535565b6104ee61086f366004614025565b612558565b6104ce610882366004613bc7565b61257d565b610421610895366004614270565b6125a1565b6104ee6108a8366004613e70565b6126c5565b6104ce6108bb366004613e70565b6126dd565b6103f76108ce366004613b80565b6014602090815260009283526040909220815180830184018051928152908401929093019190912091525460ff1681565b6104ee61090d3660046142f9565b6126f6565b6104ee61092036600461440a565b6128f7565b6104ee610933366004614461565b612a08565b6104ee610946366004613e70565b612adb565b6000600160e060020a031982167f5a05180f000000000000000000000000000000000000000000000000000000001480610989575061098982612b92565b92915050565b60006109896000805160206148ef83398151915283611b99565b600660205281600052604060002081815481106109c557600080fd5b906000526020600020016000915091505080546109e1906144a4565b80601f0160208091040260200160405190810160405280929190818152602001828054610a0d906144a4565b8015610a5a5780601f10610a2f57610100808354040283529160200191610a5a565b820191906000526020600020905b815481529060010190602001808311610a3d57829003601f168201915b505050505081565b6000805160206148cf833981519152610a7a81612bf9565b8151845114610ad35760405160e560020a62461bcd02815260206004820181905260248201527f696e70757473202f206f757470757473206c656e677468206d69736d6174636860448201526064015b60405180910390fd5b610ade868686612c03565b610b2d5760405160e560020a62461bcd02815260206004820152600e60248201527f696e7075747320696e76616c69640000000000000000000000000000000000006044820152606401610aca565b610b38868484612ca6565b610b875760405160e560020a62461bcd02815260206004820152600f60248201527f6f75747075747320696e76616c696400000000000000000000000000000000006044820152606401610aca565b60005b8451811015610ba55780610b9d816144fb565b915050610b8a565b50505050505050565b60008281526009602052604080822090516060929190610bcf908590614516565b9081526020016040518091039020805480602002602001604051908101604052809291908181526020016000905b82821015610ca9578382906000526020600020018054610c1c906144a4565b80601f0160208091040260200160405190810160405280929190818152602001828054610c48906144a4565b8015610c955780601f10610c6a57610100808354040283529160200191610c95565b820191906000526020600020905b815481529060010190602001808311610c7857829003601f168201915b505050505081526020019060010190610bfd565b505060008080526009602052604051939450927fec8156718a8372b1db44bb411437d0870f3e3790d4a08526d024ce1b0b668f6b9250610ceb91508690614516565b9081526020016040518091039020805480602002602001604051908101604052809291908181526020016000905b82821015610dc5578382906000526020600020018054610d38906144a4565b80601f0160208091040260200160405190810160405280929190818152602001828054610d64906144a4565b8015610db15780601f10610d8657610100808354040283529160200191610db1565b820191906000526020600020905b815481529060010190602001808311610d9457829003601f168201915b505050505081526020019060010190610d19565b505050509050600082511115610ee557600081518351610de59190614532565b67ffffffffffffffff811115610dfd57610dfd613a8f565b604051908082528060200260200182016040528015610e3057816020015b6060815260200190600190039081610e1b5790505b50905060005b8151811015610ede578251811015610e8457828181518110610e5a57610e5a61454a565b6020026020010151828281518110610e7457610e7461454a565b6020026020010181905250610ec8565b83835182610e929190614563565b81518110610ea257610ea261454a565b6020026020010151828281518110610ebc57610ebc61454a565b60200260200101819052505b8194508080610ed6906144fb565b915050610e36565b5050610ee9565b8092505b505092915050565b60008051602061490f833981519152610f0981612bf9565b6013546040517f28d7e11a000000000000000000000000000000000000000000000000000000008152600160a060020a03909116906328d7e11a90610f569087908790879060040161457a565b600060405180830381600087803b158015610f7057600080fd5b505af1158015610f84573d6000803e3d6000fd5b5050505050505050565b6000805160206148af833981519152610fa681612bf9565b5050505050565b6000610fb881612bf9565b610fd06000805160206148ef83398151915283612d41565b5050565b6000805160206148cf833981519152610fec81612bf9565b82518451146110105760405160e560020a62461bcd028152600401610aca906145a2565b61101b848484612d4b565b50505050565b60008281526020819052604090206001015461103c81612bf9565b6110468383612eaa565b505050565b60008051602061490f83398151915261106381612bf9565b6013548551600160a060020a03909116906328d7e11a9086908690899060009061108f5761108f61454a565b60200260200101516040518463ffffffff1660e060020a0281526004016110b89392919061457a565b600060405180830381600087803b1580156110d257600080fd5b505af11580156110e6573d6000803e3d6000fd5b50506013548751600160a060020a0390911692506398bd7572915086908690899061111390600190614563565b815181106111235761112361454a565b60200260200101516040518463ffffffff1660e060020a02815260040161114c9392919061457a565b600060405180830381600087803b15801561116657600080fd5b505af115801561117a573d6000803e3d6000fd5b5050505060005b85518110156111d9576111c786828151811061119f5761119f61454a565b60200260200101518483815181106111b9576111b961454a565b6020026020010151866128f7565b806111d1816144fb565b915050611181565b505050505050565b6000805b60035481101561122e57600381815481106112025761120261454a565b906000526020600020015460001461121c57600191505090565b80611226816144fb565b9150506111e5565b5090565b600160a060020a03811633146112b35760405160e560020a62461bcd02815260206004820152602f60248201527f416363657373436f6e74726f6c3a2063616e206f6e6c792072656e6f756e636560448201527f20726f6c657320666f722073656c6600000000000000000000000000000000006064820152608401610aca565b610fd08282612ecc565b601181815481106112cd57600080fd5b9060005260206000200160009150905080546109e1906144a4565b60606011805480602002602001604051908101604052809291908181526020016000905b828210156113b857838290600052602060002001805461132b906144a4565b80601f0160208091040260200160405190810160405280929190818152602001828054611357906144a4565b80156113a45780601f10611379576101008083540402835291602001916113a4565b820191906000526020600020905b81548152906001019060200180831161138757829003601f168201915b50505050508152602001906001019061130c565b50505050905090565b6000805160206148cf8339815191526113d981612bf9565b610fd060008051602061490f83398151915283612d41565b6009602090815260008481526040902083518085018301805192815290830192850192909220915280548290811061142857600080fd5b90600052602060002001600092509250505080546109e1906144a4565b60008051602061490f83398151915261145d81612bf9565b6002546040517f60c2050000000000000000000000000000000000000000000000000000000000815260048101849052600160a060020a03909116906360c2050090602401600060405180830381600087803b1580156114bc57600080fd5b505af11580156111d9573d6000803e3d6000fd5b6000828152600a6020526040808220905160609291906114f1908590614516565b9081526020016040518091039020805480602002602001604051908101604052809291908181526020016000905b828210156115cb57838290600052602060002001805461153e906144a4565b80601f016020809104026020016040519081016040528092919081815260200182805461156a906144a4565b80156115b75780601f1061158c576101008083540402835291602001916115b7565b820191906000526020600020905b81548152906001019060200180831161159a57829003601f168201915b50505050508152602001906001019061151f565b50506000808052600a602052604051939450927f13da86008ba1c6922daee3e07db95305ef49ebced9f5467a0b8613fcc6b343e3925061160d91508690614516565b9081526020016040518091039020805480602002602001604051908101604052809291908181526020016000905b828210156116e757838290600052602060002001805461165a906144a4565b80601f0160208091040260200160405190810160405280929190818152602001828054611686906144a4565b80156116d35780601f106116a8576101008083540402835291602001916116d3565b820191906000526020600020905b8154815290600101906020018083116116b657829003601f168201915b50505050508152602001906001019061163b565b505050509050600082511115610ee5576000815183516117079190614532565b67ffffffffffffffff81111561171f5761171f613a8f565b60405190808252806020026020018201604052801561175257816020015b606081526020019060019003908161173d5790505b50905060005b8151811015610ede5782518110156117a65782818151811061177c5761177c61454a565b60200260200101518282815181106117965761179661454a565b60200260200101819052506117ea565b838351826117b49190614563565b815181106117c4576117c461454a565b60200260200101518282815181106117de576117de61454a565b60200260200101819052505b81945080806117f8906144fb565b915050611758565b60008051602061490f83398151915261181881612bf9565b81600160a060020a0316630a75806e6040518163ffffffff1660e060020a0281526004016020604051808303816000875af115801561185b573d6000803e3d6000fd5b505050506040513d601f19601f8201168201806040525081019061104691906145ff565b60008051602061490f83398151915261189781612bf9565b50600090815260046020526040902055565b600d60205281600052604060002081815481106118c557600080fd5b90600052602060002001600091509150505481565b6118f26000805160206148ef83398151915233611b99565b8061191057506119106000805160206148cf83398151915233611b99565b61192f5760405160e560020a62461bcd028152600401610aca90614618565b601154611b78576000600f54600e546119489190614675565b67ffffffffffffffff81111561196057611960613a8f565b604051908082528060200260200182016040528015611989578160200160208202803683370190505b50600f54600e546040517f9f6b56490000000000000000000000000000000000000000000000000000000081526004810192909252602482015290915073__XYCoordinates_________________________90639f6b564990604401600060405180830381865af4158015611a02573d6000803e3d6000fd5b505050506040513d6000823e601f3d908101601f19168201604052611a2a9190810190614694565b8051611a3e916011916020909101906138ee565b5060005b8151811015611a98576010548251600160a060020a0390911690839083908110611a6e57611a6e61454a565b600160a060020a039092166020928302919091019091015280611a90816144fb565b915050611a42565b50611b76816011805480602002602001604051908101604052809291908181526020016000905b82821015611b6b578382906000526020600020018054611ade906144a4565b80601f0160208091040260200160405190810160405280929190818152602001828054611b0a906144a4565b8015611b575780601f10611b2c57610100808354040283529160200191611b57565b820191906000526020600020905b815481529060010190602001808311611b3a57829003601f168201915b505050505081526020019060010190611abf565b505050506000612d4b565b505b565b6000828152600160205260408120611b929083612eee565b9392505050565b600091825260208281526040808420600160a060020a0393909316845291905290205460ff1690565b60008051602061490f833981519152611bda81612bf9565b50600380546001810182556000919091527fc2575a0e9e593c00f959f8c92f12db2869c3395a3b0502d05e2516446f71f85b0155565b60008051602061490f833981519152611c2881612bf9565b6013546040517f98bd7572000000000000000000000000000000000000000000000000000000008152600160a060020a03909116906398bd757290610f569087908790879060040161457a565b6002546040517fbca7caa000000000000000000000000000000000000000000000000000000000815260048101859052600160a060020a038481166024830152600092839291169063bca7caa090604401602060405180830381865afa158015611ce3573d6000803e3d6000fd5b505050506040513d601f19601f82011682018060405250810190611d0791906145ff565b6000868152600c60209081526040808320848452909152812080549293509091611d30906144a4565b80601f0160208091040260200160405190810160405280929190818152602001828054611d5c906144a4565b8015611da95780601f10611d7e57610100808354040283529160200191611da9565b820191906000526020600020905b815481529060010190602001808311611d8c57829003601f168201915b505050505090506000611dbc87836114d0565b805190915080611e115760405160e560020a62461bcd02815260206004820152601760248201527f4e6f206578697420706174687320617661696c61626c650000000000000000006044820152606401610aca565b60008881526008602052604080822090519196508691611e32908690614516565b90815260405190819003602001902054600160a060020a031690506000828811611e5c5787611e5f565b60005b90506000848281518110611e7557611e7561454a565b602002602001015190506000600860008d815260200190815260200160002082604051611ea29190614516565b908152602001604051809103902060009054906101000a9004600160a060020a0316905083600160a060020a0316637caf12808c8e8a6040518463ffffffff1660e060020a028152600401611ef99392919061457a565b602060405180830381865afa158015611f16573d6000803e3d6000fd5b505050506040513d601f19601f82011682018060405250810190611f3a919061477e565b8015611fb5575080600160a060020a031663e15b3ad08c8e856040518463ffffffff1660e060020a028152600401611f749392919061457a565b602060405180830381865afa158015611f91573d6000803e3d6000fd5b505050506040513d601f19601f82011682018060405250810190611fb5919061477e565b156120b35783600160a060020a03166328d7e11a8c8e8a6040518463ffffffff1660e060020a028152600401611fed9392919061457a565b600060405180830381600087803b15801561200757600080fd5b505af115801561201b573d6000803e3d6000fd5b5050505080600160a060020a03166398bd75728c8e856040518463ffffffff1660e060020a0281526004016120529392919061457a565b600060405180830381600087803b15801561206c57600080fd5b505af1158015612080573d6000803e3d6000fd5b50505060008d8152600c602090815260408083208c8452825290912084516120ad93509091850190613947565b50600198505b50505050505050509392505050565b60008051602061490f833981519152610fd081612bf9565b60008051602061490f8339815191526120f281612bf9565b600082815260046020526040902054156121775760405160e560020a62461bcd02815260206004820152602c60248201527f63616e27742073657420696e697469616c207a6f6e652c2067616d6520616c7260448201527f65616479207374617274656400000000000000000000000000000000000000006064820152608401610aca565b6000828152600760209081526040909120845161101b92860190613947565b6000805160206148af833981519152610fd081612bf9565b60006121c86000805160206148ef83398151915233611b99565b806121e657506121e66000805160206148cf83398151915233611b99565b6122055760405160e560020a62461bcd028152600401610aca90614618565b82600260006101000a815481600160a060020a030219169083600160a060020a0316021790555081600160a060020a0316630a75806e6040518163ffffffff1660e060020a0281526004016020604051808303816000875af115801561226f573d6000803e3d6000fd5b505050506040513d601f19601f82011682018060405250810190611b9291906145ff565b600a602090815260008481526040902083518085018301805192815290830192850192909220915280548290811061142857600080fd5b606060066000838152602001908152602001600020805480602002602001604051908101604052809291908181526020016000905b828210156123ab57838290600052602060002001805461231e906144a4565b80601f016020809104026020016040519081016040528092919081815260200182805461234a906144a4565b80156123975780601f1061236c57610100808354040283529160200191612397565b820191906000526020600020905b81548152906001019060200180831161237a57829003601f168201915b5050505050815260200190600101906122ff565b505050509050919050565b600081815260016020526040812061098990612efa565b60008051602061490f8339815191526123e581612bf9565b60008060005b60035481101561245457600381815481106124085761240861454a565b9060005260206000200154600014612442576003818154811061242d5761242d61454a565b90600052602060002001549250809150612454565b8061244c816144fb565b9150506123eb565b506000828152600460205260409020546124765761247182612f04565b612496565b600082815260046020526040902054600114156124965761249682612f8f565b60008281526004602052604090205460011015611046576000600382815481106124c2576124c261454a565b600091825260209091200155505050565b6000818152600d602090815260409182902080548351818402810184019094528084526060939283018282801561252957602002820191906000526020600020905b815481526020019060010190808311612515575b50505050509050919050565b600061254081612bf9565b610fd060008051602061490f83398151915283611021565b60008281526020819052604090206001015461257381612bf9565b6110468383612ecc565b600c602090815260009283526040808420909152908252902080546109e1906144a4565b60006125bb6000805160206148ef83398151915233611b99565b806125d957506125d96000805160206148cf83398151915233611b99565b6125f85760405160e560020a62461bcd028152600401610aca90614618565b815183511461261c5760405160e560020a62461bcd028152600401610aca906145a2565b82511561262e5761262e838383612d4b565b84600260006101000a815481600160a060020a030219169083600160a060020a0316021790555083600160a060020a0316630a75806e6040518163ffffffff1660e060020a0281526004016020604051808303816000875af1158015612698573d6000803e3d6000fd5b505050506040513d601f19601f820116820180604052508101906126bc91906145ff565b95945050505050565b6000805160206148cf833981519152611bda81612bf9565b600760205260009081526040902080546109e1906144a4565b6000805160206148cf83398151915261270e81612bf9565b6127188383613348565b6127675760405160e560020a62461bcd02815260206004820152601a60248201527f6e6f7420616c6c207a6f6e6520696e64656365732076616c69640000000000006044820152606401610aca565b60005b825181101561101b576000848152600a6020526040902083518490839081106127955761279561454a565b60200260200101516000600281106127af576127af61454a565b60200201516040516127c19190614516565b90815260200160405180910390208382815181106127e1576127e161454a565b60200260200101516001600281106127fb576127fb61454a565b602090810291909101518254600181018455600093845292829020815161282b9491909101929190910190613947565b506000848152600960205260409020835184908390811061284e5761284e61454a565b60200260200101516001600281106128685761286861454a565b602002015160405161287a9190614516565b908152602001604051809103902083828151811061289a5761289a61454a565b60200260200101516000600281106128b4576128b461454a565b60209081029190910151825460018101845560009384529282902081516128e49491909101929190910190613947565b50806128ef816144fb565b91505061276a565b60008051602061490f83398151915261290f81612bf9565b60008281526014602052604090819020905161292c908690614516565b9081526040519081900360200190205460ff1661101b576013546040517fd4939609000000000000000000000000000000000000000000000000000000008152600160a060020a039091169063d493960990612990908690869089906004016147a0565b600060405180830381600087803b1580156129aa57600080fd5b505af11580156129be573d6000803e3d6000fd5b505050600083815260146020526040908190209051600192506129e2908790614516565b908152604051908190036020019020805491151560ff1990921691909117905550505050565b6000805160206148af833981519152612a2081612bf9565b6002546040517fbca7caa000000000000000000000000000000000000000000000000000000000815260048101869052600160a060020a038581166024830152600092169063bca7caa090604401602060405180830381865afa158015612a8b573d6000803e3d6000fd5b505050506040513d601f19601f82011682018060405250810190612aaf91906145ff565b6000868152600c60209081526040808320848452825290912085519293506111d9929091860190613947565b60008051602061490f833981519152612af381612bf9565b50601255565b612b038282611b99565b610fd057600082815260208181526040808320600160a060020a03851684529091529020805460ff19166001179055612b393390565b600160a060020a031681600160a060020a0316837f2f8788117e7eff1d82e926ec794901d17c78024a50270940304540a733656f0d60405160405180910390a45050565b6000611b9283600160a060020a038416613457565b6000600160e060020a031982167f7965db0b00000000000000000000000000000000000000000000000000000000148061098957507f01ffc9a700000000000000000000000000000000000000000000000000000000600160e060020a0319831614610989565b611b7681336134a6565b600160005b8251811015612c9e57828181518110612c2357612c2361454a565b60200260200101516001612c379190614532565b60008681526009602052604090208551869084908110612c5957612c5961454a565b6020026020010151604051612c6e9190614516565b9081526040519081900360200190205410612c8c5760009150612c9e565b80612c96816144fb565b915050612c08565b509392505050565b600160005b8251811015612c9e57828181518110612cc657612cc661454a565b60200260200101516001612cda9190614532565b6000868152600a602052604090208551869084908110612cfc57612cfc61454a565b6020026020010151604051612d119190614516565b9081526040519081900360200190205410612d2f5760009150612c9e565b80612d39816144fb565b915050612cab565b610fd08282612eaa565b60005b835181101561101b5760008281526006602052604090208351849083908110612d7957612d7961454a565b60209081029190910181015182546001810184556000938452928290208151612dab9491909101929190910190613947565b50838181518110612dbe57612dbe61454a565b602002602001015160086000848152602001908152602001600020848381518110612deb57612deb61454a565b6020026020010151604051612e009190614516565b908152602001604051809103902060006101000a815481600160a060020a030219169083600160a060020a03160217905550612e636000805160206148af833981519152858381518110612e5657612e5661454a565b6020026020010151611b99565b612e9857612e986000805160206148af833981519152858381518110612e8b57612e8b61454a565b6020026020010151612d41565b80612ea2816144fb565b915050612d4e565b612eb48282612af9565b60008281526001602052604090206110469082612b7d565b612ed6828261350d565b60008281526001602052604090206110469082613572565b6000611b928383613587565b6000610989825490565b6002546040517f60c2050000000000000000000000000000000000000000000000000000000000815260048101839052600160a060020a03909116906360c2050090602401600060405180830381600087803b158015612f6357600080fd5b505af1158015612f77573d6000803e3d6000fd5b50505060009182525060046020526040902060019055565b60008181526007602052604081208054612fa8906144a4565b15159050612fde5760008281526006602052604081208054909190612fcf57612fcf61454a565b90600052602060002001612fed565b60008281526007602052604090205b8054612ff8906144a4565b80601f0160208091040260200160405190810160405280929190818152602001828054613024906144a4565b80156130715780601f1061304657610100808354040283529160200191613071565b820191906000526020600020905b81548152906001019060200180831161305457829003601f168201915b505050505090506000600860008481526020019081526020016000208260405161309b9190614516565b90815260405190819003602001902054600160a060020a031690508060005b6002546040517fb77ff41100000000000000000000000000000000000000000000000000000000815260048101879052600160a060020a039091169063b77ff41190602401602060405180830381865afa15801561311c573d6000803e3d6000fd5b505050506040513d601f19601f8201168201806040525081019061314091906145ff565b811015613330576000613154826001614532565b6002546040517ff50432540000000000000000000000000000000000000000000000000000000081526004810189905260248101839052919250600091600160a060020a039091169063f504325490604401602060405180830381865afa1580156131c3573d6000803e3d6000fd5b505050506040513d601f19601f820116820180604052508101906131e791906147e0565b6040517fe15b3ad0000000000000000000000000000000000000000000000000000000008152909150600160a060020a0385169063e15b3ad0906132339084908b908b9060040161457a565b602060405180830381865afa158015613250573d6000803e3d6000fd5b505050506040513d601f19601f82011682018060405250810190613274919061477e565b156132f9576040517f98bd7572000000000000000000000000000000000000000000000000000000008152600160a060020a038516906398bd7572906132c29084908b908b9060040161457a565b600060405180830381600087803b1580156132dc57600080fd5b505af11580156132f0573d6000803e3d6000fd5b5050505061331b565b6000878152600d60209081526040822080546001810182559083529120018290555b50508080613328906144fb565b9150506130ba565b50505060009182525060046020526040902060029055565b6000805b825181101561345057600084815260086020526040812084516001945085908490811061337b5761337b61454a565b60200260200101516000600281106133955761339561454a565b60200201516040516133a79190614516565b90815260405190819003602001902054600160a060020a031614806134305750600084815260086020526040812084518590849081106133e9576133e961454a565b60200260200101516001600281106134035761340361454a565b60200201516040516134159190614516565b90815260405190819003602001902054600160a060020a0316145b1561343e5760009150613450565b80613448816144fb565b91505061334c565b5092915050565b600081815260018301602052604081205461349e57508154600181810184556000848152602080822090930184905584548482528286019093526040902091909155610989565b506000610989565b6134b08282611b99565b610fd0576134c881600160a060020a031660146135b1565b6134d38360206135b1565b6040516020016134e49291906147fd565b60408051601f198184030181529082905260e560020a62461bcd028252610aca91600401613c41565b6135178282611b99565b15610fd057600082815260208181526040808320600160a060020a0385168085529252808320805460ff1916905551339285917ff6391f5c32d9c69d2a47ea670b442974b53935d1edc7fd64eb21e047a839171b9190a45050565b6000611b9283600160a060020a0384166137fb565b600082600001828154811061359e5761359e61454a565b9060005260206000200154905092915050565b606060006135c0836002614675565b6135cb906002614532565b67ffffffffffffffff8111156135e3576135e3613a8f565b6040519080825280601f01601f19166020018201604052801561360d576020820181803683370190505b5090507f3000000000000000000000000000000000000000000000000000000000000000816000815181106136445761364461454a565b60200101907effffffffffffffffffffffffffffffffffffffffffffffffffffffffffffff1916908160001a9053507f7800000000000000000000000000000000000000000000000000000000000000816001815181106136a7576136a761454a565b60200101907effffffffffffffffffffffffffffffffffffffffffffffffffffffffffffff1916908160001a90535060006136e3846002614675565b6136ee906001614532565b90505b60018111156137a9577f303132333435363738396162636465660000000000000000000000000000000085600f166010811061372f5761372f61454a565b1a7f0100000000000000000000000000000000000000000000000000000000000000028282815181106137645761376461454a565b60200101907effffffffffffffffffffffffffffffffffffffffffffffffffffffffffffff1916908160001a9053506010909404936137a28161487e565b90506136f1565b508315611b925760405160e560020a62461bcd02815260206004820181905260248201527f537472696e67733a20686578206c656e67746820696e73756666696369656e746044820152606401610aca565b600081815260018301602052604081205480156138e457600061381f600183614563565b855490915060009061383390600190614563565b90508181146138985760008660000182815481106138535761385361454a565b90600052602060002001549050808760000184815481106138765761387661454a565b6000918252602080832090910192909255918252600188019052604090208390555b85548690806138a9576138a9614895565b600190038181906000526020600020016000905590558560010160008681526020019081526020016000206000905560019350505050610989565b6000915050610989565b82805482825590600052602060002090810192821561393b579160200282015b8281111561393b578251805161392b918491602090910190613947565b509160200191906001019061390e565b5061122e9291506139c7565b828054613953906144a4565b90600052602060002090601f01602090048101928261397557600085556139bb565b82601f1061398e57805160ff19168380011785556139bb565b828001600101855582156139bb579182015b828111156139bb5782518255916020019190600101906139a0565b5061122e9291506139e4565b8082111561122e5760006139db82826139f9565b506001016139c7565b5b8082111561122e57600081556001016139e5565b508054613a05906144a4565b6000825580601f10613a15575050565b601f016020900490600052602060002090810190611b7691906139e4565b600060208284031215613a4557600080fd5b8135600160e060020a031981168114611b9257600080fd5b600160a060020a0381168114611b7657600080fd5b600060208284031215613a8457600080fd5b8135611b9281613a5d565b60e060020a634e487b7102600052604160045260246000fd5b6040805190810167ffffffffffffffff81118282101715613acb57613acb613a8f565b60405290565b604051601f8201601f1916810167ffffffffffffffff81118282101715613afa57613afa613a8f565b604052919050565b600067ffffffffffffffff821115613b1c57613b1c613a8f565b50601f01601f191660200190565b600082601f830112613b3b57600080fd5b8135613b4e613b4982613b02565b613ad1565b818152846020838601011115613b6357600080fd5b816020850160208301376000918101602001919091529392505050565b60008060408385031215613b9357600080fd5b82359150602083013567ffffffffffffffff811115613bb157600080fd5b613bbd85828601613b2a565b9150509250929050565b60008060408385031215613bda57600080fd5b50508035926020909101359150565b60005b83811015613c04578181015183820152602001613bec565b8381111561101b5750506000910152565b60008151808452613c2d816020860160208601613be9565b601f01601f19169290920160200192915050565b602081526000611b926020830184613c15565b600067ffffffffffffffff821115613c6e57613c6e613a8f565b5060209081020190565b600082601f830112613c8957600080fd5b81356020613c99613b4983613c54565b82815291810284018101918181019086841115613cb557600080fd5b8286015b84811015613cf557803567ffffffffffffffff811115613cd95760008081fd5b613ce78986838b0101613b2a565b845250918301918301613cb9565b509695505050505050565b600082601f830112613d1157600080fd5b81356020613d21613b4983613c54565b82815291810284018101918181019086841115613d3d57600080fd5b8286015b84811015613cf55780358352918301918301613d41565b600080600080600060a08688031215613d7057600080fd5b85359450602086013567ffffffffffffffff80821115613d8f57600080fd5b613d9b89838a01613c78565b95506040880135915080821115613db157600080fd5b613dbd89838a01613d00565b94506060880135915080821115613dd357600080fd5b613ddf89838a01613c78565b93506080880135915080821115613df557600080fd5b50613e0288828901613d00565b9150509295509295909350565b600060208083018184528085518083526040860191506040848202870101925083870160005b82811015613e6357603f19888603018452613e51858351613c15565b94509285019290850190600101613e35565b5092979650505050505050565b600060208284031215613e8257600080fd5b5035919050565b600080600060608486031215613e9e57600080fd5b8335613ea981613a5d565b925060208401359150604084013567ffffffffffffffff811115613ecc57600080fd5b613ed886828701613b2a565b9150509250925092565b600082601f830112613ef357600080fd5b81356020613f03613b4983613c54565b82815291810284018101918181019086841115613f1f57600080fd5b8286015b84811015613cf5578035613f3681613a5d565b8352918301918301613f23565b60008060008060808587031215613f5957600080fd5b84359350602085013567ffffffffffffffff80821115613f7857600080fd5b613f8488838901613ee2565b94506040870135915080821115613f9a57600080fd5b50613fa787828801613d00565b949793965093946060013593505050565b600080600060608486031215613fcd57600080fd5b833567ffffffffffffffff80821115613fe557600080fd5b613ff187838801613ee2565b9450602086013591508082111561400757600080fd5b5061401486828701613c78565b925050604084013590509250925092565b6000806040838503121561403857600080fd5b82359150602083013561404a81613a5d565b809150509250929050565b8035600c811061406457600080fd5b919050565b6000806000806080858703121561407f57600080fd5b843567ffffffffffffffff8082111561409757600080fd5b6140a388838901613c78565b955060209150818701356140b681613a5d565b9450604087013593506060870135818111156140d157600080fd5b87019050601f810188136140e457600080fd5b80356140f2613b4982613c54565b8181529083028201830190838101908a83111561410e57600080fd5b928401925b828410156141335761412484614055565b82529284019290840190614113565b979a9699509497505050505050565b60008060006060848603121561415757600080fd5b83359250602084013567ffffffffffffffff81111561417557600080fd5b61401486828701613b2a565b60008060006060848603121561419657600080fd5b8335925060208401356141a881613a5d565b929592945050506040919091013590565b600080604083850312156141cc57600080fd5b823567ffffffffffffffff8111156141e357600080fd5b6141ef85828601613b2a565b95602094909401359450505050565b6000806040838503121561421157600080fd5b823561421c81613a5d565b9150602083013561404a81613a5d565b6020808252825182820181905260009190848201906040850190845b8181101561426457835183529284019291840191600101614248565b50909695505050505050565b6000806000806080858703121561428657600080fd5b843561429181613a5d565b935060208501356142a181613a5d565b9250604085013567ffffffffffffffff808211156142be57600080fd5b6142ca88838901613ee2565b935060608701359150808211156142e057600080fd5b506142ed87828801613c78565b91505092959194509250565b6000806040838503121561430c57600080fd5b8235915060208084013567ffffffffffffffff8082111561432c57600080fd5b818601915086601f83011261434057600080fd5b813561434e613b4982613c54565b8181529084028301840190848101908983111561436a57600080fd5b8585015b838110156143f957848135111561438457600080fd5b803586018b603f82011261439757600080fd5b61439f613aa8565b808d6060840111156143b057600080fd5b8983015b606084018110156143e95788813511156143cd57600080fd5b6143dc8f8c8335870101613b2a565b8352918a01918a016143b4565b508552505091860191860161436e565b508096505050505050509250929050565b60008060006060848603121561441f57600080fd5b833567ffffffffffffffff81111561443657600080fd5b61444286828701613b2a565b93505061445160208501614055565b9150604084013590509250925092565b60008060006060848603121561447657600080fd5b83359250602084013561448881613a5d565b9150604084013567ffffffffffffffff811115613ecc57600080fd5b6002810460018216806144b857607f821691505b602082108114156144dc5760e060020a634e487b7102600052602260045260246000fd5b50919050565b60e060020a634e487b7102600052601160045260246000fd5b600060001982141561450f5761450f6144e2565b5060010190565b60008251614528818460208701613be9565b9190910192915050565b60008219821115614545576145456144e2565b500190565b60e060020a634e487b7102600052603260045260246000fd5b600082821015614575576145756144e2565b500390565b600160a060020a03841681528260208201526060604082015260006126bc6060830184613c15565b60208082526025908201527f616464726573736573202620616c696173657320646966666572656e74206c6560408201527f6e67746873000000000000000000000000000000000000000000000000000000606082015260800190565b60006020828403121561461157600080fd5b5051919050565b60208082526024908201527f47616d65204d6173746572206f7220466163746f727920726f6c65207265717560408201527f6972656400000000000000000000000000000000000000000000000000000000606082015260800190565b600081600019048311821515161561468f5761468f6144e2565b500290565b600060208083850312156146a757600080fd5b825167ffffffffffffffff808211156146bf57600080fd5b818501915085601f8301126146d357600080fd5b81516146e1613b4982613c54565b818152908402830184019084810190888311156146fd57600080fd5b8585015b83811015614771578051858111156147195760008081fd5b8601603f81018b1361472b5760008081fd5b87810151604061473d613b4983613b02565b8281528d828486010111156147525760008081fd5b614761838c8301848701613be9565b8652505050918601918601614701565b5098975050505050505050565b60006020828403121561479057600080fd5b81518015158114611b9257600080fd5b6000600c85106147c35760e060020a634e487b7102600052602160045260246000fd5b848252836020830152606060408301526126bc6060830184613c15565b6000602082840312156147f257600080fd5b8151611b9281613a5d565b7f416363657373436f6e74726f6c3a206163636f756e7420000000000000000000815260008351614835816017850160208801613be9565b7f206973206d697373696e6720726f6c65200000000000000000000000000000006017918401918201528351614872816028840160208801613be9565b01602801949350505050565b60008161488d5761488d6144e2565b506000190190565b60e060020a634e487b7102600052603160045260246000fdfe72b06b67826def9fabb513b23f7e5eb74f7ece26d25dad4006546ecf4a13763d1d93c87416ca7b54f0fb8323167b72760e8e2ec93d48660953897a150f97a8b4dfbefbf47cfe66b701d8cfdbce1de81c821590819cb07e71cb01b6602fb0ee2780e2196015fc06a9d891759f8e4f51eb314ef5e9ea068528a8ed0063b87759f0a2646970667358221220bddde7abddef3f72b6a5637e7ba710e3bfeb58ed057293cd9fc95cf492a24cad64736f6c634300080b0033",
  "immutableReferences": {},
  "source": "// SPDX-License-Identifier: GPL-3.0\npragma solidity >=0.7.0 <0.9.0;\n\nimport \"@luckymachines/game-core/contracts/src/v0.0/custom_boards/HexGrid.sol\";\nimport \"./HexplorationZone.sol\";\n\ncontract HexplorationBoard is HexGrid {\n    // This role is a hybrid controller, assumes on chain verification of moves before submission\n\n    uint256 private _randomness;\n\n    HexplorationZone internal HEX_ZONE;\n    // game ID => zone alias returns bool\n    mapping(uint256 => mapping(string => bool)) public zoneEnabled;\n\n    constructor(\n        address adminAddress,\n        uint256 gridWidth,\n        uint256 gridHeight,\n        address zoneAddress\n    ) HexGrid(adminAddress, gridWidth, gridHeight, zoneAddress) {\n        HEX_ZONE = HexplorationZone(zoneAddress);\n    }\n\n    function hexZoneAddress() public view returns (address) {\n        return address(HEX_ZONE);\n    }\n\n    // VERIFIED CONTROLLER functions\n    // We can assume these have been pre-verified\n\n    function lockRegistration(uint256 gameID)\n        public\n        onlyRole(VERIFIED_CONTROLLER_ROLE)\n    {\n        PLAYER_REGISTRY.lockRegistration(gameID);\n    }\n\n    function enterPlayer(\n        address playerAddress,\n        uint256 gameID,\n        string memory zone\n    ) external onlyRole(VERIFIED_CONTROLLER_ROLE) {\n        HEX_ZONE.enterPlayer(playerAddress, gameID, zone);\n    }\n\n    function exitPlayer(\n        address playerAddress,\n        uint256 gameID,\n        string memory zone\n    ) external onlyRole(VERIFIED_CONTROLLER_ROLE) {\n        HEX_ZONE.exitPlayer(playerAddress, gameID, zone);\n    }\n\n    function requestNewGame(address gameRegistryAddress)\n        external\n        onlyRole(VERIFIED_CONTROLLER_ROLE)\n    {\n        GameRegistry(gameRegistryAddress).registerGame();\n    }\n\n    function setGameState(uint256 gs, uint256 gameID)\n        external\n        onlyRole(VERIFIED_CONTROLLER_ROLE)\n    {\n        // 0 start\n        // 1 inititalizing\n        // 2 initialized\n        gameState[gameID] = gs;\n    }\n\n    function setRandomness(uint256 randomness)\n        external\n        onlyRole(VERIFIED_CONTROLLER_ROLE)\n    {\n        _randomness = randomness;\n    }\n\n    function start(uint256 gameID) public onlyRole(VERIFIED_CONTROLLER_ROLE) {\n        _gamesNeedUpdates.push(gameID);\n    }\n\n    function enableZone(\n        string memory zoneAlias,\n        HexplorationZone.Tile tile,\n        uint256 gameID\n    ) public onlyRole(VERIFIED_CONTROLLER_ROLE) {\n        if (!zoneEnabled[gameID][zoneAlias]) {\n            HEX_ZONE.setTile(tile, gameID, zoneAlias);\n            zoneEnabled[gameID][zoneAlias] = true;\n        }\n    }\n\n    // pass path and what tiles should be\n    // pass current zone as first argument\n    function moveThroughPath(\n        string[] memory zonePath,\n        address playerAddress,\n        uint256 gameID,\n        HexplorationZone.Tile[] memory tiles\n    ) external onlyRole(VERIFIED_CONTROLLER_ROLE) {\n        HEX_ZONE.exitPlayer(playerAddress, gameID, zonePath[0]);\n        HEX_ZONE.enterPlayer(\n            playerAddress,\n            gameID,\n            zonePath[zonePath.length - 1]\n        );\n        for (uint256 i = 0; i < zonePath.length; i++) {\n            enableZone(zonePath[i], tiles[i], gameID);\n        }\n    }\n}\n",
  "sourcePath": "/Users/maxmeier/Developer/Lucky Machines/hexploration/contracts/HexplorationBoard.sol",
  "compiler": {
    "name": "solc",
    "version": "0.8.11+commit.d7f03943.Emscripten.clang"
  },
  "schemaVersion": "3.4.4",
  "updatedAt": "2022-05-15T04:28:41.457Z",
  "devdoc": {
    "kind": "dev",
    "methods": {
      "getRoleAdmin(bytes32)": {
        "details": "Returns the admin role that controls `role`. See {grantRole} and {revokeRole}. To change a role's admin, use {_setRoleAdmin}."
      },
      "getRoleMember(bytes32,uint256)": {
        "details": "Returns one of the accounts that have `role`. `index` must be a value between 0 and {getRoleMemberCount}, non-inclusive. Role bearers are not sorted in any particular way, and their ordering may change at any point. WARNING: When using {getRoleMember} and {getRoleMemberCount}, make sure you perform all queries on the same block. See the following https://forum.openzeppelin.com/t/iterating-over-elements-on-enumerableset-in-openzeppelin-contracts/2296[forum post] for more information."
      },
      "getRoleMemberCount(bytes32)": {
        "details": "Returns the number of accounts that have `role`. Can be used together with {getRoleMember} to enumerate all bearers of a role."
      },
      "grantRole(bytes32,address)": {
        "details": "Grants `role` to `account`. If `account` had not been already granted `role`, emits a {RoleGranted} event. Requirements: - the caller must have ``role``'s admin role."
      },
      "hasRole(bytes32,address)": {
        "details": "Returns `true` if `account` has been granted `role`."
      },
      "renounceRole(bytes32,address)": {
        "details": "Revokes `role` from the calling account. Roles are often managed via {grantRole} and {revokeRole}: this function's purpose is to provide a mechanism for accounts to lose their privileges if they are compromised (such as when a trusted device is misplaced). If the calling account had been revoked `role`, emits a {RoleRevoked} event. Requirements: - the caller must be `account`."
      },
      "revokeRole(bytes32,address)": {
        "details": "Revokes `role` from `account`. If `account` had been granted `role`, emits a {RoleRevoked} event. Requirements: - the caller must have ``role``'s admin role."
      },
      "supportsInterface(bytes4)": {
        "details": "See {IERC165-supportsInterface}."
      }
    },
    "version": 1
  },
  "userdoc": {
    "kind": "user",
    "methods": {},
    "version": 1
  }
}