{
  "contractName": "HexplorationBoard",
  "abi": [
    {
      "inputs": [
        {
          "internalType": "address",
          "name": "adminAddress",
          "type": "address"
        },
        {
          "internalType": "uint256",
          "name": "gridWidth",
          "type": "uint256"
        },
        {
          "internalType": "uint256",
          "name": "gridHeight",
          "type": "uint256"
        },
        {
          "internalType": "address",
          "name": "zoneAddress",
          "type": "address"
        }
      ],
      "stateMutability": "nonpayable",
      "type": "constructor"
    },
    {
      "anonymous": false,
      "inputs": [
        {
          "indexed": true,
          "internalType": "bytes32",
          "name": "role",
          "type": "bytes32"
        },
        {
          "indexed": true,
          "internalType": "bytes32",
          "name": "previousAdminRole",
          "type": "bytes32"
        },
        {
          "indexed": true,
          "internalType": "bytes32",
          "name": "newAdminRole",
          "type": "bytes32"
        }
      ],
      "name": "RoleAdminChanged",
      "type": "event"
    },
    {
      "anonymous": false,
      "inputs": [
        {
          "indexed": true,
          "internalType": "bytes32",
          "name": "role",
          "type": "bytes32"
        },
        {
          "indexed": true,
          "internalType": "address",
          "name": "account",
          "type": "address"
        },
        {
          "indexed": true,
          "internalType": "address",
          "name": "sender",
          "type": "address"
        }
      ],
      "name": "RoleGranted",
      "type": "event"
    },
    {
      "anonymous": false,
      "inputs": [
        {
          "indexed": true,
          "internalType": "bytes32",
          "name": "role",
          "type": "bytes32"
        },
        {
          "indexed": true,
          "internalType": "address",
          "name": "account",
          "type": "address"
        },
        {
          "indexed": true,
          "internalType": "address",
          "name": "sender",
          "type": "address"
        }
      ],
      "name": "RoleRevoked",
      "type": "event"
    },
    {
      "inputs": [],
      "name": "DEFAULT_ADMIN_ROLE",
      "outputs": [
        {
          "internalType": "bytes32",
          "name": "",
          "type": "bytes32"
        }
      ],
      "stateMutability": "view",
      "type": "function"
    },
    {
      "inputs": [],
      "name": "FACTORY_ROLE",
      "outputs": [
        {
          "internalType": "bytes32",
          "name": "",
          "type": "bytes32"
        }
      ],
      "stateMutability": "view",
      "type": "function"
    },
    {
      "inputs": [],
      "name": "GAME_KEEPER_ROLE",
      "outputs": [
        {
          "internalType": "bytes32",
          "name": "",
          "type": "bytes32"
        }
      ],
      "stateMutability": "view",
      "type": "function"
    },
    {
      "inputs": [],
      "name": "GAME_MASTER_ROLE",
      "outputs": [
        {
          "internalType": "bytes32",
          "name": "",
          "type": "bytes32"
        }
      ],
      "stateMutability": "view",
      "type": "function"
    },
    {
      "inputs": [],
      "name": "MAX_BATCH_SIZE",
      "outputs": [
        {
          "internalType": "uint256",
          "name": "",
          "type": "uint256"
        }
      ],
      "stateMutability": "view",
      "type": "function"
    },
    {
      "inputs": [],
      "name": "PLAY_ZONE_ROLE",
      "outputs": [
        {
          "internalType": "bytes32",
          "name": "",
          "type": "bytes32"
        }
      ],
      "stateMutability": "view",
      "type": "function"
    },
    {
      "inputs": [],
      "name": "VERIFIED_CONTROLLER_ROLE",
      "outputs": [
        {
          "internalType": "bytes32",
          "name": "",
          "type": "bytes32"
        }
      ],
      "stateMutability": "view",
      "type": "function"
    },
    {
      "inputs": [
        {
          "internalType": "uint256",
          "name": "transitID",
          "type": "uint256"
        }
      ],
      "name": "_progressTransit",
      "outputs": [],
      "stateMutability": "nonpayable",
      "type": "function"
    },
    {
      "inputs": [
        {
          "internalType": "address",
          "name": "factoryAddress",
          "type": "address"
        }
      ],
      "name": "addFactory",
      "outputs": [],
      "stateMutability": "nonpayable",
      "type": "function"
    },
    {
      "inputs": [
        {
          "internalType": "address",
          "name": "keeperAddress",
          "type": "address"
        }
      ],
      "name": "addKeeper",
      "outputs": [],
      "stateMutability": "nonpayable",
      "type": "function"
    },
    {
      "inputs": [
        {
          "internalType": "uint256",
          "name": "gameID",
          "type": "uint256"
        },
        {
          "internalType": "string[2][]",
          "name": "connections",
          "type": "string[2][]"
        }
      ],
      "name": "addZoneConnections",
      "outputs": [],
      "stateMutability": "nonpayable",
      "type": "function"
    },
    {
      "inputs": [
        {
          "internalType": "address[]",
          "name": "playZoneAddresses",
          "type": "address[]"
        },
        {
          "internalType": "string[]",
          "name": "zoneAliases",
          "type": "string[]"
        },
        {
          "internalType": "uint256",
          "name": "gameID",
          "type": "uint256"
        }
      ],
      "name": "addZones",
      "outputs": [],
      "stateMutability": "nonpayable",
      "type": "function"
    },
    {
      "inputs": [],
      "name": "cleanQueue",
      "outputs": [],
      "stateMutability": "nonpayable",
      "type": "function"
    },
    {
      "inputs": [
        {
          "internalType": "address",
          "name": "_playerRegistry",
          "type": "address"
        },
        {
          "internalType": "address",
          "name": "_gameRegistry",
          "type": "address"
        }
      ],
      "name": "createGame",
      "outputs": [
        {
          "internalType": "uint256",
          "name": "gameID",
          "type": "uint256"
        }
      ],
      "stateMutability": "nonpayable",
      "type": "function"
    },
    {
      "inputs": [
        {
          "internalType": "address",
          "name": "_playerRegistry",
          "type": "address"
        },
        {
          "internalType": "address",
          "name": "_gameRegistry",
          "type": "address"
        },
        {
          "internalType": "address[]",
          "name": "playZoneAddresses",
          "type": "address[]"
        },
        {
          "internalType": "string[]",
          "name": "zoneAliases",
          "type": "string[]"
        }
      ],
      "name": "createGame",
      "outputs": [
        {
          "internalType": "uint256",
          "name": "gameID",
          "type": "uint256"
        }
      ],
      "stateMutability": "nonpayable",
      "type": "function"
    },
    {
      "inputs": [],
      "name": "createGrid",
      "outputs": [],
      "stateMutability": "nonpayable",
      "type": "function"
    },
    {
      "inputs": [
        {
          "internalType": "uint256",
          "name": "",
          "type": "uint256"
        },
        {
          "internalType": "uint256",
          "name": "",
          "type": "uint256"
        }
      ],
      "name": "currentPlayZone",
      "outputs": [
        {
          "internalType": "string",
          "name": "",
          "type": "string"
        }
      ],
      "stateMutability": "view",
      "type": "function"
    },
    {
      "inputs": [
        {
          "internalType": "uint256",
          "name": "",
          "type": "uint256"
        },
        {
          "internalType": "uint256",
          "name": "",
          "type": "uint256"
        }
      ],
      "name": "entryQueue",
      "outputs": [
        {
          "internalType": "uint256",
          "name": "",
          "type": "uint256"
        }
      ],
      "stateMutability": "view",
      "type": "function"
    },
    {
      "inputs": [
        {
          "internalType": "uint256",
          "name": "gameID",
          "type": "uint256"
        },
        {
          "internalType": "address",
          "name": "playerAddress",
          "type": "address"
        },
        {
          "internalType": "uint256",
          "name": "pathIndex",
          "type": "uint256"
        }
      ],
      "name": "exitToPath",
      "outputs": [
        {
          "internalType": "bool",
          "name": "exitSuccess",
          "type": "bool"
        }
      ],
      "stateMutability": "nonpayable",
      "type": "function"
    },
    {
      "inputs": [
        {
          "internalType": "uint256",
          "name": "",
          "type": "uint256"
        }
      ],
      "name": "gameState",
      "outputs": [
        {
          "internalType": "uint256",
          "name": "",
          "type": "uint256"
        }
      ],
      "stateMutability": "view",
      "type": "function"
    },
    {
      "inputs": [
        {
          "internalType": "uint256",
          "name": "gameID",
          "type": "uint256"
        },
        {
          "internalType": "string",
          "name": "_zoneAlias",
          "type": "string"
        }
      ],
      "name": "getInputs",
      "outputs": [
        {
          "internalType": "string[]",
          "name": "zoneInputs",
          "type": "string[]"
        }
      ],
      "stateMutability": "view",
      "type": "function"
    },
    {
      "inputs": [
        {
          "internalType": "uint256",
          "name": "gameID",
          "type": "uint256"
        },
        {
          "internalType": "string",
          "name": "_zoneAlias",
          "type": "string"
        }
      ],
      "name": "getOutputs",
      "outputs": [
        {
          "internalType": "string[]",
          "name": "zoneOutputs",
          "type": "string[]"
        }
      ],
      "stateMutability": "view",
      "type": "function"
    },
    {
      "inputs": [
        {
          "internalType": "uint256",
          "name": "gameID",
          "type": "uint256"
        }
      ],
      "name": "getOverflowQueue",
      "outputs": [
        {
          "internalType": "uint256[]",
          "name": "",
          "type": "uint256[]"
        }
      ],
      "stateMutability": "view",
      "type": "function"
    },
    {
      "inputs": [
        {
          "internalType": "uint256",
          "name": "gameID",
          "type": "uint256"
        }
      ],
      "name": "getPlayZones",
      "outputs": [
        {
          "internalType": "string[]",
          "name": "",
          "type": "string[]"
        }
      ],
      "stateMutability": "view",
      "type": "function"
    },
    {
      "inputs": [
        {
          "internalType": "bytes32",
          "name": "role",
          "type": "bytes32"
        }
      ],
      "name": "getRoleAdmin",
      "outputs": [
        {
          "internalType": "bytes32",
          "name": "",
          "type": "bytes32"
        }
      ],
      "stateMutability": "view",
      "type": "function"
    },
    {
      "inputs": [
        {
          "internalType": "bytes32",
          "name": "role",
          "type": "bytes32"
        },
        {
          "internalType": "uint256",
          "name": "index",
          "type": "uint256"
        }
      ],
      "name": "getRoleMember",
      "outputs": [
        {
          "internalType": "address",
          "name": "",
          "type": "address"
        }
      ],
      "stateMutability": "view",
      "type": "function"
    },
    {
      "inputs": [
        {
          "internalType": "bytes32",
          "name": "role",
          "type": "bytes32"
        }
      ],
      "name": "getRoleMemberCount",
      "outputs": [
        {
          "internalType": "uint256",
          "name": "",
          "type": "uint256"
        }
      ],
      "stateMutability": "view",
      "type": "function"
    },
    {
      "inputs": [],
      "name": "getZoneAliases",
      "outputs": [
        {
          "internalType": "string[]",
          "name": "",
          "type": "string[]"
        }
      ],
      "stateMutability": "view",
      "type": "function"
    },
    {
      "inputs": [
        {
          "internalType": "bytes32",
          "name": "role",
          "type": "bytes32"
        },
        {
          "internalType": "address",
          "name": "account",
          "type": "address"
        }
      ],
      "name": "grantRole",
      "outputs": [],
      "stateMutability": "nonpayable",
      "type": "function"
    },
    {
      "inputs": [],
      "name": "gridHeight",
      "outputs": [
        {
          "internalType": "uint256",
          "name": "",
          "type": "uint256"
        }
      ],
      "stateMutability": "view",
      "type": "function"
    },
    {
      "inputs": [],
      "name": "gridWidth",
      "outputs": [
        {
          "internalType": "uint256",
          "name": "",
          "type": "uint256"
        }
      ],
      "stateMutability": "view",
      "type": "function"
    },
    {
      "inputs": [
        {
          "internalType": "bytes32",
          "name": "role",
          "type": "bytes32"
        },
        {
          "internalType": "address",
          "name": "account",
          "type": "address"
        }
      ],
      "name": "hasRole",
      "outputs": [
        {
          "internalType": "bool",
          "name": "",
          "type": "bool"
        }
      ],
      "stateMutability": "view",
      "type": "function"
    },
    {
      "inputs": [
        {
          "internalType": "address",
          "name": "factoryAddress",
          "type": "address"
        }
      ],
      "name": "isFactory",
      "outputs": [
        {
          "internalType": "bool",
          "name": "factoryIsAuthorized",
          "type": "bool"
        }
      ],
      "stateMutability": "view",
      "type": "function"
    },
    {
      "inputs": [
        {
          "internalType": "uint256",
          "name": "",
          "type": "uint256"
        }
      ],
      "name": "lastEntryPlayerID",
      "outputs": [
        {
          "internalType": "uint256",
          "name": "",
          "type": "uint256"
        }
      ],
      "stateMutability": "view",
      "type": "function"
    },
    {
      "inputs": [],
      "name": "needsUpdate",
      "outputs": [
        {
          "internalType": "bool",
          "name": "doesNeedUpdate",
          "type": "bool"
        }
      ],
      "stateMutability": "view",
      "type": "function"
    },
    {
      "inputs": [
        {
          "internalType": "uint256",
          "name": "",
          "type": "uint256"
        },
        {
          "internalType": "string",
          "name": "",
          "type": "string"
        },
        {
          "internalType": "uint256",
          "name": "",
          "type": "uint256"
        }
      ],
      "name": "playZoneInputs",
      "outputs": [
        {
          "internalType": "string",
          "name": "",
          "type": "string"
        }
      ],
      "stateMutability": "view",
      "type": "function"
    },
    {
      "inputs": [
        {
          "internalType": "uint256",
          "name": "",
          "type": "uint256"
        },
        {
          "internalType": "string",
          "name": "",
          "type": "string"
        },
        {
          "internalType": "uint256",
          "name": "",
          "type": "uint256"
        }
      ],
      "name": "playZoneOutputs",
      "outputs": [
        {
          "internalType": "string",
          "name": "",
          "type": "string"
        }
      ],
      "stateMutability": "view",
      "type": "function"
    },
    {
      "inputs": [
        {
          "internalType": "uint256",
          "name": "",
          "type": "uint256"
        },
        {
          "internalType": "uint256",
          "name": "",
          "type": "uint256"
        }
      ],
      "name": "playZones",
      "outputs": [
        {
          "internalType": "string",
          "name": "",
          "type": "string"
        }
      ],
      "stateMutability": "view",
      "type": "function"
    },
    {
      "inputs": [
        {
          "internalType": "uint256",
          "name": "gameID",
          "type": "uint256"
        },
        {
          "internalType": "address",
          "name": "playerAddress",
          "type": "address"
        },
        {
          "internalType": "string",
          "name": "_zoneAlias",
          "type": "string"
        }
      ],
      "name": "playerEnteredZone",
      "outputs": [],
      "stateMutability": "nonpayable",
      "type": "function"
    },
    {
      "inputs": [
        {
          "internalType": "uint256",
          "name": "",
          "type": "uint256"
        }
      ],
      "name": "playerRegistry",
      "outputs": [
        {
          "internalType": "uint256",
          "name": "",
          "type": "uint256"
        }
      ],
      "stateMutability": "view",
      "type": "function"
    },
    {
      "inputs": [],
      "name": "prAddress",
      "outputs": [
        {
          "internalType": "address",
          "name": "",
          "type": "address"
        }
      ],
      "stateMutability": "view",
      "type": "function"
    },
    {
      "inputs": [
        {
          "internalType": "uint256",
          "name": "gameID",
          "type": "uint256"
        },
        {
          "internalType": "address[]",
          "name": "playerAddresses",
          "type": "address[]"
        },
        {
          "internalType": "uint256[]",
          "name": "pathIndices",
          "type": "uint256[]"
        },
        {
          "internalType": "uint256",
          "name": "transitID",
          "type": "uint256"
        }
      ],
      "name": "queueExitToPaths",
      "outputs": [],
      "stateMutability": "nonpayable",
      "type": "function"
    },
    {
      "inputs": [
        {
          "internalType": "uint256",
          "name": "gameID",
          "type": "uint256"
        },
        {
          "internalType": "string[]",
          "name": "inputAliases",
          "type": "string[]"
        },
        {
          "internalType": "uint256[]",
          "name": "inputs",
          "type": "uint256[]"
        },
        {
          "internalType": "string[]",
          "name": "outputAliases",
          "type": "string[]"
        },
        {
          "internalType": "uint256[]",
          "name": "outputs",
          "type": "uint256[]"
        }
      ],
      "name": "removeZoneConnections",
      "outputs": [],
      "stateMutability": "nonpayable",
      "type": "function"
    },
    {
      "inputs": [
        {
          "internalType": "bytes32",
          "name": "role",
          "type": "bytes32"
        },
        {
          "internalType": "address",
          "name": "account",
          "type": "address"
        }
      ],
      "name": "renounceRole",
      "outputs": [],
      "stateMutability": "nonpayable",
      "type": "function"
    },
    {
      "inputs": [
        {
          "internalType": "bytes32",
          "name": "role",
          "type": "bytes32"
        },
        {
          "internalType": "address",
          "name": "account",
          "type": "address"
        }
      ],
      "name": "revokeRole",
      "outputs": [],
      "stateMutability": "nonpayable",
      "type": "function"
    },
    {
      "inputs": [],
      "name": "runUpdate",
      "outputs": [],
      "stateMutability": "nonpayable",
      "type": "function"
    },
    {
      "inputs": [
        {
          "internalType": "uint256",
          "name": "gameID",
          "type": "uint256"
        }
      ],
      "name": "startGame",
      "outputs": [],
      "stateMutability": "nonpayable",
      "type": "function"
    },
    {
      "inputs": [
        {
          "internalType": "uint256",
          "name": "transitID",
          "type": "uint256"
        }
      ],
      "name": "startTransit",
      "outputs": [],
      "stateMutability": "nonpayable",
      "type": "function"
    },
    {
      "inputs": [
        {
          "internalType": "bytes4",
          "name": "interfaceId",
          "type": "bytes4"
        }
      ],
      "name": "supportsInterface",
      "outputs": [
        {
          "internalType": "bool",
          "name": "",
          "type": "bool"
        }
      ],
      "stateMutability": "view",
      "type": "function"
    },
    {
      "inputs": [],
      "name": "zoneAddress",
      "outputs": [
        {
          "internalType": "address",
          "name": "",
          "type": "address"
        }
      ],
      "stateMutability": "view",
      "type": "function"
    },
    {
      "inputs": [
        {
          "internalType": "uint256",
          "name": "",
          "type": "uint256"
        },
        {
          "internalType": "string",
          "name": "",
          "type": "string"
        }
      ],
      "name": "zoneAlias",
      "outputs": [
        {
          "internalType": "address",
          "name": "",
          "type": "address"
        }
      ],
      "stateMutability": "view",
      "type": "function"
    },
    {
      "inputs": [
        {
          "internalType": "uint256",
          "name": "",
          "type": "uint256"
        }
      ],
      "name": "zoneAliases",
      "outputs": [
        {
          "internalType": "string",
          "name": "",
          "type": "string"
        }
      ],
      "stateMutability": "view",
      "type": "function"
    },
    {
      "inputs": [
        {
          "internalType": "uint256",
          "name": "",
          "type": "uint256"
        },
        {
          "internalType": "string",
          "name": "",
          "type": "string"
        }
      ],
      "name": "zoneEnabled",
      "outputs": [
        {
          "internalType": "bool",
          "name": "",
          "type": "bool"
        }
      ],
      "stateMutability": "view",
      "type": "function"
    },
    {
      "inputs": [
        {
          "internalType": "string",
          "name": "zoneAlias",
          "type": "string"
        },
        {
          "internalType": "enum HexplorationZone.Tile",
          "name": "tile",
          "type": "uint8"
        },
        {
          "internalType": "uint256",
          "name": "gameID",
          "type": "uint256"
        }
      ],
      "name": "enableZone",
      "outputs": [],
      "stateMutability": "nonpayable",
      "type": "function"
    },
    {
      "inputs": [
        {
          "internalType": "string[]",
          "name": "zonePath",
          "type": "string[]"
        },
        {
          "internalType": "uint256",
          "name": "gameID",
          "type": "uint256"
        }
      ],
      "name": "moveThroughPath",
      "outputs": [],
      "stateMutability": "nonpayable",
      "type": "function"
    }
  ],
  "bytecode": "0x60806040523480156200001157600080fd5b506040516200662c3803806200662c83398181016040528101906200003791906200045d565b8383838383620000516000801b826200012260201b60201c565b620000837f1d93c87416ca7b54f0fb8323167b72760e8e2ec93d48660953897a150f97a8b4826200012260201b60201c565b5082600d8190555081600e8190555080600f60006101000a81548173ffffffffffffffffffffffffffffffffffffffff021916908373ffffffffffffffffffffffffffffffffffffffff1602179055505050505080601160006101000a81548173ffffffffffffffffffffffffffffffffffffffff021916908373ffffffffffffffffffffffffffffffffffffffff16021790555050505050620004cf565b6200013482826200013860201b60201c565b5050565b6200014f82826200018060201b620030031760201c565b6200017b81600160008581526020019081526020016000206200027160201b620030e31790919060201c565b505050565b620001928282620002a960201b60201c565b6200026d57600160008084815260200190815260200160002060000160008373ffffffffffffffffffffffffffffffffffffffff1673ffffffffffffffffffffffffffffffffffffffff16815260200190815260200160002060006101000a81548160ff021916908315150217905550620002126200031360201b60201c565b73ffffffffffffffffffffffffffffffffffffffff168173ffffffffffffffffffffffffffffffffffffffff16837f2f8788117e7eff1d82e926ec794901d17c78024a50270940304540a733656f0d60405160405180910390a45b5050565b6000620002a1836000018373ffffffffffffffffffffffffffffffffffffffff1660001b6200031b60201b60201c565b905092915050565b600080600084815260200190815260200160002060000160008373ffffffffffffffffffffffffffffffffffffffff1673ffffffffffffffffffffffffffffffffffffffff16815260200190815260200160002060009054906101000a900460ff16905092915050565b600033905090565b60006200032f83836200039560201b60201c565b6200038a5782600001829080600181540180825580915050600190039060005260206000200160009091909190915055826000018054905083600101600084815260200190815260200160002081905550600190506200038f565b600090505b92915050565b600080836001016000848152602001908152602001600020541415905092915050565b600080fd5b600073ffffffffffffffffffffffffffffffffffffffff82169050919050565b6000620003ea82620003bd565b9050919050565b620003fc81620003dd565b81146200040857600080fd5b50565b6000815190506200041c81620003f1565b92915050565b6000819050919050565b620004378162000422565b81146200044357600080fd5b50565b60008151905062000457816200042c565b92915050565b600080600080608085870312156200047a5762000479620003b8565b5b60006200048a878288016200040b565b94505060206200049d8782880162000446565b9350506040620004b08782880162000446565b9250506060620004c3878288016200040b565b91505092959194509250565b61614d80620004df6000396000f3fe608060405234801561001057600080fd5b506004361061035d5760003560e01c80639010d07c116101d3578063cd1ec7f211610104578063d91413ba116100a2578063ed3719a51161007c578063ed3719a514610aa6578063f643b8fd14610ad6578063f843070814610af2578063fa9f343814610b0e5761035d565b8063d91413ba14610a3c578063e309203f14610a6c578063e5ed1d5914610a8a5761035d565b8063d2d6756b116100de578063d2d6756b14610990578063d3fb7289146109c0578063d547741f146109f0578063d75e798014610a0c5761035d565b8063cd1ec7f21461094a578063cfdbf25414610968578063d1e18d26146109865761035d565b8063aab2aeb811610171578063b40c89df1161014b578063b40c89df1461089c578063babdeefa146108cc578063c06dea4e146108fc578063ca15c8731461091a5761035d565b8063aab2aeb814610844578063ad1def1e14610874578063b2df0ca2146108925761035d565b80639f6c4017116101ad5780639f6c4017146107be578063a217fddf146107da578063a4f9c9df146107f8578063a6f979ff146108145761035d565b80639010d07c1461072e57806391d148541461075e5780639eb356cb1461078e5761035d565b80632c47669a116102ad5780634032b72b1161024b57806351709a731161022557806351709a73146106945780636b6ec869146106c45780637cc75d1c146106f457806384bf09b6146107245761035d565b80634032b72b1461062c5780634a7bdd5a146106485780634e0e1a3e146106645761035d565b806336568abe1161028757806336568abe146105a4578063374f1d35146105c057806338b145df146105f05780633ca61a581461060e5761035d565b80632c47669a1461054e5780632f2ff15d1461056a578063346c9409146105865761035d565b806317d7e8331161031a5780631c834a7f116102f45780631c834a7f146104c8578063248a9ca3146104e6578063296787561461051657806329ce1ec5146105325761035d565b806317d7e8331461044c578063190060181461047c578063194f2a36146104985761035d565b806301ffc9a71461036257806304a0fb17146103925780630b197f2e146103b05780630f04ba67146103ce578063108c5e14146103fe578063153a75901461041c575b600080fd5b61037c60048036038101906103779190614365565b610b2a565b60405161038991906143ad565b60405180910390f35b61039a610ba4565b6040516103a791906143e1565b60405180910390f35b6103b8610bc8565b6040516103c5919061443d565b60405180910390f35b6103e860048036038101906103e39190614484565b610bee565b6040516103f591906143ad565b60405180910390f35b610406610c21565b60405161041391906144ca565b60405180910390f35b61043660048036038101906104319190614657565b610c27565b604051610443919061443d565b60405180910390f35b610466600480360381019061046191906146b3565b610c7f565b604051610473919061477b565b60405180910390f35b61049660048036038101906104919190614946565b610d38565b005b6104b260048036038101906104ad9190614657565b610e62565b6040516104bf9190614b3d565b60405180910390f35b6104d0611195565b6040516104dd91906143e1565b60405180910390f35b61050060048036038101906104fb9190614b8b565b6111b9565b60405161050d91906143e1565b60405180910390f35b610530600480360381019061052b9190614c7b565b6111d8565b005b61054c60048036038101906105479190614484565b611209565b005b61056860048036038101906105639190614d1a565b611244565b005b610584600480360381019061057f9190614da5565b6112c3565b005b61058e6112e4565b60405161059b91906143ad565b60405180910390f35b6105be60048036038101906105b99190614da5565b61133b565b005b6105da60048036038101906105d59190614de5565b6113be565b6040516105e7919061477b565b60405180910390f35b6105f861146a565b60405161060591906144ca565b60405180910390f35b610616611470565b6040516106239190614b3d565b60405180910390f35b61064660048036038101906106419190614484565b611549565b005b610662600480360381019061065d9190614e12565b6115a1565b005b61067e60048036038101906106799190614de5565b6115d0565b60405161068b91906144ca565b60405180910390f35b6106ae60048036038101906106a99190614e6e565b6115e8565b6040516106bb919061477b565b60405180910390f35b6106de60048036038101906106d99190614657565b6116c4565b6040516106eb9190614b3d565b60405180910390f35b61070e600480360381019061070991906146b3565b6119f7565b60405161071b91906144ca565b60405180910390f35b61072c611a28565b005b61074860048036038101906107439190614edd565b611d44565b604051610755919061443d565b60405180910390f35b61077860048036038101906107739190614da5565b611d73565b60405161078591906143ad565b60405180910390f35b6107a860048036038101906107a39190614f1d565b611ddd565b6040516107b591906143ad565b60405180910390f35b6107d860048036038101906107d39190614de5565b61229b565b005b6107e26122c9565b6040516107ef91906143e1565b60405180910390f35b610812600480360381019061080d9190614de5565b6122d0565b005b61082e60048036038101906108299190614f70565b6122fe565b60405161083b91906144ca565b60405180910390f35b61085e60048036038101906108599190614de5565b612462565b60405161086b91906144ca565b60405180910390f35b61087c61247a565b60405161088991906143e1565b60405180910390f35b61089a61249e565b005b6108b660048036038101906108b19190614e6e565b6124a0565b6040516108c3919061477b565b60405180910390f35b6108e660048036038101906108e19190614de5565b61257c565b6040516108f39190614b3d565b60405180910390f35b610904612668565b604051610911919061443d565b60405180910390f35b610934600480360381019061092f9190614b8b565b612692565b60405161094191906144ca565b60405180910390f35b6109526126b6565b60405161095f91906143e1565b60405180910390f35b6109706126da565b60405161097d91906144ca565b60405180910390f35b61098e6126df565b005b6109aa60048036038101906109a59190614de5565b612816565b6040516109b791906144ca565b60405180910390f35b6109da60048036038101906109d59190614de5565b61282e565b6040516109e7919061506e565b60405180910390f35b610a0a6004803603810190610a059190614da5565b612899565b005b610a266004803603810190610a2191906146b3565b6128ba565b604051610a33919061477b565b60405180910390f35b610a566004803603810190610a519190615090565b612967565b604051610a6391906144ca565b60405180910390f35b610a74612b27565b604051610a8191906143e1565b60405180910390f35b610aa46004803603810190610a9f9190614de5565b612b4b565b005b610ac06004803603810190610abb9190614657565b612ba2565b604051610acd91906143ad565b60405180910390f35b610af06004803603810190610aeb91906152df565b612be7565b005b610b0c6004803603810190610b079190615360565b612e19565b005b610b286004803603810190610b2391906153cf565b612ef7565b005b60007f5a05180f000000000000000000000000000000000000000000000000000000007bffffffffffffffffffffffffffffffffffffffffffffffffffffffff1916827bffffffffffffffffffffffffffffffffffffffffffffffffffffffff19161480610b9d5750610b9c82613113565b5b9050919050565b7fdfbefbf47cfe66b701d8cfdbce1de81c821590819cb07e71cb01b6602fb0ee2781565b600f60009054906101000a900473ffffffffffffffffffffffffffffffffffffffff1681565b6000610c1a7fdfbefbf47cfe66b701d8cfdbce1de81c821590819cb07e71cb01b6602fb0ee2783611d73565b9050919050565b600e5481565b6007602052816000526040600020818051602081018201805184825260208301602085012081835280955050505050506000915091509054906101000a900473ffffffffffffffffffffffffffffffffffffffff1681565b60066020528160005260406000208181548110610c9b57600080fd5b90600052602060002001600091509150508054610cb79061546d565b80601f0160208091040260200160405190810160405280929190818152602001828054610ce39061546d565b8015610d305780601f10610d0557610100808354040283529160200191610d30565b820191906000526020600020905b815481529060010190602001808311610d1357829003601f168201915b505050505081565b7f1d93c87416ca7b54f0fb8323167b72760e8e2ec93d48660953897a150f97a8b4610d628161318d565b8151845114610da6576040517f08c379a0000000000000000000000000000000000000000000000000000000008152600401610d9d906154eb565b60405180910390fd5b610db18686866131a1565b610df0576040517f08c379a0000000000000000000000000000000000000000000000000000000008152600401610de790615557565b60405180910390fd5b610dfb868484613250565b610e3a576040517f08c379a0000000000000000000000000000000000000000000000000000000008152600401610e31906155c3565b60405180910390fd5b60005b8451811015610e59578080610e5190615612565b915050610e3d565b50505050505050565b606060006008600085815260200190815260200160002083604051610e879190615697565b9081526020016040518091039020805480602002602001604051908101604052809291908181526020016000905b82821015610f61578382906000526020600020018054610ed49061546d565b80601f0160208091040260200160405190810160405280929190818152602001828054610f009061546d565b8015610f4d5780601f10610f2257610100808354040283529160200191610f4d565b820191906000526020600020905b815481529060010190602001808311610f3057829003601f168201915b505050505081526020019060010190610eb5565b50505050905060006008600080815260200190815260200160002084604051610f8a9190615697565b9081526020016040518091039020805480602002602001604051908101604052809291908181526020016000905b82821015611064578382906000526020600020018054610fd79061546d565b80601f01602080910402602001604051908101604052809291908181526020018280546110039061546d565b80156110505780601f1061102557610100808354040283529160200191611050565b820191906000526020600020905b81548152906001019060200180831161103357829003601f168201915b505050505081526020019060010190610fb8565b5050505090506000825111156111895760008151835161108491906156ae565b67ffffffffffffffff81111561109d5761109c61452c565b5b6040519080825280602002602001820160405280156110d057816020015b60608152602001906001900390816110bb5790505b50905060005b8151811015611182578251811015611126578281815181106110fb576110fa615704565b5b602002602001015182828151811061111657611115615704565b5b602002602001018190525061116c565b838351826111349190615733565b8151811061114557611144615704565b5b60200260200101518282815181106111605761115f615704565b5b60200260200101819052505b819450808061117a90615612565b9150506110d6565b505061118d565b8092505b505092915050565b7f80e2196015fc06a9d891759f8e4f51eb314ef5e9ea068528a8ed0063b87759f081565b6000806000838152602001908152602001600020600101549050919050565b7f72b06b67826def9fabb513b23f7e5eb74f7ece26d25dad4006546ecf4a13763d6112028161318d565b5050505050565b6000801b6112168161318d565b6112407fdfbefbf47cfe66b701d8cfdbce1de81c821590819cb07e71cb01b6602fb0ee27836132ff565b5050565b7f1d93c87416ca7b54f0fb8323167b72760e8e2ec93d48660953897a150f97a8b461126e8161318d565b82518451146112b2576040517f08c379a00000000000000000000000000000000000000000000000000000000081526004016112a9906157d9565b60405180910390fd5b6112bd84848461330d565b50505050565b6112cc826111b9565b6112d58161318d565b6112df83836134c8565b505050565b6000805b6003805490508110156113375760006003828154811061130b5761130a615704565b5b9060005260206000200154146113245760019150611337565b808061132f90615612565b9150506112e8565b5090565b6113436134fc565b73ffffffffffffffffffffffffffffffffffffffff168173ffffffffffffffffffffffffffffffffffffffff16146113b0576040517f08c379a00000000000000000000000000000000000000000000000000000000081526004016113a79061586b565b60405180910390fd5b6113ba8282613504565b5050565b601081815481106113ce57600080fd5b9060005260206000200160009150905080546113e99061546d565b80601f01602080910402602001604051908101604052809291908181526020018280546114159061546d565b80156114625780601f1061143757610100808354040283529160200191611462565b820191906000526020600020905b81548152906001019060200180831161144557829003601f168201915b505050505081565b600d5481565b60606010805480602002602001604051908101604052809291908181526020016000905b828210156115405783829060005260206000200180546114b39061546d565b80601f01602080910402602001604051908101604052809291908181526020018280546114df9061546d565b801561152c5780601f106115015761010080835404028352916020019161152c565b820191906000526020600020905b81548152906001019060200180831161150f57829003601f168201915b505050505081526020019060010190611494565b50505050905090565b7f1d93c87416ca7b54f0fb8323167b72760e8e2ec93d48660953897a150f97a8b46115738161318d565b61159d7fd017b644efdbb8827e313d7971462ef180dad8aa174c6fb8427f18caad304df7836132ff565b5050565b7f80e2196015fc06a9d891759f8e4f51eb314ef5e9ea068528a8ed0063b87759f06115cb8161318d565b505050565b60046020528060005260406000206000915090505481565b600860205282600052604060002082805160208101820180518482526020830160208501208183528095505050505050818154811061162657600080fd5b90600052602060002001600092509250505080546116439061546d565b80601f016020809104026020016040519081016040528092919081815260200182805461166f9061546d565b80156116bc5780601f10611691576101008083540402835291602001916116bc565b820191906000526020600020905b81548152906001019060200180831161169f57829003601f168201915b505050505081565b6060600060096000858152602001908152602001600020836040516116e99190615697565b9081526020016040518091039020805480602002602001604051908101604052809291908181526020016000905b828210156117c35783829060005260206000200180546117369061546d565b80601f01602080910402602001604051908101604052809291908181526020018280546117629061546d565b80156117af5780601f10611784576101008083540402835291602001916117af565b820191906000526020600020905b81548152906001019060200180831161179257829003601f168201915b505050505081526020019060010190611717565b505050509050600060096000808152602001908152602001600020846040516117ec9190615697565b9081526020016040518091039020805480602002602001604051908101604052809291908181526020016000905b828210156118c65783829060005260206000200180546118399061546d565b80601f01602080910402602001604051908101604052809291908181526020018280546118659061546d565b80156118b25780601f10611887576101008083540402835291602001916118b2565b820191906000526020600020905b81548152906001019060200180831161189557829003601f168201915b50505050508152602001906001019061181a565b5050505090506000825111156119eb576000815183516118e691906156ae565b67ffffffffffffffff8111156118ff576118fe61452c565b5b60405190808252806020026020018201604052801561193257816020015b606081526020019060019003908161191d5790505b50905060005b81518110156119e45782518110156119885782818151811061195d5761195c615704565b5b602002602001015182828151811061197857611977615704565b5b60200260200101819052506119ce565b838351826119969190615733565b815181106119a7576119a6615704565b5b60200260200101518282815181106119c2576119c1615704565b5b60200260200101819052505b81945080806119dc90615612565b915050611938565b50506119ef565b8092505b505092915050565b600c6020528160005260406000208181548110611a1357600080fd5b90600052602060002001600091509150505481565b611a597fdfbefbf47cfe66b701d8cfdbce1de81c821590819cb07e71cb01b6602fb0ee27611a546134fc565b611d73565b80611a915750611a907f1d93c87416ca7b54f0fb8323167b72760e8e2ec93d48660953897a150f97a8b4611a8b6134fc565b611d73565b5b611ad0576040517f08c379a0000000000000000000000000000000000000000000000000000000008152600401611ac7906158fd565b60405180910390fd5b6000600e54600d54611ae2919061591d565b67ffffffffffffffff811115611afb57611afa61452c565b5b604051908082528060200260200182016040528015611b295781602001602082028036833780820191505090505b50905060006010805490501415611bd45773__XYCoordinates_________________________639f6b5649600e54600d546040518363ffffffff1660e01b8152600401611b77929190615986565b600060405180830381865af4158015611b94573d6000803e3d6000fd5b505050506040513d6000823e3d601f19601f82011682018060405250810190611bbd9190615ad4565b60109080519060200190611bd2929190614192565b505b60005b8151811015611c6357600f60009054906101000a900473ffffffffffffffffffffffffffffffffffffffff16828281518110611c1657611c15615704565b5b602002602001019073ffffffffffffffffffffffffffffffffffffffff16908173ffffffffffffffffffffffffffffffffffffffff16815250508080611c5b90615612565b915050611bd7565b50611d41816010805480602002602001604051908101604052809291908181526020016000905b82821015611d36578382906000526020600020018054611ca99061546d565b80601f0160208091040260200160405190810160405280929190818152602001828054611cd59061546d565b8015611d225780601f10611cf757610100808354040283529160200191611d22565b820191906000526020600020905b815481529060010190602001808311611d0557829003601f168201915b505050505081526020019060010190611c8a565b50505050600061330d565b50565b6000611d6b826001600086815260200190815260200160002061353890919063ffffffff16565b905092915050565b600080600084815260200190815260200160002060000160008373ffffffffffffffffffffffffffffffffffffffff1673ffffffffffffffffffffffffffffffffffffffff16815260200190815260200160002060009054906101000a900460ff16905092915050565b600080600260009054906101000a900473ffffffffffffffffffffffffffffffffffffffff1673ffffffffffffffffffffffffffffffffffffffff1663bca7caa086866040518363ffffffff1660e01b8152600401611e3d929190615b1d565b602060405180830381865afa158015611e5a573d6000803e3d6000fd5b505050506040513d601f19601f82011682018060405250810190611e7e9190615b5b565b90506000600b600087815260200190815260200160002060008381526020019081526020016000208054611eb19061546d565b80601f0160208091040260200160405190810160405280929190818152602001828054611edd9061546d565b8015611f2a5780601f10611eff57610100808354040283529160200191611f2a565b820191906000526020600020905b815481529060010190602001808311611f0d57829003601f168201915b505050505090506000611f3d87836116c4565b905060008151905060008111611f88576040517f08c379a0000000000000000000000000000000000000000000000000000000008152600401611f7f90615bd4565b60405180910390fd5b600094506000600760008a815260200190815260200160002084604051611faf9190615697565b908152602001604051809103902060009054906101000a900473ffffffffffffffffffffffffffffffffffffffff1690506000828811611fef5787611ff2565b60005b9050600084828151811061200957612008615704565b5b602002602001015190506000600760008d8152602001908152602001600020826040516120369190615697565b908152602001604051809103902060009054906101000a900473ffffffffffffffffffffffffffffffffffffffff1690508373ffffffffffffffffffffffffffffffffffffffff16637caf12808c8e8a6040518463ffffffff1660e01b81526004016120a493929190615bf4565b602060405180830381865afa1580156120c1573d6000803e3d6000fd5b505050506040513d601f19601f820116820180604052508101906120e59190615c5e565b801561216b57508073ffffffffffffffffffffffffffffffffffffffff1663e15b3ad08c8e856040518463ffffffff1660e01b815260040161212993929190615bf4565b602060405180830381865afa158015612146573d6000803e3d6000fd5b505050506040513d601f19601f8201168201806040525081019061216a9190615c5e565b5b1561228c578373ffffffffffffffffffffffffffffffffffffffff166328d7e11a8c8e8a6040518463ffffffff1660e01b81526004016121ad93929190615bf4565b600060405180830381600087803b1580156121c757600080fd5b505af11580156121db573d6000803e3d6000fd5b505050508073ffffffffffffffffffffffffffffffffffffffff166398bd75728c8e856040518463ffffffff1660e01b815260040161221c93929190615bf4565b600060405180830381600087803b15801561223657600080fd5b505af115801561224a573d6000803e3d6000fd5b5050505081600b60008e815260200190815260200160002060008a815260200190815260200160002090805190602001906122869291906141f2565b50600198505b50505050505050509392505050565b7fd017b644efdbb8827e313d7971462ef180dad8aa174c6fb8427f18caad304df76122c58161318d565b5050565b6000801b81565b7f72b06b67826def9fabb513b23f7e5eb74f7ece26d25dad4006546ecf4a13763d6122fa8161318d565b5050565b60006123317fdfbefbf47cfe66b701d8cfdbce1de81c821590819cb07e71cb01b6602fb0ee2761232c6134fc565b611d73565b8061236957506123687f1d93c87416ca7b54f0fb8323167b72760e8e2ec93d48660953897a150f97a8b46123636134fc565b611d73565b5b6123a8576040517f08c379a000000000000000000000000000000000000000000000000000000000815260040161239f906158fd565b60405180910390fd5b82600260006101000a81548173ffffffffffffffffffffffffffffffffffffffff021916908373ffffffffffffffffffffffffffffffffffffffff1602179055508173ffffffffffffffffffffffffffffffffffffffff16630a75806e6040518163ffffffff1660e01b81526004016020604051808303816000875af1158015612436573d6000803e3d6000fd5b505050506040513d601f19601f8201168201806040525081019061245a9190615b5b565b905092915050565b600a6020528060005260406000206000915090505481565b7f1d93c87416ca7b54f0fb8323167b72760e8e2ec93d48660953897a150f97a8b481565b565b60096020528260005260406000208280516020810182018051848252602083016020850120818352809550505050505081815481106124de57600080fd5b90600052602060002001600092509250505080546124fb9061546d565b80601f01602080910402602001604051908101604052809291908181526020018280546125279061546d565b80156125745780601f1061254957610100808354040283529160200191612574565b820191906000526020600020905b81548152906001019060200180831161255757829003601f168201915b505050505081565b606060066000838152602001908152602001600020805480602002602001604051908101604052809291908181526020016000905b8282101561265d5783829060005260206000200180546125d09061546d565b80601f01602080910402602001604051908101604052809291908181526020018280546125fc9061546d565b80156126495780601f1061261e57610100808354040283529160200191612649565b820191906000526020600020905b81548152906001019060200180831161262c57829003601f168201915b5050505050815260200190600101906125b1565b505050509050919050565b6000600260009054906101000a900473ffffffffffffffffffffffffffffffffffffffff16905090565b60006126af60016000848152602001908152602001600020613552565b9050919050565b7f72b06b67826def9fabb513b23f7e5eb74f7ece26d25dad4006546ecf4a13763d81565b60c881565b7fd017b644efdbb8827e313d7971462ef180dad8aa174c6fb8427f18caad304df76127098161318d565b60008060005b60038054905081101561277e5760006003828154811061273257612731615704565b5b90600052602060002001541461276b576003818154811061275657612755615704565b5b9060005260206000200154925080915061277e565b808061277690615612565b91505061270f565b506000600460008481526020019081526020016000205414156127a9576127a482613567565b6127d0565b6001600460008481526020019081526020016000205414156127cf576127ce82613610565b5b5b6001600460008481526020019081526020016000205411156128115760006003828154811061280257612801615704565b5b90600052602060002001819055505b505050565b60056020528060005260406000206000915090505481565b6060600c600083815260200190815260200160002080548060200260200160405190810160405280929190818152602001828054801561288d57602002820191906000526020600020905b815481526020019060010190808311612879575b50505050509050919050565b6128a2826111b9565b6128ab8161318d565b6128b58383613504565b505050565b600b6020528160005260406000206020528060005260406000206000915091505080546128e69061546d565b80601f01602080910402602001604051908101604052809291908181526020018280546129129061546d565b801561295f5780601f106129345761010080835404028352916020019161295f565b820191906000526020600020905b81548152906001019060200180831161294257829003601f168201915b505050505081565b600061299a7fdfbefbf47cfe66b701d8cfdbce1de81c821590819cb07e71cb01b6602fb0ee276129956134fc565b611d73565b806129d257506129d17f1d93c87416ca7b54f0fb8323167b72760e8e2ec93d48660953897a150f97a8b46129cc6134fc565b611d73565b5b612a11576040517f08c379a0000000000000000000000000000000000000000000000000000000008152600401612a08906158fd565b60405180910390fd5b8151835114612a55576040517f08c379a0000000000000000000000000000000000000000000000000000000008152600401612a4c906157d9565b60405180910390fd5b600083511115612a6b57612a6a83838361330d565b5b84600260006101000a81548173ffffffffffffffffffffffffffffffffffffffff021916908373ffffffffffffffffffffffffffffffffffffffff1602179055508373ffffffffffffffffffffffffffffffffffffffff16630a75806e6040518163ffffffff1660e01b81526004016020604051808303816000875af1158015612af9573d6000803e3d6000fd5b505050506040513d601f19601f82011682018060405250810190612b1d9190615b5b565b9050949350505050565b7fd017b644efdbb8827e313d7971462ef180dad8aa174c6fb8427f18caad304df781565b7f1d93c87416ca7b54f0fb8323167b72760e8e2ec93d48660953897a150f97a8b4612b758161318d565b60038290806001815401808255809150506001900390600052602060002001600090919091909150555050565b6012602052816000526040600020818051602081018201805184825260208301602085012081835280955050505050506000915091509054906101000a900460ff1681565b7f1d93c87416ca7b54f0fb8323167b72760e8e2ec93d48660953897a150f97a8b4612c118161318d565b612c1b83836139b5565b612c5a576040517f08c379a0000000000000000000000000000000000000000000000000000000008152600401612c5190615cd7565b60405180910390fd5b60005b8251811015612e135760096000858152602001908152602001600020838281518110612c8c57612c8b615704565b5b6020026020010151600060028110612ca757612ca6615704565b5b6020020151604051612cb99190615697565b9081526020016040518091039020838281518110612cda57612cd9615704565b5b6020026020010151600160028110612cf557612cf4615704565b5b6020020151908060018154018082558091505060019003906000526020600020016000909190919091509080519060200190612d329291906141f2565b5060086000858152602001908152602001600020838281518110612d5957612d58615704565b5b6020026020010151600160028110612d7457612d73615704565b5b6020020151604051612d869190615697565b9081526020016040518091039020838281518110612da757612da6615704565b5b6020026020010151600060028110612dc257612dc1615704565b5b6020020151908060018154018082558091505060019003906000526020600020016000909190919091509080519060200190612dff9291906141f2565b508080612e0b90615612565b915050612c5d565b50505050565b601160009054906101000a900473ffffffffffffffffffffffffffffffffffffffff1673ffffffffffffffffffffffffffffffffffffffff1663d49396098383866040518463ffffffff1660e01b8152600401612e7893929190615d6e565b600060405180830381600087803b158015612e9257600080fd5b505af1158015612ea6573d6000803e3d6000fd5b5050505060016012600083815260200190815260200160002084604051612ecd9190615697565b908152602001604051809103902060006101000a81548160ff021916908315150217905550505050565b7f72b06b67826def9fabb513b23f7e5eb74f7ece26d25dad4006546ecf4a13763d612f218161318d565b6000600260009054906101000a900473ffffffffffffffffffffffffffffffffffffffff1673ffffffffffffffffffffffffffffffffffffffff1663bca7caa086866040518363ffffffff1660e01b8152600401612f80929190615b1d565b602060405180830381865afa158015612f9d573d6000803e3d6000fd5b505050506040513d601f19601f82011682018060405250810190612fc19190615b5b565b905082600b600087815260200190815260200160002060008381526020019081526020016000209080519060200190612ffb9291906141f2565b505050505050565b61300d8282611d73565b6130df57600160008084815260200190815260200160002060000160008373ffffffffffffffffffffffffffffffffffffffff1673ffffffffffffffffffffffffffffffffffffffff16815260200190815260200160002060006101000a81548160ff0219169083151502179055506130846134fc565b73ffffffffffffffffffffffffffffffffffffffff168173ffffffffffffffffffffffffffffffffffffffff16837f2f8788117e7eff1d82e926ec794901d17c78024a50270940304540a733656f0d60405160405180910390a45b5050565b600061310b836000018373ffffffffffffffffffffffffffffffffffffffff1660001b613b5b565b905092915050565b60007f7965db0b000000000000000000000000000000000000000000000000000000007bffffffffffffffffffffffffffffffffffffffffffffffffffffffff1916827bffffffffffffffffffffffffffffffffffffffffffffffffffffffff19161480613186575061318582613bcb565b5b9050919050565b61319e816131996134fc565b613c35565b50565b60006001905060005b82518110156132485760018382815181106131c8576131c7615704565b5b60200260200101516131da91906156ae565b60086000878152602001908152602001600020858381518110613200576131ff615704565b5b60200260200101516040516132159190615697565b908152602001604051809103902080549050106132355760009150613248565b808061324090615612565b9150506131aa565b509392505050565b60006001905060005b82518110156132f757600183828151811061327757613276615704565b5b602002602001015161328991906156ae565b600960008781526020019081526020016000208583815181106132af576132ae615704565b5b60200260200101516040516132c49190615697565b908152602001604051809103902080549050106132e457600091506132f7565b80806132ef90615612565b915050613259565b509392505050565b61330982826134c8565b5050565b60005b83518110156134c2576006600083815260200190815260200160002083828151811061333f5761333e615704565b5b602002602001015190806001815401808255809150506001900390600052602060002001600090919091909150908051906020019061337f9291906141f2565b5083818151811061339357613392615704565b5b6020026020010151600760008481526020019081526020016000208483815181106133c1576133c0615704565b5b60200260200101516040516133d69190615697565b908152602001604051809103902060006101000a81548173ffffffffffffffffffffffffffffffffffffffff021916908373ffffffffffffffffffffffffffffffffffffffff1602179055506134667f72b06b67826def9fabb513b23f7e5eb74f7ece26d25dad4006546ecf4a13763d85838151811061345957613458615704565b5b6020026020010151611d73565b6134af576134ae7f72b06b67826def9fabb513b23f7e5eb74f7ece26d25dad4006546ecf4a13763d8583815181106134a1576134a0615704565b5b60200260200101516132ff565b5b80806134ba90615612565b915050613310565b50505050565b6134d28282613003565b6134f781600160008581526020019081526020016000206130e390919063ffffffff16565b505050565b600033905090565b61350e8282613cd2565b6135338160016000858152602001908152602001600020613db390919063ffffffff16565b505050565b60006135478360000183613de3565b60001c905092915050565b600061356082600001613e0e565b9050919050565b600260009054906101000a900473ffffffffffffffffffffffffffffffffffffffff1673ffffffffffffffffffffffffffffffffffffffff166360c20500826040518263ffffffff1660e01b81526004016135c291906144ca565b600060405180830381600087803b1580156135dc57600080fd5b505af11580156135f0573d6000803e3d6000fd5b505050506001600460008381526020019081526020016000208190555050565b6000600760008381526020019081526020016000206006600084815260200190815260200160002060008154811061364b5761364a615704565b5b906000526020600020016040516136629190615e40565b908152602001604051809103902060009054906101000a900473ffffffffffffffffffffffffffffffffffffffff169050600081905060005b600260009054906101000a900473ffffffffffffffffffffffffffffffffffffffff1673ffffffffffffffffffffffffffffffffffffffff1663b77ff411856040518263ffffffff1660e01b81526004016136f691906144ca565b602060405180830381865afa158015613713573d6000803e3d6000fd5b505050506040513d601f19601f820116820180604052508101906137379190615b5b565b81101561399657600060018261374d91906156ae565b90506000600260009054906101000a900473ffffffffffffffffffffffffffffffffffffffff1673ffffffffffffffffffffffffffffffffffffffff1663f504325487846040518363ffffffff1660e01b81526004016137ae929190615e57565b602060405180830381865afa1580156137cb573d6000803e3d6000fd5b505050506040513d601f19601f820116820180604052508101906137ef9190615e95565b90508373ffffffffffffffffffffffffffffffffffffffff1663e15b3ad08288600660008b815260200190815260200160002060008154811061383557613834615704565b5b906000526020600020016040518463ffffffff1660e01b815260040161385d93929190615f42565b602060405180830381865afa15801561387a573d6000803e3d6000fd5b505050506040513d601f19601f8201168201806040525081019061389e9190615c5e565b15613946578373ffffffffffffffffffffffffffffffffffffffff166398bd75728288600660008b81526020019081526020016000206000815481106138e7576138e6615704565b5b906000526020600020016040518463ffffffff1660e01b815260040161390f93929190615f42565b600060405180830381600087803b15801561392957600080fd5b505af115801561393d573d6000803e3d6000fd5b50505050613981565b600c60008781526020019081526020016000208290806001815401808255809150506001900390600052602060002001600090919091909150555b5050808061398e90615612565b91505061369b565b5060026004600085815260200190815260200160002081905550505050565b600080600090505b8251811015613b545760019150600073ffffffffffffffffffffffffffffffffffffffff1660076000868152602001908152602001600020848381518110613a0857613a07615704565b5b6020026020010151600060028110613a2357613a22615704565b5b6020020151604051613a359190615697565b908152602001604051809103902060009054906101000a900473ffffffffffffffffffffffffffffffffffffffff1673ffffffffffffffffffffffffffffffffffffffff161480613b335750600073ffffffffffffffffffffffffffffffffffffffff1660076000868152602001908152602001600020848381518110613abf57613abe615704565b5b6020026020010151600160028110613ada57613ad9615704565b5b6020020151604051613aec9190615697565b908152602001604051809103902060009054906101000a900473ffffffffffffffffffffffffffffffffffffffff1673ffffffffffffffffffffffffffffffffffffffff16145b15613b415760009150613b54565b8080613b4c90615612565b9150506139bd565b5092915050565b6000613b678383613e1f565b613bc0578260000182908060018154018082558091505060019003906000526020600020016000909190919091505582600001805490508360010160008481526020019081526020016000208190555060019050613bc5565b600090505b92915050565b60007f01ffc9a7000000000000000000000000000000000000000000000000000000007bffffffffffffffffffffffffffffffffffffffffffffffffffffffff1916827bffffffffffffffffffffffffffffffffffffffffffffffffffffffff1916149050919050565b613c3f8282611d73565b613cce57613c648173ffffffffffffffffffffffffffffffffffffffff166014613e42565b613c728360001c6020613e42565b604051602001613c83929190616018565b6040516020818303038152906040526040517f08c379a0000000000000000000000000000000000000000000000000000000008152600401613cc5919061477b565b60405180910390fd5b5050565b613cdc8282611d73565b15613daf57600080600084815260200190815260200160002060000160008373ffffffffffffffffffffffffffffffffffffffff1673ffffffffffffffffffffffffffffffffffffffff16815260200190815260200160002060006101000a81548160ff021916908315150217905550613d546134fc565b73ffffffffffffffffffffffffffffffffffffffff168173ffffffffffffffffffffffffffffffffffffffff16837ff6391f5c32d9c69d2a47ea670b442974b53935d1edc7fd64eb21e047a839171b60405160405180910390a45b5050565b6000613ddb836000018373ffffffffffffffffffffffffffffffffffffffff1660001b61407e565b905092915050565b6000826000018281548110613dfb57613dfa615704565b5b9060005260206000200154905092915050565b600081600001805490509050919050565b600080836001016000848152602001908152602001600020541415905092915050565b606060006002836002613e55919061591d565b613e5f91906156ae565b67ffffffffffffffff811115613e7857613e7761452c565b5b6040519080825280601f01601f191660200182016040528015613eaa5781602001600182028036833780820191505090505b5090507f300000000000000000000000000000000000000000000000000000000000000081600081518110613ee257613ee1615704565b5b60200101907effffffffffffffffffffffffffffffffffffffffffffffffffffffffffffff1916908160001a9053507f780000000000000000000000000000000000000000000000000000000000000081600181518110613f4657613f45615704565b5b60200101907effffffffffffffffffffffffffffffffffffffffffffffffffffffffffffff1916908160001a90535060006001846002613f86919061591d565b613f9091906156ae565b90505b6001811115614030577f3031323334353637383961626364656600000000000000000000000000000000600f861660108110613fd257613fd1615704565b5b1a60f81b828281518110613fe957613fe8615704565b5b60200101907effffffffffffffffffffffffffffffffffffffffffffffffffffffffffffff1916908160001a905350600485901c94508061402990616052565b9050613f93565b5060008414614074576040517f08c379a000000000000000000000000000000000000000000000000000000000815260040161406b906160c8565b60405180910390fd5b8091505092915050565b600080836001016000848152602001908152602001600020549050600081146141865760006001826140b09190615733565b90506000600186600001805490506140c89190615733565b90508181146141375760008660000182815481106140e9576140e8615704565b5b906000526020600020015490508087600001848154811061410d5761410c615704565b5b90600052602060002001819055508387600101600083815260200190815260200160002081905550505b8560000180548061414b5761414a6160e8565b5b60019003818190600052602060002001600090559055856001016000868152602001908152602001600020600090556001935050505061418c565b60009150505b92915050565b8280548282559060005260206000209081019282156141e1579160200282015b828111156141e05782518290805190602001906141d09291906141f2565b50916020019190600101906141b2565b5b5090506141ee9190614278565b5090565b8280546141fe9061546d565b90600052602060002090601f0160209004810192826142205760008555614267565b82601f1061423957805160ff1916838001178555614267565b82800160010185558215614267579182015b8281111561426657825182559160200191906001019061424b565b5b509050614274919061429c565b5090565b5b80821115614298576000818161428f91906142b9565b50600101614279565b5090565b5b808211156142b557600081600090555060010161429d565b5090565b5080546142c59061546d565b6000825580601f106142d757506142f6565b601f0160209004906000526020600020908101906142f5919061429c565b5b50565b6000604051905090565b600080fd5b600080fd5b60007fffffffff0000000000000000000000000000000000000000000000000000000082169050919050565b6143428161430d565b811461434d57600080fd5b50565b60008135905061435f81614339565b92915050565b60006020828403121561437b5761437a614303565b5b600061438984828501614350565b91505092915050565b60008115159050919050565b6143a781614392565b82525050565b60006020820190506143c2600083018461439e565b92915050565b6000819050919050565b6143db816143c8565b82525050565b60006020820190506143f660008301846143d2565b92915050565b600073ffffffffffffffffffffffffffffffffffffffff82169050919050565b6000614427826143fc565b9050919050565b6144378161441c565b82525050565b6000602082019050614452600083018461442e565b92915050565b6144618161441c565b811461446c57600080fd5b50565b60008135905061447e81614458565b92915050565b60006020828403121561449a57614499614303565b5b60006144a88482850161446f565b91505092915050565b6000819050919050565b6144c4816144b1565b82525050565b60006020820190506144df60008301846144bb565b92915050565b6144ee816144b1565b81146144f957600080fd5b50565b60008135905061450b816144e5565b92915050565b600080fd5b600080fd5b6000601f19601f8301169050919050565b7f4e487b7100000000000000000000000000000000000000000000000000000000600052604160045260246000fd5b6145648261451b565b810181811067ffffffffffffffff821117156145835761458261452c565b5b80604052505050565b60006145966142f9565b90506145a2828261455b565b919050565b600067ffffffffffffffff8211156145c2576145c161452c565b5b6145cb8261451b565b9050602081019050919050565b82818337600083830152505050565b60006145fa6145f5846145a7565b61458c565b90508281526020810184848401111561461657614615614516565b5b6146218482856145d8565b509392505050565b600082601f83011261463e5761463d614511565b5b813561464e8482602086016145e7565b91505092915050565b6000806040838503121561466e5761466d614303565b5b600061467c858286016144fc565b925050602083013567ffffffffffffffff81111561469d5761469c614308565b5b6146a985828601614629565b9150509250929050565b600080604083850312156146ca576146c9614303565b5b60006146d8858286016144fc565b92505060206146e9858286016144fc565b9150509250929050565b600081519050919050565b600082825260208201905092915050565b60005b8381101561472d578082015181840152602081019050614712565b8381111561473c576000848401525b50505050565b600061474d826146f3565b61475781856146fe565b935061476781856020860161470f565b6147708161451b565b840191505092915050565b600060208201905081810360008301526147958184614742565b905092915050565b600067ffffffffffffffff8211156147b8576147b761452c565b5b602082029050602081019050919050565b600080fd5b60006147e16147dc8461479d565b61458c565b90508083825260208201905060208402830185811115614804576148036147c9565b5b835b8181101561484b57803567ffffffffffffffff81111561482957614828614511565b5b8086016148368982614629565b85526020850194505050602081019050614806565b5050509392505050565b600082601f83011261486a57614869614511565b5b813561487a8482602086016147ce565b91505092915050565b600067ffffffffffffffff82111561489e5761489d61452c565b5b602082029050602081019050919050565b60006148c26148bd84614883565b61458c565b905080838252602082019050602084028301858111156148e5576148e46147c9565b5b835b8181101561490e57806148fa88826144fc565b8452602084019350506020810190506148e7565b5050509392505050565b600082601f83011261492d5761492c614511565b5b813561493d8482602086016148af565b91505092915050565b600080600080600060a0868803121561496257614961614303565b5b6000614970888289016144fc565b955050602086013567ffffffffffffffff81111561499157614990614308565b5b61499d88828901614855565b945050604086013567ffffffffffffffff8111156149be576149bd614308565b5b6149ca88828901614918565b935050606086013567ffffffffffffffff8111156149eb576149ea614308565b5b6149f788828901614855565b925050608086013567ffffffffffffffff811115614a1857614a17614308565b5b614a2488828901614918565b9150509295509295909350565b600081519050919050565b600082825260208201905092915050565b6000819050602082019050919050565b600082825260208201905092915050565b6000614a79826146f3565b614a838185614a5d565b9350614a9381856020860161470f565b614a9c8161451b565b840191505092915050565b6000614ab38383614a6e565b905092915050565b6000602082019050919050565b6000614ad382614a31565b614add8185614a3c565b935083602082028501614aef85614a4d565b8060005b85811015614b2b5784840389528151614b0c8582614aa7565b9450614b1783614abb565b925060208a01995050600181019050614af3565b50829750879550505050505092915050565b60006020820190508181036000830152614b578184614ac8565b905092915050565b614b68816143c8565b8114614b7357600080fd5b50565b600081359050614b8581614b5f565b92915050565b600060208284031215614ba157614ba0614303565b5b6000614baf84828501614b76565b91505092915050565b600067ffffffffffffffff821115614bd357614bd261452c565b5b602082029050602081019050919050565b6000614bf7614bf284614bb8565b61458c565b90508083825260208201905060208402830185811115614c1a57614c196147c9565b5b835b81811015614c435780614c2f888261446f565b845260208401935050602081019050614c1c565b5050509392505050565b600082601f830112614c6257614c61614511565b5b8135614c72848260208601614be4565b91505092915050565b60008060008060808587031215614c9557614c94614303565b5b6000614ca3878288016144fc565b945050602085013567ffffffffffffffff811115614cc457614cc3614308565b5b614cd087828801614c4d565b935050604085013567ffffffffffffffff811115614cf157614cf0614308565b5b614cfd87828801614918565b9250506060614d0e878288016144fc565b91505092959194509250565b600080600060608486031215614d3357614d32614303565b5b600084013567ffffffffffffffff811115614d5157614d50614308565b5b614d5d86828701614c4d565b935050602084013567ffffffffffffffff811115614d7e57614d7d614308565b5b614d8a86828701614855565b9250506040614d9b868287016144fc565b9150509250925092565b60008060408385031215614dbc57614dbb614303565b5b6000614dca85828601614b76565b9250506020614ddb8582860161446f565b9150509250929050565b600060208284031215614dfb57614dfa614303565b5b6000614e09848285016144fc565b91505092915050565b60008060408385031215614e2957614e28614303565b5b600083013567ffffffffffffffff811115614e4757614e46614308565b5b614e5385828601614855565b9250506020614e64858286016144fc565b9150509250929050565b600080600060608486031215614e8757614e86614303565b5b6000614e95868287016144fc565b935050602084013567ffffffffffffffff811115614eb657614eb5614308565b5b614ec286828701614629565b9250506040614ed3868287016144fc565b9150509250925092565b60008060408385031215614ef457614ef3614303565b5b6000614f0285828601614b76565b9250506020614f13858286016144fc565b9150509250929050565b600080600060608486031215614f3657614f35614303565b5b6000614f44868287016144fc565b9350506020614f558682870161446f565b9250506040614f66868287016144fc565b9150509250925092565b60008060408385031215614f8757614f86614303565b5b6000614f958582860161446f565b9250506020614fa68582860161446f565b9150509250929050565b600081519050919050565b600082825260208201905092915050565b6000819050602082019050919050565b614fe5816144b1565b82525050565b6000614ff78383614fdc565b60208301905092915050565b6000602082019050919050565b600061501b82614fb0565b6150258185614fbb565b935061503083614fcc565b8060005b838110156150615781516150488882614feb565b975061505383615003565b925050600181019050615034565b5085935050505092915050565b600060208201905081810360008301526150888184615010565b905092915050565b600080600080608085870312156150aa576150a9614303565b5b60006150b88782880161446f565b94505060206150c98782880161446f565b935050604085013567ffffffffffffffff8111156150ea576150e9614308565b5b6150f687828801614c4d565b925050606085013567ffffffffffffffff81111561511757615116614308565b5b61512387828801614855565b91505092959194509250565b600067ffffffffffffffff82111561514a5761514961452c565b5b602082029050602081019050919050565b600067ffffffffffffffff8211156151765761517561452c565b5b602082029050919050565b600061519461518f8461515b565b61458c565b905080602084028301858111156151ae576151ad6147c9565b5b835b818110156151f557803567ffffffffffffffff8111156151d3576151d2614511565b5b8086016151e08982614629565b855260208501945050506020810190506151b0565b5050509392505050565b600082601f83011261521457615213614511565b5b6002615221848285615181565b91505092915050565b600061523d6152388461512f565b61458c565b905080838252602082019050602084028301858111156152605761525f6147c9565b5b835b818110156152a757803567ffffffffffffffff81111561528557615284614511565b5b80860161529289826151ff565b85526020850194505050602081019050615262565b5050509392505050565b600082601f8301126152c6576152c5614511565b5b81356152d684826020860161522a565b91505092915050565b600080604083850312156152f6576152f5614303565b5b6000615304858286016144fc565b925050602083013567ffffffffffffffff81111561532557615324614308565b5b615331858286016152b1565b9150509250929050565b6006811061534857600080fd5b50565b60008135905061535a8161533b565b92915050565b60008060006060848603121561537957615378614303565b5b600084013567ffffffffffffffff81111561539757615396614308565b5b6153a386828701614629565b93505060206153b48682870161534b565b92505060406153c5868287016144fc565b9150509250925092565b6000806000606084860312156153e8576153e7614303565b5b60006153f6868287016144fc565b93505060206154078682870161446f565b925050604084013567ffffffffffffffff81111561542857615427614308565b5b61543486828701614629565b9150509250925092565b7f4e487b7100000000000000000000000000000000000000000000000000000000600052602260045260246000fd5b6000600282049050600182168061548557607f821691505b602082108114156154995761549861543e565b5b50919050565b7f696e70757473202f206f757470757473206c656e677468206d69736d61746368600082015250565b60006154d56020836146fe565b91506154e08261549f565b602082019050919050565b60006020820190508181036000830152615504816154c8565b9050919050565b7f696e7075747320696e76616c6964000000000000000000000000000000000000600082015250565b6000615541600e836146fe565b915061554c8261550b565b602082019050919050565b6000602082019050818103600083015261557081615534565b9050919050565b7f6f75747075747320696e76616c69640000000000000000000000000000000000600082015250565b60006155ad600f836146fe565b91506155b882615577565b602082019050919050565b600060208201905081810360008301526155dc816155a0565b9050919050565b7f4e487b7100000000000000000000000000000000000000000000000000000000600052601160045260246000fd5b600061561d826144b1565b91507fffffffffffffffffffffffffffffffffffffffffffffffffffffffffffffffff8214156156505761564f6155e3565b5b600182019050919050565b600081905092915050565b6000615671826146f3565b61567b818561565b565b935061568b81856020860161470f565b80840191505092915050565b60006156a38284615666565b915081905092915050565b60006156b9826144b1565b91506156c4836144b1565b9250827fffffffffffffffffffffffffffffffffffffffffffffffffffffffffffffffff038211156156f9576156f86155e3565b5b828201905092915050565b7f4e487b7100000000000000000000000000000000000000000000000000000000600052603260045260246000fd5b600061573e826144b1565b9150615749836144b1565b92508282101561575c5761575b6155e3565b5b828203905092915050565b7f616464726573736573202620616c696173657320646966666572656e74206c6560008201527f6e67746873000000000000000000000000000000000000000000000000000000602082015250565b60006157c36025836146fe565b91506157ce82615767565b604082019050919050565b600060208201905081810360008301526157f2816157b6565b9050919050565b7f416363657373436f6e74726f6c3a2063616e206f6e6c792072656e6f756e636560008201527f20726f6c657320666f722073656c660000000000000000000000000000000000602082015250565b6000615855602f836146fe565b9150615860826157f9565b604082019050919050565b6000602082019050818103600083015261588481615848565b9050919050565b7f47616d65204d6173746572206f7220466163746f727920726f6c65207265717560008201527f6972656400000000000000000000000000000000000000000000000000000000602082015250565b60006158e76024836146fe565b91506158f28261588b565b604082019050919050565b60006020820190508181036000830152615916816158da565b9050919050565b6000615928826144b1565b9150615933836144b1565b9250817fffffffffffffffffffffffffffffffffffffffffffffffffffffffffffffffff048311821515161561596c5761596b6155e3565b5b828202905092915050565b615980816144b1565b82525050565b600060408201905061599b6000830185615977565b6159a86020830184615977565b9392505050565b60006159c26159bd846145a7565b61458c565b9050828152602081018484840111156159de576159dd614516565b5b6159e984828561470f565b509392505050565b600082601f830112615a0657615a05614511565b5b8151615a168482602086016159af565b91505092915050565b6000615a32615a2d8461479d565b61458c565b90508083825260208201905060208402830185811115615a5557615a546147c9565b5b835b81811015615a9c57805167ffffffffffffffff811115615a7a57615a79614511565b5b808601615a8789826159f1565b85526020850194505050602081019050615a57565b5050509392505050565b600082601f830112615abb57615aba614511565b5b8151615acb848260208601615a1f565b91505092915050565b600060208284031215615aea57615ae9614303565b5b600082015167ffffffffffffffff811115615b0857615b07614308565b5b615b1484828501615aa6565b91505092915050565b6000604082019050615b3260008301856144bb565b615b3f602083018461442e565b9392505050565b600081519050615b55816144e5565b92915050565b600060208284031215615b7157615b70614303565b5b6000615b7f84828501615b46565b91505092915050565b7f4e6f206578697420706174687320617661696c61626c65000000000000000000600082015250565b6000615bbe6017836146fe565b9150615bc982615b88565b602082019050919050565b60006020820190508181036000830152615bed81615bb1565b9050919050565b6000606082019050615c09600083018661442e565b615c1660208301856144bb565b8181036040830152615c288184614742565b9050949350505050565b615c3b81614392565b8114615c4657600080fd5b50565b600081519050615c5881615c32565b92915050565b600060208284031215615c7457615c73614303565b5b6000615c8284828501615c49565b91505092915050565b7f6e6f7420616c6c207a6f6e6520696e64656365732076616c6964000000000000600082015250565b6000615cc1601a836146fe565b9150615ccc82615c8b565b602082019050919050565b60006020820190508181036000830152615cf081615cb4565b9050919050565b7f4e487b7100000000000000000000000000000000000000000000000000000000600052602160045260246000fd5b60068110615d3757615d36615cf7565b5b50565b6000819050615d4882615d26565b919050565b6000615d5882615d3a565b9050919050565b615d6881615d4d565b82525050565b6000606082019050615d836000830186615d5f565b615d9060208301856144bb565b8181036040830152615da28184614742565b9050949350505050565b60008190508160005260206000209050919050565b60008154615dce8161546d565b615dd8818661565b565b94506001821660008114615df35760018114615e0457615e37565b60ff19831686528186019350615e37565b615e0d85615dac565b60005b83811015615e2f57815481890152600182019150602081019050615e10565b838801955050505b50505092915050565b6000615e4c8284615dc1565b915081905092915050565b6000604082019050615e6c60008301856144bb565b615e7960208301846144bb565b9392505050565b600081519050615e8f81614458565b92915050565b600060208284031215615eab57615eaa614303565b5b6000615eb984828501615e80565b91505092915050565b60008154615ecf8161546d565b615ed981866146fe565b94506001821660008114615ef45760018114615f0657615f39565b60ff1983168652602086019350615f39565b615f0f85615dac565b60005b83811015615f3157815481890152600182019150602081019050615f12565b808801955050505b50505092915050565b6000606082019050615f57600083018661442e565b615f6460208301856144bb565b8181036040830152615f768184615ec2565b9050949350505050565b7f416363657373436f6e74726f6c3a206163636f756e7420000000000000000000600082015250565b6000615fb660178361565b565b9150615fc182615f80565b601782019050919050565b7f206973206d697373696e6720726f6c6520000000000000000000000000000000600082015250565b600061600260118361565b565b915061600d82615fcc565b601182019050919050565b600061602382615fa9565b915061602f8285615666565b915061603a82615ff5565b91506160468284615666565b91508190509392505050565b600061605d826144b1565b91506000821415616071576160706155e3565b5b600182039050919050565b7f537472696e67733a20686578206c656e67746820696e73756666696369656e74600082015250565b60006160b26020836146fe565b91506160bd8261607c565b602082019050919050565b600060208201905081810360008301526160e1816160a5565b9050919050565b7f4e487b7100000000000000000000000000000000000000000000000000000000600052603160045260246000fdfea26469706673582212202bf2ce59c7b2918e7be321b0b80206d078cdb7672e4f1737bc7de393a20d0f8764736f6c634300080b0033",
  "immutableReferences": {},
  "source": "// SPDX-License-Identifier: GPL-3.0\npragma solidity >=0.7.0 <0.9.0;\n\nimport \"@luckymachines/game-core/contracts/src/v0.0/custom_boards/HexGrid.sol\";\nimport \"./HexplorationZone.sol\";\n\ncontract HexplorationBoard is HexGrid {\n    // This role is a hybrid controller, assumes on chain verification of moves before submission\n    bytes32 public constant VERIFIED_CONTROLLER_ROLE =\n        keccak256(\"VERIFIED_CONTROLLER_ROLE\");\n\n    HexplorationZone internal HEX_ZONE;\n    // game ID => zone alias\n    mapping(uint256 => mapping(string => bool)) public zoneEnabled;\n\n    constructor(\n        address adminAddress,\n        uint256 gridWidth,\n        uint256 gridHeight,\n        address zoneAddress\n    ) HexGrid(adminAddress, gridWidth, gridHeight, zoneAddress) {\n        HEX_ZONE = HexplorationZone(zoneAddress);\n    }\n\n    // TODO: figure out who should call this, might be VRF function...\n    function enableZone(\n        string memory zoneAlias,\n        HexplorationZone.Tile tile,\n        uint256 gameID\n    ) public {\n        HEX_ZONE.setTile(tile, gameID, zoneAlias);\n        zoneEnabled[gameID][zoneAlias] = true;\n    }\n\n    // VERIFIED CONTROLLER functions\n    // We can assume these have been pre-verified\n    function moveThroughPath(string[] memory zonePath, uint256 gameID)\n        external\n        onlyRole(VERIFIED_CONTROLLER_ROLE)\n    {}\n}\n",
  "sourcePath": "/Users/max/Developer/LM/hexploration/contracts/HexplorationBoard.sol",
  "compiler": {
    "name": "solc",
    "version": "0.8.11+commit.d7f03943.Emscripten.clang"
  },
  "schemaVersion": "3.4.2",
  "updatedAt": "2022-05-08T19:14:49.874Z",
  "devdoc": {
    "kind": "dev",
    "methods": {
      "getRoleAdmin(bytes32)": {
        "details": "Returns the admin role that controls `role`. See {grantRole} and {revokeRole}. To change a role's admin, use {_setRoleAdmin}."
      },
      "getRoleMember(bytes32,uint256)": {
        "details": "Returns one of the accounts that have `role`. `index` must be a value between 0 and {getRoleMemberCount}, non-inclusive. Role bearers are not sorted in any particular way, and their ordering may change at any point. WARNING: When using {getRoleMember} and {getRoleMemberCount}, make sure you perform all queries on the same block. See the following https://forum.openzeppelin.com/t/iterating-over-elements-on-enumerableset-in-openzeppelin-contracts/2296[forum post] for more information."
      },
      "getRoleMemberCount(bytes32)": {
        "details": "Returns the number of accounts that have `role`. Can be used together with {getRoleMember} to enumerate all bearers of a role."
      },
      "grantRole(bytes32,address)": {
        "details": "Grants `role` to `account`. If `account` had not been already granted `role`, emits a {RoleGranted} event. Requirements: - the caller must have ``role``'s admin role."
      },
      "hasRole(bytes32,address)": {
        "details": "Returns `true` if `account` has been granted `role`."
      },
      "renounceRole(bytes32,address)": {
        "details": "Revokes `role` from the calling account. Roles are often managed via {grantRole} and {revokeRole}: this function's purpose is to provide a mechanism for accounts to lose their privileges if they are compromised (such as when a trusted device is misplaced). If the calling account had been revoked `role`, emits a {RoleRevoked} event. Requirements: - the caller must be `account`."
      },
      "revokeRole(bytes32,address)": {
        "details": "Revokes `role` from `account`. If `account` had been granted `role`, emits a {RoleRevoked} event. Requirements: - the caller must have ``role``'s admin role."
      },
      "supportsInterface(bytes4)": {
        "details": "See {IERC165-supportsInterface}."
      }
    },
    "version": 1
  },
  "userdoc": {
    "kind": "user",
    "methods": {},
    "version": 1
  }
}