{
  "contractName": "HexplorationQueue",
  "abi": [
    {
      "inputs": [
        {
          "internalType": "address",
          "name": "gameplayAddress",
          "type": "address"
        }
      ],
      "stateMutability": "nonpayable",
      "type": "constructor"
    },
    {
      "anonymous": false,
      "inputs": [
        {
          "indexed": true,
          "internalType": "bytes32",
          "name": "role",
          "type": "bytes32"
        },
        {
          "indexed": true,
          "internalType": "bytes32",
          "name": "previousAdminRole",
          "type": "bytes32"
        },
        {
          "indexed": true,
          "internalType": "bytes32",
          "name": "newAdminRole",
          "type": "bytes32"
        }
      ],
      "name": "RoleAdminChanged",
      "type": "event"
    },
    {
      "anonymous": false,
      "inputs": [
        {
          "indexed": true,
          "internalType": "bytes32",
          "name": "role",
          "type": "bytes32"
        },
        {
          "indexed": true,
          "internalType": "address",
          "name": "account",
          "type": "address"
        },
        {
          "indexed": true,
          "internalType": "address",
          "name": "sender",
          "type": "address"
        }
      ],
      "name": "RoleGranted",
      "type": "event"
    },
    {
      "anonymous": false,
      "inputs": [
        {
          "indexed": true,
          "internalType": "bytes32",
          "name": "role",
          "type": "bytes32"
        },
        {
          "indexed": true,
          "internalType": "address",
          "name": "account",
          "type": "address"
        },
        {
          "indexed": true,
          "internalType": "address",
          "name": "sender",
          "type": "address"
        }
      ],
      "name": "RoleRevoked",
      "type": "event"
    },
    {
      "inputs": [],
      "name": "DEFAULT_ADMIN_ROLE",
      "outputs": [
        {
          "internalType": "bytes32",
          "name": "",
          "type": "bytes32"
        }
      ],
      "stateMutability": "view",
      "type": "function"
    },
    {
      "inputs": [],
      "name": "GAMEPLAY_ROLE",
      "outputs": [
        {
          "internalType": "bytes32",
          "name": "",
          "type": "bytes32"
        }
      ],
      "stateMutability": "view",
      "type": "function"
    },
    {
      "inputs": [],
      "name": "VERIFIED_CONTROLLER_ROLE",
      "outputs": [
        {
          "internalType": "bytes32",
          "name": "",
          "type": "bytes32"
        }
      ],
      "stateMutability": "view",
      "type": "function"
    },
    {
      "inputs": [
        {
          "internalType": "uint256",
          "name": "",
          "type": "uint256"
        }
      ],
      "name": "currentPhase",
      "outputs": [
        {
          "internalType": "enum HexplorationQueue.ProcessingPhase",
          "name": "",
          "type": "uint8"
        }
      ],
      "stateMutability": "view",
      "type": "function"
    },
    {
      "inputs": [
        {
          "internalType": "uint256",
          "name": "",
          "type": "uint256"
        }
      ],
      "name": "currentQueuePosition",
      "outputs": [
        {
          "internalType": "uint16",
          "name": "",
          "type": "uint16"
        }
      ],
      "stateMutability": "view",
      "type": "function"
    },
    {
      "inputs": [
        {
          "internalType": "uint256",
          "name": "",
          "type": "uint256"
        }
      ],
      "name": "game",
      "outputs": [
        {
          "internalType": "uint256",
          "name": "",
          "type": "uint256"
        }
      ],
      "stateMutability": "view",
      "type": "function"
    },
    {
      "inputs": [
        {
          "internalType": "bytes32",
          "name": "role",
          "type": "bytes32"
        }
      ],
      "name": "getRoleAdmin",
      "outputs": [
        {
          "internalType": "bytes32",
          "name": "",
          "type": "bytes32"
        }
      ],
      "stateMutability": "view",
      "type": "function"
    },
    {
      "inputs": [
        {
          "internalType": "bytes32",
          "name": "role",
          "type": "bytes32"
        },
        {
          "internalType": "uint256",
          "name": "index",
          "type": "uint256"
        }
      ],
      "name": "getRoleMember",
      "outputs": [
        {
          "internalType": "address",
          "name": "",
          "type": "address"
        }
      ],
      "stateMutability": "view",
      "type": "function"
    },
    {
      "inputs": [
        {
          "internalType": "bytes32",
          "name": "role",
          "type": "bytes32"
        }
      ],
      "name": "getRoleMemberCount",
      "outputs": [
        {
          "internalType": "uint256",
          "name": "",
          "type": "uint256"
        }
      ],
      "stateMutability": "view",
      "type": "function"
    },
    {
      "inputs": [
        {
          "internalType": "bytes32",
          "name": "role",
          "type": "bytes32"
        },
        {
          "internalType": "address",
          "name": "account",
          "type": "address"
        }
      ],
      "name": "grantRole",
      "outputs": [],
      "stateMutability": "nonpayable",
      "type": "function"
    },
    {
      "inputs": [
        {
          "internalType": "bytes32",
          "name": "role",
          "type": "bytes32"
        },
        {
          "internalType": "address",
          "name": "account",
          "type": "address"
        }
      ],
      "name": "hasRole",
      "outputs": [
        {
          "internalType": "bool",
          "name": "",
          "type": "bool"
        }
      ],
      "stateMutability": "view",
      "type": "function"
    },
    {
      "inputs": [
        {
          "internalType": "uint256",
          "name": "",
          "type": "uint256"
        }
      ],
      "name": "inProcessingQueue",
      "outputs": [
        {
          "internalType": "bool",
          "name": "",
          "type": "bool"
        }
      ],
      "stateMutability": "view",
      "type": "function"
    },
    {
      "inputs": [
        {
          "internalType": "uint256",
          "name": "",
          "type": "uint256"
        }
      ],
      "name": "playThroughPosition",
      "outputs": [
        {
          "internalType": "uint16",
          "name": "",
          "type": "uint16"
        }
      ],
      "stateMutability": "view",
      "type": "function"
    },
    {
      "inputs": [
        {
          "internalType": "uint256",
          "name": "",
          "type": "uint256"
        },
        {
          "internalType": "uint256",
          "name": "",
          "type": "uint256"
        }
      ],
      "name": "playerSubmitted",
      "outputs": [
        {
          "internalType": "bool",
          "name": "",
          "type": "bool"
        }
      ],
      "stateMutability": "view",
      "type": "function"
    },
    {
      "inputs": [
        {
          "internalType": "uint256",
          "name": "",
          "type": "uint256"
        },
        {
          "internalType": "uint256",
          "name": "",
          "type": "uint256"
        }
      ],
      "name": "players",
      "outputs": [
        {
          "internalType": "uint256",
          "name": "",
          "type": "uint256"
        }
      ],
      "stateMutability": "view",
      "type": "function"
    },
    {
      "inputs": [
        {
          "internalType": "uint256",
          "name": "",
          "type": "uint256"
        }
      ],
      "name": "processingQueue",
      "outputs": [
        {
          "internalType": "uint256",
          "name": "",
          "type": "uint256"
        }
      ],
      "stateMutability": "view",
      "type": "function"
    },
    {
      "inputs": [
        {
          "internalType": "uint256",
          "name": "",
          "type": "uint256"
        }
      ],
      "name": "queueID",
      "outputs": [
        {
          "internalType": "uint256",
          "name": "",
          "type": "uint256"
        }
      ],
      "stateMutability": "view",
      "type": "function"
    },
    {
      "inputs": [
        {
          "internalType": "bytes32",
          "name": "role",
          "type": "bytes32"
        },
        {
          "internalType": "address",
          "name": "account",
          "type": "address"
        }
      ],
      "name": "renounceRole",
      "outputs": [],
      "stateMutability": "nonpayable",
      "type": "function"
    },
    {
      "inputs": [
        {
          "internalType": "bytes32",
          "name": "role",
          "type": "bytes32"
        },
        {
          "internalType": "address",
          "name": "account",
          "type": "address"
        }
      ],
      "name": "revokeRole",
      "outputs": [],
      "stateMutability": "nonpayable",
      "type": "function"
    },
    {
      "inputs": [
        {
          "internalType": "uint256",
          "name": "",
          "type": "uint256"
        },
        {
          "internalType": "uint256",
          "name": "",
          "type": "uint256"
        }
      ],
      "name": "submissionAction",
      "outputs": [
        {
          "internalType": "enum HexplorationQueue.Action",
          "name": "",
          "type": "uint8"
        }
      ],
      "stateMutability": "view",
      "type": "function"
    },
    {
      "inputs": [
        {
          "internalType": "uint256",
          "name": "",
          "type": "uint256"
        },
        {
          "internalType": "uint256",
          "name": "",
          "type": "uint256"
        }
      ],
      "name": "submissionLeftHand",
      "outputs": [
        {
          "internalType": "string",
          "name": "",
          "type": "string"
        }
      ],
      "stateMutability": "view",
      "type": "function"
    },
    {
      "inputs": [
        {
          "internalType": "uint256",
          "name": "",
          "type": "uint256"
        },
        {
          "internalType": "uint256",
          "name": "",
          "type": "uint256"
        },
        {
          "internalType": "uint256",
          "name": "",
          "type": "uint256"
        }
      ],
      "name": "submissionOptions",
      "outputs": [
        {
          "internalType": "string",
          "name": "",
          "type": "string"
        }
      ],
      "stateMutability": "view",
      "type": "function"
    },
    {
      "inputs": [
        {
          "internalType": "uint256",
          "name": "",
          "type": "uint256"
        },
        {
          "internalType": "uint256",
          "name": "",
          "type": "uint256"
        }
      ],
      "name": "submissionRightHand",
      "outputs": [
        {
          "internalType": "string",
          "name": "",
          "type": "string"
        }
      ],
      "stateMutability": "view",
      "type": "function"
    },
    {
      "inputs": [
        {
          "internalType": "bytes4",
          "name": "interfaceId",
          "type": "bytes4"
        }
      ],
      "name": "supportsInterface",
      "outputs": [
        {
          "internalType": "bool",
          "name": "",
          "type": "bool"
        }
      ],
      "stateMutability": "view",
      "type": "function"
    },
    {
      "inputs": [
        {
          "internalType": "uint256",
          "name": "",
          "type": "uint256"
        }
      ],
      "name": "totalPlayers",
      "outputs": [
        {
          "internalType": "uint256",
          "name": "",
          "type": "uint256"
        }
      ],
      "stateMutability": "view",
      "type": "function"
    },
    {
      "inputs": [
        {
          "internalType": "address",
          "name": "controllerAddress",
          "type": "address"
        }
      ],
      "name": "addVerifiedController",
      "outputs": [],
      "stateMutability": "nonpayable",
      "type": "function"
    },
    {
      "inputs": [
        {
          "internalType": "uint256",
          "name": "gameID",
          "type": "uint256"
        },
        {
          "internalType": "uint256",
          "name": "_totalPlayers",
          "type": "uint256"
        }
      ],
      "name": "requestGameQueue",
      "outputs": [
        {
          "internalType": "uint256",
          "name": "",
          "type": "uint256"
        }
      ],
      "stateMutability": "nonpayable",
      "type": "function"
    },
    {
      "inputs": [
        {
          "internalType": "uint256",
          "name": "_queueID",
          "type": "uint256"
        }
      ],
      "name": "startGame",
      "outputs": [],
      "stateMutability": "nonpayable",
      "type": "function"
    },
    {
      "inputs": [
        {
          "internalType": "uint256",
          "name": "playerID",
          "type": "uint256"
        },
        {
          "internalType": "uint8",
          "name": "action",
          "type": "uint8"
        },
        {
          "internalType": "string[]",
          "name": "options",
          "type": "string[]"
        },
        {
          "internalType": "string",
          "name": "leftHand",
          "type": "string"
        },
        {
          "internalType": "string",
          "name": "rightHand",
          "type": "string"
        },
        {
          "internalType": "uint256",
          "name": "_queueID",
          "type": "uint256"
        }
      ],
      "name": "sumbitActionForPlayer",
      "outputs": [],
      "stateMutability": "nonpayable",
      "type": "function"
    },
    {
      "inputs": [
        {
          "internalType": "uint256",
          "name": "_queueID",
          "type": "uint256"
        }
      ],
      "name": "requestProcessActions",
      "outputs": [],
      "stateMutability": "nonpayable",
      "type": "function"
    },
    {
      "inputs": [
        {
          "internalType": "uint256",
          "name": "_queueID",
          "type": "uint256"
        }
      ],
      "name": "getAllPlayers",
      "outputs": [
        {
          "internalType": "uint256[]",
          "name": "",
          "type": "uint256[]"
        }
      ],
      "stateMutability": "view",
      "type": "function"
    },
    {
      "inputs": [
        {
          "internalType": "uint256",
          "name": "_queueID",
          "type": "uint256"
        },
        {
          "internalType": "uint256",
          "name": "_playerID",
          "type": "uint256"
        }
      ],
      "name": "getSubmissionOptions",
      "outputs": [
        {
          "internalType": "string[]",
          "name": "",
          "type": "string[]"
        }
      ],
      "stateMutability": "view",
      "type": "function"
    },
    {
      "inputs": [
        {
          "internalType": "enum HexplorationQueue.ProcessingPhase",
          "name": "phase",
          "type": "uint8"
        },
        {
          "internalType": "uint256",
          "name": "_queueID",
          "type": "uint256"
        }
      ],
      "name": "setPhase",
      "outputs": [],
      "stateMutability": "nonpayable",
      "type": "function"
    },
    {
      "inputs": [
        {
          "internalType": "uint256",
          "name": "randomNumber",
          "type": "uint256"
        },
        {
          "internalType": "uint256",
          "name": "_queueID",
          "type": "uint256"
        }
      ],
      "name": "setRandomNumber",
      "outputs": [],
      "stateMutability": "nonpayable",
      "type": "function"
    },
    {
      "inputs": [
        {
          "internalType": "uint256",
          "name": "_queueID",
          "type": "uint256"
        }
      ],
      "name": "requestNewQueueID",
      "outputs": [],
      "stateMutability": "nonpayable",
      "type": "function"
    },
    {
      "inputs": [
        {
          "internalType": "uint256",
          "name": "_queueID",
          "type": "uint256"
        },
        {
          "internalType": "bool",
          "name": "gameComplete",
          "type": "bool"
        }
      ],
      "name": "finishProcessing",
      "outputs": [],
      "stateMutability": "nonpayable",
      "type": "function"
    }
  ],
  "bytecode": "0x60806040523480156200001157600080fd5b5060405162001fc338038062001fc383398101604081905262000034916200027d565b6200005c60006200004d640100000000620000b2810204565b640100000000620000b6810204565b620000917f0c2c7e957bdf811d5a896b04e816b9c382dfb980c93b21b0288b75c85d598acd82640100000000620000b6810204565b620000ab600264010000000062000d87620000cf82021704565b50620002af565b3390565b620000cb8282640100000000620000d8810204565b5050565b80546001019055565b620000f2828264010000000062000d906200011f82021704565b60008281526001602052604090206200011a908264010000000062000e14620001bb82021704565b505050565b620001348282640100000000620001e4810204565b620000cb57600082815260208181526040808320600160a060020a03851684529091529020805460ff1916600117905562000177640100000000620000b2810204565b600160a060020a031681600160a060020a0316837f2f8788117e7eff1d82e926ec794901d17c78024a50270940304540a733656f0d60405160405180910390a45050565b6000620001db83600160a060020a0384166401000000006200020d810204565b90505b92915050565b600091825260208281526040808420600160a060020a0393909316845291905290205460ff1690565b600062000224838364010000000062000265810204565b6200025c57508154600181810184556000848152602080822090930184905584548482528286019093526040902091909155620001de565b506000620001de565b60009081526001919091016020526040902054151590565b6000602082840312156200029057600080fd5b8151600160a060020a0381168114620002a857600080fd5b9392505050565b611d0480620002bf6000396000f3fe608060405234801561001057600080fd5b50600436106101f9576000357c0100000000000000000000000000000000000000000000000000000000900480639b8e681911610122578063ca15c873116100ba578063ca15c873146104ff578063cddbe72914610512578063d4f5b15214610532578063d547741f14610545578063d809371f14610558578063e2f315c11461056b578063e5ed1d591461058f578063e73ed37f146105a2578063fd82e21f146105d057600080fd5b80639b8e68191461040b5780639bd78d2b1461041e5780639f6bc61d14610441578063a217fddf14610454578063a2dc58601461045c578063ac01b83d1461047c578063ae6a70561461049c578063af7afe56146104af578063b1fb6405146104cf57600080fd5b806336568abe1161019557806336568abe146103135780635da4fabc146103265780636b775e5c146103395780637f0415911461034c578063861814e2146103875780638e6e1d89146103a75780639010d07c146103ba57806391d14854146103e5578063998f1b80146103f857600080fd5b806301ffc9a7146101fe57806304ac8fee1461022657806306fb55271461023b5780630c6ea5311461025c5780631b341b3e146102935780631c834a7f146102b3578063248a9ca3146102c857806328d6b4c0146102eb5780632f2ff15d14610300575b600080fd5b61021161020c366004611660565b6105e3565b60405190151581526020015b60405180910390f35b61023961023436600461168a565b610627565b005b61024e6102493660046116ba565b610674565b60405190815260200161021d565b61028061026a3660046116dc565b60046020526000908152604090205461ffff1681565b60405161ffff909116815260200161021d565b6102a66102a13660046116f5565b6106a0565b60405161021d919061177d565b61024e600080516020611caf83398151915281565b61024e6102d63660046116dc565b60009081526020819052604090206001015490565b61024e600080516020611c8f83398151915281565b61023961030e3660046117ac565b610766565b6102396103213660046117ac565b610790565b6102396103343660046116ba565b610824565b6102396103473660046116dc565b61084e565b61037a61035a3660046116ba565b600c60209081526000928352604080842090915290825290205460ff1681565b60405161021d91906117f1565b61024e6103953660046116dc565b60066020526000908152604090205481565b6102396103b536600461180b565b61086f565b6103cd6103c83660046116ba565b610891565b604051600160a060020a03909116815260200161021d565b6102116103f33660046117ac565b6108b0565b61024e6104063660046116ba565b6108d9565b6102a66104193660046116ba565b61090a565b61021161042c3660046116dc565b60076020526000908152604090205460ff1681565b61024e61044f3660046116dc565b61092e565b61024e600081565b61046f61046a3660046116ba565b61094f565b60405161021d9190611840565b61048f61048a3660046116dc565b610a3d565b60405161021d91906118a1565b6102396104aa366004611a3d565b610a9f565b61024e6104bd3660046116dc565b600b6020526000908152604090205481565b6104f26104dd3660046116dc565b60086020526000908152604090205460ff1681565b60405161021d9190611af0565b61024e61050d3660046116dc565b610c7b565b61024e6105203660046116dc565b60096020526000908152604090205481565b610239610540366004611b04565b610c92565b6102396105533660046117ac565b610cb5565b6102396105663660046116dc565b610cda565b6102806105793660046116dc565b60056020526000908152604090205461ffff1681565b61023961059d3660046116dc565b610d2f565b6102116105b03660046116ba565b601060209081526000928352604080842090915290825290205460ff1681565b6102a66105de3660046116ba565b610d63565b6000600160e060020a031982167f5a05180f000000000000000000000000000000000000000000000000000000001480610621575061062182610e29565b92915050565b600080516020611c8f83398151915261063f81610e90565b6000828152600860205260409020805484919060ff1916600183600581111561066a5761066a6117d8565b0217905550505050565b6000600080516020611caf83398151915261068e81610e90565b6106988484610e9d565b949350505050565b600d60205282600052604060002060205281600052604060002081815481106106c857600080fd5b90600052602060002001600092509250505080546106e590611b1f565b80601f016020809104026020016040519081016040528092919081815260200182805461071190611b1f565b801561075e5780601f106107335761010080835404028352916020019161075e565b820191906000526020600020905b81548152906001019060200180831161074157829003601f168201915b505050505081565b60008281526020819052604090206001015461078181610e90565b61078b8383610f45565b505050565b600160a060020a03811633146108165760405160e560020a62461bcd02815260206004820152602f60248201527f416363657373436f6e74726f6c3a2063616e206f6e6c792072656e6f756e636560448201527f20726f6c657320666f722073656c66000000000000000000000000000000000060648201526084015b60405180910390fd5b6108208282610f67565b5050565b600080516020611c8f83398151915261083c81610e90565b50600090815260116020526040902055565b600080516020611caf83398151915261086681610e90565b61082082610f89565b600080516020611c8f83398151915261088781610e90565b61078b8383611032565b60008281526001602052604081206108a990836110b2565b9392505050565b600091825260208281526040808420600160a060020a0393909316845291905290205460ff1690565b600a60205281600052604060002081815481106108f557600080fd5b90600052602060002001600091509150505481565b600f602090815260009283526040808420909152908252902080546106e590611b1f565b6003818154811061093e57600080fd5b600091825260209091200154905081565b6000828152600d602090815260408083208484528252808320805482518185028101850190935280835260609492939192909184015b82821015610a315783829060005260206000200180546109a490611b1f565b80601f01602080910402602001604051908101604052809291908181526020018280546109d090611b1f565b8015610a1d5780601f106109f257610100808354040283529160200191610a1d565b820191906000526020600020905b815481529060010190602001808311610a0057829003601f168201915b505050505081526020019060010190610985565b50505050905092915050565b6000818152600a6020908152604091829020805483518184028101840190945280845260609392830182828015610a9357602002820191906000526020600020905b815481526020019060010190808311610a7f575b50505050509050919050565b600080516020611caf833981519152610ab781610e90565b600160008381526008602052604090205460ff166005811115610adc57610adc6117d8565b14610b2c5760405160e560020a62461bcd02815260206004820152601460248201527f4e6f74207375626d697373696f6e207068617365000000000000000000000000604482015260640161080d565b60008281526010602090815260408083208a845290915290205460ff16610c72578560ff166006811115610b6257610b626117d8565b6000838152600c602090815260408083208b84529091529020805460ff19166001836006811115610b9557610b956117d8565b02179055506000828152600d602090815260408083208a845282529091208651610bc192880190611517565b506000828152600e602090815260408083208a845282529091208551610be992870190611574565b506000828152600f602090815260408083208a845282529091208451610c1192860190611574565b506000828152600a602081815260408084208054600181810183558287528487209091018d9055878652601084528286208d87528452828620805460ff19169091179055868552600b8352932054919052905410610c7257610c7282610f89565b50505050505050565b6000818152600160205260408120610621906110be565b6000610c9d81610e90565b610820600080516020611caf83398151915283610766565b600082815260208190526040902060010154610cd081610e90565b61078b8383610f67565b600080516020611c8f833981519152610cf281610e90565b600082815260096020908152604080832054600b90925290912054610d178282610e9d565b60009283526006602052604090922091909155505050565b600080516020611caf833981519152610d4781610e90565b506000908152600860205260409020805460ff19166001179055565b600e602090815260009283526040808420909152908252902080546106e590611b1f565b80546001019055565b610d9a82826108b0565b61082057600082815260208181526040808320600160a060020a03851684529091529020805460ff19166001179055610dd03390565b600160a060020a031681600160a060020a0316837f2f8788117e7eff1d82e926ec794901d17c78024a50270940304540a733656f0d60405160405180910390a45050565b60006108a983600160a060020a0384166110c8565b6000600160e060020a031982167f7965db0b00000000000000000000000000000000000000000000000000000000148061062157507f01ffc9a700000000000000000000000000000000000000000000000000000000600160e060020a0319831614610621565b610e9a8133611117565b50565b60008281526006602052604081205415610efc5760405160e560020a62461bcd02815260206004820152601160248201527f717565756520616c726561647920736574000000000000000000000000000000604482015260640161080d565b6000610f0760025490565b600081815260096020908152604080832088905587835260068252808320849055838352600b909152902084905590506108a9600280546001019055565b610f4f8282610d90565b600082815260016020526040902061078b9082610e14565b610f71828261117e565b600082815260016020526040902061078b90826111e3565b60008181526007602052604090205460ff16158015610fca5750600160008281526008602052604090205460ff166005811115610fc857610fc86117d8565b145b15610e9a576003805460018082019092557fc2575a0e9e593c00f959f8c92f12db2869c3395a3b0502d05e2516446f71f85b018290556000918252600760209081526040808420805460ff199081169094179055600890915290912080549091166002179055565b60008281526009602090815260408083205460088352818420805460ff1916600417905580845260069092528220919091558161078b576000838152600b6020526040812054906110838383610e9d565b600093845260066020908152604080862083905591855260089052909220805460ff1916600117905550505050565b60006108a983836111f8565b6000610621825490565b600081815260018301602052604081205461110f57508154600181810184556000848152602080822090930184905584548482528286019093526040902091909155610621565b506000610621565b61112182826108b0565b6108205761113981600160a060020a03166014611222565b611144836020611222565b604051602001611155929190611b5d565b60408051601f198184030181529082905260e560020a62461bcd02825261080d9160040161177d565b61118882826108b0565b1561082057600082815260208181526040808320600160a060020a0385168085529252808320805460ff1916905551339285917ff6391f5c32d9c69d2a47ea670b442974b53935d1edc7fd64eb21e047a839171b9190a45050565b60006108a983600160a060020a038416611424565b600082600001828154811061120f5761120f611bde565b9060005260206000200154905092915050565b60606000611231836002611c10565b61123c906002611c2f565b67ffffffffffffffff811115611254576112546118e5565b6040519080825280601f01601f19166020018201604052801561127e576020820181803683370190505b5090507f3000000000000000000000000000000000000000000000000000000000000000816000815181106112b5576112b5611bde565b6020010190600160f860020a031916908160001a9053507f78000000000000000000000000000000000000000000000000000000000000008160018151811061130057611300611bde565b6020010190600160f860020a031916908160001a9053506000611324846002611c10565b61132f906001611c2f565b90505b60018111156113d2577f303132333435363738396162636465660000000000000000000000000000000085600f166010811061137057611370611bde565b1a7f0100000000000000000000000000000000000000000000000000000000000000028282815181106113a5576113a5611bde565b6020010190600160f860020a031916908160001a9053506010909404936113cb81611c47565b9050611332565b5083156108a95760405160e560020a62461bcd02815260206004820181905260248201527f537472696e67733a20686578206c656e67746820696e73756666696369656e74604482015260640161080d565b6000818152600183016020526040812054801561150d576000611448600183611c5e565b855490915060009061145c90600190611c5e565b90508181146114c157600086600001828154811061147c5761147c611bde565b906000526020600020015490508087600001848154811061149f5761149f611bde565b6000918252602080832090910192909255918252600188019052604090208390555b85548690806114d2576114d2611c75565b600190038181906000526020600020016000905590558560010160008681526020019081526020016000206000905560019350505050610621565b6000915050610621565b828054828255906000526020600020908101928215611564579160200282015b828111156115645782518051611554918491602090910190611574565b5091602001919060010190611537565b506115709291506115f4565b5090565b82805461158090611b1f565b90600052602060002090601f0160209004810192826115a257600085556115e8565b82601f106115bb57805160ff19168380011785556115e8565b828001600101855582156115e8579182015b828111156115e85782518255916020019190600101906115cd565b50611570929150611611565b808211156115705760006116088282611626565b506001016115f4565b5b808211156115705760008155600101611612565b50805461163290611b1f565b6000825580601f10611642575050565b601f016020900490600052602060002090810190610e9a9190611611565b60006020828403121561167257600080fd5b8135600160e060020a0319811681146108a957600080fd5b6000806040838503121561169d57600080fd5b8235600681106116ac57600080fd5b946020939093013593505050565b600080604083850312156116cd57600080fd5b50508035926020909101359150565b6000602082840312156116ee57600080fd5b5035919050565b60008060006060848603121561170a57600080fd5b505081359360208301359350604090920135919050565b60005b8381101561173c578181015183820152602001611724565b8381111561174b576000848401525b50505050565b60008151808452611769816020860160208601611721565b601f01601f19169290920160200192915050565b6020815260006108a96020830184611751565b8035600160a060020a03811681146117a757600080fd5b919050565b600080604083850312156117bf57600080fd5b823591506117cf60208401611790565b90509250929050565b60e060020a634e487b7102600052602160045260246000fd5b6020810160078310611805576118056117d8565b91905290565b6000806040838503121561181e57600080fd5b823591506020830135801515811461183557600080fd5b809150509250929050565b600060208083018184528085518083526040860191506040848202870101925083870160005b8281101561189457603f19888603018452611882858351611751565b94509285019290850190600101611866565b5092979650505050505050565b6020808252825182820181905260009190848201906040850190845b818110156118d9578351835292840192918401916001016118bd565b50909695505050505050565b60e060020a634e487b7102600052604160045260246000fd5b604051601f8201601f1916810167ffffffffffffffff81118282101715611927576119276118e5565b604052919050565b600082601f83011261194057600080fd5b813567ffffffffffffffff81111561195a5761195a6118e5565b61196d601f8201601f19166020016118fe565b81815284602083860101111561198257600080fd5b816020850160208301376000918101602001919091529392505050565b600082601f8301126119b057600080fd5b8135602067ffffffffffffffff808311156119cd576119cd6118e5565b8183026119db8382016118fe565b93845285810183019383810190888611156119f557600080fd5b84880192505b85831015611a3157823584811115611a135760008081fd5b611a218a87838c010161192f565b83525091840191908401906119fb565b98975050505050505050565b60008060008060008060c08789031215611a5657600080fd5b86359550602087013560ff81168114611a6e57600080fd5b9450604087013567ffffffffffffffff80821115611a8b57600080fd5b611a978a838b0161199f565b95506060890135915080821115611aad57600080fd5b611ab98a838b0161192f565b94506080890135915080821115611acf57600080fd5b50611adc89828a0161192f565b92505060a087013590509295509295509295565b6020810160068310611805576118056117d8565b600060208284031215611b1657600080fd5b6108a982611790565b600281046001821680611b3357607f821691505b60208210811415611b575760e060020a634e487b7102600052602260045260246000fd5b50919050565b7f416363657373436f6e74726f6c3a206163636f756e7420000000000000000000815260008351611b95816017850160208801611721565b7f206973206d697373696e6720726f6c65200000000000000000000000000000006017918401918201528351611bd2816028840160208801611721565b01602801949350505050565b60e060020a634e487b7102600052603260045260246000fd5b60e060020a634e487b7102600052601160045260246000fd5b6000816000190483118215151615611c2a57611c2a611bf7565b500290565b60008219821115611c4257611c42611bf7565b500190565b600081611c5657611c56611bf7565b506000190190565b600082821015611c7057611c70611bf7565b500390565b60e060020a634e487b7102600052603160045260246000fdfe0c2c7e957bdf811d5a896b04e816b9c382dfb980c93b21b0288b75c85d598acd80e2196015fc06a9d891759f8e4f51eb314ef5e9ea068528a8ed0063b87759f0a26469706673582212209f3a310c3a12bc57cd1d8db781b50eb85a556c5beb62f647edf9ef339899bca164736f6c634300080b0033",
  "immutableReferences": {},
  "source": "// SPDX-License-Identifier: GPL-3.0\npragma solidity >=0.7.0 <0.9.0;\n\nimport \"@openzeppelin/contracts/access/AccessControlEnumerable.sol\";\nimport \"@openzeppelin/contracts/utils/Counters.sol\";\nimport \"./HexplorationStateUpdate.sol\";\n\ncontract HexplorationQueue is AccessControlEnumerable {\n    using Counters for Counters.Counter;\n    Counters.Counter internal QUEUE_ID;\n\n    enum ProcessingPhase {\n        Start,\n        Submission,\n        Processing,\n        PlayThrough,\n        Processed,\n        Closed\n    }\n    enum Action {\n        Idle,\n        Move,\n        SetupCamp,\n        BreakDownCamp,\n        Dig,\n        Rest,\n        Help\n    }\n\n    bytes32 public constant VERIFIED_CONTROLLER_ROLE =\n        keccak256(\"VERIFIED_CONTROLLER_ROLE\");\n    bytes32 public constant GAMEPLAY_ROLE = keccak256(\"GAMEPLAY_ROLE\");\n\n    // Array of Queue IDs to be processed.\n    uint256[] public processingQueue;\n\n    // do we need these 2?\n    mapping(uint256 => uint16) public currentQueuePosition; // ?? increases with each player in queue, then back to 0\n    mapping(uint256 => uint16) public playThroughPosition; // ?? in case we need to batch this too... hopefully not.\n\n    // mapping from game ID\n    mapping(uint256 => uint256) public queueID; // mapping from game ID to it's queue, updates to 0 when finished\n\n    // mappings from queue index\n    mapping(uint256 => bool) public inProcessingQueue; // game queue is in processing queue\n    mapping(uint256 => ProcessingPhase) public currentPhase; // processingPhase\n    mapping(uint256 => uint256) public game; // mapping from queue ID to it's game ID\n    mapping(uint256 => uint256[]) public players; // all players with moves to process\n    mapping(uint256 => uint256) public totalPlayers; // total # of players who will be submitting\n\n    // mappings from queue index => player id\n    mapping(uint256 => mapping(uint256 => Action)) public submissionAction;\n    mapping(uint256 => mapping(uint256 => string[])) public submissionOptions;\n    mapping(uint256 => mapping(uint256 => string)) public submissionLeftHand;\n    mapping(uint256 => mapping(uint256 => string)) public submissionRightHand;\n    mapping(uint256 => mapping(uint256 => bool)) public playerSubmitted;\n\n    mapping(uint256 => uint256) randomness; // randomness delivered here at start of each phase processing\n\n    ///////  VRF can kick off processing phase\n\n    constructor(address gameplayAddress) {\n        _setupRole(DEFAULT_ADMIN_ROLE, _msgSender());\n        _setupRole(GAMEPLAY_ROLE, gameplayAddress);\n        QUEUE_ID.increment(); // start at 1\n    }\n\n    // Can set multiple VCs, one for manual pushing, one for keeper\n    function addVerifiedController(address controllerAddress)\n        public\n        onlyRole(DEFAULT_ADMIN_ROLE)\n    {\n        grantRole(VERIFIED_CONTROLLER_ROLE, controllerAddress);\n    }\n\n    // pass total # players making submissions\n    // total can be less than actual totalPlayers in game\n    function requestGameQueue(uint256 gameID, uint256 _totalPlayers)\n        external\n        onlyRole(VERIFIED_CONTROLLER_ROLE)\n        returns (uint256)\n    {\n        return _requestGameQueue(gameID, _totalPlayers);\n    }\n\n    // Sent from controller\n\n    function startGame(uint256 _queueID)\n        public\n        onlyRole(VERIFIED_CONTROLLER_ROLE)\n    {\n        currentPhase[_queueID] = ProcessingPhase.Submission;\n    }\n\n    function sumbitActionForPlayer(\n        uint256 playerID,\n        uint8 action,\n        string[] memory options,\n        string memory leftHand,\n        string memory rightHand,\n        uint256 _queueID\n    ) public onlyRole(VERIFIED_CONTROLLER_ROLE) {\n        require(\n            currentPhase[_queueID] == ProcessingPhase.Submission,\n            \"Not submission phase\"\n        );\n        if (!playerSubmitted[_queueID][playerID]) {\n            submissionAction[_queueID][playerID] = Action(action);\n            submissionOptions[_queueID][playerID] = options;\n            submissionLeftHand[_queueID][playerID] = leftHand;\n            submissionRightHand[_queueID][playerID] = rightHand;\n\n            players[_queueID].push(playerID);\n            playerSubmitted[_queueID][playerID] = true;\n            // automatically add to queue if last player to submit move\n            if (players[_queueID].length >= totalPlayers[_queueID]) {\n                _processAllActions(_queueID);\n            }\n        }\n    }\n\n    // Will get processed once keeper is available\n    // and previous game queues have been processed\n    function requestProcessActions(uint256 _queueID)\n        public\n        onlyRole(VERIFIED_CONTROLLER_ROLE)\n    {\n        _processAllActions(_queueID);\n    }\n\n    function getAllPlayers(uint256 _queueID)\n        public\n        view\n        returns (uint256[] memory)\n    {\n        return players[_queueID];\n    }\n\n    function getSubmissionOptions(uint256 _queueID, uint256 _playerID)\n        public\n        view\n        returns (string[] memory)\n    {\n        return submissionOptions[_queueID][_playerID];\n    }\n\n    // Gameplay interactions\n    function setPhase(ProcessingPhase phase, uint256 _queueID)\n        external\n        onlyRole(GAMEPLAY_ROLE)\n    {\n        currentPhase[_queueID] = phase;\n    }\n\n    function setRandomNumber(uint256 randomNumber, uint256 _queueID)\n        external\n        onlyRole(GAMEPLAY_ROLE)\n    {\n        randomness[_queueID] = randomNumber;\n    }\n\n    function requestNewQueueID(uint256 _queueID)\n        external\n        onlyRole(GAMEPLAY_ROLE)\n    {\n        uint256 g = game[_queueID];\n        uint256 tp = totalPlayers[_queueID];\n        queueID[g] = _requestGameQueue(g, tp);\n    }\n\n    function finishProcessing(uint256 _queueID, bool gameComplete)\n        public\n        onlyRole(GAMEPLAY_ROLE)\n    {\n        _setProcessingComplete(_queueID, gameComplete);\n    }\n\n    function _setProcessingComplete(uint256 _queueID, bool gameComplete)\n        internal\n    {\n        uint256 g = game[_queueID];\n        currentPhase[_queueID] = ProcessingPhase.Processed;\n        queueID[g] = 0;\n        if (!gameComplete) {\n            // get new queue ID for next set of player actions\n            uint256 tp = totalPlayers[_queueID];\n            uint256 newQueueID = _requestGameQueue(g, tp);\n            queueID[g] = newQueueID;\n            currentPhase[newQueueID] = ProcessingPhase.Submission;\n        }\n    }\n\n    // Internal\n    function _processAllActions(uint256 _queueID) internal {\n        // Can only add unique unprocessed game queues into processing queue\n        if (\n            !inProcessingQueue[_queueID] &&\n            currentPhase[_queueID] == ProcessingPhase.Submission\n        ) {\n            processingQueue.push(_queueID);\n            inProcessingQueue[_queueID] = true;\n            currentPhase[_queueID] = ProcessingPhase.Processing;\n        }\n    }\n\n    function _requestGameQueue(uint256 gameID, uint256 _totalPlayers)\n        internal\n        returns (uint256)\n    {\n        /*\n    mapping(uint256 => uint256) public queueID; // mapping from game ID to it's queue, updates to 0 when finished\n    mapping(uint256 => uint256) public game; // mapping from queue ID to it's game ID\n    mapping(uint256 => uint256[]) public players; // all players with moves to process\n    mapping(uint256 => uint16) public totalPlayers;\n        */\n        require(queueID[gameID] == 0, \"queue already set\");\n        uint256 newQueueID = QUEUE_ID.current();\n        game[newQueueID] = gameID;\n        queueID[gameID] = newQueueID;\n        totalPlayers[newQueueID] = _totalPlayers;\n        QUEUE_ID.increment();\n        return newQueueID;\n    }\n}\n",
  "sourcePath": "/Users/maxmeier/Developer/Lucky Machines/hexploration/contracts/HexplorationQueue.sol",
  "compiler": {
    "name": "solc",
    "version": "0.8.11+commit.d7f03943.Emscripten.clang"
  },
  "schemaVersion": "3.4.4",
  "updatedAt": "2022-05-23T16:05:10.979Z",
  "devdoc": {
    "kind": "dev",
    "methods": {
      "getRoleAdmin(bytes32)": {
        "details": "Returns the admin role that controls `role`. See {grantRole} and {revokeRole}. To change a role's admin, use {_setRoleAdmin}."
      },
      "getRoleMember(bytes32,uint256)": {
        "details": "Returns one of the accounts that have `role`. `index` must be a value between 0 and {getRoleMemberCount}, non-inclusive. Role bearers are not sorted in any particular way, and their ordering may change at any point. WARNING: When using {getRoleMember} and {getRoleMemberCount}, make sure you perform all queries on the same block. See the following https://forum.openzeppelin.com/t/iterating-over-elements-on-enumerableset-in-openzeppelin-contracts/2296[forum post] for more information."
      },
      "getRoleMemberCount(bytes32)": {
        "details": "Returns the number of accounts that have `role`. Can be used together with {getRoleMember} to enumerate all bearers of a role."
      },
      "grantRole(bytes32,address)": {
        "details": "Grants `role` to `account`. If `account` had not been already granted `role`, emits a {RoleGranted} event. Requirements: - the caller must have ``role``'s admin role."
      },
      "hasRole(bytes32,address)": {
        "details": "Returns `true` if `account` has been granted `role`."
      },
      "renounceRole(bytes32,address)": {
        "details": "Revokes `role` from the calling account. Roles are often managed via {grantRole} and {revokeRole}: this function's purpose is to provide a mechanism for accounts to lose their privileges if they are compromised (such as when a trusted device is misplaced). If the calling account had been revoked `role`, emits a {RoleRevoked} event. Requirements: - the caller must be `account`."
      },
      "revokeRole(bytes32,address)": {
        "details": "Revokes `role` from `account`. If `account` had been granted `role`, emits a {RoleRevoked} event. Requirements: - the caller must have ``role``'s admin role."
      },
      "supportsInterface(bytes4)": {
        "details": "See {IERC165-supportsInterface}."
      }
    },
    "version": 1
  },
  "userdoc": {
    "kind": "user",
    "methods": {},
    "version": 1
  }
}