{
  "contractName": "HexplorationQueue",
  "abi": [
    {
      "inputs": [
        {
          "internalType": "address",
          "name": "gameplayAddress",
          "type": "address"
        }
      ],
      "stateMutability": "nonpayable",
      "type": "constructor"
    },
    {
      "anonymous": false,
      "inputs": [
        {
          "indexed": true,
          "internalType": "bytes32",
          "name": "role",
          "type": "bytes32"
        },
        {
          "indexed": true,
          "internalType": "bytes32",
          "name": "previousAdminRole",
          "type": "bytes32"
        },
        {
          "indexed": true,
          "internalType": "bytes32",
          "name": "newAdminRole",
          "type": "bytes32"
        }
      ],
      "name": "RoleAdminChanged",
      "type": "event"
    },
    {
      "anonymous": false,
      "inputs": [
        {
          "indexed": true,
          "internalType": "bytes32",
          "name": "role",
          "type": "bytes32"
        },
        {
          "indexed": true,
          "internalType": "address",
          "name": "account",
          "type": "address"
        },
        {
          "indexed": true,
          "internalType": "address",
          "name": "sender",
          "type": "address"
        }
      ],
      "name": "RoleGranted",
      "type": "event"
    },
    {
      "anonymous": false,
      "inputs": [
        {
          "indexed": true,
          "internalType": "bytes32",
          "name": "role",
          "type": "bytes32"
        },
        {
          "indexed": true,
          "internalType": "address",
          "name": "account",
          "type": "address"
        },
        {
          "indexed": true,
          "internalType": "address",
          "name": "sender",
          "type": "address"
        }
      ],
      "name": "RoleRevoked",
      "type": "event"
    },
    {
      "inputs": [],
      "name": "DEFAULT_ADMIN_ROLE",
      "outputs": [
        {
          "internalType": "bytes32",
          "name": "",
          "type": "bytes32"
        }
      ],
      "stateMutability": "view",
      "type": "function"
    },
    {
      "inputs": [],
      "name": "GAMEPLAY_ROLE",
      "outputs": [
        {
          "internalType": "bytes32",
          "name": "",
          "type": "bytes32"
        }
      ],
      "stateMutability": "view",
      "type": "function"
    },
    {
      "inputs": [],
      "name": "VERIFIED_CONTROLLER_ROLE",
      "outputs": [
        {
          "internalType": "bytes32",
          "name": "",
          "type": "bytes32"
        }
      ],
      "stateMutability": "view",
      "type": "function"
    },
    {
      "inputs": [
        {
          "internalType": "uint256",
          "name": "",
          "type": "uint256"
        }
      ],
      "name": "currentPhase",
      "outputs": [
        {
          "internalType": "enum HexplorationQueue.ProcessingPhase",
          "name": "",
          "type": "uint8"
        }
      ],
      "stateMutability": "view",
      "type": "function"
    },
    {
      "inputs": [
        {
          "internalType": "uint256",
          "name": "",
          "type": "uint256"
        }
      ],
      "name": "currentQueuePosition",
      "outputs": [
        {
          "internalType": "uint16",
          "name": "",
          "type": "uint16"
        }
      ],
      "stateMutability": "view",
      "type": "function"
    },
    {
      "inputs": [
        {
          "internalType": "uint256",
          "name": "",
          "type": "uint256"
        }
      ],
      "name": "game",
      "outputs": [
        {
          "internalType": "uint256",
          "name": "",
          "type": "uint256"
        }
      ],
      "stateMutability": "view",
      "type": "function"
    },
    {
      "inputs": [
        {
          "internalType": "bytes32",
          "name": "role",
          "type": "bytes32"
        }
      ],
      "name": "getRoleAdmin",
      "outputs": [
        {
          "internalType": "bytes32",
          "name": "",
          "type": "bytes32"
        }
      ],
      "stateMutability": "view",
      "type": "function"
    },
    {
      "inputs": [
        {
          "internalType": "bytes32",
          "name": "role",
          "type": "bytes32"
        },
        {
          "internalType": "uint256",
          "name": "index",
          "type": "uint256"
        }
      ],
      "name": "getRoleMember",
      "outputs": [
        {
          "internalType": "address",
          "name": "",
          "type": "address"
        }
      ],
      "stateMutability": "view",
      "type": "function"
    },
    {
      "inputs": [
        {
          "internalType": "bytes32",
          "name": "role",
          "type": "bytes32"
        }
      ],
      "name": "getRoleMemberCount",
      "outputs": [
        {
          "internalType": "uint256",
          "name": "",
          "type": "uint256"
        }
      ],
      "stateMutability": "view",
      "type": "function"
    },
    {
      "inputs": [
        {
          "internalType": "bytes32",
          "name": "role",
          "type": "bytes32"
        },
        {
          "internalType": "address",
          "name": "account",
          "type": "address"
        }
      ],
      "name": "grantRole",
      "outputs": [],
      "stateMutability": "nonpayable",
      "type": "function"
    },
    {
      "inputs": [
        {
          "internalType": "bytes32",
          "name": "role",
          "type": "bytes32"
        },
        {
          "internalType": "address",
          "name": "account",
          "type": "address"
        }
      ],
      "name": "hasRole",
      "outputs": [
        {
          "internalType": "bool",
          "name": "",
          "type": "bool"
        }
      ],
      "stateMutability": "view",
      "type": "function"
    },
    {
      "inputs": [
        {
          "internalType": "uint256",
          "name": "",
          "type": "uint256"
        }
      ],
      "name": "inProcessingQueue",
      "outputs": [
        {
          "internalType": "bool",
          "name": "",
          "type": "bool"
        }
      ],
      "stateMutability": "view",
      "type": "function"
    },
    {
      "inputs": [
        {
          "internalType": "uint256",
          "name": "",
          "type": "uint256"
        }
      ],
      "name": "playThroughPosition",
      "outputs": [
        {
          "internalType": "uint16",
          "name": "",
          "type": "uint16"
        }
      ],
      "stateMutability": "view",
      "type": "function"
    },
    {
      "inputs": [
        {
          "internalType": "uint256",
          "name": "",
          "type": "uint256"
        },
        {
          "internalType": "uint256",
          "name": "",
          "type": "uint256"
        }
      ],
      "name": "playerSubmitted",
      "outputs": [
        {
          "internalType": "bool",
          "name": "",
          "type": "bool"
        }
      ],
      "stateMutability": "view",
      "type": "function"
    },
    {
      "inputs": [
        {
          "internalType": "uint256",
          "name": "",
          "type": "uint256"
        },
        {
          "internalType": "uint256",
          "name": "",
          "type": "uint256"
        }
      ],
      "name": "players",
      "outputs": [
        {
          "internalType": "uint256",
          "name": "",
          "type": "uint256"
        }
      ],
      "stateMutability": "view",
      "type": "function"
    },
    {
      "inputs": [
        {
          "internalType": "uint256",
          "name": "",
          "type": "uint256"
        }
      ],
      "name": "processingQueue",
      "outputs": [
        {
          "internalType": "uint256",
          "name": "",
          "type": "uint256"
        }
      ],
      "stateMutability": "view",
      "type": "function"
    },
    {
      "inputs": [
        {
          "internalType": "uint256",
          "name": "",
          "type": "uint256"
        }
      ],
      "name": "queueID",
      "outputs": [
        {
          "internalType": "uint256",
          "name": "",
          "type": "uint256"
        }
      ],
      "stateMutability": "view",
      "type": "function"
    },
    {
      "inputs": [
        {
          "internalType": "bytes32",
          "name": "role",
          "type": "bytes32"
        },
        {
          "internalType": "address",
          "name": "account",
          "type": "address"
        }
      ],
      "name": "renounceRole",
      "outputs": [],
      "stateMutability": "nonpayable",
      "type": "function"
    },
    {
      "inputs": [
        {
          "internalType": "bytes32",
          "name": "role",
          "type": "bytes32"
        },
        {
          "internalType": "address",
          "name": "account",
          "type": "address"
        }
      ],
      "name": "revokeRole",
      "outputs": [],
      "stateMutability": "nonpayable",
      "type": "function"
    },
    {
      "inputs": [
        {
          "internalType": "uint256",
          "name": "",
          "type": "uint256"
        },
        {
          "internalType": "uint256",
          "name": "",
          "type": "uint256"
        }
      ],
      "name": "submissionAction",
      "outputs": [
        {
          "internalType": "enum HexplorationQueue.Action",
          "name": "",
          "type": "uint8"
        }
      ],
      "stateMutability": "view",
      "type": "function"
    },
    {
      "inputs": [
        {
          "internalType": "uint256",
          "name": "",
          "type": "uint256"
        },
        {
          "internalType": "uint256",
          "name": "",
          "type": "uint256"
        }
      ],
      "name": "submissionLeftHand",
      "outputs": [
        {
          "internalType": "string",
          "name": "",
          "type": "string"
        }
      ],
      "stateMutability": "view",
      "type": "function"
    },
    {
      "inputs": [
        {
          "internalType": "uint256",
          "name": "",
          "type": "uint256"
        },
        {
          "internalType": "uint256",
          "name": "",
          "type": "uint256"
        },
        {
          "internalType": "uint256",
          "name": "",
          "type": "uint256"
        }
      ],
      "name": "submissionOptions",
      "outputs": [
        {
          "internalType": "string",
          "name": "",
          "type": "string"
        }
      ],
      "stateMutability": "view",
      "type": "function"
    },
    {
      "inputs": [
        {
          "internalType": "uint256",
          "name": "",
          "type": "uint256"
        },
        {
          "internalType": "uint256",
          "name": "",
          "type": "uint256"
        }
      ],
      "name": "submissionRightHand",
      "outputs": [
        {
          "internalType": "string",
          "name": "",
          "type": "string"
        }
      ],
      "stateMutability": "view",
      "type": "function"
    },
    {
      "inputs": [
        {
          "internalType": "bytes4",
          "name": "interfaceId",
          "type": "bytes4"
        }
      ],
      "name": "supportsInterface",
      "outputs": [
        {
          "internalType": "bool",
          "name": "",
          "type": "bool"
        }
      ],
      "stateMutability": "view",
      "type": "function"
    },
    {
      "inputs": [
        {
          "internalType": "uint256",
          "name": "",
          "type": "uint256"
        }
      ],
      "name": "totalPlayers",
      "outputs": [
        {
          "internalType": "uint256",
          "name": "",
          "type": "uint256"
        }
      ],
      "stateMutability": "view",
      "type": "function"
    },
    {
      "inputs": [
        {
          "internalType": "address",
          "name": "controllerAddress",
          "type": "address"
        }
      ],
      "name": "addVerifiedController",
      "outputs": [],
      "stateMutability": "nonpayable",
      "type": "function"
    },
    {
      "inputs": [
        {
          "internalType": "uint256",
          "name": "gameID",
          "type": "uint256"
        },
        {
          "internalType": "uint256",
          "name": "_totalPlayers",
          "type": "uint256"
        }
      ],
      "name": "requestGameQueue",
      "outputs": [
        {
          "internalType": "uint256",
          "name": "",
          "type": "uint256"
        }
      ],
      "stateMutability": "nonpayable",
      "type": "function"
    },
    {
      "inputs": [
        {
          "internalType": "uint256",
          "name": "_queueID",
          "type": "uint256"
        }
      ],
      "name": "startGame",
      "outputs": [],
      "stateMutability": "nonpayable",
      "type": "function"
    },
    {
      "inputs": [
        {
          "internalType": "uint256",
          "name": "playerID",
          "type": "uint256"
        },
        {
          "internalType": "uint8",
          "name": "action",
          "type": "uint8"
        },
        {
          "internalType": "string[]",
          "name": "options",
          "type": "string[]"
        },
        {
          "internalType": "string",
          "name": "leftHand",
          "type": "string"
        },
        {
          "internalType": "string",
          "name": "rightHand",
          "type": "string"
        },
        {
          "internalType": "uint256",
          "name": "_queueID",
          "type": "uint256"
        }
      ],
      "name": "sumbitActionForPlayer",
      "outputs": [],
      "stateMutability": "nonpayable",
      "type": "function"
    },
    {
      "inputs": [
        {
          "internalType": "uint256",
          "name": "_queueID",
          "type": "uint256"
        }
      ],
      "name": "requestProcessActions",
      "outputs": [],
      "stateMutability": "nonpayable",
      "type": "function"
    },
    {
      "inputs": [
        {
          "internalType": "uint256",
          "name": "_queueID",
          "type": "uint256"
        }
      ],
      "name": "getAllPlayers",
      "outputs": [
        {
          "internalType": "uint256[]",
          "name": "",
          "type": "uint256[]"
        }
      ],
      "stateMutability": "view",
      "type": "function"
    },
    {
      "inputs": [
        {
          "internalType": "uint256",
          "name": "_queueID",
          "type": "uint256"
        },
        {
          "internalType": "uint256",
          "name": "_playerID",
          "type": "uint256"
        }
      ],
      "name": "getSubmissionOptions",
      "outputs": [
        {
          "internalType": "string[]",
          "name": "",
          "type": "string[]"
        }
      ],
      "stateMutability": "view",
      "type": "function"
    },
    {
      "inputs": [
        {
          "internalType": "enum HexplorationQueue.ProcessingPhase",
          "name": "phase",
          "type": "uint8"
        },
        {
          "internalType": "uint256",
          "name": "_queueID",
          "type": "uint256"
        }
      ],
      "name": "setPhase",
      "outputs": [],
      "stateMutability": "nonpayable",
      "type": "function"
    },
    {
      "inputs": [
        {
          "internalType": "uint256",
          "name": "randomNumber",
          "type": "uint256"
        },
        {
          "internalType": "uint256",
          "name": "_queueID",
          "type": "uint256"
        }
      ],
      "name": "setRandomNumber",
      "outputs": [],
      "stateMutability": "nonpayable",
      "type": "function"
    },
    {
      "inputs": [
        {
          "internalType": "uint256",
          "name": "_queueID",
          "type": "uint256"
        }
      ],
      "name": "requestNewQueueID",
      "outputs": [],
      "stateMutability": "nonpayable",
      "type": "function"
    },
    {
      "inputs": [
        {
          "internalType": "uint256[]",
          "name": "intUpdates",
          "type": "uint256[]"
        },
        {
          "internalType": "string[]",
          "name": "stringUpdates",
          "type": "string[]"
        }
      ],
      "name": "postUpdates",
      "outputs": [],
      "stateMutability": "nonpayable",
      "type": "function"
    },
    {
      "inputs": [
        {
          "internalType": "uint256",
          "name": "_queueID",
          "type": "uint256"
        },
        {
          "internalType": "bool",
          "name": "gameComplete",
          "type": "bool"
        }
      ],
      "name": "finishProcessing",
      "outputs": [],
      "stateMutability": "nonpayable",
      "type": "function"
    }
  ],
  "bytecode": "0x60806040523480156200001157600080fd5b50604051620020d2380380620020d283398101604081905262000034916200027d565b6200005c60006200004d640100000000620000b2810204565b640100000000620000b6810204565b620000917f0c2c7e957bdf811d5a896b04e816b9c382dfb980c93b21b0288b75c85d598acd82640100000000620000b6810204565b620000ab600264010000000062000dcd620000cf82021704565b50620002af565b3390565b620000cb8282640100000000620000d8810204565b5050565b80546001019055565b620000f2828264010000000062000dd66200011f82021704565b60008281526001602052604090206200011a908264010000000062000e5a620001bb82021704565b505050565b620001348282640100000000620001e4810204565b620000cb57600082815260208181526040808320600160a060020a03851684529091529020805460ff1916600117905562000177640100000000620000b2810204565b600160a060020a031681600160a060020a0316837f2f8788117e7eff1d82e926ec794901d17c78024a50270940304540a733656f0d60405160405180910390a45050565b6000620001db83600160a060020a0384166401000000006200020d810204565b90505b92915050565b600091825260208281526040808420600160a060020a0393909316845291905290205460ff1690565b600062000224838364010000000062000265810204565b6200025c57508154600181810184556000848152602080822090930184905584548482528286019093526040902091909155620001de565b506000620001de565b60009081526001919091016020526040902054151590565b6000602082840312156200029057600080fd5b8151600160a060020a0381168114620002a857600080fd5b9392505050565b611e1380620002bf6000396000f3fe608060405234801561001057600080fd5b5060043610610214576000357c010000000000000000000000000000000000000000000000000000000090048063998f1b801161013d578063b1fb6405116100d5578063d809371f11610099578063d809371f14610586578063e2f315c114610599578063e5ed1d59146105bd578063e73ed37f146105d0578063fd82e21f146105fe57600080fd5b8063b1fb6405146104fd578063ca15c8731461052d578063cddbe72914610540578063d4f5b15214610560578063d547741f1461057357600080fd5b8063998f1b80146104265780639b8e6819146104395780639bd78d2b1461044c5780639f6bc61d1461046f578063a217fddf14610482578063a2dc58601461048a578063ac01b83d146104aa578063ae6a7056146104ca578063af7afe56146104dd57600080fd5b80632f2ff15d116101b05780632f2ff15d1461032e57806336568abe146103415780635da4fabc146103545780636b775e5c146103675780637f0415911461037a578063861814e2146103b55780638e6e1d89146103d55780639010d07c146103e857806391d148541461041357600080fd5b806301ffc9a71461021957806304ac8fee1461024157806306fb5527146102565780630c6ea531146102775780631826d842146102ae5780631b341b3e146102c15780631c834a7f146102e1578063248a9ca3146102f657806328d6b4c014610319575b600080fd5b61022c6102273660046116a6565b610611565b60405190151581526020015b60405180910390f35b61025461024f3660046116d0565b610655565b005b610269610264366004611700565b6106a2565b604051908152602001610238565b61029b610285366004611722565b60046020526000908152604090205461ffff1681565b60405161ffff9091168152602001610238565b6102546102bc3660046118a6565b6106ce565b6102d46102cf36600461195c565b6106eb565b60405161023891906119e4565b610269600080516020611dbe83398151915281565b610269610304366004611722565b60009081526020819052604090206001015490565b610269600080516020611d9e83398151915281565b61025461033c366004611a13565b6107b1565b61025461034f366004611a13565b6107d6565b610254610362366004611700565b61086a565b610254610375366004611722565b610894565b6103a8610388366004611700565b600c60209081526000928352604080842090915290825290205460ff1681565b6040516102389190611a58565b6102696103c3366004611722565b60066020526000908152604090205481565b6102546103e3366004611a72565b6108b5565b6103fb6103f6366004611700565b6108d7565b604051600160a060020a039091168152602001610238565b61022c610421366004611a13565b6108f6565b610269610434366004611700565b61091f565b6102d4610447366004611700565b610950565b61022c61045a366004611722565b60076020526000908152604090205460ff1681565b61026961047d366004611722565b610974565b610269600081565b61049d610498366004611700565b610995565b6040516102389190611aa7565b6104bd6104b8366004611722565b610a83565b6040516102389190611b08565b6102546104d8366004611b4c565b610ae5565b6102696104eb366004611722565b600b6020526000908152604090205481565b61052061050b366004611722565b60086020526000908152604090205460ff1681565b6040516102389190611bff565b61026961053b366004611722565b610cc1565b61026961054e366004611722565b60096020526000908152604090205481565b61025461056e366004611c13565b610cd8565b610254610581366004611a13565b610cfb565b610254610594366004611722565b610d20565b61029b6105a7366004611722565b60056020526000908152604090205461ffff1681565b6102546105cb366004611722565b610d75565b61022c6105de366004611700565b601060209081526000928352604080842090915290825290205460ff1681565b6102d461060c366004611700565b610da9565b6000600160e060020a031982167f5a05180f00000000000000000000000000000000000000000000000000000000148061064f575061064f82610e6f565b92915050565b600080516020611d9e83398151915261066d81610ed6565b6000828152600860205260409020805484919060ff1916600183600581111561069857610698611a3f565b0217905550505050565b6000600080516020611dbe8339815191526106bc81610ed6565b6106c68484610ee3565b949350505050565b600080516020611d9e8339815191526106e681610ed6565b505050565b600d602052826000526040600020602052816000526040600020818154811061071357600080fd5b906000526020600020016000925092505050805461073090611c2e565b80601f016020809104026020016040519081016040528092919081815260200182805461075c90611c2e565b80156107a95780601f1061077e576101008083540402835291602001916107a9565b820191906000526020600020905b81548152906001019060200180831161078c57829003601f168201915b505050505081565b6000828152602081905260409020600101546107cc81610ed6565b6106e68383610f8b565b600160a060020a038116331461085c5760405160e560020a62461bcd02815260206004820152602f60248201527f416363657373436f6e74726f6c3a2063616e206f6e6c792072656e6f756e636560448201527f20726f6c657320666f722073656c66000000000000000000000000000000000060648201526084015b60405180910390fd5b6108668282610fad565b5050565b600080516020611d9e83398151915261088281610ed6565b50600090815260116020526040902055565b600080516020611dbe8339815191526108ac81610ed6565b61086682610fcf565b600080516020611d9e8339815191526108cd81610ed6565b6106e68383611078565b60008281526001602052604081206108ef90836110f8565b9392505050565b600091825260208281526040808420600160a060020a0393909316845291905290205460ff1690565b600a602052816000526040600020818154811061093b57600080fd5b90600052602060002001600091509150505481565b600f6020908152600092835260408084209091529082529020805461073090611c2e565b6003818154811061098457600080fd5b600091825260209091200154905081565b6000828152600d602090815260408083208484528252808320805482518185028101850190935280835260609492939192909184015b82821015610a775783829060005260206000200180546109ea90611c2e565b80601f0160208091040260200160405190810160405280929190818152602001828054610a1690611c2e565b8015610a635780601f10610a3857610100808354040283529160200191610a63565b820191906000526020600020905b815481529060010190602001808311610a4657829003601f168201915b5050505050815260200190600101906109cb565b50505050905092915050565b6000818152600a6020908152604091829020805483518184028101840190945280845260609392830182828015610ad957602002820191906000526020600020905b815481526020019060010190808311610ac5575b50505050509050919050565b600080516020611dbe833981519152610afd81610ed6565b600160008381526008602052604090205460ff166005811115610b2257610b22611a3f565b14610b725760405160e560020a62461bcd02815260206004820152601460248201527f4e6f74207375626d697373696f6e2070686173650000000000000000000000006044820152606401610853565b60008281526010602090815260408083208a845290915290205460ff16610cb8578560ff166006811115610ba857610ba8611a3f565b6000838152600c602090815260408083208b84529091529020805460ff19166001836006811115610bdb57610bdb611a3f565b02179055506000828152600d602090815260408083208a845282529091208651610c079288019061155d565b506000828152600e602090815260408083208a845282529091208551610c2f928701906115ba565b506000828152600f602090815260408083208a845282529091208451610c57928601906115ba565b506000828152600a602081815260408084208054600181810183558287528487209091018d9055878652601084528286208d87528452828620805460ff19169091179055868552600b8352932054919052905410610cb857610cb882610fcf565b50505050505050565b600081815260016020526040812061064f90611104565b6000610ce381610ed6565b610866600080516020611dbe833981519152836107b1565b600082815260208190526040902060010154610d1681610ed6565b6106e68383610fad565b600080516020611d9e833981519152610d3881610ed6565b600082815260096020908152604080832054600b90925290912054610d5d8282610ee3565b60009283526006602052604090922091909155505050565b600080516020611dbe833981519152610d8d81610ed6565b506000908152600860205260409020805460ff19166001179055565b600e6020908152600092835260408084209091529082529020805461073090611c2e565b80546001019055565b610de082826108f6565b61086657600082815260208181526040808320600160a060020a03851684529091529020805460ff19166001179055610e163390565b600160a060020a031681600160a060020a0316837f2f8788117e7eff1d82e926ec794901d17c78024a50270940304540a733656f0d60405160405180910390a45050565b60006108ef83600160a060020a03841661110e565b6000600160e060020a031982167f7965db0b00000000000000000000000000000000000000000000000000000000148061064f57507f01ffc9a700000000000000000000000000000000000000000000000000000000600160e060020a031983161461064f565b610ee0813361115d565b50565b60008281526006602052604081205415610f425760405160e560020a62461bcd02815260206004820152601160248201527f717565756520616c7265616479207365740000000000000000000000000000006044820152606401610853565b6000610f4d60025490565b600081815260096020908152604080832088905587835260068252808320849055838352600b909152902084905590506108ef600280546001019055565b610f958282610dd6565b60008281526001602052604090206106e69082610e5a565b610fb782826111c4565b60008281526001602052604090206106e69082611229565b60008181526007602052604090205460ff161580156110105750600160008281526008602052604090205460ff16600581111561100e5761100e611a3f565b145b15610ee0576003805460018082019092557fc2575a0e9e593c00f959f8c92f12db2869c3395a3b0502d05e2516446f71f85b018290556000918252600760209081526040808420805460ff199081169094179055600890915290912080549091166002179055565b60008281526009602090815260408083205460088352818420805460ff191660041790558084526006909252822091909155816106e6576000838152600b6020526040812054906110c98383610ee3565b600093845260066020908152604080862083905591855260089052909220805460ff1916600117905550505050565b60006108ef838361123e565b600061064f825490565b60008181526001830160205260408120546111555750815460018181018455600084815260208082209093018490558454848252828601909352604090209190915561064f565b50600061064f565b61116782826108f6565b6108665761117f81600160a060020a03166014611268565b61118a836020611268565b60405160200161119b929190611c6c565b60408051601f198184030181529082905260e560020a62461bcd028252610853916004016119e4565b6111ce82826108f6565b1561086657600082815260208181526040808320600160a060020a0385168085529252808320805460ff1916905551339285917ff6391f5c32d9c69d2a47ea670b442974b53935d1edc7fd64eb21e047a839171b9190a45050565b60006108ef83600160a060020a03841661146a565b600082600001828154811061125557611255611ced565b9060005260206000200154905092915050565b60606000611277836002611d1f565b611282906002611d3e565b67ffffffffffffffff81111561129a5761129a61173b565b6040519080825280601f01601f1916602001820160405280156112c4576020820181803683370190505b5090507f3000000000000000000000000000000000000000000000000000000000000000816000815181106112fb576112fb611ced565b6020010190600160f860020a031916908160001a9053507f78000000000000000000000000000000000000000000000000000000000000008160018151811061134657611346611ced565b6020010190600160f860020a031916908160001a905350600061136a846002611d1f565b611375906001611d3e565b90505b6001811115611418577f303132333435363738396162636465660000000000000000000000000000000085600f16601081106113b6576113b6611ced565b1a7f0100000000000000000000000000000000000000000000000000000000000000028282815181106113eb576113eb611ced565b6020010190600160f860020a031916908160001a90535060109094049361141181611d56565b9050611378565b5083156108ef5760405160e560020a62461bcd02815260206004820181905260248201527f537472696e67733a20686578206c656e67746820696e73756666696369656e746044820152606401610853565b6000818152600183016020526040812054801561155357600061148e600183611d6d565b85549091506000906114a290600190611d6d565b90508181146115075760008660000182815481106114c2576114c2611ced565b90600052602060002001549050808760000184815481106114e5576114e5611ced565b6000918252602080832090910192909255918252600188019052604090208390555b855486908061151857611518611d84565b60019003818190600052602060002001600090559055856001016000868152602001908152602001600020600090556001935050505061064f565b600091505061064f565b8280548282559060005260206000209081019282156115aa579160200282015b828111156115aa578251805161159a9184916020909101906115ba565b509160200191906001019061157d565b506115b692915061163a565b5090565b8280546115c690611c2e565b90600052602060002090601f0160209004810192826115e8576000855561162e565b82601f1061160157805160ff191683800117855561162e565b8280016001018555821561162e579182015b8281111561162e578251825591602001919060010190611613565b506115b6929150611657565b808211156115b657600061164e828261166c565b5060010161163a565b5b808211156115b65760008155600101611658565b50805461167890611c2e565b6000825580601f10611688575050565b601f016020900490600052602060002090810190610ee09190611657565b6000602082840312156116b857600080fd5b8135600160e060020a0319811681146108ef57600080fd5b600080604083850312156116e357600080fd5b8235600681106116f257600080fd5b946020939093013593505050565b6000806040838503121561171357600080fd5b50508035926020909101359150565b60006020828403121561173457600080fd5b5035919050565b60e060020a634e487b7102600052604160045260246000fd5b604051601f8201601f1916810167ffffffffffffffff8111828210171561177d5761177d61173b565b604052919050565b600067ffffffffffffffff82111561179f5761179f61173b565b5060209081020190565b600082601f8301126117ba57600080fd5b813567ffffffffffffffff8111156117d4576117d461173b565b6117e7601f8201601f1916602001611754565b8181528460208386010111156117fc57600080fd5b816020850160208301376000918101602001919091529392505050565b600082601f83011261182a57600080fd5b8135602061183f61183a83611785565b611754565b8281529181028401810191818101908684111561185b57600080fd5b8286015b8481101561189b57803567ffffffffffffffff81111561187f5760008081fd5b61188d8986838b01016117a9565b84525091830191830161185f565b509695505050505050565b600080604083850312156118b957600080fd5b823567ffffffffffffffff808211156118d157600080fd5b818501915085601f8301126118e557600080fd5b813560206118f561183a83611785565b8281529181028401810191818101908984111561191157600080fd5b948201945b8386101561192f57853582529482019490820190611916565b9650508601359250508082111561194557600080fd5b5061195285828601611819565b9150509250929050565b60008060006060848603121561197157600080fd5b505081359360208301359350604090920135919050565b60005b838110156119a357818101518382015260200161198b565b838111156119b2576000848401525b50505050565b600081518084526119d0816020860160208601611988565b601f01601f19169290920160200192915050565b6020815260006108ef60208301846119b8565b8035600160a060020a0381168114611a0e57600080fd5b919050565b60008060408385031215611a2657600080fd5b82359150611a36602084016119f7565b90509250929050565b60e060020a634e487b7102600052602160045260246000fd5b6020810160078310611a6c57611a6c611a3f565b91905290565b60008060408385031215611a8557600080fd5b8235915060208301358015158114611a9c57600080fd5b809150509250929050565b600060208083018184528085518083526040860191506040848202870101925083870160005b82811015611afb57603f19888603018452611ae98583516119b8565b94509285019290850190600101611acd565b5092979650505050505050565b6020808252825182820181905260009190848201906040850190845b81811015611b4057835183529284019291840191600101611b24565b50909695505050505050565b60008060008060008060c08789031215611b6557600080fd5b86359550602087013560ff81168114611b7d57600080fd5b9450604087013567ffffffffffffffff80821115611b9a57600080fd5b611ba68a838b01611819565b95506060890135915080821115611bbc57600080fd5b611bc88a838b016117a9565b94506080890135915080821115611bde57600080fd5b50611beb89828a016117a9565b92505060a087013590509295509295509295565b6020810160068310611a6c57611a6c611a3f565b600060208284031215611c2557600080fd5b6108ef826119f7565b600281046001821680611c4257607f821691505b60208210811415611c665760e060020a634e487b7102600052602260045260246000fd5b50919050565b7f416363657373436f6e74726f6c3a206163636f756e7420000000000000000000815260008351611ca4816017850160208801611988565b7f206973206d697373696e6720726f6c65200000000000000000000000000000006017918401918201528351611ce1816028840160208801611988565b01602801949350505050565b60e060020a634e487b7102600052603260045260246000fd5b60e060020a634e487b7102600052601160045260246000fd5b6000816000190483118215151615611d3957611d39611d06565b500290565b60008219821115611d5157611d51611d06565b500190565b600081611d6557611d65611d06565b506000190190565b600082821015611d7f57611d7f611d06565b500390565b60e060020a634e487b7102600052603160045260246000fdfe0c2c7e957bdf811d5a896b04e816b9c382dfb980c93b21b0288b75c85d598acd80e2196015fc06a9d891759f8e4f51eb314ef5e9ea068528a8ed0063b87759f0a26469706673582212206c1fb2f6d4d99d9aaf9428f48566bcf361582734434c0c6822dc1a71825c4f4064736f6c634300080b0033",
  "immutableReferences": {},
  "source": "// SPDX-License-Identifier: GPL-3.0\npragma solidity >=0.7.0 <0.9.0;\n\nimport \"@openzeppelin/contracts/access/AccessControlEnumerable.sol\";\nimport \"@openzeppelin/contracts/utils/Counters.sol\";\nimport \"./HexplorationStateUpdate.sol\";\n\ncontract HexplorationQueue is AccessControlEnumerable {\n    using Counters for Counters.Counter;\n    Counters.Counter internal QUEUE_ID;\n\n    enum ProcessingPhase {\n        Start,\n        Submission,\n        Processing,\n        PlayThrough,\n        Processed,\n        Closed\n    }\n    enum Action {\n        Idle,\n        Move,\n        SetupCamp,\n        BreakDownCamp,\n        Dig,\n        Rest,\n        Help\n    }\n\n    bytes32 public constant VERIFIED_CONTROLLER_ROLE =\n        keccak256(\"VERIFIED_CONTROLLER_ROLE\");\n    bytes32 public constant GAMEPLAY_ROLE = keccak256(\"GAMEPLAY_ROLE\");\n\n    // Array of Queue IDs to be processed.\n    uint256[] public processingQueue;\n\n    // do we need these 2?\n    mapping(uint256 => uint16) public currentQueuePosition; // ?? increases with each player in queue, then back to 0\n    mapping(uint256 => uint16) public playThroughPosition; // ?? in case we need to batch this too... hopefully not.\n\n    // mapping from game ID\n    mapping(uint256 => uint256) public queueID; // mapping from game ID to it's queue, updates to 0 when finished\n\n    // mappings from queue index\n    mapping(uint256 => bool) public inProcessingQueue; // game queue is in processing queue\n    mapping(uint256 => ProcessingPhase) public currentPhase; // processingPhase\n    mapping(uint256 => uint256) public game; // mapping from queue ID to it's game ID\n    mapping(uint256 => uint256[]) public players; // all players with moves to process\n    mapping(uint256 => uint256) public totalPlayers; // total # of players who will be submitting\n\n    // mappings from queue index => player id\n    mapping(uint256 => mapping(uint256 => Action)) public submissionAction;\n    mapping(uint256 => mapping(uint256 => string[])) public submissionOptions;\n    mapping(uint256 => mapping(uint256 => string)) public submissionLeftHand;\n    mapping(uint256 => mapping(uint256 => string)) public submissionRightHand;\n    mapping(uint256 => mapping(uint256 => bool)) public playerSubmitted;\n\n    mapping(uint256 => uint256) randomness; // randomness delivered here at start of each phase processing\n\n    ///////  VRF can kick off processing phase\n\n    constructor(address gameplayAddress) {\n        _setupRole(DEFAULT_ADMIN_ROLE, _msgSender());\n        _setupRole(GAMEPLAY_ROLE, gameplayAddress);\n        QUEUE_ID.increment(); // start at 1\n    }\n\n    // Can set multiple VCs, one for manual pushing, one for keeper\n    function addVerifiedController(address controllerAddress)\n        public\n        onlyRole(DEFAULT_ADMIN_ROLE)\n    {\n        grantRole(VERIFIED_CONTROLLER_ROLE, controllerAddress);\n    }\n\n    // pass total # players making submissions\n    // total can be less than actual totalPlayers in game\n    function requestGameQueue(uint256 gameID, uint256 _totalPlayers)\n        external\n        onlyRole(VERIFIED_CONTROLLER_ROLE)\n        returns (uint256)\n    {\n        return _requestGameQueue(gameID, _totalPlayers);\n    }\n\n    // Sent from controller\n\n    function startGame(uint256 _queueID)\n        public\n        onlyRole(VERIFIED_CONTROLLER_ROLE)\n    {\n        currentPhase[_queueID] = ProcessingPhase.Submission;\n    }\n\n    function sumbitActionForPlayer(\n        uint256 playerID,\n        uint8 action,\n        string[] memory options,\n        string memory leftHand,\n        string memory rightHand,\n        uint256 _queueID\n    ) public onlyRole(VERIFIED_CONTROLLER_ROLE) {\n        require(\n            currentPhase[_queueID] == ProcessingPhase.Submission,\n            \"Not submission phase\"\n        );\n        if (!playerSubmitted[_queueID][playerID]) {\n            submissionAction[_queueID][playerID] = Action(action);\n            submissionOptions[_queueID][playerID] = options;\n            submissionLeftHand[_queueID][playerID] = leftHand;\n            submissionRightHand[_queueID][playerID] = rightHand;\n\n            players[_queueID].push(playerID);\n            playerSubmitted[_queueID][playerID] = true;\n            // automatically add to queue if last player to submit move\n            if (players[_queueID].length >= totalPlayers[_queueID]) {\n                _processAllActions(_queueID);\n            }\n        }\n    }\n\n    // Will get processed once keeper is available\n    // and previous game queues have been processed\n    function requestProcessActions(uint256 _queueID)\n        public\n        onlyRole(VERIFIED_CONTROLLER_ROLE)\n    {\n        _processAllActions(_queueID);\n    }\n\n    function getAllPlayers(uint256 _queueID)\n        public\n        view\n        returns (uint256[] memory)\n    {\n        return players[_queueID];\n    }\n\n    function getSubmissionOptions(uint256 _queueID, uint256 _playerID)\n        public\n        view\n        returns (string[] memory)\n    {\n        return submissionOptions[_queueID][_playerID];\n    }\n\n    // Gameplay interactions\n    function setPhase(ProcessingPhase phase, uint256 _queueID)\n        external\n        onlyRole(GAMEPLAY_ROLE)\n    {\n        currentPhase[_queueID] = phase;\n    }\n\n    function setRandomNumber(uint256 randomNumber, uint256 _queueID)\n        external\n        onlyRole(GAMEPLAY_ROLE)\n    {\n        randomness[_queueID] = randomNumber;\n    }\n\n    function requestNewQueueID(uint256 _queueID)\n        external\n        onlyRole(GAMEPLAY_ROLE)\n    {\n        uint256 g = game[_queueID];\n        uint256 tp = totalPlayers[_queueID];\n        queueID[g] = _requestGameQueue(g, tp);\n    }\n\n    function postUpdates(\n        uint256[] memory intUpdates,\n        string[] memory stringUpdates\n    ) public onlyRole(GAMEPLAY_ROLE) {\n        // go through values and post everything, transfer all the tokens, and pray\n        // use gamestate update contract to post everything\n    }\n\n    function finishProcessing(uint256 _queueID, bool gameComplete)\n        public\n        onlyRole(GAMEPLAY_ROLE)\n    {\n        _setProcessingComplete(_queueID, gameComplete);\n    }\n\n    function _setProcessingComplete(uint256 _queueID, bool gameComplete)\n        internal\n    {\n        uint256 g = game[_queueID];\n        currentPhase[_queueID] = ProcessingPhase.Processed;\n        queueID[g] = 0;\n        if (!gameComplete) {\n            // get new queue ID for next set of player actions\n            uint256 tp = totalPlayers[_queueID];\n            uint256 newQueueID = _requestGameQueue(g, tp);\n            queueID[g] = newQueueID;\n            currentPhase[newQueueID] = ProcessingPhase.Submission;\n        }\n    }\n\n    // Internal\n    function _processAllActions(uint256 _queueID) internal {\n        // Can only add unique unprocessed game queues into processing queue\n        if (\n            !inProcessingQueue[_queueID] &&\n            currentPhase[_queueID] == ProcessingPhase.Submission\n        ) {\n            processingQueue.push(_queueID);\n            inProcessingQueue[_queueID] = true;\n            currentPhase[_queueID] = ProcessingPhase.Processing;\n        }\n    }\n\n    function _requestGameQueue(uint256 gameID, uint256 _totalPlayers)\n        internal\n        returns (uint256)\n    {\n        /*\n    mapping(uint256 => uint256) public queueID; // mapping from game ID to it's queue, updates to 0 when finished\n    mapping(uint256 => uint256) public game; // mapping from queue ID to it's game ID\n    mapping(uint256 => uint256[]) public players; // all players with moves to process\n    mapping(uint256 => uint16) public totalPlayers;\n        */\n        require(queueID[gameID] == 0, \"queue already set\");\n        uint256 newQueueID = QUEUE_ID.current();\n        game[newQueueID] = gameID;\n        queueID[gameID] = newQueueID;\n        totalPlayers[newQueueID] = _totalPlayers;\n        QUEUE_ID.increment();\n        return newQueueID;\n    }\n}\n",
  "sourcePath": "/Users/maxmeier/Developer/Lucky Machines/hexploration/contracts/HexplorationQueue.sol",
  "compiler": {
    "name": "solc",
    "version": "0.8.11+commit.d7f03943.Emscripten.clang"
  },
  "schemaVersion": "3.4.4",
  "updatedAt": "2022-05-23T15:29:42.523Z",
  "networkType": "ethereum",
  "devdoc": {
    "kind": "dev",
    "methods": {
      "getRoleAdmin(bytes32)": {
        "details": "Returns the admin role that controls `role`. See {grantRole} and {revokeRole}. To change a role's admin, use {_setRoleAdmin}."
      },
      "getRoleMember(bytes32,uint256)": {
        "details": "Returns one of the accounts that have `role`. `index` must be a value between 0 and {getRoleMemberCount}, non-inclusive. Role bearers are not sorted in any particular way, and their ordering may change at any point. WARNING: When using {getRoleMember} and {getRoleMemberCount}, make sure you perform all queries on the same block. See the following https://forum.openzeppelin.com/t/iterating-over-elements-on-enumerableset-in-openzeppelin-contracts/2296[forum post] for more information."
      },
      "getRoleMemberCount(bytes32)": {
        "details": "Returns the number of accounts that have `role`. Can be used together with {getRoleMember} to enumerate all bearers of a role."
      },
      "grantRole(bytes32,address)": {
        "details": "Grants `role` to `account`. If `account` had not been already granted `role`, emits a {RoleGranted} event. Requirements: - the caller must have ``role``'s admin role."
      },
      "hasRole(bytes32,address)": {
        "details": "Returns `true` if `account` has been granted `role`."
      },
      "renounceRole(bytes32,address)": {
        "details": "Revokes `role` from the calling account. Roles are often managed via {grantRole} and {revokeRole}: this function's purpose is to provide a mechanism for accounts to lose their privileges if they are compromised (such as when a trusted device is misplaced). If the calling account had been revoked `role`, emits a {RoleRevoked} event. Requirements: - the caller must be `account`."
      },
      "revokeRole(bytes32,address)": {
        "details": "Revokes `role` from `account`. If `account` had been granted `role`, emits a {RoleRevoked} event. Requirements: - the caller must have ``role``'s admin role."
      },
      "supportsInterface(bytes4)": {
        "details": "See {IERC165-supportsInterface}."
      }
    },
    "version": 1
  },
  "userdoc": {
    "kind": "user",
    "methods": {},
    "version": 1
  }
}