{
  "contractName": "HexplorationBoard",
  "abi": [
    {
      "inputs": [
        {
          "internalType": "address",
          "name": "adminAddress",
          "type": "address"
        },
        {
          "internalType": "uint256",
          "name": "gridWidth",
          "type": "uint256"
        },
        {
          "internalType": "uint256",
          "name": "gridHeight",
          "type": "uint256"
        },
        {
          "internalType": "address",
          "name": "zoneAddress",
          "type": "address"
        }
      ],
      "stateMutability": "nonpayable",
      "type": "constructor"
    },
    {
      "anonymous": false,
      "inputs": [
        {
          "indexed": true,
          "internalType": "bytes32",
          "name": "role",
          "type": "bytes32"
        },
        {
          "indexed": true,
          "internalType": "bytes32",
          "name": "previousAdminRole",
          "type": "bytes32"
        },
        {
          "indexed": true,
          "internalType": "bytes32",
          "name": "newAdminRole",
          "type": "bytes32"
        }
      ],
      "name": "RoleAdminChanged",
      "type": "event"
    },
    {
      "anonymous": false,
      "inputs": [
        {
          "indexed": true,
          "internalType": "bytes32",
          "name": "role",
          "type": "bytes32"
        },
        {
          "indexed": true,
          "internalType": "address",
          "name": "account",
          "type": "address"
        },
        {
          "indexed": true,
          "internalType": "address",
          "name": "sender",
          "type": "address"
        }
      ],
      "name": "RoleGranted",
      "type": "event"
    },
    {
      "anonymous": false,
      "inputs": [
        {
          "indexed": true,
          "internalType": "bytes32",
          "name": "role",
          "type": "bytes32"
        },
        {
          "indexed": true,
          "internalType": "address",
          "name": "account",
          "type": "address"
        },
        {
          "indexed": true,
          "internalType": "address",
          "name": "sender",
          "type": "address"
        }
      ],
      "name": "RoleRevoked",
      "type": "event"
    },
    {
      "inputs": [],
      "name": "DEFAULT_ADMIN_ROLE",
      "outputs": [
        {
          "internalType": "bytes32",
          "name": "",
          "type": "bytes32"
        }
      ],
      "stateMutability": "view",
      "type": "function"
    },
    {
      "inputs": [],
      "name": "FACTORY_ROLE",
      "outputs": [
        {
          "internalType": "bytes32",
          "name": "",
          "type": "bytes32"
        }
      ],
      "stateMutability": "view",
      "type": "function"
    },
    {
      "inputs": [],
      "name": "GAME_MASTER_ROLE",
      "outputs": [
        {
          "internalType": "bytes32",
          "name": "",
          "type": "bytes32"
        }
      ],
      "stateMutability": "view",
      "type": "function"
    },
    {
      "inputs": [],
      "name": "MAX_BATCH_SIZE",
      "outputs": [
        {
          "internalType": "uint256",
          "name": "",
          "type": "uint256"
        }
      ],
      "stateMutability": "view",
      "type": "function"
    },
    {
      "inputs": [],
      "name": "PLAY_ZONE_ROLE",
      "outputs": [
        {
          "internalType": "bytes32",
          "name": "",
          "type": "bytes32"
        }
      ],
      "stateMutability": "view",
      "type": "function"
    },
    {
      "inputs": [],
      "name": "VERIFIED_CONTROLLER_ROLE",
      "outputs": [
        {
          "internalType": "bytes32",
          "name": "",
          "type": "bytes32"
        }
      ],
      "stateMutability": "view",
      "type": "function"
    },
    {
      "inputs": [
        {
          "internalType": "uint256",
          "name": "transitID",
          "type": "uint256"
        }
      ],
      "name": "_progressTransit",
      "outputs": [],
      "stateMutability": "nonpayable",
      "type": "function"
    },
    {
      "inputs": [
        {
          "internalType": "address",
          "name": "factoryAddress",
          "type": "address"
        }
      ],
      "name": "addFactory",
      "outputs": [],
      "stateMutability": "nonpayable",
      "type": "function"
    },
    {
      "inputs": [
        {
          "internalType": "address",
          "name": "keeperAddress",
          "type": "address"
        }
      ],
      "name": "addKeeper",
      "outputs": [],
      "stateMutability": "nonpayable",
      "type": "function"
    },
    {
      "inputs": [
        {
          "internalType": "address",
          "name": "vcAddress",
          "type": "address"
        }
      ],
      "name": "addVerifiedController",
      "outputs": [],
      "stateMutability": "nonpayable",
      "type": "function"
    },
    {
      "inputs": [
        {
          "internalType": "uint256",
          "name": "gameID",
          "type": "uint256"
        },
        {
          "internalType": "string[2][]",
          "name": "connections",
          "type": "string[2][]"
        }
      ],
      "name": "addZoneConnections",
      "outputs": [],
      "stateMutability": "nonpayable",
      "type": "function"
    },
    {
      "inputs": [
        {
          "internalType": "address[]",
          "name": "playZoneAddresses",
          "type": "address[]"
        },
        {
          "internalType": "string[]",
          "name": "zoneAliases",
          "type": "string[]"
        },
        {
          "internalType": "uint256",
          "name": "gameID",
          "type": "uint256"
        }
      ],
      "name": "addZones",
      "outputs": [],
      "stateMutability": "nonpayable",
      "type": "function"
    },
    {
      "inputs": [],
      "name": "cleanQueue",
      "outputs": [],
      "stateMutability": "nonpayable",
      "type": "function"
    },
    {
      "inputs": [
        {
          "internalType": "address",
          "name": "_playerRegistry",
          "type": "address"
        },
        {
          "internalType": "address",
          "name": "_gameRegistry",
          "type": "address"
        }
      ],
      "name": "createGame",
      "outputs": [
        {
          "internalType": "uint256",
          "name": "gameID",
          "type": "uint256"
        }
      ],
      "stateMutability": "nonpayable",
      "type": "function"
    },
    {
      "inputs": [
        {
          "internalType": "address",
          "name": "_playerRegistry",
          "type": "address"
        },
        {
          "internalType": "address",
          "name": "_gameRegistry",
          "type": "address"
        },
        {
          "internalType": "address[]",
          "name": "playZoneAddresses",
          "type": "address[]"
        },
        {
          "internalType": "string[]",
          "name": "zoneAliases",
          "type": "string[]"
        }
      ],
      "name": "createGame",
      "outputs": [
        {
          "internalType": "uint256",
          "name": "gameID",
          "type": "uint256"
        }
      ],
      "stateMutability": "nonpayable",
      "type": "function"
    },
    {
      "inputs": [],
      "name": "createGrid",
      "outputs": [],
      "stateMutability": "nonpayable",
      "type": "function"
    },
    {
      "inputs": [
        {
          "internalType": "uint256",
          "name": "",
          "type": "uint256"
        },
        {
          "internalType": "uint256",
          "name": "",
          "type": "uint256"
        }
      ],
      "name": "currentPlayZone",
      "outputs": [
        {
          "internalType": "string",
          "name": "",
          "type": "string"
        }
      ],
      "stateMutability": "view",
      "type": "function"
    },
    {
      "inputs": [
        {
          "internalType": "uint256",
          "name": "",
          "type": "uint256"
        },
        {
          "internalType": "uint256",
          "name": "",
          "type": "uint256"
        }
      ],
      "name": "entryQueue",
      "outputs": [
        {
          "internalType": "uint256",
          "name": "",
          "type": "uint256"
        }
      ],
      "stateMutability": "view",
      "type": "function"
    },
    {
      "inputs": [
        {
          "internalType": "uint256",
          "name": "gameID",
          "type": "uint256"
        },
        {
          "internalType": "address",
          "name": "playerAddress",
          "type": "address"
        },
        {
          "internalType": "uint256",
          "name": "pathIndex",
          "type": "uint256"
        }
      ],
      "name": "exitToPath",
      "outputs": [
        {
          "internalType": "bool",
          "name": "exitSuccess",
          "type": "bool"
        }
      ],
      "stateMutability": "nonpayable",
      "type": "function"
    },
    {
      "inputs": [
        {
          "internalType": "uint256",
          "name": "",
          "type": "uint256"
        }
      ],
      "name": "gameState",
      "outputs": [
        {
          "internalType": "uint256",
          "name": "",
          "type": "uint256"
        }
      ],
      "stateMutability": "view",
      "type": "function"
    },
    {
      "inputs": [
        {
          "internalType": "uint256",
          "name": "gameID",
          "type": "uint256"
        },
        {
          "internalType": "string",
          "name": "_zoneAlias",
          "type": "string"
        }
      ],
      "name": "getInputs",
      "outputs": [
        {
          "internalType": "string[]",
          "name": "zoneInputs",
          "type": "string[]"
        }
      ],
      "stateMutability": "view",
      "type": "function"
    },
    {
      "inputs": [
        {
          "internalType": "uint256",
          "name": "gameID",
          "type": "uint256"
        },
        {
          "internalType": "string",
          "name": "_zoneAlias",
          "type": "string"
        }
      ],
      "name": "getOutputs",
      "outputs": [
        {
          "internalType": "string[]",
          "name": "zoneOutputs",
          "type": "string[]"
        }
      ],
      "stateMutability": "view",
      "type": "function"
    },
    {
      "inputs": [
        {
          "internalType": "uint256",
          "name": "gameID",
          "type": "uint256"
        }
      ],
      "name": "getOverflowQueue",
      "outputs": [
        {
          "internalType": "uint256[]",
          "name": "",
          "type": "uint256[]"
        }
      ],
      "stateMutability": "view",
      "type": "function"
    },
    {
      "inputs": [
        {
          "internalType": "uint256",
          "name": "gameID",
          "type": "uint256"
        }
      ],
      "name": "getPlayZones",
      "outputs": [
        {
          "internalType": "string[]",
          "name": "",
          "type": "string[]"
        }
      ],
      "stateMutability": "view",
      "type": "function"
    },
    {
      "inputs": [
        {
          "internalType": "bytes32",
          "name": "role",
          "type": "bytes32"
        }
      ],
      "name": "getRoleAdmin",
      "outputs": [
        {
          "internalType": "bytes32",
          "name": "",
          "type": "bytes32"
        }
      ],
      "stateMutability": "view",
      "type": "function"
    },
    {
      "inputs": [
        {
          "internalType": "bytes32",
          "name": "role",
          "type": "bytes32"
        },
        {
          "internalType": "uint256",
          "name": "index",
          "type": "uint256"
        }
      ],
      "name": "getRoleMember",
      "outputs": [
        {
          "internalType": "address",
          "name": "",
          "type": "address"
        }
      ],
      "stateMutability": "view",
      "type": "function"
    },
    {
      "inputs": [
        {
          "internalType": "bytes32",
          "name": "role",
          "type": "bytes32"
        }
      ],
      "name": "getRoleMemberCount",
      "outputs": [
        {
          "internalType": "uint256",
          "name": "",
          "type": "uint256"
        }
      ],
      "stateMutability": "view",
      "type": "function"
    },
    {
      "inputs": [],
      "name": "getZoneAliases",
      "outputs": [
        {
          "internalType": "string[]",
          "name": "",
          "type": "string[]"
        }
      ],
      "stateMutability": "view",
      "type": "function"
    },
    {
      "inputs": [
        {
          "internalType": "bytes32",
          "name": "role",
          "type": "bytes32"
        },
        {
          "internalType": "address",
          "name": "account",
          "type": "address"
        }
      ],
      "name": "grantRole",
      "outputs": [],
      "stateMutability": "nonpayable",
      "type": "function"
    },
    {
      "inputs": [],
      "name": "gridHeight",
      "outputs": [
        {
          "internalType": "uint256",
          "name": "",
          "type": "uint256"
        }
      ],
      "stateMutability": "view",
      "type": "function"
    },
    {
      "inputs": [],
      "name": "gridWidth",
      "outputs": [
        {
          "internalType": "uint256",
          "name": "",
          "type": "uint256"
        }
      ],
      "stateMutability": "view",
      "type": "function"
    },
    {
      "inputs": [
        {
          "internalType": "bytes32",
          "name": "role",
          "type": "bytes32"
        },
        {
          "internalType": "address",
          "name": "account",
          "type": "address"
        }
      ],
      "name": "hasRole",
      "outputs": [
        {
          "internalType": "bool",
          "name": "",
          "type": "bool"
        }
      ],
      "stateMutability": "view",
      "type": "function"
    },
    {
      "inputs": [
        {
          "internalType": "uint256",
          "name": "",
          "type": "uint256"
        }
      ],
      "name": "initialPlayZone",
      "outputs": [
        {
          "internalType": "string",
          "name": "",
          "type": "string"
        }
      ],
      "stateMutability": "view",
      "type": "function"
    },
    {
      "inputs": [
        {
          "internalType": "address",
          "name": "factoryAddress",
          "type": "address"
        }
      ],
      "name": "isFactory",
      "outputs": [
        {
          "internalType": "bool",
          "name": "factoryIsAuthorized",
          "type": "bool"
        }
      ],
      "stateMutability": "view",
      "type": "function"
    },
    {
      "inputs": [
        {
          "internalType": "uint256",
          "name": "",
          "type": "uint256"
        }
      ],
      "name": "lastEntryPlayerID",
      "outputs": [
        {
          "internalType": "uint256",
          "name": "",
          "type": "uint256"
        }
      ],
      "stateMutability": "view",
      "type": "function"
    },
    {
      "inputs": [],
      "name": "needsUpdate",
      "outputs": [
        {
          "internalType": "bool",
          "name": "doesNeedUpdate",
          "type": "bool"
        }
      ],
      "stateMutability": "view",
      "type": "function"
    },
    {
      "inputs": [
        {
          "internalType": "uint256",
          "name": "",
          "type": "uint256"
        },
        {
          "internalType": "string",
          "name": "",
          "type": "string"
        },
        {
          "internalType": "uint256",
          "name": "",
          "type": "uint256"
        }
      ],
      "name": "playZoneInputs",
      "outputs": [
        {
          "internalType": "string",
          "name": "",
          "type": "string"
        }
      ],
      "stateMutability": "view",
      "type": "function"
    },
    {
      "inputs": [
        {
          "internalType": "uint256",
          "name": "",
          "type": "uint256"
        },
        {
          "internalType": "string",
          "name": "",
          "type": "string"
        },
        {
          "internalType": "uint256",
          "name": "",
          "type": "uint256"
        }
      ],
      "name": "playZoneOutputs",
      "outputs": [
        {
          "internalType": "string",
          "name": "",
          "type": "string"
        }
      ],
      "stateMutability": "view",
      "type": "function"
    },
    {
      "inputs": [
        {
          "internalType": "uint256",
          "name": "",
          "type": "uint256"
        },
        {
          "internalType": "uint256",
          "name": "",
          "type": "uint256"
        }
      ],
      "name": "playZones",
      "outputs": [
        {
          "internalType": "string",
          "name": "",
          "type": "string"
        }
      ],
      "stateMutability": "view",
      "type": "function"
    },
    {
      "inputs": [
        {
          "internalType": "uint256",
          "name": "gameID",
          "type": "uint256"
        },
        {
          "internalType": "address",
          "name": "playerAddress",
          "type": "address"
        },
        {
          "internalType": "string",
          "name": "_zoneAlias",
          "type": "string"
        }
      ],
      "name": "playerEnteredZone",
      "outputs": [],
      "stateMutability": "nonpayable",
      "type": "function"
    },
    {
      "inputs": [
        {
          "internalType": "uint256",
          "name": "",
          "type": "uint256"
        }
      ],
      "name": "playerRegistry",
      "outputs": [
        {
          "internalType": "uint256",
          "name": "",
          "type": "uint256"
        }
      ],
      "stateMutability": "view",
      "type": "function"
    },
    {
      "inputs": [],
      "name": "prAddress",
      "outputs": [
        {
          "internalType": "address",
          "name": "",
          "type": "address"
        }
      ],
      "stateMutability": "view",
      "type": "function"
    },
    {
      "inputs": [
        {
          "internalType": "uint256",
          "name": "gameID",
          "type": "uint256"
        },
        {
          "internalType": "address[]",
          "name": "playerAddresses",
          "type": "address[]"
        },
        {
          "internalType": "uint256[]",
          "name": "pathIndices",
          "type": "uint256[]"
        },
        {
          "internalType": "uint256",
          "name": "transitID",
          "type": "uint256"
        }
      ],
      "name": "queueExitToPaths",
      "outputs": [],
      "stateMutability": "nonpayable",
      "type": "function"
    },
    {
      "inputs": [
        {
          "internalType": "uint256",
          "name": "gameID",
          "type": "uint256"
        },
        {
          "internalType": "string[]",
          "name": "inputAliases",
          "type": "string[]"
        },
        {
          "internalType": "uint256[]",
          "name": "inputs",
          "type": "uint256[]"
        },
        {
          "internalType": "string[]",
          "name": "outputAliases",
          "type": "string[]"
        },
        {
          "internalType": "uint256[]",
          "name": "outputs",
          "type": "uint256[]"
        }
      ],
      "name": "removeZoneConnections",
      "outputs": [],
      "stateMutability": "nonpayable",
      "type": "function"
    },
    {
      "inputs": [
        {
          "internalType": "bytes32",
          "name": "role",
          "type": "bytes32"
        },
        {
          "internalType": "address",
          "name": "account",
          "type": "address"
        }
      ],
      "name": "renounceRole",
      "outputs": [],
      "stateMutability": "nonpayable",
      "type": "function"
    },
    {
      "inputs": [
        {
          "internalType": "bytes32",
          "name": "role",
          "type": "bytes32"
        },
        {
          "internalType": "address",
          "name": "account",
          "type": "address"
        }
      ],
      "name": "revokeRole",
      "outputs": [],
      "stateMutability": "nonpayable",
      "type": "function"
    },
    {
      "inputs": [],
      "name": "runUpdate",
      "outputs": [],
      "stateMutability": "nonpayable",
      "type": "function"
    },
    {
      "inputs": [
        {
          "internalType": "string",
          "name": "initialZone",
          "type": "string"
        },
        {
          "internalType": "uint256",
          "name": "gameID",
          "type": "uint256"
        }
      ],
      "name": "setInitialPlayZone",
      "outputs": [],
      "stateMutability": "nonpayable",
      "type": "function"
    },
    {
      "inputs": [
        {
          "internalType": "uint256",
          "name": "gameID",
          "type": "uint256"
        }
      ],
      "name": "startGame",
      "outputs": [],
      "stateMutability": "nonpayable",
      "type": "function"
    },
    {
      "inputs": [
        {
          "internalType": "uint256",
          "name": "transitID",
          "type": "uint256"
        }
      ],
      "name": "startTransit",
      "outputs": [],
      "stateMutability": "nonpayable",
      "type": "function"
    },
    {
      "inputs": [
        {
          "internalType": "bytes4",
          "name": "interfaceId",
          "type": "bytes4"
        }
      ],
      "name": "supportsInterface",
      "outputs": [
        {
          "internalType": "bool",
          "name": "",
          "type": "bool"
        }
      ],
      "stateMutability": "view",
      "type": "function"
    },
    {
      "inputs": [],
      "name": "zoneAddress",
      "outputs": [
        {
          "internalType": "address",
          "name": "",
          "type": "address"
        }
      ],
      "stateMutability": "view",
      "type": "function"
    },
    {
      "inputs": [
        {
          "internalType": "uint256",
          "name": "",
          "type": "uint256"
        },
        {
          "internalType": "string",
          "name": "",
          "type": "string"
        }
      ],
      "name": "zoneAlias",
      "outputs": [
        {
          "internalType": "address",
          "name": "",
          "type": "address"
        }
      ],
      "stateMutability": "view",
      "type": "function"
    },
    {
      "inputs": [
        {
          "internalType": "uint256",
          "name": "",
          "type": "uint256"
        }
      ],
      "name": "zoneAliases",
      "outputs": [
        {
          "internalType": "string",
          "name": "",
          "type": "string"
        }
      ],
      "stateMutability": "view",
      "type": "function"
    },
    {
      "inputs": [
        {
          "internalType": "uint256",
          "name": "",
          "type": "uint256"
        },
        {
          "internalType": "string",
          "name": "",
          "type": "string"
        }
      ],
      "name": "zoneEnabled",
      "outputs": [
        {
          "internalType": "bool",
          "name": "",
          "type": "bool"
        }
      ],
      "stateMutability": "view",
      "type": "function"
    },
    {
      "inputs": [],
      "name": "hexZoneAddress",
      "outputs": [
        {
          "internalType": "address",
          "name": "",
          "type": "address"
        }
      ],
      "stateMutability": "view",
      "type": "function"
    },
    {
      "inputs": [
        {
          "internalType": "address",
          "name": "playerAddress",
          "type": "address"
        },
        {
          "internalType": "uint256",
          "name": "gameID",
          "type": "uint256"
        },
        {
          "internalType": "string",
          "name": "zone",
          "type": "string"
        }
      ],
      "name": "enterPlayer",
      "outputs": [],
      "stateMutability": "nonpayable",
      "type": "function"
    },
    {
      "inputs": [
        {
          "internalType": "address",
          "name": "playerAddress",
          "type": "address"
        },
        {
          "internalType": "uint256",
          "name": "gameID",
          "type": "uint256"
        },
        {
          "internalType": "string",
          "name": "zone",
          "type": "string"
        }
      ],
      "name": "exitPlayer",
      "outputs": [],
      "stateMutability": "nonpayable",
      "type": "function"
    },
    {
      "inputs": [
        {
          "internalType": "address",
          "name": "gameRegistryAddress",
          "type": "address"
        }
      ],
      "name": "requestNewGame",
      "outputs": [],
      "stateMutability": "nonpayable",
      "type": "function"
    },
    {
      "inputs": [
        {
          "internalType": "uint256",
          "name": "gs",
          "type": "uint256"
        },
        {
          "internalType": "uint256",
          "name": "gameID",
          "type": "uint256"
        }
      ],
      "name": "setGameState",
      "outputs": [],
      "stateMutability": "nonpayable",
      "type": "function"
    },
    {
      "inputs": [
        {
          "internalType": "uint256",
          "name": "randomness",
          "type": "uint256"
        }
      ],
      "name": "setRandomness",
      "outputs": [],
      "stateMutability": "nonpayable",
      "type": "function"
    },
    {
      "inputs": [
        {
          "internalType": "uint256",
          "name": "gameID",
          "type": "uint256"
        }
      ],
      "name": "start",
      "outputs": [],
      "stateMutability": "nonpayable",
      "type": "function"
    },
    {
      "inputs": [
        {
          "internalType": "string",
          "name": "zoneAlias",
          "type": "string"
        },
        {
          "internalType": "enum HexplorationZone.Tile",
          "name": "tile",
          "type": "uint8"
        },
        {
          "internalType": "uint256",
          "name": "gameID",
          "type": "uint256"
        }
      ],
      "name": "enableZone",
      "outputs": [],
      "stateMutability": "nonpayable",
      "type": "function"
    },
    {
      "inputs": [
        {
          "internalType": "string[]",
          "name": "zonePath",
          "type": "string[]"
        },
        {
          "internalType": "address",
          "name": "playerAddress",
          "type": "address"
        },
        {
          "internalType": "uint256",
          "name": "gameID",
          "type": "uint256"
        },
        {
          "internalType": "enum HexplorationZone.Tile[]",
          "name": "tiles",
          "type": "uint8[]"
        }
      ],
      "name": "moveThroughPath",
      "outputs": [],
      "stateMutability": "nonpayable",
      "type": "function"
    }
  ],
  "bytecode": "0x60806040523480156200001157600080fd5b5060405162004bbe38038062004bbe8339810160408190526200003491620002a8565b83838383836200004f600082640100000000620000c9810204565b620000847f1d93c87416ca7b54f0fb8323167b72760e8e2ec93d48660953897a150f97a8b482640100000000620000c9810204565b50600e92909255600f5560108054600160a060020a03928316600160a060020a031991821617909155601380549490921693169290921790915550620002f392505050565b620000de8282640100000000620000e2810204565b5050565b620000fc828264010000000062002a506200012982021704565b600082815260016020526040902062000124908264010000000062002ad4620001c582021704565b505050565b6200013e8282640100000000620001ee810204565b620000de57600082815260208181526040808320600160a060020a03851684529091529020805460ff191660011790556200018164010000000062000217810204565b600160a060020a031681600160a060020a0316837f2f8788117e7eff1d82e926ec794901d17c78024a50270940304540a733656f0d60405160405180910390a45050565b6000620001e583600160a060020a0384166401000000006200021b810204565b90505b92915050565b600091825260208281526040808420600160a060020a0393909316845291905290205460ff1690565b3390565b600062000232838364010000000062000273810204565b6200026a57508154600181810184556000848152602080822090930184905584548482528286019093526040902091909155620001e8565b506000620001e8565b60009081526001919091016020526040902054151590565b8051600160a060020a0381168114620002a357600080fd5b919050565b60008060008060808587031215620002bf57600080fd5b620002ca856200028b565b93506020850151925060408501519150620002e8606086016200028b565b905092959194509250565b6148bb80620003036000396000f3fe608060405234801561001057600080fd5b50600436106103d45760003560e060020a9004806391d1485411610203578063cd1ec7f21161011e578063d91413ba116100b1578063f643b8fd11610080578063f643b8fd146108e1578063f8430708146108f4578063fa9f343814610907578063fdd198c31461091a57600080fd5b8063d91413ba14610869578063e5ed1d591461087c578063eb33983d1461088f578063ed3719a5146108a257600080fd5b8063d3fb7289116100ed578063d3fb728914610810578063d4f5b15214610830578063d547741f14610843578063d75e79801461085657600080fd5b8063cd1ec7f2146107cb578063cfdbf254146107e0578063d1e18d26146107e8578063d2d6756b146107f057600080fd5b8063a6f979ff11610196578063b40c89df11610165578063b40c89df14610781578063babdeefa14610794578063c06dea4e146107a7578063ca15c873146107b857600080fd5b8063a6f979ff14610739578063aab2aeb81461074c578063ad1def1e1461076c578063b2df0ca2146104e357600080fd5b80639f6c4017116101d25780639f6c4017146106f85780639f82bcc01461070b578063a217fddf1461071e578063a4f9c9df1461072657600080fd5b806391d14854146106ac57806395805dad146106bf57806398bd7572146106d25780639eb356cb146106e557600080fd5b806331e019f6116102f35780634e0e1a3e1161028657806376a321c11161025557806376a321c11461066b5780637cc75d1c1461067e57806384bf09b6146106915780639010d07c1461069957600080fd5b80634e0e1a3e1461061257806351709a73146106325780636b6ec8691461064557806372c6c6b61461065857600080fd5b8063374f1d35116102c2578063374f1d35146105db57806338b145df146105ee5780633ca61a58146105f75780634032b72b146105ff57600080fd5b806331e019f61461059c578063346c9409146105af57806335e333e4146105b757806336568abe146105c857600080fd5b8063194f2a361161036b578063296787561161033a578063296787561461055057806329ce1ec5146105635780632c47669a146105765780632f2ff15d1461058957600080fd5b8063194f2a36146104e55780631c834a7f14610505578063248a9ca31461051a57806328d7e11a1461053d57600080fd5b8063108c5e14116103a7578063108c5e1414610462578063153a75901461046b57806317d7e833146104b057806319006018146104d057600080fd5b806301ffc9a7146103d957806304a0fb17146104015780630b197f2e146104245780630f04ba671461044f575b600080fd5b6103ec6103e736600461398a565b61092d565b60405190151581526020015b60405180910390f35b61041660008051602061484683398151915281565b6040519081526020016103f8565b60105461043790600160a060020a031681565b604051600160a060020a0390911681526020016103f8565b6103ec61045d3660046139c9565b610971565b610416600f5481565b610437610479366004613ad7565b60086020908152600092835260409092208151808301840180519281529084019290930191909120915254600160a060020a031681565b6104c36104be366004613b1e565b61098b565b6040516103f89190613b98565b6104e36104de366004613caf565b610a44565b005b6104f86104f3366004613ad7565b610b90565b6040516103f89190613d66565b61041660008051602061486683398151915281565b610416610528366004613dc7565b60009081526020819052604090206001015490565b6104e361054b366004613de0565b610ed3565b6104e361055e366004613e9a565b610f70565b6104e36105713660046139c9565b610f8f565b6104e3610584366004613f0f565b610fb6565b6104e3610597366004613f7c565b611003565b6104e36105aa366004613fc0565b61102d565b6103ec6111c3565b601354600160a060020a0316610437565b6104e36105d6366004613f7c565b611214565b6104c36105e9366004613dc7565b61129f565b610416600e5481565b6104f86112ca565b6104e361060d3660046139c9565b6113a3565b610416610620366004613dc7565b60046020526000908152604090205481565b6104c3610640366004614099565b6113d3565b6104f8610653366004613ad7565b611427565b6104e36106663660046139c9565b611757565b6104e3610679366004613b1e565b6117d6565b61041661068c366004613b1e565b611800565b6104e3611831565b6104376106a7366004613b1e565b611ad1565b6103ec6106ba366004613f7c565b611af0565b6104e36106cd366004613dc7565b611b19565b6104e36106e0366004613de0565b611b67565b6103ec6106f33660046140d8565b611bcc565b6104e3610706366004613dc7565b612019565b6104e3610719366004614110565b612031565b610416600081565b6104e3610734366004613dc7565b6120ed565b610416610747366004614155565b612105565b61041661075a366004613dc7565b600b6020526000908152604090205481565b61041660008051602061482683398151915281565b6104c361078f366004614099565b6121ea565b6104f86107a2366004613dc7565b612221565b600254600160a060020a0316610437565b6104166107c6366004613dc7565b61230d565b61041660008051602061480683398151915281565b61041660c881565b6104e3612324565b6104166107fe366004613dc7565b60056020526000908152604090205481565b61082361081e366004613dc7565b61242a565b6040516103f89190614183565b6104e361083e3660046139c9565b61248c565b6104e3610851366004613f7c565b6124af565b6104c3610864366004613b1e565b6124d4565b6104166108773660046141c7565b6124f8565b6104e361088a366004613dc7565b61261c565b6104c361089d366004613dc7565b612634565b6103ec6108b0366004613ad7565b6014602090815260009283526040909220815180830184018051928152908401929093019190912091525460ff1681565b6104e36108ef366004614250565b61264d565b6104e3610902366004614361565b61284e565b6104e36109153660046143b8565b61295f565b6104e3610928366004613dc7565b612a32565b6000600160e060020a031982167f5a05180f00000000000000000000000000000000000000000000000000000000148061096b575061096b82612ae9565b92915050565b600061096b60008051602061484683398151915283611af0565b600660205281600052604060002081815481106109a757600080fd5b906000526020600020016000915091505080546109c3906143fb565b80601f01602080910402602001604051908101604052809291908181526020018280546109ef906143fb565b8015610a3c5780601f10610a1157610100808354040283529160200191610a3c565b820191906000526020600020905b815481529060010190602001808311610a1f57829003601f168201915b505050505081565b600080516020614826833981519152610a5c81612b50565b8151845114610ab55760405160e560020a62461bcd02815260206004820181905260248201527f696e70757473202f206f757470757473206c656e677468206d69736d6174636860448201526064015b60405180910390fd5b610ac0868686612b5a565b610b0f5760405160e560020a62461bcd02815260206004820152600e60248201527f696e7075747320696e76616c69640000000000000000000000000000000000006044820152606401610aac565b610b1a868484612bfd565b610b695760405160e560020a62461bcd02815260206004820152600f60248201527f6f75747075747320696e76616c696400000000000000000000000000000000006044820152606401610aac565b60005b8451811015610b875780610b7f81614452565b915050610b6c565b50505050505050565b60008281526009602052604080822090516060929190610bb190859061446d565b9081526020016040518091039020805480602002602001604051908101604052809291908181526020016000905b82821015610c8b578382906000526020600020018054610bfe906143fb565b80601f0160208091040260200160405190810160405280929190818152602001828054610c2a906143fb565b8015610c775780601f10610c4c57610100808354040283529160200191610c77565b820191906000526020600020905b815481529060010190602001808311610c5a57829003601f168201915b505050505081526020019060010190610bdf565b505060008080526009602052604051939450927fec8156718a8372b1db44bb411437d0870f3e3790d4a08526d024ce1b0b668f6b9250610ccd9150869061446d565b9081526020016040518091039020805480602002602001604051908101604052809291908181526020016000905b82821015610da7578382906000526020600020018054610d1a906143fb565b80601f0160208091040260200160405190810160405280929190818152602001828054610d46906143fb565b8015610d935780601f10610d6857610100808354040283529160200191610d93565b820191906000526020600020905b815481529060010190602001808311610d7657829003601f168201915b505050505081526020019060010190610cfb565b505050509050600082511115610ec757600081518351610dc79190614489565b67ffffffffffffffff811115610ddf57610ddf6139e6565b604051908082528060200260200182016040528015610e1257816020015b6060815260200190600190039081610dfd5790505b50905060005b8151811015610ec0578251811015610e6657828181518110610e3c57610e3c6144a1565b6020026020010151828281518110610e5657610e566144a1565b6020026020010181905250610eaa565b83835182610e7491906144ba565b81518110610e8457610e846144a1565b6020026020010151828281518110610e9e57610e9e6144a1565b60200260200101819052505b8194508080610eb890614452565b915050610e18565b5050610ecb565b8092505b505092915050565b600080516020614866833981519152610eeb81612b50565b6013546040517f28d7e11a000000000000000000000000000000000000000000000000000000008152600160a060020a03909116906328d7e11a90610f38908790879087906004016144d1565b600060405180830381600087803b158015610f5257600080fd5b505af1158015610f66573d6000803e3d6000fd5b5050505050505050565b600080516020614806833981519152610f8881612b50565b5050505050565b6000610f9a81612b50565b610fb260008051602061484683398151915283612c98565b5050565b600080516020614826833981519152610fce81612b50565b8251845114610ff25760405160e560020a62461bcd028152600401610aac906144f9565b610ffd848484612ca2565b50505050565b60008281526020819052604090206001015461101e81612b50565b6110288383612e01565b505050565b60008051602061486683398151915261104581612b50565b6013548551600160a060020a03909116906328d7e11a90869086908990600090611071576110716144a1565b60200260200101516040518463ffffffff1660e060020a02815260040161109a939291906144d1565b600060405180830381600087803b1580156110b457600080fd5b505af11580156110c8573d6000803e3d6000fd5b50506013548751600160a060020a0390911692506398bd757291508690869089906110f5906001906144ba565b81518110611105576111056144a1565b60200260200101516040518463ffffffff1660e060020a02815260040161112e939291906144d1565b600060405180830381600087803b15801561114857600080fd5b505af115801561115c573d6000803e3d6000fd5b5050505060005b85518110156111bb576111a9868281518110611181576111816144a1565b602002602001015184838151811061119b5761119b6144a1565b60200260200101518661284e565b806111b381614452565b915050611163565b505050505050565b6000805b60035481101561121057600381815481106111e4576111e46144a1565b90600052602060002001546000146111fe57600191505090565b8061120881614452565b9150506111c7565b5090565b600160a060020a03811633146112955760405160e560020a62461bcd02815260206004820152602f60248201527f416363657373436f6e74726f6c3a2063616e206f6e6c792072656e6f756e636560448201527f20726f6c657320666f722073656c6600000000000000000000000000000000006064820152608401610aac565b610fb28282612e23565b601181815481106112af57600080fd5b9060005260206000200160009150905080546109c3906143fb565b60606011805480602002602001604051908101604052809291908181526020016000905b8282101561139a57838290600052602060002001805461130d906143fb565b80601f0160208091040260200160405190810160405280929190818152602001828054611339906143fb565b80156113865780601f1061135b57610100808354040283529160200191611386565b820191906000526020600020905b81548152906001019060200180831161136957829003601f168201915b5050505050815260200190600101906112ee565b50505050905090565b6000805160206148268339815191526113bb81612b50565b610fb260008051602061486683398151915283612c98565b6009602090815260008481526040902083518085018301805192815290830192850192909220915280548290811061140a57600080fd5b90600052602060002001600092509250505080546109c3906143fb565b6000828152600a60205260408082209051606092919061144890859061446d565b9081526020016040518091039020805480602002602001604051908101604052809291908181526020016000905b82821015611522578382906000526020600020018054611495906143fb565b80601f01602080910402602001604051908101604052809291908181526020018280546114c1906143fb565b801561150e5780601f106114e35761010080835404028352916020019161150e565b820191906000526020600020905b8154815290600101906020018083116114f157829003601f168201915b505050505081526020019060010190611476565b50506000808052600a602052604051939450927f13da86008ba1c6922daee3e07db95305ef49ebced9f5467a0b8613fcc6b343e392506115649150869061446d565b9081526020016040518091039020805480602002602001604051908101604052809291908181526020016000905b8282101561163e5783829060005260206000200180546115b1906143fb565b80601f01602080910402602001604051908101604052809291908181526020018280546115dd906143fb565b801561162a5780601f106115ff5761010080835404028352916020019161162a565b820191906000526020600020905b81548152906001019060200180831161160d57829003601f168201915b505050505081526020019060010190611592565b505050509050600082511115610ec75760008151835161165e9190614489565b67ffffffffffffffff811115611676576116766139e6565b6040519080825280602002602001820160405280156116a957816020015b60608152602001906001900390816116945790505b50905060005b8151811015610ec05782518110156116fd578281815181106116d3576116d36144a1565b60200260200101518282815181106116ed576116ed6144a1565b6020026020010181905250611741565b8383518261170b91906144ba565b8151811061171b5761171b6144a1565b6020026020010151828281518110611735576117356144a1565b60200260200101819052505b819450808061174f90614452565b9150506116af565b60008051602061486683398151915261176f81612b50565b81600160a060020a0316630a75806e6040518163ffffffff1660e060020a0281526004016020604051808303816000875af11580156117b2573d6000803e3d6000fd5b505050506040513d601f19601f820116820180604052508101906110289190614556565b6000805160206148668339815191526117ee81612b50565b50600090815260046020526040902055565b600d602052816000526040600020818154811061181c57600080fd5b90600052602060002001600091509150505481565b61184960008051602061484683398151915233611af0565b80611867575061186760008051602061482683398151915233611af0565b6118865760405160e560020a62461bcd028152600401610aac9061456f565b601154611acf576000600f54600e5461189f91906145cc565b67ffffffffffffffff8111156118b7576118b76139e6565b6040519080825280602002602001820160405280156118e0578160200160208202803683370190505b50600f54600e546040517f9f6b56490000000000000000000000000000000000000000000000000000000081526004810192909252602482015290915073__XYCoordinates_________________________90639f6b564990604401600060405180830381865af4158015611959573d6000803e3d6000fd5b505050506040513d6000823e601f3d908101601f1916820160405261198191908101906145eb565b805161199591601191602090910190613845565b5060005b81518110156119ef576010548251600160a060020a03909116908390839081106119c5576119c56144a1565b600160a060020a0390921660209283029190910190910152806119e781614452565b915050611999565b50611acd816011805480602002602001604051908101604052809291908181526020016000905b82821015611ac2578382906000526020600020018054611a35906143fb565b80601f0160208091040260200160405190810160405280929190818152602001828054611a61906143fb565b8015611aae5780601f10611a8357610100808354040283529160200191611aae565b820191906000526020600020905b815481529060010190602001808311611a9157829003601f168201915b505050505081526020019060010190611a16565b505050506000612ca2565b505b565b6000828152600160205260408120611ae99083612e45565b9392505050565b600091825260208281526040808420600160a060020a0393909316845291905290205460ff1690565b600080516020614866833981519152611b3181612b50565b50600380546001810182556000919091527fc2575a0e9e593c00f959f8c92f12db2869c3395a3b0502d05e2516446f71f85b0155565b600080516020614866833981519152611b7f81612b50565b6013546040517f98bd7572000000000000000000000000000000000000000000000000000000008152600160a060020a03909116906398bd757290610f38908790879087906004016144d1565b6002546040517fbca7caa000000000000000000000000000000000000000000000000000000000815260048101859052600160a060020a038481166024830152600092839291169063bca7caa090604401602060405180830381865afa158015611c3a573d6000803e3d6000fd5b505050506040513d601f19601f82011682018060405250810190611c5e9190614556565b6000868152600c60209081526040808320848452909152812080549293509091611c87906143fb565b80601f0160208091040260200160405190810160405280929190818152602001828054611cb3906143fb565b8015611d005780601f10611cd557610100808354040283529160200191611d00565b820191906000526020600020905b815481529060010190602001808311611ce357829003601f168201915b505050505090506000611d138783611427565b805190915080611d685760405160e560020a62461bcd02815260206004820152601760248201527f4e6f206578697420706174687320617661696c61626c650000000000000000006044820152606401610aac565b60008881526008602052604080822090519196508691611d8990869061446d565b90815260405190819003602001902054600160a060020a031690506000828811611db35787611db6565b60005b90506000848281518110611dcc57611dcc6144a1565b602002602001015190506000600860008d815260200190815260200160002082604051611df9919061446d565b908152602001604051809103902060009054906101000a9004600160a060020a0316905083600160a060020a0316637caf12808c8e8a6040518463ffffffff1660e060020a028152600401611e50939291906144d1565b602060405180830381865afa158015611e6d573d6000803e3d6000fd5b505050506040513d601f19601f82011682018060405250810190611e9191906146d5565b8015611f0c575080600160a060020a031663e15b3ad08c8e856040518463ffffffff1660e060020a028152600401611ecb939291906144d1565b602060405180830381865afa158015611ee8573d6000803e3d6000fd5b505050506040513d601f19601f82011682018060405250810190611f0c91906146d5565b1561200a5783600160a060020a03166328d7e11a8c8e8a6040518463ffffffff1660e060020a028152600401611f44939291906144d1565b600060405180830381600087803b158015611f5e57600080fd5b505af1158015611f72573d6000803e3d6000fd5b5050505080600160a060020a03166398bd75728c8e856040518463ffffffff1660e060020a028152600401611fa9939291906144d1565b600060405180830381600087803b158015611fc357600080fd5b505af1158015611fd7573d6000803e3d6000fd5b50505060008d8152600c602090815260408083208c8452825290912084516120049350909185019061389e565b50600198505b50505050505050509392505050565b600080516020614866833981519152610fb281612b50565b60008051602061486683398151915261204981612b50565b600082815260046020526040902054156120ce5760405160e560020a62461bcd02815260206004820152602c60248201527f63616e27742073657420696e697469616c207a6f6e652c2067616d6520616c7260448201527f65616479207374617274656400000000000000000000000000000000000000006064820152608401610aac565b60008281526007602090815260409091208451610ffd9286019061389e565b600080516020614806833981519152610fb281612b50565b600061211f60008051602061484683398151915233611af0565b8061213d575061213d60008051602061482683398151915233611af0565b61215c5760405160e560020a62461bcd028152600401610aac9061456f565b82600260006101000a815481600160a060020a030219169083600160a060020a0316021790555081600160a060020a0316630a75806e6040518163ffffffff1660e060020a0281526004016020604051808303816000875af11580156121c6573d6000803e3d6000fd5b505050506040513d601f19601f82011682018060405250810190611ae99190614556565b600a602090815260008481526040902083518085018301805192815290830192850192909220915280548290811061140a57600080fd5b606060066000838152602001908152602001600020805480602002602001604051908101604052809291908181526020016000905b82821015612302578382906000526020600020018054612275906143fb565b80601f01602080910402602001604051908101604052809291908181526020018280546122a1906143fb565b80156122ee5780601f106122c3576101008083540402835291602001916122ee565b820191906000526020600020905b8154815290600101906020018083116122d157829003601f168201915b505050505081526020019060010190612256565b505050509050919050565b600081815260016020526040812061096b90612e51565b60008051602061486683398151915261233c81612b50565b60008060005b6003548110156123ab576003818154811061235f5761235f6144a1565b90600052602060002001546000146123995760038181548110612384576123846144a1565b906000526020600020015492508091506123ab565b806123a381614452565b915050612342565b506000828152600460205260409020546123cd576123c882612e5b565b6123ed565b600082815260046020526040902054600114156123ed576123ed82612ee6565b6000828152600460205260409020546001101561102857600060038281548110612419576124196144a1565b600091825260209091200155505050565b6000818152600d602090815260409182902080548351818402810184019094528084526060939283018282801561248057602002820191906000526020600020905b81548152602001906001019080831161246c575b50505050509050919050565b600061249781612b50565b610fb260008051602061486683398151915283611003565b6000828152602081905260409020600101546124ca81612b50565b6110288383612e23565b600c602090815260009283526040808420909152908252902080546109c3906143fb565b600061251260008051602061484683398151915233611af0565b80612530575061253060008051602061482683398151915233611af0565b61254f5760405160e560020a62461bcd028152600401610aac9061456f565b81518351146125735760405160e560020a62461bcd028152600401610aac906144f9565b82511561258557612585838383612ca2565b84600260006101000a815481600160a060020a030219169083600160a060020a0316021790555083600160a060020a0316630a75806e6040518163ffffffff1660e060020a0281526004016020604051808303816000875af11580156125ef573d6000803e3d6000fd5b505050506040513d601f19601f820116820180604052508101906126139190614556565b95945050505050565b600080516020614826833981519152611b3181612b50565b600760205260009081526040902080546109c3906143fb565b60008051602061482683398151915261266581612b50565b61266f838361329f565b6126be5760405160e560020a62461bcd02815260206004820152601a60248201527f6e6f7420616c6c207a6f6e6520696e64656365732076616c69640000000000006044820152606401610aac565b60005b8251811015610ffd576000848152600a6020526040902083518490839081106126ec576126ec6144a1565b6020026020010151600060028110612706576127066144a1565b6020020151604051612718919061446d565b9081526020016040518091039020838281518110612738576127386144a1565b6020026020010151600160028110612752576127526144a1565b6020908102919091015182546001810184556000938452928290208151612782949190910192919091019061389e565b50600084815260096020526040902083518490839081106127a5576127a56144a1565b60200260200101516001600281106127bf576127bf6144a1565b60200201516040516127d1919061446d565b90815260200160405180910390208382815181106127f1576127f16144a1565b602002602001015160006002811061280b5761280b6144a1565b602090810291909101518254600181018455600093845292829020815161283b949190910192919091019061389e565b508061284681614452565b9150506126c1565b60008051602061486683398151915261286681612b50565b60008281526014602052604090819020905161288390869061446d565b9081526040519081900360200190205460ff16610ffd576013546040517fd4939609000000000000000000000000000000000000000000000000000000008152600160a060020a039091169063d4939609906128e7908690869089906004016146f7565b600060405180830381600087803b15801561290157600080fd5b505af1158015612915573d6000803e3d6000fd5b5050506000838152601460205260409081902090516001925061293990879061446d565b908152604051908190036020019020805491151560ff1990921691909117905550505050565b60008051602061480683398151915261297781612b50565b6002546040517fbca7caa000000000000000000000000000000000000000000000000000000000815260048101869052600160a060020a038581166024830152600092169063bca7caa090604401602060405180830381865afa1580156129e2573d6000803e3d6000fd5b505050506040513d601f19601f82011682018060405250810190612a069190614556565b6000868152600c60209081526040808320848452825290912085519293506111bb92909186019061389e565b600080516020614866833981519152612a4a81612b50565b50601255565b612a5a8282611af0565b610fb257600082815260208181526040808320600160a060020a03851684529091529020805460ff19166001179055612a903390565b600160a060020a031681600160a060020a0316837f2f8788117e7eff1d82e926ec794901d17c78024a50270940304540a733656f0d60405160405180910390a45050565b6000611ae983600160a060020a0384166133ae565b6000600160e060020a031982167f7965db0b00000000000000000000000000000000000000000000000000000000148061096b57507f01ffc9a700000000000000000000000000000000000000000000000000000000600160e060020a031983161461096b565b611acd81336133fd565b600160005b8251811015612bf557828181518110612b7a57612b7a6144a1565b60200260200101516001612b8e9190614489565b60008681526009602052604090208551869084908110612bb057612bb06144a1565b6020026020010151604051612bc5919061446d565b9081526040519081900360200190205410612be35760009150612bf5565b80612bed81614452565b915050612b5f565b509392505050565b600160005b8251811015612bf557828181518110612c1d57612c1d6144a1565b60200260200101516001612c319190614489565b6000868152600a602052604090208551869084908110612c5357612c536144a1565b6020026020010151604051612c68919061446d565b9081526040519081900360200190205410612c865760009150612bf5565b80612c9081614452565b915050612c02565b610fb28282612e01565b60005b8351811015610ffd5760008281526006602052604090208351849083908110612cd057612cd06144a1565b60209081029190910181015182546001810184556000938452928290208151612d02949190910192919091019061389e565b50838181518110612d1557612d156144a1565b602002602001015160086000848152602001908152602001600020848381518110612d4257612d426144a1565b6020026020010151604051612d57919061446d565b908152602001604051809103902060006101000a815481600160a060020a030219169083600160a060020a03160217905550612dba600080516020614806833981519152858381518110612dad57612dad6144a1565b6020026020010151611af0565b612def57612def600080516020614806833981519152858381518110612de257612de26144a1565b6020026020010151612c98565b80612df981614452565b915050612ca5565b612e0b8282612a50565b60008281526001602052604090206110289082612ad4565b612e2d8282613464565b600082815260016020526040902061102890826134c9565b6000611ae983836134de565b600061096b825490565b6002546040517f60c2050000000000000000000000000000000000000000000000000000000000815260048101839052600160a060020a03909116906360c2050090602401600060405180830381600087803b158015612eba57600080fd5b505af1158015612ece573d6000803e3d6000fd5b50505060009182525060046020526040902060019055565b60008181526007602052604081208054612eff906143fb565b15159050612f355760008281526006602052604081208054909190612f2657612f266144a1565b90600052602060002001612f44565b60008281526007602052604090205b8054612f4f906143fb565b80601f0160208091040260200160405190810160405280929190818152602001828054612f7b906143fb565b8015612fc85780601f10612f9d57610100808354040283529160200191612fc8565b820191906000526020600020905b815481529060010190602001808311612fab57829003601f168201915b5050505050905060006008600084815260200190815260200160002082604051612ff2919061446d565b90815260405190819003602001902054600160a060020a031690508060005b6002546040517fb77ff41100000000000000000000000000000000000000000000000000000000815260048101879052600160a060020a039091169063b77ff41190602401602060405180830381865afa158015613073573d6000803e3d6000fd5b505050506040513d601f19601f820116820180604052508101906130979190614556565b8110156132875760006130ab826001614489565b6002546040517ff50432540000000000000000000000000000000000000000000000000000000081526004810189905260248101839052919250600091600160a060020a039091169063f504325490604401602060405180830381865afa15801561311a573d6000803e3d6000fd5b505050506040513d601f19601f8201168201806040525081019061313e9190614737565b6040517fe15b3ad0000000000000000000000000000000000000000000000000000000008152909150600160a060020a0385169063e15b3ad09061318a9084908b908b906004016144d1565b602060405180830381865afa1580156131a7573d6000803e3d6000fd5b505050506040513d601f19601f820116820180604052508101906131cb91906146d5565b15613250576040517f98bd7572000000000000000000000000000000000000000000000000000000008152600160a060020a038516906398bd7572906132199084908b908b906004016144d1565b600060405180830381600087803b15801561323357600080fd5b505af1158015613247573d6000803e3d6000fd5b50505050613272565b6000878152600d60209081526040822080546001810182559083529120018290555b5050808061327f90614452565b915050613011565b50505060009182525060046020526040902060029055565b6000805b82518110156133a75760008481526008602052604081208451600194508590849081106132d2576132d26144a1565b60200260200101516000600281106132ec576132ec6144a1565b60200201516040516132fe919061446d565b90815260405190819003602001902054600160a060020a03161480613387575060008481526008602052604081208451859084908110613340576133406144a1565b602002602001015160016002811061335a5761335a6144a1565b602002015160405161336c919061446d565b90815260405190819003602001902054600160a060020a0316145b1561339557600091506133a7565b8061339f81614452565b9150506132a3565b5092915050565b60008181526001830160205260408120546133f55750815460018181018455600084815260208082209093018490558454848252828601909352604090209190915561096b565b50600061096b565b6134078282611af0565b610fb25761341f81600160a060020a03166014613508565b61342a836020613508565b60405160200161343b929190614754565b60408051601f198184030181529082905260e560020a62461bcd028252610aac91600401613b98565b61346e8282611af0565b15610fb257600082815260208181526040808320600160a060020a0385168085529252808320805460ff1916905551339285917ff6391f5c32d9c69d2a47ea670b442974b53935d1edc7fd64eb21e047a839171b9190a45050565b6000611ae983600160a060020a038416613752565b60008260000182815481106134f5576134f56144a1565b9060005260206000200154905092915050565b606060006135178360026145cc565b613522906002614489565b67ffffffffffffffff81111561353a5761353a6139e6565b6040519080825280601f01601f191660200182016040528015613564576020820181803683370190505b5090507f30000000000000000000000000000000000000000000000000000000000000008160008151811061359b5761359b6144a1565b60200101907effffffffffffffffffffffffffffffffffffffffffffffffffffffffffffff1916908160001a9053507f7800000000000000000000000000000000000000000000000000000000000000816001815181106135fe576135fe6144a1565b60200101907effffffffffffffffffffffffffffffffffffffffffffffffffffffffffffff1916908160001a905350600061363a8460026145cc565b613645906001614489565b90505b6001811115613700577f303132333435363738396162636465660000000000000000000000000000000085600f1660108110613686576136866144a1565b1a7f0100000000000000000000000000000000000000000000000000000000000000028282815181106136bb576136bb6144a1565b60200101907effffffffffffffffffffffffffffffffffffffffffffffffffffffffffffff1916908160001a9053506010909404936136f9816147d5565b9050613648565b508315611ae95760405160e560020a62461bcd02815260206004820181905260248201527f537472696e67733a20686578206c656e67746820696e73756666696369656e746044820152606401610aac565b6000818152600183016020526040812054801561383b5760006137766001836144ba565b855490915060009061378a906001906144ba565b90508181146137ef5760008660000182815481106137aa576137aa6144a1565b90600052602060002001549050808760000184815481106137cd576137cd6144a1565b6000918252602080832090910192909255918252600188019052604090208390555b8554869080613800576138006147ec565b60019003818190600052602060002001600090559055856001016000868152602001908152602001600020600090556001935050505061096b565b600091505061096b565b828054828255906000526020600020908101928215613892579160200282015b82811115613892578251805161388291849160209091019061389e565b5091602001919060010190613865565b5061121092915061391e565b8280546138aa906143fb565b90600052602060002090601f0160209004810192826138cc5760008555613912565b82601f106138e557805160ff1916838001178555613912565b82800160010185558215613912579182015b828111156139125782518255916020019190600101906138f7565b5061121092915061393b565b808211156112105760006139328282613950565b5060010161391e565b5b80821115611210576000815560010161393c565b50805461395c906143fb565b6000825580601f1061396c575050565b601f016020900490600052602060002090810190611acd919061393b565b60006020828403121561399c57600080fd5b8135600160e060020a031981168114611ae957600080fd5b600160a060020a0381168114611acd57600080fd5b6000602082840312156139db57600080fd5b8135611ae9816139b4565b60e060020a634e487b7102600052604160045260246000fd5b6040805190810167ffffffffffffffff81118282101715613a2257613a226139e6565b60405290565b604051601f8201601f1916810167ffffffffffffffff81118282101715613a5157613a516139e6565b604052919050565b600067ffffffffffffffff821115613a7357613a736139e6565b50601f01601f191660200190565b600082601f830112613a9257600080fd5b8135613aa5613aa082613a59565b613a28565b818152846020838601011115613aba57600080fd5b816020850160208301376000918101602001919091529392505050565b60008060408385031215613aea57600080fd5b82359150602083013567ffffffffffffffff811115613b0857600080fd5b613b1485828601613a81565b9150509250929050565b60008060408385031215613b3157600080fd5b50508035926020909101359150565b60005b83811015613b5b578181015183820152602001613b43565b83811115610ffd5750506000910152565b60008151808452613b84816020860160208601613b40565b601f01601f19169290920160200192915050565b602081526000611ae96020830184613b6c565b600067ffffffffffffffff821115613bc557613bc56139e6565b5060209081020190565b600082601f830112613be057600080fd5b81356020613bf0613aa083613bab565b82815291810284018101918181019086841115613c0c57600080fd5b8286015b84811015613c4c57803567ffffffffffffffff811115613c305760008081fd5b613c3e8986838b0101613a81565b845250918301918301613c10565b509695505050505050565b600082601f830112613c6857600080fd5b81356020613c78613aa083613bab565b82815291810284018101918181019086841115613c9457600080fd5b8286015b84811015613c4c5780358352918301918301613c98565b600080600080600060a08688031215613cc757600080fd5b85359450602086013567ffffffffffffffff80821115613ce657600080fd5b613cf289838a01613bcf565b95506040880135915080821115613d0857600080fd5b613d1489838a01613c57565b94506060880135915080821115613d2a57600080fd5b613d3689838a01613bcf565b93506080880135915080821115613d4c57600080fd5b50613d5988828901613c57565b9150509295509295909350565b600060208083018184528085518083526040860191506040848202870101925083870160005b82811015613dba57603f19888603018452613da8858351613b6c565b94509285019290850190600101613d8c565b5092979650505050505050565b600060208284031215613dd957600080fd5b5035919050565b600080600060608486031215613df557600080fd5b8335613e00816139b4565b925060208401359150604084013567ffffffffffffffff811115613e2357600080fd5b613e2f86828701613a81565b9150509250925092565b600082601f830112613e4a57600080fd5b81356020613e5a613aa083613bab565b82815291810284018101918181019086841115613e7657600080fd5b8286015b84811015613c4c578035613e8d816139b4565b8352918301918301613e7a565b60008060008060808587031215613eb057600080fd5b84359350602085013567ffffffffffffffff80821115613ecf57600080fd5b613edb88838901613e39565b94506040870135915080821115613ef157600080fd5b50613efe87828801613c57565b949793965093946060013593505050565b600080600060608486031215613f2457600080fd5b833567ffffffffffffffff80821115613f3c57600080fd5b613f4887838801613e39565b94506020860135915080821115613f5e57600080fd5b50613f6b86828701613bcf565b925050604084013590509250925092565b60008060408385031215613f8f57600080fd5b823591506020830135613fa1816139b4565b809150509250929050565b8035600b8110613fbb57600080fd5b919050565b60008060008060808587031215613fd657600080fd5b843567ffffffffffffffff80821115613fee57600080fd5b613ffa88838901613bcf565b9550602091508187013561400d816139b4565b94506040870135935060608701358181111561402857600080fd5b87019050601f8101881361403b57600080fd5b8035614049613aa082613bab565b8181529083028201830190838101908a83111561406557600080fd5b928401925b8284101561408a5761407b84613fac565b8252928401929084019061406a565b979a9699509497505050505050565b6000806000606084860312156140ae57600080fd5b83359250602084013567ffffffffffffffff8111156140cc57600080fd5b613f6b86828701613a81565b6000806000606084860312156140ed57600080fd5b8335925060208401356140ff816139b4565b929592945050506040919091013590565b6000806040838503121561412357600080fd5b823567ffffffffffffffff81111561413a57600080fd5b61414685828601613a81565b95602094909401359450505050565b6000806040838503121561416857600080fd5b8235614173816139b4565b91506020830135613fa1816139b4565b6020808252825182820181905260009190848201906040850190845b818110156141bb5783518352928401929184019160010161419f565b50909695505050505050565b600080600080608085870312156141dd57600080fd5b84356141e8816139b4565b935060208501356141f8816139b4565b9250604085013567ffffffffffffffff8082111561421557600080fd5b61422188838901613e39565b9350606087013591508082111561423757600080fd5b5061424487828801613bcf565b91505092959194509250565b6000806040838503121561426357600080fd5b8235915060208084013567ffffffffffffffff8082111561428357600080fd5b818601915086601f83011261429757600080fd5b81356142a5613aa082613bab565b818152908402830184019084810190898311156142c157600080fd5b8585015b838110156143505784813511156142db57600080fd5b803586018b603f8201126142ee57600080fd5b6142f66139ff565b808d60608401111561430757600080fd5b8983015b6060840181101561434057888135111561432457600080fd5b6143338f8c8335870101613a81565b8352918a01918a0161430b565b50855250509186019186016142c5565b508096505050505050509250929050565b60008060006060848603121561437657600080fd5b833567ffffffffffffffff81111561438d57600080fd5b61439986828701613a81565b9350506143a860208501613fac565b9150604084013590509250925092565b6000806000606084860312156143cd57600080fd5b8335925060208401356143df816139b4565b9150604084013567ffffffffffffffff811115613e2357600080fd5b60028104600182168061440f57607f821691505b602082108114156144335760e060020a634e487b7102600052602260045260246000fd5b50919050565b60e060020a634e487b7102600052601160045260246000fd5b600060001982141561446657614466614439565b5060010190565b6000825161447f818460208701613b40565b9190910192915050565b6000821982111561449c5761449c614439565b500190565b60e060020a634e487b7102600052603260045260246000fd5b6000828210156144cc576144cc614439565b500390565b600160a060020a03841681528260208201526060604082015260006126136060830184613b6c565b60208082526025908201527f616464726573736573202620616c696173657320646966666572656e74206c6560408201527f6e67746873000000000000000000000000000000000000000000000000000000606082015260800190565b60006020828403121561456857600080fd5b5051919050565b60208082526024908201527f47616d65204d6173746572206f7220466163746f727920726f6c65207265717560408201527f6972656400000000000000000000000000000000000000000000000000000000606082015260800190565b60008160001904831182151516156145e6576145e6614439565b500290565b600060208083850312156145fe57600080fd5b825167ffffffffffffffff8082111561461657600080fd5b818501915085601f83011261462a57600080fd5b8151614638613aa082613bab565b8181529084028301840190848101908883111561465457600080fd5b8585015b838110156146c8578051858111156146705760008081fd5b8601603f81018b136146825760008081fd5b878101516040614694613aa083613a59565b8281528d828486010111156146a95760008081fd5b6146b8838c8301848701613b40565b8652505050918601918601614658565b5098975050505050505050565b6000602082840312156146e757600080fd5b81518015158114611ae957600080fd5b6000600b851061471a5760e060020a634e487b7102600052602160045260246000fd5b848252836020830152606060408301526126136060830184613b6c565b60006020828403121561474957600080fd5b8151611ae9816139b4565b7f416363657373436f6e74726f6c3a206163636f756e742000000000000000000081526000835161478c816017850160208801613b40565b7f206973206d697373696e6720726f6c652000000000000000000000000000000060179184019182015283516147c9816028840160208801613b40565b01602801949350505050565b6000816147e4576147e4614439565b506000190190565b60e060020a634e487b7102600052603160045260246000fdfe72b06b67826def9fabb513b23f7e5eb74f7ece26d25dad4006546ecf4a13763d1d93c87416ca7b54f0fb8323167b72760e8e2ec93d48660953897a150f97a8b4dfbefbf47cfe66b701d8cfdbce1de81c821590819cb07e71cb01b6602fb0ee2780e2196015fc06a9d891759f8e4f51eb314ef5e9ea068528a8ed0063b87759f0a264697066735822122014d9d2221db42dd3a0b3e95c05d18bab90713e441b916d9604a021a0a63d2e2664736f6c634300080b0033",
  "immutableReferences": {},
  "source": "// SPDX-License-Identifier: GPL-3.0\npragma solidity >=0.7.0 <0.9.0;\n\nimport \"@luckymachines/game-core/contracts/src/v0.0/custom_boards/HexGrid.sol\";\nimport \"./HexplorationZone.sol\";\n\ncontract HexplorationBoard is HexGrid {\n    // This role is a hybrid controller, assumes on chain verification of moves before submission\n\n    uint256 private _randomness;\n\n    HexplorationZone internal HEX_ZONE;\n    // game ID => zone alias returns bool\n    mapping(uint256 => mapping(string => bool)) public zoneEnabled;\n\n    constructor(\n        address adminAddress,\n        uint256 gridWidth,\n        uint256 gridHeight,\n        address zoneAddress\n    ) HexGrid(adminAddress, gridWidth, gridHeight, zoneAddress) {\n        HEX_ZONE = HexplorationZone(zoneAddress);\n    }\n\n    function hexZoneAddress() public view returns (address) {\n        return address(HEX_ZONE);\n    }\n\n    // VERIFIED CONTROLLER functions\n    // We can assume these have been pre-verified\n\n    function enterPlayer(\n        address playerAddress,\n        uint256 gameID,\n        string memory zone\n    ) external onlyRole(VERIFIED_CONTROLLER_ROLE) {\n        HEX_ZONE.enterPlayer(playerAddress, gameID, zone);\n    }\n\n    function exitPlayer(\n        address playerAddress,\n        uint256 gameID,\n        string memory zone\n    ) external onlyRole(VERIFIED_CONTROLLER_ROLE) {\n        HEX_ZONE.exitPlayer(playerAddress, gameID, zone);\n    }\n\n    function requestNewGame(address gameRegistryAddress)\n        external\n        onlyRole(VERIFIED_CONTROLLER_ROLE)\n    {\n        GameRegistry(gameRegistryAddress).registerGame();\n    }\n\n    function setGameState(uint256 gs, uint256 gameID)\n        external\n        onlyRole(VERIFIED_CONTROLLER_ROLE)\n    {\n        // 0 start\n        // 1 inititalizing\n        // 2 initialized\n        gameState[gameID] = gs;\n    }\n\n    function setRandomness(uint256 randomness)\n        external\n        onlyRole(VERIFIED_CONTROLLER_ROLE)\n    {\n        _randomness = randomness;\n    }\n\n    function start(uint256 gameID) public onlyRole(VERIFIED_CONTROLLER_ROLE) {\n        _gamesNeedUpdates.push(gameID);\n    }\n\n    function enableZone(\n        string memory zoneAlias,\n        HexplorationZone.Tile tile,\n        uint256 gameID\n    ) public onlyRole(VERIFIED_CONTROLLER_ROLE) {\n        if (!zoneEnabled[gameID][zoneAlias]) {\n            HEX_ZONE.setTile(tile, gameID, zoneAlias);\n            zoneEnabled[gameID][zoneAlias] = true;\n        }\n    }\n\n    // pass path and what tiles should be\n    function moveThroughPath(\n        string[] memory zonePath,\n        address playerAddress,\n        uint256 gameID,\n        HexplorationZone.Tile[] memory tiles\n    ) external onlyRole(VERIFIED_CONTROLLER_ROLE) {\n        HEX_ZONE.exitPlayer(playerAddress, gameID, zonePath[0]);\n        HEX_ZONE.enterPlayer(\n            playerAddress,\n            gameID,\n            zonePath[zonePath.length - 1]\n        );\n        for (uint256 i = 0; i < zonePath.length; i++) {\n            enableZone(zonePath[i], tiles[i], gameID);\n        }\n    }\n}\n",
  "sourcePath": "/Users/maxmeier/Developer/Lucky Machines/hexploration/contracts/HexplorationBoard.sol",
  "compiler": {
    "name": "solc",
    "version": "0.8.11+commit.d7f03943.Emscripten.clang"
  },
  "schemaVersion": "3.4.4",
  "updatedAt": "2022-05-14T16:22:27.111Z",
  "devdoc": {
    "kind": "dev",
    "methods": {
      "getRoleAdmin(bytes32)": {
        "details": "Returns the admin role that controls `role`. See {grantRole} and {revokeRole}. To change a role's admin, use {_setRoleAdmin}."
      },
      "getRoleMember(bytes32,uint256)": {
        "details": "Returns one of the accounts that have `role`. `index` must be a value between 0 and {getRoleMemberCount}, non-inclusive. Role bearers are not sorted in any particular way, and their ordering may change at any point. WARNING: When using {getRoleMember} and {getRoleMemberCount}, make sure you perform all queries on the same block. See the following https://forum.openzeppelin.com/t/iterating-over-elements-on-enumerableset-in-openzeppelin-contracts/2296[forum post] for more information."
      },
      "getRoleMemberCount(bytes32)": {
        "details": "Returns the number of accounts that have `role`. Can be used together with {getRoleMember} to enumerate all bearers of a role."
      },
      "grantRole(bytes32,address)": {
        "details": "Grants `role` to `account`. If `account` had not been already granted `role`, emits a {RoleGranted} event. Requirements: - the caller must have ``role``'s admin role."
      },
      "hasRole(bytes32,address)": {
        "details": "Returns `true` if `account` has been granted `role`."
      },
      "renounceRole(bytes32,address)": {
        "details": "Revokes `role` from the calling account. Roles are often managed via {grantRole} and {revokeRole}: this function's purpose is to provide a mechanism for accounts to lose their privileges if they are compromised (such as when a trusted device is misplaced). If the calling account had been revoked `role`, emits a {RoleRevoked} event. Requirements: - the caller must be `account`."
      },
      "revokeRole(bytes32,address)": {
        "details": "Revokes `role` from `account`. If `account` had been granted `role`, emits a {RoleRevoked} event. Requirements: - the caller must have ``role``'s admin role."
      },
      "supportsInterface(bytes4)": {
        "details": "See {IERC165-supportsInterface}."
      }
    },
    "version": 1
  },
  "userdoc": {
    "kind": "user",
    "methods": {},
    "version": 1
  }
}