{
  "contractName": "HexplorationQueue",
  "abi": [
    {
      "inputs": [
        {
          "internalType": "address",
          "name": "gameplayAddress",
          "type": "address"
        }
      ],
      "stateMutability": "nonpayable",
      "type": "constructor"
    },
    {
      "anonymous": false,
      "inputs": [
        {
          "indexed": true,
          "internalType": "bytes32",
          "name": "role",
          "type": "bytes32"
        },
        {
          "indexed": true,
          "internalType": "bytes32",
          "name": "previousAdminRole",
          "type": "bytes32"
        },
        {
          "indexed": true,
          "internalType": "bytes32",
          "name": "newAdminRole",
          "type": "bytes32"
        }
      ],
      "name": "RoleAdminChanged",
      "type": "event"
    },
    {
      "anonymous": false,
      "inputs": [
        {
          "indexed": true,
          "internalType": "bytes32",
          "name": "role",
          "type": "bytes32"
        },
        {
          "indexed": true,
          "internalType": "address",
          "name": "account",
          "type": "address"
        },
        {
          "indexed": true,
          "internalType": "address",
          "name": "sender",
          "type": "address"
        }
      ],
      "name": "RoleGranted",
      "type": "event"
    },
    {
      "anonymous": false,
      "inputs": [
        {
          "indexed": true,
          "internalType": "bytes32",
          "name": "role",
          "type": "bytes32"
        },
        {
          "indexed": true,
          "internalType": "address",
          "name": "account",
          "type": "address"
        },
        {
          "indexed": true,
          "internalType": "address",
          "name": "sender",
          "type": "address"
        }
      ],
      "name": "RoleRevoked",
      "type": "event"
    },
    {
      "inputs": [],
      "name": "DEFAULT_ADMIN_ROLE",
      "outputs": [
        {
          "internalType": "bytes32",
          "name": "",
          "type": "bytes32"
        }
      ],
      "stateMutability": "view",
      "type": "function",
      "constant": true
    },
    {
      "inputs": [],
      "name": "GAMEPLAY_ROLE",
      "outputs": [
        {
          "internalType": "bytes32",
          "name": "",
          "type": "bytes32"
        }
      ],
      "stateMutability": "view",
      "type": "function",
      "constant": true
    },
    {
      "inputs": [],
      "name": "VERIFIED_CONTROLLER_ROLE",
      "outputs": [
        {
          "internalType": "bytes32",
          "name": "",
          "type": "bytes32"
        }
      ],
      "stateMutability": "view",
      "type": "function",
      "constant": true
    },
    {
      "inputs": [
        {
          "internalType": "uint256",
          "name": "",
          "type": "uint256"
        }
      ],
      "name": "currentPhase",
      "outputs": [
        {
          "internalType": "enum HexplorationQueue.ProcessingPhase",
          "name": "",
          "type": "uint8"
        }
      ],
      "stateMutability": "view",
      "type": "function",
      "constant": true
    },
    {
      "inputs": [
        {
          "internalType": "uint256",
          "name": "",
          "type": "uint256"
        }
      ],
      "name": "currentQueuePosition",
      "outputs": [
        {
          "internalType": "uint16",
          "name": "",
          "type": "uint16"
        }
      ],
      "stateMutability": "view",
      "type": "function",
      "constant": true
    },
    {
      "inputs": [
        {
          "internalType": "uint256",
          "name": "",
          "type": "uint256"
        }
      ],
      "name": "game",
      "outputs": [
        {
          "internalType": "uint256",
          "name": "",
          "type": "uint256"
        }
      ],
      "stateMutability": "view",
      "type": "function",
      "constant": true
    },
    {
      "inputs": [
        {
          "internalType": "bytes32",
          "name": "role",
          "type": "bytes32"
        }
      ],
      "name": "getRoleAdmin",
      "outputs": [
        {
          "internalType": "bytes32",
          "name": "",
          "type": "bytes32"
        }
      ],
      "stateMutability": "view",
      "type": "function",
      "constant": true
    },
    {
      "inputs": [
        {
          "internalType": "bytes32",
          "name": "role",
          "type": "bytes32"
        },
        {
          "internalType": "uint256",
          "name": "index",
          "type": "uint256"
        }
      ],
      "name": "getRoleMember",
      "outputs": [
        {
          "internalType": "address",
          "name": "",
          "type": "address"
        }
      ],
      "stateMutability": "view",
      "type": "function",
      "constant": true
    },
    {
      "inputs": [
        {
          "internalType": "bytes32",
          "name": "role",
          "type": "bytes32"
        }
      ],
      "name": "getRoleMemberCount",
      "outputs": [
        {
          "internalType": "uint256",
          "name": "",
          "type": "uint256"
        }
      ],
      "stateMutability": "view",
      "type": "function",
      "constant": true
    },
    {
      "inputs": [
        {
          "internalType": "bytes32",
          "name": "role",
          "type": "bytes32"
        },
        {
          "internalType": "address",
          "name": "account",
          "type": "address"
        }
      ],
      "name": "grantRole",
      "outputs": [],
      "stateMutability": "nonpayable",
      "type": "function"
    },
    {
      "inputs": [
        {
          "internalType": "bytes32",
          "name": "role",
          "type": "bytes32"
        },
        {
          "internalType": "address",
          "name": "account",
          "type": "address"
        }
      ],
      "name": "hasRole",
      "outputs": [
        {
          "internalType": "bool",
          "name": "",
          "type": "bool"
        }
      ],
      "stateMutability": "view",
      "type": "function",
      "constant": true
    },
    {
      "inputs": [
        {
          "internalType": "uint256",
          "name": "",
          "type": "uint256"
        }
      ],
      "name": "inProcessingQueue",
      "outputs": [
        {
          "internalType": "bool",
          "name": "",
          "type": "bool"
        }
      ],
      "stateMutability": "view",
      "type": "function",
      "constant": true
    },
    {
      "inputs": [
        {
          "internalType": "uint256",
          "name": "",
          "type": "uint256"
        }
      ],
      "name": "playThroughPosition",
      "outputs": [
        {
          "internalType": "uint16",
          "name": "",
          "type": "uint16"
        }
      ],
      "stateMutability": "view",
      "type": "function",
      "constant": true
    },
    {
      "inputs": [
        {
          "internalType": "uint256",
          "name": "",
          "type": "uint256"
        },
        {
          "internalType": "uint256",
          "name": "",
          "type": "uint256"
        }
      ],
      "name": "playerSubmitted",
      "outputs": [
        {
          "internalType": "bool",
          "name": "",
          "type": "bool"
        }
      ],
      "stateMutability": "view",
      "type": "function",
      "constant": true
    },
    {
      "inputs": [
        {
          "internalType": "uint256",
          "name": "",
          "type": "uint256"
        },
        {
          "internalType": "uint256",
          "name": "",
          "type": "uint256"
        }
      ],
      "name": "players",
      "outputs": [
        {
          "internalType": "uint256",
          "name": "",
          "type": "uint256"
        }
      ],
      "stateMutability": "view",
      "type": "function",
      "constant": true
    },
    {
      "inputs": [
        {
          "internalType": "uint256",
          "name": "",
          "type": "uint256"
        }
      ],
      "name": "processingQueue",
      "outputs": [
        {
          "internalType": "uint256",
          "name": "",
          "type": "uint256"
        }
      ],
      "stateMutability": "view",
      "type": "function",
      "constant": true
    },
    {
      "inputs": [
        {
          "internalType": "uint256",
          "name": "",
          "type": "uint256"
        }
      ],
      "name": "queueID",
      "outputs": [
        {
          "internalType": "uint256",
          "name": "",
          "type": "uint256"
        }
      ],
      "stateMutability": "view",
      "type": "function",
      "constant": true
    },
    {
      "inputs": [
        {
          "internalType": "uint256",
          "name": "",
          "type": "uint256"
        }
      ],
      "name": "randomness",
      "outputs": [
        {
          "internalType": "uint256",
          "name": "",
          "type": "uint256"
        }
      ],
      "stateMutability": "view",
      "type": "function",
      "constant": true
    },
    {
      "inputs": [
        {
          "internalType": "bytes32",
          "name": "role",
          "type": "bytes32"
        },
        {
          "internalType": "address",
          "name": "account",
          "type": "address"
        }
      ],
      "name": "renounceRole",
      "outputs": [],
      "stateMutability": "nonpayable",
      "type": "function"
    },
    {
      "inputs": [
        {
          "internalType": "bytes32",
          "name": "role",
          "type": "bytes32"
        },
        {
          "internalType": "address",
          "name": "account",
          "type": "address"
        }
      ],
      "name": "revokeRole",
      "outputs": [],
      "stateMutability": "nonpayable",
      "type": "function"
    },
    {
      "inputs": [
        {
          "internalType": "uint256",
          "name": "",
          "type": "uint256"
        },
        {
          "internalType": "uint256",
          "name": "",
          "type": "uint256"
        }
      ],
      "name": "submissionAction",
      "outputs": [
        {
          "internalType": "enum HexplorationQueue.Action",
          "name": "",
          "type": "uint8"
        }
      ],
      "stateMutability": "view",
      "type": "function",
      "constant": true
    },
    {
      "inputs": [
        {
          "internalType": "uint256",
          "name": "",
          "type": "uint256"
        },
        {
          "internalType": "uint256",
          "name": "",
          "type": "uint256"
        }
      ],
      "name": "submissionLeftHand",
      "outputs": [
        {
          "internalType": "string",
          "name": "",
          "type": "string"
        }
      ],
      "stateMutability": "view",
      "type": "function",
      "constant": true
    },
    {
      "inputs": [
        {
          "internalType": "uint256",
          "name": "",
          "type": "uint256"
        },
        {
          "internalType": "uint256",
          "name": "",
          "type": "uint256"
        },
        {
          "internalType": "uint256",
          "name": "",
          "type": "uint256"
        }
      ],
      "name": "submissionOptions",
      "outputs": [
        {
          "internalType": "string",
          "name": "",
          "type": "string"
        }
      ],
      "stateMutability": "view",
      "type": "function",
      "constant": true
    },
    {
      "inputs": [
        {
          "internalType": "uint256",
          "name": "",
          "type": "uint256"
        },
        {
          "internalType": "uint256",
          "name": "",
          "type": "uint256"
        }
      ],
      "name": "submissionRightHand",
      "outputs": [
        {
          "internalType": "string",
          "name": "",
          "type": "string"
        }
      ],
      "stateMutability": "view",
      "type": "function",
      "constant": true
    },
    {
      "inputs": [
        {
          "internalType": "bytes4",
          "name": "interfaceId",
          "type": "bytes4"
        }
      ],
      "name": "supportsInterface",
      "outputs": [
        {
          "internalType": "bool",
          "name": "",
          "type": "bool"
        }
      ],
      "stateMutability": "view",
      "type": "function",
      "constant": true
    },
    {
      "inputs": [
        {
          "internalType": "uint256",
          "name": "",
          "type": "uint256"
        }
      ],
      "name": "totalPlayers",
      "outputs": [
        {
          "internalType": "uint256",
          "name": "",
          "type": "uint256"
        }
      ],
      "stateMutability": "view",
      "type": "function",
      "constant": true
    },
    {
      "inputs": [
        {
          "internalType": "address",
          "name": "controllerAddress",
          "type": "address"
        }
      ],
      "name": "addVerifiedController",
      "outputs": [],
      "stateMutability": "nonpayable",
      "type": "function"
    },
    {
      "inputs": [
        {
          "internalType": "uint256",
          "name": "gameID",
          "type": "uint256"
        },
        {
          "internalType": "uint256",
          "name": "_totalPlayers",
          "type": "uint256"
        }
      ],
      "name": "requestGameQueue",
      "outputs": [
        {
          "internalType": "uint256",
          "name": "",
          "type": "uint256"
        }
      ],
      "stateMutability": "nonpayable",
      "type": "function"
    },
    {
      "inputs": [
        {
          "internalType": "uint256",
          "name": "_queueID",
          "type": "uint256"
        }
      ],
      "name": "startGame",
      "outputs": [],
      "stateMutability": "nonpayable",
      "type": "function"
    },
    {
      "inputs": [
        {
          "internalType": "uint256",
          "name": "playerID",
          "type": "uint256"
        },
        {
          "internalType": "uint8",
          "name": "action",
          "type": "uint8"
        },
        {
          "internalType": "string[]",
          "name": "options",
          "type": "string[]"
        },
        {
          "internalType": "string",
          "name": "leftHand",
          "type": "string"
        },
        {
          "internalType": "string",
          "name": "rightHand",
          "type": "string"
        },
        {
          "internalType": "uint256",
          "name": "_queueID",
          "type": "uint256"
        }
      ],
      "name": "sumbitActionForPlayer",
      "outputs": [],
      "stateMutability": "nonpayable",
      "type": "function"
    },
    {
      "inputs": [
        {
          "internalType": "uint256",
          "name": "_queueID",
          "type": "uint256"
        }
      ],
      "name": "requestProcessActions",
      "outputs": [],
      "stateMutability": "nonpayable",
      "type": "function"
    },
    {
      "inputs": [
        {
          "internalType": "uint256",
          "name": "_queueID",
          "type": "uint256"
        }
      ],
      "name": "getAllPlayers",
      "outputs": [
        {
          "internalType": "uint256[]",
          "name": "",
          "type": "uint256[]"
        }
      ],
      "stateMutability": "view",
      "type": "function",
      "constant": true
    },
    {
      "inputs": [
        {
          "internalType": "uint256",
          "name": "_queueID",
          "type": "uint256"
        },
        {
          "internalType": "uint256",
          "name": "_playerID",
          "type": "uint256"
        }
      ],
      "name": "getSubmissionOptions",
      "outputs": [
        {
          "internalType": "string[]",
          "name": "",
          "type": "string[]"
        }
      ],
      "stateMutability": "view",
      "type": "function",
      "constant": true
    },
    {
      "inputs": [
        {
          "internalType": "enum HexplorationQueue.ProcessingPhase",
          "name": "phase",
          "type": "uint8"
        },
        {
          "internalType": "uint256",
          "name": "_queueID",
          "type": "uint256"
        }
      ],
      "name": "setPhase",
      "outputs": [],
      "stateMutability": "nonpayable",
      "type": "function"
    },
    {
      "inputs": [
        {
          "internalType": "uint256",
          "name": "randomNumber",
          "type": "uint256"
        },
        {
          "internalType": "uint256",
          "name": "_queueID",
          "type": "uint256"
        }
      ],
      "name": "setRandomNumber",
      "outputs": [],
      "stateMutability": "nonpayable",
      "type": "function"
    },
    {
      "inputs": [
        {
          "internalType": "uint256",
          "name": "_queueID",
          "type": "uint256"
        }
      ],
      "name": "requestNewQueueID",
      "outputs": [],
      "stateMutability": "nonpayable",
      "type": "function"
    },
    {
      "inputs": [
        {
          "internalType": "uint256",
          "name": "_queueID",
          "type": "uint256"
        },
        {
          "internalType": "bool",
          "name": "gameComplete",
          "type": "bool"
        }
      ],
      "name": "finishProcessing",
      "outputs": [],
      "stateMutability": "nonpayable",
      "type": "function"
    }
  ],
  "bytecode": "0x60806040523480156200001157600080fd5b50604051620020d8380380620020d883398101604081905262000034916200027d565b6200005c60006200004d640100000000620000b2810204565b640100000000620000b6810204565b620000917f0c2c7e957bdf811d5a896b04e816b9c382dfb980c93b21b0288b75c85d598acd82640100000000620000b6810204565b620000ab600264010000000062000dc2620000cf82021704565b50620002af565b3390565b620000cb8282640100000000620000d8810204565b5050565b80546001019055565b620000f2828264010000000062000dcb6200011f82021704565b60008281526001602052604090206200011a908264010000000062000e4f620001bb82021704565b505050565b620001348282640100000000620001e4810204565b620000cb57600082815260208181526040808320600160a060020a03851684529091529020805460ff1916600117905562000177640100000000620000b2810204565b600160a060020a031681600160a060020a0316837f2f8788117e7eff1d82e926ec794901d17c78024a50270940304540a733656f0d60405160405180910390a45050565b6000620001db83600160a060020a0384166401000000006200020d810204565b90505b92915050565b600091825260208281526040808420600160a060020a0393909316845291905290205460ff1690565b600062000224838364010000000062000265810204565b6200025c57508154600181810184556000848152602080822090930184905584548482528286019093526040902091909155620001de565b506000620001de565b60009081526001919091016020526040902054151590565b6000602082840312156200029057600080fd5b8151600160a060020a0381168114620002a857600080fd5b9392505050565b611e1980620002bf6000396000f3fe608060405234801561001057600080fd5b5060043610610214576000357c010000000000000000000000000000000000000000000000000000000090048063998f1b801161013d578063b1fb6405116100d5578063d809371f11610099578063d809371f14610593578063e2f315c1146105a6578063e5ed1d59146105ca578063e73ed37f146105dd578063fd82e21f1461060b57600080fd5b8063b1fb64051461050a578063ca15c8731461053a578063cddbe7291461054d578063d4f5b1521461056d578063d547741f1461058057600080fd5b8063998f1b80146104335780639b8e6819146104465780639bd78d2b146104595780639f6bc61d1461047c578063a217fddf1461048f578063a2dc586014610497578063ac01b83d146104b7578063ae6a7056146104d7578063af7afe56146104ea57600080fd5b80632f2ff15d116101b05780632f2ff15d1461033b57806336568abe1461034e5780635da4fabc146103615780636b775e5c146103745780637f04159114610387578063861814e2146103c25780638e6e1d89146103e25780639010d07c146103f557806391d148541461042057600080fd5b806301ffc9a71461021957806304ac8fee1461024157806306fb5527146102565780630c6ea531146102775780631b1d5b27146102ae5780631b341b3e146102ce5780631c834a7f146102ee578063248a9ca31461030357806328d6b4c014610326575b600080fd5b61022c610227366004611779565b61061e565b60405190151581526020015b60405180910390f35b61025461024f3660046117a3565b610662565b005b6102696102643660046117d3565b6106af565b604051908152602001610238565b61029b6102853660046117f5565b60046020526000908152604090205461ffff1681565b60405161ffff9091168152602001610238565b6102696102bc3660046117f5565b600c6020526000908152604090205481565b6102e16102dc36600461180e565b6106db565b6040516102389190611892565b610269600080516020611dc483398151915281565b6102696103113660046117f5565b60009081526020819052604090206001015490565b610269600080516020611da483398151915281565b6102546103493660046118c1565b6107a1565b61025461035c3660046118c1565b6107cb565b61025461036f3660046117d3565b61085f565b6102546103823660046117f5565b610889565b6103b56103953660046117d3565b600d60209081526000928352604080842090915290825290205460ff1681565b6040516102389190611906565b6102696103d03660046117f5565b60066020526000908152604090205481565b6102546103f0366004611920565b6108aa565b6104086104033660046117d3565b6108cc565b604051600160a060020a039091168152602001610238565b61022c61042e3660046118c1565b6108eb565b6102696104413660046117d3565b610914565b6102e16104543660046117d3565b610945565b61022c6104673660046117f5565b60076020526000908152604090205460ff1681565b61026961048a3660046117f5565b610969565b610269600081565b6104aa6104a53660046117d3565b61098a565b6040516102389190611955565b6104ca6104c53660046117f5565b610a78565b60405161023891906119b6565b6102546104e5366004611b52565b610ada565b6102696104f83660046117f5565b600b6020526000908152604090205481565b61052d6105183660046117f5565b60086020526000908152604090205460ff1681565b6040516102389190611c05565b6102696105483660046117f5565b610cb6565b61026961055b3660046117f5565b60096020526000908152604090205481565b61025461057b366004611c19565b610ccd565b61025461058e3660046118c1565b610cf0565b6102546105a13660046117f5565b610d15565b61029b6105b43660046117f5565b60056020526000908152604090205461ffff1681565b6102546105d83660046117f5565b610d6a565b61022c6105eb3660046117d3565b601160209081526000928352604080842090915290825290205460ff1681565b6102e16106193660046117d3565b610d9e565b6000600160e060020a031982167f5a05180f00000000000000000000000000000000000000000000000000000000148061065c575061065c82610e64565b92915050565b600080516020611da483398151915261067a81610ecb565b6000828152600860205260409020805484919060ff191660018360058111156106a5576106a56118ed565b0217905550505050565b6000600080516020611dc48339815191526106c981610ecb565b6106d38484610ed8565b949350505050565b600e602052826000526040600020602052816000526040600020818154811061070357600080fd5b906000526020600020016000925092505050805461072090611c34565b80601f016020809104026020016040519081016040528092919081815260200182805461074c90611c34565b80156107995780601f1061076e57610100808354040283529160200191610799565b820191906000526020600020905b81548152906001019060200180831161077c57829003601f168201915b505050505081565b6000828152602081905260409020600101546107bc81610ecb565b6107c68383610f80565b505050565b600160a060020a03811633146108515760405160e560020a62461bcd02815260206004820152602f60248201527f416363657373436f6e74726f6c3a2063616e206f6e6c792072656e6f756e636560448201527f20726f6c657320666f722073656c66000000000000000000000000000000000060648201526084015b60405180910390fd5b61085b8282610fa2565b5050565b600080516020611da483398151915261087781610ecb565b506000908152600c6020526040902055565b600080516020611dc48339815191526108a181610ecb565b61085b82610fc4565b600080516020611da48339815191526108c281610ecb565b6107c68383611073565b60008281526001602052604081206108e490836110f3565b9392505050565b600091825260208281526040808420600160a060020a0393909316845291905290205460ff1690565b600a602052816000526040600020818154811061093057600080fd5b90600052602060002001600091509150505481565b60106020908152600092835260408084209091529082529020805461072090611c34565b6003818154811061097957600080fd5b600091825260209091200154905081565b6000828152600e602090815260408083208484528252808320805482518185028101850190935280835260609492939192909184015b82821015610a6c5783829060005260206000200180546109df90611c34565b80601f0160208091040260200160405190810160405280929190818152602001828054610a0b90611c34565b8015610a585780601f10610a2d57610100808354040283529160200191610a58565b820191906000526020600020905b815481529060010190602001808311610a3b57829003601f168201915b5050505050815260200190600101906109c0565b50505050905092915050565b6000818152600a6020908152604091829020805483518184028101840190945280845260609392830182828015610ace57602002820191906000526020600020905b815481526020019060010190808311610aba575b50505050509050919050565b600080516020611dc4833981519152610af281610ecb565b600160008381526008602052604090205460ff166005811115610b1757610b176118ed565b14610b675760405160e560020a62461bcd02815260206004820152601460248201527f4e6f74207375626d697373696f6e2070686173650000000000000000000000006044820152606401610848565b60008281526011602090815260408083208a845290915290205460ff16610cad578560ff166006811115610b9d57610b9d6118ed565b6000838152600d602090815260408083208b84529091529020805460ff19166001836006811115610bd057610bd06118ed565b02179055506000828152600e602090815260408083208a845282529091208651610bfc92880190611630565b506000828152600f602090815260408083208a845282529091208551610c249287019061168d565b5060008281526010602090815260408083208a845282529091208451610c4c9286019061168d565b506000828152600a602081815260408084208054600181810183558287528487209091018d9055878652601184528286208d87528452828620805460ff19169091179055868552600b8352932054919052905410610cad57610cad82610fc4565b50505050505050565b600081815260016020526040812061065c906110ff565b6000610cd881610ecb565b61085b600080516020611dc4833981519152836107a1565b600082815260208190526040902060010154610d0b81610ecb565b6107c68383610fa2565b600080516020611da4833981519152610d2d81610ecb565b600082815260096020908152604080832054600b90925290912054610d528282610ed8565b60009283526006602052604090922091909155505050565b600080516020611dc4833981519152610d8281610ecb565b506000908152600860205260409020805460ff19166001179055565b600f6020908152600092835260408084209091529082529020805461072090611c34565b80546001019055565b610dd582826108eb565b61085b57600082815260208181526040808320600160a060020a03851684529091529020805460ff19166001179055610e0b3390565b600160a060020a031681600160a060020a0316837f2f8788117e7eff1d82e926ec794901d17c78024a50270940304540a733656f0d60405160405180910390a45050565b60006108e483600160a060020a038416611109565b6000600160e060020a031982167f7965db0b00000000000000000000000000000000000000000000000000000000148061065c57507f01ffc9a700000000000000000000000000000000000000000000000000000000600160e060020a031983161461065c565b610ed58133611158565b50565b60008281526006602052604081205415610f375760405160e560020a62461bcd02815260206004820152601160248201527f717565756520616c7265616479207365740000000000000000000000000000006044820152606401610848565b6000610f4260025490565b600081815260096020908152604080832088905587835260068252808320849055838352600b909152902084905590506108e4600280546001019055565b610f8a8282610dcb565b60008281526001602052604090206107c69082610e4f565b610fac82826111bf565b60008281526001602052604090206107c69082611224565b60008181526007602052604090205460ff161580156110055750600160008281526008602052604090205460ff166005811115611003576110036118ed565b145b15610ed5576003805460018082019092557fc2575a0e9e593c00f959f8c92f12db2869c3395a3b0502d05e2516446f71f85b018290556000828152600760209081526040808320805460ff1990811690951790556008909152902080549091166002179055610ed581611239565b60008281526009602090815260408083205460088352818420805460ff191660041790558084526006909252822091909155816107c6576000838152600b6020526040812054906110c48383610ed8565b600093845260066020908152604080862083905591855260089052909220805460ff1916600117905550505050565b60006108e483836112d0565b600061065c825490565b60008181526001830160205260408120546111505750815460018181018455600084815260208082209093018490558454848252828601909352604090209190915561065c565b50600061065c565b61116282826108eb565b61085b5761117a81600160a060020a031660146112fa565b6111858360206112fa565b604051602001611196929190611c72565b60408051601f198184030181529082905260e560020a62461bcd02825261084891600401611892565b6111c982826108eb565b1561085b57600082815260208181526040808320600160a060020a0385168085529252808320805460ff1916905551339285917ff6391f5c32d9c69d2a47ea670b442974b53935d1edc7fd64eb21e047a839171b9190a45050565b60006108e483600160a060020a0384166114fc565b600081815260126020908152604080832084905551839291611268914291859101918252602082015260400190565b60408051601f198184030181528282528051602091820120600180855284840190935293506000929190808301908036833701905050905081816000815181106112b4576112b4611cf3565b6020026020010181815250506112ca83826115ef565b50505050565b60008260000182815481106112e7576112e7611cf3565b9060005260206000200154905092915050565b60606000611309836002611d25565b611314906002611d44565b67ffffffffffffffff81111561132c5761132c6119fa565b6040519080825280601f01601f191660200182016040528015611356576020820181803683370190505b5090507f30000000000000000000000000000000000000000000000000000000000000008160008151811061138d5761138d611cf3565b6020010190600160f860020a031916908160001a9053507f7800000000000000000000000000000000000000000000000000000000000000816001815181106113d8576113d8611cf3565b6020010190600160f860020a031916908160001a90535060006113fc846002611d25565b611407906001611d44565b90505b60018111156114aa577f303132333435363738396162636465660000000000000000000000000000000085600f166010811061144857611448611cf3565b1a7f01000000000000000000000000000000000000000000000000000000000000000282828151811061147d5761147d611cf3565b6020010190600160f860020a031916908160001a9053506010909404936114a381611d5c565b905061140a565b5083156108e45760405160e560020a62461bcd02815260206004820181905260248201527f537472696e67733a20686578206c656e67746820696e73756666696369656e746044820152606401610848565b600081815260018301602052604081205480156115e5576000611520600183611d73565b855490915060009061153490600190611d73565b905081811461159957600086600001828154811061155457611554611cf3565b906000526020600020015490508087600001848154811061157757611577611cf3565b6000918252602080832090910192909255918252600188019052604090208390555b85548690806115aa576115aa611d8a565b60019003818190600052602060002001600090559055856001016000868152602001908152602001600020600090556001935050505061065c565b600091505061065c565b60008281526012602052604081205482519091839161161057611610611cf3565b6020908102919091018101516000928352600c9091526040909120555050565b82805482825590600052602060002090810192821561167d579160200282015b8281111561167d578251805161166d91849160209091019061168d565b5091602001919060010190611650565b5061168992915061170d565b5090565b82805461169990611c34565b90600052602060002090601f0160209004810192826116bb5760008555611701565b82601f106116d457805160ff1916838001178555611701565b82800160010185558215611701579182015b828111156117015782518255916020019190600101906116e6565b5061168992915061172a565b80821115611689576000611721828261173f565b5060010161170d565b5b80821115611689576000815560010161172b565b50805461174b90611c34565b6000825580601f1061175b575050565b601f016020900490600052602060002090810190610ed5919061172a565b60006020828403121561178b57600080fd5b8135600160e060020a0319811681146108e457600080fd5b600080604083850312156117b657600080fd5b8235600681106117c557600080fd5b946020939093013593505050565b600080604083850312156117e657600080fd5b50508035926020909101359150565b60006020828403121561180757600080fd5b5035919050565b60008060006060848603121561182357600080fd5b505081359360208301359350604090920135919050565b60005b8381101561185557818101518382015260200161183d565b838111156112ca5750506000910152565b6000815180845261187e81602086016020860161183a565b601f01601f19169290920160200192915050565b6020815260006108e46020830184611866565b8035600160a060020a03811681146118bc57600080fd5b919050565b600080604083850312156118d457600080fd5b823591506118e4602084016118a5565b90509250929050565b60e060020a634e487b7102600052602160045260246000fd5b602081016007831061191a5761191a6118ed565b91905290565b6000806040838503121561193357600080fd5b823591506020830135801515811461194a57600080fd5b809150509250929050565b600060208083018184528085518083526040860191506040848202870101925083870160005b828110156119a957603f19888603018452611997858351611866565b9450928501929085019060010161197b565b5092979650505050505050565b6020808252825182820181905260009190848201906040850190845b818110156119ee578351835292840192918401916001016119d2565b50909695505050505050565b60e060020a634e487b7102600052604160045260246000fd5b604051601f8201601f1916810167ffffffffffffffff81118282101715611a3c57611a3c6119fa565b604052919050565b600082601f830112611a5557600080fd5b813567ffffffffffffffff811115611a6f57611a6f6119fa565b611a82601f8201601f1916602001611a13565b818152846020838601011115611a9757600080fd5b816020850160208301376000918101602001919091529392505050565b600082601f830112611ac557600080fd5b8135602067ffffffffffffffff80831115611ae257611ae26119fa565b818302611af0838201611a13565b9384528581018301938381019088861115611b0a57600080fd5b84880192505b85831015611b4657823584811115611b285760008081fd5b611b368a87838c0101611a44565b8352509184019190840190611b10565b98975050505050505050565b60008060008060008060c08789031215611b6b57600080fd5b86359550602087013560ff81168114611b8357600080fd5b9450604087013567ffffffffffffffff80821115611ba057600080fd5b611bac8a838b01611ab4565b95506060890135915080821115611bc257600080fd5b611bce8a838b01611a44565b94506080890135915080821115611be457600080fd5b50611bf189828a01611a44565b92505060a087013590509295509295509295565b602081016006831061191a5761191a6118ed565b600060208284031215611c2b57600080fd5b6108e4826118a5565b600281046001821680611c4857607f821691505b60208210811415611c6c5760e060020a634e487b7102600052602260045260246000fd5b50919050565b7f416363657373436f6e74726f6c3a206163636f756e7420000000000000000000815260008351611caa81601785016020880161183a565b7f206973206d697373696e6720726f6c65200000000000000000000000000000006017918401918201528351611ce781602884016020880161183a565b01602801949350505050565b60e060020a634e487b7102600052603260045260246000fd5b60e060020a634e487b7102600052601160045260246000fd5b6000816000190483118215151615611d3f57611d3f611d0c565b500290565b60008219821115611d5757611d57611d0c565b500190565b600081611d6b57611d6b611d0c565b506000190190565b600082821015611d8557611d85611d0c565b500390565b60e060020a634e487b7102600052603160045260246000fdfe0c2c7e957bdf811d5a896b04e816b9c382dfb980c93b21b0288b75c85d598acd80e2196015fc06a9d891759f8e4f51eb314ef5e9ea068528a8ed0063b87759f0a2646970667358221220051a8391bc0ed525e3a57f2e0f830595b4e744222a41f9548e625a5fbee15f7764736f6c634300080b0033",
  "immutableReferences": {},
  "source": "// SPDX-License-Identifier: GPL-3.0\npragma solidity >=0.7.0 <0.9.0;\n\nimport \"@openzeppelin/contracts/access/AccessControlEnumerable.sol\";\nimport \"@openzeppelin/contracts/utils/Counters.sol\";\nimport \"./HexplorationStateUpdate.sol\";\n\ncontract HexplorationQueue is AccessControlEnumerable {\n    using Counters for Counters.Counter;\n    Counters.Counter internal QUEUE_ID;\n\n    enum ProcessingPhase {\n        Start,\n        Submission,\n        Processing,\n        PlayThrough,\n        Processed,\n        Closed\n    }\n    enum Action {\n        Idle,\n        Move,\n        SetupCamp,\n        BreakDownCamp,\n        Dig,\n        Rest,\n        Help\n    }\n\n    bytes32 public constant VERIFIED_CONTROLLER_ROLE =\n        keccak256(\"VERIFIED_CONTROLLER_ROLE\");\n    bytes32 public constant GAMEPLAY_ROLE = keccak256(\"GAMEPLAY_ROLE\");\n\n    // Array of Queue IDs to be processed.\n    uint256[] public processingQueue;\n\n    // do we need these 2?\n    mapping(uint256 => uint16) public currentQueuePosition; // ?? increases with each player in queue, then back to 0\n    mapping(uint256 => uint16) public playThroughPosition; // ?? in case we need to batch this too... hopefully not.\n\n    // mapping from game ID\n    mapping(uint256 => uint256) public queueID; // mapping from game ID to it's queue, updates to 0 when finished\n\n    // mappings from queue index\n    mapping(uint256 => bool) public inProcessingQueue; // game queue is in processing queue\n    mapping(uint256 => ProcessingPhase) public currentPhase; // processingPhase\n    mapping(uint256 => uint256) public game; // mapping from queue ID to it's game ID\n    mapping(uint256 => uint256[]) public players; // all players with moves to process\n    mapping(uint256 => uint256) public totalPlayers; // total # of players who will be submitting\n    mapping(uint256 => uint256) public randomness; // randomness delivered here at start of each phase processing\n\n    // mappings from queue index => player id\n    mapping(uint256 => mapping(uint256 => Action)) public submissionAction;\n    mapping(uint256 => mapping(uint256 => string[])) public submissionOptions;\n    mapping(uint256 => mapping(uint256 => string)) public submissionLeftHand;\n    mapping(uint256 => mapping(uint256 => string)) public submissionRightHand;\n    mapping(uint256 => mapping(uint256 => bool)) public playerSubmitted;\n\n    // From request ID => queue ID\n    mapping(uint256 => uint256) internal randomnessRequestQueueID; // ID set before randomness delivered\n\n    ///////  VRF can kick off processing phase\n\n    constructor(address gameplayAddress) {\n        _setupRole(DEFAULT_ADMIN_ROLE, _msgSender());\n        _setupRole(GAMEPLAY_ROLE, gameplayAddress);\n        QUEUE_ID.increment(); // start at 1\n    }\n\n    // Can set multiple VCs, one for manual pushing, one for keeper\n    function addVerifiedController(address controllerAddress)\n        public\n        onlyRole(DEFAULT_ADMIN_ROLE)\n    {\n        grantRole(VERIFIED_CONTROLLER_ROLE, controllerAddress);\n    }\n\n    // pass total # players making submissions\n    // total can be less than actual totalPlayers in game\n    function requestGameQueue(uint256 gameID, uint256 _totalPlayers)\n        external\n        onlyRole(VERIFIED_CONTROLLER_ROLE)\n        returns (uint256)\n    {\n        return _requestGameQueue(gameID, _totalPlayers);\n    }\n\n    // Sent from controller\n\n    function startGame(uint256 _queueID)\n        public\n        onlyRole(VERIFIED_CONTROLLER_ROLE)\n    {\n        currentPhase[_queueID] = ProcessingPhase.Submission;\n    }\n\n    function sumbitActionForPlayer(\n        uint256 playerID,\n        uint8 action,\n        string[] memory options,\n        string memory leftHand,\n        string memory rightHand,\n        uint256 _queueID\n    ) public onlyRole(VERIFIED_CONTROLLER_ROLE) {\n        require(\n            currentPhase[_queueID] == ProcessingPhase.Submission,\n            \"Not submission phase\"\n        );\n        if (!playerSubmitted[_queueID][playerID]) {\n            submissionAction[_queueID][playerID] = Action(action);\n            submissionOptions[_queueID][playerID] = options;\n            submissionLeftHand[_queueID][playerID] = leftHand;\n            submissionRightHand[_queueID][playerID] = rightHand;\n\n            players[_queueID].push(playerID);\n            playerSubmitted[_queueID][playerID] = true;\n            // automatically add to queue if last player to submit move\n            if (players[_queueID].length >= totalPlayers[_queueID]) {\n                _processAllActions(_queueID);\n            }\n        }\n    }\n\n    // Will get processed once keeper is available\n    // and previous game queues have been processed\n    function requestProcessActions(uint256 _queueID)\n        public\n        onlyRole(VERIFIED_CONTROLLER_ROLE)\n    {\n        _processAllActions(_queueID);\n    }\n\n    function getAllPlayers(uint256 _queueID)\n        public\n        view\n        returns (uint256[] memory)\n    {\n        return players[_queueID];\n    }\n\n    function getSubmissionOptions(uint256 _queueID, uint256 _playerID)\n        public\n        view\n        returns (string[] memory)\n    {\n        return submissionOptions[_queueID][_playerID];\n    }\n\n    // Gameplay interactions\n    function setPhase(ProcessingPhase phase, uint256 _queueID)\n        external\n        onlyRole(GAMEPLAY_ROLE)\n    {\n        currentPhase[_queueID] = phase;\n    }\n\n    function setRandomNumber(uint256 randomNumber, uint256 _queueID)\n        external\n        onlyRole(GAMEPLAY_ROLE)\n    {\n        randomness[_queueID] = randomNumber;\n    }\n\n    function requestNewQueueID(uint256 _queueID)\n        external\n        onlyRole(GAMEPLAY_ROLE)\n    {\n        uint256 g = game[_queueID];\n        uint256 tp = totalPlayers[_queueID];\n        queueID[g] = _requestGameQueue(g, tp);\n    }\n\n    function finishProcessing(uint256 _queueID, bool gameComplete)\n        public\n        onlyRole(GAMEPLAY_ROLE)\n    {\n        _setProcessingComplete(_queueID, gameComplete);\n    }\n\n    function _setProcessingComplete(uint256 _queueID, bool gameComplete)\n        internal\n    {\n        uint256 g = game[_queueID];\n        currentPhase[_queueID] = ProcessingPhase.Processed;\n        queueID[g] = 0;\n        if (!gameComplete) {\n            // get new queue ID for next set of player actions\n            uint256 tp = totalPlayers[_queueID];\n            uint256 newQueueID = _requestGameQueue(g, tp);\n            queueID[g] = newQueueID;\n            currentPhase[newQueueID] = ProcessingPhase.Submission;\n        }\n    }\n\n    // Internal\n    function _processAllActions(uint256 _queueID) internal {\n        // Can only add unique unprocessed game queues into processing queue\n        if (\n            !inProcessingQueue[_queueID] &&\n            currentPhase[_queueID] == ProcessingPhase.Submission\n        ) {\n            processingQueue.push(_queueID);\n            inProcessingQueue[_queueID] = true;\n            currentPhase[_queueID] = ProcessingPhase.Processing;\n            // request random number for phase\n            requestRandomWords(_queueID);\n        }\n    }\n\n    function requestRandomWords(uint256 _queueID) internal {\n        // randomnessRequestID[_queueID] = COORDINATOR.requestRandomWords(\n        //   keyHash,\n        //   s_subscriptionId,\n        //   requestConfirmations,\n        //   callbackGasLimit,\n        //   numWords\n        // );\n\n        //set faux id + randomness\n        uint256 reqID = _queueID;\n        randomnessRequestQueueID[reqID] = _queueID;\n        uint256 random = uint256(keccak256(abi.encode(block.timestamp, reqID)));\n        uint256[] memory randomWords = new uint256[](1);\n        randomWords[0] = random;\n        fulfillRandomWords(reqID, randomWords);\n    }\n\n    function fulfillRandomWords(uint256 requestID, uint256[] memory randomWords)\n        internal\n    {\n        uint256 qID = randomnessRequestQueueID[requestID];\n        randomness[qID] = randomWords[0];\n    }\n\n    function _requestGameQueue(uint256 gameID, uint256 _totalPlayers)\n        internal\n        returns (uint256)\n    {\n        /*\n    mapping(uint256 => uint256) public queueID; // mapping from game ID to it's queue, updates to 0 when finished\n    mapping(uint256 => uint256) public game; // mapping from queue ID to it's game ID\n    mapping(uint256 => uint256[]) public players; // all players with moves to process\n    mapping(uint256 => uint16) public totalPlayers;\n        */\n        require(queueID[gameID] == 0, \"queue already set\");\n        uint256 newQueueID = QUEUE_ID.current();\n        game[newQueueID] = gameID;\n        queueID[gameID] = newQueueID;\n        totalPlayers[newQueueID] = _totalPlayers;\n        QUEUE_ID.increment();\n        return newQueueID;\n    }\n}\n",
  "sourcePath": "/Users/maxmeier/Developer/Lucky Machines/hexploration/contracts/HexplorationQueue.sol",
  "compiler": {
    "name": "solc",
    "version": "0.8.11+commit.d7f03943.Emscripten.clang"
  },
  "schemaVersion": "3.4.4",
  "updatedAt": "2022-05-23T22:02:58.786Z",
  "networkType": "ethereum",
  "devdoc": {
    "kind": "dev",
    "methods": {
      "getRoleAdmin(bytes32)": {
        "details": "Returns the admin role that controls `role`. See {grantRole} and {revokeRole}. To change a role's admin, use {_setRoleAdmin}."
      },
      "getRoleMember(bytes32,uint256)": {
        "details": "Returns one of the accounts that have `role`. `index` must be a value between 0 and {getRoleMemberCount}, non-inclusive. Role bearers are not sorted in any particular way, and their ordering may change at any point. WARNING: When using {getRoleMember} and {getRoleMemberCount}, make sure you perform all queries on the same block. See the following https://forum.openzeppelin.com/t/iterating-over-elements-on-enumerableset-in-openzeppelin-contracts/2296[forum post] for more information."
      },
      "getRoleMemberCount(bytes32)": {
        "details": "Returns the number of accounts that have `role`. Can be used together with {getRoleMember} to enumerate all bearers of a role."
      },
      "grantRole(bytes32,address)": {
        "details": "Grants `role` to `account`. If `account` had not been already granted `role`, emits a {RoleGranted} event. Requirements: - the caller must have ``role``'s admin role."
      },
      "hasRole(bytes32,address)": {
        "details": "Returns `true` if `account` has been granted `role`."
      },
      "renounceRole(bytes32,address)": {
        "details": "Revokes `role` from the calling account. Roles are often managed via {grantRole} and {revokeRole}: this function's purpose is to provide a mechanism for accounts to lose their privileges if they are compromised (such as when a trusted device is misplaced). If the calling account had been revoked `role`, emits a {RoleRevoked} event. Requirements: - the caller must be `account`."
      },
      "revokeRole(bytes32,address)": {
        "details": "Revokes `role` from `account`. If `account` had been granted `role`, emits a {RoleRevoked} event. Requirements: - the caller must have ``role``'s admin role."
      },
      "supportsInterface(bytes4)": {
        "details": "See {IERC165-supportsInterface}."
      }
    },
    "version": 1
  },
  "userdoc": {
    "kind": "user",
    "methods": {},
    "version": 1
  }
}