{
  "contractName": "Item",
  "abi": [
    {
      "inputs": [
        {
          "internalType": "address",
          "name": "controllerAddress",
          "type": "address"
        }
      ],
      "stateMutability": "nonpayable",
      "type": "constructor"
    },
    {
      "anonymous": false,
      "inputs": [
        {
          "indexed": true,
          "internalType": "bytes32",
          "name": "role",
          "type": "bytes32"
        },
        {
          "indexed": true,
          "internalType": "bytes32",
          "name": "previousAdminRole",
          "type": "bytes32"
        },
        {
          "indexed": true,
          "internalType": "bytes32",
          "name": "newAdminRole",
          "type": "bytes32"
        }
      ],
      "name": "RoleAdminChanged",
      "type": "event"
    },
    {
      "anonymous": false,
      "inputs": [
        {
          "indexed": true,
          "internalType": "bytes32",
          "name": "role",
          "type": "bytes32"
        },
        {
          "indexed": true,
          "internalType": "address",
          "name": "account",
          "type": "address"
        },
        {
          "indexed": true,
          "internalType": "address",
          "name": "sender",
          "type": "address"
        }
      ],
      "name": "RoleGranted",
      "type": "event"
    },
    {
      "anonymous": false,
      "inputs": [
        {
          "indexed": true,
          "internalType": "bytes32",
          "name": "role",
          "type": "bytes32"
        },
        {
          "indexed": true,
          "internalType": "address",
          "name": "account",
          "type": "address"
        },
        {
          "indexed": true,
          "internalType": "address",
          "name": "sender",
          "type": "address"
        }
      ],
      "name": "RoleRevoked",
      "type": "event"
    },
    {
      "anonymous": false,
      "inputs": [
        {
          "indexed": true,
          "internalType": "uint256",
          "name": "gameID",
          "type": "uint256"
        },
        {
          "indexed": true,
          "internalType": "uint256",
          "name": "fromID",
          "type": "uint256"
        },
        {
          "indexed": true,
          "internalType": "uint256",
          "name": "toID",
          "type": "uint256"
        },
        {
          "indexed": false,
          "internalType": "address",
          "name": "controller",
          "type": "address"
        },
        {
          "indexed": false,
          "internalType": "string",
          "name": "tokenType",
          "type": "string"
        },
        {
          "indexed": false,
          "internalType": "uint256",
          "name": "value",
          "type": "uint256"
        }
      ],
      "name": "Transfer",
      "type": "event"
    },
    {
      "inputs": [],
      "name": "CONTROLLER_ROLE",
      "outputs": [
        {
          "internalType": "bytes32",
          "name": "",
          "type": "bytes32"
        }
      ],
      "stateMutability": "view",
      "type": "function",
      "constant": true
    },
    {
      "inputs": [],
      "name": "DEFAULT_ADMIN_ROLE",
      "outputs": [
        {
          "internalType": "bytes32",
          "name": "",
          "type": "bytes32"
        }
      ],
      "stateMutability": "view",
      "type": "function",
      "constant": true
    },
    {
      "inputs": [
        {
          "internalType": "string[]",
          "name": "_tokenTypes",
          "type": "string[]"
        }
      ],
      "name": "addTokenTypes",
      "outputs": [],
      "stateMutability": "nonpayable",
      "type": "function"
    },
    {
      "inputs": [
        {
          "internalType": "string",
          "name": "",
          "type": "string"
        },
        {
          "internalType": "uint256",
          "name": "",
          "type": "uint256"
        },
        {
          "internalType": "uint256",
          "name": "",
          "type": "uint256"
        }
      ],
      "name": "balance",
      "outputs": [
        {
          "internalType": "uint256",
          "name": "",
          "type": "uint256"
        }
      ],
      "stateMutability": "view",
      "type": "function",
      "constant": true
    },
    {
      "inputs": [
        {
          "internalType": "bytes32",
          "name": "role",
          "type": "bytes32"
        }
      ],
      "name": "getRoleAdmin",
      "outputs": [
        {
          "internalType": "bytes32",
          "name": "",
          "type": "bytes32"
        }
      ],
      "stateMutability": "view",
      "type": "function",
      "constant": true
    },
    {
      "inputs": [
        {
          "internalType": "bytes32",
          "name": "role",
          "type": "bytes32"
        },
        {
          "internalType": "uint256",
          "name": "index",
          "type": "uint256"
        }
      ],
      "name": "getRoleMember",
      "outputs": [
        {
          "internalType": "address",
          "name": "",
          "type": "address"
        }
      ],
      "stateMutability": "view",
      "type": "function",
      "constant": true
    },
    {
      "inputs": [
        {
          "internalType": "bytes32",
          "name": "role",
          "type": "bytes32"
        }
      ],
      "name": "getRoleMemberCount",
      "outputs": [
        {
          "internalType": "uint256",
          "name": "",
          "type": "uint256"
        }
      ],
      "stateMutability": "view",
      "type": "function",
      "constant": true
    },
    {
      "inputs": [],
      "name": "getTokenTypes",
      "outputs": [
        {
          "internalType": "string[]",
          "name": "",
          "type": "string[]"
        }
      ],
      "stateMutability": "view",
      "type": "function",
      "constant": true
    },
    {
      "inputs": [
        {
          "internalType": "bytes32",
          "name": "role",
          "type": "bytes32"
        },
        {
          "internalType": "address",
          "name": "account",
          "type": "address"
        }
      ],
      "name": "grantRole",
      "outputs": [],
      "stateMutability": "nonpayable",
      "type": "function"
    },
    {
      "inputs": [
        {
          "internalType": "bytes32",
          "name": "role",
          "type": "bytes32"
        },
        {
          "internalType": "address",
          "name": "account",
          "type": "address"
        }
      ],
      "name": "hasRole",
      "outputs": [
        {
          "internalType": "bool",
          "name": "",
          "type": "bool"
        }
      ],
      "stateMutability": "view",
      "type": "function",
      "constant": true
    },
    {
      "inputs": [
        {
          "internalType": "string",
          "name": "tokenType",
          "type": "string"
        },
        {
          "internalType": "uint256",
          "name": "gameID",
          "type": "uint256"
        },
        {
          "internalType": "uint256",
          "name": "quantity",
          "type": "uint256"
        }
      ],
      "name": "mint",
      "outputs": [],
      "stateMutability": "nonpayable",
      "type": "function"
    },
    {
      "inputs": [
        {
          "internalType": "bytes32",
          "name": "role",
          "type": "bytes32"
        },
        {
          "internalType": "address",
          "name": "account",
          "type": "address"
        }
      ],
      "name": "renounceRole",
      "outputs": [],
      "stateMutability": "nonpayable",
      "type": "function"
    },
    {
      "inputs": [
        {
          "internalType": "bytes32",
          "name": "role",
          "type": "bytes32"
        },
        {
          "internalType": "address",
          "name": "account",
          "type": "address"
        }
      ],
      "name": "revokeRole",
      "outputs": [],
      "stateMutability": "nonpayable",
      "type": "function"
    },
    {
      "inputs": [
        {
          "internalType": "bytes4",
          "name": "interfaceId",
          "type": "bytes4"
        }
      ],
      "name": "supportsInterface",
      "outputs": [
        {
          "internalType": "bool",
          "name": "",
          "type": "bool"
        }
      ],
      "stateMutability": "view",
      "type": "function",
      "constant": true
    },
    {
      "inputs": [
        {
          "internalType": "uint256",
          "name": "",
          "type": "uint256"
        }
      ],
      "name": "tokenTypes",
      "outputs": [
        {
          "internalType": "string",
          "name": "",
          "type": "string"
        }
      ],
      "stateMutability": "view",
      "type": "function",
      "constant": true
    },
    {
      "inputs": [
        {
          "internalType": "string",
          "name": "tokenType",
          "type": "string"
        },
        {
          "internalType": "uint256",
          "name": "gameID",
          "type": "uint256"
        },
        {
          "internalType": "uint256",
          "name": "fromID",
          "type": "uint256"
        },
        {
          "internalType": "uint256",
          "name": "toID",
          "type": "uint256"
        },
        {
          "internalType": "uint256",
          "name": "quantity",
          "type": "uint256"
        }
      ],
      "name": "transfer",
      "outputs": [],
      "stateMutability": "nonpayable",
      "type": "function"
    }
  ],
  "bytecode": "0x60806040523480156200001157600080fd5b5060405162002b3e38038062002b3e833981016040819052620000349162001319565b806200005d60006200004e64010000000062000caf810204565b64010000000062000cb3810204565b620000927f7b765e0e932d348852a6f810bfa1ab891e259123f02db8cdcde614c5702233578264010000000062000cb3810204565b506040805160238082526104808201909252600091816020015b6060815260200190600190039081620000ac5790505090506040518060400160405280600a81526020017f536d616c6c20416d6d6f000000000000000000000000000000000000000000008152508160008151811062000110576200011062001373565b60200260200101819052506040518060400160405280600a81526020017f4c6172676520416d6d6f000000000000000000000000000000000000000000008152508160018151811062000167576200016762001373565b60200260200101819052506040518060400160405280600981526020017f426174746572696573000000000000000000000000000000000000000000000081525081600281518110620001be57620001be62001373565b60200260200101819052506040518060400160405280600681526020017f536869656c6400000000000000000000000000000000000000000000000000008152508160038151811062000215576200021562001373565b60200260200101819052506040518060400160405280600681526020017f506f7274616c0000000000000000000000000000000000000000000000000000815250816004815181106200026c576200026c62001373565b60200260200101819052506040518060400160405280600281526020017f4f6e00000000000000000000000000000000000000000000000000000000000081525081600581518110620002c357620002c362001373565b60200260200101819052506040518060400160405280600381526020017f4f66660000000000000000000000000000000000000000000000000000000000815250816006815181106200031a576200031a62001373565b60200260200101819052506040518060400160405280600c81526020017f52757374792044616767657200000000000000000000000000000000000000008152508160078151811062000371576200037162001373565b60200260200101819052506040518060400160405280600b81526020017f52757374792053776f726400000000000000000000000000000000000000000081525081600881518110620003c857620003c862001373565b60200260200101819052506040518060400160405280600c81526020017f527573747920506973746f6c0000000000000000000000000000000000000000815250816009815181106200041f576200041f62001373565b60200260200101819052506040518060400160405280600b81526020017f5275737479205269666c6500000000000000000000000000000000000000000081525081600a8151811062000476576200047662001373565b60200260200101819052506040518060400160405280600c81526020017f5368696e7920446167676572000000000000000000000000000000000000000081525081600b81518110620004cd57620004cd62001373565b60200260200101819052506040518060400160405280600b81526020017f5368696e792053776f726400000000000000000000000000000000000000000081525081600c8151811062000524576200052462001373565b60200260200101819052506040518060400160405280600c81526020017f5368696e7920506973746f6c000000000000000000000000000000000000000081525081600d815181106200057b576200057b62001373565b60200260200101819052506040518060400160405280600b81526020017f5368696e79205269666c6500000000000000000000000000000000000000000081525081600e81518110620005d257620005d262001373565b60200260200101819052506040518060400160405280600c81526020017f4c6173657220446167676572000000000000000000000000000000000000000081525081600f8151811062000629576200062962001373565b60200260200101819052506040518060400160405280600b81526020017f4c617365722053776f72640000000000000000000000000000000000000000008152508160108151811062000680576200068062001373565b60200260200101819052506040518060400160405280600c81526020017f4c6173657220506973746f6c000000000000000000000000000000000000000081525081601181518110620006d757620006d762001373565b60200260200101819052506040518060400160405280600b81526020017f4c61736572205269666c65000000000000000000000000000000000000000000815250816012815181106200072e576200072e62001373565b60200260200101819052506040518060400160405280600a81526020017f476c6f7720737469636b000000000000000000000000000000000000000000008152508160138151811062000785576200078562001373565b60200260200101819052506040518060400160405280600a81526020017f466c6173686c696768740000000000000000000000000000000000000000000081525081601481518110620007dc57620007dc62001373565b60200260200101819052506040518060400160405280600b81526020017f466c6f6f64206c696768740000000000000000000000000000000000000000008152508160158151811062000833576200083362001373565b60200260200101819052506040518060400160405280601381526020017f4e69676874766973696f6e20476f67676c657300000000000000000000000000815250816016815181106200088a576200088a62001373565b60200260200101819052506040518060400160405280600f81526020017f506572736f6e616c20536869656c64000000000000000000000000000000000081525081601781518110620008e157620008e162001373565b60200260200101819052506040518060400160405280600d81526020017f427562626c6520536869656c64000000000000000000000000000000000000008152508160188151811062000938576200093862001373565b60200260200101819052506040518060400160405280600c81526020017f46726167204772656e6164650000000000000000000000000000000000000000815250816019815181106200098f576200098f62001373565b60200260200101819052506040518060400160405280600c81526020017f46697265204772656e616465000000000000000000000000000000000000000081525081601a81518110620009e657620009e662001373565b60200260200101819052506040518060400160405280600d81526020017f53686f636b204772656e6164650000000000000000000000000000000000000081525081601b8151811062000a3d5762000a3d62001373565b60200260200101819052506040518060400160405280600981526020017f4845204d6f72746172000000000000000000000000000000000000000000000081525081601c8151811062000a945762000a9462001373565b60200260200101819052506040518060400160405280601181526020017f496e63656e6469617279204d6f7274617200000000000000000000000000000081525081601d8151811062000aeb5762000aeb62001373565b60200260200101819052506040518060400160405280600a81526020017f454d50204d6f727461720000000000000000000000000000000000000000000081525081601e8151811062000b425762000b4262001373565b60200260200101819052506040518060400160405280600b81526020017f506f77657220476c6f766500000000000000000000000000000000000000000081525081601f8151811062000b995762000b9962001373565b602002602001018190525060405180606001604052806021815260200162002b1d602191398160208151811062000bd45762000bd462001373565b60200260200101819052506040518060400160405280600f81526020017f54656c65706f72746572205061636b00000000000000000000000000000000008152508160218151811062000c2b5762000c2b62001373565b60200260200101819052506040518060400160405280600881526020017f43616d70736974650000000000000000000000000000000000000000000000008152508160228151811062000c825762000c8262001373565b602002602001018190525062000ca78162000ccc640100000000026401000000009004565b5050620015a7565b3390565b62000cc8828264010000000062000dbb810204565b5050565b600062000ce28164010000000062000dfd810204565b60005b825181101562000db657600083828151811062000d065762000d0662001373565b6020026020010151905060006004905060038260405162000d289190620013d5565b9081526040519081900360200190205460ff1662000d9e5780546001810182556000828152602090819020845162000d6893919091019185019062001273565b50600160038360405162000d7d9190620013d5565b908152604051908190036020019020805491151560ff199092169190911790555b5050808062000dad9062001422565b91505062000ce5565b505050565b62000dd582826401000000006200092962000e2782021704565b600082815260016020526040902062000db69082640100000000620009ad62000ec382021704565b62000e248162000e1564010000000062000caf810204565b64010000000062000eec810204565b50565b62000e3c828264010000000062000fa3810204565b62000cc857600082815260208181526040808320600160a060020a03851684529091529020805460ff1916600117905562000e7f64010000000062000caf810204565b600160a060020a031681600160a060020a0316837f2f8788117e7eff1d82e926ec794901d17c78024a50270940304540a733656f0d60405160405180910390a45050565b600062000ee383600160a060020a03841664010000000062000fcc810204565b90505b92915050565b62000f01828264010000000062000fa3810204565b62000cc85762000f2a600160a060020a0382166014640100000000620009c26200102482021704565b62000f45836020640100000000620009c26200102482021704565b60405160200162000f5892919062001440565b60408051601f19818403018152908290527f08c379a000000000000000000000000000000000000000000000000000000000825262000f9a91600401620014c5565b60405180910390fd5b600091825260208281526040808420600160a060020a0393909316845291905290205460ff1690565b600062000fe383836401000000006200125b810204565b6200101b5750815460018181018455600084815260208082209093018490558454848252828601909352604090209190915562000ee6565b50600062000ee6565b6060600062001035836002620014fa565b620010429060026200151c565b67ffffffffffffffff8111156200105d576200105d62001344565b6040519080825280601f01601f19166020018201604052801562001088576020820181803683370190505b5090507f300000000000000000000000000000000000000000000000000000000000000081600081518110620010c257620010c262001373565b6020010190600160f860020a031916908160001a9053507f78000000000000000000000000000000000000000000000000000000000000008160018151811062001110576200111062001373565b6020010190600160f860020a031916908160001a905350600062001136846002620014fa565b620011439060016200151c565b90505b6001811115620011f0577f303132333435363738396162636465660000000000000000000000000000000085600f166010811062001188576200118862001373565b1a7f010000000000000000000000000000000000000000000000000000000000000002828281518110620011c057620011c062001373565b6020010190600160f860020a031916908160001a905350601090940493620011e88162001537565b905062001146565b50831562000ee3576040517f08c379a000000000000000000000000000000000000000000000000000000000815260206004820181905260248201527f537472696e67733a20686578206c656e67746820696e73756666696369656e74604482015260640162000f9a565b60009081526001919091016020526040902054151590565b828054620012819062001551565b90600052602060002090601f016020900481019282620012a55760008555620012f0565b82601f10620012c057805160ff1916838001178555620012f0565b82800160010185558215620012f0579182015b82811115620012f0578251825591602001919060010190620012d3565b50620012fe92915062001302565b5090565b5b80821115620012fe576000815560010162001303565b6000602082840312156200132c57600080fd5b8151600160a060020a038116811462000ee357600080fd5b7f4e487b7100000000000000000000000000000000000000000000000000000000600052604160045260246000fd5b7f4e487b7100000000000000000000000000000000000000000000000000000000600052603260045260246000fd5b60005b83811015620013bf578181015183820152602001620013a5565b83811115620013cf576000848401525b50505050565b60008251620013e9818460208701620013a2565b9190910192915050565b7f4e487b7100000000000000000000000000000000000000000000000000000000600052601160045260246000fd5b6000600019821415620014395762001439620013f3565b5060010190565b7f416363657373436f6e74726f6c3a206163636f756e74200000000000000000008152600083516200147a816017850160208801620013a2565b7f206973206d697373696e6720726f6c65200000000000000000000000000000006017918401918201528351620014b9816028840160208801620013a2565b01602801949350505050565b6020815260008251806020840152620014e6816040850160208701620013a2565b601f01601f19169190910160400192915050565b6000816000190483118215151615620015175762001517620013f3565b500290565b60008219821115620015325762001532620013f3565b500190565b600081620015495762001549620013f3565b506000190190565b6002810460018216806200156657607f821691505b60208210811415620015a1577f4e487b7100000000000000000000000000000000000000000000000000000000600052602260045260246000fd5b50919050565b61156680620015b76000396000f3fe608060405234801561001057600080fd5b506004361061011d576000357c0100000000000000000000000000000000000000000000000000000000900480638f9925f8116100b4578063c853a1d011610083578063c853a1d014610297578063ca15c873146102ac578063d547741f146102bf578063d8291047146102d257600080fd5b80638f9925f81461023e5780639010d07c1461025157806391d148541461027c578063a217fddf1461028f57600080fd5b80632f2ff15d116100f05780632f2ff15d146101b757806333f6832a146101ca57806336568abe146101ea5780634db157d0146101fd57600080fd5b806301ffc9a714610122578063092c5b3b1461014a5780631c635ded1461017f578063248a9ca314610194575b600080fd5b610135610130366004610fc0565b6102e5565b60405190151581526020015b60405180910390f35b6101717f7b765e0e932d348852a6f810bfa1ab891e259123f02db8cdcde614c57022335781565b604051908152602001610141565b61019261018d3660046110a4565b610329565b005b6101716101a23660046110f2565b60009081526020819052604090206001015490565b6101926101c536600461110b565b610408565b6101dd6101d83660046110f2565b610432565b60405161014191906111a3565b6101926101f836600461110b565b6104de565b61017161020b3660046110a4565b82516020818501810180516002825292820195820195909520919094528352600091825260408083209093528152205481565b61019261024c3660046111b6565b61056d565b61026461025f366004611278565b61063e565b604051600160a060020a039091168152602001610141565b61013561028a36600461110b565b61065d565b610171600081565b61029f610686565b604051610141919061129a565b6101716102ba3660046110f2565b61075f565b6101926102cd36600461110b565b610776565b6101926102e03660046112fb565b61079b565b6000600160e060020a031982167f5a05180f000000000000000000000000000000000000000000000000000000001480610323575061032382610c0c565b92915050565b7f7b765e0e932d348852a6f810bfa1ab891e259123f02db8cdcde614c57022335761035381610c73565b6003846040516103639190611358565b9081526040519081900360200190205460ff166103ca5760405160e560020a62461bcd02815260206004820152601260248201527f546f6b656e2074797065206e6f7420736574000000000000000000000000000060448201526064015b60405180910390fd5b816002856040516103db9190611358565b90815260408051602092819003830190206000968752825280862086805290915290932092909255505050565b60008281526020819052604090206001015461042381610c73565b61042d8383610c80565b505050565b6004818154811061044257600080fd5b90600052602060002001600091509050805461045d90611374565b80601f016020809104026020016040519081016040528092919081815260200182805461048990611374565b80156104d65780601f106104ab576101008083540402835291602001916104d6565b820191906000526020600020905b8154815290600101906020018083116104b957829003601f168201915b505050505081565b600160a060020a038116331461055f5760405160e560020a62461bcd02815260206004820152602f60248201527f416363657373436f6e74726f6c3a2063616e206f6e6c792072656e6f756e636560448201527f20726f6c657320666f722073656c66000000000000000000000000000000000060648201526084016103c1565b6105698282610ca2565b5050565b600061057881610c73565b60005b825181101561042d576000838281518110610598576105986113b2565b602002602001015190506000600490506003826040516105b89190611358565b9081526040519081900360200190205460ff16610629578054600181018255600082815260209081902084516105f5939190910191850190610f27565b5060016003836040516106089190611358565b908152604051908190036020019020805491151560ff199092169190911790555b50508080610636906113e4565b91505061057b565b60008281526001602052604081206106569083610cc4565b9392505050565b600091825260208281526040808420600160a060020a0393909316845291905290205460ff1690565b60606004805480602002602001604051908101604052809291908181526020016000905b828210156107565783829060005260206000200180546106c990611374565b80601f01602080910402602001604051908101604052809291908181526020018280546106f590611374565b80156107425780601f1061071757610100808354040283529160200191610742565b820191906000526020600020905b81548152906001019060200180831161072557829003601f168201915b5050505050815260200190600101906106aa565b50505050905090565b600081815260016020526040812061032390610cd0565b60008281526020819052604090206001015461079181610c73565b61042d8383610ca2565b7f7b765e0e932d348852a6f810bfa1ab891e259123f02db8cdcde614c5702233576107c581610c73565b816002876040516107d69190611358565b90815260408051602092819003830190206000898152908352818120888252909252902054101561084c5760405160e560020a62461bcd02815260206004820152601460248201527f66726f6d2062616c616e636520746f6f206c6f7700000000000000000000000060448201526064016103c1565b8160028760405161085d9190611358565b90815260408051602092819003830190206000898152908352818120878252909252812080549091906108919084906113ff565b92505081905550816002876040516108a99190611358565b90815260408051602092819003830190206000898152908352818120888252909252812080549091906108dd908490611417565b9091555083905084867fceca1129300a57e05eff40843f1869becc8df18339f4ddad0de80ecd7116ce6b338a876040516109199392919061142e565b60405180910390a4505050505050565b610933828261065d565b61056957600082815260208181526040808320600160a060020a03851684529091529020805460ff191660011790556109693390565b600160a060020a031681600160a060020a0316837f2f8788117e7eff1d82e926ec794901d17c78024a50270940304540a733656f0d60405160405180910390a45050565b600061065683600160a060020a038416610cda565b606060006109d1836002611460565b6109dc9060026113ff565b67ffffffffffffffff8111156109f4576109f4610fea565b6040519080825280601f01601f191660200182016040528015610a1e576020820181803683370190505b5090507f300000000000000000000000000000000000000000000000000000000000000081600081518110610a5557610a556113b2565b60200101907effffffffffffffffffffffffffffffffffffffffffffffffffffffffffffff1916908160001a9053507f780000000000000000000000000000000000000000000000000000000000000081600181518110610ab857610ab86113b2565b60200101907effffffffffffffffffffffffffffffffffffffffffffffffffffffffffffff1916908160001a9053506000610af4846002611460565b610aff9060016113ff565b90505b6001811115610bba577f303132333435363738396162636465660000000000000000000000000000000085600f1660108110610b4057610b406113b2565b1a7f010000000000000000000000000000000000000000000000000000000000000002828281518110610b7557610b756113b2565b60200101907effffffffffffffffffffffffffffffffffffffffffffffffffffffffffffff1916908160001a905350601090940493610bb38161147f565b9050610b02565b5083156106565760405160e560020a62461bcd02815260206004820181905260248201527f537472696e67733a20686578206c656e67746820696e73756666696369656e7460448201526064016103c1565b6000600160e060020a031982167f7965db0b00000000000000000000000000000000000000000000000000000000148061032357507f01ffc9a700000000000000000000000000000000000000000000000000000000600160e060020a0319831614610323565b610c7d8133610d29565b50565b610c8a8282610929565b600082815260016020526040902061042d90826109ad565b610cac8282610d90565b600082815260016020526040902061042d9082610df5565b60006106568383610e0a565b6000610323825490565b6000818152600183016020526040812054610d2157508154600181810184556000848152602080822090930184905584548482528286019093526040902091909155610323565b506000610323565b610d33828261065d565b61056957610d4b81600160a060020a031660146109c2565b610d568360206109c2565b604051602001610d67929190611496565b60408051601f198184030181529082905260e560020a62461bcd0282526103c1916004016111a3565b610d9a828261065d565b1561056957600082815260208181526040808320600160a060020a0385168085529252808320805460ff1916905551339285917ff6391f5c32d9c69d2a47ea670b442974b53935d1edc7fd64eb21e047a839171b9190a45050565b600061065683600160a060020a038416610e34565b6000826000018281548110610e2157610e216113b2565b9060005260206000200154905092915050565b60008181526001830160205260408120548015610f1d576000610e58600183611417565b8554909150600090610e6c90600190611417565b9050818114610ed1576000866000018281548110610e8c57610e8c6113b2565b9060005260206000200154905080876000018481548110610eaf57610eaf6113b2565b6000918252602080832090910192909255918252600188019052604090208390555b8554869080610ee257610ee2611517565b600190038181906000526020600020016000905590558560010160008681526020019081526020016000206000905560019350505050610323565b6000915050610323565b828054610f3390611374565b90600052602060002090601f016020900481019282610f555760008555610f9b565b82601f10610f6e57805160ff1916838001178555610f9b565b82800160010185558215610f9b579182015b82811115610f9b578251825591602001919060010190610f80565b50610fa7929150610fab565b5090565b5b80821115610fa75760008155600101610fac565b600060208284031215610fd257600080fd5b8135600160e060020a03198116811461065657600080fd5b60e060020a634e487b7102600052604160045260246000fd5b604051601f8201601f1916810167ffffffffffffffff8111828210171561102c5761102c610fea565b604052919050565b600082601f83011261104557600080fd5b813567ffffffffffffffff81111561105f5761105f610fea565b611072601f8201601f1916602001611003565b81815284602083860101111561108757600080fd5b816020850160208301376000918101602001919091529392505050565b6000806000606084860312156110b957600080fd5b833567ffffffffffffffff8111156110d057600080fd5b6110dc86828701611034565b9660208601359650604090950135949350505050565b60006020828403121561110457600080fd5b5035919050565b6000806040838503121561111e57600080fd5b823591506020830135600160a060020a038116811461113c57600080fd5b809150509250929050565b60005b8381101561116257818101518382015260200161114a565b83811115611171576000848401525b50505050565b6000815180845261118f816020860160208601611147565b601f01601f19169290920160200192915050565b6020815260006106566020830184611177565b600060208083850312156111c957600080fd5b823567ffffffffffffffff808211156111e157600080fd5b818501915085601f8301126111f557600080fd5b81358181111561120757611207610fea565b838102611215858201611003565b918252838101850191858101908984111561122f57600080fd5b86860192505b8383101561126b5782358581111561124d5760008081fd5b61125b8b89838a0101611034565b8352509186019190860190611235565b9998505050505050505050565b6000806040838503121561128b57600080fd5b50508035926020909101359150565b600060208083018184528085518083526040860191506040848202870101925083870160005b828110156112ee57603f198886030184526112dc858351611177565b945092850192908501906001016112c0565b5092979650505050505050565b600080600080600060a0868803121561131357600080fd5b853567ffffffffffffffff81111561132a57600080fd5b61133688828901611034565b9860208801359850604088013597606081013597506080013595509350505050565b6000825161136a818460208701611147565b9190910192915050565b60028104600182168061138857607f821691505b602082108114156113ac5760e060020a634e487b7102600052602260045260246000fd5b50919050565b60e060020a634e487b7102600052603260045260246000fd5b60e060020a634e487b7102600052601160045260246000fd5b60006000198214156113f8576113f86113cb565b5060010190565b60008219821115611412576114126113cb565b500190565b600082821015611429576114296113cb565b500390565b600160a060020a03841681526060602082015260006114506060830185611177565b9050826040830152949350505050565b600081600019048311821515161561147a5761147a6113cb565b500290565b60008161148e5761148e6113cb565b506000190190565b7f416363657373436f6e74726f6c3a206163636f756e74200000000000000000008152600083516114ce816017850160208801611147565b7f206973206d697373696e6720726f6c6520000000000000000000000000000000601791840191820152835161150b816028840160208801611147565b01602801949350505050565b60e060020a634e487b7102600052603160045260246000fdfea264697066735822122053c948f8483165ec7571e69d8c2e4abc85b0ae3e65bfc65f2271e149e1a3728e64736f6c634300080b003352656d6f7465204c61756e636820616e642047756964616e63652053797374656d",
  "immutableReferences": {},
  "source": "// SPDX-License-Identifier: GPL-3.0\npragma solidity >=0.7.0 <0.9.0;\n\nimport \"./GameToken.sol\";\n\ncontract Item is GameToken {\n    constructor(address controllerAddress) GameToken(controllerAddress) {\n        string[] memory tokenTypes = new string[](35);\n        tokenTypes[0] = \"Small Ammo\";\n        tokenTypes[1] = \"Large Ammo\";\n        tokenTypes[2] = \"Batteries\";\n        tokenTypes[3] = \"Shield\";\n        tokenTypes[4] = \"Portal\";\n        tokenTypes[5] = \"On\";\n        tokenTypes[6] = \"Off\";\n        tokenTypes[7] = \"Rusty Dagger\";\n        tokenTypes[8] = \"Rusty Sword\";\n        tokenTypes[9] = \"Rusty Pistol\";\n        tokenTypes[10] = \"Rusty Rifle\";\n        tokenTypes[11] = \"Shiny Dagger\";\n        tokenTypes[12] = \"Shiny Sword\";\n        tokenTypes[13] = \"Shiny Pistol\";\n        tokenTypes[14] = \"Shiny Rifle\";\n        tokenTypes[15] = \"Laser Dagger\";\n        tokenTypes[16] = \"Laser Sword\";\n        tokenTypes[17] = \"Laser Pistol\";\n        tokenTypes[18] = \"Laser Rifle\";\n        tokenTypes[19] = \"Glow stick\";\n        tokenTypes[20] = \"Flashlight\";\n        tokenTypes[21] = \"Flood light\";\n        tokenTypes[22] = \"Nightvision Goggles\";\n        tokenTypes[23] = \"Personal Shield\";\n        tokenTypes[24] = \"Bubble Shield\";\n        tokenTypes[25] = \"Frag Grenade\";\n        tokenTypes[26] = \"Fire Grenade\";\n        tokenTypes[27] = \"Shock Grenade\";\n        tokenTypes[28] = \"HE Mortar\";\n        tokenTypes[29] = \"Incendiary Mortar\";\n        tokenTypes[30] = \"EMP Mortar\";\n        tokenTypes[31] = \"Power Glove\";\n        tokenTypes[32] = \"Remote Launch and Guidance System\";\n        tokenTypes[33] = \"Teleporter Pack\";\n        tokenTypes[34] = \"Campsite\";\n        addTokenTypes(tokenTypes);\n    }\n}\n",
  "sourcePath": "/Users/maxmeier/Developer/Lucky Machines/hexploration/contracts/tokens/Item.sol",
  "compiler": {
    "name": "solc",
    "version": "0.8.11+commit.d7f03943.Emscripten.clang"
  },
  "schemaVersion": "3.4.4",
  "updatedAt": "2022-05-17T04:56:11.470Z",
  "networkType": "ethereum",
  "devdoc": {
    "kind": "dev",
    "methods": {
      "getRoleAdmin(bytes32)": {
        "details": "Returns the admin role that controls `role`. See {grantRole} and {revokeRole}. To change a role's admin, use {_setRoleAdmin}."
      },
      "getRoleMember(bytes32,uint256)": {
        "details": "Returns one of the accounts that have `role`. `index` must be a value between 0 and {getRoleMemberCount}, non-inclusive. Role bearers are not sorted in any particular way, and their ordering may change at any point. WARNING: When using {getRoleMember} and {getRoleMemberCount}, make sure you perform all queries on the same block. See the following https://forum.openzeppelin.com/t/iterating-over-elements-on-enumerableset-in-openzeppelin-contracts/2296[forum post] for more information."
      },
      "getRoleMemberCount(bytes32)": {
        "details": "Returns the number of accounts that have `role`. Can be used together with {getRoleMember} to enumerate all bearers of a role."
      },
      "grantRole(bytes32,address)": {
        "details": "Grants `role` to `account`. If `account` had not been already granted `role`, emits a {RoleGranted} event. Requirements: - the caller must have ``role``'s admin role."
      },
      "hasRole(bytes32,address)": {
        "details": "Returns `true` if `account` has been granted `role`."
      },
      "renounceRole(bytes32,address)": {
        "details": "Revokes `role` from the calling account. Roles are often managed via {grantRole} and {revokeRole}: this function's purpose is to provide a mechanism for accounts to lose their privileges if they are compromised (such as when a trusted device is misplaced). If the calling account had been revoked `role`, emits a {RoleRevoked} event. Requirements: - the caller must be `account`."
      },
      "revokeRole(bytes32,address)": {
        "details": "Revokes `role` from `account`. If `account` had been granted `role`, emits a {RoleRevoked} event. Requirements: - the caller must have ``role``'s admin role."
      },
      "supportsInterface(bytes4)": {
        "details": "See {IERC165-supportsInterface}."
      }
    },
    "version": 1
  },
  "userdoc": {
    "kind": "user",
    "methods": {},
    "version": 1
  }
}