{
  "contractName": "Item",
  "abi": [
    {
      "inputs": [
        {
          "internalType": "address",
          "name": "controllerAddress",
          "type": "address"
        }
      ],
      "stateMutability": "nonpayable",
      "type": "constructor"
    },
    {
      "anonymous": false,
      "inputs": [
        {
          "indexed": true,
          "internalType": "bytes32",
          "name": "role",
          "type": "bytes32"
        },
        {
          "indexed": true,
          "internalType": "bytes32",
          "name": "previousAdminRole",
          "type": "bytes32"
        },
        {
          "indexed": true,
          "internalType": "bytes32",
          "name": "newAdminRole",
          "type": "bytes32"
        }
      ],
      "name": "RoleAdminChanged",
      "type": "event"
    },
    {
      "anonymous": false,
      "inputs": [
        {
          "indexed": true,
          "internalType": "bytes32",
          "name": "role",
          "type": "bytes32"
        },
        {
          "indexed": true,
          "internalType": "address",
          "name": "account",
          "type": "address"
        },
        {
          "indexed": true,
          "internalType": "address",
          "name": "sender",
          "type": "address"
        }
      ],
      "name": "RoleGranted",
      "type": "event"
    },
    {
      "anonymous": false,
      "inputs": [
        {
          "indexed": true,
          "internalType": "bytes32",
          "name": "role",
          "type": "bytes32"
        },
        {
          "indexed": true,
          "internalType": "address",
          "name": "account",
          "type": "address"
        },
        {
          "indexed": true,
          "internalType": "address",
          "name": "sender",
          "type": "address"
        }
      ],
      "name": "RoleRevoked",
      "type": "event"
    },
    {
      "anonymous": false,
      "inputs": [
        {
          "indexed": true,
          "internalType": "uint256",
          "name": "gameID",
          "type": "uint256"
        },
        {
          "indexed": true,
          "internalType": "uint256",
          "name": "fromPlayerID",
          "type": "uint256"
        },
        {
          "indexed": true,
          "internalType": "uint256",
          "name": "toPlayerID",
          "type": "uint256"
        },
        {
          "indexed": false,
          "internalType": "address",
          "name": "controller",
          "type": "address"
        },
        {
          "indexed": false,
          "internalType": "string",
          "name": "tokenType",
          "type": "string"
        },
        {
          "indexed": false,
          "internalType": "uint256",
          "name": "value",
          "type": "uint256"
        }
      ],
      "name": "Transfer",
      "type": "event"
    },
    {
      "inputs": [],
      "name": "CONTROLLER_ROLE",
      "outputs": [
        {
          "internalType": "bytes32",
          "name": "",
          "type": "bytes32"
        }
      ],
      "stateMutability": "view",
      "type": "function",
      "constant": true
    },
    {
      "inputs": [],
      "name": "DEFAULT_ADMIN_ROLE",
      "outputs": [
        {
          "internalType": "bytes32",
          "name": "",
          "type": "bytes32"
        }
      ],
      "stateMutability": "view",
      "type": "function",
      "constant": true
    },
    {
      "inputs": [
        {
          "internalType": "string[]",
          "name": "_tokenTypes",
          "type": "string[]"
        }
      ],
      "name": "addTokenTypes",
      "outputs": [],
      "stateMutability": "nonpayable",
      "type": "function"
    },
    {
      "inputs": [
        {
          "internalType": "string",
          "name": "",
          "type": "string"
        },
        {
          "internalType": "uint256",
          "name": "",
          "type": "uint256"
        },
        {
          "internalType": "uint256",
          "name": "",
          "type": "uint256"
        }
      ],
      "name": "balance",
      "outputs": [
        {
          "internalType": "uint256",
          "name": "",
          "type": "uint256"
        }
      ],
      "stateMutability": "view",
      "type": "function",
      "constant": true
    },
    {
      "inputs": [
        {
          "internalType": "bytes32",
          "name": "role",
          "type": "bytes32"
        }
      ],
      "name": "getRoleAdmin",
      "outputs": [
        {
          "internalType": "bytes32",
          "name": "",
          "type": "bytes32"
        }
      ],
      "stateMutability": "view",
      "type": "function",
      "constant": true
    },
    {
      "inputs": [
        {
          "internalType": "bytes32",
          "name": "role",
          "type": "bytes32"
        },
        {
          "internalType": "uint256",
          "name": "index",
          "type": "uint256"
        }
      ],
      "name": "getRoleMember",
      "outputs": [
        {
          "internalType": "address",
          "name": "",
          "type": "address"
        }
      ],
      "stateMutability": "view",
      "type": "function",
      "constant": true
    },
    {
      "inputs": [
        {
          "internalType": "bytes32",
          "name": "role",
          "type": "bytes32"
        }
      ],
      "name": "getRoleMemberCount",
      "outputs": [
        {
          "internalType": "uint256",
          "name": "",
          "type": "uint256"
        }
      ],
      "stateMutability": "view",
      "type": "function",
      "constant": true
    },
    {
      "inputs": [
        {
          "internalType": "bytes32",
          "name": "role",
          "type": "bytes32"
        },
        {
          "internalType": "address",
          "name": "account",
          "type": "address"
        }
      ],
      "name": "grantRole",
      "outputs": [],
      "stateMutability": "nonpayable",
      "type": "function"
    },
    {
      "inputs": [
        {
          "internalType": "bytes32",
          "name": "role",
          "type": "bytes32"
        },
        {
          "internalType": "address",
          "name": "account",
          "type": "address"
        }
      ],
      "name": "hasRole",
      "outputs": [
        {
          "internalType": "bool",
          "name": "",
          "type": "bool"
        }
      ],
      "stateMutability": "view",
      "type": "function",
      "constant": true
    },
    {
      "inputs": [
        {
          "internalType": "string",
          "name": "tokenType",
          "type": "string"
        },
        {
          "internalType": "uint256",
          "name": "gameID",
          "type": "uint256"
        },
        {
          "internalType": "uint256",
          "name": "quantity",
          "type": "uint256"
        }
      ],
      "name": "mint",
      "outputs": [],
      "stateMutability": "nonpayable",
      "type": "function"
    },
    {
      "inputs": [
        {
          "internalType": "bytes32",
          "name": "role",
          "type": "bytes32"
        },
        {
          "internalType": "address",
          "name": "account",
          "type": "address"
        }
      ],
      "name": "renounceRole",
      "outputs": [],
      "stateMutability": "nonpayable",
      "type": "function"
    },
    {
      "inputs": [
        {
          "internalType": "bytes32",
          "name": "role",
          "type": "bytes32"
        },
        {
          "internalType": "address",
          "name": "account",
          "type": "address"
        }
      ],
      "name": "revokeRole",
      "outputs": [],
      "stateMutability": "nonpayable",
      "type": "function"
    },
    {
      "inputs": [
        {
          "internalType": "bytes4",
          "name": "interfaceId",
          "type": "bytes4"
        }
      ],
      "name": "supportsInterface",
      "outputs": [
        {
          "internalType": "bool",
          "name": "",
          "type": "bool"
        }
      ],
      "stateMutability": "view",
      "type": "function",
      "constant": true
    },
    {
      "inputs": [
        {
          "internalType": "uint256",
          "name": "",
          "type": "uint256"
        }
      ],
      "name": "tokenTypes",
      "outputs": [
        {
          "internalType": "string",
          "name": "",
          "type": "string"
        }
      ],
      "stateMutability": "view",
      "type": "function",
      "constant": true
    },
    {
      "inputs": [
        {
          "internalType": "string",
          "name": "tokenType",
          "type": "string"
        },
        {
          "internalType": "uint256",
          "name": "gameID",
          "type": "uint256"
        },
        {
          "internalType": "uint256",
          "name": "fromPlayerID",
          "type": "uint256"
        },
        {
          "internalType": "uint256",
          "name": "toPlayerID",
          "type": "uint256"
        },
        {
          "internalType": "uint256",
          "name": "quantity",
          "type": "uint256"
        }
      ],
      "name": "transfer",
      "outputs": [],
      "stateMutability": "nonpayable",
      "type": "function"
    }
  ],
  "bytecode": "0x60806040523480156200001157600080fd5b5060405162002085380380620020858339810160408190526200003491620009c6565b806200005d60006200004e64010000000062000347810204565b6401000000006200034b810204565b620000927f7b765e0e932d348852a6f810bfa1ab891e259123f02db8cdcde614c570223357826401000000006200034b810204565b506040805160078082526101008201909252600091816020015b6060815260200190600190039081620000ac5790505090506040518060400160405280600a81526020017f536d616c6c20416d6d6f000000000000000000000000000000000000000000008152508160008151811062000110576200011062000a20565b60200260200101819052506040518060400160405280600a81526020017f4c6172676520416d6d6f000000000000000000000000000000000000000000008152508160018151811062000167576200016762000a20565b60200260200101819052506040518060400160405280600981526020017f426174746572696573000000000000000000000000000000000000000000000081525081600281518110620001be57620001be62000a20565b60200260200101819052506040518060400160405280600681526020017f536869656c6400000000000000000000000000000000000000000000000000008152508160038151811062000215576200021562000a20565b60200260200101819052506040518060400160405280600681526020017f506f7274616c0000000000000000000000000000000000000000000000000000815250816004815181106200026c576200026c62000a20565b60200260200101819052506040518060400160405280600281526020017f4f6e00000000000000000000000000000000000000000000000000000000000081525081600581518110620002c357620002c362000a20565b60200260200101819052506040518060400160405280600381526020017f4f66660000000000000000000000000000000000000000000000000000000000815250816006815181106200031a576200031a62000a20565b60200260200101819052506200033f8162000364640100000000026401000000009004565b505062000c54565b3390565b62000360828264010000000062000468810204565b5050565b60006200037a81640100000000620004aa810204565b60005b8251811015620004635760008382815181106200039e576200039e62000a20565b60200260200101519050600381604051620003ba919062000a82565b9081526040519081900360200190205460ff166200044d5760048054600181018255600091909152815162000417917f8a35acfbc15ff81a39ae7d344fd709f28e8600b4aa8c65c6b64bfe7fe36bd19b0190602084019062000920565b5060016003826040516200042c919062000a82565b908152604051908190036020019020805491151560ff199092169190911790555b50806200045a8162000acf565b9150506200037d565b505050565b62000482828264010000000062000845620004d482021704565b6000828152600160205260409020620004639082640100000000620008c96200057082021704565b620004d181620004c264010000000062000347810204565b64010000000062000599810204565b50565b620004e9828264010000000062000650810204565b6200036057600082815260208181526040808320600160a060020a03851684529091529020805460ff191660011790556200052c64010000000062000347810204565b600160a060020a031681600160a060020a0316837f2f8788117e7eff1d82e926ec794901d17c78024a50270940304540a733656f0d60405160405180910390a45050565b60006200059083600160a060020a03841664010000000062000679810204565b90505b92915050565b620005ae828264010000000062000650810204565b6200036057620005d7600160a060020a0382166014640100000000620008de620006d182021704565b620005f2836020640100000000620008de620006d182021704565b6040516020016200060592919062000aed565b60408051601f19818403018152908290527f08c379a0000000000000000000000000000000000000000000000000000000008252620006479160040162000b72565b60405180910390fd5b600091825260208281526040808420600160a060020a0393909316845291905290205460ff1690565b600062000690838364010000000062000908810204565b620006c85750815460018181018455600084815260208082209093018490558454848252828601909352604090209190915562000593565b50600062000593565b60606000620006e283600262000ba7565b620006ef90600262000bc9565b67ffffffffffffffff8111156200070a576200070a620009f1565b6040519080825280601f01601f19166020018201604052801562000735576020820181803683370190505b5090507f3000000000000000000000000000000000000000000000000000000000000000816000815181106200076f576200076f62000a20565b6020010190600160f860020a031916908160001a9053507f780000000000000000000000000000000000000000000000000000000000000081600181518110620007bd57620007bd62000a20565b6020010190600160f860020a031916908160001a9053506000620007e384600262000ba7565b620007f090600162000bc9565b90505b60018111156200089d577f303132333435363738396162636465660000000000000000000000000000000085600f166010811062000835576200083562000a20565b1a7f0100000000000000000000000000000000000000000000000000000000000000028282815181106200086d576200086d62000a20565b6020010190600160f860020a031916908160001a905350601090940493620008958162000be4565b9050620007f3565b50831562000590576040517f08c379a000000000000000000000000000000000000000000000000000000000815260206004820181905260248201527f537472696e67733a20686578206c656e67746820696e73756666696369656e74604482015260640162000647565b60009081526001919091016020526040902054151590565b8280546200092e9062000bfe565b90600052602060002090601f0160209004810192826200095257600085556200099d565b82601f106200096d57805160ff19168380011785556200099d565b828001600101855582156200099d579182015b828111156200099d57825182559160200191906001019062000980565b50620009ab929150620009af565b5090565b5b80821115620009ab5760008155600101620009b0565b600060208284031215620009d957600080fd5b8151600160a060020a03811681146200059057600080fd5b7f4e487b7100000000000000000000000000000000000000000000000000000000600052604160045260246000fd5b7f4e487b7100000000000000000000000000000000000000000000000000000000600052603260045260246000fd5b60005b8381101562000a6c57818101518382015260200162000a52565b8381111562000a7c576000848401525b50505050565b6000825162000a9681846020870162000a4f565b9190910192915050565b7f4e487b7100000000000000000000000000000000000000000000000000000000600052601160045260246000fd5b600060001982141562000ae65762000ae662000aa0565b5060010190565b7f416363657373436f6e74726f6c3a206163636f756e742000000000000000000081526000835162000b2781601785016020880162000a4f565b7f206973206d697373696e6720726f6c6520000000000000000000000000000000601791840191820152835162000b6681602884016020880162000a4f565b01602801949350505050565b602081526000825180602084015262000b9381604085016020870162000a4f565b601f01601f19169190910160400192915050565b600081600019048311821515161562000bc45762000bc462000aa0565b500290565b6000821982111562000bdf5762000bdf62000aa0565b500190565b60008162000bf65762000bf662000aa0565b506000190190565b60028104600182168062000c1357607f821691505b6020821081141562000c4e577f4e487b7100000000000000000000000000000000000000000000000000000000600052602260045260246000fd5b50919050565b6114218062000c646000396000f3fe608060405234801561001057600080fd5b5060043610610112576000357c0100000000000000000000000000000000000000000000000000000000900480634db157d0116100b4578063a217fddf11610083578063a217fddf14610284578063ca15c8731461028c578063d547741f1461029f578063d8291047146102b257600080fd5b80634db157d0146101f25780638f9925f8146102335780639010d07c1461024657806391d148541461027157600080fd5b8063248a9ca3116100f0578063248a9ca3146101895780632f2ff15d146101ac57806333f6832a146101bf57806336568abe146101df57600080fd5b806301ffc9a714610117578063092c5b3b1461013f5780631c635ded14610174575b600080fd5b61012a610125366004610edc565b6102c5565b60405190151581526020015b60405180910390f35b6101667f7b765e0e932d348852a6f810bfa1ab891e259123f02db8cdcde614c57022335781565b604051908152602001610136565b610187610182366004610fc0565b610309565b005b61016661019736600461100e565b60009081526020819052604090206001015490565b6101876101ba366004611027565b6103e8565b6101d26101cd36600461100e565b610412565b60405161013691906110bf565b6101876101ed366004611027565b6104be565b610166610200366004610fc0565b82516020818501810180516002825292820195820195909520919094528352600091825260408083209093528152205481565b6101876102413660046110d2565b61054d565b610259610254366004611194565b610633565b604051600160a060020a039091168152602001610136565b61012a61027f366004611027565b610652565b610166600081565b61016661029a36600461100e565b61067b565b6101876102ad366004611027565b610692565b6101876102c03660046111b6565b6106b7565b6000600160e060020a031982167f5a05180f000000000000000000000000000000000000000000000000000000001480610303575061030382610b28565b92915050565b7f7b765e0e932d348852a6f810bfa1ab891e259123f02db8cdcde614c57022335761033381610b8f565b6003846040516103439190611213565b9081526040519081900360200190205460ff166103aa5760405160e560020a62461bcd02815260206004820152601260248201527f546f6b656e2074797065206e6f7420736574000000000000000000000000000060448201526064015b60405180910390fd5b816002856040516103bb9190611213565b90815260408051602092819003830190206000968752825280862086805290915290932092909255505050565b60008281526020819052604090206001015461040381610b8f565b61040d8383610b9c565b505050565b6004818154811061042257600080fd5b90600052602060002001600091509050805461043d9061122f565b80601f01602080910402602001604051908101604052809291908181526020018280546104699061122f565b80156104b65780601f1061048b576101008083540402835291602001916104b6565b820191906000526020600020905b81548152906001019060200180831161049957829003601f168201915b505050505081565b600160a060020a038116331461053f5760405160e560020a62461bcd02815260206004820152602f60248201527f416363657373436f6e74726f6c3a2063616e206f6e6c792072656e6f756e636560448201527f20726f6c657320666f722073656c66000000000000000000000000000000000060648201526084016103a1565b6105498282610bbe565b5050565b600061055881610b8f565b60005b825181101561040d5760008382815181106105785761057861126d565b602002602001015190506003816040516105929190611213565b9081526040519081900360200190205460ff16610620576004805460018101825560009190915281516105ec917f8a35acfbc15ff81a39ae7d344fd709f28e8600b4aa8c65c6b64bfe7fe36bd19b01906020840190610e43565b5060016003826040516105ff9190611213565b908152604051908190036020019020805491151560ff199092169190911790555b508061062b8161129f565b91505061055b565b600082815260016020526040812061064b9083610be0565b9392505050565b600091825260208281526040808420600160a060020a0393909316845291905290205460ff1690565b600081815260016020526040812061030390610bec565b6000828152602081905260409020600101546106ad81610b8f565b61040d8383610bbe565b7f7b765e0e932d348852a6f810bfa1ab891e259123f02db8cdcde614c5702233576106e181610b8f565b816002876040516106f29190611213565b9081526040805160209281900383019020600089815290835281812088825290925290205410156107685760405160e560020a62461bcd02815260206004820152601460248201527f66726f6d2062616c616e636520746f6f206c6f7700000000000000000000000060448201526064016103a1565b816002876040516107799190611213565b90815260408051602092819003830190206000898152908352818120878252909252812080549091906107ad9084906112ba565b92505081905550816002876040516107c59190611213565b90815260408051602092819003830190206000898152908352818120888252909252812080549091906107f99084906112d2565b9091555083905084867fceca1129300a57e05eff40843f1869becc8df18339f4ddad0de80ecd7116ce6b338a87604051610835939291906112e9565b60405180910390a4505050505050565b61084f8282610652565b61054957600082815260208181526040808320600160a060020a03851684529091529020805460ff191660011790556108853390565b600160a060020a031681600160a060020a0316837f2f8788117e7eff1d82e926ec794901d17c78024a50270940304540a733656f0d60405160405180910390a45050565b600061064b83600160a060020a038416610bf6565b606060006108ed83600261131b565b6108f89060026112ba565b67ffffffffffffffff81111561091057610910610f06565b6040519080825280601f01601f19166020018201604052801561093a576020820181803683370190505b5090507f3000000000000000000000000000000000000000000000000000000000000000816000815181106109715761097161126d565b60200101907effffffffffffffffffffffffffffffffffffffffffffffffffffffffffffff1916908160001a9053507f7800000000000000000000000000000000000000000000000000000000000000816001815181106109d4576109d461126d565b60200101907effffffffffffffffffffffffffffffffffffffffffffffffffffffffffffff1916908160001a9053506000610a1084600261131b565b610a1b9060016112ba565b90505b6001811115610ad6577f303132333435363738396162636465660000000000000000000000000000000085600f1660108110610a5c57610a5c61126d565b1a7f010000000000000000000000000000000000000000000000000000000000000002828281518110610a9157610a9161126d565b60200101907effffffffffffffffffffffffffffffffffffffffffffffffffffffffffffff1916908160001a905350601090940493610acf8161133a565b9050610a1e565b50831561064b5760405160e560020a62461bcd02815260206004820181905260248201527f537472696e67733a20686578206c656e67746820696e73756666696369656e7460448201526064016103a1565b6000600160e060020a031982167f7965db0b00000000000000000000000000000000000000000000000000000000148061030357507f01ffc9a700000000000000000000000000000000000000000000000000000000600160e060020a0319831614610303565b610b998133610c45565b50565b610ba68282610845565b600082815260016020526040902061040d90826108c9565b610bc88282610cac565b600082815260016020526040902061040d9082610d11565b600061064b8383610d26565b6000610303825490565b6000818152600183016020526040812054610c3d57508154600181810184556000848152602080822090930184905584548482528286019093526040902091909155610303565b506000610303565b610c4f8282610652565b61054957610c6781600160a060020a031660146108de565b610c728360206108de565b604051602001610c83929190611351565b60408051601f198184030181529082905260e560020a62461bcd0282526103a1916004016110bf565b610cb68282610652565b1561054957600082815260208181526040808320600160a060020a0385168085529252808320805460ff1916905551339285917ff6391f5c32d9c69d2a47ea670b442974b53935d1edc7fd64eb21e047a839171b9190a45050565b600061064b83600160a060020a038416610d50565b6000826000018281548110610d3d57610d3d61126d565b9060005260206000200154905092915050565b60008181526001830160205260408120548015610e39576000610d746001836112d2565b8554909150600090610d88906001906112d2565b9050818114610ded576000866000018281548110610da857610da861126d565b9060005260206000200154905080876000018481548110610dcb57610dcb61126d565b6000918252602080832090910192909255918252600188019052604090208390555b8554869080610dfe57610dfe6113d2565b600190038181906000526020600020016000905590558560010160008681526020019081526020016000206000905560019350505050610303565b6000915050610303565b828054610e4f9061122f565b90600052602060002090601f016020900481019282610e715760008555610eb7565b82601f10610e8a57805160ff1916838001178555610eb7565b82800160010185558215610eb7579182015b82811115610eb7578251825591602001919060010190610e9c565b50610ec3929150610ec7565b5090565b5b80821115610ec35760008155600101610ec8565b600060208284031215610eee57600080fd5b8135600160e060020a03198116811461064b57600080fd5b60e060020a634e487b7102600052604160045260246000fd5b604051601f8201601f1916810167ffffffffffffffff81118282101715610f4857610f48610f06565b604052919050565b600082601f830112610f6157600080fd5b813567ffffffffffffffff811115610f7b57610f7b610f06565b610f8e601f8201601f1916602001610f1f565b818152846020838601011115610fa357600080fd5b816020850160208301376000918101602001919091529392505050565b600080600060608486031215610fd557600080fd5b833567ffffffffffffffff811115610fec57600080fd5b610ff886828701610f50565b9660208601359650604090950135949350505050565b60006020828403121561102057600080fd5b5035919050565b6000806040838503121561103a57600080fd5b823591506020830135600160a060020a038116811461105857600080fd5b809150509250929050565b60005b8381101561107e578181015183820152602001611066565b8381111561108d576000848401525b50505050565b600081518084526110ab816020860160208601611063565b601f01601f19169290920160200192915050565b60208152600061064b6020830184611093565b600060208083850312156110e557600080fd5b823567ffffffffffffffff808211156110fd57600080fd5b818501915085601f83011261111157600080fd5b81358181111561112357611123610f06565b838102611131858201610f1f565b918252838101850191858101908984111561114b57600080fd5b86860192505b83831015611187578235858111156111695760008081fd5b6111778b89838a0101610f50565b8352509186019190860190611151565b9998505050505050505050565b600080604083850312156111a757600080fd5b50508035926020909101359150565b600080600080600060a086880312156111ce57600080fd5b853567ffffffffffffffff8111156111e557600080fd5b6111f188828901610f50565b9860208801359850604088013597606081013597506080013595509350505050565b60008251611225818460208701611063565b9190910192915050565b60028104600182168061124357607f821691505b602082108114156112675760e060020a634e487b7102600052602260045260246000fd5b50919050565b60e060020a634e487b7102600052603260045260246000fd5b60e060020a634e487b7102600052601160045260246000fd5b60006000198214156112b3576112b3611286565b5060010190565b600082198211156112cd576112cd611286565b500190565b6000828210156112e4576112e4611286565b500390565b600160a060020a038416815260606020820152600061130b6060830185611093565b9050826040830152949350505050565b600081600019048311821515161561133557611335611286565b500290565b60008161134957611349611286565b506000190190565b7f416363657373436f6e74726f6c3a206163636f756e7420000000000000000000815260008351611389816017850160208801611063565b7f206973206d697373696e6720726f6c652000000000000000000000000000000060179184019182015283516113c6816028840160208801611063565b01602801949350505050565b60e060020a634e487b7102600052603160045260246000fdfea26469706673582212208573c17607764fba617fbd71d8c49b9184058e180a5d97508567ba30b010919a64736f6c634300080b0033",
  "immutableReferences": {},
  "source": "// SPDX-License-Identifier: GPL-3.0\npragma solidity >=0.7.0 <0.9.0;\n\nimport \"./GameToken.sol\";\n\ncontract Item is GameToken {\n    constructor(address controllerAddress) GameToken(controllerAddress) {\n        string[] memory tokenTypes = new string[](7);\n        tokenTypes[0] = \"Small Ammo\";\n        tokenTypes[1] = \"Large Ammo\";\n        tokenTypes[2] = \"Batteries\";\n        tokenTypes[3] = \"Shield\";\n        tokenTypes[4] = \"Portal\";\n        tokenTypes[5] = \"On\";\n        tokenTypes[6] = \"Off\";\n        addTokenTypes(tokenTypes);\n    }\n}\n",
  "sourcePath": "/Users/maxmeier/Developer/Lucky Machines/hexploration/contracts/tokens/Item.sol",
  "compiler": {
    "name": "solc",
    "version": "0.8.11+commit.d7f03943.Emscripten.clang"
  },
  "schemaVersion": "3.4.4",
  "updatedAt": "2022-05-13T16:44:20.180Z",
  "networkType": "ethereum",
  "devdoc": {
    "kind": "dev",
    "methods": {
      "getRoleAdmin(bytes32)": {
        "details": "Returns the admin role that controls `role`. See {grantRole} and {revokeRole}. To change a role's admin, use {_setRoleAdmin}."
      },
      "getRoleMember(bytes32,uint256)": {
        "details": "Returns one of the accounts that have `role`. `index` must be a value between 0 and {getRoleMemberCount}, non-inclusive. Role bearers are not sorted in any particular way, and their ordering may change at any point. WARNING: When using {getRoleMember} and {getRoleMemberCount}, make sure you perform all queries on the same block. See the following https://forum.openzeppelin.com/t/iterating-over-elements-on-enumerableset-in-openzeppelin-contracts/2296[forum post] for more information."
      },
      "getRoleMemberCount(bytes32)": {
        "details": "Returns the number of accounts that have `role`. Can be used together with {getRoleMember} to enumerate all bearers of a role."
      },
      "grantRole(bytes32,address)": {
        "details": "Grants `role` to `account`. If `account` had not been already granted `role`, emits a {RoleGranted} event. Requirements: - the caller must have ``role``'s admin role."
      },
      "hasRole(bytes32,address)": {
        "details": "Returns `true` if `account` has been granted `role`."
      },
      "renounceRole(bytes32,address)": {
        "details": "Revokes `role` from the calling account. Roles are often managed via {grantRole} and {revokeRole}: this function's purpose is to provide a mechanism for accounts to lose their privileges if they are compromised (such as when a trusted device is misplaced). If the calling account had been revoked `role`, emits a {RoleRevoked} event. Requirements: - the caller must be `account`."
      },
      "revokeRole(bytes32,address)": {
        "details": "Revokes `role` from `account`. If `account` had been granted `role`, emits a {RoleRevoked} event. Requirements: - the caller must have ``role``'s admin role."
      },
      "supportsInterface(bytes4)": {
        "details": "See {IERC165-supportsInterface}."
      }
    },
    "version": 1
  },
  "userdoc": {
    "kind": "user",
    "methods": {},
    "version": 1
  }
}