{
  "contractName": "ItemDeck",
  "abi": [
    {
      "inputs": [],
      "stateMutability": "nonpayable",
      "type": "constructor"
    },
    {
      "anonymous": false,
      "inputs": [
        {
          "indexed": true,
          "internalType": "bytes32",
          "name": "role",
          "type": "bytes32"
        },
        {
          "indexed": true,
          "internalType": "bytes32",
          "name": "previousAdminRole",
          "type": "bytes32"
        },
        {
          "indexed": true,
          "internalType": "bytes32",
          "name": "newAdminRole",
          "type": "bytes32"
        }
      ],
      "name": "RoleAdminChanged",
      "type": "event"
    },
    {
      "anonymous": false,
      "inputs": [
        {
          "indexed": true,
          "internalType": "bytes32",
          "name": "role",
          "type": "bytes32"
        },
        {
          "indexed": true,
          "internalType": "address",
          "name": "account",
          "type": "address"
        },
        {
          "indexed": true,
          "internalType": "address",
          "name": "sender",
          "type": "address"
        }
      ],
      "name": "RoleGranted",
      "type": "event"
    },
    {
      "anonymous": false,
      "inputs": [
        {
          "indexed": true,
          "internalType": "bytes32",
          "name": "role",
          "type": "bytes32"
        },
        {
          "indexed": true,
          "internalType": "address",
          "name": "account",
          "type": "address"
        },
        {
          "indexed": true,
          "internalType": "address",
          "name": "sender",
          "type": "address"
        }
      ],
      "name": "RoleRevoked",
      "type": "event"
    },
    {
      "inputs": [],
      "name": "CONTROLLER_ROLE",
      "outputs": [
        {
          "internalType": "bytes32",
          "name": "",
          "type": "bytes32"
        }
      ],
      "stateMutability": "view",
      "type": "function"
    },
    {
      "inputs": [],
      "name": "DEFAULT_ADMIN_ROLE",
      "outputs": [
        {
          "internalType": "bytes32",
          "name": "",
          "type": "bytes32"
        }
      ],
      "stateMutability": "view",
      "type": "function"
    },
    {
      "inputs": [
        {
          "internalType": "string",
          "name": "",
          "type": "string"
        }
      ],
      "name": "description",
      "outputs": [
        {
          "internalType": "string",
          "name": "",
          "type": "string"
        }
      ],
      "stateMutability": "view",
      "type": "function"
    },
    {
      "inputs": [
        {
          "internalType": "bytes32",
          "name": "role",
          "type": "bytes32"
        }
      ],
      "name": "getRoleAdmin",
      "outputs": [
        {
          "internalType": "bytes32",
          "name": "",
          "type": "bytes32"
        }
      ],
      "stateMutability": "view",
      "type": "function"
    },
    {
      "inputs": [
        {
          "internalType": "bytes32",
          "name": "role",
          "type": "bytes32"
        },
        {
          "internalType": "uint256",
          "name": "index",
          "type": "uint256"
        }
      ],
      "name": "getRoleMember",
      "outputs": [
        {
          "internalType": "address",
          "name": "",
          "type": "address"
        }
      ],
      "stateMutability": "view",
      "type": "function"
    },
    {
      "inputs": [
        {
          "internalType": "bytes32",
          "name": "role",
          "type": "bytes32"
        }
      ],
      "name": "getRoleMemberCount",
      "outputs": [
        {
          "internalType": "uint256",
          "name": "",
          "type": "uint256"
        }
      ],
      "stateMutability": "view",
      "type": "function"
    },
    {
      "inputs": [
        {
          "internalType": "bytes32",
          "name": "role",
          "type": "bytes32"
        },
        {
          "internalType": "address",
          "name": "account",
          "type": "address"
        }
      ],
      "name": "grantRole",
      "outputs": [],
      "stateMutability": "nonpayable",
      "type": "function"
    },
    {
      "inputs": [
        {
          "internalType": "bytes32",
          "name": "role",
          "type": "bytes32"
        },
        {
          "internalType": "address",
          "name": "account",
          "type": "address"
        }
      ],
      "name": "hasRole",
      "outputs": [
        {
          "internalType": "bool",
          "name": "",
          "type": "bool"
        }
      ],
      "stateMutability": "view",
      "type": "function"
    },
    {
      "inputs": [
        {
          "internalType": "string",
          "name": "",
          "type": "string"
        }
      ],
      "name": "quantity",
      "outputs": [
        {
          "internalType": "uint16",
          "name": "",
          "type": "uint16"
        }
      ],
      "stateMutability": "view",
      "type": "function"
    },
    {
      "inputs": [
        {
          "internalType": "bytes32",
          "name": "role",
          "type": "bytes32"
        },
        {
          "internalType": "address",
          "name": "account",
          "type": "address"
        }
      ],
      "name": "renounceRole",
      "outputs": [],
      "stateMutability": "nonpayable",
      "type": "function"
    },
    {
      "inputs": [
        {
          "internalType": "bytes32",
          "name": "role",
          "type": "bytes32"
        },
        {
          "internalType": "address",
          "name": "account",
          "type": "address"
        }
      ],
      "name": "revokeRole",
      "outputs": [],
      "stateMutability": "nonpayable",
      "type": "function"
    },
    {
      "inputs": [
        {
          "internalType": "bytes4",
          "name": "interfaceId",
          "type": "bytes4"
        }
      ],
      "name": "supportsInterface",
      "outputs": [
        {
          "internalType": "bool",
          "name": "",
          "type": "bool"
        }
      ],
      "stateMutability": "view",
      "type": "function"
    },
    {
      "inputs": [
        {
          "internalType": "string[]",
          "name": "titles",
          "type": "string[]"
        },
        {
          "internalType": "string[]",
          "name": "descriptions",
          "type": "string[]"
        },
        {
          "internalType": "uint16[]",
          "name": "quantities",
          "type": "uint16[]"
        }
      ],
      "name": "addCards",
      "outputs": [],
      "stateMutability": "nonpayable",
      "type": "function"
    },
    {
      "inputs": [
        {
          "internalType": "uint256",
          "name": "randomWord",
          "type": "uint256"
        }
      ],
      "name": "drawCard",
      "outputs": [
        {
          "internalType": "string",
          "name": "",
          "type": "string"
        }
      ],
      "stateMutability": "view",
      "type": "function"
    },
    {
      "inputs": [],
      "name": "getDeck",
      "outputs": [
        {
          "internalType": "string[]",
          "name": "",
          "type": "string[]"
        }
      ],
      "stateMutability": "view",
      "type": "function"
    }
  ],
  "bytecode": "0x60806040523480156200001157600080fd5b506200003a60006200002b64010000000062000040810204565b64010000000062000044810204565b62000202565b3390565b6200005982826401000000006200005d810204565b5050565b62000077828264010000000062000873620000a482021704565b60008281526001602052604090206200009f9082640100000000620008f76200014082021704565b505050565b620000b9828264010000000062000169810204565b6200005957600082815260208181526040808320600160a060020a03851684529091529020805460ff19166001179055620000fc64010000000062000040810204565b600160a060020a031681600160a060020a0316837f2f8788117e7eff1d82e926ec794901d17c78024a50270940304540a733656f0d60405160405180910390a45050565b60006200016083600160a060020a03841664010000000062000192810204565b90505b92915050565b600091825260208281526040808420600160a060020a0393909316845291905290205460ff1690565b6000620001a98383640100000000620001ea810204565b620001e15750815460018181018455600084815260208082209093018490558454848252828601909352604090209190915562000163565b50600062000163565b60009081526001919091016020526040902054151590565b61151080620002126000396000f3fe608060405234801561001057600080fd5b5060043610610112576000357c01000000000000000000000000000000000000000000000000000000009004806388255199116100b4578063a855d6f911610083578063a855d6f91461027c578063b6aa4ed61461028f578063ca15c873146102a2578063d547741f146102b557600080fd5b806388255199146102165780639010d07c1461023657806391d1485414610261578063a217fddf1461027457600080fd5b80632f2ff15d116100f05780632f2ff15d1461019757806333943474146101ac57806336568abe146101c157806381ecfce8146101d457600080fd5b806301ffc9a714610117578063092c5b3b1461013f578063248a9ca314610174575b600080fd5b61012a610125366004610f0a565b6102c8565b60405190151581526020015b60405180910390f35b6101667f7b765e0e932d348852a6f810bfa1ab891e259123f02db8cdcde614c57022335781565b604051908152602001610136565b610166610182366004610f34565b60009081526020819052604090206001015490565b6101aa6101a5366004610f4d565b61030c565b005b6101b4610336565b6040516101369190610fe5565b6101aa6101cf366004610f4d565b61040f565b6102036101e2366004611100565b805160208183018101805160048252928201919093012091525461ffff1681565b60405161ffff9091168152602001610136565b610229610224366004611100565b6104a3565b604051610136919061113d565b610249610244366004611150565b610548565b604051600160a060020a039091168152602001610136565b61012a61026f366004610f4d565b610567565b610166600081565b6101aa61028a366004611223565b610590565b61022961029d366004610f34565b610774565b6101666102b0366004610f34565b610837565b6101aa6102c3366004610f4d565b61084e565b6000600160e060020a031982167f5a05180f00000000000000000000000000000000000000000000000000000000148061030657506103068261090c565b92915050565b60008281526020819052604090206001015461032781610973565b6103318383610980565b505050565b60606002805480602002602001604051908101604052809291908181526020016000905b828210156104065783829060005260206000200180546103799061130f565b80601f01602080910402602001604051908101604052809291908181526020018280546103a59061130f565b80156103f25780601f106103c7576101008083540402835291602001916103f2565b820191906000526020600020905b8154815290600101906020018083116103d557829003601f168201915b50505050508152602001906001019061035a565b50505050905090565b600160a060020a03811633146104955760405160e560020a62461bcd02815260206004820152602f60248201527f416363657373436f6e74726f6c3a2063616e206f6e6c792072656e6f756e636560448201527f20726f6c657320666f722073656c66000000000000000000000000000000000060648201526084015b60405180910390fd5b61049f82826109a2565b5050565b8051602081830181018051600382529282019190930120915280546104c79061130f565b80601f01602080910402602001604051908101604052809291908181526020018280546104f39061130f565b80156105405780601f1061051557610100808354040283529160200191610540565b820191906000526020600020905b81548152906001019060200180831161052357829003601f168201915b505050505081565b600082815260016020526040812061056090836109c4565b9392505050565b600091825260208281526040808420600160a060020a0393909316845291905290205460ff1690565b600061059b81610973565b825184511480156105ad575081518451145b6105fc5760405160e560020a62461bcd02815260206004820152601760248201527f6172726179207175616e74697479206d69736d61746368000000000000000000604482015260640161048c565b60005b845181101561076d57600085828151811061061c5761061c61134d565b602002602001015190506004816040516106369190611366565b9081526040519081900360200190205461ffff1615801561067557508382815181106106645761066461134d565b602002602001015161ffff16600014155b1561075a576002805460018101825560009190915281516106bd917f405787fa12a823e0f2b7631cc41b3ba8828b3321ca811111fa75cd3aa3bb5ace01906020840190610e71565b508482815181106106d0576106d061134d565b60200260200101516003826040516106e89190611366565b90815260200160405180910390209080519060200190610709929190610e71565b5083828151811061071c5761071c61134d565b60200260200101516004826040516107349190611366565b908152604051908190036020019020805461ffff9290921661ffff199092169190911790555b50806107658161139b565b9150506105ff565b5050505050565b60025460609060009061078790846113b6565b90506002818154811061079c5761079c61134d565b9060005260206000200180546107b19061130f565b80601f01602080910402602001604051908101604052809291908181526020018280546107dd9061130f565b801561082a5780601f106107ff5761010080835404028352916020019161082a565b820191906000526020600020905b81548152906001019060200180831161080d57829003601f168201915b5050505050915050919050565b6000818152600160205260408120610306906109d0565b60008281526020819052604090206001015461086981610973565b61033183836109a2565b61087d8282610567565b61049f57600082815260208181526040808320600160a060020a03851684529091529020805460ff191660011790556108b33390565b600160a060020a031681600160a060020a0316837f2f8788117e7eff1d82e926ec794901d17c78024a50270940304540a733656f0d60405160405180910390a45050565b600061056083600160a060020a0384166109da565b6000600160e060020a031982167f7965db0b00000000000000000000000000000000000000000000000000000000148061030657507f01ffc9a700000000000000000000000000000000000000000000000000000000600160e060020a0319831614610306565b61097d8133610a29565b50565b61098a8282610873565b600082815260016020526040902061033190826108f7565b6109ac8282610a90565b60008281526001602052604090206103319082610af5565b60006105608383610b0a565b6000610306825490565b6000818152600183016020526040812054610a2157508154600181810184556000848152602080822090930184905584548482528286019093526040902091909155610306565b506000610306565b610a338282610567565b61049f57610a4b81600160a060020a03166014610b34565b610a56836020610b34565b604051602001610a679291906113db565b60408051601f198184030181529082905260e560020a62461bcd02825261048c9160040161113d565b610a9a8282610567565b1561049f57600082815260208181526040808320600160a060020a0385168085529252808320805460ff1916905551339285917ff6391f5c32d9c69d2a47ea670b442974b53935d1edc7fd64eb21e047a839171b9190a45050565b600061056083600160a060020a038416610d7e565b6000826000018281548110610b2157610b2161134d565b9060005260206000200154905092915050565b60606000610b4383600261145c565b610b4e90600261147b565b67ffffffffffffffff811115610b6657610b66611046565b6040519080825280601f01601f191660200182016040528015610b90576020820181803683370190505b5090507f300000000000000000000000000000000000000000000000000000000000000081600081518110610bc757610bc761134d565b60200101907effffffffffffffffffffffffffffffffffffffffffffffffffffffffffffff1916908160001a9053507f780000000000000000000000000000000000000000000000000000000000000081600181518110610c2a57610c2a61134d565b60200101907effffffffffffffffffffffffffffffffffffffffffffffffffffffffffffff1916908160001a9053506000610c6684600261145c565b610c7190600161147b565b90505b6001811115610d2c577f303132333435363738396162636465660000000000000000000000000000000085600f1660108110610cb257610cb261134d565b1a7f010000000000000000000000000000000000000000000000000000000000000002828281518110610ce757610ce761134d565b60200101907effffffffffffffffffffffffffffffffffffffffffffffffffffffffffffff1916908160001a905350601090940493610d2581611493565b9050610c74565b5083156105605760405160e560020a62461bcd02815260206004820181905260248201527f537472696e67733a20686578206c656e67746820696e73756666696369656e74604482015260640161048c565b60008181526001830160205260408120548015610e67576000610da26001836114aa565b8554909150600090610db6906001906114aa565b9050818114610e1b576000866000018281548110610dd657610dd661134d565b9060005260206000200154905080876000018481548110610df957610df961134d565b6000918252602080832090910192909255918252600188019052604090208390555b8554869080610e2c57610e2c6114c1565b600190038181906000526020600020016000905590558560010160008681526020019081526020016000206000905560019350505050610306565b6000915050610306565b828054610e7d9061130f565b90600052602060002090601f016020900481019282610e9f5760008555610ee5565b82601f10610eb857805160ff1916838001178555610ee5565b82800160010185558215610ee5579182015b82811115610ee5578251825591602001919060010190610eca565b50610ef1929150610ef5565b5090565b5b80821115610ef15760008155600101610ef6565b600060208284031215610f1c57600080fd5b8135600160e060020a03198116811461056057600080fd5b600060208284031215610f4657600080fd5b5035919050565b60008060408385031215610f6057600080fd5b823591506020830135600160a060020a0381168114610f7e57600080fd5b809150509250929050565b60005b83811015610fa4578181015183820152602001610f8c565b83811115610fb3576000848401525b50505050565b60008151808452610fd1816020860160208601610f89565b601f01601f19169290920160200192915050565b600060208083018184528085518083526040860191506040848202870101925083870160005b8281101561103957603f19888603018452611027858351610fb9565b9450928501929085019060010161100b565b5092979650505050505050565b60e060020a634e487b7102600052604160045260246000fd5b604051601f8201601f1916810167ffffffffffffffff8111828210171561108857611088611046565b604052919050565b600082601f8301126110a157600080fd5b813567ffffffffffffffff8111156110bb576110bb611046565b6110ce601f8201601f191660200161105f565b8181528460208386010111156110e357600080fd5b816020850160208301376000918101602001919091529392505050565b60006020828403121561111257600080fd5b813567ffffffffffffffff81111561112957600080fd5b61113584828501611090565b949350505050565b6020815260006105606020830184610fb9565b6000806040838503121561116357600080fd5b50508035926020909101359150565b600067ffffffffffffffff82111561118c5761118c611046565b5060209081020190565b600082601f8301126111a757600080fd5b813560206111bc6111b783611172565b61105f565b828152918102840181019181810190868411156111d857600080fd5b8286015b8481101561121857803567ffffffffffffffff8111156111fc5760008081fd5b61120a8986838b0101611090565b8452509183019183016111dc565b509695505050505050565b60008060006060848603121561123857600080fd5b833567ffffffffffffffff8082111561125057600080fd5b61125c87838801611196565b945060209150818601358181111561127357600080fd5b61127f88828901611196565b94505060408601358181111561129457600080fd5b86019050601f810187136112a757600080fd5b80356112b56111b782611172565b818152908302820183019083810190898311156112d157600080fd5b928401925b8284101561130057833561ffff811681146112f15760008081fd5b825292840192908401906112d6565b80955050505050509250925092565b60028104600182168061132357607f821691505b602082108114156113475760e060020a634e487b7102600052602260045260246000fd5b50919050565b60e060020a634e487b7102600052603260045260246000fd5b60008251611378818460208701610f89565b9190910192915050565b60e060020a634e487b7102600052601160045260246000fd5b60006000198214156113af576113af611382565b5060010190565b6000826113d65760e060020a634e487b7102600052601260045260246000fd5b500690565b7f416363657373436f6e74726f6c3a206163636f756e7420000000000000000000815260008351611413816017850160208801610f89565b7f206973206d697373696e6720726f6c65200000000000000000000000000000006017918401918201528351611450816028840160208801610f89565b01602801949350505050565b600081600019048311821515161561147657611476611382565b500290565b6000821982111561148e5761148e611382565b500190565b6000816114a2576114a2611382565b506000190190565b6000828210156114bc576114bc611382565b500390565b60e060020a634e487b7102600052603160045260246000fdfea264697066735822122078d43078659a9c9a8b5905c020f43a698f2f84e9c002057a303a4d8ec9d29e2164736f6c634300080b0033",
  "immutableReferences": {},
  "source": "// SPDX-License-Identifier: GPL-3.0\npragma solidity >=0.7.0 <0.9.0;\n\nimport \"@openzeppelin/contracts/access/AccessControlEnumerable.sol\";\n\ncontract ItemDeck is AccessControlEnumerable {\n    // This is an infinite deck, cards drawn are not removed from deck\n    // We can set card \"quantities\" for desireable probability\n\n    // controller role should be set to a controller contract\n    // not used by default, provided if going to make custom deck with limited access\n    bytes32 public constant CONTROLLER_ROLE = keccak256(\"CONTROLLER_ROLE\");\n\n    string[] _cards;\n\n    // mappings from card name\n    mapping(string => string) public description;\n    mapping(string => uint16) public quantity;\n\n    constructor() {\n        _setupRole(DEFAULT_ADMIN_ROLE, _msgSender());\n    }\n\n    function addCards(\n        string[] memory titles,\n        string[] memory descriptions,\n        uint16[] memory quantities\n    ) public onlyRole(DEFAULT_ADMIN_ROLE) {\n        require(\n            titles.length == descriptions.length &&\n                titles.length == quantities.length,\n            \"array quantity mismatch\"\n        );\n        for (uint256 i = 0; i < titles.length; i++) {\n            // only add if not already added and set quantity is not 0\n            string memory title = titles[i];\n            if (quantity[title] == 0 && quantities[i] != 0) {\n                _cards.push(title);\n                description[title] = descriptions[i];\n                quantity[title] = quantities[i];\n            }\n        }\n    }\n\n    // this function does not provide randomness,\n    // passing the same random word will yield the same draw.\n    // randomness should come from controller\n    function drawCard(uint256 randomWord)\n        public\n        view\n        virtual\n        returns (string memory)\n    {\n        uint256 cardIndex = randomWord % _cards.length;\n        return _cards[cardIndex];\n    }\n\n    function getDeck() public view returns (string[] memory) {\n        return _cards;\n    }\n}\n",
  "sourcePath": "/Users/maxmeier/Developer/Lucky Machines/hexploration/contracts/decks/ItemDeck.sol",
  "compiler": {
    "name": "solc",
    "version": "0.8.11+commit.d7f03943.Emscripten.clang"
  },
  "schemaVersion": "3.4.4",
  "updatedAt": "2022-05-10T22:43:52.517Z",
  "devdoc": {
    "kind": "dev",
    "methods": {
      "getRoleAdmin(bytes32)": {
        "details": "Returns the admin role that controls `role`. See {grantRole} and {revokeRole}. To change a role's admin, use {_setRoleAdmin}."
      },
      "getRoleMember(bytes32,uint256)": {
        "details": "Returns one of the accounts that have `role`. `index` must be a value between 0 and {getRoleMemberCount}, non-inclusive. Role bearers are not sorted in any particular way, and their ordering may change at any point. WARNING: When using {getRoleMember} and {getRoleMemberCount}, make sure you perform all queries on the same block. See the following https://forum.openzeppelin.com/t/iterating-over-elements-on-enumerableset-in-openzeppelin-contracts/2296[forum post] for more information."
      },
      "getRoleMemberCount(bytes32)": {
        "details": "Returns the number of accounts that have `role`. Can be used together with {getRoleMember} to enumerate all bearers of a role."
      },
      "grantRole(bytes32,address)": {
        "details": "Grants `role` to `account`. If `account` had not been already granted `role`, emits a {RoleGranted} event. Requirements: - the caller must have ``role``'s admin role."
      },
      "hasRole(bytes32,address)": {
        "details": "Returns `true` if `account` has been granted `role`."
      },
      "renounceRole(bytes32,address)": {
        "details": "Revokes `role` from the calling account. Roles are often managed via {grantRole} and {revokeRole}: this function's purpose is to provide a mechanism for accounts to lose their privileges if they are compromised (such as when a trusted device is misplaced). If the calling account had been revoked `role`, emits a {RoleRevoked} event. Requirements: - the caller must be `account`."
      },
      "revokeRole(bytes32,address)": {
        "details": "Revokes `role` from `account`. If `account` had been granted `role`, emits a {RoleRevoked} event. Requirements: - the caller must have ``role``'s admin role."
      },
      "supportsInterface(bytes4)": {
        "details": "See {IERC165-supportsInterface}."
      }
    },
    "version": 1
  },
  "userdoc": {
    "kind": "user",
    "methods": {},
    "version": 1
  }
}