{
  "contractName": "Item",
  "abi": [
    {
      "inputs": [
        {
          "internalType": "address",
          "name": "controllerAddress",
          "type": "address"
        }
      ],
      "stateMutability": "nonpayable",
      "type": "constructor"
    },
    {
      "anonymous": false,
      "inputs": [
        {
          "indexed": true,
          "internalType": "bytes32",
          "name": "role",
          "type": "bytes32"
        },
        {
          "indexed": true,
          "internalType": "bytes32",
          "name": "previousAdminRole",
          "type": "bytes32"
        },
        {
          "indexed": true,
          "internalType": "bytes32",
          "name": "newAdminRole",
          "type": "bytes32"
        }
      ],
      "name": "RoleAdminChanged",
      "type": "event"
    },
    {
      "anonymous": false,
      "inputs": [
        {
          "indexed": true,
          "internalType": "bytes32",
          "name": "role",
          "type": "bytes32"
        },
        {
          "indexed": true,
          "internalType": "address",
          "name": "account",
          "type": "address"
        },
        {
          "indexed": true,
          "internalType": "address",
          "name": "sender",
          "type": "address"
        }
      ],
      "name": "RoleGranted",
      "type": "event"
    },
    {
      "anonymous": false,
      "inputs": [
        {
          "indexed": true,
          "internalType": "bytes32",
          "name": "role",
          "type": "bytes32"
        },
        {
          "indexed": true,
          "internalType": "address",
          "name": "account",
          "type": "address"
        },
        {
          "indexed": true,
          "internalType": "address",
          "name": "sender",
          "type": "address"
        }
      ],
      "name": "RoleRevoked",
      "type": "event"
    },
    {
      "anonymous": false,
      "inputs": [
        {
          "indexed": true,
          "internalType": "uint256",
          "name": "gameID",
          "type": "uint256"
        },
        {
          "indexed": true,
          "internalType": "uint256",
          "name": "fromID",
          "type": "uint256"
        },
        {
          "indexed": true,
          "internalType": "uint256",
          "name": "toID",
          "type": "uint256"
        },
        {
          "indexed": false,
          "internalType": "address",
          "name": "controller",
          "type": "address"
        },
        {
          "indexed": false,
          "internalType": "string",
          "name": "tokenType",
          "type": "string"
        },
        {
          "indexed": false,
          "internalType": "uint256",
          "name": "value",
          "type": "uint256"
        }
      ],
      "name": "Transfer",
      "type": "event"
    },
    {
      "anonymous": false,
      "inputs": [
        {
          "indexed": true,
          "internalType": "uint256",
          "name": "gameID",
          "type": "uint256"
        },
        {
          "indexed": true,
          "internalType": "uint256",
          "name": "fromZoneIndex",
          "type": "uint256"
        },
        {
          "indexed": true,
          "internalType": "uint256",
          "name": "toID",
          "type": "uint256"
        },
        {
          "indexed": false,
          "internalType": "address",
          "name": "controller",
          "type": "address"
        },
        {
          "indexed": false,
          "internalType": "string",
          "name": "tokenType",
          "type": "string"
        },
        {
          "indexed": false,
          "internalType": "uint256",
          "name": "value",
          "type": "uint256"
        }
      ],
      "name": "TransferFromZone",
      "type": "event"
    },
    {
      "anonymous": false,
      "inputs": [
        {
          "indexed": true,
          "internalType": "uint256",
          "name": "gameID",
          "type": "uint256"
        },
        {
          "indexed": true,
          "internalType": "uint256",
          "name": "fromID",
          "type": "uint256"
        },
        {
          "indexed": true,
          "internalType": "uint256",
          "name": "toZoneIndex",
          "type": "uint256"
        },
        {
          "indexed": false,
          "internalType": "address",
          "name": "controller",
          "type": "address"
        },
        {
          "indexed": false,
          "internalType": "string",
          "name": "tokenType",
          "type": "string"
        },
        {
          "indexed": false,
          "internalType": "uint256",
          "name": "value",
          "type": "uint256"
        }
      ],
      "name": "TransferToZone",
      "type": "event"
    },
    {
      "anonymous": false,
      "inputs": [
        {
          "indexed": true,
          "internalType": "uint256",
          "name": "gameID",
          "type": "uint256"
        },
        {
          "indexed": true,
          "internalType": "uint256",
          "name": "fromZoneIndex",
          "type": "uint256"
        },
        {
          "indexed": true,
          "internalType": "uint256",
          "name": "toZoneIndex",
          "type": "uint256"
        },
        {
          "indexed": false,
          "internalType": "address",
          "name": "controller",
          "type": "address"
        },
        {
          "indexed": false,
          "internalType": "string",
          "name": "tokenType",
          "type": "string"
        },
        {
          "indexed": false,
          "internalType": "uint256",
          "name": "value",
          "type": "uint256"
        }
      ],
      "name": "TransferZoneToZone",
      "type": "event"
    },
    {
      "inputs": [],
      "name": "CONTROLLER_ROLE",
      "outputs": [
        {
          "internalType": "bytes32",
          "name": "",
          "type": "bytes32"
        }
      ],
      "stateMutability": "view",
      "type": "function",
      "constant": true
    },
    {
      "inputs": [],
      "name": "DEFAULT_ADMIN_ROLE",
      "outputs": [
        {
          "internalType": "bytes32",
          "name": "",
          "type": "bytes32"
        }
      ],
      "stateMutability": "view",
      "type": "function",
      "constant": true
    },
    {
      "inputs": [
        {
          "internalType": "address",
          "name": "controllerAddress",
          "type": "address"
        }
      ],
      "name": "addController",
      "outputs": [],
      "stateMutability": "nonpayable",
      "type": "function"
    },
    {
      "inputs": [
        {
          "internalType": "string[]",
          "name": "_tokenTypes",
          "type": "string[]"
        }
      ],
      "name": "addTokenTypes",
      "outputs": [],
      "stateMutability": "nonpayable",
      "type": "function"
    },
    {
      "inputs": [
        {
          "internalType": "string",
          "name": "",
          "type": "string"
        },
        {
          "internalType": "uint256",
          "name": "",
          "type": "uint256"
        },
        {
          "internalType": "uint256",
          "name": "",
          "type": "uint256"
        }
      ],
      "name": "balance",
      "outputs": [
        {
          "internalType": "uint256",
          "name": "",
          "type": "uint256"
        }
      ],
      "stateMutability": "view",
      "type": "function",
      "constant": true
    },
    {
      "inputs": [
        {
          "internalType": "bytes32",
          "name": "role",
          "type": "bytes32"
        }
      ],
      "name": "getRoleAdmin",
      "outputs": [
        {
          "internalType": "bytes32",
          "name": "",
          "type": "bytes32"
        }
      ],
      "stateMutability": "view",
      "type": "function",
      "constant": true
    },
    {
      "inputs": [
        {
          "internalType": "bytes32",
          "name": "role",
          "type": "bytes32"
        },
        {
          "internalType": "uint256",
          "name": "index",
          "type": "uint256"
        }
      ],
      "name": "getRoleMember",
      "outputs": [
        {
          "internalType": "address",
          "name": "",
          "type": "address"
        }
      ],
      "stateMutability": "view",
      "type": "function",
      "constant": true
    },
    {
      "inputs": [
        {
          "internalType": "bytes32",
          "name": "role",
          "type": "bytes32"
        }
      ],
      "name": "getRoleMemberCount",
      "outputs": [
        {
          "internalType": "uint256",
          "name": "",
          "type": "uint256"
        }
      ],
      "stateMutability": "view",
      "type": "function",
      "constant": true
    },
    {
      "inputs": [],
      "name": "getTokenTypes",
      "outputs": [
        {
          "internalType": "string[]",
          "name": "",
          "type": "string[]"
        }
      ],
      "stateMutability": "view",
      "type": "function",
      "constant": true
    },
    {
      "inputs": [
        {
          "internalType": "bytes32",
          "name": "role",
          "type": "bytes32"
        },
        {
          "internalType": "address",
          "name": "account",
          "type": "address"
        }
      ],
      "name": "grantRole",
      "outputs": [],
      "stateMutability": "nonpayable",
      "type": "function"
    },
    {
      "inputs": [
        {
          "internalType": "bytes32",
          "name": "role",
          "type": "bytes32"
        },
        {
          "internalType": "address",
          "name": "account",
          "type": "address"
        }
      ],
      "name": "hasRole",
      "outputs": [
        {
          "internalType": "bool",
          "name": "",
          "type": "bool"
        }
      ],
      "stateMutability": "view",
      "type": "function",
      "constant": true
    },
    {
      "inputs": [
        {
          "internalType": "string",
          "name": "tokenType",
          "type": "string"
        },
        {
          "internalType": "uint256",
          "name": "gameID",
          "type": "uint256"
        },
        {
          "internalType": "uint256",
          "name": "quantity",
          "type": "uint256"
        }
      ],
      "name": "mint",
      "outputs": [],
      "stateMutability": "nonpayable",
      "type": "function"
    },
    {
      "inputs": [
        {
          "internalType": "bytes32",
          "name": "role",
          "type": "bytes32"
        },
        {
          "internalType": "address",
          "name": "account",
          "type": "address"
        }
      ],
      "name": "renounceRole",
      "outputs": [],
      "stateMutability": "nonpayable",
      "type": "function"
    },
    {
      "inputs": [
        {
          "internalType": "bytes32",
          "name": "role",
          "type": "bytes32"
        },
        {
          "internalType": "address",
          "name": "account",
          "type": "address"
        }
      ],
      "name": "revokeRole",
      "outputs": [],
      "stateMutability": "nonpayable",
      "type": "function"
    },
    {
      "inputs": [
        {
          "internalType": "bytes4",
          "name": "interfaceId",
          "type": "bytes4"
        }
      ],
      "name": "supportsInterface",
      "outputs": [
        {
          "internalType": "bool",
          "name": "",
          "type": "bool"
        }
      ],
      "stateMutability": "view",
      "type": "function",
      "constant": true
    },
    {
      "inputs": [
        {
          "internalType": "uint256",
          "name": "",
          "type": "uint256"
        }
      ],
      "name": "tokenTypes",
      "outputs": [
        {
          "internalType": "string",
          "name": "",
          "type": "string"
        }
      ],
      "stateMutability": "view",
      "type": "function",
      "constant": true
    },
    {
      "inputs": [
        {
          "internalType": "string",
          "name": "tokenType",
          "type": "string"
        },
        {
          "internalType": "uint256",
          "name": "gameID",
          "type": "uint256"
        },
        {
          "internalType": "uint256",
          "name": "fromID",
          "type": "uint256"
        },
        {
          "internalType": "uint256",
          "name": "toID",
          "type": "uint256"
        },
        {
          "internalType": "uint256",
          "name": "quantity",
          "type": "uint256"
        }
      ],
      "name": "transfer",
      "outputs": [],
      "stateMutability": "nonpayable",
      "type": "function"
    },
    {
      "inputs": [
        {
          "internalType": "string",
          "name": "tokenType",
          "type": "string"
        },
        {
          "internalType": "uint256",
          "name": "gameID",
          "type": "uint256"
        },
        {
          "internalType": "uint256",
          "name": "fromZoneIndex",
          "type": "uint256"
        },
        {
          "internalType": "uint256",
          "name": "toID",
          "type": "uint256"
        },
        {
          "internalType": "uint256",
          "name": "quantity",
          "type": "uint256"
        }
      ],
      "name": "transferFromZone",
      "outputs": [],
      "stateMutability": "nonpayable",
      "type": "function"
    },
    {
      "inputs": [
        {
          "internalType": "string",
          "name": "tokenType",
          "type": "string"
        },
        {
          "internalType": "uint256",
          "name": "gameID",
          "type": "uint256"
        },
        {
          "internalType": "uint256",
          "name": "fromID",
          "type": "uint256"
        },
        {
          "internalType": "uint256",
          "name": "toZoneIndex",
          "type": "uint256"
        },
        {
          "internalType": "uint256",
          "name": "quantity",
          "type": "uint256"
        }
      ],
      "name": "transferToZone",
      "outputs": [],
      "stateMutability": "nonpayable",
      "type": "function"
    },
    {
      "inputs": [
        {
          "internalType": "string",
          "name": "tokenType",
          "type": "string"
        },
        {
          "internalType": "uint256",
          "name": "gameID",
          "type": "uint256"
        },
        {
          "internalType": "uint256",
          "name": "fromZoneIndex",
          "type": "uint256"
        },
        {
          "internalType": "uint256",
          "name": "toZoneIndex",
          "type": "uint256"
        },
        {
          "internalType": "uint256",
          "name": "quantity",
          "type": "uint256"
        }
      ],
      "name": "transferZoneToZone",
      "outputs": [],
      "stateMutability": "nonpayable",
      "type": "function"
    },
    {
      "inputs": [
        {
          "internalType": "string",
          "name": "",
          "type": "string"
        },
        {
          "internalType": "uint256",
          "name": "",
          "type": "uint256"
        },
        {
          "internalType": "uint256",
          "name": "",
          "type": "uint256"
        }
      ],
      "name": "zoneBalance",
      "outputs": [
        {
          "internalType": "uint256",
          "name": "",
          "type": "uint256"
        }
      ],
      "stateMutability": "view",
      "type": "function",
      "constant": true
    }
  ],
  "bytecode": "0x60806040523480156200001157600080fd5b50604051620030273803806200302783398101604081905262000034916200141e565b806200005d60006200004e64010000000062000db4810204565b64010000000062000db8810204565b620000927f7b765e0e932d348852a6f810bfa1ab891e259123f02db8cdcde614c5702233578264010000000062000db8810204565b506040805160268082526104e08201909252600091816020015b6060815260200190600190039081620000ac5790505090506040518060400160405280600a81526020017f536d616c6c20416d6d6f000000000000000000000000000000000000000000008152508160008151811062000110576200011062001478565b60200260200101819052506040518060400160405280600a81526020017f4c6172676520416d6d6f000000000000000000000000000000000000000000008152508160018151811062000167576200016762001478565b60200260200101819052506040518060400160405280600981526020017f426174746572696573000000000000000000000000000000000000000000000081525081600281518110620001be57620001be62001478565b60200260200101819052506040518060400160405280600681526020017f536869656c6400000000000000000000000000000000000000000000000000008152508160038151811062000215576200021562001478565b60200260200101819052506040518060400160405280600681526020017f506f7274616c0000000000000000000000000000000000000000000000000000815250816004815181106200026c576200026c62001478565b60200260200101819052506040518060400160405280600281526020017f4f6e00000000000000000000000000000000000000000000000000000000000081525081600581518110620002c357620002c362001478565b60200260200101819052506040518060400160405280600381526020017f4f66660000000000000000000000000000000000000000000000000000000000815250816006815181106200031a576200031a62001478565b60200260200101819052506040518060400160405280600c81526020017f52757374792044616767657200000000000000000000000000000000000000008152508160078151811062000371576200037162001478565b60200260200101819052506040518060400160405280600b81526020017f52757374792053776f726400000000000000000000000000000000000000000081525081600881518110620003c857620003c862001478565b60200260200101819052506040518060400160405280600c81526020017f527573747920506973746f6c0000000000000000000000000000000000000000815250816009815181106200041f576200041f62001478565b60200260200101819052506040518060400160405280600b81526020017f5275737479205269666c6500000000000000000000000000000000000000000081525081600a8151811062000476576200047662001478565b60200260200101819052506040518060400160405280600c81526020017f5368696e7920446167676572000000000000000000000000000000000000000081525081600b81518110620004cd57620004cd62001478565b60200260200101819052506040518060400160405280600b81526020017f5368696e792053776f726400000000000000000000000000000000000000000081525081600c8151811062000524576200052462001478565b60200260200101819052506040518060400160405280600c81526020017f5368696e7920506973746f6c000000000000000000000000000000000000000081525081600d815181106200057b576200057b62001478565b60200260200101819052506040518060400160405280600b81526020017f5368696e79205269666c6500000000000000000000000000000000000000000081525081600e81518110620005d257620005d262001478565b60200260200101819052506040518060400160405280600c81526020017f4c6173657220446167676572000000000000000000000000000000000000000081525081600f8151811062000629576200062962001478565b60200260200101819052506040518060400160405280600b81526020017f4c617365722053776f72640000000000000000000000000000000000000000008152508160108151811062000680576200068062001478565b60200260200101819052506040518060400160405280600c81526020017f4c6173657220506973746f6c000000000000000000000000000000000000000081525081601181518110620006d757620006d762001478565b60200260200101819052506040518060400160405280600b81526020017f4c61736572205269666c65000000000000000000000000000000000000000000815250816012815181106200072e576200072e62001478565b60200260200101819052506040518060400160405280600a81526020017f476c6f7720737469636b000000000000000000000000000000000000000000008152508160138151811062000785576200078562001478565b60200260200101819052506040518060400160405280600a81526020017f466c6173686c696768740000000000000000000000000000000000000000000081525081601481518110620007dc57620007dc62001478565b60200260200101819052506040518060400160405280600b81526020017f466c6f6f64206c696768740000000000000000000000000000000000000000008152508160158151811062000833576200083362001478565b60200260200101819052506040518060400160405280601381526020017f4e69676874766973696f6e20476f67676c657300000000000000000000000000815250816016815181106200088a576200088a62001478565b60200260200101819052506040518060400160405280600f81526020017f506572736f6e616c20536869656c64000000000000000000000000000000000081525081601781518110620008e157620008e162001478565b60200260200101819052506040518060400160405280600d81526020017f427562626c6520536869656c64000000000000000000000000000000000000008152508160188151811062000938576200093862001478565b60200260200101819052506040518060400160405280600c81526020017f46726167204772656e6164650000000000000000000000000000000000000000815250816019815181106200098f576200098f62001478565b60200260200101819052506040518060400160405280600c81526020017f46697265204772656e616465000000000000000000000000000000000000000081525081601a81518110620009e657620009e662001478565b60200260200101819052506040518060400160405280600d81526020017f53686f636b204772656e6164650000000000000000000000000000000000000081525081601b8151811062000a3d5762000a3d62001478565b60200260200101819052506040518060400160405280600981526020017f4845204d6f72746172000000000000000000000000000000000000000000000081525081601c8151811062000a945762000a9462001478565b60200260200101819052506040518060400160405280601181526020017f496e63656e6469617279204d6f7274617200000000000000000000000000000081525081601d8151811062000aeb5762000aeb62001478565b60200260200101819052506040518060400160405280600a81526020017f454d50204d6f727461720000000000000000000000000000000000000000000081525081601e8151811062000b425762000b4262001478565b60200260200101819052506040518060400160405280600b81526020017f506f77657220476c6f766500000000000000000000000000000000000000000081525081601f8151811062000b995762000b9962001478565b602002602001018190525060405180606001604052806021815260200162003006602191398160208151811062000bd45762000bd462001478565b60200260200101819052506040518060400160405280600f81526020017f54656c65706f72746572205061636b00000000000000000000000000000000008152508160218151811062000c2b5762000c2b62001478565b60200260200101819052506040518060400160405280600881526020017f43616d70736974650000000000000000000000000000000000000000000000008152508160228151811062000c825762000c8262001478565b60200260200101819052506040518060400160405280600f81526020017f456e677261766564205461626c657400000000000000000000000000000000008152508160238151811062000cd95762000cd962001478565b60200260200101819052506040518060400160405280600981526020017f536967696c2047656d00000000000000000000000000000000000000000000008152508160248151811062000d305762000d3062001478565b60200260200101819052506040518060400160405280600c81526020017f416e6369656e7420546f6d6500000000000000000000000000000000000000008152508160258151811062000d875762000d8762001478565b602002602001018190525062000dac8162000dd1640100000000026401000000009004565b5050620016ac565b3390565b62000dcd828264010000000062000ec0810204565b5050565b600062000de78164010000000062000f02810204565b60005b825181101562000ebb57600083828151811062000e0b5762000e0b62001478565b6020026020010151905060006005905060048260405162000e2d9190620014da565b9081526040519081900360200190205460ff1662000ea35780546001810182556000828152602090819020845162000e6d93919091019185019062001378565b50600160048360405162000e829190620014da565b908152604051908190036020019020805491151560ff199092169190911790555b5050808062000eb29062001527565b91505062000dea565b505050565b62000eda828264010000000062000cd762000f2c82021704565b600082815260016020526040902062000ebb908264010000000062000d5b62000fc882021704565b62000f298162000f1a64010000000062000db4810204565b64010000000062000ff1810204565b50565b62000f418282640100000000620010a8810204565b62000dcd57600082815260208181526040808320600160a060020a03851684529091529020805460ff1916600117905562000f8464010000000062000db4810204565b600160a060020a031681600160a060020a0316837f2f8788117e7eff1d82e926ec794901d17c78024a50270940304540a733656f0d60405160405180910390a45050565b600062000fe883600160a060020a038416640100000000620010d1810204565b90505b92915050565b620010068282640100000000620010a8810204565b62000dcd576200102f600160a060020a038216601464010000000062000d706200112982021704565b6200104a83602064010000000062000d706200112982021704565b6040516020016200105d92919062001545565b60408051601f19818403018152908290527f08c379a00000000000000000000000000000000000000000000000000000000082526200109f91600401620015ca565b60405180910390fd5b600091825260208281526040808420600160a060020a0393909316845291905290205460ff1690565b6000620010e8838364010000000062001360810204565b620011205750815460018181018455600084815260208082209093018490558454848252828601909352604090209190915562000feb565b50600062000feb565b606060006200113a836002620015ff565b6200114790600262001621565b67ffffffffffffffff81111562001162576200116262001449565b6040519080825280601f01601f1916602001820160405280156200118d576020820181803683370190505b5090507f300000000000000000000000000000000000000000000000000000000000000081600081518110620011c757620011c762001478565b6020010190600160f860020a031916908160001a9053507f78000000000000000000000000000000000000000000000000000000000000008160018151811062001215576200121562001478565b6020010190600160f860020a031916908160001a90535060006200123b846002620015ff565b6200124890600162001621565b90505b6001811115620012f5577f303132333435363738396162636465660000000000000000000000000000000085600f16601081106200128d576200128d62001478565b1a7f010000000000000000000000000000000000000000000000000000000000000002828281518110620012c557620012c562001478565b6020010190600160f860020a031916908160001a905350601090940493620012ed816200163c565b90506200124b565b50831562000fe8576040517f08c379a000000000000000000000000000000000000000000000000000000000815260206004820181905260248201527f537472696e67733a20686578206c656e67746820696e73756666696369656e7460448201526064016200109f565b60009081526001919091016020526040902054151590565b828054620013869062001656565b90600052602060002090601f016020900481019282620013aa5760008555620013f5565b82601f10620013c557805160ff1916838001178555620013f5565b82800160010185558215620013f5579182015b82811115620013f5578251825591602001919060010190620013d8565b506200140392915062001407565b5090565b5b8082111562001403576000815560010162001408565b6000602082840312156200143157600080fd5b8151600160a060020a038116811462000fe857600080fd5b7f4e487b7100000000000000000000000000000000000000000000000000000000600052604160045260246000fd5b7f4e487b7100000000000000000000000000000000000000000000000000000000600052603260045260246000fd5b60005b83811015620014c4578181015183820152602001620014aa565b83811115620014d4576000848401525b50505050565b60008251620014ee818460208701620014a7565b9190910192915050565b7f4e487b7100000000000000000000000000000000000000000000000000000000600052601160045260246000fd5b60006000198214156200153e576200153e620014f8565b5060010190565b7f416363657373436f6e74726f6c3a206163636f756e74200000000000000000008152600083516200157f816017850160208801620014a7565b7f206973206d697373696e6720726f6c65200000000000000000000000000000006017918401918201528351620015be816028840160208801620014a7565b01602801949350505050565b6020815260008251806020840152620015eb816040850160208701620014a7565b601f01601f19169190910160400192915050565b60008160001904831182151516156200161c576200161c620014f8565b500290565b60008219821115620016375762001637620014f8565b500190565b6000816200164e576200164e620014f8565b506000190190565b6002810460018216806200166b57607f821691505b60208210811415620016a6577f4e487b7100000000000000000000000000000000000000000000000000000000600052602260045260246000fd5b50919050565b61194a80620016bc6000396000f3fe608060405234801561001057600080fd5b5060043610610154576000357c01000000000000000000000000000000000000000000000000000000009004806365a3c078116100d5578063a7fc7a0711610099578063a7fc7a0714610323578063bae8c20714610336578063c853a1d014610349578063ca15c8731461035e578063d547741f14610371578063d82910471461038457600080fd5b806365a3c078146102895780638f9925f8146102ca5780639010d07c146102dd57806391d1485414610308578063a217fddf1461031b57600080fd5b80632f2ff15d1161011c5780632f2ff15d146101ef57806333f6832a1461020257806336568abe14610222578063379306ee146102355780634db157d01461024857600080fd5b806301ffc9a714610159578063092c5b3b146101815780631c635ded146101a4578063248a9ca3146101b95780632ed36791146101dc575b600080fd5b61016c610167366004611326565b610397565b60405190151581526020015b60405180910390f35b6101966000805160206118f583398151915281565b604051908152602001610178565b6101b76101b236600461140a565b6103db565b005b6101966101c7366004611458565b60009081526020819052604090206001015490565b6101b76101ea366004611471565b6104a8565b6101b76101fd3660046114ea565b6105f5565b610215610210366004611458565b61061f565b6040516101789190611572565b6101b76102303660046114ea565b6106cb565b6101b7610243366004611471565b61075a565b61019661025636600461140a565b82516020818501810180516002825292820195820195909520919094528352600091825260408083209093528152205481565b61019661029736600461140a565b82516020818501810180516003825292820195820195909520919094528352600091825260408083209093528152205481565b6101b76102d8366004611585565b61088a565b6102f06102eb366004611647565b61095b565b604051600160a060020a039091168152602001610178565b61016c6103163660046114ea565b61097a565b610196600081565b6101b7610331366004611669565b6109a3565b6101b7610344366004611471565b6109c6565b610351610af6565b6040516101789190611684565b61019661036c366004611458565b610bcf565b6101b761037f3660046114ea565b610be6565b6101b7610392366004611471565b610c0b565b6000600160e060020a031982167f5a05180f0000000000000000000000000000000000000000000000000000000014806103d557506103d582610f72565b92915050565b6000805160206118f58339815191526103f381610fd9565b60048460405161040391906116e5565b9081526040519081900360200190205460ff1661046a5760405160e560020a62461bcd02815260206004820152601260248201527f546f6b656e2074797065206e6f7420736574000000000000000000000000000060448201526064015b60405180910390fd5b8160028560405161047b91906116e5565b90815260408051602092819003830190206000968752825280862086805290915290932092909255505050565b6000805160206118f58339815191526104c081610fd9565b816003876040516104d191906116e5565b9081526040805160209281900383019020600089815290835281812088825290925290205410156105175760405160e560020a62461bcd02815260040161046190611701565b8160028760405161052891906116e5565b908152604080516020928190038301902060008981529083528181208782529092528120805490919061055c908490611751565b925050819055508160038760405161057491906116e5565b90815260408051602092819003830190206000898152908352818120888252909252812080549091906105a8908490611769565b9091555083905084867f6fa4dc3bc7c111db7ae7922175d10ef398b7ed0322e78123e284c4f6a733e635335b8a876040516105e593929190611780565b60405180910390a4505050505050565b60008281526020819052604090206001015461061081610fd9565b61061a8383610fe6565b505050565b6005818154811061062f57600080fd5b90600052602060002001600091509050805461064a906117b2565b80601f0160208091040260200160405190810160405280929190818152602001828054610676906117b2565b80156106c35780601f10610698576101008083540402835291602001916106c3565b820191906000526020600020905b8154815290600101906020018083116106a657829003601f168201915b505050505081565b600160a060020a038116331461074c5760405160e560020a62461bcd02815260206004820152602f60248201527f416363657373436f6e74726f6c3a2063616e206f6e6c792072656e6f756e636560448201527f20726f6c657320666f722073656c6600000000000000000000000000000000006064820152608401610461565b6107568282611008565b5050565b6000805160206118f583398151915261077281610fd9565b8160038760405161078391906116e5565b9081526040805160209281900383019020600089815290835281812088825290925290205410156107c95760405160e560020a62461bcd02815260040161046190611701565b816003876040516107da91906116e5565b908152604080516020928190038301902060008981529083528181208782529092528120805490919061080e908490611751565b925050819055508160038760405161082691906116e5565b908152604080516020928190038301902060008981529083528181208882529092528120805490919061085a908490611769565b9091555083905084867fceca1129300a57e05eff40843f1869becc8df18339f4ddad0de80ecd7116ce6b336105d4565b600061089581610fd9565b60005b825181101561061a5760008382815181106108b5576108b56117f0565b602002602001015190506000600590506004826040516108d591906116e5565b9081526040519081900360200190205460ff166109465780546001810182556000828152602090819020845161091293919091019185019061128d565b50600160048360405161092591906116e5565b908152604051908190036020019020805491151560ff199092169190911790555b5050808061095390611809565b915050610898565b6000828152600160205260408120610973908361102a565b9392505050565b600091825260208281526040808420600160a060020a0393909316845291905290205460ff1690565b60006109ae81610fd9565b6107566000805160206118f5833981519152836105f5565b6000805160206118f58339815191526109de81610fd9565b816002876040516109ef91906116e5565b908152604080516020928190038301902060008981529083528181208882529092529020541015610a355760405160e560020a62461bcd02815260040161046190611701565b81600387604051610a4691906116e5565b9081526040805160209281900383019020600089815290835281812087825290925281208054909190610a7a908490611751565b9250508190555081600287604051610a9291906116e5565b9081526040805160209281900383019020600089815290835281812088825290925281208054909190610ac6908490611769565b9091555083905084867f544cd106f706f69ee9188abf5eab5b03f6162e0225adba30e00ca371b993dcdd336105d4565b60606005805480602002602001604051908101604052809291908181526020016000905b82821015610bc6578382906000526020600020018054610b39906117b2565b80601f0160208091040260200160405190810160405280929190818152602001828054610b65906117b2565b8015610bb25780601f10610b8757610100808354040283529160200191610bb2565b820191906000526020600020905b815481529060010190602001808311610b9557829003601f168201915b505050505081526020019060010190610b1a565b50505050905090565b60008181526001602052604081206103d590611036565b600082815260208190526040902060010154610c0181610fd9565b61061a8383611008565b6000805160206118f5833981519152610c2381610fd9565b81600287604051610c3491906116e5565b908152604080516020928190038301902060008981529083528181208882529092529020541015610c7a5760405160e560020a62461bcd02815260040161046190611701565b81600287604051610c8b91906116e5565b9081526040805160209281900383019020600089815290835281812087825290925281208054909190610cbf908490611751565b925050819055508160028760405161082691906116e5565b610ce1828261097a565b61075657600082815260208181526040808320600160a060020a03851684529091529020805460ff19166001179055610d173390565b600160a060020a031681600160a060020a0316837f2f8788117e7eff1d82e926ec794901d17c78024a50270940304540a733656f0d60405160405180910390a45050565b600061097383600160a060020a038416611040565b60606000610d7f836002611824565b610d8a906002611751565b67ffffffffffffffff811115610da257610da2611350565b6040519080825280601f01601f191660200182016040528015610dcc576020820181803683370190505b5090507f300000000000000000000000000000000000000000000000000000000000000081600081518110610e0357610e036117f0565b6020010190600160f860020a031916908160001a9053507f780000000000000000000000000000000000000000000000000000000000000081600181518110610e4e57610e4e6117f0565b6020010190600160f860020a031916908160001a9053506000610e72846002611824565b610e7d906001611751565b90505b6001811115610f20577f303132333435363738396162636465660000000000000000000000000000000085600f1660108110610ebe57610ebe6117f0565b1a7f010000000000000000000000000000000000000000000000000000000000000002828281518110610ef357610ef36117f0565b6020010190600160f860020a031916908160001a905350601090940493610f1981611843565b9050610e80565b5083156109735760405160e560020a62461bcd02815260206004820181905260248201527f537472696e67733a20686578206c656e67746820696e73756666696369656e746044820152606401610461565b6000600160e060020a031982167f7965db0b0000000000000000000000000000000000000000000000000000000014806103d557507f01ffc9a700000000000000000000000000000000000000000000000000000000600160e060020a03198316146103d5565b610fe3813361108f565b50565b610ff08282610cd7565b600082815260016020526040902061061a9082610d5b565b61101282826110f6565b600082815260016020526040902061061a908261115b565b60006109738383611170565b60006103d5825490565b6000818152600183016020526040812054611087575081546001818101845560008481526020808220909301849055845484825282860190935260409020919091556103d5565b5060006103d5565b611099828261097a565b610756576110b181600160a060020a03166014610d70565b6110bc836020610d70565b6040516020016110cd92919061185a565b60408051601f198184030181529082905260e560020a62461bcd02825261046191600401611572565b611100828261097a565b1561075657600082815260208181526040808320600160a060020a0385168085529252808320805460ff1916905551339285917ff6391f5c32d9c69d2a47ea670b442974b53935d1edc7fd64eb21e047a839171b9190a45050565b600061097383600160a060020a03841661119a565b6000826000018281548110611187576111876117f0565b9060005260206000200154905092915050565b600081815260018301602052604081205480156112835760006111be600183611769565b85549091506000906111d290600190611769565b90508181146112375760008660000182815481106111f2576111f26117f0565b9060005260206000200154905080876000018481548110611215576112156117f0565b6000918252602080832090910192909255918252600188019052604090208390555b8554869080611248576112486118db565b6001900381819060005260206000200160009055905585600101600086815260200190815260200160002060009055600193505050506103d5565b60009150506103d5565b828054611299906117b2565b90600052602060002090601f0160209004810192826112bb5760008555611301565b82601f106112d457805160ff1916838001178555611301565b82800160010185558215611301579182015b828111156113015782518255916020019190600101906112e6565b5061130d929150611311565b5090565b5b8082111561130d5760008155600101611312565b60006020828403121561133857600080fd5b8135600160e060020a03198116811461097357600080fd5b60e060020a634e487b7102600052604160045260246000fd5b604051601f8201601f1916810167ffffffffffffffff8111828210171561139257611392611350565b604052919050565b600082601f8301126113ab57600080fd5b813567ffffffffffffffff8111156113c5576113c5611350565b6113d8601f8201601f1916602001611369565b8181528460208386010111156113ed57600080fd5b816020850160208301376000918101602001919091529392505050565b60008060006060848603121561141f57600080fd5b833567ffffffffffffffff81111561143657600080fd5b6114428682870161139a565b9660208601359650604090950135949350505050565b60006020828403121561146a57600080fd5b5035919050565b600080600080600060a0868803121561148957600080fd5b853567ffffffffffffffff8111156114a057600080fd5b6114ac8882890161139a565b9860208801359850604088013597606081013597506080013595509350505050565b8035600160a060020a03811681146114e557600080fd5b919050565b600080604083850312156114fd57600080fd5b8235915061150d602084016114ce565b90509250929050565b60005b83811015611531578181015183820152602001611519565b83811115611540576000848401525b50505050565b6000815180845261155e816020860160208601611516565b601f01601f19169290920160200192915050565b6020815260006109736020830184611546565b6000602080838503121561159857600080fd5b823567ffffffffffffffff808211156115b057600080fd5b818501915085601f8301126115c457600080fd5b8135818111156115d6576115d6611350565b8381026115e4858201611369565b91825283810185019185810190898411156115fe57600080fd5b86860192505b8383101561163a5782358581111561161c5760008081fd5b61162a8b89838a010161139a565b8352509186019190860190611604565b9998505050505050505050565b6000806040838503121561165a57600080fd5b50508035926020909101359150565b60006020828403121561167b57600080fd5b610973826114ce565b600060208083018184528085518083526040860191506040848202870101925083870160005b828110156116d857603f198886030184526116c6858351611546565b945092850192908501906001016116aa565b5092979650505050505050565b600082516116f7818460208701611516565b9190910192915050565b60208082526014908201527f66726f6d2062616c616e636520746f6f206c6f77000000000000000000000000604082015260600190565b60e060020a634e487b7102600052601160045260246000fd5b6000821982111561176457611764611738565b500190565b60008282101561177b5761177b611738565b500390565b600160a060020a03841681526060602082015260006117a26060830185611546565b9050826040830152949350505050565b6002810460018216806117c657607f821691505b602082108114156117ea5760e060020a634e487b7102600052602260045260246000fd5b50919050565b60e060020a634e487b7102600052603260045260246000fd5b600060001982141561181d5761181d611738565b5060010190565b600081600019048311821515161561183e5761183e611738565b500290565b60008161185257611852611738565b506000190190565b7f416363657373436f6e74726f6c3a206163636f756e7420000000000000000000815260008351611892816017850160208801611516565b7f206973206d697373696e6720726f6c652000000000000000000000000000000060179184019182015283516118cf816028840160208801611516565b01602801949350505050565b60e060020a634e487b7102600052603160045260246000fdfe7b765e0e932d348852a6f810bfa1ab891e259123f02db8cdcde614c570223357a2646970667358221220ef07b0dd6be85b93598fd7d2a813d293c8559654a2624c81c68eec32ab7163dc64736f6c634300080b003352656d6f7465204c61756e636820616e642047756964616e63652053797374656d",
  "immutableReferences": {},
  "source": "// SPDX-License-Identifier: GPL-3.0\npragma solidity >=0.7.0 <0.9.0;\n\nimport \"./GameToken.sol\";\n\ncontract Item is GameToken {\n    constructor(address controllerAddress) GameToken(controllerAddress) {\n        string[] memory tokenTypes = new string[](38);\n        tokenTypes[0] = \"Small Ammo\";\n        tokenTypes[1] = \"Large Ammo\";\n        tokenTypes[2] = \"Batteries\";\n        tokenTypes[3] = \"Shield\";\n        tokenTypes[4] = \"Portal\";\n        tokenTypes[5] = \"On\";\n        tokenTypes[6] = \"Off\";\n        tokenTypes[7] = \"Rusty Dagger\";\n        tokenTypes[8] = \"Rusty Sword\";\n        tokenTypes[9] = \"Rusty Pistol\";\n        tokenTypes[10] = \"Rusty Rifle\";\n        tokenTypes[11] = \"Shiny Dagger\";\n        tokenTypes[12] = \"Shiny Sword\";\n        tokenTypes[13] = \"Shiny Pistol\";\n        tokenTypes[14] = \"Shiny Rifle\";\n        tokenTypes[15] = \"Laser Dagger\";\n        tokenTypes[16] = \"Laser Sword\";\n        tokenTypes[17] = \"Laser Pistol\";\n        tokenTypes[18] = \"Laser Rifle\";\n        tokenTypes[19] = \"Glow stick\";\n        tokenTypes[20] = \"Flashlight\";\n        tokenTypes[21] = \"Flood light\";\n        tokenTypes[22] = \"Nightvision Goggles\";\n        tokenTypes[23] = \"Personal Shield\";\n        tokenTypes[24] = \"Bubble Shield\";\n        tokenTypes[25] = \"Frag Grenade\";\n        tokenTypes[26] = \"Fire Grenade\";\n        tokenTypes[27] = \"Shock Grenade\";\n        tokenTypes[28] = \"HE Mortar\";\n        tokenTypes[29] = \"Incendiary Mortar\";\n        tokenTypes[30] = \"EMP Mortar\";\n        tokenTypes[31] = \"Power Glove\";\n        tokenTypes[32] = \"Remote Launch and Guidance System\";\n        tokenTypes[33] = \"Teleporter Pack\";\n        tokenTypes[34] = \"Campsite\";\n        tokenTypes[35] = \"Engraved Tablet\";\n        tokenTypes[36] = \"Sigil Gem\";\n        tokenTypes[37] = \"Ancient Tome\";\n        addTokenTypes(tokenTypes);\n    }\n}\n",
  "sourcePath": "/Users/max/demo/hexploration/contracts/tokens/Item.sol",
  "compiler": {
    "name": "solc",
    "version": "0.8.11+commit.d7f03943.Emscripten.clang"
  },
  "schemaVersion": "3.4.2",
  "updatedAt": "2022-05-27T20:27:13.722Z",
  "networkType": "ethereum",
  "devdoc": {
    "kind": "dev",
    "methods": {
      "getRoleAdmin(bytes32)": {
        "details": "Returns the admin role that controls `role`. See {grantRole} and {revokeRole}. To change a role's admin, use {_setRoleAdmin}."
      },
      "getRoleMember(bytes32,uint256)": {
        "details": "Returns one of the accounts that have `role`. `index` must be a value between 0 and {getRoleMemberCount}, non-inclusive. Role bearers are not sorted in any particular way, and their ordering may change at any point. WARNING: When using {getRoleMember} and {getRoleMemberCount}, make sure you perform all queries on the same block. See the following https://forum.openzeppelin.com/t/iterating-over-elements-on-enumerableset-in-openzeppelin-contracts/2296[forum post] for more information."
      },
      "getRoleMemberCount(bytes32)": {
        "details": "Returns the number of accounts that have `role`. Can be used together with {getRoleMember} to enumerate all bearers of a role."
      },
      "grantRole(bytes32,address)": {
        "details": "Grants `role` to `account`. If `account` had not been already granted `role`, emits a {RoleGranted} event. Requirements: - the caller must have ``role``'s admin role."
      },
      "hasRole(bytes32,address)": {
        "details": "Returns `true` if `account` has been granted `role`."
      },
      "renounceRole(bytes32,address)": {
        "details": "Revokes `role` from the calling account. Roles are often managed via {grantRole} and {revokeRole}: this function's purpose is to provide a mechanism for accounts to lose their privileges if they are compromised (such as when a trusted device is misplaced). If the calling account had been revoked `role`, emits a {RoleRevoked} event. Requirements: - the caller must be `account`."
      },
      "revokeRole(bytes32,address)": {
        "details": "Revokes `role` from `account`. If `account` had been granted `role`, emits a {RoleRevoked} event. Requirements: - the caller must have ``role``'s admin role."
      },
      "supportsInterface(bytes4)": {
        "details": "See {IERC165-supportsInterface}."
      }
    },
    "version": 1
  },
  "userdoc": {
    "kind": "user",
    "methods": {},
    "version": 1
  }
}