{
  "contractName": "LandDeck",
  "abi": [
    {
      "inputs": [],
      "stateMutability": "nonpayable",
      "type": "constructor"
    },
    {
      "anonymous": false,
      "inputs": [
        {
          "indexed": true,
          "internalType": "bytes32",
          "name": "role",
          "type": "bytes32"
        },
        {
          "indexed": true,
          "internalType": "bytes32",
          "name": "previousAdminRole",
          "type": "bytes32"
        },
        {
          "indexed": true,
          "internalType": "bytes32",
          "name": "newAdminRole",
          "type": "bytes32"
        }
      ],
      "name": "RoleAdminChanged",
      "type": "event"
    },
    {
      "anonymous": false,
      "inputs": [
        {
          "indexed": true,
          "internalType": "bytes32",
          "name": "role",
          "type": "bytes32"
        },
        {
          "indexed": true,
          "internalType": "address",
          "name": "account",
          "type": "address"
        },
        {
          "indexed": true,
          "internalType": "address",
          "name": "sender",
          "type": "address"
        }
      ],
      "name": "RoleGranted",
      "type": "event"
    },
    {
      "anonymous": false,
      "inputs": [
        {
          "indexed": true,
          "internalType": "bytes32",
          "name": "role",
          "type": "bytes32"
        },
        {
          "indexed": true,
          "internalType": "address",
          "name": "account",
          "type": "address"
        },
        {
          "indexed": true,
          "internalType": "address",
          "name": "sender",
          "type": "address"
        }
      ],
      "name": "RoleRevoked",
      "type": "event"
    },
    {
      "inputs": [],
      "name": "CONTROLLER_ROLE",
      "outputs": [
        {
          "internalType": "bytes32",
          "name": "",
          "type": "bytes32"
        }
      ],
      "stateMutability": "view",
      "type": "function"
    },
    {
      "inputs": [],
      "name": "DEFAULT_ADMIN_ROLE",
      "outputs": [
        {
          "internalType": "bytes32",
          "name": "",
          "type": "bytes32"
        }
      ],
      "stateMutability": "view",
      "type": "function"
    },
    {
      "inputs": [
        {
          "internalType": "string[]",
          "name": "titles",
          "type": "string[]"
        },
        {
          "internalType": "string[]",
          "name": "descriptions",
          "type": "string[]"
        },
        {
          "internalType": "uint16[]",
          "name": "quantities",
          "type": "uint16[]"
        }
      ],
      "name": "addCards",
      "outputs": [],
      "stateMutability": "nonpayable",
      "type": "function"
    },
    {
      "inputs": [],
      "name": "card0",
      "outputs": [
        {
          "internalType": "string",
          "name": "",
          "type": "string"
        }
      ],
      "stateMutability": "view",
      "type": "function"
    },
    {
      "inputs": [],
      "name": "card1",
      "outputs": [
        {
          "internalType": "string",
          "name": "",
          "type": "string"
        }
      ],
      "stateMutability": "view",
      "type": "function"
    },
    {
      "inputs": [],
      "name": "card2",
      "outputs": [
        {
          "internalType": "string",
          "name": "",
          "type": "string"
        }
      ],
      "stateMutability": "view",
      "type": "function"
    },
    {
      "inputs": [],
      "name": "card3",
      "outputs": [
        {
          "internalType": "string",
          "name": "",
          "type": "string"
        }
      ],
      "stateMutability": "view",
      "type": "function"
    },
    {
      "inputs": [],
      "name": "card4",
      "outputs": [
        {
          "internalType": "string",
          "name": "",
          "type": "string"
        }
      ],
      "stateMutability": "view",
      "type": "function"
    },
    {
      "inputs": [
        {
          "internalType": "string",
          "name": "",
          "type": "string"
        }
      ],
      "name": "description",
      "outputs": [
        {
          "internalType": "string",
          "name": "",
          "type": "string"
        }
      ],
      "stateMutability": "view",
      "type": "function"
    },
    {
      "inputs": [
        {
          "internalType": "uint256",
          "name": "randomWord",
          "type": "uint256"
        }
      ],
      "name": "drawCard",
      "outputs": [
        {
          "internalType": "string",
          "name": "",
          "type": "string"
        }
      ],
      "stateMutability": "view",
      "type": "function"
    },
    {
      "inputs": [],
      "name": "getDeck",
      "outputs": [
        {
          "internalType": "string[]",
          "name": "",
          "type": "string[]"
        }
      ],
      "stateMutability": "view",
      "type": "function"
    },
    {
      "inputs": [
        {
          "internalType": "bytes32",
          "name": "role",
          "type": "bytes32"
        }
      ],
      "name": "getRoleAdmin",
      "outputs": [
        {
          "internalType": "bytes32",
          "name": "",
          "type": "bytes32"
        }
      ],
      "stateMutability": "view",
      "type": "function"
    },
    {
      "inputs": [
        {
          "internalType": "bytes32",
          "name": "role",
          "type": "bytes32"
        },
        {
          "internalType": "uint256",
          "name": "index",
          "type": "uint256"
        }
      ],
      "name": "getRoleMember",
      "outputs": [
        {
          "internalType": "address",
          "name": "",
          "type": "address"
        }
      ],
      "stateMutability": "view",
      "type": "function"
    },
    {
      "inputs": [
        {
          "internalType": "bytes32",
          "name": "role",
          "type": "bytes32"
        }
      ],
      "name": "getRoleMemberCount",
      "outputs": [
        {
          "internalType": "uint256",
          "name": "",
          "type": "uint256"
        }
      ],
      "stateMutability": "view",
      "type": "function"
    },
    {
      "inputs": [
        {
          "internalType": "bytes32",
          "name": "role",
          "type": "bytes32"
        },
        {
          "internalType": "address",
          "name": "account",
          "type": "address"
        }
      ],
      "name": "grantRole",
      "outputs": [],
      "stateMutability": "nonpayable",
      "type": "function"
    },
    {
      "inputs": [
        {
          "internalType": "bytes32",
          "name": "role",
          "type": "bytes32"
        },
        {
          "internalType": "address",
          "name": "account",
          "type": "address"
        }
      ],
      "name": "hasRole",
      "outputs": [
        {
          "internalType": "bool",
          "name": "",
          "type": "bool"
        }
      ],
      "stateMutability": "view",
      "type": "function"
    },
    {
      "inputs": [
        {
          "internalType": "string",
          "name": "",
          "type": "string"
        }
      ],
      "name": "quantity",
      "outputs": [
        {
          "internalType": "uint16",
          "name": "",
          "type": "uint16"
        }
      ],
      "stateMutability": "view",
      "type": "function"
    },
    {
      "inputs": [
        {
          "internalType": "bytes32",
          "name": "role",
          "type": "bytes32"
        },
        {
          "internalType": "address",
          "name": "account",
          "type": "address"
        }
      ],
      "name": "renounceRole",
      "outputs": [],
      "stateMutability": "nonpayable",
      "type": "function"
    },
    {
      "inputs": [
        {
          "internalType": "bytes32",
          "name": "role",
          "type": "bytes32"
        },
        {
          "internalType": "address",
          "name": "account",
          "type": "address"
        }
      ],
      "name": "revokeRole",
      "outputs": [],
      "stateMutability": "nonpayable",
      "type": "function"
    },
    {
      "inputs": [
        {
          "internalType": "bytes4",
          "name": "interfaceId",
          "type": "bytes4"
        }
      ],
      "name": "supportsInterface",
      "outputs": [
        {
          "internalType": "bool",
          "name": "",
          "type": "bool"
        }
      ],
      "stateMutability": "view",
      "type": "function"
    }
  ],
  "bytecode": "0x60806040523480156200001157600080fd5b506200003a60006200002b64010000000062000469810204565b6401000000006200046d810204565b60408051600580825260c08201909252600091816020015b60608152602001906001900390816200005257505060408051600580825260c0820190925291925060009190602082015b60608152602001906001900390816200008357505060408051600580825260c08201909252919250600091906020820160a0803683370190505090506040518060400160405280600681526020017f506c61696e730000000000000000000000000000000000000000000000000000815250836000815181106200010b576200010b62000c38565b602002602001018190525060405180602001604052806000815250826000815181106200013c576200013c62000c38565b60200260200101819052506001816000815181106200015f576200015f62000c38565b602002602001019061ffff16908161ffff16815250506040518060400160405280600681526020017f4a756e676c65000000000000000000000000000000000000000000000000000081525083600181518110620001c157620001c162000c38565b60200260200101819052506040518060200160405280600081525082600181518110620001f257620001f262000c38565b602002602001018190525060018160018151811062000215576200021562000c38565b602002602001019061ffff16908161ffff16815250506040518060400160405280600881526020017f4d6f756e7461696e0000000000000000000000000000000000000000000000008152508360028151811062000277576200027762000c38565b60200260200101819052506040518060200160405280600081525082600281518110620002a857620002a862000c38565b6020026020010181905250600181600281518110620002cb57620002cb62000c38565b602002602001019061ffff16908161ffff16815250506040518060400160405280600681526020017f4465736572740000000000000000000000000000000000000000000000000000815250836003815181106200032d576200032d62000c38565b602002602001018190525060405180602001604052806000815250826003815181106200035e576200035e62000c38565b602002602001018190525060018160038151811062000381576200038162000c38565b602002602001019061ffff16908161ffff16815250506040518060400160405280600c81526020017f4c616e64696e672053697465000000000000000000000000000000000000000081525083600481518110620003e357620003e362000c38565b6020026020010181905250604051806020016040528060008152508260048151811062000414576200041462000c38565b602002602001018190525060018160048151811062000437576200043762000c38565b61ffff909216602092830291909101909101526200046083838364010000000062000486810204565b50505062000e6c565b3390565b620004828282640100000000620006af810204565b5050565b60006200049c81640100000000620006f6810204565b82518451148015620004af575081518451145b6200051b576040517f08c379a000000000000000000000000000000000000000000000000000000000815260206004820152601760248201527f6172726179207175616e74697479206d69736d6174636800000000000000000060448201526064015b60405180910390fd5b60005b8451811015620006a85760008582815181106200053f576200053f62000c38565b602002602001015190506004816040516200055b919062000c9a565b9081526040519081900360200190205461ffff161580156200059e57508382815181106200058d576200058d62000c38565b602002602001015161ffff16600014155b156200069257600280546001810182556000919091528151620005e9917f405787fa12a823e0f2b7631cc41b3ba8828b3321ca811111fa75cd3aa3bb5ace0190602084019062000b63565b50848281518110620005ff57620005ff62000c38565b602002602001015160038260405162000619919062000c9a565b908152602001604051809103902090805190602001906200063c92919062000b63565b5083828151811062000652576200065262000c38565b60200260200101516004826040516200066c919062000c9a565b908152604051908190036020019020805461ffff9290921661ffff199092169190911790555b50806200069f8162000ce7565b9150506200051e565b5050505050565b620006c98282640100000000620009d66200072082021704565b6000828152600160205260409020620006f1908264010000000062000a5a620007bc82021704565b505050565b6200071d816200070e64010000000062000469810204565b640100000000620007e5810204565b50565b62000735828264010000000062000893810204565b6200048257600082815260208181526040808320600160a060020a03851684529091529020805460ff191660011790556200077864010000000062000469810204565b600160a060020a031681600160a060020a0316837f2f8788117e7eff1d82e926ec794901d17c78024a50270940304540a733656f0d60405160405180910390a45050565b6000620007dc83600160a060020a038416640100000000620008bc810204565b90505b92915050565b620007fa828264010000000062000893810204565b620004825762000823600160a060020a038216601464010000000062000a6f6200091482021704565b6200083e83602064010000000062000a6f6200091482021704565b6040516020016200085192919062000d05565b60408051601f19818403018152908290527f08c379a0000000000000000000000000000000000000000000000000000000008252620005129160040162000d8a565b600091825260208281526040808420600160a060020a0393909316845291905290205460ff1690565b6000620008d3838364010000000062000b4b810204565b6200090b57508154600181810184556000848152602080822090930184905584548482528286019093526040902091909155620007df565b506000620007df565b606060006200092583600262000dbf565b6200093290600262000de1565b67ffffffffffffffff8111156200094d576200094d62000c09565b6040519080825280601f01601f19166020018201604052801562000978576020820181803683370190505b5090507f300000000000000000000000000000000000000000000000000000000000000081600081518110620009b257620009b262000c38565b6020010190600160f860020a031916908160001a9053507f78000000000000000000000000000000000000000000000000000000000000008160018151811062000a005762000a0062000c38565b6020010190600160f860020a031916908160001a905350600062000a2684600262000dbf565b62000a3390600162000de1565b90505b600181111562000ae0577f303132333435363738396162636465660000000000000000000000000000000085600f166010811062000a785762000a7862000c38565b1a7f01000000000000000000000000000000000000000000000000000000000000000282828151811062000ab05762000ab062000c38565b6020010190600160f860020a031916908160001a90535060109094049362000ad88162000dfc565b905062000a36565b508315620007dc576040517f08c379a000000000000000000000000000000000000000000000000000000000815260206004820181905260248201527f537472696e67733a20686578206c656e67746820696e73756666696369656e74604482015260640162000512565b60009081526001919091016020526040902054151590565b82805462000b719062000e16565b90600052602060002090601f01602090048101928262000b95576000855562000be0565b82601f1062000bb057805160ff191683800117855562000be0565b8280016001018555821562000be0579182015b8281111562000be057825182559160200191906001019062000bc3565b5062000bee92915062000bf2565b5090565b5b8082111562000bee576000815560010162000bf3565b7f4e487b7100000000000000000000000000000000000000000000000000000000600052604160045260246000fd5b7f4e487b7100000000000000000000000000000000000000000000000000000000600052603260045260246000fd5b60005b8381101562000c8457818101518382015260200162000c6a565b8381111562000c94576000848401525b50505050565b6000825162000cae81846020870162000c67565b9190910192915050565b7f4e487b7100000000000000000000000000000000000000000000000000000000600052601160045260246000fd5b600060001982141562000cfe5762000cfe62000cb8565b5060010190565b7f416363657373436f6e74726f6c3a206163636f756e742000000000000000000081526000835162000d3f81601785016020880162000c67565b7f206973206d697373696e6720726f6c6520000000000000000000000000000000601791840191820152835162000d7e81602884016020880162000c67565b01602801949350505050565b602081526000825180602084015262000dab81604085016020870162000c67565b601f01601f19169190910160400192915050565b600081600019048311821515161562000ddc5762000ddc62000cb8565b500290565b6000821982111562000df75762000df762000cb8565b500190565b60008162000e0e5762000e0e62000cb8565b506000190190565b60028104600182168062000e2b57607f821691505b6020821081141562000e66577f4e487b7100000000000000000000000000000000000000000000000000000000600052602260045260246000fd5b50919050565b61162b8062000e7c6000396000f3fe608060405234801561001057600080fd5b5060043610610149576000357c0100000000000000000000000000000000000000000000000000000000900480639010d07c116100ca578063ca15c8731161008e578063ca15c87314610351578063d547741f14610364578063d5d71c2814610377578063e1913d01146103b3578063e4e6778c146103ef57600080fd5b80639010d07c146102e557806391d1485414610310578063a217fddf14610323578063a855d6f91461032b578063b6aa4ed61461033e57600080fd5b80633394347411610111578063339434741461022c57806336568abe1461024157806381ecfce8146102545780638249bb8c1461029657806388255199146102d257600080fd5b806301ffc9a71461014e578063092c5b3b1461017657806311ab6d35146101ab578063248a9ca3146101f45780632f2ff15d14610217575b600080fd5b61016161015c366004611025565b61042b565b60405190151581526020015b60405180910390f35b61019d7f7b765e0e932d348852a6f810bfa1ab891e259123f02db8cdcde614c57022335781565b60405190815260200161016d565b6101e76040518060400160405280600681526020017f4a756e676c65000000000000000000000000000000000000000000000000000081525081565b60405161016d91906110ab565b61019d6102023660046110be565b60009081526020819052604090206001015490565b61022a6102253660046110d7565b61046f565b005b610234610499565b60405161016d9190611113565b61022a61024f3660046110d7565b610572565b61028361026236600461122e565b805160208183018101805160048252928201919093012091525461ffff1681565b60405161ffff909116815260200161016d565b6101e76040518060400160405280600681526020017f506c61696e73000000000000000000000000000000000000000000000000000081525081565b6101e76102e036600461122e565b610606565b6102f86102f336600461126b565b6106ab565b604051600160a060020a03909116815260200161016d565b61016161031e3660046110d7565b6106ca565b61019d600081565b61022a61033936600461133e565b6106f3565b6101e761034c3660046110be565b6108d7565b61019d61035f3660046110be565b61099a565b61022a6103723660046110d7565b6109b1565b6101e76040518060400160405280600c81526020017f4c616e64696e672053697465000000000000000000000000000000000000000081525081565b6101e76040518060400160405280600681526020017f446573657274000000000000000000000000000000000000000000000000000081525081565b6101e76040518060400160405280600881526020017f4d6f756e7461696e00000000000000000000000000000000000000000000000081525081565b6000600160e060020a031982167f5a05180f000000000000000000000000000000000000000000000000000000001480610469575061046982610c71565b92915050565b60008281526020819052604090206001015461048a81610cd8565b6104948383610ce5565b505050565b60606002805480602002602001604051908101604052809291908181526020016000905b828210156105695783829060005260206000200180546104dc9061142a565b80601f01602080910402602001604051908101604052809291908181526020018280546105089061142a565b80156105555780601f1061052a57610100808354040283529160200191610555565b820191906000526020600020905b81548152906001019060200180831161053857829003601f168201915b5050505050815260200190600101906104bd565b50505050905090565b600160a060020a03811633146105f85760405160e560020a62461bcd02815260206004820152602f60248201527f416363657373436f6e74726f6c3a2063616e206f6e6c792072656e6f756e636560448201527f20726f6c657320666f722073656c66000000000000000000000000000000000060648201526084015b60405180910390fd5b6106028282610d07565b5050565b80516020818301810180516003825292820191909301209152805461062a9061142a565b80601f01602080910402602001604051908101604052809291908181526020018280546106569061142a565b80156106a35780601f10610678576101008083540402835291602001916106a3565b820191906000526020600020905b81548152906001019060200180831161068657829003601f168201915b505050505081565b60008281526001602052604081206106c39083610d29565b9392505050565b600091825260208281526040808420600160a060020a0393909316845291905290205460ff1690565b60006106fe81610cd8565b82518451148015610710575081518451145b61075f5760405160e560020a62461bcd02815260206004820152601760248201527f6172726179207175616e74697479206d69736d6174636800000000000000000060448201526064016105ef565b60005b84518110156108d057600085828151811061077f5761077f611468565b602002602001015190506004816040516107999190611481565b9081526040519081900360200190205461ffff161580156107d857508382815181106107c7576107c7611468565b602002602001015161ffff16600014155b156108bd57600280546001810182556000919091528151610820917f405787fa12a823e0f2b7631cc41b3ba8828b3321ca811111fa75cd3aa3bb5ace01906020840190610f8c565b5084828151811061083357610833611468565b602002602001015160038260405161084b9190611481565b9081526020016040518091039020908051906020019061086c929190610f8c565b5083828151811061087f5761087f611468565b60200260200101516004826040516108979190611481565b908152604051908190036020019020805461ffff9290921661ffff199092169190911790555b50806108c8816114b6565b915050610762565b5050505050565b6002546060906000906108ea90846114d1565b9050600281815481106108ff576108ff611468565b9060005260206000200180546109149061142a565b80601f01602080910402602001604051908101604052809291908181526020018280546109409061142a565b801561098d5780601f106109625761010080835404028352916020019161098d565b820191906000526020600020905b81548152906001019060200180831161097057829003601f168201915b5050505050915050919050565b600081815260016020526040812061046990610d35565b6000828152602081905260409020600101546109cc81610cd8565b6104948383610d07565b6109e082826106ca565b61060257600082815260208181526040808320600160a060020a03851684529091529020805460ff19166001179055610a163390565b600160a060020a031681600160a060020a0316837f2f8788117e7eff1d82e926ec794901d17c78024a50270940304540a733656f0d60405160405180910390a45050565b60006106c383600160a060020a038416610d3f565b60606000610a7e8360026114f6565b610a89906002611515565b67ffffffffffffffff811115610aa157610aa1611174565b6040519080825280601f01601f191660200182016040528015610acb576020820181803683370190505b5090507f300000000000000000000000000000000000000000000000000000000000000081600081518110610b0257610b02611468565b6020010190600160f860020a031916908160001a9053507f780000000000000000000000000000000000000000000000000000000000000081600181518110610b4d57610b4d611468565b6020010190600160f860020a031916908160001a9053506000610b718460026114f6565b610b7c906001611515565b90505b6001811115610c1f577f303132333435363738396162636465660000000000000000000000000000000085600f1660108110610bbd57610bbd611468565b1a7f010000000000000000000000000000000000000000000000000000000000000002828281518110610bf257610bf2611468565b6020010190600160f860020a031916908160001a905350601090940493610c188161152d565b9050610b7f565b5083156106c35760405160e560020a62461bcd02815260206004820181905260248201527f537472696e67733a20686578206c656e67746820696e73756666696369656e7460448201526064016105ef565b6000600160e060020a031982167f7965db0b00000000000000000000000000000000000000000000000000000000148061046957507f01ffc9a700000000000000000000000000000000000000000000000000000000600160e060020a0319831614610469565b610ce28133610d8e565b50565b610cef82826109d6565b60008281526001602052604090206104949082610a5a565b610d118282610df5565b60008281526001602052604090206104949082610e5a565b60006106c38383610e6f565b6000610469825490565b6000818152600183016020526040812054610d8657508154600181810184556000848152602080822090930184905584548482528286019093526040902091909155610469565b506000610469565b610d9882826106ca565b61060257610db081600160a060020a03166014610a6f565b610dbb836020610a6f565b604051602001610dcc929190611544565b60408051601f198184030181529082905260e560020a62461bcd0282526105ef916004016110ab565b610dff82826106ca565b1561060257600082815260208181526040808320600160a060020a0385168085529252808320805460ff1916905551339285917ff6391f5c32d9c69d2a47ea670b442974b53935d1edc7fd64eb21e047a839171b9190a45050565b60006106c383600160a060020a038416610e99565b6000826000018281548110610e8657610e86611468565b9060005260206000200154905092915050565b60008181526001830160205260408120548015610f82576000610ebd6001836115c5565b8554909150600090610ed1906001906115c5565b9050818114610f36576000866000018281548110610ef157610ef1611468565b9060005260206000200154905080876000018481548110610f1457610f14611468565b6000918252602080832090910192909255918252600188019052604090208390555b8554869080610f4757610f476115dc565b600190038181906000526020600020016000905590558560010160008681526020019081526020016000206000905560019350505050610469565b6000915050610469565b828054610f989061142a565b90600052602060002090601f016020900481019282610fba5760008555611000565b82601f10610fd357805160ff1916838001178555611000565b82800160010185558215611000579182015b82811115611000578251825591602001919060010190610fe5565b5061100c929150611010565b5090565b5b8082111561100c5760008155600101611011565b60006020828403121561103757600080fd5b8135600160e060020a0319811681146106c357600080fd5b60005b8381101561106a578181015183820152602001611052565b83811115611079576000848401525b50505050565b6000815180845261109781602086016020860161104f565b601f01601f19169290920160200192915050565b6020815260006106c3602083018461107f565b6000602082840312156110d057600080fd5b5035919050565b600080604083850312156110ea57600080fd5b823591506020830135600160a060020a038116811461110857600080fd5b809150509250929050565b600060208083018184528085518083526040860191506040848202870101925083870160005b8281101561116757603f1988860301845261115585835161107f565b94509285019290850190600101611139565b5092979650505050505050565b60e060020a634e487b7102600052604160045260246000fd5b604051601f8201601f1916810167ffffffffffffffff811182821017156111b6576111b6611174565b604052919050565b600082601f8301126111cf57600080fd5b813567ffffffffffffffff8111156111e9576111e9611174565b6111fc601f8201601f191660200161118d565b81815284602083860101111561121157600080fd5b816020850160208301376000918101602001919091529392505050565b60006020828403121561124057600080fd5b813567ffffffffffffffff81111561125757600080fd5b611263848285016111be565b949350505050565b6000806040838503121561127e57600080fd5b50508035926020909101359150565b600067ffffffffffffffff8211156112a7576112a7611174565b5060209081020190565b600082601f8301126112c257600080fd5b813560206112d76112d28361128d565b61118d565b828152918102840181019181810190868411156112f357600080fd5b8286015b8481101561133357803567ffffffffffffffff8111156113175760008081fd5b6113258986838b01016111be565b8452509183019183016112f7565b509695505050505050565b60008060006060848603121561135357600080fd5b833567ffffffffffffffff8082111561136b57600080fd5b611377878388016112b1565b945060209150818601358181111561138e57600080fd5b61139a888289016112b1565b9450506040860135818111156113af57600080fd5b86019050601f810187136113c257600080fd5b80356113d06112d28261128d565b818152908302820183019083810190898311156113ec57600080fd5b928401925b8284101561141b57833561ffff8116811461140c5760008081fd5b825292840192908401906113f1565b80955050505050509250925092565b60028104600182168061143e57607f821691505b602082108114156114625760e060020a634e487b7102600052602260045260246000fd5b50919050565b60e060020a634e487b7102600052603260045260246000fd5b6000825161149381846020870161104f565b9190910192915050565b60e060020a634e487b7102600052601160045260246000fd5b60006000198214156114ca576114ca61149d565b5060010190565b6000826114f15760e060020a634e487b7102600052601260045260246000fd5b500690565b60008160001904831182151516156115105761151061149d565b500290565b600082198211156115285761152861149d565b500190565b60008161153c5761153c61149d565b506000190190565b7f416363657373436f6e74726f6c3a206163636f756e742000000000000000000081526000835161157c81601785016020880161104f565b7f206973206d697373696e6720726f6c652000000000000000000000000000000060179184019182015283516115b981602884016020880161104f565b01602801949350505050565b6000828210156115d7576115d761149d565b500390565b60e060020a634e487b7102600052603160045260246000fdfea2646970667358221220197c26c5f2abfce566338b0ece06c4f20847257f7d2a6006c3e3a9dc77b3d82e64736f6c634300080b0033",
  "immutableReferences": {},
  "source": "// SPDX-License-Identifier: GPL-3.0\npragma solidity >=0.7.0 <0.9.0;\n\nimport \"./CardDeck.sol\";\n\ncontract LandDeck is CardDeck {\n    string public constant card0 = \"Plains\";\n    string public constant card1 = \"Jungle\";\n    string public constant card2 = \"Mountain\";\n    string public constant card3 = \"Desert\";\n    string public constant card4 = \"Landing Site\";\n\n    constructor() CardDeck() {\n        string[] memory cards = new string[](5);\n        string[] memory descriptions = new string[](5);\n        uint16[] memory quantities = new uint16[](5);\n\n        cards[0] = card0;\n        descriptions[0] = \"\";\n        quantities[0] = 1;\n\n        cards[1] = card1;\n        descriptions[1] = \"\";\n        quantities[1] = 1;\n\n        cards[2] = card2;\n        descriptions[2] = \"\";\n        quantities[2] = 1;\n\n        cards[3] = card3;\n        descriptions[3] = \"\";\n        quantities[3] = 1;\n\n        cards[4] = card4;\n        descriptions[4] = \"\";\n        quantities[4] = 1;\n\n        addCards(cards, descriptions, quantities);\n    }\n}\n",
  "sourcePath": "/Users/maxmeier/Developer/Lucky Machines/hexploration/contracts/decks/LandDeck.sol",
  "compiler": {
    "name": "solc",
    "version": "0.8.11+commit.d7f03943.Emscripten.clang"
  },
  "schemaVersion": "3.4.4",
  "updatedAt": "2022-05-24T19:11:42.832Z",
  "devdoc": {
    "kind": "dev",
    "methods": {
      "getRoleAdmin(bytes32)": {
        "details": "Returns the admin role that controls `role`. See {grantRole} and {revokeRole}. To change a role's admin, use {_setRoleAdmin}."
      },
      "getRoleMember(bytes32,uint256)": {
        "details": "Returns one of the accounts that have `role`. `index` must be a value between 0 and {getRoleMemberCount}, non-inclusive. Role bearers are not sorted in any particular way, and their ordering may change at any point. WARNING: When using {getRoleMember} and {getRoleMemberCount}, make sure you perform all queries on the same block. See the following https://forum.openzeppelin.com/t/iterating-over-elements-on-enumerableset-in-openzeppelin-contracts/2296[forum post] for more information."
      },
      "getRoleMemberCount(bytes32)": {
        "details": "Returns the number of accounts that have `role`. Can be used together with {getRoleMember} to enumerate all bearers of a role."
      },
      "grantRole(bytes32,address)": {
        "details": "Grants `role` to `account`. If `account` had not been already granted `role`, emits a {RoleGranted} event. Requirements: - the caller must have ``role``'s admin role."
      },
      "hasRole(bytes32,address)": {
        "details": "Returns `true` if `account` has been granted `role`."
      },
      "renounceRole(bytes32,address)": {
        "details": "Revokes `role` from the calling account. Roles are often managed via {grantRole} and {revokeRole}: this function's purpose is to provide a mechanism for accounts to lose their privileges if they are compromised (such as when a trusted device is misplaced). If the calling account had been revoked `role`, emits a {RoleRevoked} event. Requirements: - the caller must be `account`."
      },
      "revokeRole(bytes32,address)": {
        "details": "Revokes `role` from `account`. If `account` had been granted `role`, emits a {RoleRevoked} event. Requirements: - the caller must have ``role``'s admin role."
      },
      "supportsInterface(bytes4)": {
        "details": "See {IERC165-supportsInterface}."
      }
    },
    "version": 1
  },
  "userdoc": {
    "kind": "user",
    "methods": {},
    "version": 1
  }
}