{
  "contractName": "LandDeck",
  "abi": [
    {
      "inputs": [],
      "stateMutability": "nonpayable",
      "type": "constructor"
    },
    {
      "anonymous": false,
      "inputs": [
        {
          "indexed": true,
          "internalType": "bytes32",
          "name": "role",
          "type": "bytes32"
        },
        {
          "indexed": true,
          "internalType": "bytes32",
          "name": "previousAdminRole",
          "type": "bytes32"
        },
        {
          "indexed": true,
          "internalType": "bytes32",
          "name": "newAdminRole",
          "type": "bytes32"
        }
      ],
      "name": "RoleAdminChanged",
      "type": "event"
    },
    {
      "anonymous": false,
      "inputs": [
        {
          "indexed": true,
          "internalType": "bytes32",
          "name": "role",
          "type": "bytes32"
        },
        {
          "indexed": true,
          "internalType": "address",
          "name": "account",
          "type": "address"
        },
        {
          "indexed": true,
          "internalType": "address",
          "name": "sender",
          "type": "address"
        }
      ],
      "name": "RoleGranted",
      "type": "event"
    },
    {
      "anonymous": false,
      "inputs": [
        {
          "indexed": true,
          "internalType": "bytes32",
          "name": "role",
          "type": "bytes32"
        },
        {
          "indexed": true,
          "internalType": "address",
          "name": "account",
          "type": "address"
        },
        {
          "indexed": true,
          "internalType": "address",
          "name": "sender",
          "type": "address"
        }
      ],
      "name": "RoleRevoked",
      "type": "event"
    },
    {
      "inputs": [],
      "name": "CONTROLLER_ROLE",
      "outputs": [
        {
          "internalType": "bytes32",
          "name": "",
          "type": "bytes32"
        }
      ],
      "stateMutability": "view",
      "type": "function"
    },
    {
      "inputs": [],
      "name": "DEFAULT_ADMIN_ROLE",
      "outputs": [
        {
          "internalType": "bytes32",
          "name": "",
          "type": "bytes32"
        }
      ],
      "stateMutability": "view",
      "type": "function"
    },
    {
      "inputs": [
        {
          "internalType": "string[]",
          "name": "titles",
          "type": "string[]"
        },
        {
          "internalType": "string[]",
          "name": "descriptions",
          "type": "string[]"
        },
        {
          "internalType": "uint16[]",
          "name": "quantities",
          "type": "uint16[]"
        }
      ],
      "name": "addCards",
      "outputs": [],
      "stateMutability": "nonpayable",
      "type": "function"
    },
    {
      "inputs": [
        {
          "internalType": "string",
          "name": "",
          "type": "string"
        }
      ],
      "name": "agilityAdjust",
      "outputs": [
        {
          "internalType": "int8",
          "name": "",
          "type": "int8"
        }
      ],
      "stateMutability": "view",
      "type": "function"
    },
    {
      "inputs": [],
      "name": "card0",
      "outputs": [
        {
          "internalType": "string",
          "name": "",
          "type": "string"
        }
      ],
      "stateMutability": "view",
      "type": "function"
    },
    {
      "inputs": [],
      "name": "card1",
      "outputs": [
        {
          "internalType": "string",
          "name": "",
          "type": "string"
        }
      ],
      "stateMutability": "view",
      "type": "function"
    },
    {
      "inputs": [],
      "name": "card2",
      "outputs": [
        {
          "internalType": "string",
          "name": "",
          "type": "string"
        }
      ],
      "stateMutability": "view",
      "type": "function"
    },
    {
      "inputs": [],
      "name": "card3",
      "outputs": [
        {
          "internalType": "string",
          "name": "",
          "type": "string"
        }
      ],
      "stateMutability": "view",
      "type": "function"
    },
    {
      "inputs": [
        {
          "internalType": "string",
          "name": "",
          "type": "string"
        }
      ],
      "name": "description",
      "outputs": [
        {
          "internalType": "string",
          "name": "",
          "type": "string"
        }
      ],
      "stateMutability": "view",
      "type": "function"
    },
    {
      "inputs": [
        {
          "internalType": "string",
          "name": "",
          "type": "string"
        }
      ],
      "name": "dexterityAdjust",
      "outputs": [
        {
          "internalType": "int8",
          "name": "",
          "type": "int8"
        }
      ],
      "stateMutability": "view",
      "type": "function"
    },
    {
      "inputs": [
        {
          "internalType": "uint256",
          "name": "randomWord",
          "type": "uint256"
        }
      ],
      "name": "drawCard",
      "outputs": [
        {
          "internalType": "string",
          "name": "",
          "type": "string"
        },
        {
          "internalType": "int8",
          "name": "",
          "type": "int8"
        },
        {
          "internalType": "int8",
          "name": "",
          "type": "int8"
        },
        {
          "internalType": "int8",
          "name": "",
          "type": "int8"
        },
        {
          "internalType": "string",
          "name": "",
          "type": "string"
        },
        {
          "internalType": "string",
          "name": "",
          "type": "string"
        },
        {
          "internalType": "string",
          "name": "",
          "type": "string"
        },
        {
          "internalType": "int256",
          "name": "",
          "type": "int256"
        },
        {
          "internalType": "int256",
          "name": "",
          "type": "int256"
        }
      ],
      "stateMutability": "view",
      "type": "function"
    },
    {
      "inputs": [],
      "name": "getDeck",
      "outputs": [
        {
          "internalType": "string[]",
          "name": "",
          "type": "string[]"
        }
      ],
      "stateMutability": "view",
      "type": "function"
    },
    {
      "inputs": [
        {
          "internalType": "bytes32",
          "name": "role",
          "type": "bytes32"
        }
      ],
      "name": "getRoleAdmin",
      "outputs": [
        {
          "internalType": "bytes32",
          "name": "",
          "type": "bytes32"
        }
      ],
      "stateMutability": "view",
      "type": "function"
    },
    {
      "inputs": [
        {
          "internalType": "bytes32",
          "name": "role",
          "type": "bytes32"
        },
        {
          "internalType": "uint256",
          "name": "index",
          "type": "uint256"
        }
      ],
      "name": "getRoleMember",
      "outputs": [
        {
          "internalType": "address",
          "name": "",
          "type": "address"
        }
      ],
      "stateMutability": "view",
      "type": "function"
    },
    {
      "inputs": [
        {
          "internalType": "bytes32",
          "name": "role",
          "type": "bytes32"
        }
      ],
      "name": "getRoleMemberCount",
      "outputs": [
        {
          "internalType": "uint256",
          "name": "",
          "type": "uint256"
        }
      ],
      "stateMutability": "view",
      "type": "function"
    },
    {
      "inputs": [
        {
          "internalType": "bytes32",
          "name": "role",
          "type": "bytes32"
        },
        {
          "internalType": "address",
          "name": "account",
          "type": "address"
        }
      ],
      "name": "grantRole",
      "outputs": [],
      "stateMutability": "nonpayable",
      "type": "function"
    },
    {
      "inputs": [
        {
          "internalType": "string",
          "name": "",
          "type": "string"
        }
      ],
      "name": "handLoss",
      "outputs": [
        {
          "internalType": "string",
          "name": "",
          "type": "string"
        }
      ],
      "stateMutability": "view",
      "type": "function"
    },
    {
      "inputs": [
        {
          "internalType": "bytes32",
          "name": "role",
          "type": "bytes32"
        },
        {
          "internalType": "address",
          "name": "account",
          "type": "address"
        }
      ],
      "name": "hasRole",
      "outputs": [
        {
          "internalType": "bool",
          "name": "",
          "type": "bool"
        }
      ],
      "stateMutability": "view",
      "type": "function"
    },
    {
      "inputs": [
        {
          "internalType": "string",
          "name": "",
          "type": "string"
        }
      ],
      "name": "itemGain",
      "outputs": [
        {
          "internalType": "string",
          "name": "",
          "type": "string"
        }
      ],
      "stateMutability": "view",
      "type": "function"
    },
    {
      "inputs": [
        {
          "internalType": "string",
          "name": "",
          "type": "string"
        }
      ],
      "name": "itemLoss",
      "outputs": [
        {
          "internalType": "string",
          "name": "",
          "type": "string"
        }
      ],
      "stateMutability": "view",
      "type": "function"
    },
    {
      "inputs": [
        {
          "internalType": "string",
          "name": "",
          "type": "string"
        }
      ],
      "name": "movementAdjust",
      "outputs": [
        {
          "internalType": "int8",
          "name": "",
          "type": "int8"
        }
      ],
      "stateMutability": "view",
      "type": "function"
    },
    {
      "inputs": [
        {
          "internalType": "string",
          "name": "",
          "type": "string"
        }
      ],
      "name": "movementX",
      "outputs": [
        {
          "internalType": "int256",
          "name": "",
          "type": "int256"
        }
      ],
      "stateMutability": "view",
      "type": "function"
    },
    {
      "inputs": [
        {
          "internalType": "string",
          "name": "",
          "type": "string"
        }
      ],
      "name": "movementY",
      "outputs": [
        {
          "internalType": "int256",
          "name": "",
          "type": "int256"
        }
      ],
      "stateMutability": "view",
      "type": "function"
    },
    {
      "inputs": [
        {
          "internalType": "string",
          "name": "",
          "type": "string"
        }
      ],
      "name": "quantity",
      "outputs": [
        {
          "internalType": "uint16",
          "name": "",
          "type": "uint16"
        }
      ],
      "stateMutability": "view",
      "type": "function"
    },
    {
      "inputs": [
        {
          "internalType": "bytes32",
          "name": "role",
          "type": "bytes32"
        },
        {
          "internalType": "address",
          "name": "account",
          "type": "address"
        }
      ],
      "name": "renounceRole",
      "outputs": [],
      "stateMutability": "nonpayable",
      "type": "function"
    },
    {
      "inputs": [
        {
          "internalType": "bytes32",
          "name": "role",
          "type": "bytes32"
        },
        {
          "internalType": "address",
          "name": "account",
          "type": "address"
        }
      ],
      "name": "revokeRole",
      "outputs": [],
      "stateMutability": "nonpayable",
      "type": "function"
    },
    {
      "inputs": [
        {
          "internalType": "bytes4",
          "name": "interfaceId",
          "type": "bytes4"
        }
      ],
      "name": "supportsInterface",
      "outputs": [
        {
          "internalType": "bool",
          "name": "",
          "type": "bool"
        }
      ],
      "stateMutability": "view",
      "type": "function"
    }
  ],
  "bytecode": "0x60806040523480156200001157600080fd5b506200003a60006200002b640100000000620003b3810204565b640100000000620003b7810204565b60408051600480825260a08201909252600091816020015b60608152602001906001900390816200005257505060408051600480825260a0820190925291925060009190602082015b60608152602001906001900390816200008357505060408051600480825260a0820190925291925060009190602082016080803683370190505090506040518060400160405280600681526020017f506c61696e730000000000000000000000000000000000000000000000000000815250836000815181106200010b576200010b62000b82565b602002602001018190525060405180602001604052806000815250826000815181106200013c576200013c62000b82565b60200260200101819052506001816000815181106200015f576200015f62000b82565b602002602001019061ffff16908161ffff16815250506040518060400160405280600681526020017f4a756e676c65000000000000000000000000000000000000000000000000000081525083600181518110620001c157620001c162000b82565b60200260200101819052506040518060200160405280600081525082600181518110620001f257620001f262000b82565b602002602001018190525060018160018151811062000215576200021562000b82565b602002602001019061ffff16908161ffff16815250506040518060400160405280600881526020017f4d6f756e7461696e0000000000000000000000000000000000000000000000008152508360028151811062000277576200027762000b82565b60200260200101819052506040518060200160405280600081525082600281518110620002a857620002a862000b82565b6020026020010181905250600181600281518110620002cb57620002cb62000b82565b602002602001019061ffff16908161ffff16815250506040518060400160405280600681526020017f4465736572740000000000000000000000000000000000000000000000000000815250836003815181106200032d576200032d62000b82565b602002602001018190525060405180602001604052806000815250826003815181106200035e576200035e62000b82565b602002602001018190525060018160038151811062000381576200038162000b82565b61ffff90921660209283029190910190910152620003aa838383640100000000620003d0810204565b50505062000db6565b3390565b620003cc8282640100000000620005f9810204565b5050565b6000620003e68164010000000062000640810204565b82518451148015620003f9575081518451145b62000465576040517f08c379a000000000000000000000000000000000000000000000000000000000815260206004820152601760248201527f6172726179207175616e74697479206d69736d6174636800000000000000000060448201526064015b60405180910390fd5b60005b8451811015620005f257600085828151811062000489576200048962000b82565b60200260200101519050600481604051620004a5919062000be4565b9081526040519081900360200190205461ffff16158015620004e85750838281518110620004d757620004d762000b82565b602002602001015161ffff16600014155b15620005dc5760028054600181018255600091909152815162000533917f405787fa12a823e0f2b7631cc41b3ba8828b3321ca811111fa75cd3aa3bb5ace0190602084019062000aad565b5084828151811062000549576200054962000b82565b602002602001015160038260405162000563919062000be4565b908152602001604051809103902090805190602001906200058692919062000aad565b508382815181106200059c576200059c62000b82565b6020026020010151600482604051620005b6919062000be4565b908152604051908190036020019020805461ffff9290921661ffff199092169190911790555b5080620005e98162000c31565b91505062000468565b5050505050565b62000613828264010000000062000e636200066a82021704565b60008281526001602052604090206200063b908264010000000062000ee76200070682021704565b505050565b620006678162000658640100000000620003b3810204565b6401000000006200072f810204565b50565b6200067f8282640100000000620007dd810204565b620003cc57600082815260208181526040808320600160a060020a03851684529091529020805460ff19166001179055620006c2640100000000620003b3810204565b600160a060020a031681600160a060020a0316837f2f8788117e7eff1d82e926ec794901d17c78024a50270940304540a733656f0d60405160405180910390a45050565b60006200072683600160a060020a03841664010000000062000806810204565b90505b92915050565b620007448282640100000000620007dd810204565b620003cc576200076d600160a060020a038216601464010000000062000efc6200085e82021704565b6200078883602064010000000062000efc6200085e82021704565b6040516020016200079b92919062000c4f565b60408051601f19818403018152908290527f08c379a00000000000000000000000000000000000000000000000000000000082526200045c9160040162000cd4565b600091825260208281526040808420600160a060020a0393909316845291905290205460ff1690565b60006200081d838364010000000062000a95810204565b620008555750815460018181018455600084815260208082209093018490558454848252828601909352604090209190915562000729565b50600062000729565b606060006200086f83600262000d09565b6200087c90600262000d2b565b67ffffffffffffffff81111562000897576200089762000b53565b6040519080825280601f01601f191660200182016040528015620008c2576020820181803683370190505b5090507f300000000000000000000000000000000000000000000000000000000000000081600081518110620008fc57620008fc62000b82565b6020010190600160f860020a031916908160001a9053507f7800000000000000000000000000000000000000000000000000000000000000816001815181106200094a576200094a62000b82565b6020010190600160f860020a031916908160001a90535060006200097084600262000d09565b6200097d90600162000d2b565b90505b600181111562000a2a577f303132333435363738396162636465660000000000000000000000000000000085600f1660108110620009c257620009c262000b82565b1a7f010000000000000000000000000000000000000000000000000000000000000002828281518110620009fa57620009fa62000b82565b6020010190600160f860020a031916908160001a90535060109094049362000a228162000d46565b905062000980565b50831562000726576040517f08c379a000000000000000000000000000000000000000000000000000000000815260206004820181905260248201527f537472696e67733a20686578206c656e67746820696e73756666696369656e7460448201526064016200045c565b60009081526001919091016020526040902054151590565b82805462000abb9062000d60565b90600052602060002090601f01602090048101928262000adf576000855562000b2a565b82601f1062000afa57805160ff191683800117855562000b2a565b8280016001018555821562000b2a579182015b8281111562000b2a57825182559160200191906001019062000b0d565b5062000b3892915062000b3c565b5090565b5b8082111562000b38576000815560010162000b3d565b7f4e487b7100000000000000000000000000000000000000000000000000000000600052604160045260246000fd5b7f4e487b7100000000000000000000000000000000000000000000000000000000600052603260045260246000fd5b60005b8381101562000bce57818101518382015260200162000bb4565b8381111562000bde576000848401525b50505050565b6000825162000bf881846020870162000bb1565b9190910192915050565b7f4e487b7100000000000000000000000000000000000000000000000000000000600052601160045260246000fd5b600060001982141562000c485762000c4862000c02565b5060010190565b7f416363657373436f6e74726f6c3a206163636f756e742000000000000000000081526000835162000c8981601785016020880162000bb1565b7f206973206d697373696e6720726f6c6520000000000000000000000000000000601791840191820152835162000cc881602884016020880162000bb1565b01602801949350505050565b602081526000825180602084015262000cf581604085016020870162000bb1565b601f01601f19169190910160400192915050565b600081600019048311821515161562000d265762000d2662000c02565b500290565b6000821982111562000d415762000d4162000c02565b500190565b60008162000d585762000d5862000c02565b506000190190565b60028104600182168062000d7557607f821691505b6020821081141562000db0577f4e487b7100000000000000000000000000000000000000000000000000000000600052602260045260246000fd5b50919050565b611b3d8062000dc66000396000f3fe608060405234801561001057600080fd5b5060043610610196576000357c01000000000000000000000000000000000000000000000000000000009004806388255199116100f6578063bcb71034116100a4578063bcb7103414610470578063ca15c8731461049e578063d547741f146104b1578063e1913d01146104c4578063e4e6778c14610500578063ea77ee751461053c578063ff38930d1461056a57600080fd5b806388255199146103b15780639010d07c146103c457806391d14854146103ef578063964a361014610402578063a217fddf1461042d578063a855d6f914610435578063b6aa4ed61461044857600080fd5b80632f2ff15d116101535780632f2ff15d146102a257806333943474146102b757806336568abe146102cc5780633ee9c69f146102df5780636d63ac191461032057806381ecfce8146103335780638249bb8c1461037557600080fd5b806301ffc9a71461019b57806305b527ed146101c3578063092c5b3b146101fc5780630ce7c9721461022357806311ab6d3514610243578063248a9ca31461027f575b600080fd5b6101ae6101a93660046114b2565b61057d565b60405190151581526020015b60405180910390f35b6101ee6101d1366004611596565b8051602081830181018051600b8252928201919093012091525481565b6040519081526020016101ba565b6101ee7f7b765e0e932d348852a6f810bfa1ab891e259123f02db8cdcde614c57022335781565b610236610231366004611596565b6105c1565b6040516101ba919061162f565b6102366040518060400160405280600681526020017f4a756e676c65000000000000000000000000000000000000000000000000000081525081565b6101ee61028d366004611642565b60009081526020819052604090206001015490565b6102b56102b036600461165b565b610666565b005b6102bf610690565b6040516101ba9190611697565b6102b56102da36600461165b565b610769565b61030d6102ed366004611596565b805160208183018101805160078252928201919093012091525460000b81565b60405160009190910b81526020016101ba565b61023661032e366004611596565b6107fd565b610362610341366004611596565b805160208183018101805160048252928201919093012091525461ffff1681565b60405161ffff90911681526020016101ba565b6102366040518060400160405280600681526020017f506c61696e73000000000000000000000000000000000000000000000000000081525081565b6102366103bf366004611596565b610821565b6103d76103d23660046116f8565b610845565b604051600160a060020a0390911681526020016101ba565b6101ae6103fd36600461165b565b610864565b6101ee610410366004611596565b8051602081830181018051600c8252928201919093012091525481565b6101ee600081565b6102b56104433660046117cb565b61088d565b61045b610456366004611642565b610a71565b6040516101ba999897969594939291906118b7565b61030d61047e366004611596565b805160208183018101805160068252928201919093012091525460000b81565b6101ee6104ac366004611642565b610e03565b6102b56104bf36600461165b565b610e1a565b6102366040518060400160405280600681526020017f446573657274000000000000000000000000000000000000000000000000000081525081565b6102366040518060400160405280600881526020017f4d6f756e7461696e00000000000000000000000000000000000000000000000081525081565b61030d61054a366004611596565b805160208183018101805160058252928201919093012091525460000b81565b610236610578366004611596565b610e3f565b6000600160e060020a031982167f5a05180f0000000000000000000000000000000000000000000000000000000014806105bb57506105bb826110fe565b92915050565b8051602081830181018051600882529282019190930120915280546105e59061193c565b80601f01602080910402602001604051908101604052809291908181526020018280546106119061193c565b801561065e5780601f106106335761010080835404028352916020019161065e565b820191906000526020600020905b81548152906001019060200180831161064157829003601f168201915b505050505081565b60008281526020819052604090206001015461068181611165565b61068b8383611172565b505050565b60606002805480602002602001604051908101604052809291908181526020016000905b828210156107605783829060005260206000200180546106d39061193c565b80601f01602080910402602001604051908101604052809291908181526020018280546106ff9061193c565b801561074c5780601f106107215761010080835404028352916020019161074c565b820191906000526020600020905b81548152906001019060200180831161072f57829003601f168201915b5050505050815260200190600101906106b4565b50505050905090565b600160a060020a03811633146107ef5760405160e560020a62461bcd02815260206004820152602f60248201527f416363657373436f6e74726f6c3a2063616e206f6e6c792072656e6f756e636560448201527f20726f6c657320666f722073656c66000000000000000000000000000000000060648201526084015b60405180910390fd5b6107f98282611194565b5050565b8051602081830181018051600a82529282019190930120915280546105e59061193c565b8051602081830181018051600382529282019190930120915280546105e59061193c565b600082815260016020526040812061085d90836111b6565b9392505050565b600091825260208281526040808420600160a060020a0393909316845291905290205460ff1690565b600061089881611165565b825184511480156108aa575081518451145b6108f95760405160e560020a62461bcd02815260206004820152601760248201527f6172726179207175616e74697479206d69736d6174636800000000000000000060448201526064016107e6565b60005b8451811015610a6a5760008582815181106109195761091961197a565b602002602001015190506004816040516109339190611993565b9081526040519081900360200190205461ffff1615801561097257508382815181106109615761096161197a565b602002602001015161ffff16600014155b15610a57576002805460018101825560009190915281516109ba917f405787fa12a823e0f2b7631cc41b3ba8828b3321ca811111fa75cd3aa3bb5ace01906020840190611419565b508482815181106109cd576109cd61197a565b60200260200101516003826040516109e59190611993565b90815260200160405180910390209080519060200190610a06929190611419565b50838281518110610a1957610a1961197a565b6020026020010151600482604051610a319190611993565b908152604051908190036020019020805461ffff9290921661ffff199092169190911790555b5080610a62816119c8565b9150506108fc565b5050505050565b60606000806000606080606060008060006002805490508b610a9391906119e3565b9050600060028281548110610aaa57610aaa61197a565b906000526020600020018054610abf9061193c565b80601f0160208091040260200160405190810160405280929190818152602001828054610aeb9061193c565b8015610b385780601f10610b0d57610100808354040283529160200191610b38565b820191906000526020600020905b815481529060010190602001808311610b1b57829003601f168201915b5050505050905080600582604051610b509190611993565b9081526040519081900360200181205460000b90600690610b72908590611993565b9081526040519081900360200181205460000b90600790610b94908690611993565b9081526040519081900360200181205460000b90600990610bb6908790611993565b9081526020016040518091039020600886604051610bd49190611993565b9081526020016040518091039020600a87604051610bf29190611993565b9081526020016040518091039020600b88604051610c109190611993565b908152602001604051809103902054600c89604051610c2f9190611993565b908152602001604051809103902054848054610c4a9061193c565b80601f0160208091040260200160405190810160405280929190818152602001828054610c769061193c565b8015610cc35780601f10610c9857610100808354040283529160200191610cc3565b820191906000526020600020905b815481529060010190602001808311610ca657829003601f168201915b50505050509450838054610cd69061193c565b80601f0160208091040260200160405190810160405280929190818152602001828054610d029061193c565b8015610d4f5780601f10610d2457610100808354040283529160200191610d4f565b820191906000526020600020905b815481529060010190602001808311610d3257829003601f168201915b50505050509350828054610d629061193c565b80601f0160208091040260200160405190810160405280929190818152602001828054610d8e9061193c565b8015610ddb5780601f10610db057610100808354040283529160200191610ddb565b820191906000526020600020905b815481529060010190602001808311610dbe57829003601f168201915b505050505092509a509a509a509a509a509a509a509a509a5050509193959799909294969850565b60008181526001602052604081206105bb906111c2565b600082815260208190526040902060010154610e3581611165565b61068b8383611194565b8051602081830181018051600982529282019190930120915280546105e59061193c565b610e6d8282610864565b6107f957600082815260208181526040808320600160a060020a03851684529091529020805460ff19166001179055610ea33390565b600160a060020a031681600160a060020a0316837f2f8788117e7eff1d82e926ec794901d17c78024a50270940304540a733656f0d60405160405180910390a45050565b600061085d83600160a060020a0384166111cc565b60606000610f0b836002611a08565b610f16906002611a27565b67ffffffffffffffff811115610f2e57610f2e6114dc565b6040519080825280601f01601f191660200182016040528015610f58576020820181803683370190505b5090507f300000000000000000000000000000000000000000000000000000000000000081600081518110610f8f57610f8f61197a565b6020010190600160f860020a031916908160001a9053507f780000000000000000000000000000000000000000000000000000000000000081600181518110610fda57610fda61197a565b6020010190600160f860020a031916908160001a9053506000610ffe846002611a08565b611009906001611a27565b90505b60018111156110ac577f303132333435363738396162636465660000000000000000000000000000000085600f166010811061104a5761104a61197a565b1a7f01000000000000000000000000000000000000000000000000000000000000000282828151811061107f5761107f61197a565b6020010190600160f860020a031916908160001a9053506010909404936110a581611a3f565b905061100c565b50831561085d5760405160e560020a62461bcd02815260206004820181905260248201527f537472696e67733a20686578206c656e67746820696e73756666696369656e7460448201526064016107e6565b6000600160e060020a031982167f7965db0b0000000000000000000000000000000000000000000000000000000014806105bb57507f01ffc9a700000000000000000000000000000000000000000000000000000000600160e060020a03198316146105bb565b61116f813361121b565b50565b61117c8282610e63565b600082815260016020526040902061068b9082610ee7565b61119e8282611282565b600082815260016020526040902061068b90826112e7565b600061085d83836112fc565b60006105bb825490565b6000818152600183016020526040812054611213575081546001818101845560008481526020808220909301849055845484825282860190935260409020919091556105bb565b5060006105bb565b6112258282610864565b6107f95761123d81600160a060020a03166014610efc565b611248836020610efc565b604051602001611259929190611a56565b60408051601f198184030181529082905260e560020a62461bcd0282526107e69160040161162f565b61128c8282610864565b156107f957600082815260208181526040808320600160a060020a0385168085529252808320805460ff1916905551339285917ff6391f5c32d9c69d2a47ea670b442974b53935d1edc7fd64eb21e047a839171b9190a45050565b600061085d83600160a060020a038416611326565b60008260000182815481106113135761131361197a565b9060005260206000200154905092915050565b6000818152600183016020526040812054801561140f57600061134a600183611ad7565b855490915060009061135e90600190611ad7565b90508181146113c357600086600001828154811061137e5761137e61197a565b90600052602060002001549050808760000184815481106113a1576113a161197a565b6000918252602080832090910192909255918252600188019052604090208390555b85548690806113d4576113d4611aee565b6001900381819060005260206000200160009055905585600101600086815260200190815260200160002060009055600193505050506105bb565b60009150506105bb565b8280546114259061193c565b90600052602060002090601f016020900481019282611447576000855561148d565b82601f1061146057805160ff191683800117855561148d565b8280016001018555821561148d579182015b8281111561148d578251825591602001919060010190611472565b5061149992915061149d565b5090565b5b80821115611499576000815560010161149e565b6000602082840312156114c457600080fd5b8135600160e060020a03198116811461085d57600080fd5b60e060020a634e487b7102600052604160045260246000fd5b604051601f8201601f1916810167ffffffffffffffff8111828210171561151e5761151e6114dc565b604052919050565b600082601f83011261153757600080fd5b813567ffffffffffffffff811115611551576115516114dc565b611564601f8201601f19166020016114f5565b81815284602083860101111561157957600080fd5b816020850160208301376000918101602001919091529392505050565b6000602082840312156115a857600080fd5b813567ffffffffffffffff8111156115bf57600080fd5b6115cb84828501611526565b949350505050565b60005b838110156115ee5781810151838201526020016115d6565b838111156115fd576000848401525b50505050565b6000815180845261161b8160208601602086016115d3565b601f01601f19169290920160200192915050565b60208152600061085d6020830184611603565b60006020828403121561165457600080fd5b5035919050565b6000806040838503121561166e57600080fd5b823591506020830135600160a060020a038116811461168c57600080fd5b809150509250929050565b600060208083018184528085518083526040860191506040848202870101925083870160005b828110156116eb57603f198886030184526116d9858351611603565b945092850192908501906001016116bd565b5092979650505050505050565b6000806040838503121561170b57600080fd5b50508035926020909101359150565b600067ffffffffffffffff821115611734576117346114dc565b5060209081020190565b600082601f83011261174f57600080fd5b8135602061176461175f8361171a565b6114f5565b8281529181028401810191818101908684111561178057600080fd5b8286015b848110156117c057803567ffffffffffffffff8111156117a45760008081fd5b6117b28986838b0101611526565b845250918301918301611784565b509695505050505050565b6000806000606084860312156117e057600080fd5b833567ffffffffffffffff808211156117f857600080fd5b6118048783880161173e565b945060209150818601358181111561181b57600080fd5b6118278882890161173e565b94505060408601358181111561183c57600080fd5b86019050601f8101871361184f57600080fd5b803561185d61175f8261171a565b8181529083028201830190838101908983111561187957600080fd5b928401925b828410156118a857833561ffff811681146118995760008081fd5b8252928401929084019061187e565b80955050505050509250925092565b60006101208083526118cb8184018d611603565b90508a60000b60208401528960000b60408401528860000b606084015282810360808401526118fa8189611603565b905082810360a084015261190e8188611603565b905082810360c08401526119228187611603565b60e084019590955250506101000152979650505050505050565b60028104600182168061195057607f821691505b602082108114156119745760e060020a634e487b7102600052602260045260246000fd5b50919050565b60e060020a634e487b7102600052603260045260246000fd5b600082516119a58184602087016115d3565b9190910192915050565b60e060020a634e487b7102600052601160045260246000fd5b60006000198214156119dc576119dc6119af565b5060010190565b600082611a035760e060020a634e487b7102600052601260045260246000fd5b500690565b6000816000190483118215151615611a2257611a226119af565b500290565b60008219821115611a3a57611a3a6119af565b500190565b600081611a4e57611a4e6119af565b506000190190565b7f416363657373436f6e74726f6c3a206163636f756e7420000000000000000000815260008351611a8e8160178501602088016115d3565b7f206973206d697373696e6720726f6c65200000000000000000000000000000006017918401918201528351611acb8160288401602088016115d3565b01602801949350505050565b600082821015611ae957611ae96119af565b500390565b60e060020a634e487b7102600052603160045260246000fdfea2646970667358221220694943445c436d094664a6b07997f74b9ecc6df5daf451b7b83764f15da4dc6d64736f6c634300080b0033",
  "immutableReferences": {},
  "source": "// SPDX-License-Identifier: GPL-3.0\npragma solidity >=0.7.0 <0.9.0;\n\nimport \"./CardDeck.sol\";\n\ncontract LandDeck is CardDeck {\n    string public constant card0 = \"Plains\";\n    string public constant card1 = \"Jungle\";\n    string public constant card2 = \"Mountain\";\n    string public constant card3 = \"Desert\";\n\n    //string public constant card4 = \"Landing Site\";\n\n    constructor() CardDeck() {\n        string[] memory cards = new string[](4);\n        string[] memory descriptions = new string[](4);\n        uint16[] memory quantities = new uint16[](4);\n\n        cards[0] = card0;\n        descriptions[0] = \"\";\n        quantities[0] = 1;\n\n        cards[1] = card1;\n        descriptions[1] = \"\";\n        quantities[1] = 1;\n\n        cards[2] = card2;\n        descriptions[2] = \"\";\n        quantities[2] = 1;\n\n        cards[3] = card3;\n        descriptions[3] = \"\";\n        quantities[3] = 1;\n\n        // cards[4] = card4;\n        // descriptions[4] = \"\";\n        // quantities[4] = 1;\n\n        addCards(cards, descriptions, quantities);\n    }\n}\n",
  "sourcePath": "/Users/maxmeier/Developer/Lucky Machines/hexploration/contracts/decks/LandDeck.sol",
  "compiler": {
    "name": "solc",
    "version": "0.8.11+commit.d7f03943.Emscripten.clang"
  },
  "schemaVersion": "3.4.4",
  "updatedAt": "2022-05-25T03:09:23.373Z",
  "devdoc": {
    "kind": "dev",
    "methods": {
      "getRoleAdmin(bytes32)": {
        "details": "Returns the admin role that controls `role`. See {grantRole} and {revokeRole}. To change a role's admin, use {_setRoleAdmin}."
      },
      "getRoleMember(bytes32,uint256)": {
        "details": "Returns one of the accounts that have `role`. `index` must be a value between 0 and {getRoleMemberCount}, non-inclusive. Role bearers are not sorted in any particular way, and their ordering may change at any point. WARNING: When using {getRoleMember} and {getRoleMemberCount}, make sure you perform all queries on the same block. See the following https://forum.openzeppelin.com/t/iterating-over-elements-on-enumerableset-in-openzeppelin-contracts/2296[forum post] for more information."
      },
      "getRoleMemberCount(bytes32)": {
        "details": "Returns the number of accounts that have `role`. Can be used together with {getRoleMember} to enumerate all bearers of a role."
      },
      "grantRole(bytes32,address)": {
        "details": "Grants `role` to `account`. If `account` had not been already granted `role`, emits a {RoleGranted} event. Requirements: - the caller must have ``role``'s admin role."
      },
      "hasRole(bytes32,address)": {
        "details": "Returns `true` if `account` has been granted `role`."
      },
      "renounceRole(bytes32,address)": {
        "details": "Revokes `role` from the calling account. Roles are often managed via {grantRole} and {revokeRole}: this function's purpose is to provide a mechanism for accounts to lose their privileges if they are compromised (such as when a trusted device is misplaced). If the calling account had been revoked `role`, emits a {RoleRevoked} event. Requirements: - the caller must be `account`."
      },
      "revokeRole(bytes32,address)": {
        "details": "Revokes `role` from `account`. If `account` had been granted `role`, emits a {RoleRevoked} event. Requirements: - the caller must have ``role``'s admin role."
      },
      "supportsInterface(bytes4)": {
        "details": "See {IERC165-supportsInterface}."
      }
    },
    "version": 1
  },
  "userdoc": {
    "kind": "user",
    "methods": {},
    "version": 1
  }
}