{
  "contractName": "LandDeck",
  "abi": [
    {
      "inputs": [],
      "stateMutability": "nonpayable",
      "type": "constructor"
    },
    {
      "anonymous": false,
      "inputs": [
        {
          "indexed": true,
          "internalType": "bytes32",
          "name": "role",
          "type": "bytes32"
        },
        {
          "indexed": true,
          "internalType": "bytes32",
          "name": "previousAdminRole",
          "type": "bytes32"
        },
        {
          "indexed": true,
          "internalType": "bytes32",
          "name": "newAdminRole",
          "type": "bytes32"
        }
      ],
      "name": "RoleAdminChanged",
      "type": "event"
    },
    {
      "anonymous": false,
      "inputs": [
        {
          "indexed": true,
          "internalType": "bytes32",
          "name": "role",
          "type": "bytes32"
        },
        {
          "indexed": true,
          "internalType": "address",
          "name": "account",
          "type": "address"
        },
        {
          "indexed": true,
          "internalType": "address",
          "name": "sender",
          "type": "address"
        }
      ],
      "name": "RoleGranted",
      "type": "event"
    },
    {
      "anonymous": false,
      "inputs": [
        {
          "indexed": true,
          "internalType": "bytes32",
          "name": "role",
          "type": "bytes32"
        },
        {
          "indexed": true,
          "internalType": "address",
          "name": "account",
          "type": "address"
        },
        {
          "indexed": true,
          "internalType": "address",
          "name": "sender",
          "type": "address"
        }
      ],
      "name": "RoleRevoked",
      "type": "event"
    },
    {
      "inputs": [],
      "name": "CONTROLLER_ROLE",
      "outputs": [
        {
          "internalType": "bytes32",
          "name": "",
          "type": "bytes32"
        }
      ],
      "stateMutability": "view",
      "type": "function",
      "constant": true
    },
    {
      "inputs": [],
      "name": "DEFAULT_ADMIN_ROLE",
      "outputs": [
        {
          "internalType": "bytes32",
          "name": "",
          "type": "bytes32"
        }
      ],
      "stateMutability": "view",
      "type": "function",
      "constant": true
    },
    {
      "inputs": [
        {
          "internalType": "string[]",
          "name": "titles",
          "type": "string[]"
        },
        {
          "internalType": "string[]",
          "name": "descriptions",
          "type": "string[]"
        },
        {
          "internalType": "uint16[]",
          "name": "quantities",
          "type": "uint16[]"
        }
      ],
      "name": "addCards",
      "outputs": [],
      "stateMutability": "nonpayable",
      "type": "function"
    },
    {
      "inputs": [
        {
          "internalType": "string",
          "name": "",
          "type": "string"
        },
        {
          "internalType": "uint256",
          "name": "",
          "type": "uint256"
        }
      ],
      "name": "agilityAdjust",
      "outputs": [
        {
          "internalType": "int8",
          "name": "",
          "type": "int8"
        }
      ],
      "stateMutability": "view",
      "type": "function",
      "constant": true
    },
    {
      "inputs": [],
      "name": "card0",
      "outputs": [
        {
          "internalType": "string",
          "name": "",
          "type": "string"
        }
      ],
      "stateMutability": "view",
      "type": "function",
      "constant": true
    },
    {
      "inputs": [],
      "name": "card1",
      "outputs": [
        {
          "internalType": "string",
          "name": "",
          "type": "string"
        }
      ],
      "stateMutability": "view",
      "type": "function",
      "constant": true
    },
    {
      "inputs": [],
      "name": "card2",
      "outputs": [
        {
          "internalType": "string",
          "name": "",
          "type": "string"
        }
      ],
      "stateMutability": "view",
      "type": "function",
      "constant": true
    },
    {
      "inputs": [],
      "name": "card3",
      "outputs": [
        {
          "internalType": "string",
          "name": "",
          "type": "string"
        }
      ],
      "stateMutability": "view",
      "type": "function",
      "constant": true
    },
    {
      "inputs": [
        {
          "internalType": "string",
          "name": "",
          "type": "string"
        }
      ],
      "name": "description",
      "outputs": [
        {
          "internalType": "string",
          "name": "",
          "type": "string"
        }
      ],
      "stateMutability": "view",
      "type": "function",
      "constant": true
    },
    {
      "inputs": [
        {
          "internalType": "string",
          "name": "",
          "type": "string"
        },
        {
          "internalType": "uint256",
          "name": "",
          "type": "uint256"
        }
      ],
      "name": "dexterityAdjust",
      "outputs": [
        {
          "internalType": "int8",
          "name": "",
          "type": "int8"
        }
      ],
      "stateMutability": "view",
      "type": "function",
      "constant": true
    },
    {
      "inputs": [
        {
          "internalType": "uint256",
          "name": "randomWord",
          "type": "uint256"
        },
        {
          "internalType": "uint256[3]",
          "name": "rollValues",
          "type": "uint256[3]"
        }
      ],
      "name": "drawCard",
      "outputs": [
        {
          "internalType": "string",
          "name": "",
          "type": "string"
        },
        {
          "internalType": "int8",
          "name": "",
          "type": "int8"
        },
        {
          "internalType": "int8",
          "name": "",
          "type": "int8"
        },
        {
          "internalType": "int8",
          "name": "",
          "type": "int8"
        },
        {
          "internalType": "string",
          "name": "",
          "type": "string"
        },
        {
          "internalType": "string",
          "name": "",
          "type": "string"
        },
        {
          "internalType": "string",
          "name": "",
          "type": "string"
        },
        {
          "internalType": "string",
          "name": "",
          "type": "string"
        }
      ],
      "stateMutability": "view",
      "type": "function",
      "constant": true
    },
    {
      "inputs": [],
      "name": "getDeck",
      "outputs": [
        {
          "internalType": "string[]",
          "name": "",
          "type": "string[]"
        }
      ],
      "stateMutability": "view",
      "type": "function",
      "constant": true
    },
    {
      "inputs": [
        {
          "internalType": "bytes32",
          "name": "role",
          "type": "bytes32"
        }
      ],
      "name": "getRoleAdmin",
      "outputs": [
        {
          "internalType": "bytes32",
          "name": "",
          "type": "bytes32"
        }
      ],
      "stateMutability": "view",
      "type": "function",
      "constant": true
    },
    {
      "inputs": [
        {
          "internalType": "bytes32",
          "name": "role",
          "type": "bytes32"
        },
        {
          "internalType": "uint256",
          "name": "index",
          "type": "uint256"
        }
      ],
      "name": "getRoleMember",
      "outputs": [
        {
          "internalType": "address",
          "name": "",
          "type": "address"
        }
      ],
      "stateMutability": "view",
      "type": "function",
      "constant": true
    },
    {
      "inputs": [
        {
          "internalType": "bytes32",
          "name": "role",
          "type": "bytes32"
        }
      ],
      "name": "getRoleMemberCount",
      "outputs": [
        {
          "internalType": "uint256",
          "name": "",
          "type": "uint256"
        }
      ],
      "stateMutability": "view",
      "type": "function",
      "constant": true
    },
    {
      "inputs": [
        {
          "internalType": "bytes32",
          "name": "role",
          "type": "bytes32"
        },
        {
          "internalType": "address",
          "name": "account",
          "type": "address"
        }
      ],
      "name": "grantRole",
      "outputs": [],
      "stateMutability": "nonpayable",
      "type": "function"
    },
    {
      "inputs": [
        {
          "internalType": "string",
          "name": "",
          "type": "string"
        },
        {
          "internalType": "uint256",
          "name": "",
          "type": "uint256"
        }
      ],
      "name": "handLoss",
      "outputs": [
        {
          "internalType": "string",
          "name": "",
          "type": "string"
        }
      ],
      "stateMutability": "view",
      "type": "function",
      "constant": true
    },
    {
      "inputs": [
        {
          "internalType": "bytes32",
          "name": "role",
          "type": "bytes32"
        },
        {
          "internalType": "address",
          "name": "account",
          "type": "address"
        }
      ],
      "name": "hasRole",
      "outputs": [
        {
          "internalType": "bool",
          "name": "",
          "type": "bool"
        }
      ],
      "stateMutability": "view",
      "type": "function",
      "constant": true
    },
    {
      "inputs": [
        {
          "internalType": "string",
          "name": "",
          "type": "string"
        },
        {
          "internalType": "uint256",
          "name": "",
          "type": "uint256"
        }
      ],
      "name": "itemGain",
      "outputs": [
        {
          "internalType": "string",
          "name": "",
          "type": "string"
        }
      ],
      "stateMutability": "view",
      "type": "function",
      "constant": true
    },
    {
      "inputs": [
        {
          "internalType": "string",
          "name": "",
          "type": "string"
        },
        {
          "internalType": "uint256",
          "name": "",
          "type": "uint256"
        }
      ],
      "name": "itemLoss",
      "outputs": [
        {
          "internalType": "string",
          "name": "",
          "type": "string"
        }
      ],
      "stateMutability": "view",
      "type": "function",
      "constant": true
    },
    {
      "inputs": [
        {
          "internalType": "string",
          "name": "",
          "type": "string"
        },
        {
          "internalType": "uint256",
          "name": "",
          "type": "uint256"
        }
      ],
      "name": "movementAdjust",
      "outputs": [
        {
          "internalType": "int8",
          "name": "",
          "type": "int8"
        }
      ],
      "stateMutability": "view",
      "type": "function",
      "constant": true
    },
    {
      "inputs": [
        {
          "internalType": "string",
          "name": "",
          "type": "string"
        },
        {
          "internalType": "uint256",
          "name": "",
          "type": "uint256"
        }
      ],
      "name": "movementX",
      "outputs": [
        {
          "internalType": "int256",
          "name": "",
          "type": "int256"
        }
      ],
      "stateMutability": "view",
      "type": "function",
      "constant": true
    },
    {
      "inputs": [
        {
          "internalType": "string",
          "name": "",
          "type": "string"
        },
        {
          "internalType": "uint256",
          "name": "",
          "type": "uint256"
        }
      ],
      "name": "movementY",
      "outputs": [
        {
          "internalType": "int256",
          "name": "",
          "type": "int256"
        }
      ],
      "stateMutability": "view",
      "type": "function",
      "constant": true
    },
    {
      "inputs": [
        {
          "internalType": "string",
          "name": "",
          "type": "string"
        },
        {
          "internalType": "uint256",
          "name": "",
          "type": "uint256"
        }
      ],
      "name": "outcomeDescription",
      "outputs": [
        {
          "internalType": "string",
          "name": "",
          "type": "string"
        }
      ],
      "stateMutability": "view",
      "type": "function",
      "constant": true
    },
    {
      "inputs": [
        {
          "internalType": "string",
          "name": "",
          "type": "string"
        }
      ],
      "name": "quantity",
      "outputs": [
        {
          "internalType": "uint16",
          "name": "",
          "type": "uint16"
        }
      ],
      "stateMutability": "view",
      "type": "function",
      "constant": true
    },
    {
      "inputs": [
        {
          "internalType": "bytes32",
          "name": "role",
          "type": "bytes32"
        },
        {
          "internalType": "address",
          "name": "account",
          "type": "address"
        }
      ],
      "name": "renounceRole",
      "outputs": [],
      "stateMutability": "nonpayable",
      "type": "function"
    },
    {
      "inputs": [
        {
          "internalType": "bytes32",
          "name": "role",
          "type": "bytes32"
        },
        {
          "internalType": "address",
          "name": "account",
          "type": "address"
        }
      ],
      "name": "revokeRole",
      "outputs": [],
      "stateMutability": "nonpayable",
      "type": "function"
    },
    {
      "inputs": [
        {
          "internalType": "string",
          "name": "",
          "type": "string"
        },
        {
          "internalType": "uint256",
          "name": "",
          "type": "uint256"
        }
      ],
      "name": "rollThresholds",
      "outputs": [
        {
          "internalType": "uint256",
          "name": "",
          "type": "uint256"
        }
      ],
      "stateMutability": "view",
      "type": "function",
      "constant": true
    },
    {
      "inputs": [
        {
          "internalType": "string",
          "name": "",
          "type": "string"
        }
      ],
      "name": "rollTypeRequired",
      "outputs": [
        {
          "internalType": "uint256",
          "name": "",
          "type": "uint256"
        }
      ],
      "stateMutability": "view",
      "type": "function",
      "constant": true
    },
    {
      "inputs": [
        {
          "internalType": "bytes4",
          "name": "interfaceId",
          "type": "bytes4"
        }
      ],
      "name": "supportsInterface",
      "outputs": [
        {
          "internalType": "bool",
          "name": "",
          "type": "bool"
        }
      ],
      "stateMutability": "view",
      "type": "function",
      "constant": true
    }
  ],
  "bytecode": "0x60806040523480156200001157600080fd5b506200003a60006200002b640100000000620003b3810204565b640100000000620003b7810204565b60408051600480825260a08201909252600091816020015b60608152602001906001900390816200005257505060408051600480825260a0820190925291925060009190602082015b60608152602001906001900390816200008357505060408051600480825260a0820190925291925060009190602082016080803683370190505090506040518060400160405280600681526020017f506c61696e730000000000000000000000000000000000000000000000000000815250836000815181106200010b576200010b62000b82565b602002602001018190525060405180602001604052806000815250826000815181106200013c576200013c62000b82565b60200260200101819052506001816000815181106200015f576200015f62000b82565b602002602001019061ffff16908161ffff16815250506040518060400160405280600681526020017f4a756e676c65000000000000000000000000000000000000000000000000000081525083600181518110620001c157620001c162000b82565b60200260200101819052506040518060200160405280600081525082600181518110620001f257620001f262000b82565b602002602001018190525060018160018151811062000215576200021562000b82565b602002602001019061ffff16908161ffff16815250506040518060400160405280600881526020017f4d6f756e7461696e0000000000000000000000000000000000000000000000008152508360028151811062000277576200027762000b82565b60200260200101819052506040518060200160405280600081525082600281518110620002a857620002a862000b82565b6020026020010181905250600181600281518110620002cb57620002cb62000b82565b602002602001019061ffff16908161ffff16815250506040518060400160405280600681526020017f4465736572740000000000000000000000000000000000000000000000000000815250836003815181106200032d576200032d62000b82565b602002602001018190525060405180602001604052806000815250826003815181106200035e576200035e62000b82565b602002602001018190525060018160038151811062000381576200038162000b82565b61ffff90921660209283029190910190910152620003aa838383640100000000620003d0810204565b50505062000db6565b3390565b620003cc8282640100000000620005f9810204565b5050565b6000620003e68164010000000062000640810204565b82518451148015620003f9575081518451145b62000465576040517f08c379a000000000000000000000000000000000000000000000000000000000815260206004820152601760248201527f6172726179207175616e74697479206d69736d6174636800000000000000000060448201526064015b60405180910390fd5b60005b8451811015620005f257600085828151811062000489576200048962000b82565b60200260200101519050600481604051620004a5919062000be4565b9081526040519081900360200190205461ffff16158015620004e85750838281518110620004d757620004d762000b82565b602002602001015161ffff16600014155b15620005dc5760028054600181018255600091909152815162000533917f405787fa12a823e0f2b7631cc41b3ba8828b3321ca811111fa75cd3aa3bb5ace0190602084019062000aad565b5084828151811062000549576200054962000b82565b602002602001015160038260405162000563919062000be4565b908152602001604051809103902090805190602001906200058692919062000aad565b508382815181106200059c576200059c62000b82565b6020026020010151600482604051620005b6919062000be4565b908152604051908190036020019020805461ffff9290921661ffff199092169190911790555b5080620005e98162000c31565b91505062000468565b5050505050565b620006138282640100000000620011c16200066a82021704565b60008281526001602052604090206200063b9082640100000000620012456200070682021704565b505050565b620006678162000658640100000000620003b3810204565b6401000000006200072f810204565b50565b6200067f8282640100000000620007dd810204565b620003cc57600082815260208181526040808320600160a060020a03851684529091529020805460ff19166001179055620006c2640100000000620003b3810204565b600160a060020a031681600160a060020a0316837f2f8788117e7eff1d82e926ec794901d17c78024a50270940304540a733656f0d60405160405180910390a45050565b60006200072683600160a060020a03841664010000000062000806810204565b90505b92915050565b620007448282640100000000620007dd810204565b620003cc576200076d600160a060020a03821660146401000000006200125a6200085e82021704565b620007888360206401000000006200125a6200085e82021704565b6040516020016200079b92919062000c4f565b60408051601f19818403018152908290527f08c379a00000000000000000000000000000000000000000000000000000000082526200045c9160040162000cd4565b600091825260208281526040808420600160a060020a0393909316845291905290205460ff1690565b60006200081d838364010000000062000a95810204565b620008555750815460018181018455600084815260208082209093018490558454848252828601909352604090209190915562000729565b50600062000729565b606060006200086f83600262000d09565b6200087c90600262000d2b565b67ffffffffffffffff81111562000897576200089762000b53565b6040519080825280601f01601f191660200182016040528015620008c2576020820181803683370190505b5090507f300000000000000000000000000000000000000000000000000000000000000081600081518110620008fc57620008fc62000b82565b6020010190600160f860020a031916908160001a9053507f7800000000000000000000000000000000000000000000000000000000000000816001815181106200094a576200094a62000b82565b6020010190600160f860020a031916908160001a90535060006200097084600262000d09565b6200097d90600162000d2b565b90505b600181111562000a2a577f303132333435363738396162636465660000000000000000000000000000000085600f1660108110620009c257620009c262000b82565b1a7f010000000000000000000000000000000000000000000000000000000000000002828281518110620009fa57620009fa62000b82565b6020010190600160f860020a031916908160001a90535060109094049362000a228162000d46565b905062000980565b50831562000726576040517f08c379a000000000000000000000000000000000000000000000000000000000815260206004820181905260248201527f537472696e67733a20686578206c656e67746820696e73756666696369656e7460448201526064016200045c565b60009081526001919091016020526040902054151590565b82805462000abb9062000d60565b90600052602060002090601f01602090048101928262000adf576000855562000b2a565b82601f1062000afa57805160ff191683800117855562000b2a565b8280016001018555821562000b2a579182015b8281111562000b2a57825182559160200191906001019062000b0d565b5062000b3892915062000b3c565b5090565b5b8082111562000b38576000815560010162000b3d565b7f4e487b7100000000000000000000000000000000000000000000000000000000600052604160045260246000fd5b7f4e487b7100000000000000000000000000000000000000000000000000000000600052603260045260246000fd5b60005b8381101562000bce57818101518382015260200162000bb4565b8381111562000bde576000848401525b50505050565b6000825162000bf881846020870162000bb1565b9190910192915050565b7f4e487b7100000000000000000000000000000000000000000000000000000000600052601160045260246000fd5b600060001982141562000c485762000c4862000c02565b5060010190565b7f416363657373436f6e74726f6c3a206163636f756e742000000000000000000081526000835162000c8981601785016020880162000bb1565b7f206973206d697373696e6720726f6c6520000000000000000000000000000000601791840191820152835162000cc881602884016020880162000bb1565b01602801949350505050565b602081526000825180602084015262000cf581604085016020870162000bb1565b601f01601f19169190910160400192915050565b600081600019048311821515161562000d265762000d2662000c02565b500290565b6000821982111562000d415762000d4162000c02565b500190565b60008162000d585762000d5862000c02565b506000190190565b60028104600182168062000d7557607f821691505b6020821081141562000db0577f4e487b7100000000000000000000000000000000000000000000000000000000600052602260045260246000fd5b50919050565b611f738062000dc66000396000f3fe608060405234801561001057600080fd5b50600436106101b7576000357c01000000000000000000000000000000000000000000000000000000009004806381ecfce811610101578063a855d6f9116100af578063a855d6f91461046b578063ca15c8731461047e578063ce8b597814610491578063d547741f146104a4578063d7f9601b146104b7578063e1913d01146104ca578063e4e6778c14610506578063ef6fe0fa1461054257600080fd5b806381ecfce8146103815780638249bb8c146103c357806388255199146103ff5780639010d07c1461041257806391d148541461043d578063a17ee4d814610450578063a217fddf1461046357600080fd5b806336568abe1161016957806336568abe146102c25780634ad8b066146102d5578063512e23bf146102e85780636e848970146102fb578063750211b91461032157806376796db814610348578063780643811461035b5780637b7841ce1461036e57600080fd5b806301ffc9a7146101bc578063092c5b3b146101e45780630ab68f521461021957806311ab6d3514610239578063248a9ca3146102755780632f2ff15d1461029857806333943474146102ad575b600080fd5b6101cf6101ca366004611810565b61056d565b60405190151581526020015b60405180910390f35b61020b7f7b765e0e932d348852a6f810bfa1ab891e259123f02db8cdcde614c57022335781565b6040519081526020016101db565b61022c6102273660046118f4565b6105b1565b6040516101db9190611995565b61022c6040518060400160405280600681526020017f4a756e676c65000000000000000000000000000000000000000000000000000081525081565b61020b6102833660046119a8565b60009081526020819052604090206001015490565b6102ab6102a63660046119c1565b61066c565b005b6102b5610696565b6040516101db91906119fd565b6102ab6102d03660046119c1565b61076f565b61020b6102e33660046118f4565b610803565b61022c6102f63660046118f4565b610836565b61030e6103093660046118f4565b610860565b60405160009190910b81526020016101db565b61033461032f366004611a5e565b6108a7565b6040516101db989796959493929190611ae8565b61022c6103563660046118f4565b610e39565b61020b6103693660046118f4565b610e63565b61030e61037c3660046118f4565b610e8d565b6103b061038f366004611b76565b805160208183018101805160048252928201919093012091525461ffff1681565b60405161ffff90911681526020016101db565b61022c6040518060400160405280600681526020017f506c61696e73000000000000000000000000000000000000000000000000000081525081565b61022c61040d366004611b76565b610eb7565b610425610420366004611bb3565b610edb565b604051600160a060020a0390911681526020016101db565b6101cf61044b3660046119c1565b610efa565b61030e61045e3660046118f4565b610f23565b61020b600081565b6102ab610479366004611c86565b610f4d565b61020b61048c3660046119a8565b611131565b61020b61049f3660046118f4565b611148565b6102ab6104b23660046119c1565b611172565b61022c6104c53660046118f4565b611197565b61022c6040518060400160405280600681526020017f446573657274000000000000000000000000000000000000000000000000000081525081565b61022c6040518060400160405280600881526020017f4d6f756e7461696e00000000000000000000000000000000000000000000000081525081565b61020b610550366004611b76565b8051602081830181018051600f8252928201919093012091525481565b6000600160e060020a031982167f5a05180f0000000000000000000000000000000000000000000000000000000014806105ab57506105ab8261145c565b92915050565b8151602081840181018051600882529282019185019190912091905281600381106105db57600080fd5b0180549092506105eb9150611d72565b80601f016020809104026020016040519081016040528092919081815260200182805461061790611d72565b80156106645780601f1061063957610100808354040283529160200191610664565b820191906000526020600020905b81548152906001019060200180831161064757829003601f168201915b505050505081565b600082815260208190526040902060010154610687816114c3565b61069183836114d0565b505050565b60606002805480602002602001604051908101604052809291908181526020016000905b828210156107665783829060005260206000200180546106d990611d72565b80601f016020809104026020016040519081016040528092919081815260200182805461070590611d72565b80156107525780601f1061072757610100808354040283529160200191610752565b820191906000526020600020905b81548152906001019060200180831161073557829003601f168201915b5050505050815260200190600101906106ba565b50505050905090565b600160a060020a03811633146107f55760405160e560020a62461bcd02815260206004820152602f60248201527f416363657373436f6e74726f6c3a2063616e206f6e6c792072656e6f756e636560448201527f20726f6c657320666f722073656c66000000000000000000000000000000000060648201526084015b60405180910390fd5b6107ff82826114f2565b5050565b8151602081840181018051600d825292820191850191909120919052816003811061082d57600080fd5b01549150829050565b8151602081840181018051600982529282019185019190912091905281600381106105db57600080fd5b81516020818401810180516006825292820191850191909120919052816003811061088a57600080fd5b6020810490910154601f9091166101000a900460000b9150829050565b6060600080600060608060608060006002805490508b6108c79190611db0565b90506000600282815481106108de576108de611dd5565b9060005260206000200180546108f390611d72565b80601f016020809104026020016040519081016040528092919081815260200182805461091f90611d72565b801561096c5780601f106109415761010080835404028352916020019161096c565b820191906000526020600020905b81548152906001019060200180831161094f57829003601f168201915b50505050509050600080600f836040516109869190611dee565b908152602001604051809103902054905060008d82600381106109ab576109ab611dd5565b602002015190506000600d856040516109c49190611dee565b908152604080519182900360200182206060830190915260038282826020028201915b8154815260200190600101908083116109e75750505050509050600060016003610a119190611e23565b90505b818160038110610a2657610a26611dd5565b60200201518310610a3957809450610a55565b80610a4357610a55565b80610a4d81611e3a565b915050610a14565b5084600586604051610a679190611dee565b90815260200160405180910390208560038110610a8657610a86611dd5565b602091828204019190069054906101000a900460000b600687604051610aac9190611dee565b90815260200160405180910390208660038110610acb57610acb611dd5565b602091828204019190069054906101000a900460000b600788604051610af19190611dee565b90815260200160405180910390208760038110610b1057610b10611dd5565b602091828204019190069054906101000a900460000b600989604051610b369190611dee565b90815260200160405180910390208860038110610b5557610b55611dd5565b0160088a604051610b669190611dee565b90815260200160405180910390208960038110610b8557610b85611dd5565b01600a8b604051610b969190611dee565b90815260200160405180910390208a60038110610bb557610bb5611dd5565b01600e8c604051610bc69190611dee565b90815260200160405180910390208b60038110610be557610be5611dd5565b01838054610bf290611d72565b80601f0160208091040260200160405190810160405280929190818152602001828054610c1e90611d72565b8015610c6b5780601f10610c4057610100808354040283529160200191610c6b565b820191906000526020600020905b815481529060010190602001808311610c4e57829003601f168201915b50505050509350828054610c7e90611d72565b80601f0160208091040260200160405190810160405280929190818152602001828054610caa90611d72565b8015610cf75780601f10610ccc57610100808354040283529160200191610cf7565b820191906000526020600020905b815481529060010190602001808311610cda57829003601f168201915b50505050509250818054610d0a90611d72565b80601f0160208091040260200160405190810160405280929190818152602001828054610d3690611d72565b8015610d835780601f10610d5857610100808354040283529160200191610d83565b820191906000526020600020905b815481529060010190602001808311610d6657829003601f168201915b50505050509150808054610d9690611d72565b80601f0160208091040260200160405190810160405280929190818152602001828054610dc290611d72565b8015610e0f5780601f10610de457610100808354040283529160200191610e0f565b820191906000526020600020905b815481529060010190602001808311610df257829003601f168201915b505050505090509d509d509d509d509d509d509d509d505050505050509295985092959890939650565b8151602081840181018051600e82529282019185019190912091905281600381106105db57600080fd5b8151602081840181018051600b825292820191850191909120919052816003811061082d57600080fd5b81516020818401810180516007825292820191850191909120919052816003811061088a57600080fd5b8051602081830181018051600382529282019190930120915280546105eb90611d72565b6000828152600160205260408120610ef39083611514565b9392505050565b600091825260208281526040808420600160a060020a0393909316845291905290205460ff1690565b81516020818401810180516005825292820191850191909120919052816003811061088a57600080fd5b6000610f58816114c3565b82518451148015610f6a575081518451145b610fb95760405160e560020a62461bcd02815260206004820152601760248201527f6172726179207175616e74697479206d69736d6174636800000000000000000060448201526064016107ec565b60005b845181101561112a576000858281518110610fd957610fd9611dd5565b60200260200101519050600481604051610ff39190611dee565b9081526040519081900360200190205461ffff16158015611032575083828151811061102157611021611dd5565b602002602001015161ffff16600014155b156111175760028054600181018255600091909152815161107a917f405787fa12a823e0f2b7631cc41b3ba8828b3321ca811111fa75cd3aa3bb5ace01906020840190611777565b5084828151811061108d5761108d611dd5565b60200260200101516003826040516110a59190611dee565b908152602001604051809103902090805190602001906110c6929190611777565b508382815181106110d9576110d9611dd5565b60200260200101516004826040516110f19190611dee565b908152604051908190036020019020805461ffff9290921661ffff199092169190911790555b508061112281611e51565b915050610fbc565b5050505050565b60008181526001602052604081206105ab90611520565b8151602081840181018051600c825292820191850191909120919052816003811061082d57600080fd5b60008281526020819052604090206001015461118d816114c3565b61069183836114f2565b8151602081840181018051600a82529282019185019190912091905281600381106105db57600080fd5b6111cb8282610efa565b6107ff57600082815260208181526040808320600160a060020a03851684529091529020805460ff191660011790556112013390565b600160a060020a031681600160a060020a0316837f2f8788117e7eff1d82e926ec794901d17c78024a50270940304540a733656f0d60405160405180910390a45050565b6000610ef383600160a060020a03841661152a565b60606000611269836002611e6c565b611274906002611e8b565b67ffffffffffffffff81111561128c5761128c61183a565b6040519080825280601f01601f1916602001820160405280156112b6576020820181803683370190505b5090507f3000000000000000000000000000000000000000000000000000000000000000816000815181106112ed576112ed611dd5565b6020010190600160f860020a031916908160001a9053507f78000000000000000000000000000000000000000000000000000000000000008160018151811061133857611338611dd5565b6020010190600160f860020a031916908160001a905350600061135c846002611e6c565b611367906001611e8b565b90505b600181111561140a577f303132333435363738396162636465660000000000000000000000000000000085600f16601081106113a8576113a8611dd5565b1a7f0100000000000000000000000000000000000000000000000000000000000000028282815181106113dd576113dd611dd5565b6020010190600160f860020a031916908160001a90535060109094049361140381611e3a565b905061136a565b508315610ef35760405160e560020a62461bcd02815260206004820181905260248201527f537472696e67733a20686578206c656e67746820696e73756666696369656e7460448201526064016107ec565b6000600160e060020a031982167f7965db0b0000000000000000000000000000000000000000000000000000000014806105ab57507f01ffc9a700000000000000000000000000000000000000000000000000000000600160e060020a03198316146105ab565b6114cd8133611579565b50565b6114da82826111c1565b60008281526001602052604090206106919082611245565b6114fc82826115e0565b60008281526001602052604090206106919082611645565b6000610ef3838361165a565b60006105ab825490565b6000818152600183016020526040812054611571575081546001818101845560008481526020808220909301849055845484825282860190935260409020919091556105ab565b5060006105ab565b6115838282610efa565b6107ff5761159b81600160a060020a0316601461125a565b6115a683602061125a565b6040516020016115b7929190611ea3565b60408051601f198184030181529082905260e560020a62461bcd0282526107ec91600401611995565b6115ea8282610efa565b156107ff57600082815260208181526040808320600160a060020a0385168085529252808320805460ff1916905551339285917ff6391f5c32d9c69d2a47ea670b442974b53935d1edc7fd64eb21e047a839171b9190a45050565b6000610ef383600160a060020a038416611684565b600082600001828154811061167157611671611dd5565b9060005260206000200154905092915050565b6000818152600183016020526040812054801561176d5760006116a8600183611e23565b85549091506000906116bc90600190611e23565b90508181146117215760008660000182815481106116dc576116dc611dd5565b90600052602060002001549050808760000184815481106116ff576116ff611dd5565b6000918252602080832090910192909255918252600188019052604090208390555b855486908061173257611732611f24565b6001900381819060005260206000200160009055905585600101600086815260200190815260200160002060009055600193505050506105ab565b60009150506105ab565b82805461178390611d72565b90600052602060002090601f0160209004810192826117a557600085556117eb565b82601f106117be57805160ff19168380011785556117eb565b828001600101855582156117eb579182015b828111156117eb5782518255916020019190600101906117d0565b506117f79291506117fb565b5090565b5b808211156117f757600081556001016117fc565b60006020828403121561182257600080fd5b8135600160e060020a031981168114610ef357600080fd5b60e060020a634e487b7102600052604160045260246000fd5b604051601f8201601f1916810167ffffffffffffffff8111828210171561187c5761187c61183a565b604052919050565b600082601f83011261189557600080fd5b813567ffffffffffffffff8111156118af576118af61183a565b6118c2601f8201601f1916602001611853565b8181528460208386010111156118d757600080fd5b816020850160208301376000918101602001919091529392505050565b6000806040838503121561190757600080fd5b823567ffffffffffffffff81111561191e57600080fd5b61192a85828601611884565b95602094909401359450505050565b60005b8381101561195457818101518382015260200161193c565b83811115611963576000848401525b50505050565b60008151808452611981816020860160208601611939565b601f01601f19169290920160200192915050565b602081526000610ef36020830184611969565b6000602082840312156119ba57600080fd5b5035919050565b600080604083850312156119d457600080fd5b823591506020830135600160a060020a03811681146119f257600080fd5b809150509250929050565b600060208083018184528085518083526040860191506040848202870101925083870160005b82811015611a5157603f19888603018452611a3f858351611969565b94509285019290850190600101611a23565b5092979650505050505050565b60008060808385031215611a7157600080fd5b82359150602084603f850112611a8657600080fd5b6040516060810181811067ffffffffffffffff82111715611aa957611aa961183a565b604052806080860187811115611abe57600080fd5b8387015b81811015611ad95780358352918401918401611ac2565b50505080925050509250929050565b6000610100808352611afc8184018c611969565b90508960000b60208401528860000b60408401528760000b60608401528281036080840152611b2b8188611969565b905082810360a0840152611b3f8187611969565b905082810360c0840152611b538186611969565b905082810360e0840152611b678185611969565b9b9a5050505050505050505050565b600060208284031215611b8857600080fd5b813567ffffffffffffffff811115611b9f57600080fd5b611bab84828501611884565b949350505050565b60008060408385031215611bc657600080fd5b50508035926020909101359150565b600067ffffffffffffffff821115611bef57611bef61183a565b5060209081020190565b600082601f830112611c0a57600080fd5b81356020611c1f611c1a83611bd5565b611853565b82815291810284018101918181019086841115611c3b57600080fd5b8286015b84811015611c7b57803567ffffffffffffffff811115611c5f5760008081fd5b611c6d8986838b0101611884565b845250918301918301611c3f565b509695505050505050565b600080600060608486031215611c9b57600080fd5b833567ffffffffffffffff80821115611cb357600080fd5b611cbf87838801611bf9565b9450602091508186013581811115611cd657600080fd5b611ce288828901611bf9565b945050604086013581811115611cf757600080fd5b86019050601f81018713611d0a57600080fd5b8035611d18611c1a82611bd5565b81815290830282018301908381019089831115611d3457600080fd5b928401925b82841015611d6357833561ffff81168114611d545760008081fd5b82529284019290840190611d39565b80955050505050509250925092565b600281046001821680611d8657607f821691505b60208210811415611daa5760e060020a634e487b7102600052602260045260246000fd5b50919050565b600082611dd05760e060020a634e487b7102600052601260045260246000fd5b500690565b60e060020a634e487b7102600052603260045260246000fd5b60008251611e00818460208701611939565b9190910192915050565b60e060020a634e487b7102600052601160045260246000fd5b600082821015611e3557611e35611e0a565b500390565b600081611e4957611e49611e0a565b506000190190565b6000600019821415611e6557611e65611e0a565b5060010190565b6000816000190483118215151615611e8657611e86611e0a565b500290565b60008219821115611e9e57611e9e611e0a565b500190565b7f416363657373436f6e74726f6c3a206163636f756e7420000000000000000000815260008351611edb816017850160208801611939565b7f206973206d697373696e6720726f6c65200000000000000000000000000000006017918401918201528351611f18816028840160208801611939565b01602801949350505050565b60e060020a634e487b7102600052603160045260246000fdfea2646970667358221220e99b7223fc65bc957e6264d00526fd25205cffd9ad803a4097b3855205b6f93f64736f6c634300080b0033",
  "immutableReferences": {},
  "source": "// SPDX-License-Identifier: GPL-3.0\npragma solidity >=0.7.0 <0.9.0;\n\nimport \"./CardDeck.sol\";\n\ncontract LandDeck is CardDeck {\n    string public constant card0 = \"Plains\";\n    string public constant card1 = \"Jungle\";\n    string public constant card2 = \"Mountain\";\n    string public constant card3 = \"Desert\";\n\n    //string public constant card4 = \"Landing Site\";\n\n    constructor() CardDeck() {\n        string[] memory cards = new string[](4);\n        string[] memory descriptions = new string[](4);\n        uint16[] memory quantities = new uint16[](4);\n\n        cards[0] = card0;\n        descriptions[0] = \"\";\n        quantities[0] = 1;\n\n        cards[1] = card1;\n        descriptions[1] = \"\";\n        quantities[1] = 1;\n\n        cards[2] = card2;\n        descriptions[2] = \"\";\n        quantities[2] = 1;\n\n        cards[3] = card3;\n        descriptions[3] = \"\";\n        quantities[3] = 1;\n\n        // cards[4] = card4;\n        // descriptions[4] = \"\";\n        // quantities[4] = 1;\n\n        addCards(cards, descriptions, quantities);\n    }\n}\n",
  "sourcePath": "/Users/max/demo/hexploration/contracts/decks/LandDeck.sol",
  "compiler": {
    "name": "solc",
    "version": "0.8.11+commit.d7f03943.Emscripten.clang"
  },
  "schemaVersion": "3.4.2",
  "updatedAt": "2022-05-26T21:20:17.868Z",
  "networkType": "ethereum",
  "devdoc": {
    "kind": "dev",
    "methods": {
      "getRoleAdmin(bytes32)": {
        "details": "Returns the admin role that controls `role`. See {grantRole} and {revokeRole}. To change a role's admin, use {_setRoleAdmin}."
      },
      "getRoleMember(bytes32,uint256)": {
        "details": "Returns one of the accounts that have `role`. `index` must be a value between 0 and {getRoleMemberCount}, non-inclusive. Role bearers are not sorted in any particular way, and their ordering may change at any point. WARNING: When using {getRoleMember} and {getRoleMemberCount}, make sure you perform all queries on the same block. See the following https://forum.openzeppelin.com/t/iterating-over-elements-on-enumerableset-in-openzeppelin-contracts/2296[forum post] for more information."
      },
      "getRoleMemberCount(bytes32)": {
        "details": "Returns the number of accounts that have `role`. Can be used together with {getRoleMember} to enumerate all bearers of a role."
      },
      "grantRole(bytes32,address)": {
        "details": "Grants `role` to `account`. If `account` had not been already granted `role`, emits a {RoleGranted} event. Requirements: - the caller must have ``role``'s admin role."
      },
      "hasRole(bytes32,address)": {
        "details": "Returns `true` if `account` has been granted `role`."
      },
      "renounceRole(bytes32,address)": {
        "details": "Revokes `role` from the calling account. Roles are often managed via {grantRole} and {revokeRole}: this function's purpose is to provide a mechanism for accounts to lose their privileges if they are compromised (such as when a trusted device is misplaced). If the calling account had been revoked `role`, emits a {RoleRevoked} event. Requirements: - the caller must be `account`."
      },
      "revokeRole(bytes32,address)": {
        "details": "Revokes `role` from `account`. If `account` had been granted `role`, emits a {RoleRevoked} event. Requirements: - the caller must have ``role``'s admin role."
      },
      "supportsInterface(bytes4)": {
        "details": "See {IERC165-supportsInterface}."
      }
    },
    "version": 1
  },
  "userdoc": {
    "kind": "user",
    "methods": {},
    "version": 1
  }
}