{
  "contractName": "LandDeck",
  "abi": [
    {
      "inputs": [],
      "stateMutability": "nonpayable",
      "type": "constructor"
    },
    {
      "anonymous": false,
      "inputs": [
        {
          "indexed": true,
          "internalType": "bytes32",
          "name": "role",
          "type": "bytes32"
        },
        {
          "indexed": true,
          "internalType": "bytes32",
          "name": "previousAdminRole",
          "type": "bytes32"
        },
        {
          "indexed": true,
          "internalType": "bytes32",
          "name": "newAdminRole",
          "type": "bytes32"
        }
      ],
      "name": "RoleAdminChanged",
      "type": "event"
    },
    {
      "anonymous": false,
      "inputs": [
        {
          "indexed": true,
          "internalType": "bytes32",
          "name": "role",
          "type": "bytes32"
        },
        {
          "indexed": true,
          "internalType": "address",
          "name": "account",
          "type": "address"
        },
        {
          "indexed": true,
          "internalType": "address",
          "name": "sender",
          "type": "address"
        }
      ],
      "name": "RoleGranted",
      "type": "event"
    },
    {
      "anonymous": false,
      "inputs": [
        {
          "indexed": true,
          "internalType": "bytes32",
          "name": "role",
          "type": "bytes32"
        },
        {
          "indexed": true,
          "internalType": "address",
          "name": "account",
          "type": "address"
        },
        {
          "indexed": true,
          "internalType": "address",
          "name": "sender",
          "type": "address"
        }
      ],
      "name": "RoleRevoked",
      "type": "event"
    },
    {
      "inputs": [],
      "name": "CONTROLLER_ROLE",
      "outputs": [
        {
          "internalType": "bytes32",
          "name": "",
          "type": "bytes32"
        }
      ],
      "stateMutability": "view",
      "type": "function"
    },
    {
      "inputs": [],
      "name": "DEFAULT_ADMIN_ROLE",
      "outputs": [
        {
          "internalType": "bytes32",
          "name": "",
          "type": "bytes32"
        }
      ],
      "stateMutability": "view",
      "type": "function"
    },
    {
      "inputs": [
        {
          "internalType": "string[]",
          "name": "titles",
          "type": "string[]"
        },
        {
          "internalType": "string[]",
          "name": "descriptions",
          "type": "string[]"
        },
        {
          "internalType": "uint16[]",
          "name": "quantities",
          "type": "uint16[]"
        }
      ],
      "name": "addCards",
      "outputs": [],
      "stateMutability": "nonpayable",
      "type": "function"
    },
    {
      "inputs": [
        {
          "internalType": "string",
          "name": "",
          "type": "string"
        },
        {
          "internalType": "uint256",
          "name": "",
          "type": "uint256"
        }
      ],
      "name": "agilityAdjust",
      "outputs": [
        {
          "internalType": "int8",
          "name": "",
          "type": "int8"
        }
      ],
      "stateMutability": "view",
      "type": "function"
    },
    {
      "inputs": [],
      "name": "card0",
      "outputs": [
        {
          "internalType": "string",
          "name": "",
          "type": "string"
        }
      ],
      "stateMutability": "view",
      "type": "function"
    },
    {
      "inputs": [],
      "name": "card1",
      "outputs": [
        {
          "internalType": "string",
          "name": "",
          "type": "string"
        }
      ],
      "stateMutability": "view",
      "type": "function"
    },
    {
      "inputs": [],
      "name": "card2",
      "outputs": [
        {
          "internalType": "string",
          "name": "",
          "type": "string"
        }
      ],
      "stateMutability": "view",
      "type": "function"
    },
    {
      "inputs": [],
      "name": "card3",
      "outputs": [
        {
          "internalType": "string",
          "name": "",
          "type": "string"
        }
      ],
      "stateMutability": "view",
      "type": "function"
    },
    {
      "inputs": [
        {
          "internalType": "string",
          "name": "",
          "type": "string"
        }
      ],
      "name": "description",
      "outputs": [
        {
          "internalType": "string",
          "name": "",
          "type": "string"
        }
      ],
      "stateMutability": "view",
      "type": "function"
    },
    {
      "inputs": [
        {
          "internalType": "string",
          "name": "",
          "type": "string"
        },
        {
          "internalType": "uint256",
          "name": "",
          "type": "uint256"
        }
      ],
      "name": "dexterityAdjust",
      "outputs": [
        {
          "internalType": "int8",
          "name": "",
          "type": "int8"
        }
      ],
      "stateMutability": "view",
      "type": "function"
    },
    {
      "inputs": [
        {
          "internalType": "uint256",
          "name": "randomWord",
          "type": "uint256"
        },
        {
          "internalType": "uint256",
          "name": "rollValue",
          "type": "uint256"
        }
      ],
      "name": "drawCard",
      "outputs": [
        {
          "internalType": "string",
          "name": "",
          "type": "string"
        },
        {
          "internalType": "int8",
          "name": "",
          "type": "int8"
        },
        {
          "internalType": "int8",
          "name": "",
          "type": "int8"
        },
        {
          "internalType": "int8",
          "name": "",
          "type": "int8"
        },
        {
          "internalType": "string",
          "name": "",
          "type": "string"
        },
        {
          "internalType": "string",
          "name": "",
          "type": "string"
        },
        {
          "internalType": "string",
          "name": "",
          "type": "string"
        },
        {
          "internalType": "int256",
          "name": "",
          "type": "int256"
        },
        {
          "internalType": "int256",
          "name": "",
          "type": "int256"
        }
      ],
      "stateMutability": "view",
      "type": "function"
    },
    {
      "inputs": [],
      "name": "getDeck",
      "outputs": [
        {
          "internalType": "string[]",
          "name": "",
          "type": "string[]"
        }
      ],
      "stateMutability": "view",
      "type": "function"
    },
    {
      "inputs": [
        {
          "internalType": "bytes32",
          "name": "role",
          "type": "bytes32"
        }
      ],
      "name": "getRoleAdmin",
      "outputs": [
        {
          "internalType": "bytes32",
          "name": "",
          "type": "bytes32"
        }
      ],
      "stateMutability": "view",
      "type": "function"
    },
    {
      "inputs": [
        {
          "internalType": "bytes32",
          "name": "role",
          "type": "bytes32"
        },
        {
          "internalType": "uint256",
          "name": "index",
          "type": "uint256"
        }
      ],
      "name": "getRoleMember",
      "outputs": [
        {
          "internalType": "address",
          "name": "",
          "type": "address"
        }
      ],
      "stateMutability": "view",
      "type": "function"
    },
    {
      "inputs": [
        {
          "internalType": "bytes32",
          "name": "role",
          "type": "bytes32"
        }
      ],
      "name": "getRoleMemberCount",
      "outputs": [
        {
          "internalType": "uint256",
          "name": "",
          "type": "uint256"
        }
      ],
      "stateMutability": "view",
      "type": "function"
    },
    {
      "inputs": [
        {
          "internalType": "bytes32",
          "name": "role",
          "type": "bytes32"
        },
        {
          "internalType": "address",
          "name": "account",
          "type": "address"
        }
      ],
      "name": "grantRole",
      "outputs": [],
      "stateMutability": "nonpayable",
      "type": "function"
    },
    {
      "inputs": [
        {
          "internalType": "string",
          "name": "",
          "type": "string"
        },
        {
          "internalType": "uint256",
          "name": "",
          "type": "uint256"
        }
      ],
      "name": "handLoss",
      "outputs": [
        {
          "internalType": "string",
          "name": "",
          "type": "string"
        }
      ],
      "stateMutability": "view",
      "type": "function"
    },
    {
      "inputs": [
        {
          "internalType": "bytes32",
          "name": "role",
          "type": "bytes32"
        },
        {
          "internalType": "address",
          "name": "account",
          "type": "address"
        }
      ],
      "name": "hasRole",
      "outputs": [
        {
          "internalType": "bool",
          "name": "",
          "type": "bool"
        }
      ],
      "stateMutability": "view",
      "type": "function"
    },
    {
      "inputs": [
        {
          "internalType": "string",
          "name": "",
          "type": "string"
        },
        {
          "internalType": "uint256",
          "name": "",
          "type": "uint256"
        }
      ],
      "name": "itemGain",
      "outputs": [
        {
          "internalType": "string",
          "name": "",
          "type": "string"
        }
      ],
      "stateMutability": "view",
      "type": "function"
    },
    {
      "inputs": [
        {
          "internalType": "string",
          "name": "",
          "type": "string"
        },
        {
          "internalType": "uint256",
          "name": "",
          "type": "uint256"
        }
      ],
      "name": "itemLoss",
      "outputs": [
        {
          "internalType": "string",
          "name": "",
          "type": "string"
        }
      ],
      "stateMutability": "view",
      "type": "function"
    },
    {
      "inputs": [
        {
          "internalType": "string",
          "name": "",
          "type": "string"
        },
        {
          "internalType": "uint256",
          "name": "",
          "type": "uint256"
        }
      ],
      "name": "movementAdjust",
      "outputs": [
        {
          "internalType": "int8",
          "name": "",
          "type": "int8"
        }
      ],
      "stateMutability": "view",
      "type": "function"
    },
    {
      "inputs": [
        {
          "internalType": "string",
          "name": "",
          "type": "string"
        },
        {
          "internalType": "uint256",
          "name": "",
          "type": "uint256"
        }
      ],
      "name": "movementX",
      "outputs": [
        {
          "internalType": "int256",
          "name": "",
          "type": "int256"
        }
      ],
      "stateMutability": "view",
      "type": "function"
    },
    {
      "inputs": [
        {
          "internalType": "string",
          "name": "",
          "type": "string"
        },
        {
          "internalType": "uint256",
          "name": "",
          "type": "uint256"
        }
      ],
      "name": "movementY",
      "outputs": [
        {
          "internalType": "int256",
          "name": "",
          "type": "int256"
        }
      ],
      "stateMutability": "view",
      "type": "function"
    },
    {
      "inputs": [
        {
          "internalType": "string",
          "name": "",
          "type": "string"
        },
        {
          "internalType": "uint256",
          "name": "",
          "type": "uint256"
        }
      ],
      "name": "outcomeDescription",
      "outputs": [
        {
          "internalType": "string",
          "name": "",
          "type": "string"
        }
      ],
      "stateMutability": "view",
      "type": "function"
    },
    {
      "inputs": [
        {
          "internalType": "string",
          "name": "",
          "type": "string"
        }
      ],
      "name": "quantity",
      "outputs": [
        {
          "internalType": "uint16",
          "name": "",
          "type": "uint16"
        }
      ],
      "stateMutability": "view",
      "type": "function"
    },
    {
      "inputs": [
        {
          "internalType": "bytes32",
          "name": "role",
          "type": "bytes32"
        },
        {
          "internalType": "address",
          "name": "account",
          "type": "address"
        }
      ],
      "name": "renounceRole",
      "outputs": [],
      "stateMutability": "nonpayable",
      "type": "function"
    },
    {
      "inputs": [
        {
          "internalType": "bytes32",
          "name": "role",
          "type": "bytes32"
        },
        {
          "internalType": "address",
          "name": "account",
          "type": "address"
        }
      ],
      "name": "revokeRole",
      "outputs": [],
      "stateMutability": "nonpayable",
      "type": "function"
    },
    {
      "inputs": [
        {
          "internalType": "string",
          "name": "",
          "type": "string"
        },
        {
          "internalType": "uint256",
          "name": "",
          "type": "uint256"
        }
      ],
      "name": "rollThresholds",
      "outputs": [
        {
          "internalType": "uint256",
          "name": "",
          "type": "uint256"
        }
      ],
      "stateMutability": "view",
      "type": "function"
    },
    {
      "inputs": [
        {
          "internalType": "bytes4",
          "name": "interfaceId",
          "type": "bytes4"
        }
      ],
      "name": "supportsInterface",
      "outputs": [
        {
          "internalType": "bool",
          "name": "",
          "type": "bool"
        }
      ],
      "stateMutability": "view",
      "type": "function"
    }
  ],
  "bytecode": "0x60806040523480156200001157600080fd5b506200003a60006200002b640100000000620003b3810204565b640100000000620003b7810204565b60408051600480825260a08201909252600091816020015b60608152602001906001900390816200005257505060408051600480825260a0820190925291925060009190602082015b60608152602001906001900390816200008357505060408051600480825260a0820190925291925060009190602082016080803683370190505090506040518060400160405280600681526020017f506c61696e730000000000000000000000000000000000000000000000000000815250836000815181106200010b576200010b62000b82565b602002602001018190525060405180602001604052806000815250826000815181106200013c576200013c62000b82565b60200260200101819052506001816000815181106200015f576200015f62000b82565b602002602001019061ffff16908161ffff16815250506040518060400160405280600681526020017f4a756e676c65000000000000000000000000000000000000000000000000000081525083600181518110620001c157620001c162000b82565b60200260200101819052506040518060200160405280600081525082600181518110620001f257620001f262000b82565b602002602001018190525060018160018151811062000215576200021562000b82565b602002602001019061ffff16908161ffff16815250506040518060400160405280600881526020017f4d6f756e7461696e0000000000000000000000000000000000000000000000008152508360028151811062000277576200027762000b82565b60200260200101819052506040518060200160405280600081525082600281518110620002a857620002a862000b82565b6020026020010181905250600181600281518110620002cb57620002cb62000b82565b602002602001019061ffff16908161ffff16815250506040518060400160405280600681526020017f4465736572740000000000000000000000000000000000000000000000000000815250836003815181106200032d576200032d62000b82565b602002602001018190525060405180602001604052806000815250826003815181106200035e576200035e62000b82565b602002602001018190525060018160038151811062000381576200038162000b82565b61ffff90921660209283029190910190910152620003aa838383640100000000620003d0810204565b50505062000db6565b3390565b620003cc8282640100000000620005f9810204565b5050565b6000620003e68164010000000062000640810204565b82518451148015620003f9575081518451145b62000465576040517f08c379a000000000000000000000000000000000000000000000000000000000815260206004820152601760248201527f6172726179207175616e74697479206d69736d6174636800000000000000000060448201526064015b60405180910390fd5b60005b8451811015620005f257600085828151811062000489576200048962000b82565b60200260200101519050600481604051620004a5919062000be4565b9081526040519081900360200190205461ffff16158015620004e85750838281518110620004d757620004d762000b82565b602002602001015161ffff16600014155b15620005dc5760028054600181018255600091909152815162000533917f405787fa12a823e0f2b7631cc41b3ba8828b3321ca811111fa75cd3aa3bb5ace0190602084019062000aad565b5084828151811062000549576200054962000b82565b602002602001015160038260405162000563919062000be4565b908152602001604051809103902090805190602001906200058692919062000aad565b508382815181106200059c576200059c62000b82565b6020026020010151600482604051620005b6919062000be4565b908152604051908190036020019020805461ffff9290921661ffff199092169190911790555b5080620005e98162000c31565b91505062000468565b5050505050565b620006138282640100000000620010f66200066a82021704565b60008281526001602052604090206200063b90826401000000006200117a6200070682021704565b505050565b620006678162000658640100000000620003b3810204565b6401000000006200072f810204565b50565b6200067f8282640100000000620007dd810204565b620003cc57600082815260208181526040808320600160a060020a03851684529091529020805460ff19166001179055620006c2640100000000620003b3810204565b600160a060020a031681600160a060020a0316837f2f8788117e7eff1d82e926ec794901d17c78024a50270940304540a733656f0d60405160405180910390a45050565b60006200072683600160a060020a03841664010000000062000806810204565b90505b92915050565b620007448282640100000000620007dd810204565b620003cc576200076d600160a060020a03821660146401000000006200118f6200085e82021704565b620007888360206401000000006200118f6200085e82021704565b6040516020016200079b92919062000c4f565b60408051601f19818403018152908290527f08c379a00000000000000000000000000000000000000000000000000000000082526200045c9160040162000cd4565b600091825260208281526040808420600160a060020a0393909316845291905290205460ff1690565b60006200081d838364010000000062000a95810204565b620008555750815460018181018455600084815260208082209093018490558454848252828601909352604090209190915562000729565b50600062000729565b606060006200086f83600262000d09565b6200087c90600262000d2b565b67ffffffffffffffff81111562000897576200089762000b53565b6040519080825280601f01601f191660200182016040528015620008c2576020820181803683370190505b5090507f300000000000000000000000000000000000000000000000000000000000000081600081518110620008fc57620008fc62000b82565b6020010190600160f860020a031916908160001a9053507f7800000000000000000000000000000000000000000000000000000000000000816001815181106200094a576200094a62000b82565b6020010190600160f860020a031916908160001a90535060006200097084600262000d09565b6200097d90600162000d2b565b90505b600181111562000a2a577f303132333435363738396162636465660000000000000000000000000000000085600f1660108110620009c257620009c262000b82565b1a7f010000000000000000000000000000000000000000000000000000000000000002828281518110620009fa57620009fa62000b82565b6020010190600160f860020a031916908160001a90535060109094049362000a228162000d46565b905062000980565b50831562000726576040517f08c379a000000000000000000000000000000000000000000000000000000000815260206004820181905260248201527f537472696e67733a20686578206c656e67746820696e73756666696369656e7460448201526064016200045c565b60009081526001919091016020526040902054151590565b82805462000abb9062000d60565b90600052602060002090601f01602090048101928262000adf576000855562000b2a565b82601f1062000afa57805160ff191683800117855562000b2a565b8280016001018555821562000b2a579182015b8281111562000b2a57825182559160200191906001019062000b0d565b5062000b3892915062000b3c565b5090565b5b8082111562000b38576000815560010162000b3d565b7f4e487b7100000000000000000000000000000000000000000000000000000000600052604160045260246000fd5b7f4e487b7100000000000000000000000000000000000000000000000000000000600052603260045260246000fd5b60005b8381101562000bce57818101518382015260200162000bb4565b8381111562000bde576000848401525b50505050565b6000825162000bf881846020870162000bb1565b9190910192915050565b7f4e487b7100000000000000000000000000000000000000000000000000000000600052601160045260246000fd5b600060001982141562000c485762000c4862000c02565b5060010190565b7f416363657373436f6e74726f6c3a206163636f756e742000000000000000000081526000835162000c8981601785016020880162000bb1565b7f206973206d697373696e6720726f6c6520000000000000000000000000000000601791840191820152835162000cc881602884016020880162000bb1565b01602801949350505050565b602081526000825180602084015262000cf581604085016020870162000bb1565b601f01601f19169190910160400192915050565b600081600019048311821515161562000d265762000d2662000c02565b500290565b6000821982111562000d415762000d4162000c02565b500190565b60008162000d585762000d5862000c02565b506000190190565b60028104600182168062000d7557607f821691505b6020821081141562000db0577f4e487b7100000000000000000000000000000000000000000000000000000000600052602260045260246000fd5b50919050565b611e158062000dc66000396000f3fe608060405234801561001057600080fd5b50600436106101ac576000357c0100000000000000000000000000000000000000000000000000000000900480637b7841ce11610101578063a217fddf116100af578063a217fddf14610459578063a855d6f914610461578063ca15c87314610474578063ce8b597814610487578063d547741f1461049a578063d7f9601b146104ad578063e1913d01146104c0578063e4e6778c146104fc57600080fd5b80637b7841ce1461036457806381ecfce8146103775780638249bb8c146103b957806388255199146103f55780639010d07c1461040857806391d1485414610433578063a17ee4d81461044657600080fd5b806336568abe1161015e57806336568abe146102b75780634ad8b066146102ca578063507ff426146102dd578063512e23bf146103055780636e8489701461031857806376796db81461033e578063780643811461035157600080fd5b806301ffc9a7146101b1578063092c5b3b146101d95780630ab68f521461020e57806311ab6d351461022e578063248a9ca31461026a5780632f2ff15d1461028d57806333943474146102a2575b600080fd5b6101c46101bf366004611745565b610538565b60405190151581526020015b60405180910390f35b6102007f7b765e0e932d348852a6f810bfa1ab891e259123f02db8cdcde614c57022335781565b6040519081526020016101d0565b61022161021c366004611829565b61057c565b6040516101d091906118ca565b6102216040518060400160405280600681526020017f4a756e676c65000000000000000000000000000000000000000000000000000081525081565b6102006102783660046118dd565b60009081526020819052604090206001015490565b6102a061029b3660046118f6565b610637565b005b6102aa610661565b6040516101d09190611932565b6102a06102c53660046118f6565b61073a565b6102006102d8366004611829565b6107ce565b6102f06102eb366004611993565b610801565b6040516101d0999897969594939291906119b5565b610221610313366004611829565b610cfd565b61032b610326366004611829565b610d27565b60405160009190910b81526020016101d0565b61022161034c366004611829565b610d6e565b61020061035f366004611829565b610d98565b61032b610372366004611829565b610dc2565b6103a6610385366004611a3a565b805160208183018101805160048252928201919093012091525461ffff1681565b60405161ffff90911681526020016101d0565b6102216040518060400160405280600681526020017f506c61696e73000000000000000000000000000000000000000000000000000081525081565b610221610403366004611a3a565b610dec565b61041b610416366004611993565b610e10565b604051600160a060020a0390911681526020016101d0565b6101c46104413660046118f6565b610e2f565b61032b610454366004611829565b610e58565b610200600081565b6102a061046f366004611b28565b610e82565b6102006104823660046118dd565b611066565b610200610495366004611829565b61107d565b6102a06104a83660046118f6565b6110a7565b6102216104bb366004611829565b6110cc565b6102216040518060400160405280600681526020017f446573657274000000000000000000000000000000000000000000000000000081525081565b6102216040518060400160405280600881526020017f4d6f756e7461696e00000000000000000000000000000000000000000000000081525081565b6000600160e060020a031982167f5a05180f000000000000000000000000000000000000000000000000000000001480610576575061057682611391565b92915050565b8151602081840181018051600882529282019185019190912091905281600381106105a657600080fd5b0180549092506105b69150611c14565b80601f01602080910402602001604051908101604052809291908181526020018280546105e290611c14565b801561062f5780601f106106045761010080835404028352916020019161062f565b820191906000526020600020905b81548152906001019060200180831161061257829003601f168201915b505050505081565b600082815260208190526040902060010154610652816113f8565b61065c8383611405565b505050565b60606002805480602002602001604051908101604052809291908181526020016000905b828210156107315783829060005260206000200180546106a490611c14565b80601f01602080910402602001604051908101604052809291908181526020018280546106d090611c14565b801561071d5780601f106106f25761010080835404028352916020019161071d565b820191906000526020600020905b81548152906001019060200180831161070057829003601f168201915b505050505081526020019060010190610685565b50505050905090565b600160a060020a03811633146107c05760405160e560020a62461bcd02815260206004820152602f60248201527f416363657373436f6e74726f6c3a2063616e206f6e6c792072656e6f756e636560448201527f20726f6c657320666f722073656c66000000000000000000000000000000000060648201526084015b60405180910390fd5b6107ca8282611427565b5050565b8151602081840181018051600d82529282019185019190912091905281600381106107f857600080fd5b01549150829050565b60606000806000606080606060008060006002805490508c6108239190611c52565b905060006002828154811061083a5761083a611c77565b90600052602060002001805461084f90611c14565b80601f016020809104026020016040519081016040528092919081815260200182805461087b90611c14565b80156108c85780601f1061089d576101008083540402835291602001916108c8565b820191906000526020600020905b8154815290600101906020018083116108ab57829003601f168201915b50505050509050600080600d836040516108e29190611c90565b908152604080519182900360200182206060830190915260038282826020028201915b815481526020019060010190808311610905575050505050905060006001600361092f9190611cc5565b90505b81816003811061094457610944611c77565b60200201518f1061095757809250610973565b8061096157610973565b8061096b81611cdc565b915050610932565b50826005846040516109859190611c90565b908152602001604051809103902083600381106109a4576109a4611c77565b602091828204019190069054906101000a900460000b6006856040516109ca9190611c90565b908152602001604051809103902084600381106109e9576109e9611c77565b602091828204019190069054906101000a900460000b600786604051610a0f9190611c90565b90815260200160405180910390208560038110610a2e57610a2e611c77565b602091828204019190069054906101000a900460000b600987604051610a549190611c90565b90815260200160405180910390208660038110610a7357610a73611c77565b01600888604051610a849190611c90565b90815260200160405180910390208760038110610aa357610aa3611c77565b01600a89604051610ab49190611c90565b90815260200160405180910390208860038110610ad357610ad3611c77565b01600b8a604051610ae49190611c90565b90815260200160405180910390208960038110610b0357610b03611c77565b0154600c8b604051610b159190611c90565b90815260200160405180910390208a60038110610b3457610b34611c77565b0154848054610b4290611c14565b80601f0160208091040260200160405190810160405280929190818152602001828054610b6e90611c14565b8015610bbb5780601f10610b9057610100808354040283529160200191610bbb565b820191906000526020600020905b815481529060010190602001808311610b9e57829003601f168201915b50505050509450838054610bce90611c14565b80601f0160208091040260200160405190810160405280929190818152602001828054610bfa90611c14565b8015610c475780601f10610c1c57610100808354040283529160200191610c47565b820191906000526020600020905b815481529060010190602001808311610c2a57829003601f168201915b50505050509350828054610c5a90611c14565b80601f0160208091040260200160405190810160405280929190818152602001828054610c8690611c14565b8015610cd35780601f10610ca857610100808354040283529160200191610cd3565b820191906000526020600020905b815481529060010190602001808311610cb657829003601f168201915b505050505092509c509c509c509c509c509c509c509c509c50505050509295985092959850929598565b8151602081840181018051600982529282019185019190912091905281600381106105a657600080fd5b815160208184018101805160068252928201918501919091209190528160038110610d5157600080fd5b6020810490910154601f9091166101000a900460000b9150829050565b8151602081840181018051600e82529282019185019190912091905281600381106105a657600080fd5b8151602081840181018051600b82529282019185019190912091905281600381106107f857600080fd5b815160208184018101805160078252928201918501919091209190528160038110610d5157600080fd5b8051602081830181018051600382529282019190930120915280546105b690611c14565b6000828152600160205260408120610e289083611449565b9392505050565b600091825260208281526040808420600160a060020a0393909316845291905290205460ff1690565b815160208184018101805160058252928201918501919091209190528160038110610d5157600080fd5b6000610e8d816113f8565b82518451148015610e9f575081518451145b610eee5760405160e560020a62461bcd02815260206004820152601760248201527f6172726179207175616e74697479206d69736d6174636800000000000000000060448201526064016107b7565b60005b845181101561105f576000858281518110610f0e57610f0e611c77565b60200260200101519050600481604051610f289190611c90565b9081526040519081900360200190205461ffff16158015610f675750838281518110610f5657610f56611c77565b602002602001015161ffff16600014155b1561104c57600280546001810182556000919091528151610faf917f405787fa12a823e0f2b7631cc41b3ba8828b3321ca811111fa75cd3aa3bb5ace019060208401906116ac565b50848281518110610fc257610fc2611c77565b6020026020010151600382604051610fda9190611c90565b90815260200160405180910390209080519060200190610ffb9291906116ac565b5083828151811061100e5761100e611c77565b60200260200101516004826040516110269190611c90565b908152604051908190036020019020805461ffff9290921661ffff199092169190911790555b508061105781611cf3565b915050610ef1565b5050505050565b600081815260016020526040812061057690611455565b8151602081840181018051600c82529282019185019190912091905281600381106107f857600080fd5b6000828152602081905260409020600101546110c2816113f8565b61065c8383611427565b8151602081840181018051600a82529282019185019190912091905281600381106105a657600080fd5b6111008282610e2f565b6107ca57600082815260208181526040808320600160a060020a03851684529091529020805460ff191660011790556111363390565b600160a060020a031681600160a060020a0316837f2f8788117e7eff1d82e926ec794901d17c78024a50270940304540a733656f0d60405160405180910390a45050565b6000610e2883600160a060020a03841661145f565b6060600061119e836002611d0e565b6111a9906002611d2d565b67ffffffffffffffff8111156111c1576111c161176f565b6040519080825280601f01601f1916602001820160405280156111eb576020820181803683370190505b5090507f30000000000000000000000000000000000000000000000000000000000000008160008151811061122257611222611c77565b6020010190600160f860020a031916908160001a9053507f78000000000000000000000000000000000000000000000000000000000000008160018151811061126d5761126d611c77565b6020010190600160f860020a031916908160001a9053506000611291846002611d0e565b61129c906001611d2d565b90505b600181111561133f577f303132333435363738396162636465660000000000000000000000000000000085600f16601081106112dd576112dd611c77565b1a7f01000000000000000000000000000000000000000000000000000000000000000282828151811061131257611312611c77565b6020010190600160f860020a031916908160001a90535060109094049361133881611cdc565b905061129f565b508315610e285760405160e560020a62461bcd02815260206004820181905260248201527f537472696e67733a20686578206c656e67746820696e73756666696369656e7460448201526064016107b7565b6000600160e060020a031982167f7965db0b00000000000000000000000000000000000000000000000000000000148061057657507f01ffc9a700000000000000000000000000000000000000000000000000000000600160e060020a0319831614610576565b61140281336114ae565b50565b61140f82826110f6565b600082815260016020526040902061065c908261117a565b6114318282611515565b600082815260016020526040902061065c908261157a565b6000610e28838361158f565b6000610576825490565b60008181526001830160205260408120546114a657508154600181810184556000848152602080822090930184905584548482528286019093526040902091909155610576565b506000610576565b6114b88282610e2f565b6107ca576114d081600160a060020a0316601461118f565b6114db83602061118f565b6040516020016114ec929190611d45565b60408051601f198184030181529082905260e560020a62461bcd0282526107b7916004016118ca565b61151f8282610e2f565b156107ca57600082815260208181526040808320600160a060020a0385168085529252808320805460ff1916905551339285917ff6391f5c32d9c69d2a47ea670b442974b53935d1edc7fd64eb21e047a839171b9190a45050565b6000610e2883600160a060020a0384166115b9565b60008260000182815481106115a6576115a6611c77565b9060005260206000200154905092915050565b600081815260018301602052604081205480156116a25760006115dd600183611cc5565b85549091506000906115f190600190611cc5565b905081811461165657600086600001828154811061161157611611611c77565b906000526020600020015490508087600001848154811061163457611634611c77565b6000918252602080832090910192909255918252600188019052604090208390555b855486908061166757611667611dc6565b600190038181906000526020600020016000905590558560010160008681526020019081526020016000206000905560019350505050610576565b6000915050610576565b8280546116b890611c14565b90600052602060002090601f0160209004810192826116da5760008555611720565b82601f106116f357805160ff1916838001178555611720565b82800160010185558215611720579182015b82811115611720578251825591602001919060010190611705565b5061172c929150611730565b5090565b5b8082111561172c5760008155600101611731565b60006020828403121561175757600080fd5b8135600160e060020a031981168114610e2857600080fd5b60e060020a634e487b7102600052604160045260246000fd5b604051601f8201601f1916810167ffffffffffffffff811182821017156117b1576117b161176f565b604052919050565b600082601f8301126117ca57600080fd5b813567ffffffffffffffff8111156117e4576117e461176f565b6117f7601f8201601f1916602001611788565b81815284602083860101111561180c57600080fd5b816020850160208301376000918101602001919091529392505050565b6000806040838503121561183c57600080fd5b823567ffffffffffffffff81111561185357600080fd5b61185f858286016117b9565b95602094909401359450505050565b60005b83811015611889578181015183820152602001611871565b83811115611898576000848401525b50505050565b600081518084526118b681602086016020860161186e565b601f01601f19169290920160200192915050565b602081526000610e28602083018461189e565b6000602082840312156118ef57600080fd5b5035919050565b6000806040838503121561190957600080fd5b823591506020830135600160a060020a038116811461192757600080fd5b809150509250929050565b600060208083018184528085518083526040860191506040848202870101925083870160005b8281101561198657603f1988860301845261197485835161189e565b94509285019290850190600101611958565b5092979650505050505050565b600080604083850312156119a657600080fd5b50508035926020909101359150565b60006101208083526119c98184018d61189e565b90508a60000b60208401528960000b60408401528860000b606084015282810360808401526119f8818961189e565b905082810360a0840152611a0c818861189e565b905082810360c0840152611a20818761189e565b60e084019590955250506101000152979650505050505050565b600060208284031215611a4c57600080fd5b813567ffffffffffffffff811115611a6357600080fd5b611a6f848285016117b9565b949350505050565b600067ffffffffffffffff821115611a9157611a9161176f565b5060209081020190565b600082601f830112611aac57600080fd5b81356020611ac1611abc83611a77565b611788565b82815291810284018101918181019086841115611add57600080fd5b8286015b84811015611b1d57803567ffffffffffffffff811115611b015760008081fd5b611b0f8986838b01016117b9565b845250918301918301611ae1565b509695505050505050565b600080600060608486031215611b3d57600080fd5b833567ffffffffffffffff80821115611b5557600080fd5b611b6187838801611a9b565b9450602091508186013581811115611b7857600080fd5b611b8488828901611a9b565b945050604086013581811115611b9957600080fd5b86019050601f81018713611bac57600080fd5b8035611bba611abc82611a77565b81815290830282018301908381019089831115611bd657600080fd5b928401925b82841015611c0557833561ffff81168114611bf65760008081fd5b82529284019290840190611bdb565b80955050505050509250925092565b600281046001821680611c2857607f821691505b60208210811415611c4c5760e060020a634e487b7102600052602260045260246000fd5b50919050565b600082611c725760e060020a634e487b7102600052601260045260246000fd5b500690565b60e060020a634e487b7102600052603260045260246000fd5b60008251611ca281846020870161186e565b9190910192915050565b60e060020a634e487b7102600052601160045260246000fd5b600082821015611cd757611cd7611cac565b500390565b600081611ceb57611ceb611cac565b506000190190565b6000600019821415611d0757611d07611cac565b5060010190565b6000816000190483118215151615611d2857611d28611cac565b500290565b60008219821115611d4057611d40611cac565b500190565b7f416363657373436f6e74726f6c3a206163636f756e7420000000000000000000815260008351611d7d81601785016020880161186e565b7f206973206d697373696e6720726f6c65200000000000000000000000000000006017918401918201528351611dba81602884016020880161186e565b01602801949350505050565b60e060020a634e487b7102600052603160045260246000fdfea26469706673582212202566c96d69f830449949baecc9d17ff091b96785eb0b610ff1ac54241fa11f4d64736f6c634300080b0033",
  "immutableReferences": {},
  "source": "// SPDX-License-Identifier: GPL-3.0\npragma solidity >=0.7.0 <0.9.0;\n\nimport \"./CardDeck.sol\";\n\ncontract LandDeck is CardDeck {\n    string public constant card0 = \"Plains\";\n    string public constant card1 = \"Jungle\";\n    string public constant card2 = \"Mountain\";\n    string public constant card3 = \"Desert\";\n\n    //string public constant card4 = \"Landing Site\";\n\n    constructor() CardDeck() {\n        string[] memory cards = new string[](4);\n        string[] memory descriptions = new string[](4);\n        uint16[] memory quantities = new uint16[](4);\n\n        cards[0] = card0;\n        descriptions[0] = \"\";\n        quantities[0] = 1;\n\n        cards[1] = card1;\n        descriptions[1] = \"\";\n        quantities[1] = 1;\n\n        cards[2] = card2;\n        descriptions[2] = \"\";\n        quantities[2] = 1;\n\n        cards[3] = card3;\n        descriptions[3] = \"\";\n        quantities[3] = 1;\n\n        // cards[4] = card4;\n        // descriptions[4] = \"\";\n        // quantities[4] = 1;\n\n        addCards(cards, descriptions, quantities);\n    }\n}\n",
  "sourcePath": "/Users/maxmeier/Developer/Lucky Machines/hexploration/contracts/decks/LandDeck.sol",
  "compiler": {
    "name": "solc",
    "version": "0.8.11+commit.d7f03943.Emscripten.clang"
  },
  "schemaVersion": "3.4.4",
  "updatedAt": "2022-05-25T17:09:14.996Z",
  "devdoc": {
    "kind": "dev",
    "methods": {
      "getRoleAdmin(bytes32)": {
        "details": "Returns the admin role that controls `role`. See {grantRole} and {revokeRole}. To change a role's admin, use {_setRoleAdmin}."
      },
      "getRoleMember(bytes32,uint256)": {
        "details": "Returns one of the accounts that have `role`. `index` must be a value between 0 and {getRoleMemberCount}, non-inclusive. Role bearers are not sorted in any particular way, and their ordering may change at any point. WARNING: When using {getRoleMember} and {getRoleMemberCount}, make sure you perform all queries on the same block. See the following https://forum.openzeppelin.com/t/iterating-over-elements-on-enumerableset-in-openzeppelin-contracts/2296[forum post] for more information."
      },
      "getRoleMemberCount(bytes32)": {
        "details": "Returns the number of accounts that have `role`. Can be used together with {getRoleMember} to enumerate all bearers of a role."
      },
      "grantRole(bytes32,address)": {
        "details": "Grants `role` to `account`. If `account` had not been already granted `role`, emits a {RoleGranted} event. Requirements: - the caller must have ``role``'s admin role."
      },
      "hasRole(bytes32,address)": {
        "details": "Returns `true` if `account` has been granted `role`."
      },
      "renounceRole(bytes32,address)": {
        "details": "Revokes `role` from the calling account. Roles are often managed via {grantRole} and {revokeRole}: this function's purpose is to provide a mechanism for accounts to lose their privileges if they are compromised (such as when a trusted device is misplaced). If the calling account had been revoked `role`, emits a {RoleRevoked} event. Requirements: - the caller must be `account`."
      },
      "revokeRole(bytes32,address)": {
        "details": "Revokes `role` from `account`. If `account` had been granted `role`, emits a {RoleRevoked} event. Requirements: - the caller must have ``role``'s admin role."
      },
      "supportsInterface(bytes4)": {
        "details": "See {IERC165-supportsInterface}."
      }
    },
    "version": 1
  },
  "userdoc": {
    "kind": "user",
    "methods": {},
    "version": 1
  }
}