{
  "contractName": "PlayZone",
  "abi": [
    {
      "inputs": [
        {
          "internalType": "address",
          "name": "_rulesetAddress",
          "type": "address"
        },
        {
          "internalType": "address",
          "name": "_gameRegistryAddress",
          "type": "address"
        },
        {
          "internalType": "address",
          "name": "adminAddress",
          "type": "address"
        },
        {
          "internalType": "address",
          "name": "factoryAddress",
          "type": "address"
        }
      ],
      "stateMutability": "nonpayable",
      "type": "constructor"
    },
    {
      "anonymous": false,
      "inputs": [
        {
          "indexed": true,
          "internalType": "bytes32",
          "name": "role",
          "type": "bytes32"
        },
        {
          "indexed": true,
          "internalType": "bytes32",
          "name": "previousAdminRole",
          "type": "bytes32"
        },
        {
          "indexed": true,
          "internalType": "bytes32",
          "name": "newAdminRole",
          "type": "bytes32"
        }
      ],
      "name": "RoleAdminChanged",
      "type": "event"
    },
    {
      "anonymous": false,
      "inputs": [
        {
          "indexed": true,
          "internalType": "bytes32",
          "name": "role",
          "type": "bytes32"
        },
        {
          "indexed": true,
          "internalType": "address",
          "name": "account",
          "type": "address"
        },
        {
          "indexed": true,
          "internalType": "address",
          "name": "sender",
          "type": "address"
        }
      ],
      "name": "RoleGranted",
      "type": "event"
    },
    {
      "anonymous": false,
      "inputs": [
        {
          "indexed": true,
          "internalType": "bytes32",
          "name": "role",
          "type": "bytes32"
        },
        {
          "indexed": true,
          "internalType": "address",
          "name": "account",
          "type": "address"
        },
        {
          "indexed": true,
          "internalType": "address",
          "name": "sender",
          "type": "address"
        }
      ],
      "name": "RoleRevoked",
      "type": "event"
    },
    {
      "inputs": [],
      "name": "CONTROLLER_ROLE",
      "outputs": [
        {
          "internalType": "bytes32",
          "name": "",
          "type": "bytes32"
        }
      ],
      "stateMutability": "view",
      "type": "function"
    },
    {
      "inputs": [],
      "name": "DEFAULT_ADMIN_ROLE",
      "outputs": [
        {
          "internalType": "bytes32",
          "name": "",
          "type": "bytes32"
        }
      ],
      "stateMutability": "view",
      "type": "function"
    },
    {
      "inputs": [],
      "name": "FACTORY_ROLE",
      "outputs": [
        {
          "internalType": "bytes32",
          "name": "",
          "type": "bytes32"
        }
      ],
      "stateMutability": "view",
      "type": "function"
    },
    {
      "inputs": [],
      "name": "GAME_BOARD_ROLE",
      "outputs": [
        {
          "internalType": "bytes32",
          "name": "",
          "type": "bytes32"
        }
      ],
      "stateMutability": "view",
      "type": "function"
    },
    {
      "inputs": [
        {
          "internalType": "uint256",
          "name": "",
          "type": "uint256"
        },
        {
          "internalType": "string",
          "name": "",
          "type": "string"
        }
      ],
      "name": "entryCount",
      "outputs": [
        {
          "internalType": "uint256",
          "name": "",
          "type": "uint256"
        }
      ],
      "stateMutability": "view",
      "type": "function"
    },
    {
      "inputs": [
        {
          "internalType": "uint256",
          "name": "",
          "type": "uint256"
        },
        {
          "internalType": "string",
          "name": "",
          "type": "string"
        }
      ],
      "name": "exitCount",
      "outputs": [
        {
          "internalType": "uint256",
          "name": "",
          "type": "uint256"
        }
      ],
      "stateMutability": "view",
      "type": "function"
    },
    {
      "inputs": [],
      "name": "gameRegistryAddress",
      "outputs": [
        {
          "internalType": "address",
          "name": "",
          "type": "address"
        }
      ],
      "stateMutability": "view",
      "type": "function"
    },
    {
      "inputs": [
        {
          "internalType": "bytes32",
          "name": "role",
          "type": "bytes32"
        }
      ],
      "name": "getRoleAdmin",
      "outputs": [
        {
          "internalType": "bytes32",
          "name": "",
          "type": "bytes32"
        }
      ],
      "stateMutability": "view",
      "type": "function"
    },
    {
      "inputs": [
        {
          "internalType": "bytes32",
          "name": "role",
          "type": "bytes32"
        },
        {
          "internalType": "uint256",
          "name": "index",
          "type": "uint256"
        }
      ],
      "name": "getRoleMember",
      "outputs": [
        {
          "internalType": "address",
          "name": "",
          "type": "address"
        }
      ],
      "stateMutability": "view",
      "type": "function"
    },
    {
      "inputs": [
        {
          "internalType": "bytes32",
          "name": "role",
          "type": "bytes32"
        }
      ],
      "name": "getRoleMemberCount",
      "outputs": [
        {
          "internalType": "uint256",
          "name": "",
          "type": "uint256"
        }
      ],
      "stateMutability": "view",
      "type": "function"
    },
    {
      "inputs": [
        {
          "internalType": "bytes32",
          "name": "role",
          "type": "bytes32"
        },
        {
          "internalType": "address",
          "name": "account",
          "type": "address"
        }
      ],
      "name": "grantRole",
      "outputs": [],
      "stateMutability": "nonpayable",
      "type": "function"
    },
    {
      "inputs": [
        {
          "internalType": "bytes32",
          "name": "role",
          "type": "bytes32"
        },
        {
          "internalType": "address",
          "name": "account",
          "type": "address"
        }
      ],
      "name": "hasRole",
      "outputs": [
        {
          "internalType": "bool",
          "name": "",
          "type": "bool"
        }
      ],
      "stateMutability": "view",
      "type": "function"
    },
    {
      "inputs": [
        {
          "internalType": "uint256",
          "name": "",
          "type": "uint256"
        },
        {
          "internalType": "string",
          "name": "",
          "type": "string"
        }
      ],
      "name": "playerCount",
      "outputs": [
        {
          "internalType": "uint256",
          "name": "",
          "type": "uint256"
        }
      ],
      "stateMutability": "view",
      "type": "function"
    },
    {
      "inputs": [
        {
          "internalType": "bytes32",
          "name": "role",
          "type": "bytes32"
        },
        {
          "internalType": "address",
          "name": "account",
          "type": "address"
        }
      ],
      "name": "renounceRole",
      "outputs": [],
      "stateMutability": "nonpayable",
      "type": "function"
    },
    {
      "inputs": [
        {
          "internalType": "bytes32",
          "name": "role",
          "type": "bytes32"
        },
        {
          "internalType": "address",
          "name": "account",
          "type": "address"
        }
      ],
      "name": "revokeRole",
      "outputs": [],
      "stateMutability": "nonpayable",
      "type": "function"
    },
    {
      "inputs": [
        {
          "internalType": "uint256",
          "name": "",
          "type": "uint256"
        },
        {
          "internalType": "string",
          "name": "",
          "type": "string"
        }
      ],
      "name": "ruleset",
      "outputs": [
        {
          "internalType": "uint256",
          "name": "",
          "type": "uint256"
        }
      ],
      "stateMutability": "view",
      "type": "function"
    },
    {
      "inputs": [],
      "name": "rulesetAddress",
      "outputs": [
        {
          "internalType": "address",
          "name": "",
          "type": "address"
        }
      ],
      "stateMutability": "view",
      "type": "function"
    },
    {
      "inputs": [],
      "name": "rulesetVersion",
      "outputs": [
        {
          "internalType": "uint256",
          "name": "",
          "type": "uint256"
        }
      ],
      "stateMutability": "view",
      "type": "function"
    },
    {
      "inputs": [
        {
          "internalType": "bytes4",
          "name": "interfaceId",
          "type": "bytes4"
        }
      ],
      "name": "supportsInterface",
      "outputs": [
        {
          "internalType": "bool",
          "name": "",
          "type": "bool"
        }
      ],
      "stateMutability": "view",
      "type": "function"
    },
    {
      "inputs": [
        {
          "internalType": "address",
          "name": "gameBoardAddress",
          "type": "address"
        }
      ],
      "name": "addGameBoard",
      "outputs": [],
      "stateMutability": "nonpayable",
      "type": "function"
    },
    {
      "inputs": [
        {
          "internalType": "address",
          "name": "gameBoardAddress",
          "type": "address"
        }
      ],
      "name": "removeGameBoard",
      "outputs": [],
      "stateMutability": "nonpayable",
      "type": "function"
    },
    {
      "inputs": [
        {
          "internalType": "address",
          "name": "controllerAddress",
          "type": "address"
        }
      ],
      "name": "addController",
      "outputs": [],
      "stateMutability": "nonpayable",
      "type": "function"
    },
    {
      "inputs": [
        {
          "internalType": "address",
          "name": "controllerAddress",
          "type": "address"
        }
      ],
      "name": "removeController",
      "outputs": [],
      "stateMutability": "nonpayable",
      "type": "function"
    },
    {
      "inputs": [
        {
          "internalType": "uint256",
          "name": "rulesetID",
          "type": "uint256"
        },
        {
          "internalType": "uint256",
          "name": "gameID",
          "type": "uint256"
        },
        {
          "internalType": "string",
          "name": "zoneAlias",
          "type": "string"
        }
      ],
      "name": "setRules",
      "outputs": [],
      "stateMutability": "nonpayable",
      "type": "function"
    },
    {
      "inputs": [
        {
          "internalType": "uint256",
          "name": "exitPathIndex",
          "type": "uint256"
        },
        {
          "internalType": "uint256",
          "name": "gameID",
          "type": "uint256"
        },
        {
          "internalType": "address",
          "name": "gameBoardAddress",
          "type": "address"
        }
      ],
      "name": "attemptExit",
      "outputs": [],
      "stateMutability": "nonpayable",
      "type": "function"
    },
    {
      "inputs": [
        {
          "internalType": "address",
          "name": "playerAddress",
          "type": "address"
        },
        {
          "internalType": "uint256",
          "name": "exitPathIndex",
          "type": "uint256"
        },
        {
          "internalType": "uint256",
          "name": "gameID",
          "type": "uint256"
        },
        {
          "internalType": "string",
          "name": "zoneAlias",
          "type": "string"
        },
        {
          "internalType": "address",
          "name": "gameBoardAddress",
          "type": "address"
        }
      ],
      "name": "attemptExitFor",
      "outputs": [],
      "stateMutability": "nonpayable",
      "type": "function"
    },
    {
      "inputs": [
        {
          "internalType": "string[]",
          "name": "stringParams",
          "type": "string[]"
        },
        {
          "internalType": "address[]",
          "name": "addressParams",
          "type": "address[]"
        },
        {
          "internalType": "uint256[]",
          "name": "uintParams",
          "type": "uint256[]"
        }
      ],
      "name": "performCustomAction",
      "outputs": [],
      "stateMutability": "nonpayable",
      "type": "function"
    },
    {
      "inputs": [],
      "name": "playersInZone",
      "outputs": [
        {
          "internalType": "uint256[]",
          "name": "",
          "type": "uint256[]"
        }
      ],
      "stateMutability": "view",
      "type": "function"
    },
    {
      "inputs": [
        {
          "internalType": "address",
          "name": "playerAddress",
          "type": "address"
        },
        {
          "internalType": "uint256",
          "name": "gameID",
          "type": "uint256"
        },
        {
          "internalType": "string",
          "name": "zoneAlias",
          "type": "string"
        }
      ],
      "name": "playerCanEnter",
      "outputs": [
        {
          "internalType": "bool",
          "name": "canEnter",
          "type": "bool"
        }
      ],
      "stateMutability": "view",
      "type": "function"
    },
    {
      "inputs": [
        {
          "internalType": "address",
          "name": "playerAddress",
          "type": "address"
        },
        {
          "internalType": "uint256",
          "name": "gameID",
          "type": "uint256"
        },
        {
          "internalType": "string",
          "name": "zoneAlias",
          "type": "string"
        }
      ],
      "name": "playerCanExit",
      "outputs": [
        {
          "internalType": "bool",
          "name": "canExit",
          "type": "bool"
        }
      ],
      "stateMutability": "view",
      "type": "function"
    },
    {
      "inputs": [
        {
          "internalType": "address",
          "name": "playerAddress",
          "type": "address"
        },
        {
          "internalType": "uint256",
          "name": "gameID",
          "type": "uint256"
        },
        {
          "internalType": "string",
          "name": "zoneAlias",
          "type": "string"
        }
      ],
      "name": "enterPlayer",
      "outputs": [],
      "stateMutability": "nonpayable",
      "type": "function"
    },
    {
      "inputs": [
        {
          "internalType": "address",
          "name": "playerAddress",
          "type": "address"
        },
        {
          "internalType": "uint256",
          "name": "gameID",
          "type": "uint256"
        },
        {
          "internalType": "string",
          "name": "zoneAlias",
          "type": "string"
        }
      ],
      "name": "exitPlayer",
      "outputs": [],
      "stateMutability": "nonpayable",
      "type": "function"
    },
    {
      "inputs": [
        {
          "internalType": "address",
          "name": "playerAddress",
          "type": "address"
        },
        {
          "internalType": "uint256",
          "name": "gameID",
          "type": "uint256"
        },
        {
          "internalType": "string",
          "name": "zoneAlias",
          "type": "string"
        }
      ],
      "name": "removePlayer",
      "outputs": [],
      "stateMutability": "nonpayable",
      "type": "function"
    }
  ],
  "bytecode": "0x60806040523480156200001157600080fd5b506040516200266f3803806200266f83398101604081905262000034916200032e565b60028054600160a060020a03808716600160a060020a03199283168117909355600380549187169183169190911790556004805490911682178155604080517f54fd4d5000000000000000000000000000000000000000000000000000000000815290516354fd4d50928281019260209291908290030181865afa158015620000c1573d6000803e3d6000fd5b505050506040513d601f19601f82011682018060405250810190620000e791906200038b565b600555620001006000836401000000006200014f810204565b600160a060020a038116156200014557620001457fdfbefbf47cfe66b701d8cfdbce1de81c821590819cb07e71cb01b6602fb0ee27826401000000006200014f810204565b50505050620003a5565b62000164828264010000000062000168810204565b5050565b620001828282640100000000620010a4620001af82021704565b6000828152600160205260409020620001aa9082640100000000620011286200024b82021704565b505050565b620001c4828264010000000062000274810204565b6200016457600082815260208181526040808320600160a060020a03851684529091529020805460ff19166001179055620002076401000000006200029d810204565b600160a060020a031681600160a060020a0316837f2f8788117e7eff1d82e926ec794901d17c78024a50270940304540a733656f0d60405160405180910390a45050565b60006200026b83600160a060020a038416640100000000620002a1810204565b90505b92915050565b600091825260208281526040808420600160a060020a0393909316845291905290205460ff1690565b3390565b6000620002b88383640100000000620002f9810204565b620002f0575081546001818101845560008481526020808220909301849055845484825282860190935260409020919091556200026e565b5060006200026e565b60009081526001919091016020526040902054151590565b8051600160a060020a03811681146200032957600080fd5b919050565b600080600080608085870312156200034557600080fd5b620003508562000311565b9350620003606020860162000311565b9250620003706040860162000311565b9150620003806060860162000311565b905092959194509250565b6000602082840312156200039e57600080fd5b5051919050565b6122ba80620003b56000396000f3fe608060405234801561001057600080fd5b5060043610610218576000357c01000000000000000000000000000000000000000000000000000000009004806398bd757211610137578063c8fae5e8116100ca578063e15b3ad011610099578063e15b3ad01461052b578063e70542a81461053e578063f14f4bbe14610547578063f6a74ed71461055a578063f91649f01461056d57600080fd5b8063c8fae5e8146104df578063ca15c873146104f2578063d547741f14610505578063de4526411461051857600080fd5b8063abea5a6e11610106578063abea5a6e14610445578063ac407d0214610481578063bc590f2a146104bd578063c57893c2146104d057600080fd5b806398bd7572146103db578063a217fddf146103ee578063a331e608146103f6578063a7fc7a071461043257600080fd5b806331b8a854116101af5780636516dd451161017e5780636516dd451461038f5780637caf1280146103a25780639010d07c146103b557806391d14854146103c857600080fd5b806331b8a8541461034157806336568abe14610354578063474dfcd7146103675780634a58dc111461037a57600080fd5b8063248a9ca3116101eb578063248a9ca3146102cb57806328d7e11a146102ee5780632e08793d146103035780632f2ff15d1461032e57600080fd5b806301ffc9a71461021d57806304a0fb1714610245578063092c5b3b1461026857806310e0d51e1461028f575b600080fd5b61023061022b366004611a63565b610580565b60405190151581526020015b60405180910390f35b61025a60008051602061224583398151915281565b60405190815260200161023c565b61025a7f7b765e0e932d348852a6f810bfa1ab891e259123f02db8cdcde614c57022335781565b61025a61029d366004611b47565b6008602090815260009283526040909220815180830184018051928152908401929093019190912091525481565b61025a6102d9366004611b8e565b60009081526020819052604090206001015490565b6103016102fc366004611bbc565b6105c4565b005b60035461031690600160a060020a031681565b604051600160a060020a03909116815260200161023c565b61030161033c366004611c15565b61064c565b61030161034f366004611c45565b610671565b610301610362366004611c15565b6106f0565b610301610375366004611d6c565b505050565b61025a60008051602061226583398151915281565b61030161039d366004611e57565b61077f565b6102306103b0366004611bbc565b610810565b6103166103c3366004611e90565b6109f6565b6102306103d6366004611c15565b610a0e565b6103016103e9366004611bbc565b610a37565b61025a600081565b61025a610404366004611b47565b6007602090815260009283526040909220815180830184018051928152908401929093019190912091525481565b610301610440366004611eb2565b610ab4565b61025a610453366004611b47565b6006602090815260009283526040909220815180830184018051928152908401929093019190912091525481565b61025a61048f366004611b47565b6009602090815260009283526040909220815180830184018051928152908401929093019190912091525481565b60045461031690600160a060020a031681565b606060405161023c9190611ecf565b6103016104ed366004611eb2565b610b29565b61025a610500366004611b8e565b610b4c565b610301610513366004611c15565b610b63565b610301610526366004611eb2565b610b88565b610230610539366004611bbc565b610be8565b61025a60055481565b610301610555366004611f13565b610f01565b610301610568366004611eb2565b61104c565b61030161057b366004611bbc565b611081565b6000600160e060020a031982167f5a05180f0000000000000000000000000000000000000000000000000000000014806105be57506105be8261113d565b92915050565b6000805160206122658339815191526105dc816111a4565b6105e7848484610810565b61063b5760405160e560020a62461bcd02815260206004820152601760248201527f706c617965722063616e6e6f742065786974207a6f6e6500000000000000000060448201526064015b60405180910390fd5b6106468484846111ae565b50505050565b600082815260208190526040902060010154610667816111a4565b61037583836112e4565b61068960008051602061224583398151915233610a0e565b8061069a575061069a600033610a0e565b6106b95760405160e560020a62461bcd02815260040161063290611f8b565b8260066000848152602001908152602001600020826040516106db9190612014565b90815260405190819003602001902055505050565b600160a060020a03811633146107715760405160e560020a62461bcd02815260206004820152602f60248201527f416363657373436f6e74726f6c3a2063616e206f6e6c792072656e6f756e636560448201527f20726f6c657320666f722073656c6600000000000000000000000000000000006064820152608401610632565b61077b8282611306565b5050565b6040517f9eb356cb0000000000000000000000000000000000000000000000000000000081526004810183905233602482015260448101849052600160a060020a03821690639eb356cb906064016020604051808303816000875af11580156107ec573d6000803e3d6000fd5b505050506040513d601f19601f820116820180604052508101906106469190612030565b6000828152600a602052604090819020905160019190610831908490612014565b9081526040805160209281900383019020600160a060020a0387166000908152925290205460ff16610865575060006109ef565b6000838152600660205260408082209051610881908590612014565b9081526020016040518091039020549050806000146109ed57600280546040517f8323406d000000000000000000000000000000000000000000000000000000008152600481018490526024810192909252600160a060020a031690638323406d90604401602060405180830381865afa158015610903573d6000803e3d6000fd5b505050506040513d601f19601f820116820180604052508101906109279190612030565b80156109e357506002546040517f548dbc7a00000000000000000000000000000000000000000000000000000000815260048101839052600160a060020a039091169063548dbc7a90602401602060405180830381865afa158015610990573d6000803e3d6000fd5b505050506040513d601f19601f820116820180604052508101906109b49190612052565b6000858152600960205260409081902090516109d1908690612014565b90815260200160405180910390205410155b156109ed57600091505b505b9392505050565b60008281526001602052604081206109ef9083611328565b600091825260208281526040808420600160a060020a0393909316845291905290205460ff1690565b600080516020612265833981519152610a4f816111a4565b610a5a848484610be8565b610aa95760405160e560020a62461bcd02815260206004820152601860248201527f706c617965722063616e6e6f7420656e746572207a6f6e6500000000000000006044820152606401610632565b610646848484611334565b610acc60008051602061224583398151915233610a0e565b80610add5750610add600033610a0e565b610afc5760405160e560020a62461bcd02815260040161063290611f8b565b610b267f7b765e0e932d348852a6f810bfa1ab891e259123f02db8cdcde614c5702233578261150f565b50565b6000610b34816111a4565b61077b60008051602061226583398151915283611306565b60008181526001602052604081206105be90611519565b600082815260208190526040902060010154610b7e816111a4565b6103758383611306565b610ba060008051602061224583398151915233610a0e565b80610bb15750610bb1600033610a0e565b610bd05760405160e560020a62461bcd02815260040161063290611f8b565b610b266000805160206122658339815191528261150f565b6000828152600a602052604090819020905160019190610c09908490612014565b9081526040805160209281900383019020600160a060020a0387166000908152925290205460ff1615610c3e575060006109ef565b6000838152600660205260408082209051610c5a908590612014565b9081526020016040518091039020549050806000146109ed576002546040517f8323406d0000000000000000000000000000000000000000000000000000000081526004810183905260006024820152600160a060020a0390911690638323406d90604401602060405180830381865afa158015610cdc573d6000803e3d6000fd5b505050506040513d601f19601f82011682018060405250810190610d009190612030565b8015610dbc57506002546040517fc0eac88600000000000000000000000000000000000000000000000000000000815260048101839052600160a060020a039091169063c0eac88690602401602060405180830381865afa158015610d69573d6000803e3d6000fd5b505050506040513d601f19601f82011682018060405250810190610d8d9190612052565b600085815260086020526040908190209051610daa908690612014565b90815260200160405180910390205410155b15610dca57600091506109ed565b6002546040517f8323406d0000000000000000000000000000000000000000000000000000000081526004810183905260016024820152600160a060020a0390911690638323406d90604401602060405180830381865afa158015610e33573d6000803e3d6000fd5b505050506040513d601f19601f82011682018060405250810190610e579190612030565b80156109e357506002546040517f0b4adfcf00000000000000000000000000000000000000000000000000000000815260048101839052600160a060020a0390911690630b4adfcf90602401602060405180830381865afa158015610ec0573d6000803e3d6000fd5b505050506040513d601f19601f82011682018060405250810190610ee49190612052565b6000858152600760205260409081902090516109d1908690612014565b610f0c858484610810565b610f5b5760405160e560020a62461bcd02815260206004820152601760248201527f706c617965722063616e6e6f742065786974207a6f6e650000000000000000006044820152606401610632565b6040517f9eb356cb00000000000000000000000000000000000000000000000000000000815260048101849052600160a060020a0386811660248301526044820186905260009190831690639eb356cb906064016020604051808303816000875af1158015610fce573d6000803e3d6000fd5b505050506040513d601f19601f82011682018060405250810190610ff29190612030565b9050806110445760405160e560020a62461bcd02815260206004820152601e60248201527f706c6179657220756e61626c6520746f20656e746572206f6e206578697400006044820152606401610632565b505050505050565b6000611057816111a4565b61077b7f7b765e0e932d348852a6f810bfa1ab891e259123f02db8cdcde614c57022335783611306565b600080516020612265833981519152611099816111a4565b610646848484611523565b6110ae8282610a0e565b61077b57600082815260208181526040808320600160a060020a03851684529091529020805460ff191660011790556110e43390565b600160a060020a031681600160a060020a0316837f2f8788117e7eff1d82e926ec794901d17c78024a50270940304540a733656f0d60405160405180910390a45050565b60006109ef83600160a060020a0384166115cc565b6000600160e060020a031982167f7965db0b0000000000000000000000000000000000000000000000000000000014806105be57507f01ffc9a700000000000000000000000000000000000000000000000000000000600160e060020a03198316146105be565b610b26813361161b565b6000828152600a602052604080822090516111ca908490612014565b9081526040805160209281900383018120600160a060020a0388166000908152908452828120805460ff1916951515959095179094558584526008909252822090611216908490612014565b9081526020016040518091039020541161123157600061126d565b600160086000848152602001908152602001600020826040516112549190612014565b90815260200160405180910390205461126d9190612084565b60008381526008602052604090819020905161128a908490612014565b90815260200160405180910390208190555060096000838152602001908152602001600020816040516112bd9190612014565b90815260405190819003602001902080549060006112da8361209b565b9190505550505050565b6112ee82826110a4565b60008281526001602052604090206103759082611128565b6113108282611682565b600082815260016020526040902061037590826116e7565b60006109ef83836116fc565b6001600a6000848152602001908152602001600020826040516113579190612014565b9081526040805160209281900383018120600160a060020a0388166000908152908452828120805460ff1916951515959095179094558584526008909252909120906113a4908390612014565b90815260405190819003602001902080549060006113c18361209b565b90915550506000828152600760205260409081902090516113e3908390612014565b90815260405190819003602001902080549060006114008361209b565b90915550506003546040517f5d24830100000000000000000000000000000000000000000000000000000000815260048101849052600091600160a060020a031690635d24830190602401602060405180830381865afa158015611468573d6000803e3d6000fd5b505050506040513d601f19601f8201168201806040525081019061148c91906120b6565b6040517ffa9f3438000000000000000000000000000000000000000000000000000000008152909150600160a060020a0382169063fa9f3438906114d8908690889087906004016120ff565b600060405180830381600087803b1580156114f257600080fd5b505af1158015611506573d6000803e3d6000fd5b50505050610646565b61077b82826112e4565b60006105be825490565b600082815260086020526040808220905161153f908490612014565b9081526020016040518091039020541161155a576000611596565b6001600860008481526020019081526020016000208260405161157d9190612014565b9081526020016040518091039020546115969190612084565b6000838152600860205260409081902090516115b3908490612014565b9081526040519081900360200190205561037583838383565b6000818152600183016020526040812054611613575081546001818101845560008481526020808220909301849055845484825282860190935260409020919091556105be565b5060006105be565b6116258282610a0e565b61077b5761163d81600160a060020a03166014611726565b611648836020611726565b604051602001611659929190612130565b60408051601f198184030181529082905260e560020a62461bcd028252610632916004016121b1565b61168c8282610a0e565b1561077b57600082815260208181526040808320600160a060020a0385168085529252808320805460ff1916905551339285917ff6391f5c32d9c69d2a47ea670b442974b53935d1edc7fd64eb21e047a839171b9190a45050565b60006109ef83600160a060020a038416611970565b6000826000018281548110611713576117136121c4565b9060005260206000200154905092915050565b606060006117358360026121dd565b6117409060026121fc565b67ffffffffffffffff81111561175857611758611a8d565b6040519080825280601f01601f191660200182016040528015611782576020820181803683370190505b5090507f3000000000000000000000000000000000000000000000000000000000000000816000815181106117b9576117b96121c4565b60200101907effffffffffffffffffffffffffffffffffffffffffffffffffffffffffffff1916908160001a9053507f78000000000000000000000000000000000000000000000000000000000000008160018151811061181c5761181c6121c4565b60200101907effffffffffffffffffffffffffffffffffffffffffffffffffffffffffffff1916908160001a90535060006118588460026121dd565b6118639060016121fc565b90505b600181111561191e577f303132333435363738396162636465660000000000000000000000000000000085600f16601081106118a4576118a46121c4565b1a7f0100000000000000000000000000000000000000000000000000000000000000028282815181106118d9576118d96121c4565b60200101907effffffffffffffffffffffffffffffffffffffffffffffffffffffffffffff1916908160001a90535060109094049361191781612214565b9050611866565b5083156109ef5760405160e560020a62461bcd02815260206004820181905260248201527f537472696e67733a20686578206c656e67746820696e73756666696369656e746044820152606401610632565b60008181526001830160205260408120548015611a59576000611994600183612084565b85549091506000906119a890600190612084565b9050818114611a0d5760008660000182815481106119c8576119c86121c4565b90600052602060002001549050808760000184815481106119eb576119eb6121c4565b6000918252602080832090910192909255918252600188019052604090208390555b8554869080611a1e57611a1e61222b565b6001900381819060005260206000200160009055905585600101600086815260200190815260200160002060009055600193505050506105be565b60009150506105be565b600060208284031215611a7557600080fd5b8135600160e060020a0319811681146109ef57600080fd5b60e060020a634e487b7102600052604160045260246000fd5b604051601f8201601f1916810167ffffffffffffffff81118282101715611acf57611acf611a8d565b604052919050565b600082601f830112611ae857600080fd5b813567ffffffffffffffff811115611b0257611b02611a8d565b611b15601f8201601f1916602001611aa6565b818152846020838601011115611b2a57600080fd5b816020850160208301376000918101602001919091529392505050565b60008060408385031215611b5a57600080fd5b82359150602083013567ffffffffffffffff811115611b7857600080fd5b611b8485828601611ad7565b9150509250929050565b600060208284031215611ba057600080fd5b5035919050565b600160a060020a0381168114610b2657600080fd5b600080600060608486031215611bd157600080fd5b8335611bdc81611ba7565b925060208401359150604084013567ffffffffffffffff811115611bff57600080fd5b611c0b86828701611ad7565b9150509250925092565b60008060408385031215611c2857600080fd5b823591506020830135611c3a81611ba7565b809150509250929050565b600080600060608486031215611c5a57600080fd5b8335925060208401359150604084013567ffffffffffffffff811115611bff57600080fd5b600067ffffffffffffffff821115611c9957611c99611a8d565b5060209081020190565b600082601f830112611cb457600080fd5b81356020611cc9611cc483611c7f565b611aa6565b82815291810284018101918181019086841115611ce557600080fd5b8286015b84811015611d09578035611cfc81611ba7565b8352918301918301611ce9565b509695505050505050565b600082601f830112611d2557600080fd5b81356020611d35611cc483611c7f565b82815291810284018101918181019086841115611d5157600080fd5b8286015b84811015611d095780358352918301918301611d55565b600080600060608486031215611d8157600080fd5b833567ffffffffffffffff80821115611d9957600080fd5b818601915086601f830112611dad57600080fd5b81356020611dbd611cc483611c7f565b8281529181028401810191818101908a841115611dd957600080fd5b8286015b84811015611e1157803586811115611df55760008081fd5b611e038d86838b0101611ad7565b845250918301918301611ddd565b5097505087013592505080821115611e2857600080fd5b611e3487838801611ca3565b93506040860135915080821115611e4a57600080fd5b50611c0b86828701611d14565b600080600060608486031215611e6c57600080fd5b83359250602084013591506040840135611e8581611ba7565b809150509250925092565b60008060408385031215611ea357600080fd5b50508035926020909101359150565b600060208284031215611ec457600080fd5b81356109ef81611ba7565b6020808252825182820181905260009190848201906040850190845b81811015611f0757835183529284019291840191600101611eeb565b50909695505050505050565b600080600080600060a08688031215611f2b57600080fd5b8535611f3681611ba7565b94506020860135935060408601359250606086013567ffffffffffffffff811115611f6057600080fd5b611f6c88828901611ad7565b9250506080860135611f7d81611ba7565b809150509295509295909350565b60208082526024908201527f47616d65204d6173746572206f7220466163746f727920726f6c65207265717560408201527f6972656400000000000000000000000000000000000000000000000000000000606082015260800190565b60005b83811015612003578181015183820152602001611feb565b838111156106465750506000910152565b60008251612026818460208701611fe8565b9190910192915050565b60006020828403121561204257600080fd5b815180151581146109ef57600080fd5b60006020828403121561206457600080fd5b5051919050565b60e060020a634e487b7102600052601160045260246000fd5b6000828210156120965761209661206b565b500390565b60006000198214156120af576120af61206b565b5060010190565b6000602082840312156120c857600080fd5b81516109ef81611ba7565b600081518084526120eb816020860160208601611fe8565b601f01601f19169290920160200192915050565b838152600160a060020a038316602082015260606040820152600061212760608301846120d3565b95945050505050565b7f416363657373436f6e74726f6c3a206163636f756e7420000000000000000000815260008351612168816017850160208801611fe8565b7f206973206d697373696e6720726f6c652000000000000000000000000000000060179184019182015283516121a5816028840160208801611fe8565b01602801949350505050565b6020815260006109ef60208301846120d3565b60e060020a634e487b7102600052603260045260246000fd5b60008160001904831182151516156121f7576121f761206b565b500290565b6000821982111561220f5761220f61206b565b500190565b6000816122235761222361206b565b506000190190565b60e060020a634e487b7102600052603160045260246000fdfedfbefbf47cfe66b701d8cfdbce1de81c821590819cb07e71cb01b6602fb0ee27a535732178231314b57938e75e1be42a0d0fac039993e1fa0eb22dcb94bce107a2646970667358221220eb2ccfac57e7d6e0e8672f5dc0c9160a64ad872ab82728aa20e2e86d30da861864736f6c634300080b0033",
  "immutableReferences": {},
  "source": "// SPDX-License-Identifier: GPL-3.0\n\npragma solidity >=0.7.0 <0.9.0;\n\nimport \"@openzeppelin/contracts/access/AccessControlEnumerable.sol\";\nimport \"./Ruleset.sol\";\nimport \"./GameBoard.sol\";\nimport \"./GameRegistry.sol\";\n\ncontract PlayZone is AccessControlEnumerable {\n    bytes32 public constant GAME_BOARD_ROLE = keccak256(\"GAME_BOARD_ROLE\");\n    bytes32 public constant FACTORY_ROLE = keccak256(\"FACTORY_ROLE\");\n    bytes32 public constant CONTROLLER_ROLE = keccak256(\"CONTROLLER_ROLE\");\n\n    Ruleset internal RULESET;\n    address public gameRegistryAddress;\n    address public rulesetAddress;\n    uint256 public rulesetVersion;\n\n    // Mappings from GameID => alias (set in gameboard)\n    mapping(uint256 => mapping(string => uint256)) public ruleset; // returns ruleset ID\n    mapping(uint256 => mapping(string => uint256)) public entryCount;\n    mapping(uint256 => mapping(string => uint256)) public playerCount;\n    mapping(uint256 => mapping(string => uint256)) public exitCount;\n    mapping(uint256 => mapping(string => mapping(address => bool)))\n        internal playerInZone;\n\n    // right now players can interact with zone,\n    // zone cannot perform action on all players\n    // as no list of players is stored here\n    // May be able to query game board for list of players if necessary\n\n    // integrated custom game contract may have this capability, but\n    // zone itself can only check if player is allowed to play and\n    // ensure total number of players is correct\n\n    // game board may attempt to exit player\n    // zone logic will determine if this is allowed\n\n    modifier onlyFactoryAdmin() {\n        require(\n            hasRole(FACTORY_ROLE, _msgSender()) ||\n                hasRole(DEFAULT_ADMIN_ROLE, _msgSender()),\n            \"Game Master or Factory role required\"\n        );\n        _;\n    }\n\n    constructor(\n        address _rulesetAddress,\n        address _gameRegistryAddress,\n        address adminAddress,\n        address factoryAddress\n    ) {\n        RULESET = Ruleset(_rulesetAddress);\n        gameRegistryAddress = _gameRegistryAddress;\n        rulesetAddress = _rulesetAddress;\n        rulesetVersion = RULESET.version();\n        _setupRole(DEFAULT_ADMIN_ROLE, adminAddress);\n        if (factoryAddress != address(0)) {\n            _setupRole(FACTORY_ROLE, factoryAddress);\n        }\n    }\n\n    function addGameBoard(address gameBoardAddress) public onlyFactoryAdmin {\n        _setupRole(GAME_BOARD_ROLE, gameBoardAddress);\n    }\n\n    function removeGameBoard(address gameBoardAddress)\n        public\n        onlyRole(DEFAULT_ADMIN_ROLE)\n    {\n        _revokeRole(GAME_BOARD_ROLE, gameBoardAddress);\n    }\n\n    function addController(address controllerAddress) public onlyFactoryAdmin {\n        _setupRole(CONTROLLER_ROLE, controllerAddress);\n    }\n\n    function removeController(address controllerAddress)\n        public\n        onlyRole(DEFAULT_ADMIN_ROLE)\n    {\n        _revokeRole(CONTROLLER_ROLE, controllerAddress);\n    }\n\n    function setRules(\n        uint256 rulesetID,\n        uint256 gameID,\n        string memory zoneAlias\n    ) public onlyFactoryAdmin {\n        ruleset[gameID][zoneAlias] = rulesetID;\n    }\n\n    // Player functions\n    function attemptExit(\n        uint256 exitPathIndex,\n        uint256 gameID,\n        address gameBoardAddress\n    ) public {\n        GameBoard(gameBoardAddress).exitToPath(\n            gameID,\n            msg.sender,\n            exitPathIndex\n        );\n    }\n\n    function attemptExitFor(\n        address playerAddress,\n        uint256 exitPathIndex,\n        uint256 gameID,\n        string memory zoneAlias,\n        address gameBoardAddress\n    ) public {\n        require(\n            playerCanExit(playerAddress, gameID, zoneAlias),\n            \"player cannot exit zone\"\n        );\n        bool exitSuccess = GameBoard(gameBoardAddress).exitToPath(\n            gameID,\n            playerAddress,\n            exitPathIndex\n        );\n        require(exitSuccess, \"player unable to enter on exit\");\n    }\n\n    // Validation etc is done on the custom contract in _customAction()\n    function performCustomAction(\n        string[] memory stringParams,\n        address[] memory addressParams,\n        uint256[] memory uintParams\n    ) public {\n        _customAction(stringParams, addressParams, uintParams);\n    }\n\n    function playersInZone() public view returns (uint256[] memory) {\n        // cycle through registry, return list of players in zone\n    }\n\n    // TODO: figure this out...\n    // function resetZone() public onlyRole(???) {}\n\n    function playerInPlayableState(address playerAddress, uint256 gameID)\n        internal\n        view\n        returns (bool playable)\n    {\n        address gameBoard = GameRegistry(gameRegistryAddress).gameBoard(gameID);\n        if (GameBoard(gameBoard).gameState(gameID) > 1) {\n            playable = true;\n        } else {\n            playable = false;\n        }\n\n        // TODO: check for transit group action\n    }\n\n    function playerCanEnter(\n        address playerAddress,\n        uint256 gameID,\n        string memory zoneAlias\n    ) public view virtual returns (bool canEnter) {\n        canEnter = true;\n        //canEnter = playerInPlayableState(playerAddress, gameID);\n        if (playerInZone[gameID][zoneAlias][playerAddress]) {\n            // already here, can't enter again\n            canEnter = false;\n        } else {\n            uint256 rulesetID = ruleset[gameID][zoneAlias];\n            if (rulesetID != 0) {\n                // check against rules if set\n                if (\n                    RULESET.rules(rulesetID, 0) &&\n                    playerCount[gameID][zoneAlias] >=\n                    RULESET.maxCapacity(rulesetID)\n                ) {\n                    canEnter = false;\n                } else if (\n                    RULESET.rules(rulesetID, 1) &&\n                    entryCount[gameID][zoneAlias] >=\n                    RULESET.maxEntrySize(rulesetID)\n                ) {\n                    canEnter = false;\n                }\n            }\n        }\n        //TODO: make sure payout on exit / entry can be paid before allowing entry\n    }\n\n    function playerCanExit(\n        address playerAddress,\n        uint256 gameID,\n        string memory zoneAlias\n    ) public view virtual returns (bool canExit) {\n        canExit = true;\n        //canExit = playerInPlayableState(playerAddress, gameID);\n\n        if (!playerInZone[gameID][zoneAlias][playerAddress]) {\n            // not here, can't exit if already gone\n            canExit = false;\n        } else {\n            uint256 rulesetID = ruleset[gameID][zoneAlias];\n            if (rulesetID != 0) {\n                if (\n                    RULESET.rules(rulesetID, 2) &&\n                    exitCount[gameID][zoneAlias] >=\n                    RULESET.maxExitSize(rulesetID)\n                ) {\n                    canExit = false;\n                }\n            }\n        }\n    }\n\n    function enterPlayer(\n        address playerAddress,\n        uint256 gameID,\n        string memory zoneAlias\n    ) external onlyRole(GAME_BOARD_ROLE) {\n        require(\n            playerCanEnter(playerAddress, gameID, zoneAlias),\n            \"player cannot enter zone\"\n        );\n        _enterPlayer(playerAddress, gameID, zoneAlias);\n    }\n\n    function exitPlayer(\n        address playerAddress,\n        uint256 gameID,\n        string memory zoneAlias\n    ) external onlyRole(GAME_BOARD_ROLE) {\n        require(\n            playerCanExit(playerAddress, gameID, zoneAlias),\n            \"player cannot exit zone\"\n        );\n        _exitPlayer(playerAddress, gameID, zoneAlias);\n    }\n\n    // used when a player is entirely removed from game, e.g. runs out of credits\n    function removePlayer(\n        address playerAddress,\n        uint256 gameID,\n        string memory zoneAlias\n    ) external onlyRole(GAME_BOARD_ROLE) {\n        _removePlayer(playerAddress, gameID, zoneAlias);\n    }\n\n    function _enterPlayer(\n        address playerAddress,\n        uint256 gameID,\n        string memory zoneAlias\n    ) internal {\n        _playerWillEnter(playerAddress, gameID, zoneAlias);\n        //TODO:\n        // payout on entry if set and balance allows\n        playerInZone[gameID][zoneAlias][playerAddress] = true;\n        playerCount[gameID][zoneAlias]++;\n        entryCount[gameID][zoneAlias]++;\n        // tell game board to update player position\n        address gbAddress = GameRegistry(gameRegistryAddress).gameBoard(gameID);\n        GameBoard(gbAddress).playerEnteredZone(\n            gameID,\n            playerAddress,\n            zoneAlias\n        );\n        _playerDidEnter(playerAddress, gameID, zoneAlias);\n    }\n\n    function _exitPlayer(\n        address playerAddress,\n        uint256 gameID,\n        string memory zoneAlias\n    ) internal {\n        _playerWillExit(playerAddress, gameID, zoneAlias);\n        playerInZone[gameID][zoneAlias][playerAddress] = false;\n        playerCount[gameID][zoneAlias] = playerCount[gameID][zoneAlias] > 0\n            ? playerCount[gameID][zoneAlias] - 1\n            : 0;\n        exitCount[gameID][zoneAlias]++;\n        //TODO:\n        // payout on exit if set and balance allows\n        _playerDidExit(playerAddress, gameID, zoneAlias);\n    }\n\n    function _removePlayer(\n        address playerAddress,\n        uint256 gameID,\n        string memory zoneAlias\n    ) internal {\n        // TODO: remove from current location on game board\n        _playerWillBeRemoved(playerAddress, gameID, zoneAlias);\n        playerCount[gameID][zoneAlias] = playerCount[gameID][zoneAlias] > 0\n            ? playerCount[gameID][zoneAlias] - 1\n            : 0;\n        _playerWasRemoved(playerAddress, gameID, zoneAlias);\n    }\n\n    // Override for custom game\n    function _playerWillEnter(\n        address playerAddress,\n        uint256 gameID,\n        string memory zoneAlias\n    ) internal virtual {}\n\n    function _playerDidEnter(\n        address playerAddress,\n        uint256 gameID,\n        string memory zoneAlias\n    ) internal virtual {}\n\n    function _playerWillExit(\n        address playerAddress,\n        uint256 gameID,\n        string memory zoneAlias\n    ) internal virtual {}\n\n    function _playerDidExit(\n        address playerAddress,\n        uint256 gameID,\n        string memory zoneAlias\n    ) internal virtual {}\n\n    function _playersWillEnter(\n        uint256 gameID,\n        uint256 groupID,\n        string memory zoneAlias\n    ) internal virtual {\n        // called when batch of players are being entered from lobby or previous zone\n        // individual player entries are called from _playerDidEnter\n    }\n\n    function _allPlayersEntered(\n        uint256 gameID,\n        uint256 groupID,\n        string memory zoneAlias\n    ) internal virtual {\n        // called after player group has all been entered\n    }\n\n    function _playerWillBeRemoved(\n        address playerAddress,\n        uint256 gameID,\n        string memory zoneAlias\n    ) internal virtual {}\n\n    function _playerWasRemoved(\n        address playerAddress,\n        uint256 gameID,\n        string memory zoneAlias\n    ) internal virtual {}\n\n    function _customAction(\n        string[] memory stringParams,\n        address[] memory addressParams,\n        uint256[] memory uintParams\n    ) internal virtual {\n        // should definitiely do some checks when implementing this function\n        // make sure the sender is correct and nothing malicious is going on\n    }\n}\n",
  "sourcePath": "@luckymachines/game-core/contracts/src/v0.0/PlayZone.sol",
  "compiler": {
    "name": "solc",
    "version": "0.8.11+commit.d7f03943.Emscripten.clang"
  },
  "schemaVersion": "3.4.4",
  "updatedAt": "2022-05-10T22:43:52.438Z",
  "devdoc": {
    "kind": "dev",
    "methods": {
      "getRoleAdmin(bytes32)": {
        "details": "Returns the admin role that controls `role`. See {grantRole} and {revokeRole}. To change a role's admin, use {_setRoleAdmin}."
      },
      "getRoleMember(bytes32,uint256)": {
        "details": "Returns one of the accounts that have `role`. `index` must be a value between 0 and {getRoleMemberCount}, non-inclusive. Role bearers are not sorted in any particular way, and their ordering may change at any point. WARNING: When using {getRoleMember} and {getRoleMemberCount}, make sure you perform all queries on the same block. See the following https://forum.openzeppelin.com/t/iterating-over-elements-on-enumerableset-in-openzeppelin-contracts/2296[forum post] for more information."
      },
      "getRoleMemberCount(bytes32)": {
        "details": "Returns the number of accounts that have `role`. Can be used together with {getRoleMember} to enumerate all bearers of a role."
      },
      "grantRole(bytes32,address)": {
        "details": "Grants `role` to `account`. If `account` had not been already granted `role`, emits a {RoleGranted} event. Requirements: - the caller must have ``role``'s admin role."
      },
      "hasRole(bytes32,address)": {
        "details": "Returns `true` if `account` has been granted `role`."
      },
      "renounceRole(bytes32,address)": {
        "details": "Revokes `role` from the calling account. Roles are often managed via {grantRole} and {revokeRole}: this function's purpose is to provide a mechanism for accounts to lose their privileges if they are compromised (such as when a trusted device is misplaced). If the calling account had been revoked `role`, emits a {RoleRevoked} event. Requirements: - the caller must be `account`."
      },
      "revokeRole(bytes32,address)": {
        "details": "Revokes `role` from `account`. If `account` had been granted `role`, emits a {RoleRevoked} event. Requirements: - the caller must have ``role``'s admin role."
      },
      "supportsInterface(bytes4)": {
        "details": "See {IERC165-supportsInterface}."
      }
    },
    "version": 1
  },
  "userdoc": {
    "kind": "user",
    "methods": {},
    "version": 1
  }
}