{
  "contractName": "PlayZone",
  "abi": [
    {
      "inputs": [
        {
          "internalType": "address",
          "name": "_rulesetAddress",
          "type": "address"
        },
        {
          "internalType": "address",
          "name": "_gameRegistryAddress",
          "type": "address"
        },
        {
          "internalType": "address",
          "name": "adminAddress",
          "type": "address"
        },
        {
          "internalType": "address",
          "name": "factoryAddress",
          "type": "address"
        }
      ],
      "stateMutability": "nonpayable",
      "type": "constructor"
    },
    {
      "anonymous": false,
      "inputs": [
        {
          "indexed": true,
          "internalType": "bytes32",
          "name": "role",
          "type": "bytes32"
        },
        {
          "indexed": true,
          "internalType": "bytes32",
          "name": "previousAdminRole",
          "type": "bytes32"
        },
        {
          "indexed": true,
          "internalType": "bytes32",
          "name": "newAdminRole",
          "type": "bytes32"
        }
      ],
      "name": "RoleAdminChanged",
      "type": "event"
    },
    {
      "anonymous": false,
      "inputs": [
        {
          "indexed": true,
          "internalType": "bytes32",
          "name": "role",
          "type": "bytes32"
        },
        {
          "indexed": true,
          "internalType": "address",
          "name": "account",
          "type": "address"
        },
        {
          "indexed": true,
          "internalType": "address",
          "name": "sender",
          "type": "address"
        }
      ],
      "name": "RoleGranted",
      "type": "event"
    },
    {
      "anonymous": false,
      "inputs": [
        {
          "indexed": true,
          "internalType": "bytes32",
          "name": "role",
          "type": "bytes32"
        },
        {
          "indexed": true,
          "internalType": "address",
          "name": "account",
          "type": "address"
        },
        {
          "indexed": true,
          "internalType": "address",
          "name": "sender",
          "type": "address"
        }
      ],
      "name": "RoleRevoked",
      "type": "event"
    },
    {
      "inputs": [],
      "name": "CONTROLLER_ROLE",
      "outputs": [
        {
          "internalType": "bytes32",
          "name": "",
          "type": "bytes32"
        }
      ],
      "stateMutability": "view",
      "type": "function"
    },
    {
      "inputs": [],
      "name": "DEFAULT_ADMIN_ROLE",
      "outputs": [
        {
          "internalType": "bytes32",
          "name": "",
          "type": "bytes32"
        }
      ],
      "stateMutability": "view",
      "type": "function"
    },
    {
      "inputs": [],
      "name": "FACTORY_ROLE",
      "outputs": [
        {
          "internalType": "bytes32",
          "name": "",
          "type": "bytes32"
        }
      ],
      "stateMutability": "view",
      "type": "function"
    },
    {
      "inputs": [],
      "name": "GAME_BOARD_ROLE",
      "outputs": [
        {
          "internalType": "bytes32",
          "name": "",
          "type": "bytes32"
        }
      ],
      "stateMutability": "view",
      "type": "function"
    },
    {
      "inputs": [
        {
          "internalType": "uint256",
          "name": "",
          "type": "uint256"
        },
        {
          "internalType": "string",
          "name": "",
          "type": "string"
        }
      ],
      "name": "entryCount",
      "outputs": [
        {
          "internalType": "uint256",
          "name": "",
          "type": "uint256"
        }
      ],
      "stateMutability": "view",
      "type": "function"
    },
    {
      "inputs": [
        {
          "internalType": "uint256",
          "name": "",
          "type": "uint256"
        },
        {
          "internalType": "string",
          "name": "",
          "type": "string"
        }
      ],
      "name": "exitCount",
      "outputs": [
        {
          "internalType": "uint256",
          "name": "",
          "type": "uint256"
        }
      ],
      "stateMutability": "view",
      "type": "function"
    },
    {
      "inputs": [],
      "name": "gameRegistryAddress",
      "outputs": [
        {
          "internalType": "address",
          "name": "",
          "type": "address"
        }
      ],
      "stateMutability": "view",
      "type": "function"
    },
    {
      "inputs": [
        {
          "internalType": "bytes32",
          "name": "role",
          "type": "bytes32"
        }
      ],
      "name": "getRoleAdmin",
      "outputs": [
        {
          "internalType": "bytes32",
          "name": "",
          "type": "bytes32"
        }
      ],
      "stateMutability": "view",
      "type": "function"
    },
    {
      "inputs": [
        {
          "internalType": "bytes32",
          "name": "role",
          "type": "bytes32"
        },
        {
          "internalType": "uint256",
          "name": "index",
          "type": "uint256"
        }
      ],
      "name": "getRoleMember",
      "outputs": [
        {
          "internalType": "address",
          "name": "",
          "type": "address"
        }
      ],
      "stateMutability": "view",
      "type": "function"
    },
    {
      "inputs": [
        {
          "internalType": "bytes32",
          "name": "role",
          "type": "bytes32"
        }
      ],
      "name": "getRoleMemberCount",
      "outputs": [
        {
          "internalType": "uint256",
          "name": "",
          "type": "uint256"
        }
      ],
      "stateMutability": "view",
      "type": "function"
    },
    {
      "inputs": [
        {
          "internalType": "bytes32",
          "name": "role",
          "type": "bytes32"
        },
        {
          "internalType": "address",
          "name": "account",
          "type": "address"
        }
      ],
      "name": "grantRole",
      "outputs": [],
      "stateMutability": "nonpayable",
      "type": "function"
    },
    {
      "inputs": [
        {
          "internalType": "bytes32",
          "name": "role",
          "type": "bytes32"
        },
        {
          "internalType": "address",
          "name": "account",
          "type": "address"
        }
      ],
      "name": "hasRole",
      "outputs": [
        {
          "internalType": "bool",
          "name": "",
          "type": "bool"
        }
      ],
      "stateMutability": "view",
      "type": "function"
    },
    {
      "inputs": [
        {
          "internalType": "uint256",
          "name": "",
          "type": "uint256"
        },
        {
          "internalType": "string",
          "name": "",
          "type": "string"
        }
      ],
      "name": "playerCount",
      "outputs": [
        {
          "internalType": "uint256",
          "name": "",
          "type": "uint256"
        }
      ],
      "stateMutability": "view",
      "type": "function"
    },
    {
      "inputs": [
        {
          "internalType": "bytes32",
          "name": "role",
          "type": "bytes32"
        },
        {
          "internalType": "address",
          "name": "account",
          "type": "address"
        }
      ],
      "name": "renounceRole",
      "outputs": [],
      "stateMutability": "nonpayable",
      "type": "function"
    },
    {
      "inputs": [
        {
          "internalType": "bytes32",
          "name": "role",
          "type": "bytes32"
        },
        {
          "internalType": "address",
          "name": "account",
          "type": "address"
        }
      ],
      "name": "revokeRole",
      "outputs": [],
      "stateMutability": "nonpayable",
      "type": "function"
    },
    {
      "inputs": [
        {
          "internalType": "uint256",
          "name": "",
          "type": "uint256"
        },
        {
          "internalType": "string",
          "name": "",
          "type": "string"
        }
      ],
      "name": "ruleset",
      "outputs": [
        {
          "internalType": "uint256",
          "name": "",
          "type": "uint256"
        }
      ],
      "stateMutability": "view",
      "type": "function"
    },
    {
      "inputs": [],
      "name": "rulesetAddress",
      "outputs": [
        {
          "internalType": "address",
          "name": "",
          "type": "address"
        }
      ],
      "stateMutability": "view",
      "type": "function"
    },
    {
      "inputs": [],
      "name": "rulesetVersion",
      "outputs": [
        {
          "internalType": "uint256",
          "name": "",
          "type": "uint256"
        }
      ],
      "stateMutability": "view",
      "type": "function"
    },
    {
      "inputs": [
        {
          "internalType": "bytes4",
          "name": "interfaceId",
          "type": "bytes4"
        }
      ],
      "name": "supportsInterface",
      "outputs": [
        {
          "internalType": "bool",
          "name": "",
          "type": "bool"
        }
      ],
      "stateMutability": "view",
      "type": "function"
    },
    {
      "inputs": [
        {
          "internalType": "address",
          "name": "gameBoardAddress",
          "type": "address"
        }
      ],
      "name": "addGameBoard",
      "outputs": [],
      "stateMutability": "nonpayable",
      "type": "function"
    },
    {
      "inputs": [
        {
          "internalType": "address",
          "name": "gameBoardAddress",
          "type": "address"
        }
      ],
      "name": "removeGameBoard",
      "outputs": [],
      "stateMutability": "nonpayable",
      "type": "function"
    },
    {
      "inputs": [
        {
          "internalType": "address",
          "name": "controllerAddress",
          "type": "address"
        }
      ],
      "name": "addController",
      "outputs": [],
      "stateMutability": "nonpayable",
      "type": "function"
    },
    {
      "inputs": [
        {
          "internalType": "address",
          "name": "controllerAddress",
          "type": "address"
        }
      ],
      "name": "removeController",
      "outputs": [],
      "stateMutability": "nonpayable",
      "type": "function"
    },
    {
      "inputs": [
        {
          "internalType": "uint256",
          "name": "rulesetID",
          "type": "uint256"
        },
        {
          "internalType": "uint256",
          "name": "gameID",
          "type": "uint256"
        },
        {
          "internalType": "string",
          "name": "zoneAlias",
          "type": "string"
        }
      ],
      "name": "setRules",
      "outputs": [],
      "stateMutability": "nonpayable",
      "type": "function"
    },
    {
      "inputs": [
        {
          "internalType": "uint256",
          "name": "exitPathIndex",
          "type": "uint256"
        },
        {
          "internalType": "uint256",
          "name": "gameID",
          "type": "uint256"
        },
        {
          "internalType": "address",
          "name": "gameBoardAddress",
          "type": "address"
        }
      ],
      "name": "attemptExit",
      "outputs": [],
      "stateMutability": "nonpayable",
      "type": "function"
    },
    {
      "inputs": [
        {
          "internalType": "address",
          "name": "playerAddress",
          "type": "address"
        },
        {
          "internalType": "uint256",
          "name": "exitPathIndex",
          "type": "uint256"
        },
        {
          "internalType": "uint256",
          "name": "gameID",
          "type": "uint256"
        },
        {
          "internalType": "string",
          "name": "zoneAlias",
          "type": "string"
        },
        {
          "internalType": "address",
          "name": "gameBoardAddress",
          "type": "address"
        }
      ],
      "name": "attemptExitFor",
      "outputs": [],
      "stateMutability": "nonpayable",
      "type": "function"
    },
    {
      "inputs": [
        {
          "internalType": "string[]",
          "name": "stringParams",
          "type": "string[]"
        },
        {
          "internalType": "address[]",
          "name": "addressParams",
          "type": "address[]"
        },
        {
          "internalType": "uint256[]",
          "name": "uintParams",
          "type": "uint256[]"
        }
      ],
      "name": "performCustomAction",
      "outputs": [],
      "stateMutability": "nonpayable",
      "type": "function"
    },
    {
      "inputs": [],
      "name": "playersInZone",
      "outputs": [
        {
          "internalType": "uint256[]",
          "name": "",
          "type": "uint256[]"
        }
      ],
      "stateMutability": "view",
      "type": "function"
    },
    {
      "inputs": [
        {
          "internalType": "address",
          "name": "playerAddress",
          "type": "address"
        },
        {
          "internalType": "uint256",
          "name": "gameID",
          "type": "uint256"
        },
        {
          "internalType": "string",
          "name": "zoneAlias",
          "type": "string"
        }
      ],
      "name": "playerCanEnter",
      "outputs": [
        {
          "internalType": "bool",
          "name": "canEnter",
          "type": "bool"
        }
      ],
      "stateMutability": "view",
      "type": "function"
    },
    {
      "inputs": [
        {
          "internalType": "address",
          "name": "playerAddress",
          "type": "address"
        },
        {
          "internalType": "uint256",
          "name": "gameID",
          "type": "uint256"
        },
        {
          "internalType": "string",
          "name": "zoneAlias",
          "type": "string"
        }
      ],
      "name": "playerCanExit",
      "outputs": [
        {
          "internalType": "bool",
          "name": "canExit",
          "type": "bool"
        }
      ],
      "stateMutability": "view",
      "type": "function"
    },
    {
      "inputs": [
        {
          "internalType": "address",
          "name": "playerAddress",
          "type": "address"
        },
        {
          "internalType": "uint256",
          "name": "gameID",
          "type": "uint256"
        },
        {
          "internalType": "string",
          "name": "zoneAlias",
          "type": "string"
        }
      ],
      "name": "enterPlayer",
      "outputs": [],
      "stateMutability": "nonpayable",
      "type": "function"
    },
    {
      "inputs": [
        {
          "internalType": "address",
          "name": "playerAddress",
          "type": "address"
        },
        {
          "internalType": "uint256",
          "name": "gameID",
          "type": "uint256"
        },
        {
          "internalType": "string",
          "name": "zoneAlias",
          "type": "string"
        }
      ],
      "name": "exitPlayer",
      "outputs": [],
      "stateMutability": "nonpayable",
      "type": "function"
    },
    {
      "inputs": [
        {
          "internalType": "address",
          "name": "playerAddress",
          "type": "address"
        },
        {
          "internalType": "uint256",
          "name": "gameID",
          "type": "uint256"
        },
        {
          "internalType": "string",
          "name": "zoneAlias",
          "type": "string"
        }
      ],
      "name": "removePlayer",
      "outputs": [],
      "stateMutability": "nonpayable",
      "type": "function"
    }
  ],
  "bytecode": "0x60806040523480156200001157600080fd5b50604051620025503803806200255083398101604081905262000034916200032e565b60028054600160a060020a03808716600160a060020a03199283168117909355600380549187169183169190911790556004805490911682178155604080517f54fd4d5000000000000000000000000000000000000000000000000000000000815290516354fd4d50928281019260209291908290030181865afa158015620000c1573d6000803e3d6000fd5b505050506040513d601f19601f82011682018060405250810190620000e791906200038b565b600555620001006000836401000000006200014f810204565b600160a060020a038116156200014557620001457fdfbefbf47cfe66b701d8cfdbce1de81c821590819cb07e71cb01b6602fb0ee27826401000000006200014f810204565b50505050620003a5565b62000164828264010000000062000168810204565b5050565b62000182828264010000000062000f57620001af82021704565b6000828152600160205260409020620001aa908264010000000062000fdb6200024b82021704565b505050565b620001c4828264010000000062000274810204565b6200016457600082815260208181526040808320600160a060020a03851684529091529020805460ff19166001179055620002076401000000006200029d810204565b600160a060020a031681600160a060020a0316837f2f8788117e7eff1d82e926ec794901d17c78024a50270940304540a733656f0d60405160405180910390a45050565b60006200026b83600160a060020a038416640100000000620002a1810204565b90505b92915050565b600091825260208281526040808420600160a060020a0393909316845291905290205460ff1690565b3390565b6000620002b88383640100000000620002f9810204565b620002f0575081546001818101845560008481526020808220909301849055845484825282860190935260409020919091556200026e565b5060006200026e565b60009081526001919091016020526040902054151590565b8051600160a060020a03811681146200032957600080fd5b919050565b600080600080608085870312156200034557600080fd5b620003508562000311565b9350620003606020860162000311565b9250620003706040860162000311565b9150620003806060860162000311565b905092959194509250565b6000602082840312156200039e57600080fd5b5051919050565b61219b80620003b56000396000f3fe608060405234801561001057600080fd5b50600436106101d8576000357c01000000000000000000000000000000000000000000000000000000009004806398bd757211610117578063c8fae5e8116100ba578063c8fae5e81461048d578063ca15c873146104a0578063d547741f146104b3578063de452641146104c6578063e15b3ad0146104d9578063e70542a8146104ec578063f14f4bbe146104f5578063f6a74ed714610508578063f91649f01461051b57600080fd5b806398bd757214610389578063a217fddf1461039c578063a331e608146103a4578063a7fc7a07146103e0578063abea5a6e146103f3578063ac407d021461042f578063bc590f2a1461046b578063c57893c21461047e57600080fd5b806331b8a8541161017f57806331b8a854146102ef57806336568abe14610302578063474dfcd7146103155780634a58dc11146103285780636516dd451461033d5780637caf1280146103505780639010d07c1461036357806391d148541461037657600080fd5b806301ffc9a7146101dd57806304a0fb1714610205578063092c5b3b1461022857806310e0d51e1461023d578063248a9ca31461027957806328d7e11a1461029c5780632e08793d146102b15780632f2ff15d146102dc575b600080fd5b6101f06101eb3660046118ce565b61052e565b60405190151581526020015b60405180910390f35b61021a60008051602061212683398151915281565b6040519081526020016101fc565b61021a60008051602061210683398151915281565b61021a61024b3660046119b2565b6008602090815260009283526040909220815180830184018051928152908401929093019190912091525481565b61021a6102873660046119f9565b60009081526020819052604090206001015490565b6102af6102aa366004611a27565b610572565b005b6003546102c490600160a060020a031681565b604051600160a060020a0390911681526020016101fc565b6102af6102ea366004611a80565b6105ce565b6102af6102fd366004611ab0565b6105f3565b6102af610310366004611a80565b610672565b6102af610323366004611bd7565b505050565b61021a60008051602061214683398151915281565b6102af61034b366004611cc2565b610701565b6101f061035e366004611a27565b610777565b6102c4610371366004611cfb565b610947565b6101f0610384366004611a80565b61095f565b6102af610397366004611a27565b610988565b61021a600081565b61021a6103b23660046119b2565b6007602090815260009283526040909220815180830184018051928152908401929093019190912091525481565b6102af6103ee366004611d1d565b610a05565b61021a6104013660046119b2565b6006602090815260009283526040909220815180830184018051928152908401929093019190912091525481565b61021a61043d3660046119b2565b6009602090815260009283526040909220815180830184018051928152908401929093019190912091525481565b6004546102c490600160a060020a031681565b60606040516101fc9190611d3a565b6102af61049b366004611d1d565b610a68565b61021a6104ae3660046119f9565b610a8b565b6102af6104c1366004611a80565b610aa2565b6102af6104d4366004611d1d565b610ac7565b6101f06104e7366004611a27565b610b27565b61021a60055481565b6102af610503366004611d7e565b610e14565b6102af610516366004611d1d565b610f11565b6102af610529366004611a27565b610f34565b6000600160e060020a031982167f5a05180f00000000000000000000000000000000000000000000000000000000148061056c575061056c82610ff0565b92915050565b60008051602061214683398151915261058a81611057565b610595848484610777565b6105bd5760405160e560020a62461bcd0281526004016105b490611df6565b60405180910390fd5b6105c8848484611061565b50505050565b6000828152602081905260409020600101546105e981611057565b6103238383611197565b61060b6000805160206121268339815191523361095f565b8061061c575061061c60003361095f565b61063b5760405160e560020a62461bcd0281526004016105b490611e2d565b82600660008481526020019081526020016000208260405161065d9190611eb6565b90815260405190819003602001902055505050565b600160a060020a03811633146106f35760405160e560020a62461bcd02815260206004820152602f60248201527f416363657373436f6e74726f6c3a2063616e206f6e6c792072656e6f756e636560448201527f20726f6c657320666f722073656c66000000000000000000000000000000000060648201526084016105b4565b6106fd82826111b9565b5050565b60405160e060020a639eb356cb028152600160a060020a03821690639eb356cb9061073490859033908890600401611ed2565b6020604051808303816000875af1158015610753573d6000803e3d6000fd5b505050506040513d601f19601f820116820180604052508101906105c89190611ef1565b6000828152600a602052604090819020905160019190610798908490611eb6565b9081526040805160209281900383019020600160a060020a0387166000908152925290205460ff166107cc57506000610940565b60008381526006602052604080822090516107e8908590611eb6565b90815260200160405180910390205490508060001461093e576002805460405160e060020a638323406d028152600481018490526024810192909252600160a060020a031690638323406d90604401602060405180830381865afa158015610854573d6000803e3d6000fd5b505050506040513d601f19601f820116820180604052508101906108789190611ef1565b801561093457506002546040517f548dbc7a00000000000000000000000000000000000000000000000000000000815260048101839052600160a060020a039091169063548dbc7a90602401602060405180830381865afa1580156108e1573d6000803e3d6000fd5b505050506040513d601f19601f820116820180604052508101906109059190611f13565b600085815260096020526040908190209051610922908690611eb6565b90815260200160405180910390205410155b1561093e57600091505b505b9392505050565b600082815260016020526040812061094090836111db565b600091825260208281526040808420600160a060020a0393909316845291905290205460ff1690565b6000805160206121468339815191526109a081611057565b6109ab848484610b27565b6109fa5760405160e560020a62461bcd02815260206004820152601860248201527f706c617965722063616e6e6f7420656e746572207a6f6e65000000000000000060448201526064016105b4565b6105c88484846111e7565b610a1d6000805160206121268339815191523361095f565b80610a2e5750610a2e60003361095f565b610a4d5760405160e560020a62461bcd0281526004016105b490611e2d565b610a65600080516020612106833981519152826113c2565b50565b6000610a7381611057565b6106fd600080516020612146833981519152836111b9565b600081815260016020526040812061056c906113cc565b600082815260208190526040902060010154610abd81611057565b61032383836111b9565b610adf6000805160206121268339815191523361095f565b80610af05750610af060003361095f565b610b0f5760405160e560020a62461bcd0281526004016105b490611e2d565b610a65600080516020612146833981519152826113c2565b6000828152600a602052604090819020905160019190610b48908490611eb6565b9081526040805160209281900383019020600160a060020a0387166000908152925290205460ff1615610b7d57506000610940565b6000838152600660205260408082209051610b99908590611eb6565b90815260200160405180910390205490508060001461093e5760025460405160e060020a638323406d0281526004810183905260006024820152600160a060020a0390911690638323406d90604401602060405180830381865afa158015610c05573d6000803e3d6000fd5b505050506040513d601f19601f82011682018060405250810190610c299190611ef1565b8015610ce557506002546040517fc0eac88600000000000000000000000000000000000000000000000000000000815260048101839052600160a060020a039091169063c0eac88690602401602060405180830381865afa158015610c92573d6000803e3d6000fd5b505050506040513d601f19601f82011682018060405250810190610cb69190611f13565b600085815260086020526040908190209051610cd3908690611eb6565b90815260200160405180910390205410155b15610cf3576000915061093e565b60025460405160e060020a638323406d0281526004810183905260016024820152600160a060020a0390911690638323406d90604401602060405180830381865afa158015610d46573d6000803e3d6000fd5b505050506040513d601f19601f82011682018060405250810190610d6a9190611ef1565b801561093457506002546040517f0b4adfcf00000000000000000000000000000000000000000000000000000000815260048101839052600160a060020a0390911690630b4adfcf90602401602060405180830381865afa158015610dd3573d6000803e3d6000fd5b505050506040513d601f19601f82011682018060405250810190610df79190611f13565b600085815260076020526040908190209051610922908690611eb6565b610e1f858484610777565b610e3e5760405160e560020a62461bcd0281526004016105b490611df6565b60405160e060020a639eb356cb028152600090600160a060020a03831690639eb356cb90610e749087908a908a90600401611ed2565b6020604051808303816000875af1158015610e93573d6000803e3d6000fd5b505050506040513d601f19601f82011682018060405250810190610eb79190611ef1565b905080610f095760405160e560020a62461bcd02815260206004820152601e60248201527f706c6179657220756e61626c6520746f20656e746572206f6e2065786974000060448201526064016105b4565b505050505050565b6000610f1c81611057565b6106fd600080516020612106833981519152836111b9565b600080516020612146833981519152610f4c81611057565b6105c88484846113d6565b610f61828261095f565b6106fd57600082815260208181526040808320600160a060020a03851684529091529020805460ff19166001179055610f973390565b600160a060020a031681600160a060020a0316837f2f8788117e7eff1d82e926ec794901d17c78024a50270940304540a733656f0d60405160405180910390a45050565b600061094083600160a060020a03841661147f565b6000600160e060020a031982167f7965db0b00000000000000000000000000000000000000000000000000000000148061056c57507f01ffc9a700000000000000000000000000000000000000000000000000000000600160e060020a031983161461056c565b610a6581336114ce565b6000828152600a6020526040808220905161107d908490611eb6565b9081526040805160209281900383018120600160a060020a0388166000908152908452828120805460ff19169515159590951790945585845260089092528220906110c9908490611eb6565b908152602001604051809103902054116110e4576000611120565b600160086000848152602001908152602001600020826040516111079190611eb6565b9081526020016040518091039020546111209190611f45565b60008381526008602052604090819020905161113d908490611eb6565b90815260200160405180910390208190555060096000838152602001908152602001600020816040516111709190611eb6565b908152604051908190036020019020805490600061118d83611f5c565b9190505550505050565b6111a18282610f57565b60008281526001602052604090206103239082610fdb565b6111c38282611535565b6000828152600160205260409020610323908261159a565b600061094083836115af565b6001600a60008481526020019081526020016000208260405161120a9190611eb6565b9081526040805160209281900383018120600160a060020a0388166000908152908452828120805460ff191695151595909517909455858452600890925290912090611257908390611eb6565b908152604051908190036020019020805490600061127483611f5c565b9091555050600082815260076020526040908190209051611296908390611eb6565b90815260405190819003602001902080549060006112b383611f5c565b90915550506003546040517f5d24830100000000000000000000000000000000000000000000000000000000815260048101849052600091600160a060020a031690635d24830190602401602060405180830381865afa15801561131b573d6000803e3d6000fd5b505050506040513d601f19601f8201168201806040525081019061133f9190611f77565b6040517ffa9f3438000000000000000000000000000000000000000000000000000000008152909150600160a060020a0382169063fa9f34389061138b90869088908790600401611fc0565b600060405180830381600087803b1580156113a557600080fd5b505af11580156113b9573d6000803e3d6000fd5b505050506105c8565b6106fd8282611197565b600061056c825490565b60008281526008602052604080822090516113f2908490611eb6565b9081526020016040518091039020541161140d576000611449565b600160086000848152602001908152602001600020826040516114309190611eb6565b9081526020016040518091039020546114499190611f45565b600083815260086020526040908190209051611466908490611eb6565b9081526040519081900360200190205561032383838383565b60008181526001830160205260408120546114c65750815460018181018455600084815260208082209093018490558454848252828601909352604090209190915561056c565b50600061056c565b6114d8828261095f565b6106fd576114f081600160a060020a031660146115d9565b6114fb8360206115d9565b60405160200161150c929190611ff1565b60408051601f198184030181529082905260e560020a62461bcd0282526105b491600401612072565b61153f828261095f565b156106fd57600082815260208181526040808320600160a060020a0385168085529252808320805460ff1916905551339285917ff6391f5c32d9c69d2a47ea670b442974b53935d1edc7fd64eb21e047a839171b9190a45050565b600061094083600160a060020a0384166117db565b60008260000182815481106115c6576115c6612085565b9060005260206000200154905092915050565b606060006115e883600261209e565b6115f39060026120bd565b67ffffffffffffffff81111561160b5761160b6118f8565b6040519080825280601f01601f191660200182016040528015611635576020820181803683370190505b5090507f30000000000000000000000000000000000000000000000000000000000000008160008151811061166c5761166c612085565b6020010190600160f860020a031916908160001a9053507f7800000000000000000000000000000000000000000000000000000000000000816001815181106116b7576116b7612085565b6020010190600160f860020a031916908160001a90535060006116db84600261209e565b6116e69060016120bd565b90505b6001811115611789577f303132333435363738396162636465660000000000000000000000000000000085600f166010811061172757611727612085565b1a7f01000000000000000000000000000000000000000000000000000000000000000282828151811061175c5761175c612085565b6020010190600160f860020a031916908160001a905350601090940493611782816120d5565b90506116e9565b5083156109405760405160e560020a62461bcd02815260206004820181905260248201527f537472696e67733a20686578206c656e67746820696e73756666696369656e7460448201526064016105b4565b600081815260018301602052604081205480156118c45760006117ff600183611f45565b855490915060009061181390600190611f45565b905081811461187857600086600001828154811061183357611833612085565b906000526020600020015490508087600001848154811061185657611856612085565b6000918252602080832090910192909255918252600188019052604090208390555b8554869080611889576118896120ec565b60019003818190600052602060002001600090559055856001016000868152602001908152602001600020600090556001935050505061056c565b600091505061056c565b6000602082840312156118e057600080fd5b8135600160e060020a03198116811461094057600080fd5b60e060020a634e487b7102600052604160045260246000fd5b604051601f8201601f1916810167ffffffffffffffff8111828210171561193a5761193a6118f8565b604052919050565b600082601f83011261195357600080fd5b813567ffffffffffffffff81111561196d5761196d6118f8565b611980601f8201601f1916602001611911565b81815284602083860101111561199557600080fd5b816020850160208301376000918101602001919091529392505050565b600080604083850312156119c557600080fd5b82359150602083013567ffffffffffffffff8111156119e357600080fd5b6119ef85828601611942565b9150509250929050565b600060208284031215611a0b57600080fd5b5035919050565b600160a060020a0381168114610a6557600080fd5b600080600060608486031215611a3c57600080fd5b8335611a4781611a12565b925060208401359150604084013567ffffffffffffffff811115611a6a57600080fd5b611a7686828701611942565b9150509250925092565b60008060408385031215611a9357600080fd5b823591506020830135611aa581611a12565b809150509250929050565b600080600060608486031215611ac557600080fd5b8335925060208401359150604084013567ffffffffffffffff811115611a6a57600080fd5b600067ffffffffffffffff821115611b0457611b046118f8565b5060209081020190565b600082601f830112611b1f57600080fd5b81356020611b34611b2f83611aea565b611911565b82815291810284018101918181019086841115611b5057600080fd5b8286015b84811015611b74578035611b6781611a12565b8352918301918301611b54565b509695505050505050565b600082601f830112611b9057600080fd5b81356020611ba0611b2f83611aea565b82815291810284018101918181019086841115611bbc57600080fd5b8286015b84811015611b745780358352918301918301611bc0565b600080600060608486031215611bec57600080fd5b833567ffffffffffffffff80821115611c0457600080fd5b818601915086601f830112611c1857600080fd5b81356020611c28611b2f83611aea565b8281529181028401810191818101908a841115611c4457600080fd5b8286015b84811015611c7c57803586811115611c605760008081fd5b611c6e8d86838b0101611942565b845250918301918301611c48565b5097505087013592505080821115611c9357600080fd5b611c9f87838801611b0e565b93506040860135915080821115611cb557600080fd5b50611a7686828701611b7f565b600080600060608486031215611cd757600080fd5b83359250602084013591506040840135611cf081611a12565b809150509250925092565b60008060408385031215611d0e57600080fd5b50508035926020909101359150565b600060208284031215611d2f57600080fd5b813561094081611a12565b6020808252825182820181905260009190848201906040850190845b81811015611d7257835183529284019291840191600101611d56565b50909695505050505050565b600080600080600060a08688031215611d9657600080fd5b8535611da181611a12565b94506020860135935060408601359250606086013567ffffffffffffffff811115611dcb57600080fd5b611dd788828901611942565b9250506080860135611de881611a12565b809150509295509295909350565b60208082526017908201527f706c617965722063616e6e6f742065786974207a6f6e65000000000000000000604082015260600190565b60208082526024908201527f47616d65204d6173746572206f7220466163746f727920726f6c65207265717560408201527f6972656400000000000000000000000000000000000000000000000000000000606082015260800190565b60005b83811015611ea5578181015183820152602001611e8d565b838111156105c85750506000910152565b60008251611ec8818460208701611e8a565b9190910192915050565b928352600160a060020a03919091166020830152604082015260600190565b600060208284031215611f0357600080fd5b8151801515811461094057600080fd5b600060208284031215611f2557600080fd5b5051919050565b60e060020a634e487b7102600052601160045260246000fd5b600082821015611f5757611f57611f2c565b500390565b6000600019821415611f7057611f70611f2c565b5060010190565b600060208284031215611f8957600080fd5b815161094081611a12565b60008151808452611fac816020860160208601611e8a565b601f01601f19169290920160200192915050565b838152600160a060020a0383166020820152606060408201526000611fe86060830184611f94565b95945050505050565b7f416363657373436f6e74726f6c3a206163636f756e7420000000000000000000815260008351612029816017850160208801611e8a565b7f206973206d697373696e6720726f6c65200000000000000000000000000000006017918401918201528351612066816028840160208801611e8a565b01602801949350505050565b6020815260006109406020830184611f94565b60e060020a634e487b7102600052603260045260246000fd5b60008160001904831182151516156120b8576120b8611f2c565b500290565b600082198211156120d0576120d0611f2c565b500190565b6000816120e4576120e4611f2c565b506000190190565b60e060020a634e487b7102600052603160045260246000fdfe7b765e0e932d348852a6f810bfa1ab891e259123f02db8cdcde614c570223357dfbefbf47cfe66b701d8cfdbce1de81c821590819cb07e71cb01b6602fb0ee27a535732178231314b57938e75e1be42a0d0fac039993e1fa0eb22dcb94bce107a2646970667358221220927f1269798a73d25082082d534735a170f3aa8c9707e2c49296e518b108f9bd64736f6c634300080b0033",
  "immutableReferences": {},
  "source": "// SPDX-License-Identifier: GPL-3.0\n\npragma solidity >=0.7.0 <0.9.0;\n\nimport \"@openzeppelin/contracts/access/AccessControlEnumerable.sol\";\nimport \"./Ruleset.sol\";\nimport \"./GameBoard.sol\";\nimport \"./GameRegistry.sol\";\n\ncontract PlayZone is AccessControlEnumerable {\n    bytes32 public constant GAME_BOARD_ROLE = keccak256(\"GAME_BOARD_ROLE\");\n    bytes32 public constant FACTORY_ROLE = keccak256(\"FACTORY_ROLE\");\n    bytes32 public constant CONTROLLER_ROLE = keccak256(\"CONTROLLER_ROLE\");\n\n    Ruleset internal RULESET;\n    address public gameRegistryAddress;\n    address public rulesetAddress;\n    uint256 public rulesetVersion;\n\n    // Mappings from GameID => alias (set in gameboard)\n    mapping(uint256 => mapping(string => uint256)) public ruleset; // returns ruleset ID\n    mapping(uint256 => mapping(string => uint256)) public entryCount;\n    mapping(uint256 => mapping(string => uint256)) public playerCount;\n    mapping(uint256 => mapping(string => uint256)) public exitCount;\n    mapping(uint256 => mapping(string => mapping(address => bool)))\n        internal playerInZone;\n\n    // right now players can interact with zone,\n    // zone cannot perform action on all players\n    // as no list of players is stored here\n    // May be able to query game board for list of players if necessary\n\n    // integrated custom game contract may have this capability, but\n    // zone itself can only check if player is allowed to play and\n    // ensure total number of players is correct\n\n    // game board may attempt to exit player\n    // zone logic will determine if this is allowed\n\n    modifier onlyFactoryAdmin() {\n        require(\n            hasRole(FACTORY_ROLE, _msgSender()) ||\n                hasRole(DEFAULT_ADMIN_ROLE, _msgSender()),\n            \"Game Master or Factory role required\"\n        );\n        _;\n    }\n\n    constructor(\n        address _rulesetAddress,\n        address _gameRegistryAddress,\n        address adminAddress,\n        address factoryAddress\n    ) {\n        RULESET = Ruleset(_rulesetAddress);\n        gameRegistryAddress = _gameRegistryAddress;\n        rulesetAddress = _rulesetAddress;\n        rulesetVersion = RULESET.version();\n        _setupRole(DEFAULT_ADMIN_ROLE, adminAddress);\n        if (factoryAddress != address(0)) {\n            _setupRole(FACTORY_ROLE, factoryAddress);\n        }\n    }\n\n    function addGameBoard(address gameBoardAddress) public onlyFactoryAdmin {\n        _setupRole(GAME_BOARD_ROLE, gameBoardAddress);\n    }\n\n    function removeGameBoard(address gameBoardAddress)\n        public\n        onlyRole(DEFAULT_ADMIN_ROLE)\n    {\n        _revokeRole(GAME_BOARD_ROLE, gameBoardAddress);\n    }\n\n    function addController(address controllerAddress) public onlyFactoryAdmin {\n        _setupRole(CONTROLLER_ROLE, controllerAddress);\n    }\n\n    function removeController(address controllerAddress)\n        public\n        onlyRole(DEFAULT_ADMIN_ROLE)\n    {\n        _revokeRole(CONTROLLER_ROLE, controllerAddress);\n    }\n\n    function setRules(\n        uint256 rulesetID,\n        uint256 gameID,\n        string memory zoneAlias\n    ) public onlyFactoryAdmin {\n        ruleset[gameID][zoneAlias] = rulesetID;\n    }\n\n    // Player functions\n    function attemptExit(\n        uint256 exitPathIndex,\n        uint256 gameID,\n        address gameBoardAddress\n    ) public {\n        GameBoard(gameBoardAddress).exitToPath(\n            gameID,\n            msg.sender,\n            exitPathIndex\n        );\n    }\n\n    function attemptExitFor(\n        address playerAddress,\n        uint256 exitPathIndex,\n        uint256 gameID,\n        string memory zoneAlias,\n        address gameBoardAddress\n    ) public {\n        require(\n            playerCanExit(playerAddress, gameID, zoneAlias),\n            \"player cannot exit zone\"\n        );\n        bool exitSuccess = GameBoard(gameBoardAddress).exitToPath(\n            gameID,\n            playerAddress,\n            exitPathIndex\n        );\n        require(exitSuccess, \"player unable to enter on exit\");\n    }\n\n    // Validation etc is done on the custom contract in _customAction()\n    function performCustomAction(\n        string[] memory stringParams,\n        address[] memory addressParams,\n        uint256[] memory uintParams\n    ) public {\n        _customAction(stringParams, addressParams, uintParams);\n    }\n\n    function playersInZone() public view returns (uint256[] memory) {\n        // cycle through registry, return list of players in zone\n    }\n\n    // TODO: figure this out...\n    // function resetZone() public onlyRole(???) {}\n\n    function playerInPlayableState(address playerAddress, uint256 gameID)\n        internal\n        view\n        returns (bool playable)\n    {\n        address gameBoard = GameRegistry(gameRegistryAddress).gameBoard(gameID);\n        if (GameBoard(gameBoard).gameState(gameID) > 1) {\n            playable = true;\n        } else {\n            playable = false;\n        }\n\n        // TODO: check for transit group action\n    }\n\n    function playerCanEnter(\n        address playerAddress,\n        uint256 gameID,\n        string memory zoneAlias\n    ) public view virtual returns (bool canEnter) {\n        canEnter = true;\n        //canEnter = playerInPlayableState(playerAddress, gameID);\n        if (playerInZone[gameID][zoneAlias][playerAddress]) {\n            // already here, can't enter again\n            canEnter = false;\n        } else {\n            uint256 rulesetID = ruleset[gameID][zoneAlias];\n            if (rulesetID != 0) {\n                // check against rules if set\n                if (\n                    RULESET.rules(rulesetID, 0) &&\n                    playerCount[gameID][zoneAlias] >=\n                    RULESET.maxCapacity(rulesetID)\n                ) {\n                    canEnter = false;\n                } else if (\n                    RULESET.rules(rulesetID, 1) &&\n                    entryCount[gameID][zoneAlias] >=\n                    RULESET.maxEntrySize(rulesetID)\n                ) {\n                    canEnter = false;\n                }\n            }\n        }\n        //TODO: make sure payout on exit / entry can be paid before allowing entry\n    }\n\n    function playerCanExit(\n        address playerAddress,\n        uint256 gameID,\n        string memory zoneAlias\n    ) public view virtual returns (bool canExit) {\n        canExit = true;\n        //canExit = playerInPlayableState(playerAddress, gameID);\n\n        if (!playerInZone[gameID][zoneAlias][playerAddress]) {\n            // not here, can't exit if already gone\n            canExit = false;\n        } else {\n            uint256 rulesetID = ruleset[gameID][zoneAlias];\n            if (rulesetID != 0) {\n                if (\n                    RULESET.rules(rulesetID, 2) &&\n                    exitCount[gameID][zoneAlias] >=\n                    RULESET.maxExitSize(rulesetID)\n                ) {\n                    canExit = false;\n                }\n            }\n        }\n    }\n\n    function enterPlayer(\n        address playerAddress,\n        uint256 gameID,\n        string memory zoneAlias\n    ) external onlyRole(GAME_BOARD_ROLE) {\n        require(\n            playerCanEnter(playerAddress, gameID, zoneAlias),\n            \"player cannot enter zone\"\n        );\n        _enterPlayer(playerAddress, gameID, zoneAlias);\n    }\n\n    function exitPlayer(\n        address playerAddress,\n        uint256 gameID,\n        string memory zoneAlias\n    ) external onlyRole(GAME_BOARD_ROLE) {\n        require(\n            playerCanExit(playerAddress, gameID, zoneAlias),\n            \"player cannot exit zone\"\n        );\n        _exitPlayer(playerAddress, gameID, zoneAlias);\n    }\n\n    // used when a player is entirely removed from game, e.g. runs out of credits\n    function removePlayer(\n        address playerAddress,\n        uint256 gameID,\n        string memory zoneAlias\n    ) external onlyRole(GAME_BOARD_ROLE) {\n        _removePlayer(playerAddress, gameID, zoneAlias);\n    }\n\n    function _enterPlayer(\n        address playerAddress,\n        uint256 gameID,\n        string memory zoneAlias\n    ) internal {\n        _playerWillEnter(playerAddress, gameID, zoneAlias);\n        //TODO:\n        // payout on entry if set and balance allows\n        playerInZone[gameID][zoneAlias][playerAddress] = true;\n        playerCount[gameID][zoneAlias]++;\n        entryCount[gameID][zoneAlias]++;\n        // tell game board to update player position\n        address gbAddress = GameRegistry(gameRegistryAddress).gameBoard(gameID);\n        GameBoard(gbAddress).playerEnteredZone(\n            gameID,\n            playerAddress,\n            zoneAlias\n        );\n        _playerDidEnter(playerAddress, gameID, zoneAlias);\n    }\n\n    function _exitPlayer(\n        address playerAddress,\n        uint256 gameID,\n        string memory zoneAlias\n    ) internal {\n        _playerWillExit(playerAddress, gameID, zoneAlias);\n        playerInZone[gameID][zoneAlias][playerAddress] = false;\n        playerCount[gameID][zoneAlias] = playerCount[gameID][zoneAlias] > 0\n            ? playerCount[gameID][zoneAlias] - 1\n            : 0;\n        exitCount[gameID][zoneAlias]++;\n        //TODO:\n        // payout on exit if set and balance allows\n        _playerDidExit(playerAddress, gameID, zoneAlias);\n    }\n\n    function _removePlayer(\n        address playerAddress,\n        uint256 gameID,\n        string memory zoneAlias\n    ) internal {\n        // TODO: remove from current location on game board\n        _playerWillBeRemoved(playerAddress, gameID, zoneAlias);\n        playerCount[gameID][zoneAlias] = playerCount[gameID][zoneAlias] > 0\n            ? playerCount[gameID][zoneAlias] - 1\n            : 0;\n        _playerWasRemoved(playerAddress, gameID, zoneAlias);\n    }\n\n    // Override for custom game\n    function _playerWillEnter(\n        address playerAddress,\n        uint256 gameID,\n        string memory zoneAlias\n    ) internal virtual {}\n\n    function _playerDidEnter(\n        address playerAddress,\n        uint256 gameID,\n        string memory zoneAlias\n    ) internal virtual {}\n\n    function _playerWillExit(\n        address playerAddress,\n        uint256 gameID,\n        string memory zoneAlias\n    ) internal virtual {}\n\n    function _playerDidExit(\n        address playerAddress,\n        uint256 gameID,\n        string memory zoneAlias\n    ) internal virtual {}\n\n    function _playersWillEnter(\n        uint256 gameID,\n        uint256 groupID,\n        string memory zoneAlias\n    ) internal virtual {\n        // called when batch of players are being entered from lobby or previous zone\n        // individual player entries are called from _playerDidEnter\n    }\n\n    function _allPlayersEntered(\n        uint256 gameID,\n        uint256 groupID,\n        string memory zoneAlias\n    ) internal virtual {\n        // called after player group has all been entered\n    }\n\n    function _playerWillBeRemoved(\n        address playerAddress,\n        uint256 gameID,\n        string memory zoneAlias\n    ) internal virtual {}\n\n    function _playerWasRemoved(\n        address playerAddress,\n        uint256 gameID,\n        string memory zoneAlias\n    ) internal virtual {}\n\n    function _customAction(\n        string[] memory stringParams,\n        address[] memory addressParams,\n        uint256[] memory uintParams\n    ) internal virtual {\n        // should definitiely do some checks when implementing this function\n        // make sure the sender is correct and nothing malicious is going on\n    }\n}\n",
  "sourcePath": "@luckymachines/game-core/contracts/src/v0.0/PlayZone.sol",
  "compiler": {
    "name": "solc",
    "version": "0.8.11+commit.d7f03943.Emscripten.clang"
  },
  "schemaVersion": "3.4.2",
  "updatedAt": "2022-05-26T21:13:33.644Z",
  "devdoc": {
    "kind": "dev",
    "methods": {
      "getRoleAdmin(bytes32)": {
        "details": "Returns the admin role that controls `role`. See {grantRole} and {revokeRole}. To change a role's admin, use {_setRoleAdmin}."
      },
      "getRoleMember(bytes32,uint256)": {
        "details": "Returns one of the accounts that have `role`. `index` must be a value between 0 and {getRoleMemberCount}, non-inclusive. Role bearers are not sorted in any particular way, and their ordering may change at any point. WARNING: When using {getRoleMember} and {getRoleMemberCount}, make sure you perform all queries on the same block. See the following https://forum.openzeppelin.com/t/iterating-over-elements-on-enumerableset-in-openzeppelin-contracts/2296[forum post] for more information."
      },
      "getRoleMemberCount(bytes32)": {
        "details": "Returns the number of accounts that have `role`. Can be used together with {getRoleMember} to enumerate all bearers of a role."
      },
      "grantRole(bytes32,address)": {
        "details": "Grants `role` to `account`. If `account` had not been already granted `role`, emits a {RoleGranted} event. Requirements: - the caller must have ``role``'s admin role."
      },
      "hasRole(bytes32,address)": {
        "details": "Returns `true` if `account` has been granted `role`."
      },
      "renounceRole(bytes32,address)": {
        "details": "Revokes `role` from the calling account. Roles are often managed via {grantRole} and {revokeRole}: this function's purpose is to provide a mechanism for accounts to lose their privileges if they are compromised (such as when a trusted device is misplaced). If the calling account had been revoked `role`, emits a {RoleRevoked} event. Requirements: - the caller must be `account`."
      },
      "revokeRole(bytes32,address)": {
        "details": "Revokes `role` from `account`. If `account` had been granted `role`, emits a {RoleRevoked} event. Requirements: - the caller must have ``role``'s admin role."
      },
      "supportsInterface(bytes4)": {
        "details": "See {IERC165-supportsInterface}."
      }
    },
    "version": 1
  },
  "userdoc": {
    "kind": "user",
    "methods": {},
    "version": 1
  }
}