{
  "contractName": "PlayerWallet",
  "abi": [
    {
      "inputs": [],
      "stateMutability": "nonpayable",
      "type": "constructor"
    },
    {
      "anonymous": false,
      "inputs": [
        {
          "indexed": true,
          "internalType": "bytes32",
          "name": "role",
          "type": "bytes32"
        },
        {
          "indexed": true,
          "internalType": "bytes32",
          "name": "previousAdminRole",
          "type": "bytes32"
        },
        {
          "indexed": true,
          "internalType": "bytes32",
          "name": "newAdminRole",
          "type": "bytes32"
        }
      ],
      "name": "RoleAdminChanged",
      "type": "event"
    },
    {
      "anonymous": false,
      "inputs": [
        {
          "indexed": true,
          "internalType": "bytes32",
          "name": "role",
          "type": "bytes32"
        },
        {
          "indexed": true,
          "internalType": "address",
          "name": "account",
          "type": "address"
        },
        {
          "indexed": true,
          "internalType": "address",
          "name": "sender",
          "type": "address"
        }
      ],
      "name": "RoleGranted",
      "type": "event"
    },
    {
      "anonymous": false,
      "inputs": [
        {
          "indexed": true,
          "internalType": "bytes32",
          "name": "role",
          "type": "bytes32"
        },
        {
          "indexed": true,
          "internalType": "address",
          "name": "account",
          "type": "address"
        },
        {
          "indexed": true,
          "internalType": "address",
          "name": "sender",
          "type": "address"
        }
      ],
      "name": "RoleRevoked",
      "type": "event"
    },
    {
      "inputs": [],
      "name": "DEFAULT_ADMIN_ROLE",
      "outputs": [
        {
          "internalType": "bytes32",
          "name": "",
          "type": "bytes32"
        }
      ],
      "stateMutability": "view",
      "type": "function"
    },
    {
      "inputs": [
        {
          "internalType": "address[]",
          "name": "_tokenAddresses",
          "type": "address[]"
        },
        {
          "internalType": "string[]",
          "name": "_tokenTypes",
          "type": "string[]"
        }
      ],
      "name": "addTokenTypes",
      "outputs": [],
      "stateMutability": "nonpayable",
      "type": "function"
    },
    {
      "inputs": [
        {
          "internalType": "uint256",
          "name": "gameID",
          "type": "uint256"
        },
        {
          "internalType": "uint256",
          "name": "playerID",
          "type": "uint256"
        }
      ],
      "name": "allBalances",
      "outputs": [
        {
          "internalType": "address[]",
          "name": "addresses",
          "type": "address[]"
        },
        {
          "internalType": "string[]",
          "name": "types",
          "type": "string[]"
        },
        {
          "internalType": "uint256[]",
          "name": "balances",
          "type": "uint256[]"
        }
      ],
      "stateMutability": "view",
      "type": "function"
    },
    {
      "inputs": [
        {
          "internalType": "bytes32",
          "name": "role",
          "type": "bytes32"
        }
      ],
      "name": "getRoleAdmin",
      "outputs": [
        {
          "internalType": "bytes32",
          "name": "",
          "type": "bytes32"
        }
      ],
      "stateMutability": "view",
      "type": "function"
    },
    {
      "inputs": [
        {
          "internalType": "bytes32",
          "name": "role",
          "type": "bytes32"
        },
        {
          "internalType": "uint256",
          "name": "index",
          "type": "uint256"
        }
      ],
      "name": "getRoleMember",
      "outputs": [
        {
          "internalType": "address",
          "name": "",
          "type": "address"
        }
      ],
      "stateMutability": "view",
      "type": "function"
    },
    {
      "inputs": [
        {
          "internalType": "bytes32",
          "name": "role",
          "type": "bytes32"
        }
      ],
      "name": "getRoleMemberCount",
      "outputs": [
        {
          "internalType": "uint256",
          "name": "",
          "type": "uint256"
        }
      ],
      "stateMutability": "view",
      "type": "function"
    },
    {
      "inputs": [],
      "name": "getTokenAddresses",
      "outputs": [
        {
          "internalType": "address[]",
          "name": "",
          "type": "address[]"
        }
      ],
      "stateMutability": "view",
      "type": "function"
    },
    {
      "inputs": [],
      "name": "getTokenTypes",
      "outputs": [
        {
          "internalType": "string[]",
          "name": "",
          "type": "string[]"
        }
      ],
      "stateMutability": "view",
      "type": "function"
    },
    {
      "inputs": [
        {
          "internalType": "bytes32",
          "name": "role",
          "type": "bytes32"
        },
        {
          "internalType": "address",
          "name": "account",
          "type": "address"
        }
      ],
      "name": "grantRole",
      "outputs": [],
      "stateMutability": "nonpayable",
      "type": "function"
    },
    {
      "inputs": [
        {
          "internalType": "bytes32",
          "name": "role",
          "type": "bytes32"
        },
        {
          "internalType": "address",
          "name": "account",
          "type": "address"
        }
      ],
      "name": "hasRole",
      "outputs": [
        {
          "internalType": "bool",
          "name": "",
          "type": "bool"
        }
      ],
      "stateMutability": "view",
      "type": "function"
    },
    {
      "inputs": [
        {
          "internalType": "bytes32",
          "name": "role",
          "type": "bytes32"
        },
        {
          "internalType": "address",
          "name": "account",
          "type": "address"
        }
      ],
      "name": "renounceRole",
      "outputs": [],
      "stateMutability": "nonpayable",
      "type": "function"
    },
    {
      "inputs": [
        {
          "internalType": "bytes32",
          "name": "role",
          "type": "bytes32"
        },
        {
          "internalType": "address",
          "name": "account",
          "type": "address"
        }
      ],
      "name": "revokeRole",
      "outputs": [],
      "stateMutability": "nonpayable",
      "type": "function"
    },
    {
      "inputs": [
        {
          "internalType": "bytes4",
          "name": "interfaceId",
          "type": "bytes4"
        }
      ],
      "name": "supportsInterface",
      "outputs": [
        {
          "internalType": "bool",
          "name": "",
          "type": "bool"
        }
      ],
      "stateMutability": "view",
      "type": "function"
    },
    {
      "inputs": [
        {
          "internalType": "uint256",
          "name": "",
          "type": "uint256"
        }
      ],
      "name": "tokenAddresses",
      "outputs": [
        {
          "internalType": "address",
          "name": "",
          "type": "address"
        }
      ],
      "stateMutability": "view",
      "type": "function"
    },
    {
      "inputs": [
        {
          "internalType": "address",
          "name": "",
          "type": "address"
        },
        {
          "internalType": "string",
          "name": "",
          "type": "string"
        }
      ],
      "name": "tokenTypeSet",
      "outputs": [
        {
          "internalType": "bool",
          "name": "",
          "type": "bool"
        }
      ],
      "stateMutability": "view",
      "type": "function"
    },
    {
      "inputs": [
        {
          "internalType": "uint256",
          "name": "",
          "type": "uint256"
        }
      ],
      "name": "tokenTypes",
      "outputs": [
        {
          "internalType": "string",
          "name": "",
          "type": "string"
        }
      ],
      "stateMutability": "view",
      "type": "function"
    }
  ],
  "bytecode": "0x60806040523480156200001157600080fd5b506200003a60006200002b64010000000062000040810204565b64010000000062000044810204565b62000202565b3390565b6200005982826401000000006200005d810204565b5050565b62000077828264010000000062000a9f620000a482021704565b60008281526001602052604090206200009f908264010000000062000b236200014082021704565b505050565b620000b9828264010000000062000169810204565b6200005957600082815260208181526040808320600160a060020a03851684529091529020805460ff19166001179055620000fc64010000000062000040810204565b600160a060020a031681600160a060020a0316837f2f8788117e7eff1d82e926ec794901d17c78024a50270940304540a733656f0d60405160405180910390a45050565b60006200016083600160a060020a03841664010000000062000192810204565b90505b92915050565b600091825260208281526040808420600160a060020a0393909316845291905290205460ff1690565b6000620001a98383640100000000620001ea810204565b620001e15750815460018181018455600084815260208082209093018490558454848252828601909352604090209190915562000163565b50600062000163565b60009081526001919091016020526040902054151590565b6117fb80620002126000396000f3fe608060405234801561001057600080fd5b506004361061011d576000357c01000000000000000000000000000000000000000000000000000000009004806391d14854116100b4578063ca15c87311610083578063ca15c87314610292578063d547741f146102a5578063e5df8b84146102b8578063ee8c24b8146102cb57600080fd5b806391d148541461024f578063a217fddf14610262578063a3aabf991461026a578063c853a1d01461027d57600080fd5b806334ca0938116100f057806334ca0938146101b057806336568abe146101d257806354660dd0146101e55780639010d07c1461022457600080fd5b806301ffc9a714610122578063248a9ca31461014a5780632f2ff15d1461017b57806333f6832a14610190575b600080fd5b610135610130366004611136565b6102e0565b60405190151581526020015b60405180910390f35b61016d610158366004611160565b60009081526020819052604090206001015490565b604051908152602001610141565b61018e610189366004611195565b610324565b005b6101a361019e366004611160565b61034e565b6040516101419190611219565b6101c36101be36600461122c565b6103fa565b604051610141939291906112e6565b61018e6101e0366004611195565b610678565b6101356101f3366004611409565b6004602090815260009283526040909220815180830184018051928152908401929093019190912091525460ff1681565b61023761023236600461122c565b61070c565b604051600160a060020a039091168152602001610141565b61013561025d366004611195565b61072b565b61016d600081565b61018e610278366004611508565b610754565b6102856108fe565b60405161014191906115bb565b61016d6102a0366004611160565b6109d7565b61018e6102b3366004611195565b6109ee565b6102376102c6366004611160565b610a13565b6102d3610a3d565b60405161014191906115ce565b6000600160e060020a031982167f5a05180f00000000000000000000000000000000000000000000000000000000148061031e575061031e82610b38565b92915050565b60008281526020819052604090206001015461033f81610b9f565b6103498383610bac565b505050565b6003818154811061035e57600080fd5b906000526020600020016000915090508054610379906115e1565b80601f01602080910402602001604051908101604052809291908181526020018280546103a5906115e1565b80156103f25780601f106103c7576101008083540402835291602001916103f2565b820191906000526020600020905b8154815290600101906020018083116103d557829003601f168201915b505050505081565b6060806060600280548060200260200160405190810160405280929190818152602001828054801561045557602002820191906000526020600020905b8154600160a060020a03168152600190910190602001808311610437575b505050505092506003805480602002602001604051908101604052809291908181526020016000905b8282101561052a57838290600052602060002001805461049d906115e1565b80601f01602080910402602001604051908101604052809291908181526020018280546104c9906115e1565b80156105165780601f106104eb57610100808354040283529160200191610516565b820191906000526020600020905b8154815290600101906020018083116104f957829003601f168201915b50505050508152602001906001019061047e565b505050509150825167ffffffffffffffff81111561054a5761054a61134f565b604051908082528060200260200182016040528015610573578160200160208202803683370190505b50905060005b8351811015610670578381815181106105945761059461161f565b6020026020010151600160a060020a0316634db157d08483815181106105bc576105bc61161f565b602002602001015188886040518463ffffffff167c010000000000000000000000000000000000000000000000000000000002815260040161060093929190611638565b602060405180830381865afa15801561061d573d6000803e3d6000fd5b505050506040513d601f19601f82011682018060405250810190610641919061165d565b8282815181106106535761065361161f565b6020908102919091010152806106688161168f565b915050610579565b509250925092565b600160a060020a03811633146106fe5760405160e560020a62461bcd02815260206004820152602f60248201527f416363657373436f6e74726f6c3a2063616e206f6e6c792072656e6f756e636560448201527f20726f6c657320666f722073656c66000000000000000000000000000000000060648201526084015b60405180910390fd5b6107088282610bce565b5050565b60008281526001602052604081206107249083610bf0565b9392505050565b600091825260208281526040808420600160a060020a0393909316845291905290205460ff1690565b600061075f81610b9f565b600354600254146107b55760405160e560020a62461bcd02815260206004820152601560248201527f6172726179206c656e677468206d69736d61746368000000000000000000000060448201526064016106f5565b60005b6002548110156108f85760008482815181106107d6576107d661161f565b6020026020010151905060008483815181106107f4576107f461161f565b6020908102919091018101516002805460018082019092557f405787fa12a823e0f2b7631cc41b3ba8828b3321ca811111fa75cd3aa3bb5ace01805473ffffffffffffffffffffffffffffffffffffffff1916600160a060020a0387161790556003805491820181556000528151919350610897927fc2575a0e9e593c00f959f8c92f12db2869c3395a3b0502d05e2516446f71f85b909101919084019061109d565b50600160a060020a038216600090815260046020526040908190209051600191906108c39084906116aa565b908152604051908190036020019020805491151560ff19909216919091179055508190506108f08161168f565b9150506107b8565b50505050565b60606003805480602002602001604051908101604052809291908181526020016000905b828210156109ce578382906000526020600020018054610941906115e1565b80601f016020809104026020016040519081016040528092919081815260200182805461096d906115e1565b80156109ba5780601f1061098f576101008083540402835291602001916109ba565b820191906000526020600020905b81548152906001019060200180831161099d57829003601f168201915b505050505081526020019060010190610922565b50505050905090565b600081815260016020526040812061031e90610bfc565b600082815260208190526040902060010154610a0981610b9f565b6103498383610bce565b60028181548110610a2357600080fd5b600091825260209091200154600160a060020a0316905081565b60606002805480602002602001604051908101604052809291908181526020018280548015610a9557602002820191906000526020600020905b8154600160a060020a03168152600190910190602001808311610a77575b5050505050905090565b610aa9828261072b565b61070857600082815260208181526040808320600160a060020a03851684529091529020805460ff19166001179055610adf3390565b600160a060020a031681600160a060020a0316837f2f8788117e7eff1d82e926ec794901d17c78024a50270940304540a733656f0d60405160405180910390a45050565b600061072483600160a060020a038416610c06565b6000600160e060020a031982167f7965db0b00000000000000000000000000000000000000000000000000000000148061031e57507f01ffc9a700000000000000000000000000000000000000000000000000000000600160e060020a031983161461031e565b610ba98133610c55565b50565b610bb68282610a9f565b60008281526001602052604090206103499082610b23565b610bd88282610cbc565b60008281526001602052604090206103499082610d21565b60006107248383610d36565b600061031e825490565b6000818152600183016020526040812054610c4d5750815460018181018455600084815260208082209093018490558454848252828601909352604090209190915561031e565b50600061031e565b610c5f828261072b565b61070857610c7781600160a060020a03166014610d60565b610c82836020610d60565b604051602001610c939291906116c6565b60408051601f198184030181529082905260e560020a62461bcd0282526106f591600401611219565b610cc6828261072b565b1561070857600082815260208181526040808320600160a060020a0385168085529252808320805460ff1916905551339285917ff6391f5c32d9c69d2a47ea670b442974b53935d1edc7fd64eb21e047a839171b9190a45050565b600061072483600160a060020a038416610faa565b6000826000018281548110610d4d57610d4d61161f565b9060005260206000200154905092915050565b60606000610d6f836002611747565b610d7a906002611766565b67ffffffffffffffff811115610d9257610d9261134f565b6040519080825280601f01601f191660200182016040528015610dbc576020820181803683370190505b5090507f300000000000000000000000000000000000000000000000000000000000000081600081518110610df357610df361161f565b60200101907effffffffffffffffffffffffffffffffffffffffffffffffffffffffffffff1916908160001a9053507f780000000000000000000000000000000000000000000000000000000000000081600181518110610e5657610e5661161f565b60200101907effffffffffffffffffffffffffffffffffffffffffffffffffffffffffffff1916908160001a9053506000610e92846002611747565b610e9d906001611766565b90505b6001811115610f58577f303132333435363738396162636465660000000000000000000000000000000085600f1660108110610ede57610ede61161f565b1a7f010000000000000000000000000000000000000000000000000000000000000002828281518110610f1357610f1361161f565b60200101907effffffffffffffffffffffffffffffffffffffffffffffffffffffffffffff1916908160001a905350601090940493610f518161177e565b9050610ea0565b5083156107245760405160e560020a62461bcd02815260206004820181905260248201527f537472696e67733a20686578206c656e67746820696e73756666696369656e7460448201526064016106f5565b60008181526001830160205260408120548015611093576000610fce600183611795565b8554909150600090610fe290600190611795565b90508181146110475760008660000182815481106110025761100261161f565b90600052602060002001549050808760000184815481106110255761102561161f565b6000918252602080832090910192909255918252600188019052604090208390555b8554869080611058576110586117ac565b60019003818190600052602060002001600090559055856001016000868152602001908152602001600020600090556001935050505061031e565b600091505061031e565b8280546110a9906115e1565b90600052602060002090601f0160209004810192826110cb5760008555611111565b82601f106110e457805160ff1916838001178555611111565b82800160010185558215611111579182015b828111156111115782518255916020019190600101906110f6565b5061111d929150611121565b5090565b5b8082111561111d5760008155600101611122565b60006020828403121561114857600080fd5b8135600160e060020a03198116811461072457600080fd5b60006020828403121561117257600080fd5b5035919050565b8035600160a060020a038116811461119057600080fd5b919050565b600080604083850312156111a857600080fd5b823591506111b860208401611179565b90509250929050565b60005b838110156111dc5781810151838201526020016111c4565b838111156108f85750506000910152565b600081518084526112058160208601602086016111c1565b601f01601f19169290920160200192915050565b60208152600061072460208301846111ed565b6000806040838503121561123f57600080fd5b50508035926020909101359150565b600081518084526020808501945080840160005b83811015611287578151600160a060020a031687529582019590820190600101611262565b509495945050505050565b600081518084526020808501808196508284028101915082860160005b858110156112d95782840389526112c78483516111ed565b988501989350908401906001016112af565b5091979650505050505050565b6060815260006112f9606083018661124e565b60208382038185015261130c8287611292565b8481036040860152855180825282870193509082019060005b8181101561134157845183529383019391830191600101611325565b509098975050505050505050565b60e060020a634e487b7102600052604160045260246000fd5b604051601f8201601f1916810167ffffffffffffffff811182821017156113915761139161134f565b604052919050565b600082601f8301126113aa57600080fd5b813567ffffffffffffffff8111156113c4576113c461134f565b6113d7601f8201601f1916602001611368565b8181528460208386010111156113ec57600080fd5b816020850160208301376000918101602001919091529392505050565b6000806040838503121561141c57600080fd5b61142583611179565b9150602083013567ffffffffffffffff81111561144157600080fd5b61144d85828601611399565b9150509250929050565b600067ffffffffffffffff8211156114715761147161134f565b5060209081020190565b600082601f83011261148c57600080fd5b813560206114a161149c83611457565b611368565b828152918102840181019181810190868411156114bd57600080fd5b8286015b848110156114fd57803567ffffffffffffffff8111156114e15760008081fd5b6114ef8986838b0101611399565b8452509183019183016114c1565b509695505050505050565b6000806040838503121561151b57600080fd5b823567ffffffffffffffff8082111561153357600080fd5b818501915085601f83011261154757600080fd5b8135602061155761149c83611457565b8281529181028401810191818101908984111561157357600080fd5b948201945b838610156115985761158986611179565b82529482019490820190611578565b965050860135925050808211156115ae57600080fd5b5061144d8582860161147b565b6020815260006107246020830184611292565b602081526000610724602083018461124e565b6002810460018216806115f557607f821691505b602082108114156116195760e060020a634e487b7102600052602260045260246000fd5b50919050565b60e060020a634e487b7102600052603260045260246000fd5b60608152600061164b60608301866111ed565b60208301949094525060400152919050565b60006020828403121561166f57600080fd5b5051919050565b60e060020a634e487b7102600052601160045260246000fd5b60006000198214156116a3576116a3611676565b5060010190565b600082516116bc8184602087016111c1565b9190910192915050565b7f416363657373436f6e74726f6c3a206163636f756e74200000000000000000008152600083516116fe8160178501602088016111c1565b7f206973206d697373696e6720726f6c6520000000000000000000000000000000601791840191820152835161173b8160288401602088016111c1565b01602801949350505050565b600081600019048311821515161561176157611761611676565b500290565b6000821982111561177957611779611676565b500190565b60008161178d5761178d611676565b506000190190565b6000828210156117a7576117a7611676565b500390565b60e060020a634e487b7102600052603160045260246000fdfea264697066735822122006ff359d3f09f85aa1e3910083d10b40222c01bdccd629dc33665666c92cfd4064736f6c634300080b0033",
  "immutableReferences": {},
  "source": "// SPDX-License-Identifier: GPL-3.0\npragma solidity >=0.7.0 <0.9.0;\n\nimport \"./GameWallet.sol\";\n\ncontract PlayerWallet is GameWallet {\n    constructor() GameWallet() {}\n}\n",
  "sourcePath": "/Users/maxmeier/Developer/Lucky Machines/hexploration/contracts/state/PlayerWallet.sol",
  "compiler": {
    "name": "solc",
    "version": "0.8.11+commit.d7f03943.Emscripten.clang"
  },
  "schemaVersion": "3.4.4",
  "updatedAt": "2022-05-16T16:38:41.819Z",
  "devdoc": {
    "kind": "dev",
    "methods": {
      "getRoleAdmin(bytes32)": {
        "details": "Returns the admin role that controls `role`. See {grantRole} and {revokeRole}. To change a role's admin, use {_setRoleAdmin}."
      },
      "getRoleMember(bytes32,uint256)": {
        "details": "Returns one of the accounts that have `role`. `index` must be a value between 0 and {getRoleMemberCount}, non-inclusive. Role bearers are not sorted in any particular way, and their ordering may change at any point. WARNING: When using {getRoleMember} and {getRoleMemberCount}, make sure you perform all queries on the same block. See the following https://forum.openzeppelin.com/t/iterating-over-elements-on-enumerableset-in-openzeppelin-contracts/2296[forum post] for more information."
      },
      "getRoleMemberCount(bytes32)": {
        "details": "Returns the number of accounts that have `role`. Can be used together with {getRoleMember} to enumerate all bearers of a role."
      },
      "grantRole(bytes32,address)": {
        "details": "Grants `role` to `account`. If `account` had not been already granted `role`, emits a {RoleGranted} event. Requirements: - the caller must have ``role``'s admin role."
      },
      "hasRole(bytes32,address)": {
        "details": "Returns `true` if `account` has been granted `role`."
      },
      "renounceRole(bytes32,address)": {
        "details": "Revokes `role` from the calling account. Roles are often managed via {grantRole} and {revokeRole}: this function's purpose is to provide a mechanism for accounts to lose their privileges if they are compromised (such as when a trusted device is misplaced). If the calling account had been revoked `role`, emits a {RoleRevoked} event. Requirements: - the caller must be `account`."
      },
      "revokeRole(bytes32,address)": {
        "details": "Revokes `role` from `account`. If `account` had been granted `role`, emits a {RoleRevoked} event. Requirements: - the caller must have ``role``'s admin role."
      },
      "supportsInterface(bytes4)": {
        "details": "See {IERC165-supportsInterface}."
      }
    },
    "version": 1
  },
  "userdoc": {
    "kind": "user",
    "methods": {},
    "version": 1
  }
}