{
  "contractName": "PlayerRegistry",
  "abi": [
    {
      "inputs": [
        {
          "internalType": "address",
          "name": "gameBoardAddress",
          "type": "address"
        },
        {
          "internalType": "address",
          "name": "adminAddress",
          "type": "address"
        }
      ],
      "stateMutability": "nonpayable",
      "type": "constructor"
    },
    {
      "anonymous": false,
      "inputs": [
        {
          "indexed": true,
          "internalType": "bytes32",
          "name": "role",
          "type": "bytes32"
        },
        {
          "indexed": true,
          "internalType": "bytes32",
          "name": "previousAdminRole",
          "type": "bytes32"
        },
        {
          "indexed": true,
          "internalType": "bytes32",
          "name": "newAdminRole",
          "type": "bytes32"
        }
      ],
      "name": "RoleAdminChanged",
      "type": "event"
    },
    {
      "anonymous": false,
      "inputs": [
        {
          "indexed": true,
          "internalType": "bytes32",
          "name": "role",
          "type": "bytes32"
        },
        {
          "indexed": true,
          "internalType": "address",
          "name": "account",
          "type": "address"
        },
        {
          "indexed": true,
          "internalType": "address",
          "name": "sender",
          "type": "address"
        }
      ],
      "name": "RoleGranted",
      "type": "event"
    },
    {
      "anonymous": false,
      "inputs": [
        {
          "indexed": true,
          "internalType": "bytes32",
          "name": "role",
          "type": "bytes32"
        },
        {
          "indexed": true,
          "internalType": "address",
          "name": "account",
          "type": "address"
        },
        {
          "indexed": true,
          "internalType": "address",
          "name": "sender",
          "type": "address"
        }
      ],
      "name": "RoleRevoked",
      "type": "event"
    },
    {
      "inputs": [],
      "name": "DEFAULT_ADMIN_ROLE",
      "outputs": [
        {
          "internalType": "bytes32",
          "name": "",
          "type": "bytes32"
        }
      ],
      "stateMutability": "view",
      "type": "function"
    },
    {
      "inputs": [],
      "name": "GAME_BOARD_ROLE",
      "outputs": [
        {
          "internalType": "bytes32",
          "name": "",
          "type": "bytes32"
        }
      ],
      "stateMutability": "view",
      "type": "function"
    },
    {
      "inputs": [
        {
          "internalType": "bytes32",
          "name": "role",
          "type": "bytes32"
        }
      ],
      "name": "getRoleAdmin",
      "outputs": [
        {
          "internalType": "bytes32",
          "name": "",
          "type": "bytes32"
        }
      ],
      "stateMutability": "view",
      "type": "function"
    },
    {
      "inputs": [
        {
          "internalType": "bytes32",
          "name": "role",
          "type": "bytes32"
        },
        {
          "internalType": "uint256",
          "name": "index",
          "type": "uint256"
        }
      ],
      "name": "getRoleMember",
      "outputs": [
        {
          "internalType": "address",
          "name": "",
          "type": "address"
        }
      ],
      "stateMutability": "view",
      "type": "function"
    },
    {
      "inputs": [
        {
          "internalType": "bytes32",
          "name": "role",
          "type": "bytes32"
        }
      ],
      "name": "getRoleMemberCount",
      "outputs": [
        {
          "internalType": "uint256",
          "name": "",
          "type": "uint256"
        }
      ],
      "stateMutability": "view",
      "type": "function"
    },
    {
      "inputs": [
        {
          "internalType": "bytes32",
          "name": "role",
          "type": "bytes32"
        },
        {
          "internalType": "address",
          "name": "account",
          "type": "address"
        }
      ],
      "name": "grantRole",
      "outputs": [],
      "stateMutability": "nonpayable",
      "type": "function"
    },
    {
      "inputs": [
        {
          "internalType": "bytes32",
          "name": "role",
          "type": "bytes32"
        },
        {
          "internalType": "address",
          "name": "account",
          "type": "address"
        }
      ],
      "name": "hasRole",
      "outputs": [
        {
          "internalType": "bool",
          "name": "",
          "type": "bool"
        }
      ],
      "stateMutability": "view",
      "type": "function"
    },
    {
      "inputs": [
        {
          "internalType": "uint256",
          "name": "",
          "type": "uint256"
        },
        {
          "internalType": "address",
          "name": "",
          "type": "address"
        }
      ],
      "name": "isRegistered",
      "outputs": [
        {
          "internalType": "bool",
          "name": "",
          "type": "bool"
        }
      ],
      "stateMutability": "view",
      "type": "function"
    },
    {
      "inputs": [
        {
          "internalType": "uint256",
          "name": "",
          "type": "uint256"
        },
        {
          "internalType": "uint256",
          "name": "",
          "type": "uint256"
        }
      ],
      "name": "playerAddress",
      "outputs": [
        {
          "internalType": "address",
          "name": "",
          "type": "address"
        }
      ],
      "stateMutability": "view",
      "type": "function"
    },
    {
      "inputs": [
        {
          "internalType": "uint256",
          "name": "",
          "type": "uint256"
        },
        {
          "internalType": "address",
          "name": "",
          "type": "address"
        }
      ],
      "name": "playerID",
      "outputs": [
        {
          "internalType": "uint256",
          "name": "",
          "type": "uint256"
        }
      ],
      "stateMutability": "view",
      "type": "function"
    },
    {
      "inputs": [
        {
          "internalType": "uint256",
          "name": "",
          "type": "uint256"
        }
      ],
      "name": "registrationLimit",
      "outputs": [
        {
          "internalType": "uint256",
          "name": "",
          "type": "uint256"
        }
      ],
      "stateMutability": "view",
      "type": "function"
    },
    {
      "inputs": [
        {
          "internalType": "uint256",
          "name": "",
          "type": "uint256"
        }
      ],
      "name": "registrationLocked",
      "outputs": [
        {
          "internalType": "bool",
          "name": "",
          "type": "bool"
        }
      ],
      "stateMutability": "view",
      "type": "function"
    },
    {
      "inputs": [
        {
          "internalType": "bytes32",
          "name": "role",
          "type": "bytes32"
        },
        {
          "internalType": "address",
          "name": "account",
          "type": "address"
        }
      ],
      "name": "renounceRole",
      "outputs": [],
      "stateMutability": "nonpayable",
      "type": "function"
    },
    {
      "inputs": [
        {
          "internalType": "bytes32",
          "name": "role",
          "type": "bytes32"
        },
        {
          "internalType": "address",
          "name": "account",
          "type": "address"
        }
      ],
      "name": "revokeRole",
      "outputs": [],
      "stateMutability": "nonpayable",
      "type": "function"
    },
    {
      "inputs": [
        {
          "internalType": "bytes4",
          "name": "interfaceId",
          "type": "bytes4"
        }
      ],
      "name": "supportsInterface",
      "outputs": [
        {
          "internalType": "bool",
          "name": "",
          "type": "bool"
        }
      ],
      "stateMutability": "view",
      "type": "function"
    },
    {
      "inputs": [
        {
          "internalType": "uint256",
          "name": "",
          "type": "uint256"
        }
      ],
      "name": "totalRegistrations",
      "outputs": [
        {
          "internalType": "uint256",
          "name": "",
          "type": "uint256"
        }
      ],
      "stateMutability": "view",
      "type": "function"
    },
    {
      "inputs": [
        {
          "internalType": "address",
          "name": "_playerAddress",
          "type": "address"
        },
        {
          "internalType": "uint256",
          "name": "gameID",
          "type": "uint256"
        }
      ],
      "name": "canRegister",
      "outputs": [
        {
          "internalType": "bool",
          "name": "",
          "type": "bool"
        }
      ],
      "stateMutability": "view",
      "type": "function"
    },
    {
      "inputs": [
        {
          "internalType": "uint256",
          "name": "gameID",
          "type": "uint256"
        }
      ],
      "name": "register",
      "outputs": [],
      "stateMutability": "nonpayable",
      "type": "function"
    },
    {
      "inputs": [
        {
          "internalType": "address",
          "name": "_playerAddress",
          "type": "address"
        },
        {
          "internalType": "uint256",
          "name": "gameID",
          "type": "uint256"
        }
      ],
      "name": "registerPlayer",
      "outputs": [],
      "stateMutability": "nonpayable",
      "type": "function"
    },
    {
      "inputs": [
        {
          "internalType": "uint256",
          "name": "startingID",
          "type": "uint256"
        },
        {
          "internalType": "uint256",
          "name": "maxID",
          "type": "uint256"
        },
        {
          "internalType": "uint256",
          "name": "gameID",
          "type": "uint256"
        }
      ],
      "name": "playerAddressesInRange",
      "outputs": [
        {
          "internalType": "address[]",
          "name": "",
          "type": "address[]"
        }
      ],
      "stateMutability": "view",
      "type": "function"
    },
    {
      "inputs": [
        {
          "internalType": "uint256",
          "name": "gameID",
          "type": "uint256"
        }
      ],
      "name": "lockRegistration",
      "outputs": [],
      "stateMutability": "nonpayable",
      "type": "function"
    }
  ],
  "bytecode": "0x60806040523480156200001157600080fd5b506040516200151238038062001512833981016040819052620000349162000281565b60028054600160a060020a031916600160a060020a03841617905562000065600082640100000000620000a2810204565b6200009a7fa535732178231314b57938e75e1be42a0d0fac039993e1fa0eb22dcb94bce10783640100000000620000a2810204565b5050620002b9565b620000b78282640100000000620000bb810204565b5050565b620000d58282640100000000620007a66200010282021704565b6000828152600160205260409020620000fd90826401000000006200082a6200019e82021704565b505050565b620001178282640100000000620001c7810204565b620000b757600082815260208181526040808320600160a060020a03851684529091529020805460ff191660011790556200015a640100000000620001f0810204565b600160a060020a031681600160a060020a0316837f2f8788117e7eff1d82e926ec794901d17c78024a50270940304540a733656f0d60405160405180910390a45050565b6000620001be83600160a060020a038416640100000000620001f4810204565b90505b92915050565b600091825260208281526040808420600160a060020a0393909316845291905290205460ff1690565b3390565b60006200020b83836401000000006200024c810204565b6200024357508154600181810184556000848152602080822090930184905584548482528286019093526040902091909155620001c1565b506000620001c1565b60009081526001919091016020526040902054151590565b8051600160a060020a03811681146200027c57600080fd5b919050565b600080604083850312156200029557600080fd5b620002a08362000264565b9150620002b06020840162000264565b90509250929050565b61124980620002c96000396000f3fe608060405234801561001057600080fd5b5060043610610154576000357c0100000000000000000000000000000000000000000000000000000000900480639aabe36d116100d5578063bca7caa011610099578063bca7caa0146102fc578063c947f4b714610327578063ca15c8731461034a578063d547741f1461035d578063f207564e14610370578063f50432541461038357600080fd5b80639aabe36d14610280578063a217fddf14610293578063aae02ba41461029b578063b77ff411146102ae578063b81f6e18146102ce57600080fd5b80634a58dc111161011c5780634a58dc11146101fa57806360c205001461020f5780638c92423d146102225780639010d07c1461024257806391d148541461026d57600080fd5b806301ffc9a714610159578063248a9ca31461018157806328cd5ab7146101b25780632f2ff15d146101d257806336568abe146101e7575b600080fd5b61016c610167366004610ea6565b6103b7565b60405190151581526020015b60405180910390f35b6101a461018f366004610ed0565b60009081526020819052604090206001015490565b604051908152602001610178565b6101a46101c0366004610ed0565b60076020526000908152604090205481565b6101e56101e0366004610f05565b6103fb565b005b6101e56101f5366004610f05565b610425565b6101a46000805160206111f483398151915281565b6101e561021d366004610ed0565b6104b9565b610235610230366004610f31565b6104ed565b6040516101789190610f5d565b610255610250366004610faa565b610695565b604051600160a060020a039091168152602001610178565b61016c61027b366004610f05565b6106b4565b6101e561028e366004610fcc565b6106dd565b6101a4600081565b61016c6102a9366004610fcc565b610728565b6101a46102bc366004610ed0565b60066020526000908152604090205481565b61016c6102dc366004610f05565b600360209081526000928352604080842090915290825290205460ff1681565b6101a461030a366004610f05565b600460209081526000928352604080842090915290825290205481565b61016c610335366004610ed0565b60086020526000908152604090205460ff1681565b6101a4610358366004610ed0565b610734565b6101e561036b366004610f05565b61074b565b6101e561037e366004610ed0565b610770565b610255610391366004610faa565b6005602090815260009283526040808420909152908252902054600160a060020a031681565b6000600160e060020a031982167f5a05180f0000000000000000000000000000000000000000000000000000000014806103f557506103f58261083f565b92915050565b600082815260208190526040902060010154610416816108a6565b61042083836108b0565b505050565b600160a060020a03811633146104ab5760405160e560020a62461bcd02815260206004820152602f60248201527f416363657373436f6e74726f6c3a2063616e206f6e6c792072656e6f756e636560448201527f20726f6c657320666f722073656c66000000000000000000000000000000000060648201526084015b60405180910390fd5b6104b582826108d2565b5050565b6000805160206111f48339815191526104d1816108a6565b506000908152600860205260409020805460ff19166001179055565b6000818152600660205260409020546060908411156105515760405160e560020a62461bcd02815260206004820152601960248201527f7374617274696e67204944206f7574206f6620626f756e64730000000000000060448201526064016104a2565b838310156105a45760405160e560020a62461bcd02815260206004820152601260248201527f6d61784944203c207374617274696e674944000000000000000000000000000060448201526064016104a2565b8260006105b1868361100f565b6105bc906001611026565b905060008167ffffffffffffffff8111156105d9576105d961103e565b604051908082528060200260200182016040528015610602578160200160208202803683370190505b509050865b6106118389611026565b81101561068a576000610624828a61100f565b60008881526005602090815260408083208684529091529020548451919250600160a060020a03169084908390811061065f5761065f611057565b600160a060020a0390921660209283029190910190910152508061068281611070565b915050610607565b509695505050505050565b60008281526001602052604081206106ad90836108f4565b9392505050565b600091825260208281526040808420600160a060020a0393909316845291905290205460ff1690565b6000805160206111f48339815191526106f5816108a6565b6106ff8383610900565b61071e5760405160e560020a62461bcd0281526004016104a29061108b565b6104208284610978565b60006106ad8383610900565b60008181526001602052604081206103f590610a4d565b600082815260208190526040902060010154610766816108a6565b61042083836108d2565b61077a3382610900565b6107995760405160e560020a62461bcd0281526004016104a29061108b565b6107a38133610978565b50565b6107b082826106b4565b6104b557600082815260208181526040808320600160a060020a03851684529091529020805460ff191660011790556107e63390565b600160a060020a031681600160a060020a0316837f2f8788117e7eff1d82e926ec794901d17c78024a50270940304540a733656f0d60405160405180910390a45050565b60006106ad83600160a060020a038416610a57565b6000600160e060020a031982167f7965db0b0000000000000000000000000000000000000000000000000000000014806103f557507f01ffc9a700000000000000000000000000000000000000000000000000000000600160e060020a03198316146103f5565b6107a38133610aa6565b6108ba82826107a6565b6000828152600160205260409020610420908261082a565b6108dc8282610b0d565b60008281526001602052604090206104209082610b72565b60006106ad8383610b87565b6000600160a060020a0383161580610926575060008281526008602052604090205460ff165b61096f57600082815260076020526040902054158061095d5750600082815260066020908152604080832054600790925290912054115b6109685760006106ad565b60016106ad565b60009392505050565b6000828152600360209081526040808320600160a060020a038516845290915290205460ff166104b5576000828152600360209081526040808320600160a060020a03851684528252808320805460ff1916600190811790915585845260069092528220546109e691611026565b600084815260066020908152604080832084905560048252808320600160a060020a03871680855290835281842085905587845260058352818420948452939091529020805473ffffffffffffffffffffffffffffffffffffffff19169091179055505050565b60006103f5825490565b6000818152600183016020526040812054610a9e575081546001818101845560008481526020808220909301849055845484825282860190935260409020919091556103f5565b5060006103f5565b610ab082826106b4565b6104b557610ac881600160a060020a03166014610bb1565b610ad3836020610bb1565b604051602001610ae49291906110f0565b60408051601f198184030181529082905260e560020a62461bcd0282526104a291600401611171565b610b1782826106b4565b156104b557600082815260208181526040808320600160a060020a0385168085529252808320805460ff1916905551339285917ff6391f5c32d9c69d2a47ea670b442974b53935d1edc7fd64eb21e047a839171b9190a45050565b60006106ad83600160a060020a038416610db3565b6000826000018281548110610b9e57610b9e611057565b9060005260206000200154905092915050565b60606000610bc08360026111a4565b610bcb906002611026565b67ffffffffffffffff811115610be357610be361103e565b6040519080825280601f01601f191660200182016040528015610c0d576020820181803683370190505b5090507f300000000000000000000000000000000000000000000000000000000000000081600081518110610c4457610c44611057565b6020010190600160f860020a031916908160001a9053507f780000000000000000000000000000000000000000000000000000000000000081600181518110610c8f57610c8f611057565b6020010190600160f860020a031916908160001a9053506000610cb38460026111a4565b610cbe906001611026565b90505b6001811115610d61577f303132333435363738396162636465660000000000000000000000000000000085600f1660108110610cff57610cff611057565b1a7f010000000000000000000000000000000000000000000000000000000000000002828281518110610d3457610d34611057565b6020010190600160f860020a031916908160001a905350601090940493610d5a816111c3565b9050610cc1565b5083156106ad5760405160e560020a62461bcd02815260206004820181905260248201527f537472696e67733a20686578206c656e67746820696e73756666696369656e7460448201526064016104a2565b60008181526001830160205260408120548015610e9c576000610dd760018361100f565b8554909150600090610deb9060019061100f565b9050818114610e50576000866000018281548110610e0b57610e0b611057565b9060005260206000200154905080876000018481548110610e2e57610e2e611057565b6000918252602080832090910192909255918252600188019052604090208390555b8554869080610e6157610e616111da565b6001900381819060005260206000200160009055905585600101600086815260200190815260200160002060009055600193505050506103f5565b60009150506103f5565b600060208284031215610eb857600080fd5b8135600160e060020a0319811681146106ad57600080fd5b600060208284031215610ee257600080fd5b5035919050565b8035600160a060020a0381168114610f0057600080fd5b919050565b60008060408385031215610f1857600080fd5b82359150610f2860208401610ee9565b90509250929050565b600080600060608486031215610f4657600080fd5b505081359360208301359350604090920135919050565b6020808252825182820181905260009190848201906040850190845b81811015610f9e578351600160a060020a031683529284019291840191600101610f79565b50909695505050505050565b60008060408385031215610fbd57600080fd5b50508035926020909101359150565b60008060408385031215610fdf57600080fd5b610fe883610ee9565b946020939093013593505050565b60e060020a634e487b7102600052601160045260246000fd5b60008282101561102157611021610ff6565b500390565b6000821982111561103957611039610ff6565b500190565b60e060020a634e487b7102600052604160045260246000fd5b60e060020a634e487b7102600052603260045260246000fd5b600060001982141561108457611084610ff6565b5060010190565b6020808252818101527f506c61796572206e6f74207175616c696669656420746f207265676973746572604082015260600190565b60005b838110156110db5781810151838201526020016110c3565b838111156110ea576000848401525b50505050565b7f416363657373436f6e74726f6c3a206163636f756e74200000000000000000008152600083516111288160178501602088016110c0565b7f206973206d697373696e6720726f6c652000000000000000000000000000000060179184019182015283516111658160288401602088016110c0565b01602801949350505050565b60208152600082518060208401526111908160408501602087016110c0565b601f01601f19169190910160400192915050565b60008160001904831182151516156111be576111be610ff6565b500290565b6000816111d2576111d2610ff6565b506000190190565b60e060020a634e487b7102600052603160045260246000fdfea535732178231314b57938e75e1be42a0d0fac039993e1fa0eb22dcb94bce107a2646970667358221220a0e420ba9b2b5e0bbc2cb0d07bc6ba9660dbd92bd9a8b4a94a8b0687bb4092fc64736f6c634300080b0033",
  "immutableReferences": {},
  "source": "// SPDX-License-Identifier: GPL-3.0\npragma solidity >=0.7.0 <0.9.0;\n\nimport \"@openzeppelin/contracts/access/AccessControlEnumerable.sol\";\nimport \"./GameBoard.sol\";\n\n// Registry is tied to one game board\n// each registry can have custom rules for registration\n\ncontract PlayerRegistry is AccessControlEnumerable {\n    bytes32 public constant GAME_BOARD_ROLE = keccak256(\"GAME_BOARD_ROLE\");\n\n    GameBoard internal GAME_BOARD;\n\n    // Mappings from gameID\n    //  or [game ID][player address]\n    mapping(uint256 => mapping(address => bool)) public isRegistered;\n    mapping(uint256 => mapping(address => uint256)) public playerID;\n    mapping(uint256 => mapping(uint256 => address)) public playerAddress;\n    mapping(uint256 => uint256) public totalRegistrations;\n    mapping(uint256 => uint256) public registrationLimit;\n    mapping(uint256 => bool) public registrationLocked;\n\n    constructor(address gameBoardAddress, address adminAddress) {\n        GAME_BOARD = GameBoard(gameBoardAddress);\n        _setupRole(DEFAULT_ADMIN_ROLE, adminAddress);\n        _setupRole(GAME_BOARD_ROLE, gameBoardAddress);\n    }\n\n    function canRegister(address _playerAddress, uint256 gameID)\n        public\n        view\n        returns (bool)\n    {\n        return _canRegister(_playerAddress, gameID);\n    }\n\n    function register(uint256 gameID) public {\n        require(\n            _canRegister(msg.sender, gameID),\n            \"Player not qualified to register\"\n        );\n        _register(gameID, msg.sender);\n    }\n\n    function registerPlayer(address _playerAddress, uint256 gameID)\n        public\n        onlyRole(GAME_BOARD_ROLE)\n    {\n        require(\n            _canRegister(_playerAddress, gameID),\n            \"Player not qualified to register\"\n        );\n        _register(gameID, _playerAddress);\n    }\n\n    function playerAddressesInRange(\n        uint256 startingID,\n        uint256 maxID,\n        uint256 gameID\n    ) public view returns (address[] memory) {\n        require(\n            startingID <= totalRegistrations[gameID],\n            \"starting ID out of bounds\"\n        );\n        require(maxID >= startingID, \"maxID < startingID\");\n        // require starting ID exists\n        uint256 actualMaxID = maxID;\n        uint256 size = actualMaxID - startingID + 1;\n        address[] memory players = new address[](size);\n        for (uint256 i = startingID; i < startingID + size; i++) {\n            uint256 index = startingID - i;\n            players[index] = playerAddress[gameID][i];\n        }\n        return players;\n    }\n\n    // function registerPlayers(address[] memory playerAddresses, uint256 gameID)\n    //     public\n    //     onlyRole(REGISTRAR_ROLE)\n    // {\n    //     require(\n    //         _canRegister(playerAddress, gameID),\n    //         \"Player not qualified to register\"\n    //     );\n    //     isRegistered[gameID][playerAddress] = true;\n    // }\n\n    function lockRegistration(uint256 gameID)\n        external\n        onlyRole(GAME_BOARD_ROLE)\n    {\n        registrationLocked[gameID] = true;\n    }\n\n    function _register(uint256 gameID, address player) internal {\n        if (!isRegistered[gameID][player]) {\n            isRegistered[gameID][player] = true;\n            uint256 newID = totalRegistrations[gameID] + 1; // IDs start @ 1\n            totalRegistrations[gameID] = newID;\n            playerID[gameID][player] = newID;\n            playerAddress[gameID][newID] = player;\n        }\n    }\n\n    // override for custom registration behavior\n    function _canRegister(address _playerAddress, uint256 gameID)\n        internal\n        view\n        virtual\n        returns (bool playerCanRegister)\n    {\n        playerCanRegister = (_playerAddress == address(0) ||\n            registrationLocked[gameID])\n            ? false\n            : (registrationLimit[gameID] == 0 ||\n                registrationLimit[gameID] > totalRegistrations[gameID])\n            ? true\n            : false;\n    }\n}\n",
  "sourcePath": "@luckymachines/game-core/contracts/src/v0.0/PlayerRegistry.sol",
  "compiler": {
    "name": "solc",
    "version": "0.8.11+commit.d7f03943.Emscripten.clang"
  },
  "schemaVersion": "3.4.4",
  "updatedAt": "2022-05-27T21:02:42.986Z",
  "devdoc": {
    "kind": "dev",
    "methods": {
      "getRoleAdmin(bytes32)": {
        "details": "Returns the admin role that controls `role`. See {grantRole} and {revokeRole}. To change a role's admin, use {_setRoleAdmin}."
      },
      "getRoleMember(bytes32,uint256)": {
        "details": "Returns one of the accounts that have `role`. `index` must be a value between 0 and {getRoleMemberCount}, non-inclusive. Role bearers are not sorted in any particular way, and their ordering may change at any point. WARNING: When using {getRoleMember} and {getRoleMemberCount}, make sure you perform all queries on the same block. See the following https://forum.openzeppelin.com/t/iterating-over-elements-on-enumerableset-in-openzeppelin-contracts/2296[forum post] for more information."
      },
      "getRoleMemberCount(bytes32)": {
        "details": "Returns the number of accounts that have `role`. Can be used together with {getRoleMember} to enumerate all bearers of a role."
      },
      "grantRole(bytes32,address)": {
        "details": "Grants `role` to `account`. If `account` had not been already granted `role`, emits a {RoleGranted} event. Requirements: - the caller must have ``role``'s admin role."
      },
      "hasRole(bytes32,address)": {
        "details": "Returns `true` if `account` has been granted `role`."
      },
      "renounceRole(bytes32,address)": {
        "details": "Revokes `role` from the calling account. Roles are often managed via {grantRole} and {revokeRole}: this function's purpose is to provide a mechanism for accounts to lose their privileges if they are compromised (such as when a trusted device is misplaced). If the calling account had been revoked `role`, emits a {RoleRevoked} event. Requirements: - the caller must be `account`."
      },
      "revokeRole(bytes32,address)": {
        "details": "Revokes `role` from `account`. If `account` had been granted `role`, emits a {RoleRevoked} event. Requirements: - the caller must have ``role``'s admin role."
      },
      "supportsInterface(bytes4)": {
        "details": "See {IERC165-supportsInterface}."
      }
    },
    "version": 1
  },
  "userdoc": {
    "kind": "user",
    "methods": {},
    "version": 1
  }
}