{
  "contractName": "PlayerRegistry",
  "abi": [
    {
      "inputs": [
        {
          "internalType": "address",
          "name": "gameBoardAddress",
          "type": "address"
        },
        {
          "internalType": "address",
          "name": "adminAddress",
          "type": "address"
        }
      ],
      "stateMutability": "nonpayable",
      "type": "constructor"
    },
    {
      "anonymous": false,
      "inputs": [
        {
          "indexed": true,
          "internalType": "bytes32",
          "name": "role",
          "type": "bytes32"
        },
        {
          "indexed": true,
          "internalType": "bytes32",
          "name": "previousAdminRole",
          "type": "bytes32"
        },
        {
          "indexed": true,
          "internalType": "bytes32",
          "name": "newAdminRole",
          "type": "bytes32"
        }
      ],
      "name": "RoleAdminChanged",
      "type": "event"
    },
    {
      "anonymous": false,
      "inputs": [
        {
          "indexed": true,
          "internalType": "bytes32",
          "name": "role",
          "type": "bytes32"
        },
        {
          "indexed": true,
          "internalType": "address",
          "name": "account",
          "type": "address"
        },
        {
          "indexed": true,
          "internalType": "address",
          "name": "sender",
          "type": "address"
        }
      ],
      "name": "RoleGranted",
      "type": "event"
    },
    {
      "anonymous": false,
      "inputs": [
        {
          "indexed": true,
          "internalType": "bytes32",
          "name": "role",
          "type": "bytes32"
        },
        {
          "indexed": true,
          "internalType": "address",
          "name": "account",
          "type": "address"
        },
        {
          "indexed": true,
          "internalType": "address",
          "name": "sender",
          "type": "address"
        }
      ],
      "name": "RoleRevoked",
      "type": "event"
    },
    {
      "inputs": [],
      "name": "DEFAULT_ADMIN_ROLE",
      "outputs": [
        {
          "internalType": "bytes32",
          "name": "",
          "type": "bytes32"
        }
      ],
      "stateMutability": "view",
      "type": "function"
    },
    {
      "inputs": [],
      "name": "GAME_BOARD_ROLE",
      "outputs": [
        {
          "internalType": "bytes32",
          "name": "",
          "type": "bytes32"
        }
      ],
      "stateMutability": "view",
      "type": "function"
    },
    {
      "inputs": [],
      "name": "REGISTRAR_ROLE",
      "outputs": [
        {
          "internalType": "bytes32",
          "name": "",
          "type": "bytes32"
        }
      ],
      "stateMutability": "view",
      "type": "function"
    },
    {
      "inputs": [
        {
          "internalType": "bytes32",
          "name": "role",
          "type": "bytes32"
        }
      ],
      "name": "getRoleAdmin",
      "outputs": [
        {
          "internalType": "bytes32",
          "name": "",
          "type": "bytes32"
        }
      ],
      "stateMutability": "view",
      "type": "function"
    },
    {
      "inputs": [
        {
          "internalType": "bytes32",
          "name": "role",
          "type": "bytes32"
        },
        {
          "internalType": "uint256",
          "name": "index",
          "type": "uint256"
        }
      ],
      "name": "getRoleMember",
      "outputs": [
        {
          "internalType": "address",
          "name": "",
          "type": "address"
        }
      ],
      "stateMutability": "view",
      "type": "function"
    },
    {
      "inputs": [
        {
          "internalType": "bytes32",
          "name": "role",
          "type": "bytes32"
        }
      ],
      "name": "getRoleMemberCount",
      "outputs": [
        {
          "internalType": "uint256",
          "name": "",
          "type": "uint256"
        }
      ],
      "stateMutability": "view",
      "type": "function"
    },
    {
      "inputs": [
        {
          "internalType": "bytes32",
          "name": "role",
          "type": "bytes32"
        },
        {
          "internalType": "address",
          "name": "account",
          "type": "address"
        }
      ],
      "name": "grantRole",
      "outputs": [],
      "stateMutability": "nonpayable",
      "type": "function"
    },
    {
      "inputs": [
        {
          "internalType": "bytes32",
          "name": "role",
          "type": "bytes32"
        },
        {
          "internalType": "address",
          "name": "account",
          "type": "address"
        }
      ],
      "name": "hasRole",
      "outputs": [
        {
          "internalType": "bool",
          "name": "",
          "type": "bool"
        }
      ],
      "stateMutability": "view",
      "type": "function"
    },
    {
      "inputs": [
        {
          "internalType": "uint256",
          "name": "",
          "type": "uint256"
        },
        {
          "internalType": "address",
          "name": "",
          "type": "address"
        }
      ],
      "name": "isRegistered",
      "outputs": [
        {
          "internalType": "bool",
          "name": "",
          "type": "bool"
        }
      ],
      "stateMutability": "view",
      "type": "function"
    },
    {
      "inputs": [
        {
          "internalType": "uint256",
          "name": "",
          "type": "uint256"
        },
        {
          "internalType": "uint256",
          "name": "",
          "type": "uint256"
        }
      ],
      "name": "playerAddress",
      "outputs": [
        {
          "internalType": "address",
          "name": "",
          "type": "address"
        }
      ],
      "stateMutability": "view",
      "type": "function"
    },
    {
      "inputs": [
        {
          "internalType": "uint256",
          "name": "",
          "type": "uint256"
        },
        {
          "internalType": "address",
          "name": "",
          "type": "address"
        }
      ],
      "name": "playerID",
      "outputs": [
        {
          "internalType": "uint256",
          "name": "",
          "type": "uint256"
        }
      ],
      "stateMutability": "view",
      "type": "function"
    },
    {
      "inputs": [
        {
          "internalType": "uint256",
          "name": "",
          "type": "uint256"
        }
      ],
      "name": "registrationLimit",
      "outputs": [
        {
          "internalType": "uint256",
          "name": "",
          "type": "uint256"
        }
      ],
      "stateMutability": "view",
      "type": "function"
    },
    {
      "inputs": [
        {
          "internalType": "uint256",
          "name": "",
          "type": "uint256"
        }
      ],
      "name": "registrationLocked",
      "outputs": [
        {
          "internalType": "bool",
          "name": "",
          "type": "bool"
        }
      ],
      "stateMutability": "view",
      "type": "function"
    },
    {
      "inputs": [
        {
          "internalType": "bytes32",
          "name": "role",
          "type": "bytes32"
        },
        {
          "internalType": "address",
          "name": "account",
          "type": "address"
        }
      ],
      "name": "renounceRole",
      "outputs": [],
      "stateMutability": "nonpayable",
      "type": "function"
    },
    {
      "inputs": [
        {
          "internalType": "bytes32",
          "name": "role",
          "type": "bytes32"
        },
        {
          "internalType": "address",
          "name": "account",
          "type": "address"
        }
      ],
      "name": "revokeRole",
      "outputs": [],
      "stateMutability": "nonpayable",
      "type": "function"
    },
    {
      "inputs": [
        {
          "internalType": "bytes4",
          "name": "interfaceId",
          "type": "bytes4"
        }
      ],
      "name": "supportsInterface",
      "outputs": [
        {
          "internalType": "bool",
          "name": "",
          "type": "bool"
        }
      ],
      "stateMutability": "view",
      "type": "function"
    },
    {
      "inputs": [
        {
          "internalType": "uint256",
          "name": "",
          "type": "uint256"
        }
      ],
      "name": "totalRegistrations",
      "outputs": [
        {
          "internalType": "uint256",
          "name": "",
          "type": "uint256"
        }
      ],
      "stateMutability": "view",
      "type": "function"
    },
    {
      "inputs": [
        {
          "internalType": "address",
          "name": "_playerAddress",
          "type": "address"
        },
        {
          "internalType": "uint256",
          "name": "gameID",
          "type": "uint256"
        }
      ],
      "name": "canRegister",
      "outputs": [
        {
          "internalType": "bool",
          "name": "",
          "type": "bool"
        }
      ],
      "stateMutability": "view",
      "type": "function"
    },
    {
      "inputs": [
        {
          "internalType": "uint256",
          "name": "gameID",
          "type": "uint256"
        }
      ],
      "name": "register",
      "outputs": [],
      "stateMutability": "nonpayable",
      "type": "function"
    },
    {
      "inputs": [
        {
          "internalType": "address",
          "name": "_playerAddress",
          "type": "address"
        },
        {
          "internalType": "uint256",
          "name": "gameID",
          "type": "uint256"
        }
      ],
      "name": "registerPlayer",
      "outputs": [],
      "stateMutability": "nonpayable",
      "type": "function"
    },
    {
      "inputs": [
        {
          "internalType": "uint256",
          "name": "startingID",
          "type": "uint256"
        },
        {
          "internalType": "uint256",
          "name": "maxID",
          "type": "uint256"
        },
        {
          "internalType": "uint256",
          "name": "gameID",
          "type": "uint256"
        }
      ],
      "name": "playerAddressesInRange",
      "outputs": [
        {
          "internalType": "address[]",
          "name": "",
          "type": "address[]"
        }
      ],
      "stateMutability": "view",
      "type": "function"
    },
    {
      "inputs": [
        {
          "internalType": "uint256",
          "name": "gameID",
          "type": "uint256"
        }
      ],
      "name": "lockRegistration",
      "outputs": [],
      "stateMutability": "nonpayable",
      "type": "function"
    }
  ],
  "bytecode": "0x60806040523480156200001157600080fd5b50604051620025a9380380620025a98339818101604052810190620000379190620003f9565b81600260006101000a81548173ffffffffffffffffffffffffffffffffffffffff021916908373ffffffffffffffffffffffffffffffffffffffff1602179055506200008d6000801b82620000f960201b60201c565b620000bf7fedcc084d3dcd65a1f7f23c65c46722faca6953d28e43150a467cf43e5c30923882620000f960201b60201c565b620000f17fac6a0d6667c60d70be3305560c9f112013d4dd3d5fcf11d3001d0934d09b3fd583620000f960201b60201c565b505062000440565b6200010b82826200010f60201b60201c565b5050565b6200012682826200015760201b62000b351760201c565b6200015281600160008581526020019081526020016000206200024860201b62000c151790919060201c565b505050565b6200016982826200028060201b60201c565b6200024457600160008084815260200190815260200160002060000160008373ffffffffffffffffffffffffffffffffffffffff1673ffffffffffffffffffffffffffffffffffffffff16815260200190815260200160002060006101000a81548160ff021916908315150217905550620001e9620002ea60201b60201c565b73ffffffffffffffffffffffffffffffffffffffff168173ffffffffffffffffffffffffffffffffffffffff16837f2f8788117e7eff1d82e926ec794901d17c78024a50270940304540a733656f0d60405160405180910390a45b5050565b600062000278836000018373ffffffffffffffffffffffffffffffffffffffff1660001b620002f260201b60201c565b905092915050565b600080600084815260200190815260200160002060000160008373ffffffffffffffffffffffffffffffffffffffff1673ffffffffffffffffffffffffffffffffffffffff16815260200190815260200160002060009054906101000a900460ff16905092915050565b600033905090565b60006200030683836200036c60201b60201c565b6200036157826000018290806001815401808255809150506001900390600052602060002001600090919091909150558260000180549050836001016000848152602001908152602001600020819055506001905062000366565b600090505b92915050565b600080836001016000848152602001908152602001600020541415905092915050565b600080fd5b600073ffffffffffffffffffffffffffffffffffffffff82169050919050565b6000620003c18262000394565b9050919050565b620003d381620003b4565b8114620003df57600080fd5b50565b600081519050620003f381620003c8565b92915050565b600080604083850312156200041357620004126200038f565b5b60006200042385828601620003e2565b92505060206200043685828601620003e2565b9150509250929050565b61215980620004506000396000f3fe608060405234801561001057600080fd5b50600436106101425760003560e01c8063a217fddf116100b8578063c947f4b71161007c578063c947f4b7146103d3578063ca15c87314610403578063d547741f14610433578063f207564e1461044f578063f50432541461046b578063f68e95531461049b57610142565b8063a217fddf146102f5578063aae02ba414610313578063b77ff41114610343578063b81f6e1814610373578063bca7caa0146103a357610142565b80634a58dc111161010a5780634a58dc111461020f57806360c205001461022d5780638c92423d146102495780639010d07c1461027957806391d14854146102a95780639aabe36d146102d957610142565b806301ffc9a714610147578063248a9ca31461017757806328cd5ab7146101a75780632f2ff15d146101d757806336568abe146101f3575b600080fd5b610161600480360381019061015c919061168d565b6104b9565b60405161016e91906116d5565b60405180910390f35b610191600480360381019061018c9190611726565b610533565b60405161019e9190611762565b60405180910390f35b6101c160048036038101906101bc91906117b3565b610552565b6040516101ce91906117ef565b60405180910390f35b6101f160048036038101906101ec9190611868565b61056a565b005b61020d60048036038101906102089190611868565b61058b565b005b61021761060e565b6040516102249190611762565b60405180910390f35b610247600480360381019061024291906117b3565b610632565b005b610263600480360381019061025e91906118a8565b61068c565b60405161027091906119b9565b60405180910390f35b610293600480360381019061028e91906119db565b610872565b6040516102a09190611a2a565b60405180910390f35b6102c360048036038101906102be9190611868565b6108a1565b6040516102d091906116d5565b60405180910390f35b6102f360048036038101906102ee9190611a45565b61090b565b005b6102fd61098d565b60405161030a9190611762565b60405180910390f35b61032d60048036038101906103289190611a45565b610994565b60405161033a91906116d5565b60405180910390f35b61035d600480360381019061035891906117b3565b6109a8565b60405161036a91906117ef565b60405180910390f35b61038d60048036038101906103889190611a85565b6109c0565b60405161039a91906116d5565b60405180910390f35b6103bd60048036038101906103b89190611a85565b6109ef565b6040516103ca91906117ef565b60405180910390f35b6103ed60048036038101906103e891906117b3565b610a14565b6040516103fa91906116d5565b60405180910390f35b61041d60048036038101906104189190611726565b610a34565b60405161042a91906117ef565b60405180910390f35b61044d60048036038101906104489190611868565b610a58565b005b610469600480360381019061046491906117b3565b610a79565b005b61048560048036038101906104809190611ac5565b610acf565b6040516104929190611a2a565b60405180910390f35b6104a3610b11565b6040516104b09190611762565b60405180910390f35b60007f5a05180f000000000000000000000000000000000000000000000000000000007bffffffffffffffffffffffffffffffffffffffffffffffffffffffff1916827bffffffffffffffffffffffffffffffffffffffffffffffffffffffff1916148061052c575061052b82610c45565b5b9050919050565b6000806000838152602001908152602001600020600101549050919050565b60076020528060005260406000206000915090505481565b61057382610533565b61057c81610cbf565b6105868383610cd3565b505050565b610593610d07565b73ffffffffffffffffffffffffffffffffffffffff168173ffffffffffffffffffffffffffffffffffffffff1614610600576040517f08c379a00000000000000000000000000000000000000000000000000000000081526004016105f790611b88565b60405180910390fd5b61060a8282610d0f565b5050565b7fac6a0d6667c60d70be3305560c9f112013d4dd3d5fcf11d3001d0934d09b3fd581565b7fac6a0d6667c60d70be3305560c9f112013d4dd3d5fcf11d3001d0934d09b3fd561065c81610cbf565b60016008600084815260200190815260200160002060006101000a81548160ff0219169083151502179055505050565b606060066000838152602001908152602001600020548411156106e4576040517f08c379a00000000000000000000000000000000000000000000000000000000081526004016106db90611bf4565b60405180910390fd5b83831015610727576040517f08c379a000000000000000000000000000000000000000000000000000000000815260040161071e90611c60565b60405180910390fd5b600083905060006001868361073c9190611caf565b6107469190611ce3565b905060008167ffffffffffffffff81111561076457610763611d39565b5b6040519080825280602002602001820160405280156107925781602001602082028036833780820191505090505b50905060008790505b82886107a79190611ce3565b81101561086457600081896107bc9190611caf565b905060056000888152602001908152602001600020600083815260200190815260200160002060009054906101000a900473ffffffffffffffffffffffffffffffffffffffff1683828151811061081657610815611d68565b5b602002602001019073ffffffffffffffffffffffffffffffffffffffff16908173ffffffffffffffffffffffffffffffffffffffff168152505050808061085c90611d97565b91505061079b565b508093505050509392505050565b60006108998260016000868152602001908152602001600020610d4390919063ffffffff16565b905092915050565b600080600084815260200190815260200160002060000160008373ffffffffffffffffffffffffffffffffffffffff1673ffffffffffffffffffffffffffffffffffffffff16815260200190815260200160002060009054906101000a900460ff16905092915050565b7fedcc084d3dcd65a1f7f23c65c46722faca6953d28e43150a467cf43e5c30923861093581610cbf565b61093f8383610d5d565b61097e576040517f08c379a000000000000000000000000000000000000000000000000000000000815260040161097590611e2c565b60405180910390fd5b6109888284610e1f565b505050565b6000801b81565b60006109a08383610d5d565b905092915050565b60066020528060005260406000206000915090505481565b60036020528160005260406000206020528060005260406000206000915091509054906101000a900460ff1681565b6004602052816000526040600020602052806000526040600020600091509150505481565b60086020528060005260406000206000915054906101000a900460ff1681565b6000610a5160016000848152602001908152602001600020610fe4565b9050919050565b610a6182610533565b610a6a81610cbf565b610a748383610d0f565b505050565b610a833382610d5d565b610ac2576040517f08c379a0000000000000000000000000000000000000000000000000000000008152600401610ab990611e2c565b60405180910390fd5b610acc8133610e1f565b50565b60056020528160005260406000206020528060005260406000206000915091509054906101000a900473ffffffffffffffffffffffffffffffffffffffff1681565b7fedcc084d3dcd65a1f7f23c65c46722faca6953d28e43150a467cf43e5c30923881565b610b3f82826108a1565b610c1157600160008084815260200190815260200160002060000160008373ffffffffffffffffffffffffffffffffffffffff1673ffffffffffffffffffffffffffffffffffffffff16815260200190815260200160002060006101000a81548160ff021916908315150217905550610bb6610d07565b73ffffffffffffffffffffffffffffffffffffffff168173ffffffffffffffffffffffffffffffffffffffff16837f2f8788117e7eff1d82e926ec794901d17c78024a50270940304540a733656f0d60405160405180910390a45b5050565b6000610c3d836000018373ffffffffffffffffffffffffffffffffffffffff1660001b610ff9565b905092915050565b60007f7965db0b000000000000000000000000000000000000000000000000000000007bffffffffffffffffffffffffffffffffffffffffffffffffffffffff1916827bffffffffffffffffffffffffffffffffffffffffffffffffffffffff19161480610cb85750610cb782611069565b5b9050919050565b610cd081610ccb610d07565b6110d3565b50565b610cdd8282610b35565b610d028160016000858152602001908152602001600020610c1590919063ffffffff16565b505050565b600033905090565b610d198282611170565b610d3e816001600085815260200190815260200160002061125190919063ffffffff16565b505050565b6000610d528360000183611281565b60001c905092915050565b60008073ffffffffffffffffffffffffffffffffffffffff168373ffffffffffffffffffffffffffffffffffffffff161480610db657506008600083815260200190815260200160002060009054906101000a900460ff165b610e1457600060076000848152602001908152602001600020541480610e01575060066000838152602001908152602001600020546007600084815260200190815260200160002054115b610e0c576000610e0f565b60015b610e17565b60005b905092915050565b6003600083815260200190815260200160002060008273ffffffffffffffffffffffffffffffffffffffff1673ffffffffffffffffffffffffffffffffffffffff16815260200190815260200160002060009054906101000a900460ff16610fe05760016003600084815260200190815260200160002060008373ffffffffffffffffffffffffffffffffffffffff1673ffffffffffffffffffffffffffffffffffffffff16815260200190815260200160002060006101000a81548160ff021916908315150217905550600060016006600085815260200190815260200160002054610f0c9190611ce3565b9050806006600085815260200190815260200160002081905550806004600085815260200190815260200160002060008473ffffffffffffffffffffffffffffffffffffffff1673ffffffffffffffffffffffffffffffffffffffff168152602001908152602001600020819055508160056000858152602001908152602001600020600083815260200190815260200160002060006101000a81548173ffffffffffffffffffffffffffffffffffffffff021916908373ffffffffffffffffffffffffffffffffffffffff160217905550505b5050565b6000610ff2826000016112ac565b9050919050565b600061100583836112bd565b61105e578260000182908060018154018082558091505060019003906000526020600020016000909190919091505582600001805490508360010160008481526020019081526020016000208190555060019050611063565b600090505b92915050565b60007f01ffc9a7000000000000000000000000000000000000000000000000000000007bffffffffffffffffffffffffffffffffffffffffffffffffffffffff1916827bffffffffffffffffffffffffffffffffffffffffffffffffffffffff1916149050919050565b6110dd82826108a1565b61116c576111028173ffffffffffffffffffffffffffffffffffffffff1660146112e0565b6111108360001c60206112e0565b604051602001611121929190611f5e565b6040516020818303038152906040526040517f08c379a00000000000000000000000000000000000000000000000000000000081526004016111639190611fe2565b60405180910390fd5b5050565b61117a82826108a1565b1561124d57600080600084815260200190815260200160002060000160008373ffffffffffffffffffffffffffffffffffffffff1673ffffffffffffffffffffffffffffffffffffffff16815260200190815260200160002060006101000a81548160ff0219169083151502179055506111f2610d07565b73ffffffffffffffffffffffffffffffffffffffff168173ffffffffffffffffffffffffffffffffffffffff16837ff6391f5c32d9c69d2a47ea670b442974b53935d1edc7fd64eb21e047a839171b60405160405180910390a45b5050565b6000611279836000018373ffffffffffffffffffffffffffffffffffffffff1660001b61151c565b905092915050565b600082600001828154811061129957611298611d68565b5b9060005260206000200154905092915050565b600081600001805490509050919050565b600080836001016000848152602001908152602001600020541415905092915050565b6060600060028360026112f39190612004565b6112fd9190611ce3565b67ffffffffffffffff81111561131657611315611d39565b5b6040519080825280601f01601f1916602001820160405280156113485781602001600182028036833780820191505090505b5090507f3000000000000000000000000000000000000000000000000000000000000000816000815181106113805761137f611d68565b5b60200101907effffffffffffffffffffffffffffffffffffffffffffffffffffffffffffff1916908160001a9053507f7800000000000000000000000000000000000000000000000000000000000000816001815181106113e4576113e3611d68565b5b60200101907effffffffffffffffffffffffffffffffffffffffffffffffffffffffffffff1916908160001a905350600060018460026114249190612004565b61142e9190611ce3565b90505b60018111156114ce577f3031323334353637383961626364656600000000000000000000000000000000600f8616601081106114705761146f611d68565b5b1a60f81b82828151811061148757611486611d68565b5b60200101907effffffffffffffffffffffffffffffffffffffffffffffffffffffffffffff1916908160001a905350600485901c9450806114c79061205e565b9050611431565b5060008414611512576040517f08c379a0000000000000000000000000000000000000000000000000000000008152600401611509906120d4565b60405180910390fd5b8091505092915050565b6000808360010160008481526020019081526020016000205490506000811461162457600060018261154e9190611caf565b90506000600186600001805490506115669190611caf565b90508181146115d557600086600001828154811061158757611586611d68565b5b90600052602060002001549050808760000184815481106115ab576115aa611d68565b5b90600052602060002001819055508387600101600083815260200190815260200160002081905550505b856000018054806115e9576115e86120f4565b5b60019003818190600052602060002001600090559055856001016000868152602001908152602001600020600090556001935050505061162a565b60009150505b92915050565b600080fd5b60007fffffffff0000000000000000000000000000000000000000000000000000000082169050919050565b61166a81611635565b811461167557600080fd5b50565b60008135905061168781611661565b92915050565b6000602082840312156116a3576116a2611630565b5b60006116b184828501611678565b91505092915050565b60008115159050919050565b6116cf816116ba565b82525050565b60006020820190506116ea60008301846116c6565b92915050565b6000819050919050565b611703816116f0565b811461170e57600080fd5b50565b600081359050611720816116fa565b92915050565b60006020828403121561173c5761173b611630565b5b600061174a84828501611711565b91505092915050565b61175c816116f0565b82525050565b60006020820190506117776000830184611753565b92915050565b6000819050919050565b6117908161177d565b811461179b57600080fd5b50565b6000813590506117ad81611787565b92915050565b6000602082840312156117c9576117c8611630565b5b60006117d78482850161179e565b91505092915050565b6117e98161177d565b82525050565b600060208201905061180460008301846117e0565b92915050565b600073ffffffffffffffffffffffffffffffffffffffff82169050919050565b60006118358261180a565b9050919050565b6118458161182a565b811461185057600080fd5b50565b6000813590506118628161183c565b92915050565b6000806040838503121561187f5761187e611630565b5b600061188d85828601611711565b925050602061189e85828601611853565b9150509250929050565b6000806000606084860312156118c1576118c0611630565b5b60006118cf8682870161179e565b93505060206118e08682870161179e565b92505060406118f18682870161179e565b9150509250925092565b600081519050919050565b600082825260208201905092915050565b6000819050602082019050919050565b6119308161182a565b82525050565b60006119428383611927565b60208301905092915050565b6000602082019050919050565b6000611966826118fb565b6119708185611906565b935061197b83611917565b8060005b838110156119ac5781516119938882611936565b975061199e8361194e565b92505060018101905061197f565b5085935050505092915050565b600060208201905081810360008301526119d3818461195b565b905092915050565b600080604083850312156119f2576119f1611630565b5b6000611a0085828601611711565b9250506020611a118582860161179e565b9150509250929050565b611a248161182a565b82525050565b6000602082019050611a3f6000830184611a1b565b92915050565b60008060408385031215611a5c57611a5b611630565b5b6000611a6a85828601611853565b9250506020611a7b8582860161179e565b9150509250929050565b60008060408385031215611a9c57611a9b611630565b5b6000611aaa8582860161179e565b9250506020611abb85828601611853565b9150509250929050565b60008060408385031215611adc57611adb611630565b5b6000611aea8582860161179e565b9250506020611afb8582860161179e565b9150509250929050565b600082825260208201905092915050565b7f416363657373436f6e74726f6c3a2063616e206f6e6c792072656e6f756e636560008201527f20726f6c657320666f722073656c660000000000000000000000000000000000602082015250565b6000611b72602f83611b05565b9150611b7d82611b16565b604082019050919050565b60006020820190508181036000830152611ba181611b65565b9050919050565b7f7374617274696e67204944206f7574206f6620626f756e647300000000000000600082015250565b6000611bde601983611b05565b9150611be982611ba8565b602082019050919050565b60006020820190508181036000830152611c0d81611bd1565b9050919050565b7f6d61784944203c207374617274696e6749440000000000000000000000000000600082015250565b6000611c4a601283611b05565b9150611c5582611c14565b602082019050919050565b60006020820190508181036000830152611c7981611c3d565b9050919050565b7f4e487b7100000000000000000000000000000000000000000000000000000000600052601160045260246000fd5b6000611cba8261177d565b9150611cc58361177d565b925082821015611cd857611cd7611c80565b5b828203905092915050565b6000611cee8261177d565b9150611cf98361177d565b9250827fffffffffffffffffffffffffffffffffffffffffffffffffffffffffffffffff03821115611d2e57611d2d611c80565b5b828201905092915050565b7f4e487b7100000000000000000000000000000000000000000000000000000000600052604160045260246000fd5b7f4e487b7100000000000000000000000000000000000000000000000000000000600052603260045260246000fd5b6000611da28261177d565b91507fffffffffffffffffffffffffffffffffffffffffffffffffffffffffffffffff821415611dd557611dd4611c80565b5b600182019050919050565b7f506c61796572206e6f74207175616c696669656420746f207265676973746572600082015250565b6000611e16602083611b05565b9150611e2182611de0565b602082019050919050565b60006020820190508181036000830152611e4581611e09565b9050919050565b600081905092915050565b7f416363657373436f6e74726f6c3a206163636f756e7420000000000000000000600082015250565b6000611e8d601783611e4c565b9150611e9882611e57565b601782019050919050565b600081519050919050565b60005b83811015611ecc578082015181840152602081019050611eb1565b83811115611edb576000848401525b50505050565b6000611eec82611ea3565b611ef68185611e4c565b9350611f06818560208601611eae565b80840191505092915050565b7f206973206d697373696e6720726f6c6520000000000000000000000000000000600082015250565b6000611f48601183611e4c565b9150611f5382611f12565b601182019050919050565b6000611f6982611e80565b9150611f758285611ee1565b9150611f8082611f3b565b9150611f8c8284611ee1565b91508190509392505050565b6000601f19601f8301169050919050565b6000611fb482611ea3565b611fbe8185611b05565b9350611fce818560208601611eae565b611fd781611f98565b840191505092915050565b60006020820190508181036000830152611ffc8184611fa9565b905092915050565b600061200f8261177d565b915061201a8361177d565b9250817fffffffffffffffffffffffffffffffffffffffffffffffffffffffffffffffff048311821515161561205357612052611c80565b5b828202905092915050565b60006120698261177d565b9150600082141561207d5761207c611c80565b5b600182039050919050565b7f537472696e67733a20686578206c656e67746820696e73756666696369656e74600082015250565b60006120be602083611b05565b91506120c982612088565b602082019050919050565b600060208201905081810360008301526120ed816120b1565b9050919050565b7f4e487b7100000000000000000000000000000000000000000000000000000000600052603160045260246000fdfea2646970667358221220c61da864948ccef59dbfe3fb729c4031b916a33c0767fad1c94bd7d388f9a30564736f6c634300080b0033",
  "immutableReferences": {},
  "source": "// SPDX-License-Identifier: GPL-3.0\npragma solidity >=0.7.0 <0.9.0;\n\nimport \"@openzeppelin/contracts/access/AccessControlEnumerable.sol\";\nimport \"./GameBoard.sol\";\n\n// Registry is tied to one game board\n// each registry can have custom rules for registration\n\ncontract PlayerRegistry is AccessControlEnumerable {\n    bytes32 public constant REGISTRAR_ROLE = keccak256(\"REGISTRAR_ROLE\");\n    bytes32 public constant GAME_BOARD_ROLE = keccak256(\"GAMEBOARD_ROLE\");\n\n    GameBoard internal GAME_BOARD;\n\n    // Mappings from gameID\n    //  or [game ID][player address]\n    mapping(uint256 => mapping(address => bool)) public isRegistered;\n    mapping(uint256 => mapping(address => uint256)) public playerID;\n    mapping(uint256 => mapping(uint256 => address)) public playerAddress;\n    mapping(uint256 => uint256) public totalRegistrations;\n    mapping(uint256 => uint256) public registrationLimit;\n    mapping(uint256 => bool) public registrationLocked;\n\n    constructor(address gameBoardAddress, address adminAddress) {\n        GAME_BOARD = GameBoard(gameBoardAddress);\n        _setupRole(DEFAULT_ADMIN_ROLE, adminAddress);\n        _setupRole(REGISTRAR_ROLE, adminAddress);\n        _setupRole(GAME_BOARD_ROLE, gameBoardAddress);\n    }\n\n    function canRegister(address _playerAddress, uint256 gameID)\n        public\n        view\n        returns (bool)\n    {\n        return _canRegister(_playerAddress, gameID);\n    }\n\n    function register(uint256 gameID) public {\n        require(\n            _canRegister(msg.sender, gameID),\n            \"Player not qualified to register\"\n        );\n        _register(gameID, msg.sender);\n    }\n\n    function registerPlayer(address _playerAddress, uint256 gameID)\n        public\n        onlyRole(REGISTRAR_ROLE)\n    {\n        require(\n            _canRegister(_playerAddress, gameID),\n            \"Player not qualified to register\"\n        );\n        _register(gameID, _playerAddress);\n    }\n\n    function playerAddressesInRange(\n        uint256 startingID,\n        uint256 maxID,\n        uint256 gameID\n    ) public view returns (address[] memory) {\n        require(\n            startingID <= totalRegistrations[gameID],\n            \"starting ID out of bounds\"\n        );\n        require(maxID >= startingID, \"maxID < startingID\");\n        // require starting ID exists\n        uint256 actualMaxID = maxID;\n        uint256 size = actualMaxID - startingID + 1;\n        address[] memory players = new address[](size);\n        for (uint256 i = startingID; i < startingID + size; i++) {\n            uint256 index = startingID - i;\n            players[index] = playerAddress[gameID][i];\n        }\n        return players;\n    }\n\n    // function registerPlayers(address[] memory playerAddresses, uint256 gameID)\n    //     public\n    //     onlyRole(REGISTRAR_ROLE)\n    // {\n    //     require(\n    //         _canRegister(playerAddress, gameID),\n    //         \"Player not qualified to register\"\n    //     );\n    //     isRegistered[gameID][playerAddress] = true;\n    // }\n\n    function lockRegistration(uint256 gameID)\n        external\n        onlyRole(GAME_BOARD_ROLE)\n    {\n        registrationLocked[gameID] = true;\n    }\n\n    function _register(uint256 gameID, address player) internal {\n        if (!isRegistered[gameID][player]) {\n            isRegistered[gameID][player] = true;\n            uint256 newID = totalRegistrations[gameID] + 1; // IDs start @ 1\n            totalRegistrations[gameID] = newID;\n            playerID[gameID][player] = newID;\n            playerAddress[gameID][newID] = player;\n        }\n    }\n\n    // override for custom registration behavior\n    function _canRegister(address _playerAddress, uint256 gameID)\n        internal\n        view\n        virtual\n        returns (bool playerCanRegister)\n    {\n        playerCanRegister = (_playerAddress == address(0) ||\n            registrationLocked[gameID])\n            ? false\n            : (registrationLimit[gameID] == 0 ||\n                registrationLimit[gameID] > totalRegistrations[gameID])\n            ? true\n            : false;\n    }\n}\n",
  "sourcePath": "@luckymachines/game-core/contracts/src/v0.0/PlayerRegistry.sol",
  "compiler": {
    "name": "solc",
    "version": "0.8.11+commit.d7f03943.Emscripten.clang"
  },
  "schemaVersion": "3.4.4",
  "updatedAt": "2022-05-02T05:10:56.308Z",
  "devdoc": {
    "kind": "dev",
    "methods": {
      "getRoleAdmin(bytes32)": {
        "details": "Returns the admin role that controls `role`. See {grantRole} and {revokeRole}. To change a role's admin, use {_setRoleAdmin}."
      },
      "getRoleMember(bytes32,uint256)": {
        "details": "Returns one of the accounts that have `role`. `index` must be a value between 0 and {getRoleMemberCount}, non-inclusive. Role bearers are not sorted in any particular way, and their ordering may change at any point. WARNING: When using {getRoleMember} and {getRoleMemberCount}, make sure you perform all queries on the same block. See the following https://forum.openzeppelin.com/t/iterating-over-elements-on-enumerableset-in-openzeppelin-contracts/2296[forum post] for more information."
      },
      "getRoleMemberCount(bytes32)": {
        "details": "Returns the number of accounts that have `role`. Can be used together with {getRoleMember} to enumerate all bearers of a role."
      },
      "grantRole(bytes32,address)": {
        "details": "Grants `role` to `account`. If `account` had not been already granted `role`, emits a {RoleGranted} event. Requirements: - the caller must have ``role``'s admin role."
      },
      "hasRole(bytes32,address)": {
        "details": "Returns `true` if `account` has been granted `role`."
      },
      "renounceRole(bytes32,address)": {
        "details": "Revokes `role` from the calling account. Roles are often managed via {grantRole} and {revokeRole}: this function's purpose is to provide a mechanism for accounts to lose their privileges if they are compromised (such as when a trusted device is misplaced). If the calling account had been revoked `role`, emits a {RoleRevoked} event. Requirements: - the caller must be `account`."
      },
      "revokeRole(bytes32,address)": {
        "details": "Revokes `role` from `account`. If `account` had been granted `role`, emits a {RoleRevoked} event. Requirements: - the caller must have ``role``'s admin role."
      },
      "supportsInterface(bytes4)": {
        "details": "See {IERC165-supportsInterface}."
      }
    },
    "version": 1
  },
  "userdoc": {
    "kind": "user",
    "methods": {},
    "version": 1
  }
}