{
  "contractName": "PlayZone",
  "abi": [
    {
      "inputs": [
        {
          "internalType": "address",
          "name": "_rulesetAddress",
          "type": "address"
        },
        {
          "internalType": "address",
          "name": "_gameRegistryAddress",
          "type": "address"
        },
        {
          "internalType": "address",
          "name": "adminAddress",
          "type": "address"
        },
        {
          "internalType": "address",
          "name": "factoryAddress",
          "type": "address"
        }
      ],
      "stateMutability": "nonpayable",
      "type": "constructor"
    },
    {
      "anonymous": false,
      "inputs": [
        {
          "indexed": true,
          "internalType": "bytes32",
          "name": "role",
          "type": "bytes32"
        },
        {
          "indexed": true,
          "internalType": "bytes32",
          "name": "previousAdminRole",
          "type": "bytes32"
        },
        {
          "indexed": true,
          "internalType": "bytes32",
          "name": "newAdminRole",
          "type": "bytes32"
        }
      ],
      "name": "RoleAdminChanged",
      "type": "event"
    },
    {
      "anonymous": false,
      "inputs": [
        {
          "indexed": true,
          "internalType": "bytes32",
          "name": "role",
          "type": "bytes32"
        },
        {
          "indexed": true,
          "internalType": "address",
          "name": "account",
          "type": "address"
        },
        {
          "indexed": true,
          "internalType": "address",
          "name": "sender",
          "type": "address"
        }
      ],
      "name": "RoleGranted",
      "type": "event"
    },
    {
      "anonymous": false,
      "inputs": [
        {
          "indexed": true,
          "internalType": "bytes32",
          "name": "role",
          "type": "bytes32"
        },
        {
          "indexed": true,
          "internalType": "address",
          "name": "account",
          "type": "address"
        },
        {
          "indexed": true,
          "internalType": "address",
          "name": "sender",
          "type": "address"
        }
      ],
      "name": "RoleRevoked",
      "type": "event"
    },
    {
      "inputs": [],
      "name": "DEFAULT_ADMIN_ROLE",
      "outputs": [
        {
          "internalType": "bytes32",
          "name": "",
          "type": "bytes32"
        }
      ],
      "stateMutability": "view",
      "type": "function"
    },
    {
      "inputs": [],
      "name": "FACTORY_ROLE",
      "outputs": [
        {
          "internalType": "bytes32",
          "name": "",
          "type": "bytes32"
        }
      ],
      "stateMutability": "view",
      "type": "function"
    },
    {
      "inputs": [],
      "name": "GAME_BOARD_ROLE",
      "outputs": [
        {
          "internalType": "bytes32",
          "name": "",
          "type": "bytes32"
        }
      ],
      "stateMutability": "view",
      "type": "function"
    },
    {
      "inputs": [
        {
          "internalType": "uint256",
          "name": "",
          "type": "uint256"
        },
        {
          "internalType": "string",
          "name": "",
          "type": "string"
        }
      ],
      "name": "entryCount",
      "outputs": [
        {
          "internalType": "uint256",
          "name": "",
          "type": "uint256"
        }
      ],
      "stateMutability": "view",
      "type": "function"
    },
    {
      "inputs": [
        {
          "internalType": "uint256",
          "name": "",
          "type": "uint256"
        },
        {
          "internalType": "string",
          "name": "",
          "type": "string"
        }
      ],
      "name": "exitCount",
      "outputs": [
        {
          "internalType": "uint256",
          "name": "",
          "type": "uint256"
        }
      ],
      "stateMutability": "view",
      "type": "function"
    },
    {
      "inputs": [],
      "name": "gameRegistryAddress",
      "outputs": [
        {
          "internalType": "address",
          "name": "",
          "type": "address"
        }
      ],
      "stateMutability": "view",
      "type": "function"
    },
    {
      "inputs": [
        {
          "internalType": "bytes32",
          "name": "role",
          "type": "bytes32"
        }
      ],
      "name": "getRoleAdmin",
      "outputs": [
        {
          "internalType": "bytes32",
          "name": "",
          "type": "bytes32"
        }
      ],
      "stateMutability": "view",
      "type": "function"
    },
    {
      "inputs": [
        {
          "internalType": "bytes32",
          "name": "role",
          "type": "bytes32"
        },
        {
          "internalType": "uint256",
          "name": "index",
          "type": "uint256"
        }
      ],
      "name": "getRoleMember",
      "outputs": [
        {
          "internalType": "address",
          "name": "",
          "type": "address"
        }
      ],
      "stateMutability": "view",
      "type": "function"
    },
    {
      "inputs": [
        {
          "internalType": "bytes32",
          "name": "role",
          "type": "bytes32"
        }
      ],
      "name": "getRoleMemberCount",
      "outputs": [
        {
          "internalType": "uint256",
          "name": "",
          "type": "uint256"
        }
      ],
      "stateMutability": "view",
      "type": "function"
    },
    {
      "inputs": [
        {
          "internalType": "bytes32",
          "name": "role",
          "type": "bytes32"
        },
        {
          "internalType": "address",
          "name": "account",
          "type": "address"
        }
      ],
      "name": "grantRole",
      "outputs": [],
      "stateMutability": "nonpayable",
      "type": "function"
    },
    {
      "inputs": [
        {
          "internalType": "bytes32",
          "name": "role",
          "type": "bytes32"
        },
        {
          "internalType": "address",
          "name": "account",
          "type": "address"
        }
      ],
      "name": "hasRole",
      "outputs": [
        {
          "internalType": "bool",
          "name": "",
          "type": "bool"
        }
      ],
      "stateMutability": "view",
      "type": "function"
    },
    {
      "inputs": [
        {
          "internalType": "uint256",
          "name": "",
          "type": "uint256"
        },
        {
          "internalType": "string",
          "name": "",
          "type": "string"
        }
      ],
      "name": "playerCount",
      "outputs": [
        {
          "internalType": "uint256",
          "name": "",
          "type": "uint256"
        }
      ],
      "stateMutability": "view",
      "type": "function"
    },
    {
      "inputs": [
        {
          "internalType": "bytes32",
          "name": "role",
          "type": "bytes32"
        },
        {
          "internalType": "address",
          "name": "account",
          "type": "address"
        }
      ],
      "name": "renounceRole",
      "outputs": [],
      "stateMutability": "nonpayable",
      "type": "function"
    },
    {
      "inputs": [
        {
          "internalType": "bytes32",
          "name": "role",
          "type": "bytes32"
        },
        {
          "internalType": "address",
          "name": "account",
          "type": "address"
        }
      ],
      "name": "revokeRole",
      "outputs": [],
      "stateMutability": "nonpayable",
      "type": "function"
    },
    {
      "inputs": [
        {
          "internalType": "uint256",
          "name": "",
          "type": "uint256"
        },
        {
          "internalType": "string",
          "name": "",
          "type": "string"
        }
      ],
      "name": "ruleset",
      "outputs": [
        {
          "internalType": "uint256",
          "name": "",
          "type": "uint256"
        }
      ],
      "stateMutability": "view",
      "type": "function"
    },
    {
      "inputs": [],
      "name": "rulesetAddress",
      "outputs": [
        {
          "internalType": "address",
          "name": "",
          "type": "address"
        }
      ],
      "stateMutability": "view",
      "type": "function"
    },
    {
      "inputs": [],
      "name": "rulesetVersion",
      "outputs": [
        {
          "internalType": "uint256",
          "name": "",
          "type": "uint256"
        }
      ],
      "stateMutability": "view",
      "type": "function"
    },
    {
      "inputs": [
        {
          "internalType": "bytes4",
          "name": "interfaceId",
          "type": "bytes4"
        }
      ],
      "name": "supportsInterface",
      "outputs": [
        {
          "internalType": "bool",
          "name": "",
          "type": "bool"
        }
      ],
      "stateMutability": "view",
      "type": "function"
    },
    {
      "inputs": [
        {
          "internalType": "address",
          "name": "gameBoardAddress",
          "type": "address"
        }
      ],
      "name": "addGameBoard",
      "outputs": [],
      "stateMutability": "nonpayable",
      "type": "function"
    },
    {
      "inputs": [
        {
          "internalType": "address",
          "name": "gameBoardAddress",
          "type": "address"
        }
      ],
      "name": "removeGameBoard",
      "outputs": [],
      "stateMutability": "nonpayable",
      "type": "function"
    },
    {
      "inputs": [
        {
          "internalType": "uint256",
          "name": "rulesetID",
          "type": "uint256"
        },
        {
          "internalType": "uint256",
          "name": "gameID",
          "type": "uint256"
        },
        {
          "internalType": "string",
          "name": "zoneAlias",
          "type": "string"
        }
      ],
      "name": "setRules",
      "outputs": [],
      "stateMutability": "nonpayable",
      "type": "function"
    },
    {
      "inputs": [
        {
          "internalType": "uint256",
          "name": "exitPathIndex",
          "type": "uint256"
        },
        {
          "internalType": "uint256",
          "name": "gameID",
          "type": "uint256"
        },
        {
          "internalType": "address",
          "name": "gameBoardAddress",
          "type": "address"
        }
      ],
      "name": "attemptExit",
      "outputs": [],
      "stateMutability": "nonpayable",
      "type": "function"
    },
    {
      "inputs": [
        {
          "internalType": "address",
          "name": "playerAddress",
          "type": "address"
        },
        {
          "internalType": "uint256",
          "name": "exitPathIndex",
          "type": "uint256"
        },
        {
          "internalType": "uint256",
          "name": "gameID",
          "type": "uint256"
        },
        {
          "internalType": "string",
          "name": "zoneAlias",
          "type": "string"
        },
        {
          "internalType": "address",
          "name": "gameBoardAddress",
          "type": "address"
        }
      ],
      "name": "attemptExitFor",
      "outputs": [],
      "stateMutability": "nonpayable",
      "type": "function"
    },
    {
      "inputs": [
        {
          "internalType": "string[]",
          "name": "stringParams",
          "type": "string[]"
        },
        {
          "internalType": "address[]",
          "name": "addressParams",
          "type": "address[]"
        },
        {
          "internalType": "uint256[]",
          "name": "uintParams",
          "type": "uint256[]"
        }
      ],
      "name": "performCustomAction",
      "outputs": [],
      "stateMutability": "nonpayable",
      "type": "function"
    },
    {
      "inputs": [],
      "name": "playersInZone",
      "outputs": [
        {
          "internalType": "uint256[]",
          "name": "",
          "type": "uint256[]"
        }
      ],
      "stateMutability": "view",
      "type": "function"
    },
    {
      "inputs": [
        {
          "internalType": "address",
          "name": "playerAddress",
          "type": "address"
        },
        {
          "internalType": "uint256",
          "name": "gameID",
          "type": "uint256"
        },
        {
          "internalType": "string",
          "name": "zoneAlias",
          "type": "string"
        }
      ],
      "name": "playerCanEnter",
      "outputs": [
        {
          "internalType": "bool",
          "name": "canEnter",
          "type": "bool"
        }
      ],
      "stateMutability": "view",
      "type": "function"
    },
    {
      "inputs": [
        {
          "internalType": "address",
          "name": "playerAddress",
          "type": "address"
        },
        {
          "internalType": "uint256",
          "name": "gameID",
          "type": "uint256"
        },
        {
          "internalType": "string",
          "name": "zoneAlias",
          "type": "string"
        }
      ],
      "name": "playerCanExit",
      "outputs": [
        {
          "internalType": "bool",
          "name": "canExit",
          "type": "bool"
        }
      ],
      "stateMutability": "view",
      "type": "function"
    },
    {
      "inputs": [
        {
          "internalType": "address",
          "name": "playerAddress",
          "type": "address"
        },
        {
          "internalType": "uint256",
          "name": "gameID",
          "type": "uint256"
        },
        {
          "internalType": "string",
          "name": "zoneAlias",
          "type": "string"
        }
      ],
      "name": "enterPlayer",
      "outputs": [],
      "stateMutability": "nonpayable",
      "type": "function"
    },
    {
      "inputs": [
        {
          "internalType": "address",
          "name": "playerAddress",
          "type": "address"
        },
        {
          "internalType": "uint256",
          "name": "gameID",
          "type": "uint256"
        },
        {
          "internalType": "string",
          "name": "zoneAlias",
          "type": "string"
        }
      ],
      "name": "exitPlayer",
      "outputs": [],
      "stateMutability": "nonpayable",
      "type": "function"
    },
    {
      "inputs": [
        {
          "internalType": "address",
          "name": "playerAddress",
          "type": "address"
        },
        {
          "internalType": "uint256",
          "name": "gameID",
          "type": "uint256"
        },
        {
          "internalType": "string",
          "name": "zoneAlias",
          "type": "string"
        }
      ],
      "name": "removePlayer",
      "outputs": [],
      "stateMutability": "nonpayable",
      "type": "function"
    }
  ],
  "bytecode": "0x60806040523480156200001157600080fd5b5060405162003b6738038062003b6783398181016040528101906200003791906200051b565b83600260006101000a81548173ffffffffffffffffffffffffffffffffffffffff021916908373ffffffffffffffffffffffffffffffffffffffff16021790555082600360006101000a81548173ffffffffffffffffffffffffffffffffffffffff021916908373ffffffffffffffffffffffffffffffffffffffff16021790555083600460006101000a81548173ffffffffffffffffffffffffffffffffffffffff021916908373ffffffffffffffffffffffffffffffffffffffff160217905550600260009054906101000a900473ffffffffffffffffffffffffffffffffffffffff1673ffffffffffffffffffffffffffffffffffffffff166354fd4d506040518163ffffffff1660e01b8152600401602060405180830381865afa15801562000168573d6000803e3d6000fd5b505050506040513d601f19601f820116820180604052508101906200018e9190620005c8565b600581905550620001a96000801b836200021b60201b60201c565b600073ffffffffffffffffffffffffffffffffffffffff168173ffffffffffffffffffffffffffffffffffffffff16146200021157620002107fdfbefbf47cfe66b701d8cfdbce1de81c821590819cb07e71cb01b6602fb0ee27826200021b60201b60201c565b5b50505050620005fa565b6200022d82826200023160201b60201c565b5050565b6200024882826200027960201b6200148f1760201c565b6200027481600160008581526020019081526020016000206200036a60201b6200156f1790919060201c565b505050565b6200028b8282620003a260201b60201c565b6200036657600160008084815260200190815260200160002060000160008373ffffffffffffffffffffffffffffffffffffffff1673ffffffffffffffffffffffffffffffffffffffff16815260200190815260200160002060006101000a81548160ff0219169083151502179055506200030b6200040c60201b60201c565b73ffffffffffffffffffffffffffffffffffffffff168173ffffffffffffffffffffffffffffffffffffffff16837f2f8788117e7eff1d82e926ec794901d17c78024a50270940304540a733656f0d60405160405180910390a45b5050565b60006200039a836000018373ffffffffffffffffffffffffffffffffffffffff1660001b6200041460201b60201c565b905092915050565b600080600084815260200190815260200160002060000160008373ffffffffffffffffffffffffffffffffffffffff1673ffffffffffffffffffffffffffffffffffffffff16815260200190815260200160002060009054906101000a900460ff16905092915050565b600033905090565b60006200042883836200048e60201b60201c565b6200048357826000018290806001815401808255809150506001900390600052602060002001600090919091909150558260000180549050836001016000848152602001908152602001600020819055506001905062000488565b600090505b92915050565b600080836001016000848152602001908152602001600020541415905092915050565b600080fd5b600073ffffffffffffffffffffffffffffffffffffffff82169050919050565b6000620004e382620004b6565b9050919050565b620004f581620004d6565b81146200050157600080fd5b50565b6000815190506200051581620004ea565b92915050565b60008060008060808587031215620005385762000537620004b1565b5b6000620005488782880162000504565b94505060206200055b8782880162000504565b93505060406200056e8782880162000504565b9250506060620005818782880162000504565b91505092959194509250565b6000819050919050565b620005a2816200058d565b8114620005ae57600080fd5b50565b600081519050620005c28162000597565b92915050565b600060208284031215620005e157620005e0620004b1565b5b6000620005f184828501620005b1565b91505092915050565b61355d806200060a6000396000f3fe608060405234801561001057600080fd5b50600436106101da5760003560e01c806398bd757211610104578063c8fae5e8116100a2578063e15b3ad011610071578063e15b3ad01461058b578063e70542a8146105bb578063f14f4bbe146105d9578063f91649f0146105f5576101da565b8063c8fae5e814610507578063ca15c87314610523578063d547741f14610553578063de4526411461056f576101da565b8063abea5a6e116100de578063abea5a6e1461046b578063ac407d021461049b578063bc590f2a146104cb578063c57893c2146104e9576101da565b806398bd757214610401578063a217fddf1461041d578063a331e6081461043b576101da565b806331b8a8541161017c5780636516dd451161014b5780636516dd45146103555780637caf1280146103715780639010d07c146103a157806391d14854146103d1576101da565b806331b8a854146102e357806336568abe146102ff578063474dfcd71461031b5780634a58dc1114610337576101da565b8063248a9ca3116101b8578063248a9ca31461025d57806328d7e11a1461028d5780632e08793d146102a95780632f2ff15d146102c7576101da565b806301ffc9a7146101df57806304a0fb171461020f57806310e0d51e1461022d575b600080fd5b6101f960048036038101906101f49190612236565b610611565b604051610206919061227e565b60405180910390f35b61021761068b565b60405161022491906122b2565b60405180910390f35b61024760048036038101906102429190612449565b6106af565b60405161025491906124b4565b60405180910390f35b610277600480360381019061027291906124fb565b6106ea565b60405161028491906122b2565b60405180910390f35b6102a760048036038101906102a29190612586565b610709565b005b6102b161078e565b6040516102be9190612604565b60405180910390f35b6102e160048036038101906102dc919061261f565b6107b4565b005b6102fd60048036038101906102f8919061265f565b6107d5565b005b6103196004803603810190610314919061261f565b610899565b005b6103356004803603810190610330919061293a565b61091c565b005b61033f61092c565b60405161034c91906122b2565b60405180910390f35b61036f600480360381019061036a91906129e1565b610950565b005b61038b60048036038101906103869190612586565b6109d6565b604051610398919061227e565b60405180910390f35b6103bb60048036038101906103b69190612a34565b610c28565b6040516103c89190612604565b60405180910390f35b6103eb60048036038101906103e6919061261f565b610c57565b6040516103f8919061227e565b60405180910390f35b61041b60048036038101906104169190612586565b610cc1565b005b610425610d46565b60405161043291906122b2565b60405180910390f35b61045560048036038101906104509190612449565b610d4d565b60405161046291906124b4565b60405180910390f35b61048560048036038101906104809190612449565b610d88565b60405161049291906124b4565b60405180910390f35b6104b560048036038101906104b09190612449565b610dc3565b6040516104c291906124b4565b60405180910390f35b6104d3610dfe565b6040516104e09190612604565b60405180910390f35b6104f1610e24565b6040516104fe9190612b32565b60405180910390f35b610521600480360381019061051c9190612b54565b610e29565b005b61053d600480360381019061053891906124fb565b610e64565b60405161054a91906124b4565b60405180910390f35b61056d6004803603810190610568919061261f565b610e88565b005b61058960048036038101906105849190612b54565b610ea9565b005b6105a560048036038101906105a09190612586565b610f61565b6040516105b2919061227e565b60405180910390f35b6105c3611338565b6040516105d091906124b4565b60405180910390f35b6105f360048036038101906105ee9190612b81565b61133e565b005b61060f600480360381019061060a9190612586565b611454565b005b60007f5a05180f000000000000000000000000000000000000000000000000000000007bffffffffffffffffffffffffffffffffffffffffffffffffffffffff1916827bffffffffffffffffffffffffffffffffffffffffffffffffffffffff1916148061068457506106838261159f565b5b9050919050565b7fdfbefbf47cfe66b701d8cfdbce1de81c821590819cb07e71cb01b6602fb0ee2781565b600860205281600052604060002081805160208101820180518482526020830160208501208183528095505050505050600091509150505481565b6000806000838152602001908152602001600020600101549050919050565b7fa535732178231314b57938e75e1be42a0d0fac039993e1fa0eb22dcb94bce10761073381611619565b61073e8484846109d6565b61077d576040517f08c379a000000000000000000000000000000000000000000000000000000000815260040161077490612c75565b60405180910390fd5b61078884848461162d565b50505050565b600360009054906101000a900473ffffffffffffffffffffffffffffffffffffffff1681565b6107bd826106ea565b6107c681611619565b6107d083836117c0565b505050565b6108067fdfbefbf47cfe66b701d8cfdbce1de81c821590819cb07e71cb01b6602fb0ee276108016117f4565b610c57565b8061082157506108206000801b61081b6117f4565b610c57565b5b610860576040517f08c379a000000000000000000000000000000000000000000000000000000000815260040161085790612d07565b60405180910390fd5b8260066000848152602001908152602001600020826040516108829190612da1565b908152602001604051809103902081905550505050565b6108a16117f4565b73ffffffffffffffffffffffffffffffffffffffff168173ffffffffffffffffffffffffffffffffffffffff161461090e576040517f08c379a000000000000000000000000000000000000000000000000000000000815260040161090590612e2a565b60405180910390fd5b61091882826117fc565b5050565b610927838383611830565b505050565b7fa535732178231314b57938e75e1be42a0d0fac039993e1fa0eb22dcb94bce10781565b8073ffffffffffffffffffffffffffffffffffffffff16639eb356cb8333866040518463ffffffff1660e01b815260040161098d93929190612e4a565b6020604051808303816000875af11580156109ac573d6000803e3d6000fd5b505050506040513d601f19601f820116820180604052508101906109d09190612ead565b50505050565b600060019050600a6000848152602001908152602001600020826040516109fd9190612da1565b908152602001604051809103902060008573ffffffffffffffffffffffffffffffffffffffff1673ffffffffffffffffffffffffffffffffffffffff16815260200190815260200160002060009054906101000a900460ff16610a635760009050610c21565b60006006600085815260200190815260200160002083604051610a869190612da1565b908152602001604051809103902054905060008114610c1f57600260009054906101000a900473ffffffffffffffffffffffffffffffffffffffff1673ffffffffffffffffffffffffffffffffffffffff16638323406d8260026040518363ffffffff1660e01b8152600401610afd929190612f1f565b602060405180830381865afa158015610b1a573d6000803e3d6000fd5b505050506040513d601f19601f82011682018060405250810190610b3e9190612ead565b8015610c145750600260009054906101000a900473ffffffffffffffffffffffffffffffffffffffff1673ffffffffffffffffffffffffffffffffffffffff1663548dbc7a826040518263ffffffff1660e01b8152600401610ba091906124b4565b602060405180830381865afa158015610bbd573d6000803e3d6000fd5b505050506040513d601f19601f82011682018060405250810190610be19190612f5d565b6009600086815260200190815260200160002084604051610c029190612da1565b90815260200160405180910390205410155b15610c1e57600091505b5b505b9392505050565b6000610c4f826001600086815260200190815260200160002061183590919063ffffffff16565b905092915050565b600080600084815260200190815260200160002060000160008373ffffffffffffffffffffffffffffffffffffffff1673ffffffffffffffffffffffffffffffffffffffff16815260200190815260200160002060009054906101000a900460ff16905092915050565b7fa535732178231314b57938e75e1be42a0d0fac039993e1fa0eb22dcb94bce107610ceb81611619565b610cf6848484610f61565b610d35576040517f08c379a0000000000000000000000000000000000000000000000000000000008152600401610d2c90612fd6565b60405180910390fd5b610d4084848461184f565b50505050565b6000801b81565b600760205281600052604060002081805160208101820180518482526020830160208501208183528095505050505050600091509150505481565b600660205281600052604060002081805160208101820180518482526020830160208501208183528095505050505050600091509150505481565b600960205281600052604060002081805160208101820180518482526020830160208501208183528095505050505050600091509150505481565b600460009054906101000a900473ffffffffffffffffffffffffffffffffffffffff1681565b606090565b6000801b610e3681611619565b610e607fa535732178231314b57938e75e1be42a0d0fac039993e1fa0eb22dcb94bce107836117fc565b5050565b6000610e8160016000848152602001908152602001600020611a89565b9050919050565b610e91826106ea565b610e9a81611619565b610ea483836117fc565b505050565b610eda7fdfbefbf47cfe66b701d8cfdbce1de81c821590819cb07e71cb01b6602fb0ee27610ed56117f4565b610c57565b80610ef55750610ef46000801b610eef6117f4565b610c57565b5b610f34576040517f08c379a0000000000000000000000000000000000000000000000000000000008152600401610f2b90612d07565b60405180910390fd5b610f5e7fa535732178231314b57938e75e1be42a0d0fac039993e1fa0eb22dcb94bce10782611a9e565b50565b600060019050600a600084815260200190815260200160002082604051610f889190612da1565b908152602001604051809103902060008573ffffffffffffffffffffffffffffffffffffffff1673ffffffffffffffffffffffffffffffffffffffff16815260200190815260200160002060009054906101000a900460ff1615610fef5760009050611331565b600060066000858152602001908152602001600020836040516110129190612da1565b90815260200160405180910390205490506000811461132f57600260009054906101000a900473ffffffffffffffffffffffffffffffffffffffff1673ffffffffffffffffffffffffffffffffffffffff16638323406d8260006040518363ffffffff1660e01b8152600401611089929190613031565b602060405180830381865afa1580156110a6573d6000803e3d6000fd5b505050506040513d601f19601f820116820180604052508101906110ca9190612ead565b80156111a05750600260009054906101000a900473ffffffffffffffffffffffffffffffffffffffff1673ffffffffffffffffffffffffffffffffffffffff1663c0eac886826040518263ffffffff1660e01b815260040161112c91906124b4565b602060405180830381865afa158015611149573d6000803e3d6000fd5b505050506040513d601f19601f8201168201806040525081019061116d9190612f5d565b600860008681526020019081526020016000208460405161118e9190612da1565b90815260200160405180910390205410155b156111ae576000915061132e565b600260009054906101000a900473ffffffffffffffffffffffffffffffffffffffff1673ffffffffffffffffffffffffffffffffffffffff16638323406d8260016040518363ffffffff1660e01b815260040161120c929190613095565b602060405180830381865afa158015611229573d6000803e3d6000fd5b505050506040513d601f19601f8201168201806040525081019061124d9190612ead565b80156113235750600260009054906101000a900473ffffffffffffffffffffffffffffffffffffffff1673ffffffffffffffffffffffffffffffffffffffff16630b4adfcf826040518263ffffffff1660e01b81526004016112af91906124b4565b602060405180830381865afa1580156112cc573d6000803e3d6000fd5b505050506040513d601f19601f820116820180604052508101906112f09190612f5d565b60076000868152602001908152602001600020846040516113119190612da1565b90815260200160405180910390205410155b1561132d57600091505b5b5b505b9392505050565b60055481565b6113498584846109d6565b611388576040517f08c379a000000000000000000000000000000000000000000000000000000000815260040161137f90612c75565b60405180910390fd5b60008173ffffffffffffffffffffffffffffffffffffffff16639eb356cb8588886040518463ffffffff1660e01b81526004016113c793929190612e4a565b6020604051808303816000875af11580156113e6573d6000803e3d6000fd5b505050506040513d601f19601f8201168201806040525081019061140a9190612ead565b90508061144c576040517f08c379a00000000000000000000000000000000000000000000000000000000081526004016114439061310a565b60405180910390fd5b505050505050565b7fa535732178231314b57938e75e1be42a0d0fac039993e1fa0eb22dcb94bce10761147e81611619565b611489848484611aac565b50505050565b6114998282610c57565b61156b57600160008084815260200190815260200160002060000160008373ffffffffffffffffffffffffffffffffffffffff1673ffffffffffffffffffffffffffffffffffffffff16815260200190815260200160002060006101000a81548160ff0219169083151502179055506115106117f4565b73ffffffffffffffffffffffffffffffffffffffff168173ffffffffffffffffffffffffffffffffffffffff16837f2f8788117e7eff1d82e926ec794901d17c78024a50270940304540a733656f0d60405160405180910390a45b5050565b6000611597836000018373ffffffffffffffffffffffffffffffffffffffff1660001b611b75565b905092915050565b60007f7965db0b000000000000000000000000000000000000000000000000000000007bffffffffffffffffffffffffffffffffffffffffffffffffffffffff1916827bffffffffffffffffffffffffffffffffffffffffffffffffffffffff19161480611612575061161182611be5565b5b9050919050565b61162a816116256117f4565b611c4f565b50565b611638838383611cec565b6000600a60008481526020019081526020016000208260405161165b9190612da1565b908152602001604051809103902060008573ffffffffffffffffffffffffffffffffffffffff1673ffffffffffffffffffffffffffffffffffffffff16815260200190815260200160002060006101000a81548160ff021916908315150217905550600060086000848152602001908152602001600020826040516116e09190612da1565b908152602001604051809103902054116116fb576000611738565b6001600860008481526020019081526020016000208260405161171e9190612da1565b9081526020016040518091039020546117379190613159565b5b60086000848152602001908152602001600020826040516117599190612da1565b908152602001604051809103902081905550600960008381526020019081526020016000208160405161178c9190612da1565b908152602001604051809103902060008154809291906117ab9061318d565b91905055506117bb838383611cf1565b505050565b6117ca828261148f565b6117ef816001600085815260200190815260200160002061156f90919063ffffffff16565b505050565b600033905090565b6118068282611cf6565b61182b8160016000858152602001908152602001600020611dd790919063ffffffff16565b505050565b505050565b60006118448360000183611e07565b60001c905092915050565b61185a838383611e32565b6001600a60008481526020019081526020016000208260405161187d9190612da1565b908152602001604051809103902060008573ffffffffffffffffffffffffffffffffffffffff1673ffffffffffffffffffffffffffffffffffffffff16815260200190815260200160002060006101000a81548160ff02191690831515021790555060086000838152602001908152602001600020816040516119009190612da1565b9081526020016040518091039020600081548092919061191f9061318d565b919050555060076000838152602001908152602001600020816040516119459190612da1565b908152602001604051809103902060008154809291906119649061318d565b91905055506000600360009054906101000a900473ffffffffffffffffffffffffffffffffffffffff1673ffffffffffffffffffffffffffffffffffffffff16635d248301846040518263ffffffff1660e01b81526004016119c691906124b4565b602060405180830381865afa1580156119e3573d6000803e3d6000fd5b505050506040513d601f19601f82011682018060405250810190611a0791906131eb565b90508073ffffffffffffffffffffffffffffffffffffffff1663fa9f34388486856040518463ffffffff1660e01b8152600401611a4693929190613251565b600060405180830381600087803b158015611a6057600080fd5b505af1158015611a74573d6000803e3d6000fd5b50505050611a83848484611e37565b50505050565b6000611a9782600001611e3c565b9050919050565b611aa882826117c0565b5050565b611ab7838383611e4d565b60006008600084815260200190815260200160002082604051611ada9190612da1565b90815260200160405180910390205411611af5576000611b32565b60016008600084815260200190815260200160002082604051611b189190612da1565b908152602001604051809103902054611b319190613159565b5b6008600084815260200190815260200160002082604051611b539190612da1565b908152602001604051809103902081905550611b70838383611e52565b505050565b6000611b818383611e57565b611bda578260000182908060018154018082558091505060019003906000526020600020016000909190919091505582600001805490508360010160008481526020019081526020016000208190555060019050611bdf565b600090505b92915050565b60007f01ffc9a7000000000000000000000000000000000000000000000000000000007bffffffffffffffffffffffffffffffffffffffffffffffffffffffff1916827bffffffffffffffffffffffffffffffffffffffffffffffffffffffff1916149050919050565b611c598282610c57565b611ce857611c7e8173ffffffffffffffffffffffffffffffffffffffff166014611e7a565b611c8c8360001c6020611e7a565b604051602001611c9d929190613327565b6040516020818303038152906040526040517f08c379a0000000000000000000000000000000000000000000000000000000008152600401611cdf9190613361565b60405180910390fd5b5050565b505050565b505050565b611d008282610c57565b15611dd357600080600084815260200190815260200160002060000160008373ffffffffffffffffffffffffffffffffffffffff1673ffffffffffffffffffffffffffffffffffffffff16815260200190815260200160002060006101000a81548160ff021916908315150217905550611d786117f4565b73ffffffffffffffffffffffffffffffffffffffff168173ffffffffffffffffffffffffffffffffffffffff16837ff6391f5c32d9c69d2a47ea670b442974b53935d1edc7fd64eb21e047a839171b60405160405180910390a45b5050565b6000611dff836000018373ffffffffffffffffffffffffffffffffffffffff1660001b6120b6565b905092915050565b6000826000018281548110611e1f57611e1e613383565b5b9060005260206000200154905092915050565b505050565b505050565b600081600001805490509050919050565b505050565b505050565b600080836001016000848152602001908152602001600020541415905092915050565b606060006002836002611e8d91906133b2565b611e97919061340c565b67ffffffffffffffff811115611eb057611eaf61231e565b5b6040519080825280601f01601f191660200182016040528015611ee25781602001600182028036833780820191505090505b5090507f300000000000000000000000000000000000000000000000000000000000000081600081518110611f1a57611f19613383565b5b60200101907effffffffffffffffffffffffffffffffffffffffffffffffffffffffffffff1916908160001a9053507f780000000000000000000000000000000000000000000000000000000000000081600181518110611f7e57611f7d613383565b5b60200101907effffffffffffffffffffffffffffffffffffffffffffffffffffffffffffff1916908160001a90535060006001846002611fbe91906133b2565b611fc8919061340c565b90505b6001811115612068577f3031323334353637383961626364656600000000000000000000000000000000600f86166010811061200a57612009613383565b5b1a60f81b82828151811061202157612020613383565b5b60200101907effffffffffffffffffffffffffffffffffffffffffffffffffffffffffffff1916908160001a905350600485901c94508061206190613462565b9050611fcb565b50600084146120ac576040517f08c379a00000000000000000000000000000000000000000000000000000000081526004016120a3906134d8565b60405180910390fd5b8091505092915050565b600080836001016000848152602001908152602001600020549050600081146121be5760006001826120e89190613159565b90506000600186600001805490506121009190613159565b905081811461216f57600086600001828154811061212157612120613383565b5b906000526020600020015490508087600001848154811061214557612144613383565b5b90600052602060002001819055508387600101600083815260200190815260200160002081905550505b85600001805480612183576121826134f8565b5b6001900381819060005260206000200160009055905585600101600086815260200190815260200160002060009055600193505050506121c4565b60009150505b92915050565b6000604051905090565b600080fd5b600080fd5b60007fffffffff0000000000000000000000000000000000000000000000000000000082169050919050565b612213816121de565b811461221e57600080fd5b50565b6000813590506122308161220a565b92915050565b60006020828403121561224c5761224b6121d4565b5b600061225a84828501612221565b91505092915050565b60008115159050919050565b61227881612263565b82525050565b6000602082019050612293600083018461226f565b92915050565b6000819050919050565b6122ac81612299565b82525050565b60006020820190506122c760008301846122a3565b92915050565b6000819050919050565b6122e0816122cd565b81146122eb57600080fd5b50565b6000813590506122fd816122d7565b92915050565b600080fd5b600080fd5b6000601f19601f8301169050919050565b7f4e487b7100000000000000000000000000000000000000000000000000000000600052604160045260246000fd5b6123568261230d565b810181811067ffffffffffffffff821117156123755761237461231e565b5b80604052505050565b60006123886121ca565b9050612394828261234d565b919050565b600067ffffffffffffffff8211156123b4576123b361231e565b5b6123bd8261230d565b9050602081019050919050565b82818337600083830152505050565b60006123ec6123e784612399565b61237e565b90508281526020810184848401111561240857612407612308565b5b6124138482856123ca565b509392505050565b600082601f8301126124305761242f612303565b5b81356124408482602086016123d9565b91505092915050565b600080604083850312156124605761245f6121d4565b5b600061246e858286016122ee565b925050602083013567ffffffffffffffff81111561248f5761248e6121d9565b5b61249b8582860161241b565b9150509250929050565b6124ae816122cd565b82525050565b60006020820190506124c960008301846124a5565b92915050565b6124d881612299565b81146124e357600080fd5b50565b6000813590506124f5816124cf565b92915050565b600060208284031215612511576125106121d4565b5b600061251f848285016124e6565b91505092915050565b600073ffffffffffffffffffffffffffffffffffffffff82169050919050565b600061255382612528565b9050919050565b61256381612548565b811461256e57600080fd5b50565b6000813590506125808161255a565b92915050565b60008060006060848603121561259f5761259e6121d4565b5b60006125ad86828701612571565b93505060206125be868287016122ee565b925050604084013567ffffffffffffffff8111156125df576125de6121d9565b5b6125eb8682870161241b565b9150509250925092565b6125fe81612548565b82525050565b600060208201905061261960008301846125f5565b92915050565b60008060408385031215612636576126356121d4565b5b6000612644858286016124e6565b925050602061265585828601612571565b9150509250929050565b600080600060608486031215612678576126776121d4565b5b6000612686868287016122ee565b9350506020612697868287016122ee565b925050604084013567ffffffffffffffff8111156126b8576126b76121d9565b5b6126c48682870161241b565b9150509250925092565b600067ffffffffffffffff8211156126e9576126e861231e565b5b602082029050602081019050919050565b600080fd5b600061271261270d846126ce565b61237e565b90508083825260208201905060208402830185811115612735576127346126fa565b5b835b8181101561277c57803567ffffffffffffffff81111561275a57612759612303565b5b808601612767898261241b565b85526020850194505050602081019050612737565b5050509392505050565b600082601f83011261279b5761279a612303565b5b81356127ab8482602086016126ff565b91505092915050565b600067ffffffffffffffff8211156127cf576127ce61231e565b5b602082029050602081019050919050565b60006127f36127ee846127b4565b61237e565b90508083825260208201905060208402830185811115612816576128156126fa565b5b835b8181101561283f578061282b8882612571565b845260208401935050602081019050612818565b5050509392505050565b600082601f83011261285e5761285d612303565b5b813561286e8482602086016127e0565b91505092915050565b600067ffffffffffffffff8211156128925761289161231e565b5b602082029050602081019050919050565b60006128b66128b184612877565b61237e565b905080838252602082019050602084028301858111156128d9576128d86126fa565b5b835b8181101561290257806128ee88826122ee565b8452602084019350506020810190506128db565b5050509392505050565b600082601f83011261292157612920612303565b5b81356129318482602086016128a3565b91505092915050565b600080600060608486031215612953576129526121d4565b5b600084013567ffffffffffffffff811115612971576129706121d9565b5b61297d86828701612786565b935050602084013567ffffffffffffffff81111561299e5761299d6121d9565b5b6129aa86828701612849565b925050604084013567ffffffffffffffff8111156129cb576129ca6121d9565b5b6129d78682870161290c565b9150509250925092565b6000806000606084860312156129fa576129f96121d4565b5b6000612a08868287016122ee565b9350506020612a19868287016122ee565b9250506040612a2a86828701612571565b9150509250925092565b60008060408385031215612a4b57612a4a6121d4565b5b6000612a59858286016124e6565b9250506020612a6a858286016122ee565b9150509250929050565b600081519050919050565b600082825260208201905092915050565b6000819050602082019050919050565b612aa9816122cd565b82525050565b6000612abb8383612aa0565b60208301905092915050565b6000602082019050919050565b6000612adf82612a74565b612ae98185612a7f565b9350612af483612a90565b8060005b83811015612b25578151612b0c8882612aaf565b9750612b1783612ac7565b925050600181019050612af8565b5085935050505092915050565b60006020820190508181036000830152612b4c8184612ad4565b905092915050565b600060208284031215612b6a57612b696121d4565b5b6000612b7884828501612571565b91505092915050565b600080600080600060a08688031215612b9d57612b9c6121d4565b5b6000612bab88828901612571565b9550506020612bbc888289016122ee565b9450506040612bcd888289016122ee565b935050606086013567ffffffffffffffff811115612bee57612bed6121d9565b5b612bfa8882890161241b565b9250506080612c0b88828901612571565b9150509295509295909350565b600082825260208201905092915050565b7f706c617965722063616e6e6f742065786974207a6f6e65000000000000000000600082015250565b6000612c5f601783612c18565b9150612c6a82612c29565b602082019050919050565b60006020820190508181036000830152612c8e81612c52565b9050919050565b7f47616d65204d6173746572206f7220466163746f727920726f6c65207265717560008201527f6972656400000000000000000000000000000000000000000000000000000000602082015250565b6000612cf1602483612c18565b9150612cfc82612c95565b604082019050919050565b60006020820190508181036000830152612d2081612ce4565b9050919050565b600081519050919050565b600081905092915050565b60005b83811015612d5b578082015181840152602081019050612d40565b83811115612d6a576000848401525b50505050565b6000612d7b82612d27565b612d858185612d32565b9350612d95818560208601612d3d565b80840191505092915050565b6000612dad8284612d70565b915081905092915050565b7f416363657373436f6e74726f6c3a2063616e206f6e6c792072656e6f756e636560008201527f20726f6c657320666f722073656c660000000000000000000000000000000000602082015250565b6000612e14602f83612c18565b9150612e1f82612db8565b604082019050919050565b60006020820190508181036000830152612e4381612e07565b9050919050565b6000606082019050612e5f60008301866124a5565b612e6c60208301856125f5565b612e7960408301846124a5565b949350505050565b612e8a81612263565b8114612e9557600080fd5b50565b600081519050612ea781612e81565b92915050565b600060208284031215612ec357612ec26121d4565b5b6000612ed184828501612e98565b91505092915050565b6000819050919050565b6000819050919050565b6000612f09612f04612eff84612eda565b612ee4565b6122cd565b9050919050565b612f1981612eee565b82525050565b6000604082019050612f3460008301856124a5565b612f416020830184612f10565b9392505050565b600081519050612f57816122d7565b92915050565b600060208284031215612f7357612f726121d4565b5b6000612f8184828501612f48565b91505092915050565b7f706c617965722063616e6e6f7420656e746572207a6f6e650000000000000000600082015250565b6000612fc0601883612c18565b9150612fcb82612f8a565b602082019050919050565b60006020820190508181036000830152612fef81612fb3565b9050919050565b6000819050919050565b600061301b61301661301184612ff6565b612ee4565b6122cd565b9050919050565b61302b81613000565b82525050565b600060408201905061304660008301856124a5565b6130536020830184613022565b9392505050565b6000819050919050565b600061307f61307a6130758461305a565b612ee4565b6122cd565b9050919050565b61308f81613064565b82525050565b60006040820190506130aa60008301856124a5565b6130b76020830184613086565b9392505050565b7f706c6179657220756e61626c6520746f20656e746572206f6e20657869740000600082015250565b60006130f4601e83612c18565b91506130ff826130be565b602082019050919050565b60006020820190508181036000830152613123816130e7565b9050919050565b7f4e487b7100000000000000000000000000000000000000000000000000000000600052601160045260246000fd5b6000613164826122cd565b915061316f836122cd565b9250828210156131825761318161312a565b5b828203905092915050565b6000613198826122cd565b91507fffffffffffffffffffffffffffffffffffffffffffffffffffffffffffffffff8214156131cb576131ca61312a565b5b600182019050919050565b6000815190506131e58161255a565b92915050565b600060208284031215613201576132006121d4565b5b600061320f848285016131d6565b91505092915050565b600061322382612d27565b61322d8185612c18565b935061323d818560208601612d3d565b6132468161230d565b840191505092915050565b600060608201905061326660008301866124a5565b61327360208301856125f5565b81810360408301526132858184613218565b9050949350505050565b7f416363657373436f6e74726f6c3a206163636f756e7420000000000000000000600082015250565b60006132c5601783612d32565b91506132d08261328f565b601782019050919050565b7f206973206d697373696e6720726f6c6520000000000000000000000000000000600082015250565b6000613311601183612d32565b915061331c826132db565b601182019050919050565b6000613332826132b8565b915061333e8285612d70565b915061334982613304565b91506133558284612d70565b91508190509392505050565b6000602082019050818103600083015261337b8184613218565b905092915050565b7f4e487b7100000000000000000000000000000000000000000000000000000000600052603260045260246000fd5b60006133bd826122cd565b91506133c8836122cd565b9250817fffffffffffffffffffffffffffffffffffffffffffffffffffffffffffffffff04831182151516156134015761340061312a565b5b828202905092915050565b6000613417826122cd565b9150613422836122cd565b9250827fffffffffffffffffffffffffffffffffffffffffffffffffffffffffffffffff038211156134575761345661312a565b5b828201905092915050565b600061346d826122cd565b915060008214156134815761348061312a565b5b600182039050919050565b7f537472696e67733a20686578206c656e67746820696e73756666696369656e74600082015250565b60006134c2602083612c18565b91506134cd8261348c565b602082019050919050565b600060208201905081810360008301526134f1816134b5565b9050919050565b7f4e487b7100000000000000000000000000000000000000000000000000000000600052603160045260246000fdfea264697066735822122029a1c1db3bd54699c11eb5b379a189897988e109b0a382c3792220ff3954ad5164736f6c634300080b0033",
  "immutableReferences": {},
  "source": "// SPDX-License-Identifier: GPL-3.0\n\npragma solidity >=0.7.0 <0.9.0;\n\nimport \"@openzeppelin/contracts/access/AccessControlEnumerable.sol\";\nimport \"./Ruleset.sol\";\nimport \"./GameBoard.sol\";\nimport \"./GameRegistry.sol\";\n\ncontract PlayZone is AccessControlEnumerable {\n    bytes32 public constant GAME_BOARD_ROLE = keccak256(\"GAME_BOARD_ROLE\");\n    bytes32 public constant FACTORY_ROLE = keccak256(\"FACTORY_ROLE\");\n\n    Ruleset internal RULESET;\n    address public gameRegistryAddress;\n    address public rulesetAddress;\n    uint256 public rulesetVersion;\n\n    // Mappings from GameID => alias (set in gameboard)\n    mapping(uint256 => mapping(string => uint256)) public ruleset; // returns ruleset ID\n    mapping(uint256 => mapping(string => uint256)) public entryCount;\n    mapping(uint256 => mapping(string => uint256)) public playerCount;\n    mapping(uint256 => mapping(string => uint256)) public exitCount;\n    mapping(uint256 => mapping(string => mapping(address => bool)))\n        internal playerInZone;\n\n    // right now players can interact with zone,\n    // zone cannot perform action on all players\n    // as no list of players is stored here\n    // May be able to query game board for list of players if necessary\n\n    // integrated custom game contract may have this capability, but\n    // zone itself can only check if player is allowed to play and\n    // ensure total number of players is correct\n\n    // game board may attempt to exit player\n    // zone logic will determine if this is allowed\n\n    modifier onlyFactoryAdmin() {\n        require(\n            hasRole(FACTORY_ROLE, _msgSender()) ||\n                hasRole(DEFAULT_ADMIN_ROLE, _msgSender()),\n            \"Game Master or Factory role required\"\n        );\n        _;\n    }\n\n    constructor(\n        address _rulesetAddress,\n        address _gameRegistryAddress,\n        address adminAddress,\n        address factoryAddress\n    ) {\n        RULESET = Ruleset(_rulesetAddress);\n        gameRegistryAddress = _gameRegistryAddress;\n        rulesetAddress = _rulesetAddress;\n        rulesetVersion = RULESET.version();\n        _setupRole(DEFAULT_ADMIN_ROLE, adminAddress);\n        if (factoryAddress != address(0)) {\n            _setupRole(FACTORY_ROLE, factoryAddress);\n        }\n    }\n\n    function addGameBoard(address gameBoardAddress) public onlyFactoryAdmin {\n        _setupRole(GAME_BOARD_ROLE, gameBoardAddress);\n    }\n\n    function removeGameBoard(address gameBoardAddress)\n        public\n        onlyRole(DEFAULT_ADMIN_ROLE)\n    {\n        _revokeRole(GAME_BOARD_ROLE, gameBoardAddress);\n    }\n\n    function setRules(\n        uint256 rulesetID,\n        uint256 gameID,\n        string memory zoneAlias\n    ) public onlyFactoryAdmin {\n        ruleset[gameID][zoneAlias] = rulesetID;\n    }\n\n    // Player functions\n    function attemptExit(\n        uint256 exitPathIndex,\n        uint256 gameID,\n        address gameBoardAddress\n    ) public {\n        GameBoard(gameBoardAddress).exitToPath(\n            gameID,\n            msg.sender,\n            exitPathIndex\n        );\n    }\n\n    function attemptExitFor(\n        address playerAddress,\n        uint256 exitPathIndex,\n        uint256 gameID,\n        string memory zoneAlias,\n        address gameBoardAddress\n    ) public {\n        require(\n            playerCanExit(playerAddress, gameID, zoneAlias),\n            \"player cannot exit zone\"\n        );\n        bool exitSuccess = GameBoard(gameBoardAddress).exitToPath(\n            gameID,\n            playerAddress,\n            exitPathIndex\n        );\n        require(exitSuccess, \"player unable to enter on exit\");\n    }\n\n    // Validation etc is done on the custom contract in _customAction()\n    function performCustomAction(\n        string[] memory stringParams,\n        address[] memory addressParams,\n        uint256[] memory uintParams\n    ) public {\n        _customAction(stringParams, addressParams, uintParams);\n    }\n\n    function playersInZone() public view returns (uint256[] memory) {\n        // cycle through registry, return list of players in zone\n    }\n\n    // TODO: figure this out...\n    // function resetZone() public onlyRole(???) {}\n\n    function playerInPlayableState(address playerAddress, uint256 gameID)\n        internal\n        view\n        returns (bool playable)\n    {\n        address gameBoard = GameRegistry(gameRegistryAddress).gameBoard(gameID);\n        if (GameBoard(gameBoard).gameState(gameID) > 1) {\n            playable = true;\n        } else {\n            playable = false;\n        }\n\n        // TODO: check for transit group action\n    }\n\n    function playerCanEnter(\n        address playerAddress,\n        uint256 gameID,\n        string memory zoneAlias\n    ) public view returns (bool canEnter) {\n        canEnter = true;\n        //canEnter = playerInPlayableState(playerAddress, gameID);\n        if (playerInZone[gameID][zoneAlias][playerAddress]) {\n            // already here, can't enter again\n            canEnter = false;\n        } else {\n            uint256 rulesetID = ruleset[gameID][zoneAlias];\n            if (rulesetID != 0) {\n                // check against rules if set\n                if (\n                    RULESET.rules(rulesetID, 0) &&\n                    playerCount[gameID][zoneAlias] >=\n                    RULESET.maxCapacity(rulesetID)\n                ) {\n                    canEnter = false;\n                } else if (\n                    RULESET.rules(rulesetID, 1) &&\n                    entryCount[gameID][zoneAlias] >=\n                    RULESET.maxEntrySize(rulesetID)\n                ) {\n                    canEnter = false;\n                }\n            }\n        }\n        //TODO: make sure payout on exit / entry can be paid before allowing entry\n    }\n\n    function playerCanExit(\n        address playerAddress,\n        uint256 gameID,\n        string memory zoneAlias\n    ) public view returns (bool canExit) {\n        canExit = true;\n        //canExit = playerInPlayableState(playerAddress, gameID);\n\n        if (!playerInZone[gameID][zoneAlias][playerAddress]) {\n            // not here, can't exit if already gone\n            canExit = false;\n        } else {\n            uint256 rulesetID = ruleset[gameID][zoneAlias];\n            if (rulesetID != 0) {\n                if (\n                    RULESET.rules(rulesetID, 2) &&\n                    exitCount[gameID][zoneAlias] >=\n                    RULESET.maxExitSize(rulesetID)\n                ) {\n                    canExit = false;\n                }\n            }\n        }\n    }\n\n    function enterPlayer(\n        address playerAddress,\n        uint256 gameID,\n        string memory zoneAlias\n    ) external onlyRole(GAME_BOARD_ROLE) {\n        require(\n            playerCanEnter(playerAddress, gameID, zoneAlias),\n            \"player cannot enter zone\"\n        );\n        _enterPlayer(playerAddress, gameID, zoneAlias);\n    }\n\n    function exitPlayer(\n        address playerAddress,\n        uint256 gameID,\n        string memory zoneAlias\n    ) external onlyRole(GAME_BOARD_ROLE) {\n        require(\n            playerCanExit(playerAddress, gameID, zoneAlias),\n            \"player cannot exit zone\"\n        );\n        _exitPlayer(playerAddress, gameID, zoneAlias);\n    }\n\n    // used when a player is entirely removed from game, e.g. runs out of credits\n    function removePlayer(\n        address playerAddress,\n        uint256 gameID,\n        string memory zoneAlias\n    ) external onlyRole(GAME_BOARD_ROLE) {\n        _removePlayer(playerAddress, gameID, zoneAlias);\n    }\n\n    function _enterPlayer(\n        address playerAddress,\n        uint256 gameID,\n        string memory zoneAlias\n    ) internal {\n        _playerWillEnter(playerAddress, gameID, zoneAlias);\n        //TODO:\n        // payout on entry if set and balance allows\n        playerInZone[gameID][zoneAlias][playerAddress] = true;\n        playerCount[gameID][zoneAlias]++;\n        entryCount[gameID][zoneAlias]++;\n        // tell game board to update player position\n        address gbAddress = GameRegistry(gameRegistryAddress).gameBoard(gameID);\n        GameBoard(gbAddress).playerEnteredZone(\n            gameID,\n            playerAddress,\n            zoneAlias\n        );\n        _playerDidEnter(playerAddress, gameID, zoneAlias);\n    }\n\n    function _exitPlayer(\n        address playerAddress,\n        uint256 gameID,\n        string memory zoneAlias\n    ) internal {\n        _playerWillExit(playerAddress, gameID, zoneAlias);\n        playerInZone[gameID][zoneAlias][playerAddress] = false;\n        playerCount[gameID][zoneAlias] = playerCount[gameID][zoneAlias] > 0\n            ? playerCount[gameID][zoneAlias] - 1\n            : 0;\n        exitCount[gameID][zoneAlias]++;\n        //TODO:\n        // payout on exit if set and balance allows\n        _playerDidExit(playerAddress, gameID, zoneAlias);\n    }\n\n    function _removePlayer(\n        address playerAddress,\n        uint256 gameID,\n        string memory zoneAlias\n    ) internal {\n        // TODO: remove from current location on game board\n        _playerWillBeRemoved(playerAddress, gameID, zoneAlias);\n        playerCount[gameID][zoneAlias] = playerCount[gameID][zoneAlias] > 0\n            ? playerCount[gameID][zoneAlias] - 1\n            : 0;\n        _playerWasRemoved(playerAddress, gameID, zoneAlias);\n    }\n\n    // Override for custom game\n    function _playerWillEnter(\n        address playerAddress,\n        uint256 gameID,\n        string memory zoneAlias\n    ) internal virtual {}\n\n    function _playerDidEnter(\n        address playerAddress,\n        uint256 gameID,\n        string memory zoneAlias\n    ) internal virtual {}\n\n    function _playerWillExit(\n        address playerAddress,\n        uint256 gameID,\n        string memory zoneAlias\n    ) internal virtual {}\n\n    function _playerDidExit(\n        address playerAddress,\n        uint256 gameID,\n        string memory zoneAlias\n    ) internal virtual {}\n\n    function _playersWillEnter(\n        uint256 gameID,\n        uint256 groupID,\n        string memory zoneAlias\n    ) internal virtual {\n        // called when batch of players are being entered from lobby or previous zone\n        // individual player entries are called from _playerDidEnter\n    }\n\n    function _allPlayersEntered(\n        uint256 gameID,\n        uint256 groupID,\n        string memory zoneAlias\n    ) internal virtual {\n        // called after player group has all been entered\n    }\n\n    function _playerWillBeRemoved(\n        address playerAddress,\n        uint256 gameID,\n        string memory zoneAlias\n    ) internal virtual {}\n\n    function _playerWasRemoved(\n        address playerAddress,\n        uint256 gameID,\n        string memory zoneAlias\n    ) internal virtual {}\n\n    function _customAction(\n        string[] memory stringParams,\n        address[] memory addressParams,\n        uint256[] memory uintParams\n    ) internal virtual {\n        // should definitiely do some checks when implementing this function\n        // make sure the sender is correct and nothing malicious is going on\n    }\n}\n",
  "sourcePath": "@luckymachines/game-core/contracts/src/v0.0/PlayZone.sol",
  "compiler": {
    "name": "solc",
    "version": "0.8.11+commit.d7f03943.Emscripten.clang"
  },
  "schemaVersion": "3.4.4",
  "updatedAt": "2022-05-02T05:10:56.299Z",
  "devdoc": {
    "kind": "dev",
    "methods": {
      "getRoleAdmin(bytes32)": {
        "details": "Returns the admin role that controls `role`. See {grantRole} and {revokeRole}. To change a role's admin, use {_setRoleAdmin}."
      },
      "getRoleMember(bytes32,uint256)": {
        "details": "Returns one of the accounts that have `role`. `index` must be a value between 0 and {getRoleMemberCount}, non-inclusive. Role bearers are not sorted in any particular way, and their ordering may change at any point. WARNING: When using {getRoleMember} and {getRoleMemberCount}, make sure you perform all queries on the same block. See the following https://forum.openzeppelin.com/t/iterating-over-elements-on-enumerableset-in-openzeppelin-contracts/2296[forum post] for more information."
      },
      "getRoleMemberCount(bytes32)": {
        "details": "Returns the number of accounts that have `role`. Can be used together with {getRoleMember} to enumerate all bearers of a role."
      },
      "grantRole(bytes32,address)": {
        "details": "Grants `role` to `account`. If `account` had not been already granted `role`, emits a {RoleGranted} event. Requirements: - the caller must have ``role``'s admin role."
      },
      "hasRole(bytes32,address)": {
        "details": "Returns `true` if `account` has been granted `role`."
      },
      "renounceRole(bytes32,address)": {
        "details": "Revokes `role` from the calling account. Roles are often managed via {grantRole} and {revokeRole}: this function's purpose is to provide a mechanism for accounts to lose their privileges if they are compromised (such as when a trusted device is misplaced). If the calling account had been revoked `role`, emits a {RoleRevoked} event. Requirements: - the caller must be `account`."
      },
      "revokeRole(bytes32,address)": {
        "details": "Revokes `role` from `account`. If `account` had been granted `role`, emits a {RoleRevoked} event. Requirements: - the caller must have ``role``'s admin role."
      },
      "supportsInterface(bytes4)": {
        "details": "See {IERC165-supportsInterface}."
      }
    },
    "version": 1
  },
  "userdoc": {
    "kind": "user",
    "methods": {},
    "version": 1
  }
}