{
  "contractName": "PlayerRegistry",
  "abi": [
    {
      "inputs": [
        {
          "internalType": "address",
          "name": "gameBoardAddress",
          "type": "address"
        },
        {
          "internalType": "address",
          "name": "adminAddress",
          "type": "address"
        }
      ],
      "stateMutability": "nonpayable",
      "type": "constructor"
    },
    {
      "anonymous": false,
      "inputs": [
        {
          "indexed": true,
          "internalType": "bytes32",
          "name": "role",
          "type": "bytes32"
        },
        {
          "indexed": true,
          "internalType": "bytes32",
          "name": "previousAdminRole",
          "type": "bytes32"
        },
        {
          "indexed": true,
          "internalType": "bytes32",
          "name": "newAdminRole",
          "type": "bytes32"
        }
      ],
      "name": "RoleAdminChanged",
      "type": "event"
    },
    {
      "anonymous": false,
      "inputs": [
        {
          "indexed": true,
          "internalType": "bytes32",
          "name": "role",
          "type": "bytes32"
        },
        {
          "indexed": true,
          "internalType": "address",
          "name": "account",
          "type": "address"
        },
        {
          "indexed": true,
          "internalType": "address",
          "name": "sender",
          "type": "address"
        }
      ],
      "name": "RoleGranted",
      "type": "event"
    },
    {
      "anonymous": false,
      "inputs": [
        {
          "indexed": true,
          "internalType": "bytes32",
          "name": "role",
          "type": "bytes32"
        },
        {
          "indexed": true,
          "internalType": "address",
          "name": "account",
          "type": "address"
        },
        {
          "indexed": true,
          "internalType": "address",
          "name": "sender",
          "type": "address"
        }
      ],
      "name": "RoleRevoked",
      "type": "event"
    },
    {
      "inputs": [],
      "name": "DEFAULT_ADMIN_ROLE",
      "outputs": [
        {
          "internalType": "bytes32",
          "name": "",
          "type": "bytes32"
        }
      ],
      "stateMutability": "view",
      "type": "function"
    },
    {
      "inputs": [],
      "name": "GAME_BOARD_ROLE",
      "outputs": [
        {
          "internalType": "bytes32",
          "name": "",
          "type": "bytes32"
        }
      ],
      "stateMutability": "view",
      "type": "function"
    },
    {
      "inputs": [],
      "name": "REGISTRAR_ROLE",
      "outputs": [
        {
          "internalType": "bytes32",
          "name": "",
          "type": "bytes32"
        }
      ],
      "stateMutability": "view",
      "type": "function"
    },
    {
      "inputs": [
        {
          "internalType": "bytes32",
          "name": "role",
          "type": "bytes32"
        }
      ],
      "name": "getRoleAdmin",
      "outputs": [
        {
          "internalType": "bytes32",
          "name": "",
          "type": "bytes32"
        }
      ],
      "stateMutability": "view",
      "type": "function"
    },
    {
      "inputs": [
        {
          "internalType": "bytes32",
          "name": "role",
          "type": "bytes32"
        },
        {
          "internalType": "uint256",
          "name": "index",
          "type": "uint256"
        }
      ],
      "name": "getRoleMember",
      "outputs": [
        {
          "internalType": "address",
          "name": "",
          "type": "address"
        }
      ],
      "stateMutability": "view",
      "type": "function"
    },
    {
      "inputs": [
        {
          "internalType": "bytes32",
          "name": "role",
          "type": "bytes32"
        }
      ],
      "name": "getRoleMemberCount",
      "outputs": [
        {
          "internalType": "uint256",
          "name": "",
          "type": "uint256"
        }
      ],
      "stateMutability": "view",
      "type": "function"
    },
    {
      "inputs": [
        {
          "internalType": "bytes32",
          "name": "role",
          "type": "bytes32"
        },
        {
          "internalType": "address",
          "name": "account",
          "type": "address"
        }
      ],
      "name": "grantRole",
      "outputs": [],
      "stateMutability": "nonpayable",
      "type": "function"
    },
    {
      "inputs": [
        {
          "internalType": "bytes32",
          "name": "role",
          "type": "bytes32"
        },
        {
          "internalType": "address",
          "name": "account",
          "type": "address"
        }
      ],
      "name": "hasRole",
      "outputs": [
        {
          "internalType": "bool",
          "name": "",
          "type": "bool"
        }
      ],
      "stateMutability": "view",
      "type": "function"
    },
    {
      "inputs": [
        {
          "internalType": "uint256",
          "name": "",
          "type": "uint256"
        },
        {
          "internalType": "address",
          "name": "",
          "type": "address"
        }
      ],
      "name": "isRegistered",
      "outputs": [
        {
          "internalType": "bool",
          "name": "",
          "type": "bool"
        }
      ],
      "stateMutability": "view",
      "type": "function"
    },
    {
      "inputs": [
        {
          "internalType": "uint256",
          "name": "",
          "type": "uint256"
        },
        {
          "internalType": "uint256",
          "name": "",
          "type": "uint256"
        }
      ],
      "name": "playerAddress",
      "outputs": [
        {
          "internalType": "address",
          "name": "",
          "type": "address"
        }
      ],
      "stateMutability": "view",
      "type": "function"
    },
    {
      "inputs": [
        {
          "internalType": "uint256",
          "name": "",
          "type": "uint256"
        },
        {
          "internalType": "address",
          "name": "",
          "type": "address"
        }
      ],
      "name": "playerID",
      "outputs": [
        {
          "internalType": "uint256",
          "name": "",
          "type": "uint256"
        }
      ],
      "stateMutability": "view",
      "type": "function"
    },
    {
      "inputs": [
        {
          "internalType": "uint256",
          "name": "",
          "type": "uint256"
        }
      ],
      "name": "registrationLimit",
      "outputs": [
        {
          "internalType": "uint256",
          "name": "",
          "type": "uint256"
        }
      ],
      "stateMutability": "view",
      "type": "function"
    },
    {
      "inputs": [
        {
          "internalType": "uint256",
          "name": "",
          "type": "uint256"
        }
      ],
      "name": "registrationLocked",
      "outputs": [
        {
          "internalType": "bool",
          "name": "",
          "type": "bool"
        }
      ],
      "stateMutability": "view",
      "type": "function"
    },
    {
      "inputs": [
        {
          "internalType": "bytes32",
          "name": "role",
          "type": "bytes32"
        },
        {
          "internalType": "address",
          "name": "account",
          "type": "address"
        }
      ],
      "name": "renounceRole",
      "outputs": [],
      "stateMutability": "nonpayable",
      "type": "function"
    },
    {
      "inputs": [
        {
          "internalType": "bytes32",
          "name": "role",
          "type": "bytes32"
        },
        {
          "internalType": "address",
          "name": "account",
          "type": "address"
        }
      ],
      "name": "revokeRole",
      "outputs": [],
      "stateMutability": "nonpayable",
      "type": "function"
    },
    {
      "inputs": [
        {
          "internalType": "bytes4",
          "name": "interfaceId",
          "type": "bytes4"
        }
      ],
      "name": "supportsInterface",
      "outputs": [
        {
          "internalType": "bool",
          "name": "",
          "type": "bool"
        }
      ],
      "stateMutability": "view",
      "type": "function"
    },
    {
      "inputs": [
        {
          "internalType": "uint256",
          "name": "",
          "type": "uint256"
        }
      ],
      "name": "totalRegistrations",
      "outputs": [
        {
          "internalType": "uint256",
          "name": "",
          "type": "uint256"
        }
      ],
      "stateMutability": "view",
      "type": "function"
    },
    {
      "inputs": [
        {
          "internalType": "address",
          "name": "_playerAddress",
          "type": "address"
        },
        {
          "internalType": "uint256",
          "name": "gameID",
          "type": "uint256"
        }
      ],
      "name": "canRegister",
      "outputs": [
        {
          "internalType": "bool",
          "name": "",
          "type": "bool"
        }
      ],
      "stateMutability": "view",
      "type": "function"
    },
    {
      "inputs": [
        {
          "internalType": "uint256",
          "name": "gameID",
          "type": "uint256"
        }
      ],
      "name": "register",
      "outputs": [],
      "stateMutability": "nonpayable",
      "type": "function"
    },
    {
      "inputs": [
        {
          "internalType": "address",
          "name": "_playerAddress",
          "type": "address"
        },
        {
          "internalType": "uint256",
          "name": "gameID",
          "type": "uint256"
        }
      ],
      "name": "registerPlayer",
      "outputs": [],
      "stateMutability": "nonpayable",
      "type": "function"
    },
    {
      "inputs": [
        {
          "internalType": "uint256",
          "name": "startingID",
          "type": "uint256"
        },
        {
          "internalType": "uint256",
          "name": "maxID",
          "type": "uint256"
        },
        {
          "internalType": "uint256",
          "name": "gameID",
          "type": "uint256"
        }
      ],
      "name": "playerAddressesInRange",
      "outputs": [
        {
          "internalType": "address[]",
          "name": "",
          "type": "address[]"
        }
      ],
      "stateMutability": "view",
      "type": "function"
    },
    {
      "inputs": [
        {
          "internalType": "uint256",
          "name": "gameID",
          "type": "uint256"
        }
      ],
      "name": "lockRegistration",
      "outputs": [],
      "stateMutability": "nonpayable",
      "type": "function"
    }
  ],
  "bytecode": "0x60806040523480156200001157600080fd5b5060405162001602380380620016028339810160408190526200003491620002b6565b60028054600160a060020a031916600160a060020a03841617905562000065600082640100000000620000d7810204565b6200009a7fedcc084d3dcd65a1f7f23c65c46722faca6953d28e43150a467cf43e5c30923882640100000000620000d7810204565b620000cf7fac6a0d6667c60d70be3305560c9f112013d4dd3d5fcf11d3001d0934d09b3fd583640100000000620000d7810204565b5050620002ee565b620000ec8282640100000000620000f0810204565b5050565b6200010a82826401000000006200086e6200013782021704565b6000828152600160205260409020620001329082640100000000620008f2620001d382021704565b505050565b6200014c8282640100000000620001fc810204565b620000ec57600082815260208181526040808320600160a060020a03851684529091529020805460ff191660011790556200018f64010000000062000225810204565b600160a060020a031681600160a060020a0316837f2f8788117e7eff1d82e926ec794901d17c78024a50270940304540a733656f0d60405160405180910390a45050565b6000620001f383600160a060020a03841664010000000062000229810204565b90505b92915050565b600091825260208281526040808420600160a060020a0393909316845291905290205460ff1690565b3390565b600062000240838364010000000062000281810204565b6200027857508154600181810184556000848152602080822090930184905584548482528286019093526040902091909155620001f6565b506000620001f6565b60009081526001919091016020526040902054151590565b8051600160a060020a0381168114620002b157600080fd5b919050565b60008060408385031215620002ca57600080fd5b620002d58362000299565b9150620002e56020840162000299565b90509250929050565b61130480620002fe6000396000f3fe608060405234801561001057600080fd5b506004361061015f576000357c010000000000000000000000000000000000000000000000000000000090048063a217fddf116100d5578063c947f4b711610099578063c947f4b714610344578063ca15c87314610367578063d547741f1461037a578063f207564e1461038d578063f5043254146103a0578063f68e9553146103d457600080fd5b8063a217fddf146102b0578063aae02ba4146102b8578063b77ff411146102cb578063b81f6e18146102eb578063bca7caa01461031957600080fd5b80634a58dc11116101275780634a58dc111461020557806360c205001461022c5780638c92423d1461023f5780639010d07c1461025f57806391d148541461028a5780639aabe36d1461029d57600080fd5b806301ffc9a714610164578063248a9ca31461018c57806328cd5ab7146101bd5780632f2ff15d146101dd57806336568abe146101f2575b600080fd5b610177610172366004610fb6565b6103fb565b60405190151581526020015b60405180910390f35b6101af61019a366004610fe0565b60009081526020819052604090206001015490565b604051908152602001610183565b6101af6101cb366004610fe0565b60076020526000908152604090205481565b6101f06101eb366004611015565b61043f565b005b6101f0610200366004611015565b610469565b6101af7fac6a0d6667c60d70be3305560c9f112013d4dd3d5fcf11d3001d0934d09b3fd581565b6101f061023a366004610fe0565b6104fd565b61025261024d366004611041565b610543565b604051610183919061106d565b61027261026d3660046110ba565b6106eb565b604051600160a060020a039091168152602001610183565b610177610298366004611015565b61070a565b6101f06102ab3660046110dc565b610733565b6101af600081565b6101776102c63660046110dc565b6107c0565b6101af6102d9366004610fe0565b60066020526000908152604090205481565b6101776102f9366004611015565b600360209081526000928352604080842090915290825290205460ff1681565b6101af610327366004611015565b600460209081526000928352604080842090915290825290205481565b610177610352366004610fe0565b60086020526000908152604090205460ff1681565b6101af610375366004610fe0565b6107cc565b6101f0610388366004611015565b6107e3565b6101f061039b366004610fe0565b610808565b6102726103ae3660046110ba565b6005602090815260009283526040808420909152908252902054600160a060020a031681565b6101af7fedcc084d3dcd65a1f7f23c65c46722faca6953d28e43150a467cf43e5c30923881565b6000600160e060020a031982167f5a05180f000000000000000000000000000000000000000000000000000000001480610439575061043982610907565b92915050565b60008281526020819052604090206001015461045a8161096e565b6104648383610978565b505050565b600160a060020a03811633146104ef5760405160e560020a62461bcd02815260206004820152602f60248201527f416363657373436f6e74726f6c3a2063616e206f6e6c792072656e6f756e636560448201527f20726f6c657320666f722073656c66000000000000000000000000000000000060648201526084015b60405180910390fd5b6104f9828261099a565b5050565b7fac6a0d6667c60d70be3305560c9f112013d4dd3d5fcf11d3001d0934d09b3fd56105278161096e565b506000908152600860205260409020805460ff19166001179055565b6000818152600660205260409020546060908411156105a75760405160e560020a62461bcd02815260206004820152601960248201527f7374617274696e67204944206f7574206f6620626f756e64730000000000000060448201526064016104e6565b838310156105fa5760405160e560020a62461bcd02815260206004820152601260248201527f6d61784944203c207374617274696e674944000000000000000000000000000060448201526064016104e6565b826000610607868361111f565b610612906001611136565b905060008167ffffffffffffffff81111561062f5761062f61114e565b604051908082528060200260200182016040528015610658578160200160208202803683370190505b509050865b6106678389611136565b8110156106e057600061067a828a61111f565b60008881526005602090815260408083208684529091529020548451919250600160a060020a0316908490839081106106b5576106b5611167565b600160a060020a039092166020928302919091019091015250806106d881611180565b91505061065d565b509695505050505050565b600082815260016020526040812061070390836109bc565b9392505050565b600091825260208281526040808420600160a060020a0393909316845291905290205460ff1690565b7fedcc084d3dcd65a1f7f23c65c46722faca6953d28e43150a467cf43e5c30923861075d8161096e565b61076783836109c8565b6107b65760405160e560020a62461bcd02815260206004820181905260248201527f506c61796572206e6f74207175616c696669656420746f20726567697374657260448201526064016104e6565b6104648284610a40565b600061070383836109c8565b600081815260016020526040812061043990610b15565b6000828152602081905260409020600101546107fe8161096e565b610464838361099a565b61081233826109c8565b6108615760405160e560020a62461bcd02815260206004820181905260248201527f506c61796572206e6f74207175616c696669656420746f20726567697374657260448201526064016104e6565b61086b8133610a40565b50565b610878828261070a565b6104f957600082815260208181526040808320600160a060020a03851684529091529020805460ff191660011790556108ae3390565b600160a060020a031681600160a060020a0316837f2f8788117e7eff1d82e926ec794901d17c78024a50270940304540a733656f0d60405160405180910390a45050565b600061070383600160a060020a038416610b1f565b6000600160e060020a031982167f7965db0b00000000000000000000000000000000000000000000000000000000148061043957507f01ffc9a700000000000000000000000000000000000000000000000000000000600160e060020a0319831614610439565b61086b8133610b6e565b610982828261086e565b600082815260016020526040902061046490826108f2565b6109a48282610bd5565b60008281526001602052604090206104649082610c3a565b60006107038383610c4f565b6000600160a060020a03831615806109ee575060008281526008602052604090205460ff165b610a37576000828152600760205260409020541580610a255750600082815260066020908152604080832054600790925290912054115b610a30576000610703565b6001610703565b60009392505050565b6000828152600360209081526040808320600160a060020a038516845290915290205460ff166104f9576000828152600360209081526040808320600160a060020a03851684528252808320805460ff191660019081179091558584526006909252822054610aae91611136565b600084815260066020908152604080832084905560048252808320600160a060020a03871680855290835281842085905587845260058352818420948452939091529020805473ffffffffffffffffffffffffffffffffffffffff19169091179055505050565b6000610439825490565b6000818152600183016020526040812054610b6657508154600181810184556000848152602080822090930184905584548482528286019093526040902091909155610439565b506000610439565b610b78828261070a565b6104f957610b9081600160a060020a03166014610c79565b610b9b836020610c79565b604051602001610bac9291906111cb565b60408051601f198184030181529082905260e560020a62461bcd0282526104e69160040161124c565b610bdf828261070a565b156104f957600082815260208181526040808320600160a060020a0385168085529252808320805460ff1916905551339285917ff6391f5c32d9c69d2a47ea670b442974b53935d1edc7fd64eb21e047a839171b9190a45050565b600061070383600160a060020a038416610ec3565b6000826000018281548110610c6657610c66611167565b9060005260206000200154905092915050565b60606000610c8883600261127f565b610c93906002611136565b67ffffffffffffffff811115610cab57610cab61114e565b6040519080825280601f01601f191660200182016040528015610cd5576020820181803683370190505b5090507f300000000000000000000000000000000000000000000000000000000000000081600081518110610d0c57610d0c611167565b60200101907effffffffffffffffffffffffffffffffffffffffffffffffffffffffffffff1916908160001a9053507f780000000000000000000000000000000000000000000000000000000000000081600181518110610d6f57610d6f611167565b60200101907effffffffffffffffffffffffffffffffffffffffffffffffffffffffffffff1916908160001a9053506000610dab84600261127f565b610db6906001611136565b90505b6001811115610e71577f303132333435363738396162636465660000000000000000000000000000000085600f1660108110610df757610df7611167565b1a7f010000000000000000000000000000000000000000000000000000000000000002828281518110610e2c57610e2c611167565b60200101907effffffffffffffffffffffffffffffffffffffffffffffffffffffffffffff1916908160001a905350601090940493610e6a8161129e565b9050610db9565b5083156107035760405160e560020a62461bcd02815260206004820181905260248201527f537472696e67733a20686578206c656e67746820696e73756666696369656e7460448201526064016104e6565b60008181526001830160205260408120548015610fac576000610ee760018361111f565b8554909150600090610efb9060019061111f565b9050818114610f60576000866000018281548110610f1b57610f1b611167565b9060005260206000200154905080876000018481548110610f3e57610f3e611167565b6000918252602080832090910192909255918252600188019052604090208390555b8554869080610f7157610f716112b5565b600190038181906000526020600020016000905590558560010160008681526020019081526020016000206000905560019350505050610439565b6000915050610439565b600060208284031215610fc857600080fd5b8135600160e060020a03198116811461070357600080fd5b600060208284031215610ff257600080fd5b5035919050565b8035600160a060020a038116811461101057600080fd5b919050565b6000806040838503121561102857600080fd5b8235915061103860208401610ff9565b90509250929050565b60008060006060848603121561105657600080fd5b505081359360208301359350604090920135919050565b6020808252825182820181905260009190848201906040850190845b818110156110ae578351600160a060020a031683529284019291840191600101611089565b50909695505050505050565b600080604083850312156110cd57600080fd5b50508035926020909101359150565b600080604083850312156110ef57600080fd5b6110f883610ff9565b946020939093013593505050565b60e060020a634e487b7102600052601160045260246000fd5b60008282101561113157611131611106565b500390565b6000821982111561114957611149611106565b500190565b60e060020a634e487b7102600052604160045260246000fd5b60e060020a634e487b7102600052603260045260246000fd5b600060001982141561119457611194611106565b5060010190565b60005b838110156111b657818101518382015260200161119e565b838111156111c5576000848401525b50505050565b7f416363657373436f6e74726f6c3a206163636f756e742000000000000000000081526000835161120381601785016020880161119b565b7f206973206d697373696e6720726f6c6520000000000000000000000000000000601791840191820152835161124081602884016020880161119b565b01602801949350505050565b602081526000825180602084015261126b81604085016020870161119b565b601f01601f19169190910160400192915050565b600081600019048311821515161561129957611299611106565b500290565b6000816112ad576112ad611106565b506000190190565b60e060020a634e487b7102600052603160045260246000fdfea26469706673582212205b5fda9420aa4c59589884a6b65a9f84b2cc3169eddf2051d7a3e70c6ddb979964736f6c634300080b0033",
  "immutableReferences": {},
  "source": "// SPDX-License-Identifier: GPL-3.0\npragma solidity >=0.7.0 <0.9.0;\n\nimport \"@openzeppelin/contracts/access/AccessControlEnumerable.sol\";\nimport \"./GameBoard.sol\";\n\n// Registry is tied to one game board\n// each registry can have custom rules for registration\n\ncontract PlayerRegistry is AccessControlEnumerable {\n    bytes32 public constant REGISTRAR_ROLE = keccak256(\"REGISTRAR_ROLE\");\n    bytes32 public constant GAME_BOARD_ROLE = keccak256(\"GAMEBOARD_ROLE\");\n\n    GameBoard internal GAME_BOARD;\n\n    // Mappings from gameID\n    //  or [game ID][player address]\n    mapping(uint256 => mapping(address => bool)) public isRegistered;\n    mapping(uint256 => mapping(address => uint256)) public playerID;\n    mapping(uint256 => mapping(uint256 => address)) public playerAddress;\n    mapping(uint256 => uint256) public totalRegistrations;\n    mapping(uint256 => uint256) public registrationLimit;\n    mapping(uint256 => bool) public registrationLocked;\n\n    constructor(address gameBoardAddress, address adminAddress) {\n        GAME_BOARD = GameBoard(gameBoardAddress);\n        _setupRole(DEFAULT_ADMIN_ROLE, adminAddress);\n        _setupRole(REGISTRAR_ROLE, adminAddress);\n        _setupRole(GAME_BOARD_ROLE, gameBoardAddress);\n    }\n\n    function canRegister(address _playerAddress, uint256 gameID)\n        public\n        view\n        returns (bool)\n    {\n        return _canRegister(_playerAddress, gameID);\n    }\n\n    function register(uint256 gameID) public {\n        require(\n            _canRegister(msg.sender, gameID),\n            \"Player not qualified to register\"\n        );\n        _register(gameID, msg.sender);\n    }\n\n    function registerPlayer(address _playerAddress, uint256 gameID)\n        public\n        onlyRole(REGISTRAR_ROLE)\n    {\n        require(\n            _canRegister(_playerAddress, gameID),\n            \"Player not qualified to register\"\n        );\n        _register(gameID, _playerAddress);\n    }\n\n    function playerAddressesInRange(\n        uint256 startingID,\n        uint256 maxID,\n        uint256 gameID\n    ) public view returns (address[] memory) {\n        require(\n            startingID <= totalRegistrations[gameID],\n            \"starting ID out of bounds\"\n        );\n        require(maxID >= startingID, \"maxID < startingID\");\n        // require starting ID exists\n        uint256 actualMaxID = maxID;\n        uint256 size = actualMaxID - startingID + 1;\n        address[] memory players = new address[](size);\n        for (uint256 i = startingID; i < startingID + size; i++) {\n            uint256 index = startingID - i;\n            players[index] = playerAddress[gameID][i];\n        }\n        return players;\n    }\n\n    // function registerPlayers(address[] memory playerAddresses, uint256 gameID)\n    //     public\n    //     onlyRole(REGISTRAR_ROLE)\n    // {\n    //     require(\n    //         _canRegister(playerAddress, gameID),\n    //         \"Player not qualified to register\"\n    //     );\n    //     isRegistered[gameID][playerAddress] = true;\n    // }\n\n    function lockRegistration(uint256 gameID)\n        external\n        onlyRole(GAME_BOARD_ROLE)\n    {\n        registrationLocked[gameID] = true;\n    }\n\n    function _register(uint256 gameID, address player) internal {\n        if (!isRegistered[gameID][player]) {\n            isRegistered[gameID][player] = true;\n            uint256 newID = totalRegistrations[gameID] + 1; // IDs start @ 1\n            totalRegistrations[gameID] = newID;\n            playerID[gameID][player] = newID;\n            playerAddress[gameID][newID] = player;\n        }\n    }\n\n    // override for custom registration behavior\n    function _canRegister(address _playerAddress, uint256 gameID)\n        internal\n        view\n        virtual\n        returns (bool playerCanRegister)\n    {\n        playerCanRegister = (_playerAddress == address(0) ||\n            registrationLocked[gameID])\n            ? false\n            : (registrationLimit[gameID] == 0 ||\n                registrationLimit[gameID] > totalRegistrations[gameID])\n            ? true\n            : false;\n    }\n}\n",
  "sourcePath": "@luckymachines/game-core/contracts/src/v0.0/PlayerRegistry.sol",
  "compiler": {
    "name": "solc",
    "version": "0.8.11+commit.d7f03943.Emscripten.clang"
  },
  "schemaVersion": "3.4.4",
  "updatedAt": "2022-05-10T22:43:52.448Z",
  "devdoc": {
    "kind": "dev",
    "methods": {
      "getRoleAdmin(bytes32)": {
        "details": "Returns the admin role that controls `role`. See {grantRole} and {revokeRole}. To change a role's admin, use {_setRoleAdmin}."
      },
      "getRoleMember(bytes32,uint256)": {
        "details": "Returns one of the accounts that have `role`. `index` must be a value between 0 and {getRoleMemberCount}, non-inclusive. Role bearers are not sorted in any particular way, and their ordering may change at any point. WARNING: When using {getRoleMember} and {getRoleMemberCount}, make sure you perform all queries on the same block. See the following https://forum.openzeppelin.com/t/iterating-over-elements-on-enumerableset-in-openzeppelin-contracts/2296[forum post] for more information."
      },
      "getRoleMemberCount(bytes32)": {
        "details": "Returns the number of accounts that have `role`. Can be used together with {getRoleMember} to enumerate all bearers of a role."
      },
      "grantRole(bytes32,address)": {
        "details": "Grants `role` to `account`. If `account` had not been already granted `role`, emits a {RoleGranted} event. Requirements: - the caller must have ``role``'s admin role."
      },
      "hasRole(bytes32,address)": {
        "details": "Returns `true` if `account` has been granted `role`."
      },
      "renounceRole(bytes32,address)": {
        "details": "Revokes `role` from the calling account. Roles are often managed via {grantRole} and {revokeRole}: this function's purpose is to provide a mechanism for accounts to lose their privileges if they are compromised (such as when a trusted device is misplaced). If the calling account had been revoked `role`, emits a {RoleRevoked} event. Requirements: - the caller must be `account`."
      },
      "revokeRole(bytes32,address)": {
        "details": "Revokes `role` from `account`. If `account` had been granted `role`, emits a {RoleRevoked} event. Requirements: - the caller must have ``role``'s admin role."
      },
      "supportsInterface(bytes4)": {
        "details": "See {IERC165-supportsInterface}."
      }
    },
    "version": 1
  },
  "userdoc": {
    "kind": "user",
    "methods": {},
    "version": 1
  }
}