{
  "contractName": "Ruleset",
  "abi": [
    {
      "inputs": [
        {
          "internalType": "address",
          "name": "adminAddress",
          "type": "address"
        },
        {
          "internalType": "address",
          "name": "factoryAddress",
          "type": "address"
        }
      ],
      "stateMutability": "nonpayable",
      "type": "constructor"
    },
    {
      "anonymous": false,
      "inputs": [
        {
          "indexed": true,
          "internalType": "bytes32",
          "name": "role",
          "type": "bytes32"
        },
        {
          "indexed": true,
          "internalType": "bytes32",
          "name": "previousAdminRole",
          "type": "bytes32"
        },
        {
          "indexed": true,
          "internalType": "bytes32",
          "name": "newAdminRole",
          "type": "bytes32"
        }
      ],
      "name": "RoleAdminChanged",
      "type": "event"
    },
    {
      "anonymous": false,
      "inputs": [
        {
          "indexed": true,
          "internalType": "bytes32",
          "name": "role",
          "type": "bytes32"
        },
        {
          "indexed": true,
          "internalType": "address",
          "name": "account",
          "type": "address"
        },
        {
          "indexed": true,
          "internalType": "address",
          "name": "sender",
          "type": "address"
        }
      ],
      "name": "RoleGranted",
      "type": "event"
    },
    {
      "anonymous": false,
      "inputs": [
        {
          "indexed": true,
          "internalType": "bytes32",
          "name": "role",
          "type": "bytes32"
        },
        {
          "indexed": true,
          "internalType": "address",
          "name": "account",
          "type": "address"
        },
        {
          "indexed": true,
          "internalType": "address",
          "name": "sender",
          "type": "address"
        }
      ],
      "name": "RoleRevoked",
      "type": "event"
    },
    {
      "inputs": [],
      "name": "DEFAULT_ADMIN_ROLE",
      "outputs": [
        {
          "internalType": "bytes32",
          "name": "",
          "type": "bytes32"
        }
      ],
      "stateMutability": "view",
      "type": "function"
    },
    {
      "inputs": [],
      "name": "FACTORY_ROLE",
      "outputs": [
        {
          "internalType": "bytes32",
          "name": "",
          "type": "bytes32"
        }
      ],
      "stateMutability": "view",
      "type": "function"
    },
    {
      "inputs": [],
      "name": "GAME_MASTER_ROLE",
      "outputs": [
        {
          "internalType": "bytes32",
          "name": "",
          "type": "bytes32"
        }
      ],
      "stateMutability": "view",
      "type": "function"
    },
    {
      "inputs": [
        {
          "internalType": "uint256",
          "name": "",
          "type": "uint256"
        }
      ],
      "name": "entryPayoutAmount",
      "outputs": [
        {
          "internalType": "uint256",
          "name": "",
          "type": "uint256"
        }
      ],
      "stateMutability": "view",
      "type": "function"
    },
    {
      "inputs": [
        {
          "internalType": "uint256",
          "name": "",
          "type": "uint256"
        }
      ],
      "name": "exitPayoutAmount",
      "outputs": [
        {
          "internalType": "uint256",
          "name": "",
          "type": "uint256"
        }
      ],
      "stateMutability": "view",
      "type": "function"
    },
    {
      "inputs": [
        {
          "internalType": "bytes32",
          "name": "role",
          "type": "bytes32"
        }
      ],
      "name": "getRoleAdmin",
      "outputs": [
        {
          "internalType": "bytes32",
          "name": "",
          "type": "bytes32"
        }
      ],
      "stateMutability": "view",
      "type": "function"
    },
    {
      "inputs": [
        {
          "internalType": "bytes32",
          "name": "role",
          "type": "bytes32"
        },
        {
          "internalType": "uint256",
          "name": "index",
          "type": "uint256"
        }
      ],
      "name": "getRoleMember",
      "outputs": [
        {
          "internalType": "address",
          "name": "",
          "type": "address"
        }
      ],
      "stateMutability": "view",
      "type": "function"
    },
    {
      "inputs": [
        {
          "internalType": "bytes32",
          "name": "role",
          "type": "bytes32"
        }
      ],
      "name": "getRoleMemberCount",
      "outputs": [
        {
          "internalType": "uint256",
          "name": "",
          "type": "uint256"
        }
      ],
      "stateMutability": "view",
      "type": "function"
    },
    {
      "inputs": [
        {
          "internalType": "bytes32",
          "name": "role",
          "type": "bytes32"
        },
        {
          "internalType": "address",
          "name": "account",
          "type": "address"
        }
      ],
      "name": "grantRole",
      "outputs": [],
      "stateMutability": "nonpayable",
      "type": "function"
    },
    {
      "inputs": [
        {
          "internalType": "bytes32",
          "name": "role",
          "type": "bytes32"
        },
        {
          "internalType": "address",
          "name": "account",
          "type": "address"
        }
      ],
      "name": "hasRole",
      "outputs": [
        {
          "internalType": "bool",
          "name": "",
          "type": "bool"
        }
      ],
      "stateMutability": "view",
      "type": "function"
    },
    {
      "inputs": [
        {
          "internalType": "uint256",
          "name": "",
          "type": "uint256"
        }
      ],
      "name": "locked",
      "outputs": [
        {
          "internalType": "bool",
          "name": "",
          "type": "bool"
        }
      ],
      "stateMutability": "view",
      "type": "function"
    },
    {
      "inputs": [
        {
          "internalType": "uint256",
          "name": "",
          "type": "uint256"
        }
      ],
      "name": "maxCapacity",
      "outputs": [
        {
          "internalType": "uint256",
          "name": "",
          "type": "uint256"
        }
      ],
      "stateMutability": "view",
      "type": "function"
    },
    {
      "inputs": [
        {
          "internalType": "uint256",
          "name": "",
          "type": "uint256"
        }
      ],
      "name": "maxEntrySize",
      "outputs": [
        {
          "internalType": "uint256",
          "name": "",
          "type": "uint256"
        }
      ],
      "stateMutability": "view",
      "type": "function"
    },
    {
      "inputs": [
        {
          "internalType": "uint256",
          "name": "",
          "type": "uint256"
        }
      ],
      "name": "maxExitSize",
      "outputs": [
        {
          "internalType": "uint256",
          "name": "",
          "type": "uint256"
        }
      ],
      "stateMutability": "view",
      "type": "function"
    },
    {
      "inputs": [
        {
          "internalType": "uint256",
          "name": "",
          "type": "uint256"
        }
      ],
      "name": "payoutToken",
      "outputs": [
        {
          "internalType": "address",
          "name": "",
          "type": "address"
        }
      ],
      "stateMutability": "view",
      "type": "function"
    },
    {
      "inputs": [
        {
          "internalType": "bytes32",
          "name": "role",
          "type": "bytes32"
        },
        {
          "internalType": "address",
          "name": "account",
          "type": "address"
        }
      ],
      "name": "renounceRole",
      "outputs": [],
      "stateMutability": "nonpayable",
      "type": "function"
    },
    {
      "inputs": [
        {
          "internalType": "bytes32",
          "name": "role",
          "type": "bytes32"
        },
        {
          "internalType": "address",
          "name": "account",
          "type": "address"
        }
      ],
      "name": "revokeRole",
      "outputs": [],
      "stateMutability": "nonpayable",
      "type": "function"
    },
    {
      "inputs": [
        {
          "internalType": "uint256",
          "name": "",
          "type": "uint256"
        },
        {
          "internalType": "uint256",
          "name": "",
          "type": "uint256"
        }
      ],
      "name": "rules",
      "outputs": [
        {
          "internalType": "bool",
          "name": "",
          "type": "bool"
        }
      ],
      "stateMutability": "view",
      "type": "function"
    },
    {
      "inputs": [
        {
          "internalType": "bytes4",
          "name": "interfaceId",
          "type": "bytes4"
        }
      ],
      "name": "supportsInterface",
      "outputs": [
        {
          "internalType": "bool",
          "name": "",
          "type": "bool"
        }
      ],
      "stateMutability": "view",
      "type": "function"
    },
    {
      "inputs": [],
      "name": "version",
      "outputs": [
        {
          "internalType": "uint256",
          "name": "",
          "type": "uint256"
        }
      ],
      "stateMutability": "view",
      "type": "function"
    },
    {
      "inputs": [
        {
          "internalType": "bool[]",
          "name": "ruleFlags",
          "type": "bool[]"
        },
        {
          "internalType": "address",
          "name": "tokenAddress",
          "type": "address"
        },
        {
          "internalType": "uint256[]",
          "name": "ruleValues",
          "type": "uint256[]"
        },
        {
          "internalType": "bool",
          "name": "lockAfterSet",
          "type": "bool"
        }
      ],
      "name": "createRulesetFromFactory",
      "outputs": [
        {
          "internalType": "uint256",
          "name": "rulesetID",
          "type": "uint256"
        }
      ],
      "stateMutability": "nonpayable",
      "type": "function"
    },
    {
      "inputs": [
        {
          "internalType": "bool[]",
          "name": "ruleFlags",
          "type": "bool[]"
        }
      ],
      "name": "createRuleset",
      "outputs": [],
      "stateMutability": "nonpayable",
      "type": "function"
    },
    {
      "inputs": [
        {
          "internalType": "uint256",
          "name": "rulesetID",
          "type": "uint256"
        }
      ],
      "name": "getAllRules",
      "outputs": [
        {
          "internalType": "bool[]",
          "name": "",
          "type": "bool[]"
        }
      ],
      "stateMutability": "view",
      "type": "function"
    },
    {
      "inputs": [
        {
          "internalType": "uint256[]",
          "name": "ruleValues",
          "type": "uint256[]"
        },
        {
          "internalType": "uint256",
          "name": "rulesetID",
          "type": "uint256"
        }
      ],
      "name": "setAllRules",
      "outputs": [],
      "stateMutability": "nonpayable",
      "type": "function"
    },
    {
      "inputs": [
        {
          "internalType": "address",
          "name": "tokenAddress",
          "type": "address"
        },
        {
          "internalType": "uint256",
          "name": "rulesetID",
          "type": "uint256"
        }
      ],
      "name": "setPayoutToken",
      "outputs": [],
      "stateMutability": "nonpayable",
      "type": "function"
    },
    {
      "inputs": [
        {
          "internalType": "uint256",
          "name": "rulesetID",
          "type": "uint256"
        }
      ],
      "name": "lockRules",
      "outputs": [],
      "stateMutability": "nonpayable",
      "type": "function"
    }
  ],
  "bytecode": "0x608060405260016003553480156200001657600080fd5b50604051620019fe380380620019fe8339810160408190526200003991620002d3565b6200004f600083640100000000620000eb810204565b620000847f1d93c87416ca7b54f0fb8323167b72760e8e2ec93d48660953897a150f97a8b483640100000000620000eb810204565b600160a060020a03811615620000c957620000c97fdfbefbf47cfe66b701d8cfdbce1de81c821590819cb07e71cb01b6602fb0ee2782640100000000620000eb810204565b620000e3600264010000000062000a9d6200010482021704565b50506200030b565b6200010082826401000000006200010d810204565b5050565b80546001019055565b62000127828264010000000062000aa66200015482021704565b60008281526001602052604090206200014f908264010000000062000b2a620001f082021704565b505050565b62000169828264010000000062000219810204565b6200010057600082815260208181526040808320600160a060020a03851684529091529020805460ff19166001179055620001ac64010000000062000242810204565b600160a060020a031681600160a060020a0316837f2f8788117e7eff1d82e926ec794901d17c78024a50270940304540a733656f0d60405160405180910390a45050565b60006200021083600160a060020a03841664010000000062000246810204565b90505b92915050565b600091825260208281526040808420600160a060020a0393909316845291905290205460ff1690565b3390565b60006200025d83836401000000006200029e810204565b620002955750815460018181018455600084815260208082209093018490558454848252828601909352604090209190915562000213565b50600062000213565b60009081526001919091016020526040902054151590565b8051600160a060020a0381168114620002ce57600080fd5b919050565b60008060408385031215620002e757600080fd5b620002f283620002b6565b91506200030260208401620002b6565b90509250929050565b6116e3806200031b6000396000f3fe608060405234801561001057600080fd5b506004361061018b576000357c0100000000000000000000000000000000000000000000000000000000900480638b9cb90b116100eb578063c0eac886116100a4578063c0eac8861461038f578063ca15c873146103af578063cd0aab2e146103c2578063d547741f146103d5578063db710c5c146103e8578063dde39cba146103fb578063f8e6a04c1461041b57600080fd5b80638b9cb90b146102e85780639010d07c1461032957806391d148541461033c578063a217fddf1461034f578063ad1def1e14610357578063b45a3c0e1461036c57600080fd5b8063266fc8a511610148578063266fc8a5146102465780632f2ff15d1461026657806336568abe14610279578063548dbc7a1461028c57806354fd4d50146102ac57806375dbcddc146102b55780638323406d146102d557600080fd5b806301ffc9a71461019057806304a0fb17146101b85780630b4adfcf146101db578063159bcfb3146101fb57806323693ca614610210578063248a9ca314610223575b600080fd5b6101a361019e366004611113565b61042e565b60405190151581526020015b60405180910390f35b6101cd60008051602061168e83398151915281565b6040519081526020016101af565b6101cd6101e936600461113d565b60086020526000908152604090205481565b61020e61020936600461113d565b610472565b005b61020e61021e36600461122c565b6104eb565b6101cd61023136600461113d565b60009081526020819052604090206001015490565b61025961025436600461113d565b61068e565b6040516101af9190611271565b61020e6102743660046112d3565b610710565b61020e6102873660046112d3565b61073a565b6101cd61029a36600461113d565b60096020526000908152604090205481565b6101cd60035481565b6101cd6102c336600461113d565b600a6020526000908152604090205481565b6101a36102e33660046112ff565b6107c9565b6103116102f636600461113d565b600660205260009081526040902054600160a060020a031681565b604051600160a060020a0390911681526020016101af565b6103116103373660046112ff565b61080c565b6101a361034a3660046112d3565b61082b565b6101cd600081565b6101cd60008051602061166e83398151915281565b6101a361037a36600461113d565b60056020526000908152604090205460ff1681565b6101cd61039d36600461113d565b60076020526000908152604090205481565b6101cd6103bd36600461113d565b610854565b61020e6103d0366004611321565b61086b565b61020e6103e33660046112d3565b61095d565b6101cd6103f63660046113ba565b610982565b6101cd61040936600461113d565b600b6020526000908152604090205481565b61020e61042936600461143f565b610a07565b6000600160e060020a031982167f5a05180f00000000000000000000000000000000000000000000000000000000148061046c575061046c82610b3f565b92915050565b61048a60008051602061168e8339815191523361082b565b806104a857506104a860008051602061166e8339815191523361082b565b6104d05760405160e560020a62461bcd0281526004016104c79061147c565b60405180910390fd5b6000908152600560205260409020805460ff19166001179055565b61050360008051602061168e8339815191523361082b565b80610521575061052160008051602061166e8339815191523361082b565b6105405760405160e560020a62461bcd0281526004016104c79061147c565b60058251146105945760405160e560020a62461bcd02815260206004820152601760248201527f696e76616c6964206e756d626572206f662072756c657300000000000000000060448201526064016104c7565b816000815181106105a7576105a76114d9565b60200260200101516007600083815260200190815260200160002081905550816001815181106105d9576105d96114d9565b602002602001015160086000838152602001908152602001600020819055508160028151811061060b5761060b6114d9565b602002602001015160096000838152602001908152602001600020819055508160038151811061063d5761063d6114d9565b6020026020010151600a6000838152602001908152602001600020819055508160048151811061066f5761066f6114d9565b6020908102919091018101516000928352600b90915260409091205550565b60008181526004602090815260409182902080548351818402810184019094528084526060939283018282801561070457602002820191906000526020600020906000905b825461010083900a900460ff1615158152602060019283018181049485019490930390920291018084116106d35790505b50505050509050919050565b60008281526020819052604090206001015461072b81610ba6565b6107358383610bb0565b505050565b600160a060020a03811633146107bb5760405160e560020a62461bcd02815260206004820152602f60248201527f416363657373436f6e74726f6c3a2063616e206f6e6c792072656e6f756e636560448201527f20726f6c657320666f722073656c66000000000000000000000000000000000060648201526084016104c7565b6107c58282610bd2565b5050565b600460205281600052604060002081815481106107e557600080fd5b9060005260206000209060209182820401919006915091509054906101000a900460ff1681565b60008281526001602052604081206108249083610bf4565b9392505050565b600091825260208281526040808420600160a060020a0393909316845291905290205460ff1690565b600081815260016020526040812061046c90610c00565b61088360008051602061168e8339815191523361082b565b806108a157506108a160008051602061166e8339815191523361082b565b6108c05760405160e560020a62461bcd0281526004016104c79061147c565b60008181526005602052604090205460ff16156109225760405160e560020a62461bcd02815260206004820152600c60248201527f72756c6573206c6f636b6564000000000000000000000000000000000000000060448201526064016104c7565b6000908152600660205260409020805473ffffffffffffffffffffffffffffffffffffffff1916600160a060020a0392909216919091179055565b60008281526020819052604090206001015461097881610ba6565b6107358383610bd2565b600060008051602061168e83398151915261099c81610ba6565b60025491506109ab84836104eb565b6000828152600660209081526040808320805473ffffffffffffffffffffffffffffffffffffffff1916600160a060020a038a1617905560059091529020805460ff19168415151790556109fe86610a07565b50949350505050565b610a1f60008051602061168e8339815191523361082b565b80610a3d5750610a3d60008051602061166e8339815191523361082b565b610a5c5760405160e560020a62461bcd0281526004016104c79061147c565b8060046000610a6a60025490565b81526020019081526020016000209080519060200190610a8b929190611059565b50610a9a600280546001019055565b50565b80546001019055565b610ab0828261082b565b6107c557600082815260208181526040808320600160a060020a03851684529091529020805460ff19166001179055610ae63390565b600160a060020a031681600160a060020a0316837f2f8788117e7eff1d82e926ec794901d17c78024a50270940304540a733656f0d60405160405180910390a45050565b600061082483600160a060020a038416610c0a565b6000600160e060020a031982167f7965db0b00000000000000000000000000000000000000000000000000000000148061046c57507f01ffc9a700000000000000000000000000000000000000000000000000000000600160e060020a031983161461046c565b610a9a8133610c59565b610bba8282610aa6565b60008281526001602052604090206107359082610b2a565b610bdc8282610cc0565b60008281526001602052604090206107359082610d25565b60006108248383610d3a565b600061046c825490565b6000818152600183016020526040812054610c515750815460018181018455600084815260208082209093018490558454848252828601909352604090209190915561046c565b50600061046c565b610c63828261082b565b6107c557610c7b81600160a060020a03166014610d64565b610c86836020610d64565b604051602001610c97929190611522565b60408051601f198184030181529082905260e560020a62461bcd0282526104c7916004016115a3565b610cca828261082b565b156107c557600082815260208181526040808320600160a060020a0385168085529252808320805460ff1916905551339285917ff6391f5c32d9c69d2a47ea670b442974b53935d1edc7fd64eb21e047a839171b9190a45050565b600061082483600160a060020a038416610f66565b6000826000018281548110610d5157610d516114d9565b9060005260206000200154905092915050565b60606000610d738360026115ef565b610d7e90600261160e565b67ffffffffffffffff811115610d9657610d96611156565b6040519080825280601f01601f191660200182016040528015610dc0576020820181803683370190505b5090507f300000000000000000000000000000000000000000000000000000000000000081600081518110610df757610df76114d9565b6020010190600160f860020a031916908160001a9053507f780000000000000000000000000000000000000000000000000000000000000081600181518110610e4257610e426114d9565b6020010190600160f860020a031916908160001a9053506000610e668460026115ef565b610e7190600161160e565b90505b6001811115610f14577f303132333435363738396162636465660000000000000000000000000000000085600f1660108110610eb257610eb26114d9565b1a7f010000000000000000000000000000000000000000000000000000000000000002828281518110610ee757610ee76114d9565b6020010190600160f860020a031916908160001a905350601090940493610f0d81611626565b9050610e74565b5083156108245760405160e560020a62461bcd02815260206004820181905260248201527f537472696e67733a20686578206c656e67746820696e73756666696369656e7460448201526064016104c7565b6000818152600183016020526040812054801561104f576000610f8a60018361163d565b8554909150600090610f9e9060019061163d565b9050818114611003576000866000018281548110610fbe57610fbe6114d9565b9060005260206000200154905080876000018481548110610fe157610fe16114d9565b6000918252602080832090910192909255918252600188019052604090208390555b855486908061101457611014611654565b60019003818190600052602060002001600090559055856001016000868152602001908152602001600020600090556001935050505061046c565b600091505061046c565b82805482825590600052602060002090601f016020900481019282156110ee5791602002820160005b838211156110bf57835183826101000a81548160ff0219169083151502179055509260200192600101602081600001049283019260010302611082565b80156110ec5782816101000a81549060ff02191690556001016020816000010492830192600103026110bf565b505b506110fa9291506110fe565b5090565b5b808211156110fa57600081556001016110ff565b60006020828403121561112557600080fd5b8135600160e060020a03198116811461082457600080fd5b60006020828403121561114f57600080fd5b5035919050565b60e060020a634e487b7102600052604160045260246000fd5b604051601f8201601f1916810167ffffffffffffffff8111828210171561119857611198611156565b604052919050565b600067ffffffffffffffff8211156111ba576111ba611156565b5060209081020190565b600082601f8301126111d557600080fd5b813560206111ea6111e5836111a0565b61116f565b8281529181028401810191818101908684111561120657600080fd5b8286015b84811015611221578035835291830191830161120a565b509695505050505050565b6000806040838503121561123f57600080fd5b823567ffffffffffffffff81111561125657600080fd5b611262858286016111c4565b95602094909401359450505050565b6020808252825182820181905260009190848201906040850190845b818110156112ab57835115158352928401929184019160010161128d565b50909695505050505050565b8035600160a060020a03811681146112ce57600080fd5b919050565b600080604083850312156112e657600080fd5b823591506112f6602084016112b7565b90509250929050565b6000806040838503121561131257600080fd5b50508035926020909101359150565b6000806040838503121561133457600080fd5b61133d836112b7565b946020939093013593505050565b803580151581146112ce57600080fd5b600082601f83011261136c57600080fd5b8135602061137c6111e5836111a0565b8281529181028401810191818101908684111561139857600080fd5b8286015b84811015611221576113ad8161134b565b835291830191830161139c565b600080600080608085870312156113d057600080fd5b843567ffffffffffffffff808211156113e857600080fd5b6113f48883890161135b565b9550611402602088016112b7565b9450604087013591508082111561141857600080fd5b50611425878288016111c4565b9250506114346060860161134b565b905092959194509250565b60006020828403121561145157600080fd5b813567ffffffffffffffff81111561146857600080fd5b6114748482850161135b565b949350505050565b60208082526024908201527f47616d65204d6173746572206f7220466163746f727920726f6c65207265717560408201527f6972656400000000000000000000000000000000000000000000000000000000606082015260800190565b60e060020a634e487b7102600052603260045260246000fd5b60005b8381101561150d5781810151838201526020016114f5565b8381111561151c576000848401525b50505050565b7f416363657373436f6e74726f6c3a206163636f756e742000000000000000000081526000835161155a8160178501602088016114f2565b7f206973206d697373696e6720726f6c652000000000000000000000000000000060179184019182015283516115978160288401602088016114f2565b01602801949350505050565b60208152600082518060208401526115c28160408501602087016114f2565b601f01601f19169190910160400192915050565b60e060020a634e487b7102600052601160045260246000fd5b6000816000190483118215151615611609576116096115d6565b500290565b60008219821115611621576116216115d6565b500190565b600081611635576116356115d6565b506000190190565b60008282101561164f5761164f6115d6565b500390565b60e060020a634e487b7102600052603160045260246000fdfe1d93c87416ca7b54f0fb8323167b72760e8e2ec93d48660953897a150f97a8b4dfbefbf47cfe66b701d8cfdbce1de81c821590819cb07e71cb01b6602fb0ee27a2646970667358221220ff2cf8f04a9e8d23a2446c9cfb1ba3de252660ef060892671eef8894dac28d6064736f6c634300080b0033",
  "immutableReferences": {},
  "source": "// SPDX-License-Identifier: GPL-3.0\n\npragma solidity >=0.7.0 <0.9.0;\n\nimport \"@openzeppelin/contracts/access/AccessControlEnumerable.sol\";\nimport \"@openzeppelin/contracts/utils/Counters.sol\";\n\ncontract Ruleset is AccessControlEnumerable {\n    using Counters for Counters.Counter;\n    bytes32 public constant GAME_MASTER_ROLE = keccak256(\"GAME_MASTER_ROLE\");\n    bytes32 public constant FACTORY_ROLE = keccak256(\"FACTORY_ROLE\");\n\n    Counters.Counter internal _rulsetIdTracker;\n\n    uint256 public version = 1;\n\n    // Mapping from Ruleset ID\n    mapping(uint256 => bool[]) public rules;\n    mapping(uint256 => bool) public locked;\n    mapping(uint256 => address) public payoutToken; // if not set will default to native token\n    mapping(uint256 => uint256) public maxCapacity;\n    mapping(uint256 => uint256) public maxEntrySize;\n    mapping(uint256 => uint256) public maxExitSize;\n    mapping(uint256 => uint256) public entryPayoutAmount;\n    mapping(uint256 => uint256) public exitPayoutAmount;\n\n    uint256 constant RULE_VALUES = 5;\n\n    modifier onlyFactoryGM() {\n        require(\n            hasRole(FACTORY_ROLE, _msgSender()) ||\n                hasRole(GAME_MASTER_ROLE, _msgSender()),\n            \"Game Master or Factory role required\"\n        );\n        _;\n    }\n\n    constructor(address adminAddress, address factoryAddress) {\n        // Admin set as game master\n        // Can revoke role if desired\n        _setupRole(DEFAULT_ADMIN_ROLE, adminAddress);\n        _setupRole(GAME_MASTER_ROLE, adminAddress);\n        if (factoryAddress != address(0)) {\n            _setupRole(FACTORY_ROLE, factoryAddress);\n        }\n        _rulsetIdTracker.increment(); // Start Rulset IDs @ 1\n\n        // TODO: create ruleset @ 0 default rules, used when none is set\n    }\n\n    // Rules\n    /*\n    0 = use max capacity\n    1 = use max entry size\n    2 = use max exit size\n    3 = payout on entry\n    4 = payout on exit\n    */\n\n    function createRulesetFromFactory(\n        bool[] memory ruleFlags,\n        address tokenAddress,\n        uint256[] memory ruleValues,\n        bool lockAfterSet\n    ) external onlyRole(FACTORY_ROLE) returns (uint256 rulesetID) {\n        rulesetID = _rulsetIdTracker.current();\n        setAllRules(ruleValues, rulesetID);\n        payoutToken[rulesetID] = tokenAddress;\n        locked[rulesetID] = lockAfterSet;\n        createRuleset(ruleFlags);\n    }\n\n    function createRuleset(bool[] memory ruleFlags) public onlyFactoryGM {\n        rules[_rulsetIdTracker.current()] = ruleFlags;\n        _rulsetIdTracker.increment();\n    }\n\n    function getAllRules(uint256 rulesetID)\n        public\n        view\n        returns (bool[] memory)\n    {\n        return rules[rulesetID];\n    }\n\n    function setAllRules(uint256[] memory ruleValues, uint256 rulesetID)\n        public\n        onlyFactoryGM\n    {\n        require(ruleValues.length == RULE_VALUES, \"invalid number of rules\");\n        //[maxCapacity, maxEntrySize, maxExitSize, entryPayoutAmount, exitPayoutAmount]\n        maxCapacity[rulesetID] = ruleValues[0];\n        maxEntrySize[rulesetID] = ruleValues[1];\n        maxExitSize[rulesetID] = ruleValues[2];\n        entryPayoutAmount[rulesetID] = ruleValues[3];\n        exitPayoutAmount[rulesetID] = ruleValues[4];\n    }\n\n    function setPayoutToken(address tokenAddress, uint256 rulesetID)\n        public\n        onlyFactoryGM\n    {\n        require(!locked[rulesetID], \"rules locked\");\n        payoutToken[rulesetID] = tokenAddress;\n    }\n\n    // This will permanently lock this ruleset\n    function lockRules(uint256 rulesetID) public onlyFactoryGM {\n        locked[rulesetID] = true;\n    }\n}\n",
  "sourcePath": "@luckymachines/game-core/contracts/src/v0.0/Ruleset.sol",
  "compiler": {
    "name": "solc",
    "version": "0.8.11+commit.d7f03943.Emscripten.clang"
  },
  "schemaVersion": "3.4.4",
  "updatedAt": "2022-05-27T21:02:42.992Z",
  "devdoc": {
    "kind": "dev",
    "methods": {
      "getRoleAdmin(bytes32)": {
        "details": "Returns the admin role that controls `role`. See {grantRole} and {revokeRole}. To change a role's admin, use {_setRoleAdmin}."
      },
      "getRoleMember(bytes32,uint256)": {
        "details": "Returns one of the accounts that have `role`. `index` must be a value between 0 and {getRoleMemberCount}, non-inclusive. Role bearers are not sorted in any particular way, and their ordering may change at any point. WARNING: When using {getRoleMember} and {getRoleMemberCount}, make sure you perform all queries on the same block. See the following https://forum.openzeppelin.com/t/iterating-over-elements-on-enumerableset-in-openzeppelin-contracts/2296[forum post] for more information."
      },
      "getRoleMemberCount(bytes32)": {
        "details": "Returns the number of accounts that have `role`. Can be used together with {getRoleMember} to enumerate all bearers of a role."
      },
      "grantRole(bytes32,address)": {
        "details": "Grants `role` to `account`. If `account` had not been already granted `role`, emits a {RoleGranted} event. Requirements: - the caller must have ``role``'s admin role."
      },
      "hasRole(bytes32,address)": {
        "details": "Returns `true` if `account` has been granted `role`."
      },
      "renounceRole(bytes32,address)": {
        "details": "Revokes `role` from the calling account. Roles are often managed via {grantRole} and {revokeRole}: this function's purpose is to provide a mechanism for accounts to lose their privileges if they are compromised (such as when a trusted device is misplaced). If the calling account had been revoked `role`, emits a {RoleRevoked} event. Requirements: - the caller must be `account`."
      },
      "revokeRole(bytes32,address)": {
        "details": "Revokes `role` from `account`. If `account` had been granted `role`, emits a {RoleRevoked} event. Requirements: - the caller must have ``role``'s admin role."
      },
      "supportsInterface(bytes4)": {
        "details": "See {IERC165-supportsInterface}."
      }
    },
    "version": 1
  },
  "userdoc": {
    "kind": "user",
    "methods": {},
    "version": 1
  }
}