{
  "contractName": "Ruleset",
  "abi": [
    {
      "inputs": [
        {
          "internalType": "address",
          "name": "adminAddress",
          "type": "address"
        },
        {
          "internalType": "address",
          "name": "factoryAddress",
          "type": "address"
        }
      ],
      "stateMutability": "nonpayable",
      "type": "constructor"
    },
    {
      "anonymous": false,
      "inputs": [
        {
          "indexed": true,
          "internalType": "bytes32",
          "name": "role",
          "type": "bytes32"
        },
        {
          "indexed": true,
          "internalType": "bytes32",
          "name": "previousAdminRole",
          "type": "bytes32"
        },
        {
          "indexed": true,
          "internalType": "bytes32",
          "name": "newAdminRole",
          "type": "bytes32"
        }
      ],
      "name": "RoleAdminChanged",
      "type": "event"
    },
    {
      "anonymous": false,
      "inputs": [
        {
          "indexed": true,
          "internalType": "bytes32",
          "name": "role",
          "type": "bytes32"
        },
        {
          "indexed": true,
          "internalType": "address",
          "name": "account",
          "type": "address"
        },
        {
          "indexed": true,
          "internalType": "address",
          "name": "sender",
          "type": "address"
        }
      ],
      "name": "RoleGranted",
      "type": "event"
    },
    {
      "anonymous": false,
      "inputs": [
        {
          "indexed": true,
          "internalType": "bytes32",
          "name": "role",
          "type": "bytes32"
        },
        {
          "indexed": true,
          "internalType": "address",
          "name": "account",
          "type": "address"
        },
        {
          "indexed": true,
          "internalType": "address",
          "name": "sender",
          "type": "address"
        }
      ],
      "name": "RoleRevoked",
      "type": "event"
    },
    {
      "inputs": [],
      "name": "DEFAULT_ADMIN_ROLE",
      "outputs": [
        {
          "internalType": "bytes32",
          "name": "",
          "type": "bytes32"
        }
      ],
      "stateMutability": "view",
      "type": "function"
    },
    {
      "inputs": [],
      "name": "FACTORY_ROLE",
      "outputs": [
        {
          "internalType": "bytes32",
          "name": "",
          "type": "bytes32"
        }
      ],
      "stateMutability": "view",
      "type": "function"
    },
    {
      "inputs": [],
      "name": "GAME_MASTER_ROLE",
      "outputs": [
        {
          "internalType": "bytes32",
          "name": "",
          "type": "bytes32"
        }
      ],
      "stateMutability": "view",
      "type": "function"
    },
    {
      "inputs": [
        {
          "internalType": "uint256",
          "name": "",
          "type": "uint256"
        }
      ],
      "name": "entryPayoutAmount",
      "outputs": [
        {
          "internalType": "uint256",
          "name": "",
          "type": "uint256"
        }
      ],
      "stateMutability": "view",
      "type": "function"
    },
    {
      "inputs": [
        {
          "internalType": "uint256",
          "name": "",
          "type": "uint256"
        }
      ],
      "name": "exitPayoutAmount",
      "outputs": [
        {
          "internalType": "uint256",
          "name": "",
          "type": "uint256"
        }
      ],
      "stateMutability": "view",
      "type": "function"
    },
    {
      "inputs": [
        {
          "internalType": "bytes32",
          "name": "role",
          "type": "bytes32"
        }
      ],
      "name": "getRoleAdmin",
      "outputs": [
        {
          "internalType": "bytes32",
          "name": "",
          "type": "bytes32"
        }
      ],
      "stateMutability": "view",
      "type": "function"
    },
    {
      "inputs": [
        {
          "internalType": "bytes32",
          "name": "role",
          "type": "bytes32"
        },
        {
          "internalType": "uint256",
          "name": "index",
          "type": "uint256"
        }
      ],
      "name": "getRoleMember",
      "outputs": [
        {
          "internalType": "address",
          "name": "",
          "type": "address"
        }
      ],
      "stateMutability": "view",
      "type": "function"
    },
    {
      "inputs": [
        {
          "internalType": "bytes32",
          "name": "role",
          "type": "bytes32"
        }
      ],
      "name": "getRoleMemberCount",
      "outputs": [
        {
          "internalType": "uint256",
          "name": "",
          "type": "uint256"
        }
      ],
      "stateMutability": "view",
      "type": "function"
    },
    {
      "inputs": [
        {
          "internalType": "bytes32",
          "name": "role",
          "type": "bytes32"
        },
        {
          "internalType": "address",
          "name": "account",
          "type": "address"
        }
      ],
      "name": "grantRole",
      "outputs": [],
      "stateMutability": "nonpayable",
      "type": "function"
    },
    {
      "inputs": [
        {
          "internalType": "bytes32",
          "name": "role",
          "type": "bytes32"
        },
        {
          "internalType": "address",
          "name": "account",
          "type": "address"
        }
      ],
      "name": "hasRole",
      "outputs": [
        {
          "internalType": "bool",
          "name": "",
          "type": "bool"
        }
      ],
      "stateMutability": "view",
      "type": "function"
    },
    {
      "inputs": [
        {
          "internalType": "uint256",
          "name": "",
          "type": "uint256"
        }
      ],
      "name": "locked",
      "outputs": [
        {
          "internalType": "bool",
          "name": "",
          "type": "bool"
        }
      ],
      "stateMutability": "view",
      "type": "function"
    },
    {
      "inputs": [
        {
          "internalType": "uint256",
          "name": "",
          "type": "uint256"
        }
      ],
      "name": "maxCapacity",
      "outputs": [
        {
          "internalType": "uint256",
          "name": "",
          "type": "uint256"
        }
      ],
      "stateMutability": "view",
      "type": "function"
    },
    {
      "inputs": [
        {
          "internalType": "uint256",
          "name": "",
          "type": "uint256"
        }
      ],
      "name": "maxEntrySize",
      "outputs": [
        {
          "internalType": "uint256",
          "name": "",
          "type": "uint256"
        }
      ],
      "stateMutability": "view",
      "type": "function"
    },
    {
      "inputs": [
        {
          "internalType": "uint256",
          "name": "",
          "type": "uint256"
        }
      ],
      "name": "maxExitSize",
      "outputs": [
        {
          "internalType": "uint256",
          "name": "",
          "type": "uint256"
        }
      ],
      "stateMutability": "view",
      "type": "function"
    },
    {
      "inputs": [
        {
          "internalType": "uint256",
          "name": "",
          "type": "uint256"
        }
      ],
      "name": "payoutToken",
      "outputs": [
        {
          "internalType": "address",
          "name": "",
          "type": "address"
        }
      ],
      "stateMutability": "view",
      "type": "function"
    },
    {
      "inputs": [
        {
          "internalType": "bytes32",
          "name": "role",
          "type": "bytes32"
        },
        {
          "internalType": "address",
          "name": "account",
          "type": "address"
        }
      ],
      "name": "renounceRole",
      "outputs": [],
      "stateMutability": "nonpayable",
      "type": "function"
    },
    {
      "inputs": [
        {
          "internalType": "bytes32",
          "name": "role",
          "type": "bytes32"
        },
        {
          "internalType": "address",
          "name": "account",
          "type": "address"
        }
      ],
      "name": "revokeRole",
      "outputs": [],
      "stateMutability": "nonpayable",
      "type": "function"
    },
    {
      "inputs": [
        {
          "internalType": "uint256",
          "name": "",
          "type": "uint256"
        },
        {
          "internalType": "uint256",
          "name": "",
          "type": "uint256"
        }
      ],
      "name": "rules",
      "outputs": [
        {
          "internalType": "bool",
          "name": "",
          "type": "bool"
        }
      ],
      "stateMutability": "view",
      "type": "function"
    },
    {
      "inputs": [
        {
          "internalType": "bytes4",
          "name": "interfaceId",
          "type": "bytes4"
        }
      ],
      "name": "supportsInterface",
      "outputs": [
        {
          "internalType": "bool",
          "name": "",
          "type": "bool"
        }
      ],
      "stateMutability": "view",
      "type": "function"
    },
    {
      "inputs": [],
      "name": "version",
      "outputs": [
        {
          "internalType": "uint256",
          "name": "",
          "type": "uint256"
        }
      ],
      "stateMutability": "view",
      "type": "function"
    },
    {
      "inputs": [
        {
          "internalType": "bool[]",
          "name": "ruleFlags",
          "type": "bool[]"
        },
        {
          "internalType": "address",
          "name": "tokenAddress",
          "type": "address"
        },
        {
          "internalType": "uint256[]",
          "name": "ruleValues",
          "type": "uint256[]"
        },
        {
          "internalType": "bool",
          "name": "lockAfterSet",
          "type": "bool"
        }
      ],
      "name": "createRulesetFromFactory",
      "outputs": [
        {
          "internalType": "uint256",
          "name": "rulesetID",
          "type": "uint256"
        }
      ],
      "stateMutability": "nonpayable",
      "type": "function"
    },
    {
      "inputs": [
        {
          "internalType": "bool[]",
          "name": "ruleFlags",
          "type": "bool[]"
        }
      ],
      "name": "createRuleset",
      "outputs": [],
      "stateMutability": "nonpayable",
      "type": "function"
    },
    {
      "inputs": [
        {
          "internalType": "uint256",
          "name": "rulesetID",
          "type": "uint256"
        }
      ],
      "name": "getAllRules",
      "outputs": [
        {
          "internalType": "bool[]",
          "name": "",
          "type": "bool[]"
        }
      ],
      "stateMutability": "view",
      "type": "function"
    },
    {
      "inputs": [
        {
          "internalType": "uint256[]",
          "name": "ruleValues",
          "type": "uint256[]"
        },
        {
          "internalType": "uint256",
          "name": "rulesetID",
          "type": "uint256"
        }
      ],
      "name": "setAllRules",
      "outputs": [],
      "stateMutability": "nonpayable",
      "type": "function"
    },
    {
      "inputs": [
        {
          "internalType": "address",
          "name": "tokenAddress",
          "type": "address"
        },
        {
          "internalType": "uint256",
          "name": "rulesetID",
          "type": "uint256"
        }
      ],
      "name": "setPayoutToken",
      "outputs": [],
      "stateMutability": "nonpayable",
      "type": "function"
    },
    {
      "inputs": [
        {
          "internalType": "uint256",
          "name": "rulesetID",
          "type": "uint256"
        }
      ],
      "name": "lockRules",
      "outputs": [],
      "stateMutability": "nonpayable",
      "type": "function"
    }
  ],
  "bytecode": "0x608060405260016003553480156200001657600080fd5b5060405162001a6638038062001a668339810160408190526200003991620002d3565b6200004f600083640100000000620000eb810204565b620000847f1d93c87416ca7b54f0fb8323167b72760e8e2ec93d48660953897a150f97a8b483640100000000620000eb810204565b600160a060020a03811615620000c957620000c97fdfbefbf47cfe66b701d8cfdbce1de81c821590819cb07e71cb01b6602fb0ee2782640100000000620000eb810204565b620000e3600264010000000062000abd6200010482021704565b50506200030b565b6200010082826401000000006200010d810204565b5050565b80546001019055565b62000127828264010000000062000ac66200015482021704565b60008281526001602052604090206200014f908264010000000062000b4a620001f082021704565b505050565b62000169828264010000000062000219810204565b6200010057600082815260208181526040808320600160a060020a03851684529091529020805460ff19166001179055620001ac64010000000062000242810204565b600160a060020a031681600160a060020a0316837f2f8788117e7eff1d82e926ec794901d17c78024a50270940304540a733656f0d60405160405180910390a45050565b60006200021083600160a060020a03841664010000000062000246810204565b90505b92915050565b600091825260208281526040808420600160a060020a0393909316845291905290205460ff1690565b3390565b60006200025d83836401000000006200029e810204565b620002955750815460018181018455600084815260208082209093018490558454848252828601909352604090209190915562000213565b50600062000213565b60009081526001919091016020526040902054151590565b8051600160a060020a0381168114620002ce57600080fd5b919050565b60008060408385031215620002e757600080fd5b620002f283620002b6565b91506200030260208401620002b6565b90509250929050565b61174b806200031b6000396000f3fe608060405234801561001057600080fd5b50600436106101ab576000357c0100000000000000000000000000000000000000000000000000000000900480638b9cb90b116100fb578063c0eac886116100b4578063d547741f1161008e578063d547741f146103f5578063db710c5c14610408578063dde39cba1461041b578063f8e6a04c1461043b57600080fd5b8063c0eac886146103af578063ca15c873146103cf578063cd0aab2e146103e257600080fd5b80638b9cb90b146103085780639010d07c1461034957806391d148541461035c578063a217fddf1461036f578063ad1def1e14610377578063b45a3c0e1461038c57600080fd5b8063266fc8a511610168578063548dbc7a11610142578063548dbc7a146102ac57806354fd4d50146102cc57806375dbcddc146102d55780638323406d146102f557600080fd5b8063266fc8a5146102665780632f2ff15d1461028657806336568abe1461029957600080fd5b806301ffc9a7146101b057806304a0fb17146101d85780630b4adfcf146101fb578063159bcfb31461021b57806323693ca614610230578063248a9ca314610243575b600080fd5b6101c36101be36600461117b565b61044e565b60405190151581526020015b60405180910390f35b6101ed6000805160206116f683398151915281565b6040519081526020016101cf565b6101ed6102093660046111a5565b60086020526000908152604090205481565b61022e6102293660046111a5565b610492565b005b61022e61023e366004611294565b61050b565b6101ed6102513660046111a5565b60009081526020819052604090206001015490565b6102796102743660046111a5565b6106ae565b6040516101cf91906112d9565b61022e61029436600461133b565b610730565b61022e6102a736600461133b565b61075a565b6101ed6102ba3660046111a5565b60096020526000908152604090205481565b6101ed60035481565b6101ed6102e33660046111a5565b600a6020526000908152604090205481565b6101c3610303366004611367565b6107e9565b6103316103163660046111a5565b600660205260009081526040902054600160a060020a031681565b604051600160a060020a0390911681526020016101cf565b610331610357366004611367565b61082c565b6101c361036a36600461133b565b61084b565b6101ed600081565b6101ed6000805160206116d683398151915281565b6101c361039a3660046111a5565b60056020526000908152604090205460ff1681565b6101ed6103bd3660046111a5565b60076020526000908152604090205481565b6101ed6103dd3660046111a5565b610874565b61022e6103f0366004611389565b61088b565b61022e61040336600461133b565b61097d565b6101ed610416366004611422565b6109a2565b6101ed6104293660046111a5565b600b6020526000908152604090205481565b61022e6104493660046114a7565b610a27565b6000600160e060020a031982167f5a05180f00000000000000000000000000000000000000000000000000000000148061048c575061048c82610b5f565b92915050565b6104aa6000805160206116f68339815191523361084b565b806104c857506104c86000805160206116d68339815191523361084b565b6104f05760405160e560020a62461bcd0281526004016104e7906114e4565b60405180910390fd5b6000908152600560205260409020805460ff19166001179055565b6105236000805160206116f68339815191523361084b565b8061054157506105416000805160206116d68339815191523361084b565b6105605760405160e560020a62461bcd0281526004016104e7906114e4565b60058251146105b45760405160e560020a62461bcd02815260206004820152601760248201527f696e76616c6964206e756d626572206f662072756c657300000000000000000060448201526064016104e7565b816000815181106105c7576105c7611541565b60200260200101516007600083815260200190815260200160002081905550816001815181106105f9576105f9611541565b602002602001015160086000838152602001908152602001600020819055508160028151811061062b5761062b611541565b602002602001015160096000838152602001908152602001600020819055508160038151811061065d5761065d611541565b6020026020010151600a6000838152602001908152602001600020819055508160048151811061068f5761068f611541565b6020908102919091018101516000928352600b90915260409091205550565b60008181526004602090815260409182902080548351818402810184019094528084526060939283018282801561072457602002820191906000526020600020906000905b825461010083900a900460ff1615158152602060019283018181049485019490930390920291018084116106f35790505b50505050509050919050565b60008281526020819052604090206001015461074b81610bc6565b6107558383610bd0565b505050565b600160a060020a03811633146107db5760405160e560020a62461bcd02815260206004820152602f60248201527f416363657373436f6e74726f6c3a2063616e206f6e6c792072656e6f756e636560448201527f20726f6c657320666f722073656c66000000000000000000000000000000000060648201526084016104e7565b6107e58282610bf2565b5050565b6004602052816000526040600020818154811061080557600080fd5b9060005260206000209060209182820401919006915091509054906101000a900460ff1681565b60008281526001602052604081206108449083610c14565b9392505050565b600091825260208281526040808420600160a060020a0393909316845291905290205460ff1690565b600081815260016020526040812061048c90610c20565b6108a36000805160206116f68339815191523361084b565b806108c157506108c16000805160206116d68339815191523361084b565b6108e05760405160e560020a62461bcd0281526004016104e7906114e4565b60008181526005602052604090205460ff16156109425760405160e560020a62461bcd02815260206004820152600c60248201527f72756c6573206c6f636b6564000000000000000000000000000000000000000060448201526064016104e7565b6000908152600660205260409020805473ffffffffffffffffffffffffffffffffffffffff1916600160a060020a0392909216919091179055565b60008281526020819052604090206001015461099881610bc6565b6107558383610bf2565b60006000805160206116f68339815191526109bc81610bc6565b60025491506109cb848361050b565b6000828152600660209081526040808320805473ffffffffffffffffffffffffffffffffffffffff1916600160a060020a038a1617905560059091529020805460ff1916841515179055610a1e86610a27565b50949350505050565b610a3f6000805160206116f68339815191523361084b565b80610a5d5750610a5d6000805160206116d68339815191523361084b565b610a7c5760405160e560020a62461bcd0281526004016104e7906114e4565b8060046000610a8a60025490565b81526020019081526020016000209080519060200190610aab9291906110c1565b50610aba600280546001019055565b50565b80546001019055565b610ad0828261084b565b6107e557600082815260208181526040808320600160a060020a03851684529091529020805460ff19166001179055610b063390565b600160a060020a031681600160a060020a0316837f2f8788117e7eff1d82e926ec794901d17c78024a50270940304540a733656f0d60405160405180910390a45050565b600061084483600160a060020a038416610c2a565b6000600160e060020a031982167f7965db0b00000000000000000000000000000000000000000000000000000000148061048c57507f01ffc9a700000000000000000000000000000000000000000000000000000000600160e060020a031983161461048c565b610aba8133610c79565b610bda8282610ac6565b60008281526001602052604090206107559082610b4a565b610bfc8282610ce0565b60008281526001602052604090206107559082610d45565b60006108448383610d5a565b600061048c825490565b6000818152600183016020526040812054610c715750815460018181018455600084815260208082209093018490558454848252828601909352604090209190915561048c565b50600061048c565b610c83828261084b565b6107e557610c9b81600160a060020a03166014610d84565b610ca6836020610d84565b604051602001610cb792919061158a565b60408051601f198184030181529082905260e560020a62461bcd0282526104e79160040161160b565b610cea828261084b565b156107e557600082815260208181526040808320600160a060020a0385168085529252808320805460ff1916905551339285917ff6391f5c32d9c69d2a47ea670b442974b53935d1edc7fd64eb21e047a839171b9190a45050565b600061084483600160a060020a038416610fce565b6000826000018281548110610d7157610d71611541565b9060005260206000200154905092915050565b60606000610d93836002611657565b610d9e906002611676565b67ffffffffffffffff811115610db657610db66111be565b6040519080825280601f01601f191660200182016040528015610de0576020820181803683370190505b5090507f300000000000000000000000000000000000000000000000000000000000000081600081518110610e1757610e17611541565b60200101907effffffffffffffffffffffffffffffffffffffffffffffffffffffffffffff1916908160001a9053507f780000000000000000000000000000000000000000000000000000000000000081600181518110610e7a57610e7a611541565b60200101907effffffffffffffffffffffffffffffffffffffffffffffffffffffffffffff1916908160001a9053506000610eb6846002611657565b610ec1906001611676565b90505b6001811115610f7c577f303132333435363738396162636465660000000000000000000000000000000085600f1660108110610f0257610f02611541565b1a7f010000000000000000000000000000000000000000000000000000000000000002828281518110610f3757610f37611541565b60200101907effffffffffffffffffffffffffffffffffffffffffffffffffffffffffffff1916908160001a905350601090940493610f758161168e565b9050610ec4565b5083156108445760405160e560020a62461bcd02815260206004820181905260248201527f537472696e67733a20686578206c656e67746820696e73756666696369656e7460448201526064016104e7565b600081815260018301602052604081205480156110b7576000610ff26001836116a5565b8554909150600090611006906001906116a5565b905081811461106b57600086600001828154811061102657611026611541565b906000526020600020015490508087600001848154811061104957611049611541565b6000918252602080832090910192909255918252600188019052604090208390555b855486908061107c5761107c6116bc565b60019003818190600052602060002001600090559055856001016000868152602001908152602001600020600090556001935050505061048c565b600091505061048c565b82805482825590600052602060002090601f016020900481019282156111565791602002820160005b8382111561112757835183826101000a81548160ff02191690831515021790555092602001926001016020816000010492830192600103026110ea565b80156111545782816101000a81549060ff0219169055600101602081600001049283019260010302611127565b505b50611162929150611166565b5090565b5b808211156111625760008155600101611167565b60006020828403121561118d57600080fd5b8135600160e060020a03198116811461084457600080fd5b6000602082840312156111b757600080fd5b5035919050565b60e060020a634e487b7102600052604160045260246000fd5b604051601f8201601f1916810167ffffffffffffffff81118282101715611200576112006111be565b604052919050565b600067ffffffffffffffff821115611222576112226111be565b5060209081020190565b600082601f83011261123d57600080fd5b8135602061125261124d83611208565b6111d7565b8281529181028401810191818101908684111561126e57600080fd5b8286015b848110156112895780358352918301918301611272565b509695505050505050565b600080604083850312156112a757600080fd5b823567ffffffffffffffff8111156112be57600080fd5b6112ca8582860161122c565b95602094909401359450505050565b6020808252825182820181905260009190848201906040850190845b818110156113135783511515835292840192918401916001016112f5565b50909695505050505050565b8035600160a060020a038116811461133657600080fd5b919050565b6000806040838503121561134e57600080fd5b8235915061135e6020840161131f565b90509250929050565b6000806040838503121561137a57600080fd5b50508035926020909101359150565b6000806040838503121561139c57600080fd5b6113a58361131f565b946020939093013593505050565b8035801515811461133657600080fd5b600082601f8301126113d457600080fd5b813560206113e461124d83611208565b8281529181028401810191818101908684111561140057600080fd5b8286015b8481101561128957611415816113b3565b8352918301918301611404565b6000806000806080858703121561143857600080fd5b843567ffffffffffffffff8082111561145057600080fd5b61145c888389016113c3565b955061146a6020880161131f565b9450604087013591508082111561148057600080fd5b5061148d8782880161122c565b92505061149c606086016113b3565b905092959194509250565b6000602082840312156114b957600080fd5b813567ffffffffffffffff8111156114d057600080fd5b6114dc848285016113c3565b949350505050565b60208082526024908201527f47616d65204d6173746572206f7220466163746f727920726f6c65207265717560408201527f6972656400000000000000000000000000000000000000000000000000000000606082015260800190565b60e060020a634e487b7102600052603260045260246000fd5b60005b8381101561157557818101518382015260200161155d565b83811115611584576000848401525b50505050565b7f416363657373436f6e74726f6c3a206163636f756e74200000000000000000008152600083516115c281601785016020880161155a565b7f206973206d697373696e6720726f6c652000000000000000000000000000000060179184019182015283516115ff81602884016020880161155a565b01602801949350505050565b602081526000825180602084015261162a81604085016020870161155a565b601f01601f19169190910160400192915050565b60e060020a634e487b7102600052601160045260246000fd5b60008160001904831182151516156116715761167161163e565b500290565b600082198211156116895761168961163e565b500190565b60008161169d5761169d61163e565b506000190190565b6000828210156116b7576116b761163e565b500390565b60e060020a634e487b7102600052603160045260246000fdfe1d93c87416ca7b54f0fb8323167b72760e8e2ec93d48660953897a150f97a8b4dfbefbf47cfe66b701d8cfdbce1de81c821590819cb07e71cb01b6602fb0ee27a26469706673582212206cd308a2caa95252ab0d7c39dd2e74071f2155f0290e12260e9dbf3011689ce964736f6c634300080b0033",
  "immutableReferences": {},
  "source": "// SPDX-License-Identifier: GPL-3.0\n\npragma solidity >=0.7.0 <0.9.0;\n\nimport \"@openzeppelin/contracts/access/AccessControlEnumerable.sol\";\nimport \"@openzeppelin/contracts/utils/Counters.sol\";\n\ncontract Ruleset is AccessControlEnumerable {\n    using Counters for Counters.Counter;\n    bytes32 public constant GAME_MASTER_ROLE = keccak256(\"GAME_MASTER_ROLE\");\n    bytes32 public constant FACTORY_ROLE = keccak256(\"FACTORY_ROLE\");\n\n    Counters.Counter internal _rulsetIdTracker;\n\n    uint256 public version = 1;\n\n    // Mapping from Ruleset ID\n    mapping(uint256 => bool[]) public rules;\n    mapping(uint256 => bool) public locked;\n    mapping(uint256 => address) public payoutToken; // if not set will default to native token\n    mapping(uint256 => uint256) public maxCapacity;\n    mapping(uint256 => uint256) public maxEntrySize;\n    mapping(uint256 => uint256) public maxExitSize;\n    mapping(uint256 => uint256) public entryPayoutAmount;\n    mapping(uint256 => uint256) public exitPayoutAmount;\n\n    uint256 constant RULE_VALUES = 5;\n\n    modifier onlyFactoryGM() {\n        require(\n            hasRole(FACTORY_ROLE, _msgSender()) ||\n                hasRole(GAME_MASTER_ROLE, _msgSender()),\n            \"Game Master or Factory role required\"\n        );\n        _;\n    }\n\n    constructor(address adminAddress, address factoryAddress) {\n        // Admin set as game master\n        // Can revoke role if desired\n        _setupRole(DEFAULT_ADMIN_ROLE, adminAddress);\n        _setupRole(GAME_MASTER_ROLE, adminAddress);\n        if (factoryAddress != address(0)) {\n            _setupRole(FACTORY_ROLE, factoryAddress);\n        }\n        _rulsetIdTracker.increment(); // Start Rulset IDs @ 1\n\n        // TODO: create ruleset @ 0 default rules, used when none is set\n    }\n\n    // Rules\n    /*\n    0 = use max capacity\n    1 = use max entry size\n    2 = use max exit size\n    3 = payout on entry\n    4 = payout on exit\n    */\n\n    function createRulesetFromFactory(\n        bool[] memory ruleFlags,\n        address tokenAddress,\n        uint256[] memory ruleValues,\n        bool lockAfterSet\n    ) external onlyRole(FACTORY_ROLE) returns (uint256 rulesetID) {\n        rulesetID = _rulsetIdTracker.current();\n        setAllRules(ruleValues, rulesetID);\n        payoutToken[rulesetID] = tokenAddress;\n        locked[rulesetID] = lockAfterSet;\n        createRuleset(ruleFlags);\n    }\n\n    function createRuleset(bool[] memory ruleFlags) public onlyFactoryGM {\n        rules[_rulsetIdTracker.current()] = ruleFlags;\n        _rulsetIdTracker.increment();\n    }\n\n    function getAllRules(uint256 rulesetID)\n        public\n        view\n        returns (bool[] memory)\n    {\n        return rules[rulesetID];\n    }\n\n    function setAllRules(uint256[] memory ruleValues, uint256 rulesetID)\n        public\n        onlyFactoryGM\n    {\n        require(ruleValues.length == RULE_VALUES, \"invalid number of rules\");\n        //[maxCapacity, maxEntrySize, maxExitSize, entryPayoutAmount, exitPayoutAmount]\n        maxCapacity[rulesetID] = ruleValues[0];\n        maxEntrySize[rulesetID] = ruleValues[1];\n        maxExitSize[rulesetID] = ruleValues[2];\n        entryPayoutAmount[rulesetID] = ruleValues[3];\n        exitPayoutAmount[rulesetID] = ruleValues[4];\n    }\n\n    function setPayoutToken(address tokenAddress, uint256 rulesetID)\n        public\n        onlyFactoryGM\n    {\n        require(!locked[rulesetID], \"rules locked\");\n        payoutToken[rulesetID] = tokenAddress;\n    }\n\n    // This will permanently lock this ruleset\n    function lockRules(uint256 rulesetID) public onlyFactoryGM {\n        locked[rulesetID] = true;\n    }\n}\n",
  "sourcePath": "@luckymachines/game-core/contracts/src/v0.0/Ruleset.sol",
  "compiler": {
    "name": "solc",
    "version": "0.8.11+commit.d7f03943.Emscripten.clang"
  },
  "schemaVersion": "3.4.4",
  "updatedAt": "2022-05-10T22:43:52.454Z",
  "devdoc": {
    "kind": "dev",
    "methods": {
      "getRoleAdmin(bytes32)": {
        "details": "Returns the admin role that controls `role`. See {grantRole} and {revokeRole}. To change a role's admin, use {_setRoleAdmin}."
      },
      "getRoleMember(bytes32,uint256)": {
        "details": "Returns one of the accounts that have `role`. `index` must be a value between 0 and {getRoleMemberCount}, non-inclusive. Role bearers are not sorted in any particular way, and their ordering may change at any point. WARNING: When using {getRoleMember} and {getRoleMemberCount}, make sure you perform all queries on the same block. See the following https://forum.openzeppelin.com/t/iterating-over-elements-on-enumerableset-in-openzeppelin-contracts/2296[forum post] for more information."
      },
      "getRoleMemberCount(bytes32)": {
        "details": "Returns the number of accounts that have `role`. Can be used together with {getRoleMember} to enumerate all bearers of a role."
      },
      "grantRole(bytes32,address)": {
        "details": "Grants `role` to `account`. If `account` had not been already granted `role`, emits a {RoleGranted} event. Requirements: - the caller must have ``role``'s admin role."
      },
      "hasRole(bytes32,address)": {
        "details": "Returns `true` if `account` has been granted `role`."
      },
      "renounceRole(bytes32,address)": {
        "details": "Revokes `role` from the calling account. Roles are often managed via {grantRole} and {revokeRole}: this function's purpose is to provide a mechanism for accounts to lose their privileges if they are compromised (such as when a trusted device is misplaced). If the calling account had been revoked `role`, emits a {RoleRevoked} event. Requirements: - the caller must be `account`."
      },
      "revokeRole(bytes32,address)": {
        "details": "Revokes `role` from `account`. If `account` had been granted `role`, emits a {RoleRevoked} event. Requirements: - the caller must have ``role``'s admin role."
      },
      "supportsInterface(bytes4)": {
        "details": "See {IERC165-supportsInterface}."
      }
    },
    "version": 1
  },
  "userdoc": {
    "kind": "user",
    "methods": {},
    "version": 1
  }
}