{
  "contractName": "TokenInventory",
  "abi": [
    {
      "inputs": [],
      "stateMutability": "nonpayable",
      "type": "constructor"
    },
    {
      "anonymous": false,
      "inputs": [
        {
          "indexed": true,
          "internalType": "bytes32",
          "name": "role",
          "type": "bytes32"
        },
        {
          "indexed": true,
          "internalType": "bytes32",
          "name": "previousAdminRole",
          "type": "bytes32"
        },
        {
          "indexed": true,
          "internalType": "bytes32",
          "name": "newAdminRole",
          "type": "bytes32"
        }
      ],
      "name": "RoleAdminChanged",
      "type": "event"
    },
    {
      "anonymous": false,
      "inputs": [
        {
          "indexed": true,
          "internalType": "bytes32",
          "name": "role",
          "type": "bytes32"
        },
        {
          "indexed": true,
          "internalType": "address",
          "name": "account",
          "type": "address"
        },
        {
          "indexed": true,
          "internalType": "address",
          "name": "sender",
          "type": "address"
        }
      ],
      "name": "RoleGranted",
      "type": "event"
    },
    {
      "anonymous": false,
      "inputs": [
        {
          "indexed": true,
          "internalType": "bytes32",
          "name": "role",
          "type": "bytes32"
        },
        {
          "indexed": true,
          "internalType": "address",
          "name": "account",
          "type": "address"
        },
        {
          "indexed": true,
          "internalType": "address",
          "name": "sender",
          "type": "address"
        }
      ],
      "name": "RoleRevoked",
      "type": "event"
    },
    {
      "inputs": [],
      "name": "ARTIFACT_TOKEN",
      "outputs": [
        {
          "internalType": "contract Artifact",
          "name": "",
          "type": "address"
        }
      ],
      "stateMutability": "view",
      "type": "function"
    },
    {
      "inputs": [],
      "name": "DAY_NIGHT_TOKEN",
      "outputs": [
        {
          "internalType": "contract DayNight",
          "name": "",
          "type": "address"
        }
      ],
      "stateMutability": "view",
      "type": "function"
    },
    {
      "inputs": [],
      "name": "DEFAULT_ADMIN_ROLE",
      "outputs": [
        {
          "internalType": "bytes32",
          "name": "",
          "type": "bytes32"
        }
      ],
      "stateMutability": "view",
      "type": "function"
    },
    {
      "inputs": [],
      "name": "DISASTER_TOKEN",
      "outputs": [
        {
          "internalType": "contract Disaster",
          "name": "",
          "type": "address"
        }
      ],
      "stateMutability": "view",
      "type": "function"
    },
    {
      "inputs": [],
      "name": "ENEMY_TOKEN",
      "outputs": [
        {
          "internalType": "contract Enemy",
          "name": "",
          "type": "address"
        }
      ],
      "stateMutability": "view",
      "type": "function"
    },
    {
      "inputs": [],
      "name": "ITEM_TOKEN",
      "outputs": [
        {
          "internalType": "contract Item",
          "name": "",
          "type": "address"
        }
      ],
      "stateMutability": "view",
      "type": "function"
    },
    {
      "inputs": [],
      "name": "PLAYER_STATUS_TOKEN",
      "outputs": [
        {
          "internalType": "contract PlayerStatus",
          "name": "",
          "type": "address"
        }
      ],
      "stateMutability": "view",
      "type": "function"
    },
    {
      "inputs": [],
      "name": "RELIC_TOKEN",
      "outputs": [
        {
          "internalType": "contract Relic",
          "name": "",
          "type": "address"
        }
      ],
      "stateMutability": "view",
      "type": "function"
    },
    {
      "inputs": [
        {
          "internalType": "bytes32",
          "name": "role",
          "type": "bytes32"
        }
      ],
      "name": "getRoleAdmin",
      "outputs": [
        {
          "internalType": "bytes32",
          "name": "",
          "type": "bytes32"
        }
      ],
      "stateMutability": "view",
      "type": "function"
    },
    {
      "inputs": [
        {
          "internalType": "bytes32",
          "name": "role",
          "type": "bytes32"
        },
        {
          "internalType": "uint256",
          "name": "index",
          "type": "uint256"
        }
      ],
      "name": "getRoleMember",
      "outputs": [
        {
          "internalType": "address",
          "name": "",
          "type": "address"
        }
      ],
      "stateMutability": "view",
      "type": "function"
    },
    {
      "inputs": [
        {
          "internalType": "bytes32",
          "name": "role",
          "type": "bytes32"
        }
      ],
      "name": "getRoleMemberCount",
      "outputs": [
        {
          "internalType": "uint256",
          "name": "",
          "type": "uint256"
        }
      ],
      "stateMutability": "view",
      "type": "function"
    },
    {
      "inputs": [
        {
          "internalType": "bytes32",
          "name": "role",
          "type": "bytes32"
        },
        {
          "internalType": "address",
          "name": "account",
          "type": "address"
        }
      ],
      "name": "grantRole",
      "outputs": [],
      "stateMutability": "nonpayable",
      "type": "function"
    },
    {
      "inputs": [
        {
          "internalType": "bytes32",
          "name": "role",
          "type": "bytes32"
        },
        {
          "internalType": "address",
          "name": "account",
          "type": "address"
        }
      ],
      "name": "hasRole",
      "outputs": [
        {
          "internalType": "bool",
          "name": "",
          "type": "bool"
        }
      ],
      "stateMutability": "view",
      "type": "function"
    },
    {
      "inputs": [
        {
          "internalType": "bytes32",
          "name": "role",
          "type": "bytes32"
        },
        {
          "internalType": "address",
          "name": "account",
          "type": "address"
        }
      ],
      "name": "renounceRole",
      "outputs": [],
      "stateMutability": "nonpayable",
      "type": "function"
    },
    {
      "inputs": [
        {
          "internalType": "bytes32",
          "name": "role",
          "type": "bytes32"
        },
        {
          "internalType": "address",
          "name": "account",
          "type": "address"
        }
      ],
      "name": "revokeRole",
      "outputs": [],
      "stateMutability": "nonpayable",
      "type": "function"
    },
    {
      "inputs": [
        {
          "internalType": "bytes4",
          "name": "interfaceId",
          "type": "bytes4"
        }
      ],
      "name": "supportsInterface",
      "outputs": [
        {
          "internalType": "bool",
          "name": "",
          "type": "bool"
        }
      ],
      "stateMutability": "view",
      "type": "function"
    },
    {
      "inputs": [
        {
          "internalType": "address",
          "name": "dayNightAddress",
          "type": "address"
        },
        {
          "internalType": "address",
          "name": "disasterAddress",
          "type": "address"
        },
        {
          "internalType": "address",
          "name": "enemyAddress",
          "type": "address"
        },
        {
          "internalType": "address",
          "name": "itemAddress",
          "type": "address"
        },
        {
          "internalType": "address",
          "name": "playerStatusAddress",
          "type": "address"
        },
        {
          "internalType": "address",
          "name": "artifactAddress",
          "type": "address"
        },
        {
          "internalType": "address",
          "name": "relicAddress",
          "type": "address"
        }
      ],
      "name": "setTokenAddresses",
      "outputs": [],
      "stateMutability": "nonpayable",
      "type": "function"
    }
  ],
  "bytecode": "0x60806040523480156200001157600080fd5b506200003a60006200002b64010000000062000040810204565b64010000000062000044810204565b62000202565b3390565b6200005982826401000000006200005d810204565b5050565b620000778282640100000000620004e6620000a482021704565b60008281526001602052604090206200009f90826401000000006200056a6200014082021704565b505050565b620000b9828264010000000062000169810204565b6200005957600082815260208181526040808320600160a060020a03851684529091529020805460ff19166001179055620000fc64010000000062000040810204565b600160a060020a031681600160a060020a0316837f2f8788117e7eff1d82e926ec794901d17c78024a50270940304540a733656f0d60405160405180910390a45050565b60006200016083600160a060020a03841664010000000062000192810204565b90505b92915050565b600091825260208281526040808420600160a060020a0393909316845291905290205460ff1690565b6000620001a98383640100000000620001ea810204565b620001e15750815460018181018455600084815260208082209093018490558454848252828601909352604090209190915562000163565b50600062000163565b60009081526001919091016020526040902054151590565b610e2880620002126000396000f3fe608060405234801561001057600080fd5b5060043610610128576000357c01000000000000000000000000000000000000000000000000000000009004806391d14854116100bf578063b149f6751161008e578063b149f67514610253578063c1cdbb3c14610266578063ca15c87314610279578063cb8d2d2c1461028c578063d547741f1461029f57600080fd5b806391d1485414610212578063a217fddf14610225578063a318d45c1461022d578063a906dfd11461024057600080fd5b80632f2ff15d116100fb5780632f2ff15d146101c457806336568abe146101d957806345d339d9146101ec5780639010d07c146101ff57600080fd5b806301ffc9a71461012d578063248a9ca3146101555780632b214533146101865780632ee0804a146101b1575b600080fd5b61014061013b366004610b12565b6102b2565b60405190151581526020015b60405180910390f35b610178610163366004610b3c565b60009081526020819052604090206001015490565b60405190815260200161014c565b60045461019990600160a060020a031681565b604051600160a060020a03909116815260200161014c565b60035461019990600160a060020a031681565b6101d76101d2366004610b71565b6102f6565b005b6101d76101e7366004610b71565b610320565b60075461019990600160a060020a031681565b61019961020d366004610b9d565b6103cb565b610140610220366004610b71565b6103ea565b610178600081565b60055461019990600160a060020a031681565b60025461019990600160a060020a031681565b6101d7610261366004610bbf565b610413565b60065461019990600160a060020a031681565b610178610287366004610b3c565b6104aa565b60085461019990600160a060020a031681565b6101d76102ad366004610b71565b6104c1565b6000600160e060020a031982167f5a05180f0000000000000000000000000000000000000000000000000000000014806102f057506102f08261057f565b92915050565b600082815260208190526040902060010154610311816105e6565b61031b83836105f3565b505050565b600160a060020a03811633146103bd576040517f08c379a000000000000000000000000000000000000000000000000000000000815260206004820152602f60248201527f416363657373436f6e74726f6c3a2063616e206f6e6c792072656e6f756e636560448201527f20726f6c657320666f722073656c66000000000000000000000000000000000060648201526084015b60405180910390fd5b6103c78282610615565b5050565b60008281526001602052604081206103e39083610637565b9392505050565b600091825260208281526040808420600160a060020a0393909316845291905290205460ff1690565b600061041e816105e6565b506002805473ffffffffffffffffffffffffffffffffffffffff19908116600160a060020a03998a1617909155600380548216978916979097179096556004805487169588169590951790945560058054861693871693909317909255600680548516918616919091179055600780548416918516919091179055600880549092169216919091179055565b60008181526001602052604081206102f090610643565b6000828152602081905260409020600101546104dc816105e6565b61031b8383610615565b6104f082826103ea565b6103c757600082815260208181526040808320600160a060020a03851684529091529020805460ff191660011790556105263390565b600160a060020a031681600160a060020a0316837f2f8788117e7eff1d82e926ec794901d17c78024a50270940304540a733656f0d60405160405180910390a45050565b60006103e383600160a060020a03841661064d565b6000600160e060020a031982167f7965db0b0000000000000000000000000000000000000000000000000000000014806102f057507f01ffc9a700000000000000000000000000000000000000000000000000000000600160e060020a03198316146102f0565b6105f0813361069c565b50565b6105fd82826104e6565b600082815260016020526040902061031b908261056a565b61061f828261071a565b600082815260016020526040902061031b908261077f565b60006103e38383610794565b60006102f0825490565b6000818152600183016020526040812054610694575081546001818101845560008481526020808220909301849055845484825282860190935260409020919091556102f0565b5060006102f0565b6106a682826103ea565b6103c7576106be81600160a060020a031660146107be565b6106c98360206107be565b6040516020016106da929190610c75565b60408051601f19818403018152908290527f08c379a00000000000000000000000000000000000000000000000000000000082526103b491600401610cf6565b61072482826103ea565b156103c757600082815260208181526040808320600160a060020a0385168085529252808320805460ff1916905551339285917ff6391f5c32d9c69d2a47ea670b442974b53935d1edc7fd64eb21e047a839171b9190a45050565b60006103e383600160a060020a038416610a1f565b60008260000182815481106107ab576107ab610d29565b9060005260206000200154905092915050565b606060006107cd836002610d5b565b6107d8906002610d7a565b67ffffffffffffffff8111156107f0576107f0610d92565b6040519080825280601f01601f19166020018201604052801561081a576020820181803683370190505b5090507f30000000000000000000000000000000000000000000000000000000000000008160008151811061085157610851610d29565b60200101907effffffffffffffffffffffffffffffffffffffffffffffffffffffffffffff1916908160001a9053507f7800000000000000000000000000000000000000000000000000000000000000816001815181106108b4576108b4610d29565b60200101907effffffffffffffffffffffffffffffffffffffffffffffffffffffffffffff1916908160001a90535060006108f0846002610d5b565b6108fb906001610d7a565b90505b60018111156109b6577f303132333435363738396162636465660000000000000000000000000000000085600f166010811061093c5761093c610d29565b1a7f01000000000000000000000000000000000000000000000000000000000000000282828151811061097157610971610d29565b60200101907effffffffffffffffffffffffffffffffffffffffffffffffffffffffffffff1916908160001a9053506010909404936109af81610dab565b90506108fe565b5083156103e3576040517f08c379a000000000000000000000000000000000000000000000000000000000815260206004820181905260248201527f537472696e67733a20686578206c656e67746820696e73756666696369656e7460448201526064016103b4565b60008181526001830160205260408120548015610b08576000610a43600183610dc2565b8554909150600090610a5790600190610dc2565b9050818114610abc576000866000018281548110610a7757610a77610d29565b9060005260206000200154905080876000018481548110610a9a57610a9a610d29565b6000918252602080832090910192909255918252600188019052604090208390555b8554869080610acd57610acd610dd9565b6001900381819060005260206000200160009055905585600101600086815260200190815260200160002060009055600193505050506102f0565b60009150506102f0565b600060208284031215610b2457600080fd5b8135600160e060020a0319811681146103e357600080fd5b600060208284031215610b4e57600080fd5b5035919050565b8035600160a060020a0381168114610b6c57600080fd5b919050565b60008060408385031215610b8457600080fd5b82359150610b9460208401610b55565b90509250929050565b60008060408385031215610bb057600080fd5b50508035926020909101359150565b600080600080600080600060e0888a031215610bda57600080fd5b610be388610b55565b9650610bf160208901610b55565b9550610bff60408901610b55565b9450610c0d60608901610b55565b9350610c1b60808901610b55565b9250610c2960a08901610b55565b9150610c3760c08901610b55565b905092959891949750929550565b60005b83811015610c60578181015183820152602001610c48565b83811115610c6f576000848401525b50505050565b7f416363657373436f6e74726f6c3a206163636f756e7420000000000000000000815260008351610cad816017850160208801610c45565b7f206973206d697373696e6720726f6c65200000000000000000000000000000006017918401918201528351610cea816028840160208801610c45565b01602801949350505050565b6020815260008251806020840152610d15816040850160208701610c45565b601f01601f19169190910160400192915050565b60e060020a634e487b7102600052603260045260246000fd5b60e060020a634e487b7102600052601160045260246000fd5b6000816000190483118215151615610d7557610d75610d42565b500290565b60008219821115610d8d57610d8d610d42565b500190565b60e060020a634e487b7102600052604160045260246000fd5b600081610dba57610dba610d42565b506000190190565b600082821015610dd457610dd4610d42565b500390565b60e060020a634e487b7102600052603160045260246000fdfea2646970667358221220f0d9cac875f17c9cff8120f919a59d0a69e709bd3604752ac2c48d74858d02ca64736f6c634300080b0033",
  "immutableReferences": {},
  "source": "// SPDX-License-Identifier: GPL-3.0\npragma solidity >=0.7.0 <0.9.0;\n\nimport \"@openzeppelin/contracts/access/AccessControlEnumerable.sol\";\n\n// Game Tokens\nimport \"./DayNight.sol\";\nimport \"./Disaster.sol\";\nimport \"./Enemy.sol\";\nimport \"./Item.sol\";\nimport \"./PlayerStatus.sol\";\nimport \"./Artifact.sol\";\nimport \"./Relic.sol\";\n\ncontract TokenInventory is AccessControlEnumerable {\n    DayNight public DAY_NIGHT_TOKEN;\n    Disaster public DISASTER_TOKEN;\n    Enemy public ENEMY_TOKEN;\n    Item public ITEM_TOKEN;\n    PlayerStatus public PLAYER_STATUS_TOKEN;\n    Artifact public ARTIFACT_TOKEN;\n    Relic public RELIC_TOKEN;\n\n    constructor() {\n        _setupRole(DEFAULT_ADMIN_ROLE, _msgSender());\n    }\n\n    function setTokenAddresses(\n        address dayNightAddress,\n        address disasterAddress,\n        address enemyAddress,\n        address itemAddress,\n        address playerStatusAddress,\n        address artifactAddress,\n        address relicAddress\n    ) public onlyRole(DEFAULT_ADMIN_ROLE) {\n        DAY_NIGHT_TOKEN = DayNight(dayNightAddress);\n        DISASTER_TOKEN = Disaster(disasterAddress);\n        ENEMY_TOKEN = Enemy(enemyAddress);\n        ITEM_TOKEN = Item(itemAddress);\n        PLAYER_STATUS_TOKEN = PlayerStatus(playerStatusAddress);\n        ARTIFACT_TOKEN = Artifact(artifactAddress);\n        RELIC_TOKEN = Relic(relicAddress);\n    }\n}\n",
  "sourcePath": "/Users/maxmeier/Developer/Lucky Machines/hexploration/contracts/tokens/TokenInventory.sol",
  "compiler": {
    "name": "solc",
    "version": "0.8.11+commit.d7f03943.Emscripten.clang"
  },
  "schemaVersion": "3.4.4",
  "updatedAt": "2022-05-16T02:35:07.387Z",
  "devdoc": {
    "kind": "dev",
    "methods": {
      "getRoleAdmin(bytes32)": {
        "details": "Returns the admin role that controls `role`. See {grantRole} and {revokeRole}. To change a role's admin, use {_setRoleAdmin}."
      },
      "getRoleMember(bytes32,uint256)": {
        "details": "Returns one of the accounts that have `role`. `index` must be a value between 0 and {getRoleMemberCount}, non-inclusive. Role bearers are not sorted in any particular way, and their ordering may change at any point. WARNING: When using {getRoleMember} and {getRoleMemberCount}, make sure you perform all queries on the same block. See the following https://forum.openzeppelin.com/t/iterating-over-elements-on-enumerableset-in-openzeppelin-contracts/2296[forum post] for more information."
      },
      "getRoleMemberCount(bytes32)": {
        "details": "Returns the number of accounts that have `role`. Can be used together with {getRoleMember} to enumerate all bearers of a role."
      },
      "grantRole(bytes32,address)": {
        "details": "Grants `role` to `account`. If `account` had not been already granted `role`, emits a {RoleGranted} event. Requirements: - the caller must have ``role``'s admin role."
      },
      "hasRole(bytes32,address)": {
        "details": "Returns `true` if `account` has been granted `role`."
      },
      "renounceRole(bytes32,address)": {
        "details": "Revokes `role` from the calling account. Roles are often managed via {grantRole} and {revokeRole}: this function's purpose is to provide a mechanism for accounts to lose their privileges if they are compromised (such as when a trusted device is misplaced). If the calling account had been revoked `role`, emits a {RoleRevoked} event. Requirements: - the caller must be `account`."
      },
      "revokeRole(bytes32,address)": {
        "details": "Revokes `role` from `account`. If `account` had been granted `role`, emits a {RoleRevoked} event. Requirements: - the caller must have ``role``'s admin role."
      },
      "supportsInterface(bytes4)": {
        "details": "See {IERC165-supportsInterface}."
      }
    },
    "version": 1
  },
  "userdoc": {
    "kind": "user",
    "methods": {},
    "version": 1
  }
}