{
  "contractName": "TokenInventory",
  "abi": [
    {
      "inputs": [],
      "stateMutability": "nonpayable",
      "type": "constructor"
    },
    {
      "anonymous": false,
      "inputs": [
        {
          "indexed": true,
          "internalType": "bytes32",
          "name": "role",
          "type": "bytes32"
        },
        {
          "indexed": true,
          "internalType": "bytes32",
          "name": "previousAdminRole",
          "type": "bytes32"
        },
        {
          "indexed": true,
          "internalType": "bytes32",
          "name": "newAdminRole",
          "type": "bytes32"
        }
      ],
      "name": "RoleAdminChanged",
      "type": "event"
    },
    {
      "anonymous": false,
      "inputs": [
        {
          "indexed": true,
          "internalType": "bytes32",
          "name": "role",
          "type": "bytes32"
        },
        {
          "indexed": true,
          "internalType": "address",
          "name": "account",
          "type": "address"
        },
        {
          "indexed": true,
          "internalType": "address",
          "name": "sender",
          "type": "address"
        }
      ],
      "name": "RoleGranted",
      "type": "event"
    },
    {
      "anonymous": false,
      "inputs": [
        {
          "indexed": true,
          "internalType": "bytes32",
          "name": "role",
          "type": "bytes32"
        },
        {
          "indexed": true,
          "internalType": "address",
          "name": "account",
          "type": "address"
        },
        {
          "indexed": true,
          "internalType": "address",
          "name": "sender",
          "type": "address"
        }
      ],
      "name": "RoleRevoked",
      "type": "event"
    },
    {
      "inputs": [],
      "name": "ARTIFACT_TOKEN",
      "outputs": [
        {
          "internalType": "contract Artifact",
          "name": "",
          "type": "address"
        }
      ],
      "stateMutability": "view",
      "type": "function",
      "constant": true
    },
    {
      "inputs": [],
      "name": "DAY_NIGHT_TOKEN",
      "outputs": [
        {
          "internalType": "contract DayNight",
          "name": "",
          "type": "address"
        }
      ],
      "stateMutability": "view",
      "type": "function",
      "constant": true
    },
    {
      "inputs": [],
      "name": "DEFAULT_ADMIN_ROLE",
      "outputs": [
        {
          "internalType": "bytes32",
          "name": "",
          "type": "bytes32"
        }
      ],
      "stateMutability": "view",
      "type": "function",
      "constant": true
    },
    {
      "inputs": [],
      "name": "DISASTER_TOKEN",
      "outputs": [
        {
          "internalType": "contract Disaster",
          "name": "",
          "type": "address"
        }
      ],
      "stateMutability": "view",
      "type": "function",
      "constant": true
    },
    {
      "inputs": [],
      "name": "ENEMY_TOKEN",
      "outputs": [
        {
          "internalType": "contract Enemy",
          "name": "",
          "type": "address"
        }
      ],
      "stateMutability": "view",
      "type": "function",
      "constant": true
    },
    {
      "inputs": [],
      "name": "ITEM_TOKEN",
      "outputs": [
        {
          "internalType": "contract Item",
          "name": "",
          "type": "address"
        }
      ],
      "stateMutability": "view",
      "type": "function",
      "constant": true
    },
    {
      "inputs": [],
      "name": "PLAYER_STATUS_TOKEN",
      "outputs": [
        {
          "internalType": "contract PlayerStatus",
          "name": "",
          "type": "address"
        }
      ],
      "stateMutability": "view",
      "type": "function",
      "constant": true
    },
    {
      "inputs": [],
      "name": "RELIC_TOKEN",
      "outputs": [
        {
          "internalType": "contract Relic",
          "name": "",
          "type": "address"
        }
      ],
      "stateMutability": "view",
      "type": "function",
      "constant": true
    },
    {
      "inputs": [
        {
          "internalType": "bytes32",
          "name": "role",
          "type": "bytes32"
        }
      ],
      "name": "getRoleAdmin",
      "outputs": [
        {
          "internalType": "bytes32",
          "name": "",
          "type": "bytes32"
        }
      ],
      "stateMutability": "view",
      "type": "function",
      "constant": true
    },
    {
      "inputs": [
        {
          "internalType": "bytes32",
          "name": "role",
          "type": "bytes32"
        },
        {
          "internalType": "uint256",
          "name": "index",
          "type": "uint256"
        }
      ],
      "name": "getRoleMember",
      "outputs": [
        {
          "internalType": "address",
          "name": "",
          "type": "address"
        }
      ],
      "stateMutability": "view",
      "type": "function",
      "constant": true
    },
    {
      "inputs": [
        {
          "internalType": "bytes32",
          "name": "role",
          "type": "bytes32"
        }
      ],
      "name": "getRoleMemberCount",
      "outputs": [
        {
          "internalType": "uint256",
          "name": "",
          "type": "uint256"
        }
      ],
      "stateMutability": "view",
      "type": "function",
      "constant": true
    },
    {
      "inputs": [
        {
          "internalType": "bytes32",
          "name": "role",
          "type": "bytes32"
        },
        {
          "internalType": "address",
          "name": "account",
          "type": "address"
        }
      ],
      "name": "grantRole",
      "outputs": [],
      "stateMutability": "nonpayable",
      "type": "function"
    },
    {
      "inputs": [
        {
          "internalType": "bytes32",
          "name": "role",
          "type": "bytes32"
        },
        {
          "internalType": "address",
          "name": "account",
          "type": "address"
        }
      ],
      "name": "hasRole",
      "outputs": [
        {
          "internalType": "bool",
          "name": "",
          "type": "bool"
        }
      ],
      "stateMutability": "view",
      "type": "function",
      "constant": true
    },
    {
      "inputs": [
        {
          "internalType": "bytes32",
          "name": "role",
          "type": "bytes32"
        },
        {
          "internalType": "address",
          "name": "account",
          "type": "address"
        }
      ],
      "name": "renounceRole",
      "outputs": [],
      "stateMutability": "nonpayable",
      "type": "function"
    },
    {
      "inputs": [
        {
          "internalType": "bytes32",
          "name": "role",
          "type": "bytes32"
        },
        {
          "internalType": "address",
          "name": "account",
          "type": "address"
        }
      ],
      "name": "revokeRole",
      "outputs": [],
      "stateMutability": "nonpayable",
      "type": "function"
    },
    {
      "inputs": [
        {
          "internalType": "bytes4",
          "name": "interfaceId",
          "type": "bytes4"
        }
      ],
      "name": "supportsInterface",
      "outputs": [
        {
          "internalType": "bool",
          "name": "",
          "type": "bool"
        }
      ],
      "stateMutability": "view",
      "type": "function",
      "constant": true
    },
    {
      "inputs": [
        {
          "internalType": "address",
          "name": "dayNightAddress",
          "type": "address"
        },
        {
          "internalType": "address",
          "name": "disasterAddress",
          "type": "address"
        },
        {
          "internalType": "address",
          "name": "enemyAddress",
          "type": "address"
        },
        {
          "internalType": "address",
          "name": "itemAddress",
          "type": "address"
        },
        {
          "internalType": "address",
          "name": "playerStatusAddress",
          "type": "address"
        },
        {
          "internalType": "address",
          "name": "artifactAddress",
          "type": "address"
        },
        {
          "internalType": "address",
          "name": "relicAddress",
          "type": "address"
        }
      ],
      "name": "setTokenAddresses",
      "outputs": [],
      "stateMutability": "nonpayable",
      "type": "function"
    },
    {
      "inputs": [
        {
          "internalType": "uint256",
          "name": "holderID",
          "type": "uint256"
        },
        {
          "internalType": "enum TokenInventory.Token",
          "name": "token",
          "type": "uint8"
        },
        {
          "internalType": "uint256",
          "name": "gameID",
          "type": "uint256"
        }
      ],
      "name": "holdsToken",
      "outputs": [
        {
          "internalType": "bool",
          "name": "hasBalance",
          "type": "bool"
        }
      ],
      "stateMutability": "view",
      "type": "function",
      "constant": true
    }
  ],
  "bytecode": "0x60806040523480156200001157600080fd5b506200003a60006200002b64010000000062000040810204565b64010000000062000044810204565b62000202565b3390565b6200005982826401000000006200005d810204565b5050565b62000077828264010000000062000e93620000a482021704565b60008281526001602052604090206200009f908264010000000062000f176200014082021704565b505050565b620000b9828264010000000062000169810204565b6200005957600082815260208181526040808320600160a060020a03851684529091529020805460ff19166001179055620000fc64010000000062000040810204565b600160a060020a031681600160a060020a0316837f2f8788117e7eff1d82e926ec794901d17c78024a50270940304540a733656f0d60405160405180910390a45050565b60006200016083600160a060020a03841664010000000062000192810204565b90505b92915050565b600091825260208281526040808420600160a060020a0393909316845291905290205460ff1690565b6000620001a98383640100000000620001ea810204565b620001e15750815460018181018455600084815260208082209093018490558454848252828601909352604090209190915562000163565b50600062000163565b60009081526001919091016020526040902054151590565b6119d580620002126000396000f3fe608060405234801561001057600080fd5b506004361061011a5760003560e060020a9004806391d14854116100a6578063b149f67511610075578063b149f67514610258578063c1cdbb3c1461026b578063ca15c8731461027e578063cb8d2d2c14610291578063d547741f146102a457600080fd5b806391d1485414610217578063a217fddf1461022a578063a318d45c14610232578063a906dfd11461024557600080fd5b80632ee0804a116100ed5780632ee0804a146101b65780632f2ff15d146101c957806336568abe146101de57806345d339d9146101f15780639010d07c1461020457600080fd5b806301d37be41461011f57806301ffc9a714610147578063248a9ca31461015a5780632b2145331461018b575b600080fd5b61013261012d3660046114bf565b6102b7565b60405190151581526020015b60405180910390f35b6101326101553660046114fb565b610c5f565b61017d610168366004611525565b60009081526020819052604090206001015490565b60405190815260200161013e565b60045461019e90600160a060020a031681565b604051600160a060020a03909116815260200161013e565b60035461019e90600160a060020a031681565b6101dc6101d736600461155a565b610ca3565b005b6101dc6101ec36600461155a565b610ccd565b60075461019e90600160a060020a031681565b61019e610212366004611586565b610d78565b61013261022536600461155a565b610d97565b61017d600081565b60055461019e90600160a060020a031681565b60025461019e90600160a060020a031681565b6101dc6102663660046115a8565b610dc0565b60065461019e90600160a060020a031681565b61017d61028c366004611525565b610e57565b60085461019e90600160a060020a031681565b6101dc6102b236600461155a565b610e6e565b60006060818460068111156102ce576102ce61162e565b141561041d57600260009054906101000a9004600160a060020a0316600160a060020a031663c853a1d06040518163ffffffff1660e060020a028152600401600060405180830381865afa15801561032a573d6000803e3d6000fd5b505050506040513d6000823e601f3d908101601f1916820160405261035291908101906116c1565b905060005b8151811015610417576002548251600091600160a060020a031690634db157d09085908590811061038a5761038a6117d6565b6020026020010151878a6040518463ffffffff1660e060020a0281526004016103b59392919061181b565b602060405180830381865afa1580156103d2573d6000803e3d6000fd5b505050506040513d601f19601f820116820180604052508101906103f69190611840565b11156104055760019250610417565b8061040f81611872565b915050610357565b50610c57565b60018460068111156104315761043161162e565b141561057a57600360009054906101000a9004600160a060020a0316600160a060020a031663c853a1d06040518163ffffffff1660e060020a028152600401600060405180830381865afa15801561048d573d6000803e3d6000fd5b505050506040513d6000823e601f3d908101601f191682016040526104b591908101906116c1565b905060005b8151811015610417576003548251600091600160a060020a031690634db157d0908590859081106104ed576104ed6117d6565b6020026020010151878a6040518463ffffffff1660e060020a0281526004016105189392919061181b565b602060405180830381865afa158015610535573d6000803e3d6000fd5b505050506040513d601f19601f820116820180604052508101906105599190611840565b11156105685760019250610417565b8061057281611872565b9150506104ba565b600284600681111561058e5761058e61162e565b14156106e15760048054604080517fc853a1d00000000000000000000000000000000000000000000000000000000081529051600160a060020a039092169263c853a1d09282820192600092908290030181865afa1580156105f4573d6000803e3d6000fd5b505050506040513d6000823e601f3d908101601f1916820160405261061c91908101906116c1565b905060005b8151811015610417576004548251600091600160a060020a031690634db157d090859085908110610654576106546117d6565b6020026020010151878a6040518463ffffffff1660e060020a02815260040161067f9392919061181b565b602060405180830381865afa15801561069c573d6000803e3d6000fd5b505050506040513d601f19601f820116820180604052508101906106c09190611840565b11156106cf5760019250610417565b806106d981611872565b915050610621565b60038460068111156106f5576106f561162e565b141561083e57600560009054906101000a9004600160a060020a0316600160a060020a031663c853a1d06040518163ffffffff1660e060020a028152600401600060405180830381865afa158015610751573d6000803e3d6000fd5b505050506040513d6000823e601f3d908101601f1916820160405261077991908101906116c1565b905060005b8151811015610417576005548251600091600160a060020a031690634db157d0908590859081106107b1576107b16117d6565b6020026020010151878a6040518463ffffffff1660e060020a0281526004016107dc9392919061181b565b602060405180830381865afa1580156107f9573d6000803e3d6000fd5b505050506040513d601f19601f8201168201806040525081019061081d9190611840565b111561082c5760019250610417565b8061083681611872565b91505061077e565b60048460068111156108525761085261162e565b141561099b57600660009054906101000a9004600160a060020a0316600160a060020a031663c853a1d06040518163ffffffff1660e060020a028152600401600060405180830381865afa1580156108ae573d6000803e3d6000fd5b505050506040513d6000823e601f3d908101601f191682016040526108d691908101906116c1565b905060005b8151811015610417576006548251600091600160a060020a031690634db157d09085908590811061090e5761090e6117d6565b6020026020010151878a6040518463ffffffff1660e060020a0281526004016109399392919061181b565b602060405180830381865afa158015610956573d6000803e3d6000fd5b505050506040513d601f19601f8201168201806040525081019061097a9190611840565b11156109895760019250610417565b8061099381611872565b9150506108db565b60058460068111156109af576109af61162e565b1415610af857600760009054906101000a9004600160a060020a0316600160a060020a031663c853a1d06040518163ffffffff1660e060020a028152600401600060405180830381865afa158015610a0b573d6000803e3d6000fd5b505050506040513d6000823e601f3d908101601f19168201604052610a3391908101906116c1565b905060005b8151811015610417576007548251600091600160a060020a031690634db157d090859085908110610a6b57610a6b6117d6565b6020026020010151878a6040518463ffffffff1660e060020a028152600401610a969392919061181b565b602060405180830381865afa158015610ab3573d6000803e3d6000fd5b505050506040513d601f19601f82011682018060405250810190610ad79190611840565b1115610ae65760019250610417565b80610af081611872565b915050610a38565b6006846006811115610b0c57610b0c61162e565b1415610c5757600860009054906101000a9004600160a060020a0316600160a060020a031663c853a1d06040518163ffffffff1660e060020a028152600401600060405180830381865afa158015610b68573d6000803e3d6000fd5b505050506040513d6000823e601f3d908101601f19168201604052610b9091908101906116c1565b905060005b8151811015610c55576008548251600091600160a060020a031690634db157d090859085908110610bc857610bc86117d6565b6020026020010151878a6040518463ffffffff1660e060020a028152600401610bf39392919061181b565b602060405180830381865afa158015610c10573d6000803e3d6000fd5b505050506040513d601f19601f82011682018060405250810190610c349190611840565b1115610c435760019250610c55565b80610c4d81611872565b915050610b95565b505b509392505050565b6000600160e060020a031982167f5a05180f000000000000000000000000000000000000000000000000000000001480610c9d5750610c9d82610f2c565b92915050565b600082815260208190526040902060010154610cbe81610f93565b610cc88383610fa0565b505050565b600160a060020a0381163314610d6a576040517f08c379a000000000000000000000000000000000000000000000000000000000815260206004820152602f60248201527f416363657373436f6e74726f6c3a2063616e206f6e6c792072656e6f756e636560448201527f20726f6c657320666f722073656c66000000000000000000000000000000000060648201526084015b60405180910390fd5b610d748282610fc2565b5050565b6000828152600160205260408120610d909083610fe4565b9392505050565b600091825260208281526040808420600160a060020a0393909316845291905290205460ff1690565b6000610dcb81610f93565b506002805473ffffffffffffffffffffffffffffffffffffffff19908116600160a060020a03998a1617909155600380548216978916979097179096556004805487169588169590951790945560058054861693871693909317909255600680548516918616919091179055600780548416918516919091179055600880549092169216919091179055565b6000818152600160205260408120610c9d90610ff0565b600082815260208190526040902060010154610e8981610f93565b610cc88383610fc2565b610e9d8282610d97565b610d7457600082815260208181526040808320600160a060020a03851684529091529020805460ff19166001179055610ed33390565b600160a060020a031681600160a060020a0316837f2f8788117e7eff1d82e926ec794901d17c78024a50270940304540a733656f0d60405160405180910390a45050565b6000610d9083600160a060020a038416610ffa565b6000600160e060020a031982167f7965db0b000000000000000000000000000000000000000000000000000000001480610c9d57507f01ffc9a700000000000000000000000000000000000000000000000000000000600160e060020a0319831614610c9d565b610f9d8133611049565b50565b610faa8282610e93565b6000828152600160205260409020610cc89082610f17565b610fcc82826110c7565b6000828152600160205260409020610cc8908261112c565b6000610d908383611141565b6000610c9d825490565b600081815260018301602052604081205461104157508154600181810184556000848152602080822090930184905584548482528286019093526040902091909155610c9d565b506000610c9d565b6110538282610d97565b610d745761106b81600160a060020a0316601461116b565b61107683602061116b565b60405160200161108792919061188d565b60408051601f19818403018152908290527f08c379a0000000000000000000000000000000000000000000000000000000008252610d619160040161190e565b6110d18282610d97565b15610d7457600082815260208181526040808320600160a060020a0385168085529252808320805460ff1916905551339285917ff6391f5c32d9c69d2a47ea670b442974b53935d1edc7fd64eb21e047a839171b9190a45050565b6000610d9083600160a060020a0384166113cc565b6000826000018281548110611158576111586117d6565b9060005260206000200154905092915050565b6060600061117a836002611921565b611185906002611940565b67ffffffffffffffff81111561119d5761119d611647565b6040519080825280601f01601f1916602001820160405280156111c7576020820181803683370190505b5090507f3000000000000000000000000000000000000000000000000000000000000000816000815181106111fe576111fe6117d6565b60200101907effffffffffffffffffffffffffffffffffffffffffffffffffffffffffffff1916908160001a9053507f780000000000000000000000000000000000000000000000000000000000000081600181518110611261576112616117d6565b60200101907effffffffffffffffffffffffffffffffffffffffffffffffffffffffffffff1916908160001a905350600061129d846002611921565b6112a8906001611940565b90505b6001811115611363577f303132333435363738396162636465660000000000000000000000000000000085600f16601081106112e9576112e96117d6565b1a7f01000000000000000000000000000000000000000000000000000000000000000282828151811061131e5761131e6117d6565b60200101907effffffffffffffffffffffffffffffffffffffffffffffffffffffffffffff1916908160001a90535060109094049361135c81611958565b90506112ab565b508315610d90576040517f08c379a000000000000000000000000000000000000000000000000000000000815260206004820181905260248201527f537472696e67733a20686578206c656e67746820696e73756666696369656e746044820152606401610d61565b600081815260018301602052604081205480156114b55760006113f060018361196f565b85549091506000906114049060019061196f565b9050818114611469576000866000018281548110611424576114246117d6565b9060005260206000200154905080876000018481548110611447576114476117d6565b6000918252602080832090910192909255918252600188019052604090208390555b855486908061147a5761147a611986565b600190038181906000526020600020016000905590558560010160008681526020019081526020016000206000905560019350505050610c9d565b6000915050610c9d565b6000806000606084860312156114d457600080fd5b833592506020840135600781106114ea57600080fd5b929592945050506040919091013590565b60006020828403121561150d57600080fd5b8135600160e060020a031981168114610d9057600080fd5b60006020828403121561153757600080fd5b5035919050565b8035600160a060020a038116811461155557600080fd5b919050565b6000806040838503121561156d57600080fd5b8235915061157d6020840161153e565b90509250929050565b6000806040838503121561159957600080fd5b50508035926020909101359150565b600080600080600080600060e0888a0312156115c357600080fd5b6115cc8861153e565b96506115da6020890161153e565b95506115e86040890161153e565b94506115f66060890161153e565b93506116046080890161153e565b925061161260a0890161153e565b915061162060c0890161153e565b905092959891949750929550565b60e060020a634e487b7102600052602160045260246000fd5b60e060020a634e487b7102600052604160045260246000fd5b604051601f8201601f1916810167ffffffffffffffff8111828210171561168957611689611647565b604052919050565b60005b838110156116ac578181015183820152602001611694565b838111156116bb576000848401525b50505050565b600060208083850312156116d457600080fd5b825167ffffffffffffffff808211156116ec57600080fd5b8185019150601f868184011261170157600080fd5b82518281111561171357611713611647565b848102611721868201611660565b918252848101860191868101908a84111561173b57600080fd5b87870192505b838310156117c8578251868111156117595760008081fd5b8701603f81018c1361176b5760008081fd5b8881015160408882111561178157611781611647565b611792828901601f19168c01611660565b8281528e828486010111156117a75760008081fd5b6117b6838d8301848701611691565b85525050509187019190870190611741565b9a9950505050505050505050565b60e060020a634e487b7102600052603260045260246000fd5b60008151808452611807816020860160208601611691565b601f01601f19169290920160200192915050565b60608152600061182e60608301866117ef565b60208301949094525060400152919050565b60006020828403121561185257600080fd5b5051919050565b60e060020a634e487b7102600052601160045260246000fd5b600060001982141561188657611886611859565b5060010190565b7f416363657373436f6e74726f6c3a206163636f756e74200000000000000000008152600083516118c5816017850160208801611691565b7f206973206d697373696e6720726f6c65200000000000000000000000000000006017918401918201528351611902816028840160208801611691565b01602801949350505050565b602081526000610d9060208301846117ef565b600081600019048311821515161561193b5761193b611859565b500290565b6000821982111561195357611953611859565b500190565b60008161196757611967611859565b506000190190565b60008282101561198157611981611859565b500390565b60e060020a634e487b7102600052603160045260246000fdfea2646970667358221220b36274314846d90e5869f5ab913fc4dd470615806d2283dbc2eb1932006baf4264736f6c634300080b0033",
  "immutableReferences": {},
  "source": "// SPDX-License-Identifier: GPL-3.0\npragma solidity >=0.7.0 <0.9.0;\n\nimport \"@openzeppelin/contracts/access/AccessControlEnumerable.sol\";\n\n// Game Tokens\nimport \"./DayNight.sol\";\nimport \"./Disaster.sol\";\nimport \"./Enemy.sol\";\nimport \"./Item.sol\";\nimport \"./PlayerStatus.sol\";\nimport \"./Artifact.sol\";\nimport \"./Relic.sol\";\n\ncontract TokenInventory is AccessControlEnumerable {\n    enum Token {\n        DayNight,\n        Disaster,\n        Enemy,\n        Item,\n        PlayerStatus,\n        Artifact,\n        Relic\n    }\n\n    DayNight public DAY_NIGHT_TOKEN;\n    Disaster public DISASTER_TOKEN;\n    Enemy public ENEMY_TOKEN;\n    Item public ITEM_TOKEN;\n    PlayerStatus public PLAYER_STATUS_TOKEN;\n    Artifact public ARTIFACT_TOKEN;\n    Relic public RELIC_TOKEN;\n\n    constructor() {\n        _setupRole(DEFAULT_ADMIN_ROLE, _msgSender());\n    }\n\n    function setTokenAddresses(\n        address dayNightAddress,\n        address disasterAddress,\n        address enemyAddress,\n        address itemAddress,\n        address playerStatusAddress,\n        address artifactAddress,\n        address relicAddress\n    ) public onlyRole(DEFAULT_ADMIN_ROLE) {\n        DAY_NIGHT_TOKEN = DayNight(dayNightAddress);\n        DISASTER_TOKEN = Disaster(disasterAddress);\n        ENEMY_TOKEN = Enemy(enemyAddress);\n        ITEM_TOKEN = Item(itemAddress);\n        PLAYER_STATUS_TOKEN = PlayerStatus(playerStatusAddress);\n        ARTIFACT_TOKEN = Artifact(artifactAddress);\n        RELIC_TOKEN = Relic(relicAddress);\n    }\n\n    function holdsToken(\n        uint256 holderID,\n        Token token,\n        uint256 gameID\n    ) public view returns (bool hasBalance) {\n        hasBalance = false;\n        string[] memory allTypes;\n        if (token == Token.DayNight) {\n            allTypes = DAY_NIGHT_TOKEN.getTokenTypes();\n            for (uint256 i = 0; i < allTypes.length; i++) {\n                if (\n                    DAY_NIGHT_TOKEN.balance(allTypes[i], gameID, holderID) > 0\n                ) {\n                    hasBalance = true;\n                    break;\n                }\n            }\n        } else if (token == Token.Disaster) {\n            allTypes = DISASTER_TOKEN.getTokenTypes();\n            for (uint256 i = 0; i < allTypes.length; i++) {\n                if (DISASTER_TOKEN.balance(allTypes[i], gameID, holderID) > 0) {\n                    hasBalance = true;\n                    break;\n                }\n            }\n        } else if (token == Token.Enemy) {\n            allTypes = ENEMY_TOKEN.getTokenTypes();\n            for (uint256 i = 0; i < allTypes.length; i++) {\n                if (ENEMY_TOKEN.balance(allTypes[i], gameID, holderID) > 0) {\n                    hasBalance = true;\n                    break;\n                }\n            }\n        } else if (token == Token.Item) {\n            allTypes = ITEM_TOKEN.getTokenTypes();\n            for (uint256 i = 0; i < allTypes.length; i++) {\n                if (ITEM_TOKEN.balance(allTypes[i], gameID, holderID) > 0) {\n                    hasBalance = true;\n                    break;\n                }\n            }\n        } else if (token == Token.PlayerStatus) {\n            allTypes = PLAYER_STATUS_TOKEN.getTokenTypes();\n            for (uint256 i = 0; i < allTypes.length; i++) {\n                if (\n                    PLAYER_STATUS_TOKEN.balance(allTypes[i], gameID, holderID) >\n                    0\n                ) {\n                    hasBalance = true;\n                    break;\n                }\n            }\n        } else if (token == Token.Artifact) {\n            allTypes = ARTIFACT_TOKEN.getTokenTypes();\n            for (uint256 i = 0; i < allTypes.length; i++) {\n                if (ARTIFACT_TOKEN.balance(allTypes[i], gameID, holderID) > 0) {\n                    hasBalance = true;\n                    break;\n                }\n            }\n        } else if (token == Token.Relic) {\n            allTypes = RELIC_TOKEN.getTokenTypes();\n            for (uint256 i = 0; i < allTypes.length; i++) {\n                if (RELIC_TOKEN.balance(allTypes[i], gameID, holderID) > 0) {\n                    hasBalance = true;\n                    break;\n                }\n            }\n        }\n    }\n}\n",
  "sourcePath": "/Users/maxmeier/Developer/Lucky Machines/hexploration/contracts/tokens/TokenInventory.sol",
  "compiler": {
    "name": "solc",
    "version": "0.8.11+commit.d7f03943.Emscripten.clang"
  },
  "schemaVersion": "3.4.4",
  "updatedAt": "2022-05-18T04:40:51.762Z",
  "networkType": "ethereum",
  "devdoc": {
    "kind": "dev",
    "methods": {
      "getRoleAdmin(bytes32)": {
        "details": "Returns the admin role that controls `role`. See {grantRole} and {revokeRole}. To change a role's admin, use {_setRoleAdmin}."
      },
      "getRoleMember(bytes32,uint256)": {
        "details": "Returns one of the accounts that have `role`. `index` must be a value between 0 and {getRoleMemberCount}, non-inclusive. Role bearers are not sorted in any particular way, and their ordering may change at any point. WARNING: When using {getRoleMember} and {getRoleMemberCount}, make sure you perform all queries on the same block. See the following https://forum.openzeppelin.com/t/iterating-over-elements-on-enumerableset-in-openzeppelin-contracts/2296[forum post] for more information."
      },
      "getRoleMemberCount(bytes32)": {
        "details": "Returns the number of accounts that have `role`. Can be used together with {getRoleMember} to enumerate all bearers of a role."
      },
      "grantRole(bytes32,address)": {
        "details": "Grants `role` to `account`. If `account` had not been already granted `role`, emits a {RoleGranted} event. Requirements: - the caller must have ``role``'s admin role."
      },
      "hasRole(bytes32,address)": {
        "details": "Returns `true` if `account` has been granted `role`."
      },
      "renounceRole(bytes32,address)": {
        "details": "Revokes `role` from the calling account. Roles are often managed via {grantRole} and {revokeRole}: this function's purpose is to provide a mechanism for accounts to lose their privileges if they are compromised (such as when a trusted device is misplaced). If the calling account had been revoked `role`, emits a {RoleRevoked} event. Requirements: - the caller must be `account`."
      },
      "revokeRole(bytes32,address)": {
        "details": "Revokes `role` from `account`. If `account` had been granted `role`, emits a {RoleRevoked} event. Requirements: - the caller must have ``role``'s admin role."
      },
      "supportsInterface(bytes4)": {
        "details": "See {IERC165-supportsInterface}."
      }
    },
    "version": 1
  },
  "userdoc": {
    "kind": "user",
    "methods": {},
    "version": 1
  }
}