{
  "contractName": "TokenInventory",
  "abi": [
    {
      "inputs": [],
      "stateMutability": "nonpayable",
      "type": "constructor"
    },
    {
      "anonymous": false,
      "inputs": [
        {
          "indexed": true,
          "internalType": "bytes32",
          "name": "role",
          "type": "bytes32"
        },
        {
          "indexed": true,
          "internalType": "bytes32",
          "name": "previousAdminRole",
          "type": "bytes32"
        },
        {
          "indexed": true,
          "internalType": "bytes32",
          "name": "newAdminRole",
          "type": "bytes32"
        }
      ],
      "name": "RoleAdminChanged",
      "type": "event"
    },
    {
      "anonymous": false,
      "inputs": [
        {
          "indexed": true,
          "internalType": "bytes32",
          "name": "role",
          "type": "bytes32"
        },
        {
          "indexed": true,
          "internalType": "address",
          "name": "account",
          "type": "address"
        },
        {
          "indexed": true,
          "internalType": "address",
          "name": "sender",
          "type": "address"
        }
      ],
      "name": "RoleGranted",
      "type": "event"
    },
    {
      "anonymous": false,
      "inputs": [
        {
          "indexed": true,
          "internalType": "bytes32",
          "name": "role",
          "type": "bytes32"
        },
        {
          "indexed": true,
          "internalType": "address",
          "name": "account",
          "type": "address"
        },
        {
          "indexed": true,
          "internalType": "address",
          "name": "sender",
          "type": "address"
        }
      ],
      "name": "RoleRevoked",
      "type": "event"
    },
    {
      "inputs": [],
      "name": "ARTIFACT_TOKEN",
      "outputs": [
        {
          "internalType": "contract Artifact",
          "name": "",
          "type": "address"
        }
      ],
      "stateMutability": "view",
      "type": "function",
      "constant": true
    },
    {
      "inputs": [],
      "name": "DAY_NIGHT_TOKEN",
      "outputs": [
        {
          "internalType": "contract DayNight",
          "name": "",
          "type": "address"
        }
      ],
      "stateMutability": "view",
      "type": "function",
      "constant": true
    },
    {
      "inputs": [],
      "name": "DEFAULT_ADMIN_ROLE",
      "outputs": [
        {
          "internalType": "bytes32",
          "name": "",
          "type": "bytes32"
        }
      ],
      "stateMutability": "view",
      "type": "function",
      "constant": true
    },
    {
      "inputs": [],
      "name": "DISASTER_TOKEN",
      "outputs": [
        {
          "internalType": "contract Disaster",
          "name": "",
          "type": "address"
        }
      ],
      "stateMutability": "view",
      "type": "function",
      "constant": true
    },
    {
      "inputs": [],
      "name": "ENEMY_TOKEN",
      "outputs": [
        {
          "internalType": "contract Enemy",
          "name": "",
          "type": "address"
        }
      ],
      "stateMutability": "view",
      "type": "function",
      "constant": true
    },
    {
      "inputs": [],
      "name": "ITEM_TOKEN",
      "outputs": [
        {
          "internalType": "contract Item",
          "name": "",
          "type": "address"
        }
      ],
      "stateMutability": "view",
      "type": "function",
      "constant": true
    },
    {
      "inputs": [],
      "name": "PLAYER_STATUS_TOKEN",
      "outputs": [
        {
          "internalType": "contract PlayerStatus",
          "name": "",
          "type": "address"
        }
      ],
      "stateMutability": "view",
      "type": "function",
      "constant": true
    },
    {
      "inputs": [],
      "name": "RELIC_TOKEN",
      "outputs": [
        {
          "internalType": "contract Relic",
          "name": "",
          "type": "address"
        }
      ],
      "stateMutability": "view",
      "type": "function",
      "constant": true
    },
    {
      "inputs": [
        {
          "internalType": "bytes32",
          "name": "role",
          "type": "bytes32"
        }
      ],
      "name": "getRoleAdmin",
      "outputs": [
        {
          "internalType": "bytes32",
          "name": "",
          "type": "bytes32"
        }
      ],
      "stateMutability": "view",
      "type": "function",
      "constant": true
    },
    {
      "inputs": [
        {
          "internalType": "bytes32",
          "name": "role",
          "type": "bytes32"
        },
        {
          "internalType": "uint256",
          "name": "index",
          "type": "uint256"
        }
      ],
      "name": "getRoleMember",
      "outputs": [
        {
          "internalType": "address",
          "name": "",
          "type": "address"
        }
      ],
      "stateMutability": "view",
      "type": "function",
      "constant": true
    },
    {
      "inputs": [
        {
          "internalType": "bytes32",
          "name": "role",
          "type": "bytes32"
        }
      ],
      "name": "getRoleMemberCount",
      "outputs": [
        {
          "internalType": "uint256",
          "name": "",
          "type": "uint256"
        }
      ],
      "stateMutability": "view",
      "type": "function",
      "constant": true
    },
    {
      "inputs": [
        {
          "internalType": "bytes32",
          "name": "role",
          "type": "bytes32"
        },
        {
          "internalType": "address",
          "name": "account",
          "type": "address"
        }
      ],
      "name": "grantRole",
      "outputs": [],
      "stateMutability": "nonpayable",
      "type": "function"
    },
    {
      "inputs": [
        {
          "internalType": "bytes32",
          "name": "role",
          "type": "bytes32"
        },
        {
          "internalType": "address",
          "name": "account",
          "type": "address"
        }
      ],
      "name": "hasRole",
      "outputs": [
        {
          "internalType": "bool",
          "name": "",
          "type": "bool"
        }
      ],
      "stateMutability": "view",
      "type": "function",
      "constant": true
    },
    {
      "inputs": [
        {
          "internalType": "bytes32",
          "name": "role",
          "type": "bytes32"
        },
        {
          "internalType": "address",
          "name": "account",
          "type": "address"
        }
      ],
      "name": "renounceRole",
      "outputs": [],
      "stateMutability": "nonpayable",
      "type": "function"
    },
    {
      "inputs": [
        {
          "internalType": "bytes32",
          "name": "role",
          "type": "bytes32"
        },
        {
          "internalType": "address",
          "name": "account",
          "type": "address"
        }
      ],
      "name": "revokeRole",
      "outputs": [],
      "stateMutability": "nonpayable",
      "type": "function"
    },
    {
      "inputs": [
        {
          "internalType": "bytes4",
          "name": "interfaceId",
          "type": "bytes4"
        }
      ],
      "name": "supportsInterface",
      "outputs": [
        {
          "internalType": "bool",
          "name": "",
          "type": "bool"
        }
      ],
      "stateMutability": "view",
      "type": "function",
      "constant": true
    },
    {
      "inputs": [
        {
          "internalType": "address",
          "name": "dayNightAddress",
          "type": "address"
        },
        {
          "internalType": "address",
          "name": "disasterAddress",
          "type": "address"
        },
        {
          "internalType": "address",
          "name": "enemyAddress",
          "type": "address"
        },
        {
          "internalType": "address",
          "name": "itemAddress",
          "type": "address"
        },
        {
          "internalType": "address",
          "name": "playerStatusAddress",
          "type": "address"
        },
        {
          "internalType": "address",
          "name": "artifactAddress",
          "type": "address"
        },
        {
          "internalType": "address",
          "name": "relicAddress",
          "type": "address"
        }
      ],
      "name": "setTokenAddresses",
      "outputs": [],
      "stateMutability": "nonpayable",
      "type": "function"
    },
    {
      "inputs": [
        {
          "internalType": "uint256",
          "name": "holderID",
          "type": "uint256"
        },
        {
          "internalType": "enum TokenInventory.Token",
          "name": "token",
          "type": "uint8"
        },
        {
          "internalType": "uint256",
          "name": "gameID",
          "type": "uint256"
        }
      ],
      "name": "holdsToken",
      "outputs": [
        {
          "internalType": "bool",
          "name": "hasBalance",
          "type": "bool"
        }
      ],
      "stateMutability": "view",
      "type": "function",
      "constant": true
    }
  ],
  "bytecode": "0x60806040523480156200001157600080fd5b506200003a60006200002b64010000000062000040810204565b64010000000062000044810204565b62000202565b3390565b6200005982826401000000006200005d810204565b5050565b62000077828264010000000062000e5c620000a482021704565b60008281526001602052604090206200009f908264010000000062000ee06200014082021704565b505050565b620000b9828264010000000062000169810204565b6200005957600082815260208181526040808320600160a060020a03851684529091529020805460ff19166001179055620000fc64010000000062000040810204565b600160a060020a031681600160a060020a0316837f2f8788117e7eff1d82e926ec794901d17c78024a50270940304540a733656f0d60405160405180910390a45050565b60006200016083600160a060020a03841664010000000062000192810204565b90505b92915050565b600091825260208281526040808420600160a060020a0393909316845291905290205460ff1690565b6000620001a98383640100000000620001ea810204565b620001e15750815460018181018455600084815260208082209093018490558454848252828601909352604090209190915562000163565b50600062000163565b60009081526001919091016020526040902054151590565b61192880620002126000396000f3fe608060405234801561001057600080fd5b50600436106100fa5760003560e060020a9004806391d148541161009657806391d14854146101f7578063a217fddf1461020a578063a318d45c14610212578063a906dfd114610225578063b149f67514610238578063c1cdbb3c1461024b578063ca15c8731461025e578063cb8d2d2c14610271578063d547741f1461028457600080fd5b806301d37be4146100ff57806301ffc9a714610127578063248a9ca31461013a5780632b2145331461016b5780632ee0804a146101965780632f2ff15d146101a957806336568abe146101be57806345d339d9146101d15780639010d07c146101e4575b600080fd5b61011261010d366004611412565b610297565b60405190151581526020015b60405180910390f35b61011261013536600461144e565b610c3f565b61015d610148366004611478565b60009081526020819052604090206001015490565b60405190815260200161011e565b60045461017e90600160a060020a031681565b604051600160a060020a03909116815260200161011e565b60035461017e90600160a060020a031681565b6101bc6101b73660046114ad565b610c83565b005b6101bc6101cc3660046114ad565b610cad565b60075461017e90600160a060020a031681565b61017e6101f23660046114d9565b610d41565b6101126102053660046114ad565b610d60565b61015d600081565b60055461017e90600160a060020a031681565b60025461017e90600160a060020a031681565b6101bc6102463660046114fb565b610d89565b60065461017e90600160a060020a031681565b61015d61026c366004611478565b610e20565b60085461017e90600160a060020a031681565b6101bc6102923660046114ad565b610e37565b60006060818460068111156102ae576102ae611581565b14156103fd57600260009054906101000a9004600160a060020a0316600160a060020a031663c853a1d06040518163ffffffff1660e060020a028152600401600060405180830381865afa15801561030a573d6000803e3d6000fd5b505050506040513d6000823e601f3d908101601f191682016040526103329190810190611614565b905060005b81518110156103f7576002548251600091600160a060020a031690634db157d09085908590811061036a5761036a611729565b6020026020010151878a6040518463ffffffff1660e060020a0281526004016103959392919061176e565b602060405180830381865afa1580156103b2573d6000803e3d6000fd5b505050506040513d601f19601f820116820180604052508101906103d69190611793565b11156103e557600192506103f7565b806103ef816117c5565b915050610337565b50610c37565b600184600681111561041157610411611581565b141561055a57600360009054906101000a9004600160a060020a0316600160a060020a031663c853a1d06040518163ffffffff1660e060020a028152600401600060405180830381865afa15801561046d573d6000803e3d6000fd5b505050506040513d6000823e601f3d908101601f191682016040526104959190810190611614565b905060005b81518110156103f7576003548251600091600160a060020a031690634db157d0908590859081106104cd576104cd611729565b6020026020010151878a6040518463ffffffff1660e060020a0281526004016104f89392919061176e565b602060405180830381865afa158015610515573d6000803e3d6000fd5b505050506040513d601f19601f820116820180604052508101906105399190611793565b111561054857600192506103f7565b80610552816117c5565b91505061049a565b600284600681111561056e5761056e611581565b14156106c15760048054604080517fc853a1d00000000000000000000000000000000000000000000000000000000081529051600160a060020a039092169263c853a1d09282820192600092908290030181865afa1580156105d4573d6000803e3d6000fd5b505050506040513d6000823e601f3d908101601f191682016040526105fc9190810190611614565b905060005b81518110156103f7576004548251600091600160a060020a031690634db157d09085908590811061063457610634611729565b6020026020010151878a6040518463ffffffff1660e060020a02815260040161065f9392919061176e565b602060405180830381865afa15801561067c573d6000803e3d6000fd5b505050506040513d601f19601f820116820180604052508101906106a09190611793565b11156106af57600192506103f7565b806106b9816117c5565b915050610601565b60038460068111156106d5576106d5611581565b141561081e57600560009054906101000a9004600160a060020a0316600160a060020a031663c853a1d06040518163ffffffff1660e060020a028152600401600060405180830381865afa158015610731573d6000803e3d6000fd5b505050506040513d6000823e601f3d908101601f191682016040526107599190810190611614565b905060005b81518110156103f7576005548251600091600160a060020a031690634db157d09085908590811061079157610791611729565b6020026020010151878a6040518463ffffffff1660e060020a0281526004016107bc9392919061176e565b602060405180830381865afa1580156107d9573d6000803e3d6000fd5b505050506040513d601f19601f820116820180604052508101906107fd9190611793565b111561080c57600192506103f7565b80610816816117c5565b91505061075e565b600484600681111561083257610832611581565b141561097b57600660009054906101000a9004600160a060020a0316600160a060020a031663c853a1d06040518163ffffffff1660e060020a028152600401600060405180830381865afa15801561088e573d6000803e3d6000fd5b505050506040513d6000823e601f3d908101601f191682016040526108b69190810190611614565b905060005b81518110156103f7576006548251600091600160a060020a031690634db157d0908590859081106108ee576108ee611729565b6020026020010151878a6040518463ffffffff1660e060020a0281526004016109199392919061176e565b602060405180830381865afa158015610936573d6000803e3d6000fd5b505050506040513d601f19601f8201168201806040525081019061095a9190611793565b111561096957600192506103f7565b80610973816117c5565b9150506108bb565b600584600681111561098f5761098f611581565b1415610ad857600760009054906101000a9004600160a060020a0316600160a060020a031663c853a1d06040518163ffffffff1660e060020a028152600401600060405180830381865afa1580156109eb573d6000803e3d6000fd5b505050506040513d6000823e601f3d908101601f19168201604052610a139190810190611614565b905060005b81518110156103f7576007548251600091600160a060020a031690634db157d090859085908110610a4b57610a4b611729565b6020026020010151878a6040518463ffffffff1660e060020a028152600401610a769392919061176e565b602060405180830381865afa158015610a93573d6000803e3d6000fd5b505050506040513d601f19601f82011682018060405250810190610ab79190611793565b1115610ac657600192506103f7565b80610ad0816117c5565b915050610a18565b6006846006811115610aec57610aec611581565b1415610c3757600860009054906101000a9004600160a060020a0316600160a060020a031663c853a1d06040518163ffffffff1660e060020a028152600401600060405180830381865afa158015610b48573d6000803e3d6000fd5b505050506040513d6000823e601f3d908101601f19168201604052610b709190810190611614565b905060005b8151811015610c35576008548251600091600160a060020a031690634db157d090859085908110610ba857610ba8611729565b6020026020010151878a6040518463ffffffff1660e060020a028152600401610bd39392919061176e565b602060405180830381865afa158015610bf0573d6000803e3d6000fd5b505050506040513d601f19601f82011682018060405250810190610c149190611793565b1115610c235760019250610c35565b80610c2d816117c5565b915050610b75565b505b509392505050565b6000600160e060020a031982167f5a05180f000000000000000000000000000000000000000000000000000000001480610c7d5750610c7d82610ef5565b92915050565b600082815260208190526040902060010154610c9e81610f5c565b610ca88383610f69565b505050565b600160a060020a0381163314610d335760405160e560020a62461bcd02815260206004820152602f60248201527f416363657373436f6e74726f6c3a2063616e206f6e6c792072656e6f756e636560448201527f20726f6c657320666f722073656c66000000000000000000000000000000000060648201526084015b60405180910390fd5b610d3d8282610f8b565b5050565b6000828152600160205260408120610d599083610fad565b9392505050565b600091825260208281526040808420600160a060020a0393909316845291905290205460ff1690565b6000610d9481610f5c565b506002805473ffffffffffffffffffffffffffffffffffffffff19908116600160a060020a03998a1617909155600380548216978916979097179096556004805487169588169590951790945560058054861693871693909317909255600680548516918616919091179055600780548416918516919091179055600880549092169216919091179055565b6000818152600160205260408120610c7d90610fb9565b600082815260208190526040902060010154610e5281610f5c565b610ca88383610f8b565b610e668282610d60565b610d3d57600082815260208181526040808320600160a060020a03851684529091529020805460ff19166001179055610e9c3390565b600160a060020a031681600160a060020a0316837f2f8788117e7eff1d82e926ec794901d17c78024a50270940304540a733656f0d60405160405180910390a45050565b6000610d5983600160a060020a038416610fc3565b6000600160e060020a031982167f7965db0b000000000000000000000000000000000000000000000000000000001480610c7d57507f01ffc9a700000000000000000000000000000000000000000000000000000000600160e060020a0319831614610c7d565b610f668133611012565b50565b610f738282610e5c565b6000828152600160205260409020610ca89082610ee0565b610f958282611079565b6000828152600160205260409020610ca890826110de565b6000610d5983836110f3565b6000610c7d825490565b600081815260018301602052604081205461100a57508154600181810184556000848152602080822090930184905584548482528286019093526040902091909155610c7d565b506000610c7d565b61101c8282610d60565b610d3d5761103481600160a060020a0316601461111d565b61103f83602061111d565b6040516020016110509291906117e0565b60408051601f198184030181529082905260e560020a62461bcd028252610d2a91600401611861565b6110838282610d60565b15610d3d57600082815260208181526040808320600160a060020a0385168085529252808320805460ff1916905551339285917ff6391f5c32d9c69d2a47ea670b442974b53935d1edc7fd64eb21e047a839171b9190a45050565b6000610d5983600160a060020a03841661131f565b600082600001828154811061110a5761110a611729565b9060005260206000200154905092915050565b6060600061112c836002611874565b611137906002611893565b67ffffffffffffffff81111561114f5761114f61159a565b6040519080825280601f01601f191660200182016040528015611179576020820181803683370190505b5090507f3000000000000000000000000000000000000000000000000000000000000000816000815181106111b0576111b0611729565b6020010190600160f860020a031916908160001a9053507f7800000000000000000000000000000000000000000000000000000000000000816001815181106111fb576111fb611729565b6020010190600160f860020a031916908160001a905350600061121f846002611874565b61122a906001611893565b90505b60018111156112cd577f303132333435363738396162636465660000000000000000000000000000000085600f166010811061126b5761126b611729565b1a7f0100000000000000000000000000000000000000000000000000000000000000028282815181106112a0576112a0611729565b6020010190600160f860020a031916908160001a9053506010909404936112c6816118ab565b905061122d565b508315610d595760405160e560020a62461bcd02815260206004820181905260248201527f537472696e67733a20686578206c656e67746820696e73756666696369656e746044820152606401610d2a565b600081815260018301602052604081205480156114085760006113436001836118c2565b8554909150600090611357906001906118c2565b90508181146113bc57600086600001828154811061137757611377611729565b906000526020600020015490508087600001848154811061139a5761139a611729565b6000918252602080832090910192909255918252600188019052604090208390555b85548690806113cd576113cd6118d9565b600190038181906000526020600020016000905590558560010160008681526020019081526020016000206000905560019350505050610c7d565b6000915050610c7d565b60008060006060848603121561142757600080fd5b8335925060208401356007811061143d57600080fd5b929592945050506040919091013590565b60006020828403121561146057600080fd5b8135600160e060020a031981168114610d5957600080fd5b60006020828403121561148a57600080fd5b5035919050565b8035600160a060020a03811681146114a857600080fd5b919050565b600080604083850312156114c057600080fd5b823591506114d060208401611491565b90509250929050565b600080604083850312156114ec57600080fd5b50508035926020909101359150565b600080600080600080600060e0888a03121561151657600080fd5b61151f88611491565b965061152d60208901611491565b955061153b60408901611491565b945061154960608901611491565b935061155760808901611491565b925061156560a08901611491565b915061157360c08901611491565b905092959891949750929550565b60e060020a634e487b7102600052602160045260246000fd5b60e060020a634e487b7102600052604160045260246000fd5b604051601f8201601f1916810167ffffffffffffffff811182821017156115dc576115dc61159a565b604052919050565b60005b838110156115ff5781810151838201526020016115e7565b8381111561160e576000848401525b50505050565b6000602080838503121561162757600080fd5b825167ffffffffffffffff8082111561163f57600080fd5b8185019150601f868184011261165457600080fd5b8251828111156116665761166661159a565b8481026116748682016115b3565b918252848101860191868101908a84111561168e57600080fd5b87870192505b8383101561171b578251868111156116ac5760008081fd5b8701603f81018c136116be5760008081fd5b888101516040888211156116d4576116d461159a565b6116e5828901601f19168c016115b3565b8281528e828486010111156116fa5760008081fd5b611709838d83018487016115e4565b85525050509187019190870190611694565b9a9950505050505050505050565b60e060020a634e487b7102600052603260045260246000fd5b6000815180845261175a8160208601602086016115e4565b601f01601f19169290920160200192915050565b6060815260006117816060830186611742565b60208301949094525060400152919050565b6000602082840312156117a557600080fd5b5051919050565b60e060020a634e487b7102600052601160045260246000fd5b60006000198214156117d9576117d96117ac565b5060010190565b7f416363657373436f6e74726f6c3a206163636f756e74200000000000000000008152600083516118188160178501602088016115e4565b7f206973206d697373696e6720726f6c652000000000000000000000000000000060179184019182015283516118558160288401602088016115e4565b01602801949350505050565b602081526000610d596020830184611742565b600081600019048311821515161561188e5761188e6117ac565b500290565b600082198211156118a6576118a66117ac565b500190565b6000816118ba576118ba6117ac565b506000190190565b6000828210156118d4576118d46117ac565b500390565b60e060020a634e487b7102600052603160045260246000fdfea2646970667358221220e1d7fe25fb9bec79d7e682bf723db1e5813989364adbb0364692b6226da4c52864736f6c634300080b0033",
  "immutableReferences": {},
  "source": "// SPDX-License-Identifier: GPL-3.0\npragma solidity >=0.7.0 <0.9.0;\n\nimport \"@openzeppelin/contracts/access/AccessControlEnumerable.sol\";\n\n// Game Tokens\nimport \"./DayNight.sol\";\nimport \"./Disaster.sol\";\nimport \"./Enemy.sol\";\nimport \"./Item.sol\";\nimport \"./PlayerStatus.sol\";\nimport \"./Artifact.sol\";\nimport \"./Relic.sol\";\n\ncontract TokenInventory is AccessControlEnumerable {\n    enum Token {\n        DayNight,\n        Disaster,\n        Enemy,\n        Item,\n        PlayerStatus,\n        Artifact,\n        Relic\n    }\n\n    DayNight public DAY_NIGHT_TOKEN;\n    Disaster public DISASTER_TOKEN;\n    Enemy public ENEMY_TOKEN;\n    Item public ITEM_TOKEN;\n    PlayerStatus public PLAYER_STATUS_TOKEN;\n    Artifact public ARTIFACT_TOKEN;\n    Relic public RELIC_TOKEN;\n\n    constructor() {\n        _setupRole(DEFAULT_ADMIN_ROLE, _msgSender());\n    }\n\n    function setTokenAddresses(\n        address dayNightAddress,\n        address disasterAddress,\n        address enemyAddress,\n        address itemAddress,\n        address playerStatusAddress,\n        address artifactAddress,\n        address relicAddress\n    ) public onlyRole(DEFAULT_ADMIN_ROLE) {\n        DAY_NIGHT_TOKEN = DayNight(dayNightAddress);\n        DISASTER_TOKEN = Disaster(disasterAddress);\n        ENEMY_TOKEN = Enemy(enemyAddress);\n        ITEM_TOKEN = Item(itemAddress);\n        PLAYER_STATUS_TOKEN = PlayerStatus(playerStatusAddress);\n        ARTIFACT_TOKEN = Artifact(artifactAddress);\n        RELIC_TOKEN = Relic(relicAddress);\n    }\n\n    function holdsToken(\n        uint256 holderID,\n        Token token,\n        uint256 gameID\n    ) public view returns (bool hasBalance) {\n        hasBalance = false;\n        string[] memory allTypes;\n        if (token == Token.DayNight) {\n            allTypes = DAY_NIGHT_TOKEN.getTokenTypes();\n            for (uint256 i = 0; i < allTypes.length; i++) {\n                if (\n                    DAY_NIGHT_TOKEN.balance(allTypes[i], gameID, holderID) > 0\n                ) {\n                    hasBalance = true;\n                    break;\n                }\n            }\n        } else if (token == Token.Disaster) {\n            allTypes = DISASTER_TOKEN.getTokenTypes();\n            for (uint256 i = 0; i < allTypes.length; i++) {\n                if (DISASTER_TOKEN.balance(allTypes[i], gameID, holderID) > 0) {\n                    hasBalance = true;\n                    break;\n                }\n            }\n        } else if (token == Token.Enemy) {\n            allTypes = ENEMY_TOKEN.getTokenTypes();\n            for (uint256 i = 0; i < allTypes.length; i++) {\n                if (ENEMY_TOKEN.balance(allTypes[i], gameID, holderID) > 0) {\n                    hasBalance = true;\n                    break;\n                }\n            }\n        } else if (token == Token.Item) {\n            allTypes = ITEM_TOKEN.getTokenTypes();\n            for (uint256 i = 0; i < allTypes.length; i++) {\n                if (ITEM_TOKEN.balance(allTypes[i], gameID, holderID) > 0) {\n                    hasBalance = true;\n                    break;\n                }\n            }\n        } else if (token == Token.PlayerStatus) {\n            allTypes = PLAYER_STATUS_TOKEN.getTokenTypes();\n            for (uint256 i = 0; i < allTypes.length; i++) {\n                if (\n                    PLAYER_STATUS_TOKEN.balance(allTypes[i], gameID, holderID) >\n                    0\n                ) {\n                    hasBalance = true;\n                    break;\n                }\n            }\n        } else if (token == Token.Artifact) {\n            allTypes = ARTIFACT_TOKEN.getTokenTypes();\n            for (uint256 i = 0; i < allTypes.length; i++) {\n                if (ARTIFACT_TOKEN.balance(allTypes[i], gameID, holderID) > 0) {\n                    hasBalance = true;\n                    break;\n                }\n            }\n        } else if (token == Token.Relic) {\n            allTypes = RELIC_TOKEN.getTokenTypes();\n            for (uint256 i = 0; i < allTypes.length; i++) {\n                if (RELIC_TOKEN.balance(allTypes[i], gameID, holderID) > 0) {\n                    hasBalance = true;\n                    break;\n                }\n            }\n        }\n    }\n}\n",
  "sourcePath": "/Users/maxmeier/Developer/Lucky Machines/hexploration/contracts/tokens/TokenInventory.sol",
  "compiler": {
    "name": "solc",
    "version": "0.8.11+commit.d7f03943.Emscripten.clang"
  },
  "schemaVersion": "3.4.4",
  "updatedAt": "2022-05-23T23:14:43.128Z",
  "networkType": "ethereum",
  "devdoc": {
    "kind": "dev",
    "methods": {
      "getRoleAdmin(bytes32)": {
        "details": "Returns the admin role that controls `role`. See {grantRole} and {revokeRole}. To change a role's admin, use {_setRoleAdmin}."
      },
      "getRoleMember(bytes32,uint256)": {
        "details": "Returns one of the accounts that have `role`. `index` must be a value between 0 and {getRoleMemberCount}, non-inclusive. Role bearers are not sorted in any particular way, and their ordering may change at any point. WARNING: When using {getRoleMember} and {getRoleMemberCount}, make sure you perform all queries on the same block. See the following https://forum.openzeppelin.com/t/iterating-over-elements-on-enumerableset-in-openzeppelin-contracts/2296[forum post] for more information."
      },
      "getRoleMemberCount(bytes32)": {
        "details": "Returns the number of accounts that have `role`. Can be used together with {getRoleMember} to enumerate all bearers of a role."
      },
      "grantRole(bytes32,address)": {
        "details": "Grants `role` to `account`. If `account` had not been already granted `role`, emits a {RoleGranted} event. Requirements: - the caller must have ``role``'s admin role."
      },
      "hasRole(bytes32,address)": {
        "details": "Returns `true` if `account` has been granted `role`."
      },
      "renounceRole(bytes32,address)": {
        "details": "Revokes `role` from the calling account. Roles are often managed via {grantRole} and {revokeRole}: this function's purpose is to provide a mechanism for accounts to lose their privileges if they are compromised (such as when a trusted device is misplaced). If the calling account had been revoked `role`, emits a {RoleRevoked} event. Requirements: - the caller must be `account`."
      },
      "revokeRole(bytes32,address)": {
        "details": "Revokes `role` from `account`. If `account` had been granted `role`, emits a {RoleRevoked} event. Requirements: - the caller must have ``role``'s admin role."
      },
      "supportsInterface(bytes4)": {
        "details": "See {IERC165-supportsInterface}."
      }
    },
    "version": 1
  },
  "userdoc": {
    "kind": "user",
    "methods": {},
    "version": 1
  }
}