{
  "contractName": "TreasureDeck",
  "abi": [
    {
      "inputs": [],
      "stateMutability": "nonpayable",
      "type": "constructor"
    },
    {
      "anonymous": false,
      "inputs": [
        {
          "indexed": true,
          "internalType": "bytes32",
          "name": "role",
          "type": "bytes32"
        },
        {
          "indexed": true,
          "internalType": "bytes32",
          "name": "previousAdminRole",
          "type": "bytes32"
        },
        {
          "indexed": true,
          "internalType": "bytes32",
          "name": "newAdminRole",
          "type": "bytes32"
        }
      ],
      "name": "RoleAdminChanged",
      "type": "event"
    },
    {
      "anonymous": false,
      "inputs": [
        {
          "indexed": true,
          "internalType": "bytes32",
          "name": "role",
          "type": "bytes32"
        },
        {
          "indexed": true,
          "internalType": "address",
          "name": "account",
          "type": "address"
        },
        {
          "indexed": true,
          "internalType": "address",
          "name": "sender",
          "type": "address"
        }
      ],
      "name": "RoleGranted",
      "type": "event"
    },
    {
      "anonymous": false,
      "inputs": [
        {
          "indexed": true,
          "internalType": "bytes32",
          "name": "role",
          "type": "bytes32"
        },
        {
          "indexed": true,
          "internalType": "address",
          "name": "account",
          "type": "address"
        },
        {
          "indexed": true,
          "internalType": "address",
          "name": "sender",
          "type": "address"
        }
      ],
      "name": "RoleRevoked",
      "type": "event"
    },
    {
      "inputs": [],
      "name": "CONTROLLER_ROLE",
      "outputs": [
        {
          "internalType": "bytes32",
          "name": "",
          "type": "bytes32"
        }
      ],
      "stateMutability": "view",
      "type": "function",
      "constant": true
    },
    {
      "inputs": [],
      "name": "DEFAULT_ADMIN_ROLE",
      "outputs": [
        {
          "internalType": "bytes32",
          "name": "",
          "type": "bytes32"
        }
      ],
      "stateMutability": "view",
      "type": "function",
      "constant": true
    },
    {
      "inputs": [
        {
          "internalType": "string[]",
          "name": "titles",
          "type": "string[]"
        },
        {
          "internalType": "string[]",
          "name": "descriptions",
          "type": "string[]"
        },
        {
          "internalType": "uint16[]",
          "name": "quantities",
          "type": "uint16[]"
        }
      ],
      "name": "addCards",
      "outputs": [],
      "stateMutability": "nonpayable",
      "type": "function"
    },
    {
      "inputs": [
        {
          "internalType": "string",
          "name": "",
          "type": "string"
        },
        {
          "internalType": "uint256",
          "name": "",
          "type": "uint256"
        }
      ],
      "name": "agilityAdjust",
      "outputs": [
        {
          "internalType": "int8",
          "name": "",
          "type": "int8"
        }
      ],
      "stateMutability": "view",
      "type": "function",
      "constant": true
    },
    {
      "inputs": [
        {
          "internalType": "string",
          "name": "",
          "type": "string"
        }
      ],
      "name": "description",
      "outputs": [
        {
          "internalType": "string",
          "name": "",
          "type": "string"
        }
      ],
      "stateMutability": "view",
      "type": "function",
      "constant": true
    },
    {
      "inputs": [
        {
          "internalType": "string",
          "name": "",
          "type": "string"
        },
        {
          "internalType": "uint256",
          "name": "",
          "type": "uint256"
        }
      ],
      "name": "dexterityAdjust",
      "outputs": [
        {
          "internalType": "int8",
          "name": "",
          "type": "int8"
        }
      ],
      "stateMutability": "view",
      "type": "function",
      "constant": true
    },
    {
      "inputs": [
        {
          "internalType": "uint256",
          "name": "randomWord",
          "type": "uint256"
        },
        {
          "internalType": "uint256[3]",
          "name": "rollValues",
          "type": "uint256[3]"
        }
      ],
      "name": "drawCard",
      "outputs": [
        {
          "internalType": "string",
          "name": "",
          "type": "string"
        },
        {
          "internalType": "int8",
          "name": "",
          "type": "int8"
        },
        {
          "internalType": "int8",
          "name": "",
          "type": "int8"
        },
        {
          "internalType": "int8",
          "name": "",
          "type": "int8"
        },
        {
          "internalType": "string",
          "name": "",
          "type": "string"
        },
        {
          "internalType": "string",
          "name": "",
          "type": "string"
        },
        {
          "internalType": "string",
          "name": "",
          "type": "string"
        },
        {
          "internalType": "int256",
          "name": "",
          "type": "int256"
        },
        {
          "internalType": "int256",
          "name": "",
          "type": "int256"
        }
      ],
      "stateMutability": "view",
      "type": "function",
      "constant": true
    },
    {
      "inputs": [],
      "name": "getDeck",
      "outputs": [
        {
          "internalType": "string[]",
          "name": "",
          "type": "string[]"
        }
      ],
      "stateMutability": "view",
      "type": "function",
      "constant": true
    },
    {
      "inputs": [
        {
          "internalType": "bytes32",
          "name": "role",
          "type": "bytes32"
        }
      ],
      "name": "getRoleAdmin",
      "outputs": [
        {
          "internalType": "bytes32",
          "name": "",
          "type": "bytes32"
        }
      ],
      "stateMutability": "view",
      "type": "function",
      "constant": true
    },
    {
      "inputs": [
        {
          "internalType": "bytes32",
          "name": "role",
          "type": "bytes32"
        },
        {
          "internalType": "uint256",
          "name": "index",
          "type": "uint256"
        }
      ],
      "name": "getRoleMember",
      "outputs": [
        {
          "internalType": "address",
          "name": "",
          "type": "address"
        }
      ],
      "stateMutability": "view",
      "type": "function",
      "constant": true
    },
    {
      "inputs": [
        {
          "internalType": "bytes32",
          "name": "role",
          "type": "bytes32"
        }
      ],
      "name": "getRoleMemberCount",
      "outputs": [
        {
          "internalType": "uint256",
          "name": "",
          "type": "uint256"
        }
      ],
      "stateMutability": "view",
      "type": "function",
      "constant": true
    },
    {
      "inputs": [
        {
          "internalType": "bytes32",
          "name": "role",
          "type": "bytes32"
        },
        {
          "internalType": "address",
          "name": "account",
          "type": "address"
        }
      ],
      "name": "grantRole",
      "outputs": [],
      "stateMutability": "nonpayable",
      "type": "function"
    },
    {
      "inputs": [
        {
          "internalType": "string",
          "name": "",
          "type": "string"
        },
        {
          "internalType": "uint256",
          "name": "",
          "type": "uint256"
        }
      ],
      "name": "handLoss",
      "outputs": [
        {
          "internalType": "string",
          "name": "",
          "type": "string"
        }
      ],
      "stateMutability": "view",
      "type": "function",
      "constant": true
    },
    {
      "inputs": [
        {
          "internalType": "bytes32",
          "name": "role",
          "type": "bytes32"
        },
        {
          "internalType": "address",
          "name": "account",
          "type": "address"
        }
      ],
      "name": "hasRole",
      "outputs": [
        {
          "internalType": "bool",
          "name": "",
          "type": "bool"
        }
      ],
      "stateMutability": "view",
      "type": "function",
      "constant": true
    },
    {
      "inputs": [
        {
          "internalType": "string",
          "name": "",
          "type": "string"
        },
        {
          "internalType": "uint256",
          "name": "",
          "type": "uint256"
        }
      ],
      "name": "itemGain",
      "outputs": [
        {
          "internalType": "string",
          "name": "",
          "type": "string"
        }
      ],
      "stateMutability": "view",
      "type": "function",
      "constant": true
    },
    {
      "inputs": [
        {
          "internalType": "string",
          "name": "",
          "type": "string"
        },
        {
          "internalType": "uint256",
          "name": "",
          "type": "uint256"
        }
      ],
      "name": "itemLoss",
      "outputs": [
        {
          "internalType": "string",
          "name": "",
          "type": "string"
        }
      ],
      "stateMutability": "view",
      "type": "function",
      "constant": true
    },
    {
      "inputs": [
        {
          "internalType": "string",
          "name": "",
          "type": "string"
        },
        {
          "internalType": "uint256",
          "name": "",
          "type": "uint256"
        }
      ],
      "name": "movementAdjust",
      "outputs": [
        {
          "internalType": "int8",
          "name": "",
          "type": "int8"
        }
      ],
      "stateMutability": "view",
      "type": "function",
      "constant": true
    },
    {
      "inputs": [
        {
          "internalType": "string",
          "name": "",
          "type": "string"
        },
        {
          "internalType": "uint256",
          "name": "",
          "type": "uint256"
        }
      ],
      "name": "movementX",
      "outputs": [
        {
          "internalType": "int256",
          "name": "",
          "type": "int256"
        }
      ],
      "stateMutability": "view",
      "type": "function",
      "constant": true
    },
    {
      "inputs": [
        {
          "internalType": "string",
          "name": "",
          "type": "string"
        },
        {
          "internalType": "uint256",
          "name": "",
          "type": "uint256"
        }
      ],
      "name": "movementY",
      "outputs": [
        {
          "internalType": "int256",
          "name": "",
          "type": "int256"
        }
      ],
      "stateMutability": "view",
      "type": "function",
      "constant": true
    },
    {
      "inputs": [
        {
          "internalType": "string",
          "name": "",
          "type": "string"
        },
        {
          "internalType": "uint256",
          "name": "",
          "type": "uint256"
        }
      ],
      "name": "outcomeDescription",
      "outputs": [
        {
          "internalType": "string",
          "name": "",
          "type": "string"
        }
      ],
      "stateMutability": "view",
      "type": "function",
      "constant": true
    },
    {
      "inputs": [
        {
          "internalType": "string",
          "name": "",
          "type": "string"
        }
      ],
      "name": "quantity",
      "outputs": [
        {
          "internalType": "uint16",
          "name": "",
          "type": "uint16"
        }
      ],
      "stateMutability": "view",
      "type": "function",
      "constant": true
    },
    {
      "inputs": [
        {
          "internalType": "bytes32",
          "name": "role",
          "type": "bytes32"
        },
        {
          "internalType": "address",
          "name": "account",
          "type": "address"
        }
      ],
      "name": "renounceRole",
      "outputs": [],
      "stateMutability": "nonpayable",
      "type": "function"
    },
    {
      "inputs": [
        {
          "internalType": "bytes32",
          "name": "role",
          "type": "bytes32"
        },
        {
          "internalType": "address",
          "name": "account",
          "type": "address"
        }
      ],
      "name": "revokeRole",
      "outputs": [],
      "stateMutability": "nonpayable",
      "type": "function"
    },
    {
      "inputs": [
        {
          "internalType": "string",
          "name": "",
          "type": "string"
        },
        {
          "internalType": "uint256",
          "name": "",
          "type": "uint256"
        }
      ],
      "name": "rollThresholds",
      "outputs": [
        {
          "internalType": "uint256",
          "name": "",
          "type": "uint256"
        }
      ],
      "stateMutability": "view",
      "type": "function",
      "constant": true
    },
    {
      "inputs": [
        {
          "internalType": "string",
          "name": "",
          "type": "string"
        }
      ],
      "name": "rollTypeRequired",
      "outputs": [
        {
          "internalType": "uint256",
          "name": "",
          "type": "uint256"
        }
      ],
      "stateMutability": "view",
      "type": "function",
      "constant": true
    },
    {
      "inputs": [
        {
          "internalType": "bytes4",
          "name": "interfaceId",
          "type": "bytes4"
        }
      ],
      "name": "supportsInterface",
      "outputs": [
        {
          "internalType": "bool",
          "name": "",
          "type": "bool"
        }
      ],
      "stateMutability": "view",
      "type": "function",
      "constant": true
    }
  ],
  "bytecode": "0x60806040523480156200001157600080fd5b506200003a60006200002b64010000000062000eb7810204565b64010000000062000ebb810204565b60408051600a8082526101608201909252600091816020015b60608152602001906001900390816200005357505060408051600a808252610160820190925291925060009190602082015b60608152602001906001900390816200008557505060408051600a80825261016082019092529192506000919060208201610140803683370190505090506040518060400160405280600c81526020017f5275737479204461676765720000000000000000000000000000000000000000815250836000815181106200010f576200010f62001686565b6020026020010181905250604051806060016040528060238152602001620038a460239139826000815181106200014a576200014a62001686565b60200260200101819052506001816000815181106200016d576200016d62001686565b602002602001019061ffff16908161ffff16815250508260008151811062000199576200019962001686565b6020026020010151600884600081518110620001b957620001b962001686565b6020026020010151604051620001d09190620016e8565b9081526040519081900360200190206002019080519060200190620001f7929190620015b1565b506040518060400160405280600c81526020017f527573747920506973746f6c00000000000000000000000000000000000000008152508360018151811062000244576200024462001686565b60200260200101819052506040518060400160405280601e81526020017f536d616c6c2063616c696265722c20727573746564206669726561726d2e0000815250826001815181106200029b576200029b62001686565b6020026020010181905250600181600181518110620002be57620002be62001686565b602002602001019061ffff16908161ffff168152505082600181518110620002ea57620002ea62001686565b60200260200101516008846001815181106200030a576200030a62001686565b6020026020010151604051620003219190620016e8565b908152604051908190036020019020600201908051906020019062000348929190620015b1565b506040518060400160405280600c81526020017f5368696e792044616767657200000000000000000000000000000000000000008152508360028151811062000395576200039562001686565b6020026020010181905250604051806060016040528060218152602001620036c36021913982600281518110620003d057620003d062001686565b6020026020010181905250600181600281518110620003f357620003f362001686565b602002602001019061ffff16908161ffff1681525050826002815181106200041f576200041f62001686565b60200260200101516008846002815181106200043f576200043f62001686565b6020026020010151604051620004569190620016e8565b90815260405190819003602001902060020190805190602001906200047d929190620015b1565b506040518060400160405280600c81526020017f5368696e7920506973746f6c000000000000000000000000000000000000000081525083600381518110620004ca57620004ca62001686565b6020026020010181905250604051806060016040528060298152602001620038c7602991398260038151811062000505576200050562001686565b602002602001018190525060018160038151811062000528576200052862001686565b602002602001019061ffff16908161ffff16815250508260038151811062000554576200055462001686565b602002602001015160088460038151811062000574576200057462001686565b60200260200101516040516200058b9190620016e8565b9081526040519081900360200190206002019080519060200190620005b2929190620015b1565b506040518060400160405280600c81526020017f4c6173657220446167676572000000000000000000000000000000000000000081525083600481518110620005ff57620005ff62001686565b6020026020010181905250604051806060016040528060218152602001620038f060219139826004815181106200063a576200063a62001686565b60200260200101819052506001816004815181106200065d576200065d62001686565b602002602001019061ffff16908161ffff16815250508260048151811062000689576200068962001686565b6020026020010151600884600481518110620006a957620006a962001686565b6020026020010151604051620006c09190620016e8565b9081526040519081900360200190206002019080519060200190620006e7929190620015b1565b506040518060400160405280600c81526020017f4c6173657220506973746f6c00000000000000000000000000000000000000008152508360058151811062000734576200073462001686565b60200260200101819052506040518060600160405280603081526020016200387460309139826005815181106200076f576200076f62001686565b602002602001018190525060018160058151811062000792576200079262001686565b602002602001019061ffff16908161ffff168152505082600581518110620007be57620007be62001686565b6020026020010151600884600581518110620007de57620007de62001686565b6020026020010151604051620007f59190620016e8565b90815260405190819003602001902060020190805190602001906200081c929190620015b1565b506040518060400160405280600b81526020017f506f77657220476c6f76650000000000000000000000000000000000000000008152508360068151811062000869576200086962001686565b60200260200101819052506040518060800160405280604e8152602001620036e4604e913982600681518110620008a457620008a462001686565b6020026020010181905250600181600681518110620008c757620008c762001686565b602002602001019061ffff16908161ffff168152505082600681518110620008f357620008f362001686565b602002602001015160088460068151811062000913576200091362001686565b60200260200101516040516200092a9190620016e8565b908152604051908190036020019020600201908051906020019062000951929190620015b1565b506040518060400160405280600f81526020017f456e677261766564205461626c65740000000000000000000000000000000000815250836007815181106200099e576200099e62001686565b60200260200101819052506040518060c00160405280609f815260200162003732609f913982600781518110620009d957620009d962001686565b6020026020010181905250600181600781518110620009fc57620009fc62001686565b602002602001019061ffff16908161ffff16815250508260078151811062000a285762000a2862001686565b602002602001015160088460078151811062000a485762000a4862001686565b602002602001015160405162000a5f9190620016e8565b908152604051908190036020019020600201908051906020019062000a86929190620015b1565b506040518060400160405280600881526020017f4172746966616374000000000000000000000000000000000000000000000000815250600e8460078151811062000ad55762000ad562001686565b602002602001015160405162000aec9190620016e8565b908152604051908190036020019020600201908051906020019062000b13929190620015b1565b506040518060400160405280600981526020017f536967696c2047656d00000000000000000000000000000000000000000000008152508360088151811062000b605762000b6062001686565b60200260200101819052506040518060e0016040528060a38152602001620037d160a391398260088151811062000b9b5762000b9b62001686565b602002602001018190525060018160088151811062000bbe5762000bbe62001686565b602002602001019061ffff16908161ffff16815250508260088151811062000bea5762000bea62001686565b602002602001015160088460088151811062000c0a5762000c0a62001686565b602002602001015160405162000c219190620016e8565b908152604051908190036020019020600201908051906020019062000c48929190620015b1565b506040518060400160405280600881526020017f4172746966616374000000000000000000000000000000000000000000000000815250600e8460078151811062000c975762000c9762001686565b602002602001015160405162000cae9190620016e8565b908152604051908190036020019020600201908051906020019062000cd5929190620015b1565b506040518060400160405280600c81526020017f416e6369656e7420546f6d6500000000000000000000000000000000000000008152508360098151811062000d225762000d2262001686565b60200260200101819052506040518060c001604052806098815260200162003911609891398260098151811062000d5d5762000d5d62001686565b602002602001018190525060018160098151811062000d805762000d8062001686565b602002602001019061ffff16908161ffff16815250508260098151811062000dac5762000dac62001686565b602002602001015160088460098151811062000dcc5762000dcc62001686565b602002602001015160405162000de39190620016e8565b908152604051908190036020019020600201908051906020019062000e0a929190620015b1565b506040518060400160405280600881526020017f4172746966616374000000000000000000000000000000000000000000000000815250600e8460098151811062000e595762000e5962001686565b602002602001015160405162000e709190620016e8565b908152604051908190036020019020600201908051906020019062000e97929190620015b1565b5062000eae83838364010000000062000ed4810204565b505050620018ba565b3390565b62000ed08282640100000000620010fd810204565b5050565b600062000eea8164010000000062001144810204565b8251845114801562000efd575081518451145b62000f69576040517f08c379a000000000000000000000000000000000000000000000000000000000815260206004820152601760248201527f6172726179207175616e74697479206d69736d6174636800000000000000000060448201526064015b60405180910390fd5b60005b8451811015620010f657600085828151811062000f8d5762000f8d62001686565b6020026020010151905060048160405162000fa99190620016e8565b9081526040519081900360200190205461ffff1615801562000fec575083828151811062000fdb5762000fdb62001686565b602002602001015161ffff16600014155b15620010e05760028054600181018255600091909152815162001037917f405787fa12a823e0f2b7631cc41b3ba8828b3321ca811111fa75cd3aa3bb5ace01906020840190620015b1565b508482815181106200104d576200104d62001686565b6020026020010151600382604051620010679190620016e8565b908152602001604051809103902090805190602001906200108a929190620015b1565b50838281518110620010a057620010a062001686565b6020026020010151600482604051620010ba9190620016e8565b908152604051908190036020019020805461ffff9290921661ffff199092169190911790555b5080620010ed8162001735565b91505062000f6c565b5050505050565b620011178282640100000000620010506200116e82021704565b60008281526001602052604090206200113f9082640100000000620010d46200120a82021704565b505050565b6200116b816200115c64010000000062000eb7810204565b64010000000062001233810204565b50565b620011838282640100000000620012e1810204565b62000ed057600082815260208181526040808320600160a060020a03851684529091529020805460ff19166001179055620011c664010000000062000eb7810204565b600160a060020a031681600160a060020a0316837f2f8788117e7eff1d82e926ec794901d17c78024a50270940304540a733656f0d60405160405180910390a45050565b60006200122a83600160a060020a0384166401000000006200130a810204565b90505b92915050565b620012488282640100000000620012e1810204565b62000ed05762001271600160a060020a0382166014640100000000620010e96200136282021704565b6200128c836020640100000000620010e96200136282021704565b6040516020016200129f92919062001753565b60408051601f19818403018152908290527f08c379a000000000000000000000000000000000000000000000000000000000825262000f6091600401620017d8565b600091825260208281526040808420600160a060020a0393909316845291905290205460ff1690565b600062001321838364010000000062001599810204565b62001359575081546001818101845560008481526020808220909301849055845484825282860190935260409020919091556200122d565b5060006200122d565b60606000620013738360026200180d565b620013809060026200182f565b67ffffffffffffffff8111156200139b576200139b62001657565b6040519080825280601f01601f191660200182016040528015620013c6576020820181803683370190505b5090507f30000000000000000000000000000000000000000000000000000000000000008160008151811062001400576200140062001686565b6020010190600160f860020a031916908160001a9053507f7800000000000000000000000000000000000000000000000000000000000000816001815181106200144e576200144e62001686565b6020010190600160f860020a031916908160001a9053506000620014748460026200180d565b620014819060016200182f565b90505b60018111156200152e577f303132333435363738396162636465660000000000000000000000000000000085600f1660108110620014c657620014c662001686565b1a7f010000000000000000000000000000000000000000000000000000000000000002828281518110620014fe57620014fe62001686565b6020010190600160f860020a031916908160001a90535060109094049362001526816200184a565b905062001484565b5083156200122a576040517f08c379a000000000000000000000000000000000000000000000000000000000815260206004820181905260248201527f537472696e67733a20686578206c656e67746820696e73756666696369656e74604482015260640162000f60565b60009081526001919091016020526040902054151590565b828054620015bf9062001864565b90600052602060002090601f016020900481019282620015e357600085556200162e565b82601f10620015fe57805160ff19168380011785556200162e565b828001600101855582156200162e579182015b828111156200162e57825182559160200191906001019062001611565b506200163c92915062001640565b5090565b5b808211156200163c576000815560010162001641565b7f4e487b7100000000000000000000000000000000000000000000000000000000600052604160045260246000fd5b7f4e487b7100000000000000000000000000000000000000000000000000000000600052603260045260246000fd5b60005b83811015620016d2578181015183820152602001620016b8565b83811115620016e2576000848401525b50505050565b60008251620016fc818460208701620016b5565b9190910192915050565b7f4e487b7100000000000000000000000000000000000000000000000000000000600052601160045260246000fd5b60006000198214156200174c576200174c62001706565b5060010190565b7f416363657373436f6e74726f6c3a206163636f756e74200000000000000000008152600083516200178d816017850160208801620016b5565b7f206973206d697373696e6720726f6c65200000000000000000000000000000006017918401918201528351620017cc816028840160208801620016b5565b01602801949350505050565b6020815260008251806020840152620017f9816040850160208701620016b5565b601f01601f19169190910160400192915050565b60008160001904831182151516156200182a576200182a62001706565b500290565b6000821982111562001845576200184562001706565b500190565b6000816200185c576200185c62001706565b506000190190565b6002810460018216806200187957607f821691505b60208210811415620018b4577f4e487b7100000000000000000000000000000000000000000000000000000000600052602260045260246000fd5b50919050565b611df980620018ca6000396000f3fe608060405234801561001057600080fd5b506004361061018b576000357c0100000000000000000000000000000000000000000000000000000000900480637b7841ce116100eb578063a217fddf116100a4578063a217fddf146103c0578063a855d6f9146103c8578063ca15c873146103db578063ce8b5978146103ee578063d547741f14610401578063d7f9601b14610414578063ef6fe0fa1461042757600080fd5b80637b7841ce1461030757806381ecfce81461031a578063882551991461035c5780639010d07c1461036f57806391d148541461039a578063a17ee4d8146103ad57600080fd5b806336568abe1161014857806336568abe1461025a5780634ad8b0661461026d578063512e23bf146102805780636e84897014610293578063750211b9146102b957806376796db8146102e157806378064381146102f457600080fd5b806301ffc9a714610190578063092c5b3b146101b85780630ab68f52146101ed578063248a9ca31461020d5780632f2ff15d146102305780633394347414610245575b600080fd5b6101a361019e36600461169f565b610452565b60405190151581526020015b60405180910390f35b6101df7f7b765e0e932d348852a6f810bfa1ab891e259123f02db8cdcde614c57022335781565b6040519081526020016101af565b6102006101fb366004611783565b610496565b6040516101af9190611824565b6101df61021b366004611837565b60009081526020819052604090206001015490565b61024361023e366004611850565b610551565b005b61024d61057b565b6040516101af919061188c565b610243610268366004611850565b610654565b6101df61027b366004611783565b6106e8565b61020061028e366004611783565b61071b565b6102a66102a1366004611783565b610745565b60405160009190910b81526020016101af565b6102cc6102c73660046118ed565b61078c565b6040516101af99989796959493929190611977565b6102006102ef366004611783565b610cc8565b6101df610302366004611783565b610cf2565b6102a6610315366004611783565b610d1c565b6103496103283660046119fc565b805160208183018101805160048252928201919093012091525461ffff1681565b60405161ffff90911681526020016101af565b61020061036a3660046119fc565b610d46565b61038261037d366004611a39565b610d6a565b604051600160a060020a0390911681526020016101af565b6101a36103a8366004611850565b610d89565b6102a66103bb366004611783565b610db2565b6101df600081565b6102436103d6366004611b0c565b610ddc565b6101df6103e9366004611837565b610fc0565b6101df6103fc366004611783565b610fd7565b61024361040f366004611850565b611001565b610200610422366004611783565b611026565b6101df6104353660046119fc565b8051602081830181018051600f8252928201919093012091525481565b6000600160e060020a031982167f5a05180f0000000000000000000000000000000000000000000000000000000014806104905750610490826112eb565b92915050565b8151602081840181018051600882529282019185019190912091905281600381106104c057600080fd5b0180549092506104d09150611bf8565b80601f01602080910402602001604051908101604052809291908181526020018280546104fc90611bf8565b80156105495780601f1061051e57610100808354040283529160200191610549565b820191906000526020600020905b81548152906001019060200180831161052c57829003601f168201915b505050505081565b60008281526020819052604090206001015461056c81611352565b610576838361135f565b505050565b60606002805480602002602001604051908101604052809291908181526020016000905b8282101561064b5783829060005260206000200180546105be90611bf8565b80601f01602080910402602001604051908101604052809291908181526020018280546105ea90611bf8565b80156106375780601f1061060c57610100808354040283529160200191610637565b820191906000526020600020905b81548152906001019060200180831161061a57829003601f168201915b50505050508152602001906001019061059f565b50505050905090565b600160a060020a03811633146106da5760405160e560020a62461bcd02815260206004820152602f60248201527f416363657373436f6e74726f6c3a2063616e206f6e6c792072656e6f756e636560448201527f20726f6c657320666f722073656c66000000000000000000000000000000000060648201526084015b60405180910390fd5b6106e48282611381565b5050565b8151602081840181018051600d825292820191850191909120919052816003811061071257600080fd5b01549150829050565b8151602081840181018051600982529282019185019190912091905281600381106104c057600080fd5b81516020818401810180516006825292820191850191909120919052816003811061076f57600080fd5b6020810490910154601f9091166101000a900460000b9150829050565b60606000806000606080606060008060006002805490508c6107ae9190611c36565b90506000600282815481106107c5576107c5611c5b565b9060005260206000200180546107da90611bf8565b80601f016020809104026020016040519081016040528092919081815260200182805461080690611bf8565b80156108535780601f1061082857610100808354040283529160200191610853565b820191906000526020600020905b81548152906001019060200180831161083657829003601f168201915b50505050509050600080600f8360405161086d9190611c74565b908152602001604051809103902054905060008e826003811061089257610892611c5b565b602002015190506000600d856040516108ab9190611c74565b908152604080519182900360200182206060830190915260038282826020028201915b8154815260200190600101908083116108ce57505050505090506000600160036108f89190611ca9565b90505b81816003811061090d5761090d611c5b565b602002015183106109205780945061093c565b8061092a5761093c565b8061093481611cc0565b9150506108fb565b508460058660405161094e9190611c74565b9081526020016040518091039020856003811061096d5761096d611c5b565b602091828204019190069054906101000a900460000b6006876040516109939190611c74565b908152602001604051809103902086600381106109b2576109b2611c5b565b602091828204019190069054906101000a900460000b6007886040516109d89190611c74565b908152602001604051809103902087600381106109f7576109f7611c5b565b602091828204019190069054906101000a900460000b600989604051610a1d9190611c74565b90815260200160405180910390208860038110610a3c57610a3c611c5b565b0160088a604051610a4d9190611c74565b90815260200160405180910390208960038110610a6c57610a6c611c5b565b01600a8b604051610a7d9190611c74565b90815260200160405180910390208a60038110610a9c57610a9c611c5b565b01600b8c604051610aad9190611c74565b90815260200160405180910390208b60038110610acc57610acc611c5b565b0154600c8d604051610ade9190611c74565b90815260200160405180910390208c60038110610afd57610afd611c5b565b0154848054610b0b90611bf8565b80601f0160208091040260200160405190810160405280929190818152602001828054610b3790611bf8565b8015610b845780601f10610b5957610100808354040283529160200191610b84565b820191906000526020600020905b815481529060010190602001808311610b6757829003601f168201915b50505050509450838054610b9790611bf8565b80601f0160208091040260200160405190810160405280929190818152602001828054610bc390611bf8565b8015610c105780601f10610be557610100808354040283529160200191610c10565b820191906000526020600020905b815481529060010190602001808311610bf357829003601f168201915b50505050509350828054610c2390611bf8565b80601f0160208091040260200160405190810160405280929190818152602001828054610c4f90611bf8565b8015610c9c5780601f10610c7157610100808354040283529160200191610c9c565b820191906000526020600020905b815481529060010190602001808311610c7f57829003601f168201915b505050505092509e509e509e509e509e509e509e509e509e505050505050509295985092959850929598565b8151602081840181018051600e82529282019185019190912091905281600381106104c057600080fd5b8151602081840181018051600b825292820191850191909120919052816003811061071257600080fd5b81516020818401810180516007825292820191850191909120919052816003811061076f57600080fd5b8051602081830181018051600382529282019190930120915280546104d090611bf8565b6000828152600160205260408120610d8290836113a3565b9392505050565b600091825260208281526040808420600160a060020a0393909316845291905290205460ff1690565b81516020818401810180516005825292820191850191909120919052816003811061076f57600080fd5b6000610de781611352565b82518451148015610df9575081518451145b610e485760405160e560020a62461bcd02815260206004820152601760248201527f6172726179207175616e74697479206d69736d6174636800000000000000000060448201526064016106d1565b60005b8451811015610fb9576000858281518110610e6857610e68611c5b565b60200260200101519050600481604051610e829190611c74565b9081526040519081900360200190205461ffff16158015610ec15750838281518110610eb057610eb0611c5b565b602002602001015161ffff16600014155b15610fa657600280546001810182556000919091528151610f09917f405787fa12a823e0f2b7631cc41b3ba8828b3321ca811111fa75cd3aa3bb5ace01906020840190611606565b50848281518110610f1c57610f1c611c5b565b6020026020010151600382604051610f349190611c74565b90815260200160405180910390209080519060200190610f55929190611606565b50838281518110610f6857610f68611c5b565b6020026020010151600482604051610f809190611c74565b908152604051908190036020019020805461ffff9290921661ffff199092169190911790555b5080610fb181611cd7565b915050610e4b565b5050505050565b6000818152600160205260408120610490906113af565b8151602081840181018051600c825292820191850191909120919052816003811061071257600080fd5b60008281526020819052604090206001015461101c81611352565b6105768383611381565b8151602081840181018051600a82529282019185019190912091905281600381106104c057600080fd5b61105a8282610d89565b6106e457600082815260208181526040808320600160a060020a03851684529091529020805460ff191660011790556110903390565b600160a060020a031681600160a060020a0316837f2f8788117e7eff1d82e926ec794901d17c78024a50270940304540a733656f0d60405160405180910390a45050565b6000610d8283600160a060020a0384166113b9565b606060006110f8836002611cf2565b611103906002611d11565b67ffffffffffffffff81111561111b5761111b6116c9565b6040519080825280601f01601f191660200182016040528015611145576020820181803683370190505b5090507f30000000000000000000000000000000000000000000000000000000000000008160008151811061117c5761117c611c5b565b6020010190600160f860020a031916908160001a9053507f7800000000000000000000000000000000000000000000000000000000000000816001815181106111c7576111c7611c5b565b6020010190600160f860020a031916908160001a90535060006111eb846002611cf2565b6111f6906001611d11565b90505b6001811115611299577f303132333435363738396162636465660000000000000000000000000000000085600f166010811061123757611237611c5b565b1a7f01000000000000000000000000000000000000000000000000000000000000000282828151811061126c5761126c611c5b565b6020010190600160f860020a031916908160001a90535060109094049361129281611cc0565b90506111f9565b508315610d825760405160e560020a62461bcd02815260206004820181905260248201527f537472696e67733a20686578206c656e67746820696e73756666696369656e7460448201526064016106d1565b6000600160e060020a031982167f7965db0b00000000000000000000000000000000000000000000000000000000148061049057507f01ffc9a700000000000000000000000000000000000000000000000000000000600160e060020a0319831614610490565b61135c8133611408565b50565b6113698282611050565b600082815260016020526040902061057690826110d4565b61138b828261146f565b600082815260016020526040902061057690826114d4565b6000610d8283836114e9565b6000610490825490565b600081815260018301602052604081205461140057508154600181810184556000848152602080822090930184905584548482528286019093526040902091909155610490565b506000610490565b6114128282610d89565b6106e45761142a81600160a060020a031660146110e9565b6114358360206110e9565b604051602001611446929190611d29565b60408051601f198184030181529082905260e560020a62461bcd0282526106d191600401611824565b6114798282610d89565b156106e457600082815260208181526040808320600160a060020a0385168085529252808320805460ff1916905551339285917ff6391f5c32d9c69d2a47ea670b442974b53935d1edc7fd64eb21e047a839171b9190a45050565b6000610d8283600160a060020a038416611513565b600082600001828154811061150057611500611c5b565b9060005260206000200154905092915050565b600081815260018301602052604081205480156115fc576000611537600183611ca9565b855490915060009061154b90600190611ca9565b90508181146115b057600086600001828154811061156b5761156b611c5b565b906000526020600020015490508087600001848154811061158e5761158e611c5b565b6000918252602080832090910192909255918252600188019052604090208390555b85548690806115c1576115c1611daa565b600190038181906000526020600020016000905590558560010160008681526020019081526020016000206000905560019350505050610490565b6000915050610490565b82805461161290611bf8565b90600052602060002090601f016020900481019282611634576000855561167a565b82601f1061164d57805160ff191683800117855561167a565b8280016001018555821561167a579182015b8281111561167a57825182559160200191906001019061165f565b5061168692915061168a565b5090565b5b80821115611686576000815560010161168b565b6000602082840312156116b157600080fd5b8135600160e060020a031981168114610d8257600080fd5b60e060020a634e487b7102600052604160045260246000fd5b604051601f8201601f1916810167ffffffffffffffff8111828210171561170b5761170b6116c9565b604052919050565b600082601f83011261172457600080fd5b813567ffffffffffffffff81111561173e5761173e6116c9565b611751601f8201601f19166020016116e2565b81815284602083860101111561176657600080fd5b816020850160208301376000918101602001919091529392505050565b6000806040838503121561179657600080fd5b823567ffffffffffffffff8111156117ad57600080fd5b6117b985828601611713565b95602094909401359450505050565b60005b838110156117e35781810151838201526020016117cb565b838111156117f2576000848401525b50505050565b600081518084526118108160208601602086016117c8565b601f01601f19169290920160200192915050565b602081526000610d8260208301846117f8565b60006020828403121561184957600080fd5b5035919050565b6000806040838503121561186357600080fd5b823591506020830135600160a060020a038116811461188157600080fd5b809150509250929050565b600060208083018184528085518083526040860191506040848202870101925083870160005b828110156118e057603f198886030184526118ce8583516117f8565b945092850192908501906001016118b2565b5092979650505050505050565b6000806080838503121561190057600080fd5b82359150602084603f85011261191557600080fd5b6040516060810181811067ffffffffffffffff82111715611938576119386116c9565b60405280608086018781111561194d57600080fd5b8387015b818110156119685780358352918401918401611951565b50505080925050509250929050565b600061012080835261198b8184018d6117f8565b90508a60000b60208401528960000b60408401528860000b606084015282810360808401526119ba81896117f8565b905082810360a08401526119ce81886117f8565b905082810360c08401526119e281876117f8565b60e084019590955250506101000152979650505050505050565b600060208284031215611a0e57600080fd5b813567ffffffffffffffff811115611a2557600080fd5b611a3184828501611713565b949350505050565b60008060408385031215611a4c57600080fd5b50508035926020909101359150565b600067ffffffffffffffff821115611a7557611a756116c9565b5060209081020190565b600082601f830112611a9057600080fd5b81356020611aa5611aa083611a5b565b6116e2565b82815291810284018101918181019086841115611ac157600080fd5b8286015b84811015611b0157803567ffffffffffffffff811115611ae55760008081fd5b611af38986838b0101611713565b845250918301918301611ac5565b509695505050505050565b600080600060608486031215611b2157600080fd5b833567ffffffffffffffff80821115611b3957600080fd5b611b4587838801611a7f565b9450602091508186013581811115611b5c57600080fd5b611b6888828901611a7f565b945050604086013581811115611b7d57600080fd5b86019050601f81018713611b9057600080fd5b8035611b9e611aa082611a5b565b81815290830282018301908381019089831115611bba57600080fd5b928401925b82841015611be957833561ffff81168114611bda5760008081fd5b82529284019290840190611bbf565b80955050505050509250925092565b600281046001821680611c0c57607f821691505b60208210811415611c305760e060020a634e487b7102600052602260045260246000fd5b50919050565b600082611c565760e060020a634e487b7102600052601260045260246000fd5b500690565b60e060020a634e487b7102600052603260045260246000fd5b60008251611c868184602087016117c8565b9190910192915050565b60e060020a634e487b7102600052601160045260246000fd5b600082821015611cbb57611cbb611c90565b500390565b600081611ccf57611ccf611c90565b506000190190565b6000600019821415611ceb57611ceb611c90565b5060010190565b6000816000190483118215151615611d0c57611d0c611c90565b500290565b60008219821115611d2457611d24611c90565b500190565b7f416363657373436f6e74726f6c3a206163636f756e7420000000000000000000815260008351611d618160178501602088016117c8565b7f206973206d697373696e6720726f6c65200000000000000000000000000000006017918401918201528351611d9e8160288401602088016117c8565b01602801949350505050565b60e060020a634e487b7102600052603160045260246000fdfea2646970667358221220dc1f4b057db29026648e26c1968357b90df1ff3d3ce4994135a88563834edff864736f6c634300080b0033412073686f727420626c61646520696e20677265617420636f6e646974696f6e2e506f77657266756c206761756e746c6574207468617420676976657320796f7520696e6372656469626c6520737472656e6774682061742074686520636f7374206f66206465787465726974792e4172746966616374202d2054686520656e67726176696e6773206f6e2074686973207461626c6574207365656d20746f20646f63756d656e7420746865204772656174204d6973666f7274756e652e2057686f20617574686f7265642074686973207461626c65743f20506572686170732074686520536369656e74697374732077696c6c2062652061626c6520746f20666967757265206974206f75742e4172746966616374202d20546869732067656d20686173206d61726b696e6773207468617420696e646963617465206974206d61792068617665206265656e207573656420666f7220736f6d6520706f77657266756c2072697475616c2e2054686520536369656e74697374732077696c6c206e65656420746f20737475647920697420616e6420736565207768617420706f776572206c6965732077697468696e2e536d616c6c2063616c69626572206669726561726d20746861742073686f6f7420626f6c7473206f66206c696768742e412073686f72742c207069747465642c20756e617373756d696e6720626c6164652e20536d616c6c2063616c69626572206669726561726d20696e20677265617420636f6e646974696f6e2e4120736d616c6c20626c616465206d616465206f662070757265206c696768742e4172746966616374202d205468697320626f6f6b20636f6e7461696e73207365766572616c20696e63616e746174696f6e7320696e2061206c616e677561676520796f752063616e6e6f7420756e6465727374616e642e2049662074686520536369656e74697374732063616e206465636970686572206974207765206d617920796574206c6561726e206974277320707572706f73652e",
  "immutableReferences": {},
  "source": "// SPDX-License-Identifier: GPL-3.0\npragma solidity >=0.7.0 <0.9.0;\n\nimport \"./CardDeck.sol\";\n\ncontract TreasureDeck is CardDeck {\n    constructor() CardDeck() {\n        string[] memory cards = new string[](10);\n        string[] memory descriptions = new string[](10);\n        uint16[] memory quantities = new uint16[](10);\n\n        cards[0] = \"Rusty Dagger\";\n        descriptions[0] = \"A short, pitted, unassuming blade. \";\n        quantities[0] = 1;\n        itemGain[cards[0]][2] = cards[0];\n\n        cards[1] = \"Rusty Pistol\";\n        descriptions[1] = \"Small caliber, rusted firearm.\";\n        quantities[1] = 1;\n        itemGain[cards[1]][2] = cards[1];\n\n        cards[2] = \"Shiny Dagger\";\n        descriptions[2] = \"A short blade in great condition.\";\n        quantities[2] = 1;\n        itemGain[cards[2]][2] = cards[2];\n\n        cards[3] = \"Shiny Pistol\";\n        descriptions[3] = \"Small caliber firearm in great condition.\";\n        quantities[3] = 1;\n        itemGain[cards[3]][2] = cards[3];\n\n        cards[4] = \"Laser Dagger\";\n        descriptions[4] = \"A small blade made of pure light.\";\n        quantities[4] = 1;\n        itemGain[cards[4]][2] = cards[4];\n\n        cards[5] = \"Laser Pistol\";\n        descriptions[5] = \"Small caliber firearm that shoot bolts of light.\";\n        quantities[5] = 1;\n        itemGain[cards[5]][2] = cards[5];\n\n        cards[6] = \"Power Glove\";\n        descriptions[\n            6\n        ] = \"Powerful gauntlet that gives you incredible strength at the cost of dexterity.\";\n        quantities[6] = 1;\n        itemGain[cards[6]][2] = cards[6];\n\n        cards[7] = \"Engraved Tablet\";\n        descriptions[\n            7\n        ] = \"Artifact - The engravings on this tablet seem to document the Great Misfortune. Who authored this tablet? Perhaps the Scientists will be able to figure it out.\";\n        quantities[7] = 1;\n        itemGain[cards[7]][2] = cards[7];\n        outcomeDescription[cards[7]][2] = \"Artifact\";\n\n        cards[8] = \"Sigil Gem\";\n        descriptions[\n            8\n        ] = \"Artifact - This gem has markings that indicate it may have been used for some powerful ritual. The Scientists will need to study it and see what power lies within.\";\n        quantities[8] = 1;\n        itemGain[cards[8]][2] = cards[8];\n        outcomeDescription[cards[7]][2] = \"Artifact\";\n\n        cards[9] = \"Ancient Tome\";\n        descriptions[\n            9\n        ] = \"Artifact - This book contains several incantations in a language you cannot understand. If the Scientists can decipher it we may yet learn it's purpose.\";\n        quantities[9] = 1;\n        itemGain[cards[9]][2] = cards[9];\n        outcomeDescription[cards[9]][2] = \"Artifact\";\n\n        // cards[1] = \"Rusty Sword\";\n        // descriptions[1] = \"A long, pitted, battered blade.\";\n        // quantities[1] = 1;\n\n        // cards[3] = \"Rusty Rifle\";\n        // descriptions[3] = \"Large caliber, rusted firearm.\";\n        // quantities[3] = 1;\n\n        // cards[5] = \"Shiny Sword\";\n        // descriptions[5] = \"A long blade in great condition.\";\n        // quantities[5] = 1;\n\n        // cards[7] = \"Shiny Rifle\";\n        // descriptions[7] = \"Large caliber firearm in great condition.\";\n        // quantities[7] = 1;\n\n        // cards[9] = \"Laser Sword\";\n        // descriptions[9] = \"A long blade made of pure light.\";\n        // quantities[9] = 1;\n\n        // cards[11] = \"Laser Rifle\";\n        // descriptions[11] = \"Large caliber firearm that shoot bolts of light.\";\n        // quantities[11] = 1;\n\n        // cards[12] = \"Glow stick\";\n        // descriptions[12] = \"A small tube of florescent liquid.\";\n        // quantities[12] = 1;\n\n        // cards[13] = \"Flashlight\";\n        // descriptions[13] = \"A small light source.\";\n        // quantities[13] = 1;\n\n        // cards[14] = \"Flood light\";\n        // descriptions[14] = \"A large light source.\";\n        // quantities[14] = 1;\n\n        // cards[15] = \"Nightvision Goggles\";\n        // descriptions[15] = \"The ability to see at night.\";\n        // quantities[15] = 1;\n\n        // cards[16] = \"Personal Shield\";\n        // descriptions[\n        //     16\n        // ] = \"A small short range sheild that would only protect your body.\";\n        // quantities[16] = 1;\n\n        // cards[17] = \"Bubble Shield\";\n        // descriptions[17] = \"A large force field that can protect a large area.\";\n        // quantities[17] = 1;\n\n        // cards[18] = \"Frag Grenade\";\n        // descriptions[18] = \"Small explosive grenade.\";\n        // quantities[18] = 1;\n\n        // cards[19] = \"Fire Grenade\";\n        // descriptions[19] = \"Small incendiary grenade.\";\n        // quantities[19] = 1;\n\n        // cards[20] = \"Shock Grenade\";\n        // descriptions[20] = \"Small emp grenade.\";\n        // quantities[20] = 1;\n\n        // cards[21] = \"HE Mortar\";\n        // descriptions[21] = \"Portable HE launcher.\";\n        // quantities[21] = 1;\n\n        // cards[22] = \"Incendiary Mortar\";\n        // descriptions[22] = \"Portable Incendiary launcher.\";\n        // quantities[22] = 1;\n\n        // cards[23] = \"EMP Mortar\";\n        // descriptions[23] = \"Portable EMP launcher.\";\n        // quantities[23] = 1;\n\n        // cards[25] = \"Remote Launch and Guidance System\";\n        // descriptions[\n        //     25\n        // ] = \"Grants the ability to safely launch the Ship off world without any players onboard.\";\n        // quantities[25] = 1;\n\n        // cards[26] = \"Teleporter Pack\";\n        // descriptions[\n        //     26\n        // ] = \"Grants the ability to teleport all players on a tile to any other tile.\";\n        // quantities[26] = 1;\n\n        addCards(cards, descriptions, quantities);\n    }\n}\n",
  "sourcePath": "/Users/maxmeier/Developer/Lucky Machines/hexploration/contracts/decks/TreasureDeck.sol",
  "compiler": {
    "name": "solc",
    "version": "0.8.11+commit.d7f03943.Emscripten.clang"
  },
  "schemaVersion": "3.4.4",
  "updatedAt": "2022-05-25T19:10:58.131Z",
  "networkType": "ethereum",
  "devdoc": {
    "kind": "dev",
    "methods": {
      "getRoleAdmin(bytes32)": {
        "details": "Returns the admin role that controls `role`. See {grantRole} and {revokeRole}. To change a role's admin, use {_setRoleAdmin}."
      },
      "getRoleMember(bytes32,uint256)": {
        "details": "Returns one of the accounts that have `role`. `index` must be a value between 0 and {getRoleMemberCount}, non-inclusive. Role bearers are not sorted in any particular way, and their ordering may change at any point. WARNING: When using {getRoleMember} and {getRoleMemberCount}, make sure you perform all queries on the same block. See the following https://forum.openzeppelin.com/t/iterating-over-elements-on-enumerableset-in-openzeppelin-contracts/2296[forum post] for more information."
      },
      "getRoleMemberCount(bytes32)": {
        "details": "Returns the number of accounts that have `role`. Can be used together with {getRoleMember} to enumerate all bearers of a role."
      },
      "grantRole(bytes32,address)": {
        "details": "Grants `role` to `account`. If `account` had not been already granted `role`, emits a {RoleGranted} event. Requirements: - the caller must have ``role``'s admin role."
      },
      "hasRole(bytes32,address)": {
        "details": "Returns `true` if `account` has been granted `role`."
      },
      "renounceRole(bytes32,address)": {
        "details": "Revokes `role` from the calling account. Roles are often managed via {grantRole} and {revokeRole}: this function's purpose is to provide a mechanism for accounts to lose their privileges if they are compromised (such as when a trusted device is misplaced). If the calling account had been revoked `role`, emits a {RoleRevoked} event. Requirements: - the caller must be `account`."
      },
      "revokeRole(bytes32,address)": {
        "details": "Revokes `role` from `account`. If `account` had been granted `role`, emits a {RoleRevoked} event. Requirements: - the caller must have ``role``'s admin role."
      },
      "supportsInterface(bytes4)": {
        "details": "See {IERC165-supportsInterface}."
      }
    },
    "version": 1
  },
  "userdoc": {
    "kind": "user",
    "methods": {},
    "version": 1
  }
}