{
  "contractName": "TreasureDeck",
  "abi": [
    {
      "inputs": [],
      "stateMutability": "nonpayable",
      "type": "constructor"
    },
    {
      "anonymous": false,
      "inputs": [
        {
          "indexed": true,
          "internalType": "bytes32",
          "name": "role",
          "type": "bytes32"
        },
        {
          "indexed": true,
          "internalType": "bytes32",
          "name": "previousAdminRole",
          "type": "bytes32"
        },
        {
          "indexed": true,
          "internalType": "bytes32",
          "name": "newAdminRole",
          "type": "bytes32"
        }
      ],
      "name": "RoleAdminChanged",
      "type": "event"
    },
    {
      "anonymous": false,
      "inputs": [
        {
          "indexed": true,
          "internalType": "bytes32",
          "name": "role",
          "type": "bytes32"
        },
        {
          "indexed": true,
          "internalType": "address",
          "name": "account",
          "type": "address"
        },
        {
          "indexed": true,
          "internalType": "address",
          "name": "sender",
          "type": "address"
        }
      ],
      "name": "RoleGranted",
      "type": "event"
    },
    {
      "anonymous": false,
      "inputs": [
        {
          "indexed": true,
          "internalType": "bytes32",
          "name": "role",
          "type": "bytes32"
        },
        {
          "indexed": true,
          "internalType": "address",
          "name": "account",
          "type": "address"
        },
        {
          "indexed": true,
          "internalType": "address",
          "name": "sender",
          "type": "address"
        }
      ],
      "name": "RoleRevoked",
      "type": "event"
    },
    {
      "inputs": [],
      "name": "CONTROLLER_ROLE",
      "outputs": [
        {
          "internalType": "bytes32",
          "name": "",
          "type": "bytes32"
        }
      ],
      "stateMutability": "view",
      "type": "function",
      "constant": true
    },
    {
      "inputs": [],
      "name": "DEFAULT_ADMIN_ROLE",
      "outputs": [
        {
          "internalType": "bytes32",
          "name": "",
          "type": "bytes32"
        }
      ],
      "stateMutability": "view",
      "type": "function",
      "constant": true
    },
    {
      "inputs": [
        {
          "internalType": "string[]",
          "name": "titles",
          "type": "string[]"
        },
        {
          "internalType": "string[]",
          "name": "descriptions",
          "type": "string[]"
        },
        {
          "internalType": "uint16[]",
          "name": "quantities",
          "type": "uint16[]"
        }
      ],
      "name": "addCards",
      "outputs": [],
      "stateMutability": "nonpayable",
      "type": "function"
    },
    {
      "inputs": [
        {
          "internalType": "string",
          "name": "",
          "type": "string"
        }
      ],
      "name": "description",
      "outputs": [
        {
          "internalType": "string",
          "name": "",
          "type": "string"
        }
      ],
      "stateMutability": "view",
      "type": "function",
      "constant": true
    },
    {
      "inputs": [
        {
          "internalType": "uint256",
          "name": "randomWord",
          "type": "uint256"
        }
      ],
      "name": "drawCard",
      "outputs": [
        {
          "internalType": "string",
          "name": "",
          "type": "string"
        }
      ],
      "stateMutability": "view",
      "type": "function",
      "constant": true
    },
    {
      "inputs": [],
      "name": "getDeck",
      "outputs": [
        {
          "internalType": "string[]",
          "name": "",
          "type": "string[]"
        }
      ],
      "stateMutability": "view",
      "type": "function",
      "constant": true
    },
    {
      "inputs": [
        {
          "internalType": "bytes32",
          "name": "role",
          "type": "bytes32"
        }
      ],
      "name": "getRoleAdmin",
      "outputs": [
        {
          "internalType": "bytes32",
          "name": "",
          "type": "bytes32"
        }
      ],
      "stateMutability": "view",
      "type": "function",
      "constant": true
    },
    {
      "inputs": [
        {
          "internalType": "bytes32",
          "name": "role",
          "type": "bytes32"
        },
        {
          "internalType": "uint256",
          "name": "index",
          "type": "uint256"
        }
      ],
      "name": "getRoleMember",
      "outputs": [
        {
          "internalType": "address",
          "name": "",
          "type": "address"
        }
      ],
      "stateMutability": "view",
      "type": "function",
      "constant": true
    },
    {
      "inputs": [
        {
          "internalType": "bytes32",
          "name": "role",
          "type": "bytes32"
        }
      ],
      "name": "getRoleMemberCount",
      "outputs": [
        {
          "internalType": "uint256",
          "name": "",
          "type": "uint256"
        }
      ],
      "stateMutability": "view",
      "type": "function",
      "constant": true
    },
    {
      "inputs": [
        {
          "internalType": "bytes32",
          "name": "role",
          "type": "bytes32"
        },
        {
          "internalType": "address",
          "name": "account",
          "type": "address"
        }
      ],
      "name": "grantRole",
      "outputs": [],
      "stateMutability": "nonpayable",
      "type": "function"
    },
    {
      "inputs": [
        {
          "internalType": "bytes32",
          "name": "role",
          "type": "bytes32"
        },
        {
          "internalType": "address",
          "name": "account",
          "type": "address"
        }
      ],
      "name": "hasRole",
      "outputs": [
        {
          "internalType": "bool",
          "name": "",
          "type": "bool"
        }
      ],
      "stateMutability": "view",
      "type": "function",
      "constant": true
    },
    {
      "inputs": [
        {
          "internalType": "string",
          "name": "",
          "type": "string"
        }
      ],
      "name": "quantity",
      "outputs": [
        {
          "internalType": "uint16",
          "name": "",
          "type": "uint16"
        }
      ],
      "stateMutability": "view",
      "type": "function",
      "constant": true
    },
    {
      "inputs": [
        {
          "internalType": "bytes32",
          "name": "role",
          "type": "bytes32"
        },
        {
          "internalType": "address",
          "name": "account",
          "type": "address"
        }
      ],
      "name": "renounceRole",
      "outputs": [],
      "stateMutability": "nonpayable",
      "type": "function"
    },
    {
      "inputs": [
        {
          "internalType": "bytes32",
          "name": "role",
          "type": "bytes32"
        },
        {
          "internalType": "address",
          "name": "account",
          "type": "address"
        }
      ],
      "name": "revokeRole",
      "outputs": [],
      "stateMutability": "nonpayable",
      "type": "function"
    },
    {
      "inputs": [
        {
          "internalType": "bytes4",
          "name": "interfaceId",
          "type": "bytes4"
        }
      ],
      "name": "supportsInterface",
      "outputs": [
        {
          "internalType": "bool",
          "name": "",
          "type": "bool"
        }
      ],
      "stateMutability": "view",
      "type": "function",
      "constant": true
    }
  ],
  "bytecode": "0x60806040523480156200001157600080fd5b506200003a60006200002b640100000000620018cb810204565b640100000000620018cf810204565b60408051601e8082526103e08201909252600091816020015b60608152602001906001900390816200005357505060408051601e8082526103e0820190925291925060009190602082015b60608152602001906001900390816200008557505060408051601e8082526103e0820190925291925060009190602082016103c0803683370190505090506040518060400160405280600c81526020017f5275737479204461676765720000000000000000000000000000000000000000815250836000815181106200010f576200010f6200209a565b602002602001018190525060405180606001604052806023815260200162003a4160239139826000815181106200014a576200014a6200209a565b60200260200101819052506001816000815181106200016d576200016d6200209a565b602002602001019061ffff16908161ffff16815250506040518060400160405280600b81526020017f52757374792053776f726400000000000000000000000000000000000000000081525083600181518110620001cf57620001cf6200209a565b60200260200101819052506040518060400160405280601f81526020017f41206c6f6e672c207069747465642c20626174746572656420626c6164652e00815250826001815181106200022657620002266200209a565b60200260200101819052506001816001815181106200024957620002496200209a565b602002602001019061ffff16908161ffff16815250506040518060400160405280600c81526020017f527573747920506973746f6c000000000000000000000000000000000000000081525083600281518110620002ab57620002ab6200209a565b60200260200101819052506040518060400160405280601e81526020017f536d616c6c2063616c696265722c20727573746564206669726561726d2e0000815250826002815181106200030257620003026200209a565b60200260200101819052506001816002815181106200032557620003256200209a565b602002602001019061ffff16908161ffff16815250506040518060400160405280600b81526020017f5275737479205269666c65000000000000000000000000000000000000000000815250836003815181106200038757620003876200209a565b60200260200101819052506040518060400160405280601e81526020017f4c617267652063616c696265722c20727573746564206669726561726d2e000081525082600381518110620003de57620003de6200209a565b60200260200101819052506001816003815181106200040157620004016200209a565b602002602001019061ffff16908161ffff16815250506040518060400160405280600c81526020017f5368696e79204461676765720000000000000000000000000000000000000000815250836004815181106200046357620004636200209a565b6020026020010181905250604051806060016040528060218152602001620037d960219139826004815181106200049e576200049e6200209a565b6020026020010181905250600181600481518110620004c157620004c16200209a565b602002602001019061ffff16908161ffff16815250506040518060400160405280600b81526020017f5368696e792053776f7264000000000000000000000000000000000000000000815250836005815181106200052357620005236200209a565b60200260200101819052506040518060400160405280602081526020017f41206c6f6e6720626c61646520696e20677265617420636f6e646974696f6e2e815250826005815181106200057a576200057a6200209a565b60200260200101819052506001816005815181106200059d576200059d6200209a565b602002602001019061ffff16908161ffff16815250506040518060400160405280600c81526020017f5368696e7920506973746f6c000000000000000000000000000000000000000081525083600681518110620005ff57620005ff6200209a565b602002602001018190525060405180606001604052806029815260200162003a9660299139826006815181106200063a576200063a6200209a565b60200260200101819052506001816006815181106200065d576200065d6200209a565b602002602001019061ffff16908161ffff16815250506040518060400160405280600b81526020017f5368696e79205269666c6500000000000000000000000000000000000000000081525083600781518110620006bf57620006bf6200209a565b6020026020010181905250604051806060016040528060298152602001620039c76029913982600781518110620006fa57620006fa6200209a565b60200260200101819052506001816007815181106200071d576200071d6200209a565b602002602001019061ffff16908161ffff16815250506040518060400160405280600c81526020017f4c61736572204461676765720000000000000000000000000000000000000000815250836008815181106200077f576200077f6200209a565b602002602001018190525060405180606001604052806021815260200162003abf6021913982600881518110620007ba57620007ba6200209a565b6020026020010181905250600181600881518110620007dd57620007dd6200209a565b602002602001019061ffff16908161ffff16815250506040518060400160405280600b81526020017f4c617365722053776f7264000000000000000000000000000000000000000000815250836009815181106200083f576200083f6200209a565b60200260200101819052506040518060400160405280602081526020017f41206c6f6e6720626c616465206d616465206f662070757265206c696768742e815250826009815181106200089657620008966200209a565b6020026020010181905250600181600981518110620008b957620008b96200209a565b602002602001019061ffff16908161ffff16815250506040518060400160405280600c81526020017f4c6173657220506973746f6c000000000000000000000000000000000000000081525083600a815181106200091b576200091b6200209a565b602002602001018190525060405180606001604052806030815260200162003a116030913982600a815181106200095657620009566200209a565b6020026020010181905250600181600a815181106200097957620009796200209a565b602002602001019061ffff16908161ffff16815250506040518060400160405280600b81526020017f4c61736572205269666c6500000000000000000000000000000000000000000081525083600b81518110620009db57620009db6200209a565b602002602001018190525060405180606001604052806030815260200162003be16030913982600b8151811062000a165762000a166200209a565b6020026020010181905250600181600b8151811062000a395762000a396200209a565b602002602001019061ffff16908161ffff16815250506040518060400160405280600a81526020017f476c6f7720737469636b0000000000000000000000000000000000000000000081525083600c8151811062000a9b5762000a9b6200209a565b602002602001018190525060405180606001604052806022815260200162003ae06022913982600c8151811062000ad65762000ad66200209a565b6020026020010181905250600181600c8151811062000af95762000af96200209a565b602002602001019061ffff16908161ffff16815250506040518060400160405280600a81526020017f466c6173686c696768740000000000000000000000000000000000000000000081525083600d8151811062000b5b5762000b5b6200209a565b60200260200101819052506040518060400160405280601581526020017f4120736d616c6c206c6967687420736f757263652e000000000000000000000081525082600d8151811062000bb25762000bb26200209a565b6020026020010181905250600181600d8151811062000bd55762000bd56200209a565b602002602001019061ffff16908161ffff16815250506040518060400160405280600b81526020017f466c6f6f64206c6967687400000000000000000000000000000000000000000081525083600e8151811062000c375762000c376200209a565b60200260200101819052506040518060400160405280601581526020017f41206c61726765206c6967687420736f757263652e000000000000000000000081525082600e8151811062000c8e5762000c8e6200209a565b6020026020010181905250600181600e8151811062000cb15762000cb16200209a565b602002602001019061ffff16908161ffff16815250506040518060400160405280601381526020017f4e69676874766973696f6e20476f67676c65730000000000000000000000000081525083600f8151811062000d135762000d136200209a565b60200260200101819052506040518060400160405280601c81526020017f546865206162696c69747920746f20736565206174206e696768742e0000000081525082600f8151811062000d6a5762000d6a6200209a565b6020026020010181905250600181600f8151811062000d8d5762000d8d6200209a565b602002602001019061ffff16908161ffff16815250506040518060400160405280600f81526020017f506572736f6e616c20536869656c6400000000000000000000000000000000008152508360108151811062000def5762000def6200209a565b60200260200101819052506040518060600160405280603d8152602001620037fa603d91398260108151811062000e2a5762000e2a6200209a565b602002602001018190525060018160108151811062000e4d5762000e4d6200209a565b602002602001019061ffff16908161ffff16815250506040518060400160405280600d81526020017f427562626c6520536869656c64000000000000000000000000000000000000008152508360118151811062000eaf5762000eaf6200209a565b602002602001018190525060405180606001604052806032815260200162003a64603291398260118151811062000eea5762000eea6200209a565b602002602001018190525060018160118151811062000f0d5762000f0d6200209a565b602002602001019061ffff16908161ffff16815250506040518060400160405280600c81526020017f46726167204772656e61646500000000000000000000000000000000000000008152508360128151811062000f6f5762000f6f6200209a565b60200260200101819052506040518060400160405280601881526020017f536d616c6c206578706c6f73697665206772656e6164652e00000000000000008152508260128151811062000fc65762000fc66200209a565b602002602001018190525060018160128151811062000fe95762000fe96200209a565b602002602001019061ffff16908161ffff16815250506040518060400160405280600c81526020017f46697265204772656e6164650000000000000000000000000000000000000000815250836013815181106200104b576200104b6200209a565b60200260200101819052506040518060400160405280601981526020017f536d616c6c20696e63656e6469617279206772656e6164652e0000000000000081525082601381518110620010a257620010a26200209a565b6020026020010181905250600181601381518110620010c557620010c56200209a565b602002602001019061ffff16908161ffff16815250506040518060400160405280600d81526020017f53686f636b204772656e61646500000000000000000000000000000000000000815250836014815181106200112757620011276200209a565b60200260200101819052506040518060400160405280601281526020017f536d616c6c20656d70206772656e6164652e0000000000000000000000000000815250826014815181106200117e576200117e6200209a565b6020026020010181905250600181601481518110620011a157620011a16200209a565b602002602001019061ffff16908161ffff16815250506040518060400160405280600981526020017f4845204d6f727461720000000000000000000000000000000000000000000000815250836015815181106200120357620012036200209a565b60200260200101819052506040518060400160405280601581526020017f506f727461626c65204845206c61756e636865722e0000000000000000000000815250826015815181106200125a576200125a6200209a565b60200260200101819052506001816015815181106200127d576200127d6200209a565b602002602001019061ffff16908161ffff16815250506040518060400160405280601181526020017f496e63656e6469617279204d6f7274617200000000000000000000000000000081525083601681518110620012df57620012df6200209a565b60200260200101819052506040518060400160405280601d81526020017f506f727461626c6520496e63656e6469617279206c61756e636865722e000000815250826016815181106200133657620013366200209a565b60200260200101819052506001816016815181106200135957620013596200209a565b602002602001019061ffff16908161ffff16815250506040518060400160405280600a81526020017f454d50204d6f727461720000000000000000000000000000000000000000000081525083601781518110620013bb57620013bb6200209a565b60200260200101819052506040518060400160405280601681526020017f506f727461626c6520454d50206c61756e636865722e00000000000000000000815250826017815181106200141257620014126200209a565b60200260200101819052506001816017815181106200143557620014356200209a565b602002602001019061ffff16908161ffff16815250506040518060400160405280600b81526020017f506f77657220476c6f7665000000000000000000000000000000000000000000815250836018815181106200149757620014976200209a565b60200260200101819052506040518060800160405280604e815260200162003837604e913982601881518110620014d257620014d26200209a565b6020026020010181905250600181601881518110620014f557620014f56200209a565b602002602001019061ffff16908161ffff1681525050604051806060016040528060218152602001620039f060219139836019815181106200153b576200153b6200209a565b60200260200101819052506040518060800160405280605381526020016200378660539139826019815181106200157657620015766200209a565b60200260200101819052506001816019815181106200159957620015996200209a565b602002602001019061ffff16908161ffff16815250506040518060400160405280600f81526020017f54656c65706f72746572205061636b000000000000000000000000000000000081525083601a81518110620015fb57620015fb6200209a565b602002602001018190525060405180608001604052806047815260200162003b9a6047913982601a815181106200163657620016366200209a565b6020026020010181905250600181601a815181106200165957620016596200209a565b602002602001019061ffff16908161ffff16815250506040518060400160405280600f81526020017f456e677261766564205461626c6574000000000000000000000000000000000081525083601b81518110620016bb57620016bb6200209a565b60200260200101819052506040518060c00160405280609f815260200162003885609f913982601b81518110620016f657620016f66200209a565b6020026020010181905250600181601b815181106200171957620017196200209a565b602002602001019061ffff16908161ffff16815250506040518060400160405280600981526020017f536967696c2047656d000000000000000000000000000000000000000000000081525083601c815181106200177b576200177b6200209a565b60200260200101819052506040518060e0016040528060a381526020016200392460a3913982601c81518110620017b657620017b66200209a565b6020026020010181905250600181601c81518110620017d957620017d96200209a565b602002602001019061ffff16908161ffff16815250506040518060400160405280600c81526020017f416e6369656e7420546f6d65000000000000000000000000000000000000000081525083601d815181106200183b576200183b6200209a565b60200260200101819052506040518060c001604052806098815260200162003b026098913982601d815181106200187657620018766200209a565b6020026020010181905250600181601d815181106200189957620018996200209a565b61ffff90921660209283029190910190910152620018c2838383640100000000620018e8810204565b505050620022ce565b3390565b620018e4828264010000000062001b11810204565b5050565b6000620018fe8164010000000062001b58810204565b8251845114801562001911575081518451145b6200197d576040517f08c379a000000000000000000000000000000000000000000000000000000000815260206004820152601760248201527f6172726179207175616e74697479206d69736d6174636800000000000000000060448201526064015b60405180910390fd5b60005b845181101562001b0a576000858281518110620019a157620019a16200209a565b60200260200101519050600481604051620019bd9190620020fc565b9081526040519081900360200190205461ffff1615801562001a005750838281518110620019ef57620019ef6200209a565b602002602001015161ffff16600014155b1562001af45760028054600181018255600091909152815162001a4b917f405787fa12a823e0f2b7631cc41b3ba8828b3321ca811111fa75cd3aa3bb5ace0190602084019062001fc5565b5084828151811062001a615762001a616200209a565b602002602001015160038260405162001a7b9190620020fc565b9081526020016040518091039020908051906020019062001a9e92919062001fc5565b5083828151811062001ab45762001ab46200209a565b602002602001015160048260405162001ace9190620020fc565b908152604051908190036020019020805461ffff9290921661ffff199092169190911790555b508062001b018162002149565b91505062001980565b5050505050565b62001b2b82826401000000006200085362001b8282021704565b600082815260016020526040902062001b539082640100000000620008d762001c1e82021704565b505050565b62001b7f8162001b70640100000000620018cb810204565b64010000000062001c47810204565b50565b62001b97828264010000000062001cf5810204565b620018e457600082815260208181526040808320600160a060020a03851684529091529020805460ff1916600117905562001bda640100000000620018cb810204565b600160a060020a031681600160a060020a0316837f2f8788117e7eff1d82e926ec794901d17c78024a50270940304540a733656f0d60405160405180910390a45050565b600062001c3e83600160a060020a03841664010000000062001d1e810204565b90505b92915050565b62001c5c828264010000000062001cf5810204565b620018e45762001c85600160a060020a0382166014640100000000620008ec62001d7682021704565b62001ca0836020640100000000620008ec62001d7682021704565b60405160200162001cb392919062002167565b60408051601f19818403018152908290527f08c379a00000000000000000000000000000000000000000000000000000000082526200197491600401620021ec565b600091825260208281526040808420600160a060020a0393909316845291905290205460ff1690565b600062001d35838364010000000062001fad810204565b62001d6d5750815460018181018455600084815260208082209093018490558454848252828601909352604090209190915562001c41565b50600062001c41565b6060600062001d8783600262002221565b62001d9490600262002243565b67ffffffffffffffff81111562001daf5762001daf6200206b565b6040519080825280601f01601f19166020018201604052801562001dda576020820181803683370190505b5090507f30000000000000000000000000000000000000000000000000000000000000008160008151811062001e145762001e146200209a565b6020010190600160f860020a031916908160001a9053507f78000000000000000000000000000000000000000000000000000000000000008160018151811062001e625762001e626200209a565b6020010190600160f860020a031916908160001a905350600062001e8884600262002221565b62001e9590600162002243565b90505b600181111562001f42577f303132333435363738396162636465660000000000000000000000000000000085600f166010811062001eda5762001eda6200209a565b1a7f01000000000000000000000000000000000000000000000000000000000000000282828151811062001f125762001f126200209a565b6020010190600160f860020a031916908160001a90535060109094049362001f3a816200225e565b905062001e98565b50831562001c3e576040517f08c379a000000000000000000000000000000000000000000000000000000000815260206004820181905260248201527f537472696e67733a20686578206c656e67746820696e73756666696369656e74604482015260640162001974565b60009081526001919091016020526040902054151590565b82805462001fd39062002278565b90600052602060002090601f01602090048101928262001ff7576000855562002042565b82601f106200201257805160ff191683800117855562002042565b8280016001018555821562002042579182015b828111156200204257825182559160200191906001019062002025565b506200205092915062002054565b5090565b5b8082111562002050576000815560010162002055565b7f4e487b7100000000000000000000000000000000000000000000000000000000600052604160045260246000fd5b7f4e487b7100000000000000000000000000000000000000000000000000000000600052603260045260246000fd5b60005b83811015620020e6578181015183820152602001620020cc565b83811115620020f6576000848401525b50505050565b6000825162002110818460208701620020c9565b9190910192915050565b7f4e487b7100000000000000000000000000000000000000000000000000000000600052601160045260246000fd5b60006000198214156200216057620021606200211a565b5060010190565b7f416363657373436f6e74726f6c3a206163636f756e7420000000000000000000815260008351620021a1816017850160208801620020c9565b7f206973206d697373696e6720726f6c65200000000000000000000000000000006017918401918201528351620021e0816028840160208801620020c9565b01602801949350505050565b60208152600082518060208401526200220d816040850160208701620020c9565b601f01601f19169190910160400192915050565b60008160001904831182151516156200223e576200223e6200211a565b500290565b600082198211156200225957620022596200211a565b500190565b6000816200227057620022706200211a565b506000190190565b6002810460018216806200228d57607f821691505b60208210811415620022c8577f4e487b7100000000000000000000000000000000000000000000000000000000600052602260045260246000fd5b50919050565b6114a880620022de6000396000f3fe608060405234801561001057600080fd5b50600436106100f2576000357c01000000000000000000000000000000000000000000000000000000009004806388255199116100a457806388255199146101f65780639010d07c1461021657806391d1485414610241578063a217fddf14610254578063a855d6f91461025c578063b6aa4ed61461026f578063ca15c87314610282578063d547741f1461029557600080fd5b806301ffc9a7146100f7578063092c5b3b1461011f578063248a9ca3146101545780632f2ff15d14610177578063339434741461018c57806336568abe146101a157806381ecfce8146101b4575b600080fd5b61010a610105366004610ea2565b6102a8565b60405190151581526020015b60405180910390f35b6101467f7b765e0e932d348852a6f810bfa1ab891e259123f02db8cdcde614c57022335781565b604051908152602001610116565b610146610162366004610ecc565b60009081526020819052604090206001015490565b61018a610185366004610ee5565b6102ec565b005b610194610316565b6040516101169190610f7d565b61018a6101af366004610ee5565b6103ef565b6101e36101c2366004611098565b805160208183018101805160048252928201919093012091525461ffff1681565b60405161ffff9091168152602001610116565b610209610204366004611098565b610483565b60405161011691906110d5565b6102296102243660046110e8565b610528565b604051600160a060020a039091168152602001610116565b61010a61024f366004610ee5565b610547565b610146600081565b61018a61026a3660046111bb565b610570565b61020961027d366004610ecc565b610754565b610146610290366004610ecc565b610817565b61018a6102a3366004610ee5565b61082e565b6000600160e060020a031982167f5a05180f0000000000000000000000000000000000000000000000000000000014806102e657506102e682610aee565b92915050565b60008281526020819052604090206001015461030781610b55565b6103118383610b62565b505050565b60606002805480602002602001604051908101604052809291908181526020016000905b828210156103e6578382906000526020600020018054610359906112a7565b80601f0160208091040260200160405190810160405280929190818152602001828054610385906112a7565b80156103d25780601f106103a7576101008083540402835291602001916103d2565b820191906000526020600020905b8154815290600101906020018083116103b557829003601f168201915b50505050508152602001906001019061033a565b50505050905090565b600160a060020a03811633146104755760405160e560020a62461bcd02815260206004820152602f60248201527f416363657373436f6e74726f6c3a2063616e206f6e6c792072656e6f756e636560448201527f20726f6c657320666f722073656c66000000000000000000000000000000000060648201526084015b60405180910390fd5b61047f8282610b84565b5050565b8051602081830181018051600382529282019190930120915280546104a7906112a7565b80601f01602080910402602001604051908101604052809291908181526020018280546104d3906112a7565b80156105205780601f106104f557610100808354040283529160200191610520565b820191906000526020600020905b81548152906001019060200180831161050357829003601f168201915b505050505081565b60008281526001602052604081206105409083610ba6565b9392505050565b600091825260208281526040808420600160a060020a0393909316845291905290205460ff1690565b600061057b81610b55565b8251845114801561058d575081518451145b6105dc5760405160e560020a62461bcd02815260206004820152601760248201527f6172726179207175616e74697479206d69736d61746368000000000000000000604482015260640161046c565b60005b845181101561074d5760008582815181106105fc576105fc6112e5565b6020026020010151905060048160405161061691906112fe565b9081526040519081900360200190205461ffff161580156106555750838281518110610644576106446112e5565b602002602001015161ffff16600014155b1561073a5760028054600181018255600091909152815161069d917f405787fa12a823e0f2b7631cc41b3ba8828b3321ca811111fa75cd3aa3bb5ace01906020840190610e09565b508482815181106106b0576106b06112e5565b60200260200101516003826040516106c891906112fe565b908152602001604051809103902090805190602001906106e9929190610e09565b508382815181106106fc576106fc6112e5565b602002602001015160048260405161071491906112fe565b908152604051908190036020019020805461ffff9290921661ffff199092169190911790555b508061074581611333565b9150506105df565b5050505050565b600254606090600090610767908461134e565b90506002818154811061077c5761077c6112e5565b906000526020600020018054610791906112a7565b80601f01602080910402602001604051908101604052809291908181526020018280546107bd906112a7565b801561080a5780601f106107df5761010080835404028352916020019161080a565b820191906000526020600020905b8154815290600101906020018083116107ed57829003601f168201915b5050505050915050919050565b60008181526001602052604081206102e690610bb2565b60008281526020819052604090206001015461084981610b55565b6103118383610b84565b61085d8282610547565b61047f57600082815260208181526040808320600160a060020a03851684529091529020805460ff191660011790556108933390565b600160a060020a031681600160a060020a0316837f2f8788117e7eff1d82e926ec794901d17c78024a50270940304540a733656f0d60405160405180910390a45050565b600061054083600160a060020a038416610bbc565b606060006108fb836002611373565b610906906002611392565b67ffffffffffffffff81111561091e5761091e610fde565b6040519080825280601f01601f191660200182016040528015610948576020820181803683370190505b5090507f30000000000000000000000000000000000000000000000000000000000000008160008151811061097f5761097f6112e5565b6020010190600160f860020a031916908160001a9053507f7800000000000000000000000000000000000000000000000000000000000000816001815181106109ca576109ca6112e5565b6020010190600160f860020a031916908160001a90535060006109ee846002611373565b6109f9906001611392565b90505b6001811115610a9c577f303132333435363738396162636465660000000000000000000000000000000085600f1660108110610a3a57610a3a6112e5565b1a7f010000000000000000000000000000000000000000000000000000000000000002828281518110610a6f57610a6f6112e5565b6020010190600160f860020a031916908160001a905350601090940493610a95816113aa565b90506109fc565b5083156105405760405160e560020a62461bcd02815260206004820181905260248201527f537472696e67733a20686578206c656e67746820696e73756666696369656e74604482015260640161046c565b6000600160e060020a031982167f7965db0b0000000000000000000000000000000000000000000000000000000014806102e657507f01ffc9a700000000000000000000000000000000000000000000000000000000600160e060020a03198316146102e6565b610b5f8133610c0b565b50565b610b6c8282610853565b600082815260016020526040902061031190826108d7565b610b8e8282610c72565b60008281526001602052604090206103119082610cd7565b60006105408383610cec565b60006102e6825490565b6000818152600183016020526040812054610c03575081546001818101845560008481526020808220909301849055845484825282860190935260409020919091556102e6565b5060006102e6565b610c158282610547565b61047f57610c2d81600160a060020a031660146108ec565b610c388360206108ec565b604051602001610c499291906113c1565b60408051601f198184030181529082905260e560020a62461bcd02825261046c916004016110d5565b610c7c8282610547565b1561047f57600082815260208181526040808320600160a060020a0385168085529252808320805460ff1916905551339285917ff6391f5c32d9c69d2a47ea670b442974b53935d1edc7fd64eb21e047a839171b9190a45050565b600061054083600160a060020a038416610d16565b6000826000018281548110610d0357610d036112e5565b9060005260206000200154905092915050565b60008181526001830160205260408120548015610dff576000610d3a600183611442565b8554909150600090610d4e90600190611442565b9050818114610db3576000866000018281548110610d6e57610d6e6112e5565b9060005260206000200154905080876000018481548110610d9157610d916112e5565b6000918252602080832090910192909255918252600188019052604090208390555b8554869080610dc457610dc4611459565b6001900381819060005260206000200160009055905585600101600086815260200190815260200160002060009055600193505050506102e6565b60009150506102e6565b828054610e15906112a7565b90600052602060002090601f016020900481019282610e375760008555610e7d565b82601f10610e5057805160ff1916838001178555610e7d565b82800160010185558215610e7d579182015b82811115610e7d578251825591602001919060010190610e62565b50610e89929150610e8d565b5090565b5b80821115610e895760008155600101610e8e565b600060208284031215610eb457600080fd5b8135600160e060020a03198116811461054057600080fd5b600060208284031215610ede57600080fd5b5035919050565b60008060408385031215610ef857600080fd5b823591506020830135600160a060020a0381168114610f1657600080fd5b809150509250929050565b60005b83811015610f3c578181015183820152602001610f24565b83811115610f4b576000848401525b50505050565b60008151808452610f69816020860160208601610f21565b601f01601f19169290920160200192915050565b600060208083018184528085518083526040860191506040848202870101925083870160005b82811015610fd157603f19888603018452610fbf858351610f51565b94509285019290850190600101610fa3565b5092979650505050505050565b60e060020a634e487b7102600052604160045260246000fd5b604051601f8201601f1916810167ffffffffffffffff8111828210171561102057611020610fde565b604052919050565b600082601f83011261103957600080fd5b813567ffffffffffffffff81111561105357611053610fde565b611066601f8201601f1916602001610ff7565b81815284602083860101111561107b57600080fd5b816020850160208301376000918101602001919091529392505050565b6000602082840312156110aa57600080fd5b813567ffffffffffffffff8111156110c157600080fd5b6110cd84828501611028565b949350505050565b6020815260006105406020830184610f51565b600080604083850312156110fb57600080fd5b50508035926020909101359150565b600067ffffffffffffffff82111561112457611124610fde565b5060209081020190565b600082601f83011261113f57600080fd5b8135602061115461114f8361110a565b610ff7565b8281529181028401810191818101908684111561117057600080fd5b8286015b848110156111b057803567ffffffffffffffff8111156111945760008081fd5b6111a28986838b0101611028565b845250918301918301611174565b509695505050505050565b6000806000606084860312156111d057600080fd5b833567ffffffffffffffff808211156111e857600080fd5b6111f48783880161112e565b945060209150818601358181111561120b57600080fd5b6112178882890161112e565b94505060408601358181111561122c57600080fd5b86019050601f8101871361123f57600080fd5b803561124d61114f8261110a565b8181529083028201830190838101908983111561126957600080fd5b928401925b8284101561129857833561ffff811681146112895760008081fd5b8252928401929084019061126e565b80955050505050509250925092565b6002810460018216806112bb57607f821691505b602082108114156112df5760e060020a634e487b7102600052602260045260246000fd5b50919050565b60e060020a634e487b7102600052603260045260246000fd5b60008251611310818460208701610f21565b9190910192915050565b60e060020a634e487b7102600052601160045260246000fd5b60006000198214156113475761134761131a565b5060010190565b60008261136e5760e060020a634e487b7102600052601260045260246000fd5b500690565b600081600019048311821515161561138d5761138d61131a565b500290565b600082198211156113a5576113a561131a565b500190565b6000816113b9576113b961131a565b506000190190565b7f416363657373436f6e74726f6c3a206163636f756e74200000000000000000008152600083516113f9816017850160208801610f21565b7f206973206d697373696e6720726f6c65200000000000000000000000000000006017918401918201528351611436816028840160208801610f21565b01602801949350505050565b6000828210156114545761145461131a565b500390565b60e060020a634e487b7102600052603160045260246000fdfea26469706673582212203e29613586240653c1781b86d6099f285f57e17e9ddd0b6414405e258940748564736f6c634300080b00334772616e747320746865206162696c69747920746f20736166656c79206c61756e6368207468652053686970206f666620776f726c6420776974686f757420616e7920706c6179657273206f6e626f6172642e412073686f727420626c61646520696e20677265617420636f6e646974696f6e2e4120736d616c6c2073686f72742072616e676520736865696c64207468617420776f756c64206f6e6c792070726f7465637420796f757220626f64792e506f77657266756c206761756e746c6574207468617420676976657320796f7520696e6372656469626c6520737472656e6774682061742074686520636f7374206f66206465787465726974792e4172746966616374202d2054686520656e67726176696e6773206f6e2074686973207461626c6574207365656d20746f20646f63756d656e7420746865204772656174204d6973666f7274756e652e2057686f20617574686f7265642074686973207461626c65743f20506572686170732074686520536369656e74697374732077696c6c2062652061626c6520746f20666967757265206974206f75742e4172746966616374202d20546869732067656d20686173206d61726b696e6773207468617420696e646963617465206974206d61792068617665206265656e207573656420666f7220736f6d6520706f77657266756c2072697475616c2e2054686520536369656e74697374732077696c6c206e65656420746f20737475647920697420616e6420736565207768617420706f776572206c6965732077697468696e2e4c617267652063616c69626572206669726561726d20696e20677265617420636f6e646974696f6e2e52656d6f7465204c61756e636820616e642047756964616e63652053797374656d536d616c6c2063616c69626572206669726561726d20746861742073686f6f7420626f6c7473206f66206c696768742e412073686f72742c207069747465642c20756e617373756d696e6720626c6164652e2041206c6172676520666f726365206669656c6420746861742063616e2070726f746563742061206c6172676520617265612e536d616c6c2063616c69626572206669726561726d20696e20677265617420636f6e646974696f6e2e4120736d616c6c20626c616465206d616465206f662070757265206c696768742e4120736d616c6c2074756265206f6620666c6f72657363656e74206c69717569642e4172746966616374202d205468697320626f6f6b20636f6e7461696e73207365766572616c20696e63616e746174696f6e7320696e2061206c616e677561676520796f752063616e6e6f7420756e6465727374616e642e2049662074686520536369656e74697374732063616e206465636970686572206974207765206d617920796574206c6561726e206974277320707572706f73652e4772616e747320746865206162696c69747920746f2074656c65706f727420616c6c20706c6179657273206f6e20612074696c6520746f20616e79206f746865722074696c652e4c617267652063616c69626572206669726561726d20746861742073686f6f7420626f6c7473206f66206c696768742e",
  "immutableReferences": {},
  "source": "// SPDX-License-Identifier: GPL-3.0\npragma solidity >=0.7.0 <0.9.0;\n\nimport \"./CardDeck.sol\";\n\ncontract TreasureDeck is CardDeck {\n    constructor() CardDeck() {\n        string[] memory cards = new string[](30);\n        string[] memory descriptions = new string[](30);\n        uint16[] memory quantities = new uint16[](30);\n\n        cards[0] = \"Rusty Dagger\";\n        descriptions[0] = \"A short, pitted, unassuming blade. \";\n        quantities[0] = 1;\n\n        cards[1] = \"Rusty Sword\";\n        descriptions[1] = \"A long, pitted, battered blade.\";\n        quantities[1] = 1;\n\n        cards[2] = \"Rusty Pistol\";\n        descriptions[2] = \"Small caliber, rusted firearm.\";\n        quantities[2] = 1;\n\n        cards[3] = \"Rusty Rifle\";\n        descriptions[3] = \"Large caliber, rusted firearm.\";\n        quantities[3] = 1;\n\n        cards[4] = \"Shiny Dagger\";\n        descriptions[4] = \"A short blade in great condition.\";\n        quantities[4] = 1;\n\n        cards[5] = \"Shiny Sword\";\n        descriptions[5] = \"A long blade in great condition.\";\n        quantities[5] = 1;\n\n        cards[6] = \"Shiny Pistol\";\n        descriptions[6] = \"Small caliber firearm in great condition.\";\n        quantities[6] = 1;\n\n        cards[7] = \"Shiny Rifle\";\n        descriptions[7] = \"Large caliber firearm in great condition.\";\n        quantities[7] = 1;\n\n        cards[8] = \"Laser Dagger\";\n        descriptions[8] = \"A small blade made of pure light.\";\n        quantities[8] = 1;\n\n        cards[9] = \"Laser Sword\";\n        descriptions[9] = \"A long blade made of pure light.\";\n        quantities[9] = 1;\n\n        cards[10] = \"Laser Pistol\";\n        descriptions[10] = \"Small caliber firearm that shoot bolts of light.\";\n        quantities[10] = 1;\n\n        cards[11] = \"Laser Rifle\";\n        descriptions[11] = \"Large caliber firearm that shoot bolts of light.\";\n        quantities[11] = 1;\n\n        cards[12] = \"Glow stick\";\n        descriptions[12] = \"A small tube of florescent liquid.\";\n        quantities[12] = 1;\n\n        cards[13] = \"Flashlight\";\n        descriptions[13] = \"A small light source.\";\n        quantities[13] = 1;\n\n        cards[14] = \"Flood light\";\n        descriptions[14] = \"A large light source.\";\n        quantities[14] = 1;\n\n        cards[15] = \"Nightvision Goggles\";\n        descriptions[15] = \"The ability to see at night.\";\n        quantities[15] = 1;\n\n        cards[16] = \"Personal Shield\";\n        descriptions[\n            16\n        ] = \"A small short range sheild that would only protect your body.\";\n        quantities[16] = 1;\n\n        cards[17] = \"Bubble Shield\";\n        descriptions[17] = \"A large force field that can protect a large area.\";\n        quantities[17] = 1;\n\n        cards[18] = \"Frag Grenade\";\n        descriptions[18] = \"Small explosive grenade.\";\n        quantities[18] = 1;\n\n        cards[19] = \"Fire Grenade\";\n        descriptions[19] = \"Small incendiary grenade.\";\n        quantities[19] = 1;\n\n        cards[20] = \"Shock Grenade\";\n        descriptions[20] = \"Small emp grenade.\";\n        quantities[20] = 1;\n\n        cards[21] = \"HE Mortar\";\n        descriptions[21] = \"Portable HE launcher.\";\n        quantities[21] = 1;\n\n        cards[22] = \"Incendiary Mortar\";\n        descriptions[22] = \"Portable Incendiary launcher.\";\n        quantities[22] = 1;\n\n        cards[23] = \"EMP Mortar\";\n        descriptions[23] = \"Portable EMP launcher.\";\n        quantities[23] = 1;\n\n        cards[24] = \"Power Glove\";\n        descriptions[\n            24\n        ] = \"Powerful gauntlet that gives you incredible strength at the cost of dexterity.\";\n        quantities[24] = 1;\n\n        cards[25] = \"Remote Launch and Guidance System\";\n        descriptions[\n            25\n        ] = \"Grants the ability to safely launch the Ship off world without any players onboard.\";\n        quantities[25] = 1;\n\n        cards[26] = \"Teleporter Pack\";\n        descriptions[\n            26\n        ] = \"Grants the ability to teleport all players on a tile to any other tile.\";\n        quantities[26] = 1;\n\n        cards[27] = \"Engraved Tablet\";\n        descriptions[\n            27\n        ] = \"Artifact - The engravings on this tablet seem to document the Great Misfortune. Who authored this tablet? Perhaps the Scientists will be able to figure it out.\";\n        quantities[27] = 1;\n\n        cards[28] = \"Sigil Gem\";\n        descriptions[\n            28\n        ] = \"Artifact - This gem has markings that indicate it may have been used for some powerful ritual. The Scientists will need to study it and see what power lies within.\";\n        quantities[28] = 1;\n\n        cards[29] = \"Ancient Tome\";\n        descriptions[\n            29\n        ] = \"Artifact - This book contains several incantations in a language you cannot understand. If the Scientists can decipher it we may yet learn it's purpose.\";\n        quantities[29] = 1;\n\n        addCards(cards, descriptions, quantities);\n    }\n}\n",
  "sourcePath": "/Users/maxmeier/Developer/Lucky Machines/hexploration/contracts/decks/TreasureDeck.sol",
  "compiler": {
    "name": "solc",
    "version": "0.8.11+commit.d7f03943.Emscripten.clang"
  },
  "schemaVersion": "3.4.4",
  "updatedAt": "2022-05-24T23:07:44.750Z",
  "networkType": "ethereum",
  "devdoc": {
    "kind": "dev",
    "methods": {
      "getRoleAdmin(bytes32)": {
        "details": "Returns the admin role that controls `role`. See {grantRole} and {revokeRole}. To change a role's admin, use {_setRoleAdmin}."
      },
      "getRoleMember(bytes32,uint256)": {
        "details": "Returns one of the accounts that have `role`. `index` must be a value between 0 and {getRoleMemberCount}, non-inclusive. Role bearers are not sorted in any particular way, and their ordering may change at any point. WARNING: When using {getRoleMember} and {getRoleMemberCount}, make sure you perform all queries on the same block. See the following https://forum.openzeppelin.com/t/iterating-over-elements-on-enumerableset-in-openzeppelin-contracts/2296[forum post] for more information."
      },
      "getRoleMemberCount(bytes32)": {
        "details": "Returns the number of accounts that have `role`. Can be used together with {getRoleMember} to enumerate all bearers of a role."
      },
      "grantRole(bytes32,address)": {
        "details": "Grants `role` to `account`. If `account` had not been already granted `role`, emits a {RoleGranted} event. Requirements: - the caller must have ``role``'s admin role."
      },
      "hasRole(bytes32,address)": {
        "details": "Returns `true` if `account` has been granted `role`."
      },
      "renounceRole(bytes32,address)": {
        "details": "Revokes `role` from the calling account. Roles are often managed via {grantRole} and {revokeRole}: this function's purpose is to provide a mechanism for accounts to lose their privileges if they are compromised (such as when a trusted device is misplaced). If the calling account had been revoked `role`, emits a {RoleRevoked} event. Requirements: - the caller must be `account`."
      },
      "revokeRole(bytes32,address)": {
        "details": "Revokes `role` from `account`. If `account` had been granted `role`, emits a {RoleRevoked} event. Requirements: - the caller must have ``role``'s admin role."
      },
      "supportsInterface(bytes4)": {
        "details": "See {IERC165-supportsInterface}."
      }
    },
    "version": 1
  },
  "userdoc": {
    "kind": "user",
    "methods": {},
    "version": 1
  }
}