{
  "contractName": "XYCoordinates",
  "abi": [
    {
      "inputs": [
        {
          "internalType": "uint256",
          "name": "numRows",
          "type": "uint256"
        },
        {
          "internalType": "uint256",
          "name": "numColumns",
          "type": "uint256"
        }
      ],
      "name": "coordinates",
      "outputs": [
        {
          "internalType": "string[]",
          "name": "",
          "type": "string[]"
        }
      ],
      "stateMutability": "pure",
      "type": "function"
    }
  ],
  "bytecode": "0x611174610053600b82828239805160001a607314610046577f4e487b7100000000000000000000000000000000000000000000000000000000600052600060045260246000fd5b30600052607381538281f3fe73000000000000000000000000000000000000000030146080604052600436106100355760003560e01c80639f6b56491461003a575b600080fd5b610054600480360381019061004f9190610d9a565b61006a565b6040516100619190610f35565b60405180910390f35b60606000828461007a9190610f86565b67ffffffffffffffff81111561009357610092610fe0565b5b6040519080825280602002602001820160405280156100c657816020015b60608152602001906001900390816100b15790505b50905060006040518061066001604052806040518060400160405280600181526020017f300000000000000000000000000000000000000000000000000000000000000081525081526020016040518060400160405280600181526020017f310000000000000000000000000000000000000000000000000000000000000081525081526020016040518060400160405280600181526020017f320000000000000000000000000000000000000000000000000000000000000081525081526020016040518060400160405280600181526020017f330000000000000000000000000000000000000000000000000000000000000081525081526020016040518060400160405280600181526020017f340000000000000000000000000000000000000000000000000000000000000081525081526020016040518060400160405280600181526020017f350000000000000000000000000000000000000000000000000000000000000081525081526020016040518060400160405280600181526020017f360000000000000000000000000000000000000000000000000000000000000081525081526020016040518060400160405280600181526020017f370000000000000000000000000000000000000000000000000000000000000081525081526020016040518060400160405280600181526020017f380000000000000000000000000000000000000000000000000000000000000081525081526020016040518060400160405280600181526020017f390000000000000000000000000000000000000000000000000000000000000081525081526020016040518060400160405280600281526020017f313000000000000000000000000000000000000000000000000000000000000081525081526020016040518060400160405280600281526020017f313100000000000000000000000000000000000000000000000000000000000081525081526020016040518060400160405280600281526020017f313200000000000000000000000000000000000000000000000000000000000081525081526020016040518060400160405280600281526020017f313300000000000000000000000000000000000000000000000000000000000081525081526020016040518060400160405280600281526020017f313400000000000000000000000000000000000000000000000000000000000081525081526020016040518060400160405280600281526020017f313500000000000000000000000000000000000000000000000000000000000081525081526020016040518060400160405280600281526020017f313600000000000000000000000000000000000000000000000000000000000081525081526020016040518060400160405280600281526020017f313700000000000000000000000000000000000000000000000000000000000081525081526020016040518060400160405280600281526020017f313800000000000000000000000000000000000000000000000000000000000081525081526020016040518060400160405280600281526020017f313900000000000000000000000000000000000000000000000000000000000081525081526020016040518060400160405280600281526020017f323000000000000000000000000000000000000000000000000000000000000081525081526020016040518060400160405280600281526020017f323100000000000000000000000000000000000000000000000000000000000081525081526020016040518060400160405280600281526020017f323200000000000000000000000000000000000000000000000000000000000081525081526020016040518060400160405280600281526020017f323300000000000000000000000000000000000000000000000000000000000081525081526020016040518060400160405280600281526020017f323400000000000000000000000000000000000000000000000000000000000081525081526020016040518060400160405280600281526020017f323500000000000000000000000000000000000000000000000000000000000081525081526020016040518060400160405280600281526020017f323600000000000000000000000000000000000000000000000000000000000081525081526020016040518060400160405280600281526020017f323700000000000000000000000000000000000000000000000000000000000081525081526020016040518060400160405280600281526020017f323800000000000000000000000000000000000000000000000000000000000081525081526020016040518060400160405280600281526020017f323900000000000000000000000000000000000000000000000000000000000081525081526020016040518060400160405280600281526020017f333000000000000000000000000000000000000000000000000000000000000081525081526020016040518060400160405280600281526020017f333100000000000000000000000000000000000000000000000000000000000081525081526020016040518060400160405280600281526020017f333200000000000000000000000000000000000000000000000000000000000081525081526020016040518060400160405280600281526020017f333300000000000000000000000000000000000000000000000000000000000081525081526020016040518060400160405280600281526020017f333400000000000000000000000000000000000000000000000000000000000081525081526020016040518060400160405280600281526020017f333500000000000000000000000000000000000000000000000000000000000081525081526020016040518060400160405280600281526020017f333600000000000000000000000000000000000000000000000000000000000081525081526020016040518060400160405280600281526020017f333700000000000000000000000000000000000000000000000000000000000081525081526020016040518060400160405280600281526020017f333800000000000000000000000000000000000000000000000000000000000081525081526020016040518060400160405280600281526020017f333900000000000000000000000000000000000000000000000000000000000081525081526020016040518060400160405280600281526020017f343000000000000000000000000000000000000000000000000000000000000081525081526020016040518060400160405280600281526020017f343100000000000000000000000000000000000000000000000000000000000081525081526020016040518060400160405280600281526020017f343200000000000000000000000000000000000000000000000000000000000081525081526020016040518060400160405280600281526020017f343300000000000000000000000000000000000000000000000000000000000081525081526020016040518060400160405280600281526020017f343400000000000000000000000000000000000000000000000000000000000081525081526020016040518060400160405280600281526020017f343500000000000000000000000000000000000000000000000000000000000081525081526020016040518060400160405280600281526020017f343600000000000000000000000000000000000000000000000000000000000081525081526020016040518060400160405280600281526020017f343700000000000000000000000000000000000000000000000000000000000081525081526020016040518060400160405280600281526020017f343800000000000000000000000000000000000000000000000000000000000081525081526020016040518060400160405280600281526020017f343900000000000000000000000000000000000000000000000000000000000081525081526020016040518060400160405280600281526020017f353000000000000000000000000000000000000000000000000000000000000081525081525090506000805b86811015610d525760005b86811015610d3e57838260338110610cc257610cc161100f565b5b6020020151848260338110610cda57610cd961100f565b5b6020020151604051602001610cf09291906110c6565b604051602081830303815290604052858481518110610d1257610d1161100f565b5b60200260200101819052508280610d28906110f5565b9350508080610d36906110f5565b915050610ca7565b508080610d4a906110f5565b915050610c9c565b5082935050505092915050565b600080fd5b6000819050919050565b610d7781610d64565b8114610d8257600080fd5b50565b600081359050610d9481610d6e565b92915050565b60008060408385031215610db157610db0610d5f565b5b6000610dbf85828601610d85565b9250506020610dd085828601610d85565b9150509250929050565b600081519050919050565b600082825260208201905092915050565b6000819050602082019050919050565b600081519050919050565b600082825260208201905092915050565b60005b83811015610e40578082015181840152602081019050610e25565b83811115610e4f576000848401525b50505050565b6000601f19601f8301169050919050565b6000610e7182610e06565b610e7b8185610e11565b9350610e8b818560208601610e22565b610e9481610e55565b840191505092915050565b6000610eab8383610e66565b905092915050565b6000602082019050919050565b6000610ecb82610dda565b610ed58185610de5565b935083602082028501610ee785610df6565b8060005b85811015610f235784840389528151610f048582610e9f565b9450610f0f83610eb3565b925060208a01995050600181019050610eeb565b50829750879550505050505092915050565b60006020820190508181036000830152610f4f8184610ec0565b905092915050565b7f4e487b7100000000000000000000000000000000000000000000000000000000600052601160045260246000fd5b6000610f9182610d64565b9150610f9c83610d64565b9250817fffffffffffffffffffffffffffffffffffffffffffffffffffffffffffffffff0483118215151615610fd557610fd4610f57565b5b828202905092915050565b7f4e487b7100000000000000000000000000000000000000000000000000000000600052604160045260246000fd5b7f4e487b7100000000000000000000000000000000000000000000000000000000600052603260045260246000fd5b600081905092915050565b600061105482610e06565b61105e818561103e565b935061106e818560208601610e22565b80840191505092915050565b7f2c00000000000000000000000000000000000000000000000000000000000000600082015250565b60006110b060018361103e565b91506110bb8261107a565b600182019050919050565b60006110d28285611049565b91506110dd826110a3565b91506110e98284611049565b91508190509392505050565b600061110082610d64565b91507fffffffffffffffffffffffffffffffffffffffffffffffffffffffffffffffff82141561113357611132610f57565b5b60018201905091905056fea264697066735822122049d95a0238770abae004f0d2bb0ecf1773250b7a024833bc519b5bcd01b4d7ab64736f6c634300080b0033",
  "immutableReferences": {},
  "source": "// SPDX-License-Identifier: GPL-3.0\npragma solidity >=0.8.0;\n\nlibrary XYCoordinates {\n    function coordinates(uint256 numRows, uint256 numColumns)\n        public\n        pure\n        returns (string[] memory)\n    {\n        string[] memory allCoords = new string[](numRows * numColumns);\n        string[51] memory nums = [\n            \"0\",\n            \"1\",\n            \"2\",\n            \"3\",\n            \"4\",\n            \"5\",\n            \"6\",\n            \"7\",\n            \"8\",\n            \"9\",\n            \"10\",\n            \"11\",\n            \"12\",\n            \"13\",\n            \"14\",\n            \"15\",\n            \"16\",\n            \"17\",\n            \"18\",\n            \"19\",\n            \"20\",\n            \"21\",\n            \"22\",\n            \"23\",\n            \"24\",\n            \"25\",\n            \"26\",\n            \"27\",\n            \"28\",\n            \"29\",\n            \"30\",\n            \"31\",\n            \"32\",\n            \"33\",\n            \"34\",\n            \"35\",\n            \"36\",\n            \"37\",\n            \"38\",\n            \"39\",\n            \"40\",\n            \"41\",\n            \"42\",\n            \"43\",\n            \"44\",\n            \"45\",\n            \"46\",\n            \"47\",\n            \"48\",\n            \"49\",\n            \"50\"\n        ];\n        uint256 curIndex = 0;\n        for (uint256 i = 0; i < numRows; i++) {\n            for (uint256 j = 0; j < numColumns; j++) {\n                allCoords[curIndex] = string(\n                    abi.encodePacked(nums[i], \",\", nums[j])\n                );\n                curIndex++;\n            }\n        }\n        return allCoords;\n    }\n}\n",
  "sourcePath": "@luckymachines/game-core/contracts/src/v0.0/libraries/XYCoords.sol",
  "compiler": {
    "name": "solc",
    "version": "0.8.11+commit.d7f03943.Emscripten.clang"
  },
  "schemaVersion": "3.4.4",
  "updatedAt": "2022-05-02T05:10:56.331Z",
  "devdoc": {
    "kind": "dev",
    "methods": {},
    "version": 1
  },
  "userdoc": {
    "kind": "user",
    "methods": {},
    "version": 1
  }
}