{
  "contractName": "XYCoordinates",
  "abi": [
    {
      "inputs": [
        {
          "internalType": "uint256",
          "name": "numRows",
          "type": "uint256"
        },
        {
          "internalType": "uint256",
          "name": "numColumns",
          "type": "uint256"
        }
      ],
      "name": "coordinates",
      "outputs": [
        {
          "internalType": "string[]",
          "name": "",
          "type": "string[]"
        }
      ],
      "stateMutability": "pure",
      "type": "function"
    }
  ],
  "bytecode": "0x610e1d610053600b82828239805160001a607314610046577f4e487b7100000000000000000000000000000000000000000000000000000000600052600060045260246000fd5b30600052607381538281f3fe7300000000000000000000000000000000000000003014608060405260043610610051577c010000000000000000000000000000000000000000000000000000000060003504639f6b56498114610056575b600080fd5b610069610064366004610c3f565b61007f565b6040516100769190610c91565b60405180910390f35b6060600061008d8385610d23565b67ffffffffffffffff8111156100a5576100a5610d42565b6040519080825280602002602001820160405280156100d857816020015b60608152602001906001900390816100c35790505b50604080516106a081018252600161066082018181527f30000000000000000000000000000000000000000000000000000000000000006106808401528252825180840184528181527f310000000000000000000000000000000000000000000000000000000000000060208281019190915280840191909152835180850185528281527f32000000000000000000000000000000000000000000000000000000000000008183015283850152835180850185528281527f3300000000000000000000000000000000000000000000000000000000000000818301526060840152835180850185528281527f3400000000000000000000000000000000000000000000000000000000000000818301526080840152835180850185528281527f35000000000000000000000000000000000000000000000000000000000000008183015260a0840152835180850185528281527f36000000000000000000000000000000000000000000000000000000000000008183015260c0840152835180850185528281527f37000000000000000000000000000000000000000000000000000000000000008183015260e0840152835180850185528281527f380000000000000000000000000000000000000000000000000000000000000081830152610100840152835180850185529182527f3900000000000000000000000000000000000000000000000000000000000000828201526101208301919091528251808401845260028082527f313000000000000000000000000000000000000000000000000000000000000082840152610140840191909152835180850185528181527f313100000000000000000000000000000000000000000000000000000000000081840152610160840152835180850185528181527f313200000000000000000000000000000000000000000000000000000000000081840152610180840152835180850185528181527f3133000000000000000000000000000000000000000000000000000000000000818401526101a0840152835180850185528181527f3134000000000000000000000000000000000000000000000000000000000000818401526101c0840152835180850185528181527f3135000000000000000000000000000000000000000000000000000000000000818401526101e0840152835180850185528181527f313600000000000000000000000000000000000000000000000000000000000081840152610200840152835180850185528181527f313700000000000000000000000000000000000000000000000000000000000081840152610220840152835180850185528181527f313800000000000000000000000000000000000000000000000000000000000081840152610240840152835180850185528181527f313900000000000000000000000000000000000000000000000000000000000081840152610260840152835180850185528181527f323000000000000000000000000000000000000000000000000000000000000081840152610280840152835180850185528181527f3231000000000000000000000000000000000000000000000000000000000000818401526102a0840152835180850185528181527f3232000000000000000000000000000000000000000000000000000000000000818401526102c0840152835180850185528181527f3233000000000000000000000000000000000000000000000000000000000000818401526102e0840152835180850185528181527f323400000000000000000000000000000000000000000000000000000000000081840152610300840152835180850185528181527f323500000000000000000000000000000000000000000000000000000000000081840152610320840152835180850185528181527f323600000000000000000000000000000000000000000000000000000000000081840152610340840152835180850185528181527f323700000000000000000000000000000000000000000000000000000000000081840152610360840152835180850185528181527f323800000000000000000000000000000000000000000000000000000000000081840152610380840152835180850185528181527f3239000000000000000000000000000000000000000000000000000000000000818401526103a0840152835180850185528181527f3330000000000000000000000000000000000000000000000000000000000000818401526103c0840152835180850185528181527f3331000000000000000000000000000000000000000000000000000000000000818401526103e0840152835180850185528181527f333200000000000000000000000000000000000000000000000000000000000081840152610400840152835180850185528181527f333300000000000000000000000000000000000000000000000000000000000081840152610420840152835180850185528181527f333400000000000000000000000000000000000000000000000000000000000081840152610440840152835180850185528181527f333500000000000000000000000000000000000000000000000000000000000081840152610460840152835180850185528181527f333600000000000000000000000000000000000000000000000000000000000081840152610480840152835180850185528181527f3337000000000000000000000000000000000000000000000000000000000000818401526104a0840152835180850185528181527f3338000000000000000000000000000000000000000000000000000000000000818401526104c0840152835180850185528181527f3339000000000000000000000000000000000000000000000000000000000000818401526104e0840152835180850185528181527f343000000000000000000000000000000000000000000000000000000000000081840152610500840152835180850185528181527f343100000000000000000000000000000000000000000000000000000000000081840152610520840152835180850185528181527f343200000000000000000000000000000000000000000000000000000000000081840152610540840152835180850185528181527f343300000000000000000000000000000000000000000000000000000000000081840152610560840152835180850185528181527f343400000000000000000000000000000000000000000000000000000000000081840152610580840152835180850185528181527f3435000000000000000000000000000000000000000000000000000000000000818401526105a0840152835180850185528181527f3436000000000000000000000000000000000000000000000000000000000000818401526105c0840152835180850185528181527f3437000000000000000000000000000000000000000000000000000000000000818401526105e0840152835180850185528181527f343800000000000000000000000000000000000000000000000000000000000081840152610600840152835180850185528181527f343900000000000000000000000000000000000000000000000000000000000081840152610620840152835180850190945283527f3530000000000000000000000000000000000000000000000000000000000000908301526106408101919091529091506000805b85811015610c345760005b87811015610c2157838260338110610ba757610ba7610d5b565b6020020151848260338110610bbe57610bbe610d5b565b6020020151604051602001610bd4929190610d74565b604051602081830303815290604052858481518110610bf557610bf5610d5b565b60200260200101819052508280610c0b90610dcc565b9350508080610c1990610dcc565b915050610b8d565b5080610c2c81610dcc565b915050610b82565b509195945050505050565b60008060408385031215610c5257600080fd5b50508035926020909101359150565b60005b83811015610c7c578181015183820152602001610c64565b83811115610c8b576000848401525b50505050565b600060208083018184528085518083526040860191506040848202870101925083870160005b82811015610cfd57878503603f1901845281518051808752610cde818989018a8501610c61565b601f01601f191695909501860194509285019290850190600101610cb7565b5092979650505050505050565b60e060020a634e487b7102600052601160045260246000fd5b6000816000190483118215151615610d3d57610d3d610d0a565b500290565b60e060020a634e487b7102600052604160045260246000fd5b60e060020a634e487b7102600052603260045260246000fd5b60008351610d86818460208801610c61565b7f2c000000000000000000000000000000000000000000000000000000000000009083019081528351610dc0816001840160208801610c61565b01600101949350505050565b6000600019821415610de057610de0610d0a565b506001019056fea26469706673582212202addc88a9755ad1c4edc741acd84d5483f6e3bc3f1db91351ad7930f75ad722064736f6c634300080b0033",
  "immutableReferences": {},
  "source": "// SPDX-License-Identifier: GPL-3.0\npragma solidity >=0.8.0;\n\nlibrary XYCoordinates {\n    function coordinates(uint256 numRows, uint256 numColumns)\n        public\n        pure\n        returns (string[] memory)\n    {\n        string[] memory allCoords = new string[](numRows * numColumns);\n        string[51] memory nums = [\n            \"0\",\n            \"1\",\n            \"2\",\n            \"3\",\n            \"4\",\n            \"5\",\n            \"6\",\n            \"7\",\n            \"8\",\n            \"9\",\n            \"10\",\n            \"11\",\n            \"12\",\n            \"13\",\n            \"14\",\n            \"15\",\n            \"16\",\n            \"17\",\n            \"18\",\n            \"19\",\n            \"20\",\n            \"21\",\n            \"22\",\n            \"23\",\n            \"24\",\n            \"25\",\n            \"26\",\n            \"27\",\n            \"28\",\n            \"29\",\n            \"30\",\n            \"31\",\n            \"32\",\n            \"33\",\n            \"34\",\n            \"35\",\n            \"36\",\n            \"37\",\n            \"38\",\n            \"39\",\n            \"40\",\n            \"41\",\n            \"42\",\n            \"43\",\n            \"44\",\n            \"45\",\n            \"46\",\n            \"47\",\n            \"48\",\n            \"49\",\n            \"50\"\n        ];\n        uint256 curIndex = 0;\n        for (uint256 i = 0; i < numColumns; i++) {\n            for (uint256 j = 0; j < numRows; j++) {\n                allCoords[curIndex] = string(\n                    abi.encodePacked(nums[i], \",\", nums[j])\n                );\n                curIndex++;\n            }\n        }\n        return allCoords;\n    }\n}\n",
  "sourcePath": "@luckymachines/game-core/contracts/src/v0.0/libraries/XYCoords.sol",
  "compiler": {
    "name": "solc",
    "version": "0.8.11+commit.d7f03943.Emscripten.clang"
  },
  "schemaVersion": "3.4.4",
  "updatedAt": "2022-05-27T21:02:43.010Z",
  "devdoc": {
    "kind": "dev",
    "methods": {},
    "version": 1
  },
  "userdoc": {
    "kind": "user",
    "methods": {},
    "version": 1
  }
}