{
  "contractName": "ZoneWallet",
  "abi": [
    {
      "inputs": [],
      "stateMutability": "nonpayable",
      "type": "constructor"
    },
    {
      "anonymous": false,
      "inputs": [
        {
          "indexed": true,
          "internalType": "bytes32",
          "name": "role",
          "type": "bytes32"
        },
        {
          "indexed": true,
          "internalType": "bytes32",
          "name": "previousAdminRole",
          "type": "bytes32"
        },
        {
          "indexed": true,
          "internalType": "bytes32",
          "name": "newAdminRole",
          "type": "bytes32"
        }
      ],
      "name": "RoleAdminChanged",
      "type": "event"
    },
    {
      "anonymous": false,
      "inputs": [
        {
          "indexed": true,
          "internalType": "bytes32",
          "name": "role",
          "type": "bytes32"
        },
        {
          "indexed": true,
          "internalType": "address",
          "name": "account",
          "type": "address"
        },
        {
          "indexed": true,
          "internalType": "address",
          "name": "sender",
          "type": "address"
        }
      ],
      "name": "RoleGranted",
      "type": "event"
    },
    {
      "anonymous": false,
      "inputs": [
        {
          "indexed": true,
          "internalType": "bytes32",
          "name": "role",
          "type": "bytes32"
        },
        {
          "indexed": true,
          "internalType": "address",
          "name": "account",
          "type": "address"
        },
        {
          "indexed": true,
          "internalType": "address",
          "name": "sender",
          "type": "address"
        }
      ],
      "name": "RoleRevoked",
      "type": "event"
    },
    {
      "inputs": [],
      "name": "DEFAULT_ADMIN_ROLE",
      "outputs": [
        {
          "internalType": "bytes32",
          "name": "",
          "type": "bytes32"
        }
      ],
      "stateMutability": "view",
      "type": "function"
    },
    {
      "inputs": [
        {
          "internalType": "address[]",
          "name": "_tokenAddresses",
          "type": "address[]"
        },
        {
          "internalType": "string[]",
          "name": "_tokenTypes",
          "type": "string[]"
        }
      ],
      "name": "addTokenTypes",
      "outputs": [],
      "stateMutability": "nonpayable",
      "type": "function"
    },
    {
      "inputs": [
        {
          "internalType": "uint256",
          "name": "gameID",
          "type": "uint256"
        },
        {
          "internalType": "uint256",
          "name": "playerID",
          "type": "uint256"
        }
      ],
      "name": "allBalances",
      "outputs": [
        {
          "internalType": "address[]",
          "name": "addresses",
          "type": "address[]"
        },
        {
          "internalType": "string[]",
          "name": "types",
          "type": "string[]"
        },
        {
          "internalType": "uint256[]",
          "name": "balances",
          "type": "uint256[]"
        }
      ],
      "stateMutability": "view",
      "type": "function"
    },
    {
      "inputs": [
        {
          "internalType": "bytes32",
          "name": "role",
          "type": "bytes32"
        }
      ],
      "name": "getRoleAdmin",
      "outputs": [
        {
          "internalType": "bytes32",
          "name": "",
          "type": "bytes32"
        }
      ],
      "stateMutability": "view",
      "type": "function"
    },
    {
      "inputs": [
        {
          "internalType": "bytes32",
          "name": "role",
          "type": "bytes32"
        },
        {
          "internalType": "uint256",
          "name": "index",
          "type": "uint256"
        }
      ],
      "name": "getRoleMember",
      "outputs": [
        {
          "internalType": "address",
          "name": "",
          "type": "address"
        }
      ],
      "stateMutability": "view",
      "type": "function"
    },
    {
      "inputs": [
        {
          "internalType": "bytes32",
          "name": "role",
          "type": "bytes32"
        }
      ],
      "name": "getRoleMemberCount",
      "outputs": [
        {
          "internalType": "uint256",
          "name": "",
          "type": "uint256"
        }
      ],
      "stateMutability": "view",
      "type": "function"
    },
    {
      "inputs": [
        {
          "internalType": "bytes32",
          "name": "role",
          "type": "bytes32"
        },
        {
          "internalType": "address",
          "name": "account",
          "type": "address"
        }
      ],
      "name": "grantRole",
      "outputs": [],
      "stateMutability": "nonpayable",
      "type": "function"
    },
    {
      "inputs": [
        {
          "internalType": "bytes32",
          "name": "role",
          "type": "bytes32"
        },
        {
          "internalType": "address",
          "name": "account",
          "type": "address"
        }
      ],
      "name": "hasRole",
      "outputs": [
        {
          "internalType": "bool",
          "name": "",
          "type": "bool"
        }
      ],
      "stateMutability": "view",
      "type": "function"
    },
    {
      "inputs": [
        {
          "internalType": "bytes32",
          "name": "role",
          "type": "bytes32"
        },
        {
          "internalType": "address",
          "name": "account",
          "type": "address"
        }
      ],
      "name": "renounceRole",
      "outputs": [],
      "stateMutability": "nonpayable",
      "type": "function"
    },
    {
      "inputs": [
        {
          "internalType": "bytes32",
          "name": "role",
          "type": "bytes32"
        },
        {
          "internalType": "address",
          "name": "account",
          "type": "address"
        }
      ],
      "name": "revokeRole",
      "outputs": [],
      "stateMutability": "nonpayable",
      "type": "function"
    },
    {
      "inputs": [
        {
          "internalType": "bytes4",
          "name": "interfaceId",
          "type": "bytes4"
        }
      ],
      "name": "supportsInterface",
      "outputs": [
        {
          "internalType": "bool",
          "name": "",
          "type": "bool"
        }
      ],
      "stateMutability": "view",
      "type": "function"
    },
    {
      "inputs": [
        {
          "internalType": "uint256",
          "name": "",
          "type": "uint256"
        }
      ],
      "name": "tokenAddresses",
      "outputs": [
        {
          "internalType": "address",
          "name": "",
          "type": "address"
        }
      ],
      "stateMutability": "view",
      "type": "function"
    },
    {
      "inputs": [
        {
          "internalType": "address",
          "name": "",
          "type": "address"
        },
        {
          "internalType": "string",
          "name": "",
          "type": "string"
        }
      ],
      "name": "tokenTypeSet",
      "outputs": [
        {
          "internalType": "bool",
          "name": "",
          "type": "bool"
        }
      ],
      "stateMutability": "view",
      "type": "function"
    },
    {
      "inputs": [
        {
          "internalType": "uint256",
          "name": "",
          "type": "uint256"
        }
      ],
      "name": "tokenTypes",
      "outputs": [
        {
          "internalType": "string",
          "name": "",
          "type": "string"
        }
      ],
      "stateMutability": "view",
      "type": "function"
    }
  ],
  "bytecode": "0x60806040523480156200001157600080fd5b506200003a60006200002b64010000000062000040810204565b64010000000062000044810204565b62000202565b3390565b6200005982826401000000006200005d810204565b5050565b62000077828264010000000062000969620000a482021704565b60008281526001602052604090206200009f9082640100000000620009ed6200014082021704565b505050565b620000b9828264010000000062000169810204565b6200005957600082815260208181526040808320600160a060020a03851684529091529020805460ff19166001179055620000fc64010000000062000040810204565b600160a060020a031681600160a060020a0316837f2f8788117e7eff1d82e926ec794901d17c78024a50270940304540a733656f0d60405160405180910390a45050565b60006200016083600160a060020a03841664010000000062000192810204565b90505b92915050565b600091825260208281526040808420600160a060020a0393909316845291905290205460ff1690565b6000620001a98383640100000000620001ea810204565b620001e15750815460018181018455600084815260208082209093018490558454848252828601909352604090209190915562000163565b50600062000163565b60009081526001919091016020526040902054151590565b61168b80620002126000396000f3fe608060405234801561001057600080fd5b5060043610610107576000357c0100000000000000000000000000000000000000000000000000000000900480639010d07c116100a9578063a3aabf9911610083578063a3aabf9914610254578063ca15c87314610267578063d547741f1461027a578063e5df8b841461028d57600080fd5b80639010d07c1461020e57806391d1485414610239578063a217fddf1461024c57600080fd5b806333f6832a116100e557806333f6832a1461017a57806334ca09381461019a57806336568abe146101bc57806354660dd0146101cf57600080fd5b806301ffc9a71461010c578063248a9ca3146101345780632f2ff15d14610165575b600080fd5b61011f61011a366004611000565b6102a0565b60405190151581526020015b60405180910390f35b61015761014236600461102a565b60009081526020819052604090206001015490565b60405190815260200161012b565b61017861017336600461105f565b6102e4565b005b61018d61018836600461102a565b61030e565b60405161012b91906110e3565b6101ad6101a83660046110f6565b6103ba565b60405161012b93929190611153565b6101786101ca36600461105f565b610638565b61011f6101dd3660046112bf565b6004602090815260009283526040909220815180830184018051928152908401929093019190912091525460ff1681565b61022161021c3660046110f6565b6106cc565b604051600160a060020a03909116815260200161012b565b61011f61024736600461105f565b6106eb565b610157600081565b6101786102623660046113be565b610714565b61015761027536600461102a565b610903565b61017861028836600461105f565b61091a565b61022161029b36600461102a565b61093f565b6000600160e060020a031982167f5a05180f0000000000000000000000000000000000000000000000000000000014806102de57506102de82610a02565b92915050565b6000828152602081905260409020600101546102ff81610a69565b6103098383610a76565b505050565b6003818154811061031e57600080fd5b90600052602060002001600091509050805461033990611471565b80601f016020809104026020016040519081016040528092919081815260200182805461036590611471565b80156103b25780601f10610387576101008083540402835291602001916103b2565b820191906000526020600020905b81548152906001019060200180831161039557829003601f168201915b505050505081565b6060806060600280548060200260200160405190810160405280929190818152602001828054801561041557602002820191906000526020600020905b8154600160a060020a031681526001909101906020018083116103f7575b505050505092506003805480602002602001604051908101604052809291908181526020016000905b828210156104ea57838290600052602060002001805461045d90611471565b80601f016020809104026020016040519081016040528092919081815260200182805461048990611471565b80156104d65780601f106104ab576101008083540402835291602001916104d6565b820191906000526020600020905b8154815290600101906020018083116104b957829003601f168201915b50505050508152602001906001019061043e565b505050509150825167ffffffffffffffff81111561050a5761050a611205565b604051908082528060200260200182016040528015610533578160200160208202803683370190505b50905060005b835181101561063057838181518110610554576105546114af565b6020026020010151600160a060020a0316634db157d084838151811061057c5761057c6114af565b602002602001015188886040518463ffffffff167c01000000000000000000000000000000000000000000000000000000000281526004016105c0939291906114c8565b602060405180830381865afa1580156105dd573d6000803e3d6000fd5b505050506040513d601f19601f8201168201806040525081019061060191906114ed565b828281518110610613576106136114af565b6020908102919091010152806106288161151f565b915050610539565b509250925092565b600160a060020a03811633146106be5760405160e560020a62461bcd02815260206004820152602f60248201527f416363657373436f6e74726f6c3a2063616e206f6e6c792072656e6f756e636560448201527f20726f6c657320666f722073656c66000000000000000000000000000000000060648201526084015b60405180910390fd5b6106c88282610a98565b5050565b60008281526001602052604081206106e49083610aba565b9392505050565b600091825260208281526040808420600160a060020a0393909316845291905290205460ff1690565b600061071f81610a69565b600354600254146107755760405160e560020a62461bcd02815260206004820152601560248201527f6172726179206c656e677468206d69736d61746368000000000000000000000060448201526064016106b5565b60005b6002548110156108fd576000848281518110610796576107966114af565b6020026020010151905060008483815181106107b4576107b46114af565b602002602001015190506004600083600160a060020a0316600160a060020a03168152602001908152602001600020816040516107f1919061153a565b9081526040519081900360200190205460ff166108e8576002805460018082019092557f405787fa12a823e0f2b7631cc41b3ba8828b3321ca811111fa75cd3aa3bb5ace01805473ffffffffffffffffffffffffffffffffffffffff1916600160a060020a038516179055600380549182018155600052815161089b917fc2575a0e9e593c00f959f8c92f12db2869c3395a3b0502d05e2516446f71f85b01906020840190610f67565b50600160a060020a038216600090815260046020526040908190209051600191906108c790849061153a565b908152604051908190036020019020805491151560ff199092169190911790555b505080806108f59061151f565b915050610778565b50505050565b60008181526001602052604081206102de90610ac6565b60008281526020819052604090206001015461093581610a69565b6103098383610a98565b6002818154811061094f57600080fd5b600091825260209091200154600160a060020a0316905081565b61097382826106eb565b6106c857600082815260208181526040808320600160a060020a03851684529091529020805460ff191660011790556109a93390565b600160a060020a031681600160a060020a0316837f2f8788117e7eff1d82e926ec794901d17c78024a50270940304540a733656f0d60405160405180910390a45050565b60006106e483600160a060020a038416610ad0565b6000600160e060020a031982167f7965db0b0000000000000000000000000000000000000000000000000000000014806102de57507f01ffc9a700000000000000000000000000000000000000000000000000000000600160e060020a03198316146102de565b610a738133610b1f565b50565b610a808282610969565b600082815260016020526040902061030990826109ed565b610aa28282610b86565b60008281526001602052604090206103099082610beb565b60006106e48383610c00565b60006102de825490565b6000818152600183016020526040812054610b17575081546001818101845560008481526020808220909301849055845484825282860190935260409020919091556102de565b5060006102de565b610b2982826106eb565b6106c857610b4181600160a060020a03166014610c2a565b610b4c836020610c2a565b604051602001610b5d929190611556565b60408051601f198184030181529082905260e560020a62461bcd0282526106b5916004016110e3565b610b9082826106eb565b156106c857600082815260208181526040808320600160a060020a0385168085529252808320805460ff1916905551339285917ff6391f5c32d9c69d2a47ea670b442974b53935d1edc7fd64eb21e047a839171b9190a45050565b60006106e483600160a060020a038416610e74565b6000826000018281548110610c1757610c176114af565b9060005260206000200154905092915050565b60606000610c398360026115d7565b610c449060026115f6565b67ffffffffffffffff811115610c5c57610c5c611205565b6040519080825280601f01601f191660200182016040528015610c86576020820181803683370190505b5090507f300000000000000000000000000000000000000000000000000000000000000081600081518110610cbd57610cbd6114af565b60200101907effffffffffffffffffffffffffffffffffffffffffffffffffffffffffffff1916908160001a9053507f780000000000000000000000000000000000000000000000000000000000000081600181518110610d2057610d206114af565b60200101907effffffffffffffffffffffffffffffffffffffffffffffffffffffffffffff1916908160001a9053506000610d5c8460026115d7565b610d679060016115f6565b90505b6001811115610e22577f303132333435363738396162636465660000000000000000000000000000000085600f1660108110610da857610da86114af565b1a7f010000000000000000000000000000000000000000000000000000000000000002828281518110610ddd57610ddd6114af565b60200101907effffffffffffffffffffffffffffffffffffffffffffffffffffffffffffff1916908160001a905350601090940493610e1b8161160e565b9050610d6a565b5083156106e45760405160e560020a62461bcd02815260206004820181905260248201527f537472696e67733a20686578206c656e67746820696e73756666696369656e7460448201526064016106b5565b60008181526001830160205260408120548015610f5d576000610e98600183611625565b8554909150600090610eac90600190611625565b9050818114610f11576000866000018281548110610ecc57610ecc6114af565b9060005260206000200154905080876000018481548110610eef57610eef6114af565b6000918252602080832090910192909255918252600188019052604090208390555b8554869080610f2257610f2261163c565b6001900381819060005260206000200160009055905585600101600086815260200190815260200160002060009055600193505050506102de565b60009150506102de565b828054610f7390611471565b90600052602060002090601f016020900481019282610f955760008555610fdb565b82601f10610fae57805160ff1916838001178555610fdb565b82800160010185558215610fdb579182015b82811115610fdb578251825591602001919060010190610fc0565b50610fe7929150610feb565b5090565b5b80821115610fe75760008155600101610fec565b60006020828403121561101257600080fd5b8135600160e060020a0319811681146106e457600080fd5b60006020828403121561103c57600080fd5b5035919050565b8035600160a060020a038116811461105a57600080fd5b919050565b6000806040838503121561107257600080fd5b8235915061108260208401611043565b90509250929050565b60005b838110156110a657818101518382015260200161108e565b838111156108fd5750506000910152565b600081518084526110cf81602086016020860161108b565b601f01601f19169290920160200192915050565b6020815260006106e460208301846110b7565b6000806040838503121561110957600080fd5b50508035926020909101359150565b600081518084526020808501945080840160005b838110156111485781518752958201959082019060010161112c565b509495945050505050565b606080825284519082018190526000906020906080840190828801845b82811015611195578151600160a060020a031684529284019290840190600101611170565b505050838103828501528551808252828201908084028301840188850160005b838110156111e357601f198684030185526111d18383516110b7565b948701949250908601906001016111b5565b505086810360408801526111f78189611118565b9a9950505050505050505050565b60e060020a634e487b7102600052604160045260246000fd5b604051601f8201601f1916810167ffffffffffffffff8111828210171561124757611247611205565b604052919050565b600082601f83011261126057600080fd5b813567ffffffffffffffff81111561127a5761127a611205565b61128d601f8201601f191660200161121e565b8181528460208386010111156112a257600080fd5b816020850160208301376000918101602001919091529392505050565b600080604083850312156112d257600080fd5b6112db83611043565b9150602083013567ffffffffffffffff8111156112f757600080fd5b6113038582860161124f565b9150509250929050565b600067ffffffffffffffff82111561132757611327611205565b5060209081020190565b600082601f83011261134257600080fd5b813560206113576113528361130d565b61121e565b8281529181028401810191818101908684111561137357600080fd5b8286015b848110156113b357803567ffffffffffffffff8111156113975760008081fd5b6113a58986838b010161124f565b845250918301918301611377565b509695505050505050565b600080604083850312156113d157600080fd5b823567ffffffffffffffff808211156113e957600080fd5b818501915085601f8301126113fd57600080fd5b8135602061140d6113528361130d565b8281529181028401810191818101908984111561142957600080fd5b948201945b8386101561144e5761143f86611043565b8252948201949082019061142e565b9650508601359250508082111561146457600080fd5b5061130385828601611331565b60028104600182168061148557607f821691505b602082108114156114a95760e060020a634e487b7102600052602260045260246000fd5b50919050565b60e060020a634e487b7102600052603260045260246000fd5b6060815260006114db60608301866110b7565b60208301949094525060400152919050565b6000602082840312156114ff57600080fd5b5051919050565b60e060020a634e487b7102600052601160045260246000fd5b600060001982141561153357611533611506565b5060010190565b6000825161154c81846020870161108b565b9190910192915050565b7f416363657373436f6e74726f6c3a206163636f756e742000000000000000000081526000835161158e81601785016020880161108b565b7f206973206d697373696e6720726f6c652000000000000000000000000000000060179184019182015283516115cb81602884016020880161108b565b01602801949350505050565b60008160001904831182151516156115f1576115f1611506565b500290565b6000821982111561160957611609611506565b500190565b60008161161d5761161d611506565b506000190190565b60008282101561163757611637611506565b500390565b60e060020a634e487b7102600052603160045260246000fdfea26469706673582212203b17afb346c50e324ffc362d7d81542c92e71f20c68daf714a0f1ff0c81da34764736f6c634300080b0033",
  "immutableReferences": {},
  "source": "// SPDX-License-Identifier: GPL-3.0\npragma solidity >=0.7.0 <0.9.0;\n\nimport \"./GameWallet.sol\";\n\ncontract ZoneWallet is GameWallet {\n    constructor() GameWallet() {}\n}\n",
  "sourcePath": "/Users/maxmeier/Developer/Lucky Machines/hexploration/contracts/state/ZoneWallet.sol",
  "compiler": {
    "name": "solc",
    "version": "0.8.11+commit.d7f03943.Emscripten.clang"
  },
  "schemaVersion": "3.4.4",
  "updatedAt": "2022-05-11T22:37:46.003Z",
  "devdoc": {
    "kind": "dev",
    "methods": {
      "getRoleAdmin(bytes32)": {
        "details": "Returns the admin role that controls `role`. See {grantRole} and {revokeRole}. To change a role's admin, use {_setRoleAdmin}."
      },
      "getRoleMember(bytes32,uint256)": {
        "details": "Returns one of the accounts that have `role`. `index` must be a value between 0 and {getRoleMemberCount}, non-inclusive. Role bearers are not sorted in any particular way, and their ordering may change at any point. WARNING: When using {getRoleMember} and {getRoleMemberCount}, make sure you perform all queries on the same block. See the following https://forum.openzeppelin.com/t/iterating-over-elements-on-enumerableset-in-openzeppelin-contracts/2296[forum post] for more information."
      },
      "getRoleMemberCount(bytes32)": {
        "details": "Returns the number of accounts that have `role`. Can be used together with {getRoleMember} to enumerate all bearers of a role."
      },
      "grantRole(bytes32,address)": {
        "details": "Grants `role` to `account`. If `account` had not been already granted `role`, emits a {RoleGranted} event. Requirements: - the caller must have ``role``'s admin role."
      },
      "hasRole(bytes32,address)": {
        "details": "Returns `true` if `account` has been granted `role`."
      },
      "renounceRole(bytes32,address)": {
        "details": "Revokes `role` from the calling account. Roles are often managed via {grantRole} and {revokeRole}: this function's purpose is to provide a mechanism for accounts to lose their privileges if they are compromised (such as when a trusted device is misplaced). If the calling account had been revoked `role`, emits a {RoleRevoked} event. Requirements: - the caller must be `account`."
      },
      "revokeRole(bytes32,address)": {
        "details": "Revokes `role` from `account`. If `account` had been granted `role`, emits a {RoleRevoked} event. Requirements: - the caller must have ``role``'s admin role."
      },
      "supportsInterface(bytes4)": {
        "details": "See {IERC165-supportsInterface}."
      }
    },
    "version": 1
  },
  "userdoc": {
    "kind": "user",
    "methods": {},
    "version": 1
  }
}